{
    "ABAcallsSuicide1" : {
        "_info" : {
            "comment" : "",
            "filling-rpc-server" : "evm version 1.13.13-unstable-034bc466-20240219",
            "filling-tool-version" : "retesteth-0.3.2-cancun+commit.014a68a5.Linux.g++",
            "generatedTestHash" : "2ddd093f75a4e74db2426fea0dbecee901baaf3059e6715a9258b3fbaea41ded",
            "lllcversion" : "Version: 0.5.14-develop.2023.7.11+commit.c58ab2c6.mod.Linux.g++",
            "solidity" : "Version: 0.8.21+commit.d9974bed.Linux.g++",
            "source" : "src/GeneralStateTestsFiller/stSystemOperationsTest/ABAcallsSuicide1Filler.json",
            "sourceHash" : "0bb8915b5156f89c6b54f5f6199aa48156d7ea3aba1d39f208d555b95ea88f2a"
        },
        "env" : {
            "currentBaseFee" : "0x0a",
            "currentCoinbase" : "0x2adc25665018aa1fe0e6bc666dac8fc2697ff9ba",
            "currentDifficulty" : "0x020000",
            "currentExcessBlobGas" : "0x00",
            "currentGasLimit" : "0x05f5e100",
            "currentNumber" : "0x01",
            "currentRandom" : "0x0000000000000000000000000000000000000000000000000000000000020000",
            "currentTimestamp" : "0x03e8"
        },
        "post" : {
            "Berlin" : [
                {
                    "hash" : "0x015b123946e057cae7aa8b298c3619f5b41cfa9288b806ed8846afb16ed544f3",
                    "indexes" : {
                        "data" : 0,
                        "gas" : 0,
                        "value" : 0
                    },
                    "logs" : "0x1dcc4de8dec75d7aab85b567b6ccd41ad312451b948a7413f0a142fd40d49347",
                    "txbytes" : "0xf883800a8398968094095e7baea6a6c7c4c2dfeb977efac326af552d87830186a0a000000000000000000000000000000000000000000000000000000000000186a01ca021f72ee64a63e9670536c1dfacbf497c133fbabe9466c375cc29c14529b034b3a01b9fd517fb62fa1e0c7fd053c403a28fb95ceadef1dc0f64f57e268e40881bc4"
                },
                {
                    "hash" : "0x4451907ec2bf30fabdfbbaaf7aa9faf0b158fb748359acc8f2ff917ce3d54300",
                    "indexes" : {
                        "data" : 1,
                        "gas" : 0,
                        "value" : 0
                    },
                    "logs" : "0x1dcc4de8dec75d7aab85b567b6ccd41ad312451b948a7413f0a142fd40d49347",
                    "txbytes" : "0xf883800a8398968094095e7baea6a6c7c4c2dfeb977efac326af552d87830186a0a000000000000000000000000000000000000000000000000000000000000486a01ba0581854e01afbbe2b1a65e3024566ee6bac8842baf44412948cf29e6503e4857ea022ba75ef0c0c69e0bf36b8ec09f1a97728a0f2cd5fe5b1461fe4b31e85b5ae85"
                }
            ],
            "Cancun" : [
                {
                    "hash" : "0xbe42b77ca6c6fc7851d4afeb77da8d2c02b24eddb19bdee37d868c7395ff2cb3",
                    "indexes" : {
                        "data" : 0,
                        "gas" : 0,
                        "value" : 0
                    },
                    "logs" : "0x1dcc4de8dec75d7aab85b567b6ccd41ad312451b948a7413f0a142fd40d49347",
                    "txbytes" : "0xf883800a8398968094095e7baea6a6c7c4c2dfeb977efac326af552d87830186a0a000000000000000000000000000000000000000000000000000000000000186a01ca021f72ee64a63e9670536c1dfacbf497c133fbabe9466c375cc29c14529b034b3a01b9fd517fb62fa1e0c7fd053c403a28fb95ceadef1dc0f64f57e268e40881bc4"
                },
                {
                    "hash" : "0x9ebdf5c3730cff58dd9418aa640d0fb1db404fd7433d50b273a7ce506b441860",
                    "indexes" : {
                        "data" : 1,
                        "gas" : 0,
                        "value" : 0
                    },
                    "logs" : "0x1dcc4de8dec75d7aab85b567b6ccd41ad312451b948a7413f0a142fd40d49347",
                    "txbytes" : "0xf883800a8398968094095e7baea6a6c7c4c2dfeb977efac326af552d87830186a0a000000000000000000000000000000000000000000000000000000000000486a01ba0581854e01afbbe2b1a65e3024566ee6bac8842baf44412948cf29e6503e4857ea022ba75ef0c0c69e0bf36b8ec09f1a97728a0f2cd5fe5b1461fe4b31e85b5ae85"
                }
            ],
            "Istanbul" : [
                {
                    "hash" : "0x0d4f307e70221129f1ae2e5c42672669c2a0ea8019ee46079043c29d38f09f83",
                    "indexes" : {
                        "data" : 0,
                        "gas" : 0,
                        "value" : 0
                    },
                    "logs" : "0x1dcc4de8dec75d7aab85b567b6ccd41ad312451b948a7413f0a142fd40d49347",
                    "txbytes" : "0xf883800a8398968094095e7baea6a6c7c4c2dfeb977efac326af552d87830186a0a000000000000000000000000000000000000000000000000000000000000186a01ca021f72ee64a63e9670536c1dfacbf497c133fbabe9466c375cc29c14529b034b3a01b9fd517fb62fa1e0c7fd053c403a28fb95ceadef1dc0f64f57e268e40881bc4"
                },
                {
                    "hash" : "0xdb27fdef6af18c7c58479571effb2c2e555d3b5372a5112985a5ae9a3c46bd71",
                    "indexes" : {
                        "data" : 1,
                        "gas" : 0,
                        "value" : 0
                    },
                    "logs" : "0x1dcc4de8dec75d7aab85b567b6ccd41ad312451b948a7413f0a142fd40d49347",
                    "txbytes" : "0xf883800a8398968094095e7baea6a6c7c4c2dfeb977efac326af552d87830186a0a000000000000000000000000000000000000000000000000000000000000486a01ba0581854e01afbbe2b1a65e3024566ee6bac8842baf44412948cf29e6503e4857ea022ba75ef0c0c69e0bf36b8ec09f1a97728a0f2cd5fe5b1461fe4b31e85b5ae85"
                }
            ],
            "London" : [
                {
                    "hash" : "0x9526e8aba472e8932a38aadf34d4eadb1d96cb40e4c3398febcb52baefacb597",
                    "indexes" : {
                        "data" : 0,
                        "gas" : 0,
                        "value" : 0
                    },
                    "logs" : "0x1dcc4de8dec75d7aab85b567b6ccd41ad312451b948a7413f0a142fd40d49347",
                    "txbytes" : "0xf883800a8398968094095e7baea6a6c7c4c2dfeb977efac326af552d87830186a0a000000000000000000000000000000000000000000000000000000000000186a01ca021f72ee64a63e9670536c1dfacbf497c133fbabe9466c375cc29c14529b034b3a01b9fd517fb62fa1e0c7fd053c403a28fb95ceadef1dc0f64f57e268e40881bc4"
                },
                {
                    "hash" : "0x2a0bfecb6f2380c061925f372d93798748be5d19edffeec5583520abcfeb7c64",
                    "indexes" : {
                        "data" : 1,
                        "gas" : 0,
                        "value" : 0
                    },
                    "logs" : "0x1dcc4de8dec75d7aab85b567b6ccd41ad312451b948a7413f0a142fd40d49347",
                    "txbytes" : "0xf883800a8398968094095e7baea6a6c7c4c2dfeb977efac326af552d87830186a0a000000000000000000000000000000000000000000000000000000000000486a01ba0581854e01afbbe2b1a65e3024566ee6bac8842baf44412948cf29e6503e4857ea022ba75ef0c0c69e0bf36b8ec09f1a97728a0f2cd5fe5b1461fe4b31e85b5ae85"
                }
            ],
            "Paris" : [
                {
                    "hash" : "0x9526e8aba472e8932a38aadf34d4eadb1d96cb40e4c3398febcb52baefacb597",
                    "indexes" : {
                        "data" : 0,
                        "gas" : 0,
                        "value" : 0
                    },
                    "logs" : "0x1dcc4de8dec75d7aab85b567b6ccd41ad312451b948a7413f0a142fd40d49347",
                    "txbytes" : "0xf883800a8398968094095e7baea6a6c7c4c2dfeb977efac326af552d87830186a0a000000000000000000000000000000000000000000000000000000000000186a01ca021f72ee64a63e9670536c1dfacbf497c133fbabe9466c375cc29c14529b034b3a01b9fd517fb62fa1e0c7fd053c403a28fb95ceadef1dc0f64f57e268e40881bc4"
                },
                {
                    "hash" : "0x2a0bfecb6f2380c061925f372d93798748be5d19edffeec5583520abcfeb7c64",
                    "indexes" : {
                        "data" : 1,
                        "gas" : 0,
                        "value" : 0
                    },
                    "logs" : "0x1dcc4de8dec75d7aab85b567b6ccd41ad312451b948a7413f0a142fd40d49347",
                    "txbytes" : "0xf883800a8398968094095e7baea6a6c7c4c2dfeb977efac326af552d87830186a0a000000000000000000000000000000000000000000000000000000000000486a01ba0581854e01afbbe2b1a65e3024566ee6bac8842baf44412948cf29e6503e4857ea022ba75ef0c0c69e0bf36b8ec09f1a97728a0f2cd5fe5b1461fe4b31e85b5ae85"
                }
            ],
            "Shanghai" : [
                {
                    "hash" : "0x9526e8aba472e8932a38aadf34d4eadb1d96cb40e4c3398febcb52baefacb597",
                    "indexes" : {
                        "data" : 0,
                        "gas" : 0,
                        "value" : 0
                    },
                    "logs" : "0x1dcc4de8dec75d7aab85b567b6ccd41ad312451b948a7413f0a142fd40d49347",
                    "txbytes" : "0xf883800a8398968094095e7baea6a6c7c4c2dfeb977efac326af552d87830186a0a000000000000000000000000000000000000000000000000000000000000186a01ca021f72ee64a63e9670536c1dfacbf497c133fbabe9466c375cc29c14529b034b3a01b9fd517fb62fa1e0c7fd053c403a28fb95ceadef1dc0f64f57e268e40881bc4"
                },
                {
                    "hash" : "0x2a0bfecb6f2380c061925f372d93798748be5d19edffeec5583520abcfeb7c64",
                    "indexes" : {
                        "data" : 1,
                        "gas" : 0,
                        "value" : 0
                    },
                    "logs" : "0x1dcc4de8dec75d7aab85b567b6ccd41ad312451b948a7413f0a142fd40d49347",
                    "txbytes" : "0xf883800a8398968094095e7baea6a6c7c4c2dfeb977efac326af552d87830186a0a000000000000000000000000000000000000000000000000000000000000486a01ba0581854e01afbbe2b1a65e3024566ee6bac8842baf44412948cf29e6503e4857ea022ba75ef0c0c69e0bf36b8ec09f1a97728a0f2cd5fe5b1461fe4b31e85b5ae85"
                }
            ]
        },
        "pre" : {
            "0x000f3df6d732807ef1319fb7b8bb8522d0beac02" : {
                "balance" : "0x00",
                "code" : "0x3373fffffffffffffffffffffffffffffffffffffffe14604d57602036146024575f5ffd5b5f35801560495762001fff810690815414603c575f5ffd5b62001fff01545f5260205ff35b5f5ffd5b62001fff42064281555f359062001fff015500",
                "nonce" : "0x01",
                "storage" : {
                }
            },
            "0x095e7baea6a6c7c4c2dfeb977efac326af552d87" : {
                "balance" : "0x0de0b6b3a7640000",
                "code" : "0x6000356000526000600060206000601873945304eb96065b2a98b57a48a06ae28d285a71b5600035f1585500",
                "nonce" : "0x00",
                "storage" : {
                }
            },
            "0x945304eb96065b2a98b57a48a06ae28d285a71b5" : {
                "balance" : "0x17",
                "code" : "0x6000356000526000600060206000601773095e7baea6a6c7c4c2dfeb977efac326af552d8761c35060003503f16001015855730f572e5295c57f15886f9b263e2f6d2d6c7b5ec6ff00",
                "nonce" : "0x00",
                "storage" : {
                }
            },
            "0xa94f5374fce5edbc8e2a8697c15331677e6ebf0b" : {
                "balance" : "0x0de0b6b3a7640000",
                "code" : "0x",
                "nonce" : "0x00",
                "storage" : {
                }
            }
        },
        "transaction" : {
            "data" : [
                "0x00000000000000000000000000000000000000000000000000000000000186a0",
                "0x00000000000000000000000000000000000000000000000000000000000486a0"
            ],
            "gasLimit" : [
                "0x989680"
            ],
            "gasPrice" : "0x0a",
            "nonce" : "0x00",
            "secretKey" : "0x45a915e4d060149eb4365960e6a7a45f334393093061116b197e3240065ff2d8",
            "sender" : "0xa94f5374fce5edbc8e2a8697c15331677e6ebf0b",
            "to" : "0x095e7baea6a6c7c4c2dfeb977efac326af552d87",
            "value" : [
                "0x0186a0"
            ]
        }
    }
}