{
    "doubleSelfdestructTest2" : {
        "_info" : {
            "comment" : "The second test case required here \nhttps://github.com/ethereum/tests/issues/431#issue-306081539\nIf the first selfdestruct is to the contract being destructed,\nthe balance is destroyed\n",
            "filling-rpc-server" : "evm version 1.11.0-unstable-df238889-20230119",
            "filling-tool-version" : "retesteth-0.2.3-postmerge+commit.099542b3.Linux.g++",
            "generatedTestHash" : "b57d88c8e4c136f106681274ff2d996f8be910a7b85d5226865ae0d7d8a9958d",
            "lllcversion" : "Version: 0.5.14-develop.2023.1.22+commit.a096d7a9.Linux.g++",
            "solidity" : "Version: 0.8.17+commit.8df45f5f.Linux.g++",
            "source" : "src/GeneralStateTestsFiller/stSystemOperationsTest/doubleSelfdestructTest2Filler.yml",
            "sourceHash" : "cd0277c08bff71bbfbd5e061b4773c3deee4069d6a68d0e87ba6eee58565c0be"
        },
        "env" : {
            "currentBaseFee" : "0x0a",
            "currentCoinbase" : "0x2adc25665018aa1fe0e6bc666dac8fc2697ff9ba",
            "currentDifficulty" : "0x020000",
            "currentGasLimit" : "0x02540be400",
            "currentNumber" : "0x01",
            "currentRandom" : "0x0000000000000000000000000000000000000000000000000000000000020000",
            "currentTimestamp" : "0x03e8",
            "previousHash" : "0x5e20a0453cecd065ea59c37ac63e079ee08998b6045136a8ce6635c7912ec0b6"
        },
        "post" : {
            "Berlin" : [
                {
                    "hash" : "0xa7e008fa49a0781a954b67a3c0186871634bf0cf174719624b02e6a0bf73dcac",
                    "indexes" : {
                        "data" : 0,
                        "gas" : 0,
                        "value" : 0
                    },
                    "logs" : "0x1dcc4de8dec75d7aab85b567b6ccd41ad312451b948a7413f0a142fd40d49347",
                    "txbytes" : "0xf861010a843b9aca0094000000000000000000000000000000000000c0de01801ca0651d0887ee280cf9e9bbfb7c4078cf3534dd5f0a2dd517369e1f3b1715b053d6a07dc956267485398e2ebe8b0914430010cc78e7d3f81d92228cb8ef31a00bd481"
                }
            ],
            "Istanbul" : [
                {
                    "hash" : "0xab313c45cfc7d06ab9b862ea881c20ed30a4227011170a460069b4f7ec9b7307",
                    "indexes" : {
                        "data" : 0,
                        "gas" : 0,
                        "value" : 0
                    },
                    "logs" : "0x1dcc4de8dec75d7aab85b567b6ccd41ad312451b948a7413f0a142fd40d49347",
                    "txbytes" : "0xf861010a843b9aca0094000000000000000000000000000000000000c0de01801ca0651d0887ee280cf9e9bbfb7c4078cf3534dd5f0a2dd517369e1f3b1715b053d6a07dc956267485398e2ebe8b0914430010cc78e7d3f81d92228cb8ef31a00bd481"
                }
            ],
            "London" : [
                {
                    "hash" : "0x5cfbcdcefd1f58a87ad9a3a0d3755089db62fcc910da0b47f73e6c534c7c430f",
                    "indexes" : {
                        "data" : 0,
                        "gas" : 0,
                        "value" : 0
                    },
                    "logs" : "0x1dcc4de8dec75d7aab85b567b6ccd41ad312451b948a7413f0a142fd40d49347",
                    "txbytes" : "0xf861010a843b9aca0094000000000000000000000000000000000000c0de01801ca0651d0887ee280cf9e9bbfb7c4078cf3534dd5f0a2dd517369e1f3b1715b053d6a07dc956267485398e2ebe8b0914430010cc78e7d3f81d92228cb8ef31a00bd481"
                }
            ],
            "Merge" : [
                {
                    "hash" : "0x5cfbcdcefd1f58a87ad9a3a0d3755089db62fcc910da0b47f73e6c534c7c430f",
                    "indexes" : {
                        "data" : 0,
                        "gas" : 0,
                        "value" : 0
                    },
                    "logs" : "0x1dcc4de8dec75d7aab85b567b6ccd41ad312451b948a7413f0a142fd40d49347",
                    "txbytes" : "0xf861010a843b9aca0094000000000000000000000000000000000000c0de01801ca0651d0887ee280cf9e9bbfb7c4078cf3534dd5f0a2dd517369e1f3b1715b053d6a07dc956267485398e2ebe8b0914430010cc78e7d3f81d92228cb8ef31a00bd481"
                }
            ],
            "Shanghai" : [
                {
                    "hash" : "0x5cfbcdcefd1f58a87ad9a3a0d3755089db62fcc910da0b47f73e6c534c7c430f",
                    "indexes" : {
                        "data" : 0,
                        "gas" : 0,
                        "value" : 0
                    },
                    "logs" : "0x1dcc4de8dec75d7aab85b567b6ccd41ad312451b948a7413f0a142fd40d49347",
                    "txbytes" : "0xf861010a843b9aca0094000000000000000000000000000000000000c0de01801ca0651d0887ee280cf9e9bbfb7c4078cf3534dd5f0a2dd517369e1f3b1715b053d6a07dc956267485398e2ebe8b0914430010cc78e7d3f81d92228cb8ef31a00bd481"
                }
            ]
        },
        "pre" : {
            "0x000000000000000000000000000000000000c0de" : {
                "balance" : "0x0f4240",
                "code" : "0x6000341115601a57600080600080600061c0de5af150611001ff5b6000340360265761c0deff5b",
                "nonce" : "0x01",
                "storage" : {
                }
            },
            "0xa94f5374fce5edbc8e2a8697c15331677e6ebf0b" : {
                "balance" : "0x0de0b6b3a7640000",
                "code" : "0x",
                "nonce" : "0x01",
                "storage" : {
                }
            }
        },
        "transaction" : {
            "data" : [
                "0x"
            ],
            "gasLimit" : [
                "0x3b9aca00"
            ],
            "gasPrice" : "0x0a",
            "nonce" : "0x01",
            "secretKey" : "0x45a915e4d060149eb4365960e6a7a45f334393093061116b197e3240065ff2d8",
            "sender" : "0xa94f5374fce5edbc8e2a8697c15331677e6ebf0b",
            "to" : "0x000000000000000000000000000000000000c0de",
            "value" : [
                "0x01"
            ]
        }
    }
}