{
    "extcodecopy" : {
        "_info" : {
            "comment" : "God knows what is happening in this test",
            "filling-rpc-server" : "evm version 1.13.11-unstable-765f2904-20240124",
            "filling-tool-version" : "retesteth-0.3.2-cancun+commit.ea13235b.Linux.g++",
            "generatedTestHash" : "4f64a6146ea6339e4d1b51ec706bc14b1bf776f813121ae6bc0c84d0b14787fd",
            "lllcversion" : "Version: 0.5.14-develop.2023.7.11+commit.c58ab2c6.mod.Linux.g++",
            "solidity" : "Version: 0.8.21+commit.d9974bed.Linux.g++",
            "source" : "src/GeneralStateTestsFiller/stSystemOperationsTest/extcodecopyFiller.json",
            "sourceHash" : "f601f2f11c84a31a4caf0c843a5253a16884365d4897777e485924169af33ef9"
        },
        "env" : {
            "currentBaseFee" : "0x0a",
            "currentCoinbase" : "0x4401fcaf7d64d53fb1cfc5c9045c32aa919a8c82",
            "currentDifficulty" : "0x020000",
            "currentExcessBlobGas" : "0x00",
            "currentGasLimit" : "0x58272e28",
            "currentNumber" : "0x01",
            "currentRandom" : "0x0000000000000000000000000000000000000000000000000000000000020000",
            "currentTimestamp" : "0x03e8"
        },
        "post" : {
            "Berlin" : [
                {
                    "hash" : "0xa3a55d943f9559218d6cf41c5c1f3e8a1ac6e268930082a2038f3ea40861931a",
                    "indexes" : {
                        "data" : 0,
                        "gas" : 0,
                        "value" : 0
                    },
                    "logs" : "0x1dcc4de8dec75d7aab85b567b6ccd41ad312451b948a7413f0a142fd40d49347",
                    "txbytes" : "0xf8f980841cd49878843bd760dd94095e7baea6a6c7c4c2dfeb977efac326af552d878424a39757b88f6e27b0577f2549e5fa01e3db96e7b03a62e489115538620295677faf15040c1c1796bad130e2462a8b8d6bbe0fa35bf12087047ef4ff4e66df8772196b4401998ff7f4219c013a0d927b22d8d3fdf625809abb182507d180e687b666f4f1e4f3b8172e87760f436c701264b89739f3d7c50ec524f16b1a4f91397b760a5209b9b7710544694ecf2729643b3ca545c71ba0ca8c14dd147675db542af1806ebc691815ef7bf85f3b85b57d572d7845ff763ea04401abeecfeb28f6f372f16f5837f266d21d25dda6e8c8aa9b2e8da9bf459e4b"
                }
            ],
            "Cancun" : [
                {
                    "hash" : "0xb471852ba613c3025cfd6dc469e77e56c9a3657fa86048ee37f470ddb647d1b3",
                    "indexes" : {
                        "data" : 0,
                        "gas" : 0,
                        "value" : 0
                    },
                    "logs" : "0x1dcc4de8dec75d7aab85b567b6ccd41ad312451b948a7413f0a142fd40d49347",
                    "txbytes" : "0xf8f980841cd49878843bd760dd94095e7baea6a6c7c4c2dfeb977efac326af552d878424a39757b88f6e27b0577f2549e5fa01e3db96e7b03a62e489115538620295677faf15040c1c1796bad130e2462a8b8d6bbe0fa35bf12087047ef4ff4e66df8772196b4401998ff7f4219c013a0d927b22d8d3fdf625809abb182507d180e687b666f4f1e4f3b8172e87760f436c701264b89739f3d7c50ec524f16b1a4f91397b760a5209b9b7710544694ecf2729643b3ca545c71ba0ca8c14dd147675db542af1806ebc691815ef7bf85f3b85b57d572d7845ff763ea04401abeecfeb28f6f372f16f5837f266d21d25dda6e8c8aa9b2e8da9bf459e4b"
                }
            ],
            "Istanbul" : [
                {
                    "hash" : "0x95d64fec597bcc9d1a68ed98f97f9e9606a7266d1e47fb0f8fbbb80d8c4c4063",
                    "indexes" : {
                        "data" : 0,
                        "gas" : 0,
                        "value" : 0
                    },
                    "logs" : "0x1dcc4de8dec75d7aab85b567b6ccd41ad312451b948a7413f0a142fd40d49347",
                    "txbytes" : "0xf8f980841cd49878843bd760dd94095e7baea6a6c7c4c2dfeb977efac326af552d878424a39757b88f6e27b0577f2549e5fa01e3db96e7b03a62e489115538620295677faf15040c1c1796bad130e2462a8b8d6bbe0fa35bf12087047ef4ff4e66df8772196b4401998ff7f4219c013a0d927b22d8d3fdf625809abb182507d180e687b666f4f1e4f3b8172e87760f436c701264b89739f3d7c50ec524f16b1a4f91397b760a5209b9b7710544694ecf2729643b3ca545c71ba0ca8c14dd147675db542af1806ebc691815ef7bf85f3b85b57d572d7845ff763ea04401abeecfeb28f6f372f16f5837f266d21d25dda6e8c8aa9b2e8da9bf459e4b"
                }
            ],
            "London" : [
                {
                    "hash" : "0x5ff8865ac91a35a644f9b7a0de33ba329645db93aa4ea1de2cfd6d61f9639099",
                    "indexes" : {
                        "data" : 0,
                        "gas" : 0,
                        "value" : 0
                    },
                    "logs" : "0x1dcc4de8dec75d7aab85b567b6ccd41ad312451b948a7413f0a142fd40d49347",
                    "txbytes" : "0xf8f980841cd49878843bd760dd94095e7baea6a6c7c4c2dfeb977efac326af552d878424a39757b88f6e27b0577f2549e5fa01e3db96e7b03a62e489115538620295677faf15040c1c1796bad130e2462a8b8d6bbe0fa35bf12087047ef4ff4e66df8772196b4401998ff7f4219c013a0d927b22d8d3fdf625809abb182507d180e687b666f4f1e4f3b8172e87760f436c701264b89739f3d7c50ec524f16b1a4f91397b760a5209b9b7710544694ecf2729643b3ca545c71ba0ca8c14dd147675db542af1806ebc691815ef7bf85f3b85b57d572d7845ff763ea04401abeecfeb28f6f372f16f5837f266d21d25dda6e8c8aa9b2e8da9bf459e4b"
                }
            ],
            "Paris" : [
                {
                    "hash" : "0x5ff8865ac91a35a644f9b7a0de33ba329645db93aa4ea1de2cfd6d61f9639099",
                    "indexes" : {
                        "data" : 0,
                        "gas" : 0,
                        "value" : 0
                    },
                    "logs" : "0x1dcc4de8dec75d7aab85b567b6ccd41ad312451b948a7413f0a142fd40d49347",
                    "txbytes" : "0xf8f980841cd49878843bd760dd94095e7baea6a6c7c4c2dfeb977efac326af552d878424a39757b88f6e27b0577f2549e5fa01e3db96e7b03a62e489115538620295677faf15040c1c1796bad130e2462a8b8d6bbe0fa35bf12087047ef4ff4e66df8772196b4401998ff7f4219c013a0d927b22d8d3fdf625809abb182507d180e687b666f4f1e4f3b8172e87760f436c701264b89739f3d7c50ec524f16b1a4f91397b760a5209b9b7710544694ecf2729643b3ca545c71ba0ca8c14dd147675db542af1806ebc691815ef7bf85f3b85b57d572d7845ff763ea04401abeecfeb28f6f372f16f5837f266d21d25dda6e8c8aa9b2e8da9bf459e4b"
                }
            ],
            "Shanghai" : [
                {
                    "hash" : "0x5ff8865ac91a35a644f9b7a0de33ba329645db93aa4ea1de2cfd6d61f9639099",
                    "indexes" : {
                        "data" : 0,
                        "gas" : 0,
                        "value" : 0
                    },
                    "logs" : "0x1dcc4de8dec75d7aab85b567b6ccd41ad312451b948a7413f0a142fd40d49347",
                    "txbytes" : "0xf8f980841cd49878843bd760dd94095e7baea6a6c7c4c2dfeb977efac326af552d878424a39757b88f6e27b0577f2549e5fa01e3db96e7b03a62e489115538620295677faf15040c1c1796bad130e2462a8b8d6bbe0fa35bf12087047ef4ff4e66df8772196b4401998ff7f4219c013a0d927b22d8d3fdf625809abb182507d180e687b666f4f1e4f3b8172e87760f436c701264b89739f3d7c50ec524f16b1a4f91397b760a5209b9b7710544694ecf2729643b3ca545c71ba0ca8c14dd147675db542af1806ebc691815ef7bf85f3b85b57d572d7845ff763ea04401abeecfeb28f6f372f16f5837f266d21d25dda6e8c8aa9b2e8da9bf459e4b"
                }
            ]
        },
        "pre" : {
            "0x095e7baea6a6c7c4c2dfeb977efac326af552d87" : {
                "balance" : "0x05c81eb0",
                "code" : "0x7f15688566a82f5f946c68028bf626b349e495daa43e33529a76437ac416cd1b7d6e7dae7454bb193b1c28e64a6a935bc373cea0c5cc171fa61277e5604a3bc8aef4de3d38820658600b80797ada6e82e95f6520383f95f5c7dae56b4dc13b6f22ecabfce07c3cff51",
                "nonce" : "0xfe",
                "storage" : {
                }
            },
            "0x945304eb96065b2a98b57a48a06ae28d285a71b5" : {
                "balance" : "0x4d6769f8",
                "code" : "0x5a60106017601160116018601c600f601b601d5f60026013600f601a8d5a5b7679177b5dd41a23db52998c4dcd14e88390dcc9f3ed5783601660145f6013600d601f60016011600e600c600d601f60138c7a58f20fd882eb51408a52e569ce80e93270ab53ae9de3fec5498a5c72ce1fcd11bb1553736959df779a616b738c1f407c12459490afe302da311a673488d09e71041d0761dee4829e3c38e0b1b1787810f2e11e2289983c1ab47cf5ebd38c12f1719232b5f3a7b27a9ea8858a071c4169392ec725646311235cbd9534e5d7cd8cb5e2287738a43f803384f4e62fe6629ea2e609a71759edab5c3a58b87e94c95f710aa6059b0663c9f374ce6ea0a000c5d594c41252d4a74d64896a987cc57c24df2ce8ffb85adcc27dce2d19f7006fbc1c5a7b79a319418fd6c27ddebcf170192262d82c1053333f6115c8b258b81e2e84d723c98dbd4535de7f922723a15827bbcfd07f9e2c5027c7736ed68c61b332059d7ec1bae1c1fd41a361d35b996d9740a588b6abf3293236afb927717328c014846148ce67eaf2b33d90672366dafeaae0714eb39e7fd5076a831d8eb4a3546288a3e1a0087aebe80b6bbfa4041330b05d094a697236fe7654d8a7ce630f83a832620125d781666e898f7fdcfd0031",
                "nonce" : "0xdd",
                "storage" : {
                }
            },
            "0xa94f5374fce5edbc8e2a8697c15331677e6ebf0b" : {
                "balance" : "0x4f6ca7b90ceb5fd4",
                "code" : "0x",
                "nonce" : "0x00",
                "storage" : {
                }
            }
        },
        "transaction" : {
            "data" : [
                "0x6e27b0577f2549e5fa01e3db96e7b03a62e489115538620295677faf15040c1c1796bad130e2462a8b8d6bbe0fa35bf12087047ef4ff4e66df8772196b4401998ff7f4219c013a0d927b22d8d3fdf625809abb182507d180e687b666f4f1e4f3b8172e87760f436c701264b89739f3d7c50ec524f16b1a4f91397b760a5209b9b7710544694ecf2729643b3ca545c7"
            ],
            "gasLimit" : [
                "0x3bd760dd"
            ],
            "gasPrice" : "0x1cd49878",
            "nonce" : "0x00",
            "secretKey" : "0x45a915e4d060149eb4365960e6a7a45f334393093061116b197e3240065ff2d8",
            "sender" : "0xa94f5374fce5edbc8e2a8697c15331677e6ebf0b",
            "to" : "0x095e7baea6a6c7c4c2dfeb977efac326af552d87",
            "value" : [
                "0x24a39757"
            ]
        }
    }
}