{
    "JUMPI_Bounds_d0g0v0_Byzantium" : {
        "_info" : {
            "comment" : "",
            "filledwith" : "cpp-1.3.0+commit.82b0643a.Linux.g++",
            "lllcversion" : "Version: 0.4.20-develop.2018.1.8+commit.2548228b.Linux.g++",
            "source" : "src/BlockchainTestsFiller/GeneralStateTests/stMemoryStressTest/JUMPI_Bounds_d0g0v0Filler.json",
            "sourceHash" : "2771b078346b17fa77dd2606fe20cade8cf4e4eb23477be256c0aa15d7f533f1"
        },
        "blocks" : [
            {
                "blockHeader" : {
                    "bloom" : "0x00000000000000000000000000000000000000000000000000000000000000000000000000000000000000000000000000000000000000000000000000000000000000000000000000000000000000000000000000000000000000000000000000000000000000000000000000000000000000000000000000000000000000000000000000000000000000000000000000000000000000000000000000000000000000000000000000000000000000000000000000000000000000000000000000000000000000000000000000000000000000000000000000000000000000000000000000000000000000000000000000000000000000000000000000000000",
                    "coinbase" : "0x2adc25665018aa1fe0e6bc666dac8fc2697ff9ba",
                    "difficulty" : "0x020000",
                    "extraData" : "",
                    "gasLimit" : "0x7fffffffffffffff",
                    "gasUsed" : "0x0249f0",
                    "hash" : "0x67601b1d59bd7bcd41368e6e08ed77ccbaa5e69741669a9184c81bed5504dcb6",
                    "mixHash" : "0x81919ce9a8760befcd3d158ab9bd0c6a28c4c845b2a6620330b2531a7911f597",
                    "nonce" : "0x950b2aa77196daf0",
                    "number" : "0x01",
                    "parentHash" : "0x7aa113a29aff57644d27264a03ecedab9525b82d94a4e208f25e7ee96fe03584",
                    "receiptTrie" : "0xa0e10907f175886de9bd8cd4ac2c21d1db4109a3a9fecf60f54015ee102803fd",
                    "stateRoot" : "0x77891e707be3e1e8c38ddc91140b5eb13332db53a71139fd66895b50e29ccdcf",
                    "timestamp" : "0x03e8",
                    "transactionsTrie" : "0x20ba9b55d8fc4eca7a8962efa4eaa263e5b5d9e0bb537692518fd1649965ac04",
                    "uncleHash" : "0x1dcc4de8dec75d7aab85b567b6ccd41ad312451b948a7413f0a142fd40d49347"
                },
                "rlp" : "0xf90265f901fda07aa113a29aff57644d27264a03ecedab9525b82d94a4e208f25e7ee96fe03584a01dcc4de8dec75d7aab85b567b6ccd41ad312451b948a7413f0a142fd40d49347942adc25665018aa1fe0e6bc666dac8fc2697ff9baa077891e707be3e1e8c38ddc91140b5eb13332db53a71139fd66895b50e29ccdcfa020ba9b55d8fc4eca7a8962efa4eaa263e5b5d9e0bb537692518fd1649965ac04a0a0e10907f175886de9bd8cd4ac2c21d1db4109a3a9fecf60f54015ee102803fdb90100000000000000000000000000000000000000000000000000000000000000000000000000000000000000000000000000000000000000000000000000000000000000000000000000000000000000000000000000000000000000000000000000000000000000000000000000000000000000000000000000000000000000000000000000000000000000000000000000000000000000000000000000000000000000000000000000000000000000000000000000000000000000000000000000000000000000000000000000000000000000000000000000000000000000000000000000000000000000000000000000000000000000000000000000000000008302000001887fffffffffffffff830249f08203e880a081919ce9a8760befcd3d158ab9bd0c6a28c4c845b2a6620330b2531a7911f59788950b2aa77196daf0f862f8608001830249f094100000000000000000000000000000000000000001801ba0a8d69db5cc7b988975447a2e77fa471a04e8738915df60767b3104a95bf95c1aa030d6d7f9cd259c5937c46412312a382eabaf62794a7f6d6183891f864057feecc0",
                "transactions" : [
                    {
                        "data" : "0x",
                        "gasLimit" : "0x0249f0",
                        "gasPrice" : "0x01",
                        "nonce" : "0x00",
                        "r" : "0xa8d69db5cc7b988975447a2e77fa471a04e8738915df60767b3104a95bf95c1a",
                        "s" : "0x30d6d7f9cd259c5937c46412312a382eabaf62794a7f6d6183891f864057feec",
                        "to" : "0x1000000000000000000000000000000000000000",
                        "v" : "0x1b",
                        "value" : "0x01"
                    }
                ],
                "uncleHeaders" : [
                ]
            }
        ],
        "genesisBlockHeader" : {
            "bloom" : "0x00000000000000000000000000000000000000000000000000000000000000000000000000000000000000000000000000000000000000000000000000000000000000000000000000000000000000000000000000000000000000000000000000000000000000000000000000000000000000000000000000000000000000000000000000000000000000000000000000000000000000000000000000000000000000000000000000000000000000000000000000000000000000000000000000000000000000000000000000000000000000000000000000000000000000000000000000000000000000000000000000000000000000000000000000000000",
            "coinbase" : "0x2adc25665018aa1fe0e6bc666dac8fc2697ff9ba",
            "difficulty" : "0x020000",
            "extraData" : "0x42",
            "gasLimit" : "0x7fffffffffffffff",
            "gasUsed" : "0x00",
            "hash" : "0x7aa113a29aff57644d27264a03ecedab9525b82d94a4e208f25e7ee96fe03584",
            "mixHash" : "0x56e81f171bcc55a6ff8345e692c0f86e5b48e01b996cadc001622fb5e363b421",
            "nonce" : "0x0102030405060708",
            "number" : "0x00",
            "parentHash" : "0x0000000000000000000000000000000000000000000000000000000000000000",
            "receiptTrie" : "0x56e81f171bcc55a6ff8345e692c0f86e5b48e01b996cadc001622fb5e363b421",
            "stateRoot" : "0xb084216e6d76acf17db662f0de4991abef7c9d2640122ac54b775781efa05f52",
            "timestamp" : "0x03b6",
            "transactionsTrie" : "0x56e81f171bcc55a6ff8345e692c0f86e5b48e01b996cadc001622fb5e363b421",
            "uncleHash" : "0x1dcc4de8dec75d7aab85b567b6ccd41ad312451b948a7413f0a142fd40d49347"
        },
        "genesisRLP" : "0xf901fff901faa00000000000000000000000000000000000000000000000000000000000000000a01dcc4de8dec75d7aab85b567b6ccd41ad312451b948a7413f0a142fd40d49347942adc25665018aa1fe0e6bc666dac8fc2697ff9baa0b084216e6d76acf17db662f0de4991abef7c9d2640122ac54b775781efa05f52a056e81f171bcc55a6ff8345e692c0f86e5b48e01b996cadc001622fb5e363b421a056e81f171bcc55a6ff8345e692c0f86e5b48e01b996cadc001622fb5e363b421b90100000000000000000000000000000000000000000000000000000000000000000000000000000000000000000000000000000000000000000000000000000000000000000000000000000000000000000000000000000000000000000000000000000000000000000000000000000000000000000000000000000000000000000000000000000000000000000000000000000000000000000000000000000000000000000000000000000000000000000000000000000000000000000000000000000000000000000000000000000000000000000000000000000000000000000000000000000000000000000000000000000000000000000000000000000000008302000080887fffffffffffffff808203b642a056e81f171bcc55a6ff8345e692c0f86e5b48e01b996cadc001622fb5e363b421880102030405060708c0c0",
        "lastblockhash" : "0x67601b1d59bd7bcd41368e6e08ed77ccbaa5e69741669a9184c81bed5504dcb6",
        "network" : "Byzantium",
        "postState" : {
            "0x1000000000000000000000000000000000000000" : {
                "balance" : "0x00",
                "code" : "0x600163ffffffff57600167ffffffffffffffff5760016fffffffffffffffffffffffffffffffff5760017fffffffffffffffffffffffffffffffffffffffffffffffffffffffffffffffff57",
                "nonce" : "0x00",
                "storage" : {
                }
            },
            "0x2adc25665018aa1fe0e6bc666dac8fc2697ff9ba" : {
                "balance" : "0x29a2241af62e49f0",
                "code" : "",
                "nonce" : "0x00",
                "storage" : {
                }
            },
            "0xa94f5374fce5edbc8e2a8697c15331677e6ebf0b" : {
                "balance" : "0x7ffffffffffdb60f",
                "code" : "",
                "nonce" : "0x01",
                "storage" : {
                }
            }
        },
        "pre" : {
            "0x1000000000000000000000000000000000000000" : {
                "balance" : "0x00",
                "code" : "0x600163ffffffff57600167ffffffffffffffff5760016fffffffffffffffffffffffffffffffff5760017fffffffffffffffffffffffffffffffffffffffffffffffffffffffffffffffff57",
                "nonce" : "0x00",
                "storage" : {
                }
            },
            "0xa94f5374fce5edbc8e2a8697c15331677e6ebf0b" : {
                "balance" : "0x7fffffffffffffff",
                "code" : "",
                "nonce" : "0x00",
                "storage" : {
                }
            }
        }
    }
}