{
    "mload32bitBound2_d0g1v0_Byzantium" : {
        "_info" : {
            "comment" : "",
            "filledwith" : "cpp-1.3.0+commit.8fb57c56.Linux.g++",
            "lllcversion" : "Version: 0.4.20-develop.2018.1.8+commit.2548228b.Linux.g++",
            "source" : "src/BlockchainTestsFiller/GeneralStateTests/stMemoryStressTest/mload32bitBound2_d0g1v0Filler.json",
            "sourceHash" : "f51d039c9e2c87904e94f691a6f12fa9607a7ef7d7c4d037461f9fd61ef0420b"
        },
        "blocks" : [
            {
                "blockHeader" : {
                    "bloom" : "0x00000000000000000000000000000000000000000000000000000000000000000000000000000000000000000000000000000000000000000000000000000000000000000000000000000000000000000000000000000000000000000000000000000000000000000000000000000000000000000000000000000000000000000000000000000000000000000000000000000000000000000000000000000000000000000000000000000000000000000000000000000000000000000000000000000000000000000000000000000000000000000000000000000000000000000000000000000000000000000000000000000000000000000000000000000000",
                    "coinbase" : "0x2adc25665018aa1fe0e6bc666dac8fc2697ff9ba",
                    "difficulty" : "0x020000",
                    "extraData" : "",
                    "gasLimit" : "0x225eebec75ab",
                    "gasUsed" : "0x0ee6b280",
                    "hash" : "0x6627bf59c40dcf8de845c47dec29b3dbcb01234e9127b0a742dbf35a90eaf3a8",
                    "mixHash" : "0x4af756114d8333c50c5717e2f11ed58cd9d6975135eb57359fc13b64f9532424",
                    "nonce" : "0x8046510d007ab63c",
                    "number" : "0x01",
                    "parentHash" : "0x5cbbf8e6b1cd3382faffeb465c9a1ca8099b742cf85a1ab125abbea9d891517e",
                    "receiptTrie" : "0x27408083641cf20cfde86cd87cd57bf10c741d7553352ca96118e31ab8ceb9ce",
                    "stateRoot" : "0xc021a603e3dbead5438f4676b982b18f68ff4e07c57c1c8bdb2194a0efb31642",
                    "timestamp" : "0x03e8",
                    "transactionsTrie" : "0x2bc0479f585b924c6cfeaa8baf96036e35dbc5c5811970e0398de8666739585b",
                    "uncleHash" : "0x1dcc4de8dec75d7aab85b567b6ccd41ad312451b948a7413f0a142fd40d49347"
                },
                "rlp" : "0xf90265f901fca05cbbf8e6b1cd3382faffeb465c9a1ca8099b742cf85a1ab125abbea9d891517ea01dcc4de8dec75d7aab85b567b6ccd41ad312451b948a7413f0a142fd40d49347942adc25665018aa1fe0e6bc666dac8fc2697ff9baa0c021a603e3dbead5438f4676b982b18f68ff4e07c57c1c8bdb2194a0efb31642a02bc0479f585b924c6cfeaa8baf96036e35dbc5c5811970e0398de8666739585ba027408083641cf20cfde86cd87cd57bf10c741d7553352ca96118e31ab8ceb9ceb9010000000000000000000000000000000000000000000000000000000000000000000000000000000000000000000000000000000000000000000000000000000000000000000000000000000000000000000000000000000000000000000000000000000000000000000000000000000000000000000000000000000000000000000000000000000000000000000000000000000000000000000000000000000000000000000000000000000000000000000000000000000000000000000000000000000000000000000000000000000000000000000000000000000000000000000000000000000000000000000000000000000000000000000000000000000000830200000186225eebec75ab840ee6b2808203e880a04af756114d8333c50c5717e2f11ed58cd9d6975135eb57359fc13b64f9532424888046510d007ab63cf863f8618001840ee6b280940f572e5295c57f15886f9b263e2f6d2d6c7b5ec60a801ba0eebe8f6882b96fdbbd5f189299464c92416a657404cc3e7a84d3ac1090aef87aa06bb2fa80ca4f417aa4e12b955f470eab638c0733c5671b06b074f158acff8c57c0",
                "transactions" : [
                    {
                        "data" : "0x",
                        "gasLimit" : "0x0ee6b280",
                        "gasPrice" : "0x01",
                        "nonce" : "0x00",
                        "r" : "0xeebe8f6882b96fdbbd5f189299464c92416a657404cc3e7a84d3ac1090aef87a",
                        "s" : "0x6bb2fa80ca4f417aa4e12b955f470eab638c0733c5671b06b074f158acff8c57",
                        "to" : "0x0f572e5295c57f15886f9b263e2f6d2d6c7b5ec6",
                        "v" : "0x1b",
                        "value" : "0x0a"
                    }
                ],
                "uncleHeaders" : [
                ]
            }
        ],
        "genesisBlockHeader" : {
            "bloom" : "0x00000000000000000000000000000000000000000000000000000000000000000000000000000000000000000000000000000000000000000000000000000000000000000000000000000000000000000000000000000000000000000000000000000000000000000000000000000000000000000000000000000000000000000000000000000000000000000000000000000000000000000000000000000000000000000000000000000000000000000000000000000000000000000000000000000000000000000000000000000000000000000000000000000000000000000000000000000000000000000000000000000000000000000000000000000000",
            "coinbase" : "0x2adc25665018aa1fe0e6bc666dac8fc2697ff9ba",
            "difficulty" : "0x020000",
            "extraData" : "0x42",
            "gasLimit" : "0x225eebec75ab",
            "gasUsed" : "0x00",
            "hash" : "0x5cbbf8e6b1cd3382faffeb465c9a1ca8099b742cf85a1ab125abbea9d891517e",
            "mixHash" : "0x56e81f171bcc55a6ff8345e692c0f86e5b48e01b996cadc001622fb5e363b421",
            "nonce" : "0x0102030405060708",
            "number" : "0x00",
            "parentHash" : "0x0000000000000000000000000000000000000000000000000000000000000000",
            "receiptTrie" : "0x56e81f171bcc55a6ff8345e692c0f86e5b48e01b996cadc001622fb5e363b421",
            "stateRoot" : "0xccfd7955be8325c4499ff724ea941d5019e416a1d5dbcc2d68926389774ccb86",
            "timestamp" : "0x03b6",
            "transactionsTrie" : "0x56e81f171bcc55a6ff8345e692c0f86e5b48e01b996cadc001622fb5e363b421",
            "uncleHash" : "0x1dcc4de8dec75d7aab85b567b6ccd41ad312451b948a7413f0a142fd40d49347"
        },
        "genesisRLP" : "0xf901fdf901f8a00000000000000000000000000000000000000000000000000000000000000000a01dcc4de8dec75d7aab85b567b6ccd41ad312451b948a7413f0a142fd40d49347942adc25665018aa1fe0e6bc666dac8fc2697ff9baa0ccfd7955be8325c4499ff724ea941d5019e416a1d5dbcc2d68926389774ccb86a056e81f171bcc55a6ff8345e692c0f86e5b48e01b996cadc001622fb5e363b421a056e81f171bcc55a6ff8345e692c0f86e5b48e01b996cadc001622fb5e363b421b9010000000000000000000000000000000000000000000000000000000000000000000000000000000000000000000000000000000000000000000000000000000000000000000000000000000000000000000000000000000000000000000000000000000000000000000000000000000000000000000000000000000000000000000000000000000000000000000000000000000000000000000000000000000000000000000000000000000000000000000000000000000000000000000000000000000000000000000000000000000000000000000000000000000000000000000000000000000000000000000000000000000000000000000000000000000000830200008086225eebec75ab808203b642a056e81f171bcc55a6ff8345e692c0f86e5b48e01b996cadc001622fb5e363b421880102030405060708c0c0",
        "lastblockhash" : "0x6627bf59c40dcf8de845c47dec29b3dbcb01234e9127b0a742dbf35a90eaf3a8",
        "network" : "Byzantium",
        "postState" : {
            "0x0f572e5295c57f15886f9b263e2f6d2d6c7b5ec6" : {
                "balance" : "0x0de0b6b3a7640000",
                "code" : "0x64017735940051600155",
                "nonce" : "0x00",
                "storage" : {
                }
            },
            "0x2adc25665018aa1fe0e6bc666dac8fc2697ff9ba" : {
                "balance" : "0x29a2241b0512b280",
                "code" : "",
                "nonce" : "0x00",
                "storage" : {
                }
            },
            "0xa94f5374fce5edbc8e2a8697c15331677e6ebf0b" : {
                "balance" : "0x0157b52857554a",
                "code" : "",
                "nonce" : "0x01",
                "storage" : {
                }
            }
        },
        "pre" : {
            "0x0f572e5295c57f15886f9b263e2f6d2d6c7b5ec6" : {
                "balance" : "0x0de0b6b3a7640000",
                "code" : "0x64017735940051600155",
                "nonce" : "0x00",
                "storage" : {
                }
            },
            "0xa94f5374fce5edbc8e2a8697c15331677e6ebf0b" : {
                "balance" : "0x0157b5373e07ca",
                "code" : "",
                "nonce" : "0x00",
                "storage" : {
                }
            }
        }
    },
    "mload32bitBound2_d0g1v0_EIP150" : {
        "_info" : {
            "comment" : "",
            "filledwith" : "cpp-1.3.0+commit.8fb57c56.Linux.g++",
            "lllcversion" : "Version: 0.4.20-develop.2018.1.8+commit.2548228b.Linux.g++",
            "source" : "src/BlockchainTestsFiller/GeneralStateTests/stMemoryStressTest/mload32bitBound2_d0g1v0Filler.json",
            "sourceHash" : "f51d039c9e2c87904e94f691a6f12fa9607a7ef7d7c4d037461f9fd61ef0420b"
        },
        "blocks" : [
            {
                "blockHeader" : {
                    "bloom" : "0x00000000000000000000000000000000000000000000000000000000000000000000000000000000000000000000000000000000000000000000000000000000000000000000000000000000000000000000000000000000000000000000000000000000000000000000000000000000000000000000000000000000000000000000000000000000000000000000000000000000000000000000000000000000000000000000000000000000000000000000000000000000000000000000000000000000000000000000000000000000000000000000000000000000000000000000000000000000000000000000000000000000000000000000000000000000",
                    "coinbase" : "0x2adc25665018aa1fe0e6bc666dac8fc2697ff9ba",
                    "difficulty" : "0x020000",
                    "extraData" : "",
                    "gasLimit" : "0x225eebec75ab",
                    "gasUsed" : "0x0ee6b280",
                    "hash" : "0xcd5d334422e248a0654467e7bf9e37c02bb305042d07fdc90e8656bed432bdab",
                    "mixHash" : "0xe4d9e58493757d38020eb07b1984a2b9b06b70626746a403526f2cc2df82a3c2",
                    "nonce" : "0x2dc20c1af7f66413",
                    "number" : "0x01",
                    "parentHash" : "0x5cbbf8e6b1cd3382faffeb465c9a1ca8099b742cf85a1ab125abbea9d891517e",
                    "receiptTrie" : "0x2793fb640c53c21ac4b3108d55266f6e467e6128f71286ec537babfc296ab3d4",
                    "stateRoot" : "0x8995c5605ca9c3054658b41123c72dc45cdbe47800a8687b541dbdb106a14115",
                    "timestamp" : "0x03e8",
                    "transactionsTrie" : "0x2bc0479f585b924c6cfeaa8baf96036e35dbc5c5811970e0398de8666739585b",
                    "uncleHash" : "0x1dcc4de8dec75d7aab85b567b6ccd41ad312451b948a7413f0a142fd40d49347"
                },
                "rlp" : "0xf90265f901fca05cbbf8e6b1cd3382faffeb465c9a1ca8099b742cf85a1ab125abbea9d891517ea01dcc4de8dec75d7aab85b567b6ccd41ad312451b948a7413f0a142fd40d49347942adc25665018aa1fe0e6bc666dac8fc2697ff9baa08995c5605ca9c3054658b41123c72dc45cdbe47800a8687b541dbdb106a14115a02bc0479f585b924c6cfeaa8baf96036e35dbc5c5811970e0398de8666739585ba02793fb640c53c21ac4b3108d55266f6e467e6128f71286ec537babfc296ab3d4b9010000000000000000000000000000000000000000000000000000000000000000000000000000000000000000000000000000000000000000000000000000000000000000000000000000000000000000000000000000000000000000000000000000000000000000000000000000000000000000000000000000000000000000000000000000000000000000000000000000000000000000000000000000000000000000000000000000000000000000000000000000000000000000000000000000000000000000000000000000000000000000000000000000000000000000000000000000000000000000000000000000000000000000000000000000000000830200000186225eebec75ab840ee6b2808203e880a0e4d9e58493757d38020eb07b1984a2b9b06b70626746a403526f2cc2df82a3c2882dc20c1af7f66413f863f8618001840ee6b280940f572e5295c57f15886f9b263e2f6d2d6c7b5ec60a801ba0eebe8f6882b96fdbbd5f189299464c92416a657404cc3e7a84d3ac1090aef87aa06bb2fa80ca4f417aa4e12b955f470eab638c0733c5671b06b074f158acff8c57c0",
                "transactions" : [
                    {
                        "data" : "0x",
                        "gasLimit" : "0x0ee6b280",
                        "gasPrice" : "0x01",
                        "nonce" : "0x00",
                        "r" : "0xeebe8f6882b96fdbbd5f189299464c92416a657404cc3e7a84d3ac1090aef87a",
                        "s" : "0x6bb2fa80ca4f417aa4e12b955f470eab638c0733c5671b06b074f158acff8c57",
                        "to" : "0x0f572e5295c57f15886f9b263e2f6d2d6c7b5ec6",
                        "v" : "0x1b",
                        "value" : "0x0a"
                    }
                ],
                "uncleHeaders" : [
                ]
            }
        ],
        "genesisBlockHeader" : {
            "bloom" : "0x00000000000000000000000000000000000000000000000000000000000000000000000000000000000000000000000000000000000000000000000000000000000000000000000000000000000000000000000000000000000000000000000000000000000000000000000000000000000000000000000000000000000000000000000000000000000000000000000000000000000000000000000000000000000000000000000000000000000000000000000000000000000000000000000000000000000000000000000000000000000000000000000000000000000000000000000000000000000000000000000000000000000000000000000000000000",
            "coinbase" : "0x2adc25665018aa1fe0e6bc666dac8fc2697ff9ba",
            "difficulty" : "0x020000",
            "extraData" : "0x42",
            "gasLimit" : "0x225eebec75ab",
            "gasUsed" : "0x00",
            "hash" : "0x5cbbf8e6b1cd3382faffeb465c9a1ca8099b742cf85a1ab125abbea9d891517e",
            "mixHash" : "0x56e81f171bcc55a6ff8345e692c0f86e5b48e01b996cadc001622fb5e363b421",
            "nonce" : "0x0102030405060708",
            "number" : "0x00",
            "parentHash" : "0x0000000000000000000000000000000000000000000000000000000000000000",
            "receiptTrie" : "0x56e81f171bcc55a6ff8345e692c0f86e5b48e01b996cadc001622fb5e363b421",
            "stateRoot" : "0xccfd7955be8325c4499ff724ea941d5019e416a1d5dbcc2d68926389774ccb86",
            "timestamp" : "0x03b6",
            "transactionsTrie" : "0x56e81f171bcc55a6ff8345e692c0f86e5b48e01b996cadc001622fb5e363b421",
            "uncleHash" : "0x1dcc4de8dec75d7aab85b567b6ccd41ad312451b948a7413f0a142fd40d49347"
        },
        "genesisRLP" : "0xf901fdf901f8a00000000000000000000000000000000000000000000000000000000000000000a01dcc4de8dec75d7aab85b567b6ccd41ad312451b948a7413f0a142fd40d49347942adc25665018aa1fe0e6bc666dac8fc2697ff9baa0ccfd7955be8325c4499ff724ea941d5019e416a1d5dbcc2d68926389774ccb86a056e81f171bcc55a6ff8345e692c0f86e5b48e01b996cadc001622fb5e363b421a056e81f171bcc55a6ff8345e692c0f86e5b48e01b996cadc001622fb5e363b421b9010000000000000000000000000000000000000000000000000000000000000000000000000000000000000000000000000000000000000000000000000000000000000000000000000000000000000000000000000000000000000000000000000000000000000000000000000000000000000000000000000000000000000000000000000000000000000000000000000000000000000000000000000000000000000000000000000000000000000000000000000000000000000000000000000000000000000000000000000000000000000000000000000000000000000000000000000000000000000000000000000000000000000000000000000000000000830200008086225eebec75ab808203b642a056e81f171bcc55a6ff8345e692c0f86e5b48e01b996cadc001622fb5e363b421880102030405060708c0c0",
        "lastblockhash" : "0xcd5d334422e248a0654467e7bf9e37c02bb305042d07fdc90e8656bed432bdab",
        "network" : "EIP150",
        "postState" : {
            "0x0f572e5295c57f15886f9b263e2f6d2d6c7b5ec6" : {
                "balance" : "0x0de0b6b3a7640000",
                "code" : "0x64017735940051600155",
                "nonce" : "0x00",
                "storage" : {
                }
            },
            "0x2adc25665018aa1fe0e6bc666dac8fc2697ff9ba" : {
                "balance" : "0x4563918253dab280",
                "code" : "",
                "nonce" : "0x00",
                "storage" : {
                }
            },
            "0xa94f5374fce5edbc8e2a8697c15331677e6ebf0b" : {
                "balance" : "0x0157b52857554a",
                "code" : "",
                "nonce" : "0x01",
                "storage" : {
                }
            }
        },
        "pre" : {
            "0x0f572e5295c57f15886f9b263e2f6d2d6c7b5ec6" : {
                "balance" : "0x0de0b6b3a7640000",
                "code" : "0x64017735940051600155",
                "nonce" : "0x00",
                "storage" : {
                }
            },
            "0xa94f5374fce5edbc8e2a8697c15331677e6ebf0b" : {
                "balance" : "0x0157b5373e07ca",
                "code" : "",
                "nonce" : "0x00",
                "storage" : {
                }
            }
        }
    },
    "mload32bitBound2_d0g1v0_EIP158" : {
        "_info" : {
            "comment" : "",
            "filledwith" : "cpp-1.3.0+commit.8fb57c56.Linux.g++",
            "lllcversion" : "Version: 0.4.20-develop.2018.1.8+commit.2548228b.Linux.g++",
            "source" : "src/BlockchainTestsFiller/GeneralStateTests/stMemoryStressTest/mload32bitBound2_d0g1v0Filler.json",
            "sourceHash" : "f51d039c9e2c87904e94f691a6f12fa9607a7ef7d7c4d037461f9fd61ef0420b"
        },
        "blocks" : [
            {
                "blockHeader" : {
                    "bloom" : "0x00000000000000000000000000000000000000000000000000000000000000000000000000000000000000000000000000000000000000000000000000000000000000000000000000000000000000000000000000000000000000000000000000000000000000000000000000000000000000000000000000000000000000000000000000000000000000000000000000000000000000000000000000000000000000000000000000000000000000000000000000000000000000000000000000000000000000000000000000000000000000000000000000000000000000000000000000000000000000000000000000000000000000000000000000000000",
                    "coinbase" : "0x2adc25665018aa1fe0e6bc666dac8fc2697ff9ba",
                    "difficulty" : "0x020000",
                    "extraData" : "",
                    "gasLimit" : "0x225eebec75ab",
                    "gasUsed" : "0x0ee6b280",
                    "hash" : "0x80bd9852decdbe89e0616dba4162789dc8ee4d7e1bda74885a947fd1b856a6d6",
                    "mixHash" : "0xea8b336f3575b36431b3be656b403aa5355f96eea5c922aa4ba4f40c99bb39a5",
                    "nonce" : "0xfffd395e997adac1",
                    "number" : "0x01",
                    "parentHash" : "0x5cbbf8e6b1cd3382faffeb465c9a1ca8099b742cf85a1ab125abbea9d891517e",
                    "receiptTrie" : "0x2793fb640c53c21ac4b3108d55266f6e467e6128f71286ec537babfc296ab3d4",
                    "stateRoot" : "0x8995c5605ca9c3054658b41123c72dc45cdbe47800a8687b541dbdb106a14115",
                    "timestamp" : "0x03e8",
                    "transactionsTrie" : "0x2bc0479f585b924c6cfeaa8baf96036e35dbc5c5811970e0398de8666739585b",
                    "uncleHash" : "0x1dcc4de8dec75d7aab85b567b6ccd41ad312451b948a7413f0a142fd40d49347"
                },
                "rlp" : "0xf90265f901fca05cbbf8e6b1cd3382faffeb465c9a1ca8099b742cf85a1ab125abbea9d891517ea01dcc4de8dec75d7aab85b567b6ccd41ad312451b948a7413f0a142fd40d49347942adc25665018aa1fe0e6bc666dac8fc2697ff9baa08995c5605ca9c3054658b41123c72dc45cdbe47800a8687b541dbdb106a14115a02bc0479f585b924c6cfeaa8baf96036e35dbc5c5811970e0398de8666739585ba02793fb640c53c21ac4b3108d55266f6e467e6128f71286ec537babfc296ab3d4b9010000000000000000000000000000000000000000000000000000000000000000000000000000000000000000000000000000000000000000000000000000000000000000000000000000000000000000000000000000000000000000000000000000000000000000000000000000000000000000000000000000000000000000000000000000000000000000000000000000000000000000000000000000000000000000000000000000000000000000000000000000000000000000000000000000000000000000000000000000000000000000000000000000000000000000000000000000000000000000000000000000000000000000000000000000000000830200000186225eebec75ab840ee6b2808203e880a0ea8b336f3575b36431b3be656b403aa5355f96eea5c922aa4ba4f40c99bb39a588fffd395e997adac1f863f8618001840ee6b280940f572e5295c57f15886f9b263e2f6d2d6c7b5ec60a801ba0eebe8f6882b96fdbbd5f189299464c92416a657404cc3e7a84d3ac1090aef87aa06bb2fa80ca4f417aa4e12b955f470eab638c0733c5671b06b074f158acff8c57c0",
                "transactions" : [
                    {
                        "data" : "0x",
                        "gasLimit" : "0x0ee6b280",
                        "gasPrice" : "0x01",
                        "nonce" : "0x00",
                        "r" : "0xeebe8f6882b96fdbbd5f189299464c92416a657404cc3e7a84d3ac1090aef87a",
                        "s" : "0x6bb2fa80ca4f417aa4e12b955f470eab638c0733c5671b06b074f158acff8c57",
                        "to" : "0x0f572e5295c57f15886f9b263e2f6d2d6c7b5ec6",
                        "v" : "0x1b",
                        "value" : "0x0a"
                    }
                ],
                "uncleHeaders" : [
                ]
            }
        ],
        "genesisBlockHeader" : {
            "bloom" : "0x00000000000000000000000000000000000000000000000000000000000000000000000000000000000000000000000000000000000000000000000000000000000000000000000000000000000000000000000000000000000000000000000000000000000000000000000000000000000000000000000000000000000000000000000000000000000000000000000000000000000000000000000000000000000000000000000000000000000000000000000000000000000000000000000000000000000000000000000000000000000000000000000000000000000000000000000000000000000000000000000000000000000000000000000000000000",
            "coinbase" : "0x2adc25665018aa1fe0e6bc666dac8fc2697ff9ba",
            "difficulty" : "0x020000",
            "extraData" : "0x42",
            "gasLimit" : "0x225eebec75ab",
            "gasUsed" : "0x00",
            "hash" : "0x5cbbf8e6b1cd3382faffeb465c9a1ca8099b742cf85a1ab125abbea9d891517e",
            "mixHash" : "0x56e81f171bcc55a6ff8345e692c0f86e5b48e01b996cadc001622fb5e363b421",
            "nonce" : "0x0102030405060708",
            "number" : "0x00",
            "parentHash" : "0x0000000000000000000000000000000000000000000000000000000000000000",
            "receiptTrie" : "0x56e81f171bcc55a6ff8345e692c0f86e5b48e01b996cadc001622fb5e363b421",
            "stateRoot" : "0xccfd7955be8325c4499ff724ea941d5019e416a1d5dbcc2d68926389774ccb86",
            "timestamp" : "0x03b6",
            "transactionsTrie" : "0x56e81f171bcc55a6ff8345e692c0f86e5b48e01b996cadc001622fb5e363b421",
            "uncleHash" : "0x1dcc4de8dec75d7aab85b567b6ccd41ad312451b948a7413f0a142fd40d49347"
        },
        "genesisRLP" : "0xf901fdf901f8a00000000000000000000000000000000000000000000000000000000000000000a01dcc4de8dec75d7aab85b567b6ccd41ad312451b948a7413f0a142fd40d49347942adc25665018aa1fe0e6bc666dac8fc2697ff9baa0ccfd7955be8325c4499ff724ea941d5019e416a1d5dbcc2d68926389774ccb86a056e81f171bcc55a6ff8345e692c0f86e5b48e01b996cadc001622fb5e363b421a056e81f171bcc55a6ff8345e692c0f86e5b48e01b996cadc001622fb5e363b421b9010000000000000000000000000000000000000000000000000000000000000000000000000000000000000000000000000000000000000000000000000000000000000000000000000000000000000000000000000000000000000000000000000000000000000000000000000000000000000000000000000000000000000000000000000000000000000000000000000000000000000000000000000000000000000000000000000000000000000000000000000000000000000000000000000000000000000000000000000000000000000000000000000000000000000000000000000000000000000000000000000000000000000000000000000000000000830200008086225eebec75ab808203b642a056e81f171bcc55a6ff8345e692c0f86e5b48e01b996cadc001622fb5e363b421880102030405060708c0c0",
        "lastblockhash" : "0x80bd9852decdbe89e0616dba4162789dc8ee4d7e1bda74885a947fd1b856a6d6",
        "network" : "EIP158",
        "postState" : {
            "0x0f572e5295c57f15886f9b263e2f6d2d6c7b5ec6" : {
                "balance" : "0x0de0b6b3a7640000",
                "code" : "0x64017735940051600155",
                "nonce" : "0x00",
                "storage" : {
                }
            },
            "0x2adc25665018aa1fe0e6bc666dac8fc2697ff9ba" : {
                "balance" : "0x4563918253dab280",
                "code" : "",
                "nonce" : "0x00",
                "storage" : {
                }
            },
            "0xa94f5374fce5edbc8e2a8697c15331677e6ebf0b" : {
                "balance" : "0x0157b52857554a",
                "code" : "",
                "nonce" : "0x01",
                "storage" : {
                }
            }
        },
        "pre" : {
            "0x0f572e5295c57f15886f9b263e2f6d2d6c7b5ec6" : {
                "balance" : "0x0de0b6b3a7640000",
                "code" : "0x64017735940051600155",
                "nonce" : "0x00",
                "storage" : {
                }
            },
            "0xa94f5374fce5edbc8e2a8697c15331677e6ebf0b" : {
                "balance" : "0x0157b5373e07ca",
                "code" : "",
                "nonce" : "0x00",
                "storage" : {
                }
            }
        }
    },
    "mload32bitBound2_d0g1v0_Frontier" : {
        "_info" : {
            "comment" : "",
            "filledwith" : "cpp-1.3.0+commit.8fb57c56.Linux.g++",
            "lllcversion" : "Version: 0.4.20-develop.2018.1.8+commit.2548228b.Linux.g++",
            "source" : "src/BlockchainTestsFiller/GeneralStateTests/stMemoryStressTest/mload32bitBound2_d0g1v0Filler.json",
            "sourceHash" : "f51d039c9e2c87904e94f691a6f12fa9607a7ef7d7c4d037461f9fd61ef0420b"
        },
        "blocks" : [
            {
                "blockHeader" : {
                    "bloom" : "0x00000000000000000000000000000000000000000000000000000000000000000000000000000000000000000000000000000000000000000000000000000000000000000000000000000000000000000000000000000000000000000000000000000000000000000000000000000000000000000000000000000000000000000000000000000000000000000000000000000000000000000000000000000000000000000000000000000000000000000000000000000000000000000000000000000000000000000000000000000000000000000000000000000000000000000000000000000000000000000000000000000000000000000000000000000000",
                    "coinbase" : "0x2adc25665018aa1fe0e6bc666dac8fc2697ff9ba",
                    "difficulty" : "0x020000",
                    "extraData" : "",
                    "gasLimit" : "0x225eebec75ab",
                    "gasUsed" : "0x0ee6b280",
                    "hash" : "0xb09d221af4c391e117404c620e51fda477b23abb072064228203c55d2e888cc7",
                    "mixHash" : "0x92be3f12c05dc08bf48b9f19c8c74a19f80b47e7f73b20241df531215d505f3c",
                    "nonce" : "0x3f3486a7b100cfb1",
                    "number" : "0x01",
                    "parentHash" : "0x5cbbf8e6b1cd3382faffeb465c9a1ca8099b742cf85a1ab125abbea9d891517e",
                    "receiptTrie" : "0x2793fb640c53c21ac4b3108d55266f6e467e6128f71286ec537babfc296ab3d4",
                    "stateRoot" : "0x8995c5605ca9c3054658b41123c72dc45cdbe47800a8687b541dbdb106a14115",
                    "timestamp" : "0x03e8",
                    "transactionsTrie" : "0x2bc0479f585b924c6cfeaa8baf96036e35dbc5c5811970e0398de8666739585b",
                    "uncleHash" : "0x1dcc4de8dec75d7aab85b567b6ccd41ad312451b948a7413f0a142fd40d49347"
                },
                "rlp" : "0xf90265f901fca05cbbf8e6b1cd3382faffeb465c9a1ca8099b742cf85a1ab125abbea9d891517ea01dcc4de8dec75d7aab85b567b6ccd41ad312451b948a7413f0a142fd40d49347942adc25665018aa1fe0e6bc666dac8fc2697ff9baa08995c5605ca9c3054658b41123c72dc45cdbe47800a8687b541dbdb106a14115a02bc0479f585b924c6cfeaa8baf96036e35dbc5c5811970e0398de8666739585ba02793fb640c53c21ac4b3108d55266f6e467e6128f71286ec537babfc296ab3d4b9010000000000000000000000000000000000000000000000000000000000000000000000000000000000000000000000000000000000000000000000000000000000000000000000000000000000000000000000000000000000000000000000000000000000000000000000000000000000000000000000000000000000000000000000000000000000000000000000000000000000000000000000000000000000000000000000000000000000000000000000000000000000000000000000000000000000000000000000000000000000000000000000000000000000000000000000000000000000000000000000000000000000000000000000000000000000830200000186225eebec75ab840ee6b2808203e880a092be3f12c05dc08bf48b9f19c8c74a19f80b47e7f73b20241df531215d505f3c883f3486a7b100cfb1f863f8618001840ee6b280940f572e5295c57f15886f9b263e2f6d2d6c7b5ec60a801ba0eebe8f6882b96fdbbd5f189299464c92416a657404cc3e7a84d3ac1090aef87aa06bb2fa80ca4f417aa4e12b955f470eab638c0733c5671b06b074f158acff8c57c0",
                "transactions" : [
                    {
                        "data" : "0x",
                        "gasLimit" : "0x0ee6b280",
                        "gasPrice" : "0x01",
                        "nonce" : "0x00",
                        "r" : "0xeebe8f6882b96fdbbd5f189299464c92416a657404cc3e7a84d3ac1090aef87a",
                        "s" : "0x6bb2fa80ca4f417aa4e12b955f470eab638c0733c5671b06b074f158acff8c57",
                        "to" : "0x0f572e5295c57f15886f9b263e2f6d2d6c7b5ec6",
                        "v" : "0x1b",
                        "value" : "0x0a"
                    }
                ],
                "uncleHeaders" : [
                ]
            }
        ],
        "genesisBlockHeader" : {
            "bloom" : "0x00000000000000000000000000000000000000000000000000000000000000000000000000000000000000000000000000000000000000000000000000000000000000000000000000000000000000000000000000000000000000000000000000000000000000000000000000000000000000000000000000000000000000000000000000000000000000000000000000000000000000000000000000000000000000000000000000000000000000000000000000000000000000000000000000000000000000000000000000000000000000000000000000000000000000000000000000000000000000000000000000000000000000000000000000000000",
            "coinbase" : "0x2adc25665018aa1fe0e6bc666dac8fc2697ff9ba",
            "difficulty" : "0x020000",
            "extraData" : "0x42",
            "gasLimit" : "0x225eebec75ab",
            "gasUsed" : "0x00",
            "hash" : "0x5cbbf8e6b1cd3382faffeb465c9a1ca8099b742cf85a1ab125abbea9d891517e",
            "mixHash" : "0x56e81f171bcc55a6ff8345e692c0f86e5b48e01b996cadc001622fb5e363b421",
            "nonce" : "0x0102030405060708",
            "number" : "0x00",
            "parentHash" : "0x0000000000000000000000000000000000000000000000000000000000000000",
            "receiptTrie" : "0x56e81f171bcc55a6ff8345e692c0f86e5b48e01b996cadc001622fb5e363b421",
            "stateRoot" : "0xccfd7955be8325c4499ff724ea941d5019e416a1d5dbcc2d68926389774ccb86",
            "timestamp" : "0x03b6",
            "transactionsTrie" : "0x56e81f171bcc55a6ff8345e692c0f86e5b48e01b996cadc001622fb5e363b421",
            "uncleHash" : "0x1dcc4de8dec75d7aab85b567b6ccd41ad312451b948a7413f0a142fd40d49347"
        },
        "genesisRLP" : "0xf901fdf901f8a00000000000000000000000000000000000000000000000000000000000000000a01dcc4de8dec75d7aab85b567b6ccd41ad312451b948a7413f0a142fd40d49347942adc25665018aa1fe0e6bc666dac8fc2697ff9baa0ccfd7955be8325c4499ff724ea941d5019e416a1d5dbcc2d68926389774ccb86a056e81f171bcc55a6ff8345e692c0f86e5b48e01b996cadc001622fb5e363b421a056e81f171bcc55a6ff8345e692c0f86e5b48e01b996cadc001622fb5e363b421b9010000000000000000000000000000000000000000000000000000000000000000000000000000000000000000000000000000000000000000000000000000000000000000000000000000000000000000000000000000000000000000000000000000000000000000000000000000000000000000000000000000000000000000000000000000000000000000000000000000000000000000000000000000000000000000000000000000000000000000000000000000000000000000000000000000000000000000000000000000000000000000000000000000000000000000000000000000000000000000000000000000000000000000000000000000000000830200008086225eebec75ab808203b642a056e81f171bcc55a6ff8345e692c0f86e5b48e01b996cadc001622fb5e363b421880102030405060708c0c0",
        "lastblockhash" : "0xb09d221af4c391e117404c620e51fda477b23abb072064228203c55d2e888cc7",
        "network" : "Frontier",
        "postState" : {
            "0x0f572e5295c57f15886f9b263e2f6d2d6c7b5ec6" : {
                "balance" : "0x0de0b6b3a7640000",
                "code" : "0x64017735940051600155",
                "nonce" : "0x00",
                "storage" : {
                }
            },
            "0x2adc25665018aa1fe0e6bc666dac8fc2697ff9ba" : {
                "balance" : "0x4563918253dab280",
                "code" : "",
                "nonce" : "0x00",
                "storage" : {
                }
            },
            "0xa94f5374fce5edbc8e2a8697c15331677e6ebf0b" : {
                "balance" : "0x0157b52857554a",
                "code" : "",
                "nonce" : "0x01",
                "storage" : {
                }
            }
        },
        "pre" : {
            "0x0f572e5295c57f15886f9b263e2f6d2d6c7b5ec6" : {
                "balance" : "0x0de0b6b3a7640000",
                "code" : "0x64017735940051600155",
                "nonce" : "0x00",
                "storage" : {
                }
            },
            "0xa94f5374fce5edbc8e2a8697c15331677e6ebf0b" : {
                "balance" : "0x0157b5373e07ca",
                "code" : "",
                "nonce" : "0x00",
                "storage" : {
                }
            }
        }
    },
    "mload32bitBound2_d0g1v0_Homestead" : {
        "_info" : {
            "comment" : "",
            "filledwith" : "cpp-1.3.0+commit.8fb57c56.Linux.g++",
            "lllcversion" : "Version: 0.4.20-develop.2018.1.8+commit.2548228b.Linux.g++",
            "source" : "src/BlockchainTestsFiller/GeneralStateTests/stMemoryStressTest/mload32bitBound2_d0g1v0Filler.json",
            "sourceHash" : "f51d039c9e2c87904e94f691a6f12fa9607a7ef7d7c4d037461f9fd61ef0420b"
        },
        "blocks" : [
            {
                "blockHeader" : {
                    "bloom" : "0x00000000000000000000000000000000000000000000000000000000000000000000000000000000000000000000000000000000000000000000000000000000000000000000000000000000000000000000000000000000000000000000000000000000000000000000000000000000000000000000000000000000000000000000000000000000000000000000000000000000000000000000000000000000000000000000000000000000000000000000000000000000000000000000000000000000000000000000000000000000000000000000000000000000000000000000000000000000000000000000000000000000000000000000000000000000",
                    "coinbase" : "0x2adc25665018aa1fe0e6bc666dac8fc2697ff9ba",
                    "difficulty" : "0x020000",
                    "extraData" : "",
                    "gasLimit" : "0x225eebec75ab",
                    "gasUsed" : "0x0ee6b280",
                    "hash" : "0xa8c4ce371b6f1557a1be610a73f05bf5d5740fb05e9582fc275171e353a516c3",
                    "mixHash" : "0x8cd7884139cb4ab4cd0127a36bf8a8785da93c93bfc8bd2996e2ac64bcdbc4d1",
                    "nonce" : "0x0ceca89126359dbb",
                    "number" : "0x01",
                    "parentHash" : "0x5cbbf8e6b1cd3382faffeb465c9a1ca8099b742cf85a1ab125abbea9d891517e",
                    "receiptTrie" : "0x2793fb640c53c21ac4b3108d55266f6e467e6128f71286ec537babfc296ab3d4",
                    "stateRoot" : "0x8995c5605ca9c3054658b41123c72dc45cdbe47800a8687b541dbdb106a14115",
                    "timestamp" : "0x03e8",
                    "transactionsTrie" : "0x2bc0479f585b924c6cfeaa8baf96036e35dbc5c5811970e0398de8666739585b",
                    "uncleHash" : "0x1dcc4de8dec75d7aab85b567b6ccd41ad312451b948a7413f0a142fd40d49347"
                },
                "rlp" : "0xf90265f901fca05cbbf8e6b1cd3382faffeb465c9a1ca8099b742cf85a1ab125abbea9d891517ea01dcc4de8dec75d7aab85b567b6ccd41ad312451b948a7413f0a142fd40d49347942adc25665018aa1fe0e6bc666dac8fc2697ff9baa08995c5605ca9c3054658b41123c72dc45cdbe47800a8687b541dbdb106a14115a02bc0479f585b924c6cfeaa8baf96036e35dbc5c5811970e0398de8666739585ba02793fb640c53c21ac4b3108d55266f6e467e6128f71286ec537babfc296ab3d4b9010000000000000000000000000000000000000000000000000000000000000000000000000000000000000000000000000000000000000000000000000000000000000000000000000000000000000000000000000000000000000000000000000000000000000000000000000000000000000000000000000000000000000000000000000000000000000000000000000000000000000000000000000000000000000000000000000000000000000000000000000000000000000000000000000000000000000000000000000000000000000000000000000000000000000000000000000000000000000000000000000000000000000000000000000000000000830200000186225eebec75ab840ee6b2808203e880a08cd7884139cb4ab4cd0127a36bf8a8785da93c93bfc8bd2996e2ac64bcdbc4d1880ceca89126359dbbf863f8618001840ee6b280940f572e5295c57f15886f9b263e2f6d2d6c7b5ec60a801ba0eebe8f6882b96fdbbd5f189299464c92416a657404cc3e7a84d3ac1090aef87aa06bb2fa80ca4f417aa4e12b955f470eab638c0733c5671b06b074f158acff8c57c0",
                "transactions" : [
                    {
                        "data" : "0x",
                        "gasLimit" : "0x0ee6b280",
                        "gasPrice" : "0x01",
                        "nonce" : "0x00",
                        "r" : "0xeebe8f6882b96fdbbd5f189299464c92416a657404cc3e7a84d3ac1090aef87a",
                        "s" : "0x6bb2fa80ca4f417aa4e12b955f470eab638c0733c5671b06b074f158acff8c57",
                        "to" : "0x0f572e5295c57f15886f9b263e2f6d2d6c7b5ec6",
                        "v" : "0x1b",
                        "value" : "0x0a"
                    }
                ],
                "uncleHeaders" : [
                ]
            }
        ],
        "genesisBlockHeader" : {
            "bloom" : "0x00000000000000000000000000000000000000000000000000000000000000000000000000000000000000000000000000000000000000000000000000000000000000000000000000000000000000000000000000000000000000000000000000000000000000000000000000000000000000000000000000000000000000000000000000000000000000000000000000000000000000000000000000000000000000000000000000000000000000000000000000000000000000000000000000000000000000000000000000000000000000000000000000000000000000000000000000000000000000000000000000000000000000000000000000000000",
            "coinbase" : "0x2adc25665018aa1fe0e6bc666dac8fc2697ff9ba",
            "difficulty" : "0x020000",
            "extraData" : "0x42",
            "gasLimit" : "0x225eebec75ab",
            "gasUsed" : "0x00",
            "hash" : "0x5cbbf8e6b1cd3382faffeb465c9a1ca8099b742cf85a1ab125abbea9d891517e",
            "mixHash" : "0x56e81f171bcc55a6ff8345e692c0f86e5b48e01b996cadc001622fb5e363b421",
            "nonce" : "0x0102030405060708",
            "number" : "0x00",
            "parentHash" : "0x0000000000000000000000000000000000000000000000000000000000000000",
            "receiptTrie" : "0x56e81f171bcc55a6ff8345e692c0f86e5b48e01b996cadc001622fb5e363b421",
            "stateRoot" : "0xccfd7955be8325c4499ff724ea941d5019e416a1d5dbcc2d68926389774ccb86",
            "timestamp" : "0x03b6",
            "transactionsTrie" : "0x56e81f171bcc55a6ff8345e692c0f86e5b48e01b996cadc001622fb5e363b421",
            "uncleHash" : "0x1dcc4de8dec75d7aab85b567b6ccd41ad312451b948a7413f0a142fd40d49347"
        },
        "genesisRLP" : "0xf901fdf901f8a00000000000000000000000000000000000000000000000000000000000000000a01dcc4de8dec75d7aab85b567b6ccd41ad312451b948a7413f0a142fd40d49347942adc25665018aa1fe0e6bc666dac8fc2697ff9baa0ccfd7955be8325c4499ff724ea941d5019e416a1d5dbcc2d68926389774ccb86a056e81f171bcc55a6ff8345e692c0f86e5b48e01b996cadc001622fb5e363b421a056e81f171bcc55a6ff8345e692c0f86e5b48e01b996cadc001622fb5e363b421b9010000000000000000000000000000000000000000000000000000000000000000000000000000000000000000000000000000000000000000000000000000000000000000000000000000000000000000000000000000000000000000000000000000000000000000000000000000000000000000000000000000000000000000000000000000000000000000000000000000000000000000000000000000000000000000000000000000000000000000000000000000000000000000000000000000000000000000000000000000000000000000000000000000000000000000000000000000000000000000000000000000000000000000000000000000000000830200008086225eebec75ab808203b642a056e81f171bcc55a6ff8345e692c0f86e5b48e01b996cadc001622fb5e363b421880102030405060708c0c0",
        "lastblockhash" : "0xa8c4ce371b6f1557a1be610a73f05bf5d5740fb05e9582fc275171e353a516c3",
        "network" : "Homestead",
        "postState" : {
            "0x0f572e5295c57f15886f9b263e2f6d2d6c7b5ec6" : {
                "balance" : "0x0de0b6b3a7640000",
                "code" : "0x64017735940051600155",
                "nonce" : "0x00",
                "storage" : {
                }
            },
            "0x2adc25665018aa1fe0e6bc666dac8fc2697ff9ba" : {
                "balance" : "0x4563918253dab280",
                "code" : "",
                "nonce" : "0x00",
                "storage" : {
                }
            },
            "0xa94f5374fce5edbc8e2a8697c15331677e6ebf0b" : {
                "balance" : "0x0157b52857554a",
                "code" : "",
                "nonce" : "0x01",
                "storage" : {
                }
            }
        },
        "pre" : {
            "0x0f572e5295c57f15886f9b263e2f6d2d6c7b5ec6" : {
                "balance" : "0x0de0b6b3a7640000",
                "code" : "0x64017735940051600155",
                "nonce" : "0x00",
                "storage" : {
                }
            },
            "0xa94f5374fce5edbc8e2a8697c15331677e6ebf0b" : {
                "balance" : "0x0157b5373e07ca",
                "code" : "",
                "nonce" : "0x00",
                "storage" : {
                }
            }
        }
    }
}