{
    "mload32bitBound2_d0g0v0_Byzantium" : {
        "_info" : {
            "comment" : "",
            "filledwith" : "cpp-1.3.0+commit.7b8143d3.Linux.g++",
            "source" : "/src/GenStateTestAsBcTemp/stMemoryStressTest/mload32bitBound2_d0g0v0Filler.json"
        },
        "blocks" : [
            {
                "blockHeader" : {
                    "bloom" : "0x00000000000000000000000000000000000000000000000000000000000000000000000000000000000000000000000000000000000000000000000000000000000000000000000000000000000000000000000000000000000000000000000000000000000000000000000000000000000000000000000000000000000000000000000000000000000000000000000000000000000000000000000000000000000000000000000000000000000000000000000000000000000000000000000000000000000000000000000000000000000000000000000000000000000000000000000000000000000000000000000000000000000000000000000000000000",
                    "coinbase" : "0x2adc25665018aa1fe0e6bc666dac8fc2697ff9ba",
                    "difficulty" : "0x020000",
                    "extraData" : "",
                    "gasLimit" : "0x225eebec75ab",
                    "gasUsed" : "0x0249f0",
                    "hash" : "0xcd3341060e95a880323ce14517ffa86e4aaea304953b6061c11bebd79e2833db",
                    "mixHash" : "0x0591becd5ed1ba81e5ce12c8e48937e33046ff1605c4233c6d4251d82031bf45",
                    "nonce" : "0x86859a814a54bc16",
                    "number" : "0x01",
                    "parentHash" : "0x5cbbf8e6b1cd3382faffeb465c9a1ca8099b742cf85a1ab125abbea9d891517e",
                    "receiptTrie" : "0xa0e10907f175886de9bd8cd4ac2c21d1db4109a3a9fecf60f54015ee102803fd",
                    "stateRoot" : "0x05186211ad6016df155822715775b2b43696fc58f6667c2a1f1af22f0465597a",
                    "timestamp" : "0x03e8",
                    "transactionsTrie" : "0x85818eaa5e4d21faba0e066387c7719a21a932f6f13833ee138a3a5b6f127820",
                    "uncleHash" : "0x1dcc4de8dec75d7aab85b567b6ccd41ad312451b948a7413f0a142fd40d49347"
                },
                "rlp" : "0xf90263f901fba05cbbf8e6b1cd3382faffeb465c9a1ca8099b742cf85a1ab125abbea9d891517ea01dcc4de8dec75d7aab85b567b6ccd41ad312451b948a7413f0a142fd40d49347942adc25665018aa1fe0e6bc666dac8fc2697ff9baa005186211ad6016df155822715775b2b43696fc58f6667c2a1f1af22f0465597aa085818eaa5e4d21faba0e066387c7719a21a932f6f13833ee138a3a5b6f127820a0a0e10907f175886de9bd8cd4ac2c21d1db4109a3a9fecf60f54015ee102803fdb9010000000000000000000000000000000000000000000000000000000000000000000000000000000000000000000000000000000000000000000000000000000000000000000000000000000000000000000000000000000000000000000000000000000000000000000000000000000000000000000000000000000000000000000000000000000000000000000000000000000000000000000000000000000000000000000000000000000000000000000000000000000000000000000000000000000000000000000000000000000000000000000000000000000000000000000000000000000000000000000000000000000000000000000000000000000000830200000186225eebec75ab830249f08203e880a00591becd5ed1ba81e5ce12c8e48937e33046ff1605c4233c6d4251d82031bf458886859a814a54bc16f862f8608001830249f0940f572e5295c57f15886f9b263e2f6d2d6c7b5ec60a801ca03c593616a2b004061fe6ebf8ca287f90955a21938f6e3046830d8c1c40f92293a078b229779fcf885f433f587baa2e0eaf3efb5a810ac703dfa7d9a3551eeb133bc0",
                "transactions" : [
                    {
                        "data" : "",
                        "gasLimit" : "0x0249f0",
                        "gasPrice" : "0x01",
                        "nonce" : "0x00",
                        "r" : "0x3c593616a2b004061fe6ebf8ca287f90955a21938f6e3046830d8c1c40f92293",
                        "s" : "0x78b229779fcf885f433f587baa2e0eaf3efb5a810ac703dfa7d9a3551eeb133b",
                        "to" : "0x0f572e5295c57f15886f9b263e2f6d2d6c7b5ec6",
                        "v" : "0x1c",
                        "value" : "0x0a"
                    }
                ],
                "uncleHeaders" : [
                ]
            }
        ],
        "genesisBlockHeader" : {
            "bloom" : "0x00000000000000000000000000000000000000000000000000000000000000000000000000000000000000000000000000000000000000000000000000000000000000000000000000000000000000000000000000000000000000000000000000000000000000000000000000000000000000000000000000000000000000000000000000000000000000000000000000000000000000000000000000000000000000000000000000000000000000000000000000000000000000000000000000000000000000000000000000000000000000000000000000000000000000000000000000000000000000000000000000000000000000000000000000000000",
            "coinbase" : "0x2adc25665018aa1fe0e6bc666dac8fc2697ff9ba",
            "difficulty" : "0x020000",
            "extraData" : "0x42",
            "gasLimit" : "0x225eebec75ab",
            "gasUsed" : "0x00",
            "hash" : "0x5cbbf8e6b1cd3382faffeb465c9a1ca8099b742cf85a1ab125abbea9d891517e",
            "mixHash" : "0x56e81f171bcc55a6ff8345e692c0f86e5b48e01b996cadc001622fb5e363b421",
            "nonce" : "0x0102030405060708",
            "number" : "0x00",
            "parentHash" : "0x0000000000000000000000000000000000000000000000000000000000000000",
            "receiptTrie" : "0x56e81f171bcc55a6ff8345e692c0f86e5b48e01b996cadc001622fb5e363b421",
            "stateRoot" : "0xccfd7955be8325c4499ff724ea941d5019e416a1d5dbcc2d68926389774ccb86",
            "timestamp" : "0x03b6",
            "transactionsTrie" : "0x56e81f171bcc55a6ff8345e692c0f86e5b48e01b996cadc001622fb5e363b421",
            "uncleHash" : "0x1dcc4de8dec75d7aab85b567b6ccd41ad312451b948a7413f0a142fd40d49347"
        },
        "genesisRLP" : "0xf901fdf901f8a00000000000000000000000000000000000000000000000000000000000000000a01dcc4de8dec75d7aab85b567b6ccd41ad312451b948a7413f0a142fd40d49347942adc25665018aa1fe0e6bc666dac8fc2697ff9baa0ccfd7955be8325c4499ff724ea941d5019e416a1d5dbcc2d68926389774ccb86a056e81f171bcc55a6ff8345e692c0f86e5b48e01b996cadc001622fb5e363b421a056e81f171bcc55a6ff8345e692c0f86e5b48e01b996cadc001622fb5e363b421b9010000000000000000000000000000000000000000000000000000000000000000000000000000000000000000000000000000000000000000000000000000000000000000000000000000000000000000000000000000000000000000000000000000000000000000000000000000000000000000000000000000000000000000000000000000000000000000000000000000000000000000000000000000000000000000000000000000000000000000000000000000000000000000000000000000000000000000000000000000000000000000000000000000000000000000000000000000000000000000000000000000000000000000000000000000000000830200008086225eebec75ab808203b642a056e81f171bcc55a6ff8345e692c0f86e5b48e01b996cadc001622fb5e363b421880102030405060708c0c0",
        "lastblockhash" : "0xcd3341060e95a880323ce14517ffa86e4aaea304953b6061c11bebd79e2833db",
        "network" : "Byzantium",
        "postState" : {
            "0x0f572e5295c57f15886f9b263e2f6d2d6c7b5ec6" : {
                "balance" : "0x0de0b6b3a7640000",
                "code" : "0x64017735940051600155",
                "nonce" : "0x00",
                "storage" : {
                }
            },
            "0x2adc25665018aa1fe0e6bc666dac8fc2697ff9ba" : {
                "balance" : "0x29a2241af62e49f0",
                "code" : "",
                "nonce" : "0x00",
                "storage" : {
                }
            },
            "0xa94f5374fce5edbc8e2a8697c15331677e6ebf0b" : {
                "balance" : "0x0157b5373bbdda",
                "code" : "",
                "nonce" : "0x01",
                "storage" : {
                }
            }
        },
        "pre" : {
            "0x0f572e5295c57f15886f9b263e2f6d2d6c7b5ec6" : {
                "balance" : "0x0de0b6b3a7640000",
                "code" : "0x64017735940051600155",
                "nonce" : "0x00",
                "storage" : {
                }
            },
            "0xa94f5374fce5edbc8e2a8697c15331677e6ebf0b" : {
                "balance" : "0x0157b5373e07ca",
                "code" : "",
                "nonce" : "0x00",
                "storage" : {
                }
            }
        }
    },
    "mload32bitBound2_d0g0v0_Constantinople" : {
        "_info" : {
            "comment" : "",
            "filledwith" : "cpp-1.3.0+commit.7b8143d3.Linux.g++",
            "source" : "/src/GenStateTestAsBcTemp/stMemoryStressTest/mload32bitBound2_d0g0v0Filler.json"
        },
        "blocks" : [
            {
                "blockHeader" : {
                    "bloom" : "0x00000000000000000000000000000000000000000000000000000000000000000000000000000000000000000000000000000000000000000000000000000000000000000000000000000000000000000000000000000000000000000000000000000000000000000000000000000000000000000000000000000000000000000000000000000000000000000000000000000000000000000000000000000000000000000000000000000000000000000000000000000000000000000000000000000000000000000000000000000000000000000000000000000000000000000000000000000000000000000000000000000000000000000000000000000000",
                    "coinbase" : "0x2adc25665018aa1fe0e6bc666dac8fc2697ff9ba",
                    "difficulty" : "0x020000",
                    "extraData" : "",
                    "gasLimit" : "0x225eebec75ab",
                    "gasUsed" : "0x0249f0",
                    "hash" : "0x87236767be724e3b01180fc898d0859dbc8c503388a06a68ebef547a3e44c8b8",
                    "mixHash" : "0xdfba7618f209a7b6c42f2666f5bf4c270861a9dfe9f41d4b90feef739aed9123",
                    "nonce" : "0xd2e265f2ec251e26",
                    "number" : "0x01",
                    "parentHash" : "0x5cbbf8e6b1cd3382faffeb465c9a1ca8099b742cf85a1ab125abbea9d891517e",
                    "receiptTrie" : "0xa0e10907f175886de9bd8cd4ac2c21d1db4109a3a9fecf60f54015ee102803fd",
                    "stateRoot" : "0x3f9282b3939f2f398f044cd089b5503d771916d8e8fab9a2aed2748f528dc685",
                    "timestamp" : "0x03e8",
                    "transactionsTrie" : "0x85818eaa5e4d21faba0e066387c7719a21a932f6f13833ee138a3a5b6f127820",
                    "uncleHash" : "0x1dcc4de8dec75d7aab85b567b6ccd41ad312451b948a7413f0a142fd40d49347"
                },
                "rlp" : "0xf90263f901fba05cbbf8e6b1cd3382faffeb465c9a1ca8099b742cf85a1ab125abbea9d891517ea01dcc4de8dec75d7aab85b567b6ccd41ad312451b948a7413f0a142fd40d49347942adc25665018aa1fe0e6bc666dac8fc2697ff9baa03f9282b3939f2f398f044cd089b5503d771916d8e8fab9a2aed2748f528dc685a085818eaa5e4d21faba0e066387c7719a21a932f6f13833ee138a3a5b6f127820a0a0e10907f175886de9bd8cd4ac2c21d1db4109a3a9fecf60f54015ee102803fdb9010000000000000000000000000000000000000000000000000000000000000000000000000000000000000000000000000000000000000000000000000000000000000000000000000000000000000000000000000000000000000000000000000000000000000000000000000000000000000000000000000000000000000000000000000000000000000000000000000000000000000000000000000000000000000000000000000000000000000000000000000000000000000000000000000000000000000000000000000000000000000000000000000000000000000000000000000000000000000000000000000000000000000000000000000000000000830200000186225eebec75ab830249f08203e880a0dfba7618f209a7b6c42f2666f5bf4c270861a9dfe9f41d4b90feef739aed912388d2e265f2ec251e26f862f8608001830249f0940f572e5295c57f15886f9b263e2f6d2d6c7b5ec60a801ca03c593616a2b004061fe6ebf8ca287f90955a21938f6e3046830d8c1c40f92293a078b229779fcf885f433f587baa2e0eaf3efb5a810ac703dfa7d9a3551eeb133bc0",
                "transactions" : [
                    {
                        "data" : "",
                        "gasLimit" : "0x0249f0",
                        "gasPrice" : "0x01",
                        "nonce" : "0x00",
                        "r" : "0x3c593616a2b004061fe6ebf8ca287f90955a21938f6e3046830d8c1c40f92293",
                        "s" : "0x78b229779fcf885f433f587baa2e0eaf3efb5a810ac703dfa7d9a3551eeb133b",
                        "to" : "0x0f572e5295c57f15886f9b263e2f6d2d6c7b5ec6",
                        "v" : "0x1c",
                        "value" : "0x0a"
                    }
                ],
                "uncleHeaders" : [
                ]
            }
        ],
        "genesisBlockHeader" : {
            "bloom" : "0x00000000000000000000000000000000000000000000000000000000000000000000000000000000000000000000000000000000000000000000000000000000000000000000000000000000000000000000000000000000000000000000000000000000000000000000000000000000000000000000000000000000000000000000000000000000000000000000000000000000000000000000000000000000000000000000000000000000000000000000000000000000000000000000000000000000000000000000000000000000000000000000000000000000000000000000000000000000000000000000000000000000000000000000000000000000",
            "coinbase" : "0x2adc25665018aa1fe0e6bc666dac8fc2697ff9ba",
            "difficulty" : "0x020000",
            "extraData" : "0x42",
            "gasLimit" : "0x225eebec75ab",
            "gasUsed" : "0x00",
            "hash" : "0x5cbbf8e6b1cd3382faffeb465c9a1ca8099b742cf85a1ab125abbea9d891517e",
            "mixHash" : "0x56e81f171bcc55a6ff8345e692c0f86e5b48e01b996cadc001622fb5e363b421",
            "nonce" : "0x0102030405060708",
            "number" : "0x00",
            "parentHash" : "0x0000000000000000000000000000000000000000000000000000000000000000",
            "receiptTrie" : "0x56e81f171bcc55a6ff8345e692c0f86e5b48e01b996cadc001622fb5e363b421",
            "stateRoot" : "0xccfd7955be8325c4499ff724ea941d5019e416a1d5dbcc2d68926389774ccb86",
            "timestamp" : "0x03b6",
            "transactionsTrie" : "0x56e81f171bcc55a6ff8345e692c0f86e5b48e01b996cadc001622fb5e363b421",
            "uncleHash" : "0x1dcc4de8dec75d7aab85b567b6ccd41ad312451b948a7413f0a142fd40d49347"
        },
        "genesisRLP" : "0xf901fdf901f8a00000000000000000000000000000000000000000000000000000000000000000a01dcc4de8dec75d7aab85b567b6ccd41ad312451b948a7413f0a142fd40d49347942adc25665018aa1fe0e6bc666dac8fc2697ff9baa0ccfd7955be8325c4499ff724ea941d5019e416a1d5dbcc2d68926389774ccb86a056e81f171bcc55a6ff8345e692c0f86e5b48e01b996cadc001622fb5e363b421a056e81f171bcc55a6ff8345e692c0f86e5b48e01b996cadc001622fb5e363b421b9010000000000000000000000000000000000000000000000000000000000000000000000000000000000000000000000000000000000000000000000000000000000000000000000000000000000000000000000000000000000000000000000000000000000000000000000000000000000000000000000000000000000000000000000000000000000000000000000000000000000000000000000000000000000000000000000000000000000000000000000000000000000000000000000000000000000000000000000000000000000000000000000000000000000000000000000000000000000000000000000000000000000000000000000000000000000830200008086225eebec75ab808203b642a056e81f171bcc55a6ff8345e692c0f86e5b48e01b996cadc001622fb5e363b421880102030405060708c0c0",
        "lastblockhash" : "0x87236767be724e3b01180fc898d0859dbc8c503388a06a68ebef547a3e44c8b8",
        "network" : "Constantinople",
        "postState" : {
            "0x00000000000000000000000000000000000000f0" : {
                "balance" : "0x00",
                "code" : "",
                "nonce" : "0x00",
                "storage" : {
                }
            },
            "0x0f572e5295c57f15886f9b263e2f6d2d6c7b5ec6" : {
                "balance" : "0x0de0b6b3a7640000",
                "code" : "0x64017735940051600155",
                "nonce" : "0x00",
                "storage" : {
                }
            },
            "0x2adc25665018aa1fe0e6bc666dac8fc2697ff9ba" : {
                "balance" : "0x29a2241af62e49f0",
                "code" : "",
                "nonce" : "0x00",
                "storage" : {
                }
            },
            "0xa94f5374fce5edbc8e2a8697c15331677e6ebf0b" : {
                "balance" : "0x0157b5373bbdda",
                "code" : "",
                "nonce" : "0x01",
                "storage" : {
                }
            }
        },
        "pre" : {
            "0x0f572e5295c57f15886f9b263e2f6d2d6c7b5ec6" : {
                "balance" : "0x0de0b6b3a7640000",
                "code" : "0x64017735940051600155",
                "nonce" : "0x00",
                "storage" : {
                }
            },
            "0xa94f5374fce5edbc8e2a8697c15331677e6ebf0b" : {
                "balance" : "0x0157b5373e07ca",
                "code" : "",
                "nonce" : "0x00",
                "storage" : {
                }
            }
        }
    },
    "mload32bitBound2_d0g0v0_EIP150" : {
        "_info" : {
            "comment" : "",
            "filledwith" : "cpp-1.3.0+commit.7b8143d3.Linux.g++",
            "source" : "/src/GenStateTestAsBcTemp/stMemoryStressTest/mload32bitBound2_d0g0v0Filler.json"
        },
        "blocks" : [
            {
                "blockHeader" : {
                    "bloom" : "0x00000000000000000000000000000000000000000000000000000000000000000000000000000000000000000000000000000000000000000000000000000000000000000000000000000000000000000000000000000000000000000000000000000000000000000000000000000000000000000000000000000000000000000000000000000000000000000000000000000000000000000000000000000000000000000000000000000000000000000000000000000000000000000000000000000000000000000000000000000000000000000000000000000000000000000000000000000000000000000000000000000000000000000000000000000000",
                    "coinbase" : "0x2adc25665018aa1fe0e6bc666dac8fc2697ff9ba",
                    "difficulty" : "0x020000",
                    "extraData" : "",
                    "gasLimit" : "0x225eebec75ab",
                    "gasUsed" : "0x0249f0",
                    "hash" : "0x496db5bdf66d6cb2c0b78217f976b08b298692ec0202255b3dafeee31f59cc7d",
                    "mixHash" : "0xbc569276e0189ffa72232585da7cf616c5d7ac8bced678c7063b85c73f78ae00",
                    "nonce" : "0xe1e33321fddce425",
                    "number" : "0x01",
                    "parentHash" : "0x5cbbf8e6b1cd3382faffeb465c9a1ca8099b742cf85a1ab125abbea9d891517e",
                    "receiptTrie" : "0x29abce494f4bd25b6dc03b9dbf10577e67f0ef6771a67b0d997b6c25bf6f0da8",
                    "stateRoot" : "0x3377aa2f69435e93cb7b9f33abe2a0d2dde1be03b5114154f3b65fa63e0b5061",
                    "timestamp" : "0x03e8",
                    "transactionsTrie" : "0x85818eaa5e4d21faba0e066387c7719a21a932f6f13833ee138a3a5b6f127820",
                    "uncleHash" : "0x1dcc4de8dec75d7aab85b567b6ccd41ad312451b948a7413f0a142fd40d49347"
                },
                "rlp" : "0xf90263f901fba05cbbf8e6b1cd3382faffeb465c9a1ca8099b742cf85a1ab125abbea9d891517ea01dcc4de8dec75d7aab85b567b6ccd41ad312451b948a7413f0a142fd40d49347942adc25665018aa1fe0e6bc666dac8fc2697ff9baa03377aa2f69435e93cb7b9f33abe2a0d2dde1be03b5114154f3b65fa63e0b5061a085818eaa5e4d21faba0e066387c7719a21a932f6f13833ee138a3a5b6f127820a029abce494f4bd25b6dc03b9dbf10577e67f0ef6771a67b0d997b6c25bf6f0da8b9010000000000000000000000000000000000000000000000000000000000000000000000000000000000000000000000000000000000000000000000000000000000000000000000000000000000000000000000000000000000000000000000000000000000000000000000000000000000000000000000000000000000000000000000000000000000000000000000000000000000000000000000000000000000000000000000000000000000000000000000000000000000000000000000000000000000000000000000000000000000000000000000000000000000000000000000000000000000000000000000000000000000000000000000000000000000830200000186225eebec75ab830249f08203e880a0bc569276e0189ffa72232585da7cf616c5d7ac8bced678c7063b85c73f78ae0088e1e33321fddce425f862f8608001830249f0940f572e5295c57f15886f9b263e2f6d2d6c7b5ec60a801ca03c593616a2b004061fe6ebf8ca287f90955a21938f6e3046830d8c1c40f92293a078b229779fcf885f433f587baa2e0eaf3efb5a810ac703dfa7d9a3551eeb133bc0",
                "transactions" : [
                    {
                        "data" : "",
                        "gasLimit" : "0x0249f0",
                        "gasPrice" : "0x01",
                        "nonce" : "0x00",
                        "r" : "0x3c593616a2b004061fe6ebf8ca287f90955a21938f6e3046830d8c1c40f92293",
                        "s" : "0x78b229779fcf885f433f587baa2e0eaf3efb5a810ac703dfa7d9a3551eeb133b",
                        "to" : "0x0f572e5295c57f15886f9b263e2f6d2d6c7b5ec6",
                        "v" : "0x1c",
                        "value" : "0x0a"
                    }
                ],
                "uncleHeaders" : [
                ]
            }
        ],
        "genesisBlockHeader" : {
            "bloom" : "0x00000000000000000000000000000000000000000000000000000000000000000000000000000000000000000000000000000000000000000000000000000000000000000000000000000000000000000000000000000000000000000000000000000000000000000000000000000000000000000000000000000000000000000000000000000000000000000000000000000000000000000000000000000000000000000000000000000000000000000000000000000000000000000000000000000000000000000000000000000000000000000000000000000000000000000000000000000000000000000000000000000000000000000000000000000000",
            "coinbase" : "0x2adc25665018aa1fe0e6bc666dac8fc2697ff9ba",
            "difficulty" : "0x020000",
            "extraData" : "0x42",
            "gasLimit" : "0x225eebec75ab",
            "gasUsed" : "0x00",
            "hash" : "0x5cbbf8e6b1cd3382faffeb465c9a1ca8099b742cf85a1ab125abbea9d891517e",
            "mixHash" : "0x56e81f171bcc55a6ff8345e692c0f86e5b48e01b996cadc001622fb5e363b421",
            "nonce" : "0x0102030405060708",
            "number" : "0x00",
            "parentHash" : "0x0000000000000000000000000000000000000000000000000000000000000000",
            "receiptTrie" : "0x56e81f171bcc55a6ff8345e692c0f86e5b48e01b996cadc001622fb5e363b421",
            "stateRoot" : "0xccfd7955be8325c4499ff724ea941d5019e416a1d5dbcc2d68926389774ccb86",
            "timestamp" : "0x03b6",
            "transactionsTrie" : "0x56e81f171bcc55a6ff8345e692c0f86e5b48e01b996cadc001622fb5e363b421",
            "uncleHash" : "0x1dcc4de8dec75d7aab85b567b6ccd41ad312451b948a7413f0a142fd40d49347"
        },
        "genesisRLP" : "0xf901fdf901f8a00000000000000000000000000000000000000000000000000000000000000000a01dcc4de8dec75d7aab85b567b6ccd41ad312451b948a7413f0a142fd40d49347942adc25665018aa1fe0e6bc666dac8fc2697ff9baa0ccfd7955be8325c4499ff724ea941d5019e416a1d5dbcc2d68926389774ccb86a056e81f171bcc55a6ff8345e692c0f86e5b48e01b996cadc001622fb5e363b421a056e81f171bcc55a6ff8345e692c0f86e5b48e01b996cadc001622fb5e363b421b9010000000000000000000000000000000000000000000000000000000000000000000000000000000000000000000000000000000000000000000000000000000000000000000000000000000000000000000000000000000000000000000000000000000000000000000000000000000000000000000000000000000000000000000000000000000000000000000000000000000000000000000000000000000000000000000000000000000000000000000000000000000000000000000000000000000000000000000000000000000000000000000000000000000000000000000000000000000000000000000000000000000000000000000000000000000000830200008086225eebec75ab808203b642a056e81f171bcc55a6ff8345e692c0f86e5b48e01b996cadc001622fb5e363b421880102030405060708c0c0",
        "lastblockhash" : "0x496db5bdf66d6cb2c0b78217f976b08b298692ec0202255b3dafeee31f59cc7d",
        "network" : "EIP150",
        "postState" : {
            "0x0f572e5295c57f15886f9b263e2f6d2d6c7b5ec6" : {
                "balance" : "0x0de0b6b3a7640000",
                "code" : "0x64017735940051600155",
                "nonce" : "0x00",
                "storage" : {
                }
            },
            "0x2adc25665018aa1fe0e6bc666dac8fc2697ff9ba" : {
                "balance" : "0x4563918244f649f0",
                "code" : "",
                "nonce" : "0x00",
                "storage" : {
                }
            },
            "0xa94f5374fce5edbc8e2a8697c15331677e6ebf0b" : {
                "balance" : "0x0157b5373bbdda",
                "code" : "",
                "nonce" : "0x01",
                "storage" : {
                }
            }
        },
        "pre" : {
            "0x0f572e5295c57f15886f9b263e2f6d2d6c7b5ec6" : {
                "balance" : "0x0de0b6b3a7640000",
                "code" : "0x64017735940051600155",
                "nonce" : "0x00",
                "storage" : {
                }
            },
            "0xa94f5374fce5edbc8e2a8697c15331677e6ebf0b" : {
                "balance" : "0x0157b5373e07ca",
                "code" : "",
                "nonce" : "0x00",
                "storage" : {
                }
            }
        }
    },
    "mload32bitBound2_d0g0v0_EIP158" : {
        "_info" : {
            "comment" : "",
            "filledwith" : "cpp-1.3.0+commit.7b8143d3.Linux.g++",
            "source" : "/src/GenStateTestAsBcTemp/stMemoryStressTest/mload32bitBound2_d0g0v0Filler.json"
        },
        "blocks" : [
            {
                "blockHeader" : {
                    "bloom" : "0x00000000000000000000000000000000000000000000000000000000000000000000000000000000000000000000000000000000000000000000000000000000000000000000000000000000000000000000000000000000000000000000000000000000000000000000000000000000000000000000000000000000000000000000000000000000000000000000000000000000000000000000000000000000000000000000000000000000000000000000000000000000000000000000000000000000000000000000000000000000000000000000000000000000000000000000000000000000000000000000000000000000000000000000000000000000",
                    "coinbase" : "0x2adc25665018aa1fe0e6bc666dac8fc2697ff9ba",
                    "difficulty" : "0x020000",
                    "extraData" : "",
                    "gasLimit" : "0x225eebec75ab",
                    "gasUsed" : "0x0249f0",
                    "hash" : "0xee21c1e133ada032b48292f15697d70a7cab7dceac20756e8a3db005b5a84e4f",
                    "mixHash" : "0x689c8e037b420aaa20d71bf13a0702212230c84fe23cdc3b984aeb1a34a58477",
                    "nonce" : "0xb028625a3bc71e20",
                    "number" : "0x01",
                    "parentHash" : "0x5cbbf8e6b1cd3382faffeb465c9a1ca8099b742cf85a1ab125abbea9d891517e",
                    "receiptTrie" : "0x29abce494f4bd25b6dc03b9dbf10577e67f0ef6771a67b0d997b6c25bf6f0da8",
                    "stateRoot" : "0x3377aa2f69435e93cb7b9f33abe2a0d2dde1be03b5114154f3b65fa63e0b5061",
                    "timestamp" : "0x03e8",
                    "transactionsTrie" : "0x85818eaa5e4d21faba0e066387c7719a21a932f6f13833ee138a3a5b6f127820",
                    "uncleHash" : "0x1dcc4de8dec75d7aab85b567b6ccd41ad312451b948a7413f0a142fd40d49347"
                },
                "rlp" : "0xf90263f901fba05cbbf8e6b1cd3382faffeb465c9a1ca8099b742cf85a1ab125abbea9d891517ea01dcc4de8dec75d7aab85b567b6ccd41ad312451b948a7413f0a142fd40d49347942adc25665018aa1fe0e6bc666dac8fc2697ff9baa03377aa2f69435e93cb7b9f33abe2a0d2dde1be03b5114154f3b65fa63e0b5061a085818eaa5e4d21faba0e066387c7719a21a932f6f13833ee138a3a5b6f127820a029abce494f4bd25b6dc03b9dbf10577e67f0ef6771a67b0d997b6c25bf6f0da8b9010000000000000000000000000000000000000000000000000000000000000000000000000000000000000000000000000000000000000000000000000000000000000000000000000000000000000000000000000000000000000000000000000000000000000000000000000000000000000000000000000000000000000000000000000000000000000000000000000000000000000000000000000000000000000000000000000000000000000000000000000000000000000000000000000000000000000000000000000000000000000000000000000000000000000000000000000000000000000000000000000000000000000000000000000000000000830200000186225eebec75ab830249f08203e880a0689c8e037b420aaa20d71bf13a0702212230c84fe23cdc3b984aeb1a34a5847788b028625a3bc71e20f862f8608001830249f0940f572e5295c57f15886f9b263e2f6d2d6c7b5ec60a801ca03c593616a2b004061fe6ebf8ca287f90955a21938f6e3046830d8c1c40f92293a078b229779fcf885f433f587baa2e0eaf3efb5a810ac703dfa7d9a3551eeb133bc0",
                "transactions" : [
                    {
                        "data" : "",
                        "gasLimit" : "0x0249f0",
                        "gasPrice" : "0x01",
                        "nonce" : "0x00",
                        "r" : "0x3c593616a2b004061fe6ebf8ca287f90955a21938f6e3046830d8c1c40f92293",
                        "s" : "0x78b229779fcf885f433f587baa2e0eaf3efb5a810ac703dfa7d9a3551eeb133b",
                        "to" : "0x0f572e5295c57f15886f9b263e2f6d2d6c7b5ec6",
                        "v" : "0x1c",
                        "value" : "0x0a"
                    }
                ],
                "uncleHeaders" : [
                ]
            }
        ],
        "genesisBlockHeader" : {
            "bloom" : "0x00000000000000000000000000000000000000000000000000000000000000000000000000000000000000000000000000000000000000000000000000000000000000000000000000000000000000000000000000000000000000000000000000000000000000000000000000000000000000000000000000000000000000000000000000000000000000000000000000000000000000000000000000000000000000000000000000000000000000000000000000000000000000000000000000000000000000000000000000000000000000000000000000000000000000000000000000000000000000000000000000000000000000000000000000000000",
            "coinbase" : "0x2adc25665018aa1fe0e6bc666dac8fc2697ff9ba",
            "difficulty" : "0x020000",
            "extraData" : "0x42",
            "gasLimit" : "0x225eebec75ab",
            "gasUsed" : "0x00",
            "hash" : "0x5cbbf8e6b1cd3382faffeb465c9a1ca8099b742cf85a1ab125abbea9d891517e",
            "mixHash" : "0x56e81f171bcc55a6ff8345e692c0f86e5b48e01b996cadc001622fb5e363b421",
            "nonce" : "0x0102030405060708",
            "number" : "0x00",
            "parentHash" : "0x0000000000000000000000000000000000000000000000000000000000000000",
            "receiptTrie" : "0x56e81f171bcc55a6ff8345e692c0f86e5b48e01b996cadc001622fb5e363b421",
            "stateRoot" : "0xccfd7955be8325c4499ff724ea941d5019e416a1d5dbcc2d68926389774ccb86",
            "timestamp" : "0x03b6",
            "transactionsTrie" : "0x56e81f171bcc55a6ff8345e692c0f86e5b48e01b996cadc001622fb5e363b421",
            "uncleHash" : "0x1dcc4de8dec75d7aab85b567b6ccd41ad312451b948a7413f0a142fd40d49347"
        },
        "genesisRLP" : "0xf901fdf901f8a00000000000000000000000000000000000000000000000000000000000000000a01dcc4de8dec75d7aab85b567b6ccd41ad312451b948a7413f0a142fd40d49347942adc25665018aa1fe0e6bc666dac8fc2697ff9baa0ccfd7955be8325c4499ff724ea941d5019e416a1d5dbcc2d68926389774ccb86a056e81f171bcc55a6ff8345e692c0f86e5b48e01b996cadc001622fb5e363b421a056e81f171bcc55a6ff8345e692c0f86e5b48e01b996cadc001622fb5e363b421b9010000000000000000000000000000000000000000000000000000000000000000000000000000000000000000000000000000000000000000000000000000000000000000000000000000000000000000000000000000000000000000000000000000000000000000000000000000000000000000000000000000000000000000000000000000000000000000000000000000000000000000000000000000000000000000000000000000000000000000000000000000000000000000000000000000000000000000000000000000000000000000000000000000000000000000000000000000000000000000000000000000000000000000000000000000000000830200008086225eebec75ab808203b642a056e81f171bcc55a6ff8345e692c0f86e5b48e01b996cadc001622fb5e363b421880102030405060708c0c0",
        "lastblockhash" : "0xee21c1e133ada032b48292f15697d70a7cab7dceac20756e8a3db005b5a84e4f",
        "network" : "EIP158",
        "postState" : {
            "0x0f572e5295c57f15886f9b263e2f6d2d6c7b5ec6" : {
                "balance" : "0x0de0b6b3a7640000",
                "code" : "0x64017735940051600155",
                "nonce" : "0x00",
                "storage" : {
                }
            },
            "0x2adc25665018aa1fe0e6bc666dac8fc2697ff9ba" : {
                "balance" : "0x4563918244f649f0",
                "code" : "",
                "nonce" : "0x00",
                "storage" : {
                }
            },
            "0xa94f5374fce5edbc8e2a8697c15331677e6ebf0b" : {
                "balance" : "0x0157b5373bbdda",
                "code" : "",
                "nonce" : "0x01",
                "storage" : {
                }
            }
        },
        "pre" : {
            "0x0f572e5295c57f15886f9b263e2f6d2d6c7b5ec6" : {
                "balance" : "0x0de0b6b3a7640000",
                "code" : "0x64017735940051600155",
                "nonce" : "0x00",
                "storage" : {
                }
            },
            "0xa94f5374fce5edbc8e2a8697c15331677e6ebf0b" : {
                "balance" : "0x0157b5373e07ca",
                "code" : "",
                "nonce" : "0x00",
                "storage" : {
                }
            }
        }
    },
    "mload32bitBound2_d0g0v0_Frontier" : {
        "_info" : {
            "comment" : "",
            "filledwith" : "cpp-1.3.0+commit.7b8143d3.Linux.g++",
            "source" : "/src/GenStateTestAsBcTemp/stMemoryStressTest/mload32bitBound2_d0g0v0Filler.json"
        },
        "blocks" : [
            {
                "blockHeader" : {
                    "bloom" : "0x00000000000000000000000000000000000000000000000000000000000000000000000000000000000000000000000000000000000000000000000000000000000000000000000000000000000000000000000000000000000000000000000000000000000000000000000000000000000000000000000000000000000000000000000000000000000000000000000000000000000000000000000000000000000000000000000000000000000000000000000000000000000000000000000000000000000000000000000000000000000000000000000000000000000000000000000000000000000000000000000000000000000000000000000000000000",
                    "coinbase" : "0x2adc25665018aa1fe0e6bc666dac8fc2697ff9ba",
                    "difficulty" : "0x020000",
                    "extraData" : "",
                    "gasLimit" : "0x225eebec75ab",
                    "gasUsed" : "0x0249f0",
                    "hash" : "0x50d6e716cec37ba7ac4a1b3483b4e441f4fb57bc5cd180668f3e61046de95ee8",
                    "mixHash" : "0x6273facd5b646aecf5e6d4692bff6ec13e7b762837b50f8ea9aa5a8d1cd8b0cf",
                    "nonce" : "0x489a1dfc58445e41",
                    "number" : "0x01",
                    "parentHash" : "0x5cbbf8e6b1cd3382faffeb465c9a1ca8099b742cf85a1ab125abbea9d891517e",
                    "receiptTrie" : "0x29abce494f4bd25b6dc03b9dbf10577e67f0ef6771a67b0d997b6c25bf6f0da8",
                    "stateRoot" : "0x3377aa2f69435e93cb7b9f33abe2a0d2dde1be03b5114154f3b65fa63e0b5061",
                    "timestamp" : "0x03e8",
                    "transactionsTrie" : "0x85818eaa5e4d21faba0e066387c7719a21a932f6f13833ee138a3a5b6f127820",
                    "uncleHash" : "0x1dcc4de8dec75d7aab85b567b6ccd41ad312451b948a7413f0a142fd40d49347"
                },
                "rlp" : "0xf90263f901fba05cbbf8e6b1cd3382faffeb465c9a1ca8099b742cf85a1ab125abbea9d891517ea01dcc4de8dec75d7aab85b567b6ccd41ad312451b948a7413f0a142fd40d49347942adc25665018aa1fe0e6bc666dac8fc2697ff9baa03377aa2f69435e93cb7b9f33abe2a0d2dde1be03b5114154f3b65fa63e0b5061a085818eaa5e4d21faba0e066387c7719a21a932f6f13833ee138a3a5b6f127820a029abce494f4bd25b6dc03b9dbf10577e67f0ef6771a67b0d997b6c25bf6f0da8b9010000000000000000000000000000000000000000000000000000000000000000000000000000000000000000000000000000000000000000000000000000000000000000000000000000000000000000000000000000000000000000000000000000000000000000000000000000000000000000000000000000000000000000000000000000000000000000000000000000000000000000000000000000000000000000000000000000000000000000000000000000000000000000000000000000000000000000000000000000000000000000000000000000000000000000000000000000000000000000000000000000000000000000000000000000000000830200000186225eebec75ab830249f08203e880a06273facd5b646aecf5e6d4692bff6ec13e7b762837b50f8ea9aa5a8d1cd8b0cf88489a1dfc58445e41f862f8608001830249f0940f572e5295c57f15886f9b263e2f6d2d6c7b5ec60a801ca03c593616a2b004061fe6ebf8ca287f90955a21938f6e3046830d8c1c40f92293a078b229779fcf885f433f587baa2e0eaf3efb5a810ac703dfa7d9a3551eeb133bc0",
                "transactions" : [
                    {
                        "data" : "",
                        "gasLimit" : "0x0249f0",
                        "gasPrice" : "0x01",
                        "nonce" : "0x00",
                        "r" : "0x3c593616a2b004061fe6ebf8ca287f90955a21938f6e3046830d8c1c40f92293",
                        "s" : "0x78b229779fcf885f433f587baa2e0eaf3efb5a810ac703dfa7d9a3551eeb133b",
                        "to" : "0x0f572e5295c57f15886f9b263e2f6d2d6c7b5ec6",
                        "v" : "0x1c",
                        "value" : "0x0a"
                    }
                ],
                "uncleHeaders" : [
                ]
            }
        ],
        "genesisBlockHeader" : {
            "bloom" : "0x00000000000000000000000000000000000000000000000000000000000000000000000000000000000000000000000000000000000000000000000000000000000000000000000000000000000000000000000000000000000000000000000000000000000000000000000000000000000000000000000000000000000000000000000000000000000000000000000000000000000000000000000000000000000000000000000000000000000000000000000000000000000000000000000000000000000000000000000000000000000000000000000000000000000000000000000000000000000000000000000000000000000000000000000000000000",
            "coinbase" : "0x2adc25665018aa1fe0e6bc666dac8fc2697ff9ba",
            "difficulty" : "0x020000",
            "extraData" : "0x42",
            "gasLimit" : "0x225eebec75ab",
            "gasUsed" : "0x00",
            "hash" : "0x5cbbf8e6b1cd3382faffeb465c9a1ca8099b742cf85a1ab125abbea9d891517e",
            "mixHash" : "0x56e81f171bcc55a6ff8345e692c0f86e5b48e01b996cadc001622fb5e363b421",
            "nonce" : "0x0102030405060708",
            "number" : "0x00",
            "parentHash" : "0x0000000000000000000000000000000000000000000000000000000000000000",
            "receiptTrie" : "0x56e81f171bcc55a6ff8345e692c0f86e5b48e01b996cadc001622fb5e363b421",
            "stateRoot" : "0xccfd7955be8325c4499ff724ea941d5019e416a1d5dbcc2d68926389774ccb86",
            "timestamp" : "0x03b6",
            "transactionsTrie" : "0x56e81f171bcc55a6ff8345e692c0f86e5b48e01b996cadc001622fb5e363b421",
            "uncleHash" : "0x1dcc4de8dec75d7aab85b567b6ccd41ad312451b948a7413f0a142fd40d49347"
        },
        "genesisRLP" : "0xf901fdf901f8a00000000000000000000000000000000000000000000000000000000000000000a01dcc4de8dec75d7aab85b567b6ccd41ad312451b948a7413f0a142fd40d49347942adc25665018aa1fe0e6bc666dac8fc2697ff9baa0ccfd7955be8325c4499ff724ea941d5019e416a1d5dbcc2d68926389774ccb86a056e81f171bcc55a6ff8345e692c0f86e5b48e01b996cadc001622fb5e363b421a056e81f171bcc55a6ff8345e692c0f86e5b48e01b996cadc001622fb5e363b421b9010000000000000000000000000000000000000000000000000000000000000000000000000000000000000000000000000000000000000000000000000000000000000000000000000000000000000000000000000000000000000000000000000000000000000000000000000000000000000000000000000000000000000000000000000000000000000000000000000000000000000000000000000000000000000000000000000000000000000000000000000000000000000000000000000000000000000000000000000000000000000000000000000000000000000000000000000000000000000000000000000000000000000000000000000000000000830200008086225eebec75ab808203b642a056e81f171bcc55a6ff8345e692c0f86e5b48e01b996cadc001622fb5e363b421880102030405060708c0c0",
        "lastblockhash" : "0x50d6e716cec37ba7ac4a1b3483b4e441f4fb57bc5cd180668f3e61046de95ee8",
        "network" : "Frontier",
        "postState" : {
            "0x0f572e5295c57f15886f9b263e2f6d2d6c7b5ec6" : {
                "balance" : "0x0de0b6b3a7640000",
                "code" : "0x64017735940051600155",
                "nonce" : "0x00",
                "storage" : {
                }
            },
            "0x2adc25665018aa1fe0e6bc666dac8fc2697ff9ba" : {
                "balance" : "0x4563918244f649f0",
                "code" : "",
                "nonce" : "0x00",
                "storage" : {
                }
            },
            "0xa94f5374fce5edbc8e2a8697c15331677e6ebf0b" : {
                "balance" : "0x0157b5373bbdda",
                "code" : "",
                "nonce" : "0x01",
                "storage" : {
                }
            }
        },
        "pre" : {
            "0x0f572e5295c57f15886f9b263e2f6d2d6c7b5ec6" : {
                "balance" : "0x0de0b6b3a7640000",
                "code" : "0x64017735940051600155",
                "nonce" : "0x00",
                "storage" : {
                }
            },
            "0xa94f5374fce5edbc8e2a8697c15331677e6ebf0b" : {
                "balance" : "0x0157b5373e07ca",
                "code" : "",
                "nonce" : "0x00",
                "storage" : {
                }
            }
        }
    },
    "mload32bitBound2_d0g0v0_Homestead" : {
        "_info" : {
            "comment" : "",
            "filledwith" : "cpp-1.3.0+commit.7b8143d3.Linux.g++",
            "source" : "/src/GenStateTestAsBcTemp/stMemoryStressTest/mload32bitBound2_d0g0v0Filler.json"
        },
        "blocks" : [
            {
                "blockHeader" : {
                    "bloom" : "0x00000000000000000000000000000000000000000000000000000000000000000000000000000000000000000000000000000000000000000000000000000000000000000000000000000000000000000000000000000000000000000000000000000000000000000000000000000000000000000000000000000000000000000000000000000000000000000000000000000000000000000000000000000000000000000000000000000000000000000000000000000000000000000000000000000000000000000000000000000000000000000000000000000000000000000000000000000000000000000000000000000000000000000000000000000000",
                    "coinbase" : "0x2adc25665018aa1fe0e6bc666dac8fc2697ff9ba",
                    "difficulty" : "0x020000",
                    "extraData" : "",
                    "gasLimit" : "0x225eebec75ab",
                    "gasUsed" : "0x0249f0",
                    "hash" : "0xc7356f17c82f0dea61ceb8945f46f58bc54766fa829be1d76314ff9f2d052ebc",
                    "mixHash" : "0x8b3b5bd95f9e5110a4470eb9fae773899303229a3720bd154bd880dfb33c8ec1",
                    "nonce" : "0xa852ef750ad41690",
                    "number" : "0x01",
                    "parentHash" : "0x5cbbf8e6b1cd3382faffeb465c9a1ca8099b742cf85a1ab125abbea9d891517e",
                    "receiptTrie" : "0x29abce494f4bd25b6dc03b9dbf10577e67f0ef6771a67b0d997b6c25bf6f0da8",
                    "stateRoot" : "0x3377aa2f69435e93cb7b9f33abe2a0d2dde1be03b5114154f3b65fa63e0b5061",
                    "timestamp" : "0x03e8",
                    "transactionsTrie" : "0x85818eaa5e4d21faba0e066387c7719a21a932f6f13833ee138a3a5b6f127820",
                    "uncleHash" : "0x1dcc4de8dec75d7aab85b567b6ccd41ad312451b948a7413f0a142fd40d49347"
                },
                "rlp" : "0xf90263f901fba05cbbf8e6b1cd3382faffeb465c9a1ca8099b742cf85a1ab125abbea9d891517ea01dcc4de8dec75d7aab85b567b6ccd41ad312451b948a7413f0a142fd40d49347942adc25665018aa1fe0e6bc666dac8fc2697ff9baa03377aa2f69435e93cb7b9f33abe2a0d2dde1be03b5114154f3b65fa63e0b5061a085818eaa5e4d21faba0e066387c7719a21a932f6f13833ee138a3a5b6f127820a029abce494f4bd25b6dc03b9dbf10577e67f0ef6771a67b0d997b6c25bf6f0da8b9010000000000000000000000000000000000000000000000000000000000000000000000000000000000000000000000000000000000000000000000000000000000000000000000000000000000000000000000000000000000000000000000000000000000000000000000000000000000000000000000000000000000000000000000000000000000000000000000000000000000000000000000000000000000000000000000000000000000000000000000000000000000000000000000000000000000000000000000000000000000000000000000000000000000000000000000000000000000000000000000000000000000000000000000000000000000830200000186225eebec75ab830249f08203e880a08b3b5bd95f9e5110a4470eb9fae773899303229a3720bd154bd880dfb33c8ec188a852ef750ad41690f862f8608001830249f0940f572e5295c57f15886f9b263e2f6d2d6c7b5ec60a801ca03c593616a2b004061fe6ebf8ca287f90955a21938f6e3046830d8c1c40f92293a078b229779fcf885f433f587baa2e0eaf3efb5a810ac703dfa7d9a3551eeb133bc0",
                "transactions" : [
                    {
                        "data" : "",
                        "gasLimit" : "0x0249f0",
                        "gasPrice" : "0x01",
                        "nonce" : "0x00",
                        "r" : "0x3c593616a2b004061fe6ebf8ca287f90955a21938f6e3046830d8c1c40f92293",
                        "s" : "0x78b229779fcf885f433f587baa2e0eaf3efb5a810ac703dfa7d9a3551eeb133b",
                        "to" : "0x0f572e5295c57f15886f9b263e2f6d2d6c7b5ec6",
                        "v" : "0x1c",
                        "value" : "0x0a"
                    }
                ],
                "uncleHeaders" : [
                ]
            }
        ],
        "genesisBlockHeader" : {
            "bloom" : "0x00000000000000000000000000000000000000000000000000000000000000000000000000000000000000000000000000000000000000000000000000000000000000000000000000000000000000000000000000000000000000000000000000000000000000000000000000000000000000000000000000000000000000000000000000000000000000000000000000000000000000000000000000000000000000000000000000000000000000000000000000000000000000000000000000000000000000000000000000000000000000000000000000000000000000000000000000000000000000000000000000000000000000000000000000000000",
            "coinbase" : "0x2adc25665018aa1fe0e6bc666dac8fc2697ff9ba",
            "difficulty" : "0x020000",
            "extraData" : "0x42",
            "gasLimit" : "0x225eebec75ab",
            "gasUsed" : "0x00",
            "hash" : "0x5cbbf8e6b1cd3382faffeb465c9a1ca8099b742cf85a1ab125abbea9d891517e",
            "mixHash" : "0x56e81f171bcc55a6ff8345e692c0f86e5b48e01b996cadc001622fb5e363b421",
            "nonce" : "0x0102030405060708",
            "number" : "0x00",
            "parentHash" : "0x0000000000000000000000000000000000000000000000000000000000000000",
            "receiptTrie" : "0x56e81f171bcc55a6ff8345e692c0f86e5b48e01b996cadc001622fb5e363b421",
            "stateRoot" : "0xccfd7955be8325c4499ff724ea941d5019e416a1d5dbcc2d68926389774ccb86",
            "timestamp" : "0x03b6",
            "transactionsTrie" : "0x56e81f171bcc55a6ff8345e692c0f86e5b48e01b996cadc001622fb5e363b421",
            "uncleHash" : "0x1dcc4de8dec75d7aab85b567b6ccd41ad312451b948a7413f0a142fd40d49347"
        },
        "genesisRLP" : "0xf901fdf901f8a00000000000000000000000000000000000000000000000000000000000000000a01dcc4de8dec75d7aab85b567b6ccd41ad312451b948a7413f0a142fd40d49347942adc25665018aa1fe0e6bc666dac8fc2697ff9baa0ccfd7955be8325c4499ff724ea941d5019e416a1d5dbcc2d68926389774ccb86a056e81f171bcc55a6ff8345e692c0f86e5b48e01b996cadc001622fb5e363b421a056e81f171bcc55a6ff8345e692c0f86e5b48e01b996cadc001622fb5e363b421b9010000000000000000000000000000000000000000000000000000000000000000000000000000000000000000000000000000000000000000000000000000000000000000000000000000000000000000000000000000000000000000000000000000000000000000000000000000000000000000000000000000000000000000000000000000000000000000000000000000000000000000000000000000000000000000000000000000000000000000000000000000000000000000000000000000000000000000000000000000000000000000000000000000000000000000000000000000000000000000000000000000000000000000000000000000000000830200008086225eebec75ab808203b642a056e81f171bcc55a6ff8345e692c0f86e5b48e01b996cadc001622fb5e363b421880102030405060708c0c0",
        "lastblockhash" : "0xc7356f17c82f0dea61ceb8945f46f58bc54766fa829be1d76314ff9f2d052ebc",
        "network" : "Homestead",
        "postState" : {
            "0x0f572e5295c57f15886f9b263e2f6d2d6c7b5ec6" : {
                "balance" : "0x0de0b6b3a7640000",
                "code" : "0x64017735940051600155",
                "nonce" : "0x00",
                "storage" : {
                }
            },
            "0x2adc25665018aa1fe0e6bc666dac8fc2697ff9ba" : {
                "balance" : "0x4563918244f649f0",
                "code" : "",
                "nonce" : "0x00",
                "storage" : {
                }
            },
            "0xa94f5374fce5edbc8e2a8697c15331677e6ebf0b" : {
                "balance" : "0x0157b5373bbdda",
                "code" : "",
                "nonce" : "0x01",
                "storage" : {
                }
            }
        },
        "pre" : {
            "0x0f572e5295c57f15886f9b263e2f6d2d6c7b5ec6" : {
                "balance" : "0x0de0b6b3a7640000",
                "code" : "0x64017735940051600155",
                "nonce" : "0x00",
                "storage" : {
                }
            },
            "0xa94f5374fce5edbc8e2a8697c15331677e6ebf0b" : {
                "balance" : "0x0157b5373e07ca",
                "code" : "",
                "nonce" : "0x00",
                "storage" : {
                }
            }
        }
    }
}