{
    "mload32bitBound_d0g1v0_EIP150" : {
        "_info" : {
            "comment" : "",
            "filledwith" : "cpp-1.3.0+commit.16292201.Linux.g++",
            "source" : "/src/GenStateTestAsBcTemp/stMemoryStressTest/mload32bitBound_d0g1v0Filler.json"
        },
        "blocks" : [
            {
                "blockHeader" : {
                    "bloom" : "0x00000000000000000000000000000000000000000000000000000000000000000000000000000000000000000000000000000000000000000000000000000000000000000000000000000000000000000000000000000000000000000000000000000000000000000000000000000000000000000000000000000000000000000000000000000000000000000000000000000000000000000000000000000000000000000000000000000000000000000000000000000000000000000000000000000000000000000000000000000000000000000000000000000000000000000000000000000000000000000000000000000000000000000000000000000000",
                    "coinbase" : "0x2adc25665018aa1fe0e6bc666dac8fc2697ff9ba",
                    "difficulty" : "0x020000",
                    "extraData" : "",
                    "gasLimit" : "0x10000804025c",
                    "gasUsed" : "0x0ee6b280",
                    "hash" : "0x84e502f063bf750b5a11a22d54de55ca9c65b59b6ee5dcc7aa51e67901e0c34b",
                    "mixHash" : "0xfafa943abc6a14e64874f0b85deea8f6caaa47df8a76493dfc67d0a8475cd297",
                    "nonce" : "0x2753231e0db08d48",
                    "number" : "0x01",
                    "parentHash" : "0xcc28dca95c1ec10931f86111e1e17710253af036e5a239323eb6feb26297f3b8",
                    "receiptTrie" : "0xf5d8b99e63b863a5a2103efa300bcfcf82f08c36a165ffd38ec4520e2afb2ede",
                    "stateRoot" : "0x6fa1d18f8da36de86cb4e8e8903ad0fb1c0ec75694bd1c07745fe98d54a8923e",
                    "timestamp" : "0x03e8",
                    "transactionsTrie" : "0x2bc0479f585b924c6cfeaa8baf96036e35dbc5c5811970e0398de8666739585b",
                    "uncleHash" : "0x1dcc4de8dec75d7aab85b567b6ccd41ad312451b948a7413f0a142fd40d49347"
                },
                "rlp" : "0xf90265f901fca0cc28dca95c1ec10931f86111e1e17710253af036e5a239323eb6feb26297f3b8a01dcc4de8dec75d7aab85b567b6ccd41ad312451b948a7413f0a142fd40d49347942adc25665018aa1fe0e6bc666dac8fc2697ff9baa06fa1d18f8da36de86cb4e8e8903ad0fb1c0ec75694bd1c07745fe98d54a8923ea02bc0479f585b924c6cfeaa8baf96036e35dbc5c5811970e0398de8666739585ba0f5d8b99e63b863a5a2103efa300bcfcf82f08c36a165ffd38ec4520e2afb2edeb901000000000000000000000000000000000000000000000000000000000000000000000000000000000000000000000000000000000000000000000000000000000000000000000000000000000000000000000000000000000000000000000000000000000000000000000000000000000000000000000000000000000000000000000000000000000000000000000000000000000000000000000000000000000000000000000000000000000000000000000000000000000000000000000000000000000000000000000000000000000000000000000000000000000000000000000000000000000000000000000000000000000000000000000000000000000083020000018610000804025c840ee6b2808203e880a0fafa943abc6a14e64874f0b85deea8f6caaa47df8a76493dfc67d0a8475cd297882753231e0db08d48f863f8618001840ee6b280940f572e5295c57f15886f9b263e2f6d2d6c7b5ec60a801ba0eebe8f6882b96fdbbd5f189299464c92416a657404cc3e7a84d3ac1090aef87aa06bb2fa80ca4f417aa4e12b955f470eab638c0733c5671b06b074f158acff8c57c0",
                "transactions" : [
                    {
                        "data" : "",
                        "gasLimit" : "0x0ee6b280",
                        "gasPrice" : "0x01",
                        "nonce" : "0x00",
                        "r" : "0xeebe8f6882b96fdbbd5f189299464c92416a657404cc3e7a84d3ac1090aef87a",
                        "s" : "0x6bb2fa80ca4f417aa4e12b955f470eab638c0733c5671b06b074f158acff8c57",
                        "to" : "0x0f572e5295c57f15886f9b263e2f6d2d6c7b5ec6",
                        "v" : "0x1b",
                        "value" : "0x0a"
                    }
                ],
                "uncleHeaders" : [
                ]
            }
        ],
        "genesisBlockHeader" : {
            "bloom" : "0x00000000000000000000000000000000000000000000000000000000000000000000000000000000000000000000000000000000000000000000000000000000000000000000000000000000000000000000000000000000000000000000000000000000000000000000000000000000000000000000000000000000000000000000000000000000000000000000000000000000000000000000000000000000000000000000000000000000000000000000000000000000000000000000000000000000000000000000000000000000000000000000000000000000000000000000000000000000000000000000000000000000000000000000000000000000",
            "coinbase" : "0x2adc25665018aa1fe0e6bc666dac8fc2697ff9ba",
            "difficulty" : "0x020000",
            "extraData" : "0x42",
            "gasLimit" : "0x10000804025c",
            "gasUsed" : "0x00",
            "hash" : "0xcc28dca95c1ec10931f86111e1e17710253af036e5a239323eb6feb26297f3b8",
            "mixHash" : "0x56e81f171bcc55a6ff8345e692c0f86e5b48e01b996cadc001622fb5e363b421",
            "nonce" : "0x0102030405060708",
            "number" : "0x00",
            "parentHash" : "0x0000000000000000000000000000000000000000000000000000000000000000",
            "receiptTrie" : "0x56e81f171bcc55a6ff8345e692c0f86e5b48e01b996cadc001622fb5e363b421",
            "stateRoot" : "0x310efbfaac24de5046adb3ae8b4b8b68e863fa00b7d4ed5c2365624741e2d626",
            "timestamp" : "0x03b6",
            "transactionsTrie" : "0x56e81f171bcc55a6ff8345e692c0f86e5b48e01b996cadc001622fb5e363b421",
            "uncleHash" : "0x1dcc4de8dec75d7aab85b567b6ccd41ad312451b948a7413f0a142fd40d49347"
        },
        "genesisRLP" : "0xf901fdf901f8a00000000000000000000000000000000000000000000000000000000000000000a01dcc4de8dec75d7aab85b567b6ccd41ad312451b948a7413f0a142fd40d49347942adc25665018aa1fe0e6bc666dac8fc2697ff9baa0310efbfaac24de5046adb3ae8b4b8b68e863fa00b7d4ed5c2365624741e2d626a056e81f171bcc55a6ff8345e692c0f86e5b48e01b996cadc001622fb5e363b421a056e81f171bcc55a6ff8345e692c0f86e5b48e01b996cadc001622fb5e363b421b901000000000000000000000000000000000000000000000000000000000000000000000000000000000000000000000000000000000000000000000000000000000000000000000000000000000000000000000000000000000000000000000000000000000000000000000000000000000000000000000000000000000000000000000000000000000000000000000000000000000000000000000000000000000000000000000000000000000000000000000000000000000000000000000000000000000000000000000000000000000000000000000000000000000000000000000000000000000000000000000000000000000000000000000000000000000083020000808610000804025c808203b642a056e81f171bcc55a6ff8345e692c0f86e5b48e01b996cadc001622fb5e363b421880102030405060708c0c0",
        "lastblockhash" : "0x84e502f063bf750b5a11a22d54de55ca9c65b59b6ee5dcc7aa51e67901e0c34b",
        "network" : "EIP150",
        "postState" : {
            "0x0f572e5295c57f15886f9b263e2f6d2d6c7b5ec6" : {
                "balance" : "0x0de0b6b3a7640000",
                "code" : "0x64010000000051600155",
                "nonce" : "0x00",
                "storage" : {
                }
            },
            "0x2adc25665018aa1fe0e6bc666dac8fc2697ff9ba" : {
                "balance" : "0x4563918253dab280",
                "code" : "",
                "nonce" : "0x00",
                "storage" : {
                }
            },
            "0xa94f5374fce5edbc8e2a8697c15331677e6ebf0b" : {
                "balance" : "0xa00041416518",
                "code" : "",
                "nonce" : "0x01",
                "storage" : {
                }
            }
        },
        "pre" : {
            "0x0f572e5295c57f15886f9b263e2f6d2d6c7b5ec6" : {
                "balance" : "0x0de0b6b3a7640000",
                "code" : "0x64010000000051600155",
                "nonce" : "0x00",
                "storage" : {
                }
            },
            "0xa94f5374fce5edbc8e2a8697c15331677e6ebf0b" : {
                "balance" : "0xa00050281798",
                "code" : "",
                "nonce" : "0x00",
                "storage" : {
                }
            }
        }
    },
    "mload32bitBound_d0g1v0_EIP158" : {
        "_info" : {
            "comment" : "",
            "filledwith" : "cpp-1.3.0+commit.16292201.Linux.g++",
            "source" : "/src/GenStateTestAsBcTemp/stMemoryStressTest/mload32bitBound_d0g1v0Filler.json"
        },
        "blocks" : [
            {
                "blockHeader" : {
                    "bloom" : "0x00000000000000000000000000000000000000000000000000000000000000000000000000000000000000000000000000000000000000000000000000000000000000000000000000000000000000000000000000000000000000000000000000000000000000000000000000000000000000000000000000000000000000000000000000000000000000000000000000000000000000000000000000000000000000000000000000000000000000000000000000000000000000000000000000000000000000000000000000000000000000000000000000000000000000000000000000000000000000000000000000000000000000000000000000000000",
                    "coinbase" : "0x2adc25665018aa1fe0e6bc666dac8fc2697ff9ba",
                    "difficulty" : "0x020000",
                    "extraData" : "",
                    "gasLimit" : "0x10000804025c",
                    "gasUsed" : "0x0ee6b280",
                    "hash" : "0xfde90019ca4b859ae6152ac61c358d8f911ec6a681fa6a82161cf2d182733906",
                    "mixHash" : "0xf2df9ade16ad0960649a2cd0ca6773f18fcbdbeb9336bc05bc39267589eb8466",
                    "nonce" : "0xbba4c6be4b692741",
                    "number" : "0x01",
                    "parentHash" : "0xcc28dca95c1ec10931f86111e1e17710253af036e5a239323eb6feb26297f3b8",
                    "receiptTrie" : "0xf5d8b99e63b863a5a2103efa300bcfcf82f08c36a165ffd38ec4520e2afb2ede",
                    "stateRoot" : "0x6fa1d18f8da36de86cb4e8e8903ad0fb1c0ec75694bd1c07745fe98d54a8923e",
                    "timestamp" : "0x03e8",
                    "transactionsTrie" : "0x2bc0479f585b924c6cfeaa8baf96036e35dbc5c5811970e0398de8666739585b",
                    "uncleHash" : "0x1dcc4de8dec75d7aab85b567b6ccd41ad312451b948a7413f0a142fd40d49347"
                },
                "rlp" : "0xf90265f901fca0cc28dca95c1ec10931f86111e1e17710253af036e5a239323eb6feb26297f3b8a01dcc4de8dec75d7aab85b567b6ccd41ad312451b948a7413f0a142fd40d49347942adc25665018aa1fe0e6bc666dac8fc2697ff9baa06fa1d18f8da36de86cb4e8e8903ad0fb1c0ec75694bd1c07745fe98d54a8923ea02bc0479f585b924c6cfeaa8baf96036e35dbc5c5811970e0398de8666739585ba0f5d8b99e63b863a5a2103efa300bcfcf82f08c36a165ffd38ec4520e2afb2edeb901000000000000000000000000000000000000000000000000000000000000000000000000000000000000000000000000000000000000000000000000000000000000000000000000000000000000000000000000000000000000000000000000000000000000000000000000000000000000000000000000000000000000000000000000000000000000000000000000000000000000000000000000000000000000000000000000000000000000000000000000000000000000000000000000000000000000000000000000000000000000000000000000000000000000000000000000000000000000000000000000000000000000000000000000000000000083020000018610000804025c840ee6b2808203e880a0f2df9ade16ad0960649a2cd0ca6773f18fcbdbeb9336bc05bc39267589eb846688bba4c6be4b692741f863f8618001840ee6b280940f572e5295c57f15886f9b263e2f6d2d6c7b5ec60a801ba0eebe8f6882b96fdbbd5f189299464c92416a657404cc3e7a84d3ac1090aef87aa06bb2fa80ca4f417aa4e12b955f470eab638c0733c5671b06b074f158acff8c57c0",
                "transactions" : [
                    {
                        "data" : "",
                        "gasLimit" : "0x0ee6b280",
                        "gasPrice" : "0x01",
                        "nonce" : "0x00",
                        "r" : "0xeebe8f6882b96fdbbd5f189299464c92416a657404cc3e7a84d3ac1090aef87a",
                        "s" : "0x6bb2fa80ca4f417aa4e12b955f470eab638c0733c5671b06b074f158acff8c57",
                        "to" : "0x0f572e5295c57f15886f9b263e2f6d2d6c7b5ec6",
                        "v" : "0x1b",
                        "value" : "0x0a"
                    }
                ],
                "uncleHeaders" : [
                ]
            }
        ],
        "genesisBlockHeader" : {
            "bloom" : "0x00000000000000000000000000000000000000000000000000000000000000000000000000000000000000000000000000000000000000000000000000000000000000000000000000000000000000000000000000000000000000000000000000000000000000000000000000000000000000000000000000000000000000000000000000000000000000000000000000000000000000000000000000000000000000000000000000000000000000000000000000000000000000000000000000000000000000000000000000000000000000000000000000000000000000000000000000000000000000000000000000000000000000000000000000000000",
            "coinbase" : "0x2adc25665018aa1fe0e6bc666dac8fc2697ff9ba",
            "difficulty" : "0x020000",
            "extraData" : "0x42",
            "gasLimit" : "0x10000804025c",
            "gasUsed" : "0x00",
            "hash" : "0xcc28dca95c1ec10931f86111e1e17710253af036e5a239323eb6feb26297f3b8",
            "mixHash" : "0x56e81f171bcc55a6ff8345e692c0f86e5b48e01b996cadc001622fb5e363b421",
            "nonce" : "0x0102030405060708",
            "number" : "0x00",
            "parentHash" : "0x0000000000000000000000000000000000000000000000000000000000000000",
            "receiptTrie" : "0x56e81f171bcc55a6ff8345e692c0f86e5b48e01b996cadc001622fb5e363b421",
            "stateRoot" : "0x310efbfaac24de5046adb3ae8b4b8b68e863fa00b7d4ed5c2365624741e2d626",
            "timestamp" : "0x03b6",
            "transactionsTrie" : "0x56e81f171bcc55a6ff8345e692c0f86e5b48e01b996cadc001622fb5e363b421",
            "uncleHash" : "0x1dcc4de8dec75d7aab85b567b6ccd41ad312451b948a7413f0a142fd40d49347"
        },
        "genesisRLP" : "0xf901fdf901f8a00000000000000000000000000000000000000000000000000000000000000000a01dcc4de8dec75d7aab85b567b6ccd41ad312451b948a7413f0a142fd40d49347942adc25665018aa1fe0e6bc666dac8fc2697ff9baa0310efbfaac24de5046adb3ae8b4b8b68e863fa00b7d4ed5c2365624741e2d626a056e81f171bcc55a6ff8345e692c0f86e5b48e01b996cadc001622fb5e363b421a056e81f171bcc55a6ff8345e692c0f86e5b48e01b996cadc001622fb5e363b421b901000000000000000000000000000000000000000000000000000000000000000000000000000000000000000000000000000000000000000000000000000000000000000000000000000000000000000000000000000000000000000000000000000000000000000000000000000000000000000000000000000000000000000000000000000000000000000000000000000000000000000000000000000000000000000000000000000000000000000000000000000000000000000000000000000000000000000000000000000000000000000000000000000000000000000000000000000000000000000000000000000000000000000000000000000000000083020000808610000804025c808203b642a056e81f171bcc55a6ff8345e692c0f86e5b48e01b996cadc001622fb5e363b421880102030405060708c0c0",
        "lastblockhash" : "0xfde90019ca4b859ae6152ac61c358d8f911ec6a681fa6a82161cf2d182733906",
        "network" : "EIP158",
        "postState" : {
            "0x0f572e5295c57f15886f9b263e2f6d2d6c7b5ec6" : {
                "balance" : "0x0de0b6b3a7640000",
                "code" : "0x64010000000051600155",
                "nonce" : "0x00",
                "storage" : {
                }
            },
            "0x2adc25665018aa1fe0e6bc666dac8fc2697ff9ba" : {
                "balance" : "0x4563918253dab280",
                "code" : "",
                "nonce" : "0x00",
                "storage" : {
                }
            },
            "0xa94f5374fce5edbc8e2a8697c15331677e6ebf0b" : {
                "balance" : "0xa00041416518",
                "code" : "",
                "nonce" : "0x01",
                "storage" : {
                }
            }
        },
        "pre" : {
            "0x0f572e5295c57f15886f9b263e2f6d2d6c7b5ec6" : {
                "balance" : "0x0de0b6b3a7640000",
                "code" : "0x64010000000051600155",
                "nonce" : "0x00",
                "storage" : {
                }
            },
            "0xa94f5374fce5edbc8e2a8697c15331677e6ebf0b" : {
                "balance" : "0xa00050281798",
                "code" : "",
                "nonce" : "0x00",
                "storage" : {
                }
            }
        }
    },
    "mload32bitBound_d0g1v0_Frontier" : {
        "_info" : {
            "comment" : "",
            "filledwith" : "cpp-1.3.0+commit.16292201.Linux.g++",
            "source" : "/src/GenStateTestAsBcTemp/stMemoryStressTest/mload32bitBound_d0g1v0Filler.json"
        },
        "blocks" : [
            {
                "blockHeader" : {
                    "bloom" : "0x00000000000000000000000000000000000000000000000000000000000000000000000000000000000000000000000000000000000000000000000000000000000000000000000000000000000000000000000000000000000000000000000000000000000000000000000000000000000000000000000000000000000000000000000000000000000000000000000000000000000000000000000000000000000000000000000000000000000000000000000000000000000000000000000000000000000000000000000000000000000000000000000000000000000000000000000000000000000000000000000000000000000000000000000000000000",
                    "coinbase" : "0x2adc25665018aa1fe0e6bc666dac8fc2697ff9ba",
                    "difficulty" : "0x020000",
                    "extraData" : "",
                    "gasLimit" : "0x10000804025c",
                    "gasUsed" : "0x0ee6b280",
                    "hash" : "0x05e4d1950c69517ef44ee66de4053bfa01f5c374ad90145e9cdbb9ebb9b4efa3",
                    "mixHash" : "0xda351dfcdfbcd39332f24d5c05a390e1514975e3e26229ff09c4d60ad297408c",
                    "nonce" : "0xbda2eccd5d8fdaff",
                    "number" : "0x01",
                    "parentHash" : "0xcc28dca95c1ec10931f86111e1e17710253af036e5a239323eb6feb26297f3b8",
                    "receiptTrie" : "0xf5d8b99e63b863a5a2103efa300bcfcf82f08c36a165ffd38ec4520e2afb2ede",
                    "stateRoot" : "0x6fa1d18f8da36de86cb4e8e8903ad0fb1c0ec75694bd1c07745fe98d54a8923e",
                    "timestamp" : "0x03e8",
                    "transactionsTrie" : "0x2bc0479f585b924c6cfeaa8baf96036e35dbc5c5811970e0398de8666739585b",
                    "uncleHash" : "0x1dcc4de8dec75d7aab85b567b6ccd41ad312451b948a7413f0a142fd40d49347"
                },
                "rlp" : "0xf90265f901fca0cc28dca95c1ec10931f86111e1e17710253af036e5a239323eb6feb26297f3b8a01dcc4de8dec75d7aab85b567b6ccd41ad312451b948a7413f0a142fd40d49347942adc25665018aa1fe0e6bc666dac8fc2697ff9baa06fa1d18f8da36de86cb4e8e8903ad0fb1c0ec75694bd1c07745fe98d54a8923ea02bc0479f585b924c6cfeaa8baf96036e35dbc5c5811970e0398de8666739585ba0f5d8b99e63b863a5a2103efa300bcfcf82f08c36a165ffd38ec4520e2afb2edeb901000000000000000000000000000000000000000000000000000000000000000000000000000000000000000000000000000000000000000000000000000000000000000000000000000000000000000000000000000000000000000000000000000000000000000000000000000000000000000000000000000000000000000000000000000000000000000000000000000000000000000000000000000000000000000000000000000000000000000000000000000000000000000000000000000000000000000000000000000000000000000000000000000000000000000000000000000000000000000000000000000000000000000000000000000000000083020000018610000804025c840ee6b2808203e880a0da351dfcdfbcd39332f24d5c05a390e1514975e3e26229ff09c4d60ad297408c88bda2eccd5d8fdafff863f8618001840ee6b280940f572e5295c57f15886f9b263e2f6d2d6c7b5ec60a801ba0eebe8f6882b96fdbbd5f189299464c92416a657404cc3e7a84d3ac1090aef87aa06bb2fa80ca4f417aa4e12b955f470eab638c0733c5671b06b074f158acff8c57c0",
                "transactions" : [
                    {
                        "data" : "",
                        "gasLimit" : "0x0ee6b280",
                        "gasPrice" : "0x01",
                        "nonce" : "0x00",
                        "r" : "0xeebe8f6882b96fdbbd5f189299464c92416a657404cc3e7a84d3ac1090aef87a",
                        "s" : "0x6bb2fa80ca4f417aa4e12b955f470eab638c0733c5671b06b074f158acff8c57",
                        "to" : "0x0f572e5295c57f15886f9b263e2f6d2d6c7b5ec6",
                        "v" : "0x1b",
                        "value" : "0x0a"
                    }
                ],
                "uncleHeaders" : [
                ]
            }
        ],
        "genesisBlockHeader" : {
            "bloom" : "0x00000000000000000000000000000000000000000000000000000000000000000000000000000000000000000000000000000000000000000000000000000000000000000000000000000000000000000000000000000000000000000000000000000000000000000000000000000000000000000000000000000000000000000000000000000000000000000000000000000000000000000000000000000000000000000000000000000000000000000000000000000000000000000000000000000000000000000000000000000000000000000000000000000000000000000000000000000000000000000000000000000000000000000000000000000000",
            "coinbase" : "0x2adc25665018aa1fe0e6bc666dac8fc2697ff9ba",
            "difficulty" : "0x020000",
            "extraData" : "0x42",
            "gasLimit" : "0x10000804025c",
            "gasUsed" : "0x00",
            "hash" : "0xcc28dca95c1ec10931f86111e1e17710253af036e5a239323eb6feb26297f3b8",
            "mixHash" : "0x56e81f171bcc55a6ff8345e692c0f86e5b48e01b996cadc001622fb5e363b421",
            "nonce" : "0x0102030405060708",
            "number" : "0x00",
            "parentHash" : "0x0000000000000000000000000000000000000000000000000000000000000000",
            "receiptTrie" : "0x56e81f171bcc55a6ff8345e692c0f86e5b48e01b996cadc001622fb5e363b421",
            "stateRoot" : "0x310efbfaac24de5046adb3ae8b4b8b68e863fa00b7d4ed5c2365624741e2d626",
            "timestamp" : "0x03b6",
            "transactionsTrie" : "0x56e81f171bcc55a6ff8345e692c0f86e5b48e01b996cadc001622fb5e363b421",
            "uncleHash" : "0x1dcc4de8dec75d7aab85b567b6ccd41ad312451b948a7413f0a142fd40d49347"
        },
        "genesisRLP" : "0xf901fdf901f8a00000000000000000000000000000000000000000000000000000000000000000a01dcc4de8dec75d7aab85b567b6ccd41ad312451b948a7413f0a142fd40d49347942adc25665018aa1fe0e6bc666dac8fc2697ff9baa0310efbfaac24de5046adb3ae8b4b8b68e863fa00b7d4ed5c2365624741e2d626a056e81f171bcc55a6ff8345e692c0f86e5b48e01b996cadc001622fb5e363b421a056e81f171bcc55a6ff8345e692c0f86e5b48e01b996cadc001622fb5e363b421b901000000000000000000000000000000000000000000000000000000000000000000000000000000000000000000000000000000000000000000000000000000000000000000000000000000000000000000000000000000000000000000000000000000000000000000000000000000000000000000000000000000000000000000000000000000000000000000000000000000000000000000000000000000000000000000000000000000000000000000000000000000000000000000000000000000000000000000000000000000000000000000000000000000000000000000000000000000000000000000000000000000000000000000000000000000000083020000808610000804025c808203b642a056e81f171bcc55a6ff8345e692c0f86e5b48e01b996cadc001622fb5e363b421880102030405060708c0c0",
        "lastblockhash" : "0x05e4d1950c69517ef44ee66de4053bfa01f5c374ad90145e9cdbb9ebb9b4efa3",
        "network" : "Frontier",
        "postState" : {
            "0x0f572e5295c57f15886f9b263e2f6d2d6c7b5ec6" : {
                "balance" : "0x0de0b6b3a7640000",
                "code" : "0x64010000000051600155",
                "nonce" : "0x00",
                "storage" : {
                }
            },
            "0x2adc25665018aa1fe0e6bc666dac8fc2697ff9ba" : {
                "balance" : "0x4563918253dab280",
                "code" : "",
                "nonce" : "0x00",
                "storage" : {
                }
            },
            "0xa94f5374fce5edbc8e2a8697c15331677e6ebf0b" : {
                "balance" : "0xa00041416518",
                "code" : "",
                "nonce" : "0x01",
                "storage" : {
                }
            }
        },
        "pre" : {
            "0x0f572e5295c57f15886f9b263e2f6d2d6c7b5ec6" : {
                "balance" : "0x0de0b6b3a7640000",
                "code" : "0x64010000000051600155",
                "nonce" : "0x00",
                "storage" : {
                }
            },
            "0xa94f5374fce5edbc8e2a8697c15331677e6ebf0b" : {
                "balance" : "0xa00050281798",
                "code" : "",
                "nonce" : "0x00",
                "storage" : {
                }
            }
        }
    },
    "mload32bitBound_d0g1v0_Homestead" : {
        "_info" : {
            "comment" : "",
            "filledwith" : "cpp-1.3.0+commit.16292201.Linux.g++",
            "source" : "/src/GenStateTestAsBcTemp/stMemoryStressTest/mload32bitBound_d0g1v0Filler.json"
        },
        "blocks" : [
            {
                "blockHeader" : {
                    "bloom" : "0x00000000000000000000000000000000000000000000000000000000000000000000000000000000000000000000000000000000000000000000000000000000000000000000000000000000000000000000000000000000000000000000000000000000000000000000000000000000000000000000000000000000000000000000000000000000000000000000000000000000000000000000000000000000000000000000000000000000000000000000000000000000000000000000000000000000000000000000000000000000000000000000000000000000000000000000000000000000000000000000000000000000000000000000000000000000",
                    "coinbase" : "0x2adc25665018aa1fe0e6bc666dac8fc2697ff9ba",
                    "difficulty" : "0x020000",
                    "extraData" : "",
                    "gasLimit" : "0x10000804025c",
                    "gasUsed" : "0x0ee6b280",
                    "hash" : "0xc32c1f7bdfa3bd35311808be228384a86374240b72f207dc25671d43585c41af",
                    "mixHash" : "0x8be65486b9e5b0a94e301b87634a43aec6bd10303736d45fab358c642b492c6d",
                    "nonce" : "0xbd50c0246acecd46",
                    "number" : "0x01",
                    "parentHash" : "0xcc28dca95c1ec10931f86111e1e17710253af036e5a239323eb6feb26297f3b8",
                    "receiptTrie" : "0xf5d8b99e63b863a5a2103efa300bcfcf82f08c36a165ffd38ec4520e2afb2ede",
                    "stateRoot" : "0x6fa1d18f8da36de86cb4e8e8903ad0fb1c0ec75694bd1c07745fe98d54a8923e",
                    "timestamp" : "0x03e8",
                    "transactionsTrie" : "0x2bc0479f585b924c6cfeaa8baf96036e35dbc5c5811970e0398de8666739585b",
                    "uncleHash" : "0x1dcc4de8dec75d7aab85b567b6ccd41ad312451b948a7413f0a142fd40d49347"
                },
                "rlp" : "0xf90265f901fca0cc28dca95c1ec10931f86111e1e17710253af036e5a239323eb6feb26297f3b8a01dcc4de8dec75d7aab85b567b6ccd41ad312451b948a7413f0a142fd40d49347942adc25665018aa1fe0e6bc666dac8fc2697ff9baa06fa1d18f8da36de86cb4e8e8903ad0fb1c0ec75694bd1c07745fe98d54a8923ea02bc0479f585b924c6cfeaa8baf96036e35dbc5c5811970e0398de8666739585ba0f5d8b99e63b863a5a2103efa300bcfcf82f08c36a165ffd38ec4520e2afb2edeb901000000000000000000000000000000000000000000000000000000000000000000000000000000000000000000000000000000000000000000000000000000000000000000000000000000000000000000000000000000000000000000000000000000000000000000000000000000000000000000000000000000000000000000000000000000000000000000000000000000000000000000000000000000000000000000000000000000000000000000000000000000000000000000000000000000000000000000000000000000000000000000000000000000000000000000000000000000000000000000000000000000000000000000000000000000000083020000018610000804025c840ee6b2808203e880a08be65486b9e5b0a94e301b87634a43aec6bd10303736d45fab358c642b492c6d88bd50c0246acecd46f863f8618001840ee6b280940f572e5295c57f15886f9b263e2f6d2d6c7b5ec60a801ba0eebe8f6882b96fdbbd5f189299464c92416a657404cc3e7a84d3ac1090aef87aa06bb2fa80ca4f417aa4e12b955f470eab638c0733c5671b06b074f158acff8c57c0",
                "transactions" : [
                    {
                        "data" : "",
                        "gasLimit" : "0x0ee6b280",
                        "gasPrice" : "0x01",
                        "nonce" : "0x00",
                        "r" : "0xeebe8f6882b96fdbbd5f189299464c92416a657404cc3e7a84d3ac1090aef87a",
                        "s" : "0x6bb2fa80ca4f417aa4e12b955f470eab638c0733c5671b06b074f158acff8c57",
                        "to" : "0x0f572e5295c57f15886f9b263e2f6d2d6c7b5ec6",
                        "v" : "0x1b",
                        "value" : "0x0a"
                    }
                ],
                "uncleHeaders" : [
                ]
            }
        ],
        "genesisBlockHeader" : {
            "bloom" : "0x00000000000000000000000000000000000000000000000000000000000000000000000000000000000000000000000000000000000000000000000000000000000000000000000000000000000000000000000000000000000000000000000000000000000000000000000000000000000000000000000000000000000000000000000000000000000000000000000000000000000000000000000000000000000000000000000000000000000000000000000000000000000000000000000000000000000000000000000000000000000000000000000000000000000000000000000000000000000000000000000000000000000000000000000000000000",
            "coinbase" : "0x2adc25665018aa1fe0e6bc666dac8fc2697ff9ba",
            "difficulty" : "0x020000",
            "extraData" : "0x42",
            "gasLimit" : "0x10000804025c",
            "gasUsed" : "0x00",
            "hash" : "0xcc28dca95c1ec10931f86111e1e17710253af036e5a239323eb6feb26297f3b8",
            "mixHash" : "0x56e81f171bcc55a6ff8345e692c0f86e5b48e01b996cadc001622fb5e363b421",
            "nonce" : "0x0102030405060708",
            "number" : "0x00",
            "parentHash" : "0x0000000000000000000000000000000000000000000000000000000000000000",
            "receiptTrie" : "0x56e81f171bcc55a6ff8345e692c0f86e5b48e01b996cadc001622fb5e363b421",
            "stateRoot" : "0x310efbfaac24de5046adb3ae8b4b8b68e863fa00b7d4ed5c2365624741e2d626",
            "timestamp" : "0x03b6",
            "transactionsTrie" : "0x56e81f171bcc55a6ff8345e692c0f86e5b48e01b996cadc001622fb5e363b421",
            "uncleHash" : "0x1dcc4de8dec75d7aab85b567b6ccd41ad312451b948a7413f0a142fd40d49347"
        },
        "genesisRLP" : "0xf901fdf901f8a00000000000000000000000000000000000000000000000000000000000000000a01dcc4de8dec75d7aab85b567b6ccd41ad312451b948a7413f0a142fd40d49347942adc25665018aa1fe0e6bc666dac8fc2697ff9baa0310efbfaac24de5046adb3ae8b4b8b68e863fa00b7d4ed5c2365624741e2d626a056e81f171bcc55a6ff8345e692c0f86e5b48e01b996cadc001622fb5e363b421a056e81f171bcc55a6ff8345e692c0f86e5b48e01b996cadc001622fb5e363b421b901000000000000000000000000000000000000000000000000000000000000000000000000000000000000000000000000000000000000000000000000000000000000000000000000000000000000000000000000000000000000000000000000000000000000000000000000000000000000000000000000000000000000000000000000000000000000000000000000000000000000000000000000000000000000000000000000000000000000000000000000000000000000000000000000000000000000000000000000000000000000000000000000000000000000000000000000000000000000000000000000000000000000000000000000000000000083020000808610000804025c808203b642a056e81f171bcc55a6ff8345e692c0f86e5b48e01b996cadc001622fb5e363b421880102030405060708c0c0",
        "lastblockhash" : "0xc32c1f7bdfa3bd35311808be228384a86374240b72f207dc25671d43585c41af",
        "network" : "Homestead",
        "postState" : {
            "0x0f572e5295c57f15886f9b263e2f6d2d6c7b5ec6" : {
                "balance" : "0x0de0b6b3a7640000",
                "code" : "0x64010000000051600155",
                "nonce" : "0x00",
                "storage" : {
                }
            },
            "0x2adc25665018aa1fe0e6bc666dac8fc2697ff9ba" : {
                "balance" : "0x4563918253dab280",
                "code" : "",
                "nonce" : "0x00",
                "storage" : {
                }
            },
            "0xa94f5374fce5edbc8e2a8697c15331677e6ebf0b" : {
                "balance" : "0xa00041416518",
                "code" : "",
                "nonce" : "0x01",
                "storage" : {
                }
            }
        },
        "pre" : {
            "0x0f572e5295c57f15886f9b263e2f6d2d6c7b5ec6" : {
                "balance" : "0x0de0b6b3a7640000",
                "code" : "0x64010000000051600155",
                "nonce" : "0x00",
                "storage" : {
                }
            },
            "0xa94f5374fce5edbc8e2a8697c15331677e6ebf0b" : {
                "balance" : "0xa00050281798",
                "code" : "",
                "nonce" : "0x00",
                "storage" : {
                }
            }
        }
    },
    "mload32bitBound_d0g1v0_Metropolis" : {
        "_info" : {
            "comment" : "",
            "filledwith" : "cpp-1.3.0+commit.16292201.Linux.g++",
            "source" : "/src/GenStateTestAsBcTemp/stMemoryStressTest/mload32bitBound_d0g1v0Filler.json"
        },
        "blocks" : [
            {
                "blockHeader" : {
                    "bloom" : "0x00000000000000000000000000000000000000000000000000000000000000000000000000000000000000000000000000000000000000000000000000000000000000000000000000000000000000000000000000000000000000000000000000000000000000000000000000000000000000000000000000000000000000000000000000000000000000000000000000000000000000000000000000000000000000000000000000000000000000000000000000000000000000000000000000000000000000000000000000000000000000000000000000000000000000000000000000000000000000000000000000000000000000000000000000000000",
                    "coinbase" : "0x2adc25665018aa1fe0e6bc666dac8fc2697ff9ba",
                    "difficulty" : "0x020000",
                    "extraData" : "",
                    "gasLimit" : "0x10000804025c",
                    "gasUsed" : "0x0ee6b280",
                    "hash" : "0x181fe6e1ff6d68c9a6c3db0f7f530676e37c2b978f4d7a1628305c1b1169a062",
                    "mixHash" : "0x77c9abe18701a029262a1cb52a9c93088fe4a5986583ee4bc1eec587d4920673",
                    "nonce" : "0x0ae829d3bb57f100",
                    "number" : "0x01",
                    "parentHash" : "0xcc28dca95c1ec10931f86111e1e17710253af036e5a239323eb6feb26297f3b8",
                    "receiptTrie" : "0x27408083641cf20cfde86cd87cd57bf10c741d7553352ca96118e31ab8ceb9ce",
                    "stateRoot" : "0x91ddba01fae7962220798d90962123b87f382b2ef4048c3fdc24189a5422cd48",
                    "timestamp" : "0x03e8",
                    "transactionsTrie" : "0x2bc0479f585b924c6cfeaa8baf96036e35dbc5c5811970e0398de8666739585b",
                    "uncleHash" : "0x1dcc4de8dec75d7aab85b567b6ccd41ad312451b948a7413f0a142fd40d49347"
                },
                "rlp" : "0xf90265f901fca0cc28dca95c1ec10931f86111e1e17710253af036e5a239323eb6feb26297f3b8a01dcc4de8dec75d7aab85b567b6ccd41ad312451b948a7413f0a142fd40d49347942adc25665018aa1fe0e6bc666dac8fc2697ff9baa091ddba01fae7962220798d90962123b87f382b2ef4048c3fdc24189a5422cd48a02bc0479f585b924c6cfeaa8baf96036e35dbc5c5811970e0398de8666739585ba027408083641cf20cfde86cd87cd57bf10c741d7553352ca96118e31ab8ceb9ceb901000000000000000000000000000000000000000000000000000000000000000000000000000000000000000000000000000000000000000000000000000000000000000000000000000000000000000000000000000000000000000000000000000000000000000000000000000000000000000000000000000000000000000000000000000000000000000000000000000000000000000000000000000000000000000000000000000000000000000000000000000000000000000000000000000000000000000000000000000000000000000000000000000000000000000000000000000000000000000000000000000000000000000000000000000000000083020000018610000804025c840ee6b2808203e880a077c9abe18701a029262a1cb52a9c93088fe4a5986583ee4bc1eec587d4920673880ae829d3bb57f100f863f8618001840ee6b280940f572e5295c57f15886f9b263e2f6d2d6c7b5ec60a801ba0eebe8f6882b96fdbbd5f189299464c92416a657404cc3e7a84d3ac1090aef87aa06bb2fa80ca4f417aa4e12b955f470eab638c0733c5671b06b074f158acff8c57c0",
                "transactions" : [
                    {
                        "data" : "",
                        "gasLimit" : "0x0ee6b280",
                        "gasPrice" : "0x01",
                        "nonce" : "0x00",
                        "r" : "0xeebe8f6882b96fdbbd5f189299464c92416a657404cc3e7a84d3ac1090aef87a",
                        "s" : "0x6bb2fa80ca4f417aa4e12b955f470eab638c0733c5671b06b074f158acff8c57",
                        "to" : "0x0f572e5295c57f15886f9b263e2f6d2d6c7b5ec6",
                        "v" : "0x1b",
                        "value" : "0x0a"
                    }
                ],
                "uncleHeaders" : [
                ]
            }
        ],
        "genesisBlockHeader" : {
            "bloom" : "0x00000000000000000000000000000000000000000000000000000000000000000000000000000000000000000000000000000000000000000000000000000000000000000000000000000000000000000000000000000000000000000000000000000000000000000000000000000000000000000000000000000000000000000000000000000000000000000000000000000000000000000000000000000000000000000000000000000000000000000000000000000000000000000000000000000000000000000000000000000000000000000000000000000000000000000000000000000000000000000000000000000000000000000000000000000000",
            "coinbase" : "0x2adc25665018aa1fe0e6bc666dac8fc2697ff9ba",
            "difficulty" : "0x020000",
            "extraData" : "0x42",
            "gasLimit" : "0x10000804025c",
            "gasUsed" : "0x00",
            "hash" : "0xcc28dca95c1ec10931f86111e1e17710253af036e5a239323eb6feb26297f3b8",
            "mixHash" : "0x56e81f171bcc55a6ff8345e692c0f86e5b48e01b996cadc001622fb5e363b421",
            "nonce" : "0x0102030405060708",
            "number" : "0x00",
            "parentHash" : "0x0000000000000000000000000000000000000000000000000000000000000000",
            "receiptTrie" : "0x56e81f171bcc55a6ff8345e692c0f86e5b48e01b996cadc001622fb5e363b421",
            "stateRoot" : "0x310efbfaac24de5046adb3ae8b4b8b68e863fa00b7d4ed5c2365624741e2d626",
            "timestamp" : "0x03b6",
            "transactionsTrie" : "0x56e81f171bcc55a6ff8345e692c0f86e5b48e01b996cadc001622fb5e363b421",
            "uncleHash" : "0x1dcc4de8dec75d7aab85b567b6ccd41ad312451b948a7413f0a142fd40d49347"
        },
        "genesisRLP" : "0xf901fdf901f8a00000000000000000000000000000000000000000000000000000000000000000a01dcc4de8dec75d7aab85b567b6ccd41ad312451b948a7413f0a142fd40d49347942adc25665018aa1fe0e6bc666dac8fc2697ff9baa0310efbfaac24de5046adb3ae8b4b8b68e863fa00b7d4ed5c2365624741e2d626a056e81f171bcc55a6ff8345e692c0f86e5b48e01b996cadc001622fb5e363b421a056e81f171bcc55a6ff8345e692c0f86e5b48e01b996cadc001622fb5e363b421b901000000000000000000000000000000000000000000000000000000000000000000000000000000000000000000000000000000000000000000000000000000000000000000000000000000000000000000000000000000000000000000000000000000000000000000000000000000000000000000000000000000000000000000000000000000000000000000000000000000000000000000000000000000000000000000000000000000000000000000000000000000000000000000000000000000000000000000000000000000000000000000000000000000000000000000000000000000000000000000000000000000000000000000000000000000000083020000808610000804025c808203b642a056e81f171bcc55a6ff8345e692c0f86e5b48e01b996cadc001622fb5e363b421880102030405060708c0c0",
        "lastblockhash" : "0x181fe6e1ff6d68c9a6c3db0f7f530676e37c2b978f4d7a1628305c1b1169a062",
        "network" : "Metropolis",
        "postState" : {
            "0x00000000000000000000000000000000000000f0" : {
                "balance" : "0x00",
                "code" : "",
                "nonce" : "0x00",
                "storage" : {
                }
            },
            "0x0f572e5295c57f15886f9b263e2f6d2d6c7b5ec6" : {
                "balance" : "0x0de0b6b3a7640000",
                "code" : "0x64010000000051600155",
                "nonce" : "0x00",
                "storage" : {
                }
            },
            "0x2adc25665018aa1fe0e6bc666dac8fc2697ff9ba" : {
                "balance" : "0x4563918253dab280",
                "code" : "",
                "nonce" : "0x00",
                "storage" : {
                }
            },
            "0xa94f5374fce5edbc8e2a8697c15331677e6ebf0b" : {
                "balance" : "0xa00041416518",
                "code" : "",
                "nonce" : "0x01",
                "storage" : {
                }
            }
        },
        "pre" : {
            "0x0f572e5295c57f15886f9b263e2f6d2d6c7b5ec6" : {
                "balance" : "0x0de0b6b3a7640000",
                "code" : "0x64010000000051600155",
                "nonce" : "0x00",
                "storage" : {
                }
            },
            "0xa94f5374fce5edbc8e2a8697c15331677e6ebf0b" : {
                "balance" : "0xa00050281798",
                "code" : "",
                "nonce" : "0x00",
                "storage" : {
                }
            }
        }
    }
}