{
    "mload32bitBound_return_d0g1v0_Byzantium" : {
        "_info" : {
            "comment" : "",
            "filledwith" : "cpp-1.3.0+commit.e5cf5910.Linux.g++",
            "lllcversion" : "Version: 0.4.18-develop.2017.9.25+commit.a72237f2.Linux.g++",
            "source" : "src/BlockchainTestsFiller/GeneralStateTests/stMemoryStressTest/mload32bitBound_return_d0g1v0Filler.json"
        },
        "blocks" : [
            {
                "blockHeader" : {
                    "bloom" : "0x00000000000000000000000000000000000000000000000000000000000000000000000000000000000000000000000000000000000000000000000000000000000000000000000000000000000000000000000000000000000000000000000000000000000000000000000000000000000000000000000000000000000000000000000000000000000000000000000000000000000000000000000000000000000000000000000000000000000000000000000000000000000000000000000000000000000000000000000000000000000000000000000000000000000000000000000000000000000000000000000000000000000000000000000000000000",
                    "coinbase" : "0x2adc25665018aa1fe0e6bc666dac8fc2697ff9ba",
                    "difficulty" : "0x020000",
                    "extraData" : "",
                    "gasLimit" : "0x10000804025c",
                    "gasUsed" : "0x0ee6b280",
                    "hash" : "0x297810ca106449314e5c9c266236e2e21d917579c4e42996e1008b97c3915107",
                    "mixHash" : "0x32496f3967ef87b4f4518a46955360e29411e4a9f6ea2718e3fd1abc79e7f6a6",
                    "nonce" : "0x882ba3610911a9a0",
                    "number" : "0x01",
                    "parentHash" : "0x70753037c149ae82e839cbcaf793df0f0ff5fdef5154745cea1f0233fd762572",
                    "receiptTrie" : "0x27408083641cf20cfde86cd87cd57bf10c741d7553352ca96118e31ab8ceb9ce",
                    "stateRoot" : "0xad7e096e090ddae832c970fcb7eabf70f4392b14226ad48197b9141df4f4a311",
                    "timestamp" : "0x03e8",
                    "transactionsTrie" : "0x5541d17018d63fd9e66e96c406287f54f7ae7adc2dd235c272920763c0fadb3c",
                    "uncleHash" : "0x1dcc4de8dec75d7aab85b567b6ccd41ad312451b948a7413f0a142fd40d49347"
                },
                "rlp" : "0xf90265f901fca070753037c149ae82e839cbcaf793df0f0ff5fdef5154745cea1f0233fd762572a01dcc4de8dec75d7aab85b567b6ccd41ad312451b948a7413f0a142fd40d49347942adc25665018aa1fe0e6bc666dac8fc2697ff9baa0ad7e096e090ddae832c970fcb7eabf70f4392b14226ad48197b9141df4f4a311a05541d17018d63fd9e66e96c406287f54f7ae7adc2dd235c272920763c0fadb3ca027408083641cf20cfde86cd87cd57bf10c741d7553352ca96118e31ab8ceb9ceb901000000000000000000000000000000000000000000000000000000000000000000000000000000000000000000000000000000000000000000000000000000000000000000000000000000000000000000000000000000000000000000000000000000000000000000000000000000000000000000000000000000000000000000000000000000000000000000000000000000000000000000000000000000000000000000000000000000000000000000000000000000000000000000000000000000000000000000000000000000000000000000000000000000000000000000000000000000000000000000000000000000000000000000000000000000000083020000018610000804025c840ee6b2808203e880a032496f3967ef87b4f4518a46955360e29411e4a9f6ea2718e3fd1abc79e7f6a688882ba3610911a9a0f863f8618001840ee6b280940f572e5295c57f15886f9b263e2f6d2d6c7b5ec680801ca0d613ec50613fe382240f7879cf47a3f2b9f25420125f21c7ebde1461b7c05bd1a05f91ad651b06a2aa903199684a7385e9dc60c60a9d29dd1da6a7de177034f3a8c0",
                "transactions" : [
                    {
                        "data" : "",
                        "gasLimit" : "0x0ee6b280",
                        "gasPrice" : "0x01",
                        "nonce" : "0x00",
                        "r" : "0xd613ec50613fe382240f7879cf47a3f2b9f25420125f21c7ebde1461b7c05bd1",
                        "s" : "0x5f91ad651b06a2aa903199684a7385e9dc60c60a9d29dd1da6a7de177034f3a8",
                        "to" : "0x0f572e5295c57f15886f9b263e2f6d2d6c7b5ec6",
                        "v" : "0x1c",
                        "value" : "0x00"
                    }
                ],
                "uncleHeaders" : [
                ]
            }
        ],
        "genesisBlockHeader" : {
            "bloom" : "0x00000000000000000000000000000000000000000000000000000000000000000000000000000000000000000000000000000000000000000000000000000000000000000000000000000000000000000000000000000000000000000000000000000000000000000000000000000000000000000000000000000000000000000000000000000000000000000000000000000000000000000000000000000000000000000000000000000000000000000000000000000000000000000000000000000000000000000000000000000000000000000000000000000000000000000000000000000000000000000000000000000000000000000000000000000000",
            "coinbase" : "0x2adc25665018aa1fe0e6bc666dac8fc2697ff9ba",
            "difficulty" : "0x020000",
            "extraData" : "0x42",
            "gasLimit" : "0x10000804025c",
            "gasUsed" : "0x00",
            "hash" : "0x70753037c149ae82e839cbcaf793df0f0ff5fdef5154745cea1f0233fd762572",
            "mixHash" : "0x56e81f171bcc55a6ff8345e692c0f86e5b48e01b996cadc001622fb5e363b421",
            "nonce" : "0x0102030405060708",
            "number" : "0x00",
            "parentHash" : "0x0000000000000000000000000000000000000000000000000000000000000000",
            "receiptTrie" : "0x56e81f171bcc55a6ff8345e692c0f86e5b48e01b996cadc001622fb5e363b421",
            "stateRoot" : "0xad76a30bcf84e4ae9c515dfd9d5530b062b8fa4fe5b442d683ccb90d6ff9d6ab",
            "timestamp" : "0x03b6",
            "transactionsTrie" : "0x56e81f171bcc55a6ff8345e692c0f86e5b48e01b996cadc001622fb5e363b421",
            "uncleHash" : "0x1dcc4de8dec75d7aab85b567b6ccd41ad312451b948a7413f0a142fd40d49347"
        },
        "genesisRLP" : "0xf901fdf901f8a00000000000000000000000000000000000000000000000000000000000000000a01dcc4de8dec75d7aab85b567b6ccd41ad312451b948a7413f0a142fd40d49347942adc25665018aa1fe0e6bc666dac8fc2697ff9baa0ad76a30bcf84e4ae9c515dfd9d5530b062b8fa4fe5b442d683ccb90d6ff9d6aba056e81f171bcc55a6ff8345e692c0f86e5b48e01b996cadc001622fb5e363b421a056e81f171bcc55a6ff8345e692c0f86e5b48e01b996cadc001622fb5e363b421b901000000000000000000000000000000000000000000000000000000000000000000000000000000000000000000000000000000000000000000000000000000000000000000000000000000000000000000000000000000000000000000000000000000000000000000000000000000000000000000000000000000000000000000000000000000000000000000000000000000000000000000000000000000000000000000000000000000000000000000000000000000000000000000000000000000000000000000000000000000000000000000000000000000000000000000000000000000000000000000000000000000000000000000000000000000000083020000808610000804025c808203b642a056e81f171bcc55a6ff8345e692c0f86e5b48e01b996cadc001622fb5e363b421880102030405060708c0c0",
        "lastblockhash" : "0x297810ca106449314e5c9c266236e2e21d917579c4e42996e1008b97c3915107",
        "network" : "Byzantium",
        "postState" : {
            "0x0f572e5295c57f15886f9b263e2f6d2d6c7b5ec6" : {
                "balance" : "0x0de0b6b3a7640000",
                "code" : "0x63ffffffff6000f3",
                "nonce" : "0x00",
                "storage" : {
                }
            },
            "0x2adc25665018aa1fe0e6bc666dac8fc2697ff9ba" : {
                "balance" : "0x29a2241b0512b280",
                "code" : "",
                "nonce" : "0x00",
                "storage" : {
                }
            },
            "0xa94f5374fce5edbc8e2a8697c15331677e6ebf0b" : {
                "balance" : "0x186a0c3b0f32ef00",
                "code" : "",
                "nonce" : "0x01",
                "storage" : {
                }
            }
        },
        "pre" : {
            "0x0f572e5295c57f15886f9b263e2f6d2d6c7b5ec6" : {
                "balance" : "0x0de0b6b3a7640000",
                "code" : "0x63ffffffff6000f3",
                "nonce" : "0x00",
                "storage" : {
                }
            },
            "0xa94f5374fce5edbc8e2a8697c15331677e6ebf0b" : {
                "balance" : "0x186a0c3b1e19a180",
                "code" : "",
                "nonce" : "0x00",
                "storage" : {
                }
            }
        }
    },
    "mload32bitBound_return_d0g1v0_EIP150" : {
        "_info" : {
            "comment" : "",
            "filledwith" : "cpp-1.3.0+commit.e5cf5910.Linux.g++",
            "lllcversion" : "Version: 0.4.18-develop.2017.9.25+commit.a72237f2.Linux.g++",
            "source" : "src/BlockchainTestsFiller/GeneralStateTests/stMemoryStressTest/mload32bitBound_return_d0g1v0Filler.json"
        },
        "blocks" : [
            {
                "blockHeader" : {
                    "bloom" : "0x00000000000000000000000000000000000000000000000000000000000000000000000000000000000000000000000000000000000000000000000000000000000000000000000000000000000000000000000000000000000000000000000000000000000000000000000000000000000000000000000000000000000000000000000000000000000000000000000000000000000000000000000000000000000000000000000000000000000000000000000000000000000000000000000000000000000000000000000000000000000000000000000000000000000000000000000000000000000000000000000000000000000000000000000000000000",
                    "coinbase" : "0x2adc25665018aa1fe0e6bc666dac8fc2697ff9ba",
                    "difficulty" : "0x020000",
                    "extraData" : "",
                    "gasLimit" : "0x10000804025c",
                    "gasUsed" : "0x0ee6b280",
                    "hash" : "0x9a90cad7d99f525f58b424456cfe3180f1b2d3ffe23bb20bc5c77d2b0ee38c72",
                    "mixHash" : "0x5d96e6a7b4e593ffc108e2abb2f02f9b922be37cb01aad9fd1ffae88b30bad42",
                    "nonce" : "0x07ceaa86d1b824a6",
                    "number" : "0x01",
                    "parentHash" : "0x70753037c149ae82e839cbcaf793df0f0ff5fdef5154745cea1f0233fd762572",
                    "receiptTrie" : "0x05bb35a2be1110091bcd387bda6c6f2d860973498a1d06e2a35bc6aa11d56013",
                    "stateRoot" : "0xf6c30fa0635716b9edbbe669fe04cd90f84da1ddce3fdd9ad38e07b88234d48c",
                    "timestamp" : "0x03e8",
                    "transactionsTrie" : "0x5541d17018d63fd9e66e96c406287f54f7ae7adc2dd235c272920763c0fadb3c",
                    "uncleHash" : "0x1dcc4de8dec75d7aab85b567b6ccd41ad312451b948a7413f0a142fd40d49347"
                },
                "rlp" : "0xf90265f901fca070753037c149ae82e839cbcaf793df0f0ff5fdef5154745cea1f0233fd762572a01dcc4de8dec75d7aab85b567b6ccd41ad312451b948a7413f0a142fd40d49347942adc25665018aa1fe0e6bc666dac8fc2697ff9baa0f6c30fa0635716b9edbbe669fe04cd90f84da1ddce3fdd9ad38e07b88234d48ca05541d17018d63fd9e66e96c406287f54f7ae7adc2dd235c272920763c0fadb3ca005bb35a2be1110091bcd387bda6c6f2d860973498a1d06e2a35bc6aa11d56013b901000000000000000000000000000000000000000000000000000000000000000000000000000000000000000000000000000000000000000000000000000000000000000000000000000000000000000000000000000000000000000000000000000000000000000000000000000000000000000000000000000000000000000000000000000000000000000000000000000000000000000000000000000000000000000000000000000000000000000000000000000000000000000000000000000000000000000000000000000000000000000000000000000000000000000000000000000000000000000000000000000000000000000000000000000000000083020000018610000804025c840ee6b2808203e880a05d96e6a7b4e593ffc108e2abb2f02f9b922be37cb01aad9fd1ffae88b30bad428807ceaa86d1b824a6f863f8618001840ee6b280940f572e5295c57f15886f9b263e2f6d2d6c7b5ec680801ca0d613ec50613fe382240f7879cf47a3f2b9f25420125f21c7ebde1461b7c05bd1a05f91ad651b06a2aa903199684a7385e9dc60c60a9d29dd1da6a7de177034f3a8c0",
                "transactions" : [
                    {
                        "data" : "",
                        "gasLimit" : "0x0ee6b280",
                        "gasPrice" : "0x01",
                        "nonce" : "0x00",
                        "r" : "0xd613ec50613fe382240f7879cf47a3f2b9f25420125f21c7ebde1461b7c05bd1",
                        "s" : "0x5f91ad651b06a2aa903199684a7385e9dc60c60a9d29dd1da6a7de177034f3a8",
                        "to" : "0x0f572e5295c57f15886f9b263e2f6d2d6c7b5ec6",
                        "v" : "0x1c",
                        "value" : "0x00"
                    }
                ],
                "uncleHeaders" : [
                ]
            }
        ],
        "genesisBlockHeader" : {
            "bloom" : "0x00000000000000000000000000000000000000000000000000000000000000000000000000000000000000000000000000000000000000000000000000000000000000000000000000000000000000000000000000000000000000000000000000000000000000000000000000000000000000000000000000000000000000000000000000000000000000000000000000000000000000000000000000000000000000000000000000000000000000000000000000000000000000000000000000000000000000000000000000000000000000000000000000000000000000000000000000000000000000000000000000000000000000000000000000000000",
            "coinbase" : "0x2adc25665018aa1fe0e6bc666dac8fc2697ff9ba",
            "difficulty" : "0x020000",
            "extraData" : "0x42",
            "gasLimit" : "0x10000804025c",
            "gasUsed" : "0x00",
            "hash" : "0x70753037c149ae82e839cbcaf793df0f0ff5fdef5154745cea1f0233fd762572",
            "mixHash" : "0x56e81f171bcc55a6ff8345e692c0f86e5b48e01b996cadc001622fb5e363b421",
            "nonce" : "0x0102030405060708",
            "number" : "0x00",
            "parentHash" : "0x0000000000000000000000000000000000000000000000000000000000000000",
            "receiptTrie" : "0x56e81f171bcc55a6ff8345e692c0f86e5b48e01b996cadc001622fb5e363b421",
            "stateRoot" : "0xad76a30bcf84e4ae9c515dfd9d5530b062b8fa4fe5b442d683ccb90d6ff9d6ab",
            "timestamp" : "0x03b6",
            "transactionsTrie" : "0x56e81f171bcc55a6ff8345e692c0f86e5b48e01b996cadc001622fb5e363b421",
            "uncleHash" : "0x1dcc4de8dec75d7aab85b567b6ccd41ad312451b948a7413f0a142fd40d49347"
        },
        "genesisRLP" : "0xf901fdf901f8a00000000000000000000000000000000000000000000000000000000000000000a01dcc4de8dec75d7aab85b567b6ccd41ad312451b948a7413f0a142fd40d49347942adc25665018aa1fe0e6bc666dac8fc2697ff9baa0ad76a30bcf84e4ae9c515dfd9d5530b062b8fa4fe5b442d683ccb90d6ff9d6aba056e81f171bcc55a6ff8345e692c0f86e5b48e01b996cadc001622fb5e363b421a056e81f171bcc55a6ff8345e692c0f86e5b48e01b996cadc001622fb5e363b421b901000000000000000000000000000000000000000000000000000000000000000000000000000000000000000000000000000000000000000000000000000000000000000000000000000000000000000000000000000000000000000000000000000000000000000000000000000000000000000000000000000000000000000000000000000000000000000000000000000000000000000000000000000000000000000000000000000000000000000000000000000000000000000000000000000000000000000000000000000000000000000000000000000000000000000000000000000000000000000000000000000000000000000000000000000000000083020000808610000804025c808203b642a056e81f171bcc55a6ff8345e692c0f86e5b48e01b996cadc001622fb5e363b421880102030405060708c0c0",
        "lastblockhash" : "0x9a90cad7d99f525f58b424456cfe3180f1b2d3ffe23bb20bc5c77d2b0ee38c72",
        "network" : "EIP150",
        "postState" : {
            "0x0f572e5295c57f15886f9b263e2f6d2d6c7b5ec6" : {
                "balance" : "0x0de0b6b3a7640000",
                "code" : "0x63ffffffff6000f3",
                "nonce" : "0x00",
                "storage" : {
                }
            },
            "0x2adc25665018aa1fe0e6bc666dac8fc2697ff9ba" : {
                "balance" : "0x4563918253dab280",
                "code" : "",
                "nonce" : "0x00",
                "storage" : {
                }
            },
            "0xa94f5374fce5edbc8e2a8697c15331677e6ebf0b" : {
                "balance" : "0x186a0c3b0f32ef00",
                "code" : "",
                "nonce" : "0x01",
                "storage" : {
                }
            }
        },
        "pre" : {
            "0x0f572e5295c57f15886f9b263e2f6d2d6c7b5ec6" : {
                "balance" : "0x0de0b6b3a7640000",
                "code" : "0x63ffffffff6000f3",
                "nonce" : "0x00",
                "storage" : {
                }
            },
            "0xa94f5374fce5edbc8e2a8697c15331677e6ebf0b" : {
                "balance" : "0x186a0c3b1e19a180",
                "code" : "",
                "nonce" : "0x00",
                "storage" : {
                }
            }
        }
    },
    "mload32bitBound_return_d0g1v0_EIP158" : {
        "_info" : {
            "comment" : "",
            "filledwith" : "cpp-1.3.0+commit.e5cf5910.Linux.g++",
            "lllcversion" : "Version: 0.4.18-develop.2017.9.25+commit.a72237f2.Linux.g++",
            "source" : "src/BlockchainTestsFiller/GeneralStateTests/stMemoryStressTest/mload32bitBound_return_d0g1v0Filler.json"
        },
        "blocks" : [
            {
                "blockHeader" : {
                    "bloom" : "0x00000000000000000000000000000000000000000000000000000000000000000000000000000000000000000000000000000000000000000000000000000000000000000000000000000000000000000000000000000000000000000000000000000000000000000000000000000000000000000000000000000000000000000000000000000000000000000000000000000000000000000000000000000000000000000000000000000000000000000000000000000000000000000000000000000000000000000000000000000000000000000000000000000000000000000000000000000000000000000000000000000000000000000000000000000000",
                    "coinbase" : "0x2adc25665018aa1fe0e6bc666dac8fc2697ff9ba",
                    "difficulty" : "0x020000",
                    "extraData" : "",
                    "gasLimit" : "0x10000804025c",
                    "gasUsed" : "0x0ee6b280",
                    "hash" : "0xa566d8bfaf34f39f077dfc797e9140cd83fe976c58972bfe32bcf50d908d03ce",
                    "mixHash" : "0xe745e2b5e9f48265ac31248295788819a10df9911c4d610aadddb1ef872617ea",
                    "nonce" : "0xdfad87f9038d27d6",
                    "number" : "0x01",
                    "parentHash" : "0x70753037c149ae82e839cbcaf793df0f0ff5fdef5154745cea1f0233fd762572",
                    "receiptTrie" : "0x05bb35a2be1110091bcd387bda6c6f2d860973498a1d06e2a35bc6aa11d56013",
                    "stateRoot" : "0xf6c30fa0635716b9edbbe669fe04cd90f84da1ddce3fdd9ad38e07b88234d48c",
                    "timestamp" : "0x03e8",
                    "transactionsTrie" : "0x5541d17018d63fd9e66e96c406287f54f7ae7adc2dd235c272920763c0fadb3c",
                    "uncleHash" : "0x1dcc4de8dec75d7aab85b567b6ccd41ad312451b948a7413f0a142fd40d49347"
                },
                "rlp" : "0xf90265f901fca070753037c149ae82e839cbcaf793df0f0ff5fdef5154745cea1f0233fd762572a01dcc4de8dec75d7aab85b567b6ccd41ad312451b948a7413f0a142fd40d49347942adc25665018aa1fe0e6bc666dac8fc2697ff9baa0f6c30fa0635716b9edbbe669fe04cd90f84da1ddce3fdd9ad38e07b88234d48ca05541d17018d63fd9e66e96c406287f54f7ae7adc2dd235c272920763c0fadb3ca005bb35a2be1110091bcd387bda6c6f2d860973498a1d06e2a35bc6aa11d56013b901000000000000000000000000000000000000000000000000000000000000000000000000000000000000000000000000000000000000000000000000000000000000000000000000000000000000000000000000000000000000000000000000000000000000000000000000000000000000000000000000000000000000000000000000000000000000000000000000000000000000000000000000000000000000000000000000000000000000000000000000000000000000000000000000000000000000000000000000000000000000000000000000000000000000000000000000000000000000000000000000000000000000000000000000000000000083020000018610000804025c840ee6b2808203e880a0e745e2b5e9f48265ac31248295788819a10df9911c4d610aadddb1ef872617ea88dfad87f9038d27d6f863f8618001840ee6b280940f572e5295c57f15886f9b263e2f6d2d6c7b5ec680801ca0d613ec50613fe382240f7879cf47a3f2b9f25420125f21c7ebde1461b7c05bd1a05f91ad651b06a2aa903199684a7385e9dc60c60a9d29dd1da6a7de177034f3a8c0",
                "transactions" : [
                    {
                        "data" : "",
                        "gasLimit" : "0x0ee6b280",
                        "gasPrice" : "0x01",
                        "nonce" : "0x00",
                        "r" : "0xd613ec50613fe382240f7879cf47a3f2b9f25420125f21c7ebde1461b7c05bd1",
                        "s" : "0x5f91ad651b06a2aa903199684a7385e9dc60c60a9d29dd1da6a7de177034f3a8",
                        "to" : "0x0f572e5295c57f15886f9b263e2f6d2d6c7b5ec6",
                        "v" : "0x1c",
                        "value" : "0x00"
                    }
                ],
                "uncleHeaders" : [
                ]
            }
        ],
        "genesisBlockHeader" : {
            "bloom" : "0x00000000000000000000000000000000000000000000000000000000000000000000000000000000000000000000000000000000000000000000000000000000000000000000000000000000000000000000000000000000000000000000000000000000000000000000000000000000000000000000000000000000000000000000000000000000000000000000000000000000000000000000000000000000000000000000000000000000000000000000000000000000000000000000000000000000000000000000000000000000000000000000000000000000000000000000000000000000000000000000000000000000000000000000000000000000",
            "coinbase" : "0x2adc25665018aa1fe0e6bc666dac8fc2697ff9ba",
            "difficulty" : "0x020000",
            "extraData" : "0x42",
            "gasLimit" : "0x10000804025c",
            "gasUsed" : "0x00",
            "hash" : "0x70753037c149ae82e839cbcaf793df0f0ff5fdef5154745cea1f0233fd762572",
            "mixHash" : "0x56e81f171bcc55a6ff8345e692c0f86e5b48e01b996cadc001622fb5e363b421",
            "nonce" : "0x0102030405060708",
            "number" : "0x00",
            "parentHash" : "0x0000000000000000000000000000000000000000000000000000000000000000",
            "receiptTrie" : "0x56e81f171bcc55a6ff8345e692c0f86e5b48e01b996cadc001622fb5e363b421",
            "stateRoot" : "0xad76a30bcf84e4ae9c515dfd9d5530b062b8fa4fe5b442d683ccb90d6ff9d6ab",
            "timestamp" : "0x03b6",
            "transactionsTrie" : "0x56e81f171bcc55a6ff8345e692c0f86e5b48e01b996cadc001622fb5e363b421",
            "uncleHash" : "0x1dcc4de8dec75d7aab85b567b6ccd41ad312451b948a7413f0a142fd40d49347"
        },
        "genesisRLP" : "0xf901fdf901f8a00000000000000000000000000000000000000000000000000000000000000000a01dcc4de8dec75d7aab85b567b6ccd41ad312451b948a7413f0a142fd40d49347942adc25665018aa1fe0e6bc666dac8fc2697ff9baa0ad76a30bcf84e4ae9c515dfd9d5530b062b8fa4fe5b442d683ccb90d6ff9d6aba056e81f171bcc55a6ff8345e692c0f86e5b48e01b996cadc001622fb5e363b421a056e81f171bcc55a6ff8345e692c0f86e5b48e01b996cadc001622fb5e363b421b901000000000000000000000000000000000000000000000000000000000000000000000000000000000000000000000000000000000000000000000000000000000000000000000000000000000000000000000000000000000000000000000000000000000000000000000000000000000000000000000000000000000000000000000000000000000000000000000000000000000000000000000000000000000000000000000000000000000000000000000000000000000000000000000000000000000000000000000000000000000000000000000000000000000000000000000000000000000000000000000000000000000000000000000000000000000083020000808610000804025c808203b642a056e81f171bcc55a6ff8345e692c0f86e5b48e01b996cadc001622fb5e363b421880102030405060708c0c0",
        "lastblockhash" : "0xa566d8bfaf34f39f077dfc797e9140cd83fe976c58972bfe32bcf50d908d03ce",
        "network" : "EIP158",
        "postState" : {
            "0x0f572e5295c57f15886f9b263e2f6d2d6c7b5ec6" : {
                "balance" : "0x0de0b6b3a7640000",
                "code" : "0x63ffffffff6000f3",
                "nonce" : "0x00",
                "storage" : {
                }
            },
            "0x2adc25665018aa1fe0e6bc666dac8fc2697ff9ba" : {
                "balance" : "0x4563918253dab280",
                "code" : "",
                "nonce" : "0x00",
                "storage" : {
                }
            },
            "0xa94f5374fce5edbc8e2a8697c15331677e6ebf0b" : {
                "balance" : "0x186a0c3b0f32ef00",
                "code" : "",
                "nonce" : "0x01",
                "storage" : {
                }
            }
        },
        "pre" : {
            "0x0f572e5295c57f15886f9b263e2f6d2d6c7b5ec6" : {
                "balance" : "0x0de0b6b3a7640000",
                "code" : "0x63ffffffff6000f3",
                "nonce" : "0x00",
                "storage" : {
                }
            },
            "0xa94f5374fce5edbc8e2a8697c15331677e6ebf0b" : {
                "balance" : "0x186a0c3b1e19a180",
                "code" : "",
                "nonce" : "0x00",
                "storage" : {
                }
            }
        }
    },
    "mload32bitBound_return_d0g1v0_Frontier" : {
        "_info" : {
            "comment" : "",
            "filledwith" : "cpp-1.3.0+commit.e5cf5910.Linux.g++",
            "lllcversion" : "Version: 0.4.18-develop.2017.9.25+commit.a72237f2.Linux.g++",
            "source" : "src/BlockchainTestsFiller/GeneralStateTests/stMemoryStressTest/mload32bitBound_return_d0g1v0Filler.json"
        },
        "blocks" : [
            {
                "blockHeader" : {
                    "bloom" : "0x00000000000000000000000000000000000000000000000000000000000000000000000000000000000000000000000000000000000000000000000000000000000000000000000000000000000000000000000000000000000000000000000000000000000000000000000000000000000000000000000000000000000000000000000000000000000000000000000000000000000000000000000000000000000000000000000000000000000000000000000000000000000000000000000000000000000000000000000000000000000000000000000000000000000000000000000000000000000000000000000000000000000000000000000000000000",
                    "coinbase" : "0x2adc25665018aa1fe0e6bc666dac8fc2697ff9ba",
                    "difficulty" : "0x020000",
                    "extraData" : "",
                    "gasLimit" : "0x10000804025c",
                    "gasUsed" : "0x0ee6b280",
                    "hash" : "0xf586e71d5c0789348d347c4de7887c2ec700b9436ec79e60206fd7f064024054",
                    "mixHash" : "0x093e056f052bf5fe28b2feea6a24b7459c13f0c07e9d16c98313ec6251c3001e",
                    "nonce" : "0x7bf8c8d9643bfbaf",
                    "number" : "0x01",
                    "parentHash" : "0x70753037c149ae82e839cbcaf793df0f0ff5fdef5154745cea1f0233fd762572",
                    "receiptTrie" : "0x05bb35a2be1110091bcd387bda6c6f2d860973498a1d06e2a35bc6aa11d56013",
                    "stateRoot" : "0xf6c30fa0635716b9edbbe669fe04cd90f84da1ddce3fdd9ad38e07b88234d48c",
                    "timestamp" : "0x03e8",
                    "transactionsTrie" : "0x5541d17018d63fd9e66e96c406287f54f7ae7adc2dd235c272920763c0fadb3c",
                    "uncleHash" : "0x1dcc4de8dec75d7aab85b567b6ccd41ad312451b948a7413f0a142fd40d49347"
                },
                "rlp" : "0xf90265f901fca070753037c149ae82e839cbcaf793df0f0ff5fdef5154745cea1f0233fd762572a01dcc4de8dec75d7aab85b567b6ccd41ad312451b948a7413f0a142fd40d49347942adc25665018aa1fe0e6bc666dac8fc2697ff9baa0f6c30fa0635716b9edbbe669fe04cd90f84da1ddce3fdd9ad38e07b88234d48ca05541d17018d63fd9e66e96c406287f54f7ae7adc2dd235c272920763c0fadb3ca005bb35a2be1110091bcd387bda6c6f2d860973498a1d06e2a35bc6aa11d56013b901000000000000000000000000000000000000000000000000000000000000000000000000000000000000000000000000000000000000000000000000000000000000000000000000000000000000000000000000000000000000000000000000000000000000000000000000000000000000000000000000000000000000000000000000000000000000000000000000000000000000000000000000000000000000000000000000000000000000000000000000000000000000000000000000000000000000000000000000000000000000000000000000000000000000000000000000000000000000000000000000000000000000000000000000000000000083020000018610000804025c840ee6b2808203e880a0093e056f052bf5fe28b2feea6a24b7459c13f0c07e9d16c98313ec6251c3001e887bf8c8d9643bfbaff863f8618001840ee6b280940f572e5295c57f15886f9b263e2f6d2d6c7b5ec680801ca0d613ec50613fe382240f7879cf47a3f2b9f25420125f21c7ebde1461b7c05bd1a05f91ad651b06a2aa903199684a7385e9dc60c60a9d29dd1da6a7de177034f3a8c0",
                "transactions" : [
                    {
                        "data" : "",
                        "gasLimit" : "0x0ee6b280",
                        "gasPrice" : "0x01",
                        "nonce" : "0x00",
                        "r" : "0xd613ec50613fe382240f7879cf47a3f2b9f25420125f21c7ebde1461b7c05bd1",
                        "s" : "0x5f91ad651b06a2aa903199684a7385e9dc60c60a9d29dd1da6a7de177034f3a8",
                        "to" : "0x0f572e5295c57f15886f9b263e2f6d2d6c7b5ec6",
                        "v" : "0x1c",
                        "value" : "0x00"
                    }
                ],
                "uncleHeaders" : [
                ]
            }
        ],
        "genesisBlockHeader" : {
            "bloom" : "0x00000000000000000000000000000000000000000000000000000000000000000000000000000000000000000000000000000000000000000000000000000000000000000000000000000000000000000000000000000000000000000000000000000000000000000000000000000000000000000000000000000000000000000000000000000000000000000000000000000000000000000000000000000000000000000000000000000000000000000000000000000000000000000000000000000000000000000000000000000000000000000000000000000000000000000000000000000000000000000000000000000000000000000000000000000000",
            "coinbase" : "0x2adc25665018aa1fe0e6bc666dac8fc2697ff9ba",
            "difficulty" : "0x020000",
            "extraData" : "0x42",
            "gasLimit" : "0x10000804025c",
            "gasUsed" : "0x00",
            "hash" : "0x70753037c149ae82e839cbcaf793df0f0ff5fdef5154745cea1f0233fd762572",
            "mixHash" : "0x56e81f171bcc55a6ff8345e692c0f86e5b48e01b996cadc001622fb5e363b421",
            "nonce" : "0x0102030405060708",
            "number" : "0x00",
            "parentHash" : "0x0000000000000000000000000000000000000000000000000000000000000000",
            "receiptTrie" : "0x56e81f171bcc55a6ff8345e692c0f86e5b48e01b996cadc001622fb5e363b421",
            "stateRoot" : "0xad76a30bcf84e4ae9c515dfd9d5530b062b8fa4fe5b442d683ccb90d6ff9d6ab",
            "timestamp" : "0x03b6",
            "transactionsTrie" : "0x56e81f171bcc55a6ff8345e692c0f86e5b48e01b996cadc001622fb5e363b421",
            "uncleHash" : "0x1dcc4de8dec75d7aab85b567b6ccd41ad312451b948a7413f0a142fd40d49347"
        },
        "genesisRLP" : "0xf901fdf901f8a00000000000000000000000000000000000000000000000000000000000000000a01dcc4de8dec75d7aab85b567b6ccd41ad312451b948a7413f0a142fd40d49347942adc25665018aa1fe0e6bc666dac8fc2697ff9baa0ad76a30bcf84e4ae9c515dfd9d5530b062b8fa4fe5b442d683ccb90d6ff9d6aba056e81f171bcc55a6ff8345e692c0f86e5b48e01b996cadc001622fb5e363b421a056e81f171bcc55a6ff8345e692c0f86e5b48e01b996cadc001622fb5e363b421b901000000000000000000000000000000000000000000000000000000000000000000000000000000000000000000000000000000000000000000000000000000000000000000000000000000000000000000000000000000000000000000000000000000000000000000000000000000000000000000000000000000000000000000000000000000000000000000000000000000000000000000000000000000000000000000000000000000000000000000000000000000000000000000000000000000000000000000000000000000000000000000000000000000000000000000000000000000000000000000000000000000000000000000000000000000000083020000808610000804025c808203b642a056e81f171bcc55a6ff8345e692c0f86e5b48e01b996cadc001622fb5e363b421880102030405060708c0c0",
        "lastblockhash" : "0xf586e71d5c0789348d347c4de7887c2ec700b9436ec79e60206fd7f064024054",
        "network" : "Frontier",
        "postState" : {
            "0x0f572e5295c57f15886f9b263e2f6d2d6c7b5ec6" : {
                "balance" : "0x0de0b6b3a7640000",
                "code" : "0x63ffffffff6000f3",
                "nonce" : "0x00",
                "storage" : {
                }
            },
            "0x2adc25665018aa1fe0e6bc666dac8fc2697ff9ba" : {
                "balance" : "0x4563918253dab280",
                "code" : "",
                "nonce" : "0x00",
                "storage" : {
                }
            },
            "0xa94f5374fce5edbc8e2a8697c15331677e6ebf0b" : {
                "balance" : "0x186a0c3b0f32ef00",
                "code" : "",
                "nonce" : "0x01",
                "storage" : {
                }
            }
        },
        "pre" : {
            "0x0f572e5295c57f15886f9b263e2f6d2d6c7b5ec6" : {
                "balance" : "0x0de0b6b3a7640000",
                "code" : "0x63ffffffff6000f3",
                "nonce" : "0x00",
                "storage" : {
                }
            },
            "0xa94f5374fce5edbc8e2a8697c15331677e6ebf0b" : {
                "balance" : "0x186a0c3b1e19a180",
                "code" : "",
                "nonce" : "0x00",
                "storage" : {
                }
            }
        }
    },
    "mload32bitBound_return_d0g1v0_Homestead" : {
        "_info" : {
            "comment" : "",
            "filledwith" : "cpp-1.3.0+commit.e5cf5910.Linux.g++",
            "lllcversion" : "Version: 0.4.18-develop.2017.9.25+commit.a72237f2.Linux.g++",
            "source" : "src/BlockchainTestsFiller/GeneralStateTests/stMemoryStressTest/mload32bitBound_return_d0g1v0Filler.json"
        },
        "blocks" : [
            {
                "blockHeader" : {
                    "bloom" : "0x00000000000000000000000000000000000000000000000000000000000000000000000000000000000000000000000000000000000000000000000000000000000000000000000000000000000000000000000000000000000000000000000000000000000000000000000000000000000000000000000000000000000000000000000000000000000000000000000000000000000000000000000000000000000000000000000000000000000000000000000000000000000000000000000000000000000000000000000000000000000000000000000000000000000000000000000000000000000000000000000000000000000000000000000000000000",
                    "coinbase" : "0x2adc25665018aa1fe0e6bc666dac8fc2697ff9ba",
                    "difficulty" : "0x020000",
                    "extraData" : "",
                    "gasLimit" : "0x10000804025c",
                    "gasUsed" : "0x0ee6b280",
                    "hash" : "0xf34115faa17e6bc836e8d3a45330c32841a617125450812ddae98e8547e9807b",
                    "mixHash" : "0x5249cfcc9447ff45c15e691d841010d24ebfd9fd673c78f86cefd555b5724b2c",
                    "nonce" : "0xd5e3cb384c2136aa",
                    "number" : "0x01",
                    "parentHash" : "0x70753037c149ae82e839cbcaf793df0f0ff5fdef5154745cea1f0233fd762572",
                    "receiptTrie" : "0x05bb35a2be1110091bcd387bda6c6f2d860973498a1d06e2a35bc6aa11d56013",
                    "stateRoot" : "0xf6c30fa0635716b9edbbe669fe04cd90f84da1ddce3fdd9ad38e07b88234d48c",
                    "timestamp" : "0x03e8",
                    "transactionsTrie" : "0x5541d17018d63fd9e66e96c406287f54f7ae7adc2dd235c272920763c0fadb3c",
                    "uncleHash" : "0x1dcc4de8dec75d7aab85b567b6ccd41ad312451b948a7413f0a142fd40d49347"
                },
                "rlp" : "0xf90265f901fca070753037c149ae82e839cbcaf793df0f0ff5fdef5154745cea1f0233fd762572a01dcc4de8dec75d7aab85b567b6ccd41ad312451b948a7413f0a142fd40d49347942adc25665018aa1fe0e6bc666dac8fc2697ff9baa0f6c30fa0635716b9edbbe669fe04cd90f84da1ddce3fdd9ad38e07b88234d48ca05541d17018d63fd9e66e96c406287f54f7ae7adc2dd235c272920763c0fadb3ca005bb35a2be1110091bcd387bda6c6f2d860973498a1d06e2a35bc6aa11d56013b901000000000000000000000000000000000000000000000000000000000000000000000000000000000000000000000000000000000000000000000000000000000000000000000000000000000000000000000000000000000000000000000000000000000000000000000000000000000000000000000000000000000000000000000000000000000000000000000000000000000000000000000000000000000000000000000000000000000000000000000000000000000000000000000000000000000000000000000000000000000000000000000000000000000000000000000000000000000000000000000000000000000000000000000000000000000083020000018610000804025c840ee6b2808203e880a05249cfcc9447ff45c15e691d841010d24ebfd9fd673c78f86cefd555b5724b2c88d5e3cb384c2136aaf863f8618001840ee6b280940f572e5295c57f15886f9b263e2f6d2d6c7b5ec680801ca0d613ec50613fe382240f7879cf47a3f2b9f25420125f21c7ebde1461b7c05bd1a05f91ad651b06a2aa903199684a7385e9dc60c60a9d29dd1da6a7de177034f3a8c0",
                "transactions" : [
                    {
                        "data" : "",
                        "gasLimit" : "0x0ee6b280",
                        "gasPrice" : "0x01",
                        "nonce" : "0x00",
                        "r" : "0xd613ec50613fe382240f7879cf47a3f2b9f25420125f21c7ebde1461b7c05bd1",
                        "s" : "0x5f91ad651b06a2aa903199684a7385e9dc60c60a9d29dd1da6a7de177034f3a8",
                        "to" : "0x0f572e5295c57f15886f9b263e2f6d2d6c7b5ec6",
                        "v" : "0x1c",
                        "value" : "0x00"
                    }
                ],
                "uncleHeaders" : [
                ]
            }
        ],
        "genesisBlockHeader" : {
            "bloom" : "0x00000000000000000000000000000000000000000000000000000000000000000000000000000000000000000000000000000000000000000000000000000000000000000000000000000000000000000000000000000000000000000000000000000000000000000000000000000000000000000000000000000000000000000000000000000000000000000000000000000000000000000000000000000000000000000000000000000000000000000000000000000000000000000000000000000000000000000000000000000000000000000000000000000000000000000000000000000000000000000000000000000000000000000000000000000000",
            "coinbase" : "0x2adc25665018aa1fe0e6bc666dac8fc2697ff9ba",
            "difficulty" : "0x020000",
            "extraData" : "0x42",
            "gasLimit" : "0x10000804025c",
            "gasUsed" : "0x00",
            "hash" : "0x70753037c149ae82e839cbcaf793df0f0ff5fdef5154745cea1f0233fd762572",
            "mixHash" : "0x56e81f171bcc55a6ff8345e692c0f86e5b48e01b996cadc001622fb5e363b421",
            "nonce" : "0x0102030405060708",
            "number" : "0x00",
            "parentHash" : "0x0000000000000000000000000000000000000000000000000000000000000000",
            "receiptTrie" : "0x56e81f171bcc55a6ff8345e692c0f86e5b48e01b996cadc001622fb5e363b421",
            "stateRoot" : "0xad76a30bcf84e4ae9c515dfd9d5530b062b8fa4fe5b442d683ccb90d6ff9d6ab",
            "timestamp" : "0x03b6",
            "transactionsTrie" : "0x56e81f171bcc55a6ff8345e692c0f86e5b48e01b996cadc001622fb5e363b421",
            "uncleHash" : "0x1dcc4de8dec75d7aab85b567b6ccd41ad312451b948a7413f0a142fd40d49347"
        },
        "genesisRLP" : "0xf901fdf901f8a00000000000000000000000000000000000000000000000000000000000000000a01dcc4de8dec75d7aab85b567b6ccd41ad312451b948a7413f0a142fd40d49347942adc25665018aa1fe0e6bc666dac8fc2697ff9baa0ad76a30bcf84e4ae9c515dfd9d5530b062b8fa4fe5b442d683ccb90d6ff9d6aba056e81f171bcc55a6ff8345e692c0f86e5b48e01b996cadc001622fb5e363b421a056e81f171bcc55a6ff8345e692c0f86e5b48e01b996cadc001622fb5e363b421b901000000000000000000000000000000000000000000000000000000000000000000000000000000000000000000000000000000000000000000000000000000000000000000000000000000000000000000000000000000000000000000000000000000000000000000000000000000000000000000000000000000000000000000000000000000000000000000000000000000000000000000000000000000000000000000000000000000000000000000000000000000000000000000000000000000000000000000000000000000000000000000000000000000000000000000000000000000000000000000000000000000000000000000000000000000000083020000808610000804025c808203b642a056e81f171bcc55a6ff8345e692c0f86e5b48e01b996cadc001622fb5e363b421880102030405060708c0c0",
        "lastblockhash" : "0xf34115faa17e6bc836e8d3a45330c32841a617125450812ddae98e8547e9807b",
        "network" : "Homestead",
        "postState" : {
            "0x0f572e5295c57f15886f9b263e2f6d2d6c7b5ec6" : {
                "balance" : "0x0de0b6b3a7640000",
                "code" : "0x63ffffffff6000f3",
                "nonce" : "0x00",
                "storage" : {
                }
            },
            "0x2adc25665018aa1fe0e6bc666dac8fc2697ff9ba" : {
                "balance" : "0x4563918253dab280",
                "code" : "",
                "nonce" : "0x00",
                "storage" : {
                }
            },
            "0xa94f5374fce5edbc8e2a8697c15331677e6ebf0b" : {
                "balance" : "0x186a0c3b0f32ef00",
                "code" : "",
                "nonce" : "0x01",
                "storage" : {
                }
            }
        },
        "pre" : {
            "0x0f572e5295c57f15886f9b263e2f6d2d6c7b5ec6" : {
                "balance" : "0x0de0b6b3a7640000",
                "code" : "0x63ffffffff6000f3",
                "nonce" : "0x00",
                "storage" : {
                }
            },
            "0xa94f5374fce5edbc8e2a8697c15331677e6ebf0b" : {
                "balance" : "0x186a0c3b1e19a180",
                "code" : "",
                "nonce" : "0x00",
                "storage" : {
                }
            }
        }
    }
}