{
    "ZeroValue_DELEGATECALL_ToEmpty_OOGRevert_d0g0v0_Berlin" : {
        "_info" : {
            "comment" : "",
            "filling-rpc-server" : "evm version 1.11.4-unstable-e14043db-20230308",
            "filling-tool-version" : "retesteth-0.3.0-shanghai+commit.fd2c0a83.Linux.g++",
            "generatedTestHash" : "ee3e23eb08ac6bbc74173ebcd2b84103b96b8ed735508e716e9fb96d7225ce52",
            "lllcversion" : "Version: 0.5.14-develop.2022.7.30+commit.a096d7a9.Linux.g++",
            "solidity" : "Version: 0.8.17+commit.8df45f5f.Linux.g++",
            "source" : "src/GeneralStateTestsFiller/stZeroCallsRevert/ZeroValue_DELEGATECALL_ToEmpty_OOGRevertFiller.json",
            "sourceHash" : "14e152669ab5e184cdc0a563d42099dc085b0622893ab9cdfbbaac166c548265"
        },
        "blocks" : [
            {
                "blockHeader" : {
                    "bloom" : "0x00000000000000000000000000000000000000000000000000000000000000000000000000000000000000000000000000000000000000000000000000000000000000000000000000000000000000000000000000000000000000000000000000000000000000000000000000000000000000000000000000000000000000000000000000000000000000000000000000000000000000000000000000000000000000000000000000000000000000000000000000000000000000000000000000000000000000000000000000000000000000000000000000000000000000000000000000000000000000000000000000000000000000000000000000000000",
                    "coinbase" : "0x2adc25665018aa1fe0e6bc666dac8fc2697ff9ba",
                    "difficulty" : "0x020000",
                    "extraData" : "0x00",
                    "gasLimit" : "0x989680",
                    "gasUsed" : "0x020f58",
                    "hash" : "0x6ec154b5eeb0a699ca05e1879a6154a20f34c42444139b946c5794047c544e52",
                    "mixHash" : "0x0000000000000000000000000000000000000000000000000000000000000000",
                    "nonce" : "0x0000000000000000",
                    "number" : "0x01",
                    "parentHash" : "0x353a072ae952615e95856ce798be16e565764d17dfe72754939b21f0408fe1f7",
                    "receiptTrie" : "0x54eeafc8891222b787b9c9bfab7e0d99866447dad965b012fa2e09404455ec9d",
                    "stateRoot" : "0xf96f59796bb9b3d49aecbacdfd5d7df336fca624c77c61059d38480306593cf9",
                    "timestamp" : "0x03e8",
                    "transactionsTrie" : "0x8c35ff34cd4e46d0b8b35470ff86e248b55cdcaf96e473d3f028cf677e999907",
                    "uncleHash" : "0x1dcc4de8dec75d7aab85b567b6ccd41ad312451b948a7413f0a142fd40d49347"
                },
                "rlp" : "0xf90260f901f8a0353a072ae952615e95856ce798be16e565764d17dfe72754939b21f0408fe1f7a01dcc4de8dec75d7aab85b567b6ccd41ad312451b948a7413f0a142fd40d49347942adc25665018aa1fe0e6bc666dac8fc2697ff9baa0f96f59796bb9b3d49aecbacdfd5d7df336fca624c77c61059d38480306593cf9a08c35ff34cd4e46d0b8b35470ff86e248b55cdcaf96e473d3f028cf677e999907a054eeafc8891222b787b9c9bfab7e0d99866447dad965b012fa2e09404455ec9db901000000000000000000000000000000000000000000000000000000000000000000000000000000000000000000000000000000000000000000000000000000000000000000000000000000000000000000000000000000000000000000000000000000000000000000000000000000000000000000000000000000000000000000000000000000000000000000000000000000000000000000000000000000000000000000000000000000000000000000000000000000000000000000000000000000000000000000000000000000000000000000000000000000000000000000000000000000000000000000000000000000000000000000000000000000000083020000018398968083020f588203e800a00000000000000000000000000000000000000000000000000000000000000000880000000000000000f862f860800a83020f5894b94f5374fce5edbc8e2a8697c15331677e6ebf0b80801ca0de453887fe76fd616009849fd98ced156de68a1519b79d9197d6c0200f554ffea047b27910a2ab14d1fd8d826b58c770f18ba9d472c6660cffe01d86b7bf973766c0",
                "transactions" : [
                    {
                        "data" : "0x",
                        "gasLimit" : "0x020f58",
                        "gasPrice" : "0x0a",
                        "nonce" : "0x00",
                        "r" : "0xde453887fe76fd616009849fd98ced156de68a1519b79d9197d6c0200f554ffe",
                        "s" : "0x47b27910a2ab14d1fd8d826b58c770f18ba9d472c6660cffe01d86b7bf973766",
                        "sender" : "0xa94f5374fce5edbc8e2a8697c15331677e6ebf0b",
                        "to" : "0xb94f5374fce5edbc8e2a8697c15331677e6ebf0b",
                        "v" : "0x1c",
                        "value" : "0x00"
                    }
                ],
                "uncleHeaders" : [
                ]
            }
        ],
        "genesisBlockHeader" : {
            "bloom" : "0x00000000000000000000000000000000000000000000000000000000000000000000000000000000000000000000000000000000000000000000000000000000000000000000000000000000000000000000000000000000000000000000000000000000000000000000000000000000000000000000000000000000000000000000000000000000000000000000000000000000000000000000000000000000000000000000000000000000000000000000000000000000000000000000000000000000000000000000000000000000000000000000000000000000000000000000000000000000000000000000000000000000000000000000000000000000",
            "coinbase" : "0x2adc25665018aa1fe0e6bc666dac8fc2697ff9ba",
            "difficulty" : "0x020000",
            "extraData" : "0x00",
            "gasLimit" : "0x989680",
            "gasUsed" : "0x00",
            "hash" : "0x353a072ae952615e95856ce798be16e565764d17dfe72754939b21f0408fe1f7",
            "mixHash" : "0x0000000000000000000000000000000000000000000000000000000000000000",
            "nonce" : "0x0000000000000000",
            "number" : "0x00",
            "parentHash" : "0x0000000000000000000000000000000000000000000000000000000000000000",
            "receiptTrie" : "0x56e81f171bcc55a6ff8345e692c0f86e5b48e01b996cadc001622fb5e363b421",
            "stateRoot" : "0xdb41a3fed177678e79a2165657b2507439a9bc7629f7ee0014a168ce8dde1fcc",
            "timestamp" : "0x00",
            "transactionsTrie" : "0x56e81f171bcc55a6ff8345e692c0f86e5b48e01b996cadc001622fb5e363b421",
            "uncleHash" : "0x1dcc4de8dec75d7aab85b567b6ccd41ad312451b948a7413f0a142fd40d49347"
        },
        "genesisRLP" : "0xf901f8f901f3a00000000000000000000000000000000000000000000000000000000000000000a01dcc4de8dec75d7aab85b567b6ccd41ad312451b948a7413f0a142fd40d49347942adc25665018aa1fe0e6bc666dac8fc2697ff9baa0db41a3fed177678e79a2165657b2507439a9bc7629f7ee0014a168ce8dde1fcca056e81f171bcc55a6ff8345e692c0f86e5b48e01b996cadc001622fb5e363b421a056e81f171bcc55a6ff8345e692c0f86e5b48e01b996cadc001622fb5e363b421b9010000000000000000000000000000000000000000000000000000000000000000000000000000000000000000000000000000000000000000000000000000000000000000000000000000000000000000000000000000000000000000000000000000000000000000000000000000000000000000000000000000000000000000000000000000000000000000000000000000000000000000000000000000000000000000000000000000000000000000000000000000000000000000000000000000000000000000000000000000000000000000000000000000000000000000000000000000000000000000000000000000000000000000000000000000000000830200008083989680808000a00000000000000000000000000000000000000000000000000000000000000000880000000000000000c0c0",
        "lastblockhash" : "0x6ec154b5eeb0a699ca05e1879a6154a20f34c42444139b946c5794047c544e52",
        "network" : "Berlin",
        "postState" : {
            "0x2adc25665018aa1fe0e6bc666dac8fc2697ff9ba" : {
                "balance" : "0x1bc16d674edc9970",
                "code" : "0x",
                "nonce" : "0x00",
                "storage" : {
                }
            },
            "0xa94f5374fce5edbc8e2a8697c15331677e6ebf0b" : {
                "balance" : "0xe8d4907690",
                "code" : "0x",
                "nonce" : "0x01",
                "storage" : {
                }
            },
            "0xb94f5374fce5edbc8e2a8697c15331677e6ebf0b" : {
                "balance" : "0x00",
                "code" : "0x5a600055600060006000600073c94f5374fce5edbc8e2a8697c15331677e6ebf0b61ea60f4600155600c600255600c600355600c6004555a60645500",
                "nonce" : "0x00",
                "storage" : {
                }
            },
            "0xc94f5374fce5edbc8e2a8697c15331677e6ebf0b" : {
                "balance" : "0x00",
                "code" : "0x",
                "nonce" : "0x00",
                "storage" : {
                }
            }
        },
        "pre" : {
            "0xa94f5374fce5edbc8e2a8697c15331677e6ebf0b" : {
                "balance" : "0xe8d4a51000",
                "code" : "0x",
                "nonce" : "0x00",
                "storage" : {
                }
            },
            "0xb94f5374fce5edbc8e2a8697c15331677e6ebf0b" : {
                "balance" : "0x00",
                "code" : "0x5a600055600060006000600073c94f5374fce5edbc8e2a8697c15331677e6ebf0b61ea60f4600155600c600255600c600355600c6004555a60645500",
                "nonce" : "0x00",
                "storage" : {
                }
            },
            "0xc94f5374fce5edbc8e2a8697c15331677e6ebf0b" : {
                "balance" : "0x00",
                "code" : "0x",
                "nonce" : "0x00",
                "storage" : {
                }
            }
        },
        "sealEngine" : "NoProof"
    },
    "ZeroValue_DELEGATECALL_ToEmpty_OOGRevert_d0g0v0_Istanbul" : {
        "_info" : {
            "comment" : "",
            "filling-rpc-server" : "evm version 1.11.4-unstable-e14043db-20230308",
            "filling-tool-version" : "retesteth-0.3.0-shanghai+commit.fd2c0a83.Linux.g++",
            "generatedTestHash" : "36586857be7cdef97f96f089f4eca1db577915dc4a11d25101d4eb36eb68dbb8",
            "lllcversion" : "Version: 0.5.14-develop.2022.7.30+commit.a096d7a9.Linux.g++",
            "solidity" : "Version: 0.8.17+commit.8df45f5f.Linux.g++",
            "source" : "src/GeneralStateTestsFiller/stZeroCallsRevert/ZeroValue_DELEGATECALL_ToEmpty_OOGRevertFiller.json",
            "sourceHash" : "14e152669ab5e184cdc0a563d42099dc085b0622893ab9cdfbbaac166c548265"
        },
        "blocks" : [
            {
                "blockHeader" : {
                    "bloom" : "0x00000000000000000000000000000000000000000000000000000000000000000000000000000000000000000000000000000000000000000000000000000000000000000000000000000000000000000000000000000000000000000000000000000000000000000000000000000000000000000000000000000000000000000000000000000000000000000000000000000000000000000000000000000000000000000000000000000000000000000000000000000000000000000000000000000000000000000000000000000000000000000000000000000000000000000000000000000000000000000000000000000000000000000000000000000000",
                    "coinbase" : "0x2adc25665018aa1fe0e6bc666dac8fc2697ff9ba",
                    "difficulty" : "0x020000",
                    "extraData" : "0x00",
                    "gasLimit" : "0x989680",
                    "gasUsed" : "0x020f58",
                    "hash" : "0x6ec154b5eeb0a699ca05e1879a6154a20f34c42444139b946c5794047c544e52",
                    "mixHash" : "0x0000000000000000000000000000000000000000000000000000000000000000",
                    "nonce" : "0x0000000000000000",
                    "number" : "0x01",
                    "parentHash" : "0x353a072ae952615e95856ce798be16e565764d17dfe72754939b21f0408fe1f7",
                    "receiptTrie" : "0x54eeafc8891222b787b9c9bfab7e0d99866447dad965b012fa2e09404455ec9d",
                    "stateRoot" : "0xf96f59796bb9b3d49aecbacdfd5d7df336fca624c77c61059d38480306593cf9",
                    "timestamp" : "0x03e8",
                    "transactionsTrie" : "0x8c35ff34cd4e46d0b8b35470ff86e248b55cdcaf96e473d3f028cf677e999907",
                    "uncleHash" : "0x1dcc4de8dec75d7aab85b567b6ccd41ad312451b948a7413f0a142fd40d49347"
                },
                "rlp" : "0xf90260f901f8a0353a072ae952615e95856ce798be16e565764d17dfe72754939b21f0408fe1f7a01dcc4de8dec75d7aab85b567b6ccd41ad312451b948a7413f0a142fd40d49347942adc25665018aa1fe0e6bc666dac8fc2697ff9baa0f96f59796bb9b3d49aecbacdfd5d7df336fca624c77c61059d38480306593cf9a08c35ff34cd4e46d0b8b35470ff86e248b55cdcaf96e473d3f028cf677e999907a054eeafc8891222b787b9c9bfab7e0d99866447dad965b012fa2e09404455ec9db901000000000000000000000000000000000000000000000000000000000000000000000000000000000000000000000000000000000000000000000000000000000000000000000000000000000000000000000000000000000000000000000000000000000000000000000000000000000000000000000000000000000000000000000000000000000000000000000000000000000000000000000000000000000000000000000000000000000000000000000000000000000000000000000000000000000000000000000000000000000000000000000000000000000000000000000000000000000000000000000000000000000000000000000000000000000083020000018398968083020f588203e800a00000000000000000000000000000000000000000000000000000000000000000880000000000000000f862f860800a83020f5894b94f5374fce5edbc8e2a8697c15331677e6ebf0b80801ca0de453887fe76fd616009849fd98ced156de68a1519b79d9197d6c0200f554ffea047b27910a2ab14d1fd8d826b58c770f18ba9d472c6660cffe01d86b7bf973766c0",
                "transactions" : [
                    {
                        "data" : "0x",
                        "gasLimit" : "0x020f58",
                        "gasPrice" : "0x0a",
                        "nonce" : "0x00",
                        "r" : "0xde453887fe76fd616009849fd98ced156de68a1519b79d9197d6c0200f554ffe",
                        "s" : "0x47b27910a2ab14d1fd8d826b58c770f18ba9d472c6660cffe01d86b7bf973766",
                        "sender" : "0xa94f5374fce5edbc8e2a8697c15331677e6ebf0b",
                        "to" : "0xb94f5374fce5edbc8e2a8697c15331677e6ebf0b",
                        "v" : "0x1c",
                        "value" : "0x00"
                    }
                ],
                "uncleHeaders" : [
                ]
            }
        ],
        "genesisBlockHeader" : {
            "bloom" : "0x00000000000000000000000000000000000000000000000000000000000000000000000000000000000000000000000000000000000000000000000000000000000000000000000000000000000000000000000000000000000000000000000000000000000000000000000000000000000000000000000000000000000000000000000000000000000000000000000000000000000000000000000000000000000000000000000000000000000000000000000000000000000000000000000000000000000000000000000000000000000000000000000000000000000000000000000000000000000000000000000000000000000000000000000000000000",
            "coinbase" : "0x2adc25665018aa1fe0e6bc666dac8fc2697ff9ba",
            "difficulty" : "0x020000",
            "extraData" : "0x00",
            "gasLimit" : "0x989680",
            "gasUsed" : "0x00",
            "hash" : "0x353a072ae952615e95856ce798be16e565764d17dfe72754939b21f0408fe1f7",
            "mixHash" : "0x0000000000000000000000000000000000000000000000000000000000000000",
            "nonce" : "0x0000000000000000",
            "number" : "0x00",
            "parentHash" : "0x0000000000000000000000000000000000000000000000000000000000000000",
            "receiptTrie" : "0x56e81f171bcc55a6ff8345e692c0f86e5b48e01b996cadc001622fb5e363b421",
            "stateRoot" : "0xdb41a3fed177678e79a2165657b2507439a9bc7629f7ee0014a168ce8dde1fcc",
            "timestamp" : "0x00",
            "transactionsTrie" : "0x56e81f171bcc55a6ff8345e692c0f86e5b48e01b996cadc001622fb5e363b421",
            "uncleHash" : "0x1dcc4de8dec75d7aab85b567b6ccd41ad312451b948a7413f0a142fd40d49347"
        },
        "genesisRLP" : "0xf901f8f901f3a00000000000000000000000000000000000000000000000000000000000000000a01dcc4de8dec75d7aab85b567b6ccd41ad312451b948a7413f0a142fd40d49347942adc25665018aa1fe0e6bc666dac8fc2697ff9baa0db41a3fed177678e79a2165657b2507439a9bc7629f7ee0014a168ce8dde1fcca056e81f171bcc55a6ff8345e692c0f86e5b48e01b996cadc001622fb5e363b421a056e81f171bcc55a6ff8345e692c0f86e5b48e01b996cadc001622fb5e363b421b9010000000000000000000000000000000000000000000000000000000000000000000000000000000000000000000000000000000000000000000000000000000000000000000000000000000000000000000000000000000000000000000000000000000000000000000000000000000000000000000000000000000000000000000000000000000000000000000000000000000000000000000000000000000000000000000000000000000000000000000000000000000000000000000000000000000000000000000000000000000000000000000000000000000000000000000000000000000000000000000000000000000000000000000000000000000000830200008083989680808000a00000000000000000000000000000000000000000000000000000000000000000880000000000000000c0c0",
        "lastblockhash" : "0x6ec154b5eeb0a699ca05e1879a6154a20f34c42444139b946c5794047c544e52",
        "network" : "Istanbul",
        "postState" : {
            "0x2adc25665018aa1fe0e6bc666dac8fc2697ff9ba" : {
                "balance" : "0x1bc16d674edc9970",
                "code" : "0x",
                "nonce" : "0x00",
                "storage" : {
                }
            },
            "0xa94f5374fce5edbc8e2a8697c15331677e6ebf0b" : {
                "balance" : "0xe8d4907690",
                "code" : "0x",
                "nonce" : "0x01",
                "storage" : {
                }
            },
            "0xb94f5374fce5edbc8e2a8697c15331677e6ebf0b" : {
                "balance" : "0x00",
                "code" : "0x5a600055600060006000600073c94f5374fce5edbc8e2a8697c15331677e6ebf0b61ea60f4600155600c600255600c600355600c6004555a60645500",
                "nonce" : "0x00",
                "storage" : {
                }
            },
            "0xc94f5374fce5edbc8e2a8697c15331677e6ebf0b" : {
                "balance" : "0x00",
                "code" : "0x",
                "nonce" : "0x00",
                "storage" : {
                }
            }
        },
        "pre" : {
            "0xa94f5374fce5edbc8e2a8697c15331677e6ebf0b" : {
                "balance" : "0xe8d4a51000",
                "code" : "0x",
                "nonce" : "0x00",
                "storage" : {
                }
            },
            "0xb94f5374fce5edbc8e2a8697c15331677e6ebf0b" : {
                "balance" : "0x00",
                "code" : "0x5a600055600060006000600073c94f5374fce5edbc8e2a8697c15331677e6ebf0b61ea60f4600155600c600255600c600355600c6004555a60645500",
                "nonce" : "0x00",
                "storage" : {
                }
            },
            "0xc94f5374fce5edbc8e2a8697c15331677e6ebf0b" : {
                "balance" : "0x00",
                "code" : "0x",
                "nonce" : "0x00",
                "storage" : {
                }
            }
        },
        "sealEngine" : "NoProof"
    },
    "ZeroValue_DELEGATECALL_ToEmpty_OOGRevert_d0g0v0_London" : {
        "_info" : {
            "comment" : "",
            "filling-rpc-server" : "evm version 1.11.4-unstable-e14043db-20230308",
            "filling-tool-version" : "retesteth-0.3.0-shanghai+commit.fd2c0a83.Linux.g++",
            "generatedTestHash" : "89c577b0b2fd6f410c1e93693e6f5e1ec995a5df8f0ec10c013001d69cd1448a",
            "lllcversion" : "Version: 0.5.14-develop.2022.7.30+commit.a096d7a9.Linux.g++",
            "solidity" : "Version: 0.8.17+commit.8df45f5f.Linux.g++",
            "source" : "src/GeneralStateTestsFiller/stZeroCallsRevert/ZeroValue_DELEGATECALL_ToEmpty_OOGRevertFiller.json",
            "sourceHash" : "14e152669ab5e184cdc0a563d42099dc085b0622893ab9cdfbbaac166c548265"
        },
        "blocks" : [
            {
                "blockHeader" : {
                    "baseFeePerGas" : "0x0a",
                    "bloom" : "0x00000000000000000000000000000000000000000000000000000000000000000000000000000000000000000000000000000000000000000000000000000000000000000000000000000000000000000000000000000000000000000000000000000000000000000000000000000000000000000000000000000000000000000000000000000000000000000000000000000000000000000000000000000000000000000000000000000000000000000000000000000000000000000000000000000000000000000000000000000000000000000000000000000000000000000000000000000000000000000000000000000000000000000000000000000000",
                    "coinbase" : "0x2adc25665018aa1fe0e6bc666dac8fc2697ff9ba",
                    "difficulty" : "0x020000",
                    "extraData" : "0x00",
                    "gasLimit" : "0x989680",
                    "gasUsed" : "0x020f58",
                    "hash" : "0x79d7f3be953eaa0633e08ab2a3c664732c07e5948e5114be745880eadaf0b355",
                    "mixHash" : "0x0000000000000000000000000000000000000000000000000000000000000000",
                    "nonce" : "0x0000000000000000",
                    "number" : "0x01",
                    "parentHash" : "0x9d5617a58d2152cc5fd5827c96123d1a218c575e539008e4c93bf951c622e97f",
                    "receiptTrie" : "0x54eeafc8891222b787b9c9bfab7e0d99866447dad965b012fa2e09404455ec9d",
                    "stateRoot" : "0x7bc125f1712eae8bf10d8f67101a9722b757d18f5c3c022eefee1e7432acbe22",
                    "timestamp" : "0x03e8",
                    "transactionsTrie" : "0x8c35ff34cd4e46d0b8b35470ff86e248b55cdcaf96e473d3f028cf677e999907",
                    "uncleHash" : "0x1dcc4de8dec75d7aab85b567b6ccd41ad312451b948a7413f0a142fd40d49347"
                },
                "rlp" : "0xf90261f901f9a09d5617a58d2152cc5fd5827c96123d1a218c575e539008e4c93bf951c622e97fa01dcc4de8dec75d7aab85b567b6ccd41ad312451b948a7413f0a142fd40d49347942adc25665018aa1fe0e6bc666dac8fc2697ff9baa07bc125f1712eae8bf10d8f67101a9722b757d18f5c3c022eefee1e7432acbe22a08c35ff34cd4e46d0b8b35470ff86e248b55cdcaf96e473d3f028cf677e999907a054eeafc8891222b787b9c9bfab7e0d99866447dad965b012fa2e09404455ec9db901000000000000000000000000000000000000000000000000000000000000000000000000000000000000000000000000000000000000000000000000000000000000000000000000000000000000000000000000000000000000000000000000000000000000000000000000000000000000000000000000000000000000000000000000000000000000000000000000000000000000000000000000000000000000000000000000000000000000000000000000000000000000000000000000000000000000000000000000000000000000000000000000000000000000000000000000000000000000000000000000000000000000000000000000000000000083020000018398968083020f588203e800a000000000000000000000000000000000000000000000000000000000000000008800000000000000000af862f860800a83020f5894b94f5374fce5edbc8e2a8697c15331677e6ebf0b80801ca0de453887fe76fd616009849fd98ced156de68a1519b79d9197d6c0200f554ffea047b27910a2ab14d1fd8d826b58c770f18ba9d472c6660cffe01d86b7bf973766c0",
                "transactions" : [
                    {
                        "data" : "0x",
                        "gasLimit" : "0x020f58",
                        "gasPrice" : "0x0a",
                        "nonce" : "0x00",
                        "r" : "0xde453887fe76fd616009849fd98ced156de68a1519b79d9197d6c0200f554ffe",
                        "s" : "0x47b27910a2ab14d1fd8d826b58c770f18ba9d472c6660cffe01d86b7bf973766",
                        "sender" : "0xa94f5374fce5edbc8e2a8697c15331677e6ebf0b",
                        "to" : "0xb94f5374fce5edbc8e2a8697c15331677e6ebf0b",
                        "v" : "0x1c",
                        "value" : "0x00"
                    }
                ],
                "uncleHeaders" : [
                ]
            }
        ],
        "genesisBlockHeader" : {
            "baseFeePerGas" : "0x0b",
            "bloom" : "0x00000000000000000000000000000000000000000000000000000000000000000000000000000000000000000000000000000000000000000000000000000000000000000000000000000000000000000000000000000000000000000000000000000000000000000000000000000000000000000000000000000000000000000000000000000000000000000000000000000000000000000000000000000000000000000000000000000000000000000000000000000000000000000000000000000000000000000000000000000000000000000000000000000000000000000000000000000000000000000000000000000000000000000000000000000000",
            "coinbase" : "0x2adc25665018aa1fe0e6bc666dac8fc2697ff9ba",
            "difficulty" : "0x020000",
            "extraData" : "0x00",
            "gasLimit" : "0x989680",
            "gasUsed" : "0x00",
            "hash" : "0x9d5617a58d2152cc5fd5827c96123d1a218c575e539008e4c93bf951c622e97f",
            "mixHash" : "0x0000000000000000000000000000000000000000000000000000000000000000",
            "nonce" : "0x0000000000000000",
            "number" : "0x00",
            "parentHash" : "0x0000000000000000000000000000000000000000000000000000000000000000",
            "receiptTrie" : "0x56e81f171bcc55a6ff8345e692c0f86e5b48e01b996cadc001622fb5e363b421",
            "stateRoot" : "0xdb41a3fed177678e79a2165657b2507439a9bc7629f7ee0014a168ce8dde1fcc",
            "timestamp" : "0x00",
            "transactionsTrie" : "0x56e81f171bcc55a6ff8345e692c0f86e5b48e01b996cadc001622fb5e363b421",
            "uncleHash" : "0x1dcc4de8dec75d7aab85b567b6ccd41ad312451b948a7413f0a142fd40d49347"
        },
        "genesisRLP" : "0xf901f9f901f4a00000000000000000000000000000000000000000000000000000000000000000a01dcc4de8dec75d7aab85b567b6ccd41ad312451b948a7413f0a142fd40d49347942adc25665018aa1fe0e6bc666dac8fc2697ff9baa0db41a3fed177678e79a2165657b2507439a9bc7629f7ee0014a168ce8dde1fcca056e81f171bcc55a6ff8345e692c0f86e5b48e01b996cadc001622fb5e363b421a056e81f171bcc55a6ff8345e692c0f86e5b48e01b996cadc001622fb5e363b421b9010000000000000000000000000000000000000000000000000000000000000000000000000000000000000000000000000000000000000000000000000000000000000000000000000000000000000000000000000000000000000000000000000000000000000000000000000000000000000000000000000000000000000000000000000000000000000000000000000000000000000000000000000000000000000000000000000000000000000000000000000000000000000000000000000000000000000000000000000000000000000000000000000000000000000000000000000000000000000000000000000000000000000000000000000000000000830200008083989680808000a000000000000000000000000000000000000000000000000000000000000000008800000000000000000bc0c0",
        "lastblockhash" : "0x79d7f3be953eaa0633e08ab2a3c664732c07e5948e5114be745880eadaf0b355",
        "network" : "London",
        "postState" : {
            "0x2adc25665018aa1fe0e6bc666dac8fc2697ff9ba" : {
                "balance" : "0x1bc16d674ec80000",
                "code" : "0x",
                "nonce" : "0x00",
                "storage" : {
                }
            },
            "0xa94f5374fce5edbc8e2a8697c15331677e6ebf0b" : {
                "balance" : "0xe8d4907690",
                "code" : "0x",
                "nonce" : "0x01",
                "storage" : {
                }
            },
            "0xb94f5374fce5edbc8e2a8697c15331677e6ebf0b" : {
                "balance" : "0x00",
                "code" : "0x5a600055600060006000600073c94f5374fce5edbc8e2a8697c15331677e6ebf0b61ea60f4600155600c600255600c600355600c6004555a60645500",
                "nonce" : "0x00",
                "storage" : {
                }
            },
            "0xc94f5374fce5edbc8e2a8697c15331677e6ebf0b" : {
                "balance" : "0x00",
                "code" : "0x",
                "nonce" : "0x00",
                "storage" : {
                }
            }
        },
        "pre" : {
            "0xa94f5374fce5edbc8e2a8697c15331677e6ebf0b" : {
                "balance" : "0xe8d4a51000",
                "code" : "0x",
                "nonce" : "0x00",
                "storage" : {
                }
            },
            "0xb94f5374fce5edbc8e2a8697c15331677e6ebf0b" : {
                "balance" : "0x00",
                "code" : "0x5a600055600060006000600073c94f5374fce5edbc8e2a8697c15331677e6ebf0b61ea60f4600155600c600255600c600355600c6004555a60645500",
                "nonce" : "0x00",
                "storage" : {
                }
            },
            "0xc94f5374fce5edbc8e2a8697c15331677e6ebf0b" : {
                "balance" : "0x00",
                "code" : "0x",
                "nonce" : "0x00",
                "storage" : {
                }
            }
        },
        "sealEngine" : "NoProof"
    },
    "ZeroValue_DELEGATECALL_ToEmpty_OOGRevert_d0g0v0_Merge" : {
        "_info" : {
            "comment" : "",
            "filling-rpc-server" : "evm version 1.11.4-unstable-e14043db-20230308",
            "filling-tool-version" : "retesteth-0.3.0-shanghai+commit.fd2c0a83.Linux.g++",
            "generatedTestHash" : "c6dc2199d1415efb5f23ca6d5c261881ddbb6e7eda8a86e55d4eeda4d8779d3b",
            "lllcversion" : "Version: 0.5.14-develop.2022.7.30+commit.a096d7a9.Linux.g++",
            "solidity" : "Version: 0.8.17+commit.8df45f5f.Linux.g++",
            "source" : "src/GeneralStateTestsFiller/stZeroCallsRevert/ZeroValue_DELEGATECALL_ToEmpty_OOGRevertFiller.json",
            "sourceHash" : "14e152669ab5e184cdc0a563d42099dc085b0622893ab9cdfbbaac166c548265"
        },
        "blocks" : [
            {
                "blockHeader" : {
                    "baseFeePerGas" : "0x0a",
                    "bloom" : "0x00000000000000000000000000000000000000000000000000000000000000000000000000000000000000000000000000000000000000000000000000000000000000000000000000000000000000000000000000000000000000000000000000000000000000000000000000000000000000000000000000000000000000000000000000000000000000000000000000000000000000000000000000000000000000000000000000000000000000000000000000000000000000000000000000000000000000000000000000000000000000000000000000000000000000000000000000000000000000000000000000000000000000000000000000000000",
                    "coinbase" : "0x2adc25665018aa1fe0e6bc666dac8fc2697ff9ba",
                    "difficulty" : "0x00",
                    "extraData" : "0x00",
                    "gasLimit" : "0x989680",
                    "gasUsed" : "0x020f58",
                    "hash" : "0x0509ccfbb68995757d3c74c75e1ce2522baa1930a0d85d06f4ea453ed73ed9c5",
                    "mixHash" : "0x0000000000000000000000000000000000000000000000000000000000020000",
                    "nonce" : "0x0000000000000000",
                    "number" : "0x01",
                    "parentHash" : "0x8926873ba834bb14a10849f50536d925f1f26976d41577ac18c5ade090cb5b61",
                    "receiptTrie" : "0x54eeafc8891222b787b9c9bfab7e0d99866447dad965b012fa2e09404455ec9d",
                    "stateRoot" : "0x5da738ee2da8710f5dbe55739365accdf31ea665c2e2a5d015d7190183bbb724",
                    "timestamp" : "0x03e8",
                    "transactionsTrie" : "0x8c35ff34cd4e46d0b8b35470ff86e248b55cdcaf96e473d3f028cf677e999907",
                    "uncleHash" : "0x1dcc4de8dec75d7aab85b567b6ccd41ad312451b948a7413f0a142fd40d49347"
                },
                "rlp" : "0xf9025ef901f6a08926873ba834bb14a10849f50536d925f1f26976d41577ac18c5ade090cb5b61a01dcc4de8dec75d7aab85b567b6ccd41ad312451b948a7413f0a142fd40d49347942adc25665018aa1fe0e6bc666dac8fc2697ff9baa05da738ee2da8710f5dbe55739365accdf31ea665c2e2a5d015d7190183bbb724a08c35ff34cd4e46d0b8b35470ff86e248b55cdcaf96e473d3f028cf677e999907a054eeafc8891222b787b9c9bfab7e0d99866447dad965b012fa2e09404455ec9db901000000000000000000000000000000000000000000000000000000000000000000000000000000000000000000000000000000000000000000000000000000000000000000000000000000000000000000000000000000000000000000000000000000000000000000000000000000000000000000000000000000000000000000000000000000000000000000000000000000000000000000000000000000000000000000000000000000000000000000000000000000000000000000000000000000000000000000000000000000000000000000000000000000000000000000000000000000000000000000000000000000000000000000000000000000000080018398968083020f588203e800a000000000000000000000000000000000000000000000000000000000000200008800000000000000000af862f860800a83020f5894b94f5374fce5edbc8e2a8697c15331677e6ebf0b80801ca0de453887fe76fd616009849fd98ced156de68a1519b79d9197d6c0200f554ffea047b27910a2ab14d1fd8d826b58c770f18ba9d472c6660cffe01d86b7bf973766c0",
                "transactions" : [
                    {
                        "data" : "0x",
                        "gasLimit" : "0x020f58",
                        "gasPrice" : "0x0a",
                        "nonce" : "0x00",
                        "r" : "0xde453887fe76fd616009849fd98ced156de68a1519b79d9197d6c0200f554ffe",
                        "s" : "0x47b27910a2ab14d1fd8d826b58c770f18ba9d472c6660cffe01d86b7bf973766",
                        "sender" : "0xa94f5374fce5edbc8e2a8697c15331677e6ebf0b",
                        "to" : "0xb94f5374fce5edbc8e2a8697c15331677e6ebf0b",
                        "v" : "0x1c",
                        "value" : "0x00"
                    }
                ],
                "uncleHeaders" : [
                ]
            }
        ],
        "genesisBlockHeader" : {
            "baseFeePerGas" : "0x0b",
            "bloom" : "0x00000000000000000000000000000000000000000000000000000000000000000000000000000000000000000000000000000000000000000000000000000000000000000000000000000000000000000000000000000000000000000000000000000000000000000000000000000000000000000000000000000000000000000000000000000000000000000000000000000000000000000000000000000000000000000000000000000000000000000000000000000000000000000000000000000000000000000000000000000000000000000000000000000000000000000000000000000000000000000000000000000000000000000000000000000000",
            "coinbase" : "0x2adc25665018aa1fe0e6bc666dac8fc2697ff9ba",
            "difficulty" : "0x00",
            "extraData" : "0x00",
            "gasLimit" : "0x989680",
            "gasUsed" : "0x00",
            "hash" : "0x8926873ba834bb14a10849f50536d925f1f26976d41577ac18c5ade090cb5b61",
            "mixHash" : "0x0000000000000000000000000000000000000000000000000000000000020000",
            "nonce" : "0x0000000000000000",
            "number" : "0x00",
            "parentHash" : "0x0000000000000000000000000000000000000000000000000000000000000000",
            "receiptTrie" : "0x56e81f171bcc55a6ff8345e692c0f86e5b48e01b996cadc001622fb5e363b421",
            "stateRoot" : "0xdb41a3fed177678e79a2165657b2507439a9bc7629f7ee0014a168ce8dde1fcc",
            "timestamp" : "0x00",
            "transactionsTrie" : "0x56e81f171bcc55a6ff8345e692c0f86e5b48e01b996cadc001622fb5e363b421",
            "uncleHash" : "0x1dcc4de8dec75d7aab85b567b6ccd41ad312451b948a7413f0a142fd40d49347"
        },
        "genesisRLP" : "0xf901f6f901f1a00000000000000000000000000000000000000000000000000000000000000000a01dcc4de8dec75d7aab85b567b6ccd41ad312451b948a7413f0a142fd40d49347942adc25665018aa1fe0e6bc666dac8fc2697ff9baa0db41a3fed177678e79a2165657b2507439a9bc7629f7ee0014a168ce8dde1fcca056e81f171bcc55a6ff8345e692c0f86e5b48e01b996cadc001622fb5e363b421a056e81f171bcc55a6ff8345e692c0f86e5b48e01b996cadc001622fb5e363b421b9010000000000000000000000000000000000000000000000000000000000000000000000000000000000000000000000000000000000000000000000000000000000000000000000000000000000000000000000000000000000000000000000000000000000000000000000000000000000000000000000000000000000000000000000000000000000000000000000000000000000000000000000000000000000000000000000000000000000000000000000000000000000000000000000000000000000000000000000000000000000000000000000000000000000000000000000000000000000000000000000000000000000000000000000000000000000808083989680808000a000000000000000000000000000000000000000000000000000000000000200008800000000000000000bc0c0",
        "lastblockhash" : "0x0509ccfbb68995757d3c74c75e1ce2522baa1930a0d85d06f4ea453ed73ed9c5",
        "network" : "Merge",
        "postState" : {
            "0xa94f5374fce5edbc8e2a8697c15331677e6ebf0b" : {
                "balance" : "0xe8d4907690",
                "code" : "0x",
                "nonce" : "0x01",
                "storage" : {
                }
            },
            "0xb94f5374fce5edbc8e2a8697c15331677e6ebf0b" : {
                "balance" : "0x00",
                "code" : "0x5a600055600060006000600073c94f5374fce5edbc8e2a8697c15331677e6ebf0b61ea60f4600155600c600255600c600355600c6004555a60645500",
                "nonce" : "0x00",
                "storage" : {
                }
            },
            "0xc94f5374fce5edbc8e2a8697c15331677e6ebf0b" : {
                "balance" : "0x00",
                "code" : "0x",
                "nonce" : "0x00",
                "storage" : {
                }
            }
        },
        "pre" : {
            "0xa94f5374fce5edbc8e2a8697c15331677e6ebf0b" : {
                "balance" : "0xe8d4a51000",
                "code" : "0x",
                "nonce" : "0x00",
                "storage" : {
                }
            },
            "0xb94f5374fce5edbc8e2a8697c15331677e6ebf0b" : {
                "balance" : "0x00",
                "code" : "0x5a600055600060006000600073c94f5374fce5edbc8e2a8697c15331677e6ebf0b61ea60f4600155600c600255600c600355600c6004555a60645500",
                "nonce" : "0x00",
                "storage" : {
                }
            },
            "0xc94f5374fce5edbc8e2a8697c15331677e6ebf0b" : {
                "balance" : "0x00",
                "code" : "0x",
                "nonce" : "0x00",
                "storage" : {
                }
            }
        },
        "sealEngine" : "NoProof"
    },
    "ZeroValue_DELEGATECALL_ToEmpty_OOGRevert_d0g0v0_Shanghai" : {
        "_info" : {
            "comment" : "",
            "filling-rpc-server" : "evm version 1.11.4-unstable-e14043db-20230308",
            "filling-tool-version" : "retesteth-0.3.0-shanghai+commit.fd2c0a83.Linux.g++",
            "generatedTestHash" : "f73320ef90a8fee0ff7e5ea711e155d90d68ef5d44e4715982c6d5abe0dcf69d",
            "lllcversion" : "Version: 0.5.14-develop.2022.7.30+commit.a096d7a9.Linux.g++",
            "solidity" : "Version: 0.8.17+commit.8df45f5f.Linux.g++",
            "source" : "src/GeneralStateTestsFiller/stZeroCallsRevert/ZeroValue_DELEGATECALL_ToEmpty_OOGRevertFiller.json",
            "sourceHash" : "14e152669ab5e184cdc0a563d42099dc085b0622893ab9cdfbbaac166c548265"
        },
        "blocks" : [
            {
                "blockHeader" : {
                    "baseFeePerGas" : "0x0a",
                    "bloom" : "0x00000000000000000000000000000000000000000000000000000000000000000000000000000000000000000000000000000000000000000000000000000000000000000000000000000000000000000000000000000000000000000000000000000000000000000000000000000000000000000000000000000000000000000000000000000000000000000000000000000000000000000000000000000000000000000000000000000000000000000000000000000000000000000000000000000000000000000000000000000000000000000000000000000000000000000000000000000000000000000000000000000000000000000000000000000000",
                    "coinbase" : "0x2adc25665018aa1fe0e6bc666dac8fc2697ff9ba",
                    "difficulty" : "0x00",
                    "extraData" : "0x00",
                    "gasLimit" : "0x989680",
                    "gasUsed" : "0x020f58",
                    "hash" : "0xaafacddcefb99ebf027323d5608321bf7a526a66f87176e041052151c2d8ded4",
                    "mixHash" : "0x0000000000000000000000000000000000000000000000000000000000020000",
                    "nonce" : "0x0000000000000000",
                    "number" : "0x01",
                    "parentHash" : "0x87277508abc7ba71347217c447affb9c8a477e8e53a2119ebf351a2180158f1f",
                    "receiptTrie" : "0x54eeafc8891222b787b9c9bfab7e0d99866447dad965b012fa2e09404455ec9d",
                    "stateRoot" : "0x5da738ee2da8710f5dbe55739365accdf31ea665c2e2a5d015d7190183bbb724",
                    "timestamp" : "0x03e8",
                    "transactionsTrie" : "0x8c35ff34cd4e46d0b8b35470ff86e248b55cdcaf96e473d3f028cf677e999907",
                    "uncleHash" : "0x1dcc4de8dec75d7aab85b567b6ccd41ad312451b948a7413f0a142fd40d49347",
                    "withdrawalsRoot" : "0x56e81f171bcc55a6ff8345e692c0f86e5b48e01b996cadc001622fb5e363b421"
                },
                "rlp" : "0xf90280f90217a087277508abc7ba71347217c447affb9c8a477e8e53a2119ebf351a2180158f1fa01dcc4de8dec75d7aab85b567b6ccd41ad312451b948a7413f0a142fd40d49347942adc25665018aa1fe0e6bc666dac8fc2697ff9baa05da738ee2da8710f5dbe55739365accdf31ea665c2e2a5d015d7190183bbb724a08c35ff34cd4e46d0b8b35470ff86e248b55cdcaf96e473d3f028cf677e999907a054eeafc8891222b787b9c9bfab7e0d99866447dad965b012fa2e09404455ec9db901000000000000000000000000000000000000000000000000000000000000000000000000000000000000000000000000000000000000000000000000000000000000000000000000000000000000000000000000000000000000000000000000000000000000000000000000000000000000000000000000000000000000000000000000000000000000000000000000000000000000000000000000000000000000000000000000000000000000000000000000000000000000000000000000000000000000000000000000000000000000000000000000000000000000000000000000000000000000000000000000000000000000000000000000000000000080018398968083020f588203e800a000000000000000000000000000000000000000000000000000000000000200008800000000000000000aa056e81f171bcc55a6ff8345e692c0f86e5b48e01b996cadc001622fb5e363b421f862f860800a83020f5894b94f5374fce5edbc8e2a8697c15331677e6ebf0b80801ca0de453887fe76fd616009849fd98ced156de68a1519b79d9197d6c0200f554ffea047b27910a2ab14d1fd8d826b58c770f18ba9d472c6660cffe01d86b7bf973766c0c0",
                "transactions" : [
                    {
                        "data" : "0x",
                        "gasLimit" : "0x020f58",
                        "gasPrice" : "0x0a",
                        "nonce" : "0x00",
                        "r" : "0xde453887fe76fd616009849fd98ced156de68a1519b79d9197d6c0200f554ffe",
                        "s" : "0x47b27910a2ab14d1fd8d826b58c770f18ba9d472c6660cffe01d86b7bf973766",
                        "sender" : "0xa94f5374fce5edbc8e2a8697c15331677e6ebf0b",
                        "to" : "0xb94f5374fce5edbc8e2a8697c15331677e6ebf0b",
                        "v" : "0x1c",
                        "value" : "0x00"
                    }
                ],
                "uncleHeaders" : [
                ],
                "withdrawals" : [
                ]
            }
        ],
        "genesisBlockHeader" : {
            "baseFeePerGas" : "0x0b",
            "bloom" : "0x00000000000000000000000000000000000000000000000000000000000000000000000000000000000000000000000000000000000000000000000000000000000000000000000000000000000000000000000000000000000000000000000000000000000000000000000000000000000000000000000000000000000000000000000000000000000000000000000000000000000000000000000000000000000000000000000000000000000000000000000000000000000000000000000000000000000000000000000000000000000000000000000000000000000000000000000000000000000000000000000000000000000000000000000000000000",
            "coinbase" : "0x2adc25665018aa1fe0e6bc666dac8fc2697ff9ba",
            "difficulty" : "0x00",
            "extraData" : "0x00",
            "gasLimit" : "0x989680",
            "gasUsed" : "0x00",
            "hash" : "0x87277508abc7ba71347217c447affb9c8a477e8e53a2119ebf351a2180158f1f",
            "mixHash" : "0x0000000000000000000000000000000000000000000000000000000000020000",
            "nonce" : "0x0000000000000000",
            "number" : "0x00",
            "parentHash" : "0x0000000000000000000000000000000000000000000000000000000000000000",
            "receiptTrie" : "0x56e81f171bcc55a6ff8345e692c0f86e5b48e01b996cadc001622fb5e363b421",
            "stateRoot" : "0xdb41a3fed177678e79a2165657b2507439a9bc7629f7ee0014a168ce8dde1fcc",
            "timestamp" : "0x00",
            "transactionsTrie" : "0x56e81f171bcc55a6ff8345e692c0f86e5b48e01b996cadc001622fb5e363b421",
            "uncleHash" : "0x1dcc4de8dec75d7aab85b567b6ccd41ad312451b948a7413f0a142fd40d49347",
            "withdrawalsRoot" : "0x56e81f171bcc55a6ff8345e692c0f86e5b48e01b996cadc001622fb5e363b421"
        },
        "genesisRLP" : "0xf90218f90212a00000000000000000000000000000000000000000000000000000000000000000a01dcc4de8dec75d7aab85b567b6ccd41ad312451b948a7413f0a142fd40d49347942adc25665018aa1fe0e6bc666dac8fc2697ff9baa0db41a3fed177678e79a2165657b2507439a9bc7629f7ee0014a168ce8dde1fcca056e81f171bcc55a6ff8345e692c0f86e5b48e01b996cadc001622fb5e363b421a056e81f171bcc55a6ff8345e692c0f86e5b48e01b996cadc001622fb5e363b421b9010000000000000000000000000000000000000000000000000000000000000000000000000000000000000000000000000000000000000000000000000000000000000000000000000000000000000000000000000000000000000000000000000000000000000000000000000000000000000000000000000000000000000000000000000000000000000000000000000000000000000000000000000000000000000000000000000000000000000000000000000000000000000000000000000000000000000000000000000000000000000000000000000000000000000000000000000000000000000000000000000000000000000000000000000000000000808083989680808000a000000000000000000000000000000000000000000000000000000000000200008800000000000000000ba056e81f171bcc55a6ff8345e692c0f86e5b48e01b996cadc001622fb5e363b421c0c0c0",
        "lastblockhash" : "0xaafacddcefb99ebf027323d5608321bf7a526a66f87176e041052151c2d8ded4",
        "network" : "Shanghai",
        "postState" : {
            "0xa94f5374fce5edbc8e2a8697c15331677e6ebf0b" : {
                "balance" : "0xe8d4907690",
                "code" : "0x",
                "nonce" : "0x01",
                "storage" : {
                }
            },
            "0xb94f5374fce5edbc8e2a8697c15331677e6ebf0b" : {
                "balance" : "0x00",
                "code" : "0x5a600055600060006000600073c94f5374fce5edbc8e2a8697c15331677e6ebf0b61ea60f4600155600c600255600c600355600c6004555a60645500",
                "nonce" : "0x00",
                "storage" : {
                }
            },
            "0xc94f5374fce5edbc8e2a8697c15331677e6ebf0b" : {
                "balance" : "0x00",
                "code" : "0x",
                "nonce" : "0x00",
                "storage" : {
                }
            }
        },
        "pre" : {
            "0xa94f5374fce5edbc8e2a8697c15331677e6ebf0b" : {
                "balance" : "0xe8d4a51000",
                "code" : "0x",
                "nonce" : "0x00",
                "storage" : {
                }
            },
            "0xb94f5374fce5edbc8e2a8697c15331677e6ebf0b" : {
                "balance" : "0x00",
                "code" : "0x5a600055600060006000600073c94f5374fce5edbc8e2a8697c15331677e6ebf0b61ea60f4600155600c600255600c600355600c6004555a60645500",
                "nonce" : "0x00",
                "storage" : {
                }
            },
            "0xc94f5374fce5edbc8e2a8697c15331677e6ebf0b" : {
                "balance" : "0x00",
                "code" : "0x",
                "nonce" : "0x00",
                "storage" : {
                }
            }
        },
        "sealEngine" : "NoProof"
    }
}