{
    "NonZeroValue_TransactionCALL" : {
        "_info" : {
            "comment" : "",
            "filling-rpc-server" : "evm version 1.11.4-unstable-e14043db-20230308",
            "filling-tool-version" : "retesteth-0.3.0-shanghai+commit.fd2c0a83.Linux.g++",
            "generatedTestHash" : "321f94314e7ee63c8c82a5ddf1ad5f7c4015da89b315bf72fd31fae5a6c2d71f",
            "lllcversion" : "Version: 0.5.14-develop.2022.7.30+commit.a096d7a9.Linux.g++",
            "solidity" : "Version: 0.8.17+commit.8df45f5f.Linux.g++",
            "source" : "src/GeneralStateTestsFiller/stNonZeroCallsTest/NonZeroValue_TransactionCALLFiller.json",
            "sourceHash" : "05e63a81ec905986a30588279fc0559591631508e3db62b4ab6a2e0194664062"
        },
        "env" : {
            "currentBaseFee" : "0x0a",
            "currentCoinbase" : "0x2adc25665018aa1fe0e6bc666dac8fc2697ff9ba",
            "currentDifficulty" : "0x020000",
            "currentGasLimit" : "0x989680",
            "currentNumber" : "0x01",
            "currentRandom" : "0x0000000000000000000000000000000000000000000000000000000000020000",
            "currentTimestamp" : "0x03e8",
            "previousHash" : "0x5e20a0453cecd065ea59c37ac63e079ee08998b6045136a8ce6635c7912ec0b6"
        },
        "post" : {
            "Berlin" : [
                {
                    "hash" : "0x8eec29e3dd07419e802e92c627eb9594838d092b7e22aeb3de56bc667c8e86b8",
                    "indexes" : {
                        "data" : 0,
                        "gas" : 0,
                        "value" : 0
                    },
                    "logs" : "0x1dcc4de8dec75d7aab85b567b6ccd41ad312451b948a7413f0a142fd40d49347",
                    "txbytes" : "0xf860800a830927c094b94f5374fce5edbc8e2a8697c15331677e6ebf0b01801ca0991fadf4b91da15f71a60c4a91fa3edf3cbb43d37b6f5fd58d58544dfa32357ea0618764e5f3da6ec033e229850b71b32ea88b79f9a0273752c53d9de8b9fdb5cc"
                }
            ],
            "Istanbul" : [
                {
                    "hash" : "0x8eec29e3dd07419e802e92c627eb9594838d092b7e22aeb3de56bc667c8e86b8",
                    "indexes" : {
                        "data" : 0,
                        "gas" : 0,
                        "value" : 0
                    },
                    "logs" : "0x1dcc4de8dec75d7aab85b567b6ccd41ad312451b948a7413f0a142fd40d49347",
                    "txbytes" : "0xf860800a830927c094b94f5374fce5edbc8e2a8697c15331677e6ebf0b01801ca0991fadf4b91da15f71a60c4a91fa3edf3cbb43d37b6f5fd58d58544dfa32357ea0618764e5f3da6ec033e229850b71b32ea88b79f9a0273752c53d9de8b9fdb5cc"
                }
            ],
            "London" : [
                {
                    "hash" : "0xaf0aff18ccfcc2eae14cefd18b7a2d9c88d95b35132d3c9d02b6355391233a1a",
                    "indexes" : {
                        "data" : 0,
                        "gas" : 0,
                        "value" : 0
                    },
                    "logs" : "0x1dcc4de8dec75d7aab85b567b6ccd41ad312451b948a7413f0a142fd40d49347",
                    "txbytes" : "0xf860800a830927c094b94f5374fce5edbc8e2a8697c15331677e6ebf0b01801ca0991fadf4b91da15f71a60c4a91fa3edf3cbb43d37b6f5fd58d58544dfa32357ea0618764e5f3da6ec033e229850b71b32ea88b79f9a0273752c53d9de8b9fdb5cc"
                }
            ],
            "Merge" : [
                {
                    "hash" : "0xaf0aff18ccfcc2eae14cefd18b7a2d9c88d95b35132d3c9d02b6355391233a1a",
                    "indexes" : {
                        "data" : 0,
                        "gas" : 0,
                        "value" : 0
                    },
                    "logs" : "0x1dcc4de8dec75d7aab85b567b6ccd41ad312451b948a7413f0a142fd40d49347",
                    "txbytes" : "0xf860800a830927c094b94f5374fce5edbc8e2a8697c15331677e6ebf0b01801ca0991fadf4b91da15f71a60c4a91fa3edf3cbb43d37b6f5fd58d58544dfa32357ea0618764e5f3da6ec033e229850b71b32ea88b79f9a0273752c53d9de8b9fdb5cc"
                }
            ],
            "Shanghai" : [
                {
                    "hash" : "0xaf0aff18ccfcc2eae14cefd18b7a2d9c88d95b35132d3c9d02b6355391233a1a",
                    "indexes" : {
                        "data" : 0,
                        "gas" : 0,
                        "value" : 0
                    },
                    "logs" : "0x1dcc4de8dec75d7aab85b567b6ccd41ad312451b948a7413f0a142fd40d49347",
                    "txbytes" : "0xf860800a830927c094b94f5374fce5edbc8e2a8697c15331677e6ebf0b01801ca0991fadf4b91da15f71a60c4a91fa3edf3cbb43d37b6f5fd58d58544dfa32357ea0618764e5f3da6ec033e229850b71b32ea88b79f9a0273752c53d9de8b9fdb5cc"
                }
            ]
        },
        "pre" : {
            "0xa94f5374fce5edbc8e2a8697c15331677e6ebf0b" : {
                "balance" : "0xe8d4a51000",
                "code" : "0x",
                "nonce" : "0x00",
                "storage" : {
                }
            }
        },
        "transaction" : {
            "data" : [
                "0x"
            ],
            "gasLimit" : [
                "0x0927c0"
            ],
            "gasPrice" : "0x0a",
            "nonce" : "0x00",
            "secretKey" : "0x45a915e4d060149eb4365960e6a7a45f334393093061116b197e3240065ff2d8",
            "sender" : "0xa94f5374fce5edbc8e2a8697c15331677e6ebf0b",
            "to" : "0xb94f5374fce5edbc8e2a8697c15331677e6ebf0b",
            "value" : [
                "0x01"
            ]
        }
    }
}