{
    "CREATE2_EOF1Invalid_FromEOF" : {
        "_info" : {
            "comment" : "",
            "filling-rpc-server" : "evm version 1.11.0-unstable-bb1ff5f5-20230113",
            "filling-tool-version" : "retesteth-0.2.3-postmerge+commit.424c1882.Darwin.appleclang",
            "generatedTestHash" : "5f286250aee84299bdbf973d350d9fc3d67c1e9052dba68120baf46254418d48",
            "lllcversion" : "Error getting LLLC Version",
            "solidity" : "Version: 0.8.17+commit.8df45f5f.Darwin.appleclang",
            "source" : "src/GeneralStateTestsFiller/EIPTests/stEOF/stEIP3670/CREATE2_EOF1Invalid_FromEOFFiller.yml",
            "sourceHash" : "4c31ffb3f40fc35b528e707718dd450c285da1aa226c6eb1a1befed3e10e98c0"
        },
        "env" : {
            "currentBaseFee" : "0x0a",
            "currentCoinbase" : "0x2adc25665018aa1fe0e6bc666dac8fc2697ff9ba",
            "currentDifficulty" : "0x020000",
            "currentGasLimit" : "0x05500000",
            "currentNumber" : "0x01",
            "currentRandom" : "0x0000000000000000000000000000000000000000000000000000000000020000",
            "currentTimestamp" : "0x03e8",
            "previousHash" : "0x5e20a0453cecd065ea59c37ac63e079ee08998b6045136a8ce6635c7912ec0b6"
        },
        "post" : {
            "Shanghai" : [
                {
                    "hash" : "0x7cc06e6aafa2f2214410f9587dad1dff3d69cc2de0cf9fd340b2785b1a3f2ed0",
                    "indexes" : {
                        "data" : 0,
                        "gas" : 0,
                        "value" : 0
                    },
                    "logs" : "0x1dcc4de8dec75d7aab85b567b6ccd41ad312451b948a7413f0a142fd40d49347",
                    "txbytes" : "0xf889800a83e4e1c094b94f5374fce5edbc8e2a8697c15331677e6ebf0b80a97fef000101000402000100010300000000000000fe00000000000000000000000060005260146000f31ba0b75a910a4db50028ce9ff195adbb926cff1a4581be101ef04041bd17186d9a14a062f0d5a721d142269ca1ae401ad227561dd1b5b8055ceb31a7d7184207469491"
                }
            ]
        },
        "pre" : {
            "0xa94f5374fce5edbc8e2a8697c15331677e6ebf0b" : {
                "balance" : "0x0bebc200",
                "code" : "0x",
                "nonce" : "0x00",
                "storage" : {
                }
            },
            "0xb94f5374fce5edbc8e2a8697c15331677e6ebf0b" : {
                "balance" : "0x00",
                "code" : "0xef00010100040200010017030000000000000436600060003760003660006000f5600055600160015500",
                "nonce" : "0x00",
                "storage" : {
                }
            }
        },
        "transaction" : {
            "data" : [
                "0x7fef000101000402000100010300000000000000fe00000000000000000000000060005260146000f3"
            ],
            "gasLimit" : [
                "0xe4e1c0"
            ],
            "gasPrice" : "0x0a",
            "nonce" : "0x00",
            "secretKey" : "0x45a915e4d060149eb4365960e6a7a45f334393093061116b197e3240065ff2d8",
            "sender" : "0xa94f5374fce5edbc8e2a8697c15331677e6ebf0b",
            "to" : "0xb94f5374fce5edbc8e2a8697c15331677e6ebf0b",
            "value" : [
                "0x00"
            ]
        }
    }
}