{
    "CREATE2_EOF1DeployValidPUSHOpcodes" : {
        "_info" : {
            "comment" : "",
            "filling-rpc-server" : "evm version 1.11.0-unstable-523eca28-20221222",
            "filling-tool-version" : "retesteth-0.2.3-postmerge+commit.5a5e07fd.Linux.g++",
            "generatedTestHash" : "9961fa11f9c57fcbfe9f7ca6c6308789039be9384de6ab4c6b6d13e56eebd5e5",
            "labels" : {
                "0" : "push1",
                "1" : "push2",
                "10" : "push11",
                "11" : "push12",
                "12" : "push13",
                "13" : "push14",
                "14" : "push15",
                "15" : "push16",
                "16" : "push17",
                "17" : "push18",
                "18" : "push19",
                "19" : "push20",
                "2" : "push3",
                "20" : "push21",
                "21" : "push22",
                "22" : "push23",
                "23" : "push24",
                "24" : "push25",
                "25" : "push26",
                "26" : "push27",
                "27" : "push28",
                "28" : "push29",
                "29" : "push30",
                "3" : "push4",
                "30" : "push31",
                "31" : "push32",
                "4" : "push5",
                "5" : "push6",
                "6" : "push7",
                "7" : "push8",
                "8" : "push9",
                "9" : "push10"
            },
            "lllcversion" : "Version: 0.5.14-develop.2022.4.6+commit.401d5358.Linux.g++",
            "solidity" : "Version: 0.8.5+commit.a4f2e591.Linux.g++",
            "source" : "src/GeneralStateTestsFiller/EIPTests/stEOF/stEIP3670/CREATE2_EOF1DeployValidPUSHOpcodesFiller.yml",
            "sourceHash" : "7fc23d811640e4b76669b68e459d57f37b0f827fab2df622379982abe48e9150"
        },
        "env" : {
            "currentBaseFee" : "0x0a",
            "currentCoinbase" : "0x2adc25665018aa1fe0e6bc666dac8fc2697ff9ba",
            "currentDifficulty" : "0x020000",
            "currentGasLimit" : "0x05500000",
            "currentNumber" : "0x01",
            "currentRandom" : "0x0000000000000000000000000000000000000000000000000000000000020000",
            "currentTimestamp" : "0x03e8",
            "previousHash" : "0x5e20a0453cecd065ea59c37ac63e079ee08998b6045136a8ce6635c7912ec0b6"
        },
        "post" : {
            "Merge+3540+3670+4750" : [
                {
                    "hash" : "0x7a764e983eb9a70a4d195560cb7f6e49b79e2b17e0529fe1404d6add271495c8",
                    "indexes" : {
                        "data" : 0,
                        "gas" : 0,
                        "value" : 0
                    },
                    "logs" : "0x1dcc4de8dec75d7aab85b567b6ccd41ad312451b948a7413f0a142fd40d49347",
                    "txbytes" : "0xf889800a83e4e1c094b94f5374fce5edbc8e2a8697c15331677e6ebf0b80a97fef00010100030060ff0000000000000000000000000000000000000000000000600052600a6000f31ca09c7ef0fd2ff6e3116b3023955035e535b840f93d92eafd73929e8437e1c12310a0185dacbd097d6b8725f0373315a2f5e5f66c18cfd5d221c7ddc9e3c99f1b4633"
                },
                {
                    "hash" : "0xf531361998c4c2f40e2ca85250044f716115ebd43c5c7a4681891c3916c2fe23",
                    "indexes" : {
                        "data" : 1,
                        "gas" : 0,
                        "value" : 0
                    },
                    "logs" : "0x1dcc4de8dec75d7aab85b567b6ccd41ad312451b948a7413f0a142fd40d49347",
                    "txbytes" : "0xf889800a83e4e1c094b94f5374fce5edbc8e2a8697c15331677e6ebf0b80a97fef00010100040061fff300000000000000000000000000000000000000000000600052600b6000f31ba0752a1941792a908a2abdeca76fdd053aba253f80ca74455c5f4c219f9729cbf5a048760bb4d687962350a25c14e3b8622fd855c6dd47f253a4c498ee1d92f8ee1b"
                },
                {
                    "hash" : "0x4555b3efa2b18f26b84fc14ff4b88cae80062c5b7d8aa4f5d1139663c0d4e2e2",
                    "indexes" : {
                        "data" : 2,
                        "gas" : 0,
                        "value" : 0
                    },
                    "logs" : "0x1dcc4de8dec75d7aab85b567b6ccd41ad312451b948a7413f0a142fd40d49347",
                    "txbytes" : "0xf889800a83e4e1c094b94f5374fce5edbc8e2a8697c15331677e6ebf0b80a97fef00010100050062fff3fd000000000000000000000000000000000000000000600052600c6000f31ca09e4222501b97402adfc8dbee3b77fb6e7d9a6b2919502bc255d460d908da8072a010315ce4abfa7c115cbeb3958eb714c494cbfcc366d3eba7e1edab2f8298e958"
                },
                {
                    "hash" : "0x89b2e370df24d5e960c2731487a7750e1e39ba87f7d435811c22639eb6f833c3",
                    "indexes" : {
                        "data" : 3,
                        "gas" : 0,
                        "value" : 0
                    },
                    "logs" : "0x1dcc4de8dec75d7aab85b567b6ccd41ad312451b948a7413f0a142fd40d49347",
                    "txbytes" : "0xf889800a83e4e1c094b94f5374fce5edbc8e2a8697c15331677e6ebf0b80a97fef00010100060063fff3fdfe0000000000000000000000000000000000000000600052600d6000f31ca04b7b7f171ebf569e95e31e5c487e8fe9719613b05517cd96862bbb97a218e3e5a038301fd4644191d73c466cd1646fcb6110701f5484cc9afd239601a1d87d5eba"
                },
                {
                    "hash" : "0xca5893426e20405f0b9438b223e9b9b848229184dcf31c11c6a23e892efc29e4",
                    "indexes" : {
                        "data" : 4,
                        "gas" : 0,
                        "value" : 0
                    },
                    "logs" : "0x1dcc4de8dec75d7aab85b567b6ccd41ad312451b948a7413f0a142fd40d49347",
                    "txbytes" : "0xf889800a83e4e1c094b94f5374fce5edbc8e2a8697c15331677e6ebf0b80a97fef00010100070064fff3fdfeff00000000000000000000000000000000000000600052600e6000f31ca072b5b15887dbc2ffe6fcba876f455f77e31a6763324a2fbbf3b2597c437b75fba01ba82aa63509ed1e59a335abf05df62b0e7dbb0e368ddb81ab48e90b239e5738"
                },
                {
                    "hash" : "0x6b4b48d9d9e896381a5323e6a61d069bf3d6bba7b9fd880cfff9bbf1ee569601",
                    "indexes" : {
                        "data" : 5,
                        "gas" : 0,
                        "value" : 0
                    },
                    "logs" : "0x1dcc4de8dec75d7aab85b567b6ccd41ad312451b948a7413f0a142fd40d49347",
                    "txbytes" : "0xf889800a83e4e1c094b94f5374fce5edbc8e2a8697c15331677e6ebf0b80a97fef00010100080065fff3fdfeff00000000000000000000000000000000000000600052600f6000f31ba0f20b7e12fdbcd61f00fc0b17b9ea52b43a4b53b9886006cd157b0260b9b33b74a0305b8a4c89b5151e05f4c3e2bff72f567f7833daaaf1b945dd6716ef8434329f"
                },
                {
                    "hash" : "0x3f6ff3ba80267fafa52b74a4d7d3a2c69689a6538800ea8a680e5c3b60cc0862",
                    "indexes" : {
                        "data" : 6,
                        "gas" : 0,
                        "value" : 0
                    },
                    "logs" : "0x1dcc4de8dec75d7aab85b567b6ccd41ad312451b948a7413f0a142fd40d49347",
                    "txbytes" : "0xf889800a83e4e1c094b94f5374fce5edbc8e2a8697c15331677e6ebf0b80a97fef00010100090066fff3fdfeff00f3000000000000000000000000000000000060005260106000f31ca0a24bcd0963b7637c27d70b6f9696deebe97f251c50b9cc34b83da9156d41493fa03f178ccc32191ef968f62d802ef26b2c17e9ebaeea87559f595b781a737574aa"
                },
                {
                    "hash" : "0x401abf2461011c8d636d34e6f921f2a8d0b9b0adba15b9e998e80acf23005b58",
                    "indexes" : {
                        "data" : 7,
                        "gas" : 0,
                        "value" : 0
                    },
                    "logs" : "0x1dcc4de8dec75d7aab85b567b6ccd41ad312451b948a7413f0a142fd40d49347",
                    "txbytes" : "0xf889800a83e4e1c094b94f5374fce5edbc8e2a8697c15331677e6ebf0b80a97fef000101000a0067fff3fdfeff00f3fd0000000000000000000000000000000060005260116000f31ba0ce09f8b073b9a413132e816524aee1d8cb5e380b3f709f9df17674d51d1ed3b5a05179ae7ea560233f1c8ae811212a1dd7e65bebb4504a43b88e6c1f44061b30d8"
                },
                {
                    "hash" : "0x8e6c67fe94687faf556d1073a331d375310c72db6bbec69951079b2f71473c1b",
                    "indexes" : {
                        "data" : 8,
                        "gas" : 0,
                        "value" : 0
                    },
                    "logs" : "0x1dcc4de8dec75d7aab85b567b6ccd41ad312451b948a7413f0a142fd40d49347",
                    "txbytes" : "0xf889800a83e4e1c094b94f5374fce5edbc8e2a8697c15331677e6ebf0b80a97fef000101000b0068fff3fdfeff00f3fdfe00000000000000000000000000000060005260126000f31ca0a6d2046da62587aff1c40df1b52de64cdce17d7975153283e29862ef8953af1da0313934c18d2484015e17c48f50b2fdb28b9abf313461dea00280a02c5bea940c"
                },
                {
                    "hash" : "0x0efc107d4bbb42ab8e55a9d50600073839f47738f5b4bd952bed1e7b822c0e3f",
                    "indexes" : {
                        "data" : 9,
                        "gas" : 0,
                        "value" : 0
                    },
                    "logs" : "0x1dcc4de8dec75d7aab85b567b6ccd41ad312451b948a7413f0a142fd40d49347",
                    "txbytes" : "0xf889800a83e4e1c094b94f5374fce5edbc8e2a8697c15331677e6ebf0b80a97fef000101000c0069fff3fdfeff00f3fdfeff000000000000000000000000000060005260136000f31ba04088a1c23332d91ec60cc5f2016e030ef9c441031ad2061a01f40f823377a65aa037b5f4a47dbb692b652adf1b8f389a5a5447813da62f406f02e3283fda6eb637"
                },
                {
                    "hash" : "0x8c752c148d1e4f7732162727602116d4f190be7e33e0396e7ad4617ae62e9731",
                    "indexes" : {
                        "data" : 10,
                        "gas" : 0,
                        "value" : 0
                    },
                    "logs" : "0x1dcc4de8dec75d7aab85b567b6ccd41ad312451b948a7413f0a142fd40d49347",
                    "txbytes" : "0xf889800a83e4e1c094b94f5374fce5edbc8e2a8697c15331677e6ebf0b80a97fef000101000d006afff3fdfeff00f3fdfeff000000000000000000000000000060005260146000f31ca0feb7252bd39caf3eed54a88ab4a403d84c51d2d5ab6d4371fa8758d0fed8ddcfa0598f992ddfe391e493f3265ebc7eb97d8dfe3e3c525df0423c813c41de7944e7"
                },
                {
                    "hash" : "0x348fa9f231ceeccf66595e0dd82b26ded3fbd64261444a159a5e0b6d27d64adb",
                    "indexes" : {
                        "data" : 11,
                        "gas" : 0,
                        "value" : 0
                    },
                    "logs" : "0x1dcc4de8dec75d7aab85b567b6ccd41ad312451b948a7413f0a142fd40d49347",
                    "txbytes" : "0xf889800a83e4e1c094b94f5374fce5edbc8e2a8697c15331677e6ebf0b80a97fef000101000e006bfff3fdfeff00f3fdfeff00f300000000000000000000000060005260156000f31ba0f46b7931bdbb2fc0311019861ab622888e3ea86ca0843af93f2a756807788fb1a022443b858a7327decb5042c8ced1253911b8b89020fb73d617a6246cb5aafefa"
                },
                {
                    "hash" : "0x2b7baf0837d6caf582fabac633a9a50bc39459e6930ee0009637c716fe17738f",
                    "indexes" : {
                        "data" : 12,
                        "gas" : 0,
                        "value" : 0
                    },
                    "logs" : "0x1dcc4de8dec75d7aab85b567b6ccd41ad312451b948a7413f0a142fd40d49347",
                    "txbytes" : "0xf889800a83e4e1c094b94f5374fce5edbc8e2a8697c15331677e6ebf0b80a97fef000101000f006cfff3fdfeff00f3fdfeff00f3fd000000000000000000000060005260166000f31ba0d02493acb1bbdf18bfeaed78a9792181416b7635e2f38c2bf075ab7e7f1eb6caa020632a7e874c2c03614469b1e5991c55775f2ce4f02900768e584c6381a79536"
                },
                {
                    "hash" : "0x783fad57fd397737213877f4aae32613a10c00b595488d2d89e460fee8512d85",
                    "indexes" : {
                        "data" : 13,
                        "gas" : 0,
                        "value" : 0
                    },
                    "logs" : "0x1dcc4de8dec75d7aab85b567b6ccd41ad312451b948a7413f0a142fd40d49347",
                    "txbytes" : "0xf889800a83e4e1c094b94f5374fce5edbc8e2a8697c15331677e6ebf0b80a97fef0001010010006dfff3fdfeff00f3fdfeff00f3fdfe0000000000000000000060005260176000f31ba0ab968ff11ca06dccedfecde05ab6ebc64d0c204b2857e6c50e45cb79c162c892a05fec9505ec8e292c38af6bd239e6589f3175ccd3833c93d01a1b8a4064e9ed00"
                },
                {
                    "hash" : "0x2039746fdf424fc10025fe463aae4cde94d1af7769243d73692d125ed5840ee1",
                    "indexes" : {
                        "data" : 14,
                        "gas" : 0,
                        "value" : 0
                    },
                    "logs" : "0x1dcc4de8dec75d7aab85b567b6ccd41ad312451b948a7413f0a142fd40d49347",
                    "txbytes" : "0xf888800a83e4e1c094b94f5374fce5edbc8e2a8697c15331677e6ebf0b80a97fef0001010011006efff3fdfeff00f3fdfeff00f3fdfeff00000000000000000060005260186000f31b9fdc97ffa174fa327e5ec4fe35b06647ab5a1b1333923844cc34c514fd4bc7d8a07753b1fdbf827b683b6797b2c38f4feb036cb5564083b66e85b57f000e5d70db"
                },
                {
                    "hash" : "0x90c9b7b19e447b19f1cb72927c1817b5c2251d575b1fbc292098ff4d7dac9a12",
                    "indexes" : {
                        "data" : 15,
                        "gas" : 0,
                        "value" : 0
                    },
                    "logs" : "0x1dcc4de8dec75d7aab85b567b6ccd41ad312451b948a7413f0a142fd40d49347",
                    "txbytes" : "0xf889800a83e4e1c094b94f5374fce5edbc8e2a8697c15331677e6ebf0b80a97fef0001010012006ffff3fdfeff00f3fdfeff00f3fdfeff00000000000000000060005260196000f31ca0e79ec2fbbeb9d6613b9722cb9fb48faa235e3b401fd99cda67e71beac77f22d0a003ebe665da73d367d99884bc15dd0921a69b6a1e53bb2cb76bcb0eab46fc3bc4"
                },
                {
                    "hash" : "0xdb6b78df40be22e36772a68ae0d9458e0084752dd02bc981a67b34fb86e02553",
                    "indexes" : {
                        "data" : 16,
                        "gas" : 0,
                        "value" : 0
                    },
                    "logs" : "0x1dcc4de8dec75d7aab85b567b6ccd41ad312451b948a7413f0a142fd40d49347",
                    "txbytes" : "0xf889800a83e4e1c094b94f5374fce5edbc8e2a8697c15331677e6ebf0b80a97fef00010100130070fff3fdfeff00f3fdfeff00f3fdfeff00f300000000000000600052601a6000f31ca079ade22940a890fab55add6ecc408bbf29383033a110cd40e0fc768fa4d5385ca037be0dc48534134a00445adc4cb95d1cf3730c0c65697a24a6843d4fa33916e8"
                },
                {
                    "hash" : "0xe08e00d42c7cedf74af64b4f3a58443c72be45acae783d3dbfcad301b83fbd55",
                    "indexes" : {
                        "data" : 17,
                        "gas" : 0,
                        "value" : 0
                    },
                    "logs" : "0x1dcc4de8dec75d7aab85b567b6ccd41ad312451b948a7413f0a142fd40d49347",
                    "txbytes" : "0xf889800a83e4e1c094b94f5374fce5edbc8e2a8697c15331677e6ebf0b80a97fef00010100140071fff3fdfeff00f3fdfeff00f3fdfeff00f3fd000000000000600052601b6000f31ba0163275325014e5cb3d0101054c5f8f847414e065e17d7fbcbcdb6678dcc68fb5a00306d9f08d527fad50ffeb939bc1e81816d66e28b5ad6c67ef89ad2de90d7bfb"
                },
                {
                    "hash" : "0x5f4479d3c32f0d5445a818318e16e8e8476491243ae89d9e6c3ff7b997ba505e",
                    "indexes" : {
                        "data" : 18,
                        "gas" : 0,
                        "value" : 0
                    },
                    "logs" : "0x1dcc4de8dec75d7aab85b567b6ccd41ad312451b948a7413f0a142fd40d49347",
                    "txbytes" : "0xf889800a83e4e1c094b94f5374fce5edbc8e2a8697c15331677e6ebf0b80a97fef00010100150072fff3fdfeff00f3fdfeff00f3fdfeff00f3fdfe0000000000600052601c6000f31ba03442498423c17433854b29fb5572eb3d8ce57db2c10f391c00a42986c41a8854a071a3069837497431d2d703dd89fa9f08ffea119aac8841cea34625cf9a2c8510"
                },
                {
                    "hash" : "0x16ae98553ef037455d15316b872fae7717bdffce5f809f495af2e51ff71cb286",
                    "indexes" : {
                        "data" : 19,
                        "gas" : 0,
                        "value" : 0
                    },
                    "logs" : "0x1dcc4de8dec75d7aab85b567b6ccd41ad312451b948a7413f0a142fd40d49347",
                    "txbytes" : "0xf889800a83e4e1c094b94f5374fce5edbc8e2a8697c15331677e6ebf0b80a97fef00010100160073fff3fdfeff00f3fdfeff00f3fdfeff00f3fdfeff00000000600052601d6000f31ba04515bc6ce2e2f46e9841008d770b0d6d2dcaeed238e346c1f8339580a1d3bb8ca06683869bdff23f07ed87cdef23976da4bc9049edfe9230af5acbc46fa5d3e4ae"
                },
                {
                    "hash" : "0x88209cdfe13f445f88174bc389926477a49ac8d095b5aadfb4152eee0a5aebc1",
                    "indexes" : {
                        "data" : 20,
                        "gas" : 0,
                        "value" : 0
                    },
                    "logs" : "0x1dcc4de8dec75d7aab85b567b6ccd41ad312451b948a7413f0a142fd40d49347",
                    "txbytes" : "0xf889800a83e4e1c094b94f5374fce5edbc8e2a8697c15331677e6ebf0b80a97fef00010100170074fff3fdfeff00f3fdfeff00f3fdfeff00f3fdfeff00000000600052601e6000f31ca024e884ed86bf9e1769ef9751fd9e8d139635ab438efa89b62dd3d4f13f537092a01dbdf64d079e7042e5d6ef33914f5b8a8efec7b8b1a7fa3ac84e118ea2d9b2e3"
                },
                {
                    "hash" : "0x25849c5fcab7f80af2d82943d16b64307df726034974432e2092bfc4971f2bce",
                    "indexes" : {
                        "data" : 21,
                        "gas" : 0,
                        "value" : 0
                    },
                    "logs" : "0x1dcc4de8dec75d7aab85b567b6ccd41ad312451b948a7413f0a142fd40d49347",
                    "txbytes" : "0xf889800a83e4e1c094b94f5374fce5edbc8e2a8697c15331677e6ebf0b80a97fef00010100180075fff3fdfeff00f3fdfeff00f3fdfeff00f3fdfeff00f30000600052601f6000f31ba088fdcc9ba4c73976980e36910a6fa91216c6a68314c3b326f933bb4d5f1602aba068674f3d85dc69df167ff3c792cddcb77ec8c3f5af010578c03104f7364ffcdd"
                },
                {
                    "hash" : "0x3cecdaa4e34402ffcad41903d83da30a0f21303bc7443ace82c1a1423018937d",
                    "indexes" : {
                        "data" : 22,
                        "gas" : 0,
                        "value" : 0
                    },
                    "logs" : "0x1dcc4de8dec75d7aab85b567b6ccd41ad312451b948a7413f0a142fd40d49347",
                    "txbytes" : "0xf889800a83e4e1c094b94f5374fce5edbc8e2a8697c15331677e6ebf0b80a97fef00010100190076fff3fdfeff00f3fdfeff00f3fdfeff00f3fdfeff00f3fd0060005260206000f31ca03bd35b775af2a6871d12389af2ad2f12743f58f01c3fb6b4bc7201ebaa4830d3a0220b0539b9f500e4ebbc27200ae8d3eb70a7ae9efffdeafb64866ad1e283b155"
                },
                {
                    "hash" : "0x544c8f9b8936afdf729e46b947a9f84ef599c5efcbb5391007d7b511382d7868",
                    "indexes" : {
                        "data" : 23,
                        "gas" : 0,
                        "value" : 0
                    },
                    "logs" : "0x1dcc4de8dec75d7aab85b567b6ccd41ad312451b948a7413f0a142fd40d49347",
                    "txbytes" : "0xf88e800a83e4e1c094b94f5374fce5edbc8e2a8697c15331677e6ebf0b80ae7fef000101001a0077fff3fdfeff00f3fdfeff00f3fdfeff00f3fdfeff00f3fdfe600052600060205260216000f31ba031b34ed6a5b83ff9da56b3893b467b020813d9046b4c6a2d1f0489f6cacc6fafa05a599e36751d4753cc921ad1cb6cb0aeba0370e1b7d52a13dfdeaf0ab9dd8b47"
                },
                {
                    "hash" : "0xaac228790a979f35a28680eef9df1f7907b39452f71b6ccdffde88123b283f92",
                    "indexes" : {
                        "data" : 24,
                        "gas" : 0,
                        "value" : 0
                    },
                    "logs" : "0x1dcc4de8dec75d7aab85b567b6ccd41ad312451b948a7413f0a142fd40d49347",
                    "txbytes" : "0xf8ae800a83e4e1c094b94f5374fce5edbc8e2a8697c15331677e6ebf0b80b84d7fef000101001b0078fff3fdfeff00f3fdfeff00f3fdfeff00f3fdfeff00f3fdfe6000527fff0000000000000000000000000000000000000000000000000000000000000060205260226000f31ba037204002c24d13307a43685f74d521d3ede08e8c2abff4923049944921cc767ea030a7f470475ad8865b7eb626d1ff386a03f59a7fb5dae70cb3006d0a3c2db95d"
                },
                {
                    "hash" : "0x31981026a831dffb0a12aaf6d9c48852e04a33f8653f965caa014035df63ae64",
                    "indexes" : {
                        "data" : 25,
                        "gas" : 0,
                        "value" : 0
                    },
                    "logs" : "0x1dcc4de8dec75d7aab85b567b6ccd41ad312451b948a7413f0a142fd40d49347",
                    "txbytes" : "0xf8ae800a83e4e1c094b94f5374fce5edbc8e2a8697c15331677e6ebf0b80b84d7fef000101001c0079fff3fdfeff00f3fdfeff00f3fdfeff00f3fdfeff00f3fdfe6000527fff0000000000000000000000000000000000000000000000000000000000000060205260236000f31ba02320d31477cc3ba6237a88abcb644debc466fd8bb1440b90f678da8fabf13c7ca075c8767234bfc0251a26ac652b7a9ae0ecf08026d18b75c5cb689daceb1bc94f"
                },
                {
                    "hash" : "0x408df3c9563279a657ee7dedb4bae3e8980d0b5739d9e7b1ee64a4cbf461f94b",
                    "indexes" : {
                        "data" : 26,
                        "gas" : 0,
                        "value" : 0
                    },
                    "logs" : "0x1dcc4de8dec75d7aab85b567b6ccd41ad312451b948a7413f0a142fd40d49347",
                    "txbytes" : "0xf8ae800a83e4e1c094b94f5374fce5edbc8e2a8697c15331677e6ebf0b80b84d7fef000101001d007afff3fdfeff00f3fdfeff00f3fdfeff00f3fdfeff00f3fdfe6000527fff00f3000000000000000000000000000000000000000000000000000000000060205260246000f31ca03f76d126bd47875ab57d121aefd0fb1653834b2abe42a93a9c8322e02a335382a01e11dff3a11f1f81bf4dc7be71b5f868b22bbdc662eac68d2d2ad8893a45d56d"
                },
                {
                    "hash" : "0x1b3d393f2b61204dcc2e695f2f992f0ccbeb952370ee269f4993b82acc70b06f",
                    "indexes" : {
                        "data" : 27,
                        "gas" : 0,
                        "value" : 0
                    },
                    "logs" : "0x1dcc4de8dec75d7aab85b567b6ccd41ad312451b948a7413f0a142fd40d49347",
                    "txbytes" : "0xf8ae800a83e4e1c094b94f5374fce5edbc8e2a8697c15331677e6ebf0b80b84d7fef000101001e007bfff3fdfeff00f3fdfeff00f3fdfeff00f3fdfeff00f3fdfe6000527fff00f3fd0000000000000000000000000000000000000000000000000000000060205260256000f31ca07edb04f5610592d8e239b9a2298e234ef9642f65db2a3739dafca858581380e7a05e3a281f1d9c3a02c6117147a18e5c9cd9e6c4903718ac7e4bc86c45bc995a8c"
                },
                {
                    "hash" : "0x8a5bc21d1de8c5ca620d91f066fe52a0c0f74966b03f4f719163ac81eba3ae8f",
                    "indexes" : {
                        "data" : 28,
                        "gas" : 0,
                        "value" : 0
                    },
                    "logs" : "0x1dcc4de8dec75d7aab85b567b6ccd41ad312451b948a7413f0a142fd40d49347",
                    "txbytes" : "0xf8ae800a83e4e1c094b94f5374fce5edbc8e2a8697c15331677e6ebf0b80b84d7fef000101001f007cfff3fdfeff00f3fdfeff00f3fdfeff00f3fdfeff00f3fdfe6000527fff00f3fdfe00000000000000000000000000000000000000000000000000000060205260266000f31ca0b27ea4677fe4d854c4858d1ee833d56245fbd4e0407a5cad294e8587f830c44ea03f514bdb81b6546a3a6f55e4601f8010868d6d3a0458d8a01b962756f83b0407"
                },
                {
                    "hash" : "0x5ad496d7b5c66eadacdcabbf45055f6640824ae3704533f49af31edda216e715",
                    "indexes" : {
                        "data" : 29,
                        "gas" : 0,
                        "value" : 0
                    },
                    "logs" : "0x1dcc4de8dec75d7aab85b567b6ccd41ad312451b948a7413f0a142fd40d49347",
                    "txbytes" : "0xf8ae800a83e4e1c094b94f5374fce5edbc8e2a8697c15331677e6ebf0b80b84d7fef0001010020007dfff3fdfeff00f3fdfeff00f3fdfeff00f3fdfeff00f3fdfe6000527fff00f3fdfeff000000000000000000000000000000000000000000000000000060205260276000f31ca09bb89fd183ccf13bd8b0774f284a706bee2c1d49b761e45eea7b486479c13dcaa03c9e096fb1ada2c1b9ed991aacf09afd8d498d86b494aa6c92d5465bc975e42b"
                },
                {
                    "hash" : "0x880696a4e276772f169ea24b1b1527165ee45c7274c7b2b4ea287f07ded780b9",
                    "indexes" : {
                        "data" : 30,
                        "gas" : 0,
                        "value" : 0
                    },
                    "logs" : "0x1dcc4de8dec75d7aab85b567b6ccd41ad312451b948a7413f0a142fd40d49347",
                    "txbytes" : "0xf8ae800a83e4e1c094b94f5374fce5edbc8e2a8697c15331677e6ebf0b80b84d7fef0001010021007efff3fdfeff00f3fdfeff00f3fdfeff00f3fdfeff00f3fdfe6000527fff00f3fdfeff000000000000000000000000000000000000000000000000000060205260286000f31ba0351a51409c6037c38df0eb39e823e1eeab0be5b0a0d0e1b477df306449c0f25da03c2fae7dcf582a16cf38604abbbf0685cea51ff08f238f92c33260cc38173c2d"
                },
                {
                    "hash" : "0xe830a78ee736c16079b3940fab86440e58c4e08dc56bfc69f91e8b30a5da6aef",
                    "indexes" : {
                        "data" : 31,
                        "gas" : 0,
                        "value" : 0
                    },
                    "logs" : "0x1dcc4de8dec75d7aab85b567b6ccd41ad312451b948a7413f0a142fd40d49347",
                    "txbytes" : "0xf8ae800a83e4e1c094b94f5374fce5edbc8e2a8697c15331677e6ebf0b80b84d7fef0001010022007ffff3fdfeff00f3fdfeff00f3fdfeff00f3fdfeff00f3fdfe6000527fff00f3fdfeff00f300000000000000000000000000000000000000000000000060205260296000f31ca0a76159e071bbc958ebd65a55424709c3f668328147e33fd68c7651a8496e4cf9a003f71ba68ca0f602183a4993ed9f30db0f7bd3560284917c02a236350564ea47"
                }
            ]
        },
        "pre" : {
            "0xa94f5374fce5edbc8e2a8697c15331677e6ebf0b" : {
                "balance" : "0x0bebc200",
                "code" : "0x",
                "nonce" : "0x00",
                "storage" : {
                }
            },
            "0xb94f5374fce5edbc8e2a8697c15331677e6ebf0b" : {
                "balance" : "0x00",
                "code" : "0x3680600060003760008160006000f51560185760016001555b50",
                "nonce" : "0x00",
                "storage" : {
                }
            }
        },
        "transaction" : {
            "data" : [
                "0x7fef00010100030060ff0000000000000000000000000000000000000000000000600052600a6000f3",
                "0x7fef00010100040061fff300000000000000000000000000000000000000000000600052600b6000f3",
                "0x7fef00010100050062fff3fd000000000000000000000000000000000000000000600052600c6000f3",
                "0x7fef00010100060063fff3fdfe0000000000000000000000000000000000000000600052600d6000f3",
                "0x7fef00010100070064fff3fdfeff00000000000000000000000000000000000000600052600e6000f3",
                "0x7fef00010100080065fff3fdfeff00000000000000000000000000000000000000600052600f6000f3",
                "0x7fef00010100090066fff3fdfeff00f3000000000000000000000000000000000060005260106000f3",
                "0x7fef000101000a0067fff3fdfeff00f3fd0000000000000000000000000000000060005260116000f3",
                "0x7fef000101000b0068fff3fdfeff00f3fdfe00000000000000000000000000000060005260126000f3",
                "0x7fef000101000c0069fff3fdfeff00f3fdfeff000000000000000000000000000060005260136000f3",
                "0x7fef000101000d006afff3fdfeff00f3fdfeff000000000000000000000000000060005260146000f3",
                "0x7fef000101000e006bfff3fdfeff00f3fdfeff00f300000000000000000000000060005260156000f3",
                "0x7fef000101000f006cfff3fdfeff00f3fdfeff00f3fd000000000000000000000060005260166000f3",
                "0x7fef0001010010006dfff3fdfeff00f3fdfeff00f3fdfe0000000000000000000060005260176000f3",
                "0x7fef0001010011006efff3fdfeff00f3fdfeff00f3fdfeff00000000000000000060005260186000f3",
                "0x7fef0001010012006ffff3fdfeff00f3fdfeff00f3fdfeff00000000000000000060005260196000f3",
                "0x7fef00010100130070fff3fdfeff00f3fdfeff00f3fdfeff00f300000000000000600052601a6000f3",
                "0x7fef00010100140071fff3fdfeff00f3fdfeff00f3fdfeff00f3fd000000000000600052601b6000f3",
                "0x7fef00010100150072fff3fdfeff00f3fdfeff00f3fdfeff00f3fdfe0000000000600052601c6000f3",
                "0x7fef00010100160073fff3fdfeff00f3fdfeff00f3fdfeff00f3fdfeff00000000600052601d6000f3",
                "0x7fef00010100170074fff3fdfeff00f3fdfeff00f3fdfeff00f3fdfeff00000000600052601e6000f3",
                "0x7fef00010100180075fff3fdfeff00f3fdfeff00f3fdfeff00f3fdfeff00f30000600052601f6000f3",
                "0x7fef00010100190076fff3fdfeff00f3fdfeff00f3fdfeff00f3fdfeff00f3fd0060005260206000f3",
                "0x7fef000101001a0077fff3fdfeff00f3fdfeff00f3fdfeff00f3fdfeff00f3fdfe600052600060205260216000f3",
                "0x7fef000101001b0078fff3fdfeff00f3fdfeff00f3fdfeff00f3fdfeff00f3fdfe6000527fff0000000000000000000000000000000000000000000000000000000000000060205260226000f3",
                "0x7fef000101001c0079fff3fdfeff00f3fdfeff00f3fdfeff00f3fdfeff00f3fdfe6000527fff0000000000000000000000000000000000000000000000000000000000000060205260236000f3",
                "0x7fef000101001d007afff3fdfeff00f3fdfeff00f3fdfeff00f3fdfeff00f3fdfe6000527fff00f3000000000000000000000000000000000000000000000000000000000060205260246000f3",
                "0x7fef000101001e007bfff3fdfeff00f3fdfeff00f3fdfeff00f3fdfeff00f3fdfe6000527fff00f3fd0000000000000000000000000000000000000000000000000000000060205260256000f3",
                "0x7fef000101001f007cfff3fdfeff00f3fdfeff00f3fdfeff00f3fdfeff00f3fdfe6000527fff00f3fdfe00000000000000000000000000000000000000000000000000000060205260266000f3",
                "0x7fef0001010020007dfff3fdfeff00f3fdfeff00f3fdfeff00f3fdfeff00f3fdfe6000527fff00f3fdfeff000000000000000000000000000000000000000000000000000060205260276000f3",
                "0x7fef0001010021007efff3fdfeff00f3fdfeff00f3fdfeff00f3fdfeff00f3fdfe6000527fff00f3fdfeff000000000000000000000000000000000000000000000000000060205260286000f3",
                "0x7fef0001010022007ffff3fdfeff00f3fdfeff00f3fdfeff00f3fdfeff00f3fdfe6000527fff00f3fdfeff00f300000000000000000000000000000000000000000000000060205260296000f3"
            ],
            "gasLimit" : [
                "0xe4e1c0"
            ],
            "gasPrice" : "0x0a",
            "nonce" : "0x00",
            "secretKey" : "0x45a915e4d060149eb4365960e6a7a45f334393093061116b197e3240065ff2d8",
            "sender" : "0xa94f5374fce5edbc8e2a8697c15331677e6ebf0b",
            "to" : "0xb94f5374fce5edbc8e2a8697c15331677e6ebf0b",
            "value" : [
                "0x00"
            ]
        }
    }
}