{
    "CREATE_EOF1DeployValidOpcodes" : {
        "_info" : {
            "comment" : "",
            "filling-rpc-server" : "evm version 1.11.0-unstable-523eca28-20221222",
            "filling-tool-version" : "retesteth-0.2.3-postmerge+commit.5a5e07fd.Linux.g++",
            "generatedTestHash" : "9e33ec14ce25950613c70df17d0aa1b5b0ec4a54d2cb86500e428f566111c149",
            "lllcversion" : "Version: 0.5.14-develop.2022.4.6+commit.401d5358.Linux.g++",
            "solidity" : "Version: 0.8.5+commit.a4f2e591.Linux.g++",
            "source" : "src/GeneralStateTestsFiller/EIPTests/stEOF/stEIP3670/CREATE_EOF1DeployValidOpcodesFiller.yml",
            "sourceHash" : "5be10b3f43779316e9f0ede3d1ecc501f4fec51f1e116b073d40f43815b4dbf7"
        },
        "env" : {
            "currentBaseFee" : "0x0a",
            "currentCoinbase" : "0x2adc25665018aa1fe0e6bc666dac8fc2697ff9ba",
            "currentDifficulty" : "0x020000",
            "currentGasLimit" : "0x05500000",
            "currentNumber" : "0x01",
            "currentRandom" : "0x0000000000000000000000000000000000000000000000000000000000020000",
            "currentTimestamp" : "0x03e8",
            "previousHash" : "0x5e20a0453cecd065ea59c37ac63e079ee08998b6045136a8ce6635c7912ec0b6"
        },
        "post" : {
            "Merge+3540+3670+4750" : [
                {
                    "hash" : "0x6f31fc5090da472becd76707f8c2fdc085a0c3ff26c7a8ab2d8288937116501c",
                    "indexes" : {
                        "data" : 0,
                        "gas" : 0,
                        "value" : 0
                    },
                    "logs" : "0x1dcc4de8dec75d7aab85b567b6ccd41ad312451b948a7413f0a142fd40d49347",
                    "txbytes" : "0xf861800a84054e084094b94f5374fce5edbc8e2a8697c15331677e6ebf0b80801ba0033643c291802fb9bf63c2978346be7fa332e88e3e541d33b0c2d9da60c4f804a0633805b5cbf4231cd078de9fd797ed684c0b0821e4aef143e06e11a57b8ce8dc"
                }
            ]
        },
        "pre" : {
            "0xa94f5374fce5edbc8e2a8697c15331677e6ebf0b" : {
                "balance" : "0x3b9aca00",
                "code" : "0x",
                "nonce" : "0x00",
                "storage" : {
                }
            },
            "0xb94f5374fce5edbc8e2a8697c15331677e6ebf0b" : {
                "balance" : "0x00",
                "code" : "0x7e0102030405060708090a0b101112131415161718191a1b1c1d2030313233346000527f35363738393a3b3c3d3e3f404142434445464748505153545558595a5b8081826020527f838485868788898a8b8c8d8e8f909192939495969798999a9b9c9d9e9fa0a1a26040527fa3a4f0f1f3f4f5fafdfe000000000000000000000000000000000000000000006060527f68ef000101000200000060005260096017f3000000000000000000000000000060805260005b606a81101560e357805160f81c80608853601360806000f0151560d757600181555b505b60018101905060b5565b50600161010055",
                "nonce" : "0x00",
                "storage" : {
                }
            }
        },
        "transaction" : {
            "data" : [
                "0x"
            ],
            "gasLimit" : [
                "0x054e0840"
            ],
            "gasPrice" : "0x0a",
            "nonce" : "0x00",
            "secretKey" : "0x45a915e4d060149eb4365960e6a7a45f334393093061116b197e3240065ff2d8",
            "sender" : "0xa94f5374fce5edbc8e2a8697c15331677e6ebf0b",
            "to" : "0xb94f5374fce5edbc8e2a8697c15331677e6ebf0b",
            "value" : [
                "0x00"
            ]
        }
    }
}