{
    "delegatecallInInitcodeToEmptyContract_d0g0v0_EIP150" : {
        "_info" : {
            "comment" : "",
            "filledwith" : "cpp-1.3.0+commit.16292201.Linux.g++",
            "source" : "/src/GenStateTestAsBcTemp/stDelegatecallTestHomestead/delegatecallInInitcodeToEmptyContract_d0g0v0Filler.json"
        },
        "blocks" : [
            {
                "blockHeader" : {
                    "bloom" : "0x00000000000000000000000000000000000000000000000000000000000000000000000000000000000000000000000000000000000000000000000000000000000000000000000000000000000000000000000000000000000000000000000000000000000000000000000000000000000000000000000000000000000000000000000000000000000000000000000000000000000000000000000000000000000000000000000000000000000000000000000000000000000000000000000000000000000000000000000000000000000000000000000000000000000000000000000000000000000000000000000000000000000000000000000000000000",
                    "coinbase" : "0x2adc25665018aa1fe0e6bc666dac8fc2697ff9ba",
                    "difficulty" : "0x020000",
                    "extraData" : "",
                    "gasLimit" : "0x0f4240",
                    "gasUsed" : "0x012020",
                    "hash" : "0x0170fd293d16f7077b1c4e0182500f5db18b5075477ed7acf7a94cca46a47610",
                    "mixHash" : "0x1eb2a34ef9e114159ada6551a85b19c22df22577454bfc95345c6b47085e4842",
                    "nonce" : "0x1527dfe38f1a35bc",
                    "number" : "0x01",
                    "parentHash" : "0x3df127c35bf54a9d6b6c93edf654bf38ca2f57053a6f154d27fc10d15ae02830",
                    "receiptTrie" : "0x03e139caf55a87fe43cbb410b1cd84a309c5d89ad6cdda3d822088de24137df7",
                    "stateRoot" : "0x517424ad4779fea5e8c2a45ea3ae190abbb8548e29f0f25d8eaceda755f4f03a",
                    "timestamp" : "0x03e8",
                    "transactionsTrie" : "0x74b39e73f0c67b78fff4eb82226142222765b09c97c66d83d2aa030ec81c4f68",
                    "uncleHash" : "0x1dcc4de8dec75d7aab85b567b6ccd41ad312451b948a7413f0a142fd40d49347"
                },
                "rlp" : "0xf90260f901f8a03df127c35bf54a9d6b6c93edf654bf38ca2f57053a6f154d27fc10d15ae02830a01dcc4de8dec75d7aab85b567b6ccd41ad312451b948a7413f0a142fd40d49347942adc25665018aa1fe0e6bc666dac8fc2697ff9baa0517424ad4779fea5e8c2a45ea3ae190abbb8548e29f0f25d8eaceda755f4f03aa074b39e73f0c67b78fff4eb82226142222765b09c97c66d83d2aa030ec81c4f68a003e139caf55a87fe43cbb410b1cd84a309c5d89ad6cdda3d822088de24137df7b90100000000000000000000000000000000000000000000000000000000000000000000000000000000000000000000000000000000000000000000000000000000000000000000000000000000000000000000000000000000000000000000000000000000000000000000000000000000000000000000000000000000000000000000000000000000000000000000000000000000000000000000000000000000000000000000000000000000000000000000000000000000000000000000000000000000000000000000000000000000000000000000000000000000000000000000000000000000000000000000000000000000000000000000000000000000008302000001830f4240830120208203e880a01eb2a34ef9e114159ada6551a85b19c22df22577454bfc95345c6b47085e4842881527dfe38f1a35bcf862f86080018306e9d994100000000000000000000000000000000000000080801ba0f3800914fa5a27a13dc5a4119f11c1ae1c6874ad1e299f13e9f43e96c8bdaa0ea0332b1e65d433906232fbb38ec187498f66c29f6127864d94788d7de5bc1d4d32c0",
                "transactions" : [
                    {
                        "data" : "",
                        "gasLimit" : "0x06e9d9",
                        "gasPrice" : "0x01",
                        "nonce" : "0x00",
                        "r" : "0xf3800914fa5a27a13dc5a4119f11c1ae1c6874ad1e299f13e9f43e96c8bdaa0e",
                        "s" : "0x332b1e65d433906232fbb38ec187498f66c29f6127864d94788d7de5bc1d4d32",
                        "to" : "0x1000000000000000000000000000000000000000",
                        "v" : "0x1b",
                        "value" : "0x00"
                    }
                ],
                "uncleHeaders" : [
                ]
            }
        ],
        "genesisBlockHeader" : {
            "bloom" : "0x00000000000000000000000000000000000000000000000000000000000000000000000000000000000000000000000000000000000000000000000000000000000000000000000000000000000000000000000000000000000000000000000000000000000000000000000000000000000000000000000000000000000000000000000000000000000000000000000000000000000000000000000000000000000000000000000000000000000000000000000000000000000000000000000000000000000000000000000000000000000000000000000000000000000000000000000000000000000000000000000000000000000000000000000000000000",
            "coinbase" : "0x2adc25665018aa1fe0e6bc666dac8fc2697ff9ba",
            "difficulty" : "0x020000",
            "extraData" : "0x42",
            "gasLimit" : "0x0f4240",
            "gasUsed" : "0x00",
            "hash" : "0x3df127c35bf54a9d6b6c93edf654bf38ca2f57053a6f154d27fc10d15ae02830",
            "mixHash" : "0x56e81f171bcc55a6ff8345e692c0f86e5b48e01b996cadc001622fb5e363b421",
            "nonce" : "0x0102030405060708",
            "number" : "0x00",
            "parentHash" : "0x0000000000000000000000000000000000000000000000000000000000000000",
            "receiptTrie" : "0x56e81f171bcc55a6ff8345e692c0f86e5b48e01b996cadc001622fb5e363b421",
            "stateRoot" : "0x6ca6ed889c20b20d86b9e71b760d1cbd8410292ca4c112d35f3795e8cf7c0d01",
            "timestamp" : "0x03b6",
            "transactionsTrie" : "0x56e81f171bcc55a6ff8345e692c0f86e5b48e01b996cadc001622fb5e363b421",
            "uncleHash" : "0x1dcc4de8dec75d7aab85b567b6ccd41ad312451b948a7413f0a142fd40d49347"
        },
        "genesisRLP" : "0xf901faf901f5a00000000000000000000000000000000000000000000000000000000000000000a01dcc4de8dec75d7aab85b567b6ccd41ad312451b948a7413f0a142fd40d49347942adc25665018aa1fe0e6bc666dac8fc2697ff9baa06ca6ed889c20b20d86b9e71b760d1cbd8410292ca4c112d35f3795e8cf7c0d01a056e81f171bcc55a6ff8345e692c0f86e5b48e01b996cadc001622fb5e363b421a056e81f171bcc55a6ff8345e692c0f86e5b48e01b996cadc001622fb5e363b421b90100000000000000000000000000000000000000000000000000000000000000000000000000000000000000000000000000000000000000000000000000000000000000000000000000000000000000000000000000000000000000000000000000000000000000000000000000000000000000000000000000000000000000000000000000000000000000000000000000000000000000000000000000000000000000000000000000000000000000000000000000000000000000000000000000000000000000000000000000000000000000000000000000000000000000000000000000000000000000000000000000000000000000000000000000000000008302000080830f4240808203b642a056e81f171bcc55a6ff8345e692c0f86e5b48e01b996cadc001622fb5e363b421880102030405060708c0c0",
        "lastblockhash" : "0x0170fd293d16f7077b1c4e0182500f5db18b5075477ed7acf7a94cca46a47610",
        "network" : "EIP150",
        "postState" : {
            "0x1000000000000000000000000000000000000000" : {
                "balance" : "0x270f",
                "code" : "0x7f604060006040600073945304eb96065b2a98b57a48a06ae28d285a71b56201866000527fa0f4600055000000000000000000000000000000000000000000000000000000602052604060006001f0",
                "nonce" : "0x01",
                "storage" : {
                }
            },
            "0x13136008b64ff592819b2fa6d43f2835c452020e" : {
                "balance" : "0x01",
                "code" : "",
                "nonce" : "0x00",
                "storage" : {
                    "0x00" : "0x01"
                }
            },
            "0x2adc25665018aa1fe0e6bc666dac8fc2697ff9ba" : {
                "balance" : "0x4563918244f52020",
                "code" : "",
                "nonce" : "0x00",
                "storage" : {
                }
            },
            "0xa94f5374fce5edbc8e2a8697c15331677e6ebf0b" : {
                "balance" : "0x2386f26fbfdfe0",
                "code" : "",
                "nonce" : "0x01",
                "storage" : {
                }
            }
        },
        "pre" : {
            "0x1000000000000000000000000000000000000000" : {
                "balance" : "0x2710",
                "code" : "0x7f604060006040600073945304eb96065b2a98b57a48a06ae28d285a71b56201866000527fa0f4600055000000000000000000000000000000000000000000000000000000602052604060006001f0",
                "nonce" : "0x00",
                "storage" : {
                }
            },
            "0xa94f5374fce5edbc8e2a8697c15331677e6ebf0b" : {
                "balance" : "0x2386f26fc10000",
                "code" : "",
                "nonce" : "0x00",
                "storage" : {
                }
            }
        }
    },
    "delegatecallInInitcodeToEmptyContract_d0g0v0_EIP158" : {
        "_info" : {
            "comment" : "",
            "filledwith" : "cpp-1.3.0+commit.16292201.Linux.g++",
            "source" : "/src/GenStateTestAsBcTemp/stDelegatecallTestHomestead/delegatecallInInitcodeToEmptyContract_d0g0v0Filler.json"
        },
        "blocks" : [
            {
                "blockHeader" : {
                    "bloom" : "0x00000000000000000000000000000000000000000000000000000000000000000000000000000000000000000000000000000000000000000000000000000000000000000000000000000000000000000000000000000000000000000000000000000000000000000000000000000000000000000000000000000000000000000000000000000000000000000000000000000000000000000000000000000000000000000000000000000000000000000000000000000000000000000000000000000000000000000000000000000000000000000000000000000000000000000000000000000000000000000000000000000000000000000000000000000000",
                    "coinbase" : "0x2adc25665018aa1fe0e6bc666dac8fc2697ff9ba",
                    "difficulty" : "0x020000",
                    "extraData" : "",
                    "gasLimit" : "0x0f4240",
                    "gasUsed" : "0x012020",
                    "hash" : "0xae993ce107d22e3ed853aa479eee567eb2993c2518a21b181a009049b19cab72",
                    "mixHash" : "0xa49b04566fcadf84e2f307409af8aa9ac2e38c294eb51303d6d7b7290c95ae2f",
                    "nonce" : "0xb95fbc5e0d0ab6d4",
                    "number" : "0x01",
                    "parentHash" : "0x3df127c35bf54a9d6b6c93edf654bf38ca2f57053a6f154d27fc10d15ae02830",
                    "receiptTrie" : "0x26459230796edfd450319739da8d1897bbfb79a3814bc094a5dd5f70dfb3e712",
                    "stateRoot" : "0x25b94b0a64b461e1a9a5f20ace7b0a218a99ea6930e990c3ca6a0046c21d9a0a",
                    "timestamp" : "0x03e8",
                    "transactionsTrie" : "0x74b39e73f0c67b78fff4eb82226142222765b09c97c66d83d2aa030ec81c4f68",
                    "uncleHash" : "0x1dcc4de8dec75d7aab85b567b6ccd41ad312451b948a7413f0a142fd40d49347"
                },
                "rlp" : "0xf90260f901f8a03df127c35bf54a9d6b6c93edf654bf38ca2f57053a6f154d27fc10d15ae02830a01dcc4de8dec75d7aab85b567b6ccd41ad312451b948a7413f0a142fd40d49347942adc25665018aa1fe0e6bc666dac8fc2697ff9baa025b94b0a64b461e1a9a5f20ace7b0a218a99ea6930e990c3ca6a0046c21d9a0aa074b39e73f0c67b78fff4eb82226142222765b09c97c66d83d2aa030ec81c4f68a026459230796edfd450319739da8d1897bbfb79a3814bc094a5dd5f70dfb3e712b90100000000000000000000000000000000000000000000000000000000000000000000000000000000000000000000000000000000000000000000000000000000000000000000000000000000000000000000000000000000000000000000000000000000000000000000000000000000000000000000000000000000000000000000000000000000000000000000000000000000000000000000000000000000000000000000000000000000000000000000000000000000000000000000000000000000000000000000000000000000000000000000000000000000000000000000000000000000000000000000000000000000000000000000000000000000008302000001830f4240830120208203e880a0a49b04566fcadf84e2f307409af8aa9ac2e38c294eb51303d6d7b7290c95ae2f88b95fbc5e0d0ab6d4f862f86080018306e9d994100000000000000000000000000000000000000080801ba0f3800914fa5a27a13dc5a4119f11c1ae1c6874ad1e299f13e9f43e96c8bdaa0ea0332b1e65d433906232fbb38ec187498f66c29f6127864d94788d7de5bc1d4d32c0",
                "transactions" : [
                    {
                        "data" : "",
                        "gasLimit" : "0x06e9d9",
                        "gasPrice" : "0x01",
                        "nonce" : "0x00",
                        "r" : "0xf3800914fa5a27a13dc5a4119f11c1ae1c6874ad1e299f13e9f43e96c8bdaa0e",
                        "s" : "0x332b1e65d433906232fbb38ec187498f66c29f6127864d94788d7de5bc1d4d32",
                        "to" : "0x1000000000000000000000000000000000000000",
                        "v" : "0x1b",
                        "value" : "0x00"
                    }
                ],
                "uncleHeaders" : [
                ]
            }
        ],
        "genesisBlockHeader" : {
            "bloom" : "0x00000000000000000000000000000000000000000000000000000000000000000000000000000000000000000000000000000000000000000000000000000000000000000000000000000000000000000000000000000000000000000000000000000000000000000000000000000000000000000000000000000000000000000000000000000000000000000000000000000000000000000000000000000000000000000000000000000000000000000000000000000000000000000000000000000000000000000000000000000000000000000000000000000000000000000000000000000000000000000000000000000000000000000000000000000000",
            "coinbase" : "0x2adc25665018aa1fe0e6bc666dac8fc2697ff9ba",
            "difficulty" : "0x020000",
            "extraData" : "0x42",
            "gasLimit" : "0x0f4240",
            "gasUsed" : "0x00",
            "hash" : "0x3df127c35bf54a9d6b6c93edf654bf38ca2f57053a6f154d27fc10d15ae02830",
            "mixHash" : "0x56e81f171bcc55a6ff8345e692c0f86e5b48e01b996cadc001622fb5e363b421",
            "nonce" : "0x0102030405060708",
            "number" : "0x00",
            "parentHash" : "0x0000000000000000000000000000000000000000000000000000000000000000",
            "receiptTrie" : "0x56e81f171bcc55a6ff8345e692c0f86e5b48e01b996cadc001622fb5e363b421",
            "stateRoot" : "0x6ca6ed889c20b20d86b9e71b760d1cbd8410292ca4c112d35f3795e8cf7c0d01",
            "timestamp" : "0x03b6",
            "transactionsTrie" : "0x56e81f171bcc55a6ff8345e692c0f86e5b48e01b996cadc001622fb5e363b421",
            "uncleHash" : "0x1dcc4de8dec75d7aab85b567b6ccd41ad312451b948a7413f0a142fd40d49347"
        },
        "genesisRLP" : "0xf901faf901f5a00000000000000000000000000000000000000000000000000000000000000000a01dcc4de8dec75d7aab85b567b6ccd41ad312451b948a7413f0a142fd40d49347942adc25665018aa1fe0e6bc666dac8fc2697ff9baa06ca6ed889c20b20d86b9e71b760d1cbd8410292ca4c112d35f3795e8cf7c0d01a056e81f171bcc55a6ff8345e692c0f86e5b48e01b996cadc001622fb5e363b421a056e81f171bcc55a6ff8345e692c0f86e5b48e01b996cadc001622fb5e363b421b90100000000000000000000000000000000000000000000000000000000000000000000000000000000000000000000000000000000000000000000000000000000000000000000000000000000000000000000000000000000000000000000000000000000000000000000000000000000000000000000000000000000000000000000000000000000000000000000000000000000000000000000000000000000000000000000000000000000000000000000000000000000000000000000000000000000000000000000000000000000000000000000000000000000000000000000000000000000000000000000000000000000000000000000000000000000008302000080830f4240808203b642a056e81f171bcc55a6ff8345e692c0f86e5b48e01b996cadc001622fb5e363b421880102030405060708c0c0",
        "lastblockhash" : "0xae993ce107d22e3ed853aa479eee567eb2993c2518a21b181a009049b19cab72",
        "network" : "EIP158",
        "postState" : {
            "0x1000000000000000000000000000000000000000" : {
                "balance" : "0x270f",
                "code" : "0x7f604060006040600073945304eb96065b2a98b57a48a06ae28d285a71b56201866000527fa0f4600055000000000000000000000000000000000000000000000000000000602052604060006001f0",
                "nonce" : "0x01",
                "storage" : {
                }
            },
            "0x13136008b64ff592819b2fa6d43f2835c452020e" : {
                "balance" : "0x01",
                "code" : "",
                "nonce" : "0x01",
                "storage" : {
                    "0x00" : "0x01"
                }
            },
            "0x2adc25665018aa1fe0e6bc666dac8fc2697ff9ba" : {
                "balance" : "0x4563918244f52020",
                "code" : "",
                "nonce" : "0x00",
                "storage" : {
                }
            },
            "0xa94f5374fce5edbc8e2a8697c15331677e6ebf0b" : {
                "balance" : "0x2386f26fbfdfe0",
                "code" : "",
                "nonce" : "0x01",
                "storage" : {
                }
            }
        },
        "pre" : {
            "0x1000000000000000000000000000000000000000" : {
                "balance" : "0x2710",
                "code" : "0x7f604060006040600073945304eb96065b2a98b57a48a06ae28d285a71b56201866000527fa0f4600055000000000000000000000000000000000000000000000000000000602052604060006001f0",
                "nonce" : "0x00",
                "storage" : {
                }
            },
            "0xa94f5374fce5edbc8e2a8697c15331677e6ebf0b" : {
                "balance" : "0x2386f26fc10000",
                "code" : "",
                "nonce" : "0x00",
                "storage" : {
                }
            }
        }
    },
    "delegatecallInInitcodeToEmptyContract_d0g0v0_Frontier" : {
        "_info" : {
            "comment" : "",
            "filledwith" : "cpp-1.3.0+commit.16292201.Linux.g++",
            "source" : "/src/GenStateTestAsBcTemp/stDelegatecallTestHomestead/delegatecallInInitcodeToEmptyContract_d0g0v0Filler.json"
        },
        "blocks" : [
            {
                "blockHeader" : {
                    "bloom" : "0x00000000000000000000000000000000000000000000000000000000000000000000000000000000000000000000000000000000000000000000000000000000000000000000000000000000000000000000000000000000000000000000000000000000000000000000000000000000000000000000000000000000000000000000000000000000000000000000000000000000000000000000000000000000000000000000000000000000000000000000000000000000000000000000000000000000000000000000000000000000000000000000000000000000000000000000000000000000000000000000000000000000000000000000000000000000",
                    "coinbase" : "0x2adc25665018aa1fe0e6bc666dac8fc2697ff9ba",
                    "difficulty" : "0x020000",
                    "extraData" : "",
                    "gasLimit" : "0x0f4240",
                    "gasUsed" : "0x06e9d9",
                    "hash" : "0xac80e533a588862b2a76613b18cdbc5692af7eff3432951d99db8ef08fd2cfcb",
                    "mixHash" : "0xbd38ada9f04bac72c42888bf9999ff1260b4f3826a6cc791e83591aa12708ac7",
                    "nonce" : "0xfc9ece3bc04b8ab8",
                    "number" : "0x01",
                    "parentHash" : "0x3df127c35bf54a9d6b6c93edf654bf38ca2f57053a6f154d27fc10d15ae02830",
                    "receiptTrie" : "0xcacd1eedcdb49fae43f670055661f1ad5f316fbca9bbf690d31f8e7d6e98219a",
                    "stateRoot" : "0x1b5b30c456e23ccc2fec283f54b9306872b76dd6dd6081133043985134db02f1",
                    "timestamp" : "0x03e8",
                    "transactionsTrie" : "0x74b39e73f0c67b78fff4eb82226142222765b09c97c66d83d2aa030ec81c4f68",
                    "uncleHash" : "0x1dcc4de8dec75d7aab85b567b6ccd41ad312451b948a7413f0a142fd40d49347"
                },
                "rlp" : "0xf90260f901f8a03df127c35bf54a9d6b6c93edf654bf38ca2f57053a6f154d27fc10d15ae02830a01dcc4de8dec75d7aab85b567b6ccd41ad312451b948a7413f0a142fd40d49347942adc25665018aa1fe0e6bc666dac8fc2697ff9baa01b5b30c456e23ccc2fec283f54b9306872b76dd6dd6081133043985134db02f1a074b39e73f0c67b78fff4eb82226142222765b09c97c66d83d2aa030ec81c4f68a0cacd1eedcdb49fae43f670055661f1ad5f316fbca9bbf690d31f8e7d6e98219ab90100000000000000000000000000000000000000000000000000000000000000000000000000000000000000000000000000000000000000000000000000000000000000000000000000000000000000000000000000000000000000000000000000000000000000000000000000000000000000000000000000000000000000000000000000000000000000000000000000000000000000000000000000000000000000000000000000000000000000000000000000000000000000000000000000000000000000000000000000000000000000000000000000000000000000000000000000000000000000000000000000000000000000000000000000000000008302000001830f42408306e9d98203e880a0bd38ada9f04bac72c42888bf9999ff1260b4f3826a6cc791e83591aa12708ac788fc9ece3bc04b8ab8f862f86080018306e9d994100000000000000000000000000000000000000080801ba0f3800914fa5a27a13dc5a4119f11c1ae1c6874ad1e299f13e9f43e96c8bdaa0ea0332b1e65d433906232fbb38ec187498f66c29f6127864d94788d7de5bc1d4d32c0",
                "transactions" : [
                    {
                        "data" : "",
                        "gasLimit" : "0x06e9d9",
                        "gasPrice" : "0x01",
                        "nonce" : "0x00",
                        "r" : "0xf3800914fa5a27a13dc5a4119f11c1ae1c6874ad1e299f13e9f43e96c8bdaa0e",
                        "s" : "0x332b1e65d433906232fbb38ec187498f66c29f6127864d94788d7de5bc1d4d32",
                        "to" : "0x1000000000000000000000000000000000000000",
                        "v" : "0x1b",
                        "value" : "0x00"
                    }
                ],
                "uncleHeaders" : [
                ]
            }
        ],
        "genesisBlockHeader" : {
            "bloom" : "0x00000000000000000000000000000000000000000000000000000000000000000000000000000000000000000000000000000000000000000000000000000000000000000000000000000000000000000000000000000000000000000000000000000000000000000000000000000000000000000000000000000000000000000000000000000000000000000000000000000000000000000000000000000000000000000000000000000000000000000000000000000000000000000000000000000000000000000000000000000000000000000000000000000000000000000000000000000000000000000000000000000000000000000000000000000000",
            "coinbase" : "0x2adc25665018aa1fe0e6bc666dac8fc2697ff9ba",
            "difficulty" : "0x020000",
            "extraData" : "0x42",
            "gasLimit" : "0x0f4240",
            "gasUsed" : "0x00",
            "hash" : "0x3df127c35bf54a9d6b6c93edf654bf38ca2f57053a6f154d27fc10d15ae02830",
            "mixHash" : "0x56e81f171bcc55a6ff8345e692c0f86e5b48e01b996cadc001622fb5e363b421",
            "nonce" : "0x0102030405060708",
            "number" : "0x00",
            "parentHash" : "0x0000000000000000000000000000000000000000000000000000000000000000",
            "receiptTrie" : "0x56e81f171bcc55a6ff8345e692c0f86e5b48e01b996cadc001622fb5e363b421",
            "stateRoot" : "0x6ca6ed889c20b20d86b9e71b760d1cbd8410292ca4c112d35f3795e8cf7c0d01",
            "timestamp" : "0x03b6",
            "transactionsTrie" : "0x56e81f171bcc55a6ff8345e692c0f86e5b48e01b996cadc001622fb5e363b421",
            "uncleHash" : "0x1dcc4de8dec75d7aab85b567b6ccd41ad312451b948a7413f0a142fd40d49347"
        },
        "genesisRLP" : "0xf901faf901f5a00000000000000000000000000000000000000000000000000000000000000000a01dcc4de8dec75d7aab85b567b6ccd41ad312451b948a7413f0a142fd40d49347942adc25665018aa1fe0e6bc666dac8fc2697ff9baa06ca6ed889c20b20d86b9e71b760d1cbd8410292ca4c112d35f3795e8cf7c0d01a056e81f171bcc55a6ff8345e692c0f86e5b48e01b996cadc001622fb5e363b421a056e81f171bcc55a6ff8345e692c0f86e5b48e01b996cadc001622fb5e363b421b90100000000000000000000000000000000000000000000000000000000000000000000000000000000000000000000000000000000000000000000000000000000000000000000000000000000000000000000000000000000000000000000000000000000000000000000000000000000000000000000000000000000000000000000000000000000000000000000000000000000000000000000000000000000000000000000000000000000000000000000000000000000000000000000000000000000000000000000000000000000000000000000000000000000000000000000000000000000000000000000000000000000000000000000000000000000008302000080830f4240808203b642a056e81f171bcc55a6ff8345e692c0f86e5b48e01b996cadc001622fb5e363b421880102030405060708c0c0",
        "lastblockhash" : "0xac80e533a588862b2a76613b18cdbc5692af7eff3432951d99db8ef08fd2cfcb",
        "network" : "Frontier",
        "postState" : {
            "0x1000000000000000000000000000000000000000" : {
                "balance" : "0x2710",
                "code" : "0x7f604060006040600073945304eb96065b2a98b57a48a06ae28d285a71b56201866000527fa0f4600055000000000000000000000000000000000000000000000000000000602052604060006001f0",
                "nonce" : "0x01",
                "storage" : {
                }
            },
            "0x2adc25665018aa1fe0e6bc666dac8fc2697ff9ba" : {
                "balance" : "0x4563918244fae9d9",
                "code" : "",
                "nonce" : "0x00",
                "storage" : {
                }
            },
            "0xa94f5374fce5edbc8e2a8697c15331677e6ebf0b" : {
                "balance" : "0x2386f26fba1627",
                "code" : "",
                "nonce" : "0x01",
                "storage" : {
                }
            }
        },
        "pre" : {
            "0x1000000000000000000000000000000000000000" : {
                "balance" : "0x2710",
                "code" : "0x7f604060006040600073945304eb96065b2a98b57a48a06ae28d285a71b56201866000527fa0f4600055000000000000000000000000000000000000000000000000000000602052604060006001f0",
                "nonce" : "0x00",
                "storage" : {
                }
            },
            "0xa94f5374fce5edbc8e2a8697c15331677e6ebf0b" : {
                "balance" : "0x2386f26fc10000",
                "code" : "",
                "nonce" : "0x00",
                "storage" : {
                }
            }
        }
    },
    "delegatecallInInitcodeToEmptyContract_d0g0v0_Homestead" : {
        "_info" : {
            "comment" : "",
            "filledwith" : "cpp-1.3.0+commit.16292201.Linux.g++",
            "source" : "/src/GenStateTestAsBcTemp/stDelegatecallTestHomestead/delegatecallInInitcodeToEmptyContract_d0g0v0Filler.json"
        },
        "blocks" : [
            {
                "blockHeader" : {
                    "bloom" : "0x00000000000000000000000000000000000000000000000000000000000000000000000000000000000000000000000000000000000000000000000000000000000000000000000000000000000000000000000000000000000000000000000000000000000000000000000000000000000000000000000000000000000000000000000000000000000000000000000000000000000000000000000000000000000000000000000000000000000000000000000000000000000000000000000000000000000000000000000000000000000000000000000000000000000000000000000000000000000000000000000000000000000000000000000000000000",
                    "coinbase" : "0x2adc25665018aa1fe0e6bc666dac8fc2697ff9ba",
                    "difficulty" : "0x020000",
                    "extraData" : "",
                    "gasLimit" : "0x0f4240",
                    "gasUsed" : "0x011d8c",
                    "hash" : "0x0a76db589cd666a24a68c85f2bcf763523edf5b21fb672481602d840c0d395af",
                    "mixHash" : "0xd37717aab9d582d354a70ae7bffb324654ae1207ecdb6b8dad91de7fdf494b1f",
                    "nonce" : "0xc0d639b49307242b",
                    "number" : "0x01",
                    "parentHash" : "0x3df127c35bf54a9d6b6c93edf654bf38ca2f57053a6f154d27fc10d15ae02830",
                    "receiptTrie" : "0x67210836eb487b6d0b14cf2f9b512c2669bd43e2eed70f476029e2e655e7be80",
                    "stateRoot" : "0xc70c431f295302fd1cace28d06be865cf7667091d367518ed65eb4a49e162f5e",
                    "timestamp" : "0x03e8",
                    "transactionsTrie" : "0x74b39e73f0c67b78fff4eb82226142222765b09c97c66d83d2aa030ec81c4f68",
                    "uncleHash" : "0x1dcc4de8dec75d7aab85b567b6ccd41ad312451b948a7413f0a142fd40d49347"
                },
                "rlp" : "0xf90260f901f8a03df127c35bf54a9d6b6c93edf654bf38ca2f57053a6f154d27fc10d15ae02830a01dcc4de8dec75d7aab85b567b6ccd41ad312451b948a7413f0a142fd40d49347942adc25665018aa1fe0e6bc666dac8fc2697ff9baa0c70c431f295302fd1cace28d06be865cf7667091d367518ed65eb4a49e162f5ea074b39e73f0c67b78fff4eb82226142222765b09c97c66d83d2aa030ec81c4f68a067210836eb487b6d0b14cf2f9b512c2669bd43e2eed70f476029e2e655e7be80b90100000000000000000000000000000000000000000000000000000000000000000000000000000000000000000000000000000000000000000000000000000000000000000000000000000000000000000000000000000000000000000000000000000000000000000000000000000000000000000000000000000000000000000000000000000000000000000000000000000000000000000000000000000000000000000000000000000000000000000000000000000000000000000000000000000000000000000000000000000000000000000000000000000000000000000000000000000000000000000000000000000000000000000000000000000000008302000001830f424083011d8c8203e880a0d37717aab9d582d354a70ae7bffb324654ae1207ecdb6b8dad91de7fdf494b1f88c0d639b49307242bf862f86080018306e9d994100000000000000000000000000000000000000080801ba0f3800914fa5a27a13dc5a4119f11c1ae1c6874ad1e299f13e9f43e96c8bdaa0ea0332b1e65d433906232fbb38ec187498f66c29f6127864d94788d7de5bc1d4d32c0",
                "transactions" : [
                    {
                        "data" : "",
                        "gasLimit" : "0x06e9d9",
                        "gasPrice" : "0x01",
                        "nonce" : "0x00",
                        "r" : "0xf3800914fa5a27a13dc5a4119f11c1ae1c6874ad1e299f13e9f43e96c8bdaa0e",
                        "s" : "0x332b1e65d433906232fbb38ec187498f66c29f6127864d94788d7de5bc1d4d32",
                        "to" : "0x1000000000000000000000000000000000000000",
                        "v" : "0x1b",
                        "value" : "0x00"
                    }
                ],
                "uncleHeaders" : [
                ]
            }
        ],
        "genesisBlockHeader" : {
            "bloom" : "0x00000000000000000000000000000000000000000000000000000000000000000000000000000000000000000000000000000000000000000000000000000000000000000000000000000000000000000000000000000000000000000000000000000000000000000000000000000000000000000000000000000000000000000000000000000000000000000000000000000000000000000000000000000000000000000000000000000000000000000000000000000000000000000000000000000000000000000000000000000000000000000000000000000000000000000000000000000000000000000000000000000000000000000000000000000000",
            "coinbase" : "0x2adc25665018aa1fe0e6bc666dac8fc2697ff9ba",
            "difficulty" : "0x020000",
            "extraData" : "0x42",
            "gasLimit" : "0x0f4240",
            "gasUsed" : "0x00",
            "hash" : "0x3df127c35bf54a9d6b6c93edf654bf38ca2f57053a6f154d27fc10d15ae02830",
            "mixHash" : "0x56e81f171bcc55a6ff8345e692c0f86e5b48e01b996cadc001622fb5e363b421",
            "nonce" : "0x0102030405060708",
            "number" : "0x00",
            "parentHash" : "0x0000000000000000000000000000000000000000000000000000000000000000",
            "receiptTrie" : "0x56e81f171bcc55a6ff8345e692c0f86e5b48e01b996cadc001622fb5e363b421",
            "stateRoot" : "0x6ca6ed889c20b20d86b9e71b760d1cbd8410292ca4c112d35f3795e8cf7c0d01",
            "timestamp" : "0x03b6",
            "transactionsTrie" : "0x56e81f171bcc55a6ff8345e692c0f86e5b48e01b996cadc001622fb5e363b421",
            "uncleHash" : "0x1dcc4de8dec75d7aab85b567b6ccd41ad312451b948a7413f0a142fd40d49347"
        },
        "genesisRLP" : "0xf901faf901f5a00000000000000000000000000000000000000000000000000000000000000000a01dcc4de8dec75d7aab85b567b6ccd41ad312451b948a7413f0a142fd40d49347942adc25665018aa1fe0e6bc666dac8fc2697ff9baa06ca6ed889c20b20d86b9e71b760d1cbd8410292ca4c112d35f3795e8cf7c0d01a056e81f171bcc55a6ff8345e692c0f86e5b48e01b996cadc001622fb5e363b421a056e81f171bcc55a6ff8345e692c0f86e5b48e01b996cadc001622fb5e363b421b90100000000000000000000000000000000000000000000000000000000000000000000000000000000000000000000000000000000000000000000000000000000000000000000000000000000000000000000000000000000000000000000000000000000000000000000000000000000000000000000000000000000000000000000000000000000000000000000000000000000000000000000000000000000000000000000000000000000000000000000000000000000000000000000000000000000000000000000000000000000000000000000000000000000000000000000000000000000000000000000000000000000000000000000000000000000008302000080830f4240808203b642a056e81f171bcc55a6ff8345e692c0f86e5b48e01b996cadc001622fb5e363b421880102030405060708c0c0",
        "lastblockhash" : "0x0a76db589cd666a24a68c85f2bcf763523edf5b21fb672481602d840c0d395af",
        "network" : "Homestead",
        "postState" : {
            "0x1000000000000000000000000000000000000000" : {
                "balance" : "0x270f",
                "code" : "0x7f604060006040600073945304eb96065b2a98b57a48a06ae28d285a71b56201866000527fa0f4600055000000000000000000000000000000000000000000000000000000602052604060006001f0",
                "nonce" : "0x01",
                "storage" : {
                }
            },
            "0x13136008b64ff592819b2fa6d43f2835c452020e" : {
                "balance" : "0x01",
                "code" : "",
                "nonce" : "0x00",
                "storage" : {
                    "0x00" : "0x01"
                }
            },
            "0x2adc25665018aa1fe0e6bc666dac8fc2697ff9ba" : {
                "balance" : "0x4563918244f51d8c",
                "code" : "",
                "nonce" : "0x00",
                "storage" : {
                }
            },
            "0xa94f5374fce5edbc8e2a8697c15331677e6ebf0b" : {
                "balance" : "0x2386f26fbfe274",
                "code" : "",
                "nonce" : "0x01",
                "storage" : {
                }
            }
        },
        "pre" : {
            "0x1000000000000000000000000000000000000000" : {
                "balance" : "0x2710",
                "code" : "0x7f604060006040600073945304eb96065b2a98b57a48a06ae28d285a71b56201866000527fa0f4600055000000000000000000000000000000000000000000000000000000602052604060006001f0",
                "nonce" : "0x00",
                "storage" : {
                }
            },
            "0xa94f5374fce5edbc8e2a8697c15331677e6ebf0b" : {
                "balance" : "0x2386f26fc10000",
                "code" : "",
                "nonce" : "0x00",
                "storage" : {
                }
            }
        }
    },
    "delegatecallInInitcodeToEmptyContract_d0g0v0_Metropolis" : {
        "_info" : {
            "comment" : "",
            "filledwith" : "cpp-1.3.0+commit.16292201.Linux.g++",
            "source" : "/src/GenStateTestAsBcTemp/stDelegatecallTestHomestead/delegatecallInInitcodeToEmptyContract_d0g0v0Filler.json"
        },
        "blocks" : [
            {
                "blockHeader" : {
                    "bloom" : "0x00000000000000000000000000000000000000000000000000000000000000000000000000000000000000000000000000000000000000000000000000000000000000000000000000000000000000000000000000000000000000000000000000000000000000000000000000000000000000000000000000000000000000000000000000000000000000000000000000000000000000000000000000000000000000000000000000000000000000000000000000000000000000000000000000000000000000000000000000000000000000000000000000000000000000000000000000000000000000000000000000000000000000000000000000000000",
                    "coinbase" : "0x2adc25665018aa1fe0e6bc666dac8fc2697ff9ba",
                    "difficulty" : "0x020000",
                    "extraData" : "",
                    "gasLimit" : "0x0f4240",
                    "gasUsed" : "0x012020",
                    "hash" : "0x693860945de4b14e0ea86c66270d1f8dc15c31be94f76dc56ff65a2e803275ee",
                    "mixHash" : "0x91eb9e5c0988961df072fd82cb1db0e38d22e6a2aa09afa6f2988b0e86f6ecb2",
                    "nonce" : "0x449a71b166546985",
                    "number" : "0x01",
                    "parentHash" : "0x3df127c35bf54a9d6b6c93edf654bf38ca2f57053a6f154d27fc10d15ae02830",
                    "receiptTrie" : "0x2f16a0a23c3553b9a7f3a5d5d7e0dd51d8fc9da54742161e91a6d3de5e827bd4",
                    "stateRoot" : "0xbbdee684eab6cf971cbd8851c13ebd967f9a3e562f0075d109fe5755a6f77a49",
                    "timestamp" : "0x03e8",
                    "transactionsTrie" : "0x74b39e73f0c67b78fff4eb82226142222765b09c97c66d83d2aa030ec81c4f68",
                    "uncleHash" : "0x1dcc4de8dec75d7aab85b567b6ccd41ad312451b948a7413f0a142fd40d49347"
                },
                "rlp" : "0xf90260f901f8a03df127c35bf54a9d6b6c93edf654bf38ca2f57053a6f154d27fc10d15ae02830a01dcc4de8dec75d7aab85b567b6ccd41ad312451b948a7413f0a142fd40d49347942adc25665018aa1fe0e6bc666dac8fc2697ff9baa0bbdee684eab6cf971cbd8851c13ebd967f9a3e562f0075d109fe5755a6f77a49a074b39e73f0c67b78fff4eb82226142222765b09c97c66d83d2aa030ec81c4f68a02f16a0a23c3553b9a7f3a5d5d7e0dd51d8fc9da54742161e91a6d3de5e827bd4b90100000000000000000000000000000000000000000000000000000000000000000000000000000000000000000000000000000000000000000000000000000000000000000000000000000000000000000000000000000000000000000000000000000000000000000000000000000000000000000000000000000000000000000000000000000000000000000000000000000000000000000000000000000000000000000000000000000000000000000000000000000000000000000000000000000000000000000000000000000000000000000000000000000000000000000000000000000000000000000000000000000000000000000000000000000000008302000001830f4240830120208203e880a091eb9e5c0988961df072fd82cb1db0e38d22e6a2aa09afa6f2988b0e86f6ecb288449a71b166546985f862f86080018306e9d994100000000000000000000000000000000000000080801ba0f3800914fa5a27a13dc5a4119f11c1ae1c6874ad1e299f13e9f43e96c8bdaa0ea0332b1e65d433906232fbb38ec187498f66c29f6127864d94788d7de5bc1d4d32c0",
                "transactions" : [
                    {
                        "data" : "",
                        "gasLimit" : "0x06e9d9",
                        "gasPrice" : "0x01",
                        "nonce" : "0x00",
                        "r" : "0xf3800914fa5a27a13dc5a4119f11c1ae1c6874ad1e299f13e9f43e96c8bdaa0e",
                        "s" : "0x332b1e65d433906232fbb38ec187498f66c29f6127864d94788d7de5bc1d4d32",
                        "to" : "0x1000000000000000000000000000000000000000",
                        "v" : "0x1b",
                        "value" : "0x00"
                    }
                ],
                "uncleHeaders" : [
                ]
            }
        ],
        "genesisBlockHeader" : {
            "bloom" : "0x00000000000000000000000000000000000000000000000000000000000000000000000000000000000000000000000000000000000000000000000000000000000000000000000000000000000000000000000000000000000000000000000000000000000000000000000000000000000000000000000000000000000000000000000000000000000000000000000000000000000000000000000000000000000000000000000000000000000000000000000000000000000000000000000000000000000000000000000000000000000000000000000000000000000000000000000000000000000000000000000000000000000000000000000000000000",
            "coinbase" : "0x2adc25665018aa1fe0e6bc666dac8fc2697ff9ba",
            "difficulty" : "0x020000",
            "extraData" : "0x42",
            "gasLimit" : "0x0f4240",
            "gasUsed" : "0x00",
            "hash" : "0x3df127c35bf54a9d6b6c93edf654bf38ca2f57053a6f154d27fc10d15ae02830",
            "mixHash" : "0x56e81f171bcc55a6ff8345e692c0f86e5b48e01b996cadc001622fb5e363b421",
            "nonce" : "0x0102030405060708",
            "number" : "0x00",
            "parentHash" : "0x0000000000000000000000000000000000000000000000000000000000000000",
            "receiptTrie" : "0x56e81f171bcc55a6ff8345e692c0f86e5b48e01b996cadc001622fb5e363b421",
            "stateRoot" : "0x6ca6ed889c20b20d86b9e71b760d1cbd8410292ca4c112d35f3795e8cf7c0d01",
            "timestamp" : "0x03b6",
            "transactionsTrie" : "0x56e81f171bcc55a6ff8345e692c0f86e5b48e01b996cadc001622fb5e363b421",
            "uncleHash" : "0x1dcc4de8dec75d7aab85b567b6ccd41ad312451b948a7413f0a142fd40d49347"
        },
        "genesisRLP" : "0xf901faf901f5a00000000000000000000000000000000000000000000000000000000000000000a01dcc4de8dec75d7aab85b567b6ccd41ad312451b948a7413f0a142fd40d49347942adc25665018aa1fe0e6bc666dac8fc2697ff9baa06ca6ed889c20b20d86b9e71b760d1cbd8410292ca4c112d35f3795e8cf7c0d01a056e81f171bcc55a6ff8345e692c0f86e5b48e01b996cadc001622fb5e363b421a056e81f171bcc55a6ff8345e692c0f86e5b48e01b996cadc001622fb5e363b421b90100000000000000000000000000000000000000000000000000000000000000000000000000000000000000000000000000000000000000000000000000000000000000000000000000000000000000000000000000000000000000000000000000000000000000000000000000000000000000000000000000000000000000000000000000000000000000000000000000000000000000000000000000000000000000000000000000000000000000000000000000000000000000000000000000000000000000000000000000000000000000000000000000000000000000000000000000000000000000000000000000000000000000000000000000000000008302000080830f4240808203b642a056e81f171bcc55a6ff8345e692c0f86e5b48e01b996cadc001622fb5e363b421880102030405060708c0c0",
        "lastblockhash" : "0x693860945de4b14e0ea86c66270d1f8dc15c31be94f76dc56ff65a2e803275ee",
        "network" : "Metropolis",
        "postState" : {
            "0x00000000000000000000000000000000000000f0" : {
                "balance" : "0x00",
                "code" : "",
                "nonce" : "0x00",
                "storage" : {
                }
            },
            "0x1000000000000000000000000000000000000000" : {
                "balance" : "0x270f",
                "code" : "0x7f604060006040600073945304eb96065b2a98b57a48a06ae28d285a71b56201866000527fa0f4600055000000000000000000000000000000000000000000000000000000602052604060006001f0",
                "nonce" : "0x01",
                "storage" : {
                }
            },
            "0x13136008b64ff592819b2fa6d43f2835c452020e" : {
                "balance" : "0x01",
                "code" : "",
                "nonce" : "0x01",
                "storage" : {
                    "0x00" : "0x01"
                }
            },
            "0x2adc25665018aa1fe0e6bc666dac8fc2697ff9ba" : {
                "balance" : "0x4563918244f52020",
                "code" : "",
                "nonce" : "0x00",
                "storage" : {
                }
            },
            "0xa94f5374fce5edbc8e2a8697c15331677e6ebf0b" : {
                "balance" : "0x2386f26fbfdfe0",
                "code" : "",
                "nonce" : "0x01",
                "storage" : {
                }
            }
        },
        "pre" : {
            "0x1000000000000000000000000000000000000000" : {
                "balance" : "0x2710",
                "code" : "0x7f604060006040600073945304eb96065b2a98b57a48a06ae28d285a71b56201866000527fa0f4600055000000000000000000000000000000000000000000000000000000602052604060006001f0",
                "nonce" : "0x00",
                "storage" : {
                }
            },
            "0xa94f5374fce5edbc8e2a8697c15331677e6ebf0b" : {
                "balance" : "0x2386f26fc10000",
                "code" : "",
                "nonce" : "0x00",
                "storage" : {
                }
            }
        }
    }
}