{
    "Delegatecall1024OOG_d0g0v0_Byzantium" : {
        "_info" : {
            "comment" : "",
            "filledwith" : "cpp-1.3.0+commit.8fb57c56.Linux.g++",
            "lllcversion" : "Version: 0.4.20-develop.2018.1.8+commit.2548228b.Linux.g++",
            "source" : "src/BlockchainTestsFiller/GeneralStateTests/stDelegatecallTestHomestead/Delegatecall1024OOG_d0g0v0Filler.json",
            "sourceHash" : "42dfc4da9c81bd2f0b8f44a710a7217ecba20c5c70230f3be093f99c50abd8f0"
        },
        "blocks" : [
            {
                "blockHeader" : {
                    "bloom" : "0x00000000000000000000000000000000000000000000000000000000000000000000000000000000000000000000000000000000000000000000000000000000000000000000000000000000000000000000000000000000000000000000000000000000000000000000000000000000000000000000000000000000000000000000000000000000000000000000000000000000000000000000000000000000000000000000000000000000000000000000000000000000000000000000000000000000000000000000000000000000000000000000000000000000000000000000000000000000000000000000000000000000000000000000000000000000",
                    "coinbase" : "0xb94f5374fce5edbc8e2a8697c15331677e6ebf0b",
                    "difficulty" : "0x020000",
                    "extraData" : "",
                    "gasLimit" : "0x7fffffffffffffff",
                    "gasUsed" : "0x3a8720",
                    "hash" : "0x0bc8934429f493cb2e4b9b612c9bd8da3718a4fac217b1488536fd6810d8c5a4",
                    "mixHash" : "0x112cff95349f8cfdcd33f56a54d3cef855cff4c816134f214a64779a9a5c5771",
                    "nonce" : "0x5cea96c6955a8a21",
                    "number" : "0x01",
                    "parentHash" : "0xe75d47691b726c8c312a99cdc15c3685d5200fcefa3be699586a6370405e202f",
                    "receiptTrie" : "0x48f50389e9ad14cecea0d16b4a7193b1bf9e87c91cc54be30e46abcc57d4f2ff",
                    "stateRoot" : "0xed434107e4767362f9114d9d8334503fbbe5995966a6928e22372eed314c5801",
                    "timestamp" : "0x03e8",
                    "transactionsTrie" : "0x05228c15750d1455c5afe47e9759d27e194f5fc66752d3faf84ffe17ce9bfcbc",
                    "uncleHash" : "0x1dcc4de8dec75d7aab85b567b6ccd41ad312451b948a7413f0a142fd40d49347"
                },
                "rlp" : "0xf90265f901fda0e75d47691b726c8c312a99cdc15c3685d5200fcefa3be699586a6370405e202fa01dcc4de8dec75d7aab85b567b6ccd41ad312451b948a7413f0a142fd40d4934794b94f5374fce5edbc8e2a8697c15331677e6ebf0ba0ed434107e4767362f9114d9d8334503fbbe5995966a6928e22372eed314c5801a005228c15750d1455c5afe47e9759d27e194f5fc66752d3faf84ffe17ce9bfcbca048f50389e9ad14cecea0d16b4a7193b1bf9e87c91cc54be30e46abcc57d4f2ffb90100000000000000000000000000000000000000000000000000000000000000000000000000000000000000000000000000000000000000000000000000000000000000000000000000000000000000000000000000000000000000000000000000000000000000000000000000000000000000000000000000000000000000000000000000000000000000000000000000000000000000000000000000000000000000000000000000000000000000000000000000000000000000000000000000000000000000000000000000000000000000000000000000000000000000000000000000000000000000000000000000000000000000000000000000000000008302000001887fffffffffffffff833a87208203e880a0112cff95349f8cfdcd33f56a54d3cef855cff4c816134f214a64779a9a5c5771885cea96c6955a8a21f862f860800183efe17a94bbbf5374fce5edbc8e2a8697c15331677e6ebf0b0a801ca0dd18dcb7c4d6ae974fc0646511b8682a390dd3fe780fe7d5ac626f8eb841a176a07c0d8ae91b46d59fc98b5c154a3a59f35dca42f0127e96913bbad8d9ce02f752c0",
                "transactions" : [
                    {
                        "data" : "0x",
                        "gasLimit" : "0xefe17a",
                        "gasPrice" : "0x01",
                        "nonce" : "0x00",
                        "r" : "0xdd18dcb7c4d6ae974fc0646511b8682a390dd3fe780fe7d5ac626f8eb841a176",
                        "s" : "0x7c0d8ae91b46d59fc98b5c154a3a59f35dca42f0127e96913bbad8d9ce02f752",
                        "to" : "0xbbbf5374fce5edbc8e2a8697c15331677e6ebf0b",
                        "v" : "0x1c",
                        "value" : "0x0a"
                    }
                ],
                "uncleHeaders" : [
                ]
            }
        ],
        "genesisBlockHeader" : {
            "bloom" : "0x00000000000000000000000000000000000000000000000000000000000000000000000000000000000000000000000000000000000000000000000000000000000000000000000000000000000000000000000000000000000000000000000000000000000000000000000000000000000000000000000000000000000000000000000000000000000000000000000000000000000000000000000000000000000000000000000000000000000000000000000000000000000000000000000000000000000000000000000000000000000000000000000000000000000000000000000000000000000000000000000000000000000000000000000000000000",
            "coinbase" : "0xb94f5374fce5edbc8e2a8697c15331677e6ebf0b",
            "difficulty" : "0x020000",
            "extraData" : "0x42",
            "gasLimit" : "0x7fffffffffffffff",
            "gasUsed" : "0x00",
            "hash" : "0xe75d47691b726c8c312a99cdc15c3685d5200fcefa3be699586a6370405e202f",
            "mixHash" : "0x56e81f171bcc55a6ff8345e692c0f86e5b48e01b996cadc001622fb5e363b421",
            "nonce" : "0x0102030405060708",
            "number" : "0x00",
            "parentHash" : "0x0000000000000000000000000000000000000000000000000000000000000000",
            "receiptTrie" : "0x56e81f171bcc55a6ff8345e692c0f86e5b48e01b996cadc001622fb5e363b421",
            "stateRoot" : "0xab1cde6303da0d692e2d2fd852f572e1cf6f9c93bad37fd3732f8255f17a36f8",
            "timestamp" : "0x03b6",
            "transactionsTrie" : "0x56e81f171bcc55a6ff8345e692c0f86e5b48e01b996cadc001622fb5e363b421",
            "uncleHash" : "0x1dcc4de8dec75d7aab85b567b6ccd41ad312451b948a7413f0a142fd40d49347"
        },
        "genesisRLP" : "0xf901fff901faa00000000000000000000000000000000000000000000000000000000000000000a01dcc4de8dec75d7aab85b567b6ccd41ad312451b948a7413f0a142fd40d4934794b94f5374fce5edbc8e2a8697c15331677e6ebf0ba0ab1cde6303da0d692e2d2fd852f572e1cf6f9c93bad37fd3732f8255f17a36f8a056e81f171bcc55a6ff8345e692c0f86e5b48e01b996cadc001622fb5e363b421a056e81f171bcc55a6ff8345e692c0f86e5b48e01b996cadc001622fb5e363b421b90100000000000000000000000000000000000000000000000000000000000000000000000000000000000000000000000000000000000000000000000000000000000000000000000000000000000000000000000000000000000000000000000000000000000000000000000000000000000000000000000000000000000000000000000000000000000000000000000000000000000000000000000000000000000000000000000000000000000000000000000000000000000000000000000000000000000000000000000000000000000000000000000000000000000000000000000000000000000000000000000000000000000000000000000000000000008302000080887fffffffffffffff808203b642a056e81f171bcc55a6ff8345e692c0f86e5b48e01b996cadc001622fb5e363b421880102030405060708c0c0",
        "lastblockhash" : "0x0bc8934429f493cb2e4b9b612c9bd8da3718a4fac217b1488536fd6810d8c5a4",
        "network" : "Byzantium",
        "postState" : {
            "0xa94f5374fce5edbc8e2a8697c15331677e6ebf0b" : {
                "balance" : "0xffffffffffffffffffffffffffc578d5",
                "code" : "",
                "nonce" : "0x01",
                "storage" : {
                }
            },
            "0xaaaf5374fce5edbc8e2a8697c15331677e6ebf0b" : {
                "balance" : "0x1b58",
                "code" : "",
                "nonce" : "0x00",
                "storage" : {
                }
            },
            "0xb94f5374fce5edbc8e2a8697c15331677e6ebf0b" : {
                "balance" : "0x29a2241af6668720",
                "code" : "",
                "nonce" : "0x00",
                "storage" : {
                }
            },
            "0xbbbf5374fce5edbc8e2a8697c15331677e6ebf0b" : {
                "balance" : "0x040a",
                "code" : "0x600160005401600055600060006000600073bbbf5374fce5edbc8e2a8697c15331677e6ebf0b610401600054046001036127105a0302f46001556103e860005402600101600255",
                "nonce" : "0x00",
                "storage" : {
                    "0x00" : "0x85",
                    "0x01" : "0x01",
                    "0x02" : "0x020789"
                }
            }
        },
        "pre" : {
            "0xa94f5374fce5edbc8e2a8697c15331677e6ebf0b" : {
                "balance" : "0xffffffffffffffffffffffffffffffff",
                "code" : "",
                "nonce" : "0x00",
                "storage" : {
                }
            },
            "0xaaaf5374fce5edbc8e2a8697c15331677e6ebf0b" : {
                "balance" : "0x1b58",
                "code" : "",
                "nonce" : "0x00",
                "storage" : {
                }
            },
            "0xbbbf5374fce5edbc8e2a8697c15331677e6ebf0b" : {
                "balance" : "0x0400",
                "code" : "0x600160005401600055600060006000600073bbbf5374fce5edbc8e2a8697c15331677e6ebf0b610401600054046001036127105a0302f46001556103e860005402600101600255",
                "nonce" : "0x00",
                "storage" : {
                }
            }
        }
    },
    "Delegatecall1024OOG_d0g0v0_EIP150" : {
        "_info" : {
            "comment" : "",
            "filledwith" : "cpp-1.3.0+commit.8fb57c56.Linux.g++",
            "lllcversion" : "Version: 0.4.20-develop.2018.1.8+commit.2548228b.Linux.g++",
            "source" : "src/BlockchainTestsFiller/GeneralStateTests/stDelegatecallTestHomestead/Delegatecall1024OOG_d0g0v0Filler.json",
            "sourceHash" : "42dfc4da9c81bd2f0b8f44a710a7217ecba20c5c70230f3be093f99c50abd8f0"
        },
        "blocks" : [
            {
                "blockHeader" : {
                    "bloom" : "0x00000000000000000000000000000000000000000000000000000000000000000000000000000000000000000000000000000000000000000000000000000000000000000000000000000000000000000000000000000000000000000000000000000000000000000000000000000000000000000000000000000000000000000000000000000000000000000000000000000000000000000000000000000000000000000000000000000000000000000000000000000000000000000000000000000000000000000000000000000000000000000000000000000000000000000000000000000000000000000000000000000000000000000000000000000000",
                    "coinbase" : "0xb94f5374fce5edbc8e2a8697c15331677e6ebf0b",
                    "difficulty" : "0x020000",
                    "extraData" : "",
                    "gasLimit" : "0x7fffffffffffffff",
                    "gasUsed" : "0x3a8720",
                    "hash" : "0xca3a51bdd48e0e8be19a469ea39c64446dc4fc0aae891f81eba39a4e1cc4ff92",
                    "mixHash" : "0x6cedcab20f38cf94cf393734d1bf2f3185420d92eb8867bae584468568d4912e",
                    "nonce" : "0xe066e7b32142ce74",
                    "number" : "0x01",
                    "parentHash" : "0xe75d47691b726c8c312a99cdc15c3685d5200fcefa3be699586a6370405e202f",
                    "receiptTrie" : "0xb951b43e7f02950467ef33072a3996a8bc99e4f6c3324f36ece62b53c74b934e",
                    "stateRoot" : "0x94df02941f75c4041cb9a77e0fd9f411d907bf8105ca508f7bf530bc254b5e54",
                    "timestamp" : "0x03e8",
                    "transactionsTrie" : "0x05228c15750d1455c5afe47e9759d27e194f5fc66752d3faf84ffe17ce9bfcbc",
                    "uncleHash" : "0x1dcc4de8dec75d7aab85b567b6ccd41ad312451b948a7413f0a142fd40d49347"
                },
                "rlp" : "0xf90265f901fda0e75d47691b726c8c312a99cdc15c3685d5200fcefa3be699586a6370405e202fa01dcc4de8dec75d7aab85b567b6ccd41ad312451b948a7413f0a142fd40d4934794b94f5374fce5edbc8e2a8697c15331677e6ebf0ba094df02941f75c4041cb9a77e0fd9f411d907bf8105ca508f7bf530bc254b5e54a005228c15750d1455c5afe47e9759d27e194f5fc66752d3faf84ffe17ce9bfcbca0b951b43e7f02950467ef33072a3996a8bc99e4f6c3324f36ece62b53c74b934eb90100000000000000000000000000000000000000000000000000000000000000000000000000000000000000000000000000000000000000000000000000000000000000000000000000000000000000000000000000000000000000000000000000000000000000000000000000000000000000000000000000000000000000000000000000000000000000000000000000000000000000000000000000000000000000000000000000000000000000000000000000000000000000000000000000000000000000000000000000000000000000000000000000000000000000000000000000000000000000000000000000000000000000000000000000000000008302000001887fffffffffffffff833a87208203e880a06cedcab20f38cf94cf393734d1bf2f3185420d92eb8867bae584468568d4912e88e066e7b32142ce74f862f860800183efe17a94bbbf5374fce5edbc8e2a8697c15331677e6ebf0b0a801ca0dd18dcb7c4d6ae974fc0646511b8682a390dd3fe780fe7d5ac626f8eb841a176a07c0d8ae91b46d59fc98b5c154a3a59f35dca42f0127e96913bbad8d9ce02f752c0",
                "transactions" : [
                    {
                        "data" : "0x",
                        "gasLimit" : "0xefe17a",
                        "gasPrice" : "0x01",
                        "nonce" : "0x00",
                        "r" : "0xdd18dcb7c4d6ae974fc0646511b8682a390dd3fe780fe7d5ac626f8eb841a176",
                        "s" : "0x7c0d8ae91b46d59fc98b5c154a3a59f35dca42f0127e96913bbad8d9ce02f752",
                        "to" : "0xbbbf5374fce5edbc8e2a8697c15331677e6ebf0b",
                        "v" : "0x1c",
                        "value" : "0x0a"
                    }
                ],
                "uncleHeaders" : [
                ]
            }
        ],
        "genesisBlockHeader" : {
            "bloom" : "0x00000000000000000000000000000000000000000000000000000000000000000000000000000000000000000000000000000000000000000000000000000000000000000000000000000000000000000000000000000000000000000000000000000000000000000000000000000000000000000000000000000000000000000000000000000000000000000000000000000000000000000000000000000000000000000000000000000000000000000000000000000000000000000000000000000000000000000000000000000000000000000000000000000000000000000000000000000000000000000000000000000000000000000000000000000000",
            "coinbase" : "0xb94f5374fce5edbc8e2a8697c15331677e6ebf0b",
            "difficulty" : "0x020000",
            "extraData" : "0x42",
            "gasLimit" : "0x7fffffffffffffff",
            "gasUsed" : "0x00",
            "hash" : "0xe75d47691b726c8c312a99cdc15c3685d5200fcefa3be699586a6370405e202f",
            "mixHash" : "0x56e81f171bcc55a6ff8345e692c0f86e5b48e01b996cadc001622fb5e363b421",
            "nonce" : "0x0102030405060708",
            "number" : "0x00",
            "parentHash" : "0x0000000000000000000000000000000000000000000000000000000000000000",
            "receiptTrie" : "0x56e81f171bcc55a6ff8345e692c0f86e5b48e01b996cadc001622fb5e363b421",
            "stateRoot" : "0xab1cde6303da0d692e2d2fd852f572e1cf6f9c93bad37fd3732f8255f17a36f8",
            "timestamp" : "0x03b6",
            "transactionsTrie" : "0x56e81f171bcc55a6ff8345e692c0f86e5b48e01b996cadc001622fb5e363b421",
            "uncleHash" : "0x1dcc4de8dec75d7aab85b567b6ccd41ad312451b948a7413f0a142fd40d49347"
        },
        "genesisRLP" : "0xf901fff901faa00000000000000000000000000000000000000000000000000000000000000000a01dcc4de8dec75d7aab85b567b6ccd41ad312451b948a7413f0a142fd40d4934794b94f5374fce5edbc8e2a8697c15331677e6ebf0ba0ab1cde6303da0d692e2d2fd852f572e1cf6f9c93bad37fd3732f8255f17a36f8a056e81f171bcc55a6ff8345e692c0f86e5b48e01b996cadc001622fb5e363b421a056e81f171bcc55a6ff8345e692c0f86e5b48e01b996cadc001622fb5e363b421b90100000000000000000000000000000000000000000000000000000000000000000000000000000000000000000000000000000000000000000000000000000000000000000000000000000000000000000000000000000000000000000000000000000000000000000000000000000000000000000000000000000000000000000000000000000000000000000000000000000000000000000000000000000000000000000000000000000000000000000000000000000000000000000000000000000000000000000000000000000000000000000000000000000000000000000000000000000000000000000000000000000000000000000000000000000000008302000080887fffffffffffffff808203b642a056e81f171bcc55a6ff8345e692c0f86e5b48e01b996cadc001622fb5e363b421880102030405060708c0c0",
        "lastblockhash" : "0xca3a51bdd48e0e8be19a469ea39c64446dc4fc0aae891f81eba39a4e1cc4ff92",
        "network" : "EIP150",
        "postState" : {
            "0xa94f5374fce5edbc8e2a8697c15331677e6ebf0b" : {
                "balance" : "0xffffffffffffffffffffffffffc578d5",
                "code" : "",
                "nonce" : "0x01",
                "storage" : {
                }
            },
            "0xaaaf5374fce5edbc8e2a8697c15331677e6ebf0b" : {
                "balance" : "0x1b58",
                "code" : "",
                "nonce" : "0x00",
                "storage" : {
                }
            },
            "0xb94f5374fce5edbc8e2a8697c15331677e6ebf0b" : {
                "balance" : "0x45639182452e8720",
                "code" : "",
                "nonce" : "0x00",
                "storage" : {
                }
            },
            "0xbbbf5374fce5edbc8e2a8697c15331677e6ebf0b" : {
                "balance" : "0x040a",
                "code" : "0x600160005401600055600060006000600073bbbf5374fce5edbc8e2a8697c15331677e6ebf0b610401600054046001036127105a0302f46001556103e860005402600101600255",
                "nonce" : "0x00",
                "storage" : {
                    "0x00" : "0x85",
                    "0x01" : "0x01",
                    "0x02" : "0x020789"
                }
            }
        },
        "pre" : {
            "0xa94f5374fce5edbc8e2a8697c15331677e6ebf0b" : {
                "balance" : "0xffffffffffffffffffffffffffffffff",
                "code" : "",
                "nonce" : "0x00",
                "storage" : {
                }
            },
            "0xaaaf5374fce5edbc8e2a8697c15331677e6ebf0b" : {
                "balance" : "0x1b58",
                "code" : "",
                "nonce" : "0x00",
                "storage" : {
                }
            },
            "0xbbbf5374fce5edbc8e2a8697c15331677e6ebf0b" : {
                "balance" : "0x0400",
                "code" : "0x600160005401600055600060006000600073bbbf5374fce5edbc8e2a8697c15331677e6ebf0b610401600054046001036127105a0302f46001556103e860005402600101600255",
                "nonce" : "0x00",
                "storage" : {
                }
            }
        }
    },
    "Delegatecall1024OOG_d0g0v0_Homestead" : {
        "_info" : {
            "comment" : "",
            "filledwith" : "cpp-1.3.0+commit.8fb57c56.Linux.g++",
            "lllcversion" : "Version: 0.4.20-develop.2018.1.8+commit.2548228b.Linux.g++",
            "source" : "src/BlockchainTestsFiller/GeneralStateTests/stDelegatecallTestHomestead/Delegatecall1024OOG_d0g0v0Filler.json",
            "sourceHash" : "42dfc4da9c81bd2f0b8f44a710a7217ecba20c5c70230f3be093f99c50abd8f0"
        },
        "blocks" : [
            {
                "blockHeader" : {
                    "bloom" : "0x00000000000000000000000000000000000000000000000000000000000000000000000000000000000000000000000000000000000000000000000000000000000000000000000000000000000000000000000000000000000000000000000000000000000000000000000000000000000000000000000000000000000000000000000000000000000000000000000000000000000000000000000000000000000000000000000000000000000000000000000000000000000000000000000000000000000000000000000000000000000000000000000000000000000000000000000000000000000000000000000000000000000000000000000000000000",
                    "coinbase" : "0xb94f5374fce5edbc8e2a8697c15331677e6ebf0b",
                    "difficulty" : "0x020000",
                    "extraData" : "",
                    "gasLimit" : "0x7fffffffffffffff",
                    "gasUsed" : "0xefd576",
                    "hash" : "0xde45c668816b4b31d264efc6efbb6e19830c4ab4f109f1ef8014c771ddd94802",
                    "mixHash" : "0x18849a76064904f2bd57e82adbf287e0c26ac1537b7a3c2252181dcac45ef7f3",
                    "nonce" : "0x2bfd8b3ca8a1e4d2",
                    "number" : "0x01",
                    "parentHash" : "0xe75d47691b726c8c312a99cdc15c3685d5200fcefa3be699586a6370405e202f",
                    "receiptTrie" : "0xcdec5bf73a796903dd19010beb18d6cb74cb58e715970e1cd5faf143db9a3277",
                    "stateRoot" : "0x7ff231b903aabb1ca1dac4e67c5e769cbd9f9d1227848dcb0d075fad549633d5",
                    "timestamp" : "0x03e8",
                    "transactionsTrie" : "0x05228c15750d1455c5afe47e9759d27e194f5fc66752d3faf84ffe17ce9bfcbc",
                    "uncleHash" : "0x1dcc4de8dec75d7aab85b567b6ccd41ad312451b948a7413f0a142fd40d49347"
                },
                "rlp" : "0xf90265f901fda0e75d47691b726c8c312a99cdc15c3685d5200fcefa3be699586a6370405e202fa01dcc4de8dec75d7aab85b567b6ccd41ad312451b948a7413f0a142fd40d4934794b94f5374fce5edbc8e2a8697c15331677e6ebf0ba07ff231b903aabb1ca1dac4e67c5e769cbd9f9d1227848dcb0d075fad549633d5a005228c15750d1455c5afe47e9759d27e194f5fc66752d3faf84ffe17ce9bfcbca0cdec5bf73a796903dd19010beb18d6cb74cb58e715970e1cd5faf143db9a3277b90100000000000000000000000000000000000000000000000000000000000000000000000000000000000000000000000000000000000000000000000000000000000000000000000000000000000000000000000000000000000000000000000000000000000000000000000000000000000000000000000000000000000000000000000000000000000000000000000000000000000000000000000000000000000000000000000000000000000000000000000000000000000000000000000000000000000000000000000000000000000000000000000000000000000000000000000000000000000000000000000000000000000000000000000000000000008302000001887fffffffffffffff83efd5768203e880a018849a76064904f2bd57e82adbf287e0c26ac1537b7a3c2252181dcac45ef7f3882bfd8b3ca8a1e4d2f862f860800183efe17a94bbbf5374fce5edbc8e2a8697c15331677e6ebf0b0a801ca0dd18dcb7c4d6ae974fc0646511b8682a390dd3fe780fe7d5ac626f8eb841a176a07c0d8ae91b46d59fc98b5c154a3a59f35dca42f0127e96913bbad8d9ce02f752c0",
                "transactions" : [
                    {
                        "data" : "0x",
                        "gasLimit" : "0xefe17a",
                        "gasPrice" : "0x01",
                        "nonce" : "0x00",
                        "r" : "0xdd18dcb7c4d6ae974fc0646511b8682a390dd3fe780fe7d5ac626f8eb841a176",
                        "s" : "0x7c0d8ae91b46d59fc98b5c154a3a59f35dca42f0127e96913bbad8d9ce02f752",
                        "to" : "0xbbbf5374fce5edbc8e2a8697c15331677e6ebf0b",
                        "v" : "0x1c",
                        "value" : "0x0a"
                    }
                ],
                "uncleHeaders" : [
                ]
            }
        ],
        "genesisBlockHeader" : {
            "bloom" : "0x00000000000000000000000000000000000000000000000000000000000000000000000000000000000000000000000000000000000000000000000000000000000000000000000000000000000000000000000000000000000000000000000000000000000000000000000000000000000000000000000000000000000000000000000000000000000000000000000000000000000000000000000000000000000000000000000000000000000000000000000000000000000000000000000000000000000000000000000000000000000000000000000000000000000000000000000000000000000000000000000000000000000000000000000000000000",
            "coinbase" : "0xb94f5374fce5edbc8e2a8697c15331677e6ebf0b",
            "difficulty" : "0x020000",
            "extraData" : "0x42",
            "gasLimit" : "0x7fffffffffffffff",
            "gasUsed" : "0x00",
            "hash" : "0xe75d47691b726c8c312a99cdc15c3685d5200fcefa3be699586a6370405e202f",
            "mixHash" : "0x56e81f171bcc55a6ff8345e692c0f86e5b48e01b996cadc001622fb5e363b421",
            "nonce" : "0x0102030405060708",
            "number" : "0x00",
            "parentHash" : "0x0000000000000000000000000000000000000000000000000000000000000000",
            "receiptTrie" : "0x56e81f171bcc55a6ff8345e692c0f86e5b48e01b996cadc001622fb5e363b421",
            "stateRoot" : "0xab1cde6303da0d692e2d2fd852f572e1cf6f9c93bad37fd3732f8255f17a36f8",
            "timestamp" : "0x03b6",
            "transactionsTrie" : "0x56e81f171bcc55a6ff8345e692c0f86e5b48e01b996cadc001622fb5e363b421",
            "uncleHash" : "0x1dcc4de8dec75d7aab85b567b6ccd41ad312451b948a7413f0a142fd40d49347"
        },
        "genesisRLP" : "0xf901fff901faa00000000000000000000000000000000000000000000000000000000000000000a01dcc4de8dec75d7aab85b567b6ccd41ad312451b948a7413f0a142fd40d4934794b94f5374fce5edbc8e2a8697c15331677e6ebf0ba0ab1cde6303da0d692e2d2fd852f572e1cf6f9c93bad37fd3732f8255f17a36f8a056e81f171bcc55a6ff8345e692c0f86e5b48e01b996cadc001622fb5e363b421a056e81f171bcc55a6ff8345e692c0f86e5b48e01b996cadc001622fb5e363b421b90100000000000000000000000000000000000000000000000000000000000000000000000000000000000000000000000000000000000000000000000000000000000000000000000000000000000000000000000000000000000000000000000000000000000000000000000000000000000000000000000000000000000000000000000000000000000000000000000000000000000000000000000000000000000000000000000000000000000000000000000000000000000000000000000000000000000000000000000000000000000000000000000000000000000000000000000000000000000000000000000000000000000000000000000000000000008302000080887fffffffffffffff808203b642a056e81f171bcc55a6ff8345e692c0f86e5b48e01b996cadc001622fb5e363b421880102030405060708c0c0",
        "lastblockhash" : "0xde45c668816b4b31d264efc6efbb6e19830c4ab4f109f1ef8014c771ddd94802",
        "network" : "Homestead",
        "postState" : {
            "0xa94f5374fce5edbc8e2a8697c15331677e6ebf0b" : {
                "balance" : "0xffffffffffffffffffffffffff102a7f",
                "code" : "",
                "nonce" : "0x01",
                "storage" : {
                }
            },
            "0xaaaf5374fce5edbc8e2a8697c15331677e6ebf0b" : {
                "balance" : "0x1b58",
                "code" : "",
                "nonce" : "0x00",
                "storage" : {
                }
            },
            "0xb94f5374fce5edbc8e2a8697c15331677e6ebf0b" : {
                "balance" : "0x4563918245e3d576",
                "code" : "",
                "nonce" : "0x00",
                "storage" : {
                }
            },
            "0xbbbf5374fce5edbc8e2a8697c15331677e6ebf0b" : {
                "balance" : "0x040a",
                "code" : "0x600160005401600055600060006000600073bbbf5374fce5edbc8e2a8697c15331677e6ebf0b610401600054046001036127105a0302f46001556103e860005402600101600255",
                "nonce" : "0x00",
                "storage" : {
                    "0x00" : "0x0401",
                    "0x01" : "0x01",
                    "0x02" : "0x0fa3e9"
                }
            }
        },
        "pre" : {
            "0xa94f5374fce5edbc8e2a8697c15331677e6ebf0b" : {
                "balance" : "0xffffffffffffffffffffffffffffffff",
                "code" : "",
                "nonce" : "0x00",
                "storage" : {
                }
            },
            "0xaaaf5374fce5edbc8e2a8697c15331677e6ebf0b" : {
                "balance" : "0x1b58",
                "code" : "",
                "nonce" : "0x00",
                "storage" : {
                }
            },
            "0xbbbf5374fce5edbc8e2a8697c15331677e6ebf0b" : {
                "balance" : "0x0400",
                "code" : "0x600160005401600055600060006000600073bbbf5374fce5edbc8e2a8697c15331677e6ebf0b610401600054046001036127105a0302f46001556103e860005402600101600255",
                "nonce" : "0x00",
                "storage" : {
                }
            }
        }
    }
}