{
    "delegatecallInInitcodeToExistingContract_d0g0v0_Byzantium" : {
        "_info" : {
            "comment" : "",
            "filledwith" : "cpp-1.3.0+commit.8fb57c56.Linux.g++",
            "lllcversion" : "Version: 0.4.20-develop.2018.1.8+commit.2548228b.Linux.g++",
            "source" : "src/BlockchainTestsFiller/GeneralStateTests/stDelegatecallTestHomestead/delegatecallInInitcodeToExistingContract_d0g0v0Filler.json",
            "sourceHash" : "ddead1a59f597fff5ed26aeea83c55361e2cef361c1fc05e027accd97baeb21c"
        },
        "blocks" : [
            {
                "blockHeader" : {
                    "bloom" : "0x00000000000000000000000000000000000000000000000000000000000000000000000000000000000000000000000000000000000000000000000000000000000000000000000000000000000000000000000000000000000000000000000000000000000000000000000000000000000000000000000000000000000000000000000000000000000000000000000000000000000000000000000000000000000000000000000000000000000000000000000000000000000000000000000000000000000000000000000000000000000000000000000000000000000000000000000000000000000000000000000000000000000000000000000000000000",
                    "coinbase" : "0x2adc25665018aa1fe0e6bc666dac8fc2697ff9ba",
                    "difficulty" : "0x020000",
                    "extraData" : "",
                    "gasLimit" : "0x0f4240",
                    "gasUsed" : "0x020a90",
                    "hash" : "0x49bd050e882211c1fc129a4e69eb1a71ab9192ba734400243328a25243fcd70f",
                    "mixHash" : "0x9521dfae222cebfc592f9c9d7236d594de19c4355955f9bbbe71763f8845dd48",
                    "nonce" : "0x2f8395c0dea3bd16",
                    "number" : "0x01",
                    "parentHash" : "0x25b8258f5c6333515e4298eaef4c9cd4e622e03e769a451b12a1497fc85e70ae",
                    "receiptTrie" : "0x0e7e01517099c69abfaa43aaf196aef8884a16e3667b907aebfd41f419e325b2",
                    "stateRoot" : "0x5696e3700fe35114f2c429562113e0a3920ae810d929b5a1576edd994facd5f5",
                    "timestamp" : "0x03e8",
                    "transactionsTrie" : "0x74b39e73f0c67b78fff4eb82226142222765b09c97c66d83d2aa030ec81c4f68",
                    "uncleHash" : "0x1dcc4de8dec75d7aab85b567b6ccd41ad312451b948a7413f0a142fd40d49347"
                },
                "rlp" : "0xf90260f901f8a025b8258f5c6333515e4298eaef4c9cd4e622e03e769a451b12a1497fc85e70aea01dcc4de8dec75d7aab85b567b6ccd41ad312451b948a7413f0a142fd40d49347942adc25665018aa1fe0e6bc666dac8fc2697ff9baa05696e3700fe35114f2c429562113e0a3920ae810d929b5a1576edd994facd5f5a074b39e73f0c67b78fff4eb82226142222765b09c97c66d83d2aa030ec81c4f68a00e7e01517099c69abfaa43aaf196aef8884a16e3667b907aebfd41f419e325b2b90100000000000000000000000000000000000000000000000000000000000000000000000000000000000000000000000000000000000000000000000000000000000000000000000000000000000000000000000000000000000000000000000000000000000000000000000000000000000000000000000000000000000000000000000000000000000000000000000000000000000000000000000000000000000000000000000000000000000000000000000000000000000000000000000000000000000000000000000000000000000000000000000000000000000000000000000000000000000000000000000000000000000000000000000000000000008302000001830f424083020a908203e880a09521dfae222cebfc592f9c9d7236d594de19c4355955f9bbbe71763f8845dd48882f8395c0dea3bd16f862f86080018306e9d994100000000000000000000000000000000000000080801ba0f3800914fa5a27a13dc5a4119f11c1ae1c6874ad1e299f13e9f43e96c8bdaa0ea0332b1e65d433906232fbb38ec187498f66c29f6127864d94788d7de5bc1d4d32c0",
                "transactions" : [
                    {
                        "data" : "0x",
                        "gasLimit" : "0x06e9d9",
                        "gasPrice" : "0x01",
                        "nonce" : "0x00",
                        "r" : "0xf3800914fa5a27a13dc5a4119f11c1ae1c6874ad1e299f13e9f43e96c8bdaa0e",
                        "s" : "0x332b1e65d433906232fbb38ec187498f66c29f6127864d94788d7de5bc1d4d32",
                        "to" : "0x1000000000000000000000000000000000000000",
                        "v" : "0x1b",
                        "value" : "0x00"
                    }
                ],
                "uncleHeaders" : [
                ]
            }
        ],
        "genesisBlockHeader" : {
            "bloom" : "0x00000000000000000000000000000000000000000000000000000000000000000000000000000000000000000000000000000000000000000000000000000000000000000000000000000000000000000000000000000000000000000000000000000000000000000000000000000000000000000000000000000000000000000000000000000000000000000000000000000000000000000000000000000000000000000000000000000000000000000000000000000000000000000000000000000000000000000000000000000000000000000000000000000000000000000000000000000000000000000000000000000000000000000000000000000000",
            "coinbase" : "0x2adc25665018aa1fe0e6bc666dac8fc2697ff9ba",
            "difficulty" : "0x020000",
            "extraData" : "0x42",
            "gasLimit" : "0x0f4240",
            "gasUsed" : "0x00",
            "hash" : "0x25b8258f5c6333515e4298eaef4c9cd4e622e03e769a451b12a1497fc85e70ae",
            "mixHash" : "0x56e81f171bcc55a6ff8345e692c0f86e5b48e01b996cadc001622fb5e363b421",
            "nonce" : "0x0102030405060708",
            "number" : "0x00",
            "parentHash" : "0x0000000000000000000000000000000000000000000000000000000000000000",
            "receiptTrie" : "0x56e81f171bcc55a6ff8345e692c0f86e5b48e01b996cadc001622fb5e363b421",
            "stateRoot" : "0x324313f4c5dabb0d09e35628a0e33a7ecaeb742a98aa8c588bac451e1802fafa",
            "timestamp" : "0x03b6",
            "transactionsTrie" : "0x56e81f171bcc55a6ff8345e692c0f86e5b48e01b996cadc001622fb5e363b421",
            "uncleHash" : "0x1dcc4de8dec75d7aab85b567b6ccd41ad312451b948a7413f0a142fd40d49347"
        },
        "genesisRLP" : "0xf901faf901f5a00000000000000000000000000000000000000000000000000000000000000000a01dcc4de8dec75d7aab85b567b6ccd41ad312451b948a7413f0a142fd40d49347942adc25665018aa1fe0e6bc666dac8fc2697ff9baa0324313f4c5dabb0d09e35628a0e33a7ecaeb742a98aa8c588bac451e1802fafaa056e81f171bcc55a6ff8345e692c0f86e5b48e01b996cadc001622fb5e363b421a056e81f171bcc55a6ff8345e692c0f86e5b48e01b996cadc001622fb5e363b421b90100000000000000000000000000000000000000000000000000000000000000000000000000000000000000000000000000000000000000000000000000000000000000000000000000000000000000000000000000000000000000000000000000000000000000000000000000000000000000000000000000000000000000000000000000000000000000000000000000000000000000000000000000000000000000000000000000000000000000000000000000000000000000000000000000000000000000000000000000000000000000000000000000000000000000000000000000000000000000000000000000000000000000000000000000000000008302000080830f4240808203b642a056e81f171bcc55a6ff8345e692c0f86e5b48e01b996cadc001622fb5e363b421880102030405060708c0c0",
        "lastblockhash" : "0x49bd050e882211c1fc129a4e69eb1a71ab9192ba734400243328a25243fcd70f",
        "network" : "Byzantium",
        "postState" : {
            "0x1000000000000000000000000000000000000000" : {
                "balance" : "0x270f",
                "code" : "0x7f604060006040600073945304eb96065b2a98b57a48a06ae28d285a71b56201866000527fa0f4600055336001550000000000000000000000000000000000000000000000602052604060006001f0",
                "nonce" : "0x01",
                "storage" : {
                }
            },
            "0x1000000000000000000000000000000000000001" : {
                "balance" : "0x03e8",
                "code" : "0x6460016000556000526005601b6001f0",
                "nonce" : "0x00",
                "storage" : {
                }
            },
            "0x13136008b64ff592819b2fa6d43f2835c452020e" : {
                "balance" : "0x01",
                "code" : "",
                "nonce" : "0x01",
                "storage" : {
                    "0x00" : "0x01",
                    "0x01" : "0x1000000000000000000000000000000000000000",
                    "0x02" : "0x01",
                    "0x0b" : "0x1000000000000000000000000000000000000000"
                }
            },
            "0x2adc25665018aa1fe0e6bc666dac8fc2697ff9ba" : {
                "balance" : "0x29a2241af62e0a90",
                "code" : "",
                "nonce" : "0x00",
                "storage" : {
                }
            },
            "0x945304eb96065b2a98b57a48a06ae28d285a71b5" : {
                "balance" : "0x00",
                "code" : "0x600160025533600b55",
                "nonce" : "0x00",
                "storage" : {
                }
            },
            "0xa94f5374fce5edbc8e2a8697c15331677e6ebf0b" : {
                "balance" : "0x2386f26fbef570",
                "code" : "",
                "nonce" : "0x01",
                "storage" : {
                }
            }
        },
        "pre" : {
            "0x1000000000000000000000000000000000000000" : {
                "balance" : "0x2710",
                "code" : "0x7f604060006040600073945304eb96065b2a98b57a48a06ae28d285a71b56201866000527fa0f4600055336001550000000000000000000000000000000000000000000000602052604060006001f0",
                "nonce" : "0x00",
                "storage" : {
                }
            },
            "0x1000000000000000000000000000000000000001" : {
                "balance" : "0x03e8",
                "code" : "0x6460016000556000526005601b6001f0",
                "nonce" : "0x00",
                "storage" : {
                }
            },
            "0x945304eb96065b2a98b57a48a06ae28d285a71b5" : {
                "balance" : "0x00",
                "code" : "0x600160025533600b55",
                "nonce" : "0x00",
                "storage" : {
                }
            },
            "0xa94f5374fce5edbc8e2a8697c15331677e6ebf0b" : {
                "balance" : "0x2386f26fc10000",
                "code" : "",
                "nonce" : "0x00",
                "storage" : {
                }
            }
        }
    },
    "delegatecallInInitcodeToExistingContract_d0g0v0_Homestead" : {
        "_info" : {
            "comment" : "",
            "filledwith" : "cpp-1.3.0+commit.8fb57c56.Linux.g++",
            "lllcversion" : "Version: 0.4.20-develop.2018.1.8+commit.2548228b.Linux.g++",
            "source" : "src/BlockchainTestsFiller/GeneralStateTests/stDelegatecallTestHomestead/delegatecallInInitcodeToExistingContract_d0g0v0Filler.json",
            "sourceHash" : "ddead1a59f597fff5ed26aeea83c55361e2cef361c1fc05e027accd97baeb21c"
        },
        "blocks" : [
            {
                "blockHeader" : {
                    "bloom" : "0x00000000000000000000000000000000000000000000000000000000000000000000000000000000000000000000000000000000000000000000000000000000000000000000000000000000000000000000000000000000000000000000000000000000000000000000000000000000000000000000000000000000000000000000000000000000000000000000000000000000000000000000000000000000000000000000000000000000000000000000000000000000000000000000000000000000000000000000000000000000000000000000000000000000000000000000000000000000000000000000000000000000000000000000000000000000",
                    "coinbase" : "0x2adc25665018aa1fe0e6bc666dac8fc2697ff9ba",
                    "difficulty" : "0x020000",
                    "extraData" : "",
                    "gasLimit" : "0x0f4240",
                    "gasUsed" : "0x0207fc",
                    "hash" : "0x996f7419ceadde0aa46f7cef074682418ad086744ab69266c06c2ecf9e6fcf26",
                    "mixHash" : "0xf6ddce0e602dc9ce0b09a96c68b2f7ec7c987a0d9304295d69fb229890b13e1f",
                    "nonce" : "0xe4648fdc00647342",
                    "number" : "0x01",
                    "parentHash" : "0x25b8258f5c6333515e4298eaef4c9cd4e622e03e769a451b12a1497fc85e70ae",
                    "receiptTrie" : "0x2530b2bc97e4208028782a292c202a91a10857ba28096db427229d9a146c4050",
                    "stateRoot" : "0xb3a796a212316ebf6757d1cf3c734f2b0fc2e2991e9f746b8b085d43e0b9792b",
                    "timestamp" : "0x03e8",
                    "transactionsTrie" : "0x74b39e73f0c67b78fff4eb82226142222765b09c97c66d83d2aa030ec81c4f68",
                    "uncleHash" : "0x1dcc4de8dec75d7aab85b567b6ccd41ad312451b948a7413f0a142fd40d49347"
                },
                "rlp" : "0xf90260f901f8a025b8258f5c6333515e4298eaef4c9cd4e622e03e769a451b12a1497fc85e70aea01dcc4de8dec75d7aab85b567b6ccd41ad312451b948a7413f0a142fd40d49347942adc25665018aa1fe0e6bc666dac8fc2697ff9baa0b3a796a212316ebf6757d1cf3c734f2b0fc2e2991e9f746b8b085d43e0b9792ba074b39e73f0c67b78fff4eb82226142222765b09c97c66d83d2aa030ec81c4f68a02530b2bc97e4208028782a292c202a91a10857ba28096db427229d9a146c4050b90100000000000000000000000000000000000000000000000000000000000000000000000000000000000000000000000000000000000000000000000000000000000000000000000000000000000000000000000000000000000000000000000000000000000000000000000000000000000000000000000000000000000000000000000000000000000000000000000000000000000000000000000000000000000000000000000000000000000000000000000000000000000000000000000000000000000000000000000000000000000000000000000000000000000000000000000000000000000000000000000000000000000000000000000000000000008302000001830f4240830207fc8203e880a0f6ddce0e602dc9ce0b09a96c68b2f7ec7c987a0d9304295d69fb229890b13e1f88e4648fdc00647342f862f86080018306e9d994100000000000000000000000000000000000000080801ba0f3800914fa5a27a13dc5a4119f11c1ae1c6874ad1e299f13e9f43e96c8bdaa0ea0332b1e65d433906232fbb38ec187498f66c29f6127864d94788d7de5bc1d4d32c0",
                "transactions" : [
                    {
                        "data" : "0x",
                        "gasLimit" : "0x06e9d9",
                        "gasPrice" : "0x01",
                        "nonce" : "0x00",
                        "r" : "0xf3800914fa5a27a13dc5a4119f11c1ae1c6874ad1e299f13e9f43e96c8bdaa0e",
                        "s" : "0x332b1e65d433906232fbb38ec187498f66c29f6127864d94788d7de5bc1d4d32",
                        "to" : "0x1000000000000000000000000000000000000000",
                        "v" : "0x1b",
                        "value" : "0x00"
                    }
                ],
                "uncleHeaders" : [
                ]
            }
        ],
        "genesisBlockHeader" : {
            "bloom" : "0x00000000000000000000000000000000000000000000000000000000000000000000000000000000000000000000000000000000000000000000000000000000000000000000000000000000000000000000000000000000000000000000000000000000000000000000000000000000000000000000000000000000000000000000000000000000000000000000000000000000000000000000000000000000000000000000000000000000000000000000000000000000000000000000000000000000000000000000000000000000000000000000000000000000000000000000000000000000000000000000000000000000000000000000000000000000",
            "coinbase" : "0x2adc25665018aa1fe0e6bc666dac8fc2697ff9ba",
            "difficulty" : "0x020000",
            "extraData" : "0x42",
            "gasLimit" : "0x0f4240",
            "gasUsed" : "0x00",
            "hash" : "0x25b8258f5c6333515e4298eaef4c9cd4e622e03e769a451b12a1497fc85e70ae",
            "mixHash" : "0x56e81f171bcc55a6ff8345e692c0f86e5b48e01b996cadc001622fb5e363b421",
            "nonce" : "0x0102030405060708",
            "number" : "0x00",
            "parentHash" : "0x0000000000000000000000000000000000000000000000000000000000000000",
            "receiptTrie" : "0x56e81f171bcc55a6ff8345e692c0f86e5b48e01b996cadc001622fb5e363b421",
            "stateRoot" : "0x324313f4c5dabb0d09e35628a0e33a7ecaeb742a98aa8c588bac451e1802fafa",
            "timestamp" : "0x03b6",
            "transactionsTrie" : "0x56e81f171bcc55a6ff8345e692c0f86e5b48e01b996cadc001622fb5e363b421",
            "uncleHash" : "0x1dcc4de8dec75d7aab85b567b6ccd41ad312451b948a7413f0a142fd40d49347"
        },
        "genesisRLP" : "0xf901faf901f5a00000000000000000000000000000000000000000000000000000000000000000a01dcc4de8dec75d7aab85b567b6ccd41ad312451b948a7413f0a142fd40d49347942adc25665018aa1fe0e6bc666dac8fc2697ff9baa0324313f4c5dabb0d09e35628a0e33a7ecaeb742a98aa8c588bac451e1802fafaa056e81f171bcc55a6ff8345e692c0f86e5b48e01b996cadc001622fb5e363b421a056e81f171bcc55a6ff8345e692c0f86e5b48e01b996cadc001622fb5e363b421b90100000000000000000000000000000000000000000000000000000000000000000000000000000000000000000000000000000000000000000000000000000000000000000000000000000000000000000000000000000000000000000000000000000000000000000000000000000000000000000000000000000000000000000000000000000000000000000000000000000000000000000000000000000000000000000000000000000000000000000000000000000000000000000000000000000000000000000000000000000000000000000000000000000000000000000000000000000000000000000000000000000000000000000000000000000000008302000080830f4240808203b642a056e81f171bcc55a6ff8345e692c0f86e5b48e01b996cadc001622fb5e363b421880102030405060708c0c0",
        "lastblockhash" : "0x996f7419ceadde0aa46f7cef074682418ad086744ab69266c06c2ecf9e6fcf26",
        "network" : "Homestead",
        "postState" : {
            "0x1000000000000000000000000000000000000000" : {
                "balance" : "0x270f",
                "code" : "0x7f604060006040600073945304eb96065b2a98b57a48a06ae28d285a71b56201866000527fa0f4600055336001550000000000000000000000000000000000000000000000602052604060006001f0",
                "nonce" : "0x01",
                "storage" : {
                }
            },
            "0x1000000000000000000000000000000000000001" : {
                "balance" : "0x03e8",
                "code" : "0x6460016000556000526005601b6001f0",
                "nonce" : "0x00",
                "storage" : {
                }
            },
            "0x13136008b64ff592819b2fa6d43f2835c452020e" : {
                "balance" : "0x01",
                "code" : "",
                "nonce" : "0x00",
                "storage" : {
                    "0x00" : "0x01",
                    "0x01" : "0x1000000000000000000000000000000000000000",
                    "0x02" : "0x01",
                    "0x0b" : "0x1000000000000000000000000000000000000000"
                }
            },
            "0x2adc25665018aa1fe0e6bc666dac8fc2697ff9ba" : {
                "balance" : "0x4563918244f607fc",
                "code" : "",
                "nonce" : "0x00",
                "storage" : {
                }
            },
            "0x945304eb96065b2a98b57a48a06ae28d285a71b5" : {
                "balance" : "0x00",
                "code" : "0x600160025533600b55",
                "nonce" : "0x00",
                "storage" : {
                }
            },
            "0xa94f5374fce5edbc8e2a8697c15331677e6ebf0b" : {
                "balance" : "0x2386f26fbef804",
                "code" : "",
                "nonce" : "0x01",
                "storage" : {
                }
            }
        },
        "pre" : {
            "0x1000000000000000000000000000000000000000" : {
                "balance" : "0x2710",
                "code" : "0x7f604060006040600073945304eb96065b2a98b57a48a06ae28d285a71b56201866000527fa0f4600055336001550000000000000000000000000000000000000000000000602052604060006001f0",
                "nonce" : "0x00",
                "storage" : {
                }
            },
            "0x1000000000000000000000000000000000000001" : {
                "balance" : "0x03e8",
                "code" : "0x6460016000556000526005601b6001f0",
                "nonce" : "0x00",
                "storage" : {
                }
            },
            "0x945304eb96065b2a98b57a48a06ae28d285a71b5" : {
                "balance" : "0x00",
                "code" : "0x600160025533600b55",
                "nonce" : "0x00",
                "storage" : {
                }
            },
            "0xa94f5374fce5edbc8e2a8697c15331677e6ebf0b" : {
                "balance" : "0x2386f26fc10000",
                "code" : "",
                "nonce" : "0x00",
                "storage" : {
                }
            }
        }
    }
}