{
    "14_revertAfterNestedStaticcall" : {
        "_info" : {
            "comment" : "Transient storage can't be manipulated from nested staticcall.",
            "filling-rpc-server" : "Nimbus-t8n 0.1.2",
            "filling-tool-version" : "retesteth-0.3.1-cancun+commit.00a4965a.Linux.g++",
            "generatedTestHash" : "11753506723ddbbdfbf36cfb40bd9fc0a6db29c22d79460670289bb57ad98a7e",
            "lllcversion" : "Version: 0.5.14-develop.2023.7.11+commit.c58ab2c6.mod.Linux.g++",
            "solidity" : "Version: 0.8.20+commit.a1b79de6.Linux.g++",
            "source" : "src/EIPTestsFiller/StateTests/stEIP1153-transientStorage/14_revertAfterNestedStaticcallFiller.yml",
            "sourceHash" : "b75df4a34b778a59386c0e7dcd6a25099559479cba103014f69b37e78f597ffd"
        },
        "env" : {
            "currentBaseFee" : "0x0a",
            "currentCoinbase" : "0x2adc25665018aa1fe0e6bc666dac8fc2697ff9ba",
            "currentDifficulty" : "0x020000",
            "currentGasLimit" : "0x10000000000000",
            "currentNumber" : "0x01",
            "currentRandom" : "0x0000000000000000000000000000000000000000000000000000000000020000",
            "currentTimestamp" : "0x03e8",
            "previousHash" : "0x5e20a0453cecd065ea59c37ac63e079ee08998b6045136a8ce6635c7912ec0b6"
        },
        "post" : {
            "Cancun" : [
                {
                    "hash" : "0x7abc46919b853f51c4aec5b77a152edea99bf16a1b77bffd83e1c4dba48ac441",
                    "indexes" : {
                        "data" : 0,
                        "gas" : 0,
                        "value" : 0
                    },
                    "logs" : "0x1dcc4de8dec75d7aab85b567b6ccd41ad312451b948a7413f0a142fd40d49347",
                    "txbytes" : "0x02f8690180808207d083061a8094a00000000000000000000000000000000000000a8084f5f40590c080a010c8e9f46fe5e78607783f2799bf949663d199019d6508e779365b5ac682a1f1a01ac436e06aee46143a9a3515c1797e4fbcf3594f2851949ef06c001baaff0d0b"
                }
            ]
        },
        "pre" : {
            "0xa00000000000000000000000000000000000000a" : {
                "balance" : "0x0de0b6b3a7640000",
                "code" : "0x600560cc565b63f5f40590811460275763f8dfc2d081146031576362fdb9be8114603b576042565b602d6047565b6042565b60376092565b6042565b604160c6565b5b5060d9565b600a5f5d5f5c805f557ff8dfc2d0000000000000000000000000000000000000000000000000000000005f5260205f60205f3061fffffa5f51600155806002555f5c80600355505050565b7f62fdb9be000000000000000000000000000000000000000000000000000000005f525f8060205f80305af1805f5260205ff35b600b5f5d565b5f80358060e01c91505090565b",
                "nonce" : "0x00",
                "storage" : {
                    "0x01" : "0xffff"
                }
            },
            "0xa94f5374fce5edbc8e2a8697c15331677e6ebf0b" : {
                "balance" : "0x3635c9adc5dea00000",
                "code" : "0x",
                "nonce" : "0x00",
                "storage" : {
                }
            }
        },
        "transaction" : {
            "accessLists" : [
                [
                ]
            ],
            "data" : [
                "0xf5f40590"
            ],
            "gasLimit" : [
                "0x061a80"
            ],
            "maxFeePerGas" : "0x07d0",
            "maxPriorityFeePerGas" : "0x00",
            "nonce" : "0x00",
            "secretKey" : "0x45a915e4d060149eb4365960e6a7a45f334393093061116b197e3240065ff2d8",
            "sender" : "0xa94f5374fce5edbc8e2a8697c15331677e6ebf0b",
            "to" : "0xa00000000000000000000000000000000000000a",
            "value" : [
                "0x00"
            ]
        }
    }
}