{
    "transStorageOK" : {
        "_info" : {
            "comment" : "Ori Pomerantz qbzzt1@gmail.com",
            "filling-rpc-server" : "Nimbus-t8n 0.1.2",
            "filling-tool-version" : "retesteth-0.3.1-cancun+commit.00a4965a.Linux.g++",
            "generatedTestHash" : "46e26f4e8550ab9bc18ee6d4d645a246fdc5ea60825765c9ae7c3d29f91bf5c6",
            "labels" : {
                "0" : "sum_16",
                "1" : "callcode_sum_16",
                "10" : "deep_call",
                "11" : "deep_call",
                "12" : "deep_call",
                "13" : "deep_call",
                "14" : "deep_call",
                "15" : "static_call",
                "2" : "delegate_sum_16",
                "3" : "sum_256",
                "4" : "callback_sum_10",
                "5" : "callback_sum_50",
                "6" : "bin_tree_6",
                "7" : "delegate_bin_tree_6",
                "8" : "inherit_trans",
                "9" : "deep_call"
            },
            "lllcversion" : "Version: 0.5.14-develop.2023.7.11+commit.c58ab2c6.mod.Linux.g++",
            "solidity" : "Version: 0.8.20+commit.a1b79de6.Linux.g++",
            "source" : "src/EIPTestsFiller/StateTests/stEIP1153-transientStorage/transStorageOKFiller.yml",
            "sourceHash" : "35efc45f0ced5d5811376e3b77ffff61660bc5879531a3661cf41a661b5e32a8"
        },
        "env" : {
            "currentBaseFee" : "0x0a",
            "currentCoinbase" : "0x2adc25665018aa1fe0e6bc666dac8fc2697ff9ba",
            "currentDifficulty" : "0x020000",
            "currentGasLimit" : "0x05f5e100",
            "currentNumber" : "0x01",
            "currentRandom" : "0x0000000000000000000000000000000000000000000000000000000000020000",
            "currentTimestamp" : "0x03e8",
            "previousHash" : "0x5e20a0453cecd065ea59c37ac63e079ee08998b6045136a8ce6635c7912ec0b6"
        },
        "post" : {
            "Cancun" : [
                {
                    "hash" : "0xeab40341a4f0ddb44d327a0cb2b6e0fc6bf7958c713bce8edc09a180460c335f",
                    "indexes" : {
                        "data" : 0,
                        "gas" : 0,
                        "value" : 0
                    },
                    "logs" : "0x1dcc4de8dec75d7aab85b567b6ccd41ad312451b948a7413f0a142fd40d49347",
                    "txbytes" : "0xf885010a8404c4b40094cccccccccccccccccccccccccccccccccccccccc80a4ebd141d500000000000000000000000000000000000000000000000000000000000000101ba03f25317a016b655317d9024ed96dc1dcb00af63d80ce8522a88c8a797345ac6ea044675118eeab285dcc3a51650c5e016fdd4843c1f2f640884511b5232b45140d"
                },
                {
                    "hash" : "0xaf1e2a2eb50b3987a962c788e4f66c2de1f735f86ada37de0c490587be181284",
                    "indexes" : {
                        "data" : 1,
                        "gas" : 0,
                        "value" : 0
                    },
                    "logs" : "0x1dcc4de8dec75d7aab85b567b6ccd41ad312451b948a7413f0a142fd40d49347",
                    "txbytes" : "0xf885010a8404c4b40094cccccccccccccccccccccccccccccccccccccccc80a46e3a720400000000000000000000000000000000000000000000000000000000000000101ca0efa8a8adb7a74656526206f29ec002528d40ccf3b1df1ca03d0d5a59dd3ed643a0301dd377871842094842d225f68f314778cfcd456b8703b551686ab3a898ea0a"
                },
                {
                    "hash" : "0xea8c5845f5180ce35f3c671f1c9d68307ebe04f5eee2ec56ae7dafc183eb2189",
                    "indexes" : {
                        "data" : 2,
                        "gas" : 0,
                        "value" : 0
                    },
                    "logs" : "0x1dcc4de8dec75d7aab85b567b6ccd41ad312451b948a7413f0a142fd40d49347",
                    "txbytes" : "0xf885010a8404c4b40094cccccccccccccccccccccccccccccccccccccccc80a4c1c922f100000000000000000000000000000000000000000000000000000000000000101ba0de1330b4702e0769f9f2b9a709a8455612a0cdd0604f7b554f4b016d5ec2c47ca024ba69c547c31bfee7e683e4a60f084a33c812bfb12bda30330d35bde316bcdf"
                },
                {
                    "hash" : "0xac14ade4597a700f3a3b28bf7f90016000171a3449c71a6131cb37092e487559",
                    "indexes" : {
                        "data" : 3,
                        "gas" : 0,
                        "value" : 0
                    },
                    "logs" : "0x1dcc4de8dec75d7aab85b567b6ccd41ad312451b948a7413f0a142fd40d49347",
                    "txbytes" : "0xf885010a8404c4b40094cccccccccccccccccccccccccccccccccccccccc80a4ebd141d500000000000000000000000000000000000000000000000000000000000001001ba0a17dacf19cac9badc6f96e14173a9397e24be0474d0ef5d717952b562f9a7994a03a744fca1cc2cf00ede7a9b8a102b113eb7e2a6f81436b66a939c2c6aed7b3c9"
                },
                {
                    "hash" : "0x9d953623b808efac3b60ea3c5ea2b7208a5d49088980c7035fc64e6ce925d99e",
                    "indexes" : {
                        "data" : 4,
                        "gas" : 0,
                        "value" : 0
                    },
                    "logs" : "0x1dcc4de8dec75d7aab85b567b6ccd41ad312451b948a7413f0a142fd40d49347",
                    "txbytes" : "0xf885010a8404c4b40094cccccccccccccccccccccccccccccccccccccccc80a45114e2c8000000000000000000000000000000000000000000000000000000000000000a1ba0fd6c39fa202d9247cfad9d59dfea29c0debee4478b0f590768ab937eea4557daa0527ceba10506fa4faae29a2520d8f225df3a8967cfa29562e782cb87ff67504c"
                },
                {
                    "hash" : "0x8a3f6b72f6e6159e8793af5a1c4c66c1e3346dbfe78afea1110275b7b9b67e62",
                    "indexes" : {
                        "data" : 5,
                        "gas" : 0,
                        "value" : 0
                    },
                    "logs" : "0x1dcc4de8dec75d7aab85b567b6ccd41ad312451b948a7413f0a142fd40d49347",
                    "txbytes" : "0xf885010a8404c4b40094cccccccccccccccccccccccccccccccccccccccc80a45114e2c800000000000000000000000000000000000000000000000000000000000000321ba0b5c369f2cfd0565b5159cb4e5b08dfa9c58354c900387c18c389af0fdbc06cd0a07e8fdcfba6a6b0e14c13dd2ef6a9c33c5e1372a8276051857f4ae0ede0d2d516"
                },
                {
                    "hash" : "0xea1ea789714ec86f27a924859963071185b6c4718eb0900596dc20a57a304728",
                    "indexes" : {
                        "data" : 6,
                        "gas" : 0,
                        "value" : 0
                    },
                    "logs" : "0x1dcc4de8dec75d7aab85b567b6ccd41ad312451b948a7413f0a142fd40d49347",
                    "txbytes" : "0xf885010a8404c4b40094cccccccccccccccccccccccccccccccccccccccc80a4264bb86a00000000000000000000000000000000000000000000000000000000000000061ca0d454180373bbab7ea19fcb5c4c9cf8a6051dd9b32634882d5b2df331b0de240da0707d62bf5ab4afea88bae716db42302674157aed963320a525caa493147e2796"
                },
                {
                    "hash" : "0xfc64f5532aae68b296fe191272295c13f2b6ec2b986e36a51e5765553fdbf3b3",
                    "indexes" : {
                        "data" : 7,
                        "gas" : 0,
                        "value" : 0
                    },
                    "logs" : "0x1dcc4de8dec75d7aab85b567b6ccd41ad312451b948a7413f0a142fd40d49347",
                    "txbytes" : "0xf885010a8404c4b40094cccccccccccccccccccccccccccccccccccccccc80a47074a48600000000000000000000000000000000000000000000000000000000000000061ca037277556654c833ba23308289596fa1aa5a61a21f9c5499700f25404d51da608a059dfd6bd33c0bd6a3592ff6efb9718636aa19c9ca41032a6740f6478d43da5cf"
                },
                {
                    "hash" : "0xa4fd7c30069c692a762bcd63b3e7d16f2d0d78b0c18dc5c56e61c8a090022ba2",
                    "indexes" : {
                        "data" : 8,
                        "gas" : 0,
                        "value" : 0
                    },
                    "logs" : "0x1dcc4de8dec75d7aab85b567b6ccd41ad312451b948a7413f0a142fd40d49347",
                    "txbytes" : "0xf865010a8404c4b40094cccccccccccccccccccccccccccccccccccccccc80847f9317bd1ca0219e103f1d6256f6c0f9f52abd0750d095f65b36d1b987087cbbe3857bb8d3c8a032ee57cf6706c2fae258271e72349b111a36ea7c8e387eb967d55b2a20c29087"
                },
                {
                    "hash" : "0x8f6bf608b1250362a8cea6e4bdaffe70db7d56bd370947082e42ce16bb7683b4",
                    "indexes" : {
                        "data" : 9,
                        "gas" : 0,
                        "value" : 0
                    },
                    "logs" : "0x1dcc4de8dec75d7aab85b567b6ccd41ad312451b948a7413f0a142fd40d49347",
                    "txbytes" : "0xf885010a8404c4b40094cccccccccccccccccccccccccccccccccccccccc80a4c54b5829f2f4f1f2f4f1f2f4f1f2f4f1f2f4f1f2f4f1f2f4f1f2f4f1f2f4f1f2f4f1f1f11ca0dd8857cd635fbc8f697ef32115106d28fef1aa415cbb06f5184a0e8f98d7b82aa015525d2f8b457c37333062afda873a080fad191e13239c3379640bdf32e0df24"
                },
                {
                    "hash" : "0x04658ddb51decb8b88f3bf126e225213ba8a071dc9abb153d56812d038fc48b6",
                    "indexes" : {
                        "data" : 10,
                        "gas" : 0,
                        "value" : 0
                    },
                    "logs" : "0x1dcc4de8dec75d7aab85b567b6ccd41ad312451b948a7413f0a142fd40d49347",
                    "txbytes" : "0xf885010a8404c4b40094cccccccccccccccccccccccccccccccccccccccc80a4c54b5829f1f1f1f1f2f2f2f2f4f4f4f4f1f1f1f1f2f2f2f2f4f4f4f4f1f1f1f1f2f2f2f21ca02c2ea8a708823ed8798a73c3ff37fdc89b3ec57d78b6818f46f387a83fa3ef9aa00d4eb4d544f3852f770a50821dc943d4a9030259b2e8459991e4c79c6179fc6f"
                },
                {
                    "hash" : "0x575f47fb3f78c8f09289a3f2e6ad447d8b623bf9799338d9db0dedf57a7183cc",
                    "indexes" : {
                        "data" : 11,
                        "gas" : 0,
                        "value" : 0
                    },
                    "logs" : "0x1dcc4de8dec75d7aab85b567b6ccd41ad312451b948a7413f0a142fd40d49347",
                    "txbytes" : "0xf885010a8404c4b40094cccccccccccccccccccccccccccccccccccccccc80a4c54b5829f1f1f1f1f1f1f1f1f1f1f1f1f1f1f1f1f1f1f1f1f1f1f1f1f1f1f1f1f1f1f1f11ca018773aed0ba588b3fa4b28d1a86da4b57de17d755730a8b0e2f0231f2da1ec3ca07643b26136fc63082614821996368d355c46d3b59be2674c3fbfaf7f3aa8dca7"
                },
                {
                    "hash" : "0x575f47fb3f78c8f09289a3f2e6ad447d8b623bf9799338d9db0dedf57a7183cc",
                    "indexes" : {
                        "data" : 12,
                        "gas" : 0,
                        "value" : 0
                    },
                    "logs" : "0x1dcc4de8dec75d7aab85b567b6ccd41ad312451b948a7413f0a142fd40d49347",
                    "txbytes" : "0xf885010a8404c4b40094cccccccccccccccccccccccccccccccccccccccc80a4c54b5829f1f1f1f1f1f1f1f1f1f1f1f1f1f1f1f1f1f1f1f1f1f1f1f1f1f1f1f1f1f1f1f11ca018773aed0ba588b3fa4b28d1a86da4b57de17d755730a8b0e2f0231f2da1ec3ca07643b26136fc63082614821996368d355c46d3b59be2674c3fbfaf7f3aa8dca7"
                },
                {
                    "hash" : "0x04f14e0a5a6889c5c3f707bca488649479dda761aa5b6ec3b3d872e647951041",
                    "indexes" : {
                        "data" : 13,
                        "gas" : 0,
                        "value" : 0
                    },
                    "logs" : "0x1dcc4de8dec75d7aab85b567b6ccd41ad312451b948a7413f0a142fd40d49347",
                    "txbytes" : "0xf885010a8404c4b40094cccccccccccccccccccccccccccccccccccccccc80a4c54b5829f2f2f2f2f2f2f2f2f2f2f2f2f2f2f2f2f2f2f2f2f2f2f2f2f2f2f2f2f2f2f2f21ca0e0c153c0599f8402b67b8eb63d7cbcd44c3a721100fb64c44b573f6881de5303a07bbb44c2769b780084bbcb0d86bc2ebcd3e6855b5ec828773a70e57038d6d7f6"
                },
                {
                    "hash" : "0x84dd06c46e30f8b34416da34804f6fc54f373adb5f1d96a6a012963eb8bb1dd3",
                    "indexes" : {
                        "data" : 14,
                        "gas" : 0,
                        "value" : 0
                    },
                    "logs" : "0x1dcc4de8dec75d7aab85b567b6ccd41ad312451b948a7413f0a142fd40d49347",
                    "txbytes" : "0xf885010a8404c4b40094cccccccccccccccccccccccccccccccccccccccc80a4c54b5829f4f4f4f4f4f4f4f4f4f4f4f4f4f4f4f4f4f4f4f4f4f4f4f4f4f4f4f4f4f4f4f41ca05c11e3519120df0b3079302dbe8b5f437be8e67a52f4e223339bec4b77fb9008a011af868551b60f19dec6395bab915840084fe2d2cb4a728fec7de614d1a7d5a7"
                },
                {
                    "hash" : "0x25f8a1db8781cdc7a19645ccf7e5288470a627f9cdd51500115d08e38dc47d77",
                    "indexes" : {
                        "data" : 15,
                        "gas" : 0,
                        "value" : 0
                    },
                    "logs" : "0x1dcc4de8dec75d7aab85b567b6ccd41ad312451b948a7413f0a142fd40d49347",
                    "txbytes" : "0xf865010a8404c4b40094cccccccccccccccccccccccccccccccccccccccc80845d7935df1ca0f8ac6a89c19fea830f8adac14163743a7a7ff678fa9a4eb0354ae8fc1380e390a01cd7f900181da963e0cbad14f4915bab3cf000af720fddd1c65aeb67b0857f0d"
                }
            ]
        },
        "pre" : {
            "0x00000000000000000000000000000000000057a7" : {
                "balance" : "0x00",
                "code" : "0x6014565b5f815c9050919050565b81815d5050565b361560245760236160a75f600d565b5b602b5f6003565b5f5260205ff3",
                "nonce" : "0x01",
                "storage" : {
                }
            },
            "0x000000000000000000000000000000000000add1" : {
                "balance" : "0x00",
                "code" : "0x6014565b5f815c9050919050565b81815d5050565b60256001601f5f6003565b015f600d565b",
                "nonce" : "0x01",
                "storage" : {
                }
            },
            "0x00000000000000000000000000000000264bb86a" : {
                "balance" : "0x00",
                "code" : "0x6014565b5f815c9050919050565b81815d5050565b30330360795760215f6003565b5f8103602b575f80f35b6036600182035f600d565b5f805f805f305af1806046575f80fd5b6051600183035f600d565b5f805f805f305af19050806063575f80fd5b60766001606f60016003565b016001600d565b50505b30331460a5575f3580600155608d815f600d565b5f805f805f305af160025560a060016003565b600355505b",
                "nonce" : "0x01",
                "storage" : {
                }
            },
            "0x000000000000000000000000000000005114e2c8" : {
                "balance" : "0x00",
                "code" : "0x6014565b5f815c9050919050565b81815d5050565b63ca11bacc330360635760255f6003565b5f8103602f575f80f35b604181603a60016003565b016001600d565b604c600182035f600d565b5f805f805f63ca11bacc5af1806060575f80fd5b50505b63ca11bacc33146097575f3580600155607b815f600d565b5f805f805f63ca11bacc5af1600255609260016003565b600355505b",
                "nonce" : "0x01",
                "storage" : {
                }
            },
            "0x000000000000000000000000000000005d7935df" : {
                "balance" : "0x00",
                "code" : "0x60205f60015f806157a75af16010555f515f555f805260205f805f6157a75afa6011555f516001555f805260205f60015f6157a75afa6012555f51600255",
                "nonce" : "0x01",
                "storage" : {
                    "0x02" : "0x60a7",
                    "0x12" : "0x60a7"
                }
            },
            "0x000000000000000000000000000000006e3a7204" : {
                "balance" : "0x00",
                "code" : "0x6014565b5f815c9050919050565b81815d5050565b303303605b5760215f6003565b5f8103602b575f80f35b603d81603660016003565b016001600d565b6048600182035f600d565b5f805f805f305af2806058575f80fd5b50505b3033146087575f3580600155606f815f600d565b5f805f805f305af1600255608260016003565b600355505b",
                "nonce" : "0x01",
                "storage" : {
                }
            },
            "0x000000000000000000000000000000007074a486" : {
                "balance" : "0x00",
                "code" : "0x6014565b5f815c9050919050565b81815d5050565b30330360785760215f6003565b5f8103602b575f80f35b6036600182035f600d565b5f805f805f305af2806046575f80fd5b6051600183035f600d565b5f805f80305af49050806062575f80fd5b60756001606e60016003565b016001600d565b50505b30331460a4575f3580600155608c815f600d565b5f805f805f305af1600255609f60016003565b600355505b",
                "nonce" : "0x01",
                "storage" : {
                }
            },
            "0x000000000000000000000000000000007f9317bd" : {
                "balance" : "0x00",
                "code" : "0x600d565b5f815c9050919050565b60145f6003565b5f555f805f805f61add15af2601155602a5f6003565b6001555f805f8061add15af460125560405f6003565b6002555f805f805f61add15af160135560575f6003565b600355",
                "nonce" : "0x01",
                "storage" : {
                    "0x00" : "0x60a7"
                }
            },
            "0x00000000000000000000000000000000c1c922f1" : {
                "balance" : "0x00",
                "code" : "0x6014565b5f815c9050919050565b81815d5050565b303303605a5760215f6003565b5f8103602b575f80f35b603d81603660016003565b016001600d565b6048600182035f600d565b5f805f80305af4806057575f80fd5b50505b3033146086575f3580600155606e815f600d565b5f805f805f305af1600255608160016003565b600355505b",
                "nonce" : "0x01",
                "storage" : {
                }
            },
            "0x00000000000000000000000000000000c54b5829" : {
                "balance" : "0x00",
                "code" : "0x6014565b5f815c9050919050565b81815d5050565b5f3603602f57602b600160255f6003565b015f600d565b5f80f35b333014603f57603e60015f600d565b5b5f3560f81c5f355f526001360360018260f1811460685760f2811460755760f48114608257608b565b5f8084845f305af150608b565b5f8084845f305af250608b565b5f808484305af4505b50333014609c5760995f6003565b5f555b505050",
                "nonce" : "0x01",
                "storage" : {
                }
            },
            "0x00000000000000000000000000000000ca11bacc" : {
                "balance" : "0x00",
                "code" : "0x600d565b5f815c9050919050565b60145f6003565b5f55601e60016003565b6001555f805f805f335af150",
                "nonce" : "0x01",
                "storage" : {
                    "0x00" : "0x60a7",
                    "0x01" : "0x60a7"
                }
            },
            "0x00000000000000000000000000000000ebd141d5" : {
                "balance" : "0x00",
                "code" : "0x6014565b5f815c9050919050565b81815d5050565b303303605b5760215f6003565b5f8103602b575f80f35b603d81603660016003565b016001600d565b6048600182035f600d565b5f805f805f305af1806058575f80fd5b50505b3033146087575f3580600155606f815f600d565b5f805f805f305af1600255608260016003565b600355505b",
                "nonce" : "0x01",
                "storage" : {
                }
            },
            "0xa94f5374fce5edbc8e2a8697c15331677e6ebf0b" : {
                "balance" : "0x0ba1a9ce0ba1a9ce",
                "code" : "0x",
                "nonce" : "0x01",
                "storage" : {
                }
            },
            "0xcccccccccccccccccccccccccccccccccccccccc" : {
                "balance" : "0x00",
                "code" : "0x5f3560e01c600435815f55805f525f8060205f80865af16001555050",
                "nonce" : "0x01",
                "storage" : {
                }
            }
        },
        "transaction" : {
            "data" : [
                "0xebd141d50000000000000000000000000000000000000000000000000000000000000010",
                "0x6e3a72040000000000000000000000000000000000000000000000000000000000000010",
                "0xc1c922f10000000000000000000000000000000000000000000000000000000000000010",
                "0xebd141d50000000000000000000000000000000000000000000000000000000000000100",
                "0x5114e2c8000000000000000000000000000000000000000000000000000000000000000a",
                "0x5114e2c80000000000000000000000000000000000000000000000000000000000000032",
                "0x264bb86a0000000000000000000000000000000000000000000000000000000000000006",
                "0x7074a4860000000000000000000000000000000000000000000000000000000000000006",
                "0x7f9317bd",
                "0xc54b5829f2f4f1f2f4f1f2f4f1f2f4f1f2f4f1f2f4f1f2f4f1f2f4f1f2f4f1f2f4f1f1f1",
                "0xc54b5829f1f1f1f1f2f2f2f2f4f4f4f4f1f1f1f1f2f2f2f2f4f4f4f4f1f1f1f1f2f2f2f2",
                "0xc54b5829f1f1f1f1f1f1f1f1f1f1f1f1f1f1f1f1f1f1f1f1f1f1f1f1f1f1f1f1f1f1f1f1",
                "0xc54b5829f1f1f1f1f1f1f1f1f1f1f1f1f1f1f1f1f1f1f1f1f1f1f1f1f1f1f1f1f1f1f1f1",
                "0xc54b5829f2f2f2f2f2f2f2f2f2f2f2f2f2f2f2f2f2f2f2f2f2f2f2f2f2f2f2f2f2f2f2f2",
                "0xc54b5829f4f4f4f4f4f4f4f4f4f4f4f4f4f4f4f4f4f4f4f4f4f4f4f4f4f4f4f4f4f4f4f4",
                "0x5d7935df"
            ],
            "gasLimit" : [
                "0x04c4b400"
            ],
            "gasPrice" : "0x0a",
            "nonce" : "0x01",
            "secretKey" : "0x45a915e4d060149eb4365960e6a7a45f334393093061116b197e3240065ff2d8",
            "sender" : "0xa94f5374fce5edbc8e2a8697c15331677e6ebf0b",
            "to" : "0xcccccccccccccccccccccccccccccccccccccccc",
            "value" : [
                "0x00"
            ]
        }
    }
}