{
    "static_LoopCallsDepthThenRevert" : {
        "_info" : {
            "comment" : "",
            "filling-rpc-server" : "evm version 1.10.16-unstable-0f893109-20220105",
            "filling-tool-version" : "retesteth-0.2.2-testinfo+commit.01c6aac2.Linux.g++",
            "generatedTestHash" : "d8a7b2f49cdf7a1fd7d5c8bc92f4903cd0085fbe5bcf6ba921fee2bc8eb34385",
            "lllcversion" : "Version: 0.5.14-develop.2021.11.27+commit.401d5358.Linux.g++",
            "solidity" : "Version: 0.8.5+commit.a4f2e591.Linux.g++",
            "source" : "src/GeneralStateTestsFiller/stStaticCall/static_LoopCallsDepthThenRevertFiller.json",
            "sourceHash" : "13832a4995bace848d1ff3f4677bff7b5c699ceb3725b40b581f780e58da3e0b"
        },
        "env" : {
            "currentBaseFee" : "0x0a",
            "currentCoinbase" : "0x2adc25665018aa1fe0e6bc666dac8fc2697ff9ba",
            "currentDifficulty" : "0x020000",
            "currentGasLimit" : "0x05f5e100",
            "currentNumber" : "0x01",
            "currentTimestamp" : "0x03e8",
            "previousHash" : "0x5e20a0453cecd065ea59c37ac63e079ee08998b6045136a8ce6635c7912ec0b6"
        },
        "post" : {
            "Berlin" : [
                {
                    "hash" : "0x87c24ab16ea37050bc33d94eda54b7a796199051f3b02343881515e0d2f5e0d5",
                    "indexes" : {
                        "data" : 0,
                        "gas" : 0,
                        "value" : 0
                    },
                    "logs" : "0x1dcc4de8dec75d7aab85b567b6ccd41ad312451b948a7413f0a142fd40d49347",
                    "txbytes" : "0xf860800a8398968094100000000000000000000000000000000000000080801ca0a7accd6631d88ac13ba736b2c129326003880919924697ae7fedf1d63d0e06d4a05606f852f9cfc740abf9a9ad42e4d1a53490202393c4116d046c53804853ff05"
                }
            ],
            "Istanbul" : [
                {
                    "hash" : "0x1da80f66afe3a3f7b8d5337cbf19807dbc6c74426fc82b82c119aa2dce1bee6e",
                    "indexes" : {
                        "data" : 0,
                        "gas" : 0,
                        "value" : 0
                    },
                    "logs" : "0x1dcc4de8dec75d7aab85b567b6ccd41ad312451b948a7413f0a142fd40d49347",
                    "txbytes" : "0xf860800a8398968094100000000000000000000000000000000000000080801ca0a7accd6631d88ac13ba736b2c129326003880919924697ae7fedf1d63d0e06d4a05606f852f9cfc740abf9a9ad42e4d1a53490202393c4116d046c53804853ff05"
                }
            ],
            "London" : [
                {
                    "hash" : "0xbcc8e7a37df06a5ed057ed7693d56fdb1ef84aa1cf8a71e7a5399ca909fc90b3",
                    "indexes" : {
                        "data" : 0,
                        "gas" : 0,
                        "value" : 0
                    },
                    "logs" : "0x1dcc4de8dec75d7aab85b567b6ccd41ad312451b948a7413f0a142fd40d49347",
                    "txbytes" : "0xf860800a8398968094100000000000000000000000000000000000000080801ca0a7accd6631d88ac13ba736b2c129326003880919924697ae7fedf1d63d0e06d4a05606f852f9cfc740abf9a9ad42e4d1a53490202393c4116d046c53804853ff05"
                }
            ]
        },
        "pre" : {
            "0x1000000000000000000000000000000000000000" : {
                "balance" : "0x00",
                "code" : "0x60006000600060006000731000000000000000000000000000000000000000620186a05a03f1600055600160015500",
                "nonce" : "0x00",
                "storage" : {
                }
            },
            "0xa000000000000000000000000000000000000000" : {
                "balance" : "0x00",
                "code" : "0x600060006000600073b0000000000000000000000000000000000000005afa00",
                "nonce" : "0x00",
                "storage" : {
                }
            },
            "0xa94f5374fce5edbc8e2a8697c15331677e6ebf0b" : {
                "balance" : "0xe8d4a51000",
                "code" : "0x",
                "nonce" : "0x00",
                "storage" : {
                }
            },
            "0xb000000000000000000000000000000000000000" : {
                "balance" : "0x00",
                "code" : "0x600060006000600073a0000000000000000000000000000000000000005afa00",
                "nonce" : "0x00",
                "storage" : {
                }
            }
        },
        "transaction" : {
            "data" : [
                "0x"
            ],
            "gasLimit" : [
                "0x989680"
            ],
            "gasPrice" : "0x0a",
            "nonce" : "0x00",
            "secretKey" : "0x45a915e4d060149eb4365960e6a7a45f334393093061116b197e3240065ff2d8",
            "sender" : "0xa94f5374fce5edbc8e2a8697c15331677e6ebf0b",
            "to" : "0x1000000000000000000000000000000000000000",
            "value" : [
                "0x00"
            ]
        }
    }
}