{
    "static_ZeroValue_CALL_OOGRevert" : {
        "_info" : {
            "comment" : "",
            "filling-rpc-server" : "evm version 1.13.13-unstable-034bc466-20240219",
            "filling-tool-version" : "retesteth-0.3.2-cancun+commit.014a68a5.Linux.g++",
            "generatedTestHash" : "86a3c0ed7c47f17874cbfab36af80898157f8d0d26a347fd62ca360715bc9dd9",
            "lllcversion" : "Version: 0.5.14-develop.2023.7.11+commit.c58ab2c6.mod.Linux.g++",
            "solidity" : "Version: 0.8.21+commit.d9974bed.Linux.g++",
            "source" : "src/GeneralStateTestsFiller/stStaticCall/static_ZeroValue_CALL_OOGRevertFiller.json",
            "sourceHash" : "82d808ce38f77a44313747bbc5ebea0fda3979cd8a047106b84a096612600146"
        },
        "env" : {
            "currentBaseFee" : "0x0a",
            "currentCoinbase" : "0x2adc25665018aa1fe0e6bc666dac8fc2697ff9ba",
            "currentDifficulty" : "0x020000",
            "currentExcessBlobGas" : "0x00",
            "currentGasLimit" : "0x989680",
            "currentNumber" : "0x01",
            "currentRandom" : "0x0000000000000000000000000000000000000000000000000000000000020000",
            "currentTimestamp" : "0x03e8"
        },
        "post" : {
            "Berlin" : [
                {
                    "hash" : "0xbfc030ba914e06e8cf45a21c5e6e102d18714f26f82209f1bb5515663d8e89d0",
                    "indexes" : {
                        "data" : 0,
                        "gas" : 0,
                        "value" : 0
                    },
                    "logs" : "0x1dcc4de8dec75d7aab85b567b6ccd41ad312451b948a7413f0a142fd40d49347",
                    "txbytes" : "0xf860800a8314997094b94f5374fce5edbc8e2a8697c15331677e6ebf0b80801ba04f2915c3577ba8a96ce7dc3bee3c6e43cc9804eb3b6a4ce452ba8486853fd13aa02a0a61c56004d161d692a9ae7f021d4b33c5db235c90b8cecbd0dfba98b5954c"
                }
            ],
            "Cancun" : [
                {
                    "hash" : "0xea1f88339f24161effea5994c7ea1ff1256723dda7276a12cf5270281010f827",
                    "indexes" : {
                        "data" : 0,
                        "gas" : 0,
                        "value" : 0
                    },
                    "logs" : "0x1dcc4de8dec75d7aab85b567b6ccd41ad312451b948a7413f0a142fd40d49347",
                    "txbytes" : "0xf860800a8314997094b94f5374fce5edbc8e2a8697c15331677e6ebf0b80801ba04f2915c3577ba8a96ce7dc3bee3c6e43cc9804eb3b6a4ce452ba8486853fd13aa02a0a61c56004d161d692a9ae7f021d4b33c5db235c90b8cecbd0dfba98b5954c"
                }
            ],
            "Istanbul" : [
                {
                    "hash" : "0xbfc030ba914e06e8cf45a21c5e6e102d18714f26f82209f1bb5515663d8e89d0",
                    "indexes" : {
                        "data" : 0,
                        "gas" : 0,
                        "value" : 0
                    },
                    "logs" : "0x1dcc4de8dec75d7aab85b567b6ccd41ad312451b948a7413f0a142fd40d49347",
                    "txbytes" : "0xf860800a8314997094b94f5374fce5edbc8e2a8697c15331677e6ebf0b80801ba04f2915c3577ba8a96ce7dc3bee3c6e43cc9804eb3b6a4ce452ba8486853fd13aa02a0a61c56004d161d692a9ae7f021d4b33c5db235c90b8cecbd0dfba98b5954c"
                }
            ],
            "London" : [
                {
                    "hash" : "0x551acbb921f057279507396d0c56759b9adf8821e36f11fe34d057ac0d4d143a",
                    "indexes" : {
                        "data" : 0,
                        "gas" : 0,
                        "value" : 0
                    },
                    "logs" : "0x1dcc4de8dec75d7aab85b567b6ccd41ad312451b948a7413f0a142fd40d49347",
                    "txbytes" : "0xf860800a8314997094b94f5374fce5edbc8e2a8697c15331677e6ebf0b80801ba04f2915c3577ba8a96ce7dc3bee3c6e43cc9804eb3b6a4ce452ba8486853fd13aa02a0a61c56004d161d692a9ae7f021d4b33c5db235c90b8cecbd0dfba98b5954c"
                }
            ],
            "Paris" : [
                {
                    "hash" : "0x551acbb921f057279507396d0c56759b9adf8821e36f11fe34d057ac0d4d143a",
                    "indexes" : {
                        "data" : 0,
                        "gas" : 0,
                        "value" : 0
                    },
                    "logs" : "0x1dcc4de8dec75d7aab85b567b6ccd41ad312451b948a7413f0a142fd40d49347",
                    "txbytes" : "0xf860800a8314997094b94f5374fce5edbc8e2a8697c15331677e6ebf0b80801ba04f2915c3577ba8a96ce7dc3bee3c6e43cc9804eb3b6a4ce452ba8486853fd13aa02a0a61c56004d161d692a9ae7f021d4b33c5db235c90b8cecbd0dfba98b5954c"
                }
            ],
            "Shanghai" : [
                {
                    "hash" : "0x551acbb921f057279507396d0c56759b9adf8821e36f11fe34d057ac0d4d143a",
                    "indexes" : {
                        "data" : 0,
                        "gas" : 0,
                        "value" : 0
                    },
                    "logs" : "0x1dcc4de8dec75d7aab85b567b6ccd41ad312451b948a7413f0a142fd40d49347",
                    "txbytes" : "0xf860800a8314997094b94f5374fce5edbc8e2a8697c15331677e6ebf0b80801ba04f2915c3577ba8a96ce7dc3bee3c6e43cc9804eb3b6a4ce452ba8486853fd13aa02a0a61c56004d161d692a9ae7f021d4b33c5db235c90b8cecbd0dfba98b5954c"
                }
            ]
        },
        "pre" : {
            "0x000f3df6d732807ef1319fb7b8bb8522d0beac02" : {
                "balance" : "0x00",
                "code" : "0x3373fffffffffffffffffffffffffffffffffffffffe14604d57602036146024575f5ffd5b5f35801560495762001fff810690815414603c575f5ffd5b62001fff01545f5260205ff35b5f5ffd5b62001fff42064281555f359062001fff015500",
                "nonce" : "0x01",
                "storage" : {
                }
            },
            "0xa94f5374fce5edbc8e2a8697c15331677e6ebf0b" : {
                "balance" : "0xe8d4a51000",
                "code" : "0x",
                "nonce" : "0x00",
                "storage" : {
                }
            },
            "0xb94f5374fce5edbc8e2a8697c15331677e6ebf0b" : {
                "balance" : "0x00",
                "code" : "0x5a600055600060006000600073c94f5374fce5edbc8e2a8697c15331677e6ebf0b61ea60fa600155622fffff600020505a60645500",
                "nonce" : "0x00",
                "storage" : {
                }
            }
        },
        "transaction" : {
            "data" : [
                "0x"
            ],
            "gasLimit" : [
                "0x149970"
            ],
            "gasPrice" : "0x0a",
            "nonce" : "0x00",
            "secretKey" : "0x45a915e4d060149eb4365960e6a7a45f334393093061116b197e3240065ff2d8",
            "sender" : "0xa94f5374fce5edbc8e2a8697c15331677e6ebf0b",
            "to" : "0xb94f5374fce5edbc8e2a8697c15331677e6ebf0b",
            "value" : [
                "0x00"
            ]
        }
    }
}