{
    "static_callcodecallcodecall_110_OOGE2" : {
        "_info" : {
            "comment" : "",
            "filling-rpc-server" : "evm version 1.13.13-unstable-034bc466-20240219",
            "filling-tool-version" : "retesteth-0.3.2-cancun+commit.014a68a5.Linux.g++",
            "generatedTestHash" : "6fce5980228e11e9e904b231f57a7f181de91811b24675e51a68afd8c2423115",
            "lllcversion" : "Version: 0.5.14-develop.2023.7.11+commit.c58ab2c6.mod.Linux.g++",
            "solidity" : "Version: 0.8.21+commit.d9974bed.Linux.g++",
            "source" : "src/GeneralStateTestsFiller/stStaticCall/static_callcodecallcodecall_110_OOGE2Filler.json",
            "sourceHash" : "9bbcc738abb0d87919547d91fed7b5a40dbbab5d3df74ed101f09c9f6e70c357"
        },
        "env" : {
            "currentBaseFee" : "0x0a",
            "currentCoinbase" : "0x2adc25665018aa1fe0e6bc666dac8fc2697ff9ba",
            "currentDifficulty" : "0x020000",
            "currentExcessBlobGas" : "0x00",
            "currentGasLimit" : "0x01c9c380",
            "currentNumber" : "0x01",
            "currentRandom" : "0x0000000000000000000000000000000000000000000000000000000000020000",
            "currentTimestamp" : "0x03e8"
        },
        "post" : {
            "Berlin" : [
                {
                    "hash" : "0xf3d856614af036c3e4eb78a0539bd97f1c090ff3326a44500106162c6e6edc6a",
                    "indexes" : {
                        "data" : 0,
                        "gas" : 0,
                        "value" : 0
                    },
                    "logs" : "0x1dcc4de8dec75d7aab85b567b6ccd41ad312451b948a7413f0a142fd40d49347",
                    "txbytes" : "0xf860800a83029fe094100000000000000000000000000000000000000080801ca01b274730d72131698f0cc6eea2f774a24c10b287a72be84322c3c9fa1ddc2dffa056fcfb722815c7658ee0ac5099f980ad1cacb56f3b0e4800760de325539de6c8"
                },
                {
                    "hash" : "0x037ab9dfb6369bf034b6d0c994d0d9455a19285895c6bbc6de385d2a12e7ca4f",
                    "indexes" : {
                        "data" : 0,
                        "gas" : 0,
                        "value" : 1
                    },
                    "logs" : "0x1dcc4de8dec75d7aab85b567b6ccd41ad312451b948a7413f0a142fd40d49347",
                    "txbytes" : "0xf860800a83029fe094100000000000000000000000000000000000000001801ba07df431aeac08ad2be95737c660d1eb8b5e0134c04d8f8c7e1d57470fc5cf5ea2a066542c03412ed72e525376c55c28cb0addc700a70dd045203276318e01ea3520"
                },
                {
                    "hash" : "0x40b26d4798d01f5249733ddab61439149f7baa28c01e92924479c64e7da42d19",
                    "indexes" : {
                        "data" : 0,
                        "gas" : 0,
                        "value" : 2
                    },
                    "logs" : "0x1dcc4de8dec75d7aab85b567b6ccd41ad312451b948a7413f0a142fd40d49347",
                    "txbytes" : "0xf860800a83029fe094100000000000000000000000000000000000000002801ca0d93dc181b5592e95db78ed23f31302c88ac99cbe8145e863d38dbe3fb72dfc84a04a6ff07e4108360748a3e38726de6cb1949fa7c65ba4618329041993ad265d76"
                }
            ],
            "Cancun" : [
                {
                    "hash" : "0xd37c68bd9c06220e00d4ac9f1b059a61fcfaf14d27c8c9604049c5e13c1bf379",
                    "indexes" : {
                        "data" : 0,
                        "gas" : 0,
                        "value" : 0
                    },
                    "logs" : "0x1dcc4de8dec75d7aab85b567b6ccd41ad312451b948a7413f0a142fd40d49347",
                    "txbytes" : "0xf860800a83029fe094100000000000000000000000000000000000000080801ca01b274730d72131698f0cc6eea2f774a24c10b287a72be84322c3c9fa1ddc2dffa056fcfb722815c7658ee0ac5099f980ad1cacb56f3b0e4800760de325539de6c8"
                },
                {
                    "hash" : "0x09ab7da34f12bb1ae00f5102925e65260a8349eab8833009a656b563aaff3bcc",
                    "indexes" : {
                        "data" : 0,
                        "gas" : 0,
                        "value" : 1
                    },
                    "logs" : "0x1dcc4de8dec75d7aab85b567b6ccd41ad312451b948a7413f0a142fd40d49347",
                    "txbytes" : "0xf860800a83029fe094100000000000000000000000000000000000000001801ba07df431aeac08ad2be95737c660d1eb8b5e0134c04d8f8c7e1d57470fc5cf5ea2a066542c03412ed72e525376c55c28cb0addc700a70dd045203276318e01ea3520"
                },
                {
                    "hash" : "0x1597ef14a7ad65bf4005dda2c543326b0b6c5bcfd760d3816664c661a8c7c13f",
                    "indexes" : {
                        "data" : 0,
                        "gas" : 0,
                        "value" : 2
                    },
                    "logs" : "0x1dcc4de8dec75d7aab85b567b6ccd41ad312451b948a7413f0a142fd40d49347",
                    "txbytes" : "0xf860800a83029fe094100000000000000000000000000000000000000002801ca0d93dc181b5592e95db78ed23f31302c88ac99cbe8145e863d38dbe3fb72dfc84a04a6ff07e4108360748a3e38726de6cb1949fa7c65ba4618329041993ad265d76"
                }
            ],
            "Istanbul" : [
                {
                    "hash" : "0x274c879f426839887ff8657a4d720fac5b2479a4b4b5c1f5b92ec7adef970d4a",
                    "indexes" : {
                        "data" : 0,
                        "gas" : 0,
                        "value" : 0
                    },
                    "logs" : "0x1dcc4de8dec75d7aab85b567b6ccd41ad312451b948a7413f0a142fd40d49347",
                    "txbytes" : "0xf860800a83029fe094100000000000000000000000000000000000000080801ca01b274730d72131698f0cc6eea2f774a24c10b287a72be84322c3c9fa1ddc2dffa056fcfb722815c7658ee0ac5099f980ad1cacb56f3b0e4800760de325539de6c8"
                },
                {
                    "hash" : "0x92fccb805fca2d53df936cdaf77866469e9e7bf903530cb246610fc15baca3ad",
                    "indexes" : {
                        "data" : 0,
                        "gas" : 0,
                        "value" : 1
                    },
                    "logs" : "0x1dcc4de8dec75d7aab85b567b6ccd41ad312451b948a7413f0a142fd40d49347",
                    "txbytes" : "0xf860800a83029fe094100000000000000000000000000000000000000001801ba07df431aeac08ad2be95737c660d1eb8b5e0134c04d8f8c7e1d57470fc5cf5ea2a066542c03412ed72e525376c55c28cb0addc700a70dd045203276318e01ea3520"
                },
                {
                    "hash" : "0xb37942122205cd95ed91791a8640b62a243c7e9a30504e0ddc3019c5c29fcc31",
                    "indexes" : {
                        "data" : 0,
                        "gas" : 0,
                        "value" : 2
                    },
                    "logs" : "0x1dcc4de8dec75d7aab85b567b6ccd41ad312451b948a7413f0a142fd40d49347",
                    "txbytes" : "0xf860800a83029fe094100000000000000000000000000000000000000002801ca0d93dc181b5592e95db78ed23f31302c88ac99cbe8145e863d38dbe3fb72dfc84a04a6ff07e4108360748a3e38726de6cb1949fa7c65ba4618329041993ad265d76"
                }
            ],
            "London" : [
                {
                    "hash" : "0x70da5a563ba0f70c35678ca7036f20d11c67524100e6fd4513f595dc16472222",
                    "indexes" : {
                        "data" : 0,
                        "gas" : 0,
                        "value" : 0
                    },
                    "logs" : "0x1dcc4de8dec75d7aab85b567b6ccd41ad312451b948a7413f0a142fd40d49347",
                    "txbytes" : "0xf860800a83029fe094100000000000000000000000000000000000000080801ca01b274730d72131698f0cc6eea2f774a24c10b287a72be84322c3c9fa1ddc2dffa056fcfb722815c7658ee0ac5099f980ad1cacb56f3b0e4800760de325539de6c8"
                },
                {
                    "hash" : "0x7d508cd914847944723503baa4a0fc3cd61732c38d572eada0023e310f9fc331",
                    "indexes" : {
                        "data" : 0,
                        "gas" : 0,
                        "value" : 1
                    },
                    "logs" : "0x1dcc4de8dec75d7aab85b567b6ccd41ad312451b948a7413f0a142fd40d49347",
                    "txbytes" : "0xf860800a83029fe094100000000000000000000000000000000000000001801ba07df431aeac08ad2be95737c660d1eb8b5e0134c04d8f8c7e1d57470fc5cf5ea2a066542c03412ed72e525376c55c28cb0addc700a70dd045203276318e01ea3520"
                },
                {
                    "hash" : "0xd729d9f5717fea81c091daa58b688aff821ea553b866740f5d69393aa7b435a7",
                    "indexes" : {
                        "data" : 0,
                        "gas" : 0,
                        "value" : 2
                    },
                    "logs" : "0x1dcc4de8dec75d7aab85b567b6ccd41ad312451b948a7413f0a142fd40d49347",
                    "txbytes" : "0xf860800a83029fe094100000000000000000000000000000000000000002801ca0d93dc181b5592e95db78ed23f31302c88ac99cbe8145e863d38dbe3fb72dfc84a04a6ff07e4108360748a3e38726de6cb1949fa7c65ba4618329041993ad265d76"
                }
            ],
            "Paris" : [
                {
                    "hash" : "0x70da5a563ba0f70c35678ca7036f20d11c67524100e6fd4513f595dc16472222",
                    "indexes" : {
                        "data" : 0,
                        "gas" : 0,
                        "value" : 0
                    },
                    "logs" : "0x1dcc4de8dec75d7aab85b567b6ccd41ad312451b948a7413f0a142fd40d49347",
                    "txbytes" : "0xf860800a83029fe094100000000000000000000000000000000000000080801ca01b274730d72131698f0cc6eea2f774a24c10b287a72be84322c3c9fa1ddc2dffa056fcfb722815c7658ee0ac5099f980ad1cacb56f3b0e4800760de325539de6c8"
                },
                {
                    "hash" : "0x7d508cd914847944723503baa4a0fc3cd61732c38d572eada0023e310f9fc331",
                    "indexes" : {
                        "data" : 0,
                        "gas" : 0,
                        "value" : 1
                    },
                    "logs" : "0x1dcc4de8dec75d7aab85b567b6ccd41ad312451b948a7413f0a142fd40d49347",
                    "txbytes" : "0xf860800a83029fe094100000000000000000000000000000000000000001801ba07df431aeac08ad2be95737c660d1eb8b5e0134c04d8f8c7e1d57470fc5cf5ea2a066542c03412ed72e525376c55c28cb0addc700a70dd045203276318e01ea3520"
                },
                {
                    "hash" : "0xd729d9f5717fea81c091daa58b688aff821ea553b866740f5d69393aa7b435a7",
                    "indexes" : {
                        "data" : 0,
                        "gas" : 0,
                        "value" : 2
                    },
                    "logs" : "0x1dcc4de8dec75d7aab85b567b6ccd41ad312451b948a7413f0a142fd40d49347",
                    "txbytes" : "0xf860800a83029fe094100000000000000000000000000000000000000002801ca0d93dc181b5592e95db78ed23f31302c88ac99cbe8145e863d38dbe3fb72dfc84a04a6ff07e4108360748a3e38726de6cb1949fa7c65ba4618329041993ad265d76"
                }
            ],
            "Shanghai" : [
                {
                    "hash" : "0x70da5a563ba0f70c35678ca7036f20d11c67524100e6fd4513f595dc16472222",
                    "indexes" : {
                        "data" : 0,
                        "gas" : 0,
                        "value" : 0
                    },
                    "logs" : "0x1dcc4de8dec75d7aab85b567b6ccd41ad312451b948a7413f0a142fd40d49347",
                    "txbytes" : "0xf860800a83029fe094100000000000000000000000000000000000000080801ca01b274730d72131698f0cc6eea2f774a24c10b287a72be84322c3c9fa1ddc2dffa056fcfb722815c7658ee0ac5099f980ad1cacb56f3b0e4800760de325539de6c8"
                },
                {
                    "hash" : "0x7d508cd914847944723503baa4a0fc3cd61732c38d572eada0023e310f9fc331",
                    "indexes" : {
                        "data" : 0,
                        "gas" : 0,
                        "value" : 1
                    },
                    "logs" : "0x1dcc4de8dec75d7aab85b567b6ccd41ad312451b948a7413f0a142fd40d49347",
                    "txbytes" : "0xf860800a83029fe094100000000000000000000000000000000000000001801ba07df431aeac08ad2be95737c660d1eb8b5e0134c04d8f8c7e1d57470fc5cf5ea2a066542c03412ed72e525376c55c28cb0addc700a70dd045203276318e01ea3520"
                },
                {
                    "hash" : "0xd729d9f5717fea81c091daa58b688aff821ea553b866740f5d69393aa7b435a7",
                    "indexes" : {
                        "data" : 0,
                        "gas" : 0,
                        "value" : 2
                    },
                    "logs" : "0x1dcc4de8dec75d7aab85b567b6ccd41ad312451b948a7413f0a142fd40d49347",
                    "txbytes" : "0xf860800a83029fe094100000000000000000000000000000000000000002801ca0d93dc181b5592e95db78ed23f31302c88ac99cbe8145e863d38dbe3fb72dfc84a04a6ff07e4108360748a3e38726de6cb1949fa7c65ba4618329041993ad265d76"
                }
            ]
        },
        "pre" : {
            "0x000f3df6d732807ef1319fb7b8bb8522d0beac02" : {
                "balance" : "0x00",
                "code" : "0x3373fffffffffffffffffffffffffffffffffffffffe14604d57602036146024575f5ffd5b5f35801560495762001fff810690815414603c575f5ffd5b62001fff01545f5260205ff35b5f5ffd5b62001fff42064281555f359062001fff015500",
                "nonce" : "0x01",
                "storage" : {
                }
            },
            "0x1000000000000000000000000000000000000000" : {
                "balance" : "0x0de0b6b3a7640000",
                "code" : "0x604060006040600034731000000000000000000000000000000000000001620249f0f2600055600160015500",
                "nonce" : "0x00",
                "storage" : {
                }
            },
            "0x1000000000000000000000000000000000000001" : {
                "balance" : "0x00",
                "code" : "0x604060006040600060013403731000000000000000000000000000000000000002620186a0f200",
                "nonce" : "0x00",
                "storage" : {
                }
            },
            "0x1000000000000000000000000000000000000002" : {
                "balance" : "0x00",
                "code" : "0x6040600060406000731000000000000000000000000000000000000003614e34fa00",
                "nonce" : "0x00",
                "storage" : {
                }
            },
            "0x1000000000000000000000000000000000000003" : {
                "balance" : "0x00",
                "code" : "0x5b61c3506080511015601c5760013b506001608051016080526000565b00",
                "nonce" : "0x00",
                "storage" : {
                }
            },
            "0xa94f5374fce5edbc8e2a8697c15331677e6ebf0b" : {
                "balance" : "0x0de0b6b3a7640000",
                "code" : "0x",
                "nonce" : "0x00",
                "storage" : {
                }
            }
        },
        "transaction" : {
            "data" : [
                "0x"
            ],
            "gasLimit" : [
                "0x029fe0"
            ],
            "gasPrice" : "0x0a",
            "nonce" : "0x00",
            "secretKey" : "0x45a915e4d060149eb4365960e6a7a45f334393093061116b197e3240065ff2d8",
            "sender" : "0xa94f5374fce5edbc8e2a8697c15331677e6ebf0b",
            "to" : "0x1000000000000000000000000000000000000000",
            "value" : [
                "0x00",
                "0x01",
                "0x02"
            ]
        }
    }
}