{
    "static_callcodecallcall_100_OOGE" : {
        "_info" : {
            "comment" : "",
            "filling-rpc-server" : "evm version 1.13.13-unstable-034bc466-20240219",
            "filling-tool-version" : "retesteth-0.3.2-cancun+commit.014a68a5.Linux.g++",
            "generatedTestHash" : "7421e5f45a9e6fc2af2e9b9909f2695dd28dc2b9bdd12a21773592e71f3b8790",
            "lllcversion" : "Version: 0.5.14-develop.2023.7.11+commit.c58ab2c6.mod.Linux.g++",
            "solidity" : "Version: 0.8.21+commit.d9974bed.Linux.g++",
            "source" : "src/GeneralStateTestsFiller/stStaticCall/static_callcodecallcall_100_OOGEFiller.json",
            "sourceHash" : "2434ce7e7b7945da00d348e91830e552f61d05f7a614d0dc0d1e0d496870060e"
        },
        "env" : {
            "currentBaseFee" : "0x0a",
            "currentCoinbase" : "0x2adc25665018aa1fe0e6bc666dac8fc2697ff9ba",
            "currentDifficulty" : "0x020000",
            "currentExcessBlobGas" : "0x00",
            "currentGasLimit" : "0x01c9c380",
            "currentNumber" : "0x01",
            "currentRandom" : "0x0000000000000000000000000000000000000000000000000000000000020000",
            "currentTimestamp" : "0x03e8"
        },
        "post" : {
            "Berlin" : [
                {
                    "hash" : "0x76bbd2fe4dbfd5024d17d184d60bf761f0386748e7560bbd5df498c63f69704a",
                    "indexes" : {
                        "data" : 0,
                        "gas" : 0,
                        "value" : 0
                    },
                    "logs" : "0x1dcc4de8dec75d7aab85b567b6ccd41ad312451b948a7413f0a142fd40d49347",
                    "txbytes" : "0xf880800a83029fe094100000000000000000000000000000000000000080a000000000000000000000000010000000000000000000000000000000000000031ba02de559c20f04cf203f4f92c5cf57d9751975feb2c9bb74290ef3c8ec956be420a0652f76501a071ad5861437076f2bb53dbb993279ffe6ec388c739acc8e215874"
                },
                {
                    "hash" : "0x76bbd2fe4dbfd5024d17d184d60bf761f0386748e7560bbd5df498c63f69704a",
                    "indexes" : {
                        "data" : 1,
                        "gas" : 0,
                        "value" : 0
                    },
                    "logs" : "0x1dcc4de8dec75d7aab85b567b6ccd41ad312451b948a7413f0a142fd40d49347",
                    "txbytes" : "0xf880800a83029fe094100000000000000000000000000000000000000080a000000000000000000000000020000000000000000000000000000000000000031ca082d255cfb41fa33e99950f8306cacd35c896f2c9c60734c0f14c8e0c6fdc3dc6a06d59f9f72cb99dadf8513e4d2184bee81a566b4e26c87c033d76f891cca01cf6"
                }
            ],
            "Cancun" : [
                {
                    "hash" : "0x6d079480dfb308f5d7151fb232b4d77801ce796b45128b98ec4a50f64938d71d",
                    "indexes" : {
                        "data" : 0,
                        "gas" : 0,
                        "value" : 0
                    },
                    "logs" : "0x1dcc4de8dec75d7aab85b567b6ccd41ad312451b948a7413f0a142fd40d49347",
                    "txbytes" : "0xf880800a83029fe094100000000000000000000000000000000000000080a000000000000000000000000010000000000000000000000000000000000000031ba02de559c20f04cf203f4f92c5cf57d9751975feb2c9bb74290ef3c8ec956be420a0652f76501a071ad5861437076f2bb53dbb993279ffe6ec388c739acc8e215874"
                },
                {
                    "hash" : "0x6d079480dfb308f5d7151fb232b4d77801ce796b45128b98ec4a50f64938d71d",
                    "indexes" : {
                        "data" : 1,
                        "gas" : 0,
                        "value" : 0
                    },
                    "logs" : "0x1dcc4de8dec75d7aab85b567b6ccd41ad312451b948a7413f0a142fd40d49347",
                    "txbytes" : "0xf880800a83029fe094100000000000000000000000000000000000000080a000000000000000000000000020000000000000000000000000000000000000031ca082d255cfb41fa33e99950f8306cacd35c896f2c9c60734c0f14c8e0c6fdc3dc6a06d59f9f72cb99dadf8513e4d2184bee81a566b4e26c87c033d76f891cca01cf6"
                }
            ],
            "Istanbul" : [
                {
                    "hash" : "0x9d714aae4103323dbdc143f13920c5a5e2a8020f0784f26d5b6efd16c7be2e35",
                    "indexes" : {
                        "data" : 0,
                        "gas" : 0,
                        "value" : 0
                    },
                    "logs" : "0x1dcc4de8dec75d7aab85b567b6ccd41ad312451b948a7413f0a142fd40d49347",
                    "txbytes" : "0xf880800a83029fe094100000000000000000000000000000000000000080a000000000000000000000000010000000000000000000000000000000000000031ba02de559c20f04cf203f4f92c5cf57d9751975feb2c9bb74290ef3c8ec956be420a0652f76501a071ad5861437076f2bb53dbb993279ffe6ec388c739acc8e215874"
                },
                {
                    "hash" : "0x9d714aae4103323dbdc143f13920c5a5e2a8020f0784f26d5b6efd16c7be2e35",
                    "indexes" : {
                        "data" : 1,
                        "gas" : 0,
                        "value" : 0
                    },
                    "logs" : "0x1dcc4de8dec75d7aab85b567b6ccd41ad312451b948a7413f0a142fd40d49347",
                    "txbytes" : "0xf880800a83029fe094100000000000000000000000000000000000000080a000000000000000000000000020000000000000000000000000000000000000031ca082d255cfb41fa33e99950f8306cacd35c896f2c9c60734c0f14c8e0c6fdc3dc6a06d59f9f72cb99dadf8513e4d2184bee81a566b4e26c87c033d76f891cca01cf6"
                }
            ],
            "London" : [
                {
                    "hash" : "0x337600eba6044810f93cd236434b03f1808ad079eaa3da7236f82da770e48a17",
                    "indexes" : {
                        "data" : 0,
                        "gas" : 0,
                        "value" : 0
                    },
                    "logs" : "0x1dcc4de8dec75d7aab85b567b6ccd41ad312451b948a7413f0a142fd40d49347",
                    "txbytes" : "0xf880800a83029fe094100000000000000000000000000000000000000080a000000000000000000000000010000000000000000000000000000000000000031ba02de559c20f04cf203f4f92c5cf57d9751975feb2c9bb74290ef3c8ec956be420a0652f76501a071ad5861437076f2bb53dbb993279ffe6ec388c739acc8e215874"
                },
                {
                    "hash" : "0x337600eba6044810f93cd236434b03f1808ad079eaa3da7236f82da770e48a17",
                    "indexes" : {
                        "data" : 1,
                        "gas" : 0,
                        "value" : 0
                    },
                    "logs" : "0x1dcc4de8dec75d7aab85b567b6ccd41ad312451b948a7413f0a142fd40d49347",
                    "txbytes" : "0xf880800a83029fe094100000000000000000000000000000000000000080a000000000000000000000000020000000000000000000000000000000000000031ca082d255cfb41fa33e99950f8306cacd35c896f2c9c60734c0f14c8e0c6fdc3dc6a06d59f9f72cb99dadf8513e4d2184bee81a566b4e26c87c033d76f891cca01cf6"
                }
            ],
            "Paris" : [
                {
                    "hash" : "0x337600eba6044810f93cd236434b03f1808ad079eaa3da7236f82da770e48a17",
                    "indexes" : {
                        "data" : 0,
                        "gas" : 0,
                        "value" : 0
                    },
                    "logs" : "0x1dcc4de8dec75d7aab85b567b6ccd41ad312451b948a7413f0a142fd40d49347",
                    "txbytes" : "0xf880800a83029fe094100000000000000000000000000000000000000080a000000000000000000000000010000000000000000000000000000000000000031ba02de559c20f04cf203f4f92c5cf57d9751975feb2c9bb74290ef3c8ec956be420a0652f76501a071ad5861437076f2bb53dbb993279ffe6ec388c739acc8e215874"
                },
                {
                    "hash" : "0x337600eba6044810f93cd236434b03f1808ad079eaa3da7236f82da770e48a17",
                    "indexes" : {
                        "data" : 1,
                        "gas" : 0,
                        "value" : 0
                    },
                    "logs" : "0x1dcc4de8dec75d7aab85b567b6ccd41ad312451b948a7413f0a142fd40d49347",
                    "txbytes" : "0xf880800a83029fe094100000000000000000000000000000000000000080a000000000000000000000000020000000000000000000000000000000000000031ca082d255cfb41fa33e99950f8306cacd35c896f2c9c60734c0f14c8e0c6fdc3dc6a06d59f9f72cb99dadf8513e4d2184bee81a566b4e26c87c033d76f891cca01cf6"
                }
            ],
            "Shanghai" : [
                {
                    "hash" : "0x337600eba6044810f93cd236434b03f1808ad079eaa3da7236f82da770e48a17",
                    "indexes" : {
                        "data" : 0,
                        "gas" : 0,
                        "value" : 0
                    },
                    "logs" : "0x1dcc4de8dec75d7aab85b567b6ccd41ad312451b948a7413f0a142fd40d49347",
                    "txbytes" : "0xf880800a83029fe094100000000000000000000000000000000000000080a000000000000000000000000010000000000000000000000000000000000000031ba02de559c20f04cf203f4f92c5cf57d9751975feb2c9bb74290ef3c8ec956be420a0652f76501a071ad5861437076f2bb53dbb993279ffe6ec388c739acc8e215874"
                },
                {
                    "hash" : "0x337600eba6044810f93cd236434b03f1808ad079eaa3da7236f82da770e48a17",
                    "indexes" : {
                        "data" : 1,
                        "gas" : 0,
                        "value" : 0
                    },
                    "logs" : "0x1dcc4de8dec75d7aab85b567b6ccd41ad312451b948a7413f0a142fd40d49347",
                    "txbytes" : "0xf880800a83029fe094100000000000000000000000000000000000000080a000000000000000000000000020000000000000000000000000000000000000031ca082d255cfb41fa33e99950f8306cacd35c896f2c9c60734c0f14c8e0c6fdc3dc6a06d59f9f72cb99dadf8513e4d2184bee81a566b4e26c87c033d76f891cca01cf6"
                }
            ]
        },
        "pre" : {
            "0x000f3df6d732807ef1319fb7b8bb8522d0beac02" : {
                "balance" : "0x00",
                "code" : "0x3373fffffffffffffffffffffffffffffffffffffffe14604d57602036146024575f5ffd5b5f35801560495762001fff810690815414603c575f5ffd5b62001fff01545f5260205ff35b5f5ffd5b62001fff42064281555f359062001fff015500",
                "nonce" : "0x01",
                "storage" : {
                }
            },
            "0x1000000000000000000000000000000000000000" : {
                "balance" : "0x0de0b6b3a7640000",
                "code" : "0x6000356000526040600060406000731000000000000000000000000000000000000001620249f0f4600055600160015500",
                "nonce" : "0x00",
                "storage" : {
                }
            },
            "0x1000000000000000000000000000000000000001" : {
                "balance" : "0x00",
                "code" : "0x6000356020526040600060406000731000000000000000000000000000000000000002620186a0fa50600160035200",
                "nonce" : "0x00",
                "storage" : {
                }
            },
            "0x1000000000000000000000000000000000000002" : {
                "balance" : "0x00",
                "code" : "0x6040600060406000602035614e34fa50600160035200",
                "nonce" : "0x00",
                "storage" : {
                }
            },
            "0x1000000000000000000000000000000000000003" : {
                "balance" : "0x00",
                "code" : "0x600160035500",
                "nonce" : "0x00",
                "storage" : {
                }
            },
            "0x2000000000000000000000000000000000000003" : {
                "balance" : "0x00",
                "code" : "0x5b61c3506080511015601c5760013b506001608051016080526000565b00",
                "nonce" : "0x00",
                "storage" : {
                }
            },
            "0xa94f5374fce5edbc8e2a8697c15331677e6ebf0b" : {
                "balance" : "0x0de0b6b3a7640000",
                "code" : "0x",
                "nonce" : "0x00",
                "storage" : {
                }
            }
        },
        "transaction" : {
            "data" : [
                "0x0000000000000000000000001000000000000000000000000000000000000003",
                "0x0000000000000000000000002000000000000000000000000000000000000003"
            ],
            "gasLimit" : [
                "0x029fe0"
            ],
            "gasPrice" : "0x0a",
            "nonce" : "0x00",
            "secretKey" : "0x45a915e4d060149eb4365960e6a7a45f334393093061116b197e3240065ff2d8",
            "sender" : "0xa94f5374fce5edbc8e2a8697c15331677e6ebf0b",
            "to" : "0x1000000000000000000000000000000000000000",
            "value" : [
                "0x00"
            ]
        }
    }
}