{
    "static_Call10" : {
        "_info" : {
            "comment" : "",
            "filling-rpc-server" : "evm version 1.13.11-unstable-765f2904-20240124",
            "filling-tool-version" : "retesteth-0.3.2-cancun+commit.ea13235b.Linux.g++",
            "generatedTestHash" : "63384709a1f66a223ce99617410b63ba4f7c1a2226b09621b6eeb2713db779cb",
            "lllcversion" : "Version: 0.5.14-develop.2023.7.11+commit.c58ab2c6.mod.Linux.g++",
            "solidity" : "Version: 0.8.21+commit.d9974bed.Linux.g++",
            "source" : "src/GeneralStateTestsFiller/stStaticCall/static_Call10Filler.json",
            "sourceHash" : "ecf34fc845400ac2804895281151e053c447b1af6ec6072b690cc365ae736a1e"
        },
        "env" : {
            "currentBaseFee" : "0x0a",
            "currentCoinbase" : "0xb94f5374fce5edbc8e2a8697c15331677e6ebf0b",
            "currentDifficulty" : "0x020000",
            "currentExcessBlobGas" : "0x00",
            "currentGasLimit" : "0x7fffffffffffffff",
            "currentNumber" : "0x01",
            "currentRandom" : "0x0000000000000000000000000000000000000000000000000000000000020000",
            "currentTimestamp" : "0x03e8"
        },
        "post" : {
            "Berlin" : [
                {
                    "hash" : "0x5580035c33e456e3871975cb42adbbb995b15d885a4b7d273c589097d457d55a",
                    "indexes" : {
                        "data" : 0,
                        "gas" : 0,
                        "value" : 0
                    },
                    "logs" : "0x1dcc4de8dec75d7aab85b567b6ccd41ad312451b948a7413f0a142fd40d49347",
                    "txbytes" : "0xf885800a887fe00000000000019410000000000000000000000000000000000000000aa0000000000000000000000000bbbf5374fce5edbc8e2a8697c15331677e6ebf0b1ca0d8158dbd8f9abeb3077ab3f8a58b5686602d668b4f3789066206f97929650ab8a07e7d73b80175cab7b58928a10a83c3887df251c1ec21dd0fe8847c2e3423e6b4"
                },
                {
                    "hash" : "0x9dcf6dbb27d7134a6ed267088bc158d5061ea74bcd9569a209111b7926181817",
                    "indexes" : {
                        "data" : 1,
                        "gas" : 0,
                        "value" : 0
                    },
                    "logs" : "0x1dcc4de8dec75d7aab85b567b6ccd41ad312451b948a7413f0a142fd40d49347",
                    "txbytes" : "0xf885800a887fe00000000000019410000000000000000000000000000000000000000aa0000000000000000000000000cbbf5374fce5edbc8e2a8697c15331677e6ebf0b1ca0d66f04968eb32841eaafc54eb514fc54c6a290da44c377e74332f09eb0253a07a00c780941396de0d81e0bd44dc4b3fa31268be355dabb3ebe678a8ae1c3cfde44"
                }
            ],
            "Cancun" : [
                {
                    "hash" : "0x43745e212bff5cee19b1de4b9ab441dfa1ac7fb0b8751d293b736633b93acdce",
                    "indexes" : {
                        "data" : 0,
                        "gas" : 0,
                        "value" : 0
                    },
                    "logs" : "0x1dcc4de8dec75d7aab85b567b6ccd41ad312451b948a7413f0a142fd40d49347",
                    "txbytes" : "0xf885800a887fe00000000000019410000000000000000000000000000000000000000aa0000000000000000000000000bbbf5374fce5edbc8e2a8697c15331677e6ebf0b1ca0d8158dbd8f9abeb3077ab3f8a58b5686602d668b4f3789066206f97929650ab8a07e7d73b80175cab7b58928a10a83c3887df251c1ec21dd0fe8847c2e3423e6b4"
                },
                {
                    "hash" : "0xf4ecc81f50b7ea86a1df3e7b7c6d68eb87c221f73f43c15ecdbe4d13e9476b88",
                    "indexes" : {
                        "data" : 1,
                        "gas" : 0,
                        "value" : 0
                    },
                    "logs" : "0x1dcc4de8dec75d7aab85b567b6ccd41ad312451b948a7413f0a142fd40d49347",
                    "txbytes" : "0xf885800a887fe00000000000019410000000000000000000000000000000000000000aa0000000000000000000000000cbbf5374fce5edbc8e2a8697c15331677e6ebf0b1ca0d66f04968eb32841eaafc54eb514fc54c6a290da44c377e74332f09eb0253a07a00c780941396de0d81e0bd44dc4b3fa31268be355dabb3ebe678a8ae1c3cfde44"
                }
            ],
            "Istanbul" : [
                {
                    "hash" : "0xad8a785111eb093b1f6b0b906fa04247e9d82943e9f07325aee98fe626b2d8a7",
                    "indexes" : {
                        "data" : 0,
                        "gas" : 0,
                        "value" : 0
                    },
                    "logs" : "0x1dcc4de8dec75d7aab85b567b6ccd41ad312451b948a7413f0a142fd40d49347",
                    "txbytes" : "0xf885800a887fe00000000000019410000000000000000000000000000000000000000aa0000000000000000000000000bbbf5374fce5edbc8e2a8697c15331677e6ebf0b1ca0d8158dbd8f9abeb3077ab3f8a58b5686602d668b4f3789066206f97929650ab8a07e7d73b80175cab7b58928a10a83c3887df251c1ec21dd0fe8847c2e3423e6b4"
                },
                {
                    "hash" : "0x37359e4b80ac461f19810fc7ef1e3da31f71f4cdff890252502004e7daf44244",
                    "indexes" : {
                        "data" : 1,
                        "gas" : 0,
                        "value" : 0
                    },
                    "logs" : "0x1dcc4de8dec75d7aab85b567b6ccd41ad312451b948a7413f0a142fd40d49347",
                    "txbytes" : "0xf885800a887fe00000000000019410000000000000000000000000000000000000000aa0000000000000000000000000cbbf5374fce5edbc8e2a8697c15331677e6ebf0b1ca0d66f04968eb32841eaafc54eb514fc54c6a290da44c377e74332f09eb0253a07a00c780941396de0d81e0bd44dc4b3fa31268be355dabb3ebe678a8ae1c3cfde44"
                }
            ],
            "London" : [
                {
                    "hash" : "0x43745e212bff5cee19b1de4b9ab441dfa1ac7fb0b8751d293b736633b93acdce",
                    "indexes" : {
                        "data" : 0,
                        "gas" : 0,
                        "value" : 0
                    },
                    "logs" : "0x1dcc4de8dec75d7aab85b567b6ccd41ad312451b948a7413f0a142fd40d49347",
                    "txbytes" : "0xf885800a887fe00000000000019410000000000000000000000000000000000000000aa0000000000000000000000000bbbf5374fce5edbc8e2a8697c15331677e6ebf0b1ca0d8158dbd8f9abeb3077ab3f8a58b5686602d668b4f3789066206f97929650ab8a07e7d73b80175cab7b58928a10a83c3887df251c1ec21dd0fe8847c2e3423e6b4"
                },
                {
                    "hash" : "0xf4ecc81f50b7ea86a1df3e7b7c6d68eb87c221f73f43c15ecdbe4d13e9476b88",
                    "indexes" : {
                        "data" : 1,
                        "gas" : 0,
                        "value" : 0
                    },
                    "logs" : "0x1dcc4de8dec75d7aab85b567b6ccd41ad312451b948a7413f0a142fd40d49347",
                    "txbytes" : "0xf885800a887fe00000000000019410000000000000000000000000000000000000000aa0000000000000000000000000cbbf5374fce5edbc8e2a8697c15331677e6ebf0b1ca0d66f04968eb32841eaafc54eb514fc54c6a290da44c377e74332f09eb0253a07a00c780941396de0d81e0bd44dc4b3fa31268be355dabb3ebe678a8ae1c3cfde44"
                }
            ],
            "Paris" : [
                {
                    "hash" : "0x43745e212bff5cee19b1de4b9ab441dfa1ac7fb0b8751d293b736633b93acdce",
                    "indexes" : {
                        "data" : 0,
                        "gas" : 0,
                        "value" : 0
                    },
                    "logs" : "0x1dcc4de8dec75d7aab85b567b6ccd41ad312451b948a7413f0a142fd40d49347",
                    "txbytes" : "0xf885800a887fe00000000000019410000000000000000000000000000000000000000aa0000000000000000000000000bbbf5374fce5edbc8e2a8697c15331677e6ebf0b1ca0d8158dbd8f9abeb3077ab3f8a58b5686602d668b4f3789066206f97929650ab8a07e7d73b80175cab7b58928a10a83c3887df251c1ec21dd0fe8847c2e3423e6b4"
                },
                {
                    "hash" : "0xf4ecc81f50b7ea86a1df3e7b7c6d68eb87c221f73f43c15ecdbe4d13e9476b88",
                    "indexes" : {
                        "data" : 1,
                        "gas" : 0,
                        "value" : 0
                    },
                    "logs" : "0x1dcc4de8dec75d7aab85b567b6ccd41ad312451b948a7413f0a142fd40d49347",
                    "txbytes" : "0xf885800a887fe00000000000019410000000000000000000000000000000000000000aa0000000000000000000000000cbbf5374fce5edbc8e2a8697c15331677e6ebf0b1ca0d66f04968eb32841eaafc54eb514fc54c6a290da44c377e74332f09eb0253a07a00c780941396de0d81e0bd44dc4b3fa31268be355dabb3ebe678a8ae1c3cfde44"
                }
            ],
            "Shanghai" : [
                {
                    "hash" : "0x43745e212bff5cee19b1de4b9ab441dfa1ac7fb0b8751d293b736633b93acdce",
                    "indexes" : {
                        "data" : 0,
                        "gas" : 0,
                        "value" : 0
                    },
                    "logs" : "0x1dcc4de8dec75d7aab85b567b6ccd41ad312451b948a7413f0a142fd40d49347",
                    "txbytes" : "0xf885800a887fe00000000000019410000000000000000000000000000000000000000aa0000000000000000000000000bbbf5374fce5edbc8e2a8697c15331677e6ebf0b1ca0d8158dbd8f9abeb3077ab3f8a58b5686602d668b4f3789066206f97929650ab8a07e7d73b80175cab7b58928a10a83c3887df251c1ec21dd0fe8847c2e3423e6b4"
                },
                {
                    "hash" : "0xf4ecc81f50b7ea86a1df3e7b7c6d68eb87c221f73f43c15ecdbe4d13e9476b88",
                    "indexes" : {
                        "data" : 1,
                        "gas" : 0,
                        "value" : 0
                    },
                    "logs" : "0x1dcc4de8dec75d7aab85b567b6ccd41ad312451b948a7413f0a142fd40d49347",
                    "txbytes" : "0xf885800a887fe00000000000019410000000000000000000000000000000000000000aa0000000000000000000000000cbbf5374fce5edbc8e2a8697c15331677e6ebf0b1ca0d66f04968eb32841eaafc54eb514fc54c6a290da44c377e74332f09eb0253a07a00c780941396de0d81e0bd44dc4b3fa31268be355dabb3ebe678a8ae1c3cfde44"
                }
            ]
        },
        "pre" : {
            "0x1000000000000000000000000000000000000000" : {
                "balance" : "0x00",
                "code" : "0x6000600060006000346000355af1600055600160015500",
                "nonce" : "0x00",
                "storage" : {
                }
            },
            "0xa94f5374fce5edbc8e2a8697c15331677e6ebf0b" : {
                "balance" : "0xffffffffffffffffffffffffffffffff",
                "code" : "0x",
                "nonce" : "0x00",
                "storage" : {
                }
            },
            "0xaaaf5374fce5edbc8e2a8697c15331677e6ebf0b" : {
                "balance" : "0x1b58",
                "code" : "0x",
                "nonce" : "0x00",
                "storage" : {
                }
            },
            "0xbbbf5374fce5edbc8e2a8697c15331677e6ebf0b" : {
                "balance" : "0x03e8",
                "code" : "0x5b600a60805110156040576000600061c350600073aaaf5374fce5edbc8e2a8697c15331677e6ebf0b650ffffffffffffa6000556001608051016080526000565b60805160015500",
                "nonce" : "0x00",
                "storage" : {
                }
            },
            "0xcbbf5374fce5edbc8e2a8697c15331677e6ebf0b" : {
                "balance" : "0x03e8",
                "code" : "0x5b600a60805110156040576000600061c350600073aaaf5374fce5edbc8e2a8697c15331677e6ebf0b650ffffffffffffa6000526001608051016080526000565b60805160205200",
                "nonce" : "0x00",
                "storage" : {
                }
            }
        },
        "transaction" : {
            "data" : [
                "0x000000000000000000000000bbbf5374fce5edbc8e2a8697c15331677e6ebf0b",
                "0x000000000000000000000000cbbf5374fce5edbc8e2a8697c15331677e6ebf0b"
            ],
            "gasLimit" : [
                "0x7fe0000000000001"
            ],
            "gasPrice" : "0x0a",
            "nonce" : "0x00",
            "secretKey" : "0x45a915e4d060149eb4365960e6a7a45f334393093061116b197e3240065ff2d8",
            "sender" : "0xa94f5374fce5edbc8e2a8697c15331677e6ebf0b",
            "to" : "0x1000000000000000000000000000000000000000",
            "value" : [
                "0x0a"
            ]
        }
    }
}