{
    "static_RevertDepth2" : {
        "_info" : {
            "comment" : "",
            "filling-rpc-server" : "evm version 1.13.13-unstable-034bc466-20240219",
            "filling-tool-version" : "retesteth-0.3.2-cancun+commit.014a68a5.Linux.g++",
            "generatedTestHash" : "6030beefd93498a1e95fbf3180c6e7c26a500cbeca0c06ccf2f8feac026063d3",
            "lllcversion" : "Version: 0.5.14-develop.2023.7.11+commit.c58ab2c6.mod.Linux.g++",
            "solidity" : "Version: 0.8.21+commit.d9974bed.Linux.g++",
            "source" : "src/GeneralStateTestsFiller/stStaticCall/static_RevertDepth2Filler.json",
            "sourceHash" : "1baf45712400c598be2aff79362b0f3a998c9be29fbc4df05100decc7b71befe"
        },
        "env" : {
            "currentBaseFee" : "0x0a",
            "currentCoinbase" : "0x2adc25665018aa1fe0e6bc666dac8fc2697ff9ba",
            "currentDifficulty" : "0x020000",
            "currentExcessBlobGas" : "0x00",
            "currentGasLimit" : "0x989680",
            "currentNumber" : "0x01",
            "currentRandom" : "0x0000000000000000000000000000000000000000000000000000000000020000",
            "currentTimestamp" : "0x03e8"
        },
        "post" : {
            "Berlin" : [
                {
                    "hash" : "0xe963f8b2f93951da1593e00ca94991afdaa5a8d6fcaa34d518f8e0d033bd2232",
                    "indexes" : {
                        "data" : 0,
                        "gas" : 0,
                        "value" : 0
                    },
                    "logs" : "0x1dcc4de8dec75d7aab85b567b6ccd41ad312451b948a7413f0a142fd40d49347",
                    "txbytes" : "0xf860800a831a0b6294a00000000000000000000000000000000000000080801ba02eeccbe8ee57ab93153eabbe88f412f4945b19acbaf396144baecdb3e0b2f277a04cee67c7cdef93a256b9b7abb07c574e165b4b2f261b91632762e22ef9e52ce2"
                }
            ],
            "Cancun" : [
                {
                    "hash" : "0x4958105beb4fec271ba8c6899b851b0c997395bfb53948f802472bbb901bf5d9",
                    "indexes" : {
                        "data" : 0,
                        "gas" : 0,
                        "value" : 0
                    },
                    "logs" : "0x1dcc4de8dec75d7aab85b567b6ccd41ad312451b948a7413f0a142fd40d49347",
                    "txbytes" : "0xf860800a831a0b6294a00000000000000000000000000000000000000080801ba02eeccbe8ee57ab93153eabbe88f412f4945b19acbaf396144baecdb3e0b2f277a04cee67c7cdef93a256b9b7abb07c574e165b4b2f261b91632762e22ef9e52ce2"
                }
            ],
            "Istanbul" : [
                {
                    "hash" : "0xf22b1643fdfbe4a57d3234d86e896ef7958c004dbff7dac6d4b0d1516101d07e",
                    "indexes" : {
                        "data" : 0,
                        "gas" : 0,
                        "value" : 0
                    },
                    "logs" : "0x1dcc4de8dec75d7aab85b567b6ccd41ad312451b948a7413f0a142fd40d49347",
                    "txbytes" : "0xf860800a831a0b6294a00000000000000000000000000000000000000080801ba02eeccbe8ee57ab93153eabbe88f412f4945b19acbaf396144baecdb3e0b2f277a04cee67c7cdef93a256b9b7abb07c574e165b4b2f261b91632762e22ef9e52ce2"
                }
            ],
            "London" : [
                {
                    "hash" : "0xac669bbcfb1788ca2ff619635d69202e4e49ff8bc6fb000ba6514c15a5790a0f",
                    "indexes" : {
                        "data" : 0,
                        "gas" : 0,
                        "value" : 0
                    },
                    "logs" : "0x1dcc4de8dec75d7aab85b567b6ccd41ad312451b948a7413f0a142fd40d49347",
                    "txbytes" : "0xf860800a831a0b6294a00000000000000000000000000000000000000080801ba02eeccbe8ee57ab93153eabbe88f412f4945b19acbaf396144baecdb3e0b2f277a04cee67c7cdef93a256b9b7abb07c574e165b4b2f261b91632762e22ef9e52ce2"
                }
            ],
            "Paris" : [
                {
                    "hash" : "0xac669bbcfb1788ca2ff619635d69202e4e49ff8bc6fb000ba6514c15a5790a0f",
                    "indexes" : {
                        "data" : 0,
                        "gas" : 0,
                        "value" : 0
                    },
                    "logs" : "0x1dcc4de8dec75d7aab85b567b6ccd41ad312451b948a7413f0a142fd40d49347",
                    "txbytes" : "0xf860800a831a0b6294a00000000000000000000000000000000000000080801ba02eeccbe8ee57ab93153eabbe88f412f4945b19acbaf396144baecdb3e0b2f277a04cee67c7cdef93a256b9b7abb07c574e165b4b2f261b91632762e22ef9e52ce2"
                }
            ],
            "Shanghai" : [
                {
                    "hash" : "0xac669bbcfb1788ca2ff619635d69202e4e49ff8bc6fb000ba6514c15a5790a0f",
                    "indexes" : {
                        "data" : 0,
                        "gas" : 0,
                        "value" : 0
                    },
                    "logs" : "0x1dcc4de8dec75d7aab85b567b6ccd41ad312451b948a7413f0a142fd40d49347",
                    "txbytes" : "0xf860800a831a0b6294a00000000000000000000000000000000000000080801ba02eeccbe8ee57ab93153eabbe88f412f4945b19acbaf396144baecdb3e0b2f277a04cee67c7cdef93a256b9b7abb07c574e165b4b2f261b91632762e22ef9e52ce2"
                }
            ]
        },
        "pre" : {
            "0x000f3df6d732807ef1319fb7b8bb8522d0beac02" : {
                "balance" : "0x00",
                "code" : "0x3373fffffffffffffffffffffffffffffffffffffffe14604d57602036146024575f5ffd5b5f35801560495762001fff810690815414603c575f5ffd5b62001fff01545f5260205ff35b5f5ffd5b62001fff42064281555f359062001fff015500",
                "nonce" : "0x01",
                "storage" : {
                }
            },
            "0xa000000000000000000000000000000000000000" : {
                "balance" : "0x00",
                "code" : "0x600054600101600055600060006000600073b000000000000000000000000000000000000000620249f0fa600155600060006000600073d000000000000000000000000000000000000000620249f0fa60025500",
                "nonce" : "0x00",
                "storage" : {
                }
            },
            "0xa94f5374fce5edbc8e2a8697c15331677e6ebf0b" : {
                "balance" : "0xe8d4a51000",
                "code" : "0x",
                "nonce" : "0x00",
                "storage" : {
                }
            },
            "0xb000000000000000000000000000000000000000" : {
                "balance" : "0x00",
                "code" : "0x600060006000600073c00000000000000000000000000000000000000061c350fa50600160015200",
                "nonce" : "0x00",
                "storage" : {
                }
            },
            "0xc000000000000000000000000000000000000000" : {
                "balance" : "0x00",
                "code" : "0x600160015200",
                "nonce" : "0x00",
                "storage" : {
                }
            },
            "0xd000000000000000000000000000000000000000" : {
                "balance" : "0x00",
                "code" : "0x600060006000600073c00000000000000000000000000000000000000061c350fa50622fffff60002000",
                "nonce" : "0x00",
                "storage" : {
                }
            }
        },
        "transaction" : {
            "data" : [
                "0x"
            ],
            "gasLimit" : [
                "0x1a0b62"
            ],
            "gasPrice" : "0x0a",
            "nonce" : "0x00",
            "secretKey" : "0x45a915e4d060149eb4365960e6a7a45f334393093061116b197e3240065ff2d8",
            "sender" : "0xa94f5374fce5edbc8e2a8697c15331677e6ebf0b",
            "to" : "0xa000000000000000000000000000000000000000",
            "value" : [
                "0x00"
            ]
        }
    }
}