{
    "static_call_OOG_additionalGasCosts1" : {
        "_info" : {
            "comment" : "",
            "filling-rpc-server" : "evm version 1.10.2-unstable-22082f9e-20210309",
            "filling-tool-version" : "retesteth-0.1.0-accesslist+commit.47c69eb3.Linux.g++",
            "lllcversion" : "Version: 0.5.14-develop.2020.6.22+commit.9189ad7a.Linux.g++",
            "source" : "src/GeneralStateTestsFiller/stStaticCall/static_call_OOG_additionalGasCosts1Filler.json",
            "sourceHash" : "5ce9b441aae27096eb7650a39cb16af939eeedb613d2195dd9f7d3c74b9c493e"
        },
        "env" : {
            "currentCoinbase" : "0x2adc25665018aa1fe0e6bc666dac8fc2697ff9ba",
            "currentDifficulty" : "0x020000",
            "currentGasLimit" : "0xb2d05e00",
            "currentNumber" : "0x01",
            "currentTimestamp" : "0x03e8",
            "previousHash" : "0x5e20a0453cecd065ea59c37ac63e079ee08998b6045136a8ce6635c7912ec0b6"
        },
        "post" : {
            "Berlin" : [
                {
                    "indexes" : {
                        "data" : 0,
                        "gas" : 0,
                        "value" : 0
                    },
                    "hash" : "0xa2e73e71361e85ed34231903499dd766cf41cec956a8bed5dbf7a3ab7e5441f9",
                    "txbytes" : "0xf85f800182753094100000000000000000000000000000000000000080801ba06f7662bd87cd5f4859e87e9e35b1f1428809c2b7e5dc96bcb18f1e1ecb3578bfa053a364d78ab6b27e1cd11be8a164e5060798ca450f06ad4c48b4e134d9d8b1db",
                    "logs" : "0x1dcc4de8dec75d7aab85b567b6ccd41ad312451b948a7413f0a142fd40d49347"
                }
            ],
            "Istanbul" : [
                {
                    "indexes" : {
                        "data" : 0,
                        "gas" : 0,
                        "value" : 0
                    },
                    "hash" : "0xa2e73e71361e85ed34231903499dd766cf41cec956a8bed5dbf7a3ab7e5441f9",
                    "txbytes" : "0xf85f800182753094100000000000000000000000000000000000000080801ba06f7662bd87cd5f4859e87e9e35b1f1428809c2b7e5dc96bcb18f1e1ecb3578bfa053a364d78ab6b27e1cd11be8a164e5060798ca450f06ad4c48b4e134d9d8b1db",
                    "logs" : "0x1dcc4de8dec75d7aab85b567b6ccd41ad312451b948a7413f0a142fd40d49347"
                }
            ]
        },
        "pre" : {
            "0x1000000000000000000000000000000000000000" : {
                "balance" : "0x0de0b6b3a7640000",
                "code" : "0x6040600060406000731000000000000000000000000000000000000001611770fa6000555a60015500",
                "nonce" : "0x00",
                "storage" : {
                }
            },
            "0xa94f5374fce5edbc8e2a8697c15331677e6ebf0b" : {
                "balance" : "0x0de0b6b3a7640000",
                "code" : "0x",
                "nonce" : "0x00",
                "storage" : {
                }
            }
        },
        "transaction" : {
            "data" : [
                "0x"
            ],
            "gasLimit" : [
                "0x7530"
            ],
            "gasPrice" : "0x01",
            "nonce" : "0x00",
            "secretKey" : "0x45a915e4d060149eb4365960e6a7a45f334393093061116b197e3240065ff2d8",
            "to" : "0x1000000000000000000000000000000000000000",
            "value" : [
                "0x00"
            ]
        }
    }
}