{
    "static_callWithHighValueAndGasOOG" : {
        "_info" : {
            "comment" : "",
            "filling-rpc-server" : "evm version 1.11.4-unstable-e14043db-20230308",
            "filling-tool-version" : "retesteth-0.3.0-shanghai+commit.fd2c0a83.Linux.g++",
            "generatedTestHash" : "76b9a34928fc0e89ac0f23f8646ed223f052b8794e41bc7d686b41054f89aa8a",
            "lllcversion" : "Version: 0.5.14-develop.2022.7.30+commit.a096d7a9.Linux.g++",
            "solidity" : "Version: 0.8.17+commit.8df45f5f.Linux.g++",
            "source" : "src/GeneralStateTestsFiller/stStaticCall/static_callWithHighValueAndGasOOGFiller.json",
            "sourceHash" : "15352c208a6da58693736101c010d8a2076cc17a0f3d43a3d6595b454fc57e2c"
        },
        "env" : {
            "currentBaseFee" : "0x0a",
            "currentCoinbase" : "0x2adc25665018aa1fe0e6bc666dac8fc2697ff9ba",
            "currentDifficulty" : "0x020000",
            "currentGasLimit" : "0x01c9c380",
            "currentNumber" : "0x01",
            "currentRandom" : "0x0000000000000000000000000000000000000000000000000000000000020000",
            "currentTimestamp" : "0x03e8",
            "previousHash" : "0x5e20a0453cecd065ea59c37ac63e079ee08998b6045136a8ce6635c7912ec0b6"
        },
        "post" : {
            "Berlin" : [
                {
                    "hash" : "0x81e0bc14b351d85e331d1fb01e35381295a0c9b30df56c2bb4796f2e15616603",
                    "indexes" : {
                        "data" : 0,
                        "gas" : 0,
                        "value" : 0
                    },
                    "logs" : "0x1dcc4de8dec75d7aab85b567b6ccd41ad312451b948a7413f0a142fd40d49347",
                    "txbytes" : "0xf883800a832dc6c0941000000000000000000000000000000000000000830186a0a0000000000000000000000000095e7baea6a6c7c4c2dfeb977efac326af552d871ca0888ab46c19e5f1026103ca0e95dea2b1dc890f82042c3800a57fa295d8280e16a039bc5c657d13aeed0a0397f99b68984ad4e5d1592a1e43261faa842fd8310714"
                },
                {
                    "hash" : "0x4ac6b70250112bd73a43efd9e87eb7fca8f9a94432f10cfb4ce49171906b01ea",
                    "indexes" : {
                        "data" : 1,
                        "gas" : 0,
                        "value" : 0
                    },
                    "logs" : "0x1dcc4de8dec75d7aab85b567b6ccd41ad312451b948a7413f0a142fd40d49347",
                    "txbytes" : "0xf883800a832dc6c0941000000000000000000000000000000000000000830186a0a0000000000000000000000000195e7baea6a6c7c4c2dfeb977efac326af552d871ba0490468d20c37f008e7b864a458c08099df14e98ac03fbbc5d8ecce6707e64d05a04dccbc9df8ffd1eb45d5cf7070781bb6bef21beb542407c7ddb4f97d11fd5574"
                }
            ],
            "Istanbul" : [
                {
                    "hash" : "0xa05645f728c6d76b345c286bb4fb4bfa9929ca7cf5bdeb3d08051669bbf2b540",
                    "indexes" : {
                        "data" : 0,
                        "gas" : 0,
                        "value" : 0
                    },
                    "logs" : "0x1dcc4de8dec75d7aab85b567b6ccd41ad312451b948a7413f0a142fd40d49347",
                    "txbytes" : "0xf883800a832dc6c0941000000000000000000000000000000000000000830186a0a0000000000000000000000000095e7baea6a6c7c4c2dfeb977efac326af552d871ca0888ab46c19e5f1026103ca0e95dea2b1dc890f82042c3800a57fa295d8280e16a039bc5c657d13aeed0a0397f99b68984ad4e5d1592a1e43261faa842fd8310714"
                },
                {
                    "hash" : "0xcd2fdc99f7a5c2170f19f35444b6eb03557cf0f9077ea216cae94592ed33ad80",
                    "indexes" : {
                        "data" : 1,
                        "gas" : 0,
                        "value" : 0
                    },
                    "logs" : "0x1dcc4de8dec75d7aab85b567b6ccd41ad312451b948a7413f0a142fd40d49347",
                    "txbytes" : "0xf883800a832dc6c0941000000000000000000000000000000000000000830186a0a0000000000000000000000000195e7baea6a6c7c4c2dfeb977efac326af552d871ba0490468d20c37f008e7b864a458c08099df14e98ac03fbbc5d8ecce6707e64d05a04dccbc9df8ffd1eb45d5cf7070781bb6bef21beb542407c7ddb4f97d11fd5574"
                }
            ],
            "London" : [
                {
                    "hash" : "0x587454148b381381069562ec08e7db7cffd267da43ce4ef581f76c000cfa8a4a",
                    "indexes" : {
                        "data" : 0,
                        "gas" : 0,
                        "value" : 0
                    },
                    "logs" : "0x1dcc4de8dec75d7aab85b567b6ccd41ad312451b948a7413f0a142fd40d49347",
                    "txbytes" : "0xf883800a832dc6c0941000000000000000000000000000000000000000830186a0a0000000000000000000000000095e7baea6a6c7c4c2dfeb977efac326af552d871ca0888ab46c19e5f1026103ca0e95dea2b1dc890f82042c3800a57fa295d8280e16a039bc5c657d13aeed0a0397f99b68984ad4e5d1592a1e43261faa842fd8310714"
                },
                {
                    "hash" : "0x3c0ffb90fa2215c9f0fe45012f8afdf4b740b02dc4c66c0db86dbce72c8ddc8e",
                    "indexes" : {
                        "data" : 1,
                        "gas" : 0,
                        "value" : 0
                    },
                    "logs" : "0x1dcc4de8dec75d7aab85b567b6ccd41ad312451b948a7413f0a142fd40d49347",
                    "txbytes" : "0xf883800a832dc6c0941000000000000000000000000000000000000000830186a0a0000000000000000000000000195e7baea6a6c7c4c2dfeb977efac326af552d871ba0490468d20c37f008e7b864a458c08099df14e98ac03fbbc5d8ecce6707e64d05a04dccbc9df8ffd1eb45d5cf7070781bb6bef21beb542407c7ddb4f97d11fd5574"
                }
            ],
            "Merge" : [
                {
                    "hash" : "0x587454148b381381069562ec08e7db7cffd267da43ce4ef581f76c000cfa8a4a",
                    "indexes" : {
                        "data" : 0,
                        "gas" : 0,
                        "value" : 0
                    },
                    "logs" : "0x1dcc4de8dec75d7aab85b567b6ccd41ad312451b948a7413f0a142fd40d49347",
                    "txbytes" : "0xf883800a832dc6c0941000000000000000000000000000000000000000830186a0a0000000000000000000000000095e7baea6a6c7c4c2dfeb977efac326af552d871ca0888ab46c19e5f1026103ca0e95dea2b1dc890f82042c3800a57fa295d8280e16a039bc5c657d13aeed0a0397f99b68984ad4e5d1592a1e43261faa842fd8310714"
                },
                {
                    "hash" : "0x3c0ffb90fa2215c9f0fe45012f8afdf4b740b02dc4c66c0db86dbce72c8ddc8e",
                    "indexes" : {
                        "data" : 1,
                        "gas" : 0,
                        "value" : 0
                    },
                    "logs" : "0x1dcc4de8dec75d7aab85b567b6ccd41ad312451b948a7413f0a142fd40d49347",
                    "txbytes" : "0xf883800a832dc6c0941000000000000000000000000000000000000000830186a0a0000000000000000000000000195e7baea6a6c7c4c2dfeb977efac326af552d871ba0490468d20c37f008e7b864a458c08099df14e98ac03fbbc5d8ecce6707e64d05a04dccbc9df8ffd1eb45d5cf7070781bb6bef21beb542407c7ddb4f97d11fd5574"
                }
            ],
            "Shanghai" : [
                {
                    "hash" : "0x587454148b381381069562ec08e7db7cffd267da43ce4ef581f76c000cfa8a4a",
                    "indexes" : {
                        "data" : 0,
                        "gas" : 0,
                        "value" : 0
                    },
                    "logs" : "0x1dcc4de8dec75d7aab85b567b6ccd41ad312451b948a7413f0a142fd40d49347",
                    "txbytes" : "0xf883800a832dc6c0941000000000000000000000000000000000000000830186a0a0000000000000000000000000095e7baea6a6c7c4c2dfeb977efac326af552d871ca0888ab46c19e5f1026103ca0e95dea2b1dc890f82042c3800a57fa295d8280e16a039bc5c657d13aeed0a0397f99b68984ad4e5d1592a1e43261faa842fd8310714"
                },
                {
                    "hash" : "0x3c0ffb90fa2215c9f0fe45012f8afdf4b740b02dc4c66c0db86dbce72c8ddc8e",
                    "indexes" : {
                        "data" : 1,
                        "gas" : 0,
                        "value" : 0
                    },
                    "logs" : "0x1dcc4de8dec75d7aab85b567b6ccd41ad312451b948a7413f0a142fd40d49347",
                    "txbytes" : "0xf883800a832dc6c0941000000000000000000000000000000000000000830186a0a0000000000000000000000000195e7baea6a6c7c4c2dfeb977efac326af552d871ba0490468d20c37f008e7b864a458c08099df14e98ac03fbbc5d8ecce6707e64d05a04dccbc9df8ffd1eb45d5cf7070781bb6bef21beb542407c7ddb4f97d11fd5574"
                }
            ]
        },
        "pre" : {
            "0x095e7baea6a6c7c4c2dfeb977efac326af552d87" : {
                "balance" : "0x0de0b6b3a7640000",
                "code" : "0x7fffffffffffffffffffffffffffffffffffffffffffffffffffffffffffffffff6000527faaffffffffffffffffffffffffffffffffffffffffffffffffffffffffffffaa602052600260006040600073945304eb96065b2a98b57a48a06ae28d285a71b56bfffffffffffffffffffffffffa60005560005160015500",
                "nonce" : "0x00",
                "storage" : {
                }
            },
            "0x1000000000000000000000000000000000000000" : {
                "balance" : "0x0de0b6b3a7640000",
                "code" : "0x600060006000600060006000356207a120f100",
                "nonce" : "0x00",
                "storage" : {
                }
            },
            "0x195e7baea6a6c7c4c2dfeb977efac326af552d87" : {
                "balance" : "0x0de0b6b3a7640000",
                "code" : "0x7fffffffffffffffffffffffffffffffffffffffffffffffffffffffffffffffff6000527faaffffffffffffffffffffffffffffffffffffffffffffffffffffffffffffaa602052600260006040600073b45304eb96065b2a98b57a48a06ae28d285a71b56bfffffffffffffffffffffffffa60005560005160015500",
                "nonce" : "0x00",
                "storage" : {
                    "0x00" : "0x01",
                    "0x01" : "0x01"
                }
            },
            "0x945304eb96065b2a98b57a48a06ae28d285a71b5" : {
                "balance" : "0x17",
                "code" : "0x603760005360026000f3",
                "nonce" : "0x00",
                "storage" : {
                }
            },
            "0xa94f5374fce5edbc8e2a8697c15331677e6ebf0b" : {
                "balance" : "0x0de0b6b3a7640000",
                "code" : "0x",
                "nonce" : "0x00",
                "storage" : {
                }
            },
            "0xb45304eb96065b2a98b57a48a06ae28d285a71b5" : {
                "balance" : "0x17",
                "code" : "0x622fffff60002000",
                "nonce" : "0x00",
                "storage" : {
                }
            }
        },
        "transaction" : {
            "data" : [
                "0x000000000000000000000000095e7baea6a6c7c4c2dfeb977efac326af552d87",
                "0x000000000000000000000000195e7baea6a6c7c4c2dfeb977efac326af552d87"
            ],
            "gasLimit" : [
                "0x2dc6c0"
            ],
            "gasPrice" : "0x0a",
            "nonce" : "0x00",
            "secretKey" : "0x45a915e4d060149eb4365960e6a7a45f334393093061116b197e3240065ff2d8",
            "sender" : "0xa94f5374fce5edbc8e2a8697c15331677e6ebf0b",
            "to" : "0x1000000000000000000000000000000000000000",
            "value" : [
                "0x0186a0"
            ]
        }
    }
}