{
    "static_RawCallGasAsk" : {
        "_info" : {
            "comment" : "",
            "filling-rpc-server" : "evm version 1.13.13-unstable-034bc466-20240219",
            "filling-tool-version" : "retesteth-0.3.2-cancun+commit.014a68a5.Linux.g++",
            "generatedTestHash" : "d2139b4ac928df4238ab8c1ad96f4faa8608de777e7b767314a3ec840e02f7b1",
            "lllcversion" : "Version: 0.5.14-develop.2023.7.11+commit.c58ab2c6.mod.Linux.g++",
            "solidity" : "Version: 0.8.21+commit.d9974bed.Linux.g++",
            "source" : "src/GeneralStateTestsFiller/stStaticCall/static_RawCallGasAskFiller.json",
            "sourceHash" : "ab815cf9fb11dae43970921203d3c1eaa22d4ea06ead6ee066712f0818801299"
        },
        "env" : {
            "currentBaseFee" : "0x0a",
            "currentCoinbase" : "0x2adc25665018aa1fe0e6bc666dac8fc2697ff9ba",
            "currentDifficulty" : "0x020000",
            "currentExcessBlobGas" : "0x00",
            "currentGasLimit" : "0x989680",
            "currentNumber" : "0x01",
            "currentRandom" : "0x0000000000000000000000000000000000000000000000000000000000020000",
            "currentTimestamp" : "0x03e8"
        },
        "post" : {
            "Berlin" : [
                {
                    "hash" : "0x0b46c129401bacbeb12084c10f363129185edbdcbe0985c4e043b5965ad4494e",
                    "indexes" : {
                        "data" : 0,
                        "gas" : 0,
                        "value" : 0
                    },
                    "logs" : "0x1dcc4de8dec75d7aab85b567b6ccd41ad312451b948a7413f0a142fd40d49347",
                    "txbytes" : "0xf880800a830f424094100000000000000000000000000000000000000080a000000000000000000000000010000000000000000000000000000000000000011ba0ca40286cf510dd110911c6af510abd371016c753d97a4a306498c7e5e0a37f7fa00c0e0cd7f37671b9086387e571267b36b02bceed7978227cef9d14c2d6bd8429"
                },
                {
                    "hash" : "0x3abf9fb2ebff4ff9b483c649b7ae266a2f6282d0fa9c9d80a6c43a2d99714474",
                    "indexes" : {
                        "data" : 1,
                        "gas" : 0,
                        "value" : 0
                    },
                    "logs" : "0x1dcc4de8dec75d7aab85b567b6ccd41ad312451b948a7413f0a142fd40d49347",
                    "txbytes" : "0xf880800a830f424094100000000000000000000000000000000000000080a000000000000000000000000020000000000000000000000000000000000000011ba0ba980204ef9d34737a326b503432984d6b3724a24c2ee1334a9f47b838f94625a062922ac8f39378bacdfc45793f527e1923e7aa99502b350e65b4a206a7ec2941"
                },
                {
                    "hash" : "0xb76266d4dfac33910b3afb7bcae539f841654b2f139609ad45605f8a2cd01ff7",
                    "indexes" : {
                        "data" : 2,
                        "gas" : 0,
                        "value" : 0
                    },
                    "logs" : "0x1dcc4de8dec75d7aab85b567b6ccd41ad312451b948a7413f0a142fd40d49347",
                    "txbytes" : "0xf880800a830f424094100000000000000000000000000000000000000080a000000000000000000000000030000000000000000000000000000000000000011ba07824aed1c1cfe024f3da4846d5f51126a6c7e980d70b63cb4e89c8785e7949dba02e48e80ef66529c7e82a60df59443c777bbf10fda01b9caac1c5a85c52d600ad"
                },
                {
                    "hash" : "0xde69c4300f6fcf2c0e8901c20293c297823379de3496dab5daf4bea7e8389d10",
                    "indexes" : {
                        "data" : 3,
                        "gas" : 0,
                        "value" : 0
                    },
                    "logs" : "0x1dcc4de8dec75d7aab85b567b6ccd41ad312451b948a7413f0a142fd40d49347",
                    "txbytes" : "0xf880800a830f424094100000000000000000000000000000000000000080a000000000000000000000000040000000000000000000000000000000000000011ca0a23bede74153162a10f3a3c3d88e4aeb8e7656e1974a82f231e84b6c91fbbf5aa07cca804453cb41b24a9c65e78a2ff2fc58e4d9734e9110af5f6422cba3066bc2"
                }
            ],
            "Cancun" : [
                {
                    "hash" : "0xce21d9c8c6330e236c59ba97182bc314583be52100b0e5973d42efb7a621a8cb",
                    "indexes" : {
                        "data" : 0,
                        "gas" : 0,
                        "value" : 0
                    },
                    "logs" : "0x1dcc4de8dec75d7aab85b567b6ccd41ad312451b948a7413f0a142fd40d49347",
                    "txbytes" : "0xf880800a830f424094100000000000000000000000000000000000000080a000000000000000000000000010000000000000000000000000000000000000011ba0ca40286cf510dd110911c6af510abd371016c753d97a4a306498c7e5e0a37f7fa00c0e0cd7f37671b9086387e571267b36b02bceed7978227cef9d14c2d6bd8429"
                },
                {
                    "hash" : "0xbd9e993549e4ecc544baa0addccc9e5185d038de00c3c722e7b2227eaa96a549",
                    "indexes" : {
                        "data" : 1,
                        "gas" : 0,
                        "value" : 0
                    },
                    "logs" : "0x1dcc4de8dec75d7aab85b567b6ccd41ad312451b948a7413f0a142fd40d49347",
                    "txbytes" : "0xf880800a830f424094100000000000000000000000000000000000000080a000000000000000000000000020000000000000000000000000000000000000011ba0ba980204ef9d34737a326b503432984d6b3724a24c2ee1334a9f47b838f94625a062922ac8f39378bacdfc45793f527e1923e7aa99502b350e65b4a206a7ec2941"
                },
                {
                    "hash" : "0x9f82aa3ab7a48f252d3eeb5439589b317c66989bfaedafa2ca4c462b2a8c0850",
                    "indexes" : {
                        "data" : 2,
                        "gas" : 0,
                        "value" : 0
                    },
                    "logs" : "0x1dcc4de8dec75d7aab85b567b6ccd41ad312451b948a7413f0a142fd40d49347",
                    "txbytes" : "0xf880800a830f424094100000000000000000000000000000000000000080a000000000000000000000000030000000000000000000000000000000000000011ba07824aed1c1cfe024f3da4846d5f51126a6c7e980d70b63cb4e89c8785e7949dba02e48e80ef66529c7e82a60df59443c777bbf10fda01b9caac1c5a85c52d600ad"
                },
                {
                    "hash" : "0x7ce2516bb925d2b6889ad0690993ee5324d3710f05289f908f6c4d77d4d865f9",
                    "indexes" : {
                        "data" : 3,
                        "gas" : 0,
                        "value" : 0
                    },
                    "logs" : "0x1dcc4de8dec75d7aab85b567b6ccd41ad312451b948a7413f0a142fd40d49347",
                    "txbytes" : "0xf880800a830f424094100000000000000000000000000000000000000080a000000000000000000000000040000000000000000000000000000000000000011ca0a23bede74153162a10f3a3c3d88e4aeb8e7656e1974a82f231e84b6c91fbbf5aa07cca804453cb41b24a9c65e78a2ff2fc58e4d9734e9110af5f6422cba3066bc2"
                }
            ],
            "Istanbul" : [
                {
                    "hash" : "0x686ba71f47f1ddd7432ae170ac434ab19e4adeb4074e238b26ce266a5b3c60bc",
                    "indexes" : {
                        "data" : 0,
                        "gas" : 0,
                        "value" : 0
                    },
                    "logs" : "0x1dcc4de8dec75d7aab85b567b6ccd41ad312451b948a7413f0a142fd40d49347",
                    "txbytes" : "0xf880800a830f424094100000000000000000000000000000000000000080a000000000000000000000000010000000000000000000000000000000000000011ba0ca40286cf510dd110911c6af510abd371016c753d97a4a306498c7e5e0a37f7fa00c0e0cd7f37671b9086387e571267b36b02bceed7978227cef9d14c2d6bd8429"
                },
                {
                    "hash" : "0x0e2927bb96b0714c46c1312daaaba8a618b7751615463c48f93811603879e684",
                    "indexes" : {
                        "data" : 1,
                        "gas" : 0,
                        "value" : 0
                    },
                    "logs" : "0x1dcc4de8dec75d7aab85b567b6ccd41ad312451b948a7413f0a142fd40d49347",
                    "txbytes" : "0xf880800a830f424094100000000000000000000000000000000000000080a000000000000000000000000020000000000000000000000000000000000000011ba0ba980204ef9d34737a326b503432984d6b3724a24c2ee1334a9f47b838f94625a062922ac8f39378bacdfc45793f527e1923e7aa99502b350e65b4a206a7ec2941"
                },
                {
                    "hash" : "0xb0d23235675b50ae0c0f357889c7cda6ca1194af47b10972906df945f2cf6694",
                    "indexes" : {
                        "data" : 2,
                        "gas" : 0,
                        "value" : 0
                    },
                    "logs" : "0x1dcc4de8dec75d7aab85b567b6ccd41ad312451b948a7413f0a142fd40d49347",
                    "txbytes" : "0xf880800a830f424094100000000000000000000000000000000000000080a000000000000000000000000030000000000000000000000000000000000000011ba07824aed1c1cfe024f3da4846d5f51126a6c7e980d70b63cb4e89c8785e7949dba02e48e80ef66529c7e82a60df59443c777bbf10fda01b9caac1c5a85c52d600ad"
                },
                {
                    "hash" : "0x75bb83142d8fc850c481ad8f75013255a399ae70f8a3d5b9266c46a8469a120c",
                    "indexes" : {
                        "data" : 3,
                        "gas" : 0,
                        "value" : 0
                    },
                    "logs" : "0x1dcc4de8dec75d7aab85b567b6ccd41ad312451b948a7413f0a142fd40d49347",
                    "txbytes" : "0xf880800a830f424094100000000000000000000000000000000000000080a000000000000000000000000040000000000000000000000000000000000000011ca0a23bede74153162a10f3a3c3d88e4aeb8e7656e1974a82f231e84b6c91fbbf5aa07cca804453cb41b24a9c65e78a2ff2fc58e4d9734e9110af5f6422cba3066bc2"
                }
            ],
            "London" : [
                {
                    "hash" : "0xd0e29892bfd2112bb3d89fa33018b3709d0875da415301c15140bcb9ecb33db6",
                    "indexes" : {
                        "data" : 0,
                        "gas" : 0,
                        "value" : 0
                    },
                    "logs" : "0x1dcc4de8dec75d7aab85b567b6ccd41ad312451b948a7413f0a142fd40d49347",
                    "txbytes" : "0xf880800a830f424094100000000000000000000000000000000000000080a000000000000000000000000010000000000000000000000000000000000000011ba0ca40286cf510dd110911c6af510abd371016c753d97a4a306498c7e5e0a37f7fa00c0e0cd7f37671b9086387e571267b36b02bceed7978227cef9d14c2d6bd8429"
                },
                {
                    "hash" : "0x6b15be30a87616269d6770f6fbaedad5f54060f31cb19505ac7573cccf71973f",
                    "indexes" : {
                        "data" : 1,
                        "gas" : 0,
                        "value" : 0
                    },
                    "logs" : "0x1dcc4de8dec75d7aab85b567b6ccd41ad312451b948a7413f0a142fd40d49347",
                    "txbytes" : "0xf880800a830f424094100000000000000000000000000000000000000080a000000000000000000000000020000000000000000000000000000000000000011ba0ba980204ef9d34737a326b503432984d6b3724a24c2ee1334a9f47b838f94625a062922ac8f39378bacdfc45793f527e1923e7aa99502b350e65b4a206a7ec2941"
                },
                {
                    "hash" : "0x6b67a6d852e731a1742d3801c2010cffb4683fc7cc67ece3015d810c573ab871",
                    "indexes" : {
                        "data" : 2,
                        "gas" : 0,
                        "value" : 0
                    },
                    "logs" : "0x1dcc4de8dec75d7aab85b567b6ccd41ad312451b948a7413f0a142fd40d49347",
                    "txbytes" : "0xf880800a830f424094100000000000000000000000000000000000000080a000000000000000000000000030000000000000000000000000000000000000011ba07824aed1c1cfe024f3da4846d5f51126a6c7e980d70b63cb4e89c8785e7949dba02e48e80ef66529c7e82a60df59443c777bbf10fda01b9caac1c5a85c52d600ad"
                },
                {
                    "hash" : "0xfbe1bbf020f4cdd6acd396bfafec77a113a3c7a302300ef4e6f948c4b537bae9",
                    "indexes" : {
                        "data" : 3,
                        "gas" : 0,
                        "value" : 0
                    },
                    "logs" : "0x1dcc4de8dec75d7aab85b567b6ccd41ad312451b948a7413f0a142fd40d49347",
                    "txbytes" : "0xf880800a830f424094100000000000000000000000000000000000000080a000000000000000000000000040000000000000000000000000000000000000011ca0a23bede74153162a10f3a3c3d88e4aeb8e7656e1974a82f231e84b6c91fbbf5aa07cca804453cb41b24a9c65e78a2ff2fc58e4d9734e9110af5f6422cba3066bc2"
                }
            ],
            "Paris" : [
                {
                    "hash" : "0xd0e29892bfd2112bb3d89fa33018b3709d0875da415301c15140bcb9ecb33db6",
                    "indexes" : {
                        "data" : 0,
                        "gas" : 0,
                        "value" : 0
                    },
                    "logs" : "0x1dcc4de8dec75d7aab85b567b6ccd41ad312451b948a7413f0a142fd40d49347",
                    "txbytes" : "0xf880800a830f424094100000000000000000000000000000000000000080a000000000000000000000000010000000000000000000000000000000000000011ba0ca40286cf510dd110911c6af510abd371016c753d97a4a306498c7e5e0a37f7fa00c0e0cd7f37671b9086387e571267b36b02bceed7978227cef9d14c2d6bd8429"
                },
                {
                    "hash" : "0x6b15be30a87616269d6770f6fbaedad5f54060f31cb19505ac7573cccf71973f",
                    "indexes" : {
                        "data" : 1,
                        "gas" : 0,
                        "value" : 0
                    },
                    "logs" : "0x1dcc4de8dec75d7aab85b567b6ccd41ad312451b948a7413f0a142fd40d49347",
                    "txbytes" : "0xf880800a830f424094100000000000000000000000000000000000000080a000000000000000000000000020000000000000000000000000000000000000011ba0ba980204ef9d34737a326b503432984d6b3724a24c2ee1334a9f47b838f94625a062922ac8f39378bacdfc45793f527e1923e7aa99502b350e65b4a206a7ec2941"
                },
                {
                    "hash" : "0x6b67a6d852e731a1742d3801c2010cffb4683fc7cc67ece3015d810c573ab871",
                    "indexes" : {
                        "data" : 2,
                        "gas" : 0,
                        "value" : 0
                    },
                    "logs" : "0x1dcc4de8dec75d7aab85b567b6ccd41ad312451b948a7413f0a142fd40d49347",
                    "txbytes" : "0xf880800a830f424094100000000000000000000000000000000000000080a000000000000000000000000030000000000000000000000000000000000000011ba07824aed1c1cfe024f3da4846d5f51126a6c7e980d70b63cb4e89c8785e7949dba02e48e80ef66529c7e82a60df59443c777bbf10fda01b9caac1c5a85c52d600ad"
                },
                {
                    "hash" : "0xfbe1bbf020f4cdd6acd396bfafec77a113a3c7a302300ef4e6f948c4b537bae9",
                    "indexes" : {
                        "data" : 3,
                        "gas" : 0,
                        "value" : 0
                    },
                    "logs" : "0x1dcc4de8dec75d7aab85b567b6ccd41ad312451b948a7413f0a142fd40d49347",
                    "txbytes" : "0xf880800a830f424094100000000000000000000000000000000000000080a000000000000000000000000040000000000000000000000000000000000000011ca0a23bede74153162a10f3a3c3d88e4aeb8e7656e1974a82f231e84b6c91fbbf5aa07cca804453cb41b24a9c65e78a2ff2fc58e4d9734e9110af5f6422cba3066bc2"
                }
            ],
            "Shanghai" : [
                {
                    "hash" : "0xd0e29892bfd2112bb3d89fa33018b3709d0875da415301c15140bcb9ecb33db6",
                    "indexes" : {
                        "data" : 0,
                        "gas" : 0,
                        "value" : 0
                    },
                    "logs" : "0x1dcc4de8dec75d7aab85b567b6ccd41ad312451b948a7413f0a142fd40d49347",
                    "txbytes" : "0xf880800a830f424094100000000000000000000000000000000000000080a000000000000000000000000010000000000000000000000000000000000000011ba0ca40286cf510dd110911c6af510abd371016c753d97a4a306498c7e5e0a37f7fa00c0e0cd7f37671b9086387e571267b36b02bceed7978227cef9d14c2d6bd8429"
                },
                {
                    "hash" : "0x6b15be30a87616269d6770f6fbaedad5f54060f31cb19505ac7573cccf71973f",
                    "indexes" : {
                        "data" : 1,
                        "gas" : 0,
                        "value" : 0
                    },
                    "logs" : "0x1dcc4de8dec75d7aab85b567b6ccd41ad312451b948a7413f0a142fd40d49347",
                    "txbytes" : "0xf880800a830f424094100000000000000000000000000000000000000080a000000000000000000000000020000000000000000000000000000000000000011ba0ba980204ef9d34737a326b503432984d6b3724a24c2ee1334a9f47b838f94625a062922ac8f39378bacdfc45793f527e1923e7aa99502b350e65b4a206a7ec2941"
                },
                {
                    "hash" : "0x6b67a6d852e731a1742d3801c2010cffb4683fc7cc67ece3015d810c573ab871",
                    "indexes" : {
                        "data" : 2,
                        "gas" : 0,
                        "value" : 0
                    },
                    "logs" : "0x1dcc4de8dec75d7aab85b567b6ccd41ad312451b948a7413f0a142fd40d49347",
                    "txbytes" : "0xf880800a830f424094100000000000000000000000000000000000000080a000000000000000000000000030000000000000000000000000000000000000011ba07824aed1c1cfe024f3da4846d5f51126a6c7e980d70b63cb4e89c8785e7949dba02e48e80ef66529c7e82a60df59443c777bbf10fda01b9caac1c5a85c52d600ad"
                },
                {
                    "hash" : "0xfbe1bbf020f4cdd6acd396bfafec77a113a3c7a302300ef4e6f948c4b537bae9",
                    "indexes" : {
                        "data" : 3,
                        "gas" : 0,
                        "value" : 0
                    },
                    "logs" : "0x1dcc4de8dec75d7aab85b567b6ccd41ad312451b948a7413f0a142fd40d49347",
                    "txbytes" : "0xf880800a830f424094100000000000000000000000000000000000000080a000000000000000000000000040000000000000000000000000000000000000011ca0a23bede74153162a10f3a3c3d88e4aeb8e7656e1974a82f231e84b6c91fbbf5aa07cca804453cb41b24a9c65e78a2ff2fc58e4d9734e9110af5f6422cba3066bc2"
                }
            ]
        },
        "pre" : {
            "0x000f3df6d732807ef1319fb7b8bb8522d0beac02" : {
                "balance" : "0x00",
                "code" : "0x3373fffffffffffffffffffffffffffffffffffffffe14604d57602036146024575f5ffd5b5f35801560495762001fff810690815414603c575f5ffd5b62001fff01545f5260205ff35b5f5ffd5b62001fff42064281555f359062001fff015500",
                "nonce" : "0x01",
                "storage" : {
                }
            },
            "0x094f5374fce5edbc8e2a8697c15331677e6ebf0b" : {
                "balance" : "0x00",
                "code" : "0x5a60005200",
                "nonce" : "0x00",
                "storage" : {
                }
            },
            "0x1000000000000000000000000000000000000000" : {
                "balance" : "0xe8d4a51000",
                "code" : "0x600060006000600060006000355af100",
                "nonce" : "0x00",
                "storage" : {
                }
            },
            "0x1000000000000000000000000000000000000001" : {
                "balance" : "0x00",
                "code" : "0x600060006000600073094f5374fce5edbc8e2a8697c15331677e6ebf0b622dc6c0fa505a60015500",
                "nonce" : "0x00",
                "storage" : {
                }
            },
            "0x2000000000000000000000000000000000000001" : {
                "balance" : "0x00",
                "code" : "0x600060006000600073094f5374fce5edbc8e2a8697c15331677e6ebf0b6201fbd0fa505a60015500",
                "nonce" : "0x00",
                "storage" : {
                }
            },
            "0x3000000000000000000000000000000000000001" : {
                "balance" : "0x00",
                "code" : "0x611f406000611f40600073094f5374fce5edbc8e2a8697c15331677e6ebf0b622dc6c0fa505a60015500",
                "nonce" : "0x00",
                "storage" : {
                }
            },
            "0x4000000000000000000000000000000000000001" : {
                "balance" : "0x00",
                "code" : "0x611f406000611f40600073094f5374fce5edbc8e2a8697c15331677e6ebf0b6201fbd0fa505a60015500",
                "nonce" : "0x00",
                "storage" : {
                }
            },
            "0xa94f5374fce5edbc8e2a8697c15331677e6ebf0b" : {
                "balance" : "0xe8d4a51000",
                "code" : "0x",
                "nonce" : "0x00",
                "storage" : {
                }
            }
        },
        "transaction" : {
            "data" : [
                "0x0000000000000000000000001000000000000000000000000000000000000001",
                "0x0000000000000000000000002000000000000000000000000000000000000001",
                "0x0000000000000000000000003000000000000000000000000000000000000001",
                "0x0000000000000000000000004000000000000000000000000000000000000001"
            ],
            "gasLimit" : [
                "0x0f4240"
            ],
            "gasPrice" : "0x0a",
            "nonce" : "0x00",
            "secretKey" : "0x45a915e4d060149eb4365960e6a7a45f334393093061116b197e3240065ff2d8",
            "sender" : "0xa94f5374fce5edbc8e2a8697c15331677e6ebf0b",
            "to" : "0x1000000000000000000000000000000000000000",
            "value" : [
                "0x00"
            ]
        }
    }
}