{
    "static_callcallcodecallcode_011_2" : {
        "_info" : {
            "comment" : "",
            "filling-rpc-server" : "evm version 1.13.13-unstable-034bc466-20240219",
            "filling-tool-version" : "retesteth-0.3.2-cancun+commit.014a68a5.Linux.g++",
            "generatedTestHash" : "26fee79587a3da99e2be7ba6bad4a2f8790dcde576d0ef777e37c6aad7f44031",
            "lllcversion" : "Version: 0.5.14-develop.2023.7.11+commit.c58ab2c6.mod.Linux.g++",
            "solidity" : "Version: 0.8.21+commit.d9974bed.Linux.g++",
            "source" : "src/GeneralStateTestsFiller/stStaticCall/static_callcallcodecallcode_011_2Filler.json",
            "sourceHash" : "bbc5acb8e735e414fef0b5cd7835071b978651e1efb523f438e2738f338a687f"
        },
        "env" : {
            "currentBaseFee" : "0x0a",
            "currentCoinbase" : "0x2adc25665018aa1fe0e6bc666dac8fc2697ff9ba",
            "currentDifficulty" : "0x020000",
            "currentExcessBlobGas" : "0x00",
            "currentGasLimit" : "0x01c9c380",
            "currentNumber" : "0x01",
            "currentRandom" : "0x0000000000000000000000000000000000000000000000000000000000020000",
            "currentTimestamp" : "0x03e8"
        },
        "post" : {
            "Berlin" : [
                {
                    "hash" : "0x37841d6bd24f9b5de9ccf503125767d4fa82ed05aa909a89d9b0fd1b4f1b9a81",
                    "indexes" : {
                        "data" : 0,
                        "gas" : 0,
                        "value" : 0
                    },
                    "logs" : "0x1dcc4de8dec75d7aab85b567b6ccd41ad312451b948a7413f0a142fd40d49347",
                    "txbytes" : "0xf880800a832dc6c094100000000000000000000000000000000000000080a000000000000000000000000010000000000000000000000000000000000000021ba01221c732357bf312e2649873e575d7ccc6e289ab8b3450ee89ced463f6ff61c6a07b6b1a1cc234436c35668ccfbd94c1a6f29ad73576192caedb29d8a4ba46fc6b"
                },
                {
                    "hash" : "0x51210338343cff8cde0965b9e4ca7aa99e33ba04ea9066feccb9653a3f0ea502",
                    "indexes" : {
                        "data" : 1,
                        "gas" : 0,
                        "value" : 0
                    },
                    "logs" : "0x1dcc4de8dec75d7aab85b567b6ccd41ad312451b948a7413f0a142fd40d49347",
                    "txbytes" : "0xf880800a832dc6c094100000000000000000000000000000000000000080a000000000000000000000000020000000000000000000000000000000000000021ca0d711e22793205d8b89f4a706d07d0fd437c12001a1f2a5b30dd59f754f8c961ea025d66d80be524b677f3e50132ae1d184de2243318c322905f7275ac02a3f1751"
                }
            ],
            "Cancun" : [
                {
                    "hash" : "0x371cd687abec55b4eac32f1926d26c4e6b279725a9867e8f828ca3f8ec1b2ecb",
                    "indexes" : {
                        "data" : 0,
                        "gas" : 0,
                        "value" : 0
                    },
                    "logs" : "0x1dcc4de8dec75d7aab85b567b6ccd41ad312451b948a7413f0a142fd40d49347",
                    "txbytes" : "0xf880800a832dc6c094100000000000000000000000000000000000000080a000000000000000000000000010000000000000000000000000000000000000021ba01221c732357bf312e2649873e575d7ccc6e289ab8b3450ee89ced463f6ff61c6a07b6b1a1cc234436c35668ccfbd94c1a6f29ad73576192caedb29d8a4ba46fc6b"
                },
                {
                    "hash" : "0xdf4daaf0b397fba7091f16700b34e2750869567e0c2ab1e493c2a09124d0faa1",
                    "indexes" : {
                        "data" : 1,
                        "gas" : 0,
                        "value" : 0
                    },
                    "logs" : "0x1dcc4de8dec75d7aab85b567b6ccd41ad312451b948a7413f0a142fd40d49347",
                    "txbytes" : "0xf880800a832dc6c094100000000000000000000000000000000000000080a000000000000000000000000020000000000000000000000000000000000000021ca0d711e22793205d8b89f4a706d07d0fd437c12001a1f2a5b30dd59f754f8c961ea025d66d80be524b677f3e50132ae1d184de2243318c322905f7275ac02a3f1751"
                }
            ],
            "Istanbul" : [
                {
                    "hash" : "0x9e66f4633d8c992aef5b130b0b32e1ac33d034532badbd9246559f2a8b064449",
                    "indexes" : {
                        "data" : 0,
                        "gas" : 0,
                        "value" : 0
                    },
                    "logs" : "0x1dcc4de8dec75d7aab85b567b6ccd41ad312451b948a7413f0a142fd40d49347",
                    "txbytes" : "0xf880800a832dc6c094100000000000000000000000000000000000000080a000000000000000000000000010000000000000000000000000000000000000021ba01221c732357bf312e2649873e575d7ccc6e289ab8b3450ee89ced463f6ff61c6a07b6b1a1cc234436c35668ccfbd94c1a6f29ad73576192caedb29d8a4ba46fc6b"
                },
                {
                    "hash" : "0x1f83339a3363ce30080dac37d94c9f8e21d9ca2a639c7ce9a6ac27d38fd80a26",
                    "indexes" : {
                        "data" : 1,
                        "gas" : 0,
                        "value" : 0
                    },
                    "logs" : "0x1dcc4de8dec75d7aab85b567b6ccd41ad312451b948a7413f0a142fd40d49347",
                    "txbytes" : "0xf880800a832dc6c094100000000000000000000000000000000000000080a000000000000000000000000020000000000000000000000000000000000000021ca0d711e22793205d8b89f4a706d07d0fd437c12001a1f2a5b30dd59f754f8c961ea025d66d80be524b677f3e50132ae1d184de2243318c322905f7275ac02a3f1751"
                }
            ],
            "London" : [
                {
                    "hash" : "0x99799b26cd89e41b0470d7783337190c2b979fed89497ccc68d99ef3c6769669",
                    "indexes" : {
                        "data" : 0,
                        "gas" : 0,
                        "value" : 0
                    },
                    "logs" : "0x1dcc4de8dec75d7aab85b567b6ccd41ad312451b948a7413f0a142fd40d49347",
                    "txbytes" : "0xf880800a832dc6c094100000000000000000000000000000000000000080a000000000000000000000000010000000000000000000000000000000000000021ba01221c732357bf312e2649873e575d7ccc6e289ab8b3450ee89ced463f6ff61c6a07b6b1a1cc234436c35668ccfbd94c1a6f29ad73576192caedb29d8a4ba46fc6b"
                },
                {
                    "hash" : "0x2f6b4c9704509c8bf295a9d67fb7246f16bbf99a21785697ce5cfc7d08750aa7",
                    "indexes" : {
                        "data" : 1,
                        "gas" : 0,
                        "value" : 0
                    },
                    "logs" : "0x1dcc4de8dec75d7aab85b567b6ccd41ad312451b948a7413f0a142fd40d49347",
                    "txbytes" : "0xf880800a832dc6c094100000000000000000000000000000000000000080a000000000000000000000000020000000000000000000000000000000000000021ca0d711e22793205d8b89f4a706d07d0fd437c12001a1f2a5b30dd59f754f8c961ea025d66d80be524b677f3e50132ae1d184de2243318c322905f7275ac02a3f1751"
                }
            ],
            "Paris" : [
                {
                    "hash" : "0x99799b26cd89e41b0470d7783337190c2b979fed89497ccc68d99ef3c6769669",
                    "indexes" : {
                        "data" : 0,
                        "gas" : 0,
                        "value" : 0
                    },
                    "logs" : "0x1dcc4de8dec75d7aab85b567b6ccd41ad312451b948a7413f0a142fd40d49347",
                    "txbytes" : "0xf880800a832dc6c094100000000000000000000000000000000000000080a000000000000000000000000010000000000000000000000000000000000000021ba01221c732357bf312e2649873e575d7ccc6e289ab8b3450ee89ced463f6ff61c6a07b6b1a1cc234436c35668ccfbd94c1a6f29ad73576192caedb29d8a4ba46fc6b"
                },
                {
                    "hash" : "0x2f6b4c9704509c8bf295a9d67fb7246f16bbf99a21785697ce5cfc7d08750aa7",
                    "indexes" : {
                        "data" : 1,
                        "gas" : 0,
                        "value" : 0
                    },
                    "logs" : "0x1dcc4de8dec75d7aab85b567b6ccd41ad312451b948a7413f0a142fd40d49347",
                    "txbytes" : "0xf880800a832dc6c094100000000000000000000000000000000000000080a000000000000000000000000020000000000000000000000000000000000000021ca0d711e22793205d8b89f4a706d07d0fd437c12001a1f2a5b30dd59f754f8c961ea025d66d80be524b677f3e50132ae1d184de2243318c322905f7275ac02a3f1751"
                }
            ],
            "Shanghai" : [
                {
                    "hash" : "0x99799b26cd89e41b0470d7783337190c2b979fed89497ccc68d99ef3c6769669",
                    "indexes" : {
                        "data" : 0,
                        "gas" : 0,
                        "value" : 0
                    },
                    "logs" : "0x1dcc4de8dec75d7aab85b567b6ccd41ad312451b948a7413f0a142fd40d49347",
                    "txbytes" : "0xf880800a832dc6c094100000000000000000000000000000000000000080a000000000000000000000000010000000000000000000000000000000000000021ba01221c732357bf312e2649873e575d7ccc6e289ab8b3450ee89ced463f6ff61c6a07b6b1a1cc234436c35668ccfbd94c1a6f29ad73576192caedb29d8a4ba46fc6b"
                },
                {
                    "hash" : "0x2f6b4c9704509c8bf295a9d67fb7246f16bbf99a21785697ce5cfc7d08750aa7",
                    "indexes" : {
                        "data" : 1,
                        "gas" : 0,
                        "value" : 0
                    },
                    "logs" : "0x1dcc4de8dec75d7aab85b567b6ccd41ad312451b948a7413f0a142fd40d49347",
                    "txbytes" : "0xf880800a832dc6c094100000000000000000000000000000000000000080a000000000000000000000000020000000000000000000000000000000000000021ca0d711e22793205d8b89f4a706d07d0fd437c12001a1f2a5b30dd59f754f8c961ea025d66d80be524b677f3e50132ae1d184de2243318c322905f7275ac02a3f1751"
                }
            ]
        },
        "pre" : {
            "0x000f3df6d732807ef1319fb7b8bb8522d0beac02" : {
                "balance" : "0x00",
                "code" : "0x3373fffffffffffffffffffffffffffffffffffffffe14604d57602036146024575f5ffd5b5f35801560495762001fff810690815414603c575f5ffd5b62001fff01545f5260205ff35b5f5ffd5b62001fff42064281555f359062001fff015500",
                "nonce" : "0x01",
                "storage" : {
                }
            },
            "0x1000000000000000000000000000000000000000" : {
                "balance" : "0x0de0b6b3a7640000",
                "code" : "0x600035600052604060006040600073100000000000000000000000000000000000000162055730fa600055600160015500",
                "nonce" : "0x00",
                "storage" : {
                }
            },
            "0x1000000000000000000000000000000000000001" : {
                "balance" : "0x0de0b6b3a7640000",
                "code" : "0x60406000604060006000600035620493e0f200",
                "nonce" : "0x00",
                "storage" : {
                }
            },
            "0x1000000000000000000000000000000000000002" : {
                "balance" : "0x0de0b6b3a7640000",
                "code" : "0x604060006040600060007310000000000000000000000000000000000000036203d090f200",
                "nonce" : "0x00",
                "storage" : {
                }
            },
            "0x1000000000000000000000000000000000000003" : {
                "balance" : "0x00",
                "code" : "0x600160015200",
                "nonce" : "0x00",
                "storage" : {
                }
            },
            "0x2000000000000000000000000000000000000002" : {
                "balance" : "0x0de0b6b3a7640000",
                "code" : "0x604060006040600060017310000000000000000000000000000000000000036203d090f200",
                "nonce" : "0x00",
                "storage" : {
                }
            },
            "0xa94f5374fce5edbc8e2a8697c15331677e6ebf0b" : {
                "balance" : "0x0de0b6b3a7640000",
                "code" : "0x",
                "nonce" : "0x00",
                "storage" : {
                }
            }
        },
        "transaction" : {
            "data" : [
                "0x0000000000000000000000001000000000000000000000000000000000000002",
                "0x0000000000000000000000002000000000000000000000000000000000000002"
            ],
            "gasLimit" : [
                "0x2dc6c0"
            ],
            "gasPrice" : "0x0a",
            "nonce" : "0x00",
            "secretKey" : "0x45a915e4d060149eb4365960e6a7a45f334393093061116b197e3240065ff2d8",
            "sender" : "0xa94f5374fce5edbc8e2a8697c15331677e6ebf0b",
            "to" : "0x1000000000000000000000000000000000000000",
            "value" : [
                "0x00"
            ]
        }
    }
}