{
    "static_callcodecallcallcode_101_2" : {
        "_info" : {
            "comment" : "",
            "filling-rpc-server" : "evm version 1.10.2-unstable-22082f9e-20210309",
            "filling-tool-version" : "retesteth-0.1.0-accesslist+commit.47c69eb3.Linux.g++",
            "lllcversion" : "Version: 0.5.14-develop.2020.6.22+commit.9189ad7a.Linux.g++",
            "source" : "src/GeneralStateTestsFiller/stStaticCall/static_callcodecallcallcode_101_2Filler.json",
            "sourceHash" : "65bcef0b874d180c0acb6404bc023ba4b13d7bb0b532e51f0ff6d050154539f2"
        },
        "env" : {
            "currentCoinbase" : "0x2adc25665018aa1fe0e6bc666dac8fc2697ff9ba",
            "currentDifficulty" : "0x020000",
            "currentGasLimit" : "0x01c9c380",
            "currentNumber" : "0x01",
            "currentTimestamp" : "0x03e8",
            "previousHash" : "0x5e20a0453cecd065ea59c37ac63e079ee08998b6045136a8ce6635c7912ec0b6"
        },
        "post" : {
            "Berlin" : [
                {
                    "indexes" : {
                        "data" : 0,
                        "gas" : 0,
                        "value" : 0
                    },
                    "hash" : "0x1ff4af02ff802b0e7251a658b4e027418c13db685ca2a46a13feb4de2af3a4c8",
                    "txbytes" : "0xf8808001832dc6c094100000000000000000000000000000000000000080a000000000000000000000000010000000000000000000000000000000000000021ca0c17a8d22447e420e5b7229f56bf8427a18479c8c199a35452891a50c089d5f09a07396ac9808ea2c6e83c0b5ad98dc1bbc0ec6fe249fcbc8aa819ef33b17279b2c",
                    "logs" : "0x1dcc4de8dec75d7aab85b567b6ccd41ad312451b948a7413f0a142fd40d49347"
                },
                {
                    "indexes" : {
                        "data" : 1,
                        "gas" : 0,
                        "value" : 0
                    },
                    "hash" : "0xd80fbca89aa844fd0ab582774e5de6798e46c645c3af132d4a8912774bcc7d6c",
                    "txbytes" : "0xf8808001832dc6c094100000000000000000000000000000000000000080a000000000000000000000000020000000000000000000000000000000000000021ba01bfe9fe4f47474802c1303e6a75cb9483c0ce3ca46054d913b64ef6fa81bd570a02197a24a0e432a39b90ea8512757aade68beaf158777c98ff6d4fb55eea21107",
                    "logs" : "0x1dcc4de8dec75d7aab85b567b6ccd41ad312451b948a7413f0a142fd40d49347"
                }
            ],
            "Istanbul" : [
                {
                    "indexes" : {
                        "data" : 0,
                        "gas" : 0,
                        "value" : 0
                    },
                    "hash" : "0xb007e7531c62eec814d8372661d5a8b553053d5eea22641ca2e26aa027eb8cca",
                    "txbytes" : "0xf8808001832dc6c094100000000000000000000000000000000000000080a000000000000000000000000010000000000000000000000000000000000000021ca0c17a8d22447e420e5b7229f56bf8427a18479c8c199a35452891a50c089d5f09a07396ac9808ea2c6e83c0b5ad98dc1bbc0ec6fe249fcbc8aa819ef33b17279b2c",
                    "logs" : "0x1dcc4de8dec75d7aab85b567b6ccd41ad312451b948a7413f0a142fd40d49347"
                },
                {
                    "indexes" : {
                        "data" : 1,
                        "gas" : 0,
                        "value" : 0
                    },
                    "hash" : "0x7ce7507ae894fb5c05b5feafbfb0e8574c7646f37684acf507d4c32dcdd8849a",
                    "txbytes" : "0xf8808001832dc6c094100000000000000000000000000000000000000080a000000000000000000000000020000000000000000000000000000000000000021ba01bfe9fe4f47474802c1303e6a75cb9483c0ce3ca46054d913b64ef6fa81bd570a02197a24a0e432a39b90ea8512757aade68beaf158777c98ff6d4fb55eea21107",
                    "logs" : "0x1dcc4de8dec75d7aab85b567b6ccd41ad312451b948a7413f0a142fd40d49347"
                }
            ]
        },
        "pre" : {
            "0x1000000000000000000000000000000000000000" : {
                "balance" : "0x0de0b6b3a7640000",
                "code" : "0x60003560005260406000604060003473100000000000000000000000000000000000000162055730f2600055600160015500",
                "nonce" : "0x00",
                "storage" : {
                }
            },
            "0x1000000000000000000000000000000000000001" : {
                "balance" : "0x0de0b6b3a7640000",
                "code" : "0x6040600060406000600035620493e0fa00",
                "nonce" : "0x00",
                "storage" : {
                }
            },
            "0x1000000000000000000000000000000000000002" : {
                "balance" : "0x0de0b6b3a7640000",
                "code" : "0x604060006040600060007310000000000000000000000000000000000000036203d090f200",
                "nonce" : "0x00",
                "storage" : {
                }
            },
            "0x1000000000000000000000000000000000000003" : {
                "balance" : "0x00",
                "code" : "0x600160015200",
                "nonce" : "0x00",
                "storage" : {
                }
            },
            "0x2000000000000000000000000000000000000002" : {
                "balance" : "0x0de0b6b3a7640000",
                "code" : "0x604060006040600060017310000000000000000000000000000000000000036203d090f200",
                "nonce" : "0x00",
                "storage" : {
                }
            },
            "0xa94f5374fce5edbc8e2a8697c15331677e6ebf0b" : {
                "balance" : "0x0de0b6b3a7640000",
                "code" : "0x",
                "nonce" : "0x00",
                "storage" : {
                }
            }
        },
        "transaction" : {
            "data" : [
                "0x0000000000000000000000001000000000000000000000000000000000000002",
                "0x0000000000000000000000002000000000000000000000000000000000000002"
            ],
            "gasLimit" : [
                "0x2dc6c0"
            ],
            "gasPrice" : "0x01",
            "nonce" : "0x00",
            "secretKey" : "0x45a915e4d060149eb4365960e6a7a45f334393093061116b197e3240065ff2d8",
            "to" : "0x1000000000000000000000000000000000000000",
            "value" : [
                "0x00"
            ]
        }
    }
}