{
    "static_callcallcallcode_001_OOGMAfter" : {
        "_info" : {
            "comment" : "",
            "filling-rpc-server" : "evm version 1.10.2-unstable-22082f9e-20210309",
            "filling-tool-version" : "retesteth-0.1.0-accesslist+commit.47c69eb3.Linux.g++",
            "lllcversion" : "Version: 0.5.14-develop.2020.6.22+commit.9189ad7a.Linux.g++",
            "source" : "src/GeneralStateTestsFiller/stStaticCall/static_callcallcallcode_001_OOGMAfterFiller.json",
            "sourceHash" : "44f4cccfd79be12ac4c5aa3b7faa56abc70e50d6451903c39b3d7ab9dfc68515"
        },
        "env" : {
            "currentCoinbase" : "0x2adc25665018aa1fe0e6bc666dac8fc2697ff9ba",
            "currentDifficulty" : "0x020000",
            "currentGasLimit" : "0x01c9c380",
            "currentNumber" : "0x01",
            "currentTimestamp" : "0x03e8",
            "previousHash" : "0x5e20a0453cecd065ea59c37ac63e079ee08998b6045136a8ce6635c7912ec0b6"
        },
        "post" : {
            "Berlin" : [
                {
                    "indexes" : {
                        "data" : 0,
                        "gas" : 0,
                        "value" : 0
                    },
                    "hash" : "0x25a7b1e1723b1a7ea88f66f241d9274fb86e1ca5c7b96662e8a61c2967fc767d",
                    "txbytes" : "0xf8808001831a3ec094100000000000000000000000000000000000000080a000000000000000000000000010000000000000000000000000000000000000011ca0465833dc45e2691ca7ff2aa2b893912b0d8ded2a28ac87c5631b754f63f99ab4a03c3442fbfa008eebaa98d8a0158822609df7f7c38a2681c7d75dbb899e688512",
                    "logs" : "0x1dcc4de8dec75d7aab85b567b6ccd41ad312451b948a7413f0a142fd40d49347"
                },
                {
                    "indexes" : {
                        "data" : 1,
                        "gas" : 0,
                        "value" : 0
                    },
                    "hash" : "0x25a7b1e1723b1a7ea88f66f241d9274fb86e1ca5c7b96662e8a61c2967fc767d",
                    "txbytes" : "0xf8808001831a3ec094100000000000000000000000000000000000000080a000000000000000000000000020000000000000000000000000000000000000011ba0fe2fa47158e3a8af7c30c5c40544a649e068b4a7ca8db9ef48cfe5add9d703a1a0071af85812ec65bbcadddfcb3717723b379991cd44f493eda07c3131f139eeac",
                    "logs" : "0x1dcc4de8dec75d7aab85b567b6ccd41ad312451b948a7413f0a142fd40d49347"
                }
            ],
            "Istanbul" : [
                {
                    "indexes" : {
                        "data" : 0,
                        "gas" : 0,
                        "value" : 0
                    },
                    "hash" : "0x139166308809b6559198ae05d126403e9a10df9c304244a2764b6a7fb338e5b7",
                    "txbytes" : "0xf8808001831a3ec094100000000000000000000000000000000000000080a000000000000000000000000010000000000000000000000000000000000000011ca0465833dc45e2691ca7ff2aa2b893912b0d8ded2a28ac87c5631b754f63f99ab4a03c3442fbfa008eebaa98d8a0158822609df7f7c38a2681c7d75dbb899e688512",
                    "logs" : "0x1dcc4de8dec75d7aab85b567b6ccd41ad312451b948a7413f0a142fd40d49347"
                },
                {
                    "indexes" : {
                        "data" : 1,
                        "gas" : 0,
                        "value" : 0
                    },
                    "hash" : "0x139166308809b6559198ae05d126403e9a10df9c304244a2764b6a7fb338e5b7",
                    "txbytes" : "0xf8808001831a3ec094100000000000000000000000000000000000000080a000000000000000000000000020000000000000000000000000000000000000011ba0fe2fa47158e3a8af7c30c5c40544a649e068b4a7ca8db9ef48cfe5add9d703a1a0071af85812ec65bbcadddfcb3717723b379991cd44f493eda07c3131f139eeac",
                    "logs" : "0x1dcc4de8dec75d7aab85b567b6ccd41ad312451b948a7413f0a142fd40d49347"
                }
            ]
        },
        "pre" : {
            "0x1000000000000000000000000000000000000000" : {
                "balance" : "0x0de0b6b3a7640000",
                "code" : "0x604060006040600060003562092856fa600055600160015500",
                "nonce" : "0x00",
                "storage" : {
                }
            },
            "0x1000000000000000000000000000000000000001" : {
                "balance" : "0x00",
                "code" : "0x6001600352604060006040600073100000000000000000000000000000000000000262061ad5fa50600160035500",
                "nonce" : "0x00",
                "storage" : {
                }
            },
            "0x1000000000000000000000000000000000000002" : {
                "balance" : "0x00",
                "code" : "0x600160035260406000604060007310000000000000000000000000000000000000036201d4d4f450600160205200",
                "nonce" : "0x00",
                "storage" : {
                }
            },
            "0x1000000000000000000000000000000000000003" : {
                "balance" : "0x00",
                "code" : "0x600160035200",
                "nonce" : "0x00",
                "storage" : {
                }
            },
            "0x2000000000000000000000000000000000000001" : {
                "balance" : "0x00",
                "code" : "0x6001600352604060006040600073100000000000000000000000000000000000000262061ad5fa505b61c350608051101560445760013b506001608051016080526028565b00",
                "nonce" : "0x00",
                "storage" : {
                }
            },
            "0xa94f5374fce5edbc8e2a8697c15331677e6ebf0b" : {
                "balance" : "0x0de0b6b3a7640000",
                "code" : "0x",
                "nonce" : "0x00",
                "storage" : {
                }
            }
        },
        "transaction" : {
            "data" : [
                "0x0000000000000000000000001000000000000000000000000000000000000001",
                "0x0000000000000000000000002000000000000000000000000000000000000001"
            ],
            "gasLimit" : [
                "0x1a3ec0"
            ],
            "gasPrice" : "0x01",
            "nonce" : "0x00",
            "secretKey" : "0x45a915e4d060149eb4365960e6a7a45f334393093061116b197e3240065ff2d8",
            "to" : "0x1000000000000000000000000000000000000000",
            "value" : [
                "0x00"
            ]
        }
    }
}