{
    "static_callcallcode_01_2" : {
        "_info" : {
            "comment" : "",
            "filling-rpc-server" : "evm version 1.10.2-unstable-22082f9e-20210309",
            "filling-tool-version" : "retesteth-0.1.0-accesslist+commit.47c69eb3.Linux.g++",
            "lllcversion" : "Version: 0.5.14-develop.2020.6.22+commit.9189ad7a.Linux.g++",
            "source" : "src/GeneralStateTestsFiller/stStaticCall/static_callcallcode_01_2Filler.json",
            "sourceHash" : "d15e8a6779993c4f4bef9e705b1651396fb8f0a70b2d8da194e6f8d2c0e18679"
        },
        "env" : {
            "currentCoinbase" : "0x2adc25665018aa1fe0e6bc666dac8fc2697ff9ba",
            "currentDifficulty" : "0x020000",
            "currentGasLimit" : "0x01c9c380",
            "currentNumber" : "0x01",
            "currentTimestamp" : "0x03e8",
            "previousHash" : "0x5e20a0453cecd065ea59c37ac63e079ee08998b6045136a8ce6635c7912ec0b6"
        },
        "post" : {
            "Berlin" : [
                {
                    "indexes" : {
                        "data" : 0,
                        "gas" : 0,
                        "value" : 0
                    },
                    "hash" : "0xd4c255eac00ee417b8a0256b8c31d8e8d6d07402f4c307a1a6be88fe0e52d6b1",
                    "txbytes" : "0xf8808001832dc6c094a00000000000000000000000000000000000000080a000000000000000000000000010000000000000000000000000000000000000001ba071980a71a0a0ec09838abc3ecf30674e8fc79cc304dff5951d1115c7b99b38fba0423eb50c6d5953343658f568a8c9329b8ec411dca33b102b861e509dd5a7a9b7",
                    "logs" : "0x1dcc4de8dec75d7aab85b567b6ccd41ad312451b948a7413f0a142fd40d49347"
                },
                {
                    "indexes" : {
                        "data" : 1,
                        "gas" : 0,
                        "value" : 0
                    },
                    "hash" : "0x844249ca88b7daf105ed8c0ef1c35941f962a5625f27b688ed28eef0f7500e60",
                    "txbytes" : "0xf8808001832dc6c094a00000000000000000000000000000000000000080a000000000000000000000000020000000000000000000000000000000000000001ba07ce4dbbc85a70e2b3b6520ddde3c4245a701bbb6daf4c4ac1f027f38245ac24da0153f855ca271494e4b7cee8c1efe70541f43575a08760c2eb0b50125d1752a7c",
                    "logs" : "0x1dcc4de8dec75d7aab85b567b6ccd41ad312451b948a7413f0a142fd40d49347"
                }
            ],
            "Istanbul" : [
                {
                    "indexes" : {
                        "data" : 0,
                        "gas" : 0,
                        "value" : 0
                    },
                    "hash" : "0x785c1400ad5eb8a785812e874b3f58d476681c6cb1b76d79c460a1286ed7f628",
                    "txbytes" : "0xf8808001832dc6c094a00000000000000000000000000000000000000080a000000000000000000000000010000000000000000000000000000000000000001ba071980a71a0a0ec09838abc3ecf30674e8fc79cc304dff5951d1115c7b99b38fba0423eb50c6d5953343658f568a8c9329b8ec411dca33b102b861e509dd5a7a9b7",
                    "logs" : "0x1dcc4de8dec75d7aab85b567b6ccd41ad312451b948a7413f0a142fd40d49347"
                },
                {
                    "indexes" : {
                        "data" : 1,
                        "gas" : 0,
                        "value" : 0
                    },
                    "hash" : "0xdb3653243578e6b07af91995c8a9a8e4b314a65f01e875495ca3d6b4f532230a",
                    "txbytes" : "0xf8808001832dc6c094a00000000000000000000000000000000000000080a000000000000000000000000020000000000000000000000000000000000000001ba07ce4dbbc85a70e2b3b6520ddde3c4245a701bbb6daf4c4ac1f027f38245ac24da0153f855ca271494e4b7cee8c1efe70541f43575a08760c2eb0b50125d1752a7c",
                    "logs" : "0x1dcc4de8dec75d7aab85b567b6ccd41ad312451b948a7413f0a142fd40d49347"
                }
            ]
        },
        "pre" : {
            "0x1000000000000000000000000000000000000000" : {
                "balance" : "0x0de0b6b3a7640000",
                "code" : "0x604060006020600073100000000000000000000000000000000000000162055730fa00",
                "nonce" : "0x00",
                "storage" : {
                }
            },
            "0x1000000000000000000000000000000000000001" : {
                "balance" : "0x0de0b6b3a7640000",
                "code" : "0x604060006020600060027310000000000000000000000000000000000000026203d090f200",
                "nonce" : "0x00",
                "storage" : {
                }
            },
            "0x1000000000000000000000000000000000000002" : {
                "balance" : "0x00",
                "code" : "0x631122334460005200",
                "nonce" : "0x00",
                "storage" : {
                }
            },
            "0x2000000000000000000000000000000000000000" : {
                "balance" : "0x0de0b6b3a7640000",
                "code" : "0x604060006020600073200000000000000000000000000000000000000162055730fa00",
                "nonce" : "0x00",
                "storage" : {
                }
            },
            "0x2000000000000000000000000000000000000001" : {
                "balance" : "0x0de0b6b3a7640000",
                "code" : "0x600035600052604060006020600060007320000000000000000000000000000000000000026203d090f200",
                "nonce" : "0x00",
                "storage" : {
                }
            },
            "0x2000000000000000000000000000000000000002" : {
                "balance" : "0x00",
                "code" : "0x631122334460005200",
                "nonce" : "0x00",
                "storage" : {
                }
            },
            "0xa000000000000000000000000000000000000000" : {
                "balance" : "0x0de0b6b3a7640000",
                "code" : "0x600060006000600060006000355af2600055600160015500",
                "nonce" : "0x00",
                "storage" : {
                }
            },
            "0xa94f5374fce5edbc8e2a8697c15331677e6ebf0b" : {
                "balance" : "0x0de0b6b3a7640000",
                "code" : "0x",
                "nonce" : "0x00",
                "storage" : {
                }
            }
        },
        "transaction" : {
            "data" : [
                "0x0000000000000000000000001000000000000000000000000000000000000000",
                "0x0000000000000000000000002000000000000000000000000000000000000000"
            ],
            "gasLimit" : [
                "0x2dc6c0"
            ],
            "gasPrice" : "0x01",
            "nonce" : "0x00",
            "secretKey" : "0x45a915e4d060149eb4365960e6a7a45f334393093061116b197e3240065ff2d8",
            "to" : "0xa000000000000000000000000000000000000000",
            "value" : [
                "0x00"
            ]
        }
    }
}