{
    "static_ReturnTest2" : {
        "_info" : {
            "comment" : "",
            "filling-rpc-server" : "evm version 1.13.13-unstable-034bc466-20240219",
            "filling-tool-version" : "retesteth-0.3.2-cancun+commit.014a68a5.Linux.g++",
            "generatedTestHash" : "e0b066e9bda2d427e7232a78e59d0153a6fac478cdbf3dfb1187a1711a44031f",
            "lllcversion" : "Version: 0.5.14-develop.2023.7.11+commit.c58ab2c6.mod.Linux.g++",
            "solidity" : "Version: 0.8.21+commit.d9974bed.Linux.g++",
            "source" : "src/GeneralStateTestsFiller/stStaticCall/static_ReturnTest2Filler.json",
            "sourceHash" : "864338ed205b4e5273cd0db85eb544408e60418d14493d9fa272928a59c9d8d0"
        },
        "env" : {
            "currentBaseFee" : "0x0a",
            "currentCoinbase" : "0x2adc25665018aa1fe0e6bc666dac8fc2697ff9ba",
            "currentDifficulty" : "0x020000",
            "currentExcessBlobGas" : "0x00",
            "currentGasLimit" : "0x3b9aca00",
            "currentNumber" : "0x01",
            "currentRandom" : "0x0000000000000000000000000000000000000000000000000000000000020000",
            "currentTimestamp" : "0x03e8"
        },
        "post" : {
            "Berlin" : [
                {
                    "hash" : "0xeb7f0607a8af3e9cee4ee05a107151a2e20279cb85dd8821520a81082b920898",
                    "indexes" : {
                        "data" : 0,
                        "gas" : 0,
                        "value" : 0
                    },
                    "logs" : "0x1dcc4de8dec75d7aab85b567b6ccd41ad312451b948a7413f0a142fd40d49347",
                    "txbytes" : "0xf860800a8303d09094194f5374fce5edbc8e2a8697c15331677e6ebf0b80801ba08e1ac11b121ba404894bf7b1d776e2a1431189c5a19d746bd814de525f895c58a054f2e32e9d1762876987d939df070e73310a01edceefc9139f74f3db3699e371"
                }
            ],
            "Cancun" : [
                {
                    "hash" : "0x62831d167c8085ca67eed85688d2a55092d5e7589306a17c510e451e1f6c8bce",
                    "indexes" : {
                        "data" : 0,
                        "gas" : 0,
                        "value" : 0
                    },
                    "logs" : "0x1dcc4de8dec75d7aab85b567b6ccd41ad312451b948a7413f0a142fd40d49347",
                    "txbytes" : "0xf860800a8303d09094194f5374fce5edbc8e2a8697c15331677e6ebf0b80801ba08e1ac11b121ba404894bf7b1d776e2a1431189c5a19d746bd814de525f895c58a054f2e32e9d1762876987d939df070e73310a01edceefc9139f74f3db3699e371"
                }
            ],
            "Istanbul" : [
                {
                    "hash" : "0xb259e172a46ca5e052333606b54a8f408297ed00c7066f2b0a0101dc977597cc",
                    "indexes" : {
                        "data" : 0,
                        "gas" : 0,
                        "value" : 0
                    },
                    "logs" : "0x1dcc4de8dec75d7aab85b567b6ccd41ad312451b948a7413f0a142fd40d49347",
                    "txbytes" : "0xf860800a8303d09094194f5374fce5edbc8e2a8697c15331677e6ebf0b80801ba08e1ac11b121ba404894bf7b1d776e2a1431189c5a19d746bd814de525f895c58a054f2e32e9d1762876987d939df070e73310a01edceefc9139f74f3db3699e371"
                }
            ],
            "London" : [
                {
                    "hash" : "0x26bfb96914cdec4731e3b554b622964d21a6f1d624201aaa5fb84de60ec13a75",
                    "indexes" : {
                        "data" : 0,
                        "gas" : 0,
                        "value" : 0
                    },
                    "logs" : "0x1dcc4de8dec75d7aab85b567b6ccd41ad312451b948a7413f0a142fd40d49347",
                    "txbytes" : "0xf860800a8303d09094194f5374fce5edbc8e2a8697c15331677e6ebf0b80801ba08e1ac11b121ba404894bf7b1d776e2a1431189c5a19d746bd814de525f895c58a054f2e32e9d1762876987d939df070e73310a01edceefc9139f74f3db3699e371"
                }
            ],
            "Paris" : [
                {
                    "hash" : "0x26bfb96914cdec4731e3b554b622964d21a6f1d624201aaa5fb84de60ec13a75",
                    "indexes" : {
                        "data" : 0,
                        "gas" : 0,
                        "value" : 0
                    },
                    "logs" : "0x1dcc4de8dec75d7aab85b567b6ccd41ad312451b948a7413f0a142fd40d49347",
                    "txbytes" : "0xf860800a8303d09094194f5374fce5edbc8e2a8697c15331677e6ebf0b80801ba08e1ac11b121ba404894bf7b1d776e2a1431189c5a19d746bd814de525f895c58a054f2e32e9d1762876987d939df070e73310a01edceefc9139f74f3db3699e371"
                }
            ],
            "Shanghai" : [
                {
                    "hash" : "0x26bfb96914cdec4731e3b554b622964d21a6f1d624201aaa5fb84de60ec13a75",
                    "indexes" : {
                        "data" : 0,
                        "gas" : 0,
                        "value" : 0
                    },
                    "logs" : "0x1dcc4de8dec75d7aab85b567b6ccd41ad312451b948a7413f0a142fd40d49347",
                    "txbytes" : "0xf860800a8303d09094194f5374fce5edbc8e2a8697c15331677e6ebf0b80801ba08e1ac11b121ba404894bf7b1d776e2a1431189c5a19d746bd814de525f895c58a054f2e32e9d1762876987d939df070e73310a01edceefc9139f74f3db3699e371"
                }
            ]
        },
        "pre" : {
            "0x000f3df6d732807ef1319fb7b8bb8522d0beac02" : {
                "balance" : "0x00",
                "code" : "0x3373fffffffffffffffffffffffffffffffffffffffe14604d57602036146024575f5ffd5b5f35801560495762001fff810690815414603c575f5ffd5b62001fff01545f5260205ff35b5f5ffd5b62001fff42064281555f359062001fff015500",
                "nonce" : "0x01",
                "storage" : {
                }
            },
            "0x194f5374fce5edbc8e2a8697c15331677e6ebf0b" : {
                "balance" : "0x00",
                "code" : "0x6015600052602060206020600073b94f5374fce5edbc8e2a8697c15331677e6ebf0b611b58fa5060005160005560205160015560406000f300",
                "nonce" : "0x00",
                "storage" : {
                }
            },
            "0xa94f5374fce5edbc8e2a8697c15331677e6ebf0b" : {
                "balance" : "0x05f5e100",
                "code" : "0x",
                "nonce" : "0x00",
                "storage" : {
                }
            },
            "0xb94f5374fce5edbc8e2a8697c15331677e6ebf0b" : {
                "balance" : "0x0186a0",
                "code" : "0x60003560030260005260206000f300",
                "nonce" : "0x00",
                "storage" : {
                }
            }
        },
        "transaction" : {
            "data" : [
                "0x"
            ],
            "gasLimit" : [
                "0x03d090"
            ],
            "gasPrice" : "0x0a",
            "nonce" : "0x00",
            "secretKey" : "0x45a915e4d060149eb4365960e6a7a45f334393093061116b197e3240065ff2d8",
            "sender" : "0xa94f5374fce5edbc8e2a8697c15331677e6ebf0b",
            "to" : "0x194f5374fce5edbc8e2a8697c15331677e6ebf0b",
            "value" : [
                "0x00"
            ]
        }
    }
}