{
    "static_log0_nonEmptyMem_logMemSize1" : {
        "_info" : {
            "comment" : "",
            "filling-rpc-server" : "evm version 1.13.13-unstable-034bc466-20240219",
            "filling-tool-version" : "retesteth-0.3.2-cancun+commit.014a68a5.Linux.g++",
            "generatedTestHash" : "7a37bacfd928e28bed4108fdcfb565e6252faa91039b330af430121605822443",
            "lllcversion" : "Version: 0.5.14-develop.2023.7.11+commit.c58ab2c6.mod.Linux.g++",
            "solidity" : "Version: 0.8.21+commit.d9974bed.Linux.g++",
            "source" : "src/GeneralStateTestsFiller/stStaticCall/static_log0_nonEmptyMem_logMemSize1Filler.json",
            "sourceHash" : "9f5a431f7e56d5f7ada7a177b372fc91c2621060f17123919b472f74dc9c1cf3"
        },
        "env" : {
            "currentBaseFee" : "0x0a",
            "currentCoinbase" : "0x2adc25665018aa1fe0e6bc666dac8fc2697ff9ba",
            "currentDifficulty" : "0x020000",
            "currentExcessBlobGas" : "0x00",
            "currentGasLimit" : "0x0f4240",
            "currentNumber" : "0x01",
            "currentRandom" : "0x0000000000000000000000000000000000000000000000000000000000020000",
            "currentTimestamp" : "0x03e8"
        },
        "post" : {
            "Berlin" : [
                {
                    "hash" : "0x87e42a8f3ef6610238e7cb5a709a3b33b22a0b082de9765f42fc549fa0f15ff0",
                    "indexes" : {
                        "data" : 0,
                        "gas" : 0,
                        "value" : 0
                    },
                    "logs" : "0x1dcc4de8dec75d7aab85b567b6ccd41ad312451b948a7413f0a142fd40d49347",
                    "txbytes" : "0xf863800a8303345094095e7baea6a6c7c4c2dfeb977efac326af552d8783200b20801ba0e01bfeefc00e9c4b32ec6205a417b27a7b1d3b5e3a6b9bbc6f8060da9ed5a0f9a036a443ba06096ed1ea2445994322a363436f1e026ff19c83349cb656520656bf"
                }
            ],
            "Cancun" : [
                {
                    "hash" : "0xfe348afa6f2f1503ac8e7188a769afa754c3debd94184d118459622a657bad1e",
                    "indexes" : {
                        "data" : 0,
                        "gas" : 0,
                        "value" : 0
                    },
                    "logs" : "0x1dcc4de8dec75d7aab85b567b6ccd41ad312451b948a7413f0a142fd40d49347",
                    "txbytes" : "0xf863800a8303345094095e7baea6a6c7c4c2dfeb977efac326af552d8783200b20801ba0e01bfeefc00e9c4b32ec6205a417b27a7b1d3b5e3a6b9bbc6f8060da9ed5a0f9a036a443ba06096ed1ea2445994322a363436f1e026ff19c83349cb656520656bf"
                }
            ],
            "Istanbul" : [
                {
                    "hash" : "0xae2454703e2ce48b1f9094206ab3f6d2881a49011b29f65d00d98140bfece944",
                    "indexes" : {
                        "data" : 0,
                        "gas" : 0,
                        "value" : 0
                    },
                    "logs" : "0x1dcc4de8dec75d7aab85b567b6ccd41ad312451b948a7413f0a142fd40d49347",
                    "txbytes" : "0xf863800a8303345094095e7baea6a6c7c4c2dfeb977efac326af552d8783200b20801ba0e01bfeefc00e9c4b32ec6205a417b27a7b1d3b5e3a6b9bbc6f8060da9ed5a0f9a036a443ba06096ed1ea2445994322a363436f1e026ff19c83349cb656520656bf"
                }
            ],
            "London" : [
                {
                    "hash" : "0x137d978cb1c92a20df7f4aa4f7784bfad454a3fbfb89ca4627d2ce0bfabc0775",
                    "indexes" : {
                        "data" : 0,
                        "gas" : 0,
                        "value" : 0
                    },
                    "logs" : "0x1dcc4de8dec75d7aab85b567b6ccd41ad312451b948a7413f0a142fd40d49347",
                    "txbytes" : "0xf863800a8303345094095e7baea6a6c7c4c2dfeb977efac326af552d8783200b20801ba0e01bfeefc00e9c4b32ec6205a417b27a7b1d3b5e3a6b9bbc6f8060da9ed5a0f9a036a443ba06096ed1ea2445994322a363436f1e026ff19c83349cb656520656bf"
                }
            ],
            "Paris" : [
                {
                    "hash" : "0x137d978cb1c92a20df7f4aa4f7784bfad454a3fbfb89ca4627d2ce0bfabc0775",
                    "indexes" : {
                        "data" : 0,
                        "gas" : 0,
                        "value" : 0
                    },
                    "logs" : "0x1dcc4de8dec75d7aab85b567b6ccd41ad312451b948a7413f0a142fd40d49347",
                    "txbytes" : "0xf863800a8303345094095e7baea6a6c7c4c2dfeb977efac326af552d8783200b20801ba0e01bfeefc00e9c4b32ec6205a417b27a7b1d3b5e3a6b9bbc6f8060da9ed5a0f9a036a443ba06096ed1ea2445994322a363436f1e026ff19c83349cb656520656bf"
                }
            ],
            "Shanghai" : [
                {
                    "hash" : "0x137d978cb1c92a20df7f4aa4f7784bfad454a3fbfb89ca4627d2ce0bfabc0775",
                    "indexes" : {
                        "data" : 0,
                        "gas" : 0,
                        "value" : 0
                    },
                    "logs" : "0x1dcc4de8dec75d7aab85b567b6ccd41ad312451b948a7413f0a142fd40d49347",
                    "txbytes" : "0xf863800a8303345094095e7baea6a6c7c4c2dfeb977efac326af552d8783200b20801ba0e01bfeefc00e9c4b32ec6205a417b27a7b1d3b5e3a6b9bbc6f8060da9ed5a0f9a036a443ba06096ed1ea2445994322a363436f1e026ff19c83349cb656520656bf"
                }
            ]
        },
        "pre" : {
            "0x000f3df6d732807ef1319fb7b8bb8522d0beac02" : {
                "balance" : "0x00",
                "code" : "0x3373fffffffffffffffffffffffffffffffffffffffe14604d57602036146024575f5ffd5b5f35801560495762001fff810690815414603c575f5ffd5b62001fff01545f5260205ff35b5f5ffd5b62001fff42064281555f359062001fff015500",
                "nonce" : "0x01",
                "storage" : {
                }
            },
            "0x095e7baea6a6c7c4c2dfeb977efac326af552d87" : {
                "balance" : "0x0de0b6b3a7640000",
                "code" : "0x6000600060006000730f572e5295c57f15886f9b263e2f6d2d6c7b5ec66103e8fa60005500",
                "nonce" : "0x00",
                "storage" : {
                }
            },
            "0x0f572e5295c57f15886f9b263e2f6d2d6c7b5ec6" : {
                "balance" : "0x0de0b6b3a7640000",
                "code" : "0x7faabbffffffffffffffffffffffffffffffffffffffffffffffffffffffffccdd60005260016000a000",
                "nonce" : "0x00",
                "storage" : {
                }
            },
            "0xa94f5374fce5edbc8e2a8697c15331677e6ebf0b" : {
                "balance" : "0x0de0b6b3a7640000",
                "code" : "0x",
                "nonce" : "0x00",
                "storage" : {
                }
            }
        },
        "transaction" : {
            "data" : [
                "0x"
            ],
            "gasLimit" : [
                "0x033450"
            ],
            "gasPrice" : "0x0a",
            "nonce" : "0x00",
            "secretKey" : "0x45a915e4d060149eb4365960e6a7a45f334393093061116b197e3240065ff2d8",
            "sender" : "0xa94f5374fce5edbc8e2a8697c15331677e6ebf0b",
            "to" : "0x095e7baea6a6c7c4c2dfeb977efac326af552d87",
            "value" : [
                "0x200b20"
            ]
        }
    }
}