{
    "static_callcodecallcodecall_110_2" : {
        "_info" : {
            "comment" : "",
            "filling-rpc-server" : "evm version 1.10.2-unstable-22082f9e-20210309",
            "filling-tool-version" : "retesteth-0.1.0-accesslist+commit.47c69eb3.Linux.g++",
            "lllcversion" : "Version: 0.5.14-develop.2020.6.22+commit.9189ad7a.Linux.g++",
            "source" : "src/GeneralStateTestsFiller/stStaticCall/static_callcodecallcodecall_110_2Filler.json",
            "sourceHash" : "fca8445c6c88145a49509c5d2f549720510b54bf5c7d2939f547f99f819b712f"
        },
        "env" : {
            "currentCoinbase" : "0x2adc25665018aa1fe0e6bc666dac8fc2697ff9ba",
            "currentDifficulty" : "0x020000",
            "currentGasLimit" : "0x01c9c380",
            "currentNumber" : "0x01",
            "currentTimestamp" : "0x03e8",
            "previousHash" : "0x5e20a0453cecd065ea59c37ac63e079ee08998b6045136a8ce6635c7912ec0b6"
        },
        "post" : {
            "Berlin" : [
                {
                    "indexes" : {
                        "data" : 0,
                        "gas" : 0,
                        "value" : 0
                    },
                    "hash" : "0x3c48c9c3873c496cee7852efc3f84c1a78455ad1f831a61ad73787fad8c03a8f",
                    "txbytes" : "0xf8608001832dc6c094100000000000000000000000000000000000000080801ba0bc3f717090c5b3d46550833ec05cc91a3c352bd18be2c0eed5ed3e54e8af58f9a03a7d01021289eca372726c91175e4f422da3147bd3961cd66ca95f1cf3619fb2",
                    "logs" : "0x1dcc4de8dec75d7aab85b567b6ccd41ad312451b948a7413f0a142fd40d49347"
                },
                {
                    "indexes" : {
                        "data" : 0,
                        "gas" : 0,
                        "value" : 1
                    },
                    "hash" : "0x6308eba66f49cd3965cb568918ab0ab277529da61ae18f6fa4429143dce8b313",
                    "txbytes" : "0xf8608001832dc6c094100000000000000000000000000000000000000001801ca06e5c274dae75ac4f85da826fac2934f429b32340f685df6f54b48c5d6801748ea06f0b179a4615c588ca4536d86cff514e0ecb157e51de92f7a466a0b52f270563",
                    "logs" : "0x1dcc4de8dec75d7aab85b567b6ccd41ad312451b948a7413f0a142fd40d49347"
                },
                {
                    "indexes" : {
                        "data" : 0,
                        "gas" : 0,
                        "value" : 2
                    },
                    "hash" : "0x7248febeaea6ce40421c137c2ffa1cd679fa2311ff08fa2f0dcb00a0b196776f",
                    "txbytes" : "0xf8608001832dc6c094100000000000000000000000000000000000000002801ba0f5268853cd6ee935ed1061fb22f3575f1892ab48619b59ea698deb97a22890eba0736f34990212db73ceb4c70005b88b0fc081fb574635fea2924f0bd3bcb9a8cc",
                    "logs" : "0x1dcc4de8dec75d7aab85b567b6ccd41ad312451b948a7413f0a142fd40d49347"
                }
            ],
            "Istanbul" : [
                {
                    "indexes" : {
                        "data" : 0,
                        "gas" : 0,
                        "value" : 0
                    },
                    "hash" : "0x42d127dab5d70e89dbe5b372688ca7912e5c6f324d0ad17240d3980eb7f613f8",
                    "txbytes" : "0xf8608001832dc6c094100000000000000000000000000000000000000080801ba0bc3f717090c5b3d46550833ec05cc91a3c352bd18be2c0eed5ed3e54e8af58f9a03a7d01021289eca372726c91175e4f422da3147bd3961cd66ca95f1cf3619fb2",
                    "logs" : "0x1dcc4de8dec75d7aab85b567b6ccd41ad312451b948a7413f0a142fd40d49347"
                },
                {
                    "indexes" : {
                        "data" : 0,
                        "gas" : 0,
                        "value" : 1
                    },
                    "hash" : "0xff1e3ef2519e6acebcf24932bcba58106a7f6e5c4932ab0522d290aecd8131e9",
                    "txbytes" : "0xf8608001832dc6c094100000000000000000000000000000000000000001801ca06e5c274dae75ac4f85da826fac2934f429b32340f685df6f54b48c5d6801748ea06f0b179a4615c588ca4536d86cff514e0ecb157e51de92f7a466a0b52f270563",
                    "logs" : "0x1dcc4de8dec75d7aab85b567b6ccd41ad312451b948a7413f0a142fd40d49347"
                },
                {
                    "indexes" : {
                        "data" : 0,
                        "gas" : 0,
                        "value" : 2
                    },
                    "hash" : "0x171b28ab3768a5be2e4c3b7858b68f94467343ca88e381ad3684251fc7f44191",
                    "txbytes" : "0xf8608001832dc6c094100000000000000000000000000000000000000002801ba0f5268853cd6ee935ed1061fb22f3575f1892ab48619b59ea698deb97a22890eba0736f34990212db73ceb4c70005b88b0fc081fb574635fea2924f0bd3bcb9a8cc",
                    "logs" : "0x1dcc4de8dec75d7aab85b567b6ccd41ad312451b948a7413f0a142fd40d49347"
                }
            ]
        },
        "pre" : {
            "0x1000000000000000000000000000000000000000" : {
                "balance" : "0x0de0b6b3a7640000",
                "code" : "0x60406000604060003473100000000000000000000000000000000000000162055730f2600055600160015500",
                "nonce" : "0x00",
                "storage" : {
                }
            },
            "0x1000000000000000000000000000000000000001" : {
                "balance" : "0x0de0b6b3a7640000",
                "code" : "0x6001600152604060006040600060013403731000000000000000000000000000000000000002620493e0f2506001601f5200",
                "nonce" : "0x00",
                "storage" : {
                }
            },
            "0x1000000000000000000000000000000000000002" : {
                "balance" : "0x0de0b6b3a7640000",
                "code" : "0x600160015260406000604060007310000000000000000000000000000000000000036203d090fa506001601f5200",
                "nonce" : "0x00",
                "storage" : {
                }
            },
            "0x1000000000000000000000000000000000000003" : {
                "balance" : "0x00",
                "code" : "0x600160015200",
                "nonce" : "0x00",
                "storage" : {
                }
            },
            "0xa94f5374fce5edbc8e2a8697c15331677e6ebf0b" : {
                "balance" : "0x0de0b6b3a7640000",
                "code" : "0x",
                "nonce" : "0x00",
                "storage" : {
                }
            }
        },
        "transaction" : {
            "data" : [
                "0x"
            ],
            "gasLimit" : [
                "0x2dc6c0"
            ],
            "gasPrice" : "0x01",
            "nonce" : "0x00",
            "secretKey" : "0x45a915e4d060149eb4365960e6a7a45f334393093061116b197e3240065ff2d8",
            "to" : "0x1000000000000000000000000000000000000000",
            "value" : [
                "0x00",
                "0x01",
                "0x02"
            ]
        }
    }
}