{
    "static_callcallcodecallcode_011_OOGMAfter" : {
        "_info" : {
            "comment" : "",
            "filling-rpc-server" : "evm version 1.13.13-unstable-034bc466-20240219",
            "filling-tool-version" : "retesteth-0.3.2-cancun+commit.014a68a5.Linux.g++",
            "generatedTestHash" : "7de6c966ab547ffdc6cc9edfc21e1d2a23b2a822a512046298a5706a4e2072b4",
            "lllcversion" : "Version: 0.5.14-develop.2023.7.11+commit.c58ab2c6.mod.Linux.g++",
            "solidity" : "Version: 0.8.21+commit.d9974bed.Linux.g++",
            "source" : "src/GeneralStateTestsFiller/stStaticCall/static_callcallcodecallcode_011_OOGMAfterFiller.json",
            "sourceHash" : "995178b98c6c9b9bff02cc8e9d9ceb94f8c7904f78704b79c0b4c959fa3be132"
        },
        "env" : {
            "currentBaseFee" : "0x0a",
            "currentCoinbase" : "0x2adc25665018aa1fe0e6bc666dac8fc2697ff9ba",
            "currentDifficulty" : "0x020000",
            "currentExcessBlobGas" : "0x00",
            "currentGasLimit" : "0x01c9c380",
            "currentNumber" : "0x01",
            "currentRandom" : "0x0000000000000000000000000000000000000000000000000000000000020000",
            "currentTimestamp" : "0x03e8"
        },
        "post" : {
            "Berlin" : [
                {
                    "hash" : "0x09152c0cc95afab214f66b09184213de59914b495ae3e294ae09d4a08a62d748",
                    "indexes" : {
                        "data" : 0,
                        "gas" : 0,
                        "value" : 0
                    },
                    "logs" : "0x1dcc4de8dec75d7aab85b567b6ccd41ad312451b948a7413f0a142fd40d49347",
                    "txbytes" : "0xf880800a83029fe094100000000000000000000000000000000000000080a000000000000000000000000010000000000000000000000000000000000000011ca0c88da1b937b6eb3767ce86fdc72d23558b6fba88a686f11c23e6e8e6df4134cda059cdd1e308428fa2d34b032dd15fdd0cde8799c70fa0cc94dfb5da55b04dcd51"
                },
                {
                    "hash" : "0x09152c0cc95afab214f66b09184213de59914b495ae3e294ae09d4a08a62d748",
                    "indexes" : {
                        "data" : 1,
                        "gas" : 0,
                        "value" : 0
                    },
                    "logs" : "0x1dcc4de8dec75d7aab85b567b6ccd41ad312451b948a7413f0a142fd40d49347",
                    "txbytes" : "0xf880800a83029fe094100000000000000000000000000000000000000080a000000000000000000000000020000000000000000000000000000000000000011ba0c5f80126a3e1fa1970c82d6f1986ccf66cffd2c2d7a8c8b37efce6a5322c231aa03674ddec65787a737068b16d80ff408dd181b2005b4220db2439bb0fcf7ae5c5"
                }
            ],
            "Cancun" : [
                {
                    "hash" : "0x5366f50cbe447c88ad81b182ca5d09c9a51c8c7114972230aac9cccfa525b300",
                    "indexes" : {
                        "data" : 0,
                        "gas" : 0,
                        "value" : 0
                    },
                    "logs" : "0x1dcc4de8dec75d7aab85b567b6ccd41ad312451b948a7413f0a142fd40d49347",
                    "txbytes" : "0xf880800a83029fe094100000000000000000000000000000000000000080a000000000000000000000000010000000000000000000000000000000000000011ca0c88da1b937b6eb3767ce86fdc72d23558b6fba88a686f11c23e6e8e6df4134cda059cdd1e308428fa2d34b032dd15fdd0cde8799c70fa0cc94dfb5da55b04dcd51"
                },
                {
                    "hash" : "0x5366f50cbe447c88ad81b182ca5d09c9a51c8c7114972230aac9cccfa525b300",
                    "indexes" : {
                        "data" : 1,
                        "gas" : 0,
                        "value" : 0
                    },
                    "logs" : "0x1dcc4de8dec75d7aab85b567b6ccd41ad312451b948a7413f0a142fd40d49347",
                    "txbytes" : "0xf880800a83029fe094100000000000000000000000000000000000000080a000000000000000000000000020000000000000000000000000000000000000011ba0c5f80126a3e1fa1970c82d6f1986ccf66cffd2c2d7a8c8b37efce6a5322c231aa03674ddec65787a737068b16d80ff408dd181b2005b4220db2439bb0fcf7ae5c5"
                }
            ],
            "Istanbul" : [
                {
                    "hash" : "0xde3cdeaa53e3f93bf520c1c4efae90b8365977a2d61e5ddc1537b93ada205347",
                    "indexes" : {
                        "data" : 0,
                        "gas" : 0,
                        "value" : 0
                    },
                    "logs" : "0x1dcc4de8dec75d7aab85b567b6ccd41ad312451b948a7413f0a142fd40d49347",
                    "txbytes" : "0xf880800a83029fe094100000000000000000000000000000000000000080a000000000000000000000000010000000000000000000000000000000000000011ca0c88da1b937b6eb3767ce86fdc72d23558b6fba88a686f11c23e6e8e6df4134cda059cdd1e308428fa2d34b032dd15fdd0cde8799c70fa0cc94dfb5da55b04dcd51"
                },
                {
                    "hash" : "0xde3cdeaa53e3f93bf520c1c4efae90b8365977a2d61e5ddc1537b93ada205347",
                    "indexes" : {
                        "data" : 1,
                        "gas" : 0,
                        "value" : 0
                    },
                    "logs" : "0x1dcc4de8dec75d7aab85b567b6ccd41ad312451b948a7413f0a142fd40d49347",
                    "txbytes" : "0xf880800a83029fe094100000000000000000000000000000000000000080a000000000000000000000000020000000000000000000000000000000000000011ba0c5f80126a3e1fa1970c82d6f1986ccf66cffd2c2d7a8c8b37efce6a5322c231aa03674ddec65787a737068b16d80ff408dd181b2005b4220db2439bb0fcf7ae5c5"
                }
            ],
            "London" : [
                {
                    "hash" : "0x874f7416dbf6e29c24d9819c0ac2584bdf83d5be45e76ea687bedd973b37dd4b",
                    "indexes" : {
                        "data" : 0,
                        "gas" : 0,
                        "value" : 0
                    },
                    "logs" : "0x1dcc4de8dec75d7aab85b567b6ccd41ad312451b948a7413f0a142fd40d49347",
                    "txbytes" : "0xf880800a83029fe094100000000000000000000000000000000000000080a000000000000000000000000010000000000000000000000000000000000000011ca0c88da1b937b6eb3767ce86fdc72d23558b6fba88a686f11c23e6e8e6df4134cda059cdd1e308428fa2d34b032dd15fdd0cde8799c70fa0cc94dfb5da55b04dcd51"
                },
                {
                    "hash" : "0x874f7416dbf6e29c24d9819c0ac2584bdf83d5be45e76ea687bedd973b37dd4b",
                    "indexes" : {
                        "data" : 1,
                        "gas" : 0,
                        "value" : 0
                    },
                    "logs" : "0x1dcc4de8dec75d7aab85b567b6ccd41ad312451b948a7413f0a142fd40d49347",
                    "txbytes" : "0xf880800a83029fe094100000000000000000000000000000000000000080a000000000000000000000000020000000000000000000000000000000000000011ba0c5f80126a3e1fa1970c82d6f1986ccf66cffd2c2d7a8c8b37efce6a5322c231aa03674ddec65787a737068b16d80ff408dd181b2005b4220db2439bb0fcf7ae5c5"
                }
            ],
            "Paris" : [
                {
                    "hash" : "0x874f7416dbf6e29c24d9819c0ac2584bdf83d5be45e76ea687bedd973b37dd4b",
                    "indexes" : {
                        "data" : 0,
                        "gas" : 0,
                        "value" : 0
                    },
                    "logs" : "0x1dcc4de8dec75d7aab85b567b6ccd41ad312451b948a7413f0a142fd40d49347",
                    "txbytes" : "0xf880800a83029fe094100000000000000000000000000000000000000080a000000000000000000000000010000000000000000000000000000000000000011ca0c88da1b937b6eb3767ce86fdc72d23558b6fba88a686f11c23e6e8e6df4134cda059cdd1e308428fa2d34b032dd15fdd0cde8799c70fa0cc94dfb5da55b04dcd51"
                },
                {
                    "hash" : "0x874f7416dbf6e29c24d9819c0ac2584bdf83d5be45e76ea687bedd973b37dd4b",
                    "indexes" : {
                        "data" : 1,
                        "gas" : 0,
                        "value" : 0
                    },
                    "logs" : "0x1dcc4de8dec75d7aab85b567b6ccd41ad312451b948a7413f0a142fd40d49347",
                    "txbytes" : "0xf880800a83029fe094100000000000000000000000000000000000000080a000000000000000000000000020000000000000000000000000000000000000011ba0c5f80126a3e1fa1970c82d6f1986ccf66cffd2c2d7a8c8b37efce6a5322c231aa03674ddec65787a737068b16d80ff408dd181b2005b4220db2439bb0fcf7ae5c5"
                }
            ],
            "Shanghai" : [
                {
                    "hash" : "0x874f7416dbf6e29c24d9819c0ac2584bdf83d5be45e76ea687bedd973b37dd4b",
                    "indexes" : {
                        "data" : 0,
                        "gas" : 0,
                        "value" : 0
                    },
                    "logs" : "0x1dcc4de8dec75d7aab85b567b6ccd41ad312451b948a7413f0a142fd40d49347",
                    "txbytes" : "0xf880800a83029fe094100000000000000000000000000000000000000080a000000000000000000000000010000000000000000000000000000000000000011ca0c88da1b937b6eb3767ce86fdc72d23558b6fba88a686f11c23e6e8e6df4134cda059cdd1e308428fa2d34b032dd15fdd0cde8799c70fa0cc94dfb5da55b04dcd51"
                },
                {
                    "hash" : "0x874f7416dbf6e29c24d9819c0ac2584bdf83d5be45e76ea687bedd973b37dd4b",
                    "indexes" : {
                        "data" : 1,
                        "gas" : 0,
                        "value" : 0
                    },
                    "logs" : "0x1dcc4de8dec75d7aab85b567b6ccd41ad312451b948a7413f0a142fd40d49347",
                    "txbytes" : "0xf880800a83029fe094100000000000000000000000000000000000000080a000000000000000000000000020000000000000000000000000000000000000011ba0c5f80126a3e1fa1970c82d6f1986ccf66cffd2c2d7a8c8b37efce6a5322c231aa03674ddec65787a737068b16d80ff408dd181b2005b4220db2439bb0fcf7ae5c5"
                }
            ]
        },
        "pre" : {
            "0x000f3df6d732807ef1319fb7b8bb8522d0beac02" : {
                "balance" : "0x00",
                "code" : "0x3373fffffffffffffffffffffffffffffffffffffffe14604d57602036146024575f5ffd5b5f35801560495762001fff810690815414603c575f5ffd5b62001fff01545f5260205ff35b5f5ffd5b62001fff42064281555f359062001fff015500",
                "nonce" : "0x01",
                "storage" : {
                }
            },
            "0x1000000000000000000000000000000000000000" : {
                "balance" : "0x0de0b6b3a7640000",
                "code" : "0x604060006040600060003561eaecfa600055600160015500",
                "nonce" : "0x00",
                "storage" : {
                }
            },
            "0x1000000000000000000000000000000000000001" : {
                "balance" : "0x00",
                "code" : "0x60016001526040600060406000731000000000000000000000000000000000000002619c90f450600160035500",
                "nonce" : "0x00",
                "storage" : {
                }
            },
            "0x1000000000000000000000000000000000000002" : {
                "balance" : "0x00",
                "code" : "0x60016001526040600060406000731000000000000000000000000000000000000003614e34f450600160015200",
                "nonce" : "0x00",
                "storage" : {
                }
            },
            "0x1000000000000000000000000000000000000003" : {
                "balance" : "0x00",
                "code" : "0x600160035200",
                "nonce" : "0x00",
                "storage" : {
                }
            },
            "0x2000000000000000000000000000000000000001" : {
                "balance" : "0x00",
                "code" : "0x60016001526040600060406000731000000000000000000000000000000000000002619c90f4505b61c350608051101560435760013b506001608051016080526027565b00",
                "nonce" : "0x00",
                "storage" : {
                }
            },
            "0xa94f5374fce5edbc8e2a8697c15331677e6ebf0b" : {
                "balance" : "0x0de0b6b3a7640000",
                "code" : "0x",
                "nonce" : "0x00",
                "storage" : {
                }
            }
        },
        "transaction" : {
            "data" : [
                "0x0000000000000000000000001000000000000000000000000000000000000001",
                "0x0000000000000000000000002000000000000000000000000000000000000001"
            ],
            "gasLimit" : [
                "0x029fe0"
            ],
            "gasPrice" : "0x0a",
            "nonce" : "0x00",
            "secretKey" : "0x45a915e4d060149eb4365960e6a7a45f334393093061116b197e3240065ff2d8",
            "sender" : "0xa94f5374fce5edbc8e2a8697c15331677e6ebf0b",
            "to" : "0x1000000000000000000000000000000000000000",
            "value" : [
                "0x00"
            ]
        }
    }
}