{
    "static_callcallcodecall_010_OOGE" : {
        "_info" : {
            "comment" : "",
            "filling-rpc-server" : "evm version 1.13.13-unstable-034bc466-20240219",
            "filling-tool-version" : "retesteth-0.3.2-cancun+commit.014a68a5.Linux.g++",
            "generatedTestHash" : "2ddadff0317497c665ef5cd48daf0655179b5a0c39db7949b2fe5b483584961e",
            "lllcversion" : "Version: 0.5.14-develop.2023.7.11+commit.c58ab2c6.mod.Linux.g++",
            "solidity" : "Version: 0.8.21+commit.d9974bed.Linux.g++",
            "source" : "src/GeneralStateTestsFiller/stStaticCall/static_callcallcodecall_010_OOGEFiller.json",
            "sourceHash" : "c801f792bd61ab3a4654b932e5ff948639a1ffbe8a16e6d7236984edc8640b07"
        },
        "env" : {
            "currentBaseFee" : "0x0a",
            "currentCoinbase" : "0x2adc25665018aa1fe0e6bc666dac8fc2697ff9ba",
            "currentDifficulty" : "0x020000",
            "currentExcessBlobGas" : "0x00",
            "currentGasLimit" : "0x01c9c380",
            "currentNumber" : "0x01",
            "currentRandom" : "0x0000000000000000000000000000000000000000000000000000000000020000",
            "currentTimestamp" : "0x03e8"
        },
        "post" : {
            "Berlin" : [
                {
                    "hash" : "0x6e5a77225421279711f8cb26381b4050eb6b3454a21366922e4a4181e2fcf19c",
                    "indexes" : {
                        "data" : 0,
                        "gas" : 0,
                        "value" : 0
                    },
                    "logs" : "0x1dcc4de8dec75d7aab85b567b6ccd41ad312451b948a7413f0a142fd40d49347",
                    "txbytes" : "0xf880800a831a3ec094100000000000000000000000000000000000000080a000000000000000000000000010000000000000000000000000000000000000021ba00135d39dda0a616faf53a126ba46f7b8de35ece789300313c2905634fe943b8fa008302200c9b0aae97b5299edb9bea9b45fe5a6625c95d092aa3ff13b8a97be92"
                },
                {
                    "hash" : "0x6e5a77225421279711f8cb26381b4050eb6b3454a21366922e4a4181e2fcf19c",
                    "indexes" : {
                        "data" : 1,
                        "gas" : 0,
                        "value" : 0
                    },
                    "logs" : "0x1dcc4de8dec75d7aab85b567b6ccd41ad312451b948a7413f0a142fd40d49347",
                    "txbytes" : "0xf880800a831a3ec094100000000000000000000000000000000000000080a000000000000000000000000020000000000000000000000000000000000000021ba0813d06989d9966041adced4c3d8002fe81c97c51029f680e9a73e8cd7a5ce140a042b031d211c2af75a61a94ef107e12b9facaf68eb8fd415a6da2007df9e7710d"
                }
            ],
            "Cancun" : [
                {
                    "hash" : "0x3e890301981f5acb5a02241f12f701eb5d19f8f020925083d10c216f2b548a27",
                    "indexes" : {
                        "data" : 0,
                        "gas" : 0,
                        "value" : 0
                    },
                    "logs" : "0x1dcc4de8dec75d7aab85b567b6ccd41ad312451b948a7413f0a142fd40d49347",
                    "txbytes" : "0xf880800a831a3ec094100000000000000000000000000000000000000080a000000000000000000000000010000000000000000000000000000000000000021ba00135d39dda0a616faf53a126ba46f7b8de35ece789300313c2905634fe943b8fa008302200c9b0aae97b5299edb9bea9b45fe5a6625c95d092aa3ff13b8a97be92"
                },
                {
                    "hash" : "0x3e890301981f5acb5a02241f12f701eb5d19f8f020925083d10c216f2b548a27",
                    "indexes" : {
                        "data" : 1,
                        "gas" : 0,
                        "value" : 0
                    },
                    "logs" : "0x1dcc4de8dec75d7aab85b567b6ccd41ad312451b948a7413f0a142fd40d49347",
                    "txbytes" : "0xf880800a831a3ec094100000000000000000000000000000000000000080a000000000000000000000000020000000000000000000000000000000000000021ba0813d06989d9966041adced4c3d8002fe81c97c51029f680e9a73e8cd7a5ce140a042b031d211c2af75a61a94ef107e12b9facaf68eb8fd415a6da2007df9e7710d"
                }
            ],
            "Istanbul" : [
                {
                    "hash" : "0x63ca530519174f0174157edc83bc754c3ec1f13726ed661ec7bf1d558f397624",
                    "indexes" : {
                        "data" : 0,
                        "gas" : 0,
                        "value" : 0
                    },
                    "logs" : "0x1dcc4de8dec75d7aab85b567b6ccd41ad312451b948a7413f0a142fd40d49347",
                    "txbytes" : "0xf880800a831a3ec094100000000000000000000000000000000000000080a000000000000000000000000010000000000000000000000000000000000000021ba00135d39dda0a616faf53a126ba46f7b8de35ece789300313c2905634fe943b8fa008302200c9b0aae97b5299edb9bea9b45fe5a6625c95d092aa3ff13b8a97be92"
                },
                {
                    "hash" : "0x63ca530519174f0174157edc83bc754c3ec1f13726ed661ec7bf1d558f397624",
                    "indexes" : {
                        "data" : 1,
                        "gas" : 0,
                        "value" : 0
                    },
                    "logs" : "0x1dcc4de8dec75d7aab85b567b6ccd41ad312451b948a7413f0a142fd40d49347",
                    "txbytes" : "0xf880800a831a3ec094100000000000000000000000000000000000000080a000000000000000000000000020000000000000000000000000000000000000021ba0813d06989d9966041adced4c3d8002fe81c97c51029f680e9a73e8cd7a5ce140a042b031d211c2af75a61a94ef107e12b9facaf68eb8fd415a6da2007df9e7710d"
                }
            ],
            "London" : [
                {
                    "hash" : "0xcc8db8920f51f455c11a854801b926309db55fb9dbb10c360bad81fb5549c06f",
                    "indexes" : {
                        "data" : 0,
                        "gas" : 0,
                        "value" : 0
                    },
                    "logs" : "0x1dcc4de8dec75d7aab85b567b6ccd41ad312451b948a7413f0a142fd40d49347",
                    "txbytes" : "0xf880800a831a3ec094100000000000000000000000000000000000000080a000000000000000000000000010000000000000000000000000000000000000021ba00135d39dda0a616faf53a126ba46f7b8de35ece789300313c2905634fe943b8fa008302200c9b0aae97b5299edb9bea9b45fe5a6625c95d092aa3ff13b8a97be92"
                },
                {
                    "hash" : "0xcc8db8920f51f455c11a854801b926309db55fb9dbb10c360bad81fb5549c06f",
                    "indexes" : {
                        "data" : 1,
                        "gas" : 0,
                        "value" : 0
                    },
                    "logs" : "0x1dcc4de8dec75d7aab85b567b6ccd41ad312451b948a7413f0a142fd40d49347",
                    "txbytes" : "0xf880800a831a3ec094100000000000000000000000000000000000000080a000000000000000000000000020000000000000000000000000000000000000021ba0813d06989d9966041adced4c3d8002fe81c97c51029f680e9a73e8cd7a5ce140a042b031d211c2af75a61a94ef107e12b9facaf68eb8fd415a6da2007df9e7710d"
                }
            ],
            "Paris" : [
                {
                    "hash" : "0xcc8db8920f51f455c11a854801b926309db55fb9dbb10c360bad81fb5549c06f",
                    "indexes" : {
                        "data" : 0,
                        "gas" : 0,
                        "value" : 0
                    },
                    "logs" : "0x1dcc4de8dec75d7aab85b567b6ccd41ad312451b948a7413f0a142fd40d49347",
                    "txbytes" : "0xf880800a831a3ec094100000000000000000000000000000000000000080a000000000000000000000000010000000000000000000000000000000000000021ba00135d39dda0a616faf53a126ba46f7b8de35ece789300313c2905634fe943b8fa008302200c9b0aae97b5299edb9bea9b45fe5a6625c95d092aa3ff13b8a97be92"
                },
                {
                    "hash" : "0xcc8db8920f51f455c11a854801b926309db55fb9dbb10c360bad81fb5549c06f",
                    "indexes" : {
                        "data" : 1,
                        "gas" : 0,
                        "value" : 0
                    },
                    "logs" : "0x1dcc4de8dec75d7aab85b567b6ccd41ad312451b948a7413f0a142fd40d49347",
                    "txbytes" : "0xf880800a831a3ec094100000000000000000000000000000000000000080a000000000000000000000000020000000000000000000000000000000000000021ba0813d06989d9966041adced4c3d8002fe81c97c51029f680e9a73e8cd7a5ce140a042b031d211c2af75a61a94ef107e12b9facaf68eb8fd415a6da2007df9e7710d"
                }
            ],
            "Shanghai" : [
                {
                    "hash" : "0xcc8db8920f51f455c11a854801b926309db55fb9dbb10c360bad81fb5549c06f",
                    "indexes" : {
                        "data" : 0,
                        "gas" : 0,
                        "value" : 0
                    },
                    "logs" : "0x1dcc4de8dec75d7aab85b567b6ccd41ad312451b948a7413f0a142fd40d49347",
                    "txbytes" : "0xf880800a831a3ec094100000000000000000000000000000000000000080a000000000000000000000000010000000000000000000000000000000000000021ba00135d39dda0a616faf53a126ba46f7b8de35ece789300313c2905634fe943b8fa008302200c9b0aae97b5299edb9bea9b45fe5a6625c95d092aa3ff13b8a97be92"
                },
                {
                    "hash" : "0xcc8db8920f51f455c11a854801b926309db55fb9dbb10c360bad81fb5549c06f",
                    "indexes" : {
                        "data" : 1,
                        "gas" : 0,
                        "value" : 0
                    },
                    "logs" : "0x1dcc4de8dec75d7aab85b567b6ccd41ad312451b948a7413f0a142fd40d49347",
                    "txbytes" : "0xf880800a831a3ec094100000000000000000000000000000000000000080a000000000000000000000000020000000000000000000000000000000000000021ba0813d06989d9966041adced4c3d8002fe81c97c51029f680e9a73e8cd7a5ce140a042b031d211c2af75a61a94ef107e12b9facaf68eb8fd415a6da2007df9e7710d"
                }
            ]
        },
        "pre" : {
            "0x000f3df6d732807ef1319fb7b8bb8522d0beac02" : {
                "balance" : "0x00",
                "code" : "0x3373fffffffffffffffffffffffffffffffffffffffe14604d57602036146024575f5ffd5b5f35801560495762001fff810690815414603c575f5ffd5b62001fff01545f5260205ff35b5f5ffd5b62001fff42064281555f359062001fff015500",
                "nonce" : "0x01",
                "storage" : {
                }
            },
            "0x1000000000000000000000000000000000000000" : {
                "balance" : "0x0de0b6b3a7640000",
                "code" : "0x60003560005260406000604060007310000000000000000000000000000000000000016207a120fa600055600160015500",
                "nonce" : "0x00",
                "storage" : {
                }
            },
            "0x1000000000000000000000000000000000000001" : {
                "balance" : "0x00",
                "code" : "0x6040600060406000600035620493e0f450600160015200",
                "nonce" : "0x00",
                "storage" : {
                }
            },
            "0x1000000000000000000000000000000000000002" : {
                "balance" : "0x00",
                "code" : "0x60406000604060007310000000000000000000000000000000000000036201d4d4fa505b61c3506080511015603f5760013b506001608051016080526023565b00",
                "nonce" : "0x00",
                "storage" : {
                }
            },
            "0x1000000000000000000000000000000000000003" : {
                "balance" : "0x00",
                "code" : "0x600160035200",
                "nonce" : "0x00",
                "storage" : {
                }
            },
            "0x2000000000000000000000000000000000000002" : {
                "balance" : "0x00",
                "code" : "0x60406000604060007310000000000000000000000000000000000000036201d4d4fa50600160015500",
                "nonce" : "0x00",
                "storage" : {
                }
            },
            "0xa94f5374fce5edbc8e2a8697c15331677e6ebf0b" : {
                "balance" : "0x0de0b6b3a7640000",
                "code" : "0x",
                "nonce" : "0x00",
                "storage" : {
                }
            }
        },
        "transaction" : {
            "data" : [
                "0x0000000000000000000000001000000000000000000000000000000000000002",
                "0x0000000000000000000000002000000000000000000000000000000000000002"
            ],
            "gasLimit" : [
                "0x1a3ec0"
            ],
            "gasPrice" : "0x0a",
            "nonce" : "0x00",
            "secretKey" : "0x45a915e4d060149eb4365960e6a7a45f334393093061116b197e3240065ff2d8",
            "sender" : "0xa94f5374fce5edbc8e2a8697c15331677e6ebf0b",
            "to" : "0x1000000000000000000000000000000000000000",
            "value" : [
                "0x00"
            ]
        }
    }
}