{
    "static_callCreate2" : {
        "_info" : {
            "comment" : "",
            "filling-rpc-server" : "evm version 1.13.13-unstable-034bc466-20240219",
            "filling-tool-version" : "retesteth-0.3.2-cancun+commit.014a68a5.Linux.g++",
            "generatedTestHash" : "765ef3e5f132910abc27f035a9ff79634150cf62acc72ddd9aabd7bbf0a7a066",
            "lllcversion" : "Version: 0.5.14-develop.2023.7.11+commit.c58ab2c6.mod.Linux.g++",
            "solidity" : "Version: 0.8.21+commit.d9974bed.Linux.g++",
            "source" : "src/GeneralStateTestsFiller/stStaticCall/static_callCreate2Filler.json",
            "sourceHash" : "52abba733581ff39a30e7b2fc9ba4c2888dc6a62c1eedd9b355cace5e4e0d893"
        },
        "env" : {
            "currentBaseFee" : "0x0a",
            "currentCoinbase" : "0x2adc25665018aa1fe0e6bc666dac8fc2697ff9ba",
            "currentDifficulty" : "0x020000",
            "currentExcessBlobGas" : "0x00",
            "currentGasLimit" : "0x989680",
            "currentNumber" : "0x01",
            "currentRandom" : "0x0000000000000000000000000000000000000000000000000000000000020000",
            "currentTimestamp" : "0x03e8"
        },
        "post" : {
            "Berlin" : [
                {
                    "hash" : "0x58b3e3d77d8213f2728212f5d4db6d3d53775779c30088f4796a9e8258e349c9",
                    "indexes" : {
                        "data" : 0,
                        "gas" : 0,
                        "value" : 0
                    },
                    "logs" : "0x1dcc4de8dec75d7aab85b567b6ccd41ad312451b948a7413f0a142fd40d49347",
                    "txbytes" : "0xf883800a830f424094a000000000000000000000000000000000000000830186a0a000000000000000000000000010000000000000000000000000000000000000001ba011245eee4844656f39de851802157db73ed455cc95fc8a3356d6ab2af14d626ea06ca8fd956f2583c20d6a66145fa219e1a714a93fb8effce857ce9cd37a9cb80d"
                },
                {
                    "hash" : "0xb29b4ba8e276d442afe7c8d0a13ed2d06bbb19c40785be983fe2050b33e7f850",
                    "indexes" : {
                        "data" : 1,
                        "gas" : 0,
                        "value" : 0
                    },
                    "logs" : "0x1dcc4de8dec75d7aab85b567b6ccd41ad312451b948a7413f0a142fd40d49347",
                    "txbytes" : "0xf883800a830f424094a000000000000000000000000000000000000000830186a0a000000000000000000000000010000000000000000000000000000000000000011ca07ee06b08a1999e48a0b4611d269374998a5c2002ddcc80620358e6e687c60b4ea0136361ef6075bb1591e061e173d94903d6e4a8dc2d9f60196bceedda8293d5f4"
                },
                {
                    "hash" : "0x685fb69615deb1ce15b19ccdc18682613055e6c454e489aa67c2db6f63d75b9b",
                    "indexes" : {
                        "data" : 2,
                        "gas" : 0,
                        "value" : 0
                    },
                    "logs" : "0x1dcc4de8dec75d7aab85b567b6ccd41ad312451b948a7413f0a142fd40d49347",
                    "txbytes" : "0xf883800a830f424094a000000000000000000000000000000000000000830186a0a000000000000000000000000010000000000000000000000000000000000000021ca03b4b18369035d0e989a1fc55f5f688479e8c6f9caa25941e570c88209a8f3a96a02af636774916d3c027ab22b70171300f1c9b624bedf78fa9cd5c321cd763c6be"
                }
            ],
            "Cancun" : [
                {
                    "hash" : "0x4ec632b1b1ad4192488708354b58534aefdb1599b2cee50acfe6d570adbd19de",
                    "indexes" : {
                        "data" : 0,
                        "gas" : 0,
                        "value" : 0
                    },
                    "logs" : "0x1dcc4de8dec75d7aab85b567b6ccd41ad312451b948a7413f0a142fd40d49347",
                    "txbytes" : "0xf883800a830f424094a000000000000000000000000000000000000000830186a0a000000000000000000000000010000000000000000000000000000000000000001ba011245eee4844656f39de851802157db73ed455cc95fc8a3356d6ab2af14d626ea06ca8fd956f2583c20d6a66145fa219e1a714a93fb8effce857ce9cd37a9cb80d"
                },
                {
                    "hash" : "0x243d8628b2fe5d021d5f1c3ef043fe443f1483feec63316c1c12fae7d71c98a2",
                    "indexes" : {
                        "data" : 1,
                        "gas" : 0,
                        "value" : 0
                    },
                    "logs" : "0x1dcc4de8dec75d7aab85b567b6ccd41ad312451b948a7413f0a142fd40d49347",
                    "txbytes" : "0xf883800a830f424094a000000000000000000000000000000000000000830186a0a000000000000000000000000010000000000000000000000000000000000000011ca07ee06b08a1999e48a0b4611d269374998a5c2002ddcc80620358e6e687c60b4ea0136361ef6075bb1591e061e173d94903d6e4a8dc2d9f60196bceedda8293d5f4"
                },
                {
                    "hash" : "0x21c57533430faa5e04b1b0c68064bd5a4c1898083d3b25e9adda8db72731b2dc",
                    "indexes" : {
                        "data" : 2,
                        "gas" : 0,
                        "value" : 0
                    },
                    "logs" : "0x1dcc4de8dec75d7aab85b567b6ccd41ad312451b948a7413f0a142fd40d49347",
                    "txbytes" : "0xf883800a830f424094a000000000000000000000000000000000000000830186a0a000000000000000000000000010000000000000000000000000000000000000021ca03b4b18369035d0e989a1fc55f5f688479e8c6f9caa25941e570c88209a8f3a96a02af636774916d3c027ab22b70171300f1c9b624bedf78fa9cd5c321cd763c6be"
                }
            ],
            "Istanbul" : [
                {
                    "hash" : "0x393bb6f7664ac5d9fc77ed964240c5c9c4322a27b29762f06ef498386372334a",
                    "indexes" : {
                        "data" : 0,
                        "gas" : 0,
                        "value" : 0
                    },
                    "logs" : "0x1dcc4de8dec75d7aab85b567b6ccd41ad312451b948a7413f0a142fd40d49347",
                    "txbytes" : "0xf883800a830f424094a000000000000000000000000000000000000000830186a0a000000000000000000000000010000000000000000000000000000000000000001ba011245eee4844656f39de851802157db73ed455cc95fc8a3356d6ab2af14d626ea06ca8fd956f2583c20d6a66145fa219e1a714a93fb8effce857ce9cd37a9cb80d"
                },
                {
                    "hash" : "0x7a518f49ff42679c48abc8e3fa5af145f3045a4b15ac3da7f82748fb99b0203e",
                    "indexes" : {
                        "data" : 1,
                        "gas" : 0,
                        "value" : 0
                    },
                    "logs" : "0x1dcc4de8dec75d7aab85b567b6ccd41ad312451b948a7413f0a142fd40d49347",
                    "txbytes" : "0xf883800a830f424094a000000000000000000000000000000000000000830186a0a000000000000000000000000010000000000000000000000000000000000000011ca07ee06b08a1999e48a0b4611d269374998a5c2002ddcc80620358e6e687c60b4ea0136361ef6075bb1591e061e173d94903d6e4a8dc2d9f60196bceedda8293d5f4"
                },
                {
                    "hash" : "0x03e9b5e83aaa1a4f5df509d6c350ff1af845826b9beb75f9a6b1066b5fd6cd1d",
                    "indexes" : {
                        "data" : 2,
                        "gas" : 0,
                        "value" : 0
                    },
                    "logs" : "0x1dcc4de8dec75d7aab85b567b6ccd41ad312451b948a7413f0a142fd40d49347",
                    "txbytes" : "0xf883800a830f424094a000000000000000000000000000000000000000830186a0a000000000000000000000000010000000000000000000000000000000000000021ca03b4b18369035d0e989a1fc55f5f688479e8c6f9caa25941e570c88209a8f3a96a02af636774916d3c027ab22b70171300f1c9b624bedf78fa9cd5c321cd763c6be"
                }
            ],
            "London" : [
                {
                    "hash" : "0x710bdf9946c686100e8689524acaa032bf0594f56eb0789befe3260e9a5d63d3",
                    "indexes" : {
                        "data" : 0,
                        "gas" : 0,
                        "value" : 0
                    },
                    "logs" : "0x1dcc4de8dec75d7aab85b567b6ccd41ad312451b948a7413f0a142fd40d49347",
                    "txbytes" : "0xf883800a830f424094a000000000000000000000000000000000000000830186a0a000000000000000000000000010000000000000000000000000000000000000001ba011245eee4844656f39de851802157db73ed455cc95fc8a3356d6ab2af14d626ea06ca8fd956f2583c20d6a66145fa219e1a714a93fb8effce857ce9cd37a9cb80d"
                },
                {
                    "hash" : "0xe1895dbc46cf99d8c54930d3ed2332f4c6cd4bfed48353c08bdfac48853dfa24",
                    "indexes" : {
                        "data" : 1,
                        "gas" : 0,
                        "value" : 0
                    },
                    "logs" : "0x1dcc4de8dec75d7aab85b567b6ccd41ad312451b948a7413f0a142fd40d49347",
                    "txbytes" : "0xf883800a830f424094a000000000000000000000000000000000000000830186a0a000000000000000000000000010000000000000000000000000000000000000011ca07ee06b08a1999e48a0b4611d269374998a5c2002ddcc80620358e6e687c60b4ea0136361ef6075bb1591e061e173d94903d6e4a8dc2d9f60196bceedda8293d5f4"
                },
                {
                    "hash" : "0x0d5ce2715661049c152eef2ce3d7c94dad7839a98358191a04b3275a8ac45740",
                    "indexes" : {
                        "data" : 2,
                        "gas" : 0,
                        "value" : 0
                    },
                    "logs" : "0x1dcc4de8dec75d7aab85b567b6ccd41ad312451b948a7413f0a142fd40d49347",
                    "txbytes" : "0xf883800a830f424094a000000000000000000000000000000000000000830186a0a000000000000000000000000010000000000000000000000000000000000000021ca03b4b18369035d0e989a1fc55f5f688479e8c6f9caa25941e570c88209a8f3a96a02af636774916d3c027ab22b70171300f1c9b624bedf78fa9cd5c321cd763c6be"
                }
            ],
            "Paris" : [
                {
                    "hash" : "0x710bdf9946c686100e8689524acaa032bf0594f56eb0789befe3260e9a5d63d3",
                    "indexes" : {
                        "data" : 0,
                        "gas" : 0,
                        "value" : 0
                    },
                    "logs" : "0x1dcc4de8dec75d7aab85b567b6ccd41ad312451b948a7413f0a142fd40d49347",
                    "txbytes" : "0xf883800a830f424094a000000000000000000000000000000000000000830186a0a000000000000000000000000010000000000000000000000000000000000000001ba011245eee4844656f39de851802157db73ed455cc95fc8a3356d6ab2af14d626ea06ca8fd956f2583c20d6a66145fa219e1a714a93fb8effce857ce9cd37a9cb80d"
                },
                {
                    "hash" : "0xe1895dbc46cf99d8c54930d3ed2332f4c6cd4bfed48353c08bdfac48853dfa24",
                    "indexes" : {
                        "data" : 1,
                        "gas" : 0,
                        "value" : 0
                    },
                    "logs" : "0x1dcc4de8dec75d7aab85b567b6ccd41ad312451b948a7413f0a142fd40d49347",
                    "txbytes" : "0xf883800a830f424094a000000000000000000000000000000000000000830186a0a000000000000000000000000010000000000000000000000000000000000000011ca07ee06b08a1999e48a0b4611d269374998a5c2002ddcc80620358e6e687c60b4ea0136361ef6075bb1591e061e173d94903d6e4a8dc2d9f60196bceedda8293d5f4"
                },
                {
                    "hash" : "0x0d5ce2715661049c152eef2ce3d7c94dad7839a98358191a04b3275a8ac45740",
                    "indexes" : {
                        "data" : 2,
                        "gas" : 0,
                        "value" : 0
                    },
                    "logs" : "0x1dcc4de8dec75d7aab85b567b6ccd41ad312451b948a7413f0a142fd40d49347",
                    "txbytes" : "0xf883800a830f424094a000000000000000000000000000000000000000830186a0a000000000000000000000000010000000000000000000000000000000000000021ca03b4b18369035d0e989a1fc55f5f688479e8c6f9caa25941e570c88209a8f3a96a02af636774916d3c027ab22b70171300f1c9b624bedf78fa9cd5c321cd763c6be"
                }
            ],
            "Shanghai" : [
                {
                    "hash" : "0x710bdf9946c686100e8689524acaa032bf0594f56eb0789befe3260e9a5d63d3",
                    "indexes" : {
                        "data" : 0,
                        "gas" : 0,
                        "value" : 0
                    },
                    "logs" : "0x1dcc4de8dec75d7aab85b567b6ccd41ad312451b948a7413f0a142fd40d49347",
                    "txbytes" : "0xf883800a830f424094a000000000000000000000000000000000000000830186a0a000000000000000000000000010000000000000000000000000000000000000001ba011245eee4844656f39de851802157db73ed455cc95fc8a3356d6ab2af14d626ea06ca8fd956f2583c20d6a66145fa219e1a714a93fb8effce857ce9cd37a9cb80d"
                },
                {
                    "hash" : "0x1cb4ebc904c3efc70d68b656f2ba5a802f6f488d03f750a3fa37c25bce778f40",
                    "indexes" : {
                        "data" : 1,
                        "gas" : 0,
                        "value" : 0
                    },
                    "logs" : "0x1dcc4de8dec75d7aab85b567b6ccd41ad312451b948a7413f0a142fd40d49347",
                    "txbytes" : "0xf883800a830f424094a000000000000000000000000000000000000000830186a0a000000000000000000000000010000000000000000000000000000000000000011ca07ee06b08a1999e48a0b4611d269374998a5c2002ddcc80620358e6e687c60b4ea0136361ef6075bb1591e061e173d94903d6e4a8dc2d9f60196bceedda8293d5f4"
                },
                {
                    "hash" : "0x0d5ce2715661049c152eef2ce3d7c94dad7839a98358191a04b3275a8ac45740",
                    "indexes" : {
                        "data" : 2,
                        "gas" : 0,
                        "value" : 0
                    },
                    "logs" : "0x1dcc4de8dec75d7aab85b567b6ccd41ad312451b948a7413f0a142fd40d49347",
                    "txbytes" : "0xf883800a830f424094a000000000000000000000000000000000000000830186a0a000000000000000000000000010000000000000000000000000000000000000021ca03b4b18369035d0e989a1fc55f5f688479e8c6f9caa25941e570c88209a8f3a96a02af636774916d3c027ab22b70171300f1c9b624bedf78fa9cd5c321cd763c6be"
                }
            ]
        },
        "pre" : {
            "0x000f3df6d732807ef1319fb7b8bb8522d0beac02" : {
                "balance" : "0x00",
                "code" : "0x3373fffffffffffffffffffffffffffffffffffffffe14604d57602036146024575f5ffd5b5f35801560495762001fff810690815414603c575f5ffd5b62001fff01545f5260205ff35b5f5ffd5b62001fff42064281555f359062001fff015500",
                "nonce" : "0x01",
                "storage" : {
                }
            },
            "0x1000000000000000000000000000000000000000" : {
                "balance" : "0x0de0b6b3a7640000",
                "code" : "0x600060006001f06000556000600060006000600054620493e0fa60015500",
                "nonce" : "0x00",
                "storage" : {
                }
            },
            "0x1000000000000000000000000000000000000001" : {
                "balance" : "0x0de0b6b3a7640000",
                "code" : "0x6d6460016001556000526005601bf3600052600e60126001f06000556000600060006000600054620493e0fa60015500",
                "nonce" : "0x00",
                "storage" : {
                }
            },
            "0x1000000000000000000000000000000000000002" : {
                "balance" : "0x0de0b6b3a7640000",
                "code" : "0x6d6460016001556000526005601bf3600052600e60126001f06000556000600060006000600054620493e0fa6001555b61c3506080511015604b5760013b50600160805101608052602f565b00",
                "nonce" : "0x00",
                "storage" : {
                }
            },
            "0xa000000000000000000000000000000000000000" : {
                "balance" : "0x0de0b6b3a7640000",
                "code" : "0x60006000600060006000600035620927c0f100",
                "nonce" : "0x00",
                "storage" : {
                }
            },
            "0xa94f5374fce5edbc8e2a8697c15331677e6ebf0b" : {
                "balance" : "0x0de0b6b3a7640000",
                "code" : "0x",
                "nonce" : "0x00",
                "storage" : {
                }
            }
        },
        "transaction" : {
            "data" : [
                "0x0000000000000000000000001000000000000000000000000000000000000000",
                "0x0000000000000000000000001000000000000000000000000000000000000001",
                "0x0000000000000000000000001000000000000000000000000000000000000002"
            ],
            "gasLimit" : [
                "0x0f4240"
            ],
            "gasPrice" : "0x0a",
            "nonce" : "0x00",
            "secretKey" : "0x45a915e4d060149eb4365960e6a7a45f334393093061116b197e3240065ff2d8",
            "sender" : "0xa94f5374fce5edbc8e2a8697c15331677e6ebf0b",
            "to" : "0xa000000000000000000000000000000000000000",
            "value" : [
                "0x0186a0"
            ]
        }
    }
}