{
    "dayLimitConstructionOOG_d0g0v0_Cancun" : {
        "_info" : {
            "comment" : "",
            "filling-rpc-server" : "evm version 1.14.4-unstable-3d8028a6-20240513",
            "filling-tool-version" : "retesteth-0.3.2-cancun+commit.cae6bc33.Linux.g++",
            "generatedTestHash" : "d6feebc053c369f4f7dd8cc33ef3f82ad73bb17dd5e10e76a6e4c6167959d62b",
            "lllcversion" : "Version: 0.5.14-develop.2023.7.11+commit.c58ab2c6.mod.Linux.g++",
            "solidity" : "Version: 0.8.21+commit.d9974bed.Linux.g++",
            "source" : "src/GeneralStateTestsFiller/stWalletTest/dayLimitConstructionOOGFiller.json",
            "sourceHash" : "a9a265e4391c2aab96a2b20d71ea8da9585a4c7c61531d2c94b1d8c7bf524573"
        },
        "blocks" : [
            {
                "blockHeader" : {
                    "baseFeePerGas" : "0x0a",
                    "blobGasUsed" : "0x00",
                    "bloom" : "0x00000000000000000000000000000000000000000000000000000000000000000000000000000000000000000000000000000000000000000000000000000000000000000000000000000000000000000000000000000000000000000000000000000000000000000000000000000000000000000000000000000000000000000000000000000000000000000000000000000000000000000000000000000000000000000000000000000000000000000000000000000000000000000000000000000000000000000000000000000000000000000000000000000000000000000000000000000000000000000000000000000000000000000000000000000000",
                    "coinbase" : "0x2adc25665018aa1fe0e6bc666dac8fc2697ff9ba",
                    "difficulty" : "0x00",
                    "excessBlobGas" : "0x00",
                    "extraData" : "0x00",
                    "gasLimit" : "0x989680",
                    "gasUsed" : "0x04661a",
                    "hash" : "0x8ac3b8e3f2dfa82bb30d259a374a656c2c6fab4dcd76c7dafdebd2b95d6bc02d",
                    "mixHash" : "0x0000000000000000000000000000000000000000000000000000000000020000",
                    "nonce" : "0x0000000000000000",
                    "number" : "0x01",
                    "parentBeaconBlockRoot" : "0x0000000000000000000000000000000000000000000000000000000000000000",
                    "parentHash" : "0xebaf851db37c78f995ee21b61cb6065f70233dc26030326802274db16b2f1379",
                    "receiptTrie" : "0xde59e589b5364f707241d048590dfd9291ee05da8f5c3f6f8a022baa1f3ed803",
                    "stateRoot" : "0x3b145cb0d0a7ee0b343f323190fd5e26f87a5e93c9702049588577cdf982d52b",
                    "timestamp" : "0x03e8",
                    "transactionsTrie" : "0x64159c1ce636137313a86d92dbcc38747920036dd0636211633943e2b1ae7030",
                    "uncleHash" : "0x1dcc4de8dec75d7aab85b567b6ccd41ad312451b948a7413f0a142fd40d49347",
                    "withdrawalsRoot" : "0x56e81f171bcc55a6ff8345e692c0f86e5b48e01b996cadc001622fb5e363b421"
                },
                "rlp" : "0xf90c8cf9023aa0ebaf851db37c78f995ee21b61cb6065f70233dc26030326802274db16b2f1379a01dcc4de8dec75d7aab85b567b6ccd41ad312451b948a7413f0a142fd40d49347942adc25665018aa1fe0e6bc666dac8fc2697ff9baa03b145cb0d0a7ee0b343f323190fd5e26f87a5e93c9702049588577cdf982d52ba064159c1ce636137313a86d92dbcc38747920036dd0636211633943e2b1ae7030a0de59e589b5364f707241d048590dfd9291ee05da8f5c3f6f8a022baa1f3ed803b90100000000000000000000000000000000000000000000000000000000000000000000000000000000000000000000000000000000000000000000000000000000000000000000000000000000000000000000000000000000000000000000000000000000000000000000000000000000000000000000000000000000000000000000000000000000000000000000000000000000000000000000000000000000000000000000000000000000000000000000000000000000000000000000000000000000000000000000000000000000000000000000000000000000000000000000000000000000000000000000000000000000000000000000000000000000008001839896808304661a8203e800a000000000000000000000000000000000000000000000000000000000000200008800000000000000000aa056e81f171bcc55a6ff8345e692c0f86e5b48e01b996cadc001622fb5e363b4218080a00000000000000000000000000000000000000000000000000000000000000000f90a4af90a47010a8304661a8064b909f9606060409081526001600081815581805533600160a060020a0316600381905581526101026020529190912055620151804204610107556109b4806100456000396000f300606060405236156100985760e060020a6000350463173825d9811461009a5780632f54bf6e146100f65780634123cb6b1461011a5780635c52c2f5146101235780637065cb4814610154578063746c917114610188578063b20d30a914610191578063b75c7dc6146101c5578063ba51a6df146101f5578063c2cf732614610229578063f00d4b5d14610269578063f1736d86146102a2575b005b6100986004356000600036436040518084848082843750505090910190815260405190819003602001902090506105b9815b600160a060020a0333166000908152610102602052604081205481808083811415610719576108b0565b6102ac6004355b600160a060020a0316600090815261010260205260408120541190565b6102ac60015481565b6100986000364360405180848480828437505050909101908152604051908190036020019020905061070b816100cc565b61009860043560003643604051808484808284375050509091019081526040519081900360200190209050610531816100cc565b6102ac60005481565b610098600435600036436040518084848082843750505090910190815260405190819003602001902090506106ff816100cc565b610098600435600160a060020a03331660009081526101026020526040812054908080838114156102be57610340565b61009860043560003643604051808484808284375050509091019081526040519081900360200190209050610678816100cc565b6102ac600435602435600082815261010360209081526040808320600160a060020a0385168452610102909252822054829081818114156106d1576106f5565b6100986004356024356000600036436040518084848082843750505090910190815260405190819003602001902090506103ca816100cc565b6102ac6101055481565b60408051918252519081900360200190f35b5050506000828152610103602052604081206001810154600284900a92908316819011156103405781546001838101805492909101845590849003905560408051600160a060020a03331681526020810187905281517fc7fb647e59b18047309aa15aad418e5d7ca96d173ad704f1031a2c3d7591734b929181900390910190a15b5050505050565b600160a060020a038316600283610100811015610002570155600160a060020a0384811660008181526101026020908152604080832083905593871680835291849020869055835192835282015281517fb532073b38c83145e3e5135377a08bf9aab55bc0fd7c1179cd4fb995d2a5159c929181900390910190a15b505b505050565b156103c3576103d8836100fd565b156103e357506103c5565b600160a060020a03841660009081526101026020526040812054925082141561040c57506103c5565b6103475b6101045460005b8181101561085f576101048054829081101561000257600091825260008051602061099483398151915201541461048a5761010480546101039160009184908110156100025760008051602061099483398151915201548252506020919091526040812081815560018101829055600201555b600101610417565b60018054810190819055600160a060020a038316906002906101008110156100025790900160005081905550600160005054610102600050600084600160a060020a03168152602001908152602001600020600050819055507f994a936646fe87ffe4f1e469d3d6aa417d6b855598397f323de5b449f765f0c3826040518082600160a060020a0316815260200191505060405180910390a15b505b50565b1561052c5761053f826100fd565b1561054a575061052e565b610552610410565b60015460fa90106105675761056561057c565b505b60015460fa9010610492575061052e565b6106365b600060015b600154811015610899575b600154811080156105ac5750600281610100811015610002570154600014155b156108b95760010161058c565b156103c557600160a060020a0383166000908152610102602052604081205492508214156105e7575061052c565b6001600160005054036000600050541115610602575061052c565b600060028361010081101561000257508301819055600160a060020a03841681526101026020526040812055610578610410565b5060408051600160a060020a038516815290517f58619076adf5bb0943d100ef88d52d7c3fd691b19d3a9071b555b651fbf418da9181900360200190a1505050565b1561052c5760015482111561068d575061052e565b600082905561069a610410565b6040805183815290517facbdb084c721332ac59f9b8e392196c9eb0e4932862da8eb9beaf0dad4f550da9181900360200190a15050565b506001830154600282900a908116600014156106f057600094506106f5565b600194505b5050505092915050565b1561052c575061010555565b1561052e5760006101065550565b60008681526101036020526040812080549094509092508214156107a2578154835560018381018390556101048054918201808255828015829011610771578183600052602060002091820191016107719190610885565b5050506002840181905561010480548892908110156100025760009190915260008051602061099483398151915201555b506001820154600284900a908116600014156108b05760408051600160a060020a03331681526020810188905281517fe1c52dc63b719ade82e8bea94cc41a0d5d28e4aaf536adb5e9cccc9ff8c1aeda929181900390910190a182546001901161089d57600086815261010360205260409020600201546101048054909190811015610002576040600090812060008051602061099483398151915292909201819055808255600180830182905560029092015595506108b09050565b61010480546000808355919091526103c590600080516020610994833981519152908101905b808211156108995760008155600101610885565b5090565b8254600019018355600183018054821790555b50505050919050565b5b600180541180156108dc57506001546002906101008110156100025701546000145b156108f057600180546000190190556108ba565b600154811080156109135750600154600290610100811015610002570154600014155b801561092d57506002816101008110156100025701546000145b1561098e57600154600290610100811015610002578101549082610100811015610002578101919091558190610102906000908361010081101561000257810154825260209290925260408120929092556001546101008110156100025701555b61058156004c0be60200faa20559308cb7b5a1bb3255c16cb1cab91f525b5ae7a03d02fabe1ca012d1e4fe9ddde3d74a41df26f6ae9cdafbd84de9a250540dde1223501115e545a06fe94f044cc820985128f0660bc540f44885e9734a48e0846c83ca5f2445919fc0c0",
                "transactions" : [
                    {
                        "data" : "0x606060409081526001600081815581805533600160a060020a0316600381905581526101026020529190912055620151804204610107556109b4806100456000396000f300606060405236156100985760e060020a6000350463173825d9811461009a5780632f54bf6e146100f65780634123cb6b1461011a5780635c52c2f5146101235780637065cb4814610154578063746c917114610188578063b20d30a914610191578063b75c7dc6146101c5578063ba51a6df146101f5578063c2cf732614610229578063f00d4b5d14610269578063f1736d86146102a2575b005b6100986004356000600036436040518084848082843750505090910190815260405190819003602001902090506105b9815b600160a060020a0333166000908152610102602052604081205481808083811415610719576108b0565b6102ac6004355b600160a060020a0316600090815261010260205260408120541190565b6102ac60015481565b6100986000364360405180848480828437505050909101908152604051908190036020019020905061070b816100cc565b61009860043560003643604051808484808284375050509091019081526040519081900360200190209050610531816100cc565b6102ac60005481565b610098600435600036436040518084848082843750505090910190815260405190819003602001902090506106ff816100cc565b610098600435600160a060020a03331660009081526101026020526040812054908080838114156102be57610340565b61009860043560003643604051808484808284375050509091019081526040519081900360200190209050610678816100cc565b6102ac600435602435600082815261010360209081526040808320600160a060020a0385168452610102909252822054829081818114156106d1576106f5565b6100986004356024356000600036436040518084848082843750505090910190815260405190819003602001902090506103ca816100cc565b6102ac6101055481565b60408051918252519081900360200190f35b5050506000828152610103602052604081206001810154600284900a92908316819011156103405781546001838101805492909101845590849003905560408051600160a060020a03331681526020810187905281517fc7fb647e59b18047309aa15aad418e5d7ca96d173ad704f1031a2c3d7591734b929181900390910190a15b5050505050565b600160a060020a038316600283610100811015610002570155600160a060020a0384811660008181526101026020908152604080832083905593871680835291849020869055835192835282015281517fb532073b38c83145e3e5135377a08bf9aab55bc0fd7c1179cd4fb995d2a5159c929181900390910190a15b505b505050565b156103c3576103d8836100fd565b156103e357506103c5565b600160a060020a03841660009081526101026020526040812054925082141561040c57506103c5565b6103475b6101045460005b8181101561085f576101048054829081101561000257600091825260008051602061099483398151915201541461048a5761010480546101039160009184908110156100025760008051602061099483398151915201548252506020919091526040812081815560018101829055600201555b600101610417565b60018054810190819055600160a060020a038316906002906101008110156100025790900160005081905550600160005054610102600050600084600160a060020a03168152602001908152602001600020600050819055507f994a936646fe87ffe4f1e469d3d6aa417d6b855598397f323de5b449f765f0c3826040518082600160a060020a0316815260200191505060405180910390a15b505b50565b1561052c5761053f826100fd565b1561054a575061052e565b610552610410565b60015460fa90106105675761056561057c565b505b60015460fa9010610492575061052e565b6106365b600060015b600154811015610899575b600154811080156105ac5750600281610100811015610002570154600014155b156108b95760010161058c565b156103c557600160a060020a0383166000908152610102602052604081205492508214156105e7575061052c565b6001600160005054036000600050541115610602575061052c565b600060028361010081101561000257508301819055600160a060020a03841681526101026020526040812055610578610410565b5060408051600160a060020a038516815290517f58619076adf5bb0943d100ef88d52d7c3fd691b19d3a9071b555b651fbf418da9181900360200190a1505050565b1561052c5760015482111561068d575061052e565b600082905561069a610410565b6040805183815290517facbdb084c721332ac59f9b8e392196c9eb0e4932862da8eb9beaf0dad4f550da9181900360200190a15050565b506001830154600282900a908116600014156106f057600094506106f5565b600194505b5050505092915050565b1561052c575061010555565b1561052e5760006101065550565b60008681526101036020526040812080549094509092508214156107a2578154835560018381018390556101048054918201808255828015829011610771578183600052602060002091820191016107719190610885565b5050506002840181905561010480548892908110156100025760009190915260008051602061099483398151915201555b506001820154600284900a908116600014156108b05760408051600160a060020a03331681526020810188905281517fe1c52dc63b719ade82e8bea94cc41a0d5d28e4aaf536adb5e9cccc9ff8c1aeda929181900390910190a182546001901161089d57600086815261010360205260409020600201546101048054909190811015610002576040600090812060008051602061099483398151915292909201819055808255600180830182905560029092015595506108b09050565b61010480546000808355919091526103c590600080516020610994833981519152908101905b808211156108995760008155600101610885565b5090565b8254600019018355600183018054821790555b50505050919050565b5b600180541180156108dc57506001546002906101008110156100025701546000145b156108f057600180546000190190556108ba565b600154811080156109135750600154600290610100811015610002570154600014155b801561092d57506002816101008110156100025701546000145b1561098e57600154600290610100811015610002578101549082610100811015610002578101919091558190610102906000908361010081101561000257810154825260209290925260408120929092556001546101008110156100025701555b61058156004c0be60200faa20559308cb7b5a1bb3255c16cb1cab91f525b5ae7a03d02fabe",
                        "gasLimit" : "0x04661a",
                        "gasPrice" : "0x0a",
                        "nonce" : "0x01",
                        "r" : "0x12d1e4fe9ddde3d74a41df26f6ae9cdafbd84de9a250540dde1223501115e545",
                        "s" : "0x6fe94f044cc820985128f0660bc540f44885e9734a48e0846c83ca5f2445919f",
                        "sender" : "0xa94f5374fce5edbc8e2a8697c15331677e6ebf0b",
                        "to" : "",
                        "v" : "0x1c",
                        "value" : "0x64"
                    }
                ],
                "uncleHeaders" : [
                ],
                "withdrawals" : [
                ]
            }
        ],
        "genesisBlockHeader" : {
            "baseFeePerGas" : "0x0b",
            "blobGasUsed" : "0x00",
            "bloom" : "0x00000000000000000000000000000000000000000000000000000000000000000000000000000000000000000000000000000000000000000000000000000000000000000000000000000000000000000000000000000000000000000000000000000000000000000000000000000000000000000000000000000000000000000000000000000000000000000000000000000000000000000000000000000000000000000000000000000000000000000000000000000000000000000000000000000000000000000000000000000000000000000000000000000000000000000000000000000000000000000000000000000000000000000000000000000000",
            "coinbase" : "0x2adc25665018aa1fe0e6bc666dac8fc2697ff9ba",
            "difficulty" : "0x00",
            "excessBlobGas" : "0x060000",
            "extraData" : "0x00",
            "gasLimit" : "0x989680",
            "gasUsed" : "0x00",
            "hash" : "0xebaf851db37c78f995ee21b61cb6065f70233dc26030326802274db16b2f1379",
            "mixHash" : "0x0000000000000000000000000000000000000000000000000000000000020000",
            "nonce" : "0x0000000000000000",
            "number" : "0x00",
            "parentBeaconBlockRoot" : "0x0000000000000000000000000000000000000000000000000000000000000000",
            "parentHash" : "0x0000000000000000000000000000000000000000000000000000000000000000",
            "receiptTrie" : "0x56e81f171bcc55a6ff8345e692c0f86e5b48e01b996cadc001622fb5e363b421",
            "stateRoot" : "0xb107f448fdf6886256472dc7e71fb0d9752114b379ec3c5c9300430af079c5fe",
            "timestamp" : "0x00",
            "transactionsTrie" : "0x56e81f171bcc55a6ff8345e692c0f86e5b48e01b996cadc001622fb5e363b421",
            "uncleHash" : "0x1dcc4de8dec75d7aab85b567b6ccd41ad312451b948a7413f0a142fd40d49347",
            "withdrawalsRoot" : "0x56e81f171bcc55a6ff8345e692c0f86e5b48e01b996cadc001622fb5e363b421"
        },
        "genesisRLP" : "0xf9023ef90238a00000000000000000000000000000000000000000000000000000000000000000a01dcc4de8dec75d7aab85b567b6ccd41ad312451b948a7413f0a142fd40d49347942adc25665018aa1fe0e6bc666dac8fc2697ff9baa0b107f448fdf6886256472dc7e71fb0d9752114b379ec3c5c9300430af079c5fea056e81f171bcc55a6ff8345e692c0f86e5b48e01b996cadc001622fb5e363b421a056e81f171bcc55a6ff8345e692c0f86e5b48e01b996cadc001622fb5e363b421b9010000000000000000000000000000000000000000000000000000000000000000000000000000000000000000000000000000000000000000000000000000000000000000000000000000000000000000000000000000000000000000000000000000000000000000000000000000000000000000000000000000000000000000000000000000000000000000000000000000000000000000000000000000000000000000000000000000000000000000000000000000000000000000000000000000000000000000000000000000000000000000000000000000000000000000000000000000000000000000000000000000000000000000000000000000000000808083989680808000a000000000000000000000000000000000000000000000000000000000000200008800000000000000000ba056e81f171bcc55a6ff8345e692c0f86e5b48e01b996cadc001622fb5e363b4218083060000a00000000000000000000000000000000000000000000000000000000000000000c0c0c0",
        "lastblockhash" : "0x8ac3b8e3f2dfa82bb30d259a374a656c2c6fab4dcd76c7dafdebd2b95d6bc02d",
        "network" : "Cancun",
        "postState" : {
            "0x000f3df6d732807ef1319fb7b8bb8522d0beac02" : {
                "balance" : "0x00",
                "code" : "0x3373fffffffffffffffffffffffffffffffffffffffe14604d57602036146024575f5ffd5b5f35801560495762001fff810690815414603c575f5ffd5b62001fff01545f5260205ff35b5f5ffd5b62001fff42064281555f359062001fff015500",
                "nonce" : "0x01",
                "storage" : {
                    "0x03e8" : "0x03e8"
                }
            },
            "0xa94f5374fce5edbc8e2a8697c15331677e6ebf0b" : {
                "balance" : "0x0de0b6b3a732f38b",
                "code" : "0x",
                "nonce" : "0x02",
                "storage" : {
                }
            }
        },
        "pre" : {
            "0x000f3df6d732807ef1319fb7b8bb8522d0beac02" : {
                "balance" : "0x00",
                "code" : "0x3373fffffffffffffffffffffffffffffffffffffffe14604d57602036146024575f5ffd5b5f35801560495762001fff810690815414603c575f5ffd5b62001fff01545f5260205ff35b5f5ffd5b62001fff42064281555f359062001fff015500",
                "nonce" : "0x01",
                "storage" : {
                }
            },
            "0xa94f5374fce5edbc8e2a8697c15331677e6ebf0b" : {
                "balance" : "0x0de0b6b3a75ef08f",
                "code" : "0x",
                "nonce" : "0x01",
                "storage" : {
                }
            }
        },
        "sealEngine" : "NoProof"
    }
}