{
    "callcodecallcallcode_101_OOGMAfter_d0g0v0_Berlin" : {
        "_info" : {
            "comment" : "DELEGATE -> (CALLCODE -> DELEGATE -> CODE) OOG",
            "filling-rpc-server" : "evm version 1.10.2-unstable-22082f9e-20210309",
            "filling-tool-version" : "retesteth-0.1.0-accesslist+commit.47c69eb3.Linux.g++",
            "lllcversion" : "Version: 0.5.14-develop.2020.6.22+commit.9189ad7a.Linux.g++",
            "source" : "src/GeneralStateTestsFiller/stCallDelegateCodesCallCodeHomestead/callcodecallcallcode_101_OOGMAfterFiller.json",
            "sourceHash" : "8bf18154a91b7a2742ed72046c36d4313fb10a317aa006ca77cf8c4f3f94862b"
        },
        "genesisBlockHeader" : {
            "bloom" : "0x00000000000000000000000000000000000000000000000000000000000000000000000000000000000000000000000000000000000000000000000000000000000000000000000000000000000000000000000000000000000000000000000000000000000000000000000000000000000000000000000000000000000000000000000000000000000000000000000000000000000000000000000000000000000000000000000000000000000000000000000000000000000000000000000000000000000000000000000000000000000000000000000000000000000000000000000000000000000000000000000000000000000000000000000000000000",
            "coinbase" : "0x2adc25665018aa1fe0e6bc666dac8fc2697ff9ba",
            "difficulty" : "0x020000",
            "extraData" : "0x00",
            "gasLimit" : "0x01c9c380",
            "gasUsed" : "0x00",
            "hash" : "0x032a94837eaabd2d56bbabe423d9bece6be9b9d78eeb930f2de06615d41d0ffa",
            "mixHash" : "0x0000000000000000000000000000000000000000000000000000000000000000",
            "nonce" : "0x0000000000000000",
            "number" : "0x00",
            "parentHash" : "0x0000000000000000000000000000000000000000000000000000000000000000",
            "receiptTrie" : "0x56e81f171bcc55a6ff8345e692c0f86e5b48e01b996cadc001622fb5e363b421",
            "stateRoot" : "0x046ebedb9fd7f5ef293edea21025e0cdc0d62b55b904ae6750547e658b383a1e",
            "timestamp" : "0x00",
            "transactionsTrie" : "0x56e81f171bcc55a6ff8345e692c0f86e5b48e01b996cadc001622fb5e363b421",
            "uncleHash" : "0x1dcc4de8dec75d7aab85b567b6ccd41ad312451b948a7413f0a142fd40d49347"
        },
        "pre" : {
            "0x1000000000000000000000000000000000000000" : {
                "balance" : "0x0de0b6b3a7640000",
                "code" : "0x6040600060406000731000000000000000000000000000000000000001620c3500f46000556001600b5500",
                "nonce" : "0x00",
                "storage" : {
                }
            },
            "0x1000000000000000000000000000000000000001" : {
                "balance" : "0x00",
                "code" : "0x60406000604060006000731000000000000000000000000000000000000002620927c0f2600155622fffff60002000",
                "nonce" : "0x00",
                "storage" : {
                }
            },
            "0x1000000000000000000000000000000000000002" : {
                "balance" : "0x00",
                "code" : "0x604060006040600073100000000000000000000000000000000000000362061a80f460025500",
                "nonce" : "0x00",
                "storage" : {
                }
            },
            "0x1000000000000000000000000000000000000003" : {
                "balance" : "0x00",
                "code" : "0x600160035500",
                "nonce" : "0x00",
                "storage" : {
                }
            },
            "0xa94f5374fce5edbc8e2a8697c15331677e6ebf0b" : {
                "balance" : "0x0de0b6b3a7640000",
                "code" : "0x",
                "nonce" : "0x00",
                "storage" : {
                }
            }
        },
        "postState" : {
            "0x1000000000000000000000000000000000000000" : {
                "code" : "0x6040600060406000731000000000000000000000000000000000000001620c3500f46000556001600b5500",
                "nonce" : "0x00",
                "balance" : "0x0de0b6b3a7640000",
                "storage" : {
                    "0x0b" : "0x01"
                }
            },
            "0x1000000000000000000000000000000000000001" : {
                "code" : "0x60406000604060006000731000000000000000000000000000000000000002620927c0f2600155622fffff60002000",
                "nonce" : "0x00",
                "balance" : "0x00",
                "storage" : {
                }
            },
            "0x1000000000000000000000000000000000000002" : {
                "code" : "0x604060006040600073100000000000000000000000000000000000000362061a80f460025500",
                "nonce" : "0x00",
                "balance" : "0x00",
                "storage" : {
                }
            },
            "0x1000000000000000000000000000000000000003" : {
                "code" : "0x600160035500",
                "nonce" : "0x00",
                "balance" : "0x00",
                "storage" : {
                }
            },
            "0x2adc25665018aa1fe0e6bc666dac8fc2697ff9ba" : {
                "code" : "0x",
                "nonce" : "0x00",
                "balance" : "0x1bc16d674ed4f03d",
                "storage" : {
                }
            },
            "0xa94f5374fce5edbc8e2a8697c15331677e6ebf0b" : {
                "code" : "0x",
                "nonce" : "0x01",
                "balance" : "0x0de0b6b3a7570fc3",
                "storage" : {
                }
            }
        },
        "network" : "Berlin",
        "sealEngine" : "NoProof",
        "lastblockhash" : "0x2fa707312ac914ce620e002bb32067263e0d9fd29cf83a6f1ad27776251afe3b",
        "genesisRLP" : "0xf901f9f901f4a00000000000000000000000000000000000000000000000000000000000000000a01dcc4de8dec75d7aab85b567b6ccd41ad312451b948a7413f0a142fd40d49347942adc25665018aa1fe0e6bc666dac8fc2697ff9baa0046ebedb9fd7f5ef293edea21025e0cdc0d62b55b904ae6750547e658b383a1ea056e81f171bcc55a6ff8345e692c0f86e5b48e01b996cadc001622fb5e363b421a056e81f171bcc55a6ff8345e692c0f86e5b48e01b996cadc001622fb5e363b421b901000000000000000000000000000000000000000000000000000000000000000000000000000000000000000000000000000000000000000000000000000000000000000000000000000000000000000000000000000000000000000000000000000000000000000000000000000000000000000000000000000000000000000000000000000000000000000000000000000000000000000000000000000000000000000000000000000000000000000000000000000000000000000000000000000000000000000000000000000000000000000000000000000000000000000000000000000000000000000000000000000000000000000000000000000000000083020000808401c9c380808000a00000000000000000000000000000000000000000000000000000000000000000880000000000000000c0c0",
        "blocks" : [
            {
                "rlp" : "0xf90261f901f9a0032a94837eaabd2d56bbabe423d9bece6be9b9d78eeb930f2de06615d41d0ffaa01dcc4de8dec75d7aab85b567b6ccd41ad312451b948a7413f0a142fd40d49347942adc25665018aa1fe0e6bc666dac8fc2697ff9baa03779642a191a7095658ebb5bc52ca886d4aa9e2d7def9afee5de787dd51a5f16a0f7311c8509b7b833d73cdeedf2adbd0e49a9e3e740a0c93ca6caa45a3acbf835a044e47df55dc34ae3ccddfa7de96f696130e4084e1b3c1eb4f395cc855ae4c2a7b901000000000000000000000000000000000000000000000000000000000000000000000000000000000000000000000000000000000000000000000000000000000000000000000000000000000000000000000000000000000000000000000000000000000000000000000000000000000000000000000000000000000000000000000000000000000000000000000000000000000000000000000000000000000000000000000000000000000000000000000000000000000000000000000000000000000000000000000000000000000000000000000000000000000000000000000000000000000000000000000000000000000000000000000000000000000083020000018401c9c380830cf03d8203e800a00000000000000000000000000000000000000000000000000000000000000000880000000000000000f862f8608001830f424094100000000000000000000000000000000000000080801ca0dba91454aef4a40ec1ffc7478947b3f961bdd8f502591b01998c71d969a4e5b2a06097822fee14d0d7bc989a1ec4da1ac620c2a6345dd243e171ee7958dd293c71c0",
                "blockHeader" : {
                    "bloom" : "0x00000000000000000000000000000000000000000000000000000000000000000000000000000000000000000000000000000000000000000000000000000000000000000000000000000000000000000000000000000000000000000000000000000000000000000000000000000000000000000000000000000000000000000000000000000000000000000000000000000000000000000000000000000000000000000000000000000000000000000000000000000000000000000000000000000000000000000000000000000000000000000000000000000000000000000000000000000000000000000000000000000000000000000000000000000000",
                    "coinbase" : "0x2adc25665018aa1fe0e6bc666dac8fc2697ff9ba",
                    "difficulty" : "0x020000",
                    "extraData" : "0x00",
                    "gasLimit" : "0x01c9c380",
                    "gasUsed" : "0x0cf03d",
                    "hash" : "0x2fa707312ac914ce620e002bb32067263e0d9fd29cf83a6f1ad27776251afe3b",
                    "mixHash" : "0x0000000000000000000000000000000000000000000000000000000000000000",
                    "nonce" : "0x0000000000000000",
                    "number" : "0x01",
                    "parentHash" : "0x032a94837eaabd2d56bbabe423d9bece6be9b9d78eeb930f2de06615d41d0ffa",
                    "receiptTrie" : "0x44e47df55dc34ae3ccddfa7de96f696130e4084e1b3c1eb4f395cc855ae4c2a7",
                    "stateRoot" : "0x3779642a191a7095658ebb5bc52ca886d4aa9e2d7def9afee5de787dd51a5f16",
                    "timestamp" : "0x03e8",
                    "transactionsTrie" : "0xf7311c8509b7b833d73cdeedf2adbd0e49a9e3e740a0c93ca6caa45a3acbf835",
                    "uncleHash" : "0x1dcc4de8dec75d7aab85b567b6ccd41ad312451b948a7413f0a142fd40d49347"
                },
                "transactions" : [
                    {
                        "data" : "0x",
                        "gasLimit" : "0x0f4240",
                        "gasPrice" : "0x01",
                        "nonce" : "0x00",
                        "to" : "0x1000000000000000000000000000000000000000",
                        "value" : "0x00",
                        "v" : "0x1c",
                        "r" : "0xdba91454aef4a40ec1ffc7478947b3f961bdd8f502591b01998c71d969a4e5b2",
                        "s" : "0x6097822fee14d0d7bc989a1ec4da1ac620c2a6345dd243e171ee7958dd293c71"
                    }
                ],
                "uncleHeaders" : [
                ]
            }
        ]
    },
    "callcodecallcallcode_101_OOGMAfter_d0g0v0_Istanbul" : {
        "_info" : {
            "comment" : "DELEGATE -> (CALLCODE -> DELEGATE -> CODE) OOG",
            "filling-rpc-server" : "evm version 1.10.2-unstable-22082f9e-20210309",
            "filling-tool-version" : "retesteth-0.1.0-accesslist+commit.47c69eb3.Linux.g++",
            "lllcversion" : "Version: 0.5.14-develop.2020.6.22+commit.9189ad7a.Linux.g++",
            "source" : "src/GeneralStateTestsFiller/stCallDelegateCodesCallCodeHomestead/callcodecallcallcode_101_OOGMAfterFiller.json",
            "sourceHash" : "8bf18154a91b7a2742ed72046c36d4313fb10a317aa006ca77cf8c4f3f94862b"
        },
        "genesisBlockHeader" : {
            "bloom" : "0x00000000000000000000000000000000000000000000000000000000000000000000000000000000000000000000000000000000000000000000000000000000000000000000000000000000000000000000000000000000000000000000000000000000000000000000000000000000000000000000000000000000000000000000000000000000000000000000000000000000000000000000000000000000000000000000000000000000000000000000000000000000000000000000000000000000000000000000000000000000000000000000000000000000000000000000000000000000000000000000000000000000000000000000000000000000",
            "coinbase" : "0x2adc25665018aa1fe0e6bc666dac8fc2697ff9ba",
            "difficulty" : "0x020000",
            "extraData" : "0x00",
            "gasLimit" : "0x01c9c380",
            "gasUsed" : "0x00",
            "hash" : "0x032a94837eaabd2d56bbabe423d9bece6be9b9d78eeb930f2de06615d41d0ffa",
            "mixHash" : "0x0000000000000000000000000000000000000000000000000000000000000000",
            "nonce" : "0x0000000000000000",
            "number" : "0x00",
            "parentHash" : "0x0000000000000000000000000000000000000000000000000000000000000000",
            "receiptTrie" : "0x56e81f171bcc55a6ff8345e692c0f86e5b48e01b996cadc001622fb5e363b421",
            "stateRoot" : "0x046ebedb9fd7f5ef293edea21025e0cdc0d62b55b904ae6750547e658b383a1e",
            "timestamp" : "0x00",
            "transactionsTrie" : "0x56e81f171bcc55a6ff8345e692c0f86e5b48e01b996cadc001622fb5e363b421",
            "uncleHash" : "0x1dcc4de8dec75d7aab85b567b6ccd41ad312451b948a7413f0a142fd40d49347"
        },
        "pre" : {
            "0x1000000000000000000000000000000000000000" : {
                "balance" : "0x0de0b6b3a7640000",
                "code" : "0x6040600060406000731000000000000000000000000000000000000001620c3500f46000556001600b5500",
                "nonce" : "0x00",
                "storage" : {
                }
            },
            "0x1000000000000000000000000000000000000001" : {
                "balance" : "0x00",
                "code" : "0x60406000604060006000731000000000000000000000000000000000000002620927c0f2600155622fffff60002000",
                "nonce" : "0x00",
                "storage" : {
                }
            },
            "0x1000000000000000000000000000000000000002" : {
                "balance" : "0x00",
                "code" : "0x604060006040600073100000000000000000000000000000000000000362061a80f460025500",
                "nonce" : "0x00",
                "storage" : {
                }
            },
            "0x1000000000000000000000000000000000000003" : {
                "balance" : "0x00",
                "code" : "0x600160035500",
                "nonce" : "0x00",
                "storage" : {
                }
            },
            "0xa94f5374fce5edbc8e2a8697c15331677e6ebf0b" : {
                "balance" : "0x0de0b6b3a7640000",
                "code" : "0x",
                "nonce" : "0x00",
                "storage" : {
                }
            }
        },
        "postState" : {
            "0x1000000000000000000000000000000000000000" : {
                "code" : "0x6040600060406000731000000000000000000000000000000000000001620c3500f46000556001600b5500",
                "nonce" : "0x00",
                "balance" : "0x0de0b6b3a7640000",
                "storage" : {
                    "0x0b" : "0x01"
                }
            },
            "0x1000000000000000000000000000000000000001" : {
                "code" : "0x60406000604060006000731000000000000000000000000000000000000002620927c0f2600155622fffff60002000",
                "nonce" : "0x00",
                "balance" : "0x00",
                "storage" : {
                }
            },
            "0x1000000000000000000000000000000000000002" : {
                "code" : "0x604060006040600073100000000000000000000000000000000000000362061a80f460025500",
                "nonce" : "0x00",
                "balance" : "0x00",
                "storage" : {
                }
            },
            "0x1000000000000000000000000000000000000003" : {
                "code" : "0x600160035500",
                "nonce" : "0x00",
                "balance" : "0x00",
                "storage" : {
                }
            },
            "0x2adc25665018aa1fe0e6bc666dac8fc2697ff9ba" : {
                "code" : "0x",
                "nonce" : "0x00",
                "balance" : "0x1bc16d674ed4db25",
                "storage" : {
                }
            },
            "0xa94f5374fce5edbc8e2a8697c15331677e6ebf0b" : {
                "code" : "0x",
                "nonce" : "0x01",
                "balance" : "0x0de0b6b3a75724db",
                "storage" : {
                }
            }
        },
        "network" : "Istanbul",
        "sealEngine" : "NoProof",
        "lastblockhash" : "0x35bd37734e9e4402291fae41702b539de37cbf5449ddbddc5f6aba5b54db85d3",
        "genesisRLP" : "0xf901f9f901f4a00000000000000000000000000000000000000000000000000000000000000000a01dcc4de8dec75d7aab85b567b6ccd41ad312451b948a7413f0a142fd40d49347942adc25665018aa1fe0e6bc666dac8fc2697ff9baa0046ebedb9fd7f5ef293edea21025e0cdc0d62b55b904ae6750547e658b383a1ea056e81f171bcc55a6ff8345e692c0f86e5b48e01b996cadc001622fb5e363b421a056e81f171bcc55a6ff8345e692c0f86e5b48e01b996cadc001622fb5e363b421b901000000000000000000000000000000000000000000000000000000000000000000000000000000000000000000000000000000000000000000000000000000000000000000000000000000000000000000000000000000000000000000000000000000000000000000000000000000000000000000000000000000000000000000000000000000000000000000000000000000000000000000000000000000000000000000000000000000000000000000000000000000000000000000000000000000000000000000000000000000000000000000000000000000000000000000000000000000000000000000000000000000000000000000000000000000000083020000808401c9c380808000a00000000000000000000000000000000000000000000000000000000000000000880000000000000000c0c0",
        "blocks" : [
            {
                "rlp" : "0xf90261f901f9a0032a94837eaabd2d56bbabe423d9bece6be9b9d78eeb930f2de06615d41d0ffaa01dcc4de8dec75d7aab85b567b6ccd41ad312451b948a7413f0a142fd40d49347942adc25665018aa1fe0e6bc666dac8fc2697ff9baa040050455f83da4a57ec3c785149fa2706f181204acf5f49ea5d62ed93c7f166ea0f7311c8509b7b833d73cdeedf2adbd0e49a9e3e740a0c93ca6caa45a3acbf835a055c314ca5bdff8bedc3c5848d4076d7055887675702b5e2e15d6ee530897dfa7b901000000000000000000000000000000000000000000000000000000000000000000000000000000000000000000000000000000000000000000000000000000000000000000000000000000000000000000000000000000000000000000000000000000000000000000000000000000000000000000000000000000000000000000000000000000000000000000000000000000000000000000000000000000000000000000000000000000000000000000000000000000000000000000000000000000000000000000000000000000000000000000000000000000000000000000000000000000000000000000000000000000000000000000000000000000000083020000018401c9c380830cdb258203e800a00000000000000000000000000000000000000000000000000000000000000000880000000000000000f862f8608001830f424094100000000000000000000000000000000000000080801ca0dba91454aef4a40ec1ffc7478947b3f961bdd8f502591b01998c71d969a4e5b2a06097822fee14d0d7bc989a1ec4da1ac620c2a6345dd243e171ee7958dd293c71c0",
                "blockHeader" : {
                    "bloom" : "0x00000000000000000000000000000000000000000000000000000000000000000000000000000000000000000000000000000000000000000000000000000000000000000000000000000000000000000000000000000000000000000000000000000000000000000000000000000000000000000000000000000000000000000000000000000000000000000000000000000000000000000000000000000000000000000000000000000000000000000000000000000000000000000000000000000000000000000000000000000000000000000000000000000000000000000000000000000000000000000000000000000000000000000000000000000000",
                    "coinbase" : "0x2adc25665018aa1fe0e6bc666dac8fc2697ff9ba",
                    "difficulty" : "0x020000",
                    "extraData" : "0x00",
                    "gasLimit" : "0x01c9c380",
                    "gasUsed" : "0x0cdb25",
                    "hash" : "0x35bd37734e9e4402291fae41702b539de37cbf5449ddbddc5f6aba5b54db85d3",
                    "mixHash" : "0x0000000000000000000000000000000000000000000000000000000000000000",
                    "nonce" : "0x0000000000000000",
                    "number" : "0x01",
                    "parentHash" : "0x032a94837eaabd2d56bbabe423d9bece6be9b9d78eeb930f2de06615d41d0ffa",
                    "receiptTrie" : "0x55c314ca5bdff8bedc3c5848d4076d7055887675702b5e2e15d6ee530897dfa7",
                    "stateRoot" : "0x40050455f83da4a57ec3c785149fa2706f181204acf5f49ea5d62ed93c7f166e",
                    "timestamp" : "0x03e8",
                    "transactionsTrie" : "0xf7311c8509b7b833d73cdeedf2adbd0e49a9e3e740a0c93ca6caa45a3acbf835",
                    "uncleHash" : "0x1dcc4de8dec75d7aab85b567b6ccd41ad312451b948a7413f0a142fd40d49347"
                },
                "transactions" : [
                    {
                        "data" : "0x",
                        "gasLimit" : "0x0f4240",
                        "gasPrice" : "0x01",
                        "nonce" : "0x00",
                        "to" : "0x1000000000000000000000000000000000000000",
                        "value" : "0x00",
                        "v" : "0x1c",
                        "r" : "0xdba91454aef4a40ec1ffc7478947b3f961bdd8f502591b01998c71d969a4e5b2",
                        "s" : "0x6097822fee14d0d7bc989a1ec4da1ac620c2a6345dd243e171ee7958dd293c71"
                    }
                ],
                "uncleHeaders" : [
                ]
            }
        ]
    }
}