{
    "extCodeHashDeletedAccount1_d0g0v0_ConstantinopleFix" : {
        "_info" : {
            "comment" : "1) Account A already exists in the state and contains code\nCall to Account B do the following:\n- stores Account A code hash to 1\n- stores Account A code size to 2\n- stores Account A code to 3\n- Run selfdestruct on A\n- stores Account A code hash to 4\n- stores Account A code size to 5\n- stores Account A code to 6\n",
            "filling-rpc-server" : "Geth-1.9.3-unstable-d5bd3838-20190830",
            "filling-tool-version" : "retesteth-0.0.1+commit.222e3073.Linux.g++",
            "lllcversion" : "Version: 0.5.0-develop.2019.8.22+commit.9709dfe0.Linux.g++",
            "source" : "src/GeneralStateTestsFiller/stExtCodeHash/extCodeHashDeletedAccount1Filler.yml",
            "sourceHash" : "9c4431bbc27d8a14fa0002fdcad7ce024b3b36de00b3ff9aee37f431a2dc6ea6"
        },
        "genesisBlockHeader" : {
            "bloom" : "0x00000000000000000000000000000000000000000000000000000000000000000000000000000000000000000000000000000000000000000000000000000000000000000000000000000000000000000000000000000000000000000000000000000000000000000000000000000000000000000000000000000000000000000000000000000000000000000000000000000000000000000000000000000000000000000000000000000000000000000000000000000000000000000000000000000000000000000000000000000000000000000000000000000000000000000000000000000000000000000000000000000000000000000000000000000000",
            "coinbase" : "0x2adc25665018aa1fe0e6bc666dac8fc2697ff9ba",
            "difficulty" : "0x20000",
            "extraData" : "0x00",
            "gasLimit" : "0xf4240",
            "gasUsed" : "0x0",
            "hash" : "0x0f7536f5ae88f684d6db6efddea622c08ff93d21ad7270227c25cb3b94096684",
            "mixHash" : "0x0000000000000000000000000000000000000000000000000000000000000000",
            "nonce" : "0x0000000000000000",
            "number" : "0x0",
            "parentHash" : "0x0000000000000000000000000000000000000000000000000000000000000000",
            "receiptTrie" : "0x56e81f171bcc55a6ff8345e692c0f86e5b48e01b996cadc001622fb5e363b421",
            "stateRoot" : "0x379d5e04f46b3201d569aecd47a468358f2d41bc32a635a0abc4ddd2d08cff42",
            "timestamp" : "0x0",
            "transactionsTrie" : "0x56e81f171bcc55a6ff8345e692c0f86e5b48e01b996cadc001622fb5e363b421",
            "uncleHash" : "0x1dcc4de8dec75d7aab85b567b6ccd41ad312451b948a7413f0a142fd40d49347"
        },
        "pre" : {
            "0x095e7baea6a6c7c4c2dfeb977efac326af552d87" : {
                "balance" : "0x0de0b6b3a7640000",
                "code" : "0x6020600060006000600073bbbbbbbb0000000000000000000000000000000062027100f1",
                "nonce" : "0x00",
                "storage" : {
                }
            },
            "0xa94f5374fce5edbc8e2a8697c15331677e6ebf0b" : {
                "balance" : "0x0de0b6b3a7640000",
                "code" : "0x00",
                "nonce" : "0x00",
                "storage" : {
                }
            },
            "0xaaaaaaaa00000000000000000000000000000000" : {
                "balance" : "0x0de0b6b3a7640000",
                "code" : "0x73deadbeef0000000000000000000000000000000031ff",
                "nonce" : "0x00",
                "storage" : {
                }
            },
            "0xbbbbbbbb00000000000000000000000000000000" : {
                "balance" : "0x0de0b6b3a7640000",
                "code" : "0x73aaaaaaaa000000000000000000000000000000003f60015573aaaaaaaa000000000000000000000000000000003b6002556002546000600073aaaaaaaa000000000000000000000000000000003c6000516003556020600060006000600073aaaaaaaa00000000000000000000000000000000620249f0f15073aaaaaaaa000000000000000000000000000000003f60045573aaaaaaaa000000000000000000000000000000003b6005556005546000602073aaaaaaaa000000000000000000000000000000003c602051600655",
                "nonce" : "0x00",
                "storage" : {
                }
            }
        },
        "postState" : {
            "0xa94f5374fce5edbc8e2a8697c15331677e6ebf0b" : {
                "code" : "0x00",
                "nonce" : "0x01",
                "balance" : "0x0de0b6b3a761aa9f",
                "storage" : {
                }
            },
            "0x095e7baea6a6c7c4c2dfeb977efac326af552d87" : {
                "code" : "0x6020600060006000600073bbbbbbbb0000000000000000000000000000000062027100f1",
                "nonce" : "0x00",
                "balance" : "0x0de0b6b3a7640001",
                "storage" : {
                }
            },
            "0x0000000000000000000000000000000000000000" : {
                "code" : "0x",
                "nonce" : "0x00",
                "balance" : "0x0de0b6b3a7640000",
                "storage" : {
                }
            },
            "0xbbbbbbbb00000000000000000000000000000000" : {
                "code" : "0x73aaaaaaaa000000000000000000000000000000003f60015573aaaaaaaa000000000000000000000000000000003b6002556002546000600073aaaaaaaa000000000000000000000000000000003c6000516003556020600060006000600073aaaaaaaa00000000000000000000000000000000620249f0f15073aaaaaaaa000000000000000000000000000000003f60045573aaaaaaaa000000000000000000000000000000003b6005556005546000602073aaaaaaaa000000000000000000000000000000003c602051600655",
                "nonce" : "0x00",
                "balance" : "0x0de0b6b3a7640000",
                "storage" : {
                    "0x05" : "0x17",
                    "0x02" : "0x17",
                    "0x04" : "0x9dff858fbcae72e5644a465fa893f46deb3e03b9cd5a8b531109cd577f7fb293",
                    "0x01" : "0x9dff858fbcae72e5644a465fa893f46deb3e03b9cd5a8b531109cd577f7fb293",
                    "0x03" : "0x73deadbeef0000000000000000000000000000000031ff000000000000000000",
                    "0x06" : "0x73deadbeef0000000000000000000000000000000031ff000000000000000000"
                }
            },
            "0x2adc25665018aa1fe0e6bc666dac8fc2697ff9ba" : {
                "code" : "0x",
                "nonce" : "0x00",
                "balance" : "0x1bc16d674eca5560",
                "storage" : {
                }
            }
        },
        "network" : "ConstantinopleFix",
        "sealEngine" : "NoProof",
        "lastblockhash" : "0xa1217fab2dbb2b0a2dc5176b047fd415169063e5fcc25b921319450d5f3023a2",
        "genesisRLP" : "0xf901f8f901f3a00000000000000000000000000000000000000000000000000000000000000000a01dcc4de8dec75d7aab85b567b6ccd41ad312451b948a7413f0a142fd40d49347942adc25665018aa1fe0e6bc666dac8fc2697ff9baa0379d5e04f46b3201d569aecd47a468358f2d41bc32a635a0abc4ddd2d08cff42a056e81f171bcc55a6ff8345e692c0f86e5b48e01b996cadc001622fb5e363b421a056e81f171bcc55a6ff8345e692c0f86e5b48e01b996cadc001622fb5e363b421b90100000000000000000000000000000000000000000000000000000000000000000000000000000000000000000000000000000000000000000000000000000000000000000000000000000000000000000000000000000000000000000000000000000000000000000000000000000000000000000000000000000000000000000000000000000000000000000000000000000000000000000000000000000000000000000000000000000000000000000000000000000000000000000000000000000000000000000000000000000000000000000000000000000000000000000000000000000000000000000000000000000000000000000000000000000000008302000080830f4240808000a00000000000000000000000000000000000000000000000000000000000000000880000000000000000c0c0",
        "blocks" : [
            {
                "rlp" : "0xf90260f901f8a00f7536f5ae88f684d6db6efddea622c08ff93d21ad7270227c25cb3b94096684a01dcc4de8dec75d7aab85b567b6ccd41ad312451b948a7413f0a142fd40d49347942adc25665018aa1fe0e6bc666dac8fc2697ff9baa073c642921e5894089ff437f1caf0cf3242f6e0b1e021ae72bd15f81095774adfa0f2fde0741a86c3f5b87ccee3cce6faafd15be92989188f40919cb13422672757a07da7dba1adf5079147bc5562a1a0d126bde1a246b6aac81eb3a890e3d67e83f1b90100000000000000000000000000000000000000000000000000000000000000000000000000000000000000000000000000000000000000000000000000000000000000000000000000000000000000000000000000000000000000000000000000000000000000000000000000000000000000000000000000000000000000000000000000000000000000000000000000000000000000000000000000000000000000000000000000000000000000000000000000000000000000000000000000000000000000000000000000000000000000000000000000000000000000000000000000000000000000000000000000000000000000000000000000000000008302000001830f460f830255608203e800a00000000000000000000000000000000000000000000000000000000000000000880000000000000000f862f860800183061a8094095e7baea6a6c7c4c2dfeb977efac326af552d8701801ca0ae29a79903b187c6d075320f9834a330b5134244c7fb0476eba58cd87b175fd6a027a8f85308f5f08f4e2f6b2e23d9dcfd740108f8f96517e50c9e1dc86288a673c0",
                "blockHeader" : {
                    "bloom" : "0x00000000000000000000000000000000000000000000000000000000000000000000000000000000000000000000000000000000000000000000000000000000000000000000000000000000000000000000000000000000000000000000000000000000000000000000000000000000000000000000000000000000000000000000000000000000000000000000000000000000000000000000000000000000000000000000000000000000000000000000000000000000000000000000000000000000000000000000000000000000000000000000000000000000000000000000000000000000000000000000000000000000000000000000000000000000",
                    "coinbase" : "0x2adc25665018aa1fe0e6bc666dac8fc2697ff9ba",
                    "difficulty" : "0x20000",
                    "extraData" : "0x00",
                    "gasLimit" : "0xf460f",
                    "gasUsed" : "0x25560",
                    "hash" : "0xa1217fab2dbb2b0a2dc5176b047fd415169063e5fcc25b921319450d5f3023a2",
                    "mixHash" : "0x0000000000000000000000000000000000000000000000000000000000000000",
                    "nonce" : "0x0000000000000000",
                    "number" : "0x1",
                    "parentHash" : "0x0f7536f5ae88f684d6db6efddea622c08ff93d21ad7270227c25cb3b94096684",
                    "receiptTrie" : "0x7da7dba1adf5079147bc5562a1a0d126bde1a246b6aac81eb3a890e3d67e83f1",
                    "stateRoot" : "0x73c642921e5894089ff437f1caf0cf3242f6e0b1e021ae72bd15f81095774adf",
                    "timestamp" : "0x3e8",
                    "transactionsTrie" : "0xf2fde0741a86c3f5b87ccee3cce6faafd15be92989188f40919cb13422672757",
                    "uncleHash" : "0x1dcc4de8dec75d7aab85b567b6ccd41ad312451b948a7413f0a142fd40d49347"
                },
                "transactions" : [
                    {
                        "data" : "0x",
                        "gasLimit" : "0x061a80",
                        "gasPrice" : "0x01",
                        "nonce" : "0x00",
                        "secretKey" : "0x45a915e4d060149eb4365960e6a7a45f334393093061116b197e3240065ff2d8",
                        "to" : "0x095e7baea6a6c7c4c2dfeb977efac326af552d87",
                        "value" : "0x01"
                    }
                ]
            }
        ]
    }
}