{
    "extCodeHashSubcallSuicide_d0g0v0_Berlin" : {
        "_info" : {
            "comment" : "transaction to B | B call to A | A delegatecall/callcode to C (C has selfdestruct) | A selfdestructed. returned to B. now we could check extcodehash of A (in account B code)",
            "filling-rpc-server" : "evm version 1.10.16-unstable-0f893109-20220105",
            "filling-tool-version" : "retesteth-0.2.2-testinfo+commit.01c6aac2.Linux.g++",
            "generatedTestHash" : "d2c2f0559d7b6793c63fb9e658770c09e0010936018a28a72a1715b35af62f63",
            "lllcversion" : "Version: 0.5.14-develop.2021.11.27+commit.401d5358.Linux.g++",
            "solidity" : "Version: 0.8.5+commit.a4f2e591.Linux.g++",
            "source" : "src/GeneralStateTestsFiller/stExtCodeHash/extCodeHashSubcallSuicideFiller.yml",
            "sourceHash" : "d7d0933fa442611a84ec364a3eaa7d74c5d8368d07ed36731052fdbf334a5e2d"
        },
        "blocks" : [
            {
                "blockHeader" : {
                    "bloom" : "0x00000000000000000000000000000000000000000000000000000000000000000000000000000000000000000000000000000000000000000000000000000000000000000000000000000000000000000000000000000000000000000000000000000000000000000000000000000000000000000000000000000000000000000000000000000000000000000000000000000000000000000000000000000000000000000000000000000000000000000000000000000000000000000000000000000000000000000000000000000000000000000000000000000000000000000000000000000000000000000000000000000000000000000000000000000000",
                    "coinbase" : "0x2adc25665018aa1fe0e6bc666dac8fc2697ff9ba",
                    "difficulty" : "0x020000",
                    "extraData" : "0x00",
                    "gasLimit" : "0x989680",
                    "gasUsed" : "0x028fc4",
                    "hash" : "0xa927de64c76dd32fa645007e0c27b1afceca26324f648e007a08ae6299c1fe40",
                    "mixHash" : "0x0000000000000000000000000000000000000000000000000000000000000000",
                    "nonce" : "0x0000000000000000",
                    "number" : "0x01",
                    "parentHash" : "0x4f89f478a1a3be63944df83a4752cebb75eab64b862a6e7690f6308247fd4ec2",
                    "receiptTrie" : "0x1217cf0f2ebc9c7a661d18abab1865cbf0c599263dfc6e350c03c6fa619717bf",
                    "stateRoot" : "0x1d1068979b55eccab7d07e994cde7a58553825f053d38d859912d6711d6dd812",
                    "timestamp" : "0x03e8",
                    "transactionsTrie" : "0x2565e2f1e35bebd5a681eac42515b5cb6c4e4ded7c4f213397f0c31f32af80b5",
                    "uncleHash" : "0x1dcc4de8dec75d7aab85b567b6ccd41ad312451b948a7413f0a142fd40d49347"
                },
                "rlp" : "0xf90260f901f8a04f89f478a1a3be63944df83a4752cebb75eab64b862a6e7690f6308247fd4ec2a01dcc4de8dec75d7aab85b567b6ccd41ad312451b948a7413f0a142fd40d49347942adc25665018aa1fe0e6bc666dac8fc2697ff9baa01d1068979b55eccab7d07e994cde7a58553825f053d38d859912d6711d6dd812a02565e2f1e35bebd5a681eac42515b5cb6c4e4ded7c4f213397f0c31f32af80b5a01217cf0f2ebc9c7a661d18abab1865cbf0c599263dfc6e350c03c6fa619717bfb901000000000000000000000000000000000000000000000000000000000000000000000000000000000000000000000000000000000000000000000000000000000000000000000000000000000000000000000000000000000000000000000000000000000000000000000000000000000000000000000000000000000000000000000000000000000000000000000000000000000000000000000000000000000000000000000000000000000000000000000000000000000000000000000000000000000000000000000000000000000000000000000000000000000000000000000000000000000000000000000000000000000000000000000000000000000083020000018398968083028fc48203e800a00000000000000000000000000000000000000000000000000000000000000000880000000000000000f862f860800a8307a12094b00000000000000000000000000000000000000001801ca0d8e6d3c19b21e9f96f6bef54c1ea9331c55247a3a9ac863ef311adbac7de4ceea07e1be33933cee04eb197f8a44efca7d1356f81ac7030c4d902090cda90e13225c0",
                "transactions" : [
                    {
                        "data" : "0x",
                        "gasLimit" : "0x07a120",
                        "gasPrice" : "0x0a",
                        "nonce" : "0x00",
                        "r" : "0xd8e6d3c19b21e9f96f6bef54c1ea9331c55247a3a9ac863ef311adbac7de4cee",
                        "s" : "0x7e1be33933cee04eb197f8a44efca7d1356f81ac7030c4d902090cda90e13225",
                        "sender" : "0xa94f5374fce5edbc8e2a8697c15331677e6ebf0b",
                        "to" : "0xb000000000000000000000000000000000000000",
                        "v" : "0x1c",
                        "value" : "0x01"
                    }
                ],
                "uncleHeaders" : [
                ]
            }
        ],
        "genesisBlockHeader" : {
            "bloom" : "0x00000000000000000000000000000000000000000000000000000000000000000000000000000000000000000000000000000000000000000000000000000000000000000000000000000000000000000000000000000000000000000000000000000000000000000000000000000000000000000000000000000000000000000000000000000000000000000000000000000000000000000000000000000000000000000000000000000000000000000000000000000000000000000000000000000000000000000000000000000000000000000000000000000000000000000000000000000000000000000000000000000000000000000000000000000000",
            "coinbase" : "0x2adc25665018aa1fe0e6bc666dac8fc2697ff9ba",
            "difficulty" : "0x020000",
            "extraData" : "0x00",
            "gasLimit" : "0x989680",
            "gasUsed" : "0x00",
            "hash" : "0x4f89f478a1a3be63944df83a4752cebb75eab64b862a6e7690f6308247fd4ec2",
            "mixHash" : "0x0000000000000000000000000000000000000000000000000000000000000000",
            "nonce" : "0x0000000000000000",
            "number" : "0x00",
            "parentHash" : "0x0000000000000000000000000000000000000000000000000000000000000000",
            "receiptTrie" : "0x56e81f171bcc55a6ff8345e692c0f86e5b48e01b996cadc001622fb5e363b421",
            "stateRoot" : "0xda2e99732bb608975d544bb491a852c5708661839678382f1b80f52f48ff0256",
            "timestamp" : "0x00",
            "transactionsTrie" : "0x56e81f171bcc55a6ff8345e692c0f86e5b48e01b996cadc001622fb5e363b421",
            "uncleHash" : "0x1dcc4de8dec75d7aab85b567b6ccd41ad312451b948a7413f0a142fd40d49347"
        },
        "genesisRLP" : "0xf901f8f901f3a00000000000000000000000000000000000000000000000000000000000000000a01dcc4de8dec75d7aab85b567b6ccd41ad312451b948a7413f0a142fd40d49347942adc25665018aa1fe0e6bc666dac8fc2697ff9baa0da2e99732bb608975d544bb491a852c5708661839678382f1b80f52f48ff0256a056e81f171bcc55a6ff8345e692c0f86e5b48e01b996cadc001622fb5e363b421a056e81f171bcc55a6ff8345e692c0f86e5b48e01b996cadc001622fb5e363b421b9010000000000000000000000000000000000000000000000000000000000000000000000000000000000000000000000000000000000000000000000000000000000000000000000000000000000000000000000000000000000000000000000000000000000000000000000000000000000000000000000000000000000000000000000000000000000000000000000000000000000000000000000000000000000000000000000000000000000000000000000000000000000000000000000000000000000000000000000000000000000000000000000000000000000000000000000000000000000000000000000000000000000000000000000000000000000830200008083989680808000a00000000000000000000000000000000000000000000000000000000000000000880000000000000000c0c0",
        "lastblockhash" : "0xa927de64c76dd32fa645007e0c27b1afceca26324f648e007a08ae6299c1fe40",
        "network" : "Berlin",
        "postState" : {
            "0x2adc25665018aa1fe0e6bc666dac8fc2697ff9ba" : {
                "balance" : "0x1bc16d674ee19da8",
                "code" : "0x",
                "nonce" : "0x00",
                "storage" : {
                }
            },
            "0xa94f5374fce5edbc8e2a8697c15331677e6ebf0b" : {
                "balance" : "0x1bc16d674eae6257",
                "code" : "0x",
                "nonce" : "0x01",
                "storage" : {
                }
            },
            "0xb000000000000000000000000000000000000000" : {
                "balance" : "0x0de0b6b3a7640001",
                "code" : "0x73a0000000000000000000000000000000000000003f60015573a0000000000000000000000000000000000000003b60025560206000600073a0000000000000000000000000000000000000003c6000516003556020600060006000600073a00000000000000000000000000000000000000062055730f15073a0000000000000000000000000000000000000003f60045573a0000000000000000000000000000000000000003b60055560206000600073a0000000000000000000000000000000000000003c6000516006556020600060006000600073a00000000000000000000000000000000000000062055730f160075500",
                "nonce" : "0x00",
                "storage" : {
                    "0x01" : "0x367d3c0e810bbdebc72c25e80dcb9a337c7c87e3a36e6fae87d1d51b3c745d24",
                    "0x02" : "0x25",
                    "0x03" : "0x6020600060006000600073c00000000000000000000000000000000000000062",
                    "0x04" : "0x367d3c0e810bbdebc72c25e80dcb9a337c7c87e3a36e6fae87d1d51b3c745d24",
                    "0x05" : "0x25",
                    "0x06" : "0x6020600060006000600073c00000000000000000000000000000000000000062",
                    "0x07" : "0x01"
                }
            },
            "0xc000000000000000000000000000000000000000" : {
                "balance" : "0x0de0b6b3a7640000",
                "code" : "0x73a94f5374fce5edbc8e2a8697c15331677e6ebf0bff00",
                "nonce" : "0x00",
                "storage" : {
                }
            }
        },
        "pre" : {
            "0xa000000000000000000000000000000000000000" : {
                "balance" : "0x0de0b6b3a7640000",
                "code" : "0x6020600060006000600073c00000000000000000000000000000000000000062055730f200",
                "nonce" : "0x00",
                "storage" : {
                }
            },
            "0xa94f5374fce5edbc8e2a8697c15331677e6ebf0b" : {
                "balance" : "0x0de0b6b3a7640000",
                "code" : "0x",
                "nonce" : "0x00",
                "storage" : {
                }
            },
            "0xb000000000000000000000000000000000000000" : {
                "balance" : "0x0de0b6b3a7640000",
                "code" : "0x73a0000000000000000000000000000000000000003f60015573a0000000000000000000000000000000000000003b60025560206000600073a0000000000000000000000000000000000000003c6000516003556020600060006000600073a00000000000000000000000000000000000000062055730f15073a0000000000000000000000000000000000000003f60045573a0000000000000000000000000000000000000003b60055560206000600073a0000000000000000000000000000000000000003c6000516006556020600060006000600073a00000000000000000000000000000000000000062055730f160075500",
                "nonce" : "0x00",
                "storage" : {
                }
            },
            "0xc000000000000000000000000000000000000000" : {
                "balance" : "0x0de0b6b3a7640000",
                "code" : "0x73a94f5374fce5edbc8e2a8697c15331677e6ebf0bff00",
                "nonce" : "0x00",
                "storage" : {
                }
            }
        },
        "sealEngine" : "NoProof"
    },
    "extCodeHashSubcallSuicide_d0g0v0_Istanbul" : {
        "_info" : {
            "comment" : "transaction to B | B call to A | A delegatecall/callcode to C (C has selfdestruct) | A selfdestructed. returned to B. now we could check extcodehash of A (in account B code)",
            "filling-rpc-server" : "evm version 1.10.16-unstable-0f893109-20220105",
            "filling-tool-version" : "retesteth-0.2.2-testinfo+commit.01c6aac2.Linux.g++",
            "generatedTestHash" : "c2d95e6f244659cbf5bb1fa688e59b82d5f46d6a989fe4a2000e74286d97d433",
            "lllcversion" : "Version: 0.5.14-develop.2021.11.27+commit.401d5358.Linux.g++",
            "solidity" : "Version: 0.8.5+commit.a4f2e591.Linux.g++",
            "source" : "src/GeneralStateTestsFiller/stExtCodeHash/extCodeHashSubcallSuicideFiller.yml",
            "sourceHash" : "d7d0933fa442611a84ec364a3eaa7d74c5d8368d07ed36731052fdbf334a5e2d"
        },
        "blocks" : [
            {
                "blockHeader" : {
                    "bloom" : "0x00000000000000000000000000000000000000000000000000000000000000000000000000000000000000000000000000000000000000000000000000000000000000000000000000000000000000000000000000000000000000000000000000000000000000000000000000000000000000000000000000000000000000000000000000000000000000000000000000000000000000000000000000000000000000000000000000000000000000000000000000000000000000000000000000000000000000000000000000000000000000000000000000000000000000000000000000000000000000000000000000000000000000000000000000000000",
                    "coinbase" : "0x2adc25665018aa1fe0e6bc666dac8fc2697ff9ba",
                    "difficulty" : "0x020000",
                    "extraData" : "0x00",
                    "gasLimit" : "0x989680",
                    "gasUsed" : "0x025a40",
                    "hash" : "0xff563adb6ab4f04511a093881f735d5e2e857911b5bad953ae68f33bbae77810",
                    "mixHash" : "0x0000000000000000000000000000000000000000000000000000000000000000",
                    "nonce" : "0x0000000000000000",
                    "number" : "0x01",
                    "parentHash" : "0x4f89f478a1a3be63944df83a4752cebb75eab64b862a6e7690f6308247fd4ec2",
                    "receiptTrie" : "0x3c0bbc5b7190eed536ba050ac8db5f3f8a6edae11990bf0476845b68c7e21b3e",
                    "stateRoot" : "0x2c09c59323b790c88b546e2f8f75cd0d10b33e13c474010f5d6b2adf54dfde77",
                    "timestamp" : "0x03e8",
                    "transactionsTrie" : "0x2565e2f1e35bebd5a681eac42515b5cb6c4e4ded7c4f213397f0c31f32af80b5",
                    "uncleHash" : "0x1dcc4de8dec75d7aab85b567b6ccd41ad312451b948a7413f0a142fd40d49347"
                },
                "rlp" : "0xf90260f901f8a04f89f478a1a3be63944df83a4752cebb75eab64b862a6e7690f6308247fd4ec2a01dcc4de8dec75d7aab85b567b6ccd41ad312451b948a7413f0a142fd40d49347942adc25665018aa1fe0e6bc666dac8fc2697ff9baa02c09c59323b790c88b546e2f8f75cd0d10b33e13c474010f5d6b2adf54dfde77a02565e2f1e35bebd5a681eac42515b5cb6c4e4ded7c4f213397f0c31f32af80b5a03c0bbc5b7190eed536ba050ac8db5f3f8a6edae11990bf0476845b68c7e21b3eb901000000000000000000000000000000000000000000000000000000000000000000000000000000000000000000000000000000000000000000000000000000000000000000000000000000000000000000000000000000000000000000000000000000000000000000000000000000000000000000000000000000000000000000000000000000000000000000000000000000000000000000000000000000000000000000000000000000000000000000000000000000000000000000000000000000000000000000000000000000000000000000000000000000000000000000000000000000000000000000000000000000000000000000000000000000000083020000018398968083025a408203e800a00000000000000000000000000000000000000000000000000000000000000000880000000000000000f862f860800a8307a12094b00000000000000000000000000000000000000001801ca0d8e6d3c19b21e9f96f6bef54c1ea9331c55247a3a9ac863ef311adbac7de4ceea07e1be33933cee04eb197f8a44efca7d1356f81ac7030c4d902090cda90e13225c0",
                "transactions" : [
                    {
                        "data" : "0x",
                        "gasLimit" : "0x07a120",
                        "gasPrice" : "0x0a",
                        "nonce" : "0x00",
                        "r" : "0xd8e6d3c19b21e9f96f6bef54c1ea9331c55247a3a9ac863ef311adbac7de4cee",
                        "s" : "0x7e1be33933cee04eb197f8a44efca7d1356f81ac7030c4d902090cda90e13225",
                        "sender" : "0xa94f5374fce5edbc8e2a8697c15331677e6ebf0b",
                        "to" : "0xb000000000000000000000000000000000000000",
                        "v" : "0x1c",
                        "value" : "0x01"
                    }
                ],
                "uncleHeaders" : [
                ]
            }
        ],
        "genesisBlockHeader" : {
            "bloom" : "0x00000000000000000000000000000000000000000000000000000000000000000000000000000000000000000000000000000000000000000000000000000000000000000000000000000000000000000000000000000000000000000000000000000000000000000000000000000000000000000000000000000000000000000000000000000000000000000000000000000000000000000000000000000000000000000000000000000000000000000000000000000000000000000000000000000000000000000000000000000000000000000000000000000000000000000000000000000000000000000000000000000000000000000000000000000000",
            "coinbase" : "0x2adc25665018aa1fe0e6bc666dac8fc2697ff9ba",
            "difficulty" : "0x020000",
            "extraData" : "0x00",
            "gasLimit" : "0x989680",
            "gasUsed" : "0x00",
            "hash" : "0x4f89f478a1a3be63944df83a4752cebb75eab64b862a6e7690f6308247fd4ec2",
            "mixHash" : "0x0000000000000000000000000000000000000000000000000000000000000000",
            "nonce" : "0x0000000000000000",
            "number" : "0x00",
            "parentHash" : "0x0000000000000000000000000000000000000000000000000000000000000000",
            "receiptTrie" : "0x56e81f171bcc55a6ff8345e692c0f86e5b48e01b996cadc001622fb5e363b421",
            "stateRoot" : "0xda2e99732bb608975d544bb491a852c5708661839678382f1b80f52f48ff0256",
            "timestamp" : "0x00",
            "transactionsTrie" : "0x56e81f171bcc55a6ff8345e692c0f86e5b48e01b996cadc001622fb5e363b421",
            "uncleHash" : "0x1dcc4de8dec75d7aab85b567b6ccd41ad312451b948a7413f0a142fd40d49347"
        },
        "genesisRLP" : "0xf901f8f901f3a00000000000000000000000000000000000000000000000000000000000000000a01dcc4de8dec75d7aab85b567b6ccd41ad312451b948a7413f0a142fd40d49347942adc25665018aa1fe0e6bc666dac8fc2697ff9baa0da2e99732bb608975d544bb491a852c5708661839678382f1b80f52f48ff0256a056e81f171bcc55a6ff8345e692c0f86e5b48e01b996cadc001622fb5e363b421a056e81f171bcc55a6ff8345e692c0f86e5b48e01b996cadc001622fb5e363b421b9010000000000000000000000000000000000000000000000000000000000000000000000000000000000000000000000000000000000000000000000000000000000000000000000000000000000000000000000000000000000000000000000000000000000000000000000000000000000000000000000000000000000000000000000000000000000000000000000000000000000000000000000000000000000000000000000000000000000000000000000000000000000000000000000000000000000000000000000000000000000000000000000000000000000000000000000000000000000000000000000000000000000000000000000000000000000830200008083989680808000a00000000000000000000000000000000000000000000000000000000000000000880000000000000000c0c0",
        "lastblockhash" : "0xff563adb6ab4f04511a093881f735d5e2e857911b5bad953ae68f33bbae77810",
        "network" : "Istanbul",
        "postState" : {
            "0x2adc25665018aa1fe0e6bc666dac8fc2697ff9ba" : {
                "balance" : "0x1bc16d674edf8680",
                "code" : "0x",
                "nonce" : "0x00",
                "storage" : {
                }
            },
            "0xa94f5374fce5edbc8e2a8697c15331677e6ebf0b" : {
                "balance" : "0x1bc16d674eb0797f",
                "code" : "0x",
                "nonce" : "0x01",
                "storage" : {
                }
            },
            "0xb000000000000000000000000000000000000000" : {
                "balance" : "0x0de0b6b3a7640001",
                "code" : "0x73a0000000000000000000000000000000000000003f60015573a0000000000000000000000000000000000000003b60025560206000600073a0000000000000000000000000000000000000003c6000516003556020600060006000600073a00000000000000000000000000000000000000062055730f15073a0000000000000000000000000000000000000003f60045573a0000000000000000000000000000000000000003b60055560206000600073a0000000000000000000000000000000000000003c6000516006556020600060006000600073a00000000000000000000000000000000000000062055730f160075500",
                "nonce" : "0x00",
                "storage" : {
                    "0x01" : "0x367d3c0e810bbdebc72c25e80dcb9a337c7c87e3a36e6fae87d1d51b3c745d24",
                    "0x02" : "0x25",
                    "0x03" : "0x6020600060006000600073c00000000000000000000000000000000000000062",
                    "0x04" : "0x367d3c0e810bbdebc72c25e80dcb9a337c7c87e3a36e6fae87d1d51b3c745d24",
                    "0x05" : "0x25",
                    "0x06" : "0x6020600060006000600073c00000000000000000000000000000000000000062",
                    "0x07" : "0x01"
                }
            },
            "0xc000000000000000000000000000000000000000" : {
                "balance" : "0x0de0b6b3a7640000",
                "code" : "0x73a94f5374fce5edbc8e2a8697c15331677e6ebf0bff00",
                "nonce" : "0x00",
                "storage" : {
                }
            }
        },
        "pre" : {
            "0xa000000000000000000000000000000000000000" : {
                "balance" : "0x0de0b6b3a7640000",
                "code" : "0x6020600060006000600073c00000000000000000000000000000000000000062055730f200",
                "nonce" : "0x00",
                "storage" : {
                }
            },
            "0xa94f5374fce5edbc8e2a8697c15331677e6ebf0b" : {
                "balance" : "0x0de0b6b3a7640000",
                "code" : "0x",
                "nonce" : "0x00",
                "storage" : {
                }
            },
            "0xb000000000000000000000000000000000000000" : {
                "balance" : "0x0de0b6b3a7640000",
                "code" : "0x73a0000000000000000000000000000000000000003f60015573a0000000000000000000000000000000000000003b60025560206000600073a0000000000000000000000000000000000000003c6000516003556020600060006000600073a00000000000000000000000000000000000000062055730f15073a0000000000000000000000000000000000000003f60045573a0000000000000000000000000000000000000003b60055560206000600073a0000000000000000000000000000000000000003c6000516006556020600060006000600073a00000000000000000000000000000000000000062055730f160075500",
                "nonce" : "0x00",
                "storage" : {
                }
            },
            "0xc000000000000000000000000000000000000000" : {
                "balance" : "0x0de0b6b3a7640000",
                "code" : "0x73a94f5374fce5edbc8e2a8697c15331677e6ebf0bff00",
                "nonce" : "0x00",
                "storage" : {
                }
            }
        },
        "sealEngine" : "NoProof"
    },
    "extCodeHashSubcallSuicide_d0g0v0_London" : {
        "_info" : {
            "comment" : "transaction to B | B call to A | A delegatecall/callcode to C (C has selfdestruct) | A selfdestructed. returned to B. now we could check extcodehash of A (in account B code)",
            "filling-rpc-server" : "evm version 1.10.16-unstable-0f893109-20220105",
            "filling-tool-version" : "retesteth-0.2.2-testinfo+commit.01c6aac2.Linux.g++",
            "generatedTestHash" : "815cbb30057c71e8877a772922771f165a6da91ed24cafdcbdfaebfdfc7a975f",
            "lllcversion" : "Version: 0.5.14-develop.2021.11.27+commit.401d5358.Linux.g++",
            "solidity" : "Version: 0.8.5+commit.a4f2e591.Linux.g++",
            "source" : "src/GeneralStateTestsFiller/stExtCodeHash/extCodeHashSubcallSuicideFiller.yml",
            "sourceHash" : "d7d0933fa442611a84ec364a3eaa7d74c5d8368d07ed36731052fdbf334a5e2d"
        },
        "blocks" : [
            {
                "blockHeader" : {
                    "baseFeePerGas" : "0x0a",
                    "bloom" : "0x00000000000000000000000000000000000000000000000000000000000000000000000000000000000000000000000000000000000000000000000000000000000000000000000000000000000000000000000000000000000000000000000000000000000000000000000000000000000000000000000000000000000000000000000000000000000000000000000000000000000000000000000000000000000000000000000000000000000000000000000000000000000000000000000000000000000000000000000000000000000000000000000000000000000000000000000000000000000000000000000000000000000000000000000000000000",
                    "coinbase" : "0x2adc25665018aa1fe0e6bc666dac8fc2697ff9ba",
                    "difficulty" : "0x020000",
                    "extraData" : "0x00",
                    "gasLimit" : "0x989680",
                    "gasUsed" : "0x02ed84",
                    "hash" : "0x30a0f7981606e46508915dd567b10d44a163c28b0645d120001e6fcf19d6a2f9",
                    "mixHash" : "0x0000000000000000000000000000000000000000000000000000000000000000",
                    "nonce" : "0x0000000000000000",
                    "number" : "0x01",
                    "parentHash" : "0xb8a20866a4007b9c652e11f1247a982d9cc153321ef8266d29f1f97430586167",
                    "receiptTrie" : "0x1637006da0387d228be95e18bb581e55aa90e42bc0af6686653f9af28ec7b0e8",
                    "stateRoot" : "0xca38bba371503d5b2bdc6d7dcdd82b44f4a00c3cde5582d28029acd238d9157f",
                    "timestamp" : "0x03e8",
                    "transactionsTrie" : "0x2565e2f1e35bebd5a681eac42515b5cb6c4e4ded7c4f213397f0c31f32af80b5",
                    "uncleHash" : "0x1dcc4de8dec75d7aab85b567b6ccd41ad312451b948a7413f0a142fd40d49347"
                },
                "rlp" : "0xf90261f901f9a0b8a20866a4007b9c652e11f1247a982d9cc153321ef8266d29f1f97430586167a01dcc4de8dec75d7aab85b567b6ccd41ad312451b948a7413f0a142fd40d49347942adc25665018aa1fe0e6bc666dac8fc2697ff9baa0ca38bba371503d5b2bdc6d7dcdd82b44f4a00c3cde5582d28029acd238d9157fa02565e2f1e35bebd5a681eac42515b5cb6c4e4ded7c4f213397f0c31f32af80b5a01637006da0387d228be95e18bb581e55aa90e42bc0af6686653f9af28ec7b0e8b90100000000000000000000000000000000000000000000000000000000000000000000000000000000000000000000000000000000000000000000000000000000000000000000000000000000000000000000000000000000000000000000000000000000000000000000000000000000000000000000000000000000000000000000000000000000000000000000000000000000000000000000000000000000000000000000000000000000000000000000000000000000000000000000000000000000000000000000000000000000000000000000000000000000000000000000000000000000000000000000000000000000000000000000000000000000008302000001839896808302ed848203e800a000000000000000000000000000000000000000000000000000000000000000008800000000000000000af862f860800a8307a12094b00000000000000000000000000000000000000001801ca0d8e6d3c19b21e9f96f6bef54c1ea9331c55247a3a9ac863ef311adbac7de4ceea07e1be33933cee04eb197f8a44efca7d1356f81ac7030c4d902090cda90e13225c0",
                "transactions" : [
                    {
                        "data" : "0x",
                        "gasLimit" : "0x07a120",
                        "gasPrice" : "0x0a",
                        "nonce" : "0x00",
                        "r" : "0xd8e6d3c19b21e9f96f6bef54c1ea9331c55247a3a9ac863ef311adbac7de4cee",
                        "s" : "0x7e1be33933cee04eb197f8a44efca7d1356f81ac7030c4d902090cda90e13225",
                        "sender" : "0xa94f5374fce5edbc8e2a8697c15331677e6ebf0b",
                        "to" : "0xb000000000000000000000000000000000000000",
                        "v" : "0x1c",
                        "value" : "0x01"
                    }
                ],
                "uncleHeaders" : [
                ]
            }
        ],
        "genesisBlockHeader" : {
            "baseFeePerGas" : "0x0b",
            "bloom" : "0x00000000000000000000000000000000000000000000000000000000000000000000000000000000000000000000000000000000000000000000000000000000000000000000000000000000000000000000000000000000000000000000000000000000000000000000000000000000000000000000000000000000000000000000000000000000000000000000000000000000000000000000000000000000000000000000000000000000000000000000000000000000000000000000000000000000000000000000000000000000000000000000000000000000000000000000000000000000000000000000000000000000000000000000000000000000",
            "coinbase" : "0x2adc25665018aa1fe0e6bc666dac8fc2697ff9ba",
            "difficulty" : "0x020000",
            "extraData" : "0x00",
            "gasLimit" : "0x989680",
            "gasUsed" : "0x00",
            "hash" : "0xb8a20866a4007b9c652e11f1247a982d9cc153321ef8266d29f1f97430586167",
            "mixHash" : "0x0000000000000000000000000000000000000000000000000000000000000000",
            "nonce" : "0x0000000000000000",
            "number" : "0x00",
            "parentHash" : "0x0000000000000000000000000000000000000000000000000000000000000000",
            "receiptTrie" : "0x56e81f171bcc55a6ff8345e692c0f86e5b48e01b996cadc001622fb5e363b421",
            "stateRoot" : "0xda2e99732bb608975d544bb491a852c5708661839678382f1b80f52f48ff0256",
            "timestamp" : "0x00",
            "transactionsTrie" : "0x56e81f171bcc55a6ff8345e692c0f86e5b48e01b996cadc001622fb5e363b421",
            "uncleHash" : "0x1dcc4de8dec75d7aab85b567b6ccd41ad312451b948a7413f0a142fd40d49347"
        },
        "genesisRLP" : "0xf901f9f901f4a00000000000000000000000000000000000000000000000000000000000000000a01dcc4de8dec75d7aab85b567b6ccd41ad312451b948a7413f0a142fd40d49347942adc25665018aa1fe0e6bc666dac8fc2697ff9baa0da2e99732bb608975d544bb491a852c5708661839678382f1b80f52f48ff0256a056e81f171bcc55a6ff8345e692c0f86e5b48e01b996cadc001622fb5e363b421a056e81f171bcc55a6ff8345e692c0f86e5b48e01b996cadc001622fb5e363b421b9010000000000000000000000000000000000000000000000000000000000000000000000000000000000000000000000000000000000000000000000000000000000000000000000000000000000000000000000000000000000000000000000000000000000000000000000000000000000000000000000000000000000000000000000000000000000000000000000000000000000000000000000000000000000000000000000000000000000000000000000000000000000000000000000000000000000000000000000000000000000000000000000000000000000000000000000000000000000000000000000000000000000000000000000000000000000830200008083989680808000a000000000000000000000000000000000000000000000000000000000000000008800000000000000000bc0c0",
        "lastblockhash" : "0x30a0f7981606e46508915dd567b10d44a163c28b0645d120001e6fcf19d6a2f9",
        "network" : "London",
        "postState" : {
            "0x2adc25665018aa1fe0e6bc666dac8fc2697ff9ba" : {
                "balance" : "0x1bc16d674ec80000",
                "code" : "0x",
                "nonce" : "0x00",
                "storage" : {
                }
            },
            "0xa94f5374fce5edbc8e2a8697c15331677e6ebf0b" : {
                "balance" : "0x1bc16d674eaab8d7",
                "code" : "0x",
                "nonce" : "0x01",
                "storage" : {
                }
            },
            "0xb000000000000000000000000000000000000000" : {
                "balance" : "0x0de0b6b3a7640001",
                "code" : "0x73a0000000000000000000000000000000000000003f60015573a0000000000000000000000000000000000000003b60025560206000600073a0000000000000000000000000000000000000003c6000516003556020600060006000600073a00000000000000000000000000000000000000062055730f15073a0000000000000000000000000000000000000003f60045573a0000000000000000000000000000000000000003b60055560206000600073a0000000000000000000000000000000000000003c6000516006556020600060006000600073a00000000000000000000000000000000000000062055730f160075500",
                "nonce" : "0x00",
                "storage" : {
                    "0x01" : "0x367d3c0e810bbdebc72c25e80dcb9a337c7c87e3a36e6fae87d1d51b3c745d24",
                    "0x02" : "0x25",
                    "0x03" : "0x6020600060006000600073c00000000000000000000000000000000000000062",
                    "0x04" : "0x367d3c0e810bbdebc72c25e80dcb9a337c7c87e3a36e6fae87d1d51b3c745d24",
                    "0x05" : "0x25",
                    "0x06" : "0x6020600060006000600073c00000000000000000000000000000000000000062",
                    "0x07" : "0x01"
                }
            },
            "0xc000000000000000000000000000000000000000" : {
                "balance" : "0x0de0b6b3a7640000",
                "code" : "0x73a94f5374fce5edbc8e2a8697c15331677e6ebf0bff00",
                "nonce" : "0x00",
                "storage" : {
                }
            }
        },
        "pre" : {
            "0xa000000000000000000000000000000000000000" : {
                "balance" : "0x0de0b6b3a7640000",
                "code" : "0x6020600060006000600073c00000000000000000000000000000000000000062055730f200",
                "nonce" : "0x00",
                "storage" : {
                }
            },
            "0xa94f5374fce5edbc8e2a8697c15331677e6ebf0b" : {
                "balance" : "0x0de0b6b3a7640000",
                "code" : "0x",
                "nonce" : "0x00",
                "storage" : {
                }
            },
            "0xb000000000000000000000000000000000000000" : {
                "balance" : "0x0de0b6b3a7640000",
                "code" : "0x73a0000000000000000000000000000000000000003f60015573a0000000000000000000000000000000000000003b60025560206000600073a0000000000000000000000000000000000000003c6000516003556020600060006000600073a00000000000000000000000000000000000000062055730f15073a0000000000000000000000000000000000000003f60045573a0000000000000000000000000000000000000003b60055560206000600073a0000000000000000000000000000000000000003c6000516006556020600060006000600073a00000000000000000000000000000000000000062055730f160075500",
                "nonce" : "0x00",
                "storage" : {
                }
            },
            "0xc000000000000000000000000000000000000000" : {
                "balance" : "0x0de0b6b3a7640000",
                "code" : "0x73a94f5374fce5edbc8e2a8697c15331677e6ebf0bff00",
                "nonce" : "0x00",
                "storage" : {
                }
            }
        },
        "sealEngine" : "NoProof"
    }
}