{
    "extCodeCopyBounds_d0g0v0_Berlin" : {
        "_info" : {
            "comment" : "EXTCODECOPY edge case https://github.com/ethereum/tests/issues/438",
            "filling-rpc-server" : "evm version 1.10.5-unstable-35dbf7a8-20210628",
            "filling-tool-version" : "retesteth-0.1.2-london+commit.c991d254.Linux.g++",
            "lllcversion" : "Version: 0.5.14-develop.2021.6.15+commit.401d5358.Linux.g++",
            "source" : "src/GeneralStateTestsFiller/stExtCodeHash/extCodeCopyBoundsFiller.yml",
            "sourceHash" : "3828159d64342b2651923970824e3bac0ae4a9ecd5958c86d386d12bf565f181"
        },
        "genesisBlockHeader" : {
            "bloom" : "0x00000000000000000000000000000000000000000000000000000000000000000000000000000000000000000000000000000000000000000000000000000000000000000000000000000000000000000000000000000000000000000000000000000000000000000000000000000000000000000000000000000000000000000000000000000000000000000000000000000000000000000000000000000000000000000000000000000000000000000000000000000000000000000000000000000000000000000000000000000000000000000000000000000000000000000000000000000000000000000000000000000000000000000000000000000000",
            "coinbase" : "0x2adc25665018aa1fe0e6bc666dac8fc2697ff9ba",
            "difficulty" : "0x020000",
            "extraData" : "0x00",
            "gasLimit" : "0x0f4240",
            "gasUsed" : "0x00",
            "hash" : "0xccad94053f4a1f149ce8ee1f4d15f935dc8c75540bcdecc344c5c578779133c3",
            "mixHash" : "0x0000000000000000000000000000000000000000000000000000000000000000",
            "nonce" : "0x0000000000000000",
            "number" : "0x00",
            "parentHash" : "0x0000000000000000000000000000000000000000000000000000000000000000",
            "receiptTrie" : "0x56e81f171bcc55a6ff8345e692c0f86e5b48e01b996cadc001622fb5e363b421",
            "stateRoot" : "0xb96450f06c48b7d425b679e748d279ea5e4f544e5c28fd081b518e8a3e59a756",
            "timestamp" : "0x00",
            "transactionsTrie" : "0x56e81f171bcc55a6ff8345e692c0f86e5b48e01b996cadc001622fb5e363b421",
            "uncleHash" : "0x1dcc4de8dec75d7aab85b567b6ccd41ad312451b948a7413f0a142fd40d49347"
        },
        "pre" : {
            "0x095e7baea6a6c7c4c2dfeb977efac326af552d87" : {
                "balance" : "0x0de0b6b3a7640000",
                "code" : "0x61138874010000000000000000000000000000000000000000600173e713449c212d891357cc2966816b1d528cfb59e03c600051600055602051600155600c74010000000000000000000000000000000000000000600173e713449c212d891357cc2966816b1d528cfb59e03c600051600255602051600355600c6005600173e713449c212d891357cc2966816b1d528cfb59e03c60005160045560205160055500",
                "nonce" : "0x00",
                "storage" : {
                }
            },
            "0xa94f5374fce5edbc8e2a8697c15331677e6ebf0b" : {
                "balance" : "0x0de0b6b3a7640000",
                "code" : "0x",
                "nonce" : "0x00",
                "storage" : {
                }
            },
            "0xe713449c212d891357cc2966816b1d528cfb59e0" : {
                "balance" : "0x00",
                "code" : "0x600c606355600b606355600a60635500",
                "nonce" : "0x00",
                "storage" : {
                }
            }
        },
        "postState" : {
            "0x095e7baea6a6c7c4c2dfeb977efac326af552d87" : {
                "code" : "0x61138874010000000000000000000000000000000000000000600173e713449c212d891357cc2966816b1d528cfb59e03c600051600055602051600155600c74010000000000000000000000000000000000000000600173e713449c212d891357cc2966816b1d528cfb59e03c600051600255602051600355600c6005600173e713449c212d891357cc2966816b1d528cfb59e03c60005160045560205160055500",
                "nonce" : "0x00",
                "balance" : "0x0de0b6b3a7640001",
                "storage" : {
                    "0x04" : "0x600b606355600a606355000000000000000000000000000000000000000000"
                }
            },
            "0x2adc25665018aa1fe0e6bc666dac8fc2697ff9ba" : {
                "code" : "0x",
                "nonce" : "0x00",
                "balance" : "0x1bc16d674ed0d914",
                "storage" : {
                }
            },
            "0xa94f5374fce5edbc8e2a8697c15331677e6ebf0b" : {
                "code" : "0x",
                "nonce" : "0x01",
                "balance" : "0x0de0b6b3a75b26eb",
                "storage" : {
                }
            },
            "0xe713449c212d891357cc2966816b1d528cfb59e0" : {
                "code" : "0x600c606355600b606355600a60635500",
                "nonce" : "0x00",
                "balance" : "0x00",
                "storage" : {
                }
            }
        },
        "network" : "Berlin",
        "sealEngine" : "NoProof",
        "lastblockhash" : "0x8ffe6b3afcb2df9a96c05ba672439aec640e3f79068d8c909fe18d670652e419",
        "genesisRLP" : "0xf901f8f901f3a00000000000000000000000000000000000000000000000000000000000000000a01dcc4de8dec75d7aab85b567b6ccd41ad312451b948a7413f0a142fd40d49347942adc25665018aa1fe0e6bc666dac8fc2697ff9baa0b96450f06c48b7d425b679e748d279ea5e4f544e5c28fd081b518e8a3e59a756a056e81f171bcc55a6ff8345e692c0f86e5b48e01b996cadc001622fb5e363b421a056e81f171bcc55a6ff8345e692c0f86e5b48e01b996cadc001622fb5e363b421b90100000000000000000000000000000000000000000000000000000000000000000000000000000000000000000000000000000000000000000000000000000000000000000000000000000000000000000000000000000000000000000000000000000000000000000000000000000000000000000000000000000000000000000000000000000000000000000000000000000000000000000000000000000000000000000000000000000000000000000000000000000000000000000000000000000000000000000000000000000000000000000000000000000000000000000000000000000000000000000000000000000000000000000000000000000000008302000080830f4240808000a00000000000000000000000000000000000000000000000000000000000000000880000000000000000c0c0",
        "blocks" : [
            {
                "rlp" : "0xf9025ff901f7a0ccad94053f4a1f149ce8ee1f4d15f935dc8c75540bcdecc344c5c578779133c3a01dcc4de8dec75d7aab85b567b6ccd41ad312451b948a7413f0a142fd40d49347942adc25665018aa1fe0e6bc666dac8fc2697ff9baa054dc03f97796068a013e434d953b797e553b2473c505bf5baf8e8216976e5defa0174ccc4f3050aca8eb96ee492d7f77c48698de3988b3a422e2bc6974348182c0a078412a560939b9d72d0e9a79fb1f2a10ce4aa0962e300f3c69918fd58d489fbfb90100000000000000000000000000000000000000000000000000000000000000000000000000000000000000000000000000000000000000000000000000000000000000000000000000000000000000000000000000000000000000000000000000000000000000000000000000000000000000000000000000000000000000000000000000000000000000000000000000000000000000000000000000000000000000000000000000000000000000000000000000000000000000000000000000000000000000000000000000000000000000000000000000000000000000000000000000000000000000000000000000000000000000000000000000000000008302000001830f424082e2828203e800a00000000000000000000000000000000000000000000000000000000000000000880000000000000000f862f860800a83061a8094095e7baea6a6c7c4c2dfeb977efac326af552d8701801ca09d46b87169053cc40670aef750b032c895cde3e35c2c7f5a37c059272e0914c7a04d4a94b67b2776cc3e0fca2ed9503c10fd92ec79f1b2dcbb85df9634c7de3119c0",
                "blockHeader" : {
                    "bloom" : "0x00000000000000000000000000000000000000000000000000000000000000000000000000000000000000000000000000000000000000000000000000000000000000000000000000000000000000000000000000000000000000000000000000000000000000000000000000000000000000000000000000000000000000000000000000000000000000000000000000000000000000000000000000000000000000000000000000000000000000000000000000000000000000000000000000000000000000000000000000000000000000000000000000000000000000000000000000000000000000000000000000000000000000000000000000000000",
                    "coinbase" : "0x2adc25665018aa1fe0e6bc666dac8fc2697ff9ba",
                    "difficulty" : "0x020000",
                    "extraData" : "0x00",
                    "gasLimit" : "0x0f4240",
                    "gasUsed" : "0xe282",
                    "hash" : "0x8ffe6b3afcb2df9a96c05ba672439aec640e3f79068d8c909fe18d670652e419",
                    "mixHash" : "0x0000000000000000000000000000000000000000000000000000000000000000",
                    "nonce" : "0x0000000000000000",
                    "number" : "0x01",
                    "parentHash" : "0xccad94053f4a1f149ce8ee1f4d15f935dc8c75540bcdecc344c5c578779133c3",
                    "receiptTrie" : "0x78412a560939b9d72d0e9a79fb1f2a10ce4aa0962e300f3c69918fd58d489fbf",
                    "stateRoot" : "0x54dc03f97796068a013e434d953b797e553b2473c505bf5baf8e8216976e5def",
                    "timestamp" : "0x03e8",
                    "transactionsTrie" : "0x174ccc4f3050aca8eb96ee492d7f77c48698de3988b3a422e2bc6974348182c0",
                    "uncleHash" : "0x1dcc4de8dec75d7aab85b567b6ccd41ad312451b948a7413f0a142fd40d49347"
                },
                "transactions" : [
                    {
                        "data" : "0x",
                        "gasLimit" : "0x061a80",
                        "gasPrice" : "0x0a",
                        "nonce" : "0x00",
                        "to" : "0x095e7baea6a6c7c4c2dfeb977efac326af552d87",
                        "value" : "0x01",
                        "v" : "0x1c",
                        "r" : "0x9d46b87169053cc40670aef750b032c895cde3e35c2c7f5a37c059272e0914c7",
                        "s" : "0x4d4a94b67b2776cc3e0fca2ed9503c10fd92ec79f1b2dcbb85df9634c7de3119"
                    }
                ],
                "uncleHeaders" : [
                ]
            }
        ]
    },
    "extCodeCopyBounds_d0g0v0_Istanbul" : {
        "_info" : {
            "comment" : "EXTCODECOPY edge case https://github.com/ethereum/tests/issues/438",
            "filling-rpc-server" : "evm version 1.10.5-unstable-35dbf7a8-20210628",
            "filling-tool-version" : "retesteth-0.1.2-london+commit.c991d254.Linux.g++",
            "lllcversion" : "Version: 0.5.14-develop.2021.6.15+commit.401d5358.Linux.g++",
            "source" : "src/GeneralStateTestsFiller/stExtCodeHash/extCodeCopyBoundsFiller.yml",
            "sourceHash" : "3828159d64342b2651923970824e3bac0ae4a9ecd5958c86d386d12bf565f181"
        },
        "genesisBlockHeader" : {
            "bloom" : "0x00000000000000000000000000000000000000000000000000000000000000000000000000000000000000000000000000000000000000000000000000000000000000000000000000000000000000000000000000000000000000000000000000000000000000000000000000000000000000000000000000000000000000000000000000000000000000000000000000000000000000000000000000000000000000000000000000000000000000000000000000000000000000000000000000000000000000000000000000000000000000000000000000000000000000000000000000000000000000000000000000000000000000000000000000000000",
            "coinbase" : "0x2adc25665018aa1fe0e6bc666dac8fc2697ff9ba",
            "difficulty" : "0x020000",
            "extraData" : "0x00",
            "gasLimit" : "0x0f4240",
            "gasUsed" : "0x00",
            "hash" : "0xccad94053f4a1f149ce8ee1f4d15f935dc8c75540bcdecc344c5c578779133c3",
            "mixHash" : "0x0000000000000000000000000000000000000000000000000000000000000000",
            "nonce" : "0x0000000000000000",
            "number" : "0x00",
            "parentHash" : "0x0000000000000000000000000000000000000000000000000000000000000000",
            "receiptTrie" : "0x56e81f171bcc55a6ff8345e692c0f86e5b48e01b996cadc001622fb5e363b421",
            "stateRoot" : "0xb96450f06c48b7d425b679e748d279ea5e4f544e5c28fd081b518e8a3e59a756",
            "timestamp" : "0x00",
            "transactionsTrie" : "0x56e81f171bcc55a6ff8345e692c0f86e5b48e01b996cadc001622fb5e363b421",
            "uncleHash" : "0x1dcc4de8dec75d7aab85b567b6ccd41ad312451b948a7413f0a142fd40d49347"
        },
        "pre" : {
            "0x095e7baea6a6c7c4c2dfeb977efac326af552d87" : {
                "balance" : "0x0de0b6b3a7640000",
                "code" : "0x61138874010000000000000000000000000000000000000000600173e713449c212d891357cc2966816b1d528cfb59e03c600051600055602051600155600c74010000000000000000000000000000000000000000600173e713449c212d891357cc2966816b1d528cfb59e03c600051600255602051600355600c6005600173e713449c212d891357cc2966816b1d528cfb59e03c60005160045560205160055500",
                "nonce" : "0x00",
                "storage" : {
                }
            },
            "0xa94f5374fce5edbc8e2a8697c15331677e6ebf0b" : {
                "balance" : "0x0de0b6b3a7640000",
                "code" : "0x",
                "nonce" : "0x00",
                "storage" : {
                }
            },
            "0xe713449c212d891357cc2966816b1d528cfb59e0" : {
                "balance" : "0x00",
                "code" : "0x600c606355600b606355600a60635500",
                "nonce" : "0x00",
                "storage" : {
                }
            }
        },
        "postState" : {
            "0x095e7baea6a6c7c4c2dfeb977efac326af552d87" : {
                "code" : "0x61138874010000000000000000000000000000000000000000600173e713449c212d891357cc2966816b1d528cfb59e03c600051600055602051600155600c74010000000000000000000000000000000000000000600173e713449c212d891357cc2966816b1d528cfb59e03c600051600255602051600355600c6005600173e713449c212d891357cc2966816b1d528cfb59e03c60005160045560205160055500",
                "nonce" : "0x00",
                "balance" : "0x0de0b6b3a7640001",
                "storage" : {
                    "0x04" : "0x600b606355600a606355000000000000000000000000000000000000000000"
                }
            },
            "0x2adc25665018aa1fe0e6bc666dac8fc2697ff9ba" : {
                "code" : "0x",
                "nonce" : "0x00",
                "balance" : "0x1bc16d674ecf5a44",
                "storage" : {
                }
            },
            "0xa94f5374fce5edbc8e2a8697c15331677e6ebf0b" : {
                "code" : "0x",
                "nonce" : "0x01",
                "balance" : "0x0de0b6b3a75ca5bb",
                "storage" : {
                }
            },
            "0xe713449c212d891357cc2966816b1d528cfb59e0" : {
                "code" : "0x600c606355600b606355600a60635500",
                "nonce" : "0x00",
                "balance" : "0x00",
                "storage" : {
                }
            }
        },
        "network" : "Istanbul",
        "sealEngine" : "NoProof",
        "lastblockhash" : "0x7761e1c927ed9a490cc9cfbe2cd3ba1c8708a4795db38c607cdbdd050da0a07a",
        "genesisRLP" : "0xf901f8f901f3a00000000000000000000000000000000000000000000000000000000000000000a01dcc4de8dec75d7aab85b567b6ccd41ad312451b948a7413f0a142fd40d49347942adc25665018aa1fe0e6bc666dac8fc2697ff9baa0b96450f06c48b7d425b679e748d279ea5e4f544e5c28fd081b518e8a3e59a756a056e81f171bcc55a6ff8345e692c0f86e5b48e01b996cadc001622fb5e363b421a056e81f171bcc55a6ff8345e692c0f86e5b48e01b996cadc001622fb5e363b421b90100000000000000000000000000000000000000000000000000000000000000000000000000000000000000000000000000000000000000000000000000000000000000000000000000000000000000000000000000000000000000000000000000000000000000000000000000000000000000000000000000000000000000000000000000000000000000000000000000000000000000000000000000000000000000000000000000000000000000000000000000000000000000000000000000000000000000000000000000000000000000000000000000000000000000000000000000000000000000000000000000000000000000000000000000000000008302000080830f4240808000a00000000000000000000000000000000000000000000000000000000000000000880000000000000000c0c0",
        "blocks" : [
            {
                "rlp" : "0xf9025ff901f7a0ccad94053f4a1f149ce8ee1f4d15f935dc8c75540bcdecc344c5c578779133c3a01dcc4de8dec75d7aab85b567b6ccd41ad312451b948a7413f0a142fd40d49347942adc25665018aa1fe0e6bc666dac8fc2697ff9baa0977c81ce5608191210f13ba39c805d4c5943fdebc33ce84b9d300e477517a81aa0174ccc4f3050aca8eb96ee492d7f77c48698de3988b3a422e2bc6974348182c0a03de837ca17f9a9340ce49c919c8507df67b2203890a484bbb884f41ce89ffcdcb90100000000000000000000000000000000000000000000000000000000000000000000000000000000000000000000000000000000000000000000000000000000000000000000000000000000000000000000000000000000000000000000000000000000000000000000000000000000000000000000000000000000000000000000000000000000000000000000000000000000000000000000000000000000000000000000000000000000000000000000000000000000000000000000000000000000000000000000000000000000000000000000000000000000000000000000000000000000000000000000000000000000000000000000000000000000008302000001830f424082bc3a8203e800a00000000000000000000000000000000000000000000000000000000000000000880000000000000000f862f860800a83061a8094095e7baea6a6c7c4c2dfeb977efac326af552d8701801ca09d46b87169053cc40670aef750b032c895cde3e35c2c7f5a37c059272e0914c7a04d4a94b67b2776cc3e0fca2ed9503c10fd92ec79f1b2dcbb85df9634c7de3119c0",
                "blockHeader" : {
                    "bloom" : "0x00000000000000000000000000000000000000000000000000000000000000000000000000000000000000000000000000000000000000000000000000000000000000000000000000000000000000000000000000000000000000000000000000000000000000000000000000000000000000000000000000000000000000000000000000000000000000000000000000000000000000000000000000000000000000000000000000000000000000000000000000000000000000000000000000000000000000000000000000000000000000000000000000000000000000000000000000000000000000000000000000000000000000000000000000000000",
                    "coinbase" : "0x2adc25665018aa1fe0e6bc666dac8fc2697ff9ba",
                    "difficulty" : "0x020000",
                    "extraData" : "0x00",
                    "gasLimit" : "0x0f4240",
                    "gasUsed" : "0xbc3a",
                    "hash" : "0x7761e1c927ed9a490cc9cfbe2cd3ba1c8708a4795db38c607cdbdd050da0a07a",
                    "mixHash" : "0x0000000000000000000000000000000000000000000000000000000000000000",
                    "nonce" : "0x0000000000000000",
                    "number" : "0x01",
                    "parentHash" : "0xccad94053f4a1f149ce8ee1f4d15f935dc8c75540bcdecc344c5c578779133c3",
                    "receiptTrie" : "0x3de837ca17f9a9340ce49c919c8507df67b2203890a484bbb884f41ce89ffcdc",
                    "stateRoot" : "0x977c81ce5608191210f13ba39c805d4c5943fdebc33ce84b9d300e477517a81a",
                    "timestamp" : "0x03e8",
                    "transactionsTrie" : "0x174ccc4f3050aca8eb96ee492d7f77c48698de3988b3a422e2bc6974348182c0",
                    "uncleHash" : "0x1dcc4de8dec75d7aab85b567b6ccd41ad312451b948a7413f0a142fd40d49347"
                },
                "transactions" : [
                    {
                        "data" : "0x",
                        "gasLimit" : "0x061a80",
                        "gasPrice" : "0x0a",
                        "nonce" : "0x00",
                        "to" : "0x095e7baea6a6c7c4c2dfeb977efac326af552d87",
                        "value" : "0x01",
                        "v" : "0x1c",
                        "r" : "0x9d46b87169053cc40670aef750b032c895cde3e35c2c7f5a37c059272e0914c7",
                        "s" : "0x4d4a94b67b2776cc3e0fca2ed9503c10fd92ec79f1b2dcbb85df9634c7de3119"
                    }
                ],
                "uncleHeaders" : [
                ]
            }
        ]
    },
    "extCodeCopyBounds_d0g0v0_London" : {
        "_info" : {
            "comment" : "EXTCODECOPY edge case https://github.com/ethereum/tests/issues/438",
            "filling-rpc-server" : "evm version 1.10.5-unstable-35dbf7a8-20210628",
            "filling-tool-version" : "retesteth-0.1.2-london+commit.c991d254.Linux.g++",
            "lllcversion" : "Version: 0.5.14-develop.2021.6.15+commit.401d5358.Linux.g++",
            "source" : "src/GeneralStateTestsFiller/stExtCodeHash/extCodeCopyBoundsFiller.yml",
            "sourceHash" : "3828159d64342b2651923970824e3bac0ae4a9ecd5958c86d386d12bf565f181"
        },
        "genesisBlockHeader" : {
            "bloom" : "0x00000000000000000000000000000000000000000000000000000000000000000000000000000000000000000000000000000000000000000000000000000000000000000000000000000000000000000000000000000000000000000000000000000000000000000000000000000000000000000000000000000000000000000000000000000000000000000000000000000000000000000000000000000000000000000000000000000000000000000000000000000000000000000000000000000000000000000000000000000000000000000000000000000000000000000000000000000000000000000000000000000000000000000000000000000000",
            "coinbase" : "0x2adc25665018aa1fe0e6bc666dac8fc2697ff9ba",
            "difficulty" : "0x020000",
            "extraData" : "0x00",
            "gasLimit" : "0x0f4240",
            "gasUsed" : "0x00",
            "hash" : "0xb773438cc37f70f8590b7bdc50f3c3fd54070032ea56ecc0833bb97ad6fe185e",
            "mixHash" : "0x0000000000000000000000000000000000000000000000000000000000000000",
            "nonce" : "0x0000000000000000",
            "number" : "0x00",
            "parentHash" : "0x0000000000000000000000000000000000000000000000000000000000000000",
            "receiptTrie" : "0x56e81f171bcc55a6ff8345e692c0f86e5b48e01b996cadc001622fb5e363b421",
            "stateRoot" : "0xb96450f06c48b7d425b679e748d279ea5e4f544e5c28fd081b518e8a3e59a756",
            "timestamp" : "0x00",
            "transactionsTrie" : "0x56e81f171bcc55a6ff8345e692c0f86e5b48e01b996cadc001622fb5e363b421",
            "uncleHash" : "0x1dcc4de8dec75d7aab85b567b6ccd41ad312451b948a7413f0a142fd40d49347",
            "baseFeePerGas" : "0x0b"
        },
        "pre" : {
            "0x095e7baea6a6c7c4c2dfeb977efac326af552d87" : {
                "balance" : "0x0de0b6b3a7640000",
                "code" : "0x61138874010000000000000000000000000000000000000000600173e713449c212d891357cc2966816b1d528cfb59e03c600051600055602051600155600c74010000000000000000000000000000000000000000600173e713449c212d891357cc2966816b1d528cfb59e03c600051600255602051600355600c6005600173e713449c212d891357cc2966816b1d528cfb59e03c60005160045560205160055500",
                "nonce" : "0x00",
                "storage" : {
                }
            },
            "0xa94f5374fce5edbc8e2a8697c15331677e6ebf0b" : {
                "balance" : "0x0de0b6b3a7640000",
                "code" : "0x",
                "nonce" : "0x00",
                "storage" : {
                }
            },
            "0xe713449c212d891357cc2966816b1d528cfb59e0" : {
                "balance" : "0x00",
                "code" : "0x600c606355600b606355600a60635500",
                "nonce" : "0x00",
                "storage" : {
                }
            }
        },
        "postState" : {
            "0x095e7baea6a6c7c4c2dfeb977efac326af552d87" : {
                "code" : "0x61138874010000000000000000000000000000000000000000600173e713449c212d891357cc2966816b1d528cfb59e03c600051600055602051600155600c74010000000000000000000000000000000000000000600173e713449c212d891357cc2966816b1d528cfb59e03c600051600255602051600355600c6005600173e713449c212d891357cc2966816b1d528cfb59e03c60005160045560205160055500",
                "nonce" : "0x00",
                "balance" : "0x0de0b6b3a7640001",
                "storage" : {
                    "0x04" : "0x600b606355600a606355000000000000000000000000000000000000000000"
                }
            },
            "0x2adc25665018aa1fe0e6bc666dac8fc2697ff9ba" : {
                "code" : "0x",
                "nonce" : "0x00",
                "balance" : "0x1bc16d674ec80000",
                "storage" : {
                }
            },
            "0xa94f5374fce5edbc8e2a8697c15331677e6ebf0b" : {
                "code" : "0x",
                "nonce" : "0x01",
                "balance" : "0x0de0b6b3a75b26eb",
                "storage" : {
                }
            },
            "0xe713449c212d891357cc2966816b1d528cfb59e0" : {
                "code" : "0x600c606355600b606355600a60635500",
                "nonce" : "0x00",
                "balance" : "0x00",
                "storage" : {
                }
            }
        },
        "network" : "London",
        "sealEngine" : "NoProof",
        "lastblockhash" : "0xc6c69e438881e38d940feb08fe989ccf5c142bc9162553cb7dbebf582ad4a54a",
        "genesisRLP" : "0xf901f9f901f4a00000000000000000000000000000000000000000000000000000000000000000a01dcc4de8dec75d7aab85b567b6ccd41ad312451b948a7413f0a142fd40d49347942adc25665018aa1fe0e6bc666dac8fc2697ff9baa0b96450f06c48b7d425b679e748d279ea5e4f544e5c28fd081b518e8a3e59a756a056e81f171bcc55a6ff8345e692c0f86e5b48e01b996cadc001622fb5e363b421a056e81f171bcc55a6ff8345e692c0f86e5b48e01b996cadc001622fb5e363b421b90100000000000000000000000000000000000000000000000000000000000000000000000000000000000000000000000000000000000000000000000000000000000000000000000000000000000000000000000000000000000000000000000000000000000000000000000000000000000000000000000000000000000000000000000000000000000000000000000000000000000000000000000000000000000000000000000000000000000000000000000000000000000000000000000000000000000000000000000000000000000000000000000000000000000000000000000000000000000000000000000000000000000000000000000000000000008302000080830f4240808000a000000000000000000000000000000000000000000000000000000000000000008800000000000000000bc0c0",
        "blocks" : [
            {
                "rlp" : "0xf90260f901f8a0b773438cc37f70f8590b7bdc50f3c3fd54070032ea56ecc0833bb97ad6fe185ea01dcc4de8dec75d7aab85b567b6ccd41ad312451b948a7413f0a142fd40d49347942adc25665018aa1fe0e6bc666dac8fc2697ff9baa0435e495e73013201efa9b5627a5cf321fb24dcba55502b6ad038340da69b072fa0174ccc4f3050aca8eb96ee492d7f77c48698de3988b3a422e2bc6974348182c0a078412a560939b9d72d0e9a79fb1f2a10ce4aa0962e300f3c69918fd58d489fbfb90100000000000000000000000000000000000000000000000000000000000000000000000000000000000000000000000000000000000000000000000000000000000000000000000000000000000000000000000000000000000000000000000000000000000000000000000000000000000000000000000000000000000000000000000000000000000000000000000000000000000000000000000000000000000000000000000000000000000000000000000000000000000000000000000000000000000000000000000000000000000000000000000000000000000000000000000000000000000000000000000000000000000000000000000000000000008302000001830f424082e2828203e800a000000000000000000000000000000000000000000000000000000000000000008800000000000000000af862f860800a83061a8094095e7baea6a6c7c4c2dfeb977efac326af552d8701801ca09d46b87169053cc40670aef750b032c895cde3e35c2c7f5a37c059272e0914c7a04d4a94b67b2776cc3e0fca2ed9503c10fd92ec79f1b2dcbb85df9634c7de3119c0",
                "blockHeader" : {
                    "bloom" : "0x00000000000000000000000000000000000000000000000000000000000000000000000000000000000000000000000000000000000000000000000000000000000000000000000000000000000000000000000000000000000000000000000000000000000000000000000000000000000000000000000000000000000000000000000000000000000000000000000000000000000000000000000000000000000000000000000000000000000000000000000000000000000000000000000000000000000000000000000000000000000000000000000000000000000000000000000000000000000000000000000000000000000000000000000000000000",
                    "coinbase" : "0x2adc25665018aa1fe0e6bc666dac8fc2697ff9ba",
                    "difficulty" : "0x020000",
                    "extraData" : "0x00",
                    "gasLimit" : "0x0f4240",
                    "gasUsed" : "0xe282",
                    "hash" : "0xc6c69e438881e38d940feb08fe989ccf5c142bc9162553cb7dbebf582ad4a54a",
                    "mixHash" : "0x0000000000000000000000000000000000000000000000000000000000000000",
                    "nonce" : "0x0000000000000000",
                    "number" : "0x01",
                    "parentHash" : "0xb773438cc37f70f8590b7bdc50f3c3fd54070032ea56ecc0833bb97ad6fe185e",
                    "receiptTrie" : "0x78412a560939b9d72d0e9a79fb1f2a10ce4aa0962e300f3c69918fd58d489fbf",
                    "stateRoot" : "0x435e495e73013201efa9b5627a5cf321fb24dcba55502b6ad038340da69b072f",
                    "timestamp" : "0x03e8",
                    "transactionsTrie" : "0x174ccc4f3050aca8eb96ee492d7f77c48698de3988b3a422e2bc6974348182c0",
                    "uncleHash" : "0x1dcc4de8dec75d7aab85b567b6ccd41ad312451b948a7413f0a142fd40d49347",
                    "baseFeePerGas" : "0x0a"
                },
                "transactions" : [
                    {
                        "data" : "0x",
                        "gasLimit" : "0x061a80",
                        "gasPrice" : "0x0a",
                        "nonce" : "0x00",
                        "to" : "0x095e7baea6a6c7c4c2dfeb977efac326af552d87",
                        "value" : "0x01",
                        "v" : "0x1c",
                        "r" : "0x9d46b87169053cc40670aef750b032c895cde3e35c2c7f5a37c059272e0914c7",
                        "s" : "0x4d4a94b67b2776cc3e0fca2ed9503c10fd92ec79f1b2dcbb85df9634c7de3119"
                    }
                ],
                "uncleHeaders" : [
                ]
            }
        ]
    }
}