{
    "CreateMessageSuccess_d0g0v0_Byzantium" : {
        "_info" : {
            "comment" : "",
            "filledwith" : "cpp-1.3.0+commit.ee0c6776.Linux.g++",
            "lllcversion" : "Version: 0.4.20-develop.2018.2.4+commit.c696803f.Linux.g++",
            "source" : "src/BlockchainTestsFiller/GeneralStateTests/stTransactionTest/CreateMessageSuccess_d0g0v0Filler.json",
            "sourceHash" : "16dcd43431455a119d69715bbf5ff2c0094f11bad9a5c20852f394235149cb72"
        },
        "blocks" : [
            {
                "blockHeader" : {
                    "bloom" : "0x00000000000000000000000000000000000000000000000000000000000000000000000000000000000000000000000000000000000000000000000000000000000000000000000000000000000000000000000000000000000000000000000000000000000000000000000000000000000000000000000000000000000000000000000000000000000000000000000000000000000000000000000000000000000000000000000000000000000000000000000000000000000000000000000000000000000000000000000000000000000000000000000000000000000000000000000000000000000000000000000000000000000000000000000000000000",
                    "coinbase" : "0x2adc25665018aa1fe0e6bc666dac8fc2697ff9ba",
                    "difficulty" : "0x020000",
                    "extraData" : "",
                    "gasLimit" : "0xe8d4a51000",
                    "gasUsed" : "0x011d43",
                    "hash" : "0xebca7fbb6927cdcb3517977f8332fa41620e9c37161ab63a4478f4c929b3380c",
                    "mixHash" : "0xaed68030892c1ff6f8798fc1993d1374c12093894c4bf73c9523ab5251ba29eb",
                    "nonce" : "0x45521008cb36c2d7",
                    "number" : "0x01",
                    "parentHash" : "0x92a8d6713604324484b49c23e74531cbe99568f08bbf93a40a3f82f778cca8e6",
                    "receiptTrie" : "0xa2779b4593b8cabc218f0e89fd203b68fb5f7767d3c7ef3f99d7bfe06141d85e",
                    "stateRoot" : "0xd3236a4d570ff3355666d19182021d47bcf6b97d7703c1df9122b622f71e96f7",
                    "timestamp" : "0x03e8",
                    "transactionsTrie" : "0xbe70b05b1df4522aec758c4f6d268369e578251620b129377f8d38f5a4373ef5",
                    "uncleHash" : "0x1dcc4de8dec75d7aab85b567b6ccd41ad312451b948a7413f0a142fd40d49347"
                },
                "rlp" : "0xf90262f901faa092a8d6713604324484b49c23e74531cbe99568f08bbf93a40a3f82f778cca8e6a01dcc4de8dec75d7aab85b567b6ccd41ad312451b948a7413f0a142fd40d49347942adc25665018aa1fe0e6bc666dac8fc2697ff9baa0d3236a4d570ff3355666d19182021d47bcf6b97d7703c1df9122b622f71e96f7a0be70b05b1df4522aec758c4f6d268369e578251620b129377f8d38f5a4373ef5a0a2779b4593b8cabc218f0e89fd203b68fb5f7767d3c7ef3f99d7bfe06141d85eb9010000000000000000000000000000000000000000000000000000000000000000000000000000000000000000000000000000000000000000000000000000000000000000000000000000000000000000000000000000000000000000000000000000000000000000000000000000000000000000000000000000000000000000000000000000000000000000000000000000000000000000000000000000000000000000000000000000000000000000000000000000000000000000000000000000000000000000000000000000000000000000000000000000000000000000000000000000000000000000000000000000000000000000000000000000000000830200000185e8d4a5100083011d438203e880a0aed68030892c1ff6f8798fc1993d1374c12093894c4bf73c9523ab5251ba29eb8845521008cb36c2d7f862f86080018302032a94b94f5374fce5edbc8e2a8697c15331677e6ebf0b64801ca0e50d3284baffc47daf12571b58a6b472a679708b3b417fd8f233a1762f862561a067228488d10eced039910ed1b669a24baf0c7537751a78af977cdc22d0b4a17dc0",
                "transactions" : [
                    {
                        "data" : "0x",
                        "gasLimit" : "0x02032a",
                        "gasPrice" : "0x01",
                        "nonce" : "0x00",
                        "r" : "0xe50d3284baffc47daf12571b58a6b472a679708b3b417fd8f233a1762f862561",
                        "s" : "0x67228488d10eced039910ed1b669a24baf0c7537751a78af977cdc22d0b4a17d",
                        "to" : "0xb94f5374fce5edbc8e2a8697c15331677e6ebf0b",
                        "v" : "0x1c",
                        "value" : "0x64"
                    }
                ],
                "uncleHeaders" : [
                ]
            }
        ],
        "genesisBlockHeader" : {
            "bloom" : "0x00000000000000000000000000000000000000000000000000000000000000000000000000000000000000000000000000000000000000000000000000000000000000000000000000000000000000000000000000000000000000000000000000000000000000000000000000000000000000000000000000000000000000000000000000000000000000000000000000000000000000000000000000000000000000000000000000000000000000000000000000000000000000000000000000000000000000000000000000000000000000000000000000000000000000000000000000000000000000000000000000000000000000000000000000000000",
            "coinbase" : "0x2adc25665018aa1fe0e6bc666dac8fc2697ff9ba",
            "difficulty" : "0x020000",
            "extraData" : "0x42",
            "gasLimit" : "0xe8d4a51000",
            "gasUsed" : "0x00",
            "hash" : "0x92a8d6713604324484b49c23e74531cbe99568f08bbf93a40a3f82f778cca8e6",
            "mixHash" : "0x56e81f171bcc55a6ff8345e692c0f86e5b48e01b996cadc001622fb5e363b421",
            "nonce" : "0x0102030405060708",
            "number" : "0x00",
            "parentHash" : "0x0000000000000000000000000000000000000000000000000000000000000000",
            "receiptTrie" : "0x56e81f171bcc55a6ff8345e692c0f86e5b48e01b996cadc001622fb5e363b421",
            "stateRoot" : "0x156953be8213367ec86d77358ff7bc67ef8e71c17abf310ffc147c8487bae2af",
            "timestamp" : "0x03b6",
            "transactionsTrie" : "0x56e81f171bcc55a6ff8345e692c0f86e5b48e01b996cadc001622fb5e363b421",
            "uncleHash" : "0x1dcc4de8dec75d7aab85b567b6ccd41ad312451b948a7413f0a142fd40d49347"
        },
        "genesisRLP" : "0xf901fcf901f7a00000000000000000000000000000000000000000000000000000000000000000a01dcc4de8dec75d7aab85b567b6ccd41ad312451b948a7413f0a142fd40d49347942adc25665018aa1fe0e6bc666dac8fc2697ff9baa0156953be8213367ec86d77358ff7bc67ef8e71c17abf310ffc147c8487bae2afa056e81f171bcc55a6ff8345e692c0f86e5b48e01b996cadc001622fb5e363b421a056e81f171bcc55a6ff8345e692c0f86e5b48e01b996cadc001622fb5e363b421b9010000000000000000000000000000000000000000000000000000000000000000000000000000000000000000000000000000000000000000000000000000000000000000000000000000000000000000000000000000000000000000000000000000000000000000000000000000000000000000000000000000000000000000000000000000000000000000000000000000000000000000000000000000000000000000000000000000000000000000000000000000000000000000000000000000000000000000000000000000000000000000000000000000000000000000000000000000000000000000000000000000000000000000000000000000000000830200008085e8d4a51000808203b642a056e81f171bcc55a6ff8345e692c0f86e5b48e01b996cadc001622fb5e363b421880102030405060708c0c0",
        "lastblockhash" : "0xebca7fbb6927cdcb3517977f8332fa41620e9c37161ab63a4478f4c929b3380c",
        "network" : "Byzantium",
        "postState" : {
            "0x2adc25665018aa1fe0e6bc666dac8fc2697ff9ba" : {
                "balance" : "0x29a2241af62d1d43",
                "code" : "",
                "nonce" : "0x00",
                "storage" : {
                }
            },
            "0xa94f5374fce5edbc8e2a8697c15331677e6ebf0b" : {
                "balance" : "0x04fcd9",
                "code" : "",
                "nonce" : "0x01",
                "storage" : {
                }
            },
            "0xb94f5374fce5edbc8e2a8697c15331677e6ebf0b" : {
                "balance" : "0x64",
                "code" : "0x64600c6000556000526005601b6000f0",
                "nonce" : "0x01",
                "storage" : {
                }
            },
            "0xf1ecf98489fa9ed60a664fc4998db699cfa39d40" : {
                "balance" : "0x00",
                "code" : "",
                "nonce" : "0x01",
                "storage" : {
                    "0x00" : "0x0c"
                }
            }
        },
        "pre" : {
            "0xa94f5374fce5edbc8e2a8697c15331677e6ebf0b" : {
                "balance" : "0x061a80",
                "code" : "",
                "nonce" : "0x00",
                "storage" : {
                }
            },
            "0xb94f5374fce5edbc8e2a8697c15331677e6ebf0b" : {
                "balance" : "0x00",
                "code" : "0x64600c6000556000526005601b6000f0",
                "nonce" : "0x00",
                "storage" : {
                }
            }
        }
    },
    "CreateMessageSuccess_d0g0v0_EIP150" : {
        "_info" : {
            "comment" : "",
            "filledwith" : "cpp-1.3.0+commit.ee0c6776.Linux.g++",
            "lllcversion" : "Version: 0.4.20-develop.2018.2.4+commit.c696803f.Linux.g++",
            "source" : "src/BlockchainTestsFiller/GeneralStateTests/stTransactionTest/CreateMessageSuccess_d0g0v0Filler.json",
            "sourceHash" : "16dcd43431455a119d69715bbf5ff2c0094f11bad9a5c20852f394235149cb72"
        },
        "blocks" : [
            {
                "blockHeader" : {
                    "bloom" : "0x00000000000000000000000000000000000000000000000000000000000000000000000000000000000000000000000000000000000000000000000000000000000000000000000000000000000000000000000000000000000000000000000000000000000000000000000000000000000000000000000000000000000000000000000000000000000000000000000000000000000000000000000000000000000000000000000000000000000000000000000000000000000000000000000000000000000000000000000000000000000000000000000000000000000000000000000000000000000000000000000000000000000000000000000000000000",
                    "coinbase" : "0x2adc25665018aa1fe0e6bc666dac8fc2697ff9ba",
                    "difficulty" : "0x020000",
                    "extraData" : "",
                    "gasLimit" : "0xe8d4a51000",
                    "gasUsed" : "0x011d43",
                    "hash" : "0x22cc96a1c1c7c10c670eee38aadac77e89da2e4f2765235f1dc8b0afce342b93",
                    "mixHash" : "0xab18e61706a6fa437d34a9a5982e2231c3d857faeb27811546d589d6f2d89d7e",
                    "nonce" : "0xafcb4f3a48866f87",
                    "number" : "0x01",
                    "parentHash" : "0x92a8d6713604324484b49c23e74531cbe99568f08bbf93a40a3f82f778cca8e6",
                    "receiptTrie" : "0xf7ddad3544696e654f97b4df93f62b76b0ad5d6fdd59785a4da0fcf97e007be6",
                    "stateRoot" : "0xc63122846103f1f0d5f537faa69ce3c93b525d204699d7c211cbc17e3ac1f80a",
                    "timestamp" : "0x03e8",
                    "transactionsTrie" : "0xbe70b05b1df4522aec758c4f6d268369e578251620b129377f8d38f5a4373ef5",
                    "uncleHash" : "0x1dcc4de8dec75d7aab85b567b6ccd41ad312451b948a7413f0a142fd40d49347"
                },
                "rlp" : "0xf90262f901faa092a8d6713604324484b49c23e74531cbe99568f08bbf93a40a3f82f778cca8e6a01dcc4de8dec75d7aab85b567b6ccd41ad312451b948a7413f0a142fd40d49347942adc25665018aa1fe0e6bc666dac8fc2697ff9baa0c63122846103f1f0d5f537faa69ce3c93b525d204699d7c211cbc17e3ac1f80aa0be70b05b1df4522aec758c4f6d268369e578251620b129377f8d38f5a4373ef5a0f7ddad3544696e654f97b4df93f62b76b0ad5d6fdd59785a4da0fcf97e007be6b9010000000000000000000000000000000000000000000000000000000000000000000000000000000000000000000000000000000000000000000000000000000000000000000000000000000000000000000000000000000000000000000000000000000000000000000000000000000000000000000000000000000000000000000000000000000000000000000000000000000000000000000000000000000000000000000000000000000000000000000000000000000000000000000000000000000000000000000000000000000000000000000000000000000000000000000000000000000000000000000000000000000000000000000000000000000000830200000185e8d4a5100083011d438203e880a0ab18e61706a6fa437d34a9a5982e2231c3d857faeb27811546d589d6f2d89d7e88afcb4f3a48866f87f862f86080018302032a94b94f5374fce5edbc8e2a8697c15331677e6ebf0b64801ca0e50d3284baffc47daf12571b58a6b472a679708b3b417fd8f233a1762f862561a067228488d10eced039910ed1b669a24baf0c7537751a78af977cdc22d0b4a17dc0",
                "transactions" : [
                    {
                        "data" : "0x",
                        "gasLimit" : "0x02032a",
                        "gasPrice" : "0x01",
                        "nonce" : "0x00",
                        "r" : "0xe50d3284baffc47daf12571b58a6b472a679708b3b417fd8f233a1762f862561",
                        "s" : "0x67228488d10eced039910ed1b669a24baf0c7537751a78af977cdc22d0b4a17d",
                        "to" : "0xb94f5374fce5edbc8e2a8697c15331677e6ebf0b",
                        "v" : "0x1c",
                        "value" : "0x64"
                    }
                ],
                "uncleHeaders" : [
                ]
            }
        ],
        "genesisBlockHeader" : {
            "bloom" : "0x00000000000000000000000000000000000000000000000000000000000000000000000000000000000000000000000000000000000000000000000000000000000000000000000000000000000000000000000000000000000000000000000000000000000000000000000000000000000000000000000000000000000000000000000000000000000000000000000000000000000000000000000000000000000000000000000000000000000000000000000000000000000000000000000000000000000000000000000000000000000000000000000000000000000000000000000000000000000000000000000000000000000000000000000000000000",
            "coinbase" : "0x2adc25665018aa1fe0e6bc666dac8fc2697ff9ba",
            "difficulty" : "0x020000",
            "extraData" : "0x42",
            "gasLimit" : "0xe8d4a51000",
            "gasUsed" : "0x00",
            "hash" : "0x92a8d6713604324484b49c23e74531cbe99568f08bbf93a40a3f82f778cca8e6",
            "mixHash" : "0x56e81f171bcc55a6ff8345e692c0f86e5b48e01b996cadc001622fb5e363b421",
            "nonce" : "0x0102030405060708",
            "number" : "0x00",
            "parentHash" : "0x0000000000000000000000000000000000000000000000000000000000000000",
            "receiptTrie" : "0x56e81f171bcc55a6ff8345e692c0f86e5b48e01b996cadc001622fb5e363b421",
            "stateRoot" : "0x156953be8213367ec86d77358ff7bc67ef8e71c17abf310ffc147c8487bae2af",
            "timestamp" : "0x03b6",
            "transactionsTrie" : "0x56e81f171bcc55a6ff8345e692c0f86e5b48e01b996cadc001622fb5e363b421",
            "uncleHash" : "0x1dcc4de8dec75d7aab85b567b6ccd41ad312451b948a7413f0a142fd40d49347"
        },
        "genesisRLP" : "0xf901fcf901f7a00000000000000000000000000000000000000000000000000000000000000000a01dcc4de8dec75d7aab85b567b6ccd41ad312451b948a7413f0a142fd40d49347942adc25665018aa1fe0e6bc666dac8fc2697ff9baa0156953be8213367ec86d77358ff7bc67ef8e71c17abf310ffc147c8487bae2afa056e81f171bcc55a6ff8345e692c0f86e5b48e01b996cadc001622fb5e363b421a056e81f171bcc55a6ff8345e692c0f86e5b48e01b996cadc001622fb5e363b421b9010000000000000000000000000000000000000000000000000000000000000000000000000000000000000000000000000000000000000000000000000000000000000000000000000000000000000000000000000000000000000000000000000000000000000000000000000000000000000000000000000000000000000000000000000000000000000000000000000000000000000000000000000000000000000000000000000000000000000000000000000000000000000000000000000000000000000000000000000000000000000000000000000000000000000000000000000000000000000000000000000000000000000000000000000000000000830200008085e8d4a51000808203b642a056e81f171bcc55a6ff8345e692c0f86e5b48e01b996cadc001622fb5e363b421880102030405060708c0c0",
        "lastblockhash" : "0x22cc96a1c1c7c10c670eee38aadac77e89da2e4f2765235f1dc8b0afce342b93",
        "network" : "EIP150",
        "postState" : {
            "0x2adc25665018aa1fe0e6bc666dac8fc2697ff9ba" : {
                "balance" : "0x4563918244f51d43",
                "code" : "",
                "nonce" : "0x00",
                "storage" : {
                }
            },
            "0xa94f5374fce5edbc8e2a8697c15331677e6ebf0b" : {
                "balance" : "0x04fcd9",
                "code" : "",
                "nonce" : "0x01",
                "storage" : {
                }
            },
            "0xb94f5374fce5edbc8e2a8697c15331677e6ebf0b" : {
                "balance" : "0x64",
                "code" : "0x64600c6000556000526005601b6000f0",
                "nonce" : "0x01",
                "storage" : {
                }
            },
            "0xf1ecf98489fa9ed60a664fc4998db699cfa39d40" : {
                "balance" : "0x00",
                "code" : "",
                "nonce" : "0x00",
                "storage" : {
                    "0x00" : "0x0c"
                }
            }
        },
        "pre" : {
            "0xa94f5374fce5edbc8e2a8697c15331677e6ebf0b" : {
                "balance" : "0x061a80",
                "code" : "",
                "nonce" : "0x00",
                "storage" : {
                }
            },
            "0xb94f5374fce5edbc8e2a8697c15331677e6ebf0b" : {
                "balance" : "0x00",
                "code" : "0x64600c6000556000526005601b6000f0",
                "nonce" : "0x00",
                "storage" : {
                }
            }
        }
    },
    "CreateMessageSuccess_d0g0v0_EIP158" : {
        "_info" : {
            "comment" : "",
            "filledwith" : "cpp-1.3.0+commit.ee0c6776.Linux.g++",
            "lllcversion" : "Version: 0.4.20-develop.2018.2.4+commit.c696803f.Linux.g++",
            "source" : "src/BlockchainTestsFiller/GeneralStateTests/stTransactionTest/CreateMessageSuccess_d0g0v0Filler.json",
            "sourceHash" : "16dcd43431455a119d69715bbf5ff2c0094f11bad9a5c20852f394235149cb72"
        },
        "blocks" : [
            {
                "blockHeader" : {
                    "bloom" : "0x00000000000000000000000000000000000000000000000000000000000000000000000000000000000000000000000000000000000000000000000000000000000000000000000000000000000000000000000000000000000000000000000000000000000000000000000000000000000000000000000000000000000000000000000000000000000000000000000000000000000000000000000000000000000000000000000000000000000000000000000000000000000000000000000000000000000000000000000000000000000000000000000000000000000000000000000000000000000000000000000000000000000000000000000000000000",
                    "coinbase" : "0x2adc25665018aa1fe0e6bc666dac8fc2697ff9ba",
                    "difficulty" : "0x020000",
                    "extraData" : "",
                    "gasLimit" : "0xe8d4a51000",
                    "gasUsed" : "0x011d43",
                    "hash" : "0xd71d5ff69e4eae1e812895f6a43cf9b379ce8762305fa6f826b5d4d430555e7d",
                    "mixHash" : "0xd4dbcca12ad74581ddf254b3e74cfb9168840b809b1a746dc5b85f4c6c14503d",
                    "nonce" : "0x834044455dc83695",
                    "number" : "0x01",
                    "parentHash" : "0x92a8d6713604324484b49c23e74531cbe99568f08bbf93a40a3f82f778cca8e6",
                    "receiptTrie" : "0xd81ce2a45d6de02de6afd07b3127631de708f1caab554853e90e060ef9776961",
                    "stateRoot" : "0xe7aa9cfcf78f24ceca24301dbeeb934530aea7073de076b40f83c4d58f308a58",
                    "timestamp" : "0x03e8",
                    "transactionsTrie" : "0xbe70b05b1df4522aec758c4f6d268369e578251620b129377f8d38f5a4373ef5",
                    "uncleHash" : "0x1dcc4de8dec75d7aab85b567b6ccd41ad312451b948a7413f0a142fd40d49347"
                },
                "rlp" : "0xf90262f901faa092a8d6713604324484b49c23e74531cbe99568f08bbf93a40a3f82f778cca8e6a01dcc4de8dec75d7aab85b567b6ccd41ad312451b948a7413f0a142fd40d49347942adc25665018aa1fe0e6bc666dac8fc2697ff9baa0e7aa9cfcf78f24ceca24301dbeeb934530aea7073de076b40f83c4d58f308a58a0be70b05b1df4522aec758c4f6d268369e578251620b129377f8d38f5a4373ef5a0d81ce2a45d6de02de6afd07b3127631de708f1caab554853e90e060ef9776961b9010000000000000000000000000000000000000000000000000000000000000000000000000000000000000000000000000000000000000000000000000000000000000000000000000000000000000000000000000000000000000000000000000000000000000000000000000000000000000000000000000000000000000000000000000000000000000000000000000000000000000000000000000000000000000000000000000000000000000000000000000000000000000000000000000000000000000000000000000000000000000000000000000000000000000000000000000000000000000000000000000000000000000000000000000000000000830200000185e8d4a5100083011d438203e880a0d4dbcca12ad74581ddf254b3e74cfb9168840b809b1a746dc5b85f4c6c14503d88834044455dc83695f862f86080018302032a94b94f5374fce5edbc8e2a8697c15331677e6ebf0b64801ca0e50d3284baffc47daf12571b58a6b472a679708b3b417fd8f233a1762f862561a067228488d10eced039910ed1b669a24baf0c7537751a78af977cdc22d0b4a17dc0",
                "transactions" : [
                    {
                        "data" : "0x",
                        "gasLimit" : "0x02032a",
                        "gasPrice" : "0x01",
                        "nonce" : "0x00",
                        "r" : "0xe50d3284baffc47daf12571b58a6b472a679708b3b417fd8f233a1762f862561",
                        "s" : "0x67228488d10eced039910ed1b669a24baf0c7537751a78af977cdc22d0b4a17d",
                        "to" : "0xb94f5374fce5edbc8e2a8697c15331677e6ebf0b",
                        "v" : "0x1c",
                        "value" : "0x64"
                    }
                ],
                "uncleHeaders" : [
                ]
            }
        ],
        "genesisBlockHeader" : {
            "bloom" : "0x00000000000000000000000000000000000000000000000000000000000000000000000000000000000000000000000000000000000000000000000000000000000000000000000000000000000000000000000000000000000000000000000000000000000000000000000000000000000000000000000000000000000000000000000000000000000000000000000000000000000000000000000000000000000000000000000000000000000000000000000000000000000000000000000000000000000000000000000000000000000000000000000000000000000000000000000000000000000000000000000000000000000000000000000000000000",
            "coinbase" : "0x2adc25665018aa1fe0e6bc666dac8fc2697ff9ba",
            "difficulty" : "0x020000",
            "extraData" : "0x42",
            "gasLimit" : "0xe8d4a51000",
            "gasUsed" : "0x00",
            "hash" : "0x92a8d6713604324484b49c23e74531cbe99568f08bbf93a40a3f82f778cca8e6",
            "mixHash" : "0x56e81f171bcc55a6ff8345e692c0f86e5b48e01b996cadc001622fb5e363b421",
            "nonce" : "0x0102030405060708",
            "number" : "0x00",
            "parentHash" : "0x0000000000000000000000000000000000000000000000000000000000000000",
            "receiptTrie" : "0x56e81f171bcc55a6ff8345e692c0f86e5b48e01b996cadc001622fb5e363b421",
            "stateRoot" : "0x156953be8213367ec86d77358ff7bc67ef8e71c17abf310ffc147c8487bae2af",
            "timestamp" : "0x03b6",
            "transactionsTrie" : "0x56e81f171bcc55a6ff8345e692c0f86e5b48e01b996cadc001622fb5e363b421",
            "uncleHash" : "0x1dcc4de8dec75d7aab85b567b6ccd41ad312451b948a7413f0a142fd40d49347"
        },
        "genesisRLP" : "0xf901fcf901f7a00000000000000000000000000000000000000000000000000000000000000000a01dcc4de8dec75d7aab85b567b6ccd41ad312451b948a7413f0a142fd40d49347942adc25665018aa1fe0e6bc666dac8fc2697ff9baa0156953be8213367ec86d77358ff7bc67ef8e71c17abf310ffc147c8487bae2afa056e81f171bcc55a6ff8345e692c0f86e5b48e01b996cadc001622fb5e363b421a056e81f171bcc55a6ff8345e692c0f86e5b48e01b996cadc001622fb5e363b421b9010000000000000000000000000000000000000000000000000000000000000000000000000000000000000000000000000000000000000000000000000000000000000000000000000000000000000000000000000000000000000000000000000000000000000000000000000000000000000000000000000000000000000000000000000000000000000000000000000000000000000000000000000000000000000000000000000000000000000000000000000000000000000000000000000000000000000000000000000000000000000000000000000000000000000000000000000000000000000000000000000000000000000000000000000000000000830200008085e8d4a51000808203b642a056e81f171bcc55a6ff8345e692c0f86e5b48e01b996cadc001622fb5e363b421880102030405060708c0c0",
        "lastblockhash" : "0xd71d5ff69e4eae1e812895f6a43cf9b379ce8762305fa6f826b5d4d430555e7d",
        "network" : "EIP158",
        "postState" : {
            "0x2adc25665018aa1fe0e6bc666dac8fc2697ff9ba" : {
                "balance" : "0x4563918244f51d43",
                "code" : "",
                "nonce" : "0x00",
                "storage" : {
                }
            },
            "0xa94f5374fce5edbc8e2a8697c15331677e6ebf0b" : {
                "balance" : "0x04fcd9",
                "code" : "",
                "nonce" : "0x01",
                "storage" : {
                }
            },
            "0xb94f5374fce5edbc8e2a8697c15331677e6ebf0b" : {
                "balance" : "0x64",
                "code" : "0x64600c6000556000526005601b6000f0",
                "nonce" : "0x01",
                "storage" : {
                }
            },
            "0xf1ecf98489fa9ed60a664fc4998db699cfa39d40" : {
                "balance" : "0x00",
                "code" : "",
                "nonce" : "0x01",
                "storage" : {
                    "0x00" : "0x0c"
                }
            }
        },
        "pre" : {
            "0xa94f5374fce5edbc8e2a8697c15331677e6ebf0b" : {
                "balance" : "0x061a80",
                "code" : "",
                "nonce" : "0x00",
                "storage" : {
                }
            },
            "0xb94f5374fce5edbc8e2a8697c15331677e6ebf0b" : {
                "balance" : "0x00",
                "code" : "0x64600c6000556000526005601b6000f0",
                "nonce" : "0x00",
                "storage" : {
                }
            }
        }
    },
    "CreateMessageSuccess_d0g0v0_Frontier" : {
        "_info" : {
            "comment" : "",
            "filledwith" : "cpp-1.3.0+commit.ee0c6776.Linux.g++",
            "lllcversion" : "Version: 0.4.20-develop.2018.2.4+commit.c696803f.Linux.g++",
            "source" : "src/BlockchainTestsFiller/GeneralStateTests/stTransactionTest/CreateMessageSuccess_d0g0v0Filler.json",
            "sourceHash" : "16dcd43431455a119d69715bbf5ff2c0094f11bad9a5c20852f394235149cb72"
        },
        "blocks" : [
            {
                "blockHeader" : {
                    "bloom" : "0x00000000000000000000000000000000000000000000000000000000000000000000000000000000000000000000000000000000000000000000000000000000000000000000000000000000000000000000000000000000000000000000000000000000000000000000000000000000000000000000000000000000000000000000000000000000000000000000000000000000000000000000000000000000000000000000000000000000000000000000000000000000000000000000000000000000000000000000000000000000000000000000000000000000000000000000000000000000000000000000000000000000000000000000000000000000",
                    "coinbase" : "0x2adc25665018aa1fe0e6bc666dac8fc2697ff9ba",
                    "difficulty" : "0x020000",
                    "extraData" : "",
                    "gasLimit" : "0xe8d4a51000",
                    "gasUsed" : "0x011d43",
                    "hash" : "0xa2e9b0fa816be4f70a14b7cd29a81b903599911ab65c578ef4d04e321a1d49eb",
                    "mixHash" : "0x1420b4c4d7d87064c5d7488d0dbb2a9954ee5f726cd5d0b9b274561a4b1ab312",
                    "nonce" : "0x3d615a31952182ee",
                    "number" : "0x01",
                    "parentHash" : "0x92a8d6713604324484b49c23e74531cbe99568f08bbf93a40a3f82f778cca8e6",
                    "receiptTrie" : "0xf7ddad3544696e654f97b4df93f62b76b0ad5d6fdd59785a4da0fcf97e007be6",
                    "stateRoot" : "0xc63122846103f1f0d5f537faa69ce3c93b525d204699d7c211cbc17e3ac1f80a",
                    "timestamp" : "0x03e8",
                    "transactionsTrie" : "0xbe70b05b1df4522aec758c4f6d268369e578251620b129377f8d38f5a4373ef5",
                    "uncleHash" : "0x1dcc4de8dec75d7aab85b567b6ccd41ad312451b948a7413f0a142fd40d49347"
                },
                "rlp" : "0xf90262f901faa092a8d6713604324484b49c23e74531cbe99568f08bbf93a40a3f82f778cca8e6a01dcc4de8dec75d7aab85b567b6ccd41ad312451b948a7413f0a142fd40d49347942adc25665018aa1fe0e6bc666dac8fc2697ff9baa0c63122846103f1f0d5f537faa69ce3c93b525d204699d7c211cbc17e3ac1f80aa0be70b05b1df4522aec758c4f6d268369e578251620b129377f8d38f5a4373ef5a0f7ddad3544696e654f97b4df93f62b76b0ad5d6fdd59785a4da0fcf97e007be6b9010000000000000000000000000000000000000000000000000000000000000000000000000000000000000000000000000000000000000000000000000000000000000000000000000000000000000000000000000000000000000000000000000000000000000000000000000000000000000000000000000000000000000000000000000000000000000000000000000000000000000000000000000000000000000000000000000000000000000000000000000000000000000000000000000000000000000000000000000000000000000000000000000000000000000000000000000000000000000000000000000000000000000000000000000000000000830200000185e8d4a5100083011d438203e880a01420b4c4d7d87064c5d7488d0dbb2a9954ee5f726cd5d0b9b274561a4b1ab312883d615a31952182eef862f86080018302032a94b94f5374fce5edbc8e2a8697c15331677e6ebf0b64801ca0e50d3284baffc47daf12571b58a6b472a679708b3b417fd8f233a1762f862561a067228488d10eced039910ed1b669a24baf0c7537751a78af977cdc22d0b4a17dc0",
                "transactions" : [
                    {
                        "data" : "0x",
                        "gasLimit" : "0x02032a",
                        "gasPrice" : "0x01",
                        "nonce" : "0x00",
                        "r" : "0xe50d3284baffc47daf12571b58a6b472a679708b3b417fd8f233a1762f862561",
                        "s" : "0x67228488d10eced039910ed1b669a24baf0c7537751a78af977cdc22d0b4a17d",
                        "to" : "0xb94f5374fce5edbc8e2a8697c15331677e6ebf0b",
                        "v" : "0x1c",
                        "value" : "0x64"
                    }
                ],
                "uncleHeaders" : [
                ]
            }
        ],
        "genesisBlockHeader" : {
            "bloom" : "0x00000000000000000000000000000000000000000000000000000000000000000000000000000000000000000000000000000000000000000000000000000000000000000000000000000000000000000000000000000000000000000000000000000000000000000000000000000000000000000000000000000000000000000000000000000000000000000000000000000000000000000000000000000000000000000000000000000000000000000000000000000000000000000000000000000000000000000000000000000000000000000000000000000000000000000000000000000000000000000000000000000000000000000000000000000000",
            "coinbase" : "0x2adc25665018aa1fe0e6bc666dac8fc2697ff9ba",
            "difficulty" : "0x020000",
            "extraData" : "0x42",
            "gasLimit" : "0xe8d4a51000",
            "gasUsed" : "0x00",
            "hash" : "0x92a8d6713604324484b49c23e74531cbe99568f08bbf93a40a3f82f778cca8e6",
            "mixHash" : "0x56e81f171bcc55a6ff8345e692c0f86e5b48e01b996cadc001622fb5e363b421",
            "nonce" : "0x0102030405060708",
            "number" : "0x00",
            "parentHash" : "0x0000000000000000000000000000000000000000000000000000000000000000",
            "receiptTrie" : "0x56e81f171bcc55a6ff8345e692c0f86e5b48e01b996cadc001622fb5e363b421",
            "stateRoot" : "0x156953be8213367ec86d77358ff7bc67ef8e71c17abf310ffc147c8487bae2af",
            "timestamp" : "0x03b6",
            "transactionsTrie" : "0x56e81f171bcc55a6ff8345e692c0f86e5b48e01b996cadc001622fb5e363b421",
            "uncleHash" : "0x1dcc4de8dec75d7aab85b567b6ccd41ad312451b948a7413f0a142fd40d49347"
        },
        "genesisRLP" : "0xf901fcf901f7a00000000000000000000000000000000000000000000000000000000000000000a01dcc4de8dec75d7aab85b567b6ccd41ad312451b948a7413f0a142fd40d49347942adc25665018aa1fe0e6bc666dac8fc2697ff9baa0156953be8213367ec86d77358ff7bc67ef8e71c17abf310ffc147c8487bae2afa056e81f171bcc55a6ff8345e692c0f86e5b48e01b996cadc001622fb5e363b421a056e81f171bcc55a6ff8345e692c0f86e5b48e01b996cadc001622fb5e363b421b9010000000000000000000000000000000000000000000000000000000000000000000000000000000000000000000000000000000000000000000000000000000000000000000000000000000000000000000000000000000000000000000000000000000000000000000000000000000000000000000000000000000000000000000000000000000000000000000000000000000000000000000000000000000000000000000000000000000000000000000000000000000000000000000000000000000000000000000000000000000000000000000000000000000000000000000000000000000000000000000000000000000000000000000000000000000000830200008085e8d4a51000808203b642a056e81f171bcc55a6ff8345e692c0f86e5b48e01b996cadc001622fb5e363b421880102030405060708c0c0",
        "lastblockhash" : "0xa2e9b0fa816be4f70a14b7cd29a81b903599911ab65c578ef4d04e321a1d49eb",
        "network" : "Frontier",
        "postState" : {
            "0x2adc25665018aa1fe0e6bc666dac8fc2697ff9ba" : {
                "balance" : "0x4563918244f51d43",
                "code" : "",
                "nonce" : "0x00",
                "storage" : {
                }
            },
            "0xa94f5374fce5edbc8e2a8697c15331677e6ebf0b" : {
                "balance" : "0x04fcd9",
                "code" : "",
                "nonce" : "0x01",
                "storage" : {
                }
            },
            "0xb94f5374fce5edbc8e2a8697c15331677e6ebf0b" : {
                "balance" : "0x64",
                "code" : "0x64600c6000556000526005601b6000f0",
                "nonce" : "0x01",
                "storage" : {
                }
            },
            "0xf1ecf98489fa9ed60a664fc4998db699cfa39d40" : {
                "balance" : "0x00",
                "code" : "",
                "nonce" : "0x00",
                "storage" : {
                    "0x00" : "0x0c"
                }
            }
        },
        "pre" : {
            "0xa94f5374fce5edbc8e2a8697c15331677e6ebf0b" : {
                "balance" : "0x061a80",
                "code" : "",
                "nonce" : "0x00",
                "storage" : {
                }
            },
            "0xb94f5374fce5edbc8e2a8697c15331677e6ebf0b" : {
                "balance" : "0x00",
                "code" : "0x64600c6000556000526005601b6000f0",
                "nonce" : "0x00",
                "storage" : {
                }
            }
        }
    },
    "CreateMessageSuccess_d0g0v0_Homestead" : {
        "_info" : {
            "comment" : "",
            "filledwith" : "cpp-1.3.0+commit.ee0c6776.Linux.g++",
            "lllcversion" : "Version: 0.4.20-develop.2018.2.4+commit.c696803f.Linux.g++",
            "source" : "src/BlockchainTestsFiller/GeneralStateTests/stTransactionTest/CreateMessageSuccess_d0g0v0Filler.json",
            "sourceHash" : "16dcd43431455a119d69715bbf5ff2c0094f11bad9a5c20852f394235149cb72"
        },
        "blocks" : [
            {
                "blockHeader" : {
                    "bloom" : "0x00000000000000000000000000000000000000000000000000000000000000000000000000000000000000000000000000000000000000000000000000000000000000000000000000000000000000000000000000000000000000000000000000000000000000000000000000000000000000000000000000000000000000000000000000000000000000000000000000000000000000000000000000000000000000000000000000000000000000000000000000000000000000000000000000000000000000000000000000000000000000000000000000000000000000000000000000000000000000000000000000000000000000000000000000000000",
                    "coinbase" : "0x2adc25665018aa1fe0e6bc666dac8fc2697ff9ba",
                    "difficulty" : "0x020000",
                    "extraData" : "",
                    "gasLimit" : "0xe8d4a51000",
                    "gasUsed" : "0x011d43",
                    "hash" : "0x260b7d027a2ae58e18bb5f675053b5ab458770acc2a9f9375b38cf6f5dab9fe3",
                    "mixHash" : "0x1fe4db8ba3d550a514017b83ac5a37c63ed624e9d60e2dcd498fe4a4c8b3b8ef",
                    "nonce" : "0xcf6956f59e821e9f",
                    "number" : "0x01",
                    "parentHash" : "0x92a8d6713604324484b49c23e74531cbe99568f08bbf93a40a3f82f778cca8e6",
                    "receiptTrie" : "0xf7ddad3544696e654f97b4df93f62b76b0ad5d6fdd59785a4da0fcf97e007be6",
                    "stateRoot" : "0xc63122846103f1f0d5f537faa69ce3c93b525d204699d7c211cbc17e3ac1f80a",
                    "timestamp" : "0x03e8",
                    "transactionsTrie" : "0xbe70b05b1df4522aec758c4f6d268369e578251620b129377f8d38f5a4373ef5",
                    "uncleHash" : "0x1dcc4de8dec75d7aab85b567b6ccd41ad312451b948a7413f0a142fd40d49347"
                },
                "rlp" : "0xf90262f901faa092a8d6713604324484b49c23e74531cbe99568f08bbf93a40a3f82f778cca8e6a01dcc4de8dec75d7aab85b567b6ccd41ad312451b948a7413f0a142fd40d49347942adc25665018aa1fe0e6bc666dac8fc2697ff9baa0c63122846103f1f0d5f537faa69ce3c93b525d204699d7c211cbc17e3ac1f80aa0be70b05b1df4522aec758c4f6d268369e578251620b129377f8d38f5a4373ef5a0f7ddad3544696e654f97b4df93f62b76b0ad5d6fdd59785a4da0fcf97e007be6b9010000000000000000000000000000000000000000000000000000000000000000000000000000000000000000000000000000000000000000000000000000000000000000000000000000000000000000000000000000000000000000000000000000000000000000000000000000000000000000000000000000000000000000000000000000000000000000000000000000000000000000000000000000000000000000000000000000000000000000000000000000000000000000000000000000000000000000000000000000000000000000000000000000000000000000000000000000000000000000000000000000000000000000000000000000000000830200000185e8d4a5100083011d438203e880a01fe4db8ba3d550a514017b83ac5a37c63ed624e9d60e2dcd498fe4a4c8b3b8ef88cf6956f59e821e9ff862f86080018302032a94b94f5374fce5edbc8e2a8697c15331677e6ebf0b64801ca0e50d3284baffc47daf12571b58a6b472a679708b3b417fd8f233a1762f862561a067228488d10eced039910ed1b669a24baf0c7537751a78af977cdc22d0b4a17dc0",
                "transactions" : [
                    {
                        "data" : "0x",
                        "gasLimit" : "0x02032a",
                        "gasPrice" : "0x01",
                        "nonce" : "0x00",
                        "r" : "0xe50d3284baffc47daf12571b58a6b472a679708b3b417fd8f233a1762f862561",
                        "s" : "0x67228488d10eced039910ed1b669a24baf0c7537751a78af977cdc22d0b4a17d",
                        "to" : "0xb94f5374fce5edbc8e2a8697c15331677e6ebf0b",
                        "v" : "0x1c",
                        "value" : "0x64"
                    }
                ],
                "uncleHeaders" : [
                ]
            }
        ],
        "genesisBlockHeader" : {
            "bloom" : "0x00000000000000000000000000000000000000000000000000000000000000000000000000000000000000000000000000000000000000000000000000000000000000000000000000000000000000000000000000000000000000000000000000000000000000000000000000000000000000000000000000000000000000000000000000000000000000000000000000000000000000000000000000000000000000000000000000000000000000000000000000000000000000000000000000000000000000000000000000000000000000000000000000000000000000000000000000000000000000000000000000000000000000000000000000000000",
            "coinbase" : "0x2adc25665018aa1fe0e6bc666dac8fc2697ff9ba",
            "difficulty" : "0x020000",
            "extraData" : "0x42",
            "gasLimit" : "0xe8d4a51000",
            "gasUsed" : "0x00",
            "hash" : "0x92a8d6713604324484b49c23e74531cbe99568f08bbf93a40a3f82f778cca8e6",
            "mixHash" : "0x56e81f171bcc55a6ff8345e692c0f86e5b48e01b996cadc001622fb5e363b421",
            "nonce" : "0x0102030405060708",
            "number" : "0x00",
            "parentHash" : "0x0000000000000000000000000000000000000000000000000000000000000000",
            "receiptTrie" : "0x56e81f171bcc55a6ff8345e692c0f86e5b48e01b996cadc001622fb5e363b421",
            "stateRoot" : "0x156953be8213367ec86d77358ff7bc67ef8e71c17abf310ffc147c8487bae2af",
            "timestamp" : "0x03b6",
            "transactionsTrie" : "0x56e81f171bcc55a6ff8345e692c0f86e5b48e01b996cadc001622fb5e363b421",
            "uncleHash" : "0x1dcc4de8dec75d7aab85b567b6ccd41ad312451b948a7413f0a142fd40d49347"
        },
        "genesisRLP" : "0xf901fcf901f7a00000000000000000000000000000000000000000000000000000000000000000a01dcc4de8dec75d7aab85b567b6ccd41ad312451b948a7413f0a142fd40d49347942adc25665018aa1fe0e6bc666dac8fc2697ff9baa0156953be8213367ec86d77358ff7bc67ef8e71c17abf310ffc147c8487bae2afa056e81f171bcc55a6ff8345e692c0f86e5b48e01b996cadc001622fb5e363b421a056e81f171bcc55a6ff8345e692c0f86e5b48e01b996cadc001622fb5e363b421b9010000000000000000000000000000000000000000000000000000000000000000000000000000000000000000000000000000000000000000000000000000000000000000000000000000000000000000000000000000000000000000000000000000000000000000000000000000000000000000000000000000000000000000000000000000000000000000000000000000000000000000000000000000000000000000000000000000000000000000000000000000000000000000000000000000000000000000000000000000000000000000000000000000000000000000000000000000000000000000000000000000000000000000000000000000000000830200008085e8d4a51000808203b642a056e81f171bcc55a6ff8345e692c0f86e5b48e01b996cadc001622fb5e363b421880102030405060708c0c0",
        "lastblockhash" : "0x260b7d027a2ae58e18bb5f675053b5ab458770acc2a9f9375b38cf6f5dab9fe3",
        "network" : "Homestead",
        "postState" : {
            "0x2adc25665018aa1fe0e6bc666dac8fc2697ff9ba" : {
                "balance" : "0x4563918244f51d43",
                "code" : "",
                "nonce" : "0x00",
                "storage" : {
                }
            },
            "0xa94f5374fce5edbc8e2a8697c15331677e6ebf0b" : {
                "balance" : "0x04fcd9",
                "code" : "",
                "nonce" : "0x01",
                "storage" : {
                }
            },
            "0xb94f5374fce5edbc8e2a8697c15331677e6ebf0b" : {
                "balance" : "0x64",
                "code" : "0x64600c6000556000526005601b6000f0",
                "nonce" : "0x01",
                "storage" : {
                }
            },
            "0xf1ecf98489fa9ed60a664fc4998db699cfa39d40" : {
                "balance" : "0x00",
                "code" : "",
                "nonce" : "0x00",
                "storage" : {
                    "0x00" : "0x0c"
                }
            }
        },
        "pre" : {
            "0xa94f5374fce5edbc8e2a8697c15331677e6ebf0b" : {
                "balance" : "0x061a80",
                "code" : "",
                "nonce" : "0x00",
                "storage" : {
                }
            },
            "0xb94f5374fce5edbc8e2a8697c15331677e6ebf0b" : {
                "balance" : "0x00",
                "code" : "0x64600c6000556000526005601b6000f0",
                "nonce" : "0x00",
                "storage" : {
                }
            }
        }
    }
}