{
    "InternalCallHittingGasLimit2_d0g0v0_Byzantium" : {
        "_info" : {
            "comment" : "",
            "filledwith" : "cpp-1.3.0+commit.ee0c6776.Linux.g++",
            "lllcversion" : "Version: 0.4.20-develop.2018.2.4+commit.c696803f.Linux.g++",
            "source" : "src/BlockchainTestsFiller/GeneralStateTests/stTransactionTest/InternalCallHittingGasLimit2_d0g0v0Filler.json",
            "sourceHash" : "be830a28cc86366ab03dd0d36da51f0757210ab0fc8910e23fe26fb71fdc3872"
        },
        "blocks" : [
            {
                "blockHeader" : {
                    "bloom" : "0x00000000000000000000000000000000000000000000000000000000000000000000000000000000000000000000000000000000000000000000000000000000000000000000000000000000000000000000000000000000000000000000000000000000000000000000000000000000000000000000000000000000000000000000000000000000000000000000000000000000000000000000000000000000000000000000000000000000000000000000000000000000000000000000000000000000000000000000000000000000000000000000000000000000000000000000000000000000000000000000000000000000000000000000000000000000",
                    "coinbase" : "0x2adf5374fce5edbc8e2a8697c15331677e6ebf0b",
                    "difficulty" : "0x020000",
                    "extraData" : "",
                    "gasLimit" : "0xba96",
                    "gasUsed" : "0xb98c",
                    "hash" : "0x7ecd5f44276becdf7147fa2f1e015028eeb041774a05ab789cb835a64807bafb",
                    "mixHash" : "0xc420b4219ce3cf9f3e1aba3812c3cdf60293d22a2ee53727dc23b869fb039dc6",
                    "nonce" : "0xfe43b5e91abf9d13",
                    "number" : "0x01",
                    "parentHash" : "0x88cd503fad3a0d8b78143a1903ef8a13e8b2851756b4c8b126bed003ed756382",
                    "receiptTrie" : "0x24fc4628f217491c29d0bb826486dc4907af9dfe1db7740c8e81696f1a718f75",
                    "stateRoot" : "0x2f05358792dcbafae0403b76dd9775f36600d6a2700eb405831e5988d6964e9c",
                    "timestamp" : "0x03e8",
                    "transactionsTrie" : "0x6ae0c2896963e0df5dd0937ab85bea97636aeb7ade44e00dacf1ea55e806a731",
                    "uncleHash" : "0x1dcc4de8dec75d7aab85b567b6ccd41ad312451b948a7413f0a142fd40d49347"
                },
                "rlp" : "0xf9025df901f6a088cd503fad3a0d8b78143a1903ef8a13e8b2851756b4c8b126bed003ed756382a01dcc4de8dec75d7aab85b567b6ccd41ad312451b948a7413f0a142fd40d49347942adf5374fce5edbc8e2a8697c15331677e6ebf0ba02f05358792dcbafae0403b76dd9775f36600d6a2700eb405831e5988d6964e9ca06ae0c2896963e0df5dd0937ab85bea97636aeb7ade44e00dacf1ea55e806a731a024fc4628f217491c29d0bb826486dc4907af9dfe1db7740c8e81696f1a718f75b9010000000000000000000000000000000000000000000000000000000000000000000000000000000000000000000000000000000000000000000000000000000000000000000000000000000000000000000000000000000000000000000000000000000000000000000000000000000000000000000000000000000000000000000000000000000000000000000000000000000000000000000000000000000000000000000000000000000000000000000000000000000000000000000000000000000000000000000000000000000000000000000000000000000000000000000000000000000000000000000000000000000000000000000000000000000000830200000182ba9682b98c8203e880a0c420b4219ce3cf9f3e1aba3812c3cdf60293d22a2ee53727dc23b869fb039dc688fe43b5e91abf9d13f861f85f800182ba9694b94f5374fce5edbc8e2a8697c15331677e6ebf0b0a801ba06c4b0b744d75661ed4b2363c3a76c2c461466d65ae411da8924a1241c40ff455a03918cb4144bef595486e4a1006076026552e8077d858b9b99d3e3d9fc5d8b9a9c0",
                "transactions" : [
                    {
                        "data" : "0x",
                        "gasLimit" : "0xba96",
                        "gasPrice" : "0x01",
                        "nonce" : "0x00",
                        "r" : "0x6c4b0b744d75661ed4b2363c3a76c2c461466d65ae411da8924a1241c40ff455",
                        "s" : "0x3918cb4144bef595486e4a1006076026552e8077d858b9b99d3e3d9fc5d8b9a9",
                        "to" : "0xb94f5374fce5edbc8e2a8697c15331677e6ebf0b",
                        "v" : "0x1b",
                        "value" : "0x0a"
                    }
                ],
                "uncleHeaders" : [
                ]
            }
        ],
        "genesisBlockHeader" : {
            "bloom" : "0x00000000000000000000000000000000000000000000000000000000000000000000000000000000000000000000000000000000000000000000000000000000000000000000000000000000000000000000000000000000000000000000000000000000000000000000000000000000000000000000000000000000000000000000000000000000000000000000000000000000000000000000000000000000000000000000000000000000000000000000000000000000000000000000000000000000000000000000000000000000000000000000000000000000000000000000000000000000000000000000000000000000000000000000000000000000",
            "coinbase" : "0x2adf5374fce5edbc8e2a8697c15331677e6ebf0b",
            "difficulty" : "0x020000",
            "extraData" : "0x42",
            "gasLimit" : "0xba96",
            "gasUsed" : "0x00",
            "hash" : "0x88cd503fad3a0d8b78143a1903ef8a13e8b2851756b4c8b126bed003ed756382",
            "mixHash" : "0x56e81f171bcc55a6ff8345e692c0f86e5b48e01b996cadc001622fb5e363b421",
            "nonce" : "0x0102030405060708",
            "number" : "0x00",
            "parentHash" : "0x0000000000000000000000000000000000000000000000000000000000000000",
            "receiptTrie" : "0x56e81f171bcc55a6ff8345e692c0f86e5b48e01b996cadc001622fb5e363b421",
            "stateRoot" : "0x8067ae4e6ecf3be140b56f07720113015d55154e45a44ecc290669b357299bfd",
            "timestamp" : "0x03b6",
            "transactionsTrie" : "0x56e81f171bcc55a6ff8345e692c0f86e5b48e01b996cadc001622fb5e363b421",
            "uncleHash" : "0x1dcc4de8dec75d7aab85b567b6ccd41ad312451b948a7413f0a142fd40d49347"
        },
        "genesisRLP" : "0xf901f9f901f4a00000000000000000000000000000000000000000000000000000000000000000a01dcc4de8dec75d7aab85b567b6ccd41ad312451b948a7413f0a142fd40d49347942adf5374fce5edbc8e2a8697c15331677e6ebf0ba08067ae4e6ecf3be140b56f07720113015d55154e45a44ecc290669b357299bfda056e81f171bcc55a6ff8345e692c0f86e5b48e01b996cadc001622fb5e363b421a056e81f171bcc55a6ff8345e692c0f86e5b48e01b996cadc001622fb5e363b421b9010000000000000000000000000000000000000000000000000000000000000000000000000000000000000000000000000000000000000000000000000000000000000000000000000000000000000000000000000000000000000000000000000000000000000000000000000000000000000000000000000000000000000000000000000000000000000000000000000000000000000000000000000000000000000000000000000000000000000000000000000000000000000000000000000000000000000000000000000000000000000000000000000000000000000000000000000000000000000000000000000000000000000000000000000000000000830200008082ba96808203b642a056e81f171bcc55a6ff8345e692c0f86e5b48e01b996cadc001622fb5e363b421880102030405060708c0c0",
        "lastblockhash" : "0x7ecd5f44276becdf7147fa2f1e015028eeb041774a05ab789cb835a64807bafb",
        "network" : "Byzantium",
        "postState" : {
            "0x2adf5374fce5edbc8e2a8697c15331677e6ebf0b" : {
                "balance" : "0x29a2241af62cb98c",
                "code" : "",
                "nonce" : "0x00",
                "storage" : {
                }
            },
            "0xa94f5374fce5edbc8e2a8697c15331677e6ebf0b" : {
                "balance" : "0x0e88aa",
                "code" : "",
                "nonce" : "0x01",
                "storage" : {
                }
            },
            "0xb94f5374fce5edbc8e2a8697c15331677e6ebf0b" : {
                "balance" : "0x0a",
                "code" : "0x6000600060006000600173c94f5374fce5edbc8e2a8697c15331677e6ebf0b6161a8f1",
                "nonce" : "0x00",
                "storage" : {
                }
            },
            "0xc94f5374fce5edbc8e2a8697c15331677e6ebf0b" : {
                "balance" : "0x00",
                "code" : "0x6037600155",
                "nonce" : "0x00",
                "storage" : {
                }
            }
        },
        "pre" : {
            "0xa94f5374fce5edbc8e2a8697c15331677e6ebf0b" : {
                "balance" : "0x0f4240",
                "code" : "",
                "nonce" : "0x00",
                "storage" : {
                }
            },
            "0xb94f5374fce5edbc8e2a8697c15331677e6ebf0b" : {
                "balance" : "0x00",
                "code" : "0x6000600060006000600173c94f5374fce5edbc8e2a8697c15331677e6ebf0b6161a8f1",
                "nonce" : "0x00",
                "storage" : {
                }
            },
            "0xc94f5374fce5edbc8e2a8697c15331677e6ebf0b" : {
                "balance" : "0x00",
                "code" : "0x6037600155",
                "nonce" : "0x00",
                "storage" : {
                }
            }
        }
    },
    "InternalCallHittingGasLimit2_d0g0v0_EIP150" : {
        "_info" : {
            "comment" : "",
            "filledwith" : "cpp-1.3.0+commit.ee0c6776.Linux.g++",
            "lllcversion" : "Version: 0.4.20-develop.2018.2.4+commit.c696803f.Linux.g++",
            "source" : "src/BlockchainTestsFiller/GeneralStateTests/stTransactionTest/InternalCallHittingGasLimit2_d0g0v0Filler.json",
            "sourceHash" : "be830a28cc86366ab03dd0d36da51f0757210ab0fc8910e23fe26fb71fdc3872"
        },
        "blocks" : [
            {
                "blockHeader" : {
                    "bloom" : "0x00000000000000000000000000000000000000000000000000000000000000000000000000000000000000000000000000000000000000000000000000000000000000000000000000000000000000000000000000000000000000000000000000000000000000000000000000000000000000000000000000000000000000000000000000000000000000000000000000000000000000000000000000000000000000000000000000000000000000000000000000000000000000000000000000000000000000000000000000000000000000000000000000000000000000000000000000000000000000000000000000000000000000000000000000000000",
                    "coinbase" : "0x2adf5374fce5edbc8e2a8697c15331677e6ebf0b",
                    "difficulty" : "0x020000",
                    "extraData" : "",
                    "gasLimit" : "0xba96",
                    "gasUsed" : "0xb98c",
                    "hash" : "0x3ba9d78ef5e63840b22d4e0768dc4a0f394b2bbd5fd17ed2df91d09fa0a6843b",
                    "mixHash" : "0x088e766a349eff69ff2e7edf648d283fabc2d155970ea38cd0976e517a3cc9aa",
                    "nonce" : "0xb1d37a878f179c38",
                    "number" : "0x01",
                    "parentHash" : "0x88cd503fad3a0d8b78143a1903ef8a13e8b2851756b4c8b126bed003ed756382",
                    "receiptTrie" : "0x236a1294ef399ffebe35ca648094c91676c1a5ecb13eb259161eefe850b10bcc",
                    "stateRoot" : "0x7860a9737398b6b0f890342c720d732e6144a1fc1a58240aac66003dc3697d47",
                    "timestamp" : "0x03e8",
                    "transactionsTrie" : "0x6ae0c2896963e0df5dd0937ab85bea97636aeb7ade44e00dacf1ea55e806a731",
                    "uncleHash" : "0x1dcc4de8dec75d7aab85b567b6ccd41ad312451b948a7413f0a142fd40d49347"
                },
                "rlp" : "0xf9025df901f6a088cd503fad3a0d8b78143a1903ef8a13e8b2851756b4c8b126bed003ed756382a01dcc4de8dec75d7aab85b567b6ccd41ad312451b948a7413f0a142fd40d49347942adf5374fce5edbc8e2a8697c15331677e6ebf0ba07860a9737398b6b0f890342c720d732e6144a1fc1a58240aac66003dc3697d47a06ae0c2896963e0df5dd0937ab85bea97636aeb7ade44e00dacf1ea55e806a731a0236a1294ef399ffebe35ca648094c91676c1a5ecb13eb259161eefe850b10bccb9010000000000000000000000000000000000000000000000000000000000000000000000000000000000000000000000000000000000000000000000000000000000000000000000000000000000000000000000000000000000000000000000000000000000000000000000000000000000000000000000000000000000000000000000000000000000000000000000000000000000000000000000000000000000000000000000000000000000000000000000000000000000000000000000000000000000000000000000000000000000000000000000000000000000000000000000000000000000000000000000000000000000000000000000000000000000830200000182ba9682b98c8203e880a0088e766a349eff69ff2e7edf648d283fabc2d155970ea38cd0976e517a3cc9aa88b1d37a878f179c38f861f85f800182ba9694b94f5374fce5edbc8e2a8697c15331677e6ebf0b0a801ba06c4b0b744d75661ed4b2363c3a76c2c461466d65ae411da8924a1241c40ff455a03918cb4144bef595486e4a1006076026552e8077d858b9b99d3e3d9fc5d8b9a9c0",
                "transactions" : [
                    {
                        "data" : "0x",
                        "gasLimit" : "0xba96",
                        "gasPrice" : "0x01",
                        "nonce" : "0x00",
                        "r" : "0x6c4b0b744d75661ed4b2363c3a76c2c461466d65ae411da8924a1241c40ff455",
                        "s" : "0x3918cb4144bef595486e4a1006076026552e8077d858b9b99d3e3d9fc5d8b9a9",
                        "to" : "0xb94f5374fce5edbc8e2a8697c15331677e6ebf0b",
                        "v" : "0x1b",
                        "value" : "0x0a"
                    }
                ],
                "uncleHeaders" : [
                ]
            }
        ],
        "genesisBlockHeader" : {
            "bloom" : "0x00000000000000000000000000000000000000000000000000000000000000000000000000000000000000000000000000000000000000000000000000000000000000000000000000000000000000000000000000000000000000000000000000000000000000000000000000000000000000000000000000000000000000000000000000000000000000000000000000000000000000000000000000000000000000000000000000000000000000000000000000000000000000000000000000000000000000000000000000000000000000000000000000000000000000000000000000000000000000000000000000000000000000000000000000000000",
            "coinbase" : "0x2adf5374fce5edbc8e2a8697c15331677e6ebf0b",
            "difficulty" : "0x020000",
            "extraData" : "0x42",
            "gasLimit" : "0xba96",
            "gasUsed" : "0x00",
            "hash" : "0x88cd503fad3a0d8b78143a1903ef8a13e8b2851756b4c8b126bed003ed756382",
            "mixHash" : "0x56e81f171bcc55a6ff8345e692c0f86e5b48e01b996cadc001622fb5e363b421",
            "nonce" : "0x0102030405060708",
            "number" : "0x00",
            "parentHash" : "0x0000000000000000000000000000000000000000000000000000000000000000",
            "receiptTrie" : "0x56e81f171bcc55a6ff8345e692c0f86e5b48e01b996cadc001622fb5e363b421",
            "stateRoot" : "0x8067ae4e6ecf3be140b56f07720113015d55154e45a44ecc290669b357299bfd",
            "timestamp" : "0x03b6",
            "transactionsTrie" : "0x56e81f171bcc55a6ff8345e692c0f86e5b48e01b996cadc001622fb5e363b421",
            "uncleHash" : "0x1dcc4de8dec75d7aab85b567b6ccd41ad312451b948a7413f0a142fd40d49347"
        },
        "genesisRLP" : "0xf901f9f901f4a00000000000000000000000000000000000000000000000000000000000000000a01dcc4de8dec75d7aab85b567b6ccd41ad312451b948a7413f0a142fd40d49347942adf5374fce5edbc8e2a8697c15331677e6ebf0ba08067ae4e6ecf3be140b56f07720113015d55154e45a44ecc290669b357299bfda056e81f171bcc55a6ff8345e692c0f86e5b48e01b996cadc001622fb5e363b421a056e81f171bcc55a6ff8345e692c0f86e5b48e01b996cadc001622fb5e363b421b9010000000000000000000000000000000000000000000000000000000000000000000000000000000000000000000000000000000000000000000000000000000000000000000000000000000000000000000000000000000000000000000000000000000000000000000000000000000000000000000000000000000000000000000000000000000000000000000000000000000000000000000000000000000000000000000000000000000000000000000000000000000000000000000000000000000000000000000000000000000000000000000000000000000000000000000000000000000000000000000000000000000000000000000000000000000000830200008082ba96808203b642a056e81f171bcc55a6ff8345e692c0f86e5b48e01b996cadc001622fb5e363b421880102030405060708c0c0",
        "lastblockhash" : "0x3ba9d78ef5e63840b22d4e0768dc4a0f394b2bbd5fd17ed2df91d09fa0a6843b",
        "network" : "EIP150",
        "postState" : {
            "0x2adf5374fce5edbc8e2a8697c15331677e6ebf0b" : {
                "balance" : "0x4563918244f4b98c",
                "code" : "",
                "nonce" : "0x00",
                "storage" : {
                }
            },
            "0xa94f5374fce5edbc8e2a8697c15331677e6ebf0b" : {
                "balance" : "0x0e88aa",
                "code" : "",
                "nonce" : "0x01",
                "storage" : {
                }
            },
            "0xb94f5374fce5edbc8e2a8697c15331677e6ebf0b" : {
                "balance" : "0x0a",
                "code" : "0x6000600060006000600173c94f5374fce5edbc8e2a8697c15331677e6ebf0b6161a8f1",
                "nonce" : "0x00",
                "storage" : {
                }
            },
            "0xc94f5374fce5edbc8e2a8697c15331677e6ebf0b" : {
                "balance" : "0x00",
                "code" : "0x6037600155",
                "nonce" : "0x00",
                "storage" : {
                }
            }
        },
        "pre" : {
            "0xa94f5374fce5edbc8e2a8697c15331677e6ebf0b" : {
                "balance" : "0x0f4240",
                "code" : "",
                "nonce" : "0x00",
                "storage" : {
                }
            },
            "0xb94f5374fce5edbc8e2a8697c15331677e6ebf0b" : {
                "balance" : "0x00",
                "code" : "0x6000600060006000600173c94f5374fce5edbc8e2a8697c15331677e6ebf0b6161a8f1",
                "nonce" : "0x00",
                "storage" : {
                }
            },
            "0xc94f5374fce5edbc8e2a8697c15331677e6ebf0b" : {
                "balance" : "0x00",
                "code" : "0x6037600155",
                "nonce" : "0x00",
                "storage" : {
                }
            }
        }
    },
    "InternalCallHittingGasLimit2_d0g0v0_EIP158" : {
        "_info" : {
            "comment" : "",
            "filledwith" : "cpp-1.3.0+commit.ee0c6776.Linux.g++",
            "lllcversion" : "Version: 0.4.20-develop.2018.2.4+commit.c696803f.Linux.g++",
            "source" : "src/BlockchainTestsFiller/GeneralStateTests/stTransactionTest/InternalCallHittingGasLimit2_d0g0v0Filler.json",
            "sourceHash" : "be830a28cc86366ab03dd0d36da51f0757210ab0fc8910e23fe26fb71fdc3872"
        },
        "blocks" : [
            {
                "blockHeader" : {
                    "bloom" : "0x00000000000000000000000000000000000000000000000000000000000000000000000000000000000000000000000000000000000000000000000000000000000000000000000000000000000000000000000000000000000000000000000000000000000000000000000000000000000000000000000000000000000000000000000000000000000000000000000000000000000000000000000000000000000000000000000000000000000000000000000000000000000000000000000000000000000000000000000000000000000000000000000000000000000000000000000000000000000000000000000000000000000000000000000000000000",
                    "coinbase" : "0x2adf5374fce5edbc8e2a8697c15331677e6ebf0b",
                    "difficulty" : "0x020000",
                    "extraData" : "",
                    "gasLimit" : "0xba96",
                    "gasUsed" : "0xb98c",
                    "hash" : "0x82bd4db6c70aa3a7bc0dc26a3620e1b4bcde73f2f3e4c88a48fcac50d138d407",
                    "mixHash" : "0x562d2c8550ac1945bc47b11fc408adfebbf9cf135a5d5dbb9ace2d85a2e217b2",
                    "nonce" : "0x1f21a2428ae00763",
                    "number" : "0x01",
                    "parentHash" : "0x88cd503fad3a0d8b78143a1903ef8a13e8b2851756b4c8b126bed003ed756382",
                    "receiptTrie" : "0x236a1294ef399ffebe35ca648094c91676c1a5ecb13eb259161eefe850b10bcc",
                    "stateRoot" : "0x7860a9737398b6b0f890342c720d732e6144a1fc1a58240aac66003dc3697d47",
                    "timestamp" : "0x03e8",
                    "transactionsTrie" : "0x6ae0c2896963e0df5dd0937ab85bea97636aeb7ade44e00dacf1ea55e806a731",
                    "uncleHash" : "0x1dcc4de8dec75d7aab85b567b6ccd41ad312451b948a7413f0a142fd40d49347"
                },
                "rlp" : "0xf9025df901f6a088cd503fad3a0d8b78143a1903ef8a13e8b2851756b4c8b126bed003ed756382a01dcc4de8dec75d7aab85b567b6ccd41ad312451b948a7413f0a142fd40d49347942adf5374fce5edbc8e2a8697c15331677e6ebf0ba07860a9737398b6b0f890342c720d732e6144a1fc1a58240aac66003dc3697d47a06ae0c2896963e0df5dd0937ab85bea97636aeb7ade44e00dacf1ea55e806a731a0236a1294ef399ffebe35ca648094c91676c1a5ecb13eb259161eefe850b10bccb9010000000000000000000000000000000000000000000000000000000000000000000000000000000000000000000000000000000000000000000000000000000000000000000000000000000000000000000000000000000000000000000000000000000000000000000000000000000000000000000000000000000000000000000000000000000000000000000000000000000000000000000000000000000000000000000000000000000000000000000000000000000000000000000000000000000000000000000000000000000000000000000000000000000000000000000000000000000000000000000000000000000000000000000000000000000000830200000182ba9682b98c8203e880a0562d2c8550ac1945bc47b11fc408adfebbf9cf135a5d5dbb9ace2d85a2e217b2881f21a2428ae00763f861f85f800182ba9694b94f5374fce5edbc8e2a8697c15331677e6ebf0b0a801ba06c4b0b744d75661ed4b2363c3a76c2c461466d65ae411da8924a1241c40ff455a03918cb4144bef595486e4a1006076026552e8077d858b9b99d3e3d9fc5d8b9a9c0",
                "transactions" : [
                    {
                        "data" : "0x",
                        "gasLimit" : "0xba96",
                        "gasPrice" : "0x01",
                        "nonce" : "0x00",
                        "r" : "0x6c4b0b744d75661ed4b2363c3a76c2c461466d65ae411da8924a1241c40ff455",
                        "s" : "0x3918cb4144bef595486e4a1006076026552e8077d858b9b99d3e3d9fc5d8b9a9",
                        "to" : "0xb94f5374fce5edbc8e2a8697c15331677e6ebf0b",
                        "v" : "0x1b",
                        "value" : "0x0a"
                    }
                ],
                "uncleHeaders" : [
                ]
            }
        ],
        "genesisBlockHeader" : {
            "bloom" : "0x00000000000000000000000000000000000000000000000000000000000000000000000000000000000000000000000000000000000000000000000000000000000000000000000000000000000000000000000000000000000000000000000000000000000000000000000000000000000000000000000000000000000000000000000000000000000000000000000000000000000000000000000000000000000000000000000000000000000000000000000000000000000000000000000000000000000000000000000000000000000000000000000000000000000000000000000000000000000000000000000000000000000000000000000000000000",
            "coinbase" : "0x2adf5374fce5edbc8e2a8697c15331677e6ebf0b",
            "difficulty" : "0x020000",
            "extraData" : "0x42",
            "gasLimit" : "0xba96",
            "gasUsed" : "0x00",
            "hash" : "0x88cd503fad3a0d8b78143a1903ef8a13e8b2851756b4c8b126bed003ed756382",
            "mixHash" : "0x56e81f171bcc55a6ff8345e692c0f86e5b48e01b996cadc001622fb5e363b421",
            "nonce" : "0x0102030405060708",
            "number" : "0x00",
            "parentHash" : "0x0000000000000000000000000000000000000000000000000000000000000000",
            "receiptTrie" : "0x56e81f171bcc55a6ff8345e692c0f86e5b48e01b996cadc001622fb5e363b421",
            "stateRoot" : "0x8067ae4e6ecf3be140b56f07720113015d55154e45a44ecc290669b357299bfd",
            "timestamp" : "0x03b6",
            "transactionsTrie" : "0x56e81f171bcc55a6ff8345e692c0f86e5b48e01b996cadc001622fb5e363b421",
            "uncleHash" : "0x1dcc4de8dec75d7aab85b567b6ccd41ad312451b948a7413f0a142fd40d49347"
        },
        "genesisRLP" : "0xf901f9f901f4a00000000000000000000000000000000000000000000000000000000000000000a01dcc4de8dec75d7aab85b567b6ccd41ad312451b948a7413f0a142fd40d49347942adf5374fce5edbc8e2a8697c15331677e6ebf0ba08067ae4e6ecf3be140b56f07720113015d55154e45a44ecc290669b357299bfda056e81f171bcc55a6ff8345e692c0f86e5b48e01b996cadc001622fb5e363b421a056e81f171bcc55a6ff8345e692c0f86e5b48e01b996cadc001622fb5e363b421b9010000000000000000000000000000000000000000000000000000000000000000000000000000000000000000000000000000000000000000000000000000000000000000000000000000000000000000000000000000000000000000000000000000000000000000000000000000000000000000000000000000000000000000000000000000000000000000000000000000000000000000000000000000000000000000000000000000000000000000000000000000000000000000000000000000000000000000000000000000000000000000000000000000000000000000000000000000000000000000000000000000000000000000000000000000000000830200008082ba96808203b642a056e81f171bcc55a6ff8345e692c0f86e5b48e01b996cadc001622fb5e363b421880102030405060708c0c0",
        "lastblockhash" : "0x82bd4db6c70aa3a7bc0dc26a3620e1b4bcde73f2f3e4c88a48fcac50d138d407",
        "network" : "EIP158",
        "postState" : {
            "0x2adf5374fce5edbc8e2a8697c15331677e6ebf0b" : {
                "balance" : "0x4563918244f4b98c",
                "code" : "",
                "nonce" : "0x00",
                "storage" : {
                }
            },
            "0xa94f5374fce5edbc8e2a8697c15331677e6ebf0b" : {
                "balance" : "0x0e88aa",
                "code" : "",
                "nonce" : "0x01",
                "storage" : {
                }
            },
            "0xb94f5374fce5edbc8e2a8697c15331677e6ebf0b" : {
                "balance" : "0x0a",
                "code" : "0x6000600060006000600173c94f5374fce5edbc8e2a8697c15331677e6ebf0b6161a8f1",
                "nonce" : "0x00",
                "storage" : {
                }
            },
            "0xc94f5374fce5edbc8e2a8697c15331677e6ebf0b" : {
                "balance" : "0x00",
                "code" : "0x6037600155",
                "nonce" : "0x00",
                "storage" : {
                }
            }
        },
        "pre" : {
            "0xa94f5374fce5edbc8e2a8697c15331677e6ebf0b" : {
                "balance" : "0x0f4240",
                "code" : "",
                "nonce" : "0x00",
                "storage" : {
                }
            },
            "0xb94f5374fce5edbc8e2a8697c15331677e6ebf0b" : {
                "balance" : "0x00",
                "code" : "0x6000600060006000600173c94f5374fce5edbc8e2a8697c15331677e6ebf0b6161a8f1",
                "nonce" : "0x00",
                "storage" : {
                }
            },
            "0xc94f5374fce5edbc8e2a8697c15331677e6ebf0b" : {
                "balance" : "0x00",
                "code" : "0x6037600155",
                "nonce" : "0x00",
                "storage" : {
                }
            }
        }
    },
    "InternalCallHittingGasLimit2_d0g0v0_Frontier" : {
        "_info" : {
            "comment" : "",
            "filledwith" : "cpp-1.3.0+commit.ee0c6776.Linux.g++",
            "lllcversion" : "Version: 0.4.20-develop.2018.2.4+commit.c696803f.Linux.g++",
            "source" : "src/BlockchainTestsFiller/GeneralStateTests/stTransactionTest/InternalCallHittingGasLimit2_d0g0v0Filler.json",
            "sourceHash" : "be830a28cc86366ab03dd0d36da51f0757210ab0fc8910e23fe26fb71fdc3872"
        },
        "blocks" : [
            {
                "blockHeader" : {
                    "bloom" : "0x00000000000000000000000000000000000000000000000000000000000000000000000000000000000000000000000000000000000000000000000000000000000000000000000000000000000000000000000000000000000000000000000000000000000000000000000000000000000000000000000000000000000000000000000000000000000000000000000000000000000000000000000000000000000000000000000000000000000000000000000000000000000000000000000000000000000000000000000000000000000000000000000000000000000000000000000000000000000000000000000000000000000000000000000000000000",
                    "coinbase" : "0x2adf5374fce5edbc8e2a8697c15331677e6ebf0b",
                    "difficulty" : "0x020000",
                    "extraData" : "",
                    "gasLimit" : "0xba96",
                    "gasUsed" : "0xba96",
                    "hash" : "0xcf1741f050f874212cca124df9ecee013eaed29392dc97add57e7526f298ec6a",
                    "mixHash" : "0x0b1ee4637464b4a15fbacaf47d4b78a2314845b83ae8d765267f488b4435878f",
                    "nonce" : "0xfc6b7fed505cb80e",
                    "number" : "0x01",
                    "parentHash" : "0x88cd503fad3a0d8b78143a1903ef8a13e8b2851756b4c8b126bed003ed756382",
                    "receiptTrie" : "0x755bf28d5eb58d16e4a5987b14fdedd78a01a2807115b957b20178203aa3d7a1",
                    "stateRoot" : "0x69edbc86d9a69aa2e61b2accc5c5d805f681b702457630e4d19991cc6c198419",
                    "timestamp" : "0x03e8",
                    "transactionsTrie" : "0x6ae0c2896963e0df5dd0937ab85bea97636aeb7ade44e00dacf1ea55e806a731",
                    "uncleHash" : "0x1dcc4de8dec75d7aab85b567b6ccd41ad312451b948a7413f0a142fd40d49347"
                },
                "rlp" : "0xf9025df901f6a088cd503fad3a0d8b78143a1903ef8a13e8b2851756b4c8b126bed003ed756382a01dcc4de8dec75d7aab85b567b6ccd41ad312451b948a7413f0a142fd40d49347942adf5374fce5edbc8e2a8697c15331677e6ebf0ba069edbc86d9a69aa2e61b2accc5c5d805f681b702457630e4d19991cc6c198419a06ae0c2896963e0df5dd0937ab85bea97636aeb7ade44e00dacf1ea55e806a731a0755bf28d5eb58d16e4a5987b14fdedd78a01a2807115b957b20178203aa3d7a1b9010000000000000000000000000000000000000000000000000000000000000000000000000000000000000000000000000000000000000000000000000000000000000000000000000000000000000000000000000000000000000000000000000000000000000000000000000000000000000000000000000000000000000000000000000000000000000000000000000000000000000000000000000000000000000000000000000000000000000000000000000000000000000000000000000000000000000000000000000000000000000000000000000000000000000000000000000000000000000000000000000000000000000000000000000000000000830200000182ba9682ba968203e880a00b1ee4637464b4a15fbacaf47d4b78a2314845b83ae8d765267f488b4435878f88fc6b7fed505cb80ef861f85f800182ba9694b94f5374fce5edbc8e2a8697c15331677e6ebf0b0a801ba06c4b0b744d75661ed4b2363c3a76c2c461466d65ae411da8924a1241c40ff455a03918cb4144bef595486e4a1006076026552e8077d858b9b99d3e3d9fc5d8b9a9c0",
                "transactions" : [
                    {
                        "data" : "0x",
                        "gasLimit" : "0xba96",
                        "gasPrice" : "0x01",
                        "nonce" : "0x00",
                        "r" : "0x6c4b0b744d75661ed4b2363c3a76c2c461466d65ae411da8924a1241c40ff455",
                        "s" : "0x3918cb4144bef595486e4a1006076026552e8077d858b9b99d3e3d9fc5d8b9a9",
                        "to" : "0xb94f5374fce5edbc8e2a8697c15331677e6ebf0b",
                        "v" : "0x1b",
                        "value" : "0x0a"
                    }
                ],
                "uncleHeaders" : [
                ]
            }
        ],
        "genesisBlockHeader" : {
            "bloom" : "0x00000000000000000000000000000000000000000000000000000000000000000000000000000000000000000000000000000000000000000000000000000000000000000000000000000000000000000000000000000000000000000000000000000000000000000000000000000000000000000000000000000000000000000000000000000000000000000000000000000000000000000000000000000000000000000000000000000000000000000000000000000000000000000000000000000000000000000000000000000000000000000000000000000000000000000000000000000000000000000000000000000000000000000000000000000000",
            "coinbase" : "0x2adf5374fce5edbc8e2a8697c15331677e6ebf0b",
            "difficulty" : "0x020000",
            "extraData" : "0x42",
            "gasLimit" : "0xba96",
            "gasUsed" : "0x00",
            "hash" : "0x88cd503fad3a0d8b78143a1903ef8a13e8b2851756b4c8b126bed003ed756382",
            "mixHash" : "0x56e81f171bcc55a6ff8345e692c0f86e5b48e01b996cadc001622fb5e363b421",
            "nonce" : "0x0102030405060708",
            "number" : "0x00",
            "parentHash" : "0x0000000000000000000000000000000000000000000000000000000000000000",
            "receiptTrie" : "0x56e81f171bcc55a6ff8345e692c0f86e5b48e01b996cadc001622fb5e363b421",
            "stateRoot" : "0x8067ae4e6ecf3be140b56f07720113015d55154e45a44ecc290669b357299bfd",
            "timestamp" : "0x03b6",
            "transactionsTrie" : "0x56e81f171bcc55a6ff8345e692c0f86e5b48e01b996cadc001622fb5e363b421",
            "uncleHash" : "0x1dcc4de8dec75d7aab85b567b6ccd41ad312451b948a7413f0a142fd40d49347"
        },
        "genesisRLP" : "0xf901f9f901f4a00000000000000000000000000000000000000000000000000000000000000000a01dcc4de8dec75d7aab85b567b6ccd41ad312451b948a7413f0a142fd40d49347942adf5374fce5edbc8e2a8697c15331677e6ebf0ba08067ae4e6ecf3be140b56f07720113015d55154e45a44ecc290669b357299bfda056e81f171bcc55a6ff8345e692c0f86e5b48e01b996cadc001622fb5e363b421a056e81f171bcc55a6ff8345e692c0f86e5b48e01b996cadc001622fb5e363b421b9010000000000000000000000000000000000000000000000000000000000000000000000000000000000000000000000000000000000000000000000000000000000000000000000000000000000000000000000000000000000000000000000000000000000000000000000000000000000000000000000000000000000000000000000000000000000000000000000000000000000000000000000000000000000000000000000000000000000000000000000000000000000000000000000000000000000000000000000000000000000000000000000000000000000000000000000000000000000000000000000000000000000000000000000000000000000830200008082ba96808203b642a056e81f171bcc55a6ff8345e692c0f86e5b48e01b996cadc001622fb5e363b421880102030405060708c0c0",
        "lastblockhash" : "0xcf1741f050f874212cca124df9ecee013eaed29392dc97add57e7526f298ec6a",
        "network" : "Frontier",
        "postState" : {
            "0x2adf5374fce5edbc8e2a8697c15331677e6ebf0b" : {
                "balance" : "0x4563918244f4ba96",
                "code" : "",
                "nonce" : "0x00",
                "storage" : {
                }
            },
            "0xa94f5374fce5edbc8e2a8697c15331677e6ebf0b" : {
                "balance" : "0x0e87aa",
                "code" : "",
                "nonce" : "0x01",
                "storage" : {
                }
            },
            "0xb94f5374fce5edbc8e2a8697c15331677e6ebf0b" : {
                "balance" : "0x00",
                "code" : "0x6000600060006000600173c94f5374fce5edbc8e2a8697c15331677e6ebf0b6161a8f1",
                "nonce" : "0x00",
                "storage" : {
                }
            },
            "0xc94f5374fce5edbc8e2a8697c15331677e6ebf0b" : {
                "balance" : "0x00",
                "code" : "0x6037600155",
                "nonce" : "0x00",
                "storage" : {
                }
            }
        },
        "pre" : {
            "0xa94f5374fce5edbc8e2a8697c15331677e6ebf0b" : {
                "balance" : "0x0f4240",
                "code" : "",
                "nonce" : "0x00",
                "storage" : {
                }
            },
            "0xb94f5374fce5edbc8e2a8697c15331677e6ebf0b" : {
                "balance" : "0x00",
                "code" : "0x6000600060006000600173c94f5374fce5edbc8e2a8697c15331677e6ebf0b6161a8f1",
                "nonce" : "0x00",
                "storage" : {
                }
            },
            "0xc94f5374fce5edbc8e2a8697c15331677e6ebf0b" : {
                "balance" : "0x00",
                "code" : "0x6037600155",
                "nonce" : "0x00",
                "storage" : {
                }
            }
        }
    },
    "InternalCallHittingGasLimit2_d0g0v0_Homestead" : {
        "_info" : {
            "comment" : "",
            "filledwith" : "cpp-1.3.0+commit.ee0c6776.Linux.g++",
            "lllcversion" : "Version: 0.4.20-develop.2018.2.4+commit.c696803f.Linux.g++",
            "source" : "src/BlockchainTestsFiller/GeneralStateTests/stTransactionTest/InternalCallHittingGasLimit2_d0g0v0Filler.json",
            "sourceHash" : "be830a28cc86366ab03dd0d36da51f0757210ab0fc8910e23fe26fb71fdc3872"
        },
        "blocks" : [
            {
                "blockHeader" : {
                    "bloom" : "0x00000000000000000000000000000000000000000000000000000000000000000000000000000000000000000000000000000000000000000000000000000000000000000000000000000000000000000000000000000000000000000000000000000000000000000000000000000000000000000000000000000000000000000000000000000000000000000000000000000000000000000000000000000000000000000000000000000000000000000000000000000000000000000000000000000000000000000000000000000000000000000000000000000000000000000000000000000000000000000000000000000000000000000000000000000000",
                    "coinbase" : "0x2adf5374fce5edbc8e2a8697c15331677e6ebf0b",
                    "difficulty" : "0x020000",
                    "extraData" : "",
                    "gasLimit" : "0xba96",
                    "gasUsed" : "0xba96",
                    "hash" : "0xe5678f339ff25251a9931937098b03bbd46b830b9a1081873052e1417b54bf30",
                    "mixHash" : "0x45abe48ff502e7c93dce091bc51811be6334a6834ba1f85d6b0a1518b02d8418",
                    "nonce" : "0x1368db13a707ecad",
                    "number" : "0x01",
                    "parentHash" : "0x88cd503fad3a0d8b78143a1903ef8a13e8b2851756b4c8b126bed003ed756382",
                    "receiptTrie" : "0x755bf28d5eb58d16e4a5987b14fdedd78a01a2807115b957b20178203aa3d7a1",
                    "stateRoot" : "0x69edbc86d9a69aa2e61b2accc5c5d805f681b702457630e4d19991cc6c198419",
                    "timestamp" : "0x03e8",
                    "transactionsTrie" : "0x6ae0c2896963e0df5dd0937ab85bea97636aeb7ade44e00dacf1ea55e806a731",
                    "uncleHash" : "0x1dcc4de8dec75d7aab85b567b6ccd41ad312451b948a7413f0a142fd40d49347"
                },
                "rlp" : "0xf9025df901f6a088cd503fad3a0d8b78143a1903ef8a13e8b2851756b4c8b126bed003ed756382a01dcc4de8dec75d7aab85b567b6ccd41ad312451b948a7413f0a142fd40d49347942adf5374fce5edbc8e2a8697c15331677e6ebf0ba069edbc86d9a69aa2e61b2accc5c5d805f681b702457630e4d19991cc6c198419a06ae0c2896963e0df5dd0937ab85bea97636aeb7ade44e00dacf1ea55e806a731a0755bf28d5eb58d16e4a5987b14fdedd78a01a2807115b957b20178203aa3d7a1b9010000000000000000000000000000000000000000000000000000000000000000000000000000000000000000000000000000000000000000000000000000000000000000000000000000000000000000000000000000000000000000000000000000000000000000000000000000000000000000000000000000000000000000000000000000000000000000000000000000000000000000000000000000000000000000000000000000000000000000000000000000000000000000000000000000000000000000000000000000000000000000000000000000000000000000000000000000000000000000000000000000000000000000000000000000000000830200000182ba9682ba968203e880a045abe48ff502e7c93dce091bc51811be6334a6834ba1f85d6b0a1518b02d8418881368db13a707ecadf861f85f800182ba9694b94f5374fce5edbc8e2a8697c15331677e6ebf0b0a801ba06c4b0b744d75661ed4b2363c3a76c2c461466d65ae411da8924a1241c40ff455a03918cb4144bef595486e4a1006076026552e8077d858b9b99d3e3d9fc5d8b9a9c0",
                "transactions" : [
                    {
                        "data" : "0x",
                        "gasLimit" : "0xba96",
                        "gasPrice" : "0x01",
                        "nonce" : "0x00",
                        "r" : "0x6c4b0b744d75661ed4b2363c3a76c2c461466d65ae411da8924a1241c40ff455",
                        "s" : "0x3918cb4144bef595486e4a1006076026552e8077d858b9b99d3e3d9fc5d8b9a9",
                        "to" : "0xb94f5374fce5edbc8e2a8697c15331677e6ebf0b",
                        "v" : "0x1b",
                        "value" : "0x0a"
                    }
                ],
                "uncleHeaders" : [
                ]
            }
        ],
        "genesisBlockHeader" : {
            "bloom" : "0x00000000000000000000000000000000000000000000000000000000000000000000000000000000000000000000000000000000000000000000000000000000000000000000000000000000000000000000000000000000000000000000000000000000000000000000000000000000000000000000000000000000000000000000000000000000000000000000000000000000000000000000000000000000000000000000000000000000000000000000000000000000000000000000000000000000000000000000000000000000000000000000000000000000000000000000000000000000000000000000000000000000000000000000000000000000",
            "coinbase" : "0x2adf5374fce5edbc8e2a8697c15331677e6ebf0b",
            "difficulty" : "0x020000",
            "extraData" : "0x42",
            "gasLimit" : "0xba96",
            "gasUsed" : "0x00",
            "hash" : "0x88cd503fad3a0d8b78143a1903ef8a13e8b2851756b4c8b126bed003ed756382",
            "mixHash" : "0x56e81f171bcc55a6ff8345e692c0f86e5b48e01b996cadc001622fb5e363b421",
            "nonce" : "0x0102030405060708",
            "number" : "0x00",
            "parentHash" : "0x0000000000000000000000000000000000000000000000000000000000000000",
            "receiptTrie" : "0x56e81f171bcc55a6ff8345e692c0f86e5b48e01b996cadc001622fb5e363b421",
            "stateRoot" : "0x8067ae4e6ecf3be140b56f07720113015d55154e45a44ecc290669b357299bfd",
            "timestamp" : "0x03b6",
            "transactionsTrie" : "0x56e81f171bcc55a6ff8345e692c0f86e5b48e01b996cadc001622fb5e363b421",
            "uncleHash" : "0x1dcc4de8dec75d7aab85b567b6ccd41ad312451b948a7413f0a142fd40d49347"
        },
        "genesisRLP" : "0xf901f9f901f4a00000000000000000000000000000000000000000000000000000000000000000a01dcc4de8dec75d7aab85b567b6ccd41ad312451b948a7413f0a142fd40d49347942adf5374fce5edbc8e2a8697c15331677e6ebf0ba08067ae4e6ecf3be140b56f07720113015d55154e45a44ecc290669b357299bfda056e81f171bcc55a6ff8345e692c0f86e5b48e01b996cadc001622fb5e363b421a056e81f171bcc55a6ff8345e692c0f86e5b48e01b996cadc001622fb5e363b421b9010000000000000000000000000000000000000000000000000000000000000000000000000000000000000000000000000000000000000000000000000000000000000000000000000000000000000000000000000000000000000000000000000000000000000000000000000000000000000000000000000000000000000000000000000000000000000000000000000000000000000000000000000000000000000000000000000000000000000000000000000000000000000000000000000000000000000000000000000000000000000000000000000000000000000000000000000000000000000000000000000000000000000000000000000000000000830200008082ba96808203b642a056e81f171bcc55a6ff8345e692c0f86e5b48e01b996cadc001622fb5e363b421880102030405060708c0c0",
        "lastblockhash" : "0xe5678f339ff25251a9931937098b03bbd46b830b9a1081873052e1417b54bf30",
        "network" : "Homestead",
        "postState" : {
            "0x2adf5374fce5edbc8e2a8697c15331677e6ebf0b" : {
                "balance" : "0x4563918244f4ba96",
                "code" : "",
                "nonce" : "0x00",
                "storage" : {
                }
            },
            "0xa94f5374fce5edbc8e2a8697c15331677e6ebf0b" : {
                "balance" : "0x0e87aa",
                "code" : "",
                "nonce" : "0x01",
                "storage" : {
                }
            },
            "0xb94f5374fce5edbc8e2a8697c15331677e6ebf0b" : {
                "balance" : "0x00",
                "code" : "0x6000600060006000600173c94f5374fce5edbc8e2a8697c15331677e6ebf0b6161a8f1",
                "nonce" : "0x00",
                "storage" : {
                }
            },
            "0xc94f5374fce5edbc8e2a8697c15331677e6ebf0b" : {
                "balance" : "0x00",
                "code" : "0x6037600155",
                "nonce" : "0x00",
                "storage" : {
                }
            }
        },
        "pre" : {
            "0xa94f5374fce5edbc8e2a8697c15331677e6ebf0b" : {
                "balance" : "0x0f4240",
                "code" : "",
                "nonce" : "0x00",
                "storage" : {
                }
            },
            "0xb94f5374fce5edbc8e2a8697c15331677e6ebf0b" : {
                "balance" : "0x00",
                "code" : "0x6000600060006000600173c94f5374fce5edbc8e2a8697c15331677e6ebf0b6161a8f1",
                "nonce" : "0x00",
                "storage" : {
                }
            },
            "0xc94f5374fce5edbc8e2a8697c15331677e6ebf0b" : {
                "balance" : "0x00",
                "code" : "0x6037600155",
                "nonce" : "0x00",
                "storage" : {
                }
            }
        }
    }
}