{
    "Opcodes_TransactionInit_d112g0v0_Byzantium" : {
        "_info" : {
            "comment" : "",
            "filledwith" : "cpp-1.3.0+commit.274a516d.Linux.g++",
            "lllcversion" : "Version: 0.4.18-develop.2017.9.25+commit.a72237f2.Linux.g++",
            "source" : "src/BlockchainTestsFiller/GeneralStateTests/stTransactionTest/Opcodes_TransactionInit_d112g0v0Filler.json"
        },
        "blocks" : [
            {
                "blockHeader" : {
                    "bloom" : "0x00000000000000000000000000000000000000000000000000000000000000000000000000000000000000000000000000000000000000000000000000000000000000000000000000000000000000000000000000000000000000000000000000000000000000000000000000000000000000000000000000000000000000000000000000000000000000000000000000000000000000000000000000000000000000000000000000000000000000000000000000000000000000000000000000000000000000000000000000000000000000000000000000000000000000000000000000000000000000000000000000000000000000000000000000000000",
                    "coinbase" : "0x2adc25665018aa1fe0e6bc666dac8fc2697ff9ba",
                    "difficulty" : "0x020000",
                    "extraData" : "",
                    "gasLimit" : "0x0f4240",
                    "gasUsed" : "0xdc28",
                    "hash" : "0x5b52913f08791428618fe16c60a30b4f1c979dd8bd6f3605d6237f59a57bf8df",
                    "mixHash" : "0xb38d27366d97c4605b9bb5963b6059cfe4a0d71e403c15294d32f691aa98cb84",
                    "nonce" : "0xc68403f37193f6e3",
                    "number" : "0x01",
                    "parentHash" : "0xa9b003c176d2037cf7095f0b73892729cba523a7b887ad67d3c517ed26b9e31b",
                    "receiptTrie" : "0x5eddb9cb687b76073f1ae5f3f520cd6c98a8ed2799b8155a654b3a506c697849",
                    "stateRoot" : "0x5324df4b250f5a50963b4bda99bdf25e6787a2e1e089c70c604c8b3a88d058da",
                    "timestamp" : "0x03e8",
                    "transactionsTrie" : "0xb3b919311b9e733cf1888c02321914fce0d14d3da0993dbf65eb4a4ee336014c",
                    "uncleHash" : "0x1dcc4de8dec75d7aab85b567b6ccd41ad312451b948a7413f0a142fd40d49347"
                },
                "rlp" : "0xf90281f901f7a0a9b003c176d2037cf7095f0b73892729cba523a7b887ad67d3c517ed26b9e31ba01dcc4de8dec75d7aab85b567b6ccd41ad312451b948a7413f0a142fd40d49347942adc25665018aa1fe0e6bc666dac8fc2697ff9baa05324df4b250f5a50963b4bda99bdf25e6787a2e1e089c70c604c8b3a88d058daa0b3b919311b9e733cf1888c02321914fce0d14d3da0993dbf65eb4a4ee336014ca05eddb9cb687b76073f1ae5f3f520cd6c98a8ed2799b8155a654b3a506c697849b90100000000000000000000000000000000000000000000000000000000000000000000000000000000000000000000000000000000000000000000000000000000000000000000000000000000000000000000000000000000000000000000000000000000000000000000000000000000000000000000000000000000000000000000000000000000000000000000000000000000000000000000000000000000000000000000000000000000000000000000000000000000000000000000000000000000000000000000000000000000000000000000000000000000000000000000000000000000000000000000000000000000000000000000000000000000008302000001830f424082dc288203e880a0b38d27366d97c4605b9bb5963b6059cfe4a0d71e403c15294d32f691aa98cb8488c68403f37193f6e3f884f882800183061a8080830186a0b3600060ff60ff60ff60ff60ff60ff60ff60ff60ff60ff60ff60ff60ff60ff9d50505050505050505050505050505060006000f31ba09b690cf9b25c7f3825aee7bff9e4e085ec4e21caa06609feadbd17922fcac3bea020b0f7c2d09daa7f0d64cced4bf0da8e33f3ea553698042c2d55bc176af79842c0",
                "transactions" : [
                    {
                        "data" : "0x600060ff60ff60ff60ff60ff60ff60ff60ff60ff60ff60ff60ff60ff60ff9d50505050505050505050505050505060006000f3",
                        "gasLimit" : "0x061a80",
                        "gasPrice" : "0x01",
                        "nonce" : "0x00",
                        "r" : "0x9b690cf9b25c7f3825aee7bff9e4e085ec4e21caa06609feadbd17922fcac3be",
                        "s" : "0x20b0f7c2d09daa7f0d64cced4bf0da8e33f3ea553698042c2d55bc176af79842",
                        "to" : "",
                        "v" : "0x1b",
                        "value" : "0x0186a0"
                    }
                ],
                "uncleHeaders" : [
                ]
            }
        ],
        "genesisBlockHeader" : {
            "bloom" : "0x00000000000000000000000000000000000000000000000000000000000000000000000000000000000000000000000000000000000000000000000000000000000000000000000000000000000000000000000000000000000000000000000000000000000000000000000000000000000000000000000000000000000000000000000000000000000000000000000000000000000000000000000000000000000000000000000000000000000000000000000000000000000000000000000000000000000000000000000000000000000000000000000000000000000000000000000000000000000000000000000000000000000000000000000000000000",
            "coinbase" : "0x2adc25665018aa1fe0e6bc666dac8fc2697ff9ba",
            "difficulty" : "0x020000",
            "extraData" : "0x42",
            "gasLimit" : "0x0f4240",
            "gasUsed" : "0x00",
            "hash" : "0xa9b003c176d2037cf7095f0b73892729cba523a7b887ad67d3c517ed26b9e31b",
            "mixHash" : "0x56e81f171bcc55a6ff8345e692c0f86e5b48e01b996cadc001622fb5e363b421",
            "nonce" : "0x0102030405060708",
            "number" : "0x00",
            "parentHash" : "0x0000000000000000000000000000000000000000000000000000000000000000",
            "receiptTrie" : "0x56e81f171bcc55a6ff8345e692c0f86e5b48e01b996cadc001622fb5e363b421",
            "stateRoot" : "0xe77f3052601feb5eee19025a8b8caa2b6c4374448dc40d5ef15cec0b8e129ac7",
            "timestamp" : "0x03b6",
            "transactionsTrie" : "0x56e81f171bcc55a6ff8345e692c0f86e5b48e01b996cadc001622fb5e363b421",
            "uncleHash" : "0x1dcc4de8dec75d7aab85b567b6ccd41ad312451b948a7413f0a142fd40d49347"
        },
        "genesisRLP" : "0xf901faf901f5a00000000000000000000000000000000000000000000000000000000000000000a01dcc4de8dec75d7aab85b567b6ccd41ad312451b948a7413f0a142fd40d49347942adc25665018aa1fe0e6bc666dac8fc2697ff9baa0e77f3052601feb5eee19025a8b8caa2b6c4374448dc40d5ef15cec0b8e129ac7a056e81f171bcc55a6ff8345e692c0f86e5b48e01b996cadc001622fb5e363b421a056e81f171bcc55a6ff8345e692c0f86e5b48e01b996cadc001622fb5e363b421b90100000000000000000000000000000000000000000000000000000000000000000000000000000000000000000000000000000000000000000000000000000000000000000000000000000000000000000000000000000000000000000000000000000000000000000000000000000000000000000000000000000000000000000000000000000000000000000000000000000000000000000000000000000000000000000000000000000000000000000000000000000000000000000000000000000000000000000000000000000000000000000000000000000000000000000000000000000000000000000000000000000000000000000000000000000000008302000080830f4240808203b642a056e81f171bcc55a6ff8345e692c0f86e5b48e01b996cadc001622fb5e363b421880102030405060708c0c0",
        "lastblockhash" : "0x5b52913f08791428618fe16c60a30b4f1c979dd8bd6f3605d6237f59a57bf8df",
        "network" : "Byzantium",
        "postState" : {
            "0x0f572e5295c57f15886f9b263e2f6d2d6c7b5ec6" : {
                "balance" : "0x0de0b6b3a7640000",
                "code" : "0x61ffff5060046000f3",
                "nonce" : "0x01",
                "storage" : {
                }
            },
            "0x2adc25665018aa1fe0e6bc666dac8fc2697ff9ba" : {
                "balance" : "0x29a2241af62cdc28",
                "code" : "",
                "nonce" : "0x00",
                "storage" : {
                }
            },
            "0x6295ee1b4f6dd65047762f924ecd367c17eabf8f" : {
                "balance" : "0x0186a0",
                "code" : "",
                "nonce" : "0x01",
                "storage" : {
                }
            },
            "0xa94f5374fce5edbc8e2a8697c15331677e6ebf0b" : {
                "balance" : "0x0de0b6b3a7619d38",
                "code" : "",
                "nonce" : "0x01",
                "storage" : {
                }
            }
        },
        "pre" : {
            "0x0f572e5295c57f15886f9b263e2f6d2d6c7b5ec6" : {
                "balance" : "0x0de0b6b3a7640000",
                "code" : "0x61ffff5060046000f3",
                "nonce" : "0x01",
                "storage" : {
                }
            },
            "0xa94f5374fce5edbc8e2a8697c15331677e6ebf0b" : {
                "balance" : "0x0de0b6b3a7640000",
                "code" : "",
                "nonce" : "0x00",
                "storage" : {
                }
            }
        }
    },
    "Opcodes_TransactionInit_d112g0v0_EIP150" : {
        "_info" : {
            "comment" : "",
            "filledwith" : "cpp-1.3.0+commit.274a516d.Linux.g++",
            "lllcversion" : "Version: 0.4.18-develop.2017.9.25+commit.a72237f2.Linux.g++",
            "source" : "src/BlockchainTestsFiller/GeneralStateTests/stTransactionTest/Opcodes_TransactionInit_d112g0v0Filler.json"
        },
        "blocks" : [
            {
                "blockHeader" : {
                    "bloom" : "0x00000000000000000000000000000000000000000000000000000000000000000000000000000000000000000000000000000000000000000000000000000000000000000000000000000000000000000000000000000000000000000000000000000000000000000000000000000000000000000000000000000000000000000000000000000000000000000000000000000000000000000000000000000000000000000000000000000000000000000000000000000000000000000000000000000000000000000000000000000000000000000000000000000000000000000000000000000000000000000000000000000000000000000000000000000000",
                    "coinbase" : "0x2adc25665018aa1fe0e6bc666dac8fc2697ff9ba",
                    "difficulty" : "0x020000",
                    "extraData" : "",
                    "gasLimit" : "0x0f4240",
                    "gasUsed" : "0xdc28",
                    "hash" : "0xaaa0f29522946bc72271b7288a0c89ed5c5b557cc228e3e0a501f66ddded7ddf",
                    "mixHash" : "0x751b5defa7f915fd62085f37f6c30712c0dcc928c58e4a7c905484af0a0a3d8c",
                    "nonce" : "0xabce0e51e1f2e4e0",
                    "number" : "0x01",
                    "parentHash" : "0xa9b003c176d2037cf7095f0b73892729cba523a7b887ad67d3c517ed26b9e31b",
                    "receiptTrie" : "0xad875f3b5a656b76293707e0b22808782682446950962373c3a1789aef5f635f",
                    "stateRoot" : "0x65c0e7d629462205ed3bbb06e7d8ad2cfc1b0c3a3fa3f613046120006f7afbca",
                    "timestamp" : "0x03e8",
                    "transactionsTrie" : "0xb3b919311b9e733cf1888c02321914fce0d14d3da0993dbf65eb4a4ee336014c",
                    "uncleHash" : "0x1dcc4de8dec75d7aab85b567b6ccd41ad312451b948a7413f0a142fd40d49347"
                },
                "rlp" : "0xf90281f901f7a0a9b003c176d2037cf7095f0b73892729cba523a7b887ad67d3c517ed26b9e31ba01dcc4de8dec75d7aab85b567b6ccd41ad312451b948a7413f0a142fd40d49347942adc25665018aa1fe0e6bc666dac8fc2697ff9baa065c0e7d629462205ed3bbb06e7d8ad2cfc1b0c3a3fa3f613046120006f7afbcaa0b3b919311b9e733cf1888c02321914fce0d14d3da0993dbf65eb4a4ee336014ca0ad875f3b5a656b76293707e0b22808782682446950962373c3a1789aef5f635fb90100000000000000000000000000000000000000000000000000000000000000000000000000000000000000000000000000000000000000000000000000000000000000000000000000000000000000000000000000000000000000000000000000000000000000000000000000000000000000000000000000000000000000000000000000000000000000000000000000000000000000000000000000000000000000000000000000000000000000000000000000000000000000000000000000000000000000000000000000000000000000000000000000000000000000000000000000000000000000000000000000000000000000000000000000000000008302000001830f424082dc288203e880a0751b5defa7f915fd62085f37f6c30712c0dcc928c58e4a7c905484af0a0a3d8c88abce0e51e1f2e4e0f884f882800183061a8080830186a0b3600060ff60ff60ff60ff60ff60ff60ff60ff60ff60ff60ff60ff60ff60ff9d50505050505050505050505050505060006000f31ba09b690cf9b25c7f3825aee7bff9e4e085ec4e21caa06609feadbd17922fcac3bea020b0f7c2d09daa7f0d64cced4bf0da8e33f3ea553698042c2d55bc176af79842c0",
                "transactions" : [
                    {
                        "data" : "0x600060ff60ff60ff60ff60ff60ff60ff60ff60ff60ff60ff60ff60ff60ff9d50505050505050505050505050505060006000f3",
                        "gasLimit" : "0x061a80",
                        "gasPrice" : "0x01",
                        "nonce" : "0x00",
                        "r" : "0x9b690cf9b25c7f3825aee7bff9e4e085ec4e21caa06609feadbd17922fcac3be",
                        "s" : "0x20b0f7c2d09daa7f0d64cced4bf0da8e33f3ea553698042c2d55bc176af79842",
                        "to" : "",
                        "v" : "0x1b",
                        "value" : "0x0186a0"
                    }
                ],
                "uncleHeaders" : [
                ]
            }
        ],
        "genesisBlockHeader" : {
            "bloom" : "0x00000000000000000000000000000000000000000000000000000000000000000000000000000000000000000000000000000000000000000000000000000000000000000000000000000000000000000000000000000000000000000000000000000000000000000000000000000000000000000000000000000000000000000000000000000000000000000000000000000000000000000000000000000000000000000000000000000000000000000000000000000000000000000000000000000000000000000000000000000000000000000000000000000000000000000000000000000000000000000000000000000000000000000000000000000000",
            "coinbase" : "0x2adc25665018aa1fe0e6bc666dac8fc2697ff9ba",
            "difficulty" : "0x020000",
            "extraData" : "0x42",
            "gasLimit" : "0x0f4240",
            "gasUsed" : "0x00",
            "hash" : "0xa9b003c176d2037cf7095f0b73892729cba523a7b887ad67d3c517ed26b9e31b",
            "mixHash" : "0x56e81f171bcc55a6ff8345e692c0f86e5b48e01b996cadc001622fb5e363b421",
            "nonce" : "0x0102030405060708",
            "number" : "0x00",
            "parentHash" : "0x0000000000000000000000000000000000000000000000000000000000000000",
            "receiptTrie" : "0x56e81f171bcc55a6ff8345e692c0f86e5b48e01b996cadc001622fb5e363b421",
            "stateRoot" : "0xe77f3052601feb5eee19025a8b8caa2b6c4374448dc40d5ef15cec0b8e129ac7",
            "timestamp" : "0x03b6",
            "transactionsTrie" : "0x56e81f171bcc55a6ff8345e692c0f86e5b48e01b996cadc001622fb5e363b421",
            "uncleHash" : "0x1dcc4de8dec75d7aab85b567b6ccd41ad312451b948a7413f0a142fd40d49347"
        },
        "genesisRLP" : "0xf901faf901f5a00000000000000000000000000000000000000000000000000000000000000000a01dcc4de8dec75d7aab85b567b6ccd41ad312451b948a7413f0a142fd40d49347942adc25665018aa1fe0e6bc666dac8fc2697ff9baa0e77f3052601feb5eee19025a8b8caa2b6c4374448dc40d5ef15cec0b8e129ac7a056e81f171bcc55a6ff8345e692c0f86e5b48e01b996cadc001622fb5e363b421a056e81f171bcc55a6ff8345e692c0f86e5b48e01b996cadc001622fb5e363b421b90100000000000000000000000000000000000000000000000000000000000000000000000000000000000000000000000000000000000000000000000000000000000000000000000000000000000000000000000000000000000000000000000000000000000000000000000000000000000000000000000000000000000000000000000000000000000000000000000000000000000000000000000000000000000000000000000000000000000000000000000000000000000000000000000000000000000000000000000000000000000000000000000000000000000000000000000000000000000000000000000000000000000000000000000000000000008302000080830f4240808203b642a056e81f171bcc55a6ff8345e692c0f86e5b48e01b996cadc001622fb5e363b421880102030405060708c0c0",
        "lastblockhash" : "0xaaa0f29522946bc72271b7288a0c89ed5c5b557cc228e3e0a501f66ddded7ddf",
        "network" : "EIP150",
        "postState" : {
            "0x0f572e5295c57f15886f9b263e2f6d2d6c7b5ec6" : {
                "balance" : "0x0de0b6b3a7640000",
                "code" : "0x61ffff5060046000f3",
                "nonce" : "0x01",
                "storage" : {
                }
            },
            "0x2adc25665018aa1fe0e6bc666dac8fc2697ff9ba" : {
                "balance" : "0x4563918244f4dc28",
                "code" : "",
                "nonce" : "0x00",
                "storage" : {
                }
            },
            "0x6295ee1b4f6dd65047762f924ecd367c17eabf8f" : {
                "balance" : "0x0186a0",
                "code" : "",
                "nonce" : "0x00",
                "storage" : {
                }
            },
            "0xa94f5374fce5edbc8e2a8697c15331677e6ebf0b" : {
                "balance" : "0x0de0b6b3a7619d38",
                "code" : "",
                "nonce" : "0x01",
                "storage" : {
                }
            }
        },
        "pre" : {
            "0x0f572e5295c57f15886f9b263e2f6d2d6c7b5ec6" : {
                "balance" : "0x0de0b6b3a7640000",
                "code" : "0x61ffff5060046000f3",
                "nonce" : "0x01",
                "storage" : {
                }
            },
            "0xa94f5374fce5edbc8e2a8697c15331677e6ebf0b" : {
                "balance" : "0x0de0b6b3a7640000",
                "code" : "",
                "nonce" : "0x00",
                "storage" : {
                }
            }
        }
    },
    "Opcodes_TransactionInit_d112g0v0_EIP158" : {
        "_info" : {
            "comment" : "",
            "filledwith" : "cpp-1.3.0+commit.274a516d.Linux.g++",
            "lllcversion" : "Version: 0.4.18-develop.2017.9.25+commit.a72237f2.Linux.g++",
            "source" : "src/BlockchainTestsFiller/GeneralStateTests/stTransactionTest/Opcodes_TransactionInit_d112g0v0Filler.json"
        },
        "blocks" : [
            {
                "blockHeader" : {
                    "bloom" : "0x00000000000000000000000000000000000000000000000000000000000000000000000000000000000000000000000000000000000000000000000000000000000000000000000000000000000000000000000000000000000000000000000000000000000000000000000000000000000000000000000000000000000000000000000000000000000000000000000000000000000000000000000000000000000000000000000000000000000000000000000000000000000000000000000000000000000000000000000000000000000000000000000000000000000000000000000000000000000000000000000000000000000000000000000000000000",
                    "coinbase" : "0x2adc25665018aa1fe0e6bc666dac8fc2697ff9ba",
                    "difficulty" : "0x020000",
                    "extraData" : "",
                    "gasLimit" : "0x0f4240",
                    "gasUsed" : "0xdc28",
                    "hash" : "0xc5101feabcf596dd897c958bc8bd3c19448477465c8437ad6cc98935dbc3935a",
                    "mixHash" : "0x528ece0457512a816994391d201a982004b98eb89070fc57050fd7ece5d9a441",
                    "nonce" : "0xea0f78f2267bb7cc",
                    "number" : "0x01",
                    "parentHash" : "0xa9b003c176d2037cf7095f0b73892729cba523a7b887ad67d3c517ed26b9e31b",
                    "receiptTrie" : "0x37d375bd09fd38a0060a29cbd5f014ba05e8a9b5e95ea5bcb70bfb6773335b87",
                    "stateRoot" : "0x9539bdb957b751239aef510ace5092437047c50dcd34a7aff32d5157b9b70cbc",
                    "timestamp" : "0x03e8",
                    "transactionsTrie" : "0xb3b919311b9e733cf1888c02321914fce0d14d3da0993dbf65eb4a4ee336014c",
                    "uncleHash" : "0x1dcc4de8dec75d7aab85b567b6ccd41ad312451b948a7413f0a142fd40d49347"
                },
                "rlp" : "0xf90281f901f7a0a9b003c176d2037cf7095f0b73892729cba523a7b887ad67d3c517ed26b9e31ba01dcc4de8dec75d7aab85b567b6ccd41ad312451b948a7413f0a142fd40d49347942adc25665018aa1fe0e6bc666dac8fc2697ff9baa09539bdb957b751239aef510ace5092437047c50dcd34a7aff32d5157b9b70cbca0b3b919311b9e733cf1888c02321914fce0d14d3da0993dbf65eb4a4ee336014ca037d375bd09fd38a0060a29cbd5f014ba05e8a9b5e95ea5bcb70bfb6773335b87b90100000000000000000000000000000000000000000000000000000000000000000000000000000000000000000000000000000000000000000000000000000000000000000000000000000000000000000000000000000000000000000000000000000000000000000000000000000000000000000000000000000000000000000000000000000000000000000000000000000000000000000000000000000000000000000000000000000000000000000000000000000000000000000000000000000000000000000000000000000000000000000000000000000000000000000000000000000000000000000000000000000000000000000000000000000000008302000001830f424082dc288203e880a0528ece0457512a816994391d201a982004b98eb89070fc57050fd7ece5d9a44188ea0f78f2267bb7ccf884f882800183061a8080830186a0b3600060ff60ff60ff60ff60ff60ff60ff60ff60ff60ff60ff60ff60ff60ff9d50505050505050505050505050505060006000f31ba09b690cf9b25c7f3825aee7bff9e4e085ec4e21caa06609feadbd17922fcac3bea020b0f7c2d09daa7f0d64cced4bf0da8e33f3ea553698042c2d55bc176af79842c0",
                "transactions" : [
                    {
                        "data" : "0x600060ff60ff60ff60ff60ff60ff60ff60ff60ff60ff60ff60ff60ff60ff9d50505050505050505050505050505060006000f3",
                        "gasLimit" : "0x061a80",
                        "gasPrice" : "0x01",
                        "nonce" : "0x00",
                        "r" : "0x9b690cf9b25c7f3825aee7bff9e4e085ec4e21caa06609feadbd17922fcac3be",
                        "s" : "0x20b0f7c2d09daa7f0d64cced4bf0da8e33f3ea553698042c2d55bc176af79842",
                        "to" : "",
                        "v" : "0x1b",
                        "value" : "0x0186a0"
                    }
                ],
                "uncleHeaders" : [
                ]
            }
        ],
        "genesisBlockHeader" : {
            "bloom" : "0x00000000000000000000000000000000000000000000000000000000000000000000000000000000000000000000000000000000000000000000000000000000000000000000000000000000000000000000000000000000000000000000000000000000000000000000000000000000000000000000000000000000000000000000000000000000000000000000000000000000000000000000000000000000000000000000000000000000000000000000000000000000000000000000000000000000000000000000000000000000000000000000000000000000000000000000000000000000000000000000000000000000000000000000000000000000",
            "coinbase" : "0x2adc25665018aa1fe0e6bc666dac8fc2697ff9ba",
            "difficulty" : "0x020000",
            "extraData" : "0x42",
            "gasLimit" : "0x0f4240",
            "gasUsed" : "0x00",
            "hash" : "0xa9b003c176d2037cf7095f0b73892729cba523a7b887ad67d3c517ed26b9e31b",
            "mixHash" : "0x56e81f171bcc55a6ff8345e692c0f86e5b48e01b996cadc001622fb5e363b421",
            "nonce" : "0x0102030405060708",
            "number" : "0x00",
            "parentHash" : "0x0000000000000000000000000000000000000000000000000000000000000000",
            "receiptTrie" : "0x56e81f171bcc55a6ff8345e692c0f86e5b48e01b996cadc001622fb5e363b421",
            "stateRoot" : "0xe77f3052601feb5eee19025a8b8caa2b6c4374448dc40d5ef15cec0b8e129ac7",
            "timestamp" : "0x03b6",
            "transactionsTrie" : "0x56e81f171bcc55a6ff8345e692c0f86e5b48e01b996cadc001622fb5e363b421",
            "uncleHash" : "0x1dcc4de8dec75d7aab85b567b6ccd41ad312451b948a7413f0a142fd40d49347"
        },
        "genesisRLP" : "0xf901faf901f5a00000000000000000000000000000000000000000000000000000000000000000a01dcc4de8dec75d7aab85b567b6ccd41ad312451b948a7413f0a142fd40d49347942adc25665018aa1fe0e6bc666dac8fc2697ff9baa0e77f3052601feb5eee19025a8b8caa2b6c4374448dc40d5ef15cec0b8e129ac7a056e81f171bcc55a6ff8345e692c0f86e5b48e01b996cadc001622fb5e363b421a056e81f171bcc55a6ff8345e692c0f86e5b48e01b996cadc001622fb5e363b421b90100000000000000000000000000000000000000000000000000000000000000000000000000000000000000000000000000000000000000000000000000000000000000000000000000000000000000000000000000000000000000000000000000000000000000000000000000000000000000000000000000000000000000000000000000000000000000000000000000000000000000000000000000000000000000000000000000000000000000000000000000000000000000000000000000000000000000000000000000000000000000000000000000000000000000000000000000000000000000000000000000000000000000000000000000000000008302000080830f4240808203b642a056e81f171bcc55a6ff8345e692c0f86e5b48e01b996cadc001622fb5e363b421880102030405060708c0c0",
        "lastblockhash" : "0xc5101feabcf596dd897c958bc8bd3c19448477465c8437ad6cc98935dbc3935a",
        "network" : "EIP158",
        "postState" : {
            "0x0f572e5295c57f15886f9b263e2f6d2d6c7b5ec6" : {
                "balance" : "0x0de0b6b3a7640000",
                "code" : "0x61ffff5060046000f3",
                "nonce" : "0x01",
                "storage" : {
                }
            },
            "0x2adc25665018aa1fe0e6bc666dac8fc2697ff9ba" : {
                "balance" : "0x4563918244f4dc28",
                "code" : "",
                "nonce" : "0x00",
                "storage" : {
                }
            },
            "0x6295ee1b4f6dd65047762f924ecd367c17eabf8f" : {
                "balance" : "0x0186a0",
                "code" : "",
                "nonce" : "0x01",
                "storage" : {
                }
            },
            "0xa94f5374fce5edbc8e2a8697c15331677e6ebf0b" : {
                "balance" : "0x0de0b6b3a7619d38",
                "code" : "",
                "nonce" : "0x01",
                "storage" : {
                }
            }
        },
        "pre" : {
            "0x0f572e5295c57f15886f9b263e2f6d2d6c7b5ec6" : {
                "balance" : "0x0de0b6b3a7640000",
                "code" : "0x61ffff5060046000f3",
                "nonce" : "0x01",
                "storage" : {
                }
            },
            "0xa94f5374fce5edbc8e2a8697c15331677e6ebf0b" : {
                "balance" : "0x0de0b6b3a7640000",
                "code" : "",
                "nonce" : "0x00",
                "storage" : {
                }
            }
        }
    },
    "Opcodes_TransactionInit_d112g0v0_Frontier" : {
        "_info" : {
            "comment" : "",
            "filledwith" : "cpp-1.3.0+commit.274a516d.Linux.g++",
            "lllcversion" : "Version: 0.4.18-develop.2017.9.25+commit.a72237f2.Linux.g++",
            "source" : "src/BlockchainTestsFiller/GeneralStateTests/stTransactionTest/Opcodes_TransactionInit_d112g0v0Filler.json"
        },
        "blocks" : [
            {
                "blockHeader" : {
                    "bloom" : "0x00000000000000000000000000000000000000000000000000000000000000000000000000000000000000000000000000000000000000000000000000000000000000000000000000000000000000000000000000000000000000000000000000000000000000000000000000000000000000000000000000000000000000000000000000000000000000000000000000000000000000000000000000000000000000000000000000000000000000000000000000000000000000000000000000000000000000000000000000000000000000000000000000000000000000000000000000000000000000000000000000000000000000000000000000000000",
                    "coinbase" : "0x2adc25665018aa1fe0e6bc666dac8fc2697ff9ba",
                    "difficulty" : "0x020000",
                    "extraData" : "",
                    "gasLimit" : "0x0f4240",
                    "gasUsed" : "0x5f28",
                    "hash" : "0xb70e29528fa98d23381912ae5b2da38ae1e62aa0262356d97da8dd7a631a2031",
                    "mixHash" : "0x64837bbcb9784b5cacdcc7ba0599d33bccb800a12d336d07db2116c3e547f160",
                    "nonce" : "0x35040314aca1ad53",
                    "number" : "0x01",
                    "parentHash" : "0xa9b003c176d2037cf7095f0b73892729cba523a7b887ad67d3c517ed26b9e31b",
                    "receiptTrie" : "0xa5d5d17742bfec50402304453fdc73f9b9fe8141a65f76884e201c5151ab6b72",
                    "stateRoot" : "0xbb05a10b8a2fde378a78c1cc6f8de86158032b8c2e82aac999dd6dfa4dedfbc8",
                    "timestamp" : "0x03e8",
                    "transactionsTrie" : "0xb3b919311b9e733cf1888c02321914fce0d14d3da0993dbf65eb4a4ee336014c",
                    "uncleHash" : "0x1dcc4de8dec75d7aab85b567b6ccd41ad312451b948a7413f0a142fd40d49347"
                },
                "rlp" : "0xf90281f901f7a0a9b003c176d2037cf7095f0b73892729cba523a7b887ad67d3c517ed26b9e31ba01dcc4de8dec75d7aab85b567b6ccd41ad312451b948a7413f0a142fd40d49347942adc25665018aa1fe0e6bc666dac8fc2697ff9baa0bb05a10b8a2fde378a78c1cc6f8de86158032b8c2e82aac999dd6dfa4dedfbc8a0b3b919311b9e733cf1888c02321914fce0d14d3da0993dbf65eb4a4ee336014ca0a5d5d17742bfec50402304453fdc73f9b9fe8141a65f76884e201c5151ab6b72b90100000000000000000000000000000000000000000000000000000000000000000000000000000000000000000000000000000000000000000000000000000000000000000000000000000000000000000000000000000000000000000000000000000000000000000000000000000000000000000000000000000000000000000000000000000000000000000000000000000000000000000000000000000000000000000000000000000000000000000000000000000000000000000000000000000000000000000000000000000000000000000000000000000000000000000000000000000000000000000000000000000000000000000000000000000000008302000001830f4240825f288203e880a064837bbcb9784b5cacdcc7ba0599d33bccb800a12d336d07db2116c3e547f1608835040314aca1ad53f884f882800183061a8080830186a0b3600060ff60ff60ff60ff60ff60ff60ff60ff60ff60ff60ff60ff60ff60ff9d50505050505050505050505050505060006000f31ba09b690cf9b25c7f3825aee7bff9e4e085ec4e21caa06609feadbd17922fcac3bea020b0f7c2d09daa7f0d64cced4bf0da8e33f3ea553698042c2d55bc176af79842c0",
                "transactions" : [
                    {
                        "data" : "0x600060ff60ff60ff60ff60ff60ff60ff60ff60ff60ff60ff60ff60ff60ff9d50505050505050505050505050505060006000f3",
                        "gasLimit" : "0x061a80",
                        "gasPrice" : "0x01",
                        "nonce" : "0x00",
                        "r" : "0x9b690cf9b25c7f3825aee7bff9e4e085ec4e21caa06609feadbd17922fcac3be",
                        "s" : "0x20b0f7c2d09daa7f0d64cced4bf0da8e33f3ea553698042c2d55bc176af79842",
                        "to" : "",
                        "v" : "0x1b",
                        "value" : "0x0186a0"
                    }
                ],
                "uncleHeaders" : [
                ]
            }
        ],
        "genesisBlockHeader" : {
            "bloom" : "0x00000000000000000000000000000000000000000000000000000000000000000000000000000000000000000000000000000000000000000000000000000000000000000000000000000000000000000000000000000000000000000000000000000000000000000000000000000000000000000000000000000000000000000000000000000000000000000000000000000000000000000000000000000000000000000000000000000000000000000000000000000000000000000000000000000000000000000000000000000000000000000000000000000000000000000000000000000000000000000000000000000000000000000000000000000000",
            "coinbase" : "0x2adc25665018aa1fe0e6bc666dac8fc2697ff9ba",
            "difficulty" : "0x020000",
            "extraData" : "0x42",
            "gasLimit" : "0x0f4240",
            "gasUsed" : "0x00",
            "hash" : "0xa9b003c176d2037cf7095f0b73892729cba523a7b887ad67d3c517ed26b9e31b",
            "mixHash" : "0x56e81f171bcc55a6ff8345e692c0f86e5b48e01b996cadc001622fb5e363b421",
            "nonce" : "0x0102030405060708",
            "number" : "0x00",
            "parentHash" : "0x0000000000000000000000000000000000000000000000000000000000000000",
            "receiptTrie" : "0x56e81f171bcc55a6ff8345e692c0f86e5b48e01b996cadc001622fb5e363b421",
            "stateRoot" : "0xe77f3052601feb5eee19025a8b8caa2b6c4374448dc40d5ef15cec0b8e129ac7",
            "timestamp" : "0x03b6",
            "transactionsTrie" : "0x56e81f171bcc55a6ff8345e692c0f86e5b48e01b996cadc001622fb5e363b421",
            "uncleHash" : "0x1dcc4de8dec75d7aab85b567b6ccd41ad312451b948a7413f0a142fd40d49347"
        },
        "genesisRLP" : "0xf901faf901f5a00000000000000000000000000000000000000000000000000000000000000000a01dcc4de8dec75d7aab85b567b6ccd41ad312451b948a7413f0a142fd40d49347942adc25665018aa1fe0e6bc666dac8fc2697ff9baa0e77f3052601feb5eee19025a8b8caa2b6c4374448dc40d5ef15cec0b8e129ac7a056e81f171bcc55a6ff8345e692c0f86e5b48e01b996cadc001622fb5e363b421a056e81f171bcc55a6ff8345e692c0f86e5b48e01b996cadc001622fb5e363b421b90100000000000000000000000000000000000000000000000000000000000000000000000000000000000000000000000000000000000000000000000000000000000000000000000000000000000000000000000000000000000000000000000000000000000000000000000000000000000000000000000000000000000000000000000000000000000000000000000000000000000000000000000000000000000000000000000000000000000000000000000000000000000000000000000000000000000000000000000000000000000000000000000000000000000000000000000000000000000000000000000000000000000000000000000000000000008302000080830f4240808203b642a056e81f171bcc55a6ff8345e692c0f86e5b48e01b996cadc001622fb5e363b421880102030405060708c0c0",
        "lastblockhash" : "0xb70e29528fa98d23381912ae5b2da38ae1e62aa0262356d97da8dd7a631a2031",
        "network" : "Frontier",
        "postState" : {
            "0x0f572e5295c57f15886f9b263e2f6d2d6c7b5ec6" : {
                "balance" : "0x0de0b6b3a7640000",
                "code" : "0x61ffff5060046000f3",
                "nonce" : "0x01",
                "storage" : {
                }
            },
            "0x2adc25665018aa1fe0e6bc666dac8fc2697ff9ba" : {
                "balance" : "0x4563918244f45f28",
                "code" : "",
                "nonce" : "0x00",
                "storage" : {
                }
            },
            "0x6295ee1b4f6dd65047762f924ecd367c17eabf8f" : {
                "balance" : "0x0186a0",
                "code" : "",
                "nonce" : "0x00",
                "storage" : {
                }
            },
            "0xa94f5374fce5edbc8e2a8697c15331677e6ebf0b" : {
                "balance" : "0x0de0b6b3a7621a38",
                "code" : "",
                "nonce" : "0x01",
                "storage" : {
                }
            }
        },
        "pre" : {
            "0x0f572e5295c57f15886f9b263e2f6d2d6c7b5ec6" : {
                "balance" : "0x0de0b6b3a7640000",
                "code" : "0x61ffff5060046000f3",
                "nonce" : "0x01",
                "storage" : {
                }
            },
            "0xa94f5374fce5edbc8e2a8697c15331677e6ebf0b" : {
                "balance" : "0x0de0b6b3a7640000",
                "code" : "",
                "nonce" : "0x00",
                "storage" : {
                }
            }
        }
    },
    "Opcodes_TransactionInit_d112g0v0_Homestead" : {
        "_info" : {
            "comment" : "",
            "filledwith" : "cpp-1.3.0+commit.274a516d.Linux.g++",
            "lllcversion" : "Version: 0.4.18-develop.2017.9.25+commit.a72237f2.Linux.g++",
            "source" : "src/BlockchainTestsFiller/GeneralStateTests/stTransactionTest/Opcodes_TransactionInit_d112g0v0Filler.json"
        },
        "blocks" : [
            {
                "blockHeader" : {
                    "bloom" : "0x00000000000000000000000000000000000000000000000000000000000000000000000000000000000000000000000000000000000000000000000000000000000000000000000000000000000000000000000000000000000000000000000000000000000000000000000000000000000000000000000000000000000000000000000000000000000000000000000000000000000000000000000000000000000000000000000000000000000000000000000000000000000000000000000000000000000000000000000000000000000000000000000000000000000000000000000000000000000000000000000000000000000000000000000000000000",
                    "coinbase" : "0x2adc25665018aa1fe0e6bc666dac8fc2697ff9ba",
                    "difficulty" : "0x020000",
                    "extraData" : "",
                    "gasLimit" : "0x0f4240",
                    "gasUsed" : "0xdc28",
                    "hash" : "0x1426b799a875ee0c66c1e014f59187687861cb89d47b0b41588271cc428160d9",
                    "mixHash" : "0x1017245e8da6f015181eff49ed6aacc7793a25dcbccbe798714c2173b936a042",
                    "nonce" : "0x94b68d811ea51840",
                    "number" : "0x01",
                    "parentHash" : "0xa9b003c176d2037cf7095f0b73892729cba523a7b887ad67d3c517ed26b9e31b",
                    "receiptTrie" : "0xad875f3b5a656b76293707e0b22808782682446950962373c3a1789aef5f635f",
                    "stateRoot" : "0x65c0e7d629462205ed3bbb06e7d8ad2cfc1b0c3a3fa3f613046120006f7afbca",
                    "timestamp" : "0x03e8",
                    "transactionsTrie" : "0xb3b919311b9e733cf1888c02321914fce0d14d3da0993dbf65eb4a4ee336014c",
                    "uncleHash" : "0x1dcc4de8dec75d7aab85b567b6ccd41ad312451b948a7413f0a142fd40d49347"
                },
                "rlp" : "0xf90281f901f7a0a9b003c176d2037cf7095f0b73892729cba523a7b887ad67d3c517ed26b9e31ba01dcc4de8dec75d7aab85b567b6ccd41ad312451b948a7413f0a142fd40d49347942adc25665018aa1fe0e6bc666dac8fc2697ff9baa065c0e7d629462205ed3bbb06e7d8ad2cfc1b0c3a3fa3f613046120006f7afbcaa0b3b919311b9e733cf1888c02321914fce0d14d3da0993dbf65eb4a4ee336014ca0ad875f3b5a656b76293707e0b22808782682446950962373c3a1789aef5f635fb90100000000000000000000000000000000000000000000000000000000000000000000000000000000000000000000000000000000000000000000000000000000000000000000000000000000000000000000000000000000000000000000000000000000000000000000000000000000000000000000000000000000000000000000000000000000000000000000000000000000000000000000000000000000000000000000000000000000000000000000000000000000000000000000000000000000000000000000000000000000000000000000000000000000000000000000000000000000000000000000000000000000000000000000000000000000008302000001830f424082dc288203e880a01017245e8da6f015181eff49ed6aacc7793a25dcbccbe798714c2173b936a0428894b68d811ea51840f884f882800183061a8080830186a0b3600060ff60ff60ff60ff60ff60ff60ff60ff60ff60ff60ff60ff60ff60ff9d50505050505050505050505050505060006000f31ba09b690cf9b25c7f3825aee7bff9e4e085ec4e21caa06609feadbd17922fcac3bea020b0f7c2d09daa7f0d64cced4bf0da8e33f3ea553698042c2d55bc176af79842c0",
                "transactions" : [
                    {
                        "data" : "0x600060ff60ff60ff60ff60ff60ff60ff60ff60ff60ff60ff60ff60ff60ff9d50505050505050505050505050505060006000f3",
                        "gasLimit" : "0x061a80",
                        "gasPrice" : "0x01",
                        "nonce" : "0x00",
                        "r" : "0x9b690cf9b25c7f3825aee7bff9e4e085ec4e21caa06609feadbd17922fcac3be",
                        "s" : "0x20b0f7c2d09daa7f0d64cced4bf0da8e33f3ea553698042c2d55bc176af79842",
                        "to" : "",
                        "v" : "0x1b",
                        "value" : "0x0186a0"
                    }
                ],
                "uncleHeaders" : [
                ]
            }
        ],
        "genesisBlockHeader" : {
            "bloom" : "0x00000000000000000000000000000000000000000000000000000000000000000000000000000000000000000000000000000000000000000000000000000000000000000000000000000000000000000000000000000000000000000000000000000000000000000000000000000000000000000000000000000000000000000000000000000000000000000000000000000000000000000000000000000000000000000000000000000000000000000000000000000000000000000000000000000000000000000000000000000000000000000000000000000000000000000000000000000000000000000000000000000000000000000000000000000000",
            "coinbase" : "0x2adc25665018aa1fe0e6bc666dac8fc2697ff9ba",
            "difficulty" : "0x020000",
            "extraData" : "0x42",
            "gasLimit" : "0x0f4240",
            "gasUsed" : "0x00",
            "hash" : "0xa9b003c176d2037cf7095f0b73892729cba523a7b887ad67d3c517ed26b9e31b",
            "mixHash" : "0x56e81f171bcc55a6ff8345e692c0f86e5b48e01b996cadc001622fb5e363b421",
            "nonce" : "0x0102030405060708",
            "number" : "0x00",
            "parentHash" : "0x0000000000000000000000000000000000000000000000000000000000000000",
            "receiptTrie" : "0x56e81f171bcc55a6ff8345e692c0f86e5b48e01b996cadc001622fb5e363b421",
            "stateRoot" : "0xe77f3052601feb5eee19025a8b8caa2b6c4374448dc40d5ef15cec0b8e129ac7",
            "timestamp" : "0x03b6",
            "transactionsTrie" : "0x56e81f171bcc55a6ff8345e692c0f86e5b48e01b996cadc001622fb5e363b421",
            "uncleHash" : "0x1dcc4de8dec75d7aab85b567b6ccd41ad312451b948a7413f0a142fd40d49347"
        },
        "genesisRLP" : "0xf901faf901f5a00000000000000000000000000000000000000000000000000000000000000000a01dcc4de8dec75d7aab85b567b6ccd41ad312451b948a7413f0a142fd40d49347942adc25665018aa1fe0e6bc666dac8fc2697ff9baa0e77f3052601feb5eee19025a8b8caa2b6c4374448dc40d5ef15cec0b8e129ac7a056e81f171bcc55a6ff8345e692c0f86e5b48e01b996cadc001622fb5e363b421a056e81f171bcc55a6ff8345e692c0f86e5b48e01b996cadc001622fb5e363b421b90100000000000000000000000000000000000000000000000000000000000000000000000000000000000000000000000000000000000000000000000000000000000000000000000000000000000000000000000000000000000000000000000000000000000000000000000000000000000000000000000000000000000000000000000000000000000000000000000000000000000000000000000000000000000000000000000000000000000000000000000000000000000000000000000000000000000000000000000000000000000000000000000000000000000000000000000000000000000000000000000000000000000000000000000000000000008302000080830f4240808203b642a056e81f171bcc55a6ff8345e692c0f86e5b48e01b996cadc001622fb5e363b421880102030405060708c0c0",
        "lastblockhash" : "0x1426b799a875ee0c66c1e014f59187687861cb89d47b0b41588271cc428160d9",
        "network" : "Homestead",
        "postState" : {
            "0x0f572e5295c57f15886f9b263e2f6d2d6c7b5ec6" : {
                "balance" : "0x0de0b6b3a7640000",
                "code" : "0x61ffff5060046000f3",
                "nonce" : "0x01",
                "storage" : {
                }
            },
            "0x2adc25665018aa1fe0e6bc666dac8fc2697ff9ba" : {
                "balance" : "0x4563918244f4dc28",
                "code" : "",
                "nonce" : "0x00",
                "storage" : {
                }
            },
            "0x6295ee1b4f6dd65047762f924ecd367c17eabf8f" : {
                "balance" : "0x0186a0",
                "code" : "",
                "nonce" : "0x00",
                "storage" : {
                }
            },
            "0xa94f5374fce5edbc8e2a8697c15331677e6ebf0b" : {
                "balance" : "0x0de0b6b3a7619d38",
                "code" : "",
                "nonce" : "0x01",
                "storage" : {
                }
            }
        },
        "pre" : {
            "0x0f572e5295c57f15886f9b263e2f6d2d6c7b5ec6" : {
                "balance" : "0x0de0b6b3a7640000",
                "code" : "0x61ffff5060046000f3",
                "nonce" : "0x01",
                "storage" : {
                }
            },
            "0xa94f5374fce5edbc8e2a8697c15331677e6ebf0b" : {
                "balance" : "0x0de0b6b3a7640000",
                "code" : "",
                "nonce" : "0x00",
                "storage" : {
                }
            }
        }
    }
}