{
    "OverflowGasRequire2_d0g0v0_EIP150" : {
        "_info" : {
            "comment" : "",
            "filledwith" : "cpp-1.3.0+commit.16292201.Linux.g++",
            "source" : "/src/GenStateTestAsBcTemp/stTransactionTest/OverflowGasRequire2_d0g0v0Filler.json"
        },
        "blocks" : [
            {
                "blockHeader" : {
                    "bloom" : "0x00000000000000000000000000000000000000000000000000000000000000000000000000000000000000000000000000000000000000000000000000000000000000000000000000000000000000000000000000000000000000000000000000000000000000000000000000000000000000000000000000000000000000000000000000000000000000000000000000000000000000000000000000000000000000000000000000000000000000000000000000000000000000000000000000000000000000000000000000000000000000000000000000000000000000000000000000000000000000000000000000000000000000000000000000000000",
                    "coinbase" : "0x2adc25665018aa1fe0e6bc666dac8fc2697ff9ba",
                    "difficulty" : "0x020000",
                    "extraData" : "",
                    "gasLimit" : "0x7fffffffffffffff",
                    "gasUsed" : "0x5428",
                    "hash" : "0xb50eca8d7b4f54e7e2d9a68756451f694cc2b0ae20e43dd9124def60fd283f73",
                    "mixHash" : "0x355eae5cbc9c677b5a20d3e0eea081f942447b400987c159e48be184ff3a0ba4",
                    "nonce" : "0xd782fb4a01e30f75",
                    "number" : "0x01",
                    "parentHash" : "0xf5903f8fbb4316e7572f99463b026f47ed8a9707e67c6339e560016c1d9906c4",
                    "receiptTrie" : "0x87bbbb10a398926d968aa9b341199866d707454dc815134e47b0bd650032f3df",
                    "stateRoot" : "0x8c5a2b1e81fa92ef3ab074249866e2c6ff4291cfc711016b03a9965834991795",
                    "timestamp" : "0x03e8",
                    "transactionsTrie" : "0x543ce10966d974105195ed934ed36512377d0b22187b1766a181b483ec73aac7",
                    "uncleHash" : "0x1dcc4de8dec75d7aab85b567b6ccd41ad312451b948a7413f0a142fd40d49347"
                },
                "rlp" : "0xf90271f901fca0f5903f8fbb4316e7572f99463b026f47ed8a9707e67c6339e560016c1d9906c4a01dcc4de8dec75d7aab85b567b6ccd41ad312451b948a7413f0a142fd40d49347942adc25665018aa1fe0e6bc666dac8fc2697ff9baa08c5a2b1e81fa92ef3ab074249866e2c6ff4291cfc711016b03a9965834991795a0543ce10966d974105195ed934ed36512377d0b22187b1766a181b483ec73aac7a087bbbb10a398926d968aa9b341199866d707454dc815134e47b0bd650032f3dfb90100000000000000000000000000000000000000000000000000000000000000000000000000000000000000000000000000000000000000000000000000000000000000000000000000000000000000000000000000000000000000000000000000000000000000000000000000000000000000000000000000000000000000000000000000000000000000000000000000000000000000000000000000000000000000000000000000000000000000000000000000000000000000000000000000000000000000000000000000000000000000000000000000000000000000000000000000000000000000000000000000000000000000000000000000000000008302000001887fffffffffffffff8254288203e880a0355eae5cbc9c677b5a20d3e0eea081f942447b400987c159e48be184ff3a0ba488d782fb4a01e30f75f86ff86d805088100000000000000094b94f5374fce5edbc8e2a8697c15331677e6ebf0b808832403495489834541ba0ad09f36b8b3e242c628ba02751a13cebdbccc36ce52be40b18332e91eb6a8cb1a07381f8aa7848dc2650f37c3c559b4bcbceddf329939ce6e3bdd1e36781b0b746c0",
                "transactions" : [
                    {
                        "data" : "0x3240349548983454",
                        "gasLimit" : "0x1000000000000000",
                        "gasPrice" : "0x50",
                        "nonce" : "0x00",
                        "r" : "0xad09f36b8b3e242c628ba02751a13cebdbccc36ce52be40b18332e91eb6a8cb1",
                        "s" : "0x7381f8aa7848dc2650f37c3c559b4bcbceddf329939ce6e3bdd1e36781b0b746",
                        "to" : "0xb94f5374fce5edbc8e2a8697c15331677e6ebf0b",
                        "v" : "0x1b",
                        "value" : "0x00"
                    }
                ],
                "uncleHeaders" : [
                ]
            }
        ],
        "genesisBlockHeader" : {
            "bloom" : "0x00000000000000000000000000000000000000000000000000000000000000000000000000000000000000000000000000000000000000000000000000000000000000000000000000000000000000000000000000000000000000000000000000000000000000000000000000000000000000000000000000000000000000000000000000000000000000000000000000000000000000000000000000000000000000000000000000000000000000000000000000000000000000000000000000000000000000000000000000000000000000000000000000000000000000000000000000000000000000000000000000000000000000000000000000000000",
            "coinbase" : "0x2adc25665018aa1fe0e6bc666dac8fc2697ff9ba",
            "difficulty" : "0x020000",
            "extraData" : "0x42",
            "gasLimit" : "0x7fffffffffffffff",
            "gasUsed" : "0x00",
            "hash" : "0xf5903f8fbb4316e7572f99463b026f47ed8a9707e67c6339e560016c1d9906c4",
            "mixHash" : "0x56e81f171bcc55a6ff8345e692c0f86e5b48e01b996cadc001622fb5e363b421",
            "nonce" : "0x0102030405060708",
            "number" : "0x00",
            "parentHash" : "0x0000000000000000000000000000000000000000000000000000000000000000",
            "receiptTrie" : "0x56e81f171bcc55a6ff8345e692c0f86e5b48e01b996cadc001622fb5e363b421",
            "stateRoot" : "0x21e74bd5b4b29e241d402d6d7483d050bbdfcf2ae943522c2875c3f293e1ce70",
            "timestamp" : "0x03b6",
            "transactionsTrie" : "0x56e81f171bcc55a6ff8345e692c0f86e5b48e01b996cadc001622fb5e363b421",
            "uncleHash" : "0x1dcc4de8dec75d7aab85b567b6ccd41ad312451b948a7413f0a142fd40d49347"
        },
        "genesisRLP" : "0xf901fff901faa00000000000000000000000000000000000000000000000000000000000000000a01dcc4de8dec75d7aab85b567b6ccd41ad312451b948a7413f0a142fd40d49347942adc25665018aa1fe0e6bc666dac8fc2697ff9baa021e74bd5b4b29e241d402d6d7483d050bbdfcf2ae943522c2875c3f293e1ce70a056e81f171bcc55a6ff8345e692c0f86e5b48e01b996cadc001622fb5e363b421a056e81f171bcc55a6ff8345e692c0f86e5b48e01b996cadc001622fb5e363b421b90100000000000000000000000000000000000000000000000000000000000000000000000000000000000000000000000000000000000000000000000000000000000000000000000000000000000000000000000000000000000000000000000000000000000000000000000000000000000000000000000000000000000000000000000000000000000000000000000000000000000000000000000000000000000000000000000000000000000000000000000000000000000000000000000000000000000000000000000000000000000000000000000000000000000000000000000000000000000000000000000000000000000000000000000000000000008302000080887fffffffffffffff808203b642a056e81f171bcc55a6ff8345e692c0f86e5b48e01b996cadc001622fb5e363b421880102030405060708c0c0",
        "lastblockhash" : "0xb50eca8d7b4f54e7e2d9a68756451f694cc2b0ae20e43dd9124def60fd283f73",
        "network" : "EIP150",
        "postState" : {
            "0x2adc25665018aa1fe0e6bc666dac8fc2697ff9ba" : {
                "balance" : "0x45639182450e4c80",
                "code" : "",
                "nonce" : "0x00",
                "storage" : {
                }
            },
            "0xa94f5374fce5edbc8e2a8697c15331677e6ebf0b" : {
                "balance" : "0xffffffffffffffffffffffffffffffffffffffffffffffffffffffffffe5b37f",
                "code" : "",
                "nonce" : "0x01",
                "storage" : {
                }
            },
            "0xb94f5374fce5edbc8e2a8697c15331677e6ebf0b" : {
                "balance" : "0x00",
                "code" : "",
                "nonce" : "0x00",
                "storage" : {
                }
            }
        },
        "pre" : {
            "0xa94f5374fce5edbc8e2a8697c15331677e6ebf0b" : {
                "balance" : "0xffffffffffffffffffffffffffffffffffffffffffffffffffffffffffffffff",
                "code" : "",
                "nonce" : "0x00",
                "storage" : {
                }
            }
        }
    },
    "OverflowGasRequire2_d0g0v0_EIP158" : {
        "_info" : {
            "comment" : "",
            "filledwith" : "cpp-1.3.0+commit.16292201.Linux.g++",
            "source" : "/src/GenStateTestAsBcTemp/stTransactionTest/OverflowGasRequire2_d0g0v0Filler.json"
        },
        "blocks" : [
            {
                "blockHeader" : {
                    "bloom" : "0x00000000000000000000000000000000000000000000000000000000000000000000000000000000000000000000000000000000000000000000000000000000000000000000000000000000000000000000000000000000000000000000000000000000000000000000000000000000000000000000000000000000000000000000000000000000000000000000000000000000000000000000000000000000000000000000000000000000000000000000000000000000000000000000000000000000000000000000000000000000000000000000000000000000000000000000000000000000000000000000000000000000000000000000000000000000",
                    "coinbase" : "0x2adc25665018aa1fe0e6bc666dac8fc2697ff9ba",
                    "difficulty" : "0x020000",
                    "extraData" : "",
                    "gasLimit" : "0x7fffffffffffffff",
                    "gasUsed" : "0x5428",
                    "hash" : "0x3bae0c49a277bbb9b1264713bbb3366c18d3f8da1400ff4d5ef82aee1623ec70",
                    "mixHash" : "0x813c1d0474330f196a858644262dbf5fba498760f278b1e26149fea3aca53588",
                    "nonce" : "0xefee5a1f0d0715a0",
                    "number" : "0x01",
                    "parentHash" : "0xf5903f8fbb4316e7572f99463b026f47ed8a9707e67c6339e560016c1d9906c4",
                    "receiptTrie" : "0x26ca560da73b0279648b110a2c31947d3c8fa2f5911cce229c4b7638f30613cb",
                    "stateRoot" : "0x1cf9b13e5cac956d72baff7a9cbb6047fa905639996c1dfb6153ca1d4c1db355",
                    "timestamp" : "0x03e8",
                    "transactionsTrie" : "0x543ce10966d974105195ed934ed36512377d0b22187b1766a181b483ec73aac7",
                    "uncleHash" : "0x1dcc4de8dec75d7aab85b567b6ccd41ad312451b948a7413f0a142fd40d49347"
                },
                "rlp" : "0xf90271f901fca0f5903f8fbb4316e7572f99463b026f47ed8a9707e67c6339e560016c1d9906c4a01dcc4de8dec75d7aab85b567b6ccd41ad312451b948a7413f0a142fd40d49347942adc25665018aa1fe0e6bc666dac8fc2697ff9baa01cf9b13e5cac956d72baff7a9cbb6047fa905639996c1dfb6153ca1d4c1db355a0543ce10966d974105195ed934ed36512377d0b22187b1766a181b483ec73aac7a026ca560da73b0279648b110a2c31947d3c8fa2f5911cce229c4b7638f30613cbb90100000000000000000000000000000000000000000000000000000000000000000000000000000000000000000000000000000000000000000000000000000000000000000000000000000000000000000000000000000000000000000000000000000000000000000000000000000000000000000000000000000000000000000000000000000000000000000000000000000000000000000000000000000000000000000000000000000000000000000000000000000000000000000000000000000000000000000000000000000000000000000000000000000000000000000000000000000000000000000000000000000000000000000000000000000000008302000001887fffffffffffffff8254288203e880a0813c1d0474330f196a858644262dbf5fba498760f278b1e26149fea3aca5358888efee5a1f0d0715a0f86ff86d805088100000000000000094b94f5374fce5edbc8e2a8697c15331677e6ebf0b808832403495489834541ba0ad09f36b8b3e242c628ba02751a13cebdbccc36ce52be40b18332e91eb6a8cb1a07381f8aa7848dc2650f37c3c559b4bcbceddf329939ce6e3bdd1e36781b0b746c0",
                "transactions" : [
                    {
                        "data" : "0x3240349548983454",
                        "gasLimit" : "0x1000000000000000",
                        "gasPrice" : "0x50",
                        "nonce" : "0x00",
                        "r" : "0xad09f36b8b3e242c628ba02751a13cebdbccc36ce52be40b18332e91eb6a8cb1",
                        "s" : "0x7381f8aa7848dc2650f37c3c559b4bcbceddf329939ce6e3bdd1e36781b0b746",
                        "to" : "0xb94f5374fce5edbc8e2a8697c15331677e6ebf0b",
                        "v" : "0x1b",
                        "value" : "0x00"
                    }
                ],
                "uncleHeaders" : [
                ]
            }
        ],
        "genesisBlockHeader" : {
            "bloom" : "0x00000000000000000000000000000000000000000000000000000000000000000000000000000000000000000000000000000000000000000000000000000000000000000000000000000000000000000000000000000000000000000000000000000000000000000000000000000000000000000000000000000000000000000000000000000000000000000000000000000000000000000000000000000000000000000000000000000000000000000000000000000000000000000000000000000000000000000000000000000000000000000000000000000000000000000000000000000000000000000000000000000000000000000000000000000000",
            "coinbase" : "0x2adc25665018aa1fe0e6bc666dac8fc2697ff9ba",
            "difficulty" : "0x020000",
            "extraData" : "0x42",
            "gasLimit" : "0x7fffffffffffffff",
            "gasUsed" : "0x00",
            "hash" : "0xf5903f8fbb4316e7572f99463b026f47ed8a9707e67c6339e560016c1d9906c4",
            "mixHash" : "0x56e81f171bcc55a6ff8345e692c0f86e5b48e01b996cadc001622fb5e363b421",
            "nonce" : "0x0102030405060708",
            "number" : "0x00",
            "parentHash" : "0x0000000000000000000000000000000000000000000000000000000000000000",
            "receiptTrie" : "0x56e81f171bcc55a6ff8345e692c0f86e5b48e01b996cadc001622fb5e363b421",
            "stateRoot" : "0x21e74bd5b4b29e241d402d6d7483d050bbdfcf2ae943522c2875c3f293e1ce70",
            "timestamp" : "0x03b6",
            "transactionsTrie" : "0x56e81f171bcc55a6ff8345e692c0f86e5b48e01b996cadc001622fb5e363b421",
            "uncleHash" : "0x1dcc4de8dec75d7aab85b567b6ccd41ad312451b948a7413f0a142fd40d49347"
        },
        "genesisRLP" : "0xf901fff901faa00000000000000000000000000000000000000000000000000000000000000000a01dcc4de8dec75d7aab85b567b6ccd41ad312451b948a7413f0a142fd40d49347942adc25665018aa1fe0e6bc666dac8fc2697ff9baa021e74bd5b4b29e241d402d6d7483d050bbdfcf2ae943522c2875c3f293e1ce70a056e81f171bcc55a6ff8345e692c0f86e5b48e01b996cadc001622fb5e363b421a056e81f171bcc55a6ff8345e692c0f86e5b48e01b996cadc001622fb5e363b421b90100000000000000000000000000000000000000000000000000000000000000000000000000000000000000000000000000000000000000000000000000000000000000000000000000000000000000000000000000000000000000000000000000000000000000000000000000000000000000000000000000000000000000000000000000000000000000000000000000000000000000000000000000000000000000000000000000000000000000000000000000000000000000000000000000000000000000000000000000000000000000000000000000000000000000000000000000000000000000000000000000000000000000000000000000000000008302000080887fffffffffffffff808203b642a056e81f171bcc55a6ff8345e692c0f86e5b48e01b996cadc001622fb5e363b421880102030405060708c0c0",
        "lastblockhash" : "0x3bae0c49a277bbb9b1264713bbb3366c18d3f8da1400ff4d5ef82aee1623ec70",
        "network" : "EIP158",
        "postState" : {
            "0x2adc25665018aa1fe0e6bc666dac8fc2697ff9ba" : {
                "balance" : "0x45639182450e4c80",
                "code" : "",
                "nonce" : "0x00",
                "storage" : {
                }
            },
            "0xa94f5374fce5edbc8e2a8697c15331677e6ebf0b" : {
                "balance" : "0xffffffffffffffffffffffffffffffffffffffffffffffffffffffffffe5b37f",
                "code" : "",
                "nonce" : "0x01",
                "storage" : {
                }
            }
        },
        "pre" : {
            "0xa94f5374fce5edbc8e2a8697c15331677e6ebf0b" : {
                "balance" : "0xffffffffffffffffffffffffffffffffffffffffffffffffffffffffffffffff",
                "code" : "",
                "nonce" : "0x00",
                "storage" : {
                }
            }
        }
    },
    "OverflowGasRequire2_d0g0v0_Frontier" : {
        "_info" : {
            "comment" : "",
            "filledwith" : "cpp-1.3.0+commit.16292201.Linux.g++",
            "source" : "/src/GenStateTestAsBcTemp/stTransactionTest/OverflowGasRequire2_d0g0v0Filler.json"
        },
        "blocks" : [
            {
                "blockHeader" : {
                    "bloom" : "0x00000000000000000000000000000000000000000000000000000000000000000000000000000000000000000000000000000000000000000000000000000000000000000000000000000000000000000000000000000000000000000000000000000000000000000000000000000000000000000000000000000000000000000000000000000000000000000000000000000000000000000000000000000000000000000000000000000000000000000000000000000000000000000000000000000000000000000000000000000000000000000000000000000000000000000000000000000000000000000000000000000000000000000000000000000000",
                    "coinbase" : "0x2adc25665018aa1fe0e6bc666dac8fc2697ff9ba",
                    "difficulty" : "0x020000",
                    "extraData" : "",
                    "gasLimit" : "0x7fffffffffffffff",
                    "gasUsed" : "0x5428",
                    "hash" : "0x650e565f00a5f6792f6463723c07f7e0367978881843bed3f0706e6aa95fb59d",
                    "mixHash" : "0x4fb70af80f25ae5144316fd70dcb08df74a895f5801236639d9e1085da3e2248",
                    "nonce" : "0x2a618aa364c55b22",
                    "number" : "0x01",
                    "parentHash" : "0xf5903f8fbb4316e7572f99463b026f47ed8a9707e67c6339e560016c1d9906c4",
                    "receiptTrie" : "0x87bbbb10a398926d968aa9b341199866d707454dc815134e47b0bd650032f3df",
                    "stateRoot" : "0x8c5a2b1e81fa92ef3ab074249866e2c6ff4291cfc711016b03a9965834991795",
                    "timestamp" : "0x03e8",
                    "transactionsTrie" : "0x543ce10966d974105195ed934ed36512377d0b22187b1766a181b483ec73aac7",
                    "uncleHash" : "0x1dcc4de8dec75d7aab85b567b6ccd41ad312451b948a7413f0a142fd40d49347"
                },
                "rlp" : "0xf90271f901fca0f5903f8fbb4316e7572f99463b026f47ed8a9707e67c6339e560016c1d9906c4a01dcc4de8dec75d7aab85b567b6ccd41ad312451b948a7413f0a142fd40d49347942adc25665018aa1fe0e6bc666dac8fc2697ff9baa08c5a2b1e81fa92ef3ab074249866e2c6ff4291cfc711016b03a9965834991795a0543ce10966d974105195ed934ed36512377d0b22187b1766a181b483ec73aac7a087bbbb10a398926d968aa9b341199866d707454dc815134e47b0bd650032f3dfb90100000000000000000000000000000000000000000000000000000000000000000000000000000000000000000000000000000000000000000000000000000000000000000000000000000000000000000000000000000000000000000000000000000000000000000000000000000000000000000000000000000000000000000000000000000000000000000000000000000000000000000000000000000000000000000000000000000000000000000000000000000000000000000000000000000000000000000000000000000000000000000000000000000000000000000000000000000000000000000000000000000000000000000000000000000000008302000001887fffffffffffffff8254288203e880a04fb70af80f25ae5144316fd70dcb08df74a895f5801236639d9e1085da3e2248882a618aa364c55b22f86ff86d805088100000000000000094b94f5374fce5edbc8e2a8697c15331677e6ebf0b808832403495489834541ba0ad09f36b8b3e242c628ba02751a13cebdbccc36ce52be40b18332e91eb6a8cb1a07381f8aa7848dc2650f37c3c559b4bcbceddf329939ce6e3bdd1e36781b0b746c0",
                "transactions" : [
                    {
                        "data" : "0x3240349548983454",
                        "gasLimit" : "0x1000000000000000",
                        "gasPrice" : "0x50",
                        "nonce" : "0x00",
                        "r" : "0xad09f36b8b3e242c628ba02751a13cebdbccc36ce52be40b18332e91eb6a8cb1",
                        "s" : "0x7381f8aa7848dc2650f37c3c559b4bcbceddf329939ce6e3bdd1e36781b0b746",
                        "to" : "0xb94f5374fce5edbc8e2a8697c15331677e6ebf0b",
                        "v" : "0x1b",
                        "value" : "0x00"
                    }
                ],
                "uncleHeaders" : [
                ]
            }
        ],
        "genesisBlockHeader" : {
            "bloom" : "0x00000000000000000000000000000000000000000000000000000000000000000000000000000000000000000000000000000000000000000000000000000000000000000000000000000000000000000000000000000000000000000000000000000000000000000000000000000000000000000000000000000000000000000000000000000000000000000000000000000000000000000000000000000000000000000000000000000000000000000000000000000000000000000000000000000000000000000000000000000000000000000000000000000000000000000000000000000000000000000000000000000000000000000000000000000000",
            "coinbase" : "0x2adc25665018aa1fe0e6bc666dac8fc2697ff9ba",
            "difficulty" : "0x020000",
            "extraData" : "0x42",
            "gasLimit" : "0x7fffffffffffffff",
            "gasUsed" : "0x00",
            "hash" : "0xf5903f8fbb4316e7572f99463b026f47ed8a9707e67c6339e560016c1d9906c4",
            "mixHash" : "0x56e81f171bcc55a6ff8345e692c0f86e5b48e01b996cadc001622fb5e363b421",
            "nonce" : "0x0102030405060708",
            "number" : "0x00",
            "parentHash" : "0x0000000000000000000000000000000000000000000000000000000000000000",
            "receiptTrie" : "0x56e81f171bcc55a6ff8345e692c0f86e5b48e01b996cadc001622fb5e363b421",
            "stateRoot" : "0x21e74bd5b4b29e241d402d6d7483d050bbdfcf2ae943522c2875c3f293e1ce70",
            "timestamp" : "0x03b6",
            "transactionsTrie" : "0x56e81f171bcc55a6ff8345e692c0f86e5b48e01b996cadc001622fb5e363b421",
            "uncleHash" : "0x1dcc4de8dec75d7aab85b567b6ccd41ad312451b948a7413f0a142fd40d49347"
        },
        "genesisRLP" : "0xf901fff901faa00000000000000000000000000000000000000000000000000000000000000000a01dcc4de8dec75d7aab85b567b6ccd41ad312451b948a7413f0a142fd40d49347942adc25665018aa1fe0e6bc666dac8fc2697ff9baa021e74bd5b4b29e241d402d6d7483d050bbdfcf2ae943522c2875c3f293e1ce70a056e81f171bcc55a6ff8345e692c0f86e5b48e01b996cadc001622fb5e363b421a056e81f171bcc55a6ff8345e692c0f86e5b48e01b996cadc001622fb5e363b421b90100000000000000000000000000000000000000000000000000000000000000000000000000000000000000000000000000000000000000000000000000000000000000000000000000000000000000000000000000000000000000000000000000000000000000000000000000000000000000000000000000000000000000000000000000000000000000000000000000000000000000000000000000000000000000000000000000000000000000000000000000000000000000000000000000000000000000000000000000000000000000000000000000000000000000000000000000000000000000000000000000000000000000000000000000000000008302000080887fffffffffffffff808203b642a056e81f171bcc55a6ff8345e692c0f86e5b48e01b996cadc001622fb5e363b421880102030405060708c0c0",
        "lastblockhash" : "0x650e565f00a5f6792f6463723c07f7e0367978881843bed3f0706e6aa95fb59d",
        "network" : "Frontier",
        "postState" : {
            "0x2adc25665018aa1fe0e6bc666dac8fc2697ff9ba" : {
                "balance" : "0x45639182450e4c80",
                "code" : "",
                "nonce" : "0x00",
                "storage" : {
                }
            },
            "0xa94f5374fce5edbc8e2a8697c15331677e6ebf0b" : {
                "balance" : "0xffffffffffffffffffffffffffffffffffffffffffffffffffffffffffe5b37f",
                "code" : "",
                "nonce" : "0x01",
                "storage" : {
                }
            },
            "0xb94f5374fce5edbc8e2a8697c15331677e6ebf0b" : {
                "balance" : "0x00",
                "code" : "",
                "nonce" : "0x00",
                "storage" : {
                }
            }
        },
        "pre" : {
            "0xa94f5374fce5edbc8e2a8697c15331677e6ebf0b" : {
                "balance" : "0xffffffffffffffffffffffffffffffffffffffffffffffffffffffffffffffff",
                "code" : "",
                "nonce" : "0x00",
                "storage" : {
                }
            }
        }
    },
    "OverflowGasRequire2_d0g0v0_Homestead" : {
        "_info" : {
            "comment" : "",
            "filledwith" : "cpp-1.3.0+commit.16292201.Linux.g++",
            "source" : "/src/GenStateTestAsBcTemp/stTransactionTest/OverflowGasRequire2_d0g0v0Filler.json"
        },
        "blocks" : [
            {
                "blockHeader" : {
                    "bloom" : "0x00000000000000000000000000000000000000000000000000000000000000000000000000000000000000000000000000000000000000000000000000000000000000000000000000000000000000000000000000000000000000000000000000000000000000000000000000000000000000000000000000000000000000000000000000000000000000000000000000000000000000000000000000000000000000000000000000000000000000000000000000000000000000000000000000000000000000000000000000000000000000000000000000000000000000000000000000000000000000000000000000000000000000000000000000000000",
                    "coinbase" : "0x2adc25665018aa1fe0e6bc666dac8fc2697ff9ba",
                    "difficulty" : "0x020000",
                    "extraData" : "",
                    "gasLimit" : "0x7fffffffffffffff",
                    "gasUsed" : "0x5428",
                    "hash" : "0x653219b3fafc1d6aa4af976a48e093b6bed79d859cdcec152ac5e49ada43a8b7",
                    "mixHash" : "0x530a183d768f5df2a56d244ac14b1fa848e2cf8995a121f5bedbdf50807d85bf",
                    "nonce" : "0x1a666134b6168362",
                    "number" : "0x01",
                    "parentHash" : "0xf5903f8fbb4316e7572f99463b026f47ed8a9707e67c6339e560016c1d9906c4",
                    "receiptTrie" : "0x87bbbb10a398926d968aa9b341199866d707454dc815134e47b0bd650032f3df",
                    "stateRoot" : "0x8c5a2b1e81fa92ef3ab074249866e2c6ff4291cfc711016b03a9965834991795",
                    "timestamp" : "0x03e8",
                    "transactionsTrie" : "0x543ce10966d974105195ed934ed36512377d0b22187b1766a181b483ec73aac7",
                    "uncleHash" : "0x1dcc4de8dec75d7aab85b567b6ccd41ad312451b948a7413f0a142fd40d49347"
                },
                "rlp" : "0xf90271f901fca0f5903f8fbb4316e7572f99463b026f47ed8a9707e67c6339e560016c1d9906c4a01dcc4de8dec75d7aab85b567b6ccd41ad312451b948a7413f0a142fd40d49347942adc25665018aa1fe0e6bc666dac8fc2697ff9baa08c5a2b1e81fa92ef3ab074249866e2c6ff4291cfc711016b03a9965834991795a0543ce10966d974105195ed934ed36512377d0b22187b1766a181b483ec73aac7a087bbbb10a398926d968aa9b341199866d707454dc815134e47b0bd650032f3dfb90100000000000000000000000000000000000000000000000000000000000000000000000000000000000000000000000000000000000000000000000000000000000000000000000000000000000000000000000000000000000000000000000000000000000000000000000000000000000000000000000000000000000000000000000000000000000000000000000000000000000000000000000000000000000000000000000000000000000000000000000000000000000000000000000000000000000000000000000000000000000000000000000000000000000000000000000000000000000000000000000000000000000000000000000000000000008302000001887fffffffffffffff8254288203e880a0530a183d768f5df2a56d244ac14b1fa848e2cf8995a121f5bedbdf50807d85bf881a666134b6168362f86ff86d805088100000000000000094b94f5374fce5edbc8e2a8697c15331677e6ebf0b808832403495489834541ba0ad09f36b8b3e242c628ba02751a13cebdbccc36ce52be40b18332e91eb6a8cb1a07381f8aa7848dc2650f37c3c559b4bcbceddf329939ce6e3bdd1e36781b0b746c0",
                "transactions" : [
                    {
                        "data" : "0x3240349548983454",
                        "gasLimit" : "0x1000000000000000",
                        "gasPrice" : "0x50",
                        "nonce" : "0x00",
                        "r" : "0xad09f36b8b3e242c628ba02751a13cebdbccc36ce52be40b18332e91eb6a8cb1",
                        "s" : "0x7381f8aa7848dc2650f37c3c559b4bcbceddf329939ce6e3bdd1e36781b0b746",
                        "to" : "0xb94f5374fce5edbc8e2a8697c15331677e6ebf0b",
                        "v" : "0x1b",
                        "value" : "0x00"
                    }
                ],
                "uncleHeaders" : [
                ]
            }
        ],
        "genesisBlockHeader" : {
            "bloom" : "0x00000000000000000000000000000000000000000000000000000000000000000000000000000000000000000000000000000000000000000000000000000000000000000000000000000000000000000000000000000000000000000000000000000000000000000000000000000000000000000000000000000000000000000000000000000000000000000000000000000000000000000000000000000000000000000000000000000000000000000000000000000000000000000000000000000000000000000000000000000000000000000000000000000000000000000000000000000000000000000000000000000000000000000000000000000000",
            "coinbase" : "0x2adc25665018aa1fe0e6bc666dac8fc2697ff9ba",
            "difficulty" : "0x020000",
            "extraData" : "0x42",
            "gasLimit" : "0x7fffffffffffffff",
            "gasUsed" : "0x00",
            "hash" : "0xf5903f8fbb4316e7572f99463b026f47ed8a9707e67c6339e560016c1d9906c4",
            "mixHash" : "0x56e81f171bcc55a6ff8345e692c0f86e5b48e01b996cadc001622fb5e363b421",
            "nonce" : "0x0102030405060708",
            "number" : "0x00",
            "parentHash" : "0x0000000000000000000000000000000000000000000000000000000000000000",
            "receiptTrie" : "0x56e81f171bcc55a6ff8345e692c0f86e5b48e01b996cadc001622fb5e363b421",
            "stateRoot" : "0x21e74bd5b4b29e241d402d6d7483d050bbdfcf2ae943522c2875c3f293e1ce70",
            "timestamp" : "0x03b6",
            "transactionsTrie" : "0x56e81f171bcc55a6ff8345e692c0f86e5b48e01b996cadc001622fb5e363b421",
            "uncleHash" : "0x1dcc4de8dec75d7aab85b567b6ccd41ad312451b948a7413f0a142fd40d49347"
        },
        "genesisRLP" : "0xf901fff901faa00000000000000000000000000000000000000000000000000000000000000000a01dcc4de8dec75d7aab85b567b6ccd41ad312451b948a7413f0a142fd40d49347942adc25665018aa1fe0e6bc666dac8fc2697ff9baa021e74bd5b4b29e241d402d6d7483d050bbdfcf2ae943522c2875c3f293e1ce70a056e81f171bcc55a6ff8345e692c0f86e5b48e01b996cadc001622fb5e363b421a056e81f171bcc55a6ff8345e692c0f86e5b48e01b996cadc001622fb5e363b421b90100000000000000000000000000000000000000000000000000000000000000000000000000000000000000000000000000000000000000000000000000000000000000000000000000000000000000000000000000000000000000000000000000000000000000000000000000000000000000000000000000000000000000000000000000000000000000000000000000000000000000000000000000000000000000000000000000000000000000000000000000000000000000000000000000000000000000000000000000000000000000000000000000000000000000000000000000000000000000000000000000000000000000000000000000000000008302000080887fffffffffffffff808203b642a056e81f171bcc55a6ff8345e692c0f86e5b48e01b996cadc001622fb5e363b421880102030405060708c0c0",
        "lastblockhash" : "0x653219b3fafc1d6aa4af976a48e093b6bed79d859cdcec152ac5e49ada43a8b7",
        "network" : "Homestead",
        "postState" : {
            "0x2adc25665018aa1fe0e6bc666dac8fc2697ff9ba" : {
                "balance" : "0x45639182450e4c80",
                "code" : "",
                "nonce" : "0x00",
                "storage" : {
                }
            },
            "0xa94f5374fce5edbc8e2a8697c15331677e6ebf0b" : {
                "balance" : "0xffffffffffffffffffffffffffffffffffffffffffffffffffffffffffe5b37f",
                "code" : "",
                "nonce" : "0x01",
                "storage" : {
                }
            },
            "0xb94f5374fce5edbc8e2a8697c15331677e6ebf0b" : {
                "balance" : "0x00",
                "code" : "",
                "nonce" : "0x00",
                "storage" : {
                }
            }
        },
        "pre" : {
            "0xa94f5374fce5edbc8e2a8697c15331677e6ebf0b" : {
                "balance" : "0xffffffffffffffffffffffffffffffffffffffffffffffffffffffffffffffff",
                "code" : "",
                "nonce" : "0x00",
                "storage" : {
                }
            }
        }
    },
    "OverflowGasRequire2_d0g0v0_Metropolis" : {
        "_info" : {
            "comment" : "",
            "filledwith" : "cpp-1.3.0+commit.16292201.Linux.g++",
            "source" : "/src/GenStateTestAsBcTemp/stTransactionTest/OverflowGasRequire2_d0g0v0Filler.json"
        },
        "blocks" : [
            {
                "blockHeader" : {
                    "bloom" : "0x00000000000000000000000000000000000000000000000000000000000000000000000000000000000000000000000000000000000000000000000000000000000000000000000000000000000000000000000000000000000000000000000000000000000000000000000000000000000000000000000000000000000000000000000000000000000000000000000000000000000000000000000000000000000000000000000000000000000000000000000000000000000000000000000000000000000000000000000000000000000000000000000000000000000000000000000000000000000000000000000000000000000000000000000000000000",
                    "coinbase" : "0x2adc25665018aa1fe0e6bc666dac8fc2697ff9ba",
                    "difficulty" : "0x020000",
                    "extraData" : "",
                    "gasLimit" : "0x7fffffffffffffff",
                    "gasUsed" : "0x5428",
                    "hash" : "0xf8600a3d5512b7352cfb36db363057a1ce516352169d5c8b2275d437aa929bfd",
                    "mixHash" : "0x6d81490a8e530cb40e4c25d1d4202e7101c2f95ae609ab75b5ff58e94fc21454",
                    "nonce" : "0x0cb0e3c1eaa46bc5",
                    "number" : "0x01",
                    "parentHash" : "0xf5903f8fbb4316e7572f99463b026f47ed8a9707e67c6339e560016c1d9906c4",
                    "receiptTrie" : "0x45671daf07412c1ffe3483fd1fc0884ab0d4b99cc537b3e3155d1665cf5e83f0",
                    "stateRoot" : "0xb133d51f21605ecc6d0637caf65a91adc14aa0bcd840b30425d06ee09345089b",
                    "timestamp" : "0x03e8",
                    "transactionsTrie" : "0x543ce10966d974105195ed934ed36512377d0b22187b1766a181b483ec73aac7",
                    "uncleHash" : "0x1dcc4de8dec75d7aab85b567b6ccd41ad312451b948a7413f0a142fd40d49347"
                },
                "rlp" : "0xf90271f901fca0f5903f8fbb4316e7572f99463b026f47ed8a9707e67c6339e560016c1d9906c4a01dcc4de8dec75d7aab85b567b6ccd41ad312451b948a7413f0a142fd40d49347942adc25665018aa1fe0e6bc666dac8fc2697ff9baa0b133d51f21605ecc6d0637caf65a91adc14aa0bcd840b30425d06ee09345089ba0543ce10966d974105195ed934ed36512377d0b22187b1766a181b483ec73aac7a045671daf07412c1ffe3483fd1fc0884ab0d4b99cc537b3e3155d1665cf5e83f0b90100000000000000000000000000000000000000000000000000000000000000000000000000000000000000000000000000000000000000000000000000000000000000000000000000000000000000000000000000000000000000000000000000000000000000000000000000000000000000000000000000000000000000000000000000000000000000000000000000000000000000000000000000000000000000000000000000000000000000000000000000000000000000000000000000000000000000000000000000000000000000000000000000000000000000000000000000000000000000000000000000000000000000000000000000000000008302000001887fffffffffffffff8254288203e880a06d81490a8e530cb40e4c25d1d4202e7101c2f95ae609ab75b5ff58e94fc21454880cb0e3c1eaa46bc5f86ff86d805088100000000000000094b94f5374fce5edbc8e2a8697c15331677e6ebf0b808832403495489834541ba0ad09f36b8b3e242c628ba02751a13cebdbccc36ce52be40b18332e91eb6a8cb1a07381f8aa7848dc2650f37c3c559b4bcbceddf329939ce6e3bdd1e36781b0b746c0",
                "transactions" : [
                    {
                        "data" : "0x3240349548983454",
                        "gasLimit" : "0x1000000000000000",
                        "gasPrice" : "0x50",
                        "nonce" : "0x00",
                        "r" : "0xad09f36b8b3e242c628ba02751a13cebdbccc36ce52be40b18332e91eb6a8cb1",
                        "s" : "0x7381f8aa7848dc2650f37c3c559b4bcbceddf329939ce6e3bdd1e36781b0b746",
                        "to" : "0xb94f5374fce5edbc8e2a8697c15331677e6ebf0b",
                        "v" : "0x1b",
                        "value" : "0x00"
                    }
                ],
                "uncleHeaders" : [
                ]
            }
        ],
        "genesisBlockHeader" : {
            "bloom" : "0x00000000000000000000000000000000000000000000000000000000000000000000000000000000000000000000000000000000000000000000000000000000000000000000000000000000000000000000000000000000000000000000000000000000000000000000000000000000000000000000000000000000000000000000000000000000000000000000000000000000000000000000000000000000000000000000000000000000000000000000000000000000000000000000000000000000000000000000000000000000000000000000000000000000000000000000000000000000000000000000000000000000000000000000000000000000",
            "coinbase" : "0x2adc25665018aa1fe0e6bc666dac8fc2697ff9ba",
            "difficulty" : "0x020000",
            "extraData" : "0x42",
            "gasLimit" : "0x7fffffffffffffff",
            "gasUsed" : "0x00",
            "hash" : "0xf5903f8fbb4316e7572f99463b026f47ed8a9707e67c6339e560016c1d9906c4",
            "mixHash" : "0x56e81f171bcc55a6ff8345e692c0f86e5b48e01b996cadc001622fb5e363b421",
            "nonce" : "0x0102030405060708",
            "number" : "0x00",
            "parentHash" : "0x0000000000000000000000000000000000000000000000000000000000000000",
            "receiptTrie" : "0x56e81f171bcc55a6ff8345e692c0f86e5b48e01b996cadc001622fb5e363b421",
            "stateRoot" : "0x21e74bd5b4b29e241d402d6d7483d050bbdfcf2ae943522c2875c3f293e1ce70",
            "timestamp" : "0x03b6",
            "transactionsTrie" : "0x56e81f171bcc55a6ff8345e692c0f86e5b48e01b996cadc001622fb5e363b421",
            "uncleHash" : "0x1dcc4de8dec75d7aab85b567b6ccd41ad312451b948a7413f0a142fd40d49347"
        },
        "genesisRLP" : "0xf901fff901faa00000000000000000000000000000000000000000000000000000000000000000a01dcc4de8dec75d7aab85b567b6ccd41ad312451b948a7413f0a142fd40d49347942adc25665018aa1fe0e6bc666dac8fc2697ff9baa021e74bd5b4b29e241d402d6d7483d050bbdfcf2ae943522c2875c3f293e1ce70a056e81f171bcc55a6ff8345e692c0f86e5b48e01b996cadc001622fb5e363b421a056e81f171bcc55a6ff8345e692c0f86e5b48e01b996cadc001622fb5e363b421b90100000000000000000000000000000000000000000000000000000000000000000000000000000000000000000000000000000000000000000000000000000000000000000000000000000000000000000000000000000000000000000000000000000000000000000000000000000000000000000000000000000000000000000000000000000000000000000000000000000000000000000000000000000000000000000000000000000000000000000000000000000000000000000000000000000000000000000000000000000000000000000000000000000000000000000000000000000000000000000000000000000000000000000000000000000000008302000080887fffffffffffffff808203b642a056e81f171bcc55a6ff8345e692c0f86e5b48e01b996cadc001622fb5e363b421880102030405060708c0c0",
        "lastblockhash" : "0xf8600a3d5512b7352cfb36db363057a1ce516352169d5c8b2275d437aa929bfd",
        "network" : "Metropolis",
        "postState" : {
            "0x00000000000000000000000000000000000000f0" : {
                "balance" : "0x00",
                "code" : "",
                "nonce" : "0x00",
                "storage" : {
                }
            },
            "0x2adc25665018aa1fe0e6bc666dac8fc2697ff9ba" : {
                "balance" : "0x45639182450e4c80",
                "code" : "",
                "nonce" : "0x00",
                "storage" : {
                }
            },
            "0xa94f5374fce5edbc8e2a8697c15331677e6ebf0b" : {
                "balance" : "0xffffffffffffffffffffffffffffffffffffffffffffffffffffffffffe5b37f",
                "code" : "",
                "nonce" : "0x01",
                "storage" : {
                }
            }
        },
        "pre" : {
            "0xa94f5374fce5edbc8e2a8697c15331677e6ebf0b" : {
                "balance" : "0xffffffffffffffffffffffffffffffffffffffffffffffffffffffffffffffff",
                "code" : "",
                "nonce" : "0x00",
                "storage" : {
                }
            }
        }
    }
}