{
    "SuicidesAndInternlCallSuicidesBonusGasAtCall_d0g0v0_Byzantium" : {
        "_info" : {
            "comment" : "",
            "filledwith" : "cpp-1.3.0+commit.7b8143d3.Linux.g++",
            "source" : "/src/GenStateTestAsBcTemp/stTransactionTest/SuicidesAndInternlCallSuicidesBonusGasAtCall_d0g0v0Filler.json"
        },
        "blocks" : [
            {
                "blockHeader" : {
                    "bloom" : "0x00000000000000000000000000000000000000000000000000000000000000000000000000000000000000000000000000000000000000000000000000000000000000000000000000000000000000000000000000000000000000000000000000000000000000000000000000000000000000000000000000000000000000000000000000000000000000000000000000000000000000000000000000000000000000000000000000000000000000000000000000000000000000000000000000000000000000000000000000000000000000000000000000000000000000000000000000000000000000000000000000000000000000000000000000000000",
                    "coinbase" : "0xb94f5374fce5edbc8e2a8697c15331677e6ebf0b",
                    "difficulty" : "0x020000",
                    "extraData" : "",
                    "gasLimit" : "0x0f4240",
                    "gasUsed" : "0x45c7",
                    "hash" : "0x8cae8a8c2cecbea59959bae4f8c77d13022dadb53b7d596e0db8c067900749ab",
                    "mixHash" : "0xb915eeb4aaa010bf449a44bf686f98b20ba5e844d011f2e547510131896d14f6",
                    "nonce" : "0x3a303c5b31737424",
                    "number" : "0x01",
                    "parentHash" : "0x03ddd6e35f00c4d3f82fd685252f3c456051fcf845e40efc4c375c6aceca58e8",
                    "receiptTrie" : "0x656b0c36bf4d2a06bc0e244294d644509992a2dd71c61150b54195ec9f0c69f4",
                    "stateRoot" : "0x609522e0d984a750c1fa0cdf680601534d2e537e08b60e10fdad8668a13be3a1",
                    "timestamp" : "0x03e8",
                    "transactionsTrie" : "0x91d378a6bfb4f116c46a7074c49a214cbf0dd5b9c667118f698e4c449aa86904",
                    "uncleHash" : "0x1dcc4de8dec75d7aab85b567b6ccd41ad312451b948a7413f0a142fd40d49347"
                },
                "rlp" : "0xf9025ef901f7a003ddd6e35f00c4d3f82fd685252f3c456051fcf845e40efc4c375c6aceca58e8a01dcc4de8dec75d7aab85b567b6ccd41ad312451b948a7413f0a142fd40d4934794b94f5374fce5edbc8e2a8697c15331677e6ebf0ba0609522e0d984a750c1fa0cdf680601534d2e537e08b60e10fdad8668a13be3a1a091d378a6bfb4f116c46a7074c49a214cbf0dd5b9c667118f698e4c449aa86904a0656b0c36bf4d2a06bc0e244294d644509992a2dd71c61150b54195ec9f0c69f4b90100000000000000000000000000000000000000000000000000000000000000000000000000000000000000000000000000000000000000000000000000000000000000000000000000000000000000000000000000000000000000000000000000000000000000000000000000000000000000000000000000000000000000000000000000000000000000000000000000000000000000000000000000000000000000000000000000000000000000000000000000000000000000000000000000000000000000000000000000000000000000000000000000000000000000000000000000000000000000000000000000000000000000000000000000000000008302000001830f42408245c78203e880a0b915eeb4aaa010bf449a44bf686f98b20ba5e844d011f2e547510131896d14f6883a303c5b31737424f861f85f800182c35094c94f5374fce5edbc8e2a8697c15331677e6ebf0b0a801ba06651a4e4a2d49ab225c5e117090284e2a9ee6ccb39d4dd5c215e10814470d13aa004ce2615da68d17d90a69725743e5836c52983d504aee13fe9fae027aac43be7c0",
                "transactions" : [
                    {
                        "data" : "",
                        "gasLimit" : "0xc350",
                        "gasPrice" : "0x01",
                        "nonce" : "0x00",
                        "r" : "0x6651a4e4a2d49ab225c5e117090284e2a9ee6ccb39d4dd5c215e10814470d13a",
                        "s" : "0x04ce2615da68d17d90a69725743e5836c52983d504aee13fe9fae027aac43be7",
                        "to" : "0xc94f5374fce5edbc8e2a8697c15331677e6ebf0b",
                        "v" : "0x1b",
                        "value" : "0x0a"
                    }
                ],
                "uncleHeaders" : [
                ]
            }
        ],
        "genesisBlockHeader" : {
            "bloom" : "0x00000000000000000000000000000000000000000000000000000000000000000000000000000000000000000000000000000000000000000000000000000000000000000000000000000000000000000000000000000000000000000000000000000000000000000000000000000000000000000000000000000000000000000000000000000000000000000000000000000000000000000000000000000000000000000000000000000000000000000000000000000000000000000000000000000000000000000000000000000000000000000000000000000000000000000000000000000000000000000000000000000000000000000000000000000000",
            "coinbase" : "0xb94f5374fce5edbc8e2a8697c15331677e6ebf0b",
            "difficulty" : "0x020000",
            "extraData" : "0x42",
            "gasLimit" : "0x0f4240",
            "gasUsed" : "0x00",
            "hash" : "0x03ddd6e35f00c4d3f82fd685252f3c456051fcf845e40efc4c375c6aceca58e8",
            "mixHash" : "0x56e81f171bcc55a6ff8345e692c0f86e5b48e01b996cadc001622fb5e363b421",
            "nonce" : "0x0102030405060708",
            "number" : "0x00",
            "parentHash" : "0x0000000000000000000000000000000000000000000000000000000000000000",
            "receiptTrie" : "0x56e81f171bcc55a6ff8345e692c0f86e5b48e01b996cadc001622fb5e363b421",
            "stateRoot" : "0xf0038965aaa3b359d03485c0110f19e4af7db97c9d552504309a2f08c5e5aa28",
            "timestamp" : "0x03b6",
            "transactionsTrie" : "0x56e81f171bcc55a6ff8345e692c0f86e5b48e01b996cadc001622fb5e363b421",
            "uncleHash" : "0x1dcc4de8dec75d7aab85b567b6ccd41ad312451b948a7413f0a142fd40d49347"
        },
        "genesisRLP" : "0xf901faf901f5a00000000000000000000000000000000000000000000000000000000000000000a01dcc4de8dec75d7aab85b567b6ccd41ad312451b948a7413f0a142fd40d4934794b94f5374fce5edbc8e2a8697c15331677e6ebf0ba0f0038965aaa3b359d03485c0110f19e4af7db97c9d552504309a2f08c5e5aa28a056e81f171bcc55a6ff8345e692c0f86e5b48e01b996cadc001622fb5e363b421a056e81f171bcc55a6ff8345e692c0f86e5b48e01b996cadc001622fb5e363b421b90100000000000000000000000000000000000000000000000000000000000000000000000000000000000000000000000000000000000000000000000000000000000000000000000000000000000000000000000000000000000000000000000000000000000000000000000000000000000000000000000000000000000000000000000000000000000000000000000000000000000000000000000000000000000000000000000000000000000000000000000000000000000000000000000000000000000000000000000000000000000000000000000000000000000000000000000000000000000000000000000000000000000000000000000000000000008302000080830f4240808203b642a056e81f171bcc55a6ff8345e692c0f86e5b48e01b996cadc001622fb5e363b421880102030405060708c0c0",
        "lastblockhash" : "0x8cae8a8c2cecbea59959bae4f8c77d13022dadb53b7d596e0db8c067900749ab",
        "network" : "Byzantium",
        "postState" : {
            "0x0000000000000000000000000000000000000000" : {
                "balance" : "0x14",
                "code" : "0x6001ff",
                "nonce" : "0x00",
                "storage" : {
                }
            },
            "0xa94f5374fce5edbc8e2a8697c15331677e6ebf0b" : {
                "balance" : "0x0140cf",
                "code" : "",
                "nonce" : "0x01",
                "storage" : {
                }
            },
            "0xb94f5374fce5edbc8e2a8697c15331677e6ebf0b" : {
                "balance" : "0x29a2241af62c45c7",
                "code" : "",
                "nonce" : "0x00",
                "storage" : {
                }
            }
        },
        "pre" : {
            "0x0000000000000000000000000000000000000000" : {
                "balance" : "0x00",
                "code" : "0x6001ff",
                "nonce" : "0x00",
                "storage" : {
                }
            },
            "0xa94f5374fce5edbc8e2a8697c15331677e6ebf0b" : {
                "balance" : "0x0186a0",
                "code" : "",
                "nonce" : "0x00",
                "storage" : {
                }
            },
            "0xc94f5374fce5edbc8e2a8697c15331677e6ebf0b" : {
                "balance" : "0x0a",
                "code" : "0x6000600060006000600160006000f1506000ff",
                "nonce" : "0x00",
                "storage" : {
                }
            }
        }
    },
    "SuicidesAndInternlCallSuicidesBonusGasAtCall_d0g0v0_Constantinople" : {
        "_info" : {
            "comment" : "",
            "filledwith" : "cpp-1.3.0+commit.7b8143d3.Linux.g++",
            "source" : "/src/GenStateTestAsBcTemp/stTransactionTest/SuicidesAndInternlCallSuicidesBonusGasAtCall_d0g0v0Filler.json"
        },
        "blocks" : [
            {
                "blockHeader" : {
                    "bloom" : "0x00000000000000000000000000000000000000000000000000000000000000000000000000000000000000000000000000000000000000000000000000000000000000000000000000000000000000000000000000000000000000000000000000000000000000000000000000000000000000000000000000000000000000000000000000000000000000000000000000000000000000000000000000000000000000000000000000000000000000000000000000000000000000000000000000000000000000000000000000000000000000000000000000000000000000000000000000000000000000000000000000000000000000000000000000000000",
                    "coinbase" : "0xb94f5374fce5edbc8e2a8697c15331677e6ebf0b",
                    "difficulty" : "0x020000",
                    "extraData" : "",
                    "gasLimit" : "0x0f4240",
                    "gasUsed" : "0x45c7",
                    "hash" : "0x646cc318b1a5511f6faf1a66491d983fbaa7804985ee408409923fbe2acdb3fa",
                    "mixHash" : "0x3afb35813ab04f9d3b940843a8550ed192532aefbda1c586a040ab7ecd8242e9",
                    "nonce" : "0x005b03c3468c7a71",
                    "number" : "0x01",
                    "parentHash" : "0x03ddd6e35f00c4d3f82fd685252f3c456051fcf845e40efc4c375c6aceca58e8",
                    "receiptTrie" : "0x656b0c36bf4d2a06bc0e244294d644509992a2dd71c61150b54195ec9f0c69f4",
                    "stateRoot" : "0x080ae22a6bcf4308a675861570df4aae780642f8459c6924267817b49596acc6",
                    "timestamp" : "0x03e8",
                    "transactionsTrie" : "0x91d378a6bfb4f116c46a7074c49a214cbf0dd5b9c667118f698e4c449aa86904",
                    "uncleHash" : "0x1dcc4de8dec75d7aab85b567b6ccd41ad312451b948a7413f0a142fd40d49347"
                },
                "rlp" : "0xf9025ef901f7a003ddd6e35f00c4d3f82fd685252f3c456051fcf845e40efc4c375c6aceca58e8a01dcc4de8dec75d7aab85b567b6ccd41ad312451b948a7413f0a142fd40d4934794b94f5374fce5edbc8e2a8697c15331677e6ebf0ba0080ae22a6bcf4308a675861570df4aae780642f8459c6924267817b49596acc6a091d378a6bfb4f116c46a7074c49a214cbf0dd5b9c667118f698e4c449aa86904a0656b0c36bf4d2a06bc0e244294d644509992a2dd71c61150b54195ec9f0c69f4b90100000000000000000000000000000000000000000000000000000000000000000000000000000000000000000000000000000000000000000000000000000000000000000000000000000000000000000000000000000000000000000000000000000000000000000000000000000000000000000000000000000000000000000000000000000000000000000000000000000000000000000000000000000000000000000000000000000000000000000000000000000000000000000000000000000000000000000000000000000000000000000000000000000000000000000000000000000000000000000000000000000000000000000000000000000000008302000001830f42408245c78203e880a03afb35813ab04f9d3b940843a8550ed192532aefbda1c586a040ab7ecd8242e988005b03c3468c7a71f861f85f800182c35094c94f5374fce5edbc8e2a8697c15331677e6ebf0b0a801ba06651a4e4a2d49ab225c5e117090284e2a9ee6ccb39d4dd5c215e10814470d13aa004ce2615da68d17d90a69725743e5836c52983d504aee13fe9fae027aac43be7c0",
                "transactions" : [
                    {
                        "data" : "",
                        "gasLimit" : "0xc350",
                        "gasPrice" : "0x01",
                        "nonce" : "0x00",
                        "r" : "0x6651a4e4a2d49ab225c5e117090284e2a9ee6ccb39d4dd5c215e10814470d13a",
                        "s" : "0x04ce2615da68d17d90a69725743e5836c52983d504aee13fe9fae027aac43be7",
                        "to" : "0xc94f5374fce5edbc8e2a8697c15331677e6ebf0b",
                        "v" : "0x1b",
                        "value" : "0x0a"
                    }
                ],
                "uncleHeaders" : [
                ]
            }
        ],
        "genesisBlockHeader" : {
            "bloom" : "0x00000000000000000000000000000000000000000000000000000000000000000000000000000000000000000000000000000000000000000000000000000000000000000000000000000000000000000000000000000000000000000000000000000000000000000000000000000000000000000000000000000000000000000000000000000000000000000000000000000000000000000000000000000000000000000000000000000000000000000000000000000000000000000000000000000000000000000000000000000000000000000000000000000000000000000000000000000000000000000000000000000000000000000000000000000000",
            "coinbase" : "0xb94f5374fce5edbc8e2a8697c15331677e6ebf0b",
            "difficulty" : "0x020000",
            "extraData" : "0x42",
            "gasLimit" : "0x0f4240",
            "gasUsed" : "0x00",
            "hash" : "0x03ddd6e35f00c4d3f82fd685252f3c456051fcf845e40efc4c375c6aceca58e8",
            "mixHash" : "0x56e81f171bcc55a6ff8345e692c0f86e5b48e01b996cadc001622fb5e363b421",
            "nonce" : "0x0102030405060708",
            "number" : "0x00",
            "parentHash" : "0x0000000000000000000000000000000000000000000000000000000000000000",
            "receiptTrie" : "0x56e81f171bcc55a6ff8345e692c0f86e5b48e01b996cadc001622fb5e363b421",
            "stateRoot" : "0xf0038965aaa3b359d03485c0110f19e4af7db97c9d552504309a2f08c5e5aa28",
            "timestamp" : "0x03b6",
            "transactionsTrie" : "0x56e81f171bcc55a6ff8345e692c0f86e5b48e01b996cadc001622fb5e363b421",
            "uncleHash" : "0x1dcc4de8dec75d7aab85b567b6ccd41ad312451b948a7413f0a142fd40d49347"
        },
        "genesisRLP" : "0xf901faf901f5a00000000000000000000000000000000000000000000000000000000000000000a01dcc4de8dec75d7aab85b567b6ccd41ad312451b948a7413f0a142fd40d4934794b94f5374fce5edbc8e2a8697c15331677e6ebf0ba0f0038965aaa3b359d03485c0110f19e4af7db97c9d552504309a2f08c5e5aa28a056e81f171bcc55a6ff8345e692c0f86e5b48e01b996cadc001622fb5e363b421a056e81f171bcc55a6ff8345e692c0f86e5b48e01b996cadc001622fb5e363b421b90100000000000000000000000000000000000000000000000000000000000000000000000000000000000000000000000000000000000000000000000000000000000000000000000000000000000000000000000000000000000000000000000000000000000000000000000000000000000000000000000000000000000000000000000000000000000000000000000000000000000000000000000000000000000000000000000000000000000000000000000000000000000000000000000000000000000000000000000000000000000000000000000000000000000000000000000000000000000000000000000000000000000000000000000000000000008302000080830f4240808203b642a056e81f171bcc55a6ff8345e692c0f86e5b48e01b996cadc001622fb5e363b421880102030405060708c0c0",
        "lastblockhash" : "0x646cc318b1a5511f6faf1a66491d983fbaa7804985ee408409923fbe2acdb3fa",
        "network" : "Constantinople",
        "postState" : {
            "0x0000000000000000000000000000000000000000" : {
                "balance" : "0x14",
                "code" : "0x6001ff",
                "nonce" : "0x00",
                "storage" : {
                }
            },
            "0x00000000000000000000000000000000000000f0" : {
                "balance" : "0x00",
                "code" : "",
                "nonce" : "0x00",
                "storage" : {
                }
            },
            "0xa94f5374fce5edbc8e2a8697c15331677e6ebf0b" : {
                "balance" : "0x0140cf",
                "code" : "",
                "nonce" : "0x01",
                "storage" : {
                }
            },
            "0xb94f5374fce5edbc8e2a8697c15331677e6ebf0b" : {
                "balance" : "0x29a2241af62c45c7",
                "code" : "",
                "nonce" : "0x00",
                "storage" : {
                }
            }
        },
        "pre" : {
            "0x0000000000000000000000000000000000000000" : {
                "balance" : "0x00",
                "code" : "0x6001ff",
                "nonce" : "0x00",
                "storage" : {
                }
            },
            "0xa94f5374fce5edbc8e2a8697c15331677e6ebf0b" : {
                "balance" : "0x0186a0",
                "code" : "",
                "nonce" : "0x00",
                "storage" : {
                }
            },
            "0xc94f5374fce5edbc8e2a8697c15331677e6ebf0b" : {
                "balance" : "0x0a",
                "code" : "0x6000600060006000600160006000f1506000ff",
                "nonce" : "0x00",
                "storage" : {
                }
            }
        }
    },
    "SuicidesAndInternlCallSuicidesBonusGasAtCall_d0g0v0_EIP150" : {
        "_info" : {
            "comment" : "",
            "filledwith" : "cpp-1.3.0+commit.7b8143d3.Linux.g++",
            "source" : "/src/GenStateTestAsBcTemp/stTransactionTest/SuicidesAndInternlCallSuicidesBonusGasAtCall_d0g0v0Filler.json"
        },
        "blocks" : [
            {
                "blockHeader" : {
                    "bloom" : "0x00000000000000000000000000000000000000000000000000000000000000000000000000000000000000000000000000000000000000000000000000000000000000000000000000000000000000000000000000000000000000000000000000000000000000000000000000000000000000000000000000000000000000000000000000000000000000000000000000000000000000000000000000000000000000000000000000000000000000000000000000000000000000000000000000000000000000000000000000000000000000000000000000000000000000000000000000000000000000000000000000000000000000000000000000000000",
                    "coinbase" : "0xb94f5374fce5edbc8e2a8697c15331677e6ebf0b",
                    "difficulty" : "0x020000",
                    "extraData" : "",
                    "gasLimit" : "0x0f4240",
                    "gasUsed" : "0x45c7",
                    "hash" : "0x3aba9b1d99f4b979d2bc49444d92f2884c7a03f69b3298225bf01a579c63748f",
                    "mixHash" : "0x5adf4d350d9e45bc245625813d678f37ac1eb0482cef159001e1d9ee7a4c3bfc",
                    "nonce" : "0x8ccefb8d9f47221f",
                    "number" : "0x01",
                    "parentHash" : "0x03ddd6e35f00c4d3f82fd685252f3c456051fcf845e40efc4c375c6aceca58e8",
                    "receiptTrie" : "0xa1c3b5b48ad675e8a801f2b2fc0a94c23020f665dc32a516bbc370d7ca0a3fd5",
                    "stateRoot" : "0xa1944f6b0c38b1c0355cb9422a60ce04f119d4fd4405b132f73d3660c9f09f9a",
                    "timestamp" : "0x03e8",
                    "transactionsTrie" : "0x91d378a6bfb4f116c46a7074c49a214cbf0dd5b9c667118f698e4c449aa86904",
                    "uncleHash" : "0x1dcc4de8dec75d7aab85b567b6ccd41ad312451b948a7413f0a142fd40d49347"
                },
                "rlp" : "0xf9025ef901f7a003ddd6e35f00c4d3f82fd685252f3c456051fcf845e40efc4c375c6aceca58e8a01dcc4de8dec75d7aab85b567b6ccd41ad312451b948a7413f0a142fd40d4934794b94f5374fce5edbc8e2a8697c15331677e6ebf0ba0a1944f6b0c38b1c0355cb9422a60ce04f119d4fd4405b132f73d3660c9f09f9aa091d378a6bfb4f116c46a7074c49a214cbf0dd5b9c667118f698e4c449aa86904a0a1c3b5b48ad675e8a801f2b2fc0a94c23020f665dc32a516bbc370d7ca0a3fd5b90100000000000000000000000000000000000000000000000000000000000000000000000000000000000000000000000000000000000000000000000000000000000000000000000000000000000000000000000000000000000000000000000000000000000000000000000000000000000000000000000000000000000000000000000000000000000000000000000000000000000000000000000000000000000000000000000000000000000000000000000000000000000000000000000000000000000000000000000000000000000000000000000000000000000000000000000000000000000000000000000000000000000000000000000000000000008302000001830f42408245c78203e880a05adf4d350d9e45bc245625813d678f37ac1eb0482cef159001e1d9ee7a4c3bfc888ccefb8d9f47221ff861f85f800182c35094c94f5374fce5edbc8e2a8697c15331677e6ebf0b0a801ba06651a4e4a2d49ab225c5e117090284e2a9ee6ccb39d4dd5c215e10814470d13aa004ce2615da68d17d90a69725743e5836c52983d504aee13fe9fae027aac43be7c0",
                "transactions" : [
                    {
                        "data" : "",
                        "gasLimit" : "0xc350",
                        "gasPrice" : "0x01",
                        "nonce" : "0x00",
                        "r" : "0x6651a4e4a2d49ab225c5e117090284e2a9ee6ccb39d4dd5c215e10814470d13a",
                        "s" : "0x04ce2615da68d17d90a69725743e5836c52983d504aee13fe9fae027aac43be7",
                        "to" : "0xc94f5374fce5edbc8e2a8697c15331677e6ebf0b",
                        "v" : "0x1b",
                        "value" : "0x0a"
                    }
                ],
                "uncleHeaders" : [
                ]
            }
        ],
        "genesisBlockHeader" : {
            "bloom" : "0x00000000000000000000000000000000000000000000000000000000000000000000000000000000000000000000000000000000000000000000000000000000000000000000000000000000000000000000000000000000000000000000000000000000000000000000000000000000000000000000000000000000000000000000000000000000000000000000000000000000000000000000000000000000000000000000000000000000000000000000000000000000000000000000000000000000000000000000000000000000000000000000000000000000000000000000000000000000000000000000000000000000000000000000000000000000",
            "coinbase" : "0xb94f5374fce5edbc8e2a8697c15331677e6ebf0b",
            "difficulty" : "0x020000",
            "extraData" : "0x42",
            "gasLimit" : "0x0f4240",
            "gasUsed" : "0x00",
            "hash" : "0x03ddd6e35f00c4d3f82fd685252f3c456051fcf845e40efc4c375c6aceca58e8",
            "mixHash" : "0x56e81f171bcc55a6ff8345e692c0f86e5b48e01b996cadc001622fb5e363b421",
            "nonce" : "0x0102030405060708",
            "number" : "0x00",
            "parentHash" : "0x0000000000000000000000000000000000000000000000000000000000000000",
            "receiptTrie" : "0x56e81f171bcc55a6ff8345e692c0f86e5b48e01b996cadc001622fb5e363b421",
            "stateRoot" : "0xf0038965aaa3b359d03485c0110f19e4af7db97c9d552504309a2f08c5e5aa28",
            "timestamp" : "0x03b6",
            "transactionsTrie" : "0x56e81f171bcc55a6ff8345e692c0f86e5b48e01b996cadc001622fb5e363b421",
            "uncleHash" : "0x1dcc4de8dec75d7aab85b567b6ccd41ad312451b948a7413f0a142fd40d49347"
        },
        "genesisRLP" : "0xf901faf901f5a00000000000000000000000000000000000000000000000000000000000000000a01dcc4de8dec75d7aab85b567b6ccd41ad312451b948a7413f0a142fd40d4934794b94f5374fce5edbc8e2a8697c15331677e6ebf0ba0f0038965aaa3b359d03485c0110f19e4af7db97c9d552504309a2f08c5e5aa28a056e81f171bcc55a6ff8345e692c0f86e5b48e01b996cadc001622fb5e363b421a056e81f171bcc55a6ff8345e692c0f86e5b48e01b996cadc001622fb5e363b421b90100000000000000000000000000000000000000000000000000000000000000000000000000000000000000000000000000000000000000000000000000000000000000000000000000000000000000000000000000000000000000000000000000000000000000000000000000000000000000000000000000000000000000000000000000000000000000000000000000000000000000000000000000000000000000000000000000000000000000000000000000000000000000000000000000000000000000000000000000000000000000000000000000000000000000000000000000000000000000000000000000000000000000000000000000000000008302000080830f4240808203b642a056e81f171bcc55a6ff8345e692c0f86e5b48e01b996cadc001622fb5e363b421880102030405060708c0c0",
        "lastblockhash" : "0x3aba9b1d99f4b979d2bc49444d92f2884c7a03f69b3298225bf01a579c63748f",
        "network" : "EIP150",
        "postState" : {
            "0x0000000000000000000000000000000000000000" : {
                "balance" : "0x14",
                "code" : "0x6001ff",
                "nonce" : "0x00",
                "storage" : {
                }
            },
            "0xa94f5374fce5edbc8e2a8697c15331677e6ebf0b" : {
                "balance" : "0x0140cf",
                "code" : "",
                "nonce" : "0x01",
                "storage" : {
                }
            },
            "0xb94f5374fce5edbc8e2a8697c15331677e6ebf0b" : {
                "balance" : "0x4563918244f445c7",
                "code" : "",
                "nonce" : "0x00",
                "storage" : {
                }
            }
        },
        "pre" : {
            "0x0000000000000000000000000000000000000000" : {
                "balance" : "0x00",
                "code" : "0x6001ff",
                "nonce" : "0x00",
                "storage" : {
                }
            },
            "0xa94f5374fce5edbc8e2a8697c15331677e6ebf0b" : {
                "balance" : "0x0186a0",
                "code" : "",
                "nonce" : "0x00",
                "storage" : {
                }
            },
            "0xc94f5374fce5edbc8e2a8697c15331677e6ebf0b" : {
                "balance" : "0x0a",
                "code" : "0x6000600060006000600160006000f1506000ff",
                "nonce" : "0x00",
                "storage" : {
                }
            }
        }
    },
    "SuicidesAndInternlCallSuicidesBonusGasAtCall_d0g0v0_EIP158" : {
        "_info" : {
            "comment" : "",
            "filledwith" : "cpp-1.3.0+commit.7b8143d3.Linux.g++",
            "source" : "/src/GenStateTestAsBcTemp/stTransactionTest/SuicidesAndInternlCallSuicidesBonusGasAtCall_d0g0v0Filler.json"
        },
        "blocks" : [
            {
                "blockHeader" : {
                    "bloom" : "0x00000000000000000000000000000000000000000000000000000000000000000000000000000000000000000000000000000000000000000000000000000000000000000000000000000000000000000000000000000000000000000000000000000000000000000000000000000000000000000000000000000000000000000000000000000000000000000000000000000000000000000000000000000000000000000000000000000000000000000000000000000000000000000000000000000000000000000000000000000000000000000000000000000000000000000000000000000000000000000000000000000000000000000000000000000000",
                    "coinbase" : "0xb94f5374fce5edbc8e2a8697c15331677e6ebf0b",
                    "difficulty" : "0x020000",
                    "extraData" : "",
                    "gasLimit" : "0x0f4240",
                    "gasUsed" : "0x45c7",
                    "hash" : "0x8766b3b7b13f98f4103d5986804cd83e243669a71d149a6c2850a7a89ee0d887",
                    "mixHash" : "0xf77e1c5e6457e723d5b70861d918cf0e7c70ece69a7bf5777aeec301df7b22a2",
                    "nonce" : "0x7124cdeb07e7af61",
                    "number" : "0x01",
                    "parentHash" : "0x03ddd6e35f00c4d3f82fd685252f3c456051fcf845e40efc4c375c6aceca58e8",
                    "receiptTrie" : "0xa1c3b5b48ad675e8a801f2b2fc0a94c23020f665dc32a516bbc370d7ca0a3fd5",
                    "stateRoot" : "0xa1944f6b0c38b1c0355cb9422a60ce04f119d4fd4405b132f73d3660c9f09f9a",
                    "timestamp" : "0x03e8",
                    "transactionsTrie" : "0x91d378a6bfb4f116c46a7074c49a214cbf0dd5b9c667118f698e4c449aa86904",
                    "uncleHash" : "0x1dcc4de8dec75d7aab85b567b6ccd41ad312451b948a7413f0a142fd40d49347"
                },
                "rlp" : "0xf9025ef901f7a003ddd6e35f00c4d3f82fd685252f3c456051fcf845e40efc4c375c6aceca58e8a01dcc4de8dec75d7aab85b567b6ccd41ad312451b948a7413f0a142fd40d4934794b94f5374fce5edbc8e2a8697c15331677e6ebf0ba0a1944f6b0c38b1c0355cb9422a60ce04f119d4fd4405b132f73d3660c9f09f9aa091d378a6bfb4f116c46a7074c49a214cbf0dd5b9c667118f698e4c449aa86904a0a1c3b5b48ad675e8a801f2b2fc0a94c23020f665dc32a516bbc370d7ca0a3fd5b90100000000000000000000000000000000000000000000000000000000000000000000000000000000000000000000000000000000000000000000000000000000000000000000000000000000000000000000000000000000000000000000000000000000000000000000000000000000000000000000000000000000000000000000000000000000000000000000000000000000000000000000000000000000000000000000000000000000000000000000000000000000000000000000000000000000000000000000000000000000000000000000000000000000000000000000000000000000000000000000000000000000000000000000000000000000008302000001830f42408245c78203e880a0f77e1c5e6457e723d5b70861d918cf0e7c70ece69a7bf5777aeec301df7b22a2887124cdeb07e7af61f861f85f800182c35094c94f5374fce5edbc8e2a8697c15331677e6ebf0b0a801ba06651a4e4a2d49ab225c5e117090284e2a9ee6ccb39d4dd5c215e10814470d13aa004ce2615da68d17d90a69725743e5836c52983d504aee13fe9fae027aac43be7c0",
                "transactions" : [
                    {
                        "data" : "",
                        "gasLimit" : "0xc350",
                        "gasPrice" : "0x01",
                        "nonce" : "0x00",
                        "r" : "0x6651a4e4a2d49ab225c5e117090284e2a9ee6ccb39d4dd5c215e10814470d13a",
                        "s" : "0x04ce2615da68d17d90a69725743e5836c52983d504aee13fe9fae027aac43be7",
                        "to" : "0xc94f5374fce5edbc8e2a8697c15331677e6ebf0b",
                        "v" : "0x1b",
                        "value" : "0x0a"
                    }
                ],
                "uncleHeaders" : [
                ]
            }
        ],
        "genesisBlockHeader" : {
            "bloom" : "0x00000000000000000000000000000000000000000000000000000000000000000000000000000000000000000000000000000000000000000000000000000000000000000000000000000000000000000000000000000000000000000000000000000000000000000000000000000000000000000000000000000000000000000000000000000000000000000000000000000000000000000000000000000000000000000000000000000000000000000000000000000000000000000000000000000000000000000000000000000000000000000000000000000000000000000000000000000000000000000000000000000000000000000000000000000000",
            "coinbase" : "0xb94f5374fce5edbc8e2a8697c15331677e6ebf0b",
            "difficulty" : "0x020000",
            "extraData" : "0x42",
            "gasLimit" : "0x0f4240",
            "gasUsed" : "0x00",
            "hash" : "0x03ddd6e35f00c4d3f82fd685252f3c456051fcf845e40efc4c375c6aceca58e8",
            "mixHash" : "0x56e81f171bcc55a6ff8345e692c0f86e5b48e01b996cadc001622fb5e363b421",
            "nonce" : "0x0102030405060708",
            "number" : "0x00",
            "parentHash" : "0x0000000000000000000000000000000000000000000000000000000000000000",
            "receiptTrie" : "0x56e81f171bcc55a6ff8345e692c0f86e5b48e01b996cadc001622fb5e363b421",
            "stateRoot" : "0xf0038965aaa3b359d03485c0110f19e4af7db97c9d552504309a2f08c5e5aa28",
            "timestamp" : "0x03b6",
            "transactionsTrie" : "0x56e81f171bcc55a6ff8345e692c0f86e5b48e01b996cadc001622fb5e363b421",
            "uncleHash" : "0x1dcc4de8dec75d7aab85b567b6ccd41ad312451b948a7413f0a142fd40d49347"
        },
        "genesisRLP" : "0xf901faf901f5a00000000000000000000000000000000000000000000000000000000000000000a01dcc4de8dec75d7aab85b567b6ccd41ad312451b948a7413f0a142fd40d4934794b94f5374fce5edbc8e2a8697c15331677e6ebf0ba0f0038965aaa3b359d03485c0110f19e4af7db97c9d552504309a2f08c5e5aa28a056e81f171bcc55a6ff8345e692c0f86e5b48e01b996cadc001622fb5e363b421a056e81f171bcc55a6ff8345e692c0f86e5b48e01b996cadc001622fb5e363b421b90100000000000000000000000000000000000000000000000000000000000000000000000000000000000000000000000000000000000000000000000000000000000000000000000000000000000000000000000000000000000000000000000000000000000000000000000000000000000000000000000000000000000000000000000000000000000000000000000000000000000000000000000000000000000000000000000000000000000000000000000000000000000000000000000000000000000000000000000000000000000000000000000000000000000000000000000000000000000000000000000000000000000000000000000000000000008302000080830f4240808203b642a056e81f171bcc55a6ff8345e692c0f86e5b48e01b996cadc001622fb5e363b421880102030405060708c0c0",
        "lastblockhash" : "0x8766b3b7b13f98f4103d5986804cd83e243669a71d149a6c2850a7a89ee0d887",
        "network" : "EIP158",
        "postState" : {
            "0x0000000000000000000000000000000000000000" : {
                "balance" : "0x14",
                "code" : "0x6001ff",
                "nonce" : "0x00",
                "storage" : {
                }
            },
            "0xa94f5374fce5edbc8e2a8697c15331677e6ebf0b" : {
                "balance" : "0x0140cf",
                "code" : "",
                "nonce" : "0x01",
                "storage" : {
                }
            },
            "0xb94f5374fce5edbc8e2a8697c15331677e6ebf0b" : {
                "balance" : "0x4563918244f445c7",
                "code" : "",
                "nonce" : "0x00",
                "storage" : {
                }
            }
        },
        "pre" : {
            "0x0000000000000000000000000000000000000000" : {
                "balance" : "0x00",
                "code" : "0x6001ff",
                "nonce" : "0x00",
                "storage" : {
                }
            },
            "0xa94f5374fce5edbc8e2a8697c15331677e6ebf0b" : {
                "balance" : "0x0186a0",
                "code" : "",
                "nonce" : "0x00",
                "storage" : {
                }
            },
            "0xc94f5374fce5edbc8e2a8697c15331677e6ebf0b" : {
                "balance" : "0x0a",
                "code" : "0x6000600060006000600160006000f1506000ff",
                "nonce" : "0x00",
                "storage" : {
                }
            }
        }
    },
    "SuicidesAndInternlCallSuicidesBonusGasAtCall_d0g0v0_Frontier" : {
        "_info" : {
            "comment" : "",
            "filledwith" : "cpp-1.3.0+commit.7b8143d3.Linux.g++",
            "source" : "/src/GenStateTestAsBcTemp/stTransactionTest/SuicidesAndInternlCallSuicidesBonusGasAtCall_d0g0v0Filler.json"
        },
        "blocks" : [
            {
                "blockHeader" : {
                    "bloom" : "0x00000000000000000000000000000000000000000000000000000000000000000000000000000000000000000000000000000000000000000000000000000000000000000000000000000000000000000000000000000000000000000000000000000000000000000000000000000000000000000000000000000000000000000000000000000000000000000000000000000000000000000000000000000000000000000000000000000000000000000000000000000000000000000000000000000000000000000000000000000000000000000000000000000000000000000000000000000000000000000000000000000000000000000000000000000000",
                    "coinbase" : "0xb94f5374fce5edbc8e2a8697c15331677e6ebf0b",
                    "difficulty" : "0x020000",
                    "extraData" : "",
                    "gasLimit" : "0x0f4240",
                    "gasUsed" : "0x363d",
                    "hash" : "0x58e3bb65d72beb8f022a1d6d1c978f970427aa2e37ab343446a769312376340f",
                    "mixHash" : "0x4e9fd7bdf544f2af75ca7a9a7928f93802e264f30907107d09577253c418dfde",
                    "nonce" : "0xa5b7d0a7f49a8dd0",
                    "number" : "0x01",
                    "parentHash" : "0x03ddd6e35f00c4d3f82fd685252f3c456051fcf845e40efc4c375c6aceca58e8",
                    "receiptTrie" : "0x767d3a14511e4cc15dd094688da1e7749f427b96a6557ab49eb51f23b6be74dd",
                    "stateRoot" : "0x099ff2d3318bd4966246aa973bd48723c359bf14517c2ebe512fc24dcb2d29d9",
                    "timestamp" : "0x03e8",
                    "transactionsTrie" : "0x91d378a6bfb4f116c46a7074c49a214cbf0dd5b9c667118f698e4c449aa86904",
                    "uncleHash" : "0x1dcc4de8dec75d7aab85b567b6ccd41ad312451b948a7413f0a142fd40d49347"
                },
                "rlp" : "0xf9025ef901f7a003ddd6e35f00c4d3f82fd685252f3c456051fcf845e40efc4c375c6aceca58e8a01dcc4de8dec75d7aab85b567b6ccd41ad312451b948a7413f0a142fd40d4934794b94f5374fce5edbc8e2a8697c15331677e6ebf0ba0099ff2d3318bd4966246aa973bd48723c359bf14517c2ebe512fc24dcb2d29d9a091d378a6bfb4f116c46a7074c49a214cbf0dd5b9c667118f698e4c449aa86904a0767d3a14511e4cc15dd094688da1e7749f427b96a6557ab49eb51f23b6be74ddb90100000000000000000000000000000000000000000000000000000000000000000000000000000000000000000000000000000000000000000000000000000000000000000000000000000000000000000000000000000000000000000000000000000000000000000000000000000000000000000000000000000000000000000000000000000000000000000000000000000000000000000000000000000000000000000000000000000000000000000000000000000000000000000000000000000000000000000000000000000000000000000000000000000000000000000000000000000000000000000000000000000000000000000000000000000000008302000001830f424082363d8203e880a04e9fd7bdf544f2af75ca7a9a7928f93802e264f30907107d09577253c418dfde88a5b7d0a7f49a8dd0f861f85f800182c35094c94f5374fce5edbc8e2a8697c15331677e6ebf0b0a801ba06651a4e4a2d49ab225c5e117090284e2a9ee6ccb39d4dd5c215e10814470d13aa004ce2615da68d17d90a69725743e5836c52983d504aee13fe9fae027aac43be7c0",
                "transactions" : [
                    {
                        "data" : "",
                        "gasLimit" : "0xc350",
                        "gasPrice" : "0x01",
                        "nonce" : "0x00",
                        "r" : "0x6651a4e4a2d49ab225c5e117090284e2a9ee6ccb39d4dd5c215e10814470d13a",
                        "s" : "0x04ce2615da68d17d90a69725743e5836c52983d504aee13fe9fae027aac43be7",
                        "to" : "0xc94f5374fce5edbc8e2a8697c15331677e6ebf0b",
                        "v" : "0x1b",
                        "value" : "0x0a"
                    }
                ],
                "uncleHeaders" : [
                ]
            }
        ],
        "genesisBlockHeader" : {
            "bloom" : "0x00000000000000000000000000000000000000000000000000000000000000000000000000000000000000000000000000000000000000000000000000000000000000000000000000000000000000000000000000000000000000000000000000000000000000000000000000000000000000000000000000000000000000000000000000000000000000000000000000000000000000000000000000000000000000000000000000000000000000000000000000000000000000000000000000000000000000000000000000000000000000000000000000000000000000000000000000000000000000000000000000000000000000000000000000000000",
            "coinbase" : "0xb94f5374fce5edbc8e2a8697c15331677e6ebf0b",
            "difficulty" : "0x020000",
            "extraData" : "0x42",
            "gasLimit" : "0x0f4240",
            "gasUsed" : "0x00",
            "hash" : "0x03ddd6e35f00c4d3f82fd685252f3c456051fcf845e40efc4c375c6aceca58e8",
            "mixHash" : "0x56e81f171bcc55a6ff8345e692c0f86e5b48e01b996cadc001622fb5e363b421",
            "nonce" : "0x0102030405060708",
            "number" : "0x00",
            "parentHash" : "0x0000000000000000000000000000000000000000000000000000000000000000",
            "receiptTrie" : "0x56e81f171bcc55a6ff8345e692c0f86e5b48e01b996cadc001622fb5e363b421",
            "stateRoot" : "0xf0038965aaa3b359d03485c0110f19e4af7db97c9d552504309a2f08c5e5aa28",
            "timestamp" : "0x03b6",
            "transactionsTrie" : "0x56e81f171bcc55a6ff8345e692c0f86e5b48e01b996cadc001622fb5e363b421",
            "uncleHash" : "0x1dcc4de8dec75d7aab85b567b6ccd41ad312451b948a7413f0a142fd40d49347"
        },
        "genesisRLP" : "0xf901faf901f5a00000000000000000000000000000000000000000000000000000000000000000a01dcc4de8dec75d7aab85b567b6ccd41ad312451b948a7413f0a142fd40d4934794b94f5374fce5edbc8e2a8697c15331677e6ebf0ba0f0038965aaa3b359d03485c0110f19e4af7db97c9d552504309a2f08c5e5aa28a056e81f171bcc55a6ff8345e692c0f86e5b48e01b996cadc001622fb5e363b421a056e81f171bcc55a6ff8345e692c0f86e5b48e01b996cadc001622fb5e363b421b90100000000000000000000000000000000000000000000000000000000000000000000000000000000000000000000000000000000000000000000000000000000000000000000000000000000000000000000000000000000000000000000000000000000000000000000000000000000000000000000000000000000000000000000000000000000000000000000000000000000000000000000000000000000000000000000000000000000000000000000000000000000000000000000000000000000000000000000000000000000000000000000000000000000000000000000000000000000000000000000000000000000000000000000000000000000008302000080830f4240808203b642a056e81f171bcc55a6ff8345e692c0f86e5b48e01b996cadc001622fb5e363b421880102030405060708c0c0",
        "lastblockhash" : "0x58e3bb65d72beb8f022a1d6d1c978f970427aa2e37ab343446a769312376340f",
        "network" : "Frontier",
        "postState" : {
            "0x0000000000000000000000000000000000000001" : {
                "balance" : "0x01",
                "code" : "",
                "nonce" : "0x00",
                "storage" : {
                }
            },
            "0xa94f5374fce5edbc8e2a8697c15331677e6ebf0b" : {
                "balance" : "0x015059",
                "code" : "",
                "nonce" : "0x01",
                "storage" : {
                }
            },
            "0xb94f5374fce5edbc8e2a8697c15331677e6ebf0b" : {
                "balance" : "0x4563918244f4363d",
                "code" : "",
                "nonce" : "0x00",
                "storage" : {
                }
            }
        },
        "pre" : {
            "0x0000000000000000000000000000000000000000" : {
                "balance" : "0x00",
                "code" : "0x6001ff",
                "nonce" : "0x00",
                "storage" : {
                }
            },
            "0xa94f5374fce5edbc8e2a8697c15331677e6ebf0b" : {
                "balance" : "0x0186a0",
                "code" : "",
                "nonce" : "0x00",
                "storage" : {
                }
            },
            "0xc94f5374fce5edbc8e2a8697c15331677e6ebf0b" : {
                "balance" : "0x0a",
                "code" : "0x6000600060006000600160006000f1506000ff",
                "nonce" : "0x00",
                "storage" : {
                }
            }
        }
    },
    "SuicidesAndInternlCallSuicidesBonusGasAtCall_d0g0v0_Homestead" : {
        "_info" : {
            "comment" : "",
            "filledwith" : "cpp-1.3.0+commit.7b8143d3.Linux.g++",
            "source" : "/src/GenStateTestAsBcTemp/stTransactionTest/SuicidesAndInternlCallSuicidesBonusGasAtCall_d0g0v0Filler.json"
        },
        "blocks" : [
            {
                "blockHeader" : {
                    "bloom" : "0x00000000000000000000000000000000000000000000000000000000000000000000000000000000000000000000000000000000000000000000000000000000000000000000000000000000000000000000000000000000000000000000000000000000000000000000000000000000000000000000000000000000000000000000000000000000000000000000000000000000000000000000000000000000000000000000000000000000000000000000000000000000000000000000000000000000000000000000000000000000000000000000000000000000000000000000000000000000000000000000000000000000000000000000000000000000",
                    "coinbase" : "0xb94f5374fce5edbc8e2a8697c15331677e6ebf0b",
                    "difficulty" : "0x020000",
                    "extraData" : "",
                    "gasLimit" : "0x0f4240",
                    "gasUsed" : "0x363d",
                    "hash" : "0x22aaba05c604d9c66cd6063f54e38a89caa16febe208c89f256c6152d838f7e4",
                    "mixHash" : "0xae7fe365b7aebf1183483d0a80cc48a332dc2ce4c810c2bafeb3237097baeddc",
                    "nonce" : "0xab7e5e5b7b357fe4",
                    "number" : "0x01",
                    "parentHash" : "0x03ddd6e35f00c4d3f82fd685252f3c456051fcf845e40efc4c375c6aceca58e8",
                    "receiptTrie" : "0x767d3a14511e4cc15dd094688da1e7749f427b96a6557ab49eb51f23b6be74dd",
                    "stateRoot" : "0x099ff2d3318bd4966246aa973bd48723c359bf14517c2ebe512fc24dcb2d29d9",
                    "timestamp" : "0x03e8",
                    "transactionsTrie" : "0x91d378a6bfb4f116c46a7074c49a214cbf0dd5b9c667118f698e4c449aa86904",
                    "uncleHash" : "0x1dcc4de8dec75d7aab85b567b6ccd41ad312451b948a7413f0a142fd40d49347"
                },
                "rlp" : "0xf9025ef901f7a003ddd6e35f00c4d3f82fd685252f3c456051fcf845e40efc4c375c6aceca58e8a01dcc4de8dec75d7aab85b567b6ccd41ad312451b948a7413f0a142fd40d4934794b94f5374fce5edbc8e2a8697c15331677e6ebf0ba0099ff2d3318bd4966246aa973bd48723c359bf14517c2ebe512fc24dcb2d29d9a091d378a6bfb4f116c46a7074c49a214cbf0dd5b9c667118f698e4c449aa86904a0767d3a14511e4cc15dd094688da1e7749f427b96a6557ab49eb51f23b6be74ddb90100000000000000000000000000000000000000000000000000000000000000000000000000000000000000000000000000000000000000000000000000000000000000000000000000000000000000000000000000000000000000000000000000000000000000000000000000000000000000000000000000000000000000000000000000000000000000000000000000000000000000000000000000000000000000000000000000000000000000000000000000000000000000000000000000000000000000000000000000000000000000000000000000000000000000000000000000000000000000000000000000000000000000000000000000000000008302000001830f424082363d8203e880a0ae7fe365b7aebf1183483d0a80cc48a332dc2ce4c810c2bafeb3237097baeddc88ab7e5e5b7b357fe4f861f85f800182c35094c94f5374fce5edbc8e2a8697c15331677e6ebf0b0a801ba06651a4e4a2d49ab225c5e117090284e2a9ee6ccb39d4dd5c215e10814470d13aa004ce2615da68d17d90a69725743e5836c52983d504aee13fe9fae027aac43be7c0",
                "transactions" : [
                    {
                        "data" : "",
                        "gasLimit" : "0xc350",
                        "gasPrice" : "0x01",
                        "nonce" : "0x00",
                        "r" : "0x6651a4e4a2d49ab225c5e117090284e2a9ee6ccb39d4dd5c215e10814470d13a",
                        "s" : "0x04ce2615da68d17d90a69725743e5836c52983d504aee13fe9fae027aac43be7",
                        "to" : "0xc94f5374fce5edbc8e2a8697c15331677e6ebf0b",
                        "v" : "0x1b",
                        "value" : "0x0a"
                    }
                ],
                "uncleHeaders" : [
                ]
            }
        ],
        "genesisBlockHeader" : {
            "bloom" : "0x00000000000000000000000000000000000000000000000000000000000000000000000000000000000000000000000000000000000000000000000000000000000000000000000000000000000000000000000000000000000000000000000000000000000000000000000000000000000000000000000000000000000000000000000000000000000000000000000000000000000000000000000000000000000000000000000000000000000000000000000000000000000000000000000000000000000000000000000000000000000000000000000000000000000000000000000000000000000000000000000000000000000000000000000000000000",
            "coinbase" : "0xb94f5374fce5edbc8e2a8697c15331677e6ebf0b",
            "difficulty" : "0x020000",
            "extraData" : "0x42",
            "gasLimit" : "0x0f4240",
            "gasUsed" : "0x00",
            "hash" : "0x03ddd6e35f00c4d3f82fd685252f3c456051fcf845e40efc4c375c6aceca58e8",
            "mixHash" : "0x56e81f171bcc55a6ff8345e692c0f86e5b48e01b996cadc001622fb5e363b421",
            "nonce" : "0x0102030405060708",
            "number" : "0x00",
            "parentHash" : "0x0000000000000000000000000000000000000000000000000000000000000000",
            "receiptTrie" : "0x56e81f171bcc55a6ff8345e692c0f86e5b48e01b996cadc001622fb5e363b421",
            "stateRoot" : "0xf0038965aaa3b359d03485c0110f19e4af7db97c9d552504309a2f08c5e5aa28",
            "timestamp" : "0x03b6",
            "transactionsTrie" : "0x56e81f171bcc55a6ff8345e692c0f86e5b48e01b996cadc001622fb5e363b421",
            "uncleHash" : "0x1dcc4de8dec75d7aab85b567b6ccd41ad312451b948a7413f0a142fd40d49347"
        },
        "genesisRLP" : "0xf901faf901f5a00000000000000000000000000000000000000000000000000000000000000000a01dcc4de8dec75d7aab85b567b6ccd41ad312451b948a7413f0a142fd40d4934794b94f5374fce5edbc8e2a8697c15331677e6ebf0ba0f0038965aaa3b359d03485c0110f19e4af7db97c9d552504309a2f08c5e5aa28a056e81f171bcc55a6ff8345e692c0f86e5b48e01b996cadc001622fb5e363b421a056e81f171bcc55a6ff8345e692c0f86e5b48e01b996cadc001622fb5e363b421b90100000000000000000000000000000000000000000000000000000000000000000000000000000000000000000000000000000000000000000000000000000000000000000000000000000000000000000000000000000000000000000000000000000000000000000000000000000000000000000000000000000000000000000000000000000000000000000000000000000000000000000000000000000000000000000000000000000000000000000000000000000000000000000000000000000000000000000000000000000000000000000000000000000000000000000000000000000000000000000000000000000000000000000000000000000000008302000080830f4240808203b642a056e81f171bcc55a6ff8345e692c0f86e5b48e01b996cadc001622fb5e363b421880102030405060708c0c0",
        "lastblockhash" : "0x22aaba05c604d9c66cd6063f54e38a89caa16febe208c89f256c6152d838f7e4",
        "network" : "Homestead",
        "postState" : {
            "0x0000000000000000000000000000000000000001" : {
                "balance" : "0x01",
                "code" : "",
                "nonce" : "0x00",
                "storage" : {
                }
            },
            "0xa94f5374fce5edbc8e2a8697c15331677e6ebf0b" : {
                "balance" : "0x015059",
                "code" : "",
                "nonce" : "0x01",
                "storage" : {
                }
            },
            "0xb94f5374fce5edbc8e2a8697c15331677e6ebf0b" : {
                "balance" : "0x4563918244f4363d",
                "code" : "",
                "nonce" : "0x00",
                "storage" : {
                }
            }
        },
        "pre" : {
            "0x0000000000000000000000000000000000000000" : {
                "balance" : "0x00",
                "code" : "0x6001ff",
                "nonce" : "0x00",
                "storage" : {
                }
            },
            "0xa94f5374fce5edbc8e2a8697c15331677e6ebf0b" : {
                "balance" : "0x0186a0",
                "code" : "",
                "nonce" : "0x00",
                "storage" : {
                }
            },
            "0xc94f5374fce5edbc8e2a8697c15331677e6ebf0b" : {
                "balance" : "0x0a",
                "code" : "0x6000600060006000600160006000f1506000ff",
                "nonce" : "0x00",
                "storage" : {
                }
            }
        }
    }
}