{
    "SuicidesMixingCoinbase_d0g1v0_Byzantium" : {
        "_info" : {
            "comment" : "",
            "filledwith" : "cpp-1.3.0+commit.7b8143d3.Linux.g++",
            "source" : "/src/GenStateTestAsBcTemp/stTransactionTest/SuicidesMixingCoinbase_d0g1v0Filler.json"
        },
        "blocks" : [
            {
                "blockHeader" : {
                    "bloom" : "0x00000000000000000000000000000000000000000000000000000000000000000000000000000000000000000000000000000000000000000000000000000000000000000000000000000000000000000000000000000000000000000000000000000000000000000000000000000000000000000000000000000000000000000000000000000000000000000000000000000000000000000000000000000000000000000000000000000000000000000000000000000000000000000000000000000000000000000000000000000000000000000000000000000000000000000000000000000000000000000000000000000000000000000000000000000000",
                    "coinbase" : "0xb94f5374fce5edbc8e2a8697c15331677e6ebf0b",
                    "difficulty" : "0x020000",
                    "extraData" : "",
                    "gasLimit" : "0x0f4240",
                    "gasUsed" : "0x697b",
                    "hash" : "0xaec7e4c363bccd2629010061b5ecdfaca52703f153cb1cee57a10ff5981323c3",
                    "mixHash" : "0xf0b7885a5b5f37adee101c8f6bd6c712906bb9803349fe4c7b2aacfb326d0e83",
                    "nonce" : "0xc52e98a421a32af3",
                    "number" : "0x01",
                    "parentHash" : "0x872cfc663d77a6fa8be53ab283ab744d8bf39fb311e46bf67a045a638d2ccdd0",
                    "receiptTrie" : "0x11b9a3af527495821ab161c2237f35f6a032d0dc5e9ee404f60ba12f9b7c26a9",
                    "stateRoot" : "0x274751e6928363906971d440bdd1ff6983b055e7148eb0a7680a326d76114035",
                    "timestamp" : "0x03e8",
                    "transactionsTrie" : "0xcba46c8aefada3d051c01ad95ceab22383b9bb97da8b83a2bc0bb8e23dc572ce",
                    "uncleHash" : "0x1dcc4de8dec75d7aab85b567b6ccd41ad312451b948a7413f0a142fd40d49347"
                },
                "rlp" : "0xf9025ef901f7a0872cfc663d77a6fa8be53ab283ab744d8bf39fb311e46bf67a045a638d2ccdd0a01dcc4de8dec75d7aab85b567b6ccd41ad312451b948a7413f0a142fd40d4934794b94f5374fce5edbc8e2a8697c15331677e6ebf0ba0274751e6928363906971d440bdd1ff6983b055e7148eb0a7680a326d76114035a0cba46c8aefada3d051c01ad95ceab22383b9bb97da8b83a2bc0bb8e23dc572cea011b9a3af527495821ab161c2237f35f6a032d0dc5e9ee404f60ba12f9b7c26a9b90100000000000000000000000000000000000000000000000000000000000000000000000000000000000000000000000000000000000000000000000000000000000000000000000000000000000000000000000000000000000000000000000000000000000000000000000000000000000000000000000000000000000000000000000000000000000000000000000000000000000000000000000000000000000000000000000000000000000000000000000000000000000000000000000000000000000000000000000000000000000000000000000000000000000000000000000000000000000000000000000000000000000000000000000000000000008302000001830f424082697b8203e880a0f0b7885a5b5f37adee101c8f6bd6c712906bb9803349fe4c7b2aacfb326d0e8388c52e98a421a32af3f861f85f800182ea6094b94f5374fce5edbc8e2a8697c15331677e6ebf0b0a801ca0179021729fddd757a7ffe18dcd36c403c485ef764408ce5aff33b3332a3068e2a074073a3531dd4c6cd60d2b13e5c0424eac0e961f973f373cea6b1dc1cefdf324c0",
                "transactions" : [
                    {
                        "data" : "",
                        "gasLimit" : "0xea60",
                        "gasPrice" : "0x01",
                        "nonce" : "0x00",
                        "r" : "0x179021729fddd757a7ffe18dcd36c403c485ef764408ce5aff33b3332a3068e2",
                        "s" : "0x74073a3531dd4c6cd60d2b13e5c0424eac0e961f973f373cea6b1dc1cefdf324",
                        "to" : "0xb94f5374fce5edbc8e2a8697c15331677e6ebf0b",
                        "v" : "0x1c",
                        "value" : "0x0a"
                    }
                ],
                "uncleHeaders" : [
                ]
            }
        ],
        "genesisBlockHeader" : {
            "bloom" : "0x00000000000000000000000000000000000000000000000000000000000000000000000000000000000000000000000000000000000000000000000000000000000000000000000000000000000000000000000000000000000000000000000000000000000000000000000000000000000000000000000000000000000000000000000000000000000000000000000000000000000000000000000000000000000000000000000000000000000000000000000000000000000000000000000000000000000000000000000000000000000000000000000000000000000000000000000000000000000000000000000000000000000000000000000000000000",
            "coinbase" : "0xb94f5374fce5edbc8e2a8697c15331677e6ebf0b",
            "difficulty" : "0x020000",
            "extraData" : "0x42",
            "gasLimit" : "0x0f4240",
            "gasUsed" : "0x00",
            "hash" : "0x872cfc663d77a6fa8be53ab283ab744d8bf39fb311e46bf67a045a638d2ccdd0",
            "mixHash" : "0x56e81f171bcc55a6ff8345e692c0f86e5b48e01b996cadc001622fb5e363b421",
            "nonce" : "0x0102030405060708",
            "number" : "0x00",
            "parentHash" : "0x0000000000000000000000000000000000000000000000000000000000000000",
            "receiptTrie" : "0x56e81f171bcc55a6ff8345e692c0f86e5b48e01b996cadc001622fb5e363b421",
            "stateRoot" : "0x9efcaf6c528edf3293a9ad96dcc231e67dc4effe34ad5251e2fd71048e00365b",
            "timestamp" : "0x03b6",
            "transactionsTrie" : "0x56e81f171bcc55a6ff8345e692c0f86e5b48e01b996cadc001622fb5e363b421",
            "uncleHash" : "0x1dcc4de8dec75d7aab85b567b6ccd41ad312451b948a7413f0a142fd40d49347"
        },
        "genesisRLP" : "0xf901faf901f5a00000000000000000000000000000000000000000000000000000000000000000a01dcc4de8dec75d7aab85b567b6ccd41ad312451b948a7413f0a142fd40d4934794b94f5374fce5edbc8e2a8697c15331677e6ebf0ba09efcaf6c528edf3293a9ad96dcc231e67dc4effe34ad5251e2fd71048e00365ba056e81f171bcc55a6ff8345e692c0f86e5b48e01b996cadc001622fb5e363b421a056e81f171bcc55a6ff8345e692c0f86e5b48e01b996cadc001622fb5e363b421b90100000000000000000000000000000000000000000000000000000000000000000000000000000000000000000000000000000000000000000000000000000000000000000000000000000000000000000000000000000000000000000000000000000000000000000000000000000000000000000000000000000000000000000000000000000000000000000000000000000000000000000000000000000000000000000000000000000000000000000000000000000000000000000000000000000000000000000000000000000000000000000000000000000000000000000000000000000000000000000000000000000000000000000000000000000000008302000080830f4240808203b642a056e81f171bcc55a6ff8345e692c0f86e5b48e01b996cadc001622fb5e363b421880102030405060708c0c0",
        "lastblockhash" : "0xaec7e4c363bccd2629010061b5ecdfaca52703f153cb1cee57a10ff5981323c3",
        "network" : "Byzantium",
        "postState" : {
            "0xa94f5374fce5edbc8e2a8697c15331677e6ebf0b" : {
                "balance" : "0x02f1db",
                "code" : "",
                "nonce" : "0x01",
                "storage" : {
                }
            },
            "0xb94f5374fce5edbc8e2a8697c15331677e6ebf0b" : {
                "balance" : "0x29a2241af62c0000",
                "code" : "",
                "nonce" : "0x00",
                "storage" : {
                }
            },
            "0xc94f5374fce5edbc8e2a8697c15331677e6ebf0b" : {
                "balance" : "0x03f2",
                "code" : "",
                "nonce" : "0x00",
                "storage" : {
                }
            }
        },
        "pre" : {
            "0xa94f5374fce5edbc8e2a8697c15331677e6ebf0b" : {
                "balance" : "0x035b60",
                "code" : "",
                "nonce" : "0x00",
                "storage" : {
                }
            },
            "0xb94f5374fce5edbc8e2a8697c15331677e6ebf0b" : {
                "balance" : "0x03e8",
                "code" : "0x73c94f5374fce5edbc8e2a8697c15331677e6ebf0bff",
                "nonce" : "0x00",
                "storage" : {
                }
            }
        }
    },
    "SuicidesMixingCoinbase_d0g1v0_Constantinople" : {
        "_info" : {
            "comment" : "",
            "filledwith" : "cpp-1.3.0+commit.7b8143d3.Linux.g++",
            "source" : "/src/GenStateTestAsBcTemp/stTransactionTest/SuicidesMixingCoinbase_d0g1v0Filler.json"
        },
        "blocks" : [
            {
                "blockHeader" : {
                    "bloom" : "0x00000000000000000000000000000000000000000000000000000000000000000000000000000000000000000000000000000000000000000000000000000000000000000000000000000000000000000000000000000000000000000000000000000000000000000000000000000000000000000000000000000000000000000000000000000000000000000000000000000000000000000000000000000000000000000000000000000000000000000000000000000000000000000000000000000000000000000000000000000000000000000000000000000000000000000000000000000000000000000000000000000000000000000000000000000000",
                    "coinbase" : "0xb94f5374fce5edbc8e2a8697c15331677e6ebf0b",
                    "difficulty" : "0x020000",
                    "extraData" : "",
                    "gasLimit" : "0x0f4240",
                    "gasUsed" : "0x697b",
                    "hash" : "0xa7c549df7b6d11dfa33a0d989cb1dc41c0f1dfcc9280cc064bd978bcc30c62d9",
                    "mixHash" : "0xb50570d5d84a0f6209e7f1f7c51da67dbf20722159f3087e026a4264243331ea",
                    "nonce" : "0xacab7dbdd0ccfd33",
                    "number" : "0x01",
                    "parentHash" : "0x872cfc663d77a6fa8be53ab283ab744d8bf39fb311e46bf67a045a638d2ccdd0",
                    "receiptTrie" : "0x11b9a3af527495821ab161c2237f35f6a032d0dc5e9ee404f60ba12f9b7c26a9",
                    "stateRoot" : "0xa4897d6046432029c02a348a8dc091d2b0aa6ca0d89b3032a9191b8f45372f8f",
                    "timestamp" : "0x03e8",
                    "transactionsTrie" : "0xcba46c8aefada3d051c01ad95ceab22383b9bb97da8b83a2bc0bb8e23dc572ce",
                    "uncleHash" : "0x1dcc4de8dec75d7aab85b567b6ccd41ad312451b948a7413f0a142fd40d49347"
                },
                "rlp" : "0xf9025ef901f7a0872cfc663d77a6fa8be53ab283ab744d8bf39fb311e46bf67a045a638d2ccdd0a01dcc4de8dec75d7aab85b567b6ccd41ad312451b948a7413f0a142fd40d4934794b94f5374fce5edbc8e2a8697c15331677e6ebf0ba0a4897d6046432029c02a348a8dc091d2b0aa6ca0d89b3032a9191b8f45372f8fa0cba46c8aefada3d051c01ad95ceab22383b9bb97da8b83a2bc0bb8e23dc572cea011b9a3af527495821ab161c2237f35f6a032d0dc5e9ee404f60ba12f9b7c26a9b90100000000000000000000000000000000000000000000000000000000000000000000000000000000000000000000000000000000000000000000000000000000000000000000000000000000000000000000000000000000000000000000000000000000000000000000000000000000000000000000000000000000000000000000000000000000000000000000000000000000000000000000000000000000000000000000000000000000000000000000000000000000000000000000000000000000000000000000000000000000000000000000000000000000000000000000000000000000000000000000000000000000000000000000000000000000008302000001830f424082697b8203e880a0b50570d5d84a0f6209e7f1f7c51da67dbf20722159f3087e026a4264243331ea88acab7dbdd0ccfd33f861f85f800182ea6094b94f5374fce5edbc8e2a8697c15331677e6ebf0b0a801ca0179021729fddd757a7ffe18dcd36c403c485ef764408ce5aff33b3332a3068e2a074073a3531dd4c6cd60d2b13e5c0424eac0e961f973f373cea6b1dc1cefdf324c0",
                "transactions" : [
                    {
                        "data" : "",
                        "gasLimit" : "0xea60",
                        "gasPrice" : "0x01",
                        "nonce" : "0x00",
                        "r" : "0x179021729fddd757a7ffe18dcd36c403c485ef764408ce5aff33b3332a3068e2",
                        "s" : "0x74073a3531dd4c6cd60d2b13e5c0424eac0e961f973f373cea6b1dc1cefdf324",
                        "to" : "0xb94f5374fce5edbc8e2a8697c15331677e6ebf0b",
                        "v" : "0x1c",
                        "value" : "0x0a"
                    }
                ],
                "uncleHeaders" : [
                ]
            }
        ],
        "genesisBlockHeader" : {
            "bloom" : "0x00000000000000000000000000000000000000000000000000000000000000000000000000000000000000000000000000000000000000000000000000000000000000000000000000000000000000000000000000000000000000000000000000000000000000000000000000000000000000000000000000000000000000000000000000000000000000000000000000000000000000000000000000000000000000000000000000000000000000000000000000000000000000000000000000000000000000000000000000000000000000000000000000000000000000000000000000000000000000000000000000000000000000000000000000000000",
            "coinbase" : "0xb94f5374fce5edbc8e2a8697c15331677e6ebf0b",
            "difficulty" : "0x020000",
            "extraData" : "0x42",
            "gasLimit" : "0x0f4240",
            "gasUsed" : "0x00",
            "hash" : "0x872cfc663d77a6fa8be53ab283ab744d8bf39fb311e46bf67a045a638d2ccdd0",
            "mixHash" : "0x56e81f171bcc55a6ff8345e692c0f86e5b48e01b996cadc001622fb5e363b421",
            "nonce" : "0x0102030405060708",
            "number" : "0x00",
            "parentHash" : "0x0000000000000000000000000000000000000000000000000000000000000000",
            "receiptTrie" : "0x56e81f171bcc55a6ff8345e692c0f86e5b48e01b996cadc001622fb5e363b421",
            "stateRoot" : "0x9efcaf6c528edf3293a9ad96dcc231e67dc4effe34ad5251e2fd71048e00365b",
            "timestamp" : "0x03b6",
            "transactionsTrie" : "0x56e81f171bcc55a6ff8345e692c0f86e5b48e01b996cadc001622fb5e363b421",
            "uncleHash" : "0x1dcc4de8dec75d7aab85b567b6ccd41ad312451b948a7413f0a142fd40d49347"
        },
        "genesisRLP" : "0xf901faf901f5a00000000000000000000000000000000000000000000000000000000000000000a01dcc4de8dec75d7aab85b567b6ccd41ad312451b948a7413f0a142fd40d4934794b94f5374fce5edbc8e2a8697c15331677e6ebf0ba09efcaf6c528edf3293a9ad96dcc231e67dc4effe34ad5251e2fd71048e00365ba056e81f171bcc55a6ff8345e692c0f86e5b48e01b996cadc001622fb5e363b421a056e81f171bcc55a6ff8345e692c0f86e5b48e01b996cadc001622fb5e363b421b90100000000000000000000000000000000000000000000000000000000000000000000000000000000000000000000000000000000000000000000000000000000000000000000000000000000000000000000000000000000000000000000000000000000000000000000000000000000000000000000000000000000000000000000000000000000000000000000000000000000000000000000000000000000000000000000000000000000000000000000000000000000000000000000000000000000000000000000000000000000000000000000000000000000000000000000000000000000000000000000000000000000000000000000000000000000008302000080830f4240808203b642a056e81f171bcc55a6ff8345e692c0f86e5b48e01b996cadc001622fb5e363b421880102030405060708c0c0",
        "lastblockhash" : "0xa7c549df7b6d11dfa33a0d989cb1dc41c0f1dfcc9280cc064bd978bcc30c62d9",
        "network" : "Constantinople",
        "postState" : {
            "0x00000000000000000000000000000000000000f0" : {
                "balance" : "0x00",
                "code" : "",
                "nonce" : "0x00",
                "storage" : {
                }
            },
            "0xa94f5374fce5edbc8e2a8697c15331677e6ebf0b" : {
                "balance" : "0x02f1db",
                "code" : "",
                "nonce" : "0x01",
                "storage" : {
                }
            },
            "0xb94f5374fce5edbc8e2a8697c15331677e6ebf0b" : {
                "balance" : "0x29a2241af62c0000",
                "code" : "",
                "nonce" : "0x00",
                "storage" : {
                }
            },
            "0xc94f5374fce5edbc8e2a8697c15331677e6ebf0b" : {
                "balance" : "0x03f2",
                "code" : "",
                "nonce" : "0x00",
                "storage" : {
                }
            }
        },
        "pre" : {
            "0xa94f5374fce5edbc8e2a8697c15331677e6ebf0b" : {
                "balance" : "0x035b60",
                "code" : "",
                "nonce" : "0x00",
                "storage" : {
                }
            },
            "0xb94f5374fce5edbc8e2a8697c15331677e6ebf0b" : {
                "balance" : "0x03e8",
                "code" : "0x73c94f5374fce5edbc8e2a8697c15331677e6ebf0bff",
                "nonce" : "0x00",
                "storage" : {
                }
            }
        }
    },
    "SuicidesMixingCoinbase_d0g1v0_EIP150" : {
        "_info" : {
            "comment" : "",
            "filledwith" : "cpp-1.3.0+commit.7b8143d3.Linux.g++",
            "source" : "/src/GenStateTestAsBcTemp/stTransactionTest/SuicidesMixingCoinbase_d0g1v0Filler.json"
        },
        "blocks" : [
            {
                "blockHeader" : {
                    "bloom" : "0x00000000000000000000000000000000000000000000000000000000000000000000000000000000000000000000000000000000000000000000000000000000000000000000000000000000000000000000000000000000000000000000000000000000000000000000000000000000000000000000000000000000000000000000000000000000000000000000000000000000000000000000000000000000000000000000000000000000000000000000000000000000000000000000000000000000000000000000000000000000000000000000000000000000000000000000000000000000000000000000000000000000000000000000000000000000",
                    "coinbase" : "0xb94f5374fce5edbc8e2a8697c15331677e6ebf0b",
                    "difficulty" : "0x020000",
                    "extraData" : "",
                    "gasLimit" : "0x0f4240",
                    "gasUsed" : "0x697b",
                    "hash" : "0xbc4bcdfbe3c7878ecd473f51df0ff9f233c329edad36c916a5061655488661ba",
                    "mixHash" : "0x9709b1dccdd09022bcc3d755abab50b2ff339ef521bb7c0e9ff4a00086e9d7c6",
                    "nonce" : "0xecfffa69f86920d9",
                    "number" : "0x01",
                    "parentHash" : "0x872cfc663d77a6fa8be53ab283ab744d8bf39fb311e46bf67a045a638d2ccdd0",
                    "receiptTrie" : "0x9ae0b3ac2f9a19fe2ea6d104b6dca27eed96a75827fd83ee77a1e45094f92e47",
                    "stateRoot" : "0x7fda4d41c53db74a4b27399ae948a2bce1388dd99591d9bcbffe32f08fc4559b",
                    "timestamp" : "0x03e8",
                    "transactionsTrie" : "0xcba46c8aefada3d051c01ad95ceab22383b9bb97da8b83a2bc0bb8e23dc572ce",
                    "uncleHash" : "0x1dcc4de8dec75d7aab85b567b6ccd41ad312451b948a7413f0a142fd40d49347"
                },
                "rlp" : "0xf9025ef901f7a0872cfc663d77a6fa8be53ab283ab744d8bf39fb311e46bf67a045a638d2ccdd0a01dcc4de8dec75d7aab85b567b6ccd41ad312451b948a7413f0a142fd40d4934794b94f5374fce5edbc8e2a8697c15331677e6ebf0ba07fda4d41c53db74a4b27399ae948a2bce1388dd99591d9bcbffe32f08fc4559ba0cba46c8aefada3d051c01ad95ceab22383b9bb97da8b83a2bc0bb8e23dc572cea09ae0b3ac2f9a19fe2ea6d104b6dca27eed96a75827fd83ee77a1e45094f92e47b90100000000000000000000000000000000000000000000000000000000000000000000000000000000000000000000000000000000000000000000000000000000000000000000000000000000000000000000000000000000000000000000000000000000000000000000000000000000000000000000000000000000000000000000000000000000000000000000000000000000000000000000000000000000000000000000000000000000000000000000000000000000000000000000000000000000000000000000000000000000000000000000000000000000000000000000000000000000000000000000000000000000000000000000000000000000008302000001830f424082697b8203e880a09709b1dccdd09022bcc3d755abab50b2ff339ef521bb7c0e9ff4a00086e9d7c688ecfffa69f86920d9f861f85f800182ea6094b94f5374fce5edbc8e2a8697c15331677e6ebf0b0a801ca0179021729fddd757a7ffe18dcd36c403c485ef764408ce5aff33b3332a3068e2a074073a3531dd4c6cd60d2b13e5c0424eac0e961f973f373cea6b1dc1cefdf324c0",
                "transactions" : [
                    {
                        "data" : "",
                        "gasLimit" : "0xea60",
                        "gasPrice" : "0x01",
                        "nonce" : "0x00",
                        "r" : "0x179021729fddd757a7ffe18dcd36c403c485ef764408ce5aff33b3332a3068e2",
                        "s" : "0x74073a3531dd4c6cd60d2b13e5c0424eac0e961f973f373cea6b1dc1cefdf324",
                        "to" : "0xb94f5374fce5edbc8e2a8697c15331677e6ebf0b",
                        "v" : "0x1c",
                        "value" : "0x0a"
                    }
                ],
                "uncleHeaders" : [
                ]
            }
        ],
        "genesisBlockHeader" : {
            "bloom" : "0x00000000000000000000000000000000000000000000000000000000000000000000000000000000000000000000000000000000000000000000000000000000000000000000000000000000000000000000000000000000000000000000000000000000000000000000000000000000000000000000000000000000000000000000000000000000000000000000000000000000000000000000000000000000000000000000000000000000000000000000000000000000000000000000000000000000000000000000000000000000000000000000000000000000000000000000000000000000000000000000000000000000000000000000000000000000",
            "coinbase" : "0xb94f5374fce5edbc8e2a8697c15331677e6ebf0b",
            "difficulty" : "0x020000",
            "extraData" : "0x42",
            "gasLimit" : "0x0f4240",
            "gasUsed" : "0x00",
            "hash" : "0x872cfc663d77a6fa8be53ab283ab744d8bf39fb311e46bf67a045a638d2ccdd0",
            "mixHash" : "0x56e81f171bcc55a6ff8345e692c0f86e5b48e01b996cadc001622fb5e363b421",
            "nonce" : "0x0102030405060708",
            "number" : "0x00",
            "parentHash" : "0x0000000000000000000000000000000000000000000000000000000000000000",
            "receiptTrie" : "0x56e81f171bcc55a6ff8345e692c0f86e5b48e01b996cadc001622fb5e363b421",
            "stateRoot" : "0x9efcaf6c528edf3293a9ad96dcc231e67dc4effe34ad5251e2fd71048e00365b",
            "timestamp" : "0x03b6",
            "transactionsTrie" : "0x56e81f171bcc55a6ff8345e692c0f86e5b48e01b996cadc001622fb5e363b421",
            "uncleHash" : "0x1dcc4de8dec75d7aab85b567b6ccd41ad312451b948a7413f0a142fd40d49347"
        },
        "genesisRLP" : "0xf901faf901f5a00000000000000000000000000000000000000000000000000000000000000000a01dcc4de8dec75d7aab85b567b6ccd41ad312451b948a7413f0a142fd40d4934794b94f5374fce5edbc8e2a8697c15331677e6ebf0ba09efcaf6c528edf3293a9ad96dcc231e67dc4effe34ad5251e2fd71048e00365ba056e81f171bcc55a6ff8345e692c0f86e5b48e01b996cadc001622fb5e363b421a056e81f171bcc55a6ff8345e692c0f86e5b48e01b996cadc001622fb5e363b421b90100000000000000000000000000000000000000000000000000000000000000000000000000000000000000000000000000000000000000000000000000000000000000000000000000000000000000000000000000000000000000000000000000000000000000000000000000000000000000000000000000000000000000000000000000000000000000000000000000000000000000000000000000000000000000000000000000000000000000000000000000000000000000000000000000000000000000000000000000000000000000000000000000000000000000000000000000000000000000000000000000000000000000000000000000000000008302000080830f4240808203b642a056e81f171bcc55a6ff8345e692c0f86e5b48e01b996cadc001622fb5e363b421880102030405060708c0c0",
        "lastblockhash" : "0xbc4bcdfbe3c7878ecd473f51df0ff9f233c329edad36c916a5061655488661ba",
        "network" : "EIP150",
        "postState" : {
            "0xa94f5374fce5edbc8e2a8697c15331677e6ebf0b" : {
                "balance" : "0x02f1db",
                "code" : "",
                "nonce" : "0x01",
                "storage" : {
                }
            },
            "0xb94f5374fce5edbc8e2a8697c15331677e6ebf0b" : {
                "balance" : "0x4563918244f40000",
                "code" : "",
                "nonce" : "0x00",
                "storage" : {
                }
            },
            "0xc94f5374fce5edbc8e2a8697c15331677e6ebf0b" : {
                "balance" : "0x03f2",
                "code" : "",
                "nonce" : "0x00",
                "storage" : {
                }
            }
        },
        "pre" : {
            "0xa94f5374fce5edbc8e2a8697c15331677e6ebf0b" : {
                "balance" : "0x035b60",
                "code" : "",
                "nonce" : "0x00",
                "storage" : {
                }
            },
            "0xb94f5374fce5edbc8e2a8697c15331677e6ebf0b" : {
                "balance" : "0x03e8",
                "code" : "0x73c94f5374fce5edbc8e2a8697c15331677e6ebf0bff",
                "nonce" : "0x00",
                "storage" : {
                }
            }
        }
    },
    "SuicidesMixingCoinbase_d0g1v0_EIP158" : {
        "_info" : {
            "comment" : "",
            "filledwith" : "cpp-1.3.0+commit.7b8143d3.Linux.g++",
            "source" : "/src/GenStateTestAsBcTemp/stTransactionTest/SuicidesMixingCoinbase_d0g1v0Filler.json"
        },
        "blocks" : [
            {
                "blockHeader" : {
                    "bloom" : "0x00000000000000000000000000000000000000000000000000000000000000000000000000000000000000000000000000000000000000000000000000000000000000000000000000000000000000000000000000000000000000000000000000000000000000000000000000000000000000000000000000000000000000000000000000000000000000000000000000000000000000000000000000000000000000000000000000000000000000000000000000000000000000000000000000000000000000000000000000000000000000000000000000000000000000000000000000000000000000000000000000000000000000000000000000000000",
                    "coinbase" : "0xb94f5374fce5edbc8e2a8697c15331677e6ebf0b",
                    "difficulty" : "0x020000",
                    "extraData" : "",
                    "gasLimit" : "0x0f4240",
                    "gasUsed" : "0x697b",
                    "hash" : "0xb245091427f8d50b057cbad65359074c42866b91991cc86691bbc67443576326",
                    "mixHash" : "0xc176adccfb074b03896f1397086a3811eca2e801679f5784c57a03a828f470f7",
                    "nonce" : "0xc10afed164455a19",
                    "number" : "0x01",
                    "parentHash" : "0x872cfc663d77a6fa8be53ab283ab744d8bf39fb311e46bf67a045a638d2ccdd0",
                    "receiptTrie" : "0x9ae0b3ac2f9a19fe2ea6d104b6dca27eed96a75827fd83ee77a1e45094f92e47",
                    "stateRoot" : "0x7fda4d41c53db74a4b27399ae948a2bce1388dd99591d9bcbffe32f08fc4559b",
                    "timestamp" : "0x03e8",
                    "transactionsTrie" : "0xcba46c8aefada3d051c01ad95ceab22383b9bb97da8b83a2bc0bb8e23dc572ce",
                    "uncleHash" : "0x1dcc4de8dec75d7aab85b567b6ccd41ad312451b948a7413f0a142fd40d49347"
                },
                "rlp" : "0xf9025ef901f7a0872cfc663d77a6fa8be53ab283ab744d8bf39fb311e46bf67a045a638d2ccdd0a01dcc4de8dec75d7aab85b567b6ccd41ad312451b948a7413f0a142fd40d4934794b94f5374fce5edbc8e2a8697c15331677e6ebf0ba07fda4d41c53db74a4b27399ae948a2bce1388dd99591d9bcbffe32f08fc4559ba0cba46c8aefada3d051c01ad95ceab22383b9bb97da8b83a2bc0bb8e23dc572cea09ae0b3ac2f9a19fe2ea6d104b6dca27eed96a75827fd83ee77a1e45094f92e47b90100000000000000000000000000000000000000000000000000000000000000000000000000000000000000000000000000000000000000000000000000000000000000000000000000000000000000000000000000000000000000000000000000000000000000000000000000000000000000000000000000000000000000000000000000000000000000000000000000000000000000000000000000000000000000000000000000000000000000000000000000000000000000000000000000000000000000000000000000000000000000000000000000000000000000000000000000000000000000000000000000000000000000000000000000000000008302000001830f424082697b8203e880a0c176adccfb074b03896f1397086a3811eca2e801679f5784c57a03a828f470f788c10afed164455a19f861f85f800182ea6094b94f5374fce5edbc8e2a8697c15331677e6ebf0b0a801ca0179021729fddd757a7ffe18dcd36c403c485ef764408ce5aff33b3332a3068e2a074073a3531dd4c6cd60d2b13e5c0424eac0e961f973f373cea6b1dc1cefdf324c0",
                "transactions" : [
                    {
                        "data" : "",
                        "gasLimit" : "0xea60",
                        "gasPrice" : "0x01",
                        "nonce" : "0x00",
                        "r" : "0x179021729fddd757a7ffe18dcd36c403c485ef764408ce5aff33b3332a3068e2",
                        "s" : "0x74073a3531dd4c6cd60d2b13e5c0424eac0e961f973f373cea6b1dc1cefdf324",
                        "to" : "0xb94f5374fce5edbc8e2a8697c15331677e6ebf0b",
                        "v" : "0x1c",
                        "value" : "0x0a"
                    }
                ],
                "uncleHeaders" : [
                ]
            }
        ],
        "genesisBlockHeader" : {
            "bloom" : "0x00000000000000000000000000000000000000000000000000000000000000000000000000000000000000000000000000000000000000000000000000000000000000000000000000000000000000000000000000000000000000000000000000000000000000000000000000000000000000000000000000000000000000000000000000000000000000000000000000000000000000000000000000000000000000000000000000000000000000000000000000000000000000000000000000000000000000000000000000000000000000000000000000000000000000000000000000000000000000000000000000000000000000000000000000000000",
            "coinbase" : "0xb94f5374fce5edbc8e2a8697c15331677e6ebf0b",
            "difficulty" : "0x020000",
            "extraData" : "0x42",
            "gasLimit" : "0x0f4240",
            "gasUsed" : "0x00",
            "hash" : "0x872cfc663d77a6fa8be53ab283ab744d8bf39fb311e46bf67a045a638d2ccdd0",
            "mixHash" : "0x56e81f171bcc55a6ff8345e692c0f86e5b48e01b996cadc001622fb5e363b421",
            "nonce" : "0x0102030405060708",
            "number" : "0x00",
            "parentHash" : "0x0000000000000000000000000000000000000000000000000000000000000000",
            "receiptTrie" : "0x56e81f171bcc55a6ff8345e692c0f86e5b48e01b996cadc001622fb5e363b421",
            "stateRoot" : "0x9efcaf6c528edf3293a9ad96dcc231e67dc4effe34ad5251e2fd71048e00365b",
            "timestamp" : "0x03b6",
            "transactionsTrie" : "0x56e81f171bcc55a6ff8345e692c0f86e5b48e01b996cadc001622fb5e363b421",
            "uncleHash" : "0x1dcc4de8dec75d7aab85b567b6ccd41ad312451b948a7413f0a142fd40d49347"
        },
        "genesisRLP" : "0xf901faf901f5a00000000000000000000000000000000000000000000000000000000000000000a01dcc4de8dec75d7aab85b567b6ccd41ad312451b948a7413f0a142fd40d4934794b94f5374fce5edbc8e2a8697c15331677e6ebf0ba09efcaf6c528edf3293a9ad96dcc231e67dc4effe34ad5251e2fd71048e00365ba056e81f171bcc55a6ff8345e692c0f86e5b48e01b996cadc001622fb5e363b421a056e81f171bcc55a6ff8345e692c0f86e5b48e01b996cadc001622fb5e363b421b90100000000000000000000000000000000000000000000000000000000000000000000000000000000000000000000000000000000000000000000000000000000000000000000000000000000000000000000000000000000000000000000000000000000000000000000000000000000000000000000000000000000000000000000000000000000000000000000000000000000000000000000000000000000000000000000000000000000000000000000000000000000000000000000000000000000000000000000000000000000000000000000000000000000000000000000000000000000000000000000000000000000000000000000000000000000008302000080830f4240808203b642a056e81f171bcc55a6ff8345e692c0f86e5b48e01b996cadc001622fb5e363b421880102030405060708c0c0",
        "lastblockhash" : "0xb245091427f8d50b057cbad65359074c42866b91991cc86691bbc67443576326",
        "network" : "EIP158",
        "postState" : {
            "0xa94f5374fce5edbc8e2a8697c15331677e6ebf0b" : {
                "balance" : "0x02f1db",
                "code" : "",
                "nonce" : "0x01",
                "storage" : {
                }
            },
            "0xb94f5374fce5edbc8e2a8697c15331677e6ebf0b" : {
                "balance" : "0x4563918244f40000",
                "code" : "",
                "nonce" : "0x00",
                "storage" : {
                }
            },
            "0xc94f5374fce5edbc8e2a8697c15331677e6ebf0b" : {
                "balance" : "0x03f2",
                "code" : "",
                "nonce" : "0x00",
                "storage" : {
                }
            }
        },
        "pre" : {
            "0xa94f5374fce5edbc8e2a8697c15331677e6ebf0b" : {
                "balance" : "0x035b60",
                "code" : "",
                "nonce" : "0x00",
                "storage" : {
                }
            },
            "0xb94f5374fce5edbc8e2a8697c15331677e6ebf0b" : {
                "balance" : "0x03e8",
                "code" : "0x73c94f5374fce5edbc8e2a8697c15331677e6ebf0bff",
                "nonce" : "0x00",
                "storage" : {
                }
            }
        }
    },
    "SuicidesMixingCoinbase_d0g1v0_Frontier" : {
        "_info" : {
            "comment" : "",
            "filledwith" : "cpp-1.3.0+commit.7b8143d3.Linux.g++",
            "source" : "/src/GenStateTestAsBcTemp/stTransactionTest/SuicidesMixingCoinbase_d0g1v0Filler.json"
        },
        "blocks" : [
            {
                "blockHeader" : {
                    "bloom" : "0x00000000000000000000000000000000000000000000000000000000000000000000000000000000000000000000000000000000000000000000000000000000000000000000000000000000000000000000000000000000000000000000000000000000000000000000000000000000000000000000000000000000000000000000000000000000000000000000000000000000000000000000000000000000000000000000000000000000000000000000000000000000000000000000000000000000000000000000000000000000000000000000000000000000000000000000000000000000000000000000000000000000000000000000000000000000",
                    "coinbase" : "0xb94f5374fce5edbc8e2a8697c15331677e6ebf0b",
                    "difficulty" : "0x020000",
                    "extraData" : "",
                    "gasLimit" : "0x0f4240",
                    "gasUsed" : "0x2906",
                    "hash" : "0x833b5710fb6cb99d653718f174bea2c8818fefd5eec2ee3e66642d221abeb803",
                    "mixHash" : "0xc64ff78eea5bf576e5047374a72584ca897b1f99c6431a0b419d9650badf214a",
                    "nonce" : "0xbcdf0ec3c8c06ae6",
                    "number" : "0x01",
                    "parentHash" : "0x872cfc663d77a6fa8be53ab283ab744d8bf39fb311e46bf67a045a638d2ccdd0",
                    "receiptTrie" : "0xbe369121a1e67a168d19f587393e8699194cb46325341366187d375c6ee462f4",
                    "stateRoot" : "0x9457d1b8b835bcbc3ef4389b0c37d22410741d0e5600f9a188d4a084cccb3137",
                    "timestamp" : "0x03e8",
                    "transactionsTrie" : "0xcba46c8aefada3d051c01ad95ceab22383b9bb97da8b83a2bc0bb8e23dc572ce",
                    "uncleHash" : "0x1dcc4de8dec75d7aab85b567b6ccd41ad312451b948a7413f0a142fd40d49347"
                },
                "rlp" : "0xf9025ef901f7a0872cfc663d77a6fa8be53ab283ab744d8bf39fb311e46bf67a045a638d2ccdd0a01dcc4de8dec75d7aab85b567b6ccd41ad312451b948a7413f0a142fd40d4934794b94f5374fce5edbc8e2a8697c15331677e6ebf0ba09457d1b8b835bcbc3ef4389b0c37d22410741d0e5600f9a188d4a084cccb3137a0cba46c8aefada3d051c01ad95ceab22383b9bb97da8b83a2bc0bb8e23dc572cea0be369121a1e67a168d19f587393e8699194cb46325341366187d375c6ee462f4b90100000000000000000000000000000000000000000000000000000000000000000000000000000000000000000000000000000000000000000000000000000000000000000000000000000000000000000000000000000000000000000000000000000000000000000000000000000000000000000000000000000000000000000000000000000000000000000000000000000000000000000000000000000000000000000000000000000000000000000000000000000000000000000000000000000000000000000000000000000000000000000000000000000000000000000000000000000000000000000000000000000000000000000000000000000000008302000001830f42408229068203e880a0c64ff78eea5bf576e5047374a72584ca897b1f99c6431a0b419d9650badf214a88bcdf0ec3c8c06ae6f861f85f800182ea6094b94f5374fce5edbc8e2a8697c15331677e6ebf0b0a801ca0179021729fddd757a7ffe18dcd36c403c485ef764408ce5aff33b3332a3068e2a074073a3531dd4c6cd60d2b13e5c0424eac0e961f973f373cea6b1dc1cefdf324c0",
                "transactions" : [
                    {
                        "data" : "",
                        "gasLimit" : "0xea60",
                        "gasPrice" : "0x01",
                        "nonce" : "0x00",
                        "r" : "0x179021729fddd757a7ffe18dcd36c403c485ef764408ce5aff33b3332a3068e2",
                        "s" : "0x74073a3531dd4c6cd60d2b13e5c0424eac0e961f973f373cea6b1dc1cefdf324",
                        "to" : "0xb94f5374fce5edbc8e2a8697c15331677e6ebf0b",
                        "v" : "0x1c",
                        "value" : "0x0a"
                    }
                ],
                "uncleHeaders" : [
                ]
            }
        ],
        "genesisBlockHeader" : {
            "bloom" : "0x00000000000000000000000000000000000000000000000000000000000000000000000000000000000000000000000000000000000000000000000000000000000000000000000000000000000000000000000000000000000000000000000000000000000000000000000000000000000000000000000000000000000000000000000000000000000000000000000000000000000000000000000000000000000000000000000000000000000000000000000000000000000000000000000000000000000000000000000000000000000000000000000000000000000000000000000000000000000000000000000000000000000000000000000000000000",
            "coinbase" : "0xb94f5374fce5edbc8e2a8697c15331677e6ebf0b",
            "difficulty" : "0x020000",
            "extraData" : "0x42",
            "gasLimit" : "0x0f4240",
            "gasUsed" : "0x00",
            "hash" : "0x872cfc663d77a6fa8be53ab283ab744d8bf39fb311e46bf67a045a638d2ccdd0",
            "mixHash" : "0x56e81f171bcc55a6ff8345e692c0f86e5b48e01b996cadc001622fb5e363b421",
            "nonce" : "0x0102030405060708",
            "number" : "0x00",
            "parentHash" : "0x0000000000000000000000000000000000000000000000000000000000000000",
            "receiptTrie" : "0x56e81f171bcc55a6ff8345e692c0f86e5b48e01b996cadc001622fb5e363b421",
            "stateRoot" : "0x9efcaf6c528edf3293a9ad96dcc231e67dc4effe34ad5251e2fd71048e00365b",
            "timestamp" : "0x03b6",
            "transactionsTrie" : "0x56e81f171bcc55a6ff8345e692c0f86e5b48e01b996cadc001622fb5e363b421",
            "uncleHash" : "0x1dcc4de8dec75d7aab85b567b6ccd41ad312451b948a7413f0a142fd40d49347"
        },
        "genesisRLP" : "0xf901faf901f5a00000000000000000000000000000000000000000000000000000000000000000a01dcc4de8dec75d7aab85b567b6ccd41ad312451b948a7413f0a142fd40d4934794b94f5374fce5edbc8e2a8697c15331677e6ebf0ba09efcaf6c528edf3293a9ad96dcc231e67dc4effe34ad5251e2fd71048e00365ba056e81f171bcc55a6ff8345e692c0f86e5b48e01b996cadc001622fb5e363b421a056e81f171bcc55a6ff8345e692c0f86e5b48e01b996cadc001622fb5e363b421b90100000000000000000000000000000000000000000000000000000000000000000000000000000000000000000000000000000000000000000000000000000000000000000000000000000000000000000000000000000000000000000000000000000000000000000000000000000000000000000000000000000000000000000000000000000000000000000000000000000000000000000000000000000000000000000000000000000000000000000000000000000000000000000000000000000000000000000000000000000000000000000000000000000000000000000000000000000000000000000000000000000000000000000000000000000000008302000080830f4240808203b642a056e81f171bcc55a6ff8345e692c0f86e5b48e01b996cadc001622fb5e363b421880102030405060708c0c0",
        "lastblockhash" : "0x833b5710fb6cb99d653718f174bea2c8818fefd5eec2ee3e66642d221abeb803",
        "network" : "Frontier",
        "postState" : {
            "0xa94f5374fce5edbc8e2a8697c15331677e6ebf0b" : {
                "balance" : "0x033250",
                "code" : "",
                "nonce" : "0x01",
                "storage" : {
                }
            },
            "0xb94f5374fce5edbc8e2a8697c15331677e6ebf0b" : {
                "balance" : "0x4563918244f40000",
                "code" : "",
                "nonce" : "0x00",
                "storage" : {
                }
            },
            "0xc94f5374fce5edbc8e2a8697c15331677e6ebf0b" : {
                "balance" : "0x03f2",
                "code" : "",
                "nonce" : "0x00",
                "storage" : {
                }
            }
        },
        "pre" : {
            "0xa94f5374fce5edbc8e2a8697c15331677e6ebf0b" : {
                "balance" : "0x035b60",
                "code" : "",
                "nonce" : "0x00",
                "storage" : {
                }
            },
            "0xb94f5374fce5edbc8e2a8697c15331677e6ebf0b" : {
                "balance" : "0x03e8",
                "code" : "0x73c94f5374fce5edbc8e2a8697c15331677e6ebf0bff",
                "nonce" : "0x00",
                "storage" : {
                }
            }
        }
    },
    "SuicidesMixingCoinbase_d0g1v0_Homestead" : {
        "_info" : {
            "comment" : "",
            "filledwith" : "cpp-1.3.0+commit.7b8143d3.Linux.g++",
            "source" : "/src/GenStateTestAsBcTemp/stTransactionTest/SuicidesMixingCoinbase_d0g1v0Filler.json"
        },
        "blocks" : [
            {
                "blockHeader" : {
                    "bloom" : "0x00000000000000000000000000000000000000000000000000000000000000000000000000000000000000000000000000000000000000000000000000000000000000000000000000000000000000000000000000000000000000000000000000000000000000000000000000000000000000000000000000000000000000000000000000000000000000000000000000000000000000000000000000000000000000000000000000000000000000000000000000000000000000000000000000000000000000000000000000000000000000000000000000000000000000000000000000000000000000000000000000000000000000000000000000000000",
                    "coinbase" : "0xb94f5374fce5edbc8e2a8697c15331677e6ebf0b",
                    "difficulty" : "0x020000",
                    "extraData" : "",
                    "gasLimit" : "0x0f4240",
                    "gasUsed" : "0x2906",
                    "hash" : "0x560617eb1f5f6183424186b347b546f94d29116e5f35dc813d52221ce6df795e",
                    "mixHash" : "0x3652dd1d5a5807a2e6b3c9126c6a338629d8018f1305895bf250c12e56ce6c43",
                    "nonce" : "0xe3e3dc20ac1c3b0e",
                    "number" : "0x01",
                    "parentHash" : "0x872cfc663d77a6fa8be53ab283ab744d8bf39fb311e46bf67a045a638d2ccdd0",
                    "receiptTrie" : "0xbe369121a1e67a168d19f587393e8699194cb46325341366187d375c6ee462f4",
                    "stateRoot" : "0x9457d1b8b835bcbc3ef4389b0c37d22410741d0e5600f9a188d4a084cccb3137",
                    "timestamp" : "0x03e8",
                    "transactionsTrie" : "0xcba46c8aefada3d051c01ad95ceab22383b9bb97da8b83a2bc0bb8e23dc572ce",
                    "uncleHash" : "0x1dcc4de8dec75d7aab85b567b6ccd41ad312451b948a7413f0a142fd40d49347"
                },
                "rlp" : "0xf9025ef901f7a0872cfc663d77a6fa8be53ab283ab744d8bf39fb311e46bf67a045a638d2ccdd0a01dcc4de8dec75d7aab85b567b6ccd41ad312451b948a7413f0a142fd40d4934794b94f5374fce5edbc8e2a8697c15331677e6ebf0ba09457d1b8b835bcbc3ef4389b0c37d22410741d0e5600f9a188d4a084cccb3137a0cba46c8aefada3d051c01ad95ceab22383b9bb97da8b83a2bc0bb8e23dc572cea0be369121a1e67a168d19f587393e8699194cb46325341366187d375c6ee462f4b90100000000000000000000000000000000000000000000000000000000000000000000000000000000000000000000000000000000000000000000000000000000000000000000000000000000000000000000000000000000000000000000000000000000000000000000000000000000000000000000000000000000000000000000000000000000000000000000000000000000000000000000000000000000000000000000000000000000000000000000000000000000000000000000000000000000000000000000000000000000000000000000000000000000000000000000000000000000000000000000000000000000000000000000000000000000008302000001830f42408229068203e880a03652dd1d5a5807a2e6b3c9126c6a338629d8018f1305895bf250c12e56ce6c4388e3e3dc20ac1c3b0ef861f85f800182ea6094b94f5374fce5edbc8e2a8697c15331677e6ebf0b0a801ca0179021729fddd757a7ffe18dcd36c403c485ef764408ce5aff33b3332a3068e2a074073a3531dd4c6cd60d2b13e5c0424eac0e961f973f373cea6b1dc1cefdf324c0",
                "transactions" : [
                    {
                        "data" : "",
                        "gasLimit" : "0xea60",
                        "gasPrice" : "0x01",
                        "nonce" : "0x00",
                        "r" : "0x179021729fddd757a7ffe18dcd36c403c485ef764408ce5aff33b3332a3068e2",
                        "s" : "0x74073a3531dd4c6cd60d2b13e5c0424eac0e961f973f373cea6b1dc1cefdf324",
                        "to" : "0xb94f5374fce5edbc8e2a8697c15331677e6ebf0b",
                        "v" : "0x1c",
                        "value" : "0x0a"
                    }
                ],
                "uncleHeaders" : [
                ]
            }
        ],
        "genesisBlockHeader" : {
            "bloom" : "0x00000000000000000000000000000000000000000000000000000000000000000000000000000000000000000000000000000000000000000000000000000000000000000000000000000000000000000000000000000000000000000000000000000000000000000000000000000000000000000000000000000000000000000000000000000000000000000000000000000000000000000000000000000000000000000000000000000000000000000000000000000000000000000000000000000000000000000000000000000000000000000000000000000000000000000000000000000000000000000000000000000000000000000000000000000000",
            "coinbase" : "0xb94f5374fce5edbc8e2a8697c15331677e6ebf0b",
            "difficulty" : "0x020000",
            "extraData" : "0x42",
            "gasLimit" : "0x0f4240",
            "gasUsed" : "0x00",
            "hash" : "0x872cfc663d77a6fa8be53ab283ab744d8bf39fb311e46bf67a045a638d2ccdd0",
            "mixHash" : "0x56e81f171bcc55a6ff8345e692c0f86e5b48e01b996cadc001622fb5e363b421",
            "nonce" : "0x0102030405060708",
            "number" : "0x00",
            "parentHash" : "0x0000000000000000000000000000000000000000000000000000000000000000",
            "receiptTrie" : "0x56e81f171bcc55a6ff8345e692c0f86e5b48e01b996cadc001622fb5e363b421",
            "stateRoot" : "0x9efcaf6c528edf3293a9ad96dcc231e67dc4effe34ad5251e2fd71048e00365b",
            "timestamp" : "0x03b6",
            "transactionsTrie" : "0x56e81f171bcc55a6ff8345e692c0f86e5b48e01b996cadc001622fb5e363b421",
            "uncleHash" : "0x1dcc4de8dec75d7aab85b567b6ccd41ad312451b948a7413f0a142fd40d49347"
        },
        "genesisRLP" : "0xf901faf901f5a00000000000000000000000000000000000000000000000000000000000000000a01dcc4de8dec75d7aab85b567b6ccd41ad312451b948a7413f0a142fd40d4934794b94f5374fce5edbc8e2a8697c15331677e6ebf0ba09efcaf6c528edf3293a9ad96dcc231e67dc4effe34ad5251e2fd71048e00365ba056e81f171bcc55a6ff8345e692c0f86e5b48e01b996cadc001622fb5e363b421a056e81f171bcc55a6ff8345e692c0f86e5b48e01b996cadc001622fb5e363b421b90100000000000000000000000000000000000000000000000000000000000000000000000000000000000000000000000000000000000000000000000000000000000000000000000000000000000000000000000000000000000000000000000000000000000000000000000000000000000000000000000000000000000000000000000000000000000000000000000000000000000000000000000000000000000000000000000000000000000000000000000000000000000000000000000000000000000000000000000000000000000000000000000000000000000000000000000000000000000000000000000000000000000000000000000000000000008302000080830f4240808203b642a056e81f171bcc55a6ff8345e692c0f86e5b48e01b996cadc001622fb5e363b421880102030405060708c0c0",
        "lastblockhash" : "0x560617eb1f5f6183424186b347b546f94d29116e5f35dc813d52221ce6df795e",
        "network" : "Homestead",
        "postState" : {
            "0xa94f5374fce5edbc8e2a8697c15331677e6ebf0b" : {
                "balance" : "0x033250",
                "code" : "",
                "nonce" : "0x01",
                "storage" : {
                }
            },
            "0xb94f5374fce5edbc8e2a8697c15331677e6ebf0b" : {
                "balance" : "0x4563918244f40000",
                "code" : "",
                "nonce" : "0x00",
                "storage" : {
                }
            },
            "0xc94f5374fce5edbc8e2a8697c15331677e6ebf0b" : {
                "balance" : "0x03f2",
                "code" : "",
                "nonce" : "0x00",
                "storage" : {
                }
            }
        },
        "pre" : {
            "0xa94f5374fce5edbc8e2a8697c15331677e6ebf0b" : {
                "balance" : "0x035b60",
                "code" : "",
                "nonce" : "0x00",
                "storage" : {
                }
            },
            "0xb94f5374fce5edbc8e2a8697c15331677e6ebf0b" : {
                "balance" : "0x03e8",
                "code" : "0x73c94f5374fce5edbc8e2a8697c15331677e6ebf0bff",
                "nonce" : "0x00",
                "storage" : {
                }
            }
        }
    }
}