{
    "TransactionToAddressh160minusOne_d0g0v0_Byzantium" : {
        "_info" : {
            "comment" : "",
            "filledwith" : "cpp-1.3.0+commit.274a516d.Linux.g++",
            "lllcversion" : "Version: 0.4.18-develop.2017.9.25+commit.a72237f2.Linux.g++",
            "source" : "src/BlockchainTestsFiller/GeneralStateTests/stTransactionTest/TransactionToAddressh160minusOne_d0g0v0Filler.json"
        },
        "blocks" : [
            {
                "blockHeader" : {
                    "bloom" : "0x00000000000000000000000000000000000000000000000000000000000000000000000000000000000000000000000000000000000000000000000000000000000000000000000000000000000000000000000000000000000000000000000000000000000000000000000000000000000000000000000000000000000000000000000000000000000000000000000000000000000000000000000000000000000000000000000000000000000000000000000000000000000000000000000000000000000000000000000000000000000000000000000000000000000000000000000000000000000000000000000000000000000000000000000000000000",
                    "coinbase" : "0x2adc25665018aa1fe0e6bc666dac8fc2697ff9ba",
                    "difficulty" : "0x020000",
                    "extraData" : "",
                    "gasLimit" : "0x0186a0",
                    "gasUsed" : "0x5208",
                    "hash" : "0xe784443c5e5ad09745f37b42a40286c173f7911c275562653d1c06d4b44a03ff",
                    "mixHash" : "0x819d4d7f5f16fbd7affcd949f4e88b32b6b666c3000f4be9181f87a751d722e1",
                    "nonce" : "0x9c4e20b3d6a0d5a4",
                    "number" : "0x01",
                    "parentHash" : "0x2dad82330b76eaaddb3aa41a18e76328a81569253e4a2e03f7d8b8c515fa3ed3",
                    "receiptTrie" : "0x056b23fbba480696b65fe5a59b8f2148a1299103c4f57df839233af2cf4ca2d2",
                    "stateRoot" : "0x18d347025653887c19917934cb86c25ba8a66a987aefa00dbc62d7db36a7645c",
                    "timestamp" : "0x03e8",
                    "transactionsTrie" : "0xad2e6d9252215a778d4f9320756c87aa335089252ac5374d0f7f91a7bc9421e8",
                    "uncleHash" : "0x1dcc4de8dec75d7aab85b567b6ccd41ad312451b948a7413f0a142fd40d49347"
                },
                "rlp" : "0xf9025ef901f7a02dad82330b76eaaddb3aa41a18e76328a81569253e4a2e03f7d8b8c515fa3ed3a01dcc4de8dec75d7aab85b567b6ccd41ad312451b948a7413f0a142fd40d49347942adc25665018aa1fe0e6bc666dac8fc2697ff9baa018d347025653887c19917934cb86c25ba8a66a987aefa00dbc62d7db36a7645ca0ad2e6d9252215a778d4f9320756c87aa335089252ac5374d0f7f91a7bc9421e8a0056b23fbba480696b65fe5a59b8f2148a1299103c4f57df839233af2cf4ca2d2b90100000000000000000000000000000000000000000000000000000000000000000000000000000000000000000000000000000000000000000000000000000000000000000000000000000000000000000000000000000000000000000000000000000000000000000000000000000000000000000000000000000000000000000000000000000000000000000000000000000000000000000000000000000000000000000000000000000000000000000000000000000000000000000000000000000000000000000000000000000000000000000000000000000000000000000000000000000000000000000000000000000000000000000000000000000000008302000001830186a08252088203e880a0819d4d7f5f16fbd7affcd949f4e88b32b6b666c3000f4be9181f87a751d722e1889c4e20b3d6a0d5a4f861f85f80018255f094ffffffffffffffffffffffffffffffffffffffff64801ba0ac6685386233850275d55689989147ee899236eb731f063c6f44dcc4bcaea113a0263d5ba24e220a6be65c832ed8f543e706521be0bf7cd82893aa3cde761b771bc0",
                "transactions" : [
                    {
                        "data" : "",
                        "gasLimit" : "0x55f0",
                        "gasPrice" : "0x01",
                        "nonce" : "0x00",
                        "r" : "0xac6685386233850275d55689989147ee899236eb731f063c6f44dcc4bcaea113",
                        "s" : "0x263d5ba24e220a6be65c832ed8f543e706521be0bf7cd82893aa3cde761b771b",
                        "to" : "0xffffffffffffffffffffffffffffffffffffffff",
                        "v" : "0x1b",
                        "value" : "0x64"
                    }
                ],
                "uncleHeaders" : [
                ]
            }
        ],
        "genesisBlockHeader" : {
            "bloom" : "0x00000000000000000000000000000000000000000000000000000000000000000000000000000000000000000000000000000000000000000000000000000000000000000000000000000000000000000000000000000000000000000000000000000000000000000000000000000000000000000000000000000000000000000000000000000000000000000000000000000000000000000000000000000000000000000000000000000000000000000000000000000000000000000000000000000000000000000000000000000000000000000000000000000000000000000000000000000000000000000000000000000000000000000000000000000000",
            "coinbase" : "0x2adc25665018aa1fe0e6bc666dac8fc2697ff9ba",
            "difficulty" : "0x020000",
            "extraData" : "0x42",
            "gasLimit" : "0x0186a0",
            "gasUsed" : "0x00",
            "hash" : "0x2dad82330b76eaaddb3aa41a18e76328a81569253e4a2e03f7d8b8c515fa3ed3",
            "mixHash" : "0x56e81f171bcc55a6ff8345e692c0f86e5b48e01b996cadc001622fb5e363b421",
            "nonce" : "0x0102030405060708",
            "number" : "0x00",
            "parentHash" : "0x0000000000000000000000000000000000000000000000000000000000000000",
            "receiptTrie" : "0x56e81f171bcc55a6ff8345e692c0f86e5b48e01b996cadc001622fb5e363b421",
            "stateRoot" : "0x18c1342886baeaf926b3fbbfb0484bf0cd1ced43576547c11153d3c8944d5c47",
            "timestamp" : "0x03b6",
            "transactionsTrie" : "0x56e81f171bcc55a6ff8345e692c0f86e5b48e01b996cadc001622fb5e363b421",
            "uncleHash" : "0x1dcc4de8dec75d7aab85b567b6ccd41ad312451b948a7413f0a142fd40d49347"
        },
        "genesisRLP" : "0xf901faf901f5a00000000000000000000000000000000000000000000000000000000000000000a01dcc4de8dec75d7aab85b567b6ccd41ad312451b948a7413f0a142fd40d49347942adc25665018aa1fe0e6bc666dac8fc2697ff9baa018c1342886baeaf926b3fbbfb0484bf0cd1ced43576547c11153d3c8944d5c47a056e81f171bcc55a6ff8345e692c0f86e5b48e01b996cadc001622fb5e363b421a056e81f171bcc55a6ff8345e692c0f86e5b48e01b996cadc001622fb5e363b421b90100000000000000000000000000000000000000000000000000000000000000000000000000000000000000000000000000000000000000000000000000000000000000000000000000000000000000000000000000000000000000000000000000000000000000000000000000000000000000000000000000000000000000000000000000000000000000000000000000000000000000000000000000000000000000000000000000000000000000000000000000000000000000000000000000000000000000000000000000000000000000000000000000000000000000000000000000000000000000000000000000000000000000000000000000000000008302000080830186a0808203b642a056e81f171bcc55a6ff8345e692c0f86e5b48e01b996cadc001622fb5e363b421880102030405060708c0c0",
        "lastblockhash" : "0xe784443c5e5ad09745f37b42a40286c173f7911c275562653d1c06d4b44a03ff",
        "network" : "Byzantium",
        "postState" : {
            "0x2adc25665018aa1fe0e6bc666dac8fc2697ff9ba" : {
                "balance" : "0x29a2241af62c5208",
                "code" : "",
                "nonce" : "0x00",
                "storage" : {
                }
            },
            "0xa94f5374fce5edbc8e2a8697c15331677e6ebf0b" : {
                "balance" : "0x0eefd4",
                "code" : "",
                "nonce" : "0x01",
                "storage" : {
                }
            },
            "0xffffffffffffffffffffffffffffffffffffffff" : {
                "balance" : "0x64",
                "code" : "",
                "nonce" : "0x00",
                "storage" : {
                }
            }
        },
        "pre" : {
            "0xa94f5374fce5edbc8e2a8697c15331677e6ebf0b" : {
                "balance" : "0x0f4240",
                "code" : "",
                "nonce" : "0x00",
                "storage" : {
                }
            }
        }
    },
    "TransactionToAddressh160minusOne_d0g0v0_EIP150" : {
        "_info" : {
            "comment" : "",
            "filledwith" : "cpp-1.3.0+commit.274a516d.Linux.g++",
            "lllcversion" : "Version: 0.4.18-develop.2017.9.25+commit.a72237f2.Linux.g++",
            "source" : "src/BlockchainTestsFiller/GeneralStateTests/stTransactionTest/TransactionToAddressh160minusOne_d0g0v0Filler.json"
        },
        "blocks" : [
            {
                "blockHeader" : {
                    "bloom" : "0x00000000000000000000000000000000000000000000000000000000000000000000000000000000000000000000000000000000000000000000000000000000000000000000000000000000000000000000000000000000000000000000000000000000000000000000000000000000000000000000000000000000000000000000000000000000000000000000000000000000000000000000000000000000000000000000000000000000000000000000000000000000000000000000000000000000000000000000000000000000000000000000000000000000000000000000000000000000000000000000000000000000000000000000000000000000",
                    "coinbase" : "0x2adc25665018aa1fe0e6bc666dac8fc2697ff9ba",
                    "difficulty" : "0x020000",
                    "extraData" : "",
                    "gasLimit" : "0x0186a0",
                    "gasUsed" : "0x5208",
                    "hash" : "0xd9e89becf949b15f24f0bf9538d102522e17b87b3eecd97f42e496cff985a9db",
                    "mixHash" : "0xc16f534c71df43ceeb805df29e20cc36f4b25e5ad7533783d9eb624b35b36747",
                    "nonce" : "0x397e69dc6030ed6a",
                    "number" : "0x01",
                    "parentHash" : "0x2dad82330b76eaaddb3aa41a18e76328a81569253e4a2e03f7d8b8c515fa3ed3",
                    "receiptTrie" : "0xe3154d5d84e1c1c4511bd9997cc0010a7eb27547a595e46f33f9afd7209f3cb2",
                    "stateRoot" : "0xe10e2f36e798437026c15ac465eca5a3f1eda897e8fa72218be91666dea49144",
                    "timestamp" : "0x03e8",
                    "transactionsTrie" : "0xad2e6d9252215a778d4f9320756c87aa335089252ac5374d0f7f91a7bc9421e8",
                    "uncleHash" : "0x1dcc4de8dec75d7aab85b567b6ccd41ad312451b948a7413f0a142fd40d49347"
                },
                "rlp" : "0xf9025ef901f7a02dad82330b76eaaddb3aa41a18e76328a81569253e4a2e03f7d8b8c515fa3ed3a01dcc4de8dec75d7aab85b567b6ccd41ad312451b948a7413f0a142fd40d49347942adc25665018aa1fe0e6bc666dac8fc2697ff9baa0e10e2f36e798437026c15ac465eca5a3f1eda897e8fa72218be91666dea49144a0ad2e6d9252215a778d4f9320756c87aa335089252ac5374d0f7f91a7bc9421e8a0e3154d5d84e1c1c4511bd9997cc0010a7eb27547a595e46f33f9afd7209f3cb2b90100000000000000000000000000000000000000000000000000000000000000000000000000000000000000000000000000000000000000000000000000000000000000000000000000000000000000000000000000000000000000000000000000000000000000000000000000000000000000000000000000000000000000000000000000000000000000000000000000000000000000000000000000000000000000000000000000000000000000000000000000000000000000000000000000000000000000000000000000000000000000000000000000000000000000000000000000000000000000000000000000000000000000000000000000000000008302000001830186a08252088203e880a0c16f534c71df43ceeb805df29e20cc36f4b25e5ad7533783d9eb624b35b3674788397e69dc6030ed6af861f85f80018255f094ffffffffffffffffffffffffffffffffffffffff64801ba0ac6685386233850275d55689989147ee899236eb731f063c6f44dcc4bcaea113a0263d5ba24e220a6be65c832ed8f543e706521be0bf7cd82893aa3cde761b771bc0",
                "transactions" : [
                    {
                        "data" : "",
                        "gasLimit" : "0x55f0",
                        "gasPrice" : "0x01",
                        "nonce" : "0x00",
                        "r" : "0xac6685386233850275d55689989147ee899236eb731f063c6f44dcc4bcaea113",
                        "s" : "0x263d5ba24e220a6be65c832ed8f543e706521be0bf7cd82893aa3cde761b771b",
                        "to" : "0xffffffffffffffffffffffffffffffffffffffff",
                        "v" : "0x1b",
                        "value" : "0x64"
                    }
                ],
                "uncleHeaders" : [
                ]
            }
        ],
        "genesisBlockHeader" : {
            "bloom" : "0x00000000000000000000000000000000000000000000000000000000000000000000000000000000000000000000000000000000000000000000000000000000000000000000000000000000000000000000000000000000000000000000000000000000000000000000000000000000000000000000000000000000000000000000000000000000000000000000000000000000000000000000000000000000000000000000000000000000000000000000000000000000000000000000000000000000000000000000000000000000000000000000000000000000000000000000000000000000000000000000000000000000000000000000000000000000",
            "coinbase" : "0x2adc25665018aa1fe0e6bc666dac8fc2697ff9ba",
            "difficulty" : "0x020000",
            "extraData" : "0x42",
            "gasLimit" : "0x0186a0",
            "gasUsed" : "0x00",
            "hash" : "0x2dad82330b76eaaddb3aa41a18e76328a81569253e4a2e03f7d8b8c515fa3ed3",
            "mixHash" : "0x56e81f171bcc55a6ff8345e692c0f86e5b48e01b996cadc001622fb5e363b421",
            "nonce" : "0x0102030405060708",
            "number" : "0x00",
            "parentHash" : "0x0000000000000000000000000000000000000000000000000000000000000000",
            "receiptTrie" : "0x56e81f171bcc55a6ff8345e692c0f86e5b48e01b996cadc001622fb5e363b421",
            "stateRoot" : "0x18c1342886baeaf926b3fbbfb0484bf0cd1ced43576547c11153d3c8944d5c47",
            "timestamp" : "0x03b6",
            "transactionsTrie" : "0x56e81f171bcc55a6ff8345e692c0f86e5b48e01b996cadc001622fb5e363b421",
            "uncleHash" : "0x1dcc4de8dec75d7aab85b567b6ccd41ad312451b948a7413f0a142fd40d49347"
        },
        "genesisRLP" : "0xf901faf901f5a00000000000000000000000000000000000000000000000000000000000000000a01dcc4de8dec75d7aab85b567b6ccd41ad312451b948a7413f0a142fd40d49347942adc25665018aa1fe0e6bc666dac8fc2697ff9baa018c1342886baeaf926b3fbbfb0484bf0cd1ced43576547c11153d3c8944d5c47a056e81f171bcc55a6ff8345e692c0f86e5b48e01b996cadc001622fb5e363b421a056e81f171bcc55a6ff8345e692c0f86e5b48e01b996cadc001622fb5e363b421b90100000000000000000000000000000000000000000000000000000000000000000000000000000000000000000000000000000000000000000000000000000000000000000000000000000000000000000000000000000000000000000000000000000000000000000000000000000000000000000000000000000000000000000000000000000000000000000000000000000000000000000000000000000000000000000000000000000000000000000000000000000000000000000000000000000000000000000000000000000000000000000000000000000000000000000000000000000000000000000000000000000000000000000000000000000000008302000080830186a0808203b642a056e81f171bcc55a6ff8345e692c0f86e5b48e01b996cadc001622fb5e363b421880102030405060708c0c0",
        "lastblockhash" : "0xd9e89becf949b15f24f0bf9538d102522e17b87b3eecd97f42e496cff985a9db",
        "network" : "EIP150",
        "postState" : {
            "0x2adc25665018aa1fe0e6bc666dac8fc2697ff9ba" : {
                "balance" : "0x4563918244f45208",
                "code" : "",
                "nonce" : "0x00",
                "storage" : {
                }
            },
            "0xa94f5374fce5edbc8e2a8697c15331677e6ebf0b" : {
                "balance" : "0x0eefd4",
                "code" : "",
                "nonce" : "0x01",
                "storage" : {
                }
            },
            "0xffffffffffffffffffffffffffffffffffffffff" : {
                "balance" : "0x64",
                "code" : "",
                "nonce" : "0x00",
                "storage" : {
                }
            }
        },
        "pre" : {
            "0xa94f5374fce5edbc8e2a8697c15331677e6ebf0b" : {
                "balance" : "0x0f4240",
                "code" : "",
                "nonce" : "0x00",
                "storage" : {
                }
            }
        }
    },
    "TransactionToAddressh160minusOne_d0g0v0_EIP158" : {
        "_info" : {
            "comment" : "",
            "filledwith" : "cpp-1.3.0+commit.274a516d.Linux.g++",
            "lllcversion" : "Version: 0.4.18-develop.2017.9.25+commit.a72237f2.Linux.g++",
            "source" : "src/BlockchainTestsFiller/GeneralStateTests/stTransactionTest/TransactionToAddressh160minusOne_d0g0v0Filler.json"
        },
        "blocks" : [
            {
                "blockHeader" : {
                    "bloom" : "0x00000000000000000000000000000000000000000000000000000000000000000000000000000000000000000000000000000000000000000000000000000000000000000000000000000000000000000000000000000000000000000000000000000000000000000000000000000000000000000000000000000000000000000000000000000000000000000000000000000000000000000000000000000000000000000000000000000000000000000000000000000000000000000000000000000000000000000000000000000000000000000000000000000000000000000000000000000000000000000000000000000000000000000000000000000000",
                    "coinbase" : "0x2adc25665018aa1fe0e6bc666dac8fc2697ff9ba",
                    "difficulty" : "0x020000",
                    "extraData" : "",
                    "gasLimit" : "0x0186a0",
                    "gasUsed" : "0x5208",
                    "hash" : "0x64e583fffd7fb6d545521e1d8d45a82f140b70da4d522aa6a33a3e8034a300d0",
                    "mixHash" : "0x8e3ce1588dec9ad51b418a08ebf18733268c2a2b3c8e3a25668bfd3264228615",
                    "nonce" : "0x95326aff1f78c286",
                    "number" : "0x01",
                    "parentHash" : "0x2dad82330b76eaaddb3aa41a18e76328a81569253e4a2e03f7d8b8c515fa3ed3",
                    "receiptTrie" : "0xe3154d5d84e1c1c4511bd9997cc0010a7eb27547a595e46f33f9afd7209f3cb2",
                    "stateRoot" : "0xe10e2f36e798437026c15ac465eca5a3f1eda897e8fa72218be91666dea49144",
                    "timestamp" : "0x03e8",
                    "transactionsTrie" : "0xad2e6d9252215a778d4f9320756c87aa335089252ac5374d0f7f91a7bc9421e8",
                    "uncleHash" : "0x1dcc4de8dec75d7aab85b567b6ccd41ad312451b948a7413f0a142fd40d49347"
                },
                "rlp" : "0xf9025ef901f7a02dad82330b76eaaddb3aa41a18e76328a81569253e4a2e03f7d8b8c515fa3ed3a01dcc4de8dec75d7aab85b567b6ccd41ad312451b948a7413f0a142fd40d49347942adc25665018aa1fe0e6bc666dac8fc2697ff9baa0e10e2f36e798437026c15ac465eca5a3f1eda897e8fa72218be91666dea49144a0ad2e6d9252215a778d4f9320756c87aa335089252ac5374d0f7f91a7bc9421e8a0e3154d5d84e1c1c4511bd9997cc0010a7eb27547a595e46f33f9afd7209f3cb2b90100000000000000000000000000000000000000000000000000000000000000000000000000000000000000000000000000000000000000000000000000000000000000000000000000000000000000000000000000000000000000000000000000000000000000000000000000000000000000000000000000000000000000000000000000000000000000000000000000000000000000000000000000000000000000000000000000000000000000000000000000000000000000000000000000000000000000000000000000000000000000000000000000000000000000000000000000000000000000000000000000000000000000000000000000000000008302000001830186a08252088203e880a08e3ce1588dec9ad51b418a08ebf18733268c2a2b3c8e3a25668bfd32642286158895326aff1f78c286f861f85f80018255f094ffffffffffffffffffffffffffffffffffffffff64801ba0ac6685386233850275d55689989147ee899236eb731f063c6f44dcc4bcaea113a0263d5ba24e220a6be65c832ed8f543e706521be0bf7cd82893aa3cde761b771bc0",
                "transactions" : [
                    {
                        "data" : "",
                        "gasLimit" : "0x55f0",
                        "gasPrice" : "0x01",
                        "nonce" : "0x00",
                        "r" : "0xac6685386233850275d55689989147ee899236eb731f063c6f44dcc4bcaea113",
                        "s" : "0x263d5ba24e220a6be65c832ed8f543e706521be0bf7cd82893aa3cde761b771b",
                        "to" : "0xffffffffffffffffffffffffffffffffffffffff",
                        "v" : "0x1b",
                        "value" : "0x64"
                    }
                ],
                "uncleHeaders" : [
                ]
            }
        ],
        "genesisBlockHeader" : {
            "bloom" : "0x00000000000000000000000000000000000000000000000000000000000000000000000000000000000000000000000000000000000000000000000000000000000000000000000000000000000000000000000000000000000000000000000000000000000000000000000000000000000000000000000000000000000000000000000000000000000000000000000000000000000000000000000000000000000000000000000000000000000000000000000000000000000000000000000000000000000000000000000000000000000000000000000000000000000000000000000000000000000000000000000000000000000000000000000000000000",
            "coinbase" : "0x2adc25665018aa1fe0e6bc666dac8fc2697ff9ba",
            "difficulty" : "0x020000",
            "extraData" : "0x42",
            "gasLimit" : "0x0186a0",
            "gasUsed" : "0x00",
            "hash" : "0x2dad82330b76eaaddb3aa41a18e76328a81569253e4a2e03f7d8b8c515fa3ed3",
            "mixHash" : "0x56e81f171bcc55a6ff8345e692c0f86e5b48e01b996cadc001622fb5e363b421",
            "nonce" : "0x0102030405060708",
            "number" : "0x00",
            "parentHash" : "0x0000000000000000000000000000000000000000000000000000000000000000",
            "receiptTrie" : "0x56e81f171bcc55a6ff8345e692c0f86e5b48e01b996cadc001622fb5e363b421",
            "stateRoot" : "0x18c1342886baeaf926b3fbbfb0484bf0cd1ced43576547c11153d3c8944d5c47",
            "timestamp" : "0x03b6",
            "transactionsTrie" : "0x56e81f171bcc55a6ff8345e692c0f86e5b48e01b996cadc001622fb5e363b421",
            "uncleHash" : "0x1dcc4de8dec75d7aab85b567b6ccd41ad312451b948a7413f0a142fd40d49347"
        },
        "genesisRLP" : "0xf901faf901f5a00000000000000000000000000000000000000000000000000000000000000000a01dcc4de8dec75d7aab85b567b6ccd41ad312451b948a7413f0a142fd40d49347942adc25665018aa1fe0e6bc666dac8fc2697ff9baa018c1342886baeaf926b3fbbfb0484bf0cd1ced43576547c11153d3c8944d5c47a056e81f171bcc55a6ff8345e692c0f86e5b48e01b996cadc001622fb5e363b421a056e81f171bcc55a6ff8345e692c0f86e5b48e01b996cadc001622fb5e363b421b90100000000000000000000000000000000000000000000000000000000000000000000000000000000000000000000000000000000000000000000000000000000000000000000000000000000000000000000000000000000000000000000000000000000000000000000000000000000000000000000000000000000000000000000000000000000000000000000000000000000000000000000000000000000000000000000000000000000000000000000000000000000000000000000000000000000000000000000000000000000000000000000000000000000000000000000000000000000000000000000000000000000000000000000000000000000008302000080830186a0808203b642a056e81f171bcc55a6ff8345e692c0f86e5b48e01b996cadc001622fb5e363b421880102030405060708c0c0",
        "lastblockhash" : "0x64e583fffd7fb6d545521e1d8d45a82f140b70da4d522aa6a33a3e8034a300d0",
        "network" : "EIP158",
        "postState" : {
            "0x2adc25665018aa1fe0e6bc666dac8fc2697ff9ba" : {
                "balance" : "0x4563918244f45208",
                "code" : "",
                "nonce" : "0x00",
                "storage" : {
                }
            },
            "0xa94f5374fce5edbc8e2a8697c15331677e6ebf0b" : {
                "balance" : "0x0eefd4",
                "code" : "",
                "nonce" : "0x01",
                "storage" : {
                }
            },
            "0xffffffffffffffffffffffffffffffffffffffff" : {
                "balance" : "0x64",
                "code" : "",
                "nonce" : "0x00",
                "storage" : {
                }
            }
        },
        "pre" : {
            "0xa94f5374fce5edbc8e2a8697c15331677e6ebf0b" : {
                "balance" : "0x0f4240",
                "code" : "",
                "nonce" : "0x00",
                "storage" : {
                }
            }
        }
    },
    "TransactionToAddressh160minusOne_d0g0v0_Frontier" : {
        "_info" : {
            "comment" : "",
            "filledwith" : "cpp-1.3.0+commit.274a516d.Linux.g++",
            "lllcversion" : "Version: 0.4.18-develop.2017.9.25+commit.a72237f2.Linux.g++",
            "source" : "src/BlockchainTestsFiller/GeneralStateTests/stTransactionTest/TransactionToAddressh160minusOne_d0g0v0Filler.json"
        },
        "blocks" : [
            {
                "blockHeader" : {
                    "bloom" : "0x00000000000000000000000000000000000000000000000000000000000000000000000000000000000000000000000000000000000000000000000000000000000000000000000000000000000000000000000000000000000000000000000000000000000000000000000000000000000000000000000000000000000000000000000000000000000000000000000000000000000000000000000000000000000000000000000000000000000000000000000000000000000000000000000000000000000000000000000000000000000000000000000000000000000000000000000000000000000000000000000000000000000000000000000000000000",
                    "coinbase" : "0x2adc25665018aa1fe0e6bc666dac8fc2697ff9ba",
                    "difficulty" : "0x020000",
                    "extraData" : "",
                    "gasLimit" : "0x0186a0",
                    "gasUsed" : "0x5208",
                    "hash" : "0x0292f514317d99aa1a00379eef0694ff268ef02d6576491c0e85b452bde831c0",
                    "mixHash" : "0x6d1820fa7a2ac8bd1085f4948252a8bbad305729f6fe345461735086b2cd750e",
                    "nonce" : "0xe242d29dc3d08e07",
                    "number" : "0x01",
                    "parentHash" : "0x2dad82330b76eaaddb3aa41a18e76328a81569253e4a2e03f7d8b8c515fa3ed3",
                    "receiptTrie" : "0xe3154d5d84e1c1c4511bd9997cc0010a7eb27547a595e46f33f9afd7209f3cb2",
                    "stateRoot" : "0xe10e2f36e798437026c15ac465eca5a3f1eda897e8fa72218be91666dea49144",
                    "timestamp" : "0x03e8",
                    "transactionsTrie" : "0xad2e6d9252215a778d4f9320756c87aa335089252ac5374d0f7f91a7bc9421e8",
                    "uncleHash" : "0x1dcc4de8dec75d7aab85b567b6ccd41ad312451b948a7413f0a142fd40d49347"
                },
                "rlp" : "0xf9025ef901f7a02dad82330b76eaaddb3aa41a18e76328a81569253e4a2e03f7d8b8c515fa3ed3a01dcc4de8dec75d7aab85b567b6ccd41ad312451b948a7413f0a142fd40d49347942adc25665018aa1fe0e6bc666dac8fc2697ff9baa0e10e2f36e798437026c15ac465eca5a3f1eda897e8fa72218be91666dea49144a0ad2e6d9252215a778d4f9320756c87aa335089252ac5374d0f7f91a7bc9421e8a0e3154d5d84e1c1c4511bd9997cc0010a7eb27547a595e46f33f9afd7209f3cb2b90100000000000000000000000000000000000000000000000000000000000000000000000000000000000000000000000000000000000000000000000000000000000000000000000000000000000000000000000000000000000000000000000000000000000000000000000000000000000000000000000000000000000000000000000000000000000000000000000000000000000000000000000000000000000000000000000000000000000000000000000000000000000000000000000000000000000000000000000000000000000000000000000000000000000000000000000000000000000000000000000000000000000000000000000000000000008302000001830186a08252088203e880a06d1820fa7a2ac8bd1085f4948252a8bbad305729f6fe345461735086b2cd750e88e242d29dc3d08e07f861f85f80018255f094ffffffffffffffffffffffffffffffffffffffff64801ba0ac6685386233850275d55689989147ee899236eb731f063c6f44dcc4bcaea113a0263d5ba24e220a6be65c832ed8f543e706521be0bf7cd82893aa3cde761b771bc0",
                "transactions" : [
                    {
                        "data" : "",
                        "gasLimit" : "0x55f0",
                        "gasPrice" : "0x01",
                        "nonce" : "0x00",
                        "r" : "0xac6685386233850275d55689989147ee899236eb731f063c6f44dcc4bcaea113",
                        "s" : "0x263d5ba24e220a6be65c832ed8f543e706521be0bf7cd82893aa3cde761b771b",
                        "to" : "0xffffffffffffffffffffffffffffffffffffffff",
                        "v" : "0x1b",
                        "value" : "0x64"
                    }
                ],
                "uncleHeaders" : [
                ]
            }
        ],
        "genesisBlockHeader" : {
            "bloom" : "0x00000000000000000000000000000000000000000000000000000000000000000000000000000000000000000000000000000000000000000000000000000000000000000000000000000000000000000000000000000000000000000000000000000000000000000000000000000000000000000000000000000000000000000000000000000000000000000000000000000000000000000000000000000000000000000000000000000000000000000000000000000000000000000000000000000000000000000000000000000000000000000000000000000000000000000000000000000000000000000000000000000000000000000000000000000000",
            "coinbase" : "0x2adc25665018aa1fe0e6bc666dac8fc2697ff9ba",
            "difficulty" : "0x020000",
            "extraData" : "0x42",
            "gasLimit" : "0x0186a0",
            "gasUsed" : "0x00",
            "hash" : "0x2dad82330b76eaaddb3aa41a18e76328a81569253e4a2e03f7d8b8c515fa3ed3",
            "mixHash" : "0x56e81f171bcc55a6ff8345e692c0f86e5b48e01b996cadc001622fb5e363b421",
            "nonce" : "0x0102030405060708",
            "number" : "0x00",
            "parentHash" : "0x0000000000000000000000000000000000000000000000000000000000000000",
            "receiptTrie" : "0x56e81f171bcc55a6ff8345e692c0f86e5b48e01b996cadc001622fb5e363b421",
            "stateRoot" : "0x18c1342886baeaf926b3fbbfb0484bf0cd1ced43576547c11153d3c8944d5c47",
            "timestamp" : "0x03b6",
            "transactionsTrie" : "0x56e81f171bcc55a6ff8345e692c0f86e5b48e01b996cadc001622fb5e363b421",
            "uncleHash" : "0x1dcc4de8dec75d7aab85b567b6ccd41ad312451b948a7413f0a142fd40d49347"
        },
        "genesisRLP" : "0xf901faf901f5a00000000000000000000000000000000000000000000000000000000000000000a01dcc4de8dec75d7aab85b567b6ccd41ad312451b948a7413f0a142fd40d49347942adc25665018aa1fe0e6bc666dac8fc2697ff9baa018c1342886baeaf926b3fbbfb0484bf0cd1ced43576547c11153d3c8944d5c47a056e81f171bcc55a6ff8345e692c0f86e5b48e01b996cadc001622fb5e363b421a056e81f171bcc55a6ff8345e692c0f86e5b48e01b996cadc001622fb5e363b421b90100000000000000000000000000000000000000000000000000000000000000000000000000000000000000000000000000000000000000000000000000000000000000000000000000000000000000000000000000000000000000000000000000000000000000000000000000000000000000000000000000000000000000000000000000000000000000000000000000000000000000000000000000000000000000000000000000000000000000000000000000000000000000000000000000000000000000000000000000000000000000000000000000000000000000000000000000000000000000000000000000000000000000000000000000000000008302000080830186a0808203b642a056e81f171bcc55a6ff8345e692c0f86e5b48e01b996cadc001622fb5e363b421880102030405060708c0c0",
        "lastblockhash" : "0x0292f514317d99aa1a00379eef0694ff268ef02d6576491c0e85b452bde831c0",
        "network" : "Frontier",
        "postState" : {
            "0x2adc25665018aa1fe0e6bc666dac8fc2697ff9ba" : {
                "balance" : "0x4563918244f45208",
                "code" : "",
                "nonce" : "0x00",
                "storage" : {
                }
            },
            "0xa94f5374fce5edbc8e2a8697c15331677e6ebf0b" : {
                "balance" : "0x0eefd4",
                "code" : "",
                "nonce" : "0x01",
                "storage" : {
                }
            },
            "0xffffffffffffffffffffffffffffffffffffffff" : {
                "balance" : "0x64",
                "code" : "",
                "nonce" : "0x00",
                "storage" : {
                }
            }
        },
        "pre" : {
            "0xa94f5374fce5edbc8e2a8697c15331677e6ebf0b" : {
                "balance" : "0x0f4240",
                "code" : "",
                "nonce" : "0x00",
                "storage" : {
                }
            }
        }
    },
    "TransactionToAddressh160minusOne_d0g0v0_Homestead" : {
        "_info" : {
            "comment" : "",
            "filledwith" : "cpp-1.3.0+commit.274a516d.Linux.g++",
            "lllcversion" : "Version: 0.4.18-develop.2017.9.25+commit.a72237f2.Linux.g++",
            "source" : "src/BlockchainTestsFiller/GeneralStateTests/stTransactionTest/TransactionToAddressh160minusOne_d0g0v0Filler.json"
        },
        "blocks" : [
            {
                "blockHeader" : {
                    "bloom" : "0x00000000000000000000000000000000000000000000000000000000000000000000000000000000000000000000000000000000000000000000000000000000000000000000000000000000000000000000000000000000000000000000000000000000000000000000000000000000000000000000000000000000000000000000000000000000000000000000000000000000000000000000000000000000000000000000000000000000000000000000000000000000000000000000000000000000000000000000000000000000000000000000000000000000000000000000000000000000000000000000000000000000000000000000000000000000",
                    "coinbase" : "0x2adc25665018aa1fe0e6bc666dac8fc2697ff9ba",
                    "difficulty" : "0x020000",
                    "extraData" : "",
                    "gasLimit" : "0x0186a0",
                    "gasUsed" : "0x5208",
                    "hash" : "0xd8712106590e4074f4bb95f87773a02755048d72130f7b08f2727917c45e27a9",
                    "mixHash" : "0x1892ec29cd3b250fd382c373b650208ef530d7319ab26aade6a85dbf2e79a1e9",
                    "nonce" : "0x2134a7d6a23b5048",
                    "number" : "0x01",
                    "parentHash" : "0x2dad82330b76eaaddb3aa41a18e76328a81569253e4a2e03f7d8b8c515fa3ed3",
                    "receiptTrie" : "0xe3154d5d84e1c1c4511bd9997cc0010a7eb27547a595e46f33f9afd7209f3cb2",
                    "stateRoot" : "0xe10e2f36e798437026c15ac465eca5a3f1eda897e8fa72218be91666dea49144",
                    "timestamp" : "0x03e8",
                    "transactionsTrie" : "0xad2e6d9252215a778d4f9320756c87aa335089252ac5374d0f7f91a7bc9421e8",
                    "uncleHash" : "0x1dcc4de8dec75d7aab85b567b6ccd41ad312451b948a7413f0a142fd40d49347"
                },
                "rlp" : "0xf9025ef901f7a02dad82330b76eaaddb3aa41a18e76328a81569253e4a2e03f7d8b8c515fa3ed3a01dcc4de8dec75d7aab85b567b6ccd41ad312451b948a7413f0a142fd40d49347942adc25665018aa1fe0e6bc666dac8fc2697ff9baa0e10e2f36e798437026c15ac465eca5a3f1eda897e8fa72218be91666dea49144a0ad2e6d9252215a778d4f9320756c87aa335089252ac5374d0f7f91a7bc9421e8a0e3154d5d84e1c1c4511bd9997cc0010a7eb27547a595e46f33f9afd7209f3cb2b90100000000000000000000000000000000000000000000000000000000000000000000000000000000000000000000000000000000000000000000000000000000000000000000000000000000000000000000000000000000000000000000000000000000000000000000000000000000000000000000000000000000000000000000000000000000000000000000000000000000000000000000000000000000000000000000000000000000000000000000000000000000000000000000000000000000000000000000000000000000000000000000000000000000000000000000000000000000000000000000000000000000000000000000000000000000008302000001830186a08252088203e880a01892ec29cd3b250fd382c373b650208ef530d7319ab26aade6a85dbf2e79a1e9882134a7d6a23b5048f861f85f80018255f094ffffffffffffffffffffffffffffffffffffffff64801ba0ac6685386233850275d55689989147ee899236eb731f063c6f44dcc4bcaea113a0263d5ba24e220a6be65c832ed8f543e706521be0bf7cd82893aa3cde761b771bc0",
                "transactions" : [
                    {
                        "data" : "",
                        "gasLimit" : "0x55f0",
                        "gasPrice" : "0x01",
                        "nonce" : "0x00",
                        "r" : "0xac6685386233850275d55689989147ee899236eb731f063c6f44dcc4bcaea113",
                        "s" : "0x263d5ba24e220a6be65c832ed8f543e706521be0bf7cd82893aa3cde761b771b",
                        "to" : "0xffffffffffffffffffffffffffffffffffffffff",
                        "v" : "0x1b",
                        "value" : "0x64"
                    }
                ],
                "uncleHeaders" : [
                ]
            }
        ],
        "genesisBlockHeader" : {
            "bloom" : "0x00000000000000000000000000000000000000000000000000000000000000000000000000000000000000000000000000000000000000000000000000000000000000000000000000000000000000000000000000000000000000000000000000000000000000000000000000000000000000000000000000000000000000000000000000000000000000000000000000000000000000000000000000000000000000000000000000000000000000000000000000000000000000000000000000000000000000000000000000000000000000000000000000000000000000000000000000000000000000000000000000000000000000000000000000000000",
            "coinbase" : "0x2adc25665018aa1fe0e6bc666dac8fc2697ff9ba",
            "difficulty" : "0x020000",
            "extraData" : "0x42",
            "gasLimit" : "0x0186a0",
            "gasUsed" : "0x00",
            "hash" : "0x2dad82330b76eaaddb3aa41a18e76328a81569253e4a2e03f7d8b8c515fa3ed3",
            "mixHash" : "0x56e81f171bcc55a6ff8345e692c0f86e5b48e01b996cadc001622fb5e363b421",
            "nonce" : "0x0102030405060708",
            "number" : "0x00",
            "parentHash" : "0x0000000000000000000000000000000000000000000000000000000000000000",
            "receiptTrie" : "0x56e81f171bcc55a6ff8345e692c0f86e5b48e01b996cadc001622fb5e363b421",
            "stateRoot" : "0x18c1342886baeaf926b3fbbfb0484bf0cd1ced43576547c11153d3c8944d5c47",
            "timestamp" : "0x03b6",
            "transactionsTrie" : "0x56e81f171bcc55a6ff8345e692c0f86e5b48e01b996cadc001622fb5e363b421",
            "uncleHash" : "0x1dcc4de8dec75d7aab85b567b6ccd41ad312451b948a7413f0a142fd40d49347"
        },
        "genesisRLP" : "0xf901faf901f5a00000000000000000000000000000000000000000000000000000000000000000a01dcc4de8dec75d7aab85b567b6ccd41ad312451b948a7413f0a142fd40d49347942adc25665018aa1fe0e6bc666dac8fc2697ff9baa018c1342886baeaf926b3fbbfb0484bf0cd1ced43576547c11153d3c8944d5c47a056e81f171bcc55a6ff8345e692c0f86e5b48e01b996cadc001622fb5e363b421a056e81f171bcc55a6ff8345e692c0f86e5b48e01b996cadc001622fb5e363b421b90100000000000000000000000000000000000000000000000000000000000000000000000000000000000000000000000000000000000000000000000000000000000000000000000000000000000000000000000000000000000000000000000000000000000000000000000000000000000000000000000000000000000000000000000000000000000000000000000000000000000000000000000000000000000000000000000000000000000000000000000000000000000000000000000000000000000000000000000000000000000000000000000000000000000000000000000000000000000000000000000000000000000000000000000000000000008302000080830186a0808203b642a056e81f171bcc55a6ff8345e692c0f86e5b48e01b996cadc001622fb5e363b421880102030405060708c0c0",
        "lastblockhash" : "0xd8712106590e4074f4bb95f87773a02755048d72130f7b08f2727917c45e27a9",
        "network" : "Homestead",
        "postState" : {
            "0x2adc25665018aa1fe0e6bc666dac8fc2697ff9ba" : {
                "balance" : "0x4563918244f45208",
                "code" : "",
                "nonce" : "0x00",
                "storage" : {
                }
            },
            "0xa94f5374fce5edbc8e2a8697c15331677e6ebf0b" : {
                "balance" : "0x0eefd4",
                "code" : "",
                "nonce" : "0x01",
                "storage" : {
                }
            },
            "0xffffffffffffffffffffffffffffffffffffffff" : {
                "balance" : "0x64",
                "code" : "",
                "nonce" : "0x00",
                "storage" : {
                }
            }
        },
        "pre" : {
            "0xa94f5374fce5edbc8e2a8697c15331677e6ebf0b" : {
                "balance" : "0x0f4240",
                "code" : "",
                "nonce" : "0x00",
                "storage" : {
                }
            }
        }
    }
}