{
    "TransactionSendingToEmpty_d0g0v0_EIP150" : {
        "_info" : {
            "comment" : "",
            "filledwith" : "cpp-1.3.0+commit.16292201.Linux.g++",
            "source" : "/src/GenStateTestAsBcTemp/stTransactionTest/TransactionSendingToEmpty_d0g0v0Filler.json"
        },
        "blocks" : [
            {
                "blockHeader" : {
                    "bloom" : "0x00000000000000000000000000000000000000000000000000000000000000000000000000000000000000000000000000000000000000000000000000000000000000000000000000000000000000000000000000000000000000000000000000000000000000000000000000000000000000000000000000000000000000000000000000000000000000000000000000000000000000000000000000000000000000000000000000000000000000000000000000000000000000000000000000000000000000000000000000000000000000000000000000000000000000000000000000000000000000000000000000000000000000000000000000000000",
                    "coinbase" : "0x2adc25665018aa1fe0e6bc666dac8fc2697ff9ba",
                    "difficulty" : "0x020000",
                    "extraData" : "",
                    "gasLimit" : "0x0f4240",
                    "gasUsed" : "0xcf08",
                    "hash" : "0x73c3752bb62166b028c4203594331c29bf4fdc774cc8cfdeffa8990a9302f424",
                    "mixHash" : "0x84c22492079213e0c1a78027e9ea54f7f4a554158cbc1f3aa81e5054f9aae042",
                    "nonce" : "0x42d5a421dc1a2d65",
                    "number" : "0x01",
                    "parentHash" : "0xa35295e248019d92600a60b59a979ce901ef66ecce774eb31fa3455fade18546",
                    "receiptTrie" : "0xd11e275fbdc99a06922953905445bde6c2dd3431d02d21b1aaab0a332953484a",
                    "stateRoot" : "0xc7d01467d5efabfd948abc8b232d7bd8f86e91d277c4e2f77872489948e3b55c",
                    "timestamp" : "0x03e8",
                    "transactionsTrie" : "0x6d92c707ac4e8033c84ca909ce20bc586f716910c851add5fa69ee779c4d0a0d",
                    "uncleHash" : "0x1dcc4de8dec75d7aab85b567b6ccd41ad312451b948a7413f0a142fd40d49347"
                },
                "rlp" : "0xf9024af901f7a0a35295e248019d92600a60b59a979ce901ef66ecce774eb31fa3455fade18546a01dcc4de8dec75d7aab85b567b6ccd41ad312451b948a7413f0a142fd40d49347942adc25665018aa1fe0e6bc666dac8fc2697ff9baa0c7d01467d5efabfd948abc8b232d7bd8f86e91d277c4e2f77872489948e3b55ca06d92c707ac4e8033c84ca909ce20bc586f716910c851add5fa69ee779c4d0a0da0d11e275fbdc99a06922953905445bde6c2dd3431d02d21b1aaab0a332953484ab90100000000000000000000000000000000000000000000000000000000000000000000000000000000000000000000000000000000000000000000000000000000000000000000000000000000000000000000000000000000000000000000000000000000000000000000000000000000000000000000000000000000000000000000000000000000000000000000000000000000000000000000000000000000000000000000000000000000000000000000000000000000000000000000000000000000000000000000000000000000000000000000000000000000000000000000000000000000000000000000000000000000000000000000000000000000008302000001830f424082cf088203e880a084c22492079213e0c1a78027e9ea54f7f4a554158cbc1f3aa81e5054f9aae0428842d5a421dc1a2d65f84df84b800182cf088080801ba0f6b27c1075ce373c92749a7b7685770029e4dbee63f0ad37f64a896c8a46866fa064ee361a7afd43e15e7dd5997a502beb3c2692b5f9f67a1dbb362856597075a1c0",
                "transactions" : [
                    {
                        "data" : "",
                        "gasLimit" : "0xcf08",
                        "gasPrice" : "0x01",
                        "nonce" : "0x00",
                        "r" : "0xf6b27c1075ce373c92749a7b7685770029e4dbee63f0ad37f64a896c8a46866f",
                        "s" : "0x64ee361a7afd43e15e7dd5997a502beb3c2692b5f9f67a1dbb362856597075a1",
                        "to" : "",
                        "v" : "0x1b",
                        "value" : "0x00"
                    }
                ],
                "uncleHeaders" : [
                ]
            }
        ],
        "genesisBlockHeader" : {
            "bloom" : "0x00000000000000000000000000000000000000000000000000000000000000000000000000000000000000000000000000000000000000000000000000000000000000000000000000000000000000000000000000000000000000000000000000000000000000000000000000000000000000000000000000000000000000000000000000000000000000000000000000000000000000000000000000000000000000000000000000000000000000000000000000000000000000000000000000000000000000000000000000000000000000000000000000000000000000000000000000000000000000000000000000000000000000000000000000000000",
            "coinbase" : "0x2adc25665018aa1fe0e6bc666dac8fc2697ff9ba",
            "difficulty" : "0x020000",
            "extraData" : "0x42",
            "gasLimit" : "0x0f4240",
            "gasUsed" : "0x00",
            "hash" : "0xa35295e248019d92600a60b59a979ce901ef66ecce774eb31fa3455fade18546",
            "mixHash" : "0x56e81f171bcc55a6ff8345e692c0f86e5b48e01b996cadc001622fb5e363b421",
            "nonce" : "0x0102030405060708",
            "number" : "0x00",
            "parentHash" : "0x0000000000000000000000000000000000000000000000000000000000000000",
            "receiptTrie" : "0x56e81f171bcc55a6ff8345e692c0f86e5b48e01b996cadc001622fb5e363b421",
            "stateRoot" : "0xa3e1c133a5a51b03399ed9ad0380f3182e9e18322f232b816dd4b9094f871e1b",
            "timestamp" : "0x03b6",
            "transactionsTrie" : "0x56e81f171bcc55a6ff8345e692c0f86e5b48e01b996cadc001622fb5e363b421",
            "uncleHash" : "0x1dcc4de8dec75d7aab85b567b6ccd41ad312451b948a7413f0a142fd40d49347"
        },
        "genesisRLP" : "0xf901faf901f5a00000000000000000000000000000000000000000000000000000000000000000a01dcc4de8dec75d7aab85b567b6ccd41ad312451b948a7413f0a142fd40d49347942adc25665018aa1fe0e6bc666dac8fc2697ff9baa0a3e1c133a5a51b03399ed9ad0380f3182e9e18322f232b816dd4b9094f871e1ba056e81f171bcc55a6ff8345e692c0f86e5b48e01b996cadc001622fb5e363b421a056e81f171bcc55a6ff8345e692c0f86e5b48e01b996cadc001622fb5e363b421b90100000000000000000000000000000000000000000000000000000000000000000000000000000000000000000000000000000000000000000000000000000000000000000000000000000000000000000000000000000000000000000000000000000000000000000000000000000000000000000000000000000000000000000000000000000000000000000000000000000000000000000000000000000000000000000000000000000000000000000000000000000000000000000000000000000000000000000000000000000000000000000000000000000000000000000000000000000000000000000000000000000000000000000000000000000000008302000080830f4240808203b642a056e81f171bcc55a6ff8345e692c0f86e5b48e01b996cadc001622fb5e363b421880102030405060708c0c0",
        "lastblockhash" : "0x73c3752bb62166b028c4203594331c29bf4fdc774cc8cfdeffa8990a9302f424",
        "network" : "EIP150",
        "postState" : {
            "0x2adc25665018aa1fe0e6bc666dac8fc2697ff9ba" : {
                "balance" : "0x4563918244f4cf08",
                "code" : "",
                "nonce" : "0x00",
                "storage" : {
                }
            },
            "0x6295ee1b4f6dd65047762f924ecd367c17eabf8f" : {
                "balance" : "0x00",
                "code" : "",
                "nonce" : "0x00",
                "storage" : {
                }
            },
            "0xa94f5374fce5edbc8e2a8697c15331677e6ebf0b" : {
                "balance" : "0xb798",
                "code" : "",
                "nonce" : "0x01",
                "storage" : {
                }
            }
        },
        "pre" : {
            "0xa94f5374fce5edbc8e2a8697c15331677e6ebf0b" : {
                "balance" : "0x0186a0",
                "code" : "",
                "nonce" : "0x00",
                "storage" : {
                }
            }
        }
    },
    "TransactionSendingToEmpty_d0g0v0_EIP158" : {
        "_info" : {
            "comment" : "",
            "filledwith" : "cpp-1.3.0+commit.16292201.Linux.g++",
            "source" : "/src/GenStateTestAsBcTemp/stTransactionTest/TransactionSendingToEmpty_d0g0v0Filler.json"
        },
        "blocks" : [
            {
                "blockHeader" : {
                    "bloom" : "0x00000000000000000000000000000000000000000000000000000000000000000000000000000000000000000000000000000000000000000000000000000000000000000000000000000000000000000000000000000000000000000000000000000000000000000000000000000000000000000000000000000000000000000000000000000000000000000000000000000000000000000000000000000000000000000000000000000000000000000000000000000000000000000000000000000000000000000000000000000000000000000000000000000000000000000000000000000000000000000000000000000000000000000000000000000000",
                    "coinbase" : "0x2adc25665018aa1fe0e6bc666dac8fc2697ff9ba",
                    "difficulty" : "0x020000",
                    "extraData" : "",
                    "gasLimit" : "0x0f4240",
                    "gasUsed" : "0xcf08",
                    "hash" : "0x435edcc5ae169747fdeab6926b75e5456dc9fef7929eb59865391721d5c4abc9",
                    "mixHash" : "0xfd87f54e61e7d781bd468917a82a0cd96029bb8a793a1d82912f17bbca30635c",
                    "nonce" : "0xd7abe9f8098c42ed",
                    "number" : "0x01",
                    "parentHash" : "0xa35295e248019d92600a60b59a979ce901ef66ecce774eb31fa3455fade18546",
                    "receiptTrie" : "0xb429c3551132cbac07f2672b45e940eac28afbe13652eada0a8d07644f51d959",
                    "stateRoot" : "0xa951fc830a4f6288a59baab59fab9450e5e4587b023d280655dbb2e90aee1580",
                    "timestamp" : "0x03e8",
                    "transactionsTrie" : "0x6d92c707ac4e8033c84ca909ce20bc586f716910c851add5fa69ee779c4d0a0d",
                    "uncleHash" : "0x1dcc4de8dec75d7aab85b567b6ccd41ad312451b948a7413f0a142fd40d49347"
                },
                "rlp" : "0xf9024af901f7a0a35295e248019d92600a60b59a979ce901ef66ecce774eb31fa3455fade18546a01dcc4de8dec75d7aab85b567b6ccd41ad312451b948a7413f0a142fd40d49347942adc25665018aa1fe0e6bc666dac8fc2697ff9baa0a951fc830a4f6288a59baab59fab9450e5e4587b023d280655dbb2e90aee1580a06d92c707ac4e8033c84ca909ce20bc586f716910c851add5fa69ee779c4d0a0da0b429c3551132cbac07f2672b45e940eac28afbe13652eada0a8d07644f51d959b90100000000000000000000000000000000000000000000000000000000000000000000000000000000000000000000000000000000000000000000000000000000000000000000000000000000000000000000000000000000000000000000000000000000000000000000000000000000000000000000000000000000000000000000000000000000000000000000000000000000000000000000000000000000000000000000000000000000000000000000000000000000000000000000000000000000000000000000000000000000000000000000000000000000000000000000000000000000000000000000000000000000000000000000000000000000008302000001830f424082cf088203e880a0fd87f54e61e7d781bd468917a82a0cd96029bb8a793a1d82912f17bbca30635c88d7abe9f8098c42edf84df84b800182cf088080801ba0f6b27c1075ce373c92749a7b7685770029e4dbee63f0ad37f64a896c8a46866fa064ee361a7afd43e15e7dd5997a502beb3c2692b5f9f67a1dbb362856597075a1c0",
                "transactions" : [
                    {
                        "data" : "",
                        "gasLimit" : "0xcf08",
                        "gasPrice" : "0x01",
                        "nonce" : "0x00",
                        "r" : "0xf6b27c1075ce373c92749a7b7685770029e4dbee63f0ad37f64a896c8a46866f",
                        "s" : "0x64ee361a7afd43e15e7dd5997a502beb3c2692b5f9f67a1dbb362856597075a1",
                        "to" : "",
                        "v" : "0x1b",
                        "value" : "0x00"
                    }
                ],
                "uncleHeaders" : [
                ]
            }
        ],
        "genesisBlockHeader" : {
            "bloom" : "0x00000000000000000000000000000000000000000000000000000000000000000000000000000000000000000000000000000000000000000000000000000000000000000000000000000000000000000000000000000000000000000000000000000000000000000000000000000000000000000000000000000000000000000000000000000000000000000000000000000000000000000000000000000000000000000000000000000000000000000000000000000000000000000000000000000000000000000000000000000000000000000000000000000000000000000000000000000000000000000000000000000000000000000000000000000000",
            "coinbase" : "0x2adc25665018aa1fe0e6bc666dac8fc2697ff9ba",
            "difficulty" : "0x020000",
            "extraData" : "0x42",
            "gasLimit" : "0x0f4240",
            "gasUsed" : "0x00",
            "hash" : "0xa35295e248019d92600a60b59a979ce901ef66ecce774eb31fa3455fade18546",
            "mixHash" : "0x56e81f171bcc55a6ff8345e692c0f86e5b48e01b996cadc001622fb5e363b421",
            "nonce" : "0x0102030405060708",
            "number" : "0x00",
            "parentHash" : "0x0000000000000000000000000000000000000000000000000000000000000000",
            "receiptTrie" : "0x56e81f171bcc55a6ff8345e692c0f86e5b48e01b996cadc001622fb5e363b421",
            "stateRoot" : "0xa3e1c133a5a51b03399ed9ad0380f3182e9e18322f232b816dd4b9094f871e1b",
            "timestamp" : "0x03b6",
            "transactionsTrie" : "0x56e81f171bcc55a6ff8345e692c0f86e5b48e01b996cadc001622fb5e363b421",
            "uncleHash" : "0x1dcc4de8dec75d7aab85b567b6ccd41ad312451b948a7413f0a142fd40d49347"
        },
        "genesisRLP" : "0xf901faf901f5a00000000000000000000000000000000000000000000000000000000000000000a01dcc4de8dec75d7aab85b567b6ccd41ad312451b948a7413f0a142fd40d49347942adc25665018aa1fe0e6bc666dac8fc2697ff9baa0a3e1c133a5a51b03399ed9ad0380f3182e9e18322f232b816dd4b9094f871e1ba056e81f171bcc55a6ff8345e692c0f86e5b48e01b996cadc001622fb5e363b421a056e81f171bcc55a6ff8345e692c0f86e5b48e01b996cadc001622fb5e363b421b90100000000000000000000000000000000000000000000000000000000000000000000000000000000000000000000000000000000000000000000000000000000000000000000000000000000000000000000000000000000000000000000000000000000000000000000000000000000000000000000000000000000000000000000000000000000000000000000000000000000000000000000000000000000000000000000000000000000000000000000000000000000000000000000000000000000000000000000000000000000000000000000000000000000000000000000000000000000000000000000000000000000000000000000000000000000008302000080830f4240808203b642a056e81f171bcc55a6ff8345e692c0f86e5b48e01b996cadc001622fb5e363b421880102030405060708c0c0",
        "lastblockhash" : "0x435edcc5ae169747fdeab6926b75e5456dc9fef7929eb59865391721d5c4abc9",
        "network" : "EIP158",
        "postState" : {
            "0x2adc25665018aa1fe0e6bc666dac8fc2697ff9ba" : {
                "balance" : "0x4563918244f4cf08",
                "code" : "",
                "nonce" : "0x00",
                "storage" : {
                }
            },
            "0x6295ee1b4f6dd65047762f924ecd367c17eabf8f" : {
                "balance" : "0x00",
                "code" : "",
                "nonce" : "0x01",
                "storage" : {
                }
            },
            "0xa94f5374fce5edbc8e2a8697c15331677e6ebf0b" : {
                "balance" : "0xb798",
                "code" : "",
                "nonce" : "0x01",
                "storage" : {
                }
            }
        },
        "pre" : {
            "0xa94f5374fce5edbc8e2a8697c15331677e6ebf0b" : {
                "balance" : "0x0186a0",
                "code" : "",
                "nonce" : "0x00",
                "storage" : {
                }
            }
        }
    },
    "TransactionSendingToEmpty_d0g0v0_Frontier" : {
        "_info" : {
            "comment" : "",
            "filledwith" : "cpp-1.3.0+commit.16292201.Linux.g++",
            "source" : "/src/GenStateTestAsBcTemp/stTransactionTest/TransactionSendingToEmpty_d0g0v0Filler.json"
        },
        "blocks" : [
            {
                "blockHeader" : {
                    "bloom" : "0x00000000000000000000000000000000000000000000000000000000000000000000000000000000000000000000000000000000000000000000000000000000000000000000000000000000000000000000000000000000000000000000000000000000000000000000000000000000000000000000000000000000000000000000000000000000000000000000000000000000000000000000000000000000000000000000000000000000000000000000000000000000000000000000000000000000000000000000000000000000000000000000000000000000000000000000000000000000000000000000000000000000000000000000000000000000",
                    "coinbase" : "0x2adc25665018aa1fe0e6bc666dac8fc2697ff9ba",
                    "difficulty" : "0x020000",
                    "extraData" : "",
                    "gasLimit" : "0x0f4240",
                    "gasUsed" : "0x5208",
                    "hash" : "0x7cc0b4f352c3fe36bc223212ec652e151dc80f1b1fe2349d47d9e84c65bbce62",
                    "mixHash" : "0x3ae11cfd6c7b6377b3a6ef6366c23d05bf2349bcf10ed24f271d249caaedf156",
                    "nonce" : "0xccaa0ff612c9a668",
                    "number" : "0x01",
                    "parentHash" : "0xa35295e248019d92600a60b59a979ce901ef66ecce774eb31fa3455fade18546",
                    "receiptTrie" : "0x3950b954dacac4a9f4e3e8b42400b12270697820e6d3dceb6ca6dfb175584426",
                    "stateRoot" : "0xf38f77109823647e4b92d109f9585fcafba50fec066fea93cb73ed9593b1e470",
                    "timestamp" : "0x03e8",
                    "transactionsTrie" : "0x6d92c707ac4e8033c84ca909ce20bc586f716910c851add5fa69ee779c4d0a0d",
                    "uncleHash" : "0x1dcc4de8dec75d7aab85b567b6ccd41ad312451b948a7413f0a142fd40d49347"
                },
                "rlp" : "0xf9024af901f7a0a35295e248019d92600a60b59a979ce901ef66ecce774eb31fa3455fade18546a01dcc4de8dec75d7aab85b567b6ccd41ad312451b948a7413f0a142fd40d49347942adc25665018aa1fe0e6bc666dac8fc2697ff9baa0f38f77109823647e4b92d109f9585fcafba50fec066fea93cb73ed9593b1e470a06d92c707ac4e8033c84ca909ce20bc586f716910c851add5fa69ee779c4d0a0da03950b954dacac4a9f4e3e8b42400b12270697820e6d3dceb6ca6dfb175584426b90100000000000000000000000000000000000000000000000000000000000000000000000000000000000000000000000000000000000000000000000000000000000000000000000000000000000000000000000000000000000000000000000000000000000000000000000000000000000000000000000000000000000000000000000000000000000000000000000000000000000000000000000000000000000000000000000000000000000000000000000000000000000000000000000000000000000000000000000000000000000000000000000000000000000000000000000000000000000000000000000000000000000000000000000000000000008302000001830f42408252088203e880a03ae11cfd6c7b6377b3a6ef6366c23d05bf2349bcf10ed24f271d249caaedf15688ccaa0ff612c9a668f84df84b800182cf088080801ba0f6b27c1075ce373c92749a7b7685770029e4dbee63f0ad37f64a896c8a46866fa064ee361a7afd43e15e7dd5997a502beb3c2692b5f9f67a1dbb362856597075a1c0",
                "transactions" : [
                    {
                        "data" : "",
                        "gasLimit" : "0xcf08",
                        "gasPrice" : "0x01",
                        "nonce" : "0x00",
                        "r" : "0xf6b27c1075ce373c92749a7b7685770029e4dbee63f0ad37f64a896c8a46866f",
                        "s" : "0x64ee361a7afd43e15e7dd5997a502beb3c2692b5f9f67a1dbb362856597075a1",
                        "to" : "",
                        "v" : "0x1b",
                        "value" : "0x00"
                    }
                ],
                "uncleHeaders" : [
                ]
            }
        ],
        "genesisBlockHeader" : {
            "bloom" : "0x00000000000000000000000000000000000000000000000000000000000000000000000000000000000000000000000000000000000000000000000000000000000000000000000000000000000000000000000000000000000000000000000000000000000000000000000000000000000000000000000000000000000000000000000000000000000000000000000000000000000000000000000000000000000000000000000000000000000000000000000000000000000000000000000000000000000000000000000000000000000000000000000000000000000000000000000000000000000000000000000000000000000000000000000000000000",
            "coinbase" : "0x2adc25665018aa1fe0e6bc666dac8fc2697ff9ba",
            "difficulty" : "0x020000",
            "extraData" : "0x42",
            "gasLimit" : "0x0f4240",
            "gasUsed" : "0x00",
            "hash" : "0xa35295e248019d92600a60b59a979ce901ef66ecce774eb31fa3455fade18546",
            "mixHash" : "0x56e81f171bcc55a6ff8345e692c0f86e5b48e01b996cadc001622fb5e363b421",
            "nonce" : "0x0102030405060708",
            "number" : "0x00",
            "parentHash" : "0x0000000000000000000000000000000000000000000000000000000000000000",
            "receiptTrie" : "0x56e81f171bcc55a6ff8345e692c0f86e5b48e01b996cadc001622fb5e363b421",
            "stateRoot" : "0xa3e1c133a5a51b03399ed9ad0380f3182e9e18322f232b816dd4b9094f871e1b",
            "timestamp" : "0x03b6",
            "transactionsTrie" : "0x56e81f171bcc55a6ff8345e692c0f86e5b48e01b996cadc001622fb5e363b421",
            "uncleHash" : "0x1dcc4de8dec75d7aab85b567b6ccd41ad312451b948a7413f0a142fd40d49347"
        },
        "genesisRLP" : "0xf901faf901f5a00000000000000000000000000000000000000000000000000000000000000000a01dcc4de8dec75d7aab85b567b6ccd41ad312451b948a7413f0a142fd40d49347942adc25665018aa1fe0e6bc666dac8fc2697ff9baa0a3e1c133a5a51b03399ed9ad0380f3182e9e18322f232b816dd4b9094f871e1ba056e81f171bcc55a6ff8345e692c0f86e5b48e01b996cadc001622fb5e363b421a056e81f171bcc55a6ff8345e692c0f86e5b48e01b996cadc001622fb5e363b421b90100000000000000000000000000000000000000000000000000000000000000000000000000000000000000000000000000000000000000000000000000000000000000000000000000000000000000000000000000000000000000000000000000000000000000000000000000000000000000000000000000000000000000000000000000000000000000000000000000000000000000000000000000000000000000000000000000000000000000000000000000000000000000000000000000000000000000000000000000000000000000000000000000000000000000000000000000000000000000000000000000000000000000000000000000000000008302000080830f4240808203b642a056e81f171bcc55a6ff8345e692c0f86e5b48e01b996cadc001622fb5e363b421880102030405060708c0c0",
        "lastblockhash" : "0x7cc0b4f352c3fe36bc223212ec652e151dc80f1b1fe2349d47d9e84c65bbce62",
        "network" : "Frontier",
        "postState" : {
            "0x2adc25665018aa1fe0e6bc666dac8fc2697ff9ba" : {
                "balance" : "0x4563918244f45208",
                "code" : "",
                "nonce" : "0x00",
                "storage" : {
                }
            },
            "0x6295ee1b4f6dd65047762f924ecd367c17eabf8f" : {
                "balance" : "0x00",
                "code" : "",
                "nonce" : "0x00",
                "storage" : {
                }
            },
            "0xa94f5374fce5edbc8e2a8697c15331677e6ebf0b" : {
                "balance" : "0x013498",
                "code" : "",
                "nonce" : "0x01",
                "storage" : {
                }
            }
        },
        "pre" : {
            "0xa94f5374fce5edbc8e2a8697c15331677e6ebf0b" : {
                "balance" : "0x0186a0",
                "code" : "",
                "nonce" : "0x00",
                "storage" : {
                }
            }
        }
    },
    "TransactionSendingToEmpty_d0g0v0_Homestead" : {
        "_info" : {
            "comment" : "",
            "filledwith" : "cpp-1.3.0+commit.16292201.Linux.g++",
            "source" : "/src/GenStateTestAsBcTemp/stTransactionTest/TransactionSendingToEmpty_d0g0v0Filler.json"
        },
        "blocks" : [
            {
                "blockHeader" : {
                    "bloom" : "0x00000000000000000000000000000000000000000000000000000000000000000000000000000000000000000000000000000000000000000000000000000000000000000000000000000000000000000000000000000000000000000000000000000000000000000000000000000000000000000000000000000000000000000000000000000000000000000000000000000000000000000000000000000000000000000000000000000000000000000000000000000000000000000000000000000000000000000000000000000000000000000000000000000000000000000000000000000000000000000000000000000000000000000000000000000000",
                    "coinbase" : "0x2adc25665018aa1fe0e6bc666dac8fc2697ff9ba",
                    "difficulty" : "0x020000",
                    "extraData" : "",
                    "gasLimit" : "0x0f4240",
                    "gasUsed" : "0xcf08",
                    "hash" : "0x0e8daa06016605b03a572b988bfb5fa916f373baa873bd9e1adaad144192bb27",
                    "mixHash" : "0x7f73ec7c48a40bf237d11d66f909d460319be80f55e1231b25b06330a699f436",
                    "nonce" : "0x16e2688f1e15e296",
                    "number" : "0x01",
                    "parentHash" : "0xa35295e248019d92600a60b59a979ce901ef66ecce774eb31fa3455fade18546",
                    "receiptTrie" : "0xd11e275fbdc99a06922953905445bde6c2dd3431d02d21b1aaab0a332953484a",
                    "stateRoot" : "0xc7d01467d5efabfd948abc8b232d7bd8f86e91d277c4e2f77872489948e3b55c",
                    "timestamp" : "0x03e8",
                    "transactionsTrie" : "0x6d92c707ac4e8033c84ca909ce20bc586f716910c851add5fa69ee779c4d0a0d",
                    "uncleHash" : "0x1dcc4de8dec75d7aab85b567b6ccd41ad312451b948a7413f0a142fd40d49347"
                },
                "rlp" : "0xf9024af901f7a0a35295e248019d92600a60b59a979ce901ef66ecce774eb31fa3455fade18546a01dcc4de8dec75d7aab85b567b6ccd41ad312451b948a7413f0a142fd40d49347942adc25665018aa1fe0e6bc666dac8fc2697ff9baa0c7d01467d5efabfd948abc8b232d7bd8f86e91d277c4e2f77872489948e3b55ca06d92c707ac4e8033c84ca909ce20bc586f716910c851add5fa69ee779c4d0a0da0d11e275fbdc99a06922953905445bde6c2dd3431d02d21b1aaab0a332953484ab90100000000000000000000000000000000000000000000000000000000000000000000000000000000000000000000000000000000000000000000000000000000000000000000000000000000000000000000000000000000000000000000000000000000000000000000000000000000000000000000000000000000000000000000000000000000000000000000000000000000000000000000000000000000000000000000000000000000000000000000000000000000000000000000000000000000000000000000000000000000000000000000000000000000000000000000000000000000000000000000000000000000000000000000000000000000008302000001830f424082cf088203e880a07f73ec7c48a40bf237d11d66f909d460319be80f55e1231b25b06330a699f4368816e2688f1e15e296f84df84b800182cf088080801ba0f6b27c1075ce373c92749a7b7685770029e4dbee63f0ad37f64a896c8a46866fa064ee361a7afd43e15e7dd5997a502beb3c2692b5f9f67a1dbb362856597075a1c0",
                "transactions" : [
                    {
                        "data" : "",
                        "gasLimit" : "0xcf08",
                        "gasPrice" : "0x01",
                        "nonce" : "0x00",
                        "r" : "0xf6b27c1075ce373c92749a7b7685770029e4dbee63f0ad37f64a896c8a46866f",
                        "s" : "0x64ee361a7afd43e15e7dd5997a502beb3c2692b5f9f67a1dbb362856597075a1",
                        "to" : "",
                        "v" : "0x1b",
                        "value" : "0x00"
                    }
                ],
                "uncleHeaders" : [
                ]
            }
        ],
        "genesisBlockHeader" : {
            "bloom" : "0x00000000000000000000000000000000000000000000000000000000000000000000000000000000000000000000000000000000000000000000000000000000000000000000000000000000000000000000000000000000000000000000000000000000000000000000000000000000000000000000000000000000000000000000000000000000000000000000000000000000000000000000000000000000000000000000000000000000000000000000000000000000000000000000000000000000000000000000000000000000000000000000000000000000000000000000000000000000000000000000000000000000000000000000000000000000",
            "coinbase" : "0x2adc25665018aa1fe0e6bc666dac8fc2697ff9ba",
            "difficulty" : "0x020000",
            "extraData" : "0x42",
            "gasLimit" : "0x0f4240",
            "gasUsed" : "0x00",
            "hash" : "0xa35295e248019d92600a60b59a979ce901ef66ecce774eb31fa3455fade18546",
            "mixHash" : "0x56e81f171bcc55a6ff8345e692c0f86e5b48e01b996cadc001622fb5e363b421",
            "nonce" : "0x0102030405060708",
            "number" : "0x00",
            "parentHash" : "0x0000000000000000000000000000000000000000000000000000000000000000",
            "receiptTrie" : "0x56e81f171bcc55a6ff8345e692c0f86e5b48e01b996cadc001622fb5e363b421",
            "stateRoot" : "0xa3e1c133a5a51b03399ed9ad0380f3182e9e18322f232b816dd4b9094f871e1b",
            "timestamp" : "0x03b6",
            "transactionsTrie" : "0x56e81f171bcc55a6ff8345e692c0f86e5b48e01b996cadc001622fb5e363b421",
            "uncleHash" : "0x1dcc4de8dec75d7aab85b567b6ccd41ad312451b948a7413f0a142fd40d49347"
        },
        "genesisRLP" : "0xf901faf901f5a00000000000000000000000000000000000000000000000000000000000000000a01dcc4de8dec75d7aab85b567b6ccd41ad312451b948a7413f0a142fd40d49347942adc25665018aa1fe0e6bc666dac8fc2697ff9baa0a3e1c133a5a51b03399ed9ad0380f3182e9e18322f232b816dd4b9094f871e1ba056e81f171bcc55a6ff8345e692c0f86e5b48e01b996cadc001622fb5e363b421a056e81f171bcc55a6ff8345e692c0f86e5b48e01b996cadc001622fb5e363b421b90100000000000000000000000000000000000000000000000000000000000000000000000000000000000000000000000000000000000000000000000000000000000000000000000000000000000000000000000000000000000000000000000000000000000000000000000000000000000000000000000000000000000000000000000000000000000000000000000000000000000000000000000000000000000000000000000000000000000000000000000000000000000000000000000000000000000000000000000000000000000000000000000000000000000000000000000000000000000000000000000000000000000000000000000000000000008302000080830f4240808203b642a056e81f171bcc55a6ff8345e692c0f86e5b48e01b996cadc001622fb5e363b421880102030405060708c0c0",
        "lastblockhash" : "0x0e8daa06016605b03a572b988bfb5fa916f373baa873bd9e1adaad144192bb27",
        "network" : "Homestead",
        "postState" : {
            "0x2adc25665018aa1fe0e6bc666dac8fc2697ff9ba" : {
                "balance" : "0x4563918244f4cf08",
                "code" : "",
                "nonce" : "0x00",
                "storage" : {
                }
            },
            "0x6295ee1b4f6dd65047762f924ecd367c17eabf8f" : {
                "balance" : "0x00",
                "code" : "",
                "nonce" : "0x00",
                "storage" : {
                }
            },
            "0xa94f5374fce5edbc8e2a8697c15331677e6ebf0b" : {
                "balance" : "0xb798",
                "code" : "",
                "nonce" : "0x01",
                "storage" : {
                }
            }
        },
        "pre" : {
            "0xa94f5374fce5edbc8e2a8697c15331677e6ebf0b" : {
                "balance" : "0x0186a0",
                "code" : "",
                "nonce" : "0x00",
                "storage" : {
                }
            }
        }
    },
    "TransactionSendingToEmpty_d0g0v0_Metropolis" : {
        "_info" : {
            "comment" : "",
            "filledwith" : "cpp-1.3.0+commit.16292201.Linux.g++",
            "source" : "/src/GenStateTestAsBcTemp/stTransactionTest/TransactionSendingToEmpty_d0g0v0Filler.json"
        },
        "blocks" : [
            {
                "blockHeader" : {
                    "bloom" : "0x00000000000000000000000000000000000000000000000000000000000000000000000000000000000000000000000000000000000000000000000000000000000000000000000000000000000000000000000000000000000000000000000000000000000000000000000000000000000000000000000000000000000000000000000000000000000000000000000000000000000000000000000000000000000000000000000000000000000000000000000000000000000000000000000000000000000000000000000000000000000000000000000000000000000000000000000000000000000000000000000000000000000000000000000000000000",
                    "coinbase" : "0x2adc25665018aa1fe0e6bc666dac8fc2697ff9ba",
                    "difficulty" : "0x020000",
                    "extraData" : "",
                    "gasLimit" : "0x0f4240",
                    "gasUsed" : "0xcf08",
                    "hash" : "0xd2870a857febe02b5933bf26d156d6d4423220cade4d374b1309309657ec3d1f",
                    "mixHash" : "0x403d49d5aa526525f774b1c27387873517921ead8df9e6a4ff84bdb0a6d97116",
                    "nonce" : "0xfe5ad0c36fff620d",
                    "number" : "0x01",
                    "parentHash" : "0xa35295e248019d92600a60b59a979ce901ef66ecce774eb31fa3455fade18546",
                    "receiptTrie" : "0x65c4d1b533902562730f0d110bcce51643ce4725ca03d85c33d5812c0ed308bf",
                    "stateRoot" : "0x0c6f906247c1c73f378636b92f698e529f5a4b7d8c2e119b4a0a74f52bc26cca",
                    "timestamp" : "0x03e8",
                    "transactionsTrie" : "0x6d92c707ac4e8033c84ca909ce20bc586f716910c851add5fa69ee779c4d0a0d",
                    "uncleHash" : "0x1dcc4de8dec75d7aab85b567b6ccd41ad312451b948a7413f0a142fd40d49347"
                },
                "rlp" : "0xf9024af901f7a0a35295e248019d92600a60b59a979ce901ef66ecce774eb31fa3455fade18546a01dcc4de8dec75d7aab85b567b6ccd41ad312451b948a7413f0a142fd40d49347942adc25665018aa1fe0e6bc666dac8fc2697ff9baa00c6f906247c1c73f378636b92f698e529f5a4b7d8c2e119b4a0a74f52bc26ccaa06d92c707ac4e8033c84ca909ce20bc586f716910c851add5fa69ee779c4d0a0da065c4d1b533902562730f0d110bcce51643ce4725ca03d85c33d5812c0ed308bfb90100000000000000000000000000000000000000000000000000000000000000000000000000000000000000000000000000000000000000000000000000000000000000000000000000000000000000000000000000000000000000000000000000000000000000000000000000000000000000000000000000000000000000000000000000000000000000000000000000000000000000000000000000000000000000000000000000000000000000000000000000000000000000000000000000000000000000000000000000000000000000000000000000000000000000000000000000000000000000000000000000000000000000000000000000000000008302000001830f424082cf088203e880a0403d49d5aa526525f774b1c27387873517921ead8df9e6a4ff84bdb0a6d9711688fe5ad0c36fff620df84df84b800182cf088080801ba0f6b27c1075ce373c92749a7b7685770029e4dbee63f0ad37f64a896c8a46866fa064ee361a7afd43e15e7dd5997a502beb3c2692b5f9f67a1dbb362856597075a1c0",
                "transactions" : [
                    {
                        "data" : "",
                        "gasLimit" : "0xcf08",
                        "gasPrice" : "0x01",
                        "nonce" : "0x00",
                        "r" : "0xf6b27c1075ce373c92749a7b7685770029e4dbee63f0ad37f64a896c8a46866f",
                        "s" : "0x64ee361a7afd43e15e7dd5997a502beb3c2692b5f9f67a1dbb362856597075a1",
                        "to" : "",
                        "v" : "0x1b",
                        "value" : "0x00"
                    }
                ],
                "uncleHeaders" : [
                ]
            }
        ],
        "genesisBlockHeader" : {
            "bloom" : "0x00000000000000000000000000000000000000000000000000000000000000000000000000000000000000000000000000000000000000000000000000000000000000000000000000000000000000000000000000000000000000000000000000000000000000000000000000000000000000000000000000000000000000000000000000000000000000000000000000000000000000000000000000000000000000000000000000000000000000000000000000000000000000000000000000000000000000000000000000000000000000000000000000000000000000000000000000000000000000000000000000000000000000000000000000000000",
            "coinbase" : "0x2adc25665018aa1fe0e6bc666dac8fc2697ff9ba",
            "difficulty" : "0x020000",
            "extraData" : "0x42",
            "gasLimit" : "0x0f4240",
            "gasUsed" : "0x00",
            "hash" : "0xa35295e248019d92600a60b59a979ce901ef66ecce774eb31fa3455fade18546",
            "mixHash" : "0x56e81f171bcc55a6ff8345e692c0f86e5b48e01b996cadc001622fb5e363b421",
            "nonce" : "0x0102030405060708",
            "number" : "0x00",
            "parentHash" : "0x0000000000000000000000000000000000000000000000000000000000000000",
            "receiptTrie" : "0x56e81f171bcc55a6ff8345e692c0f86e5b48e01b996cadc001622fb5e363b421",
            "stateRoot" : "0xa3e1c133a5a51b03399ed9ad0380f3182e9e18322f232b816dd4b9094f871e1b",
            "timestamp" : "0x03b6",
            "transactionsTrie" : "0x56e81f171bcc55a6ff8345e692c0f86e5b48e01b996cadc001622fb5e363b421",
            "uncleHash" : "0x1dcc4de8dec75d7aab85b567b6ccd41ad312451b948a7413f0a142fd40d49347"
        },
        "genesisRLP" : "0xf901faf901f5a00000000000000000000000000000000000000000000000000000000000000000a01dcc4de8dec75d7aab85b567b6ccd41ad312451b948a7413f0a142fd40d49347942adc25665018aa1fe0e6bc666dac8fc2697ff9baa0a3e1c133a5a51b03399ed9ad0380f3182e9e18322f232b816dd4b9094f871e1ba056e81f171bcc55a6ff8345e692c0f86e5b48e01b996cadc001622fb5e363b421a056e81f171bcc55a6ff8345e692c0f86e5b48e01b996cadc001622fb5e363b421b90100000000000000000000000000000000000000000000000000000000000000000000000000000000000000000000000000000000000000000000000000000000000000000000000000000000000000000000000000000000000000000000000000000000000000000000000000000000000000000000000000000000000000000000000000000000000000000000000000000000000000000000000000000000000000000000000000000000000000000000000000000000000000000000000000000000000000000000000000000000000000000000000000000000000000000000000000000000000000000000000000000000000000000000000000000000008302000080830f4240808203b642a056e81f171bcc55a6ff8345e692c0f86e5b48e01b996cadc001622fb5e363b421880102030405060708c0c0",
        "lastblockhash" : "0xd2870a857febe02b5933bf26d156d6d4423220cade4d374b1309309657ec3d1f",
        "network" : "Metropolis",
        "postState" : {
            "0x00000000000000000000000000000000000000f0" : {
                "balance" : "0x00",
                "code" : "",
                "nonce" : "0x00",
                "storage" : {
                }
            },
            "0x2adc25665018aa1fe0e6bc666dac8fc2697ff9ba" : {
                "balance" : "0x4563918244f4cf08",
                "code" : "",
                "nonce" : "0x00",
                "storage" : {
                }
            },
            "0x6295ee1b4f6dd65047762f924ecd367c17eabf8f" : {
                "balance" : "0x00",
                "code" : "",
                "nonce" : "0x01",
                "storage" : {
                }
            },
            "0xa94f5374fce5edbc8e2a8697c15331677e6ebf0b" : {
                "balance" : "0xb798",
                "code" : "",
                "nonce" : "0x01",
                "storage" : {
                }
            }
        },
        "pre" : {
            "0xa94f5374fce5edbc8e2a8697c15331677e6ebf0b" : {
                "balance" : "0x0186a0",
                "code" : "",
                "nonce" : "0x00",
                "storage" : {
                }
            }
        }
    }
}