{
    "TransactionSendingToZero_d0g0v0_Berlin" : {
        "_info" : {
            "comment" : "",
            "filling-rpc-server" : "evm version 1.10.16-unstable-0f893109-20220105",
            "filling-tool-version" : "retesteth-0.2.2-testinfo+commit.01c6aac2.Linux.g++",
            "generatedTestHash" : "7c3a36db1561bee2817ae9d06c460075d107327659e2969298d5f525d8fc722b",
            "lllcversion" : "Version: 0.5.14-develop.2021.11.27+commit.401d5358.Linux.g++",
            "solidity" : "Version: 0.8.5+commit.a4f2e591.Linux.g++",
            "source" : "src/GeneralStateTestsFiller/stTransactionTest/TransactionSendingToZeroFiller.json",
            "sourceHash" : "3644732e411b048f7f7c30cfe272dd2fdb8a14053e4f42fe2a93c709c451ba8c"
        },
        "blocks" : [
            {
                "blockHeader" : {
                    "bloom" : "0x00000000000000000000000000000000000000000000000000000000000000000000000000000000000000000000000000000000000000000000000000000000000000000000000000000000000000000000000000000000000000000000000000000000000000000000000000000000000000000000000000000000000000000000000000000000000000000000000000000000000000000000000000000000000000000000000000000000000000000000000000000000000000000000000000000000000000000000000000000000000000000000000000000000000000000000000000000000000000000000000000000000000000000000000000000000",
                    "coinbase" : "0x2adc25665018aa1fe0e6bc666dac8fc2697ff9ba",
                    "difficulty" : "0x020000",
                    "extraData" : "0x00",
                    "gasLimit" : "0x0f4240",
                    "gasUsed" : "0x5208",
                    "hash" : "0xbac99871758f4c8f6e86e2dd0ecc379b8b23b786491cb148ee1924561b878cf6",
                    "mixHash" : "0x0000000000000000000000000000000000000000000000000000000000000000",
                    "nonce" : "0x0000000000000000",
                    "number" : "0x01",
                    "parentHash" : "0x7dd1a3114b7c1c75c76f1ffc96432bae23897e302cb6e851c881690c40dd3c71",
                    "receiptTrie" : "0x056b23fbba480696b65fe5a59b8f2148a1299103c4f57df839233af2cf4ca2d2",
                    "stateRoot" : "0xdbb024b143a93c588371100bdbf3c466e5967b4c9b49372431bd474129844d1b",
                    "timestamp" : "0x03e8",
                    "transactionsTrie" : "0xbdc112747ae33355e82e81fdead02c20875e2f177561027ac2f3d7b101f14a2e",
                    "uncleHash" : "0x1dcc4de8dec75d7aab85b567b6ccd41ad312451b948a7413f0a142fd40d49347"
                },
                "rlp" : "0xf9025ef901f7a07dd1a3114b7c1c75c76f1ffc96432bae23897e302cb6e851c881690c40dd3c71a01dcc4de8dec75d7aab85b567b6ccd41ad312451b948a7413f0a142fd40d49347942adc25665018aa1fe0e6bc666dac8fc2697ff9baa0dbb024b143a93c588371100bdbf3c466e5967b4c9b49372431bd474129844d1ba0bdc112747ae33355e82e81fdead02c20875e2f177561027ac2f3d7b101f14a2ea0056b23fbba480696b65fe5a59b8f2148a1299103c4f57df839233af2cf4ca2d2b90100000000000000000000000000000000000000000000000000000000000000000000000000000000000000000000000000000000000000000000000000000000000000000000000000000000000000000000000000000000000000000000000000000000000000000000000000000000000000000000000000000000000000000000000000000000000000000000000000000000000000000000000000000000000000000000000000000000000000000000000000000000000000000000000000000000000000000000000000000000000000000000000000000000000000000000000000000000000000000000000000000000000000000000000000000000008302000001830f42408252088203e800a00000000000000000000000000000000000000000000000000000000000000000880000000000000000f861f85f800a8261a894000000000000000000000000000000000000000001801ca0b2d14737cfeadb71a80b7569f12da1e86709adc3839b8335aac66bf2ddefe7c9a00c3e5734175e32a3607c7c89e38b754ac5c6781f5238c7055e4fc058debc2b99c0",
                "transactions" : [
                    {
                        "data" : "0x",
                        "gasLimit" : "0x61a8",
                        "gasPrice" : "0x0a",
                        "nonce" : "0x00",
                        "r" : "0xb2d14737cfeadb71a80b7569f12da1e86709adc3839b8335aac66bf2ddefe7c9",
                        "s" : "0x0c3e5734175e32a3607c7c89e38b754ac5c6781f5238c7055e4fc058debc2b99",
                        "sender" : "0xa94f5374fce5edbc8e2a8697c15331677e6ebf0b",
                        "to" : "0x0000000000000000000000000000000000000000",
                        "v" : "0x1c",
                        "value" : "0x01"
                    }
                ],
                "uncleHeaders" : [
                ]
            }
        ],
        "genesisBlockHeader" : {
            "bloom" : "0x00000000000000000000000000000000000000000000000000000000000000000000000000000000000000000000000000000000000000000000000000000000000000000000000000000000000000000000000000000000000000000000000000000000000000000000000000000000000000000000000000000000000000000000000000000000000000000000000000000000000000000000000000000000000000000000000000000000000000000000000000000000000000000000000000000000000000000000000000000000000000000000000000000000000000000000000000000000000000000000000000000000000000000000000000000000",
            "coinbase" : "0x2adc25665018aa1fe0e6bc666dac8fc2697ff9ba",
            "difficulty" : "0x020000",
            "extraData" : "0x00",
            "gasLimit" : "0x0f4240",
            "gasUsed" : "0x00",
            "hash" : "0x7dd1a3114b7c1c75c76f1ffc96432bae23897e302cb6e851c881690c40dd3c71",
            "mixHash" : "0x0000000000000000000000000000000000000000000000000000000000000000",
            "nonce" : "0x0000000000000000",
            "number" : "0x00",
            "parentHash" : "0x0000000000000000000000000000000000000000000000000000000000000000",
            "receiptTrie" : "0x56e81f171bcc55a6ff8345e692c0f86e5b48e01b996cadc001622fb5e363b421",
            "stateRoot" : "0x9d354f9b5ba851a35eced279ef377111387197581429cfcc7f744ef89a30b5d4",
            "timestamp" : "0x00",
            "transactionsTrie" : "0x56e81f171bcc55a6ff8345e692c0f86e5b48e01b996cadc001622fb5e363b421",
            "uncleHash" : "0x1dcc4de8dec75d7aab85b567b6ccd41ad312451b948a7413f0a142fd40d49347"
        },
        "genesisRLP" : "0xf901f8f901f3a00000000000000000000000000000000000000000000000000000000000000000a01dcc4de8dec75d7aab85b567b6ccd41ad312451b948a7413f0a142fd40d49347942adc25665018aa1fe0e6bc666dac8fc2697ff9baa09d354f9b5ba851a35eced279ef377111387197581429cfcc7f744ef89a30b5d4a056e81f171bcc55a6ff8345e692c0f86e5b48e01b996cadc001622fb5e363b421a056e81f171bcc55a6ff8345e692c0f86e5b48e01b996cadc001622fb5e363b421b90100000000000000000000000000000000000000000000000000000000000000000000000000000000000000000000000000000000000000000000000000000000000000000000000000000000000000000000000000000000000000000000000000000000000000000000000000000000000000000000000000000000000000000000000000000000000000000000000000000000000000000000000000000000000000000000000000000000000000000000000000000000000000000000000000000000000000000000000000000000000000000000000000000000000000000000000000000000000000000000000000000000000000000000000000000000008302000080830f4240808000a00000000000000000000000000000000000000000000000000000000000000000880000000000000000c0c0",
        "lastblockhash" : "0xbac99871758f4c8f6e86e2dd0ecc379b8b23b786491cb148ee1924561b878cf6",
        "network" : "Berlin",
        "postState" : {
            "0x0000000000000000000000000000000000000000" : {
                "balance" : "0x01",
                "code" : "0x",
                "nonce" : "0x00",
                "storage" : {
                }
            },
            "0x2adc25665018aa1fe0e6bc666dac8fc2697ff9ba" : {
                "balance" : "0x1bc16d674ecb3450",
                "code" : "0x",
                "nonce" : "0x00",
                "storage" : {
                }
            },
            "0xa94f5374fce5edbc8e2a8697c15331677e6ebf0b" : {
                "balance" : "0x05f2acaf",
                "code" : "0x",
                "nonce" : "0x01",
                "storage" : {
                }
            }
        },
        "pre" : {
            "0xa94f5374fce5edbc8e2a8697c15331677e6ebf0b" : {
                "balance" : "0x05f5e100",
                "code" : "0x",
                "nonce" : "0x00",
                "storage" : {
                }
            }
        },
        "sealEngine" : "NoProof"
    },
    "TransactionSendingToZero_d0g0v0_Istanbul" : {
        "_info" : {
            "comment" : "",
            "filling-rpc-server" : "evm version 1.10.16-unstable-0f893109-20220105",
            "filling-tool-version" : "retesteth-0.2.2-testinfo+commit.01c6aac2.Linux.g++",
            "generatedTestHash" : "f006d6cf34bb99e1db3c64ab1a88e6ce544d271ead7dabe22aab8e952b861018",
            "lllcversion" : "Version: 0.5.14-develop.2021.11.27+commit.401d5358.Linux.g++",
            "solidity" : "Version: 0.8.5+commit.a4f2e591.Linux.g++",
            "source" : "src/GeneralStateTestsFiller/stTransactionTest/TransactionSendingToZeroFiller.json",
            "sourceHash" : "3644732e411b048f7f7c30cfe272dd2fdb8a14053e4f42fe2a93c709c451ba8c"
        },
        "blocks" : [
            {
                "blockHeader" : {
                    "bloom" : "0x00000000000000000000000000000000000000000000000000000000000000000000000000000000000000000000000000000000000000000000000000000000000000000000000000000000000000000000000000000000000000000000000000000000000000000000000000000000000000000000000000000000000000000000000000000000000000000000000000000000000000000000000000000000000000000000000000000000000000000000000000000000000000000000000000000000000000000000000000000000000000000000000000000000000000000000000000000000000000000000000000000000000000000000000000000000",
                    "coinbase" : "0x2adc25665018aa1fe0e6bc666dac8fc2697ff9ba",
                    "difficulty" : "0x020000",
                    "extraData" : "0x00",
                    "gasLimit" : "0x0f4240",
                    "gasUsed" : "0x5208",
                    "hash" : "0xbac99871758f4c8f6e86e2dd0ecc379b8b23b786491cb148ee1924561b878cf6",
                    "mixHash" : "0x0000000000000000000000000000000000000000000000000000000000000000",
                    "nonce" : "0x0000000000000000",
                    "number" : "0x01",
                    "parentHash" : "0x7dd1a3114b7c1c75c76f1ffc96432bae23897e302cb6e851c881690c40dd3c71",
                    "receiptTrie" : "0x056b23fbba480696b65fe5a59b8f2148a1299103c4f57df839233af2cf4ca2d2",
                    "stateRoot" : "0xdbb024b143a93c588371100bdbf3c466e5967b4c9b49372431bd474129844d1b",
                    "timestamp" : "0x03e8",
                    "transactionsTrie" : "0xbdc112747ae33355e82e81fdead02c20875e2f177561027ac2f3d7b101f14a2e",
                    "uncleHash" : "0x1dcc4de8dec75d7aab85b567b6ccd41ad312451b948a7413f0a142fd40d49347"
                },
                "rlp" : "0xf9025ef901f7a07dd1a3114b7c1c75c76f1ffc96432bae23897e302cb6e851c881690c40dd3c71a01dcc4de8dec75d7aab85b567b6ccd41ad312451b948a7413f0a142fd40d49347942adc25665018aa1fe0e6bc666dac8fc2697ff9baa0dbb024b143a93c588371100bdbf3c466e5967b4c9b49372431bd474129844d1ba0bdc112747ae33355e82e81fdead02c20875e2f177561027ac2f3d7b101f14a2ea0056b23fbba480696b65fe5a59b8f2148a1299103c4f57df839233af2cf4ca2d2b90100000000000000000000000000000000000000000000000000000000000000000000000000000000000000000000000000000000000000000000000000000000000000000000000000000000000000000000000000000000000000000000000000000000000000000000000000000000000000000000000000000000000000000000000000000000000000000000000000000000000000000000000000000000000000000000000000000000000000000000000000000000000000000000000000000000000000000000000000000000000000000000000000000000000000000000000000000000000000000000000000000000000000000000000000000000008302000001830f42408252088203e800a00000000000000000000000000000000000000000000000000000000000000000880000000000000000f861f85f800a8261a894000000000000000000000000000000000000000001801ca0b2d14737cfeadb71a80b7569f12da1e86709adc3839b8335aac66bf2ddefe7c9a00c3e5734175e32a3607c7c89e38b754ac5c6781f5238c7055e4fc058debc2b99c0",
                "transactions" : [
                    {
                        "data" : "0x",
                        "gasLimit" : "0x61a8",
                        "gasPrice" : "0x0a",
                        "nonce" : "0x00",
                        "r" : "0xb2d14737cfeadb71a80b7569f12da1e86709adc3839b8335aac66bf2ddefe7c9",
                        "s" : "0x0c3e5734175e32a3607c7c89e38b754ac5c6781f5238c7055e4fc058debc2b99",
                        "sender" : "0xa94f5374fce5edbc8e2a8697c15331677e6ebf0b",
                        "to" : "0x0000000000000000000000000000000000000000",
                        "v" : "0x1c",
                        "value" : "0x01"
                    }
                ],
                "uncleHeaders" : [
                ]
            }
        ],
        "genesisBlockHeader" : {
            "bloom" : "0x00000000000000000000000000000000000000000000000000000000000000000000000000000000000000000000000000000000000000000000000000000000000000000000000000000000000000000000000000000000000000000000000000000000000000000000000000000000000000000000000000000000000000000000000000000000000000000000000000000000000000000000000000000000000000000000000000000000000000000000000000000000000000000000000000000000000000000000000000000000000000000000000000000000000000000000000000000000000000000000000000000000000000000000000000000000",
            "coinbase" : "0x2adc25665018aa1fe0e6bc666dac8fc2697ff9ba",
            "difficulty" : "0x020000",
            "extraData" : "0x00",
            "gasLimit" : "0x0f4240",
            "gasUsed" : "0x00",
            "hash" : "0x7dd1a3114b7c1c75c76f1ffc96432bae23897e302cb6e851c881690c40dd3c71",
            "mixHash" : "0x0000000000000000000000000000000000000000000000000000000000000000",
            "nonce" : "0x0000000000000000",
            "number" : "0x00",
            "parentHash" : "0x0000000000000000000000000000000000000000000000000000000000000000",
            "receiptTrie" : "0x56e81f171bcc55a6ff8345e692c0f86e5b48e01b996cadc001622fb5e363b421",
            "stateRoot" : "0x9d354f9b5ba851a35eced279ef377111387197581429cfcc7f744ef89a30b5d4",
            "timestamp" : "0x00",
            "transactionsTrie" : "0x56e81f171bcc55a6ff8345e692c0f86e5b48e01b996cadc001622fb5e363b421",
            "uncleHash" : "0x1dcc4de8dec75d7aab85b567b6ccd41ad312451b948a7413f0a142fd40d49347"
        },
        "genesisRLP" : "0xf901f8f901f3a00000000000000000000000000000000000000000000000000000000000000000a01dcc4de8dec75d7aab85b567b6ccd41ad312451b948a7413f0a142fd40d49347942adc25665018aa1fe0e6bc666dac8fc2697ff9baa09d354f9b5ba851a35eced279ef377111387197581429cfcc7f744ef89a30b5d4a056e81f171bcc55a6ff8345e692c0f86e5b48e01b996cadc001622fb5e363b421a056e81f171bcc55a6ff8345e692c0f86e5b48e01b996cadc001622fb5e363b421b90100000000000000000000000000000000000000000000000000000000000000000000000000000000000000000000000000000000000000000000000000000000000000000000000000000000000000000000000000000000000000000000000000000000000000000000000000000000000000000000000000000000000000000000000000000000000000000000000000000000000000000000000000000000000000000000000000000000000000000000000000000000000000000000000000000000000000000000000000000000000000000000000000000000000000000000000000000000000000000000000000000000000000000000000000000000008302000080830f4240808000a00000000000000000000000000000000000000000000000000000000000000000880000000000000000c0c0",
        "lastblockhash" : "0xbac99871758f4c8f6e86e2dd0ecc379b8b23b786491cb148ee1924561b878cf6",
        "network" : "Istanbul",
        "postState" : {
            "0x0000000000000000000000000000000000000000" : {
                "balance" : "0x01",
                "code" : "0x",
                "nonce" : "0x00",
                "storage" : {
                }
            },
            "0x2adc25665018aa1fe0e6bc666dac8fc2697ff9ba" : {
                "balance" : "0x1bc16d674ecb3450",
                "code" : "0x",
                "nonce" : "0x00",
                "storage" : {
                }
            },
            "0xa94f5374fce5edbc8e2a8697c15331677e6ebf0b" : {
                "balance" : "0x05f2acaf",
                "code" : "0x",
                "nonce" : "0x01",
                "storage" : {
                }
            }
        },
        "pre" : {
            "0xa94f5374fce5edbc8e2a8697c15331677e6ebf0b" : {
                "balance" : "0x05f5e100",
                "code" : "0x",
                "nonce" : "0x00",
                "storage" : {
                }
            }
        },
        "sealEngine" : "NoProof"
    },
    "TransactionSendingToZero_d0g0v0_London" : {
        "_info" : {
            "comment" : "",
            "filling-rpc-server" : "evm version 1.10.16-unstable-0f893109-20220105",
            "filling-tool-version" : "retesteth-0.2.2-testinfo+commit.01c6aac2.Linux.g++",
            "generatedTestHash" : "f361a616740ee10513742dd8200a340bc98b685a6c6c84717de991d707441ec3",
            "lllcversion" : "Version: 0.5.14-develop.2021.11.27+commit.401d5358.Linux.g++",
            "solidity" : "Version: 0.8.5+commit.a4f2e591.Linux.g++",
            "source" : "src/GeneralStateTestsFiller/stTransactionTest/TransactionSendingToZeroFiller.json",
            "sourceHash" : "3644732e411b048f7f7c30cfe272dd2fdb8a14053e4f42fe2a93c709c451ba8c"
        },
        "blocks" : [
            {
                "blockHeader" : {
                    "baseFeePerGas" : "0x0a",
                    "bloom" : "0x00000000000000000000000000000000000000000000000000000000000000000000000000000000000000000000000000000000000000000000000000000000000000000000000000000000000000000000000000000000000000000000000000000000000000000000000000000000000000000000000000000000000000000000000000000000000000000000000000000000000000000000000000000000000000000000000000000000000000000000000000000000000000000000000000000000000000000000000000000000000000000000000000000000000000000000000000000000000000000000000000000000000000000000000000000000",
                    "coinbase" : "0x2adc25665018aa1fe0e6bc666dac8fc2697ff9ba",
                    "difficulty" : "0x020000",
                    "extraData" : "0x00",
                    "gasLimit" : "0x0f4240",
                    "gasUsed" : "0x5208",
                    "hash" : "0x121f1eddfe2c4c2767267657fe220af6e30a2be25280e6973de61666f04783be",
                    "mixHash" : "0x0000000000000000000000000000000000000000000000000000000000000000",
                    "nonce" : "0x0000000000000000",
                    "number" : "0x01",
                    "parentHash" : "0x41874c4568cc8596f3e9e316ec526ea1623df7d47106603d9744545a3664bc88",
                    "receiptTrie" : "0x056b23fbba480696b65fe5a59b8f2148a1299103c4f57df839233af2cf4ca2d2",
                    "stateRoot" : "0x1e0fe0471806166eb194488c8842511086ffa1f905377431ff68d0f48a1eb764",
                    "timestamp" : "0x03e8",
                    "transactionsTrie" : "0xbdc112747ae33355e82e81fdead02c20875e2f177561027ac2f3d7b101f14a2e",
                    "uncleHash" : "0x1dcc4de8dec75d7aab85b567b6ccd41ad312451b948a7413f0a142fd40d49347"
                },
                "rlp" : "0xf9025ff901f8a041874c4568cc8596f3e9e316ec526ea1623df7d47106603d9744545a3664bc88a01dcc4de8dec75d7aab85b567b6ccd41ad312451b948a7413f0a142fd40d49347942adc25665018aa1fe0e6bc666dac8fc2697ff9baa01e0fe0471806166eb194488c8842511086ffa1f905377431ff68d0f48a1eb764a0bdc112747ae33355e82e81fdead02c20875e2f177561027ac2f3d7b101f14a2ea0056b23fbba480696b65fe5a59b8f2148a1299103c4f57df839233af2cf4ca2d2b90100000000000000000000000000000000000000000000000000000000000000000000000000000000000000000000000000000000000000000000000000000000000000000000000000000000000000000000000000000000000000000000000000000000000000000000000000000000000000000000000000000000000000000000000000000000000000000000000000000000000000000000000000000000000000000000000000000000000000000000000000000000000000000000000000000000000000000000000000000000000000000000000000000000000000000000000000000000000000000000000000000000000000000000000000000000008302000001830f42408252088203e800a000000000000000000000000000000000000000000000000000000000000000008800000000000000000af861f85f800a8261a894000000000000000000000000000000000000000001801ca0b2d14737cfeadb71a80b7569f12da1e86709adc3839b8335aac66bf2ddefe7c9a00c3e5734175e32a3607c7c89e38b754ac5c6781f5238c7055e4fc058debc2b99c0",
                "transactions" : [
                    {
                        "data" : "0x",
                        "gasLimit" : "0x61a8",
                        "gasPrice" : "0x0a",
                        "nonce" : "0x00",
                        "r" : "0xb2d14737cfeadb71a80b7569f12da1e86709adc3839b8335aac66bf2ddefe7c9",
                        "s" : "0x0c3e5734175e32a3607c7c89e38b754ac5c6781f5238c7055e4fc058debc2b99",
                        "sender" : "0xa94f5374fce5edbc8e2a8697c15331677e6ebf0b",
                        "to" : "0x0000000000000000000000000000000000000000",
                        "v" : "0x1c",
                        "value" : "0x01"
                    }
                ],
                "uncleHeaders" : [
                ]
            }
        ],
        "genesisBlockHeader" : {
            "baseFeePerGas" : "0x0b",
            "bloom" : "0x00000000000000000000000000000000000000000000000000000000000000000000000000000000000000000000000000000000000000000000000000000000000000000000000000000000000000000000000000000000000000000000000000000000000000000000000000000000000000000000000000000000000000000000000000000000000000000000000000000000000000000000000000000000000000000000000000000000000000000000000000000000000000000000000000000000000000000000000000000000000000000000000000000000000000000000000000000000000000000000000000000000000000000000000000000000",
            "coinbase" : "0x2adc25665018aa1fe0e6bc666dac8fc2697ff9ba",
            "difficulty" : "0x020000",
            "extraData" : "0x00",
            "gasLimit" : "0x0f4240",
            "gasUsed" : "0x00",
            "hash" : "0x41874c4568cc8596f3e9e316ec526ea1623df7d47106603d9744545a3664bc88",
            "mixHash" : "0x0000000000000000000000000000000000000000000000000000000000000000",
            "nonce" : "0x0000000000000000",
            "number" : "0x00",
            "parentHash" : "0x0000000000000000000000000000000000000000000000000000000000000000",
            "receiptTrie" : "0x56e81f171bcc55a6ff8345e692c0f86e5b48e01b996cadc001622fb5e363b421",
            "stateRoot" : "0x9d354f9b5ba851a35eced279ef377111387197581429cfcc7f744ef89a30b5d4",
            "timestamp" : "0x00",
            "transactionsTrie" : "0x56e81f171bcc55a6ff8345e692c0f86e5b48e01b996cadc001622fb5e363b421",
            "uncleHash" : "0x1dcc4de8dec75d7aab85b567b6ccd41ad312451b948a7413f0a142fd40d49347"
        },
        "genesisRLP" : "0xf901f9f901f4a00000000000000000000000000000000000000000000000000000000000000000a01dcc4de8dec75d7aab85b567b6ccd41ad312451b948a7413f0a142fd40d49347942adc25665018aa1fe0e6bc666dac8fc2697ff9baa09d354f9b5ba851a35eced279ef377111387197581429cfcc7f744ef89a30b5d4a056e81f171bcc55a6ff8345e692c0f86e5b48e01b996cadc001622fb5e363b421a056e81f171bcc55a6ff8345e692c0f86e5b48e01b996cadc001622fb5e363b421b90100000000000000000000000000000000000000000000000000000000000000000000000000000000000000000000000000000000000000000000000000000000000000000000000000000000000000000000000000000000000000000000000000000000000000000000000000000000000000000000000000000000000000000000000000000000000000000000000000000000000000000000000000000000000000000000000000000000000000000000000000000000000000000000000000000000000000000000000000000000000000000000000000000000000000000000000000000000000000000000000000000000000000000000000000000000008302000080830f4240808000a000000000000000000000000000000000000000000000000000000000000000008800000000000000000bc0c0",
        "lastblockhash" : "0x121f1eddfe2c4c2767267657fe220af6e30a2be25280e6973de61666f04783be",
        "network" : "London",
        "postState" : {
            "0x0000000000000000000000000000000000000000" : {
                "balance" : "0x01",
                "code" : "0x",
                "nonce" : "0x00",
                "storage" : {
                }
            },
            "0x2adc25665018aa1fe0e6bc666dac8fc2697ff9ba" : {
                "balance" : "0x1bc16d674ec80000",
                "code" : "0x",
                "nonce" : "0x00",
                "storage" : {
                }
            },
            "0xa94f5374fce5edbc8e2a8697c15331677e6ebf0b" : {
                "balance" : "0x05f2acaf",
                "code" : "0x",
                "nonce" : "0x01",
                "storage" : {
                }
            }
        },
        "pre" : {
            "0xa94f5374fce5edbc8e2a8697c15331677e6ebf0b" : {
                "balance" : "0x05f5e100",
                "code" : "0x",
                "nonce" : "0x00",
                "storage" : {
                }
            }
        },
        "sealEngine" : "NoProof"
    }
}