{
    "CallContractToCreateContractOOGBonusGas_d0g0v0_EIP150" : {
        "_info" : {
            "comment" : "",
            "filledwith" : "cpp-1.3.0+commit.16292201.Linux.g++",
            "source" : "/src/GenStateTestAsBcTemp/stInitCodeTest/CallContractToCreateContractOOGBonusGas_d0g0v0Filler.json"
        },
        "blocks" : [
            {
                "blockHeader" : {
                    "bloom" : "0x00000000000000000000000000000000000000000000000000000000000000000000000000000000000000000000000000000000000000000000000000000000000000000000000000000000000000000000000000000000000000000000000000000000000000000000000000000000000000000000000000000000000000000000000000000000000000000000000000000000000000000000000000000000000000000000000000000000000000000000000000000000000000000000000000000000000000000000000000000000000000000000000000000000000000000000000000000000000000000000000000000000000000000000000000000000",
                    "coinbase" : "0x2adc25665018aa1fe0e6bc666dac8fc2697ff9ba",
                    "difficulty" : "0x020000",
                    "extraData" : "",
                    "gasLimit" : "0x05f5e100",
                    "gasUsed" : "0x0197b8",
                    "hash" : "0x4a4e88585f94704429b3e9207eeece7e6d8117f6c3a8cbd265e6df18ce497c4d",
                    "mixHash" : "0xf81992a96f05ec8ad36912323d2809f67f327c789773f9bce4c30819a20770cd",
                    "nonce" : "0xd5792d6e869fd0b5",
                    "number" : "0x01",
                    "parentHash" : "0xe95f241512fdfa30db5ba27319016442c1f488fc821101e347bb6b4c9d465a48",
                    "receiptTrie" : "0x25ceea645a32bf95fa108bd48a32b011fb8fa61ab9c04d9dfc28f2d2fbe59989",
                    "stateRoot" : "0x4ece2e21765cd3000485bc35b44022e8a850364a85816d7fbecc202fca99645e",
                    "timestamp" : "0x03e8",
                    "transactionsTrie" : "0xc9736bc50603440b31ff3f23c73baaab17b407a5db2b2aea4ea53a58a970ee0b",
                    "uncleHash" : "0x1dcc4de8dec75d7aab85b567b6ccd41ad312451b948a7413f0a142fd40d49347"
                },
                "rlp" : "0xf90262f901f9a0e95f241512fdfa30db5ba27319016442c1f488fc821101e347bb6b4c9d465a48a01dcc4de8dec75d7aab85b567b6ccd41ad312451b948a7413f0a142fd40d49347942adc25665018aa1fe0e6bc666dac8fc2697ff9baa04ece2e21765cd3000485bc35b44022e8a850364a85816d7fbecc202fca99645ea0c9736bc50603440b31ff3f23c73baaab17b407a5db2b2aea4ea53a58a970ee0ba025ceea645a32bf95fa108bd48a32b011fb8fa61ab9c04d9dfc28f2d2fbe59989b901000000000000000000000000000000000000000000000000000000000000000000000000000000000000000000000000000000000000000000000000000000000000000000000000000000000000000000000000000000000000000000000000000000000000000000000000000000000000000000000000000000000000000000000000000000000000000000000000000000000000000000000000000000000000000000000000000000000000000000000000000000000000000000000000000000000000000000000000000000000000000000000000000000000000000000000000000000000000000000000000000000000000000000000000000000000083020000018405f5e100830197b88203e880a0f81992a96f05ec8ad36912323d2809f67f327c789773f9bce4c30819a20770cd88d5792d6e869fd0b5f863f86180018401312d0094095e7baea6a6c7c4c2dfeb977efac326af552d8780001ca0a5babdfe77e19c1014d3aa0b7f949c3b47c9beb0beaadd25f81f121f7852d700a079cdf46c2587c800f8d808ab682546ae36b37d05dfa55e3f8c9d36859386dabfc0",
                "transactions" : [
                    {
                        "data" : "0x00",
                        "gasLimit" : "0x01312d00",
                        "gasPrice" : "0x01",
                        "nonce" : "0x00",
                        "r" : "0xa5babdfe77e19c1014d3aa0b7f949c3b47c9beb0beaadd25f81f121f7852d700",
                        "s" : "0x79cdf46c2587c800f8d808ab682546ae36b37d05dfa55e3f8c9d36859386dabf",
                        "to" : "0x095e7baea6a6c7c4c2dfeb977efac326af552d87",
                        "v" : "0x1c",
                        "value" : "0x00"
                    }
                ],
                "uncleHeaders" : [
                ]
            }
        ],
        "genesisBlockHeader" : {
            "bloom" : "0x00000000000000000000000000000000000000000000000000000000000000000000000000000000000000000000000000000000000000000000000000000000000000000000000000000000000000000000000000000000000000000000000000000000000000000000000000000000000000000000000000000000000000000000000000000000000000000000000000000000000000000000000000000000000000000000000000000000000000000000000000000000000000000000000000000000000000000000000000000000000000000000000000000000000000000000000000000000000000000000000000000000000000000000000000000000",
            "coinbase" : "0x2adc25665018aa1fe0e6bc666dac8fc2697ff9ba",
            "difficulty" : "0x020000",
            "extraData" : "0x42",
            "gasLimit" : "0x05f5e100",
            "gasUsed" : "0x00",
            "hash" : "0xe95f241512fdfa30db5ba27319016442c1f488fc821101e347bb6b4c9d465a48",
            "mixHash" : "0x56e81f171bcc55a6ff8345e692c0f86e5b48e01b996cadc001622fb5e363b421",
            "nonce" : "0x0102030405060708",
            "number" : "0x00",
            "parentHash" : "0x0000000000000000000000000000000000000000000000000000000000000000",
            "receiptTrie" : "0x56e81f171bcc55a6ff8345e692c0f86e5b48e01b996cadc001622fb5e363b421",
            "stateRoot" : "0x9008ad91ec1e082d860c3b91e8a401467937d726d71eb253f563ca256c64e393",
            "timestamp" : "0x03b6",
            "transactionsTrie" : "0x56e81f171bcc55a6ff8345e692c0f86e5b48e01b996cadc001622fb5e363b421",
            "uncleHash" : "0x1dcc4de8dec75d7aab85b567b6ccd41ad312451b948a7413f0a142fd40d49347"
        },
        "genesisRLP" : "0xf901fbf901f6a00000000000000000000000000000000000000000000000000000000000000000a01dcc4de8dec75d7aab85b567b6ccd41ad312451b948a7413f0a142fd40d49347942adc25665018aa1fe0e6bc666dac8fc2697ff9baa09008ad91ec1e082d860c3b91e8a401467937d726d71eb253f563ca256c64e393a056e81f171bcc55a6ff8345e692c0f86e5b48e01b996cadc001622fb5e363b421a056e81f171bcc55a6ff8345e692c0f86e5b48e01b996cadc001622fb5e363b421b901000000000000000000000000000000000000000000000000000000000000000000000000000000000000000000000000000000000000000000000000000000000000000000000000000000000000000000000000000000000000000000000000000000000000000000000000000000000000000000000000000000000000000000000000000000000000000000000000000000000000000000000000000000000000000000000000000000000000000000000000000000000000000000000000000000000000000000000000000000000000000000000000000000000000000000000000000000000000000000000000000000000000000000000000000000000083020000808405f5e100808203b642a056e81f171bcc55a6ff8345e692c0f86e5b48e01b996cadc001622fb5e363b421880102030405060708c0c0",
        "lastblockhash" : "0x4a4e88585f94704429b3e9207eeece7e6d8117f6c3a8cbd265e6df18ce497c4d",
        "network" : "EIP150",
        "postState" : {
            "0x095e7baea6a6c7c4c2dfeb977efac326af552d87" : {
                "balance" : "0x6f",
                "code" : "0x74600c60005566602060406000f060205260076039f36000526015600b6001f06000556000600060006000600c6000546000f1",
                "nonce" : "0x01",
                "storage" : {
                    "0x00" : "0xd2571607e241ecf590ed94b12d87c94babe36db6"
                }
            },
            "0x2adc25665018aa1fe0e6bc666dac8fc2697ff9ba" : {
                "balance" : "0x4563918244f597b8",
                "code" : "",
                "nonce" : "0x00",
                "storage" : {
                }
            },
            "0xa94f5374fce5edbc8e2a8697c15331677e6ebf0b" : {
                "balance" : "0x05f44948",
                "code" : "",
                "nonce" : "0x01",
                "storage" : {
                }
            },
            "0xd2571607e241ecf590ed94b12d87c94babe36db6" : {
                "balance" : "0x01",
                "code" : "0x602060406000f0",
                "nonce" : "0x00",
                "storage" : {
                    "0x00" : "0x0c"
                }
            }
        },
        "pre" : {
            "0x095e7baea6a6c7c4c2dfeb977efac326af552d87" : {
                "balance" : "0x70",
                "code" : "0x74600c60005566602060406000f060205260076039f36000526015600b6001f06000556000600060006000600c6000546000f1",
                "nonce" : "0x00",
                "storage" : {
                }
            },
            "0xa94f5374fce5edbc8e2a8697c15331677e6ebf0b" : {
                "balance" : "0x05f5e100",
                "code" : "",
                "nonce" : "0x00",
                "storage" : {
                }
            }
        }
    },
    "CallContractToCreateContractOOGBonusGas_d0g0v0_EIP158" : {
        "_info" : {
            "comment" : "",
            "filledwith" : "cpp-1.3.0+commit.16292201.Linux.g++",
            "source" : "/src/GenStateTestAsBcTemp/stInitCodeTest/CallContractToCreateContractOOGBonusGas_d0g0v0Filler.json"
        },
        "blocks" : [
            {
                "blockHeader" : {
                    "bloom" : "0x00000000000000000000000000000000000000000000000000000000000000000000000000000000000000000000000000000000000000000000000000000000000000000000000000000000000000000000000000000000000000000000000000000000000000000000000000000000000000000000000000000000000000000000000000000000000000000000000000000000000000000000000000000000000000000000000000000000000000000000000000000000000000000000000000000000000000000000000000000000000000000000000000000000000000000000000000000000000000000000000000000000000000000000000000000000",
                    "coinbase" : "0x2adc25665018aa1fe0e6bc666dac8fc2697ff9ba",
                    "difficulty" : "0x020000",
                    "extraData" : "",
                    "gasLimit" : "0x05f5e100",
                    "gasUsed" : "0x0197b8",
                    "hash" : "0x4417c21d2139c44212167aea3f9165c763f724b7202fa92886c8669702e80ad3",
                    "mixHash" : "0x34df241beff5e4d46f488fd9f53cd58035094f22edb0544e1955858fc65f2af3",
                    "nonce" : "0x108b36a4c165f6d5",
                    "number" : "0x01",
                    "parentHash" : "0xe95f241512fdfa30db5ba27319016442c1f488fc821101e347bb6b4c9d465a48",
                    "receiptTrie" : "0xe2c99ec3a3de672e345a055da98f9c37edadf91f60e48c9d306e6a41bbef1c91",
                    "stateRoot" : "0x925fe9574ac1f4366e9574da110cb8f73170d47b72afafdf8dabb1110de56202",
                    "timestamp" : "0x03e8",
                    "transactionsTrie" : "0xc9736bc50603440b31ff3f23c73baaab17b407a5db2b2aea4ea53a58a970ee0b",
                    "uncleHash" : "0x1dcc4de8dec75d7aab85b567b6ccd41ad312451b948a7413f0a142fd40d49347"
                },
                "rlp" : "0xf90262f901f9a0e95f241512fdfa30db5ba27319016442c1f488fc821101e347bb6b4c9d465a48a01dcc4de8dec75d7aab85b567b6ccd41ad312451b948a7413f0a142fd40d49347942adc25665018aa1fe0e6bc666dac8fc2697ff9baa0925fe9574ac1f4366e9574da110cb8f73170d47b72afafdf8dabb1110de56202a0c9736bc50603440b31ff3f23c73baaab17b407a5db2b2aea4ea53a58a970ee0ba0e2c99ec3a3de672e345a055da98f9c37edadf91f60e48c9d306e6a41bbef1c91b901000000000000000000000000000000000000000000000000000000000000000000000000000000000000000000000000000000000000000000000000000000000000000000000000000000000000000000000000000000000000000000000000000000000000000000000000000000000000000000000000000000000000000000000000000000000000000000000000000000000000000000000000000000000000000000000000000000000000000000000000000000000000000000000000000000000000000000000000000000000000000000000000000000000000000000000000000000000000000000000000000000000000000000000000000000000083020000018405f5e100830197b88203e880a034df241beff5e4d46f488fd9f53cd58035094f22edb0544e1955858fc65f2af388108b36a4c165f6d5f863f86180018401312d0094095e7baea6a6c7c4c2dfeb977efac326af552d8780001ca0a5babdfe77e19c1014d3aa0b7f949c3b47c9beb0beaadd25f81f121f7852d700a079cdf46c2587c800f8d808ab682546ae36b37d05dfa55e3f8c9d36859386dabfc0",
                "transactions" : [
                    {
                        "data" : "0x00",
                        "gasLimit" : "0x01312d00",
                        "gasPrice" : "0x01",
                        "nonce" : "0x00",
                        "r" : "0xa5babdfe77e19c1014d3aa0b7f949c3b47c9beb0beaadd25f81f121f7852d700",
                        "s" : "0x79cdf46c2587c800f8d808ab682546ae36b37d05dfa55e3f8c9d36859386dabf",
                        "to" : "0x095e7baea6a6c7c4c2dfeb977efac326af552d87",
                        "v" : "0x1c",
                        "value" : "0x00"
                    }
                ],
                "uncleHeaders" : [
                ]
            }
        ],
        "genesisBlockHeader" : {
            "bloom" : "0x00000000000000000000000000000000000000000000000000000000000000000000000000000000000000000000000000000000000000000000000000000000000000000000000000000000000000000000000000000000000000000000000000000000000000000000000000000000000000000000000000000000000000000000000000000000000000000000000000000000000000000000000000000000000000000000000000000000000000000000000000000000000000000000000000000000000000000000000000000000000000000000000000000000000000000000000000000000000000000000000000000000000000000000000000000000",
            "coinbase" : "0x2adc25665018aa1fe0e6bc666dac8fc2697ff9ba",
            "difficulty" : "0x020000",
            "extraData" : "0x42",
            "gasLimit" : "0x05f5e100",
            "gasUsed" : "0x00",
            "hash" : "0xe95f241512fdfa30db5ba27319016442c1f488fc821101e347bb6b4c9d465a48",
            "mixHash" : "0x56e81f171bcc55a6ff8345e692c0f86e5b48e01b996cadc001622fb5e363b421",
            "nonce" : "0x0102030405060708",
            "number" : "0x00",
            "parentHash" : "0x0000000000000000000000000000000000000000000000000000000000000000",
            "receiptTrie" : "0x56e81f171bcc55a6ff8345e692c0f86e5b48e01b996cadc001622fb5e363b421",
            "stateRoot" : "0x9008ad91ec1e082d860c3b91e8a401467937d726d71eb253f563ca256c64e393",
            "timestamp" : "0x03b6",
            "transactionsTrie" : "0x56e81f171bcc55a6ff8345e692c0f86e5b48e01b996cadc001622fb5e363b421",
            "uncleHash" : "0x1dcc4de8dec75d7aab85b567b6ccd41ad312451b948a7413f0a142fd40d49347"
        },
        "genesisRLP" : "0xf901fbf901f6a00000000000000000000000000000000000000000000000000000000000000000a01dcc4de8dec75d7aab85b567b6ccd41ad312451b948a7413f0a142fd40d49347942adc25665018aa1fe0e6bc666dac8fc2697ff9baa09008ad91ec1e082d860c3b91e8a401467937d726d71eb253f563ca256c64e393a056e81f171bcc55a6ff8345e692c0f86e5b48e01b996cadc001622fb5e363b421a056e81f171bcc55a6ff8345e692c0f86e5b48e01b996cadc001622fb5e363b421b901000000000000000000000000000000000000000000000000000000000000000000000000000000000000000000000000000000000000000000000000000000000000000000000000000000000000000000000000000000000000000000000000000000000000000000000000000000000000000000000000000000000000000000000000000000000000000000000000000000000000000000000000000000000000000000000000000000000000000000000000000000000000000000000000000000000000000000000000000000000000000000000000000000000000000000000000000000000000000000000000000000000000000000000000000000000083020000808405f5e100808203b642a056e81f171bcc55a6ff8345e692c0f86e5b48e01b996cadc001622fb5e363b421880102030405060708c0c0",
        "lastblockhash" : "0x4417c21d2139c44212167aea3f9165c763f724b7202fa92886c8669702e80ad3",
        "network" : "EIP158",
        "postState" : {
            "0x095e7baea6a6c7c4c2dfeb977efac326af552d87" : {
                "balance" : "0x6f",
                "code" : "0x74600c60005566602060406000f060205260076039f36000526015600b6001f06000556000600060006000600c6000546000f1",
                "nonce" : "0x01",
                "storage" : {
                    "0x00" : "0xd2571607e241ecf590ed94b12d87c94babe36db6"
                }
            },
            "0x2adc25665018aa1fe0e6bc666dac8fc2697ff9ba" : {
                "balance" : "0x4563918244f597b8",
                "code" : "",
                "nonce" : "0x00",
                "storage" : {
                }
            },
            "0xa94f5374fce5edbc8e2a8697c15331677e6ebf0b" : {
                "balance" : "0x05f44948",
                "code" : "",
                "nonce" : "0x01",
                "storage" : {
                }
            },
            "0xd2571607e241ecf590ed94b12d87c94babe36db6" : {
                "balance" : "0x01",
                "code" : "0x602060406000f0",
                "nonce" : "0x01",
                "storage" : {
                    "0x00" : "0x0c"
                }
            }
        },
        "pre" : {
            "0x095e7baea6a6c7c4c2dfeb977efac326af552d87" : {
                "balance" : "0x70",
                "code" : "0x74600c60005566602060406000f060205260076039f36000526015600b6001f06000556000600060006000600c6000546000f1",
                "nonce" : "0x00",
                "storage" : {
                }
            },
            "0xa94f5374fce5edbc8e2a8697c15331677e6ebf0b" : {
                "balance" : "0x05f5e100",
                "code" : "",
                "nonce" : "0x00",
                "storage" : {
                }
            }
        }
    },
    "CallContractToCreateContractOOGBonusGas_d0g0v0_Frontier" : {
        "_info" : {
            "comment" : "",
            "filledwith" : "cpp-1.3.0+commit.16292201.Linux.g++",
            "source" : "/src/GenStateTestAsBcTemp/stInitCodeTest/CallContractToCreateContractOOGBonusGas_d0g0v0Filler.json"
        },
        "blocks" : [
            {
                "blockHeader" : {
                    "bloom" : "0x00000000000000000000000000000000000000000000000000000000000000000000000000000000000000000000000000000000000000000000000000000000000000000000000000000000000000000000000000000000000000000000000000000000000000000000000000000000000000000000000000000000000000000000000000000000000000000000000000000000000000000000000000000000000000000000000000000000000000000000000000000000000000000000000000000000000000000000000000000000000000000000000000000000000000000000000000000000000000000000000000000000000000000000000000000000",
                    "coinbase" : "0x2adc25665018aa1fe0e6bc666dac8fc2697ff9ba",
                    "difficulty" : "0x020000",
                    "extraData" : "",
                    "gasLimit" : "0x05f5e100",
                    "gasUsed" : "0x01948e",
                    "hash" : "0xe0854d92b45922868d34f15ac41eb749fa05eb08a49389f08b5544f27feaf1c7",
                    "mixHash" : "0x23c30514610203c4dca28efc4a2278d9c4f931c80003e3f83c9c0349dd7a63a0",
                    "nonce" : "0x262413953e095285",
                    "number" : "0x01",
                    "parentHash" : "0xe95f241512fdfa30db5ba27319016442c1f488fc821101e347bb6b4c9d465a48",
                    "receiptTrie" : "0x8131e3247190f47b49c209c0648641774a99cc274548cd156f694a8dffef27e3",
                    "stateRoot" : "0xed144c0e977342bfe4a31ceb416aaa79f91da25672d099c4bab16b82a3067bd1",
                    "timestamp" : "0x03e8",
                    "transactionsTrie" : "0xc9736bc50603440b31ff3f23c73baaab17b407a5db2b2aea4ea53a58a970ee0b",
                    "uncleHash" : "0x1dcc4de8dec75d7aab85b567b6ccd41ad312451b948a7413f0a142fd40d49347"
                },
                "rlp" : "0xf90262f901f9a0e95f241512fdfa30db5ba27319016442c1f488fc821101e347bb6b4c9d465a48a01dcc4de8dec75d7aab85b567b6ccd41ad312451b948a7413f0a142fd40d49347942adc25665018aa1fe0e6bc666dac8fc2697ff9baa0ed144c0e977342bfe4a31ceb416aaa79f91da25672d099c4bab16b82a3067bd1a0c9736bc50603440b31ff3f23c73baaab17b407a5db2b2aea4ea53a58a970ee0ba08131e3247190f47b49c209c0648641774a99cc274548cd156f694a8dffef27e3b901000000000000000000000000000000000000000000000000000000000000000000000000000000000000000000000000000000000000000000000000000000000000000000000000000000000000000000000000000000000000000000000000000000000000000000000000000000000000000000000000000000000000000000000000000000000000000000000000000000000000000000000000000000000000000000000000000000000000000000000000000000000000000000000000000000000000000000000000000000000000000000000000000000000000000000000000000000000000000000000000000000000000000000000000000000000083020000018405f5e1008301948e8203e880a023c30514610203c4dca28efc4a2278d9c4f931c80003e3f83c9c0349dd7a63a088262413953e095285f863f86180018401312d0094095e7baea6a6c7c4c2dfeb977efac326af552d8780001ca0a5babdfe77e19c1014d3aa0b7f949c3b47c9beb0beaadd25f81f121f7852d700a079cdf46c2587c800f8d808ab682546ae36b37d05dfa55e3f8c9d36859386dabfc0",
                "transactions" : [
                    {
                        "data" : "0x00",
                        "gasLimit" : "0x01312d00",
                        "gasPrice" : "0x01",
                        "nonce" : "0x00",
                        "r" : "0xa5babdfe77e19c1014d3aa0b7f949c3b47c9beb0beaadd25f81f121f7852d700",
                        "s" : "0x79cdf46c2587c800f8d808ab682546ae36b37d05dfa55e3f8c9d36859386dabf",
                        "to" : "0x095e7baea6a6c7c4c2dfeb977efac326af552d87",
                        "v" : "0x1c",
                        "value" : "0x00"
                    }
                ],
                "uncleHeaders" : [
                ]
            }
        ],
        "genesisBlockHeader" : {
            "bloom" : "0x00000000000000000000000000000000000000000000000000000000000000000000000000000000000000000000000000000000000000000000000000000000000000000000000000000000000000000000000000000000000000000000000000000000000000000000000000000000000000000000000000000000000000000000000000000000000000000000000000000000000000000000000000000000000000000000000000000000000000000000000000000000000000000000000000000000000000000000000000000000000000000000000000000000000000000000000000000000000000000000000000000000000000000000000000000000",
            "coinbase" : "0x2adc25665018aa1fe0e6bc666dac8fc2697ff9ba",
            "difficulty" : "0x020000",
            "extraData" : "0x42",
            "gasLimit" : "0x05f5e100",
            "gasUsed" : "0x00",
            "hash" : "0xe95f241512fdfa30db5ba27319016442c1f488fc821101e347bb6b4c9d465a48",
            "mixHash" : "0x56e81f171bcc55a6ff8345e692c0f86e5b48e01b996cadc001622fb5e363b421",
            "nonce" : "0x0102030405060708",
            "number" : "0x00",
            "parentHash" : "0x0000000000000000000000000000000000000000000000000000000000000000",
            "receiptTrie" : "0x56e81f171bcc55a6ff8345e692c0f86e5b48e01b996cadc001622fb5e363b421",
            "stateRoot" : "0x9008ad91ec1e082d860c3b91e8a401467937d726d71eb253f563ca256c64e393",
            "timestamp" : "0x03b6",
            "transactionsTrie" : "0x56e81f171bcc55a6ff8345e692c0f86e5b48e01b996cadc001622fb5e363b421",
            "uncleHash" : "0x1dcc4de8dec75d7aab85b567b6ccd41ad312451b948a7413f0a142fd40d49347"
        },
        "genesisRLP" : "0xf901fbf901f6a00000000000000000000000000000000000000000000000000000000000000000a01dcc4de8dec75d7aab85b567b6ccd41ad312451b948a7413f0a142fd40d49347942adc25665018aa1fe0e6bc666dac8fc2697ff9baa09008ad91ec1e082d860c3b91e8a401467937d726d71eb253f563ca256c64e393a056e81f171bcc55a6ff8345e692c0f86e5b48e01b996cadc001622fb5e363b421a056e81f171bcc55a6ff8345e692c0f86e5b48e01b996cadc001622fb5e363b421b901000000000000000000000000000000000000000000000000000000000000000000000000000000000000000000000000000000000000000000000000000000000000000000000000000000000000000000000000000000000000000000000000000000000000000000000000000000000000000000000000000000000000000000000000000000000000000000000000000000000000000000000000000000000000000000000000000000000000000000000000000000000000000000000000000000000000000000000000000000000000000000000000000000000000000000000000000000000000000000000000000000000000000000000000000000000083020000808405f5e100808203b642a056e81f171bcc55a6ff8345e692c0f86e5b48e01b996cadc001622fb5e363b421880102030405060708c0c0",
        "lastblockhash" : "0xe0854d92b45922868d34f15ac41eb749fa05eb08a49389f08b5544f27feaf1c7",
        "network" : "Frontier",
        "postState" : {
            "0x095e7baea6a6c7c4c2dfeb977efac326af552d87" : {
                "balance" : "0x6f",
                "code" : "0x74600c60005566602060406000f060205260076039f36000526015600b6001f06000556000600060006000600c6000546000f1",
                "nonce" : "0x01",
                "storage" : {
                    "0x00" : "0xd2571607e241ecf590ed94b12d87c94babe36db6"
                }
            },
            "0x2adc25665018aa1fe0e6bc666dac8fc2697ff9ba" : {
                "balance" : "0x4563918244f5948e",
                "code" : "",
                "nonce" : "0x00",
                "storage" : {
                }
            },
            "0xa94f5374fce5edbc8e2a8697c15331677e6ebf0b" : {
                "balance" : "0x05f44c72",
                "code" : "",
                "nonce" : "0x01",
                "storage" : {
                }
            },
            "0xd2571607e241ecf590ed94b12d87c94babe36db6" : {
                "balance" : "0x01",
                "code" : "0x602060406000f0",
                "nonce" : "0x00",
                "storage" : {
                    "0x00" : "0x0c"
                }
            }
        },
        "pre" : {
            "0x095e7baea6a6c7c4c2dfeb977efac326af552d87" : {
                "balance" : "0x70",
                "code" : "0x74600c60005566602060406000f060205260076039f36000526015600b6001f06000556000600060006000600c6000546000f1",
                "nonce" : "0x00",
                "storage" : {
                }
            },
            "0xa94f5374fce5edbc8e2a8697c15331677e6ebf0b" : {
                "balance" : "0x05f5e100",
                "code" : "",
                "nonce" : "0x00",
                "storage" : {
                }
            }
        }
    },
    "CallContractToCreateContractOOGBonusGas_d0g0v0_Homestead" : {
        "_info" : {
            "comment" : "",
            "filledwith" : "cpp-1.3.0+commit.16292201.Linux.g++",
            "source" : "/src/GenStateTestAsBcTemp/stInitCodeTest/CallContractToCreateContractOOGBonusGas_d0g0v0Filler.json"
        },
        "blocks" : [
            {
                "blockHeader" : {
                    "bloom" : "0x00000000000000000000000000000000000000000000000000000000000000000000000000000000000000000000000000000000000000000000000000000000000000000000000000000000000000000000000000000000000000000000000000000000000000000000000000000000000000000000000000000000000000000000000000000000000000000000000000000000000000000000000000000000000000000000000000000000000000000000000000000000000000000000000000000000000000000000000000000000000000000000000000000000000000000000000000000000000000000000000000000000000000000000000000000000",
                    "coinbase" : "0x2adc25665018aa1fe0e6bc666dac8fc2697ff9ba",
                    "difficulty" : "0x020000",
                    "extraData" : "",
                    "gasLimit" : "0x05f5e100",
                    "gasUsed" : "0x01948e",
                    "hash" : "0x73c178d8a4d36f2b45c7548b7a95d7ec33f5e4b2997be88d45ca8f12f17b1b4e",
                    "mixHash" : "0x37d9c4476d74f00cb7413240a2b15c33ec9d94f7b43b2643b5accae44a8fcb23",
                    "nonce" : "0xe9525408d9983c1e",
                    "number" : "0x01",
                    "parentHash" : "0xe95f241512fdfa30db5ba27319016442c1f488fc821101e347bb6b4c9d465a48",
                    "receiptTrie" : "0x8131e3247190f47b49c209c0648641774a99cc274548cd156f694a8dffef27e3",
                    "stateRoot" : "0xed144c0e977342bfe4a31ceb416aaa79f91da25672d099c4bab16b82a3067bd1",
                    "timestamp" : "0x03e8",
                    "transactionsTrie" : "0xc9736bc50603440b31ff3f23c73baaab17b407a5db2b2aea4ea53a58a970ee0b",
                    "uncleHash" : "0x1dcc4de8dec75d7aab85b567b6ccd41ad312451b948a7413f0a142fd40d49347"
                },
                "rlp" : "0xf90262f901f9a0e95f241512fdfa30db5ba27319016442c1f488fc821101e347bb6b4c9d465a48a01dcc4de8dec75d7aab85b567b6ccd41ad312451b948a7413f0a142fd40d49347942adc25665018aa1fe0e6bc666dac8fc2697ff9baa0ed144c0e977342bfe4a31ceb416aaa79f91da25672d099c4bab16b82a3067bd1a0c9736bc50603440b31ff3f23c73baaab17b407a5db2b2aea4ea53a58a970ee0ba08131e3247190f47b49c209c0648641774a99cc274548cd156f694a8dffef27e3b901000000000000000000000000000000000000000000000000000000000000000000000000000000000000000000000000000000000000000000000000000000000000000000000000000000000000000000000000000000000000000000000000000000000000000000000000000000000000000000000000000000000000000000000000000000000000000000000000000000000000000000000000000000000000000000000000000000000000000000000000000000000000000000000000000000000000000000000000000000000000000000000000000000000000000000000000000000000000000000000000000000000000000000000000000000000083020000018405f5e1008301948e8203e880a037d9c4476d74f00cb7413240a2b15c33ec9d94f7b43b2643b5accae44a8fcb2388e9525408d9983c1ef863f86180018401312d0094095e7baea6a6c7c4c2dfeb977efac326af552d8780001ca0a5babdfe77e19c1014d3aa0b7f949c3b47c9beb0beaadd25f81f121f7852d700a079cdf46c2587c800f8d808ab682546ae36b37d05dfa55e3f8c9d36859386dabfc0",
                "transactions" : [
                    {
                        "data" : "0x00",
                        "gasLimit" : "0x01312d00",
                        "gasPrice" : "0x01",
                        "nonce" : "0x00",
                        "r" : "0xa5babdfe77e19c1014d3aa0b7f949c3b47c9beb0beaadd25f81f121f7852d700",
                        "s" : "0x79cdf46c2587c800f8d808ab682546ae36b37d05dfa55e3f8c9d36859386dabf",
                        "to" : "0x095e7baea6a6c7c4c2dfeb977efac326af552d87",
                        "v" : "0x1c",
                        "value" : "0x00"
                    }
                ],
                "uncleHeaders" : [
                ]
            }
        ],
        "genesisBlockHeader" : {
            "bloom" : "0x00000000000000000000000000000000000000000000000000000000000000000000000000000000000000000000000000000000000000000000000000000000000000000000000000000000000000000000000000000000000000000000000000000000000000000000000000000000000000000000000000000000000000000000000000000000000000000000000000000000000000000000000000000000000000000000000000000000000000000000000000000000000000000000000000000000000000000000000000000000000000000000000000000000000000000000000000000000000000000000000000000000000000000000000000000000",
            "coinbase" : "0x2adc25665018aa1fe0e6bc666dac8fc2697ff9ba",
            "difficulty" : "0x020000",
            "extraData" : "0x42",
            "gasLimit" : "0x05f5e100",
            "gasUsed" : "0x00",
            "hash" : "0xe95f241512fdfa30db5ba27319016442c1f488fc821101e347bb6b4c9d465a48",
            "mixHash" : "0x56e81f171bcc55a6ff8345e692c0f86e5b48e01b996cadc001622fb5e363b421",
            "nonce" : "0x0102030405060708",
            "number" : "0x00",
            "parentHash" : "0x0000000000000000000000000000000000000000000000000000000000000000",
            "receiptTrie" : "0x56e81f171bcc55a6ff8345e692c0f86e5b48e01b996cadc001622fb5e363b421",
            "stateRoot" : "0x9008ad91ec1e082d860c3b91e8a401467937d726d71eb253f563ca256c64e393",
            "timestamp" : "0x03b6",
            "transactionsTrie" : "0x56e81f171bcc55a6ff8345e692c0f86e5b48e01b996cadc001622fb5e363b421",
            "uncleHash" : "0x1dcc4de8dec75d7aab85b567b6ccd41ad312451b948a7413f0a142fd40d49347"
        },
        "genesisRLP" : "0xf901fbf901f6a00000000000000000000000000000000000000000000000000000000000000000a01dcc4de8dec75d7aab85b567b6ccd41ad312451b948a7413f0a142fd40d49347942adc25665018aa1fe0e6bc666dac8fc2697ff9baa09008ad91ec1e082d860c3b91e8a401467937d726d71eb253f563ca256c64e393a056e81f171bcc55a6ff8345e692c0f86e5b48e01b996cadc001622fb5e363b421a056e81f171bcc55a6ff8345e692c0f86e5b48e01b996cadc001622fb5e363b421b901000000000000000000000000000000000000000000000000000000000000000000000000000000000000000000000000000000000000000000000000000000000000000000000000000000000000000000000000000000000000000000000000000000000000000000000000000000000000000000000000000000000000000000000000000000000000000000000000000000000000000000000000000000000000000000000000000000000000000000000000000000000000000000000000000000000000000000000000000000000000000000000000000000000000000000000000000000000000000000000000000000000000000000000000000000000083020000808405f5e100808203b642a056e81f171bcc55a6ff8345e692c0f86e5b48e01b996cadc001622fb5e363b421880102030405060708c0c0",
        "lastblockhash" : "0x73c178d8a4d36f2b45c7548b7a95d7ec33f5e4b2997be88d45ca8f12f17b1b4e",
        "network" : "Homestead",
        "postState" : {
            "0x095e7baea6a6c7c4c2dfeb977efac326af552d87" : {
                "balance" : "0x6f",
                "code" : "0x74600c60005566602060406000f060205260076039f36000526015600b6001f06000556000600060006000600c6000546000f1",
                "nonce" : "0x01",
                "storage" : {
                    "0x00" : "0xd2571607e241ecf590ed94b12d87c94babe36db6"
                }
            },
            "0x2adc25665018aa1fe0e6bc666dac8fc2697ff9ba" : {
                "balance" : "0x4563918244f5948e",
                "code" : "",
                "nonce" : "0x00",
                "storage" : {
                }
            },
            "0xa94f5374fce5edbc8e2a8697c15331677e6ebf0b" : {
                "balance" : "0x05f44c72",
                "code" : "",
                "nonce" : "0x01",
                "storage" : {
                }
            },
            "0xd2571607e241ecf590ed94b12d87c94babe36db6" : {
                "balance" : "0x01",
                "code" : "0x602060406000f0",
                "nonce" : "0x00",
                "storage" : {
                    "0x00" : "0x0c"
                }
            }
        },
        "pre" : {
            "0x095e7baea6a6c7c4c2dfeb977efac326af552d87" : {
                "balance" : "0x70",
                "code" : "0x74600c60005566602060406000f060205260076039f36000526015600b6001f06000556000600060006000600c6000546000f1",
                "nonce" : "0x00",
                "storage" : {
                }
            },
            "0xa94f5374fce5edbc8e2a8697c15331677e6ebf0b" : {
                "balance" : "0x05f5e100",
                "code" : "",
                "nonce" : "0x00",
                "storage" : {
                }
            }
        }
    },
    "CallContractToCreateContractOOGBonusGas_d0g0v0_Metropolis" : {
        "_info" : {
            "comment" : "",
            "filledwith" : "cpp-1.3.0+commit.16292201.Linux.g++",
            "source" : "/src/GenStateTestAsBcTemp/stInitCodeTest/CallContractToCreateContractOOGBonusGas_d0g0v0Filler.json"
        },
        "blocks" : [
            {
                "blockHeader" : {
                    "bloom" : "0x00000000000000000000000000000000000000000000000000000000000000000000000000000000000000000000000000000000000000000000000000000000000000000000000000000000000000000000000000000000000000000000000000000000000000000000000000000000000000000000000000000000000000000000000000000000000000000000000000000000000000000000000000000000000000000000000000000000000000000000000000000000000000000000000000000000000000000000000000000000000000000000000000000000000000000000000000000000000000000000000000000000000000000000000000000000",
                    "coinbase" : "0x2adc25665018aa1fe0e6bc666dac8fc2697ff9ba",
                    "difficulty" : "0x020000",
                    "extraData" : "",
                    "gasLimit" : "0x05f5e100",
                    "gasUsed" : "0x0197b8",
                    "hash" : "0x2d4f4dba8a11a3e326dad80eb9448e698141854c27ebdd0597e9d46a4358a2d9",
                    "mixHash" : "0x33c00e325f2db98d91fb44686d0c289448c84399aeb1606f3cfef82871aafb0f",
                    "nonce" : "0x4a1a081b7c778ed4",
                    "number" : "0x01",
                    "parentHash" : "0xe95f241512fdfa30db5ba27319016442c1f488fc821101e347bb6b4c9d465a48",
                    "receiptTrie" : "0xafb912caf146373afd94860bf417361b0ea3846588fa08fc4488171da2d16ad7",
                    "stateRoot" : "0x6cf5a55b36dab9c7fa470556b6196265587a7d12caaca9f1f116ee264e77e414",
                    "timestamp" : "0x03e8",
                    "transactionsTrie" : "0xc9736bc50603440b31ff3f23c73baaab17b407a5db2b2aea4ea53a58a970ee0b",
                    "uncleHash" : "0x1dcc4de8dec75d7aab85b567b6ccd41ad312451b948a7413f0a142fd40d49347"
                },
                "rlp" : "0xf90262f901f9a0e95f241512fdfa30db5ba27319016442c1f488fc821101e347bb6b4c9d465a48a01dcc4de8dec75d7aab85b567b6ccd41ad312451b948a7413f0a142fd40d49347942adc25665018aa1fe0e6bc666dac8fc2697ff9baa06cf5a55b36dab9c7fa470556b6196265587a7d12caaca9f1f116ee264e77e414a0c9736bc50603440b31ff3f23c73baaab17b407a5db2b2aea4ea53a58a970ee0ba0afb912caf146373afd94860bf417361b0ea3846588fa08fc4488171da2d16ad7b901000000000000000000000000000000000000000000000000000000000000000000000000000000000000000000000000000000000000000000000000000000000000000000000000000000000000000000000000000000000000000000000000000000000000000000000000000000000000000000000000000000000000000000000000000000000000000000000000000000000000000000000000000000000000000000000000000000000000000000000000000000000000000000000000000000000000000000000000000000000000000000000000000000000000000000000000000000000000000000000000000000000000000000000000000000000083020000018405f5e100830197b88203e880a033c00e325f2db98d91fb44686d0c289448c84399aeb1606f3cfef82871aafb0f884a1a081b7c778ed4f863f86180018401312d0094095e7baea6a6c7c4c2dfeb977efac326af552d8780001ca0a5babdfe77e19c1014d3aa0b7f949c3b47c9beb0beaadd25f81f121f7852d700a079cdf46c2587c800f8d808ab682546ae36b37d05dfa55e3f8c9d36859386dabfc0",
                "transactions" : [
                    {
                        "data" : "0x00",
                        "gasLimit" : "0x01312d00",
                        "gasPrice" : "0x01",
                        "nonce" : "0x00",
                        "r" : "0xa5babdfe77e19c1014d3aa0b7f949c3b47c9beb0beaadd25f81f121f7852d700",
                        "s" : "0x79cdf46c2587c800f8d808ab682546ae36b37d05dfa55e3f8c9d36859386dabf",
                        "to" : "0x095e7baea6a6c7c4c2dfeb977efac326af552d87",
                        "v" : "0x1c",
                        "value" : "0x00"
                    }
                ],
                "uncleHeaders" : [
                ]
            }
        ],
        "genesisBlockHeader" : {
            "bloom" : "0x00000000000000000000000000000000000000000000000000000000000000000000000000000000000000000000000000000000000000000000000000000000000000000000000000000000000000000000000000000000000000000000000000000000000000000000000000000000000000000000000000000000000000000000000000000000000000000000000000000000000000000000000000000000000000000000000000000000000000000000000000000000000000000000000000000000000000000000000000000000000000000000000000000000000000000000000000000000000000000000000000000000000000000000000000000000",
            "coinbase" : "0x2adc25665018aa1fe0e6bc666dac8fc2697ff9ba",
            "difficulty" : "0x020000",
            "extraData" : "0x42",
            "gasLimit" : "0x05f5e100",
            "gasUsed" : "0x00",
            "hash" : "0xe95f241512fdfa30db5ba27319016442c1f488fc821101e347bb6b4c9d465a48",
            "mixHash" : "0x56e81f171bcc55a6ff8345e692c0f86e5b48e01b996cadc001622fb5e363b421",
            "nonce" : "0x0102030405060708",
            "number" : "0x00",
            "parentHash" : "0x0000000000000000000000000000000000000000000000000000000000000000",
            "receiptTrie" : "0x56e81f171bcc55a6ff8345e692c0f86e5b48e01b996cadc001622fb5e363b421",
            "stateRoot" : "0x9008ad91ec1e082d860c3b91e8a401467937d726d71eb253f563ca256c64e393",
            "timestamp" : "0x03b6",
            "transactionsTrie" : "0x56e81f171bcc55a6ff8345e692c0f86e5b48e01b996cadc001622fb5e363b421",
            "uncleHash" : "0x1dcc4de8dec75d7aab85b567b6ccd41ad312451b948a7413f0a142fd40d49347"
        },
        "genesisRLP" : "0xf901fbf901f6a00000000000000000000000000000000000000000000000000000000000000000a01dcc4de8dec75d7aab85b567b6ccd41ad312451b948a7413f0a142fd40d49347942adc25665018aa1fe0e6bc666dac8fc2697ff9baa09008ad91ec1e082d860c3b91e8a401467937d726d71eb253f563ca256c64e393a056e81f171bcc55a6ff8345e692c0f86e5b48e01b996cadc001622fb5e363b421a056e81f171bcc55a6ff8345e692c0f86e5b48e01b996cadc001622fb5e363b421b901000000000000000000000000000000000000000000000000000000000000000000000000000000000000000000000000000000000000000000000000000000000000000000000000000000000000000000000000000000000000000000000000000000000000000000000000000000000000000000000000000000000000000000000000000000000000000000000000000000000000000000000000000000000000000000000000000000000000000000000000000000000000000000000000000000000000000000000000000000000000000000000000000000000000000000000000000000000000000000000000000000000000000000000000000000000083020000808405f5e100808203b642a056e81f171bcc55a6ff8345e692c0f86e5b48e01b996cadc001622fb5e363b421880102030405060708c0c0",
        "lastblockhash" : "0x2d4f4dba8a11a3e326dad80eb9448e698141854c27ebdd0597e9d46a4358a2d9",
        "network" : "Metropolis",
        "postState" : {
            "0x00000000000000000000000000000000000000f0" : {
                "balance" : "0x00",
                "code" : "",
                "nonce" : "0x00",
                "storage" : {
                }
            },
            "0x095e7baea6a6c7c4c2dfeb977efac326af552d87" : {
                "balance" : "0x6f",
                "code" : "0x74600c60005566602060406000f060205260076039f36000526015600b6001f06000556000600060006000600c6000546000f1",
                "nonce" : "0x01",
                "storage" : {
                    "0x00" : "0xd2571607e241ecf590ed94b12d87c94babe36db6"
                }
            },
            "0x2adc25665018aa1fe0e6bc666dac8fc2697ff9ba" : {
                "balance" : "0x4563918244f597b8",
                "code" : "",
                "nonce" : "0x00",
                "storage" : {
                }
            },
            "0xa94f5374fce5edbc8e2a8697c15331677e6ebf0b" : {
                "balance" : "0x05f44948",
                "code" : "",
                "nonce" : "0x01",
                "storage" : {
                }
            },
            "0xd2571607e241ecf590ed94b12d87c94babe36db6" : {
                "balance" : "0x01",
                "code" : "0x602060406000f0",
                "nonce" : "0x01",
                "storage" : {
                    "0x00" : "0x0c"
                }
            }
        },
        "pre" : {
            "0x095e7baea6a6c7c4c2dfeb977efac326af552d87" : {
                "balance" : "0x70",
                "code" : "0x74600c60005566602060406000f060205260076039f36000526015600b6001f06000556000600060006000600c6000546000f1",
                "nonce" : "0x00",
                "storage" : {
                }
            },
            "0xa94f5374fce5edbc8e2a8697c15331677e6ebf0b" : {
                "balance" : "0x05f5e100",
                "code" : "",
                "nonce" : "0x00",
                "storage" : {
                }
            }
        }
    }
}