{
    "CallContractToCreateContractAndCallItOOG_d0g0v0_Byzantium" : {
        "_info" : {
            "comment" : "",
            "filledwith" : "cpp-1.3.0+commit.8fb57c56.Linux.g++",
            "lllcversion" : "Version: 0.4.20-develop.2018.1.8+commit.2548228b.Linux.g++",
            "source" : "src/BlockchainTestsFiller/GeneralStateTests/stInitCodeTest/CallContractToCreateContractAndCallItOOG_d0g0v0Filler.json",
            "sourceHash" : "7f28324820ba0a4a5a410cb9ef08f9ce320ad147c8b1663c1c8889eb9c49d2cd"
        },
        "blocks" : [
            {
                "blockHeader" : {
                    "bloom" : "0x00000000000000000000000000000000000000000000000000000000000000000000000000000000000000000000000000000000000000000000000000000000000000000000000000000000000000000000000000000000000000000000000000000000000000000000000000000000000000000000000000000000000000000000000000000000000000000000000000000000000000000000000000000000000000000000000000000000000000000000000000000000000000000000000000000000000000000000000000000000000000000000000000000000000000000000000000000000000000000000000000000000000000000000000000000000",
                    "coinbase" : "0x2adc25665018aa1fe0e6bc666dac8fc2697ff9ba",
                    "difficulty" : "0x020000",
                    "extraData" : "",
                    "gasLimit" : "0x05f5e100",
                    "gasUsed" : "0x017878",
                    "hash" : "0xd6c33137b0eb69d343fb25be33a5886259f18ccbe1845de43252f6eb84adb4f1",
                    "mixHash" : "0x17707a6a424570dfdda426f0842e3572d00557f221eef716545061fb9b24b9dc",
                    "nonce" : "0x1ae54eb0a409cd39",
                    "number" : "0x01",
                    "parentHash" : "0x8da1d28acef8b132ae719f0ca5ff9468e0dc911675aa8477dcefbfa8f02d2843",
                    "receiptTrie" : "0xd0e270562064e137d79f512ef3ca4c981a592b3d8607487df457dea9a774d027",
                    "stateRoot" : "0xe387b0158ed9d45dfb685497e4390792196a041c86a0fcb22e34932f320936ea",
                    "timestamp" : "0x03e8",
                    "transactionsTrie" : "0x6f54a3f90a0be837cd8357c28b481ba8017d07ba63237e10b76569a2c6e2bd3b",
                    "uncleHash" : "0x1dcc4de8dec75d7aab85b567b6ccd41ad312451b948a7413f0a142fd40d49347"
                },
                "rlp" : "0xf90261f901f9a08da1d28acef8b132ae719f0ca5ff9468e0dc911675aa8477dcefbfa8f02d2843a01dcc4de8dec75d7aab85b567b6ccd41ad312451b948a7413f0a142fd40d49347942adc25665018aa1fe0e6bc666dac8fc2697ff9baa0e387b0158ed9d45dfb685497e4390792196a041c86a0fcb22e34932f320936eaa06f54a3f90a0be837cd8357c28b481ba8017d07ba63237e10b76569a2c6e2bd3ba0d0e270562064e137d79f512ef3ca4c981a592b3d8607487df457dea9a774d027b901000000000000000000000000000000000000000000000000000000000000000000000000000000000000000000000000000000000000000000000000000000000000000000000000000000000000000000000000000000000000000000000000000000000000000000000000000000000000000000000000000000000000000000000000000000000000000000000000000000000000000000000000000000000000000000000000000000000000000000000000000000000000000000000000000000000000000000000000000000000000000000000000000000000000000000000000000000000000000000000000000000000000000000000000000000000083020000018405f5e100830178788203e880a017707a6a424570dfdda426f0842e3572d00557f221eef716545061fb9b24b9dc881ae54eb0a409cd39f862f8608001830318f894095e7baea6a6c7c4c2dfeb977efac326af552d8780001ba0d2dcdfd1cdaddf6df344be51f59e214875efd3405d665d95d4dc8655293b866fa03ec96b23e0612dd65f9b8d505e26b8b95fcb8612e207bd4ec1f613edb4f68ec0c0",
                "transactions" : [
                    {
                        "data" : "0x00",
                        "gasLimit" : "0x0318f8",
                        "gasPrice" : "0x01",
                        "nonce" : "0x00",
                        "r" : "0xd2dcdfd1cdaddf6df344be51f59e214875efd3405d665d95d4dc8655293b866f",
                        "s" : "0x3ec96b23e0612dd65f9b8d505e26b8b95fcb8612e207bd4ec1f613edb4f68ec0",
                        "to" : "0x095e7baea6a6c7c4c2dfeb977efac326af552d87",
                        "v" : "0x1b",
                        "value" : "0x00"
                    }
                ],
                "uncleHeaders" : [
                ]
            }
        ],
        "genesisBlockHeader" : {
            "bloom" : "0x00000000000000000000000000000000000000000000000000000000000000000000000000000000000000000000000000000000000000000000000000000000000000000000000000000000000000000000000000000000000000000000000000000000000000000000000000000000000000000000000000000000000000000000000000000000000000000000000000000000000000000000000000000000000000000000000000000000000000000000000000000000000000000000000000000000000000000000000000000000000000000000000000000000000000000000000000000000000000000000000000000000000000000000000000000000",
            "coinbase" : "0x2adc25665018aa1fe0e6bc666dac8fc2697ff9ba",
            "difficulty" : "0x020000",
            "extraData" : "0x42",
            "gasLimit" : "0x05f5e100",
            "gasUsed" : "0x00",
            "hash" : "0x8da1d28acef8b132ae719f0ca5ff9468e0dc911675aa8477dcefbfa8f02d2843",
            "mixHash" : "0x56e81f171bcc55a6ff8345e692c0f86e5b48e01b996cadc001622fb5e363b421",
            "nonce" : "0x0102030405060708",
            "number" : "0x00",
            "parentHash" : "0x0000000000000000000000000000000000000000000000000000000000000000",
            "receiptTrie" : "0x56e81f171bcc55a6ff8345e692c0f86e5b48e01b996cadc001622fb5e363b421",
            "stateRoot" : "0x3ab4ce03e63eee91700ee708b140752dc1a2eac333f0ca7cbfe3b1d74737d6c3",
            "timestamp" : "0x03b6",
            "transactionsTrie" : "0x56e81f171bcc55a6ff8345e692c0f86e5b48e01b996cadc001622fb5e363b421",
            "uncleHash" : "0x1dcc4de8dec75d7aab85b567b6ccd41ad312451b948a7413f0a142fd40d49347"
        },
        "genesisRLP" : "0xf901fbf901f6a00000000000000000000000000000000000000000000000000000000000000000a01dcc4de8dec75d7aab85b567b6ccd41ad312451b948a7413f0a142fd40d49347942adc25665018aa1fe0e6bc666dac8fc2697ff9baa03ab4ce03e63eee91700ee708b140752dc1a2eac333f0ca7cbfe3b1d74737d6c3a056e81f171bcc55a6ff8345e692c0f86e5b48e01b996cadc001622fb5e363b421a056e81f171bcc55a6ff8345e692c0f86e5b48e01b996cadc001622fb5e363b421b901000000000000000000000000000000000000000000000000000000000000000000000000000000000000000000000000000000000000000000000000000000000000000000000000000000000000000000000000000000000000000000000000000000000000000000000000000000000000000000000000000000000000000000000000000000000000000000000000000000000000000000000000000000000000000000000000000000000000000000000000000000000000000000000000000000000000000000000000000000000000000000000000000000000000000000000000000000000000000000000000000000000000000000000000000000000083020000808405f5e100808203b642a056e81f171bcc55a6ff8345e692c0f86e5b48e01b996cadc001622fb5e363b421880102030405060708c0c0",
        "lastblockhash" : "0xd6c33137b0eb69d343fb25be33a5886259f18ccbe1845de43252f6eb84adb4f1",
        "network" : "Byzantium",
        "postState" : {
            "0x095e7baea6a6c7c4c2dfeb977efac326af552d87" : {
                "balance" : "0x03e7",
                "code" : "0x74600c60005566602060406000f060205260076039f36000526015600b6001f0600055600060006000600060006000546103e8f1",
                "nonce" : "0x01",
                "storage" : {
                    "0x00" : "0xd2571607e241ecf590ed94b12d87c94babe36db6"
                }
            },
            "0x2adc25665018aa1fe0e6bc666dac8fc2697ff9ba" : {
                "balance" : "0x29a2241af62d7878",
                "code" : "",
                "nonce" : "0x00",
                "storage" : {
                }
            },
            "0xa94f5374fce5edbc8e2a8697c15331677e6ebf0b" : {
                "balance" : "0x05f46888",
                "code" : "",
                "nonce" : "0x01",
                "storage" : {
                }
            },
            "0xd2571607e241ecf590ed94b12d87c94babe36db6" : {
                "balance" : "0x01",
                "code" : "0x602060406000f0",
                "nonce" : "0x01",
                "storage" : {
                    "0x00" : "0x0c"
                }
            }
        },
        "pre" : {
            "0x095e7baea6a6c7c4c2dfeb977efac326af552d87" : {
                "balance" : "0x03e8",
                "code" : "0x74600c60005566602060406000f060205260076039f36000526015600b6001f0600055600060006000600060006000546103e8f1",
                "nonce" : "0x00",
                "storage" : {
                }
            },
            "0xa94f5374fce5edbc8e2a8697c15331677e6ebf0b" : {
                "balance" : "0x05f5e100",
                "code" : "",
                "nonce" : "0x00",
                "storage" : {
                }
            }
        }
    },
    "CallContractToCreateContractAndCallItOOG_d0g0v0_EIP150" : {
        "_info" : {
            "comment" : "",
            "filledwith" : "cpp-1.3.0+commit.8fb57c56.Linux.g++",
            "lllcversion" : "Version: 0.4.20-develop.2018.1.8+commit.2548228b.Linux.g++",
            "source" : "src/BlockchainTestsFiller/GeneralStateTests/stInitCodeTest/CallContractToCreateContractAndCallItOOG_d0g0v0Filler.json",
            "sourceHash" : "7f28324820ba0a4a5a410cb9ef08f9ce320ad147c8b1663c1c8889eb9c49d2cd"
        },
        "blocks" : [
            {
                "blockHeader" : {
                    "bloom" : "0x00000000000000000000000000000000000000000000000000000000000000000000000000000000000000000000000000000000000000000000000000000000000000000000000000000000000000000000000000000000000000000000000000000000000000000000000000000000000000000000000000000000000000000000000000000000000000000000000000000000000000000000000000000000000000000000000000000000000000000000000000000000000000000000000000000000000000000000000000000000000000000000000000000000000000000000000000000000000000000000000000000000000000000000000000000000",
                    "coinbase" : "0x2adc25665018aa1fe0e6bc666dac8fc2697ff9ba",
                    "difficulty" : "0x020000",
                    "extraData" : "",
                    "gasLimit" : "0x05f5e100",
                    "gasUsed" : "0x017878",
                    "hash" : "0xa930861c8de568802d73ed9f494a7a60b21a220673141afebd3a91f4c38810b4",
                    "mixHash" : "0x29721dae5d77f66ab804433450302350b08ccde863b1a4e92bd16ddd30429b5d",
                    "nonce" : "0x8e33acf534ea248f",
                    "number" : "0x01",
                    "parentHash" : "0x8da1d28acef8b132ae719f0ca5ff9468e0dc911675aa8477dcefbfa8f02d2843",
                    "receiptTrie" : "0x7bb57f19482df999dca6a92266bf1c6afae186e631e28314f57fd532008f76aa",
                    "stateRoot" : "0xb6e7008326531bc630be69df6c30c403e5492aa50a40fb28154d97a461431d0f",
                    "timestamp" : "0x03e8",
                    "transactionsTrie" : "0x6f54a3f90a0be837cd8357c28b481ba8017d07ba63237e10b76569a2c6e2bd3b",
                    "uncleHash" : "0x1dcc4de8dec75d7aab85b567b6ccd41ad312451b948a7413f0a142fd40d49347"
                },
                "rlp" : "0xf90261f901f9a08da1d28acef8b132ae719f0ca5ff9468e0dc911675aa8477dcefbfa8f02d2843a01dcc4de8dec75d7aab85b567b6ccd41ad312451b948a7413f0a142fd40d49347942adc25665018aa1fe0e6bc666dac8fc2697ff9baa0b6e7008326531bc630be69df6c30c403e5492aa50a40fb28154d97a461431d0fa06f54a3f90a0be837cd8357c28b481ba8017d07ba63237e10b76569a2c6e2bd3ba07bb57f19482df999dca6a92266bf1c6afae186e631e28314f57fd532008f76aab901000000000000000000000000000000000000000000000000000000000000000000000000000000000000000000000000000000000000000000000000000000000000000000000000000000000000000000000000000000000000000000000000000000000000000000000000000000000000000000000000000000000000000000000000000000000000000000000000000000000000000000000000000000000000000000000000000000000000000000000000000000000000000000000000000000000000000000000000000000000000000000000000000000000000000000000000000000000000000000000000000000000000000000000000000000000083020000018405f5e100830178788203e880a029721dae5d77f66ab804433450302350b08ccde863b1a4e92bd16ddd30429b5d888e33acf534ea248ff862f8608001830318f894095e7baea6a6c7c4c2dfeb977efac326af552d8780001ba0d2dcdfd1cdaddf6df344be51f59e214875efd3405d665d95d4dc8655293b866fa03ec96b23e0612dd65f9b8d505e26b8b95fcb8612e207bd4ec1f613edb4f68ec0c0",
                "transactions" : [
                    {
                        "data" : "0x00",
                        "gasLimit" : "0x0318f8",
                        "gasPrice" : "0x01",
                        "nonce" : "0x00",
                        "r" : "0xd2dcdfd1cdaddf6df344be51f59e214875efd3405d665d95d4dc8655293b866f",
                        "s" : "0x3ec96b23e0612dd65f9b8d505e26b8b95fcb8612e207bd4ec1f613edb4f68ec0",
                        "to" : "0x095e7baea6a6c7c4c2dfeb977efac326af552d87",
                        "v" : "0x1b",
                        "value" : "0x00"
                    }
                ],
                "uncleHeaders" : [
                ]
            }
        ],
        "genesisBlockHeader" : {
            "bloom" : "0x00000000000000000000000000000000000000000000000000000000000000000000000000000000000000000000000000000000000000000000000000000000000000000000000000000000000000000000000000000000000000000000000000000000000000000000000000000000000000000000000000000000000000000000000000000000000000000000000000000000000000000000000000000000000000000000000000000000000000000000000000000000000000000000000000000000000000000000000000000000000000000000000000000000000000000000000000000000000000000000000000000000000000000000000000000000",
            "coinbase" : "0x2adc25665018aa1fe0e6bc666dac8fc2697ff9ba",
            "difficulty" : "0x020000",
            "extraData" : "0x42",
            "gasLimit" : "0x05f5e100",
            "gasUsed" : "0x00",
            "hash" : "0x8da1d28acef8b132ae719f0ca5ff9468e0dc911675aa8477dcefbfa8f02d2843",
            "mixHash" : "0x56e81f171bcc55a6ff8345e692c0f86e5b48e01b996cadc001622fb5e363b421",
            "nonce" : "0x0102030405060708",
            "number" : "0x00",
            "parentHash" : "0x0000000000000000000000000000000000000000000000000000000000000000",
            "receiptTrie" : "0x56e81f171bcc55a6ff8345e692c0f86e5b48e01b996cadc001622fb5e363b421",
            "stateRoot" : "0x3ab4ce03e63eee91700ee708b140752dc1a2eac333f0ca7cbfe3b1d74737d6c3",
            "timestamp" : "0x03b6",
            "transactionsTrie" : "0x56e81f171bcc55a6ff8345e692c0f86e5b48e01b996cadc001622fb5e363b421",
            "uncleHash" : "0x1dcc4de8dec75d7aab85b567b6ccd41ad312451b948a7413f0a142fd40d49347"
        },
        "genesisRLP" : "0xf901fbf901f6a00000000000000000000000000000000000000000000000000000000000000000a01dcc4de8dec75d7aab85b567b6ccd41ad312451b948a7413f0a142fd40d49347942adc25665018aa1fe0e6bc666dac8fc2697ff9baa03ab4ce03e63eee91700ee708b140752dc1a2eac333f0ca7cbfe3b1d74737d6c3a056e81f171bcc55a6ff8345e692c0f86e5b48e01b996cadc001622fb5e363b421a056e81f171bcc55a6ff8345e692c0f86e5b48e01b996cadc001622fb5e363b421b901000000000000000000000000000000000000000000000000000000000000000000000000000000000000000000000000000000000000000000000000000000000000000000000000000000000000000000000000000000000000000000000000000000000000000000000000000000000000000000000000000000000000000000000000000000000000000000000000000000000000000000000000000000000000000000000000000000000000000000000000000000000000000000000000000000000000000000000000000000000000000000000000000000000000000000000000000000000000000000000000000000000000000000000000000000000083020000808405f5e100808203b642a056e81f171bcc55a6ff8345e692c0f86e5b48e01b996cadc001622fb5e363b421880102030405060708c0c0",
        "lastblockhash" : "0xa930861c8de568802d73ed9f494a7a60b21a220673141afebd3a91f4c38810b4",
        "network" : "EIP150",
        "postState" : {
            "0x095e7baea6a6c7c4c2dfeb977efac326af552d87" : {
                "balance" : "0x03e7",
                "code" : "0x74600c60005566602060406000f060205260076039f36000526015600b6001f0600055600060006000600060006000546103e8f1",
                "nonce" : "0x01",
                "storage" : {
                    "0x00" : "0xd2571607e241ecf590ed94b12d87c94babe36db6"
                }
            },
            "0x2adc25665018aa1fe0e6bc666dac8fc2697ff9ba" : {
                "balance" : "0x4563918244f57878",
                "code" : "",
                "nonce" : "0x00",
                "storage" : {
                }
            },
            "0xa94f5374fce5edbc8e2a8697c15331677e6ebf0b" : {
                "balance" : "0x05f46888",
                "code" : "",
                "nonce" : "0x01",
                "storage" : {
                }
            },
            "0xd2571607e241ecf590ed94b12d87c94babe36db6" : {
                "balance" : "0x01",
                "code" : "0x602060406000f0",
                "nonce" : "0x00",
                "storage" : {
                    "0x00" : "0x0c"
                }
            }
        },
        "pre" : {
            "0x095e7baea6a6c7c4c2dfeb977efac326af552d87" : {
                "balance" : "0x03e8",
                "code" : "0x74600c60005566602060406000f060205260076039f36000526015600b6001f0600055600060006000600060006000546103e8f1",
                "nonce" : "0x00",
                "storage" : {
                }
            },
            "0xa94f5374fce5edbc8e2a8697c15331677e6ebf0b" : {
                "balance" : "0x05f5e100",
                "code" : "",
                "nonce" : "0x00",
                "storage" : {
                }
            }
        }
    },
    "CallContractToCreateContractAndCallItOOG_d0g0v0_EIP158" : {
        "_info" : {
            "comment" : "",
            "filledwith" : "cpp-1.3.0+commit.8fb57c56.Linux.g++",
            "lllcversion" : "Version: 0.4.20-develop.2018.1.8+commit.2548228b.Linux.g++",
            "source" : "src/BlockchainTestsFiller/GeneralStateTests/stInitCodeTest/CallContractToCreateContractAndCallItOOG_d0g0v0Filler.json",
            "sourceHash" : "7f28324820ba0a4a5a410cb9ef08f9ce320ad147c8b1663c1c8889eb9c49d2cd"
        },
        "blocks" : [
            {
                "blockHeader" : {
                    "bloom" : "0x00000000000000000000000000000000000000000000000000000000000000000000000000000000000000000000000000000000000000000000000000000000000000000000000000000000000000000000000000000000000000000000000000000000000000000000000000000000000000000000000000000000000000000000000000000000000000000000000000000000000000000000000000000000000000000000000000000000000000000000000000000000000000000000000000000000000000000000000000000000000000000000000000000000000000000000000000000000000000000000000000000000000000000000000000000000",
                    "coinbase" : "0x2adc25665018aa1fe0e6bc666dac8fc2697ff9ba",
                    "difficulty" : "0x020000",
                    "extraData" : "",
                    "gasLimit" : "0x05f5e100",
                    "gasUsed" : "0x017878",
                    "hash" : "0x5e8bc02bb142f1d318162bc8d8ad26ad3111863f8da629e414409655939d0d62",
                    "mixHash" : "0x8670ecb9b641d74f33341b1f19c06576855bb09734c27cebd7617f5134b7e44b",
                    "nonce" : "0xe6419d9827219756",
                    "number" : "0x01",
                    "parentHash" : "0x8da1d28acef8b132ae719f0ca5ff9468e0dc911675aa8477dcefbfa8f02d2843",
                    "receiptTrie" : "0xa99851210afc9fcd1ecc1da8d023849a15c73bc095d04f09ca5ed488321b243e",
                    "stateRoot" : "0xf4903fbf1186edb38b101bd7b7a539667d1d6c1ae67c7abd71cfd3d206a03f83",
                    "timestamp" : "0x03e8",
                    "transactionsTrie" : "0x6f54a3f90a0be837cd8357c28b481ba8017d07ba63237e10b76569a2c6e2bd3b",
                    "uncleHash" : "0x1dcc4de8dec75d7aab85b567b6ccd41ad312451b948a7413f0a142fd40d49347"
                },
                "rlp" : "0xf90261f901f9a08da1d28acef8b132ae719f0ca5ff9468e0dc911675aa8477dcefbfa8f02d2843a01dcc4de8dec75d7aab85b567b6ccd41ad312451b948a7413f0a142fd40d49347942adc25665018aa1fe0e6bc666dac8fc2697ff9baa0f4903fbf1186edb38b101bd7b7a539667d1d6c1ae67c7abd71cfd3d206a03f83a06f54a3f90a0be837cd8357c28b481ba8017d07ba63237e10b76569a2c6e2bd3ba0a99851210afc9fcd1ecc1da8d023849a15c73bc095d04f09ca5ed488321b243eb901000000000000000000000000000000000000000000000000000000000000000000000000000000000000000000000000000000000000000000000000000000000000000000000000000000000000000000000000000000000000000000000000000000000000000000000000000000000000000000000000000000000000000000000000000000000000000000000000000000000000000000000000000000000000000000000000000000000000000000000000000000000000000000000000000000000000000000000000000000000000000000000000000000000000000000000000000000000000000000000000000000000000000000000000000000000083020000018405f5e100830178788203e880a08670ecb9b641d74f33341b1f19c06576855bb09734c27cebd7617f5134b7e44b88e6419d9827219756f862f8608001830318f894095e7baea6a6c7c4c2dfeb977efac326af552d8780001ba0d2dcdfd1cdaddf6df344be51f59e214875efd3405d665d95d4dc8655293b866fa03ec96b23e0612dd65f9b8d505e26b8b95fcb8612e207bd4ec1f613edb4f68ec0c0",
                "transactions" : [
                    {
                        "data" : "0x00",
                        "gasLimit" : "0x0318f8",
                        "gasPrice" : "0x01",
                        "nonce" : "0x00",
                        "r" : "0xd2dcdfd1cdaddf6df344be51f59e214875efd3405d665d95d4dc8655293b866f",
                        "s" : "0x3ec96b23e0612dd65f9b8d505e26b8b95fcb8612e207bd4ec1f613edb4f68ec0",
                        "to" : "0x095e7baea6a6c7c4c2dfeb977efac326af552d87",
                        "v" : "0x1b",
                        "value" : "0x00"
                    }
                ],
                "uncleHeaders" : [
                ]
            }
        ],
        "genesisBlockHeader" : {
            "bloom" : "0x00000000000000000000000000000000000000000000000000000000000000000000000000000000000000000000000000000000000000000000000000000000000000000000000000000000000000000000000000000000000000000000000000000000000000000000000000000000000000000000000000000000000000000000000000000000000000000000000000000000000000000000000000000000000000000000000000000000000000000000000000000000000000000000000000000000000000000000000000000000000000000000000000000000000000000000000000000000000000000000000000000000000000000000000000000000",
            "coinbase" : "0x2adc25665018aa1fe0e6bc666dac8fc2697ff9ba",
            "difficulty" : "0x020000",
            "extraData" : "0x42",
            "gasLimit" : "0x05f5e100",
            "gasUsed" : "0x00",
            "hash" : "0x8da1d28acef8b132ae719f0ca5ff9468e0dc911675aa8477dcefbfa8f02d2843",
            "mixHash" : "0x56e81f171bcc55a6ff8345e692c0f86e5b48e01b996cadc001622fb5e363b421",
            "nonce" : "0x0102030405060708",
            "number" : "0x00",
            "parentHash" : "0x0000000000000000000000000000000000000000000000000000000000000000",
            "receiptTrie" : "0x56e81f171bcc55a6ff8345e692c0f86e5b48e01b996cadc001622fb5e363b421",
            "stateRoot" : "0x3ab4ce03e63eee91700ee708b140752dc1a2eac333f0ca7cbfe3b1d74737d6c3",
            "timestamp" : "0x03b6",
            "transactionsTrie" : "0x56e81f171bcc55a6ff8345e692c0f86e5b48e01b996cadc001622fb5e363b421",
            "uncleHash" : "0x1dcc4de8dec75d7aab85b567b6ccd41ad312451b948a7413f0a142fd40d49347"
        },
        "genesisRLP" : "0xf901fbf901f6a00000000000000000000000000000000000000000000000000000000000000000a01dcc4de8dec75d7aab85b567b6ccd41ad312451b948a7413f0a142fd40d49347942adc25665018aa1fe0e6bc666dac8fc2697ff9baa03ab4ce03e63eee91700ee708b140752dc1a2eac333f0ca7cbfe3b1d74737d6c3a056e81f171bcc55a6ff8345e692c0f86e5b48e01b996cadc001622fb5e363b421a056e81f171bcc55a6ff8345e692c0f86e5b48e01b996cadc001622fb5e363b421b901000000000000000000000000000000000000000000000000000000000000000000000000000000000000000000000000000000000000000000000000000000000000000000000000000000000000000000000000000000000000000000000000000000000000000000000000000000000000000000000000000000000000000000000000000000000000000000000000000000000000000000000000000000000000000000000000000000000000000000000000000000000000000000000000000000000000000000000000000000000000000000000000000000000000000000000000000000000000000000000000000000000000000000000000000000000083020000808405f5e100808203b642a056e81f171bcc55a6ff8345e692c0f86e5b48e01b996cadc001622fb5e363b421880102030405060708c0c0",
        "lastblockhash" : "0x5e8bc02bb142f1d318162bc8d8ad26ad3111863f8da629e414409655939d0d62",
        "network" : "EIP158",
        "postState" : {
            "0x095e7baea6a6c7c4c2dfeb977efac326af552d87" : {
                "balance" : "0x03e7",
                "code" : "0x74600c60005566602060406000f060205260076039f36000526015600b6001f0600055600060006000600060006000546103e8f1",
                "nonce" : "0x01",
                "storage" : {
                    "0x00" : "0xd2571607e241ecf590ed94b12d87c94babe36db6"
                }
            },
            "0x2adc25665018aa1fe0e6bc666dac8fc2697ff9ba" : {
                "balance" : "0x4563918244f57878",
                "code" : "",
                "nonce" : "0x00",
                "storage" : {
                }
            },
            "0xa94f5374fce5edbc8e2a8697c15331677e6ebf0b" : {
                "balance" : "0x05f46888",
                "code" : "",
                "nonce" : "0x01",
                "storage" : {
                }
            },
            "0xd2571607e241ecf590ed94b12d87c94babe36db6" : {
                "balance" : "0x01",
                "code" : "0x602060406000f0",
                "nonce" : "0x01",
                "storage" : {
                    "0x00" : "0x0c"
                }
            }
        },
        "pre" : {
            "0x095e7baea6a6c7c4c2dfeb977efac326af552d87" : {
                "balance" : "0x03e8",
                "code" : "0x74600c60005566602060406000f060205260076039f36000526015600b6001f0600055600060006000600060006000546103e8f1",
                "nonce" : "0x00",
                "storage" : {
                }
            },
            "0xa94f5374fce5edbc8e2a8697c15331677e6ebf0b" : {
                "balance" : "0x05f5e100",
                "code" : "",
                "nonce" : "0x00",
                "storage" : {
                }
            }
        }
    },
    "CallContractToCreateContractAndCallItOOG_d0g0v0_Frontier" : {
        "_info" : {
            "comment" : "",
            "filledwith" : "cpp-1.3.0+commit.8fb57c56.Linux.g++",
            "lllcversion" : "Version: 0.4.20-develop.2018.1.8+commit.2548228b.Linux.g++",
            "source" : "src/BlockchainTestsFiller/GeneralStateTests/stInitCodeTest/CallContractToCreateContractAndCallItOOG_d0g0v0Filler.json",
            "sourceHash" : "7f28324820ba0a4a5a410cb9ef08f9ce320ad147c8b1663c1c8889eb9c49d2cd"
        },
        "blocks" : [
            {
                "blockHeader" : {
                    "bloom" : "0x00000000000000000000000000000000000000000000000000000000000000000000000000000000000000000000000000000000000000000000000000000000000000000000000000000000000000000000000000000000000000000000000000000000000000000000000000000000000000000000000000000000000000000000000000000000000000000000000000000000000000000000000000000000000000000000000000000000000000000000000000000000000000000000000000000000000000000000000000000000000000000000000000000000000000000000000000000000000000000000000000000000000000000000000000000000",
                    "coinbase" : "0x2adc25665018aa1fe0e6bc666dac8fc2697ff9ba",
                    "difficulty" : "0x020000",
                    "extraData" : "",
                    "gasLimit" : "0x05f5e100",
                    "gasUsed" : "0x01754e",
                    "hash" : "0x71bd8f6b73e800985639c7a87a201a3bd81539f5c25ce46aa7896a874597647b",
                    "mixHash" : "0x67484efb47042889a04a73286674b27c047ab4ef2d1eb063eb4407a39dfacfdc",
                    "nonce" : "0x4a39b33784cbe2b4",
                    "number" : "0x01",
                    "parentHash" : "0x8da1d28acef8b132ae719f0ca5ff9468e0dc911675aa8477dcefbfa8f02d2843",
                    "receiptTrie" : "0x8273cb7e49c6a8e6310343f78fd87d3593302e48ba97aca79feacac0ee22dd0d",
                    "stateRoot" : "0x49fd5a656b743526cc86fda39b5f418717aa61be6d061fe4af67f55b1df022ab",
                    "timestamp" : "0x03e8",
                    "transactionsTrie" : "0x6f54a3f90a0be837cd8357c28b481ba8017d07ba63237e10b76569a2c6e2bd3b",
                    "uncleHash" : "0x1dcc4de8dec75d7aab85b567b6ccd41ad312451b948a7413f0a142fd40d49347"
                },
                "rlp" : "0xf90261f901f9a08da1d28acef8b132ae719f0ca5ff9468e0dc911675aa8477dcefbfa8f02d2843a01dcc4de8dec75d7aab85b567b6ccd41ad312451b948a7413f0a142fd40d49347942adc25665018aa1fe0e6bc666dac8fc2697ff9baa049fd5a656b743526cc86fda39b5f418717aa61be6d061fe4af67f55b1df022aba06f54a3f90a0be837cd8357c28b481ba8017d07ba63237e10b76569a2c6e2bd3ba08273cb7e49c6a8e6310343f78fd87d3593302e48ba97aca79feacac0ee22dd0db901000000000000000000000000000000000000000000000000000000000000000000000000000000000000000000000000000000000000000000000000000000000000000000000000000000000000000000000000000000000000000000000000000000000000000000000000000000000000000000000000000000000000000000000000000000000000000000000000000000000000000000000000000000000000000000000000000000000000000000000000000000000000000000000000000000000000000000000000000000000000000000000000000000000000000000000000000000000000000000000000000000000000000000000000000000000083020000018405f5e1008301754e8203e880a067484efb47042889a04a73286674b27c047ab4ef2d1eb063eb4407a39dfacfdc884a39b33784cbe2b4f862f8608001830318f894095e7baea6a6c7c4c2dfeb977efac326af552d8780001ba0d2dcdfd1cdaddf6df344be51f59e214875efd3405d665d95d4dc8655293b866fa03ec96b23e0612dd65f9b8d505e26b8b95fcb8612e207bd4ec1f613edb4f68ec0c0",
                "transactions" : [
                    {
                        "data" : "0x00",
                        "gasLimit" : "0x0318f8",
                        "gasPrice" : "0x01",
                        "nonce" : "0x00",
                        "r" : "0xd2dcdfd1cdaddf6df344be51f59e214875efd3405d665d95d4dc8655293b866f",
                        "s" : "0x3ec96b23e0612dd65f9b8d505e26b8b95fcb8612e207bd4ec1f613edb4f68ec0",
                        "to" : "0x095e7baea6a6c7c4c2dfeb977efac326af552d87",
                        "v" : "0x1b",
                        "value" : "0x00"
                    }
                ],
                "uncleHeaders" : [
                ]
            }
        ],
        "genesisBlockHeader" : {
            "bloom" : "0x00000000000000000000000000000000000000000000000000000000000000000000000000000000000000000000000000000000000000000000000000000000000000000000000000000000000000000000000000000000000000000000000000000000000000000000000000000000000000000000000000000000000000000000000000000000000000000000000000000000000000000000000000000000000000000000000000000000000000000000000000000000000000000000000000000000000000000000000000000000000000000000000000000000000000000000000000000000000000000000000000000000000000000000000000000000",
            "coinbase" : "0x2adc25665018aa1fe0e6bc666dac8fc2697ff9ba",
            "difficulty" : "0x020000",
            "extraData" : "0x42",
            "gasLimit" : "0x05f5e100",
            "gasUsed" : "0x00",
            "hash" : "0x8da1d28acef8b132ae719f0ca5ff9468e0dc911675aa8477dcefbfa8f02d2843",
            "mixHash" : "0x56e81f171bcc55a6ff8345e692c0f86e5b48e01b996cadc001622fb5e363b421",
            "nonce" : "0x0102030405060708",
            "number" : "0x00",
            "parentHash" : "0x0000000000000000000000000000000000000000000000000000000000000000",
            "receiptTrie" : "0x56e81f171bcc55a6ff8345e692c0f86e5b48e01b996cadc001622fb5e363b421",
            "stateRoot" : "0x3ab4ce03e63eee91700ee708b140752dc1a2eac333f0ca7cbfe3b1d74737d6c3",
            "timestamp" : "0x03b6",
            "transactionsTrie" : "0x56e81f171bcc55a6ff8345e692c0f86e5b48e01b996cadc001622fb5e363b421",
            "uncleHash" : "0x1dcc4de8dec75d7aab85b567b6ccd41ad312451b948a7413f0a142fd40d49347"
        },
        "genesisRLP" : "0xf901fbf901f6a00000000000000000000000000000000000000000000000000000000000000000a01dcc4de8dec75d7aab85b567b6ccd41ad312451b948a7413f0a142fd40d49347942adc25665018aa1fe0e6bc666dac8fc2697ff9baa03ab4ce03e63eee91700ee708b140752dc1a2eac333f0ca7cbfe3b1d74737d6c3a056e81f171bcc55a6ff8345e692c0f86e5b48e01b996cadc001622fb5e363b421a056e81f171bcc55a6ff8345e692c0f86e5b48e01b996cadc001622fb5e363b421b901000000000000000000000000000000000000000000000000000000000000000000000000000000000000000000000000000000000000000000000000000000000000000000000000000000000000000000000000000000000000000000000000000000000000000000000000000000000000000000000000000000000000000000000000000000000000000000000000000000000000000000000000000000000000000000000000000000000000000000000000000000000000000000000000000000000000000000000000000000000000000000000000000000000000000000000000000000000000000000000000000000000000000000000000000000000083020000808405f5e100808203b642a056e81f171bcc55a6ff8345e692c0f86e5b48e01b996cadc001622fb5e363b421880102030405060708c0c0",
        "lastblockhash" : "0x71bd8f6b73e800985639c7a87a201a3bd81539f5c25ce46aa7896a874597647b",
        "network" : "Frontier",
        "postState" : {
            "0x095e7baea6a6c7c4c2dfeb977efac326af552d87" : {
                "balance" : "0x03e7",
                "code" : "0x74600c60005566602060406000f060205260076039f36000526015600b6001f0600055600060006000600060006000546103e8f1",
                "nonce" : "0x01",
                "storage" : {
                    "0x00" : "0xd2571607e241ecf590ed94b12d87c94babe36db6"
                }
            },
            "0x2adc25665018aa1fe0e6bc666dac8fc2697ff9ba" : {
                "balance" : "0x4563918244f5754e",
                "code" : "",
                "nonce" : "0x00",
                "storage" : {
                }
            },
            "0xa94f5374fce5edbc8e2a8697c15331677e6ebf0b" : {
                "balance" : "0x05f46bb2",
                "code" : "",
                "nonce" : "0x01",
                "storage" : {
                }
            },
            "0xd2571607e241ecf590ed94b12d87c94babe36db6" : {
                "balance" : "0x01",
                "code" : "0x602060406000f0",
                "nonce" : "0x00",
                "storage" : {
                    "0x00" : "0x0c"
                }
            }
        },
        "pre" : {
            "0x095e7baea6a6c7c4c2dfeb977efac326af552d87" : {
                "balance" : "0x03e8",
                "code" : "0x74600c60005566602060406000f060205260076039f36000526015600b6001f0600055600060006000600060006000546103e8f1",
                "nonce" : "0x00",
                "storage" : {
                }
            },
            "0xa94f5374fce5edbc8e2a8697c15331677e6ebf0b" : {
                "balance" : "0x05f5e100",
                "code" : "",
                "nonce" : "0x00",
                "storage" : {
                }
            }
        }
    },
    "CallContractToCreateContractAndCallItOOG_d0g0v0_Homestead" : {
        "_info" : {
            "comment" : "",
            "filledwith" : "cpp-1.3.0+commit.8fb57c56.Linux.g++",
            "lllcversion" : "Version: 0.4.20-develop.2018.1.8+commit.2548228b.Linux.g++",
            "source" : "src/BlockchainTestsFiller/GeneralStateTests/stInitCodeTest/CallContractToCreateContractAndCallItOOG_d0g0v0Filler.json",
            "sourceHash" : "7f28324820ba0a4a5a410cb9ef08f9ce320ad147c8b1663c1c8889eb9c49d2cd"
        },
        "blocks" : [
            {
                "blockHeader" : {
                    "bloom" : "0x00000000000000000000000000000000000000000000000000000000000000000000000000000000000000000000000000000000000000000000000000000000000000000000000000000000000000000000000000000000000000000000000000000000000000000000000000000000000000000000000000000000000000000000000000000000000000000000000000000000000000000000000000000000000000000000000000000000000000000000000000000000000000000000000000000000000000000000000000000000000000000000000000000000000000000000000000000000000000000000000000000000000000000000000000000000",
                    "coinbase" : "0x2adc25665018aa1fe0e6bc666dac8fc2697ff9ba",
                    "difficulty" : "0x020000",
                    "extraData" : "",
                    "gasLimit" : "0x05f5e100",
                    "gasUsed" : "0x01754e",
                    "hash" : "0x0722b08f3829a3c959482099ae0feeed335026035a1a173a016f54e81f59871d",
                    "mixHash" : "0x1d0dda4aec550ed03f9653b46d15aea3511ccefff042f321c0801864fa360da9",
                    "nonce" : "0x0d720c71e5f912d6",
                    "number" : "0x01",
                    "parentHash" : "0x8da1d28acef8b132ae719f0ca5ff9468e0dc911675aa8477dcefbfa8f02d2843",
                    "receiptTrie" : "0x8273cb7e49c6a8e6310343f78fd87d3593302e48ba97aca79feacac0ee22dd0d",
                    "stateRoot" : "0x49fd5a656b743526cc86fda39b5f418717aa61be6d061fe4af67f55b1df022ab",
                    "timestamp" : "0x03e8",
                    "transactionsTrie" : "0x6f54a3f90a0be837cd8357c28b481ba8017d07ba63237e10b76569a2c6e2bd3b",
                    "uncleHash" : "0x1dcc4de8dec75d7aab85b567b6ccd41ad312451b948a7413f0a142fd40d49347"
                },
                "rlp" : "0xf90261f901f9a08da1d28acef8b132ae719f0ca5ff9468e0dc911675aa8477dcefbfa8f02d2843a01dcc4de8dec75d7aab85b567b6ccd41ad312451b948a7413f0a142fd40d49347942adc25665018aa1fe0e6bc666dac8fc2697ff9baa049fd5a656b743526cc86fda39b5f418717aa61be6d061fe4af67f55b1df022aba06f54a3f90a0be837cd8357c28b481ba8017d07ba63237e10b76569a2c6e2bd3ba08273cb7e49c6a8e6310343f78fd87d3593302e48ba97aca79feacac0ee22dd0db901000000000000000000000000000000000000000000000000000000000000000000000000000000000000000000000000000000000000000000000000000000000000000000000000000000000000000000000000000000000000000000000000000000000000000000000000000000000000000000000000000000000000000000000000000000000000000000000000000000000000000000000000000000000000000000000000000000000000000000000000000000000000000000000000000000000000000000000000000000000000000000000000000000000000000000000000000000000000000000000000000000000000000000000000000000000083020000018405f5e1008301754e8203e880a01d0dda4aec550ed03f9653b46d15aea3511ccefff042f321c0801864fa360da9880d720c71e5f912d6f862f8608001830318f894095e7baea6a6c7c4c2dfeb977efac326af552d8780001ba0d2dcdfd1cdaddf6df344be51f59e214875efd3405d665d95d4dc8655293b866fa03ec96b23e0612dd65f9b8d505e26b8b95fcb8612e207bd4ec1f613edb4f68ec0c0",
                "transactions" : [
                    {
                        "data" : "0x00",
                        "gasLimit" : "0x0318f8",
                        "gasPrice" : "0x01",
                        "nonce" : "0x00",
                        "r" : "0xd2dcdfd1cdaddf6df344be51f59e214875efd3405d665d95d4dc8655293b866f",
                        "s" : "0x3ec96b23e0612dd65f9b8d505e26b8b95fcb8612e207bd4ec1f613edb4f68ec0",
                        "to" : "0x095e7baea6a6c7c4c2dfeb977efac326af552d87",
                        "v" : "0x1b",
                        "value" : "0x00"
                    }
                ],
                "uncleHeaders" : [
                ]
            }
        ],
        "genesisBlockHeader" : {
            "bloom" : "0x00000000000000000000000000000000000000000000000000000000000000000000000000000000000000000000000000000000000000000000000000000000000000000000000000000000000000000000000000000000000000000000000000000000000000000000000000000000000000000000000000000000000000000000000000000000000000000000000000000000000000000000000000000000000000000000000000000000000000000000000000000000000000000000000000000000000000000000000000000000000000000000000000000000000000000000000000000000000000000000000000000000000000000000000000000000",
            "coinbase" : "0x2adc25665018aa1fe0e6bc666dac8fc2697ff9ba",
            "difficulty" : "0x020000",
            "extraData" : "0x42",
            "gasLimit" : "0x05f5e100",
            "gasUsed" : "0x00",
            "hash" : "0x8da1d28acef8b132ae719f0ca5ff9468e0dc911675aa8477dcefbfa8f02d2843",
            "mixHash" : "0x56e81f171bcc55a6ff8345e692c0f86e5b48e01b996cadc001622fb5e363b421",
            "nonce" : "0x0102030405060708",
            "number" : "0x00",
            "parentHash" : "0x0000000000000000000000000000000000000000000000000000000000000000",
            "receiptTrie" : "0x56e81f171bcc55a6ff8345e692c0f86e5b48e01b996cadc001622fb5e363b421",
            "stateRoot" : "0x3ab4ce03e63eee91700ee708b140752dc1a2eac333f0ca7cbfe3b1d74737d6c3",
            "timestamp" : "0x03b6",
            "transactionsTrie" : "0x56e81f171bcc55a6ff8345e692c0f86e5b48e01b996cadc001622fb5e363b421",
            "uncleHash" : "0x1dcc4de8dec75d7aab85b567b6ccd41ad312451b948a7413f0a142fd40d49347"
        },
        "genesisRLP" : "0xf901fbf901f6a00000000000000000000000000000000000000000000000000000000000000000a01dcc4de8dec75d7aab85b567b6ccd41ad312451b948a7413f0a142fd40d49347942adc25665018aa1fe0e6bc666dac8fc2697ff9baa03ab4ce03e63eee91700ee708b140752dc1a2eac333f0ca7cbfe3b1d74737d6c3a056e81f171bcc55a6ff8345e692c0f86e5b48e01b996cadc001622fb5e363b421a056e81f171bcc55a6ff8345e692c0f86e5b48e01b996cadc001622fb5e363b421b901000000000000000000000000000000000000000000000000000000000000000000000000000000000000000000000000000000000000000000000000000000000000000000000000000000000000000000000000000000000000000000000000000000000000000000000000000000000000000000000000000000000000000000000000000000000000000000000000000000000000000000000000000000000000000000000000000000000000000000000000000000000000000000000000000000000000000000000000000000000000000000000000000000000000000000000000000000000000000000000000000000000000000000000000000000000083020000808405f5e100808203b642a056e81f171bcc55a6ff8345e692c0f86e5b48e01b996cadc001622fb5e363b421880102030405060708c0c0",
        "lastblockhash" : "0x0722b08f3829a3c959482099ae0feeed335026035a1a173a016f54e81f59871d",
        "network" : "Homestead",
        "postState" : {
            "0x095e7baea6a6c7c4c2dfeb977efac326af552d87" : {
                "balance" : "0x03e7",
                "code" : "0x74600c60005566602060406000f060205260076039f36000526015600b6001f0600055600060006000600060006000546103e8f1",
                "nonce" : "0x01",
                "storage" : {
                    "0x00" : "0xd2571607e241ecf590ed94b12d87c94babe36db6"
                }
            },
            "0x2adc25665018aa1fe0e6bc666dac8fc2697ff9ba" : {
                "balance" : "0x4563918244f5754e",
                "code" : "",
                "nonce" : "0x00",
                "storage" : {
                }
            },
            "0xa94f5374fce5edbc8e2a8697c15331677e6ebf0b" : {
                "balance" : "0x05f46bb2",
                "code" : "",
                "nonce" : "0x01",
                "storage" : {
                }
            },
            "0xd2571607e241ecf590ed94b12d87c94babe36db6" : {
                "balance" : "0x01",
                "code" : "0x602060406000f0",
                "nonce" : "0x00",
                "storage" : {
                    "0x00" : "0x0c"
                }
            }
        },
        "pre" : {
            "0x095e7baea6a6c7c4c2dfeb977efac326af552d87" : {
                "balance" : "0x03e8",
                "code" : "0x74600c60005566602060406000f060205260076039f36000526015600b6001f0600055600060006000600060006000546103e8f1",
                "nonce" : "0x00",
                "storage" : {
                }
            },
            "0xa94f5374fce5edbc8e2a8697c15331677e6ebf0b" : {
                "balance" : "0x05f5e100",
                "code" : "",
                "nonce" : "0x00",
                "storage" : {
                }
            }
        }
    }
}