{
    "TransactionCreateRandomInitCode_d0g0v0_Berlin" : {
        "_info" : {
            "comment" : "",
            "filling-rpc-server" : "evm version 1.10.16-unstable-0f893109-20220105",
            "filling-tool-version" : "retesteth-0.2.2-testinfo+commit.01c6aac2.Linux.g++",
            "generatedTestHash" : "415ccb4544c06902a07c0a9cd408fd1eb40a8478111f6082ee46c9a8e5111b07",
            "lllcversion" : "Version: 0.5.14-develop.2021.11.27+commit.401d5358.Linux.g++",
            "solidity" : "Version: 0.8.5+commit.a4f2e591.Linux.g++",
            "source" : "src/GeneralStateTestsFiller/stInitCodeTest/TransactionCreateRandomInitCodeFiller.json",
            "sourceHash" : "01a73f36a1480ac5e8d9b26fc9792e8f304cb070438bcfc2ca0200e08ec457a2"
        },
        "blocks" : [
            {
                "blockHeader" : {
                    "bloom" : "0x00000000000000000000000000000000000000000000000000000000000000000000000000000000000000000000000000000000000000000000000000000000000000000000000000000000000000000000000000000000000000000000000000000000000000000000000000000000000000000000000000000000000000000000000000000000000000000000000000000000000000000000000000000000000000000000000000000000000000000000000000000000000000000000000000000000000000000000000000000000000000000000000000000000000000000000000000000000000000000000000000000000000000000000000000000000",
                    "coinbase" : "0x2adc25665018aa1fe0e6bc666dac8fc2697ff9ba",
                    "difficulty" : "0x020000",
                    "extraData" : "0x00",
                    "gasLimit" : "0x02540be400",
                    "gasUsed" : "0xfc57",
                    "hash" : "0x8885e9a279b20fba3bb094853ab59eed5e0f906aeee027cf9a721d333763f7a0",
                    "mixHash" : "0x0000000000000000000000000000000000000000000000000000000000000000",
                    "nonce" : "0x0000000000000000",
                    "number" : "0x01",
                    "parentHash" : "0x6effdccbd9ebbae73d19348cb5af41cb3007220d6dd82ca27c51362b963f6b02",
                    "receiptTrie" : "0x7277650321c3a7ed66b4fa574acf924b6f11a7fbe8681af2d5f547dc500951b3",
                    "stateRoot" : "0xf0fb87ed0056792e1ec02078852a0034a1c4991a472567c09dca012ab28f6207",
                    "timestamp" : "0x03e8",
                    "transactionsTrie" : "0xc06dc82b2e1965aa696d8ca301ae1f93ad1653a525feed701c34894b12c24b67",
                    "uncleHash" : "0x1dcc4de8dec75d7aab85b567b6ccd41ad312451b948a7413f0a142fd40d49347"
                },
                "rlp" : "0xf90262f901f9a06effdccbd9ebbae73d19348cb5af41cb3007220d6dd82ca27c51362b963f6b02a01dcc4de8dec75d7aab85b567b6ccd41ad312451b948a7413f0a142fd40d49347942adc25665018aa1fe0e6bc666dac8fc2697ff9baa0f0fb87ed0056792e1ec02078852a0034a1c4991a472567c09dca012ab28f6207a0c06dc82b2e1965aa696d8ca301ae1f93ad1653a525feed701c34894b12c24b67a07277650321c3a7ed66b4fa574acf924b6f11a7fbe8681af2d5f547dc500951b3b901000000000000000000000000000000000000000000000000000000000000000000000000000000000000000000000000000000000000000000000000000000000000000000000000000000000000000000000000000000000000000000000000000000000000000000000000000000000000000000000000000000000000000000000000000000000000000000000000000000000000000000000000000000000000000000000000000000000000000000000000000000000000000000000000000000000000000000000000000000000000000000000000000000000000000000000000000000000000000000000000000000000000000000000000000000000083020000018502540be40082fc578203e800a00000000000000000000000000000000000000000000000000000000000000000880000000000000000f863f861800a82fc57800196600a80600c6000396000f200600160008035811a81001ba02844f9a1adcb763de9e72eedf69a2967cc74c2d1af42824a9d898da6cf47948ea00dc03ce1d7425de4700fbfde9d7ddd42a672ab3a24a8bf2e7a47b598596cea88c0",
                "transactions" : [
                    {
                        "data" : "0x600a80600c6000396000f200600160008035811a8100",
                        "gasLimit" : "0xfc57",
                        "gasPrice" : "0x0a",
                        "nonce" : "0x00",
                        "r" : "0x2844f9a1adcb763de9e72eedf69a2967cc74c2d1af42824a9d898da6cf47948e",
                        "s" : "0x0dc03ce1d7425de4700fbfde9d7ddd42a672ab3a24a8bf2e7a47b598596cea88",
                        "sender" : "0xa94f5374fce5edbc8e2a8697c15331677e6ebf0b",
                        "to" : "",
                        "v" : "0x1b",
                        "value" : "0x01"
                    }
                ],
                "uncleHeaders" : [
                ]
            }
        ],
        "genesisBlockHeader" : {
            "bloom" : "0x00000000000000000000000000000000000000000000000000000000000000000000000000000000000000000000000000000000000000000000000000000000000000000000000000000000000000000000000000000000000000000000000000000000000000000000000000000000000000000000000000000000000000000000000000000000000000000000000000000000000000000000000000000000000000000000000000000000000000000000000000000000000000000000000000000000000000000000000000000000000000000000000000000000000000000000000000000000000000000000000000000000000000000000000000000000",
            "coinbase" : "0x2adc25665018aa1fe0e6bc666dac8fc2697ff9ba",
            "difficulty" : "0x020000",
            "extraData" : "0x00",
            "gasLimit" : "0x02540be400",
            "gasUsed" : "0x00",
            "hash" : "0x6effdccbd9ebbae73d19348cb5af41cb3007220d6dd82ca27c51362b963f6b02",
            "mixHash" : "0x0000000000000000000000000000000000000000000000000000000000000000",
            "nonce" : "0x0000000000000000",
            "number" : "0x00",
            "parentHash" : "0x0000000000000000000000000000000000000000000000000000000000000000",
            "receiptTrie" : "0x56e81f171bcc55a6ff8345e692c0f86e5b48e01b996cadc001622fb5e363b421",
            "stateRoot" : "0x4b30398a95c7efca98c1b215cba894ca1a7fbbe16e3dcdc6c58687c92ea8ac83",
            "timestamp" : "0x00",
            "transactionsTrie" : "0x56e81f171bcc55a6ff8345e692c0f86e5b48e01b996cadc001622fb5e363b421",
            "uncleHash" : "0x1dcc4de8dec75d7aab85b567b6ccd41ad312451b948a7413f0a142fd40d49347"
        },
        "genesisRLP" : "0xf901faf901f5a00000000000000000000000000000000000000000000000000000000000000000a01dcc4de8dec75d7aab85b567b6ccd41ad312451b948a7413f0a142fd40d49347942adc25665018aa1fe0e6bc666dac8fc2697ff9baa04b30398a95c7efca98c1b215cba894ca1a7fbbe16e3dcdc6c58687c92ea8ac83a056e81f171bcc55a6ff8345e692c0f86e5b48e01b996cadc001622fb5e363b421a056e81f171bcc55a6ff8345e692c0f86e5b48e01b996cadc001622fb5e363b421b901000000000000000000000000000000000000000000000000000000000000000000000000000000000000000000000000000000000000000000000000000000000000000000000000000000000000000000000000000000000000000000000000000000000000000000000000000000000000000000000000000000000000000000000000000000000000000000000000000000000000000000000000000000000000000000000000000000000000000000000000000000000000000000000000000000000000000000000000000000000000000000000000000000000000000000000000000000000000000000000000000000000000000000000000000000000083020000808502540be400808000a00000000000000000000000000000000000000000000000000000000000000000880000000000000000c0c0",
        "lastblockhash" : "0x8885e9a279b20fba3bb094853ab59eed5e0f906aeee027cf9a721d333763f7a0",
        "network" : "Berlin",
        "postState" : {
            "0x2adc25665018aa1fe0e6bc666dac8fc2697ff9ba" : {
                "balance" : "0x1bc16d674ed1db66",
                "code" : "0x",
                "nonce" : "0x01",
                "storage" : {
                }
            },
            "0xa94f5374fce5edbc8e2a8697c15331677e6ebf0b" : {
                "balance" : "0x025402089a",
                "code" : "0x",
                "nonce" : "0x01",
                "storage" : {
                }
            }
        },
        "pre" : {
            "0x2adc25665018aa1fe0e6bc666dac8fc2697ff9ba" : {
                "balance" : "0x00",
                "code" : "0x",
                "nonce" : "0x01",
                "storage" : {
                }
            },
            "0xa94f5374fce5edbc8e2a8697c15331677e6ebf0b" : {
                "balance" : "0x02540be400",
                "code" : "0x",
                "nonce" : "0x00",
                "storage" : {
                }
            }
        },
        "sealEngine" : "NoProof"
    },
    "TransactionCreateRandomInitCode_d0g0v0_Istanbul" : {
        "_info" : {
            "comment" : "",
            "filling-rpc-server" : "evm version 1.10.16-unstable-0f893109-20220105",
            "filling-tool-version" : "retesteth-0.2.2-testinfo+commit.01c6aac2.Linux.g++",
            "generatedTestHash" : "780ebcf0635c7a9437608206495302048612dafe20f8a7f53906b919454509ec",
            "lllcversion" : "Version: 0.5.14-develop.2021.11.27+commit.401d5358.Linux.g++",
            "solidity" : "Version: 0.8.5+commit.a4f2e591.Linux.g++",
            "source" : "src/GeneralStateTestsFiller/stInitCodeTest/TransactionCreateRandomInitCodeFiller.json",
            "sourceHash" : "01a73f36a1480ac5e8d9b26fc9792e8f304cb070438bcfc2ca0200e08ec457a2"
        },
        "blocks" : [
            {
                "blockHeader" : {
                    "bloom" : "0x00000000000000000000000000000000000000000000000000000000000000000000000000000000000000000000000000000000000000000000000000000000000000000000000000000000000000000000000000000000000000000000000000000000000000000000000000000000000000000000000000000000000000000000000000000000000000000000000000000000000000000000000000000000000000000000000000000000000000000000000000000000000000000000000000000000000000000000000000000000000000000000000000000000000000000000000000000000000000000000000000000000000000000000000000000000",
                    "coinbase" : "0x2adc25665018aa1fe0e6bc666dac8fc2697ff9ba",
                    "difficulty" : "0x020000",
                    "extraData" : "0x00",
                    "gasLimit" : "0x02540be400",
                    "gasUsed" : "0xfc57",
                    "hash" : "0x8885e9a279b20fba3bb094853ab59eed5e0f906aeee027cf9a721d333763f7a0",
                    "mixHash" : "0x0000000000000000000000000000000000000000000000000000000000000000",
                    "nonce" : "0x0000000000000000",
                    "number" : "0x01",
                    "parentHash" : "0x6effdccbd9ebbae73d19348cb5af41cb3007220d6dd82ca27c51362b963f6b02",
                    "receiptTrie" : "0x7277650321c3a7ed66b4fa574acf924b6f11a7fbe8681af2d5f547dc500951b3",
                    "stateRoot" : "0xf0fb87ed0056792e1ec02078852a0034a1c4991a472567c09dca012ab28f6207",
                    "timestamp" : "0x03e8",
                    "transactionsTrie" : "0xc06dc82b2e1965aa696d8ca301ae1f93ad1653a525feed701c34894b12c24b67",
                    "uncleHash" : "0x1dcc4de8dec75d7aab85b567b6ccd41ad312451b948a7413f0a142fd40d49347"
                },
                "rlp" : "0xf90262f901f9a06effdccbd9ebbae73d19348cb5af41cb3007220d6dd82ca27c51362b963f6b02a01dcc4de8dec75d7aab85b567b6ccd41ad312451b948a7413f0a142fd40d49347942adc25665018aa1fe0e6bc666dac8fc2697ff9baa0f0fb87ed0056792e1ec02078852a0034a1c4991a472567c09dca012ab28f6207a0c06dc82b2e1965aa696d8ca301ae1f93ad1653a525feed701c34894b12c24b67a07277650321c3a7ed66b4fa574acf924b6f11a7fbe8681af2d5f547dc500951b3b901000000000000000000000000000000000000000000000000000000000000000000000000000000000000000000000000000000000000000000000000000000000000000000000000000000000000000000000000000000000000000000000000000000000000000000000000000000000000000000000000000000000000000000000000000000000000000000000000000000000000000000000000000000000000000000000000000000000000000000000000000000000000000000000000000000000000000000000000000000000000000000000000000000000000000000000000000000000000000000000000000000000000000000000000000000000083020000018502540be40082fc578203e800a00000000000000000000000000000000000000000000000000000000000000000880000000000000000f863f861800a82fc57800196600a80600c6000396000f200600160008035811a81001ba02844f9a1adcb763de9e72eedf69a2967cc74c2d1af42824a9d898da6cf47948ea00dc03ce1d7425de4700fbfde9d7ddd42a672ab3a24a8bf2e7a47b598596cea88c0",
                "transactions" : [
                    {
                        "data" : "0x600a80600c6000396000f200600160008035811a8100",
                        "gasLimit" : "0xfc57",
                        "gasPrice" : "0x0a",
                        "nonce" : "0x00",
                        "r" : "0x2844f9a1adcb763de9e72eedf69a2967cc74c2d1af42824a9d898da6cf47948e",
                        "s" : "0x0dc03ce1d7425de4700fbfde9d7ddd42a672ab3a24a8bf2e7a47b598596cea88",
                        "sender" : "0xa94f5374fce5edbc8e2a8697c15331677e6ebf0b",
                        "to" : "",
                        "v" : "0x1b",
                        "value" : "0x01"
                    }
                ],
                "uncleHeaders" : [
                ]
            }
        ],
        "genesisBlockHeader" : {
            "bloom" : "0x00000000000000000000000000000000000000000000000000000000000000000000000000000000000000000000000000000000000000000000000000000000000000000000000000000000000000000000000000000000000000000000000000000000000000000000000000000000000000000000000000000000000000000000000000000000000000000000000000000000000000000000000000000000000000000000000000000000000000000000000000000000000000000000000000000000000000000000000000000000000000000000000000000000000000000000000000000000000000000000000000000000000000000000000000000000",
            "coinbase" : "0x2adc25665018aa1fe0e6bc666dac8fc2697ff9ba",
            "difficulty" : "0x020000",
            "extraData" : "0x00",
            "gasLimit" : "0x02540be400",
            "gasUsed" : "0x00",
            "hash" : "0x6effdccbd9ebbae73d19348cb5af41cb3007220d6dd82ca27c51362b963f6b02",
            "mixHash" : "0x0000000000000000000000000000000000000000000000000000000000000000",
            "nonce" : "0x0000000000000000",
            "number" : "0x00",
            "parentHash" : "0x0000000000000000000000000000000000000000000000000000000000000000",
            "receiptTrie" : "0x56e81f171bcc55a6ff8345e692c0f86e5b48e01b996cadc001622fb5e363b421",
            "stateRoot" : "0x4b30398a95c7efca98c1b215cba894ca1a7fbbe16e3dcdc6c58687c92ea8ac83",
            "timestamp" : "0x00",
            "transactionsTrie" : "0x56e81f171bcc55a6ff8345e692c0f86e5b48e01b996cadc001622fb5e363b421",
            "uncleHash" : "0x1dcc4de8dec75d7aab85b567b6ccd41ad312451b948a7413f0a142fd40d49347"
        },
        "genesisRLP" : "0xf901faf901f5a00000000000000000000000000000000000000000000000000000000000000000a01dcc4de8dec75d7aab85b567b6ccd41ad312451b948a7413f0a142fd40d49347942adc25665018aa1fe0e6bc666dac8fc2697ff9baa04b30398a95c7efca98c1b215cba894ca1a7fbbe16e3dcdc6c58687c92ea8ac83a056e81f171bcc55a6ff8345e692c0f86e5b48e01b996cadc001622fb5e363b421a056e81f171bcc55a6ff8345e692c0f86e5b48e01b996cadc001622fb5e363b421b901000000000000000000000000000000000000000000000000000000000000000000000000000000000000000000000000000000000000000000000000000000000000000000000000000000000000000000000000000000000000000000000000000000000000000000000000000000000000000000000000000000000000000000000000000000000000000000000000000000000000000000000000000000000000000000000000000000000000000000000000000000000000000000000000000000000000000000000000000000000000000000000000000000000000000000000000000000000000000000000000000000000000000000000000000000000083020000808502540be400808000a00000000000000000000000000000000000000000000000000000000000000000880000000000000000c0c0",
        "lastblockhash" : "0x8885e9a279b20fba3bb094853ab59eed5e0f906aeee027cf9a721d333763f7a0",
        "network" : "Istanbul",
        "postState" : {
            "0x2adc25665018aa1fe0e6bc666dac8fc2697ff9ba" : {
                "balance" : "0x1bc16d674ed1db66",
                "code" : "0x",
                "nonce" : "0x01",
                "storage" : {
                }
            },
            "0xa94f5374fce5edbc8e2a8697c15331677e6ebf0b" : {
                "balance" : "0x025402089a",
                "code" : "0x",
                "nonce" : "0x01",
                "storage" : {
                }
            }
        },
        "pre" : {
            "0x2adc25665018aa1fe0e6bc666dac8fc2697ff9ba" : {
                "balance" : "0x00",
                "code" : "0x",
                "nonce" : "0x01",
                "storage" : {
                }
            },
            "0xa94f5374fce5edbc8e2a8697c15331677e6ebf0b" : {
                "balance" : "0x02540be400",
                "code" : "0x",
                "nonce" : "0x00",
                "storage" : {
                }
            }
        },
        "sealEngine" : "NoProof"
    },
    "TransactionCreateRandomInitCode_d0g0v0_London" : {
        "_info" : {
            "comment" : "",
            "filling-rpc-server" : "evm version 1.10.16-unstable-0f893109-20220105",
            "filling-tool-version" : "retesteth-0.2.2-testinfo+commit.01c6aac2.Linux.g++",
            "generatedTestHash" : "2be389683fd54c3e693e1488a0dcf87c01587f81aa24024f8a9227b4d6c763a7",
            "lllcversion" : "Version: 0.5.14-develop.2021.11.27+commit.401d5358.Linux.g++",
            "solidity" : "Version: 0.8.5+commit.a4f2e591.Linux.g++",
            "source" : "src/GeneralStateTestsFiller/stInitCodeTest/TransactionCreateRandomInitCodeFiller.json",
            "sourceHash" : "01a73f36a1480ac5e8d9b26fc9792e8f304cb070438bcfc2ca0200e08ec457a2"
        },
        "blocks" : [
            {
                "blockHeader" : {
                    "baseFeePerGas" : "0x0a",
                    "bloom" : "0x00000000000000000000000000000000000000000000000000000000000000000000000000000000000000000000000000000000000000000000000000000000000000000000000000000000000000000000000000000000000000000000000000000000000000000000000000000000000000000000000000000000000000000000000000000000000000000000000000000000000000000000000000000000000000000000000000000000000000000000000000000000000000000000000000000000000000000000000000000000000000000000000000000000000000000000000000000000000000000000000000000000000000000000000000000000",
                    "coinbase" : "0x2adc25665018aa1fe0e6bc666dac8fc2697ff9ba",
                    "difficulty" : "0x020000",
                    "extraData" : "0x00",
                    "gasLimit" : "0x02540be400",
                    "gasUsed" : "0xfc57",
                    "hash" : "0xc63337f5041f839116f85585bfa53e3c4732ea07fd93617599b889478bb112a3",
                    "mixHash" : "0x0000000000000000000000000000000000000000000000000000000000000000",
                    "nonce" : "0x0000000000000000",
                    "number" : "0x01",
                    "parentHash" : "0x4308f8de1c1be1a3aa4c9075fda41bb4c366bd214bb7ba5c07c43f4a4e48edde",
                    "receiptTrie" : "0x7277650321c3a7ed66b4fa574acf924b6f11a7fbe8681af2d5f547dc500951b3",
                    "stateRoot" : "0x2f52494822226a72c72b662b94abdd94da3426958638074a07eab1dff867b1f3",
                    "timestamp" : "0x03e8",
                    "transactionsTrie" : "0xc06dc82b2e1965aa696d8ca301ae1f93ad1653a525feed701c34894b12c24b67",
                    "uncleHash" : "0x1dcc4de8dec75d7aab85b567b6ccd41ad312451b948a7413f0a142fd40d49347"
                },
                "rlp" : "0xf90263f901faa04308f8de1c1be1a3aa4c9075fda41bb4c366bd214bb7ba5c07c43f4a4e48eddea01dcc4de8dec75d7aab85b567b6ccd41ad312451b948a7413f0a142fd40d49347942adc25665018aa1fe0e6bc666dac8fc2697ff9baa02f52494822226a72c72b662b94abdd94da3426958638074a07eab1dff867b1f3a0c06dc82b2e1965aa696d8ca301ae1f93ad1653a525feed701c34894b12c24b67a07277650321c3a7ed66b4fa574acf924b6f11a7fbe8681af2d5f547dc500951b3b901000000000000000000000000000000000000000000000000000000000000000000000000000000000000000000000000000000000000000000000000000000000000000000000000000000000000000000000000000000000000000000000000000000000000000000000000000000000000000000000000000000000000000000000000000000000000000000000000000000000000000000000000000000000000000000000000000000000000000000000000000000000000000000000000000000000000000000000000000000000000000000000000000000000000000000000000000000000000000000000000000000000000000000000000000000000083020000018502540be40082fc578203e800a000000000000000000000000000000000000000000000000000000000000000008800000000000000000af863f861800a82fc57800196600a80600c6000396000f200600160008035811a81001ba02844f9a1adcb763de9e72eedf69a2967cc74c2d1af42824a9d898da6cf47948ea00dc03ce1d7425de4700fbfde9d7ddd42a672ab3a24a8bf2e7a47b598596cea88c0",
                "transactions" : [
                    {
                        "data" : "0x600a80600c6000396000f200600160008035811a8100",
                        "gasLimit" : "0xfc57",
                        "gasPrice" : "0x0a",
                        "nonce" : "0x00",
                        "r" : "0x2844f9a1adcb763de9e72eedf69a2967cc74c2d1af42824a9d898da6cf47948e",
                        "s" : "0x0dc03ce1d7425de4700fbfde9d7ddd42a672ab3a24a8bf2e7a47b598596cea88",
                        "sender" : "0xa94f5374fce5edbc8e2a8697c15331677e6ebf0b",
                        "to" : "",
                        "v" : "0x1b",
                        "value" : "0x01"
                    }
                ],
                "uncleHeaders" : [
                ]
            }
        ],
        "genesisBlockHeader" : {
            "baseFeePerGas" : "0x0b",
            "bloom" : "0x00000000000000000000000000000000000000000000000000000000000000000000000000000000000000000000000000000000000000000000000000000000000000000000000000000000000000000000000000000000000000000000000000000000000000000000000000000000000000000000000000000000000000000000000000000000000000000000000000000000000000000000000000000000000000000000000000000000000000000000000000000000000000000000000000000000000000000000000000000000000000000000000000000000000000000000000000000000000000000000000000000000000000000000000000000000",
            "coinbase" : "0x2adc25665018aa1fe0e6bc666dac8fc2697ff9ba",
            "difficulty" : "0x020000",
            "extraData" : "0x00",
            "gasLimit" : "0x02540be400",
            "gasUsed" : "0x00",
            "hash" : "0x4308f8de1c1be1a3aa4c9075fda41bb4c366bd214bb7ba5c07c43f4a4e48edde",
            "mixHash" : "0x0000000000000000000000000000000000000000000000000000000000000000",
            "nonce" : "0x0000000000000000",
            "number" : "0x00",
            "parentHash" : "0x0000000000000000000000000000000000000000000000000000000000000000",
            "receiptTrie" : "0x56e81f171bcc55a6ff8345e692c0f86e5b48e01b996cadc001622fb5e363b421",
            "stateRoot" : "0x4b30398a95c7efca98c1b215cba894ca1a7fbbe16e3dcdc6c58687c92ea8ac83",
            "timestamp" : "0x00",
            "transactionsTrie" : "0x56e81f171bcc55a6ff8345e692c0f86e5b48e01b996cadc001622fb5e363b421",
            "uncleHash" : "0x1dcc4de8dec75d7aab85b567b6ccd41ad312451b948a7413f0a142fd40d49347"
        },
        "genesisRLP" : "0xf901fbf901f6a00000000000000000000000000000000000000000000000000000000000000000a01dcc4de8dec75d7aab85b567b6ccd41ad312451b948a7413f0a142fd40d49347942adc25665018aa1fe0e6bc666dac8fc2697ff9baa04b30398a95c7efca98c1b215cba894ca1a7fbbe16e3dcdc6c58687c92ea8ac83a056e81f171bcc55a6ff8345e692c0f86e5b48e01b996cadc001622fb5e363b421a056e81f171bcc55a6ff8345e692c0f86e5b48e01b996cadc001622fb5e363b421b901000000000000000000000000000000000000000000000000000000000000000000000000000000000000000000000000000000000000000000000000000000000000000000000000000000000000000000000000000000000000000000000000000000000000000000000000000000000000000000000000000000000000000000000000000000000000000000000000000000000000000000000000000000000000000000000000000000000000000000000000000000000000000000000000000000000000000000000000000000000000000000000000000000000000000000000000000000000000000000000000000000000000000000000000000000000083020000808502540be400808000a000000000000000000000000000000000000000000000000000000000000000008800000000000000000bc0c0",
        "lastblockhash" : "0xc63337f5041f839116f85585bfa53e3c4732ea07fd93617599b889478bb112a3",
        "network" : "London",
        "postState" : {
            "0x2adc25665018aa1fe0e6bc666dac8fc2697ff9ba" : {
                "balance" : "0x1bc16d674ec80000",
                "code" : "0x",
                "nonce" : "0x01",
                "storage" : {
                }
            },
            "0xa94f5374fce5edbc8e2a8697c15331677e6ebf0b" : {
                "balance" : "0x025402089a",
                "code" : "0x",
                "nonce" : "0x01",
                "storage" : {
                }
            }
        },
        "pre" : {
            "0x2adc25665018aa1fe0e6bc666dac8fc2697ff9ba" : {
                "balance" : "0x00",
                "code" : "0x",
                "nonce" : "0x01",
                "storage" : {
                }
            },
            "0xa94f5374fce5edbc8e2a8697c15331677e6ebf0b" : {
                "balance" : "0x02540be400",
                "code" : "0x",
                "nonce" : "0x00",
                "storage" : {
                }
            }
        },
        "sealEngine" : "NoProof"
    }
}