{
    "TransactionCreateStopInInitcode_d0g0v0_Byzantium" : {
        "_info" : {
            "comment" : "",
            "filledwith" : "cpp-1.3.0+commit.e0f7b68a.Linux.g++",
            "source" : "/src/GenStateTestAsBcTemp/stInitCodeTest/TransactionCreateStopInInitcode_d0g0v0Filler.json"
        },
        "blocks" : [
            {
                "blockHeader" : {
                    "bloom" : "0x00000000000000000000000000000000000000000000000000000000000000000000000000000000000000000000000000000000000000000000000000000000000000000000000000000000000000000000000000000000000000000000000000000000000000000000000000000000000000000000000000000000000000000000000000000000000000000000000000000000000000000000000000000000000000000000000000000000000000000000000000000000000000000000000000000000000000000000000000000000000000000000000000000000000000000000000000000000000000000000000000000000000000000000000000000000",
                    "coinbase" : "0x2adc25665018aa1fe0e6bc666dac8fc2697ff9ba",
                    "difficulty" : "0x020000",
                    "extraData" : "",
                    "gasLimit" : "0x0f4240",
                    "gasUsed" : "0xd3bc",
                    "hash" : "0x82b25f27a6e786ace7840d4de74a7cb026de86d7c170f86d5aed3b0cf7dee03e",
                    "mixHash" : "0x0c50cf8020678a3eaa478e6b2b21e61e3a55ff25d64be1e85e04ba4021c38b88",
                    "nonce" : "0x674bd751f5f2d29f",
                    "number" : "0x01",
                    "parentHash" : "0xa35295e248019d92600a60b59a979ce901ef66ecce774eb31fa3455fade18546",
                    "receiptTrie" : "0xa033904d2d4ef9c17b3d03ee9a5d1f80da087fcfcf3b6c4d3ee9558becd305b4",
                    "stateRoot" : "0x4b8b6d5ed5a20958fad63eddae1df2a20b90d8469566e17bc3c06e422a28d232",
                    "timestamp" : "0x03e8",
                    "transactionsTrie" : "0x783a1c47a24d380251b5e3b74c0ed04c7fba17359d5545209e87881ff322f42f",
                    "uncleHash" : "0x1dcc4de8dec75d7aab85b567b6ccd41ad312451b948a7413f0a142fd40d49347"
                },
                "rlp" : "0xf90261f901f7a0a35295e248019d92600a60b59a979ce901ef66ecce774eb31fa3455fade18546a01dcc4de8dec75d7aab85b567b6ccd41ad312451b948a7413f0a142fd40d49347942adc25665018aa1fe0e6bc666dac8fc2697ff9baa04b8b6d5ed5a20958fad63eddae1df2a20b90d8469566e17bc3c06e422a28d232a0783a1c47a24d380251b5e3b74c0ed04c7fba17359d5545209e87881ff322f42fa0a033904d2d4ef9c17b3d03ee9a5d1f80da087fcfcf3b6c4d3ee9558becd305b4b90100000000000000000000000000000000000000000000000000000000000000000000000000000000000000000000000000000000000000000000000000000000000000000000000000000000000000000000000000000000000000000000000000000000000000000000000000000000000000000000000000000000000000000000000000000000000000000000000000000000000000000000000000000000000000000000000000000000000000000000000000000000000000000000000000000000000000000000000000000000000000000000000000000000000000000000000000000000000000000000000000000000000000000000000000000000008302000001830f424082d3bc8203e880a00c50cf8020678a3eaa478e6b2b21e61e3a55ff25d64be1e85e04ba4021c38b8888674bd751f5f2d29ff864f862800182d6d8800197600a80600c600039600000f20000600160008035811a811ca0322f8bd19f8ff29928f53409bca49b9631fe1e41113bc895f3b1c9ade5367254a06164a2e2f25f2ccd201f8167e9a7babeeac2304104a039678e4dd0ca1588a38ec0",
                "transactions" : [
                    {
                        "data" : "0x600a80600c600039600000f20000600160008035811a81",
                        "gasLimit" : "0xd6d8",
                        "gasPrice" : "0x01",
                        "nonce" : "0x00",
                        "r" : "0x322f8bd19f8ff29928f53409bca49b9631fe1e41113bc895f3b1c9ade5367254",
                        "s" : "0x6164a2e2f25f2ccd201f8167e9a7babeeac2304104a039678e4dd0ca1588a38e",
                        "to" : "",
                        "v" : "0x1c",
                        "value" : "0x01"
                    }
                ],
                "uncleHeaders" : [
                ]
            }
        ],
        "genesisBlockHeader" : {
            "bloom" : "0x00000000000000000000000000000000000000000000000000000000000000000000000000000000000000000000000000000000000000000000000000000000000000000000000000000000000000000000000000000000000000000000000000000000000000000000000000000000000000000000000000000000000000000000000000000000000000000000000000000000000000000000000000000000000000000000000000000000000000000000000000000000000000000000000000000000000000000000000000000000000000000000000000000000000000000000000000000000000000000000000000000000000000000000000000000000",
            "coinbase" : "0x2adc25665018aa1fe0e6bc666dac8fc2697ff9ba",
            "difficulty" : "0x020000",
            "extraData" : "0x42",
            "gasLimit" : "0x0f4240",
            "gasUsed" : "0x00",
            "hash" : "0xa35295e248019d92600a60b59a979ce901ef66ecce774eb31fa3455fade18546",
            "mixHash" : "0x56e81f171bcc55a6ff8345e692c0f86e5b48e01b996cadc001622fb5e363b421",
            "nonce" : "0x0102030405060708",
            "number" : "0x00",
            "parentHash" : "0x0000000000000000000000000000000000000000000000000000000000000000",
            "receiptTrie" : "0x56e81f171bcc55a6ff8345e692c0f86e5b48e01b996cadc001622fb5e363b421",
            "stateRoot" : "0xa3e1c133a5a51b03399ed9ad0380f3182e9e18322f232b816dd4b9094f871e1b",
            "timestamp" : "0x03b6",
            "transactionsTrie" : "0x56e81f171bcc55a6ff8345e692c0f86e5b48e01b996cadc001622fb5e363b421",
            "uncleHash" : "0x1dcc4de8dec75d7aab85b567b6ccd41ad312451b948a7413f0a142fd40d49347"
        },
        "genesisRLP" : "0xf901faf901f5a00000000000000000000000000000000000000000000000000000000000000000a01dcc4de8dec75d7aab85b567b6ccd41ad312451b948a7413f0a142fd40d49347942adc25665018aa1fe0e6bc666dac8fc2697ff9baa0a3e1c133a5a51b03399ed9ad0380f3182e9e18322f232b816dd4b9094f871e1ba056e81f171bcc55a6ff8345e692c0f86e5b48e01b996cadc001622fb5e363b421a056e81f171bcc55a6ff8345e692c0f86e5b48e01b996cadc001622fb5e363b421b90100000000000000000000000000000000000000000000000000000000000000000000000000000000000000000000000000000000000000000000000000000000000000000000000000000000000000000000000000000000000000000000000000000000000000000000000000000000000000000000000000000000000000000000000000000000000000000000000000000000000000000000000000000000000000000000000000000000000000000000000000000000000000000000000000000000000000000000000000000000000000000000000000000000000000000000000000000000000000000000000000000000000000000000000000000000008302000080830f4240808203b642a056e81f171bcc55a6ff8345e692c0f86e5b48e01b996cadc001622fb5e363b421880102030405060708c0c0",
        "lastblockhash" : "0x82b25f27a6e786ace7840d4de74a7cb026de86d7c170f86d5aed3b0cf7dee03e",
        "network" : "Byzantium",
        "postState" : {
            "0x00000000000000000000000000000000000000f0" : {
                "balance" : "0x00",
                "code" : "",
                "nonce" : "0x00",
                "storage" : {
                }
            },
            "0x2adc25665018aa1fe0e6bc666dac8fc2697ff9ba" : {
                "balance" : "0x4563918244f4d3bc",
                "code" : "",
                "nonce" : "0x00",
                "storage" : {
                }
            },
            "0x6295ee1b4f6dd65047762f924ecd367c17eabf8f" : {
                "balance" : "0x01",
                "code" : "",
                "nonce" : "0x01",
                "storage" : {
                }
            },
            "0xa94f5374fce5edbc8e2a8697c15331677e6ebf0b" : {
                "balance" : "0xb2e3",
                "code" : "",
                "nonce" : "0x01",
                "storage" : {
                }
            }
        },
        "pre" : {
            "0xa94f5374fce5edbc8e2a8697c15331677e6ebf0b" : {
                "balance" : "0x0186a0",
                "code" : "",
                "nonce" : "0x00",
                "storage" : {
                }
            }
        }
    },
    "TransactionCreateStopInInitcode_d0g0v0_Constantinople" : {
        "_info" : {
            "comment" : "",
            "filledwith" : "cpp-1.3.0+commit.e0f7b68a.Linux.g++",
            "source" : "/src/GenStateTestAsBcTemp/stInitCodeTest/TransactionCreateStopInInitcode_d0g0v0Filler.json"
        },
        "blocks" : [
            {
                "blockHeader" : {
                    "bloom" : "0x00000000000000000000000000000000000000000000000000000000000000000000000000000000000000000000000000000000000000000000000000000000000000000000000000000000000000000000000000000000000000000000000000000000000000000000000000000000000000000000000000000000000000000000000000000000000000000000000000000000000000000000000000000000000000000000000000000000000000000000000000000000000000000000000000000000000000000000000000000000000000000000000000000000000000000000000000000000000000000000000000000000000000000000000000000000",
                    "coinbase" : "0x2adc25665018aa1fe0e6bc666dac8fc2697ff9ba",
                    "difficulty" : "0x020000",
                    "extraData" : "",
                    "gasLimit" : "0x0f4240",
                    "gasUsed" : "0xd3bc",
                    "hash" : "0x74e0edd988bc44ace949c4c76589913ab745083a9f070c53ef28874daed7124f",
                    "mixHash" : "0x889d6d1ccf142753c737118a586e17d72c63d4c16d7820d256961afe661ad750",
                    "nonce" : "0x9043c988f39201ba",
                    "number" : "0x01",
                    "parentHash" : "0xa35295e248019d92600a60b59a979ce901ef66ecce774eb31fa3455fade18546",
                    "receiptTrie" : "0xa033904d2d4ef9c17b3d03ee9a5d1f80da087fcfcf3b6c4d3ee9558becd305b4",
                    "stateRoot" : "0x4b8b6d5ed5a20958fad63eddae1df2a20b90d8469566e17bc3c06e422a28d232",
                    "timestamp" : "0x03e8",
                    "transactionsTrie" : "0x783a1c47a24d380251b5e3b74c0ed04c7fba17359d5545209e87881ff322f42f",
                    "uncleHash" : "0x1dcc4de8dec75d7aab85b567b6ccd41ad312451b948a7413f0a142fd40d49347"
                },
                "rlp" : "0xf90261f901f7a0a35295e248019d92600a60b59a979ce901ef66ecce774eb31fa3455fade18546a01dcc4de8dec75d7aab85b567b6ccd41ad312451b948a7413f0a142fd40d49347942adc25665018aa1fe0e6bc666dac8fc2697ff9baa04b8b6d5ed5a20958fad63eddae1df2a20b90d8469566e17bc3c06e422a28d232a0783a1c47a24d380251b5e3b74c0ed04c7fba17359d5545209e87881ff322f42fa0a033904d2d4ef9c17b3d03ee9a5d1f80da087fcfcf3b6c4d3ee9558becd305b4b90100000000000000000000000000000000000000000000000000000000000000000000000000000000000000000000000000000000000000000000000000000000000000000000000000000000000000000000000000000000000000000000000000000000000000000000000000000000000000000000000000000000000000000000000000000000000000000000000000000000000000000000000000000000000000000000000000000000000000000000000000000000000000000000000000000000000000000000000000000000000000000000000000000000000000000000000000000000000000000000000000000000000000000000000000000000008302000001830f424082d3bc8203e880a0889d6d1ccf142753c737118a586e17d72c63d4c16d7820d256961afe661ad750889043c988f39201baf864f862800182d6d8800197600a80600c600039600000f20000600160008035811a811ca0322f8bd19f8ff29928f53409bca49b9631fe1e41113bc895f3b1c9ade5367254a06164a2e2f25f2ccd201f8167e9a7babeeac2304104a039678e4dd0ca1588a38ec0",
                "transactions" : [
                    {
                        "data" : "0x600a80600c600039600000f20000600160008035811a81",
                        "gasLimit" : "0xd6d8",
                        "gasPrice" : "0x01",
                        "nonce" : "0x00",
                        "r" : "0x322f8bd19f8ff29928f53409bca49b9631fe1e41113bc895f3b1c9ade5367254",
                        "s" : "0x6164a2e2f25f2ccd201f8167e9a7babeeac2304104a039678e4dd0ca1588a38e",
                        "to" : "",
                        "v" : "0x1c",
                        "value" : "0x01"
                    }
                ],
                "uncleHeaders" : [
                ]
            }
        ],
        "genesisBlockHeader" : {
            "bloom" : "0x00000000000000000000000000000000000000000000000000000000000000000000000000000000000000000000000000000000000000000000000000000000000000000000000000000000000000000000000000000000000000000000000000000000000000000000000000000000000000000000000000000000000000000000000000000000000000000000000000000000000000000000000000000000000000000000000000000000000000000000000000000000000000000000000000000000000000000000000000000000000000000000000000000000000000000000000000000000000000000000000000000000000000000000000000000000",
            "coinbase" : "0x2adc25665018aa1fe0e6bc666dac8fc2697ff9ba",
            "difficulty" : "0x020000",
            "extraData" : "0x42",
            "gasLimit" : "0x0f4240",
            "gasUsed" : "0x00",
            "hash" : "0xa35295e248019d92600a60b59a979ce901ef66ecce774eb31fa3455fade18546",
            "mixHash" : "0x56e81f171bcc55a6ff8345e692c0f86e5b48e01b996cadc001622fb5e363b421",
            "nonce" : "0x0102030405060708",
            "number" : "0x00",
            "parentHash" : "0x0000000000000000000000000000000000000000000000000000000000000000",
            "receiptTrie" : "0x56e81f171bcc55a6ff8345e692c0f86e5b48e01b996cadc001622fb5e363b421",
            "stateRoot" : "0xa3e1c133a5a51b03399ed9ad0380f3182e9e18322f232b816dd4b9094f871e1b",
            "timestamp" : "0x03b6",
            "transactionsTrie" : "0x56e81f171bcc55a6ff8345e692c0f86e5b48e01b996cadc001622fb5e363b421",
            "uncleHash" : "0x1dcc4de8dec75d7aab85b567b6ccd41ad312451b948a7413f0a142fd40d49347"
        },
        "genesisRLP" : "0xf901faf901f5a00000000000000000000000000000000000000000000000000000000000000000a01dcc4de8dec75d7aab85b567b6ccd41ad312451b948a7413f0a142fd40d49347942adc25665018aa1fe0e6bc666dac8fc2697ff9baa0a3e1c133a5a51b03399ed9ad0380f3182e9e18322f232b816dd4b9094f871e1ba056e81f171bcc55a6ff8345e692c0f86e5b48e01b996cadc001622fb5e363b421a056e81f171bcc55a6ff8345e692c0f86e5b48e01b996cadc001622fb5e363b421b90100000000000000000000000000000000000000000000000000000000000000000000000000000000000000000000000000000000000000000000000000000000000000000000000000000000000000000000000000000000000000000000000000000000000000000000000000000000000000000000000000000000000000000000000000000000000000000000000000000000000000000000000000000000000000000000000000000000000000000000000000000000000000000000000000000000000000000000000000000000000000000000000000000000000000000000000000000000000000000000000000000000000000000000000000000000008302000080830f4240808203b642a056e81f171bcc55a6ff8345e692c0f86e5b48e01b996cadc001622fb5e363b421880102030405060708c0c0",
        "lastblockhash" : "0x74e0edd988bc44ace949c4c76589913ab745083a9f070c53ef28874daed7124f",
        "network" : "Constantinople",
        "postState" : {
            "0x00000000000000000000000000000000000000f0" : {
                "balance" : "0x00",
                "code" : "",
                "nonce" : "0x00",
                "storage" : {
                }
            },
            "0x2adc25665018aa1fe0e6bc666dac8fc2697ff9ba" : {
                "balance" : "0x4563918244f4d3bc",
                "code" : "",
                "nonce" : "0x00",
                "storage" : {
                }
            },
            "0x6295ee1b4f6dd65047762f924ecd367c17eabf8f" : {
                "balance" : "0x01",
                "code" : "",
                "nonce" : "0x01",
                "storage" : {
                }
            },
            "0xa94f5374fce5edbc8e2a8697c15331677e6ebf0b" : {
                "balance" : "0xb2e3",
                "code" : "",
                "nonce" : "0x01",
                "storage" : {
                }
            }
        },
        "pre" : {
            "0xa94f5374fce5edbc8e2a8697c15331677e6ebf0b" : {
                "balance" : "0x0186a0",
                "code" : "",
                "nonce" : "0x00",
                "storage" : {
                }
            }
        }
    },
    "TransactionCreateStopInInitcode_d0g0v0_EIP150" : {
        "_info" : {
            "comment" : "",
            "filledwith" : "cpp-1.3.0+commit.e0f7b68a.Linux.g++",
            "source" : "/src/GenStateTestAsBcTemp/stInitCodeTest/TransactionCreateStopInInitcode_d0g0v0Filler.json"
        },
        "blocks" : [
            {
                "blockHeader" : {
                    "bloom" : "0x00000000000000000000000000000000000000000000000000000000000000000000000000000000000000000000000000000000000000000000000000000000000000000000000000000000000000000000000000000000000000000000000000000000000000000000000000000000000000000000000000000000000000000000000000000000000000000000000000000000000000000000000000000000000000000000000000000000000000000000000000000000000000000000000000000000000000000000000000000000000000000000000000000000000000000000000000000000000000000000000000000000000000000000000000000000",
                    "coinbase" : "0x2adc25665018aa1fe0e6bc666dac8fc2697ff9ba",
                    "difficulty" : "0x020000",
                    "extraData" : "",
                    "gasLimit" : "0x0f4240",
                    "gasUsed" : "0xd3bc",
                    "hash" : "0x0258cbaa35b7caa8858685c12bf0196bd6a70e8044a4a518ffbcc1eb320ccce3",
                    "mixHash" : "0x15130ec87f09e2d5688cefbfec9ad479193d4d56680fd02ec9e72d6b84ef4df8",
                    "nonce" : "0x309f7e07bccb922c",
                    "number" : "0x01",
                    "parentHash" : "0xa35295e248019d92600a60b59a979ce901ef66ecce774eb31fa3455fade18546",
                    "receiptTrie" : "0xb0b2dbee56d4462b873d34b1edab09d5dbb75296592de2fcb064a9d24daa9f27",
                    "stateRoot" : "0x543020d5a0796ae3f270f6b2e3fc9d15d1ae6f3313feffa8a4fcdecd698dd89b",
                    "timestamp" : "0x03e8",
                    "transactionsTrie" : "0x783a1c47a24d380251b5e3b74c0ed04c7fba17359d5545209e87881ff322f42f",
                    "uncleHash" : "0x1dcc4de8dec75d7aab85b567b6ccd41ad312451b948a7413f0a142fd40d49347"
                },
                "rlp" : "0xf90261f901f7a0a35295e248019d92600a60b59a979ce901ef66ecce774eb31fa3455fade18546a01dcc4de8dec75d7aab85b567b6ccd41ad312451b948a7413f0a142fd40d49347942adc25665018aa1fe0e6bc666dac8fc2697ff9baa0543020d5a0796ae3f270f6b2e3fc9d15d1ae6f3313feffa8a4fcdecd698dd89ba0783a1c47a24d380251b5e3b74c0ed04c7fba17359d5545209e87881ff322f42fa0b0b2dbee56d4462b873d34b1edab09d5dbb75296592de2fcb064a9d24daa9f27b90100000000000000000000000000000000000000000000000000000000000000000000000000000000000000000000000000000000000000000000000000000000000000000000000000000000000000000000000000000000000000000000000000000000000000000000000000000000000000000000000000000000000000000000000000000000000000000000000000000000000000000000000000000000000000000000000000000000000000000000000000000000000000000000000000000000000000000000000000000000000000000000000000000000000000000000000000000000000000000000000000000000000000000000000000000000008302000001830f424082d3bc8203e880a015130ec87f09e2d5688cefbfec9ad479193d4d56680fd02ec9e72d6b84ef4df888309f7e07bccb922cf864f862800182d6d8800197600a80600c600039600000f20000600160008035811a811ca0322f8bd19f8ff29928f53409bca49b9631fe1e41113bc895f3b1c9ade5367254a06164a2e2f25f2ccd201f8167e9a7babeeac2304104a039678e4dd0ca1588a38ec0",
                "transactions" : [
                    {
                        "data" : "0x600a80600c600039600000f20000600160008035811a81",
                        "gasLimit" : "0xd6d8",
                        "gasPrice" : "0x01",
                        "nonce" : "0x00",
                        "r" : "0x322f8bd19f8ff29928f53409bca49b9631fe1e41113bc895f3b1c9ade5367254",
                        "s" : "0x6164a2e2f25f2ccd201f8167e9a7babeeac2304104a039678e4dd0ca1588a38e",
                        "to" : "",
                        "v" : "0x1c",
                        "value" : "0x01"
                    }
                ],
                "uncleHeaders" : [
                ]
            }
        ],
        "genesisBlockHeader" : {
            "bloom" : "0x00000000000000000000000000000000000000000000000000000000000000000000000000000000000000000000000000000000000000000000000000000000000000000000000000000000000000000000000000000000000000000000000000000000000000000000000000000000000000000000000000000000000000000000000000000000000000000000000000000000000000000000000000000000000000000000000000000000000000000000000000000000000000000000000000000000000000000000000000000000000000000000000000000000000000000000000000000000000000000000000000000000000000000000000000000000",
            "coinbase" : "0x2adc25665018aa1fe0e6bc666dac8fc2697ff9ba",
            "difficulty" : "0x020000",
            "extraData" : "0x42",
            "gasLimit" : "0x0f4240",
            "gasUsed" : "0x00",
            "hash" : "0xa35295e248019d92600a60b59a979ce901ef66ecce774eb31fa3455fade18546",
            "mixHash" : "0x56e81f171bcc55a6ff8345e692c0f86e5b48e01b996cadc001622fb5e363b421",
            "nonce" : "0x0102030405060708",
            "number" : "0x00",
            "parentHash" : "0x0000000000000000000000000000000000000000000000000000000000000000",
            "receiptTrie" : "0x56e81f171bcc55a6ff8345e692c0f86e5b48e01b996cadc001622fb5e363b421",
            "stateRoot" : "0xa3e1c133a5a51b03399ed9ad0380f3182e9e18322f232b816dd4b9094f871e1b",
            "timestamp" : "0x03b6",
            "transactionsTrie" : "0x56e81f171bcc55a6ff8345e692c0f86e5b48e01b996cadc001622fb5e363b421",
            "uncleHash" : "0x1dcc4de8dec75d7aab85b567b6ccd41ad312451b948a7413f0a142fd40d49347"
        },
        "genesisRLP" : "0xf901faf901f5a00000000000000000000000000000000000000000000000000000000000000000a01dcc4de8dec75d7aab85b567b6ccd41ad312451b948a7413f0a142fd40d49347942adc25665018aa1fe0e6bc666dac8fc2697ff9baa0a3e1c133a5a51b03399ed9ad0380f3182e9e18322f232b816dd4b9094f871e1ba056e81f171bcc55a6ff8345e692c0f86e5b48e01b996cadc001622fb5e363b421a056e81f171bcc55a6ff8345e692c0f86e5b48e01b996cadc001622fb5e363b421b90100000000000000000000000000000000000000000000000000000000000000000000000000000000000000000000000000000000000000000000000000000000000000000000000000000000000000000000000000000000000000000000000000000000000000000000000000000000000000000000000000000000000000000000000000000000000000000000000000000000000000000000000000000000000000000000000000000000000000000000000000000000000000000000000000000000000000000000000000000000000000000000000000000000000000000000000000000000000000000000000000000000000000000000000000000000008302000080830f4240808203b642a056e81f171bcc55a6ff8345e692c0f86e5b48e01b996cadc001622fb5e363b421880102030405060708c0c0",
        "lastblockhash" : "0x0258cbaa35b7caa8858685c12bf0196bd6a70e8044a4a518ffbcc1eb320ccce3",
        "network" : "EIP150",
        "postState" : {
            "0x2adc25665018aa1fe0e6bc666dac8fc2697ff9ba" : {
                "balance" : "0x4563918244f4d3bc",
                "code" : "",
                "nonce" : "0x00",
                "storage" : {
                }
            },
            "0x6295ee1b4f6dd65047762f924ecd367c17eabf8f" : {
                "balance" : "0x01",
                "code" : "",
                "nonce" : "0x00",
                "storage" : {
                }
            },
            "0xa94f5374fce5edbc8e2a8697c15331677e6ebf0b" : {
                "balance" : "0xb2e3",
                "code" : "",
                "nonce" : "0x01",
                "storage" : {
                }
            }
        },
        "pre" : {
            "0xa94f5374fce5edbc8e2a8697c15331677e6ebf0b" : {
                "balance" : "0x0186a0",
                "code" : "",
                "nonce" : "0x00",
                "storage" : {
                }
            }
        }
    },
    "TransactionCreateStopInInitcode_d0g0v0_EIP158" : {
        "_info" : {
            "comment" : "",
            "filledwith" : "cpp-1.3.0+commit.e0f7b68a.Linux.g++",
            "source" : "/src/GenStateTestAsBcTemp/stInitCodeTest/TransactionCreateStopInInitcode_d0g0v0Filler.json"
        },
        "blocks" : [
            {
                "blockHeader" : {
                    "bloom" : "0x00000000000000000000000000000000000000000000000000000000000000000000000000000000000000000000000000000000000000000000000000000000000000000000000000000000000000000000000000000000000000000000000000000000000000000000000000000000000000000000000000000000000000000000000000000000000000000000000000000000000000000000000000000000000000000000000000000000000000000000000000000000000000000000000000000000000000000000000000000000000000000000000000000000000000000000000000000000000000000000000000000000000000000000000000000000",
                    "coinbase" : "0x2adc25665018aa1fe0e6bc666dac8fc2697ff9ba",
                    "difficulty" : "0x020000",
                    "extraData" : "",
                    "gasLimit" : "0x0f4240",
                    "gasUsed" : "0xd3bc",
                    "hash" : "0xb2588d62eaac0dcef57dbd0a8bc877bb73411e83583a2abcf248ea107d28c2ab",
                    "mixHash" : "0x37e1a67800160e971a93ba1045a559a6fc71c23df5d6236c29a83e4ceb0a3d4e",
                    "nonce" : "0x0d9ab4d896e87cec",
                    "number" : "0x01",
                    "parentHash" : "0xa35295e248019d92600a60b59a979ce901ef66ecce774eb31fa3455fade18546",
                    "receiptTrie" : "0x8282903bf1e6fe27234908e4dc6ef1d36a4fb9bab3de4be9c3c46f975d670f56",
                    "stateRoot" : "0x6295735b5d815b4880811f9f9aff60f754b9d5db9901d857909b7103fb080424",
                    "timestamp" : "0x03e8",
                    "transactionsTrie" : "0x783a1c47a24d380251b5e3b74c0ed04c7fba17359d5545209e87881ff322f42f",
                    "uncleHash" : "0x1dcc4de8dec75d7aab85b567b6ccd41ad312451b948a7413f0a142fd40d49347"
                },
                "rlp" : "0xf90261f901f7a0a35295e248019d92600a60b59a979ce901ef66ecce774eb31fa3455fade18546a01dcc4de8dec75d7aab85b567b6ccd41ad312451b948a7413f0a142fd40d49347942adc25665018aa1fe0e6bc666dac8fc2697ff9baa06295735b5d815b4880811f9f9aff60f754b9d5db9901d857909b7103fb080424a0783a1c47a24d380251b5e3b74c0ed04c7fba17359d5545209e87881ff322f42fa08282903bf1e6fe27234908e4dc6ef1d36a4fb9bab3de4be9c3c46f975d670f56b90100000000000000000000000000000000000000000000000000000000000000000000000000000000000000000000000000000000000000000000000000000000000000000000000000000000000000000000000000000000000000000000000000000000000000000000000000000000000000000000000000000000000000000000000000000000000000000000000000000000000000000000000000000000000000000000000000000000000000000000000000000000000000000000000000000000000000000000000000000000000000000000000000000000000000000000000000000000000000000000000000000000000000000000000000000000008302000001830f424082d3bc8203e880a037e1a67800160e971a93ba1045a559a6fc71c23df5d6236c29a83e4ceb0a3d4e880d9ab4d896e87cecf864f862800182d6d8800197600a80600c600039600000f20000600160008035811a811ca0322f8bd19f8ff29928f53409bca49b9631fe1e41113bc895f3b1c9ade5367254a06164a2e2f25f2ccd201f8167e9a7babeeac2304104a039678e4dd0ca1588a38ec0",
                "transactions" : [
                    {
                        "data" : "0x600a80600c600039600000f20000600160008035811a81",
                        "gasLimit" : "0xd6d8",
                        "gasPrice" : "0x01",
                        "nonce" : "0x00",
                        "r" : "0x322f8bd19f8ff29928f53409bca49b9631fe1e41113bc895f3b1c9ade5367254",
                        "s" : "0x6164a2e2f25f2ccd201f8167e9a7babeeac2304104a039678e4dd0ca1588a38e",
                        "to" : "",
                        "v" : "0x1c",
                        "value" : "0x01"
                    }
                ],
                "uncleHeaders" : [
                ]
            }
        ],
        "genesisBlockHeader" : {
            "bloom" : "0x00000000000000000000000000000000000000000000000000000000000000000000000000000000000000000000000000000000000000000000000000000000000000000000000000000000000000000000000000000000000000000000000000000000000000000000000000000000000000000000000000000000000000000000000000000000000000000000000000000000000000000000000000000000000000000000000000000000000000000000000000000000000000000000000000000000000000000000000000000000000000000000000000000000000000000000000000000000000000000000000000000000000000000000000000000000",
            "coinbase" : "0x2adc25665018aa1fe0e6bc666dac8fc2697ff9ba",
            "difficulty" : "0x020000",
            "extraData" : "0x42",
            "gasLimit" : "0x0f4240",
            "gasUsed" : "0x00",
            "hash" : "0xa35295e248019d92600a60b59a979ce901ef66ecce774eb31fa3455fade18546",
            "mixHash" : "0x56e81f171bcc55a6ff8345e692c0f86e5b48e01b996cadc001622fb5e363b421",
            "nonce" : "0x0102030405060708",
            "number" : "0x00",
            "parentHash" : "0x0000000000000000000000000000000000000000000000000000000000000000",
            "receiptTrie" : "0x56e81f171bcc55a6ff8345e692c0f86e5b48e01b996cadc001622fb5e363b421",
            "stateRoot" : "0xa3e1c133a5a51b03399ed9ad0380f3182e9e18322f232b816dd4b9094f871e1b",
            "timestamp" : "0x03b6",
            "transactionsTrie" : "0x56e81f171bcc55a6ff8345e692c0f86e5b48e01b996cadc001622fb5e363b421",
            "uncleHash" : "0x1dcc4de8dec75d7aab85b567b6ccd41ad312451b948a7413f0a142fd40d49347"
        },
        "genesisRLP" : "0xf901faf901f5a00000000000000000000000000000000000000000000000000000000000000000a01dcc4de8dec75d7aab85b567b6ccd41ad312451b948a7413f0a142fd40d49347942adc25665018aa1fe0e6bc666dac8fc2697ff9baa0a3e1c133a5a51b03399ed9ad0380f3182e9e18322f232b816dd4b9094f871e1ba056e81f171bcc55a6ff8345e692c0f86e5b48e01b996cadc001622fb5e363b421a056e81f171bcc55a6ff8345e692c0f86e5b48e01b996cadc001622fb5e363b421b90100000000000000000000000000000000000000000000000000000000000000000000000000000000000000000000000000000000000000000000000000000000000000000000000000000000000000000000000000000000000000000000000000000000000000000000000000000000000000000000000000000000000000000000000000000000000000000000000000000000000000000000000000000000000000000000000000000000000000000000000000000000000000000000000000000000000000000000000000000000000000000000000000000000000000000000000000000000000000000000000000000000000000000000000000000000008302000080830f4240808203b642a056e81f171bcc55a6ff8345e692c0f86e5b48e01b996cadc001622fb5e363b421880102030405060708c0c0",
        "lastblockhash" : "0xb2588d62eaac0dcef57dbd0a8bc877bb73411e83583a2abcf248ea107d28c2ab",
        "network" : "EIP158",
        "postState" : {
            "0x2adc25665018aa1fe0e6bc666dac8fc2697ff9ba" : {
                "balance" : "0x4563918244f4d3bc",
                "code" : "",
                "nonce" : "0x00",
                "storage" : {
                }
            },
            "0x6295ee1b4f6dd65047762f924ecd367c17eabf8f" : {
                "balance" : "0x01",
                "code" : "",
                "nonce" : "0x01",
                "storage" : {
                }
            },
            "0xa94f5374fce5edbc8e2a8697c15331677e6ebf0b" : {
                "balance" : "0xb2e3",
                "code" : "",
                "nonce" : "0x01",
                "storage" : {
                }
            }
        },
        "pre" : {
            "0xa94f5374fce5edbc8e2a8697c15331677e6ebf0b" : {
                "balance" : "0x0186a0",
                "code" : "",
                "nonce" : "0x00",
                "storage" : {
                }
            }
        }
    },
    "TransactionCreateStopInInitcode_d0g0v0_Frontier" : {
        "_info" : {
            "comment" : "",
            "filledwith" : "cpp-1.3.0+commit.e0f7b68a.Linux.g++",
            "source" : "/src/GenStateTestAsBcTemp/stInitCodeTest/TransactionCreateStopInInitcode_d0g0v0Filler.json"
        },
        "blocks" : [
            {
                "blockHeader" : {
                    "bloom" : "0x00000000000000000000000000000000000000000000000000000000000000000000000000000000000000000000000000000000000000000000000000000000000000000000000000000000000000000000000000000000000000000000000000000000000000000000000000000000000000000000000000000000000000000000000000000000000000000000000000000000000000000000000000000000000000000000000000000000000000000000000000000000000000000000000000000000000000000000000000000000000000000000000000000000000000000000000000000000000000000000000000000000000000000000000000000000",
                    "coinbase" : "0x2adc25665018aa1fe0e6bc666dac8fc2697ff9ba",
                    "difficulty" : "0x020000",
                    "extraData" : "",
                    "gasLimit" : "0x0f4240",
                    "gasUsed" : "0x56bc",
                    "hash" : "0xce46e390cbd8c29104a1072ecf1cf53e7b20ef8021350d74e66460a46bb05a3e",
                    "mixHash" : "0x0b137c4e8e609bfa4a8ee5c4f5ebd4058d3915414f1ad6e6e7f0dee717ba82a8",
                    "nonce" : "0x653cb9f0921b727d",
                    "number" : "0x01",
                    "parentHash" : "0xa35295e248019d92600a60b59a979ce901ef66ecce774eb31fa3455fade18546",
                    "receiptTrie" : "0x4b6a67831b50ee0d8064aa251bb9c8d5dea77aee0815afe239d2c474f6280744",
                    "stateRoot" : "0xb73319d79393591b83e5bfd45018455be0993b17a557074767f9b0752b48b4ff",
                    "timestamp" : "0x03e8",
                    "transactionsTrie" : "0x783a1c47a24d380251b5e3b74c0ed04c7fba17359d5545209e87881ff322f42f",
                    "uncleHash" : "0x1dcc4de8dec75d7aab85b567b6ccd41ad312451b948a7413f0a142fd40d49347"
                },
                "rlp" : "0xf90261f901f7a0a35295e248019d92600a60b59a979ce901ef66ecce774eb31fa3455fade18546a01dcc4de8dec75d7aab85b567b6ccd41ad312451b948a7413f0a142fd40d49347942adc25665018aa1fe0e6bc666dac8fc2697ff9baa0b73319d79393591b83e5bfd45018455be0993b17a557074767f9b0752b48b4ffa0783a1c47a24d380251b5e3b74c0ed04c7fba17359d5545209e87881ff322f42fa04b6a67831b50ee0d8064aa251bb9c8d5dea77aee0815afe239d2c474f6280744b90100000000000000000000000000000000000000000000000000000000000000000000000000000000000000000000000000000000000000000000000000000000000000000000000000000000000000000000000000000000000000000000000000000000000000000000000000000000000000000000000000000000000000000000000000000000000000000000000000000000000000000000000000000000000000000000000000000000000000000000000000000000000000000000000000000000000000000000000000000000000000000000000000000000000000000000000000000000000000000000000000000000000000000000000000000000008302000001830f42408256bc8203e880a00b137c4e8e609bfa4a8ee5c4f5ebd4058d3915414f1ad6e6e7f0dee717ba82a888653cb9f0921b727df864f862800182d6d8800197600a80600c600039600000f20000600160008035811a811ca0322f8bd19f8ff29928f53409bca49b9631fe1e41113bc895f3b1c9ade5367254a06164a2e2f25f2ccd201f8167e9a7babeeac2304104a039678e4dd0ca1588a38ec0",
                "transactions" : [
                    {
                        "data" : "0x600a80600c600039600000f20000600160008035811a81",
                        "gasLimit" : "0xd6d8",
                        "gasPrice" : "0x01",
                        "nonce" : "0x00",
                        "r" : "0x322f8bd19f8ff29928f53409bca49b9631fe1e41113bc895f3b1c9ade5367254",
                        "s" : "0x6164a2e2f25f2ccd201f8167e9a7babeeac2304104a039678e4dd0ca1588a38e",
                        "to" : "",
                        "v" : "0x1c",
                        "value" : "0x01"
                    }
                ],
                "uncleHeaders" : [
                ]
            }
        ],
        "genesisBlockHeader" : {
            "bloom" : "0x00000000000000000000000000000000000000000000000000000000000000000000000000000000000000000000000000000000000000000000000000000000000000000000000000000000000000000000000000000000000000000000000000000000000000000000000000000000000000000000000000000000000000000000000000000000000000000000000000000000000000000000000000000000000000000000000000000000000000000000000000000000000000000000000000000000000000000000000000000000000000000000000000000000000000000000000000000000000000000000000000000000000000000000000000000000",
            "coinbase" : "0x2adc25665018aa1fe0e6bc666dac8fc2697ff9ba",
            "difficulty" : "0x020000",
            "extraData" : "0x42",
            "gasLimit" : "0x0f4240",
            "gasUsed" : "0x00",
            "hash" : "0xa35295e248019d92600a60b59a979ce901ef66ecce774eb31fa3455fade18546",
            "mixHash" : "0x56e81f171bcc55a6ff8345e692c0f86e5b48e01b996cadc001622fb5e363b421",
            "nonce" : "0x0102030405060708",
            "number" : "0x00",
            "parentHash" : "0x0000000000000000000000000000000000000000000000000000000000000000",
            "receiptTrie" : "0x56e81f171bcc55a6ff8345e692c0f86e5b48e01b996cadc001622fb5e363b421",
            "stateRoot" : "0xa3e1c133a5a51b03399ed9ad0380f3182e9e18322f232b816dd4b9094f871e1b",
            "timestamp" : "0x03b6",
            "transactionsTrie" : "0x56e81f171bcc55a6ff8345e692c0f86e5b48e01b996cadc001622fb5e363b421",
            "uncleHash" : "0x1dcc4de8dec75d7aab85b567b6ccd41ad312451b948a7413f0a142fd40d49347"
        },
        "genesisRLP" : "0xf901faf901f5a00000000000000000000000000000000000000000000000000000000000000000a01dcc4de8dec75d7aab85b567b6ccd41ad312451b948a7413f0a142fd40d49347942adc25665018aa1fe0e6bc666dac8fc2697ff9baa0a3e1c133a5a51b03399ed9ad0380f3182e9e18322f232b816dd4b9094f871e1ba056e81f171bcc55a6ff8345e692c0f86e5b48e01b996cadc001622fb5e363b421a056e81f171bcc55a6ff8345e692c0f86e5b48e01b996cadc001622fb5e363b421b90100000000000000000000000000000000000000000000000000000000000000000000000000000000000000000000000000000000000000000000000000000000000000000000000000000000000000000000000000000000000000000000000000000000000000000000000000000000000000000000000000000000000000000000000000000000000000000000000000000000000000000000000000000000000000000000000000000000000000000000000000000000000000000000000000000000000000000000000000000000000000000000000000000000000000000000000000000000000000000000000000000000000000000000000000000000008302000080830f4240808203b642a056e81f171bcc55a6ff8345e692c0f86e5b48e01b996cadc001622fb5e363b421880102030405060708c0c0",
        "lastblockhash" : "0xce46e390cbd8c29104a1072ecf1cf53e7b20ef8021350d74e66460a46bb05a3e",
        "network" : "Frontier",
        "postState" : {
            "0x2adc25665018aa1fe0e6bc666dac8fc2697ff9ba" : {
                "balance" : "0x4563918244f456bc",
                "code" : "",
                "nonce" : "0x00",
                "storage" : {
                }
            },
            "0x6295ee1b4f6dd65047762f924ecd367c17eabf8f" : {
                "balance" : "0x01",
                "code" : "",
                "nonce" : "0x00",
                "storage" : {
                }
            },
            "0xa94f5374fce5edbc8e2a8697c15331677e6ebf0b" : {
                "balance" : "0x012fe3",
                "code" : "",
                "nonce" : "0x01",
                "storage" : {
                }
            }
        },
        "pre" : {
            "0xa94f5374fce5edbc8e2a8697c15331677e6ebf0b" : {
                "balance" : "0x0186a0",
                "code" : "",
                "nonce" : "0x00",
                "storage" : {
                }
            }
        }
    },
    "TransactionCreateStopInInitcode_d0g0v0_Homestead" : {
        "_info" : {
            "comment" : "",
            "filledwith" : "cpp-1.3.0+commit.e0f7b68a.Linux.g++",
            "source" : "/src/GenStateTestAsBcTemp/stInitCodeTest/TransactionCreateStopInInitcode_d0g0v0Filler.json"
        },
        "blocks" : [
            {
                "blockHeader" : {
                    "bloom" : "0x00000000000000000000000000000000000000000000000000000000000000000000000000000000000000000000000000000000000000000000000000000000000000000000000000000000000000000000000000000000000000000000000000000000000000000000000000000000000000000000000000000000000000000000000000000000000000000000000000000000000000000000000000000000000000000000000000000000000000000000000000000000000000000000000000000000000000000000000000000000000000000000000000000000000000000000000000000000000000000000000000000000000000000000000000000000",
                    "coinbase" : "0x2adc25665018aa1fe0e6bc666dac8fc2697ff9ba",
                    "difficulty" : "0x020000",
                    "extraData" : "",
                    "gasLimit" : "0x0f4240",
                    "gasUsed" : "0xd3bc",
                    "hash" : "0x18fc35b00235d1a50412fee46d9d5baa5eb0c826c269496e6ca4374b95c38c66",
                    "mixHash" : "0x69b4a3bc8932c673464265eff59d83fa4c0ccfff7f2ab5002cccd6eaabfa295e",
                    "nonce" : "0x0a245fc4d3f12e05",
                    "number" : "0x01",
                    "parentHash" : "0xa35295e248019d92600a60b59a979ce901ef66ecce774eb31fa3455fade18546",
                    "receiptTrie" : "0xb0b2dbee56d4462b873d34b1edab09d5dbb75296592de2fcb064a9d24daa9f27",
                    "stateRoot" : "0x543020d5a0796ae3f270f6b2e3fc9d15d1ae6f3313feffa8a4fcdecd698dd89b",
                    "timestamp" : "0x03e8",
                    "transactionsTrie" : "0x783a1c47a24d380251b5e3b74c0ed04c7fba17359d5545209e87881ff322f42f",
                    "uncleHash" : "0x1dcc4de8dec75d7aab85b567b6ccd41ad312451b948a7413f0a142fd40d49347"
                },
                "rlp" : "0xf90261f901f7a0a35295e248019d92600a60b59a979ce901ef66ecce774eb31fa3455fade18546a01dcc4de8dec75d7aab85b567b6ccd41ad312451b948a7413f0a142fd40d49347942adc25665018aa1fe0e6bc666dac8fc2697ff9baa0543020d5a0796ae3f270f6b2e3fc9d15d1ae6f3313feffa8a4fcdecd698dd89ba0783a1c47a24d380251b5e3b74c0ed04c7fba17359d5545209e87881ff322f42fa0b0b2dbee56d4462b873d34b1edab09d5dbb75296592de2fcb064a9d24daa9f27b90100000000000000000000000000000000000000000000000000000000000000000000000000000000000000000000000000000000000000000000000000000000000000000000000000000000000000000000000000000000000000000000000000000000000000000000000000000000000000000000000000000000000000000000000000000000000000000000000000000000000000000000000000000000000000000000000000000000000000000000000000000000000000000000000000000000000000000000000000000000000000000000000000000000000000000000000000000000000000000000000000000000000000000000000000000000008302000001830f424082d3bc8203e880a069b4a3bc8932c673464265eff59d83fa4c0ccfff7f2ab5002cccd6eaabfa295e880a245fc4d3f12e05f864f862800182d6d8800197600a80600c600039600000f20000600160008035811a811ca0322f8bd19f8ff29928f53409bca49b9631fe1e41113bc895f3b1c9ade5367254a06164a2e2f25f2ccd201f8167e9a7babeeac2304104a039678e4dd0ca1588a38ec0",
                "transactions" : [
                    {
                        "data" : "0x600a80600c600039600000f20000600160008035811a81",
                        "gasLimit" : "0xd6d8",
                        "gasPrice" : "0x01",
                        "nonce" : "0x00",
                        "r" : "0x322f8bd19f8ff29928f53409bca49b9631fe1e41113bc895f3b1c9ade5367254",
                        "s" : "0x6164a2e2f25f2ccd201f8167e9a7babeeac2304104a039678e4dd0ca1588a38e",
                        "to" : "",
                        "v" : "0x1c",
                        "value" : "0x01"
                    }
                ],
                "uncleHeaders" : [
                ]
            }
        ],
        "genesisBlockHeader" : {
            "bloom" : "0x00000000000000000000000000000000000000000000000000000000000000000000000000000000000000000000000000000000000000000000000000000000000000000000000000000000000000000000000000000000000000000000000000000000000000000000000000000000000000000000000000000000000000000000000000000000000000000000000000000000000000000000000000000000000000000000000000000000000000000000000000000000000000000000000000000000000000000000000000000000000000000000000000000000000000000000000000000000000000000000000000000000000000000000000000000000",
            "coinbase" : "0x2adc25665018aa1fe0e6bc666dac8fc2697ff9ba",
            "difficulty" : "0x020000",
            "extraData" : "0x42",
            "gasLimit" : "0x0f4240",
            "gasUsed" : "0x00",
            "hash" : "0xa35295e248019d92600a60b59a979ce901ef66ecce774eb31fa3455fade18546",
            "mixHash" : "0x56e81f171bcc55a6ff8345e692c0f86e5b48e01b996cadc001622fb5e363b421",
            "nonce" : "0x0102030405060708",
            "number" : "0x00",
            "parentHash" : "0x0000000000000000000000000000000000000000000000000000000000000000",
            "receiptTrie" : "0x56e81f171bcc55a6ff8345e692c0f86e5b48e01b996cadc001622fb5e363b421",
            "stateRoot" : "0xa3e1c133a5a51b03399ed9ad0380f3182e9e18322f232b816dd4b9094f871e1b",
            "timestamp" : "0x03b6",
            "transactionsTrie" : "0x56e81f171bcc55a6ff8345e692c0f86e5b48e01b996cadc001622fb5e363b421",
            "uncleHash" : "0x1dcc4de8dec75d7aab85b567b6ccd41ad312451b948a7413f0a142fd40d49347"
        },
        "genesisRLP" : "0xf901faf901f5a00000000000000000000000000000000000000000000000000000000000000000a01dcc4de8dec75d7aab85b567b6ccd41ad312451b948a7413f0a142fd40d49347942adc25665018aa1fe0e6bc666dac8fc2697ff9baa0a3e1c133a5a51b03399ed9ad0380f3182e9e18322f232b816dd4b9094f871e1ba056e81f171bcc55a6ff8345e692c0f86e5b48e01b996cadc001622fb5e363b421a056e81f171bcc55a6ff8345e692c0f86e5b48e01b996cadc001622fb5e363b421b90100000000000000000000000000000000000000000000000000000000000000000000000000000000000000000000000000000000000000000000000000000000000000000000000000000000000000000000000000000000000000000000000000000000000000000000000000000000000000000000000000000000000000000000000000000000000000000000000000000000000000000000000000000000000000000000000000000000000000000000000000000000000000000000000000000000000000000000000000000000000000000000000000000000000000000000000000000000000000000000000000000000000000000000000000000000008302000080830f4240808203b642a056e81f171bcc55a6ff8345e692c0f86e5b48e01b996cadc001622fb5e363b421880102030405060708c0c0",
        "lastblockhash" : "0x18fc35b00235d1a50412fee46d9d5baa5eb0c826c269496e6ca4374b95c38c66",
        "network" : "Homestead",
        "postState" : {
            "0x2adc25665018aa1fe0e6bc666dac8fc2697ff9ba" : {
                "balance" : "0x4563918244f4d3bc",
                "code" : "",
                "nonce" : "0x00",
                "storage" : {
                }
            },
            "0x6295ee1b4f6dd65047762f924ecd367c17eabf8f" : {
                "balance" : "0x01",
                "code" : "",
                "nonce" : "0x00",
                "storage" : {
                }
            },
            "0xa94f5374fce5edbc8e2a8697c15331677e6ebf0b" : {
                "balance" : "0xb2e3",
                "code" : "",
                "nonce" : "0x01",
                "storage" : {
                }
            }
        },
        "pre" : {
            "0xa94f5374fce5edbc8e2a8697c15331677e6ebf0b" : {
                "balance" : "0x0186a0",
                "code" : "",
                "nonce" : "0x00",
                "storage" : {
                }
            }
        }
    }
}