{
    "sstore_XtoY_d4g0v0_Constantinople" : {
        "_info" : {
            "comment" : "change X -> Y",
            "filledwith" : "testeth 1.5.0.dev2-76+commit.2fd57400",
            "lllcversion" : "Version: 0.5.0-develop.2018.10.10+commit.06200b4b.Linux.g++",
            "source" : "src/BlockchainTestsFiller/GeneralStateTests/stSStoreTest/sstore_XtoY_d4g0v0Filler.json",
            "sourceHash" : "0ae1beda9de37382307ff4c85b7053e31036d2c35aaebc8e96049e5af99a0fdf"
        },
        "blocks" : [
            {
                "blockHeader" : {
                    "bloom" : "0x00000000000000000000000000000000000000000000000000000000000000000000000000000000000000000000000000000000000000000000000000000000000000000000000000000000000000000000000000000000000000000000000000000000000000000000000000000000000000000000000000000000000000000000000000000000000000000000000000000000000000000000000000000000000000000000000000000000000000000000000000000000000000000000000000000000000000000000000000000000000000000000000000000000000000000000000000000000000000000000000000000000000000000000000000000000",
                    "coinbase" : "0x2adc25665018aa1fe0e6bc666dac8fc2697ff9ba",
                    "difficulty" : "0x020000",
                    "extraData" : "",
                    "gasLimit" : "0x989680",
                    "gasUsed" : "0x039a4d",
                    "hash" : "0xe04b5ea2c06bc7768111ddfd0701215bf534423c1f1640d352fa749cacaa8360",
                    "mixHash" : "0x0000000000000000000000000000000000000000000000000000000000000000",
                    "nonce" : "0x0000000000000000",
                    "number" : "0x01",
                    "parentHash" : "0x8afa009198d70674cce16166e6b7352d5c0296ed2c4e806433817f9abceb8f2d",
                    "receiptTrie" : "0x60dd143cdb544391e4d38925f904b756841d4d9985c9191a3832f659bcbb6074",
                    "stateRoot" : "0x260b82ab3ba761bb6c59aea2808618b51cb121a85a1dac8a0bd5db40ff38b86a",
                    "timestamp" : "0x03e8",
                    "transactionsTrie" : "0x55d96b9ea8a310feb66a9ca3d11da23718b95bf5b5e2cd54c7220661c2f75715",
                    "uncleHash" : "0x1dcc4de8dec75d7aab85b567b6ccd41ad312451b948a7413f0a142fd40d49347"
                },
                "rlp" : "0xf90293f901f8a08afa009198d70674cce16166e6b7352d5c0296ed2c4e806433817f9abceb8f2da01dcc4de8dec75d7aab85b567b6ccd41ad312451b948a7413f0a142fd40d49347942adc25665018aa1fe0e6bc666dac8fc2697ff9baa0260b82ab3ba761bb6c59aea2808618b51cb121a85a1dac8a0bd5db40ff38b86aa055d96b9ea8a310feb66a9ca3d11da23718b95bf5b5e2cd54c7220661c2f75715a060dd143cdb544391e4d38925f904b756841d4d9985c9191a3832f659bcbb6074b901000000000000000000000000000000000000000000000000000000000000000000000000000000000000000000000000000000000000000000000000000000000000000000000000000000000000000000000000000000000000000000000000000000000000000000000000000000000000000000000000000000000000000000000000000000000000000000000000000000000000000000000000000000000000000000000000000000000000000000000000000000000000000000000000000000000000000000000000000000000000000000000000000000000000000000000000000000000000000000000000000000000000000000000000000000000083020000018398968083039a4d8203e880a00000000000000000000000000000000000000000000000000000000000000000880000000000000000f895f8938001832dc6c08001b8466000600f80603760003960006000f5506000600060006000600073dea0000000000000000000000000000000000000620927c0f15000fe6001600055600260005560016001551ba0b66b7fee747700c95167cab720651cffe6de021f5336b7dd1480585e3edcfd57a00dfce750c2dc926a1bd5590bfe15c9f7ed5ace90ce023fda09e47bbddf5d31b5c0",
                "transactions" : [
                    {
                        "data" : "0x6000600f80603760003960006000f5506000600060006000600073dea0000000000000000000000000000000000000620927c0f15000fe600160005560026000556001600155",
                        "gasLimit" : "0x2dc6c0",
                        "gasPrice" : "0x01",
                        "nonce" : "0x00",
                        "r" : "0xb66b7fee747700c95167cab720651cffe6de021f5336b7dd1480585e3edcfd57",
                        "s" : "0x0dfce750c2dc926a1bd5590bfe15c9f7ed5ace90ce023fda09e47bbddf5d31b5",
                        "to" : "",
                        "v" : "0x1b",
                        "value" : "0x01"
                    }
                ],
                "uncleHeaders" : [
                ]
            }
        ],
        "genesisBlockHeader" : {
            "bloom" : "0x00000000000000000000000000000000000000000000000000000000000000000000000000000000000000000000000000000000000000000000000000000000000000000000000000000000000000000000000000000000000000000000000000000000000000000000000000000000000000000000000000000000000000000000000000000000000000000000000000000000000000000000000000000000000000000000000000000000000000000000000000000000000000000000000000000000000000000000000000000000000000000000000000000000000000000000000000000000000000000000000000000000000000000000000000000000",
            "coinbase" : "0x2adc25665018aa1fe0e6bc666dac8fc2697ff9ba",
            "difficulty" : "0x020000",
            "extraData" : "0x42",
            "gasLimit" : "0x989680",
            "gasUsed" : "0x00",
            "hash" : "0x8afa009198d70674cce16166e6b7352d5c0296ed2c4e806433817f9abceb8f2d",
            "mixHash" : "0x56e81f171bcc55a6ff8345e692c0f86e5b48e01b996cadc001622fb5e363b421",
            "nonce" : "0x0102030405060708",
            "number" : "0x00",
            "parentHash" : "0x0000000000000000000000000000000000000000000000000000000000000000",
            "receiptTrie" : "0x56e81f171bcc55a6ff8345e692c0f86e5b48e01b996cadc001622fb5e363b421",
            "stateRoot" : "0x941dcf987b94e127a16dcb5d680d29ff57da70528da8573151e2c6d69fe4faf4",
            "timestamp" : "0x03b6",
            "transactionsTrie" : "0x56e81f171bcc55a6ff8345e692c0f86e5b48e01b996cadc001622fb5e363b421",
            "uncleHash" : "0x1dcc4de8dec75d7aab85b567b6ccd41ad312451b948a7413f0a142fd40d49347"
        },
        "genesisRLP" : "0xf901faf901f5a00000000000000000000000000000000000000000000000000000000000000000a01dcc4de8dec75d7aab85b567b6ccd41ad312451b948a7413f0a142fd40d49347942adc25665018aa1fe0e6bc666dac8fc2697ff9baa0941dcf987b94e127a16dcb5d680d29ff57da70528da8573151e2c6d69fe4faf4a056e81f171bcc55a6ff8345e692c0f86e5b48e01b996cadc001622fb5e363b421a056e81f171bcc55a6ff8345e692c0f86e5b48e01b996cadc001622fb5e363b421b9010000000000000000000000000000000000000000000000000000000000000000000000000000000000000000000000000000000000000000000000000000000000000000000000000000000000000000000000000000000000000000000000000000000000000000000000000000000000000000000000000000000000000000000000000000000000000000000000000000000000000000000000000000000000000000000000000000000000000000000000000000000000000000000000000000000000000000000000000000000000000000000000000000000000000000000000000000000000000000000000000000000000000000000000000000000000830200008083989680808203b642a056e81f171bcc55a6ff8345e692c0f86e5b48e01b996cadc001622fb5e363b421880102030405060708c0c0",
        "lastblockhash" : "0xe04b5ea2c06bc7768111ddfd0701215bf534423c1f1640d352fa749cacaa8360",
        "network" : "Constantinople",
        "postState" : {
            "0x2adc25665018aa1fe0e6bc666dac8fc2697ff9ba" : {
                "balance" : "0x1bc16d674ecb9a4d",
                "code" : "",
                "nonce" : "0x00",
                "storage" : {
                }
            },
            "0x48c84e75e41c7d6629e7a38b1edcb8f0789e85a8" : {
                "balance" : "0x00",
                "code" : "",
                "nonce" : "0x01",
                "storage" : {
                    "0x00" : "0x02",
                    "0x01" : "0x01"
                }
            },
            "0x6295ee1b4f6dd65047762f924ecd367c17eabf8f" : {
                "balance" : "0x01",
                "code" : "",
                "nonce" : "0x02",
                "storage" : {
                }
            },
            "0xa94f5374fce5edbc8e2a8697c15331677e6ebf0b" : {
                "balance" : "0xe8d4a175b2",
                "code" : "",
                "nonce" : "0x01",
                "storage" : {
                }
            },
            "0xb000000000000000000000000000000000000000" : {
                "balance" : "0x00",
                "code" : "0x6002600155",
                "nonce" : "0x00",
                "storage" : {
                    "0x01" : "0x01"
                }
            },
            "0xc000000000000000000000000000000000000000" : {
                "balance" : "0x00",
                "code" : "0x6002600155",
                "nonce" : "0x00",
                "storage" : {
                    "0x01" : "0x01"
                }
            },
            "0xdea0000000000000000000000000000000000000" : {
                "balance" : "0x00",
                "code" : "0x6001600155600060015560016002556000600255600160035560006003556001600455600060045560016005556000600555600160065560006006556001600755600060075560016008556000600855600160095560006009556001600a556000600a556001600b556000600b556001600c556000600c556001600d556000600d556001600e556000600e556001600f556000600f55600160105560006010556001600155",
                "nonce" : "0x00",
                "storage" : {
                    "0x01" : "0x01"
                }
            }
        },
        "pre" : {
            "0xa94f5374fce5edbc8e2a8697c15331677e6ebf0b" : {
                "balance" : "0xe8d4a51000",
                "code" : "",
                "nonce" : "0x00",
                "storage" : {
                }
            },
            "0xb000000000000000000000000000000000000000" : {
                "balance" : "0x00",
                "code" : "0x6002600155",
                "nonce" : "0x00",
                "storage" : {
                    "0x01" : "0x01"
                }
            },
            "0xc000000000000000000000000000000000000000" : {
                "balance" : "0x00",
                "code" : "0x6002600155",
                "nonce" : "0x00",
                "storage" : {
                    "0x01" : "0x01"
                }
            },
            "0xdea0000000000000000000000000000000000000" : {
                "balance" : "0x00",
                "code" : "0x6001600155600060015560016002556000600255600160035560006003556001600455600060045560016005556000600555600160065560006006556001600755600060075560016008556000600855600160095560006009556001600a556000600a556001600b556000600b556001600c556000600c556001600d556000600d556001600e556000600e556001600f556000600f55600160105560006010556001600155",
                "nonce" : "0x00",
                "storage" : {
                }
            }
        },
        "sealEngine" : "NoProof"
    }
}