{
    "sstore_0to0toX_d0g0v0_Constantinople" : {
        "_info" : {
            "comment" : "change 0 -> 0 -> X",
            "filledwith" : "testeth 1.5.0.dev2-76+commit.2fd57400",
            "lllcversion" : "Version: 0.5.0-develop.2018.10.10+commit.06200b4b.Linux.g++",
            "source" : "src/BlockchainTestsFiller/GeneralStateTests/stSStoreTest/sstore_0to0toX_d0g0v0Filler.json",
            "sourceHash" : "4ffcf3e449cdc18954922a4868f54df97cfe627c6d3d6001981db9dba0e9d7f0"
        },
        "blocks" : [
            {
                "blockHeader" : {
                    "bloom" : "0x00000000000000000000000000000000000000000000000000000000000000000000000000000000000000000000000000000000000000000000000000000000000000000000000000000000000000000000000000000000000000000000000000000000000000000000000000000000000000000000000000000000000000000000000000000000000000000000000000000000000000000000000000000000000000000000000000000000000000000000000000000000000000000000000000000000000000000000000000000000000000000000000000000000000000000000000000000000000000000000000000000000000000000000000000000000",
                    "coinbase" : "0x2adc25665018aa1fe0e6bc666dac8fc2697ff9ba",
                    "difficulty" : "0x020000",
                    "extraData" : "",
                    "gasLimit" : "0x989680",
                    "gasUsed" : "0x048a8e",
                    "hash" : "0x7a17bc957f8de3f7ae30369df1125479a5a789da2f16d998a8a8ad1632f9f6ea",
                    "mixHash" : "0x0000000000000000000000000000000000000000000000000000000000000000",
                    "nonce" : "0x0000000000000000",
                    "number" : "0x01",
                    "parentHash" : "0xdddac9f1aefec92d41500de04de94a73e33e656a155d76e8002d2e19bbf7f2fa",
                    "receiptTrie" : "0xc670d3f18e72ad61cc0dcbfefdb71f1562e82496c22e5986e0075bcb0123dae4",
                    "stateRoot" : "0x857faa80c59bb52b3729243d13bdb539490116a2f65e7016e364d1b3dece34b6",
                    "timestamp" : "0x03e8",
                    "transactionsTrie" : "0x6699a721edbe144d89185307f94543d81eac21a51e695a947796db4287a526f0",
                    "uncleHash" : "0x1dcc4de8dec75d7aab85b567b6ccd41ad312451b948a7413f0a142fd40d49347"
                },
                "rlp" : "0xf90260f901f8a0dddac9f1aefec92d41500de04de94a73e33e656a155d76e8002d2e19bbf7f2faa01dcc4de8dec75d7aab85b567b6ccd41ad312451b948a7413f0a142fd40d49347942adc25665018aa1fe0e6bc666dac8fc2697ff9baa0857faa80c59bb52b3729243d13bdb539490116a2f65e7016e364d1b3dece34b6a06699a721edbe144d89185307f94543d81eac21a51e695a947796db4287a526f0a0c670d3f18e72ad61cc0dcbfefdb71f1562e82496c22e5986e0075bcb0123dae4b901000000000000000000000000000000000000000000000000000000000000000000000000000000000000000000000000000000000000000000000000000000000000000000000000000000000000000000000000000000000000000000000000000000000000000000000000000000000000000000000000000000000000000000000000000000000000000000000000000000000000000000000000000000000000000000000000000000000000000000000000000000000000000000000000000000000000000000000000000000000000000000000000000000000000000000000000000000000000000000000000000000000000000000000000000000000083020000018398968083048a8e8203e880a00000000000000000000000000000000000000000000000000000000000000000880000000000000000f862f8608001830a1220943e180b1862f9d158abb5e519a6d8605540c2368201801ca0b001ebe1f1c2c148e5f967eefec26a5e803992a43df7a3e6d076d48a7ac02051a00faaf42b274ee6d589564191fb5ef7137d3b17a04c4028228f3a67f79c586c02c0",
                "transactions" : [
                    {
                        "data" : "0x",
                        "gasLimit" : "0x0a1220",
                        "gasPrice" : "0x01",
                        "nonce" : "0x00",
                        "r" : "0xb001ebe1f1c2c148e5f967eefec26a5e803992a43df7a3e6d076d48a7ac02051",
                        "s" : "0x0faaf42b274ee6d589564191fb5ef7137d3b17a04c4028228f3a67f79c586c02",
                        "to" : "0x3e180b1862f9d158abb5e519a6d8605540c23682",
                        "v" : "0x1c",
                        "value" : "0x01"
                    }
                ],
                "uncleHeaders" : [
                ]
            }
        ],
        "genesisBlockHeader" : {
            "bloom" : "0x00000000000000000000000000000000000000000000000000000000000000000000000000000000000000000000000000000000000000000000000000000000000000000000000000000000000000000000000000000000000000000000000000000000000000000000000000000000000000000000000000000000000000000000000000000000000000000000000000000000000000000000000000000000000000000000000000000000000000000000000000000000000000000000000000000000000000000000000000000000000000000000000000000000000000000000000000000000000000000000000000000000000000000000000000000000",
            "coinbase" : "0x2adc25665018aa1fe0e6bc666dac8fc2697ff9ba",
            "difficulty" : "0x020000",
            "extraData" : "0x42",
            "gasLimit" : "0x989680",
            "gasUsed" : "0x00",
            "hash" : "0xdddac9f1aefec92d41500de04de94a73e33e656a155d76e8002d2e19bbf7f2fa",
            "mixHash" : "0x56e81f171bcc55a6ff8345e692c0f86e5b48e01b996cadc001622fb5e363b421",
            "nonce" : "0x0102030405060708",
            "number" : "0x00",
            "parentHash" : "0x0000000000000000000000000000000000000000000000000000000000000000",
            "receiptTrie" : "0x56e81f171bcc55a6ff8345e692c0f86e5b48e01b996cadc001622fb5e363b421",
            "stateRoot" : "0x0aaf071ef102076991cd2842f9f735c95aa8251f80692ada04167fba0772d267",
            "timestamp" : "0x03b6",
            "transactionsTrie" : "0x56e81f171bcc55a6ff8345e692c0f86e5b48e01b996cadc001622fb5e363b421",
            "uncleHash" : "0x1dcc4de8dec75d7aab85b567b6ccd41ad312451b948a7413f0a142fd40d49347"
        },
        "genesisRLP" : "0xf901faf901f5a00000000000000000000000000000000000000000000000000000000000000000a01dcc4de8dec75d7aab85b567b6ccd41ad312451b948a7413f0a142fd40d49347942adc25665018aa1fe0e6bc666dac8fc2697ff9baa00aaf071ef102076991cd2842f9f735c95aa8251f80692ada04167fba0772d267a056e81f171bcc55a6ff8345e692c0f86e5b48e01b996cadc001622fb5e363b421a056e81f171bcc55a6ff8345e692c0f86e5b48e01b996cadc001622fb5e363b421b9010000000000000000000000000000000000000000000000000000000000000000000000000000000000000000000000000000000000000000000000000000000000000000000000000000000000000000000000000000000000000000000000000000000000000000000000000000000000000000000000000000000000000000000000000000000000000000000000000000000000000000000000000000000000000000000000000000000000000000000000000000000000000000000000000000000000000000000000000000000000000000000000000000000000000000000000000000000000000000000000000000000000000000000000000000000000830200008083989680808203b642a056e81f171bcc55a6ff8345e692c0f86e5b48e01b996cadc001622fb5e363b421880102030405060708c0c0",
        "lastblockhash" : "0x7a17bc957f8de3f7ae30369df1125479a5a789da2f16d998a8a8ad1632f9f6ea",
        "network" : "Constantinople",
        "postState" : {
            "0x2adc25665018aa1fe0e6bc666dac8fc2697ff9ba" : {
                "balance" : "0x1bc16d674ecc8a8e",
                "code" : "",
                "nonce" : "0x00",
                "storage" : {
                }
            },
            "0x321cffa8e30eb2ac4ca65a883168da43dd28b786" : {
                "balance" : "0x00",
                "code" : "",
                "nonce" : "0x01",
                "storage" : {
                    "0x00" : "0x01",
                    "0x01" : "0x01"
                }
            },
            "0x3e180b1862f9d158abb5e519a6d8605540c23682" : {
                "balance" : "0x06",
                "code" : "0x600060005560016000556000600060006000600073b000000000000000000000000000000000000000620186a0f1506000600060006000600073b000000000000000000000000000000000000000620186a0f250600060006000600073b000000000000000000000000000000000000000620186a0f450600060006000600073b000000000000000000000000000000000000000620186a0fa50600060148060ac60003960006000f55000fe6001600055600060015560006001556001600155",
                "nonce" : "0x01",
                "storage" : {
                    "0x00" : "0x01",
                    "0x01" : "0x01",
                    "0x02" : "0x01"
                }
            },
            "0xa94f5374fce5edbc8e2a8697c15331677e6ebf0b" : {
                "balance" : "0xe8d4a08571",
                "code" : "",
                "nonce" : "0x01",
                "storage" : {
                }
            },
            "0xb000000000000000000000000000000000000000" : {
                "balance" : "0x00",
                "code" : "0x600060015560016001556001600255",
                "nonce" : "0x00",
                "storage" : {
                    "0x01" : "0x01",
                    "0x02" : "0x01"
                }
            },
            "0xc000000000000000000000000000000000000000" : {
                "balance" : "0x00",
                "code" : "0x600060015560016001556000600155",
                "nonce" : "0x00",
                "storage" : {
                }
            }
        },
        "pre" : {
            "0x3e180b1862f9d158abb5e519a6d8605540c23682" : {
                "balance" : "0x05",
                "code" : "0x600060005560016000556000600060006000600073b000000000000000000000000000000000000000620186a0f1506000600060006000600073b000000000000000000000000000000000000000620186a0f250600060006000600073b000000000000000000000000000000000000000620186a0f450600060006000600073b000000000000000000000000000000000000000620186a0fa50600060148060ac60003960006000f55000fe6001600055600060015560006001556001600155",
                "nonce" : "0x00",
                "storage" : {
                }
            },
            "0xa94f5374fce5edbc8e2a8697c15331677e6ebf0b" : {
                "balance" : "0xe8d4a51000",
                "code" : "",
                "nonce" : "0x00",
                "storage" : {
                }
            },
            "0xb000000000000000000000000000000000000000" : {
                "balance" : "0x00",
                "code" : "0x600060015560016001556001600255",
                "nonce" : "0x00",
                "storage" : {
                }
            },
            "0xc000000000000000000000000000000000000000" : {
                "balance" : "0x00",
                "code" : "0x600060015560016001556000600155",
                "nonce" : "0x00",
                "storage" : {
                }
            }
        },
        "sealEngine" : "NoProof"
    }
}