{
    "09_revertUndoesAll" : {
        "_info" : {
            "comment" : "Revert undoes all the transient storage writes to the same key from the failed call.",
            "filling-rpc-server" : "evm version 1.13.13-unstable-034bc466-20240219",
            "filling-tool-version" : "retesteth-0.3.2-cancun+commit.014a68a5.Linux.g++",
            "generatedTestHash" : "9d4299008fdd97551630dd27b7df8c9a4df7d61539b384a1075fba7d70a8f759",
            "lllcversion" : "Version: 0.5.14-develop.2023.7.11+commit.c58ab2c6.mod.Linux.g++",
            "solidity" : "Version: 0.8.21+commit.d9974bed.Linux.g++",
            "source" : "src/GeneralStateTestsFiller/Cancun/stEIP1153-transientStorage/09_revertUndoesAllFiller.yml",
            "sourceHash" : "73321634e6847d31c2cd899fbf0ecca3a88b8a07937435c46102fd6059b641f7"
        },
        "env" : {
            "currentBaseFee" : "0x0a",
            "currentCoinbase" : "0x2adc25665018aa1fe0e6bc666dac8fc2697ff9ba",
            "currentDifficulty" : "0x020000",
            "currentExcessBlobGas" : "0x00",
            "currentGasLimit" : "0x10000000000000",
            "currentNumber" : "0x01",
            "currentRandom" : "0x0000000000000000000000000000000000000000000000000000000000020000",
            "currentTimestamp" : "0x03e8"
        },
        "post" : {
            "Cancun" : [
                {
                    "hash" : "0x46db412b8f0de48879d88f39f636343c37f9a5c3447506da4641239b71395552",
                    "indexes" : {
                        "data" : 0,
                        "gas" : 0,
                        "value" : 0
                    },
                    "logs" : "0x1dcc4de8dec75d7aab85b567b6ccd41ad312451b948a7413f0a142fd40d49347",
                    "txbytes" : "0x02f8690180808207d083061a8094a00000000000000000000000000000000000000a80843f371692c080a0743568d659bf985457cf172809a70ead397472fa1556b80a02817cc0f0c08738a066863f0fc471d35cf71f17ee40a9df4d1bb4033af9beceb9584dbf6e34b6c1e4"
                }
            ]
        },
        "pre" : {
            "0x000f3df6d732807ef1319fb7b8bb8522d0beac02" : {
                "balance" : "0x00",
                "code" : "0x3373fffffffffffffffffffffffffffffffffffffffe14604d57602036146024575f5ffd5b5f35801560495762001fff810690815414603c575f5ffd5b62001fff01545f5260205ff35b5f5ffd5b62001fff42064281555f359062001fff015500",
                "nonce" : "0x01",
                "storage" : {
                }
            },
            "0xa00000000000000000000000000000000000000a" : {
                "balance" : "0x0de0b6b3a7640000",
                "code" : "0x5f3560e01c80633f37169214601d5763578290e514601957005b6026565b506024603c565b005b60055f5d60065f5d600b60015d600c60015d5f80fd5b60045f5d600a60015d63578290e560e01b5f525f8060208180305af15f555f5c60015560015c60025556",
                "nonce" : "0x00",
                "storage" : {
                    "0x00" : "0xffff"
                }
            },
            "0xa94f5374fce5edbc8e2a8697c15331677e6ebf0b" : {
                "balance" : "0x3635c9adc5dea00000",
                "code" : "0x",
                "nonce" : "0x00",
                "storage" : {
                }
            }
        },
        "transaction" : {
            "accessLists" : [
                [
                ]
            ],
            "data" : [
                "0x3f371692"
            ],
            "gasLimit" : [
                "0x061a80"
            ],
            "maxFeePerGas" : "0x07d0",
            "maxPriorityFeePerGas" : "0x00",
            "nonce" : "0x00",
            "secretKey" : "0x45a915e4d060149eb4365960e6a7a45f334393093061116b197e3240065ff2d8",
            "sender" : "0xa94f5374fce5edbc8e2a8697c15331677e6ebf0b",
            "to" : "0xa00000000000000000000000000000000000000a",
            "value" : [
                "0x00"
            ]
        }
    }
}