{
    "AmbiguousMethod" : {
        "_info" : {
            "comment" : "",
            "filling-rpc-server" : "evm version 1.10.9-unstable-5d64c754-20210831",
            "filling-tool-version" : "retesteth-0.2.0-memory+commit.7c392173.Linux.g++",
            "generatedTestHash" : "770ff2d6f2b2158ca1e777875c4d3db95f3fb7efacc1532d8744a51dd335095b",
            "lllcversion" : "Version: 0.5.14-develop.2021.6.15+commit.401d5358.Linux.g++",
            "source" : "src/GeneralStateTestsFiller/stSolidityTest/AmbiguousMethodFiller.json",
            "sourceHash" : "a9bbd5c8709ab5c497399e7d78aa893b66dc06b96e210fe10102d25f947a810b"
        },
        "env" : {
            "currentBaseFee" : "0x0a",
            "currentCoinbase" : "0x2adc25665018aa1fe0e6bc666dac8fc2697ff9ba",
            "currentDifficulty" : "0x020000",
            "currentGasLimit" : "0x05f5e100",
            "currentNumber" : "0x01",
            "currentTimestamp" : "0x03e8",
            "previousHash" : "0x5e20a0453cecd065ea59c37ac63e079ee08998b6045136a8ce6635c7912ec0b6"
        },
        "post" : {
            "Berlin" : [
                {
                    "hash" : "0xf8c999f4bf861a062dfa246e937c4967684092fe9f786630bbbea8e9d087cc0b",
                    "indexes" : {
                        "data" : 0,
                        "gas" : 0,
                        "value" : 0
                    },
                    "logs" : "0x1dcc4de8dec75d7aab85b567b6ccd41ad312451b948a7413f0a142fd40d49347",
                    "txbytes" : "0xf864800a830493e094095e7baea6a6c7c4c2dfeb977efac326af552d870184c04062261ba02d995d64dce670c6419d7c5f1fadeaf15b25f94b2d4e92ac1e88f5a2b2db20b9a06f6b66be48bea28bcc2d0aedd9c865b854e6c0171c1c77c468df76f2c274228e"
                }
            ],
            "Istanbul" : [
                {
                    "hash" : "0x6e20f2c282b2f553411056dbdbe526cbec860bedcd003a8a70abc8a521057f36",
                    "indexes" : {
                        "data" : 0,
                        "gas" : 0,
                        "value" : 0
                    },
                    "logs" : "0x1dcc4de8dec75d7aab85b567b6ccd41ad312451b948a7413f0a142fd40d49347",
                    "txbytes" : "0xf864800a830493e094095e7baea6a6c7c4c2dfeb977efac326af552d870184c04062261ba02d995d64dce670c6419d7c5f1fadeaf15b25f94b2d4e92ac1e88f5a2b2db20b9a06f6b66be48bea28bcc2d0aedd9c865b854e6c0171c1c77c468df76f2c274228e"
                }
            ],
            "London" : [
                {
                    "hash" : "0x2a029c13a11b6ffc999c32477cd401f7ef575ac7909748e6b1b9bc537010dba5",
                    "indexes" : {
                        "data" : 0,
                        "gas" : 0,
                        "value" : 0
                    },
                    "logs" : "0x1dcc4de8dec75d7aab85b567b6ccd41ad312451b948a7413f0a142fd40d49347",
                    "txbytes" : "0xf864800a830493e094095e7baea6a6c7c4c2dfeb977efac326af552d870184c04062261ba02d995d64dce670c6419d7c5f1fadeaf15b25f94b2d4e92ac1e88f5a2b2db20b9a06f6b66be48bea28bcc2d0aedd9c865b854e6c0171c1c77c468df76f2c274228e"
                }
            ]
        },
        "pre" : {
            "0x095e7baea6a6c7c4c2dfeb977efac326af552d87" : {
                "balance" : "0x0186a0",
                "code" : "0x60003560e060020a90048063c040622614601557005b601b6021565b60006000f35b61014f60008190555056",
                "nonce" : "0x00",
                "storage" : {
                }
            },
            "0xa94f5374fce5edbc8e2a8697c15331677e6ebf0b" : {
                "balance" : "0x012a05f200",
                "code" : "0x",
                "nonce" : "0x00",
                "storage" : {
                }
            }
        },
        "transaction" : {
            "data" : [
                "0xc0406226"
            ],
            "gasLimit" : [
                "0x0493e0"
            ],
            "gasPrice" : "0x0a",
            "nonce" : "0x00",
            "secretKey" : "0x45a915e4d060149eb4365960e6a7a45f334393093061116b197e3240065ff2d8",
            "to" : "0x095e7baea6a6c7c4c2dfeb977efac326af552d87",
            "value" : [
                "0x01"
            ]
        }
    }
}