{
    "CallInfiniteLoop" : {
        "_info" : {
            "comment" : "",
            "filling-rpc-server" : "evm version 1.13.13-unstable-034bc466-20240219",
            "filling-tool-version" : "retesteth-0.3.2-cancun+commit.014a68a5.Linux.g++",
            "generatedTestHash" : "1da84609023d77c5201f418c2722efc4914eae303946d94b285b54dbbca33d38",
            "lllcversion" : "Version: 0.5.14-develop.2023.7.11+commit.c58ab2c6.mod.Linux.g++",
            "solidity" : "Version: 0.8.21+commit.d9974bed.Linux.g++",
            "source" : "src/GeneralStateTestsFiller/stSolidityTest/CallInfiniteLoopFiller.json",
            "sourceHash" : "1000a0ba0078c28f1b15b31dd8cdb55a7d32be40021e3498fe2c0720b02c549e"
        },
        "env" : {
            "currentBaseFee" : "0x0a",
            "currentCoinbase" : "0x2adc25665018aa1fe0e6bc666dac8fc2697ff9ba",
            "currentDifficulty" : "0x020000",
            "currentExcessBlobGas" : "0x00",
            "currentGasLimit" : "0x05f5e100",
            "currentNumber" : "0x01",
            "currentRandom" : "0x0000000000000000000000000000000000000000000000000000000000020000",
            "currentTimestamp" : "0x03e8"
        },
        "post" : {
            "Berlin" : [
                {
                    "hash" : "0xe4e1c1553ad52d9e559c512cef137f55bed5f6cc767da8d1078de631e3de2fcc",
                    "indexes" : {
                        "data" : 0,
                        "gas" : 0,
                        "value" : 0
                    },
                    "logs" : "0x1dcc4de8dec75d7aab85b567b6ccd41ad312451b948a7413f0a142fd40d49347",
                    "txbytes" : "0xf864800a830493e094095e7baea6a6c7c4c2dfeb977efac326af552d870184296df0df1ca00ae4c5aa73623ecda38aa417c22eeb1756554eb371c25c4c30919e09944b7cc5a03e10d11a3a2624a8b73c66d0d104570bee750d0b2aaec0cce8c4f29f462349cc"
                }
            ],
            "Cancun" : [
                {
                    "hash" : "0x148f7df9aee9fa139d5cb874e840cc2dcbde815a1d069d823efa32f868a0d5da",
                    "indexes" : {
                        "data" : 0,
                        "gas" : 0,
                        "value" : 0
                    },
                    "logs" : "0x1dcc4de8dec75d7aab85b567b6ccd41ad312451b948a7413f0a142fd40d49347",
                    "txbytes" : "0xf864800a830493e094095e7baea6a6c7c4c2dfeb977efac326af552d870184296df0df1ca00ae4c5aa73623ecda38aa417c22eeb1756554eb371c25c4c30919e09944b7cc5a03e10d11a3a2624a8b73c66d0d104570bee750d0b2aaec0cce8c4f29f462349cc"
                }
            ],
            "Istanbul" : [
                {
                    "hash" : "0xe4e1c1553ad52d9e559c512cef137f55bed5f6cc767da8d1078de631e3de2fcc",
                    "indexes" : {
                        "data" : 0,
                        "gas" : 0,
                        "value" : 0
                    },
                    "logs" : "0x1dcc4de8dec75d7aab85b567b6ccd41ad312451b948a7413f0a142fd40d49347",
                    "txbytes" : "0xf864800a830493e094095e7baea6a6c7c4c2dfeb977efac326af552d870184296df0df1ca00ae4c5aa73623ecda38aa417c22eeb1756554eb371c25c4c30919e09944b7cc5a03e10d11a3a2624a8b73c66d0d104570bee750d0b2aaec0cce8c4f29f462349cc"
                }
            ],
            "London" : [
                {
                    "hash" : "0x16760dfcf0691a4a5eb5fdfc7858ec2a933eb5993053a26806dfea01da56862d",
                    "indexes" : {
                        "data" : 0,
                        "gas" : 0,
                        "value" : 0
                    },
                    "logs" : "0x1dcc4de8dec75d7aab85b567b6ccd41ad312451b948a7413f0a142fd40d49347",
                    "txbytes" : "0xf864800a830493e094095e7baea6a6c7c4c2dfeb977efac326af552d870184296df0df1ca00ae4c5aa73623ecda38aa417c22eeb1756554eb371c25c4c30919e09944b7cc5a03e10d11a3a2624a8b73c66d0d104570bee750d0b2aaec0cce8c4f29f462349cc"
                }
            ],
            "Paris" : [
                {
                    "hash" : "0x16760dfcf0691a4a5eb5fdfc7858ec2a933eb5993053a26806dfea01da56862d",
                    "indexes" : {
                        "data" : 0,
                        "gas" : 0,
                        "value" : 0
                    },
                    "logs" : "0x1dcc4de8dec75d7aab85b567b6ccd41ad312451b948a7413f0a142fd40d49347",
                    "txbytes" : "0xf864800a830493e094095e7baea6a6c7c4c2dfeb977efac326af552d870184296df0df1ca00ae4c5aa73623ecda38aa417c22eeb1756554eb371c25c4c30919e09944b7cc5a03e10d11a3a2624a8b73c66d0d104570bee750d0b2aaec0cce8c4f29f462349cc"
                }
            ],
            "Shanghai" : [
                {
                    "hash" : "0x16760dfcf0691a4a5eb5fdfc7858ec2a933eb5993053a26806dfea01da56862d",
                    "indexes" : {
                        "data" : 0,
                        "gas" : 0,
                        "value" : 0
                    },
                    "logs" : "0x1dcc4de8dec75d7aab85b567b6ccd41ad312451b948a7413f0a142fd40d49347",
                    "txbytes" : "0xf864800a830493e094095e7baea6a6c7c4c2dfeb977efac326af552d870184296df0df1ca00ae4c5aa73623ecda38aa417c22eeb1756554eb371c25c4c30919e09944b7cc5a03e10d11a3a2624a8b73c66d0d104570bee750d0b2aaec0cce8c4f29f462349cc"
                }
            ]
        },
        "pre" : {
            "0x000f3df6d732807ef1319fb7b8bb8522d0beac02" : {
                "balance" : "0x00",
                "code" : "0x3373fffffffffffffffffffffffffffffffffffffffe14604d57602036146024575f5ffd5b5f35801560495762001fff810690815414603c575f5ffd5b62001fff01545f5260205ff35b5f5ffd5b62001fff42064281555f359062001fff015500",
                "nonce" : "0x01",
                "storage" : {
                }
            },
            "0x095e7baea6a6c7c4c2dfeb977efac326af552d87" : {
                "balance" : "0x0186a0",
                "code" : "0x60003560e060020a90048063296df0df1460295780634893d88a146035578063981a316514604157005b602f604d565b60006000f35b603b6062565b60006000f35b6047605a565b60006000f35b5b600115605857604e565b565b60606062565b565b6068605a565b56",
                "nonce" : "0x00",
                "storage" : {
                }
            },
            "0x2adc25665018aa1fe0e6bc666dac8fc2697ff9ba" : {
                "balance" : "0x00",
                "code" : "0x",
                "nonce" : "0x01",
                "storage" : {
                }
            },
            "0xa94f5374fce5edbc8e2a8697c15331677e6ebf0b" : {
                "balance" : "0x1dcd6500",
                "code" : "0x",
                "nonce" : "0x00",
                "storage" : {
                }
            }
        },
        "transaction" : {
            "data" : [
                "0x296df0df"
            ],
            "gasLimit" : [
                "0x0493e0"
            ],
            "gasPrice" : "0x0a",
            "nonce" : "0x00",
            "secretKey" : "0x45a915e4d060149eb4365960e6a7a45f334393093061116b197e3240065ff2d8",
            "sender" : "0xa94f5374fce5edbc8e2a8697c15331677e6ebf0b",
            "to" : "0x095e7baea6a6c7c4c2dfeb977efac326af552d87",
            "value" : [
                "0x01"
            ]
        }
    }
}