{
    "LoopCallsThenRevert" : {
        "_info" : {
            "comment" : "",
            "filling-rpc-server" : "evm version 1.13.11-unstable-765f2904-20240124",
            "filling-tool-version" : "retesteth-0.3.2-cancun+commit.ea13235b.Linux.g++",
            "generatedTestHash" : "95e649cee21d1eb1abda04c19da8a4f7505c6d43cc6c325961cd03c23d85530c",
            "lllcversion" : "Version: 0.5.14-develop.2023.7.11+commit.c58ab2c6.mod.Linux.g++",
            "solidity" : "Version: 0.8.21+commit.d9974bed.Linux.g++",
            "source" : "src/GeneralStateTestsFiller/stRevertTest/LoopCallsThenRevertFiller.json",
            "sourceHash" : "75b070585f7a253403110fdc8ecc320df861300bdc0054dd47f33c43206a91d2"
        },
        "env" : {
            "currentBaseFee" : "0x0a",
            "currentCoinbase" : "0x2adc25665018aa1fe0e6bc666dac8fc2697ff9ba",
            "currentDifficulty" : "0x020000",
            "currentExcessBlobGas" : "0x00",
            "currentGasLimit" : "0x05f5e100",
            "currentNumber" : "0x01",
            "currentRandom" : "0x0000000000000000000000000000000000000000000000000000000000020000",
            "currentTimestamp" : "0x03e8"
        },
        "post" : {
            "Berlin" : [
                {
                    "hash" : "0x695e21f360b46873b2a2eead8a5798ee75680fa204fe89a05fcf82d23c36b9b6",
                    "indexes" : {
                        "data" : 0,
                        "gas" : 0,
                        "value" : 0
                    },
                    "logs" : "0x1dcc4de8dec75d7aab85b567b6ccd41ad312451b948a7413f0a142fd40d49347",
                    "txbytes" : "0xf860800a8398968094a00000000000000000000000000000000000000080801ba09831d7fb6b4c2c490926339b29f3881c01cb648fd6502215285982b9d168d409a03dbddf81248fe3da3c77147201223b57e3aa5a066f3fa1bf34e8b30a5e557a8e"
                }
            ],
            "Cancun" : [
                {
                    "hash" : "0xfe597b166533d0c1864033c7a9bf2eb029100a65f8bc150c3b1802f22bbaa2b8",
                    "indexes" : {
                        "data" : 0,
                        "gas" : 0,
                        "value" : 0
                    },
                    "logs" : "0x1dcc4de8dec75d7aab85b567b6ccd41ad312451b948a7413f0a142fd40d49347",
                    "txbytes" : "0xf860800a8398968094a00000000000000000000000000000000000000080801ba09831d7fb6b4c2c490926339b29f3881c01cb648fd6502215285982b9d168d409a03dbddf81248fe3da3c77147201223b57e3aa5a066f3fa1bf34e8b30a5e557a8e"
                }
            ],
            "Istanbul" : [
                {
                    "hash" : "0xb631d87565e4f39266517785b1d28553a1ff84279ab3603a0b89f148b55a2b35",
                    "indexes" : {
                        "data" : 0,
                        "gas" : 0,
                        "value" : 0
                    },
                    "logs" : "0x1dcc4de8dec75d7aab85b567b6ccd41ad312451b948a7413f0a142fd40d49347",
                    "txbytes" : "0xf860800a8398968094a00000000000000000000000000000000000000080801ba09831d7fb6b4c2c490926339b29f3881c01cb648fd6502215285982b9d168d409a03dbddf81248fe3da3c77147201223b57e3aa5a066f3fa1bf34e8b30a5e557a8e"
                }
            ],
            "London" : [
                {
                    "hash" : "0xfe597b166533d0c1864033c7a9bf2eb029100a65f8bc150c3b1802f22bbaa2b8",
                    "indexes" : {
                        "data" : 0,
                        "gas" : 0,
                        "value" : 0
                    },
                    "logs" : "0x1dcc4de8dec75d7aab85b567b6ccd41ad312451b948a7413f0a142fd40d49347",
                    "txbytes" : "0xf860800a8398968094a00000000000000000000000000000000000000080801ba09831d7fb6b4c2c490926339b29f3881c01cb648fd6502215285982b9d168d409a03dbddf81248fe3da3c77147201223b57e3aa5a066f3fa1bf34e8b30a5e557a8e"
                }
            ],
            "Paris" : [
                {
                    "hash" : "0xfe597b166533d0c1864033c7a9bf2eb029100a65f8bc150c3b1802f22bbaa2b8",
                    "indexes" : {
                        "data" : 0,
                        "gas" : 0,
                        "value" : 0
                    },
                    "logs" : "0x1dcc4de8dec75d7aab85b567b6ccd41ad312451b948a7413f0a142fd40d49347",
                    "txbytes" : "0xf860800a8398968094a00000000000000000000000000000000000000080801ba09831d7fb6b4c2c490926339b29f3881c01cb648fd6502215285982b9d168d409a03dbddf81248fe3da3c77147201223b57e3aa5a066f3fa1bf34e8b30a5e557a8e"
                }
            ],
            "Shanghai" : [
                {
                    "hash" : "0xfe597b166533d0c1864033c7a9bf2eb029100a65f8bc150c3b1802f22bbaa2b8",
                    "indexes" : {
                        "data" : 0,
                        "gas" : 0,
                        "value" : 0
                    },
                    "logs" : "0x1dcc4de8dec75d7aab85b567b6ccd41ad312451b948a7413f0a142fd40d49347",
                    "txbytes" : "0xf860800a8398968094a00000000000000000000000000000000000000080801ba09831d7fb6b4c2c490926339b29f3881c01cb648fd6502215285982b9d168d409a03dbddf81248fe3da3c77147201223b57e3aa5a066f3fa1bf34e8b30a5e557a8e"
                }
            ]
        },
        "pre" : {
            "0xa000000000000000000000000000000000000000" : {
                "balance" : "0x00",
                "code" : "0x5b6001600054036000556000600060006000600073b00000000000000000000000000000000000000061c350f150600054600057",
                "nonce" : "0x00",
                "storage" : {
                    "0x00" : "0x0352"
                }
            },
            "0xa94f5374fce5edbc8e2a8697c15331677e6ebf0b" : {
                "balance" : "0xe8d4a51000",
                "code" : "0x",
                "nonce" : "0x00",
                "storage" : {
                }
            },
            "0xb000000000000000000000000000000000000000" : {
                "balance" : "0x00",
                "code" : "0x60005460010160005500",
                "nonce" : "0x00",
                "storage" : {
                }
            }
        },
        "transaction" : {
            "data" : [
                "0x"
            ],
            "gasLimit" : [
                "0x989680"
            ],
            "gasPrice" : "0x0a",
            "nonce" : "0x00",
            "secretKey" : "0x45a915e4d060149eb4365960e6a7a45f334393093061116b197e3240065ff2d8",
            "sender" : "0xa94f5374fce5edbc8e2a8697c15331677e6ebf0b",
            "to" : "0xa000000000000000000000000000000000000000",
            "value" : [
                "0x00"
            ]
        }
    }
}