{
    "RevertOpcodeInCallsOnNonEmptyReturnData" : {
        "_info" : {
            "comment" : "This test checks that the returndata buffer is changed when a subcall REVERTs.  In each test case, a non-empty returndata buffer is set up, and then calls into a contract that REVERTs.",
            "filling-rpc-server" : "evm version 1.10.2-unstable-22082f9e-20210309",
            "filling-tool-version" : "retesteth-0.1.0-accesslist+commit.47c69eb3.Linux.g++",
            "lllcversion" : "Version: 0.5.14-develop.2020.6.22+commit.9189ad7a.Linux.g++",
            "source" : "src/GeneralStateTestsFiller/stRevertTest/RevertOpcodeInCallsOnNonEmptyReturnDataFiller.json",
            "sourceHash" : "41caccd804fd1f890f1f5e57ec37c8ec99dfeb52af4b99108a7933ee9d7fb789"
        },
        "env" : {
            "currentCoinbase" : "0x2adc25665018aa1fe0e6bc666dac8fc2697ff9ba",
            "currentDifficulty" : "0x020000",
            "currentGasLimit" : "0x989680",
            "currentNumber" : "0x01",
            "currentTimestamp" : "0x03e8",
            "previousHash" : "0x5e20a0453cecd065ea59c37ac63e079ee08998b6045136a8ce6635c7912ec0b6"
        },
        "post" : {
            "Berlin" : [
                {
                    "indexes" : {
                        "data" : 0,
                        "gas" : 0,
                        "value" : 0
                    },
                    "hash" : "0xb7fd13d48b095de9006a1d2f1f4968930c237a2e5134c5632dcecd1a95de8862",
                    "txbytes" : "0xf8808001830d1f6094094f5374fce5edbc8e2a8697c15331677e6ebf0b80a0000000000000000000000000b0005374fce5edbc8e2a8697c15331677e6ebf0b1ba0eef973b7a8e2947365647e309141da0749d73b7177cb9249f7f0060fd89c0c64a04c56a54209b70e2fd1edb217e1645c9017c132ffe42fc69de844e0b33d9c3772",
                    "logs" : "0x1dcc4de8dec75d7aab85b567b6ccd41ad312451b948a7413f0a142fd40d49347"
                },
                {
                    "indexes" : {
                        "data" : 0,
                        "gas" : 1,
                        "value" : 0
                    },
                    "hash" : "0x4fd6a66d1bd26c5413b5cd90dde450db2c3630e58bcb1b403c8f10591910f481",
                    "txbytes" : "0xf87f8001826d6094094f5374fce5edbc8e2a8697c15331677e6ebf0b80a0000000000000000000000000b0005374fce5edbc8e2a8697c15331677e6ebf0b1ba034b3de6dacfba6bb7d2a1ebe4e32efe68ff729417dcab5a4c56832127aa9dc21a03df05a868171c218b895a45d3ae83de5060bb20103c12c3b1404db0501a0bc78",
                    "logs" : "0x1dcc4de8dec75d7aab85b567b6ccd41ad312451b948a7413f0a142fd40d49347"
                },
                {
                    "indexes" : {
                        "data" : 1,
                        "gas" : 0,
                        "value" : 0
                    },
                    "hash" : "0x2e727b81dd65611e5296713003898bfcc3a8934b5f3a45ec6fd4f1a7eb43ab0d",
                    "txbytes" : "0xf8808001830d1f6094094f5374fce5edbc8e2a8697c15331677e6ebf0b80a0000000000000000000000000b1005374fce5edbc8e2a8697c15331677e6ebf0b1ca0cb3e99361365a7d3aeaca85ac0c4217c1292f9cf617a5ad4c7e38bba87d962bda028b273c4be9e34b618aef159a1e1cdc77f534beeeb0acb9d1fba07c4d94db7b4",
                    "logs" : "0x1dcc4de8dec75d7aab85b567b6ccd41ad312451b948a7413f0a142fd40d49347"
                },
                {
                    "indexes" : {
                        "data" : 1,
                        "gas" : 1,
                        "value" : 0
                    },
                    "hash" : "0x4fd6a66d1bd26c5413b5cd90dde450db2c3630e58bcb1b403c8f10591910f481",
                    "txbytes" : "0xf87f8001826d6094094f5374fce5edbc8e2a8697c15331677e6ebf0b80a0000000000000000000000000b1005374fce5edbc8e2a8697c15331677e6ebf0b1ba0fd8e0d90b94a29cd17dde32abb8631964884bd21d7d8bb7b05f58df2f7743718a05ff2cc1069f165213c6115cd632a5fdea06713b49a600b0e45948fd72148e900",
                    "logs" : "0x1dcc4de8dec75d7aab85b567b6ccd41ad312451b948a7413f0a142fd40d49347"
                },
                {
                    "indexes" : {
                        "data" : 2,
                        "gas" : 0,
                        "value" : 0
                    },
                    "hash" : "0xcbe4a6fb9390520bb1647a6fe0c160513cb598a5f118ca3a9840831f4561248b",
                    "txbytes" : "0xf8808001830d1f6094094f5374fce5edbc8e2a8697c15331677e6ebf0b80a0000000000000000000000000b2005374fce5edbc8e2a8697c15331677e6ebf0b1ca03bff1bf07d7ca0b18be2446b2651a3e749e77b9684f0c5135217a05ad6bf1dcfa02a45645c7701e352bbef0e4915ba8683e09c82f6d89701c0643c01053c4b2d29",
                    "logs" : "0x1dcc4de8dec75d7aab85b567b6ccd41ad312451b948a7413f0a142fd40d49347"
                },
                {
                    "indexes" : {
                        "data" : 2,
                        "gas" : 1,
                        "value" : 0
                    },
                    "hash" : "0x4fd6a66d1bd26c5413b5cd90dde450db2c3630e58bcb1b403c8f10591910f481",
                    "txbytes" : "0xf87f8001826d6094094f5374fce5edbc8e2a8697c15331677e6ebf0b80a0000000000000000000000000b2005374fce5edbc8e2a8697c15331677e6ebf0b1ba0923d861460f3f61f2eb07c3e2f632ffcb194a2a4dcaa3b539578db1d127b6e3da0123dfb5d5e89bc7120fa3e0cd0eccfbc3f70cfaba626d1af55ce0d5586cd0006",
                    "logs" : "0x1dcc4de8dec75d7aab85b567b6ccd41ad312451b948a7413f0a142fd40d49347"
                },
                {
                    "indexes" : {
                        "data" : 3,
                        "gas" : 0,
                        "value" : 0
                    },
                    "hash" : "0x30ffcb1cf5f810308ac5b6a0f6e3d4923a75933eccd98759e8a6bcfc1f7351fd",
                    "txbytes" : "0xf8808001830d1f6094094f5374fce5edbc8e2a8697c15331677e6ebf0b80a0000000000000000000000000b3005374fce5edbc8e2a8697c15331677e6ebf0b1ba00fcf3f699957ee30ec948cbe714526cbacd3c420e29f430830504484765a27aba020be7de3d0d0ff9e2c816230ae47612923df1b3075186f15df69c031b4c00920",
                    "logs" : "0x1dcc4de8dec75d7aab85b567b6ccd41ad312451b948a7413f0a142fd40d49347"
                },
                {
                    "indexes" : {
                        "data" : 3,
                        "gas" : 1,
                        "value" : 0
                    },
                    "hash" : "0x4fd6a66d1bd26c5413b5cd90dde450db2c3630e58bcb1b403c8f10591910f481",
                    "txbytes" : "0xf87f8001826d6094094f5374fce5edbc8e2a8697c15331677e6ebf0b80a0000000000000000000000000b3005374fce5edbc8e2a8697c15331677e6ebf0b1ba002b81fefb89ff0a6f23a5e2e8474d793dbbfc8ed4001a9c0957a16d0a90fae13a0371b34eaa6a945a8368861a953443b373e3241038c89a831e29b19137c8221a7",
                    "logs" : "0x1dcc4de8dec75d7aab85b567b6ccd41ad312451b948a7413f0a142fd40d49347"
                }
            ],
            "Istanbul" : [
                {
                    "indexes" : {
                        "data" : 0,
                        "gas" : 0,
                        "value" : 0
                    },
                    "hash" : "0x95fa3002d538f98a3f993a0078a07827fbe40c149c9a72a3be38315dcae0ab7b",
                    "txbytes" : "0xf8808001830d1f6094094f5374fce5edbc8e2a8697c15331677e6ebf0b80a0000000000000000000000000b0005374fce5edbc8e2a8697c15331677e6ebf0b1ba0eef973b7a8e2947365647e309141da0749d73b7177cb9249f7f0060fd89c0c64a04c56a54209b70e2fd1edb217e1645c9017c132ffe42fc69de844e0b33d9c3772",
                    "logs" : "0x1dcc4de8dec75d7aab85b567b6ccd41ad312451b948a7413f0a142fd40d49347"
                },
                {
                    "indexes" : {
                        "data" : 0,
                        "gas" : 1,
                        "value" : 0
                    },
                    "hash" : "0x4fd6a66d1bd26c5413b5cd90dde450db2c3630e58bcb1b403c8f10591910f481",
                    "txbytes" : "0xf87f8001826d6094094f5374fce5edbc8e2a8697c15331677e6ebf0b80a0000000000000000000000000b0005374fce5edbc8e2a8697c15331677e6ebf0b1ba034b3de6dacfba6bb7d2a1ebe4e32efe68ff729417dcab5a4c56832127aa9dc21a03df05a868171c218b895a45d3ae83de5060bb20103c12c3b1404db0501a0bc78",
                    "logs" : "0x1dcc4de8dec75d7aab85b567b6ccd41ad312451b948a7413f0a142fd40d49347"
                },
                {
                    "indexes" : {
                        "data" : 1,
                        "gas" : 0,
                        "value" : 0
                    },
                    "hash" : "0x2ec21c293a6ebfe66db50d28ce156afbb4f974dbfedb48c025796a5901f5a178",
                    "txbytes" : "0xf8808001830d1f6094094f5374fce5edbc8e2a8697c15331677e6ebf0b80a0000000000000000000000000b1005374fce5edbc8e2a8697c15331677e6ebf0b1ca0cb3e99361365a7d3aeaca85ac0c4217c1292f9cf617a5ad4c7e38bba87d962bda028b273c4be9e34b618aef159a1e1cdc77f534beeeb0acb9d1fba07c4d94db7b4",
                    "logs" : "0x1dcc4de8dec75d7aab85b567b6ccd41ad312451b948a7413f0a142fd40d49347"
                },
                {
                    "indexes" : {
                        "data" : 1,
                        "gas" : 1,
                        "value" : 0
                    },
                    "hash" : "0x4fd6a66d1bd26c5413b5cd90dde450db2c3630e58bcb1b403c8f10591910f481",
                    "txbytes" : "0xf87f8001826d6094094f5374fce5edbc8e2a8697c15331677e6ebf0b80a0000000000000000000000000b1005374fce5edbc8e2a8697c15331677e6ebf0b1ba0fd8e0d90b94a29cd17dde32abb8631964884bd21d7d8bb7b05f58df2f7743718a05ff2cc1069f165213c6115cd632a5fdea06713b49a600b0e45948fd72148e900",
                    "logs" : "0x1dcc4de8dec75d7aab85b567b6ccd41ad312451b948a7413f0a142fd40d49347"
                },
                {
                    "indexes" : {
                        "data" : 2,
                        "gas" : 0,
                        "value" : 0
                    },
                    "hash" : "0x384544fcf2f2233f32c02f1b8ddd3b33ac78ef8a43a079591d8b04347ec9eb72",
                    "txbytes" : "0xf8808001830d1f6094094f5374fce5edbc8e2a8697c15331677e6ebf0b80a0000000000000000000000000b2005374fce5edbc8e2a8697c15331677e6ebf0b1ca03bff1bf07d7ca0b18be2446b2651a3e749e77b9684f0c5135217a05ad6bf1dcfa02a45645c7701e352bbef0e4915ba8683e09c82f6d89701c0643c01053c4b2d29",
                    "logs" : "0x1dcc4de8dec75d7aab85b567b6ccd41ad312451b948a7413f0a142fd40d49347"
                },
                {
                    "indexes" : {
                        "data" : 2,
                        "gas" : 1,
                        "value" : 0
                    },
                    "hash" : "0x4fd6a66d1bd26c5413b5cd90dde450db2c3630e58bcb1b403c8f10591910f481",
                    "txbytes" : "0xf87f8001826d6094094f5374fce5edbc8e2a8697c15331677e6ebf0b80a0000000000000000000000000b2005374fce5edbc8e2a8697c15331677e6ebf0b1ba0923d861460f3f61f2eb07c3e2f632ffcb194a2a4dcaa3b539578db1d127b6e3da0123dfb5d5e89bc7120fa3e0cd0eccfbc3f70cfaba626d1af55ce0d5586cd0006",
                    "logs" : "0x1dcc4de8dec75d7aab85b567b6ccd41ad312451b948a7413f0a142fd40d49347"
                },
                {
                    "indexes" : {
                        "data" : 3,
                        "gas" : 0,
                        "value" : 0
                    },
                    "hash" : "0x5edf7773f7b1275686a48162884a6d160491e3393d92317484f677c0c249cf01",
                    "txbytes" : "0xf8808001830d1f6094094f5374fce5edbc8e2a8697c15331677e6ebf0b80a0000000000000000000000000b3005374fce5edbc8e2a8697c15331677e6ebf0b1ba00fcf3f699957ee30ec948cbe714526cbacd3c420e29f430830504484765a27aba020be7de3d0d0ff9e2c816230ae47612923df1b3075186f15df69c031b4c00920",
                    "logs" : "0x1dcc4de8dec75d7aab85b567b6ccd41ad312451b948a7413f0a142fd40d49347"
                },
                {
                    "indexes" : {
                        "data" : 3,
                        "gas" : 1,
                        "value" : 0
                    },
                    "hash" : "0x4fd6a66d1bd26c5413b5cd90dde450db2c3630e58bcb1b403c8f10591910f481",
                    "txbytes" : "0xf87f8001826d6094094f5374fce5edbc8e2a8697c15331677e6ebf0b80a0000000000000000000000000b3005374fce5edbc8e2a8697c15331677e6ebf0b1ba002b81fefb89ff0a6f23a5e2e8474d793dbbfc8ed4001a9c0957a16d0a90fae13a0371b34eaa6a945a8368861a953443b373e3241038c89a831e29b19137c8221a7",
                    "logs" : "0x1dcc4de8dec75d7aab85b567b6ccd41ad312451b948a7413f0a142fd40d49347"
                }
            ]
        },
        "pre" : {
            "0x094f5374fce5edbc8e2a8697c15331677e6ebf0b" : {
                "balance" : "0x01",
                "code" : "0x6000600060006000600073ffff5374fce5edbc8e2a8697c15331677e6ebf0b6000f150600060006000600060006000356203f7a0f1600a5500",
                "nonce" : "0x00",
                "storage" : {
                    "0x0a" : "0xff"
                }
            },
            "0xa94f5374fce5edbc8e2a8697c15331677e6ebf0b" : {
                "balance" : "0xe8d4a51000",
                "code" : "0x",
                "nonce" : "0x00",
                "storage" : {
                }
            },
            "0xb0005374fce5edbc8e2a8697c15331677e6ebf0b" : {
                "balance" : "0x01",
                "code" : "0x6000600060006000600073ffff5374fce5edbc8e2a8697c15331677e6ebf0b6000f1506000600060006000600073c94f5374fce5edbc8e2a8697c15331677e6ebf0b61c350f16000553d60025500",
                "nonce" : "0x00",
                "storage" : {
                }
            },
            "0xb1005374fce5edbc8e2a8697c15331677e6ebf0b" : {
                "balance" : "0x01",
                "code" : "0x6000600060006000600073ffff5374fce5edbc8e2a8697c15331677e6ebf0b6000f1506000600060006000600073c94f5374fce5edbc8e2a8697c15331677e6ebf0b61c350f26000553d60025500",
                "nonce" : "0x00",
                "storage" : {
                }
            },
            "0xb2005374fce5edbc8e2a8697c15331677e6ebf0b" : {
                "balance" : "0x01",
                "code" : "0x6000600060006000600073ffff5374fce5edbc8e2a8697c15331677e6ebf0b6000f150600060006000600073c94f5374fce5edbc8e2a8697c15331677e6ebf0b61c350f46000553d60025500",
                "nonce" : "0x00",
                "storage" : {
                }
            },
            "0xb3005374fce5edbc8e2a8697c15331677e6ebf0b" : {
                "balance" : "0x01",
                "code" : "0x6000600060006000600073ffff5374fce5edbc8e2a8697c15331677e6ebf0b6000f1506000600060006000600073b3305374fce5edbc8e2a8697c15331677e6ebf0b620186a0f16000553d60025500",
                "nonce" : "0x00",
                "storage" : {
                }
            },
            "0xb3305374fce5edbc8e2a8697c15331677e6ebf0b" : {
                "balance" : "0x01",
                "code" : "0x6000600060006000600073ffff5374fce5edbc8e2a8697c15331677e6ebf0b6000f1506000600060006000600073c94f5374fce5edbc8e2a8697c15331677e6ebf0b61c350f16004553d60055500",
                "nonce" : "0x00",
                "storage" : {
                }
            },
            "0xc94f5374fce5edbc8e2a8697c15331677e6ebf0b" : {
                "balance" : "0x01",
                "code" : "0x600c60015560016000fd600d60035500",
                "nonce" : "0x00",
                "storage" : {
                }
            },
            "0xffff5374fce5edbc8e2a8697c15331677e6ebf0b" : {
                "balance" : "0x01",
                "code" : "0x600c60015260406000f300",
                "nonce" : "0x00",
                "storage" : {
                }
            }
        },
        "transaction" : {
            "data" : [
                "0x000000000000000000000000b0005374fce5edbc8e2a8697c15331677e6ebf0b",
                "0x000000000000000000000000b1005374fce5edbc8e2a8697c15331677e6ebf0b",
                "0x000000000000000000000000b2005374fce5edbc8e2a8697c15331677e6ebf0b",
                "0x000000000000000000000000b3005374fce5edbc8e2a8697c15331677e6ebf0b"
            ],
            "gasLimit" : [
                "0x0d1f60",
                "0x6d60"
            ],
            "gasPrice" : "0x01",
            "nonce" : "0x00",
            "secretKey" : "0x45a915e4d060149eb4365960e6a7a45f334393093061116b197e3240065ff2d8",
            "to" : "0x094f5374fce5edbc8e2a8697c15331677e6ebf0b",
            "value" : [
                "0x00"
            ]
        }
    }
}