{
    "RevertPrecompiledTouch_noncestorage" : {
        "_info" : {
            "comment" : "",
            "filling-rpc-server" : "evm version 1.10.2-unstable-22082f9e-20210309",
            "filling-tool-version" : "retesteth-0.1.0-accesslist+commit.47c69eb3.Linux.g++",
            "lllcversion" : "Version: 0.5.14-develop.2020.6.22+commit.9189ad7a.Linux.g++",
            "source" : "src/GeneralStateTestsFiller/stRevertTest/RevertPrecompiledTouch_noncestorageFiller.json",
            "sourceHash" : "e0717e959df9aa58b3c5ec0efacb041a1dda043b76e93604e962f0744f08cb96"
        },
        "env" : {
            "currentCoinbase" : "0x68795c4aa09d6f4ed3e5deddf8c2ad3049a601da",
            "currentDifficulty" : "0x020000",
            "currentGasLimit" : "0x3d37ef",
            "currentNumber" : "0x01",
            "currentTimestamp" : "0x03e8",
            "previousHash" : "0x5e20a0453cecd065ea59c37ac63e079ee08998b6045136a8ce6635c7912ec0b6"
        },
        "post" : {
            "Berlin" : [
                {
                    "indexes" : {
                        "data" : 0,
                        "gas" : 0,
                        "value" : 0
                    },
                    "hash" : "0x212ff4e9d13c6706bb05b75ae83eb95a26b4b16e5247a43b4585bff4538ab793",
                    "txbytes" : "0xf8800101830186a094b94f5374fce5edbc8e2a8697c15331677e6ebf0b80a000000000000000000000000010000000000000000000000000000000000000001ba0d60117901047bb831ba78f9eb7f963b823f7de347d049667c5eb71977fc8db24a05a67e59ee4d6290dbc00fcb9b8ba2db2d9015041788b0f76a3a11a4c473c66b0",
                    "logs" : "0x1dcc4de8dec75d7aab85b567b6ccd41ad312451b948a7413f0a142fd40d49347"
                },
                {
                    "indexes" : {
                        "data" : 1,
                        "gas" : 0,
                        "value" : 0
                    },
                    "hash" : "0x212ff4e9d13c6706bb05b75ae83eb95a26b4b16e5247a43b4585bff4538ab793",
                    "txbytes" : "0xf8800101830186a094b94f5374fce5edbc8e2a8697c15331677e6ebf0b80a000000000000000000000000020000000000000000000000000000000000000001ca045616d952344a80409aa67186c349f5dd85be3c18e2b58f529c8b3f5d830b5a5a01327226377f5d0cbae871365103262bca3fc2bfc0f1edea7a04eb8d8212e72a1",
                    "logs" : "0x1dcc4de8dec75d7aab85b567b6ccd41ad312451b948a7413f0a142fd40d49347"
                },
                {
                    "indexes" : {
                        "data" : 2,
                        "gas" : 0,
                        "value" : 0
                    },
                    "hash" : "0x212ff4e9d13c6706bb05b75ae83eb95a26b4b16e5247a43b4585bff4538ab793",
                    "txbytes" : "0xf8800101830186a094b94f5374fce5edbc8e2a8697c15331677e6ebf0b80a000000000000000000000000030000000000000000000000000000000000000001ca00d9c5787434e34ed289c6f20c7d1f7eaeb84b0747b3ae39177a3bb29175d8534a005943fc7eeeafbc93c96bb81956b51bbc58af69bcc7a5c1feb6d2c217a281fca",
                    "logs" : "0x1dcc4de8dec75d7aab85b567b6ccd41ad312451b948a7413f0a142fd40d49347"
                },
                {
                    "indexes" : {
                        "data" : 3,
                        "gas" : 0,
                        "value" : 0
                    },
                    "hash" : "0x212ff4e9d13c6706bb05b75ae83eb95a26b4b16e5247a43b4585bff4538ab793",
                    "txbytes" : "0xf8800101830186a094b94f5374fce5edbc8e2a8697c15331677e6ebf0b80a000000000000000000000000040000000000000000000000000000000000000001ca07100ba2118eea0e20b25e4f6ea7d73c09cbe91fed9eaf1f31df30dc2d45b007ea022f1a35d2ad3c880ce8101f3ebb0a7601612c185e834f0dc1997464fef75cd46",
                    "logs" : "0x1dcc4de8dec75d7aab85b567b6ccd41ad312451b948a7413f0a142fd40d49347"
                }
            ],
            "Istanbul" : [
                {
                    "indexes" : {
                        "data" : 0,
                        "gas" : 0,
                        "value" : 0
                    },
                    "hash" : "0xc38d195b2bed3762110c2ed971da8df619bc8fb58ecb25ed3edbcb388a998eb9",
                    "txbytes" : "0xf8800101830186a094b94f5374fce5edbc8e2a8697c15331677e6ebf0b80a000000000000000000000000010000000000000000000000000000000000000001ba0d60117901047bb831ba78f9eb7f963b823f7de347d049667c5eb71977fc8db24a05a67e59ee4d6290dbc00fcb9b8ba2db2d9015041788b0f76a3a11a4c473c66b0",
                    "logs" : "0x1dcc4de8dec75d7aab85b567b6ccd41ad312451b948a7413f0a142fd40d49347"
                },
                {
                    "indexes" : {
                        "data" : 1,
                        "gas" : 0,
                        "value" : 0
                    },
                    "hash" : "0xc38d195b2bed3762110c2ed971da8df619bc8fb58ecb25ed3edbcb388a998eb9",
                    "txbytes" : "0xf8800101830186a094b94f5374fce5edbc8e2a8697c15331677e6ebf0b80a000000000000000000000000020000000000000000000000000000000000000001ca045616d952344a80409aa67186c349f5dd85be3c18e2b58f529c8b3f5d830b5a5a01327226377f5d0cbae871365103262bca3fc2bfc0f1edea7a04eb8d8212e72a1",
                    "logs" : "0x1dcc4de8dec75d7aab85b567b6ccd41ad312451b948a7413f0a142fd40d49347"
                },
                {
                    "indexes" : {
                        "data" : 2,
                        "gas" : 0,
                        "value" : 0
                    },
                    "hash" : "0xc38d195b2bed3762110c2ed971da8df619bc8fb58ecb25ed3edbcb388a998eb9",
                    "txbytes" : "0xf8800101830186a094b94f5374fce5edbc8e2a8697c15331677e6ebf0b80a000000000000000000000000030000000000000000000000000000000000000001ca00d9c5787434e34ed289c6f20c7d1f7eaeb84b0747b3ae39177a3bb29175d8534a005943fc7eeeafbc93c96bb81956b51bbc58af69bcc7a5c1feb6d2c217a281fca",
                    "logs" : "0x1dcc4de8dec75d7aab85b567b6ccd41ad312451b948a7413f0a142fd40d49347"
                },
                {
                    "indexes" : {
                        "data" : 3,
                        "gas" : 0,
                        "value" : 0
                    },
                    "hash" : "0xc38d195b2bed3762110c2ed971da8df619bc8fb58ecb25ed3edbcb388a998eb9",
                    "txbytes" : "0xf8800101830186a094b94f5374fce5edbc8e2a8697c15331677e6ebf0b80a000000000000000000000000040000000000000000000000000000000000000001ca07100ba2118eea0e20b25e4f6ea7d73c09cbe91fed9eaf1f31df30dc2d45b007ea022f1a35d2ad3c880ce8101f3ebb0a7601612c185e834f0dc1997464fef75cd46",
                    "logs" : "0x1dcc4de8dec75d7aab85b567b6ccd41ad312451b948a7413f0a142fd40d49347"
                }
            ]
        },
        "pre" : {
            "0x0000000000000000000000000000000000000001" : {
                "balance" : "0x00",
                "code" : "0x",
                "nonce" : "0x01",
                "storage" : {
                    "0x00" : "0x01"
                }
            },
            "0x0000000000000000000000000000000000000002" : {
                "balance" : "0x00",
                "code" : "0x",
                "nonce" : "0x01",
                "storage" : {
                    "0x00" : "0x01"
                }
            },
            "0x0000000000000000000000000000000000000003" : {
                "balance" : "0x00",
                "code" : "0x",
                "nonce" : "0x01",
                "storage" : {
                    "0x00" : "0x01"
                }
            },
            "0x0000000000000000000000000000000000000004" : {
                "balance" : "0x00",
                "code" : "0x",
                "nonce" : "0x01",
                "storage" : {
                    "0x00" : "0x01"
                }
            },
            "0x0000000000000000000000000000000000000005" : {
                "balance" : "0x00",
                "code" : "0x",
                "nonce" : "0x01",
                "storage" : {
                    "0x00" : "0x01"
                }
            },
            "0x0000000000000000000000000000000000000006" : {
                "balance" : "0x00",
                "code" : "0x",
                "nonce" : "0x01",
                "storage" : {
                    "0x00" : "0x01"
                }
            },
            "0x0000000000000000000000000000000000000007" : {
                "balance" : "0x00",
                "code" : "0x",
                "nonce" : "0x01",
                "storage" : {
                    "0x00" : "0x01"
                }
            },
            "0x0000000000000000000000000000000000000008" : {
                "balance" : "0x00",
                "code" : "0x",
                "nonce" : "0x01",
                "storage" : {
                    "0x00" : "0x01"
                }
            },
            "0x1000000000000000000000000000000000000000" : {
                "balance" : "0x00",
                "code" : "0x60006000600060006000600161c350f15060006000600060006000600261c350f15060006000600060006000600361c350f15060006000600060006000600461c350f15060006000600060006000600561c350f15060006000600060006000600661c350f15060006000600060006000600761c350f15060006000600060006000600861c350f1505a6001555a6002555a60035500",
                "nonce" : "0x00",
                "storage" : {
                }
            },
            "0x2000000000000000000000000000000000000000" : {
                "balance" : "0x00",
                "code" : "0x6000600060006000600161c350f4506000600060006000600261c350f4506000600060006000600361c350f4506000600060006000600461c350f4506000600060006000600561c350f4506000600060006000600661c350f4506000600060006000600761c350f4506000600060006000600861c350f4505a6001555a6002555a60035500",
                "nonce" : "0x00",
                "storage" : {
                }
            },
            "0x3000000000000000000000000000000000000000" : {
                "balance" : "0x00",
                "code" : "0x60006000600060006000600161c350f25060006000600060006000600261c350f25060006000600060006000600361c350f25060006000600060006000600461c350f25060006000600060006000600561c350f25060006000600060006000600661c350f25060006000600060006000600761c350f25060006000600060006000600861c350f2505a6001555a6002555a60035500",
                "nonce" : "0x00",
                "storage" : {
                }
            },
            "0x4000000000000000000000000000000000000000" : {
                "balance" : "0x00",
                "code" : "0x6000600060006000600161c350fa506000600060006000600261c350fa506000600060006000600361c350fa506000600060006000600461c350fa506000600060006000600561c350fa506000600060006000600661c350fa506000600060006000600761c350fa506000600060006000600861c350fa505a6001555a6002555a60035500",
                "nonce" : "0x00",
                "storage" : {
                }
            },
            "0xa94f5374fce5edbc8e2a8697c15331677e6ebf0b" : {
                "balance" : "0x0de0b6b3a7640000",
                "code" : "0x",
                "nonce" : "0x01",
                "storage" : {
                }
            },
            "0xb94f5374fce5edbc8e2a8697c15331677e6ebf0b" : {
                "balance" : "0x00",
                "code" : "0x600060006000600060006000355af200",
                "nonce" : "0x00",
                "storage" : {
                }
            }
        },
        "transaction" : {
            "data" : [
                "0x0000000000000000000000001000000000000000000000000000000000000000",
                "0x0000000000000000000000002000000000000000000000000000000000000000",
                "0x0000000000000000000000003000000000000000000000000000000000000000",
                "0x0000000000000000000000004000000000000000000000000000000000000000"
            ],
            "gasLimit" : [
                "0x0186a0"
            ],
            "gasPrice" : "0x01",
            "nonce" : "0x01",
            "secretKey" : "0x45a915e4d060149eb4365960e6a7a45f334393093061116b197e3240065ff2d8",
            "to" : "0xb94f5374fce5edbc8e2a8697c15331677e6ebf0b",
            "value" : [
                "0x00"
            ]
        }
    }
}