{
    "RevertRemoteSubCallStorageOOG" : {
        "_info" : {
            "comment" : "contract A calls itself. In the sub-call, storage is modified, the calls returns successfully. After that, storage is modified again and then an exception occurs.  0xc0406226 == sha(run())",
            "filling-rpc-server" : "evm version 1.11.4-unstable-e14043db-20230308",
            "filling-tool-version" : "retesteth-0.3.0-shanghai+commit.fd2c0a83.Linux.g++",
            "generatedTestHash" : "6fe4032858ca64a38c43d19839e498fdb53c906c1f50d71fcecd62ddb042e67c",
            "lllcversion" : "Version: 0.5.14-develop.2022.7.30+commit.a096d7a9.Linux.g++",
            "solidity" : "Version: 0.8.17+commit.8df45f5f.Linux.g++",
            "source" : "src/GeneralStateTestsFiller/stRevertTest/RevertRemoteSubCallStorageOOGFiller.yml",
            "sourceHash" : "036c6d833a3f2e2774ba3a384e2db9b33cc4646c877a8304074f2fadb0547397"
        },
        "env" : {
            "currentBaseFee" : "0x0a",
            "currentCoinbase" : "0x2adc25665018aa1fe0e6bc666dac8fc2697ff9ba",
            "currentDifficulty" : "0x020000",
            "currentGasLimit" : "0x989680",
            "currentNumber" : "0x01",
            "currentRandom" : "0x0000000000000000000000000000000000000000000000000000000000020000",
            "currentTimestamp" : "0x03e8",
            "previousHash" : "0x5e20a0453cecd065ea59c37ac63e079ee08998b6045136a8ce6635c7912ec0b6"
        },
        "post" : {
            "Berlin" : [
                {
                    "hash" : "0x124e26302735ceb4f07a091451adaca2584db29761fb4111f91a031e797fcb8d",
                    "indexes" : {
                        "data" : 0,
                        "gas" : 0,
                        "value" : 0
                    },
                    "logs" : "0x1dcc4de8dec75d7aab85b567b6ccd41ad312451b948a7413f0a142fd40d49347",
                    "txbytes" : "0xf864800a83155cc094a0000000000000000000000000000000000000008084c04062261ba0e8762d27448f2915a02a7151cc5b30fb408f563dd028b9550fb533d9a45ed27ca00682b95824efb788cc3206dfc8f71e50dcc0ccdd957921e06cdc5af2bf0d96df"
                },
                {
                    "hash" : "0x5a231ff12ceeb9d50b5a5167bd8e5d1dddda727c3436653ff738e176159bcebe",
                    "indexes" : {
                        "data" : 1,
                        "gas" : 0,
                        "value" : 0
                    },
                    "logs" : "0x1dcc4de8dec75d7aab85b567b6ccd41ad312451b948a7413f0a142fd40d49347",
                    "txbytes" : "0xf864800a83155cc094a000000000000000000000000000000000000000808454d1405f1ba0cad346e8ea63ee405061910adfc9606b342f1e59b95763fa4b6868eba82912c3a05d589ffbd73ce9a733a21160954cbe924c25ae164a7ff9736cefc7f2cbf4682b"
                }
            ],
            "Istanbul" : [
                {
                    "hash" : "0x3bae05eee36d39c8a112a355f7084f5c3ff63baec776cd681230b6814105d935",
                    "indexes" : {
                        "data" : 0,
                        "gas" : 0,
                        "value" : 0
                    },
                    "logs" : "0x1dcc4de8dec75d7aab85b567b6ccd41ad312451b948a7413f0a142fd40d49347",
                    "txbytes" : "0xf864800a83155cc094a0000000000000000000000000000000000000008084c04062261ba0e8762d27448f2915a02a7151cc5b30fb408f563dd028b9550fb533d9a45ed27ca00682b95824efb788cc3206dfc8f71e50dcc0ccdd957921e06cdc5af2bf0d96df"
                },
                {
                    "hash" : "0x5a231ff12ceeb9d50b5a5167bd8e5d1dddda727c3436653ff738e176159bcebe",
                    "indexes" : {
                        "data" : 1,
                        "gas" : 0,
                        "value" : 0
                    },
                    "logs" : "0x1dcc4de8dec75d7aab85b567b6ccd41ad312451b948a7413f0a142fd40d49347",
                    "txbytes" : "0xf864800a83155cc094a000000000000000000000000000000000000000808454d1405f1ba0cad346e8ea63ee405061910adfc9606b342f1e59b95763fa4b6868eba82912c3a05d589ffbd73ce9a733a21160954cbe924c25ae164a7ff9736cefc7f2cbf4682b"
                }
            ],
            "London" : [
                {
                    "hash" : "0xd97c84d2d4858d73804d0bcc47ce1557cb707a0fa2b9413b65f538403a728ef5",
                    "indexes" : {
                        "data" : 0,
                        "gas" : 0,
                        "value" : 0
                    },
                    "logs" : "0x1dcc4de8dec75d7aab85b567b6ccd41ad312451b948a7413f0a142fd40d49347",
                    "txbytes" : "0xf864800a83155cc094a0000000000000000000000000000000000000008084c04062261ba0e8762d27448f2915a02a7151cc5b30fb408f563dd028b9550fb533d9a45ed27ca00682b95824efb788cc3206dfc8f71e50dcc0ccdd957921e06cdc5af2bf0d96df"
                },
                {
                    "hash" : "0xe428ba3463c2e3f52aff6f2e16148619afa15d3250054bfaac843e78a2f9375a",
                    "indexes" : {
                        "data" : 1,
                        "gas" : 0,
                        "value" : 0
                    },
                    "logs" : "0x1dcc4de8dec75d7aab85b567b6ccd41ad312451b948a7413f0a142fd40d49347",
                    "txbytes" : "0xf864800a83155cc094a000000000000000000000000000000000000000808454d1405f1ba0cad346e8ea63ee405061910adfc9606b342f1e59b95763fa4b6868eba82912c3a05d589ffbd73ce9a733a21160954cbe924c25ae164a7ff9736cefc7f2cbf4682b"
                }
            ],
            "Merge" : [
                {
                    "hash" : "0xd97c84d2d4858d73804d0bcc47ce1557cb707a0fa2b9413b65f538403a728ef5",
                    "indexes" : {
                        "data" : 0,
                        "gas" : 0,
                        "value" : 0
                    },
                    "logs" : "0x1dcc4de8dec75d7aab85b567b6ccd41ad312451b948a7413f0a142fd40d49347",
                    "txbytes" : "0xf864800a83155cc094a0000000000000000000000000000000000000008084c04062261ba0e8762d27448f2915a02a7151cc5b30fb408f563dd028b9550fb533d9a45ed27ca00682b95824efb788cc3206dfc8f71e50dcc0ccdd957921e06cdc5af2bf0d96df"
                },
                {
                    "hash" : "0xe428ba3463c2e3f52aff6f2e16148619afa15d3250054bfaac843e78a2f9375a",
                    "indexes" : {
                        "data" : 1,
                        "gas" : 0,
                        "value" : 0
                    },
                    "logs" : "0x1dcc4de8dec75d7aab85b567b6ccd41ad312451b948a7413f0a142fd40d49347",
                    "txbytes" : "0xf864800a83155cc094a000000000000000000000000000000000000000808454d1405f1ba0cad346e8ea63ee405061910adfc9606b342f1e59b95763fa4b6868eba82912c3a05d589ffbd73ce9a733a21160954cbe924c25ae164a7ff9736cefc7f2cbf4682b"
                }
            ],
            "Shanghai" : [
                {
                    "hash" : "0x4a00b65ccc48caeff3eb833962a17e9614609f26a14e11feb1ed1ef26007d666",
                    "indexes" : {
                        "data" : 0,
                        "gas" : 0,
                        "value" : 0
                    },
                    "logs" : "0x1dcc4de8dec75d7aab85b567b6ccd41ad312451b948a7413f0a142fd40d49347",
                    "txbytes" : "0xf864800a83155cc094a0000000000000000000000000000000000000008084c04062261ba0e8762d27448f2915a02a7151cc5b30fb408f563dd028b9550fb533d9a45ed27ca00682b95824efb788cc3206dfc8f71e50dcc0ccdd957921e06cdc5af2bf0d96df"
                },
                {
                    "hash" : "0xe428ba3463c2e3f52aff6f2e16148619afa15d3250054bfaac843e78a2f9375a",
                    "indexes" : {
                        "data" : 1,
                        "gas" : 0,
                        "value" : 0
                    },
                    "logs" : "0x1dcc4de8dec75d7aab85b567b6ccd41ad312451b948a7413f0a142fd40d49347",
                    "txbytes" : "0xf864800a83155cc094a000000000000000000000000000000000000000808454d1405f1ba0cad346e8ea63ee405061910adfc9606b342f1e59b95763fa4b6868eba82912c3a05d589ffbd73ce9a733a21160954cbe924c25ae164a7ff9736cefc7f2cbf4682b"
                }
            ]
        },
        "pre" : {
            "0xa000000000000000000000000000000000000000" : {
                "balance" : "0x0ba1a9ce0ba1a9ce",
                "code" : "0x608060405234801561001057600080fd5b50600436106100415760003560e01c806354d1405f14610046578063b28175c414610050578063c04062261461005a575b600080fd5b61004e610064565b005b610058610110565b005b610062610116565b005b6000604051610072906101b6565b604051809103906000f08015801561008e573d6000803e3d6000fd5b5090508073ffffffffffffffffffffffffffffffffffffffff166373027f6d306040518263ffffffff1660e01b81526004016100ca9190610204565b600060405180830381600087803b1580156100e457600080fd5b505af11580156100f8573d6000803e3d6000fd5b50505050600360025560038055622fffff6000205050565b60028055565b6000604051610124906101b6565b604051809103906000f080158015610140573d6000803e3d6000fd5b5090508073ffffffffffffffffffffffffffffffffffffffff166373027f6d306040518263ffffffff1660e01b815260040161017c9190610204565b600060405180830381600087803b15801561019657600080fd5b505af11580156101aa573d6000803e3d6000fd5b50505050600360025550565b6102b48061022083390190565b600073ffffffffffffffffffffffffffffffffffffffff82169050919050565b60006101ee826101c3565b9050919050565b6101fe816101e3565b82525050565b600060208201905061021960008301846101f5565b9291505056fe608060405234801561001057600080fd5b50610294806100206000396000f3fe608060405234801561001057600080fd5b506004361061002b5760003560e01c806373027f6d14610030575b600080fd5b61004a600480360381019061004591906101a9565b61004c565b005b6000808273ffffffffffffffffffffffffffffffffffffffff166040516024016040516020818303038152906040527fb28175c4000000000000000000000000000000000000000000000000000000007bffffffffffffffffffffffffffffffffffffffffffffffffffffffff19166020820180517bffffffffffffffffffffffffffffffffffffffffffffffffffffffff83818316178352505050506040516100f69190610247565b6000604051808303816000865af19150503d8060008114610133576040519150601f19603f3d011682016040523d82523d6000602084013e610138565b606091505b509150915081600155505050565b600080fd5b600073ffffffffffffffffffffffffffffffffffffffff82169050919050565b60006101768261014b565b9050919050565b6101868161016b565b811461019157600080fd5b50565b6000813590506101a38161017d565b92915050565b6000602082840312156101bf576101be610146565b5b60006101cd84828501610194565b91505092915050565b600081519050919050565b600081905092915050565b60005b8381101561020a5780820151818401526020810190506101ef565b60008484015250505050565b6000610221826101d6565b61022b81856101e1565b935061023b8185602086016101ec565b80840191505092915050565b60006102538284610216565b91508190509291505056fea2646970667358221220e7c639c31dc8ba275b2b8357bd517e9c69e99f3dcc29eaa00b51d0a14d9de75064736f6c63430008110033a26469706673582212200c54bdd52a903cadf9df4e08c06a919ce9e9d8807259a1416946a143b35b7b9164736f6c63430008110033",
                "nonce" : "0x00",
                "storage" : {
                    "0x02" : "0xff"
                }
            },
            "0xa94f5374fce5edbc8e2a8697c15331677e6ebf0b" : {
                "balance" : "0xe8d4a51000",
                "code" : "0x",
                "nonce" : "0x00",
                "storage" : {
                }
            }
        },
        "transaction" : {
            "data" : [
                "0xc0406226",
                "0x54d1405f"
            ],
            "gasLimit" : [
                "0x155cc0"
            ],
            "gasPrice" : "0x0a",
            "nonce" : "0x00",
            "secretKey" : "0x45a915e4d060149eb4365960e6a7a45f334393093061116b197e3240065ff2d8",
            "sender" : "0xa94f5374fce5edbc8e2a8697c15331677e6ebf0b",
            "to" : "0xa000000000000000000000000000000000000000",
            "value" : [
                "0x00"
            ]
        }
    }
}