{
    "RevertPrefoundCall" : {
        "_info" : {
            "comment" : "",
            "filling-rpc-server" : "evm version 1.10.16-unstable-0f893109-20220105",
            "filling-tool-version" : "retesteth-0.2.2-testinfo+commit.01c6aac2.Linux.g++",
            "generatedTestHash" : "d4ec4fb29700a3a14dad65564fe82ee0a862263dc526ab5d9ba76ec2d71e1a94",
            "lllcversion" : "Version: 0.5.14-develop.2021.11.27+commit.401d5358.Linux.g++",
            "solidity" : "Version: 0.8.5+commit.a4f2e591.Linux.g++",
            "source" : "src/GeneralStateTestsFiller/stRevertTest/RevertPrefoundCallFiller.json",
            "sourceHash" : "d064fccc0fdcf179ad6662722ac63c8ca1fd71d4e0e09775b5fbf712ed7770ea"
        },
        "env" : {
            "currentBaseFee" : "0x0a",
            "currentCoinbase" : "0x2adc25665018aa1fe0e6bc666dac8fc2697ff9ba",
            "currentDifficulty" : "0x020000",
            "currentGasLimit" : "0x989680",
            "currentNumber" : "0x01",
            "currentTimestamp" : "0x03e8",
            "previousHash" : "0x5e20a0453cecd065ea59c37ac63e079ee08998b6045136a8ce6635c7912ec0b6"
        },
        "post" : {
            "Berlin" : [
                {
                    "hash" : "0xb2d04dcefc58fc5616961a25dab773458a55dddd125cb763f6999ed2ebd886e9",
                    "indexes" : {
                        "data" : 0,
                        "gas" : 0,
                        "value" : 0
                    },
                    "logs" : "0x1dcc4de8dec75d7aab85b567b6ccd41ad312451b948a7413f0a142fd40d49347",
                    "txbytes" : "0xf860800a83016f3094a00000000000000000000000000000000000000080801ba05ccb788f6098ea99168081b2cf1612cf26ad39c6b024a8436d00ad2f4825ce60a04a2e3eebe2688b5b9503b21d7f2a6a2a8fbc5cd04f5335012beaf40ebb66792b"
                }
            ],
            "Istanbul" : [
                {
                    "hash" : "0xc937b0a01d0f66dad6fcaf508e03d3a7c0a98afbea30442fb61cf4e4de62a738",
                    "indexes" : {
                        "data" : 0,
                        "gas" : 0,
                        "value" : 0
                    },
                    "logs" : "0x1dcc4de8dec75d7aab85b567b6ccd41ad312451b948a7413f0a142fd40d49347",
                    "txbytes" : "0xf860800a83016f3094a00000000000000000000000000000000000000080801ba05ccb788f6098ea99168081b2cf1612cf26ad39c6b024a8436d00ad2f4825ce60a04a2e3eebe2688b5b9503b21d7f2a6a2a8fbc5cd04f5335012beaf40ebb66792b"
                }
            ],
            "London" : [
                {
                    "hash" : "0x3b075d23a04d0df8e89f89b176cf17c9f8c719e99633da9ea253d892f8eff079",
                    "indexes" : {
                        "data" : 0,
                        "gas" : 0,
                        "value" : 0
                    },
                    "logs" : "0x1dcc4de8dec75d7aab85b567b6ccd41ad312451b948a7413f0a142fd40d49347",
                    "txbytes" : "0xf860800a83016f3094a00000000000000000000000000000000000000080801ba05ccb788f6098ea99168081b2cf1612cf26ad39c6b024a8436d00ad2f4825ce60a04a2e3eebe2688b5b9503b21d7f2a6a2a8fbc5cd04f5335012beaf40ebb66792b"
                }
            ]
        },
        "pre" : {
            "0x7db299e0885c85039f56fa504a13dd8ce8a56aa7" : {
                "balance" : "0x01",
                "code" : "0x",
                "nonce" : "0x00",
                "storage" : {
                }
            },
            "0xa000000000000000000000000000000000000000" : {
                "balance" : "0x01",
                "code" : "0x60206000602060006000737db299e0885c85039f56fa504a13dd8ce8a56aa761c350f1600055600c60015500",
                "nonce" : "0x00",
                "storage" : {
                }
            },
            "0xa94f5374fce5edbc8e2a8697c15331677e6ebf0b" : {
                "balance" : "0xe8d4a51000",
                "code" : "0x",
                "nonce" : "0x00",
                "storage" : {
                }
            }
        },
        "transaction" : {
            "data" : [
                "0x"
            ],
            "gasLimit" : [
                "0x016f30"
            ],
            "gasPrice" : "0x0a",
            "nonce" : "0x00",
            "secretKey" : "0x45a915e4d060149eb4365960e6a7a45f334393093061116b197e3240065ff2d8",
            "sender" : "0xa94f5374fce5edbc8e2a8697c15331677e6ebf0b",
            "to" : "0xa000000000000000000000000000000000000000",
            "value" : [
                "0x00"
            ]
        }
    }
}