{
    "RevertPrefoundCall" : {
        "_info" : {
            "comment" : "",
            "filling-rpc-server" : "evm version 1.13.13-unstable-034bc466-20240219",
            "filling-tool-version" : "retesteth-0.3.2-cancun+commit.014a68a5.Linux.g++",
            "generatedTestHash" : "f83942a71a3c21026eb6046420d4b104cb01cafc6d8fe1e05b168f6fa5d069d5",
            "lllcversion" : "Version: 0.5.14-develop.2023.7.11+commit.c58ab2c6.mod.Linux.g++",
            "solidity" : "Version: 0.8.21+commit.d9974bed.Linux.g++",
            "source" : "src/GeneralStateTestsFiller/stRevertTest/RevertPrefoundCallFiller.json",
            "sourceHash" : "3e23b5cac0bdcec6b8d504ccd9c70c087e6bc52b924dee8891462e43f7e13f92"
        },
        "env" : {
            "currentBaseFee" : "0x0a",
            "currentCoinbase" : "0x2adc25665018aa1fe0e6bc666dac8fc2697ff9ba",
            "currentDifficulty" : "0x020000",
            "currentExcessBlobGas" : "0x00",
            "currentGasLimit" : "0x989680",
            "currentNumber" : "0x01",
            "currentRandom" : "0x0000000000000000000000000000000000000000000000000000000000020000",
            "currentTimestamp" : "0x03e8"
        },
        "post" : {
            "Berlin" : [
                {
                    "hash" : "0x49951afd92ba52503dcfce1761650ef077362b03c9046908262076c8b36b9e3a",
                    "indexes" : {
                        "data" : 0,
                        "gas" : 0,
                        "value" : 0
                    },
                    "logs" : "0x1dcc4de8dec75d7aab85b567b6ccd41ad312451b948a7413f0a142fd40d49347",
                    "txbytes" : "0xf860800a83016f3094a00000000000000000000000000000000000000080801ba05ccb788f6098ea99168081b2cf1612cf26ad39c6b024a8436d00ad2f4825ce60a04a2e3eebe2688b5b9503b21d7f2a6a2a8fbc5cd04f5335012beaf40ebb66792b"
                }
            ],
            "Cancun" : [
                {
                    "hash" : "0xaec1c3e9a65589bcddb5b8a24c6dffb984f66ed3d530838101844386797e834d",
                    "indexes" : {
                        "data" : 0,
                        "gas" : 0,
                        "value" : 0
                    },
                    "logs" : "0x1dcc4de8dec75d7aab85b567b6ccd41ad312451b948a7413f0a142fd40d49347",
                    "txbytes" : "0xf860800a83016f3094a00000000000000000000000000000000000000080801ba05ccb788f6098ea99168081b2cf1612cf26ad39c6b024a8436d00ad2f4825ce60a04a2e3eebe2688b5b9503b21d7f2a6a2a8fbc5cd04f5335012beaf40ebb66792b"
                }
            ],
            "Istanbul" : [
                {
                    "hash" : "0x791209134b8c3075e8df6ae251ac13c0773e81b7abc1a3102cc9ca58e823458e",
                    "indexes" : {
                        "data" : 0,
                        "gas" : 0,
                        "value" : 0
                    },
                    "logs" : "0x1dcc4de8dec75d7aab85b567b6ccd41ad312451b948a7413f0a142fd40d49347",
                    "txbytes" : "0xf860800a83016f3094a00000000000000000000000000000000000000080801ba05ccb788f6098ea99168081b2cf1612cf26ad39c6b024a8436d00ad2f4825ce60a04a2e3eebe2688b5b9503b21d7f2a6a2a8fbc5cd04f5335012beaf40ebb66792b"
                }
            ],
            "London" : [
                {
                    "hash" : "0x5618b167c09cc94f3686928aca6fd7f793ed752611e8fa6b591bf16373b87cae",
                    "indexes" : {
                        "data" : 0,
                        "gas" : 0,
                        "value" : 0
                    },
                    "logs" : "0x1dcc4de8dec75d7aab85b567b6ccd41ad312451b948a7413f0a142fd40d49347",
                    "txbytes" : "0xf860800a83016f3094a00000000000000000000000000000000000000080801ba05ccb788f6098ea99168081b2cf1612cf26ad39c6b024a8436d00ad2f4825ce60a04a2e3eebe2688b5b9503b21d7f2a6a2a8fbc5cd04f5335012beaf40ebb66792b"
                }
            ],
            "Paris" : [
                {
                    "hash" : "0x5618b167c09cc94f3686928aca6fd7f793ed752611e8fa6b591bf16373b87cae",
                    "indexes" : {
                        "data" : 0,
                        "gas" : 0,
                        "value" : 0
                    },
                    "logs" : "0x1dcc4de8dec75d7aab85b567b6ccd41ad312451b948a7413f0a142fd40d49347",
                    "txbytes" : "0xf860800a83016f3094a00000000000000000000000000000000000000080801ba05ccb788f6098ea99168081b2cf1612cf26ad39c6b024a8436d00ad2f4825ce60a04a2e3eebe2688b5b9503b21d7f2a6a2a8fbc5cd04f5335012beaf40ebb66792b"
                }
            ],
            "Shanghai" : [
                {
                    "hash" : "0x5618b167c09cc94f3686928aca6fd7f793ed752611e8fa6b591bf16373b87cae",
                    "indexes" : {
                        "data" : 0,
                        "gas" : 0,
                        "value" : 0
                    },
                    "logs" : "0x1dcc4de8dec75d7aab85b567b6ccd41ad312451b948a7413f0a142fd40d49347",
                    "txbytes" : "0xf860800a83016f3094a00000000000000000000000000000000000000080801ba05ccb788f6098ea99168081b2cf1612cf26ad39c6b024a8436d00ad2f4825ce60a04a2e3eebe2688b5b9503b21d7f2a6a2a8fbc5cd04f5335012beaf40ebb66792b"
                }
            ]
        },
        "pre" : {
            "0x000f3df6d732807ef1319fb7b8bb8522d0beac02" : {
                "balance" : "0x00",
                "code" : "0x3373fffffffffffffffffffffffffffffffffffffffe14604d57602036146024575f5ffd5b5f35801560495762001fff810690815414603c575f5ffd5b62001fff01545f5260205ff35b5f5ffd5b62001fff42064281555f359062001fff015500",
                "nonce" : "0x01",
                "storage" : {
                }
            },
            "0x7db299e0885c85039f56fa504a13dd8ce8a56aa7" : {
                "balance" : "0x01",
                "code" : "0x",
                "nonce" : "0x00",
                "storage" : {
                }
            },
            "0xa000000000000000000000000000000000000000" : {
                "balance" : "0x01",
                "code" : "0x60206000602060006000737db299e0885c85039f56fa504a13dd8ce8a56aa761c350f1600055600c60015500",
                "nonce" : "0x00",
                "storage" : {
                }
            },
            "0xa94f5374fce5edbc8e2a8697c15331677e6ebf0b" : {
                "balance" : "0xe8d4a51000",
                "code" : "0x",
                "nonce" : "0x00",
                "storage" : {
                }
            }
        },
        "transaction" : {
            "data" : [
                "0x"
            ],
            "gasLimit" : [
                "0x016f30"
            ],
            "gasPrice" : "0x0a",
            "nonce" : "0x00",
            "secretKey" : "0x45a915e4d060149eb4365960e6a7a45f334393093061116b197e3240065ff2d8",
            "sender" : "0xa94f5374fce5edbc8e2a8697c15331677e6ebf0b",
            "to" : "0xa000000000000000000000000000000000000000",
            "value" : [
                "0x00"
            ]
        }
    }
}