{
    "RevertOnEmptyStack" : {
        "_info" : {
            "comment" : "Calling a runtime code that contains only a single `REVERT` should consume all gas.",
            "filling-rpc-server" : "evm version 1.10.2-unstable-22082f9e-20210309",
            "filling-tool-version" : "retesteth-0.1.0-accesslist+commit.47c69eb3.Linux.g++",
            "lllcversion" : "Version: 0.5.14-develop.2020.6.22+commit.9189ad7a.Linux.g++",
            "source" : "src/GeneralStateTestsFiller/stRevertTest/RevertOnEmptyStackFiller.json",
            "sourceHash" : "4fc7bdbb8d3a280f99c1616582b740812c5fd1f0f13f6c3797fd9ea286615428"
        },
        "env" : {
            "currentCoinbase" : "0x2adc25665018aa1fe0e6bc666dac8fc2697ff9ba",
            "currentDifficulty" : "0x020000",
            "currentGasLimit" : "0x989680",
            "currentNumber" : "0x01",
            "currentTimestamp" : "0x03e8",
            "previousHash" : "0x5e20a0453cecd065ea59c37ac63e079ee08998b6045136a8ce6635c7912ec0b6"
        },
        "post" : {
            "Berlin" : [
                {
                    "indexes" : {
                        "data" : 0,
                        "gas" : 0,
                        "value" : 0
                    },
                    "hash" : "0x67e2e0be093bc8bdd0836b32bd23a4c93fc3f6d9a5501600661859e93b8f5429",
                    "txbytes" : "0xf8608001831e848094a00000000000000000000000000000000000000080801ca0f96fac91387d1bf513516357e5b1819be2e1af40c591e50184ac3afc2f5f1fb1a00dd19d78cd998dae9ada347785e9f4f705e4d152e2b025c5f564dbffb43b5e53",
                    "logs" : "0x1dcc4de8dec75d7aab85b567b6ccd41ad312451b948a7413f0a142fd40d49347"
                }
            ],
            "Istanbul" : [
                {
                    "indexes" : {
                        "data" : 0,
                        "gas" : 0,
                        "value" : 0
                    },
                    "hash" : "0x67e2e0be093bc8bdd0836b32bd23a4c93fc3f6d9a5501600661859e93b8f5429",
                    "txbytes" : "0xf8608001831e848094a00000000000000000000000000000000000000080801ca0f96fac91387d1bf513516357e5b1819be2e1af40c591e50184ac3afc2f5f1fb1a00dd19d78cd998dae9ada347785e9f4f705e4d152e2b025c5f564dbffb43b5e53",
                    "logs" : "0x1dcc4de8dec75d7aab85b567b6ccd41ad312451b948a7413f0a142fd40d49347"
                }
            ]
        },
        "pre" : {
            "0xa000000000000000000000000000000000000000" : {
                "balance" : "0x00",
                "code" : "0xfd",
                "nonce" : "0x00",
                "storage" : {
                }
            },
            "0xa94f5374fce5edbc8e2a8697c15331677e6ebf0b" : {
                "balance" : "0xe8d4a51000",
                "code" : "0x",
                "nonce" : "0x00",
                "storage" : {
                }
            }
        },
        "transaction" : {
            "data" : [
                "0x"
            ],
            "gasLimit" : [
                "0x1e8480"
            ],
            "gasPrice" : "0x01",
            "nonce" : "0x00",
            "secretKey" : "0x45a915e4d060149eb4365960e6a7a45f334393093061116b197e3240065ff2d8",
            "to" : "0xa000000000000000000000000000000000000000",
            "value" : [
                "0x00"
            ]
        }
    }
}