{
    "RevertOpcodeCalls" : {
        "_info" : {
            "comment" : "",
            "filling-rpc-server" : "evm version 1.13.13-unstable-034bc466-20240219",
            "filling-tool-version" : "retesteth-0.3.2-cancun+commit.014a68a5.Linux.g++",
            "generatedTestHash" : "1d1be6ba54482bcfea2d0676854b1f3c602ada7fc1110ce85e4481b7e4237cfa",
            "lllcversion" : "Version: 0.5.14-develop.2023.7.11+commit.c58ab2c6.mod.Linux.g++",
            "solidity" : "Version: 0.8.21+commit.d9974bed.Linux.g++",
            "source" : "src/GeneralStateTestsFiller/stRevertTest/RevertOpcodeCallsFiller.json",
            "sourceHash" : "33d8bf085bfb0f987f7cc24f41b7a13ec6a9d42bdecd544ae11ae41cbf23f3eb"
        },
        "env" : {
            "currentBaseFee" : "0x0a",
            "currentCoinbase" : "0x2adc25665018aa1fe0e6bc666dac8fc2697ff9ba",
            "currentDifficulty" : "0x020000",
            "currentExcessBlobGas" : "0x00",
            "currentGasLimit" : "0x989680",
            "currentNumber" : "0x01",
            "currentRandom" : "0x0000000000000000000000000000000000000000000000000000000000020000",
            "currentTimestamp" : "0x03e8"
        },
        "post" : {
            "Berlin" : [
                {
                    "hash" : "0xcd49f7e4d416b89dcbb47152b312d6d3789069ed83d28f722ff9754766038923",
                    "indexes" : {
                        "data" : 0,
                        "gas" : 0,
                        "value" : 0
                    },
                    "logs" : "0x1dcc4de8dec75d7aab85b567b6ccd41ad312451b948a7413f0a142fd40d49347",
                    "txbytes" : "0xf880800a830704e094094f5374fce5edbc8e2a8697c15331677e6ebf0b80a0000000000000000000000000b0005374fce5edbc8e2a8697c15331677e6ebf0b1ca0568965a178adb1145245ac37643703f8107badd6bbd4ccb8e70d6b51013d11b8a03f15a0ae2b55dbd860ae5221c20933f43e63a1a5f693697de43e5617eeaa0338"
                },
                {
                    "hash" : "0xf8c949b9d6d1cf79b48052b0f281a441e3b34a599697d13eb1db898949e27289",
                    "indexes" : {
                        "data" : 0,
                        "gas" : 1,
                        "value" : 0
                    },
                    "logs" : "0x1dcc4de8dec75d7aab85b567b6ccd41ad312451b948a7413f0a142fd40d49347",
                    "txbytes" : "0xf880800a830146a694094f5374fce5edbc8e2a8697c15331677e6ebf0b80a0000000000000000000000000b0005374fce5edbc8e2a8697c15331677e6ebf0b1ca0db84f755ee799db4ed515b208d36006a55c32e77ec366c543df3a3444f37289ca0525f9bfeab248ae11a4a5ed8341fe9fc61b5064604536f563f23567c7b1dee07"
                },
                {
                    "hash" : "0x9fe8e132ccf06d5ab169682554699ce2ba914de1ce98c31d19cdb4d3ec846143",
                    "indexes" : {
                        "data" : 1,
                        "gas" : 0,
                        "value" : 0
                    },
                    "logs" : "0x1dcc4de8dec75d7aab85b567b6ccd41ad312451b948a7413f0a142fd40d49347",
                    "txbytes" : "0xf880800a830704e094094f5374fce5edbc8e2a8697c15331677e6ebf0b80a0000000000000000000000000b1005374fce5edbc8e2a8697c15331677e6ebf0b1ba017da61e37da10ae0bbded17c2356f0ff31623651b5acb26a46e450f716a2e02da004d064f8b8fc9371c31623ef0b9dc8ad2364a49d7db2806d00ef38f706419b3e"
                },
                {
                    "hash" : "0xf8c949b9d6d1cf79b48052b0f281a441e3b34a599697d13eb1db898949e27289",
                    "indexes" : {
                        "data" : 1,
                        "gas" : 1,
                        "value" : 0
                    },
                    "logs" : "0x1dcc4de8dec75d7aab85b567b6ccd41ad312451b948a7413f0a142fd40d49347",
                    "txbytes" : "0xf880800a830146a694094f5374fce5edbc8e2a8697c15331677e6ebf0b80a0000000000000000000000000b1005374fce5edbc8e2a8697c15331677e6ebf0b1ca0f5f74e2c86969890f88c9b14372f7b5bd58f21354c46b10ef103be87d63df5aea06b2fc3bd26f72d72e86aaee775487e428173f6131eb2b06e06ec3a41895cb843"
                },
                {
                    "hash" : "0xb4e9cf998c8d6aa8f540030d8c0f4db305a8e73b90fa33df5919454e002f5b5b",
                    "indexes" : {
                        "data" : 2,
                        "gas" : 0,
                        "value" : 0
                    },
                    "logs" : "0x1dcc4de8dec75d7aab85b567b6ccd41ad312451b948a7413f0a142fd40d49347",
                    "txbytes" : "0xf880800a830704e094094f5374fce5edbc8e2a8697c15331677e6ebf0b80a0000000000000000000000000b2005374fce5edbc8e2a8697c15331677e6ebf0b1ca06ae65a8a7b64691438bc4faa5cd9ab0912efbe97d9deed31ebfd12bc8300ed39a0273dea0411ecb9df6e086fc64a88d342344ade5e8ab3d2e113ff876a39c96639"
                },
                {
                    "hash" : "0xf8c949b9d6d1cf79b48052b0f281a441e3b34a599697d13eb1db898949e27289",
                    "indexes" : {
                        "data" : 2,
                        "gas" : 1,
                        "value" : 0
                    },
                    "logs" : "0x1dcc4de8dec75d7aab85b567b6ccd41ad312451b948a7413f0a142fd40d49347",
                    "txbytes" : "0xf880800a830146a694094f5374fce5edbc8e2a8697c15331677e6ebf0b80a0000000000000000000000000b2005374fce5edbc8e2a8697c15331677e6ebf0b1ba09444d5c8d6244238c20707940fce1cada88854c779e458fba6cf39fe2102baf0a0462f1316a046b2af09f7675f9db53ad69b9701ded33732698d173c24e99272b2"
                },
                {
                    "hash" : "0x0385c7590e6f6621a80bf8a25d6846ec25812e719ba053a3c031f2fe45750879",
                    "indexes" : {
                        "data" : 3,
                        "gas" : 0,
                        "value" : 0
                    },
                    "logs" : "0x1dcc4de8dec75d7aab85b567b6ccd41ad312451b948a7413f0a142fd40d49347",
                    "txbytes" : "0xf880800a830704e094094f5374fce5edbc8e2a8697c15331677e6ebf0b80a0000000000000000000000000b3005374fce5edbc8e2a8697c15331677e6ebf0b1ba0ea0e828438a2c22f24ed3d84a6f9c8ea3af3a5bda15cef782226b3d4f1a02577a046604faa0d25c86949776f2917bb8a079ed2c2d48451529490c8810280057fc5"
                },
                {
                    "hash" : "0xf8c949b9d6d1cf79b48052b0f281a441e3b34a599697d13eb1db898949e27289",
                    "indexes" : {
                        "data" : 3,
                        "gas" : 1,
                        "value" : 0
                    },
                    "logs" : "0x1dcc4de8dec75d7aab85b567b6ccd41ad312451b948a7413f0a142fd40d49347",
                    "txbytes" : "0xf880800a830146a694094f5374fce5edbc8e2a8697c15331677e6ebf0b80a0000000000000000000000000b3005374fce5edbc8e2a8697c15331677e6ebf0b1ca00e181c3b0bb6790d8419ac1127874beccbdba3fbda11a72d441be2fa73dedb31a06feabd75c86020adeb3d133d7b3f9839fe25dc19596f074d56bf6c1550ced76e"
                }
            ],
            "Cancun" : [
                {
                    "hash" : "0x106c0ae9bc78211bbb297c3fcd785cc0ea97ca0da383b3eb016050ba3ce75616",
                    "indexes" : {
                        "data" : 0,
                        "gas" : 0,
                        "value" : 0
                    },
                    "logs" : "0x1dcc4de8dec75d7aab85b567b6ccd41ad312451b948a7413f0a142fd40d49347",
                    "txbytes" : "0xf880800a830704e094094f5374fce5edbc8e2a8697c15331677e6ebf0b80a0000000000000000000000000b0005374fce5edbc8e2a8697c15331677e6ebf0b1ca0568965a178adb1145245ac37643703f8107badd6bbd4ccb8e70d6b51013d11b8a03f15a0ae2b55dbd860ae5221c20933f43e63a1a5f693697de43e5617eeaa0338"
                },
                {
                    "hash" : "0xb8ec2226466fac37c0fce331bbfcc38d7cb119ddb9d70c02f175e53f441844b5",
                    "indexes" : {
                        "data" : 0,
                        "gas" : 1,
                        "value" : 0
                    },
                    "logs" : "0x1dcc4de8dec75d7aab85b567b6ccd41ad312451b948a7413f0a142fd40d49347",
                    "txbytes" : "0xf880800a830146a694094f5374fce5edbc8e2a8697c15331677e6ebf0b80a0000000000000000000000000b0005374fce5edbc8e2a8697c15331677e6ebf0b1ca0db84f755ee799db4ed515b208d36006a55c32e77ec366c543df3a3444f37289ca0525f9bfeab248ae11a4a5ed8341fe9fc61b5064604536f563f23567c7b1dee07"
                },
                {
                    "hash" : "0x0f8a8689ae297ae2f466aa9acc03b6d73275bb5937ffca0dfbf12cd18385bbfd",
                    "indexes" : {
                        "data" : 1,
                        "gas" : 0,
                        "value" : 0
                    },
                    "logs" : "0x1dcc4de8dec75d7aab85b567b6ccd41ad312451b948a7413f0a142fd40d49347",
                    "txbytes" : "0xf880800a830704e094094f5374fce5edbc8e2a8697c15331677e6ebf0b80a0000000000000000000000000b1005374fce5edbc8e2a8697c15331677e6ebf0b1ba017da61e37da10ae0bbded17c2356f0ff31623651b5acb26a46e450f716a2e02da004d064f8b8fc9371c31623ef0b9dc8ad2364a49d7db2806d00ef38f706419b3e"
                },
                {
                    "hash" : "0xb8ec2226466fac37c0fce331bbfcc38d7cb119ddb9d70c02f175e53f441844b5",
                    "indexes" : {
                        "data" : 1,
                        "gas" : 1,
                        "value" : 0
                    },
                    "logs" : "0x1dcc4de8dec75d7aab85b567b6ccd41ad312451b948a7413f0a142fd40d49347",
                    "txbytes" : "0xf880800a830146a694094f5374fce5edbc8e2a8697c15331677e6ebf0b80a0000000000000000000000000b1005374fce5edbc8e2a8697c15331677e6ebf0b1ca0f5f74e2c86969890f88c9b14372f7b5bd58f21354c46b10ef103be87d63df5aea06b2fc3bd26f72d72e86aaee775487e428173f6131eb2b06e06ec3a41895cb843"
                },
                {
                    "hash" : "0x788e69e5c4a61c911c8cfb350a50e2f868737b11f6e91703ade8fb17afb729d2",
                    "indexes" : {
                        "data" : 2,
                        "gas" : 0,
                        "value" : 0
                    },
                    "logs" : "0x1dcc4de8dec75d7aab85b567b6ccd41ad312451b948a7413f0a142fd40d49347",
                    "txbytes" : "0xf880800a830704e094094f5374fce5edbc8e2a8697c15331677e6ebf0b80a0000000000000000000000000b2005374fce5edbc8e2a8697c15331677e6ebf0b1ca06ae65a8a7b64691438bc4faa5cd9ab0912efbe97d9deed31ebfd12bc8300ed39a0273dea0411ecb9df6e086fc64a88d342344ade5e8ab3d2e113ff876a39c96639"
                },
                {
                    "hash" : "0xb8ec2226466fac37c0fce331bbfcc38d7cb119ddb9d70c02f175e53f441844b5",
                    "indexes" : {
                        "data" : 2,
                        "gas" : 1,
                        "value" : 0
                    },
                    "logs" : "0x1dcc4de8dec75d7aab85b567b6ccd41ad312451b948a7413f0a142fd40d49347",
                    "txbytes" : "0xf880800a830146a694094f5374fce5edbc8e2a8697c15331677e6ebf0b80a0000000000000000000000000b2005374fce5edbc8e2a8697c15331677e6ebf0b1ba09444d5c8d6244238c20707940fce1cada88854c779e458fba6cf39fe2102baf0a0462f1316a046b2af09f7675f9db53ad69b9701ded33732698d173c24e99272b2"
                },
                {
                    "hash" : "0x4f3bd7c1040c828134c5668b0c2764e894306c386df39c7d6b7d14129435bf74",
                    "indexes" : {
                        "data" : 3,
                        "gas" : 0,
                        "value" : 0
                    },
                    "logs" : "0x1dcc4de8dec75d7aab85b567b6ccd41ad312451b948a7413f0a142fd40d49347",
                    "txbytes" : "0xf880800a830704e094094f5374fce5edbc8e2a8697c15331677e6ebf0b80a0000000000000000000000000b3005374fce5edbc8e2a8697c15331677e6ebf0b1ba0ea0e828438a2c22f24ed3d84a6f9c8ea3af3a5bda15cef782226b3d4f1a02577a046604faa0d25c86949776f2917bb8a079ed2c2d48451529490c8810280057fc5"
                },
                {
                    "hash" : "0xb8ec2226466fac37c0fce331bbfcc38d7cb119ddb9d70c02f175e53f441844b5",
                    "indexes" : {
                        "data" : 3,
                        "gas" : 1,
                        "value" : 0
                    },
                    "logs" : "0x1dcc4de8dec75d7aab85b567b6ccd41ad312451b948a7413f0a142fd40d49347",
                    "txbytes" : "0xf880800a830146a694094f5374fce5edbc8e2a8697c15331677e6ebf0b80a0000000000000000000000000b3005374fce5edbc8e2a8697c15331677e6ebf0b1ca00e181c3b0bb6790d8419ac1127874beccbdba3fbda11a72d441be2fa73dedb31a06feabd75c86020adeb3d133d7b3f9839fe25dc19596f074d56bf6c1550ced76e"
                }
            ],
            "Istanbul" : [
                {
                    "hash" : "0x79e9af0072cbed63b4f0dcb38a0a7e1c4cff8bc3c0a85c14bba12045976dc92a",
                    "indexes" : {
                        "data" : 0,
                        "gas" : 0,
                        "value" : 0
                    },
                    "logs" : "0x1dcc4de8dec75d7aab85b567b6ccd41ad312451b948a7413f0a142fd40d49347",
                    "txbytes" : "0xf880800a830704e094094f5374fce5edbc8e2a8697c15331677e6ebf0b80a0000000000000000000000000b0005374fce5edbc8e2a8697c15331677e6ebf0b1ca0568965a178adb1145245ac37643703f8107badd6bbd4ccb8e70d6b51013d11b8a03f15a0ae2b55dbd860ae5221c20933f43e63a1a5f693697de43e5617eeaa0338"
                },
                {
                    "hash" : "0xf8c949b9d6d1cf79b48052b0f281a441e3b34a599697d13eb1db898949e27289",
                    "indexes" : {
                        "data" : 0,
                        "gas" : 1,
                        "value" : 0
                    },
                    "logs" : "0x1dcc4de8dec75d7aab85b567b6ccd41ad312451b948a7413f0a142fd40d49347",
                    "txbytes" : "0xf880800a830146a694094f5374fce5edbc8e2a8697c15331677e6ebf0b80a0000000000000000000000000b0005374fce5edbc8e2a8697c15331677e6ebf0b1ca0db84f755ee799db4ed515b208d36006a55c32e77ec366c543df3a3444f37289ca0525f9bfeab248ae11a4a5ed8341fe9fc61b5064604536f563f23567c7b1dee07"
                },
                {
                    "hash" : "0xd5ee73fae6056a3bea3534b7f9c3f415c722a72561d0d2662b31b4000d712a41",
                    "indexes" : {
                        "data" : 1,
                        "gas" : 0,
                        "value" : 0
                    },
                    "logs" : "0x1dcc4de8dec75d7aab85b567b6ccd41ad312451b948a7413f0a142fd40d49347",
                    "txbytes" : "0xf880800a830704e094094f5374fce5edbc8e2a8697c15331677e6ebf0b80a0000000000000000000000000b1005374fce5edbc8e2a8697c15331677e6ebf0b1ba017da61e37da10ae0bbded17c2356f0ff31623651b5acb26a46e450f716a2e02da004d064f8b8fc9371c31623ef0b9dc8ad2364a49d7db2806d00ef38f706419b3e"
                },
                {
                    "hash" : "0xf8c949b9d6d1cf79b48052b0f281a441e3b34a599697d13eb1db898949e27289",
                    "indexes" : {
                        "data" : 1,
                        "gas" : 1,
                        "value" : 0
                    },
                    "logs" : "0x1dcc4de8dec75d7aab85b567b6ccd41ad312451b948a7413f0a142fd40d49347",
                    "txbytes" : "0xf880800a830146a694094f5374fce5edbc8e2a8697c15331677e6ebf0b80a0000000000000000000000000b1005374fce5edbc8e2a8697c15331677e6ebf0b1ca0f5f74e2c86969890f88c9b14372f7b5bd58f21354c46b10ef103be87d63df5aea06b2fc3bd26f72d72e86aaee775487e428173f6131eb2b06e06ec3a41895cb843"
                },
                {
                    "hash" : "0xae315079a48f45884d52280d9891b05fceb6e43bf661b5523c8f0e6bfee6badc",
                    "indexes" : {
                        "data" : 2,
                        "gas" : 0,
                        "value" : 0
                    },
                    "logs" : "0x1dcc4de8dec75d7aab85b567b6ccd41ad312451b948a7413f0a142fd40d49347",
                    "txbytes" : "0xf880800a830704e094094f5374fce5edbc8e2a8697c15331677e6ebf0b80a0000000000000000000000000b2005374fce5edbc8e2a8697c15331677e6ebf0b1ca06ae65a8a7b64691438bc4faa5cd9ab0912efbe97d9deed31ebfd12bc8300ed39a0273dea0411ecb9df6e086fc64a88d342344ade5e8ab3d2e113ff876a39c96639"
                },
                {
                    "hash" : "0xf8c949b9d6d1cf79b48052b0f281a441e3b34a599697d13eb1db898949e27289",
                    "indexes" : {
                        "data" : 2,
                        "gas" : 1,
                        "value" : 0
                    },
                    "logs" : "0x1dcc4de8dec75d7aab85b567b6ccd41ad312451b948a7413f0a142fd40d49347",
                    "txbytes" : "0xf880800a830146a694094f5374fce5edbc8e2a8697c15331677e6ebf0b80a0000000000000000000000000b2005374fce5edbc8e2a8697c15331677e6ebf0b1ba09444d5c8d6244238c20707940fce1cada88854c779e458fba6cf39fe2102baf0a0462f1316a046b2af09f7675f9db53ad69b9701ded33732698d173c24e99272b2"
                },
                {
                    "hash" : "0x13040e80bdc01c8d1b9435526131e6bca349543a17e754cf2c1994105230885e",
                    "indexes" : {
                        "data" : 3,
                        "gas" : 0,
                        "value" : 0
                    },
                    "logs" : "0x1dcc4de8dec75d7aab85b567b6ccd41ad312451b948a7413f0a142fd40d49347",
                    "txbytes" : "0xf880800a830704e094094f5374fce5edbc8e2a8697c15331677e6ebf0b80a0000000000000000000000000b3005374fce5edbc8e2a8697c15331677e6ebf0b1ba0ea0e828438a2c22f24ed3d84a6f9c8ea3af3a5bda15cef782226b3d4f1a02577a046604faa0d25c86949776f2917bb8a079ed2c2d48451529490c8810280057fc5"
                },
                {
                    "hash" : "0xf8c949b9d6d1cf79b48052b0f281a441e3b34a599697d13eb1db898949e27289",
                    "indexes" : {
                        "data" : 3,
                        "gas" : 1,
                        "value" : 0
                    },
                    "logs" : "0x1dcc4de8dec75d7aab85b567b6ccd41ad312451b948a7413f0a142fd40d49347",
                    "txbytes" : "0xf880800a830146a694094f5374fce5edbc8e2a8697c15331677e6ebf0b80a0000000000000000000000000b3005374fce5edbc8e2a8697c15331677e6ebf0b1ca00e181c3b0bb6790d8419ac1127874beccbdba3fbda11a72d441be2fa73dedb31a06feabd75c86020adeb3d133d7b3f9839fe25dc19596f074d56bf6c1550ced76e"
                }
            ],
            "London" : [
                {
                    "hash" : "0x95ff91731ec159f1c1d84fcfbbddc22060e1f4e4bcd18de4d6d7643919864434",
                    "indexes" : {
                        "data" : 0,
                        "gas" : 0,
                        "value" : 0
                    },
                    "logs" : "0x1dcc4de8dec75d7aab85b567b6ccd41ad312451b948a7413f0a142fd40d49347",
                    "txbytes" : "0xf880800a830704e094094f5374fce5edbc8e2a8697c15331677e6ebf0b80a0000000000000000000000000b0005374fce5edbc8e2a8697c15331677e6ebf0b1ca0568965a178adb1145245ac37643703f8107badd6bbd4ccb8e70d6b51013d11b8a03f15a0ae2b55dbd860ae5221c20933f43e63a1a5f693697de43e5617eeaa0338"
                },
                {
                    "hash" : "0x396757b09562fd4a73b68e051741d3c042fe162f6974a8ade25526c8285c73ea",
                    "indexes" : {
                        "data" : 0,
                        "gas" : 1,
                        "value" : 0
                    },
                    "logs" : "0x1dcc4de8dec75d7aab85b567b6ccd41ad312451b948a7413f0a142fd40d49347",
                    "txbytes" : "0xf880800a830146a694094f5374fce5edbc8e2a8697c15331677e6ebf0b80a0000000000000000000000000b0005374fce5edbc8e2a8697c15331677e6ebf0b1ca0db84f755ee799db4ed515b208d36006a55c32e77ec366c543df3a3444f37289ca0525f9bfeab248ae11a4a5ed8341fe9fc61b5064604536f563f23567c7b1dee07"
                },
                {
                    "hash" : "0xfb5ca547855c47a51ccf05170d4aa0a840e98b1fff7289c7a219c2edd7b282c2",
                    "indexes" : {
                        "data" : 1,
                        "gas" : 0,
                        "value" : 0
                    },
                    "logs" : "0x1dcc4de8dec75d7aab85b567b6ccd41ad312451b948a7413f0a142fd40d49347",
                    "txbytes" : "0xf880800a830704e094094f5374fce5edbc8e2a8697c15331677e6ebf0b80a0000000000000000000000000b1005374fce5edbc8e2a8697c15331677e6ebf0b1ba017da61e37da10ae0bbded17c2356f0ff31623651b5acb26a46e450f716a2e02da004d064f8b8fc9371c31623ef0b9dc8ad2364a49d7db2806d00ef38f706419b3e"
                },
                {
                    "hash" : "0x396757b09562fd4a73b68e051741d3c042fe162f6974a8ade25526c8285c73ea",
                    "indexes" : {
                        "data" : 1,
                        "gas" : 1,
                        "value" : 0
                    },
                    "logs" : "0x1dcc4de8dec75d7aab85b567b6ccd41ad312451b948a7413f0a142fd40d49347",
                    "txbytes" : "0xf880800a830146a694094f5374fce5edbc8e2a8697c15331677e6ebf0b80a0000000000000000000000000b1005374fce5edbc8e2a8697c15331677e6ebf0b1ca0f5f74e2c86969890f88c9b14372f7b5bd58f21354c46b10ef103be87d63df5aea06b2fc3bd26f72d72e86aaee775487e428173f6131eb2b06e06ec3a41895cb843"
                },
                {
                    "hash" : "0x72ef2ea51ac48233222bf933312108b16d1c68520609cadb3c03169970218709",
                    "indexes" : {
                        "data" : 2,
                        "gas" : 0,
                        "value" : 0
                    },
                    "logs" : "0x1dcc4de8dec75d7aab85b567b6ccd41ad312451b948a7413f0a142fd40d49347",
                    "txbytes" : "0xf880800a830704e094094f5374fce5edbc8e2a8697c15331677e6ebf0b80a0000000000000000000000000b2005374fce5edbc8e2a8697c15331677e6ebf0b1ca06ae65a8a7b64691438bc4faa5cd9ab0912efbe97d9deed31ebfd12bc8300ed39a0273dea0411ecb9df6e086fc64a88d342344ade5e8ab3d2e113ff876a39c96639"
                },
                {
                    "hash" : "0x396757b09562fd4a73b68e051741d3c042fe162f6974a8ade25526c8285c73ea",
                    "indexes" : {
                        "data" : 2,
                        "gas" : 1,
                        "value" : 0
                    },
                    "logs" : "0x1dcc4de8dec75d7aab85b567b6ccd41ad312451b948a7413f0a142fd40d49347",
                    "txbytes" : "0xf880800a830146a694094f5374fce5edbc8e2a8697c15331677e6ebf0b80a0000000000000000000000000b2005374fce5edbc8e2a8697c15331677e6ebf0b1ba09444d5c8d6244238c20707940fce1cada88854c779e458fba6cf39fe2102baf0a0462f1316a046b2af09f7675f9db53ad69b9701ded33732698d173c24e99272b2"
                },
                {
                    "hash" : "0x15a660a41d1ab1ac81adbd8af8b3aab10117000f1f44b217c359a11f5948f9fa",
                    "indexes" : {
                        "data" : 3,
                        "gas" : 0,
                        "value" : 0
                    },
                    "logs" : "0x1dcc4de8dec75d7aab85b567b6ccd41ad312451b948a7413f0a142fd40d49347",
                    "txbytes" : "0xf880800a830704e094094f5374fce5edbc8e2a8697c15331677e6ebf0b80a0000000000000000000000000b3005374fce5edbc8e2a8697c15331677e6ebf0b1ba0ea0e828438a2c22f24ed3d84a6f9c8ea3af3a5bda15cef782226b3d4f1a02577a046604faa0d25c86949776f2917bb8a079ed2c2d48451529490c8810280057fc5"
                },
                {
                    "hash" : "0x396757b09562fd4a73b68e051741d3c042fe162f6974a8ade25526c8285c73ea",
                    "indexes" : {
                        "data" : 3,
                        "gas" : 1,
                        "value" : 0
                    },
                    "logs" : "0x1dcc4de8dec75d7aab85b567b6ccd41ad312451b948a7413f0a142fd40d49347",
                    "txbytes" : "0xf880800a830146a694094f5374fce5edbc8e2a8697c15331677e6ebf0b80a0000000000000000000000000b3005374fce5edbc8e2a8697c15331677e6ebf0b1ca00e181c3b0bb6790d8419ac1127874beccbdba3fbda11a72d441be2fa73dedb31a06feabd75c86020adeb3d133d7b3f9839fe25dc19596f074d56bf6c1550ced76e"
                }
            ],
            "Paris" : [
                {
                    "hash" : "0x95ff91731ec159f1c1d84fcfbbddc22060e1f4e4bcd18de4d6d7643919864434",
                    "indexes" : {
                        "data" : 0,
                        "gas" : 0,
                        "value" : 0
                    },
                    "logs" : "0x1dcc4de8dec75d7aab85b567b6ccd41ad312451b948a7413f0a142fd40d49347",
                    "txbytes" : "0xf880800a830704e094094f5374fce5edbc8e2a8697c15331677e6ebf0b80a0000000000000000000000000b0005374fce5edbc8e2a8697c15331677e6ebf0b1ca0568965a178adb1145245ac37643703f8107badd6bbd4ccb8e70d6b51013d11b8a03f15a0ae2b55dbd860ae5221c20933f43e63a1a5f693697de43e5617eeaa0338"
                },
                {
                    "hash" : "0x396757b09562fd4a73b68e051741d3c042fe162f6974a8ade25526c8285c73ea",
                    "indexes" : {
                        "data" : 0,
                        "gas" : 1,
                        "value" : 0
                    },
                    "logs" : "0x1dcc4de8dec75d7aab85b567b6ccd41ad312451b948a7413f0a142fd40d49347",
                    "txbytes" : "0xf880800a830146a694094f5374fce5edbc8e2a8697c15331677e6ebf0b80a0000000000000000000000000b0005374fce5edbc8e2a8697c15331677e6ebf0b1ca0db84f755ee799db4ed515b208d36006a55c32e77ec366c543df3a3444f37289ca0525f9bfeab248ae11a4a5ed8341fe9fc61b5064604536f563f23567c7b1dee07"
                },
                {
                    "hash" : "0xfb5ca547855c47a51ccf05170d4aa0a840e98b1fff7289c7a219c2edd7b282c2",
                    "indexes" : {
                        "data" : 1,
                        "gas" : 0,
                        "value" : 0
                    },
                    "logs" : "0x1dcc4de8dec75d7aab85b567b6ccd41ad312451b948a7413f0a142fd40d49347",
                    "txbytes" : "0xf880800a830704e094094f5374fce5edbc8e2a8697c15331677e6ebf0b80a0000000000000000000000000b1005374fce5edbc8e2a8697c15331677e6ebf0b1ba017da61e37da10ae0bbded17c2356f0ff31623651b5acb26a46e450f716a2e02da004d064f8b8fc9371c31623ef0b9dc8ad2364a49d7db2806d00ef38f706419b3e"
                },
                {
                    "hash" : "0x396757b09562fd4a73b68e051741d3c042fe162f6974a8ade25526c8285c73ea",
                    "indexes" : {
                        "data" : 1,
                        "gas" : 1,
                        "value" : 0
                    },
                    "logs" : "0x1dcc4de8dec75d7aab85b567b6ccd41ad312451b948a7413f0a142fd40d49347",
                    "txbytes" : "0xf880800a830146a694094f5374fce5edbc8e2a8697c15331677e6ebf0b80a0000000000000000000000000b1005374fce5edbc8e2a8697c15331677e6ebf0b1ca0f5f74e2c86969890f88c9b14372f7b5bd58f21354c46b10ef103be87d63df5aea06b2fc3bd26f72d72e86aaee775487e428173f6131eb2b06e06ec3a41895cb843"
                },
                {
                    "hash" : "0x72ef2ea51ac48233222bf933312108b16d1c68520609cadb3c03169970218709",
                    "indexes" : {
                        "data" : 2,
                        "gas" : 0,
                        "value" : 0
                    },
                    "logs" : "0x1dcc4de8dec75d7aab85b567b6ccd41ad312451b948a7413f0a142fd40d49347",
                    "txbytes" : "0xf880800a830704e094094f5374fce5edbc8e2a8697c15331677e6ebf0b80a0000000000000000000000000b2005374fce5edbc8e2a8697c15331677e6ebf0b1ca06ae65a8a7b64691438bc4faa5cd9ab0912efbe97d9deed31ebfd12bc8300ed39a0273dea0411ecb9df6e086fc64a88d342344ade5e8ab3d2e113ff876a39c96639"
                },
                {
                    "hash" : "0x396757b09562fd4a73b68e051741d3c042fe162f6974a8ade25526c8285c73ea",
                    "indexes" : {
                        "data" : 2,
                        "gas" : 1,
                        "value" : 0
                    },
                    "logs" : "0x1dcc4de8dec75d7aab85b567b6ccd41ad312451b948a7413f0a142fd40d49347",
                    "txbytes" : "0xf880800a830146a694094f5374fce5edbc8e2a8697c15331677e6ebf0b80a0000000000000000000000000b2005374fce5edbc8e2a8697c15331677e6ebf0b1ba09444d5c8d6244238c20707940fce1cada88854c779e458fba6cf39fe2102baf0a0462f1316a046b2af09f7675f9db53ad69b9701ded33732698d173c24e99272b2"
                },
                {
                    "hash" : "0x15a660a41d1ab1ac81adbd8af8b3aab10117000f1f44b217c359a11f5948f9fa",
                    "indexes" : {
                        "data" : 3,
                        "gas" : 0,
                        "value" : 0
                    },
                    "logs" : "0x1dcc4de8dec75d7aab85b567b6ccd41ad312451b948a7413f0a142fd40d49347",
                    "txbytes" : "0xf880800a830704e094094f5374fce5edbc8e2a8697c15331677e6ebf0b80a0000000000000000000000000b3005374fce5edbc8e2a8697c15331677e6ebf0b1ba0ea0e828438a2c22f24ed3d84a6f9c8ea3af3a5bda15cef782226b3d4f1a02577a046604faa0d25c86949776f2917bb8a079ed2c2d48451529490c8810280057fc5"
                },
                {
                    "hash" : "0x396757b09562fd4a73b68e051741d3c042fe162f6974a8ade25526c8285c73ea",
                    "indexes" : {
                        "data" : 3,
                        "gas" : 1,
                        "value" : 0
                    },
                    "logs" : "0x1dcc4de8dec75d7aab85b567b6ccd41ad312451b948a7413f0a142fd40d49347",
                    "txbytes" : "0xf880800a830146a694094f5374fce5edbc8e2a8697c15331677e6ebf0b80a0000000000000000000000000b3005374fce5edbc8e2a8697c15331677e6ebf0b1ca00e181c3b0bb6790d8419ac1127874beccbdba3fbda11a72d441be2fa73dedb31a06feabd75c86020adeb3d133d7b3f9839fe25dc19596f074d56bf6c1550ced76e"
                }
            ],
            "Shanghai" : [
                {
                    "hash" : "0x95ff91731ec159f1c1d84fcfbbddc22060e1f4e4bcd18de4d6d7643919864434",
                    "indexes" : {
                        "data" : 0,
                        "gas" : 0,
                        "value" : 0
                    },
                    "logs" : "0x1dcc4de8dec75d7aab85b567b6ccd41ad312451b948a7413f0a142fd40d49347",
                    "txbytes" : "0xf880800a830704e094094f5374fce5edbc8e2a8697c15331677e6ebf0b80a0000000000000000000000000b0005374fce5edbc8e2a8697c15331677e6ebf0b1ca0568965a178adb1145245ac37643703f8107badd6bbd4ccb8e70d6b51013d11b8a03f15a0ae2b55dbd860ae5221c20933f43e63a1a5f693697de43e5617eeaa0338"
                },
                {
                    "hash" : "0x396757b09562fd4a73b68e051741d3c042fe162f6974a8ade25526c8285c73ea",
                    "indexes" : {
                        "data" : 0,
                        "gas" : 1,
                        "value" : 0
                    },
                    "logs" : "0x1dcc4de8dec75d7aab85b567b6ccd41ad312451b948a7413f0a142fd40d49347",
                    "txbytes" : "0xf880800a830146a694094f5374fce5edbc8e2a8697c15331677e6ebf0b80a0000000000000000000000000b0005374fce5edbc8e2a8697c15331677e6ebf0b1ca0db84f755ee799db4ed515b208d36006a55c32e77ec366c543df3a3444f37289ca0525f9bfeab248ae11a4a5ed8341fe9fc61b5064604536f563f23567c7b1dee07"
                },
                {
                    "hash" : "0xfb5ca547855c47a51ccf05170d4aa0a840e98b1fff7289c7a219c2edd7b282c2",
                    "indexes" : {
                        "data" : 1,
                        "gas" : 0,
                        "value" : 0
                    },
                    "logs" : "0x1dcc4de8dec75d7aab85b567b6ccd41ad312451b948a7413f0a142fd40d49347",
                    "txbytes" : "0xf880800a830704e094094f5374fce5edbc8e2a8697c15331677e6ebf0b80a0000000000000000000000000b1005374fce5edbc8e2a8697c15331677e6ebf0b1ba017da61e37da10ae0bbded17c2356f0ff31623651b5acb26a46e450f716a2e02da004d064f8b8fc9371c31623ef0b9dc8ad2364a49d7db2806d00ef38f706419b3e"
                },
                {
                    "hash" : "0x396757b09562fd4a73b68e051741d3c042fe162f6974a8ade25526c8285c73ea",
                    "indexes" : {
                        "data" : 1,
                        "gas" : 1,
                        "value" : 0
                    },
                    "logs" : "0x1dcc4de8dec75d7aab85b567b6ccd41ad312451b948a7413f0a142fd40d49347",
                    "txbytes" : "0xf880800a830146a694094f5374fce5edbc8e2a8697c15331677e6ebf0b80a0000000000000000000000000b1005374fce5edbc8e2a8697c15331677e6ebf0b1ca0f5f74e2c86969890f88c9b14372f7b5bd58f21354c46b10ef103be87d63df5aea06b2fc3bd26f72d72e86aaee775487e428173f6131eb2b06e06ec3a41895cb843"
                },
                {
                    "hash" : "0x72ef2ea51ac48233222bf933312108b16d1c68520609cadb3c03169970218709",
                    "indexes" : {
                        "data" : 2,
                        "gas" : 0,
                        "value" : 0
                    },
                    "logs" : "0x1dcc4de8dec75d7aab85b567b6ccd41ad312451b948a7413f0a142fd40d49347",
                    "txbytes" : "0xf880800a830704e094094f5374fce5edbc8e2a8697c15331677e6ebf0b80a0000000000000000000000000b2005374fce5edbc8e2a8697c15331677e6ebf0b1ca06ae65a8a7b64691438bc4faa5cd9ab0912efbe97d9deed31ebfd12bc8300ed39a0273dea0411ecb9df6e086fc64a88d342344ade5e8ab3d2e113ff876a39c96639"
                },
                {
                    "hash" : "0x396757b09562fd4a73b68e051741d3c042fe162f6974a8ade25526c8285c73ea",
                    "indexes" : {
                        "data" : 2,
                        "gas" : 1,
                        "value" : 0
                    },
                    "logs" : "0x1dcc4de8dec75d7aab85b567b6ccd41ad312451b948a7413f0a142fd40d49347",
                    "txbytes" : "0xf880800a830146a694094f5374fce5edbc8e2a8697c15331677e6ebf0b80a0000000000000000000000000b2005374fce5edbc8e2a8697c15331677e6ebf0b1ba09444d5c8d6244238c20707940fce1cada88854c779e458fba6cf39fe2102baf0a0462f1316a046b2af09f7675f9db53ad69b9701ded33732698d173c24e99272b2"
                },
                {
                    "hash" : "0x15a660a41d1ab1ac81adbd8af8b3aab10117000f1f44b217c359a11f5948f9fa",
                    "indexes" : {
                        "data" : 3,
                        "gas" : 0,
                        "value" : 0
                    },
                    "logs" : "0x1dcc4de8dec75d7aab85b567b6ccd41ad312451b948a7413f0a142fd40d49347",
                    "txbytes" : "0xf880800a830704e094094f5374fce5edbc8e2a8697c15331677e6ebf0b80a0000000000000000000000000b3005374fce5edbc8e2a8697c15331677e6ebf0b1ba0ea0e828438a2c22f24ed3d84a6f9c8ea3af3a5bda15cef782226b3d4f1a02577a046604faa0d25c86949776f2917bb8a079ed2c2d48451529490c8810280057fc5"
                },
                {
                    "hash" : "0x396757b09562fd4a73b68e051741d3c042fe162f6974a8ade25526c8285c73ea",
                    "indexes" : {
                        "data" : 3,
                        "gas" : 1,
                        "value" : 0
                    },
                    "logs" : "0x1dcc4de8dec75d7aab85b567b6ccd41ad312451b948a7413f0a142fd40d49347",
                    "txbytes" : "0xf880800a830146a694094f5374fce5edbc8e2a8697c15331677e6ebf0b80a0000000000000000000000000b3005374fce5edbc8e2a8697c15331677e6ebf0b1ca00e181c3b0bb6790d8419ac1127874beccbdba3fbda11a72d441be2fa73dedb31a06feabd75c86020adeb3d133d7b3f9839fe25dc19596f074d56bf6c1550ced76e"
                }
            ]
        },
        "pre" : {
            "0x000f3df6d732807ef1319fb7b8bb8522d0beac02" : {
                "balance" : "0x00",
                "code" : "0x3373fffffffffffffffffffffffffffffffffffffffe14604d57602036146024575f5ffd5b5f35801560495762001fff810690815414603c575f5ffd5b62001fff01545f5260205ff35b5f5ffd5b62001fff42064281555f359062001fff015500",
                "nonce" : "0x01",
                "storage" : {
                }
            },
            "0x094f5374fce5edbc8e2a8697c15331677e6ebf0b" : {
                "balance" : "0x01",
                "code" : "0x600060006000600060006000356203f7a0f1600a5500",
                "nonce" : "0x00",
                "storage" : {
                }
            },
            "0xa94f5374fce5edbc8e2a8697c15331677e6ebf0b" : {
                "balance" : "0xe8d4a51000",
                "code" : "0x",
                "nonce" : "0x00",
                "storage" : {
                }
            },
            "0xb0005374fce5edbc8e2a8697c15331677e6ebf0b" : {
                "balance" : "0x01",
                "code" : "0x6000600060006000600073c94f5374fce5edbc8e2a8697c15331677e6ebf0b61c350f1600055600e60025500",
                "nonce" : "0x00",
                "storage" : {
                }
            },
            "0xb1005374fce5edbc8e2a8697c15331677e6ebf0b" : {
                "balance" : "0x01",
                "code" : "0x6000600060006000600073c94f5374fce5edbc8e2a8697c15331677e6ebf0b61c350f2600055600e60025500",
                "nonce" : "0x00",
                "storage" : {
                }
            },
            "0xb2005374fce5edbc8e2a8697c15331677e6ebf0b" : {
                "balance" : "0x01",
                "code" : "0x600060006000600073c94f5374fce5edbc8e2a8697c15331677e6ebf0b61c350f4600055600e60025500",
                "nonce" : "0x00",
                "storage" : {
                }
            },
            "0xb3005374fce5edbc8e2a8697c15331677e6ebf0b" : {
                "balance" : "0x01",
                "code" : "0x6000600060006000600073b3305374fce5edbc8e2a8697c15331677e6ebf0b620186a0f1600055600e60025500",
                "nonce" : "0x00",
                "storage" : {
                }
            },
            "0xb3305374fce5edbc8e2a8697c15331677e6ebf0b" : {
                "balance" : "0x01",
                "code" : "0x6000600060006000600073c94f5374fce5edbc8e2a8697c15331677e6ebf0b61c350f1600455600e60055500",
                "nonce" : "0x00",
                "storage" : {
                }
            },
            "0xc94f5374fce5edbc8e2a8697c15331677e6ebf0b" : {
                "balance" : "0x01",
                "code" : "0x600c60015560016000fd600d60035500",
                "nonce" : "0x00",
                "storage" : {
                }
            }
        },
        "transaction" : {
            "data" : [
                "0x000000000000000000000000b0005374fce5edbc8e2a8697c15331677e6ebf0b",
                "0x000000000000000000000000b1005374fce5edbc8e2a8697c15331677e6ebf0b",
                "0x000000000000000000000000b2005374fce5edbc8e2a8697c15331677e6ebf0b",
                "0x000000000000000000000000b3005374fce5edbc8e2a8697c15331677e6ebf0b"
            ],
            "gasLimit" : [
                "0x0704e0",
                "0x0146a6"
            ],
            "gasPrice" : "0x0a",
            "nonce" : "0x00",
            "secretKey" : "0x45a915e4d060149eb4365960e6a7a45f334393093061116b197e3240065ff2d8",
            "sender" : "0xa94f5374fce5edbc8e2a8697c15331677e6ebf0b",
            "to" : "0x094f5374fce5edbc8e2a8697c15331677e6ebf0b",
            "value" : [
                "0x00"
            ]
        }
    }
}