{
    "RevertDepthCreateOOG" : {
        "_info" : {
            "comment" : "",
            "filling-rpc-server" : "evm version 1.10.2-unstable-22082f9e-20210309",
            "filling-tool-version" : "retesteth-0.1.0-accesslist+commit.47c69eb3.Linux.g++",
            "lllcversion" : "Version: 0.5.14-develop.2020.6.22+commit.9189ad7a.Linux.g++",
            "source" : "src/GeneralStateTestsFiller/stRevertTest/RevertDepthCreateOOGFiller.json",
            "sourceHash" : "e2dfcb6072b4e443542ca2fd2de67cd10107013950de77ddbcb54ff656ab454f"
        },
        "env" : {
            "currentCoinbase" : "0x2adc25665018aa1fe0e6bc666dac8fc2697ff9ba",
            "currentDifficulty" : "0x020000",
            "currentGasLimit" : "0x989680",
            "currentNumber" : "0x01",
            "currentTimestamp" : "0x03e8",
            "previousHash" : "0x5e20a0453cecd065ea59c37ac63e079ee08998b6045136a8ce6635c7912ec0b6"
        },
        "post" : {
            "Berlin" : [
                {
                    "indexes" : {
                        "data" : 1,
                        "gas" : 1,
                        "value" : 0
                    },
                    "hash" : "0xcb15f4059aa2f4f367fb47185a4a3b01e8b07a4f3a78e5805cc4db2253e0739d",
                    "txbytes" : "0xf88080018302bf2094a00000000000000000000000000000000000000001a0000000000000000000000000000000000000000000000000000000000001ea601ba0321dfdd7439821005331618e92aa3ade62f69d4a0e7ef1059ecf4c189084efb5a040919043719e3685e269100f851e51e1c66e51e809a9821dd4f265b08ed6970a",
                    "logs" : "0x1dcc4de8dec75d7aab85b567b6ccd41ad312451b948a7413f0a142fd40d49347"
                },
                {
                    "indexes" : {
                        "data" : 1,
                        "gas" : 1,
                        "value" : 1
                    },
                    "hash" : "0xc7c54572e9b6e10cc413450082937118a78c686baa2a73d3d36722cb8b423562",
                    "txbytes" : "0xf88080018302bf2094a00000000000000000000000000000000000000080a0000000000000000000000000000000000000000000000000000000000001ea601ca0ab8bfbd44fa2ee494c1e61466b051456cdc9cd82ff63b59a422fb7ee3e0984e2a0588e8d36d8dfe98b08ebf11ddd800747c259cfc34006a628b85abec2a07d4a9d",
                    "logs" : "0x1dcc4de8dec75d7aab85b567b6ccd41ad312451b948a7413f0a142fd40d49347"
                },
                {
                    "indexes" : {
                        "data" : 0,
                        "gas" : 1,
                        "value" : 0
                    },
                    "hash" : "0x91ef1aee1e3e8b5e6639d1e0bc187b4fe996fdd11be641f547e4e2a19f2d659d",
                    "txbytes" : "0xf88080018302bf2094a00000000000000000000000000000000000000001a0000000000000000000000000000000000000000000000000000000000000ea601ca05eb04f092611f667c1b9d284adcb65befedff96de221d2ad6698498f11c7d74fa022fc9d4b1c9429429a3bc8c491944370e215a015a0f274c43c6827d30cc4d63d",
                    "logs" : "0x1dcc4de8dec75d7aab85b567b6ccd41ad312451b948a7413f0a142fd40d49347"
                },
                {
                    "indexes" : {
                        "data" : 0,
                        "gas" : 1,
                        "value" : 1
                    },
                    "hash" : "0xb9f68ee156675f78c6270dfa2150e6d854c01e9894c96b41ec0fbd03f9243b76",
                    "txbytes" : "0xf88080018302bf2094a00000000000000000000000000000000000000080a0000000000000000000000000000000000000000000000000000000000000ea601ca08ac51edef2631febb8498788f3a51a28f1f1215a986e13417c3cb78d1f459dc3a04270dd0ba880a487bef649e48cfc06ceb8a32651c97af28e59c8e723021a6092",
                    "logs" : "0x1dcc4de8dec75d7aab85b567b6ccd41ad312451b948a7413f0a142fd40d49347"
                },
                {
                    "indexes" : {
                        "data" : 0,
                        "gas" : 0,
                        "value" : 0
                    },
                    "hash" : "0x1060fd06fe924cfb3d012cacbb34348dcef8202d703dd148d398d9ab43ab227f",
                    "txbytes" : "0xf88080018301adb094a00000000000000000000000000000000000000001a0000000000000000000000000000000000000000000000000000000000000ea601ba0c09f0930b3eeb8be40c225e41b5ea10e44ed709ceb369cd6575024772a0f5de4a07272d8cf7a2095e0970779159a518c3977a812e449b913421f2455421b40ada1",
                    "logs" : "0x1dcc4de8dec75d7aab85b567b6ccd41ad312451b948a7413f0a142fd40d49347"
                },
                {
                    "indexes" : {
                        "data" : 0,
                        "gas" : 0,
                        "value" : 1
                    },
                    "hash" : "0x1060fd06fe924cfb3d012cacbb34348dcef8202d703dd148d398d9ab43ab227f",
                    "txbytes" : "0xf88080018301adb094a00000000000000000000000000000000000000080a0000000000000000000000000000000000000000000000000000000000000ea601ca06eea972a7a8069ae1b6154b059125ea8b04f4304eeb688c9fb2446e5685187dea07dfb3835a8e0eb0454e8aa2a5c9e8d5aad18a0149b0aeae9b34132b542ac00e2",
                    "logs" : "0x1dcc4de8dec75d7aab85b567b6ccd41ad312451b948a7413f0a142fd40d49347"
                },
                {
                    "indexes" : {
                        "data" : 1,
                        "gas" : 0,
                        "value" : 0
                    },
                    "hash" : "0x1060fd06fe924cfb3d012cacbb34348dcef8202d703dd148d398d9ab43ab227f",
                    "txbytes" : "0xf88080018301adb094a00000000000000000000000000000000000000001a0000000000000000000000000000000000000000000000000000000000001ea601ca04213ac8b4b3c33b23dd2dfda78529cb401df8f842615a619da4b37aa8038f5e7a0202463edf05016446b9da81c28cfdab638b6b38951cf125c301152b519af81a9",
                    "logs" : "0x1dcc4de8dec75d7aab85b567b6ccd41ad312451b948a7413f0a142fd40d49347"
                },
                {
                    "indexes" : {
                        "data" : 1,
                        "gas" : 0,
                        "value" : 1
                    },
                    "hash" : "0x1060fd06fe924cfb3d012cacbb34348dcef8202d703dd148d398d9ab43ab227f",
                    "txbytes" : "0xf88080018301adb094a00000000000000000000000000000000000000080a0000000000000000000000000000000000000000000000000000000000001ea601ba0ff491c0b7f31cf86760aa16bf5f085bb5447072c803bfbe33d896e2d187d1400a020655025796a72c2ca449a0101799b0f4fcbe374a7f4c9c1e205b5f418b86f64",
                    "logs" : "0x1dcc4de8dec75d7aab85b567b6ccd41ad312451b948a7413f0a142fd40d49347"
                }
            ],
            "Istanbul" : [
                {
                    "indexes" : {
                        "data" : 1,
                        "gas" : 1,
                        "value" : 0
                    },
                    "hash" : "0x15dfcf8179f943054a86ebb6c634ec9540469e804177940fcf8fabd57fac6d98",
                    "txbytes" : "0xf88080018302bf2094a00000000000000000000000000000000000000001a0000000000000000000000000000000000000000000000000000000000001ea601ba0321dfdd7439821005331618e92aa3ade62f69d4a0e7ef1059ecf4c189084efb5a040919043719e3685e269100f851e51e1c66e51e809a9821dd4f265b08ed6970a",
                    "logs" : "0x1dcc4de8dec75d7aab85b567b6ccd41ad312451b948a7413f0a142fd40d49347"
                },
                {
                    "indexes" : {
                        "data" : 1,
                        "gas" : 1,
                        "value" : 1
                    },
                    "hash" : "0xd8fa530020a175f2196a74d54e63da63c35f0776ecc76a427840744df79d2429",
                    "txbytes" : "0xf88080018302bf2094a00000000000000000000000000000000000000080a0000000000000000000000000000000000000000000000000000000000001ea601ca0ab8bfbd44fa2ee494c1e61466b051456cdc9cd82ff63b59a422fb7ee3e0984e2a0588e8d36d8dfe98b08ebf11ddd800747c259cfc34006a628b85abec2a07d4a9d",
                    "logs" : "0x1dcc4de8dec75d7aab85b567b6ccd41ad312451b948a7413f0a142fd40d49347"
                },
                {
                    "indexes" : {
                        "data" : 0,
                        "gas" : 1,
                        "value" : 0
                    },
                    "hash" : "0xa9c91124bafa952e404df9d1f7cd0d53e8d3371aba0fc3e9d5c997a943efcbc7",
                    "txbytes" : "0xf88080018302bf2094a00000000000000000000000000000000000000001a0000000000000000000000000000000000000000000000000000000000000ea601ca05eb04f092611f667c1b9d284adcb65befedff96de221d2ad6698498f11c7d74fa022fc9d4b1c9429429a3bc8c491944370e215a015a0f274c43c6827d30cc4d63d",
                    "logs" : "0x1dcc4de8dec75d7aab85b567b6ccd41ad312451b948a7413f0a142fd40d49347"
                },
                {
                    "indexes" : {
                        "data" : 0,
                        "gas" : 1,
                        "value" : 1
                    },
                    "hash" : "0xfcb5a3123ea8f138411f392b161262b6f9132b2ff9183018774778eae316f276",
                    "txbytes" : "0xf88080018302bf2094a00000000000000000000000000000000000000080a0000000000000000000000000000000000000000000000000000000000000ea601ca08ac51edef2631febb8498788f3a51a28f1f1215a986e13417c3cb78d1f459dc3a04270dd0ba880a487bef649e48cfc06ceb8a32651c97af28e59c8e723021a6092",
                    "logs" : "0x1dcc4de8dec75d7aab85b567b6ccd41ad312451b948a7413f0a142fd40d49347"
                },
                {
                    "indexes" : {
                        "data" : 0,
                        "gas" : 0,
                        "value" : 0
                    },
                    "hash" : "0x1060fd06fe924cfb3d012cacbb34348dcef8202d703dd148d398d9ab43ab227f",
                    "txbytes" : "0xf88080018301adb094a00000000000000000000000000000000000000001a0000000000000000000000000000000000000000000000000000000000000ea601ba0c09f0930b3eeb8be40c225e41b5ea10e44ed709ceb369cd6575024772a0f5de4a07272d8cf7a2095e0970779159a518c3977a812e449b913421f2455421b40ada1",
                    "logs" : "0x1dcc4de8dec75d7aab85b567b6ccd41ad312451b948a7413f0a142fd40d49347"
                },
                {
                    "indexes" : {
                        "data" : 0,
                        "gas" : 0,
                        "value" : 1
                    },
                    "hash" : "0x1060fd06fe924cfb3d012cacbb34348dcef8202d703dd148d398d9ab43ab227f",
                    "txbytes" : "0xf88080018301adb094a00000000000000000000000000000000000000080a0000000000000000000000000000000000000000000000000000000000000ea601ca06eea972a7a8069ae1b6154b059125ea8b04f4304eeb688c9fb2446e5685187dea07dfb3835a8e0eb0454e8aa2a5c9e8d5aad18a0149b0aeae9b34132b542ac00e2",
                    "logs" : "0x1dcc4de8dec75d7aab85b567b6ccd41ad312451b948a7413f0a142fd40d49347"
                },
                {
                    "indexes" : {
                        "data" : 1,
                        "gas" : 0,
                        "value" : 0
                    },
                    "hash" : "0x1060fd06fe924cfb3d012cacbb34348dcef8202d703dd148d398d9ab43ab227f",
                    "txbytes" : "0xf88080018301adb094a00000000000000000000000000000000000000001a0000000000000000000000000000000000000000000000000000000000001ea601ca04213ac8b4b3c33b23dd2dfda78529cb401df8f842615a619da4b37aa8038f5e7a0202463edf05016446b9da81c28cfdab638b6b38951cf125c301152b519af81a9",
                    "logs" : "0x1dcc4de8dec75d7aab85b567b6ccd41ad312451b948a7413f0a142fd40d49347"
                },
                {
                    "indexes" : {
                        "data" : 1,
                        "gas" : 0,
                        "value" : 1
                    },
                    "hash" : "0x1060fd06fe924cfb3d012cacbb34348dcef8202d703dd148d398d9ab43ab227f",
                    "txbytes" : "0xf88080018301adb094a00000000000000000000000000000000000000080a0000000000000000000000000000000000000000000000000000000000001ea601ba0ff491c0b7f31cf86760aa16bf5f085bb5447072c803bfbe33d896e2d187d1400a020655025796a72c2ca449a0101799b0f4fcbe374a7f4c9c1e205b5f418b86f64",
                    "logs" : "0x1dcc4de8dec75d7aab85b567b6ccd41ad312451b948a7413f0a142fd40d49347"
                }
            ]
        },
        "pre" : {
            "0xa000000000000000000000000000000000000000" : {
                "balance" : "0x05",
                "code" : "0x60016000556000600060006000600073b000000000000000000000000000000000000000600035f1600155600c60045500",
                "nonce" : "0x36",
                "storage" : {
                }
            },
            "0xa94f5374fce5edbc8e2a8697c15331677e6ebf0b" : {
                "balance" : "0xe8d4a51000",
                "code" : "0x",
                "nonce" : "0x00",
                "storage" : {
                }
            },
            "0xb000000000000000000000000000000000000000" : {
                "balance" : "0x00",
                "code" : "0x6008600255600060006000f050600c60035500",
                "nonce" : "0x00",
                "storage" : {
                }
            }
        },
        "transaction" : {
            "data" : [
                "0x000000000000000000000000000000000000000000000000000000000000ea60",
                "0x000000000000000000000000000000000000000000000000000000000001ea60"
            ],
            "gasLimit" : [
                "0x01adb0",
                "0x02bf20"
            ],
            "gasPrice" : "0x01",
            "nonce" : "0x00",
            "secretKey" : "0x45a915e4d060149eb4365960e6a7a45f334393093061116b197e3240065ff2d8",
            "to" : "0xa000000000000000000000000000000000000000",
            "value" : [
                "0x01",
                "0x00"
            ]
        }
    }
}