{
    "TouchToEmptyAccountRevert_Paris" : {
        "_info" : {
            "comment" : "",
            "filling-rpc-server" : "evm version 1.13.13-unstable-034bc466-20240219",
            "filling-tool-version" : "retesteth-0.3.2-cancun+commit.014a68a5.Linux.g++",
            "generatedTestHash" : "423f16b4c325dab11b921d5bf45f7f2b0ea370b875fb446f9fd2a3506daff90b",
            "lllcversion" : "Version: 0.5.14-develop.2023.7.11+commit.c58ab2c6.mod.Linux.g++",
            "solidity" : "Version: 0.8.21+commit.d9974bed.Linux.g++",
            "source" : "src/GeneralStateTestsFiller/stRevertTest/TouchToEmptyAccountRevert_ParisFiller.json",
            "sourceHash" : "ca746ad969347080f481ed9c1b3d2aed319a583840895c007d063df5dd21dc62"
        },
        "env" : {
            "currentBaseFee" : "0x0a",
            "currentCoinbase" : "0x2adc25665018aa1fe0e6bc666dac8fc2697ff9ba",
            "currentDifficulty" : "0x020000",
            "currentExcessBlobGas" : "0x00",
            "currentGasLimit" : "0x989680",
            "currentNumber" : "0x01",
            "currentRandom" : "0x0000000000000000000000000000000000000000000000000000000000020000",
            "currentTimestamp" : "0x03e8"
        },
        "post" : {
            "Berlin" : [
                {
                    "hash" : "0x64f75537f24679c4f1fe464e68d8d0aba519abfa3ea680a893b61ea4941bc1c3",
                    "indexes" : {
                        "data" : 0,
                        "gas" : 0,
                        "value" : 0
                    },
                    "logs" : "0x1dcc4de8dec75d7aab85b567b6ccd41ad312451b948a7413f0a142fd40d49347",
                    "txbytes" : "0xf860800a8301117094b94f5374fce5edbc8e2a8697c15331677e6ebf0b80801ba0ea21bb838ec81bf1723cd1cac4cb896694761a548d9c5831bc6348abfd1a6b4ea05d5257a0d7a7bc1c9d50ff024881768f69dc5e657f53eb36d4b1851ada48347c"
                }
            ],
            "Cancun" : [
                {
                    "hash" : "0x8bc25cb8adf7aedb855b4e3c224a3cc79b5753ca633d6d0166657dd14228ad51",
                    "indexes" : {
                        "data" : 0,
                        "gas" : 0,
                        "value" : 0
                    },
                    "logs" : "0x1dcc4de8dec75d7aab85b567b6ccd41ad312451b948a7413f0a142fd40d49347",
                    "txbytes" : "0xf860800a8301117094b94f5374fce5edbc8e2a8697c15331677e6ebf0b80801ba0ea21bb838ec81bf1723cd1cac4cb896694761a548d9c5831bc6348abfd1a6b4ea05d5257a0d7a7bc1c9d50ff024881768f69dc5e657f53eb36d4b1851ada48347c"
                }
            ],
            "Istanbul" : [
                {
                    "hash" : "0x64f75537f24679c4f1fe464e68d8d0aba519abfa3ea680a893b61ea4941bc1c3",
                    "indexes" : {
                        "data" : 0,
                        "gas" : 0,
                        "value" : 0
                    },
                    "logs" : "0x1dcc4de8dec75d7aab85b567b6ccd41ad312451b948a7413f0a142fd40d49347",
                    "txbytes" : "0xf860800a8301117094b94f5374fce5edbc8e2a8697c15331677e6ebf0b80801ba0ea21bb838ec81bf1723cd1cac4cb896694761a548d9c5831bc6348abfd1a6b4ea05d5257a0d7a7bc1c9d50ff024881768f69dc5e657f53eb36d4b1851ada48347c"
                }
            ],
            "London" : [
                {
                    "hash" : "0x0b8cc0546d7390a85231d5ad6617f385216993a31a23f5f85060ea6b3bdca56e",
                    "indexes" : {
                        "data" : 0,
                        "gas" : 0,
                        "value" : 0
                    },
                    "logs" : "0x1dcc4de8dec75d7aab85b567b6ccd41ad312451b948a7413f0a142fd40d49347",
                    "txbytes" : "0xf860800a8301117094b94f5374fce5edbc8e2a8697c15331677e6ebf0b80801ba0ea21bb838ec81bf1723cd1cac4cb896694761a548d9c5831bc6348abfd1a6b4ea05d5257a0d7a7bc1c9d50ff024881768f69dc5e657f53eb36d4b1851ada48347c"
                }
            ],
            "Paris" : [
                {
                    "hash" : "0x0b8cc0546d7390a85231d5ad6617f385216993a31a23f5f85060ea6b3bdca56e",
                    "indexes" : {
                        "data" : 0,
                        "gas" : 0,
                        "value" : 0
                    },
                    "logs" : "0x1dcc4de8dec75d7aab85b567b6ccd41ad312451b948a7413f0a142fd40d49347",
                    "txbytes" : "0xf860800a8301117094b94f5374fce5edbc8e2a8697c15331677e6ebf0b80801ba0ea21bb838ec81bf1723cd1cac4cb896694761a548d9c5831bc6348abfd1a6b4ea05d5257a0d7a7bc1c9d50ff024881768f69dc5e657f53eb36d4b1851ada48347c"
                }
            ],
            "Shanghai" : [
                {
                    "hash" : "0x0b8cc0546d7390a85231d5ad6617f385216993a31a23f5f85060ea6b3bdca56e",
                    "indexes" : {
                        "data" : 0,
                        "gas" : 0,
                        "value" : 0
                    },
                    "logs" : "0x1dcc4de8dec75d7aab85b567b6ccd41ad312451b948a7413f0a142fd40d49347",
                    "txbytes" : "0xf860800a8301117094b94f5374fce5edbc8e2a8697c15331677e6ebf0b80801ba0ea21bb838ec81bf1723cd1cac4cb896694761a548d9c5831bc6348abfd1a6b4ea05d5257a0d7a7bc1c9d50ff024881768f69dc5e657f53eb36d4b1851ada48347c"
                }
            ]
        },
        "pre" : {
            "0x000f3df6d732807ef1319fb7b8bb8522d0beac02" : {
                "balance" : "0x00",
                "code" : "0x3373fffffffffffffffffffffffffffffffffffffffe14604d57602036146024575f5ffd5b5f35801560495762001fff810690815414603c575f5ffd5b62001fff01545f5260205ff35b5f5ffd5b62001fff42064281555f359062001fff015500",
                "nonce" : "0x01",
                "storage" : {
                }
            },
            "0x1000000000000000000000000000000000000000" : {
                "balance" : "0x0a",
                "code" : "0x",
                "nonce" : "0x00",
                "storage" : {
                }
            },
            "0xa94f5374fce5edbc8e2a8697c15331677e6ebf0b" : {
                "balance" : "0xe8d4a51000",
                "code" : "0x",
                "nonce" : "0x00",
                "storage" : {
                }
            },
            "0xb94f5374fce5edbc8e2a8697c15331677e6ebf0b" : {
                "balance" : "0x00",
                "code" : "0x6000600060006000600073c94f5374fce5edbc8e2a8697c15331677e6ebf0b617530f1600055600160025500",
                "nonce" : "0x00",
                "storage" : {
                }
            },
            "0xc94f5374fce5edbc8e2a8697c15331677e6ebf0b" : {
                "balance" : "0x00",
                "code" : "0x60006000600060006000731000000000000000000000000000000000000000617530f160015500",
                "nonce" : "0x00",
                "storage" : {
                }
            }
        },
        "transaction" : {
            "data" : [
                "0x"
            ],
            "gasLimit" : [
                "0x011170"
            ],
            "gasPrice" : "0x0a",
            "nonce" : "0x00",
            "secretKey" : "0x45a915e4d060149eb4365960e6a7a45f334393093061116b197e3240065ff2d8",
            "sender" : "0xa94f5374fce5edbc8e2a8697c15331677e6ebf0b",
            "to" : "0xb94f5374fce5edbc8e2a8697c15331677e6ebf0b",
            "value" : [
                "0x00"
            ]
        }
    }
}