{
    "TouchToEmptyAccountRevert3" : {
        "_info" : {
            "comment" : "",
            "filling-rpc-server" : "evm version 1.13.5-unstable-cd295356-20231019",
            "filling-tool-version" : "retesteth-0.3.1-cancun+commit.1e18e0b3.Linux.g++",
            "generatedTestHash" : "7eae22ba601481a871bec3c0928fb3c0907dabdfea228a87e70c292cfd4fb1d6",
            "lllcversion" : "Version: 0.5.14-develop.2023.7.11+commit.c58ab2c6.mod.Linux.g++",
            "solidity" : "Version: 0.8.21+commit.d9974bed.Linux.g++",
            "source" : "src/GeneralStateTestsFiller/stRevertTest/TouchToEmptyAccountRevert3Filler.json",
            "sourceHash" : "e214ecb14dd348b76eefd688163ae571732610e26dfd5e509fc4eb8d85c597dd"
        },
        "env" : {
            "currentBaseFee" : "0x0a",
            "currentBeaconRoot" : "0x0000000000000000000000000000000000000000000000000000000000000000",
            "currentCoinbase" : "0x2adc25665018aa1fe0e6bc666dac8fc2697ff9ba",
            "currentDifficulty" : "0x020000",
            "currentGasLimit" : "0x989680",
            "currentNumber" : "0x01",
            "currentRandom" : "0x0000000000000000000000000000000000000000000000000000000000020000",
            "currentTimestamp" : "0x03e8",
            "currentWithdrawalsRoot" : "0x56e81f171bcc55a6ff8345e692c0f86e5b48e01b996cadc001622fb5e363b421",
            "previousHash" : "0x5e20a0453cecd065ea59c37ac63e079ee08998b6045136a8ce6635c7912ec0b6"
        },
        "post" : {
            "Berlin" : [
                {
                    "hash" : "0xd44400b7c3e97f80c5a796709046c895c669831ec9346d606ca83f046e3403bd",
                    "indexes" : {
                        "data" : 0,
                        "gas" : 0,
                        "value" : 0
                    },
                    "logs" : "0x1dcc4de8dec75d7aab85b567b6ccd41ad312451b948a7413f0a142fd40d49347",
                    "txbytes" : "0xf860800a83030d4094ba4f5374fce5edbc8e2a8697c15331677e6ebf0b80801ba02cfb5e3bef693cdc5ce88934df6baefea996ce87143e94ef5921d9c2d749ab99a01314363837d14df01849801e92b0ad774698fd0d477f0985d7a2ebe4ca1fc35d"
                }
            ],
            "Cancun" : [
                {
                    "hash" : "0xf5ddbfe6f330566fb78270a65d43c1bbbdd8c7bc09bd5d6257d4a418e632f873",
                    "indexes" : {
                        "data" : 0,
                        "gas" : 0,
                        "value" : 0
                    },
                    "logs" : "0x1dcc4de8dec75d7aab85b567b6ccd41ad312451b948a7413f0a142fd40d49347",
                    "txbytes" : "0xf860800a83030d4094ba4f5374fce5edbc8e2a8697c15331677e6ebf0b80801ba02cfb5e3bef693cdc5ce88934df6baefea996ce87143e94ef5921d9c2d749ab99a01314363837d14df01849801e92b0ad774698fd0d477f0985d7a2ebe4ca1fc35d"
                }
            ],
            "Istanbul" : [
                {
                    "hash" : "0x8ed3765f1637041b8498d4d6e22bd6c3e9cb7213bc40852e4c06cca1ed777a05",
                    "indexes" : {
                        "data" : 0,
                        "gas" : 0,
                        "value" : 0
                    },
                    "logs" : "0x1dcc4de8dec75d7aab85b567b6ccd41ad312451b948a7413f0a142fd40d49347",
                    "txbytes" : "0xf860800a83030d4094ba4f5374fce5edbc8e2a8697c15331677e6ebf0b80801ba02cfb5e3bef693cdc5ce88934df6baefea996ce87143e94ef5921d9c2d749ab99a01314363837d14df01849801e92b0ad774698fd0d477f0985d7a2ebe4ca1fc35d"
                }
            ],
            "London" : [
                {
                    "hash" : "0xdfe134cb0967b80b9c874d020eca5cc04a412492f54060f473a71486c59c09e9",
                    "indexes" : {
                        "data" : 0,
                        "gas" : 0,
                        "value" : 0
                    },
                    "logs" : "0x1dcc4de8dec75d7aab85b567b6ccd41ad312451b948a7413f0a142fd40d49347",
                    "txbytes" : "0xf860800a83030d4094ba4f5374fce5edbc8e2a8697c15331677e6ebf0b80801ba02cfb5e3bef693cdc5ce88934df6baefea996ce87143e94ef5921d9c2d749ab99a01314363837d14df01849801e92b0ad774698fd0d477f0985d7a2ebe4ca1fc35d"
                }
            ],
            "Merge" : [
                {
                    "hash" : "0xdfe134cb0967b80b9c874d020eca5cc04a412492f54060f473a71486c59c09e9",
                    "indexes" : {
                        "data" : 0,
                        "gas" : 0,
                        "value" : 0
                    },
                    "logs" : "0x1dcc4de8dec75d7aab85b567b6ccd41ad312451b948a7413f0a142fd40d49347",
                    "txbytes" : "0xf860800a83030d4094ba4f5374fce5edbc8e2a8697c15331677e6ebf0b80801ba02cfb5e3bef693cdc5ce88934df6baefea996ce87143e94ef5921d9c2d749ab99a01314363837d14df01849801e92b0ad774698fd0d477f0985d7a2ebe4ca1fc35d"
                }
            ],
            "Shanghai" : [
                {
                    "hash" : "0xdfe134cb0967b80b9c874d020eca5cc04a412492f54060f473a71486c59c09e9",
                    "indexes" : {
                        "data" : 0,
                        "gas" : 0,
                        "value" : 0
                    },
                    "logs" : "0x1dcc4de8dec75d7aab85b567b6ccd41ad312451b948a7413f0a142fd40d49347",
                    "txbytes" : "0xf860800a83030d4094ba4f5374fce5edbc8e2a8697c15331677e6ebf0b80801ba02cfb5e3bef693cdc5ce88934df6baefea996ce87143e94ef5921d9c2d749ab99a01314363837d14df01849801e92b0ad774698fd0d477f0985d7a2ebe4ca1fc35d"
                }
            ]
        },
        "pre" : {
            "0x1000000000000000000000000000000000000000" : {
                "balance" : "0x00",
                "code" : "0x",
                "nonce" : "0x00",
                "storage" : {
                }
            },
            "0xa94f5374fce5edbc8e2a8697c15331677e6ebf0b" : {
                "balance" : "0xe8d4a51000",
                "code" : "0x",
                "nonce" : "0x00",
                "storage" : {
                }
            },
            "0xb94f5374fce5edbc8e2a8697c15331677e6ebf0b" : {
                "balance" : "0x00",
                "code" : "0x6000600060006000600073e94f5374fce5edbc8e2a8697c15331677e6ebf0b620186a0f1600255622fffff60002000",
                "nonce" : "0x00",
                "storage" : {
                }
            },
            "0xba4f5374fce5edbc8e2a8697c15331677e6ebf0b" : {
                "balance" : "0x00",
                "code" : "0x6000600060006000600073d94f5374fce5edbc8e2a8697c15331677e6ebf0b6201fbd0f16000556000600060006000600073b94f5374fce5edbc8e2a8697c15331677e6ebf0b6201fbd0f160015500",
                "nonce" : "0x00",
                "storage" : {
                }
            },
            "0xd94f5374fce5edbc8e2a8697c15331677e6ebf0b" : {
                "balance" : "0x00",
                "code" : "0x731000000000000000000000000000000000000000ff00",
                "nonce" : "0x00",
                "storage" : {
                }
            },
            "0xe94f5374fce5edbc8e2a8697c15331677e6ebf0b" : {
                "balance" : "0x00",
                "code" : "0x731000000000000000000000000000000000000000ff00",
                "nonce" : "0x00",
                "storage" : {
                }
            }
        },
        "transaction" : {
            "data" : [
                "0x"
            ],
            "gasLimit" : [
                "0x030d40"
            ],
            "gasPrice" : "0x0a",
            "nonce" : "0x00",
            "secretKey" : "0x45a915e4d060149eb4365960e6a7a45f334393093061116b197e3240065ff2d8",
            "sender" : "0xa94f5374fce5edbc8e2a8697c15331677e6ebf0b",
            "to" : "0xba4f5374fce5edbc8e2a8697c15331677e6ebf0b",
            "value" : [
                "0x00"
            ]
        }
    }
}