{
    "CREATE2_EOF1" : {
        "_info" : {
            "comment" : "",
            "filling-rpc-server" : "evmone-t8n 0.11.0-dev+commit.cf827ae2.dirty",
            "filling-tool-version" : "retesteth-0.3.1-shanghai+commit.acfdfad0.Linux.g++",
            "generatedTestHash" : "053002628c5b99e968b17f8ecda3fa703956757d23e33adfbf59cf02f28593b5",
            "labels" : {
                "0" : "deploying_0xef",
                "1" : "deploying_0xef00",
                "2" : "deploying_0xef0000",
                "3" : "deploying_0xef00..00",
                "4" : "deploying_valid_eof1",
                "5" : "deploying_valid_eof1_with_data",
                "6" : "eof1_initcode_deploying_valid_eof1",
                "7" : "eof1_initcode_deploying_valid_eof1_with_data",
                "8" : "eof1_initcode_with_data_deploying_valid_eof1",
                "9" : "eof1_initcode_with_data_deploying_valid_eof1_with_data"
            },
            "lllcversion" : "Version: 0.5.14-develop.2022.4.6+commit.401d5358.Linux.g++",
            "solidity" : "Version: 0.8.18-develop.2023.1.16+commit.469d6d4d.Linux.g++",
            "source" : "src/EIPTestsFiller/StateTests/stEOF/stEIP3540/CREATE2_EOF1Filler.yml",
            "sourceHash" : "abdb35b7068f4cd5a5b1b3a7e49d40b0de4d2ed46f6de05225ca6f12a8dba6da"
        },
        "env" : {
            "currentBaseFee" : "0x0a",
            "currentCoinbase" : "0x2adc25665018aa1fe0e6bc666dac8fc2697ff9ba",
            "currentDifficulty" : "0x020000",
            "currentGasLimit" : "0x05500000",
            "currentNumber" : "0x01",
            "currentRandom" : "0x0000000000000000000000000000000000000000000000000000000000020000",
            "currentTimestamp" : "0x03e8",
            "previousHash" : "0x5e20a0453cecd065ea59c37ac63e079ee08998b6045136a8ce6635c7912ec0b6"
        },
        "post" : {
            "Berlin" : [
                {
                    "hash" : "0xb308e59e5b92ae2b6e6b3aa73ae51ac33cecd6e5a0078e634eb0ac22bd09e073",
                    "indexes" : {
                        "data" : 0,
                        "gas" : 0,
                        "value" : 0
                    },
                    "logs" : "0x1dcc4de8dec75d7aab85b567b6ccd41ad312451b948a7413f0a142fd40d49347",
                    "txbytes" : "0xf86a800a83e4e1c094b94f5374fce5edbc8e2a8697c15331677e6ebf0b808a60ef60005360016000f31ba0e855b14706c4e47fd8e765368486ed5ca2cb7ac886b261a46457d21111f05411a03f1314ff819e6ca49b98a5dff224d0693bbac4860a583993dffe6ebab6170f29"
                },
                {
                    "hash" : "0x7327db7be9ce2e934f589036971cd8077223c9f9ddb3215e061da38f940c36fb",
                    "indexes" : {
                        "data" : 1,
                        "gas" : 0,
                        "value" : 0
                    },
                    "logs" : "0x1dcc4de8dec75d7aab85b567b6ccd41ad312451b948a7413f0a142fd40d49347",
                    "txbytes" : "0xf86a800a83e4e1c094b94f5374fce5edbc8e2a8697c15331677e6ebf0b808a60ef60005360026000f31ca06ee98cfd5267b69178e4be20f1329f1c89e166fba19273893ba937d5146f769da0436338587693edaa893c286784edfe7f148a992bbdbafd465ee6b76d7778ea0f"
                },
                {
                    "hash" : "0x618204714fd19a0ea36912b28cea2e0fc90701be12835c7135aaec50ff58296e",
                    "indexes" : {
                        "data" : 2,
                        "gas" : 0,
                        "value" : 0
                    },
                    "logs" : "0x1dcc4de8dec75d7aab85b567b6ccd41ad312451b948a7413f0a142fd40d49347",
                    "txbytes" : "0xf86a800a83e4e1c094b94f5374fce5edbc8e2a8697c15331677e6ebf0b808a60ef60005360036000f31ba0153b6cbc5cfa36fd43c5e3f34648c78e86cf834458596fdea722af3f87e4a218a016e64bbd4f747198175fe26487fbdd138a34b561b8cfd7846262bd950e28cc2c"
                },
                {
                    "hash" : "0x7c3c68557f95a96565382ba6cdb4d727001b6caa97f733feccd26d594a1135c6",
                    "indexes" : {
                        "data" : 3,
                        "gas" : 0,
                        "value" : 0
                    },
                    "logs" : "0x1dcc4de8dec75d7aab85b567b6ccd41ad312451b948a7413f0a142fd40d49347",
                    "txbytes" : "0xf86a800a83e4e1c094b94f5374fce5edbc8e2a8697c15331677e6ebf0b808a60ef60005360206000f31ba036a8d004476109bc6d56b18701fbde81b722c2e2e75dadc47af7a23fba0f9c1fa051d310370e93d5d256a3ef1d477211df118d37500d592336859f294390ca09f6"
                }
            ],
            "Cancun" : [
                {
                    "hash" : "0x2f2d04f87a18ee95041bfc83e64befa06a57fafe757b1e42adeef80147d6ea1d",
                    "indexes" : {
                        "data" : 0,
                        "gas" : 0,
                        "value" : 0
                    },
                    "logs" : "0x1dcc4de8dec75d7aab85b567b6ccd41ad312451b948a7413f0a142fd40d49347",
                    "txbytes" : "0xf86a800a83e4e1c094b94f5374fce5edbc8e2a8697c15331677e6ebf0b808a60ef60005360016000f31ba0e855b14706c4e47fd8e765368486ed5ca2cb7ac886b261a46457d21111f05411a03f1314ff819e6ca49b98a5dff224d0693bbac4860a583993dffe6ebab6170f29"
                },
                {
                    "hash" : "0x2f2d04f87a18ee95041bfc83e64befa06a57fafe757b1e42adeef80147d6ea1d",
                    "indexes" : {
                        "data" : 1,
                        "gas" : 0,
                        "value" : 0
                    },
                    "logs" : "0x1dcc4de8dec75d7aab85b567b6ccd41ad312451b948a7413f0a142fd40d49347",
                    "txbytes" : "0xf86a800a83e4e1c094b94f5374fce5edbc8e2a8697c15331677e6ebf0b808a60ef60005360026000f31ca06ee98cfd5267b69178e4be20f1329f1c89e166fba19273893ba937d5146f769da0436338587693edaa893c286784edfe7f148a992bbdbafd465ee6b76d7778ea0f"
                },
                {
                    "hash" : "0x2f2d04f87a18ee95041bfc83e64befa06a57fafe757b1e42adeef80147d6ea1d",
                    "indexes" : {
                        "data" : 2,
                        "gas" : 0,
                        "value" : 0
                    },
                    "logs" : "0x1dcc4de8dec75d7aab85b567b6ccd41ad312451b948a7413f0a142fd40d49347",
                    "txbytes" : "0xf86a800a83e4e1c094b94f5374fce5edbc8e2a8697c15331677e6ebf0b808a60ef60005360036000f31ba0153b6cbc5cfa36fd43c5e3f34648c78e86cf834458596fdea722af3f87e4a218a016e64bbd4f747198175fe26487fbdd138a34b561b8cfd7846262bd950e28cc2c"
                },
                {
                    "hash" : "0x2f2d04f87a18ee95041bfc83e64befa06a57fafe757b1e42adeef80147d6ea1d",
                    "indexes" : {
                        "data" : 3,
                        "gas" : 0,
                        "value" : 0
                    },
                    "logs" : "0x1dcc4de8dec75d7aab85b567b6ccd41ad312451b948a7413f0a142fd40d49347",
                    "txbytes" : "0xf86a800a83e4e1c094b94f5374fce5edbc8e2a8697c15331677e6ebf0b808a60ef60005360206000f31ba036a8d004476109bc6d56b18701fbde81b722c2e2e75dadc47af7a23fba0f9c1fa051d310370e93d5d256a3ef1d477211df118d37500d592336859f294390ca09f6"
                },
                {
                    "hash" : "0xa96226cb1eb7331671afa763ead66566e0a95b843694eed8777a551cd121b0c7",
                    "indexes" : {
                        "data" : 4,
                        "gas" : 0,
                        "value" : 0
                    },
                    "logs" : "0x1dcc4de8dec75d7aab85b567b6ccd41ad312451b948a7413f0a142fd40d49347",
                    "txbytes" : "0xf889800a83e4e1c094b94f5374fce5edbc8e2a8697c15331677e6ebf0b80a97fef0001010004020001000404000000000000016000500000000000000000000060005260176000f31ca0e30f6768ced35097a05780f6104eb0fae788b9205b7f6427fe38af9fb28f8c86a0345c3b7e4d0bde6fa3034317d6de0b88aaf51ac0b413b2ca54472f52cbb109ff"
                },
                {
                    "hash" : "0xe2bd84b9d6c2d7318f6fa59bff05cf3fc4e97b0f4a570232500171d4f49cf0a9",
                    "indexes" : {
                        "data" : 5,
                        "gas" : 0,
                        "value" : 0
                    },
                    "logs" : "0x1dcc4de8dec75d7aab85b567b6ccd41ad312451b948a7413f0a142fd40d49347",
                    "txbytes" : "0xf889800a83e4e1c094b94f5374fce5edbc8e2a8697c15331677e6ebf0b80a97fef00010100040200010004040004000000000160005000aabbccdd0000000000600052601b6000f31ba08c0890458c5e8a908fb25b48751a5ad785a889938d84b8d304f4666487ea458ba00ff4bc0751bfa565e002c34d0eac68d5f1fc4424a3d38d2c7e08f5a7ac0aa657"
                },
                {
                    "hash" : "0x362d459982e07085f1266636069cce1de9aa71a78467196624f4c6a5f1e0db77",
                    "indexes" : {
                        "data" : 6,
                        "gas" : 0,
                        "value" : 0
                    },
                    "logs" : "0x1dcc4de8dec75d7aab85b567b6ccd41ad312451b948a7413f0a142fd40d49347",
                    "txbytes" : "0xf89d800a83e4e1c094b94f5374fce5edbc8e2a8697c15331677e6ebf0b80b83cef0001010004020001002904000000000000027fef0001010004020001000404000000000000016000500000000000000000000060005260176000f31ba0c1736a639898bed52675d73ea1acc98f9002e1e836ee320026c8631af335023ca038d5a6d4e768cc7d273c74af6e671e204edafd81e55af4602f96eadb94bd624e"
                },
                {
                    "hash" : "0x4e3a622d4a7b0d6c27504ebb2333b45f3f69838b966d1f46d415c62839130f53",
                    "indexes" : {
                        "data" : 7,
                        "gas" : 0,
                        "value" : 0
                    },
                    "logs" : "0x1dcc4de8dec75d7aab85b567b6ccd41ad312451b948a7413f0a142fd40d49347",
                    "txbytes" : "0xf89d800a83e4e1c094b94f5374fce5edbc8e2a8697c15331677e6ebf0b80b83cef0001010004020001002904000000000000027fef00010100040200010004040004000000000160005000aabbccdd0000000000600052601b6000f31ba0dbff82b2563484594376ab38a2ed195ad6fbb9e998e64622a0e264e3e8cfafa2a0433a9798dc7d4b2f5adde89a270d395af9f19f29d265423dc1572cc8fbbfb5cc"
                },
                {
                    "hash" : "0x4e3a622d4a7b0d6c27504ebb2333b45f3f69838b966d1f46d415c62839130f53",
                    "indexes" : {
                        "data" : 8,
                        "gas" : 0,
                        "value" : 0
                    },
                    "logs" : "0x1dcc4de8dec75d7aab85b567b6ccd41ad312451b948a7413f0a142fd40d49347",
                    "txbytes" : "0xf8a1800a83e4e1c094b94f5374fce5edbc8e2a8697c15331677e6ebf0b80b840ef0001010004020001002904000400000000027fef0001010004020001000404000000000000016000500000000000000000000060005260176000f3aabbccdd1ca0eb045cbdd53aa165eb427fa938e738e145f19c6f3ed473b613b843fa1d38cecda00ea024fe5c16bc3a2f5dac28ac3a10c1775bd7229b7f2f6da93312eb6ab1a4de"
                },
                {
                    "hash" : "0x752754876dddf858ca83ea353e12ba784707d1788df6d98bf8071c31c6e7cbcc",
                    "indexes" : {
                        "data" : 9,
                        "gas" : 0,
                        "value" : 0
                    },
                    "logs" : "0x1dcc4de8dec75d7aab85b567b6ccd41ad312451b948a7413f0a142fd40d49347",
                    "txbytes" : "0xf89e800a83e4e1c094b94f5374fce5edbc8e2a8697c15331677e6ebf0b80b83eef0001010004020001002904000200000000027fef00010100040200010004040004000000000160005000aabbccdd0000000000600052601b6000f3eeff1c9f5d76a2b13dab3167531c3882b1349715a79cbcf35347c1ca8f77250c82b738a014aaecc8234ae18f56bb23ba658f9df9717545d3eef39568db02c9b8cf86024b"
                }
            ],
            "London" : [
                {
                    "hash" : "0x2f2d04f87a18ee95041bfc83e64befa06a57fafe757b1e42adeef80147d6ea1d",
                    "indexes" : {
                        "data" : 0,
                        "gas" : 0,
                        "value" : 0
                    },
                    "logs" : "0x1dcc4de8dec75d7aab85b567b6ccd41ad312451b948a7413f0a142fd40d49347",
                    "txbytes" : "0xf86a800a83e4e1c094b94f5374fce5edbc8e2a8697c15331677e6ebf0b808a60ef60005360016000f31ba0e855b14706c4e47fd8e765368486ed5ca2cb7ac886b261a46457d21111f05411a03f1314ff819e6ca49b98a5dff224d0693bbac4860a583993dffe6ebab6170f29"
                },
                {
                    "hash" : "0x2f2d04f87a18ee95041bfc83e64befa06a57fafe757b1e42adeef80147d6ea1d",
                    "indexes" : {
                        "data" : 1,
                        "gas" : 0,
                        "value" : 0
                    },
                    "logs" : "0x1dcc4de8dec75d7aab85b567b6ccd41ad312451b948a7413f0a142fd40d49347",
                    "txbytes" : "0xf86a800a83e4e1c094b94f5374fce5edbc8e2a8697c15331677e6ebf0b808a60ef60005360026000f31ca06ee98cfd5267b69178e4be20f1329f1c89e166fba19273893ba937d5146f769da0436338587693edaa893c286784edfe7f148a992bbdbafd465ee6b76d7778ea0f"
                },
                {
                    "hash" : "0x2f2d04f87a18ee95041bfc83e64befa06a57fafe757b1e42adeef80147d6ea1d",
                    "indexes" : {
                        "data" : 2,
                        "gas" : 0,
                        "value" : 0
                    },
                    "logs" : "0x1dcc4de8dec75d7aab85b567b6ccd41ad312451b948a7413f0a142fd40d49347",
                    "txbytes" : "0xf86a800a83e4e1c094b94f5374fce5edbc8e2a8697c15331677e6ebf0b808a60ef60005360036000f31ba0153b6cbc5cfa36fd43c5e3f34648c78e86cf834458596fdea722af3f87e4a218a016e64bbd4f747198175fe26487fbdd138a34b561b8cfd7846262bd950e28cc2c"
                },
                {
                    "hash" : "0x2f2d04f87a18ee95041bfc83e64befa06a57fafe757b1e42adeef80147d6ea1d",
                    "indexes" : {
                        "data" : 3,
                        "gas" : 0,
                        "value" : 0
                    },
                    "logs" : "0x1dcc4de8dec75d7aab85b567b6ccd41ad312451b948a7413f0a142fd40d49347",
                    "txbytes" : "0xf86a800a83e4e1c094b94f5374fce5edbc8e2a8697c15331677e6ebf0b808a60ef60005360206000f31ba036a8d004476109bc6d56b18701fbde81b722c2e2e75dadc47af7a23fba0f9c1fa051d310370e93d5d256a3ef1d477211df118d37500d592336859f294390ca09f6"
                }
            ],
            "Merge" : [
                {
                    "hash" : "0x2f2d04f87a18ee95041bfc83e64befa06a57fafe757b1e42adeef80147d6ea1d",
                    "indexes" : {
                        "data" : 0,
                        "gas" : 0,
                        "value" : 0
                    },
                    "logs" : "0x1dcc4de8dec75d7aab85b567b6ccd41ad312451b948a7413f0a142fd40d49347",
                    "txbytes" : "0xf86a800a83e4e1c094b94f5374fce5edbc8e2a8697c15331677e6ebf0b808a60ef60005360016000f31ba0e855b14706c4e47fd8e765368486ed5ca2cb7ac886b261a46457d21111f05411a03f1314ff819e6ca49b98a5dff224d0693bbac4860a583993dffe6ebab6170f29"
                },
                {
                    "hash" : "0x2f2d04f87a18ee95041bfc83e64befa06a57fafe757b1e42adeef80147d6ea1d",
                    "indexes" : {
                        "data" : 1,
                        "gas" : 0,
                        "value" : 0
                    },
                    "logs" : "0x1dcc4de8dec75d7aab85b567b6ccd41ad312451b948a7413f0a142fd40d49347",
                    "txbytes" : "0xf86a800a83e4e1c094b94f5374fce5edbc8e2a8697c15331677e6ebf0b808a60ef60005360026000f31ca06ee98cfd5267b69178e4be20f1329f1c89e166fba19273893ba937d5146f769da0436338587693edaa893c286784edfe7f148a992bbdbafd465ee6b76d7778ea0f"
                },
                {
                    "hash" : "0x2f2d04f87a18ee95041bfc83e64befa06a57fafe757b1e42adeef80147d6ea1d",
                    "indexes" : {
                        "data" : 2,
                        "gas" : 0,
                        "value" : 0
                    },
                    "logs" : "0x1dcc4de8dec75d7aab85b567b6ccd41ad312451b948a7413f0a142fd40d49347",
                    "txbytes" : "0xf86a800a83e4e1c094b94f5374fce5edbc8e2a8697c15331677e6ebf0b808a60ef60005360036000f31ba0153b6cbc5cfa36fd43c5e3f34648c78e86cf834458596fdea722af3f87e4a218a016e64bbd4f747198175fe26487fbdd138a34b561b8cfd7846262bd950e28cc2c"
                },
                {
                    "hash" : "0x2f2d04f87a18ee95041bfc83e64befa06a57fafe757b1e42adeef80147d6ea1d",
                    "indexes" : {
                        "data" : 3,
                        "gas" : 0,
                        "value" : 0
                    },
                    "logs" : "0x1dcc4de8dec75d7aab85b567b6ccd41ad312451b948a7413f0a142fd40d49347",
                    "txbytes" : "0xf86a800a83e4e1c094b94f5374fce5edbc8e2a8697c15331677e6ebf0b808a60ef60005360206000f31ba036a8d004476109bc6d56b18701fbde81b722c2e2e75dadc47af7a23fba0f9c1fa051d310370e93d5d256a3ef1d477211df118d37500d592336859f294390ca09f6"
                }
            ],
            "Prague" : [
                {
                    "hash" : "0x2f2d04f87a18ee95041bfc83e64befa06a57fafe757b1e42adeef80147d6ea1d",
                    "indexes" : {
                        "data" : 0,
                        "gas" : 0,
                        "value" : 0
                    },
                    "logs" : "0x1dcc4de8dec75d7aab85b567b6ccd41ad312451b948a7413f0a142fd40d49347",
                    "txbytes" : "0xf86a800a83e4e1c094b94f5374fce5edbc8e2a8697c15331677e6ebf0b808a60ef60005360016000f31ba0e855b14706c4e47fd8e765368486ed5ca2cb7ac886b261a46457d21111f05411a03f1314ff819e6ca49b98a5dff224d0693bbac4860a583993dffe6ebab6170f29"
                },
                {
                    "hash" : "0x2f2d04f87a18ee95041bfc83e64befa06a57fafe757b1e42adeef80147d6ea1d",
                    "indexes" : {
                        "data" : 1,
                        "gas" : 0,
                        "value" : 0
                    },
                    "logs" : "0x1dcc4de8dec75d7aab85b567b6ccd41ad312451b948a7413f0a142fd40d49347",
                    "txbytes" : "0xf86a800a83e4e1c094b94f5374fce5edbc8e2a8697c15331677e6ebf0b808a60ef60005360026000f31ca06ee98cfd5267b69178e4be20f1329f1c89e166fba19273893ba937d5146f769da0436338587693edaa893c286784edfe7f148a992bbdbafd465ee6b76d7778ea0f"
                },
                {
                    "hash" : "0x2f2d04f87a18ee95041bfc83e64befa06a57fafe757b1e42adeef80147d6ea1d",
                    "indexes" : {
                        "data" : 2,
                        "gas" : 0,
                        "value" : 0
                    },
                    "logs" : "0x1dcc4de8dec75d7aab85b567b6ccd41ad312451b948a7413f0a142fd40d49347",
                    "txbytes" : "0xf86a800a83e4e1c094b94f5374fce5edbc8e2a8697c15331677e6ebf0b808a60ef60005360036000f31ba0153b6cbc5cfa36fd43c5e3f34648c78e86cf834458596fdea722af3f87e4a218a016e64bbd4f747198175fe26487fbdd138a34b561b8cfd7846262bd950e28cc2c"
                },
                {
                    "hash" : "0x2f2d04f87a18ee95041bfc83e64befa06a57fafe757b1e42adeef80147d6ea1d",
                    "indexes" : {
                        "data" : 3,
                        "gas" : 0,
                        "value" : 0
                    },
                    "logs" : "0x1dcc4de8dec75d7aab85b567b6ccd41ad312451b948a7413f0a142fd40d49347",
                    "txbytes" : "0xf86a800a83e4e1c094b94f5374fce5edbc8e2a8697c15331677e6ebf0b808a60ef60005360206000f31ba036a8d004476109bc6d56b18701fbde81b722c2e2e75dadc47af7a23fba0f9c1fa051d310370e93d5d256a3ef1d477211df118d37500d592336859f294390ca09f6"
                },
                {
                    "hash" : "0xb06a53467f24f3979aa6307baf82434622247a8c3575c3a63900958ee21319ad",
                    "indexes" : {
                        "data" : 4,
                        "gas" : 0,
                        "value" : 0
                    },
                    "logs" : "0x1dcc4de8dec75d7aab85b567b6ccd41ad312451b948a7413f0a142fd40d49347",
                    "txbytes" : "0xf889800a83e4e1c094b94f5374fce5edbc8e2a8697c15331677e6ebf0b80a97fef0001010004020001000404000000000000016000500000000000000000000060005260176000f31ca0e30f6768ced35097a05780f6104eb0fae788b9205b7f6427fe38af9fb28f8c86a0345c3b7e4d0bde6fa3034317d6de0b88aaf51ac0b413b2ca54472f52cbb109ff"
                },
                {
                    "hash" : "0x75065febb0569288720a722f9aca01a6ea73d7bf7ec87f26b616424a52a4a394",
                    "indexes" : {
                        "data" : 5,
                        "gas" : 0,
                        "value" : 0
                    },
                    "logs" : "0x1dcc4de8dec75d7aab85b567b6ccd41ad312451b948a7413f0a142fd40d49347",
                    "txbytes" : "0xf889800a83e4e1c094b94f5374fce5edbc8e2a8697c15331677e6ebf0b80a97fef00010100040200010004040004000000000160005000aabbccdd0000000000600052601b6000f31ba08c0890458c5e8a908fb25b48751a5ad785a889938d84b8d304f4666487ea458ba00ff4bc0751bfa565e002c34d0eac68d5f1fc4424a3d38d2c7e08f5a7ac0aa657"
                },
                {
                    "hash" : "0x064df397b929909e91c8ea5eeedc097c93ebf8e31965259c32072c2508381276",
                    "indexes" : {
                        "data" : 6,
                        "gas" : 0,
                        "value" : 0
                    },
                    "logs" : "0x1dcc4de8dec75d7aab85b567b6ccd41ad312451b948a7413f0a142fd40d49347",
                    "txbytes" : "0xf89d800a83e4e1c094b94f5374fce5edbc8e2a8697c15331677e6ebf0b80b83cef0001010004020001002904000000000000027fef0001010004020001000404000000000000016000500000000000000000000060005260176000f31ba0c1736a639898bed52675d73ea1acc98f9002e1e836ee320026c8631af335023ca038d5a6d4e768cc7d273c74af6e671e204edafd81e55af4602f96eadb94bd624e"
                },
                {
                    "hash" : "0x1ebb064f219166a9638e9b251828122501330c12239b36cd686817e5d7eebf96",
                    "indexes" : {
                        "data" : 7,
                        "gas" : 0,
                        "value" : 0
                    },
                    "logs" : "0x1dcc4de8dec75d7aab85b567b6ccd41ad312451b948a7413f0a142fd40d49347",
                    "txbytes" : "0xf89d800a83e4e1c094b94f5374fce5edbc8e2a8697c15331677e6ebf0b80b83cef0001010004020001002904000000000000027fef00010100040200010004040004000000000160005000aabbccdd0000000000600052601b6000f31ba0dbff82b2563484594376ab38a2ed195ad6fbb9e998e64622a0e264e3e8cfafa2a0433a9798dc7d4b2f5adde89a270d395af9f19f29d265423dc1572cc8fbbfb5cc"
                },
                {
                    "hash" : "0xfba42d70eb286416d2313af1f16456315f2de7813e01734e23ce7eaac9ac325b",
                    "indexes" : {
                        "data" : 8,
                        "gas" : 0,
                        "value" : 0
                    },
                    "logs" : "0x1dcc4de8dec75d7aab85b567b6ccd41ad312451b948a7413f0a142fd40d49347",
                    "txbytes" : "0xf8a1800a83e4e1c094b94f5374fce5edbc8e2a8697c15331677e6ebf0b80b840ef0001010004020001002904000400000000027fef0001010004020001000404000000000000016000500000000000000000000060005260176000f3aabbccdd1ca0eb045cbdd53aa165eb427fa938e738e145f19c6f3ed473b613b843fa1d38cecda00ea024fe5c16bc3a2f5dac28ac3a10c1775bd7229b7f2f6da93312eb6ab1a4de"
                },
                {
                    "hash" : "0x91920109e585f2635687adc40b59716f3b6ec5cbc25001d84b2a17118f6d2026",
                    "indexes" : {
                        "data" : 9,
                        "gas" : 0,
                        "value" : 0
                    },
                    "logs" : "0x1dcc4de8dec75d7aab85b567b6ccd41ad312451b948a7413f0a142fd40d49347",
                    "txbytes" : "0xf89e800a83e4e1c094b94f5374fce5edbc8e2a8697c15331677e6ebf0b80b83eef0001010004020001002904000200000000027fef00010100040200010004040004000000000160005000aabbccdd0000000000600052601b6000f3eeff1c9f5d76a2b13dab3167531c3882b1349715a79cbcf35347c1ca8f77250c82b738a014aaecc8234ae18f56bb23ba658f9df9717545d3eef39568db02c9b8cf86024b"
                }
            ],
            "Shanghai" : [
                {
                    "hash" : "0x2f2d04f87a18ee95041bfc83e64befa06a57fafe757b1e42adeef80147d6ea1d",
                    "indexes" : {
                        "data" : 0,
                        "gas" : 0,
                        "value" : 0
                    },
                    "logs" : "0x1dcc4de8dec75d7aab85b567b6ccd41ad312451b948a7413f0a142fd40d49347",
                    "txbytes" : "0xf86a800a83e4e1c094b94f5374fce5edbc8e2a8697c15331677e6ebf0b808a60ef60005360016000f31ba0e855b14706c4e47fd8e765368486ed5ca2cb7ac886b261a46457d21111f05411a03f1314ff819e6ca49b98a5dff224d0693bbac4860a583993dffe6ebab6170f29"
                },
                {
                    "hash" : "0x2f2d04f87a18ee95041bfc83e64befa06a57fafe757b1e42adeef80147d6ea1d",
                    "indexes" : {
                        "data" : 1,
                        "gas" : 0,
                        "value" : 0
                    },
                    "logs" : "0x1dcc4de8dec75d7aab85b567b6ccd41ad312451b948a7413f0a142fd40d49347",
                    "txbytes" : "0xf86a800a83e4e1c094b94f5374fce5edbc8e2a8697c15331677e6ebf0b808a60ef60005360026000f31ca06ee98cfd5267b69178e4be20f1329f1c89e166fba19273893ba937d5146f769da0436338587693edaa893c286784edfe7f148a992bbdbafd465ee6b76d7778ea0f"
                },
                {
                    "hash" : "0x2f2d04f87a18ee95041bfc83e64befa06a57fafe757b1e42adeef80147d6ea1d",
                    "indexes" : {
                        "data" : 2,
                        "gas" : 0,
                        "value" : 0
                    },
                    "logs" : "0x1dcc4de8dec75d7aab85b567b6ccd41ad312451b948a7413f0a142fd40d49347",
                    "txbytes" : "0xf86a800a83e4e1c094b94f5374fce5edbc8e2a8697c15331677e6ebf0b808a60ef60005360036000f31ba0153b6cbc5cfa36fd43c5e3f34648c78e86cf834458596fdea722af3f87e4a218a016e64bbd4f747198175fe26487fbdd138a34b561b8cfd7846262bd950e28cc2c"
                },
                {
                    "hash" : "0x2f2d04f87a18ee95041bfc83e64befa06a57fafe757b1e42adeef80147d6ea1d",
                    "indexes" : {
                        "data" : 3,
                        "gas" : 0,
                        "value" : 0
                    },
                    "logs" : "0x1dcc4de8dec75d7aab85b567b6ccd41ad312451b948a7413f0a142fd40d49347",
                    "txbytes" : "0xf86a800a83e4e1c094b94f5374fce5edbc8e2a8697c15331677e6ebf0b808a60ef60005360206000f31ba036a8d004476109bc6d56b18701fbde81b722c2e2e75dadc47af7a23fba0f9c1fa051d310370e93d5d256a3ef1d477211df118d37500d592336859f294390ca09f6"
                }
            ]
        },
        "pre" : {
            "0xa94f5374fce5edbc8e2a8697c15331677e6ebf0b" : {
                "balance" : "0x0bebc200",
                "code" : "0x",
                "nonce" : "0x00",
                "storage" : {
                }
            },
            "0xb94f5374fce5edbc8e2a8697c15331677e6ebf0b" : {
                "balance" : "0x00",
                "code" : "0x3660008037600036600080f560005560018055",
                "nonce" : "0x00",
                "storage" : {
                }
            }
        },
        "transaction" : {
            "data" : [
                "0x60ef60005360016000f3",
                "0x60ef60005360026000f3",
                "0x60ef60005360036000f3",
                "0x60ef60005360206000f3",
                "0x7fef0001010004020001000404000000000000016000500000000000000000000060005260176000f3",
                "0x7fef00010100040200010004040004000000000160005000aabbccdd0000000000600052601b6000f3",
                "0xef0001010004020001002904000000000000027fef0001010004020001000404000000000000016000500000000000000000000060005260176000f3",
                "0xef0001010004020001002904000000000000027fef00010100040200010004040004000000000160005000aabbccdd0000000000600052601b6000f3",
                "0xef0001010004020001002904000400000000027fef0001010004020001000404000000000000016000500000000000000000000060005260176000f3aabbccdd",
                "0xef0001010004020001002904000200000000027fef00010100040200010004040004000000000160005000aabbccdd0000000000600052601b6000f3eeff"
            ],
            "gasLimit" : [
                "0xe4e1c0"
            ],
            "gasPrice" : "0x0a",
            "nonce" : "0x00",
            "secretKey" : "0x45a915e4d060149eb4365960e6a7a45f334393093061116b197e3240065ff2d8",
            "sender" : "0xa94f5374fce5edbc8e2a8697c15331677e6ebf0b",
            "to" : "0xb94f5374fce5edbc8e2a8697c15331677e6ebf0b",
            "value" : [
                "0x00"
            ]
        }
    }
}