{
    "incorrectWithdrawalsRoot_Cancun" : {
        "_info" : {
            "comment" : "Test vectors BSHA0004",
            "filling-rpc-server" : "evm version 1.14.0-unstable-d8e0807d-20240306",
            "filling-tool-version" : "retesteth-0.3.2-cancun+commit.43b706cc.Linux.g++",
            "generatedTestHash" : "2b5d861d6b786785e62717dc5c6551c54d40956d525ad79b4931501136c0f54a",
            "lllcversion" : "Version: 0.5.14-develop.2023.7.11+commit.c58ab2c6.mod.Linux.g++",
            "solidity" : "Version: 0.8.21+commit.d9974bed.Linux.g++",
            "source" : "src/BlockchainTestsFiller/InvalidBlocks/bc4895-withdrawals/incorrectWithdrawalsRootFiller.json",
            "sourceHash" : "8d163a18ee59306b31b969065f8a6c32c2c7c734c8ffc59df22b0285027df67b"
        },
        "blocks" : [
            {
                "blocknumber" : "1",
                "chainname" : "default",
                "expectException" : "InvalidWithdrawals",
                "rlp" : "0xf902b5f9023fa0286a26a6c05ea12f11b541486c5eb8ef0a36ce29b61e86f2a98886a3886b202ca01dcc4de8dec75d7aab85b567b6ccd41ad312451b948a7413f0a142fd40d49347942adc25665018aa1fe0e6bc666dac8fc2697ff9baa0a328ab2b4b2e0195194262a116e904f804eef0d336b8114fc4106925e0326ffda071e515dd89e8a7973402c2e11646081b4e2209b2d3a1550df5095289dabcb3fba0ed9c51ea52c968e552e370a77a41dac98606e98b915092fb5f949d6452fce1c4b90100000000000000000000000000000000000000000000000000000000000000000000000000000000000000000000000000000000000000000000000000000000000000000000000000000000000000000000000000000000000000000000000000000000000000000000000000000000000000000000000000000000000000000000000000000000000000000000000000000000000000000000000000000000000000000000000000000000000000000000000000000000000000000000000000000000000000000000000000000000000000000000000000000000000000000000000000000000000000000000000000000000000000000000000000000000008001887fffffffffffffff830125b882079e42a056e81f171bcc55a6ff8345e692c0f86e5b48e01b996cadc001622fb5e363b42188000000000000000009a0bad81f171bcc55a6ff8345e692c0f86e5b48e01b996cadc001622fb5e363b4218080a00000000000000000000000000000000000000000000000000000000000000000f854f852802883061a808080866001600155001ba00b46eb2e2c914b99416e723a37be923605238a81c83c25b5f842544bebea8816a065730cb3fb806bd5260c1db09198459a2a2499e51b43a3780b48c1a3594133f2c0dbda808094c94f5374fce5edbc8e2a8697c15331677e6ebf0b822710",
                "rlp_decoded" : {
                    "blockHeader" : {
                        "baseFeePerGas" : "0x09",
                        "blobGasUsed" : "0x00",
                        "bloom" : "0x00000000000000000000000000000000000000000000000000000000000000000000000000000000000000000000000000000000000000000000000000000000000000000000000000000000000000000000000000000000000000000000000000000000000000000000000000000000000000000000000000000000000000000000000000000000000000000000000000000000000000000000000000000000000000000000000000000000000000000000000000000000000000000000000000000000000000000000000000000000000000000000000000000000000000000000000000000000000000000000000000000000000000000000000000000000",
                        "coinbase" : "0x2adc25665018aa1fe0e6bc666dac8fc2697ff9ba",
                        "difficulty" : "0x00",
                        "excessBlobGas" : "0x00",
                        "extraData" : "0x42",
                        "gasLimit" : "0x7fffffffffffffff",
                        "gasUsed" : "0x0125b8",
                        "hash" : "0x4cbf8231589ba4ad811380f9299371c230a54a312da00be4f94e4953c975270c",
                        "mixHash" : "0x56e81f171bcc55a6ff8345e692c0f86e5b48e01b996cadc001622fb5e363b421",
                        "nonce" : "0x0000000000000000",
                        "number" : "0x01",
                        "parentBeaconBlockRoot" : "0x0000000000000000000000000000000000000000000000000000000000000000",
                        "parentHash" : "0x286a26a6c05ea12f11b541486c5eb8ef0a36ce29b61e86f2a98886a3886b202c",
                        "receiptTrie" : "0xed9c51ea52c968e552e370a77a41dac98606e98b915092fb5f949d6452fce1c4",
                        "stateRoot" : "0xa328ab2b4b2e0195194262a116e904f804eef0d336b8114fc4106925e0326ffd",
                        "timestamp" : "0x079e",
                        "transactionsTrie" : "0x71e515dd89e8a7973402c2e11646081b4e2209b2d3a1550df5095289dabcb3fb",
                        "uncleHash" : "0x1dcc4de8dec75d7aab85b567b6ccd41ad312451b948a7413f0a142fd40d49347",
                        "withdrawalsRoot" : "0xbad81f171bcc55a6ff8345e692c0f86e5b48e01b996cadc001622fb5e363b421"
                    },
                    "transactions" : [
                        {
                            "data" : "0x600160015500",
                            "gasLimit" : "0x061a80",
                            "gasPrice" : "0x28",
                            "nonce" : "0x00",
                            "r" : "0x0b46eb2e2c914b99416e723a37be923605238a81c83c25b5f842544bebea8816",
                            "s" : "0x65730cb3fb806bd5260c1db09198459a2a2499e51b43a3780b48c1a3594133f2",
                            "to" : "",
                            "v" : "0x1b",
                            "value" : "0x00"
                        }
                    ],
                    "uncleHeaders" : [
                    ],
                    "withdrawals" : [
                        {
                            "address" : "0xc94f5374fce5edbc8e2a8697c15331677e6ebf0b",
                            "amount" : "0x2710",
                            "index" : "0x00",
                            "validatorIndex" : "0x00"
                        }
                    ]
                }
            },
            {
                "blocknumber" : "1",
                "chainname" : "default",
                "expectException" : "InvalidWithdrawals",
                "rlp" : "0xf9029af9023fa0286a26a6c05ea12f11b541486c5eb8ef0a36ce29b61e86f2a98886a3886b202ca01dcc4de8dec75d7aab85b567b6ccd41ad312451b948a7413f0a142fd40d49347942adc25665018aa1fe0e6bc666dac8fc2697ff9baa0e0f964be6b57cc67890cfdf64bf2b9533866b78aa0cd48a33a25768e2b32a6dda071e515dd89e8a7973402c2e11646081b4e2209b2d3a1550df5095289dabcb3fba0ed9c51ea52c968e552e370a77a41dac98606e98b915092fb5f949d6452fce1c4b90100000000000000000000000000000000000000000000000000000000000000000000000000000000000000000000000000000000000000000000000000000000000000000000000000000000000000000000000000000000000000000000000000000000000000000000000000000000000000000000000000000000000000000000000000000000000000000000000000000000000000000000000000000000000000000000000000000000000000000000000000000000000000000000000000000000000000000000000000000000000000000000000000000000000000000000000000000000000000000000000000000000000000000000000000000000008001887fffffffffffffff830125b882079e42a056e81f171bcc55a6ff8345e692c0f86e5b48e01b996cadc001622fb5e363b42188000000000000000009a0bad81f171bcc55a6ff8345e692c0f86e5b48e01b996cadc001622fb5e363b4218080a00000000000000000000000000000000000000000000000000000000000000000f854f852802883061a808080866001600155001ba00b46eb2e2c914b99416e723a37be923605238a81c83c25b5f842544bebea8816a065730cb3fb806bd5260c1db09198459a2a2499e51b43a3780b48c1a3594133f2c0c0",
                "rlp_decoded" : {
                    "blockHeader" : {
                        "baseFeePerGas" : "0x09",
                        "blobGasUsed" : "0x00",
                        "bloom" : "0x00000000000000000000000000000000000000000000000000000000000000000000000000000000000000000000000000000000000000000000000000000000000000000000000000000000000000000000000000000000000000000000000000000000000000000000000000000000000000000000000000000000000000000000000000000000000000000000000000000000000000000000000000000000000000000000000000000000000000000000000000000000000000000000000000000000000000000000000000000000000000000000000000000000000000000000000000000000000000000000000000000000000000000000000000000000",
                        "coinbase" : "0x2adc25665018aa1fe0e6bc666dac8fc2697ff9ba",
                        "difficulty" : "0x00",
                        "excessBlobGas" : "0x00",
                        "extraData" : "0x42",
                        "gasLimit" : "0x7fffffffffffffff",
                        "gasUsed" : "0x0125b8",
                        "hash" : "0x120726b702f5609212f3debd63ee778c6922f66e43050f444edd1ef826cbb2b7",
                        "mixHash" : "0x56e81f171bcc55a6ff8345e692c0f86e5b48e01b996cadc001622fb5e363b421",
                        "nonce" : "0x0000000000000000",
                        "number" : "0x01",
                        "parentBeaconBlockRoot" : "0x0000000000000000000000000000000000000000000000000000000000000000",
                        "parentHash" : "0x286a26a6c05ea12f11b541486c5eb8ef0a36ce29b61e86f2a98886a3886b202c",
                        "receiptTrie" : "0xed9c51ea52c968e552e370a77a41dac98606e98b915092fb5f949d6452fce1c4",
                        "stateRoot" : "0xe0f964be6b57cc67890cfdf64bf2b9533866b78aa0cd48a33a25768e2b32a6dd",
                        "timestamp" : "0x079e",
                        "transactionsTrie" : "0x71e515dd89e8a7973402c2e11646081b4e2209b2d3a1550df5095289dabcb3fb",
                        "uncleHash" : "0x1dcc4de8dec75d7aab85b567b6ccd41ad312451b948a7413f0a142fd40d49347",
                        "withdrawalsRoot" : "0xbad81f171bcc55a6ff8345e692c0f86e5b48e01b996cadc001622fb5e363b421"
                    },
                    "transactions" : [
                        {
                            "data" : "0x600160015500",
                            "gasLimit" : "0x061a80",
                            "gasPrice" : "0x28",
                            "nonce" : "0x00",
                            "r" : "0x0b46eb2e2c914b99416e723a37be923605238a81c83c25b5f842544bebea8816",
                            "s" : "0x65730cb3fb806bd5260c1db09198459a2a2499e51b43a3780b48c1a3594133f2",
                            "to" : "",
                            "v" : "0x1b",
                            "value" : "0x00"
                        }
                    ],
                    "uncleHeaders" : [
                    ],
                    "withdrawals" : [
                    ]
                }
            }
        ],
        "genesisBlockHeader" : {
            "baseFeePerGas" : "0x0a",
            "blobGasUsed" : "0x00",
            "bloom" : "0x00000000000000000000000000000000000000000000000000000000000000000000000000000000000000000000000000000000000000000000000000000000000000000000000000000000000000000000000000000000000000000000000000000000000000000000000000000000000000000000000000000000000000000000000000000000000000000000000000000000000000000000000000000000000000000000000000000000000000000000000000000000000000000000000000000000000000000000000000000000000000000000000000000000000000000000000000000000000000000000000000000000000000000000000000000000",
            "coinbase" : "0x2adc25665018aa1fe0e6bc666dac8fc2697ff9ba",
            "difficulty" : "0x00",
            "excessBlobGas" : "0x00",
            "extraData" : "0x42",
            "gasLimit" : "0x7fffffffffffffff",
            "gasUsed" : "0x00",
            "hash" : "0x286a26a6c05ea12f11b541486c5eb8ef0a36ce29b61e86f2a98886a3886b202c",
            "mixHash" : "0x56e81f171bcc55a6ff8345e692c0f86e5b48e01b996cadc001622fb5e363b421",
            "nonce" : "0x0000000000000000",
            "number" : "0x00",
            "parentBeaconBlockRoot" : "0x0000000000000000000000000000000000000000000000000000000000000000",
            "parentHash" : "0x0000000000000000000000000000000000000000000000000000000000000000",
            "receiptTrie" : "0x56e81f171bcc55a6ff8345e692c0f86e5b48e01b996cadc001622fb5e363b421",
            "stateRoot" : "0xc9f38211bd47d18248e2bd461131b4b454dde6dd63ab70d57e157d2fe058b342",
            "timestamp" : "0x03b6",
            "transactionsTrie" : "0x56e81f171bcc55a6ff8345e692c0f86e5b48e01b996cadc001622fb5e363b421",
            "uncleHash" : "0x1dcc4de8dec75d7aab85b567b6ccd41ad312451b948a7413f0a142fd40d49347",
            "withdrawalsRoot" : "0x56e81f171bcc55a6ff8345e692c0f86e5b48e01b996cadc001622fb5e363b421"
        },
        "genesisRLP" : "0xf90242f9023ca00000000000000000000000000000000000000000000000000000000000000000a01dcc4de8dec75d7aab85b567b6ccd41ad312451b948a7413f0a142fd40d49347942adc25665018aa1fe0e6bc666dac8fc2697ff9baa0c9f38211bd47d18248e2bd461131b4b454dde6dd63ab70d57e157d2fe058b342a056e81f171bcc55a6ff8345e692c0f86e5b48e01b996cadc001622fb5e363b421a056e81f171bcc55a6ff8345e692c0f86e5b48e01b996cadc001622fb5e363b421b90100000000000000000000000000000000000000000000000000000000000000000000000000000000000000000000000000000000000000000000000000000000000000000000000000000000000000000000000000000000000000000000000000000000000000000000000000000000000000000000000000000000000000000000000000000000000000000000000000000000000000000000000000000000000000000000000000000000000000000000000000000000000000000000000000000000000000000000000000000000000000000000000000000000000000000000000000000000000000000000000000000000000000000000000000000000008080887fffffffffffffff808203b642a056e81f171bcc55a6ff8345e692c0f86e5b48e01b996cadc001622fb5e363b4218800000000000000000aa056e81f171bcc55a6ff8345e692c0f86e5b48e01b996cadc001622fb5e363b4218080a00000000000000000000000000000000000000000000000000000000000000000c0c0c0",
        "lastblockhash" : "0x286a26a6c05ea12f11b541486c5eb8ef0a36ce29b61e86f2a98886a3886b202c",
        "network" : "Cancun",
        "postState" : {
            "0x000f3df6d732807ef1319fb7b8bb8522d0beac02" : {
                "balance" : "0x00",
                "code" : "0x3373fffffffffffffffffffffffffffffffffffffffe14604d57602036146024575f5ffd5b5f35801560495762001fff810690815414603c575f5ffd5b62001fff01545f5260205ff35b5f5ffd5b62001fff42064281555f359062001fff015500",
                "nonce" : "0x01",
                "storage" : {
                    "0x03b6" : "0x03b6"
                }
            },
            "0xa94f5374fce5edbc8e2a8697c15331677e6ebf0b" : {
                "balance" : "0x016345785d8a0000",
                "code" : "0x",
                "nonce" : "0x00",
                "storage" : {
                }
            }
        },
        "pre" : {
            "0x000f3df6d732807ef1319fb7b8bb8522d0beac02" : {
                "balance" : "0x00",
                "code" : "0x3373fffffffffffffffffffffffffffffffffffffffe14604d57602036146024575f5ffd5b5f35801560495762001fff810690815414603c575f5ffd5b62001fff01545f5260205ff35b5f5ffd5b62001fff42064281555f359062001fff015500",
                "nonce" : "0x01",
                "storage" : {
                    "0x03b6" : "0x03b6"
                }
            },
            "0xa94f5374fce5edbc8e2a8697c15331677e6ebf0b" : {
                "balance" : "0x016345785d8a0000",
                "code" : "0x",
                "nonce" : "0x00",
                "storage" : {
                }
            }
        },
        "sealEngine" : "NoProof"
    },
    "incorrectWithdrawalsRoot_Shanghai" : {
        "_info" : {
            "comment" : "Test vectors BSHA0004",
            "filling-rpc-server" : "evm version 1.14.0-unstable-d8e0807d-20240306",
            "filling-tool-version" : "retesteth-0.3.2-cancun+commit.43b706cc.Linux.g++",
            "generatedTestHash" : "984b360d829f1b737b4114c8d1ba420a10c734800b56c8e728941fcb11ebebc2",
            "lllcversion" : "Version: 0.5.14-develop.2023.7.11+commit.c58ab2c6.mod.Linux.g++",
            "solidity" : "Version: 0.8.21+commit.d9974bed.Linux.g++",
            "source" : "src/BlockchainTestsFiller/InvalidBlocks/bc4895-withdrawals/incorrectWithdrawalsRootFiller.json",
            "sourceHash" : "8d163a18ee59306b31b969065f8a6c32c2c7c734c8ffc59df22b0285027df67b"
        },
        "blocks" : [
            {
                "blocknumber" : "1",
                "chainname" : "default",
                "expectException" : "InvalidWithdrawals",
                "rlp" : "0xf90292f9021ca0151934ad9b654c50197f37018ee5ee9bb922dec0a1b5e24a6d679cb111cdb107a01dcc4de8dec75d7aab85b567b6ccd41ad312451b948a7413f0a142fd40d49347942adc25665018aa1fe0e6bc666dac8fc2697ff9baa095efce3d6972874ca8b531b233b7a1d1ff0a56f08b20c8f1b89bef1b001194a5a071e515dd89e8a7973402c2e11646081b4e2209b2d3a1550df5095289dabcb3fba0ed9c51ea52c968e552e370a77a41dac98606e98b915092fb5f949d6452fce1c4b90100000000000000000000000000000000000000000000000000000000000000000000000000000000000000000000000000000000000000000000000000000000000000000000000000000000000000000000000000000000000000000000000000000000000000000000000000000000000000000000000000000000000000000000000000000000000000000000000000000000000000000000000000000000000000000000000000000000000000000000000000000000000000000000000000000000000000000000000000000000000000000000000000000000000000000000000000000000000000000000000000000000000000000000000000000000008001887fffffffffffffff830125b882079e42a056e81f171bcc55a6ff8345e692c0f86e5b48e01b996cadc001622fb5e363b42188000000000000000009a0bad81f171bcc55a6ff8345e692c0f86e5b48e01b996cadc001622fb5e363b421f854f852802883061a808080866001600155001ba00b46eb2e2c914b99416e723a37be923605238a81c83c25b5f842544bebea8816a065730cb3fb806bd5260c1db09198459a2a2499e51b43a3780b48c1a3594133f2c0dbda808094c94f5374fce5edbc8e2a8697c15331677e6ebf0b822710",
                "rlp_decoded" : {
                    "blockHeader" : {
                        "baseFeePerGas" : "0x09",
                        "bloom" : "0x00000000000000000000000000000000000000000000000000000000000000000000000000000000000000000000000000000000000000000000000000000000000000000000000000000000000000000000000000000000000000000000000000000000000000000000000000000000000000000000000000000000000000000000000000000000000000000000000000000000000000000000000000000000000000000000000000000000000000000000000000000000000000000000000000000000000000000000000000000000000000000000000000000000000000000000000000000000000000000000000000000000000000000000000000000000",
                        "coinbase" : "0x2adc25665018aa1fe0e6bc666dac8fc2697ff9ba",
                        "difficulty" : "0x00",
                        "extraData" : "0x42",
                        "gasLimit" : "0x7fffffffffffffff",
                        "gasUsed" : "0x0125b8",
                        "hash" : "0xe5fa9af45dc0ba0bd922874f8decc0a61bf14e340c0eae95943e90a4f0a421ef",
                        "mixHash" : "0x56e81f171bcc55a6ff8345e692c0f86e5b48e01b996cadc001622fb5e363b421",
                        "nonce" : "0x0000000000000000",
                        "number" : "0x01",
                        "parentHash" : "0x151934ad9b654c50197f37018ee5ee9bb922dec0a1b5e24a6d679cb111cdb107",
                        "receiptTrie" : "0xed9c51ea52c968e552e370a77a41dac98606e98b915092fb5f949d6452fce1c4",
                        "stateRoot" : "0x95efce3d6972874ca8b531b233b7a1d1ff0a56f08b20c8f1b89bef1b001194a5",
                        "timestamp" : "0x079e",
                        "transactionsTrie" : "0x71e515dd89e8a7973402c2e11646081b4e2209b2d3a1550df5095289dabcb3fb",
                        "uncleHash" : "0x1dcc4de8dec75d7aab85b567b6ccd41ad312451b948a7413f0a142fd40d49347",
                        "withdrawalsRoot" : "0xbad81f171bcc55a6ff8345e692c0f86e5b48e01b996cadc001622fb5e363b421"
                    },
                    "transactions" : [
                        {
                            "data" : "0x600160015500",
                            "gasLimit" : "0x061a80",
                            "gasPrice" : "0x28",
                            "nonce" : "0x00",
                            "r" : "0x0b46eb2e2c914b99416e723a37be923605238a81c83c25b5f842544bebea8816",
                            "s" : "0x65730cb3fb806bd5260c1db09198459a2a2499e51b43a3780b48c1a3594133f2",
                            "to" : "",
                            "v" : "0x1b",
                            "value" : "0x00"
                        }
                    ],
                    "uncleHeaders" : [
                    ],
                    "withdrawals" : [
                        {
                            "address" : "0xc94f5374fce5edbc8e2a8697c15331677e6ebf0b",
                            "amount" : "0x2710",
                            "index" : "0x00",
                            "validatorIndex" : "0x00"
                        }
                    ]
                }
            },
            {
                "blocknumber" : "1",
                "chainname" : "default",
                "expectException" : "InvalidWithdrawals",
                "rlp" : "0xf90277f9021ca0151934ad9b654c50197f37018ee5ee9bb922dec0a1b5e24a6d679cb111cdb107a01dcc4de8dec75d7aab85b567b6ccd41ad312451b948a7413f0a142fd40d49347942adc25665018aa1fe0e6bc666dac8fc2697ff9baa0e6ea33235bf3a6da3f95b8697a41467f51d4027d8f8ddc81e4e160dbdafa3c6ca071e515dd89e8a7973402c2e11646081b4e2209b2d3a1550df5095289dabcb3fba0ed9c51ea52c968e552e370a77a41dac98606e98b915092fb5f949d6452fce1c4b90100000000000000000000000000000000000000000000000000000000000000000000000000000000000000000000000000000000000000000000000000000000000000000000000000000000000000000000000000000000000000000000000000000000000000000000000000000000000000000000000000000000000000000000000000000000000000000000000000000000000000000000000000000000000000000000000000000000000000000000000000000000000000000000000000000000000000000000000000000000000000000000000000000000000000000000000000000000000000000000000000000000000000000000000000000000008001887fffffffffffffff830125b882079e42a056e81f171bcc55a6ff8345e692c0f86e5b48e01b996cadc001622fb5e363b42188000000000000000009a0bad81f171bcc55a6ff8345e692c0f86e5b48e01b996cadc001622fb5e363b421f854f852802883061a808080866001600155001ba00b46eb2e2c914b99416e723a37be923605238a81c83c25b5f842544bebea8816a065730cb3fb806bd5260c1db09198459a2a2499e51b43a3780b48c1a3594133f2c0c0",
                "rlp_decoded" : {
                    "blockHeader" : {
                        "baseFeePerGas" : "0x09",
                        "bloom" : "0x00000000000000000000000000000000000000000000000000000000000000000000000000000000000000000000000000000000000000000000000000000000000000000000000000000000000000000000000000000000000000000000000000000000000000000000000000000000000000000000000000000000000000000000000000000000000000000000000000000000000000000000000000000000000000000000000000000000000000000000000000000000000000000000000000000000000000000000000000000000000000000000000000000000000000000000000000000000000000000000000000000000000000000000000000000000",
                        "coinbase" : "0x2adc25665018aa1fe0e6bc666dac8fc2697ff9ba",
                        "difficulty" : "0x00",
                        "extraData" : "0x42",
                        "gasLimit" : "0x7fffffffffffffff",
                        "gasUsed" : "0x0125b8",
                        "hash" : "0xcba636ff939fe4794cab414a49b7cf7163bcc169552a0812f031aa30d3dfaa40",
                        "mixHash" : "0x56e81f171bcc55a6ff8345e692c0f86e5b48e01b996cadc001622fb5e363b421",
                        "nonce" : "0x0000000000000000",
                        "number" : "0x01",
                        "parentHash" : "0x151934ad9b654c50197f37018ee5ee9bb922dec0a1b5e24a6d679cb111cdb107",
                        "receiptTrie" : "0xed9c51ea52c968e552e370a77a41dac98606e98b915092fb5f949d6452fce1c4",
                        "stateRoot" : "0xe6ea33235bf3a6da3f95b8697a41467f51d4027d8f8ddc81e4e160dbdafa3c6c",
                        "timestamp" : "0x079e",
                        "transactionsTrie" : "0x71e515dd89e8a7973402c2e11646081b4e2209b2d3a1550df5095289dabcb3fb",
                        "uncleHash" : "0x1dcc4de8dec75d7aab85b567b6ccd41ad312451b948a7413f0a142fd40d49347",
                        "withdrawalsRoot" : "0xbad81f171bcc55a6ff8345e692c0f86e5b48e01b996cadc001622fb5e363b421"
                    },
                    "transactions" : [
                        {
                            "data" : "0x600160015500",
                            "gasLimit" : "0x061a80",
                            "gasPrice" : "0x28",
                            "nonce" : "0x00",
                            "r" : "0x0b46eb2e2c914b99416e723a37be923605238a81c83c25b5f842544bebea8816",
                            "s" : "0x65730cb3fb806bd5260c1db09198459a2a2499e51b43a3780b48c1a3594133f2",
                            "to" : "",
                            "v" : "0x1b",
                            "value" : "0x00"
                        }
                    ],
                    "uncleHeaders" : [
                    ],
                    "withdrawals" : [
                    ]
                }
            }
        ],
        "genesisBlockHeader" : {
            "baseFeePerGas" : "0x0a",
            "bloom" : "0x00000000000000000000000000000000000000000000000000000000000000000000000000000000000000000000000000000000000000000000000000000000000000000000000000000000000000000000000000000000000000000000000000000000000000000000000000000000000000000000000000000000000000000000000000000000000000000000000000000000000000000000000000000000000000000000000000000000000000000000000000000000000000000000000000000000000000000000000000000000000000000000000000000000000000000000000000000000000000000000000000000000000000000000000000000000",
            "coinbase" : "0x2adc25665018aa1fe0e6bc666dac8fc2697ff9ba",
            "difficulty" : "0x00",
            "extraData" : "0x42",
            "gasLimit" : "0x7fffffffffffffff",
            "gasUsed" : "0x00",
            "hash" : "0x151934ad9b654c50197f37018ee5ee9bb922dec0a1b5e24a6d679cb111cdb107",
            "mixHash" : "0x56e81f171bcc55a6ff8345e692c0f86e5b48e01b996cadc001622fb5e363b421",
            "nonce" : "0x0000000000000000",
            "number" : "0x00",
            "parentHash" : "0x0000000000000000000000000000000000000000000000000000000000000000",
            "receiptTrie" : "0x56e81f171bcc55a6ff8345e692c0f86e5b48e01b996cadc001622fb5e363b421",
            "stateRoot" : "0x046119afb1ab36aaa8f66088677ed96cd62762f6d3e65642898e189fbe702d51",
            "timestamp" : "0x03b6",
            "transactionsTrie" : "0x56e81f171bcc55a6ff8345e692c0f86e5b48e01b996cadc001622fb5e363b421",
            "uncleHash" : "0x1dcc4de8dec75d7aab85b567b6ccd41ad312451b948a7413f0a142fd40d49347",
            "withdrawalsRoot" : "0x56e81f171bcc55a6ff8345e692c0f86e5b48e01b996cadc001622fb5e363b421"
        },
        "genesisRLP" : "0xf9021ff90219a00000000000000000000000000000000000000000000000000000000000000000a01dcc4de8dec75d7aab85b567b6ccd41ad312451b948a7413f0a142fd40d49347942adc25665018aa1fe0e6bc666dac8fc2697ff9baa0046119afb1ab36aaa8f66088677ed96cd62762f6d3e65642898e189fbe702d51a056e81f171bcc55a6ff8345e692c0f86e5b48e01b996cadc001622fb5e363b421a056e81f171bcc55a6ff8345e692c0f86e5b48e01b996cadc001622fb5e363b421b90100000000000000000000000000000000000000000000000000000000000000000000000000000000000000000000000000000000000000000000000000000000000000000000000000000000000000000000000000000000000000000000000000000000000000000000000000000000000000000000000000000000000000000000000000000000000000000000000000000000000000000000000000000000000000000000000000000000000000000000000000000000000000000000000000000000000000000000000000000000000000000000000000000000000000000000000000000000000000000000000000000000000000000000000000000000008080887fffffffffffffff808203b642a056e81f171bcc55a6ff8345e692c0f86e5b48e01b996cadc001622fb5e363b4218800000000000000000aa056e81f171bcc55a6ff8345e692c0f86e5b48e01b996cadc001622fb5e363b421c0c0c0",
        "lastblockhash" : "0x151934ad9b654c50197f37018ee5ee9bb922dec0a1b5e24a6d679cb111cdb107",
        "network" : "Shanghai",
        "postState" : {
            "0xa94f5374fce5edbc8e2a8697c15331677e6ebf0b" : {
                "balance" : "0x016345785d8a0000",
                "code" : "0x",
                "nonce" : "0x00",
                "storage" : {
                }
            }
        },
        "pre" : {
            "0xa94f5374fce5edbc8e2a8697c15331677e6ebf0b" : {
                "balance" : "0x016345785d8a0000",
                "code" : "0x",
                "nonce" : "0x00",
                "storage" : {
                }
            }
        },
        "sealEngine" : "NoProof"
    }
}