{
    "incorrectWithdrawalsRoot_Cancun" : {
        "_info" : {
            "comment" : "Test vectors BSHA0004",
            "filling-rpc-server" : "evm version 1.13.5-unstable-cd295356-20231019",
            "filling-tool-version" : "retesteth-0.3.1-cancun+commit.ac593cd1.Linux.g++",
            "generatedTestHash" : "9ef650469163f805517b2b8c790a8a3e414d1e9394c9a8bdc6a795aa07bbe994",
            "lllcversion" : "Version: 0.5.14-develop.2023.7.11+commit.c58ab2c6.mod.Linux.g++",
            "solidity" : "Version: 0.8.21+commit.d9974bed.Linux.g++",
            "source" : "src/BlockchainTestsFiller/InvalidBlocks/bc4895-withdrawals/incorrectWithdrawalsRootFiller.json",
            "sourceHash" : "4b2e4fa2ba668ed6bc2fa028110506cc8a31e181c8774913d2e7da6a86ac90f1"
        },
        "blocks" : [
            {
                "blocknumber" : "1",
                "chainname" : "default",
                "expectException" : "InvalidWithdrawals",
                "rlp" : "0xf902b5f9023fa0333acd6ccead557cbeab69dd3946edb00841bd24ce21207b886dec3ec032e869a01dcc4de8dec75d7aab85b567b6ccd41ad312451b948a7413f0a142fd40d49347942adc25665018aa1fe0e6bc666dac8fc2697ff9baa095efce3d6972874ca8b531b233b7a1d1ff0a56f08b20c8f1b89bef1b001194a5a071e515dd89e8a7973402c2e11646081b4e2209b2d3a1550df5095289dabcb3fba0ed9c51ea52c968e552e370a77a41dac98606e98b915092fb5f949d6452fce1c4b90100000000000000000000000000000000000000000000000000000000000000000000000000000000000000000000000000000000000000000000000000000000000000000000000000000000000000000000000000000000000000000000000000000000000000000000000000000000000000000000000000000000000000000000000000000000000000000000000000000000000000000000000000000000000000000000000000000000000000000000000000000000000000000000000000000000000000000000000000000000000000000000000000000000000000000000000000000000000000000000000000000000000000000000000000000000008001887fffffffffffffff830125b882079e42a056e81f171bcc55a6ff8345e692c0f86e5b48e01b996cadc001622fb5e363b42188000000000000000009a0bad81f171bcc55a6ff8345e692c0f86e5b48e01b996cadc001622fb5e363b4218080a00000000000000000000000000000000000000000000000000000000000000000f854f852802883061a808080866001600155001ba00b46eb2e2c914b99416e723a37be923605238a81c83c25b5f842544bebea8816a065730cb3fb806bd5260c1db09198459a2a2499e51b43a3780b48c1a3594133f2c0dbda808094c94f5374fce5edbc8e2a8697c15331677e6ebf0b822710",
                "rlp_decoded" : {
                    "blockHeader" : {
                        "baseFeePerGas" : "0x09",
                        "blobGasUsed" : "0x00",
                        "bloom" : "0x00000000000000000000000000000000000000000000000000000000000000000000000000000000000000000000000000000000000000000000000000000000000000000000000000000000000000000000000000000000000000000000000000000000000000000000000000000000000000000000000000000000000000000000000000000000000000000000000000000000000000000000000000000000000000000000000000000000000000000000000000000000000000000000000000000000000000000000000000000000000000000000000000000000000000000000000000000000000000000000000000000000000000000000000000000000",
                        "coinbase" : "0x2adc25665018aa1fe0e6bc666dac8fc2697ff9ba",
                        "difficulty" : "0x00",
                        "excessBlobGas" : "0x00",
                        "extraData" : "0x42",
                        "gasLimit" : "0x7fffffffffffffff",
                        "gasUsed" : "0x0125b8",
                        "hash" : "0xa1f77e5ee21d6a1a401eac85632df1c47cceb2c0fbb9b5ac6df2db0cf4b14345",
                        "mixHash" : "0x56e81f171bcc55a6ff8345e692c0f86e5b48e01b996cadc001622fb5e363b421",
                        "nonce" : "0x0000000000000000",
                        "number" : "0x01",
                        "parentBeaconBlockRoot" : "0x0000000000000000000000000000000000000000000000000000000000000000",
                        "parentHash" : "0x333acd6ccead557cbeab69dd3946edb00841bd24ce21207b886dec3ec032e869",
                        "receiptTrie" : "0xed9c51ea52c968e552e370a77a41dac98606e98b915092fb5f949d6452fce1c4",
                        "stateRoot" : "0x95efce3d6972874ca8b531b233b7a1d1ff0a56f08b20c8f1b89bef1b001194a5",
                        "timestamp" : "0x079e",
                        "transactionsTrie" : "0x71e515dd89e8a7973402c2e11646081b4e2209b2d3a1550df5095289dabcb3fb",
                        "uncleHash" : "0x1dcc4de8dec75d7aab85b567b6ccd41ad312451b948a7413f0a142fd40d49347",
                        "withdrawalsRoot" : "0xbad81f171bcc55a6ff8345e692c0f86e5b48e01b996cadc001622fb5e363b421"
                    },
                    "transactions" : [
                        {
                            "data" : "0x600160015500",
                            "gasLimit" : "0x061a80",
                            "gasPrice" : "0x28",
                            "nonce" : "0x00",
                            "r" : "0x0b46eb2e2c914b99416e723a37be923605238a81c83c25b5f842544bebea8816",
                            "s" : "0x65730cb3fb806bd5260c1db09198459a2a2499e51b43a3780b48c1a3594133f2",
                            "to" : "",
                            "v" : "0x1b",
                            "value" : "0x00"
                        }
                    ],
                    "uncleHeaders" : [
                    ],
                    "withdrawals" : [
                        {
                            "address" : "0xc94f5374fce5edbc8e2a8697c15331677e6ebf0b",
                            "amount" : "0x2710",
                            "index" : "0x00",
                            "validatorIndex" : "0x00"
                        }
                    ]
                }
            },
            {
                "blocknumber" : "1",
                "chainname" : "default",
                "expectException" : "InvalidWithdrawals",
                "rlp" : "0xf9029af9023fa0333acd6ccead557cbeab69dd3946edb00841bd24ce21207b886dec3ec032e869a01dcc4de8dec75d7aab85b567b6ccd41ad312451b948a7413f0a142fd40d49347942adc25665018aa1fe0e6bc666dac8fc2697ff9baa0e6ea33235bf3a6da3f95b8697a41467f51d4027d8f8ddc81e4e160dbdafa3c6ca071e515dd89e8a7973402c2e11646081b4e2209b2d3a1550df5095289dabcb3fba0ed9c51ea52c968e552e370a77a41dac98606e98b915092fb5f949d6452fce1c4b90100000000000000000000000000000000000000000000000000000000000000000000000000000000000000000000000000000000000000000000000000000000000000000000000000000000000000000000000000000000000000000000000000000000000000000000000000000000000000000000000000000000000000000000000000000000000000000000000000000000000000000000000000000000000000000000000000000000000000000000000000000000000000000000000000000000000000000000000000000000000000000000000000000000000000000000000000000000000000000000000000000000000000000000000000000000008001887fffffffffffffff830125b882079e42a056e81f171bcc55a6ff8345e692c0f86e5b48e01b996cadc001622fb5e363b42188000000000000000009a0bad81f171bcc55a6ff8345e692c0f86e5b48e01b996cadc001622fb5e363b4218080a00000000000000000000000000000000000000000000000000000000000000000f854f852802883061a808080866001600155001ba00b46eb2e2c914b99416e723a37be923605238a81c83c25b5f842544bebea8816a065730cb3fb806bd5260c1db09198459a2a2499e51b43a3780b48c1a3594133f2c0c0",
                "rlp_decoded" : {
                    "blockHeader" : {
                        "baseFeePerGas" : "0x09",
                        "blobGasUsed" : "0x00",
                        "bloom" : "0x00000000000000000000000000000000000000000000000000000000000000000000000000000000000000000000000000000000000000000000000000000000000000000000000000000000000000000000000000000000000000000000000000000000000000000000000000000000000000000000000000000000000000000000000000000000000000000000000000000000000000000000000000000000000000000000000000000000000000000000000000000000000000000000000000000000000000000000000000000000000000000000000000000000000000000000000000000000000000000000000000000000000000000000000000000000",
                        "coinbase" : "0x2adc25665018aa1fe0e6bc666dac8fc2697ff9ba",
                        "difficulty" : "0x00",
                        "excessBlobGas" : "0x00",
                        "extraData" : "0x42",
                        "gasLimit" : "0x7fffffffffffffff",
                        "gasUsed" : "0x0125b8",
                        "hash" : "0xc613a905c44af258b8f3fb6ae8630b5767ecc29249c7469af54f51c2d7f105eb",
                        "mixHash" : "0x56e81f171bcc55a6ff8345e692c0f86e5b48e01b996cadc001622fb5e363b421",
                        "nonce" : "0x0000000000000000",
                        "number" : "0x01",
                        "parentBeaconBlockRoot" : "0x0000000000000000000000000000000000000000000000000000000000000000",
                        "parentHash" : "0x333acd6ccead557cbeab69dd3946edb00841bd24ce21207b886dec3ec032e869",
                        "receiptTrie" : "0xed9c51ea52c968e552e370a77a41dac98606e98b915092fb5f949d6452fce1c4",
                        "stateRoot" : "0xe6ea33235bf3a6da3f95b8697a41467f51d4027d8f8ddc81e4e160dbdafa3c6c",
                        "timestamp" : "0x079e",
                        "transactionsTrie" : "0x71e515dd89e8a7973402c2e11646081b4e2209b2d3a1550df5095289dabcb3fb",
                        "uncleHash" : "0x1dcc4de8dec75d7aab85b567b6ccd41ad312451b948a7413f0a142fd40d49347",
                        "withdrawalsRoot" : "0xbad81f171bcc55a6ff8345e692c0f86e5b48e01b996cadc001622fb5e363b421"
                    },
                    "transactions" : [
                        {
                            "data" : "0x600160015500",
                            "gasLimit" : "0x061a80",
                            "gasPrice" : "0x28",
                            "nonce" : "0x00",
                            "r" : "0x0b46eb2e2c914b99416e723a37be923605238a81c83c25b5f842544bebea8816",
                            "s" : "0x65730cb3fb806bd5260c1db09198459a2a2499e51b43a3780b48c1a3594133f2",
                            "to" : "",
                            "v" : "0x1b",
                            "value" : "0x00"
                        }
                    ],
                    "uncleHeaders" : [
                    ],
                    "withdrawals" : [
                    ]
                }
            }
        ],
        "genesisBlockHeader" : {
            "baseFeePerGas" : "0x0a",
            "blobGasUsed" : "0x00",
            "bloom" : "0x00000000000000000000000000000000000000000000000000000000000000000000000000000000000000000000000000000000000000000000000000000000000000000000000000000000000000000000000000000000000000000000000000000000000000000000000000000000000000000000000000000000000000000000000000000000000000000000000000000000000000000000000000000000000000000000000000000000000000000000000000000000000000000000000000000000000000000000000000000000000000000000000000000000000000000000000000000000000000000000000000000000000000000000000000000000",
            "coinbase" : "0x2adc25665018aa1fe0e6bc666dac8fc2697ff9ba",
            "difficulty" : "0x00",
            "excessBlobGas" : "0x00",
            "extraData" : "0x42",
            "gasLimit" : "0x7fffffffffffffff",
            "gasUsed" : "0x00",
            "hash" : "0x333acd6ccead557cbeab69dd3946edb00841bd24ce21207b886dec3ec032e869",
            "mixHash" : "0x56e81f171bcc55a6ff8345e692c0f86e5b48e01b996cadc001622fb5e363b421",
            "nonce" : "0x0000000000000000",
            "number" : "0x00",
            "parentBeaconBlockRoot" : "0x0000000000000000000000000000000000000000000000000000000000000000",
            "parentHash" : "0x0000000000000000000000000000000000000000000000000000000000000000",
            "receiptTrie" : "0x56e81f171bcc55a6ff8345e692c0f86e5b48e01b996cadc001622fb5e363b421",
            "stateRoot" : "0x046119afb1ab36aaa8f66088677ed96cd62762f6d3e65642898e189fbe702d51",
            "timestamp" : "0x03b6",
            "transactionsTrie" : "0x56e81f171bcc55a6ff8345e692c0f86e5b48e01b996cadc001622fb5e363b421",
            "uncleHash" : "0x1dcc4de8dec75d7aab85b567b6ccd41ad312451b948a7413f0a142fd40d49347",
            "withdrawalsRoot" : "0x56e81f171bcc55a6ff8345e692c0f86e5b48e01b996cadc001622fb5e363b421"
        },
        "genesisRLP" : "0xf90242f9023ca00000000000000000000000000000000000000000000000000000000000000000a01dcc4de8dec75d7aab85b567b6ccd41ad312451b948a7413f0a142fd40d49347942adc25665018aa1fe0e6bc666dac8fc2697ff9baa0046119afb1ab36aaa8f66088677ed96cd62762f6d3e65642898e189fbe702d51a056e81f171bcc55a6ff8345e692c0f86e5b48e01b996cadc001622fb5e363b421a056e81f171bcc55a6ff8345e692c0f86e5b48e01b996cadc001622fb5e363b421b90100000000000000000000000000000000000000000000000000000000000000000000000000000000000000000000000000000000000000000000000000000000000000000000000000000000000000000000000000000000000000000000000000000000000000000000000000000000000000000000000000000000000000000000000000000000000000000000000000000000000000000000000000000000000000000000000000000000000000000000000000000000000000000000000000000000000000000000000000000000000000000000000000000000000000000000000000000000000000000000000000000000000000000000000000000000008080887fffffffffffffff808203b642a056e81f171bcc55a6ff8345e692c0f86e5b48e01b996cadc001622fb5e363b4218800000000000000000aa056e81f171bcc55a6ff8345e692c0f86e5b48e01b996cadc001622fb5e363b4218080a00000000000000000000000000000000000000000000000000000000000000000c0c0c0",
        "lastblockhash" : "0x333acd6ccead557cbeab69dd3946edb00841bd24ce21207b886dec3ec032e869",
        "network" : "Cancun",
        "postState" : {
            "0xa94f5374fce5edbc8e2a8697c15331677e6ebf0b" : {
                "balance" : "0x016345785d8a0000",
                "code" : "0x",
                "nonce" : "0x00",
                "storage" : {
                }
            }
        },
        "pre" : {
            "0xa94f5374fce5edbc8e2a8697c15331677e6ebf0b" : {
                "balance" : "0x016345785d8a0000",
                "code" : "0x",
                "nonce" : "0x00",
                "storage" : {
                }
            }
        },
        "sealEngine" : "NoProof"
    },
    "incorrectWithdrawalsRoot_Shanghai" : {
        "_info" : {
            "comment" : "Test vectors BSHA0004",
            "filling-rpc-server" : "evm version 1.13.5-unstable-cd295356-20231019",
            "filling-tool-version" : "retesteth-0.3.1-cancun+commit.ac593cd1.Linux.g++",
            "generatedTestHash" : "984b360d829f1b737b4114c8d1ba420a10c734800b56c8e728941fcb11ebebc2",
            "lllcversion" : "Version: 0.5.14-develop.2023.7.11+commit.c58ab2c6.mod.Linux.g++",
            "solidity" : "Version: 0.8.21+commit.d9974bed.Linux.g++",
            "source" : "src/BlockchainTestsFiller/InvalidBlocks/bc4895-withdrawals/incorrectWithdrawalsRootFiller.json",
            "sourceHash" : "4b2e4fa2ba668ed6bc2fa028110506cc8a31e181c8774913d2e7da6a86ac90f1"
        },
        "blocks" : [
            {
                "blocknumber" : "1",
                "chainname" : "default",
                "expectException" : "InvalidWithdrawals",
                "rlp" : "0xf90292f9021ca0151934ad9b654c50197f37018ee5ee9bb922dec0a1b5e24a6d679cb111cdb107a01dcc4de8dec75d7aab85b567b6ccd41ad312451b948a7413f0a142fd40d49347942adc25665018aa1fe0e6bc666dac8fc2697ff9baa095efce3d6972874ca8b531b233b7a1d1ff0a56f08b20c8f1b89bef1b001194a5a071e515dd89e8a7973402c2e11646081b4e2209b2d3a1550df5095289dabcb3fba0ed9c51ea52c968e552e370a77a41dac98606e98b915092fb5f949d6452fce1c4b90100000000000000000000000000000000000000000000000000000000000000000000000000000000000000000000000000000000000000000000000000000000000000000000000000000000000000000000000000000000000000000000000000000000000000000000000000000000000000000000000000000000000000000000000000000000000000000000000000000000000000000000000000000000000000000000000000000000000000000000000000000000000000000000000000000000000000000000000000000000000000000000000000000000000000000000000000000000000000000000000000000000000000000000000000000000008001887fffffffffffffff830125b882079e42a056e81f171bcc55a6ff8345e692c0f86e5b48e01b996cadc001622fb5e363b42188000000000000000009a0bad81f171bcc55a6ff8345e692c0f86e5b48e01b996cadc001622fb5e363b421f854f852802883061a808080866001600155001ba00b46eb2e2c914b99416e723a37be923605238a81c83c25b5f842544bebea8816a065730cb3fb806bd5260c1db09198459a2a2499e51b43a3780b48c1a3594133f2c0dbda808094c94f5374fce5edbc8e2a8697c15331677e6ebf0b822710",
                "rlp_decoded" : {
                    "blockHeader" : {
                        "baseFeePerGas" : "0x09",
                        "bloom" : "0x00000000000000000000000000000000000000000000000000000000000000000000000000000000000000000000000000000000000000000000000000000000000000000000000000000000000000000000000000000000000000000000000000000000000000000000000000000000000000000000000000000000000000000000000000000000000000000000000000000000000000000000000000000000000000000000000000000000000000000000000000000000000000000000000000000000000000000000000000000000000000000000000000000000000000000000000000000000000000000000000000000000000000000000000000000000",
                        "coinbase" : "0x2adc25665018aa1fe0e6bc666dac8fc2697ff9ba",
                        "difficulty" : "0x00",
                        "extraData" : "0x42",
                        "gasLimit" : "0x7fffffffffffffff",
                        "gasUsed" : "0x0125b8",
                        "hash" : "0xe5fa9af45dc0ba0bd922874f8decc0a61bf14e340c0eae95943e90a4f0a421ef",
                        "mixHash" : "0x56e81f171bcc55a6ff8345e692c0f86e5b48e01b996cadc001622fb5e363b421",
                        "nonce" : "0x0000000000000000",
                        "number" : "0x01",
                        "parentHash" : "0x151934ad9b654c50197f37018ee5ee9bb922dec0a1b5e24a6d679cb111cdb107",
                        "receiptTrie" : "0xed9c51ea52c968e552e370a77a41dac98606e98b915092fb5f949d6452fce1c4",
                        "stateRoot" : "0x95efce3d6972874ca8b531b233b7a1d1ff0a56f08b20c8f1b89bef1b001194a5",
                        "timestamp" : "0x079e",
                        "transactionsTrie" : "0x71e515dd89e8a7973402c2e11646081b4e2209b2d3a1550df5095289dabcb3fb",
                        "uncleHash" : "0x1dcc4de8dec75d7aab85b567b6ccd41ad312451b948a7413f0a142fd40d49347",
                        "withdrawalsRoot" : "0xbad81f171bcc55a6ff8345e692c0f86e5b48e01b996cadc001622fb5e363b421"
                    },
                    "transactions" : [
                        {
                            "data" : "0x600160015500",
                            "gasLimit" : "0x061a80",
                            "gasPrice" : "0x28",
                            "nonce" : "0x00",
                            "r" : "0x0b46eb2e2c914b99416e723a37be923605238a81c83c25b5f842544bebea8816",
                            "s" : "0x65730cb3fb806bd5260c1db09198459a2a2499e51b43a3780b48c1a3594133f2",
                            "to" : "",
                            "v" : "0x1b",
                            "value" : "0x00"
                        }
                    ],
                    "uncleHeaders" : [
                    ],
                    "withdrawals" : [
                        {
                            "address" : "0xc94f5374fce5edbc8e2a8697c15331677e6ebf0b",
                            "amount" : "0x2710",
                            "index" : "0x00",
                            "validatorIndex" : "0x00"
                        }
                    ]
                }
            },
            {
                "blocknumber" : "1",
                "chainname" : "default",
                "expectException" : "InvalidWithdrawals",
                "rlp" : "0xf90277f9021ca0151934ad9b654c50197f37018ee5ee9bb922dec0a1b5e24a6d679cb111cdb107a01dcc4de8dec75d7aab85b567b6ccd41ad312451b948a7413f0a142fd40d49347942adc25665018aa1fe0e6bc666dac8fc2697ff9baa0e6ea33235bf3a6da3f95b8697a41467f51d4027d8f8ddc81e4e160dbdafa3c6ca071e515dd89e8a7973402c2e11646081b4e2209b2d3a1550df5095289dabcb3fba0ed9c51ea52c968e552e370a77a41dac98606e98b915092fb5f949d6452fce1c4b90100000000000000000000000000000000000000000000000000000000000000000000000000000000000000000000000000000000000000000000000000000000000000000000000000000000000000000000000000000000000000000000000000000000000000000000000000000000000000000000000000000000000000000000000000000000000000000000000000000000000000000000000000000000000000000000000000000000000000000000000000000000000000000000000000000000000000000000000000000000000000000000000000000000000000000000000000000000000000000000000000000000000000000000000000000000008001887fffffffffffffff830125b882079e42a056e81f171bcc55a6ff8345e692c0f86e5b48e01b996cadc001622fb5e363b42188000000000000000009a0bad81f171bcc55a6ff8345e692c0f86e5b48e01b996cadc001622fb5e363b421f854f852802883061a808080866001600155001ba00b46eb2e2c914b99416e723a37be923605238a81c83c25b5f842544bebea8816a065730cb3fb806bd5260c1db09198459a2a2499e51b43a3780b48c1a3594133f2c0c0",
                "rlp_decoded" : {
                    "blockHeader" : {
                        "baseFeePerGas" : "0x09",
                        "bloom" : "0x00000000000000000000000000000000000000000000000000000000000000000000000000000000000000000000000000000000000000000000000000000000000000000000000000000000000000000000000000000000000000000000000000000000000000000000000000000000000000000000000000000000000000000000000000000000000000000000000000000000000000000000000000000000000000000000000000000000000000000000000000000000000000000000000000000000000000000000000000000000000000000000000000000000000000000000000000000000000000000000000000000000000000000000000000000000",
                        "coinbase" : "0x2adc25665018aa1fe0e6bc666dac8fc2697ff9ba",
                        "difficulty" : "0x00",
                        "extraData" : "0x42",
                        "gasLimit" : "0x7fffffffffffffff",
                        "gasUsed" : "0x0125b8",
                        "hash" : "0xcba636ff939fe4794cab414a49b7cf7163bcc169552a0812f031aa30d3dfaa40",
                        "mixHash" : "0x56e81f171bcc55a6ff8345e692c0f86e5b48e01b996cadc001622fb5e363b421",
                        "nonce" : "0x0000000000000000",
                        "number" : "0x01",
                        "parentHash" : "0x151934ad9b654c50197f37018ee5ee9bb922dec0a1b5e24a6d679cb111cdb107",
                        "receiptTrie" : "0xed9c51ea52c968e552e370a77a41dac98606e98b915092fb5f949d6452fce1c4",
                        "stateRoot" : "0xe6ea33235bf3a6da3f95b8697a41467f51d4027d8f8ddc81e4e160dbdafa3c6c",
                        "timestamp" : "0x079e",
                        "transactionsTrie" : "0x71e515dd89e8a7973402c2e11646081b4e2209b2d3a1550df5095289dabcb3fb",
                        "uncleHash" : "0x1dcc4de8dec75d7aab85b567b6ccd41ad312451b948a7413f0a142fd40d49347",
                        "withdrawalsRoot" : "0xbad81f171bcc55a6ff8345e692c0f86e5b48e01b996cadc001622fb5e363b421"
                    },
                    "transactions" : [
                        {
                            "data" : "0x600160015500",
                            "gasLimit" : "0x061a80",
                            "gasPrice" : "0x28",
                            "nonce" : "0x00",
                            "r" : "0x0b46eb2e2c914b99416e723a37be923605238a81c83c25b5f842544bebea8816",
                            "s" : "0x65730cb3fb806bd5260c1db09198459a2a2499e51b43a3780b48c1a3594133f2",
                            "to" : "",
                            "v" : "0x1b",
                            "value" : "0x00"
                        }
                    ],
                    "uncleHeaders" : [
                    ],
                    "withdrawals" : [
                    ]
                }
            }
        ],
        "genesisBlockHeader" : {
            "baseFeePerGas" : "0x0a",
            "bloom" : "0x00000000000000000000000000000000000000000000000000000000000000000000000000000000000000000000000000000000000000000000000000000000000000000000000000000000000000000000000000000000000000000000000000000000000000000000000000000000000000000000000000000000000000000000000000000000000000000000000000000000000000000000000000000000000000000000000000000000000000000000000000000000000000000000000000000000000000000000000000000000000000000000000000000000000000000000000000000000000000000000000000000000000000000000000000000000",
            "coinbase" : "0x2adc25665018aa1fe0e6bc666dac8fc2697ff9ba",
            "difficulty" : "0x00",
            "extraData" : "0x42",
            "gasLimit" : "0x7fffffffffffffff",
            "gasUsed" : "0x00",
            "hash" : "0x151934ad9b654c50197f37018ee5ee9bb922dec0a1b5e24a6d679cb111cdb107",
            "mixHash" : "0x56e81f171bcc55a6ff8345e692c0f86e5b48e01b996cadc001622fb5e363b421",
            "nonce" : "0x0000000000000000",
            "number" : "0x00",
            "parentHash" : "0x0000000000000000000000000000000000000000000000000000000000000000",
            "receiptTrie" : "0x56e81f171bcc55a6ff8345e692c0f86e5b48e01b996cadc001622fb5e363b421",
            "stateRoot" : "0x046119afb1ab36aaa8f66088677ed96cd62762f6d3e65642898e189fbe702d51",
            "timestamp" : "0x03b6",
            "transactionsTrie" : "0x56e81f171bcc55a6ff8345e692c0f86e5b48e01b996cadc001622fb5e363b421",
            "uncleHash" : "0x1dcc4de8dec75d7aab85b567b6ccd41ad312451b948a7413f0a142fd40d49347",
            "withdrawalsRoot" : "0x56e81f171bcc55a6ff8345e692c0f86e5b48e01b996cadc001622fb5e363b421"
        },
        "genesisRLP" : "0xf9021ff90219a00000000000000000000000000000000000000000000000000000000000000000a01dcc4de8dec75d7aab85b567b6ccd41ad312451b948a7413f0a142fd40d49347942adc25665018aa1fe0e6bc666dac8fc2697ff9baa0046119afb1ab36aaa8f66088677ed96cd62762f6d3e65642898e189fbe702d51a056e81f171bcc55a6ff8345e692c0f86e5b48e01b996cadc001622fb5e363b421a056e81f171bcc55a6ff8345e692c0f86e5b48e01b996cadc001622fb5e363b421b90100000000000000000000000000000000000000000000000000000000000000000000000000000000000000000000000000000000000000000000000000000000000000000000000000000000000000000000000000000000000000000000000000000000000000000000000000000000000000000000000000000000000000000000000000000000000000000000000000000000000000000000000000000000000000000000000000000000000000000000000000000000000000000000000000000000000000000000000000000000000000000000000000000000000000000000000000000000000000000000000000000000000000000000000000000000008080887fffffffffffffff808203b642a056e81f171bcc55a6ff8345e692c0f86e5b48e01b996cadc001622fb5e363b4218800000000000000000aa056e81f171bcc55a6ff8345e692c0f86e5b48e01b996cadc001622fb5e363b421c0c0c0",
        "lastblockhash" : "0x151934ad9b654c50197f37018ee5ee9bb922dec0a1b5e24a6d679cb111cdb107",
        "network" : "Shanghai",
        "postState" : {
            "0xa94f5374fce5edbc8e2a8697c15331677e6ebf0b" : {
                "balance" : "0x016345785d8a0000",
                "code" : "0x",
                "nonce" : "0x00",
                "storage" : {
                }
            }
        },
        "pre" : {
            "0xa94f5374fce5edbc8e2a8697c15331677e6ebf0b" : {
                "balance" : "0x016345785d8a0000",
                "code" : "0x",
                "nonce" : "0x00",
                "storage" : {
                }
            }
        },
        "sealEngine" : "NoProof"
    }
}