{
    "staticcall_Cancun" : {
        "_info" : {
            "comment" : "Test vectors BSHB0025",
            "filling-rpc-server" : "evm version 1.14.4-unstable-3d8028a6-20240513",
            "filling-tool-version" : "retesteth-0.3.2-cancun+commit.cae6bc33.Linux.g++",
            "generatedTestHash" : "1968d9b9fd5bb86e25d34a2b7c27396a6ad104be05e3bfa191e03cc1dfb0e607",
            "lllcversion" : "Version: 0.5.14-develop.2023.7.11+commit.c58ab2c6.mod.Linux.g++",
            "solidity" : "Version: 0.8.21+commit.d9974bed.Linux.g++",
            "source" : "src/BlockchainTestsFiller/InvalidBlocks/bc4895-withdrawals/staticcallFiller.json",
            "sourceHash" : "9634f652161aed2c2b823e256ff4b6407a34c031f9282251eafe82e73c7a3bca"
        },
        "blocks" : [
            {
                "blockHeader" : {
                    "baseFeePerGas" : "0x09",
                    "blobGasUsed" : "0x00",
                    "bloom" : "0x00000000000000000000000000000000000000000000000000000000000000000000000000000000000000000000000000000000000000000000000000000000000000000000000000000000000000000000000000000000000000000000000000000000000000000000000000000000000000000000000000000000000000000000000000000000000000000000000000000000000000000000000000000000000000000000000000000000000000000000000000000000000000000000000000000000000000000000000000000000000000000000000000000000000000000000000000000000000000000000000000000000000000000000000000000000",
                    "coinbase" : "0x2adc25665018aa1fe0e6bc666dac8fc2697ff9ba",
                    "difficulty" : "0x00",
                    "excessBlobGas" : "0x00",
                    "extraData" : "0x42",
                    "gasLimit" : "0x7fffffffffffffff",
                    "gasUsed" : "0xb2a5",
                    "hash" : "0xc2cac43026331e9ab898d7fc23ce2b9aa2d532b7f4fa151ee16e6099b8b8f350",
                    "mixHash" : "0x56e81f171bcc55a6ff8345e692c0f86e5b48e01b996cadc001622fb5e363b421",
                    "nonce" : "0x0000000000000000",
                    "number" : "0x01",
                    "parentBeaconBlockRoot" : "0x0000000000000000000000000000000000000000000000000000000000000000",
                    "parentHash" : "0x7368cb6f566afe9214b1f798fec3832dd41067db60f6c0035f6b0b155860957b",
                    "receiptTrie" : "0x03bd0b6dd7b9896cbd95a5e275665b4f8d40bd5e2bba99d315bfed64d5b270d0",
                    "stateRoot" : "0xc2a48d28f3fed1eca8b0e71fde016b5925ed78d901433d25a808aca93e1e896f",
                    "timestamp" : "0x079e",
                    "transactionsTrie" : "0xde914974698ebf13d2fee2ca3b8f872cee19a8ed0225186f8ed117cd1bbb6aaa",
                    "uncleHash" : "0x1dcc4de8dec75d7aab85b567b6ccd41ad312451b948a7413f0a142fd40d49347",
                    "withdrawalsRoot" : "0x4ae14e53d6bf2a9c73891aef9d2e6373ff06d400b6e7727b17a5eceb5e8dec9d"
                },
                "blocknumber" : "1",
                "chainname" : "default",
                "rlp" : "0xf902c5f9023ea07368cb6f566afe9214b1f798fec3832dd41067db60f6c0035f6b0b155860957ba01dcc4de8dec75d7aab85b567b6ccd41ad312451b948a7413f0a142fd40d49347942adc25665018aa1fe0e6bc666dac8fc2697ff9baa0c2a48d28f3fed1eca8b0e71fde016b5925ed78d901433d25a808aca93e1e896fa0de914974698ebf13d2fee2ca3b8f872cee19a8ed0225186f8ed117cd1bbb6aaaa003bd0b6dd7b9896cbd95a5e275665b4f8d40bd5e2bba99d315bfed64d5b270d0b90100000000000000000000000000000000000000000000000000000000000000000000000000000000000000000000000000000000000000000000000000000000000000000000000000000000000000000000000000000000000000000000000000000000000000000000000000000000000000000000000000000000000000000000000000000000000000000000000000000000000000000000000000000000000000000000000000000000000000000000000000000000000000000000000000000000000000000000000000000000000000000000000000000000000000000000000000000000000000000000000000000000000000000000000000000000008001887fffffffffffffff82b2a582079e42a056e81f171bcc55a6ff8345e692c0f86e5b48e01b996cadc001622fb5e363b42188000000000000000009a04ae14e53d6bf2a9c73891aef9d2e6373ff06d400b6e7727b17a5eceb5e8dec9d8080a00000000000000000000000000000000000000000000000000000000000000000f864f862808203e883030d4094d00000000000000000000000000000000000000180801ca02494bf927d5ba65a323fc98027694371a7c4ee51c99854a20455567fa12300d2a026f63327ded8c8f7ecf73f868bf04c69a390b56c2b5338d258a7330559cdbdcac0dcdb808094c000000000000000000000000000000000000001830186a0",
                "transactions" : [
                    {
                        "data" : "0x",
                        "gasLimit" : "0x030d40",
                        "gasPrice" : "0x03e8",
                        "nonce" : "0x00",
                        "r" : "0x2494bf927d5ba65a323fc98027694371a7c4ee51c99854a20455567fa12300d2",
                        "s" : "0x26f63327ded8c8f7ecf73f868bf04c69a390b56c2b5338d258a7330559cdbdca",
                        "sender" : "0xa94f5374fce5edbc8e2a8697c15331677e6ebf0b",
                        "to" : "0xd000000000000000000000000000000000000001",
                        "v" : "0x1c",
                        "value" : "0x00"
                    }
                ],
                "uncleHeaders" : [
                ],
                "withdrawals" : [
                    {
                        "address" : "0xc000000000000000000000000000000000000001",
                        "amount" : "0x0186a0",
                        "index" : "0x00",
                        "validatorIndex" : "0x00"
                    }
                ]
            }
        ],
        "genesisBlockHeader" : {
            "baseFeePerGas" : "0x0a",
            "blobGasUsed" : "0x00",
            "bloom" : "0x00000000000000000000000000000000000000000000000000000000000000000000000000000000000000000000000000000000000000000000000000000000000000000000000000000000000000000000000000000000000000000000000000000000000000000000000000000000000000000000000000000000000000000000000000000000000000000000000000000000000000000000000000000000000000000000000000000000000000000000000000000000000000000000000000000000000000000000000000000000000000000000000000000000000000000000000000000000000000000000000000000000000000000000000000000000",
            "coinbase" : "0x2adc25665018aa1fe0e6bc666dac8fc2697ff9ba",
            "difficulty" : "0x00",
            "excessBlobGas" : "0x00",
            "extraData" : "0x42",
            "gasLimit" : "0x7fffffffffffffff",
            "gasUsed" : "0x00",
            "hash" : "0x7368cb6f566afe9214b1f798fec3832dd41067db60f6c0035f6b0b155860957b",
            "mixHash" : "0x56e81f171bcc55a6ff8345e692c0f86e5b48e01b996cadc001622fb5e363b421",
            "nonce" : "0x0000000000000000",
            "number" : "0x00",
            "parentBeaconBlockRoot" : "0x0000000000000000000000000000000000000000000000000000000000000000",
            "parentHash" : "0x0000000000000000000000000000000000000000000000000000000000000000",
            "receiptTrie" : "0x56e81f171bcc55a6ff8345e692c0f86e5b48e01b996cadc001622fb5e363b421",
            "stateRoot" : "0x3916e5f8428af25a7ab41cde10344cd1f11af3189816cfe29357330e3f9c31bd",
            "timestamp" : "0x03b6",
            "transactionsTrie" : "0x56e81f171bcc55a6ff8345e692c0f86e5b48e01b996cadc001622fb5e363b421",
            "uncleHash" : "0x1dcc4de8dec75d7aab85b567b6ccd41ad312451b948a7413f0a142fd40d49347",
            "withdrawalsRoot" : "0x56e81f171bcc55a6ff8345e692c0f86e5b48e01b996cadc001622fb5e363b421"
        },
        "genesisRLP" : "0xf90242f9023ca00000000000000000000000000000000000000000000000000000000000000000a01dcc4de8dec75d7aab85b567b6ccd41ad312451b948a7413f0a142fd40d49347942adc25665018aa1fe0e6bc666dac8fc2697ff9baa03916e5f8428af25a7ab41cde10344cd1f11af3189816cfe29357330e3f9c31bda056e81f171bcc55a6ff8345e692c0f86e5b48e01b996cadc001622fb5e363b421a056e81f171bcc55a6ff8345e692c0f86e5b48e01b996cadc001622fb5e363b421b90100000000000000000000000000000000000000000000000000000000000000000000000000000000000000000000000000000000000000000000000000000000000000000000000000000000000000000000000000000000000000000000000000000000000000000000000000000000000000000000000000000000000000000000000000000000000000000000000000000000000000000000000000000000000000000000000000000000000000000000000000000000000000000000000000000000000000000000000000000000000000000000000000000000000000000000000000000000000000000000000000000000000000000000000000000000008080887fffffffffffffff808203b642a056e81f171bcc55a6ff8345e692c0f86e5b48e01b996cadc001622fb5e363b4218800000000000000000aa056e81f171bcc55a6ff8345e692c0f86e5b48e01b996cadc001622fb5e363b4218080a00000000000000000000000000000000000000000000000000000000000000000c0c0c0",
        "lastblockhash" : "0xc2cac43026331e9ab898d7fc23ce2b9aa2d532b7f4fa151ee16e6099b8b8f350",
        "network" : "Cancun",
        "postState" : {
            "0x000f3df6d732807ef1319fb7b8bb8522d0beac02" : {
                "balance" : "0x00",
                "code" : "0x3373fffffffffffffffffffffffffffffffffffffffe14604d57602036146024575f5ffd5b5f35801560495762001fff810690815414603c575f5ffd5b62001fff01545f5260205ff35b5f5ffd5b62001fff42064281555f359062001fff015500",
                "nonce" : "0x01",
                "storage" : {
                    "0x03b6" : "0x03b6",
                    "0x079e" : "0x079e"
                }
            },
            "0x2adc25665018aa1fe0e6bc666dac8fc2697ff9ba" : {
                "balance" : "0x02b38cbb",
                "code" : "0x",
                "nonce" : "0x00",
                "storage" : {
                }
            },
            "0xa94f5374fce5edbc8e2a8697c15331677e6ebf0b" : {
                "balance" : "0x016345785ad02b78",
                "code" : "0x",
                "nonce" : "0x01",
                "storage" : {
                }
            },
            "0xc000000000000000000000000000000000000001" : {
                "balance" : "0x5af3107a400a",
                "code" : "0x64600060005560005200",
                "nonce" : "0x00",
                "storage" : {
                }
            },
            "0xd000000000000000000000000000000000000001" : {
                "balance" : "0x0a",
                "code" : "0x600060006000600073c00000000000000000000000000000000000000161c350fa60005500",
                "nonce" : "0x00",
                "storage" : {
                    "0x00" : "0x01"
                }
            }
        },
        "pre" : {
            "0x000f3df6d732807ef1319fb7b8bb8522d0beac02" : {
                "balance" : "0x00",
                "code" : "0x3373fffffffffffffffffffffffffffffffffffffffe14604d57602036146024575f5ffd5b5f35801560495762001fff810690815414603c575f5ffd5b62001fff01545f5260205ff35b5f5ffd5b62001fff42064281555f359062001fff015500",
                "nonce" : "0x01",
                "storage" : {
                    "0x03b6" : "0x03b6"
                }
            },
            "0xa94f5374fce5edbc8e2a8697c15331677e6ebf0b" : {
                "balance" : "0x016345785d8a0000",
                "code" : "0x",
                "nonce" : "0x00",
                "storage" : {
                }
            },
            "0xc000000000000000000000000000000000000001" : {
                "balance" : "0x0a",
                "code" : "0x64600060005560005200",
                "nonce" : "0x00",
                "storage" : {
                }
            },
            "0xd000000000000000000000000000000000000001" : {
                "balance" : "0x0a",
                "code" : "0x600060006000600073c00000000000000000000000000000000000000161c350fa60005500",
                "nonce" : "0x00",
                "storage" : {
                }
            }
        },
        "sealEngine" : "NoProof"
    }
}