{
    "09_revertUndoesAll_d0g0v0_Cancun" : {
        "_info" : {
            "comment" : "Revert undoes all the transient storage writes to the same key from the failed call.",
            "filling-rpc-server" : "evm version 1.13.5-unstable-cd295356-20231019",
            "filling-tool-version" : "retesteth-0.3.1-cancun+commit.a8c87a21.Linux.g++",
            "generatedTestHash" : "d80aae8f7f4419b23bed34bff825abe056623f504f30395754242b62b8963e12",
            "lllcversion" : "Version: 0.5.14-develop.2023.7.11+commit.c58ab2c6.mod.Linux.g++",
            "solidity" : "Version: 0.8.21+commit.d9974bed.Linux.g++",
            "source" : "src/GeneralStateTestsFiller/Cancun/stEIP1153-transientStorage/09_revertUndoesAllFiller.yml",
            "sourceHash" : "ec4fe9d5130fc7355051ee08cb02d4954374245736cc531d1766bb3ac2af3c69"
        },
        "blocks" : [
            {
                "blockHeader" : {
                    "baseFeePerGas" : "0x0a",
                    "blobGasUsed" : "0x00",
                    "bloom" : "0x00000000000000000000000000000000000000000000000000000000000000000000000000000000000000000000000000000000000000000000000000000000000000000000000000000000000000000000000000000000000000000000000000000000000000000000000000000000000000000000000000000000000000000000000000000000000000000000000000000000000000000000000000000000000000000000000000000000000000000000000000000000000000000000000000000000000000000000000000000000000000000000000000000000000000000000000000000000000000000000000000000000000000000000000000000000",
                    "coinbase" : "0x2adc25665018aa1fe0e6bc666dac8fc2697ff9ba",
                    "difficulty" : "0x00",
                    "excessBlobGas" : "0x00",
                    "extraData" : "0x00",
                    "gasLimit" : "0x10000000000000",
                    "gasUsed" : "0x01040f",
                    "hash" : "0xebb9750da07d05411c48fe9cb944c9dc07405a83c574d30be214b5fb354ade0c",
                    "mixHash" : "0x0000000000000000000000000000000000000000000000000000000000020000",
                    "nonce" : "0x0000000000000000",
                    "number" : "0x01",
                    "parentBeaconBlockRoot" : "0x0000000000000000000000000000000000000000000000000000000000000000",
                    "parentHash" : "0xb4629ba488c8d4f1c0d07b087cbc256e789716205f7a541e59873220baa4ec70",
                    "receiptTrie" : "0x310a8c96dfdbc99d7b54382a351f63aaf97521feea1fcedf4a1f1546619bcab9",
                    "stateRoot" : "0x8688b90da317e6b4fc518c85c84dd291f06213f03299ec5d318417f83d6f37d1",
                    "timestamp" : "0x03e8",
                    "transactionsTrie" : "0x17c10f0e5714d7af88f219251ddcea6e92a9dea690d202989df2449e251a02c1",
                    "uncleHash" : "0x1dcc4de8dec75d7aab85b567b6ccd41ad312451b948a7413f0a142fd40d49347",
                    "withdrawalsRoot" : "0x56e81f171bcc55a6ff8345e692c0f86e5b48e01b996cadc001622fb5e363b421"
                },
                "rlp" : "0xf902b3f9023ea0b4629ba488c8d4f1c0d07b087cbc256e789716205f7a541e59873220baa4ec70a01dcc4de8dec75d7aab85b567b6ccd41ad312451b948a7413f0a142fd40d49347942adc25665018aa1fe0e6bc666dac8fc2697ff9baa08688b90da317e6b4fc518c85c84dd291f06213f03299ec5d318417f83d6f37d1a017c10f0e5714d7af88f219251ddcea6e92a9dea690d202989df2449e251a02c1a0310a8c96dfdbc99d7b54382a351f63aaf97521feea1fcedf4a1f1546619bcab9b9010000000000000000000000000000000000000000000000000000000000000000000000000000000000000000000000000000000000000000000000000000000000000000000000000000000000000000000000000000000000000000000000000000000000000000000000000000000000000000000000000000000000000000000000000000000000000000000000000000000000000000000000000000000000000000000000000000000000000000000000000000000000000000000000000000000000000000000000000000000000000000000000000000000000000000000000000000000000000000000000000000000000000000000000000000000000800187100000000000008301040f8203e800a000000000000000000000000000000000000000000000000000000000000200008800000000000000000aa056e81f171bcc55a6ff8345e692c0f86e5b48e01b996cadc001622fb5e363b4218080a00000000000000000000000000000000000000000000000000000000000000000f86eb86c02f8690180808207d083061a8094a00000000000000000000000000000000000000a80843f371692c080a0743568d659bf985457cf172809a70ead397472fa1556b80a02817cc0f0c08738a066863f0fc471d35cf71f17ee40a9df4d1bb4033af9beceb9584dbf6e34b6c1e4c0c0",
                "transactions" : [
                    {
                        "accessList" : [
                        ],
                        "chainId" : "0x01",
                        "data" : "0x3f371692",
                        "gasLimit" : "0x061a80",
                        "maxFeePerGas" : "0x07d0",
                        "maxPriorityFeePerGas" : "0x00",
                        "nonce" : "0x00",
                        "r" : "0x743568d659bf985457cf172809a70ead397472fa1556b80a02817cc0f0c08738",
                        "s" : "0x66863f0fc471d35cf71f17ee40a9df4d1bb4033af9beceb9584dbf6e34b6c1e4",
                        "sender" : "0xa94f5374fce5edbc8e2a8697c15331677e6ebf0b",
                        "to" : "0xa00000000000000000000000000000000000000a",
                        "type" : "0x02",
                        "v" : "0x00",
                        "value" : "0x00"
                    }
                ],
                "uncleHeaders" : [
                ],
                "withdrawals" : [
                ]
            }
        ],
        "genesisBlockHeader" : {
            "baseFeePerGas" : "0x0b",
            "blobGasUsed" : "0x00",
            "bloom" : "0x00000000000000000000000000000000000000000000000000000000000000000000000000000000000000000000000000000000000000000000000000000000000000000000000000000000000000000000000000000000000000000000000000000000000000000000000000000000000000000000000000000000000000000000000000000000000000000000000000000000000000000000000000000000000000000000000000000000000000000000000000000000000000000000000000000000000000000000000000000000000000000000000000000000000000000000000000000000000000000000000000000000000000000000000000000000",
            "coinbase" : "0x2adc25665018aa1fe0e6bc666dac8fc2697ff9ba",
            "difficulty" : "0x00",
            "excessBlobGas" : "0x00",
            "extraData" : "0x00",
            "gasLimit" : "0x10000000000000",
            "gasUsed" : "0x00",
            "hash" : "0xb4629ba488c8d4f1c0d07b087cbc256e789716205f7a541e59873220baa4ec70",
            "mixHash" : "0x0000000000000000000000000000000000000000000000000000000000020000",
            "nonce" : "0x0000000000000000",
            "number" : "0x00",
            "parentBeaconBlockRoot" : "0x0000000000000000000000000000000000000000000000000000000000000000",
            "parentHash" : "0x0000000000000000000000000000000000000000000000000000000000000000",
            "receiptTrie" : "0x56e81f171bcc55a6ff8345e692c0f86e5b48e01b996cadc001622fb5e363b421",
            "stateRoot" : "0x949cc6e6ededfc5ab0a9ad75c2e76ace7ec8cbce6c57803b7f39fb34d78fd73c",
            "timestamp" : "0x00",
            "transactionsTrie" : "0x56e81f171bcc55a6ff8345e692c0f86e5b48e01b996cadc001622fb5e363b421",
            "uncleHash" : "0x1dcc4de8dec75d7aab85b567b6ccd41ad312451b948a7413f0a142fd40d49347",
            "withdrawalsRoot" : "0x56e81f171bcc55a6ff8345e692c0f86e5b48e01b996cadc001622fb5e363b421"
        },
        "genesisRLP" : "0xf9023ff90239a00000000000000000000000000000000000000000000000000000000000000000a01dcc4de8dec75d7aab85b567b6ccd41ad312451b948a7413f0a142fd40d49347942adc25665018aa1fe0e6bc666dac8fc2697ff9baa0949cc6e6ededfc5ab0a9ad75c2e76ace7ec8cbce6c57803b7f39fb34d78fd73ca056e81f171bcc55a6ff8345e692c0f86e5b48e01b996cadc001622fb5e363b421a056e81f171bcc55a6ff8345e692c0f86e5b48e01b996cadc001622fb5e363b421b901000000000000000000000000000000000000000000000000000000000000000000000000000000000000000000000000000000000000000000000000000000000000000000000000000000000000000000000000000000000000000000000000000000000000000000000000000000000000000000000000000000000000000000000000000000000000000000000000000000000000000000000000000000000000000000000000000000000000000000000000000000000000000000000000000000000000000000000000000000000000000000000000000000000000000000000000000000000000000000000000000000000000000000000000000000000080808710000000000000808000a000000000000000000000000000000000000000000000000000000000000200008800000000000000000ba056e81f171bcc55a6ff8345e692c0f86e5b48e01b996cadc001622fb5e363b4218080a00000000000000000000000000000000000000000000000000000000000000000c0c0c0",
        "lastblockhash" : "0xebb9750da07d05411c48fe9cb944c9dc07405a83c574d30be214b5fb354ade0c",
        "network" : "Cancun",
        "postState" : {
            "0xa00000000000000000000000000000000000000a" : {
                "balance" : "0x0de0b6b3a7640000",
                "code" : "0x5f3560e01c80633f37169214601d5763578290e514601957005b6026565b506024603c565b005b60055f5d60065f5d600b60015d600c60015d5f80fd5b60045f5d600a60015d63578290e560e01b5f525f8060208180305af15f555f5c60015560015c60025556",
                "nonce" : "0x00",
                "storage" : {
                    "0x01" : "0x04",
                    "0x02" : "0x0a"
                }
            },
            "0xa94f5374fce5edbc8e2a8697c15331677e6ebf0b" : {
                "balance" : "0x3635c9adc5de95d76a",
                "code" : "0x",
                "nonce" : "0x01",
                "storage" : {
                }
            }
        },
        "pre" : {
            "0xa00000000000000000000000000000000000000a" : {
                "balance" : "0x0de0b6b3a7640000",
                "code" : "0x5f3560e01c80633f37169214601d5763578290e514601957005b6026565b506024603c565b005b60055f5d60065f5d600b60015d600c60015d5f80fd5b60045f5d600a60015d63578290e560e01b5f525f8060208180305af15f555f5c60015560015c60025556",
                "nonce" : "0x00",
                "storage" : {
                    "0x00" : "0xffff"
                }
            },
            "0xa94f5374fce5edbc8e2a8697c15331677e6ebf0b" : {
                "balance" : "0x3635c9adc5dea00000",
                "code" : "0x",
                "nonce" : "0x00",
                "storage" : {
                }
            }
        },
        "sealEngine" : "NoProof"
    }
}