{
    "11_tstoreDelegateCall_d0g0v0_Cancun" : {
        "_info" : {
            "comment" : "delegatecall manipulates transient storage in the context of the current address.",
            "filling-rpc-server" : "evm version 1.13.5-unstable-cd295356-20231019",
            "filling-tool-version" : "retesteth-0.3.1-cancun+commit.a8c87a21.Linux.g++",
            "generatedTestHash" : "817ff0f21b979922bd9f6b6e7fe714e7152e120cb7bbbf3804e87908357c2b05",
            "lllcversion" : "Version: 0.5.14-develop.2023.7.11+commit.c58ab2c6.mod.Linux.g++",
            "solidity" : "Version: 0.8.21+commit.d9974bed.Linux.g++",
            "source" : "src/GeneralStateTestsFiller/Cancun/stEIP1153-transientStorage/11_tstoreDelegateCallFiller.yml",
            "sourceHash" : "f5298fddacba5440f36dafb85348d311424905255327418633b521d8c0af1c45"
        },
        "blocks" : [
            {
                "blockHeader" : {
                    "baseFeePerGas" : "0x0a",
                    "blobGasUsed" : "0x00",
                    "bloom" : "0x00000000000000000000000000000000000000000000000000000000000000000000000000000000000000000000000000000000000000000000000000000000000000000000000000000000000000000000000000000000000000000000000000000000000000000000000000000000000000000000000000000000000000000000000000000000000000000000000000000000000000000000000000000000000000000000000000000000000000000000000000000000000000000000000000000000000000000000000000000000000000000000000000000000000000000000000000000000000000000000000000000000000000000000000000000000",
                    "coinbase" : "0x2adc25665018aa1fe0e6bc666dac8fc2697ff9ba",
                    "difficulty" : "0x00",
                    "excessBlobGas" : "0x00",
                    "extraData" : "0x00",
                    "gasLimit" : "0x10000000000000",
                    "gasUsed" : "0x016c5c",
                    "hash" : "0x9ff81cf9303d297351b169c08522ad8eca62d489a8fd9db93ea703999d1bb17c",
                    "mixHash" : "0x0000000000000000000000000000000000000000000000000000000000020000",
                    "nonce" : "0x0000000000000000",
                    "number" : "0x01",
                    "parentBeaconBlockRoot" : "0x0000000000000000000000000000000000000000000000000000000000000000",
                    "parentHash" : "0xbba190d3baf1749a9592d108249534d2a250d798f0a3dad9b47aec08328d4014",
                    "receiptTrie" : "0xeca790798682c6ae196ea379fc56e06d509f6fa305c12853612d0a1311942813",
                    "stateRoot" : "0x423d85c26693b458e6947c3390fcad7a9e394b7fab931fec39d22bf994d1476e",
                    "timestamp" : "0x03e8",
                    "transactionsTrie" : "0x23691e5c58c111ae0ac392394cede146b3eb0efa5846661606fa7ee4ad8cfaa1",
                    "uncleHash" : "0x1dcc4de8dec75d7aab85b567b6ccd41ad312451b948a7413f0a142fd40d49347",
                    "withdrawalsRoot" : "0x56e81f171bcc55a6ff8345e692c0f86e5b48e01b996cadc001622fb5e363b421"
                },
                "rlp" : "0xf902aff9023ea0bba190d3baf1749a9592d108249534d2a250d798f0a3dad9b47aec08328d4014a01dcc4de8dec75d7aab85b567b6ccd41ad312451b948a7413f0a142fd40d49347942adc25665018aa1fe0e6bc666dac8fc2697ff9baa0423d85c26693b458e6947c3390fcad7a9e394b7fab931fec39d22bf994d1476ea023691e5c58c111ae0ac392394cede146b3eb0efa5846661606fa7ee4ad8cfaa1a0eca790798682c6ae196ea379fc56e06d509f6fa305c12853612d0a1311942813b90100000000000000000000000000000000000000000000000000000000000000000000000000000000000000000000000000000000000000000000000000000000000000000000000000000000000000000000000000000000000000000000000000000000000000000000000000000000000000000000000000000000000000000000000000000000000000000000000000000000000000000000000000000000000000000000000000000000000000000000000000000000000000000000000000000000000000000000000000000000000000000000000000000000000000000000000000000000000000000000000000000000000000000000000000000000008001871000000000000083016c5c8203e800a000000000000000000000000000000000000000000000000000000000000200008800000000000000000aa056e81f171bcc55a6ff8345e692c0f86e5b48e01b996cadc001622fb5e363b4218080a00000000000000000000000000000000000000000000000000000000000000000f86ab86802f8650180808207d083061a8094a00000000000000000000000000000000000000a8080c080a0eb34938cf59db03479b41a3c3e520a1acdde6b24fe9632bad61ed321f18a5862a02c7e383e3616633f6e5253c56064f29ea377d2b97c80aab328786facc0978cbec0c0",
                "transactions" : [
                    {
                        "accessList" : [
                        ],
                        "chainId" : "0x01",
                        "data" : "0x",
                        "gasLimit" : "0x061a80",
                        "maxFeePerGas" : "0x07d0",
                        "maxPriorityFeePerGas" : "0x00",
                        "nonce" : "0x00",
                        "r" : "0xeb34938cf59db03479b41a3c3e520a1acdde6b24fe9632bad61ed321f18a5862",
                        "s" : "0x2c7e383e3616633f6e5253c56064f29ea377d2b97c80aab328786facc0978cbe",
                        "sender" : "0xa94f5374fce5edbc8e2a8697c15331677e6ebf0b",
                        "to" : "0xa00000000000000000000000000000000000000a",
                        "type" : "0x02",
                        "v" : "0x00",
                        "value" : "0x00"
                    }
                ],
                "uncleHeaders" : [
                ],
                "withdrawals" : [
                ]
            }
        ],
        "genesisBlockHeader" : {
            "baseFeePerGas" : "0x0b",
            "blobGasUsed" : "0x00",
            "bloom" : "0x00000000000000000000000000000000000000000000000000000000000000000000000000000000000000000000000000000000000000000000000000000000000000000000000000000000000000000000000000000000000000000000000000000000000000000000000000000000000000000000000000000000000000000000000000000000000000000000000000000000000000000000000000000000000000000000000000000000000000000000000000000000000000000000000000000000000000000000000000000000000000000000000000000000000000000000000000000000000000000000000000000000000000000000000000000000",
            "coinbase" : "0x2adc25665018aa1fe0e6bc666dac8fc2697ff9ba",
            "difficulty" : "0x00",
            "excessBlobGas" : "0x00",
            "extraData" : "0x00",
            "gasLimit" : "0x10000000000000",
            "gasUsed" : "0x00",
            "hash" : "0xbba190d3baf1749a9592d108249534d2a250d798f0a3dad9b47aec08328d4014",
            "mixHash" : "0x0000000000000000000000000000000000000000000000000000000000020000",
            "nonce" : "0x0000000000000000",
            "number" : "0x00",
            "parentBeaconBlockRoot" : "0x0000000000000000000000000000000000000000000000000000000000000000",
            "parentHash" : "0x0000000000000000000000000000000000000000000000000000000000000000",
            "receiptTrie" : "0x56e81f171bcc55a6ff8345e692c0f86e5b48e01b996cadc001622fb5e363b421",
            "stateRoot" : "0x96f3f56c34329788d003001f1965d0b1dad77e7c473bc26c34d68ab9321a9ddd",
            "timestamp" : "0x00",
            "transactionsTrie" : "0x56e81f171bcc55a6ff8345e692c0f86e5b48e01b996cadc001622fb5e363b421",
            "uncleHash" : "0x1dcc4de8dec75d7aab85b567b6ccd41ad312451b948a7413f0a142fd40d49347",
            "withdrawalsRoot" : "0x56e81f171bcc55a6ff8345e692c0f86e5b48e01b996cadc001622fb5e363b421"
        },
        "genesisRLP" : "0xf9023ff90239a00000000000000000000000000000000000000000000000000000000000000000a01dcc4de8dec75d7aab85b567b6ccd41ad312451b948a7413f0a142fd40d49347942adc25665018aa1fe0e6bc666dac8fc2697ff9baa096f3f56c34329788d003001f1965d0b1dad77e7c473bc26c34d68ab9321a9ddda056e81f171bcc55a6ff8345e692c0f86e5b48e01b996cadc001622fb5e363b421a056e81f171bcc55a6ff8345e692c0f86e5b48e01b996cadc001622fb5e363b421b901000000000000000000000000000000000000000000000000000000000000000000000000000000000000000000000000000000000000000000000000000000000000000000000000000000000000000000000000000000000000000000000000000000000000000000000000000000000000000000000000000000000000000000000000000000000000000000000000000000000000000000000000000000000000000000000000000000000000000000000000000000000000000000000000000000000000000000000000000000000000000000000000000000000000000000000000000000000000000000000000000000000000000000000000000000000080808710000000000000808000a000000000000000000000000000000000000000000000000000000000000200008800000000000000000ba056e81f171bcc55a6ff8345e692c0f86e5b48e01b996cadc001622fb5e363b4218080a00000000000000000000000000000000000000000000000000000000000000000c0c0c0",
        "lastblockhash" : "0x9ff81cf9303d297351b169c08522ad8eca62d489a8fd9db93ea703999d1bb17c",
        "network" : "Cancun",
        "postState" : {
            "0xa00000000000000000000000000000000000000a" : {
                "balance" : "0x0de0b6b3a7640000",
                "code" : "0x60015f5d5f8060208173b00000000000000000000000000000000000000b5af45f5c905f556001555f8060208173c00000000000000000000000000000000000000c5af45f5c9060025560035500",
                "nonce" : "0x00",
                "storage" : {
                    "0x00" : "0x01",
                    "0x01" : "0x02",
                    "0x03" : "0x02"
                }
            },
            "0xa94f5374fce5edbc8e2a8697c15331677e6ebf0b" : {
                "balance" : "0x3635c9adc5de91c468",
                "code" : "0x",
                "nonce" : "0x01",
                "storage" : {
                }
            },
            "0xb00000000000000000000000000000000000000b" : {
                "balance" : "0x0de0b6b3a7640000",
                "code" : "0x60025f5d00",
                "nonce" : "0x00",
                "storage" : {
                }
            },
            "0xc00000000000000000000000000000000000000c" : {
                "balance" : "0x0de0b6b3a7640000",
                "code" : "0x60035f5d5f80fd",
                "nonce" : "0x00",
                "storage" : {
                }
            }
        },
        "pre" : {
            "0xa00000000000000000000000000000000000000a" : {
                "balance" : "0x0de0b6b3a7640000",
                "code" : "0x60015f5d5f8060208173b00000000000000000000000000000000000000b5af45f5c905f556001555f8060208173c00000000000000000000000000000000000000c5af45f5c9060025560035500",
                "nonce" : "0x00",
                "storage" : {
                    "0x02" : "0xffff"
                }
            },
            "0xa94f5374fce5edbc8e2a8697c15331677e6ebf0b" : {
                "balance" : "0x3635c9adc5dea00000",
                "code" : "0x",
                "nonce" : "0x00",
                "storage" : {
                }
            },
            "0xb00000000000000000000000000000000000000b" : {
                "balance" : "0x0de0b6b3a7640000",
                "code" : "0x60025f5d00",
                "nonce" : "0x00",
                "storage" : {
                }
            },
            "0xc00000000000000000000000000000000000000c" : {
                "balance" : "0x0de0b6b3a7640000",
                "code" : "0x60035f5d5f80fd",
                "nonce" : "0x00",
                "storage" : {
                }
            }
        },
        "sealEngine" : "NoProof"
    }
}