{
    "13_tloadStaticCall_d0g0v0_Cancun" : {
        "_info" : {
            "comment" : "Transient storage cannot be manipulated in a static context, tstore reverts.",
            "filling-rpc-server" : "evm version 1.13.5-unstable-cd295356-20231019",
            "filling-tool-version" : "retesteth-0.3.1-cancun+commit.a8c87a21.Linux.g++",
            "generatedTestHash" : "71aedc55e20894c0cccc599ae5533298db25fd05be672121c4bda009aa915b01",
            "lllcversion" : "Version: 0.5.14-develop.2023.7.11+commit.c58ab2c6.mod.Linux.g++",
            "solidity" : "Version: 0.8.21+commit.d9974bed.Linux.g++",
            "source" : "src/GeneralStateTestsFiller/Cancun/stEIP1153-transientStorage/13_tloadStaticCallFiller.yml",
            "sourceHash" : "6a92129cc5c3d3b2d82a96fc3ccf0039621e454992afa54e2e21ed09cad5d4ef"
        },
        "blocks" : [
            {
                "blockHeader" : {
                    "baseFeePerGas" : "0x0a",
                    "blobGasUsed" : "0x00",
                    "bloom" : "0x00000000000000000000000000000000000000000000000000000000000000000000000000000000000000000000000000000000000000000000000000000000000000000000000000000000000000000000000000000000000000000000000000000000000000000000000000000000000000000000000000000000000000000000000000000000000000000000000000000000000000000000000000000000000000000000000000000000000000000000000000000000000000000000000000000000000000000000000000000000000000000000000000000000000000000000000000000000000000000000000000000000000000000000000000000000",
                    "coinbase" : "0x2adc25665018aa1fe0e6bc666dac8fc2697ff9ba",
                    "difficulty" : "0x00",
                    "excessBlobGas" : "0x00",
                    "extraData" : "0x00",
                    "gasLimit" : "0x10000000000000",
                    "gasUsed" : "0x0258f6",
                    "hash" : "0x31994b412c671a6d30befe1efb6b0db28c777f5975ecd7dddef0bb34fd13d9d7",
                    "mixHash" : "0x0000000000000000000000000000000000000000000000000000000000020000",
                    "nonce" : "0x0000000000000000",
                    "number" : "0x01",
                    "parentBeaconBlockRoot" : "0x0000000000000000000000000000000000000000000000000000000000000000",
                    "parentHash" : "0xce5437cec1f6750f2f58eab64853478e8b4c56bcaeb14c7c92c652662d1860a0",
                    "receiptTrie" : "0x389840a1ed041b57193bc6cf4df3ff8814c1eb4304ade79b247dd4f889cfd169",
                    "stateRoot" : "0x77825674bc60bc90ff40c07a1947bc3d4330a61e69948ed4f707b5ff01ab0674",
                    "timestamp" : "0x03e8",
                    "transactionsTrie" : "0x17c10f0e5714d7af88f219251ddcea6e92a9dea690d202989df2449e251a02c1",
                    "uncleHash" : "0x1dcc4de8dec75d7aab85b567b6ccd41ad312451b948a7413f0a142fd40d49347",
                    "withdrawalsRoot" : "0x56e81f171bcc55a6ff8345e692c0f86e5b48e01b996cadc001622fb5e363b421"
                },
                "rlp" : "0xf902b3f9023ea0ce5437cec1f6750f2f58eab64853478e8b4c56bcaeb14c7c92c652662d1860a0a01dcc4de8dec75d7aab85b567b6ccd41ad312451b948a7413f0a142fd40d49347942adc25665018aa1fe0e6bc666dac8fc2697ff9baa077825674bc60bc90ff40c07a1947bc3d4330a61e69948ed4f707b5ff01ab0674a017c10f0e5714d7af88f219251ddcea6e92a9dea690d202989df2449e251a02c1a0389840a1ed041b57193bc6cf4df3ff8814c1eb4304ade79b247dd4f889cfd169b901000000000000000000000000000000000000000000000000000000000000000000000000000000000000000000000000000000000000000000000000000000000000000000000000000000000000000000000000000000000000000000000000000000000000000000000000000000000000000000000000000000000000000000000000000000000000000000000000000000000000000000000000000000000000000000000000000000000000000000000000000000000000000000000000000000000000000000000000000000000000000000000000000000000000000000000000000000000000000000000000000000000000000000000000000000000080018710000000000000830258f68203e800a000000000000000000000000000000000000000000000000000000000000200008800000000000000000aa056e81f171bcc55a6ff8345e692c0f86e5b48e01b996cadc001622fb5e363b4218080a00000000000000000000000000000000000000000000000000000000000000000f86eb86c02f8690180808207d083061a8094a00000000000000000000000000000000000000a80843f371692c080a0743568d659bf985457cf172809a70ead397472fa1556b80a02817cc0f0c08738a066863f0fc471d35cf71f17ee40a9df4d1bb4033af9beceb9584dbf6e34b6c1e4c0c0",
                "transactions" : [
                    {
                        "accessList" : [
                        ],
                        "chainId" : "0x01",
                        "data" : "0x3f371692",
                        "gasLimit" : "0x061a80",
                        "maxFeePerGas" : "0x07d0",
                        "maxPriorityFeePerGas" : "0x00",
                        "nonce" : "0x00",
                        "r" : "0x743568d659bf985457cf172809a70ead397472fa1556b80a02817cc0f0c08738",
                        "s" : "0x66863f0fc471d35cf71f17ee40a9df4d1bb4033af9beceb9584dbf6e34b6c1e4",
                        "sender" : "0xa94f5374fce5edbc8e2a8697c15331677e6ebf0b",
                        "to" : "0xa00000000000000000000000000000000000000a",
                        "type" : "0x02",
                        "v" : "0x00",
                        "value" : "0x00"
                    }
                ],
                "uncleHeaders" : [
                ],
                "withdrawals" : [
                ]
            }
        ],
        "genesisBlockHeader" : {
            "baseFeePerGas" : "0x0b",
            "blobGasUsed" : "0x00",
            "bloom" : "0x00000000000000000000000000000000000000000000000000000000000000000000000000000000000000000000000000000000000000000000000000000000000000000000000000000000000000000000000000000000000000000000000000000000000000000000000000000000000000000000000000000000000000000000000000000000000000000000000000000000000000000000000000000000000000000000000000000000000000000000000000000000000000000000000000000000000000000000000000000000000000000000000000000000000000000000000000000000000000000000000000000000000000000000000000000000",
            "coinbase" : "0x2adc25665018aa1fe0e6bc666dac8fc2697ff9ba",
            "difficulty" : "0x00",
            "excessBlobGas" : "0x00",
            "extraData" : "0x00",
            "gasLimit" : "0x10000000000000",
            "gasUsed" : "0x00",
            "hash" : "0xce5437cec1f6750f2f58eab64853478e8b4c56bcaeb14c7c92c652662d1860a0",
            "mixHash" : "0x0000000000000000000000000000000000000000000000000000000000020000",
            "nonce" : "0x0000000000000000",
            "number" : "0x00",
            "parentBeaconBlockRoot" : "0x0000000000000000000000000000000000000000000000000000000000000000",
            "parentHash" : "0x0000000000000000000000000000000000000000000000000000000000000000",
            "receiptTrie" : "0x56e81f171bcc55a6ff8345e692c0f86e5b48e01b996cadc001622fb5e363b421",
            "stateRoot" : "0x5d528c4e61eac5759432f1fc6ecc34ffe54695680bdfb3ec7463f1ce9072bfa5",
            "timestamp" : "0x00",
            "transactionsTrie" : "0x56e81f171bcc55a6ff8345e692c0f86e5b48e01b996cadc001622fb5e363b421",
            "uncleHash" : "0x1dcc4de8dec75d7aab85b567b6ccd41ad312451b948a7413f0a142fd40d49347",
            "withdrawalsRoot" : "0x56e81f171bcc55a6ff8345e692c0f86e5b48e01b996cadc001622fb5e363b421"
        },
        "genesisRLP" : "0xf9023ff90239a00000000000000000000000000000000000000000000000000000000000000000a01dcc4de8dec75d7aab85b567b6ccd41ad312451b948a7413f0a142fd40d49347942adc25665018aa1fe0e6bc666dac8fc2697ff9baa05d528c4e61eac5759432f1fc6ecc34ffe54695680bdfb3ec7463f1ce9072bfa5a056e81f171bcc55a6ff8345e692c0f86e5b48e01b996cadc001622fb5e363b421a056e81f171bcc55a6ff8345e692c0f86e5b48e01b996cadc001622fb5e363b421b901000000000000000000000000000000000000000000000000000000000000000000000000000000000000000000000000000000000000000000000000000000000000000000000000000000000000000000000000000000000000000000000000000000000000000000000000000000000000000000000000000000000000000000000000000000000000000000000000000000000000000000000000000000000000000000000000000000000000000000000000000000000000000000000000000000000000000000000000000000000000000000000000000000000000000000000000000000000000000000000000000000000000000000000000000000000080808710000000000000808000a000000000000000000000000000000000000000000000000000000000000200008800000000000000000ba056e81f171bcc55a6ff8345e692c0f86e5b48e01b996cadc001622fb5e363b4218080a00000000000000000000000000000000000000000000000000000000000000000c0c0c0",
        "lastblockhash" : "0x31994b412c671a6d30befe1efb6b0db28c777f5975ecd7dddef0bb34fd13d9d7",
        "network" : "Cancun",
        "postState" : {
            "0xa00000000000000000000000000000000000000a" : {
                "balance" : "0x0de0b6b3a7640000",
                "code" : "0x5f3560e01c80633f371692146030578063611e535a14602757630172927514602357005b603d565b50602e6037565b005b50602e6046565b60035f5d565b5f5c5f5260205ff35b60025f5d63308f29ad60e11b5f525f806020813061fffffa5f555f5c600155630172927560e01b5f5260205f8181305afa6002555f5160035556",
                "nonce" : "0x00",
                "storage" : {
                    "0x01" : "0x02",
                    "0x02" : "0x01",
                    "0x03" : "0x02"
                }
            },
            "0xa94f5374fce5edbc8e2a8697c15331677e6ebf0b" : {
                "balance" : "0x3635c9adc5de888664",
                "code" : "0x",
                "nonce" : "0x01",
                "storage" : {
                }
            }
        },
        "pre" : {
            "0xa00000000000000000000000000000000000000a" : {
                "balance" : "0x0de0b6b3a7640000",
                "code" : "0x5f3560e01c80633f371692146030578063611e535a14602757630172927514602357005b603d565b50602e6037565b005b50602e6046565b60035f5d565b5f5c5f5260205ff35b60025f5d63308f29ad60e11b5f525f806020813061fffffa5f555f5c600155630172927560e01b5f5260205f8181305afa6002555f5160035556",
                "nonce" : "0x00",
                "storage" : {
                    "0x00" : "0xffff"
                }
            },
            "0xa94f5374fce5edbc8e2a8697c15331677e6ebf0b" : {
                "balance" : "0x3635c9adc5dea00000",
                "code" : "0x",
                "nonce" : "0x00",
                "storage" : {
                }
            }
        },
        "sealEngine" : "NoProof"
    }
}