{
    "callcodeInInitcodeToExisContractWithVTransferNEMoney" : {
        "_info" : {
            "comment" : "callcode inside create/create2 contract init to existing contract. callcode with value transfer but not enough balance",
            "filling-rpc-server" : "evm version 1.13.13-unstable-034bc466-20240219",
            "filling-tool-version" : "retesteth-0.3.2-cancun+commit.014a68a5.Linux.g++",
            "generatedTestHash" : "bf6ff5194c667bbf7b53d39577079bb9ceaab802b78894a9bf96b8d41744cc4c",
            "lllcversion" : "Version: 0.5.14-develop.2023.7.11+commit.c58ab2c6.mod.Linux.g++",
            "solidity" : "Version: 0.8.21+commit.d9974bed.Linux.g++",
            "source" : "src/GeneralStateTestsFiller/stCallCodes/callcodeInInitcodeToExisContractWithVTransferNEMoneyFiller.json",
            "sourceHash" : "8b0e3f3947d56a9310f8248d0bd3862b54b21012cc8a323908c334f67f279a07"
        },
        "env" : {
            "currentBaseFee" : "0x0a",
            "currentCoinbase" : "0x2adc25665018aa1fe0e6bc666dac8fc2697ff9ba",
            "currentDifficulty" : "0x020000",
            "currentExcessBlobGas" : "0x00",
            "currentGasLimit" : "0x0f4240",
            "currentNumber" : "0x01",
            "currentRandom" : "0x0000000000000000000000000000000000000000000000000000000000020000",
            "currentTimestamp" : "0x03e8"
        },
        "post" : {
            "Berlin" : [
                {
                    "hash" : "0x2b2c5ff880788bad03b65b71037385180abad30b8a29cad011adc723d60fed57",
                    "indexes" : {
                        "data" : 0,
                        "gas" : 0,
                        "value" : 0
                    },
                    "logs" : "0x1dcc4de8dec75d7aab85b567b6ccd41ad312451b948a7413f0a142fd40d49347",
                    "txbytes" : "0xf880800a830f424094110000000000000000000000000000000000000080a000000000000000000000000010000000000000000000000000000000000000001ca0ca78c6aeceba1c80b3c5904c35b296f162da6e954108ed3b0850dbbd1eba4349a06691b8ca833ecef464101a63e9710d881bc488dd2aebd813eb32c54900b02bfc"
                },
                {
                    "hash" : "0xfcf5a7a82d09cb081133b949844e1894641004f1aa3e57b4d1a1809dd6d5e1f3",
                    "indexes" : {
                        "data" : 1,
                        "gas" : 0,
                        "value" : 0
                    },
                    "logs" : "0x1dcc4de8dec75d7aab85b567b6ccd41ad312451b948a7413f0a142fd40d49347",
                    "txbytes" : "0xf880800a830f424094110000000000000000000000000000000000000080a000000000000000000000000020000000000000000000000000000000000000001ba0f7974705a787c5f412c26b5774972b33e1e9eebe96f758308a0bf87d00530341a04adf51bcbf3ae243e677603067518d772153750ce235d25d149cd6b035b8b1b0"
                }
            ],
            "Cancun" : [
                {
                    "hash" : "0xe11524d8a4a3844cda44ea52e705762c8f76007888fe7a5c51662c4e25cad56c",
                    "indexes" : {
                        "data" : 0,
                        "gas" : 0,
                        "value" : 0
                    },
                    "logs" : "0x1dcc4de8dec75d7aab85b567b6ccd41ad312451b948a7413f0a142fd40d49347",
                    "txbytes" : "0xf880800a830f424094110000000000000000000000000000000000000080a000000000000000000000000010000000000000000000000000000000000000001ca0ca78c6aeceba1c80b3c5904c35b296f162da6e954108ed3b0850dbbd1eba4349a06691b8ca833ecef464101a63e9710d881bc488dd2aebd813eb32c54900b02bfc"
                },
                {
                    "hash" : "0x090353eeccf7a75df032da1bbf8af5024b39b547d7ac908e7196769da76c0bc3",
                    "indexes" : {
                        "data" : 1,
                        "gas" : 0,
                        "value" : 0
                    },
                    "logs" : "0x1dcc4de8dec75d7aab85b567b6ccd41ad312451b948a7413f0a142fd40d49347",
                    "txbytes" : "0xf880800a830f424094110000000000000000000000000000000000000080a000000000000000000000000020000000000000000000000000000000000000001ba0f7974705a787c5f412c26b5774972b33e1e9eebe96f758308a0bf87d00530341a04adf51bcbf3ae243e677603067518d772153750ce235d25d149cd6b035b8b1b0"
                }
            ],
            "Istanbul" : [
                {
                    "hash" : "0x74c782619db7444f26dd3fde580e5299bf1a655769e7350cf274399757d0a12a",
                    "indexes" : {
                        "data" : 0,
                        "gas" : 0,
                        "value" : 0
                    },
                    "logs" : "0x1dcc4de8dec75d7aab85b567b6ccd41ad312451b948a7413f0a142fd40d49347",
                    "txbytes" : "0xf880800a830f424094110000000000000000000000000000000000000080a000000000000000000000000010000000000000000000000000000000000000001ca0ca78c6aeceba1c80b3c5904c35b296f162da6e954108ed3b0850dbbd1eba4349a06691b8ca833ecef464101a63e9710d881bc488dd2aebd813eb32c54900b02bfc"
                },
                {
                    "hash" : "0xf2743baebb9698a591fb5cd0136427742d5168ad51befa08c9d7fad49c44e86e",
                    "indexes" : {
                        "data" : 1,
                        "gas" : 0,
                        "value" : 0
                    },
                    "logs" : "0x1dcc4de8dec75d7aab85b567b6ccd41ad312451b948a7413f0a142fd40d49347",
                    "txbytes" : "0xf880800a830f424094110000000000000000000000000000000000000080a000000000000000000000000020000000000000000000000000000000000000001ba0f7974705a787c5f412c26b5774972b33e1e9eebe96f758308a0bf87d00530341a04adf51bcbf3ae243e677603067518d772153750ce235d25d149cd6b035b8b1b0"
                }
            ],
            "London" : [
                {
                    "hash" : "0x578799d90dc424ae46f32ebdeff1f2084c9d0aff1a5463169d8cf12156871948",
                    "indexes" : {
                        "data" : 0,
                        "gas" : 0,
                        "value" : 0
                    },
                    "logs" : "0x1dcc4de8dec75d7aab85b567b6ccd41ad312451b948a7413f0a142fd40d49347",
                    "txbytes" : "0xf880800a830f424094110000000000000000000000000000000000000080a000000000000000000000000010000000000000000000000000000000000000001ca0ca78c6aeceba1c80b3c5904c35b296f162da6e954108ed3b0850dbbd1eba4349a06691b8ca833ecef464101a63e9710d881bc488dd2aebd813eb32c54900b02bfc"
                },
                {
                    "hash" : "0x69d1302a125b94405ec2bb509e241f9d6daf2ce52248a65ac91275302c0d50a2",
                    "indexes" : {
                        "data" : 1,
                        "gas" : 0,
                        "value" : 0
                    },
                    "logs" : "0x1dcc4de8dec75d7aab85b567b6ccd41ad312451b948a7413f0a142fd40d49347",
                    "txbytes" : "0xf880800a830f424094110000000000000000000000000000000000000080a000000000000000000000000020000000000000000000000000000000000000001ba0f7974705a787c5f412c26b5774972b33e1e9eebe96f758308a0bf87d00530341a04adf51bcbf3ae243e677603067518d772153750ce235d25d149cd6b035b8b1b0"
                }
            ],
            "Paris" : [
                {
                    "hash" : "0x578799d90dc424ae46f32ebdeff1f2084c9d0aff1a5463169d8cf12156871948",
                    "indexes" : {
                        "data" : 0,
                        "gas" : 0,
                        "value" : 0
                    },
                    "logs" : "0x1dcc4de8dec75d7aab85b567b6ccd41ad312451b948a7413f0a142fd40d49347",
                    "txbytes" : "0xf880800a830f424094110000000000000000000000000000000000000080a000000000000000000000000010000000000000000000000000000000000000001ca0ca78c6aeceba1c80b3c5904c35b296f162da6e954108ed3b0850dbbd1eba4349a06691b8ca833ecef464101a63e9710d881bc488dd2aebd813eb32c54900b02bfc"
                },
                {
                    "hash" : "0x69d1302a125b94405ec2bb509e241f9d6daf2ce52248a65ac91275302c0d50a2",
                    "indexes" : {
                        "data" : 1,
                        "gas" : 0,
                        "value" : 0
                    },
                    "logs" : "0x1dcc4de8dec75d7aab85b567b6ccd41ad312451b948a7413f0a142fd40d49347",
                    "txbytes" : "0xf880800a830f424094110000000000000000000000000000000000000080a000000000000000000000000020000000000000000000000000000000000000001ba0f7974705a787c5f412c26b5774972b33e1e9eebe96f758308a0bf87d00530341a04adf51bcbf3ae243e677603067518d772153750ce235d25d149cd6b035b8b1b0"
                }
            ],
            "Shanghai" : [
                {
                    "hash" : "0x2110ecefa7777cc978b72be17e66832ec51a6e020cce17d51795cc2fbd32aa4e",
                    "indexes" : {
                        "data" : 0,
                        "gas" : 0,
                        "value" : 0
                    },
                    "logs" : "0x1dcc4de8dec75d7aab85b567b6ccd41ad312451b948a7413f0a142fd40d49347",
                    "txbytes" : "0xf880800a830f424094110000000000000000000000000000000000000080a000000000000000000000000010000000000000000000000000000000000000001ca0ca78c6aeceba1c80b3c5904c35b296f162da6e954108ed3b0850dbbd1eba4349a06691b8ca833ecef464101a63e9710d881bc488dd2aebd813eb32c54900b02bfc"
                },
                {
                    "hash" : "0xf16105793ee12cfed4304b722d345e506076436baecdf988e4cee61d37222e91",
                    "indexes" : {
                        "data" : 1,
                        "gas" : 0,
                        "value" : 0
                    },
                    "logs" : "0x1dcc4de8dec75d7aab85b567b6ccd41ad312451b948a7413f0a142fd40d49347",
                    "txbytes" : "0xf880800a830f424094110000000000000000000000000000000000000080a000000000000000000000000020000000000000000000000000000000000000001ba0f7974705a787c5f412c26b5774972b33e1e9eebe96f758308a0bf87d00530341a04adf51bcbf3ae243e677603067518d772153750ce235d25d149cd6b035b8b1b0"
                }
            ]
        },
        "pre" : {
            "0x000f3df6d732807ef1319fb7b8bb8522d0beac02" : {
                "balance" : "0x00",
                "code" : "0x3373fffffffffffffffffffffffffffffffffffffffe14604d57602036146024575f5ffd5b5f35801560495762001fff810690815414603c575f5ffd5b62001fff01545f5260205ff35b5f5ffd5b62001fff42064281555f359062001fff015500",
                "nonce" : "0x01",
                "storage" : {
                }
            },
            "0x1000000000000000000000000000000000000000" : {
                "balance" : "0x2710",
                "code" : "0x602880600f60003960006000f000fe600060006000600060017310000000000000000000000000000000000000016207a120f260015500",
                "nonce" : "0x00",
                "storage" : {
                }
            },
            "0x1000000000000000000000000000000000000001" : {
                "balance" : "0x00",
                "code" : "0x600160025500",
                "nonce" : "0x00",
                "storage" : {
                }
            },
            "0x1100000000000000000000000000000000000000" : {
                "balance" : "0x00",
                "code" : "0x60006000600060006000600035620493e0f100",
                "nonce" : "0x00",
                "storage" : {
                }
            },
            "0x2000000000000000000000000000000000000000" : {
                "balance" : "0x2710",
                "code" : "0x6000602880601160003960006000f500fe600060006000600060017310000000000000000000000000000000000000016207a120f260015500",
                "nonce" : "0x00",
                "storage" : {
                }
            },
            "0xa94f5374fce5edbc8e2a8697c15331677e6ebf0b" : {
                "balance" : "0x2386f26fc10000",
                "code" : "0x",
                "nonce" : "0x00",
                "storage" : {
                }
            }
        },
        "transaction" : {
            "data" : [
                "0x0000000000000000000000001000000000000000000000000000000000000000",
                "0x0000000000000000000000002000000000000000000000000000000000000000"
            ],
            "gasLimit" : [
                "0x0f4240"
            ],
            "gasPrice" : "0x0a",
            "nonce" : "0x00",
            "secretKey" : "0x45a915e4d060149eb4365960e6a7a45f334393093061116b197e3240065ff2d8",
            "sender" : "0xa94f5374fce5edbc8e2a8697c15331677e6ebf0b",
            "to" : "0x1100000000000000000000000000000000000000",
            "value" : [
                "0x00"
            ]
        }
    }
}