{
    "touchAndGo" : {
        "_info" : {
            "comment" : "The empty account 0xe4971 is being called (with gas 0). The test checks if the touched\nempty account is removed in the end and enabling point of this feature.\n",
            "filling-rpc-server" : "evm version 1.11.4-unstable-e14043db-20230308",
            "filling-tool-version" : "retesteth-0.3.0-shanghai+commit.fd2c0a83.Linux.g++",
            "generatedTestHash" : "f20328d8a729c5670cf2ee948bcfe2e6a23a97ca2bd41a3f98d4c726c5fdd59c",
            "lllcversion" : "Version: 0.5.14-develop.2022.7.30+commit.a096d7a9.Linux.g++",
            "solidity" : "Version: 0.8.17+commit.8df45f5f.Linux.g++",
            "source" : "src/GeneralStateTestsFiller/stCallCodes/touchAndGoFiller.yml",
            "sourceHash" : "69275542e4c31b85078105a42fbd43b2e0037c7e7e659715f1b1fcf4e3d10836"
        },
        "env" : {
            "currentBaseFee" : "0x0a",
            "currentCoinbase" : "0xa94f5374fce5edbc8e2a8697c15331677e6ebf0b",
            "currentDifficulty" : "0x01",
            "currentGasLimit" : "0x0f4240",
            "currentNumber" : "0x01",
            "currentRandom" : "0x0000000000000000000000000000000000000000000000000000000000000001",
            "currentTimestamp" : "0x03e8",
            "previousHash" : "0x5e20a0453cecd065ea59c37ac63e079ee08998b6045136a8ce6635c7912ec0b6"
        },
        "post" : {
            "Berlin" : [
                {
                    "hash" : "0x3372a2bfdaa9dde2583c39610bec3f83e9b408f1c5441e873d59cf684c4b5348",
                    "indexes" : {
                        "data" : 0,
                        "gas" : 0,
                        "value" : 0
                    },
                    "logs" : "0x1dcc4de8dec75d7aab85b567b6ccd41ad312451b948a7413f0a142fd40d49347",
                    "txbytes" : "0xf860806483015f9094095e7baea6a6c7c4c2dfeb977efac326af552d8780801ca0e2bc20353de6759491dd914b7bf149288d8862d39ebf170ab3613bae4a4fb495a009cd00ee597069d35bb5885793fb5c45808cfebb8301d211b27c48d016ecdb67"
                }
            ],
            "Byzantium" : [
                {
                    "hash" : "0x3372a2bfdaa9dde2583c39610bec3f83e9b408f1c5441e873d59cf684c4b5348",
                    "indexes" : {
                        "data" : 0,
                        "gas" : 0,
                        "value" : 0
                    },
                    "logs" : "0x1dcc4de8dec75d7aab85b567b6ccd41ad312451b948a7413f0a142fd40d49347",
                    "txbytes" : "0xf860806483015f9094095e7baea6a6c7c4c2dfeb977efac326af552d8780801ca0e2bc20353de6759491dd914b7bf149288d8862d39ebf170ab3613bae4a4fb495a009cd00ee597069d35bb5885793fb5c45808cfebb8301d211b27c48d016ecdb67"
                }
            ],
            "Constantinople" : [
                {
                    "hash" : "0x3372a2bfdaa9dde2583c39610bec3f83e9b408f1c5441e873d59cf684c4b5348",
                    "indexes" : {
                        "data" : 0,
                        "gas" : 0,
                        "value" : 0
                    },
                    "logs" : "0x1dcc4de8dec75d7aab85b567b6ccd41ad312451b948a7413f0a142fd40d49347",
                    "txbytes" : "0xf860806483015f9094095e7baea6a6c7c4c2dfeb977efac326af552d8780801ca0e2bc20353de6759491dd914b7bf149288d8862d39ebf170ab3613bae4a4fb495a009cd00ee597069d35bb5885793fb5c45808cfebb8301d211b27c48d016ecdb67"
                }
            ],
            "ConstantinopleFix" : [
                {
                    "hash" : "0x3372a2bfdaa9dde2583c39610bec3f83e9b408f1c5441e873d59cf684c4b5348",
                    "indexes" : {
                        "data" : 0,
                        "gas" : 0,
                        "value" : 0
                    },
                    "logs" : "0x1dcc4de8dec75d7aab85b567b6ccd41ad312451b948a7413f0a142fd40d49347",
                    "txbytes" : "0xf860806483015f9094095e7baea6a6c7c4c2dfeb977efac326af552d8780801ca0e2bc20353de6759491dd914b7bf149288d8862d39ebf170ab3613bae4a4fb495a009cd00ee597069d35bb5885793fb5c45808cfebb8301d211b27c48d016ecdb67"
                }
            ],
            "EIP150" : [
                {
                    "hash" : "0x4615f4ac0ee5c6da8f1db7ad2ae250b3ad0b1390c92f91f9e6564f5e06d00ce2",
                    "indexes" : {
                        "data" : 0,
                        "gas" : 0,
                        "value" : 0
                    },
                    "logs" : "0x1dcc4de8dec75d7aab85b567b6ccd41ad312451b948a7413f0a142fd40d49347",
                    "txbytes" : "0xf860806483015f9094095e7baea6a6c7c4c2dfeb977efac326af552d8780801ca0e2bc20353de6759491dd914b7bf149288d8862d39ebf170ab3613bae4a4fb495a009cd00ee597069d35bb5885793fb5c45808cfebb8301d211b27c48d016ecdb67"
                }
            ],
            "EIP158" : [
                {
                    "hash" : "0x3372a2bfdaa9dde2583c39610bec3f83e9b408f1c5441e873d59cf684c4b5348",
                    "indexes" : {
                        "data" : 0,
                        "gas" : 0,
                        "value" : 0
                    },
                    "logs" : "0x1dcc4de8dec75d7aab85b567b6ccd41ad312451b948a7413f0a142fd40d49347",
                    "txbytes" : "0xf860806483015f9094095e7baea6a6c7c4c2dfeb977efac326af552d8780801ca0e2bc20353de6759491dd914b7bf149288d8862d39ebf170ab3613bae4a4fb495a009cd00ee597069d35bb5885793fb5c45808cfebb8301d211b27c48d016ecdb67"
                }
            ],
            "Istanbul" : [
                {
                    "hash" : "0x3372a2bfdaa9dde2583c39610bec3f83e9b408f1c5441e873d59cf684c4b5348",
                    "indexes" : {
                        "data" : 0,
                        "gas" : 0,
                        "value" : 0
                    },
                    "logs" : "0x1dcc4de8dec75d7aab85b567b6ccd41ad312451b948a7413f0a142fd40d49347",
                    "txbytes" : "0xf860806483015f9094095e7baea6a6c7c4c2dfeb977efac326af552d8780801ca0e2bc20353de6759491dd914b7bf149288d8862d39ebf170ab3613bae4a4fb495a009cd00ee597069d35bb5885793fb5c45808cfebb8301d211b27c48d016ecdb67"
                }
            ],
            "London" : [
                {
                    "hash" : "0xb08a1484aa21142c503f531ab527215e4c2f2df84bf97d6248fcfbed4475a890",
                    "indexes" : {
                        "data" : 0,
                        "gas" : 0,
                        "value" : 0
                    },
                    "logs" : "0x1dcc4de8dec75d7aab85b567b6ccd41ad312451b948a7413f0a142fd40d49347",
                    "txbytes" : "0xf860806483015f9094095e7baea6a6c7c4c2dfeb977efac326af552d8780801ca0e2bc20353de6759491dd914b7bf149288d8862d39ebf170ab3613bae4a4fb495a009cd00ee597069d35bb5885793fb5c45808cfebb8301d211b27c48d016ecdb67"
                }
            ],
            "Merge" : [
                {
                    "hash" : "0xb08a1484aa21142c503f531ab527215e4c2f2df84bf97d6248fcfbed4475a890",
                    "indexes" : {
                        "data" : 0,
                        "gas" : 0,
                        "value" : 0
                    },
                    "logs" : "0x1dcc4de8dec75d7aab85b567b6ccd41ad312451b948a7413f0a142fd40d49347",
                    "txbytes" : "0xf860806483015f9094095e7baea6a6c7c4c2dfeb977efac326af552d8780801ca0e2bc20353de6759491dd914b7bf149288d8862d39ebf170ab3613bae4a4fb495a009cd00ee597069d35bb5885793fb5c45808cfebb8301d211b27c48d016ecdb67"
                }
            ],
            "Shanghai" : [
                {
                    "hash" : "0xb08a1484aa21142c503f531ab527215e4c2f2df84bf97d6248fcfbed4475a890",
                    "indexes" : {
                        "data" : 0,
                        "gas" : 0,
                        "value" : 0
                    },
                    "logs" : "0x1dcc4de8dec75d7aab85b567b6ccd41ad312451b948a7413f0a142fd40d49347",
                    "txbytes" : "0xf860806483015f9094095e7baea6a6c7c4c2dfeb977efac326af552d8780801ca0e2bc20353de6759491dd914b7bf149288d8862d39ebf170ab3613bae4a4fb495a009cd00ee597069d35bb5885793fb5c45808cfebb8301d211b27c48d016ecdb67"
                }
            ]
        },
        "pre" : {
            "0x00000000000000000000000000000000000e4971" : {
                "balance" : "0x00",
                "code" : "0x",
                "nonce" : "0x00",
                "storage" : {
                }
            },
            "0x095e7baea6a6c7c4c2dfeb977efac326af552d87" : {
                "balance" : "0x00",
                "code" : "0x6000806000806000620e49716000f150",
                "nonce" : "0x00",
                "storage" : {
                }
            },
            "0xa94f5374fce5edbc8e2a8697c15331677e6ebf0b" : {
                "balance" : "0x5af3107a4000",
                "code" : "0x",
                "nonce" : "0x00",
                "storage" : {
                }
            }
        },
        "transaction" : {
            "data" : [
                "0x"
            ],
            "gasLimit" : [
                "0x015f90"
            ],
            "gasPrice" : "0x64",
            "nonce" : "0x00",
            "secretKey" : "0x45a915e4d060149eb4365960e6a7a45f334393093061116b197e3240065ff2d8",
            "sender" : "0xa94f5374fce5edbc8e2a8697c15331677e6ebf0b",
            "to" : "0x095e7baea6a6c7c4c2dfeb977efac326af552d87",
            "value" : [
                "0x00"
            ]
        }
    }
}