{
    "CallContractToCreateContractWhichWouldCreateContractInInitCode" : {
        "_info" : {
            "comment" : "",
            "filling-rpc-server" : "evm version 1.13.13-unstable-034bc466-20240219",
            "filling-tool-version" : "retesteth-0.3.2-cancun+commit.014a68a5.Linux.g++",
            "generatedTestHash" : "5852354b088bd78f8d43dd8e8d92e6d9a4b8d66d9fe21f16842d9a626a9aaf6b",
            "lllcversion" : "Version: 0.5.14-develop.2023.7.11+commit.c58ab2c6.mod.Linux.g++",
            "solidity" : "Version: 0.8.21+commit.d9974bed.Linux.g++",
            "source" : "src/GeneralStateTestsFiller/stInitCodeTest/CallContractToCreateContractWhichWouldCreateContractInInitCodeFiller.json",
            "sourceHash" : "48c8264572b9716d5f50cfeaac78567141e9dcc2b5021d9839affbe5c51edb57"
        },
        "env" : {
            "currentBaseFee" : "0x0a",
            "currentCoinbase" : "0x2adc25665018aa1fe0e6bc666dac8fc2697ff9ba",
            "currentDifficulty" : "0x020000",
            "currentExcessBlobGas" : "0x00",
            "currentGasLimit" : "0x3b9aca00",
            "currentNumber" : "0x01",
            "currentRandom" : "0x0000000000000000000000000000000000000000000000000000000000020000",
            "currentTimestamp" : "0x03e8"
        },
        "post" : {
            "Berlin" : [
                {
                    "hash" : "0x0e3a7583f6c1df173d49c162581d039d848ed87f554d14a94a2d60e6203c80b1",
                    "indexes" : {
                        "data" : 0,
                        "gas" : 0,
                        "value" : 0
                    },
                    "logs" : "0x1dcc4de8dec75d7aab85b567b6ccd41ad312451b948a7413f0a142fd40d49347",
                    "txbytes" : "0xf861800a8401312d0094095e7baea6a6c7c4c2dfeb977efac326af552d8780001ca0e5e42a33d04233da376d8e03714b03fe0fbd826ad51a84a156419fc94b9e42b9a07439f4e77cd0674dbd2765d68f4bd09fa474938cd0d33c5c3365a49b989f5747"
                }
            ],
            "Cancun" : [
                {
                    "hash" : "0xbee97d07ce772f54a91156fabddca400339f37123ef861e860e1e816bfe637f8",
                    "indexes" : {
                        "data" : 0,
                        "gas" : 0,
                        "value" : 0
                    },
                    "logs" : "0x1dcc4de8dec75d7aab85b567b6ccd41ad312451b948a7413f0a142fd40d49347",
                    "txbytes" : "0xf861800a8401312d0094095e7baea6a6c7c4c2dfeb977efac326af552d8780001ca0e5e42a33d04233da376d8e03714b03fe0fbd826ad51a84a156419fc94b9e42b9a07439f4e77cd0674dbd2765d68f4bd09fa474938cd0d33c5c3365a49b989f5747"
                }
            ],
            "Istanbul" : [
                {
                    "hash" : "0x78e3c5f4247f3b3d383c75e76363ad7adc6b9cde48e91abd4eeae7ce0ddcea4f",
                    "indexes" : {
                        "data" : 0,
                        "gas" : 0,
                        "value" : 0
                    },
                    "logs" : "0x1dcc4de8dec75d7aab85b567b6ccd41ad312451b948a7413f0a142fd40d49347",
                    "txbytes" : "0xf861800a8401312d0094095e7baea6a6c7c4c2dfeb977efac326af552d8780001ca0e5e42a33d04233da376d8e03714b03fe0fbd826ad51a84a156419fc94b9e42b9a07439f4e77cd0674dbd2765d68f4bd09fa474938cd0d33c5c3365a49b989f5747"
                }
            ],
            "London" : [
                {
                    "hash" : "0x7de487a290d62c1013fba6b03eed39b78d4b7fcc03cfe741483bacb80eddb159",
                    "indexes" : {
                        "data" : 0,
                        "gas" : 0,
                        "value" : 0
                    },
                    "logs" : "0x1dcc4de8dec75d7aab85b567b6ccd41ad312451b948a7413f0a142fd40d49347",
                    "txbytes" : "0xf861800a8401312d0094095e7baea6a6c7c4c2dfeb977efac326af552d8780001ca0e5e42a33d04233da376d8e03714b03fe0fbd826ad51a84a156419fc94b9e42b9a07439f4e77cd0674dbd2765d68f4bd09fa474938cd0d33c5c3365a49b989f5747"
                }
            ],
            "Paris" : [
                {
                    "hash" : "0x7de487a290d62c1013fba6b03eed39b78d4b7fcc03cfe741483bacb80eddb159",
                    "indexes" : {
                        "data" : 0,
                        "gas" : 0,
                        "value" : 0
                    },
                    "logs" : "0x1dcc4de8dec75d7aab85b567b6ccd41ad312451b948a7413f0a142fd40d49347",
                    "txbytes" : "0xf861800a8401312d0094095e7baea6a6c7c4c2dfeb977efac326af552d8780001ca0e5e42a33d04233da376d8e03714b03fe0fbd826ad51a84a156419fc94b9e42b9a07439f4e77cd0674dbd2765d68f4bd09fa474938cd0d33c5c3365a49b989f5747"
                }
            ],
            "Shanghai" : [
                {
                    "hash" : "0x7a938005c95e9f595aca3de173fb7cb16b2042938aaa196e506478cfcd7942fa",
                    "indexes" : {
                        "data" : 0,
                        "gas" : 0,
                        "value" : 0
                    },
                    "logs" : "0x1dcc4de8dec75d7aab85b567b6ccd41ad312451b948a7413f0a142fd40d49347",
                    "txbytes" : "0xf861800a8401312d0094095e7baea6a6c7c4c2dfeb977efac326af552d8780001ca0e5e42a33d04233da376d8e03714b03fe0fbd826ad51a84a156419fc94b9e42b9a07439f4e77cd0674dbd2765d68f4bd09fa474938cd0d33c5c3365a49b989f5747"
                }
            ]
        },
        "pre" : {
            "0x000f3df6d732807ef1319fb7b8bb8522d0beac02" : {
                "balance" : "0x00",
                "code" : "0x3373fffffffffffffffffffffffffffffffffffffffe14604d57602036146024575f5ffd5b5f35801560495762001fff810690815414603c575f5ffd5b62001fff01545f5260205ff35b5f5ffd5b62001fff42064281555f359062001fff015500",
                "nonce" : "0x01",
                "storage" : {
                }
            },
            "0x095e7baea6a6c7c4c2dfeb977efac326af552d87" : {
                "balance" : "0x01",
                "code" : "0x6b600c600055602060406000f0600052600c60146000f000",
                "nonce" : "0x00",
                "storage" : {
                }
            },
            "0xa94f5374fce5edbc8e2a8697c15331677e6ebf0b" : {
                "balance" : "0x3b9aca00",
                "code" : "0x",
                "nonce" : "0x00",
                "storage" : {
                }
            }
        },
        "transaction" : {
            "data" : [
                "0x00"
            ],
            "gasLimit" : [
                "0x01312d00"
            ],
            "gasPrice" : "0x0a",
            "nonce" : "0x00",
            "secretKey" : "0x45a915e4d060149eb4365960e6a7a45f334393093061116b197e3240065ff2d8",
            "sender" : "0xa94f5374fce5edbc8e2a8697c15331677e6ebf0b",
            "to" : "0x095e7baea6a6c7c4c2dfeb977efac326af552d87",
            "value" : [
                "0x00"
            ]
        }
    }
}