{
    "CallRecursiveContract" : {
        "_info" : {
            "comment" : "",
            "filling-rpc-server" : "evm version 1.10.2-unstable-22082f9e-20210309",
            "filling-tool-version" : "retesteth-0.1.0-accesslist+commit.47c69eb3.Linux.g++",
            "lllcversion" : "Version: 0.5.14-develop.2020.6.22+commit.9189ad7a.Linux.g++",
            "source" : "src/GeneralStateTestsFiller/stInitCodeTest/CallRecursiveContractFiller.json",
            "sourceHash" : "21ebd6dff314a2e0cd36b02f8222bc8bf713886eaa2e68dac05370ec56593500"
        },
        "env" : {
            "currentCoinbase" : "0x2adc25665018aa1fe0e6bc666dac8fc2697ff9ba",
            "currentDifficulty" : "0x020000",
            "currentGasLimit" : "0x05f5e100",
            "currentNumber" : "0x01",
            "currentTimestamp" : "0x03e8",
            "previousHash" : "0x5e20a0453cecd065ea59c37ac63e079ee08998b6045136a8ce6635c7912ec0b6"
        },
        "post" : {
            "Berlin" : [
                {
                    "indexes" : {
                        "data" : 0,
                        "gas" : 0,
                        "value" : 0
                    },
                    "hash" : "0x77f07fc8eec81e0c01fd41db1b178c74ef3ffd3fc63d7e09d460c78800b0a725",
                    "txbytes" : "0xf860800183061a8094095e7baea6a6c7c4c2dfeb977efac326af552d8701001ca0767b4aeef3b7b464066b6622894304ddbe828ff6f7d35b4a208479b84190072da06d23402c4c7144e986f0a9dbbb8bfc7fd8e1d75f13bb85d5cce03b46f0a8b0ca",
                    "logs" : "0x1dcc4de8dec75d7aab85b567b6ccd41ad312451b948a7413f0a142fd40d49347"
                }
            ],
            "Istanbul" : [
                {
                    "indexes" : {
                        "data" : 0,
                        "gas" : 0,
                        "value" : 0
                    },
                    "hash" : "0xb594d4214b0c58b976459bac66afa2871366404e695195544308b82dda0775b6",
                    "txbytes" : "0xf860800183061a8094095e7baea6a6c7c4c2dfeb977efac326af552d8701001ca0767b4aeef3b7b464066b6622894304ddbe828ff6f7d35b4a208479b84190072da06d23402c4c7144e986f0a9dbbb8bfc7fd8e1d75f13bb85d5cce03b46f0a8b0ca",
                    "logs" : "0x1dcc4de8dec75d7aab85b567b6ccd41ad312451b948a7413f0a142fd40d49347"
                }
            ]
        },
        "pre" : {
            "0x095e7baea6a6c7c4c2dfeb977efac326af552d87" : {
                "balance" : "0x00",
                "code" : "0x3060025560206000600039602060006000f000",
                "nonce" : "0x28",
                "storage" : {
                }
            },
            "0xa94f5374fce5edbc8e2a8697c15331677e6ebf0b" : {
                "balance" : "0x0f4240",
                "code" : "0x",
                "nonce" : "0x00",
                "storage" : {
                }
            }
        },
        "transaction" : {
            "data" : [
                "0x00"
            ],
            "gasLimit" : [
                "0x061a80"
            ],
            "gasPrice" : "0x01",
            "nonce" : "0x00",
            "secretKey" : "0x45a915e4d060149eb4365960e6a7a45f334393093061116b197e3240065ff2d8",
            "to" : "0x095e7baea6a6c7c4c2dfeb977efac326af552d87",
            "value" : [
                "0x01"
            ]
        }
    }
}