{
    "UnclePopulation" : {
        "_info" : {
            "comment" : "",
            "filledwith" : "cpp-1.3.0+commit.6e0ce939.Linux.g++",
            "lllcversion" : "Version: 0.4.18-develop.2017.9.25+commit.a72237f2.Linux.g++",
            "source" : "src/BlockchainTestsFiller/TransitionTests/bcFrontierToHomestead/UnclePopulationFiller.json",
            "sourceHash" : "72bca6b01e871363486b946018ca680598cfdb8d4867330d7565c0e215d6619f"
        },
        "blocks" : [
            {
                "blockHeader" : {
                    "bloom" : "0x00000000000000000000000000000000000000000000000000000000000000000000000000000000000000000000000000000000000000000000000000000000000000000000000000000000000000000000000000000000000000000000000000000000000000000000000000000000000000000000000000000000000000000000000000000000000000000000000000000000000000000000000000000000000000000000000000000000000000000000000000000000000000000000000000000000000000000000000000000000000000000000000000000000000000000000000000000000000000000000000000000000000000000000000000000000",
                    "coinbase" : "0x8888f1f195afa192cfee860698584c030f4c9db1",
                    "difficulty" : "0x020000",
                    "extraData" : "",
                    "gasLimit" : "0x2fefba",
                    "gasUsed" : "0x00",
                    "hash" : "0x7b34a4f501059965a16e7ada9a1f7a44cc951ac7a2e7be5599a3ea56b59a4ddb",
                    "mixHash" : "0xe88b8c4fb541f1eeeb4a79fe2eb2dfe1557c13c32f25c805126e29777f03de0a",
                    "nonce" : "0x5dcd388fe80a74e6",
                    "number" : "0x01",
                    "parentHash" : "0x7285abd5b24742f184ad676e31f6054663b3529bc35ea2fcad8a3e0f642a46f7",
                    "receiptTrie" : "0x56e81f171bcc55a6ff8345e692c0f86e5b48e01b996cadc001622fb5e363b421",
                    "stateRoot" : "0x8503769bb14067be7c5e438c353094e5a9a6c72f375fad4a76878a8882ceb496",
                    "timestamp" : "0x59d66788",
                    "transactionsTrie" : "0x56e81f171bcc55a6ff8345e692c0f86e5b48e01b996cadc001622fb5e363b421",
                    "uncleHash" : "0x1dcc4de8dec75d7aab85b567b6ccd41ad312451b948a7413f0a142fd40d49347"
                },
                "blocknumber" : "1",
                "chainname" : "H",
                "rlp" : "0xf901fcf901f7a07285abd5b24742f184ad676e31f6054663b3529bc35ea2fcad8a3e0f642a46f7a01dcc4de8dec75d7aab85b567b6ccd41ad312451b948a7413f0a142fd40d49347948888f1f195afa192cfee860698584c030f4c9db1a08503769bb14067be7c5e438c353094e5a9a6c72f375fad4a76878a8882ceb496a056e81f171bcc55a6ff8345e692c0f86e5b48e01b996cadc001622fb5e363b421a056e81f171bcc55a6ff8345e692c0f86e5b48e01b996cadc001622fb5e363b421b90100000000000000000000000000000000000000000000000000000000000000000000000000000000000000000000000000000000000000000000000000000000000000000000000000000000000000000000000000000000000000000000000000000000000000000000000000000000000000000000000000000000000000000000000000000000000000000000000000000000000000000000000000000000000000000000000000000000000000000000000000000000000000000000000000000000000000000000000000000000000000000000000000000000000000000000000000000000000000000000000000000000000000000000000000000000008302000001832fefba808459d6678880a0e88b8c4fb541f1eeeb4a79fe2eb2dfe1557c13c32f25c805126e29777f03de0a885dcd388fe80a74e6c0c0",
                "transactions" : [
                ],
                "uncleHeaders" : [
                ]
            },
            {
                "blockHeader" : {
                    "bloom" : "0x00000000000000000000000000000000000000000000000000000000000000000000000000000000000000000000000000000000000000000000000000000000000000000000000000000000000000000000000000000000000000000000000000000000000000000000000000000000000000000000000000000000000000000000000000000000000000000000000000000000000000000000000000000000000000000000000000000000000000000000000000000000000000000000000000000000000000000000000000000000000000000000000000000000000000000000000000000000000000000000000000000000000000000000000000000000",
                    "coinbase" : "0x8888f1f195afa192cfee860698584c030f4c9db1",
                    "difficulty" : "0x020040",
                    "extraData" : "",
                    "gasLimit" : "0x2fefba",
                    "gasUsed" : "0x00",
                    "hash" : "0x2ff11655ddba21be714fbc07570eb0e89a6a46e0134e0a29752c38e186b506fe",
                    "mixHash" : "0x048be2419b63593eeb928c3247cf9a8a1622c509e4fb1dd69a33893c46563fb9",
                    "nonce" : "0x3399339ec625f9b8",
                    "number" : "0x02",
                    "parentHash" : "0x7b34a4f501059965a16e7ada9a1f7a44cc951ac7a2e7be5599a3ea56b59a4ddb",
                    "receiptTrie" : "0x56e81f171bcc55a6ff8345e692c0f86e5b48e01b996cadc001622fb5e363b421",
                    "stateRoot" : "0x326587c5310ecdbd0c8d36c471eef6595a6046ad46ee90bf0db88e691223ee38",
                    "timestamp" : "0x59d66789",
                    "transactionsTrie" : "0x56e81f171bcc55a6ff8345e692c0f86e5b48e01b996cadc001622fb5e363b421",
                    "uncleHash" : "0x1dcc4de8dec75d7aab85b567b6ccd41ad312451b948a7413f0a142fd40d49347"
                },
                "blocknumber" : "2",
                "chainname" : "H",
                "rlp" : "0xf901fcf901f7a07b34a4f501059965a16e7ada9a1f7a44cc951ac7a2e7be5599a3ea56b59a4ddba01dcc4de8dec75d7aab85b567b6ccd41ad312451b948a7413f0a142fd40d49347948888f1f195afa192cfee860698584c030f4c9db1a0326587c5310ecdbd0c8d36c471eef6595a6046ad46ee90bf0db88e691223ee38a056e81f171bcc55a6ff8345e692c0f86e5b48e01b996cadc001622fb5e363b421a056e81f171bcc55a6ff8345e692c0f86e5b48e01b996cadc001622fb5e363b421b90100000000000000000000000000000000000000000000000000000000000000000000000000000000000000000000000000000000000000000000000000000000000000000000000000000000000000000000000000000000000000000000000000000000000000000000000000000000000000000000000000000000000000000000000000000000000000000000000000000000000000000000000000000000000000000000000000000000000000000000000000000000000000000000000000000000000000000000000000000000000000000000000000000000000000000000000000000000000000000000000000000000000000000000000000000000008302004002832fefba808459d6678980a0048be2419b63593eeb928c3247cf9a8a1622c509e4fb1dd69a33893c46563fb9883399339ec625f9b8c0c0",
                "transactions" : [
                ],
                "uncleHeaders" : [
                ]
            },
            {
                "blockHeader" : {
                    "bloom" : "0x00000000000000000000000000000000000000000000000000000000000000000000000000000000000000000000000000000000000000000000000000000000000000000000000000000000000000000000000000000000000000000000000000000000000000000000000000000000000000000000000000000000000000000000000000000000000000000000000000000000000000000000000000000000000000000000000000000000000000000000000000000000000000000000000000000000000000000000000000000000000000000000000000000000000000000000000000000000000000000000000000000000000000000000000000000000",
                    "coinbase" : "0x8888f1f195afa192cfee860698584c030f4c9db1",
                    "difficulty" : "0x020080",
                    "extraData" : "",
                    "gasLimit" : "0x2fefba",
                    "gasUsed" : "0x00",
                    "hash" : "0x27eab7e309be4dc9f57314c354a3ba0d58e3d5fe487a5dc1e6afa91ebb5a32b8",
                    "mixHash" : "0x6827c771119d37f64ae244d135f065f2530e5a84f900016e9bd663ddbb12e81c",
                    "nonce" : "0xc400f21fca2d6907",
                    "number" : "0x03",
                    "parentHash" : "0x2ff11655ddba21be714fbc07570eb0e89a6a46e0134e0a29752c38e186b506fe",
                    "receiptTrie" : "0x56e81f171bcc55a6ff8345e692c0f86e5b48e01b996cadc001622fb5e363b421",
                    "stateRoot" : "0xc662553363b8624b50cd8f83a2a28ec38b6cf0c029db61cb21e06d7df87fb256",
                    "timestamp" : "0x59d6678d",
                    "transactionsTrie" : "0x56e81f171bcc55a6ff8345e692c0f86e5b48e01b996cadc001622fb5e363b421",
                    "uncleHash" : "0x1dcc4de8dec75d7aab85b567b6ccd41ad312451b948a7413f0a142fd40d49347"
                },
                "blocknumber" : "3",
                "chainname" : "H",
                "rlp" : "0xf901fcf901f7a02ff11655ddba21be714fbc07570eb0e89a6a46e0134e0a29752c38e186b506fea01dcc4de8dec75d7aab85b567b6ccd41ad312451b948a7413f0a142fd40d49347948888f1f195afa192cfee860698584c030f4c9db1a0c662553363b8624b50cd8f83a2a28ec38b6cf0c029db61cb21e06d7df87fb256a056e81f171bcc55a6ff8345e692c0f86e5b48e01b996cadc001622fb5e363b421a056e81f171bcc55a6ff8345e692c0f86e5b48e01b996cadc001622fb5e363b421b90100000000000000000000000000000000000000000000000000000000000000000000000000000000000000000000000000000000000000000000000000000000000000000000000000000000000000000000000000000000000000000000000000000000000000000000000000000000000000000000000000000000000000000000000000000000000000000000000000000000000000000000000000000000000000000000000000000000000000000000000000000000000000000000000000000000000000000000000000000000000000000000000000000000000000000000000000000000000000000000000000000000000000000000000000000000008302008003832fefba808459d6678d80a06827c771119d37f64ae244d135f065f2530e5a84f900016e9bd663ddbb12e81c88c400f21fca2d6907c0c0",
                "transactions" : [
                ],
                "uncleHeaders" : [
                ]
            },
            {
                "blockHeader" : {
                    "bloom" : "0x00000000000000000000000000000000000000000000000000000000000000000000000000000000000000000000000000000000000000000000000000000000000000000000000000000000000000000000000000000000000000000000000000000000000000000000000000000000000000000000000000000000000000000000000000000000000000000000000000000000000000000000000000000000000000000000000000000000000000000000000000000000000000000000000000000000000000000000000000000000000000000000000000000000000000000000000000000000000000000000000000000000000000000000000000000000",
                    "coinbase" : "0x8888f1f195afa192cfee860698584c030f4c9db1",
                    "difficulty" : "0x0200c0",
                    "extraData" : "",
                    "gasLimit" : "0x2fefba",
                    "gasUsed" : "0x00",
                    "hash" : "0x58831598de0e430df1c5513442369bf58c8591ffea455783c06317ddbab39ab7",
                    "mixHash" : "0x97d914fbc8709bc22f2e993ceb1b585e384fc22821646cd547027ce9e5518f4e",
                    "nonce" : "0x60c3c646f9dc73d2",
                    "number" : "0x04",
                    "parentHash" : "0x27eab7e309be4dc9f57314c354a3ba0d58e3d5fe487a5dc1e6afa91ebb5a32b8",
                    "receiptTrie" : "0x56e81f171bcc55a6ff8345e692c0f86e5b48e01b996cadc001622fb5e363b421",
                    "stateRoot" : "0x6b6c82551219d30f4168674006e3e1ece38eb055d9575f63e6dcce05f4a610af",
                    "timestamp" : "0x59d6678e",
                    "transactionsTrie" : "0x56e81f171bcc55a6ff8345e692c0f86e5b48e01b996cadc001622fb5e363b421",
                    "uncleHash" : "0x1dcc4de8dec75d7aab85b567b6ccd41ad312451b948a7413f0a142fd40d49347"
                },
                "blocknumber" : "4",
                "chainname" : "H",
                "rlp" : "0xf901fcf901f7a027eab7e309be4dc9f57314c354a3ba0d58e3d5fe487a5dc1e6afa91ebb5a32b8a01dcc4de8dec75d7aab85b567b6ccd41ad312451b948a7413f0a142fd40d49347948888f1f195afa192cfee860698584c030f4c9db1a06b6c82551219d30f4168674006e3e1ece38eb055d9575f63e6dcce05f4a610afa056e81f171bcc55a6ff8345e692c0f86e5b48e01b996cadc001622fb5e363b421a056e81f171bcc55a6ff8345e692c0f86e5b48e01b996cadc001622fb5e363b421b9010000000000000000000000000000000000000000000000000000000000000000000000000000000000000000000000000000000000000000000000000000000000000000000000000000000000000000000000000000000000000000000000000000000000000000000000000000000000000000000000000000000000000000000000000000000000000000000000000000000000000000000000000000000000000000000000000000000000000000000000000000000000000000000000000000000000000000000000000000000000000000000000000000000000000000000000000000000000000000000000000000000000000000000000000000000000830200c004832fefba808459d6678e80a097d914fbc8709bc22f2e993ceb1b585e384fc22821646cd547027ce9e5518f4e8860c3c646f9dc73d2c0c0",
                "transactions" : [
                ],
                "uncleHeaders" : [
                ]
            },
            {
                "blockHeader" : {
                    "bloom" : "0x00000000000000000000000000000000000000000000000000000000000000000000000000000000000000000000000000000000000000000000000000000000000000000000000000000000000000000000000000000000000000000000000000000000000000000000000000000000000000000000000000000000000000000000000000000000000000000000000000000000000000000000000000000000000000000000000000000000000000000000000000000000000000000000000000000000000000000000000000000000000000000000000000000000000000000000000000000000000000000000000000000000000000000000000000000000",
                    "coinbase" : "0x8888f1f195afa192cfee860698584c030f4c9db1",
                    "difficulty" : "0x020100",
                    "extraData" : "",
                    "gasLimit" : "0x2fefba",
                    "gasUsed" : "0x00",
                    "hash" : "0x5fe07f010655baa13fdf1e6140e1b75640b69addafaa86d875e968220e4da897",
                    "mixHash" : "0x572a0c6706ed9fb8a189b9c2aa3b101efa097aac3e88c5200476d6d4779312a1",
                    "nonce" : "0x3e0e02c7d6ce4d76",
                    "number" : "0x05",
                    "parentHash" : "0x58831598de0e430df1c5513442369bf58c8591ffea455783c06317ddbab39ab7",
                    "receiptTrie" : "0x56e81f171bcc55a6ff8345e692c0f86e5b48e01b996cadc001622fb5e363b421",
                    "stateRoot" : "0xd7fbf4bf063a6e4a506777007a071e16d4dc6cc18f9ced7b29261942b35409a3",
                    "timestamp" : "0x59d66791",
                    "transactionsTrie" : "0x56e81f171bcc55a6ff8345e692c0f86e5b48e01b996cadc001622fb5e363b421",
                    "uncleHash" : "0x1dcc4de8dec75d7aab85b567b6ccd41ad312451b948a7413f0a142fd40d49347"
                },
                "blocknumber" : "5",
                "chainname" : "H",
                "rlp" : "0xf901fcf901f7a058831598de0e430df1c5513442369bf58c8591ffea455783c06317ddbab39ab7a01dcc4de8dec75d7aab85b567b6ccd41ad312451b948a7413f0a142fd40d49347948888f1f195afa192cfee860698584c030f4c9db1a0d7fbf4bf063a6e4a506777007a071e16d4dc6cc18f9ced7b29261942b35409a3a056e81f171bcc55a6ff8345e692c0f86e5b48e01b996cadc001622fb5e363b421a056e81f171bcc55a6ff8345e692c0f86e5b48e01b996cadc001622fb5e363b421b90100000000000000000000000000000000000000000000000000000000000000000000000000000000000000000000000000000000000000000000000000000000000000000000000000000000000000000000000000000000000000000000000000000000000000000000000000000000000000000000000000000000000000000000000000000000000000000000000000000000000000000000000000000000000000000000000000000000000000000000000000000000000000000000000000000000000000000000000000000000000000000000000000000000000000000000000000000000000000000000000000000000000000000000000000000000008302010005832fefba808459d6679180a0572a0c6706ed9fb8a189b9c2aa3b101efa097aac3e88c5200476d6d4779312a1883e0e02c7d6ce4d76c0c0",
                "transactions" : [
                ],
                "uncleHeaders" : [
                ]
            },
            {
                "blockHeader" : {
                    "bloom" : "0x00000000000000000000000000000000000000000000000000000000000000000000000000000000000000000000000000000000000000000000000000000000000000000000000000000000000000000000000000000000000000000000000000000000000000000000000000000000000000000000000000000000000000000000000000000000000000000000000000000000000000000000000000000000000000000000000000000000000000000000000000000000000000000000000000000000000000000000000000000000000000000000000000000000000000000000000000000000000000000000000000000000000000000000000000000000",
                    "coinbase" : "0x8888f1f195afa192cfee860698584c030f4c9db1",
                    "difficulty" : "0x020140",
                    "extraData" : "",
                    "gasLimit" : "0x2fefba",
                    "gasUsed" : "0x5208",
                    "hash" : "0x1594da2f665ea1ea2d5f3c2f5150102e407a11237d2a633bd3aa5842c8aae78d",
                    "mixHash" : "0x4712538e67bfef6c2b3799fa2e015d5f1f30432d771551cc0df3109d5321d568",
                    "nonce" : "0x9100899c78e581d8",
                    "number" : "0x06",
                    "parentHash" : "0x5fe07f010655baa13fdf1e6140e1b75640b69addafaa86d875e968220e4da897",
                    "receiptTrie" : "0x7191f80a9a89b68283ba575e536f2825389c41029085cb461e161fc01df6652b",
                    "stateRoot" : "0x2b30a2acb6b6ed4adb49ef749baa17673bbdc8c1b9964607c5a2ccf8ed81aafc",
                    "timestamp" : "0x59d66795",
                    "transactionsTrie" : "0xb049e948f958fd4f29ff8d237dcf93ad958042c49b5515e2330f1652ae5cc7ec",
                    "uncleHash" : "0x42704e0bf5fcb81b1770a6ec9fbeb94771d19a14d131522a82a01b54625a9cc4"
                },
                "blocknumber" : "6",
                "chainname" : "H",
                "rlp" : "0xf9045df901f9a05fe07f010655baa13fdf1e6140e1b75640b69addafaa86d875e968220e4da897a042704e0bf5fcb81b1770a6ec9fbeb94771d19a14d131522a82a01b54625a9cc4948888f1f195afa192cfee860698584c030f4c9db1a02b30a2acb6b6ed4adb49ef749baa17673bbdc8c1b9964607c5a2ccf8ed81aafca0b049e948f958fd4f29ff8d237dcf93ad958042c49b5515e2330f1652ae5cc7eca07191f80a9a89b68283ba575e536f2825389c41029085cb461e161fc01df6652bb90100000000000000000000000000000000000000000000000000000000000000000000000000000000000000000000000000000000000000000000000000000000000000000000000000000000000000000000000000000000000000000000000000000000000000000000000000000000000000000000000000000000000000000000000000000000000000000000000000000000000000000000000000000000000000000000000000000000000000000000000000000000000000000000000000000000000000000000000000000000000000000000000000000000000000000000000000000000000000000000000000000000000000000000000000000000008302014006832fefba8252088459d6679580a04712538e67bfef6c2b3799fa2e015d5f1f30432d771551cc0df3109d5321d568889100899c78e581d8f862f86080018301fbd094b94f5374fce5edbc8e2a8697c15331677e6ebf0b0a801ba06738f4afb7c14330fbdd9d3c2ac20b9e12755bbf873edd70962820b3041d50c7a02094fd79dba23f99f79cadcda90aa4545c380a6363f6462d842bd77a921a1d58f901faf901f7a058831598de0e430df1c5513442369bf58c8591ffea455783c06317ddbab39ab7a01dcc4de8dec75d7aab85b567b6ccd41ad312451b948a7413f0a142fd40d49347940000000000000000000000000000000000000000a06b6c82551219d30f4168674006e3e1ece38eb055d9575f63e6dcce05f4a610afa056e81f171bcc55a6ff8345e692c0f86e5b48e01b996cadc001622fb5e363b421a056e81f171bcc55a6ff8345e692c0f86e5b48e01b996cadc001622fb5e363b421b90100000000000000000000000000000000000000000000000000000000000000000000000000000000000000000000000000000000000000000000000000000000000000000000000000000000000000000000000000000000000000000000000000000000000000000000000000000000000000000000000000000000000000000000000000000000000000000000000000000000000000000000000000000000000000000000000000000000000000000000000000000000000000000000000000000000000000000000000000000000000000000000000000000000000000000000000000000000000000000000000000000000000000000000000000000000008302010005832fefba808459d6679380a08d28de4a8fc76a0e788216df7dcbbdd73bc4fca48d7f060b38e893ff59aaba0088398ecdaa9b290dbf",
                "transactions" : [
                    {
                        "data" : "",
                        "gasLimit" : "0x01fbd0",
                        "gasPrice" : "0x01",
                        "nonce" : "0x00",
                        "r" : "0x6738f4afb7c14330fbdd9d3c2ac20b9e12755bbf873edd70962820b3041d50c7",
                        "s" : "0x2094fd79dba23f99f79cadcda90aa4545c380a6363f6462d842bd77a921a1d58",
                        "to" : "0xb94f5374fce5edbc8e2a8697c15331677e6ebf0b",
                        "v" : "0x1b",
                        "value" : "0x0a"
                    }
                ],
                "uncleHeaders" : [
                    {
                        "bloom" : "0x00000000000000000000000000000000000000000000000000000000000000000000000000000000000000000000000000000000000000000000000000000000000000000000000000000000000000000000000000000000000000000000000000000000000000000000000000000000000000000000000000000000000000000000000000000000000000000000000000000000000000000000000000000000000000000000000000000000000000000000000000000000000000000000000000000000000000000000000000000000000000000000000000000000000000000000000000000000000000000000000000000000000000000000000000000000",
                        "coinbase" : "0x0000000000000000000000000000000000000000",
                        "difficulty" : "0x020100",
                        "extraData" : "",
                        "gasLimit" : "0x2fefba",
                        "gasUsed" : "0x00",
                        "hash" : "0xf6c93b76fde2e89609f4e0ac5212b5c9649b329c65bd7a8398edee869b2e1485",
                        "mixHash" : "0x8d28de4a8fc76a0e788216df7dcbbdd73bc4fca48d7f060b38e893ff59aaba00",
                        "nonce" : "0x398ecdaa9b290dbf",
                        "number" : "0x05",
                        "parentHash" : "0x58831598de0e430df1c5513442369bf58c8591ffea455783c06317ddbab39ab7",
                        "receiptTrie" : "0x56e81f171bcc55a6ff8345e692c0f86e5b48e01b996cadc001622fb5e363b421",
                        "stateRoot" : "0x6b6c82551219d30f4168674006e3e1ece38eb055d9575f63e6dcce05f4a610af",
                        "timestamp" : "0x59d66793",
                        "transactionsTrie" : "0x56e81f171bcc55a6ff8345e692c0f86e5b48e01b996cadc001622fb5e363b421",
                        "uncleHash" : "0x1dcc4de8dec75d7aab85b567b6ccd41ad312451b948a7413f0a142fd40d49347"
                    }
                ]
            }
        ],
        "genesisBlockHeader" : {
            "bloom" : "0x00000000000000000000000000000000000000000000000000000000000000000000000000000000000000000000000000000000000000000000000000000000000000000000000000000000000000000000000000000000000000000000000000000000000000000000000000000000000000000000000000000000000000000000000000000000000000000000000000000000000000000000000000000000000000000000000000000000000000000000000000000000000000000000000000000000000000000000000000000000000000000000000000000000000000000000000000000000000000000000000000000000000000000000000000000000",
            "coinbase" : "0x8888f1f195afa192cfee860698584c030f4c9db1",
            "difficulty" : "0x020000",
            "extraData" : "0x42",
            "gasLimit" : "0x2fefd8",
            "gasUsed" : "0x00",
            "hash" : "0x7285abd5b24742f184ad676e31f6054663b3529bc35ea2fcad8a3e0f642a46f7",
            "mixHash" : "0x56e81f171bcc55a6ff8345e692c0f86e5b48e01b996cadc001622fb5e363b421",
            "nonce" : "0x0102030405060708",
            "number" : "0x00",
            "parentHash" : "0x0000000000000000000000000000000000000000000000000000000000000000",
            "receiptTrie" : "0x56e81f171bcc55a6ff8345e692c0f86e5b48e01b996cadc001622fb5e363b421",
            "stateRoot" : "0xcafd881ab193703b83816c49ff6c2bf6ba6f464a1be560c42106128c8dbc35e7",
            "timestamp" : "0x54c98c81",
            "transactionsTrie" : "0x56e81f171bcc55a6ff8345e692c0f86e5b48e01b996cadc001622fb5e363b421",
            "uncleHash" : "0x1dcc4de8dec75d7aab85b567b6ccd41ad312451b948a7413f0a142fd40d49347"
        },
        "genesisRLP" : "0xf901fcf901f7a00000000000000000000000000000000000000000000000000000000000000000a01dcc4de8dec75d7aab85b567b6ccd41ad312451b948a7413f0a142fd40d49347948888f1f195afa192cfee860698584c030f4c9db1a0cafd881ab193703b83816c49ff6c2bf6ba6f464a1be560c42106128c8dbc35e7a056e81f171bcc55a6ff8345e692c0f86e5b48e01b996cadc001622fb5e363b421a056e81f171bcc55a6ff8345e692c0f86e5b48e01b996cadc001622fb5e363b421b90100000000000000000000000000000000000000000000000000000000000000000000000000000000000000000000000000000000000000000000000000000000000000000000000000000000000000000000000000000000000000000000000000000000000000000000000000000000000000000000000000000000000000000000000000000000000000000000000000000000000000000000000000000000000000000000000000000000000000000000000000000000000000000000000000000000000000000000000000000000000000000000000000000000000000000000000000000000000000000000000000000000000000000000000000000000008302000080832fefd8808454c98c8142a056e81f171bcc55a6ff8345e692c0f86e5b48e01b996cadc001622fb5e363b421880102030405060708c0c0",
        "lastblockhash" : "0x1594da2f665ea1ea2d5f3c2f5150102e407a11237d2a633bd3aa5842c8aae78d",
        "network" : "FrontierToHomesteadAt5",
        "postState" : {
            "0x0000000000000000000000000000000000000000" : {
                "balance" : "0x3cb71f51fc558000",
                "code" : "",
                "nonce" : "0x00",
                "storage" : {
                }
            },
            "0x8888f1f195afa192cfee860698584c030f4c9db1" : {
                "balance" : "0x01a2808599afdff208",
                "code" : "",
                "nonce" : "0x00",
                "storage" : {
                }
            },
            "0xa94f5374fce5edbc8e2a8697c15331677e6ebf0b" : {
                "balance" : "0x02540b91ee",
                "code" : "",
                "nonce" : "0x01",
                "storage" : {
                }
            },
            "0xb94f5374fce5edbc8e2a8697c15331677e6ebf0b" : {
                "balance" : "0x0a",
                "code" : "",
                "nonce" : "0x00",
                "storage" : {
                }
            }
        },
        "pre" : {
            "0xa94f5374fce5edbc8e2a8697c15331677e6ebf0b" : {
                "balance" : "0x02540be400",
                "code" : "",
                "nonce" : "0x00",
                "storage" : {
                }
            }
        }
    }
}