{
    "badOpcodes_d108g0v0_Byzantium" : {
        "_info" : {
            "comment" : "",
            "filledwith" : "cpp-1.3.0+commit.e577bb2a.Linux.g++",
            "source" : "/ethereum/tests/src/GenStateTestAsBcTemp/stBadOpcode/badOpcodes_d108g0v0Filler.json"
        },
        "blocks" : [
            {
                "blockHeader" : {
                    "bloom" : "0x00000000000000000000000000000000000000000000000000000000000000000000000000000000000000000000000000000000000000000000000000000000000000000000000000000000000000000000000000000000000000000000000000000000000000000000000000000000000000000000000000000000000000000000000000000000000000000000000000000000000000000000000000000000000000000000000000000000000000000000000000000000000000000000000000000000000000000000000000000000000000000000000000000000000000000000000000000000000000000000000000000000000000000000000000000000",
                    "coinbase" : "0x2adc25665018aa1fe0e6bc666dac8fc2697ff9ba",
                    "difficulty" : "0x020000",
                    "extraData" : "",
                    "gasLimit" : "0x0f4240",
                    "gasUsed" : "0x061a80",
                    "hash" : "0x75eb4f463f0d83bd5d98ea20ec68cefc6b3d76170440a14162d8da410ddf4116",
                    "mixHash" : "0x7fc873659b400fccaecc3d4446c8f84d51f520a74f9ad6717e70957bafb3f721",
                    "nonce" : "0x55f151f7f7cbd3c8",
                    "number" : "0x01",
                    "parentHash" : "0x813a03e58564185e9a635f602e5f8da3ab602ac12b45b34e03aadbae561a9020",
                    "receiptTrie" : "0xba9991e573821b0c234e361e68d2fe4b0fc940f8380d61fc18ee6ceb963b7094",
                    "stateRoot" : "0xb449a6ccb649d9456d876bdab12ed9d3b1176f23eb28cdbb01e89759d48d0831",
                    "timestamp" : "0x03e8",
                    "transactionsTrie" : "0x14e84a8270ae688d0b6d42f0c0db959fe172f4dbe48b9e44e9b4c3cdad6fd179",
                    "uncleHash" : "0x1dcc4de8dec75d7aab85b567b6ccd41ad312451b948a7413f0a142fd40d49347"
                },
                "rlp" : "0xf9025df901f8a0813a03e58564185e9a635f602e5f8da3ab602ac12b45b34e03aadbae561a9020a01dcc4de8dec75d7aab85b567b6ccd41ad312451b948a7413f0a142fd40d49347942adc25665018aa1fe0e6bc666dac8fc2697ff9baa0b449a6ccb649d9456d876bdab12ed9d3b1176f23eb28cdbb01e89759d48d0831a014e84a8270ae688d0b6d42f0c0db959fe172f4dbe48b9e44e9b4c3cdad6fd179a0ba9991e573821b0c234e361e68d2fe4b0fc940f8380d61fc18ee6ceb963b7094b90100000000000000000000000000000000000000000000000000000000000000000000000000000000000000000000000000000000000000000000000000000000000000000000000000000000000000000000000000000000000000000000000000000000000000000000000000000000000000000000000000000000000000000000000000000000000000000000000000000000000000000000000000000000000000000000000000000000000000000000000000000000000000000000000000000000000000000000000000000000000000000000000000000000000000000000000000000000000000000000000000000000000000000000000000000000008302000001830f424083061a808203e880a07fc873659b400fccaecc3d4446c8f84d51f520a74f9ad6717e70957bafb3f7218855f151f7f7cbd3c8f85ff85d800183061a8080830186a08e6001600160016001e960006000f31ba0b72ed8461da4a34039542bfce0df927c62de0619f57e0510f967f4dc23ae1554a052183f19df7fb0a6d3c77819730b847102043cd4b47a36dbb5d97789039afe5dc0",
                "transactions" : [
                    {
                        "data" : "0x6001600160016001e960006000f3",
                        "gasLimit" : "0x061a80",
                        "gasPrice" : "0x01",
                        "nonce" : "0x00",
                        "r" : "0xb72ed8461da4a34039542bfce0df927c62de0619f57e0510f967f4dc23ae1554",
                        "s" : "0x52183f19df7fb0a6d3c77819730b847102043cd4b47a36dbb5d97789039afe5d",
                        "to" : "",
                        "v" : "0x1b",
                        "value" : "0x0186a0"
                    }
                ],
                "uncleHeaders" : [
                ]
            }
        ],
        "genesisBlockHeader" : {
            "bloom" : "0x00000000000000000000000000000000000000000000000000000000000000000000000000000000000000000000000000000000000000000000000000000000000000000000000000000000000000000000000000000000000000000000000000000000000000000000000000000000000000000000000000000000000000000000000000000000000000000000000000000000000000000000000000000000000000000000000000000000000000000000000000000000000000000000000000000000000000000000000000000000000000000000000000000000000000000000000000000000000000000000000000000000000000000000000000000000",
            "coinbase" : "0x2adc25665018aa1fe0e6bc666dac8fc2697ff9ba",
            "difficulty" : "0x020000",
            "extraData" : "0x42",
            "gasLimit" : "0x0f4240",
            "gasUsed" : "0x00",
            "hash" : "0x813a03e58564185e9a635f602e5f8da3ab602ac12b45b34e03aadbae561a9020",
            "mixHash" : "0x56e81f171bcc55a6ff8345e692c0f86e5b48e01b996cadc001622fb5e363b421",
            "nonce" : "0x0102030405060708",
            "number" : "0x00",
            "parentHash" : "0x0000000000000000000000000000000000000000000000000000000000000000",
            "receiptTrie" : "0x56e81f171bcc55a6ff8345e692c0f86e5b48e01b996cadc001622fb5e363b421",
            "stateRoot" : "0x517f2cdf6adb1a644878c390ffab4e130f1bed4b498ef7ce58c5addd98d61018",
            "timestamp" : "0x03b6",
            "transactionsTrie" : "0x56e81f171bcc55a6ff8345e692c0f86e5b48e01b996cadc001622fb5e363b421",
            "uncleHash" : "0x1dcc4de8dec75d7aab85b567b6ccd41ad312451b948a7413f0a142fd40d49347"
        },
        "genesisRLP" : "0xf901faf901f5a00000000000000000000000000000000000000000000000000000000000000000a01dcc4de8dec75d7aab85b567b6ccd41ad312451b948a7413f0a142fd40d49347942adc25665018aa1fe0e6bc666dac8fc2697ff9baa0517f2cdf6adb1a644878c390ffab4e130f1bed4b498ef7ce58c5addd98d61018a056e81f171bcc55a6ff8345e692c0f86e5b48e01b996cadc001622fb5e363b421a056e81f171bcc55a6ff8345e692c0f86e5b48e01b996cadc001622fb5e363b421b90100000000000000000000000000000000000000000000000000000000000000000000000000000000000000000000000000000000000000000000000000000000000000000000000000000000000000000000000000000000000000000000000000000000000000000000000000000000000000000000000000000000000000000000000000000000000000000000000000000000000000000000000000000000000000000000000000000000000000000000000000000000000000000000000000000000000000000000000000000000000000000000000000000000000000000000000000000000000000000000000000000000000000000000000000000000008302000080830f4240808203b642a056e81f171bcc55a6ff8345e692c0f86e5b48e01b996cadc001622fb5e363b421880102030405060708c0c0",
        "lastblockhash" : "0x75eb4f463f0d83bd5d98ea20ec68cefc6b3d76170440a14162d8da410ddf4116",
        "network" : "Byzantium",
        "postState" : {
            "0x2adc25665018aa1fe0e6bc666dac8fc2697ff9ba" : {
                "balance" : "0x29a2241af6321a80",
                "code" : "",
                "nonce" : "0x00",
                "storage" : {
                }
            },
            "0xa94f5374fce5edbc8e2a8697c15331677e6ebf0b" : {
                "balance" : "0x0de0b6b3a75de580",
                "code" : "",
                "nonce" : "0x01",
                "storage" : {
                }
            }
        },
        "pre" : {
            "0xa94f5374fce5edbc8e2a8697c15331677e6ebf0b" : {
                "balance" : "0x0de0b6b3a7640000",
                "code" : "",
                "nonce" : "0x00",
                "storage" : {
                }
            }
        }
    },
    "badOpcodes_d108g0v0_Constantinople" : {
        "_info" : {
            "comment" : "",
            "filledwith" : "cpp-1.3.0+commit.e577bb2a.Linux.g++",
            "source" : "/ethereum/tests/src/GenStateTestAsBcTemp/stBadOpcode/badOpcodes_d108g0v0Filler.json"
        },
        "blocks" : [
            {
                "blockHeader" : {
                    "bloom" : "0x00000000000000000000000000000000000000000000000000000000000000000000000000000000000000000000000000000000000000000000000000000000000000000000000000000000000000000000000000000000000000000000000000000000000000000000000000000000000000000000000000000000000000000000000000000000000000000000000000000000000000000000000000000000000000000000000000000000000000000000000000000000000000000000000000000000000000000000000000000000000000000000000000000000000000000000000000000000000000000000000000000000000000000000000000000000",
                    "coinbase" : "0x2adc25665018aa1fe0e6bc666dac8fc2697ff9ba",
                    "difficulty" : "0x020000",
                    "extraData" : "",
                    "gasLimit" : "0x0f4240",
                    "gasUsed" : "0x061a80",
                    "hash" : "0xb0ac3fad241b6ffc77f98952ee8d33a0e79f9381fd7dffbc978749356c9b952d",
                    "mixHash" : "0xf8ebb8550d72ae3ea720019ecfb261f37762bd38fccde9860e0e0d343836db48",
                    "nonce" : "0x228bd80ecd1763dd",
                    "number" : "0x01",
                    "parentHash" : "0x813a03e58564185e9a635f602e5f8da3ab602ac12b45b34e03aadbae561a9020",
                    "receiptTrie" : "0xba9991e573821b0c234e361e68d2fe4b0fc940f8380d61fc18ee6ceb963b7094",
                    "stateRoot" : "0x9cef2004332841a309477988c6fa78eab30712ee21261f80a86ca7f02cd7d256",
                    "timestamp" : "0x03e8",
                    "transactionsTrie" : "0x14e84a8270ae688d0b6d42f0c0db959fe172f4dbe48b9e44e9b4c3cdad6fd179",
                    "uncleHash" : "0x1dcc4de8dec75d7aab85b567b6ccd41ad312451b948a7413f0a142fd40d49347"
                },
                "rlp" : "0xf9025df901f8a0813a03e58564185e9a635f602e5f8da3ab602ac12b45b34e03aadbae561a9020a01dcc4de8dec75d7aab85b567b6ccd41ad312451b948a7413f0a142fd40d49347942adc25665018aa1fe0e6bc666dac8fc2697ff9baa09cef2004332841a309477988c6fa78eab30712ee21261f80a86ca7f02cd7d256a014e84a8270ae688d0b6d42f0c0db959fe172f4dbe48b9e44e9b4c3cdad6fd179a0ba9991e573821b0c234e361e68d2fe4b0fc940f8380d61fc18ee6ceb963b7094b90100000000000000000000000000000000000000000000000000000000000000000000000000000000000000000000000000000000000000000000000000000000000000000000000000000000000000000000000000000000000000000000000000000000000000000000000000000000000000000000000000000000000000000000000000000000000000000000000000000000000000000000000000000000000000000000000000000000000000000000000000000000000000000000000000000000000000000000000000000000000000000000000000000000000000000000000000000000000000000000000000000000000000000000000000000000008302000001830f424083061a808203e880a0f8ebb8550d72ae3ea720019ecfb261f37762bd38fccde9860e0e0d343836db4888228bd80ecd1763ddf85ff85d800183061a8080830186a08e6001600160016001e960006000f31ba0b72ed8461da4a34039542bfce0df927c62de0619f57e0510f967f4dc23ae1554a052183f19df7fb0a6d3c77819730b847102043cd4b47a36dbb5d97789039afe5dc0",
                "transactions" : [
                    {
                        "data" : "0x6001600160016001e960006000f3",
                        "gasLimit" : "0x061a80",
                        "gasPrice" : "0x01",
                        "nonce" : "0x00",
                        "r" : "0xb72ed8461da4a34039542bfce0df927c62de0619f57e0510f967f4dc23ae1554",
                        "s" : "0x52183f19df7fb0a6d3c77819730b847102043cd4b47a36dbb5d97789039afe5d",
                        "to" : "",
                        "v" : "0x1b",
                        "value" : "0x0186a0"
                    }
                ],
                "uncleHeaders" : [
                ]
            }
        ],
        "genesisBlockHeader" : {
            "bloom" : "0x00000000000000000000000000000000000000000000000000000000000000000000000000000000000000000000000000000000000000000000000000000000000000000000000000000000000000000000000000000000000000000000000000000000000000000000000000000000000000000000000000000000000000000000000000000000000000000000000000000000000000000000000000000000000000000000000000000000000000000000000000000000000000000000000000000000000000000000000000000000000000000000000000000000000000000000000000000000000000000000000000000000000000000000000000000000",
            "coinbase" : "0x2adc25665018aa1fe0e6bc666dac8fc2697ff9ba",
            "difficulty" : "0x020000",
            "extraData" : "0x42",
            "gasLimit" : "0x0f4240",
            "gasUsed" : "0x00",
            "hash" : "0x813a03e58564185e9a635f602e5f8da3ab602ac12b45b34e03aadbae561a9020",
            "mixHash" : "0x56e81f171bcc55a6ff8345e692c0f86e5b48e01b996cadc001622fb5e363b421",
            "nonce" : "0x0102030405060708",
            "number" : "0x00",
            "parentHash" : "0x0000000000000000000000000000000000000000000000000000000000000000",
            "receiptTrie" : "0x56e81f171bcc55a6ff8345e692c0f86e5b48e01b996cadc001622fb5e363b421",
            "stateRoot" : "0x517f2cdf6adb1a644878c390ffab4e130f1bed4b498ef7ce58c5addd98d61018",
            "timestamp" : "0x03b6",
            "transactionsTrie" : "0x56e81f171bcc55a6ff8345e692c0f86e5b48e01b996cadc001622fb5e363b421",
            "uncleHash" : "0x1dcc4de8dec75d7aab85b567b6ccd41ad312451b948a7413f0a142fd40d49347"
        },
        "genesisRLP" : "0xf901faf901f5a00000000000000000000000000000000000000000000000000000000000000000a01dcc4de8dec75d7aab85b567b6ccd41ad312451b948a7413f0a142fd40d49347942adc25665018aa1fe0e6bc666dac8fc2697ff9baa0517f2cdf6adb1a644878c390ffab4e130f1bed4b498ef7ce58c5addd98d61018a056e81f171bcc55a6ff8345e692c0f86e5b48e01b996cadc001622fb5e363b421a056e81f171bcc55a6ff8345e692c0f86e5b48e01b996cadc001622fb5e363b421b90100000000000000000000000000000000000000000000000000000000000000000000000000000000000000000000000000000000000000000000000000000000000000000000000000000000000000000000000000000000000000000000000000000000000000000000000000000000000000000000000000000000000000000000000000000000000000000000000000000000000000000000000000000000000000000000000000000000000000000000000000000000000000000000000000000000000000000000000000000000000000000000000000000000000000000000000000000000000000000000000000000000000000000000000000000000008302000080830f4240808203b642a056e81f171bcc55a6ff8345e692c0f86e5b48e01b996cadc001622fb5e363b421880102030405060708c0c0",
        "lastblockhash" : "0xb0ac3fad241b6ffc77f98952ee8d33a0e79f9381fd7dffbc978749356c9b952d",
        "network" : "Constantinople",
        "postState" : {
            "0x00000000000000000000000000000000000000f0" : {
                "balance" : "0x00",
                "code" : "",
                "nonce" : "0x00",
                "storage" : {
                }
            },
            "0x2adc25665018aa1fe0e6bc666dac8fc2697ff9ba" : {
                "balance" : "0x29a2241af6321a80",
                "code" : "",
                "nonce" : "0x00",
                "storage" : {
                }
            },
            "0xa94f5374fce5edbc8e2a8697c15331677e6ebf0b" : {
                "balance" : "0x0de0b6b3a75de580",
                "code" : "",
                "nonce" : "0x01",
                "storage" : {
                }
            }
        },
        "pre" : {
            "0xa94f5374fce5edbc8e2a8697c15331677e6ebf0b" : {
                "balance" : "0x0de0b6b3a7640000",
                "code" : "",
                "nonce" : "0x00",
                "storage" : {
                }
            }
        }
    },
    "badOpcodes_d108g0v0_EIP150" : {
        "_info" : {
            "comment" : "",
            "filledwith" : "cpp-1.3.0+commit.e577bb2a.Linux.g++",
            "source" : "/ethereum/tests/src/GenStateTestAsBcTemp/stBadOpcode/badOpcodes_d108g0v0Filler.json"
        },
        "blocks" : [
            {
                "blockHeader" : {
                    "bloom" : "0x00000000000000000000000000000000000000000000000000000000000000000000000000000000000000000000000000000000000000000000000000000000000000000000000000000000000000000000000000000000000000000000000000000000000000000000000000000000000000000000000000000000000000000000000000000000000000000000000000000000000000000000000000000000000000000000000000000000000000000000000000000000000000000000000000000000000000000000000000000000000000000000000000000000000000000000000000000000000000000000000000000000000000000000000000000000",
                    "coinbase" : "0x2adc25665018aa1fe0e6bc666dac8fc2697ff9ba",
                    "difficulty" : "0x020000",
                    "extraData" : "",
                    "gasLimit" : "0x0f4240",
                    "gasUsed" : "0x061a80",
                    "hash" : "0xc7dc325048a7c3115f9c33cb08625b6f3342552764826da737250385ce1f82d6",
                    "mixHash" : "0xc285b4f26ddcf51844cc5c9eaef1632efa92ff40c868605f6a623710dbd00e0c",
                    "nonce" : "0xf1bcf5e2e61290e1",
                    "number" : "0x01",
                    "parentHash" : "0x813a03e58564185e9a635f602e5f8da3ab602ac12b45b34e03aadbae561a9020",
                    "receiptTrie" : "0x54d1949a938a3648c080eee5c088a7d39c94d0bdb0285074e7b75ab6f7c98da1",
                    "stateRoot" : "0x6428b3140b024b4d06e9aea099f8584f0810b877e2225af4ec95fddc8e4d38ee",
                    "timestamp" : "0x03e8",
                    "transactionsTrie" : "0x14e84a8270ae688d0b6d42f0c0db959fe172f4dbe48b9e44e9b4c3cdad6fd179",
                    "uncleHash" : "0x1dcc4de8dec75d7aab85b567b6ccd41ad312451b948a7413f0a142fd40d49347"
                },
                "rlp" : "0xf9025df901f8a0813a03e58564185e9a635f602e5f8da3ab602ac12b45b34e03aadbae561a9020a01dcc4de8dec75d7aab85b567b6ccd41ad312451b948a7413f0a142fd40d49347942adc25665018aa1fe0e6bc666dac8fc2697ff9baa06428b3140b024b4d06e9aea099f8584f0810b877e2225af4ec95fddc8e4d38eea014e84a8270ae688d0b6d42f0c0db959fe172f4dbe48b9e44e9b4c3cdad6fd179a054d1949a938a3648c080eee5c088a7d39c94d0bdb0285074e7b75ab6f7c98da1b90100000000000000000000000000000000000000000000000000000000000000000000000000000000000000000000000000000000000000000000000000000000000000000000000000000000000000000000000000000000000000000000000000000000000000000000000000000000000000000000000000000000000000000000000000000000000000000000000000000000000000000000000000000000000000000000000000000000000000000000000000000000000000000000000000000000000000000000000000000000000000000000000000000000000000000000000000000000000000000000000000000000000000000000000000000000008302000001830f424083061a808203e880a0c285b4f26ddcf51844cc5c9eaef1632efa92ff40c868605f6a623710dbd00e0c88f1bcf5e2e61290e1f85ff85d800183061a8080830186a08e6001600160016001e960006000f31ba0b72ed8461da4a34039542bfce0df927c62de0619f57e0510f967f4dc23ae1554a052183f19df7fb0a6d3c77819730b847102043cd4b47a36dbb5d97789039afe5dc0",
                "transactions" : [
                    {
                        "data" : "0x6001600160016001e960006000f3",
                        "gasLimit" : "0x061a80",
                        "gasPrice" : "0x01",
                        "nonce" : "0x00",
                        "r" : "0xb72ed8461da4a34039542bfce0df927c62de0619f57e0510f967f4dc23ae1554",
                        "s" : "0x52183f19df7fb0a6d3c77819730b847102043cd4b47a36dbb5d97789039afe5d",
                        "to" : "",
                        "v" : "0x1b",
                        "value" : "0x0186a0"
                    }
                ],
                "uncleHeaders" : [
                ]
            }
        ],
        "genesisBlockHeader" : {
            "bloom" : "0x00000000000000000000000000000000000000000000000000000000000000000000000000000000000000000000000000000000000000000000000000000000000000000000000000000000000000000000000000000000000000000000000000000000000000000000000000000000000000000000000000000000000000000000000000000000000000000000000000000000000000000000000000000000000000000000000000000000000000000000000000000000000000000000000000000000000000000000000000000000000000000000000000000000000000000000000000000000000000000000000000000000000000000000000000000000",
            "coinbase" : "0x2adc25665018aa1fe0e6bc666dac8fc2697ff9ba",
            "difficulty" : "0x020000",
            "extraData" : "0x42",
            "gasLimit" : "0x0f4240",
            "gasUsed" : "0x00",
            "hash" : "0x813a03e58564185e9a635f602e5f8da3ab602ac12b45b34e03aadbae561a9020",
            "mixHash" : "0x56e81f171bcc55a6ff8345e692c0f86e5b48e01b996cadc001622fb5e363b421",
            "nonce" : "0x0102030405060708",
            "number" : "0x00",
            "parentHash" : "0x0000000000000000000000000000000000000000000000000000000000000000",
            "receiptTrie" : "0x56e81f171bcc55a6ff8345e692c0f86e5b48e01b996cadc001622fb5e363b421",
            "stateRoot" : "0x517f2cdf6adb1a644878c390ffab4e130f1bed4b498ef7ce58c5addd98d61018",
            "timestamp" : "0x03b6",
            "transactionsTrie" : "0x56e81f171bcc55a6ff8345e692c0f86e5b48e01b996cadc001622fb5e363b421",
            "uncleHash" : "0x1dcc4de8dec75d7aab85b567b6ccd41ad312451b948a7413f0a142fd40d49347"
        },
        "genesisRLP" : "0xf901faf901f5a00000000000000000000000000000000000000000000000000000000000000000a01dcc4de8dec75d7aab85b567b6ccd41ad312451b948a7413f0a142fd40d49347942adc25665018aa1fe0e6bc666dac8fc2697ff9baa0517f2cdf6adb1a644878c390ffab4e130f1bed4b498ef7ce58c5addd98d61018a056e81f171bcc55a6ff8345e692c0f86e5b48e01b996cadc001622fb5e363b421a056e81f171bcc55a6ff8345e692c0f86e5b48e01b996cadc001622fb5e363b421b90100000000000000000000000000000000000000000000000000000000000000000000000000000000000000000000000000000000000000000000000000000000000000000000000000000000000000000000000000000000000000000000000000000000000000000000000000000000000000000000000000000000000000000000000000000000000000000000000000000000000000000000000000000000000000000000000000000000000000000000000000000000000000000000000000000000000000000000000000000000000000000000000000000000000000000000000000000000000000000000000000000000000000000000000000000000008302000080830f4240808203b642a056e81f171bcc55a6ff8345e692c0f86e5b48e01b996cadc001622fb5e363b421880102030405060708c0c0",
        "lastblockhash" : "0xc7dc325048a7c3115f9c33cb08625b6f3342552764826da737250385ce1f82d6",
        "network" : "EIP150",
        "postState" : {
            "0x2adc25665018aa1fe0e6bc666dac8fc2697ff9ba" : {
                "balance" : "0x4563918244fa1a80",
                "code" : "",
                "nonce" : "0x00",
                "storage" : {
                }
            },
            "0xa94f5374fce5edbc8e2a8697c15331677e6ebf0b" : {
                "balance" : "0x0de0b6b3a75de580",
                "code" : "",
                "nonce" : "0x01",
                "storage" : {
                }
            }
        },
        "pre" : {
            "0xa94f5374fce5edbc8e2a8697c15331677e6ebf0b" : {
                "balance" : "0x0de0b6b3a7640000",
                "code" : "",
                "nonce" : "0x00",
                "storage" : {
                }
            }
        }
    },
    "badOpcodes_d108g0v0_EIP158" : {
        "_info" : {
            "comment" : "",
            "filledwith" : "cpp-1.3.0+commit.e577bb2a.Linux.g++",
            "source" : "/ethereum/tests/src/GenStateTestAsBcTemp/stBadOpcode/badOpcodes_d108g0v0Filler.json"
        },
        "blocks" : [
            {
                "blockHeader" : {
                    "bloom" : "0x00000000000000000000000000000000000000000000000000000000000000000000000000000000000000000000000000000000000000000000000000000000000000000000000000000000000000000000000000000000000000000000000000000000000000000000000000000000000000000000000000000000000000000000000000000000000000000000000000000000000000000000000000000000000000000000000000000000000000000000000000000000000000000000000000000000000000000000000000000000000000000000000000000000000000000000000000000000000000000000000000000000000000000000000000000000",
                    "coinbase" : "0x2adc25665018aa1fe0e6bc666dac8fc2697ff9ba",
                    "difficulty" : "0x020000",
                    "extraData" : "",
                    "gasLimit" : "0x0f4240",
                    "gasUsed" : "0x061a80",
                    "hash" : "0x4c53b217c1f980aa6ef0251fdb5638867932963e982e273f9f5dab629a758588",
                    "mixHash" : "0x31f4436df9edbffca3cef5af6d17518d3484c66765383a3f8f7f52b2fb37b531",
                    "nonce" : "0xb08b7cfed8bc782e",
                    "number" : "0x01",
                    "parentHash" : "0x813a03e58564185e9a635f602e5f8da3ab602ac12b45b34e03aadbae561a9020",
                    "receiptTrie" : "0x54d1949a938a3648c080eee5c088a7d39c94d0bdb0285074e7b75ab6f7c98da1",
                    "stateRoot" : "0x6428b3140b024b4d06e9aea099f8584f0810b877e2225af4ec95fddc8e4d38ee",
                    "timestamp" : "0x03e8",
                    "transactionsTrie" : "0x14e84a8270ae688d0b6d42f0c0db959fe172f4dbe48b9e44e9b4c3cdad6fd179",
                    "uncleHash" : "0x1dcc4de8dec75d7aab85b567b6ccd41ad312451b948a7413f0a142fd40d49347"
                },
                "rlp" : "0xf9025df901f8a0813a03e58564185e9a635f602e5f8da3ab602ac12b45b34e03aadbae561a9020a01dcc4de8dec75d7aab85b567b6ccd41ad312451b948a7413f0a142fd40d49347942adc25665018aa1fe0e6bc666dac8fc2697ff9baa06428b3140b024b4d06e9aea099f8584f0810b877e2225af4ec95fddc8e4d38eea014e84a8270ae688d0b6d42f0c0db959fe172f4dbe48b9e44e9b4c3cdad6fd179a054d1949a938a3648c080eee5c088a7d39c94d0bdb0285074e7b75ab6f7c98da1b90100000000000000000000000000000000000000000000000000000000000000000000000000000000000000000000000000000000000000000000000000000000000000000000000000000000000000000000000000000000000000000000000000000000000000000000000000000000000000000000000000000000000000000000000000000000000000000000000000000000000000000000000000000000000000000000000000000000000000000000000000000000000000000000000000000000000000000000000000000000000000000000000000000000000000000000000000000000000000000000000000000000000000000000000000000000008302000001830f424083061a808203e880a031f4436df9edbffca3cef5af6d17518d3484c66765383a3f8f7f52b2fb37b53188b08b7cfed8bc782ef85ff85d800183061a8080830186a08e6001600160016001e960006000f31ba0b72ed8461da4a34039542bfce0df927c62de0619f57e0510f967f4dc23ae1554a052183f19df7fb0a6d3c77819730b847102043cd4b47a36dbb5d97789039afe5dc0",
                "transactions" : [
                    {
                        "data" : "0x6001600160016001e960006000f3",
                        "gasLimit" : "0x061a80",
                        "gasPrice" : "0x01",
                        "nonce" : "0x00",
                        "r" : "0xb72ed8461da4a34039542bfce0df927c62de0619f57e0510f967f4dc23ae1554",
                        "s" : "0x52183f19df7fb0a6d3c77819730b847102043cd4b47a36dbb5d97789039afe5d",
                        "to" : "",
                        "v" : "0x1b",
                        "value" : "0x0186a0"
                    }
                ],
                "uncleHeaders" : [
                ]
            }
        ],
        "genesisBlockHeader" : {
            "bloom" : "0x00000000000000000000000000000000000000000000000000000000000000000000000000000000000000000000000000000000000000000000000000000000000000000000000000000000000000000000000000000000000000000000000000000000000000000000000000000000000000000000000000000000000000000000000000000000000000000000000000000000000000000000000000000000000000000000000000000000000000000000000000000000000000000000000000000000000000000000000000000000000000000000000000000000000000000000000000000000000000000000000000000000000000000000000000000000",
            "coinbase" : "0x2adc25665018aa1fe0e6bc666dac8fc2697ff9ba",
            "difficulty" : "0x020000",
            "extraData" : "0x42",
            "gasLimit" : "0x0f4240",
            "gasUsed" : "0x00",
            "hash" : "0x813a03e58564185e9a635f602e5f8da3ab602ac12b45b34e03aadbae561a9020",
            "mixHash" : "0x56e81f171bcc55a6ff8345e692c0f86e5b48e01b996cadc001622fb5e363b421",
            "nonce" : "0x0102030405060708",
            "number" : "0x00",
            "parentHash" : "0x0000000000000000000000000000000000000000000000000000000000000000",
            "receiptTrie" : "0x56e81f171bcc55a6ff8345e692c0f86e5b48e01b996cadc001622fb5e363b421",
            "stateRoot" : "0x517f2cdf6adb1a644878c390ffab4e130f1bed4b498ef7ce58c5addd98d61018",
            "timestamp" : "0x03b6",
            "transactionsTrie" : "0x56e81f171bcc55a6ff8345e692c0f86e5b48e01b996cadc001622fb5e363b421",
            "uncleHash" : "0x1dcc4de8dec75d7aab85b567b6ccd41ad312451b948a7413f0a142fd40d49347"
        },
        "genesisRLP" : "0xf901faf901f5a00000000000000000000000000000000000000000000000000000000000000000a01dcc4de8dec75d7aab85b567b6ccd41ad312451b948a7413f0a142fd40d49347942adc25665018aa1fe0e6bc666dac8fc2697ff9baa0517f2cdf6adb1a644878c390ffab4e130f1bed4b498ef7ce58c5addd98d61018a056e81f171bcc55a6ff8345e692c0f86e5b48e01b996cadc001622fb5e363b421a056e81f171bcc55a6ff8345e692c0f86e5b48e01b996cadc001622fb5e363b421b90100000000000000000000000000000000000000000000000000000000000000000000000000000000000000000000000000000000000000000000000000000000000000000000000000000000000000000000000000000000000000000000000000000000000000000000000000000000000000000000000000000000000000000000000000000000000000000000000000000000000000000000000000000000000000000000000000000000000000000000000000000000000000000000000000000000000000000000000000000000000000000000000000000000000000000000000000000000000000000000000000000000000000000000000000000000008302000080830f4240808203b642a056e81f171bcc55a6ff8345e692c0f86e5b48e01b996cadc001622fb5e363b421880102030405060708c0c0",
        "lastblockhash" : "0x4c53b217c1f980aa6ef0251fdb5638867932963e982e273f9f5dab629a758588",
        "network" : "EIP158",
        "postState" : {
            "0x2adc25665018aa1fe0e6bc666dac8fc2697ff9ba" : {
                "balance" : "0x4563918244fa1a80",
                "code" : "",
                "nonce" : "0x00",
                "storage" : {
                }
            },
            "0xa94f5374fce5edbc8e2a8697c15331677e6ebf0b" : {
                "balance" : "0x0de0b6b3a75de580",
                "code" : "",
                "nonce" : "0x01",
                "storage" : {
                }
            }
        },
        "pre" : {
            "0xa94f5374fce5edbc8e2a8697c15331677e6ebf0b" : {
                "balance" : "0x0de0b6b3a7640000",
                "code" : "",
                "nonce" : "0x00",
                "storage" : {
                }
            }
        }
    },
    "badOpcodes_d108g0v0_Frontier" : {
        "_info" : {
            "comment" : "",
            "filledwith" : "cpp-1.3.0+commit.e577bb2a.Linux.g++",
            "source" : "/ethereum/tests/src/GenStateTestAsBcTemp/stBadOpcode/badOpcodes_d108g0v0Filler.json"
        },
        "blocks" : [
            {
                "blockHeader" : {
                    "bloom" : "0x00000000000000000000000000000000000000000000000000000000000000000000000000000000000000000000000000000000000000000000000000000000000000000000000000000000000000000000000000000000000000000000000000000000000000000000000000000000000000000000000000000000000000000000000000000000000000000000000000000000000000000000000000000000000000000000000000000000000000000000000000000000000000000000000000000000000000000000000000000000000000000000000000000000000000000000000000000000000000000000000000000000000000000000000000000000",
                    "coinbase" : "0x2adc25665018aa1fe0e6bc666dac8fc2697ff9ba",
                    "difficulty" : "0x020000",
                    "extraData" : "",
                    "gasLimit" : "0x0f4240",
                    "gasUsed" : "0x061a80",
                    "hash" : "0xa83e11f400f3e122b22582bc4fbeef1ebf7fc8397a8575cfb720715dba973f40",
                    "mixHash" : "0x112580107b1e93959aebfbe38e30680e7f7ff6e37a59be2bf8ebcdfb63afa352",
                    "nonce" : "0x4711f12e967c0933",
                    "number" : "0x01",
                    "parentHash" : "0x813a03e58564185e9a635f602e5f8da3ab602ac12b45b34e03aadbae561a9020",
                    "receiptTrie" : "0x54d1949a938a3648c080eee5c088a7d39c94d0bdb0285074e7b75ab6f7c98da1",
                    "stateRoot" : "0x6428b3140b024b4d06e9aea099f8584f0810b877e2225af4ec95fddc8e4d38ee",
                    "timestamp" : "0x03e8",
                    "transactionsTrie" : "0x14e84a8270ae688d0b6d42f0c0db959fe172f4dbe48b9e44e9b4c3cdad6fd179",
                    "uncleHash" : "0x1dcc4de8dec75d7aab85b567b6ccd41ad312451b948a7413f0a142fd40d49347"
                },
                "rlp" : "0xf9025df901f8a0813a03e58564185e9a635f602e5f8da3ab602ac12b45b34e03aadbae561a9020a01dcc4de8dec75d7aab85b567b6ccd41ad312451b948a7413f0a142fd40d49347942adc25665018aa1fe0e6bc666dac8fc2697ff9baa06428b3140b024b4d06e9aea099f8584f0810b877e2225af4ec95fddc8e4d38eea014e84a8270ae688d0b6d42f0c0db959fe172f4dbe48b9e44e9b4c3cdad6fd179a054d1949a938a3648c080eee5c088a7d39c94d0bdb0285074e7b75ab6f7c98da1b90100000000000000000000000000000000000000000000000000000000000000000000000000000000000000000000000000000000000000000000000000000000000000000000000000000000000000000000000000000000000000000000000000000000000000000000000000000000000000000000000000000000000000000000000000000000000000000000000000000000000000000000000000000000000000000000000000000000000000000000000000000000000000000000000000000000000000000000000000000000000000000000000000000000000000000000000000000000000000000000000000000000000000000000000000000000008302000001830f424083061a808203e880a0112580107b1e93959aebfbe38e30680e7f7ff6e37a59be2bf8ebcdfb63afa352884711f12e967c0933f85ff85d800183061a8080830186a08e6001600160016001e960006000f31ba0b72ed8461da4a34039542bfce0df927c62de0619f57e0510f967f4dc23ae1554a052183f19df7fb0a6d3c77819730b847102043cd4b47a36dbb5d97789039afe5dc0",
                "transactions" : [
                    {
                        "data" : "0x6001600160016001e960006000f3",
                        "gasLimit" : "0x061a80",
                        "gasPrice" : "0x01",
                        "nonce" : "0x00",
                        "r" : "0xb72ed8461da4a34039542bfce0df927c62de0619f57e0510f967f4dc23ae1554",
                        "s" : "0x52183f19df7fb0a6d3c77819730b847102043cd4b47a36dbb5d97789039afe5d",
                        "to" : "",
                        "v" : "0x1b",
                        "value" : "0x0186a0"
                    }
                ],
                "uncleHeaders" : [
                ]
            }
        ],
        "genesisBlockHeader" : {
            "bloom" : "0x00000000000000000000000000000000000000000000000000000000000000000000000000000000000000000000000000000000000000000000000000000000000000000000000000000000000000000000000000000000000000000000000000000000000000000000000000000000000000000000000000000000000000000000000000000000000000000000000000000000000000000000000000000000000000000000000000000000000000000000000000000000000000000000000000000000000000000000000000000000000000000000000000000000000000000000000000000000000000000000000000000000000000000000000000000000",
            "coinbase" : "0x2adc25665018aa1fe0e6bc666dac8fc2697ff9ba",
            "difficulty" : "0x020000",
            "extraData" : "0x42",
            "gasLimit" : "0x0f4240",
            "gasUsed" : "0x00",
            "hash" : "0x813a03e58564185e9a635f602e5f8da3ab602ac12b45b34e03aadbae561a9020",
            "mixHash" : "0x56e81f171bcc55a6ff8345e692c0f86e5b48e01b996cadc001622fb5e363b421",
            "nonce" : "0x0102030405060708",
            "number" : "0x00",
            "parentHash" : "0x0000000000000000000000000000000000000000000000000000000000000000",
            "receiptTrie" : "0x56e81f171bcc55a6ff8345e692c0f86e5b48e01b996cadc001622fb5e363b421",
            "stateRoot" : "0x517f2cdf6adb1a644878c390ffab4e130f1bed4b498ef7ce58c5addd98d61018",
            "timestamp" : "0x03b6",
            "transactionsTrie" : "0x56e81f171bcc55a6ff8345e692c0f86e5b48e01b996cadc001622fb5e363b421",
            "uncleHash" : "0x1dcc4de8dec75d7aab85b567b6ccd41ad312451b948a7413f0a142fd40d49347"
        },
        "genesisRLP" : "0xf901faf901f5a00000000000000000000000000000000000000000000000000000000000000000a01dcc4de8dec75d7aab85b567b6ccd41ad312451b948a7413f0a142fd40d49347942adc25665018aa1fe0e6bc666dac8fc2697ff9baa0517f2cdf6adb1a644878c390ffab4e130f1bed4b498ef7ce58c5addd98d61018a056e81f171bcc55a6ff8345e692c0f86e5b48e01b996cadc001622fb5e363b421a056e81f171bcc55a6ff8345e692c0f86e5b48e01b996cadc001622fb5e363b421b90100000000000000000000000000000000000000000000000000000000000000000000000000000000000000000000000000000000000000000000000000000000000000000000000000000000000000000000000000000000000000000000000000000000000000000000000000000000000000000000000000000000000000000000000000000000000000000000000000000000000000000000000000000000000000000000000000000000000000000000000000000000000000000000000000000000000000000000000000000000000000000000000000000000000000000000000000000000000000000000000000000000000000000000000000000000008302000080830f4240808203b642a056e81f171bcc55a6ff8345e692c0f86e5b48e01b996cadc001622fb5e363b421880102030405060708c0c0",
        "lastblockhash" : "0xa83e11f400f3e122b22582bc4fbeef1ebf7fc8397a8575cfb720715dba973f40",
        "network" : "Frontier",
        "postState" : {
            "0x2adc25665018aa1fe0e6bc666dac8fc2697ff9ba" : {
                "balance" : "0x4563918244fa1a80",
                "code" : "",
                "nonce" : "0x00",
                "storage" : {
                }
            },
            "0xa94f5374fce5edbc8e2a8697c15331677e6ebf0b" : {
                "balance" : "0x0de0b6b3a75de580",
                "code" : "",
                "nonce" : "0x01",
                "storage" : {
                }
            }
        },
        "pre" : {
            "0xa94f5374fce5edbc8e2a8697c15331677e6ebf0b" : {
                "balance" : "0x0de0b6b3a7640000",
                "code" : "",
                "nonce" : "0x00",
                "storage" : {
                }
            }
        }
    },
    "badOpcodes_d108g0v0_Homestead" : {
        "_info" : {
            "comment" : "",
            "filledwith" : "cpp-1.3.0+commit.e577bb2a.Linux.g++",
            "source" : "/ethereum/tests/src/GenStateTestAsBcTemp/stBadOpcode/badOpcodes_d108g0v0Filler.json"
        },
        "blocks" : [
            {
                "blockHeader" : {
                    "bloom" : "0x00000000000000000000000000000000000000000000000000000000000000000000000000000000000000000000000000000000000000000000000000000000000000000000000000000000000000000000000000000000000000000000000000000000000000000000000000000000000000000000000000000000000000000000000000000000000000000000000000000000000000000000000000000000000000000000000000000000000000000000000000000000000000000000000000000000000000000000000000000000000000000000000000000000000000000000000000000000000000000000000000000000000000000000000000000000",
                    "coinbase" : "0x2adc25665018aa1fe0e6bc666dac8fc2697ff9ba",
                    "difficulty" : "0x020000",
                    "extraData" : "",
                    "gasLimit" : "0x0f4240",
                    "gasUsed" : "0x061a80",
                    "hash" : "0xe3ba5848162f264f345a3344b9c2b06566ac962e4a1deab31b14aadf57b372e2",
                    "mixHash" : "0x1b44533f03ee19644ba2ef79b82a9acffb8f4ae3af7e1575f097297abd1b04d2",
                    "nonce" : "0x81d8cf0e39e37415",
                    "number" : "0x01",
                    "parentHash" : "0x813a03e58564185e9a635f602e5f8da3ab602ac12b45b34e03aadbae561a9020",
                    "receiptTrie" : "0x54d1949a938a3648c080eee5c088a7d39c94d0bdb0285074e7b75ab6f7c98da1",
                    "stateRoot" : "0x6428b3140b024b4d06e9aea099f8584f0810b877e2225af4ec95fddc8e4d38ee",
                    "timestamp" : "0x03e8",
                    "transactionsTrie" : "0x14e84a8270ae688d0b6d42f0c0db959fe172f4dbe48b9e44e9b4c3cdad6fd179",
                    "uncleHash" : "0x1dcc4de8dec75d7aab85b567b6ccd41ad312451b948a7413f0a142fd40d49347"
                },
                "rlp" : "0xf9025df901f8a0813a03e58564185e9a635f602e5f8da3ab602ac12b45b34e03aadbae561a9020a01dcc4de8dec75d7aab85b567b6ccd41ad312451b948a7413f0a142fd40d49347942adc25665018aa1fe0e6bc666dac8fc2697ff9baa06428b3140b024b4d06e9aea099f8584f0810b877e2225af4ec95fddc8e4d38eea014e84a8270ae688d0b6d42f0c0db959fe172f4dbe48b9e44e9b4c3cdad6fd179a054d1949a938a3648c080eee5c088a7d39c94d0bdb0285074e7b75ab6f7c98da1b90100000000000000000000000000000000000000000000000000000000000000000000000000000000000000000000000000000000000000000000000000000000000000000000000000000000000000000000000000000000000000000000000000000000000000000000000000000000000000000000000000000000000000000000000000000000000000000000000000000000000000000000000000000000000000000000000000000000000000000000000000000000000000000000000000000000000000000000000000000000000000000000000000000000000000000000000000000000000000000000000000000000000000000000000000000000008302000001830f424083061a808203e880a01b44533f03ee19644ba2ef79b82a9acffb8f4ae3af7e1575f097297abd1b04d28881d8cf0e39e37415f85ff85d800183061a8080830186a08e6001600160016001e960006000f31ba0b72ed8461da4a34039542bfce0df927c62de0619f57e0510f967f4dc23ae1554a052183f19df7fb0a6d3c77819730b847102043cd4b47a36dbb5d97789039afe5dc0",
                "transactions" : [
                    {
                        "data" : "0x6001600160016001e960006000f3",
                        "gasLimit" : "0x061a80",
                        "gasPrice" : "0x01",
                        "nonce" : "0x00",
                        "r" : "0xb72ed8461da4a34039542bfce0df927c62de0619f57e0510f967f4dc23ae1554",
                        "s" : "0x52183f19df7fb0a6d3c77819730b847102043cd4b47a36dbb5d97789039afe5d",
                        "to" : "",
                        "v" : "0x1b",
                        "value" : "0x0186a0"
                    }
                ],
                "uncleHeaders" : [
                ]
            }
        ],
        "genesisBlockHeader" : {
            "bloom" : "0x00000000000000000000000000000000000000000000000000000000000000000000000000000000000000000000000000000000000000000000000000000000000000000000000000000000000000000000000000000000000000000000000000000000000000000000000000000000000000000000000000000000000000000000000000000000000000000000000000000000000000000000000000000000000000000000000000000000000000000000000000000000000000000000000000000000000000000000000000000000000000000000000000000000000000000000000000000000000000000000000000000000000000000000000000000000",
            "coinbase" : "0x2adc25665018aa1fe0e6bc666dac8fc2697ff9ba",
            "difficulty" : "0x020000",
            "extraData" : "0x42",
            "gasLimit" : "0x0f4240",
            "gasUsed" : "0x00",
            "hash" : "0x813a03e58564185e9a635f602e5f8da3ab602ac12b45b34e03aadbae561a9020",
            "mixHash" : "0x56e81f171bcc55a6ff8345e692c0f86e5b48e01b996cadc001622fb5e363b421",
            "nonce" : "0x0102030405060708",
            "number" : "0x00",
            "parentHash" : "0x0000000000000000000000000000000000000000000000000000000000000000",
            "receiptTrie" : "0x56e81f171bcc55a6ff8345e692c0f86e5b48e01b996cadc001622fb5e363b421",
            "stateRoot" : "0x517f2cdf6adb1a644878c390ffab4e130f1bed4b498ef7ce58c5addd98d61018",
            "timestamp" : "0x03b6",
            "transactionsTrie" : "0x56e81f171bcc55a6ff8345e692c0f86e5b48e01b996cadc001622fb5e363b421",
            "uncleHash" : "0x1dcc4de8dec75d7aab85b567b6ccd41ad312451b948a7413f0a142fd40d49347"
        },
        "genesisRLP" : "0xf901faf901f5a00000000000000000000000000000000000000000000000000000000000000000a01dcc4de8dec75d7aab85b567b6ccd41ad312451b948a7413f0a142fd40d49347942adc25665018aa1fe0e6bc666dac8fc2697ff9baa0517f2cdf6adb1a644878c390ffab4e130f1bed4b498ef7ce58c5addd98d61018a056e81f171bcc55a6ff8345e692c0f86e5b48e01b996cadc001622fb5e363b421a056e81f171bcc55a6ff8345e692c0f86e5b48e01b996cadc001622fb5e363b421b90100000000000000000000000000000000000000000000000000000000000000000000000000000000000000000000000000000000000000000000000000000000000000000000000000000000000000000000000000000000000000000000000000000000000000000000000000000000000000000000000000000000000000000000000000000000000000000000000000000000000000000000000000000000000000000000000000000000000000000000000000000000000000000000000000000000000000000000000000000000000000000000000000000000000000000000000000000000000000000000000000000000000000000000000000000000008302000080830f4240808203b642a056e81f171bcc55a6ff8345e692c0f86e5b48e01b996cadc001622fb5e363b421880102030405060708c0c0",
        "lastblockhash" : "0xe3ba5848162f264f345a3344b9c2b06566ac962e4a1deab31b14aadf57b372e2",
        "network" : "Homestead",
        "postState" : {
            "0x2adc25665018aa1fe0e6bc666dac8fc2697ff9ba" : {
                "balance" : "0x4563918244fa1a80",
                "code" : "",
                "nonce" : "0x00",
                "storage" : {
                }
            },
            "0xa94f5374fce5edbc8e2a8697c15331677e6ebf0b" : {
                "balance" : "0x0de0b6b3a75de580",
                "code" : "",
                "nonce" : "0x01",
                "storage" : {
                }
            }
        },
        "pre" : {
            "0xa94f5374fce5edbc8e2a8697c15331677e6ebf0b" : {
                "balance" : "0x0de0b6b3a7640000",
                "code" : "",
                "nonce" : "0x00",
                "storage" : {
                }
            }
        }
    }
}