{
    "badOpcodes_d33g0v0_Byzantium" : {
        "_info" : {
            "comment" : "",
            "filledwith" : "cpp-1.3.0+commit.82b0643a.Linux.g++",
            "lllcversion" : "Version: 0.4.20-develop.2018.1.8+commit.2548228b.Linux.g++",
            "source" : "src/BlockchainTestsFiller/GeneralStateTests/stBadOpcode/badOpcodes_d33g0v0Filler.json",
            "sourceHash" : "f988baeabd90f72fa8f4d3ee3c78a8d070b908501471c3222a57a19b049fbd63"
        },
        "blocks" : [
            {
                "blockHeader" : {
                    "bloom" : "0x00000000000000000000000000000000000000000000000000000000000000000000000000000000000000000000000000000000000000000000000000000000000000000000000000000000000000000000000000000000000000000000000000000000000000000000000000000000000000000000000000000000000000000000000000000000000000000000000000000000000000000000000000000000000000000000000000000000000000000000000000000000000000000000000000000000000000000000000000000000000000000000000000000000000000000000000000000000000000000000000000000000000000000000000000000000",
                    "coinbase" : "0x2adc25665018aa1fe0e6bc666dac8fc2697ff9ba",
                    "difficulty" : "0x020000",
                    "extraData" : "",
                    "gasLimit" : "0x0f4240",
                    "gasUsed" : "0x061a80",
                    "hash" : "0x3939f36c4f72ff60bffbd70c06e56766593ef6872410a0611716fb369d6b2c6f",
                    "mixHash" : "0x559289df111e80d907b03c017f4bd2b96f5315ad18ff476c1fc4be2fb16ced1d",
                    "nonce" : "0x6d61102da2623c4f",
                    "number" : "0x01",
                    "parentHash" : "0x813a03e58564185e9a635f602e5f8da3ab602ac12b45b34e03aadbae561a9020",
                    "receiptTrie" : "0xba9991e573821b0c234e361e68d2fe4b0fc940f8380d61fc18ee6ceb963b7094",
                    "stateRoot" : "0xb449a6ccb649d9456d876bdab12ed9d3b1176f23eb28cdbb01e89759d48d0831",
                    "timestamp" : "0x03e8",
                    "transactionsTrie" : "0x496a26c7e8310061f5c96f8d11edb7b039044e973c4b71cd11e3b450c2015b4d",
                    "uncleHash" : "0x1dcc4de8dec75d7aab85b567b6ccd41ad312451b948a7413f0a142fd40d49347"
                },
                "rlp" : "0xf90265f901f8a0813a03e58564185e9a635f602e5f8da3ab602ac12b45b34e03aadbae561a9020a01dcc4de8dec75d7aab85b567b6ccd41ad312451b948a7413f0a142fd40d49347942adc25665018aa1fe0e6bc666dac8fc2697ff9baa0b449a6ccb649d9456d876bdab12ed9d3b1176f23eb28cdbb01e89759d48d0831a0496a26c7e8310061f5c96f8d11edb7b039044e973c4b71cd11e3b450c2015b4da0ba9991e573821b0c234e361e68d2fe4b0fc940f8380d61fc18ee6ceb963b7094b90100000000000000000000000000000000000000000000000000000000000000000000000000000000000000000000000000000000000000000000000000000000000000000000000000000000000000000000000000000000000000000000000000000000000000000000000000000000000000000000000000000000000000000000000000000000000000000000000000000000000000000000000000000000000000000000000000000000000000000000000000000000000000000000000000000000000000000000000000000000000000000000000000000000000000000000000000000000000000000000000000000000000000000000000000000000008302000001830f424083061a808203e880a0559289df111e80d907b03c017f4bd2b96f5315ad18ff476c1fc4be2fb16ced1d886d61102da2623c4ff867f865800183061a8080830186a096600160016001600160016001600160014d60006000f31ca0f81632462f061c0d96160369b179edc02a481bc34ca93b2dfdd5d20d8e6ac5eba041f17ab4d482b45c4ce45f58a2c3d9fbce6857f3163c86ab5194368aaaea71b6c0",
                "transactions" : [
                    {
                        "data" : "0x600160016001600160016001600160014d60006000f3",
                        "gasLimit" : "0x061a80",
                        "gasPrice" : "0x01",
                        "nonce" : "0x00",
                        "r" : "0xf81632462f061c0d96160369b179edc02a481bc34ca93b2dfdd5d20d8e6ac5eb",
                        "s" : "0x41f17ab4d482b45c4ce45f58a2c3d9fbce6857f3163c86ab5194368aaaea71b6",
                        "to" : "",
                        "v" : "0x1c",
                        "value" : "0x0186a0"
                    }
                ],
                "uncleHeaders" : [
                ]
            }
        ],
        "genesisBlockHeader" : {
            "bloom" : "0x00000000000000000000000000000000000000000000000000000000000000000000000000000000000000000000000000000000000000000000000000000000000000000000000000000000000000000000000000000000000000000000000000000000000000000000000000000000000000000000000000000000000000000000000000000000000000000000000000000000000000000000000000000000000000000000000000000000000000000000000000000000000000000000000000000000000000000000000000000000000000000000000000000000000000000000000000000000000000000000000000000000000000000000000000000000",
            "coinbase" : "0x2adc25665018aa1fe0e6bc666dac8fc2697ff9ba",
            "difficulty" : "0x020000",
            "extraData" : "0x42",
            "gasLimit" : "0x0f4240",
            "gasUsed" : "0x00",
            "hash" : "0x813a03e58564185e9a635f602e5f8da3ab602ac12b45b34e03aadbae561a9020",
            "mixHash" : "0x56e81f171bcc55a6ff8345e692c0f86e5b48e01b996cadc001622fb5e363b421",
            "nonce" : "0x0102030405060708",
            "number" : "0x00",
            "parentHash" : "0x0000000000000000000000000000000000000000000000000000000000000000",
            "receiptTrie" : "0x56e81f171bcc55a6ff8345e692c0f86e5b48e01b996cadc001622fb5e363b421",
            "stateRoot" : "0x517f2cdf6adb1a644878c390ffab4e130f1bed4b498ef7ce58c5addd98d61018",
            "timestamp" : "0x03b6",
            "transactionsTrie" : "0x56e81f171bcc55a6ff8345e692c0f86e5b48e01b996cadc001622fb5e363b421",
            "uncleHash" : "0x1dcc4de8dec75d7aab85b567b6ccd41ad312451b948a7413f0a142fd40d49347"
        },
        "genesisRLP" : "0xf901faf901f5a00000000000000000000000000000000000000000000000000000000000000000a01dcc4de8dec75d7aab85b567b6ccd41ad312451b948a7413f0a142fd40d49347942adc25665018aa1fe0e6bc666dac8fc2697ff9baa0517f2cdf6adb1a644878c390ffab4e130f1bed4b498ef7ce58c5addd98d61018a056e81f171bcc55a6ff8345e692c0f86e5b48e01b996cadc001622fb5e363b421a056e81f171bcc55a6ff8345e692c0f86e5b48e01b996cadc001622fb5e363b421b90100000000000000000000000000000000000000000000000000000000000000000000000000000000000000000000000000000000000000000000000000000000000000000000000000000000000000000000000000000000000000000000000000000000000000000000000000000000000000000000000000000000000000000000000000000000000000000000000000000000000000000000000000000000000000000000000000000000000000000000000000000000000000000000000000000000000000000000000000000000000000000000000000000000000000000000000000000000000000000000000000000000000000000000000000000000008302000080830f4240808203b642a056e81f171bcc55a6ff8345e692c0f86e5b48e01b996cadc001622fb5e363b421880102030405060708c0c0",
        "lastblockhash" : "0x3939f36c4f72ff60bffbd70c06e56766593ef6872410a0611716fb369d6b2c6f",
        "network" : "Byzantium",
        "postState" : {
            "0x2adc25665018aa1fe0e6bc666dac8fc2697ff9ba" : {
                "balance" : "0x29a2241af6321a80",
                "code" : "",
                "nonce" : "0x00",
                "storage" : {
                }
            },
            "0xa94f5374fce5edbc8e2a8697c15331677e6ebf0b" : {
                "balance" : "0x0de0b6b3a75de580",
                "code" : "",
                "nonce" : "0x01",
                "storage" : {
                }
            }
        },
        "pre" : {
            "0xa94f5374fce5edbc8e2a8697c15331677e6ebf0b" : {
                "balance" : "0x0de0b6b3a7640000",
                "code" : "",
                "nonce" : "0x00",
                "storage" : {
                }
            }
        }
    },
    "badOpcodes_d33g0v0_EIP158" : {
        "_info" : {
            "comment" : "",
            "filledwith" : "cpp-1.3.0+commit.82b0643a.Linux.g++",
            "lllcversion" : "Version: 0.4.20-develop.2018.1.8+commit.2548228b.Linux.g++",
            "source" : "src/BlockchainTestsFiller/GeneralStateTests/stBadOpcode/badOpcodes_d33g0v0Filler.json",
            "sourceHash" : "f988baeabd90f72fa8f4d3ee3c78a8d070b908501471c3222a57a19b049fbd63"
        },
        "blocks" : [
            {
                "blockHeader" : {
                    "bloom" : "0x00000000000000000000000000000000000000000000000000000000000000000000000000000000000000000000000000000000000000000000000000000000000000000000000000000000000000000000000000000000000000000000000000000000000000000000000000000000000000000000000000000000000000000000000000000000000000000000000000000000000000000000000000000000000000000000000000000000000000000000000000000000000000000000000000000000000000000000000000000000000000000000000000000000000000000000000000000000000000000000000000000000000000000000000000000000",
                    "coinbase" : "0x2adc25665018aa1fe0e6bc666dac8fc2697ff9ba",
                    "difficulty" : "0x020000",
                    "extraData" : "",
                    "gasLimit" : "0x0f4240",
                    "gasUsed" : "0x061a80",
                    "hash" : "0xe2afaabddc85ea5768d606cefcfb3efd03fb99e3f57de5982c13fc6272fa647c",
                    "mixHash" : "0x2ca316de74929f5f514d266b8378e846b24eb03e500333d11adee57412d7fe1e",
                    "nonce" : "0xcca664185d8b900e",
                    "number" : "0x01",
                    "parentHash" : "0x813a03e58564185e9a635f602e5f8da3ab602ac12b45b34e03aadbae561a9020",
                    "receiptTrie" : "0x54d1949a938a3648c080eee5c088a7d39c94d0bdb0285074e7b75ab6f7c98da1",
                    "stateRoot" : "0x6428b3140b024b4d06e9aea099f8584f0810b877e2225af4ec95fddc8e4d38ee",
                    "timestamp" : "0x03e8",
                    "transactionsTrie" : "0x496a26c7e8310061f5c96f8d11edb7b039044e973c4b71cd11e3b450c2015b4d",
                    "uncleHash" : "0x1dcc4de8dec75d7aab85b567b6ccd41ad312451b948a7413f0a142fd40d49347"
                },
                "rlp" : "0xf90265f901f8a0813a03e58564185e9a635f602e5f8da3ab602ac12b45b34e03aadbae561a9020a01dcc4de8dec75d7aab85b567b6ccd41ad312451b948a7413f0a142fd40d49347942adc25665018aa1fe0e6bc666dac8fc2697ff9baa06428b3140b024b4d06e9aea099f8584f0810b877e2225af4ec95fddc8e4d38eea0496a26c7e8310061f5c96f8d11edb7b039044e973c4b71cd11e3b450c2015b4da054d1949a938a3648c080eee5c088a7d39c94d0bdb0285074e7b75ab6f7c98da1b90100000000000000000000000000000000000000000000000000000000000000000000000000000000000000000000000000000000000000000000000000000000000000000000000000000000000000000000000000000000000000000000000000000000000000000000000000000000000000000000000000000000000000000000000000000000000000000000000000000000000000000000000000000000000000000000000000000000000000000000000000000000000000000000000000000000000000000000000000000000000000000000000000000000000000000000000000000000000000000000000000000000000000000000000000000000008302000001830f424083061a808203e880a02ca316de74929f5f514d266b8378e846b24eb03e500333d11adee57412d7fe1e88cca664185d8b900ef867f865800183061a8080830186a096600160016001600160016001600160014d60006000f31ca0f81632462f061c0d96160369b179edc02a481bc34ca93b2dfdd5d20d8e6ac5eba041f17ab4d482b45c4ce45f58a2c3d9fbce6857f3163c86ab5194368aaaea71b6c0",
                "transactions" : [
                    {
                        "data" : "0x600160016001600160016001600160014d60006000f3",
                        "gasLimit" : "0x061a80",
                        "gasPrice" : "0x01",
                        "nonce" : "0x00",
                        "r" : "0xf81632462f061c0d96160369b179edc02a481bc34ca93b2dfdd5d20d8e6ac5eb",
                        "s" : "0x41f17ab4d482b45c4ce45f58a2c3d9fbce6857f3163c86ab5194368aaaea71b6",
                        "to" : "",
                        "v" : "0x1c",
                        "value" : "0x0186a0"
                    }
                ],
                "uncleHeaders" : [
                ]
            }
        ],
        "genesisBlockHeader" : {
            "bloom" : "0x00000000000000000000000000000000000000000000000000000000000000000000000000000000000000000000000000000000000000000000000000000000000000000000000000000000000000000000000000000000000000000000000000000000000000000000000000000000000000000000000000000000000000000000000000000000000000000000000000000000000000000000000000000000000000000000000000000000000000000000000000000000000000000000000000000000000000000000000000000000000000000000000000000000000000000000000000000000000000000000000000000000000000000000000000000000",
            "coinbase" : "0x2adc25665018aa1fe0e6bc666dac8fc2697ff9ba",
            "difficulty" : "0x020000",
            "extraData" : "0x42",
            "gasLimit" : "0x0f4240",
            "gasUsed" : "0x00",
            "hash" : "0x813a03e58564185e9a635f602e5f8da3ab602ac12b45b34e03aadbae561a9020",
            "mixHash" : "0x56e81f171bcc55a6ff8345e692c0f86e5b48e01b996cadc001622fb5e363b421",
            "nonce" : "0x0102030405060708",
            "number" : "0x00",
            "parentHash" : "0x0000000000000000000000000000000000000000000000000000000000000000",
            "receiptTrie" : "0x56e81f171bcc55a6ff8345e692c0f86e5b48e01b996cadc001622fb5e363b421",
            "stateRoot" : "0x517f2cdf6adb1a644878c390ffab4e130f1bed4b498ef7ce58c5addd98d61018",
            "timestamp" : "0x03b6",
            "transactionsTrie" : "0x56e81f171bcc55a6ff8345e692c0f86e5b48e01b996cadc001622fb5e363b421",
            "uncleHash" : "0x1dcc4de8dec75d7aab85b567b6ccd41ad312451b948a7413f0a142fd40d49347"
        },
        "genesisRLP" : "0xf901faf901f5a00000000000000000000000000000000000000000000000000000000000000000a01dcc4de8dec75d7aab85b567b6ccd41ad312451b948a7413f0a142fd40d49347942adc25665018aa1fe0e6bc666dac8fc2697ff9baa0517f2cdf6adb1a644878c390ffab4e130f1bed4b498ef7ce58c5addd98d61018a056e81f171bcc55a6ff8345e692c0f86e5b48e01b996cadc001622fb5e363b421a056e81f171bcc55a6ff8345e692c0f86e5b48e01b996cadc001622fb5e363b421b90100000000000000000000000000000000000000000000000000000000000000000000000000000000000000000000000000000000000000000000000000000000000000000000000000000000000000000000000000000000000000000000000000000000000000000000000000000000000000000000000000000000000000000000000000000000000000000000000000000000000000000000000000000000000000000000000000000000000000000000000000000000000000000000000000000000000000000000000000000000000000000000000000000000000000000000000000000000000000000000000000000000000000000000000000000000008302000080830f4240808203b642a056e81f171bcc55a6ff8345e692c0f86e5b48e01b996cadc001622fb5e363b421880102030405060708c0c0",
        "lastblockhash" : "0xe2afaabddc85ea5768d606cefcfb3efd03fb99e3f57de5982c13fc6272fa647c",
        "network" : "EIP158",
        "postState" : {
            "0x2adc25665018aa1fe0e6bc666dac8fc2697ff9ba" : {
                "balance" : "0x4563918244fa1a80",
                "code" : "",
                "nonce" : "0x00",
                "storage" : {
                }
            },
            "0xa94f5374fce5edbc8e2a8697c15331677e6ebf0b" : {
                "balance" : "0x0de0b6b3a75de580",
                "code" : "",
                "nonce" : "0x01",
                "storage" : {
                }
            }
        },
        "pre" : {
            "0xa94f5374fce5edbc8e2a8697c15331677e6ebf0b" : {
                "balance" : "0x0de0b6b3a7640000",
                "code" : "",
                "nonce" : "0x00",
                "storage" : {
                }
            }
        }
    },
    "badOpcodes_d33g0v0_Homestead" : {
        "_info" : {
            "comment" : "",
            "filledwith" : "cpp-1.3.0+commit.82b0643a.Linux.g++",
            "lllcversion" : "Version: 0.4.20-develop.2018.1.8+commit.2548228b.Linux.g++",
            "source" : "src/BlockchainTestsFiller/GeneralStateTests/stBadOpcode/badOpcodes_d33g0v0Filler.json",
            "sourceHash" : "f988baeabd90f72fa8f4d3ee3c78a8d070b908501471c3222a57a19b049fbd63"
        },
        "blocks" : [
            {
                "blockHeader" : {
                    "bloom" : "0x00000000000000000000000000000000000000000000000000000000000000000000000000000000000000000000000000000000000000000000000000000000000000000000000000000000000000000000000000000000000000000000000000000000000000000000000000000000000000000000000000000000000000000000000000000000000000000000000000000000000000000000000000000000000000000000000000000000000000000000000000000000000000000000000000000000000000000000000000000000000000000000000000000000000000000000000000000000000000000000000000000000000000000000000000000000",
                    "coinbase" : "0x2adc25665018aa1fe0e6bc666dac8fc2697ff9ba",
                    "difficulty" : "0x020000",
                    "extraData" : "",
                    "gasLimit" : "0x0f4240",
                    "gasUsed" : "0x061a80",
                    "hash" : "0xf3e72cb5f840138315171dfcfcfcc2f539454b664192b474f6b0c6ebb84b9133",
                    "mixHash" : "0x22edd5871e06a4b9da624f38e4098b9ec96a31c5fa267b5152b56f73e3edc510",
                    "nonce" : "0x8f7990855bb9522e",
                    "number" : "0x01",
                    "parentHash" : "0x813a03e58564185e9a635f602e5f8da3ab602ac12b45b34e03aadbae561a9020",
                    "receiptTrie" : "0x54d1949a938a3648c080eee5c088a7d39c94d0bdb0285074e7b75ab6f7c98da1",
                    "stateRoot" : "0x6428b3140b024b4d06e9aea099f8584f0810b877e2225af4ec95fddc8e4d38ee",
                    "timestamp" : "0x03e8",
                    "transactionsTrie" : "0x496a26c7e8310061f5c96f8d11edb7b039044e973c4b71cd11e3b450c2015b4d",
                    "uncleHash" : "0x1dcc4de8dec75d7aab85b567b6ccd41ad312451b948a7413f0a142fd40d49347"
                },
                "rlp" : "0xf90265f901f8a0813a03e58564185e9a635f602e5f8da3ab602ac12b45b34e03aadbae561a9020a01dcc4de8dec75d7aab85b567b6ccd41ad312451b948a7413f0a142fd40d49347942adc25665018aa1fe0e6bc666dac8fc2697ff9baa06428b3140b024b4d06e9aea099f8584f0810b877e2225af4ec95fddc8e4d38eea0496a26c7e8310061f5c96f8d11edb7b039044e973c4b71cd11e3b450c2015b4da054d1949a938a3648c080eee5c088a7d39c94d0bdb0285074e7b75ab6f7c98da1b90100000000000000000000000000000000000000000000000000000000000000000000000000000000000000000000000000000000000000000000000000000000000000000000000000000000000000000000000000000000000000000000000000000000000000000000000000000000000000000000000000000000000000000000000000000000000000000000000000000000000000000000000000000000000000000000000000000000000000000000000000000000000000000000000000000000000000000000000000000000000000000000000000000000000000000000000000000000000000000000000000000000000000000000000000000000008302000001830f424083061a808203e880a022edd5871e06a4b9da624f38e4098b9ec96a31c5fa267b5152b56f73e3edc510888f7990855bb9522ef867f865800183061a8080830186a096600160016001600160016001600160014d60006000f31ca0f81632462f061c0d96160369b179edc02a481bc34ca93b2dfdd5d20d8e6ac5eba041f17ab4d482b45c4ce45f58a2c3d9fbce6857f3163c86ab5194368aaaea71b6c0",
                "transactions" : [
                    {
                        "data" : "0x600160016001600160016001600160014d60006000f3",
                        "gasLimit" : "0x061a80",
                        "gasPrice" : "0x01",
                        "nonce" : "0x00",
                        "r" : "0xf81632462f061c0d96160369b179edc02a481bc34ca93b2dfdd5d20d8e6ac5eb",
                        "s" : "0x41f17ab4d482b45c4ce45f58a2c3d9fbce6857f3163c86ab5194368aaaea71b6",
                        "to" : "",
                        "v" : "0x1c",
                        "value" : "0x0186a0"
                    }
                ],
                "uncleHeaders" : [
                ]
            }
        ],
        "genesisBlockHeader" : {
            "bloom" : "0x00000000000000000000000000000000000000000000000000000000000000000000000000000000000000000000000000000000000000000000000000000000000000000000000000000000000000000000000000000000000000000000000000000000000000000000000000000000000000000000000000000000000000000000000000000000000000000000000000000000000000000000000000000000000000000000000000000000000000000000000000000000000000000000000000000000000000000000000000000000000000000000000000000000000000000000000000000000000000000000000000000000000000000000000000000000",
            "coinbase" : "0x2adc25665018aa1fe0e6bc666dac8fc2697ff9ba",
            "difficulty" : "0x020000",
            "extraData" : "0x42",
            "gasLimit" : "0x0f4240",
            "gasUsed" : "0x00",
            "hash" : "0x813a03e58564185e9a635f602e5f8da3ab602ac12b45b34e03aadbae561a9020",
            "mixHash" : "0x56e81f171bcc55a6ff8345e692c0f86e5b48e01b996cadc001622fb5e363b421",
            "nonce" : "0x0102030405060708",
            "number" : "0x00",
            "parentHash" : "0x0000000000000000000000000000000000000000000000000000000000000000",
            "receiptTrie" : "0x56e81f171bcc55a6ff8345e692c0f86e5b48e01b996cadc001622fb5e363b421",
            "stateRoot" : "0x517f2cdf6adb1a644878c390ffab4e130f1bed4b498ef7ce58c5addd98d61018",
            "timestamp" : "0x03b6",
            "transactionsTrie" : "0x56e81f171bcc55a6ff8345e692c0f86e5b48e01b996cadc001622fb5e363b421",
            "uncleHash" : "0x1dcc4de8dec75d7aab85b567b6ccd41ad312451b948a7413f0a142fd40d49347"
        },
        "genesisRLP" : "0xf901faf901f5a00000000000000000000000000000000000000000000000000000000000000000a01dcc4de8dec75d7aab85b567b6ccd41ad312451b948a7413f0a142fd40d49347942adc25665018aa1fe0e6bc666dac8fc2697ff9baa0517f2cdf6adb1a644878c390ffab4e130f1bed4b498ef7ce58c5addd98d61018a056e81f171bcc55a6ff8345e692c0f86e5b48e01b996cadc001622fb5e363b421a056e81f171bcc55a6ff8345e692c0f86e5b48e01b996cadc001622fb5e363b421b90100000000000000000000000000000000000000000000000000000000000000000000000000000000000000000000000000000000000000000000000000000000000000000000000000000000000000000000000000000000000000000000000000000000000000000000000000000000000000000000000000000000000000000000000000000000000000000000000000000000000000000000000000000000000000000000000000000000000000000000000000000000000000000000000000000000000000000000000000000000000000000000000000000000000000000000000000000000000000000000000000000000000000000000000000000000008302000080830f4240808203b642a056e81f171bcc55a6ff8345e692c0f86e5b48e01b996cadc001622fb5e363b421880102030405060708c0c0",
        "lastblockhash" : "0xf3e72cb5f840138315171dfcfcfcc2f539454b664192b474f6b0c6ebb84b9133",
        "network" : "Homestead",
        "postState" : {
            "0x2adc25665018aa1fe0e6bc666dac8fc2697ff9ba" : {
                "balance" : "0x4563918244fa1a80",
                "code" : "",
                "nonce" : "0x00",
                "storage" : {
                }
            },
            "0xa94f5374fce5edbc8e2a8697c15331677e6ebf0b" : {
                "balance" : "0x0de0b6b3a75de580",
                "code" : "",
                "nonce" : "0x01",
                "storage" : {
                }
            }
        },
        "pre" : {
            "0xa94f5374fce5edbc8e2a8697c15331677e6ebf0b" : {
                "balance" : "0x0de0b6b3a7640000",
                "code" : "",
                "nonce" : "0x00",
                "storage" : {
                }
            }
        }
    }
}