{
    "addmod0_Berlin" : {
        "_info" : {
            "comment" : "Converted from VMTest source. ",
            "filling-rpc-server" : "evm version 1.9.24-unstable-b63e3c37-20201029",
            "filling-tool-version" : "retesteth-0.0.9-berlin+commit.60bef1d7.Linux.g++",
            "lllcversion" : "Version: 0.5.14-develop.2020.6.22+commit.9189ad7a.Linux.g++",
            "source" : "src/VMTestsFiller/vmArithmeticTest/addmod0Filler.json",
            "sourceHash" : "b653c7415608e53969c4d45af66c0e8c01e60f9e0a01baed319bf4afe16832c2"
        },
        "sealEngine" : "NoProof",
        "network" : "Berlin",
        "pre" : {
            "0x0f572e5295c57f15886f9b263e2f6d2d6c7b5ec6" : {
                "balance" : "0x0de0b6b3a7640000",
                "code" : "0x6002600260010860005500",
                "nonce" : "0x00",
                "storage" : {
                }
            },
            "0xa94f5374fce5edbc8e2a8697c15331677e6ebf0b" : {
                "balance" : "0x7ffffffffffffff0",
                "code" : "0x",
                "nonce" : "0x00",
                "storage" : {
                }
            }
        },
        "genesisBlockHeader" : {
            "bloom" : "0x00000000000000000000000000000000000000000000000000000000000000000000000000000000000000000000000000000000000000000000000000000000000000000000000000000000000000000000000000000000000000000000000000000000000000000000000000000000000000000000000000000000000000000000000000000000000000000000000000000000000000000000000000000000000000000000000000000000000000000000000000000000000000000000000000000000000000000000000000000000000000000000000000000000000000000000000000000000000000000000000000000000000000000000000000000000",
            "coinbase" : "0x2adc25665018aa1fe0e6bc666dac8fc2697ff9ba",
            "difficulty" : "0x020000",
            "extraData" : "0x42",
            "gasLimit" : "0x7fffffffffffffff",
            "gasUsed" : "0x00",
            "hash" : "0xd28279ffccfb708f77bce72ed20f842615d83cfefea4ed0d8898f630c977529a",
            "mixHash" : "0x0000000000000000000000000000000000000000000000000000000000000000",
            "nonce" : "0x0000000000000000",
            "number" : "0x00",
            "parentHash" : "0x0000000000000000000000000000000000000000000000000000000000000000",
            "receiptTrie" : "0x56e81f171bcc55a6ff8345e692c0f86e5b48e01b996cadc001622fb5e363b421",
            "stateRoot" : "0xaa9a88f49d37a012dc015cc3df9b4c0391ec04b52ea8ce1d2648a30aa7d1bace",
            "timestamp" : "0x00",
            "transactionsTrie" : "0x56e81f171bcc55a6ff8345e692c0f86e5b48e01b996cadc001622fb5e363b421",
            "uncleHash" : "0x1dcc4de8dec75d7aab85b567b6ccd41ad312451b948a7413f0a142fd40d49347"
        },
        "genesisRLP" : "0xf901fdf901f8a00000000000000000000000000000000000000000000000000000000000000000a01dcc4de8dec75d7aab85b567b6ccd41ad312451b948a7413f0a142fd40d49347942adc25665018aa1fe0e6bc666dac8fc2697ff9baa0aa9a88f49d37a012dc015cc3df9b4c0391ec04b52ea8ce1d2648a30aa7d1bacea056e81f171bcc55a6ff8345e692c0f86e5b48e01b996cadc001622fb5e363b421a056e81f171bcc55a6ff8345e692c0f86e5b48e01b996cadc001622fb5e363b421b90100000000000000000000000000000000000000000000000000000000000000000000000000000000000000000000000000000000000000000000000000000000000000000000000000000000000000000000000000000000000000000000000000000000000000000000000000000000000000000000000000000000000000000000000000000000000000000000000000000000000000000000000000000000000000000000000000000000000000000000000000000000000000000000000000000000000000000000000000000000000000000000000000000000000000000000000000000000000000000000000000000000000000000000000000000000008302000080887fffffffffffffff808042a00000000000000000000000000000000000000000000000000000000000000000880000000000000000c0c0",
        "blocks" : [
            {
                "chainname" : "default",
                "blocknumber" : "1",
                "uncleHeaders" : [
                ],
                "blockHeader" : {
                    "bloom" : "0x00000000000000000000000000000000000000000000000000000000000000000000000000000000000000000000000000000000000000000000000000000000000000000000000000000000000000000000000000000000000000000000000000000000000000000000000000000000000000000000000000000000000000000000000000000000000000000000000000000000000000000000000000000000000000000000000000000000000000000000000000000000000000000000000000000000000000000000000000000000000000000000000000000000000000000000000000000000000000000000000000000000000000000000000000000000",
                    "coinbase" : "0x2adc25665018aa1fe0e6bc666dac8fc2697ff9ba",
                    "difficulty" : "0x020000",
                    "extraData" : "0x42",
                    "gasLimit" : "0x7fffffffffffffff",
                    "gasUsed" : "0xa870",
                    "hash" : "0x467035a75134f727a30bd292c986fc5b4d3679c81c2287722193a2b8a240bc4f",
                    "mixHash" : "0x0000000000000000000000000000000000000000000000000000000000000000",
                    "nonce" : "0x0000000000000000",
                    "number" : "0x01",
                    "parentHash" : "0xd28279ffccfb708f77bce72ed20f842615d83cfefea4ed0d8898f630c977529a",
                    "receiptTrie" : "0x27f18be6361e589af2b99312e38f87c6f1780733cd663c60d157eebd612468b2",
                    "stateRoot" : "0xb33596aae6fcdbfeb2d3151d615889b8c2c4a7684a34e93e95e5ba0025b14f7c",
                    "timestamp" : "0x03e8",
                    "transactionsTrie" : "0xd776808ba2bc76d7811db42b9b66ba3805093a53548579b8e5cb4ef90ecdfa45",
                    "uncleHash" : "0x1dcc4de8dec75d7aab85b567b6ccd41ad312451b948a7413f0a142fd40d49347"
                },
                "transactions" : [
                    {
                        "data" : "0x",
                        "gasLimit" : "0x0186a0",
                        "gasPrice" : "0x0c",
                        "nonce" : "0x00",
                        "r" : "0x1cd68b4bb170803e261493404e86de287b1f0373ad29214b1222b2d4eb193848",
                        "s" : "0x6219c94315c1b7605b09a7a229b21007f7968181001cd9d00aae37cfde3cfbf9",
                        "to" : "0x0f572e5295c57f15886f9b263e2f6d2d6c7b5ec6",
                        "v" : "0x1b",
                        "value" : "0x0b"
                    }
                ],
                "rlp" : "0xf90264f901fca0d28279ffccfb708f77bce72ed20f842615d83cfefea4ed0d8898f630c977529aa01dcc4de8dec75d7aab85b567b6ccd41ad312451b948a7413f0a142fd40d49347942adc25665018aa1fe0e6bc666dac8fc2697ff9baa0b33596aae6fcdbfeb2d3151d615889b8c2c4a7684a34e93e95e5ba0025b14f7ca0d776808ba2bc76d7811db42b9b66ba3805093a53548579b8e5cb4ef90ecdfa45a027f18be6361e589af2b99312e38f87c6f1780733cd663c60d157eebd612468b2b90100000000000000000000000000000000000000000000000000000000000000000000000000000000000000000000000000000000000000000000000000000000000000000000000000000000000000000000000000000000000000000000000000000000000000000000000000000000000000000000000000000000000000000000000000000000000000000000000000000000000000000000000000000000000000000000000000000000000000000000000000000000000000000000000000000000000000000000000000000000000000000000000000000000000000000000000000000000000000000000000000000000000000000000000000000000008302000001887fffffffffffffff82a8708203e842a00000000000000000000000000000000000000000000000000000000000000000880000000000000000f862f860800c830186a0940f572e5295c57f15886f9b263e2f6d2d6c7b5ec60b801ba01cd68b4bb170803e261493404e86de287b1f0373ad29214b1222b2d4eb193848a06219c94315c1b7605b09a7a229b21007f7968181001cd9d00aae37cfde3cfbf9c0"
            }
        ],
        "postState" : {
            "0x0f572e5295c57f15886f9b263e2f6d2d6c7b5ec6" : {
                "code" : "0x6002600260010860005500",
                "nonce" : "0x00",
                "balance" : "0x0de0b6b3a764000b",
                "storage" : {
                    "0x00" : "0x01"
                }
            },
            "0x2adc25665018aa1fe0e6bc666dac8fc2697ff9ba" : {
                "code" : "0x",
                "nonce" : "0x00",
                "balance" : "0x1bc16d674ecfe540",
                "storage" : {
                }
            },
            "0xa94f5374fce5edbc8e2a8697c15331677e6ebf0b" : {
                "code" : "0x",
                "nonce" : "0x01",
                "balance" : "0x7ffffffffff81aa5",
                "storage" : {
                }
            }
        },
        "lastblockhash" : "0x467035a75134f727a30bd292c986fc5b4d3679c81c2287722193a2b8a240bc4f"
    },
    "addmod0_Istanbul" : {
        "_info" : {
            "comment" : "Converted from VMTest source. ",
            "filling-rpc-server" : "evm version 1.9.24-unstable-b63e3c37-20201029",
            "filling-tool-version" : "retesteth-0.0.9-berlin+commit.60bef1d7.Linux.g++",
            "lllcversion" : "Version: 0.5.14-develop.2020.6.22+commit.9189ad7a.Linux.g++",
            "source" : "src/VMTestsFiller/vmArithmeticTest/addmod0Filler.json",
            "sourceHash" : "b653c7415608e53969c4d45af66c0e8c01e60f9e0a01baed319bf4afe16832c2"
        },
        "sealEngine" : "NoProof",
        "network" : "Istanbul",
        "pre" : {
            "0x0f572e5295c57f15886f9b263e2f6d2d6c7b5ec6" : {
                "balance" : "0x0de0b6b3a7640000",
                "code" : "0x6002600260010860005500",
                "nonce" : "0x00",
                "storage" : {
                }
            },
            "0xa94f5374fce5edbc8e2a8697c15331677e6ebf0b" : {
                "balance" : "0x7ffffffffffffff0",
                "code" : "0x",
                "nonce" : "0x00",
                "storage" : {
                }
            }
        },
        "genesisBlockHeader" : {
            "bloom" : "0x00000000000000000000000000000000000000000000000000000000000000000000000000000000000000000000000000000000000000000000000000000000000000000000000000000000000000000000000000000000000000000000000000000000000000000000000000000000000000000000000000000000000000000000000000000000000000000000000000000000000000000000000000000000000000000000000000000000000000000000000000000000000000000000000000000000000000000000000000000000000000000000000000000000000000000000000000000000000000000000000000000000000000000000000000000000",
            "coinbase" : "0x2adc25665018aa1fe0e6bc666dac8fc2697ff9ba",
            "difficulty" : "0x020000",
            "extraData" : "0x42",
            "gasLimit" : "0x7fffffffffffffff",
            "gasUsed" : "0x00",
            "hash" : "0xd28279ffccfb708f77bce72ed20f842615d83cfefea4ed0d8898f630c977529a",
            "mixHash" : "0x0000000000000000000000000000000000000000000000000000000000000000",
            "nonce" : "0x0000000000000000",
            "number" : "0x00",
            "parentHash" : "0x0000000000000000000000000000000000000000000000000000000000000000",
            "receiptTrie" : "0x56e81f171bcc55a6ff8345e692c0f86e5b48e01b996cadc001622fb5e363b421",
            "stateRoot" : "0xaa9a88f49d37a012dc015cc3df9b4c0391ec04b52ea8ce1d2648a30aa7d1bace",
            "timestamp" : "0x00",
            "transactionsTrie" : "0x56e81f171bcc55a6ff8345e692c0f86e5b48e01b996cadc001622fb5e363b421",
            "uncleHash" : "0x1dcc4de8dec75d7aab85b567b6ccd41ad312451b948a7413f0a142fd40d49347"
        },
        "genesisRLP" : "0xf901fdf901f8a00000000000000000000000000000000000000000000000000000000000000000a01dcc4de8dec75d7aab85b567b6ccd41ad312451b948a7413f0a142fd40d49347942adc25665018aa1fe0e6bc666dac8fc2697ff9baa0aa9a88f49d37a012dc015cc3df9b4c0391ec04b52ea8ce1d2648a30aa7d1bacea056e81f171bcc55a6ff8345e692c0f86e5b48e01b996cadc001622fb5e363b421a056e81f171bcc55a6ff8345e692c0f86e5b48e01b996cadc001622fb5e363b421b90100000000000000000000000000000000000000000000000000000000000000000000000000000000000000000000000000000000000000000000000000000000000000000000000000000000000000000000000000000000000000000000000000000000000000000000000000000000000000000000000000000000000000000000000000000000000000000000000000000000000000000000000000000000000000000000000000000000000000000000000000000000000000000000000000000000000000000000000000000000000000000000000000000000000000000000000000000000000000000000000000000000000000000000000000000000008302000080887fffffffffffffff808042a00000000000000000000000000000000000000000000000000000000000000000880000000000000000c0c0",
        "blocks" : [
            {
                "chainname" : "default",
                "blocknumber" : "1",
                "uncleHeaders" : [
                ],
                "blockHeader" : {
                    "bloom" : "0x00000000000000000000000000000000000000000000000000000000000000000000000000000000000000000000000000000000000000000000000000000000000000000000000000000000000000000000000000000000000000000000000000000000000000000000000000000000000000000000000000000000000000000000000000000000000000000000000000000000000000000000000000000000000000000000000000000000000000000000000000000000000000000000000000000000000000000000000000000000000000000000000000000000000000000000000000000000000000000000000000000000000000000000000000000000",
                    "coinbase" : "0x2adc25665018aa1fe0e6bc666dac8fc2697ff9ba",
                    "difficulty" : "0x020000",
                    "extraData" : "0x42",
                    "gasLimit" : "0x7fffffffffffffff",
                    "gasUsed" : "0xa03c",
                    "hash" : "0xf9c136e18377205f0a4a3d68eb9db281a49c39af2b964c29e53eaddf73e166a3",
                    "mixHash" : "0x0000000000000000000000000000000000000000000000000000000000000000",
                    "nonce" : "0x0000000000000000",
                    "number" : "0x01",
                    "parentHash" : "0xd28279ffccfb708f77bce72ed20f842615d83cfefea4ed0d8898f630c977529a",
                    "receiptTrie" : "0xd0d5085ef06875edc9ceb951b55908f35dff973070663595d6377941c2a10de1",
                    "stateRoot" : "0x944179377f9ee89eae4c02859f29acd8267c0434fe964bf4c4db6b91e8ac81b9",
                    "timestamp" : "0x03e8",
                    "transactionsTrie" : "0xd776808ba2bc76d7811db42b9b66ba3805093a53548579b8e5cb4ef90ecdfa45",
                    "uncleHash" : "0x1dcc4de8dec75d7aab85b567b6ccd41ad312451b948a7413f0a142fd40d49347"
                },
                "transactions" : [
                    {
                        "data" : "0x",
                        "gasLimit" : "0x0186a0",
                        "gasPrice" : "0x0c",
                        "nonce" : "0x00",
                        "r" : "0x1cd68b4bb170803e261493404e86de287b1f0373ad29214b1222b2d4eb193848",
                        "s" : "0x6219c94315c1b7605b09a7a229b21007f7968181001cd9d00aae37cfde3cfbf9",
                        "to" : "0x0f572e5295c57f15886f9b263e2f6d2d6c7b5ec6",
                        "v" : "0x1b",
                        "value" : "0x0b"
                    }
                ],
                "rlp" : "0xf90264f901fca0d28279ffccfb708f77bce72ed20f842615d83cfefea4ed0d8898f630c977529aa01dcc4de8dec75d7aab85b567b6ccd41ad312451b948a7413f0a142fd40d49347942adc25665018aa1fe0e6bc666dac8fc2697ff9baa0944179377f9ee89eae4c02859f29acd8267c0434fe964bf4c4db6b91e8ac81b9a0d776808ba2bc76d7811db42b9b66ba3805093a53548579b8e5cb4ef90ecdfa45a0d0d5085ef06875edc9ceb951b55908f35dff973070663595d6377941c2a10de1b90100000000000000000000000000000000000000000000000000000000000000000000000000000000000000000000000000000000000000000000000000000000000000000000000000000000000000000000000000000000000000000000000000000000000000000000000000000000000000000000000000000000000000000000000000000000000000000000000000000000000000000000000000000000000000000000000000000000000000000000000000000000000000000000000000000000000000000000000000000000000000000000000000000000000000000000000000000000000000000000000000000000000000000000000000000000008302000001887fffffffffffffff82a03c8203e842a00000000000000000000000000000000000000000000000000000000000000000880000000000000000f862f860800c830186a0940f572e5295c57f15886f9b263e2f6d2d6c7b5ec60b801ba01cd68b4bb170803e261493404e86de287b1f0373ad29214b1222b2d4eb193848a06219c94315c1b7605b09a7a229b21007f7968181001cd9d00aae37cfde3cfbf9c0"
            }
        ],
        "postState" : {
            "0x0f572e5295c57f15886f9b263e2f6d2d6c7b5ec6" : {
                "code" : "0x6002600260010860005500",
                "nonce" : "0x00",
                "balance" : "0x0de0b6b3a764000b",
                "storage" : {
                    "0x00" : "0x01"
                }
            },
            "0x2adc25665018aa1fe0e6bc666dac8fc2697ff9ba" : {
                "code" : "0x",
                "nonce" : "0x00",
                "balance" : "0x1bc16d674ecf82d0",
                "storage" : {
                }
            },
            "0xa94f5374fce5edbc8e2a8697c15331677e6ebf0b" : {
                "code" : "0x",
                "nonce" : "0x01",
                "balance" : "0x7ffffffffff87d15",
                "storage" : {
                }
            }
        },
        "lastblockhash" : "0xf9c136e18377205f0a4a3d68eb9db281a49c39af2b964c29e53eaddf73e166a3"
    }
}