{
    "expPowerOf256Of256_2_Berlin" : {
        "_info" : {
            "comment" : "Converted from VMTest source. ",
            "filling-rpc-server" : "evm version 1.10.2-unstable-22082f9e-20210309",
            "filling-tool-version" : "retesteth-0.1.0-accesslist+commit.47c69eb3.Linux.g++",
            "lllcversion" : "Version: 0.5.14-develop.2020.6.22+commit.9189ad7a.Linux.g++",
            "source" : "src/VMTestsFiller/vmArithmeticTest/expPowerOf256Of256_2Filler.json",
            "sourceHash" : "4acafeba97d5abc001cf4553ad3317c3bd25f0aeb8c4aa4f7bbee5792d846f8a"
        },
        "sealEngine" : "NoProof",
        "network" : "Berlin",
        "pre" : {
            "0x0f572e5295c57f15886f9b263e2f6d2d6c7b5ec6" : {
                "balance" : "0x0de0b6b3a7640000",
                "code" : "0x60026101000a6101000a600055600260ff0a6101000a60015560026101010a6101000a60025560026101000a60ff0a600355600260ff0a60ff0a60045560026101010a60ff0a60055560026101000a6101010a600655600260ff0a6101010a60075560026101010a6101010a60085500",
                "nonce" : "0x00",
                "storage" : {
                }
            },
            "0xa94f5374fce5edbc8e2a8697c15331677e6ebf0b" : {
                "balance" : "0x7ffffffffffffff0",
                "code" : "0x",
                "nonce" : "0x00",
                "storage" : {
                }
            }
        },
        "genesisBlockHeader" : {
            "bloom" : "0x00000000000000000000000000000000000000000000000000000000000000000000000000000000000000000000000000000000000000000000000000000000000000000000000000000000000000000000000000000000000000000000000000000000000000000000000000000000000000000000000000000000000000000000000000000000000000000000000000000000000000000000000000000000000000000000000000000000000000000000000000000000000000000000000000000000000000000000000000000000000000000000000000000000000000000000000000000000000000000000000000000000000000000000000000000000",
            "coinbase" : "0x2adc25665018aa1fe0e6bc666dac8fc2697ff9ba",
            "difficulty" : "0x020000",
            "extraData" : "0x42",
            "gasLimit" : "0x7fffffffffffffff",
            "gasUsed" : "0x00",
            "hash" : "0x943a8a0e55551546cfc2b7de852ff9154dfc136d6478100a14b3e6b53c64ef32",
            "mixHash" : "0x0000000000000000000000000000000000000000000000000000000000000000",
            "nonce" : "0x0000000000000000",
            "number" : "0x00",
            "parentHash" : "0x0000000000000000000000000000000000000000000000000000000000000000",
            "receiptTrie" : "0x56e81f171bcc55a6ff8345e692c0f86e5b48e01b996cadc001622fb5e363b421",
            "stateRoot" : "0x2a83aa3487862f1f1c08bd1fefafd0f8cab53ef1b98ddc91216c292b52e9e2a6",
            "timestamp" : "0x00",
            "transactionsTrie" : "0x56e81f171bcc55a6ff8345e692c0f86e5b48e01b996cadc001622fb5e363b421",
            "uncleHash" : "0x1dcc4de8dec75d7aab85b567b6ccd41ad312451b948a7413f0a142fd40d49347"
        },
        "genesisRLP" : "0xf901fdf901f8a00000000000000000000000000000000000000000000000000000000000000000a01dcc4de8dec75d7aab85b567b6ccd41ad312451b948a7413f0a142fd40d49347942adc25665018aa1fe0e6bc666dac8fc2697ff9baa02a83aa3487862f1f1c08bd1fefafd0f8cab53ef1b98ddc91216c292b52e9e2a6a056e81f171bcc55a6ff8345e692c0f86e5b48e01b996cadc001622fb5e363b421a056e81f171bcc55a6ff8345e692c0f86e5b48e01b996cadc001622fb5e363b421b90100000000000000000000000000000000000000000000000000000000000000000000000000000000000000000000000000000000000000000000000000000000000000000000000000000000000000000000000000000000000000000000000000000000000000000000000000000000000000000000000000000000000000000000000000000000000000000000000000000000000000000000000000000000000000000000000000000000000000000000000000000000000000000000000000000000000000000000000000000000000000000000000000000000000000000000000000000000000000000000000000000000000000000000000000000000008302000080887fffffffffffffff808042a00000000000000000000000000000000000000000000000000000000000000000880000000000000000c0c0",
        "blocks" : [
            {
                "chainname" : "default",
                "blocknumber" : "1",
                "uncleHeaders" : [
                ],
                "blockHeader" : {
                    "bloom" : "0x00000000000000000000000000000000000000000000000000000000000000000000000000000000000000000000000000000000000000000000000000000000000000000000000000000000000000000000000000000000000000000000000000000000000000000000000000000000000000000000000000000000000000000000000000000000000000000000000000000000000000000000000000000000000000000000000000000000000000000000000000000000000000000000000000000000000000000000000000000000000000000000000000000000000000000000000000000000000000000000000000000000000000000000000000000000",
                    "coinbase" : "0x2adc25665018aa1fe0e6bc666dac8fc2697ff9ba",
                    "difficulty" : "0x020000",
                    "extraData" : "0x42",
                    "gasLimit" : "0x7fffffffffffffff",
                    "gasUsed" : "0x02795a",
                    "hash" : "0x31c309dbf8b767e75610cc32a04b332d2aa8daf7d8f1545acf05890ca91ea8e0",
                    "mixHash" : "0x0000000000000000000000000000000000000000000000000000000000000000",
                    "nonce" : "0x0000000000000000",
                    "number" : "0x01",
                    "parentHash" : "0x943a8a0e55551546cfc2b7de852ff9154dfc136d6478100a14b3e6b53c64ef32",
                    "receiptTrie" : "0xb164e6d09e692081a7ce80c9842042de6491c3d4a96784f0d213f71746160be1",
                    "stateRoot" : "0x74c47a3b33290968ca446a877cec257e968b52b67dcd5788909b2e07eccb774b",
                    "timestamp" : "0x03e8",
                    "transactionsTrie" : "0x52f3676263f0f03fdc10d35e1fe2edf010b483eecc40578e4ac4655eb584c720",
                    "uncleHash" : "0x1dcc4de8dec75d7aab85b567b6ccd41ad312451b948a7413f0a142fd40d49347"
                },
                "transactions" : [
                    {
                        "data" : "0x",
                        "gasLimit" : "0x0f4240",
                        "gasPrice" : "0x0c",
                        "nonce" : "0x00",
                        "r" : "0xcf507918503873b4ebb47f1095eeac4dfebe4b19aaf1229396b74115a41585b5",
                        "s" : "0x62f2d84064722404ed915ad916a396ae3576a6bf6ab349f7132b98869cfebe84",
                        "to" : "0x0f572e5295c57f15886f9b263e2f6d2d6c7b5ec6",
                        "v" : "0x1c",
                        "value" : "0x0b"
                    }
                ],
                "rlp" : "0xf90265f901fda0943a8a0e55551546cfc2b7de852ff9154dfc136d6478100a14b3e6b53c64ef32a01dcc4de8dec75d7aab85b567b6ccd41ad312451b948a7413f0a142fd40d49347942adc25665018aa1fe0e6bc666dac8fc2697ff9baa074c47a3b33290968ca446a877cec257e968b52b67dcd5788909b2e07eccb774ba052f3676263f0f03fdc10d35e1fe2edf010b483eecc40578e4ac4655eb584c720a0b164e6d09e692081a7ce80c9842042de6491c3d4a96784f0d213f71746160be1b90100000000000000000000000000000000000000000000000000000000000000000000000000000000000000000000000000000000000000000000000000000000000000000000000000000000000000000000000000000000000000000000000000000000000000000000000000000000000000000000000000000000000000000000000000000000000000000000000000000000000000000000000000000000000000000000000000000000000000000000000000000000000000000000000000000000000000000000000000000000000000000000000000000000000000000000000000000000000000000000000000000000000000000000000000000000008302000001887fffffffffffffff8302795a8203e842a00000000000000000000000000000000000000000000000000000000000000000880000000000000000f862f860800c830f4240940f572e5295c57f15886f9b263e2f6d2d6c7b5ec60b801ca0cf507918503873b4ebb47f1095eeac4dfebe4b19aaf1229396b74115a41585b5a062f2d84064722404ed915ad916a396ae3576a6bf6ab349f7132b98869cfebe84c0"
            }
        ],
        "postState" : {
            "0x0f572e5295c57f15886f9b263e2f6d2d6c7b5ec6" : {
                "code" : "0x60026101000a6101000a600055600260ff0a6101000a60015560026101010a6101000a60025560026101000a60ff0a600355600260ff0a60ff0a60045560026101010a60ff0a60055560026101000a6101010a600655600260ff0a6101010a60075560026101010a6101010a60085500",
                "nonce" : "0x00",
                "balance" : "0x0de0b6b3a764000b",
                "storage" : {
                    "0x03" : "0x4ee4ceeaac565c81f55a87c43f82f7c889ef4fc7c679671e28d594ff7f000001",
                    "0x04" : "0x82f46a1b4e34d66712910615d2571d75606ceac51fa8ca8c58cf6ca881fe00ff",
                    "0x05" : "0x81c9fcefa5de158ae2007f25d35c0d11cd735342a48905955a5a6852800200ff",
                    "0x06" : "0x666ac362902470ed850709e2a29969d10cba09debc03c38d172aeaff81000001",
                    "0x07" : "0xeb30a3c678a01bde914548f98f3366dc0ffe9f85384ebf1111d03dad7ffe0101",
                    "0x08" : "0x72d0a7939b6303ce1d46e6e3f1b8be303bfdb2b00f41ad8076b0975782020101"
                }
            },
            "0x2adc25665018aa1fe0e6bc666dac8fc2697ff9ba" : {
                "code" : "0x",
                "nonce" : "0x00",
                "balance" : "0x1bc16d674ee5b038",
                "storage" : {
                }
            },
            "0xa94f5374fce5edbc8e2a8697c15331677e6ebf0b" : {
                "code" : "0x",
                "nonce" : "0x01",
                "balance" : "0x7fffffffffe24fad",
                "storage" : {
                }
            }
        },
        "lastblockhash" : "0x31c309dbf8b767e75610cc32a04b332d2aa8daf7d8f1545acf05890ca91ea8e0"
    },
    "expPowerOf256Of256_2_Istanbul" : {
        "_info" : {
            "comment" : "Converted from VMTest source. ",
            "filling-rpc-server" : "evm version 1.10.2-unstable-22082f9e-20210309",
            "filling-tool-version" : "retesteth-0.1.0-accesslist+commit.47c69eb3.Linux.g++",
            "lllcversion" : "Version: 0.5.14-develop.2020.6.22+commit.9189ad7a.Linux.g++",
            "source" : "src/VMTestsFiller/vmArithmeticTest/expPowerOf256Of256_2Filler.json",
            "sourceHash" : "4acafeba97d5abc001cf4553ad3317c3bd25f0aeb8c4aa4f7bbee5792d846f8a"
        },
        "sealEngine" : "NoProof",
        "network" : "Istanbul",
        "pre" : {
            "0x0f572e5295c57f15886f9b263e2f6d2d6c7b5ec6" : {
                "balance" : "0x0de0b6b3a7640000",
                "code" : "0x60026101000a6101000a600055600260ff0a6101000a60015560026101010a6101000a60025560026101000a60ff0a600355600260ff0a60ff0a60045560026101010a60ff0a60055560026101000a6101010a600655600260ff0a6101010a60075560026101010a6101010a60085500",
                "nonce" : "0x00",
                "storage" : {
                }
            },
            "0xa94f5374fce5edbc8e2a8697c15331677e6ebf0b" : {
                "balance" : "0x7ffffffffffffff0",
                "code" : "0x",
                "nonce" : "0x00",
                "storage" : {
                }
            }
        },
        "genesisBlockHeader" : {
            "bloom" : "0x00000000000000000000000000000000000000000000000000000000000000000000000000000000000000000000000000000000000000000000000000000000000000000000000000000000000000000000000000000000000000000000000000000000000000000000000000000000000000000000000000000000000000000000000000000000000000000000000000000000000000000000000000000000000000000000000000000000000000000000000000000000000000000000000000000000000000000000000000000000000000000000000000000000000000000000000000000000000000000000000000000000000000000000000000000000",
            "coinbase" : "0x2adc25665018aa1fe0e6bc666dac8fc2697ff9ba",
            "difficulty" : "0x020000",
            "extraData" : "0x42",
            "gasLimit" : "0x7fffffffffffffff",
            "gasUsed" : "0x00",
            "hash" : "0x943a8a0e55551546cfc2b7de852ff9154dfc136d6478100a14b3e6b53c64ef32",
            "mixHash" : "0x0000000000000000000000000000000000000000000000000000000000000000",
            "nonce" : "0x0000000000000000",
            "number" : "0x00",
            "parentHash" : "0x0000000000000000000000000000000000000000000000000000000000000000",
            "receiptTrie" : "0x56e81f171bcc55a6ff8345e692c0f86e5b48e01b996cadc001622fb5e363b421",
            "stateRoot" : "0x2a83aa3487862f1f1c08bd1fefafd0f8cab53ef1b98ddc91216c292b52e9e2a6",
            "timestamp" : "0x00",
            "transactionsTrie" : "0x56e81f171bcc55a6ff8345e692c0f86e5b48e01b996cadc001622fb5e363b421",
            "uncleHash" : "0x1dcc4de8dec75d7aab85b567b6ccd41ad312451b948a7413f0a142fd40d49347"
        },
        "genesisRLP" : "0xf901fdf901f8a00000000000000000000000000000000000000000000000000000000000000000a01dcc4de8dec75d7aab85b567b6ccd41ad312451b948a7413f0a142fd40d49347942adc25665018aa1fe0e6bc666dac8fc2697ff9baa02a83aa3487862f1f1c08bd1fefafd0f8cab53ef1b98ddc91216c292b52e9e2a6a056e81f171bcc55a6ff8345e692c0f86e5b48e01b996cadc001622fb5e363b421a056e81f171bcc55a6ff8345e692c0f86e5b48e01b996cadc001622fb5e363b421b90100000000000000000000000000000000000000000000000000000000000000000000000000000000000000000000000000000000000000000000000000000000000000000000000000000000000000000000000000000000000000000000000000000000000000000000000000000000000000000000000000000000000000000000000000000000000000000000000000000000000000000000000000000000000000000000000000000000000000000000000000000000000000000000000000000000000000000000000000000000000000000000000000000000000000000000000000000000000000000000000000000000000000000000000000000000008302000080887fffffffffffffff808042a00000000000000000000000000000000000000000000000000000000000000000880000000000000000c0c0",
        "blocks" : [
            {
                "chainname" : "default",
                "blocknumber" : "1",
                "uncleHeaders" : [
                ],
                "blockHeader" : {
                    "bloom" : "0x00000000000000000000000000000000000000000000000000000000000000000000000000000000000000000000000000000000000000000000000000000000000000000000000000000000000000000000000000000000000000000000000000000000000000000000000000000000000000000000000000000000000000000000000000000000000000000000000000000000000000000000000000000000000000000000000000000000000000000000000000000000000000000000000000000000000000000000000000000000000000000000000000000000000000000000000000000000000000000000000000000000000000000000000000000000",
                    "coinbase" : "0x2adc25665018aa1fe0e6bc666dac8fc2697ff9ba",
                    "difficulty" : "0x020000",
                    "extraData" : "0x42",
                    "gasLimit" : "0x7fffffffffffffff",
                    "gasUsed" : "0x0237ba",
                    "hash" : "0xff80b8dd75dd1b5283e3b3c331eae4b17c51793dffe522f3a3ae51e76d776f5a",
                    "mixHash" : "0x0000000000000000000000000000000000000000000000000000000000000000",
                    "nonce" : "0x0000000000000000",
                    "number" : "0x01",
                    "parentHash" : "0x943a8a0e55551546cfc2b7de852ff9154dfc136d6478100a14b3e6b53c64ef32",
                    "receiptTrie" : "0x55fdffb4aa02f97c99ab8d58b60d22b8942ceb46a24cd8eeb7c8d50d9657290c",
                    "stateRoot" : "0x62d088b591acde35df21ea53a38c3079420f461437964e2c8d45fd1221093989",
                    "timestamp" : "0x03e8",
                    "transactionsTrie" : "0x52f3676263f0f03fdc10d35e1fe2edf010b483eecc40578e4ac4655eb584c720",
                    "uncleHash" : "0x1dcc4de8dec75d7aab85b567b6ccd41ad312451b948a7413f0a142fd40d49347"
                },
                "transactions" : [
                    {
                        "data" : "0x",
                        "gasLimit" : "0x0f4240",
                        "gasPrice" : "0x0c",
                        "nonce" : "0x00",
                        "r" : "0xcf507918503873b4ebb47f1095eeac4dfebe4b19aaf1229396b74115a41585b5",
                        "s" : "0x62f2d84064722404ed915ad916a396ae3576a6bf6ab349f7132b98869cfebe84",
                        "to" : "0x0f572e5295c57f15886f9b263e2f6d2d6c7b5ec6",
                        "v" : "0x1c",
                        "value" : "0x0b"
                    }
                ],
                "rlp" : "0xf90265f901fda0943a8a0e55551546cfc2b7de852ff9154dfc136d6478100a14b3e6b53c64ef32a01dcc4de8dec75d7aab85b567b6ccd41ad312451b948a7413f0a142fd40d49347942adc25665018aa1fe0e6bc666dac8fc2697ff9baa062d088b591acde35df21ea53a38c3079420f461437964e2c8d45fd1221093989a052f3676263f0f03fdc10d35e1fe2edf010b483eecc40578e4ac4655eb584c720a055fdffb4aa02f97c99ab8d58b60d22b8942ceb46a24cd8eeb7c8d50d9657290cb90100000000000000000000000000000000000000000000000000000000000000000000000000000000000000000000000000000000000000000000000000000000000000000000000000000000000000000000000000000000000000000000000000000000000000000000000000000000000000000000000000000000000000000000000000000000000000000000000000000000000000000000000000000000000000000000000000000000000000000000000000000000000000000000000000000000000000000000000000000000000000000000000000000000000000000000000000000000000000000000000000000000000000000000000000000000008302000001887fffffffffffffff830237ba8203e842a00000000000000000000000000000000000000000000000000000000000000000880000000000000000f862f860800c830f4240940f572e5295c57f15886f9b263e2f6d2d6c7b5ec60b801ca0cf507918503873b4ebb47f1095eeac4dfebe4b19aaf1229396b74115a41585b5a062f2d84064722404ed915ad916a396ae3576a6bf6ab349f7132b98869cfebe84c0"
            }
        ],
        "postState" : {
            "0x0f572e5295c57f15886f9b263e2f6d2d6c7b5ec6" : {
                "code" : "0x60026101000a6101000a600055600260ff0a6101000a60015560026101010a6101000a60025560026101000a60ff0a600355600260ff0a60ff0a60045560026101010a60ff0a60055560026101000a6101010a600655600260ff0a6101010a60075560026101010a6101010a60085500",
                "nonce" : "0x00",
                "balance" : "0x0de0b6b3a764000b",
                "storage" : {
                    "0x03" : "0x4ee4ceeaac565c81f55a87c43f82f7c889ef4fc7c679671e28d594ff7f000001",
                    "0x04" : "0x82f46a1b4e34d66712910615d2571d75606ceac51fa8ca8c58cf6ca881fe00ff",
                    "0x05" : "0x81c9fcefa5de158ae2007f25d35c0d11cd735342a48905955a5a6852800200ff",
                    "0x06" : "0x666ac362902470ed850709e2a29969d10cba09debc03c38d172aeaff81000001",
                    "0x07" : "0xeb30a3c678a01bde914548f98f3366dc0ffe9f85384ebf1111d03dad7ffe0101",
                    "0x08" : "0x72d0a7939b6303ce1d46e6e3f1b8be303bfdb2b00f41ad8076b0975782020101"
                }
            },
            "0x2adc25665018aa1fe0e6bc666dac8fc2697ff9ba" : {
                "code" : "0x",
                "nonce" : "0x00",
                "balance" : "0x1bc16d674ee29cb8",
                "storage" : {
                }
            },
            "0xa94f5374fce5edbc8e2a8697c15331677e6ebf0b" : {
                "code" : "0x",
                "nonce" : "0x01",
                "balance" : "0x7fffffffffe5632d",
                "storage" : {
                }
            }
        },
        "lastblockhash" : "0xff80b8dd75dd1b5283e3b3c331eae4b17c51793dffe522f3a3ae51e76d776f5a"
    }
}