{
    "expPowerOf256Of256_16_Berlin" : {
        "_info" : {
            "comment" : "Converted from VMTest source. ",
            "filling-rpc-server" : "evm version 1.10.2-unstable-22082f9e-20210309",
            "filling-tool-version" : "retesteth-0.1.0-accesslist+commit.47c69eb3.Linux.g++",
            "lllcversion" : "Version: 0.5.14-develop.2020.6.22+commit.9189ad7a.Linux.g++",
            "source" : "src/VMTestsFiller/vmArithmeticTest/expPowerOf256Of256_16Filler.json",
            "sourceHash" : "34791b0a5c045c2e7998ce8501c5a8c8de7452e41f86380c0c0fe05419648cc3"
        },
        "sealEngine" : "NoProof",
        "network" : "Berlin",
        "pre" : {
            "0x0f572e5295c57f15886f9b263e2f6d2d6c7b5ec6" : {
                "balance" : "0x0de0b6b3a7640000",
                "code" : "0x60106101000a6101000a600055601060ff0a6101000a60015560106101010a6101000a60025560106101000a60ff0a600355601060ff0a60ff0a60045560106101010a60ff0a60055560106101000a6101010a600655601060ff0a6101010a60075560106101010a6101010a60085500",
                "nonce" : "0x00",
                "storage" : {
                }
            },
            "0xa94f5374fce5edbc8e2a8697c15331677e6ebf0b" : {
                "balance" : "0x7ffffffffffffff0",
                "code" : "0x",
                "nonce" : "0x00",
                "storage" : {
                }
            }
        },
        "genesisBlockHeader" : {
            "bloom" : "0x00000000000000000000000000000000000000000000000000000000000000000000000000000000000000000000000000000000000000000000000000000000000000000000000000000000000000000000000000000000000000000000000000000000000000000000000000000000000000000000000000000000000000000000000000000000000000000000000000000000000000000000000000000000000000000000000000000000000000000000000000000000000000000000000000000000000000000000000000000000000000000000000000000000000000000000000000000000000000000000000000000000000000000000000000000000",
            "coinbase" : "0x2adc25665018aa1fe0e6bc666dac8fc2697ff9ba",
            "difficulty" : "0x020000",
            "extraData" : "0x42",
            "gasLimit" : "0x7fffffffffffffff",
            "gasUsed" : "0x00",
            "hash" : "0x4c632404535f95e6a021630145e86fa8525e30612ec567a832a63a88b044e0a5",
            "mixHash" : "0x0000000000000000000000000000000000000000000000000000000000000000",
            "nonce" : "0x0000000000000000",
            "number" : "0x00",
            "parentHash" : "0x0000000000000000000000000000000000000000000000000000000000000000",
            "receiptTrie" : "0x56e81f171bcc55a6ff8345e692c0f86e5b48e01b996cadc001622fb5e363b421",
            "stateRoot" : "0xd7e96f6e0ee969cabcec3f5f283087e04c88188a534d4ec68c67e2c7e91bcbde",
            "timestamp" : "0x00",
            "transactionsTrie" : "0x56e81f171bcc55a6ff8345e692c0f86e5b48e01b996cadc001622fb5e363b421",
            "uncleHash" : "0x1dcc4de8dec75d7aab85b567b6ccd41ad312451b948a7413f0a142fd40d49347"
        },
        "genesisRLP" : "0xf901fdf901f8a00000000000000000000000000000000000000000000000000000000000000000a01dcc4de8dec75d7aab85b567b6ccd41ad312451b948a7413f0a142fd40d49347942adc25665018aa1fe0e6bc666dac8fc2697ff9baa0d7e96f6e0ee969cabcec3f5f283087e04c88188a534d4ec68c67e2c7e91bcbdea056e81f171bcc55a6ff8345e692c0f86e5b48e01b996cadc001622fb5e363b421a056e81f171bcc55a6ff8345e692c0f86e5b48e01b996cadc001622fb5e363b421b90100000000000000000000000000000000000000000000000000000000000000000000000000000000000000000000000000000000000000000000000000000000000000000000000000000000000000000000000000000000000000000000000000000000000000000000000000000000000000000000000000000000000000000000000000000000000000000000000000000000000000000000000000000000000000000000000000000000000000000000000000000000000000000000000000000000000000000000000000000000000000000000000000000000000000000000000000000000000000000000000000000000000000000000000000000000008302000080887fffffffffffffff808042a00000000000000000000000000000000000000000000000000000000000000000880000000000000000c0c0",
        "blocks" : [
            {
                "chainname" : "default",
                "blocknumber" : "1",
                "uncleHeaders" : [
                ],
                "blockHeader" : {
                    "bloom" : "0x00000000000000000000000000000000000000000000000000000000000000000000000000000000000000000000000000000000000000000000000000000000000000000000000000000000000000000000000000000000000000000000000000000000000000000000000000000000000000000000000000000000000000000000000000000000000000000000000000000000000000000000000000000000000000000000000000000000000000000000000000000000000000000000000000000000000000000000000000000000000000000000000000000000000000000000000000000000000000000000000000000000000000000000000000000000",
                    "coinbase" : "0x2adc25665018aa1fe0e6bc666dac8fc2697ff9ba",
                    "difficulty" : "0x020000",
                    "extraData" : "0x42",
                    "gasLimit" : "0x7fffffffffffffff",
                    "gasUsed" : "0x0291f6",
                    "hash" : "0xc901a6c5fc7473ba3f0a5ea2e240b92a62167805a499936aca810aca35f3f693",
                    "mixHash" : "0x0000000000000000000000000000000000000000000000000000000000000000",
                    "nonce" : "0x0000000000000000",
                    "number" : "0x01",
                    "parentHash" : "0x4c632404535f95e6a021630145e86fa8525e30612ec567a832a63a88b044e0a5",
                    "receiptTrie" : "0xda9de45d2bffc025be351ec15db6fd6df497582e041863c1045cbb02058065a5",
                    "stateRoot" : "0x875f20e41f3104c3b10cd911804593fcb1293c026b1f195495ccabea207b6f11",
                    "timestamp" : "0x03e8",
                    "transactionsTrie" : "0x52f3676263f0f03fdc10d35e1fe2edf010b483eecc40578e4ac4655eb584c720",
                    "uncleHash" : "0x1dcc4de8dec75d7aab85b567b6ccd41ad312451b948a7413f0a142fd40d49347"
                },
                "transactions" : [
                    {
                        "data" : "0x",
                        "gasLimit" : "0x0f4240",
                        "gasPrice" : "0x0c",
                        "nonce" : "0x00",
                        "r" : "0xcf507918503873b4ebb47f1095eeac4dfebe4b19aaf1229396b74115a41585b5",
                        "s" : "0x62f2d84064722404ed915ad916a396ae3576a6bf6ab349f7132b98869cfebe84",
                        "to" : "0x0f572e5295c57f15886f9b263e2f6d2d6c7b5ec6",
                        "v" : "0x1c",
                        "value" : "0x0b"
                    }
                ],
                "rlp" : "0xf90265f901fda04c632404535f95e6a021630145e86fa8525e30612ec567a832a63a88b044e0a5a01dcc4de8dec75d7aab85b567b6ccd41ad312451b948a7413f0a142fd40d49347942adc25665018aa1fe0e6bc666dac8fc2697ff9baa0875f20e41f3104c3b10cd911804593fcb1293c026b1f195495ccabea207b6f11a052f3676263f0f03fdc10d35e1fe2edf010b483eecc40578e4ac4655eb584c720a0da9de45d2bffc025be351ec15db6fd6df497582e041863c1045cbb02058065a5b90100000000000000000000000000000000000000000000000000000000000000000000000000000000000000000000000000000000000000000000000000000000000000000000000000000000000000000000000000000000000000000000000000000000000000000000000000000000000000000000000000000000000000000000000000000000000000000000000000000000000000000000000000000000000000000000000000000000000000000000000000000000000000000000000000000000000000000000000000000000000000000000000000000000000000000000000000000000000000000000000000000000000000000000000000000000008302000001887fffffffffffffff830291f68203e842a00000000000000000000000000000000000000000000000000000000000000000880000000000000000f862f860800c830f4240940f572e5295c57f15886f9b263e2f6d2d6c7b5ec60b801ca0cf507918503873b4ebb47f1095eeac4dfebe4b19aaf1229396b74115a41585b5a062f2d84064722404ed915ad916a396ae3576a6bf6ab349f7132b98869cfebe84c0"
            }
        ],
        "postState" : {
            "0x0f572e5295c57f15886f9b263e2f6d2d6c7b5ec6" : {
                "code" : "0x60106101000a6101000a600055601060ff0a6101000a60015560106101010a6101000a60025560106101000a60ff0a600355601060ff0a60ff0a60045560106101010a60ff0a60055560106101000a6101010a600655601060ff0a6101010a60075560106101010a6101010a60085500",
                "nonce" : "0x00",
                "balance" : "0x0de0b6b3a764000b",
                "storage" : {
                    "0x03" : "0x82ec698218879ec55c33085514ff7f0000000000000000000000000000000001",
                    "0x04" : "0x3122f4bcdf6dd8b265cd18eb6af28c879aed44a35e0bf59273e39e6c7ff000ff",
                    "0x05" : "0x6a2b3bc87a02c29b9d27757df43047ecd0f15485270fca27417a701c701000ff",
                    "0x06" : "0x228fc9b0f000b68fb921f7aa6aff810000000000000000000000000000000001",
                    "0x07" : "0x88e1259502eef93d46060aacc9e2ff506c734dade0b6714ab12d17e46ff00101",
                    "0x08" : "0x4a103813c12c12169b218296bb0a9eae80cf8d2b158aa70eb990f99480100101"
                }
            },
            "0x2adc25665018aa1fe0e6bc666dac8fc2697ff9ba" : {
                "code" : "0x",
                "nonce" : "0x00",
                "balance" : "0x1bc16d674ee6d788",
                "storage" : {
                }
            },
            "0xa94f5374fce5edbc8e2a8697c15331677e6ebf0b" : {
                "code" : "0x",
                "nonce" : "0x01",
                "balance" : "0x7fffffffffe1285d",
                "storage" : {
                }
            }
        },
        "lastblockhash" : "0xc901a6c5fc7473ba3f0a5ea2e240b92a62167805a499936aca810aca35f3f693"
    },
    "expPowerOf256Of256_16_Istanbul" : {
        "_info" : {
            "comment" : "Converted from VMTest source. ",
            "filling-rpc-server" : "evm version 1.10.2-unstable-22082f9e-20210309",
            "filling-tool-version" : "retesteth-0.1.0-accesslist+commit.47c69eb3.Linux.g++",
            "lllcversion" : "Version: 0.5.14-develop.2020.6.22+commit.9189ad7a.Linux.g++",
            "source" : "src/VMTestsFiller/vmArithmeticTest/expPowerOf256Of256_16Filler.json",
            "sourceHash" : "34791b0a5c045c2e7998ce8501c5a8c8de7452e41f86380c0c0fe05419648cc3"
        },
        "sealEngine" : "NoProof",
        "network" : "Istanbul",
        "pre" : {
            "0x0f572e5295c57f15886f9b263e2f6d2d6c7b5ec6" : {
                "balance" : "0x0de0b6b3a7640000",
                "code" : "0x60106101000a6101000a600055601060ff0a6101000a60015560106101010a6101000a60025560106101000a60ff0a600355601060ff0a60ff0a60045560106101010a60ff0a60055560106101000a6101010a600655601060ff0a6101010a60075560106101010a6101010a60085500",
                "nonce" : "0x00",
                "storage" : {
                }
            },
            "0xa94f5374fce5edbc8e2a8697c15331677e6ebf0b" : {
                "balance" : "0x7ffffffffffffff0",
                "code" : "0x",
                "nonce" : "0x00",
                "storage" : {
                }
            }
        },
        "genesisBlockHeader" : {
            "bloom" : "0x00000000000000000000000000000000000000000000000000000000000000000000000000000000000000000000000000000000000000000000000000000000000000000000000000000000000000000000000000000000000000000000000000000000000000000000000000000000000000000000000000000000000000000000000000000000000000000000000000000000000000000000000000000000000000000000000000000000000000000000000000000000000000000000000000000000000000000000000000000000000000000000000000000000000000000000000000000000000000000000000000000000000000000000000000000000",
            "coinbase" : "0x2adc25665018aa1fe0e6bc666dac8fc2697ff9ba",
            "difficulty" : "0x020000",
            "extraData" : "0x42",
            "gasLimit" : "0x7fffffffffffffff",
            "gasUsed" : "0x00",
            "hash" : "0x4c632404535f95e6a021630145e86fa8525e30612ec567a832a63a88b044e0a5",
            "mixHash" : "0x0000000000000000000000000000000000000000000000000000000000000000",
            "nonce" : "0x0000000000000000",
            "number" : "0x00",
            "parentHash" : "0x0000000000000000000000000000000000000000000000000000000000000000",
            "receiptTrie" : "0x56e81f171bcc55a6ff8345e692c0f86e5b48e01b996cadc001622fb5e363b421",
            "stateRoot" : "0xd7e96f6e0ee969cabcec3f5f283087e04c88188a534d4ec68c67e2c7e91bcbde",
            "timestamp" : "0x00",
            "transactionsTrie" : "0x56e81f171bcc55a6ff8345e692c0f86e5b48e01b996cadc001622fb5e363b421",
            "uncleHash" : "0x1dcc4de8dec75d7aab85b567b6ccd41ad312451b948a7413f0a142fd40d49347"
        },
        "genesisRLP" : "0xf901fdf901f8a00000000000000000000000000000000000000000000000000000000000000000a01dcc4de8dec75d7aab85b567b6ccd41ad312451b948a7413f0a142fd40d49347942adc25665018aa1fe0e6bc666dac8fc2697ff9baa0d7e96f6e0ee969cabcec3f5f283087e04c88188a534d4ec68c67e2c7e91bcbdea056e81f171bcc55a6ff8345e692c0f86e5b48e01b996cadc001622fb5e363b421a056e81f171bcc55a6ff8345e692c0f86e5b48e01b996cadc001622fb5e363b421b90100000000000000000000000000000000000000000000000000000000000000000000000000000000000000000000000000000000000000000000000000000000000000000000000000000000000000000000000000000000000000000000000000000000000000000000000000000000000000000000000000000000000000000000000000000000000000000000000000000000000000000000000000000000000000000000000000000000000000000000000000000000000000000000000000000000000000000000000000000000000000000000000000000000000000000000000000000000000000000000000000000000000000000000000000000000008302000080887fffffffffffffff808042a00000000000000000000000000000000000000000000000000000000000000000880000000000000000c0c0",
        "blocks" : [
            {
                "chainname" : "default",
                "blocknumber" : "1",
                "uncleHeaders" : [
                ],
                "blockHeader" : {
                    "bloom" : "0x00000000000000000000000000000000000000000000000000000000000000000000000000000000000000000000000000000000000000000000000000000000000000000000000000000000000000000000000000000000000000000000000000000000000000000000000000000000000000000000000000000000000000000000000000000000000000000000000000000000000000000000000000000000000000000000000000000000000000000000000000000000000000000000000000000000000000000000000000000000000000000000000000000000000000000000000000000000000000000000000000000000000000000000000000000000",
                    "coinbase" : "0x2adc25665018aa1fe0e6bc666dac8fc2697ff9ba",
                    "difficulty" : "0x020000",
                    "extraData" : "0x42",
                    "gasLimit" : "0x7fffffffffffffff",
                    "gasUsed" : "0x025056",
                    "hash" : "0x34a06fcda277c12b43226a8d6d2b3fc33111c45013f9695d5a869ba44fc50809",
                    "mixHash" : "0x0000000000000000000000000000000000000000000000000000000000000000",
                    "nonce" : "0x0000000000000000",
                    "number" : "0x01",
                    "parentHash" : "0x4c632404535f95e6a021630145e86fa8525e30612ec567a832a63a88b044e0a5",
                    "receiptTrie" : "0x680afd98a3cbb021615d109653a38c4725e4e42b630b8959a8e49f1589770b9b",
                    "stateRoot" : "0x0ec0d3b1a3669bf7a901554b6585940247516c5699b6352bdcdfea81a75de0ba",
                    "timestamp" : "0x03e8",
                    "transactionsTrie" : "0x52f3676263f0f03fdc10d35e1fe2edf010b483eecc40578e4ac4655eb584c720",
                    "uncleHash" : "0x1dcc4de8dec75d7aab85b567b6ccd41ad312451b948a7413f0a142fd40d49347"
                },
                "transactions" : [
                    {
                        "data" : "0x",
                        "gasLimit" : "0x0f4240",
                        "gasPrice" : "0x0c",
                        "nonce" : "0x00",
                        "r" : "0xcf507918503873b4ebb47f1095eeac4dfebe4b19aaf1229396b74115a41585b5",
                        "s" : "0x62f2d84064722404ed915ad916a396ae3576a6bf6ab349f7132b98869cfebe84",
                        "to" : "0x0f572e5295c57f15886f9b263e2f6d2d6c7b5ec6",
                        "v" : "0x1c",
                        "value" : "0x0b"
                    }
                ],
                "rlp" : "0xf90265f901fda04c632404535f95e6a021630145e86fa8525e30612ec567a832a63a88b044e0a5a01dcc4de8dec75d7aab85b567b6ccd41ad312451b948a7413f0a142fd40d49347942adc25665018aa1fe0e6bc666dac8fc2697ff9baa00ec0d3b1a3669bf7a901554b6585940247516c5699b6352bdcdfea81a75de0baa052f3676263f0f03fdc10d35e1fe2edf010b483eecc40578e4ac4655eb584c720a0680afd98a3cbb021615d109653a38c4725e4e42b630b8959a8e49f1589770b9bb90100000000000000000000000000000000000000000000000000000000000000000000000000000000000000000000000000000000000000000000000000000000000000000000000000000000000000000000000000000000000000000000000000000000000000000000000000000000000000000000000000000000000000000000000000000000000000000000000000000000000000000000000000000000000000000000000000000000000000000000000000000000000000000000000000000000000000000000000000000000000000000000000000000000000000000000000000000000000000000000000000000000000000000000000000000000008302000001887fffffffffffffff830250568203e842a00000000000000000000000000000000000000000000000000000000000000000880000000000000000f862f860800c830f4240940f572e5295c57f15886f9b263e2f6d2d6c7b5ec60b801ca0cf507918503873b4ebb47f1095eeac4dfebe4b19aaf1229396b74115a41585b5a062f2d84064722404ed915ad916a396ae3576a6bf6ab349f7132b98869cfebe84c0"
            }
        ],
        "postState" : {
            "0x0f572e5295c57f15886f9b263e2f6d2d6c7b5ec6" : {
                "code" : "0x60106101000a6101000a600055601060ff0a6101000a60015560106101010a6101000a60025560106101000a60ff0a600355601060ff0a60ff0a60045560106101010a60ff0a60055560106101000a6101010a600655601060ff0a6101010a60075560106101010a6101010a60085500",
                "nonce" : "0x00",
                "balance" : "0x0de0b6b3a764000b",
                "storage" : {
                    "0x03" : "0x82ec698218879ec55c33085514ff7f0000000000000000000000000000000001",
                    "0x04" : "0x3122f4bcdf6dd8b265cd18eb6af28c879aed44a35e0bf59273e39e6c7ff000ff",
                    "0x05" : "0x6a2b3bc87a02c29b9d27757df43047ecd0f15485270fca27417a701c701000ff",
                    "0x06" : "0x228fc9b0f000b68fb921f7aa6aff810000000000000000000000000000000001",
                    "0x07" : "0x88e1259502eef93d46060aacc9e2ff506c734dade0b6714ab12d17e46ff00101",
                    "0x08" : "0x4a103813c12c12169b218296bb0a9eae80cf8d2b158aa70eb990f99480100101"
                }
            },
            "0x2adc25665018aa1fe0e6bc666dac8fc2697ff9ba" : {
                "code" : "0x",
                "nonce" : "0x00",
                "balance" : "0x1bc16d674ee3c408",
                "storage" : {
                }
            },
            "0xa94f5374fce5edbc8e2a8697c15331677e6ebf0b" : {
                "code" : "0x",
                "nonce" : "0x01",
                "balance" : "0x7fffffffffe43bdd",
                "storage" : {
                }
            }
        },
        "lastblockhash" : "0x34a06fcda277c12b43226a8d6d2b3fc33111c45013f9695d5a869ba44fc50809"
    }
}