{
    "expPowerOf256Of256_1_Berlin" : {
        "_info" : {
            "comment" : "Converted from VMTest source. ",
            "filling-rpc-server" : "evm version 1.9.24-unstable-b63e3c37-20201029",
            "filling-tool-version" : "retesteth-0.0.9-berlin+commit.60bef1d7.Linux.g++",
            "lllcversion" : "Version: 0.5.14-develop.2020.6.22+commit.9189ad7a.Linux.g++",
            "source" : "src/VMTestsFiller/vmArithmeticTest/expPowerOf256Of256_1Filler.json",
            "sourceHash" : "e598524d486352e22b7130a9d02b2b8334bbd63f4f704559f77a2c2bfc4e087f"
        },
        "sealEngine" : "NoProof",
        "network" : "Berlin",
        "pre" : {
            "0x0f572e5295c57f15886f9b263e2f6d2d6c7b5ec6" : {
                "balance" : "0x0de0b6b3a7640000",
                "code" : "0x60016101000a6101000a600055600160ff0a6101000a60015560016101010a6101000a60025560016101000a60ff0a600355600160ff0a60ff0a60045560016101010a60ff0a60055560016101000a6101010a600655600160ff0a6101010a60075560016101010a6101010a60085500",
                "nonce" : "0x00",
                "storage" : {
                }
            },
            "0xa94f5374fce5edbc8e2a8697c15331677e6ebf0b" : {
                "balance" : "0x7ffffffffffffff0",
                "code" : "0x",
                "nonce" : "0x00",
                "storage" : {
                }
            }
        },
        "genesisBlockHeader" : {
            "bloom" : "0x00000000000000000000000000000000000000000000000000000000000000000000000000000000000000000000000000000000000000000000000000000000000000000000000000000000000000000000000000000000000000000000000000000000000000000000000000000000000000000000000000000000000000000000000000000000000000000000000000000000000000000000000000000000000000000000000000000000000000000000000000000000000000000000000000000000000000000000000000000000000000000000000000000000000000000000000000000000000000000000000000000000000000000000000000000000",
            "coinbase" : "0x2adc25665018aa1fe0e6bc666dac8fc2697ff9ba",
            "difficulty" : "0x020000",
            "extraData" : "0x42",
            "gasLimit" : "0x7fffffffffffffff",
            "gasUsed" : "0x00",
            "hash" : "0x60725b1984e2230d692fed651740a6cf0114f02b151538fc8b33994a90ef2a3c",
            "mixHash" : "0x0000000000000000000000000000000000000000000000000000000000000000",
            "nonce" : "0x0000000000000000",
            "number" : "0x00",
            "parentHash" : "0x0000000000000000000000000000000000000000000000000000000000000000",
            "receiptTrie" : "0x56e81f171bcc55a6ff8345e692c0f86e5b48e01b996cadc001622fb5e363b421",
            "stateRoot" : "0x77989d995e61dac6c18499a50b6366e30305f952afa9dd4c10dd50437b417b9a",
            "timestamp" : "0x00",
            "transactionsTrie" : "0x56e81f171bcc55a6ff8345e692c0f86e5b48e01b996cadc001622fb5e363b421",
            "uncleHash" : "0x1dcc4de8dec75d7aab85b567b6ccd41ad312451b948a7413f0a142fd40d49347"
        },
        "genesisRLP" : "0xf901fdf901f8a00000000000000000000000000000000000000000000000000000000000000000a01dcc4de8dec75d7aab85b567b6ccd41ad312451b948a7413f0a142fd40d49347942adc25665018aa1fe0e6bc666dac8fc2697ff9baa077989d995e61dac6c18499a50b6366e30305f952afa9dd4c10dd50437b417b9aa056e81f171bcc55a6ff8345e692c0f86e5b48e01b996cadc001622fb5e363b421a056e81f171bcc55a6ff8345e692c0f86e5b48e01b996cadc001622fb5e363b421b90100000000000000000000000000000000000000000000000000000000000000000000000000000000000000000000000000000000000000000000000000000000000000000000000000000000000000000000000000000000000000000000000000000000000000000000000000000000000000000000000000000000000000000000000000000000000000000000000000000000000000000000000000000000000000000000000000000000000000000000000000000000000000000000000000000000000000000000000000000000000000000000000000000000000000000000000000000000000000000000000000000000000000000000000000000000008302000080887fffffffffffffff808042a00000000000000000000000000000000000000000000000000000000000000000880000000000000000c0c0",
        "blocks" : [
            {
                "chainname" : "default",
                "blocknumber" : "1",
                "uncleHeaders" : [
                ],
                "blockHeader" : {
                    "bloom" : "0x00000000000000000000000000000000000000000000000000000000000000000000000000000000000000000000000000000000000000000000000000000000000000000000000000000000000000000000000000000000000000000000000000000000000000000000000000000000000000000000000000000000000000000000000000000000000000000000000000000000000000000000000000000000000000000000000000000000000000000000000000000000000000000000000000000000000000000000000000000000000000000000000000000000000000000000000000000000000000000000000000000000000000000000000000000000",
                    "coinbase" : "0x2adc25665018aa1fe0e6bc666dac8fc2697ff9ba",
                    "difficulty" : "0x020000",
                    "extraData" : "0x42",
                    "gasLimit" : "0x7fffffffffffffff",
                    "gasUsed" : "0x027798",
                    "hash" : "0x87831812c58fd79129e8a0935b3fd7e15710998424b87df19c7ae03939781d6e",
                    "mixHash" : "0x0000000000000000000000000000000000000000000000000000000000000000",
                    "nonce" : "0x0000000000000000",
                    "number" : "0x01",
                    "parentHash" : "0x60725b1984e2230d692fed651740a6cf0114f02b151538fc8b33994a90ef2a3c",
                    "receiptTrie" : "0x76b9a45a480fadd6b2fa08e019387ef9397344158bf962b4ebdb806e8b40bcc5",
                    "stateRoot" : "0x7334d0e869724a09381fdeb54aac160c562f34b706963636fa2ac3fa7b911349",
                    "timestamp" : "0x03e8",
                    "transactionsTrie" : "0x52f3676263f0f03fdc10d35e1fe2edf010b483eecc40578e4ac4655eb584c720",
                    "uncleHash" : "0x1dcc4de8dec75d7aab85b567b6ccd41ad312451b948a7413f0a142fd40d49347"
                },
                "transactions" : [
                    {
                        "data" : "0x",
                        "gasLimit" : "0x0f4240",
                        "gasPrice" : "0x0c",
                        "nonce" : "0x00",
                        "r" : "0xcf507918503873b4ebb47f1095eeac4dfebe4b19aaf1229396b74115a41585b5",
                        "s" : "0x62f2d84064722404ed915ad916a396ae3576a6bf6ab349f7132b98869cfebe84",
                        "to" : "0x0f572e5295c57f15886f9b263e2f6d2d6c7b5ec6",
                        "v" : "0x1c",
                        "value" : "0x0b"
                    }
                ],
                "rlp" : "0xf90265f901fda060725b1984e2230d692fed651740a6cf0114f02b151538fc8b33994a90ef2a3ca01dcc4de8dec75d7aab85b567b6ccd41ad312451b948a7413f0a142fd40d49347942adc25665018aa1fe0e6bc666dac8fc2697ff9baa07334d0e869724a09381fdeb54aac160c562f34b706963636fa2ac3fa7b911349a052f3676263f0f03fdc10d35e1fe2edf010b483eecc40578e4ac4655eb584c720a076b9a45a480fadd6b2fa08e019387ef9397344158bf962b4ebdb806e8b40bcc5b90100000000000000000000000000000000000000000000000000000000000000000000000000000000000000000000000000000000000000000000000000000000000000000000000000000000000000000000000000000000000000000000000000000000000000000000000000000000000000000000000000000000000000000000000000000000000000000000000000000000000000000000000000000000000000000000000000000000000000000000000000000000000000000000000000000000000000000000000000000000000000000000000000000000000000000000000000000000000000000000000000000000000000000000000000000000008302000001887fffffffffffffff830277988203e842a00000000000000000000000000000000000000000000000000000000000000000880000000000000000f862f860800c830f4240940f572e5295c57f15886f9b263e2f6d2d6c7b5ec60b801ca0cf507918503873b4ebb47f1095eeac4dfebe4b19aaf1229396b74115a41585b5a062f2d84064722404ed915ad916a396ae3576a6bf6ab349f7132b98869cfebe84c0"
            }
        ],
        "postState" : {
            "0x0f572e5295c57f15886f9b263e2f6d2d6c7b5ec6" : {
                "code" : "0x60016101000a6101000a600055600160ff0a6101000a60015560016101010a6101000a60025560016101000a60ff0a600355600160ff0a60ff0a60045560016101010a60ff0a60055560016101000a6101010a600655600160ff0a6101010a60075560016101010a6101010a60085500",
                "nonce" : "0x00",
                "balance" : "0x0de0b6b3a764000b",
                "storage" : {
                    "0x03" : "0x06c3acd330b959ad6efabce6d2d2125e73a88a65a9880d203dddf5957f7f0001",
                    "0x04" : "0x8f965a06da0ac41dcb3a34f1d8ab7d8fee620a94faa42c395997756b007ffeff",
                    "0x05" : "0xbce9265d88a053c18bc229ebff404c1534e1db43de85131da0179fe9ff8100ff",
                    "0x06" : "0x02b5e9d7a094c19f5ebdd4f2e618f859ed15e4f1f0351f286bf849eb7f810001",
                    "0x07" : "0xc73b7a6f68385c653a24993bb72eea0e4ba17470816ec658cf9c5bedfd81ff01",
                    "0x08" : "0xb89fc178355660fe1c92c7d8ff11524702fad6e2255447946442356b00810101"
                }
            },
            "0x2adc25665018aa1fe0e6bc666dac8fc2697ff9ba" : {
                "code" : "0x",
                "nonce" : "0x00",
                "balance" : "0x1bc16d674ee59b20",
                "storage" : {
                }
            },
            "0xa94f5374fce5edbc8e2a8697c15331677e6ebf0b" : {
                "code" : "0x",
                "nonce" : "0x01",
                "balance" : "0x7fffffffffe264c5",
                "storage" : {
                }
            }
        },
        "lastblockhash" : "0x87831812c58fd79129e8a0935b3fd7e15710998424b87df19c7ae03939781d6e"
    },
    "expPowerOf256Of256_1_Istanbul" : {
        "_info" : {
            "comment" : "Converted from VMTest source. ",
            "filling-rpc-server" : "evm version 1.9.24-unstable-b63e3c37-20201029",
            "filling-tool-version" : "retesteth-0.0.9-berlin+commit.60bef1d7.Linux.g++",
            "lllcversion" : "Version: 0.5.14-develop.2020.6.22+commit.9189ad7a.Linux.g++",
            "source" : "src/VMTestsFiller/vmArithmeticTest/expPowerOf256Of256_1Filler.json",
            "sourceHash" : "e598524d486352e22b7130a9d02b2b8334bbd63f4f704559f77a2c2bfc4e087f"
        },
        "sealEngine" : "NoProof",
        "network" : "Istanbul",
        "pre" : {
            "0x0f572e5295c57f15886f9b263e2f6d2d6c7b5ec6" : {
                "balance" : "0x0de0b6b3a7640000",
                "code" : "0x60016101000a6101000a600055600160ff0a6101000a60015560016101010a6101000a60025560016101000a60ff0a600355600160ff0a60ff0a60045560016101010a60ff0a60055560016101000a6101010a600655600160ff0a6101010a60075560016101010a6101010a60085500",
                "nonce" : "0x00",
                "storage" : {
                }
            },
            "0xa94f5374fce5edbc8e2a8697c15331677e6ebf0b" : {
                "balance" : "0x7ffffffffffffff0",
                "code" : "0x",
                "nonce" : "0x00",
                "storage" : {
                }
            }
        },
        "genesisBlockHeader" : {
            "bloom" : "0x00000000000000000000000000000000000000000000000000000000000000000000000000000000000000000000000000000000000000000000000000000000000000000000000000000000000000000000000000000000000000000000000000000000000000000000000000000000000000000000000000000000000000000000000000000000000000000000000000000000000000000000000000000000000000000000000000000000000000000000000000000000000000000000000000000000000000000000000000000000000000000000000000000000000000000000000000000000000000000000000000000000000000000000000000000000",
            "coinbase" : "0x2adc25665018aa1fe0e6bc666dac8fc2697ff9ba",
            "difficulty" : "0x020000",
            "extraData" : "0x42",
            "gasLimit" : "0x7fffffffffffffff",
            "gasUsed" : "0x00",
            "hash" : "0x60725b1984e2230d692fed651740a6cf0114f02b151538fc8b33994a90ef2a3c",
            "mixHash" : "0x0000000000000000000000000000000000000000000000000000000000000000",
            "nonce" : "0x0000000000000000",
            "number" : "0x00",
            "parentHash" : "0x0000000000000000000000000000000000000000000000000000000000000000",
            "receiptTrie" : "0x56e81f171bcc55a6ff8345e692c0f86e5b48e01b996cadc001622fb5e363b421",
            "stateRoot" : "0x77989d995e61dac6c18499a50b6366e30305f952afa9dd4c10dd50437b417b9a",
            "timestamp" : "0x00",
            "transactionsTrie" : "0x56e81f171bcc55a6ff8345e692c0f86e5b48e01b996cadc001622fb5e363b421",
            "uncleHash" : "0x1dcc4de8dec75d7aab85b567b6ccd41ad312451b948a7413f0a142fd40d49347"
        },
        "genesisRLP" : "0xf901fdf901f8a00000000000000000000000000000000000000000000000000000000000000000a01dcc4de8dec75d7aab85b567b6ccd41ad312451b948a7413f0a142fd40d49347942adc25665018aa1fe0e6bc666dac8fc2697ff9baa077989d995e61dac6c18499a50b6366e30305f952afa9dd4c10dd50437b417b9aa056e81f171bcc55a6ff8345e692c0f86e5b48e01b996cadc001622fb5e363b421a056e81f171bcc55a6ff8345e692c0f86e5b48e01b996cadc001622fb5e363b421b90100000000000000000000000000000000000000000000000000000000000000000000000000000000000000000000000000000000000000000000000000000000000000000000000000000000000000000000000000000000000000000000000000000000000000000000000000000000000000000000000000000000000000000000000000000000000000000000000000000000000000000000000000000000000000000000000000000000000000000000000000000000000000000000000000000000000000000000000000000000000000000000000000000000000000000000000000000000000000000000000000000000000000000000000000000000008302000080887fffffffffffffff808042a00000000000000000000000000000000000000000000000000000000000000000880000000000000000c0c0",
        "blocks" : [
            {
                "chainname" : "default",
                "blocknumber" : "1",
                "uncleHeaders" : [
                ],
                "blockHeader" : {
                    "bloom" : "0x00000000000000000000000000000000000000000000000000000000000000000000000000000000000000000000000000000000000000000000000000000000000000000000000000000000000000000000000000000000000000000000000000000000000000000000000000000000000000000000000000000000000000000000000000000000000000000000000000000000000000000000000000000000000000000000000000000000000000000000000000000000000000000000000000000000000000000000000000000000000000000000000000000000000000000000000000000000000000000000000000000000000000000000000000000000",
                    "coinbase" : "0x2adc25665018aa1fe0e6bc666dac8fc2697ff9ba",
                    "difficulty" : "0x020000",
                    "extraData" : "0x42",
                    "gasLimit" : "0x7fffffffffffffff",
                    "gasUsed" : "0x0235f8",
                    "hash" : "0x73aee8abe684ea5ee62f677d18693a2dbdd8e4c42da6d0011a5250fb3d0a7533",
                    "mixHash" : "0x0000000000000000000000000000000000000000000000000000000000000000",
                    "nonce" : "0x0000000000000000",
                    "number" : "0x01",
                    "parentHash" : "0x60725b1984e2230d692fed651740a6cf0114f02b151538fc8b33994a90ef2a3c",
                    "receiptTrie" : "0xcdb3baaf4bfc3436aeccbf7b33212f79750fb2e5c390bbe6237c6ebcd7a71840",
                    "stateRoot" : "0x41753ff1ecfe063262a3e19c7a74d44b46f07777b95c8facf13df40071e45601",
                    "timestamp" : "0x03e8",
                    "transactionsTrie" : "0x52f3676263f0f03fdc10d35e1fe2edf010b483eecc40578e4ac4655eb584c720",
                    "uncleHash" : "0x1dcc4de8dec75d7aab85b567b6ccd41ad312451b948a7413f0a142fd40d49347"
                },
                "transactions" : [
                    {
                        "data" : "0x",
                        "gasLimit" : "0x0f4240",
                        "gasPrice" : "0x0c",
                        "nonce" : "0x00",
                        "r" : "0xcf507918503873b4ebb47f1095eeac4dfebe4b19aaf1229396b74115a41585b5",
                        "s" : "0x62f2d84064722404ed915ad916a396ae3576a6bf6ab349f7132b98869cfebe84",
                        "to" : "0x0f572e5295c57f15886f9b263e2f6d2d6c7b5ec6",
                        "v" : "0x1c",
                        "value" : "0x0b"
                    }
                ],
                "rlp" : "0xf90265f901fda060725b1984e2230d692fed651740a6cf0114f02b151538fc8b33994a90ef2a3ca01dcc4de8dec75d7aab85b567b6ccd41ad312451b948a7413f0a142fd40d49347942adc25665018aa1fe0e6bc666dac8fc2697ff9baa041753ff1ecfe063262a3e19c7a74d44b46f07777b95c8facf13df40071e45601a052f3676263f0f03fdc10d35e1fe2edf010b483eecc40578e4ac4655eb584c720a0cdb3baaf4bfc3436aeccbf7b33212f79750fb2e5c390bbe6237c6ebcd7a71840b90100000000000000000000000000000000000000000000000000000000000000000000000000000000000000000000000000000000000000000000000000000000000000000000000000000000000000000000000000000000000000000000000000000000000000000000000000000000000000000000000000000000000000000000000000000000000000000000000000000000000000000000000000000000000000000000000000000000000000000000000000000000000000000000000000000000000000000000000000000000000000000000000000000000000000000000000000000000000000000000000000000000000000000000000000000000008302000001887fffffffffffffff830235f88203e842a00000000000000000000000000000000000000000000000000000000000000000880000000000000000f862f860800c830f4240940f572e5295c57f15886f9b263e2f6d2d6c7b5ec60b801ca0cf507918503873b4ebb47f1095eeac4dfebe4b19aaf1229396b74115a41585b5a062f2d84064722404ed915ad916a396ae3576a6bf6ab349f7132b98869cfebe84c0"
            }
        ],
        "postState" : {
            "0x0f572e5295c57f15886f9b263e2f6d2d6c7b5ec6" : {
                "code" : "0x60016101000a6101000a600055600160ff0a6101000a60015560016101010a6101000a60025560016101000a60ff0a600355600160ff0a60ff0a60045560016101010a60ff0a60055560016101000a6101010a600655600160ff0a6101010a60075560016101010a6101010a60085500",
                "nonce" : "0x00",
                "balance" : "0x0de0b6b3a764000b",
                "storage" : {
                    "0x03" : "0x06c3acd330b959ad6efabce6d2d2125e73a88a65a9880d203dddf5957f7f0001",
                    "0x04" : "0x8f965a06da0ac41dcb3a34f1d8ab7d8fee620a94faa42c395997756b007ffeff",
                    "0x05" : "0xbce9265d88a053c18bc229ebff404c1534e1db43de85131da0179fe9ff8100ff",
                    "0x06" : "0x02b5e9d7a094c19f5ebdd4f2e618f859ed15e4f1f0351f286bf849eb7f810001",
                    "0x07" : "0xc73b7a6f68385c653a24993bb72eea0e4ba17470816ec658cf9c5bedfd81ff01",
                    "0x08" : "0xb89fc178355660fe1c92c7d8ff11524702fad6e2255447946442356b00810101"
                }
            },
            "0x2adc25665018aa1fe0e6bc666dac8fc2697ff9ba" : {
                "code" : "0x",
                "nonce" : "0x00",
                "balance" : "0x1bc16d674ee287a0",
                "storage" : {
                }
            },
            "0xa94f5374fce5edbc8e2a8697c15331677e6ebf0b" : {
                "code" : "0x",
                "nonce" : "0x01",
                "balance" : "0x7fffffffffe57845",
                "storage" : {
                }
            }
        },
        "lastblockhash" : "0x73aee8abe684ea5ee62f677d18693a2dbdd8e4c42da6d0011a5250fb3d0a7533"
    }
}