{
    "expPowerOf256Of256_26_Berlin" : {
        "_info" : {
            "comment" : "Converted from VMTest source. ",
            "filling-rpc-server" : "evm version 1.9.24-unstable-b63e3c37-20201029",
            "filling-tool-version" : "retesteth-0.0.9-berlin+commit.60bef1d7.Linux.g++",
            "lllcversion" : "Version: 0.5.14-develop.2020.6.22+commit.9189ad7a.Linux.g++",
            "source" : "src/VMTestsFiller/vmArithmeticTest/expPowerOf256Of256_26Filler.json",
            "sourceHash" : "91155b6c8b8046e52ba081d310aeaa31ab62e5efe023791f7fbfc4607820c53b"
        },
        "sealEngine" : "NoProof",
        "network" : "Berlin",
        "pre" : {
            "0x0f572e5295c57f15886f9b263e2f6d2d6c7b5ec6" : {
                "balance" : "0x0de0b6b3a7640000",
                "code" : "0x601a6101000a6101000a600055601a60ff0a6101000a600155601a6101010a6101000a600255601a6101000a60ff0a600355601a60ff0a60ff0a600455601a6101010a60ff0a600555601a6101000a6101010a600655601a60ff0a6101010a600755601a6101010a6101010a60085500",
                "nonce" : "0x00",
                "storage" : {
                }
            },
            "0xa94f5374fce5edbc8e2a8697c15331677e6ebf0b" : {
                "balance" : "0x7ffffffffffffff0",
                "code" : "0x",
                "nonce" : "0x00",
                "storage" : {
                }
            }
        },
        "genesisBlockHeader" : {
            "bloom" : "0x00000000000000000000000000000000000000000000000000000000000000000000000000000000000000000000000000000000000000000000000000000000000000000000000000000000000000000000000000000000000000000000000000000000000000000000000000000000000000000000000000000000000000000000000000000000000000000000000000000000000000000000000000000000000000000000000000000000000000000000000000000000000000000000000000000000000000000000000000000000000000000000000000000000000000000000000000000000000000000000000000000000000000000000000000000000",
            "coinbase" : "0x2adc25665018aa1fe0e6bc666dac8fc2697ff9ba",
            "difficulty" : "0x020000",
            "extraData" : "0x42",
            "gasLimit" : "0x7fffffffffffffff",
            "gasUsed" : "0x00",
            "hash" : "0x0b89488b9dfba0a72418e9e7666bbffb1aeb81705d7f3165a4defcaa7a014e5b",
            "mixHash" : "0x0000000000000000000000000000000000000000000000000000000000000000",
            "nonce" : "0x0000000000000000",
            "number" : "0x00",
            "parentHash" : "0x0000000000000000000000000000000000000000000000000000000000000000",
            "receiptTrie" : "0x56e81f171bcc55a6ff8345e692c0f86e5b48e01b996cadc001622fb5e363b421",
            "stateRoot" : "0xd6921ba14fc87aadae4dbe0ff74f1a62dbe3c8e5976e6e28cc240556b12d1664",
            "timestamp" : "0x00",
            "transactionsTrie" : "0x56e81f171bcc55a6ff8345e692c0f86e5b48e01b996cadc001622fb5e363b421",
            "uncleHash" : "0x1dcc4de8dec75d7aab85b567b6ccd41ad312451b948a7413f0a142fd40d49347"
        },
        "genesisRLP" : "0xf901fdf901f8a00000000000000000000000000000000000000000000000000000000000000000a01dcc4de8dec75d7aab85b567b6ccd41ad312451b948a7413f0a142fd40d49347942adc25665018aa1fe0e6bc666dac8fc2697ff9baa0d6921ba14fc87aadae4dbe0ff74f1a62dbe3c8e5976e6e28cc240556b12d1664a056e81f171bcc55a6ff8345e692c0f86e5b48e01b996cadc001622fb5e363b421a056e81f171bcc55a6ff8345e692c0f86e5b48e01b996cadc001622fb5e363b421b90100000000000000000000000000000000000000000000000000000000000000000000000000000000000000000000000000000000000000000000000000000000000000000000000000000000000000000000000000000000000000000000000000000000000000000000000000000000000000000000000000000000000000000000000000000000000000000000000000000000000000000000000000000000000000000000000000000000000000000000000000000000000000000000000000000000000000000000000000000000000000000000000000000000000000000000000000000000000000000000000000000000000000000000000000000000008302000080887fffffffffffffff808042a00000000000000000000000000000000000000000000000000000000000000000880000000000000000c0c0",
        "blocks" : [
            {
                "chainname" : "default",
                "blocknumber" : "1",
                "uncleHeaders" : [
                ],
                "blockHeader" : {
                    "bloom" : "0x00000000000000000000000000000000000000000000000000000000000000000000000000000000000000000000000000000000000000000000000000000000000000000000000000000000000000000000000000000000000000000000000000000000000000000000000000000000000000000000000000000000000000000000000000000000000000000000000000000000000000000000000000000000000000000000000000000000000000000000000000000000000000000000000000000000000000000000000000000000000000000000000000000000000000000000000000000000000000000000000000000000000000000000000000000000",
                    "coinbase" : "0x2adc25665018aa1fe0e6bc666dac8fc2697ff9ba",
                    "difficulty" : "0x020000",
                    "extraData" : "0x42",
                    "gasLimit" : "0x7fffffffffffffff",
                    "gasUsed" : "0x02a38a",
                    "hash" : "0x2f769015258e900d39f6efaeb750b68cf93b513ec600077ed3d3a43f6f1bbc0f",
                    "mixHash" : "0x0000000000000000000000000000000000000000000000000000000000000000",
                    "nonce" : "0x0000000000000000",
                    "number" : "0x01",
                    "parentHash" : "0x0b89488b9dfba0a72418e9e7666bbffb1aeb81705d7f3165a4defcaa7a014e5b",
                    "receiptTrie" : "0x24fd86a4db42646f382cb73c68102703ba4c882711e26602ddeba6011e9bbbae",
                    "stateRoot" : "0xaf58d5aeadbfdd9b4f820e31f5e126f49dc7ba993a050af5b5738fe81fa2aafa",
                    "timestamp" : "0x03e8",
                    "transactionsTrie" : "0x52f3676263f0f03fdc10d35e1fe2edf010b483eecc40578e4ac4655eb584c720",
                    "uncleHash" : "0x1dcc4de8dec75d7aab85b567b6ccd41ad312451b948a7413f0a142fd40d49347"
                },
                "transactions" : [
                    {
                        "data" : "0x",
                        "gasLimit" : "0x0f4240",
                        "gasPrice" : "0x0c",
                        "nonce" : "0x00",
                        "r" : "0xcf507918503873b4ebb47f1095eeac4dfebe4b19aaf1229396b74115a41585b5",
                        "s" : "0x62f2d84064722404ed915ad916a396ae3576a6bf6ab349f7132b98869cfebe84",
                        "to" : "0x0f572e5295c57f15886f9b263e2f6d2d6c7b5ec6",
                        "v" : "0x1c",
                        "value" : "0x0b"
                    }
                ],
                "rlp" : "0xf90265f901fda00b89488b9dfba0a72418e9e7666bbffb1aeb81705d7f3165a4defcaa7a014e5ba01dcc4de8dec75d7aab85b567b6ccd41ad312451b948a7413f0a142fd40d49347942adc25665018aa1fe0e6bc666dac8fc2697ff9baa0af58d5aeadbfdd9b4f820e31f5e126f49dc7ba993a050af5b5738fe81fa2aafaa052f3676263f0f03fdc10d35e1fe2edf010b483eecc40578e4ac4655eb584c720a024fd86a4db42646f382cb73c68102703ba4c882711e26602ddeba6011e9bbbaeb90100000000000000000000000000000000000000000000000000000000000000000000000000000000000000000000000000000000000000000000000000000000000000000000000000000000000000000000000000000000000000000000000000000000000000000000000000000000000000000000000000000000000000000000000000000000000000000000000000000000000000000000000000000000000000000000000000000000000000000000000000000000000000000000000000000000000000000000000000000000000000000000000000000000000000000000000000000000000000000000000000000000000000000000000000000000008302000001887fffffffffffffff8302a38a8203e842a00000000000000000000000000000000000000000000000000000000000000000880000000000000000f862f860800c830f4240940f572e5295c57f15886f9b263e2f6d2d6c7b5ec60b801ca0cf507918503873b4ebb47f1095eeac4dfebe4b19aaf1229396b74115a41585b5a062f2d84064722404ed915ad916a396ae3576a6bf6ab349f7132b98869cfebe84c0"
            }
        ],
        "postState" : {
            "0x0f572e5295c57f15886f9b263e2f6d2d6c7b5ec6" : {
                "code" : "0x601a6101000a6101000a600055601a60ff0a6101000a600155601a6101010a6101000a600255601a6101000a60ff0a600355601a60ff0a60ff0a600455601a6101010a60ff0a600555601a6101000a6101010a600655601a60ff0a6101010a600755601a6101010a6101010a60085500",
                "nonce" : "0x00",
                "balance" : "0x0de0b6b3a764000b",
                "storage" : {
                    "0x03" : "0x085514ff7f000000000000000000000000000000000000000000000000000001",
                    "0x04" : "0x1d164db738eb6893868b361ad2803f97be35764456e82a837667a693d1e600ff",
                    "0x05" : "0x8b92c24abebf376a5aab5ff4dfd3538a03d38a10bced2aae8e1a8a85b81a00ff",
                    "0x06" : "0xf7aa6aff81000000000000000000000000000000000000000000000000000001",
                    "0x07" : "0x6931bda98c70e860a1f6a5224940f1ec7e6734cd9456c95806384f7cb7e60101",
                    "0x08" : "0x3402a9db66492dfc2a220715e76243469462f24edc56903ba1d8e96ed21a0101"
                }
            },
            "0x2adc25665018aa1fe0e6bc666dac8fc2697ff9ba" : {
                "code" : "0x",
                "nonce" : "0x00",
                "balance" : "0x1bc16d674ee7aa78",
                "storage" : {
                }
            },
            "0xa94f5374fce5edbc8e2a8697c15331677e6ebf0b" : {
                "code" : "0x",
                "nonce" : "0x01",
                "balance" : "0x7fffffffffe0556d",
                "storage" : {
                }
            }
        },
        "lastblockhash" : "0x2f769015258e900d39f6efaeb750b68cf93b513ec600077ed3d3a43f6f1bbc0f"
    },
    "expPowerOf256Of256_26_Istanbul" : {
        "_info" : {
            "comment" : "Converted from VMTest source. ",
            "filling-rpc-server" : "evm version 1.9.24-unstable-b63e3c37-20201029",
            "filling-tool-version" : "retesteth-0.0.9-berlin+commit.60bef1d7.Linux.g++",
            "lllcversion" : "Version: 0.5.14-develop.2020.6.22+commit.9189ad7a.Linux.g++",
            "source" : "src/VMTestsFiller/vmArithmeticTest/expPowerOf256Of256_26Filler.json",
            "sourceHash" : "91155b6c8b8046e52ba081d310aeaa31ab62e5efe023791f7fbfc4607820c53b"
        },
        "sealEngine" : "NoProof",
        "network" : "Istanbul",
        "pre" : {
            "0x0f572e5295c57f15886f9b263e2f6d2d6c7b5ec6" : {
                "balance" : "0x0de0b6b3a7640000",
                "code" : "0x601a6101000a6101000a600055601a60ff0a6101000a600155601a6101010a6101000a600255601a6101000a60ff0a600355601a60ff0a60ff0a600455601a6101010a60ff0a600555601a6101000a6101010a600655601a60ff0a6101010a600755601a6101010a6101010a60085500",
                "nonce" : "0x00",
                "storage" : {
                }
            },
            "0xa94f5374fce5edbc8e2a8697c15331677e6ebf0b" : {
                "balance" : "0x7ffffffffffffff0",
                "code" : "0x",
                "nonce" : "0x00",
                "storage" : {
                }
            }
        },
        "genesisBlockHeader" : {
            "bloom" : "0x00000000000000000000000000000000000000000000000000000000000000000000000000000000000000000000000000000000000000000000000000000000000000000000000000000000000000000000000000000000000000000000000000000000000000000000000000000000000000000000000000000000000000000000000000000000000000000000000000000000000000000000000000000000000000000000000000000000000000000000000000000000000000000000000000000000000000000000000000000000000000000000000000000000000000000000000000000000000000000000000000000000000000000000000000000000",
            "coinbase" : "0x2adc25665018aa1fe0e6bc666dac8fc2697ff9ba",
            "difficulty" : "0x020000",
            "extraData" : "0x42",
            "gasLimit" : "0x7fffffffffffffff",
            "gasUsed" : "0x00",
            "hash" : "0x0b89488b9dfba0a72418e9e7666bbffb1aeb81705d7f3165a4defcaa7a014e5b",
            "mixHash" : "0x0000000000000000000000000000000000000000000000000000000000000000",
            "nonce" : "0x0000000000000000",
            "number" : "0x00",
            "parentHash" : "0x0000000000000000000000000000000000000000000000000000000000000000",
            "receiptTrie" : "0x56e81f171bcc55a6ff8345e692c0f86e5b48e01b996cadc001622fb5e363b421",
            "stateRoot" : "0xd6921ba14fc87aadae4dbe0ff74f1a62dbe3c8e5976e6e28cc240556b12d1664",
            "timestamp" : "0x00",
            "transactionsTrie" : "0x56e81f171bcc55a6ff8345e692c0f86e5b48e01b996cadc001622fb5e363b421",
            "uncleHash" : "0x1dcc4de8dec75d7aab85b567b6ccd41ad312451b948a7413f0a142fd40d49347"
        },
        "genesisRLP" : "0xf901fdf901f8a00000000000000000000000000000000000000000000000000000000000000000a01dcc4de8dec75d7aab85b567b6ccd41ad312451b948a7413f0a142fd40d49347942adc25665018aa1fe0e6bc666dac8fc2697ff9baa0d6921ba14fc87aadae4dbe0ff74f1a62dbe3c8e5976e6e28cc240556b12d1664a056e81f171bcc55a6ff8345e692c0f86e5b48e01b996cadc001622fb5e363b421a056e81f171bcc55a6ff8345e692c0f86e5b48e01b996cadc001622fb5e363b421b90100000000000000000000000000000000000000000000000000000000000000000000000000000000000000000000000000000000000000000000000000000000000000000000000000000000000000000000000000000000000000000000000000000000000000000000000000000000000000000000000000000000000000000000000000000000000000000000000000000000000000000000000000000000000000000000000000000000000000000000000000000000000000000000000000000000000000000000000000000000000000000000000000000000000000000000000000000000000000000000000000000000000000000000000000000000008302000080887fffffffffffffff808042a00000000000000000000000000000000000000000000000000000000000000000880000000000000000c0c0",
        "blocks" : [
            {
                "chainname" : "default",
                "blocknumber" : "1",
                "uncleHeaders" : [
                ],
                "blockHeader" : {
                    "bloom" : "0x00000000000000000000000000000000000000000000000000000000000000000000000000000000000000000000000000000000000000000000000000000000000000000000000000000000000000000000000000000000000000000000000000000000000000000000000000000000000000000000000000000000000000000000000000000000000000000000000000000000000000000000000000000000000000000000000000000000000000000000000000000000000000000000000000000000000000000000000000000000000000000000000000000000000000000000000000000000000000000000000000000000000000000000000000000000",
                    "coinbase" : "0x2adc25665018aa1fe0e6bc666dac8fc2697ff9ba",
                    "difficulty" : "0x020000",
                    "extraData" : "0x42",
                    "gasLimit" : "0x7fffffffffffffff",
                    "gasUsed" : "0x0261ea",
                    "hash" : "0x75929586d6b6abe054eda21557eb1406558a5eb06bc16fef419c12413df99308",
                    "mixHash" : "0x0000000000000000000000000000000000000000000000000000000000000000",
                    "nonce" : "0x0000000000000000",
                    "number" : "0x01",
                    "parentHash" : "0x0b89488b9dfba0a72418e9e7666bbffb1aeb81705d7f3165a4defcaa7a014e5b",
                    "receiptTrie" : "0xc8f40a0571865fa6004c1658ecd4480a021c2f860faa13d8e036bbbd04aa9064",
                    "stateRoot" : "0x0dc3a9424202ed0eeec2e7928922365514eabb1083ce344346fe356b263fbcdd",
                    "timestamp" : "0x03e8",
                    "transactionsTrie" : "0x52f3676263f0f03fdc10d35e1fe2edf010b483eecc40578e4ac4655eb584c720",
                    "uncleHash" : "0x1dcc4de8dec75d7aab85b567b6ccd41ad312451b948a7413f0a142fd40d49347"
                },
                "transactions" : [
                    {
                        "data" : "0x",
                        "gasLimit" : "0x0f4240",
                        "gasPrice" : "0x0c",
                        "nonce" : "0x00",
                        "r" : "0xcf507918503873b4ebb47f1095eeac4dfebe4b19aaf1229396b74115a41585b5",
                        "s" : "0x62f2d84064722404ed915ad916a396ae3576a6bf6ab349f7132b98869cfebe84",
                        "to" : "0x0f572e5295c57f15886f9b263e2f6d2d6c7b5ec6",
                        "v" : "0x1c",
                        "value" : "0x0b"
                    }
                ],
                "rlp" : "0xf90265f901fda00b89488b9dfba0a72418e9e7666bbffb1aeb81705d7f3165a4defcaa7a014e5ba01dcc4de8dec75d7aab85b567b6ccd41ad312451b948a7413f0a142fd40d49347942adc25665018aa1fe0e6bc666dac8fc2697ff9baa00dc3a9424202ed0eeec2e7928922365514eabb1083ce344346fe356b263fbcdda052f3676263f0f03fdc10d35e1fe2edf010b483eecc40578e4ac4655eb584c720a0c8f40a0571865fa6004c1658ecd4480a021c2f860faa13d8e036bbbd04aa9064b90100000000000000000000000000000000000000000000000000000000000000000000000000000000000000000000000000000000000000000000000000000000000000000000000000000000000000000000000000000000000000000000000000000000000000000000000000000000000000000000000000000000000000000000000000000000000000000000000000000000000000000000000000000000000000000000000000000000000000000000000000000000000000000000000000000000000000000000000000000000000000000000000000000000000000000000000000000000000000000000000000000000000000000000000000000000008302000001887fffffffffffffff830261ea8203e842a00000000000000000000000000000000000000000000000000000000000000000880000000000000000f862f860800c830f4240940f572e5295c57f15886f9b263e2f6d2d6c7b5ec60b801ca0cf507918503873b4ebb47f1095eeac4dfebe4b19aaf1229396b74115a41585b5a062f2d84064722404ed915ad916a396ae3576a6bf6ab349f7132b98869cfebe84c0"
            }
        ],
        "postState" : {
            "0x0f572e5295c57f15886f9b263e2f6d2d6c7b5ec6" : {
                "code" : "0x601a6101000a6101000a600055601a60ff0a6101000a600155601a6101010a6101000a600255601a6101000a60ff0a600355601a60ff0a60ff0a600455601a6101010a60ff0a600555601a6101000a6101010a600655601a60ff0a6101010a600755601a6101010a6101010a60085500",
                "nonce" : "0x00",
                "balance" : "0x0de0b6b3a764000b",
                "storage" : {
                    "0x03" : "0x085514ff7f000000000000000000000000000000000000000000000000000001",
                    "0x04" : "0x1d164db738eb6893868b361ad2803f97be35764456e82a837667a693d1e600ff",
                    "0x05" : "0x8b92c24abebf376a5aab5ff4dfd3538a03d38a10bced2aae8e1a8a85b81a00ff",
                    "0x06" : "0xf7aa6aff81000000000000000000000000000000000000000000000000000001",
                    "0x07" : "0x6931bda98c70e860a1f6a5224940f1ec7e6734cd9456c95806384f7cb7e60101",
                    "0x08" : "0x3402a9db66492dfc2a220715e76243469462f24edc56903ba1d8e96ed21a0101"
                }
            },
            "0x2adc25665018aa1fe0e6bc666dac8fc2697ff9ba" : {
                "code" : "0x",
                "nonce" : "0x00",
                "balance" : "0x1bc16d674ee496f8",
                "storage" : {
                }
            },
            "0xa94f5374fce5edbc8e2a8697c15331677e6ebf0b" : {
                "code" : "0x",
                "nonce" : "0x01",
                "balance" : "0x7fffffffffe368ed",
                "storage" : {
                }
            }
        },
        "lastblockhash" : "0x75929586d6b6abe054eda21557eb1406558a5eb06bc16fef419c12413df99308"
    }
}