{
    "expPowerOf256_26_Berlin" : {
        "_info" : {
            "comment" : "Converted from VMTest source. ",
            "filling-rpc-server" : "evm version 1.10.2-unstable-22082f9e-20210309",
            "filling-tool-version" : "retesteth-0.1.0-accesslist+commit.47c69eb3.Linux.g++",
            "lllcversion" : "Version: 0.5.14-develop.2020.6.22+commit.9189ad7a.Linux.g++",
            "source" : "src/VMTestsFiller/vmArithmeticTest/expPowerOf256_26Filler.json",
            "sourceHash" : "4f7633e34c6fefc4711ba4c04fa2f839b386768045d24418778e45478ef16493"
        },
        "sealEngine" : "NoProof",
        "network" : "Berlin",
        "pre" : {
            "0x0f572e5295c57f15886f9b263e2f6d2d6c7b5ec6" : {
                "balance" : "0x0de0b6b3a7640000",
                "code" : "0x601a6101000a600055601a60ff0a600155601a6101010a60025500",
                "nonce" : "0x00",
                "storage" : {
                }
            },
            "0xa94f5374fce5edbc8e2a8697c15331677e6ebf0b" : {
                "balance" : "0x7ffffffffffffff0",
                "code" : "0x",
                "nonce" : "0x00",
                "storage" : {
                }
            }
        },
        "genesisBlockHeader" : {
            "bloom" : "0x00000000000000000000000000000000000000000000000000000000000000000000000000000000000000000000000000000000000000000000000000000000000000000000000000000000000000000000000000000000000000000000000000000000000000000000000000000000000000000000000000000000000000000000000000000000000000000000000000000000000000000000000000000000000000000000000000000000000000000000000000000000000000000000000000000000000000000000000000000000000000000000000000000000000000000000000000000000000000000000000000000000000000000000000000000000",
            "coinbase" : "0x2adc25665018aa1fe0e6bc666dac8fc2697ff9ba",
            "difficulty" : "0x020000",
            "extraData" : "0x42",
            "gasLimit" : "0x7fffffffffffffff",
            "gasUsed" : "0x00",
            "hash" : "0x25ab67958266a4e14f46939ae6d8190d518ca0a00ed0953aa9e58b38d6f9d63f",
            "mixHash" : "0x0000000000000000000000000000000000000000000000000000000000000000",
            "nonce" : "0x0000000000000000",
            "number" : "0x00",
            "parentHash" : "0x0000000000000000000000000000000000000000000000000000000000000000",
            "receiptTrie" : "0x56e81f171bcc55a6ff8345e692c0f86e5b48e01b996cadc001622fb5e363b421",
            "stateRoot" : "0x7875150852dc0cc7e89b0a6506c14f55c9c0dcd38e67b67f55c03073e0df43ab",
            "timestamp" : "0x00",
            "transactionsTrie" : "0x56e81f171bcc55a6ff8345e692c0f86e5b48e01b996cadc001622fb5e363b421",
            "uncleHash" : "0x1dcc4de8dec75d7aab85b567b6ccd41ad312451b948a7413f0a142fd40d49347"
        },
        "genesisRLP" : "0xf901fdf901f8a00000000000000000000000000000000000000000000000000000000000000000a01dcc4de8dec75d7aab85b567b6ccd41ad312451b948a7413f0a142fd40d49347942adc25665018aa1fe0e6bc666dac8fc2697ff9baa07875150852dc0cc7e89b0a6506c14f55c9c0dcd38e67b67f55c03073e0df43aba056e81f171bcc55a6ff8345e692c0f86e5b48e01b996cadc001622fb5e363b421a056e81f171bcc55a6ff8345e692c0f86e5b48e01b996cadc001622fb5e363b421b90100000000000000000000000000000000000000000000000000000000000000000000000000000000000000000000000000000000000000000000000000000000000000000000000000000000000000000000000000000000000000000000000000000000000000000000000000000000000000000000000000000000000000000000000000000000000000000000000000000000000000000000000000000000000000000000000000000000000000000000000000000000000000000000000000000000000000000000000000000000000000000000000000000000000000000000000000000000000000000000000000000000000000000000000000000000008302000080887fffffffffffffff808042a00000000000000000000000000000000000000000000000000000000000000000880000000000000000c0c0",
        "blocks" : [
            {
                "chainname" : "default",
                "blocknumber" : "1",
                "uncleHeaders" : [
                ],
                "blockHeader" : {
                    "bloom" : "0x00000000000000000000000000000000000000000000000000000000000000000000000000000000000000000000000000000000000000000000000000000000000000000000000000000000000000000000000000000000000000000000000000000000000000000000000000000000000000000000000000000000000000000000000000000000000000000000000000000000000000000000000000000000000000000000000000000000000000000000000000000000000000000000000000000000000000000000000000000000000000000000000000000000000000000000000000000000000000000000000000000000000000000000000000000000",
                    "coinbase" : "0x2adc25665018aa1fe0e6bc666dac8fc2697ff9ba",
                    "difficulty" : "0x020000",
                    "extraData" : "0x42",
                    "gasLimit" : "0x7fffffffffffffff",
                    "gasUsed" : "0x0155d3",
                    "hash" : "0x8d66d8a1cc7e8ea4f27701df3eee89d1a43649fed235e957919650f079fd5059",
                    "mixHash" : "0x0000000000000000000000000000000000000000000000000000000000000000",
                    "nonce" : "0x0000000000000000",
                    "number" : "0x01",
                    "parentHash" : "0x25ab67958266a4e14f46939ae6d8190d518ca0a00ed0953aa9e58b38d6f9d63f",
                    "receiptTrie" : "0x8a24636ab6d74f690f7f5c43379d6400143d03322c2ced737a6fb15246c924fc",
                    "stateRoot" : "0x28f068a952c6c0f79bd4fa70faad21424d3caea976288bc55dd163fdb9c62a76",
                    "timestamp" : "0x03e8",
                    "transactionsTrie" : "0xd776808ba2bc76d7811db42b9b66ba3805093a53548579b8e5cb4ef90ecdfa45",
                    "uncleHash" : "0x1dcc4de8dec75d7aab85b567b6ccd41ad312451b948a7413f0a142fd40d49347"
                },
                "transactions" : [
                    {
                        "data" : "0x",
                        "gasLimit" : "0x0186a0",
                        "gasPrice" : "0x0c",
                        "nonce" : "0x00",
                        "r" : "0x1cd68b4bb170803e261493404e86de287b1f0373ad29214b1222b2d4eb193848",
                        "s" : "0x6219c94315c1b7605b09a7a229b21007f7968181001cd9d00aae37cfde3cfbf9",
                        "to" : "0x0f572e5295c57f15886f9b263e2f6d2d6c7b5ec6",
                        "v" : "0x1b",
                        "value" : "0x0b"
                    }
                ],
                "rlp" : "0xf90265f901fda025ab67958266a4e14f46939ae6d8190d518ca0a00ed0953aa9e58b38d6f9d63fa01dcc4de8dec75d7aab85b567b6ccd41ad312451b948a7413f0a142fd40d49347942adc25665018aa1fe0e6bc666dac8fc2697ff9baa028f068a952c6c0f79bd4fa70faad21424d3caea976288bc55dd163fdb9c62a76a0d776808ba2bc76d7811db42b9b66ba3805093a53548579b8e5cb4ef90ecdfa45a08a24636ab6d74f690f7f5c43379d6400143d03322c2ced737a6fb15246c924fcb90100000000000000000000000000000000000000000000000000000000000000000000000000000000000000000000000000000000000000000000000000000000000000000000000000000000000000000000000000000000000000000000000000000000000000000000000000000000000000000000000000000000000000000000000000000000000000000000000000000000000000000000000000000000000000000000000000000000000000000000000000000000000000000000000000000000000000000000000000000000000000000000000000000000000000000000000000000000000000000000000000000000000000000000000000000000008302000001887fffffffffffffff830155d38203e842a00000000000000000000000000000000000000000000000000000000000000000880000000000000000f862f860800c830186a0940f572e5295c57f15886f9b263e2f6d2d6c7b5ec60b801ba01cd68b4bb170803e261493404e86de287b1f0373ad29214b1222b2d4eb193848a06219c94315c1b7605b09a7a229b21007f7968181001cd9d00aae37cfde3cfbf9c0"
            }
        ],
        "postState" : {
            "0x0f572e5295c57f15886f9b263e2f6d2d6c7b5ec6" : {
                "code" : "0x601a6101000a600055601a60ff0a600155601a6101010a60025500",
                "nonce" : "0x00",
                "balance" : "0x0de0b6b3a764000b",
                "storage" : {
                    "0x00" : "0x010000000000000000000000000000000000000000000000000000",
                    "0x01" : "0xe73b116885641f4651a56f438fd08d61869cfa55465bd944e601",
                    "0x02" : "0x011b4f636a81778ea1c96f4cab2b998cbc26b00c572e7029451a01"
                }
            },
            "0x2adc25665018aa1fe0e6bc666dac8fc2697ff9ba" : {
                "code" : "0x",
                "nonce" : "0x00",
                "balance" : "0x1bc16d674ed805e4",
                "storage" : {
                }
            },
            "0xa94f5374fce5edbc8e2a8697c15331677e6ebf0b" : {
                "code" : "0x",
                "nonce" : "0x01",
                "balance" : "0x7fffffffffeffa01",
                "storage" : {
                }
            }
        },
        "lastblockhash" : "0x8d66d8a1cc7e8ea4f27701df3eee89d1a43649fed235e957919650f079fd5059"
    },
    "expPowerOf256_26_Istanbul" : {
        "_info" : {
            "comment" : "Converted from VMTest source. ",
            "filling-rpc-server" : "evm version 1.10.2-unstable-22082f9e-20210309",
            "filling-tool-version" : "retesteth-0.1.0-accesslist+commit.47c69eb3.Linux.g++",
            "lllcversion" : "Version: 0.5.14-develop.2020.6.22+commit.9189ad7a.Linux.g++",
            "source" : "src/VMTestsFiller/vmArithmeticTest/expPowerOf256_26Filler.json",
            "sourceHash" : "4f7633e34c6fefc4711ba4c04fa2f839b386768045d24418778e45478ef16493"
        },
        "sealEngine" : "NoProof",
        "network" : "Istanbul",
        "pre" : {
            "0x0f572e5295c57f15886f9b263e2f6d2d6c7b5ec6" : {
                "balance" : "0x0de0b6b3a7640000",
                "code" : "0x601a6101000a600055601a60ff0a600155601a6101010a60025500",
                "nonce" : "0x00",
                "storage" : {
                }
            },
            "0xa94f5374fce5edbc8e2a8697c15331677e6ebf0b" : {
                "balance" : "0x7ffffffffffffff0",
                "code" : "0x",
                "nonce" : "0x00",
                "storage" : {
                }
            }
        },
        "genesisBlockHeader" : {
            "bloom" : "0x00000000000000000000000000000000000000000000000000000000000000000000000000000000000000000000000000000000000000000000000000000000000000000000000000000000000000000000000000000000000000000000000000000000000000000000000000000000000000000000000000000000000000000000000000000000000000000000000000000000000000000000000000000000000000000000000000000000000000000000000000000000000000000000000000000000000000000000000000000000000000000000000000000000000000000000000000000000000000000000000000000000000000000000000000000000",
            "coinbase" : "0x2adc25665018aa1fe0e6bc666dac8fc2697ff9ba",
            "difficulty" : "0x020000",
            "extraData" : "0x42",
            "gasLimit" : "0x7fffffffffffffff",
            "gasUsed" : "0x00",
            "hash" : "0x25ab67958266a4e14f46939ae6d8190d518ca0a00ed0953aa9e58b38d6f9d63f",
            "mixHash" : "0x0000000000000000000000000000000000000000000000000000000000000000",
            "nonce" : "0x0000000000000000",
            "number" : "0x00",
            "parentHash" : "0x0000000000000000000000000000000000000000000000000000000000000000",
            "receiptTrie" : "0x56e81f171bcc55a6ff8345e692c0f86e5b48e01b996cadc001622fb5e363b421",
            "stateRoot" : "0x7875150852dc0cc7e89b0a6506c14f55c9c0dcd38e67b67f55c03073e0df43ab",
            "timestamp" : "0x00",
            "transactionsTrie" : "0x56e81f171bcc55a6ff8345e692c0f86e5b48e01b996cadc001622fb5e363b421",
            "uncleHash" : "0x1dcc4de8dec75d7aab85b567b6ccd41ad312451b948a7413f0a142fd40d49347"
        },
        "genesisRLP" : "0xf901fdf901f8a00000000000000000000000000000000000000000000000000000000000000000a01dcc4de8dec75d7aab85b567b6ccd41ad312451b948a7413f0a142fd40d49347942adc25665018aa1fe0e6bc666dac8fc2697ff9baa07875150852dc0cc7e89b0a6506c14f55c9c0dcd38e67b67f55c03073e0df43aba056e81f171bcc55a6ff8345e692c0f86e5b48e01b996cadc001622fb5e363b421a056e81f171bcc55a6ff8345e692c0f86e5b48e01b996cadc001622fb5e363b421b90100000000000000000000000000000000000000000000000000000000000000000000000000000000000000000000000000000000000000000000000000000000000000000000000000000000000000000000000000000000000000000000000000000000000000000000000000000000000000000000000000000000000000000000000000000000000000000000000000000000000000000000000000000000000000000000000000000000000000000000000000000000000000000000000000000000000000000000000000000000000000000000000000000000000000000000000000000000000000000000000000000000000000000000000000000000008302000080887fffffffffffffff808042a00000000000000000000000000000000000000000000000000000000000000000880000000000000000c0c0",
        "blocks" : [
            {
                "chainname" : "default",
                "blocknumber" : "1",
                "uncleHeaders" : [
                ],
                "blockHeader" : {
                    "bloom" : "0x00000000000000000000000000000000000000000000000000000000000000000000000000000000000000000000000000000000000000000000000000000000000000000000000000000000000000000000000000000000000000000000000000000000000000000000000000000000000000000000000000000000000000000000000000000000000000000000000000000000000000000000000000000000000000000000000000000000000000000000000000000000000000000000000000000000000000000000000000000000000000000000000000000000000000000000000000000000000000000000000000000000000000000000000000000000",
                    "coinbase" : "0x2adc25665018aa1fe0e6bc666dac8fc2697ff9ba",
                    "difficulty" : "0x020000",
                    "extraData" : "0x42",
                    "gasLimit" : "0x7fffffffffffffff",
                    "gasUsed" : "0x013d37",
                    "hash" : "0xbec04642028cbac6c09a3b28a7bc49b5b3c5bf17ce2489c13feb3fe03cd4b6fc",
                    "mixHash" : "0x0000000000000000000000000000000000000000000000000000000000000000",
                    "nonce" : "0x0000000000000000",
                    "number" : "0x01",
                    "parentHash" : "0x25ab67958266a4e14f46939ae6d8190d518ca0a00ed0953aa9e58b38d6f9d63f",
                    "receiptTrie" : "0x0330c93865c3dc3b0c663dcc2098bf71c090645002e55a27181f71fee6272696",
                    "stateRoot" : "0x04e0d3481ac404252f2f1abd1abf8863c76e92c63c142ab2e0da3508684a98bc",
                    "timestamp" : "0x03e8",
                    "transactionsTrie" : "0xd776808ba2bc76d7811db42b9b66ba3805093a53548579b8e5cb4ef90ecdfa45",
                    "uncleHash" : "0x1dcc4de8dec75d7aab85b567b6ccd41ad312451b948a7413f0a142fd40d49347"
                },
                "transactions" : [
                    {
                        "data" : "0x",
                        "gasLimit" : "0x0186a0",
                        "gasPrice" : "0x0c",
                        "nonce" : "0x00",
                        "r" : "0x1cd68b4bb170803e261493404e86de287b1f0373ad29214b1222b2d4eb193848",
                        "s" : "0x6219c94315c1b7605b09a7a229b21007f7968181001cd9d00aae37cfde3cfbf9",
                        "to" : "0x0f572e5295c57f15886f9b263e2f6d2d6c7b5ec6",
                        "v" : "0x1b",
                        "value" : "0x0b"
                    }
                ],
                "rlp" : "0xf90265f901fda025ab67958266a4e14f46939ae6d8190d518ca0a00ed0953aa9e58b38d6f9d63fa01dcc4de8dec75d7aab85b567b6ccd41ad312451b948a7413f0a142fd40d49347942adc25665018aa1fe0e6bc666dac8fc2697ff9baa004e0d3481ac404252f2f1abd1abf8863c76e92c63c142ab2e0da3508684a98bca0d776808ba2bc76d7811db42b9b66ba3805093a53548579b8e5cb4ef90ecdfa45a00330c93865c3dc3b0c663dcc2098bf71c090645002e55a27181f71fee6272696b90100000000000000000000000000000000000000000000000000000000000000000000000000000000000000000000000000000000000000000000000000000000000000000000000000000000000000000000000000000000000000000000000000000000000000000000000000000000000000000000000000000000000000000000000000000000000000000000000000000000000000000000000000000000000000000000000000000000000000000000000000000000000000000000000000000000000000000000000000000000000000000000000000000000000000000000000000000000000000000000000000000000000000000000000000000000008302000001887fffffffffffffff83013d378203e842a00000000000000000000000000000000000000000000000000000000000000000880000000000000000f862f860800c830186a0940f572e5295c57f15886f9b263e2f6d2d6c7b5ec60b801ba01cd68b4bb170803e261493404e86de287b1f0373ad29214b1222b2d4eb193848a06219c94315c1b7605b09a7a229b21007f7968181001cd9d00aae37cfde3cfbf9c0"
            }
        ],
        "postState" : {
            "0x0f572e5295c57f15886f9b263e2f6d2d6c7b5ec6" : {
                "code" : "0x601a6101000a600055601a60ff0a600155601a6101010a60025500",
                "nonce" : "0x00",
                "balance" : "0x0de0b6b3a764000b",
                "storage" : {
                    "0x00" : "0x010000000000000000000000000000000000000000000000000000",
                    "0x01" : "0xe73b116885641f4651a56f438fd08d61869cfa55465bd944e601",
                    "0x02" : "0x011b4f636a81778ea1c96f4cab2b998cbc26b00c572e7029451a01"
                }
            },
            "0x2adc25665018aa1fe0e6bc666dac8fc2697ff9ba" : {
                "code" : "0x",
                "nonce" : "0x00",
                "balance" : "0x1bc16d674ed6de94",
                "storage" : {
                }
            },
            "0xa94f5374fce5edbc8e2a8697c15331677e6ebf0b" : {
                "code" : "0x",
                "nonce" : "0x01",
                "balance" : "0x7ffffffffff12151",
                "storage" : {
                }
            }
        },
        "lastblockhash" : "0xbec04642028cbac6c09a3b28a7bc49b5b3c5bf17ce2489c13feb3fe03cd4b6fc"
    }
}