{
    "mulmod2_1_Istanbul" : {
        "_info" : {
            "comment" : "Converted from VMTest source. ",
            "filling-rpc-server" : "Geth-1.9.13-unstable-5d7e5b00-20200327",
            "filling-tool-version" : "retesteth-0.0.2+commit.f0417457.Linux.g++",
            "lllcversion" : "Version: 0.5.14-develop.2020.3.30+commit.8f259595.Linux.g++",
            "source" : "src/VMTestsFiller/vmArithmeticTest/mulmod2_1Filler.json",
            "sourceHash" : "368eb3f392783c2b4a263e888cfffaaaa8f182fa19b7f3640b1ef2a0f83c071f"
        },
        "sealEngine" : "NoProof",
        "network" : "Istanbul",
        "pre" : {
            "0x0f572e5295c57f15886f9b263e2f6d2d6c7b5ec6" : {
                "balance" : "0x0de0b6b3a7640000",
                "code" : "0x6003600160056000030960036005600003061460005500",
                "nonce" : "0x00",
                "storage" : {
                }
            },
            "0xa94f5374fce5edbc8e2a8697c15331677e6ebf0b" : {
                "balance" : "0x7ffffffffffffff0",
                "code" : "0x",
                "nonce" : "0x00",
                "storage" : {
                }
            }
        },
        "genesisBlockHeader" : {
            "bloom" : "0x00000000000000000000000000000000000000000000000000000000000000000000000000000000000000000000000000000000000000000000000000000000000000000000000000000000000000000000000000000000000000000000000000000000000000000000000000000000000000000000000000000000000000000000000000000000000000000000000000000000000000000000000000000000000000000000000000000000000000000000000000000000000000000000000000000000000000000000000000000000000000000000000000000000000000000000000000000000000000000000000000000000000000000000000000000000",
            "coinbase" : "0x2adc25665018aa1fe0e6bc666dac8fc2697ff9ba",
            "difficulty" : "0x020000",
            "extraData" : "0x42",
            "gasLimit" : "0x7fffffffffffffff",
            "gasUsed" : "0x00",
            "hash" : "0xc7538417c18bbbea79ccfd2e180258dc323fd79fcf352b32e27a58482f26a08c",
            "mixHash" : "0x0000000000000000000000000000000000000000000000000000000000000000",
            "nonce" : "0x0000000000000000",
            "number" : "0x00",
            "parentHash" : "0x0000000000000000000000000000000000000000000000000000000000000000",
            "receiptTrie" : "0x56e81f171bcc55a6ff8345e692c0f86e5b48e01b996cadc001622fb5e363b421",
            "stateRoot" : "0xf7d49d8d629d514a09137a15cd9e58b8fd5bac0403a299e516d2a0fef913390a",
            "timestamp" : "0x00",
            "transactionsTrie" : "0x56e81f171bcc55a6ff8345e692c0f86e5b48e01b996cadc001622fb5e363b421",
            "uncleHash" : "0x1dcc4de8dec75d7aab85b567b6ccd41ad312451b948a7413f0a142fd40d49347"
        },
        "genesisRLP" : "0xf901fdf901f8a00000000000000000000000000000000000000000000000000000000000000000a01dcc4de8dec75d7aab85b567b6ccd41ad312451b948a7413f0a142fd40d49347942adc25665018aa1fe0e6bc666dac8fc2697ff9baa0f7d49d8d629d514a09137a15cd9e58b8fd5bac0403a299e516d2a0fef913390aa056e81f171bcc55a6ff8345e692c0f86e5b48e01b996cadc001622fb5e363b421a056e81f171bcc55a6ff8345e692c0f86e5b48e01b996cadc001622fb5e363b421b90100000000000000000000000000000000000000000000000000000000000000000000000000000000000000000000000000000000000000000000000000000000000000000000000000000000000000000000000000000000000000000000000000000000000000000000000000000000000000000000000000000000000000000000000000000000000000000000000000000000000000000000000000000000000000000000000000000000000000000000000000000000000000000000000000000000000000000000000000000000000000000000000000000000000000000000000000000000000000000000000000000000000000000000000000000000008302000080887fffffffffffffff808042a00000000000000000000000000000000000000000000000000000000000000000880000000000000000c0c0",
        "blocks" : [
            {
                "chainname" : "default",
                "blocknumber" : "1",
                "uncleHeaders" : [
                ],
                "blockHeader" : {
                    "bloom" : "0x00000000000000000000000000000000000000000000000000000000000000000000000000000000000000000000000000000000000000000000000000000000000000000000000000000000000000000000000000000000000000000000000000000000000000000000000000000000000000000000000000000000000000000000000000000000000000000000000000000000000000000000000000000000000000000000000000000000000000000000000000000000000000000000000000000000000000000000000000000000000000000000000000000000000000000000000000000000000000000000000000000000000000000000000000000000",
                    "coinbase" : "0x2adc25665018aa1fe0e6bc666dac8fc2697ff9ba",
                    "difficulty" : "0x020000",
                    "extraData" : "0x42",
                    "gasLimit" : "0x7fffffffffffffff",
                    "gasUsed" : "0xa056",
                    "hash" : "0xc2cbb92cbbadcdacf4198c841e524469bdfe0c8697c91a5da9ffcb85d9e05f64",
                    "mixHash" : "0x0000000000000000000000000000000000000000000000000000000000000000",
                    "nonce" : "0x0000000000000000",
                    "number" : "0x01",
                    "parentHash" : "0xc7538417c18bbbea79ccfd2e180258dc323fd79fcf352b32e27a58482f26a08c",
                    "receiptTrie" : "0xea8178c8237f52013c3acd6f14cb1428ba6f520409467692442009904a7dfb91",
                    "stateRoot" : "0xfa906fe8121ba5547158ccddcf8b5d0b8b2052bd72cdac6ce5029e4b867c11bb",
                    "timestamp" : "0x03e8",
                    "transactionsTrie" : "0xd776808ba2bc76d7811db42b9b66ba3805093a53548579b8e5cb4ef90ecdfa45",
                    "uncleHash" : "0x1dcc4de8dec75d7aab85b567b6ccd41ad312451b948a7413f0a142fd40d49347"
                },
                "transactions" : [
                    {
                        "data" : "0x",
                        "gasLimit" : "0x0186a0",
                        "gasPrice" : "0x0c",
                        "nonce" : "0x00",
                        "to" : "0x0f572e5295c57f15886f9b263e2f6d2d6c7b5ec6",
                        "value" : "0x0b",
                        "v" : "0x1b",
                        "r" : "0x1cd68b4bb170803e261493404e86de287b1f0373ad29214b1222b2d4eb193848",
                        "s" : "0x6219c94315c1b7605b09a7a229b21007f7968181001cd9d00aae37cfde3cfbf9"
                    }
                ],
                "rlp" : "0xf90264f901fca0c7538417c18bbbea79ccfd2e180258dc323fd79fcf352b32e27a58482f26a08ca01dcc4de8dec75d7aab85b567b6ccd41ad312451b948a7413f0a142fd40d49347942adc25665018aa1fe0e6bc666dac8fc2697ff9baa0fa906fe8121ba5547158ccddcf8b5d0b8b2052bd72cdac6ce5029e4b867c11bba0d776808ba2bc76d7811db42b9b66ba3805093a53548579b8e5cb4ef90ecdfa45a0ea8178c8237f52013c3acd6f14cb1428ba6f520409467692442009904a7dfb91b90100000000000000000000000000000000000000000000000000000000000000000000000000000000000000000000000000000000000000000000000000000000000000000000000000000000000000000000000000000000000000000000000000000000000000000000000000000000000000000000000000000000000000000000000000000000000000000000000000000000000000000000000000000000000000000000000000000000000000000000000000000000000000000000000000000000000000000000000000000000000000000000000000000000000000000000000000000000000000000000000000000000000000000000000000000000008302000001887fffffffffffffff82a0568203e842a00000000000000000000000000000000000000000000000000000000000000000880000000000000000f862f860800c830186a0940f572e5295c57f15886f9b263e2f6d2d6c7b5ec60b801ba01cd68b4bb170803e261493404e86de287b1f0373ad29214b1222b2d4eb193848a06219c94315c1b7605b09a7a229b21007f7968181001cd9d00aae37cfde3cfbf9c0"
            }
        ],
        "postState" : {
            "0xa94f5374fce5edbc8e2a8697c15331677e6ebf0b" : {
                "code" : "0x",
                "nonce" : "0x01",
                "balance" : "0x7ffffffffff87bdd",
                "storage" : {
                }
            },
            "0x2adc25665018aa1fe0e6bc666dac8fc2697ff9ba" : {
                "code" : "0x",
                "nonce" : "0x00",
                "balance" : "0x1bc16d674ecf8408",
                "storage" : {
                }
            },
            "0x0f572e5295c57f15886f9b263e2f6d2d6c7b5ec6" : {
                "code" : "0x6003600160056000030960036005600003061460005500",
                "nonce" : "0x00",
                "balance" : "0x0de0b6b3a764000b",
                "storage" : {
                    "0x00" : "0x01"
                }
            }
        },
        "lastblockhash" : "0xc2cbb92cbbadcdacf4198c841e524469bdfe0c8697c91a5da9ffcb85d9e05f64"
    }
}