{
    "EOF1_CALLF_Execution" : {
        "_info" : {
            "comment" : "",
            "filling-rpc-server" : "evm version 1.11.0-unstable-aec58f16-20230307",
            "filling-tool-version" : "retesteth-0.3.0-shanghai+commit.ffa35995.Linux.g++",
            "generatedTestHash" : "6f60d08faf07862670c110c39c0d435fb89a6a09b96edbfc70c7b971893a7fcd",
            "labels" : {
                "0" : "function_1_reaching_max_stack_size_a",
                "1" : "function_1_reaching_max_stack_size_b",
                "2" : "function_1_reaching_max_stack_size_c"
            },
            "lllcversion" : "Version: 0.5.14-develop.2022.4.6+commit.401d5358.Linux.g++",
            "solidity" : "Version: 0.8.18-develop.2023.1.16+commit.469d6d4d.Linux.g++",
            "source" : "src/EIPTestsFiller/StateTests/stEOF/stEIP5450/EOF1_CALLF_ExecutionFiller.yml",
            "sourceHash" : "70db6c6f59489d5f6d3c2879df6ce67131bcd0738b765d389c1d016a3f615bc8"
        },
        "env" : {
            "currentBaseFee" : "0x0a",
            "currentCoinbase" : "0x2adc25665018aa1fe0e6bc666dac8fc2697ff9ba",
            "currentDifficulty" : "0x020000",
            "currentGasLimit" : "0x05500000",
            "currentNumber" : "0x01",
            "currentRandom" : "0x0000000000000000000000000000000000000000000000000000000000020000",
            "currentTimestamp" : "0x03e8",
            "previousHash" : "0x5e20a0453cecd065ea59c37ac63e079ee08998b6045136a8ce6635c7912ec0b6"
        },
        "post" : {
            "Cancun" : [
                {
                    "hash" : "0x7c9e0f46ea12455601e08d77c83b20b6e8e0396843c4e9496bff276ed700e8bb",
                    "indexes" : {
                        "data" : 0,
                        "gas" : 0,
                        "value" : 0
                    },
                    "logs" : "0x1dcc4de8dec75d7aab85b567b6ccd41ad312451b948a7413f0a142fd40d49347",
                    "txbytes" : "0xf874800a830aae6094b94f5374fce5edbc8e2a8697c15331677e6ebf0b809410000000000000000000000000000000000000011ca0f3468a162da6e1853c6c309166644f2cb0aacc45db4ce27e158f24b3bbe259baa07588f62b1229e9637779d355a47df65b1f7acc7a0cd3e724e9df207f052dca9d"
                },
                {
                    "hash" : "0x7c9e0f46ea12455601e08d77c83b20b6e8e0396843c4e9496bff276ed700e8bb",
                    "indexes" : {
                        "data" : 1,
                        "gas" : 0,
                        "value" : 0
                    },
                    "logs" : "0x1dcc4de8dec75d7aab85b567b6ccd41ad312451b948a7413f0a142fd40d49347",
                    "txbytes" : "0xf874800a830aae6094b94f5374fce5edbc8e2a8697c15331677e6ebf0b809410000000000000000000000000000000000000021ba030d3968965bf34a1fbf6c7998f506797586418e9721c19b8c3eaa8d7d442fa62a05926f5a951364690c57dca4414d579dd7b07ee1a963e1698caff01faf8eea06c"
                },
                {
                    "hash" : "0x7c9e0f46ea12455601e08d77c83b20b6e8e0396843c4e9496bff276ed700e8bb",
                    "indexes" : {
                        "data" : 2,
                        "gas" : 0,
                        "value" : 0
                    },
                    "logs" : "0x1dcc4de8dec75d7aab85b567b6ccd41ad312451b948a7413f0a142fd40d49347",
                    "txbytes" : "0xf874800a830aae6094b94f5374fce5edbc8e2a8697c15331677e6ebf0b809410000000000000000000000000000000000000031ca01159cb64e9b27119aa9446ca73d6d6acaa0e03d5e87c7cd1b79c5003a584b7aaa06b4afa667a8073bfd8aab5b4cdd6b66c386c029e309f1791110fdc555da551a4"
                }
            ]
        },
        "pre" : {
            "0x1000000000000000000000000000000000000001" : {
                "balance" : "0x00",
                "code" : "0xef0001010008020002000d0bff0300000000000003010003ff600160016001b000016000550050600060006000600060006000600060006000600060006000600060006000600060006000600060006000600060006000600060006000600060006000600060006000600060006000600060006000600060006000600060006000600060006000600060006000600060006000600060006000600060006000600060006000600060006000600060006000600060006000600060006000600060006000600060006000600060006000600060006000600060006000600060006000600060006000600060006000600060006000600060006000600060006000600060006000600060006000600060006000600060006000600060006000600060006000600060006000600060006000600060006000600060006000600060006000600060006000600060006000600060006000600060006000600060006000600060006000600060006000600060006000600060006000600060006000600060006000600060006000600060006000600060006000600060006000600060006000600060006000600060006000600060006000600060006000600060006000600060006000600060006000600060006000600060006000600060006000600060006000600060006000600060006000600060006000600060006000600060006000600060006000600060006000600060006000600060006000600060006000600060006000600060006000600060006000600060006000600060006000600060006000600060006000600060006000600060006000600060006000600060006000600060006000600060006000600060006000600060006000600060006000600060006000600060006000600060006000600060006000600060006000600060006000600060006000600060006000600060006000600060006000600060006000600060006000600060006000600060006000600060006000600060006000600060006000600060006000600060006000600060006000600060006000600060006000600060006000600060006000600060006000600060006000600060006000600060006000600060006000600060006000600060006000600060006000600060006000600060006000600060006000600060006000600060006000600060006000600060006000600060006000600060006000600060006000600060006000600060006000600060006000600060006000600060006000600060006000600060006000600060006000600060006000600060006000600060006000600060006000600060006000600060006000600060006000600060006000600060006000600060006000600060006000600060006000600060006000600060006000600060006000600060006000600060006000600060006000600060006000600060006000600060006000600060006000600060006000600060006000600060006000600060006000600060006000600060006000600060006000600060006000600060006000600060006000600060006000600060006000600060006000600060006000600060006000600060006000600060006000600060006000600060006000600060006000600060006000600060006000600060006000600060006000600060006000600060006000600060006000600060006000600060006000600060006000600060006000600060006000600060006000600060006000600060006000600060006000600060006000600060006000600060006000600060006000600060006000600060006000600060006000600060006000600060006000600060006000600060006000600060006000600060006000600060006000600060006000600060006000600060006000600060006000600060006000600060006000600060006000600060006000600060006000600060006000600060006000600060006000600060006000600060006000600060006000600060006000600060006000600060006000600060006000600060006000600060006000600060006000600060006000600060006000600060006000600060006000600060006000600060006000600060006000600060006000600060006000600060006000600060006000600060006000600060006000600060006000600060006000600060006000600060006000600060006000600060006000600060006000600060006000600060006000600060006000600060006000600060006000600060006000600060006000600060006000600060006000600060006000600060006000600060006000600060006000600060006000600060006000600060006000600060006000600060006000600060006000600060006000600060006000600060006000600060006000600060006000600060006000600060006000600060006000600060006000600060006000600060006000600060006000600060006000600060006000600060006000600060006000600060006000600060006000600060006000600060006000600060006000600060006000600060006000600060006000600060006000600060006000600060006000600060006000600060006000600060006000600060006000600060006000600060006000600060006000600060006000600060006000600060006000600060006000600060006000600060006000600060006000600060006000600060006000600060006000600060006000600060006000600060006000600060006000600060006000600060006000600060006000600060006000600060006000600060006000600060006000600060006000600060006000600060006000505050505050505050505050505050505050505050505050505050505050505050505050505050505050505050505050505050505050505050505050505050505050505050505050505050505050505050505050505050505050505050505050505050505050505050505050505050505050505050505050505050505050505050505050505050505050505050505050505050505050505050505050505050505050505050505050505050505050505050505050505050505050505050505050505050505050505050505050505050505050505050505050505050505050505050505050505050505050505050505050505050505050505050505050505050505050505050505050505050505050505050505050505050505050505050505050505050505050505050505050505050505050505050505050505050505050505050505050505050505050505050505050505050505050505050505050505050505050505050505050505050505050505050505050505050505050505050505050505050505050505050505050505050505050505050505050505050505050505050505050505050505050505050505050505050505050505050505050505050505050505050505050505050505050505050505050505050505050505050505050505050505050505050505050505050505050505050505050505050505050505050505050505050505050505050505050505050505050505050505050505050505050505050505050505050505050505050505050505050505050505050505050505050505050505050505050505050505050505050505050505050505050505050505050505050505050505050505050505050505050505050505050505050505050505050505050505050505050505050505050505050505050505050505050505050505050505050505050505050505050505050505050505050505050505050505050505050505050505050505050505050505050505050505050505050505050505050505050505050505050505050505050505050505050505050505050505050505050505050505050505050505050505050505050505050505050505050505050505050505050505050505050505050505050505050505050505050505050505050505050505050505050505050505050505050505050505050505050505050505050505050505050505050505050505050505050505050505050505050505050505050505050505050505050505050505050505050505050505050505050505050505050505050505050505050505050505050505050505050505050505050505050505050505050505050505050505050505050505050505050505050505050505050505050505050505050505050505050505050505050505050b1",
                "nonce" : "0x00",
                "storage" : {
                }
            },
            "0x1000000000000000000000000000000000000002" : {
                "balance" : "0x00",
                "code" : "0xef00010100080200020802000403000000000003ff00000001600160016001600160016001600160016001600160016001600160016001600160016001600160016001600160016001600160016001600160016001600160016001600160016001600160016001600160016001600160016001600160016001600160016001600160016001600160016001600160016001600160016001600160016001600160016001600160016001600160016001600160016001600160016001600160016001600160016001600160016001600160016001600160016001600160016001600160016001600160016001600160016001600160016001600160016001600160016001600160016001600160016001600160016001600160016001600160016001600160016001600160016001600160016001600160016001600160016001600160016001600160016001600160016001600160016001600160016001600160016001600160016001600160016001600160016001600160016001600160016001600160016001600160016001600160016001600160016001600160016001600160016001600160016001600160016001600160016001600160016001600160016001600160016001600160016001600160016001600160016001600160016001600160016001600160016001600160016001600160016001600160016001600160016001600160016001600160016001600160016001600160016001600160016001600160016001600160016001600160016001600160016001600160016001600160016001600160016001600160016001600160016001600160016001600160016001600160016001600160016001600160016001600160016001600160016001600160016001600160016001600160016001600160016001600160016001600160016001600160016001600160016001600160016001600160016001600160016001600160016001600160016001600160016001600160016001600160016001600160016001600160016001600160016001600160016001600160016001600160016001600160016001600160016001600160016001600160016001600160016001600160016001600160016001600160016001600160016001600160016001600160016001600160016001600160016001600160016001600160016001600160016001600160016001600160016001600160016001600160016001600160016001600160016001600160016001600160016001600160016001600160016001600160016001600160016001600160016001600160016001600160016001600160016001600160016001600160016001600160016001600160016001600160016001600160016001600160016001600160016001600160016001600160016001600160016001600160016001600160016001600160016001600160016001600160016001600160016001600160016001600160016001600160016001600160016001600160016001600160016001600160016001600160016001600160016001600160016001600160016001600160016001600160016001600160016001600160016001600160016001600160016001600160016001600160016001600160016001600160016001600160016001600160016001600160016001600160016001600160016001600160016001600160016001600160016001600160016001600160016001600160016001600160016001600160016001600160016001600160016001600160016001600160016001600160016001600160016001600160016001600160016001600160016001600160016001600160016001600160016001600160016001600160016001600160016001600160016001600160016001600160016001600160016001600160016001600160016001600160016001600160016001600160016001600160016001600160016001600160016001600160016001600160016001600160016001600160016001600160016001600160016001600160016001600160016001600160016001600160016001600160016001600160016001600160016001600160016001600160016001600160016001600160016001600160016001600160016001600160016001600160016001600160016001600160016001600160016001600160016001600160016001600160016001600160016001600160016001600160016001600160016001600160016001600160016001600160016001600160016001600160016001600160016001600160016001600160016001600160016001600160016001600160016001600160016001600160016001600160016001600160016001600160016001600160016001600160016001600160016001600160016001600160016001600160016001600160016001600160016001600160016001600160016001600160016001600160016001600160016001600160016001600160016001600160016001600160016001600160016001600160016001600160016001600160016001600160016001600160016001600160016001600160016001600160016001600160016001600160016001600160016001600160016001600160016001600160016001600160016001600160016001600160016001600160016001600160016001600160016001600160016001600160016001600160016001600160016001600160016001600160016001600160016001600160016001600160016001600160016001600160016001600160016001600160016001600160016001600160016001600160016001600160016001600160016001600160016001600160016001600160016001b0000100600150b1",
                "nonce" : "0x00",
                "storage" : {
                }
            },
            "0x1000000000000000000000000000000000000003" : {
                "balance" : "0x00",
                "code" : "0xef0001010008020002000d0c020300000000000003020003ff600160006000b0000160015500505d0bfd600160016001600160016001600160016001600160016001600160016001600160016001600160016001600160016001600160016001600160016001600160016001600160016001600160016001600160016001600160016001600160016001600160016001600160016001600160016001600160016001600160016001600160016001600160016001600160016001600160016001600160016001600160016001600160016001600160016001600160016001600160016001600160016001600160016001600160016001600160016001600160016001600160016001600160016001600160016001600160016001600160016001600160016001600160016001600160016001600160016001600160016001600160016001600160016001600160016001600160016001600160016001600160016001600160016001600160016001600160016001600160016001600160016001600160016001600160016001600160016001600160016001600160016001600160016001600160016001600160016001600160016001600160016001600160016001600160016001600160016001600160016001600160016001600160016001600160016001600160016001600160016001600160016001600160016001600160016001600160016001600160016001600160016001600160016001600160016001600160016001600160016001600160016001600160016001600160016001600160016001600160016001600160016001600160016001600160016001600160016001600160016001600160016001600160016001600160016001600160016001600160016001600160016001600160016001600160016001600160016001600160016001600160016001600160016001600160016001600160016001600160016001600160016001600160016001600160016001600160016001600160016001600160016001600160016001600160016001600160016001600160016001600160016001600160016001600160016001600160016001600160016001600160016001600160016001600160016001600160016001600160016001600160016001600160016001600160016001600160016001600160016001600160016001600160016001600160016001600160016001600160016001600160016001600160016001600160016001600160016001600160016001600160016001600160016001600160016001600160016001600160016001600160016001600160016001600160016001600160016001600160016001600160016001600160016001600160016001600160016001600160016001600160016001600160016001600160016001600160016001600160016001600160016001600160016001600160016001600160016001600160016001600160016001600160016001600160016001600160016001600160016001600160016001600160016001600160016001600160016001600160016001600160016001600160016001600160016001600160016001600160016001600160016001600160016001600160016001600160016001600160016001600160016001600160016001600160016001600160016001600160016001600160016001600160016001600160016001600160016001600160016001600160016001600160016001600160016001600160016001600160016001600160016001600160016001600160016001600160016001600160016001600160016001600160016001600160016001600160016001600160016001600160016001600160016001600160016001600160016001600160016001600160016001600160016001600160016001600160016001600160016001600160016001600160016001600160016001600160016001600160016001600160016001600160016001600160016001600160016001600160016001600160016001600160016001600160016001600160016001600160016001600160016001600160016001600160016001600160016001600160016001600160016001600160016001600160016001600160016001600160016001600160016001600160016001600160016001600160016001600160016001600160016001600160016001600160016001600160016001600160016001600160016001600160016001600160016001600160016001600160016001600160016001600160016001600160016001600160016001600160016001600160016001600160016001600160016001600160016001600160016001600160016001600160016001600160016001600160016001600160016001600160016001600160016001600160016001600160016001600160016001600160016001600160016001600160016001600160016001600160016001600160016001600160016001600160016001600160016001600160016001600160016001600160016001600160016001600160016001600160016001600160016001600160016001600160016001600160016001600160016001600160016001600160016001600160016001600160016001600160016001600160016001600160016001600160016001600160016001600160016001600160016001600160016001600160016001600160016001600160016001600160016001600160016001600160016001600160016001600160016001600160016001600160016001600160016001600160016001600160016001600160016001600160016001600160016001600160016001600160016001600160016001600160016001600160016001600160016001600160016001505050505050505050505050505050505050505050505050505050505050505050505050505050505050505050505050505050505050505050505050505050505050505050505050505050505050505050505050505050505050505050505050505050505050505050505050505050505050505050505050505050505050505050505050505050505050505050505050505050505050505050505050505050505050505050505050505050505050505050505050505050505050505050505050505050505050505050505050505050505050505050505050505050505050505050505050505050505050505050505050505050505050505050505050505050505050505050505050505050505050505050505050505050505050505050505050505050505050505050505050505050505050505050505050505050505050505050505050505050505050505050505050505050505050505050505050505050505050505050505050505050505050505050505050505050505050505050505050505050505050505050505050505050505050505050505050505050505050505050505050505050505050505050505050505050505050505050505050505050505050505050505050505050505050505050505050505050505050505050505050505050505050505050505050505050505050505050505050505050505050505050505050505050505050505050505050505050505050505050505050505050505050505050505050505050505050505050505050505050505050505050505050505050505050505050505050505050505050505050505050505050505050505050505050505050505050505050505050505050505050505050505050505050505050505050505050505050505050505050505050505050505050505050505050505050505050505050505050505050505050505050505050505050505050505050505050505050505050505050505050505050505050505050505050505050505050505050505050505050505050505050505050505050505050505050505050505050505050505050505050505050505050505050505050505050505050505050505050505050505050505050505050505050505050505050505050505050505050505050505050505050505050505050505050505050505050505050505050505050505050505050505050505050505050505050505050505050505050505050505050505050505050505050505050505050505050505050505050505050505050505050505050505050505050505050505050505050505050505050505050505050505050505050505050505050505050505050505050505050505050505050505050505050505050505050505050505050505050505050505050505050b1",
                "nonce" : "0x00",
                "storage" : {
                }
            },
            "0xa94f5374fce5edbc8e2a8697c15331677e6ebf0b" : {
                "balance" : "0x989680",
                "code" : "0x",
                "nonce" : "0x00",
                "storage" : {
                }
            },
            "0xb94f5374fce5edbc8e2a8697c15331677e6ebf0b" : {
                "balance" : "0x989680",
                "code" : "0x368060008037600181602060146000805160601c620186a0f1600055805160f81c60015550",
                "nonce" : "0x00",
                "storage" : {
                }
            }
        },
        "transaction" : {
            "data" : [
                "0x1000000000000000000000000000000000000001",
                "0x1000000000000000000000000000000000000002",
                "0x1000000000000000000000000000000000000003"
            ],
            "gasLimit" : [
                "0x0aae60"
            ],
            "gasPrice" : "0x0a",
            "nonce" : "0x00",
            "secretKey" : "0x45a915e4d060149eb4365960e6a7a45f334393093061116b197e3240065ff2d8",
            "sender" : "0xa94f5374fce5edbc8e2a8697c15331677e6ebf0b",
            "to" : "0xb94f5374fce5edbc8e2a8697c15331677e6ebf0b",
            "value" : [
                "0x00"
            ]
        }
    }
}