{
    "create2InitCodeSizeLimit_d0g0v0_Paris" : {
        "_info" : {
            "comment" : "",
            "filling-rpc-server" : "evm version 1.13.11-unstable-765f2904-20240124",
            "filling-tool-version" : "retesteth-0.3.2-cancun+commit.ea13235b.Linux.g++",
            "generatedTestHash" : "77e8c5eaaa4c388085d42e70ac5b788dff2d7a095a2d6798cc40386918385374",
            "lllcversion" : "Version: 0.5.14-develop.2023.7.11+commit.c58ab2c6.mod.Linux.g++",
            "solidity" : "Version: 0.8.21+commit.d9974bed.Linux.g++",
            "source" : "src/GeneralStateTestsFiller/Shanghai/stEIP3860-limitmeterinitcode/create2InitCodeSizeLimitFiller.yml",
            "sourceHash" : "38b718ea22fed7008bd722dd518d439b56199b7da4364a84633f3602715dcdd5"
        },
        "blocks" : [
            {
                "blockHeader" : {
                    "baseFeePerGas" : "0x0a",
                    "bloom" : "0x00000000000000000000000000000000000000000000000000000000000000000000000000000000000000000000000000000000000000000000000000000000000000000000000000000000000000000000000000000000000000000000000000000000000000000000000000000000000000000000000000000000000000000000000000000000000000000000000000000000000000000000000000000000000000000000000000000000000000000000000000000000000000000000000000000000000000000000000000000000000000000000000000000000000000000000000000000000000000000000000000000000000000000000000000000000",
                    "coinbase" : "0x2adc25665018aa1fe0e6bc666dac8fc2697ff9ba",
                    "difficulty" : "0x00",
                    "extraData" : "0x00",
                    "gasLimit" : "0x01312d00",
                    "gasUsed" : "0x028357",
                    "hash" : "0x5f4b2f3282cb2cc8eee014410b9cafa3c3de930663b202797541e9b72605b6f9",
                    "mixHash" : "0x0000000000000000000000000000000000000000000000000000000000020000",
                    "nonce" : "0x0000000000000000",
                    "number" : "0x01",
                    "parentHash" : "0x2df912d872c4145c901333801f6596fe2a933b50c8a51662050fd706003f3a24",
                    "receiptTrie" : "0x05880a3f7ef355229c12ab448d5325e4b2e14c7b17af54f5cbd26e4745693644",
                    "stateRoot" : "0xa16dfb6d45d8b9812511535451862aa6a9f7fb1ad28dbd502d3597e70b1b668a",
                    "timestamp" : "0x03e8",
                    "transactionsTrie" : "0x21ad49fa2d0d4f38142a55aad84a1be74e1f5f96dcbd5c2d2f7fa813b687bdd4",
                    "uncleHash" : "0x1dcc4de8dec75d7aab85b567b6ccd41ad312451b948a7413f0a142fd40d49347"
                },
                "rlp" : "0xf9027ff901f7a02df912d872c4145c901333801f6596fe2a933b50c8a51662050fd706003f3a24a01dcc4de8dec75d7aab85b567b6ccd41ad312451b948a7413f0a142fd40d49347942adc25665018aa1fe0e6bc666dac8fc2697ff9baa0a16dfb6d45d8b9812511535451862aa6a9f7fb1ad28dbd502d3597e70b1b668aa021ad49fa2d0d4f38142a55aad84a1be74e1f5f96dcbd5c2d2f7fa813b687bdd4a005880a3f7ef355229c12ab448d5325e4b2e14c7b17af54f5cbd26e4745693644b901000000000000000000000000000000000000000000000000000000000000000000000000000000000000000000000000000000000000000000000000000000000000000000000000000000000000000000000000000000000000000000000000000000000000000000000000000000000000000000000000000000000000000000000000000000000000000000000000000000000000000000000000000000000000000000000000000000000000000000000000000000000000000000000000000000000000000000000000000000000000000000000000000000000000000000000000000000000000000000000000000000000000000000000000000000000080018401312d00830283578203e800a000000000000000000000000000000000000000000000000000000000000200008800000000000000000af882f880800a83e4e1c094b94f5374fce5edbc8e2a8697c15331677e6ebf0b80a0000000000000000000000000000000000000000000000000000000000000c0001ba0110f52aeb16c3e91943160d2e89c416b06dc47c7484a882324c6d0d362a26cd0a0774c7a35a3503be3867e7bb56885a9056ab1b7e5bfad19b1b0a3550d49a89d6fc0",
                "transactions" : [
                    {
                        "data" : "0x000000000000000000000000000000000000000000000000000000000000c000",
                        "gasLimit" : "0xe4e1c0",
                        "gasPrice" : "0x0a",
                        "nonce" : "0x00",
                        "r" : "0x110f52aeb16c3e91943160d2e89c416b06dc47c7484a882324c6d0d362a26cd0",
                        "s" : "0x774c7a35a3503be3867e7bb56885a9056ab1b7e5bfad19b1b0a3550d49a89d6f",
                        "sender" : "0xa94f5374fce5edbc8e2a8697c15331677e6ebf0b",
                        "to" : "0xb94f5374fce5edbc8e2a8697c15331677e6ebf0b",
                        "v" : "0x1b",
                        "value" : "0x00"
                    }
                ],
                "uncleHeaders" : [
                ]
            }
        ],
        "genesisBlockHeader" : {
            "baseFeePerGas" : "0x0b",
            "bloom" : "0x00000000000000000000000000000000000000000000000000000000000000000000000000000000000000000000000000000000000000000000000000000000000000000000000000000000000000000000000000000000000000000000000000000000000000000000000000000000000000000000000000000000000000000000000000000000000000000000000000000000000000000000000000000000000000000000000000000000000000000000000000000000000000000000000000000000000000000000000000000000000000000000000000000000000000000000000000000000000000000000000000000000000000000000000000000000",
            "coinbase" : "0x2adc25665018aa1fe0e6bc666dac8fc2697ff9ba",
            "difficulty" : "0x00",
            "extraData" : "0x00",
            "gasLimit" : "0x01312d00",
            "gasUsed" : "0x00",
            "hash" : "0x2df912d872c4145c901333801f6596fe2a933b50c8a51662050fd706003f3a24",
            "mixHash" : "0x0000000000000000000000000000000000000000000000000000000000020000",
            "nonce" : "0x0000000000000000",
            "number" : "0x00",
            "parentHash" : "0x0000000000000000000000000000000000000000000000000000000000000000",
            "receiptTrie" : "0x56e81f171bcc55a6ff8345e692c0f86e5b48e01b996cadc001622fb5e363b421",
            "stateRoot" : "0x491a64ebb8db9295f6241dbce081c51361580dec3e6e05d40734d77daa6491fb",
            "timestamp" : "0x00",
            "transactionsTrie" : "0x56e81f171bcc55a6ff8345e692c0f86e5b48e01b996cadc001622fb5e363b421",
            "uncleHash" : "0x1dcc4de8dec75d7aab85b567b6ccd41ad312451b948a7413f0a142fd40d49347"
        },
        "genesisRLP" : "0xf901f7f901f2a00000000000000000000000000000000000000000000000000000000000000000a01dcc4de8dec75d7aab85b567b6ccd41ad312451b948a7413f0a142fd40d49347942adc25665018aa1fe0e6bc666dac8fc2697ff9baa0491a64ebb8db9295f6241dbce081c51361580dec3e6e05d40734d77daa6491fba056e81f171bcc55a6ff8345e692c0f86e5b48e01b996cadc001622fb5e363b421a056e81f171bcc55a6ff8345e692c0f86e5b48e01b996cadc001622fb5e363b421b901000000000000000000000000000000000000000000000000000000000000000000000000000000000000000000000000000000000000000000000000000000000000000000000000000000000000000000000000000000000000000000000000000000000000000000000000000000000000000000000000000000000000000000000000000000000000000000000000000000000000000000000000000000000000000000000000000000000000000000000000000000000000000000000000000000000000000000000000000000000000000000000000000000000000000000000000000000000000000000000000000000000000000000000000000000000080808401312d00808000a000000000000000000000000000000000000000000000000000000000000200008800000000000000000bc0c0",
        "lastblockhash" : "0x5f4b2f3282cb2cc8eee014410b9cafa3c3de930663b202797541e9b72605b6f9",
        "network" : "Paris",
        "postState" : {
            "0x9e7a3337d18c31fe4c1fe51ab2da6cfd3629923d" : {
                "balance" : "0x00",
                "code" : "0x600a80600080396000f3",
                "nonce" : "0x01",
                "storage" : {
                }
            },
            "0xa94f5374fce5edbc8e2a8697c15331677e6ebf0b" : {
                "balance" : "0x0bd2a09a",
                "code" : "0x",
                "nonce" : "0x01",
                "storage" : {
                }
            },
            "0xb94f5374fce5edbc8e2a8697c15331677e6ebf0b" : {
                "balance" : "0x00",
                "code" : "0x60003560005260008036818073c94f5374fce5edbc8e2a8697c15331677e6ebf0b62989680f16000556001805500",
                "nonce" : "0x00",
                "storage" : {
                    "0x00" : "0x01",
                    "0x01" : "0x01"
                }
            },
            "0xc94f5374fce5edbc8e2a8697c15331677e6ebf0b" : {
                "balance" : "0x00",
                "code" : "0x69600a80600080396000f360b01b60009081523563deadbeef5a91600080f5905a9003600a5560005500",
                "nonce" : "0x01",
                "storage" : {
                    "0x00" : "0x9e7a3337d18c31fe4c1fe51ab2da6cfd3629923d",
                    "0x0a" : "0xccf3"
                }
            }
        },
        "pre" : {
            "0xa94f5374fce5edbc8e2a8697c15331677e6ebf0b" : {
                "balance" : "0x0bebc200",
                "code" : "0x",
                "nonce" : "0x00",
                "storage" : {
                }
            },
            "0xb94f5374fce5edbc8e2a8697c15331677e6ebf0b" : {
                "balance" : "0x00",
                "code" : "0x60003560005260008036818073c94f5374fce5edbc8e2a8697c15331677e6ebf0b62989680f16000556001805500",
                "nonce" : "0x00",
                "storage" : {
                }
            },
            "0xc94f5374fce5edbc8e2a8697c15331677e6ebf0b" : {
                "balance" : "0x00",
                "code" : "0x69600a80600080396000f360b01b60009081523563deadbeef5a91600080f5905a9003600a5560005500",
                "nonce" : "0x00",
                "storage" : {
                }
            }
        },
        "sealEngine" : "NoProof"
    },
    "create2InitCodeSizeLimit_d0g0v0_Shanghai" : {
        "_info" : {
            "comment" : "",
            "filling-rpc-server" : "evm version 1.13.11-unstable-765f2904-20240124",
            "filling-tool-version" : "retesteth-0.3.2-cancun+commit.ea13235b.Linux.g++",
            "generatedTestHash" : "7fd77e740ff813c208c87c5cca0d0b2a506c45555160c41097902999284e938a",
            "lllcversion" : "Version: 0.5.14-develop.2023.7.11+commit.c58ab2c6.mod.Linux.g++",
            "solidity" : "Version: 0.8.21+commit.d9974bed.Linux.g++",
            "source" : "src/GeneralStateTestsFiller/Shanghai/stEIP3860-limitmeterinitcode/create2InitCodeSizeLimitFiller.yml",
            "sourceHash" : "38b718ea22fed7008bd722dd518d439b56199b7da4364a84633f3602715dcdd5"
        },
        "blocks" : [
            {
                "blockHeader" : {
                    "baseFeePerGas" : "0x0a",
                    "bloom" : "0x00000000000000000000000000000000000000000000000000000000000000000000000000000000000000000000000000000000000000000000000000000000000000000000000000000000000000000000000000000000000000000000000000000000000000000000000000000000000000000000000000000000000000000000000000000000000000000000000000000000000000000000000000000000000000000000000000000000000000000000000000000000000000000000000000000000000000000000000000000000000000000000000000000000000000000000000000000000000000000000000000000000000000000000000000000000",
                    "coinbase" : "0x2adc25665018aa1fe0e6bc666dac8fc2697ff9ba",
                    "difficulty" : "0x00",
                    "extraData" : "0x00",
                    "gasLimit" : "0x01312d00",
                    "gasUsed" : "0x028f57",
                    "hash" : "0x600b301179c23291eb994fe8e049bf4869598ad2bbe8d08236526b2b55e0f197",
                    "mixHash" : "0x0000000000000000000000000000000000000000000000000000000000020000",
                    "nonce" : "0x0000000000000000",
                    "number" : "0x01",
                    "parentHash" : "0x067f09cffce00a05aedaa3b5fc99aa07192aadf4b86cc4c935f9b82efbed8636",
                    "receiptTrie" : "0xd21759d0f18a2e0d43cc92ede602ed9e7a0c3243a9a14a969019ef82eaf77217",
                    "stateRoot" : "0x8af07b907563bff7ee42e1d13bf4272e511e2c8bab0f943c74e7506fc98e54f7",
                    "timestamp" : "0x03e8",
                    "transactionsTrie" : "0x21ad49fa2d0d4f38142a55aad84a1be74e1f5f96dcbd5c2d2f7fa813b687bdd4",
                    "uncleHash" : "0x1dcc4de8dec75d7aab85b567b6ccd41ad312451b948a7413f0a142fd40d49347",
                    "withdrawalsRoot" : "0x56e81f171bcc55a6ff8345e692c0f86e5b48e01b996cadc001622fb5e363b421"
                },
                "rlp" : "0xf902a1f90218a0067f09cffce00a05aedaa3b5fc99aa07192aadf4b86cc4c935f9b82efbed8636a01dcc4de8dec75d7aab85b567b6ccd41ad312451b948a7413f0a142fd40d49347942adc25665018aa1fe0e6bc666dac8fc2697ff9baa08af07b907563bff7ee42e1d13bf4272e511e2c8bab0f943c74e7506fc98e54f7a021ad49fa2d0d4f38142a55aad84a1be74e1f5f96dcbd5c2d2f7fa813b687bdd4a0d21759d0f18a2e0d43cc92ede602ed9e7a0c3243a9a14a969019ef82eaf77217b901000000000000000000000000000000000000000000000000000000000000000000000000000000000000000000000000000000000000000000000000000000000000000000000000000000000000000000000000000000000000000000000000000000000000000000000000000000000000000000000000000000000000000000000000000000000000000000000000000000000000000000000000000000000000000000000000000000000000000000000000000000000000000000000000000000000000000000000000000000000000000000000000000000000000000000000000000000000000000000000000000000000000000000000000000000000080018401312d0083028f578203e800a000000000000000000000000000000000000000000000000000000000000200008800000000000000000aa056e81f171bcc55a6ff8345e692c0f86e5b48e01b996cadc001622fb5e363b421f882f880800a83e4e1c094b94f5374fce5edbc8e2a8697c15331677e6ebf0b80a0000000000000000000000000000000000000000000000000000000000000c0001ba0110f52aeb16c3e91943160d2e89c416b06dc47c7484a882324c6d0d362a26cd0a0774c7a35a3503be3867e7bb56885a9056ab1b7e5bfad19b1b0a3550d49a89d6fc0c0",
                "transactions" : [
                    {
                        "data" : "0x000000000000000000000000000000000000000000000000000000000000c000",
                        "gasLimit" : "0xe4e1c0",
                        "gasPrice" : "0x0a",
                        "nonce" : "0x00",
                        "r" : "0x110f52aeb16c3e91943160d2e89c416b06dc47c7484a882324c6d0d362a26cd0",
                        "s" : "0x774c7a35a3503be3867e7bb56885a9056ab1b7e5bfad19b1b0a3550d49a89d6f",
                        "sender" : "0xa94f5374fce5edbc8e2a8697c15331677e6ebf0b",
                        "to" : "0xb94f5374fce5edbc8e2a8697c15331677e6ebf0b",
                        "v" : "0x1b",
                        "value" : "0x00"
                    }
                ],
                "uncleHeaders" : [
                ],
                "withdrawals" : [
                ]
            }
        ],
        "genesisBlockHeader" : {
            "baseFeePerGas" : "0x0b",
            "bloom" : "0x00000000000000000000000000000000000000000000000000000000000000000000000000000000000000000000000000000000000000000000000000000000000000000000000000000000000000000000000000000000000000000000000000000000000000000000000000000000000000000000000000000000000000000000000000000000000000000000000000000000000000000000000000000000000000000000000000000000000000000000000000000000000000000000000000000000000000000000000000000000000000000000000000000000000000000000000000000000000000000000000000000000000000000000000000000000",
            "coinbase" : "0x2adc25665018aa1fe0e6bc666dac8fc2697ff9ba",
            "difficulty" : "0x00",
            "extraData" : "0x00",
            "gasLimit" : "0x01312d00",
            "gasUsed" : "0x00",
            "hash" : "0x067f09cffce00a05aedaa3b5fc99aa07192aadf4b86cc4c935f9b82efbed8636",
            "mixHash" : "0x0000000000000000000000000000000000000000000000000000000000020000",
            "nonce" : "0x0000000000000000",
            "number" : "0x00",
            "parentHash" : "0x0000000000000000000000000000000000000000000000000000000000000000",
            "receiptTrie" : "0x56e81f171bcc55a6ff8345e692c0f86e5b48e01b996cadc001622fb5e363b421",
            "stateRoot" : "0x491a64ebb8db9295f6241dbce081c51361580dec3e6e05d40734d77daa6491fb",
            "timestamp" : "0x00",
            "transactionsTrie" : "0x56e81f171bcc55a6ff8345e692c0f86e5b48e01b996cadc001622fb5e363b421",
            "uncleHash" : "0x1dcc4de8dec75d7aab85b567b6ccd41ad312451b948a7413f0a142fd40d49347",
            "withdrawalsRoot" : "0x56e81f171bcc55a6ff8345e692c0f86e5b48e01b996cadc001622fb5e363b421"
        },
        "genesisRLP" : "0xf90219f90213a00000000000000000000000000000000000000000000000000000000000000000a01dcc4de8dec75d7aab85b567b6ccd41ad312451b948a7413f0a142fd40d49347942adc25665018aa1fe0e6bc666dac8fc2697ff9baa0491a64ebb8db9295f6241dbce081c51361580dec3e6e05d40734d77daa6491fba056e81f171bcc55a6ff8345e692c0f86e5b48e01b996cadc001622fb5e363b421a056e81f171bcc55a6ff8345e692c0f86e5b48e01b996cadc001622fb5e363b421b901000000000000000000000000000000000000000000000000000000000000000000000000000000000000000000000000000000000000000000000000000000000000000000000000000000000000000000000000000000000000000000000000000000000000000000000000000000000000000000000000000000000000000000000000000000000000000000000000000000000000000000000000000000000000000000000000000000000000000000000000000000000000000000000000000000000000000000000000000000000000000000000000000000000000000000000000000000000000000000000000000000000000000000000000000000000080808401312d00808000a000000000000000000000000000000000000000000000000000000000000200008800000000000000000ba056e81f171bcc55a6ff8345e692c0f86e5b48e01b996cadc001622fb5e363b421c0c0c0",
        "lastblockhash" : "0x600b301179c23291eb994fe8e049bf4869598ad2bbe8d08236526b2b55e0f197",
        "network" : "Shanghai",
        "postState" : {
            "0x9e7a3337d18c31fe4c1fe51ab2da6cfd3629923d" : {
                "balance" : "0x00",
                "code" : "0x600a80600080396000f3",
                "nonce" : "0x01",
                "storage" : {
                }
            },
            "0xa94f5374fce5edbc8e2a8697c15331677e6ebf0b" : {
                "balance" : "0x0bd2289a",
                "code" : "0x",
                "nonce" : "0x01",
                "storage" : {
                }
            },
            "0xb94f5374fce5edbc8e2a8697c15331677e6ebf0b" : {
                "balance" : "0x00",
                "code" : "0x60003560005260008036818073c94f5374fce5edbc8e2a8697c15331677e6ebf0b62989680f16000556001805500",
                "nonce" : "0x00",
                "storage" : {
                    "0x00" : "0x01",
                    "0x01" : "0x01"
                }
            },
            "0xc94f5374fce5edbc8e2a8697c15331677e6ebf0b" : {
                "balance" : "0x00",
                "code" : "0x69600a80600080396000f360b01b60009081523563deadbeef5a91600080f5905a9003600a5560005500",
                "nonce" : "0x01",
                "storage" : {
                    "0x00" : "0x9e7a3337d18c31fe4c1fe51ab2da6cfd3629923d",
                    "0x0a" : "0xd8f3"
                }
            }
        },
        "pre" : {
            "0xa94f5374fce5edbc8e2a8697c15331677e6ebf0b" : {
                "balance" : "0x0bebc200",
                "code" : "0x",
                "nonce" : "0x00",
                "storage" : {
                }
            },
            "0xb94f5374fce5edbc8e2a8697c15331677e6ebf0b" : {
                "balance" : "0x00",
                "code" : "0x60003560005260008036818073c94f5374fce5edbc8e2a8697c15331677e6ebf0b62989680f16000556001805500",
                "nonce" : "0x00",
                "storage" : {
                }
            },
            "0xc94f5374fce5edbc8e2a8697c15331677e6ebf0b" : {
                "balance" : "0x00",
                "code" : "0x69600a80600080396000f360b01b60009081523563deadbeef5a91600080f5905a9003600a5560005500",
                "nonce" : "0x00",
                "storage" : {
                }
            }
        },
        "sealEngine" : "NoProof"
    },
    "create2InitCodeSizeLimit_d1g0v0_Paris" : {
        "_info" : {
            "comment" : "",
            "filling-rpc-server" : "evm version 1.13.11-unstable-765f2904-20240124",
            "filling-tool-version" : "retesteth-0.3.2-cancun+commit.ea13235b.Linux.g++",
            "generatedTestHash" : "6b6a65b9ad87d3ac8690f0107711f88c74404c16a716a90c4a8a79a55d0509de",
            "lllcversion" : "Version: 0.5.14-develop.2023.7.11+commit.c58ab2c6.mod.Linux.g++",
            "solidity" : "Version: 0.8.21+commit.d9974bed.Linux.g++",
            "source" : "src/GeneralStateTestsFiller/Shanghai/stEIP3860-limitmeterinitcode/create2InitCodeSizeLimitFiller.yml",
            "sourceHash" : "38b718ea22fed7008bd722dd518d439b56199b7da4364a84633f3602715dcdd5"
        },
        "blocks" : [
            {
                "blockHeader" : {
                    "baseFeePerGas" : "0x0a",
                    "bloom" : "0x00000000000000000000000000000000000000000000000000000000000000000000000000000000000000000000000000000000000000000000000000000000000000000000000000000000000000000000000000000000000000000000000000000000000000000000000000000000000000000000000000000000000000000000000000000000000000000000000000000000000000000000000000000000000000000000000000000000000000000000000000000000000000000000000000000000000000000000000000000000000000000000000000000000000000000000000000000000000000000000000000000000000000000000000000000000",
                    "coinbase" : "0x2adc25665018aa1fe0e6bc666dac8fc2697ff9ba",
                    "difficulty" : "0x00",
                    "extraData" : "0x00",
                    "gasLimit" : "0x01312d00",
                    "gasUsed" : "0x028372",
                    "hash" : "0xe4eb580bbcd01d225772f93c548f3515d1d91e81e105cad61e2ef5d00391b1bd",
                    "mixHash" : "0x0000000000000000000000000000000000000000000000000000000000020000",
                    "nonce" : "0x0000000000000000",
                    "number" : "0x01",
                    "parentHash" : "0x2df912d872c4145c901333801f6596fe2a933b50c8a51662050fd706003f3a24",
                    "receiptTrie" : "0x48faaf00afc3b2203d203abf274a55d6dd2b6e5b93174f48c6d0d04ada947670",
                    "stateRoot" : "0x5850ba7dec80b7913636bcc8197d7434ac80ce44036a1b770d002982061fb2c5",
                    "timestamp" : "0x03e8",
                    "transactionsTrie" : "0x56be989ed075134aa66853f96e2880be22e77028f88e3df8cd67d7a01a8d286d",
                    "uncleHash" : "0x1dcc4de8dec75d7aab85b567b6ccd41ad312451b948a7413f0a142fd40d49347"
                },
                "rlp" : "0xf9027ff901f7a02df912d872c4145c901333801f6596fe2a933b50c8a51662050fd706003f3a24a01dcc4de8dec75d7aab85b567b6ccd41ad312451b948a7413f0a142fd40d49347942adc25665018aa1fe0e6bc666dac8fc2697ff9baa05850ba7dec80b7913636bcc8197d7434ac80ce44036a1b770d002982061fb2c5a056be989ed075134aa66853f96e2880be22e77028f88e3df8cd67d7a01a8d286da048faaf00afc3b2203d203abf274a55d6dd2b6e5b93174f48c6d0d04ada947670b901000000000000000000000000000000000000000000000000000000000000000000000000000000000000000000000000000000000000000000000000000000000000000000000000000000000000000000000000000000000000000000000000000000000000000000000000000000000000000000000000000000000000000000000000000000000000000000000000000000000000000000000000000000000000000000000000000000000000000000000000000000000000000000000000000000000000000000000000000000000000000000000000000000000000000000000000000000000000000000000000000000000000000000000000000000000080018401312d00830283728203e800a000000000000000000000000000000000000000000000000000000000000200008800000000000000000af882f880800a83e4e1c094b94f5374fce5edbc8e2a8697c15331677e6ebf0b80a0000000000000000000000000000000000000000000000000000000000000c0011ca0fa5e0f7c53cba5169bd5b239b479ba8668cf69d8c06d24b00a585b995a1c2c67a056382ddd27880d6393b3f905dc75db8a0c30eeb1c9a8443ac53723ca4feba37cc0",
                "transactions" : [
                    {
                        "data" : "0x000000000000000000000000000000000000000000000000000000000000c001",
                        "gasLimit" : "0xe4e1c0",
                        "gasPrice" : "0x0a",
                        "nonce" : "0x00",
                        "r" : "0xfa5e0f7c53cba5169bd5b239b479ba8668cf69d8c06d24b00a585b995a1c2c67",
                        "s" : "0x56382ddd27880d6393b3f905dc75db8a0c30eeb1c9a8443ac53723ca4feba37c",
                        "sender" : "0xa94f5374fce5edbc8e2a8697c15331677e6ebf0b",
                        "to" : "0xb94f5374fce5edbc8e2a8697c15331677e6ebf0b",
                        "v" : "0x1c",
                        "value" : "0x00"
                    }
                ],
                "uncleHeaders" : [
                ]
            }
        ],
        "genesisBlockHeader" : {
            "baseFeePerGas" : "0x0b",
            "bloom" : "0x00000000000000000000000000000000000000000000000000000000000000000000000000000000000000000000000000000000000000000000000000000000000000000000000000000000000000000000000000000000000000000000000000000000000000000000000000000000000000000000000000000000000000000000000000000000000000000000000000000000000000000000000000000000000000000000000000000000000000000000000000000000000000000000000000000000000000000000000000000000000000000000000000000000000000000000000000000000000000000000000000000000000000000000000000000000",
            "coinbase" : "0x2adc25665018aa1fe0e6bc666dac8fc2697ff9ba",
            "difficulty" : "0x00",
            "extraData" : "0x00",
            "gasLimit" : "0x01312d00",
            "gasUsed" : "0x00",
            "hash" : "0x2df912d872c4145c901333801f6596fe2a933b50c8a51662050fd706003f3a24",
            "mixHash" : "0x0000000000000000000000000000000000000000000000000000000000020000",
            "nonce" : "0x0000000000000000",
            "number" : "0x00",
            "parentHash" : "0x0000000000000000000000000000000000000000000000000000000000000000",
            "receiptTrie" : "0x56e81f171bcc55a6ff8345e692c0f86e5b48e01b996cadc001622fb5e363b421",
            "stateRoot" : "0x491a64ebb8db9295f6241dbce081c51361580dec3e6e05d40734d77daa6491fb",
            "timestamp" : "0x00",
            "transactionsTrie" : "0x56e81f171bcc55a6ff8345e692c0f86e5b48e01b996cadc001622fb5e363b421",
            "uncleHash" : "0x1dcc4de8dec75d7aab85b567b6ccd41ad312451b948a7413f0a142fd40d49347"
        },
        "genesisRLP" : "0xf901f7f901f2a00000000000000000000000000000000000000000000000000000000000000000a01dcc4de8dec75d7aab85b567b6ccd41ad312451b948a7413f0a142fd40d49347942adc25665018aa1fe0e6bc666dac8fc2697ff9baa0491a64ebb8db9295f6241dbce081c51361580dec3e6e05d40734d77daa6491fba056e81f171bcc55a6ff8345e692c0f86e5b48e01b996cadc001622fb5e363b421a056e81f171bcc55a6ff8345e692c0f86e5b48e01b996cadc001622fb5e363b421b901000000000000000000000000000000000000000000000000000000000000000000000000000000000000000000000000000000000000000000000000000000000000000000000000000000000000000000000000000000000000000000000000000000000000000000000000000000000000000000000000000000000000000000000000000000000000000000000000000000000000000000000000000000000000000000000000000000000000000000000000000000000000000000000000000000000000000000000000000000000000000000000000000000000000000000000000000000000000000000000000000000000000000000000000000000000080808401312d00808000a000000000000000000000000000000000000000000000000000000000000200008800000000000000000bc0c0",
        "lastblockhash" : "0xe4eb580bbcd01d225772f93c548f3515d1d91e81e105cad61e2ef5d00391b1bd",
        "network" : "Paris",
        "postState" : {
            "0x67d49ae27e912b3b508d62ce1e463298db6edf32" : {
                "balance" : "0x00",
                "code" : "0x600a80600080396000f3",
                "nonce" : "0x01",
                "storage" : {
                }
            },
            "0xa94f5374fce5edbc8e2a8697c15331677e6ebf0b" : {
                "balance" : "0x0bd29f8c",
                "code" : "0x",
                "nonce" : "0x01",
                "storage" : {
                }
            },
            "0xb94f5374fce5edbc8e2a8697c15331677e6ebf0b" : {
                "balance" : "0x00",
                "code" : "0x60003560005260008036818073c94f5374fce5edbc8e2a8697c15331677e6ebf0b62989680f16000556001805500",
                "nonce" : "0x00",
                "storage" : {
                    "0x00" : "0x01",
                    "0x01" : "0x01"
                }
            },
            "0xc94f5374fce5edbc8e2a8697c15331677e6ebf0b" : {
                "balance" : "0x00",
                "code" : "0x69600a80600080396000f360b01b60009081523563deadbeef5a91600080f5905a9003600a5560005500",
                "nonce" : "0x01",
                "storage" : {
                    "0x00" : "0x67d49ae27e912b3b508d62ce1e463298db6edf32",
                    "0x0a" : "0xcd02"
                }
            }
        },
        "pre" : {
            "0xa94f5374fce5edbc8e2a8697c15331677e6ebf0b" : {
                "balance" : "0x0bebc200",
                "code" : "0x",
                "nonce" : "0x00",
                "storage" : {
                }
            },
            "0xb94f5374fce5edbc8e2a8697c15331677e6ebf0b" : {
                "balance" : "0x00",
                "code" : "0x60003560005260008036818073c94f5374fce5edbc8e2a8697c15331677e6ebf0b62989680f16000556001805500",
                "nonce" : "0x00",
                "storage" : {
                }
            },
            "0xc94f5374fce5edbc8e2a8697c15331677e6ebf0b" : {
                "balance" : "0x00",
                "code" : "0x69600a80600080396000f360b01b60009081523563deadbeef5a91600080f5905a9003600a5560005500",
                "nonce" : "0x00",
                "storage" : {
                }
            }
        },
        "sealEngine" : "NoProof"
    },
    "create2InitCodeSizeLimit_d1g0v0_Shanghai" : {
        "_info" : {
            "comment" : "",
            "filling-rpc-server" : "evm version 1.13.11-unstable-765f2904-20240124",
            "filling-tool-version" : "retesteth-0.3.2-cancun+commit.ea13235b.Linux.g++",
            "generatedTestHash" : "06214ba5fce98471a42c42ebe9bc788ad5caa4c6926490a3adf61a119d985390",
            "lllcversion" : "Version: 0.5.14-develop.2023.7.11+commit.c58ab2c6.mod.Linux.g++",
            "solidity" : "Version: 0.8.21+commit.d9974bed.Linux.g++",
            "source" : "src/GeneralStateTestsFiller/Shanghai/stEIP3860-limitmeterinitcode/create2InitCodeSizeLimitFiller.yml",
            "sourceHash" : "38b718ea22fed7008bd722dd518d439b56199b7da4364a84633f3602715dcdd5"
        },
        "blocks" : [
            {
                "blockHeader" : {
                    "baseFeePerGas" : "0x0a",
                    "bloom" : "0x00000000000000000000000000000000000000000000000000000000000000000000000000000000000000000000000000000000000000000000000000000000000000000000000000000000000000000000000000000000000000000000000000000000000000000000000000000000000000000000000000000000000000000000000000000000000000000000000000000000000000000000000000000000000000000000000000000000000000000000000000000000000000000000000000000000000000000000000000000000000000000000000000000000000000000000000000000000000000000000000000000000000000000000000000000000",
                    "coinbase" : "0x2adc25665018aa1fe0e6bc666dac8fc2697ff9ba",
                    "difficulty" : "0x00",
                    "extraData" : "0x00",
                    "gasLimit" : "0x01312d00",
                    "gasUsed" : "0x995260",
                    "hash" : "0xdf8001d14902e553efb013765584f179ad59698e3a681b823c5d0b59ac6c00d9",
                    "mixHash" : "0x0000000000000000000000000000000000000000000000000000000000020000",
                    "nonce" : "0x0000000000000000",
                    "number" : "0x01",
                    "parentHash" : "0x067f09cffce00a05aedaa3b5fc99aa07192aadf4b86cc4c935f9b82efbed8636",
                    "receiptTrie" : "0xecba10fbf1bca2fde39dcf1d00ef6c78716f7a486d4928ebaf0246ec27e3a4e8",
                    "stateRoot" : "0x100592ea220f75303e912b58ed1cfc2c791a5a0418642b2c996dafd10038cd7a",
                    "timestamp" : "0x03e8",
                    "transactionsTrie" : "0x56be989ed075134aa66853f96e2880be22e77028f88e3df8cd67d7a01a8d286d",
                    "uncleHash" : "0x1dcc4de8dec75d7aab85b567b6ccd41ad312451b948a7413f0a142fd40d49347",
                    "withdrawalsRoot" : "0x56e81f171bcc55a6ff8345e692c0f86e5b48e01b996cadc001622fb5e363b421"
                },
                "rlp" : "0xf902a1f90218a0067f09cffce00a05aedaa3b5fc99aa07192aadf4b86cc4c935f9b82efbed8636a01dcc4de8dec75d7aab85b567b6ccd41ad312451b948a7413f0a142fd40d49347942adc25665018aa1fe0e6bc666dac8fc2697ff9baa0100592ea220f75303e912b58ed1cfc2c791a5a0418642b2c996dafd10038cd7aa056be989ed075134aa66853f96e2880be22e77028f88e3df8cd67d7a01a8d286da0ecba10fbf1bca2fde39dcf1d00ef6c78716f7a486d4928ebaf0246ec27e3a4e8b901000000000000000000000000000000000000000000000000000000000000000000000000000000000000000000000000000000000000000000000000000000000000000000000000000000000000000000000000000000000000000000000000000000000000000000000000000000000000000000000000000000000000000000000000000000000000000000000000000000000000000000000000000000000000000000000000000000000000000000000000000000000000000000000000000000000000000000000000000000000000000000000000000000000000000000000000000000000000000000000000000000000000000000000000000000000080018401312d00839952608203e800a000000000000000000000000000000000000000000000000000000000000200008800000000000000000aa056e81f171bcc55a6ff8345e692c0f86e5b48e01b996cadc001622fb5e363b421f882f880800a83e4e1c094b94f5374fce5edbc8e2a8697c15331677e6ebf0b80a0000000000000000000000000000000000000000000000000000000000000c0011ca0fa5e0f7c53cba5169bd5b239b479ba8668cf69d8c06d24b00a585b995a1c2c67a056382ddd27880d6393b3f905dc75db8a0c30eeb1c9a8443ac53723ca4feba37cc0c0",
                "transactions" : [
                    {
                        "data" : "0x000000000000000000000000000000000000000000000000000000000000c001",
                        "gasLimit" : "0xe4e1c0",
                        "gasPrice" : "0x0a",
                        "nonce" : "0x00",
                        "r" : "0xfa5e0f7c53cba5169bd5b239b479ba8668cf69d8c06d24b00a585b995a1c2c67",
                        "s" : "0x56382ddd27880d6393b3f905dc75db8a0c30eeb1c9a8443ac53723ca4feba37c",
                        "sender" : "0xa94f5374fce5edbc8e2a8697c15331677e6ebf0b",
                        "to" : "0xb94f5374fce5edbc8e2a8697c15331677e6ebf0b",
                        "v" : "0x1c",
                        "value" : "0x00"
                    }
                ],
                "uncleHeaders" : [
                ],
                "withdrawals" : [
                ]
            }
        ],
        "genesisBlockHeader" : {
            "baseFeePerGas" : "0x0b",
            "bloom" : "0x00000000000000000000000000000000000000000000000000000000000000000000000000000000000000000000000000000000000000000000000000000000000000000000000000000000000000000000000000000000000000000000000000000000000000000000000000000000000000000000000000000000000000000000000000000000000000000000000000000000000000000000000000000000000000000000000000000000000000000000000000000000000000000000000000000000000000000000000000000000000000000000000000000000000000000000000000000000000000000000000000000000000000000000000000000000",
            "coinbase" : "0x2adc25665018aa1fe0e6bc666dac8fc2697ff9ba",
            "difficulty" : "0x00",
            "extraData" : "0x00",
            "gasLimit" : "0x01312d00",
            "gasUsed" : "0x00",
            "hash" : "0x067f09cffce00a05aedaa3b5fc99aa07192aadf4b86cc4c935f9b82efbed8636",
            "mixHash" : "0x0000000000000000000000000000000000000000000000000000000000020000",
            "nonce" : "0x0000000000000000",
            "number" : "0x00",
            "parentHash" : "0x0000000000000000000000000000000000000000000000000000000000000000",
            "receiptTrie" : "0x56e81f171bcc55a6ff8345e692c0f86e5b48e01b996cadc001622fb5e363b421",
            "stateRoot" : "0x491a64ebb8db9295f6241dbce081c51361580dec3e6e05d40734d77daa6491fb",
            "timestamp" : "0x00",
            "transactionsTrie" : "0x56e81f171bcc55a6ff8345e692c0f86e5b48e01b996cadc001622fb5e363b421",
            "uncleHash" : "0x1dcc4de8dec75d7aab85b567b6ccd41ad312451b948a7413f0a142fd40d49347",
            "withdrawalsRoot" : "0x56e81f171bcc55a6ff8345e692c0f86e5b48e01b996cadc001622fb5e363b421"
        },
        "genesisRLP" : "0xf90219f90213a00000000000000000000000000000000000000000000000000000000000000000a01dcc4de8dec75d7aab85b567b6ccd41ad312451b948a7413f0a142fd40d49347942adc25665018aa1fe0e6bc666dac8fc2697ff9baa0491a64ebb8db9295f6241dbce081c51361580dec3e6e05d40734d77daa6491fba056e81f171bcc55a6ff8345e692c0f86e5b48e01b996cadc001622fb5e363b421a056e81f171bcc55a6ff8345e692c0f86e5b48e01b996cadc001622fb5e363b421b901000000000000000000000000000000000000000000000000000000000000000000000000000000000000000000000000000000000000000000000000000000000000000000000000000000000000000000000000000000000000000000000000000000000000000000000000000000000000000000000000000000000000000000000000000000000000000000000000000000000000000000000000000000000000000000000000000000000000000000000000000000000000000000000000000000000000000000000000000000000000000000000000000000000000000000000000000000000000000000000000000000000000000000000000000000000080808401312d00808000a000000000000000000000000000000000000000000000000000000000000200008800000000000000000ba056e81f171bcc55a6ff8345e692c0f86e5b48e01b996cadc001622fb5e363b421c0c0c0",
        "lastblockhash" : "0xdf8001d14902e553efb013765584f179ad59698e3a681b823c5d0b59ac6c00d9",
        "network" : "Shanghai",
        "postState" : {
            "0xa94f5374fce5edbc8e2a8697c15331677e6ebf0b" : {
                "balance" : "0x05ee8a40",
                "code" : "0x",
                "nonce" : "0x01",
                "storage" : {
                }
            },
            "0xb94f5374fce5edbc8e2a8697c15331677e6ebf0b" : {
                "balance" : "0x00",
                "code" : "0x60003560005260008036818073c94f5374fce5edbc8e2a8697c15331677e6ebf0b62989680f16000556001805500",
                "nonce" : "0x00",
                "storage" : {
                    "0x01" : "0x01"
                }
            },
            "0xc94f5374fce5edbc8e2a8697c15331677e6ebf0b" : {
                "balance" : "0x00",
                "code" : "0x69600a80600080396000f360b01b60009081523563deadbeef5a91600080f5905a9003600a5560005500",
                "nonce" : "0x00",
                "storage" : {
                }
            }
        },
        "pre" : {
            "0xa94f5374fce5edbc8e2a8697c15331677e6ebf0b" : {
                "balance" : "0x0bebc200",
                "code" : "0x",
                "nonce" : "0x00",
                "storage" : {
                }
            },
            "0xb94f5374fce5edbc8e2a8697c15331677e6ebf0b" : {
                "balance" : "0x00",
                "code" : "0x60003560005260008036818073c94f5374fce5edbc8e2a8697c15331677e6ebf0b62989680f16000556001805500",
                "nonce" : "0x00",
                "storage" : {
                }
            },
            "0xc94f5374fce5edbc8e2a8697c15331677e6ebf0b" : {
                "balance" : "0x00",
                "code" : "0x69600a80600080396000f360b01b60009081523563deadbeef5a91600080f5905a9003600a5560005500",
                "nonce" : "0x00",
                "storage" : {
                }
            }
        },
        "sealEngine" : "NoProof"
    }
}