{
    "slt4_Berlin" : {
        "_info" : {
            "comment" : "Converted from VMTest source. ",
            "filling-rpc-server" : "evm version 1.10.2-unstable-22082f9e-20210309",
            "filling-tool-version" : "retesteth-0.1.0-accesslist+commit.47c69eb3.Linux.g++",
            "lllcversion" : "Version: 0.5.14-develop.2020.6.22+commit.9189ad7a.Linux.g++",
            "source" : "src/VMTestsFiller/vmBitwiseLogicOperation/slt4Filler.json",
            "sourceHash" : "d9c8beeeead7d48e1eb6826a1ea2218bbe1f6d6a31f568fcd7662a260cdcc393"
        },
        "sealEngine" : "NoProof",
        "network" : "Berlin",
        "pre" : {
            "0x0f572e5295c57f15886f9b263e2f6d2d6c7b5ec6" : {
                "balance" : "0xd3c21bcecceda1000000",
                "code" : "0x600360000360056000031260005500",
                "nonce" : "0x00",
                "storage" : {
                }
            },
            "0xa94f5374fce5edbc8e2a8697c15331677e6ebf0b" : {
                "balance" : "0x7ffffffffffffff0",
                "code" : "0x",
                "nonce" : "0x00",
                "storage" : {
                }
            }
        },
        "genesisBlockHeader" : {
            "bloom" : "0x00000000000000000000000000000000000000000000000000000000000000000000000000000000000000000000000000000000000000000000000000000000000000000000000000000000000000000000000000000000000000000000000000000000000000000000000000000000000000000000000000000000000000000000000000000000000000000000000000000000000000000000000000000000000000000000000000000000000000000000000000000000000000000000000000000000000000000000000000000000000000000000000000000000000000000000000000000000000000000000000000000000000000000000000000000000",
            "coinbase" : "0x2adc25665018aa1fe0e6bc666dac8fc2697ff9ba",
            "difficulty" : "0x020000",
            "extraData" : "0x42",
            "gasLimit" : "0x7fffffffffffffff",
            "gasUsed" : "0x00",
            "hash" : "0x80f57adfc47f8ddcfddd7f374132ec9c1272503c595b05ba3bc928f60c09490b",
            "mixHash" : "0x0000000000000000000000000000000000000000000000000000000000000000",
            "nonce" : "0x0000000000000000",
            "number" : "0x00",
            "parentHash" : "0x0000000000000000000000000000000000000000000000000000000000000000",
            "receiptTrie" : "0x56e81f171bcc55a6ff8345e692c0f86e5b48e01b996cadc001622fb5e363b421",
            "stateRoot" : "0x2bb6eefed42220dc4ac3976d0f18ae6d23c88f2ade13d0b14e17c157997d90e1",
            "timestamp" : "0x00",
            "transactionsTrie" : "0x56e81f171bcc55a6ff8345e692c0f86e5b48e01b996cadc001622fb5e363b421",
            "uncleHash" : "0x1dcc4de8dec75d7aab85b567b6ccd41ad312451b948a7413f0a142fd40d49347"
        },
        "genesisRLP" : "0xf901fdf901f8a00000000000000000000000000000000000000000000000000000000000000000a01dcc4de8dec75d7aab85b567b6ccd41ad312451b948a7413f0a142fd40d49347942adc25665018aa1fe0e6bc666dac8fc2697ff9baa02bb6eefed42220dc4ac3976d0f18ae6d23c88f2ade13d0b14e17c157997d90e1a056e81f171bcc55a6ff8345e692c0f86e5b48e01b996cadc001622fb5e363b421a056e81f171bcc55a6ff8345e692c0f86e5b48e01b996cadc001622fb5e363b421b90100000000000000000000000000000000000000000000000000000000000000000000000000000000000000000000000000000000000000000000000000000000000000000000000000000000000000000000000000000000000000000000000000000000000000000000000000000000000000000000000000000000000000000000000000000000000000000000000000000000000000000000000000000000000000000000000000000000000000000000000000000000000000000000000000000000000000000000000000000000000000000000000000000000000000000000000000000000000000000000000000000000000000000000000000000000008302000080887fffffffffffffff808042a00000000000000000000000000000000000000000000000000000000000000000880000000000000000c0c0",
        "blocks" : [
            {
                "chainname" : "default",
                "blocknumber" : "1",
                "uncleHeaders" : [
                ],
                "blockHeader" : {
                    "bloom" : "0x00000000000000000000000000000000000000000000000000000000000000000000000000000000000000000000000000000000000000000000000000000000000000000000000000000000000000000000000000000000000000000000000000000000000000000000000000000000000000000000000000000000000000000000000000000000000000000000000000000000000000000000000000000000000000000000000000000000000000000000000000000000000000000000000000000000000000000000000000000000000000000000000000000000000000000000000000000000000000000000000000000000000000000000000000000000",
                    "coinbase" : "0x2adc25665018aa1fe0e6bc666dac8fc2697ff9ba",
                    "difficulty" : "0x020000",
                    "extraData" : "0x42",
                    "gasLimit" : "0x7fffffffffffffff",
                    "gasUsed" : "0xa874",
                    "hash" : "0xeff9b01be6d8865c4905896045ac135d833c3cdac5aa0e89fac8907439d6f58a",
                    "mixHash" : "0x0000000000000000000000000000000000000000000000000000000000000000",
                    "nonce" : "0x0000000000000000",
                    "number" : "0x01",
                    "parentHash" : "0x80f57adfc47f8ddcfddd7f374132ec9c1272503c595b05ba3bc928f60c09490b",
                    "receiptTrie" : "0xa3bb384159a769344215a634e57ecca58ca12b1bcc4bc9fc7c54123f11986436",
                    "stateRoot" : "0xacc9a112e7d8fadb8197248c08789c61c5342441a8f25c186b4b8ec202c8a4d8",
                    "timestamp" : "0x03e8",
                    "transactionsTrie" : "0xd776808ba2bc76d7811db42b9b66ba3805093a53548579b8e5cb4ef90ecdfa45",
                    "uncleHash" : "0x1dcc4de8dec75d7aab85b567b6ccd41ad312451b948a7413f0a142fd40d49347"
                },
                "transactions" : [
                    {
                        "data" : "0x",
                        "gasLimit" : "0x0186a0",
                        "gasPrice" : "0x0c",
                        "nonce" : "0x00",
                        "r" : "0x1cd68b4bb170803e261493404e86de287b1f0373ad29214b1222b2d4eb193848",
                        "s" : "0x6219c94315c1b7605b09a7a229b21007f7968181001cd9d00aae37cfde3cfbf9",
                        "to" : "0x0f572e5295c57f15886f9b263e2f6d2d6c7b5ec6",
                        "v" : "0x1b",
                        "value" : "0x0b"
                    }
                ],
                "rlp" : "0xf90264f901fca080f57adfc47f8ddcfddd7f374132ec9c1272503c595b05ba3bc928f60c09490ba01dcc4de8dec75d7aab85b567b6ccd41ad312451b948a7413f0a142fd40d49347942adc25665018aa1fe0e6bc666dac8fc2697ff9baa0acc9a112e7d8fadb8197248c08789c61c5342441a8f25c186b4b8ec202c8a4d8a0d776808ba2bc76d7811db42b9b66ba3805093a53548579b8e5cb4ef90ecdfa45a0a3bb384159a769344215a634e57ecca58ca12b1bcc4bc9fc7c54123f11986436b90100000000000000000000000000000000000000000000000000000000000000000000000000000000000000000000000000000000000000000000000000000000000000000000000000000000000000000000000000000000000000000000000000000000000000000000000000000000000000000000000000000000000000000000000000000000000000000000000000000000000000000000000000000000000000000000000000000000000000000000000000000000000000000000000000000000000000000000000000000000000000000000000000000000000000000000000000000000000000000000000000000000000000000000000000000000008302000001887fffffffffffffff82a8748203e842a00000000000000000000000000000000000000000000000000000000000000000880000000000000000f862f860800c830186a0940f572e5295c57f15886f9b263e2f6d2d6c7b5ec60b801ba01cd68b4bb170803e261493404e86de287b1f0373ad29214b1222b2d4eb193848a06219c94315c1b7605b09a7a229b21007f7968181001cd9d00aae37cfde3cfbf9c0"
            }
        ],
        "postState" : {
            "0x0f572e5295c57f15886f9b263e2f6d2d6c7b5ec6" : {
                "code" : "0x600360000360056000031260005500",
                "nonce" : "0x00",
                "balance" : "0xd3c21bcecceda100000b",
                "storage" : {
                    "0x00" : "0x01"
                }
            },
            "0x2adc25665018aa1fe0e6bc666dac8fc2697ff9ba" : {
                "code" : "0x",
                "nonce" : "0x00",
                "balance" : "0x1bc16d674ecfe570",
                "storage" : {
                }
            },
            "0xa94f5374fce5edbc8e2a8697c15331677e6ebf0b" : {
                "code" : "0x",
                "nonce" : "0x01",
                "balance" : "0x7ffffffffff81a75",
                "storage" : {
                }
            }
        },
        "lastblockhash" : "0xeff9b01be6d8865c4905896045ac135d833c3cdac5aa0e89fac8907439d6f58a"
    },
    "slt4_Istanbul" : {
        "_info" : {
            "comment" : "Converted from VMTest source. ",
            "filling-rpc-server" : "evm version 1.10.2-unstable-22082f9e-20210309",
            "filling-tool-version" : "retesteth-0.1.0-accesslist+commit.47c69eb3.Linux.g++",
            "lllcversion" : "Version: 0.5.14-develop.2020.6.22+commit.9189ad7a.Linux.g++",
            "source" : "src/VMTestsFiller/vmBitwiseLogicOperation/slt4Filler.json",
            "sourceHash" : "d9c8beeeead7d48e1eb6826a1ea2218bbe1f6d6a31f568fcd7662a260cdcc393"
        },
        "sealEngine" : "NoProof",
        "network" : "Istanbul",
        "pre" : {
            "0x0f572e5295c57f15886f9b263e2f6d2d6c7b5ec6" : {
                "balance" : "0xd3c21bcecceda1000000",
                "code" : "0x600360000360056000031260005500",
                "nonce" : "0x00",
                "storage" : {
                }
            },
            "0xa94f5374fce5edbc8e2a8697c15331677e6ebf0b" : {
                "balance" : "0x7ffffffffffffff0",
                "code" : "0x",
                "nonce" : "0x00",
                "storage" : {
                }
            }
        },
        "genesisBlockHeader" : {
            "bloom" : "0x00000000000000000000000000000000000000000000000000000000000000000000000000000000000000000000000000000000000000000000000000000000000000000000000000000000000000000000000000000000000000000000000000000000000000000000000000000000000000000000000000000000000000000000000000000000000000000000000000000000000000000000000000000000000000000000000000000000000000000000000000000000000000000000000000000000000000000000000000000000000000000000000000000000000000000000000000000000000000000000000000000000000000000000000000000000",
            "coinbase" : "0x2adc25665018aa1fe0e6bc666dac8fc2697ff9ba",
            "difficulty" : "0x020000",
            "extraData" : "0x42",
            "gasLimit" : "0x7fffffffffffffff",
            "gasUsed" : "0x00",
            "hash" : "0x80f57adfc47f8ddcfddd7f374132ec9c1272503c595b05ba3bc928f60c09490b",
            "mixHash" : "0x0000000000000000000000000000000000000000000000000000000000000000",
            "nonce" : "0x0000000000000000",
            "number" : "0x00",
            "parentHash" : "0x0000000000000000000000000000000000000000000000000000000000000000",
            "receiptTrie" : "0x56e81f171bcc55a6ff8345e692c0f86e5b48e01b996cadc001622fb5e363b421",
            "stateRoot" : "0x2bb6eefed42220dc4ac3976d0f18ae6d23c88f2ade13d0b14e17c157997d90e1",
            "timestamp" : "0x00",
            "transactionsTrie" : "0x56e81f171bcc55a6ff8345e692c0f86e5b48e01b996cadc001622fb5e363b421",
            "uncleHash" : "0x1dcc4de8dec75d7aab85b567b6ccd41ad312451b948a7413f0a142fd40d49347"
        },
        "genesisRLP" : "0xf901fdf901f8a00000000000000000000000000000000000000000000000000000000000000000a01dcc4de8dec75d7aab85b567b6ccd41ad312451b948a7413f0a142fd40d49347942adc25665018aa1fe0e6bc666dac8fc2697ff9baa02bb6eefed42220dc4ac3976d0f18ae6d23c88f2ade13d0b14e17c157997d90e1a056e81f171bcc55a6ff8345e692c0f86e5b48e01b996cadc001622fb5e363b421a056e81f171bcc55a6ff8345e692c0f86e5b48e01b996cadc001622fb5e363b421b90100000000000000000000000000000000000000000000000000000000000000000000000000000000000000000000000000000000000000000000000000000000000000000000000000000000000000000000000000000000000000000000000000000000000000000000000000000000000000000000000000000000000000000000000000000000000000000000000000000000000000000000000000000000000000000000000000000000000000000000000000000000000000000000000000000000000000000000000000000000000000000000000000000000000000000000000000000000000000000000000000000000000000000000000000000000008302000080887fffffffffffffff808042a00000000000000000000000000000000000000000000000000000000000000000880000000000000000c0c0",
        "blocks" : [
            {
                "chainname" : "default",
                "blocknumber" : "1",
                "uncleHeaders" : [
                ],
                "blockHeader" : {
                    "bloom" : "0x00000000000000000000000000000000000000000000000000000000000000000000000000000000000000000000000000000000000000000000000000000000000000000000000000000000000000000000000000000000000000000000000000000000000000000000000000000000000000000000000000000000000000000000000000000000000000000000000000000000000000000000000000000000000000000000000000000000000000000000000000000000000000000000000000000000000000000000000000000000000000000000000000000000000000000000000000000000000000000000000000000000000000000000000000000000",
                    "coinbase" : "0x2adc25665018aa1fe0e6bc666dac8fc2697ff9ba",
                    "difficulty" : "0x020000",
                    "extraData" : "0x42",
                    "gasLimit" : "0x7fffffffffffffff",
                    "gasUsed" : "0xa040",
                    "hash" : "0xee815bb452968bce57bf5da371eb2e59334abbf724818a44ca2d0ca0ec0ea40e",
                    "mixHash" : "0x0000000000000000000000000000000000000000000000000000000000000000",
                    "nonce" : "0x0000000000000000",
                    "number" : "0x01",
                    "parentHash" : "0x80f57adfc47f8ddcfddd7f374132ec9c1272503c595b05ba3bc928f60c09490b",
                    "receiptTrie" : "0xdea6ca2036d97726047dc47675665cc77e4dd3374a5af78ed3303a62e6c51c5f",
                    "stateRoot" : "0x47d8df81048261896ac1822f288cfba0c4c278dc1e0c06c56d83cbe2a51bdd72",
                    "timestamp" : "0x03e8",
                    "transactionsTrie" : "0xd776808ba2bc76d7811db42b9b66ba3805093a53548579b8e5cb4ef90ecdfa45",
                    "uncleHash" : "0x1dcc4de8dec75d7aab85b567b6ccd41ad312451b948a7413f0a142fd40d49347"
                },
                "transactions" : [
                    {
                        "data" : "0x",
                        "gasLimit" : "0x0186a0",
                        "gasPrice" : "0x0c",
                        "nonce" : "0x00",
                        "r" : "0x1cd68b4bb170803e261493404e86de287b1f0373ad29214b1222b2d4eb193848",
                        "s" : "0x6219c94315c1b7605b09a7a229b21007f7968181001cd9d00aae37cfde3cfbf9",
                        "to" : "0x0f572e5295c57f15886f9b263e2f6d2d6c7b5ec6",
                        "v" : "0x1b",
                        "value" : "0x0b"
                    }
                ],
                "rlp" : "0xf90264f901fca080f57adfc47f8ddcfddd7f374132ec9c1272503c595b05ba3bc928f60c09490ba01dcc4de8dec75d7aab85b567b6ccd41ad312451b948a7413f0a142fd40d49347942adc25665018aa1fe0e6bc666dac8fc2697ff9baa047d8df81048261896ac1822f288cfba0c4c278dc1e0c06c56d83cbe2a51bdd72a0d776808ba2bc76d7811db42b9b66ba3805093a53548579b8e5cb4ef90ecdfa45a0dea6ca2036d97726047dc47675665cc77e4dd3374a5af78ed3303a62e6c51c5fb90100000000000000000000000000000000000000000000000000000000000000000000000000000000000000000000000000000000000000000000000000000000000000000000000000000000000000000000000000000000000000000000000000000000000000000000000000000000000000000000000000000000000000000000000000000000000000000000000000000000000000000000000000000000000000000000000000000000000000000000000000000000000000000000000000000000000000000000000000000000000000000000000000000000000000000000000000000000000000000000000000000000000000000000000000000000008302000001887fffffffffffffff82a0408203e842a00000000000000000000000000000000000000000000000000000000000000000880000000000000000f862f860800c830186a0940f572e5295c57f15886f9b263e2f6d2d6c7b5ec60b801ba01cd68b4bb170803e261493404e86de287b1f0373ad29214b1222b2d4eb193848a06219c94315c1b7605b09a7a229b21007f7968181001cd9d00aae37cfde3cfbf9c0"
            }
        ],
        "postState" : {
            "0x0f572e5295c57f15886f9b263e2f6d2d6c7b5ec6" : {
                "code" : "0x600360000360056000031260005500",
                "nonce" : "0x00",
                "balance" : "0xd3c21bcecceda100000b",
                "storage" : {
                    "0x00" : "0x01"
                }
            },
            "0x2adc25665018aa1fe0e6bc666dac8fc2697ff9ba" : {
                "code" : "0x",
                "nonce" : "0x00",
                "balance" : "0x1bc16d674ecf8300",
                "storage" : {
                }
            },
            "0xa94f5374fce5edbc8e2a8697c15331677e6ebf0b" : {
                "code" : "0x",
                "nonce" : "0x01",
                "balance" : "0x7ffffffffff87ce5",
                "storage" : {
                }
            }
        },
        "lastblockhash" : "0xee815bb452968bce57bf5da371eb2e59334abbf724818a44ca2d0ca0ec0ea40e"
    }
}