{
    "xor0_Berlin" : {
        "_info" : {
            "comment" : "Converted from VMTest source. ",
            "filling-rpc-server" : "evm version 1.10.2-unstable-22082f9e-20210309",
            "filling-tool-version" : "retesteth-0.1.0-accesslist+commit.47c69eb3.Linux.g++",
            "lllcversion" : "Version: 0.5.14-develop.2020.6.22+commit.9189ad7a.Linux.g++",
            "source" : "src/VMTestsFiller/vmBitwiseLogicOperation/xor0Filler.json",
            "sourceHash" : "4bdb43efa8ff6060a5419a2f0457ba2f881aa731b421c95eef82e32fd992d577"
        },
        "sealEngine" : "NoProof",
        "network" : "Berlin",
        "pre" : {
            "0x0f572e5295c57f15886f9b263e2f6d2d6c7b5ec6" : {
                "balance" : "0xd3c21bcecceda1000000",
                "code" : "0x600260021860005500",
                "nonce" : "0x00",
                "storage" : {
                }
            },
            "0xa94f5374fce5edbc8e2a8697c15331677e6ebf0b" : {
                "balance" : "0x7ffffffffffffff0",
                "code" : "0x",
                "nonce" : "0x00",
                "storage" : {
                }
            }
        },
        "genesisBlockHeader" : {
            "bloom" : "0x00000000000000000000000000000000000000000000000000000000000000000000000000000000000000000000000000000000000000000000000000000000000000000000000000000000000000000000000000000000000000000000000000000000000000000000000000000000000000000000000000000000000000000000000000000000000000000000000000000000000000000000000000000000000000000000000000000000000000000000000000000000000000000000000000000000000000000000000000000000000000000000000000000000000000000000000000000000000000000000000000000000000000000000000000000000",
            "coinbase" : "0x2adc25665018aa1fe0e6bc666dac8fc2697ff9ba",
            "difficulty" : "0x020000",
            "extraData" : "0x42",
            "gasLimit" : "0x7fffffffffffffff",
            "gasUsed" : "0x00",
            "hash" : "0xa2c082118b922849eb83e3a282793bbd0677b7587bf47ea391a79cb12503b8da",
            "mixHash" : "0x0000000000000000000000000000000000000000000000000000000000000000",
            "nonce" : "0x0000000000000000",
            "number" : "0x00",
            "parentHash" : "0x0000000000000000000000000000000000000000000000000000000000000000",
            "receiptTrie" : "0x56e81f171bcc55a6ff8345e692c0f86e5b48e01b996cadc001622fb5e363b421",
            "stateRoot" : "0xc3aedf44397638e9f65852995244cffd1c6fa42bd6bb400ae1b46e9f62e69584",
            "timestamp" : "0x00",
            "transactionsTrie" : "0x56e81f171bcc55a6ff8345e692c0f86e5b48e01b996cadc001622fb5e363b421",
            "uncleHash" : "0x1dcc4de8dec75d7aab85b567b6ccd41ad312451b948a7413f0a142fd40d49347"
        },
        "genesisRLP" : "0xf901fdf901f8a00000000000000000000000000000000000000000000000000000000000000000a01dcc4de8dec75d7aab85b567b6ccd41ad312451b948a7413f0a142fd40d49347942adc25665018aa1fe0e6bc666dac8fc2697ff9baa0c3aedf44397638e9f65852995244cffd1c6fa42bd6bb400ae1b46e9f62e69584a056e81f171bcc55a6ff8345e692c0f86e5b48e01b996cadc001622fb5e363b421a056e81f171bcc55a6ff8345e692c0f86e5b48e01b996cadc001622fb5e363b421b90100000000000000000000000000000000000000000000000000000000000000000000000000000000000000000000000000000000000000000000000000000000000000000000000000000000000000000000000000000000000000000000000000000000000000000000000000000000000000000000000000000000000000000000000000000000000000000000000000000000000000000000000000000000000000000000000000000000000000000000000000000000000000000000000000000000000000000000000000000000000000000000000000000000000000000000000000000000000000000000000000000000000000000000000000000000008302000080887fffffffffffffff808042a00000000000000000000000000000000000000000000000000000000000000000880000000000000000c0c0",
        "blocks" : [
            {
                "chainname" : "default",
                "blocknumber" : "1",
                "uncleHeaders" : [
                ],
                "blockHeader" : {
                    "bloom" : "0x00000000000000000000000000000000000000000000000000000000000000000000000000000000000000000000000000000000000000000000000000000000000000000000000000000000000000000000000000000000000000000000000000000000000000000000000000000000000000000000000000000000000000000000000000000000000000000000000000000000000000000000000000000000000000000000000000000000000000000000000000000000000000000000000000000000000000000000000000000000000000000000000000000000000000000000000000000000000000000000000000000000000000000000000000000000",
                    "coinbase" : "0x2adc25665018aa1fe0e6bc666dac8fc2697ff9ba",
                    "difficulty" : "0x020000",
                    "extraData" : "0x42",
                    "gasLimit" : "0x7fffffffffffffff",
                    "gasUsed" : "0x5aac",
                    "hash" : "0xa819ddf6689098cbe23596910574664f5321be2a74f17e5fa12f2ba208930005",
                    "mixHash" : "0x0000000000000000000000000000000000000000000000000000000000000000",
                    "nonce" : "0x0000000000000000",
                    "number" : "0x01",
                    "parentHash" : "0xa2c082118b922849eb83e3a282793bbd0677b7587bf47ea391a79cb12503b8da",
                    "receiptTrie" : "0xdb5c5f9134166a4762904cf465b0af69f6274059c3765be041d957212dec7a1c",
                    "stateRoot" : "0x64c46b3342cecd67b7f6dd36a810efde90a622bebfee5e3ef5ae93f7871a690e",
                    "timestamp" : "0x03e8",
                    "transactionsTrie" : "0xd776808ba2bc76d7811db42b9b66ba3805093a53548579b8e5cb4ef90ecdfa45",
                    "uncleHash" : "0x1dcc4de8dec75d7aab85b567b6ccd41ad312451b948a7413f0a142fd40d49347"
                },
                "transactions" : [
                    {
                        "data" : "0x",
                        "gasLimit" : "0x0186a0",
                        "gasPrice" : "0x0c",
                        "nonce" : "0x00",
                        "r" : "0x1cd68b4bb170803e261493404e86de287b1f0373ad29214b1222b2d4eb193848",
                        "s" : "0x6219c94315c1b7605b09a7a229b21007f7968181001cd9d00aae37cfde3cfbf9",
                        "to" : "0x0f572e5295c57f15886f9b263e2f6d2d6c7b5ec6",
                        "v" : "0x1b",
                        "value" : "0x0b"
                    }
                ],
                "rlp" : "0xf90264f901fca0a2c082118b922849eb83e3a282793bbd0677b7587bf47ea391a79cb12503b8daa01dcc4de8dec75d7aab85b567b6ccd41ad312451b948a7413f0a142fd40d49347942adc25665018aa1fe0e6bc666dac8fc2697ff9baa064c46b3342cecd67b7f6dd36a810efde90a622bebfee5e3ef5ae93f7871a690ea0d776808ba2bc76d7811db42b9b66ba3805093a53548579b8e5cb4ef90ecdfa45a0db5c5f9134166a4762904cf465b0af69f6274059c3765be041d957212dec7a1cb90100000000000000000000000000000000000000000000000000000000000000000000000000000000000000000000000000000000000000000000000000000000000000000000000000000000000000000000000000000000000000000000000000000000000000000000000000000000000000000000000000000000000000000000000000000000000000000000000000000000000000000000000000000000000000000000000000000000000000000000000000000000000000000000000000000000000000000000000000000000000000000000000000000000000000000000000000000000000000000000000000000000000000000000000000000000008302000001887fffffffffffffff825aac8203e842a00000000000000000000000000000000000000000000000000000000000000000880000000000000000f862f860800c830186a0940f572e5295c57f15886f9b263e2f6d2d6c7b5ec60b801ba01cd68b4bb170803e261493404e86de287b1f0373ad29214b1222b2d4eb193848a06219c94315c1b7605b09a7a229b21007f7968181001cd9d00aae37cfde3cfbf9c0"
            }
        ],
        "postState" : {
            "0x0f572e5295c57f15886f9b263e2f6d2d6c7b5ec6" : {
                "code" : "0x600260021860005500",
                "nonce" : "0x00",
                "balance" : "0xd3c21bcecceda100000b",
                "storage" : {
                }
            },
            "0x2adc25665018aa1fe0e6bc666dac8fc2697ff9ba" : {
                "code" : "0x",
                "nonce" : "0x00",
                "balance" : "0x1bc16d674ecc4010",
                "storage" : {
                }
            },
            "0xa94f5374fce5edbc8e2a8697c15331677e6ebf0b" : {
                "code" : "0x",
                "nonce" : "0x01",
                "balance" : "0x7ffffffffffbbfd5",
                "storage" : {
                }
            }
        },
        "lastblockhash" : "0xa819ddf6689098cbe23596910574664f5321be2a74f17e5fa12f2ba208930005"
    },
    "xor0_Istanbul" : {
        "_info" : {
            "comment" : "Converted from VMTest source. ",
            "filling-rpc-server" : "evm version 1.10.2-unstable-22082f9e-20210309",
            "filling-tool-version" : "retesteth-0.1.0-accesslist+commit.47c69eb3.Linux.g++",
            "lllcversion" : "Version: 0.5.14-develop.2020.6.22+commit.9189ad7a.Linux.g++",
            "source" : "src/VMTestsFiller/vmBitwiseLogicOperation/xor0Filler.json",
            "sourceHash" : "4bdb43efa8ff6060a5419a2f0457ba2f881aa731b421c95eef82e32fd992d577"
        },
        "sealEngine" : "NoProof",
        "network" : "Istanbul",
        "pre" : {
            "0x0f572e5295c57f15886f9b263e2f6d2d6c7b5ec6" : {
                "balance" : "0xd3c21bcecceda1000000",
                "code" : "0x600260021860005500",
                "nonce" : "0x00",
                "storage" : {
                }
            },
            "0xa94f5374fce5edbc8e2a8697c15331677e6ebf0b" : {
                "balance" : "0x7ffffffffffffff0",
                "code" : "0x",
                "nonce" : "0x00",
                "storage" : {
                }
            }
        },
        "genesisBlockHeader" : {
            "bloom" : "0x00000000000000000000000000000000000000000000000000000000000000000000000000000000000000000000000000000000000000000000000000000000000000000000000000000000000000000000000000000000000000000000000000000000000000000000000000000000000000000000000000000000000000000000000000000000000000000000000000000000000000000000000000000000000000000000000000000000000000000000000000000000000000000000000000000000000000000000000000000000000000000000000000000000000000000000000000000000000000000000000000000000000000000000000000000000",
            "coinbase" : "0x2adc25665018aa1fe0e6bc666dac8fc2697ff9ba",
            "difficulty" : "0x020000",
            "extraData" : "0x42",
            "gasLimit" : "0x7fffffffffffffff",
            "gasUsed" : "0x00",
            "hash" : "0xa2c082118b922849eb83e3a282793bbd0677b7587bf47ea391a79cb12503b8da",
            "mixHash" : "0x0000000000000000000000000000000000000000000000000000000000000000",
            "nonce" : "0x0000000000000000",
            "number" : "0x00",
            "parentHash" : "0x0000000000000000000000000000000000000000000000000000000000000000",
            "receiptTrie" : "0x56e81f171bcc55a6ff8345e692c0f86e5b48e01b996cadc001622fb5e363b421",
            "stateRoot" : "0xc3aedf44397638e9f65852995244cffd1c6fa42bd6bb400ae1b46e9f62e69584",
            "timestamp" : "0x00",
            "transactionsTrie" : "0x56e81f171bcc55a6ff8345e692c0f86e5b48e01b996cadc001622fb5e363b421",
            "uncleHash" : "0x1dcc4de8dec75d7aab85b567b6ccd41ad312451b948a7413f0a142fd40d49347"
        },
        "genesisRLP" : "0xf901fdf901f8a00000000000000000000000000000000000000000000000000000000000000000a01dcc4de8dec75d7aab85b567b6ccd41ad312451b948a7413f0a142fd40d49347942adc25665018aa1fe0e6bc666dac8fc2697ff9baa0c3aedf44397638e9f65852995244cffd1c6fa42bd6bb400ae1b46e9f62e69584a056e81f171bcc55a6ff8345e692c0f86e5b48e01b996cadc001622fb5e363b421a056e81f171bcc55a6ff8345e692c0f86e5b48e01b996cadc001622fb5e363b421b90100000000000000000000000000000000000000000000000000000000000000000000000000000000000000000000000000000000000000000000000000000000000000000000000000000000000000000000000000000000000000000000000000000000000000000000000000000000000000000000000000000000000000000000000000000000000000000000000000000000000000000000000000000000000000000000000000000000000000000000000000000000000000000000000000000000000000000000000000000000000000000000000000000000000000000000000000000000000000000000000000000000000000000000000000000000008302000080887fffffffffffffff808042a00000000000000000000000000000000000000000000000000000000000000000880000000000000000c0c0",
        "blocks" : [
            {
                "chainname" : "default",
                "blocknumber" : "1",
                "uncleHeaders" : [
                ],
                "blockHeader" : {
                    "bloom" : "0x00000000000000000000000000000000000000000000000000000000000000000000000000000000000000000000000000000000000000000000000000000000000000000000000000000000000000000000000000000000000000000000000000000000000000000000000000000000000000000000000000000000000000000000000000000000000000000000000000000000000000000000000000000000000000000000000000000000000000000000000000000000000000000000000000000000000000000000000000000000000000000000000000000000000000000000000000000000000000000000000000000000000000000000000000000000",
                    "coinbase" : "0x2adc25665018aa1fe0e6bc666dac8fc2697ff9ba",
                    "difficulty" : "0x020000",
                    "extraData" : "0x42",
                    "gasLimit" : "0x7fffffffffffffff",
                    "gasUsed" : "0x5534",
                    "hash" : "0x8d8f8ea300fce8f87323c224a691029759607b6b91476cf93abaf0323af5c1ff",
                    "mixHash" : "0x0000000000000000000000000000000000000000000000000000000000000000",
                    "nonce" : "0x0000000000000000",
                    "number" : "0x01",
                    "parentHash" : "0xa2c082118b922849eb83e3a282793bbd0677b7587bf47ea391a79cb12503b8da",
                    "receiptTrie" : "0x34157e7d0eaa6696d8727f09f0c08611bd68808be86a6d615c3f503c000309f4",
                    "stateRoot" : "0x19a45c7309ce796cd6ff796d6906bc4c2a8e0fa4bd711879f3ce891f381fa30b",
                    "timestamp" : "0x03e8",
                    "transactionsTrie" : "0xd776808ba2bc76d7811db42b9b66ba3805093a53548579b8e5cb4ef90ecdfa45",
                    "uncleHash" : "0x1dcc4de8dec75d7aab85b567b6ccd41ad312451b948a7413f0a142fd40d49347"
                },
                "transactions" : [
                    {
                        "data" : "0x",
                        "gasLimit" : "0x0186a0",
                        "gasPrice" : "0x0c",
                        "nonce" : "0x00",
                        "r" : "0x1cd68b4bb170803e261493404e86de287b1f0373ad29214b1222b2d4eb193848",
                        "s" : "0x6219c94315c1b7605b09a7a229b21007f7968181001cd9d00aae37cfde3cfbf9",
                        "to" : "0x0f572e5295c57f15886f9b263e2f6d2d6c7b5ec6",
                        "v" : "0x1b",
                        "value" : "0x0b"
                    }
                ],
                "rlp" : "0xf90264f901fca0a2c082118b922849eb83e3a282793bbd0677b7587bf47ea391a79cb12503b8daa01dcc4de8dec75d7aab85b567b6ccd41ad312451b948a7413f0a142fd40d49347942adc25665018aa1fe0e6bc666dac8fc2697ff9baa019a45c7309ce796cd6ff796d6906bc4c2a8e0fa4bd711879f3ce891f381fa30ba0d776808ba2bc76d7811db42b9b66ba3805093a53548579b8e5cb4ef90ecdfa45a034157e7d0eaa6696d8727f09f0c08611bd68808be86a6d615c3f503c000309f4b90100000000000000000000000000000000000000000000000000000000000000000000000000000000000000000000000000000000000000000000000000000000000000000000000000000000000000000000000000000000000000000000000000000000000000000000000000000000000000000000000000000000000000000000000000000000000000000000000000000000000000000000000000000000000000000000000000000000000000000000000000000000000000000000000000000000000000000000000000000000000000000000000000000000000000000000000000000000000000000000000000000000000000000000000000000000008302000001887fffffffffffffff8255348203e842a00000000000000000000000000000000000000000000000000000000000000000880000000000000000f862f860800c830186a0940f572e5295c57f15886f9b263e2f6d2d6c7b5ec60b801ba01cd68b4bb170803e261493404e86de287b1f0373ad29214b1222b2d4eb193848a06219c94315c1b7605b09a7a229b21007f7968181001cd9d00aae37cfde3cfbf9c0"
            }
        ],
        "postState" : {
            "0x0f572e5295c57f15886f9b263e2f6d2d6c7b5ec6" : {
                "code" : "0x600260021860005500",
                "nonce" : "0x00",
                "balance" : "0xd3c21bcecceda100000b",
                "storage" : {
                }
            },
            "0x2adc25665018aa1fe0e6bc666dac8fc2697ff9ba" : {
                "code" : "0x",
                "nonce" : "0x00",
                "balance" : "0x1bc16d674ecbfe70",
                "storage" : {
                }
            },
            "0xa94f5374fce5edbc8e2a8697c15331677e6ebf0b" : {
                "code" : "0x",
                "nonce" : "0x01",
                "balance" : "0x7ffffffffffc0175",
                "storage" : {
                }
            }
        },
        "lastblockhash" : "0x8d8f8ea300fce8f87323c224a691029759607b6b91476cf93abaf0323af5c1ff"
    }
}