{
    "CreateCollisionToEmpty_d2g1v1_Byzantium" : {
        "_info" : {
            "comment" : "",
            "filledwith" : "cpp-1.3.0+commit.ab4ca6d1.Linux.g++",
            "lllcversion" : "Version: 0.4.20-develop.2018.1.8+commit.2548228b.Linux.g++",
            "source" : "src/BlockchainTestsFiller/GeneralStateTests/stCreateTest/CreateCollisionToEmpty_d2g1v1Filler.json",
            "sourceHash" : "d0ace91c4f25459c52d9980cd9648a5a5c23fba4ba4b1d202dbf945d01821bd9"
        },
        "blocks" : [
            {
                "blockHeader" : {
                    "bloom" : "0x00000000000000000000000000000000000000000000000000000000000000000000000000000000000000000000000000000000000000000000000000000000000000000000000000000000000000000000000000000000000000000000000000000000000000000000000000000000000000000000000000000000000000000000000000000000000000000000000000000000000000000000000000000000000000000000000000000000000000000000000000000000000000000000000000000000000000000000000000000000000000000000000000000000000000000000000000000000000000000000000000000000000000000000000000000000",
                    "coinbase" : "0x2adc25665018aa1fe0e6bc666dac8fc2697ff9ba",
                    "difficulty" : "0x020000",
                    "extraData" : "",
                    "gasLimit" : "0x989680",
                    "gasUsed" : "0xd0fb",
                    "hash" : "0xd01ca647c670c271bb7d4a319295dcca40fa9065a115772da038024ac209314e",
                    "mixHash" : "0x6747a63035e8b45e60cb98c03c26d17dca619efb4ed43040e2f27af6979dbe48",
                    "nonce" : "0x1d8d29a0685db0c8",
                    "number" : "0x01",
                    "parentHash" : "0x3c8c8dfd5623ff622fd4830cdcac18c7107f47263b12be313eac6c01cacbbe7a",
                    "receiptTrie" : "0xe265843b0e1d42d26eb82c756367a5faef9595a5a1d6950c97488b078654e0f7",
                    "stateRoot" : "0x76f4fd8c9429a7544909915b519a4de8aca39af8700b94cfb3526d2b0ad0ac52",
                    "timestamp" : "0x03e8",
                    "transactionsTrie" : "0x87eb001a717c0ab269d128a7daee927c7d8087ff4cb9d7e60e26968ba2212a97",
                    "uncleHash" : "0x1dcc4de8dec75d7aab85b567b6ccd41ad312451b948a7413f0a142fd40d49347"
                },
                "rlp" : "0xf9027ef901f7a03c8c8dfd5623ff622fd4830cdcac18c7107f47263b12be313eac6c01cacbbe7aa01dcc4de8dec75d7aab85b567b6ccd41ad312451b948a7413f0a142fd40d49347942adc25665018aa1fe0e6bc666dac8fc2697ff9baa076f4fd8c9429a7544909915b519a4de8aca39af8700b94cfb3526d2b0ad0ac52a087eb001a717c0ab269d128a7daee927c7d8087ff4cb9d7e60e26968ba2212a97a0e265843b0e1d42d26eb82c756367a5faef9595a5a1d6950c97488b078654e0f7b901000000000000000000000000000000000000000000000000000000000000000000000000000000000000000000000000000000000000000000000000000000000000000000000000000000000000000000000000000000000000000000000000000000000000000000000000000000000000000000000000000000000000000000000000000000000000000000000000000000000000000000000000000000000000000000000000000000000000000000000000000000000000000000000000000000000000000000000000000000000000000000000000000000000000000000000000000000000000000000000000000000000000000000000000000000000083020000018398968082d0fb8203e880a06747a63035e8b45e60cb98c03c26d17dca619efb4ed43040e2f27af6979dbe48881d8d29a0685db0c8f881f87f800182d2f0941a0000000000000000000000000000000000000001a000000000000000000000000030000000000000000000000000000000000000001ca0800318c5147a2ff58fe438f89c5b6de105f86e139f696d79eb77be14421c1714a0147ee8be1f91a40fb0209c7bfb2a9bff68bbbddece39f02e51542bd2edc84504c0",
                "transactions" : [
                    {
                        "data" : "0x0000000000000000000000003000000000000000000000000000000000000000",
                        "gasLimit" : "0xd2f0",
                        "gasPrice" : "0x01",
                        "nonce" : "0x00",
                        "r" : "0x800318c5147a2ff58fe438f89c5b6de105f86e139f696d79eb77be14421c1714",
                        "s" : "0x147ee8be1f91a40fb0209c7bfb2a9bff68bbbddece39f02e51542bd2edc84504",
                        "to" : "0x1a00000000000000000000000000000000000000",
                        "v" : "0x1c",
                        "value" : "0x01"
                    }
                ],
                "uncleHeaders" : [
                ]
            }
        ],
        "genesisBlockHeader" : {
            "bloom" : "0x00000000000000000000000000000000000000000000000000000000000000000000000000000000000000000000000000000000000000000000000000000000000000000000000000000000000000000000000000000000000000000000000000000000000000000000000000000000000000000000000000000000000000000000000000000000000000000000000000000000000000000000000000000000000000000000000000000000000000000000000000000000000000000000000000000000000000000000000000000000000000000000000000000000000000000000000000000000000000000000000000000000000000000000000000000000",
            "coinbase" : "0x2adc25665018aa1fe0e6bc666dac8fc2697ff9ba",
            "difficulty" : "0x020000",
            "extraData" : "0x42",
            "gasLimit" : "0x989680",
            "gasUsed" : "0x00",
            "hash" : "0x3c8c8dfd5623ff622fd4830cdcac18c7107f47263b12be313eac6c01cacbbe7a",
            "mixHash" : "0x56e81f171bcc55a6ff8345e692c0f86e5b48e01b996cadc001622fb5e363b421",
            "nonce" : "0x0102030405060708",
            "number" : "0x00",
            "parentHash" : "0x0000000000000000000000000000000000000000000000000000000000000000",
            "receiptTrie" : "0x56e81f171bcc55a6ff8345e692c0f86e5b48e01b996cadc001622fb5e363b421",
            "stateRoot" : "0x36a0b77009bfc68d50894678ded36eb5aa49e4db3588266364b78fab96929cdd",
            "timestamp" : "0x03b6",
            "transactionsTrie" : "0x56e81f171bcc55a6ff8345e692c0f86e5b48e01b996cadc001622fb5e363b421",
            "uncleHash" : "0x1dcc4de8dec75d7aab85b567b6ccd41ad312451b948a7413f0a142fd40d49347"
        },
        "genesisRLP" : "0xf901faf901f5a00000000000000000000000000000000000000000000000000000000000000000a01dcc4de8dec75d7aab85b567b6ccd41ad312451b948a7413f0a142fd40d49347942adc25665018aa1fe0e6bc666dac8fc2697ff9baa036a0b77009bfc68d50894678ded36eb5aa49e4db3588266364b78fab96929cdda056e81f171bcc55a6ff8345e692c0f86e5b48e01b996cadc001622fb5e363b421a056e81f171bcc55a6ff8345e692c0f86e5b48e01b996cadc001622fb5e363b421b9010000000000000000000000000000000000000000000000000000000000000000000000000000000000000000000000000000000000000000000000000000000000000000000000000000000000000000000000000000000000000000000000000000000000000000000000000000000000000000000000000000000000000000000000000000000000000000000000000000000000000000000000000000000000000000000000000000000000000000000000000000000000000000000000000000000000000000000000000000000000000000000000000000000000000000000000000000000000000000000000000000000000000000000000000000000000830200008083989680808203b642a056e81f171bcc55a6ff8345e692c0f86e5b48e01b996cadc001622fb5e363b421880102030405060708c0c0",
        "lastblockhash" : "0xd01ca647c670c271bb7d4a319295dcca40fa9065a115772da038024ac209314e",
        "network" : "Byzantium",
        "postState" : {
            "0x0bf4c804e0579073baf54ec4ec37cd04f3455c65" : {
                "balance" : "0x00",
                "code" : "",
                "nonce" : "0x02",
                "storage" : {
                }
            },
            "0x1000000000000000000000000000000000000000" : {
                "balance" : "0x00",
                "code" : "0x6460016001556000526005601b6000f0600155",
                "nonce" : "0x00",
                "storage" : {
                }
            },
            "0x13136008b64ff592819b2fa6d43f2835c452020e" : {
                "balance" : "0x00",
                "code" : "",
                "nonce" : "0x00",
                "storage" : {
                }
            },
            "0x1a00000000000000000000000000000000000000" : {
                "balance" : "0x01",
                "code" : "0x6000600060006000600060003562013880f1",
                "nonce" : "0x00",
                "storage" : {
                }
            },
            "0x2000000000000000000000000000000000000000" : {
                "balance" : "0x00",
                "code" : "0x6460016001556000526005601b6000f0600155",
                "nonce" : "0x00",
                "storage" : {
                }
            },
            "0x2adc25665018aa1fe0e6bc666dac8fc2697ff9ba" : {
                "balance" : "0x29a2241af62cd0fb",
                "code" : "",
                "nonce" : "0x00",
                "storage" : {
                }
            },
            "0x3000000000000000000000000000000000000000" : {
                "balance" : "0x00",
                "code" : "0x6460016001556000526005601b6000f0600155",
                "nonce" : "0x00",
                "storage" : {
                }
            },
            "0x4b86c4ed99b87f0f396bc0c76885453c343916ed" : {
                "balance" : "0x00",
                "code" : "0x1122334455",
                "nonce" : "0x00",
                "storage" : {
                }
            },
            "0xa94f5374fce5edbc8e2a8697c15331677e6ebf0b" : {
                "balance" : "0xe8d4a43f04",
                "code" : "",
                "nonce" : "0x01",
                "storage" : {
                }
            }
        },
        "pre" : {
            "0x0bf4c804e0579073baf54ec4ec37cd04f3455c65" : {
                "balance" : "0x00",
                "code" : "",
                "nonce" : "0x02",
                "storage" : {
                }
            },
            "0x1000000000000000000000000000000000000000" : {
                "balance" : "0x00",
                "code" : "0x6460016001556000526005601b6000f0600155",
                "nonce" : "0x00",
                "storage" : {
                }
            },
            "0x13136008b64ff592819b2fa6d43f2835c452020e" : {
                "balance" : "0x00",
                "code" : "",
                "nonce" : "0x00",
                "storage" : {
                }
            },
            "0x1a00000000000000000000000000000000000000" : {
                "balance" : "0x00",
                "code" : "0x6000600060006000600060003562013880f1",
                "nonce" : "0x00",
                "storage" : {
                }
            },
            "0x2000000000000000000000000000000000000000" : {
                "balance" : "0x00",
                "code" : "0x6460016001556000526005601b6000f0600155",
                "nonce" : "0x00",
                "storage" : {
                }
            },
            "0x3000000000000000000000000000000000000000" : {
                "balance" : "0x00",
                "code" : "0x6460016001556000526005601b6000f0600155",
                "nonce" : "0x00",
                "storage" : {
                }
            },
            "0x4b86c4ed99b87f0f396bc0c76885453c343916ed" : {
                "balance" : "0x00",
                "code" : "0x1122334455",
                "nonce" : "0x00",
                "storage" : {
                }
            },
            "0xa94f5374fce5edbc8e2a8697c15331677e6ebf0b" : {
                "balance" : "0xe8d4a51000",
                "code" : "",
                "nonce" : "0x00",
                "storage" : {
                }
            }
        }
    },
    "CreateCollisionToEmpty_d2g1v1_EIP158" : {
        "_info" : {
            "comment" : "",
            "filledwith" : "cpp-1.3.0+commit.ab4ca6d1.Linux.g++",
            "lllcversion" : "Version: 0.4.20-develop.2018.1.8+commit.2548228b.Linux.g++",
            "source" : "src/BlockchainTestsFiller/GeneralStateTests/stCreateTest/CreateCollisionToEmpty_d2g1v1Filler.json",
            "sourceHash" : "d0ace91c4f25459c52d9980cd9648a5a5c23fba4ba4b1d202dbf945d01821bd9"
        },
        "blocks" : [
            {
                "blockHeader" : {
                    "bloom" : "0x00000000000000000000000000000000000000000000000000000000000000000000000000000000000000000000000000000000000000000000000000000000000000000000000000000000000000000000000000000000000000000000000000000000000000000000000000000000000000000000000000000000000000000000000000000000000000000000000000000000000000000000000000000000000000000000000000000000000000000000000000000000000000000000000000000000000000000000000000000000000000000000000000000000000000000000000000000000000000000000000000000000000000000000000000000000",
                    "coinbase" : "0x2adc25665018aa1fe0e6bc666dac8fc2697ff9ba",
                    "difficulty" : "0x020000",
                    "extraData" : "",
                    "gasLimit" : "0x989680",
                    "gasUsed" : "0xd0fb",
                    "hash" : "0x36e4f79077b689563e54de0137ba9935d1f6b746506a467474ccc70239c82ca7",
                    "mixHash" : "0x735d0b6125dacde7e38722da54739645e6a9c19bc78c7087c8ed9dff6daed426",
                    "nonce" : "0x62268fe78ee90b4f",
                    "number" : "0x01",
                    "parentHash" : "0x3c8c8dfd5623ff622fd4830cdcac18c7107f47263b12be313eac6c01cacbbe7a",
                    "receiptTrie" : "0xa2daf865a81841161c9ffb207226990b8a80c5c3d94a5bde5f7368bcd8cb14e2",
                    "stateRoot" : "0xdeb037e064c389d013f28236a74ab64f6e0e3da266c601c81ee1fb1e4674fb58",
                    "timestamp" : "0x03e8",
                    "transactionsTrie" : "0x87eb001a717c0ab269d128a7daee927c7d8087ff4cb9d7e60e26968ba2212a97",
                    "uncleHash" : "0x1dcc4de8dec75d7aab85b567b6ccd41ad312451b948a7413f0a142fd40d49347"
                },
                "rlp" : "0xf9027ef901f7a03c8c8dfd5623ff622fd4830cdcac18c7107f47263b12be313eac6c01cacbbe7aa01dcc4de8dec75d7aab85b567b6ccd41ad312451b948a7413f0a142fd40d49347942adc25665018aa1fe0e6bc666dac8fc2697ff9baa0deb037e064c389d013f28236a74ab64f6e0e3da266c601c81ee1fb1e4674fb58a087eb001a717c0ab269d128a7daee927c7d8087ff4cb9d7e60e26968ba2212a97a0a2daf865a81841161c9ffb207226990b8a80c5c3d94a5bde5f7368bcd8cb14e2b901000000000000000000000000000000000000000000000000000000000000000000000000000000000000000000000000000000000000000000000000000000000000000000000000000000000000000000000000000000000000000000000000000000000000000000000000000000000000000000000000000000000000000000000000000000000000000000000000000000000000000000000000000000000000000000000000000000000000000000000000000000000000000000000000000000000000000000000000000000000000000000000000000000000000000000000000000000000000000000000000000000000000000000000000000000000083020000018398968082d0fb8203e880a0735d0b6125dacde7e38722da54739645e6a9c19bc78c7087c8ed9dff6daed4268862268fe78ee90b4ff881f87f800182d2f0941a0000000000000000000000000000000000000001a000000000000000000000000030000000000000000000000000000000000000001ca0800318c5147a2ff58fe438f89c5b6de105f86e139f696d79eb77be14421c1714a0147ee8be1f91a40fb0209c7bfb2a9bff68bbbddece39f02e51542bd2edc84504c0",
                "transactions" : [
                    {
                        "data" : "0x0000000000000000000000003000000000000000000000000000000000000000",
                        "gasLimit" : "0xd2f0",
                        "gasPrice" : "0x01",
                        "nonce" : "0x00",
                        "r" : "0x800318c5147a2ff58fe438f89c5b6de105f86e139f696d79eb77be14421c1714",
                        "s" : "0x147ee8be1f91a40fb0209c7bfb2a9bff68bbbddece39f02e51542bd2edc84504",
                        "to" : "0x1a00000000000000000000000000000000000000",
                        "v" : "0x1c",
                        "value" : "0x01"
                    }
                ],
                "uncleHeaders" : [
                ]
            }
        ],
        "genesisBlockHeader" : {
            "bloom" : "0x00000000000000000000000000000000000000000000000000000000000000000000000000000000000000000000000000000000000000000000000000000000000000000000000000000000000000000000000000000000000000000000000000000000000000000000000000000000000000000000000000000000000000000000000000000000000000000000000000000000000000000000000000000000000000000000000000000000000000000000000000000000000000000000000000000000000000000000000000000000000000000000000000000000000000000000000000000000000000000000000000000000000000000000000000000000",
            "coinbase" : "0x2adc25665018aa1fe0e6bc666dac8fc2697ff9ba",
            "difficulty" : "0x020000",
            "extraData" : "0x42",
            "gasLimit" : "0x989680",
            "gasUsed" : "0x00",
            "hash" : "0x3c8c8dfd5623ff622fd4830cdcac18c7107f47263b12be313eac6c01cacbbe7a",
            "mixHash" : "0x56e81f171bcc55a6ff8345e692c0f86e5b48e01b996cadc001622fb5e363b421",
            "nonce" : "0x0102030405060708",
            "number" : "0x00",
            "parentHash" : "0x0000000000000000000000000000000000000000000000000000000000000000",
            "receiptTrie" : "0x56e81f171bcc55a6ff8345e692c0f86e5b48e01b996cadc001622fb5e363b421",
            "stateRoot" : "0x36a0b77009bfc68d50894678ded36eb5aa49e4db3588266364b78fab96929cdd",
            "timestamp" : "0x03b6",
            "transactionsTrie" : "0x56e81f171bcc55a6ff8345e692c0f86e5b48e01b996cadc001622fb5e363b421",
            "uncleHash" : "0x1dcc4de8dec75d7aab85b567b6ccd41ad312451b948a7413f0a142fd40d49347"
        },
        "genesisRLP" : "0xf901faf901f5a00000000000000000000000000000000000000000000000000000000000000000a01dcc4de8dec75d7aab85b567b6ccd41ad312451b948a7413f0a142fd40d49347942adc25665018aa1fe0e6bc666dac8fc2697ff9baa036a0b77009bfc68d50894678ded36eb5aa49e4db3588266364b78fab96929cdda056e81f171bcc55a6ff8345e692c0f86e5b48e01b996cadc001622fb5e363b421a056e81f171bcc55a6ff8345e692c0f86e5b48e01b996cadc001622fb5e363b421b9010000000000000000000000000000000000000000000000000000000000000000000000000000000000000000000000000000000000000000000000000000000000000000000000000000000000000000000000000000000000000000000000000000000000000000000000000000000000000000000000000000000000000000000000000000000000000000000000000000000000000000000000000000000000000000000000000000000000000000000000000000000000000000000000000000000000000000000000000000000000000000000000000000000000000000000000000000000000000000000000000000000000000000000000000000000000830200008083989680808203b642a056e81f171bcc55a6ff8345e692c0f86e5b48e01b996cadc001622fb5e363b421880102030405060708c0c0",
        "lastblockhash" : "0x36e4f79077b689563e54de0137ba9935d1f6b746506a467474ccc70239c82ca7",
        "network" : "EIP158",
        "postState" : {
            "0x0bf4c804e0579073baf54ec4ec37cd04f3455c65" : {
                "balance" : "0x00",
                "code" : "",
                "nonce" : "0x02",
                "storage" : {
                }
            },
            "0x1000000000000000000000000000000000000000" : {
                "balance" : "0x00",
                "code" : "0x6460016001556000526005601b6000f0600155",
                "nonce" : "0x00",
                "storage" : {
                }
            },
            "0x13136008b64ff592819b2fa6d43f2835c452020e" : {
                "balance" : "0x00",
                "code" : "",
                "nonce" : "0x00",
                "storage" : {
                }
            },
            "0x1a00000000000000000000000000000000000000" : {
                "balance" : "0x01",
                "code" : "0x6000600060006000600060003562013880f1",
                "nonce" : "0x00",
                "storage" : {
                }
            },
            "0x2000000000000000000000000000000000000000" : {
                "balance" : "0x00",
                "code" : "0x6460016001556000526005601b6000f0600155",
                "nonce" : "0x00",
                "storage" : {
                }
            },
            "0x2adc25665018aa1fe0e6bc666dac8fc2697ff9ba" : {
                "balance" : "0x4563918244f4d0fb",
                "code" : "",
                "nonce" : "0x00",
                "storage" : {
                }
            },
            "0x3000000000000000000000000000000000000000" : {
                "balance" : "0x00",
                "code" : "0x6460016001556000526005601b6000f0600155",
                "nonce" : "0x00",
                "storage" : {
                }
            },
            "0x4b86c4ed99b87f0f396bc0c76885453c343916ed" : {
                "balance" : "0x00",
                "code" : "0x1122334455",
                "nonce" : "0x00",
                "storage" : {
                }
            },
            "0xa94f5374fce5edbc8e2a8697c15331677e6ebf0b" : {
                "balance" : "0xe8d4a43f04",
                "code" : "",
                "nonce" : "0x01",
                "storage" : {
                }
            }
        },
        "pre" : {
            "0x0bf4c804e0579073baf54ec4ec37cd04f3455c65" : {
                "balance" : "0x00",
                "code" : "",
                "nonce" : "0x02",
                "storage" : {
                }
            },
            "0x1000000000000000000000000000000000000000" : {
                "balance" : "0x00",
                "code" : "0x6460016001556000526005601b6000f0600155",
                "nonce" : "0x00",
                "storage" : {
                }
            },
            "0x13136008b64ff592819b2fa6d43f2835c452020e" : {
                "balance" : "0x00",
                "code" : "",
                "nonce" : "0x00",
                "storage" : {
                }
            },
            "0x1a00000000000000000000000000000000000000" : {
                "balance" : "0x00",
                "code" : "0x6000600060006000600060003562013880f1",
                "nonce" : "0x00",
                "storage" : {
                }
            },
            "0x2000000000000000000000000000000000000000" : {
                "balance" : "0x00",
                "code" : "0x6460016001556000526005601b6000f0600155",
                "nonce" : "0x00",
                "storage" : {
                }
            },
            "0x3000000000000000000000000000000000000000" : {
                "balance" : "0x00",
                "code" : "0x6460016001556000526005601b6000f0600155",
                "nonce" : "0x00",
                "storage" : {
                }
            },
            "0x4b86c4ed99b87f0f396bc0c76885453c343916ed" : {
                "balance" : "0x00",
                "code" : "0x1122334455",
                "nonce" : "0x00",
                "storage" : {
                }
            },
            "0xa94f5374fce5edbc8e2a8697c15331677e6ebf0b" : {
                "balance" : "0xe8d4a51000",
                "code" : "",
                "nonce" : "0x00",
                "storage" : {
                }
            }
        }
    }
}