{
    "CREATE_empty000CreateinInitCode_Transaction_d0g0v0_Byzantium" : {
        "_info" : {
            "comment" : "",
            "filledwith" : "cpp-1.3.0+commit.8fb57c56.Linux.g++",
            "lllcversion" : "Version: 0.4.20-develop.2018.1.8+commit.2548228b.Linux.g++",
            "source" : "src/BlockchainTestsFiller/GeneralStateTests/stCreateTest/CREATE_empty000CreateinInitCode_Transaction_d0g0v0Filler.json",
            "sourceHash" : "c7c3a5ce8eeb2ca6dc2886165a64ca65dd3ffa21de9c23b53071d8373670634b"
        },
        "blocks" : [
            {
                "blockHeader" : {
                    "bloom" : "0x00000000000000000000000000000000000000000000000000000000000000000000000000000000000000000000000000000000000000000000000000000000000000000000000000000000000000000000000000000000000000000000000000000000000000000000000000000000000000000000000000000000000000000000000000000000000000000000000000000000000000000000000000000000000000000000000000000000000000000000000000000000000000000000000000000000000000000000000000000000000000000000000000000000000000000000000000000000000000000000000000000000000000000000000000000000",
                    "coinbase" : "0x2adc25665018aa1fe0e6bc666dac8fc2697ff9ba",
                    "difficulty" : "0x020000",
                    "extraData" : "",
                    "gasLimit" : "0x989680",
                    "gasUsed" : "0x01a676",
                    "hash" : "0x742e1d06be0a45c929a1e9a589e3d10d17edf90b4ae9b90c87d5c4010651eed0",
                    "mixHash" : "0x02c022121a7e398f2b0b2014366d12400396899ee11cad0efac51f3f60fd4f17",
                    "nonce" : "0x607fb627b209c4c6",
                    "number" : "0x01",
                    "parentHash" : "0x45f942c904d851e67bd80f544b2cd7bfe2f2d75400dd5c5fd453ba4e80b19bc8",
                    "receiptTrie" : "0xd04f348034c5ce1ab7523d84ad4397acb613b82783311c000940c770b6a0fc38",
                    "stateRoot" : "0x55119e0688cbfdb68ced14547f5ccd41302d83918f68bcdf0853cab4a7c341e8",
                    "timestamp" : "0x03e8",
                    "transactionsTrie" : "0xa7254a4f9fffb936f0b1e7fe1efdf577c3a8dd8401295848a3f8efe0a2807b83",
                    "uncleHash" : "0x1dcc4de8dec75d7aab85b567b6ccd41ad312451b948a7413f0a142fd40d49347"
                },
                "rlp" : "0xf90277f901f8a045f942c904d851e67bd80f544b2cd7bfe2f2d75400dd5c5fd453ba4e80b19bc8a01dcc4de8dec75d7aab85b567b6ccd41ad312451b948a7413f0a142fd40d49347942adc25665018aa1fe0e6bc666dac8fc2697ff9baa055119e0688cbfdb68ced14547f5ccd41302d83918f68bcdf0853cab4a7c341e8a0a7254a4f9fffb936f0b1e7fe1efdf577c3a8dd8401295848a3f8efe0a2807b83a0d04f348034c5ce1ab7523d84ad4397acb613b82783311c000940c770b6a0fc38b90100000000000000000000000000000000000000000000000000000000000000000000000000000000000000000000000000000000000000000000000000000000000000000000000000000000000000000000000000000000000000000000000000000000000000000000000000000000000000000000000000000000000000000000000000000000000000000000000000000000000000000000000000000000000000000000000000000000000000000000000000000000000000000000000000000000000000000000000000000000000000000000000000000000000000000000000000000000000000000000000000000000000000000000000000000000008302000001839896808301a6768203e880a002c022121a7e398f2b0b2014366d12400396899ee11cad0efac51f3f60fd4f1788607fb627b209c4c6f879f8778001830927c08080ab6000600060006000600073c94f5374fce5edbc8e2a8697c15331677e6ebf0b61ea60f150600060006000f01ca0ff307a38034c5f948aa48ba3533b932fc6eb50c63f0363f45408c300221e26e0a045c242baebd2b6c303ff77a974c668db3e0af2e1281332c4517bc543685f10d5c0",
                "transactions" : [
                    {
                        "data" : "0x6000600060006000600073c94f5374fce5edbc8e2a8697c15331677e6ebf0b61ea60f150600060006000f0",
                        "gasLimit" : "0x0927c0",
                        "gasPrice" : "0x01",
                        "nonce" : "0x00",
                        "r" : "0xff307a38034c5f948aa48ba3533b932fc6eb50c63f0363f45408c300221e26e0",
                        "s" : "0x45c242baebd2b6c303ff77a974c668db3e0af2e1281332c4517bc543685f10d5",
                        "to" : "",
                        "v" : "0x1c",
                        "value" : "0x00"
                    }
                ],
                "uncleHeaders" : [
                ]
            }
        ],
        "genesisBlockHeader" : {
            "bloom" : "0x00000000000000000000000000000000000000000000000000000000000000000000000000000000000000000000000000000000000000000000000000000000000000000000000000000000000000000000000000000000000000000000000000000000000000000000000000000000000000000000000000000000000000000000000000000000000000000000000000000000000000000000000000000000000000000000000000000000000000000000000000000000000000000000000000000000000000000000000000000000000000000000000000000000000000000000000000000000000000000000000000000000000000000000000000000000",
            "coinbase" : "0x2adc25665018aa1fe0e6bc666dac8fc2697ff9ba",
            "difficulty" : "0x020000",
            "extraData" : "0x42",
            "gasLimit" : "0x989680",
            "gasUsed" : "0x00",
            "hash" : "0x45f942c904d851e67bd80f544b2cd7bfe2f2d75400dd5c5fd453ba4e80b19bc8",
            "mixHash" : "0x56e81f171bcc55a6ff8345e692c0f86e5b48e01b996cadc001622fb5e363b421",
            "nonce" : "0x0102030405060708",
            "number" : "0x00",
            "parentHash" : "0x0000000000000000000000000000000000000000000000000000000000000000",
            "receiptTrie" : "0x56e81f171bcc55a6ff8345e692c0f86e5b48e01b996cadc001622fb5e363b421",
            "stateRoot" : "0x2a9b6486ff64900d2e20ccecb7521211e3e5e7a7b818210dae7de9cd33f9dddf",
            "timestamp" : "0x03b6",
            "transactionsTrie" : "0x56e81f171bcc55a6ff8345e692c0f86e5b48e01b996cadc001622fb5e363b421",
            "uncleHash" : "0x1dcc4de8dec75d7aab85b567b6ccd41ad312451b948a7413f0a142fd40d49347"
        },
        "genesisRLP" : "0xf901faf901f5a00000000000000000000000000000000000000000000000000000000000000000a01dcc4de8dec75d7aab85b567b6ccd41ad312451b948a7413f0a142fd40d49347942adc25665018aa1fe0e6bc666dac8fc2697ff9baa02a9b6486ff64900d2e20ccecb7521211e3e5e7a7b818210dae7de9cd33f9dddfa056e81f171bcc55a6ff8345e692c0f86e5b48e01b996cadc001622fb5e363b421a056e81f171bcc55a6ff8345e692c0f86e5b48e01b996cadc001622fb5e363b421b9010000000000000000000000000000000000000000000000000000000000000000000000000000000000000000000000000000000000000000000000000000000000000000000000000000000000000000000000000000000000000000000000000000000000000000000000000000000000000000000000000000000000000000000000000000000000000000000000000000000000000000000000000000000000000000000000000000000000000000000000000000000000000000000000000000000000000000000000000000000000000000000000000000000000000000000000000000000000000000000000000000000000000000000000000000000000830200008083989680808203b642a056e81f171bcc55a6ff8345e692c0f86e5b48e01b996cadc001622fb5e363b421880102030405060708c0c0",
        "lastblockhash" : "0x742e1d06be0a45c929a1e9a589e3d10d17edf90b4ae9b90c87d5c4010651eed0",
        "network" : "Byzantium",
        "postState" : {
            "0x2adc25665018aa1fe0e6bc666dac8fc2697ff9ba" : {
                "balance" : "0x29a2241af62da676",
                "code" : "",
                "nonce" : "0x00",
                "storage" : {
                }
            },
            "0x6295ee1b4f6dd65047762f924ecd367c17eabf8f" : {
                "balance" : "0x00",
                "code" : "",
                "nonce" : "0x02",
                "storage" : {
                }
            },
            "0x64e2ebd6405af8cb348aec519084d3fff42ebba6" : {
                "balance" : "0x00",
                "code" : "",
                "nonce" : "0x01",
                "storage" : {
                }
            },
            "0xa94f5374fce5edbc8e2a8697c15331677e6ebf0b" : {
                "balance" : "0xe8d4a3698a",
                "code" : "",
                "nonce" : "0x01",
                "storage" : {
                }
            },
            "0xc94f5374fce5edbc8e2a8697c15331677e6ebf0b" : {
                "balance" : "0xe8d4a51000",
                "code" : "0x600c600155",
                "nonce" : "0x00",
                "storage" : {
                    "0x01" : "0x0c"
                }
            }
        },
        "pre" : {
            "0xa94f5374fce5edbc8e2a8697c15331677e6ebf0b" : {
                "balance" : "0xe8d4a51000",
                "code" : "",
                "nonce" : "0x00",
                "storage" : {
                }
            },
            "0xc94f5374fce5edbc8e2a8697c15331677e6ebf0b" : {
                "balance" : "0xe8d4a51000",
                "code" : "0x600c600155",
                "nonce" : "0x00",
                "storage" : {
                }
            }
        }
    },
    "CREATE_empty000CreateinInitCode_Transaction_d0g0v0_EIP150" : {
        "_info" : {
            "comment" : "",
            "filledwith" : "cpp-1.3.0+commit.8fb57c56.Linux.g++",
            "lllcversion" : "Version: 0.4.20-develop.2018.1.8+commit.2548228b.Linux.g++",
            "source" : "src/BlockchainTestsFiller/GeneralStateTests/stCreateTest/CREATE_empty000CreateinInitCode_Transaction_d0g0v0Filler.json",
            "sourceHash" : "c7c3a5ce8eeb2ca6dc2886165a64ca65dd3ffa21de9c23b53071d8373670634b"
        },
        "blocks" : [
            {
                "blockHeader" : {
                    "bloom" : "0x00000000000000000000000000000000000000000000000000000000000000000000000000000000000000000000000000000000000000000000000000000000000000000000000000000000000000000000000000000000000000000000000000000000000000000000000000000000000000000000000000000000000000000000000000000000000000000000000000000000000000000000000000000000000000000000000000000000000000000000000000000000000000000000000000000000000000000000000000000000000000000000000000000000000000000000000000000000000000000000000000000000000000000000000000000000",
                    "coinbase" : "0x2adc25665018aa1fe0e6bc666dac8fc2697ff9ba",
                    "difficulty" : "0x020000",
                    "extraData" : "",
                    "gasLimit" : "0x989680",
                    "gasUsed" : "0x01a676",
                    "hash" : "0x62f5dc10bf7830921c07dc89f4e4217aa226665b9092d8c821b4047815e26d52",
                    "mixHash" : "0x61a4b3a15a04cdd1477f1c27913c3f1e9cfcf18f3a4b3ed01e96101f0c1cfbd0",
                    "nonce" : "0xff130e4e386d6062",
                    "number" : "0x01",
                    "parentHash" : "0x45f942c904d851e67bd80f544b2cd7bfe2f2d75400dd5c5fd453ba4e80b19bc8",
                    "receiptTrie" : "0xeb8901659ca3c597c02cf23e92d863818baf206315bb0033175c076815a77913",
                    "stateRoot" : "0x13fe1270a71afd0b46d0cbe53c25e0039def2894f10d54a8ca82c855ff3cc722",
                    "timestamp" : "0x03e8",
                    "transactionsTrie" : "0xa7254a4f9fffb936f0b1e7fe1efdf577c3a8dd8401295848a3f8efe0a2807b83",
                    "uncleHash" : "0x1dcc4de8dec75d7aab85b567b6ccd41ad312451b948a7413f0a142fd40d49347"
                },
                "rlp" : "0xf90277f901f8a045f942c904d851e67bd80f544b2cd7bfe2f2d75400dd5c5fd453ba4e80b19bc8a01dcc4de8dec75d7aab85b567b6ccd41ad312451b948a7413f0a142fd40d49347942adc25665018aa1fe0e6bc666dac8fc2697ff9baa013fe1270a71afd0b46d0cbe53c25e0039def2894f10d54a8ca82c855ff3cc722a0a7254a4f9fffb936f0b1e7fe1efdf577c3a8dd8401295848a3f8efe0a2807b83a0eb8901659ca3c597c02cf23e92d863818baf206315bb0033175c076815a77913b90100000000000000000000000000000000000000000000000000000000000000000000000000000000000000000000000000000000000000000000000000000000000000000000000000000000000000000000000000000000000000000000000000000000000000000000000000000000000000000000000000000000000000000000000000000000000000000000000000000000000000000000000000000000000000000000000000000000000000000000000000000000000000000000000000000000000000000000000000000000000000000000000000000000000000000000000000000000000000000000000000000000000000000000000000000000008302000001839896808301a6768203e880a061a4b3a15a04cdd1477f1c27913c3f1e9cfcf18f3a4b3ed01e96101f0c1cfbd088ff130e4e386d6062f879f8778001830927c08080ab6000600060006000600073c94f5374fce5edbc8e2a8697c15331677e6ebf0b61ea60f150600060006000f01ca0ff307a38034c5f948aa48ba3533b932fc6eb50c63f0363f45408c300221e26e0a045c242baebd2b6c303ff77a974c668db3e0af2e1281332c4517bc543685f10d5c0",
                "transactions" : [
                    {
                        "data" : "0x6000600060006000600073c94f5374fce5edbc8e2a8697c15331677e6ebf0b61ea60f150600060006000f0",
                        "gasLimit" : "0x0927c0",
                        "gasPrice" : "0x01",
                        "nonce" : "0x00",
                        "r" : "0xff307a38034c5f948aa48ba3533b932fc6eb50c63f0363f45408c300221e26e0",
                        "s" : "0x45c242baebd2b6c303ff77a974c668db3e0af2e1281332c4517bc543685f10d5",
                        "to" : "",
                        "v" : "0x1c",
                        "value" : "0x00"
                    }
                ],
                "uncleHeaders" : [
                ]
            }
        ],
        "genesisBlockHeader" : {
            "bloom" : "0x00000000000000000000000000000000000000000000000000000000000000000000000000000000000000000000000000000000000000000000000000000000000000000000000000000000000000000000000000000000000000000000000000000000000000000000000000000000000000000000000000000000000000000000000000000000000000000000000000000000000000000000000000000000000000000000000000000000000000000000000000000000000000000000000000000000000000000000000000000000000000000000000000000000000000000000000000000000000000000000000000000000000000000000000000000000",
            "coinbase" : "0x2adc25665018aa1fe0e6bc666dac8fc2697ff9ba",
            "difficulty" : "0x020000",
            "extraData" : "0x42",
            "gasLimit" : "0x989680",
            "gasUsed" : "0x00",
            "hash" : "0x45f942c904d851e67bd80f544b2cd7bfe2f2d75400dd5c5fd453ba4e80b19bc8",
            "mixHash" : "0x56e81f171bcc55a6ff8345e692c0f86e5b48e01b996cadc001622fb5e363b421",
            "nonce" : "0x0102030405060708",
            "number" : "0x00",
            "parentHash" : "0x0000000000000000000000000000000000000000000000000000000000000000",
            "receiptTrie" : "0x56e81f171bcc55a6ff8345e692c0f86e5b48e01b996cadc001622fb5e363b421",
            "stateRoot" : "0x2a9b6486ff64900d2e20ccecb7521211e3e5e7a7b818210dae7de9cd33f9dddf",
            "timestamp" : "0x03b6",
            "transactionsTrie" : "0x56e81f171bcc55a6ff8345e692c0f86e5b48e01b996cadc001622fb5e363b421",
            "uncleHash" : "0x1dcc4de8dec75d7aab85b567b6ccd41ad312451b948a7413f0a142fd40d49347"
        },
        "genesisRLP" : "0xf901faf901f5a00000000000000000000000000000000000000000000000000000000000000000a01dcc4de8dec75d7aab85b567b6ccd41ad312451b948a7413f0a142fd40d49347942adc25665018aa1fe0e6bc666dac8fc2697ff9baa02a9b6486ff64900d2e20ccecb7521211e3e5e7a7b818210dae7de9cd33f9dddfa056e81f171bcc55a6ff8345e692c0f86e5b48e01b996cadc001622fb5e363b421a056e81f171bcc55a6ff8345e692c0f86e5b48e01b996cadc001622fb5e363b421b9010000000000000000000000000000000000000000000000000000000000000000000000000000000000000000000000000000000000000000000000000000000000000000000000000000000000000000000000000000000000000000000000000000000000000000000000000000000000000000000000000000000000000000000000000000000000000000000000000000000000000000000000000000000000000000000000000000000000000000000000000000000000000000000000000000000000000000000000000000000000000000000000000000000000000000000000000000000000000000000000000000000000000000000000000000000000830200008083989680808203b642a056e81f171bcc55a6ff8345e692c0f86e5b48e01b996cadc001622fb5e363b421880102030405060708c0c0",
        "lastblockhash" : "0x62f5dc10bf7830921c07dc89f4e4217aa226665b9092d8c821b4047815e26d52",
        "network" : "EIP150",
        "postState" : {
            "0x2adc25665018aa1fe0e6bc666dac8fc2697ff9ba" : {
                "balance" : "0x4563918244f5a676",
                "code" : "",
                "nonce" : "0x00",
                "storage" : {
                }
            },
            "0x6295ee1b4f6dd65047762f924ecd367c17eabf8f" : {
                "balance" : "0x00",
                "code" : "",
                "nonce" : "0x01",
                "storage" : {
                }
            },
            "0xa42676447b7cedfa5fde894d1d3df24aab362701" : {
                "balance" : "0x00",
                "code" : "",
                "nonce" : "0x00",
                "storage" : {
                }
            },
            "0xa94f5374fce5edbc8e2a8697c15331677e6ebf0b" : {
                "balance" : "0xe8d4a3698a",
                "code" : "",
                "nonce" : "0x01",
                "storage" : {
                }
            },
            "0xc94f5374fce5edbc8e2a8697c15331677e6ebf0b" : {
                "balance" : "0xe8d4a51000",
                "code" : "0x600c600155",
                "nonce" : "0x00",
                "storage" : {
                    "0x01" : "0x0c"
                }
            }
        },
        "pre" : {
            "0xa94f5374fce5edbc8e2a8697c15331677e6ebf0b" : {
                "balance" : "0xe8d4a51000",
                "code" : "",
                "nonce" : "0x00",
                "storage" : {
                }
            },
            "0xc94f5374fce5edbc8e2a8697c15331677e6ebf0b" : {
                "balance" : "0xe8d4a51000",
                "code" : "0x600c600155",
                "nonce" : "0x00",
                "storage" : {
                }
            }
        }
    },
    "CREATE_empty000CreateinInitCode_Transaction_d0g0v0_EIP158" : {
        "_info" : {
            "comment" : "",
            "filledwith" : "cpp-1.3.0+commit.8fb57c56.Linux.g++",
            "lllcversion" : "Version: 0.4.20-develop.2018.1.8+commit.2548228b.Linux.g++",
            "source" : "src/BlockchainTestsFiller/GeneralStateTests/stCreateTest/CREATE_empty000CreateinInitCode_Transaction_d0g0v0Filler.json",
            "sourceHash" : "c7c3a5ce8eeb2ca6dc2886165a64ca65dd3ffa21de9c23b53071d8373670634b"
        },
        "blocks" : [
            {
                "blockHeader" : {
                    "bloom" : "0x00000000000000000000000000000000000000000000000000000000000000000000000000000000000000000000000000000000000000000000000000000000000000000000000000000000000000000000000000000000000000000000000000000000000000000000000000000000000000000000000000000000000000000000000000000000000000000000000000000000000000000000000000000000000000000000000000000000000000000000000000000000000000000000000000000000000000000000000000000000000000000000000000000000000000000000000000000000000000000000000000000000000000000000000000000000",
                    "coinbase" : "0x2adc25665018aa1fe0e6bc666dac8fc2697ff9ba",
                    "difficulty" : "0x020000",
                    "extraData" : "",
                    "gasLimit" : "0x989680",
                    "gasUsed" : "0x01a676",
                    "hash" : "0x90df0611f6ae424af9609bcfdaf5fb77322e509c4f2d1df3e48aeabd4dd9bd2f",
                    "mixHash" : "0x3df9210808bfd6183dc3bb64c74c0bd129630cd58c8d288d817b5db7959e41c8",
                    "nonce" : "0x5f6d162fc78ca995",
                    "number" : "0x01",
                    "parentHash" : "0x45f942c904d851e67bd80f544b2cd7bfe2f2d75400dd5c5fd453ba4e80b19bc8",
                    "receiptTrie" : "0x754c67fac172af64c41715aa2c1a1a84e2db5093a0624684fa683834d4cbfb7b",
                    "stateRoot" : "0xd36e13ef54fda46734e54ad4f51b28f2021b5369a609ba518abd6b978cd679e2",
                    "timestamp" : "0x03e8",
                    "transactionsTrie" : "0xa7254a4f9fffb936f0b1e7fe1efdf577c3a8dd8401295848a3f8efe0a2807b83",
                    "uncleHash" : "0x1dcc4de8dec75d7aab85b567b6ccd41ad312451b948a7413f0a142fd40d49347"
                },
                "rlp" : "0xf90277f901f8a045f942c904d851e67bd80f544b2cd7bfe2f2d75400dd5c5fd453ba4e80b19bc8a01dcc4de8dec75d7aab85b567b6ccd41ad312451b948a7413f0a142fd40d49347942adc25665018aa1fe0e6bc666dac8fc2697ff9baa0d36e13ef54fda46734e54ad4f51b28f2021b5369a609ba518abd6b978cd679e2a0a7254a4f9fffb936f0b1e7fe1efdf577c3a8dd8401295848a3f8efe0a2807b83a0754c67fac172af64c41715aa2c1a1a84e2db5093a0624684fa683834d4cbfb7bb90100000000000000000000000000000000000000000000000000000000000000000000000000000000000000000000000000000000000000000000000000000000000000000000000000000000000000000000000000000000000000000000000000000000000000000000000000000000000000000000000000000000000000000000000000000000000000000000000000000000000000000000000000000000000000000000000000000000000000000000000000000000000000000000000000000000000000000000000000000000000000000000000000000000000000000000000000000000000000000000000000000000000000000000000000000000008302000001839896808301a6768203e880a03df9210808bfd6183dc3bb64c74c0bd129630cd58c8d288d817b5db7959e41c8885f6d162fc78ca995f879f8778001830927c08080ab6000600060006000600073c94f5374fce5edbc8e2a8697c15331677e6ebf0b61ea60f150600060006000f01ca0ff307a38034c5f948aa48ba3533b932fc6eb50c63f0363f45408c300221e26e0a045c242baebd2b6c303ff77a974c668db3e0af2e1281332c4517bc543685f10d5c0",
                "transactions" : [
                    {
                        "data" : "0x6000600060006000600073c94f5374fce5edbc8e2a8697c15331677e6ebf0b61ea60f150600060006000f0",
                        "gasLimit" : "0x0927c0",
                        "gasPrice" : "0x01",
                        "nonce" : "0x00",
                        "r" : "0xff307a38034c5f948aa48ba3533b932fc6eb50c63f0363f45408c300221e26e0",
                        "s" : "0x45c242baebd2b6c303ff77a974c668db3e0af2e1281332c4517bc543685f10d5",
                        "to" : "",
                        "v" : "0x1c",
                        "value" : "0x00"
                    }
                ],
                "uncleHeaders" : [
                ]
            }
        ],
        "genesisBlockHeader" : {
            "bloom" : "0x00000000000000000000000000000000000000000000000000000000000000000000000000000000000000000000000000000000000000000000000000000000000000000000000000000000000000000000000000000000000000000000000000000000000000000000000000000000000000000000000000000000000000000000000000000000000000000000000000000000000000000000000000000000000000000000000000000000000000000000000000000000000000000000000000000000000000000000000000000000000000000000000000000000000000000000000000000000000000000000000000000000000000000000000000000000",
            "coinbase" : "0x2adc25665018aa1fe0e6bc666dac8fc2697ff9ba",
            "difficulty" : "0x020000",
            "extraData" : "0x42",
            "gasLimit" : "0x989680",
            "gasUsed" : "0x00",
            "hash" : "0x45f942c904d851e67bd80f544b2cd7bfe2f2d75400dd5c5fd453ba4e80b19bc8",
            "mixHash" : "0x56e81f171bcc55a6ff8345e692c0f86e5b48e01b996cadc001622fb5e363b421",
            "nonce" : "0x0102030405060708",
            "number" : "0x00",
            "parentHash" : "0x0000000000000000000000000000000000000000000000000000000000000000",
            "receiptTrie" : "0x56e81f171bcc55a6ff8345e692c0f86e5b48e01b996cadc001622fb5e363b421",
            "stateRoot" : "0x2a9b6486ff64900d2e20ccecb7521211e3e5e7a7b818210dae7de9cd33f9dddf",
            "timestamp" : "0x03b6",
            "transactionsTrie" : "0x56e81f171bcc55a6ff8345e692c0f86e5b48e01b996cadc001622fb5e363b421",
            "uncleHash" : "0x1dcc4de8dec75d7aab85b567b6ccd41ad312451b948a7413f0a142fd40d49347"
        },
        "genesisRLP" : "0xf901faf901f5a00000000000000000000000000000000000000000000000000000000000000000a01dcc4de8dec75d7aab85b567b6ccd41ad312451b948a7413f0a142fd40d49347942adc25665018aa1fe0e6bc666dac8fc2697ff9baa02a9b6486ff64900d2e20ccecb7521211e3e5e7a7b818210dae7de9cd33f9dddfa056e81f171bcc55a6ff8345e692c0f86e5b48e01b996cadc001622fb5e363b421a056e81f171bcc55a6ff8345e692c0f86e5b48e01b996cadc001622fb5e363b421b9010000000000000000000000000000000000000000000000000000000000000000000000000000000000000000000000000000000000000000000000000000000000000000000000000000000000000000000000000000000000000000000000000000000000000000000000000000000000000000000000000000000000000000000000000000000000000000000000000000000000000000000000000000000000000000000000000000000000000000000000000000000000000000000000000000000000000000000000000000000000000000000000000000000000000000000000000000000000000000000000000000000000000000000000000000000000830200008083989680808203b642a056e81f171bcc55a6ff8345e692c0f86e5b48e01b996cadc001622fb5e363b421880102030405060708c0c0",
        "lastblockhash" : "0x90df0611f6ae424af9609bcfdaf5fb77322e509c4f2d1df3e48aeabd4dd9bd2f",
        "network" : "EIP158",
        "postState" : {
            "0x2adc25665018aa1fe0e6bc666dac8fc2697ff9ba" : {
                "balance" : "0x4563918244f5a676",
                "code" : "",
                "nonce" : "0x00",
                "storage" : {
                }
            },
            "0x6295ee1b4f6dd65047762f924ecd367c17eabf8f" : {
                "balance" : "0x00",
                "code" : "",
                "nonce" : "0x02",
                "storage" : {
                }
            },
            "0x64e2ebd6405af8cb348aec519084d3fff42ebba6" : {
                "balance" : "0x00",
                "code" : "",
                "nonce" : "0x01",
                "storage" : {
                }
            },
            "0xa94f5374fce5edbc8e2a8697c15331677e6ebf0b" : {
                "balance" : "0xe8d4a3698a",
                "code" : "",
                "nonce" : "0x01",
                "storage" : {
                }
            },
            "0xc94f5374fce5edbc8e2a8697c15331677e6ebf0b" : {
                "balance" : "0xe8d4a51000",
                "code" : "0x600c600155",
                "nonce" : "0x00",
                "storage" : {
                    "0x01" : "0x0c"
                }
            }
        },
        "pre" : {
            "0xa94f5374fce5edbc8e2a8697c15331677e6ebf0b" : {
                "balance" : "0xe8d4a51000",
                "code" : "",
                "nonce" : "0x00",
                "storage" : {
                }
            },
            "0xc94f5374fce5edbc8e2a8697c15331677e6ebf0b" : {
                "balance" : "0xe8d4a51000",
                "code" : "0x600c600155",
                "nonce" : "0x00",
                "storage" : {
                }
            }
        }
    },
    "CREATE_empty000CreateinInitCode_Transaction_d0g0v0_Frontier" : {
        "_info" : {
            "comment" : "",
            "filledwith" : "cpp-1.3.0+commit.8fb57c56.Linux.g++",
            "lllcversion" : "Version: 0.4.20-develop.2018.1.8+commit.2548228b.Linux.g++",
            "source" : "src/BlockchainTestsFiller/GeneralStateTests/stCreateTest/CREATE_empty000CreateinInitCode_Transaction_d0g0v0Filler.json",
            "sourceHash" : "c7c3a5ce8eeb2ca6dc2886165a64ca65dd3ffa21de9c23b53071d8373670634b"
        },
        "blocks" : [
            {
                "blockHeader" : {
                    "bloom" : "0x00000000000000000000000000000000000000000000000000000000000000000000000000000000000000000000000000000000000000000000000000000000000000000000000000000000000000000000000000000000000000000000000000000000000000000000000000000000000000000000000000000000000000000000000000000000000000000000000000000000000000000000000000000000000000000000000000000000000000000000000000000000000000000000000000000000000000000000000000000000000000000000000000000000000000000000000000000000000000000000000000000000000000000000000000000000",
                    "coinbase" : "0x2adc25665018aa1fe0e6bc666dac8fc2697ff9ba",
                    "difficulty" : "0x020000",
                    "extraData" : "",
                    "gasLimit" : "0x989680",
                    "gasUsed" : "0x0126e2",
                    "hash" : "0x27dff4665b21c16576577dbd95acff905aa089483868842605ba1e23c336fdcc",
                    "mixHash" : "0x3fe2b7838e0ae4840da62aa278e1d3d6fb9f7a46aa50d95ed51577a7d330bf0c",
                    "nonce" : "0x90f7068679221ce8",
                    "number" : "0x01",
                    "parentHash" : "0x45f942c904d851e67bd80f544b2cd7bfe2f2d75400dd5c5fd453ba4e80b19bc8",
                    "receiptTrie" : "0x1fff357776dd5f52ac84dfd49559a11a8ada2eca88bcdbf268576eea180245a5",
                    "stateRoot" : "0x8dd6bdf529fa6de5aa95a618adc40665fb06442f3cc2cb02198b0ce6eb00d787",
                    "timestamp" : "0x03e8",
                    "transactionsTrie" : "0xa7254a4f9fffb936f0b1e7fe1efdf577c3a8dd8401295848a3f8efe0a2807b83",
                    "uncleHash" : "0x1dcc4de8dec75d7aab85b567b6ccd41ad312451b948a7413f0a142fd40d49347"
                },
                "rlp" : "0xf90277f901f8a045f942c904d851e67bd80f544b2cd7bfe2f2d75400dd5c5fd453ba4e80b19bc8a01dcc4de8dec75d7aab85b567b6ccd41ad312451b948a7413f0a142fd40d49347942adc25665018aa1fe0e6bc666dac8fc2697ff9baa08dd6bdf529fa6de5aa95a618adc40665fb06442f3cc2cb02198b0ce6eb00d787a0a7254a4f9fffb936f0b1e7fe1efdf577c3a8dd8401295848a3f8efe0a2807b83a01fff357776dd5f52ac84dfd49559a11a8ada2eca88bcdbf268576eea180245a5b9010000000000000000000000000000000000000000000000000000000000000000000000000000000000000000000000000000000000000000000000000000000000000000000000000000000000000000000000000000000000000000000000000000000000000000000000000000000000000000000000000000000000000000000000000000000000000000000000000000000000000000000000000000000000000000000000000000000000000000000000000000000000000000000000000000000000000000000000000000000000000000000000000000000000000000000000000000000000000000000000000000000000000000000000000000000000830200000183989680830126e28203e880a03fe2b7838e0ae4840da62aa278e1d3d6fb9f7a46aa50d95ed51577a7d330bf0c8890f7068679221ce8f879f8778001830927c08080ab6000600060006000600073c94f5374fce5edbc8e2a8697c15331677e6ebf0b61ea60f150600060006000f01ca0ff307a38034c5f948aa48ba3533b932fc6eb50c63f0363f45408c300221e26e0a045c242baebd2b6c303ff77a974c668db3e0af2e1281332c4517bc543685f10d5c0",
                "transactions" : [
                    {
                        "data" : "0x6000600060006000600073c94f5374fce5edbc8e2a8697c15331677e6ebf0b61ea60f150600060006000f0",
                        "gasLimit" : "0x0927c0",
                        "gasPrice" : "0x01",
                        "nonce" : "0x00",
                        "r" : "0xff307a38034c5f948aa48ba3533b932fc6eb50c63f0363f45408c300221e26e0",
                        "s" : "0x45c242baebd2b6c303ff77a974c668db3e0af2e1281332c4517bc543685f10d5",
                        "to" : "",
                        "v" : "0x1c",
                        "value" : "0x00"
                    }
                ],
                "uncleHeaders" : [
                ]
            }
        ],
        "genesisBlockHeader" : {
            "bloom" : "0x00000000000000000000000000000000000000000000000000000000000000000000000000000000000000000000000000000000000000000000000000000000000000000000000000000000000000000000000000000000000000000000000000000000000000000000000000000000000000000000000000000000000000000000000000000000000000000000000000000000000000000000000000000000000000000000000000000000000000000000000000000000000000000000000000000000000000000000000000000000000000000000000000000000000000000000000000000000000000000000000000000000000000000000000000000000",
            "coinbase" : "0x2adc25665018aa1fe0e6bc666dac8fc2697ff9ba",
            "difficulty" : "0x020000",
            "extraData" : "0x42",
            "gasLimit" : "0x989680",
            "gasUsed" : "0x00",
            "hash" : "0x45f942c904d851e67bd80f544b2cd7bfe2f2d75400dd5c5fd453ba4e80b19bc8",
            "mixHash" : "0x56e81f171bcc55a6ff8345e692c0f86e5b48e01b996cadc001622fb5e363b421",
            "nonce" : "0x0102030405060708",
            "number" : "0x00",
            "parentHash" : "0x0000000000000000000000000000000000000000000000000000000000000000",
            "receiptTrie" : "0x56e81f171bcc55a6ff8345e692c0f86e5b48e01b996cadc001622fb5e363b421",
            "stateRoot" : "0x2a9b6486ff64900d2e20ccecb7521211e3e5e7a7b818210dae7de9cd33f9dddf",
            "timestamp" : "0x03b6",
            "transactionsTrie" : "0x56e81f171bcc55a6ff8345e692c0f86e5b48e01b996cadc001622fb5e363b421",
            "uncleHash" : "0x1dcc4de8dec75d7aab85b567b6ccd41ad312451b948a7413f0a142fd40d49347"
        },
        "genesisRLP" : "0xf901faf901f5a00000000000000000000000000000000000000000000000000000000000000000a01dcc4de8dec75d7aab85b567b6ccd41ad312451b948a7413f0a142fd40d49347942adc25665018aa1fe0e6bc666dac8fc2697ff9baa02a9b6486ff64900d2e20ccecb7521211e3e5e7a7b818210dae7de9cd33f9dddfa056e81f171bcc55a6ff8345e692c0f86e5b48e01b996cadc001622fb5e363b421a056e81f171bcc55a6ff8345e692c0f86e5b48e01b996cadc001622fb5e363b421b9010000000000000000000000000000000000000000000000000000000000000000000000000000000000000000000000000000000000000000000000000000000000000000000000000000000000000000000000000000000000000000000000000000000000000000000000000000000000000000000000000000000000000000000000000000000000000000000000000000000000000000000000000000000000000000000000000000000000000000000000000000000000000000000000000000000000000000000000000000000000000000000000000000000000000000000000000000000000000000000000000000000000000000000000000000000000830200008083989680808203b642a056e81f171bcc55a6ff8345e692c0f86e5b48e01b996cadc001622fb5e363b421880102030405060708c0c0",
        "lastblockhash" : "0x27dff4665b21c16576577dbd95acff905aa089483868842605ba1e23c336fdcc",
        "network" : "Frontier",
        "postState" : {
            "0x2adc25665018aa1fe0e6bc666dac8fc2697ff9ba" : {
                "balance" : "0x4563918244f526e2",
                "code" : "",
                "nonce" : "0x00",
                "storage" : {
                }
            },
            "0x6295ee1b4f6dd65047762f924ecd367c17eabf8f" : {
                "balance" : "0x00",
                "code" : "",
                "nonce" : "0x01",
                "storage" : {
                }
            },
            "0xa42676447b7cedfa5fde894d1d3df24aab362701" : {
                "balance" : "0x00",
                "code" : "",
                "nonce" : "0x00",
                "storage" : {
                }
            },
            "0xa94f5374fce5edbc8e2a8697c15331677e6ebf0b" : {
                "balance" : "0xe8d4a3e91e",
                "code" : "",
                "nonce" : "0x01",
                "storage" : {
                }
            },
            "0xc94f5374fce5edbc8e2a8697c15331677e6ebf0b" : {
                "balance" : "0xe8d4a51000",
                "code" : "0x600c600155",
                "nonce" : "0x00",
                "storage" : {
                    "0x01" : "0x0c"
                }
            }
        },
        "pre" : {
            "0xa94f5374fce5edbc8e2a8697c15331677e6ebf0b" : {
                "balance" : "0xe8d4a51000",
                "code" : "",
                "nonce" : "0x00",
                "storage" : {
                }
            },
            "0xc94f5374fce5edbc8e2a8697c15331677e6ebf0b" : {
                "balance" : "0xe8d4a51000",
                "code" : "0x600c600155",
                "nonce" : "0x00",
                "storage" : {
                }
            }
        }
    },
    "CREATE_empty000CreateinInitCode_Transaction_d0g0v0_Homestead" : {
        "_info" : {
            "comment" : "",
            "filledwith" : "cpp-1.3.0+commit.8fb57c56.Linux.g++",
            "lllcversion" : "Version: 0.4.20-develop.2018.1.8+commit.2548228b.Linux.g++",
            "source" : "src/BlockchainTestsFiller/GeneralStateTests/stCreateTest/CREATE_empty000CreateinInitCode_Transaction_d0g0v0Filler.json",
            "sourceHash" : "c7c3a5ce8eeb2ca6dc2886165a64ca65dd3ffa21de9c23b53071d8373670634b"
        },
        "blocks" : [
            {
                "blockHeader" : {
                    "bloom" : "0x00000000000000000000000000000000000000000000000000000000000000000000000000000000000000000000000000000000000000000000000000000000000000000000000000000000000000000000000000000000000000000000000000000000000000000000000000000000000000000000000000000000000000000000000000000000000000000000000000000000000000000000000000000000000000000000000000000000000000000000000000000000000000000000000000000000000000000000000000000000000000000000000000000000000000000000000000000000000000000000000000000000000000000000000000000000",
                    "coinbase" : "0x2adc25665018aa1fe0e6bc666dac8fc2697ff9ba",
                    "difficulty" : "0x020000",
                    "extraData" : "",
                    "gasLimit" : "0x989680",
                    "gasUsed" : "0x01a3e2",
                    "hash" : "0x1dbc7e455a60bd24b480ef1530a110f774c8a817aa3991969ded27269a20cdb3",
                    "mixHash" : "0x432331bcd7b31dbd7b8a2d48e3177885d67ae860cee230f22093aeee2a2b77b8",
                    "nonce" : "0xc01780ab7da9d05c",
                    "number" : "0x01",
                    "parentHash" : "0x45f942c904d851e67bd80f544b2cd7bfe2f2d75400dd5c5fd453ba4e80b19bc8",
                    "receiptTrie" : "0x768f6634f33ab1413073cfeb960df8732a74eccbee5a426662ae672249c4eafe",
                    "stateRoot" : "0x60a32550175d493aa054c491947d148984ecc3def8286432e9380609b7a34a46",
                    "timestamp" : "0x03e8",
                    "transactionsTrie" : "0xa7254a4f9fffb936f0b1e7fe1efdf577c3a8dd8401295848a3f8efe0a2807b83",
                    "uncleHash" : "0x1dcc4de8dec75d7aab85b567b6ccd41ad312451b948a7413f0a142fd40d49347"
                },
                "rlp" : "0xf90277f901f8a045f942c904d851e67bd80f544b2cd7bfe2f2d75400dd5c5fd453ba4e80b19bc8a01dcc4de8dec75d7aab85b567b6ccd41ad312451b948a7413f0a142fd40d49347942adc25665018aa1fe0e6bc666dac8fc2697ff9baa060a32550175d493aa054c491947d148984ecc3def8286432e9380609b7a34a46a0a7254a4f9fffb936f0b1e7fe1efdf577c3a8dd8401295848a3f8efe0a2807b83a0768f6634f33ab1413073cfeb960df8732a74eccbee5a426662ae672249c4eafeb90100000000000000000000000000000000000000000000000000000000000000000000000000000000000000000000000000000000000000000000000000000000000000000000000000000000000000000000000000000000000000000000000000000000000000000000000000000000000000000000000000000000000000000000000000000000000000000000000000000000000000000000000000000000000000000000000000000000000000000000000000000000000000000000000000000000000000000000000000000000000000000000000000000000000000000000000000000000000000000000000000000000000000000000000000000000008302000001839896808301a3e28203e880a0432331bcd7b31dbd7b8a2d48e3177885d67ae860cee230f22093aeee2a2b77b888c01780ab7da9d05cf879f8778001830927c08080ab6000600060006000600073c94f5374fce5edbc8e2a8697c15331677e6ebf0b61ea60f150600060006000f01ca0ff307a38034c5f948aa48ba3533b932fc6eb50c63f0363f45408c300221e26e0a045c242baebd2b6c303ff77a974c668db3e0af2e1281332c4517bc543685f10d5c0",
                "transactions" : [
                    {
                        "data" : "0x6000600060006000600073c94f5374fce5edbc8e2a8697c15331677e6ebf0b61ea60f150600060006000f0",
                        "gasLimit" : "0x0927c0",
                        "gasPrice" : "0x01",
                        "nonce" : "0x00",
                        "r" : "0xff307a38034c5f948aa48ba3533b932fc6eb50c63f0363f45408c300221e26e0",
                        "s" : "0x45c242baebd2b6c303ff77a974c668db3e0af2e1281332c4517bc543685f10d5",
                        "to" : "",
                        "v" : "0x1c",
                        "value" : "0x00"
                    }
                ],
                "uncleHeaders" : [
                ]
            }
        ],
        "genesisBlockHeader" : {
            "bloom" : "0x00000000000000000000000000000000000000000000000000000000000000000000000000000000000000000000000000000000000000000000000000000000000000000000000000000000000000000000000000000000000000000000000000000000000000000000000000000000000000000000000000000000000000000000000000000000000000000000000000000000000000000000000000000000000000000000000000000000000000000000000000000000000000000000000000000000000000000000000000000000000000000000000000000000000000000000000000000000000000000000000000000000000000000000000000000000",
            "coinbase" : "0x2adc25665018aa1fe0e6bc666dac8fc2697ff9ba",
            "difficulty" : "0x020000",
            "extraData" : "0x42",
            "gasLimit" : "0x989680",
            "gasUsed" : "0x00",
            "hash" : "0x45f942c904d851e67bd80f544b2cd7bfe2f2d75400dd5c5fd453ba4e80b19bc8",
            "mixHash" : "0x56e81f171bcc55a6ff8345e692c0f86e5b48e01b996cadc001622fb5e363b421",
            "nonce" : "0x0102030405060708",
            "number" : "0x00",
            "parentHash" : "0x0000000000000000000000000000000000000000000000000000000000000000",
            "receiptTrie" : "0x56e81f171bcc55a6ff8345e692c0f86e5b48e01b996cadc001622fb5e363b421",
            "stateRoot" : "0x2a9b6486ff64900d2e20ccecb7521211e3e5e7a7b818210dae7de9cd33f9dddf",
            "timestamp" : "0x03b6",
            "transactionsTrie" : "0x56e81f171bcc55a6ff8345e692c0f86e5b48e01b996cadc001622fb5e363b421",
            "uncleHash" : "0x1dcc4de8dec75d7aab85b567b6ccd41ad312451b948a7413f0a142fd40d49347"
        },
        "genesisRLP" : "0xf901faf901f5a00000000000000000000000000000000000000000000000000000000000000000a01dcc4de8dec75d7aab85b567b6ccd41ad312451b948a7413f0a142fd40d49347942adc25665018aa1fe0e6bc666dac8fc2697ff9baa02a9b6486ff64900d2e20ccecb7521211e3e5e7a7b818210dae7de9cd33f9dddfa056e81f171bcc55a6ff8345e692c0f86e5b48e01b996cadc001622fb5e363b421a056e81f171bcc55a6ff8345e692c0f86e5b48e01b996cadc001622fb5e363b421b9010000000000000000000000000000000000000000000000000000000000000000000000000000000000000000000000000000000000000000000000000000000000000000000000000000000000000000000000000000000000000000000000000000000000000000000000000000000000000000000000000000000000000000000000000000000000000000000000000000000000000000000000000000000000000000000000000000000000000000000000000000000000000000000000000000000000000000000000000000000000000000000000000000000000000000000000000000000000000000000000000000000000000000000000000000000000830200008083989680808203b642a056e81f171bcc55a6ff8345e692c0f86e5b48e01b996cadc001622fb5e363b421880102030405060708c0c0",
        "lastblockhash" : "0x1dbc7e455a60bd24b480ef1530a110f774c8a817aa3991969ded27269a20cdb3",
        "network" : "Homestead",
        "postState" : {
            "0x2adc25665018aa1fe0e6bc666dac8fc2697ff9ba" : {
                "balance" : "0x4563918244f5a3e2",
                "code" : "",
                "nonce" : "0x00",
                "storage" : {
                }
            },
            "0x6295ee1b4f6dd65047762f924ecd367c17eabf8f" : {
                "balance" : "0x00",
                "code" : "",
                "nonce" : "0x01",
                "storage" : {
                }
            },
            "0xa42676447b7cedfa5fde894d1d3df24aab362701" : {
                "balance" : "0x00",
                "code" : "",
                "nonce" : "0x00",
                "storage" : {
                }
            },
            "0xa94f5374fce5edbc8e2a8697c15331677e6ebf0b" : {
                "balance" : "0xe8d4a36c1e",
                "code" : "",
                "nonce" : "0x01",
                "storage" : {
                }
            },
            "0xc94f5374fce5edbc8e2a8697c15331677e6ebf0b" : {
                "balance" : "0xe8d4a51000",
                "code" : "0x600c600155",
                "nonce" : "0x00",
                "storage" : {
                    "0x01" : "0x0c"
                }
            }
        },
        "pre" : {
            "0xa94f5374fce5edbc8e2a8697c15331677e6ebf0b" : {
                "balance" : "0xe8d4a51000",
                "code" : "",
                "nonce" : "0x00",
                "storage" : {
                }
            },
            "0xc94f5374fce5edbc8e2a8697c15331677e6ebf0b" : {
                "balance" : "0xe8d4a51000",
                "code" : "0x600c600155",
                "nonce" : "0x00",
                "storage" : {
                }
            }
        }
    }
}