{
    "CREATE_ContractSuicideDuringInit_ThenStoreThenReturn_d0g0v0_Byzantium" : {
        "_info" : {
            "comment" : "",
            "filledwith" : "cpp-1.3.0+commit.ab4ca6d1.Linux.g++",
            "lllcversion" : "Version: 0.4.20-develop.2018.1.8+commit.2548228b.Linux.g++",
            "source" : "src/BlockchainTestsFiller/GeneralStateTests/stCreateTest/CREATE_ContractSuicideDuringInit_ThenStoreThenReturn_d0g0v0Filler.json",
            "sourceHash" : "c765d63ebf3761533c430c2f7c0b2eb6f364aefde330832bf96f83c1e2ddb1a8"
        },
        "blocks" : [
            {
                "blockHeader" : {
                    "bloom" : "0x00000000000000000000000000000000000000000000000000000000000000000000000000000000000000000000000000000000000000000000000000000000000000000000000000000000000000000000000000000000000000000000000000000000000000000000000000000000000000000000000000000000000000000000000000000000000000000000000000000000000000000000000000000000000000000000000000000000000000000000000000000000000000000000000000000000000000000000000000000000000000000000000000000000000000000000000000000000000000000000000000000000000000000000000000000000",
                    "coinbase" : "0x2adc25665018aa1fe0e6bc666dac8fc2697ff9ba",
                    "difficulty" : "0x020000",
                    "extraData" : "",
                    "gasLimit" : "0x989680",
                    "gasUsed" : "0xf2c0",
                    "hash" : "0xb3601cba5855177314a58ba0f9b333775efd970eacf41de9dcdef2e1fa01bb83",
                    "mixHash" : "0x64128478919caf2870f70df9b87dabbaf66c9d7b8558c5b7cf99f628b991e33f",
                    "nonce" : "0x9d21bd733f82dde0",
                    "number" : "0x01",
                    "parentHash" : "0x22a3b256c62ab978461b83e260348b98dd19879f5943cd14956b0198a6f929c4",
                    "receiptTrie" : "0x1b7a216a3e9b38288148393e072c976dc0dc1b5f68b1506e592e5fa99a7d2b47",
                    "stateRoot" : "0xa7da48e7ecddf789ea3a25227bcd22ee6c4b5838dd2e8a8c80b2607018b7b411",
                    "timestamp" : "0x03e8",
                    "transactionsTrie" : "0x0c2861c7c773367058155fd48db84f221aa6019726912e2cf21d2958bd6636be",
                    "uncleHash" : "0x1dcc4de8dec75d7aab85b567b6ccd41ad312451b948a7413f0a142fd40d49347"
                },
                "rlp" : "0xf902c6f901f7a022a3b256c62ab978461b83e260348b98dd19879f5943cd14956b0198a6f929c4a01dcc4de8dec75d7aab85b567b6ccd41ad312451b948a7413f0a142fd40d49347942adc25665018aa1fe0e6bc666dac8fc2697ff9baa0a7da48e7ecddf789ea3a25227bcd22ee6c4b5838dd2e8a8c80b2607018b7b411a00c2861c7c773367058155fd48db84f221aa6019726912e2cf21d2958bd6636bea01b7a216a3e9b38288148393e072c976dc0dc1b5f68b1506e592e5fa99a7d2b47b901000000000000000000000000000000000000000000000000000000000000000000000000000000000000000000000000000000000000000000000000000000000000000000000000000000000000000000000000000000000000000000000000000000000000000000000000000000000000000000000000000000000000000000000000000000000000000000000000000000000000000000000000000000000000000000000000000000000000000000000000000000000000000000000000000000000000000000000000000000000000000000000000000000000000000000000000000000000000000000000000000000000000000000000000000000000083020000018398968082f2c08203e880a064128478919caf2870f70df9b87dabbaf66c9d7b8558c5b7cf99f628b991e33f889d21bd733f82dde0f8c9f8c78001830927c0800ab87a6000600060006000600073c94f5374fce5edbc8e2a8697c15331677e6ebf0b61ea60f1506d64600c6000556000526005601bf360005273d94f5374fce5edbc8e2a8697c15331677e6ebf0bff6000600060006000600073d94f5374fce5edbc8e2a8697c15331677e6ebf0b61ea60f150600b600055600e6012f31ca054ca77a931f3b3592a33cc63442109a96241e2800362bd35628bd33e8442616fa0097b0eb289b78a9e8f96cc29ec18e79785f4ba70c62b2443208714429d5bba9bc0",
                "transactions" : [
                    {
                        "data" : "0x6000600060006000600073c94f5374fce5edbc8e2a8697c15331677e6ebf0b61ea60f1506d64600c6000556000526005601bf360005273d94f5374fce5edbc8e2a8697c15331677e6ebf0bff6000600060006000600073d94f5374fce5edbc8e2a8697c15331677e6ebf0b61ea60f150600b600055600e6012f3",
                        "gasLimit" : "0x0927c0",
                        "gasPrice" : "0x01",
                        "nonce" : "0x00",
                        "r" : "0x54ca77a931f3b3592a33cc63442109a96241e2800362bd35628bd33e8442616f",
                        "s" : "0x097b0eb289b78a9e8f96cc29ec18e79785f4ba70c62b2443208714429d5bba9b",
                        "to" : "",
                        "v" : "0x1c",
                        "value" : "0x0a"
                    }
                ],
                "uncleHeaders" : [
                ]
            }
        ],
        "genesisBlockHeader" : {
            "bloom" : "0x00000000000000000000000000000000000000000000000000000000000000000000000000000000000000000000000000000000000000000000000000000000000000000000000000000000000000000000000000000000000000000000000000000000000000000000000000000000000000000000000000000000000000000000000000000000000000000000000000000000000000000000000000000000000000000000000000000000000000000000000000000000000000000000000000000000000000000000000000000000000000000000000000000000000000000000000000000000000000000000000000000000000000000000000000000000",
            "coinbase" : "0x2adc25665018aa1fe0e6bc666dac8fc2697ff9ba",
            "difficulty" : "0x020000",
            "extraData" : "0x42",
            "gasLimit" : "0x989680",
            "gasUsed" : "0x00",
            "hash" : "0x22a3b256c62ab978461b83e260348b98dd19879f5943cd14956b0198a6f929c4",
            "mixHash" : "0x56e81f171bcc55a6ff8345e692c0f86e5b48e01b996cadc001622fb5e363b421",
            "nonce" : "0x0102030405060708",
            "number" : "0x00",
            "parentHash" : "0x0000000000000000000000000000000000000000000000000000000000000000",
            "receiptTrie" : "0x56e81f171bcc55a6ff8345e692c0f86e5b48e01b996cadc001622fb5e363b421",
            "stateRoot" : "0xa05d4be4210f29ee0297a4efe2428d8453ab907d765aea475519e92aec33a073",
            "timestamp" : "0x03b6",
            "transactionsTrie" : "0x56e81f171bcc55a6ff8345e692c0f86e5b48e01b996cadc001622fb5e363b421",
            "uncleHash" : "0x1dcc4de8dec75d7aab85b567b6ccd41ad312451b948a7413f0a142fd40d49347"
        },
        "genesisRLP" : "0xf901faf901f5a00000000000000000000000000000000000000000000000000000000000000000a01dcc4de8dec75d7aab85b567b6ccd41ad312451b948a7413f0a142fd40d49347942adc25665018aa1fe0e6bc666dac8fc2697ff9baa0a05d4be4210f29ee0297a4efe2428d8453ab907d765aea475519e92aec33a073a056e81f171bcc55a6ff8345e692c0f86e5b48e01b996cadc001622fb5e363b421a056e81f171bcc55a6ff8345e692c0f86e5b48e01b996cadc001622fb5e363b421b9010000000000000000000000000000000000000000000000000000000000000000000000000000000000000000000000000000000000000000000000000000000000000000000000000000000000000000000000000000000000000000000000000000000000000000000000000000000000000000000000000000000000000000000000000000000000000000000000000000000000000000000000000000000000000000000000000000000000000000000000000000000000000000000000000000000000000000000000000000000000000000000000000000000000000000000000000000000000000000000000000000000000000000000000000000000000830200008083989680808203b642a056e81f171bcc55a6ff8345e692c0f86e5b48e01b996cadc001622fb5e363b421880102030405060708c0c0",
        "lastblockhash" : "0xb3601cba5855177314a58ba0f9b333775efd970eacf41de9dcdef2e1fa01bb83",
        "network" : "Byzantium",
        "postState" : {
            "0x2adc25665018aa1fe0e6bc666dac8fc2697ff9ba" : {
                "balance" : "0x29a2241af62cf2c0",
                "code" : "",
                "nonce" : "0x00",
                "storage" : {
                }
            },
            "0xa94f5374fce5edbc8e2a8697c15331677e6ebf0b" : {
                "balance" : "0xe8d4a41d36",
                "code" : "",
                "nonce" : "0x01",
                "storage" : {
                }
            },
            "0xc94f5374fce5edbc8e2a8697c15331677e6ebf0b" : {
                "balance" : "0x00",
                "code" : "0x600c600155",
                "nonce" : "0x00",
                "storage" : {
                    "0x01" : "0x0c"
                }
            },
            "0xd94f5374fce5edbc8e2a8697c15331677e6ebf0b" : {
                "balance" : "0x0a",
                "code" : "0x600c600155",
                "nonce" : "0x00",
                "storage" : {
                }
            }
        },
        "pre" : {
            "0xa94f5374fce5edbc8e2a8697c15331677e6ebf0b" : {
                "balance" : "0xe8d4a51000",
                "code" : "",
                "nonce" : "0x00",
                "storage" : {
                }
            },
            "0xc94f5374fce5edbc8e2a8697c15331677e6ebf0b" : {
                "balance" : "0x00",
                "code" : "0x600c600155",
                "nonce" : "0x00",
                "storage" : {
                }
            },
            "0xd94f5374fce5edbc8e2a8697c15331677e6ebf0b" : {
                "balance" : "0x00",
                "code" : "0x600c600155",
                "nonce" : "0x00",
                "storage" : {
                }
            }
        }
    },
    "CREATE_ContractSuicideDuringInit_ThenStoreThenReturn_d0g0v0_EIP150" : {
        "_info" : {
            "comment" : "",
            "filledwith" : "cpp-1.3.0+commit.ab4ca6d1.Linux.g++",
            "lllcversion" : "Version: 0.4.20-develop.2018.1.8+commit.2548228b.Linux.g++",
            "source" : "src/BlockchainTestsFiller/GeneralStateTests/stCreateTest/CREATE_ContractSuicideDuringInit_ThenStoreThenReturn_d0g0v0Filler.json",
            "sourceHash" : "c765d63ebf3761533c430c2f7c0b2eb6f364aefde330832bf96f83c1e2ddb1a8"
        },
        "blocks" : [
            {
                "blockHeader" : {
                    "bloom" : "0x00000000000000000000000000000000000000000000000000000000000000000000000000000000000000000000000000000000000000000000000000000000000000000000000000000000000000000000000000000000000000000000000000000000000000000000000000000000000000000000000000000000000000000000000000000000000000000000000000000000000000000000000000000000000000000000000000000000000000000000000000000000000000000000000000000000000000000000000000000000000000000000000000000000000000000000000000000000000000000000000000000000000000000000000000000000",
                    "coinbase" : "0x2adc25665018aa1fe0e6bc666dac8fc2697ff9ba",
                    "difficulty" : "0x020000",
                    "extraData" : "",
                    "gasLimit" : "0x989680",
                    "gasUsed" : "0xf2c0",
                    "hash" : "0x9484190812d88abe8fcc14d8fea15bb16af10e737cb1f6771372a25db83a6e55",
                    "mixHash" : "0xfea789a7fe67fe51dd047a45a88a8840cbae4759bb4bf9b4495dfd1e0c6390a3",
                    "nonce" : "0xb3f1fe3468b6edf1",
                    "number" : "0x01",
                    "parentHash" : "0x22a3b256c62ab978461b83e260348b98dd19879f5943cd14956b0198a6f929c4",
                    "receiptTrie" : "0xe13bd551335498aa111c004c80fbb7daf43e61e740075aada5378e56a0adb566",
                    "stateRoot" : "0x5a74fa6a8da96af64847dbd1282e785be69c95191c9c15df7a98fd1c61fd1c7f",
                    "timestamp" : "0x03e8",
                    "transactionsTrie" : "0x0c2861c7c773367058155fd48db84f221aa6019726912e2cf21d2958bd6636be",
                    "uncleHash" : "0x1dcc4de8dec75d7aab85b567b6ccd41ad312451b948a7413f0a142fd40d49347"
                },
                "rlp" : "0xf902c6f901f7a022a3b256c62ab978461b83e260348b98dd19879f5943cd14956b0198a6f929c4a01dcc4de8dec75d7aab85b567b6ccd41ad312451b948a7413f0a142fd40d49347942adc25665018aa1fe0e6bc666dac8fc2697ff9baa05a74fa6a8da96af64847dbd1282e785be69c95191c9c15df7a98fd1c61fd1c7fa00c2861c7c773367058155fd48db84f221aa6019726912e2cf21d2958bd6636bea0e13bd551335498aa111c004c80fbb7daf43e61e740075aada5378e56a0adb566b901000000000000000000000000000000000000000000000000000000000000000000000000000000000000000000000000000000000000000000000000000000000000000000000000000000000000000000000000000000000000000000000000000000000000000000000000000000000000000000000000000000000000000000000000000000000000000000000000000000000000000000000000000000000000000000000000000000000000000000000000000000000000000000000000000000000000000000000000000000000000000000000000000000000000000000000000000000000000000000000000000000000000000000000000000000000083020000018398968082f2c08203e880a0fea789a7fe67fe51dd047a45a88a8840cbae4759bb4bf9b4495dfd1e0c6390a388b3f1fe3468b6edf1f8c9f8c78001830927c0800ab87a6000600060006000600073c94f5374fce5edbc8e2a8697c15331677e6ebf0b61ea60f1506d64600c6000556000526005601bf360005273d94f5374fce5edbc8e2a8697c15331677e6ebf0bff6000600060006000600073d94f5374fce5edbc8e2a8697c15331677e6ebf0b61ea60f150600b600055600e6012f31ca054ca77a931f3b3592a33cc63442109a96241e2800362bd35628bd33e8442616fa0097b0eb289b78a9e8f96cc29ec18e79785f4ba70c62b2443208714429d5bba9bc0",
                "transactions" : [
                    {
                        "data" : "0x6000600060006000600073c94f5374fce5edbc8e2a8697c15331677e6ebf0b61ea60f1506d64600c6000556000526005601bf360005273d94f5374fce5edbc8e2a8697c15331677e6ebf0bff6000600060006000600073d94f5374fce5edbc8e2a8697c15331677e6ebf0b61ea60f150600b600055600e6012f3",
                        "gasLimit" : "0x0927c0",
                        "gasPrice" : "0x01",
                        "nonce" : "0x00",
                        "r" : "0x54ca77a931f3b3592a33cc63442109a96241e2800362bd35628bd33e8442616f",
                        "s" : "0x097b0eb289b78a9e8f96cc29ec18e79785f4ba70c62b2443208714429d5bba9b",
                        "to" : "",
                        "v" : "0x1c",
                        "value" : "0x0a"
                    }
                ],
                "uncleHeaders" : [
                ]
            }
        ],
        "genesisBlockHeader" : {
            "bloom" : "0x00000000000000000000000000000000000000000000000000000000000000000000000000000000000000000000000000000000000000000000000000000000000000000000000000000000000000000000000000000000000000000000000000000000000000000000000000000000000000000000000000000000000000000000000000000000000000000000000000000000000000000000000000000000000000000000000000000000000000000000000000000000000000000000000000000000000000000000000000000000000000000000000000000000000000000000000000000000000000000000000000000000000000000000000000000000",
            "coinbase" : "0x2adc25665018aa1fe0e6bc666dac8fc2697ff9ba",
            "difficulty" : "0x020000",
            "extraData" : "0x42",
            "gasLimit" : "0x989680",
            "gasUsed" : "0x00",
            "hash" : "0x22a3b256c62ab978461b83e260348b98dd19879f5943cd14956b0198a6f929c4",
            "mixHash" : "0x56e81f171bcc55a6ff8345e692c0f86e5b48e01b996cadc001622fb5e363b421",
            "nonce" : "0x0102030405060708",
            "number" : "0x00",
            "parentHash" : "0x0000000000000000000000000000000000000000000000000000000000000000",
            "receiptTrie" : "0x56e81f171bcc55a6ff8345e692c0f86e5b48e01b996cadc001622fb5e363b421",
            "stateRoot" : "0xa05d4be4210f29ee0297a4efe2428d8453ab907d765aea475519e92aec33a073",
            "timestamp" : "0x03b6",
            "transactionsTrie" : "0x56e81f171bcc55a6ff8345e692c0f86e5b48e01b996cadc001622fb5e363b421",
            "uncleHash" : "0x1dcc4de8dec75d7aab85b567b6ccd41ad312451b948a7413f0a142fd40d49347"
        },
        "genesisRLP" : "0xf901faf901f5a00000000000000000000000000000000000000000000000000000000000000000a01dcc4de8dec75d7aab85b567b6ccd41ad312451b948a7413f0a142fd40d49347942adc25665018aa1fe0e6bc666dac8fc2697ff9baa0a05d4be4210f29ee0297a4efe2428d8453ab907d765aea475519e92aec33a073a056e81f171bcc55a6ff8345e692c0f86e5b48e01b996cadc001622fb5e363b421a056e81f171bcc55a6ff8345e692c0f86e5b48e01b996cadc001622fb5e363b421b9010000000000000000000000000000000000000000000000000000000000000000000000000000000000000000000000000000000000000000000000000000000000000000000000000000000000000000000000000000000000000000000000000000000000000000000000000000000000000000000000000000000000000000000000000000000000000000000000000000000000000000000000000000000000000000000000000000000000000000000000000000000000000000000000000000000000000000000000000000000000000000000000000000000000000000000000000000000000000000000000000000000000000000000000000000000000830200008083989680808203b642a056e81f171bcc55a6ff8345e692c0f86e5b48e01b996cadc001622fb5e363b421880102030405060708c0c0",
        "lastblockhash" : "0x9484190812d88abe8fcc14d8fea15bb16af10e737cb1f6771372a25db83a6e55",
        "network" : "EIP150",
        "postState" : {
            "0x2adc25665018aa1fe0e6bc666dac8fc2697ff9ba" : {
                "balance" : "0x4563918244f4f2c0",
                "code" : "",
                "nonce" : "0x00",
                "storage" : {
                }
            },
            "0xa94f5374fce5edbc8e2a8697c15331677e6ebf0b" : {
                "balance" : "0xe8d4a41d36",
                "code" : "",
                "nonce" : "0x01",
                "storage" : {
                }
            },
            "0xc94f5374fce5edbc8e2a8697c15331677e6ebf0b" : {
                "balance" : "0x00",
                "code" : "0x600c600155",
                "nonce" : "0x00",
                "storage" : {
                    "0x01" : "0x0c"
                }
            },
            "0xd94f5374fce5edbc8e2a8697c15331677e6ebf0b" : {
                "balance" : "0x0a",
                "code" : "0x600c600155",
                "nonce" : "0x00",
                "storage" : {
                }
            }
        },
        "pre" : {
            "0xa94f5374fce5edbc8e2a8697c15331677e6ebf0b" : {
                "balance" : "0xe8d4a51000",
                "code" : "",
                "nonce" : "0x00",
                "storage" : {
                }
            },
            "0xc94f5374fce5edbc8e2a8697c15331677e6ebf0b" : {
                "balance" : "0x00",
                "code" : "0x600c600155",
                "nonce" : "0x00",
                "storage" : {
                }
            },
            "0xd94f5374fce5edbc8e2a8697c15331677e6ebf0b" : {
                "balance" : "0x00",
                "code" : "0x600c600155",
                "nonce" : "0x00",
                "storage" : {
                }
            }
        }
    },
    "CREATE_ContractSuicideDuringInit_ThenStoreThenReturn_d0g0v0_EIP158" : {
        "_info" : {
            "comment" : "",
            "filledwith" : "cpp-1.3.0+commit.ab4ca6d1.Linux.g++",
            "lllcversion" : "Version: 0.4.20-develop.2018.1.8+commit.2548228b.Linux.g++",
            "source" : "src/BlockchainTestsFiller/GeneralStateTests/stCreateTest/CREATE_ContractSuicideDuringInit_ThenStoreThenReturn_d0g0v0Filler.json",
            "sourceHash" : "c765d63ebf3761533c430c2f7c0b2eb6f364aefde330832bf96f83c1e2ddb1a8"
        },
        "blocks" : [
            {
                "blockHeader" : {
                    "bloom" : "0x00000000000000000000000000000000000000000000000000000000000000000000000000000000000000000000000000000000000000000000000000000000000000000000000000000000000000000000000000000000000000000000000000000000000000000000000000000000000000000000000000000000000000000000000000000000000000000000000000000000000000000000000000000000000000000000000000000000000000000000000000000000000000000000000000000000000000000000000000000000000000000000000000000000000000000000000000000000000000000000000000000000000000000000000000000000",
                    "coinbase" : "0x2adc25665018aa1fe0e6bc666dac8fc2697ff9ba",
                    "difficulty" : "0x020000",
                    "extraData" : "",
                    "gasLimit" : "0x989680",
                    "gasUsed" : "0xf2c0",
                    "hash" : "0x12844322de0df843eccd5d40bb3bde709df2ce7fe85cf32e2da72fa4823a1cac",
                    "mixHash" : "0xa91117dee3edc6a089e648ad6f219dcef1eb0ceb9e0fe6ad6e37f6e27605894f",
                    "nonce" : "0x4247bd845eccad25",
                    "number" : "0x01",
                    "parentHash" : "0x22a3b256c62ab978461b83e260348b98dd19879f5943cd14956b0198a6f929c4",
                    "receiptTrie" : "0xe13bd551335498aa111c004c80fbb7daf43e61e740075aada5378e56a0adb566",
                    "stateRoot" : "0x5a74fa6a8da96af64847dbd1282e785be69c95191c9c15df7a98fd1c61fd1c7f",
                    "timestamp" : "0x03e8",
                    "transactionsTrie" : "0x0c2861c7c773367058155fd48db84f221aa6019726912e2cf21d2958bd6636be",
                    "uncleHash" : "0x1dcc4de8dec75d7aab85b567b6ccd41ad312451b948a7413f0a142fd40d49347"
                },
                "rlp" : "0xf902c6f901f7a022a3b256c62ab978461b83e260348b98dd19879f5943cd14956b0198a6f929c4a01dcc4de8dec75d7aab85b567b6ccd41ad312451b948a7413f0a142fd40d49347942adc25665018aa1fe0e6bc666dac8fc2697ff9baa05a74fa6a8da96af64847dbd1282e785be69c95191c9c15df7a98fd1c61fd1c7fa00c2861c7c773367058155fd48db84f221aa6019726912e2cf21d2958bd6636bea0e13bd551335498aa111c004c80fbb7daf43e61e740075aada5378e56a0adb566b901000000000000000000000000000000000000000000000000000000000000000000000000000000000000000000000000000000000000000000000000000000000000000000000000000000000000000000000000000000000000000000000000000000000000000000000000000000000000000000000000000000000000000000000000000000000000000000000000000000000000000000000000000000000000000000000000000000000000000000000000000000000000000000000000000000000000000000000000000000000000000000000000000000000000000000000000000000000000000000000000000000000000000000000000000000000083020000018398968082f2c08203e880a0a91117dee3edc6a089e648ad6f219dcef1eb0ceb9e0fe6ad6e37f6e27605894f884247bd845eccad25f8c9f8c78001830927c0800ab87a6000600060006000600073c94f5374fce5edbc8e2a8697c15331677e6ebf0b61ea60f1506d64600c6000556000526005601bf360005273d94f5374fce5edbc8e2a8697c15331677e6ebf0bff6000600060006000600073d94f5374fce5edbc8e2a8697c15331677e6ebf0b61ea60f150600b600055600e6012f31ca054ca77a931f3b3592a33cc63442109a96241e2800362bd35628bd33e8442616fa0097b0eb289b78a9e8f96cc29ec18e79785f4ba70c62b2443208714429d5bba9bc0",
                "transactions" : [
                    {
                        "data" : "0x6000600060006000600073c94f5374fce5edbc8e2a8697c15331677e6ebf0b61ea60f1506d64600c6000556000526005601bf360005273d94f5374fce5edbc8e2a8697c15331677e6ebf0bff6000600060006000600073d94f5374fce5edbc8e2a8697c15331677e6ebf0b61ea60f150600b600055600e6012f3",
                        "gasLimit" : "0x0927c0",
                        "gasPrice" : "0x01",
                        "nonce" : "0x00",
                        "r" : "0x54ca77a931f3b3592a33cc63442109a96241e2800362bd35628bd33e8442616f",
                        "s" : "0x097b0eb289b78a9e8f96cc29ec18e79785f4ba70c62b2443208714429d5bba9b",
                        "to" : "",
                        "v" : "0x1c",
                        "value" : "0x0a"
                    }
                ],
                "uncleHeaders" : [
                ]
            }
        ],
        "genesisBlockHeader" : {
            "bloom" : "0x00000000000000000000000000000000000000000000000000000000000000000000000000000000000000000000000000000000000000000000000000000000000000000000000000000000000000000000000000000000000000000000000000000000000000000000000000000000000000000000000000000000000000000000000000000000000000000000000000000000000000000000000000000000000000000000000000000000000000000000000000000000000000000000000000000000000000000000000000000000000000000000000000000000000000000000000000000000000000000000000000000000000000000000000000000000",
            "coinbase" : "0x2adc25665018aa1fe0e6bc666dac8fc2697ff9ba",
            "difficulty" : "0x020000",
            "extraData" : "0x42",
            "gasLimit" : "0x989680",
            "gasUsed" : "0x00",
            "hash" : "0x22a3b256c62ab978461b83e260348b98dd19879f5943cd14956b0198a6f929c4",
            "mixHash" : "0x56e81f171bcc55a6ff8345e692c0f86e5b48e01b996cadc001622fb5e363b421",
            "nonce" : "0x0102030405060708",
            "number" : "0x00",
            "parentHash" : "0x0000000000000000000000000000000000000000000000000000000000000000",
            "receiptTrie" : "0x56e81f171bcc55a6ff8345e692c0f86e5b48e01b996cadc001622fb5e363b421",
            "stateRoot" : "0xa05d4be4210f29ee0297a4efe2428d8453ab907d765aea475519e92aec33a073",
            "timestamp" : "0x03b6",
            "transactionsTrie" : "0x56e81f171bcc55a6ff8345e692c0f86e5b48e01b996cadc001622fb5e363b421",
            "uncleHash" : "0x1dcc4de8dec75d7aab85b567b6ccd41ad312451b948a7413f0a142fd40d49347"
        },
        "genesisRLP" : "0xf901faf901f5a00000000000000000000000000000000000000000000000000000000000000000a01dcc4de8dec75d7aab85b567b6ccd41ad312451b948a7413f0a142fd40d49347942adc25665018aa1fe0e6bc666dac8fc2697ff9baa0a05d4be4210f29ee0297a4efe2428d8453ab907d765aea475519e92aec33a073a056e81f171bcc55a6ff8345e692c0f86e5b48e01b996cadc001622fb5e363b421a056e81f171bcc55a6ff8345e692c0f86e5b48e01b996cadc001622fb5e363b421b9010000000000000000000000000000000000000000000000000000000000000000000000000000000000000000000000000000000000000000000000000000000000000000000000000000000000000000000000000000000000000000000000000000000000000000000000000000000000000000000000000000000000000000000000000000000000000000000000000000000000000000000000000000000000000000000000000000000000000000000000000000000000000000000000000000000000000000000000000000000000000000000000000000000000000000000000000000000000000000000000000000000000000000000000000000000000830200008083989680808203b642a056e81f171bcc55a6ff8345e692c0f86e5b48e01b996cadc001622fb5e363b421880102030405060708c0c0",
        "lastblockhash" : "0x12844322de0df843eccd5d40bb3bde709df2ce7fe85cf32e2da72fa4823a1cac",
        "network" : "EIP158",
        "postState" : {
            "0x2adc25665018aa1fe0e6bc666dac8fc2697ff9ba" : {
                "balance" : "0x4563918244f4f2c0",
                "code" : "",
                "nonce" : "0x00",
                "storage" : {
                }
            },
            "0xa94f5374fce5edbc8e2a8697c15331677e6ebf0b" : {
                "balance" : "0xe8d4a41d36",
                "code" : "",
                "nonce" : "0x01",
                "storage" : {
                }
            },
            "0xc94f5374fce5edbc8e2a8697c15331677e6ebf0b" : {
                "balance" : "0x00",
                "code" : "0x600c600155",
                "nonce" : "0x00",
                "storage" : {
                    "0x01" : "0x0c"
                }
            },
            "0xd94f5374fce5edbc8e2a8697c15331677e6ebf0b" : {
                "balance" : "0x0a",
                "code" : "0x600c600155",
                "nonce" : "0x00",
                "storage" : {
                }
            }
        },
        "pre" : {
            "0xa94f5374fce5edbc8e2a8697c15331677e6ebf0b" : {
                "balance" : "0xe8d4a51000",
                "code" : "",
                "nonce" : "0x00",
                "storage" : {
                }
            },
            "0xc94f5374fce5edbc8e2a8697c15331677e6ebf0b" : {
                "balance" : "0x00",
                "code" : "0x600c600155",
                "nonce" : "0x00",
                "storage" : {
                }
            },
            "0xd94f5374fce5edbc8e2a8697c15331677e6ebf0b" : {
                "balance" : "0x00",
                "code" : "0x600c600155",
                "nonce" : "0x00",
                "storage" : {
                }
            }
        }
    },
    "CREATE_ContractSuicideDuringInit_ThenStoreThenReturn_d0g0v0_Frontier" : {
        "_info" : {
            "comment" : "",
            "filledwith" : "cpp-1.3.0+commit.ab4ca6d1.Linux.g++",
            "lllcversion" : "Version: 0.4.20-develop.2018.1.8+commit.2548228b.Linux.g++",
            "source" : "src/BlockchainTestsFiller/GeneralStateTests/stCreateTest/CREATE_ContractSuicideDuringInit_ThenStoreThenReturn_d0g0v0Filler.json",
            "sourceHash" : "c765d63ebf3761533c430c2f7c0b2eb6f364aefde330832bf96f83c1e2ddb1a8"
        },
        "blocks" : [
            {
                "blockHeader" : {
                    "bloom" : "0x00000000000000000000000000000000000000000000000000000000000000000000000000000000000000000000000000000000000000000000000000000000000000000000000000000000000000000000000000000000000000000000000000000000000000000000000000000000000000000000000000000000000000000000000000000000000000000000000000000000000000000000000000000000000000000000000000000000000000000000000000000000000000000000000000000000000000000000000000000000000000000000000000000000000000000000000000000000000000000000000000000000000000000000000000000000",
                    "coinbase" : "0x2adc25665018aa1fe0e6bc666dac8fc2697ff9ba",
                    "difficulty" : "0x020000",
                    "extraData" : "",
                    "gasLimit" : "0x989680",
                    "gasUsed" : "0x5fa4",
                    "hash" : "0xa93001dc6efd39d3fdaaddd24f85fa860c43a69d37ed4bc59dc2ac182f7a263e",
                    "mixHash" : "0x69dd2a3a674a0667c1e6673d621602fdeb77fa189727369363decab056faeedd",
                    "nonce" : "0x52274eb6be09b848",
                    "number" : "0x01",
                    "parentHash" : "0x22a3b256c62ab978461b83e260348b98dd19879f5943cd14956b0198a6f929c4",
                    "receiptTrie" : "0xd32d41f1428f891d96ea22c79572146bbf774c64659929087ab48e4c6220b75c",
                    "stateRoot" : "0xef01c7cb9e4e3e4cadd383267d352d6dfcd6136e367076d7a59a10e5ca81ea61",
                    "timestamp" : "0x03e8",
                    "transactionsTrie" : "0x0c2861c7c773367058155fd48db84f221aa6019726912e2cf21d2958bd6636be",
                    "uncleHash" : "0x1dcc4de8dec75d7aab85b567b6ccd41ad312451b948a7413f0a142fd40d49347"
                },
                "rlp" : "0xf902c6f901f7a022a3b256c62ab978461b83e260348b98dd19879f5943cd14956b0198a6f929c4a01dcc4de8dec75d7aab85b567b6ccd41ad312451b948a7413f0a142fd40d49347942adc25665018aa1fe0e6bc666dac8fc2697ff9baa0ef01c7cb9e4e3e4cadd383267d352d6dfcd6136e367076d7a59a10e5ca81ea61a00c2861c7c773367058155fd48db84f221aa6019726912e2cf21d2958bd6636bea0d32d41f1428f891d96ea22c79572146bbf774c64659929087ab48e4c6220b75cb9010000000000000000000000000000000000000000000000000000000000000000000000000000000000000000000000000000000000000000000000000000000000000000000000000000000000000000000000000000000000000000000000000000000000000000000000000000000000000000000000000000000000000000000000000000000000000000000000000000000000000000000000000000000000000000000000000000000000000000000000000000000000000000000000000000000000000000000000000000000000000000000000000000000000000000000000000000000000000000000000000000000000000000000000000000000000830200000183989680825fa48203e880a069dd2a3a674a0667c1e6673d621602fdeb77fa189727369363decab056faeedd8852274eb6be09b848f8c9f8c78001830927c0800ab87a6000600060006000600073c94f5374fce5edbc8e2a8697c15331677e6ebf0b61ea60f1506d64600c6000556000526005601bf360005273d94f5374fce5edbc8e2a8697c15331677e6ebf0bff6000600060006000600073d94f5374fce5edbc8e2a8697c15331677e6ebf0b61ea60f150600b600055600e6012f31ca054ca77a931f3b3592a33cc63442109a96241e2800362bd35628bd33e8442616fa0097b0eb289b78a9e8f96cc29ec18e79785f4ba70c62b2443208714429d5bba9bc0",
                "transactions" : [
                    {
                        "data" : "0x6000600060006000600073c94f5374fce5edbc8e2a8697c15331677e6ebf0b61ea60f1506d64600c6000556000526005601bf360005273d94f5374fce5edbc8e2a8697c15331677e6ebf0bff6000600060006000600073d94f5374fce5edbc8e2a8697c15331677e6ebf0b61ea60f150600b600055600e6012f3",
                        "gasLimit" : "0x0927c0",
                        "gasPrice" : "0x01",
                        "nonce" : "0x00",
                        "r" : "0x54ca77a931f3b3592a33cc63442109a96241e2800362bd35628bd33e8442616f",
                        "s" : "0x097b0eb289b78a9e8f96cc29ec18e79785f4ba70c62b2443208714429d5bba9b",
                        "to" : "",
                        "v" : "0x1c",
                        "value" : "0x0a"
                    }
                ],
                "uncleHeaders" : [
                ]
            }
        ],
        "genesisBlockHeader" : {
            "bloom" : "0x00000000000000000000000000000000000000000000000000000000000000000000000000000000000000000000000000000000000000000000000000000000000000000000000000000000000000000000000000000000000000000000000000000000000000000000000000000000000000000000000000000000000000000000000000000000000000000000000000000000000000000000000000000000000000000000000000000000000000000000000000000000000000000000000000000000000000000000000000000000000000000000000000000000000000000000000000000000000000000000000000000000000000000000000000000000",
            "coinbase" : "0x2adc25665018aa1fe0e6bc666dac8fc2697ff9ba",
            "difficulty" : "0x020000",
            "extraData" : "0x42",
            "gasLimit" : "0x989680",
            "gasUsed" : "0x00",
            "hash" : "0x22a3b256c62ab978461b83e260348b98dd19879f5943cd14956b0198a6f929c4",
            "mixHash" : "0x56e81f171bcc55a6ff8345e692c0f86e5b48e01b996cadc001622fb5e363b421",
            "nonce" : "0x0102030405060708",
            "number" : "0x00",
            "parentHash" : "0x0000000000000000000000000000000000000000000000000000000000000000",
            "receiptTrie" : "0x56e81f171bcc55a6ff8345e692c0f86e5b48e01b996cadc001622fb5e363b421",
            "stateRoot" : "0xa05d4be4210f29ee0297a4efe2428d8453ab907d765aea475519e92aec33a073",
            "timestamp" : "0x03b6",
            "transactionsTrie" : "0x56e81f171bcc55a6ff8345e692c0f86e5b48e01b996cadc001622fb5e363b421",
            "uncleHash" : "0x1dcc4de8dec75d7aab85b567b6ccd41ad312451b948a7413f0a142fd40d49347"
        },
        "genesisRLP" : "0xf901faf901f5a00000000000000000000000000000000000000000000000000000000000000000a01dcc4de8dec75d7aab85b567b6ccd41ad312451b948a7413f0a142fd40d49347942adc25665018aa1fe0e6bc666dac8fc2697ff9baa0a05d4be4210f29ee0297a4efe2428d8453ab907d765aea475519e92aec33a073a056e81f171bcc55a6ff8345e692c0f86e5b48e01b996cadc001622fb5e363b421a056e81f171bcc55a6ff8345e692c0f86e5b48e01b996cadc001622fb5e363b421b9010000000000000000000000000000000000000000000000000000000000000000000000000000000000000000000000000000000000000000000000000000000000000000000000000000000000000000000000000000000000000000000000000000000000000000000000000000000000000000000000000000000000000000000000000000000000000000000000000000000000000000000000000000000000000000000000000000000000000000000000000000000000000000000000000000000000000000000000000000000000000000000000000000000000000000000000000000000000000000000000000000000000000000000000000000000000830200008083989680808203b642a056e81f171bcc55a6ff8345e692c0f86e5b48e01b996cadc001622fb5e363b421880102030405060708c0c0",
        "lastblockhash" : "0xa93001dc6efd39d3fdaaddd24f85fa860c43a69d37ed4bc59dc2ac182f7a263e",
        "network" : "Frontier",
        "postState" : {
            "0x2adc25665018aa1fe0e6bc666dac8fc2697ff9ba" : {
                "balance" : "0x4563918244f45fa4",
                "code" : "",
                "nonce" : "0x00",
                "storage" : {
                }
            },
            "0xa94f5374fce5edbc8e2a8697c15331677e6ebf0b" : {
                "balance" : "0xe8d4a4b052",
                "code" : "",
                "nonce" : "0x01",
                "storage" : {
                }
            },
            "0xc94f5374fce5edbc8e2a8697c15331677e6ebf0b" : {
                "balance" : "0x00",
                "code" : "0x600c600155",
                "nonce" : "0x00",
                "storage" : {
                    "0x01" : "0x0c"
                }
            },
            "0xd94f5374fce5edbc8e2a8697c15331677e6ebf0b" : {
                "balance" : "0x0a",
                "code" : "0x600c600155",
                "nonce" : "0x00",
                "storage" : {
                }
            }
        },
        "pre" : {
            "0xa94f5374fce5edbc8e2a8697c15331677e6ebf0b" : {
                "balance" : "0xe8d4a51000",
                "code" : "",
                "nonce" : "0x00",
                "storage" : {
                }
            },
            "0xc94f5374fce5edbc8e2a8697c15331677e6ebf0b" : {
                "balance" : "0x00",
                "code" : "0x600c600155",
                "nonce" : "0x00",
                "storage" : {
                }
            },
            "0xd94f5374fce5edbc8e2a8697c15331677e6ebf0b" : {
                "balance" : "0x00",
                "code" : "0x600c600155",
                "nonce" : "0x00",
                "storage" : {
                }
            }
        }
    },
    "CREATE_ContractSuicideDuringInit_ThenStoreThenReturn_d0g0v0_Homestead" : {
        "_info" : {
            "comment" : "",
            "filledwith" : "cpp-1.3.0+commit.ab4ca6d1.Linux.g++",
            "lllcversion" : "Version: 0.4.20-develop.2018.1.8+commit.2548228b.Linux.g++",
            "source" : "src/BlockchainTestsFiller/GeneralStateTests/stCreateTest/CREATE_ContractSuicideDuringInit_ThenStoreThenReturn_d0g0v0Filler.json",
            "sourceHash" : "c765d63ebf3761533c430c2f7c0b2eb6f364aefde330832bf96f83c1e2ddb1a8"
        },
        "blocks" : [
            {
                "blockHeader" : {
                    "bloom" : "0x00000000000000000000000000000000000000000000000000000000000000000000000000000000000000000000000000000000000000000000000000000000000000000000000000000000000000000000000000000000000000000000000000000000000000000000000000000000000000000000000000000000000000000000000000000000000000000000000000000000000000000000000000000000000000000000000000000000000000000000000000000000000000000000000000000000000000000000000000000000000000000000000000000000000000000000000000000000000000000000000000000000000000000000000000000000",
                    "coinbase" : "0x2adc25665018aa1fe0e6bc666dac8fc2697ff9ba",
                    "difficulty" : "0x020000",
                    "extraData" : "",
                    "gasLimit" : "0x989680",
                    "gasUsed" : "0xdca4",
                    "hash" : "0xdc4972445ae20be75230206bb6906190ea4695a5ed55c88fcdb2cc58c2170f1f",
                    "mixHash" : "0x6c41591bcd0d49c36ae1be38d00f8ca31d7735ba186fcce9c097952eaf5d62c4",
                    "nonce" : "0x18984634fba695df",
                    "number" : "0x01",
                    "parentHash" : "0x22a3b256c62ab978461b83e260348b98dd19879f5943cd14956b0198a6f929c4",
                    "receiptTrie" : "0x39dc9e13cb6dc1cc5ef43b3ca06339d20a7e3588198f5810d2027c0f7d3ccb68",
                    "stateRoot" : "0x287ba24ca840fc1b041f51d6e5da7e8bd98c5ae007ee2871dc16fea155964ec6",
                    "timestamp" : "0x03e8",
                    "transactionsTrie" : "0x0c2861c7c773367058155fd48db84f221aa6019726912e2cf21d2958bd6636be",
                    "uncleHash" : "0x1dcc4de8dec75d7aab85b567b6ccd41ad312451b948a7413f0a142fd40d49347"
                },
                "rlp" : "0xf902c6f901f7a022a3b256c62ab978461b83e260348b98dd19879f5943cd14956b0198a6f929c4a01dcc4de8dec75d7aab85b567b6ccd41ad312451b948a7413f0a142fd40d49347942adc25665018aa1fe0e6bc666dac8fc2697ff9baa0287ba24ca840fc1b041f51d6e5da7e8bd98c5ae007ee2871dc16fea155964ec6a00c2861c7c773367058155fd48db84f221aa6019726912e2cf21d2958bd6636bea039dc9e13cb6dc1cc5ef43b3ca06339d20a7e3588198f5810d2027c0f7d3ccb68b901000000000000000000000000000000000000000000000000000000000000000000000000000000000000000000000000000000000000000000000000000000000000000000000000000000000000000000000000000000000000000000000000000000000000000000000000000000000000000000000000000000000000000000000000000000000000000000000000000000000000000000000000000000000000000000000000000000000000000000000000000000000000000000000000000000000000000000000000000000000000000000000000000000000000000000000000000000000000000000000000000000000000000000000000000000000083020000018398968082dca48203e880a06c41591bcd0d49c36ae1be38d00f8ca31d7735ba186fcce9c097952eaf5d62c48818984634fba695dff8c9f8c78001830927c0800ab87a6000600060006000600073c94f5374fce5edbc8e2a8697c15331677e6ebf0b61ea60f1506d64600c6000556000526005601bf360005273d94f5374fce5edbc8e2a8697c15331677e6ebf0bff6000600060006000600073d94f5374fce5edbc8e2a8697c15331677e6ebf0b61ea60f150600b600055600e6012f31ca054ca77a931f3b3592a33cc63442109a96241e2800362bd35628bd33e8442616fa0097b0eb289b78a9e8f96cc29ec18e79785f4ba70c62b2443208714429d5bba9bc0",
                "transactions" : [
                    {
                        "data" : "0x6000600060006000600073c94f5374fce5edbc8e2a8697c15331677e6ebf0b61ea60f1506d64600c6000556000526005601bf360005273d94f5374fce5edbc8e2a8697c15331677e6ebf0bff6000600060006000600073d94f5374fce5edbc8e2a8697c15331677e6ebf0b61ea60f150600b600055600e6012f3",
                        "gasLimit" : "0x0927c0",
                        "gasPrice" : "0x01",
                        "nonce" : "0x00",
                        "r" : "0x54ca77a931f3b3592a33cc63442109a96241e2800362bd35628bd33e8442616f",
                        "s" : "0x097b0eb289b78a9e8f96cc29ec18e79785f4ba70c62b2443208714429d5bba9b",
                        "to" : "",
                        "v" : "0x1c",
                        "value" : "0x0a"
                    }
                ],
                "uncleHeaders" : [
                ]
            }
        ],
        "genesisBlockHeader" : {
            "bloom" : "0x00000000000000000000000000000000000000000000000000000000000000000000000000000000000000000000000000000000000000000000000000000000000000000000000000000000000000000000000000000000000000000000000000000000000000000000000000000000000000000000000000000000000000000000000000000000000000000000000000000000000000000000000000000000000000000000000000000000000000000000000000000000000000000000000000000000000000000000000000000000000000000000000000000000000000000000000000000000000000000000000000000000000000000000000000000000",
            "coinbase" : "0x2adc25665018aa1fe0e6bc666dac8fc2697ff9ba",
            "difficulty" : "0x020000",
            "extraData" : "0x42",
            "gasLimit" : "0x989680",
            "gasUsed" : "0x00",
            "hash" : "0x22a3b256c62ab978461b83e260348b98dd19879f5943cd14956b0198a6f929c4",
            "mixHash" : "0x56e81f171bcc55a6ff8345e692c0f86e5b48e01b996cadc001622fb5e363b421",
            "nonce" : "0x0102030405060708",
            "number" : "0x00",
            "parentHash" : "0x0000000000000000000000000000000000000000000000000000000000000000",
            "receiptTrie" : "0x56e81f171bcc55a6ff8345e692c0f86e5b48e01b996cadc001622fb5e363b421",
            "stateRoot" : "0xa05d4be4210f29ee0297a4efe2428d8453ab907d765aea475519e92aec33a073",
            "timestamp" : "0x03b6",
            "transactionsTrie" : "0x56e81f171bcc55a6ff8345e692c0f86e5b48e01b996cadc001622fb5e363b421",
            "uncleHash" : "0x1dcc4de8dec75d7aab85b567b6ccd41ad312451b948a7413f0a142fd40d49347"
        },
        "genesisRLP" : "0xf901faf901f5a00000000000000000000000000000000000000000000000000000000000000000a01dcc4de8dec75d7aab85b567b6ccd41ad312451b948a7413f0a142fd40d49347942adc25665018aa1fe0e6bc666dac8fc2697ff9baa0a05d4be4210f29ee0297a4efe2428d8453ab907d765aea475519e92aec33a073a056e81f171bcc55a6ff8345e692c0f86e5b48e01b996cadc001622fb5e363b421a056e81f171bcc55a6ff8345e692c0f86e5b48e01b996cadc001622fb5e363b421b9010000000000000000000000000000000000000000000000000000000000000000000000000000000000000000000000000000000000000000000000000000000000000000000000000000000000000000000000000000000000000000000000000000000000000000000000000000000000000000000000000000000000000000000000000000000000000000000000000000000000000000000000000000000000000000000000000000000000000000000000000000000000000000000000000000000000000000000000000000000000000000000000000000000000000000000000000000000000000000000000000000000000000000000000000000000000830200008083989680808203b642a056e81f171bcc55a6ff8345e692c0f86e5b48e01b996cadc001622fb5e363b421880102030405060708c0c0",
        "lastblockhash" : "0xdc4972445ae20be75230206bb6906190ea4695a5ed55c88fcdb2cc58c2170f1f",
        "network" : "Homestead",
        "postState" : {
            "0x2adc25665018aa1fe0e6bc666dac8fc2697ff9ba" : {
                "balance" : "0x4563918244f4dca4",
                "code" : "",
                "nonce" : "0x00",
                "storage" : {
                }
            },
            "0xa94f5374fce5edbc8e2a8697c15331677e6ebf0b" : {
                "balance" : "0xe8d4a43352",
                "code" : "",
                "nonce" : "0x01",
                "storage" : {
                }
            },
            "0xc94f5374fce5edbc8e2a8697c15331677e6ebf0b" : {
                "balance" : "0x00",
                "code" : "0x600c600155",
                "nonce" : "0x00",
                "storage" : {
                    "0x01" : "0x0c"
                }
            },
            "0xd94f5374fce5edbc8e2a8697c15331677e6ebf0b" : {
                "balance" : "0x0a",
                "code" : "0x600c600155",
                "nonce" : "0x00",
                "storage" : {
                }
            }
        },
        "pre" : {
            "0xa94f5374fce5edbc8e2a8697c15331677e6ebf0b" : {
                "balance" : "0xe8d4a51000",
                "code" : "",
                "nonce" : "0x00",
                "storage" : {
                }
            },
            "0xc94f5374fce5edbc8e2a8697c15331677e6ebf0b" : {
                "balance" : "0x00",
                "code" : "0x600c600155",
                "nonce" : "0x00",
                "storage" : {
                }
            },
            "0xd94f5374fce5edbc8e2a8697c15331677e6ebf0b" : {
                "balance" : "0x00",
                "code" : "0x600c600155",
                "nonce" : "0x00",
                "storage" : {
                }
            }
        }
    }
}