{
    "TransactionCollisionToEmptyButNonce_d0g0v1_Byzantium" : {
        "_info" : {
            "comment" : "",
            "filledwith" : "cpp-1.3.0+commit.39f97e9f.Linux.g++",
            "lllcversion" : "Version: 0.4.12-develop.2017.6.9+commit.598e289a.mod.Linux.g++",
            "source" : "src/GenStateTestAsBcTemp/stCreateTest/TransactionCollisionToEmptyButNonce_d0g0v1Filler.json"
        },
        "blocks" : [
            {
                "blockHeader" : {
                    "bloom" : "0x00000000000000000000000000000000000000000000000000000000000000000000000000000000000000000000000000000000000000000000000000000000000000000000000000000000000000000000000000000000000000000000000000000000000000000000000000000000000000000000000000000000000000000000000000000000000000000000000000000000000000000000000000000000000000000000000000000000000000000000000000000000000000000000000000000000000000000000000000000000000000000000000000000000000000000000000000000000000000000000000000000000000000000000000000000000",
                    "coinbase" : "0x2adc25665018aa1fe0e6bc666dac8fc2697ff9ba",
                    "difficulty" : "0x020000",
                    "extraData" : "",
                    "gasLimit" : "0x989680",
                    "gasUsed" : "0x0927c0",
                    "hash" : "0x3dca7002688739e03f2432f5305b0351cd533e90303283d50286e0a6d193e319",
                    "mixHash" : "0xdd722710d1470de686d12d2cb717ddca7a25e868adbf92374f76ac1691d376be",
                    "nonce" : "0xa47fba5e7bba3a8e",
                    "number" : "0x01",
                    "parentHash" : "0x956926515400edf7d589e37a9ad23e428626f9573f1ff4e6bf20ccb3b7712604",
                    "receiptTrie" : "0x498b3877860df644cfd4fcc2e12bc89f717e8618d276fe033ca9152312997215",
                    "stateRoot" : "0x010e36ab1f41decd7d79f63fdce732b84c6cb774bbd024be0febd8e2e2832ae9",
                    "timestamp" : "0x03e8",
                    "transactionsTrie" : "0x301d47c121a1aa010b52e8bc365101e2ff381ace8d24e528e6463ce3a16e35f5",
                    "uncleHash" : "0x1dcc4de8dec75d7aab85b567b6ccd41ad312451b948a7413f0a142fd40d49347"
                },
                "rlp" : "0xf90251f901f8a0956926515400edf7d589e37a9ad23e428626f9573f1ff4e6bf20ccb3b7712604a01dcc4de8dec75d7aab85b567b6ccd41ad312451b948a7413f0a142fd40d49347942adc25665018aa1fe0e6bc666dac8fc2697ff9baa0010e36ab1f41decd7d79f63fdce732b84c6cb774bbd024be0febd8e2e2832ae9a0301d47c121a1aa010b52e8bc365101e2ff381ace8d24e528e6463ce3a16e35f5a0498b3877860df644cfd4fcc2e12bc89f717e8618d276fe033ca9152312997215b9010000000000000000000000000000000000000000000000000000000000000000000000000000000000000000000000000000000000000000000000000000000000000000000000000000000000000000000000000000000000000000000000000000000000000000000000000000000000000000000000000000000000000000000000000000000000000000000000000000000000000000000000000000000000000000000000000000000000000000000000000000000000000000000000000000000000000000000000000000000000000000000000000000000000000000000000000000000000000000000000000000000000000000000000000000000000830200000183989680830927c08203e880a0dd722710d1470de686d12d2cb717ddca7a25e868adbf92374f76ac1691d376be88a47fba5e7bba3a8ef853f8518001830927c080018560016001551ba0669bf7108a35b2babdd8d02a2203a0d25bd67f1b8c7c19d5c3ab8eef82b8d8caa0720ffffc96a534ba62bde72c067225ebf8b31fa4ca557feaa557c7d689113a20c0",
                "transactions" : [
                    {
                        "data" : "0x6001600155",
                        "gasLimit" : "0x0927c0",
                        "gasPrice" : "0x01",
                        "nonce" : "0x00",
                        "r" : "0x669bf7108a35b2babdd8d02a2203a0d25bd67f1b8c7c19d5c3ab8eef82b8d8ca",
                        "s" : "0x720ffffc96a534ba62bde72c067225ebf8b31fa4ca557feaa557c7d689113a20",
                        "to" : "",
                        "v" : "0x1b",
                        "value" : "0x01"
                    }
                ],
                "uncleHeaders" : [
                ]
            }
        ],
        "genesisBlockHeader" : {
            "bloom" : "0x00000000000000000000000000000000000000000000000000000000000000000000000000000000000000000000000000000000000000000000000000000000000000000000000000000000000000000000000000000000000000000000000000000000000000000000000000000000000000000000000000000000000000000000000000000000000000000000000000000000000000000000000000000000000000000000000000000000000000000000000000000000000000000000000000000000000000000000000000000000000000000000000000000000000000000000000000000000000000000000000000000000000000000000000000000000",
            "coinbase" : "0x2adc25665018aa1fe0e6bc666dac8fc2697ff9ba",
            "difficulty" : "0x020000",
            "extraData" : "0x42",
            "gasLimit" : "0x989680",
            "gasUsed" : "0x00",
            "hash" : "0x956926515400edf7d589e37a9ad23e428626f9573f1ff4e6bf20ccb3b7712604",
            "mixHash" : "0x56e81f171bcc55a6ff8345e692c0f86e5b48e01b996cadc001622fb5e363b421",
            "nonce" : "0x0102030405060708",
            "number" : "0x00",
            "parentHash" : "0x0000000000000000000000000000000000000000000000000000000000000000",
            "receiptTrie" : "0x56e81f171bcc55a6ff8345e692c0f86e5b48e01b996cadc001622fb5e363b421",
            "stateRoot" : "0x2ba54e1f096f181cbd01a69dc23f4b60c53d41838ed962a5bacd1e9f0a8522b8",
            "timestamp" : "0x03b6",
            "transactionsTrie" : "0x56e81f171bcc55a6ff8345e692c0f86e5b48e01b996cadc001622fb5e363b421",
            "uncleHash" : "0x1dcc4de8dec75d7aab85b567b6ccd41ad312451b948a7413f0a142fd40d49347"
        },
        "genesisRLP" : "0xf901faf901f5a00000000000000000000000000000000000000000000000000000000000000000a01dcc4de8dec75d7aab85b567b6ccd41ad312451b948a7413f0a142fd40d49347942adc25665018aa1fe0e6bc666dac8fc2697ff9baa02ba54e1f096f181cbd01a69dc23f4b60c53d41838ed962a5bacd1e9f0a8522b8a056e81f171bcc55a6ff8345e692c0f86e5b48e01b996cadc001622fb5e363b421a056e81f171bcc55a6ff8345e692c0f86e5b48e01b996cadc001622fb5e363b421b9010000000000000000000000000000000000000000000000000000000000000000000000000000000000000000000000000000000000000000000000000000000000000000000000000000000000000000000000000000000000000000000000000000000000000000000000000000000000000000000000000000000000000000000000000000000000000000000000000000000000000000000000000000000000000000000000000000000000000000000000000000000000000000000000000000000000000000000000000000000000000000000000000000000000000000000000000000000000000000000000000000000000000000000000000000000000830200008083989680808203b642a056e81f171bcc55a6ff8345e692c0f86e5b48e01b996cadc001622fb5e363b421880102030405060708c0c0",
        "lastblockhash" : "0x3dca7002688739e03f2432f5305b0351cd533e90303283d50286e0a6d193e319",
        "network" : "Byzantium",
        "postState" : {
            "0x2adc25665018aa1fe0e6bc666dac8fc2697ff9ba" : {
                "balance" : "0x29a2241af63527c0",
                "code" : "",
                "nonce" : "0x00",
                "storage" : {
                }
            },
            "0x6295ee1b4f6dd65047762f924ecd367c17eabf8f" : {
                "balance" : "0x00",
                "code" : "",
                "nonce" : "0x01",
                "storage" : {
                }
            },
            "0xa94f5374fce5edbc8e2a8697c15331677e6ebf0b" : {
                "balance" : "0xe8d49be840",
                "code" : "",
                "nonce" : "0x01",
                "storage" : {
                }
            }
        },
        "pre" : {
            "0x6295ee1b4f6dd65047762f924ecd367c17eabf8f" : {
                "balance" : "0x00",
                "code" : "",
                "nonce" : "0x01",
                "storage" : {
                }
            },
            "0xa94f5374fce5edbc8e2a8697c15331677e6ebf0b" : {
                "balance" : "0xe8d4a51000",
                "code" : "",
                "nonce" : "0x00",
                "storage" : {
                }
            }
        }
    },
    "TransactionCollisionToEmptyButNonce_d0g0v1_Constantinople" : {
        "_info" : {
            "comment" : "",
            "filledwith" : "cpp-1.3.0+commit.39f97e9f.Linux.g++",
            "lllcversion" : "Version: 0.4.12-develop.2017.6.9+commit.598e289a.mod.Linux.g++",
            "source" : "src/GenStateTestAsBcTemp/stCreateTest/TransactionCollisionToEmptyButNonce_d0g0v1Filler.json"
        },
        "blocks" : [
            {
                "blockHeader" : {
                    "bloom" : "0x00000000000000000000000000000000000000000000000000000000000000000000000000000000000000000000000000000000000000000000000000000000000000000000000000000000000000000000000000000000000000000000000000000000000000000000000000000000000000000000000000000000000000000000000000000000000000000000000000000000000000000000000000000000000000000000000000000000000000000000000000000000000000000000000000000000000000000000000000000000000000000000000000000000000000000000000000000000000000000000000000000000000000000000000000000000",
                    "coinbase" : "0x2adc25665018aa1fe0e6bc666dac8fc2697ff9ba",
                    "difficulty" : "0x020000",
                    "extraData" : "",
                    "gasLimit" : "0x989680",
                    "gasUsed" : "0x0927c0",
                    "hash" : "0x05bd552eabf634dbbca8be0bf7c5e6fbbb55be1e6278c40b704eb63932ab40a8",
                    "mixHash" : "0x7b0fe9f84e7db79de3ae532ba46dfa61c1e62c9f504fc3dc58f92dccafeefad3",
                    "nonce" : "0xfcb7bd878801427c",
                    "number" : "0x01",
                    "parentHash" : "0x956926515400edf7d589e37a9ad23e428626f9573f1ff4e6bf20ccb3b7712604",
                    "receiptTrie" : "0x498b3877860df644cfd4fcc2e12bc89f717e8618d276fe033ca9152312997215",
                    "stateRoot" : "0x010e36ab1f41decd7d79f63fdce732b84c6cb774bbd024be0febd8e2e2832ae9",
                    "timestamp" : "0x03e8",
                    "transactionsTrie" : "0x301d47c121a1aa010b52e8bc365101e2ff381ace8d24e528e6463ce3a16e35f5",
                    "uncleHash" : "0x1dcc4de8dec75d7aab85b567b6ccd41ad312451b948a7413f0a142fd40d49347"
                },
                "rlp" : "0xf90251f901f8a0956926515400edf7d589e37a9ad23e428626f9573f1ff4e6bf20ccb3b7712604a01dcc4de8dec75d7aab85b567b6ccd41ad312451b948a7413f0a142fd40d49347942adc25665018aa1fe0e6bc666dac8fc2697ff9baa0010e36ab1f41decd7d79f63fdce732b84c6cb774bbd024be0febd8e2e2832ae9a0301d47c121a1aa010b52e8bc365101e2ff381ace8d24e528e6463ce3a16e35f5a0498b3877860df644cfd4fcc2e12bc89f717e8618d276fe033ca9152312997215b9010000000000000000000000000000000000000000000000000000000000000000000000000000000000000000000000000000000000000000000000000000000000000000000000000000000000000000000000000000000000000000000000000000000000000000000000000000000000000000000000000000000000000000000000000000000000000000000000000000000000000000000000000000000000000000000000000000000000000000000000000000000000000000000000000000000000000000000000000000000000000000000000000000000000000000000000000000000000000000000000000000000000000000000000000000000000830200000183989680830927c08203e880a07b0fe9f84e7db79de3ae532ba46dfa61c1e62c9f504fc3dc58f92dccafeefad388fcb7bd878801427cf853f8518001830927c080018560016001551ba0669bf7108a35b2babdd8d02a2203a0d25bd67f1b8c7c19d5c3ab8eef82b8d8caa0720ffffc96a534ba62bde72c067225ebf8b31fa4ca557feaa557c7d689113a20c0",
                "transactions" : [
                    {
                        "data" : "0x6001600155",
                        "gasLimit" : "0x0927c0",
                        "gasPrice" : "0x01",
                        "nonce" : "0x00",
                        "r" : "0x669bf7108a35b2babdd8d02a2203a0d25bd67f1b8c7c19d5c3ab8eef82b8d8ca",
                        "s" : "0x720ffffc96a534ba62bde72c067225ebf8b31fa4ca557feaa557c7d689113a20",
                        "to" : "",
                        "v" : "0x1b",
                        "value" : "0x01"
                    }
                ],
                "uncleHeaders" : [
                ]
            }
        ],
        "genesisBlockHeader" : {
            "bloom" : "0x00000000000000000000000000000000000000000000000000000000000000000000000000000000000000000000000000000000000000000000000000000000000000000000000000000000000000000000000000000000000000000000000000000000000000000000000000000000000000000000000000000000000000000000000000000000000000000000000000000000000000000000000000000000000000000000000000000000000000000000000000000000000000000000000000000000000000000000000000000000000000000000000000000000000000000000000000000000000000000000000000000000000000000000000000000000",
            "coinbase" : "0x2adc25665018aa1fe0e6bc666dac8fc2697ff9ba",
            "difficulty" : "0x020000",
            "extraData" : "0x42",
            "gasLimit" : "0x989680",
            "gasUsed" : "0x00",
            "hash" : "0x956926515400edf7d589e37a9ad23e428626f9573f1ff4e6bf20ccb3b7712604",
            "mixHash" : "0x56e81f171bcc55a6ff8345e692c0f86e5b48e01b996cadc001622fb5e363b421",
            "nonce" : "0x0102030405060708",
            "number" : "0x00",
            "parentHash" : "0x0000000000000000000000000000000000000000000000000000000000000000",
            "receiptTrie" : "0x56e81f171bcc55a6ff8345e692c0f86e5b48e01b996cadc001622fb5e363b421",
            "stateRoot" : "0x2ba54e1f096f181cbd01a69dc23f4b60c53d41838ed962a5bacd1e9f0a8522b8",
            "timestamp" : "0x03b6",
            "transactionsTrie" : "0x56e81f171bcc55a6ff8345e692c0f86e5b48e01b996cadc001622fb5e363b421",
            "uncleHash" : "0x1dcc4de8dec75d7aab85b567b6ccd41ad312451b948a7413f0a142fd40d49347"
        },
        "genesisRLP" : "0xf901faf901f5a00000000000000000000000000000000000000000000000000000000000000000a01dcc4de8dec75d7aab85b567b6ccd41ad312451b948a7413f0a142fd40d49347942adc25665018aa1fe0e6bc666dac8fc2697ff9baa02ba54e1f096f181cbd01a69dc23f4b60c53d41838ed962a5bacd1e9f0a8522b8a056e81f171bcc55a6ff8345e692c0f86e5b48e01b996cadc001622fb5e363b421a056e81f171bcc55a6ff8345e692c0f86e5b48e01b996cadc001622fb5e363b421b9010000000000000000000000000000000000000000000000000000000000000000000000000000000000000000000000000000000000000000000000000000000000000000000000000000000000000000000000000000000000000000000000000000000000000000000000000000000000000000000000000000000000000000000000000000000000000000000000000000000000000000000000000000000000000000000000000000000000000000000000000000000000000000000000000000000000000000000000000000000000000000000000000000000000000000000000000000000000000000000000000000000000000000000000000000000000830200008083989680808203b642a056e81f171bcc55a6ff8345e692c0f86e5b48e01b996cadc001622fb5e363b421880102030405060708c0c0",
        "lastblockhash" : "0x05bd552eabf634dbbca8be0bf7c5e6fbbb55be1e6278c40b704eb63932ab40a8",
        "network" : "Constantinople",
        "postState" : {
            "0x2adc25665018aa1fe0e6bc666dac8fc2697ff9ba" : {
                "balance" : "0x29a2241af63527c0",
                "code" : "",
                "nonce" : "0x00",
                "storage" : {
                }
            },
            "0x6295ee1b4f6dd65047762f924ecd367c17eabf8f" : {
                "balance" : "0x00",
                "code" : "",
                "nonce" : "0x01",
                "storage" : {
                }
            },
            "0xa94f5374fce5edbc8e2a8697c15331677e6ebf0b" : {
                "balance" : "0xe8d49be840",
                "code" : "",
                "nonce" : "0x01",
                "storage" : {
                }
            }
        },
        "pre" : {
            "0x6295ee1b4f6dd65047762f924ecd367c17eabf8f" : {
                "balance" : "0x00",
                "code" : "",
                "nonce" : "0x01",
                "storage" : {
                }
            },
            "0xa94f5374fce5edbc8e2a8697c15331677e6ebf0b" : {
                "balance" : "0xe8d4a51000",
                "code" : "",
                "nonce" : "0x00",
                "storage" : {
                }
            }
        }
    },
    "TransactionCollisionToEmptyButNonce_d0g0v1_EIP150" : {
        "_info" : {
            "comment" : "",
            "filledwith" : "cpp-1.3.0+commit.39f97e9f.Linux.g++",
            "lllcversion" : "Version: 0.4.12-develop.2017.6.9+commit.598e289a.mod.Linux.g++",
            "source" : "src/GenStateTestAsBcTemp/stCreateTest/TransactionCollisionToEmptyButNonce_d0g0v1Filler.json"
        },
        "blocks" : [
            {
                "blockHeader" : {
                    "bloom" : "0x00000000000000000000000000000000000000000000000000000000000000000000000000000000000000000000000000000000000000000000000000000000000000000000000000000000000000000000000000000000000000000000000000000000000000000000000000000000000000000000000000000000000000000000000000000000000000000000000000000000000000000000000000000000000000000000000000000000000000000000000000000000000000000000000000000000000000000000000000000000000000000000000000000000000000000000000000000000000000000000000000000000000000000000000000000000",
                    "coinbase" : "0x2adc25665018aa1fe0e6bc666dac8fc2697ff9ba",
                    "difficulty" : "0x020000",
                    "extraData" : "",
                    "gasLimit" : "0x989680",
                    "gasUsed" : "0x0927c0",
                    "hash" : "0xbc2478ffdc544fbd2d79530f75f33fa58bd9d421852685fb96e8152ad7223016",
                    "mixHash" : "0x1e065862fbe9b1705c0042bf21ae3152b562ba4dfc184d7dea8113257f4f9b25",
                    "nonce" : "0xcc9879ff655cfc3e",
                    "number" : "0x01",
                    "parentHash" : "0x956926515400edf7d589e37a9ad23e428626f9573f1ff4e6bf20ccb3b7712604",
                    "receiptTrie" : "0x4602c8c524f3e9d7bc5127c07e40fc1e21e349a8420b4c02bd5087bd3be1964f",
                    "stateRoot" : "0x19adf6136adcba1005dcbdb24f6e6db2fbb4f1ec9a0979d1a381b6d89768025c",
                    "timestamp" : "0x03e8",
                    "transactionsTrie" : "0x301d47c121a1aa010b52e8bc365101e2ff381ace8d24e528e6463ce3a16e35f5",
                    "uncleHash" : "0x1dcc4de8dec75d7aab85b567b6ccd41ad312451b948a7413f0a142fd40d49347"
                },
                "rlp" : "0xf90251f901f8a0956926515400edf7d589e37a9ad23e428626f9573f1ff4e6bf20ccb3b7712604a01dcc4de8dec75d7aab85b567b6ccd41ad312451b948a7413f0a142fd40d49347942adc25665018aa1fe0e6bc666dac8fc2697ff9baa019adf6136adcba1005dcbdb24f6e6db2fbb4f1ec9a0979d1a381b6d89768025ca0301d47c121a1aa010b52e8bc365101e2ff381ace8d24e528e6463ce3a16e35f5a04602c8c524f3e9d7bc5127c07e40fc1e21e349a8420b4c02bd5087bd3be1964fb9010000000000000000000000000000000000000000000000000000000000000000000000000000000000000000000000000000000000000000000000000000000000000000000000000000000000000000000000000000000000000000000000000000000000000000000000000000000000000000000000000000000000000000000000000000000000000000000000000000000000000000000000000000000000000000000000000000000000000000000000000000000000000000000000000000000000000000000000000000000000000000000000000000000000000000000000000000000000000000000000000000000000000000000000000000000000830200000183989680830927c08203e880a01e065862fbe9b1705c0042bf21ae3152b562ba4dfc184d7dea8113257f4f9b2588cc9879ff655cfc3ef853f8518001830927c080018560016001551ba0669bf7108a35b2babdd8d02a2203a0d25bd67f1b8c7c19d5c3ab8eef82b8d8caa0720ffffc96a534ba62bde72c067225ebf8b31fa4ca557feaa557c7d689113a20c0",
                "transactions" : [
                    {
                        "data" : "0x6001600155",
                        "gasLimit" : "0x0927c0",
                        "gasPrice" : "0x01",
                        "nonce" : "0x00",
                        "r" : "0x669bf7108a35b2babdd8d02a2203a0d25bd67f1b8c7c19d5c3ab8eef82b8d8ca",
                        "s" : "0x720ffffc96a534ba62bde72c067225ebf8b31fa4ca557feaa557c7d689113a20",
                        "to" : "",
                        "v" : "0x1b",
                        "value" : "0x01"
                    }
                ],
                "uncleHeaders" : [
                ]
            }
        ],
        "genesisBlockHeader" : {
            "bloom" : "0x00000000000000000000000000000000000000000000000000000000000000000000000000000000000000000000000000000000000000000000000000000000000000000000000000000000000000000000000000000000000000000000000000000000000000000000000000000000000000000000000000000000000000000000000000000000000000000000000000000000000000000000000000000000000000000000000000000000000000000000000000000000000000000000000000000000000000000000000000000000000000000000000000000000000000000000000000000000000000000000000000000000000000000000000000000000",
            "coinbase" : "0x2adc25665018aa1fe0e6bc666dac8fc2697ff9ba",
            "difficulty" : "0x020000",
            "extraData" : "0x42",
            "gasLimit" : "0x989680",
            "gasUsed" : "0x00",
            "hash" : "0x956926515400edf7d589e37a9ad23e428626f9573f1ff4e6bf20ccb3b7712604",
            "mixHash" : "0x56e81f171bcc55a6ff8345e692c0f86e5b48e01b996cadc001622fb5e363b421",
            "nonce" : "0x0102030405060708",
            "number" : "0x00",
            "parentHash" : "0x0000000000000000000000000000000000000000000000000000000000000000",
            "receiptTrie" : "0x56e81f171bcc55a6ff8345e692c0f86e5b48e01b996cadc001622fb5e363b421",
            "stateRoot" : "0x2ba54e1f096f181cbd01a69dc23f4b60c53d41838ed962a5bacd1e9f0a8522b8",
            "timestamp" : "0x03b6",
            "transactionsTrie" : "0x56e81f171bcc55a6ff8345e692c0f86e5b48e01b996cadc001622fb5e363b421",
            "uncleHash" : "0x1dcc4de8dec75d7aab85b567b6ccd41ad312451b948a7413f0a142fd40d49347"
        },
        "genesisRLP" : "0xf901faf901f5a00000000000000000000000000000000000000000000000000000000000000000a01dcc4de8dec75d7aab85b567b6ccd41ad312451b948a7413f0a142fd40d49347942adc25665018aa1fe0e6bc666dac8fc2697ff9baa02ba54e1f096f181cbd01a69dc23f4b60c53d41838ed962a5bacd1e9f0a8522b8a056e81f171bcc55a6ff8345e692c0f86e5b48e01b996cadc001622fb5e363b421a056e81f171bcc55a6ff8345e692c0f86e5b48e01b996cadc001622fb5e363b421b9010000000000000000000000000000000000000000000000000000000000000000000000000000000000000000000000000000000000000000000000000000000000000000000000000000000000000000000000000000000000000000000000000000000000000000000000000000000000000000000000000000000000000000000000000000000000000000000000000000000000000000000000000000000000000000000000000000000000000000000000000000000000000000000000000000000000000000000000000000000000000000000000000000000000000000000000000000000000000000000000000000000000000000000000000000000000830200008083989680808203b642a056e81f171bcc55a6ff8345e692c0f86e5b48e01b996cadc001622fb5e363b421880102030405060708c0c0",
        "lastblockhash" : "0xbc2478ffdc544fbd2d79530f75f33fa58bd9d421852685fb96e8152ad7223016",
        "network" : "EIP150",
        "postState" : {
            "0x2adc25665018aa1fe0e6bc666dac8fc2697ff9ba" : {
                "balance" : "0x4563918244fd27c0",
                "code" : "",
                "nonce" : "0x00",
                "storage" : {
                }
            },
            "0x6295ee1b4f6dd65047762f924ecd367c17eabf8f" : {
                "balance" : "0x00",
                "code" : "",
                "nonce" : "0x01",
                "storage" : {
                }
            },
            "0xa94f5374fce5edbc8e2a8697c15331677e6ebf0b" : {
                "balance" : "0xe8d49be840",
                "code" : "",
                "nonce" : "0x01",
                "storage" : {
                }
            }
        },
        "pre" : {
            "0x6295ee1b4f6dd65047762f924ecd367c17eabf8f" : {
                "balance" : "0x00",
                "code" : "",
                "nonce" : "0x01",
                "storage" : {
                }
            },
            "0xa94f5374fce5edbc8e2a8697c15331677e6ebf0b" : {
                "balance" : "0xe8d4a51000",
                "code" : "",
                "nonce" : "0x00",
                "storage" : {
                }
            }
        }
    },
    "TransactionCollisionToEmptyButNonce_d0g0v1_EIP158" : {
        "_info" : {
            "comment" : "",
            "filledwith" : "cpp-1.3.0+commit.39f97e9f.Linux.g++",
            "lllcversion" : "Version: 0.4.12-develop.2017.6.9+commit.598e289a.mod.Linux.g++",
            "source" : "src/GenStateTestAsBcTemp/stCreateTest/TransactionCollisionToEmptyButNonce_d0g0v1Filler.json"
        },
        "blocks" : [
            {
                "blockHeader" : {
                    "bloom" : "0x00000000000000000000000000000000000000000000000000000000000000000000000000000000000000000000000000000000000000000000000000000000000000000000000000000000000000000000000000000000000000000000000000000000000000000000000000000000000000000000000000000000000000000000000000000000000000000000000000000000000000000000000000000000000000000000000000000000000000000000000000000000000000000000000000000000000000000000000000000000000000000000000000000000000000000000000000000000000000000000000000000000000000000000000000000000",
                    "coinbase" : "0x2adc25665018aa1fe0e6bc666dac8fc2697ff9ba",
                    "difficulty" : "0x020000",
                    "extraData" : "",
                    "gasLimit" : "0x989680",
                    "gasUsed" : "0x0927c0",
                    "hash" : "0xcc42234dc67703d3f83f66d57c1d18e8b0850dd2730c0757f6918dd78a4ef933",
                    "mixHash" : "0xf642a401ba5603a487afdb988e42007726ae1e0891d89690b9c6e2c283f5da8b",
                    "nonce" : "0x35eb72e7a29a8e0f",
                    "number" : "0x01",
                    "parentHash" : "0x956926515400edf7d589e37a9ad23e428626f9573f1ff4e6bf20ccb3b7712604",
                    "receiptTrie" : "0x4602c8c524f3e9d7bc5127c07e40fc1e21e349a8420b4c02bd5087bd3be1964f",
                    "stateRoot" : "0x19adf6136adcba1005dcbdb24f6e6db2fbb4f1ec9a0979d1a381b6d89768025c",
                    "timestamp" : "0x03e8",
                    "transactionsTrie" : "0x301d47c121a1aa010b52e8bc365101e2ff381ace8d24e528e6463ce3a16e35f5",
                    "uncleHash" : "0x1dcc4de8dec75d7aab85b567b6ccd41ad312451b948a7413f0a142fd40d49347"
                },
                "rlp" : "0xf90251f901f8a0956926515400edf7d589e37a9ad23e428626f9573f1ff4e6bf20ccb3b7712604a01dcc4de8dec75d7aab85b567b6ccd41ad312451b948a7413f0a142fd40d49347942adc25665018aa1fe0e6bc666dac8fc2697ff9baa019adf6136adcba1005dcbdb24f6e6db2fbb4f1ec9a0979d1a381b6d89768025ca0301d47c121a1aa010b52e8bc365101e2ff381ace8d24e528e6463ce3a16e35f5a04602c8c524f3e9d7bc5127c07e40fc1e21e349a8420b4c02bd5087bd3be1964fb9010000000000000000000000000000000000000000000000000000000000000000000000000000000000000000000000000000000000000000000000000000000000000000000000000000000000000000000000000000000000000000000000000000000000000000000000000000000000000000000000000000000000000000000000000000000000000000000000000000000000000000000000000000000000000000000000000000000000000000000000000000000000000000000000000000000000000000000000000000000000000000000000000000000000000000000000000000000000000000000000000000000000000000000000000000000000830200000183989680830927c08203e880a0f642a401ba5603a487afdb988e42007726ae1e0891d89690b9c6e2c283f5da8b8835eb72e7a29a8e0ff853f8518001830927c080018560016001551ba0669bf7108a35b2babdd8d02a2203a0d25bd67f1b8c7c19d5c3ab8eef82b8d8caa0720ffffc96a534ba62bde72c067225ebf8b31fa4ca557feaa557c7d689113a20c0",
                "transactions" : [
                    {
                        "data" : "0x6001600155",
                        "gasLimit" : "0x0927c0",
                        "gasPrice" : "0x01",
                        "nonce" : "0x00",
                        "r" : "0x669bf7108a35b2babdd8d02a2203a0d25bd67f1b8c7c19d5c3ab8eef82b8d8ca",
                        "s" : "0x720ffffc96a534ba62bde72c067225ebf8b31fa4ca557feaa557c7d689113a20",
                        "to" : "",
                        "v" : "0x1b",
                        "value" : "0x01"
                    }
                ],
                "uncleHeaders" : [
                ]
            }
        ],
        "genesisBlockHeader" : {
            "bloom" : "0x00000000000000000000000000000000000000000000000000000000000000000000000000000000000000000000000000000000000000000000000000000000000000000000000000000000000000000000000000000000000000000000000000000000000000000000000000000000000000000000000000000000000000000000000000000000000000000000000000000000000000000000000000000000000000000000000000000000000000000000000000000000000000000000000000000000000000000000000000000000000000000000000000000000000000000000000000000000000000000000000000000000000000000000000000000000",
            "coinbase" : "0x2adc25665018aa1fe0e6bc666dac8fc2697ff9ba",
            "difficulty" : "0x020000",
            "extraData" : "0x42",
            "gasLimit" : "0x989680",
            "gasUsed" : "0x00",
            "hash" : "0x956926515400edf7d589e37a9ad23e428626f9573f1ff4e6bf20ccb3b7712604",
            "mixHash" : "0x56e81f171bcc55a6ff8345e692c0f86e5b48e01b996cadc001622fb5e363b421",
            "nonce" : "0x0102030405060708",
            "number" : "0x00",
            "parentHash" : "0x0000000000000000000000000000000000000000000000000000000000000000",
            "receiptTrie" : "0x56e81f171bcc55a6ff8345e692c0f86e5b48e01b996cadc001622fb5e363b421",
            "stateRoot" : "0x2ba54e1f096f181cbd01a69dc23f4b60c53d41838ed962a5bacd1e9f0a8522b8",
            "timestamp" : "0x03b6",
            "transactionsTrie" : "0x56e81f171bcc55a6ff8345e692c0f86e5b48e01b996cadc001622fb5e363b421",
            "uncleHash" : "0x1dcc4de8dec75d7aab85b567b6ccd41ad312451b948a7413f0a142fd40d49347"
        },
        "genesisRLP" : "0xf901faf901f5a00000000000000000000000000000000000000000000000000000000000000000a01dcc4de8dec75d7aab85b567b6ccd41ad312451b948a7413f0a142fd40d49347942adc25665018aa1fe0e6bc666dac8fc2697ff9baa02ba54e1f096f181cbd01a69dc23f4b60c53d41838ed962a5bacd1e9f0a8522b8a056e81f171bcc55a6ff8345e692c0f86e5b48e01b996cadc001622fb5e363b421a056e81f171bcc55a6ff8345e692c0f86e5b48e01b996cadc001622fb5e363b421b9010000000000000000000000000000000000000000000000000000000000000000000000000000000000000000000000000000000000000000000000000000000000000000000000000000000000000000000000000000000000000000000000000000000000000000000000000000000000000000000000000000000000000000000000000000000000000000000000000000000000000000000000000000000000000000000000000000000000000000000000000000000000000000000000000000000000000000000000000000000000000000000000000000000000000000000000000000000000000000000000000000000000000000000000000000000000830200008083989680808203b642a056e81f171bcc55a6ff8345e692c0f86e5b48e01b996cadc001622fb5e363b421880102030405060708c0c0",
        "lastblockhash" : "0xcc42234dc67703d3f83f66d57c1d18e8b0850dd2730c0757f6918dd78a4ef933",
        "network" : "EIP158",
        "postState" : {
            "0x2adc25665018aa1fe0e6bc666dac8fc2697ff9ba" : {
                "balance" : "0x4563918244fd27c0",
                "code" : "",
                "nonce" : "0x00",
                "storage" : {
                }
            },
            "0x6295ee1b4f6dd65047762f924ecd367c17eabf8f" : {
                "balance" : "0x00",
                "code" : "",
                "nonce" : "0x01",
                "storage" : {
                }
            },
            "0xa94f5374fce5edbc8e2a8697c15331677e6ebf0b" : {
                "balance" : "0xe8d49be840",
                "code" : "",
                "nonce" : "0x01",
                "storage" : {
                }
            }
        },
        "pre" : {
            "0x6295ee1b4f6dd65047762f924ecd367c17eabf8f" : {
                "balance" : "0x00",
                "code" : "",
                "nonce" : "0x01",
                "storage" : {
                }
            },
            "0xa94f5374fce5edbc8e2a8697c15331677e6ebf0b" : {
                "balance" : "0xe8d4a51000",
                "code" : "",
                "nonce" : "0x00",
                "storage" : {
                }
            }
        }
    },
    "TransactionCollisionToEmptyButNonce_d0g0v1_Frontier" : {
        "_info" : {
            "comment" : "",
            "filledwith" : "cpp-1.3.0+commit.39f97e9f.Linux.g++",
            "lllcversion" : "Version: 0.4.12-develop.2017.6.9+commit.598e289a.mod.Linux.g++",
            "source" : "src/GenStateTestAsBcTemp/stCreateTest/TransactionCollisionToEmptyButNonce_d0g0v1Filler.json"
        },
        "blocks" : [
            {
                "blockHeader" : {
                    "bloom" : "0x00000000000000000000000000000000000000000000000000000000000000000000000000000000000000000000000000000000000000000000000000000000000000000000000000000000000000000000000000000000000000000000000000000000000000000000000000000000000000000000000000000000000000000000000000000000000000000000000000000000000000000000000000000000000000000000000000000000000000000000000000000000000000000000000000000000000000000000000000000000000000000000000000000000000000000000000000000000000000000000000000000000000000000000000000000000",
                    "coinbase" : "0x2adc25665018aa1fe0e6bc666dac8fc2697ff9ba",
                    "difficulty" : "0x020000",
                    "extraData" : "",
                    "gasLimit" : "0x989680",
                    "gasUsed" : "0x0927c0",
                    "hash" : "0xcd3e30d1596c625e73cb2bbd5ce829c2a57bb8a9cdf27967e6de32235e7db654",
                    "mixHash" : "0x08878f2fe72358886edf7621f4646417e542ed4dd62c7add7a07622fd815ff17",
                    "nonce" : "0x5fa2f534d362ce80",
                    "number" : "0x01",
                    "parentHash" : "0x956926515400edf7d589e37a9ad23e428626f9573f1ff4e6bf20ccb3b7712604",
                    "receiptTrie" : "0x4602c8c524f3e9d7bc5127c07e40fc1e21e349a8420b4c02bd5087bd3be1964f",
                    "stateRoot" : "0x19adf6136adcba1005dcbdb24f6e6db2fbb4f1ec9a0979d1a381b6d89768025c",
                    "timestamp" : "0x03e8",
                    "transactionsTrie" : "0x301d47c121a1aa010b52e8bc365101e2ff381ace8d24e528e6463ce3a16e35f5",
                    "uncleHash" : "0x1dcc4de8dec75d7aab85b567b6ccd41ad312451b948a7413f0a142fd40d49347"
                },
                "rlp" : "0xf90251f901f8a0956926515400edf7d589e37a9ad23e428626f9573f1ff4e6bf20ccb3b7712604a01dcc4de8dec75d7aab85b567b6ccd41ad312451b948a7413f0a142fd40d49347942adc25665018aa1fe0e6bc666dac8fc2697ff9baa019adf6136adcba1005dcbdb24f6e6db2fbb4f1ec9a0979d1a381b6d89768025ca0301d47c121a1aa010b52e8bc365101e2ff381ace8d24e528e6463ce3a16e35f5a04602c8c524f3e9d7bc5127c07e40fc1e21e349a8420b4c02bd5087bd3be1964fb9010000000000000000000000000000000000000000000000000000000000000000000000000000000000000000000000000000000000000000000000000000000000000000000000000000000000000000000000000000000000000000000000000000000000000000000000000000000000000000000000000000000000000000000000000000000000000000000000000000000000000000000000000000000000000000000000000000000000000000000000000000000000000000000000000000000000000000000000000000000000000000000000000000000000000000000000000000000000000000000000000000000000000000000000000000000000830200000183989680830927c08203e880a008878f2fe72358886edf7621f4646417e542ed4dd62c7add7a07622fd815ff17885fa2f534d362ce80f853f8518001830927c080018560016001551ba0669bf7108a35b2babdd8d02a2203a0d25bd67f1b8c7c19d5c3ab8eef82b8d8caa0720ffffc96a534ba62bde72c067225ebf8b31fa4ca557feaa557c7d689113a20c0",
                "transactions" : [
                    {
                        "data" : "0x6001600155",
                        "gasLimit" : "0x0927c0",
                        "gasPrice" : "0x01",
                        "nonce" : "0x00",
                        "r" : "0x669bf7108a35b2babdd8d02a2203a0d25bd67f1b8c7c19d5c3ab8eef82b8d8ca",
                        "s" : "0x720ffffc96a534ba62bde72c067225ebf8b31fa4ca557feaa557c7d689113a20",
                        "to" : "",
                        "v" : "0x1b",
                        "value" : "0x01"
                    }
                ],
                "uncleHeaders" : [
                ]
            }
        ],
        "genesisBlockHeader" : {
            "bloom" : "0x00000000000000000000000000000000000000000000000000000000000000000000000000000000000000000000000000000000000000000000000000000000000000000000000000000000000000000000000000000000000000000000000000000000000000000000000000000000000000000000000000000000000000000000000000000000000000000000000000000000000000000000000000000000000000000000000000000000000000000000000000000000000000000000000000000000000000000000000000000000000000000000000000000000000000000000000000000000000000000000000000000000000000000000000000000000",
            "coinbase" : "0x2adc25665018aa1fe0e6bc666dac8fc2697ff9ba",
            "difficulty" : "0x020000",
            "extraData" : "0x42",
            "gasLimit" : "0x989680",
            "gasUsed" : "0x00",
            "hash" : "0x956926515400edf7d589e37a9ad23e428626f9573f1ff4e6bf20ccb3b7712604",
            "mixHash" : "0x56e81f171bcc55a6ff8345e692c0f86e5b48e01b996cadc001622fb5e363b421",
            "nonce" : "0x0102030405060708",
            "number" : "0x00",
            "parentHash" : "0x0000000000000000000000000000000000000000000000000000000000000000",
            "receiptTrie" : "0x56e81f171bcc55a6ff8345e692c0f86e5b48e01b996cadc001622fb5e363b421",
            "stateRoot" : "0x2ba54e1f096f181cbd01a69dc23f4b60c53d41838ed962a5bacd1e9f0a8522b8",
            "timestamp" : "0x03b6",
            "transactionsTrie" : "0x56e81f171bcc55a6ff8345e692c0f86e5b48e01b996cadc001622fb5e363b421",
            "uncleHash" : "0x1dcc4de8dec75d7aab85b567b6ccd41ad312451b948a7413f0a142fd40d49347"
        },
        "genesisRLP" : "0xf901faf901f5a00000000000000000000000000000000000000000000000000000000000000000a01dcc4de8dec75d7aab85b567b6ccd41ad312451b948a7413f0a142fd40d49347942adc25665018aa1fe0e6bc666dac8fc2697ff9baa02ba54e1f096f181cbd01a69dc23f4b60c53d41838ed962a5bacd1e9f0a8522b8a056e81f171bcc55a6ff8345e692c0f86e5b48e01b996cadc001622fb5e363b421a056e81f171bcc55a6ff8345e692c0f86e5b48e01b996cadc001622fb5e363b421b9010000000000000000000000000000000000000000000000000000000000000000000000000000000000000000000000000000000000000000000000000000000000000000000000000000000000000000000000000000000000000000000000000000000000000000000000000000000000000000000000000000000000000000000000000000000000000000000000000000000000000000000000000000000000000000000000000000000000000000000000000000000000000000000000000000000000000000000000000000000000000000000000000000000000000000000000000000000000000000000000000000000000000000000000000000000000830200008083989680808203b642a056e81f171bcc55a6ff8345e692c0f86e5b48e01b996cadc001622fb5e363b421880102030405060708c0c0",
        "lastblockhash" : "0xcd3e30d1596c625e73cb2bbd5ce829c2a57bb8a9cdf27967e6de32235e7db654",
        "network" : "Frontier",
        "postState" : {
            "0x2adc25665018aa1fe0e6bc666dac8fc2697ff9ba" : {
                "balance" : "0x4563918244fd27c0",
                "code" : "",
                "nonce" : "0x00",
                "storage" : {
                }
            },
            "0x6295ee1b4f6dd65047762f924ecd367c17eabf8f" : {
                "balance" : "0x00",
                "code" : "",
                "nonce" : "0x01",
                "storage" : {
                }
            },
            "0xa94f5374fce5edbc8e2a8697c15331677e6ebf0b" : {
                "balance" : "0xe8d49be840",
                "code" : "",
                "nonce" : "0x01",
                "storage" : {
                }
            }
        },
        "pre" : {
            "0x6295ee1b4f6dd65047762f924ecd367c17eabf8f" : {
                "balance" : "0x00",
                "code" : "",
                "nonce" : "0x01",
                "storage" : {
                }
            },
            "0xa94f5374fce5edbc8e2a8697c15331677e6ebf0b" : {
                "balance" : "0xe8d4a51000",
                "code" : "",
                "nonce" : "0x00",
                "storage" : {
                }
            }
        }
    },
    "TransactionCollisionToEmptyButNonce_d0g0v1_Homestead" : {
        "_info" : {
            "comment" : "",
            "filledwith" : "cpp-1.3.0+commit.39f97e9f.Linux.g++",
            "lllcversion" : "Version: 0.4.12-develop.2017.6.9+commit.598e289a.mod.Linux.g++",
            "source" : "src/GenStateTestAsBcTemp/stCreateTest/TransactionCollisionToEmptyButNonce_d0g0v1Filler.json"
        },
        "blocks" : [
            {
                "blockHeader" : {
                    "bloom" : "0x00000000000000000000000000000000000000000000000000000000000000000000000000000000000000000000000000000000000000000000000000000000000000000000000000000000000000000000000000000000000000000000000000000000000000000000000000000000000000000000000000000000000000000000000000000000000000000000000000000000000000000000000000000000000000000000000000000000000000000000000000000000000000000000000000000000000000000000000000000000000000000000000000000000000000000000000000000000000000000000000000000000000000000000000000000000",
                    "coinbase" : "0x2adc25665018aa1fe0e6bc666dac8fc2697ff9ba",
                    "difficulty" : "0x020000",
                    "extraData" : "",
                    "gasLimit" : "0x989680",
                    "gasUsed" : "0x0927c0",
                    "hash" : "0xcc43561a34b8b3e71b06c4ca344f1558792337b35ee3a6d9092d3469f42bb7ab",
                    "mixHash" : "0x276241ab0786938adf7d5beef7880014a9a0e54587d413548bca012a0094e070",
                    "nonce" : "0x8664d1ae1ff46464",
                    "number" : "0x01",
                    "parentHash" : "0x956926515400edf7d589e37a9ad23e428626f9573f1ff4e6bf20ccb3b7712604",
                    "receiptTrie" : "0x4602c8c524f3e9d7bc5127c07e40fc1e21e349a8420b4c02bd5087bd3be1964f",
                    "stateRoot" : "0x19adf6136adcba1005dcbdb24f6e6db2fbb4f1ec9a0979d1a381b6d89768025c",
                    "timestamp" : "0x03e8",
                    "transactionsTrie" : "0x301d47c121a1aa010b52e8bc365101e2ff381ace8d24e528e6463ce3a16e35f5",
                    "uncleHash" : "0x1dcc4de8dec75d7aab85b567b6ccd41ad312451b948a7413f0a142fd40d49347"
                },
                "rlp" : "0xf90251f901f8a0956926515400edf7d589e37a9ad23e428626f9573f1ff4e6bf20ccb3b7712604a01dcc4de8dec75d7aab85b567b6ccd41ad312451b948a7413f0a142fd40d49347942adc25665018aa1fe0e6bc666dac8fc2697ff9baa019adf6136adcba1005dcbdb24f6e6db2fbb4f1ec9a0979d1a381b6d89768025ca0301d47c121a1aa010b52e8bc365101e2ff381ace8d24e528e6463ce3a16e35f5a04602c8c524f3e9d7bc5127c07e40fc1e21e349a8420b4c02bd5087bd3be1964fb9010000000000000000000000000000000000000000000000000000000000000000000000000000000000000000000000000000000000000000000000000000000000000000000000000000000000000000000000000000000000000000000000000000000000000000000000000000000000000000000000000000000000000000000000000000000000000000000000000000000000000000000000000000000000000000000000000000000000000000000000000000000000000000000000000000000000000000000000000000000000000000000000000000000000000000000000000000000000000000000000000000000000000000000000000000000000830200000183989680830927c08203e880a0276241ab0786938adf7d5beef7880014a9a0e54587d413548bca012a0094e070888664d1ae1ff46464f853f8518001830927c080018560016001551ba0669bf7108a35b2babdd8d02a2203a0d25bd67f1b8c7c19d5c3ab8eef82b8d8caa0720ffffc96a534ba62bde72c067225ebf8b31fa4ca557feaa557c7d689113a20c0",
                "transactions" : [
                    {
                        "data" : "0x6001600155",
                        "gasLimit" : "0x0927c0",
                        "gasPrice" : "0x01",
                        "nonce" : "0x00",
                        "r" : "0x669bf7108a35b2babdd8d02a2203a0d25bd67f1b8c7c19d5c3ab8eef82b8d8ca",
                        "s" : "0x720ffffc96a534ba62bde72c067225ebf8b31fa4ca557feaa557c7d689113a20",
                        "to" : "",
                        "v" : "0x1b",
                        "value" : "0x01"
                    }
                ],
                "uncleHeaders" : [
                ]
            }
        ],
        "genesisBlockHeader" : {
            "bloom" : "0x00000000000000000000000000000000000000000000000000000000000000000000000000000000000000000000000000000000000000000000000000000000000000000000000000000000000000000000000000000000000000000000000000000000000000000000000000000000000000000000000000000000000000000000000000000000000000000000000000000000000000000000000000000000000000000000000000000000000000000000000000000000000000000000000000000000000000000000000000000000000000000000000000000000000000000000000000000000000000000000000000000000000000000000000000000000",
            "coinbase" : "0x2adc25665018aa1fe0e6bc666dac8fc2697ff9ba",
            "difficulty" : "0x020000",
            "extraData" : "0x42",
            "gasLimit" : "0x989680",
            "gasUsed" : "0x00",
            "hash" : "0x956926515400edf7d589e37a9ad23e428626f9573f1ff4e6bf20ccb3b7712604",
            "mixHash" : "0x56e81f171bcc55a6ff8345e692c0f86e5b48e01b996cadc001622fb5e363b421",
            "nonce" : "0x0102030405060708",
            "number" : "0x00",
            "parentHash" : "0x0000000000000000000000000000000000000000000000000000000000000000",
            "receiptTrie" : "0x56e81f171bcc55a6ff8345e692c0f86e5b48e01b996cadc001622fb5e363b421",
            "stateRoot" : "0x2ba54e1f096f181cbd01a69dc23f4b60c53d41838ed962a5bacd1e9f0a8522b8",
            "timestamp" : "0x03b6",
            "transactionsTrie" : "0x56e81f171bcc55a6ff8345e692c0f86e5b48e01b996cadc001622fb5e363b421",
            "uncleHash" : "0x1dcc4de8dec75d7aab85b567b6ccd41ad312451b948a7413f0a142fd40d49347"
        },
        "genesisRLP" : "0xf901faf901f5a00000000000000000000000000000000000000000000000000000000000000000a01dcc4de8dec75d7aab85b567b6ccd41ad312451b948a7413f0a142fd40d49347942adc25665018aa1fe0e6bc666dac8fc2697ff9baa02ba54e1f096f181cbd01a69dc23f4b60c53d41838ed962a5bacd1e9f0a8522b8a056e81f171bcc55a6ff8345e692c0f86e5b48e01b996cadc001622fb5e363b421a056e81f171bcc55a6ff8345e692c0f86e5b48e01b996cadc001622fb5e363b421b9010000000000000000000000000000000000000000000000000000000000000000000000000000000000000000000000000000000000000000000000000000000000000000000000000000000000000000000000000000000000000000000000000000000000000000000000000000000000000000000000000000000000000000000000000000000000000000000000000000000000000000000000000000000000000000000000000000000000000000000000000000000000000000000000000000000000000000000000000000000000000000000000000000000000000000000000000000000000000000000000000000000000000000000000000000000000830200008083989680808203b642a056e81f171bcc55a6ff8345e692c0f86e5b48e01b996cadc001622fb5e363b421880102030405060708c0c0",
        "lastblockhash" : "0xcc43561a34b8b3e71b06c4ca344f1558792337b35ee3a6d9092d3469f42bb7ab",
        "network" : "Homestead",
        "postState" : {
            "0x2adc25665018aa1fe0e6bc666dac8fc2697ff9ba" : {
                "balance" : "0x4563918244fd27c0",
                "code" : "",
                "nonce" : "0x00",
                "storage" : {
                }
            },
            "0x6295ee1b4f6dd65047762f924ecd367c17eabf8f" : {
                "balance" : "0x00",
                "code" : "",
                "nonce" : "0x01",
                "storage" : {
                }
            },
            "0xa94f5374fce5edbc8e2a8697c15331677e6ebf0b" : {
                "balance" : "0xe8d49be840",
                "code" : "",
                "nonce" : "0x01",
                "storage" : {
                }
            }
        },
        "pre" : {
            "0x6295ee1b4f6dd65047762f924ecd367c17eabf8f" : {
                "balance" : "0x00",
                "code" : "",
                "nonce" : "0x01",
                "storage" : {
                }
            },
            "0xa94f5374fce5edbc8e2a8697c15331677e6ebf0b" : {
                "balance" : "0xe8d4a51000",
                "code" : "",
                "nonce" : "0x00",
                "storage" : {
                }
            }
        }
    }
}