{
    "Call1024BalanceTooLow_d0g0v0_Byzantium" : {
        "_info" : {
            "comment" : "",
            "filledwith" : "cpp-1.3.0+commit.8fb57c56.Linux.g++",
            "lllcversion" : "Version: 0.4.20-develop.2018.1.8+commit.2548228b.Linux.g++",
            "source" : "src/BlockchainTestsFiller/GeneralStateTests/stChangedEIP150/Call1024BalanceTooLow_d0g0v0Filler.json",
            "sourceHash" : "17e3ec4279aa11c1c4aa994a55dc2ca8c549393ef58fb76c2b217acc4ce30a5f"
        },
        "blocks" : [
            {
                "blockHeader" : {
                    "bloom" : "0x00000000000000000000000000000000000000000000000000000000000000000000000000000000000000000000000000000000000000000000000000000000000000000000000000000000000000000000000000000000000000000000000000000000000000000000000000000000000000000000000000000000000000000000000000000000000000000000000000000000000000000000000000000000000000000000000000000000000000000000000000000000000000000000000000000000000000000000000000000000000000000000000000000000000000000000000000000000000000000000000000000000000000000000000000000000",
                    "coinbase" : "0x2adc25665018aa1fe0e6bc666dac8fc2697ff9ba",
                    "difficulty" : "0x020000",
                    "extraData" : "",
                    "gasLimit" : "0x7fffffffffffffff",
                    "gasUsed" : "0x0117bce4",
                    "hash" : "0x840d36cf5379bc903bd35f191cc98f10c88233ddadff969ad4796ea34c177d5a",
                    "mixHash" : "0x03778d7da2b9d1f65495f0616372340d95d004967bb0746dd54f827f4ee5ccf8",
                    "nonce" : "0xe71a54c75bdcd929",
                    "number" : "0x01",
                    "parentHash" : "0x355e8d92a6599fb623165e3dbf243cdaad74c9efa920ff9f9fa99d69269cfd50",
                    "receiptTrie" : "0x3916ef002c14f35e24fbec7580b490cc1be018bf8705486ce2c1f5ed5e11548b",
                    "stateRoot" : "0x8035a74d84745fe1d85eab500f8730013fccf9473ead13cf2d98c8a8924a091e",
                    "timestamp" : "0x03e8",
                    "transactionsTrie" : "0x25f7bdaeea15f5a5ea594146436c514dcfa010d8d1437497e1d85dd128420484",
                    "uncleHash" : "0x1dcc4de8dec75d7aab85b567b6ccd41ad312451b948a7413f0a142fd40d49347"
                },
                "rlp" : "0xf90269f901fea0355e8d92a6599fb623165e3dbf243cdaad74c9efa920ff9f9fa99d69269cfd50a01dcc4de8dec75d7aab85b567b6ccd41ad312451b948a7413f0a142fd40d49347942adc25665018aa1fe0e6bc666dac8fc2697ff9baa08035a74d84745fe1d85eab500f8730013fccf9473ead13cf2d98c8a8924a091ea025f7bdaeea15f5a5ea594146436c514dcfa010d8d1437497e1d85dd128420484a03916ef002c14f35e24fbec7580b490cc1be018bf8705486ce2c1f5ed5e11548bb90100000000000000000000000000000000000000000000000000000000000000000000000000000000000000000000000000000000000000000000000000000000000000000000000000000000000000000000000000000000000000000000000000000000000000000000000000000000000000000000000000000000000000000000000000000000000000000000000000000000000000000000000000000000000000000000000000000000000000000000000000000000000000000000000000000000000000000000000000000000000000000000000000000000000000000000000000000000000000000000000000000000000000000000000000000000008302000001887fffffffffffffff840117bce48203e880a003778d7da2b9d1f65495f0616372340d95d004967bb0746dd54f827f4ee5ccf888e71a54c75bdcd929f865f86380018610000000d78894bbbf5374fce5edbc8e2a8697c15331677e6ebf0b0a801ca05e2c7af3b9d4bf9a2d424b3f15612c33c55511e57e214ca07e57a7b68e708cb5a0494317f2e30c61735eb351cd078ac0c503abbd1ee544a07ccedabad4d722a57ac0",
                "transactions" : [
                    {
                        "data" : "0x",
                        "gasLimit" : "0x10000000d788",
                        "gasPrice" : "0x01",
                        "nonce" : "0x00",
                        "r" : "0x5e2c7af3b9d4bf9a2d424b3f15612c33c55511e57e214ca07e57a7b68e708cb5",
                        "s" : "0x494317f2e30c61735eb351cd078ac0c503abbd1ee544a07ccedabad4d722a57a",
                        "to" : "0xbbbf5374fce5edbc8e2a8697c15331677e6ebf0b",
                        "v" : "0x1c",
                        "value" : "0x0a"
                    }
                ],
                "uncleHeaders" : [
                ]
            }
        ],
        "genesisBlockHeader" : {
            "bloom" : "0x00000000000000000000000000000000000000000000000000000000000000000000000000000000000000000000000000000000000000000000000000000000000000000000000000000000000000000000000000000000000000000000000000000000000000000000000000000000000000000000000000000000000000000000000000000000000000000000000000000000000000000000000000000000000000000000000000000000000000000000000000000000000000000000000000000000000000000000000000000000000000000000000000000000000000000000000000000000000000000000000000000000000000000000000000000000",
            "coinbase" : "0x2adc25665018aa1fe0e6bc666dac8fc2697ff9ba",
            "difficulty" : "0x020000",
            "extraData" : "0x42",
            "gasLimit" : "0x7fffffffffffffff",
            "gasUsed" : "0x00",
            "hash" : "0x355e8d92a6599fb623165e3dbf243cdaad74c9efa920ff9f9fa99d69269cfd50",
            "mixHash" : "0x56e81f171bcc55a6ff8345e692c0f86e5b48e01b996cadc001622fb5e363b421",
            "nonce" : "0x0102030405060708",
            "number" : "0x00",
            "parentHash" : "0x0000000000000000000000000000000000000000000000000000000000000000",
            "receiptTrie" : "0x56e81f171bcc55a6ff8345e692c0f86e5b48e01b996cadc001622fb5e363b421",
            "stateRoot" : "0x7c09a14728cbaf6f1bc7febd3bc016c87166727ecf78fb9ee35d6e15e4b79f44",
            "timestamp" : "0x03b6",
            "transactionsTrie" : "0x56e81f171bcc55a6ff8345e692c0f86e5b48e01b996cadc001622fb5e363b421",
            "uncleHash" : "0x1dcc4de8dec75d7aab85b567b6ccd41ad312451b948a7413f0a142fd40d49347"
        },
        "genesisRLP" : "0xf901fff901faa00000000000000000000000000000000000000000000000000000000000000000a01dcc4de8dec75d7aab85b567b6ccd41ad312451b948a7413f0a142fd40d49347942adc25665018aa1fe0e6bc666dac8fc2697ff9baa07c09a14728cbaf6f1bc7febd3bc016c87166727ecf78fb9ee35d6e15e4b79f44a056e81f171bcc55a6ff8345e692c0f86e5b48e01b996cadc001622fb5e363b421a056e81f171bcc55a6ff8345e692c0f86e5b48e01b996cadc001622fb5e363b421b90100000000000000000000000000000000000000000000000000000000000000000000000000000000000000000000000000000000000000000000000000000000000000000000000000000000000000000000000000000000000000000000000000000000000000000000000000000000000000000000000000000000000000000000000000000000000000000000000000000000000000000000000000000000000000000000000000000000000000000000000000000000000000000000000000000000000000000000000000000000000000000000000000000000000000000000000000000000000000000000000000000000000000000000000000000000008302000080887fffffffffffffff808203b642a056e81f171bcc55a6ff8345e692c0f86e5b48e01b996cadc001622fb5e363b421880102030405060708c0c0",
        "lastblockhash" : "0x840d36cf5379bc903bd35f191cc98f10c88233ddadff969ad4796ea34c177d5a",
        "network" : "Byzantium",
        "postState" : {
            "0x2adc25665018aa1fe0e6bc666dac8fc2697ff9ba" : {
                "balance" : "0x29a2241af743bce4",
                "code" : "",
                "nonce" : "0x00",
                "storage" : {
                }
            },
            "0xa94f5374fce5edbc8e2a8697c15331677e6ebf0b" : {
                "balance" : "0xfffffffffffffffffffffffffee84311",
                "code" : "",
                "nonce" : "0x01",
                "storage" : {
                }
            },
            "0xaaaf5374fce5edbc8e2a8697c15331677e6ebf0b" : {
                "balance" : "0x1b58",
                "code" : "",
                "nonce" : "0x00",
                "storage" : {
                }
            },
            "0xbbbf5374fce5edbc8e2a8697c15331677e6ebf0b" : {
                "balance" : "0x040a",
                "code" : "0x600160005401600055600060006000600060005473bbbf5374fce5edbc8e2a8697c15331677e6ebf0b650ffffffffffff1600155",
                "nonce" : "0x00",
                "storage" : {
                    "0x00" : "0x0401",
                    "0x01" : "0x01"
                }
            }
        },
        "pre" : {
            "0xa94f5374fce5edbc8e2a8697c15331677e6ebf0b" : {
                "balance" : "0xffffffffffffffffffffffffffffffff",
                "code" : "",
                "nonce" : "0x00",
                "storage" : {
                }
            },
            "0xaaaf5374fce5edbc8e2a8697c15331677e6ebf0b" : {
                "balance" : "0x1b58",
                "code" : "",
                "nonce" : "0x00",
                "storage" : {
                }
            },
            "0xbbbf5374fce5edbc8e2a8697c15331677e6ebf0b" : {
                "balance" : "0x0400",
                "code" : "0x600160005401600055600060006000600060005473bbbf5374fce5edbc8e2a8697c15331677e6ebf0b650ffffffffffff1600155",
                "nonce" : "0x00",
                "storage" : {
                }
            }
        }
    },
    "Call1024BalanceTooLow_d0g0v0_EIP150" : {
        "_info" : {
            "comment" : "",
            "filledwith" : "cpp-1.3.0+commit.8fb57c56.Linux.g++",
            "lllcversion" : "Version: 0.4.20-develop.2018.1.8+commit.2548228b.Linux.g++",
            "source" : "src/BlockchainTestsFiller/GeneralStateTests/stChangedEIP150/Call1024BalanceTooLow_d0g0v0Filler.json",
            "sourceHash" : "17e3ec4279aa11c1c4aa994a55dc2ca8c549393ef58fb76c2b217acc4ce30a5f"
        },
        "blocks" : [
            {
                "blockHeader" : {
                    "bloom" : "0x00000000000000000000000000000000000000000000000000000000000000000000000000000000000000000000000000000000000000000000000000000000000000000000000000000000000000000000000000000000000000000000000000000000000000000000000000000000000000000000000000000000000000000000000000000000000000000000000000000000000000000000000000000000000000000000000000000000000000000000000000000000000000000000000000000000000000000000000000000000000000000000000000000000000000000000000000000000000000000000000000000000000000000000000000000000",
                    "coinbase" : "0x2adc25665018aa1fe0e6bc666dac8fc2697ff9ba",
                    "difficulty" : "0x020000",
                    "extraData" : "",
                    "gasLimit" : "0x7fffffffffffffff",
                    "gasUsed" : "0x0117bce4",
                    "hash" : "0xf27b55ca92afddb2aba236d0180f4d4529ca9ad9fbe9a55e14055a9a11b28c2f",
                    "mixHash" : "0x9d98ce9dcab7907264317ede993eded969240659fffe69f3704868507ce8615c",
                    "nonce" : "0x922258dd7cc8426b",
                    "number" : "0x01",
                    "parentHash" : "0x355e8d92a6599fb623165e3dbf243cdaad74c9efa920ff9f9fa99d69269cfd50",
                    "receiptTrie" : "0xe21c435f977dd4904bdc2e5edbb1ba756222f6e4602493e1fed0a906395bf433",
                    "stateRoot" : "0x0ddd821794b0d44365cc798e1415ab64306f9ae5c2c9be157f26de4642f359d0",
                    "timestamp" : "0x03e8",
                    "transactionsTrie" : "0x25f7bdaeea15f5a5ea594146436c514dcfa010d8d1437497e1d85dd128420484",
                    "uncleHash" : "0x1dcc4de8dec75d7aab85b567b6ccd41ad312451b948a7413f0a142fd40d49347"
                },
                "rlp" : "0xf90269f901fea0355e8d92a6599fb623165e3dbf243cdaad74c9efa920ff9f9fa99d69269cfd50a01dcc4de8dec75d7aab85b567b6ccd41ad312451b948a7413f0a142fd40d49347942adc25665018aa1fe0e6bc666dac8fc2697ff9baa00ddd821794b0d44365cc798e1415ab64306f9ae5c2c9be157f26de4642f359d0a025f7bdaeea15f5a5ea594146436c514dcfa010d8d1437497e1d85dd128420484a0e21c435f977dd4904bdc2e5edbb1ba756222f6e4602493e1fed0a906395bf433b90100000000000000000000000000000000000000000000000000000000000000000000000000000000000000000000000000000000000000000000000000000000000000000000000000000000000000000000000000000000000000000000000000000000000000000000000000000000000000000000000000000000000000000000000000000000000000000000000000000000000000000000000000000000000000000000000000000000000000000000000000000000000000000000000000000000000000000000000000000000000000000000000000000000000000000000000000000000000000000000000000000000000000000000000000000000008302000001887fffffffffffffff840117bce48203e880a09d98ce9dcab7907264317ede993eded969240659fffe69f3704868507ce8615c88922258dd7cc8426bf865f86380018610000000d78894bbbf5374fce5edbc8e2a8697c15331677e6ebf0b0a801ca05e2c7af3b9d4bf9a2d424b3f15612c33c55511e57e214ca07e57a7b68e708cb5a0494317f2e30c61735eb351cd078ac0c503abbd1ee544a07ccedabad4d722a57ac0",
                "transactions" : [
                    {
                        "data" : "0x",
                        "gasLimit" : "0x10000000d788",
                        "gasPrice" : "0x01",
                        "nonce" : "0x00",
                        "r" : "0x5e2c7af3b9d4bf9a2d424b3f15612c33c55511e57e214ca07e57a7b68e708cb5",
                        "s" : "0x494317f2e30c61735eb351cd078ac0c503abbd1ee544a07ccedabad4d722a57a",
                        "to" : "0xbbbf5374fce5edbc8e2a8697c15331677e6ebf0b",
                        "v" : "0x1c",
                        "value" : "0x0a"
                    }
                ],
                "uncleHeaders" : [
                ]
            }
        ],
        "genesisBlockHeader" : {
            "bloom" : "0x00000000000000000000000000000000000000000000000000000000000000000000000000000000000000000000000000000000000000000000000000000000000000000000000000000000000000000000000000000000000000000000000000000000000000000000000000000000000000000000000000000000000000000000000000000000000000000000000000000000000000000000000000000000000000000000000000000000000000000000000000000000000000000000000000000000000000000000000000000000000000000000000000000000000000000000000000000000000000000000000000000000000000000000000000000000",
            "coinbase" : "0x2adc25665018aa1fe0e6bc666dac8fc2697ff9ba",
            "difficulty" : "0x020000",
            "extraData" : "0x42",
            "gasLimit" : "0x7fffffffffffffff",
            "gasUsed" : "0x00",
            "hash" : "0x355e8d92a6599fb623165e3dbf243cdaad74c9efa920ff9f9fa99d69269cfd50",
            "mixHash" : "0x56e81f171bcc55a6ff8345e692c0f86e5b48e01b996cadc001622fb5e363b421",
            "nonce" : "0x0102030405060708",
            "number" : "0x00",
            "parentHash" : "0x0000000000000000000000000000000000000000000000000000000000000000",
            "receiptTrie" : "0x56e81f171bcc55a6ff8345e692c0f86e5b48e01b996cadc001622fb5e363b421",
            "stateRoot" : "0x7c09a14728cbaf6f1bc7febd3bc016c87166727ecf78fb9ee35d6e15e4b79f44",
            "timestamp" : "0x03b6",
            "transactionsTrie" : "0x56e81f171bcc55a6ff8345e692c0f86e5b48e01b996cadc001622fb5e363b421",
            "uncleHash" : "0x1dcc4de8dec75d7aab85b567b6ccd41ad312451b948a7413f0a142fd40d49347"
        },
        "genesisRLP" : "0xf901fff901faa00000000000000000000000000000000000000000000000000000000000000000a01dcc4de8dec75d7aab85b567b6ccd41ad312451b948a7413f0a142fd40d49347942adc25665018aa1fe0e6bc666dac8fc2697ff9baa07c09a14728cbaf6f1bc7febd3bc016c87166727ecf78fb9ee35d6e15e4b79f44a056e81f171bcc55a6ff8345e692c0f86e5b48e01b996cadc001622fb5e363b421a056e81f171bcc55a6ff8345e692c0f86e5b48e01b996cadc001622fb5e363b421b90100000000000000000000000000000000000000000000000000000000000000000000000000000000000000000000000000000000000000000000000000000000000000000000000000000000000000000000000000000000000000000000000000000000000000000000000000000000000000000000000000000000000000000000000000000000000000000000000000000000000000000000000000000000000000000000000000000000000000000000000000000000000000000000000000000000000000000000000000000000000000000000000000000000000000000000000000000000000000000000000000000000000000000000000000000000008302000080887fffffffffffffff808203b642a056e81f171bcc55a6ff8345e692c0f86e5b48e01b996cadc001622fb5e363b421880102030405060708c0c0",
        "lastblockhash" : "0xf27b55ca92afddb2aba236d0180f4d4529ca9ad9fbe9a55e14055a9a11b28c2f",
        "network" : "EIP150",
        "postState" : {
            "0x2adc25665018aa1fe0e6bc666dac8fc2697ff9ba" : {
                "balance" : "0x45639182460bbce4",
                "code" : "",
                "nonce" : "0x00",
                "storage" : {
                }
            },
            "0xa94f5374fce5edbc8e2a8697c15331677e6ebf0b" : {
                "balance" : "0xfffffffffffffffffffffffffee84311",
                "code" : "",
                "nonce" : "0x01",
                "storage" : {
                }
            },
            "0xaaaf5374fce5edbc8e2a8697c15331677e6ebf0b" : {
                "balance" : "0x1b58",
                "code" : "",
                "nonce" : "0x00",
                "storage" : {
                }
            },
            "0xbbbf5374fce5edbc8e2a8697c15331677e6ebf0b" : {
                "balance" : "0x040a",
                "code" : "0x600160005401600055600060006000600060005473bbbf5374fce5edbc8e2a8697c15331677e6ebf0b650ffffffffffff1600155",
                "nonce" : "0x00",
                "storage" : {
                    "0x00" : "0x0401",
                    "0x01" : "0x01"
                }
            }
        },
        "pre" : {
            "0xa94f5374fce5edbc8e2a8697c15331677e6ebf0b" : {
                "balance" : "0xffffffffffffffffffffffffffffffff",
                "code" : "",
                "nonce" : "0x00",
                "storage" : {
                }
            },
            "0xaaaf5374fce5edbc8e2a8697c15331677e6ebf0b" : {
                "balance" : "0x1b58",
                "code" : "",
                "nonce" : "0x00",
                "storage" : {
                }
            },
            "0xbbbf5374fce5edbc8e2a8697c15331677e6ebf0b" : {
                "balance" : "0x0400",
                "code" : "0x600160005401600055600060006000600060005473bbbf5374fce5edbc8e2a8697c15331677e6ebf0b650ffffffffffff1600155",
                "nonce" : "0x00",
                "storage" : {
                }
            }
        }
    },
    "Call1024BalanceTooLow_d0g0v0_Homestead" : {
        "_info" : {
            "comment" : "",
            "filledwith" : "cpp-1.3.0+commit.8fb57c56.Linux.g++",
            "lllcversion" : "Version: 0.4.20-develop.2018.1.8+commit.2548228b.Linux.g++",
            "source" : "src/BlockchainTestsFiller/GeneralStateTests/stChangedEIP150/Call1024BalanceTooLow_d0g0v0Filler.json",
            "sourceHash" : "17e3ec4279aa11c1c4aa994a55dc2ca8c549393ef58fb76c2b217acc4ce30a5f"
        },
        "blocks" : [
            {
                "blockHeader" : {
                    "bloom" : "0x00000000000000000000000000000000000000000000000000000000000000000000000000000000000000000000000000000000000000000000000000000000000000000000000000000000000000000000000000000000000000000000000000000000000000000000000000000000000000000000000000000000000000000000000000000000000000000000000000000000000000000000000000000000000000000000000000000000000000000000000000000000000000000000000000000000000000000000000000000000000000000000000000000000000000000000000000000000000000000000000000000000000000000000000000000000",
                    "coinbase" : "0x2adc25665018aa1fe0e6bc666dac8fc2697ff9ba",
                    "difficulty" : "0x020000",
                    "extraData" : "",
                    "gasLimit" : "0x7fffffffffffffff",
                    "gasUsed" : "0x10000000d787",
                    "hash" : "0x04eb97d8f876aec01c9f50892f39dde9bb45131fd9e4369addf7ed0403938530",
                    "mixHash" : "0x52503195af1317d046ce3a94dd6ef1122add9801c5f3bb87e78c51a56bfd208d",
                    "nonce" : "0x5cafc48895785a8c",
                    "number" : "0x01",
                    "parentHash" : "0x355e8d92a6599fb623165e3dbf243cdaad74c9efa920ff9f9fa99d69269cfd50",
                    "receiptTrie" : "0xf3ab4ebf649ce7b5dcc5da0237f018289850a40c106955ac4eca282cdefaf7f2",
                    "stateRoot" : "0x47b404765b62a3544b61f6af7af55d485db6f5b9e265ded4481e19069887b7ad",
                    "timestamp" : "0x03e8",
                    "transactionsTrie" : "0x25f7bdaeea15f5a5ea594146436c514dcfa010d8d1437497e1d85dd128420484",
                    "uncleHash" : "0x1dcc4de8dec75d7aab85b567b6ccd41ad312451b948a7413f0a142fd40d49347"
                },
                "rlp" : "0xf9026bf90200a0355e8d92a6599fb623165e3dbf243cdaad74c9efa920ff9f9fa99d69269cfd50a01dcc4de8dec75d7aab85b567b6ccd41ad312451b948a7413f0a142fd40d49347942adc25665018aa1fe0e6bc666dac8fc2697ff9baa047b404765b62a3544b61f6af7af55d485db6f5b9e265ded4481e19069887b7ada025f7bdaeea15f5a5ea594146436c514dcfa010d8d1437497e1d85dd128420484a0f3ab4ebf649ce7b5dcc5da0237f018289850a40c106955ac4eca282cdefaf7f2b90100000000000000000000000000000000000000000000000000000000000000000000000000000000000000000000000000000000000000000000000000000000000000000000000000000000000000000000000000000000000000000000000000000000000000000000000000000000000000000000000000000000000000000000000000000000000000000000000000000000000000000000000000000000000000000000000000000000000000000000000000000000000000000000000000000000000000000000000000000000000000000000000000000000000000000000000000000000000000000000000000000000000000000000000000000000008302000001887fffffffffffffff8610000000d7878203e880a052503195af1317d046ce3a94dd6ef1122add9801c5f3bb87e78c51a56bfd208d885cafc48895785a8cf865f86380018610000000d78894bbbf5374fce5edbc8e2a8697c15331677e6ebf0b0a801ca05e2c7af3b9d4bf9a2d424b3f15612c33c55511e57e214ca07e57a7b68e708cb5a0494317f2e30c61735eb351cd078ac0c503abbd1ee544a07ccedabad4d722a57ac0",
                "transactions" : [
                    {
                        "data" : "0x",
                        "gasLimit" : "0x10000000d788",
                        "gasPrice" : "0x01",
                        "nonce" : "0x00",
                        "r" : "0x5e2c7af3b9d4bf9a2d424b3f15612c33c55511e57e214ca07e57a7b68e708cb5",
                        "s" : "0x494317f2e30c61735eb351cd078ac0c503abbd1ee544a07ccedabad4d722a57a",
                        "to" : "0xbbbf5374fce5edbc8e2a8697c15331677e6ebf0b",
                        "v" : "0x1c",
                        "value" : "0x0a"
                    }
                ],
                "uncleHeaders" : [
                ]
            }
        ],
        "genesisBlockHeader" : {
            "bloom" : "0x00000000000000000000000000000000000000000000000000000000000000000000000000000000000000000000000000000000000000000000000000000000000000000000000000000000000000000000000000000000000000000000000000000000000000000000000000000000000000000000000000000000000000000000000000000000000000000000000000000000000000000000000000000000000000000000000000000000000000000000000000000000000000000000000000000000000000000000000000000000000000000000000000000000000000000000000000000000000000000000000000000000000000000000000000000000",
            "coinbase" : "0x2adc25665018aa1fe0e6bc666dac8fc2697ff9ba",
            "difficulty" : "0x020000",
            "extraData" : "0x42",
            "gasLimit" : "0x7fffffffffffffff",
            "gasUsed" : "0x00",
            "hash" : "0x355e8d92a6599fb623165e3dbf243cdaad74c9efa920ff9f9fa99d69269cfd50",
            "mixHash" : "0x56e81f171bcc55a6ff8345e692c0f86e5b48e01b996cadc001622fb5e363b421",
            "nonce" : "0x0102030405060708",
            "number" : "0x00",
            "parentHash" : "0x0000000000000000000000000000000000000000000000000000000000000000",
            "receiptTrie" : "0x56e81f171bcc55a6ff8345e692c0f86e5b48e01b996cadc001622fb5e363b421",
            "stateRoot" : "0x7c09a14728cbaf6f1bc7febd3bc016c87166727ecf78fb9ee35d6e15e4b79f44",
            "timestamp" : "0x03b6",
            "transactionsTrie" : "0x56e81f171bcc55a6ff8345e692c0f86e5b48e01b996cadc001622fb5e363b421",
            "uncleHash" : "0x1dcc4de8dec75d7aab85b567b6ccd41ad312451b948a7413f0a142fd40d49347"
        },
        "genesisRLP" : "0xf901fff901faa00000000000000000000000000000000000000000000000000000000000000000a01dcc4de8dec75d7aab85b567b6ccd41ad312451b948a7413f0a142fd40d49347942adc25665018aa1fe0e6bc666dac8fc2697ff9baa07c09a14728cbaf6f1bc7febd3bc016c87166727ecf78fb9ee35d6e15e4b79f44a056e81f171bcc55a6ff8345e692c0f86e5b48e01b996cadc001622fb5e363b421a056e81f171bcc55a6ff8345e692c0f86e5b48e01b996cadc001622fb5e363b421b90100000000000000000000000000000000000000000000000000000000000000000000000000000000000000000000000000000000000000000000000000000000000000000000000000000000000000000000000000000000000000000000000000000000000000000000000000000000000000000000000000000000000000000000000000000000000000000000000000000000000000000000000000000000000000000000000000000000000000000000000000000000000000000000000000000000000000000000000000000000000000000000000000000000000000000000000000000000000000000000000000000000000000000000000000000000008302000080887fffffffffffffff808203b642a056e81f171bcc55a6ff8345e692c0f86e5b48e01b996cadc001622fb5e363b421880102030405060708c0c0",
        "lastblockhash" : "0x04eb97d8f876aec01c9f50892f39dde9bb45131fd9e4369addf7ed0403938530",
        "network" : "Homestead",
        "postState" : {
            "0x2adc25665018aa1fe0e6bc666dac8fc2697ff9ba" : {
                "balance" : "0x4563a18244f4d787",
                "code" : "",
                "nonce" : "0x00",
                "storage" : {
                }
            },
            "0xa94f5374fce5edbc8e2a8697c15331677e6ebf0b" : {
                "balance" : "0xffffffffffffffffffffefffffff286e",
                "code" : "",
                "nonce" : "0x01",
                "storage" : {
                }
            },
            "0xaaaf5374fce5edbc8e2a8697c15331677e6ebf0b" : {
                "balance" : "0x1b58",
                "code" : "",
                "nonce" : "0x00",
                "storage" : {
                }
            },
            "0xbbbf5374fce5edbc8e2a8697c15331677e6ebf0b" : {
                "balance" : "0x040a",
                "code" : "0x600160005401600055600060006000600060005473bbbf5374fce5edbc8e2a8697c15331677e6ebf0b650ffffffffffff1600155",
                "nonce" : "0x00",
                "storage" : {
                    "0x00" : "0x01"
                }
            }
        },
        "pre" : {
            "0xa94f5374fce5edbc8e2a8697c15331677e6ebf0b" : {
                "balance" : "0xffffffffffffffffffffffffffffffff",
                "code" : "",
                "nonce" : "0x00",
                "storage" : {
                }
            },
            "0xaaaf5374fce5edbc8e2a8697c15331677e6ebf0b" : {
                "balance" : "0x1b58",
                "code" : "",
                "nonce" : "0x00",
                "storage" : {
                }
            },
            "0xbbbf5374fce5edbc8e2a8697c15331677e6ebf0b" : {
                "balance" : "0x0400",
                "code" : "0x600160005401600055600060006000600060005473bbbf5374fce5edbc8e2a8697c15331677e6ebf0b650ffffffffffff1600155",
                "nonce" : "0x00",
                "storage" : {
                }
            }
        }
    }
}