{
    "Callcode1024BalanceTooLow_d0g0v0_EIP150" : {
        "_info" : {
            "comment" : "",
            "filledwith" : "cpp-1.3.0+commit.16292201.Linux.g++",
            "source" : "/src/GenStateTestAsBcTemp/stChangedEIP150/Callcode1024BalanceTooLow_d0g0v0Filler.json"
        },
        "blocks" : [
            {
                "blockHeader" : {
                    "bloom" : "0x00000000000000000000000000000000000000000000000000000000000000000000000000000000000000000000000000000000000000000000000000000000000000000000000000000000000000000000000000000000000000000000000000000000000000000000000000000000000000000000000000000000000000000000000000000000000000000000000000000000000000000000000000000000000000000000000000000000000000000000000000000000000000000000000000000000000000000000000000000000000000000000000000000000000000000000000000000000000000000000000000000000000000000000000000000000",
                    "coinbase" : "0x2adc25665018aa1fe0e6bc666dac8fc2697ff9ba",
                    "difficulty" : "0x020000",
                    "extraData" : "",
                    "gasLimit" : "0x7fffffffffffffff",
                    "gasUsed" : "0x0117bce4",
                    "hash" : "0xb9eec6246ebc0ac59f4a47bee5d9132c3bf7c2e0f6f6ff3c1c5a1f494a23563a",
                    "mixHash" : "0x1cbac55a9df6eb482411572b36749ba727f829117583070e93b620032a13b677",
                    "nonce" : "0x034692e741b78419",
                    "number" : "0x01",
                    "parentHash" : "0xb3e7c21e3a0f8cb189e9ee35ca3666dbc629f1266dff806fa1913ceb6f35bcea",
                    "receiptTrie" : "0x49790fd18e7694030618faf1b6c312b91fd1428e180a2265746b8b21df8ce345",
                    "stateRoot" : "0x82e7c5b4c2adf0b0d9de967171e7381025dca7b83ae55768b9d66d8d6bf74114",
                    "timestamp" : "0x03e8",
                    "transactionsTrie" : "0x5d603792494b9643291b80b9dbc9d5fba242d8bfa214f915b041f1e91cf6c9ca",
                    "uncleHash" : "0x1dcc4de8dec75d7aab85b567b6ccd41ad312451b948a7413f0a142fd40d49347"
                },
                "rlp" : "0xf9026bf901fea0b3e7c21e3a0f8cb189e9ee35ca3666dbc629f1266dff806fa1913ceb6f35bceaa01dcc4de8dec75d7aab85b567b6ccd41ad312451b948a7413f0a142fd40d49347942adc25665018aa1fe0e6bc666dac8fc2697ff9baa082e7c5b4c2adf0b0d9de967171e7381025dca7b83ae55768b9d66d8d6bf74114a05d603792494b9643291b80b9dbc9d5fba242d8bfa214f915b041f1e91cf6c9caa049790fd18e7694030618faf1b6c312b91fd1428e180a2265746b8b21df8ce345b90100000000000000000000000000000000000000000000000000000000000000000000000000000000000000000000000000000000000000000000000000000000000000000000000000000000000000000000000000000000000000000000000000000000000000000000000000000000000000000000000000000000000000000000000000000000000000000000000000000000000000000000000000000000000000000000000000000000000000000000000000000000000000000000000000000000000000000000000000000000000000000000000000000000000000000000000000000000000000000000000000000000000000000000000000000000008302000001887fffffffffffffff840117bce48203e880a01cbac55a9df6eb482411572b36749ba727f829117583070e93b620032a13b67788034692e741b78419f867f8658001887ffffffffffffff094bbbf5374fce5edbc8e2a8697c15331677e6ebf0b0a801ca0949173aa91b1c62177a9d37740fcf7ecd6ab08cd1a0e7323fd61f5c5dbfd6b74a0392dbbe386b82a50d6af8e9c634002809a6601227f35c44af9eedf434a9be818c0",
                "transactions" : [
                    {
                        "data" : "",
                        "gasLimit" : "0x7ffffffffffffff0",
                        "gasPrice" : "0x01",
                        "nonce" : "0x00",
                        "r" : "0x949173aa91b1c62177a9d37740fcf7ecd6ab08cd1a0e7323fd61f5c5dbfd6b74",
                        "s" : "0x392dbbe386b82a50d6af8e9c634002809a6601227f35c44af9eedf434a9be818",
                        "to" : "0xbbbf5374fce5edbc8e2a8697c15331677e6ebf0b",
                        "v" : "0x1c",
                        "value" : "0x0a"
                    }
                ],
                "uncleHeaders" : [
                ]
            }
        ],
        "genesisBlockHeader" : {
            "bloom" : "0x00000000000000000000000000000000000000000000000000000000000000000000000000000000000000000000000000000000000000000000000000000000000000000000000000000000000000000000000000000000000000000000000000000000000000000000000000000000000000000000000000000000000000000000000000000000000000000000000000000000000000000000000000000000000000000000000000000000000000000000000000000000000000000000000000000000000000000000000000000000000000000000000000000000000000000000000000000000000000000000000000000000000000000000000000000000",
            "coinbase" : "0x2adc25665018aa1fe0e6bc666dac8fc2697ff9ba",
            "difficulty" : "0x020000",
            "extraData" : "0x42",
            "gasLimit" : "0x7fffffffffffffff",
            "gasUsed" : "0x00",
            "hash" : "0xb3e7c21e3a0f8cb189e9ee35ca3666dbc629f1266dff806fa1913ceb6f35bcea",
            "mixHash" : "0x56e81f171bcc55a6ff8345e692c0f86e5b48e01b996cadc001622fb5e363b421",
            "nonce" : "0x0102030405060708",
            "number" : "0x00",
            "parentHash" : "0x0000000000000000000000000000000000000000000000000000000000000000",
            "receiptTrie" : "0x56e81f171bcc55a6ff8345e692c0f86e5b48e01b996cadc001622fb5e363b421",
            "stateRoot" : "0x482bdc3fee00d6747e03877bbf2c19e5ddf26c72f366e831ca65b6d4ca2187bf",
            "timestamp" : "0x03b6",
            "transactionsTrie" : "0x56e81f171bcc55a6ff8345e692c0f86e5b48e01b996cadc001622fb5e363b421",
            "uncleHash" : "0x1dcc4de8dec75d7aab85b567b6ccd41ad312451b948a7413f0a142fd40d49347"
        },
        "genesisRLP" : "0xf901fff901faa00000000000000000000000000000000000000000000000000000000000000000a01dcc4de8dec75d7aab85b567b6ccd41ad312451b948a7413f0a142fd40d49347942adc25665018aa1fe0e6bc666dac8fc2697ff9baa0482bdc3fee00d6747e03877bbf2c19e5ddf26c72f366e831ca65b6d4ca2187bfa056e81f171bcc55a6ff8345e692c0f86e5b48e01b996cadc001622fb5e363b421a056e81f171bcc55a6ff8345e692c0f86e5b48e01b996cadc001622fb5e363b421b90100000000000000000000000000000000000000000000000000000000000000000000000000000000000000000000000000000000000000000000000000000000000000000000000000000000000000000000000000000000000000000000000000000000000000000000000000000000000000000000000000000000000000000000000000000000000000000000000000000000000000000000000000000000000000000000000000000000000000000000000000000000000000000000000000000000000000000000000000000000000000000000000000000000000000000000000000000000000000000000000000000000000000000000000000000000008302000080887fffffffffffffff808203b642a056e81f171bcc55a6ff8345e692c0f86e5b48e01b996cadc001622fb5e363b421880102030405060708c0c0",
        "lastblockhash" : "0xb9eec6246ebc0ac59f4a47bee5d9132c3bf7c2e0f6f6ff3c1c5a1f494a23563a",
        "network" : "EIP150",
        "postState" : {
            "0x2adc25665018aa1fe0e6bc666dac8fc2697ff9ba" : {
                "balance" : "0x45639182460bbce4",
                "code" : "",
                "nonce" : "0x00",
                "storage" : {
                }
            },
            "0xa94f5374fce5edbc8e2a8697c15331677e6ebf0b" : {
                "balance" : "0xfffffffffffffffffffffffffee84311",
                "code" : "",
                "nonce" : "0x01",
                "storage" : {
                }
            },
            "0xaaaf5374fce5edbc8e2a8697c15331677e6ebf0b" : {
                "balance" : "0x1b58",
                "code" : "",
                "nonce" : "0x00",
                "storage" : {
                }
            },
            "0xbbbf5374fce5edbc8e2a8697c15331677e6ebf0b" : {
                "balance" : "0x040a",
                "code" : "0x600160005401600055600060006000600060005473bbbf5374fce5edbc8e2a8697c15331677e6ebf0b650ffffffffffff2600155",
                "nonce" : "0x00",
                "storage" : {
                    "0x00" : "0x0401",
                    "0x01" : "0x01"
                }
            }
        },
        "pre" : {
            "0xa94f5374fce5edbc8e2a8697c15331677e6ebf0b" : {
                "balance" : "0xffffffffffffffffffffffffffffffff",
                "code" : "",
                "nonce" : "0x00",
                "storage" : {
                }
            },
            "0xaaaf5374fce5edbc8e2a8697c15331677e6ebf0b" : {
                "balance" : "0x1b58",
                "code" : "",
                "nonce" : "0x00",
                "storage" : {
                }
            },
            "0xbbbf5374fce5edbc8e2a8697c15331677e6ebf0b" : {
                "balance" : "0x0400",
                "code" : "0x600160005401600055600060006000600060005473bbbf5374fce5edbc8e2a8697c15331677e6ebf0b650ffffffffffff2600155",
                "nonce" : "0x00",
                "storage" : {
                }
            }
        }
    },
    "Callcode1024BalanceTooLow_d0g0v0_EIP158" : {
        "_info" : {
            "comment" : "",
            "filledwith" : "cpp-1.3.0+commit.16292201.Linux.g++",
            "source" : "/src/GenStateTestAsBcTemp/stChangedEIP150/Callcode1024BalanceTooLow_d0g0v0Filler.json"
        },
        "blocks" : [
            {
                "blockHeader" : {
                    "bloom" : "0x00000000000000000000000000000000000000000000000000000000000000000000000000000000000000000000000000000000000000000000000000000000000000000000000000000000000000000000000000000000000000000000000000000000000000000000000000000000000000000000000000000000000000000000000000000000000000000000000000000000000000000000000000000000000000000000000000000000000000000000000000000000000000000000000000000000000000000000000000000000000000000000000000000000000000000000000000000000000000000000000000000000000000000000000000000000",
                    "coinbase" : "0x2adc25665018aa1fe0e6bc666dac8fc2697ff9ba",
                    "difficulty" : "0x020000",
                    "extraData" : "",
                    "gasLimit" : "0x7fffffffffffffff",
                    "gasUsed" : "0x0117bce4",
                    "hash" : "0xba6ed3ce7c8ce2878b6daa43971b3494d7b8bd42594b76e08592fe60a79e064e",
                    "mixHash" : "0x6cf65353147b6bd3e286ddc0beb060dd49511f8940da67b58a0b70bf083b7f35",
                    "nonce" : "0x890299f814a7165a",
                    "number" : "0x01",
                    "parentHash" : "0xb3e7c21e3a0f8cb189e9ee35ca3666dbc629f1266dff806fa1913ceb6f35bcea",
                    "receiptTrie" : "0x49790fd18e7694030618faf1b6c312b91fd1428e180a2265746b8b21df8ce345",
                    "stateRoot" : "0x82e7c5b4c2adf0b0d9de967171e7381025dca7b83ae55768b9d66d8d6bf74114",
                    "timestamp" : "0x03e8",
                    "transactionsTrie" : "0x5d603792494b9643291b80b9dbc9d5fba242d8bfa214f915b041f1e91cf6c9ca",
                    "uncleHash" : "0x1dcc4de8dec75d7aab85b567b6ccd41ad312451b948a7413f0a142fd40d49347"
                },
                "rlp" : "0xf9026bf901fea0b3e7c21e3a0f8cb189e9ee35ca3666dbc629f1266dff806fa1913ceb6f35bceaa01dcc4de8dec75d7aab85b567b6ccd41ad312451b948a7413f0a142fd40d49347942adc25665018aa1fe0e6bc666dac8fc2697ff9baa082e7c5b4c2adf0b0d9de967171e7381025dca7b83ae55768b9d66d8d6bf74114a05d603792494b9643291b80b9dbc9d5fba242d8bfa214f915b041f1e91cf6c9caa049790fd18e7694030618faf1b6c312b91fd1428e180a2265746b8b21df8ce345b90100000000000000000000000000000000000000000000000000000000000000000000000000000000000000000000000000000000000000000000000000000000000000000000000000000000000000000000000000000000000000000000000000000000000000000000000000000000000000000000000000000000000000000000000000000000000000000000000000000000000000000000000000000000000000000000000000000000000000000000000000000000000000000000000000000000000000000000000000000000000000000000000000000000000000000000000000000000000000000000000000000000000000000000000000000000008302000001887fffffffffffffff840117bce48203e880a06cf65353147b6bd3e286ddc0beb060dd49511f8940da67b58a0b70bf083b7f3588890299f814a7165af867f8658001887ffffffffffffff094bbbf5374fce5edbc8e2a8697c15331677e6ebf0b0a801ca0949173aa91b1c62177a9d37740fcf7ecd6ab08cd1a0e7323fd61f5c5dbfd6b74a0392dbbe386b82a50d6af8e9c634002809a6601227f35c44af9eedf434a9be818c0",
                "transactions" : [
                    {
                        "data" : "",
                        "gasLimit" : "0x7ffffffffffffff0",
                        "gasPrice" : "0x01",
                        "nonce" : "0x00",
                        "r" : "0x949173aa91b1c62177a9d37740fcf7ecd6ab08cd1a0e7323fd61f5c5dbfd6b74",
                        "s" : "0x392dbbe386b82a50d6af8e9c634002809a6601227f35c44af9eedf434a9be818",
                        "to" : "0xbbbf5374fce5edbc8e2a8697c15331677e6ebf0b",
                        "v" : "0x1c",
                        "value" : "0x0a"
                    }
                ],
                "uncleHeaders" : [
                ]
            }
        ],
        "genesisBlockHeader" : {
            "bloom" : "0x00000000000000000000000000000000000000000000000000000000000000000000000000000000000000000000000000000000000000000000000000000000000000000000000000000000000000000000000000000000000000000000000000000000000000000000000000000000000000000000000000000000000000000000000000000000000000000000000000000000000000000000000000000000000000000000000000000000000000000000000000000000000000000000000000000000000000000000000000000000000000000000000000000000000000000000000000000000000000000000000000000000000000000000000000000000",
            "coinbase" : "0x2adc25665018aa1fe0e6bc666dac8fc2697ff9ba",
            "difficulty" : "0x020000",
            "extraData" : "0x42",
            "gasLimit" : "0x7fffffffffffffff",
            "gasUsed" : "0x00",
            "hash" : "0xb3e7c21e3a0f8cb189e9ee35ca3666dbc629f1266dff806fa1913ceb6f35bcea",
            "mixHash" : "0x56e81f171bcc55a6ff8345e692c0f86e5b48e01b996cadc001622fb5e363b421",
            "nonce" : "0x0102030405060708",
            "number" : "0x00",
            "parentHash" : "0x0000000000000000000000000000000000000000000000000000000000000000",
            "receiptTrie" : "0x56e81f171bcc55a6ff8345e692c0f86e5b48e01b996cadc001622fb5e363b421",
            "stateRoot" : "0x482bdc3fee00d6747e03877bbf2c19e5ddf26c72f366e831ca65b6d4ca2187bf",
            "timestamp" : "0x03b6",
            "transactionsTrie" : "0x56e81f171bcc55a6ff8345e692c0f86e5b48e01b996cadc001622fb5e363b421",
            "uncleHash" : "0x1dcc4de8dec75d7aab85b567b6ccd41ad312451b948a7413f0a142fd40d49347"
        },
        "genesisRLP" : "0xf901fff901faa00000000000000000000000000000000000000000000000000000000000000000a01dcc4de8dec75d7aab85b567b6ccd41ad312451b948a7413f0a142fd40d49347942adc25665018aa1fe0e6bc666dac8fc2697ff9baa0482bdc3fee00d6747e03877bbf2c19e5ddf26c72f366e831ca65b6d4ca2187bfa056e81f171bcc55a6ff8345e692c0f86e5b48e01b996cadc001622fb5e363b421a056e81f171bcc55a6ff8345e692c0f86e5b48e01b996cadc001622fb5e363b421b90100000000000000000000000000000000000000000000000000000000000000000000000000000000000000000000000000000000000000000000000000000000000000000000000000000000000000000000000000000000000000000000000000000000000000000000000000000000000000000000000000000000000000000000000000000000000000000000000000000000000000000000000000000000000000000000000000000000000000000000000000000000000000000000000000000000000000000000000000000000000000000000000000000000000000000000000000000000000000000000000000000000000000000000000000000000008302000080887fffffffffffffff808203b642a056e81f171bcc55a6ff8345e692c0f86e5b48e01b996cadc001622fb5e363b421880102030405060708c0c0",
        "lastblockhash" : "0xba6ed3ce7c8ce2878b6daa43971b3494d7b8bd42594b76e08592fe60a79e064e",
        "network" : "EIP158",
        "postState" : {
            "0x2adc25665018aa1fe0e6bc666dac8fc2697ff9ba" : {
                "balance" : "0x45639182460bbce4",
                "code" : "",
                "nonce" : "0x00",
                "storage" : {
                }
            },
            "0xa94f5374fce5edbc8e2a8697c15331677e6ebf0b" : {
                "balance" : "0xfffffffffffffffffffffffffee84311",
                "code" : "",
                "nonce" : "0x01",
                "storage" : {
                }
            },
            "0xaaaf5374fce5edbc8e2a8697c15331677e6ebf0b" : {
                "balance" : "0x1b58",
                "code" : "",
                "nonce" : "0x00",
                "storage" : {
                }
            },
            "0xbbbf5374fce5edbc8e2a8697c15331677e6ebf0b" : {
                "balance" : "0x040a",
                "code" : "0x600160005401600055600060006000600060005473bbbf5374fce5edbc8e2a8697c15331677e6ebf0b650ffffffffffff2600155",
                "nonce" : "0x00",
                "storage" : {
                    "0x00" : "0x0401",
                    "0x01" : "0x01"
                }
            }
        },
        "pre" : {
            "0xa94f5374fce5edbc8e2a8697c15331677e6ebf0b" : {
                "balance" : "0xffffffffffffffffffffffffffffffff",
                "code" : "",
                "nonce" : "0x00",
                "storage" : {
                }
            },
            "0xaaaf5374fce5edbc8e2a8697c15331677e6ebf0b" : {
                "balance" : "0x1b58",
                "code" : "",
                "nonce" : "0x00",
                "storage" : {
                }
            },
            "0xbbbf5374fce5edbc8e2a8697c15331677e6ebf0b" : {
                "balance" : "0x0400",
                "code" : "0x600160005401600055600060006000600060005473bbbf5374fce5edbc8e2a8697c15331677e6ebf0b650ffffffffffff2600155",
                "nonce" : "0x00",
                "storage" : {
                }
            }
        }
    },
    "Callcode1024BalanceTooLow_d0g0v0_Frontier" : {
        "_info" : {
            "comment" : "",
            "filledwith" : "cpp-1.3.0+commit.16292201.Linux.g++",
            "source" : "/src/GenStateTestAsBcTemp/stChangedEIP150/Callcode1024BalanceTooLow_d0g0v0Filler.json"
        },
        "blocks" : [
            {
                "blockHeader" : {
                    "bloom" : "0x00000000000000000000000000000000000000000000000000000000000000000000000000000000000000000000000000000000000000000000000000000000000000000000000000000000000000000000000000000000000000000000000000000000000000000000000000000000000000000000000000000000000000000000000000000000000000000000000000000000000000000000000000000000000000000000000000000000000000000000000000000000000000000000000000000000000000000000000000000000000000000000000000000000000000000000000000000000000000000000000000000000000000000000000000000000",
                    "coinbase" : "0x2adc25665018aa1fe0e6bc666dac8fc2697ff9ba",
                    "difficulty" : "0x020000",
                    "extraData" : "",
                    "gasLimit" : "0x7fffffffffffffff",
                    "gasUsed" : "0x10000000d787",
                    "hash" : "0xc4732187b7ff006dc3ecd5f7e5b889b9d52a2e472bced25ec39fa082b169cb58",
                    "mixHash" : "0x124385aa54bbfb6c93fc74b45b20614f7b1e2ca0de6c4f509e39f4373f3bcda5",
                    "nonce" : "0x81d46be5460e3084",
                    "number" : "0x01",
                    "parentHash" : "0xb3e7c21e3a0f8cb189e9ee35ca3666dbc629f1266dff806fa1913ceb6f35bcea",
                    "receiptTrie" : "0x15122440f1756027edc1ae4a387ca9947cdaf5539eb2f05f5887215479a932e2",
                    "stateRoot" : "0xacbbd40f8e0d6dee7ca8963df1133468cb31bd43e6cc10345a73891da97aef02",
                    "timestamp" : "0x03e8",
                    "transactionsTrie" : "0x5d603792494b9643291b80b9dbc9d5fba242d8bfa214f915b041f1e91cf6c9ca",
                    "uncleHash" : "0x1dcc4de8dec75d7aab85b567b6ccd41ad312451b948a7413f0a142fd40d49347"
                },
                "rlp" : "0xf9026df90200a0b3e7c21e3a0f8cb189e9ee35ca3666dbc629f1266dff806fa1913ceb6f35bceaa01dcc4de8dec75d7aab85b567b6ccd41ad312451b948a7413f0a142fd40d49347942adc25665018aa1fe0e6bc666dac8fc2697ff9baa0acbbd40f8e0d6dee7ca8963df1133468cb31bd43e6cc10345a73891da97aef02a05d603792494b9643291b80b9dbc9d5fba242d8bfa214f915b041f1e91cf6c9caa015122440f1756027edc1ae4a387ca9947cdaf5539eb2f05f5887215479a932e2b90100000000000000000000000000000000000000000000000000000000000000000000000000000000000000000000000000000000000000000000000000000000000000000000000000000000000000000000000000000000000000000000000000000000000000000000000000000000000000000000000000000000000000000000000000000000000000000000000000000000000000000000000000000000000000000000000000000000000000000000000000000000000000000000000000000000000000000000000000000000000000000000000000000000000000000000000000000000000000000000000000000000000000000000000000000000008302000001887fffffffffffffff8610000000d7878203e880a0124385aa54bbfb6c93fc74b45b20614f7b1e2ca0de6c4f509e39f4373f3bcda58881d46be5460e3084f867f8658001887ffffffffffffff094bbbf5374fce5edbc8e2a8697c15331677e6ebf0b0a801ca0949173aa91b1c62177a9d37740fcf7ecd6ab08cd1a0e7323fd61f5c5dbfd6b74a0392dbbe386b82a50d6af8e9c634002809a6601227f35c44af9eedf434a9be818c0",
                "transactions" : [
                    {
                        "data" : "",
                        "gasLimit" : "0x7ffffffffffffff0",
                        "gasPrice" : "0x01",
                        "nonce" : "0x00",
                        "r" : "0x949173aa91b1c62177a9d37740fcf7ecd6ab08cd1a0e7323fd61f5c5dbfd6b74",
                        "s" : "0x392dbbe386b82a50d6af8e9c634002809a6601227f35c44af9eedf434a9be818",
                        "to" : "0xbbbf5374fce5edbc8e2a8697c15331677e6ebf0b",
                        "v" : "0x1c",
                        "value" : "0x0a"
                    }
                ],
                "uncleHeaders" : [
                ]
            }
        ],
        "genesisBlockHeader" : {
            "bloom" : "0x00000000000000000000000000000000000000000000000000000000000000000000000000000000000000000000000000000000000000000000000000000000000000000000000000000000000000000000000000000000000000000000000000000000000000000000000000000000000000000000000000000000000000000000000000000000000000000000000000000000000000000000000000000000000000000000000000000000000000000000000000000000000000000000000000000000000000000000000000000000000000000000000000000000000000000000000000000000000000000000000000000000000000000000000000000000",
            "coinbase" : "0x2adc25665018aa1fe0e6bc666dac8fc2697ff9ba",
            "difficulty" : "0x020000",
            "extraData" : "0x42",
            "gasLimit" : "0x7fffffffffffffff",
            "gasUsed" : "0x00",
            "hash" : "0xb3e7c21e3a0f8cb189e9ee35ca3666dbc629f1266dff806fa1913ceb6f35bcea",
            "mixHash" : "0x56e81f171bcc55a6ff8345e692c0f86e5b48e01b996cadc001622fb5e363b421",
            "nonce" : "0x0102030405060708",
            "number" : "0x00",
            "parentHash" : "0x0000000000000000000000000000000000000000000000000000000000000000",
            "receiptTrie" : "0x56e81f171bcc55a6ff8345e692c0f86e5b48e01b996cadc001622fb5e363b421",
            "stateRoot" : "0x482bdc3fee00d6747e03877bbf2c19e5ddf26c72f366e831ca65b6d4ca2187bf",
            "timestamp" : "0x03b6",
            "transactionsTrie" : "0x56e81f171bcc55a6ff8345e692c0f86e5b48e01b996cadc001622fb5e363b421",
            "uncleHash" : "0x1dcc4de8dec75d7aab85b567b6ccd41ad312451b948a7413f0a142fd40d49347"
        },
        "genesisRLP" : "0xf901fff901faa00000000000000000000000000000000000000000000000000000000000000000a01dcc4de8dec75d7aab85b567b6ccd41ad312451b948a7413f0a142fd40d49347942adc25665018aa1fe0e6bc666dac8fc2697ff9baa0482bdc3fee00d6747e03877bbf2c19e5ddf26c72f366e831ca65b6d4ca2187bfa056e81f171bcc55a6ff8345e692c0f86e5b48e01b996cadc001622fb5e363b421a056e81f171bcc55a6ff8345e692c0f86e5b48e01b996cadc001622fb5e363b421b90100000000000000000000000000000000000000000000000000000000000000000000000000000000000000000000000000000000000000000000000000000000000000000000000000000000000000000000000000000000000000000000000000000000000000000000000000000000000000000000000000000000000000000000000000000000000000000000000000000000000000000000000000000000000000000000000000000000000000000000000000000000000000000000000000000000000000000000000000000000000000000000000000000000000000000000000000000000000000000000000000000000000000000000000000000000008302000080887fffffffffffffff808203b642a056e81f171bcc55a6ff8345e692c0f86e5b48e01b996cadc001622fb5e363b421880102030405060708c0c0",
        "lastblockhash" : "0xc4732187b7ff006dc3ecd5f7e5b889b9d52a2e472bced25ec39fa082b169cb58",
        "network" : "Frontier",
        "postState" : {
            "0x2adc25665018aa1fe0e6bc666dac8fc2697ff9ba" : {
                "balance" : "0x4563a18244f4d787",
                "code" : "",
                "nonce" : "0x00",
                "storage" : {
                }
            },
            "0xa94f5374fce5edbc8e2a8697c15331677e6ebf0b" : {
                "balance" : "0xffffffffffffffffffffefffffff286e",
                "code" : "",
                "nonce" : "0x01",
                "storage" : {
                }
            },
            "0xaaaf5374fce5edbc8e2a8697c15331677e6ebf0b" : {
                "balance" : "0x1b58",
                "code" : "",
                "nonce" : "0x00",
                "storage" : {
                }
            },
            "0xbbbf5374fce5edbc8e2a8697c15331677e6ebf0b" : {
                "balance" : "0x040a",
                "code" : "0x600160005401600055600060006000600060005473bbbf5374fce5edbc8e2a8697c15331677e6ebf0b650ffffffffffff2600155",
                "nonce" : "0x00",
                "storage" : {
                    "0x00" : "0x01"
                }
            }
        },
        "pre" : {
            "0xa94f5374fce5edbc8e2a8697c15331677e6ebf0b" : {
                "balance" : "0xffffffffffffffffffffffffffffffff",
                "code" : "",
                "nonce" : "0x00",
                "storage" : {
                }
            },
            "0xaaaf5374fce5edbc8e2a8697c15331677e6ebf0b" : {
                "balance" : "0x1b58",
                "code" : "",
                "nonce" : "0x00",
                "storage" : {
                }
            },
            "0xbbbf5374fce5edbc8e2a8697c15331677e6ebf0b" : {
                "balance" : "0x0400",
                "code" : "0x600160005401600055600060006000600060005473bbbf5374fce5edbc8e2a8697c15331677e6ebf0b650ffffffffffff2600155",
                "nonce" : "0x00",
                "storage" : {
                }
            }
        }
    },
    "Callcode1024BalanceTooLow_d0g0v0_Homestead" : {
        "_info" : {
            "comment" : "",
            "filledwith" : "cpp-1.3.0+commit.16292201.Linux.g++",
            "source" : "/src/GenStateTestAsBcTemp/stChangedEIP150/Callcode1024BalanceTooLow_d0g0v0Filler.json"
        },
        "blocks" : [
            {
                "blockHeader" : {
                    "bloom" : "0x00000000000000000000000000000000000000000000000000000000000000000000000000000000000000000000000000000000000000000000000000000000000000000000000000000000000000000000000000000000000000000000000000000000000000000000000000000000000000000000000000000000000000000000000000000000000000000000000000000000000000000000000000000000000000000000000000000000000000000000000000000000000000000000000000000000000000000000000000000000000000000000000000000000000000000000000000000000000000000000000000000000000000000000000000000000",
                    "coinbase" : "0x2adc25665018aa1fe0e6bc666dac8fc2697ff9ba",
                    "difficulty" : "0x020000",
                    "extraData" : "",
                    "gasLimit" : "0x7fffffffffffffff",
                    "gasUsed" : "0x10000000d787",
                    "hash" : "0x651625804c6abab9090e20ec6ef0daa567170be9d837b14d10cf51d365c48c61",
                    "mixHash" : "0x97caebfcec6114fc369005170c1291ae7fe2df437955baf04bbbcc7b015a32eb",
                    "nonce" : "0x57877b11dbfd7364",
                    "number" : "0x01",
                    "parentHash" : "0xb3e7c21e3a0f8cb189e9ee35ca3666dbc629f1266dff806fa1913ceb6f35bcea",
                    "receiptTrie" : "0x15122440f1756027edc1ae4a387ca9947cdaf5539eb2f05f5887215479a932e2",
                    "stateRoot" : "0xacbbd40f8e0d6dee7ca8963df1133468cb31bd43e6cc10345a73891da97aef02",
                    "timestamp" : "0x03e8",
                    "transactionsTrie" : "0x5d603792494b9643291b80b9dbc9d5fba242d8bfa214f915b041f1e91cf6c9ca",
                    "uncleHash" : "0x1dcc4de8dec75d7aab85b567b6ccd41ad312451b948a7413f0a142fd40d49347"
                },
                "rlp" : "0xf9026df90200a0b3e7c21e3a0f8cb189e9ee35ca3666dbc629f1266dff806fa1913ceb6f35bceaa01dcc4de8dec75d7aab85b567b6ccd41ad312451b948a7413f0a142fd40d49347942adc25665018aa1fe0e6bc666dac8fc2697ff9baa0acbbd40f8e0d6dee7ca8963df1133468cb31bd43e6cc10345a73891da97aef02a05d603792494b9643291b80b9dbc9d5fba242d8bfa214f915b041f1e91cf6c9caa015122440f1756027edc1ae4a387ca9947cdaf5539eb2f05f5887215479a932e2b90100000000000000000000000000000000000000000000000000000000000000000000000000000000000000000000000000000000000000000000000000000000000000000000000000000000000000000000000000000000000000000000000000000000000000000000000000000000000000000000000000000000000000000000000000000000000000000000000000000000000000000000000000000000000000000000000000000000000000000000000000000000000000000000000000000000000000000000000000000000000000000000000000000000000000000000000000000000000000000000000000000000000000000000000000000000008302000001887fffffffffffffff8610000000d7878203e880a097caebfcec6114fc369005170c1291ae7fe2df437955baf04bbbcc7b015a32eb8857877b11dbfd7364f867f8658001887ffffffffffffff094bbbf5374fce5edbc8e2a8697c15331677e6ebf0b0a801ca0949173aa91b1c62177a9d37740fcf7ecd6ab08cd1a0e7323fd61f5c5dbfd6b74a0392dbbe386b82a50d6af8e9c634002809a6601227f35c44af9eedf434a9be818c0",
                "transactions" : [
                    {
                        "data" : "",
                        "gasLimit" : "0x7ffffffffffffff0",
                        "gasPrice" : "0x01",
                        "nonce" : "0x00",
                        "r" : "0x949173aa91b1c62177a9d37740fcf7ecd6ab08cd1a0e7323fd61f5c5dbfd6b74",
                        "s" : "0x392dbbe386b82a50d6af8e9c634002809a6601227f35c44af9eedf434a9be818",
                        "to" : "0xbbbf5374fce5edbc8e2a8697c15331677e6ebf0b",
                        "v" : "0x1c",
                        "value" : "0x0a"
                    }
                ],
                "uncleHeaders" : [
                ]
            }
        ],
        "genesisBlockHeader" : {
            "bloom" : "0x00000000000000000000000000000000000000000000000000000000000000000000000000000000000000000000000000000000000000000000000000000000000000000000000000000000000000000000000000000000000000000000000000000000000000000000000000000000000000000000000000000000000000000000000000000000000000000000000000000000000000000000000000000000000000000000000000000000000000000000000000000000000000000000000000000000000000000000000000000000000000000000000000000000000000000000000000000000000000000000000000000000000000000000000000000000",
            "coinbase" : "0x2adc25665018aa1fe0e6bc666dac8fc2697ff9ba",
            "difficulty" : "0x020000",
            "extraData" : "0x42",
            "gasLimit" : "0x7fffffffffffffff",
            "gasUsed" : "0x00",
            "hash" : "0xb3e7c21e3a0f8cb189e9ee35ca3666dbc629f1266dff806fa1913ceb6f35bcea",
            "mixHash" : "0x56e81f171bcc55a6ff8345e692c0f86e5b48e01b996cadc001622fb5e363b421",
            "nonce" : "0x0102030405060708",
            "number" : "0x00",
            "parentHash" : "0x0000000000000000000000000000000000000000000000000000000000000000",
            "receiptTrie" : "0x56e81f171bcc55a6ff8345e692c0f86e5b48e01b996cadc001622fb5e363b421",
            "stateRoot" : "0x482bdc3fee00d6747e03877bbf2c19e5ddf26c72f366e831ca65b6d4ca2187bf",
            "timestamp" : "0x03b6",
            "transactionsTrie" : "0x56e81f171bcc55a6ff8345e692c0f86e5b48e01b996cadc001622fb5e363b421",
            "uncleHash" : "0x1dcc4de8dec75d7aab85b567b6ccd41ad312451b948a7413f0a142fd40d49347"
        },
        "genesisRLP" : "0xf901fff901faa00000000000000000000000000000000000000000000000000000000000000000a01dcc4de8dec75d7aab85b567b6ccd41ad312451b948a7413f0a142fd40d49347942adc25665018aa1fe0e6bc666dac8fc2697ff9baa0482bdc3fee00d6747e03877bbf2c19e5ddf26c72f366e831ca65b6d4ca2187bfa056e81f171bcc55a6ff8345e692c0f86e5b48e01b996cadc001622fb5e363b421a056e81f171bcc55a6ff8345e692c0f86e5b48e01b996cadc001622fb5e363b421b90100000000000000000000000000000000000000000000000000000000000000000000000000000000000000000000000000000000000000000000000000000000000000000000000000000000000000000000000000000000000000000000000000000000000000000000000000000000000000000000000000000000000000000000000000000000000000000000000000000000000000000000000000000000000000000000000000000000000000000000000000000000000000000000000000000000000000000000000000000000000000000000000000000000000000000000000000000000000000000000000000000000000000000000000000000000008302000080887fffffffffffffff808203b642a056e81f171bcc55a6ff8345e692c0f86e5b48e01b996cadc001622fb5e363b421880102030405060708c0c0",
        "lastblockhash" : "0x651625804c6abab9090e20ec6ef0daa567170be9d837b14d10cf51d365c48c61",
        "network" : "Homestead",
        "postState" : {
            "0x2adc25665018aa1fe0e6bc666dac8fc2697ff9ba" : {
                "balance" : "0x4563a18244f4d787",
                "code" : "",
                "nonce" : "0x00",
                "storage" : {
                }
            },
            "0xa94f5374fce5edbc8e2a8697c15331677e6ebf0b" : {
                "balance" : "0xffffffffffffffffffffefffffff286e",
                "code" : "",
                "nonce" : "0x01",
                "storage" : {
                }
            },
            "0xaaaf5374fce5edbc8e2a8697c15331677e6ebf0b" : {
                "balance" : "0x1b58",
                "code" : "",
                "nonce" : "0x00",
                "storage" : {
                }
            },
            "0xbbbf5374fce5edbc8e2a8697c15331677e6ebf0b" : {
                "balance" : "0x040a",
                "code" : "0x600160005401600055600060006000600060005473bbbf5374fce5edbc8e2a8697c15331677e6ebf0b650ffffffffffff2600155",
                "nonce" : "0x00",
                "storage" : {
                    "0x00" : "0x01"
                }
            }
        },
        "pre" : {
            "0xa94f5374fce5edbc8e2a8697c15331677e6ebf0b" : {
                "balance" : "0xffffffffffffffffffffffffffffffff",
                "code" : "",
                "nonce" : "0x00",
                "storage" : {
                }
            },
            "0xaaaf5374fce5edbc8e2a8697c15331677e6ebf0b" : {
                "balance" : "0x1b58",
                "code" : "",
                "nonce" : "0x00",
                "storage" : {
                }
            },
            "0xbbbf5374fce5edbc8e2a8697c15331677e6ebf0b" : {
                "balance" : "0x0400",
                "code" : "0x600160005401600055600060006000600060005473bbbf5374fce5edbc8e2a8697c15331677e6ebf0b650ffffffffffff2600155",
                "nonce" : "0x00",
                "storage" : {
                }
            }
        }
    },
    "Callcode1024BalanceTooLow_d0g0v0_Metropolis" : {
        "_info" : {
            "comment" : "",
            "filledwith" : "cpp-1.3.0+commit.16292201.Linux.g++",
            "source" : "/src/GenStateTestAsBcTemp/stChangedEIP150/Callcode1024BalanceTooLow_d0g0v0Filler.json"
        },
        "blocks" : [
            {
                "blockHeader" : {
                    "bloom" : "0x00000000000000000000000000000000000000000000000000000000000000000000000000000000000000000000000000000000000000000000000000000000000000000000000000000000000000000000000000000000000000000000000000000000000000000000000000000000000000000000000000000000000000000000000000000000000000000000000000000000000000000000000000000000000000000000000000000000000000000000000000000000000000000000000000000000000000000000000000000000000000000000000000000000000000000000000000000000000000000000000000000000000000000000000000000000",
                    "coinbase" : "0x2adc25665018aa1fe0e6bc666dac8fc2697ff9ba",
                    "difficulty" : "0x020000",
                    "extraData" : "",
                    "gasLimit" : "0x7fffffffffffffff",
                    "gasUsed" : "0x0117bce4",
                    "hash" : "0xf61f051b7e495a4cee5fdbb7c597a7ab4e434bc68483c6ef218b11bb755e0714",
                    "mixHash" : "0x84da895a793e16202cd99c4f2f481682a32880046b2f4519feb408cf895dd970",
                    "nonce" : "0xfab4cc92174212e3",
                    "number" : "0x01",
                    "parentHash" : "0xb3e7c21e3a0f8cb189e9ee35ca3666dbc629f1266dff806fa1913ceb6f35bcea",
                    "receiptTrie" : "0x3916ef002c14f35e24fbec7580b490cc1be018bf8705486ce2c1f5ed5e11548b",
                    "stateRoot" : "0x1b7e0c2c9b48103f4dc473f5ba9256186bde94598284dcd49e381cb40a789a50",
                    "timestamp" : "0x03e8",
                    "transactionsTrie" : "0x5d603792494b9643291b80b9dbc9d5fba242d8bfa214f915b041f1e91cf6c9ca",
                    "uncleHash" : "0x1dcc4de8dec75d7aab85b567b6ccd41ad312451b948a7413f0a142fd40d49347"
                },
                "rlp" : "0xf9026bf901fea0b3e7c21e3a0f8cb189e9ee35ca3666dbc629f1266dff806fa1913ceb6f35bceaa01dcc4de8dec75d7aab85b567b6ccd41ad312451b948a7413f0a142fd40d49347942adc25665018aa1fe0e6bc666dac8fc2697ff9baa01b7e0c2c9b48103f4dc473f5ba9256186bde94598284dcd49e381cb40a789a50a05d603792494b9643291b80b9dbc9d5fba242d8bfa214f915b041f1e91cf6c9caa03916ef002c14f35e24fbec7580b490cc1be018bf8705486ce2c1f5ed5e11548bb90100000000000000000000000000000000000000000000000000000000000000000000000000000000000000000000000000000000000000000000000000000000000000000000000000000000000000000000000000000000000000000000000000000000000000000000000000000000000000000000000000000000000000000000000000000000000000000000000000000000000000000000000000000000000000000000000000000000000000000000000000000000000000000000000000000000000000000000000000000000000000000000000000000000000000000000000000000000000000000000000000000000000000000000000000000000008302000001887fffffffffffffff840117bce48203e880a084da895a793e16202cd99c4f2f481682a32880046b2f4519feb408cf895dd97088fab4cc92174212e3f867f8658001887ffffffffffffff094bbbf5374fce5edbc8e2a8697c15331677e6ebf0b0a801ca0949173aa91b1c62177a9d37740fcf7ecd6ab08cd1a0e7323fd61f5c5dbfd6b74a0392dbbe386b82a50d6af8e9c634002809a6601227f35c44af9eedf434a9be818c0",
                "transactions" : [
                    {
                        "data" : "",
                        "gasLimit" : "0x7ffffffffffffff0",
                        "gasPrice" : "0x01",
                        "nonce" : "0x00",
                        "r" : "0x949173aa91b1c62177a9d37740fcf7ecd6ab08cd1a0e7323fd61f5c5dbfd6b74",
                        "s" : "0x392dbbe386b82a50d6af8e9c634002809a6601227f35c44af9eedf434a9be818",
                        "to" : "0xbbbf5374fce5edbc8e2a8697c15331677e6ebf0b",
                        "v" : "0x1c",
                        "value" : "0x0a"
                    }
                ],
                "uncleHeaders" : [
                ]
            }
        ],
        "genesisBlockHeader" : {
            "bloom" : "0x00000000000000000000000000000000000000000000000000000000000000000000000000000000000000000000000000000000000000000000000000000000000000000000000000000000000000000000000000000000000000000000000000000000000000000000000000000000000000000000000000000000000000000000000000000000000000000000000000000000000000000000000000000000000000000000000000000000000000000000000000000000000000000000000000000000000000000000000000000000000000000000000000000000000000000000000000000000000000000000000000000000000000000000000000000000",
            "coinbase" : "0x2adc25665018aa1fe0e6bc666dac8fc2697ff9ba",
            "difficulty" : "0x020000",
            "extraData" : "0x42",
            "gasLimit" : "0x7fffffffffffffff",
            "gasUsed" : "0x00",
            "hash" : "0xb3e7c21e3a0f8cb189e9ee35ca3666dbc629f1266dff806fa1913ceb6f35bcea",
            "mixHash" : "0x56e81f171bcc55a6ff8345e692c0f86e5b48e01b996cadc001622fb5e363b421",
            "nonce" : "0x0102030405060708",
            "number" : "0x00",
            "parentHash" : "0x0000000000000000000000000000000000000000000000000000000000000000",
            "receiptTrie" : "0x56e81f171bcc55a6ff8345e692c0f86e5b48e01b996cadc001622fb5e363b421",
            "stateRoot" : "0x482bdc3fee00d6747e03877bbf2c19e5ddf26c72f366e831ca65b6d4ca2187bf",
            "timestamp" : "0x03b6",
            "transactionsTrie" : "0x56e81f171bcc55a6ff8345e692c0f86e5b48e01b996cadc001622fb5e363b421",
            "uncleHash" : "0x1dcc4de8dec75d7aab85b567b6ccd41ad312451b948a7413f0a142fd40d49347"
        },
        "genesisRLP" : "0xf901fff901faa00000000000000000000000000000000000000000000000000000000000000000a01dcc4de8dec75d7aab85b567b6ccd41ad312451b948a7413f0a142fd40d49347942adc25665018aa1fe0e6bc666dac8fc2697ff9baa0482bdc3fee00d6747e03877bbf2c19e5ddf26c72f366e831ca65b6d4ca2187bfa056e81f171bcc55a6ff8345e692c0f86e5b48e01b996cadc001622fb5e363b421a056e81f171bcc55a6ff8345e692c0f86e5b48e01b996cadc001622fb5e363b421b90100000000000000000000000000000000000000000000000000000000000000000000000000000000000000000000000000000000000000000000000000000000000000000000000000000000000000000000000000000000000000000000000000000000000000000000000000000000000000000000000000000000000000000000000000000000000000000000000000000000000000000000000000000000000000000000000000000000000000000000000000000000000000000000000000000000000000000000000000000000000000000000000000000000000000000000000000000000000000000000000000000000000000000000000000000000008302000080887fffffffffffffff808203b642a056e81f171bcc55a6ff8345e692c0f86e5b48e01b996cadc001622fb5e363b421880102030405060708c0c0",
        "lastblockhash" : "0xf61f051b7e495a4cee5fdbb7c597a7ab4e434bc68483c6ef218b11bb755e0714",
        "network" : "Metropolis",
        "postState" : {
            "0x00000000000000000000000000000000000000f0" : {
                "balance" : "0x00",
                "code" : "",
                "nonce" : "0x00",
                "storage" : {
                }
            },
            "0x2adc25665018aa1fe0e6bc666dac8fc2697ff9ba" : {
                "balance" : "0x45639182460bbce4",
                "code" : "",
                "nonce" : "0x00",
                "storage" : {
                }
            },
            "0xa94f5374fce5edbc8e2a8697c15331677e6ebf0b" : {
                "balance" : "0xfffffffffffffffffffffffffee84311",
                "code" : "",
                "nonce" : "0x01",
                "storage" : {
                }
            },
            "0xaaaf5374fce5edbc8e2a8697c15331677e6ebf0b" : {
                "balance" : "0x1b58",
                "code" : "",
                "nonce" : "0x00",
                "storage" : {
                }
            },
            "0xbbbf5374fce5edbc8e2a8697c15331677e6ebf0b" : {
                "balance" : "0x040a",
                "code" : "0x600160005401600055600060006000600060005473bbbf5374fce5edbc8e2a8697c15331677e6ebf0b650ffffffffffff2600155",
                "nonce" : "0x00",
                "storage" : {
                    "0x00" : "0x0401",
                    "0x01" : "0x01"
                }
            }
        },
        "pre" : {
            "0xa94f5374fce5edbc8e2a8697c15331677e6ebf0b" : {
                "balance" : "0xffffffffffffffffffffffffffffffff",
                "code" : "",
                "nonce" : "0x00",
                "storage" : {
                }
            },
            "0xaaaf5374fce5edbc8e2a8697c15331677e6ebf0b" : {
                "balance" : "0x1b58",
                "code" : "",
                "nonce" : "0x00",
                "storage" : {
                }
            },
            "0xbbbf5374fce5edbc8e2a8697c15331677e6ebf0b" : {
                "balance" : "0x0400",
                "code" : "0x600160005401600055600060006000600060005473bbbf5374fce5edbc8e2a8697c15331677e6ebf0b650ffffffffffff2600155",
                "nonce" : "0x00",
                "storage" : {
                }
            }
        }
    }
}