{
    "RawCallCodeGas_d0g0v0_Byzantium" : {
        "_info" : {
            "comment" : "",
            "filledwith" : "cpp-1.3.0+commit.8fb57c56.Linux.g++",
            "lllcversion" : "Version: 0.4.20-develop.2018.1.8+commit.2548228b.Linux.g++",
            "source" : "src/BlockchainTestsFiller/GeneralStateTests/stEIP150singleCodeGasPrices/RawCallCodeGas_d0g0v0Filler.json",
            "sourceHash" : "bc0c4e01ff243bbbb9a32e21bba2af1621646176cfd5bbf5e4f74f9ba61ca59f"
        },
        "blocks" : [
            {
                "blockHeader" : {
                    "bloom" : "0x00000000000000000000000000000000000000000000000000000000000000000000000000000000000000000000000000000000000000000000000000000000000000000000000000000000000000000000000000000000000000000000000000000000000000000000000000000000000000000000000000000000000000000000000000000000000000000000000000000000000000000000000000000000000000000000000000000000000000000000000000000000000000000000000000000000000000000000000000000000000000000000000000000000000000000000000000000000000000000000000000000000000000000000000000000000",
                    "coinbase" : "0x2adc25665018aa1fe0e6bc666dac8fc2697ff9ba",
                    "difficulty" : "0x020000",
                    "extraData" : "",
                    "gasLimit" : "0x989680",
                    "gasUsed" : "0x013f4a",
                    "hash" : "0xa110ddfad6b2016e13235f13e6750ba3d29666c60f300d19d2ef110b02b26730",
                    "mixHash" : "0x1196fb56f9b3e1a5bd47e457a5d3a9864c390ad569dbbdf24b41ba40d7bf289a",
                    "nonce" : "0x046368a90bdeaf40",
                    "number" : "0x01",
                    "parentHash" : "0x0e3c1c510a2a601945f30dc63704883022df8e7e047fa6eea860d91a0d130add",
                    "receiptTrie" : "0x7de92491d69322d413d12c072195a4ccdded6440abac9f7d22b88cf674fce11a",
                    "stateRoot" : "0x20deaba5f359aac9433b8efc5b4715ba2b06c4dd047ceb664f27b70641cb5795",
                    "timestamp" : "0x03e8",
                    "transactionsTrie" : "0xc9ef516963b47edfe603957134938a47fa7a07af2a32ff83d7174a3e16e0ac4d",
                    "uncleHash" : "0x1dcc4de8dec75d7aab85b567b6ccd41ad312451b948a7413f0a142fd40d49347"
                },
                "rlp" : "0xf90260f901f8a00e3c1c510a2a601945f30dc63704883022df8e7e047fa6eea860d91a0d130adda01dcc4de8dec75d7aab85b567b6ccd41ad312451b948a7413f0a142fd40d49347942adc25665018aa1fe0e6bc666dac8fc2697ff9baa020deaba5f359aac9433b8efc5b4715ba2b06c4dd047ceb664f27b70641cb5795a0c9ef516963b47edfe603957134938a47fa7a07af2a32ff83d7174a3e16e0ac4da07de92491d69322d413d12c072195a4ccdded6440abac9f7d22b88cf674fce11ab901000000000000000000000000000000000000000000000000000000000000000000000000000000000000000000000000000000000000000000000000000000000000000000000000000000000000000000000000000000000000000000000000000000000000000000000000000000000000000000000000000000000000000000000000000000000000000000000000000000000000000000000000000000000000000000000000000000000000000000000000000000000000000000000000000000000000000000000000000000000000000000000000000000000000000000000000000000000000000000000000000000000000000000000000000000000083020000018398968083013f4a8203e880a01196fb56f9b3e1a5bd47e457a5d3a9864c390ad569dbbdf24b41ba40d7bf289a88046368a90bdeaf40f862f86080018307a12094b94f5374fce5edbc8e2a8697c15331677e6ebf0b80801ca0c64fecd63fb7581111203bc67252e36da223a5425a79a6fd70d7d9095fd37509a0620d962d4f52b72f66b94cecc770faa079838a4a074bc885aa3b6495c33a5268c0",
                "transactions" : [
                    {
                        "data" : "0x",
                        "gasLimit" : "0x07a120",
                        "gasPrice" : "0x01",
                        "nonce" : "0x00",
                        "r" : "0xc64fecd63fb7581111203bc67252e36da223a5425a79a6fd70d7d9095fd37509",
                        "s" : "0x620d962d4f52b72f66b94cecc770faa079838a4a074bc885aa3b6495c33a5268",
                        "to" : "0xb94f5374fce5edbc8e2a8697c15331677e6ebf0b",
                        "v" : "0x1c",
                        "value" : "0x00"
                    }
                ],
                "uncleHeaders" : [
                ]
            }
        ],
        "genesisBlockHeader" : {
            "bloom" : "0x00000000000000000000000000000000000000000000000000000000000000000000000000000000000000000000000000000000000000000000000000000000000000000000000000000000000000000000000000000000000000000000000000000000000000000000000000000000000000000000000000000000000000000000000000000000000000000000000000000000000000000000000000000000000000000000000000000000000000000000000000000000000000000000000000000000000000000000000000000000000000000000000000000000000000000000000000000000000000000000000000000000000000000000000000000000",
            "coinbase" : "0x2adc25665018aa1fe0e6bc666dac8fc2697ff9ba",
            "difficulty" : "0x020000",
            "extraData" : "0x42",
            "gasLimit" : "0x989680",
            "gasUsed" : "0x00",
            "hash" : "0x0e3c1c510a2a601945f30dc63704883022df8e7e047fa6eea860d91a0d130add",
            "mixHash" : "0x56e81f171bcc55a6ff8345e692c0f86e5b48e01b996cadc001622fb5e363b421",
            "nonce" : "0x0102030405060708",
            "number" : "0x00",
            "parentHash" : "0x0000000000000000000000000000000000000000000000000000000000000000",
            "receiptTrie" : "0x56e81f171bcc55a6ff8345e692c0f86e5b48e01b996cadc001622fb5e363b421",
            "stateRoot" : "0x2351c62038c02142fdc332dd9e1914158ede1d9b3a878c0aaf9448a917f808d1",
            "timestamp" : "0x03b6",
            "transactionsTrie" : "0x56e81f171bcc55a6ff8345e692c0f86e5b48e01b996cadc001622fb5e363b421",
            "uncleHash" : "0x1dcc4de8dec75d7aab85b567b6ccd41ad312451b948a7413f0a142fd40d49347"
        },
        "genesisRLP" : "0xf901faf901f5a00000000000000000000000000000000000000000000000000000000000000000a01dcc4de8dec75d7aab85b567b6ccd41ad312451b948a7413f0a142fd40d49347942adc25665018aa1fe0e6bc666dac8fc2697ff9baa02351c62038c02142fdc332dd9e1914158ede1d9b3a878c0aaf9448a917f808d1a056e81f171bcc55a6ff8345e692c0f86e5b48e01b996cadc001622fb5e363b421a056e81f171bcc55a6ff8345e692c0f86e5b48e01b996cadc001622fb5e363b421b9010000000000000000000000000000000000000000000000000000000000000000000000000000000000000000000000000000000000000000000000000000000000000000000000000000000000000000000000000000000000000000000000000000000000000000000000000000000000000000000000000000000000000000000000000000000000000000000000000000000000000000000000000000000000000000000000000000000000000000000000000000000000000000000000000000000000000000000000000000000000000000000000000000000000000000000000000000000000000000000000000000000000000000000000000000000000830200008083989680808203b642a056e81f171bcc55a6ff8345e692c0f86e5b48e01b996cadc001622fb5e363b421880102030405060708c0c0",
        "lastblockhash" : "0xa110ddfad6b2016e13235f13e6750ba3d29666c60f300d19d2ef110b02b26730",
        "network" : "Byzantium",
        "postState" : {
            "0x094f5374fce5edbc8e2a8697c15331677e6ebf0b" : {
                "balance" : "0x00",
                "code" : "0x5a600255",
                "nonce" : "0x00",
                "storage" : {
                }
            },
            "0x2adc25665018aa1fe0e6bc666dac8fc2697ff9ba" : {
                "balance" : "0x29a2241af62d3f4a",
                "code" : "",
                "nonce" : "0x00",
                "storage" : {
                }
            },
            "0xa94f5374fce5edbc8e2a8697c15331677e6ebf0b" : {
                "balance" : "0xe8d4a3d0b6",
                "code" : "",
                "nonce" : "0x01",
                "storage" : {
                }
            },
            "0xb94f5374fce5edbc8e2a8697c15331677e6ebf0b" : {
                "balance" : "0x00",
                "code" : "0x5a6000556000600060006000600073094f5374fce5edbc8e2a8697c15331677e6ebf0b617530f2505a600155",
                "nonce" : "0x00",
                "storage" : {
                    "0x00" : "0x074f16",
                    "0x01" : "0x06aff9",
                    "0x02" : "0x752e"
                }
            }
        },
        "pre" : {
            "0x094f5374fce5edbc8e2a8697c15331677e6ebf0b" : {
                "balance" : "0x00",
                "code" : "0x5a600255",
                "nonce" : "0x00",
                "storage" : {
                }
            },
            "0xa94f5374fce5edbc8e2a8697c15331677e6ebf0b" : {
                "balance" : "0xe8d4a51000",
                "code" : "",
                "nonce" : "0x00",
                "storage" : {
                }
            },
            "0xb94f5374fce5edbc8e2a8697c15331677e6ebf0b" : {
                "balance" : "0x00",
                "code" : "0x5a6000556000600060006000600073094f5374fce5edbc8e2a8697c15331677e6ebf0b617530f2505a600155",
                "nonce" : "0x00",
                "storage" : {
                }
            }
        }
    },
    "RawCallCodeGas_d0g0v0_EIP150" : {
        "_info" : {
            "comment" : "",
            "filledwith" : "cpp-1.3.0+commit.8fb57c56.Linux.g++",
            "lllcversion" : "Version: 0.4.20-develop.2018.1.8+commit.2548228b.Linux.g++",
            "source" : "src/BlockchainTestsFiller/GeneralStateTests/stEIP150singleCodeGasPrices/RawCallCodeGas_d0g0v0Filler.json",
            "sourceHash" : "bc0c4e01ff243bbbb9a32e21bba2af1621646176cfd5bbf5e4f74f9ba61ca59f"
        },
        "blocks" : [
            {
                "blockHeader" : {
                    "bloom" : "0x00000000000000000000000000000000000000000000000000000000000000000000000000000000000000000000000000000000000000000000000000000000000000000000000000000000000000000000000000000000000000000000000000000000000000000000000000000000000000000000000000000000000000000000000000000000000000000000000000000000000000000000000000000000000000000000000000000000000000000000000000000000000000000000000000000000000000000000000000000000000000000000000000000000000000000000000000000000000000000000000000000000000000000000000000000000",
                    "coinbase" : "0x2adc25665018aa1fe0e6bc666dac8fc2697ff9ba",
                    "difficulty" : "0x020000",
                    "extraData" : "",
                    "gasLimit" : "0x989680",
                    "gasUsed" : "0x013f4a",
                    "hash" : "0xef631b9a76b70822f581ec57a922c5ca1cf3f8bb9ceffbdfde0052083fcd3eed",
                    "mixHash" : "0xe3c31fb8b4bef978f890e2a06a7d19c2d9aa564d8dd99b81138107aff8fbc8a9",
                    "nonce" : "0x5412fb55817e208d",
                    "number" : "0x01",
                    "parentHash" : "0x0e3c1c510a2a601945f30dc63704883022df8e7e047fa6eea860d91a0d130add",
                    "receiptTrie" : "0x3062a4a318d25b9f69eb3eccb00e7dfae165881b16c72446244cf4cc4186000c",
                    "stateRoot" : "0xefb35b2f3f58b3844faa14f0b26dd4ffabe3a558d4d1a0a2617e8c0ea1e0fa14",
                    "timestamp" : "0x03e8",
                    "transactionsTrie" : "0xc9ef516963b47edfe603957134938a47fa7a07af2a32ff83d7174a3e16e0ac4d",
                    "uncleHash" : "0x1dcc4de8dec75d7aab85b567b6ccd41ad312451b948a7413f0a142fd40d49347"
                },
                "rlp" : "0xf90260f901f8a00e3c1c510a2a601945f30dc63704883022df8e7e047fa6eea860d91a0d130adda01dcc4de8dec75d7aab85b567b6ccd41ad312451b948a7413f0a142fd40d49347942adc25665018aa1fe0e6bc666dac8fc2697ff9baa0efb35b2f3f58b3844faa14f0b26dd4ffabe3a558d4d1a0a2617e8c0ea1e0fa14a0c9ef516963b47edfe603957134938a47fa7a07af2a32ff83d7174a3e16e0ac4da03062a4a318d25b9f69eb3eccb00e7dfae165881b16c72446244cf4cc4186000cb901000000000000000000000000000000000000000000000000000000000000000000000000000000000000000000000000000000000000000000000000000000000000000000000000000000000000000000000000000000000000000000000000000000000000000000000000000000000000000000000000000000000000000000000000000000000000000000000000000000000000000000000000000000000000000000000000000000000000000000000000000000000000000000000000000000000000000000000000000000000000000000000000000000000000000000000000000000000000000000000000000000000000000000000000000000000083020000018398968083013f4a8203e880a0e3c31fb8b4bef978f890e2a06a7d19c2d9aa564d8dd99b81138107aff8fbc8a9885412fb55817e208df862f86080018307a12094b94f5374fce5edbc8e2a8697c15331677e6ebf0b80801ca0c64fecd63fb7581111203bc67252e36da223a5425a79a6fd70d7d9095fd37509a0620d962d4f52b72f66b94cecc770faa079838a4a074bc885aa3b6495c33a5268c0",
                "transactions" : [
                    {
                        "data" : "0x",
                        "gasLimit" : "0x07a120",
                        "gasPrice" : "0x01",
                        "nonce" : "0x00",
                        "r" : "0xc64fecd63fb7581111203bc67252e36da223a5425a79a6fd70d7d9095fd37509",
                        "s" : "0x620d962d4f52b72f66b94cecc770faa079838a4a074bc885aa3b6495c33a5268",
                        "to" : "0xb94f5374fce5edbc8e2a8697c15331677e6ebf0b",
                        "v" : "0x1c",
                        "value" : "0x00"
                    }
                ],
                "uncleHeaders" : [
                ]
            }
        ],
        "genesisBlockHeader" : {
            "bloom" : "0x00000000000000000000000000000000000000000000000000000000000000000000000000000000000000000000000000000000000000000000000000000000000000000000000000000000000000000000000000000000000000000000000000000000000000000000000000000000000000000000000000000000000000000000000000000000000000000000000000000000000000000000000000000000000000000000000000000000000000000000000000000000000000000000000000000000000000000000000000000000000000000000000000000000000000000000000000000000000000000000000000000000000000000000000000000000",
            "coinbase" : "0x2adc25665018aa1fe0e6bc666dac8fc2697ff9ba",
            "difficulty" : "0x020000",
            "extraData" : "0x42",
            "gasLimit" : "0x989680",
            "gasUsed" : "0x00",
            "hash" : "0x0e3c1c510a2a601945f30dc63704883022df8e7e047fa6eea860d91a0d130add",
            "mixHash" : "0x56e81f171bcc55a6ff8345e692c0f86e5b48e01b996cadc001622fb5e363b421",
            "nonce" : "0x0102030405060708",
            "number" : "0x00",
            "parentHash" : "0x0000000000000000000000000000000000000000000000000000000000000000",
            "receiptTrie" : "0x56e81f171bcc55a6ff8345e692c0f86e5b48e01b996cadc001622fb5e363b421",
            "stateRoot" : "0x2351c62038c02142fdc332dd9e1914158ede1d9b3a878c0aaf9448a917f808d1",
            "timestamp" : "0x03b6",
            "transactionsTrie" : "0x56e81f171bcc55a6ff8345e692c0f86e5b48e01b996cadc001622fb5e363b421",
            "uncleHash" : "0x1dcc4de8dec75d7aab85b567b6ccd41ad312451b948a7413f0a142fd40d49347"
        },
        "genesisRLP" : "0xf901faf901f5a00000000000000000000000000000000000000000000000000000000000000000a01dcc4de8dec75d7aab85b567b6ccd41ad312451b948a7413f0a142fd40d49347942adc25665018aa1fe0e6bc666dac8fc2697ff9baa02351c62038c02142fdc332dd9e1914158ede1d9b3a878c0aaf9448a917f808d1a056e81f171bcc55a6ff8345e692c0f86e5b48e01b996cadc001622fb5e363b421a056e81f171bcc55a6ff8345e692c0f86e5b48e01b996cadc001622fb5e363b421b9010000000000000000000000000000000000000000000000000000000000000000000000000000000000000000000000000000000000000000000000000000000000000000000000000000000000000000000000000000000000000000000000000000000000000000000000000000000000000000000000000000000000000000000000000000000000000000000000000000000000000000000000000000000000000000000000000000000000000000000000000000000000000000000000000000000000000000000000000000000000000000000000000000000000000000000000000000000000000000000000000000000000000000000000000000000000830200008083989680808203b642a056e81f171bcc55a6ff8345e692c0f86e5b48e01b996cadc001622fb5e363b421880102030405060708c0c0",
        "lastblockhash" : "0xef631b9a76b70822f581ec57a922c5ca1cf3f8bb9ceffbdfde0052083fcd3eed",
        "network" : "EIP150",
        "postState" : {
            "0x094f5374fce5edbc8e2a8697c15331677e6ebf0b" : {
                "balance" : "0x00",
                "code" : "0x5a600255",
                "nonce" : "0x00",
                "storage" : {
                }
            },
            "0x2adc25665018aa1fe0e6bc666dac8fc2697ff9ba" : {
                "balance" : "0x4563918244f53f4a",
                "code" : "",
                "nonce" : "0x00",
                "storage" : {
                }
            },
            "0xa94f5374fce5edbc8e2a8697c15331677e6ebf0b" : {
                "balance" : "0xe8d4a3d0b6",
                "code" : "",
                "nonce" : "0x01",
                "storage" : {
                }
            },
            "0xb94f5374fce5edbc8e2a8697c15331677e6ebf0b" : {
                "balance" : "0x00",
                "code" : "0x5a6000556000600060006000600073094f5374fce5edbc8e2a8697c15331677e6ebf0b617530f2505a600155",
                "nonce" : "0x00",
                "storage" : {
                    "0x00" : "0x074f16",
                    "0x01" : "0x06aff9",
                    "0x02" : "0x752e"
                }
            }
        },
        "pre" : {
            "0x094f5374fce5edbc8e2a8697c15331677e6ebf0b" : {
                "balance" : "0x00",
                "code" : "0x5a600255",
                "nonce" : "0x00",
                "storage" : {
                }
            },
            "0xa94f5374fce5edbc8e2a8697c15331677e6ebf0b" : {
                "balance" : "0xe8d4a51000",
                "code" : "",
                "nonce" : "0x00",
                "storage" : {
                }
            },
            "0xb94f5374fce5edbc8e2a8697c15331677e6ebf0b" : {
                "balance" : "0x00",
                "code" : "0x5a6000556000600060006000600073094f5374fce5edbc8e2a8697c15331677e6ebf0b617530f2505a600155",
                "nonce" : "0x00",
                "storage" : {
                }
            }
        }
    },
    "RawCallCodeGas_d0g0v0_Frontier" : {
        "_info" : {
            "comment" : "",
            "filledwith" : "cpp-1.3.0+commit.8fb57c56.Linux.g++",
            "lllcversion" : "Version: 0.4.20-develop.2018.1.8+commit.2548228b.Linux.g++",
            "source" : "src/BlockchainTestsFiller/GeneralStateTests/stEIP150singleCodeGasPrices/RawCallCodeGas_d0g0v0Filler.json",
            "sourceHash" : "bc0c4e01ff243bbbb9a32e21bba2af1621646176cfd5bbf5e4f74f9ba61ca59f"
        },
        "blocks" : [
            {
                "blockHeader" : {
                    "bloom" : "0x00000000000000000000000000000000000000000000000000000000000000000000000000000000000000000000000000000000000000000000000000000000000000000000000000000000000000000000000000000000000000000000000000000000000000000000000000000000000000000000000000000000000000000000000000000000000000000000000000000000000000000000000000000000000000000000000000000000000000000000000000000000000000000000000000000000000000000000000000000000000000000000000000000000000000000000000000000000000000000000000000000000000000000000000000000000",
                    "coinbase" : "0x2adc25665018aa1fe0e6bc666dac8fc2697ff9ba",
                    "difficulty" : "0x020000",
                    "extraData" : "",
                    "gasLimit" : "0x989680",
                    "gasUsed" : "0x013cb6",
                    "hash" : "0xd460000524e6298a451b1d018b6180f5742083f8c32d6c62985ab47dee0ee2a9",
                    "mixHash" : "0x04b570edc901d5067dca368620dc9fe31c5878e17629384529d1a0141cf01e06",
                    "nonce" : "0xe32825fe1b77b9ef",
                    "number" : "0x01",
                    "parentHash" : "0x0e3c1c510a2a601945f30dc63704883022df8e7e047fa6eea860d91a0d130add",
                    "receiptTrie" : "0x8e6cfe5bc92b17f96a1f3748e1325d8fd5696208961471a05bd88e6d651382c5",
                    "stateRoot" : "0xe9ede0944fd592712ef95e7491ba5ca59f4210f70f17fa97b9b54fc9242ae807",
                    "timestamp" : "0x03e8",
                    "transactionsTrie" : "0xc9ef516963b47edfe603957134938a47fa7a07af2a32ff83d7174a3e16e0ac4d",
                    "uncleHash" : "0x1dcc4de8dec75d7aab85b567b6ccd41ad312451b948a7413f0a142fd40d49347"
                },
                "rlp" : "0xf90260f901f8a00e3c1c510a2a601945f30dc63704883022df8e7e047fa6eea860d91a0d130adda01dcc4de8dec75d7aab85b567b6ccd41ad312451b948a7413f0a142fd40d49347942adc25665018aa1fe0e6bc666dac8fc2697ff9baa0e9ede0944fd592712ef95e7491ba5ca59f4210f70f17fa97b9b54fc9242ae807a0c9ef516963b47edfe603957134938a47fa7a07af2a32ff83d7174a3e16e0ac4da08e6cfe5bc92b17f96a1f3748e1325d8fd5696208961471a05bd88e6d651382c5b901000000000000000000000000000000000000000000000000000000000000000000000000000000000000000000000000000000000000000000000000000000000000000000000000000000000000000000000000000000000000000000000000000000000000000000000000000000000000000000000000000000000000000000000000000000000000000000000000000000000000000000000000000000000000000000000000000000000000000000000000000000000000000000000000000000000000000000000000000000000000000000000000000000000000000000000000000000000000000000000000000000000000000000000000000000000083020000018398968083013cb68203e880a004b570edc901d5067dca368620dc9fe31c5878e17629384529d1a0141cf01e0688e32825fe1b77b9eff862f86080018307a12094b94f5374fce5edbc8e2a8697c15331677e6ebf0b80801ca0c64fecd63fb7581111203bc67252e36da223a5425a79a6fd70d7d9095fd37509a0620d962d4f52b72f66b94cecc770faa079838a4a074bc885aa3b6495c33a5268c0",
                "transactions" : [
                    {
                        "data" : "0x",
                        "gasLimit" : "0x07a120",
                        "gasPrice" : "0x01",
                        "nonce" : "0x00",
                        "r" : "0xc64fecd63fb7581111203bc67252e36da223a5425a79a6fd70d7d9095fd37509",
                        "s" : "0x620d962d4f52b72f66b94cecc770faa079838a4a074bc885aa3b6495c33a5268",
                        "to" : "0xb94f5374fce5edbc8e2a8697c15331677e6ebf0b",
                        "v" : "0x1c",
                        "value" : "0x00"
                    }
                ],
                "uncleHeaders" : [
                ]
            }
        ],
        "genesisBlockHeader" : {
            "bloom" : "0x00000000000000000000000000000000000000000000000000000000000000000000000000000000000000000000000000000000000000000000000000000000000000000000000000000000000000000000000000000000000000000000000000000000000000000000000000000000000000000000000000000000000000000000000000000000000000000000000000000000000000000000000000000000000000000000000000000000000000000000000000000000000000000000000000000000000000000000000000000000000000000000000000000000000000000000000000000000000000000000000000000000000000000000000000000000",
            "coinbase" : "0x2adc25665018aa1fe0e6bc666dac8fc2697ff9ba",
            "difficulty" : "0x020000",
            "extraData" : "0x42",
            "gasLimit" : "0x989680",
            "gasUsed" : "0x00",
            "hash" : "0x0e3c1c510a2a601945f30dc63704883022df8e7e047fa6eea860d91a0d130add",
            "mixHash" : "0x56e81f171bcc55a6ff8345e692c0f86e5b48e01b996cadc001622fb5e363b421",
            "nonce" : "0x0102030405060708",
            "number" : "0x00",
            "parentHash" : "0x0000000000000000000000000000000000000000000000000000000000000000",
            "receiptTrie" : "0x56e81f171bcc55a6ff8345e692c0f86e5b48e01b996cadc001622fb5e363b421",
            "stateRoot" : "0x2351c62038c02142fdc332dd9e1914158ede1d9b3a878c0aaf9448a917f808d1",
            "timestamp" : "0x03b6",
            "transactionsTrie" : "0x56e81f171bcc55a6ff8345e692c0f86e5b48e01b996cadc001622fb5e363b421",
            "uncleHash" : "0x1dcc4de8dec75d7aab85b567b6ccd41ad312451b948a7413f0a142fd40d49347"
        },
        "genesisRLP" : "0xf901faf901f5a00000000000000000000000000000000000000000000000000000000000000000a01dcc4de8dec75d7aab85b567b6ccd41ad312451b948a7413f0a142fd40d49347942adc25665018aa1fe0e6bc666dac8fc2697ff9baa02351c62038c02142fdc332dd9e1914158ede1d9b3a878c0aaf9448a917f808d1a056e81f171bcc55a6ff8345e692c0f86e5b48e01b996cadc001622fb5e363b421a056e81f171bcc55a6ff8345e692c0f86e5b48e01b996cadc001622fb5e363b421b9010000000000000000000000000000000000000000000000000000000000000000000000000000000000000000000000000000000000000000000000000000000000000000000000000000000000000000000000000000000000000000000000000000000000000000000000000000000000000000000000000000000000000000000000000000000000000000000000000000000000000000000000000000000000000000000000000000000000000000000000000000000000000000000000000000000000000000000000000000000000000000000000000000000000000000000000000000000000000000000000000000000000000000000000000000000000830200008083989680808203b642a056e81f171bcc55a6ff8345e692c0f86e5b48e01b996cadc001622fb5e363b421880102030405060708c0c0",
        "lastblockhash" : "0xd460000524e6298a451b1d018b6180f5742083f8c32d6c62985ab47dee0ee2a9",
        "network" : "Frontier",
        "postState" : {
            "0x094f5374fce5edbc8e2a8697c15331677e6ebf0b" : {
                "balance" : "0x00",
                "code" : "0x5a600255",
                "nonce" : "0x00",
                "storage" : {
                }
            },
            "0x2adc25665018aa1fe0e6bc666dac8fc2697ff9ba" : {
                "balance" : "0x4563918244f53cb6",
                "code" : "",
                "nonce" : "0x00",
                "storage" : {
                }
            },
            "0xa94f5374fce5edbc8e2a8697c15331677e6ebf0b" : {
                "balance" : "0xe8d4a3d34a",
                "code" : "",
                "nonce" : "0x01",
                "storage" : {
                }
            },
            "0xb94f5374fce5edbc8e2a8697c15331677e6ebf0b" : {
                "balance" : "0x00",
                "code" : "0x5a6000556000600060006000600073094f5374fce5edbc8e2a8697c15331677e6ebf0b617530f2505a600155",
                "nonce" : "0x00",
                "storage" : {
                    "0x00" : "0x074f16",
                    "0x01" : "0x06b28d",
                    "0x02" : "0x752e"
                }
            }
        },
        "pre" : {
            "0x094f5374fce5edbc8e2a8697c15331677e6ebf0b" : {
                "balance" : "0x00",
                "code" : "0x5a600255",
                "nonce" : "0x00",
                "storage" : {
                }
            },
            "0xa94f5374fce5edbc8e2a8697c15331677e6ebf0b" : {
                "balance" : "0xe8d4a51000",
                "code" : "",
                "nonce" : "0x00",
                "storage" : {
                }
            },
            "0xb94f5374fce5edbc8e2a8697c15331677e6ebf0b" : {
                "balance" : "0x00",
                "code" : "0x5a6000556000600060006000600073094f5374fce5edbc8e2a8697c15331677e6ebf0b617530f2505a600155",
                "nonce" : "0x00",
                "storage" : {
                }
            }
        }
    },
    "RawCallCodeGas_d0g0v0_Homestead" : {
        "_info" : {
            "comment" : "",
            "filledwith" : "cpp-1.3.0+commit.8fb57c56.Linux.g++",
            "lllcversion" : "Version: 0.4.20-develop.2018.1.8+commit.2548228b.Linux.g++",
            "source" : "src/BlockchainTestsFiller/GeneralStateTests/stEIP150singleCodeGasPrices/RawCallCodeGas_d0g0v0Filler.json",
            "sourceHash" : "bc0c4e01ff243bbbb9a32e21bba2af1621646176cfd5bbf5e4f74f9ba61ca59f"
        },
        "blocks" : [
            {
                "blockHeader" : {
                    "bloom" : "0x00000000000000000000000000000000000000000000000000000000000000000000000000000000000000000000000000000000000000000000000000000000000000000000000000000000000000000000000000000000000000000000000000000000000000000000000000000000000000000000000000000000000000000000000000000000000000000000000000000000000000000000000000000000000000000000000000000000000000000000000000000000000000000000000000000000000000000000000000000000000000000000000000000000000000000000000000000000000000000000000000000000000000000000000000000000",
                    "coinbase" : "0x2adc25665018aa1fe0e6bc666dac8fc2697ff9ba",
                    "difficulty" : "0x020000",
                    "extraData" : "",
                    "gasLimit" : "0x989680",
                    "gasUsed" : "0x013cb6",
                    "hash" : "0x524dcc70bac4123480cf57434666dd6d31203ea8a23ba116663d45d04010cba3",
                    "mixHash" : "0x2784e09d742fde6d198f0f40594a94244905af836865709a8a4d51a9a1ebd66a",
                    "nonce" : "0xb7c2a718b3f6c42d",
                    "number" : "0x01",
                    "parentHash" : "0x0e3c1c510a2a601945f30dc63704883022df8e7e047fa6eea860d91a0d130add",
                    "receiptTrie" : "0x8e6cfe5bc92b17f96a1f3748e1325d8fd5696208961471a05bd88e6d651382c5",
                    "stateRoot" : "0xe9ede0944fd592712ef95e7491ba5ca59f4210f70f17fa97b9b54fc9242ae807",
                    "timestamp" : "0x03e8",
                    "transactionsTrie" : "0xc9ef516963b47edfe603957134938a47fa7a07af2a32ff83d7174a3e16e0ac4d",
                    "uncleHash" : "0x1dcc4de8dec75d7aab85b567b6ccd41ad312451b948a7413f0a142fd40d49347"
                },
                "rlp" : "0xf90260f901f8a00e3c1c510a2a601945f30dc63704883022df8e7e047fa6eea860d91a0d130adda01dcc4de8dec75d7aab85b567b6ccd41ad312451b948a7413f0a142fd40d49347942adc25665018aa1fe0e6bc666dac8fc2697ff9baa0e9ede0944fd592712ef95e7491ba5ca59f4210f70f17fa97b9b54fc9242ae807a0c9ef516963b47edfe603957134938a47fa7a07af2a32ff83d7174a3e16e0ac4da08e6cfe5bc92b17f96a1f3748e1325d8fd5696208961471a05bd88e6d651382c5b901000000000000000000000000000000000000000000000000000000000000000000000000000000000000000000000000000000000000000000000000000000000000000000000000000000000000000000000000000000000000000000000000000000000000000000000000000000000000000000000000000000000000000000000000000000000000000000000000000000000000000000000000000000000000000000000000000000000000000000000000000000000000000000000000000000000000000000000000000000000000000000000000000000000000000000000000000000000000000000000000000000000000000000000000000000000083020000018398968083013cb68203e880a02784e09d742fde6d198f0f40594a94244905af836865709a8a4d51a9a1ebd66a88b7c2a718b3f6c42df862f86080018307a12094b94f5374fce5edbc8e2a8697c15331677e6ebf0b80801ca0c64fecd63fb7581111203bc67252e36da223a5425a79a6fd70d7d9095fd37509a0620d962d4f52b72f66b94cecc770faa079838a4a074bc885aa3b6495c33a5268c0",
                "transactions" : [
                    {
                        "data" : "0x",
                        "gasLimit" : "0x07a120",
                        "gasPrice" : "0x01",
                        "nonce" : "0x00",
                        "r" : "0xc64fecd63fb7581111203bc67252e36da223a5425a79a6fd70d7d9095fd37509",
                        "s" : "0x620d962d4f52b72f66b94cecc770faa079838a4a074bc885aa3b6495c33a5268",
                        "to" : "0xb94f5374fce5edbc8e2a8697c15331677e6ebf0b",
                        "v" : "0x1c",
                        "value" : "0x00"
                    }
                ],
                "uncleHeaders" : [
                ]
            }
        ],
        "genesisBlockHeader" : {
            "bloom" : "0x00000000000000000000000000000000000000000000000000000000000000000000000000000000000000000000000000000000000000000000000000000000000000000000000000000000000000000000000000000000000000000000000000000000000000000000000000000000000000000000000000000000000000000000000000000000000000000000000000000000000000000000000000000000000000000000000000000000000000000000000000000000000000000000000000000000000000000000000000000000000000000000000000000000000000000000000000000000000000000000000000000000000000000000000000000000",
            "coinbase" : "0x2adc25665018aa1fe0e6bc666dac8fc2697ff9ba",
            "difficulty" : "0x020000",
            "extraData" : "0x42",
            "gasLimit" : "0x989680",
            "gasUsed" : "0x00",
            "hash" : "0x0e3c1c510a2a601945f30dc63704883022df8e7e047fa6eea860d91a0d130add",
            "mixHash" : "0x56e81f171bcc55a6ff8345e692c0f86e5b48e01b996cadc001622fb5e363b421",
            "nonce" : "0x0102030405060708",
            "number" : "0x00",
            "parentHash" : "0x0000000000000000000000000000000000000000000000000000000000000000",
            "receiptTrie" : "0x56e81f171bcc55a6ff8345e692c0f86e5b48e01b996cadc001622fb5e363b421",
            "stateRoot" : "0x2351c62038c02142fdc332dd9e1914158ede1d9b3a878c0aaf9448a917f808d1",
            "timestamp" : "0x03b6",
            "transactionsTrie" : "0x56e81f171bcc55a6ff8345e692c0f86e5b48e01b996cadc001622fb5e363b421",
            "uncleHash" : "0x1dcc4de8dec75d7aab85b567b6ccd41ad312451b948a7413f0a142fd40d49347"
        },
        "genesisRLP" : "0xf901faf901f5a00000000000000000000000000000000000000000000000000000000000000000a01dcc4de8dec75d7aab85b567b6ccd41ad312451b948a7413f0a142fd40d49347942adc25665018aa1fe0e6bc666dac8fc2697ff9baa02351c62038c02142fdc332dd9e1914158ede1d9b3a878c0aaf9448a917f808d1a056e81f171bcc55a6ff8345e692c0f86e5b48e01b996cadc001622fb5e363b421a056e81f171bcc55a6ff8345e692c0f86e5b48e01b996cadc001622fb5e363b421b9010000000000000000000000000000000000000000000000000000000000000000000000000000000000000000000000000000000000000000000000000000000000000000000000000000000000000000000000000000000000000000000000000000000000000000000000000000000000000000000000000000000000000000000000000000000000000000000000000000000000000000000000000000000000000000000000000000000000000000000000000000000000000000000000000000000000000000000000000000000000000000000000000000000000000000000000000000000000000000000000000000000000000000000000000000000000830200008083989680808203b642a056e81f171bcc55a6ff8345e692c0f86e5b48e01b996cadc001622fb5e363b421880102030405060708c0c0",
        "lastblockhash" : "0x524dcc70bac4123480cf57434666dd6d31203ea8a23ba116663d45d04010cba3",
        "network" : "Homestead",
        "postState" : {
            "0x094f5374fce5edbc8e2a8697c15331677e6ebf0b" : {
                "balance" : "0x00",
                "code" : "0x5a600255",
                "nonce" : "0x00",
                "storage" : {
                }
            },
            "0x2adc25665018aa1fe0e6bc666dac8fc2697ff9ba" : {
                "balance" : "0x4563918244f53cb6",
                "code" : "",
                "nonce" : "0x00",
                "storage" : {
                }
            },
            "0xa94f5374fce5edbc8e2a8697c15331677e6ebf0b" : {
                "balance" : "0xe8d4a3d34a",
                "code" : "",
                "nonce" : "0x01",
                "storage" : {
                }
            },
            "0xb94f5374fce5edbc8e2a8697c15331677e6ebf0b" : {
                "balance" : "0x00",
                "code" : "0x5a6000556000600060006000600073094f5374fce5edbc8e2a8697c15331677e6ebf0b617530f2505a600155",
                "nonce" : "0x00",
                "storage" : {
                    "0x00" : "0x074f16",
                    "0x01" : "0x06b28d",
                    "0x02" : "0x752e"
                }
            }
        },
        "pre" : {
            "0x094f5374fce5edbc8e2a8697c15331677e6ebf0b" : {
                "balance" : "0x00",
                "code" : "0x5a600255",
                "nonce" : "0x00",
                "storage" : {
                }
            },
            "0xa94f5374fce5edbc8e2a8697c15331677e6ebf0b" : {
                "balance" : "0xe8d4a51000",
                "code" : "",
                "nonce" : "0x00",
                "storage" : {
                }
            },
            "0xb94f5374fce5edbc8e2a8697c15331677e6ebf0b" : {
                "balance" : "0x00",
                "code" : "0x5a6000556000600060006000600073094f5374fce5edbc8e2a8697c15331677e6ebf0b617530f2505a600155",
                "nonce" : "0x00",
                "storage" : {
                }
            }
        }
    }
}