{
    "RevertDepthCreateOOG_d0g1v1_Byzantium" : {
        "_info" : {
            "comment" : "",
            "filledwith" : "cpp-1.3.0+commit.ab4ca6d1.Linux.g++",
            "lllcversion" : "Version: 0.4.20-develop.2018.1.8+commit.2548228b.Linux.g++",
            "source" : "src/BlockchainTestsFiller/GeneralStateTests/stRevertTest/RevertDepthCreateOOG_d0g1v1Filler.json",
            "sourceHash" : "b8a5bff0de8dcc361bf36f77332a7bc4e226940b35f298d6ca849c04d5f4b80d"
        },
        "blocks" : [
            {
                "blockHeader" : {
                    "bloom" : "0x00000000000000000000000000000000000000000000000000000000000000000000000000000000000000000000000000000000000000000000000000000000000000000000000000000000000000000000000000000000000000000000000000000000000000000000000000000000000000000000000000000000000000000000000000000000000000000000000000000000000000000000000000000000000000000000000000000000000000000000000000000000000000000000000000000000000000000000000000000000000000000000000000000000000000000000000000000000000000000000000000000000000000000000000000000000",
                    "coinbase" : "0x2adc25665018aa1fe0e6bc666dac8fc2697ff9ba",
                    "difficulty" : "0x020000",
                    "extraData" : "",
                    "gasLimit" : "0x989680",
                    "gasUsed" : "0x01f013",
                    "hash" : "0x21e901dc30cbd72c5500068cd6131ab821ec4b1c4903286ff454f55bcdcefaa8",
                    "mixHash" : "0xc3093c7a60b4724fb41d1dc77e046e9be43d5fdb3f47bf29b259fff574082ac2",
                    "nonce" : "0xf66d08fb515118a7",
                    "number" : "0x01",
                    "parentHash" : "0x8743d6698accee1630990d042b3ca26d8e4f8b159f79a80423f97b9bd0f7e0d0",
                    "receiptTrie" : "0xc45419cf5be26b875697d913666fdf6c36cc72b128a9670c994caed02690eb11",
                    "stateRoot" : "0x92168d7accf10b63119f505b93f9d47d894398f08d9518dd87617bab6947f7d1",
                    "timestamp" : "0x03e8",
                    "transactionsTrie" : "0xd16f44bcea69be4827aedd56930f535df55672d106d8e366abab14c1fff491db",
                    "uncleHash" : "0x1dcc4de8dec75d7aab85b567b6ccd41ad312451b948a7413f0a142fd40d49347"
                },
                "rlp" : "0xf90280f901f8a08743d6698accee1630990d042b3ca26d8e4f8b159f79a80423f97b9bd0f7e0d0a01dcc4de8dec75d7aab85b567b6ccd41ad312451b948a7413f0a142fd40d49347942adc25665018aa1fe0e6bc666dac8fc2697ff9baa092168d7accf10b63119f505b93f9d47d894398f08d9518dd87617bab6947f7d1a0d16f44bcea69be4827aedd56930f535df55672d106d8e366abab14c1fff491dba0c45419cf5be26b875697d913666fdf6c36cc72b128a9670c994caed02690eb11b90100000000000000000000000000000000000000000000000000000000000000000000000000000000000000000000000000000000000000000000000000000000000000000000000000000000000000000000000000000000000000000000000000000000000000000000000000000000000000000000000000000000000000000000000000000000000000000000000000000000000000000000000000000000000000000000000000000000000000000000000000000000000000000000000000000000000000000000000000000000000000000000000000000000000000000000000000000000000000000000000000000000000000000000000000000000008302000001839896808301f0138203e880a0c3093c7a60b4724fb41d1dc77e046e9be43d5fdb3f47bf29b259fff574082ac288f66d08fb515118a7f882f88080018302710094a00000000000000000000000000000000000000080a0000000000000000000000000000000000000000000000000000000000000ea601ba00d3efad132a16ecbd402eb6ef10a0b7d4749ce5576ba1db230ed64b745d68dfaa0400e0d8b3b47d8c3b8254dcdb5ceb709f90c5b74d4c26c9eaad9dd69ed97a74fc0",
                "transactions" : [
                    {
                        "data" : "0x000000000000000000000000000000000000000000000000000000000000ea60",
                        "gasLimit" : "0x027100",
                        "gasPrice" : "0x01",
                        "nonce" : "0x00",
                        "r" : "0x0d3efad132a16ecbd402eb6ef10a0b7d4749ce5576ba1db230ed64b745d68dfa",
                        "s" : "0x400e0d8b3b47d8c3b8254dcdb5ceb709f90c5b74d4c26c9eaad9dd69ed97a74f",
                        "to" : "0xa000000000000000000000000000000000000000",
                        "v" : "0x1b",
                        "value" : "0x00"
                    }
                ],
                "uncleHeaders" : [
                ]
            }
        ],
        "genesisBlockHeader" : {
            "bloom" : "0x00000000000000000000000000000000000000000000000000000000000000000000000000000000000000000000000000000000000000000000000000000000000000000000000000000000000000000000000000000000000000000000000000000000000000000000000000000000000000000000000000000000000000000000000000000000000000000000000000000000000000000000000000000000000000000000000000000000000000000000000000000000000000000000000000000000000000000000000000000000000000000000000000000000000000000000000000000000000000000000000000000000000000000000000000000000",
            "coinbase" : "0x2adc25665018aa1fe0e6bc666dac8fc2697ff9ba",
            "difficulty" : "0x020000",
            "extraData" : "0x42",
            "gasLimit" : "0x989680",
            "gasUsed" : "0x00",
            "hash" : "0x8743d6698accee1630990d042b3ca26d8e4f8b159f79a80423f97b9bd0f7e0d0",
            "mixHash" : "0x56e81f171bcc55a6ff8345e692c0f86e5b48e01b996cadc001622fb5e363b421",
            "nonce" : "0x0102030405060708",
            "number" : "0x00",
            "parentHash" : "0x0000000000000000000000000000000000000000000000000000000000000000",
            "receiptTrie" : "0x56e81f171bcc55a6ff8345e692c0f86e5b48e01b996cadc001622fb5e363b421",
            "stateRoot" : "0x5eb464647e12f6457b3ffea1459c38cb1eb63c4472470ff8ff49adb0563692d6",
            "timestamp" : "0x03b6",
            "transactionsTrie" : "0x56e81f171bcc55a6ff8345e692c0f86e5b48e01b996cadc001622fb5e363b421",
            "uncleHash" : "0x1dcc4de8dec75d7aab85b567b6ccd41ad312451b948a7413f0a142fd40d49347"
        },
        "genesisRLP" : "0xf901faf901f5a00000000000000000000000000000000000000000000000000000000000000000a01dcc4de8dec75d7aab85b567b6ccd41ad312451b948a7413f0a142fd40d49347942adc25665018aa1fe0e6bc666dac8fc2697ff9baa05eb464647e12f6457b3ffea1459c38cb1eb63c4472470ff8ff49adb0563692d6a056e81f171bcc55a6ff8345e692c0f86e5b48e01b996cadc001622fb5e363b421a056e81f171bcc55a6ff8345e692c0f86e5b48e01b996cadc001622fb5e363b421b9010000000000000000000000000000000000000000000000000000000000000000000000000000000000000000000000000000000000000000000000000000000000000000000000000000000000000000000000000000000000000000000000000000000000000000000000000000000000000000000000000000000000000000000000000000000000000000000000000000000000000000000000000000000000000000000000000000000000000000000000000000000000000000000000000000000000000000000000000000000000000000000000000000000000000000000000000000000000000000000000000000000000000000000000000000000000830200008083989680808203b642a056e81f171bcc55a6ff8345e692c0f86e5b48e01b996cadc001622fb5e363b421880102030405060708c0c0",
        "lastblockhash" : "0x21e901dc30cbd72c5500068cd6131ab821ec4b1c4903286ff454f55bcdcefaa8",
        "network" : "Byzantium",
        "postState" : {
            "0x2adc25665018aa1fe0e6bc666dac8fc2697ff9ba" : {
                "balance" : "0x29a2241af62df013",
                "code" : "",
                "nonce" : "0x00",
                "storage" : {
                }
            },
            "0xa000000000000000000000000000000000000000" : {
                "balance" : "0x05",
                "code" : "0x60016000556000600060006000600073b000000000000000000000000000000000000000600035f1600155600c600455",
                "nonce" : "0x36",
                "storage" : {
                    "0x00" : "0x01",
                    "0x04" : "0x0c"
                }
            },
            "0xa94f5374fce5edbc8e2a8697c15331677e6ebf0b" : {
                "balance" : "0xe8d4a31fed",
                "code" : "",
                "nonce" : "0x01",
                "storage" : {
                }
            },
            "0xb000000000000000000000000000000000000000" : {
                "balance" : "0x00",
                "code" : "0x6008600255600060006000f050600c600355",
                "nonce" : "0x00",
                "storage" : {
                }
            }
        },
        "pre" : {
            "0xa000000000000000000000000000000000000000" : {
                "balance" : "0x05",
                "code" : "0x60016000556000600060006000600073b000000000000000000000000000000000000000600035f1600155600c600455",
                "nonce" : "0x36",
                "storage" : {
                }
            },
            "0xa94f5374fce5edbc8e2a8697c15331677e6ebf0b" : {
                "balance" : "0xe8d4a51000",
                "code" : "",
                "nonce" : "0x00",
                "storage" : {
                }
            },
            "0xb000000000000000000000000000000000000000" : {
                "balance" : "0x00",
                "code" : "0x6008600255600060006000f050600c600355",
                "nonce" : "0x00",
                "storage" : {
                }
            }
        }
    },
    "RevertDepthCreateOOG_d0g1v1_EIP150" : {
        "_info" : {
            "comment" : "",
            "filledwith" : "cpp-1.3.0+commit.ab4ca6d1.Linux.g++",
            "lllcversion" : "Version: 0.4.20-develop.2018.1.8+commit.2548228b.Linux.g++",
            "source" : "src/BlockchainTestsFiller/GeneralStateTests/stRevertTest/RevertDepthCreateOOG_d0g1v1Filler.json",
            "sourceHash" : "b8a5bff0de8dcc361bf36f77332a7bc4e226940b35f298d6ca849c04d5f4b80d"
        },
        "blocks" : [
            {
                "blockHeader" : {
                    "bloom" : "0x00000000000000000000000000000000000000000000000000000000000000000000000000000000000000000000000000000000000000000000000000000000000000000000000000000000000000000000000000000000000000000000000000000000000000000000000000000000000000000000000000000000000000000000000000000000000000000000000000000000000000000000000000000000000000000000000000000000000000000000000000000000000000000000000000000000000000000000000000000000000000000000000000000000000000000000000000000000000000000000000000000000000000000000000000000000",
                    "coinbase" : "0x2adc25665018aa1fe0e6bc666dac8fc2697ff9ba",
                    "difficulty" : "0x020000",
                    "extraData" : "",
                    "gasLimit" : "0x989680",
                    "gasUsed" : "0x01f013",
                    "hash" : "0x6b973a0a9048d324f0d7d4e5b8cec5ec41468795bf0429f9fb207a0f1475fe1b",
                    "mixHash" : "0x736c80d00cefed00be3a5bf39b8d452754cf2f429f7382093a67a61cee46b5b4",
                    "nonce" : "0xa6cb52c6b91290c5",
                    "number" : "0x01",
                    "parentHash" : "0x8743d6698accee1630990d042b3ca26d8e4f8b159f79a80423f97b9bd0f7e0d0",
                    "receiptTrie" : "0x978aa80ebc7fabf0f3d7dddf1013bf01a12b0d5d35ee2e7b1a226491fb0befae",
                    "stateRoot" : "0xc25c95d935ec6586c0a87cfb9e0060fdea473943710acde3bd4445a691123366",
                    "timestamp" : "0x03e8",
                    "transactionsTrie" : "0xd16f44bcea69be4827aedd56930f535df55672d106d8e366abab14c1fff491db",
                    "uncleHash" : "0x1dcc4de8dec75d7aab85b567b6ccd41ad312451b948a7413f0a142fd40d49347"
                },
                "rlp" : "0xf90280f901f8a08743d6698accee1630990d042b3ca26d8e4f8b159f79a80423f97b9bd0f7e0d0a01dcc4de8dec75d7aab85b567b6ccd41ad312451b948a7413f0a142fd40d49347942adc25665018aa1fe0e6bc666dac8fc2697ff9baa0c25c95d935ec6586c0a87cfb9e0060fdea473943710acde3bd4445a691123366a0d16f44bcea69be4827aedd56930f535df55672d106d8e366abab14c1fff491dba0978aa80ebc7fabf0f3d7dddf1013bf01a12b0d5d35ee2e7b1a226491fb0befaeb90100000000000000000000000000000000000000000000000000000000000000000000000000000000000000000000000000000000000000000000000000000000000000000000000000000000000000000000000000000000000000000000000000000000000000000000000000000000000000000000000000000000000000000000000000000000000000000000000000000000000000000000000000000000000000000000000000000000000000000000000000000000000000000000000000000000000000000000000000000000000000000000000000000000000000000000000000000000000000000000000000000000000000000000000000000000008302000001839896808301f0138203e880a0736c80d00cefed00be3a5bf39b8d452754cf2f429f7382093a67a61cee46b5b488a6cb52c6b91290c5f882f88080018302710094a00000000000000000000000000000000000000080a0000000000000000000000000000000000000000000000000000000000000ea601ba00d3efad132a16ecbd402eb6ef10a0b7d4749ce5576ba1db230ed64b745d68dfaa0400e0d8b3b47d8c3b8254dcdb5ceb709f90c5b74d4c26c9eaad9dd69ed97a74fc0",
                "transactions" : [
                    {
                        "data" : "0x000000000000000000000000000000000000000000000000000000000000ea60",
                        "gasLimit" : "0x027100",
                        "gasPrice" : "0x01",
                        "nonce" : "0x00",
                        "r" : "0x0d3efad132a16ecbd402eb6ef10a0b7d4749ce5576ba1db230ed64b745d68dfa",
                        "s" : "0x400e0d8b3b47d8c3b8254dcdb5ceb709f90c5b74d4c26c9eaad9dd69ed97a74f",
                        "to" : "0xa000000000000000000000000000000000000000",
                        "v" : "0x1b",
                        "value" : "0x00"
                    }
                ],
                "uncleHeaders" : [
                ]
            }
        ],
        "genesisBlockHeader" : {
            "bloom" : "0x00000000000000000000000000000000000000000000000000000000000000000000000000000000000000000000000000000000000000000000000000000000000000000000000000000000000000000000000000000000000000000000000000000000000000000000000000000000000000000000000000000000000000000000000000000000000000000000000000000000000000000000000000000000000000000000000000000000000000000000000000000000000000000000000000000000000000000000000000000000000000000000000000000000000000000000000000000000000000000000000000000000000000000000000000000000",
            "coinbase" : "0x2adc25665018aa1fe0e6bc666dac8fc2697ff9ba",
            "difficulty" : "0x020000",
            "extraData" : "0x42",
            "gasLimit" : "0x989680",
            "gasUsed" : "0x00",
            "hash" : "0x8743d6698accee1630990d042b3ca26d8e4f8b159f79a80423f97b9bd0f7e0d0",
            "mixHash" : "0x56e81f171bcc55a6ff8345e692c0f86e5b48e01b996cadc001622fb5e363b421",
            "nonce" : "0x0102030405060708",
            "number" : "0x00",
            "parentHash" : "0x0000000000000000000000000000000000000000000000000000000000000000",
            "receiptTrie" : "0x56e81f171bcc55a6ff8345e692c0f86e5b48e01b996cadc001622fb5e363b421",
            "stateRoot" : "0x5eb464647e12f6457b3ffea1459c38cb1eb63c4472470ff8ff49adb0563692d6",
            "timestamp" : "0x03b6",
            "transactionsTrie" : "0x56e81f171bcc55a6ff8345e692c0f86e5b48e01b996cadc001622fb5e363b421",
            "uncleHash" : "0x1dcc4de8dec75d7aab85b567b6ccd41ad312451b948a7413f0a142fd40d49347"
        },
        "genesisRLP" : "0xf901faf901f5a00000000000000000000000000000000000000000000000000000000000000000a01dcc4de8dec75d7aab85b567b6ccd41ad312451b948a7413f0a142fd40d49347942adc25665018aa1fe0e6bc666dac8fc2697ff9baa05eb464647e12f6457b3ffea1459c38cb1eb63c4472470ff8ff49adb0563692d6a056e81f171bcc55a6ff8345e692c0f86e5b48e01b996cadc001622fb5e363b421a056e81f171bcc55a6ff8345e692c0f86e5b48e01b996cadc001622fb5e363b421b9010000000000000000000000000000000000000000000000000000000000000000000000000000000000000000000000000000000000000000000000000000000000000000000000000000000000000000000000000000000000000000000000000000000000000000000000000000000000000000000000000000000000000000000000000000000000000000000000000000000000000000000000000000000000000000000000000000000000000000000000000000000000000000000000000000000000000000000000000000000000000000000000000000000000000000000000000000000000000000000000000000000000000000000000000000000000830200008083989680808203b642a056e81f171bcc55a6ff8345e692c0f86e5b48e01b996cadc001622fb5e363b421880102030405060708c0c0",
        "lastblockhash" : "0x6b973a0a9048d324f0d7d4e5b8cec5ec41468795bf0429f9fb207a0f1475fe1b",
        "network" : "EIP150",
        "postState" : {
            "0x2adc25665018aa1fe0e6bc666dac8fc2697ff9ba" : {
                "balance" : "0x4563918244f5f013",
                "code" : "",
                "nonce" : "0x00",
                "storage" : {
                }
            },
            "0xa000000000000000000000000000000000000000" : {
                "balance" : "0x05",
                "code" : "0x60016000556000600060006000600073b000000000000000000000000000000000000000600035f1600155600c600455",
                "nonce" : "0x36",
                "storage" : {
                    "0x00" : "0x01",
                    "0x04" : "0x0c"
                }
            },
            "0xa94f5374fce5edbc8e2a8697c15331677e6ebf0b" : {
                "balance" : "0xe8d4a31fed",
                "code" : "",
                "nonce" : "0x01",
                "storage" : {
                }
            },
            "0xb000000000000000000000000000000000000000" : {
                "balance" : "0x00",
                "code" : "0x6008600255600060006000f050600c600355",
                "nonce" : "0x00",
                "storage" : {
                }
            }
        },
        "pre" : {
            "0xa000000000000000000000000000000000000000" : {
                "balance" : "0x05",
                "code" : "0x60016000556000600060006000600073b000000000000000000000000000000000000000600035f1600155600c600455",
                "nonce" : "0x36",
                "storage" : {
                }
            },
            "0xa94f5374fce5edbc8e2a8697c15331677e6ebf0b" : {
                "balance" : "0xe8d4a51000",
                "code" : "",
                "nonce" : "0x00",
                "storage" : {
                }
            },
            "0xb000000000000000000000000000000000000000" : {
                "balance" : "0x00",
                "code" : "0x6008600255600060006000f050600c600355",
                "nonce" : "0x00",
                "storage" : {
                }
            }
        }
    },
    "RevertDepthCreateOOG_d0g1v1_EIP158" : {
        "_info" : {
            "comment" : "",
            "filledwith" : "cpp-1.3.0+commit.ab4ca6d1.Linux.g++",
            "lllcversion" : "Version: 0.4.20-develop.2018.1.8+commit.2548228b.Linux.g++",
            "source" : "src/BlockchainTestsFiller/GeneralStateTests/stRevertTest/RevertDepthCreateOOG_d0g1v1Filler.json",
            "sourceHash" : "b8a5bff0de8dcc361bf36f77332a7bc4e226940b35f298d6ca849c04d5f4b80d"
        },
        "blocks" : [
            {
                "blockHeader" : {
                    "bloom" : "0x00000000000000000000000000000000000000000000000000000000000000000000000000000000000000000000000000000000000000000000000000000000000000000000000000000000000000000000000000000000000000000000000000000000000000000000000000000000000000000000000000000000000000000000000000000000000000000000000000000000000000000000000000000000000000000000000000000000000000000000000000000000000000000000000000000000000000000000000000000000000000000000000000000000000000000000000000000000000000000000000000000000000000000000000000000000",
                    "coinbase" : "0x2adc25665018aa1fe0e6bc666dac8fc2697ff9ba",
                    "difficulty" : "0x020000",
                    "extraData" : "",
                    "gasLimit" : "0x989680",
                    "gasUsed" : "0x01f013",
                    "hash" : "0x770e7580fd01e7b6b4e742e1145e7600ce537c4a152657386c2b7afcb982e5d9",
                    "mixHash" : "0x093fd70f8fddbcbdb2f406d792c4c97a94cd8e0e7127265673d1fbf9e30ded16",
                    "nonce" : "0xd9ba5d354869e4fa",
                    "number" : "0x01",
                    "parentHash" : "0x8743d6698accee1630990d042b3ca26d8e4f8b159f79a80423f97b9bd0f7e0d0",
                    "receiptTrie" : "0x978aa80ebc7fabf0f3d7dddf1013bf01a12b0d5d35ee2e7b1a226491fb0befae",
                    "stateRoot" : "0xc25c95d935ec6586c0a87cfb9e0060fdea473943710acde3bd4445a691123366",
                    "timestamp" : "0x03e8",
                    "transactionsTrie" : "0xd16f44bcea69be4827aedd56930f535df55672d106d8e366abab14c1fff491db",
                    "uncleHash" : "0x1dcc4de8dec75d7aab85b567b6ccd41ad312451b948a7413f0a142fd40d49347"
                },
                "rlp" : "0xf90280f901f8a08743d6698accee1630990d042b3ca26d8e4f8b159f79a80423f97b9bd0f7e0d0a01dcc4de8dec75d7aab85b567b6ccd41ad312451b948a7413f0a142fd40d49347942adc25665018aa1fe0e6bc666dac8fc2697ff9baa0c25c95d935ec6586c0a87cfb9e0060fdea473943710acde3bd4445a691123366a0d16f44bcea69be4827aedd56930f535df55672d106d8e366abab14c1fff491dba0978aa80ebc7fabf0f3d7dddf1013bf01a12b0d5d35ee2e7b1a226491fb0befaeb90100000000000000000000000000000000000000000000000000000000000000000000000000000000000000000000000000000000000000000000000000000000000000000000000000000000000000000000000000000000000000000000000000000000000000000000000000000000000000000000000000000000000000000000000000000000000000000000000000000000000000000000000000000000000000000000000000000000000000000000000000000000000000000000000000000000000000000000000000000000000000000000000000000000000000000000000000000000000000000000000000000000000000000000000000000000008302000001839896808301f0138203e880a0093fd70f8fddbcbdb2f406d792c4c97a94cd8e0e7127265673d1fbf9e30ded1688d9ba5d354869e4faf882f88080018302710094a00000000000000000000000000000000000000080a0000000000000000000000000000000000000000000000000000000000000ea601ba00d3efad132a16ecbd402eb6ef10a0b7d4749ce5576ba1db230ed64b745d68dfaa0400e0d8b3b47d8c3b8254dcdb5ceb709f90c5b74d4c26c9eaad9dd69ed97a74fc0",
                "transactions" : [
                    {
                        "data" : "0x000000000000000000000000000000000000000000000000000000000000ea60",
                        "gasLimit" : "0x027100",
                        "gasPrice" : "0x01",
                        "nonce" : "0x00",
                        "r" : "0x0d3efad132a16ecbd402eb6ef10a0b7d4749ce5576ba1db230ed64b745d68dfa",
                        "s" : "0x400e0d8b3b47d8c3b8254dcdb5ceb709f90c5b74d4c26c9eaad9dd69ed97a74f",
                        "to" : "0xa000000000000000000000000000000000000000",
                        "v" : "0x1b",
                        "value" : "0x00"
                    }
                ],
                "uncleHeaders" : [
                ]
            }
        ],
        "genesisBlockHeader" : {
            "bloom" : "0x00000000000000000000000000000000000000000000000000000000000000000000000000000000000000000000000000000000000000000000000000000000000000000000000000000000000000000000000000000000000000000000000000000000000000000000000000000000000000000000000000000000000000000000000000000000000000000000000000000000000000000000000000000000000000000000000000000000000000000000000000000000000000000000000000000000000000000000000000000000000000000000000000000000000000000000000000000000000000000000000000000000000000000000000000000000",
            "coinbase" : "0x2adc25665018aa1fe0e6bc666dac8fc2697ff9ba",
            "difficulty" : "0x020000",
            "extraData" : "0x42",
            "gasLimit" : "0x989680",
            "gasUsed" : "0x00",
            "hash" : "0x8743d6698accee1630990d042b3ca26d8e4f8b159f79a80423f97b9bd0f7e0d0",
            "mixHash" : "0x56e81f171bcc55a6ff8345e692c0f86e5b48e01b996cadc001622fb5e363b421",
            "nonce" : "0x0102030405060708",
            "number" : "0x00",
            "parentHash" : "0x0000000000000000000000000000000000000000000000000000000000000000",
            "receiptTrie" : "0x56e81f171bcc55a6ff8345e692c0f86e5b48e01b996cadc001622fb5e363b421",
            "stateRoot" : "0x5eb464647e12f6457b3ffea1459c38cb1eb63c4472470ff8ff49adb0563692d6",
            "timestamp" : "0x03b6",
            "transactionsTrie" : "0x56e81f171bcc55a6ff8345e692c0f86e5b48e01b996cadc001622fb5e363b421",
            "uncleHash" : "0x1dcc4de8dec75d7aab85b567b6ccd41ad312451b948a7413f0a142fd40d49347"
        },
        "genesisRLP" : "0xf901faf901f5a00000000000000000000000000000000000000000000000000000000000000000a01dcc4de8dec75d7aab85b567b6ccd41ad312451b948a7413f0a142fd40d49347942adc25665018aa1fe0e6bc666dac8fc2697ff9baa05eb464647e12f6457b3ffea1459c38cb1eb63c4472470ff8ff49adb0563692d6a056e81f171bcc55a6ff8345e692c0f86e5b48e01b996cadc001622fb5e363b421a056e81f171bcc55a6ff8345e692c0f86e5b48e01b996cadc001622fb5e363b421b9010000000000000000000000000000000000000000000000000000000000000000000000000000000000000000000000000000000000000000000000000000000000000000000000000000000000000000000000000000000000000000000000000000000000000000000000000000000000000000000000000000000000000000000000000000000000000000000000000000000000000000000000000000000000000000000000000000000000000000000000000000000000000000000000000000000000000000000000000000000000000000000000000000000000000000000000000000000000000000000000000000000000000000000000000000000000830200008083989680808203b642a056e81f171bcc55a6ff8345e692c0f86e5b48e01b996cadc001622fb5e363b421880102030405060708c0c0",
        "lastblockhash" : "0x770e7580fd01e7b6b4e742e1145e7600ce537c4a152657386c2b7afcb982e5d9",
        "network" : "EIP158",
        "postState" : {
            "0x2adc25665018aa1fe0e6bc666dac8fc2697ff9ba" : {
                "balance" : "0x4563918244f5f013",
                "code" : "",
                "nonce" : "0x00",
                "storage" : {
                }
            },
            "0xa000000000000000000000000000000000000000" : {
                "balance" : "0x05",
                "code" : "0x60016000556000600060006000600073b000000000000000000000000000000000000000600035f1600155600c600455",
                "nonce" : "0x36",
                "storage" : {
                    "0x00" : "0x01",
                    "0x04" : "0x0c"
                }
            },
            "0xa94f5374fce5edbc8e2a8697c15331677e6ebf0b" : {
                "balance" : "0xe8d4a31fed",
                "code" : "",
                "nonce" : "0x01",
                "storage" : {
                }
            },
            "0xb000000000000000000000000000000000000000" : {
                "balance" : "0x00",
                "code" : "0x6008600255600060006000f050600c600355",
                "nonce" : "0x00",
                "storage" : {
                }
            }
        },
        "pre" : {
            "0xa000000000000000000000000000000000000000" : {
                "balance" : "0x05",
                "code" : "0x60016000556000600060006000600073b000000000000000000000000000000000000000600035f1600155600c600455",
                "nonce" : "0x36",
                "storage" : {
                }
            },
            "0xa94f5374fce5edbc8e2a8697c15331677e6ebf0b" : {
                "balance" : "0xe8d4a51000",
                "code" : "",
                "nonce" : "0x00",
                "storage" : {
                }
            },
            "0xb000000000000000000000000000000000000000" : {
                "balance" : "0x00",
                "code" : "0x6008600255600060006000f050600c600355",
                "nonce" : "0x00",
                "storage" : {
                }
            }
        }
    },
    "RevertDepthCreateOOG_d0g1v1_Homestead" : {
        "_info" : {
            "comment" : "",
            "filledwith" : "cpp-1.3.0+commit.ab4ca6d1.Linux.g++",
            "lllcversion" : "Version: 0.4.20-develop.2018.1.8+commit.2548228b.Linux.g++",
            "source" : "src/BlockchainTestsFiller/GeneralStateTests/stRevertTest/RevertDepthCreateOOG_d0g1v1Filler.json",
            "sourceHash" : "b8a5bff0de8dcc361bf36f77332a7bc4e226940b35f298d6ca849c04d5f4b80d"
        },
        "blocks" : [
            {
                "blockHeader" : {
                    "bloom" : "0x00000000000000000000000000000000000000000000000000000000000000000000000000000000000000000000000000000000000000000000000000000000000000000000000000000000000000000000000000000000000000000000000000000000000000000000000000000000000000000000000000000000000000000000000000000000000000000000000000000000000000000000000000000000000000000000000000000000000000000000000000000000000000000000000000000000000000000000000000000000000000000000000000000000000000000000000000000000000000000000000000000000000000000000000000000000",
                    "coinbase" : "0x2adc25665018aa1fe0e6bc666dac8fc2697ff9ba",
                    "difficulty" : "0x020000",
                    "extraData" : "",
                    "gasLimit" : "0x989680",
                    "gasUsed" : "0x01ed7f",
                    "hash" : "0x49aeeec7bac987ac9d935a2c8e9fd410b5299e169050272ef7d0e598552ac484",
                    "mixHash" : "0x1291f1b237bc5983f24f80cd1c7c1fd707444380e96f6356c37ec26524047b9d",
                    "nonce" : "0x2950fac38a4918a1",
                    "number" : "0x01",
                    "parentHash" : "0x8743d6698accee1630990d042b3ca26d8e4f8b159f79a80423f97b9bd0f7e0d0",
                    "receiptTrie" : "0xd482f10f789727dfc25e2c87a5ae7bba35d6140c0cfb999ad7f445faf176a354",
                    "stateRoot" : "0x7bbb5431e0c08dc8b31cf9cfe3b7548213147bcca8ef9167795b2dac6a92d55a",
                    "timestamp" : "0x03e8",
                    "transactionsTrie" : "0xd16f44bcea69be4827aedd56930f535df55672d106d8e366abab14c1fff491db",
                    "uncleHash" : "0x1dcc4de8dec75d7aab85b567b6ccd41ad312451b948a7413f0a142fd40d49347"
                },
                "rlp" : "0xf90280f901f8a08743d6698accee1630990d042b3ca26d8e4f8b159f79a80423f97b9bd0f7e0d0a01dcc4de8dec75d7aab85b567b6ccd41ad312451b948a7413f0a142fd40d49347942adc25665018aa1fe0e6bc666dac8fc2697ff9baa07bbb5431e0c08dc8b31cf9cfe3b7548213147bcca8ef9167795b2dac6a92d55aa0d16f44bcea69be4827aedd56930f535df55672d106d8e366abab14c1fff491dba0d482f10f789727dfc25e2c87a5ae7bba35d6140c0cfb999ad7f445faf176a354b90100000000000000000000000000000000000000000000000000000000000000000000000000000000000000000000000000000000000000000000000000000000000000000000000000000000000000000000000000000000000000000000000000000000000000000000000000000000000000000000000000000000000000000000000000000000000000000000000000000000000000000000000000000000000000000000000000000000000000000000000000000000000000000000000000000000000000000000000000000000000000000000000000000000000000000000000000000000000000000000000000000000000000000000000000000000008302000001839896808301ed7f8203e880a01291f1b237bc5983f24f80cd1c7c1fd707444380e96f6356c37ec26524047b9d882950fac38a4918a1f882f88080018302710094a00000000000000000000000000000000000000080a0000000000000000000000000000000000000000000000000000000000000ea601ba00d3efad132a16ecbd402eb6ef10a0b7d4749ce5576ba1db230ed64b745d68dfaa0400e0d8b3b47d8c3b8254dcdb5ceb709f90c5b74d4c26c9eaad9dd69ed97a74fc0",
                "transactions" : [
                    {
                        "data" : "0x000000000000000000000000000000000000000000000000000000000000ea60",
                        "gasLimit" : "0x027100",
                        "gasPrice" : "0x01",
                        "nonce" : "0x00",
                        "r" : "0x0d3efad132a16ecbd402eb6ef10a0b7d4749ce5576ba1db230ed64b745d68dfa",
                        "s" : "0x400e0d8b3b47d8c3b8254dcdb5ceb709f90c5b74d4c26c9eaad9dd69ed97a74f",
                        "to" : "0xa000000000000000000000000000000000000000",
                        "v" : "0x1b",
                        "value" : "0x00"
                    }
                ],
                "uncleHeaders" : [
                ]
            }
        ],
        "genesisBlockHeader" : {
            "bloom" : "0x00000000000000000000000000000000000000000000000000000000000000000000000000000000000000000000000000000000000000000000000000000000000000000000000000000000000000000000000000000000000000000000000000000000000000000000000000000000000000000000000000000000000000000000000000000000000000000000000000000000000000000000000000000000000000000000000000000000000000000000000000000000000000000000000000000000000000000000000000000000000000000000000000000000000000000000000000000000000000000000000000000000000000000000000000000000",
            "coinbase" : "0x2adc25665018aa1fe0e6bc666dac8fc2697ff9ba",
            "difficulty" : "0x020000",
            "extraData" : "0x42",
            "gasLimit" : "0x989680",
            "gasUsed" : "0x00",
            "hash" : "0x8743d6698accee1630990d042b3ca26d8e4f8b159f79a80423f97b9bd0f7e0d0",
            "mixHash" : "0x56e81f171bcc55a6ff8345e692c0f86e5b48e01b996cadc001622fb5e363b421",
            "nonce" : "0x0102030405060708",
            "number" : "0x00",
            "parentHash" : "0x0000000000000000000000000000000000000000000000000000000000000000",
            "receiptTrie" : "0x56e81f171bcc55a6ff8345e692c0f86e5b48e01b996cadc001622fb5e363b421",
            "stateRoot" : "0x5eb464647e12f6457b3ffea1459c38cb1eb63c4472470ff8ff49adb0563692d6",
            "timestamp" : "0x03b6",
            "transactionsTrie" : "0x56e81f171bcc55a6ff8345e692c0f86e5b48e01b996cadc001622fb5e363b421",
            "uncleHash" : "0x1dcc4de8dec75d7aab85b567b6ccd41ad312451b948a7413f0a142fd40d49347"
        },
        "genesisRLP" : "0xf901faf901f5a00000000000000000000000000000000000000000000000000000000000000000a01dcc4de8dec75d7aab85b567b6ccd41ad312451b948a7413f0a142fd40d49347942adc25665018aa1fe0e6bc666dac8fc2697ff9baa05eb464647e12f6457b3ffea1459c38cb1eb63c4472470ff8ff49adb0563692d6a056e81f171bcc55a6ff8345e692c0f86e5b48e01b996cadc001622fb5e363b421a056e81f171bcc55a6ff8345e692c0f86e5b48e01b996cadc001622fb5e363b421b9010000000000000000000000000000000000000000000000000000000000000000000000000000000000000000000000000000000000000000000000000000000000000000000000000000000000000000000000000000000000000000000000000000000000000000000000000000000000000000000000000000000000000000000000000000000000000000000000000000000000000000000000000000000000000000000000000000000000000000000000000000000000000000000000000000000000000000000000000000000000000000000000000000000000000000000000000000000000000000000000000000000000000000000000000000000000830200008083989680808203b642a056e81f171bcc55a6ff8345e692c0f86e5b48e01b996cadc001622fb5e363b421880102030405060708c0c0",
        "lastblockhash" : "0x49aeeec7bac987ac9d935a2c8e9fd410b5299e169050272ef7d0e598552ac484",
        "network" : "Homestead",
        "postState" : {
            "0x2adc25665018aa1fe0e6bc666dac8fc2697ff9ba" : {
                "balance" : "0x4563918244f5ed7f",
                "code" : "",
                "nonce" : "0x00",
                "storage" : {
                }
            },
            "0xa000000000000000000000000000000000000000" : {
                "balance" : "0x05",
                "code" : "0x60016000556000600060006000600073b000000000000000000000000000000000000000600035f1600155600c600455",
                "nonce" : "0x36",
                "storage" : {
                    "0x00" : "0x01",
                    "0x04" : "0x0c"
                }
            },
            "0xa94f5374fce5edbc8e2a8697c15331677e6ebf0b" : {
                "balance" : "0xe8d4a32281",
                "code" : "",
                "nonce" : "0x01",
                "storage" : {
                }
            },
            "0xb000000000000000000000000000000000000000" : {
                "balance" : "0x00",
                "code" : "0x6008600255600060006000f050600c600355",
                "nonce" : "0x00",
                "storage" : {
                }
            }
        },
        "pre" : {
            "0xa000000000000000000000000000000000000000" : {
                "balance" : "0x05",
                "code" : "0x60016000556000600060006000600073b000000000000000000000000000000000000000600035f1600155600c600455",
                "nonce" : "0x36",
                "storage" : {
                }
            },
            "0xa94f5374fce5edbc8e2a8697c15331677e6ebf0b" : {
                "balance" : "0xe8d4a51000",
                "code" : "",
                "nonce" : "0x00",
                "storage" : {
                }
            },
            "0xb000000000000000000000000000000000000000" : {
                "balance" : "0x00",
                "code" : "0x6008600255600060006000f050600c600355",
                "nonce" : "0x00",
                "storage" : {
                }
            }
        }
    }
}