{
    "RevertOpcodeInInit_d0g1v1_Byzantium" : {
        "_info" : {
            "comment" : "",
            "filledwith" : "cpp-1.3.0+commit.ab4ca6d1.Linux.g++",
            "lllcversion" : "Version: 0.4.20-develop.2018.1.8+commit.2548228b.Linux.g++",
            "source" : "src/BlockchainTestsFiller/GeneralStateTests/stRevertTest/RevertOpcodeInInit_d0g1v1Filler.json",
            "sourceHash" : "2f9821ddba07031b3ac11a7572b804fbd30e710f0342b96c54a3dc3c82d7c853"
        },
        "blocks" : [
            {
                "blockHeader" : {
                    "bloom" : "0x00000000000000000000000000000000000000000000000000000000000000000000000000000000000000000000000000000000000000000000000000000000000000000000000000000000000000000000000000000000000000000000000000000000000000000000000000000000000000000000000000000000000000000000000000000000000000000000000000000000000000000000000000000000000000000000000000000000000000000000000000000000000000000000000000000000000000000000000000000000000000000000000000000000000000000000000000000000000000000000000000000000000000000000000000000000",
                    "coinbase" : "0x2adc25665018aa1fe0e6bc666dac8fc2697ff9ba",
                    "difficulty" : "0x020000",
                    "extraData" : "",
                    "gasLimit" : "0x989680",
                    "gasUsed" : "0x00",
                    "hash" : "0x6477fcd6782c6f87ec23192565960e10c1b8b5fd2064cee769aa5a9022849217",
                    "mixHash" : "0xfb139c5714198ee9bda9d972d9012e3fe7584aa386a75f1384520e79859247e6",
                    "nonce" : "0x6619c54c63f68e3a",
                    "number" : "0x01",
                    "parentHash" : "0x35095b1590cfa9eed610b5b60904000ac9a8448da13600b40cc80c26458e7326",
                    "receiptTrie" : "0x56e81f171bcc55a6ff8345e692c0f86e5b48e01b996cadc001622fb5e363b421",
                    "stateRoot" : "0xa92e74a79529bc935b8e4376cf973926632a15268af6122464a5251abb3a7db0",
                    "timestamp" : "0x03e8",
                    "transactionsTrie" : "0x56e81f171bcc55a6ff8345e692c0f86e5b48e01b996cadc001622fb5e363b421",
                    "uncleHash" : "0x1dcc4de8dec75d7aab85b567b6ccd41ad312451b948a7413f0a142fd40d49347"
                },
                "rlp" : "0xf901faf901f5a035095b1590cfa9eed610b5b60904000ac9a8448da13600b40cc80c26458e7326a01dcc4de8dec75d7aab85b567b6ccd41ad312451b948a7413f0a142fd40d49347942adc25665018aa1fe0e6bc666dac8fc2697ff9baa0a92e74a79529bc935b8e4376cf973926632a15268af6122464a5251abb3a7db0a056e81f171bcc55a6ff8345e692c0f86e5b48e01b996cadc001622fb5e363b421a056e81f171bcc55a6ff8345e692c0f86e5b48e01b996cadc001622fb5e363b421b9010000000000000000000000000000000000000000000000000000000000000000000000000000000000000000000000000000000000000000000000000000000000000000000000000000000000000000000000000000000000000000000000000000000000000000000000000000000000000000000000000000000000000000000000000000000000000000000000000000000000000000000000000000000000000000000000000000000000000000000000000000000000000000000000000000000000000000000000000000000000000000000000000000000000000000000000000000000000000000000000000000000000000000000000000000000000830200000183989680808203e880a0fb139c5714198ee9bda9d972d9012e3fe7584aa386a75f1384520e79859247e6886619c54c63f68e3ac0c0",
                "transactions" : [
                ],
                "uncleHeaders" : [
                ]
            }
        ],
        "genesisBlockHeader" : {
            "bloom" : "0x00000000000000000000000000000000000000000000000000000000000000000000000000000000000000000000000000000000000000000000000000000000000000000000000000000000000000000000000000000000000000000000000000000000000000000000000000000000000000000000000000000000000000000000000000000000000000000000000000000000000000000000000000000000000000000000000000000000000000000000000000000000000000000000000000000000000000000000000000000000000000000000000000000000000000000000000000000000000000000000000000000000000000000000000000000000",
            "coinbase" : "0x2adc25665018aa1fe0e6bc666dac8fc2697ff9ba",
            "difficulty" : "0x020000",
            "extraData" : "0x42",
            "gasLimit" : "0x989680",
            "gasUsed" : "0x00",
            "hash" : "0x35095b1590cfa9eed610b5b60904000ac9a8448da13600b40cc80c26458e7326",
            "mixHash" : "0x56e81f171bcc55a6ff8345e692c0f86e5b48e01b996cadc001622fb5e363b421",
            "nonce" : "0x0102030405060708",
            "number" : "0x00",
            "parentHash" : "0x0000000000000000000000000000000000000000000000000000000000000000",
            "receiptTrie" : "0x56e81f171bcc55a6ff8345e692c0f86e5b48e01b996cadc001622fb5e363b421",
            "stateRoot" : "0x17ca3d673553cbfcf5de4a99ea08088763bbf64aa67ae17a485f585bcc01d3f2",
            "timestamp" : "0x03b6",
            "transactionsTrie" : "0x56e81f171bcc55a6ff8345e692c0f86e5b48e01b996cadc001622fb5e363b421",
            "uncleHash" : "0x1dcc4de8dec75d7aab85b567b6ccd41ad312451b948a7413f0a142fd40d49347"
        },
        "genesisRLP" : "0xf901faf901f5a00000000000000000000000000000000000000000000000000000000000000000a01dcc4de8dec75d7aab85b567b6ccd41ad312451b948a7413f0a142fd40d49347942adc25665018aa1fe0e6bc666dac8fc2697ff9baa017ca3d673553cbfcf5de4a99ea08088763bbf64aa67ae17a485f585bcc01d3f2a056e81f171bcc55a6ff8345e692c0f86e5b48e01b996cadc001622fb5e363b421a056e81f171bcc55a6ff8345e692c0f86e5b48e01b996cadc001622fb5e363b421b9010000000000000000000000000000000000000000000000000000000000000000000000000000000000000000000000000000000000000000000000000000000000000000000000000000000000000000000000000000000000000000000000000000000000000000000000000000000000000000000000000000000000000000000000000000000000000000000000000000000000000000000000000000000000000000000000000000000000000000000000000000000000000000000000000000000000000000000000000000000000000000000000000000000000000000000000000000000000000000000000000000000000000000000000000000000000830200008083989680808203b642a056e81f171bcc55a6ff8345e692c0f86e5b48e01b996cadc001622fb5e363b421880102030405060708c0c0",
        "lastblockhash" : "0x6477fcd6782c6f87ec23192565960e10c1b8b5fd2064cee769aa5a9022849217",
        "network" : "Byzantium",
        "postState" : {
            "0x2adc25665018aa1fe0e6bc666dac8fc2697ff9ba" : {
                "balance" : "0x29a2241af62c0000",
                "code" : "",
                "nonce" : "0x00",
                "storage" : {
                }
            },
            "0xa94f5374fce5edbc8e2a8697c15331677e6ebf0b" : {
                "balance" : "0xe8d4a51000",
                "code" : "",
                "nonce" : "0x00",
                "storage" : {
                }
            }
        },
        "pre" : {
            "0xa94f5374fce5edbc8e2a8697c15331677e6ebf0b" : {
                "balance" : "0xe8d4a51000",
                "code" : "",
                "nonce" : "0x00",
                "storage" : {
                }
            }
        }
    },
    "RevertOpcodeInInit_d0g1v1_EIP150" : {
        "_info" : {
            "comment" : "",
            "filledwith" : "cpp-1.3.0+commit.ab4ca6d1.Linux.g++",
            "lllcversion" : "Version: 0.4.20-develop.2018.1.8+commit.2548228b.Linux.g++",
            "source" : "src/BlockchainTestsFiller/GeneralStateTests/stRevertTest/RevertOpcodeInInit_d0g1v1Filler.json",
            "sourceHash" : "2f9821ddba07031b3ac11a7572b804fbd30e710f0342b96c54a3dc3c82d7c853"
        },
        "blocks" : [
            {
                "blockHeader" : {
                    "bloom" : "0x00000000000000000000000000000000000000000000000000000000000000000000000000000000000000000000000000000000000000000000000000000000000000000000000000000000000000000000000000000000000000000000000000000000000000000000000000000000000000000000000000000000000000000000000000000000000000000000000000000000000000000000000000000000000000000000000000000000000000000000000000000000000000000000000000000000000000000000000000000000000000000000000000000000000000000000000000000000000000000000000000000000000000000000000000000000",
                    "coinbase" : "0x2adc25665018aa1fe0e6bc666dac8fc2697ff9ba",
                    "difficulty" : "0x020000",
                    "extraData" : "",
                    "gasLimit" : "0x989680",
                    "gasUsed" : "0x00",
                    "hash" : "0xc95dca418f5e7efc4bea27a777bcfcf9468a93029131bd9dd7594e0246f8578a",
                    "mixHash" : "0x4d9f0b0caa8e408c6711a72034b7acc5bdc9bbceb1b97cff2269976fa0611360",
                    "nonce" : "0x680245295b0e92b3",
                    "number" : "0x01",
                    "parentHash" : "0x35095b1590cfa9eed610b5b60904000ac9a8448da13600b40cc80c26458e7326",
                    "receiptTrie" : "0x56e81f171bcc55a6ff8345e692c0f86e5b48e01b996cadc001622fb5e363b421",
                    "stateRoot" : "0x39715de6b148bb6b1f2a12f7af929bc6b366242d7648b35bce06870cdb41c20f",
                    "timestamp" : "0x03e8",
                    "transactionsTrie" : "0x56e81f171bcc55a6ff8345e692c0f86e5b48e01b996cadc001622fb5e363b421",
                    "uncleHash" : "0x1dcc4de8dec75d7aab85b567b6ccd41ad312451b948a7413f0a142fd40d49347"
                },
                "rlp" : "0xf901faf901f5a035095b1590cfa9eed610b5b60904000ac9a8448da13600b40cc80c26458e7326a01dcc4de8dec75d7aab85b567b6ccd41ad312451b948a7413f0a142fd40d49347942adc25665018aa1fe0e6bc666dac8fc2697ff9baa039715de6b148bb6b1f2a12f7af929bc6b366242d7648b35bce06870cdb41c20fa056e81f171bcc55a6ff8345e692c0f86e5b48e01b996cadc001622fb5e363b421a056e81f171bcc55a6ff8345e692c0f86e5b48e01b996cadc001622fb5e363b421b9010000000000000000000000000000000000000000000000000000000000000000000000000000000000000000000000000000000000000000000000000000000000000000000000000000000000000000000000000000000000000000000000000000000000000000000000000000000000000000000000000000000000000000000000000000000000000000000000000000000000000000000000000000000000000000000000000000000000000000000000000000000000000000000000000000000000000000000000000000000000000000000000000000000000000000000000000000000000000000000000000000000000000000000000000000000000830200000183989680808203e880a04d9f0b0caa8e408c6711a72034b7acc5bdc9bbceb1b97cff2269976fa061136088680245295b0e92b3c0c0",
                "transactions" : [
                ],
                "uncleHeaders" : [
                ]
            }
        ],
        "genesisBlockHeader" : {
            "bloom" : "0x00000000000000000000000000000000000000000000000000000000000000000000000000000000000000000000000000000000000000000000000000000000000000000000000000000000000000000000000000000000000000000000000000000000000000000000000000000000000000000000000000000000000000000000000000000000000000000000000000000000000000000000000000000000000000000000000000000000000000000000000000000000000000000000000000000000000000000000000000000000000000000000000000000000000000000000000000000000000000000000000000000000000000000000000000000000",
            "coinbase" : "0x2adc25665018aa1fe0e6bc666dac8fc2697ff9ba",
            "difficulty" : "0x020000",
            "extraData" : "0x42",
            "gasLimit" : "0x989680",
            "gasUsed" : "0x00",
            "hash" : "0x35095b1590cfa9eed610b5b60904000ac9a8448da13600b40cc80c26458e7326",
            "mixHash" : "0x56e81f171bcc55a6ff8345e692c0f86e5b48e01b996cadc001622fb5e363b421",
            "nonce" : "0x0102030405060708",
            "number" : "0x00",
            "parentHash" : "0x0000000000000000000000000000000000000000000000000000000000000000",
            "receiptTrie" : "0x56e81f171bcc55a6ff8345e692c0f86e5b48e01b996cadc001622fb5e363b421",
            "stateRoot" : "0x17ca3d673553cbfcf5de4a99ea08088763bbf64aa67ae17a485f585bcc01d3f2",
            "timestamp" : "0x03b6",
            "transactionsTrie" : "0x56e81f171bcc55a6ff8345e692c0f86e5b48e01b996cadc001622fb5e363b421",
            "uncleHash" : "0x1dcc4de8dec75d7aab85b567b6ccd41ad312451b948a7413f0a142fd40d49347"
        },
        "genesisRLP" : "0xf901faf901f5a00000000000000000000000000000000000000000000000000000000000000000a01dcc4de8dec75d7aab85b567b6ccd41ad312451b948a7413f0a142fd40d49347942adc25665018aa1fe0e6bc666dac8fc2697ff9baa017ca3d673553cbfcf5de4a99ea08088763bbf64aa67ae17a485f585bcc01d3f2a056e81f171bcc55a6ff8345e692c0f86e5b48e01b996cadc001622fb5e363b421a056e81f171bcc55a6ff8345e692c0f86e5b48e01b996cadc001622fb5e363b421b9010000000000000000000000000000000000000000000000000000000000000000000000000000000000000000000000000000000000000000000000000000000000000000000000000000000000000000000000000000000000000000000000000000000000000000000000000000000000000000000000000000000000000000000000000000000000000000000000000000000000000000000000000000000000000000000000000000000000000000000000000000000000000000000000000000000000000000000000000000000000000000000000000000000000000000000000000000000000000000000000000000000000000000000000000000000000830200008083989680808203b642a056e81f171bcc55a6ff8345e692c0f86e5b48e01b996cadc001622fb5e363b421880102030405060708c0c0",
        "lastblockhash" : "0xc95dca418f5e7efc4bea27a777bcfcf9468a93029131bd9dd7594e0246f8578a",
        "network" : "EIP150",
        "postState" : {
            "0x2adc25665018aa1fe0e6bc666dac8fc2697ff9ba" : {
                "balance" : "0x4563918244f40000",
                "code" : "",
                "nonce" : "0x00",
                "storage" : {
                }
            },
            "0xa94f5374fce5edbc8e2a8697c15331677e6ebf0b" : {
                "balance" : "0xe8d4a51000",
                "code" : "",
                "nonce" : "0x00",
                "storage" : {
                }
            }
        },
        "pre" : {
            "0xa94f5374fce5edbc8e2a8697c15331677e6ebf0b" : {
                "balance" : "0xe8d4a51000",
                "code" : "",
                "nonce" : "0x00",
                "storage" : {
                }
            }
        }
    },
    "RevertOpcodeInInit_d0g1v1_EIP158" : {
        "_info" : {
            "comment" : "",
            "filledwith" : "cpp-1.3.0+commit.ab4ca6d1.Linux.g++",
            "lllcversion" : "Version: 0.4.20-develop.2018.1.8+commit.2548228b.Linux.g++",
            "source" : "src/BlockchainTestsFiller/GeneralStateTests/stRevertTest/RevertOpcodeInInit_d0g1v1Filler.json",
            "sourceHash" : "2f9821ddba07031b3ac11a7572b804fbd30e710f0342b96c54a3dc3c82d7c853"
        },
        "blocks" : [
            {
                "blockHeader" : {
                    "bloom" : "0x00000000000000000000000000000000000000000000000000000000000000000000000000000000000000000000000000000000000000000000000000000000000000000000000000000000000000000000000000000000000000000000000000000000000000000000000000000000000000000000000000000000000000000000000000000000000000000000000000000000000000000000000000000000000000000000000000000000000000000000000000000000000000000000000000000000000000000000000000000000000000000000000000000000000000000000000000000000000000000000000000000000000000000000000000000000",
                    "coinbase" : "0x2adc25665018aa1fe0e6bc666dac8fc2697ff9ba",
                    "difficulty" : "0x020000",
                    "extraData" : "",
                    "gasLimit" : "0x989680",
                    "gasUsed" : "0x00",
                    "hash" : "0x8512293f2036d4b91946107fe274ebbfec7f0b9e25bcf90b5b1d0f843acfba94",
                    "mixHash" : "0x7e63dffacf95a1b60dcc677138ab4c15effbf1fcc9ddd8818d008e4c4adcbf35",
                    "nonce" : "0x6fa760f25deced36",
                    "number" : "0x01",
                    "parentHash" : "0x35095b1590cfa9eed610b5b60904000ac9a8448da13600b40cc80c26458e7326",
                    "receiptTrie" : "0x56e81f171bcc55a6ff8345e692c0f86e5b48e01b996cadc001622fb5e363b421",
                    "stateRoot" : "0x39715de6b148bb6b1f2a12f7af929bc6b366242d7648b35bce06870cdb41c20f",
                    "timestamp" : "0x03e8",
                    "transactionsTrie" : "0x56e81f171bcc55a6ff8345e692c0f86e5b48e01b996cadc001622fb5e363b421",
                    "uncleHash" : "0x1dcc4de8dec75d7aab85b567b6ccd41ad312451b948a7413f0a142fd40d49347"
                },
                "rlp" : "0xf901faf901f5a035095b1590cfa9eed610b5b60904000ac9a8448da13600b40cc80c26458e7326a01dcc4de8dec75d7aab85b567b6ccd41ad312451b948a7413f0a142fd40d49347942adc25665018aa1fe0e6bc666dac8fc2697ff9baa039715de6b148bb6b1f2a12f7af929bc6b366242d7648b35bce06870cdb41c20fa056e81f171bcc55a6ff8345e692c0f86e5b48e01b996cadc001622fb5e363b421a056e81f171bcc55a6ff8345e692c0f86e5b48e01b996cadc001622fb5e363b421b9010000000000000000000000000000000000000000000000000000000000000000000000000000000000000000000000000000000000000000000000000000000000000000000000000000000000000000000000000000000000000000000000000000000000000000000000000000000000000000000000000000000000000000000000000000000000000000000000000000000000000000000000000000000000000000000000000000000000000000000000000000000000000000000000000000000000000000000000000000000000000000000000000000000000000000000000000000000000000000000000000000000000000000000000000000000000830200000183989680808203e880a07e63dffacf95a1b60dcc677138ab4c15effbf1fcc9ddd8818d008e4c4adcbf35886fa760f25deced36c0c0",
                "transactions" : [
                ],
                "uncleHeaders" : [
                ]
            }
        ],
        "genesisBlockHeader" : {
            "bloom" : "0x00000000000000000000000000000000000000000000000000000000000000000000000000000000000000000000000000000000000000000000000000000000000000000000000000000000000000000000000000000000000000000000000000000000000000000000000000000000000000000000000000000000000000000000000000000000000000000000000000000000000000000000000000000000000000000000000000000000000000000000000000000000000000000000000000000000000000000000000000000000000000000000000000000000000000000000000000000000000000000000000000000000000000000000000000000000",
            "coinbase" : "0x2adc25665018aa1fe0e6bc666dac8fc2697ff9ba",
            "difficulty" : "0x020000",
            "extraData" : "0x42",
            "gasLimit" : "0x989680",
            "gasUsed" : "0x00",
            "hash" : "0x35095b1590cfa9eed610b5b60904000ac9a8448da13600b40cc80c26458e7326",
            "mixHash" : "0x56e81f171bcc55a6ff8345e692c0f86e5b48e01b996cadc001622fb5e363b421",
            "nonce" : "0x0102030405060708",
            "number" : "0x00",
            "parentHash" : "0x0000000000000000000000000000000000000000000000000000000000000000",
            "receiptTrie" : "0x56e81f171bcc55a6ff8345e692c0f86e5b48e01b996cadc001622fb5e363b421",
            "stateRoot" : "0x17ca3d673553cbfcf5de4a99ea08088763bbf64aa67ae17a485f585bcc01d3f2",
            "timestamp" : "0x03b6",
            "transactionsTrie" : "0x56e81f171bcc55a6ff8345e692c0f86e5b48e01b996cadc001622fb5e363b421",
            "uncleHash" : "0x1dcc4de8dec75d7aab85b567b6ccd41ad312451b948a7413f0a142fd40d49347"
        },
        "genesisRLP" : "0xf901faf901f5a00000000000000000000000000000000000000000000000000000000000000000a01dcc4de8dec75d7aab85b567b6ccd41ad312451b948a7413f0a142fd40d49347942adc25665018aa1fe0e6bc666dac8fc2697ff9baa017ca3d673553cbfcf5de4a99ea08088763bbf64aa67ae17a485f585bcc01d3f2a056e81f171bcc55a6ff8345e692c0f86e5b48e01b996cadc001622fb5e363b421a056e81f171bcc55a6ff8345e692c0f86e5b48e01b996cadc001622fb5e363b421b9010000000000000000000000000000000000000000000000000000000000000000000000000000000000000000000000000000000000000000000000000000000000000000000000000000000000000000000000000000000000000000000000000000000000000000000000000000000000000000000000000000000000000000000000000000000000000000000000000000000000000000000000000000000000000000000000000000000000000000000000000000000000000000000000000000000000000000000000000000000000000000000000000000000000000000000000000000000000000000000000000000000000000000000000000000000000830200008083989680808203b642a056e81f171bcc55a6ff8345e692c0f86e5b48e01b996cadc001622fb5e363b421880102030405060708c0c0",
        "lastblockhash" : "0x8512293f2036d4b91946107fe274ebbfec7f0b9e25bcf90b5b1d0f843acfba94",
        "network" : "EIP158",
        "postState" : {
            "0x2adc25665018aa1fe0e6bc666dac8fc2697ff9ba" : {
                "balance" : "0x4563918244f40000",
                "code" : "",
                "nonce" : "0x00",
                "storage" : {
                }
            },
            "0xa94f5374fce5edbc8e2a8697c15331677e6ebf0b" : {
                "balance" : "0xe8d4a51000",
                "code" : "",
                "nonce" : "0x00",
                "storage" : {
                }
            }
        },
        "pre" : {
            "0xa94f5374fce5edbc8e2a8697c15331677e6ebf0b" : {
                "balance" : "0xe8d4a51000",
                "code" : "",
                "nonce" : "0x00",
                "storage" : {
                }
            }
        }
    },
    "RevertOpcodeInInit_d0g1v1_Frontier" : {
        "_info" : {
            "comment" : "",
            "filledwith" : "cpp-1.3.0+commit.ab4ca6d1.Linux.g++",
            "lllcversion" : "Version: 0.4.20-develop.2018.1.8+commit.2548228b.Linux.g++",
            "source" : "src/BlockchainTestsFiller/GeneralStateTests/stRevertTest/RevertOpcodeInInit_d0g1v1Filler.json",
            "sourceHash" : "2f9821ddba07031b3ac11a7572b804fbd30e710f0342b96c54a3dc3c82d7c853"
        },
        "blocks" : [
            {
                "blockHeader" : {
                    "bloom" : "0x00000000000000000000000000000000000000000000000000000000000000000000000000000000000000000000000000000000000000000000000000000000000000000000000000000000000000000000000000000000000000000000000000000000000000000000000000000000000000000000000000000000000000000000000000000000000000000000000000000000000000000000000000000000000000000000000000000000000000000000000000000000000000000000000000000000000000000000000000000000000000000000000000000000000000000000000000000000000000000000000000000000000000000000000000000000",
                    "coinbase" : "0x2adc25665018aa1fe0e6bc666dac8fc2697ff9ba",
                    "difficulty" : "0x020000",
                    "extraData" : "",
                    "gasLimit" : "0x989680",
                    "gasUsed" : "0x9c40",
                    "hash" : "0xee5c1d9fb3336e0278559e0b239b348d7ed90ae2e13bc0d4c25c80807b61df04",
                    "mixHash" : "0x86324c27cbaa7e12b7ea5438bd4052e566c44204679fc8fa362e5dbd8c74fedd",
                    "nonce" : "0x940d955eb35e98f0",
                    "number" : "0x01",
                    "parentHash" : "0x35095b1590cfa9eed610b5b60904000ac9a8448da13600b40cc80c26458e7326",
                    "receiptTrie" : "0xd2b034eb827c9fa799ac222889f8d2d82809255f75b03a8a25ee6970f963c817",
                    "stateRoot" : "0x597c8ce70b7c50fe3e90f48e58b7c4c0a8ed3f5803b1a8698ea27c4381e25807",
                    "timestamp" : "0x03e8",
                    "transactionsTrie" : "0xe432822c10ac76b82bfb468cd9b1ac2e36b291bfba820db4841636e7465c05e0",
                    "uncleHash" : "0x1dcc4de8dec75d7aab85b567b6ccd41ad312451b948a7413f0a142fd40d49347"
                },
                "rlp" : "0xf90259f901f7a035095b1590cfa9eed610b5b60904000ac9a8448da13600b40cc80c26458e7326a01dcc4de8dec75d7aab85b567b6ccd41ad312451b948a7413f0a142fd40d49347942adc25665018aa1fe0e6bc666dac8fc2697ff9baa0597c8ce70b7c50fe3e90f48e58b7c4c0a8ed3f5803b1a8698ea27c4381e25807a0e432822c10ac76b82bfb468cd9b1ac2e36b291bfba820db4841636e7465c05e0a0d2b034eb827c9fa799ac222889f8d2d82809255f75b03a8a25ee6970f963c817b9010000000000000000000000000000000000000000000000000000000000000000000000000000000000000000000000000000000000000000000000000000000000000000000000000000000000000000000000000000000000000000000000000000000000000000000000000000000000000000000000000000000000000000000000000000000000000000000000000000000000000000000000000000000000000000000000000000000000000000000000000000000000000000000000000000000000000000000000000000000000000000000000000000000000000000000000000000000000000000000000000000000000000000000000000000000000830200000183989680829c408203e880a086324c27cbaa7e12b7ea5438bd4052e566c44204679fc8fa362e5dbd8c74fedd88940d955eb35e98f0f85cf85a8001829c40800a8f600160005560016000fd60116001551ba0e6dc8dd91ade4a163bcc33c6ac4cf36df0d0c73a7edd4ee8f01f7f00b1d478d5a02b505f18cdf7dece0e9fd7d5931dfd6d62436556012394fb68035f2e269360fcc0",
                "transactions" : [
                    {
                        "data" : "0x600160005560016000fd6011600155",
                        "gasLimit" : "0x9c40",
                        "gasPrice" : "0x01",
                        "nonce" : "0x00",
                        "r" : "0xe6dc8dd91ade4a163bcc33c6ac4cf36df0d0c73a7edd4ee8f01f7f00b1d478d5",
                        "s" : "0x2b505f18cdf7dece0e9fd7d5931dfd6d62436556012394fb68035f2e269360fc",
                        "to" : "",
                        "v" : "0x1b",
                        "value" : "0x0a"
                    }
                ],
                "uncleHeaders" : [
                ]
            }
        ],
        "genesisBlockHeader" : {
            "bloom" : "0x00000000000000000000000000000000000000000000000000000000000000000000000000000000000000000000000000000000000000000000000000000000000000000000000000000000000000000000000000000000000000000000000000000000000000000000000000000000000000000000000000000000000000000000000000000000000000000000000000000000000000000000000000000000000000000000000000000000000000000000000000000000000000000000000000000000000000000000000000000000000000000000000000000000000000000000000000000000000000000000000000000000000000000000000000000000",
            "coinbase" : "0x2adc25665018aa1fe0e6bc666dac8fc2697ff9ba",
            "difficulty" : "0x020000",
            "extraData" : "0x42",
            "gasLimit" : "0x989680",
            "gasUsed" : "0x00",
            "hash" : "0x35095b1590cfa9eed610b5b60904000ac9a8448da13600b40cc80c26458e7326",
            "mixHash" : "0x56e81f171bcc55a6ff8345e692c0f86e5b48e01b996cadc001622fb5e363b421",
            "nonce" : "0x0102030405060708",
            "number" : "0x00",
            "parentHash" : "0x0000000000000000000000000000000000000000000000000000000000000000",
            "receiptTrie" : "0x56e81f171bcc55a6ff8345e692c0f86e5b48e01b996cadc001622fb5e363b421",
            "stateRoot" : "0x17ca3d673553cbfcf5de4a99ea08088763bbf64aa67ae17a485f585bcc01d3f2",
            "timestamp" : "0x03b6",
            "transactionsTrie" : "0x56e81f171bcc55a6ff8345e692c0f86e5b48e01b996cadc001622fb5e363b421",
            "uncleHash" : "0x1dcc4de8dec75d7aab85b567b6ccd41ad312451b948a7413f0a142fd40d49347"
        },
        "genesisRLP" : "0xf901faf901f5a00000000000000000000000000000000000000000000000000000000000000000a01dcc4de8dec75d7aab85b567b6ccd41ad312451b948a7413f0a142fd40d49347942adc25665018aa1fe0e6bc666dac8fc2697ff9baa017ca3d673553cbfcf5de4a99ea08088763bbf64aa67ae17a485f585bcc01d3f2a056e81f171bcc55a6ff8345e692c0f86e5b48e01b996cadc001622fb5e363b421a056e81f171bcc55a6ff8345e692c0f86e5b48e01b996cadc001622fb5e363b421b9010000000000000000000000000000000000000000000000000000000000000000000000000000000000000000000000000000000000000000000000000000000000000000000000000000000000000000000000000000000000000000000000000000000000000000000000000000000000000000000000000000000000000000000000000000000000000000000000000000000000000000000000000000000000000000000000000000000000000000000000000000000000000000000000000000000000000000000000000000000000000000000000000000000000000000000000000000000000000000000000000000000000000000000000000000000000830200008083989680808203b642a056e81f171bcc55a6ff8345e692c0f86e5b48e01b996cadc001622fb5e363b421880102030405060708c0c0",
        "lastblockhash" : "0xee5c1d9fb3336e0278559e0b239b348d7ed90ae2e13bc0d4c25c80807b61df04",
        "network" : "Frontier",
        "postState" : {
            "0x2adc25665018aa1fe0e6bc666dac8fc2697ff9ba" : {
                "balance" : "0x4563918244f49c40",
                "code" : "",
                "nonce" : "0x00",
                "storage" : {
                }
            },
            "0xa94f5374fce5edbc8e2a8697c15331677e6ebf0b" : {
                "balance" : "0xe8d4a473c0",
                "code" : "",
                "nonce" : "0x01",
                "storage" : {
                }
            }
        },
        "pre" : {
            "0xa94f5374fce5edbc8e2a8697c15331677e6ebf0b" : {
                "balance" : "0xe8d4a51000",
                "code" : "",
                "nonce" : "0x00",
                "storage" : {
                }
            }
        }
    },
    "RevertOpcodeInInit_d0g1v1_Homestead" : {
        "_info" : {
            "comment" : "",
            "filledwith" : "cpp-1.3.0+commit.ab4ca6d1.Linux.g++",
            "lllcversion" : "Version: 0.4.20-develop.2018.1.8+commit.2548228b.Linux.g++",
            "source" : "src/BlockchainTestsFiller/GeneralStateTests/stRevertTest/RevertOpcodeInInit_d0g1v1Filler.json",
            "sourceHash" : "2f9821ddba07031b3ac11a7572b804fbd30e710f0342b96c54a3dc3c82d7c853"
        },
        "blocks" : [
            {
                "blockHeader" : {
                    "bloom" : "0x00000000000000000000000000000000000000000000000000000000000000000000000000000000000000000000000000000000000000000000000000000000000000000000000000000000000000000000000000000000000000000000000000000000000000000000000000000000000000000000000000000000000000000000000000000000000000000000000000000000000000000000000000000000000000000000000000000000000000000000000000000000000000000000000000000000000000000000000000000000000000000000000000000000000000000000000000000000000000000000000000000000000000000000000000000000",
                    "coinbase" : "0x2adc25665018aa1fe0e6bc666dac8fc2697ff9ba",
                    "difficulty" : "0x020000",
                    "extraData" : "",
                    "gasLimit" : "0x989680",
                    "gasUsed" : "0x00",
                    "hash" : "0x2c550b84f8f3dfbe4f0a71a6c5a5117c609863fb2be753a8bad5f67e1f229cb4",
                    "mixHash" : "0x324a33ec75c0fb4228873cd5a5a3eea87a5fbc212d095f3310c432fc12c39272",
                    "nonce" : "0x159276d6eaa11d1e",
                    "number" : "0x01",
                    "parentHash" : "0x35095b1590cfa9eed610b5b60904000ac9a8448da13600b40cc80c26458e7326",
                    "receiptTrie" : "0x56e81f171bcc55a6ff8345e692c0f86e5b48e01b996cadc001622fb5e363b421",
                    "stateRoot" : "0x39715de6b148bb6b1f2a12f7af929bc6b366242d7648b35bce06870cdb41c20f",
                    "timestamp" : "0x03e8",
                    "transactionsTrie" : "0x56e81f171bcc55a6ff8345e692c0f86e5b48e01b996cadc001622fb5e363b421",
                    "uncleHash" : "0x1dcc4de8dec75d7aab85b567b6ccd41ad312451b948a7413f0a142fd40d49347"
                },
                "rlp" : "0xf901faf901f5a035095b1590cfa9eed610b5b60904000ac9a8448da13600b40cc80c26458e7326a01dcc4de8dec75d7aab85b567b6ccd41ad312451b948a7413f0a142fd40d49347942adc25665018aa1fe0e6bc666dac8fc2697ff9baa039715de6b148bb6b1f2a12f7af929bc6b366242d7648b35bce06870cdb41c20fa056e81f171bcc55a6ff8345e692c0f86e5b48e01b996cadc001622fb5e363b421a056e81f171bcc55a6ff8345e692c0f86e5b48e01b996cadc001622fb5e363b421b9010000000000000000000000000000000000000000000000000000000000000000000000000000000000000000000000000000000000000000000000000000000000000000000000000000000000000000000000000000000000000000000000000000000000000000000000000000000000000000000000000000000000000000000000000000000000000000000000000000000000000000000000000000000000000000000000000000000000000000000000000000000000000000000000000000000000000000000000000000000000000000000000000000000000000000000000000000000000000000000000000000000000000000000000000000000000830200000183989680808203e880a0324a33ec75c0fb4228873cd5a5a3eea87a5fbc212d095f3310c432fc12c3927288159276d6eaa11d1ec0c0",
                "transactions" : [
                ],
                "uncleHeaders" : [
                ]
            }
        ],
        "genesisBlockHeader" : {
            "bloom" : "0x00000000000000000000000000000000000000000000000000000000000000000000000000000000000000000000000000000000000000000000000000000000000000000000000000000000000000000000000000000000000000000000000000000000000000000000000000000000000000000000000000000000000000000000000000000000000000000000000000000000000000000000000000000000000000000000000000000000000000000000000000000000000000000000000000000000000000000000000000000000000000000000000000000000000000000000000000000000000000000000000000000000000000000000000000000000",
            "coinbase" : "0x2adc25665018aa1fe0e6bc666dac8fc2697ff9ba",
            "difficulty" : "0x020000",
            "extraData" : "0x42",
            "gasLimit" : "0x989680",
            "gasUsed" : "0x00",
            "hash" : "0x35095b1590cfa9eed610b5b60904000ac9a8448da13600b40cc80c26458e7326",
            "mixHash" : "0x56e81f171bcc55a6ff8345e692c0f86e5b48e01b996cadc001622fb5e363b421",
            "nonce" : "0x0102030405060708",
            "number" : "0x00",
            "parentHash" : "0x0000000000000000000000000000000000000000000000000000000000000000",
            "receiptTrie" : "0x56e81f171bcc55a6ff8345e692c0f86e5b48e01b996cadc001622fb5e363b421",
            "stateRoot" : "0x17ca3d673553cbfcf5de4a99ea08088763bbf64aa67ae17a485f585bcc01d3f2",
            "timestamp" : "0x03b6",
            "transactionsTrie" : "0x56e81f171bcc55a6ff8345e692c0f86e5b48e01b996cadc001622fb5e363b421",
            "uncleHash" : "0x1dcc4de8dec75d7aab85b567b6ccd41ad312451b948a7413f0a142fd40d49347"
        },
        "genesisRLP" : "0xf901faf901f5a00000000000000000000000000000000000000000000000000000000000000000a01dcc4de8dec75d7aab85b567b6ccd41ad312451b948a7413f0a142fd40d49347942adc25665018aa1fe0e6bc666dac8fc2697ff9baa017ca3d673553cbfcf5de4a99ea08088763bbf64aa67ae17a485f585bcc01d3f2a056e81f171bcc55a6ff8345e692c0f86e5b48e01b996cadc001622fb5e363b421a056e81f171bcc55a6ff8345e692c0f86e5b48e01b996cadc001622fb5e363b421b9010000000000000000000000000000000000000000000000000000000000000000000000000000000000000000000000000000000000000000000000000000000000000000000000000000000000000000000000000000000000000000000000000000000000000000000000000000000000000000000000000000000000000000000000000000000000000000000000000000000000000000000000000000000000000000000000000000000000000000000000000000000000000000000000000000000000000000000000000000000000000000000000000000000000000000000000000000000000000000000000000000000000000000000000000000000000830200008083989680808203b642a056e81f171bcc55a6ff8345e692c0f86e5b48e01b996cadc001622fb5e363b421880102030405060708c0c0",
        "lastblockhash" : "0x2c550b84f8f3dfbe4f0a71a6c5a5117c609863fb2be753a8bad5f67e1f229cb4",
        "network" : "Homestead",
        "postState" : {
            "0x2adc25665018aa1fe0e6bc666dac8fc2697ff9ba" : {
                "balance" : "0x4563918244f40000",
                "code" : "",
                "nonce" : "0x00",
                "storage" : {
                }
            },
            "0xa94f5374fce5edbc8e2a8697c15331677e6ebf0b" : {
                "balance" : "0xe8d4a51000",
                "code" : "",
                "nonce" : "0x00",
                "storage" : {
                }
            }
        },
        "pre" : {
            "0xa94f5374fce5edbc8e2a8697c15331677e6ebf0b" : {
                "balance" : "0xe8d4a51000",
                "code" : "",
                "nonce" : "0x00",
                "storage" : {
                }
            }
        }
    }
}