{
    "RevertRemoteSubCallStorageOOG_d0g0v0_Cancun" : {
        "_info" : {
            "comment" : "contract A calls itself. In the sub-call, storage is modified, the calls returns successfully. After that, storage is modified again and then an exception occurs.  0xc0406226 == sha(run())",
            "filling-rpc-server" : "evm version 1.14.4-unstable-3d8028a6-20240513",
            "filling-tool-version" : "retesteth-0.3.2-cancun+commit.cae6bc33.Linux.g++",
            "generatedTestHash" : "c75b688dc39f1c7fe21c0f9d1c8939869c182a0179c2d90ef9966e18b4ca8401",
            "lllcversion" : "Version: 0.5.14-develop.2023.7.11+commit.c58ab2c6.mod.Linux.g++",
            "solidity" : "Version: 0.8.21+commit.d9974bed.Linux.g++",
            "source" : "src/GeneralStateTestsFiller/stRevertTest/RevertRemoteSubCallStorageOOGFiller.yml",
            "sourceHash" : "fb0bf2ff75e07b0e787a92255e3756cd153510240af99fdec98faea9561fec5b"
        },
        "blocks" : [
            {
                "blockHeader" : {
                    "baseFeePerGas" : "0x0a",
                    "blobGasUsed" : "0x00",
                    "bloom" : "0x00000000000000000000000000000000000000000000000000000000000000000000000000000000000000000000000000000000000000000000000000000000000000000000000000000000000000000000000000000000000000000000000000000000000000000000000000000000000000000000000000000000000000000000000000000000000000000000000000000000000000000000000000000000000000000000000000000000000000000000000000000000000000000000000000000000000000000000000000000000000000000000000000000000000000000000000000000000000000000000000000000000000000000000000000000000",
                    "coinbase" : "0x2adc25665018aa1fe0e6bc666dac8fc2697ff9ba",
                    "difficulty" : "0x00",
                    "excessBlobGas" : "0x00",
                    "extraData" : "0x00",
                    "gasLimit" : "0x989680",
                    "gasUsed" : "0x0346d8",
                    "hash" : "0xcef8238dc9c9b89ca2cbe466124d6e0af7d79e53d8c584818efec44fd3622ad5",
                    "mixHash" : "0x0000000000000000000000000000000000000000000000000000000000020000",
                    "nonce" : "0x0000000000000000",
                    "number" : "0x01",
                    "parentBeaconBlockRoot" : "0x0000000000000000000000000000000000000000000000000000000000000000",
                    "parentHash" : "0x2f05081ce5f94e47af8e48403c39121f4229956ece1833d93bd0cd7e5c51eba7",
                    "receiptTrie" : "0xad9f3e8164cc14e48c37c7d50dd0cd15a39e2f46e2c27b3a5d55d02816ddc917",
                    "stateRoot" : "0xd79c5be2db0aabb1766f418e71caefb20c5019c84b67b996b3266c2bd5414fce",
                    "timestamp" : "0x03e8",
                    "transactionsTrie" : "0x1926ec99b9f6f035cc97303239d8f91ff02267a6ad5e094f92e54d00b01d3103",
                    "uncleHash" : "0x1dcc4de8dec75d7aab85b567b6ccd41ad312451b948a7413f0a142fd40d49347",
                    "withdrawalsRoot" : "0x56e81f171bcc55a6ff8345e692c0f86e5b48e01b996cadc001622fb5e363b421"
                },
                "rlp" : "0xf902a7f9023aa02f05081ce5f94e47af8e48403c39121f4229956ece1833d93bd0cd7e5c51eba7a01dcc4de8dec75d7aab85b567b6ccd41ad312451b948a7413f0a142fd40d49347942adc25665018aa1fe0e6bc666dac8fc2697ff9baa0d79c5be2db0aabb1766f418e71caefb20c5019c84b67b996b3266c2bd5414fcea01926ec99b9f6f035cc97303239d8f91ff02267a6ad5e094f92e54d00b01d3103a0ad9f3e8164cc14e48c37c7d50dd0cd15a39e2f46e2c27b3a5d55d02816ddc917b9010000000000000000000000000000000000000000000000000000000000000000000000000000000000000000000000000000000000000000000000000000000000000000000000000000000000000000000000000000000000000000000000000000000000000000000000000000000000000000000000000000000000000000000000000000000000000000000000000000000000000000000000000000000000000000000000000000000000000000000000000000000000000000000000000000000000000000000000000000000000000000000000000000000000000000000000000000000000000000000000000000000000000000000000000000000000800183989680830346d88203e800a000000000000000000000000000000000000000000000000000000000000200008800000000000000000aa056e81f171bcc55a6ff8345e692c0f86e5b48e01b996cadc001622fb5e363b4218080a00000000000000000000000000000000000000000000000000000000000000000f866f864800a83155cc094a0000000000000000000000000000000000000008084c04062261ba0e8762d27448f2915a02a7151cc5b30fb408f563dd028b9550fb533d9a45ed27ca00682b95824efb788cc3206dfc8f71e50dcc0ccdd957921e06cdc5af2bf0d96dfc0c0",
                "transactions" : [
                    {
                        "data" : "0xc0406226",
                        "gasLimit" : "0x155cc0",
                        "gasPrice" : "0x0a",
                        "nonce" : "0x00",
                        "r" : "0xe8762d27448f2915a02a7151cc5b30fb408f563dd028b9550fb533d9a45ed27c",
                        "s" : "0x0682b95824efb788cc3206dfc8f71e50dcc0ccdd957921e06cdc5af2bf0d96df",
                        "sender" : "0xa94f5374fce5edbc8e2a8697c15331677e6ebf0b",
                        "to" : "0xa000000000000000000000000000000000000000",
                        "v" : "0x1b",
                        "value" : "0x00"
                    }
                ],
                "uncleHeaders" : [
                ],
                "withdrawals" : [
                ]
            }
        ],
        "genesisBlockHeader" : {
            "baseFeePerGas" : "0x0b",
            "blobGasUsed" : "0x00",
            "bloom" : "0x00000000000000000000000000000000000000000000000000000000000000000000000000000000000000000000000000000000000000000000000000000000000000000000000000000000000000000000000000000000000000000000000000000000000000000000000000000000000000000000000000000000000000000000000000000000000000000000000000000000000000000000000000000000000000000000000000000000000000000000000000000000000000000000000000000000000000000000000000000000000000000000000000000000000000000000000000000000000000000000000000000000000000000000000000000000",
            "coinbase" : "0x2adc25665018aa1fe0e6bc666dac8fc2697ff9ba",
            "difficulty" : "0x00",
            "excessBlobGas" : "0x060000",
            "extraData" : "0x00",
            "gasLimit" : "0x989680",
            "gasUsed" : "0x00",
            "hash" : "0x2f05081ce5f94e47af8e48403c39121f4229956ece1833d93bd0cd7e5c51eba7",
            "mixHash" : "0x0000000000000000000000000000000000000000000000000000000000020000",
            "nonce" : "0x0000000000000000",
            "number" : "0x00",
            "parentBeaconBlockRoot" : "0x0000000000000000000000000000000000000000000000000000000000000000",
            "parentHash" : "0x0000000000000000000000000000000000000000000000000000000000000000",
            "receiptTrie" : "0x56e81f171bcc55a6ff8345e692c0f86e5b48e01b996cadc001622fb5e363b421",
            "stateRoot" : "0x24e079623eb7c663358c478201ce6d4b515af633b21b3828068ca3f3052bccac",
            "timestamp" : "0x00",
            "transactionsTrie" : "0x56e81f171bcc55a6ff8345e692c0f86e5b48e01b996cadc001622fb5e363b421",
            "uncleHash" : "0x1dcc4de8dec75d7aab85b567b6ccd41ad312451b948a7413f0a142fd40d49347",
            "withdrawalsRoot" : "0x56e81f171bcc55a6ff8345e692c0f86e5b48e01b996cadc001622fb5e363b421"
        },
        "genesisRLP" : "0xf9023ef90238a00000000000000000000000000000000000000000000000000000000000000000a01dcc4de8dec75d7aab85b567b6ccd41ad312451b948a7413f0a142fd40d49347942adc25665018aa1fe0e6bc666dac8fc2697ff9baa024e079623eb7c663358c478201ce6d4b515af633b21b3828068ca3f3052bccaca056e81f171bcc55a6ff8345e692c0f86e5b48e01b996cadc001622fb5e363b421a056e81f171bcc55a6ff8345e692c0f86e5b48e01b996cadc001622fb5e363b421b9010000000000000000000000000000000000000000000000000000000000000000000000000000000000000000000000000000000000000000000000000000000000000000000000000000000000000000000000000000000000000000000000000000000000000000000000000000000000000000000000000000000000000000000000000000000000000000000000000000000000000000000000000000000000000000000000000000000000000000000000000000000000000000000000000000000000000000000000000000000000000000000000000000000000000000000000000000000000000000000000000000000000000000000000000000000000808083989680808000a000000000000000000000000000000000000000000000000000000000000200008800000000000000000ba056e81f171bcc55a6ff8345e692c0f86e5b48e01b996cadc001622fb5e363b4218083060000a00000000000000000000000000000000000000000000000000000000000000000c0c0c0",
        "lastblockhash" : "0xcef8238dc9c9b89ca2cbe466124d6e0af7d79e53d8c584818efec44fd3622ad5",
        "network" : "Cancun",
        "postState" : {
            "0x000f3df6d732807ef1319fb7b8bb8522d0beac02" : {
                "balance" : "0x00",
                "code" : "0x3373fffffffffffffffffffffffffffffffffffffffe14604d57602036146024575f5ffd5b5f35801560495762001fff810690815414603c575f5ffd5b62001fff01545f5260205ff35b5f5ffd5b62001fff42064281555f359062001fff015500",
                "nonce" : "0x01",
                "storage" : {
                    "0x03e8" : "0x03e8"
                }
            },
            "0x7db299e0885c85039f56fa504a13dd8ce8a56aa7" : {
                "balance" : "0x00",
                "code" : "0x608060405234801561001057600080fd5b506004361061002b5760003560e01c806373027f6d14610030575b600080fd5b61004a600480360381019061004591906101a9565b61004c565b005b6000808273ffffffffffffffffffffffffffffffffffffffff166040516024016040516020818303038152906040527fb28175c4000000000000000000000000000000000000000000000000000000007bffffffffffffffffffffffffffffffffffffffffffffffffffffffff19166020820180517bffffffffffffffffffffffffffffffffffffffffffffffffffffffff83818316178352505050506040516100f69190610247565b6000604051808303816000865af19150503d8060008114610133576040519150601f19603f3d011682016040523d82523d6000602084013e610138565b606091505b509150915081600155505050565b600080fd5b600073ffffffffffffffffffffffffffffffffffffffff82169050919050565b60006101768261014b565b9050919050565b6101868161016b565b811461019157600080fd5b50565b6000813590506101a38161017d565b92915050565b6000602082840312156101bf576101be610146565b5b60006101cd84828501610194565b91505092915050565b600081519050919050565b600081905092915050565b60005b8381101561020a5780820151818401526020810190506101ef565b60008484015250505050565b6000610221826101d6565b61022b81856101e1565b935061023b8185602086016101ec565b80840191505092915050565b60006102538284610216565b91508190509291505056fea26469706673582212203c0378b9e7cf06875f1c24571be32f8210d0d2035d3e66cc41c944efc27c892964736f6c63430008150033",
                "nonce" : "0x01",
                "storage" : {
                    "0x01" : "0x01"
                }
            },
            "0xa000000000000000000000000000000000000000" : {
                "balance" : "0x0ba1a9ce0ba1a9ce",
                "code" : "0x608060405234801561001057600080fd5b50600436106100415760003560e01c806354d1405f14610046578063b28175c414610050578063c04062261461005a575b600080fd5b61004e610064565b005b610058610110565b005b610062610116565b005b6000604051610072906101b6565b604051809103906000f08015801561008e573d6000803e3d6000fd5b5090508073ffffffffffffffffffffffffffffffffffffffff166373027f6d306040518263ffffffff1660e01b81526004016100ca9190610204565b600060405180830381600087803b1580156100e457600080fd5b505af11580156100f8573d6000803e3d6000fd5b50505050600360025560038055622fffff6000205050565b60028055565b6000604051610124906101b6565b604051809103906000f080158015610140573d6000803e3d6000fd5b5090508073ffffffffffffffffffffffffffffffffffffffff166373027f6d306040518263ffffffff1660e01b815260040161017c9190610204565b600060405180830381600087803b15801561019657600080fd5b505af11580156101aa573d6000803e3d6000fd5b50505050600360025550565b6102b48061022083390190565b600073ffffffffffffffffffffffffffffffffffffffff82169050919050565b60006101ee826101c3565b9050919050565b6101fe816101e3565b82525050565b600060208201905061021960008301846101f5565b9291505056fe608060405234801561001057600080fd5b50610294806100206000396000f3fe608060405234801561001057600080fd5b506004361061002b5760003560e01c806373027f6d14610030575b600080fd5b61004a600480360381019061004591906101a9565b61004c565b005b6000808273ffffffffffffffffffffffffffffffffffffffff166040516024016040516020818303038152906040527fb28175c4000000000000000000000000000000000000000000000000000000007bffffffffffffffffffffffffffffffffffffffffffffffffffffffff19166020820180517bffffffffffffffffffffffffffffffffffffffffffffffffffffffff83818316178352505050506040516100f69190610247565b6000604051808303816000865af19150503d8060008114610133576040519150601f19603f3d011682016040523d82523d6000602084013e610138565b606091505b509150915081600155505050565b600080fd5b600073ffffffffffffffffffffffffffffffffffffffff82169050919050565b60006101768261014b565b9050919050565b6101868161016b565b811461019157600080fd5b50565b6000813590506101a38161017d565b92915050565b6000602082840312156101bf576101be610146565b5b60006101cd84828501610194565b91505092915050565b600081519050919050565b600081905092915050565b60005b8381101561020a5780820151818401526020810190506101ef565b60008484015250505050565b6000610221826101d6565b61022b81856101e1565b935061023b8185602086016101ec565b80840191505092915050565b60006102538284610216565b91508190509291505056fea26469706673582212203c0378b9e7cf06875f1c24571be32f8210d0d2035d3e66cc41c944efc27c892964736f6c63430008150033a26469706673582212203a37f731283787a38b2029d369e167342dbae8761734f097eea2c6fe5fbb061564736f6c63430008150033",
                "nonce" : "0x01",
                "storage" : {
                    "0x02" : "0x03"
                }
            },
            "0xa94f5374fce5edbc8e2a8697c15331677e6ebf0b" : {
                "balance" : "0xe8d4844b90",
                "code" : "0x",
                "nonce" : "0x01",
                "storage" : {
                }
            }
        },
        "pre" : {
            "0x000f3df6d732807ef1319fb7b8bb8522d0beac02" : {
                "balance" : "0x00",
                "code" : "0x3373fffffffffffffffffffffffffffffffffffffffe14604d57602036146024575f5ffd5b5f35801560495762001fff810690815414603c575f5ffd5b62001fff01545f5260205ff35b5f5ffd5b62001fff42064281555f359062001fff015500",
                "nonce" : "0x01",
                "storage" : {
                }
            },
            "0xa000000000000000000000000000000000000000" : {
                "balance" : "0x0ba1a9ce0ba1a9ce",
                "code" : "0x608060405234801561001057600080fd5b50600436106100415760003560e01c806354d1405f14610046578063b28175c414610050578063c04062261461005a575b600080fd5b61004e610064565b005b610058610110565b005b610062610116565b005b6000604051610072906101b6565b604051809103906000f08015801561008e573d6000803e3d6000fd5b5090508073ffffffffffffffffffffffffffffffffffffffff166373027f6d306040518263ffffffff1660e01b81526004016100ca9190610204565b600060405180830381600087803b1580156100e457600080fd5b505af11580156100f8573d6000803e3d6000fd5b50505050600360025560038055622fffff6000205050565b60028055565b6000604051610124906101b6565b604051809103906000f080158015610140573d6000803e3d6000fd5b5090508073ffffffffffffffffffffffffffffffffffffffff166373027f6d306040518263ffffffff1660e01b815260040161017c9190610204565b600060405180830381600087803b15801561019657600080fd5b505af11580156101aa573d6000803e3d6000fd5b50505050600360025550565b6102b48061022083390190565b600073ffffffffffffffffffffffffffffffffffffffff82169050919050565b60006101ee826101c3565b9050919050565b6101fe816101e3565b82525050565b600060208201905061021960008301846101f5565b9291505056fe608060405234801561001057600080fd5b50610294806100206000396000f3fe608060405234801561001057600080fd5b506004361061002b5760003560e01c806373027f6d14610030575b600080fd5b61004a600480360381019061004591906101a9565b61004c565b005b6000808273ffffffffffffffffffffffffffffffffffffffff166040516024016040516020818303038152906040527fb28175c4000000000000000000000000000000000000000000000000000000007bffffffffffffffffffffffffffffffffffffffffffffffffffffffff19166020820180517bffffffffffffffffffffffffffffffffffffffffffffffffffffffff83818316178352505050506040516100f69190610247565b6000604051808303816000865af19150503d8060008114610133576040519150601f19603f3d011682016040523d82523d6000602084013e610138565b606091505b509150915081600155505050565b600080fd5b600073ffffffffffffffffffffffffffffffffffffffff82169050919050565b60006101768261014b565b9050919050565b6101868161016b565b811461019157600080fd5b50565b6000813590506101a38161017d565b92915050565b6000602082840312156101bf576101be610146565b5b60006101cd84828501610194565b91505092915050565b600081519050919050565b600081905092915050565b60005b8381101561020a5780820151818401526020810190506101ef565b60008484015250505050565b6000610221826101d6565b61022b81856101e1565b935061023b8185602086016101ec565b80840191505092915050565b60006102538284610216565b91508190509291505056fea26469706673582212203c0378b9e7cf06875f1c24571be32f8210d0d2035d3e66cc41c944efc27c892964736f6c63430008150033a26469706673582212203a37f731283787a38b2029d369e167342dbae8761734f097eea2c6fe5fbb061564736f6c63430008150033",
                "nonce" : "0x00",
                "storage" : {
                    "0x02" : "0xff"
                }
            },
            "0xa94f5374fce5edbc8e2a8697c15331677e6ebf0b" : {
                "balance" : "0xe8d4a51000",
                "code" : "0x",
                "nonce" : "0x00",
                "storage" : {
                }
            }
        },
        "sealEngine" : "NoProof"
    },
    "RevertRemoteSubCallStorageOOG_d1g0v0_Cancun" : {
        "_info" : {
            "comment" : "contract A calls itself. In the sub-call, storage is modified, the calls returns successfully. After that, storage is modified again and then an exception occurs.  0xc0406226 == sha(run())",
            "filling-rpc-server" : "evm version 1.14.4-unstable-3d8028a6-20240513",
            "filling-tool-version" : "retesteth-0.3.2-cancun+commit.cae6bc33.Linux.g++",
            "generatedTestHash" : "4db446062cd4f67c861892e3a9a05b5777467c5e3ab92a7b66a60899f118e68d",
            "lllcversion" : "Version: 0.5.14-develop.2023.7.11+commit.c58ab2c6.mod.Linux.g++",
            "solidity" : "Version: 0.8.21+commit.d9974bed.Linux.g++",
            "source" : "src/GeneralStateTestsFiller/stRevertTest/RevertRemoteSubCallStorageOOGFiller.yml",
            "sourceHash" : "fb0bf2ff75e07b0e787a92255e3756cd153510240af99fdec98faea9561fec5b"
        },
        "blocks" : [
            {
                "blockHeader" : {
                    "baseFeePerGas" : "0x0a",
                    "blobGasUsed" : "0x00",
                    "bloom" : "0x00000000000000000000000000000000000000000000000000000000000000000000000000000000000000000000000000000000000000000000000000000000000000000000000000000000000000000000000000000000000000000000000000000000000000000000000000000000000000000000000000000000000000000000000000000000000000000000000000000000000000000000000000000000000000000000000000000000000000000000000000000000000000000000000000000000000000000000000000000000000000000000000000000000000000000000000000000000000000000000000000000000000000000000000000000000",
                    "coinbase" : "0x2adc25665018aa1fe0e6bc666dac8fc2697ff9ba",
                    "difficulty" : "0x00",
                    "excessBlobGas" : "0x00",
                    "extraData" : "0x00",
                    "gasLimit" : "0x989680",
                    "gasUsed" : "0x155cc0",
                    "hash" : "0x40fa9aa3ed51da6646a7e4acc81a65ee34e038ceb6e92f7f415d79ab268dc82d",
                    "mixHash" : "0x0000000000000000000000000000000000000000000000000000000000020000",
                    "nonce" : "0x0000000000000000",
                    "number" : "0x01",
                    "parentBeaconBlockRoot" : "0x0000000000000000000000000000000000000000000000000000000000000000",
                    "parentHash" : "0x2f05081ce5f94e47af8e48403c39121f4229956ece1833d93bd0cd7e5c51eba7",
                    "receiptTrie" : "0xbd7d6584f836e7f1c419d41a474215bff576676dcbe9db894a47488e2262b180",
                    "stateRoot" : "0x0a2eb75b02c5ccf7327c23a5c022c76cd887e023aa9b427f01b136b3c88202f3",
                    "timestamp" : "0x03e8",
                    "transactionsTrie" : "0x8f43a18e3db06caafb0d66ee7647bd9a26d75e6b499b8dc76239babf25a335d4",
                    "uncleHash" : "0x1dcc4de8dec75d7aab85b567b6ccd41ad312451b948a7413f0a142fd40d49347",
                    "withdrawalsRoot" : "0x56e81f171bcc55a6ff8345e692c0f86e5b48e01b996cadc001622fb5e363b421"
                },
                "rlp" : "0xf902a7f9023aa02f05081ce5f94e47af8e48403c39121f4229956ece1833d93bd0cd7e5c51eba7a01dcc4de8dec75d7aab85b567b6ccd41ad312451b948a7413f0a142fd40d49347942adc25665018aa1fe0e6bc666dac8fc2697ff9baa00a2eb75b02c5ccf7327c23a5c022c76cd887e023aa9b427f01b136b3c88202f3a08f43a18e3db06caafb0d66ee7647bd9a26d75e6b499b8dc76239babf25a335d4a0bd7d6584f836e7f1c419d41a474215bff576676dcbe9db894a47488e2262b180b901000000000000000000000000000000000000000000000000000000000000000000000000000000000000000000000000000000000000000000000000000000000000000000000000000000000000000000000000000000000000000000000000000000000000000000000000000000000000000000000000000000000000000000000000000000000000000000000000000000000000000000000000000000000000000000000000000000000000000000000000000000000000000000000000000000000000000000000000000000000000000000000000000000000000000000000000000000000000000000000000000000000000000000000000000000000080018398968083155cc08203e800a000000000000000000000000000000000000000000000000000000000000200008800000000000000000aa056e81f171bcc55a6ff8345e692c0f86e5b48e01b996cadc001622fb5e363b4218080a00000000000000000000000000000000000000000000000000000000000000000f866f864800a83155cc094a000000000000000000000000000000000000000808454d1405f1ba0cad346e8ea63ee405061910adfc9606b342f1e59b95763fa4b6868eba82912c3a05d589ffbd73ce9a733a21160954cbe924c25ae164a7ff9736cefc7f2cbf4682bc0c0",
                "transactions" : [
                    {
                        "data" : "0x54d1405f",
                        "gasLimit" : "0x155cc0",
                        "gasPrice" : "0x0a",
                        "nonce" : "0x00",
                        "r" : "0xcad346e8ea63ee405061910adfc9606b342f1e59b95763fa4b6868eba82912c3",
                        "s" : "0x5d589ffbd73ce9a733a21160954cbe924c25ae164a7ff9736cefc7f2cbf4682b",
                        "sender" : "0xa94f5374fce5edbc8e2a8697c15331677e6ebf0b",
                        "to" : "0xa000000000000000000000000000000000000000",
                        "v" : "0x1b",
                        "value" : "0x00"
                    }
                ],
                "uncleHeaders" : [
                ],
                "withdrawals" : [
                ]
            }
        ],
        "genesisBlockHeader" : {
            "baseFeePerGas" : "0x0b",
            "blobGasUsed" : "0x00",
            "bloom" : "0x00000000000000000000000000000000000000000000000000000000000000000000000000000000000000000000000000000000000000000000000000000000000000000000000000000000000000000000000000000000000000000000000000000000000000000000000000000000000000000000000000000000000000000000000000000000000000000000000000000000000000000000000000000000000000000000000000000000000000000000000000000000000000000000000000000000000000000000000000000000000000000000000000000000000000000000000000000000000000000000000000000000000000000000000000000000",
            "coinbase" : "0x2adc25665018aa1fe0e6bc666dac8fc2697ff9ba",
            "difficulty" : "0x00",
            "excessBlobGas" : "0x060000",
            "extraData" : "0x00",
            "gasLimit" : "0x989680",
            "gasUsed" : "0x00",
            "hash" : "0x2f05081ce5f94e47af8e48403c39121f4229956ece1833d93bd0cd7e5c51eba7",
            "mixHash" : "0x0000000000000000000000000000000000000000000000000000000000020000",
            "nonce" : "0x0000000000000000",
            "number" : "0x00",
            "parentBeaconBlockRoot" : "0x0000000000000000000000000000000000000000000000000000000000000000",
            "parentHash" : "0x0000000000000000000000000000000000000000000000000000000000000000",
            "receiptTrie" : "0x56e81f171bcc55a6ff8345e692c0f86e5b48e01b996cadc001622fb5e363b421",
            "stateRoot" : "0x24e079623eb7c663358c478201ce6d4b515af633b21b3828068ca3f3052bccac",
            "timestamp" : "0x00",
            "transactionsTrie" : "0x56e81f171bcc55a6ff8345e692c0f86e5b48e01b996cadc001622fb5e363b421",
            "uncleHash" : "0x1dcc4de8dec75d7aab85b567b6ccd41ad312451b948a7413f0a142fd40d49347",
            "withdrawalsRoot" : "0x56e81f171bcc55a6ff8345e692c0f86e5b48e01b996cadc001622fb5e363b421"
        },
        "genesisRLP" : "0xf9023ef90238a00000000000000000000000000000000000000000000000000000000000000000a01dcc4de8dec75d7aab85b567b6ccd41ad312451b948a7413f0a142fd40d49347942adc25665018aa1fe0e6bc666dac8fc2697ff9baa024e079623eb7c663358c478201ce6d4b515af633b21b3828068ca3f3052bccaca056e81f171bcc55a6ff8345e692c0f86e5b48e01b996cadc001622fb5e363b421a056e81f171bcc55a6ff8345e692c0f86e5b48e01b996cadc001622fb5e363b421b9010000000000000000000000000000000000000000000000000000000000000000000000000000000000000000000000000000000000000000000000000000000000000000000000000000000000000000000000000000000000000000000000000000000000000000000000000000000000000000000000000000000000000000000000000000000000000000000000000000000000000000000000000000000000000000000000000000000000000000000000000000000000000000000000000000000000000000000000000000000000000000000000000000000000000000000000000000000000000000000000000000000000000000000000000000000000808083989680808000a000000000000000000000000000000000000000000000000000000000000200008800000000000000000ba056e81f171bcc55a6ff8345e692c0f86e5b48e01b996cadc001622fb5e363b4218083060000a00000000000000000000000000000000000000000000000000000000000000000c0c0c0",
        "lastblockhash" : "0x40fa9aa3ed51da6646a7e4acc81a65ee34e038ceb6e92f7f415d79ab268dc82d",
        "network" : "Cancun",
        "postState" : {
            "0x000f3df6d732807ef1319fb7b8bb8522d0beac02" : {
                "balance" : "0x00",
                "code" : "0x3373fffffffffffffffffffffffffffffffffffffffe14604d57602036146024575f5ffd5b5f35801560495762001fff810690815414603c575f5ffd5b62001fff01545f5260205ff35b5f5ffd5b62001fff42064281555f359062001fff015500",
                "nonce" : "0x01",
                "storage" : {
                    "0x03e8" : "0x03e8"
                }
            },
            "0xa000000000000000000000000000000000000000" : {
                "balance" : "0x0ba1a9ce0ba1a9ce",
                "code" : "0x608060405234801561001057600080fd5b50600436106100415760003560e01c806354d1405f14610046578063b28175c414610050578063c04062261461005a575b600080fd5b61004e610064565b005b610058610110565b005b610062610116565b005b6000604051610072906101b6565b604051809103906000f08015801561008e573d6000803e3d6000fd5b5090508073ffffffffffffffffffffffffffffffffffffffff166373027f6d306040518263ffffffff1660e01b81526004016100ca9190610204565b600060405180830381600087803b1580156100e457600080fd5b505af11580156100f8573d6000803e3d6000fd5b50505050600360025560038055622fffff6000205050565b60028055565b6000604051610124906101b6565b604051809103906000f080158015610140573d6000803e3d6000fd5b5090508073ffffffffffffffffffffffffffffffffffffffff166373027f6d306040518263ffffffff1660e01b815260040161017c9190610204565b600060405180830381600087803b15801561019657600080fd5b505af11580156101aa573d6000803e3d6000fd5b50505050600360025550565b6102b48061022083390190565b600073ffffffffffffffffffffffffffffffffffffffff82169050919050565b60006101ee826101c3565b9050919050565b6101fe816101e3565b82525050565b600060208201905061021960008301846101f5565b9291505056fe608060405234801561001057600080fd5b50610294806100206000396000f3fe608060405234801561001057600080fd5b506004361061002b5760003560e01c806373027f6d14610030575b600080fd5b61004a600480360381019061004591906101a9565b61004c565b005b6000808273ffffffffffffffffffffffffffffffffffffffff166040516024016040516020818303038152906040527fb28175c4000000000000000000000000000000000000000000000000000000007bffffffffffffffffffffffffffffffffffffffffffffffffffffffff19166020820180517bffffffffffffffffffffffffffffffffffffffffffffffffffffffff83818316178352505050506040516100f69190610247565b6000604051808303816000865af19150503d8060008114610133576040519150601f19603f3d011682016040523d82523d6000602084013e610138565b606091505b509150915081600155505050565b600080fd5b600073ffffffffffffffffffffffffffffffffffffffff82169050919050565b60006101768261014b565b9050919050565b6101868161016b565b811461019157600080fd5b50565b6000813590506101a38161017d565b92915050565b6000602082840312156101bf576101be610146565b5b60006101cd84828501610194565b91505092915050565b600081519050919050565b600081905092915050565b60005b8381101561020a5780820151818401526020810190506101ef565b60008484015250505050565b6000610221826101d6565b61022b81856101e1565b935061023b8185602086016101ec565b80840191505092915050565b60006102538284610216565b91508190509291505056fea26469706673582212203c0378b9e7cf06875f1c24571be32f8210d0d2035d3e66cc41c944efc27c892964736f6c63430008150033a26469706673582212203a37f731283787a38b2029d369e167342dbae8761734f097eea2c6fe5fbb061564736f6c63430008150033",
                "nonce" : "0x00",
                "storage" : {
                    "0x02" : "0xff"
                }
            },
            "0xa94f5374fce5edbc8e2a8697c15331677e6ebf0b" : {
                "balance" : "0xe8d3cf7080",
                "code" : "0x",
                "nonce" : "0x01",
                "storage" : {
                }
            }
        },
        "pre" : {
            "0x000f3df6d732807ef1319fb7b8bb8522d0beac02" : {
                "balance" : "0x00",
                "code" : "0x3373fffffffffffffffffffffffffffffffffffffffe14604d57602036146024575f5ffd5b5f35801560495762001fff810690815414603c575f5ffd5b62001fff01545f5260205ff35b5f5ffd5b62001fff42064281555f359062001fff015500",
                "nonce" : "0x01",
                "storage" : {
                }
            },
            "0xa000000000000000000000000000000000000000" : {
                "balance" : "0x0ba1a9ce0ba1a9ce",
                "code" : "0x608060405234801561001057600080fd5b50600436106100415760003560e01c806354d1405f14610046578063b28175c414610050578063c04062261461005a575b600080fd5b61004e610064565b005b610058610110565b005b610062610116565b005b6000604051610072906101b6565b604051809103906000f08015801561008e573d6000803e3d6000fd5b5090508073ffffffffffffffffffffffffffffffffffffffff166373027f6d306040518263ffffffff1660e01b81526004016100ca9190610204565b600060405180830381600087803b1580156100e457600080fd5b505af11580156100f8573d6000803e3d6000fd5b50505050600360025560038055622fffff6000205050565b60028055565b6000604051610124906101b6565b604051809103906000f080158015610140573d6000803e3d6000fd5b5090508073ffffffffffffffffffffffffffffffffffffffff166373027f6d306040518263ffffffff1660e01b815260040161017c9190610204565b600060405180830381600087803b15801561019657600080fd5b505af11580156101aa573d6000803e3d6000fd5b50505050600360025550565b6102b48061022083390190565b600073ffffffffffffffffffffffffffffffffffffffff82169050919050565b60006101ee826101c3565b9050919050565b6101fe816101e3565b82525050565b600060208201905061021960008301846101f5565b9291505056fe608060405234801561001057600080fd5b50610294806100206000396000f3fe608060405234801561001057600080fd5b506004361061002b5760003560e01c806373027f6d14610030575b600080fd5b61004a600480360381019061004591906101a9565b61004c565b005b6000808273ffffffffffffffffffffffffffffffffffffffff166040516024016040516020818303038152906040527fb28175c4000000000000000000000000000000000000000000000000000000007bffffffffffffffffffffffffffffffffffffffffffffffffffffffff19166020820180517bffffffffffffffffffffffffffffffffffffffffffffffffffffffff83818316178352505050506040516100f69190610247565b6000604051808303816000865af19150503d8060008114610133576040519150601f19603f3d011682016040523d82523d6000602084013e610138565b606091505b509150915081600155505050565b600080fd5b600073ffffffffffffffffffffffffffffffffffffffff82169050919050565b60006101768261014b565b9050919050565b6101868161016b565b811461019157600080fd5b50565b6000813590506101a38161017d565b92915050565b6000602082840312156101bf576101be610146565b5b60006101cd84828501610194565b91505092915050565b600081519050919050565b600081905092915050565b60005b8381101561020a5780820151818401526020810190506101ef565b60008484015250505050565b6000610221826101d6565b61022b81856101e1565b935061023b8185602086016101ec565b80840191505092915050565b60006102538284610216565b91508190509291505056fea26469706673582212203c0378b9e7cf06875f1c24571be32f8210d0d2035d3e66cc41c944efc27c892964736f6c63430008150033a26469706673582212203a37f731283787a38b2029d369e167342dbae8761734f097eea2c6fe5fbb061564736f6c63430008150033",
                "nonce" : "0x00",
                "storage" : {
                    "0x02" : "0xff"
                }
            },
            "0xa94f5374fce5edbc8e2a8697c15331677e6ebf0b" : {
                "balance" : "0xe8d4a51000",
                "code" : "0x",
                "nonce" : "0x00",
                "storage" : {
                }
            }
        },
        "sealEngine" : "NoProof"
    }
}