{
    "RevertDepthCreateAddressCollision_d0g0v1_Byzantium" : {
        "_info" : {
            "comment" : "",
            "filledwith" : "cpp-1.3.0+commit.ab4ca6d1.Linux.g++",
            "lllcversion" : "Version: 0.4.20-develop.2018.1.8+commit.2548228b.Linux.g++",
            "source" : "src/BlockchainTestsFiller/GeneralStateTests/stRevertTest/RevertDepthCreateAddressCollision_d0g0v1Filler.json",
            "sourceHash" : "e704d2e9217f0afc1e47eb9b902b69cf89e6e233df5d79c54c3fac71a8da2177"
        },
        "blocks" : [
            {
                "blockHeader" : {
                    "bloom" : "0x00000000000000000000000000000000000000000000000000000000000000000000000000000000000000000000000000000000000000000000000000000000000000000000000000000000000000000000000000000000000000000000000000000000000000000000000000000000000000000000000000000000000000000000000000000000000000000000000000000000000000000000000000000000000000000000000000000000000000000000000000000000000000000000000000000000000000000000000000000000000000000000000000000000000000000000000000000000000000000000000000000000000000000000000000000000",
                    "coinbase" : "0x2adc25665018aa1fe0e6bc666dac8fc2697ff9ba",
                    "difficulty" : "0x020000",
                    "extraData" : "",
                    "gasLimit" : "0x989680",
                    "gasUsed" : "0x01adb0",
                    "hash" : "0x2a5dba6dd2d8b94c8f2b3b7c68f1e467112e43bfe6105729c6a9848570adc38e",
                    "mixHash" : "0xe87f6eb29fb8be546f2e13f4f568a68db01f3da5dfadfc1fdda891a3abd245b0",
                    "nonce" : "0x36c9f93de509dfc3",
                    "number" : "0x01",
                    "parentHash" : "0x93dcf85bc7a76227f7e21e4ea5f868b5fe35b40c9bacc70d21636b4aea2c8427",
                    "receiptTrie" : "0xfd21849a7839c2c75da6c5f2828e953f017b356f3e968aba1a97ac6f6c5b31f3",
                    "stateRoot" : "0xca852c22237723a386172351fce0a6229ec278de567d4f828dfe5d0849bfd124",
                    "timestamp" : "0x03e8",
                    "transactionsTrie" : "0xefc73fbab984f5ebfa015cc648f13bdb54da1b41c87f3cdb2d9c5bb397fc3209",
                    "uncleHash" : "0x1dcc4de8dec75d7aab85b567b6ccd41ad312451b948a7413f0a142fd40d49347"
                },
                "rlp" : "0xf90280f901f8a093dcf85bc7a76227f7e21e4ea5f868b5fe35b40c9bacc70d21636b4aea2c8427a01dcc4de8dec75d7aab85b567b6ccd41ad312451b948a7413f0a142fd40d49347942adc25665018aa1fe0e6bc666dac8fc2697ff9baa0ca852c22237723a386172351fce0a6229ec278de567d4f828dfe5d0849bfd124a0efc73fbab984f5ebfa015cc648f13bdb54da1b41c87f3cdb2d9c5bb397fc3209a0fd21849a7839c2c75da6c5f2828e953f017b356f3e968aba1a97ac6f6c5b31f3b90100000000000000000000000000000000000000000000000000000000000000000000000000000000000000000000000000000000000000000000000000000000000000000000000000000000000000000000000000000000000000000000000000000000000000000000000000000000000000000000000000000000000000000000000000000000000000000000000000000000000000000000000000000000000000000000000000000000000000000000000000000000000000000000000000000000000000000000000000000000000000000000000000000000000000000000000000000000000000000000000000000000000000000000000000000000008302000001839896808301adb08203e880a0e87f6eb29fb8be546f2e13f4f568a68db01f3da5dfadfc1fdda891a3abd245b08836c9f93de509dfc3f882f88080018301adb0943e180b1862f9d158abb5e519a6d8605540c2368280a0000000000000000000000000000000000000000000000000000000000000ea601ba053df2851760e6b130457296ef1feee0cff28344931e86addf1268d94e3fa3c14a07480574e4c870f6562875a39d6a6931ef7ed2adb615879b8446c4d89bc6b4742c0",
                "transactions" : [
                    {
                        "data" : "0x000000000000000000000000000000000000000000000000000000000000ea60",
                        "gasLimit" : "0x01adb0",
                        "gasPrice" : "0x01",
                        "nonce" : "0x00",
                        "r" : "0x53df2851760e6b130457296ef1feee0cff28344931e86addf1268d94e3fa3c14",
                        "s" : "0x7480574e4c870f6562875a39d6a6931ef7ed2adb615879b8446c4d89bc6b4742",
                        "to" : "0x3e180b1862f9d158abb5e519a6d8605540c23682",
                        "v" : "0x1b",
                        "value" : "0x00"
                    }
                ],
                "uncleHeaders" : [
                ]
            }
        ],
        "genesisBlockHeader" : {
            "bloom" : "0x00000000000000000000000000000000000000000000000000000000000000000000000000000000000000000000000000000000000000000000000000000000000000000000000000000000000000000000000000000000000000000000000000000000000000000000000000000000000000000000000000000000000000000000000000000000000000000000000000000000000000000000000000000000000000000000000000000000000000000000000000000000000000000000000000000000000000000000000000000000000000000000000000000000000000000000000000000000000000000000000000000000000000000000000000000000",
            "coinbase" : "0x2adc25665018aa1fe0e6bc666dac8fc2697ff9ba",
            "difficulty" : "0x020000",
            "extraData" : "0x42",
            "gasLimit" : "0x989680",
            "gasUsed" : "0x00",
            "hash" : "0x93dcf85bc7a76227f7e21e4ea5f868b5fe35b40c9bacc70d21636b4aea2c8427",
            "mixHash" : "0x56e81f171bcc55a6ff8345e692c0f86e5b48e01b996cadc001622fb5e363b421",
            "nonce" : "0x0102030405060708",
            "number" : "0x00",
            "parentHash" : "0x0000000000000000000000000000000000000000000000000000000000000000",
            "receiptTrie" : "0x56e81f171bcc55a6ff8345e692c0f86e5b48e01b996cadc001622fb5e363b421",
            "stateRoot" : "0x2021386d37ea74464f53e382b6525956b68259567a65fab0e9021c9d25a86cf3",
            "timestamp" : "0x03b6",
            "transactionsTrie" : "0x56e81f171bcc55a6ff8345e692c0f86e5b48e01b996cadc001622fb5e363b421",
            "uncleHash" : "0x1dcc4de8dec75d7aab85b567b6ccd41ad312451b948a7413f0a142fd40d49347"
        },
        "genesisRLP" : "0xf901faf901f5a00000000000000000000000000000000000000000000000000000000000000000a01dcc4de8dec75d7aab85b567b6ccd41ad312451b948a7413f0a142fd40d49347942adc25665018aa1fe0e6bc666dac8fc2697ff9baa02021386d37ea74464f53e382b6525956b68259567a65fab0e9021c9d25a86cf3a056e81f171bcc55a6ff8345e692c0f86e5b48e01b996cadc001622fb5e363b421a056e81f171bcc55a6ff8345e692c0f86e5b48e01b996cadc001622fb5e363b421b9010000000000000000000000000000000000000000000000000000000000000000000000000000000000000000000000000000000000000000000000000000000000000000000000000000000000000000000000000000000000000000000000000000000000000000000000000000000000000000000000000000000000000000000000000000000000000000000000000000000000000000000000000000000000000000000000000000000000000000000000000000000000000000000000000000000000000000000000000000000000000000000000000000000000000000000000000000000000000000000000000000000000000000000000000000000000830200008083989680808203b642a056e81f171bcc55a6ff8345e692c0f86e5b48e01b996cadc001622fb5e363b421880102030405060708c0c0",
        "lastblockhash" : "0x2a5dba6dd2d8b94c8f2b3b7c68f1e467112e43bfe6105729c6a9848570adc38e",
        "network" : "Byzantium",
        "postState" : {
            "0x2adc25665018aa1fe0e6bc666dac8fc2697ff9ba" : {
                "balance" : "0x29a2241af62dadb0",
                "code" : "",
                "nonce" : "0x00",
                "storage" : {
                }
            },
            "0x3e180b1862f9d158abb5e519a6d8605540c23682" : {
                "balance" : "0x05",
                "code" : "0x60016000556000600060006000600073b000000000000000000000000000000000000000600035f1600155600c600455",
                "nonce" : "0x36",
                "storage" : {
                }
            },
            "0xa94f5374fce5edbc8e2a8697c15331677e6ebf0b" : {
                "balance" : "0xe8d4a36250",
                "code" : "",
                "nonce" : "0x01",
                "storage" : {
                }
            },
            "0xb000000000000000000000000000000000000000" : {
                "balance" : "0x00",
                "code" : "0x6008600255600060006000f050600c600355",
                "nonce" : "0x00",
                "storage" : {
                }
            }
        },
        "pre" : {
            "0x3e180b1862f9d158abb5e519a6d8605540c23682" : {
                "balance" : "0x05",
                "code" : "0x60016000556000600060006000600073b000000000000000000000000000000000000000600035f1600155600c600455",
                "nonce" : "0x36",
                "storage" : {
                }
            },
            "0xa94f5374fce5edbc8e2a8697c15331677e6ebf0b" : {
                "balance" : "0xe8d4a51000",
                "code" : "",
                "nonce" : "0x00",
                "storage" : {
                }
            },
            "0xb000000000000000000000000000000000000000" : {
                "balance" : "0x00",
                "code" : "0x6008600255600060006000f050600c600355",
                "nonce" : "0x00",
                "storage" : {
                }
            }
        }
    },
    "RevertDepthCreateAddressCollision_d0g0v1_EIP150" : {
        "_info" : {
            "comment" : "",
            "filledwith" : "cpp-1.3.0+commit.ab4ca6d1.Linux.g++",
            "lllcversion" : "Version: 0.4.20-develop.2018.1.8+commit.2548228b.Linux.g++",
            "source" : "src/BlockchainTestsFiller/GeneralStateTests/stRevertTest/RevertDepthCreateAddressCollision_d0g0v1Filler.json",
            "sourceHash" : "e704d2e9217f0afc1e47eb9b902b69cf89e6e233df5d79c54c3fac71a8da2177"
        },
        "blocks" : [
            {
                "blockHeader" : {
                    "bloom" : "0x00000000000000000000000000000000000000000000000000000000000000000000000000000000000000000000000000000000000000000000000000000000000000000000000000000000000000000000000000000000000000000000000000000000000000000000000000000000000000000000000000000000000000000000000000000000000000000000000000000000000000000000000000000000000000000000000000000000000000000000000000000000000000000000000000000000000000000000000000000000000000000000000000000000000000000000000000000000000000000000000000000000000000000000000000000000",
                    "coinbase" : "0x2adc25665018aa1fe0e6bc666dac8fc2697ff9ba",
                    "difficulty" : "0x020000",
                    "extraData" : "",
                    "gasLimit" : "0x989680",
                    "gasUsed" : "0x01adb0",
                    "hash" : "0x4b39daf6a7b0bb03a97aaec2d4583ad7f4505ebe092bba42ade118c8d048fc82",
                    "mixHash" : "0x7814c8794b29fac14e0d7190d8bffc568dc7f3991d1818bede64b99a0a292617",
                    "nonce" : "0x1fb226fa2e4ad9c9",
                    "number" : "0x01",
                    "parentHash" : "0x93dcf85bc7a76227f7e21e4ea5f868b5fe35b40c9bacc70d21636b4aea2c8427",
                    "receiptTrie" : "0xc179fe8c06cb1c853d90b238977038c12fd7db327848a009f85d13aa675e79fa",
                    "stateRoot" : "0x4e6cbd7d8c4fefa307e3673433fdda8658227597cd2b8f1ab3928a6c9ada083e",
                    "timestamp" : "0x03e8",
                    "transactionsTrie" : "0xefc73fbab984f5ebfa015cc648f13bdb54da1b41c87f3cdb2d9c5bb397fc3209",
                    "uncleHash" : "0x1dcc4de8dec75d7aab85b567b6ccd41ad312451b948a7413f0a142fd40d49347"
                },
                "rlp" : "0xf90280f901f8a093dcf85bc7a76227f7e21e4ea5f868b5fe35b40c9bacc70d21636b4aea2c8427a01dcc4de8dec75d7aab85b567b6ccd41ad312451b948a7413f0a142fd40d49347942adc25665018aa1fe0e6bc666dac8fc2697ff9baa04e6cbd7d8c4fefa307e3673433fdda8658227597cd2b8f1ab3928a6c9ada083ea0efc73fbab984f5ebfa015cc648f13bdb54da1b41c87f3cdb2d9c5bb397fc3209a0c179fe8c06cb1c853d90b238977038c12fd7db327848a009f85d13aa675e79fab90100000000000000000000000000000000000000000000000000000000000000000000000000000000000000000000000000000000000000000000000000000000000000000000000000000000000000000000000000000000000000000000000000000000000000000000000000000000000000000000000000000000000000000000000000000000000000000000000000000000000000000000000000000000000000000000000000000000000000000000000000000000000000000000000000000000000000000000000000000000000000000000000000000000000000000000000000000000000000000000000000000000000000000000000000000000008302000001839896808301adb08203e880a07814c8794b29fac14e0d7190d8bffc568dc7f3991d1818bede64b99a0a292617881fb226fa2e4ad9c9f882f88080018301adb0943e180b1862f9d158abb5e519a6d8605540c2368280a0000000000000000000000000000000000000000000000000000000000000ea601ba053df2851760e6b130457296ef1feee0cff28344931e86addf1268d94e3fa3c14a07480574e4c870f6562875a39d6a6931ef7ed2adb615879b8446c4d89bc6b4742c0",
                "transactions" : [
                    {
                        "data" : "0x000000000000000000000000000000000000000000000000000000000000ea60",
                        "gasLimit" : "0x01adb0",
                        "gasPrice" : "0x01",
                        "nonce" : "0x00",
                        "r" : "0x53df2851760e6b130457296ef1feee0cff28344931e86addf1268d94e3fa3c14",
                        "s" : "0x7480574e4c870f6562875a39d6a6931ef7ed2adb615879b8446c4d89bc6b4742",
                        "to" : "0x3e180b1862f9d158abb5e519a6d8605540c23682",
                        "v" : "0x1b",
                        "value" : "0x00"
                    }
                ],
                "uncleHeaders" : [
                ]
            }
        ],
        "genesisBlockHeader" : {
            "bloom" : "0x00000000000000000000000000000000000000000000000000000000000000000000000000000000000000000000000000000000000000000000000000000000000000000000000000000000000000000000000000000000000000000000000000000000000000000000000000000000000000000000000000000000000000000000000000000000000000000000000000000000000000000000000000000000000000000000000000000000000000000000000000000000000000000000000000000000000000000000000000000000000000000000000000000000000000000000000000000000000000000000000000000000000000000000000000000000",
            "coinbase" : "0x2adc25665018aa1fe0e6bc666dac8fc2697ff9ba",
            "difficulty" : "0x020000",
            "extraData" : "0x42",
            "gasLimit" : "0x989680",
            "gasUsed" : "0x00",
            "hash" : "0x93dcf85bc7a76227f7e21e4ea5f868b5fe35b40c9bacc70d21636b4aea2c8427",
            "mixHash" : "0x56e81f171bcc55a6ff8345e692c0f86e5b48e01b996cadc001622fb5e363b421",
            "nonce" : "0x0102030405060708",
            "number" : "0x00",
            "parentHash" : "0x0000000000000000000000000000000000000000000000000000000000000000",
            "receiptTrie" : "0x56e81f171bcc55a6ff8345e692c0f86e5b48e01b996cadc001622fb5e363b421",
            "stateRoot" : "0x2021386d37ea74464f53e382b6525956b68259567a65fab0e9021c9d25a86cf3",
            "timestamp" : "0x03b6",
            "transactionsTrie" : "0x56e81f171bcc55a6ff8345e692c0f86e5b48e01b996cadc001622fb5e363b421",
            "uncleHash" : "0x1dcc4de8dec75d7aab85b567b6ccd41ad312451b948a7413f0a142fd40d49347"
        },
        "genesisRLP" : "0xf901faf901f5a00000000000000000000000000000000000000000000000000000000000000000a01dcc4de8dec75d7aab85b567b6ccd41ad312451b948a7413f0a142fd40d49347942adc25665018aa1fe0e6bc666dac8fc2697ff9baa02021386d37ea74464f53e382b6525956b68259567a65fab0e9021c9d25a86cf3a056e81f171bcc55a6ff8345e692c0f86e5b48e01b996cadc001622fb5e363b421a056e81f171bcc55a6ff8345e692c0f86e5b48e01b996cadc001622fb5e363b421b9010000000000000000000000000000000000000000000000000000000000000000000000000000000000000000000000000000000000000000000000000000000000000000000000000000000000000000000000000000000000000000000000000000000000000000000000000000000000000000000000000000000000000000000000000000000000000000000000000000000000000000000000000000000000000000000000000000000000000000000000000000000000000000000000000000000000000000000000000000000000000000000000000000000000000000000000000000000000000000000000000000000000000000000000000000000000830200008083989680808203b642a056e81f171bcc55a6ff8345e692c0f86e5b48e01b996cadc001622fb5e363b421880102030405060708c0c0",
        "lastblockhash" : "0x4b39daf6a7b0bb03a97aaec2d4583ad7f4505ebe092bba42ade118c8d048fc82",
        "network" : "EIP150",
        "postState" : {
            "0x2adc25665018aa1fe0e6bc666dac8fc2697ff9ba" : {
                "balance" : "0x4563918244f5adb0",
                "code" : "",
                "nonce" : "0x00",
                "storage" : {
                }
            },
            "0x3e180b1862f9d158abb5e519a6d8605540c23682" : {
                "balance" : "0x05",
                "code" : "0x60016000556000600060006000600073b000000000000000000000000000000000000000600035f1600155600c600455",
                "nonce" : "0x36",
                "storage" : {
                }
            },
            "0xa94f5374fce5edbc8e2a8697c15331677e6ebf0b" : {
                "balance" : "0xe8d4a36250",
                "code" : "",
                "nonce" : "0x01",
                "storage" : {
                }
            },
            "0xb000000000000000000000000000000000000000" : {
                "balance" : "0x00",
                "code" : "0x6008600255600060006000f050600c600355",
                "nonce" : "0x00",
                "storage" : {
                }
            }
        },
        "pre" : {
            "0x3e180b1862f9d158abb5e519a6d8605540c23682" : {
                "balance" : "0x05",
                "code" : "0x60016000556000600060006000600073b000000000000000000000000000000000000000600035f1600155600c600455",
                "nonce" : "0x36",
                "storage" : {
                }
            },
            "0xa94f5374fce5edbc8e2a8697c15331677e6ebf0b" : {
                "balance" : "0xe8d4a51000",
                "code" : "",
                "nonce" : "0x00",
                "storage" : {
                }
            },
            "0xb000000000000000000000000000000000000000" : {
                "balance" : "0x00",
                "code" : "0x6008600255600060006000f050600c600355",
                "nonce" : "0x00",
                "storage" : {
                }
            }
        }
    },
    "RevertDepthCreateAddressCollision_d0g0v1_EIP158" : {
        "_info" : {
            "comment" : "",
            "filledwith" : "cpp-1.3.0+commit.ab4ca6d1.Linux.g++",
            "lllcversion" : "Version: 0.4.20-develop.2018.1.8+commit.2548228b.Linux.g++",
            "source" : "src/BlockchainTestsFiller/GeneralStateTests/stRevertTest/RevertDepthCreateAddressCollision_d0g0v1Filler.json",
            "sourceHash" : "e704d2e9217f0afc1e47eb9b902b69cf89e6e233df5d79c54c3fac71a8da2177"
        },
        "blocks" : [
            {
                "blockHeader" : {
                    "bloom" : "0x00000000000000000000000000000000000000000000000000000000000000000000000000000000000000000000000000000000000000000000000000000000000000000000000000000000000000000000000000000000000000000000000000000000000000000000000000000000000000000000000000000000000000000000000000000000000000000000000000000000000000000000000000000000000000000000000000000000000000000000000000000000000000000000000000000000000000000000000000000000000000000000000000000000000000000000000000000000000000000000000000000000000000000000000000000000",
                    "coinbase" : "0x2adc25665018aa1fe0e6bc666dac8fc2697ff9ba",
                    "difficulty" : "0x020000",
                    "extraData" : "",
                    "gasLimit" : "0x989680",
                    "gasUsed" : "0x01adb0",
                    "hash" : "0x1653980c2f3b781be4ef227e88f97fbc4e267fdb98cb23dd2484026eb7a290ab",
                    "mixHash" : "0x7c806ca8d16260a4d14b5950beaa315c16cbf0f5706645275600fc157324441e",
                    "nonce" : "0x7559b89634c0799f",
                    "number" : "0x01",
                    "parentHash" : "0x93dcf85bc7a76227f7e21e4ea5f868b5fe35b40c9bacc70d21636b4aea2c8427",
                    "receiptTrie" : "0xc179fe8c06cb1c853d90b238977038c12fd7db327848a009f85d13aa675e79fa",
                    "stateRoot" : "0x4e6cbd7d8c4fefa307e3673433fdda8658227597cd2b8f1ab3928a6c9ada083e",
                    "timestamp" : "0x03e8",
                    "transactionsTrie" : "0xefc73fbab984f5ebfa015cc648f13bdb54da1b41c87f3cdb2d9c5bb397fc3209",
                    "uncleHash" : "0x1dcc4de8dec75d7aab85b567b6ccd41ad312451b948a7413f0a142fd40d49347"
                },
                "rlp" : "0xf90280f901f8a093dcf85bc7a76227f7e21e4ea5f868b5fe35b40c9bacc70d21636b4aea2c8427a01dcc4de8dec75d7aab85b567b6ccd41ad312451b948a7413f0a142fd40d49347942adc25665018aa1fe0e6bc666dac8fc2697ff9baa04e6cbd7d8c4fefa307e3673433fdda8658227597cd2b8f1ab3928a6c9ada083ea0efc73fbab984f5ebfa015cc648f13bdb54da1b41c87f3cdb2d9c5bb397fc3209a0c179fe8c06cb1c853d90b238977038c12fd7db327848a009f85d13aa675e79fab90100000000000000000000000000000000000000000000000000000000000000000000000000000000000000000000000000000000000000000000000000000000000000000000000000000000000000000000000000000000000000000000000000000000000000000000000000000000000000000000000000000000000000000000000000000000000000000000000000000000000000000000000000000000000000000000000000000000000000000000000000000000000000000000000000000000000000000000000000000000000000000000000000000000000000000000000000000000000000000000000000000000000000000000000000000000008302000001839896808301adb08203e880a07c806ca8d16260a4d14b5950beaa315c16cbf0f5706645275600fc157324441e887559b89634c0799ff882f88080018301adb0943e180b1862f9d158abb5e519a6d8605540c2368280a0000000000000000000000000000000000000000000000000000000000000ea601ba053df2851760e6b130457296ef1feee0cff28344931e86addf1268d94e3fa3c14a07480574e4c870f6562875a39d6a6931ef7ed2adb615879b8446c4d89bc6b4742c0",
                "transactions" : [
                    {
                        "data" : "0x000000000000000000000000000000000000000000000000000000000000ea60",
                        "gasLimit" : "0x01adb0",
                        "gasPrice" : "0x01",
                        "nonce" : "0x00",
                        "r" : "0x53df2851760e6b130457296ef1feee0cff28344931e86addf1268d94e3fa3c14",
                        "s" : "0x7480574e4c870f6562875a39d6a6931ef7ed2adb615879b8446c4d89bc6b4742",
                        "to" : "0x3e180b1862f9d158abb5e519a6d8605540c23682",
                        "v" : "0x1b",
                        "value" : "0x00"
                    }
                ],
                "uncleHeaders" : [
                ]
            }
        ],
        "genesisBlockHeader" : {
            "bloom" : "0x00000000000000000000000000000000000000000000000000000000000000000000000000000000000000000000000000000000000000000000000000000000000000000000000000000000000000000000000000000000000000000000000000000000000000000000000000000000000000000000000000000000000000000000000000000000000000000000000000000000000000000000000000000000000000000000000000000000000000000000000000000000000000000000000000000000000000000000000000000000000000000000000000000000000000000000000000000000000000000000000000000000000000000000000000000000",
            "coinbase" : "0x2adc25665018aa1fe0e6bc666dac8fc2697ff9ba",
            "difficulty" : "0x020000",
            "extraData" : "0x42",
            "gasLimit" : "0x989680",
            "gasUsed" : "0x00",
            "hash" : "0x93dcf85bc7a76227f7e21e4ea5f868b5fe35b40c9bacc70d21636b4aea2c8427",
            "mixHash" : "0x56e81f171bcc55a6ff8345e692c0f86e5b48e01b996cadc001622fb5e363b421",
            "nonce" : "0x0102030405060708",
            "number" : "0x00",
            "parentHash" : "0x0000000000000000000000000000000000000000000000000000000000000000",
            "receiptTrie" : "0x56e81f171bcc55a6ff8345e692c0f86e5b48e01b996cadc001622fb5e363b421",
            "stateRoot" : "0x2021386d37ea74464f53e382b6525956b68259567a65fab0e9021c9d25a86cf3",
            "timestamp" : "0x03b6",
            "transactionsTrie" : "0x56e81f171bcc55a6ff8345e692c0f86e5b48e01b996cadc001622fb5e363b421",
            "uncleHash" : "0x1dcc4de8dec75d7aab85b567b6ccd41ad312451b948a7413f0a142fd40d49347"
        },
        "genesisRLP" : "0xf901faf901f5a00000000000000000000000000000000000000000000000000000000000000000a01dcc4de8dec75d7aab85b567b6ccd41ad312451b948a7413f0a142fd40d49347942adc25665018aa1fe0e6bc666dac8fc2697ff9baa02021386d37ea74464f53e382b6525956b68259567a65fab0e9021c9d25a86cf3a056e81f171bcc55a6ff8345e692c0f86e5b48e01b996cadc001622fb5e363b421a056e81f171bcc55a6ff8345e692c0f86e5b48e01b996cadc001622fb5e363b421b9010000000000000000000000000000000000000000000000000000000000000000000000000000000000000000000000000000000000000000000000000000000000000000000000000000000000000000000000000000000000000000000000000000000000000000000000000000000000000000000000000000000000000000000000000000000000000000000000000000000000000000000000000000000000000000000000000000000000000000000000000000000000000000000000000000000000000000000000000000000000000000000000000000000000000000000000000000000000000000000000000000000000000000000000000000000000830200008083989680808203b642a056e81f171bcc55a6ff8345e692c0f86e5b48e01b996cadc001622fb5e363b421880102030405060708c0c0",
        "lastblockhash" : "0x1653980c2f3b781be4ef227e88f97fbc4e267fdb98cb23dd2484026eb7a290ab",
        "network" : "EIP158",
        "postState" : {
            "0x2adc25665018aa1fe0e6bc666dac8fc2697ff9ba" : {
                "balance" : "0x4563918244f5adb0",
                "code" : "",
                "nonce" : "0x00",
                "storage" : {
                }
            },
            "0x3e180b1862f9d158abb5e519a6d8605540c23682" : {
                "balance" : "0x05",
                "code" : "0x60016000556000600060006000600073b000000000000000000000000000000000000000600035f1600155600c600455",
                "nonce" : "0x36",
                "storage" : {
                }
            },
            "0xa94f5374fce5edbc8e2a8697c15331677e6ebf0b" : {
                "balance" : "0xe8d4a36250",
                "code" : "",
                "nonce" : "0x01",
                "storage" : {
                }
            },
            "0xb000000000000000000000000000000000000000" : {
                "balance" : "0x00",
                "code" : "0x6008600255600060006000f050600c600355",
                "nonce" : "0x00",
                "storage" : {
                }
            }
        },
        "pre" : {
            "0x3e180b1862f9d158abb5e519a6d8605540c23682" : {
                "balance" : "0x05",
                "code" : "0x60016000556000600060006000600073b000000000000000000000000000000000000000600035f1600155600c600455",
                "nonce" : "0x36",
                "storage" : {
                }
            },
            "0xa94f5374fce5edbc8e2a8697c15331677e6ebf0b" : {
                "balance" : "0xe8d4a51000",
                "code" : "",
                "nonce" : "0x00",
                "storage" : {
                }
            },
            "0xb000000000000000000000000000000000000000" : {
                "balance" : "0x00",
                "code" : "0x6008600255600060006000f050600c600355",
                "nonce" : "0x00",
                "storage" : {
                }
            }
        }
    },
    "RevertDepthCreateAddressCollision_d0g0v1_Homestead" : {
        "_info" : {
            "comment" : "",
            "filledwith" : "cpp-1.3.0+commit.ab4ca6d1.Linux.g++",
            "lllcversion" : "Version: 0.4.20-develop.2018.1.8+commit.2548228b.Linux.g++",
            "source" : "src/BlockchainTestsFiller/GeneralStateTests/stRevertTest/RevertDepthCreateAddressCollision_d0g0v1Filler.json",
            "sourceHash" : "e704d2e9217f0afc1e47eb9b902b69cf89e6e233df5d79c54c3fac71a8da2177"
        },
        "blocks" : [
            {
                "blockHeader" : {
                    "bloom" : "0x00000000000000000000000000000000000000000000000000000000000000000000000000000000000000000000000000000000000000000000000000000000000000000000000000000000000000000000000000000000000000000000000000000000000000000000000000000000000000000000000000000000000000000000000000000000000000000000000000000000000000000000000000000000000000000000000000000000000000000000000000000000000000000000000000000000000000000000000000000000000000000000000000000000000000000000000000000000000000000000000000000000000000000000000000000000",
                    "coinbase" : "0x2adc25665018aa1fe0e6bc666dac8fc2697ff9ba",
                    "difficulty" : "0x020000",
                    "extraData" : "",
                    "gasLimit" : "0x989680",
                    "gasUsed" : "0x01adb0",
                    "hash" : "0xd97122d60bf783440d12471b249c2fae70ea5b3db3961be2226a604d66d2f62d",
                    "mixHash" : "0x5d8e730bcfef576628a0fe313b1d610ea2bbe5ce1eedb1d2ae690e7a5085df5a",
                    "nonce" : "0x58d39b8fd04ddbb6",
                    "number" : "0x01",
                    "parentHash" : "0x93dcf85bc7a76227f7e21e4ea5f868b5fe35b40c9bacc70d21636b4aea2c8427",
                    "receiptTrie" : "0xc179fe8c06cb1c853d90b238977038c12fd7db327848a009f85d13aa675e79fa",
                    "stateRoot" : "0x4e6cbd7d8c4fefa307e3673433fdda8658227597cd2b8f1ab3928a6c9ada083e",
                    "timestamp" : "0x03e8",
                    "transactionsTrie" : "0xefc73fbab984f5ebfa015cc648f13bdb54da1b41c87f3cdb2d9c5bb397fc3209",
                    "uncleHash" : "0x1dcc4de8dec75d7aab85b567b6ccd41ad312451b948a7413f0a142fd40d49347"
                },
                "rlp" : "0xf90280f901f8a093dcf85bc7a76227f7e21e4ea5f868b5fe35b40c9bacc70d21636b4aea2c8427a01dcc4de8dec75d7aab85b567b6ccd41ad312451b948a7413f0a142fd40d49347942adc25665018aa1fe0e6bc666dac8fc2697ff9baa04e6cbd7d8c4fefa307e3673433fdda8658227597cd2b8f1ab3928a6c9ada083ea0efc73fbab984f5ebfa015cc648f13bdb54da1b41c87f3cdb2d9c5bb397fc3209a0c179fe8c06cb1c853d90b238977038c12fd7db327848a009f85d13aa675e79fab90100000000000000000000000000000000000000000000000000000000000000000000000000000000000000000000000000000000000000000000000000000000000000000000000000000000000000000000000000000000000000000000000000000000000000000000000000000000000000000000000000000000000000000000000000000000000000000000000000000000000000000000000000000000000000000000000000000000000000000000000000000000000000000000000000000000000000000000000000000000000000000000000000000000000000000000000000000000000000000000000000000000000000000000000000000000008302000001839896808301adb08203e880a05d8e730bcfef576628a0fe313b1d610ea2bbe5ce1eedb1d2ae690e7a5085df5a8858d39b8fd04ddbb6f882f88080018301adb0943e180b1862f9d158abb5e519a6d8605540c2368280a0000000000000000000000000000000000000000000000000000000000000ea601ba053df2851760e6b130457296ef1feee0cff28344931e86addf1268d94e3fa3c14a07480574e4c870f6562875a39d6a6931ef7ed2adb615879b8446c4d89bc6b4742c0",
                "transactions" : [
                    {
                        "data" : "0x000000000000000000000000000000000000000000000000000000000000ea60",
                        "gasLimit" : "0x01adb0",
                        "gasPrice" : "0x01",
                        "nonce" : "0x00",
                        "r" : "0x53df2851760e6b130457296ef1feee0cff28344931e86addf1268d94e3fa3c14",
                        "s" : "0x7480574e4c870f6562875a39d6a6931ef7ed2adb615879b8446c4d89bc6b4742",
                        "to" : "0x3e180b1862f9d158abb5e519a6d8605540c23682",
                        "v" : "0x1b",
                        "value" : "0x00"
                    }
                ],
                "uncleHeaders" : [
                ]
            }
        ],
        "genesisBlockHeader" : {
            "bloom" : "0x00000000000000000000000000000000000000000000000000000000000000000000000000000000000000000000000000000000000000000000000000000000000000000000000000000000000000000000000000000000000000000000000000000000000000000000000000000000000000000000000000000000000000000000000000000000000000000000000000000000000000000000000000000000000000000000000000000000000000000000000000000000000000000000000000000000000000000000000000000000000000000000000000000000000000000000000000000000000000000000000000000000000000000000000000000000",
            "coinbase" : "0x2adc25665018aa1fe0e6bc666dac8fc2697ff9ba",
            "difficulty" : "0x020000",
            "extraData" : "0x42",
            "gasLimit" : "0x989680",
            "gasUsed" : "0x00",
            "hash" : "0x93dcf85bc7a76227f7e21e4ea5f868b5fe35b40c9bacc70d21636b4aea2c8427",
            "mixHash" : "0x56e81f171bcc55a6ff8345e692c0f86e5b48e01b996cadc001622fb5e363b421",
            "nonce" : "0x0102030405060708",
            "number" : "0x00",
            "parentHash" : "0x0000000000000000000000000000000000000000000000000000000000000000",
            "receiptTrie" : "0x56e81f171bcc55a6ff8345e692c0f86e5b48e01b996cadc001622fb5e363b421",
            "stateRoot" : "0x2021386d37ea74464f53e382b6525956b68259567a65fab0e9021c9d25a86cf3",
            "timestamp" : "0x03b6",
            "transactionsTrie" : "0x56e81f171bcc55a6ff8345e692c0f86e5b48e01b996cadc001622fb5e363b421",
            "uncleHash" : "0x1dcc4de8dec75d7aab85b567b6ccd41ad312451b948a7413f0a142fd40d49347"
        },
        "genesisRLP" : "0xf901faf901f5a00000000000000000000000000000000000000000000000000000000000000000a01dcc4de8dec75d7aab85b567b6ccd41ad312451b948a7413f0a142fd40d49347942adc25665018aa1fe0e6bc666dac8fc2697ff9baa02021386d37ea74464f53e382b6525956b68259567a65fab0e9021c9d25a86cf3a056e81f171bcc55a6ff8345e692c0f86e5b48e01b996cadc001622fb5e363b421a056e81f171bcc55a6ff8345e692c0f86e5b48e01b996cadc001622fb5e363b421b9010000000000000000000000000000000000000000000000000000000000000000000000000000000000000000000000000000000000000000000000000000000000000000000000000000000000000000000000000000000000000000000000000000000000000000000000000000000000000000000000000000000000000000000000000000000000000000000000000000000000000000000000000000000000000000000000000000000000000000000000000000000000000000000000000000000000000000000000000000000000000000000000000000000000000000000000000000000000000000000000000000000000000000000000000000000000830200008083989680808203b642a056e81f171bcc55a6ff8345e692c0f86e5b48e01b996cadc001622fb5e363b421880102030405060708c0c0",
        "lastblockhash" : "0xd97122d60bf783440d12471b249c2fae70ea5b3db3961be2226a604d66d2f62d",
        "network" : "Homestead",
        "postState" : {
            "0x2adc25665018aa1fe0e6bc666dac8fc2697ff9ba" : {
                "balance" : "0x4563918244f5adb0",
                "code" : "",
                "nonce" : "0x00",
                "storage" : {
                }
            },
            "0x3e180b1862f9d158abb5e519a6d8605540c23682" : {
                "balance" : "0x05",
                "code" : "0x60016000556000600060006000600073b000000000000000000000000000000000000000600035f1600155600c600455",
                "nonce" : "0x36",
                "storage" : {
                }
            },
            "0xa94f5374fce5edbc8e2a8697c15331677e6ebf0b" : {
                "balance" : "0xe8d4a36250",
                "code" : "",
                "nonce" : "0x01",
                "storage" : {
                }
            },
            "0xb000000000000000000000000000000000000000" : {
                "balance" : "0x00",
                "code" : "0x6008600255600060006000f050600c600355",
                "nonce" : "0x00",
                "storage" : {
                }
            }
        },
        "pre" : {
            "0x3e180b1862f9d158abb5e519a6d8605540c23682" : {
                "balance" : "0x05",
                "code" : "0x60016000556000600060006000600073b000000000000000000000000000000000000000600035f1600155600c600455",
                "nonce" : "0x36",
                "storage" : {
                }
            },
            "0xa94f5374fce5edbc8e2a8697c15331677e6ebf0b" : {
                "balance" : "0xe8d4a51000",
                "code" : "",
                "nonce" : "0x00",
                "storage" : {
                }
            },
            "0xb000000000000000000000000000000000000000" : {
                "balance" : "0x00",
                "code" : "0x6008600255600060006000f050600c600355",
                "nonce" : "0x00",
                "storage" : {
                }
            }
        }
    }
}