{
    "RevertOpcodeDirectCall_d0g1v0_Byzantium" : {
        "_info" : {
            "comment" : "",
            "filledwith" : "cpp-1.3.0+commit.e5cf5910.Linux.g++",
            "lllcversion" : "Version: 0.4.18-develop.2017.9.25+commit.a72237f2.Linux.g++",
            "source" : "src/BlockchainTestsFiller/GeneralStateTests/stRevertTest/RevertOpcodeDirectCall_d0g1v0Filler.json"
        },
        "blocks" : [
            {
                "blockHeader" : {
                    "bloom" : "0x00000000000000000000000000000000000000000000000000000000000000000000000000000000000000000000000000000000000000000000000000000000000000000000000000000000000000000000000000000000000000000000000000000000000000000000000000000000000000000000000000000000000000000000000000000000000000000000000000000000000000000000000000000000000000000000000000000000000000000000000000000000000000000000000000000000000000000000000000000000000000000000000000000000000000000000000000000000000000000000000000000000000000000000000000000000",
                    "coinbase" : "0x2adc25665018aa1fe0e6bc666dac8fc2697ff9ba",
                    "difficulty" : "0x020000",
                    "extraData" : "",
                    "gasLimit" : "0x989680",
                    "gasUsed" : "0x0109a0",
                    "hash" : "0xf44d3e420f2b5eec2400a814e2d32235424c5afa90ee227b6ab5546f4f1f7d57",
                    "mixHash" : "0xe082db3af07b7c1e7052d0eb92e76746d1984f2dc10fc6fbd5c0e20de6988ce9",
                    "nonce" : "0xf21e354d212cccd9",
                    "number" : "0x01",
                    "parentHash" : "0x48b5f8772649f2b76c6f4b354c44447958eabd2be6a11ca9d3da8d98133599e9",
                    "receiptTrie" : "0x68ba6c6060bce18ea95d3920206a7c51d56e77984aa2781561aa207249d4dd9e",
                    "stateRoot" : "0xdd3154040a261cc76de8c3a4d1df99e3a71f5fa6915e768c62b18108cd9e0130",
                    "timestamp" : "0x03e8",
                    "transactionsTrie" : "0x8f24e0c5dc86996e9ed5034cca996ceb7b6044fbb1effbc59bb00aad9788a521",
                    "uncleHash" : "0x1dcc4de8dec75d7aab85b567b6ccd41ad312451b948a7413f0a142fd40d49347"
                },
                "rlp" : "0xf90280f901f8a048b5f8772649f2b76c6f4b354c44447958eabd2be6a11ca9d3da8d98133599e9a01dcc4de8dec75d7aab85b567b6ccd41ad312451b948a7413f0a142fd40d49347942adc25665018aa1fe0e6bc666dac8fc2697ff9baa0dd3154040a261cc76de8c3a4d1df99e3a71f5fa6915e768c62b18108cd9e0130a08f24e0c5dc86996e9ed5034cca996ceb7b6044fbb1effbc59bb00aad9788a521a068ba6c6060bce18ea95d3920206a7c51d56e77984aa2781561aa207249d4dd9eb9010000000000000000000000000000000000000000000000000000000000000000000000000000000000000000000000000000000000000000000000000000000000000000000000000000000000000000000000000000000000000000000000000000000000000000000000000000000000000000000000000000000000000000000000000000000000000000000000000000000000000000000000000000000000000000000000000000000000000000000000000000000000000000000000000000000000000000000000000000000000000000000000000000000000000000000000000000000000000000000000000000000000000000000000000000000000830200000183989680830109a08203e880a0e082db3af07b7c1e7052d0eb92e76746d1984f2dc10fc6fbd5c0e20de6988ce988f21e354d212cccd9f882f8808001830109a094b94f5374fce5edbc8e2a8697c15331677e6ebf0b80a0000000000000000000000000b94f5374fce5edbc8e2a8697c15331677e6ebf0b1ca061d2fa757acaa2f6adf2f80ab8796847ed36ab3cd5832d570ba58887ef3203e8a02f36e284cdc7a7dce6cef630c9dacaac36b041ad4ef7f5c693de4593ae9c286ac0",
                "transactions" : [
                    {
                        "data" : "0x000000000000000000000000b94f5374fce5edbc8e2a8697c15331677e6ebf0b",
                        "gasLimit" : "0x0109a0",
                        "gasPrice" : "0x01",
                        "nonce" : "0x00",
                        "r" : "0x61d2fa757acaa2f6adf2f80ab8796847ed36ab3cd5832d570ba58887ef3203e8",
                        "s" : "0x2f36e284cdc7a7dce6cef630c9dacaac36b041ad4ef7f5c693de4593ae9c286a",
                        "to" : "0xb94f5374fce5edbc8e2a8697c15331677e6ebf0b",
                        "v" : "0x1c",
                        "value" : "0x00"
                    }
                ],
                "uncleHeaders" : [
                ]
            }
        ],
        "genesisBlockHeader" : {
            "bloom" : "0x00000000000000000000000000000000000000000000000000000000000000000000000000000000000000000000000000000000000000000000000000000000000000000000000000000000000000000000000000000000000000000000000000000000000000000000000000000000000000000000000000000000000000000000000000000000000000000000000000000000000000000000000000000000000000000000000000000000000000000000000000000000000000000000000000000000000000000000000000000000000000000000000000000000000000000000000000000000000000000000000000000000000000000000000000000000",
            "coinbase" : "0x2adc25665018aa1fe0e6bc666dac8fc2697ff9ba",
            "difficulty" : "0x020000",
            "extraData" : "0x42",
            "gasLimit" : "0x989680",
            "gasUsed" : "0x00",
            "hash" : "0x48b5f8772649f2b76c6f4b354c44447958eabd2be6a11ca9d3da8d98133599e9",
            "mixHash" : "0x56e81f171bcc55a6ff8345e692c0f86e5b48e01b996cadc001622fb5e363b421",
            "nonce" : "0x0102030405060708",
            "number" : "0x00",
            "parentHash" : "0x0000000000000000000000000000000000000000000000000000000000000000",
            "receiptTrie" : "0x56e81f171bcc55a6ff8345e692c0f86e5b48e01b996cadc001622fb5e363b421",
            "stateRoot" : "0x009eac12fad0a21887d19514dea3d9b6ffd0fa031cf3d7b3dfb581ece4167b11",
            "timestamp" : "0x03b6",
            "transactionsTrie" : "0x56e81f171bcc55a6ff8345e692c0f86e5b48e01b996cadc001622fb5e363b421",
            "uncleHash" : "0x1dcc4de8dec75d7aab85b567b6ccd41ad312451b948a7413f0a142fd40d49347"
        },
        "genesisRLP" : "0xf901faf901f5a00000000000000000000000000000000000000000000000000000000000000000a01dcc4de8dec75d7aab85b567b6ccd41ad312451b948a7413f0a142fd40d49347942adc25665018aa1fe0e6bc666dac8fc2697ff9baa0009eac12fad0a21887d19514dea3d9b6ffd0fa031cf3d7b3dfb581ece4167b11a056e81f171bcc55a6ff8345e692c0f86e5b48e01b996cadc001622fb5e363b421a056e81f171bcc55a6ff8345e692c0f86e5b48e01b996cadc001622fb5e363b421b9010000000000000000000000000000000000000000000000000000000000000000000000000000000000000000000000000000000000000000000000000000000000000000000000000000000000000000000000000000000000000000000000000000000000000000000000000000000000000000000000000000000000000000000000000000000000000000000000000000000000000000000000000000000000000000000000000000000000000000000000000000000000000000000000000000000000000000000000000000000000000000000000000000000000000000000000000000000000000000000000000000000000000000000000000000000000830200008083989680808203b642a056e81f171bcc55a6ff8345e692c0f86e5b48e01b996cadc001622fb5e363b421880102030405060708c0c0",
        "lastblockhash" : "0xf44d3e420f2b5eec2400a814e2d32235424c5afa90ee227b6ab5546f4f1f7d57",
        "network" : "Byzantium",
        "postState" : {
            "0x094f5374fce5edbc8e2a8697c15331677e6ebf0b" : {
                "balance" : "0x01",
                "code" : "0x6000600060006000600060003561ea60f1600a55",
                "nonce" : "0x00",
                "storage" : {
                }
            },
            "0x2adc25665018aa1fe0e6bc666dac8fc2697ff9ba" : {
                "balance" : "0x29a2241af62d09a0",
                "code" : "",
                "nonce" : "0x00",
                "storage" : {
                }
            },
            "0xa94f5374fce5edbc8e2a8697c15331677e6ebf0b" : {
                "balance" : "0xe8d4a40660",
                "code" : "",
                "nonce" : "0x01",
                "storage" : {
                }
            },
            "0xb94f5374fce5edbc8e2a8697c15331677e6ebf0b" : {
                "balance" : "0x01",
                "code" : "0x6000600060006000600073c94f5374fce5edbc8e2a8697c15331677e6ebf0b61c350f1600055600e600255",
                "nonce" : "0x00",
                "storage" : {
                }
            },
            "0xc94f5374fce5edbc8e2a8697c15331677e6ebf0b" : {
                "balance" : "0x01",
                "code" : "0x600c60015560016000fd600d600355",
                "nonce" : "0x00",
                "storage" : {
                }
            }
        },
        "pre" : {
            "0x094f5374fce5edbc8e2a8697c15331677e6ebf0b" : {
                "balance" : "0x01",
                "code" : "0x6000600060006000600060003561ea60f1600a55",
                "nonce" : "0x00",
                "storage" : {
                }
            },
            "0xa94f5374fce5edbc8e2a8697c15331677e6ebf0b" : {
                "balance" : "0xe8d4a51000",
                "code" : "",
                "nonce" : "0x00",
                "storage" : {
                }
            },
            "0xb94f5374fce5edbc8e2a8697c15331677e6ebf0b" : {
                "balance" : "0x01",
                "code" : "0x6000600060006000600073c94f5374fce5edbc8e2a8697c15331677e6ebf0b61c350f1600055600e600255",
                "nonce" : "0x00",
                "storage" : {
                }
            },
            "0xc94f5374fce5edbc8e2a8697c15331677e6ebf0b" : {
                "balance" : "0x01",
                "code" : "0x600c60015560016000fd600d600355",
                "nonce" : "0x00",
                "storage" : {
                }
            }
        }
    },
    "RevertOpcodeDirectCall_d0g1v0_EIP150" : {
        "_info" : {
            "comment" : "",
            "filledwith" : "cpp-1.3.0+commit.e5cf5910.Linux.g++",
            "lllcversion" : "Version: 0.4.18-develop.2017.9.25+commit.a72237f2.Linux.g++",
            "source" : "src/BlockchainTestsFiller/GeneralStateTests/stRevertTest/RevertOpcodeDirectCall_d0g1v0Filler.json"
        },
        "blocks" : [
            {
                "blockHeader" : {
                    "bloom" : "0x00000000000000000000000000000000000000000000000000000000000000000000000000000000000000000000000000000000000000000000000000000000000000000000000000000000000000000000000000000000000000000000000000000000000000000000000000000000000000000000000000000000000000000000000000000000000000000000000000000000000000000000000000000000000000000000000000000000000000000000000000000000000000000000000000000000000000000000000000000000000000000000000000000000000000000000000000000000000000000000000000000000000000000000000000000000",
                    "coinbase" : "0x2adc25665018aa1fe0e6bc666dac8fc2697ff9ba",
                    "difficulty" : "0x020000",
                    "extraData" : "",
                    "gasLimit" : "0x989680",
                    "gasUsed" : "0x0109a0",
                    "hash" : "0x7ebdcba82e306309242fb3a0f956324215682be1df6324cd0e78d3ec47a17ef4",
                    "mixHash" : "0x35823fe3cdaf2784a9f1d490108f11f064962bdf81e32e04aac8a96f15f1fb04",
                    "nonce" : "0x56c93bb8db81de39",
                    "number" : "0x01",
                    "parentHash" : "0x48b5f8772649f2b76c6f4b354c44447958eabd2be6a11ca9d3da8d98133599e9",
                    "receiptTrie" : "0xf5718fbf61b52401f67ab44fbc2ae82f4150f479668ff88c075278814e990d35",
                    "stateRoot" : "0x52849aa4ee8ff2178656caaa5405ce13cd1c6c8feac508fdedea119bf6eba59c",
                    "timestamp" : "0x03e8",
                    "transactionsTrie" : "0x8f24e0c5dc86996e9ed5034cca996ceb7b6044fbb1effbc59bb00aad9788a521",
                    "uncleHash" : "0x1dcc4de8dec75d7aab85b567b6ccd41ad312451b948a7413f0a142fd40d49347"
                },
                "rlp" : "0xf90280f901f8a048b5f8772649f2b76c6f4b354c44447958eabd2be6a11ca9d3da8d98133599e9a01dcc4de8dec75d7aab85b567b6ccd41ad312451b948a7413f0a142fd40d49347942adc25665018aa1fe0e6bc666dac8fc2697ff9baa052849aa4ee8ff2178656caaa5405ce13cd1c6c8feac508fdedea119bf6eba59ca08f24e0c5dc86996e9ed5034cca996ceb7b6044fbb1effbc59bb00aad9788a521a0f5718fbf61b52401f67ab44fbc2ae82f4150f479668ff88c075278814e990d35b9010000000000000000000000000000000000000000000000000000000000000000000000000000000000000000000000000000000000000000000000000000000000000000000000000000000000000000000000000000000000000000000000000000000000000000000000000000000000000000000000000000000000000000000000000000000000000000000000000000000000000000000000000000000000000000000000000000000000000000000000000000000000000000000000000000000000000000000000000000000000000000000000000000000000000000000000000000000000000000000000000000000000000000000000000000000000830200000183989680830109a08203e880a035823fe3cdaf2784a9f1d490108f11f064962bdf81e32e04aac8a96f15f1fb048856c93bb8db81de39f882f8808001830109a094b94f5374fce5edbc8e2a8697c15331677e6ebf0b80a0000000000000000000000000b94f5374fce5edbc8e2a8697c15331677e6ebf0b1ca061d2fa757acaa2f6adf2f80ab8796847ed36ab3cd5832d570ba58887ef3203e8a02f36e284cdc7a7dce6cef630c9dacaac36b041ad4ef7f5c693de4593ae9c286ac0",
                "transactions" : [
                    {
                        "data" : "0x000000000000000000000000b94f5374fce5edbc8e2a8697c15331677e6ebf0b",
                        "gasLimit" : "0x0109a0",
                        "gasPrice" : "0x01",
                        "nonce" : "0x00",
                        "r" : "0x61d2fa757acaa2f6adf2f80ab8796847ed36ab3cd5832d570ba58887ef3203e8",
                        "s" : "0x2f36e284cdc7a7dce6cef630c9dacaac36b041ad4ef7f5c693de4593ae9c286a",
                        "to" : "0xb94f5374fce5edbc8e2a8697c15331677e6ebf0b",
                        "v" : "0x1c",
                        "value" : "0x00"
                    }
                ],
                "uncleHeaders" : [
                ]
            }
        ],
        "genesisBlockHeader" : {
            "bloom" : "0x00000000000000000000000000000000000000000000000000000000000000000000000000000000000000000000000000000000000000000000000000000000000000000000000000000000000000000000000000000000000000000000000000000000000000000000000000000000000000000000000000000000000000000000000000000000000000000000000000000000000000000000000000000000000000000000000000000000000000000000000000000000000000000000000000000000000000000000000000000000000000000000000000000000000000000000000000000000000000000000000000000000000000000000000000000000",
            "coinbase" : "0x2adc25665018aa1fe0e6bc666dac8fc2697ff9ba",
            "difficulty" : "0x020000",
            "extraData" : "0x42",
            "gasLimit" : "0x989680",
            "gasUsed" : "0x00",
            "hash" : "0x48b5f8772649f2b76c6f4b354c44447958eabd2be6a11ca9d3da8d98133599e9",
            "mixHash" : "0x56e81f171bcc55a6ff8345e692c0f86e5b48e01b996cadc001622fb5e363b421",
            "nonce" : "0x0102030405060708",
            "number" : "0x00",
            "parentHash" : "0x0000000000000000000000000000000000000000000000000000000000000000",
            "receiptTrie" : "0x56e81f171bcc55a6ff8345e692c0f86e5b48e01b996cadc001622fb5e363b421",
            "stateRoot" : "0x009eac12fad0a21887d19514dea3d9b6ffd0fa031cf3d7b3dfb581ece4167b11",
            "timestamp" : "0x03b6",
            "transactionsTrie" : "0x56e81f171bcc55a6ff8345e692c0f86e5b48e01b996cadc001622fb5e363b421",
            "uncleHash" : "0x1dcc4de8dec75d7aab85b567b6ccd41ad312451b948a7413f0a142fd40d49347"
        },
        "genesisRLP" : "0xf901faf901f5a00000000000000000000000000000000000000000000000000000000000000000a01dcc4de8dec75d7aab85b567b6ccd41ad312451b948a7413f0a142fd40d49347942adc25665018aa1fe0e6bc666dac8fc2697ff9baa0009eac12fad0a21887d19514dea3d9b6ffd0fa031cf3d7b3dfb581ece4167b11a056e81f171bcc55a6ff8345e692c0f86e5b48e01b996cadc001622fb5e363b421a056e81f171bcc55a6ff8345e692c0f86e5b48e01b996cadc001622fb5e363b421b9010000000000000000000000000000000000000000000000000000000000000000000000000000000000000000000000000000000000000000000000000000000000000000000000000000000000000000000000000000000000000000000000000000000000000000000000000000000000000000000000000000000000000000000000000000000000000000000000000000000000000000000000000000000000000000000000000000000000000000000000000000000000000000000000000000000000000000000000000000000000000000000000000000000000000000000000000000000000000000000000000000000000000000000000000000000000830200008083989680808203b642a056e81f171bcc55a6ff8345e692c0f86e5b48e01b996cadc001622fb5e363b421880102030405060708c0c0",
        "lastblockhash" : "0x7ebdcba82e306309242fb3a0f956324215682be1df6324cd0e78d3ec47a17ef4",
        "network" : "EIP150",
        "postState" : {
            "0x094f5374fce5edbc8e2a8697c15331677e6ebf0b" : {
                "balance" : "0x01",
                "code" : "0x6000600060006000600060003561ea60f1600a55",
                "nonce" : "0x00",
                "storage" : {
                }
            },
            "0x2adc25665018aa1fe0e6bc666dac8fc2697ff9ba" : {
                "balance" : "0x4563918244f509a0",
                "code" : "",
                "nonce" : "0x00",
                "storage" : {
                }
            },
            "0xa94f5374fce5edbc8e2a8697c15331677e6ebf0b" : {
                "balance" : "0xe8d4a40660",
                "code" : "",
                "nonce" : "0x01",
                "storage" : {
                }
            },
            "0xb94f5374fce5edbc8e2a8697c15331677e6ebf0b" : {
                "balance" : "0x01",
                "code" : "0x6000600060006000600073c94f5374fce5edbc8e2a8697c15331677e6ebf0b61c350f1600055600e600255",
                "nonce" : "0x00",
                "storage" : {
                }
            },
            "0xc94f5374fce5edbc8e2a8697c15331677e6ebf0b" : {
                "balance" : "0x01",
                "code" : "0x600c60015560016000fd600d600355",
                "nonce" : "0x00",
                "storage" : {
                }
            }
        },
        "pre" : {
            "0x094f5374fce5edbc8e2a8697c15331677e6ebf0b" : {
                "balance" : "0x01",
                "code" : "0x6000600060006000600060003561ea60f1600a55",
                "nonce" : "0x00",
                "storage" : {
                }
            },
            "0xa94f5374fce5edbc8e2a8697c15331677e6ebf0b" : {
                "balance" : "0xe8d4a51000",
                "code" : "",
                "nonce" : "0x00",
                "storage" : {
                }
            },
            "0xb94f5374fce5edbc8e2a8697c15331677e6ebf0b" : {
                "balance" : "0x01",
                "code" : "0x6000600060006000600073c94f5374fce5edbc8e2a8697c15331677e6ebf0b61c350f1600055600e600255",
                "nonce" : "0x00",
                "storage" : {
                }
            },
            "0xc94f5374fce5edbc8e2a8697c15331677e6ebf0b" : {
                "balance" : "0x01",
                "code" : "0x600c60015560016000fd600d600355",
                "nonce" : "0x00",
                "storage" : {
                }
            }
        }
    },
    "RevertOpcodeDirectCall_d0g1v0_EIP158" : {
        "_info" : {
            "comment" : "",
            "filledwith" : "cpp-1.3.0+commit.e5cf5910.Linux.g++",
            "lllcversion" : "Version: 0.4.18-develop.2017.9.25+commit.a72237f2.Linux.g++",
            "source" : "src/BlockchainTestsFiller/GeneralStateTests/stRevertTest/RevertOpcodeDirectCall_d0g1v0Filler.json"
        },
        "blocks" : [
            {
                "blockHeader" : {
                    "bloom" : "0x00000000000000000000000000000000000000000000000000000000000000000000000000000000000000000000000000000000000000000000000000000000000000000000000000000000000000000000000000000000000000000000000000000000000000000000000000000000000000000000000000000000000000000000000000000000000000000000000000000000000000000000000000000000000000000000000000000000000000000000000000000000000000000000000000000000000000000000000000000000000000000000000000000000000000000000000000000000000000000000000000000000000000000000000000000000",
                    "coinbase" : "0x2adc25665018aa1fe0e6bc666dac8fc2697ff9ba",
                    "difficulty" : "0x020000",
                    "extraData" : "",
                    "gasLimit" : "0x989680",
                    "gasUsed" : "0x0109a0",
                    "hash" : "0x4bc0cec01e0ab52856fb9cd3e88abfe2e2feb3d3fdbe666f5666fcc58ec33fde",
                    "mixHash" : "0x90e35a49ea439ae0a49a84caa1c3975948ea7b867600fcad68f88f635b35f478",
                    "nonce" : "0x6e47c7dec2776a32",
                    "number" : "0x01",
                    "parentHash" : "0x48b5f8772649f2b76c6f4b354c44447958eabd2be6a11ca9d3da8d98133599e9",
                    "receiptTrie" : "0xf5718fbf61b52401f67ab44fbc2ae82f4150f479668ff88c075278814e990d35",
                    "stateRoot" : "0x52849aa4ee8ff2178656caaa5405ce13cd1c6c8feac508fdedea119bf6eba59c",
                    "timestamp" : "0x03e8",
                    "transactionsTrie" : "0x8f24e0c5dc86996e9ed5034cca996ceb7b6044fbb1effbc59bb00aad9788a521",
                    "uncleHash" : "0x1dcc4de8dec75d7aab85b567b6ccd41ad312451b948a7413f0a142fd40d49347"
                },
                "rlp" : "0xf90280f901f8a048b5f8772649f2b76c6f4b354c44447958eabd2be6a11ca9d3da8d98133599e9a01dcc4de8dec75d7aab85b567b6ccd41ad312451b948a7413f0a142fd40d49347942adc25665018aa1fe0e6bc666dac8fc2697ff9baa052849aa4ee8ff2178656caaa5405ce13cd1c6c8feac508fdedea119bf6eba59ca08f24e0c5dc86996e9ed5034cca996ceb7b6044fbb1effbc59bb00aad9788a521a0f5718fbf61b52401f67ab44fbc2ae82f4150f479668ff88c075278814e990d35b9010000000000000000000000000000000000000000000000000000000000000000000000000000000000000000000000000000000000000000000000000000000000000000000000000000000000000000000000000000000000000000000000000000000000000000000000000000000000000000000000000000000000000000000000000000000000000000000000000000000000000000000000000000000000000000000000000000000000000000000000000000000000000000000000000000000000000000000000000000000000000000000000000000000000000000000000000000000000000000000000000000000000000000000000000000000000830200000183989680830109a08203e880a090e35a49ea439ae0a49a84caa1c3975948ea7b867600fcad68f88f635b35f478886e47c7dec2776a32f882f8808001830109a094b94f5374fce5edbc8e2a8697c15331677e6ebf0b80a0000000000000000000000000b94f5374fce5edbc8e2a8697c15331677e6ebf0b1ca061d2fa757acaa2f6adf2f80ab8796847ed36ab3cd5832d570ba58887ef3203e8a02f36e284cdc7a7dce6cef630c9dacaac36b041ad4ef7f5c693de4593ae9c286ac0",
                "transactions" : [
                    {
                        "data" : "0x000000000000000000000000b94f5374fce5edbc8e2a8697c15331677e6ebf0b",
                        "gasLimit" : "0x0109a0",
                        "gasPrice" : "0x01",
                        "nonce" : "0x00",
                        "r" : "0x61d2fa757acaa2f6adf2f80ab8796847ed36ab3cd5832d570ba58887ef3203e8",
                        "s" : "0x2f36e284cdc7a7dce6cef630c9dacaac36b041ad4ef7f5c693de4593ae9c286a",
                        "to" : "0xb94f5374fce5edbc8e2a8697c15331677e6ebf0b",
                        "v" : "0x1c",
                        "value" : "0x00"
                    }
                ],
                "uncleHeaders" : [
                ]
            }
        ],
        "genesisBlockHeader" : {
            "bloom" : "0x00000000000000000000000000000000000000000000000000000000000000000000000000000000000000000000000000000000000000000000000000000000000000000000000000000000000000000000000000000000000000000000000000000000000000000000000000000000000000000000000000000000000000000000000000000000000000000000000000000000000000000000000000000000000000000000000000000000000000000000000000000000000000000000000000000000000000000000000000000000000000000000000000000000000000000000000000000000000000000000000000000000000000000000000000000000",
            "coinbase" : "0x2adc25665018aa1fe0e6bc666dac8fc2697ff9ba",
            "difficulty" : "0x020000",
            "extraData" : "0x42",
            "gasLimit" : "0x989680",
            "gasUsed" : "0x00",
            "hash" : "0x48b5f8772649f2b76c6f4b354c44447958eabd2be6a11ca9d3da8d98133599e9",
            "mixHash" : "0x56e81f171bcc55a6ff8345e692c0f86e5b48e01b996cadc001622fb5e363b421",
            "nonce" : "0x0102030405060708",
            "number" : "0x00",
            "parentHash" : "0x0000000000000000000000000000000000000000000000000000000000000000",
            "receiptTrie" : "0x56e81f171bcc55a6ff8345e692c0f86e5b48e01b996cadc001622fb5e363b421",
            "stateRoot" : "0x009eac12fad0a21887d19514dea3d9b6ffd0fa031cf3d7b3dfb581ece4167b11",
            "timestamp" : "0x03b6",
            "transactionsTrie" : "0x56e81f171bcc55a6ff8345e692c0f86e5b48e01b996cadc001622fb5e363b421",
            "uncleHash" : "0x1dcc4de8dec75d7aab85b567b6ccd41ad312451b948a7413f0a142fd40d49347"
        },
        "genesisRLP" : "0xf901faf901f5a00000000000000000000000000000000000000000000000000000000000000000a01dcc4de8dec75d7aab85b567b6ccd41ad312451b948a7413f0a142fd40d49347942adc25665018aa1fe0e6bc666dac8fc2697ff9baa0009eac12fad0a21887d19514dea3d9b6ffd0fa031cf3d7b3dfb581ece4167b11a056e81f171bcc55a6ff8345e692c0f86e5b48e01b996cadc001622fb5e363b421a056e81f171bcc55a6ff8345e692c0f86e5b48e01b996cadc001622fb5e363b421b9010000000000000000000000000000000000000000000000000000000000000000000000000000000000000000000000000000000000000000000000000000000000000000000000000000000000000000000000000000000000000000000000000000000000000000000000000000000000000000000000000000000000000000000000000000000000000000000000000000000000000000000000000000000000000000000000000000000000000000000000000000000000000000000000000000000000000000000000000000000000000000000000000000000000000000000000000000000000000000000000000000000000000000000000000000000000830200008083989680808203b642a056e81f171bcc55a6ff8345e692c0f86e5b48e01b996cadc001622fb5e363b421880102030405060708c0c0",
        "lastblockhash" : "0x4bc0cec01e0ab52856fb9cd3e88abfe2e2feb3d3fdbe666f5666fcc58ec33fde",
        "network" : "EIP158",
        "postState" : {
            "0x094f5374fce5edbc8e2a8697c15331677e6ebf0b" : {
                "balance" : "0x01",
                "code" : "0x6000600060006000600060003561ea60f1600a55",
                "nonce" : "0x00",
                "storage" : {
                }
            },
            "0x2adc25665018aa1fe0e6bc666dac8fc2697ff9ba" : {
                "balance" : "0x4563918244f509a0",
                "code" : "",
                "nonce" : "0x00",
                "storage" : {
                }
            },
            "0xa94f5374fce5edbc8e2a8697c15331677e6ebf0b" : {
                "balance" : "0xe8d4a40660",
                "code" : "",
                "nonce" : "0x01",
                "storage" : {
                }
            },
            "0xb94f5374fce5edbc8e2a8697c15331677e6ebf0b" : {
                "balance" : "0x01",
                "code" : "0x6000600060006000600073c94f5374fce5edbc8e2a8697c15331677e6ebf0b61c350f1600055600e600255",
                "nonce" : "0x00",
                "storage" : {
                }
            },
            "0xc94f5374fce5edbc8e2a8697c15331677e6ebf0b" : {
                "balance" : "0x01",
                "code" : "0x600c60015560016000fd600d600355",
                "nonce" : "0x00",
                "storage" : {
                }
            }
        },
        "pre" : {
            "0x094f5374fce5edbc8e2a8697c15331677e6ebf0b" : {
                "balance" : "0x01",
                "code" : "0x6000600060006000600060003561ea60f1600a55",
                "nonce" : "0x00",
                "storage" : {
                }
            },
            "0xa94f5374fce5edbc8e2a8697c15331677e6ebf0b" : {
                "balance" : "0xe8d4a51000",
                "code" : "",
                "nonce" : "0x00",
                "storage" : {
                }
            },
            "0xb94f5374fce5edbc8e2a8697c15331677e6ebf0b" : {
                "balance" : "0x01",
                "code" : "0x6000600060006000600073c94f5374fce5edbc8e2a8697c15331677e6ebf0b61c350f1600055600e600255",
                "nonce" : "0x00",
                "storage" : {
                }
            },
            "0xc94f5374fce5edbc8e2a8697c15331677e6ebf0b" : {
                "balance" : "0x01",
                "code" : "0x600c60015560016000fd600d600355",
                "nonce" : "0x00",
                "storage" : {
                }
            }
        }
    },
    "RevertOpcodeDirectCall_d0g1v0_Frontier" : {
        "_info" : {
            "comment" : "",
            "filledwith" : "cpp-1.3.0+commit.e5cf5910.Linux.g++",
            "lllcversion" : "Version: 0.4.18-develop.2017.9.25+commit.a72237f2.Linux.g++",
            "source" : "src/BlockchainTestsFiller/GeneralStateTests/stRevertTest/RevertOpcodeDirectCall_d0g1v0Filler.json"
        },
        "blocks" : [
            {
                "blockHeader" : {
                    "bloom" : "0x00000000000000000000000000000000000000000000000000000000000000000000000000000000000000000000000000000000000000000000000000000000000000000000000000000000000000000000000000000000000000000000000000000000000000000000000000000000000000000000000000000000000000000000000000000000000000000000000000000000000000000000000000000000000000000000000000000000000000000000000000000000000000000000000000000000000000000000000000000000000000000000000000000000000000000000000000000000000000000000000000000000000000000000000000000000",
                    "coinbase" : "0x2adc25665018aa1fe0e6bc666dac8fc2697ff9ba",
                    "difficulty" : "0x020000",
                    "extraData" : "",
                    "gasLimit" : "0x989680",
                    "gasUsed" : "0x0109a0",
                    "hash" : "0xdf910c36c1fb2797e521c3d621319f9c409b8c7cf7f0a55241ec33a841377982",
                    "mixHash" : "0xec06d9e2565c6361419c9eb27860e0934afcf2a1d6a38deac6791877a43f01c9",
                    "nonce" : "0x6fd804be5a05b556",
                    "number" : "0x01",
                    "parentHash" : "0x48b5f8772649f2b76c6f4b354c44447958eabd2be6a11ca9d3da8d98133599e9",
                    "receiptTrie" : "0xf5718fbf61b52401f67ab44fbc2ae82f4150f479668ff88c075278814e990d35",
                    "stateRoot" : "0x52849aa4ee8ff2178656caaa5405ce13cd1c6c8feac508fdedea119bf6eba59c",
                    "timestamp" : "0x03e8",
                    "transactionsTrie" : "0x8f24e0c5dc86996e9ed5034cca996ceb7b6044fbb1effbc59bb00aad9788a521",
                    "uncleHash" : "0x1dcc4de8dec75d7aab85b567b6ccd41ad312451b948a7413f0a142fd40d49347"
                },
                "rlp" : "0xf90280f901f8a048b5f8772649f2b76c6f4b354c44447958eabd2be6a11ca9d3da8d98133599e9a01dcc4de8dec75d7aab85b567b6ccd41ad312451b948a7413f0a142fd40d49347942adc25665018aa1fe0e6bc666dac8fc2697ff9baa052849aa4ee8ff2178656caaa5405ce13cd1c6c8feac508fdedea119bf6eba59ca08f24e0c5dc86996e9ed5034cca996ceb7b6044fbb1effbc59bb00aad9788a521a0f5718fbf61b52401f67ab44fbc2ae82f4150f479668ff88c075278814e990d35b9010000000000000000000000000000000000000000000000000000000000000000000000000000000000000000000000000000000000000000000000000000000000000000000000000000000000000000000000000000000000000000000000000000000000000000000000000000000000000000000000000000000000000000000000000000000000000000000000000000000000000000000000000000000000000000000000000000000000000000000000000000000000000000000000000000000000000000000000000000000000000000000000000000000000000000000000000000000000000000000000000000000000000000000000000000000000830200000183989680830109a08203e880a0ec06d9e2565c6361419c9eb27860e0934afcf2a1d6a38deac6791877a43f01c9886fd804be5a05b556f882f8808001830109a094b94f5374fce5edbc8e2a8697c15331677e6ebf0b80a0000000000000000000000000b94f5374fce5edbc8e2a8697c15331677e6ebf0b1ca061d2fa757acaa2f6adf2f80ab8796847ed36ab3cd5832d570ba58887ef3203e8a02f36e284cdc7a7dce6cef630c9dacaac36b041ad4ef7f5c693de4593ae9c286ac0",
                "transactions" : [
                    {
                        "data" : "0x000000000000000000000000b94f5374fce5edbc8e2a8697c15331677e6ebf0b",
                        "gasLimit" : "0x0109a0",
                        "gasPrice" : "0x01",
                        "nonce" : "0x00",
                        "r" : "0x61d2fa757acaa2f6adf2f80ab8796847ed36ab3cd5832d570ba58887ef3203e8",
                        "s" : "0x2f36e284cdc7a7dce6cef630c9dacaac36b041ad4ef7f5c693de4593ae9c286a",
                        "to" : "0xb94f5374fce5edbc8e2a8697c15331677e6ebf0b",
                        "v" : "0x1c",
                        "value" : "0x00"
                    }
                ],
                "uncleHeaders" : [
                ]
            }
        ],
        "genesisBlockHeader" : {
            "bloom" : "0x00000000000000000000000000000000000000000000000000000000000000000000000000000000000000000000000000000000000000000000000000000000000000000000000000000000000000000000000000000000000000000000000000000000000000000000000000000000000000000000000000000000000000000000000000000000000000000000000000000000000000000000000000000000000000000000000000000000000000000000000000000000000000000000000000000000000000000000000000000000000000000000000000000000000000000000000000000000000000000000000000000000000000000000000000000000",
            "coinbase" : "0x2adc25665018aa1fe0e6bc666dac8fc2697ff9ba",
            "difficulty" : "0x020000",
            "extraData" : "0x42",
            "gasLimit" : "0x989680",
            "gasUsed" : "0x00",
            "hash" : "0x48b5f8772649f2b76c6f4b354c44447958eabd2be6a11ca9d3da8d98133599e9",
            "mixHash" : "0x56e81f171bcc55a6ff8345e692c0f86e5b48e01b996cadc001622fb5e363b421",
            "nonce" : "0x0102030405060708",
            "number" : "0x00",
            "parentHash" : "0x0000000000000000000000000000000000000000000000000000000000000000",
            "receiptTrie" : "0x56e81f171bcc55a6ff8345e692c0f86e5b48e01b996cadc001622fb5e363b421",
            "stateRoot" : "0x009eac12fad0a21887d19514dea3d9b6ffd0fa031cf3d7b3dfb581ece4167b11",
            "timestamp" : "0x03b6",
            "transactionsTrie" : "0x56e81f171bcc55a6ff8345e692c0f86e5b48e01b996cadc001622fb5e363b421",
            "uncleHash" : "0x1dcc4de8dec75d7aab85b567b6ccd41ad312451b948a7413f0a142fd40d49347"
        },
        "genesisRLP" : "0xf901faf901f5a00000000000000000000000000000000000000000000000000000000000000000a01dcc4de8dec75d7aab85b567b6ccd41ad312451b948a7413f0a142fd40d49347942adc25665018aa1fe0e6bc666dac8fc2697ff9baa0009eac12fad0a21887d19514dea3d9b6ffd0fa031cf3d7b3dfb581ece4167b11a056e81f171bcc55a6ff8345e692c0f86e5b48e01b996cadc001622fb5e363b421a056e81f171bcc55a6ff8345e692c0f86e5b48e01b996cadc001622fb5e363b421b9010000000000000000000000000000000000000000000000000000000000000000000000000000000000000000000000000000000000000000000000000000000000000000000000000000000000000000000000000000000000000000000000000000000000000000000000000000000000000000000000000000000000000000000000000000000000000000000000000000000000000000000000000000000000000000000000000000000000000000000000000000000000000000000000000000000000000000000000000000000000000000000000000000000000000000000000000000000000000000000000000000000000000000000000000000000000830200008083989680808203b642a056e81f171bcc55a6ff8345e692c0f86e5b48e01b996cadc001622fb5e363b421880102030405060708c0c0",
        "lastblockhash" : "0xdf910c36c1fb2797e521c3d621319f9c409b8c7cf7f0a55241ec33a841377982",
        "network" : "Frontier",
        "postState" : {
            "0x094f5374fce5edbc8e2a8697c15331677e6ebf0b" : {
                "balance" : "0x01",
                "code" : "0x6000600060006000600060003561ea60f1600a55",
                "nonce" : "0x00",
                "storage" : {
                }
            },
            "0x2adc25665018aa1fe0e6bc666dac8fc2697ff9ba" : {
                "balance" : "0x4563918244f509a0",
                "code" : "",
                "nonce" : "0x00",
                "storage" : {
                }
            },
            "0xa94f5374fce5edbc8e2a8697c15331677e6ebf0b" : {
                "balance" : "0xe8d4a40660",
                "code" : "",
                "nonce" : "0x01",
                "storage" : {
                }
            },
            "0xb94f5374fce5edbc8e2a8697c15331677e6ebf0b" : {
                "balance" : "0x01",
                "code" : "0x6000600060006000600073c94f5374fce5edbc8e2a8697c15331677e6ebf0b61c350f1600055600e600255",
                "nonce" : "0x00",
                "storage" : {
                }
            },
            "0xc94f5374fce5edbc8e2a8697c15331677e6ebf0b" : {
                "balance" : "0x01",
                "code" : "0x600c60015560016000fd600d600355",
                "nonce" : "0x00",
                "storage" : {
                }
            }
        },
        "pre" : {
            "0x094f5374fce5edbc8e2a8697c15331677e6ebf0b" : {
                "balance" : "0x01",
                "code" : "0x6000600060006000600060003561ea60f1600a55",
                "nonce" : "0x00",
                "storage" : {
                }
            },
            "0xa94f5374fce5edbc8e2a8697c15331677e6ebf0b" : {
                "balance" : "0xe8d4a51000",
                "code" : "",
                "nonce" : "0x00",
                "storage" : {
                }
            },
            "0xb94f5374fce5edbc8e2a8697c15331677e6ebf0b" : {
                "balance" : "0x01",
                "code" : "0x6000600060006000600073c94f5374fce5edbc8e2a8697c15331677e6ebf0b61c350f1600055600e600255",
                "nonce" : "0x00",
                "storage" : {
                }
            },
            "0xc94f5374fce5edbc8e2a8697c15331677e6ebf0b" : {
                "balance" : "0x01",
                "code" : "0x600c60015560016000fd600d600355",
                "nonce" : "0x00",
                "storage" : {
                }
            }
        }
    },
    "RevertOpcodeDirectCall_d0g1v0_Homestead" : {
        "_info" : {
            "comment" : "",
            "filledwith" : "cpp-1.3.0+commit.e5cf5910.Linux.g++",
            "lllcversion" : "Version: 0.4.18-develop.2017.9.25+commit.a72237f2.Linux.g++",
            "source" : "src/BlockchainTestsFiller/GeneralStateTests/stRevertTest/RevertOpcodeDirectCall_d0g1v0Filler.json"
        },
        "blocks" : [
            {
                "blockHeader" : {
                    "bloom" : "0x00000000000000000000000000000000000000000000000000000000000000000000000000000000000000000000000000000000000000000000000000000000000000000000000000000000000000000000000000000000000000000000000000000000000000000000000000000000000000000000000000000000000000000000000000000000000000000000000000000000000000000000000000000000000000000000000000000000000000000000000000000000000000000000000000000000000000000000000000000000000000000000000000000000000000000000000000000000000000000000000000000000000000000000000000000000",
                    "coinbase" : "0x2adc25665018aa1fe0e6bc666dac8fc2697ff9ba",
                    "difficulty" : "0x020000",
                    "extraData" : "",
                    "gasLimit" : "0x989680",
                    "gasUsed" : "0x0109a0",
                    "hash" : "0x7c6d4f4a222956456950468f649528f242a7ecc381fdda73059c0c7cc76682b9",
                    "mixHash" : "0xa3d6e9ad828b2659ba35195a5ff438337606d6b86533b04dd70de178f134caa8",
                    "nonce" : "0xd700a028f886501a",
                    "number" : "0x01",
                    "parentHash" : "0x48b5f8772649f2b76c6f4b354c44447958eabd2be6a11ca9d3da8d98133599e9",
                    "receiptTrie" : "0xf5718fbf61b52401f67ab44fbc2ae82f4150f479668ff88c075278814e990d35",
                    "stateRoot" : "0x52849aa4ee8ff2178656caaa5405ce13cd1c6c8feac508fdedea119bf6eba59c",
                    "timestamp" : "0x03e8",
                    "transactionsTrie" : "0x8f24e0c5dc86996e9ed5034cca996ceb7b6044fbb1effbc59bb00aad9788a521",
                    "uncleHash" : "0x1dcc4de8dec75d7aab85b567b6ccd41ad312451b948a7413f0a142fd40d49347"
                },
                "rlp" : "0xf90280f901f8a048b5f8772649f2b76c6f4b354c44447958eabd2be6a11ca9d3da8d98133599e9a01dcc4de8dec75d7aab85b567b6ccd41ad312451b948a7413f0a142fd40d49347942adc25665018aa1fe0e6bc666dac8fc2697ff9baa052849aa4ee8ff2178656caaa5405ce13cd1c6c8feac508fdedea119bf6eba59ca08f24e0c5dc86996e9ed5034cca996ceb7b6044fbb1effbc59bb00aad9788a521a0f5718fbf61b52401f67ab44fbc2ae82f4150f479668ff88c075278814e990d35b9010000000000000000000000000000000000000000000000000000000000000000000000000000000000000000000000000000000000000000000000000000000000000000000000000000000000000000000000000000000000000000000000000000000000000000000000000000000000000000000000000000000000000000000000000000000000000000000000000000000000000000000000000000000000000000000000000000000000000000000000000000000000000000000000000000000000000000000000000000000000000000000000000000000000000000000000000000000000000000000000000000000000000000000000000000000000830200000183989680830109a08203e880a0a3d6e9ad828b2659ba35195a5ff438337606d6b86533b04dd70de178f134caa888d700a028f886501af882f8808001830109a094b94f5374fce5edbc8e2a8697c15331677e6ebf0b80a0000000000000000000000000b94f5374fce5edbc8e2a8697c15331677e6ebf0b1ca061d2fa757acaa2f6adf2f80ab8796847ed36ab3cd5832d570ba58887ef3203e8a02f36e284cdc7a7dce6cef630c9dacaac36b041ad4ef7f5c693de4593ae9c286ac0",
                "transactions" : [
                    {
                        "data" : "0x000000000000000000000000b94f5374fce5edbc8e2a8697c15331677e6ebf0b",
                        "gasLimit" : "0x0109a0",
                        "gasPrice" : "0x01",
                        "nonce" : "0x00",
                        "r" : "0x61d2fa757acaa2f6adf2f80ab8796847ed36ab3cd5832d570ba58887ef3203e8",
                        "s" : "0x2f36e284cdc7a7dce6cef630c9dacaac36b041ad4ef7f5c693de4593ae9c286a",
                        "to" : "0xb94f5374fce5edbc8e2a8697c15331677e6ebf0b",
                        "v" : "0x1c",
                        "value" : "0x00"
                    }
                ],
                "uncleHeaders" : [
                ]
            }
        ],
        "genesisBlockHeader" : {
            "bloom" : "0x00000000000000000000000000000000000000000000000000000000000000000000000000000000000000000000000000000000000000000000000000000000000000000000000000000000000000000000000000000000000000000000000000000000000000000000000000000000000000000000000000000000000000000000000000000000000000000000000000000000000000000000000000000000000000000000000000000000000000000000000000000000000000000000000000000000000000000000000000000000000000000000000000000000000000000000000000000000000000000000000000000000000000000000000000000000",
            "coinbase" : "0x2adc25665018aa1fe0e6bc666dac8fc2697ff9ba",
            "difficulty" : "0x020000",
            "extraData" : "0x42",
            "gasLimit" : "0x989680",
            "gasUsed" : "0x00",
            "hash" : "0x48b5f8772649f2b76c6f4b354c44447958eabd2be6a11ca9d3da8d98133599e9",
            "mixHash" : "0x56e81f171bcc55a6ff8345e692c0f86e5b48e01b996cadc001622fb5e363b421",
            "nonce" : "0x0102030405060708",
            "number" : "0x00",
            "parentHash" : "0x0000000000000000000000000000000000000000000000000000000000000000",
            "receiptTrie" : "0x56e81f171bcc55a6ff8345e692c0f86e5b48e01b996cadc001622fb5e363b421",
            "stateRoot" : "0x009eac12fad0a21887d19514dea3d9b6ffd0fa031cf3d7b3dfb581ece4167b11",
            "timestamp" : "0x03b6",
            "transactionsTrie" : "0x56e81f171bcc55a6ff8345e692c0f86e5b48e01b996cadc001622fb5e363b421",
            "uncleHash" : "0x1dcc4de8dec75d7aab85b567b6ccd41ad312451b948a7413f0a142fd40d49347"
        },
        "genesisRLP" : "0xf901faf901f5a00000000000000000000000000000000000000000000000000000000000000000a01dcc4de8dec75d7aab85b567b6ccd41ad312451b948a7413f0a142fd40d49347942adc25665018aa1fe0e6bc666dac8fc2697ff9baa0009eac12fad0a21887d19514dea3d9b6ffd0fa031cf3d7b3dfb581ece4167b11a056e81f171bcc55a6ff8345e692c0f86e5b48e01b996cadc001622fb5e363b421a056e81f171bcc55a6ff8345e692c0f86e5b48e01b996cadc001622fb5e363b421b9010000000000000000000000000000000000000000000000000000000000000000000000000000000000000000000000000000000000000000000000000000000000000000000000000000000000000000000000000000000000000000000000000000000000000000000000000000000000000000000000000000000000000000000000000000000000000000000000000000000000000000000000000000000000000000000000000000000000000000000000000000000000000000000000000000000000000000000000000000000000000000000000000000000000000000000000000000000000000000000000000000000000000000000000000000000000830200008083989680808203b642a056e81f171bcc55a6ff8345e692c0f86e5b48e01b996cadc001622fb5e363b421880102030405060708c0c0",
        "lastblockhash" : "0x7c6d4f4a222956456950468f649528f242a7ecc381fdda73059c0c7cc76682b9",
        "network" : "Homestead",
        "postState" : {
            "0x094f5374fce5edbc8e2a8697c15331677e6ebf0b" : {
                "balance" : "0x01",
                "code" : "0x6000600060006000600060003561ea60f1600a55",
                "nonce" : "0x00",
                "storage" : {
                }
            },
            "0x2adc25665018aa1fe0e6bc666dac8fc2697ff9ba" : {
                "balance" : "0x4563918244f509a0",
                "code" : "",
                "nonce" : "0x00",
                "storage" : {
                }
            },
            "0xa94f5374fce5edbc8e2a8697c15331677e6ebf0b" : {
                "balance" : "0xe8d4a40660",
                "code" : "",
                "nonce" : "0x01",
                "storage" : {
                }
            },
            "0xb94f5374fce5edbc8e2a8697c15331677e6ebf0b" : {
                "balance" : "0x01",
                "code" : "0x6000600060006000600073c94f5374fce5edbc8e2a8697c15331677e6ebf0b61c350f1600055600e600255",
                "nonce" : "0x00",
                "storage" : {
                }
            },
            "0xc94f5374fce5edbc8e2a8697c15331677e6ebf0b" : {
                "balance" : "0x01",
                "code" : "0x600c60015560016000fd600d600355",
                "nonce" : "0x00",
                "storage" : {
                }
            }
        },
        "pre" : {
            "0x094f5374fce5edbc8e2a8697c15331677e6ebf0b" : {
                "balance" : "0x01",
                "code" : "0x6000600060006000600060003561ea60f1600a55",
                "nonce" : "0x00",
                "storage" : {
                }
            },
            "0xa94f5374fce5edbc8e2a8697c15331677e6ebf0b" : {
                "balance" : "0xe8d4a51000",
                "code" : "",
                "nonce" : "0x00",
                "storage" : {
                }
            },
            "0xb94f5374fce5edbc8e2a8697c15331677e6ebf0b" : {
                "balance" : "0x01",
                "code" : "0x6000600060006000600073c94f5374fce5edbc8e2a8697c15331677e6ebf0b61c350f1600055600e600255",
                "nonce" : "0x00",
                "storage" : {
                }
            },
            "0xc94f5374fce5edbc8e2a8697c15331677e6ebf0b" : {
                "balance" : "0x01",
                "code" : "0x600c60015560016000fd600d600355",
                "nonce" : "0x00",
                "storage" : {
                }
            }
        }
    }
}