{
    "RevertDepthCreateOOG_d1g1v0_Byzantium" : {
        "_info" : {
            "comment" : "",
            "filledwith" : "cpp-1.3.0+commit.e5cf5910.Linux.g++",
            "lllcversion" : "Version: 0.4.18-develop.2017.9.25+commit.a72237f2.Linux.g++",
            "source" : "src/BlockchainTestsFiller/GeneralStateTests/stRevertTest/RevertDepthCreateOOG_d1g1v0Filler.json"
        },
        "blocks" : [
            {
                "blockHeader" : {
                    "bloom" : "0x00000000000000000000000000000000000000000000000000000000000000000000000000000000000000000000000000000000000000000000000000000000000000000000000000000000000000000000000000000000000000000000000000000000000000000000000000000000000000000000000000000000000000000000000000000000000000000000000000000000000000000000000000000000000000000000000000000000000000000000000000000000000000000000000000000000000000000000000000000000000000000000000000000000000000000000000000000000000000000000000000000000000000000000000000000000",
                    "coinbase" : "0x2adc25665018aa1fe0e6bc666dac8fc2697ff9ba",
                    "difficulty" : "0x020000",
                    "extraData" : "",
                    "gasLimit" : "0x989680",
                    "gasUsed" : "0x0259e2",
                    "hash" : "0xeedd0c1f4df2563cc58bcabcba478f2b179beb3bdb6557c4e96bda14a67ba991",
                    "mixHash" : "0xb4b0ada2edd7ceb433379a370b3b9c7af0fdce2679f47f5e4f9c36172c9fd691",
                    "nonce" : "0x4438f5a351f86e2d",
                    "number" : "0x01",
                    "parentHash" : "0x8743d6698accee1630990d042b3ca26d8e4f8b159f79a80423f97b9bd0f7e0d0",
                    "receiptTrie" : "0x1e4134e4cb2f1fe1fd6582225bcf81c6a06f48432112f70c794cc859d39fa735",
                    "stateRoot" : "0x72b81459e1110f7dc733ed60d4e36c086b2e9d30918ca2dcb94cdc03528d9860",
                    "timestamp" : "0x03e8",
                    "transactionsTrie" : "0x5bd7c5e4bbfe38bf34547d64dc228171037602f027519a1dfb5e49645648cb7f",
                    "uncleHash" : "0x1dcc4de8dec75d7aab85b567b6ccd41ad312451b948a7413f0a142fd40d49347"
                },
                "rlp" : "0xf90280f901f8a08743d6698accee1630990d042b3ca26d8e4f8b159f79a80423f97b9bd0f7e0d0a01dcc4de8dec75d7aab85b567b6ccd41ad312451b948a7413f0a142fd40d49347942adc25665018aa1fe0e6bc666dac8fc2697ff9baa072b81459e1110f7dc733ed60d4e36c086b2e9d30918ca2dcb94cdc03528d9860a05bd7c5e4bbfe38bf34547d64dc228171037602f027519a1dfb5e49645648cb7fa01e4134e4cb2f1fe1fd6582225bcf81c6a06f48432112f70c794cc859d39fa735b9010000000000000000000000000000000000000000000000000000000000000000000000000000000000000000000000000000000000000000000000000000000000000000000000000000000000000000000000000000000000000000000000000000000000000000000000000000000000000000000000000000000000000000000000000000000000000000000000000000000000000000000000000000000000000000000000000000000000000000000000000000000000000000000000000000000000000000000000000000000000000000000000000000000000000000000000000000000000000000000000000000000000000000000000000000000000830200000183989680830259e28203e880a0b4b0ada2edd7ceb433379a370b3b9c7af0fdce2679f47f5e4f9c36172c9fd691884438f5a351f86e2df882f88080018302710094a00000000000000000000000000000000000000001a0000000000000000000000000000000000000000000000000000000000001ea601ca06abcc24a73e8c086ceac2e7390723203706e53aa49f5fb02fca5a7030a98d1d8a00767a5bd2c4b3fac4eaf3bcb4a831ee717ec34e1b763df99cf11d4c298a0e9dfc0",
                "transactions" : [
                    {
                        "data" : "0x000000000000000000000000000000000000000000000000000000000001ea60",
                        "gasLimit" : "0x027100",
                        "gasPrice" : "0x01",
                        "nonce" : "0x00",
                        "r" : "0x6abcc24a73e8c086ceac2e7390723203706e53aa49f5fb02fca5a7030a98d1d8",
                        "s" : "0x0767a5bd2c4b3fac4eaf3bcb4a831ee717ec34e1b763df99cf11d4c298a0e9df",
                        "to" : "0xa000000000000000000000000000000000000000",
                        "v" : "0x1c",
                        "value" : "0x01"
                    }
                ],
                "uncleHeaders" : [
                ]
            }
        ],
        "genesisBlockHeader" : {
            "bloom" : "0x00000000000000000000000000000000000000000000000000000000000000000000000000000000000000000000000000000000000000000000000000000000000000000000000000000000000000000000000000000000000000000000000000000000000000000000000000000000000000000000000000000000000000000000000000000000000000000000000000000000000000000000000000000000000000000000000000000000000000000000000000000000000000000000000000000000000000000000000000000000000000000000000000000000000000000000000000000000000000000000000000000000000000000000000000000000",
            "coinbase" : "0x2adc25665018aa1fe0e6bc666dac8fc2697ff9ba",
            "difficulty" : "0x020000",
            "extraData" : "0x42",
            "gasLimit" : "0x989680",
            "gasUsed" : "0x00",
            "hash" : "0x8743d6698accee1630990d042b3ca26d8e4f8b159f79a80423f97b9bd0f7e0d0",
            "mixHash" : "0x56e81f171bcc55a6ff8345e692c0f86e5b48e01b996cadc001622fb5e363b421",
            "nonce" : "0x0102030405060708",
            "number" : "0x00",
            "parentHash" : "0x0000000000000000000000000000000000000000000000000000000000000000",
            "receiptTrie" : "0x56e81f171bcc55a6ff8345e692c0f86e5b48e01b996cadc001622fb5e363b421",
            "stateRoot" : "0x5eb464647e12f6457b3ffea1459c38cb1eb63c4472470ff8ff49adb0563692d6",
            "timestamp" : "0x03b6",
            "transactionsTrie" : "0x56e81f171bcc55a6ff8345e692c0f86e5b48e01b996cadc001622fb5e363b421",
            "uncleHash" : "0x1dcc4de8dec75d7aab85b567b6ccd41ad312451b948a7413f0a142fd40d49347"
        },
        "genesisRLP" : "0xf901faf901f5a00000000000000000000000000000000000000000000000000000000000000000a01dcc4de8dec75d7aab85b567b6ccd41ad312451b948a7413f0a142fd40d49347942adc25665018aa1fe0e6bc666dac8fc2697ff9baa05eb464647e12f6457b3ffea1459c38cb1eb63c4472470ff8ff49adb0563692d6a056e81f171bcc55a6ff8345e692c0f86e5b48e01b996cadc001622fb5e363b421a056e81f171bcc55a6ff8345e692c0f86e5b48e01b996cadc001622fb5e363b421b9010000000000000000000000000000000000000000000000000000000000000000000000000000000000000000000000000000000000000000000000000000000000000000000000000000000000000000000000000000000000000000000000000000000000000000000000000000000000000000000000000000000000000000000000000000000000000000000000000000000000000000000000000000000000000000000000000000000000000000000000000000000000000000000000000000000000000000000000000000000000000000000000000000000000000000000000000000000000000000000000000000000000000000000000000000000000830200008083989680808203b642a056e81f171bcc55a6ff8345e692c0f86e5b48e01b996cadc001622fb5e363b421880102030405060708c0c0",
        "lastblockhash" : "0xeedd0c1f4df2563cc58bcabcba478f2b179beb3bdb6557c4e96bda14a67ba991",
        "network" : "Byzantium",
        "postState" : {
            "0x2adc25665018aa1fe0e6bc666dac8fc2697ff9ba" : {
                "balance" : "0x29a2241af62e59e2",
                "code" : "",
                "nonce" : "0x00",
                "storage" : {
                }
            },
            "0x3e180b1862f9d158abb5e519a6d8605540c23682" : {
                "balance" : "0x00",
                "code" : "",
                "nonce" : "0x01",
                "storage" : {
                }
            },
            "0xa000000000000000000000000000000000000000" : {
                "balance" : "0x06",
                "code" : "0x60016000556000600060006000600073b000000000000000000000000000000000000000600035f1600155600c600455",
                "nonce" : "0x36",
                "storage" : {
                    "0x00" : "0x01",
                    "0x01" : "0x01",
                    "0x04" : "0x0c"
                }
            },
            "0xa94f5374fce5edbc8e2a8697c15331677e6ebf0b" : {
                "balance" : "0xe8d4a2b61d",
                "code" : "",
                "nonce" : "0x01",
                "storage" : {
                }
            },
            "0xb000000000000000000000000000000000000000" : {
                "balance" : "0x00",
                "code" : "0x6008600255600060006000f050600c600355",
                "nonce" : "0x01",
                "storage" : {
                    "0x02" : "0x08",
                    "0x03" : "0x0c"
                }
            }
        },
        "pre" : {
            "0xa000000000000000000000000000000000000000" : {
                "balance" : "0x05",
                "code" : "0x60016000556000600060006000600073b000000000000000000000000000000000000000600035f1600155600c600455",
                "nonce" : "0x36",
                "storage" : {
                }
            },
            "0xa94f5374fce5edbc8e2a8697c15331677e6ebf0b" : {
                "balance" : "0xe8d4a51000",
                "code" : "",
                "nonce" : "0x00",
                "storage" : {
                }
            },
            "0xb000000000000000000000000000000000000000" : {
                "balance" : "0x00",
                "code" : "0x6008600255600060006000f050600c600355",
                "nonce" : "0x00",
                "storage" : {
                }
            }
        }
    },
    "RevertDepthCreateOOG_d1g1v0_EIP150" : {
        "_info" : {
            "comment" : "",
            "filledwith" : "cpp-1.3.0+commit.e5cf5910.Linux.g++",
            "lllcversion" : "Version: 0.4.18-develop.2017.9.25+commit.a72237f2.Linux.g++",
            "source" : "src/BlockchainTestsFiller/GeneralStateTests/stRevertTest/RevertDepthCreateOOG_d1g1v0Filler.json"
        },
        "blocks" : [
            {
                "blockHeader" : {
                    "bloom" : "0x00000000000000000000000000000000000000000000000000000000000000000000000000000000000000000000000000000000000000000000000000000000000000000000000000000000000000000000000000000000000000000000000000000000000000000000000000000000000000000000000000000000000000000000000000000000000000000000000000000000000000000000000000000000000000000000000000000000000000000000000000000000000000000000000000000000000000000000000000000000000000000000000000000000000000000000000000000000000000000000000000000000000000000000000000000000",
                    "coinbase" : "0x2adc25665018aa1fe0e6bc666dac8fc2697ff9ba",
                    "difficulty" : "0x020000",
                    "extraData" : "",
                    "gasLimit" : "0x989680",
                    "gasUsed" : "0x0259e2",
                    "hash" : "0xc13e477c96ca805448bc7d26b57b23246f3ea6f3b2ae6477b74c87bcec287c2a",
                    "mixHash" : "0xcf10645c52347c20feb524d6197e5bce64dde5848959e5baf3f36f71017e5e92",
                    "nonce" : "0x7bf3428588c7dc74",
                    "number" : "0x01",
                    "parentHash" : "0x8743d6698accee1630990d042b3ca26d8e4f8b159f79a80423f97b9bd0f7e0d0",
                    "receiptTrie" : "0x018e234a054d1875b545397b1c1b9e86bd3c0f9dc559db444017d3d151639d46",
                    "stateRoot" : "0x4b40a85e25d7860f8e76ba408eebc9dad2c9b2cc04792988e4311b7c43f6e7a9",
                    "timestamp" : "0x03e8",
                    "transactionsTrie" : "0x5bd7c5e4bbfe38bf34547d64dc228171037602f027519a1dfb5e49645648cb7f",
                    "uncleHash" : "0x1dcc4de8dec75d7aab85b567b6ccd41ad312451b948a7413f0a142fd40d49347"
                },
                "rlp" : "0xf90280f901f8a08743d6698accee1630990d042b3ca26d8e4f8b159f79a80423f97b9bd0f7e0d0a01dcc4de8dec75d7aab85b567b6ccd41ad312451b948a7413f0a142fd40d49347942adc25665018aa1fe0e6bc666dac8fc2697ff9baa04b40a85e25d7860f8e76ba408eebc9dad2c9b2cc04792988e4311b7c43f6e7a9a05bd7c5e4bbfe38bf34547d64dc228171037602f027519a1dfb5e49645648cb7fa0018e234a054d1875b545397b1c1b9e86bd3c0f9dc559db444017d3d151639d46b9010000000000000000000000000000000000000000000000000000000000000000000000000000000000000000000000000000000000000000000000000000000000000000000000000000000000000000000000000000000000000000000000000000000000000000000000000000000000000000000000000000000000000000000000000000000000000000000000000000000000000000000000000000000000000000000000000000000000000000000000000000000000000000000000000000000000000000000000000000000000000000000000000000000000000000000000000000000000000000000000000000000000000000000000000000000000830200000183989680830259e28203e880a0cf10645c52347c20feb524d6197e5bce64dde5848959e5baf3f36f71017e5e92887bf3428588c7dc74f882f88080018302710094a00000000000000000000000000000000000000001a0000000000000000000000000000000000000000000000000000000000001ea601ca06abcc24a73e8c086ceac2e7390723203706e53aa49f5fb02fca5a7030a98d1d8a00767a5bd2c4b3fac4eaf3bcb4a831ee717ec34e1b763df99cf11d4c298a0e9dfc0",
                "transactions" : [
                    {
                        "data" : "0x000000000000000000000000000000000000000000000000000000000001ea60",
                        "gasLimit" : "0x027100",
                        "gasPrice" : "0x01",
                        "nonce" : "0x00",
                        "r" : "0x6abcc24a73e8c086ceac2e7390723203706e53aa49f5fb02fca5a7030a98d1d8",
                        "s" : "0x0767a5bd2c4b3fac4eaf3bcb4a831ee717ec34e1b763df99cf11d4c298a0e9df",
                        "to" : "0xa000000000000000000000000000000000000000",
                        "v" : "0x1c",
                        "value" : "0x01"
                    }
                ],
                "uncleHeaders" : [
                ]
            }
        ],
        "genesisBlockHeader" : {
            "bloom" : "0x00000000000000000000000000000000000000000000000000000000000000000000000000000000000000000000000000000000000000000000000000000000000000000000000000000000000000000000000000000000000000000000000000000000000000000000000000000000000000000000000000000000000000000000000000000000000000000000000000000000000000000000000000000000000000000000000000000000000000000000000000000000000000000000000000000000000000000000000000000000000000000000000000000000000000000000000000000000000000000000000000000000000000000000000000000000",
            "coinbase" : "0x2adc25665018aa1fe0e6bc666dac8fc2697ff9ba",
            "difficulty" : "0x020000",
            "extraData" : "0x42",
            "gasLimit" : "0x989680",
            "gasUsed" : "0x00",
            "hash" : "0x8743d6698accee1630990d042b3ca26d8e4f8b159f79a80423f97b9bd0f7e0d0",
            "mixHash" : "0x56e81f171bcc55a6ff8345e692c0f86e5b48e01b996cadc001622fb5e363b421",
            "nonce" : "0x0102030405060708",
            "number" : "0x00",
            "parentHash" : "0x0000000000000000000000000000000000000000000000000000000000000000",
            "receiptTrie" : "0x56e81f171bcc55a6ff8345e692c0f86e5b48e01b996cadc001622fb5e363b421",
            "stateRoot" : "0x5eb464647e12f6457b3ffea1459c38cb1eb63c4472470ff8ff49adb0563692d6",
            "timestamp" : "0x03b6",
            "transactionsTrie" : "0x56e81f171bcc55a6ff8345e692c0f86e5b48e01b996cadc001622fb5e363b421",
            "uncleHash" : "0x1dcc4de8dec75d7aab85b567b6ccd41ad312451b948a7413f0a142fd40d49347"
        },
        "genesisRLP" : "0xf901faf901f5a00000000000000000000000000000000000000000000000000000000000000000a01dcc4de8dec75d7aab85b567b6ccd41ad312451b948a7413f0a142fd40d49347942adc25665018aa1fe0e6bc666dac8fc2697ff9baa05eb464647e12f6457b3ffea1459c38cb1eb63c4472470ff8ff49adb0563692d6a056e81f171bcc55a6ff8345e692c0f86e5b48e01b996cadc001622fb5e363b421a056e81f171bcc55a6ff8345e692c0f86e5b48e01b996cadc001622fb5e363b421b9010000000000000000000000000000000000000000000000000000000000000000000000000000000000000000000000000000000000000000000000000000000000000000000000000000000000000000000000000000000000000000000000000000000000000000000000000000000000000000000000000000000000000000000000000000000000000000000000000000000000000000000000000000000000000000000000000000000000000000000000000000000000000000000000000000000000000000000000000000000000000000000000000000000000000000000000000000000000000000000000000000000000000000000000000000000000830200008083989680808203b642a056e81f171bcc55a6ff8345e692c0f86e5b48e01b996cadc001622fb5e363b421880102030405060708c0c0",
        "lastblockhash" : "0xc13e477c96ca805448bc7d26b57b23246f3ea6f3b2ae6477b74c87bcec287c2a",
        "network" : "EIP150",
        "postState" : {
            "0x2adc25665018aa1fe0e6bc666dac8fc2697ff9ba" : {
                "balance" : "0x4563918244f659e2",
                "code" : "",
                "nonce" : "0x00",
                "storage" : {
                }
            },
            "0x3e180b1862f9d158abb5e519a6d8605540c23682" : {
                "balance" : "0x00",
                "code" : "",
                "nonce" : "0x00",
                "storage" : {
                }
            },
            "0xa000000000000000000000000000000000000000" : {
                "balance" : "0x06",
                "code" : "0x60016000556000600060006000600073b000000000000000000000000000000000000000600035f1600155600c600455",
                "nonce" : "0x36",
                "storage" : {
                    "0x00" : "0x01",
                    "0x01" : "0x01",
                    "0x04" : "0x0c"
                }
            },
            "0xa94f5374fce5edbc8e2a8697c15331677e6ebf0b" : {
                "balance" : "0xe8d4a2b61d",
                "code" : "",
                "nonce" : "0x01",
                "storage" : {
                }
            },
            "0xb000000000000000000000000000000000000000" : {
                "balance" : "0x00",
                "code" : "0x6008600255600060006000f050600c600355",
                "nonce" : "0x01",
                "storage" : {
                    "0x02" : "0x08",
                    "0x03" : "0x0c"
                }
            }
        },
        "pre" : {
            "0xa000000000000000000000000000000000000000" : {
                "balance" : "0x05",
                "code" : "0x60016000556000600060006000600073b000000000000000000000000000000000000000600035f1600155600c600455",
                "nonce" : "0x36",
                "storage" : {
                }
            },
            "0xa94f5374fce5edbc8e2a8697c15331677e6ebf0b" : {
                "balance" : "0xe8d4a51000",
                "code" : "",
                "nonce" : "0x00",
                "storage" : {
                }
            },
            "0xb000000000000000000000000000000000000000" : {
                "balance" : "0x00",
                "code" : "0x6008600255600060006000f050600c600355",
                "nonce" : "0x00",
                "storage" : {
                }
            }
        }
    },
    "RevertDepthCreateOOG_d1g1v0_EIP158" : {
        "_info" : {
            "comment" : "",
            "filledwith" : "cpp-1.3.0+commit.e5cf5910.Linux.g++",
            "lllcversion" : "Version: 0.4.18-develop.2017.9.25+commit.a72237f2.Linux.g++",
            "source" : "src/BlockchainTestsFiller/GeneralStateTests/stRevertTest/RevertDepthCreateOOG_d1g1v0Filler.json"
        },
        "blocks" : [
            {
                "blockHeader" : {
                    "bloom" : "0x00000000000000000000000000000000000000000000000000000000000000000000000000000000000000000000000000000000000000000000000000000000000000000000000000000000000000000000000000000000000000000000000000000000000000000000000000000000000000000000000000000000000000000000000000000000000000000000000000000000000000000000000000000000000000000000000000000000000000000000000000000000000000000000000000000000000000000000000000000000000000000000000000000000000000000000000000000000000000000000000000000000000000000000000000000000",
                    "coinbase" : "0x2adc25665018aa1fe0e6bc666dac8fc2697ff9ba",
                    "difficulty" : "0x020000",
                    "extraData" : "",
                    "gasLimit" : "0x989680",
                    "gasUsed" : "0x0259e2",
                    "hash" : "0x4e7167b871bd20656ea9901d6d8ba2efeb1310582cdcb4a068e13cb8722d0986",
                    "mixHash" : "0xd4a6cbc875b85275afa28b4b2420f50151417f8759d576b60d0f8e3de77efcde",
                    "nonce" : "0x19814f89f48a482c",
                    "number" : "0x01",
                    "parentHash" : "0x8743d6698accee1630990d042b3ca26d8e4f8b159f79a80423f97b9bd0f7e0d0",
                    "receiptTrie" : "0x355a12419919fe7db330b20055167d9d5b75bcd74076db3e6ea09ca7de2aaef0",
                    "stateRoot" : "0x2f94121485d7a37c6a20f4f8b2d8932f45194407efbd1258c21438ec33f7b451",
                    "timestamp" : "0x03e8",
                    "transactionsTrie" : "0x5bd7c5e4bbfe38bf34547d64dc228171037602f027519a1dfb5e49645648cb7f",
                    "uncleHash" : "0x1dcc4de8dec75d7aab85b567b6ccd41ad312451b948a7413f0a142fd40d49347"
                },
                "rlp" : "0xf90280f901f8a08743d6698accee1630990d042b3ca26d8e4f8b159f79a80423f97b9bd0f7e0d0a01dcc4de8dec75d7aab85b567b6ccd41ad312451b948a7413f0a142fd40d49347942adc25665018aa1fe0e6bc666dac8fc2697ff9baa02f94121485d7a37c6a20f4f8b2d8932f45194407efbd1258c21438ec33f7b451a05bd7c5e4bbfe38bf34547d64dc228171037602f027519a1dfb5e49645648cb7fa0355a12419919fe7db330b20055167d9d5b75bcd74076db3e6ea09ca7de2aaef0b9010000000000000000000000000000000000000000000000000000000000000000000000000000000000000000000000000000000000000000000000000000000000000000000000000000000000000000000000000000000000000000000000000000000000000000000000000000000000000000000000000000000000000000000000000000000000000000000000000000000000000000000000000000000000000000000000000000000000000000000000000000000000000000000000000000000000000000000000000000000000000000000000000000000000000000000000000000000000000000000000000000000000000000000000000000000000830200000183989680830259e28203e880a0d4a6cbc875b85275afa28b4b2420f50151417f8759d576b60d0f8e3de77efcde8819814f89f48a482cf882f88080018302710094a00000000000000000000000000000000000000001a0000000000000000000000000000000000000000000000000000000000001ea601ca06abcc24a73e8c086ceac2e7390723203706e53aa49f5fb02fca5a7030a98d1d8a00767a5bd2c4b3fac4eaf3bcb4a831ee717ec34e1b763df99cf11d4c298a0e9dfc0",
                "transactions" : [
                    {
                        "data" : "0x000000000000000000000000000000000000000000000000000000000001ea60",
                        "gasLimit" : "0x027100",
                        "gasPrice" : "0x01",
                        "nonce" : "0x00",
                        "r" : "0x6abcc24a73e8c086ceac2e7390723203706e53aa49f5fb02fca5a7030a98d1d8",
                        "s" : "0x0767a5bd2c4b3fac4eaf3bcb4a831ee717ec34e1b763df99cf11d4c298a0e9df",
                        "to" : "0xa000000000000000000000000000000000000000",
                        "v" : "0x1c",
                        "value" : "0x01"
                    }
                ],
                "uncleHeaders" : [
                ]
            }
        ],
        "genesisBlockHeader" : {
            "bloom" : "0x00000000000000000000000000000000000000000000000000000000000000000000000000000000000000000000000000000000000000000000000000000000000000000000000000000000000000000000000000000000000000000000000000000000000000000000000000000000000000000000000000000000000000000000000000000000000000000000000000000000000000000000000000000000000000000000000000000000000000000000000000000000000000000000000000000000000000000000000000000000000000000000000000000000000000000000000000000000000000000000000000000000000000000000000000000000",
            "coinbase" : "0x2adc25665018aa1fe0e6bc666dac8fc2697ff9ba",
            "difficulty" : "0x020000",
            "extraData" : "0x42",
            "gasLimit" : "0x989680",
            "gasUsed" : "0x00",
            "hash" : "0x8743d6698accee1630990d042b3ca26d8e4f8b159f79a80423f97b9bd0f7e0d0",
            "mixHash" : "0x56e81f171bcc55a6ff8345e692c0f86e5b48e01b996cadc001622fb5e363b421",
            "nonce" : "0x0102030405060708",
            "number" : "0x00",
            "parentHash" : "0x0000000000000000000000000000000000000000000000000000000000000000",
            "receiptTrie" : "0x56e81f171bcc55a6ff8345e692c0f86e5b48e01b996cadc001622fb5e363b421",
            "stateRoot" : "0x5eb464647e12f6457b3ffea1459c38cb1eb63c4472470ff8ff49adb0563692d6",
            "timestamp" : "0x03b6",
            "transactionsTrie" : "0x56e81f171bcc55a6ff8345e692c0f86e5b48e01b996cadc001622fb5e363b421",
            "uncleHash" : "0x1dcc4de8dec75d7aab85b567b6ccd41ad312451b948a7413f0a142fd40d49347"
        },
        "genesisRLP" : "0xf901faf901f5a00000000000000000000000000000000000000000000000000000000000000000a01dcc4de8dec75d7aab85b567b6ccd41ad312451b948a7413f0a142fd40d49347942adc25665018aa1fe0e6bc666dac8fc2697ff9baa05eb464647e12f6457b3ffea1459c38cb1eb63c4472470ff8ff49adb0563692d6a056e81f171bcc55a6ff8345e692c0f86e5b48e01b996cadc001622fb5e363b421a056e81f171bcc55a6ff8345e692c0f86e5b48e01b996cadc001622fb5e363b421b9010000000000000000000000000000000000000000000000000000000000000000000000000000000000000000000000000000000000000000000000000000000000000000000000000000000000000000000000000000000000000000000000000000000000000000000000000000000000000000000000000000000000000000000000000000000000000000000000000000000000000000000000000000000000000000000000000000000000000000000000000000000000000000000000000000000000000000000000000000000000000000000000000000000000000000000000000000000000000000000000000000000000000000000000000000000000830200008083989680808203b642a056e81f171bcc55a6ff8345e692c0f86e5b48e01b996cadc001622fb5e363b421880102030405060708c0c0",
        "lastblockhash" : "0x4e7167b871bd20656ea9901d6d8ba2efeb1310582cdcb4a068e13cb8722d0986",
        "network" : "EIP158",
        "postState" : {
            "0x2adc25665018aa1fe0e6bc666dac8fc2697ff9ba" : {
                "balance" : "0x4563918244f659e2",
                "code" : "",
                "nonce" : "0x00",
                "storage" : {
                }
            },
            "0x3e180b1862f9d158abb5e519a6d8605540c23682" : {
                "balance" : "0x00",
                "code" : "",
                "nonce" : "0x01",
                "storage" : {
                }
            },
            "0xa000000000000000000000000000000000000000" : {
                "balance" : "0x06",
                "code" : "0x60016000556000600060006000600073b000000000000000000000000000000000000000600035f1600155600c600455",
                "nonce" : "0x36",
                "storage" : {
                    "0x00" : "0x01",
                    "0x01" : "0x01",
                    "0x04" : "0x0c"
                }
            },
            "0xa94f5374fce5edbc8e2a8697c15331677e6ebf0b" : {
                "balance" : "0xe8d4a2b61d",
                "code" : "",
                "nonce" : "0x01",
                "storage" : {
                }
            },
            "0xb000000000000000000000000000000000000000" : {
                "balance" : "0x00",
                "code" : "0x6008600255600060006000f050600c600355",
                "nonce" : "0x01",
                "storage" : {
                    "0x02" : "0x08",
                    "0x03" : "0x0c"
                }
            }
        },
        "pre" : {
            "0xa000000000000000000000000000000000000000" : {
                "balance" : "0x05",
                "code" : "0x60016000556000600060006000600073b000000000000000000000000000000000000000600035f1600155600c600455",
                "nonce" : "0x36",
                "storage" : {
                }
            },
            "0xa94f5374fce5edbc8e2a8697c15331677e6ebf0b" : {
                "balance" : "0xe8d4a51000",
                "code" : "",
                "nonce" : "0x00",
                "storage" : {
                }
            },
            "0xb000000000000000000000000000000000000000" : {
                "balance" : "0x00",
                "code" : "0x6008600255600060006000f050600c600355",
                "nonce" : "0x00",
                "storage" : {
                }
            }
        }
    },
    "RevertDepthCreateOOG_d1g1v0_Frontier" : {
        "_info" : {
            "comment" : "",
            "filledwith" : "cpp-1.3.0+commit.e5cf5910.Linux.g++",
            "lllcversion" : "Version: 0.4.18-develop.2017.9.25+commit.a72237f2.Linux.g++",
            "source" : "src/BlockchainTestsFiller/GeneralStateTests/stRevertTest/RevertDepthCreateOOG_d1g1v0Filler.json"
        },
        "blocks" : [
            {
                "blockHeader" : {
                    "bloom" : "0x00000000000000000000000000000000000000000000000000000000000000000000000000000000000000000000000000000000000000000000000000000000000000000000000000000000000000000000000000000000000000000000000000000000000000000000000000000000000000000000000000000000000000000000000000000000000000000000000000000000000000000000000000000000000000000000000000000000000000000000000000000000000000000000000000000000000000000000000000000000000000000000000000000000000000000000000000000000000000000000000000000000000000000000000000000000",
                    "coinbase" : "0x2adc25665018aa1fe0e6bc666dac8fc2697ff9ba",
                    "difficulty" : "0x020000",
                    "extraData" : "",
                    "gasLimit" : "0x989680",
                    "gasUsed" : "0x027100",
                    "hash" : "0x8d1464c89696e2a933de56d6f4470aa3a26967665449ea046484b66dbd04b3b5",
                    "mixHash" : "0x4596cb08c09fb3d368a26a15fb67997e212c53aabed535315f48a794317c18f7",
                    "nonce" : "0xf4e1c2477c102137",
                    "number" : "0x01",
                    "parentHash" : "0x8743d6698accee1630990d042b3ca26d8e4f8b159f79a80423f97b9bd0f7e0d0",
                    "receiptTrie" : "0x7302b20be0e6be0c3ca557e680a2811ba880cb20c0c5dc97e8c50183f027bc6d",
                    "stateRoot" : "0x2b1b4d528a9b115bb5a186ca91b485ff2ef50bef0a0fe1de65c83cdd4e6b066b",
                    "timestamp" : "0x03e8",
                    "transactionsTrie" : "0x5bd7c5e4bbfe38bf34547d64dc228171037602f027519a1dfb5e49645648cb7f",
                    "uncleHash" : "0x1dcc4de8dec75d7aab85b567b6ccd41ad312451b948a7413f0a142fd40d49347"
                },
                "rlp" : "0xf90280f901f8a08743d6698accee1630990d042b3ca26d8e4f8b159f79a80423f97b9bd0f7e0d0a01dcc4de8dec75d7aab85b567b6ccd41ad312451b948a7413f0a142fd40d49347942adc25665018aa1fe0e6bc666dac8fc2697ff9baa02b1b4d528a9b115bb5a186ca91b485ff2ef50bef0a0fe1de65c83cdd4e6b066ba05bd7c5e4bbfe38bf34547d64dc228171037602f027519a1dfb5e49645648cb7fa07302b20be0e6be0c3ca557e680a2811ba880cb20c0c5dc97e8c50183f027bc6db9010000000000000000000000000000000000000000000000000000000000000000000000000000000000000000000000000000000000000000000000000000000000000000000000000000000000000000000000000000000000000000000000000000000000000000000000000000000000000000000000000000000000000000000000000000000000000000000000000000000000000000000000000000000000000000000000000000000000000000000000000000000000000000000000000000000000000000000000000000000000000000000000000000000000000000000000000000000000000000000000000000000000000000000000000000000000830200000183989680830271008203e880a04596cb08c09fb3d368a26a15fb67997e212c53aabed535315f48a794317c18f788f4e1c2477c102137f882f88080018302710094a00000000000000000000000000000000000000001a0000000000000000000000000000000000000000000000000000000000001ea601ca06abcc24a73e8c086ceac2e7390723203706e53aa49f5fb02fca5a7030a98d1d8a00767a5bd2c4b3fac4eaf3bcb4a831ee717ec34e1b763df99cf11d4c298a0e9dfc0",
                "transactions" : [
                    {
                        "data" : "0x000000000000000000000000000000000000000000000000000000000001ea60",
                        "gasLimit" : "0x027100",
                        "gasPrice" : "0x01",
                        "nonce" : "0x00",
                        "r" : "0x6abcc24a73e8c086ceac2e7390723203706e53aa49f5fb02fca5a7030a98d1d8",
                        "s" : "0x0767a5bd2c4b3fac4eaf3bcb4a831ee717ec34e1b763df99cf11d4c298a0e9df",
                        "to" : "0xa000000000000000000000000000000000000000",
                        "v" : "0x1c",
                        "value" : "0x01"
                    }
                ],
                "uncleHeaders" : [
                ]
            }
        ],
        "genesisBlockHeader" : {
            "bloom" : "0x00000000000000000000000000000000000000000000000000000000000000000000000000000000000000000000000000000000000000000000000000000000000000000000000000000000000000000000000000000000000000000000000000000000000000000000000000000000000000000000000000000000000000000000000000000000000000000000000000000000000000000000000000000000000000000000000000000000000000000000000000000000000000000000000000000000000000000000000000000000000000000000000000000000000000000000000000000000000000000000000000000000000000000000000000000000",
            "coinbase" : "0x2adc25665018aa1fe0e6bc666dac8fc2697ff9ba",
            "difficulty" : "0x020000",
            "extraData" : "0x42",
            "gasLimit" : "0x989680",
            "gasUsed" : "0x00",
            "hash" : "0x8743d6698accee1630990d042b3ca26d8e4f8b159f79a80423f97b9bd0f7e0d0",
            "mixHash" : "0x56e81f171bcc55a6ff8345e692c0f86e5b48e01b996cadc001622fb5e363b421",
            "nonce" : "0x0102030405060708",
            "number" : "0x00",
            "parentHash" : "0x0000000000000000000000000000000000000000000000000000000000000000",
            "receiptTrie" : "0x56e81f171bcc55a6ff8345e692c0f86e5b48e01b996cadc001622fb5e363b421",
            "stateRoot" : "0x5eb464647e12f6457b3ffea1459c38cb1eb63c4472470ff8ff49adb0563692d6",
            "timestamp" : "0x03b6",
            "transactionsTrie" : "0x56e81f171bcc55a6ff8345e692c0f86e5b48e01b996cadc001622fb5e363b421",
            "uncleHash" : "0x1dcc4de8dec75d7aab85b567b6ccd41ad312451b948a7413f0a142fd40d49347"
        },
        "genesisRLP" : "0xf901faf901f5a00000000000000000000000000000000000000000000000000000000000000000a01dcc4de8dec75d7aab85b567b6ccd41ad312451b948a7413f0a142fd40d49347942adc25665018aa1fe0e6bc666dac8fc2697ff9baa05eb464647e12f6457b3ffea1459c38cb1eb63c4472470ff8ff49adb0563692d6a056e81f171bcc55a6ff8345e692c0f86e5b48e01b996cadc001622fb5e363b421a056e81f171bcc55a6ff8345e692c0f86e5b48e01b996cadc001622fb5e363b421b9010000000000000000000000000000000000000000000000000000000000000000000000000000000000000000000000000000000000000000000000000000000000000000000000000000000000000000000000000000000000000000000000000000000000000000000000000000000000000000000000000000000000000000000000000000000000000000000000000000000000000000000000000000000000000000000000000000000000000000000000000000000000000000000000000000000000000000000000000000000000000000000000000000000000000000000000000000000000000000000000000000000000000000000000000000000000830200008083989680808203b642a056e81f171bcc55a6ff8345e692c0f86e5b48e01b996cadc001622fb5e363b421880102030405060708c0c0",
        "lastblockhash" : "0x8d1464c89696e2a933de56d6f4470aa3a26967665449ea046484b66dbd04b3b5",
        "network" : "Frontier",
        "postState" : {
            "0x2adc25665018aa1fe0e6bc666dac8fc2697ff9ba" : {
                "balance" : "0x4563918244f67100",
                "code" : "",
                "nonce" : "0x00",
                "storage" : {
                }
            },
            "0xa000000000000000000000000000000000000000" : {
                "balance" : "0x05",
                "code" : "0x60016000556000600060006000600073b000000000000000000000000000000000000000600035f1600155600c600455",
                "nonce" : "0x36",
                "storage" : {
                }
            },
            "0xa94f5374fce5edbc8e2a8697c15331677e6ebf0b" : {
                "balance" : "0xe8d4a29f00",
                "code" : "",
                "nonce" : "0x01",
                "storage" : {
                }
            },
            "0xb000000000000000000000000000000000000000" : {
                "balance" : "0x00",
                "code" : "0x6008600255600060006000f050600c600355",
                "nonce" : "0x00",
                "storage" : {
                }
            }
        },
        "pre" : {
            "0xa000000000000000000000000000000000000000" : {
                "balance" : "0x05",
                "code" : "0x60016000556000600060006000600073b000000000000000000000000000000000000000600035f1600155600c600455",
                "nonce" : "0x36",
                "storage" : {
                }
            },
            "0xa94f5374fce5edbc8e2a8697c15331677e6ebf0b" : {
                "balance" : "0xe8d4a51000",
                "code" : "",
                "nonce" : "0x00",
                "storage" : {
                }
            },
            "0xb000000000000000000000000000000000000000" : {
                "balance" : "0x00",
                "code" : "0x6008600255600060006000f050600c600355",
                "nonce" : "0x00",
                "storage" : {
                }
            }
        }
    },
    "RevertDepthCreateOOG_d1g1v0_Homestead" : {
        "_info" : {
            "comment" : "",
            "filledwith" : "cpp-1.3.0+commit.e5cf5910.Linux.g++",
            "lllcversion" : "Version: 0.4.18-develop.2017.9.25+commit.a72237f2.Linux.g++",
            "source" : "src/BlockchainTestsFiller/GeneralStateTests/stRevertTest/RevertDepthCreateOOG_d1g1v0Filler.json"
        },
        "blocks" : [
            {
                "blockHeader" : {
                    "bloom" : "0x00000000000000000000000000000000000000000000000000000000000000000000000000000000000000000000000000000000000000000000000000000000000000000000000000000000000000000000000000000000000000000000000000000000000000000000000000000000000000000000000000000000000000000000000000000000000000000000000000000000000000000000000000000000000000000000000000000000000000000000000000000000000000000000000000000000000000000000000000000000000000000000000000000000000000000000000000000000000000000000000000000000000000000000000000000000",
                    "coinbase" : "0x2adc25665018aa1fe0e6bc666dac8fc2697ff9ba",
                    "difficulty" : "0x020000",
                    "extraData" : "",
                    "gasLimit" : "0x989680",
                    "gasUsed" : "0x027100",
                    "hash" : "0x3dbd3875632f42725e1129e26a3d29f9b2e950bf50567aeda938599f737c48f3",
                    "mixHash" : "0xa751c6616d9ed7ec94b885ba9b68c3d2d6f996df29836852f6f11a15f728783f",
                    "nonce" : "0x17891680803301f8",
                    "number" : "0x01",
                    "parentHash" : "0x8743d6698accee1630990d042b3ca26d8e4f8b159f79a80423f97b9bd0f7e0d0",
                    "receiptTrie" : "0x7302b20be0e6be0c3ca557e680a2811ba880cb20c0c5dc97e8c50183f027bc6d",
                    "stateRoot" : "0x2b1b4d528a9b115bb5a186ca91b485ff2ef50bef0a0fe1de65c83cdd4e6b066b",
                    "timestamp" : "0x03e8",
                    "transactionsTrie" : "0x5bd7c5e4bbfe38bf34547d64dc228171037602f027519a1dfb5e49645648cb7f",
                    "uncleHash" : "0x1dcc4de8dec75d7aab85b567b6ccd41ad312451b948a7413f0a142fd40d49347"
                },
                "rlp" : "0xf90280f901f8a08743d6698accee1630990d042b3ca26d8e4f8b159f79a80423f97b9bd0f7e0d0a01dcc4de8dec75d7aab85b567b6ccd41ad312451b948a7413f0a142fd40d49347942adc25665018aa1fe0e6bc666dac8fc2697ff9baa02b1b4d528a9b115bb5a186ca91b485ff2ef50bef0a0fe1de65c83cdd4e6b066ba05bd7c5e4bbfe38bf34547d64dc228171037602f027519a1dfb5e49645648cb7fa07302b20be0e6be0c3ca557e680a2811ba880cb20c0c5dc97e8c50183f027bc6db9010000000000000000000000000000000000000000000000000000000000000000000000000000000000000000000000000000000000000000000000000000000000000000000000000000000000000000000000000000000000000000000000000000000000000000000000000000000000000000000000000000000000000000000000000000000000000000000000000000000000000000000000000000000000000000000000000000000000000000000000000000000000000000000000000000000000000000000000000000000000000000000000000000000000000000000000000000000000000000000000000000000000000000000000000000000000830200000183989680830271008203e880a0a751c6616d9ed7ec94b885ba9b68c3d2d6f996df29836852f6f11a15f728783f8817891680803301f8f882f88080018302710094a00000000000000000000000000000000000000001a0000000000000000000000000000000000000000000000000000000000001ea601ca06abcc24a73e8c086ceac2e7390723203706e53aa49f5fb02fca5a7030a98d1d8a00767a5bd2c4b3fac4eaf3bcb4a831ee717ec34e1b763df99cf11d4c298a0e9dfc0",
                "transactions" : [
                    {
                        "data" : "0x000000000000000000000000000000000000000000000000000000000001ea60",
                        "gasLimit" : "0x027100",
                        "gasPrice" : "0x01",
                        "nonce" : "0x00",
                        "r" : "0x6abcc24a73e8c086ceac2e7390723203706e53aa49f5fb02fca5a7030a98d1d8",
                        "s" : "0x0767a5bd2c4b3fac4eaf3bcb4a831ee717ec34e1b763df99cf11d4c298a0e9df",
                        "to" : "0xa000000000000000000000000000000000000000",
                        "v" : "0x1c",
                        "value" : "0x01"
                    }
                ],
                "uncleHeaders" : [
                ]
            }
        ],
        "genesisBlockHeader" : {
            "bloom" : "0x00000000000000000000000000000000000000000000000000000000000000000000000000000000000000000000000000000000000000000000000000000000000000000000000000000000000000000000000000000000000000000000000000000000000000000000000000000000000000000000000000000000000000000000000000000000000000000000000000000000000000000000000000000000000000000000000000000000000000000000000000000000000000000000000000000000000000000000000000000000000000000000000000000000000000000000000000000000000000000000000000000000000000000000000000000000",
            "coinbase" : "0x2adc25665018aa1fe0e6bc666dac8fc2697ff9ba",
            "difficulty" : "0x020000",
            "extraData" : "0x42",
            "gasLimit" : "0x989680",
            "gasUsed" : "0x00",
            "hash" : "0x8743d6698accee1630990d042b3ca26d8e4f8b159f79a80423f97b9bd0f7e0d0",
            "mixHash" : "0x56e81f171bcc55a6ff8345e692c0f86e5b48e01b996cadc001622fb5e363b421",
            "nonce" : "0x0102030405060708",
            "number" : "0x00",
            "parentHash" : "0x0000000000000000000000000000000000000000000000000000000000000000",
            "receiptTrie" : "0x56e81f171bcc55a6ff8345e692c0f86e5b48e01b996cadc001622fb5e363b421",
            "stateRoot" : "0x5eb464647e12f6457b3ffea1459c38cb1eb63c4472470ff8ff49adb0563692d6",
            "timestamp" : "0x03b6",
            "transactionsTrie" : "0x56e81f171bcc55a6ff8345e692c0f86e5b48e01b996cadc001622fb5e363b421",
            "uncleHash" : "0x1dcc4de8dec75d7aab85b567b6ccd41ad312451b948a7413f0a142fd40d49347"
        },
        "genesisRLP" : "0xf901faf901f5a00000000000000000000000000000000000000000000000000000000000000000a01dcc4de8dec75d7aab85b567b6ccd41ad312451b948a7413f0a142fd40d49347942adc25665018aa1fe0e6bc666dac8fc2697ff9baa05eb464647e12f6457b3ffea1459c38cb1eb63c4472470ff8ff49adb0563692d6a056e81f171bcc55a6ff8345e692c0f86e5b48e01b996cadc001622fb5e363b421a056e81f171bcc55a6ff8345e692c0f86e5b48e01b996cadc001622fb5e363b421b9010000000000000000000000000000000000000000000000000000000000000000000000000000000000000000000000000000000000000000000000000000000000000000000000000000000000000000000000000000000000000000000000000000000000000000000000000000000000000000000000000000000000000000000000000000000000000000000000000000000000000000000000000000000000000000000000000000000000000000000000000000000000000000000000000000000000000000000000000000000000000000000000000000000000000000000000000000000000000000000000000000000000000000000000000000000000830200008083989680808203b642a056e81f171bcc55a6ff8345e692c0f86e5b48e01b996cadc001622fb5e363b421880102030405060708c0c0",
        "lastblockhash" : "0x3dbd3875632f42725e1129e26a3d29f9b2e950bf50567aeda938599f737c48f3",
        "network" : "Homestead",
        "postState" : {
            "0x2adc25665018aa1fe0e6bc666dac8fc2697ff9ba" : {
                "balance" : "0x4563918244f67100",
                "code" : "",
                "nonce" : "0x00",
                "storage" : {
                }
            },
            "0xa000000000000000000000000000000000000000" : {
                "balance" : "0x05",
                "code" : "0x60016000556000600060006000600073b000000000000000000000000000000000000000600035f1600155600c600455",
                "nonce" : "0x36",
                "storage" : {
                }
            },
            "0xa94f5374fce5edbc8e2a8697c15331677e6ebf0b" : {
                "balance" : "0xe8d4a29f00",
                "code" : "",
                "nonce" : "0x01",
                "storage" : {
                }
            },
            "0xb000000000000000000000000000000000000000" : {
                "balance" : "0x00",
                "code" : "0x6008600255600060006000f050600c600355",
                "nonce" : "0x00",
                "storage" : {
                }
            }
        },
        "pre" : {
            "0xa000000000000000000000000000000000000000" : {
                "balance" : "0x05",
                "code" : "0x60016000556000600060006000600073b000000000000000000000000000000000000000600035f1600155600c600455",
                "nonce" : "0x36",
                "storage" : {
                }
            },
            "0xa94f5374fce5edbc8e2a8697c15331677e6ebf0b" : {
                "balance" : "0xe8d4a51000",
                "code" : "",
                "nonce" : "0x00",
                "storage" : {
                }
            },
            "0xb000000000000000000000000000000000000000" : {
                "balance" : "0x00",
                "code" : "0x6008600255600060006000f050600c600355",
                "nonce" : "0x00",
                "storage" : {
                }
            }
        }
    }
}