{
    "RevertSubCallStorageOOG_d0g0v0_EIP150" : {
        "_info" : {
            "comment" : "",
            "filledwith" : "cpp-1.3.0+commit.16292201.Linux.g++",
            "source" : "/src/GenStateTestAsBcTemp/stRevertTest/RevertSubCallStorageOOG_d0g0v0Filler.json"
        },
        "blocks" : [
            {
                "blockHeader" : {
                    "bloom" : "0x00000000000000000000000000000000000000000000000000000000000000000000000000000000000000000000000000000000000000000000000000000000000000000000000000000000000000000000000000000000000000000000000000000000000000000000000000000000000000000000000000000000000000000000000000000000000000000000000000000000000000000000000000000000000000000000000000000000000000000000000000000000000000000000000000000000000000000000000000000000000000000000000000000000000000000000000000000000000000000000000000000000000000000000000000000000",
                    "coinbase" : "0x2adc25665018aa1fe0e6bc666dac8fc2697ff9ba",
                    "difficulty" : "0x020000",
                    "extraData" : "",
                    "gasLimit" : "0x989680",
                    "gasUsed" : "0x013c68",
                    "hash" : "0x7d2a8d43f8f700b5acccc25256f548f670158e854333b9f073c38666f79d0ed4",
                    "mixHash" : "0xd4d343cc7b7e80517c8f4af0545c87c3f8d687e261454520a59fdd984af80983",
                    "nonce" : "0x51ec4484a611396c",
                    "number" : "0x01",
                    "parentHash" : "0x38eca8f5e513e3f1622fde552380decf77ccf1ac9607d7ff85e4b17b0931d195",
                    "receiptTrie" : "0x55247fde6ad7eef3cb39626b54cf7f70346484f026cef5a0c395286b0e094d1f",
                    "stateRoot" : "0x890df59bc72ca0e5ae73c11835db96e65144a5a7d7127891cbe6249d81ada10d",
                    "timestamp" : "0x03e8",
                    "transactionsTrie" : "0x699077c1219907b6d097942f9911f0abd918edf1276ce80f7db7661700305cda",
                    "uncleHash" : "0x1dcc4de8dec75d7aab85b567b6ccd41ad312451b948a7413f0a142fd40d49347"
                },
                "rlp" : "0xf90264f901f8a038eca8f5e513e3f1622fde552380decf77ccf1ac9607d7ff85e4b17b0931d195a01dcc4de8dec75d7aab85b567b6ccd41ad312451b948a7413f0a142fd40d49347942adc25665018aa1fe0e6bc666dac8fc2697ff9baa0890df59bc72ca0e5ae73c11835db96e65144a5a7d7127891cbe6249d81ada10da0699077c1219907b6d097942f9911f0abd918edf1276ce80f7db7661700305cdaa055247fde6ad7eef3cb39626b54cf7f70346484f026cef5a0c395286b0e094d1fb901000000000000000000000000000000000000000000000000000000000000000000000000000000000000000000000000000000000000000000000000000000000000000000000000000000000000000000000000000000000000000000000000000000000000000000000000000000000000000000000000000000000000000000000000000000000000000000000000000000000000000000000000000000000000000000000000000000000000000000000000000000000000000000000000000000000000000000000000000000000000000000000000000000000000000000000000000000000000000000000000000000000000000000000000000000000083020000018398968083013c688203e880a0d4d343cc7b7e80517c8f4af0545c87c3f8d687e261454520a59fdd984af809838851ec4484a611396cf866f864800183013c6894a0000000000000000000000000000000000000008084c04062261ca0b2a7a2dbbda29ce64fe107d670e2d79a7c365220045992cddafbf0c2239abe49a022e4f2d3aabf2d49525c453825f1e4194a4a6399c3d42f524c6addb812e9d0ddc0",
                "transactions" : [
                    {
                        "data" : "0xc0406226",
                        "gasLimit" : "0x013c68",
                        "gasPrice" : "0x01",
                        "nonce" : "0x00",
                        "r" : "0xb2a7a2dbbda29ce64fe107d670e2d79a7c365220045992cddafbf0c2239abe49",
                        "s" : "0x22e4f2d3aabf2d49525c453825f1e4194a4a6399c3d42f524c6addb812e9d0dd",
                        "to" : "0xa000000000000000000000000000000000000000",
                        "v" : "0x1c",
                        "value" : "0x00"
                    }
                ],
                "uncleHeaders" : [
                ]
            }
        ],
        "genesisBlockHeader" : {
            "bloom" : "0x00000000000000000000000000000000000000000000000000000000000000000000000000000000000000000000000000000000000000000000000000000000000000000000000000000000000000000000000000000000000000000000000000000000000000000000000000000000000000000000000000000000000000000000000000000000000000000000000000000000000000000000000000000000000000000000000000000000000000000000000000000000000000000000000000000000000000000000000000000000000000000000000000000000000000000000000000000000000000000000000000000000000000000000000000000000",
            "coinbase" : "0x2adc25665018aa1fe0e6bc666dac8fc2697ff9ba",
            "difficulty" : "0x020000",
            "extraData" : "0x42",
            "gasLimit" : "0x989680",
            "gasUsed" : "0x00",
            "hash" : "0x38eca8f5e513e3f1622fde552380decf77ccf1ac9607d7ff85e4b17b0931d195",
            "mixHash" : "0x56e81f171bcc55a6ff8345e692c0f86e5b48e01b996cadc001622fb5e363b421",
            "nonce" : "0x0102030405060708",
            "number" : "0x00",
            "parentHash" : "0x0000000000000000000000000000000000000000000000000000000000000000",
            "receiptTrie" : "0x56e81f171bcc55a6ff8345e692c0f86e5b48e01b996cadc001622fb5e363b421",
            "stateRoot" : "0x3d0242656b55c4eefe20d9c3ae6d445a03334d6d60338dd7c2f9514a87468e3d",
            "timestamp" : "0x03b6",
            "transactionsTrie" : "0x56e81f171bcc55a6ff8345e692c0f86e5b48e01b996cadc001622fb5e363b421",
            "uncleHash" : "0x1dcc4de8dec75d7aab85b567b6ccd41ad312451b948a7413f0a142fd40d49347"
        },
        "genesisRLP" : "0xf901faf901f5a00000000000000000000000000000000000000000000000000000000000000000a01dcc4de8dec75d7aab85b567b6ccd41ad312451b948a7413f0a142fd40d49347942adc25665018aa1fe0e6bc666dac8fc2697ff9baa03d0242656b55c4eefe20d9c3ae6d445a03334d6d60338dd7c2f9514a87468e3da056e81f171bcc55a6ff8345e692c0f86e5b48e01b996cadc001622fb5e363b421a056e81f171bcc55a6ff8345e692c0f86e5b48e01b996cadc001622fb5e363b421b9010000000000000000000000000000000000000000000000000000000000000000000000000000000000000000000000000000000000000000000000000000000000000000000000000000000000000000000000000000000000000000000000000000000000000000000000000000000000000000000000000000000000000000000000000000000000000000000000000000000000000000000000000000000000000000000000000000000000000000000000000000000000000000000000000000000000000000000000000000000000000000000000000000000000000000000000000000000000000000000000000000000000000000000000000000000000830200008083989680808203b642a056e81f171bcc55a6ff8345e692c0f86e5b48e01b996cadc001622fb5e363b421880102030405060708c0c0",
        "lastblockhash" : "0x7d2a8d43f8f700b5acccc25256f548f670158e854333b9f073c38666f79d0ed4",
        "network" : "EIP150",
        "postState" : {
            "0x2adc25665018aa1fe0e6bc666dac8fc2697ff9ba" : {
                "balance" : "0x4563918244f53c68",
                "code" : "",
                "nonce" : "0x00",
                "storage" : {
                }
            },
            "0xa000000000000000000000000000000000000000" : {
                "balance" : "0x01",
                "code" : "0x60606040526000357c0100000000000000000000000000000000000000000000000000000000900463ffffffff168063b28175c4146046578063c0406226146052575b6000565b3460005760506076565b005b34600057605c6081565b604051808215151515815260200191505060405180910390f35b600c6000819055505b565b600060896076565b600d600181905550600e600281905550600190505b905600a165627a7a723058202a8a75d7d795b5bcb9042fb18b283daa90b999a11ddec892f548732235342eb60029",
                "nonce" : "0x00",
                "storage" : {
                }
            },
            "0xa94f5374fce5edbc8e2a8697c15331677e6ebf0b" : {
                "balance" : "0xe8d4a3d398",
                "code" : "",
                "nonce" : "0x01",
                "storage" : {
                }
            }
        },
        "pre" : {
            "0xa000000000000000000000000000000000000000" : {
                "balance" : "0x01",
                "code" : "0x60606040526000357c0100000000000000000000000000000000000000000000000000000000900463ffffffff168063b28175c4146046578063c0406226146052575b6000565b3460005760506076565b005b34600057605c6081565b604051808215151515815260200191505060405180910390f35b600c6000819055505b565b600060896076565b600d600181905550600e600281905550600190505b905600a165627a7a723058202a8a75d7d795b5bcb9042fb18b283daa90b999a11ddec892f548732235342eb60029",
                "nonce" : "0x00",
                "storage" : {
                }
            },
            "0xa94f5374fce5edbc8e2a8697c15331677e6ebf0b" : {
                "balance" : "0xe8d4a51000",
                "code" : "",
                "nonce" : "0x00",
                "storage" : {
                }
            }
        }
    },
    "RevertSubCallStorageOOG_d0g0v0_EIP158" : {
        "_info" : {
            "comment" : "",
            "filledwith" : "cpp-1.3.0+commit.16292201.Linux.g++",
            "source" : "/src/GenStateTestAsBcTemp/stRevertTest/RevertSubCallStorageOOG_d0g0v0Filler.json"
        },
        "blocks" : [
            {
                "blockHeader" : {
                    "bloom" : "0x00000000000000000000000000000000000000000000000000000000000000000000000000000000000000000000000000000000000000000000000000000000000000000000000000000000000000000000000000000000000000000000000000000000000000000000000000000000000000000000000000000000000000000000000000000000000000000000000000000000000000000000000000000000000000000000000000000000000000000000000000000000000000000000000000000000000000000000000000000000000000000000000000000000000000000000000000000000000000000000000000000000000000000000000000000000",
                    "coinbase" : "0x2adc25665018aa1fe0e6bc666dac8fc2697ff9ba",
                    "difficulty" : "0x020000",
                    "extraData" : "",
                    "gasLimit" : "0x989680",
                    "gasUsed" : "0x013c68",
                    "hash" : "0x8c5d57e4fc91c760275e743c7b8b440be58ea5ff7dabc98f90d19ecfde35a6e5",
                    "mixHash" : "0x0d0f679a6f14c67ebe18941b9c6ab0ac9c1559477dfae7ecbccb0a1ae6269cc7",
                    "nonce" : "0xd3e6dbe7debe35bb",
                    "number" : "0x01",
                    "parentHash" : "0x38eca8f5e513e3f1622fde552380decf77ccf1ac9607d7ff85e4b17b0931d195",
                    "receiptTrie" : "0x55247fde6ad7eef3cb39626b54cf7f70346484f026cef5a0c395286b0e094d1f",
                    "stateRoot" : "0x890df59bc72ca0e5ae73c11835db96e65144a5a7d7127891cbe6249d81ada10d",
                    "timestamp" : "0x03e8",
                    "transactionsTrie" : "0x699077c1219907b6d097942f9911f0abd918edf1276ce80f7db7661700305cda",
                    "uncleHash" : "0x1dcc4de8dec75d7aab85b567b6ccd41ad312451b948a7413f0a142fd40d49347"
                },
                "rlp" : "0xf90264f901f8a038eca8f5e513e3f1622fde552380decf77ccf1ac9607d7ff85e4b17b0931d195a01dcc4de8dec75d7aab85b567b6ccd41ad312451b948a7413f0a142fd40d49347942adc25665018aa1fe0e6bc666dac8fc2697ff9baa0890df59bc72ca0e5ae73c11835db96e65144a5a7d7127891cbe6249d81ada10da0699077c1219907b6d097942f9911f0abd918edf1276ce80f7db7661700305cdaa055247fde6ad7eef3cb39626b54cf7f70346484f026cef5a0c395286b0e094d1fb901000000000000000000000000000000000000000000000000000000000000000000000000000000000000000000000000000000000000000000000000000000000000000000000000000000000000000000000000000000000000000000000000000000000000000000000000000000000000000000000000000000000000000000000000000000000000000000000000000000000000000000000000000000000000000000000000000000000000000000000000000000000000000000000000000000000000000000000000000000000000000000000000000000000000000000000000000000000000000000000000000000000000000000000000000000000083020000018398968083013c688203e880a00d0f679a6f14c67ebe18941b9c6ab0ac9c1559477dfae7ecbccb0a1ae6269cc788d3e6dbe7debe35bbf866f864800183013c6894a0000000000000000000000000000000000000008084c04062261ca0b2a7a2dbbda29ce64fe107d670e2d79a7c365220045992cddafbf0c2239abe49a022e4f2d3aabf2d49525c453825f1e4194a4a6399c3d42f524c6addb812e9d0ddc0",
                "transactions" : [
                    {
                        "data" : "0xc0406226",
                        "gasLimit" : "0x013c68",
                        "gasPrice" : "0x01",
                        "nonce" : "0x00",
                        "r" : "0xb2a7a2dbbda29ce64fe107d670e2d79a7c365220045992cddafbf0c2239abe49",
                        "s" : "0x22e4f2d3aabf2d49525c453825f1e4194a4a6399c3d42f524c6addb812e9d0dd",
                        "to" : "0xa000000000000000000000000000000000000000",
                        "v" : "0x1c",
                        "value" : "0x00"
                    }
                ],
                "uncleHeaders" : [
                ]
            }
        ],
        "genesisBlockHeader" : {
            "bloom" : "0x00000000000000000000000000000000000000000000000000000000000000000000000000000000000000000000000000000000000000000000000000000000000000000000000000000000000000000000000000000000000000000000000000000000000000000000000000000000000000000000000000000000000000000000000000000000000000000000000000000000000000000000000000000000000000000000000000000000000000000000000000000000000000000000000000000000000000000000000000000000000000000000000000000000000000000000000000000000000000000000000000000000000000000000000000000000",
            "coinbase" : "0x2adc25665018aa1fe0e6bc666dac8fc2697ff9ba",
            "difficulty" : "0x020000",
            "extraData" : "0x42",
            "gasLimit" : "0x989680",
            "gasUsed" : "0x00",
            "hash" : "0x38eca8f5e513e3f1622fde552380decf77ccf1ac9607d7ff85e4b17b0931d195",
            "mixHash" : "0x56e81f171bcc55a6ff8345e692c0f86e5b48e01b996cadc001622fb5e363b421",
            "nonce" : "0x0102030405060708",
            "number" : "0x00",
            "parentHash" : "0x0000000000000000000000000000000000000000000000000000000000000000",
            "receiptTrie" : "0x56e81f171bcc55a6ff8345e692c0f86e5b48e01b996cadc001622fb5e363b421",
            "stateRoot" : "0x3d0242656b55c4eefe20d9c3ae6d445a03334d6d60338dd7c2f9514a87468e3d",
            "timestamp" : "0x03b6",
            "transactionsTrie" : "0x56e81f171bcc55a6ff8345e692c0f86e5b48e01b996cadc001622fb5e363b421",
            "uncleHash" : "0x1dcc4de8dec75d7aab85b567b6ccd41ad312451b948a7413f0a142fd40d49347"
        },
        "genesisRLP" : "0xf901faf901f5a00000000000000000000000000000000000000000000000000000000000000000a01dcc4de8dec75d7aab85b567b6ccd41ad312451b948a7413f0a142fd40d49347942adc25665018aa1fe0e6bc666dac8fc2697ff9baa03d0242656b55c4eefe20d9c3ae6d445a03334d6d60338dd7c2f9514a87468e3da056e81f171bcc55a6ff8345e692c0f86e5b48e01b996cadc001622fb5e363b421a056e81f171bcc55a6ff8345e692c0f86e5b48e01b996cadc001622fb5e363b421b9010000000000000000000000000000000000000000000000000000000000000000000000000000000000000000000000000000000000000000000000000000000000000000000000000000000000000000000000000000000000000000000000000000000000000000000000000000000000000000000000000000000000000000000000000000000000000000000000000000000000000000000000000000000000000000000000000000000000000000000000000000000000000000000000000000000000000000000000000000000000000000000000000000000000000000000000000000000000000000000000000000000000000000000000000000000000830200008083989680808203b642a056e81f171bcc55a6ff8345e692c0f86e5b48e01b996cadc001622fb5e363b421880102030405060708c0c0",
        "lastblockhash" : "0x8c5d57e4fc91c760275e743c7b8b440be58ea5ff7dabc98f90d19ecfde35a6e5",
        "network" : "EIP158",
        "postState" : {
            "0x2adc25665018aa1fe0e6bc666dac8fc2697ff9ba" : {
                "balance" : "0x4563918244f53c68",
                "code" : "",
                "nonce" : "0x00",
                "storage" : {
                }
            },
            "0xa000000000000000000000000000000000000000" : {
                "balance" : "0x01",
                "code" : "0x60606040526000357c0100000000000000000000000000000000000000000000000000000000900463ffffffff168063b28175c4146046578063c0406226146052575b6000565b3460005760506076565b005b34600057605c6081565b604051808215151515815260200191505060405180910390f35b600c6000819055505b565b600060896076565b600d600181905550600e600281905550600190505b905600a165627a7a723058202a8a75d7d795b5bcb9042fb18b283daa90b999a11ddec892f548732235342eb60029",
                "nonce" : "0x00",
                "storage" : {
                }
            },
            "0xa94f5374fce5edbc8e2a8697c15331677e6ebf0b" : {
                "balance" : "0xe8d4a3d398",
                "code" : "",
                "nonce" : "0x01",
                "storage" : {
                }
            }
        },
        "pre" : {
            "0xa000000000000000000000000000000000000000" : {
                "balance" : "0x01",
                "code" : "0x60606040526000357c0100000000000000000000000000000000000000000000000000000000900463ffffffff168063b28175c4146046578063c0406226146052575b6000565b3460005760506076565b005b34600057605c6081565b604051808215151515815260200191505060405180910390f35b600c6000819055505b565b600060896076565b600d600181905550600e600281905550600190505b905600a165627a7a723058202a8a75d7d795b5bcb9042fb18b283daa90b999a11ddec892f548732235342eb60029",
                "nonce" : "0x00",
                "storage" : {
                }
            },
            "0xa94f5374fce5edbc8e2a8697c15331677e6ebf0b" : {
                "balance" : "0xe8d4a51000",
                "code" : "",
                "nonce" : "0x00",
                "storage" : {
                }
            }
        }
    },
    "RevertSubCallStorageOOG_d0g0v0_Frontier" : {
        "_info" : {
            "comment" : "",
            "filledwith" : "cpp-1.3.0+commit.16292201.Linux.g++",
            "source" : "/src/GenStateTestAsBcTemp/stRevertTest/RevertSubCallStorageOOG_d0g0v0Filler.json"
        },
        "blocks" : [
            {
                "blockHeader" : {
                    "bloom" : "0x00000000000000000000000000000000000000000000000000000000000000000000000000000000000000000000000000000000000000000000000000000000000000000000000000000000000000000000000000000000000000000000000000000000000000000000000000000000000000000000000000000000000000000000000000000000000000000000000000000000000000000000000000000000000000000000000000000000000000000000000000000000000000000000000000000000000000000000000000000000000000000000000000000000000000000000000000000000000000000000000000000000000000000000000000000000",
                    "coinbase" : "0x2adc25665018aa1fe0e6bc666dac8fc2697ff9ba",
                    "difficulty" : "0x020000",
                    "extraData" : "",
                    "gasLimit" : "0x989680",
                    "gasUsed" : "0x013c68",
                    "hash" : "0x5b6e0f655c30843f88daee7da7a3ad7bb5be0dc4a5b9a2d0a7f1526d2cdcc46a",
                    "mixHash" : "0x938d165c6a62d34920359ad37cc375ab1141f567286a872d6b394b4c13b2b216",
                    "nonce" : "0x482f57d22e66ed71",
                    "number" : "0x01",
                    "parentHash" : "0x38eca8f5e513e3f1622fde552380decf77ccf1ac9607d7ff85e4b17b0931d195",
                    "receiptTrie" : "0x55247fde6ad7eef3cb39626b54cf7f70346484f026cef5a0c395286b0e094d1f",
                    "stateRoot" : "0x890df59bc72ca0e5ae73c11835db96e65144a5a7d7127891cbe6249d81ada10d",
                    "timestamp" : "0x03e8",
                    "transactionsTrie" : "0x699077c1219907b6d097942f9911f0abd918edf1276ce80f7db7661700305cda",
                    "uncleHash" : "0x1dcc4de8dec75d7aab85b567b6ccd41ad312451b948a7413f0a142fd40d49347"
                },
                "rlp" : "0xf90264f901f8a038eca8f5e513e3f1622fde552380decf77ccf1ac9607d7ff85e4b17b0931d195a01dcc4de8dec75d7aab85b567b6ccd41ad312451b948a7413f0a142fd40d49347942adc25665018aa1fe0e6bc666dac8fc2697ff9baa0890df59bc72ca0e5ae73c11835db96e65144a5a7d7127891cbe6249d81ada10da0699077c1219907b6d097942f9911f0abd918edf1276ce80f7db7661700305cdaa055247fde6ad7eef3cb39626b54cf7f70346484f026cef5a0c395286b0e094d1fb901000000000000000000000000000000000000000000000000000000000000000000000000000000000000000000000000000000000000000000000000000000000000000000000000000000000000000000000000000000000000000000000000000000000000000000000000000000000000000000000000000000000000000000000000000000000000000000000000000000000000000000000000000000000000000000000000000000000000000000000000000000000000000000000000000000000000000000000000000000000000000000000000000000000000000000000000000000000000000000000000000000000000000000000000000000000083020000018398968083013c688203e880a0938d165c6a62d34920359ad37cc375ab1141f567286a872d6b394b4c13b2b21688482f57d22e66ed71f866f864800183013c6894a0000000000000000000000000000000000000008084c04062261ca0b2a7a2dbbda29ce64fe107d670e2d79a7c365220045992cddafbf0c2239abe49a022e4f2d3aabf2d49525c453825f1e4194a4a6399c3d42f524c6addb812e9d0ddc0",
                "transactions" : [
                    {
                        "data" : "0xc0406226",
                        "gasLimit" : "0x013c68",
                        "gasPrice" : "0x01",
                        "nonce" : "0x00",
                        "r" : "0xb2a7a2dbbda29ce64fe107d670e2d79a7c365220045992cddafbf0c2239abe49",
                        "s" : "0x22e4f2d3aabf2d49525c453825f1e4194a4a6399c3d42f524c6addb812e9d0dd",
                        "to" : "0xa000000000000000000000000000000000000000",
                        "v" : "0x1c",
                        "value" : "0x00"
                    }
                ],
                "uncleHeaders" : [
                ]
            }
        ],
        "genesisBlockHeader" : {
            "bloom" : "0x00000000000000000000000000000000000000000000000000000000000000000000000000000000000000000000000000000000000000000000000000000000000000000000000000000000000000000000000000000000000000000000000000000000000000000000000000000000000000000000000000000000000000000000000000000000000000000000000000000000000000000000000000000000000000000000000000000000000000000000000000000000000000000000000000000000000000000000000000000000000000000000000000000000000000000000000000000000000000000000000000000000000000000000000000000000",
            "coinbase" : "0x2adc25665018aa1fe0e6bc666dac8fc2697ff9ba",
            "difficulty" : "0x020000",
            "extraData" : "0x42",
            "gasLimit" : "0x989680",
            "gasUsed" : "0x00",
            "hash" : "0x38eca8f5e513e3f1622fde552380decf77ccf1ac9607d7ff85e4b17b0931d195",
            "mixHash" : "0x56e81f171bcc55a6ff8345e692c0f86e5b48e01b996cadc001622fb5e363b421",
            "nonce" : "0x0102030405060708",
            "number" : "0x00",
            "parentHash" : "0x0000000000000000000000000000000000000000000000000000000000000000",
            "receiptTrie" : "0x56e81f171bcc55a6ff8345e692c0f86e5b48e01b996cadc001622fb5e363b421",
            "stateRoot" : "0x3d0242656b55c4eefe20d9c3ae6d445a03334d6d60338dd7c2f9514a87468e3d",
            "timestamp" : "0x03b6",
            "transactionsTrie" : "0x56e81f171bcc55a6ff8345e692c0f86e5b48e01b996cadc001622fb5e363b421",
            "uncleHash" : "0x1dcc4de8dec75d7aab85b567b6ccd41ad312451b948a7413f0a142fd40d49347"
        },
        "genesisRLP" : "0xf901faf901f5a00000000000000000000000000000000000000000000000000000000000000000a01dcc4de8dec75d7aab85b567b6ccd41ad312451b948a7413f0a142fd40d49347942adc25665018aa1fe0e6bc666dac8fc2697ff9baa03d0242656b55c4eefe20d9c3ae6d445a03334d6d60338dd7c2f9514a87468e3da056e81f171bcc55a6ff8345e692c0f86e5b48e01b996cadc001622fb5e363b421a056e81f171bcc55a6ff8345e692c0f86e5b48e01b996cadc001622fb5e363b421b9010000000000000000000000000000000000000000000000000000000000000000000000000000000000000000000000000000000000000000000000000000000000000000000000000000000000000000000000000000000000000000000000000000000000000000000000000000000000000000000000000000000000000000000000000000000000000000000000000000000000000000000000000000000000000000000000000000000000000000000000000000000000000000000000000000000000000000000000000000000000000000000000000000000000000000000000000000000000000000000000000000000000000000000000000000000000830200008083989680808203b642a056e81f171bcc55a6ff8345e692c0f86e5b48e01b996cadc001622fb5e363b421880102030405060708c0c0",
        "lastblockhash" : "0x5b6e0f655c30843f88daee7da7a3ad7bb5be0dc4a5b9a2d0a7f1526d2cdcc46a",
        "network" : "Frontier",
        "postState" : {
            "0x2adc25665018aa1fe0e6bc666dac8fc2697ff9ba" : {
                "balance" : "0x4563918244f53c68",
                "code" : "",
                "nonce" : "0x00",
                "storage" : {
                }
            },
            "0xa000000000000000000000000000000000000000" : {
                "balance" : "0x01",
                "code" : "0x60606040526000357c0100000000000000000000000000000000000000000000000000000000900463ffffffff168063b28175c4146046578063c0406226146052575b6000565b3460005760506076565b005b34600057605c6081565b604051808215151515815260200191505060405180910390f35b600c6000819055505b565b600060896076565b600d600181905550600e600281905550600190505b905600a165627a7a723058202a8a75d7d795b5bcb9042fb18b283daa90b999a11ddec892f548732235342eb60029",
                "nonce" : "0x00",
                "storage" : {
                }
            },
            "0xa94f5374fce5edbc8e2a8697c15331677e6ebf0b" : {
                "balance" : "0xe8d4a3d398",
                "code" : "",
                "nonce" : "0x01",
                "storage" : {
                }
            }
        },
        "pre" : {
            "0xa000000000000000000000000000000000000000" : {
                "balance" : "0x01",
                "code" : "0x60606040526000357c0100000000000000000000000000000000000000000000000000000000900463ffffffff168063b28175c4146046578063c0406226146052575b6000565b3460005760506076565b005b34600057605c6081565b604051808215151515815260200191505060405180910390f35b600c6000819055505b565b600060896076565b600d600181905550600e600281905550600190505b905600a165627a7a723058202a8a75d7d795b5bcb9042fb18b283daa90b999a11ddec892f548732235342eb60029",
                "nonce" : "0x00",
                "storage" : {
                }
            },
            "0xa94f5374fce5edbc8e2a8697c15331677e6ebf0b" : {
                "balance" : "0xe8d4a51000",
                "code" : "",
                "nonce" : "0x00",
                "storage" : {
                }
            }
        }
    },
    "RevertSubCallStorageOOG_d0g0v0_Homestead" : {
        "_info" : {
            "comment" : "",
            "filledwith" : "cpp-1.3.0+commit.16292201.Linux.g++",
            "source" : "/src/GenStateTestAsBcTemp/stRevertTest/RevertSubCallStorageOOG_d0g0v0Filler.json"
        },
        "blocks" : [
            {
                "blockHeader" : {
                    "bloom" : "0x00000000000000000000000000000000000000000000000000000000000000000000000000000000000000000000000000000000000000000000000000000000000000000000000000000000000000000000000000000000000000000000000000000000000000000000000000000000000000000000000000000000000000000000000000000000000000000000000000000000000000000000000000000000000000000000000000000000000000000000000000000000000000000000000000000000000000000000000000000000000000000000000000000000000000000000000000000000000000000000000000000000000000000000000000000000",
                    "coinbase" : "0x2adc25665018aa1fe0e6bc666dac8fc2697ff9ba",
                    "difficulty" : "0x020000",
                    "extraData" : "",
                    "gasLimit" : "0x989680",
                    "gasUsed" : "0x013c68",
                    "hash" : "0x282f7a7cae05b034234a6b7a9208e3fca5c64ed1284936ebba302ec201f1cf17",
                    "mixHash" : "0xa153c66476573a8b05d7b7e4b5469edb427f693be3659faf60f8b2c8ffee7be4",
                    "nonce" : "0x9bcb81065f34001b",
                    "number" : "0x01",
                    "parentHash" : "0x38eca8f5e513e3f1622fde552380decf77ccf1ac9607d7ff85e4b17b0931d195",
                    "receiptTrie" : "0x55247fde6ad7eef3cb39626b54cf7f70346484f026cef5a0c395286b0e094d1f",
                    "stateRoot" : "0x890df59bc72ca0e5ae73c11835db96e65144a5a7d7127891cbe6249d81ada10d",
                    "timestamp" : "0x03e8",
                    "transactionsTrie" : "0x699077c1219907b6d097942f9911f0abd918edf1276ce80f7db7661700305cda",
                    "uncleHash" : "0x1dcc4de8dec75d7aab85b567b6ccd41ad312451b948a7413f0a142fd40d49347"
                },
                "rlp" : "0xf90264f901f8a038eca8f5e513e3f1622fde552380decf77ccf1ac9607d7ff85e4b17b0931d195a01dcc4de8dec75d7aab85b567b6ccd41ad312451b948a7413f0a142fd40d49347942adc25665018aa1fe0e6bc666dac8fc2697ff9baa0890df59bc72ca0e5ae73c11835db96e65144a5a7d7127891cbe6249d81ada10da0699077c1219907b6d097942f9911f0abd918edf1276ce80f7db7661700305cdaa055247fde6ad7eef3cb39626b54cf7f70346484f026cef5a0c395286b0e094d1fb901000000000000000000000000000000000000000000000000000000000000000000000000000000000000000000000000000000000000000000000000000000000000000000000000000000000000000000000000000000000000000000000000000000000000000000000000000000000000000000000000000000000000000000000000000000000000000000000000000000000000000000000000000000000000000000000000000000000000000000000000000000000000000000000000000000000000000000000000000000000000000000000000000000000000000000000000000000000000000000000000000000000000000000000000000000000083020000018398968083013c688203e880a0a153c66476573a8b05d7b7e4b5469edb427f693be3659faf60f8b2c8ffee7be4889bcb81065f34001bf866f864800183013c6894a0000000000000000000000000000000000000008084c04062261ca0b2a7a2dbbda29ce64fe107d670e2d79a7c365220045992cddafbf0c2239abe49a022e4f2d3aabf2d49525c453825f1e4194a4a6399c3d42f524c6addb812e9d0ddc0",
                "transactions" : [
                    {
                        "data" : "0xc0406226",
                        "gasLimit" : "0x013c68",
                        "gasPrice" : "0x01",
                        "nonce" : "0x00",
                        "r" : "0xb2a7a2dbbda29ce64fe107d670e2d79a7c365220045992cddafbf0c2239abe49",
                        "s" : "0x22e4f2d3aabf2d49525c453825f1e4194a4a6399c3d42f524c6addb812e9d0dd",
                        "to" : "0xa000000000000000000000000000000000000000",
                        "v" : "0x1c",
                        "value" : "0x00"
                    }
                ],
                "uncleHeaders" : [
                ]
            }
        ],
        "genesisBlockHeader" : {
            "bloom" : "0x00000000000000000000000000000000000000000000000000000000000000000000000000000000000000000000000000000000000000000000000000000000000000000000000000000000000000000000000000000000000000000000000000000000000000000000000000000000000000000000000000000000000000000000000000000000000000000000000000000000000000000000000000000000000000000000000000000000000000000000000000000000000000000000000000000000000000000000000000000000000000000000000000000000000000000000000000000000000000000000000000000000000000000000000000000000",
            "coinbase" : "0x2adc25665018aa1fe0e6bc666dac8fc2697ff9ba",
            "difficulty" : "0x020000",
            "extraData" : "0x42",
            "gasLimit" : "0x989680",
            "gasUsed" : "0x00",
            "hash" : "0x38eca8f5e513e3f1622fde552380decf77ccf1ac9607d7ff85e4b17b0931d195",
            "mixHash" : "0x56e81f171bcc55a6ff8345e692c0f86e5b48e01b996cadc001622fb5e363b421",
            "nonce" : "0x0102030405060708",
            "number" : "0x00",
            "parentHash" : "0x0000000000000000000000000000000000000000000000000000000000000000",
            "receiptTrie" : "0x56e81f171bcc55a6ff8345e692c0f86e5b48e01b996cadc001622fb5e363b421",
            "stateRoot" : "0x3d0242656b55c4eefe20d9c3ae6d445a03334d6d60338dd7c2f9514a87468e3d",
            "timestamp" : "0x03b6",
            "transactionsTrie" : "0x56e81f171bcc55a6ff8345e692c0f86e5b48e01b996cadc001622fb5e363b421",
            "uncleHash" : "0x1dcc4de8dec75d7aab85b567b6ccd41ad312451b948a7413f0a142fd40d49347"
        },
        "genesisRLP" : "0xf901faf901f5a00000000000000000000000000000000000000000000000000000000000000000a01dcc4de8dec75d7aab85b567b6ccd41ad312451b948a7413f0a142fd40d49347942adc25665018aa1fe0e6bc666dac8fc2697ff9baa03d0242656b55c4eefe20d9c3ae6d445a03334d6d60338dd7c2f9514a87468e3da056e81f171bcc55a6ff8345e692c0f86e5b48e01b996cadc001622fb5e363b421a056e81f171bcc55a6ff8345e692c0f86e5b48e01b996cadc001622fb5e363b421b9010000000000000000000000000000000000000000000000000000000000000000000000000000000000000000000000000000000000000000000000000000000000000000000000000000000000000000000000000000000000000000000000000000000000000000000000000000000000000000000000000000000000000000000000000000000000000000000000000000000000000000000000000000000000000000000000000000000000000000000000000000000000000000000000000000000000000000000000000000000000000000000000000000000000000000000000000000000000000000000000000000000000000000000000000000000000830200008083989680808203b642a056e81f171bcc55a6ff8345e692c0f86e5b48e01b996cadc001622fb5e363b421880102030405060708c0c0",
        "lastblockhash" : "0x282f7a7cae05b034234a6b7a9208e3fca5c64ed1284936ebba302ec201f1cf17",
        "network" : "Homestead",
        "postState" : {
            "0x2adc25665018aa1fe0e6bc666dac8fc2697ff9ba" : {
                "balance" : "0x4563918244f53c68",
                "code" : "",
                "nonce" : "0x00",
                "storage" : {
                }
            },
            "0xa000000000000000000000000000000000000000" : {
                "balance" : "0x01",
                "code" : "0x60606040526000357c0100000000000000000000000000000000000000000000000000000000900463ffffffff168063b28175c4146046578063c0406226146052575b6000565b3460005760506076565b005b34600057605c6081565b604051808215151515815260200191505060405180910390f35b600c6000819055505b565b600060896076565b600d600181905550600e600281905550600190505b905600a165627a7a723058202a8a75d7d795b5bcb9042fb18b283daa90b999a11ddec892f548732235342eb60029",
                "nonce" : "0x00",
                "storage" : {
                }
            },
            "0xa94f5374fce5edbc8e2a8697c15331677e6ebf0b" : {
                "balance" : "0xe8d4a3d398",
                "code" : "",
                "nonce" : "0x01",
                "storage" : {
                }
            }
        },
        "pre" : {
            "0xa000000000000000000000000000000000000000" : {
                "balance" : "0x01",
                "code" : "0x60606040526000357c0100000000000000000000000000000000000000000000000000000000900463ffffffff168063b28175c4146046578063c0406226146052575b6000565b3460005760506076565b005b34600057605c6081565b604051808215151515815260200191505060405180910390f35b600c6000819055505b565b600060896076565b600d600181905550600e600281905550600190505b905600a165627a7a723058202a8a75d7d795b5bcb9042fb18b283daa90b999a11ddec892f548732235342eb60029",
                "nonce" : "0x00",
                "storage" : {
                }
            },
            "0xa94f5374fce5edbc8e2a8697c15331677e6ebf0b" : {
                "balance" : "0xe8d4a51000",
                "code" : "",
                "nonce" : "0x00",
                "storage" : {
                }
            }
        }
    },
    "RevertSubCallStorageOOG_d0g0v0_Metropolis" : {
        "_info" : {
            "comment" : "",
            "filledwith" : "cpp-1.3.0+commit.16292201.Linux.g++",
            "source" : "/src/GenStateTestAsBcTemp/stRevertTest/RevertSubCallStorageOOG_d0g0v0Filler.json"
        },
        "blocks" : [
            {
                "blockHeader" : {
                    "bloom" : "0x00000000000000000000000000000000000000000000000000000000000000000000000000000000000000000000000000000000000000000000000000000000000000000000000000000000000000000000000000000000000000000000000000000000000000000000000000000000000000000000000000000000000000000000000000000000000000000000000000000000000000000000000000000000000000000000000000000000000000000000000000000000000000000000000000000000000000000000000000000000000000000000000000000000000000000000000000000000000000000000000000000000000000000000000000000000",
                    "coinbase" : "0x2adc25665018aa1fe0e6bc666dac8fc2697ff9ba",
                    "difficulty" : "0x020000",
                    "extraData" : "",
                    "gasLimit" : "0x989680",
                    "gasUsed" : "0x013c68",
                    "hash" : "0xd7f04528b2333e3685475298670104a195521915c7889be36bc577198d685d32",
                    "mixHash" : "0xcf008c18ac92f09cc119b99d2280d092f8e8afca50214a3bf3d038d64d620e42",
                    "nonce" : "0x717bfe9415f7c137",
                    "number" : "0x01",
                    "parentHash" : "0x38eca8f5e513e3f1622fde552380decf77ccf1ac9607d7ff85e4b17b0931d195",
                    "receiptTrie" : "0x2281238d90b06f758a6c25fcd6a34375d8606cd2891dada916c1869a7dc7d374",
                    "stateRoot" : "0x2b78525222570e3aa92e149713f78d6704d0dfc8b4d08720253325825ce18c86",
                    "timestamp" : "0x03e8",
                    "transactionsTrie" : "0x699077c1219907b6d097942f9911f0abd918edf1276ce80f7db7661700305cda",
                    "uncleHash" : "0x1dcc4de8dec75d7aab85b567b6ccd41ad312451b948a7413f0a142fd40d49347"
                },
                "rlp" : "0xf90264f901f8a038eca8f5e513e3f1622fde552380decf77ccf1ac9607d7ff85e4b17b0931d195a01dcc4de8dec75d7aab85b567b6ccd41ad312451b948a7413f0a142fd40d49347942adc25665018aa1fe0e6bc666dac8fc2697ff9baa02b78525222570e3aa92e149713f78d6704d0dfc8b4d08720253325825ce18c86a0699077c1219907b6d097942f9911f0abd918edf1276ce80f7db7661700305cdaa02281238d90b06f758a6c25fcd6a34375d8606cd2891dada916c1869a7dc7d374b901000000000000000000000000000000000000000000000000000000000000000000000000000000000000000000000000000000000000000000000000000000000000000000000000000000000000000000000000000000000000000000000000000000000000000000000000000000000000000000000000000000000000000000000000000000000000000000000000000000000000000000000000000000000000000000000000000000000000000000000000000000000000000000000000000000000000000000000000000000000000000000000000000000000000000000000000000000000000000000000000000000000000000000000000000000000083020000018398968083013c688203e880a0cf008c18ac92f09cc119b99d2280d092f8e8afca50214a3bf3d038d64d620e4288717bfe9415f7c137f866f864800183013c6894a0000000000000000000000000000000000000008084c04062261ca0b2a7a2dbbda29ce64fe107d670e2d79a7c365220045992cddafbf0c2239abe49a022e4f2d3aabf2d49525c453825f1e4194a4a6399c3d42f524c6addb812e9d0ddc0",
                "transactions" : [
                    {
                        "data" : "0xc0406226",
                        "gasLimit" : "0x013c68",
                        "gasPrice" : "0x01",
                        "nonce" : "0x00",
                        "r" : "0xb2a7a2dbbda29ce64fe107d670e2d79a7c365220045992cddafbf0c2239abe49",
                        "s" : "0x22e4f2d3aabf2d49525c453825f1e4194a4a6399c3d42f524c6addb812e9d0dd",
                        "to" : "0xa000000000000000000000000000000000000000",
                        "v" : "0x1c",
                        "value" : "0x00"
                    }
                ],
                "uncleHeaders" : [
                ]
            }
        ],
        "genesisBlockHeader" : {
            "bloom" : "0x00000000000000000000000000000000000000000000000000000000000000000000000000000000000000000000000000000000000000000000000000000000000000000000000000000000000000000000000000000000000000000000000000000000000000000000000000000000000000000000000000000000000000000000000000000000000000000000000000000000000000000000000000000000000000000000000000000000000000000000000000000000000000000000000000000000000000000000000000000000000000000000000000000000000000000000000000000000000000000000000000000000000000000000000000000000",
            "coinbase" : "0x2adc25665018aa1fe0e6bc666dac8fc2697ff9ba",
            "difficulty" : "0x020000",
            "extraData" : "0x42",
            "gasLimit" : "0x989680",
            "gasUsed" : "0x00",
            "hash" : "0x38eca8f5e513e3f1622fde552380decf77ccf1ac9607d7ff85e4b17b0931d195",
            "mixHash" : "0x56e81f171bcc55a6ff8345e692c0f86e5b48e01b996cadc001622fb5e363b421",
            "nonce" : "0x0102030405060708",
            "number" : "0x00",
            "parentHash" : "0x0000000000000000000000000000000000000000000000000000000000000000",
            "receiptTrie" : "0x56e81f171bcc55a6ff8345e692c0f86e5b48e01b996cadc001622fb5e363b421",
            "stateRoot" : "0x3d0242656b55c4eefe20d9c3ae6d445a03334d6d60338dd7c2f9514a87468e3d",
            "timestamp" : "0x03b6",
            "transactionsTrie" : "0x56e81f171bcc55a6ff8345e692c0f86e5b48e01b996cadc001622fb5e363b421",
            "uncleHash" : "0x1dcc4de8dec75d7aab85b567b6ccd41ad312451b948a7413f0a142fd40d49347"
        },
        "genesisRLP" : "0xf901faf901f5a00000000000000000000000000000000000000000000000000000000000000000a01dcc4de8dec75d7aab85b567b6ccd41ad312451b948a7413f0a142fd40d49347942adc25665018aa1fe0e6bc666dac8fc2697ff9baa03d0242656b55c4eefe20d9c3ae6d445a03334d6d60338dd7c2f9514a87468e3da056e81f171bcc55a6ff8345e692c0f86e5b48e01b996cadc001622fb5e363b421a056e81f171bcc55a6ff8345e692c0f86e5b48e01b996cadc001622fb5e363b421b9010000000000000000000000000000000000000000000000000000000000000000000000000000000000000000000000000000000000000000000000000000000000000000000000000000000000000000000000000000000000000000000000000000000000000000000000000000000000000000000000000000000000000000000000000000000000000000000000000000000000000000000000000000000000000000000000000000000000000000000000000000000000000000000000000000000000000000000000000000000000000000000000000000000000000000000000000000000000000000000000000000000000000000000000000000000000830200008083989680808203b642a056e81f171bcc55a6ff8345e692c0f86e5b48e01b996cadc001622fb5e363b421880102030405060708c0c0",
        "lastblockhash" : "0xd7f04528b2333e3685475298670104a195521915c7889be36bc577198d685d32",
        "network" : "Metropolis",
        "postState" : {
            "0x00000000000000000000000000000000000000f0" : {
                "balance" : "0x00",
                "code" : "",
                "nonce" : "0x00",
                "storage" : {
                }
            },
            "0x2adc25665018aa1fe0e6bc666dac8fc2697ff9ba" : {
                "balance" : "0x4563918244f53c68",
                "code" : "",
                "nonce" : "0x00",
                "storage" : {
                }
            },
            "0xa000000000000000000000000000000000000000" : {
                "balance" : "0x01",
                "code" : "0x60606040526000357c0100000000000000000000000000000000000000000000000000000000900463ffffffff168063b28175c4146046578063c0406226146052575b6000565b3460005760506076565b005b34600057605c6081565b604051808215151515815260200191505060405180910390f35b600c6000819055505b565b600060896076565b600d600181905550600e600281905550600190505b905600a165627a7a723058202a8a75d7d795b5bcb9042fb18b283daa90b999a11ddec892f548732235342eb60029",
                "nonce" : "0x00",
                "storage" : {
                }
            },
            "0xa94f5374fce5edbc8e2a8697c15331677e6ebf0b" : {
                "balance" : "0xe8d4a3d398",
                "code" : "",
                "nonce" : "0x01",
                "storage" : {
                }
            }
        },
        "pre" : {
            "0xa000000000000000000000000000000000000000" : {
                "balance" : "0x01",
                "code" : "0x60606040526000357c0100000000000000000000000000000000000000000000000000000000900463ffffffff168063b28175c4146046578063c0406226146052575b6000565b3460005760506076565b005b34600057605c6081565b604051808215151515815260200191505060405180910390f35b600c6000819055505b565b600060896076565b600d600181905550600e600281905550600190505b905600a165627a7a723058202a8a75d7d795b5bcb9042fb18b283daa90b999a11ddec892f548732235342eb60029",
                "nonce" : "0x00",
                "storage" : {
                }
            },
            "0xa94f5374fce5edbc8e2a8697c15331677e6ebf0b" : {
                "balance" : "0xe8d4a51000",
                "code" : "",
                "nonce" : "0x00",
                "storage" : {
                }
            }
        }
    }
}