{
    "RevertRemoteSubCallStorageOOG_d0g2v0_Byzantium" : {
        "_info" : {
            "comment" : "",
            "filledwith" : "cpp-1.3.0+commit.ee0c6776.Linux.g++",
            "lllcversion" : "Version: 0.4.20-develop.2018.2.4+commit.c696803f.Linux.g++",
            "source" : "src/BlockchainTestsFiller/GeneralStateTests/stRevertTest/RevertRemoteSubCallStorageOOG_d0g2v0Filler.json",
            "sourceHash" : "3111fb3b018962c7929405b4ad69295870f42573aa0e79f4ba59bd779e200342"
        },
        "blocks" : [
            {
                "blockHeader" : {
                    "bloom" : "0x00000000000000000000000000000000000000000000000000000000000000000000000000000000000000000000000000000000000000000000000000000000000000000000000000000000000000000000000000000000000000000000000000000000000000000000000000000000000000000000000000000000000000000000000000000000000000000000000000000000000000000000000000000000000000000000000000000000000000000000000000000000000000000000000000000000000000000000000000000000000000000000000000000000000000000000000000000000000000000000000000000000000000000000000000000000",
                    "coinbase" : "0x2adc25665018aa1fe0e6bc666dac8fc2697ff9ba",
                    "difficulty" : "0x020000",
                    "extraData" : "",
                    "gasLimit" : "0x989680",
                    "gasUsed" : "0x023668",
                    "hash" : "0x3537968ae6cdf709f9adb9dc017f20a81c2f35f2bab2fe73a8978493ee605c93",
                    "mixHash" : "0xdae9655ead74d4956990f51d9fd4880adf1af946fd394dbacfce4866e4bbcfed",
                    "nonce" : "0xca3efb8e4275bbc8",
                    "number" : "0x01",
                    "parentHash" : "0x3a02ae2cad7c6533fff53c0e4d87de484644cb870e3bdf683adb490cd04b7c18",
                    "receiptTrie" : "0xd8f57081f4ea2813a4f6b446d5a5b7600495c52ae075cfaebc8ae4d3f116e2e8",
                    "stateRoot" : "0x9810eb79fa259956018867a8b65b87ece1c62c39cdff065f00e8ffba4d84d781",
                    "timestamp" : "0x03e8",
                    "transactionsTrie" : "0x9cd4d9ea3be7c2f26f757ebfda36062f4bc2f46b3f244bd30673f72963697d57",
                    "uncleHash" : "0x1dcc4de8dec75d7aab85b567b6ccd41ad312451b948a7413f0a142fd40d49347"
                },
                "rlp" : "0xf90264f901f8a03a02ae2cad7c6533fff53c0e4d87de484644cb870e3bdf683adb490cd04b7c18a01dcc4de8dec75d7aab85b567b6ccd41ad312451b948a7413f0a142fd40d49347942adc25665018aa1fe0e6bc666dac8fc2697ff9baa09810eb79fa259956018867a8b65b87ece1c62c39cdff065f00e8ffba4d84d781a09cd4d9ea3be7c2f26f757ebfda36062f4bc2f46b3f244bd30673f72963697d57a0d8f57081f4ea2813a4f6b446d5a5b7600495c52ae075cfaebc8ae4d3f116e2e8b9010000000000000000000000000000000000000000000000000000000000000000000000000000000000000000000000000000000000000000000000000000000000000000000000000000000000000000000000000000000000000000000000000000000000000000000000000000000000000000000000000000000000000000000000000000000000000000000000000000000000000000000000000000000000000000000000000000000000000000000000000000000000000000000000000000000000000000000000000000000000000000000000000000000000000000000000000000000000000000000000000000000000000000000000000000000000830200000183989680830236688203e880a0dae9655ead74d4956990f51d9fd4880adf1af946fd394dbacfce4866e4bbcfed88ca3efb8e4275bbc8f866f86480018302366894a0000000000000000000000000000000000000008084c04062261ca00732ad0b6c7efd9b1cd2d1dba4835fc97621a2a9a684a1d78842d19a2ebe7d5aa04c5a1223779d015f2c0c4fa197264b30db097dde85b2dc4e758a7bf2d6bd2ec5c0",
                "transactions" : [
                    {
                        "data" : "0xc0406226",
                        "gasLimit" : "0x023668",
                        "gasPrice" : "0x01",
                        "nonce" : "0x00",
                        "r" : "0x0732ad0b6c7efd9b1cd2d1dba4835fc97621a2a9a684a1d78842d19a2ebe7d5a",
                        "s" : "0x4c5a1223779d015f2c0c4fa197264b30db097dde85b2dc4e758a7bf2d6bd2ec5",
                        "to" : "0xa000000000000000000000000000000000000000",
                        "v" : "0x1c",
                        "value" : "0x00"
                    }
                ],
                "uncleHeaders" : [
                ]
            }
        ],
        "genesisBlockHeader" : {
            "bloom" : "0x00000000000000000000000000000000000000000000000000000000000000000000000000000000000000000000000000000000000000000000000000000000000000000000000000000000000000000000000000000000000000000000000000000000000000000000000000000000000000000000000000000000000000000000000000000000000000000000000000000000000000000000000000000000000000000000000000000000000000000000000000000000000000000000000000000000000000000000000000000000000000000000000000000000000000000000000000000000000000000000000000000000000000000000000000000000",
            "coinbase" : "0x2adc25665018aa1fe0e6bc666dac8fc2697ff9ba",
            "difficulty" : "0x020000",
            "extraData" : "0x42",
            "gasLimit" : "0x989680",
            "gasUsed" : "0x00",
            "hash" : "0x3a02ae2cad7c6533fff53c0e4d87de484644cb870e3bdf683adb490cd04b7c18",
            "mixHash" : "0x56e81f171bcc55a6ff8345e692c0f86e5b48e01b996cadc001622fb5e363b421",
            "nonce" : "0x0102030405060708",
            "number" : "0x00",
            "parentHash" : "0x0000000000000000000000000000000000000000000000000000000000000000",
            "receiptTrie" : "0x56e81f171bcc55a6ff8345e692c0f86e5b48e01b996cadc001622fb5e363b421",
            "stateRoot" : "0x27e301526d6c628f31e2d8c3a886baf14d5b8bbfc388e70185afeac73fdb323b",
            "timestamp" : "0x03b6",
            "transactionsTrie" : "0x56e81f171bcc55a6ff8345e692c0f86e5b48e01b996cadc001622fb5e363b421",
            "uncleHash" : "0x1dcc4de8dec75d7aab85b567b6ccd41ad312451b948a7413f0a142fd40d49347"
        },
        "genesisRLP" : "0xf901faf901f5a00000000000000000000000000000000000000000000000000000000000000000a01dcc4de8dec75d7aab85b567b6ccd41ad312451b948a7413f0a142fd40d49347942adc25665018aa1fe0e6bc666dac8fc2697ff9baa027e301526d6c628f31e2d8c3a886baf14d5b8bbfc388e70185afeac73fdb323ba056e81f171bcc55a6ff8345e692c0f86e5b48e01b996cadc001622fb5e363b421a056e81f171bcc55a6ff8345e692c0f86e5b48e01b996cadc001622fb5e363b421b9010000000000000000000000000000000000000000000000000000000000000000000000000000000000000000000000000000000000000000000000000000000000000000000000000000000000000000000000000000000000000000000000000000000000000000000000000000000000000000000000000000000000000000000000000000000000000000000000000000000000000000000000000000000000000000000000000000000000000000000000000000000000000000000000000000000000000000000000000000000000000000000000000000000000000000000000000000000000000000000000000000000000000000000000000000000000830200008083989680808203b642a056e81f171bcc55a6ff8345e692c0f86e5b48e01b996cadc001622fb5e363b421880102030405060708c0c0",
        "lastblockhash" : "0x3537968ae6cdf709f9adb9dc017f20a81c2f35f2bab2fe73a8978493ee605c93",
        "network" : "Byzantium",
        "postState" : {
            "0x2adc25665018aa1fe0e6bc666dac8fc2697ff9ba" : {
                "balance" : "0x29a2241af62e3668",
                "code" : "",
                "nonce" : "0x00",
                "storage" : {
                }
            },
            "0xa000000000000000000000000000000000000000" : {
                "balance" : "0x01",
                "code" : "0x60606040526000357c0100000000000000000000000000000000000000000000000000000000900463ffffffff168063b28175c414610049578063c040622614610058575b610000565b346100005761005661007f565b005b346100005761006561008a565b604051808215151515815260200191505060405180910390f35b600c6000819055505b565b6000600060405161016f80610163833901809050604051809103906000f080156100005790508073ffffffffffffffffffffffffffffffffffffffff166373027f6d306040518263ffffffff167c0100000000000000000000000000000000000000000000000000000000028152600401808273ffffffffffffffffffffffffffffffffffffffff1673ffffffffffffffffffffffffffffffffffffffff168152602001915050600060405180830381600087803b156100005760325a03f11561000057505050600d600181905550600191505b50905600606060405234610000575b610156806100196000396000f30060606040526000357c0100000000000000000000000000000000000000000000000000000000900463ffffffff16806373027f6d1461003e575b610000565b346100005761006f600480803573ffffffffffffffffffffffffffffffffffffffff16906020019091905050610071565b005b8073ffffffffffffffffffffffffffffffffffffffff1660405180807f73746f7228290000000000000000000000000000000000000000000000000000815250600601905060405180910390207c010000000000000000000000000000000000000000000000000000000090046040518163ffffffff167c01000000000000000000000000000000000000000000000000000000000281526004018090506000604051808303816000876161da5a03f192505050505b505600a165627a7a72305820db9c9d1f37fd36768131a0bf9687f465e15b0503452e603be6b6f07b70d72e260029a165627a7a72305820f8ff2f7feef24d01a1cc070e67db9e15ac34810c8e5d1c7f34f3c38148eeae900029",
                "nonce" : "0x00",
                "storage" : {
                }
            },
            "0xa94f5374fce5edbc8e2a8697c15331677e6ebf0b" : {
                "balance" : "0xe8d4a2d998",
                "code" : "",
                "nonce" : "0x01",
                "storage" : {
                }
            }
        },
        "pre" : {
            "0xa000000000000000000000000000000000000000" : {
                "balance" : "0x01",
                "code" : "0x60606040526000357c0100000000000000000000000000000000000000000000000000000000900463ffffffff168063b28175c414610049578063c040622614610058575b610000565b346100005761005661007f565b005b346100005761006561008a565b604051808215151515815260200191505060405180910390f35b600c6000819055505b565b6000600060405161016f80610163833901809050604051809103906000f080156100005790508073ffffffffffffffffffffffffffffffffffffffff166373027f6d306040518263ffffffff167c0100000000000000000000000000000000000000000000000000000000028152600401808273ffffffffffffffffffffffffffffffffffffffff1673ffffffffffffffffffffffffffffffffffffffff168152602001915050600060405180830381600087803b156100005760325a03f11561000057505050600d600181905550600191505b50905600606060405234610000575b610156806100196000396000f30060606040526000357c0100000000000000000000000000000000000000000000000000000000900463ffffffff16806373027f6d1461003e575b610000565b346100005761006f600480803573ffffffffffffffffffffffffffffffffffffffff16906020019091905050610071565b005b8073ffffffffffffffffffffffffffffffffffffffff1660405180807f73746f7228290000000000000000000000000000000000000000000000000000815250600601905060405180910390207c010000000000000000000000000000000000000000000000000000000090046040518163ffffffff167c01000000000000000000000000000000000000000000000000000000000281526004018090506000604051808303816000876161da5a03f192505050505b505600a165627a7a72305820db9c9d1f37fd36768131a0bf9687f465e15b0503452e603be6b6f07b70d72e260029a165627a7a72305820f8ff2f7feef24d01a1cc070e67db9e15ac34810c8e5d1c7f34f3c38148eeae900029",
                "nonce" : "0x00",
                "storage" : {
                }
            },
            "0xa94f5374fce5edbc8e2a8697c15331677e6ebf0b" : {
                "balance" : "0xe8d4a51000",
                "code" : "",
                "nonce" : "0x00",
                "storage" : {
                }
            }
        }
    },
    "RevertRemoteSubCallStorageOOG_d0g2v0_EIP150" : {
        "_info" : {
            "comment" : "",
            "filledwith" : "cpp-1.3.0+commit.ee0c6776.Linux.g++",
            "lllcversion" : "Version: 0.4.20-develop.2018.2.4+commit.c696803f.Linux.g++",
            "source" : "src/BlockchainTestsFiller/GeneralStateTests/stRevertTest/RevertRemoteSubCallStorageOOG_d0g2v0Filler.json",
            "sourceHash" : "3111fb3b018962c7929405b4ad69295870f42573aa0e79f4ba59bd779e200342"
        },
        "blocks" : [
            {
                "blockHeader" : {
                    "bloom" : "0x00000000000000000000000000000000000000000000000000000000000000000000000000000000000000000000000000000000000000000000000000000000000000000000000000000000000000000000000000000000000000000000000000000000000000000000000000000000000000000000000000000000000000000000000000000000000000000000000000000000000000000000000000000000000000000000000000000000000000000000000000000000000000000000000000000000000000000000000000000000000000000000000000000000000000000000000000000000000000000000000000000000000000000000000000000000",
                    "coinbase" : "0x2adc25665018aa1fe0e6bc666dac8fc2697ff9ba",
                    "difficulty" : "0x020000",
                    "extraData" : "",
                    "gasLimit" : "0x989680",
                    "gasUsed" : "0x023668",
                    "hash" : "0xe0eab18b93143bdeb202e693dbae2a2a1c5e188e0b06cf55cc6ad52b81b4c277",
                    "mixHash" : "0xb965ceddad401a8022b091b2d9b72e94479de8bd8b65b86c0674044d5cf33cbd",
                    "nonce" : "0xce98b5988b221075",
                    "number" : "0x01",
                    "parentHash" : "0x3a02ae2cad7c6533fff53c0e4d87de484644cb870e3bdf683adb490cd04b7c18",
                    "receiptTrie" : "0x2d69c988c48b51b167d6ff01eabcb6de459fcc62b52957c1c85608c39fadf21f",
                    "stateRoot" : "0xd1a28b08e36926a83eda1e7f3d0fb1eee1365080c5718a1eb9e39ecbcbaa3d8a",
                    "timestamp" : "0x03e8",
                    "transactionsTrie" : "0x9cd4d9ea3be7c2f26f757ebfda36062f4bc2f46b3f244bd30673f72963697d57",
                    "uncleHash" : "0x1dcc4de8dec75d7aab85b567b6ccd41ad312451b948a7413f0a142fd40d49347"
                },
                "rlp" : "0xf90264f901f8a03a02ae2cad7c6533fff53c0e4d87de484644cb870e3bdf683adb490cd04b7c18a01dcc4de8dec75d7aab85b567b6ccd41ad312451b948a7413f0a142fd40d49347942adc25665018aa1fe0e6bc666dac8fc2697ff9baa0d1a28b08e36926a83eda1e7f3d0fb1eee1365080c5718a1eb9e39ecbcbaa3d8aa09cd4d9ea3be7c2f26f757ebfda36062f4bc2f46b3f244bd30673f72963697d57a02d69c988c48b51b167d6ff01eabcb6de459fcc62b52957c1c85608c39fadf21fb9010000000000000000000000000000000000000000000000000000000000000000000000000000000000000000000000000000000000000000000000000000000000000000000000000000000000000000000000000000000000000000000000000000000000000000000000000000000000000000000000000000000000000000000000000000000000000000000000000000000000000000000000000000000000000000000000000000000000000000000000000000000000000000000000000000000000000000000000000000000000000000000000000000000000000000000000000000000000000000000000000000000000000000000000000000000000830200000183989680830236688203e880a0b965ceddad401a8022b091b2d9b72e94479de8bd8b65b86c0674044d5cf33cbd88ce98b5988b221075f866f86480018302366894a0000000000000000000000000000000000000008084c04062261ca00732ad0b6c7efd9b1cd2d1dba4835fc97621a2a9a684a1d78842d19a2ebe7d5aa04c5a1223779d015f2c0c4fa197264b30db097dde85b2dc4e758a7bf2d6bd2ec5c0",
                "transactions" : [
                    {
                        "data" : "0xc0406226",
                        "gasLimit" : "0x023668",
                        "gasPrice" : "0x01",
                        "nonce" : "0x00",
                        "r" : "0x0732ad0b6c7efd9b1cd2d1dba4835fc97621a2a9a684a1d78842d19a2ebe7d5a",
                        "s" : "0x4c5a1223779d015f2c0c4fa197264b30db097dde85b2dc4e758a7bf2d6bd2ec5",
                        "to" : "0xa000000000000000000000000000000000000000",
                        "v" : "0x1c",
                        "value" : "0x00"
                    }
                ],
                "uncleHeaders" : [
                ]
            }
        ],
        "genesisBlockHeader" : {
            "bloom" : "0x00000000000000000000000000000000000000000000000000000000000000000000000000000000000000000000000000000000000000000000000000000000000000000000000000000000000000000000000000000000000000000000000000000000000000000000000000000000000000000000000000000000000000000000000000000000000000000000000000000000000000000000000000000000000000000000000000000000000000000000000000000000000000000000000000000000000000000000000000000000000000000000000000000000000000000000000000000000000000000000000000000000000000000000000000000000",
            "coinbase" : "0x2adc25665018aa1fe0e6bc666dac8fc2697ff9ba",
            "difficulty" : "0x020000",
            "extraData" : "0x42",
            "gasLimit" : "0x989680",
            "gasUsed" : "0x00",
            "hash" : "0x3a02ae2cad7c6533fff53c0e4d87de484644cb870e3bdf683adb490cd04b7c18",
            "mixHash" : "0x56e81f171bcc55a6ff8345e692c0f86e5b48e01b996cadc001622fb5e363b421",
            "nonce" : "0x0102030405060708",
            "number" : "0x00",
            "parentHash" : "0x0000000000000000000000000000000000000000000000000000000000000000",
            "receiptTrie" : "0x56e81f171bcc55a6ff8345e692c0f86e5b48e01b996cadc001622fb5e363b421",
            "stateRoot" : "0x27e301526d6c628f31e2d8c3a886baf14d5b8bbfc388e70185afeac73fdb323b",
            "timestamp" : "0x03b6",
            "transactionsTrie" : "0x56e81f171bcc55a6ff8345e692c0f86e5b48e01b996cadc001622fb5e363b421",
            "uncleHash" : "0x1dcc4de8dec75d7aab85b567b6ccd41ad312451b948a7413f0a142fd40d49347"
        },
        "genesisRLP" : "0xf901faf901f5a00000000000000000000000000000000000000000000000000000000000000000a01dcc4de8dec75d7aab85b567b6ccd41ad312451b948a7413f0a142fd40d49347942adc25665018aa1fe0e6bc666dac8fc2697ff9baa027e301526d6c628f31e2d8c3a886baf14d5b8bbfc388e70185afeac73fdb323ba056e81f171bcc55a6ff8345e692c0f86e5b48e01b996cadc001622fb5e363b421a056e81f171bcc55a6ff8345e692c0f86e5b48e01b996cadc001622fb5e363b421b9010000000000000000000000000000000000000000000000000000000000000000000000000000000000000000000000000000000000000000000000000000000000000000000000000000000000000000000000000000000000000000000000000000000000000000000000000000000000000000000000000000000000000000000000000000000000000000000000000000000000000000000000000000000000000000000000000000000000000000000000000000000000000000000000000000000000000000000000000000000000000000000000000000000000000000000000000000000000000000000000000000000000000000000000000000000000830200008083989680808203b642a056e81f171bcc55a6ff8345e692c0f86e5b48e01b996cadc001622fb5e363b421880102030405060708c0c0",
        "lastblockhash" : "0xe0eab18b93143bdeb202e693dbae2a2a1c5e188e0b06cf55cc6ad52b81b4c277",
        "network" : "EIP150",
        "postState" : {
            "0x2adc25665018aa1fe0e6bc666dac8fc2697ff9ba" : {
                "balance" : "0x4563918244f63668",
                "code" : "",
                "nonce" : "0x00",
                "storage" : {
                }
            },
            "0xa000000000000000000000000000000000000000" : {
                "balance" : "0x01",
                "code" : "0x60606040526000357c0100000000000000000000000000000000000000000000000000000000900463ffffffff168063b28175c414610049578063c040622614610058575b610000565b346100005761005661007f565b005b346100005761006561008a565b604051808215151515815260200191505060405180910390f35b600c6000819055505b565b6000600060405161016f80610163833901809050604051809103906000f080156100005790508073ffffffffffffffffffffffffffffffffffffffff166373027f6d306040518263ffffffff167c0100000000000000000000000000000000000000000000000000000000028152600401808273ffffffffffffffffffffffffffffffffffffffff1673ffffffffffffffffffffffffffffffffffffffff168152602001915050600060405180830381600087803b156100005760325a03f11561000057505050600d600181905550600191505b50905600606060405234610000575b610156806100196000396000f30060606040526000357c0100000000000000000000000000000000000000000000000000000000900463ffffffff16806373027f6d1461003e575b610000565b346100005761006f600480803573ffffffffffffffffffffffffffffffffffffffff16906020019091905050610071565b005b8073ffffffffffffffffffffffffffffffffffffffff1660405180807f73746f7228290000000000000000000000000000000000000000000000000000815250600601905060405180910390207c010000000000000000000000000000000000000000000000000000000090046040518163ffffffff167c01000000000000000000000000000000000000000000000000000000000281526004018090506000604051808303816000876161da5a03f192505050505b505600a165627a7a72305820db9c9d1f37fd36768131a0bf9687f465e15b0503452e603be6b6f07b70d72e260029a165627a7a72305820f8ff2f7feef24d01a1cc070e67db9e15ac34810c8e5d1c7f34f3c38148eeae900029",
                "nonce" : "0x00",
                "storage" : {
                }
            },
            "0xa94f5374fce5edbc8e2a8697c15331677e6ebf0b" : {
                "balance" : "0xe8d4a2d998",
                "code" : "",
                "nonce" : "0x01",
                "storage" : {
                }
            }
        },
        "pre" : {
            "0xa000000000000000000000000000000000000000" : {
                "balance" : "0x01",
                "code" : "0x60606040526000357c0100000000000000000000000000000000000000000000000000000000900463ffffffff168063b28175c414610049578063c040622614610058575b610000565b346100005761005661007f565b005b346100005761006561008a565b604051808215151515815260200191505060405180910390f35b600c6000819055505b565b6000600060405161016f80610163833901809050604051809103906000f080156100005790508073ffffffffffffffffffffffffffffffffffffffff166373027f6d306040518263ffffffff167c0100000000000000000000000000000000000000000000000000000000028152600401808273ffffffffffffffffffffffffffffffffffffffff1673ffffffffffffffffffffffffffffffffffffffff168152602001915050600060405180830381600087803b156100005760325a03f11561000057505050600d600181905550600191505b50905600606060405234610000575b610156806100196000396000f30060606040526000357c0100000000000000000000000000000000000000000000000000000000900463ffffffff16806373027f6d1461003e575b610000565b346100005761006f600480803573ffffffffffffffffffffffffffffffffffffffff16906020019091905050610071565b005b8073ffffffffffffffffffffffffffffffffffffffff1660405180807f73746f7228290000000000000000000000000000000000000000000000000000815250600601905060405180910390207c010000000000000000000000000000000000000000000000000000000090046040518163ffffffff167c01000000000000000000000000000000000000000000000000000000000281526004018090506000604051808303816000876161da5a03f192505050505b505600a165627a7a72305820db9c9d1f37fd36768131a0bf9687f465e15b0503452e603be6b6f07b70d72e260029a165627a7a72305820f8ff2f7feef24d01a1cc070e67db9e15ac34810c8e5d1c7f34f3c38148eeae900029",
                "nonce" : "0x00",
                "storage" : {
                }
            },
            "0xa94f5374fce5edbc8e2a8697c15331677e6ebf0b" : {
                "balance" : "0xe8d4a51000",
                "code" : "",
                "nonce" : "0x00",
                "storage" : {
                }
            }
        }
    },
    "RevertRemoteSubCallStorageOOG_d0g2v0_EIP158" : {
        "_info" : {
            "comment" : "",
            "filledwith" : "cpp-1.3.0+commit.ee0c6776.Linux.g++",
            "lllcversion" : "Version: 0.4.20-develop.2018.2.4+commit.c696803f.Linux.g++",
            "source" : "src/BlockchainTestsFiller/GeneralStateTests/stRevertTest/RevertRemoteSubCallStorageOOG_d0g2v0Filler.json",
            "sourceHash" : "3111fb3b018962c7929405b4ad69295870f42573aa0e79f4ba59bd779e200342"
        },
        "blocks" : [
            {
                "blockHeader" : {
                    "bloom" : "0x00000000000000000000000000000000000000000000000000000000000000000000000000000000000000000000000000000000000000000000000000000000000000000000000000000000000000000000000000000000000000000000000000000000000000000000000000000000000000000000000000000000000000000000000000000000000000000000000000000000000000000000000000000000000000000000000000000000000000000000000000000000000000000000000000000000000000000000000000000000000000000000000000000000000000000000000000000000000000000000000000000000000000000000000000000000",
                    "coinbase" : "0x2adc25665018aa1fe0e6bc666dac8fc2697ff9ba",
                    "difficulty" : "0x020000",
                    "extraData" : "",
                    "gasLimit" : "0x989680",
                    "gasUsed" : "0x023668",
                    "hash" : "0x1789bcdac39462f58750272428a4306e0ffddbf9e64f7a987dbf043be75d0c7c",
                    "mixHash" : "0xf6bc4d43d655b99c4ab564dd3297d4e3882ea6f931ebc06bdf193cb7a939ec80",
                    "nonce" : "0xde800e1e240bc4c5",
                    "number" : "0x01",
                    "parentHash" : "0x3a02ae2cad7c6533fff53c0e4d87de484644cb870e3bdf683adb490cd04b7c18",
                    "receiptTrie" : "0x2d69c988c48b51b167d6ff01eabcb6de459fcc62b52957c1c85608c39fadf21f",
                    "stateRoot" : "0xd1a28b08e36926a83eda1e7f3d0fb1eee1365080c5718a1eb9e39ecbcbaa3d8a",
                    "timestamp" : "0x03e8",
                    "transactionsTrie" : "0x9cd4d9ea3be7c2f26f757ebfda36062f4bc2f46b3f244bd30673f72963697d57",
                    "uncleHash" : "0x1dcc4de8dec75d7aab85b567b6ccd41ad312451b948a7413f0a142fd40d49347"
                },
                "rlp" : "0xf90264f901f8a03a02ae2cad7c6533fff53c0e4d87de484644cb870e3bdf683adb490cd04b7c18a01dcc4de8dec75d7aab85b567b6ccd41ad312451b948a7413f0a142fd40d49347942adc25665018aa1fe0e6bc666dac8fc2697ff9baa0d1a28b08e36926a83eda1e7f3d0fb1eee1365080c5718a1eb9e39ecbcbaa3d8aa09cd4d9ea3be7c2f26f757ebfda36062f4bc2f46b3f244bd30673f72963697d57a02d69c988c48b51b167d6ff01eabcb6de459fcc62b52957c1c85608c39fadf21fb9010000000000000000000000000000000000000000000000000000000000000000000000000000000000000000000000000000000000000000000000000000000000000000000000000000000000000000000000000000000000000000000000000000000000000000000000000000000000000000000000000000000000000000000000000000000000000000000000000000000000000000000000000000000000000000000000000000000000000000000000000000000000000000000000000000000000000000000000000000000000000000000000000000000000000000000000000000000000000000000000000000000000000000000000000000000000830200000183989680830236688203e880a0f6bc4d43d655b99c4ab564dd3297d4e3882ea6f931ebc06bdf193cb7a939ec8088de800e1e240bc4c5f866f86480018302366894a0000000000000000000000000000000000000008084c04062261ca00732ad0b6c7efd9b1cd2d1dba4835fc97621a2a9a684a1d78842d19a2ebe7d5aa04c5a1223779d015f2c0c4fa197264b30db097dde85b2dc4e758a7bf2d6bd2ec5c0",
                "transactions" : [
                    {
                        "data" : "0xc0406226",
                        "gasLimit" : "0x023668",
                        "gasPrice" : "0x01",
                        "nonce" : "0x00",
                        "r" : "0x0732ad0b6c7efd9b1cd2d1dba4835fc97621a2a9a684a1d78842d19a2ebe7d5a",
                        "s" : "0x4c5a1223779d015f2c0c4fa197264b30db097dde85b2dc4e758a7bf2d6bd2ec5",
                        "to" : "0xa000000000000000000000000000000000000000",
                        "v" : "0x1c",
                        "value" : "0x00"
                    }
                ],
                "uncleHeaders" : [
                ]
            }
        ],
        "genesisBlockHeader" : {
            "bloom" : "0x00000000000000000000000000000000000000000000000000000000000000000000000000000000000000000000000000000000000000000000000000000000000000000000000000000000000000000000000000000000000000000000000000000000000000000000000000000000000000000000000000000000000000000000000000000000000000000000000000000000000000000000000000000000000000000000000000000000000000000000000000000000000000000000000000000000000000000000000000000000000000000000000000000000000000000000000000000000000000000000000000000000000000000000000000000000",
            "coinbase" : "0x2adc25665018aa1fe0e6bc666dac8fc2697ff9ba",
            "difficulty" : "0x020000",
            "extraData" : "0x42",
            "gasLimit" : "0x989680",
            "gasUsed" : "0x00",
            "hash" : "0x3a02ae2cad7c6533fff53c0e4d87de484644cb870e3bdf683adb490cd04b7c18",
            "mixHash" : "0x56e81f171bcc55a6ff8345e692c0f86e5b48e01b996cadc001622fb5e363b421",
            "nonce" : "0x0102030405060708",
            "number" : "0x00",
            "parentHash" : "0x0000000000000000000000000000000000000000000000000000000000000000",
            "receiptTrie" : "0x56e81f171bcc55a6ff8345e692c0f86e5b48e01b996cadc001622fb5e363b421",
            "stateRoot" : "0x27e301526d6c628f31e2d8c3a886baf14d5b8bbfc388e70185afeac73fdb323b",
            "timestamp" : "0x03b6",
            "transactionsTrie" : "0x56e81f171bcc55a6ff8345e692c0f86e5b48e01b996cadc001622fb5e363b421",
            "uncleHash" : "0x1dcc4de8dec75d7aab85b567b6ccd41ad312451b948a7413f0a142fd40d49347"
        },
        "genesisRLP" : "0xf901faf901f5a00000000000000000000000000000000000000000000000000000000000000000a01dcc4de8dec75d7aab85b567b6ccd41ad312451b948a7413f0a142fd40d49347942adc25665018aa1fe0e6bc666dac8fc2697ff9baa027e301526d6c628f31e2d8c3a886baf14d5b8bbfc388e70185afeac73fdb323ba056e81f171bcc55a6ff8345e692c0f86e5b48e01b996cadc001622fb5e363b421a056e81f171bcc55a6ff8345e692c0f86e5b48e01b996cadc001622fb5e363b421b9010000000000000000000000000000000000000000000000000000000000000000000000000000000000000000000000000000000000000000000000000000000000000000000000000000000000000000000000000000000000000000000000000000000000000000000000000000000000000000000000000000000000000000000000000000000000000000000000000000000000000000000000000000000000000000000000000000000000000000000000000000000000000000000000000000000000000000000000000000000000000000000000000000000000000000000000000000000000000000000000000000000000000000000000000000000000830200008083989680808203b642a056e81f171bcc55a6ff8345e692c0f86e5b48e01b996cadc001622fb5e363b421880102030405060708c0c0",
        "lastblockhash" : "0x1789bcdac39462f58750272428a4306e0ffddbf9e64f7a987dbf043be75d0c7c",
        "network" : "EIP158",
        "postState" : {
            "0x2adc25665018aa1fe0e6bc666dac8fc2697ff9ba" : {
                "balance" : "0x4563918244f63668",
                "code" : "",
                "nonce" : "0x00",
                "storage" : {
                }
            },
            "0xa000000000000000000000000000000000000000" : {
                "balance" : "0x01",
                "code" : "0x60606040526000357c0100000000000000000000000000000000000000000000000000000000900463ffffffff168063b28175c414610049578063c040622614610058575b610000565b346100005761005661007f565b005b346100005761006561008a565b604051808215151515815260200191505060405180910390f35b600c6000819055505b565b6000600060405161016f80610163833901809050604051809103906000f080156100005790508073ffffffffffffffffffffffffffffffffffffffff166373027f6d306040518263ffffffff167c0100000000000000000000000000000000000000000000000000000000028152600401808273ffffffffffffffffffffffffffffffffffffffff1673ffffffffffffffffffffffffffffffffffffffff168152602001915050600060405180830381600087803b156100005760325a03f11561000057505050600d600181905550600191505b50905600606060405234610000575b610156806100196000396000f30060606040526000357c0100000000000000000000000000000000000000000000000000000000900463ffffffff16806373027f6d1461003e575b610000565b346100005761006f600480803573ffffffffffffffffffffffffffffffffffffffff16906020019091905050610071565b005b8073ffffffffffffffffffffffffffffffffffffffff1660405180807f73746f7228290000000000000000000000000000000000000000000000000000815250600601905060405180910390207c010000000000000000000000000000000000000000000000000000000090046040518163ffffffff167c01000000000000000000000000000000000000000000000000000000000281526004018090506000604051808303816000876161da5a03f192505050505b505600a165627a7a72305820db9c9d1f37fd36768131a0bf9687f465e15b0503452e603be6b6f07b70d72e260029a165627a7a72305820f8ff2f7feef24d01a1cc070e67db9e15ac34810c8e5d1c7f34f3c38148eeae900029",
                "nonce" : "0x00",
                "storage" : {
                }
            },
            "0xa94f5374fce5edbc8e2a8697c15331677e6ebf0b" : {
                "balance" : "0xe8d4a2d998",
                "code" : "",
                "nonce" : "0x01",
                "storage" : {
                }
            }
        },
        "pre" : {
            "0xa000000000000000000000000000000000000000" : {
                "balance" : "0x01",
                "code" : "0x60606040526000357c0100000000000000000000000000000000000000000000000000000000900463ffffffff168063b28175c414610049578063c040622614610058575b610000565b346100005761005661007f565b005b346100005761006561008a565b604051808215151515815260200191505060405180910390f35b600c6000819055505b565b6000600060405161016f80610163833901809050604051809103906000f080156100005790508073ffffffffffffffffffffffffffffffffffffffff166373027f6d306040518263ffffffff167c0100000000000000000000000000000000000000000000000000000000028152600401808273ffffffffffffffffffffffffffffffffffffffff1673ffffffffffffffffffffffffffffffffffffffff168152602001915050600060405180830381600087803b156100005760325a03f11561000057505050600d600181905550600191505b50905600606060405234610000575b610156806100196000396000f30060606040526000357c0100000000000000000000000000000000000000000000000000000000900463ffffffff16806373027f6d1461003e575b610000565b346100005761006f600480803573ffffffffffffffffffffffffffffffffffffffff16906020019091905050610071565b005b8073ffffffffffffffffffffffffffffffffffffffff1660405180807f73746f7228290000000000000000000000000000000000000000000000000000815250600601905060405180910390207c010000000000000000000000000000000000000000000000000000000090046040518163ffffffff167c01000000000000000000000000000000000000000000000000000000000281526004018090506000604051808303816000876161da5a03f192505050505b505600a165627a7a72305820db9c9d1f37fd36768131a0bf9687f465e15b0503452e603be6b6f07b70d72e260029a165627a7a72305820f8ff2f7feef24d01a1cc070e67db9e15ac34810c8e5d1c7f34f3c38148eeae900029",
                "nonce" : "0x00",
                "storage" : {
                }
            },
            "0xa94f5374fce5edbc8e2a8697c15331677e6ebf0b" : {
                "balance" : "0xe8d4a51000",
                "code" : "",
                "nonce" : "0x00",
                "storage" : {
                }
            }
        }
    },
    "RevertRemoteSubCallStorageOOG_d0g2v0_Homestead" : {
        "_info" : {
            "comment" : "",
            "filledwith" : "cpp-1.3.0+commit.ee0c6776.Linux.g++",
            "lllcversion" : "Version: 0.4.20-develop.2018.2.4+commit.c696803f.Linux.g++",
            "source" : "src/BlockchainTestsFiller/GeneralStateTests/stRevertTest/RevertRemoteSubCallStorageOOG_d0g2v0Filler.json",
            "sourceHash" : "3111fb3b018962c7929405b4ad69295870f42573aa0e79f4ba59bd779e200342"
        },
        "blocks" : [
            {
                "blockHeader" : {
                    "bloom" : "0x00000000000000000000000000000000000000000000000000000000000000000000000000000000000000000000000000000000000000000000000000000000000000000000000000000000000000000000000000000000000000000000000000000000000000000000000000000000000000000000000000000000000000000000000000000000000000000000000000000000000000000000000000000000000000000000000000000000000000000000000000000000000000000000000000000000000000000000000000000000000000000000000000000000000000000000000000000000000000000000000000000000000000000000000000000000",
                    "coinbase" : "0x2adc25665018aa1fe0e6bc666dac8fc2697ff9ba",
                    "difficulty" : "0x020000",
                    "extraData" : "",
                    "gasLimit" : "0x989680",
                    "gasUsed" : "0x023668",
                    "hash" : "0x38bc1649858e8f13fb983d51cb39e42c40ed6a11088d949771de70e32999ac2c",
                    "mixHash" : "0x6d892b634ca19919e863176dc5661c8fb3aa0340e9baaa7f4ee11a7b731d5711",
                    "nonce" : "0xac036636ec5db4a0",
                    "number" : "0x01",
                    "parentHash" : "0x3a02ae2cad7c6533fff53c0e4d87de484644cb870e3bdf683adb490cd04b7c18",
                    "receiptTrie" : "0x2d69c988c48b51b167d6ff01eabcb6de459fcc62b52957c1c85608c39fadf21f",
                    "stateRoot" : "0xd1a28b08e36926a83eda1e7f3d0fb1eee1365080c5718a1eb9e39ecbcbaa3d8a",
                    "timestamp" : "0x03e8",
                    "transactionsTrie" : "0x9cd4d9ea3be7c2f26f757ebfda36062f4bc2f46b3f244bd30673f72963697d57",
                    "uncleHash" : "0x1dcc4de8dec75d7aab85b567b6ccd41ad312451b948a7413f0a142fd40d49347"
                },
                "rlp" : "0xf90264f901f8a03a02ae2cad7c6533fff53c0e4d87de484644cb870e3bdf683adb490cd04b7c18a01dcc4de8dec75d7aab85b567b6ccd41ad312451b948a7413f0a142fd40d49347942adc25665018aa1fe0e6bc666dac8fc2697ff9baa0d1a28b08e36926a83eda1e7f3d0fb1eee1365080c5718a1eb9e39ecbcbaa3d8aa09cd4d9ea3be7c2f26f757ebfda36062f4bc2f46b3f244bd30673f72963697d57a02d69c988c48b51b167d6ff01eabcb6de459fcc62b52957c1c85608c39fadf21fb9010000000000000000000000000000000000000000000000000000000000000000000000000000000000000000000000000000000000000000000000000000000000000000000000000000000000000000000000000000000000000000000000000000000000000000000000000000000000000000000000000000000000000000000000000000000000000000000000000000000000000000000000000000000000000000000000000000000000000000000000000000000000000000000000000000000000000000000000000000000000000000000000000000000000000000000000000000000000000000000000000000000000000000000000000000000000830200000183989680830236688203e880a06d892b634ca19919e863176dc5661c8fb3aa0340e9baaa7f4ee11a7b731d571188ac036636ec5db4a0f866f86480018302366894a0000000000000000000000000000000000000008084c04062261ca00732ad0b6c7efd9b1cd2d1dba4835fc97621a2a9a684a1d78842d19a2ebe7d5aa04c5a1223779d015f2c0c4fa197264b30db097dde85b2dc4e758a7bf2d6bd2ec5c0",
                "transactions" : [
                    {
                        "data" : "0xc0406226",
                        "gasLimit" : "0x023668",
                        "gasPrice" : "0x01",
                        "nonce" : "0x00",
                        "r" : "0x0732ad0b6c7efd9b1cd2d1dba4835fc97621a2a9a684a1d78842d19a2ebe7d5a",
                        "s" : "0x4c5a1223779d015f2c0c4fa197264b30db097dde85b2dc4e758a7bf2d6bd2ec5",
                        "to" : "0xa000000000000000000000000000000000000000",
                        "v" : "0x1c",
                        "value" : "0x00"
                    }
                ],
                "uncleHeaders" : [
                ]
            }
        ],
        "genesisBlockHeader" : {
            "bloom" : "0x00000000000000000000000000000000000000000000000000000000000000000000000000000000000000000000000000000000000000000000000000000000000000000000000000000000000000000000000000000000000000000000000000000000000000000000000000000000000000000000000000000000000000000000000000000000000000000000000000000000000000000000000000000000000000000000000000000000000000000000000000000000000000000000000000000000000000000000000000000000000000000000000000000000000000000000000000000000000000000000000000000000000000000000000000000000",
            "coinbase" : "0x2adc25665018aa1fe0e6bc666dac8fc2697ff9ba",
            "difficulty" : "0x020000",
            "extraData" : "0x42",
            "gasLimit" : "0x989680",
            "gasUsed" : "0x00",
            "hash" : "0x3a02ae2cad7c6533fff53c0e4d87de484644cb870e3bdf683adb490cd04b7c18",
            "mixHash" : "0x56e81f171bcc55a6ff8345e692c0f86e5b48e01b996cadc001622fb5e363b421",
            "nonce" : "0x0102030405060708",
            "number" : "0x00",
            "parentHash" : "0x0000000000000000000000000000000000000000000000000000000000000000",
            "receiptTrie" : "0x56e81f171bcc55a6ff8345e692c0f86e5b48e01b996cadc001622fb5e363b421",
            "stateRoot" : "0x27e301526d6c628f31e2d8c3a886baf14d5b8bbfc388e70185afeac73fdb323b",
            "timestamp" : "0x03b6",
            "transactionsTrie" : "0x56e81f171bcc55a6ff8345e692c0f86e5b48e01b996cadc001622fb5e363b421",
            "uncleHash" : "0x1dcc4de8dec75d7aab85b567b6ccd41ad312451b948a7413f0a142fd40d49347"
        },
        "genesisRLP" : "0xf901faf901f5a00000000000000000000000000000000000000000000000000000000000000000a01dcc4de8dec75d7aab85b567b6ccd41ad312451b948a7413f0a142fd40d49347942adc25665018aa1fe0e6bc666dac8fc2697ff9baa027e301526d6c628f31e2d8c3a886baf14d5b8bbfc388e70185afeac73fdb323ba056e81f171bcc55a6ff8345e692c0f86e5b48e01b996cadc001622fb5e363b421a056e81f171bcc55a6ff8345e692c0f86e5b48e01b996cadc001622fb5e363b421b9010000000000000000000000000000000000000000000000000000000000000000000000000000000000000000000000000000000000000000000000000000000000000000000000000000000000000000000000000000000000000000000000000000000000000000000000000000000000000000000000000000000000000000000000000000000000000000000000000000000000000000000000000000000000000000000000000000000000000000000000000000000000000000000000000000000000000000000000000000000000000000000000000000000000000000000000000000000000000000000000000000000000000000000000000000000000830200008083989680808203b642a056e81f171bcc55a6ff8345e692c0f86e5b48e01b996cadc001622fb5e363b421880102030405060708c0c0",
        "lastblockhash" : "0x38bc1649858e8f13fb983d51cb39e42c40ed6a11088d949771de70e32999ac2c",
        "network" : "Homestead",
        "postState" : {
            "0x2adc25665018aa1fe0e6bc666dac8fc2697ff9ba" : {
                "balance" : "0x4563918244f63668",
                "code" : "",
                "nonce" : "0x00",
                "storage" : {
                }
            },
            "0xa000000000000000000000000000000000000000" : {
                "balance" : "0x01",
                "code" : "0x60606040526000357c0100000000000000000000000000000000000000000000000000000000900463ffffffff168063b28175c414610049578063c040622614610058575b610000565b346100005761005661007f565b005b346100005761006561008a565b604051808215151515815260200191505060405180910390f35b600c6000819055505b565b6000600060405161016f80610163833901809050604051809103906000f080156100005790508073ffffffffffffffffffffffffffffffffffffffff166373027f6d306040518263ffffffff167c0100000000000000000000000000000000000000000000000000000000028152600401808273ffffffffffffffffffffffffffffffffffffffff1673ffffffffffffffffffffffffffffffffffffffff168152602001915050600060405180830381600087803b156100005760325a03f11561000057505050600d600181905550600191505b50905600606060405234610000575b610156806100196000396000f30060606040526000357c0100000000000000000000000000000000000000000000000000000000900463ffffffff16806373027f6d1461003e575b610000565b346100005761006f600480803573ffffffffffffffffffffffffffffffffffffffff16906020019091905050610071565b005b8073ffffffffffffffffffffffffffffffffffffffff1660405180807f73746f7228290000000000000000000000000000000000000000000000000000815250600601905060405180910390207c010000000000000000000000000000000000000000000000000000000090046040518163ffffffff167c01000000000000000000000000000000000000000000000000000000000281526004018090506000604051808303816000876161da5a03f192505050505b505600a165627a7a72305820db9c9d1f37fd36768131a0bf9687f465e15b0503452e603be6b6f07b70d72e260029a165627a7a72305820f8ff2f7feef24d01a1cc070e67db9e15ac34810c8e5d1c7f34f3c38148eeae900029",
                "nonce" : "0x00",
                "storage" : {
                }
            },
            "0xa94f5374fce5edbc8e2a8697c15331677e6ebf0b" : {
                "balance" : "0xe8d4a2d998",
                "code" : "",
                "nonce" : "0x01",
                "storage" : {
                }
            }
        },
        "pre" : {
            "0xa000000000000000000000000000000000000000" : {
                "balance" : "0x01",
                "code" : "0x60606040526000357c0100000000000000000000000000000000000000000000000000000000900463ffffffff168063b28175c414610049578063c040622614610058575b610000565b346100005761005661007f565b005b346100005761006561008a565b604051808215151515815260200191505060405180910390f35b600c6000819055505b565b6000600060405161016f80610163833901809050604051809103906000f080156100005790508073ffffffffffffffffffffffffffffffffffffffff166373027f6d306040518263ffffffff167c0100000000000000000000000000000000000000000000000000000000028152600401808273ffffffffffffffffffffffffffffffffffffffff1673ffffffffffffffffffffffffffffffffffffffff168152602001915050600060405180830381600087803b156100005760325a03f11561000057505050600d600181905550600191505b50905600606060405234610000575b610156806100196000396000f30060606040526000357c0100000000000000000000000000000000000000000000000000000000900463ffffffff16806373027f6d1461003e575b610000565b346100005761006f600480803573ffffffffffffffffffffffffffffffffffffffff16906020019091905050610071565b005b8073ffffffffffffffffffffffffffffffffffffffff1660405180807f73746f7228290000000000000000000000000000000000000000000000000000815250600601905060405180910390207c010000000000000000000000000000000000000000000000000000000090046040518163ffffffff167c01000000000000000000000000000000000000000000000000000000000281526004018090506000604051808303816000876161da5a03f192505050505b505600a165627a7a72305820db9c9d1f37fd36768131a0bf9687f465e15b0503452e603be6b6f07b70d72e260029a165627a7a72305820f8ff2f7feef24d01a1cc070e67db9e15ac34810c8e5d1c7f34f3c38148eeae900029",
                "nonce" : "0x00",
                "storage" : {
                }
            },
            "0xa94f5374fce5edbc8e2a8697c15331677e6ebf0b" : {
                "balance" : "0xe8d4a51000",
                "code" : "",
                "nonce" : "0x00",
                "storage" : {
                }
            }
        }
    }
}