{
    "RevertOpcodeMultipleSubCalls_d1g2v0_Byzantium" : {
        "_info" : {
            "comment" : "",
            "filledwith" : "cpp-1.3.0+commit.ab4ca6d1.Linux.g++",
            "lllcversion" : "Version: 0.4.20-develop.2018.1.8+commit.2548228b.Linux.g++",
            "source" : "src/BlockchainTestsFiller/GeneralStateTests/stRevertTest/RevertOpcodeMultipleSubCalls_d1g2v0Filler.json",
            "sourceHash" : "bb6207643add89cd25b28140b416a8eb4f5cfa1edef26443f2ee69c3d4538c20"
        },
        "blocks" : [
            {
                "blockHeader" : {
                    "bloom" : "0x00000000000000000000000000000000000000000000000000000000000000000000000000000000000000000000000000000000000000000000000000000000000000000000000000000000000000000000000000000000000000000000000000000000000000000000000000000000000000000000000000000000000000000000000000000000000000000000000000000000000000000000000000000000000000000000000000000000000000000000000000000000000000000000000000000000000000000000000000000000000000000000000000000000000000000000000000000000000000000000000000000000000000000000000000000000",
                    "coinbase" : "0x2adc25665018aa1fe0e6bc666dac8fc2697ff9ba",
                    "difficulty" : "0x020000",
                    "extraData" : "",
                    "gasLimit" : "0x989680",
                    "gasUsed" : "0x021f88",
                    "hash" : "0x8a8dd4c63b9b15cbf3d71d7f6a49c1a9985835d08764dce87c1f16688f9d549c",
                    "mixHash" : "0x97d1fe70822deaf8783730238d3aef2d4866f1c42ab268dec99a8a2aa4539fcf",
                    "nonce" : "0xac1ef9790d6c83be",
                    "number" : "0x01",
                    "parentHash" : "0x9c0c02b9a5a8b304b47336a09b24677ecde4273d5b90accfca80e0e7717310fd",
                    "receiptTrie" : "0x73ffc464b3c71b246e079dec87fc3e85ed52fb232d3aa6abfccceadb47864911",
                    "stateRoot" : "0x95827f25b82775a745ff1d509a0e2480fac89e1d01cae3535eb74a964c9bcb86",
                    "timestamp" : "0x03e8",
                    "transactionsTrie" : "0x49c5a6a09339f07b964fdfd94b4395d9a053c94c5468c7bbfcc2a6b9dc40234e",
                    "uncleHash" : "0x1dcc4de8dec75d7aab85b567b6ccd41ad312451b948a7413f0a142fd40d49347"
                },
                "rlp" : "0xf90280f901f8a09c0c02b9a5a8b304b47336a09b24677ecde4273d5b90accfca80e0e7717310fda01dcc4de8dec75d7aab85b567b6ccd41ad312451b948a7413f0a142fd40d49347942adc25665018aa1fe0e6bc666dac8fc2697ff9baa095827f25b82775a745ff1d509a0e2480fac89e1d01cae3535eb74a964c9bcb86a049c5a6a09339f07b964fdfd94b4395d9a053c94c5468c7bbfcc2a6b9dc40234ea073ffc464b3c71b246e079dec87fc3e85ed52fb232d3aa6abfccceadb47864911b901000000000000000000000000000000000000000000000000000000000000000000000000000000000000000000000000000000000000000000000000000000000000000000000000000000000000000000000000000000000000000000000000000000000000000000000000000000000000000000000000000000000000000000000000000000000000000000000000000000000000000000000000000000000000000000000000000000000000000000000000000000000000000000000000000000000000000000000000000000000000000000000000000000000000000000000000000000000000000000000000000000000000000000000000000000000083020000018398968083021f888203e880a097d1fe70822deaf8783730238d3aef2d4866f1c42ab268dec99a8a2aa4539fcf88ac1ef9790d6c83bef882f88080018302710094ac0000000000000000000000000000000000000080a0000000000000000000000000a1000000000000000000000000000000000000001ca07b03b81099b7f38c4cf743f7d27d48a14ff1fd7ce7586cc74e57400d0331761ea020e07705e8042e6fac9854e051553ea6d71c07591556aa2115f8eb93406f4a24c0",
                "transactions" : [
                    {
                        "data" : "0x000000000000000000000000a100000000000000000000000000000000000000",
                        "gasLimit" : "0x027100",
                        "gasPrice" : "0x01",
                        "nonce" : "0x00",
                        "r" : "0x7b03b81099b7f38c4cf743f7d27d48a14ff1fd7ce7586cc74e57400d0331761e",
                        "s" : "0x20e07705e8042e6fac9854e051553ea6d71c07591556aa2115f8eb93406f4a24",
                        "to" : "0xac00000000000000000000000000000000000000",
                        "v" : "0x1c",
                        "value" : "0x00"
                    }
                ],
                "uncleHeaders" : [
                ]
            }
        ],
        "genesisBlockHeader" : {
            "bloom" : "0x00000000000000000000000000000000000000000000000000000000000000000000000000000000000000000000000000000000000000000000000000000000000000000000000000000000000000000000000000000000000000000000000000000000000000000000000000000000000000000000000000000000000000000000000000000000000000000000000000000000000000000000000000000000000000000000000000000000000000000000000000000000000000000000000000000000000000000000000000000000000000000000000000000000000000000000000000000000000000000000000000000000000000000000000000000000",
            "coinbase" : "0x2adc25665018aa1fe0e6bc666dac8fc2697ff9ba",
            "difficulty" : "0x020000",
            "extraData" : "0x42",
            "gasLimit" : "0x989680",
            "gasUsed" : "0x00",
            "hash" : "0x9c0c02b9a5a8b304b47336a09b24677ecde4273d5b90accfca80e0e7717310fd",
            "mixHash" : "0x56e81f171bcc55a6ff8345e692c0f86e5b48e01b996cadc001622fb5e363b421",
            "nonce" : "0x0102030405060708",
            "number" : "0x00",
            "parentHash" : "0x0000000000000000000000000000000000000000000000000000000000000000",
            "receiptTrie" : "0x56e81f171bcc55a6ff8345e692c0f86e5b48e01b996cadc001622fb5e363b421",
            "stateRoot" : "0x1b33c44accff3f1d7776a868d7edfeb36f680a4e079cb885fd2d1bb1aa621d5e",
            "timestamp" : "0x03b6",
            "transactionsTrie" : "0x56e81f171bcc55a6ff8345e692c0f86e5b48e01b996cadc001622fb5e363b421",
            "uncleHash" : "0x1dcc4de8dec75d7aab85b567b6ccd41ad312451b948a7413f0a142fd40d49347"
        },
        "genesisRLP" : "0xf901faf901f5a00000000000000000000000000000000000000000000000000000000000000000a01dcc4de8dec75d7aab85b567b6ccd41ad312451b948a7413f0a142fd40d49347942adc25665018aa1fe0e6bc666dac8fc2697ff9baa01b33c44accff3f1d7776a868d7edfeb36f680a4e079cb885fd2d1bb1aa621d5ea056e81f171bcc55a6ff8345e692c0f86e5b48e01b996cadc001622fb5e363b421a056e81f171bcc55a6ff8345e692c0f86e5b48e01b996cadc001622fb5e363b421b9010000000000000000000000000000000000000000000000000000000000000000000000000000000000000000000000000000000000000000000000000000000000000000000000000000000000000000000000000000000000000000000000000000000000000000000000000000000000000000000000000000000000000000000000000000000000000000000000000000000000000000000000000000000000000000000000000000000000000000000000000000000000000000000000000000000000000000000000000000000000000000000000000000000000000000000000000000000000000000000000000000000000000000000000000000000000830200008083989680808203b642a056e81f171bcc55a6ff8345e692c0f86e5b48e01b996cadc001622fb5e363b421880102030405060708c0c0",
        "lastblockhash" : "0x8a8dd4c63b9b15cbf3d71d7f6a49c1a9985835d08764dce87c1f16688f9d549c",
        "network" : "Byzantium",
        "postState" : {
            "0x2adc25665018aa1fe0e6bc666dac8fc2697ff9ba" : {
                "balance" : "0x29a2241af62e1f88",
                "code" : "",
                "nonce" : "0x00",
                "storage" : {
                }
            },
            "0xa000000000000000000000000000000000000000" : {
                "balance" : "0x00",
                "code" : "0x6000600060006000600073b00000000000000000000000000000000000000061c350f1600a556000600060006000600073c00000000000000000000000000000000000000061c350f1600b556000600060006000600073d00000000000000000000000000000000000000061c350f1600c55600c600455600c600555",
                "nonce" : "0x00",
                "storage" : {
                }
            },
            "0xa100000000000000000000000000000000000000" : {
                "balance" : "0x00",
                "code" : "0x6000600060006000600073b00000000000000000000000000000000000000061c350f2600a556000600060006000600073c00000000000000000000000000000000000000061c350f2600b556000600060006000600073d00000000000000000000000000000000000000061c350f2600c55600c600455600c600555",
                "nonce" : "0x00",
                "storage" : {
                    "0x04" : "0x0c",
                    "0x05" : "0x0c"
                }
            },
            "0xa200000000000000000000000000000000000000" : {
                "balance" : "0x00",
                "code" : "0x600060006000600073b00000000000000000000000000000000000000061c350f4600a55600060006000600073c00000000000000000000000000000000000000061c350f4600b55600060006000600073d00000000000000000000000000000000000000061c350f4600c55600c600455600c600555",
                "nonce" : "0x00",
                "storage" : {
                }
            },
            "0xa300000000000000000000000000000000000000" : {
                "balance" : "0x00",
                "code" : "0x6000600060006000600073b00000000000000000000000000000000000000061c350f1600a55600060006000600073c00000000000000000000000000000000000000061c350f4600b556000600060006000600073d00000000000000000000000000000000000000061c350f2600c55600c600455600c600555",
                "nonce" : "0x00",
                "storage" : {
                }
            },
            "0xa94f5374fce5edbc8e2a8697c15331677e6ebf0b" : {
                "balance" : "0xe8d4a2f078",
                "code" : "",
                "nonce" : "0x01",
                "storage" : {
                }
            },
            "0xac00000000000000000000000000000000000000" : {
                "balance" : "0x00",
                "code" : "0x6000600060006000346000356203f7a0f1",
                "nonce" : "0x00",
                "storage" : {
                }
            },
            "0xb000000000000000000000000000000000000000" : {
                "balance" : "0x00",
                "code" : "0x600c60015560016000fd",
                "nonce" : "0x00",
                "storage" : {
                }
            },
            "0xc000000000000000000000000000000000000000" : {
                "balance" : "0x00",
                "code" : "0x600c60025560016000fd",
                "nonce" : "0x00",
                "storage" : {
                }
            },
            "0xd000000000000000000000000000000000000000" : {
                "balance" : "0x00",
                "code" : "0x600c60035560016000fd",
                "nonce" : "0x00",
                "storage" : {
                }
            }
        },
        "pre" : {
            "0xa000000000000000000000000000000000000000" : {
                "balance" : "0x00",
                "code" : "0x6000600060006000600073b00000000000000000000000000000000000000061c350f1600a556000600060006000600073c00000000000000000000000000000000000000061c350f1600b556000600060006000600073d00000000000000000000000000000000000000061c350f1600c55600c600455600c600555",
                "nonce" : "0x00",
                "storage" : {
                }
            },
            "0xa100000000000000000000000000000000000000" : {
                "balance" : "0x00",
                "code" : "0x6000600060006000600073b00000000000000000000000000000000000000061c350f2600a556000600060006000600073c00000000000000000000000000000000000000061c350f2600b556000600060006000600073d00000000000000000000000000000000000000061c350f2600c55600c600455600c600555",
                "nonce" : "0x00",
                "storage" : {
                }
            },
            "0xa200000000000000000000000000000000000000" : {
                "balance" : "0x00",
                "code" : "0x600060006000600073b00000000000000000000000000000000000000061c350f4600a55600060006000600073c00000000000000000000000000000000000000061c350f4600b55600060006000600073d00000000000000000000000000000000000000061c350f4600c55600c600455600c600555",
                "nonce" : "0x00",
                "storage" : {
                }
            },
            "0xa300000000000000000000000000000000000000" : {
                "balance" : "0x00",
                "code" : "0x6000600060006000600073b00000000000000000000000000000000000000061c350f1600a55600060006000600073c00000000000000000000000000000000000000061c350f4600b556000600060006000600073d00000000000000000000000000000000000000061c350f2600c55600c600455600c600555",
                "nonce" : "0x00",
                "storage" : {
                }
            },
            "0xa94f5374fce5edbc8e2a8697c15331677e6ebf0b" : {
                "balance" : "0xe8d4a51000",
                "code" : "",
                "nonce" : "0x00",
                "storage" : {
                }
            },
            "0xac00000000000000000000000000000000000000" : {
                "balance" : "0x00",
                "code" : "0x6000600060006000346000356203f7a0f1",
                "nonce" : "0x00",
                "storage" : {
                }
            },
            "0xb000000000000000000000000000000000000000" : {
                "balance" : "0x00",
                "code" : "0x600c60015560016000fd",
                "nonce" : "0x00",
                "storage" : {
                }
            },
            "0xc000000000000000000000000000000000000000" : {
                "balance" : "0x00",
                "code" : "0x600c60025560016000fd",
                "nonce" : "0x00",
                "storage" : {
                }
            },
            "0xd000000000000000000000000000000000000000" : {
                "balance" : "0x00",
                "code" : "0x600c60035560016000fd",
                "nonce" : "0x00",
                "storage" : {
                }
            }
        }
    }
}