{
    "RevertOpcodeInInit_d0g0v0_Byzantium" : {
        "_info" : {
            "comment" : "",
            "filledwith" : "cpp-1.3.0+commit.7b8143d3.Linux.g++",
            "source" : "/src/GenStateTestAsBcTemp/stRevertTest/RevertOpcodeInInit_d0g0v0Filler.json"
        },
        "blocks" : [
            {
                "blockHeader" : {
                    "bloom" : "0x00000000000000000000000000000000000000000000000000000000000000000000000000000000000000000000000000000000000000000000000000000000000000000000000000000000000000000000000000000000000000000000000000000000000000000000000000000000000000000000000000000000000000000000000000000000000000000000000000000000000000000000000000000000000000000000000000000000000000000000000000000000000000000000000000000000000000000000000000000000000000000000000000000000000000000000000000000000000000000000000000000000000000000000000000000000",
                    "coinbase" : "0x2adc25665018aa1fe0e6bc666dac8fc2697ff9ba",
                    "difficulty" : "0x020000",
                    "extraData" : "",
                    "gasLimit" : "0x989680",
                    "gasUsed" : "0x0120b3",
                    "hash" : "0x17daf201aff94e0226ac1a7836d6014e7cab065e9f42189d9c311f242bc49537",
                    "mixHash" : "0x6a168582b95fb34de08bca168d43a66e56bc8d24df249ed2f364952a5d06a6f5",
                    "nonce" : "0x598813fb56f98a48",
                    "number" : "0x01",
                    "parentHash" : "0x35095b1590cfa9eed610b5b60904000ac9a8448da13600b40cc80c26458e7326",
                    "receiptTrie" : "0x055639b53c7883180bc32e4abeabb9e350ca2ee46a3c0801c95078756ce711ab",
                    "stateRoot" : "0x9d7fa970c871d1d020fd91947ec237d94ea511ee29626925517feddcf03a6f41",
                    "timestamp" : "0x03e8",
                    "transactionsTrie" : "0xb2eef9690e462c29f66d10549ba21289953ce2a4fb4a82fb26daa404bb5ffe0f",
                    "uncleHash" : "0x1dcc4de8dec75d7aab85b567b6ccd41ad312451b948a7413f0a142fd40d49347"
                },
                "rlp" : "0xf9025bf901f8a035095b1590cfa9eed610b5b60904000ac9a8448da13600b40cc80c26458e7326a01dcc4de8dec75d7aab85b567b6ccd41ad312451b948a7413f0a142fd40d49347942adc25665018aa1fe0e6bc666dac8fc2697ff9baa09d7fa970c871d1d020fd91947ec237d94ea511ee29626925517feddcf03a6f41a0b2eef9690e462c29f66d10549ba21289953ce2a4fb4a82fb26daa404bb5ffe0fa0055639b53c7883180bc32e4abeabb9e350ca2ee46a3c0801c95078756ce711abb9010000000000000000000000000000000000000000000000000000000000000000000000000000000000000000000000000000000000000000000000000000000000000000000000000000000000000000000000000000000000000000000000000000000000000000000000000000000000000000000000000000000000000000000000000000000000000000000000000000000000000000000000000000000000000000000000000000000000000000000000000000000000000000000000000000000000000000000000000000000000000000000000000000000000000000000000000000000000000000000000000000000000000000000000000000000000830200000183989680830120b38203e880a06a168582b95fb34de08bca168d43a66e56bc8d24df249ed2f364952a5d06a6f588598813fb56f98a48f85df85b80018302710080808f600160005560016000fd60116001551ca0884ea2df20e652e208d0b88719de17a2ac32b45028efe40fc98f12238b846ea0a00de33f06e5928b416a227cc1e6c272c3fe193d27af85bb619164a724ab380194c0",
                "transactions" : [
                    {
                        "data" : "0x600160005560016000fd6011600155",
                        "gasLimit" : "0x027100",
                        "gasPrice" : "0x01",
                        "nonce" : "0x00",
                        "r" : "0x884ea2df20e652e208d0b88719de17a2ac32b45028efe40fc98f12238b846ea0",
                        "s" : "0x0de33f06e5928b416a227cc1e6c272c3fe193d27af85bb619164a724ab380194",
                        "to" : "",
                        "v" : "0x1c",
                        "value" : "0x00"
                    }
                ],
                "uncleHeaders" : [
                ]
            }
        ],
        "genesisBlockHeader" : {
            "bloom" : "0x00000000000000000000000000000000000000000000000000000000000000000000000000000000000000000000000000000000000000000000000000000000000000000000000000000000000000000000000000000000000000000000000000000000000000000000000000000000000000000000000000000000000000000000000000000000000000000000000000000000000000000000000000000000000000000000000000000000000000000000000000000000000000000000000000000000000000000000000000000000000000000000000000000000000000000000000000000000000000000000000000000000000000000000000000000000",
            "coinbase" : "0x2adc25665018aa1fe0e6bc666dac8fc2697ff9ba",
            "difficulty" : "0x020000",
            "extraData" : "0x42",
            "gasLimit" : "0x989680",
            "gasUsed" : "0x00",
            "hash" : "0x35095b1590cfa9eed610b5b60904000ac9a8448da13600b40cc80c26458e7326",
            "mixHash" : "0x56e81f171bcc55a6ff8345e692c0f86e5b48e01b996cadc001622fb5e363b421",
            "nonce" : "0x0102030405060708",
            "number" : "0x00",
            "parentHash" : "0x0000000000000000000000000000000000000000000000000000000000000000",
            "receiptTrie" : "0x56e81f171bcc55a6ff8345e692c0f86e5b48e01b996cadc001622fb5e363b421",
            "stateRoot" : "0x17ca3d673553cbfcf5de4a99ea08088763bbf64aa67ae17a485f585bcc01d3f2",
            "timestamp" : "0x03b6",
            "transactionsTrie" : "0x56e81f171bcc55a6ff8345e692c0f86e5b48e01b996cadc001622fb5e363b421",
            "uncleHash" : "0x1dcc4de8dec75d7aab85b567b6ccd41ad312451b948a7413f0a142fd40d49347"
        },
        "genesisRLP" : "0xf901faf901f5a00000000000000000000000000000000000000000000000000000000000000000a01dcc4de8dec75d7aab85b567b6ccd41ad312451b948a7413f0a142fd40d49347942adc25665018aa1fe0e6bc666dac8fc2697ff9baa017ca3d673553cbfcf5de4a99ea08088763bbf64aa67ae17a485f585bcc01d3f2a056e81f171bcc55a6ff8345e692c0f86e5b48e01b996cadc001622fb5e363b421a056e81f171bcc55a6ff8345e692c0f86e5b48e01b996cadc001622fb5e363b421b9010000000000000000000000000000000000000000000000000000000000000000000000000000000000000000000000000000000000000000000000000000000000000000000000000000000000000000000000000000000000000000000000000000000000000000000000000000000000000000000000000000000000000000000000000000000000000000000000000000000000000000000000000000000000000000000000000000000000000000000000000000000000000000000000000000000000000000000000000000000000000000000000000000000000000000000000000000000000000000000000000000000000000000000000000000000000830200008083989680808203b642a056e81f171bcc55a6ff8345e692c0f86e5b48e01b996cadc001622fb5e363b421880102030405060708c0c0",
        "lastblockhash" : "0x17daf201aff94e0226ac1a7836d6014e7cab065e9f42189d9c311f242bc49537",
        "network" : "Byzantium",
        "postState" : {
            "0x2adc25665018aa1fe0e6bc666dac8fc2697ff9ba" : {
                "balance" : "0x29a2241af62d20b3",
                "code" : "",
                "nonce" : "0x00",
                "storage" : {
                }
            },
            "0xa94f5374fce5edbc8e2a8697c15331677e6ebf0b" : {
                "balance" : "0xe8d4a3ef4d",
                "code" : "",
                "nonce" : "0x01",
                "storage" : {
                }
            }
        },
        "pre" : {
            "0xa94f5374fce5edbc8e2a8697c15331677e6ebf0b" : {
                "balance" : "0xe8d4a51000",
                "code" : "",
                "nonce" : "0x00",
                "storage" : {
                }
            }
        }
    },
    "RevertOpcodeInInit_d0g0v0_Constantinople" : {
        "_info" : {
            "comment" : "",
            "filledwith" : "cpp-1.3.0+commit.7b8143d3.Linux.g++",
            "source" : "/src/GenStateTestAsBcTemp/stRevertTest/RevertOpcodeInInit_d0g0v0Filler.json"
        },
        "blocks" : [
            {
                "blockHeader" : {
                    "bloom" : "0x00000000000000000000000000000000000000000000000000000000000000000000000000000000000000000000000000000000000000000000000000000000000000000000000000000000000000000000000000000000000000000000000000000000000000000000000000000000000000000000000000000000000000000000000000000000000000000000000000000000000000000000000000000000000000000000000000000000000000000000000000000000000000000000000000000000000000000000000000000000000000000000000000000000000000000000000000000000000000000000000000000000000000000000000000000000",
                    "coinbase" : "0x2adc25665018aa1fe0e6bc666dac8fc2697ff9ba",
                    "difficulty" : "0x020000",
                    "extraData" : "",
                    "gasLimit" : "0x989680",
                    "gasUsed" : "0x0120b3",
                    "hash" : "0x6351deb303e6074d04af9e1096d72d24d3085aec10de16c9ffe96a0ce16f4fa8",
                    "mixHash" : "0x3765ac10b3181c83cfc26ccac1b9b815efc145b9ee03aee219541c031f3fbd52",
                    "nonce" : "0x161a3786756ddcfa",
                    "number" : "0x01",
                    "parentHash" : "0x35095b1590cfa9eed610b5b60904000ac9a8448da13600b40cc80c26458e7326",
                    "receiptTrie" : "0x055639b53c7883180bc32e4abeabb9e350ca2ee46a3c0801c95078756ce711ab",
                    "stateRoot" : "0xe613beba7f193ae41250f687d3d613683a3a22a2c9fdd0a5a87d188368cd4b1c",
                    "timestamp" : "0x03e8",
                    "transactionsTrie" : "0xb2eef9690e462c29f66d10549ba21289953ce2a4fb4a82fb26daa404bb5ffe0f",
                    "uncleHash" : "0x1dcc4de8dec75d7aab85b567b6ccd41ad312451b948a7413f0a142fd40d49347"
                },
                "rlp" : "0xf9025bf901f8a035095b1590cfa9eed610b5b60904000ac9a8448da13600b40cc80c26458e7326a01dcc4de8dec75d7aab85b567b6ccd41ad312451b948a7413f0a142fd40d49347942adc25665018aa1fe0e6bc666dac8fc2697ff9baa0e613beba7f193ae41250f687d3d613683a3a22a2c9fdd0a5a87d188368cd4b1ca0b2eef9690e462c29f66d10549ba21289953ce2a4fb4a82fb26daa404bb5ffe0fa0055639b53c7883180bc32e4abeabb9e350ca2ee46a3c0801c95078756ce711abb9010000000000000000000000000000000000000000000000000000000000000000000000000000000000000000000000000000000000000000000000000000000000000000000000000000000000000000000000000000000000000000000000000000000000000000000000000000000000000000000000000000000000000000000000000000000000000000000000000000000000000000000000000000000000000000000000000000000000000000000000000000000000000000000000000000000000000000000000000000000000000000000000000000000000000000000000000000000000000000000000000000000000000000000000000000000000830200000183989680830120b38203e880a03765ac10b3181c83cfc26ccac1b9b815efc145b9ee03aee219541c031f3fbd5288161a3786756ddcfaf85df85b80018302710080808f600160005560016000fd60116001551ca0884ea2df20e652e208d0b88719de17a2ac32b45028efe40fc98f12238b846ea0a00de33f06e5928b416a227cc1e6c272c3fe193d27af85bb619164a724ab380194c0",
                "transactions" : [
                    {
                        "data" : "0x600160005560016000fd6011600155",
                        "gasLimit" : "0x027100",
                        "gasPrice" : "0x01",
                        "nonce" : "0x00",
                        "r" : "0x884ea2df20e652e208d0b88719de17a2ac32b45028efe40fc98f12238b846ea0",
                        "s" : "0x0de33f06e5928b416a227cc1e6c272c3fe193d27af85bb619164a724ab380194",
                        "to" : "",
                        "v" : "0x1c",
                        "value" : "0x00"
                    }
                ],
                "uncleHeaders" : [
                ]
            }
        ],
        "genesisBlockHeader" : {
            "bloom" : "0x00000000000000000000000000000000000000000000000000000000000000000000000000000000000000000000000000000000000000000000000000000000000000000000000000000000000000000000000000000000000000000000000000000000000000000000000000000000000000000000000000000000000000000000000000000000000000000000000000000000000000000000000000000000000000000000000000000000000000000000000000000000000000000000000000000000000000000000000000000000000000000000000000000000000000000000000000000000000000000000000000000000000000000000000000000000",
            "coinbase" : "0x2adc25665018aa1fe0e6bc666dac8fc2697ff9ba",
            "difficulty" : "0x020000",
            "extraData" : "0x42",
            "gasLimit" : "0x989680",
            "gasUsed" : "0x00",
            "hash" : "0x35095b1590cfa9eed610b5b60904000ac9a8448da13600b40cc80c26458e7326",
            "mixHash" : "0x56e81f171bcc55a6ff8345e692c0f86e5b48e01b996cadc001622fb5e363b421",
            "nonce" : "0x0102030405060708",
            "number" : "0x00",
            "parentHash" : "0x0000000000000000000000000000000000000000000000000000000000000000",
            "receiptTrie" : "0x56e81f171bcc55a6ff8345e692c0f86e5b48e01b996cadc001622fb5e363b421",
            "stateRoot" : "0x17ca3d673553cbfcf5de4a99ea08088763bbf64aa67ae17a485f585bcc01d3f2",
            "timestamp" : "0x03b6",
            "transactionsTrie" : "0x56e81f171bcc55a6ff8345e692c0f86e5b48e01b996cadc001622fb5e363b421",
            "uncleHash" : "0x1dcc4de8dec75d7aab85b567b6ccd41ad312451b948a7413f0a142fd40d49347"
        },
        "genesisRLP" : "0xf901faf901f5a00000000000000000000000000000000000000000000000000000000000000000a01dcc4de8dec75d7aab85b567b6ccd41ad312451b948a7413f0a142fd40d49347942adc25665018aa1fe0e6bc666dac8fc2697ff9baa017ca3d673553cbfcf5de4a99ea08088763bbf64aa67ae17a485f585bcc01d3f2a056e81f171bcc55a6ff8345e692c0f86e5b48e01b996cadc001622fb5e363b421a056e81f171bcc55a6ff8345e692c0f86e5b48e01b996cadc001622fb5e363b421b9010000000000000000000000000000000000000000000000000000000000000000000000000000000000000000000000000000000000000000000000000000000000000000000000000000000000000000000000000000000000000000000000000000000000000000000000000000000000000000000000000000000000000000000000000000000000000000000000000000000000000000000000000000000000000000000000000000000000000000000000000000000000000000000000000000000000000000000000000000000000000000000000000000000000000000000000000000000000000000000000000000000000000000000000000000000000830200008083989680808203b642a056e81f171bcc55a6ff8345e692c0f86e5b48e01b996cadc001622fb5e363b421880102030405060708c0c0",
        "lastblockhash" : "0x6351deb303e6074d04af9e1096d72d24d3085aec10de16c9ffe96a0ce16f4fa8",
        "network" : "Constantinople",
        "postState" : {
            "0x00000000000000000000000000000000000000f0" : {
                "balance" : "0x00",
                "code" : "",
                "nonce" : "0x00",
                "storage" : {
                }
            },
            "0x2adc25665018aa1fe0e6bc666dac8fc2697ff9ba" : {
                "balance" : "0x29a2241af62d20b3",
                "code" : "",
                "nonce" : "0x00",
                "storage" : {
                }
            },
            "0xa94f5374fce5edbc8e2a8697c15331677e6ebf0b" : {
                "balance" : "0xe8d4a3ef4d",
                "code" : "",
                "nonce" : "0x01",
                "storage" : {
                }
            }
        },
        "pre" : {
            "0xa94f5374fce5edbc8e2a8697c15331677e6ebf0b" : {
                "balance" : "0xe8d4a51000",
                "code" : "",
                "nonce" : "0x00",
                "storage" : {
                }
            }
        }
    },
    "RevertOpcodeInInit_d0g0v0_EIP150" : {
        "_info" : {
            "comment" : "",
            "filledwith" : "cpp-1.3.0+commit.7b8143d3.Linux.g++",
            "source" : "/src/GenStateTestAsBcTemp/stRevertTest/RevertOpcodeInInit_d0g0v0Filler.json"
        },
        "blocks" : [
            {
                "blockHeader" : {
                    "bloom" : "0x00000000000000000000000000000000000000000000000000000000000000000000000000000000000000000000000000000000000000000000000000000000000000000000000000000000000000000000000000000000000000000000000000000000000000000000000000000000000000000000000000000000000000000000000000000000000000000000000000000000000000000000000000000000000000000000000000000000000000000000000000000000000000000000000000000000000000000000000000000000000000000000000000000000000000000000000000000000000000000000000000000000000000000000000000000000",
                    "coinbase" : "0x2adc25665018aa1fe0e6bc666dac8fc2697ff9ba",
                    "difficulty" : "0x020000",
                    "extraData" : "",
                    "gasLimit" : "0x989680",
                    "gasUsed" : "0x027100",
                    "hash" : "0xe2451a9f690fdfd6c51dad2115a1733ff04ecdc5e56220b642d39495e651f46f",
                    "mixHash" : "0x1c20a9cce9f1fb99dcec244b2529cce2ef0e0dd9fb5fc84e7a60e43c1b89c0f1",
                    "nonce" : "0x84e1ca84a02dd1c8",
                    "number" : "0x01",
                    "parentHash" : "0x35095b1590cfa9eed610b5b60904000ac9a8448da13600b40cc80c26458e7326",
                    "receiptTrie" : "0x46d07390d9e8ea20bb9c6105ec27fde5d2ade2708bd2e97f04ca44acbc63b003",
                    "stateRoot" : "0xff3084198410d872dedc1e4039cbea58fa883a5ca9a28700d2857b3f2711d9c9",
                    "timestamp" : "0x03e8",
                    "transactionsTrie" : "0xb2eef9690e462c29f66d10549ba21289953ce2a4fb4a82fb26daa404bb5ffe0f",
                    "uncleHash" : "0x1dcc4de8dec75d7aab85b567b6ccd41ad312451b948a7413f0a142fd40d49347"
                },
                "rlp" : "0xf9025bf901f8a035095b1590cfa9eed610b5b60904000ac9a8448da13600b40cc80c26458e7326a01dcc4de8dec75d7aab85b567b6ccd41ad312451b948a7413f0a142fd40d49347942adc25665018aa1fe0e6bc666dac8fc2697ff9baa0ff3084198410d872dedc1e4039cbea58fa883a5ca9a28700d2857b3f2711d9c9a0b2eef9690e462c29f66d10549ba21289953ce2a4fb4a82fb26daa404bb5ffe0fa046d07390d9e8ea20bb9c6105ec27fde5d2ade2708bd2e97f04ca44acbc63b003b9010000000000000000000000000000000000000000000000000000000000000000000000000000000000000000000000000000000000000000000000000000000000000000000000000000000000000000000000000000000000000000000000000000000000000000000000000000000000000000000000000000000000000000000000000000000000000000000000000000000000000000000000000000000000000000000000000000000000000000000000000000000000000000000000000000000000000000000000000000000000000000000000000000000000000000000000000000000000000000000000000000000000000000000000000000000000830200000183989680830271008203e880a01c20a9cce9f1fb99dcec244b2529cce2ef0e0dd9fb5fc84e7a60e43c1b89c0f18884e1ca84a02dd1c8f85df85b80018302710080808f600160005560016000fd60116001551ca0884ea2df20e652e208d0b88719de17a2ac32b45028efe40fc98f12238b846ea0a00de33f06e5928b416a227cc1e6c272c3fe193d27af85bb619164a724ab380194c0",
                "transactions" : [
                    {
                        "data" : "0x600160005560016000fd6011600155",
                        "gasLimit" : "0x027100",
                        "gasPrice" : "0x01",
                        "nonce" : "0x00",
                        "r" : "0x884ea2df20e652e208d0b88719de17a2ac32b45028efe40fc98f12238b846ea0",
                        "s" : "0x0de33f06e5928b416a227cc1e6c272c3fe193d27af85bb619164a724ab380194",
                        "to" : "",
                        "v" : "0x1c",
                        "value" : "0x00"
                    }
                ],
                "uncleHeaders" : [
                ]
            }
        ],
        "genesisBlockHeader" : {
            "bloom" : "0x00000000000000000000000000000000000000000000000000000000000000000000000000000000000000000000000000000000000000000000000000000000000000000000000000000000000000000000000000000000000000000000000000000000000000000000000000000000000000000000000000000000000000000000000000000000000000000000000000000000000000000000000000000000000000000000000000000000000000000000000000000000000000000000000000000000000000000000000000000000000000000000000000000000000000000000000000000000000000000000000000000000000000000000000000000000",
            "coinbase" : "0x2adc25665018aa1fe0e6bc666dac8fc2697ff9ba",
            "difficulty" : "0x020000",
            "extraData" : "0x42",
            "gasLimit" : "0x989680",
            "gasUsed" : "0x00",
            "hash" : "0x35095b1590cfa9eed610b5b60904000ac9a8448da13600b40cc80c26458e7326",
            "mixHash" : "0x56e81f171bcc55a6ff8345e692c0f86e5b48e01b996cadc001622fb5e363b421",
            "nonce" : "0x0102030405060708",
            "number" : "0x00",
            "parentHash" : "0x0000000000000000000000000000000000000000000000000000000000000000",
            "receiptTrie" : "0x56e81f171bcc55a6ff8345e692c0f86e5b48e01b996cadc001622fb5e363b421",
            "stateRoot" : "0x17ca3d673553cbfcf5de4a99ea08088763bbf64aa67ae17a485f585bcc01d3f2",
            "timestamp" : "0x03b6",
            "transactionsTrie" : "0x56e81f171bcc55a6ff8345e692c0f86e5b48e01b996cadc001622fb5e363b421",
            "uncleHash" : "0x1dcc4de8dec75d7aab85b567b6ccd41ad312451b948a7413f0a142fd40d49347"
        },
        "genesisRLP" : "0xf901faf901f5a00000000000000000000000000000000000000000000000000000000000000000a01dcc4de8dec75d7aab85b567b6ccd41ad312451b948a7413f0a142fd40d49347942adc25665018aa1fe0e6bc666dac8fc2697ff9baa017ca3d673553cbfcf5de4a99ea08088763bbf64aa67ae17a485f585bcc01d3f2a056e81f171bcc55a6ff8345e692c0f86e5b48e01b996cadc001622fb5e363b421a056e81f171bcc55a6ff8345e692c0f86e5b48e01b996cadc001622fb5e363b421b9010000000000000000000000000000000000000000000000000000000000000000000000000000000000000000000000000000000000000000000000000000000000000000000000000000000000000000000000000000000000000000000000000000000000000000000000000000000000000000000000000000000000000000000000000000000000000000000000000000000000000000000000000000000000000000000000000000000000000000000000000000000000000000000000000000000000000000000000000000000000000000000000000000000000000000000000000000000000000000000000000000000000000000000000000000000000830200008083989680808203b642a056e81f171bcc55a6ff8345e692c0f86e5b48e01b996cadc001622fb5e363b421880102030405060708c0c0",
        "lastblockhash" : "0xe2451a9f690fdfd6c51dad2115a1733ff04ecdc5e56220b642d39495e651f46f",
        "network" : "EIP150",
        "postState" : {
            "0x2adc25665018aa1fe0e6bc666dac8fc2697ff9ba" : {
                "balance" : "0x4563918244f67100",
                "code" : "",
                "nonce" : "0x00",
                "storage" : {
                }
            },
            "0xa94f5374fce5edbc8e2a8697c15331677e6ebf0b" : {
                "balance" : "0xe8d4a29f00",
                "code" : "",
                "nonce" : "0x01",
                "storage" : {
                }
            }
        },
        "pre" : {
            "0xa94f5374fce5edbc8e2a8697c15331677e6ebf0b" : {
                "balance" : "0xe8d4a51000",
                "code" : "",
                "nonce" : "0x00",
                "storage" : {
                }
            }
        }
    },
    "RevertOpcodeInInit_d0g0v0_EIP158" : {
        "_info" : {
            "comment" : "",
            "filledwith" : "cpp-1.3.0+commit.7b8143d3.Linux.g++",
            "source" : "/src/GenStateTestAsBcTemp/stRevertTest/RevertOpcodeInInit_d0g0v0Filler.json"
        },
        "blocks" : [
            {
                "blockHeader" : {
                    "bloom" : "0x00000000000000000000000000000000000000000000000000000000000000000000000000000000000000000000000000000000000000000000000000000000000000000000000000000000000000000000000000000000000000000000000000000000000000000000000000000000000000000000000000000000000000000000000000000000000000000000000000000000000000000000000000000000000000000000000000000000000000000000000000000000000000000000000000000000000000000000000000000000000000000000000000000000000000000000000000000000000000000000000000000000000000000000000000000000",
                    "coinbase" : "0x2adc25665018aa1fe0e6bc666dac8fc2697ff9ba",
                    "difficulty" : "0x020000",
                    "extraData" : "",
                    "gasLimit" : "0x989680",
                    "gasUsed" : "0x027100",
                    "hash" : "0x475d9e21946ad6d0d83cae3bf1809c85288b63572e02a5d59b55dc675d37f3a4",
                    "mixHash" : "0x32c042b3fbdbf19407f957b004b4115f32167e0ff4dff6099c361e8daf8a65cd",
                    "nonce" : "0x1f8399cc9a7aa30e",
                    "number" : "0x01",
                    "parentHash" : "0x35095b1590cfa9eed610b5b60904000ac9a8448da13600b40cc80c26458e7326",
                    "receiptTrie" : "0x46d07390d9e8ea20bb9c6105ec27fde5d2ade2708bd2e97f04ca44acbc63b003",
                    "stateRoot" : "0xff3084198410d872dedc1e4039cbea58fa883a5ca9a28700d2857b3f2711d9c9",
                    "timestamp" : "0x03e8",
                    "transactionsTrie" : "0xb2eef9690e462c29f66d10549ba21289953ce2a4fb4a82fb26daa404bb5ffe0f",
                    "uncleHash" : "0x1dcc4de8dec75d7aab85b567b6ccd41ad312451b948a7413f0a142fd40d49347"
                },
                "rlp" : "0xf9025bf901f8a035095b1590cfa9eed610b5b60904000ac9a8448da13600b40cc80c26458e7326a01dcc4de8dec75d7aab85b567b6ccd41ad312451b948a7413f0a142fd40d49347942adc25665018aa1fe0e6bc666dac8fc2697ff9baa0ff3084198410d872dedc1e4039cbea58fa883a5ca9a28700d2857b3f2711d9c9a0b2eef9690e462c29f66d10549ba21289953ce2a4fb4a82fb26daa404bb5ffe0fa046d07390d9e8ea20bb9c6105ec27fde5d2ade2708bd2e97f04ca44acbc63b003b9010000000000000000000000000000000000000000000000000000000000000000000000000000000000000000000000000000000000000000000000000000000000000000000000000000000000000000000000000000000000000000000000000000000000000000000000000000000000000000000000000000000000000000000000000000000000000000000000000000000000000000000000000000000000000000000000000000000000000000000000000000000000000000000000000000000000000000000000000000000000000000000000000000000000000000000000000000000000000000000000000000000000000000000000000000000000830200000183989680830271008203e880a032c042b3fbdbf19407f957b004b4115f32167e0ff4dff6099c361e8daf8a65cd881f8399cc9a7aa30ef85df85b80018302710080808f600160005560016000fd60116001551ca0884ea2df20e652e208d0b88719de17a2ac32b45028efe40fc98f12238b846ea0a00de33f06e5928b416a227cc1e6c272c3fe193d27af85bb619164a724ab380194c0",
                "transactions" : [
                    {
                        "data" : "0x600160005560016000fd6011600155",
                        "gasLimit" : "0x027100",
                        "gasPrice" : "0x01",
                        "nonce" : "0x00",
                        "r" : "0x884ea2df20e652e208d0b88719de17a2ac32b45028efe40fc98f12238b846ea0",
                        "s" : "0x0de33f06e5928b416a227cc1e6c272c3fe193d27af85bb619164a724ab380194",
                        "to" : "",
                        "v" : "0x1c",
                        "value" : "0x00"
                    }
                ],
                "uncleHeaders" : [
                ]
            }
        ],
        "genesisBlockHeader" : {
            "bloom" : "0x00000000000000000000000000000000000000000000000000000000000000000000000000000000000000000000000000000000000000000000000000000000000000000000000000000000000000000000000000000000000000000000000000000000000000000000000000000000000000000000000000000000000000000000000000000000000000000000000000000000000000000000000000000000000000000000000000000000000000000000000000000000000000000000000000000000000000000000000000000000000000000000000000000000000000000000000000000000000000000000000000000000000000000000000000000000",
            "coinbase" : "0x2adc25665018aa1fe0e6bc666dac8fc2697ff9ba",
            "difficulty" : "0x020000",
            "extraData" : "0x42",
            "gasLimit" : "0x989680",
            "gasUsed" : "0x00",
            "hash" : "0x35095b1590cfa9eed610b5b60904000ac9a8448da13600b40cc80c26458e7326",
            "mixHash" : "0x56e81f171bcc55a6ff8345e692c0f86e5b48e01b996cadc001622fb5e363b421",
            "nonce" : "0x0102030405060708",
            "number" : "0x00",
            "parentHash" : "0x0000000000000000000000000000000000000000000000000000000000000000",
            "receiptTrie" : "0x56e81f171bcc55a6ff8345e692c0f86e5b48e01b996cadc001622fb5e363b421",
            "stateRoot" : "0x17ca3d673553cbfcf5de4a99ea08088763bbf64aa67ae17a485f585bcc01d3f2",
            "timestamp" : "0x03b6",
            "transactionsTrie" : "0x56e81f171bcc55a6ff8345e692c0f86e5b48e01b996cadc001622fb5e363b421",
            "uncleHash" : "0x1dcc4de8dec75d7aab85b567b6ccd41ad312451b948a7413f0a142fd40d49347"
        },
        "genesisRLP" : "0xf901faf901f5a00000000000000000000000000000000000000000000000000000000000000000a01dcc4de8dec75d7aab85b567b6ccd41ad312451b948a7413f0a142fd40d49347942adc25665018aa1fe0e6bc666dac8fc2697ff9baa017ca3d673553cbfcf5de4a99ea08088763bbf64aa67ae17a485f585bcc01d3f2a056e81f171bcc55a6ff8345e692c0f86e5b48e01b996cadc001622fb5e363b421a056e81f171bcc55a6ff8345e692c0f86e5b48e01b996cadc001622fb5e363b421b9010000000000000000000000000000000000000000000000000000000000000000000000000000000000000000000000000000000000000000000000000000000000000000000000000000000000000000000000000000000000000000000000000000000000000000000000000000000000000000000000000000000000000000000000000000000000000000000000000000000000000000000000000000000000000000000000000000000000000000000000000000000000000000000000000000000000000000000000000000000000000000000000000000000000000000000000000000000000000000000000000000000000000000000000000000000000830200008083989680808203b642a056e81f171bcc55a6ff8345e692c0f86e5b48e01b996cadc001622fb5e363b421880102030405060708c0c0",
        "lastblockhash" : "0x475d9e21946ad6d0d83cae3bf1809c85288b63572e02a5d59b55dc675d37f3a4",
        "network" : "EIP158",
        "postState" : {
            "0x2adc25665018aa1fe0e6bc666dac8fc2697ff9ba" : {
                "balance" : "0x4563918244f67100",
                "code" : "",
                "nonce" : "0x00",
                "storage" : {
                }
            },
            "0xa94f5374fce5edbc8e2a8697c15331677e6ebf0b" : {
                "balance" : "0xe8d4a29f00",
                "code" : "",
                "nonce" : "0x01",
                "storage" : {
                }
            }
        },
        "pre" : {
            "0xa94f5374fce5edbc8e2a8697c15331677e6ebf0b" : {
                "balance" : "0xe8d4a51000",
                "code" : "",
                "nonce" : "0x00",
                "storage" : {
                }
            }
        }
    },
    "RevertOpcodeInInit_d0g0v0_Frontier" : {
        "_info" : {
            "comment" : "",
            "filledwith" : "cpp-1.3.0+commit.7b8143d3.Linux.g++",
            "source" : "/src/GenStateTestAsBcTemp/stRevertTest/RevertOpcodeInInit_d0g0v0Filler.json"
        },
        "blocks" : [
            {
                "blockHeader" : {
                    "bloom" : "0x00000000000000000000000000000000000000000000000000000000000000000000000000000000000000000000000000000000000000000000000000000000000000000000000000000000000000000000000000000000000000000000000000000000000000000000000000000000000000000000000000000000000000000000000000000000000000000000000000000000000000000000000000000000000000000000000000000000000000000000000000000000000000000000000000000000000000000000000000000000000000000000000000000000000000000000000000000000000000000000000000000000000000000000000000000000",
                    "coinbase" : "0x2adc25665018aa1fe0e6bc666dac8fc2697ff9ba",
                    "difficulty" : "0x020000",
                    "extraData" : "",
                    "gasLimit" : "0x989680",
                    "gasUsed" : "0x027100",
                    "hash" : "0x49b0dee5161f23f89aa4ff178406ce0dd64e5292c117aaa80e65f36cea2fdb47",
                    "mixHash" : "0x7fbddfa797afb277a0085d4e3eec4232827619e842ac19e021d26ab7adac831e",
                    "nonce" : "0x7ed650f1fb85d27c",
                    "number" : "0x01",
                    "parentHash" : "0x35095b1590cfa9eed610b5b60904000ac9a8448da13600b40cc80c26458e7326",
                    "receiptTrie" : "0x46d07390d9e8ea20bb9c6105ec27fde5d2ade2708bd2e97f04ca44acbc63b003",
                    "stateRoot" : "0xff3084198410d872dedc1e4039cbea58fa883a5ca9a28700d2857b3f2711d9c9",
                    "timestamp" : "0x03e8",
                    "transactionsTrie" : "0xb2eef9690e462c29f66d10549ba21289953ce2a4fb4a82fb26daa404bb5ffe0f",
                    "uncleHash" : "0x1dcc4de8dec75d7aab85b567b6ccd41ad312451b948a7413f0a142fd40d49347"
                },
                "rlp" : "0xf9025bf901f8a035095b1590cfa9eed610b5b60904000ac9a8448da13600b40cc80c26458e7326a01dcc4de8dec75d7aab85b567b6ccd41ad312451b948a7413f0a142fd40d49347942adc25665018aa1fe0e6bc666dac8fc2697ff9baa0ff3084198410d872dedc1e4039cbea58fa883a5ca9a28700d2857b3f2711d9c9a0b2eef9690e462c29f66d10549ba21289953ce2a4fb4a82fb26daa404bb5ffe0fa046d07390d9e8ea20bb9c6105ec27fde5d2ade2708bd2e97f04ca44acbc63b003b9010000000000000000000000000000000000000000000000000000000000000000000000000000000000000000000000000000000000000000000000000000000000000000000000000000000000000000000000000000000000000000000000000000000000000000000000000000000000000000000000000000000000000000000000000000000000000000000000000000000000000000000000000000000000000000000000000000000000000000000000000000000000000000000000000000000000000000000000000000000000000000000000000000000000000000000000000000000000000000000000000000000000000000000000000000000000830200000183989680830271008203e880a07fbddfa797afb277a0085d4e3eec4232827619e842ac19e021d26ab7adac831e887ed650f1fb85d27cf85df85b80018302710080808f600160005560016000fd60116001551ca0884ea2df20e652e208d0b88719de17a2ac32b45028efe40fc98f12238b846ea0a00de33f06e5928b416a227cc1e6c272c3fe193d27af85bb619164a724ab380194c0",
                "transactions" : [
                    {
                        "data" : "0x600160005560016000fd6011600155",
                        "gasLimit" : "0x027100",
                        "gasPrice" : "0x01",
                        "nonce" : "0x00",
                        "r" : "0x884ea2df20e652e208d0b88719de17a2ac32b45028efe40fc98f12238b846ea0",
                        "s" : "0x0de33f06e5928b416a227cc1e6c272c3fe193d27af85bb619164a724ab380194",
                        "to" : "",
                        "v" : "0x1c",
                        "value" : "0x00"
                    }
                ],
                "uncleHeaders" : [
                ]
            }
        ],
        "genesisBlockHeader" : {
            "bloom" : "0x00000000000000000000000000000000000000000000000000000000000000000000000000000000000000000000000000000000000000000000000000000000000000000000000000000000000000000000000000000000000000000000000000000000000000000000000000000000000000000000000000000000000000000000000000000000000000000000000000000000000000000000000000000000000000000000000000000000000000000000000000000000000000000000000000000000000000000000000000000000000000000000000000000000000000000000000000000000000000000000000000000000000000000000000000000000",
            "coinbase" : "0x2adc25665018aa1fe0e6bc666dac8fc2697ff9ba",
            "difficulty" : "0x020000",
            "extraData" : "0x42",
            "gasLimit" : "0x989680",
            "gasUsed" : "0x00",
            "hash" : "0x35095b1590cfa9eed610b5b60904000ac9a8448da13600b40cc80c26458e7326",
            "mixHash" : "0x56e81f171bcc55a6ff8345e692c0f86e5b48e01b996cadc001622fb5e363b421",
            "nonce" : "0x0102030405060708",
            "number" : "0x00",
            "parentHash" : "0x0000000000000000000000000000000000000000000000000000000000000000",
            "receiptTrie" : "0x56e81f171bcc55a6ff8345e692c0f86e5b48e01b996cadc001622fb5e363b421",
            "stateRoot" : "0x17ca3d673553cbfcf5de4a99ea08088763bbf64aa67ae17a485f585bcc01d3f2",
            "timestamp" : "0x03b6",
            "transactionsTrie" : "0x56e81f171bcc55a6ff8345e692c0f86e5b48e01b996cadc001622fb5e363b421",
            "uncleHash" : "0x1dcc4de8dec75d7aab85b567b6ccd41ad312451b948a7413f0a142fd40d49347"
        },
        "genesisRLP" : "0xf901faf901f5a00000000000000000000000000000000000000000000000000000000000000000a01dcc4de8dec75d7aab85b567b6ccd41ad312451b948a7413f0a142fd40d49347942adc25665018aa1fe0e6bc666dac8fc2697ff9baa017ca3d673553cbfcf5de4a99ea08088763bbf64aa67ae17a485f585bcc01d3f2a056e81f171bcc55a6ff8345e692c0f86e5b48e01b996cadc001622fb5e363b421a056e81f171bcc55a6ff8345e692c0f86e5b48e01b996cadc001622fb5e363b421b9010000000000000000000000000000000000000000000000000000000000000000000000000000000000000000000000000000000000000000000000000000000000000000000000000000000000000000000000000000000000000000000000000000000000000000000000000000000000000000000000000000000000000000000000000000000000000000000000000000000000000000000000000000000000000000000000000000000000000000000000000000000000000000000000000000000000000000000000000000000000000000000000000000000000000000000000000000000000000000000000000000000000000000000000000000000000830200008083989680808203b642a056e81f171bcc55a6ff8345e692c0f86e5b48e01b996cadc001622fb5e363b421880102030405060708c0c0",
        "lastblockhash" : "0x49b0dee5161f23f89aa4ff178406ce0dd64e5292c117aaa80e65f36cea2fdb47",
        "network" : "Frontier",
        "postState" : {
            "0x2adc25665018aa1fe0e6bc666dac8fc2697ff9ba" : {
                "balance" : "0x4563918244f67100",
                "code" : "",
                "nonce" : "0x00",
                "storage" : {
                }
            },
            "0xa94f5374fce5edbc8e2a8697c15331677e6ebf0b" : {
                "balance" : "0xe8d4a29f00",
                "code" : "",
                "nonce" : "0x01",
                "storage" : {
                }
            }
        },
        "pre" : {
            "0xa94f5374fce5edbc8e2a8697c15331677e6ebf0b" : {
                "balance" : "0xe8d4a51000",
                "code" : "",
                "nonce" : "0x00",
                "storage" : {
                }
            }
        }
    },
    "RevertOpcodeInInit_d0g0v0_Homestead" : {
        "_info" : {
            "comment" : "",
            "filledwith" : "cpp-1.3.0+commit.7b8143d3.Linux.g++",
            "source" : "/src/GenStateTestAsBcTemp/stRevertTest/RevertOpcodeInInit_d0g0v0Filler.json"
        },
        "blocks" : [
            {
                "blockHeader" : {
                    "bloom" : "0x00000000000000000000000000000000000000000000000000000000000000000000000000000000000000000000000000000000000000000000000000000000000000000000000000000000000000000000000000000000000000000000000000000000000000000000000000000000000000000000000000000000000000000000000000000000000000000000000000000000000000000000000000000000000000000000000000000000000000000000000000000000000000000000000000000000000000000000000000000000000000000000000000000000000000000000000000000000000000000000000000000000000000000000000000000000",
                    "coinbase" : "0x2adc25665018aa1fe0e6bc666dac8fc2697ff9ba",
                    "difficulty" : "0x020000",
                    "extraData" : "",
                    "gasLimit" : "0x989680",
                    "gasUsed" : "0x027100",
                    "hash" : "0x8430f2e5bd97c1395c7edad9a743f1ad095335067c9fe9fa41694dcad6f580bb",
                    "mixHash" : "0xd33b1a16706087dc0df00522a9bfa5bb671d7a41561ee747ff2de9b35ea08c76",
                    "nonce" : "0x7fcbbec44abc20cd",
                    "number" : "0x01",
                    "parentHash" : "0x35095b1590cfa9eed610b5b60904000ac9a8448da13600b40cc80c26458e7326",
                    "receiptTrie" : "0x46d07390d9e8ea20bb9c6105ec27fde5d2ade2708bd2e97f04ca44acbc63b003",
                    "stateRoot" : "0xff3084198410d872dedc1e4039cbea58fa883a5ca9a28700d2857b3f2711d9c9",
                    "timestamp" : "0x03e8",
                    "transactionsTrie" : "0xb2eef9690e462c29f66d10549ba21289953ce2a4fb4a82fb26daa404bb5ffe0f",
                    "uncleHash" : "0x1dcc4de8dec75d7aab85b567b6ccd41ad312451b948a7413f0a142fd40d49347"
                },
                "rlp" : "0xf9025bf901f8a035095b1590cfa9eed610b5b60904000ac9a8448da13600b40cc80c26458e7326a01dcc4de8dec75d7aab85b567b6ccd41ad312451b948a7413f0a142fd40d49347942adc25665018aa1fe0e6bc666dac8fc2697ff9baa0ff3084198410d872dedc1e4039cbea58fa883a5ca9a28700d2857b3f2711d9c9a0b2eef9690e462c29f66d10549ba21289953ce2a4fb4a82fb26daa404bb5ffe0fa046d07390d9e8ea20bb9c6105ec27fde5d2ade2708bd2e97f04ca44acbc63b003b9010000000000000000000000000000000000000000000000000000000000000000000000000000000000000000000000000000000000000000000000000000000000000000000000000000000000000000000000000000000000000000000000000000000000000000000000000000000000000000000000000000000000000000000000000000000000000000000000000000000000000000000000000000000000000000000000000000000000000000000000000000000000000000000000000000000000000000000000000000000000000000000000000000000000000000000000000000000000000000000000000000000000000000000000000000000000830200000183989680830271008203e880a0d33b1a16706087dc0df00522a9bfa5bb671d7a41561ee747ff2de9b35ea08c76887fcbbec44abc20cdf85df85b80018302710080808f600160005560016000fd60116001551ca0884ea2df20e652e208d0b88719de17a2ac32b45028efe40fc98f12238b846ea0a00de33f06e5928b416a227cc1e6c272c3fe193d27af85bb619164a724ab380194c0",
                "transactions" : [
                    {
                        "data" : "0x600160005560016000fd6011600155",
                        "gasLimit" : "0x027100",
                        "gasPrice" : "0x01",
                        "nonce" : "0x00",
                        "r" : "0x884ea2df20e652e208d0b88719de17a2ac32b45028efe40fc98f12238b846ea0",
                        "s" : "0x0de33f06e5928b416a227cc1e6c272c3fe193d27af85bb619164a724ab380194",
                        "to" : "",
                        "v" : "0x1c",
                        "value" : "0x00"
                    }
                ],
                "uncleHeaders" : [
                ]
            }
        ],
        "genesisBlockHeader" : {
            "bloom" : "0x00000000000000000000000000000000000000000000000000000000000000000000000000000000000000000000000000000000000000000000000000000000000000000000000000000000000000000000000000000000000000000000000000000000000000000000000000000000000000000000000000000000000000000000000000000000000000000000000000000000000000000000000000000000000000000000000000000000000000000000000000000000000000000000000000000000000000000000000000000000000000000000000000000000000000000000000000000000000000000000000000000000000000000000000000000000",
            "coinbase" : "0x2adc25665018aa1fe0e6bc666dac8fc2697ff9ba",
            "difficulty" : "0x020000",
            "extraData" : "0x42",
            "gasLimit" : "0x989680",
            "gasUsed" : "0x00",
            "hash" : "0x35095b1590cfa9eed610b5b60904000ac9a8448da13600b40cc80c26458e7326",
            "mixHash" : "0x56e81f171bcc55a6ff8345e692c0f86e5b48e01b996cadc001622fb5e363b421",
            "nonce" : "0x0102030405060708",
            "number" : "0x00",
            "parentHash" : "0x0000000000000000000000000000000000000000000000000000000000000000",
            "receiptTrie" : "0x56e81f171bcc55a6ff8345e692c0f86e5b48e01b996cadc001622fb5e363b421",
            "stateRoot" : "0x17ca3d673553cbfcf5de4a99ea08088763bbf64aa67ae17a485f585bcc01d3f2",
            "timestamp" : "0x03b6",
            "transactionsTrie" : "0x56e81f171bcc55a6ff8345e692c0f86e5b48e01b996cadc001622fb5e363b421",
            "uncleHash" : "0x1dcc4de8dec75d7aab85b567b6ccd41ad312451b948a7413f0a142fd40d49347"
        },
        "genesisRLP" : "0xf901faf901f5a00000000000000000000000000000000000000000000000000000000000000000a01dcc4de8dec75d7aab85b567b6ccd41ad312451b948a7413f0a142fd40d49347942adc25665018aa1fe0e6bc666dac8fc2697ff9baa017ca3d673553cbfcf5de4a99ea08088763bbf64aa67ae17a485f585bcc01d3f2a056e81f171bcc55a6ff8345e692c0f86e5b48e01b996cadc001622fb5e363b421a056e81f171bcc55a6ff8345e692c0f86e5b48e01b996cadc001622fb5e363b421b9010000000000000000000000000000000000000000000000000000000000000000000000000000000000000000000000000000000000000000000000000000000000000000000000000000000000000000000000000000000000000000000000000000000000000000000000000000000000000000000000000000000000000000000000000000000000000000000000000000000000000000000000000000000000000000000000000000000000000000000000000000000000000000000000000000000000000000000000000000000000000000000000000000000000000000000000000000000000000000000000000000000000000000000000000000000000830200008083989680808203b642a056e81f171bcc55a6ff8345e692c0f86e5b48e01b996cadc001622fb5e363b421880102030405060708c0c0",
        "lastblockhash" : "0x8430f2e5bd97c1395c7edad9a743f1ad095335067c9fe9fa41694dcad6f580bb",
        "network" : "Homestead",
        "postState" : {
            "0x2adc25665018aa1fe0e6bc666dac8fc2697ff9ba" : {
                "balance" : "0x4563918244f67100",
                "code" : "",
                "nonce" : "0x00",
                "storage" : {
                }
            },
            "0xa94f5374fce5edbc8e2a8697c15331677e6ebf0b" : {
                "balance" : "0xe8d4a29f00",
                "code" : "",
                "nonce" : "0x01",
                "storage" : {
                }
            }
        },
        "pre" : {
            "0xa94f5374fce5edbc8e2a8697c15331677e6ebf0b" : {
                "balance" : "0xe8d4a51000",
                "code" : "",
                "nonce" : "0x00",
                "storage" : {
                }
            }
        }
    }
}