{
    "RevertSubCallStorageOOG2_d0g0v0_Byzantium" : {
        "_info" : {
            "comment" : "",
            "filledwith" : "cpp-1.3.0+commit.e5cf5910.Linux.g++",
            "lllcversion" : "Version: 0.4.18-develop.2017.9.25+commit.a72237f2.Linux.g++",
            "source" : "src/BlockchainTestsFiller/GeneralStateTests/stRevertTest/RevertSubCallStorageOOG2_d0g0v0Filler.json"
        },
        "blocks" : [
            {
                "blockHeader" : {
                    "bloom" : "0x00000000000000000000000000000000000000000000000000000000000000000000000000000000000000000000000000000000000000000000000000000000000000000000000000000000000000000000000000000000000000000000000000000000000000000000000000000000000000000000000000000000000000000000000000000000000000000000000000000000000000000000000000000000000000000000000000000000000000000000000000000000000000000000000000000000000000000000000000000000000000000000000000000000000000000000000000000000000000000000000000000000000000000000000000000000",
                    "coinbase" : "0x2adc25665018aa1fe0e6bc666dac8fc2697ff9ba",
                    "difficulty" : "0x020000",
                    "extraData" : "",
                    "gasLimit" : "0x989680",
                    "gasUsed" : "0x0103c4",
                    "hash" : "0x9b8557422f212a56a2e4f9336bb58df4da9aa46bb1611d94f1cf1d5d557e9c3a",
                    "mixHash" : "0x84c74a6e59c1da128f5254cc58e0405117dcb115fbb779bdb5c47afee53b55eb",
                    "nonce" : "0xb85b16c0ea4f20a8",
                    "number" : "0x01",
                    "parentHash" : "0x7c700d11409534b7aca1879d490020779a5c324eb69ff33422192be6b150af7d",
                    "receiptTrie" : "0x375bfbef05f31b1b79b46728e0dffaa3f8a9f57635e80dea8eeb3e5548e23ee2",
                    "stateRoot" : "0x5cf7e9c5a90abc35fbe0700f69b83112267e761effb2371eecc6627e045bba4a",
                    "timestamp" : "0x03e8",
                    "transactionsTrie" : "0x345e26059d068a55625b7e7de5e8c8c1d2a02c3ffd5e87cd7fa1e3f4f0200fa5",
                    "uncleHash" : "0x1dcc4de8dec75d7aab85b567b6ccd41ad312451b948a7413f0a142fd40d49347"
                },
                "rlp" : "0xf90264f901f8a07c700d11409534b7aca1879d490020779a5c324eb69ff33422192be6b150af7da01dcc4de8dec75d7aab85b567b6ccd41ad312451b948a7413f0a142fd40d49347942adc25665018aa1fe0e6bc666dac8fc2697ff9baa05cf7e9c5a90abc35fbe0700f69b83112267e761effb2371eecc6627e045bba4aa0345e26059d068a55625b7e7de5e8c8c1d2a02c3ffd5e87cd7fa1e3f4f0200fa5a0375bfbef05f31b1b79b46728e0dffaa3f8a9f57635e80dea8eeb3e5548e23ee2b9010000000000000000000000000000000000000000000000000000000000000000000000000000000000000000000000000000000000000000000000000000000000000000000000000000000000000000000000000000000000000000000000000000000000000000000000000000000000000000000000000000000000000000000000000000000000000000000000000000000000000000000000000000000000000000000000000000000000000000000000000000000000000000000000000000000000000000000000000000000000000000000000000000000000000000000000000000000000000000000000000000000000000000000000000000000000830200000183989680830103c48203e880a084c74a6e59c1da128f5254cc58e0405117dcb115fbb779bdb5c47afee53b55eb88b85b16c0ea4f20a8f866f8648001830103c494a0000000000000000000000000000000000000008084c04062261ba0b15f5ef4913737331a3bbf2a5e778083065c4fc39ba54f1f29fa13e1eed2db36a070386c148497cef012c57c39efcb22c7ed57aae1e577d594a7c348f2c804226dc0",
                "transactions" : [
                    {
                        "data" : "0xc0406226",
                        "gasLimit" : "0x0103c4",
                        "gasPrice" : "0x01",
                        "nonce" : "0x00",
                        "r" : "0xb15f5ef4913737331a3bbf2a5e778083065c4fc39ba54f1f29fa13e1eed2db36",
                        "s" : "0x70386c148497cef012c57c39efcb22c7ed57aae1e577d594a7c348f2c804226d",
                        "to" : "0xa000000000000000000000000000000000000000",
                        "v" : "0x1b",
                        "value" : "0x00"
                    }
                ],
                "uncleHeaders" : [
                ]
            }
        ],
        "genesisBlockHeader" : {
            "bloom" : "0x00000000000000000000000000000000000000000000000000000000000000000000000000000000000000000000000000000000000000000000000000000000000000000000000000000000000000000000000000000000000000000000000000000000000000000000000000000000000000000000000000000000000000000000000000000000000000000000000000000000000000000000000000000000000000000000000000000000000000000000000000000000000000000000000000000000000000000000000000000000000000000000000000000000000000000000000000000000000000000000000000000000000000000000000000000000",
            "coinbase" : "0x2adc25665018aa1fe0e6bc666dac8fc2697ff9ba",
            "difficulty" : "0x020000",
            "extraData" : "0x42",
            "gasLimit" : "0x989680",
            "gasUsed" : "0x00",
            "hash" : "0x7c700d11409534b7aca1879d490020779a5c324eb69ff33422192be6b150af7d",
            "mixHash" : "0x56e81f171bcc55a6ff8345e692c0f86e5b48e01b996cadc001622fb5e363b421",
            "nonce" : "0x0102030405060708",
            "number" : "0x00",
            "parentHash" : "0x0000000000000000000000000000000000000000000000000000000000000000",
            "receiptTrie" : "0x56e81f171bcc55a6ff8345e692c0f86e5b48e01b996cadc001622fb5e363b421",
            "stateRoot" : "0xf353193b99eb46e7a469c00fa91be2359f2eb9278c9287f1e0fdd3f4137074e2",
            "timestamp" : "0x03b6",
            "transactionsTrie" : "0x56e81f171bcc55a6ff8345e692c0f86e5b48e01b996cadc001622fb5e363b421",
            "uncleHash" : "0x1dcc4de8dec75d7aab85b567b6ccd41ad312451b948a7413f0a142fd40d49347"
        },
        "genesisRLP" : "0xf901faf901f5a00000000000000000000000000000000000000000000000000000000000000000a01dcc4de8dec75d7aab85b567b6ccd41ad312451b948a7413f0a142fd40d49347942adc25665018aa1fe0e6bc666dac8fc2697ff9baa0f353193b99eb46e7a469c00fa91be2359f2eb9278c9287f1e0fdd3f4137074e2a056e81f171bcc55a6ff8345e692c0f86e5b48e01b996cadc001622fb5e363b421a056e81f171bcc55a6ff8345e692c0f86e5b48e01b996cadc001622fb5e363b421b9010000000000000000000000000000000000000000000000000000000000000000000000000000000000000000000000000000000000000000000000000000000000000000000000000000000000000000000000000000000000000000000000000000000000000000000000000000000000000000000000000000000000000000000000000000000000000000000000000000000000000000000000000000000000000000000000000000000000000000000000000000000000000000000000000000000000000000000000000000000000000000000000000000000000000000000000000000000000000000000000000000000000000000000000000000000000830200008083989680808203b642a056e81f171bcc55a6ff8345e692c0f86e5b48e01b996cadc001622fb5e363b421880102030405060708c0c0",
        "lastblockhash" : "0x9b8557422f212a56a2e4f9336bb58df4da9aa46bb1611d94f1cf1d5d557e9c3a",
        "network" : "Byzantium",
        "postState" : {
            "0x2adc25665018aa1fe0e6bc666dac8fc2697ff9ba" : {
                "balance" : "0x29a2241af62d03c4",
                "code" : "",
                "nonce" : "0x00",
                "storage" : {
                }
            },
            "0xa000000000000000000000000000000000000000" : {
                "balance" : "0x01",
                "code" : "0x60606040526000357c0100000000000000000000000000000000000000000000000000000000900463ffffffff168063b28175c4146046578063c0406226146052575b6000565b3460005760506076565b005b34600057605c6081565b604051808215151515815260200191505060405180910390f35b600c6000819055505b565b600060896076565b600d600081905550600e6001819055505b905600a165627a7a72305820b7c6987c21e63fed8a74d899557744a3be8d3fda191ce0f56cf261d6b860f6b40029",
                "nonce" : "0x00",
                "storage" : {
                }
            },
            "0xa94f5374fce5edbc8e2a8697c15331677e6ebf0b" : {
                "balance" : "0xe8d4a40c3c",
                "code" : "",
                "nonce" : "0x01",
                "storage" : {
                }
            }
        },
        "pre" : {
            "0xa000000000000000000000000000000000000000" : {
                "balance" : "0x01",
                "code" : "0x60606040526000357c0100000000000000000000000000000000000000000000000000000000900463ffffffff168063b28175c4146046578063c0406226146052575b6000565b3460005760506076565b005b34600057605c6081565b604051808215151515815260200191505060405180910390f35b600c6000819055505b565b600060896076565b600d600081905550600e6001819055505b905600a165627a7a72305820b7c6987c21e63fed8a74d899557744a3be8d3fda191ce0f56cf261d6b860f6b40029",
                "nonce" : "0x00",
                "storage" : {
                }
            },
            "0xa94f5374fce5edbc8e2a8697c15331677e6ebf0b" : {
                "balance" : "0xe8d4a51000",
                "code" : "",
                "nonce" : "0x00",
                "storage" : {
                }
            }
        }
    },
    "RevertSubCallStorageOOG2_d0g0v0_EIP150" : {
        "_info" : {
            "comment" : "",
            "filledwith" : "cpp-1.3.0+commit.e5cf5910.Linux.g++",
            "lllcversion" : "Version: 0.4.18-develop.2017.9.25+commit.a72237f2.Linux.g++",
            "source" : "src/BlockchainTestsFiller/GeneralStateTests/stRevertTest/RevertSubCallStorageOOG2_d0g0v0Filler.json"
        },
        "blocks" : [
            {
                "blockHeader" : {
                    "bloom" : "0x00000000000000000000000000000000000000000000000000000000000000000000000000000000000000000000000000000000000000000000000000000000000000000000000000000000000000000000000000000000000000000000000000000000000000000000000000000000000000000000000000000000000000000000000000000000000000000000000000000000000000000000000000000000000000000000000000000000000000000000000000000000000000000000000000000000000000000000000000000000000000000000000000000000000000000000000000000000000000000000000000000000000000000000000000000000",
                    "coinbase" : "0x2adc25665018aa1fe0e6bc666dac8fc2697ff9ba",
                    "difficulty" : "0x020000",
                    "extraData" : "",
                    "gasLimit" : "0x989680",
                    "gasUsed" : "0x0103c4",
                    "hash" : "0x67518b48a145febec55b001e23b6a48dc87d966c2982f0b378ac65e1296bde3c",
                    "mixHash" : "0xe8acc84581ae10c61c5b4fcca6749defd842ac1c41683f2f1a8cfcdf18d7c601",
                    "nonce" : "0x03f116f5c475c463",
                    "number" : "0x01",
                    "parentHash" : "0x7c700d11409534b7aca1879d490020779a5c324eb69ff33422192be6b150af7d",
                    "receiptTrie" : "0xabf5d6ba2b06c89a5caf70e46758c59440360e06af7dac8c9c926cfe0d5b8470",
                    "stateRoot" : "0x05156c27fe102e04d1ee1bc51f266b2e691629175f94efe9af50ef80aeb89288",
                    "timestamp" : "0x03e8",
                    "transactionsTrie" : "0x345e26059d068a55625b7e7de5e8c8c1d2a02c3ffd5e87cd7fa1e3f4f0200fa5",
                    "uncleHash" : "0x1dcc4de8dec75d7aab85b567b6ccd41ad312451b948a7413f0a142fd40d49347"
                },
                "rlp" : "0xf90264f901f8a07c700d11409534b7aca1879d490020779a5c324eb69ff33422192be6b150af7da01dcc4de8dec75d7aab85b567b6ccd41ad312451b948a7413f0a142fd40d49347942adc25665018aa1fe0e6bc666dac8fc2697ff9baa005156c27fe102e04d1ee1bc51f266b2e691629175f94efe9af50ef80aeb89288a0345e26059d068a55625b7e7de5e8c8c1d2a02c3ffd5e87cd7fa1e3f4f0200fa5a0abf5d6ba2b06c89a5caf70e46758c59440360e06af7dac8c9c926cfe0d5b8470b9010000000000000000000000000000000000000000000000000000000000000000000000000000000000000000000000000000000000000000000000000000000000000000000000000000000000000000000000000000000000000000000000000000000000000000000000000000000000000000000000000000000000000000000000000000000000000000000000000000000000000000000000000000000000000000000000000000000000000000000000000000000000000000000000000000000000000000000000000000000000000000000000000000000000000000000000000000000000000000000000000000000000000000000000000000000000830200000183989680830103c48203e880a0e8acc84581ae10c61c5b4fcca6749defd842ac1c41683f2f1a8cfcdf18d7c6018803f116f5c475c463f866f8648001830103c494a0000000000000000000000000000000000000008084c04062261ba0b15f5ef4913737331a3bbf2a5e778083065c4fc39ba54f1f29fa13e1eed2db36a070386c148497cef012c57c39efcb22c7ed57aae1e577d594a7c348f2c804226dc0",
                "transactions" : [
                    {
                        "data" : "0xc0406226",
                        "gasLimit" : "0x0103c4",
                        "gasPrice" : "0x01",
                        "nonce" : "0x00",
                        "r" : "0xb15f5ef4913737331a3bbf2a5e778083065c4fc39ba54f1f29fa13e1eed2db36",
                        "s" : "0x70386c148497cef012c57c39efcb22c7ed57aae1e577d594a7c348f2c804226d",
                        "to" : "0xa000000000000000000000000000000000000000",
                        "v" : "0x1b",
                        "value" : "0x00"
                    }
                ],
                "uncleHeaders" : [
                ]
            }
        ],
        "genesisBlockHeader" : {
            "bloom" : "0x00000000000000000000000000000000000000000000000000000000000000000000000000000000000000000000000000000000000000000000000000000000000000000000000000000000000000000000000000000000000000000000000000000000000000000000000000000000000000000000000000000000000000000000000000000000000000000000000000000000000000000000000000000000000000000000000000000000000000000000000000000000000000000000000000000000000000000000000000000000000000000000000000000000000000000000000000000000000000000000000000000000000000000000000000000000",
            "coinbase" : "0x2adc25665018aa1fe0e6bc666dac8fc2697ff9ba",
            "difficulty" : "0x020000",
            "extraData" : "0x42",
            "gasLimit" : "0x989680",
            "gasUsed" : "0x00",
            "hash" : "0x7c700d11409534b7aca1879d490020779a5c324eb69ff33422192be6b150af7d",
            "mixHash" : "0x56e81f171bcc55a6ff8345e692c0f86e5b48e01b996cadc001622fb5e363b421",
            "nonce" : "0x0102030405060708",
            "number" : "0x00",
            "parentHash" : "0x0000000000000000000000000000000000000000000000000000000000000000",
            "receiptTrie" : "0x56e81f171bcc55a6ff8345e692c0f86e5b48e01b996cadc001622fb5e363b421",
            "stateRoot" : "0xf353193b99eb46e7a469c00fa91be2359f2eb9278c9287f1e0fdd3f4137074e2",
            "timestamp" : "0x03b6",
            "transactionsTrie" : "0x56e81f171bcc55a6ff8345e692c0f86e5b48e01b996cadc001622fb5e363b421",
            "uncleHash" : "0x1dcc4de8dec75d7aab85b567b6ccd41ad312451b948a7413f0a142fd40d49347"
        },
        "genesisRLP" : "0xf901faf901f5a00000000000000000000000000000000000000000000000000000000000000000a01dcc4de8dec75d7aab85b567b6ccd41ad312451b948a7413f0a142fd40d49347942adc25665018aa1fe0e6bc666dac8fc2697ff9baa0f353193b99eb46e7a469c00fa91be2359f2eb9278c9287f1e0fdd3f4137074e2a056e81f171bcc55a6ff8345e692c0f86e5b48e01b996cadc001622fb5e363b421a056e81f171bcc55a6ff8345e692c0f86e5b48e01b996cadc001622fb5e363b421b9010000000000000000000000000000000000000000000000000000000000000000000000000000000000000000000000000000000000000000000000000000000000000000000000000000000000000000000000000000000000000000000000000000000000000000000000000000000000000000000000000000000000000000000000000000000000000000000000000000000000000000000000000000000000000000000000000000000000000000000000000000000000000000000000000000000000000000000000000000000000000000000000000000000000000000000000000000000000000000000000000000000000000000000000000000000000830200008083989680808203b642a056e81f171bcc55a6ff8345e692c0f86e5b48e01b996cadc001622fb5e363b421880102030405060708c0c0",
        "lastblockhash" : "0x67518b48a145febec55b001e23b6a48dc87d966c2982f0b378ac65e1296bde3c",
        "network" : "EIP150",
        "postState" : {
            "0x2adc25665018aa1fe0e6bc666dac8fc2697ff9ba" : {
                "balance" : "0x4563918244f503c4",
                "code" : "",
                "nonce" : "0x00",
                "storage" : {
                }
            },
            "0xa000000000000000000000000000000000000000" : {
                "balance" : "0x01",
                "code" : "0x60606040526000357c0100000000000000000000000000000000000000000000000000000000900463ffffffff168063b28175c4146046578063c0406226146052575b6000565b3460005760506076565b005b34600057605c6081565b604051808215151515815260200191505060405180910390f35b600c6000819055505b565b600060896076565b600d600081905550600e6001819055505b905600a165627a7a72305820b7c6987c21e63fed8a74d899557744a3be8d3fda191ce0f56cf261d6b860f6b40029",
                "nonce" : "0x00",
                "storage" : {
                }
            },
            "0xa94f5374fce5edbc8e2a8697c15331677e6ebf0b" : {
                "balance" : "0xe8d4a40c3c",
                "code" : "",
                "nonce" : "0x01",
                "storage" : {
                }
            }
        },
        "pre" : {
            "0xa000000000000000000000000000000000000000" : {
                "balance" : "0x01",
                "code" : "0x60606040526000357c0100000000000000000000000000000000000000000000000000000000900463ffffffff168063b28175c4146046578063c0406226146052575b6000565b3460005760506076565b005b34600057605c6081565b604051808215151515815260200191505060405180910390f35b600c6000819055505b565b600060896076565b600d600081905550600e6001819055505b905600a165627a7a72305820b7c6987c21e63fed8a74d899557744a3be8d3fda191ce0f56cf261d6b860f6b40029",
                "nonce" : "0x00",
                "storage" : {
                }
            },
            "0xa94f5374fce5edbc8e2a8697c15331677e6ebf0b" : {
                "balance" : "0xe8d4a51000",
                "code" : "",
                "nonce" : "0x00",
                "storage" : {
                }
            }
        }
    },
    "RevertSubCallStorageOOG2_d0g0v0_EIP158" : {
        "_info" : {
            "comment" : "",
            "filledwith" : "cpp-1.3.0+commit.e5cf5910.Linux.g++",
            "lllcversion" : "Version: 0.4.18-develop.2017.9.25+commit.a72237f2.Linux.g++",
            "source" : "src/BlockchainTestsFiller/GeneralStateTests/stRevertTest/RevertSubCallStorageOOG2_d0g0v0Filler.json"
        },
        "blocks" : [
            {
                "blockHeader" : {
                    "bloom" : "0x00000000000000000000000000000000000000000000000000000000000000000000000000000000000000000000000000000000000000000000000000000000000000000000000000000000000000000000000000000000000000000000000000000000000000000000000000000000000000000000000000000000000000000000000000000000000000000000000000000000000000000000000000000000000000000000000000000000000000000000000000000000000000000000000000000000000000000000000000000000000000000000000000000000000000000000000000000000000000000000000000000000000000000000000000000000",
                    "coinbase" : "0x2adc25665018aa1fe0e6bc666dac8fc2697ff9ba",
                    "difficulty" : "0x020000",
                    "extraData" : "",
                    "gasLimit" : "0x989680",
                    "gasUsed" : "0x0103c4",
                    "hash" : "0xc9cbb5349a090c60667dcec770ab5eddeeb73022ab65ba1ce5b5bdcea0f63772",
                    "mixHash" : "0xb30a486f097f69b33368c9947611cafaea267edb999af78c36aa87ca51127a60",
                    "nonce" : "0xc2c0e09a5ca2d06e",
                    "number" : "0x01",
                    "parentHash" : "0x7c700d11409534b7aca1879d490020779a5c324eb69ff33422192be6b150af7d",
                    "receiptTrie" : "0xabf5d6ba2b06c89a5caf70e46758c59440360e06af7dac8c9c926cfe0d5b8470",
                    "stateRoot" : "0x05156c27fe102e04d1ee1bc51f266b2e691629175f94efe9af50ef80aeb89288",
                    "timestamp" : "0x03e8",
                    "transactionsTrie" : "0x345e26059d068a55625b7e7de5e8c8c1d2a02c3ffd5e87cd7fa1e3f4f0200fa5",
                    "uncleHash" : "0x1dcc4de8dec75d7aab85b567b6ccd41ad312451b948a7413f0a142fd40d49347"
                },
                "rlp" : "0xf90264f901f8a07c700d11409534b7aca1879d490020779a5c324eb69ff33422192be6b150af7da01dcc4de8dec75d7aab85b567b6ccd41ad312451b948a7413f0a142fd40d49347942adc25665018aa1fe0e6bc666dac8fc2697ff9baa005156c27fe102e04d1ee1bc51f266b2e691629175f94efe9af50ef80aeb89288a0345e26059d068a55625b7e7de5e8c8c1d2a02c3ffd5e87cd7fa1e3f4f0200fa5a0abf5d6ba2b06c89a5caf70e46758c59440360e06af7dac8c9c926cfe0d5b8470b9010000000000000000000000000000000000000000000000000000000000000000000000000000000000000000000000000000000000000000000000000000000000000000000000000000000000000000000000000000000000000000000000000000000000000000000000000000000000000000000000000000000000000000000000000000000000000000000000000000000000000000000000000000000000000000000000000000000000000000000000000000000000000000000000000000000000000000000000000000000000000000000000000000000000000000000000000000000000000000000000000000000000000000000000000000000000830200000183989680830103c48203e880a0b30a486f097f69b33368c9947611cafaea267edb999af78c36aa87ca51127a6088c2c0e09a5ca2d06ef866f8648001830103c494a0000000000000000000000000000000000000008084c04062261ba0b15f5ef4913737331a3bbf2a5e778083065c4fc39ba54f1f29fa13e1eed2db36a070386c148497cef012c57c39efcb22c7ed57aae1e577d594a7c348f2c804226dc0",
                "transactions" : [
                    {
                        "data" : "0xc0406226",
                        "gasLimit" : "0x0103c4",
                        "gasPrice" : "0x01",
                        "nonce" : "0x00",
                        "r" : "0xb15f5ef4913737331a3bbf2a5e778083065c4fc39ba54f1f29fa13e1eed2db36",
                        "s" : "0x70386c148497cef012c57c39efcb22c7ed57aae1e577d594a7c348f2c804226d",
                        "to" : "0xa000000000000000000000000000000000000000",
                        "v" : "0x1b",
                        "value" : "0x00"
                    }
                ],
                "uncleHeaders" : [
                ]
            }
        ],
        "genesisBlockHeader" : {
            "bloom" : "0x00000000000000000000000000000000000000000000000000000000000000000000000000000000000000000000000000000000000000000000000000000000000000000000000000000000000000000000000000000000000000000000000000000000000000000000000000000000000000000000000000000000000000000000000000000000000000000000000000000000000000000000000000000000000000000000000000000000000000000000000000000000000000000000000000000000000000000000000000000000000000000000000000000000000000000000000000000000000000000000000000000000000000000000000000000000",
            "coinbase" : "0x2adc25665018aa1fe0e6bc666dac8fc2697ff9ba",
            "difficulty" : "0x020000",
            "extraData" : "0x42",
            "gasLimit" : "0x989680",
            "gasUsed" : "0x00",
            "hash" : "0x7c700d11409534b7aca1879d490020779a5c324eb69ff33422192be6b150af7d",
            "mixHash" : "0x56e81f171bcc55a6ff8345e692c0f86e5b48e01b996cadc001622fb5e363b421",
            "nonce" : "0x0102030405060708",
            "number" : "0x00",
            "parentHash" : "0x0000000000000000000000000000000000000000000000000000000000000000",
            "receiptTrie" : "0x56e81f171bcc55a6ff8345e692c0f86e5b48e01b996cadc001622fb5e363b421",
            "stateRoot" : "0xf353193b99eb46e7a469c00fa91be2359f2eb9278c9287f1e0fdd3f4137074e2",
            "timestamp" : "0x03b6",
            "transactionsTrie" : "0x56e81f171bcc55a6ff8345e692c0f86e5b48e01b996cadc001622fb5e363b421",
            "uncleHash" : "0x1dcc4de8dec75d7aab85b567b6ccd41ad312451b948a7413f0a142fd40d49347"
        },
        "genesisRLP" : "0xf901faf901f5a00000000000000000000000000000000000000000000000000000000000000000a01dcc4de8dec75d7aab85b567b6ccd41ad312451b948a7413f0a142fd40d49347942adc25665018aa1fe0e6bc666dac8fc2697ff9baa0f353193b99eb46e7a469c00fa91be2359f2eb9278c9287f1e0fdd3f4137074e2a056e81f171bcc55a6ff8345e692c0f86e5b48e01b996cadc001622fb5e363b421a056e81f171bcc55a6ff8345e692c0f86e5b48e01b996cadc001622fb5e363b421b9010000000000000000000000000000000000000000000000000000000000000000000000000000000000000000000000000000000000000000000000000000000000000000000000000000000000000000000000000000000000000000000000000000000000000000000000000000000000000000000000000000000000000000000000000000000000000000000000000000000000000000000000000000000000000000000000000000000000000000000000000000000000000000000000000000000000000000000000000000000000000000000000000000000000000000000000000000000000000000000000000000000000000000000000000000000000830200008083989680808203b642a056e81f171bcc55a6ff8345e692c0f86e5b48e01b996cadc001622fb5e363b421880102030405060708c0c0",
        "lastblockhash" : "0xc9cbb5349a090c60667dcec770ab5eddeeb73022ab65ba1ce5b5bdcea0f63772",
        "network" : "EIP158",
        "postState" : {
            "0x2adc25665018aa1fe0e6bc666dac8fc2697ff9ba" : {
                "balance" : "0x4563918244f503c4",
                "code" : "",
                "nonce" : "0x00",
                "storage" : {
                }
            },
            "0xa000000000000000000000000000000000000000" : {
                "balance" : "0x01",
                "code" : "0x60606040526000357c0100000000000000000000000000000000000000000000000000000000900463ffffffff168063b28175c4146046578063c0406226146052575b6000565b3460005760506076565b005b34600057605c6081565b604051808215151515815260200191505060405180910390f35b600c6000819055505b565b600060896076565b600d600081905550600e6001819055505b905600a165627a7a72305820b7c6987c21e63fed8a74d899557744a3be8d3fda191ce0f56cf261d6b860f6b40029",
                "nonce" : "0x00",
                "storage" : {
                }
            },
            "0xa94f5374fce5edbc8e2a8697c15331677e6ebf0b" : {
                "balance" : "0xe8d4a40c3c",
                "code" : "",
                "nonce" : "0x01",
                "storage" : {
                }
            }
        },
        "pre" : {
            "0xa000000000000000000000000000000000000000" : {
                "balance" : "0x01",
                "code" : "0x60606040526000357c0100000000000000000000000000000000000000000000000000000000900463ffffffff168063b28175c4146046578063c0406226146052575b6000565b3460005760506076565b005b34600057605c6081565b604051808215151515815260200191505060405180910390f35b600c6000819055505b565b600060896076565b600d600081905550600e6001819055505b905600a165627a7a72305820b7c6987c21e63fed8a74d899557744a3be8d3fda191ce0f56cf261d6b860f6b40029",
                "nonce" : "0x00",
                "storage" : {
                }
            },
            "0xa94f5374fce5edbc8e2a8697c15331677e6ebf0b" : {
                "balance" : "0xe8d4a51000",
                "code" : "",
                "nonce" : "0x00",
                "storage" : {
                }
            }
        }
    },
    "RevertSubCallStorageOOG2_d0g0v0_Frontier" : {
        "_info" : {
            "comment" : "",
            "filledwith" : "cpp-1.3.0+commit.e5cf5910.Linux.g++",
            "lllcversion" : "Version: 0.4.18-develop.2017.9.25+commit.a72237f2.Linux.g++",
            "source" : "src/BlockchainTestsFiller/GeneralStateTests/stRevertTest/RevertSubCallStorageOOG2_d0g0v0Filler.json"
        },
        "blocks" : [
            {
                "blockHeader" : {
                    "bloom" : "0x00000000000000000000000000000000000000000000000000000000000000000000000000000000000000000000000000000000000000000000000000000000000000000000000000000000000000000000000000000000000000000000000000000000000000000000000000000000000000000000000000000000000000000000000000000000000000000000000000000000000000000000000000000000000000000000000000000000000000000000000000000000000000000000000000000000000000000000000000000000000000000000000000000000000000000000000000000000000000000000000000000000000000000000000000000000",
                    "coinbase" : "0x2adc25665018aa1fe0e6bc666dac8fc2697ff9ba",
                    "difficulty" : "0x020000",
                    "extraData" : "",
                    "gasLimit" : "0x989680",
                    "gasUsed" : "0x0103c4",
                    "hash" : "0xc57d097002dc6c110c40155b9b83b5cd5b7f3f1426bd7e09fdeca1a98d595548",
                    "mixHash" : "0xe71369e5bdfe944859b9d78e2d0268a5199fe879be90e8364cee43cc3ec636d5",
                    "nonce" : "0xc540e764e78f2dc3",
                    "number" : "0x01",
                    "parentHash" : "0x7c700d11409534b7aca1879d490020779a5c324eb69ff33422192be6b150af7d",
                    "receiptTrie" : "0xabf5d6ba2b06c89a5caf70e46758c59440360e06af7dac8c9c926cfe0d5b8470",
                    "stateRoot" : "0x05156c27fe102e04d1ee1bc51f266b2e691629175f94efe9af50ef80aeb89288",
                    "timestamp" : "0x03e8",
                    "transactionsTrie" : "0x345e26059d068a55625b7e7de5e8c8c1d2a02c3ffd5e87cd7fa1e3f4f0200fa5",
                    "uncleHash" : "0x1dcc4de8dec75d7aab85b567b6ccd41ad312451b948a7413f0a142fd40d49347"
                },
                "rlp" : "0xf90264f901f8a07c700d11409534b7aca1879d490020779a5c324eb69ff33422192be6b150af7da01dcc4de8dec75d7aab85b567b6ccd41ad312451b948a7413f0a142fd40d49347942adc25665018aa1fe0e6bc666dac8fc2697ff9baa005156c27fe102e04d1ee1bc51f266b2e691629175f94efe9af50ef80aeb89288a0345e26059d068a55625b7e7de5e8c8c1d2a02c3ffd5e87cd7fa1e3f4f0200fa5a0abf5d6ba2b06c89a5caf70e46758c59440360e06af7dac8c9c926cfe0d5b8470b9010000000000000000000000000000000000000000000000000000000000000000000000000000000000000000000000000000000000000000000000000000000000000000000000000000000000000000000000000000000000000000000000000000000000000000000000000000000000000000000000000000000000000000000000000000000000000000000000000000000000000000000000000000000000000000000000000000000000000000000000000000000000000000000000000000000000000000000000000000000000000000000000000000000000000000000000000000000000000000000000000000000000000000000000000000000000830200000183989680830103c48203e880a0e71369e5bdfe944859b9d78e2d0268a5199fe879be90e8364cee43cc3ec636d588c540e764e78f2dc3f866f8648001830103c494a0000000000000000000000000000000000000008084c04062261ba0b15f5ef4913737331a3bbf2a5e778083065c4fc39ba54f1f29fa13e1eed2db36a070386c148497cef012c57c39efcb22c7ed57aae1e577d594a7c348f2c804226dc0",
                "transactions" : [
                    {
                        "data" : "0xc0406226",
                        "gasLimit" : "0x0103c4",
                        "gasPrice" : "0x01",
                        "nonce" : "0x00",
                        "r" : "0xb15f5ef4913737331a3bbf2a5e778083065c4fc39ba54f1f29fa13e1eed2db36",
                        "s" : "0x70386c148497cef012c57c39efcb22c7ed57aae1e577d594a7c348f2c804226d",
                        "to" : "0xa000000000000000000000000000000000000000",
                        "v" : "0x1b",
                        "value" : "0x00"
                    }
                ],
                "uncleHeaders" : [
                ]
            }
        ],
        "genesisBlockHeader" : {
            "bloom" : "0x00000000000000000000000000000000000000000000000000000000000000000000000000000000000000000000000000000000000000000000000000000000000000000000000000000000000000000000000000000000000000000000000000000000000000000000000000000000000000000000000000000000000000000000000000000000000000000000000000000000000000000000000000000000000000000000000000000000000000000000000000000000000000000000000000000000000000000000000000000000000000000000000000000000000000000000000000000000000000000000000000000000000000000000000000000000",
            "coinbase" : "0x2adc25665018aa1fe0e6bc666dac8fc2697ff9ba",
            "difficulty" : "0x020000",
            "extraData" : "0x42",
            "gasLimit" : "0x989680",
            "gasUsed" : "0x00",
            "hash" : "0x7c700d11409534b7aca1879d490020779a5c324eb69ff33422192be6b150af7d",
            "mixHash" : "0x56e81f171bcc55a6ff8345e692c0f86e5b48e01b996cadc001622fb5e363b421",
            "nonce" : "0x0102030405060708",
            "number" : "0x00",
            "parentHash" : "0x0000000000000000000000000000000000000000000000000000000000000000",
            "receiptTrie" : "0x56e81f171bcc55a6ff8345e692c0f86e5b48e01b996cadc001622fb5e363b421",
            "stateRoot" : "0xf353193b99eb46e7a469c00fa91be2359f2eb9278c9287f1e0fdd3f4137074e2",
            "timestamp" : "0x03b6",
            "transactionsTrie" : "0x56e81f171bcc55a6ff8345e692c0f86e5b48e01b996cadc001622fb5e363b421",
            "uncleHash" : "0x1dcc4de8dec75d7aab85b567b6ccd41ad312451b948a7413f0a142fd40d49347"
        },
        "genesisRLP" : "0xf901faf901f5a00000000000000000000000000000000000000000000000000000000000000000a01dcc4de8dec75d7aab85b567b6ccd41ad312451b948a7413f0a142fd40d49347942adc25665018aa1fe0e6bc666dac8fc2697ff9baa0f353193b99eb46e7a469c00fa91be2359f2eb9278c9287f1e0fdd3f4137074e2a056e81f171bcc55a6ff8345e692c0f86e5b48e01b996cadc001622fb5e363b421a056e81f171bcc55a6ff8345e692c0f86e5b48e01b996cadc001622fb5e363b421b9010000000000000000000000000000000000000000000000000000000000000000000000000000000000000000000000000000000000000000000000000000000000000000000000000000000000000000000000000000000000000000000000000000000000000000000000000000000000000000000000000000000000000000000000000000000000000000000000000000000000000000000000000000000000000000000000000000000000000000000000000000000000000000000000000000000000000000000000000000000000000000000000000000000000000000000000000000000000000000000000000000000000000000000000000000000000830200008083989680808203b642a056e81f171bcc55a6ff8345e692c0f86e5b48e01b996cadc001622fb5e363b421880102030405060708c0c0",
        "lastblockhash" : "0xc57d097002dc6c110c40155b9b83b5cd5b7f3f1426bd7e09fdeca1a98d595548",
        "network" : "Frontier",
        "postState" : {
            "0x2adc25665018aa1fe0e6bc666dac8fc2697ff9ba" : {
                "balance" : "0x4563918244f503c4",
                "code" : "",
                "nonce" : "0x00",
                "storage" : {
                }
            },
            "0xa000000000000000000000000000000000000000" : {
                "balance" : "0x01",
                "code" : "0x60606040526000357c0100000000000000000000000000000000000000000000000000000000900463ffffffff168063b28175c4146046578063c0406226146052575b6000565b3460005760506076565b005b34600057605c6081565b604051808215151515815260200191505060405180910390f35b600c6000819055505b565b600060896076565b600d600081905550600e6001819055505b905600a165627a7a72305820b7c6987c21e63fed8a74d899557744a3be8d3fda191ce0f56cf261d6b860f6b40029",
                "nonce" : "0x00",
                "storage" : {
                }
            },
            "0xa94f5374fce5edbc8e2a8697c15331677e6ebf0b" : {
                "balance" : "0xe8d4a40c3c",
                "code" : "",
                "nonce" : "0x01",
                "storage" : {
                }
            }
        },
        "pre" : {
            "0xa000000000000000000000000000000000000000" : {
                "balance" : "0x01",
                "code" : "0x60606040526000357c0100000000000000000000000000000000000000000000000000000000900463ffffffff168063b28175c4146046578063c0406226146052575b6000565b3460005760506076565b005b34600057605c6081565b604051808215151515815260200191505060405180910390f35b600c6000819055505b565b600060896076565b600d600081905550600e6001819055505b905600a165627a7a72305820b7c6987c21e63fed8a74d899557744a3be8d3fda191ce0f56cf261d6b860f6b40029",
                "nonce" : "0x00",
                "storage" : {
                }
            },
            "0xa94f5374fce5edbc8e2a8697c15331677e6ebf0b" : {
                "balance" : "0xe8d4a51000",
                "code" : "",
                "nonce" : "0x00",
                "storage" : {
                }
            }
        }
    },
    "RevertSubCallStorageOOG2_d0g0v0_Homestead" : {
        "_info" : {
            "comment" : "",
            "filledwith" : "cpp-1.3.0+commit.e5cf5910.Linux.g++",
            "lllcversion" : "Version: 0.4.18-develop.2017.9.25+commit.a72237f2.Linux.g++",
            "source" : "src/BlockchainTestsFiller/GeneralStateTests/stRevertTest/RevertSubCallStorageOOG2_d0g0v0Filler.json"
        },
        "blocks" : [
            {
                "blockHeader" : {
                    "bloom" : "0x00000000000000000000000000000000000000000000000000000000000000000000000000000000000000000000000000000000000000000000000000000000000000000000000000000000000000000000000000000000000000000000000000000000000000000000000000000000000000000000000000000000000000000000000000000000000000000000000000000000000000000000000000000000000000000000000000000000000000000000000000000000000000000000000000000000000000000000000000000000000000000000000000000000000000000000000000000000000000000000000000000000000000000000000000000000",
                    "coinbase" : "0x2adc25665018aa1fe0e6bc666dac8fc2697ff9ba",
                    "difficulty" : "0x020000",
                    "extraData" : "",
                    "gasLimit" : "0x989680",
                    "gasUsed" : "0x0103c4",
                    "hash" : "0x3ed262dfa47062b49fbc2b3c91172d4803a0fe530792b2c6b9490dce615c12f2",
                    "mixHash" : "0x88537d589ce5da6f4fc92fd09ff3cc027468558211d0144a78994cf69baa1a13",
                    "nonce" : "0xea36e7febcc4b27d",
                    "number" : "0x01",
                    "parentHash" : "0x7c700d11409534b7aca1879d490020779a5c324eb69ff33422192be6b150af7d",
                    "receiptTrie" : "0xabf5d6ba2b06c89a5caf70e46758c59440360e06af7dac8c9c926cfe0d5b8470",
                    "stateRoot" : "0x05156c27fe102e04d1ee1bc51f266b2e691629175f94efe9af50ef80aeb89288",
                    "timestamp" : "0x03e8",
                    "transactionsTrie" : "0x345e26059d068a55625b7e7de5e8c8c1d2a02c3ffd5e87cd7fa1e3f4f0200fa5",
                    "uncleHash" : "0x1dcc4de8dec75d7aab85b567b6ccd41ad312451b948a7413f0a142fd40d49347"
                },
                "rlp" : "0xf90264f901f8a07c700d11409534b7aca1879d490020779a5c324eb69ff33422192be6b150af7da01dcc4de8dec75d7aab85b567b6ccd41ad312451b948a7413f0a142fd40d49347942adc25665018aa1fe0e6bc666dac8fc2697ff9baa005156c27fe102e04d1ee1bc51f266b2e691629175f94efe9af50ef80aeb89288a0345e26059d068a55625b7e7de5e8c8c1d2a02c3ffd5e87cd7fa1e3f4f0200fa5a0abf5d6ba2b06c89a5caf70e46758c59440360e06af7dac8c9c926cfe0d5b8470b9010000000000000000000000000000000000000000000000000000000000000000000000000000000000000000000000000000000000000000000000000000000000000000000000000000000000000000000000000000000000000000000000000000000000000000000000000000000000000000000000000000000000000000000000000000000000000000000000000000000000000000000000000000000000000000000000000000000000000000000000000000000000000000000000000000000000000000000000000000000000000000000000000000000000000000000000000000000000000000000000000000000000000000000000000000000000830200000183989680830103c48203e880a088537d589ce5da6f4fc92fd09ff3cc027468558211d0144a78994cf69baa1a1388ea36e7febcc4b27df866f8648001830103c494a0000000000000000000000000000000000000008084c04062261ba0b15f5ef4913737331a3bbf2a5e778083065c4fc39ba54f1f29fa13e1eed2db36a070386c148497cef012c57c39efcb22c7ed57aae1e577d594a7c348f2c804226dc0",
                "transactions" : [
                    {
                        "data" : "0xc0406226",
                        "gasLimit" : "0x0103c4",
                        "gasPrice" : "0x01",
                        "nonce" : "0x00",
                        "r" : "0xb15f5ef4913737331a3bbf2a5e778083065c4fc39ba54f1f29fa13e1eed2db36",
                        "s" : "0x70386c148497cef012c57c39efcb22c7ed57aae1e577d594a7c348f2c804226d",
                        "to" : "0xa000000000000000000000000000000000000000",
                        "v" : "0x1b",
                        "value" : "0x00"
                    }
                ],
                "uncleHeaders" : [
                ]
            }
        ],
        "genesisBlockHeader" : {
            "bloom" : "0x00000000000000000000000000000000000000000000000000000000000000000000000000000000000000000000000000000000000000000000000000000000000000000000000000000000000000000000000000000000000000000000000000000000000000000000000000000000000000000000000000000000000000000000000000000000000000000000000000000000000000000000000000000000000000000000000000000000000000000000000000000000000000000000000000000000000000000000000000000000000000000000000000000000000000000000000000000000000000000000000000000000000000000000000000000000",
            "coinbase" : "0x2adc25665018aa1fe0e6bc666dac8fc2697ff9ba",
            "difficulty" : "0x020000",
            "extraData" : "0x42",
            "gasLimit" : "0x989680",
            "gasUsed" : "0x00",
            "hash" : "0x7c700d11409534b7aca1879d490020779a5c324eb69ff33422192be6b150af7d",
            "mixHash" : "0x56e81f171bcc55a6ff8345e692c0f86e5b48e01b996cadc001622fb5e363b421",
            "nonce" : "0x0102030405060708",
            "number" : "0x00",
            "parentHash" : "0x0000000000000000000000000000000000000000000000000000000000000000",
            "receiptTrie" : "0x56e81f171bcc55a6ff8345e692c0f86e5b48e01b996cadc001622fb5e363b421",
            "stateRoot" : "0xf353193b99eb46e7a469c00fa91be2359f2eb9278c9287f1e0fdd3f4137074e2",
            "timestamp" : "0x03b6",
            "transactionsTrie" : "0x56e81f171bcc55a6ff8345e692c0f86e5b48e01b996cadc001622fb5e363b421",
            "uncleHash" : "0x1dcc4de8dec75d7aab85b567b6ccd41ad312451b948a7413f0a142fd40d49347"
        },
        "genesisRLP" : "0xf901faf901f5a00000000000000000000000000000000000000000000000000000000000000000a01dcc4de8dec75d7aab85b567b6ccd41ad312451b948a7413f0a142fd40d49347942adc25665018aa1fe0e6bc666dac8fc2697ff9baa0f353193b99eb46e7a469c00fa91be2359f2eb9278c9287f1e0fdd3f4137074e2a056e81f171bcc55a6ff8345e692c0f86e5b48e01b996cadc001622fb5e363b421a056e81f171bcc55a6ff8345e692c0f86e5b48e01b996cadc001622fb5e363b421b9010000000000000000000000000000000000000000000000000000000000000000000000000000000000000000000000000000000000000000000000000000000000000000000000000000000000000000000000000000000000000000000000000000000000000000000000000000000000000000000000000000000000000000000000000000000000000000000000000000000000000000000000000000000000000000000000000000000000000000000000000000000000000000000000000000000000000000000000000000000000000000000000000000000000000000000000000000000000000000000000000000000000000000000000000000000000830200008083989680808203b642a056e81f171bcc55a6ff8345e692c0f86e5b48e01b996cadc001622fb5e363b421880102030405060708c0c0",
        "lastblockhash" : "0x3ed262dfa47062b49fbc2b3c91172d4803a0fe530792b2c6b9490dce615c12f2",
        "network" : "Homestead",
        "postState" : {
            "0x2adc25665018aa1fe0e6bc666dac8fc2697ff9ba" : {
                "balance" : "0x4563918244f503c4",
                "code" : "",
                "nonce" : "0x00",
                "storage" : {
                }
            },
            "0xa000000000000000000000000000000000000000" : {
                "balance" : "0x01",
                "code" : "0x60606040526000357c0100000000000000000000000000000000000000000000000000000000900463ffffffff168063b28175c4146046578063c0406226146052575b6000565b3460005760506076565b005b34600057605c6081565b604051808215151515815260200191505060405180910390f35b600c6000819055505b565b600060896076565b600d600081905550600e6001819055505b905600a165627a7a72305820b7c6987c21e63fed8a74d899557744a3be8d3fda191ce0f56cf261d6b860f6b40029",
                "nonce" : "0x00",
                "storage" : {
                }
            },
            "0xa94f5374fce5edbc8e2a8697c15331677e6ebf0b" : {
                "balance" : "0xe8d4a40c3c",
                "code" : "",
                "nonce" : "0x01",
                "storage" : {
                }
            }
        },
        "pre" : {
            "0xa000000000000000000000000000000000000000" : {
                "balance" : "0x01",
                "code" : "0x60606040526000357c0100000000000000000000000000000000000000000000000000000000900463ffffffff168063b28175c4146046578063c0406226146052575b6000565b3460005760506076565b005b34600057605c6081565b604051808215151515815260200191505060405180910390f35b600c6000819055505b565b600060896076565b600d600081905550600e6001819055505b905600a165627a7a72305820b7c6987c21e63fed8a74d899557744a3be8d3fda191ce0f56cf261d6b860f6b40029",
                "nonce" : "0x00",
                "storage" : {
                }
            },
            "0xa94f5374fce5edbc8e2a8697c15331677e6ebf0b" : {
                "balance" : "0xe8d4a51000",
                "code" : "",
                "nonce" : "0x00",
                "storage" : {
                }
            }
        }
    }
}