{
    "TouchToEmptyAccountRevert2_d0g0v0_ConstantinopleFix" : {
        "_info" : {
            "comment" : "",
            "filling-rpc-server" : "Geth-1.9.3-unstable-d5bd3838-20190830",
            "filling-tool-version" : "retesteth-0.0.1+commit.222e3073.Linux.g++",
            "lllcversion" : "Version: 0.5.0-develop.2019.8.22+commit.9709dfe0.Linux.g++",
            "source" : "src/GeneralStateTestsFiller/stRevertTest/TouchToEmptyAccountRevert2Filler.json",
            "sourceHash" : "7e99ef7424f3e4d5c0c01b10eac7df15500cd90227894e75c0c3707b27d7a4b5"
        },
        "genesisBlockHeader" : {
            "bloom" : "0x00000000000000000000000000000000000000000000000000000000000000000000000000000000000000000000000000000000000000000000000000000000000000000000000000000000000000000000000000000000000000000000000000000000000000000000000000000000000000000000000000000000000000000000000000000000000000000000000000000000000000000000000000000000000000000000000000000000000000000000000000000000000000000000000000000000000000000000000000000000000000000000000000000000000000000000000000000000000000000000000000000000000000000000000000000000",
            "coinbase" : "0x2adc25665018aa1fe0e6bc666dac8fc2697ff9ba",
            "difficulty" : "0x20000",
            "extraData" : "0x00",
            "gasLimit" : "0x989680",
            "gasUsed" : "0x0",
            "hash" : "0x82607b54c88d8feee52f30abc755b926953d9d9357b0c39fed73a8bf47f3d122",
            "mixHash" : "0x0000000000000000000000000000000000000000000000000000000000000000",
            "nonce" : "0x0000000000000000",
            "number" : "0x0",
            "parentHash" : "0x0000000000000000000000000000000000000000000000000000000000000000",
            "receiptTrie" : "0x56e81f171bcc55a6ff8345e692c0f86e5b48e01b996cadc001622fb5e363b421",
            "stateRoot" : "0x7a5c2ca69baab334d19101761edc9ee07a518b9546f6cd713dacb2edabc8f913",
            "timestamp" : "0x0",
            "transactionsTrie" : "0x56e81f171bcc55a6ff8345e692c0f86e5b48e01b996cadc001622fb5e363b421",
            "uncleHash" : "0x1dcc4de8dec75d7aab85b567b6ccd41ad312451b948a7413f0a142fd40d49347"
        },
        "pre" : {
            "0x1000000000000000000000000000000000000000" : {
                "balance" : "0x00",
                "code" : "0x",
                "nonce" : "0x00",
                "storage" : {
                }
            },
            "0xa94f5374fce5edbc8e2a8697c15331677e6ebf0b" : {
                "balance" : "0xe8d4a51000",
                "code" : "0x",
                "nonce" : "0x00",
                "storage" : {
                }
            },
            "0xb94f5374fce5edbc8e2a8697c15331677e6ebf0b" : {
                "balance" : "0x00",
                "code" : "0x60006000600060006000731000000000000000000000000000000000000000617530f16002556001600355",
                "nonce" : "0x00",
                "storage" : {
                }
            },
            "0xba4f5374fce5edbc8e2a8697c15331677e6ebf0b" : {
                "balance" : "0x00",
                "code" : "0x60006000600060006000731000000000000000000000000000000000000000617530f16000556000600060006000600073b94f5374fce5edbc8e2a8697c15331677e6ebf0b617530f1600155",
                "nonce" : "0x00",
                "storage" : {
                }
            }
        },
        "postState" : {
            "0xa94f5374fce5edbc8e2a8697c15331677e6ebf0b" : {
                "code" : "0x",
                "nonce" : "0x01",
                "balance" : "0xe8d4a3e1a8",
                "storage" : {
                }
            },
            "0xba4f5374fce5edbc8e2a8697c15331677e6ebf0b" : {
                "code" : "0x60006000600060006000731000000000000000000000000000000000000000617530f16000556000600060006000600073b94f5374fce5edbc8e2a8697c15331677e6ebf0b617530f1600155",
                "nonce" : "0x00",
                "balance" : "0x00",
                "storage" : {
                }
            },
            "0x2adc25665018aa1fe0e6bc666dac8fc2697ff9ba" : {
                "code" : "0x",
                "nonce" : "0x00",
                "balance" : "0x1bc16d674ec92e58",
                "storage" : {
                }
            },
            "0xb94f5374fce5edbc8e2a8697c15331677e6ebf0b" : {
                "code" : "0x60006000600060006000731000000000000000000000000000000000000000617530f16002556001600355",
                "nonce" : "0x00",
                "balance" : "0x00",
                "storage" : {
                }
            },
            "0x1000000000000000000000000000000000000000" : {
                "code" : "0x",
                "nonce" : "0x00",
                "balance" : "0x00",
                "storage" : {
                }
            }
        },
        "network" : "ConstantinopleFix",
        "sealEngine" : "NoProof",
        "lastblockhash" : "0xbc17735a83663cd492b15d2cbcec28bea89fa0e6c0921f41a19e7d4a5036b0c2",
        "genesisRLP" : "0xf901f8f901f3a00000000000000000000000000000000000000000000000000000000000000000a01dcc4de8dec75d7aab85b567b6ccd41ad312451b948a7413f0a142fd40d49347942adc25665018aa1fe0e6bc666dac8fc2697ff9baa07a5c2ca69baab334d19101761edc9ee07a518b9546f6cd713dacb2edabc8f913a056e81f171bcc55a6ff8345e692c0f86e5b48e01b996cadc001622fb5e363b421a056e81f171bcc55a6ff8345e692c0f86e5b48e01b996cadc001622fb5e363b421b9010000000000000000000000000000000000000000000000000000000000000000000000000000000000000000000000000000000000000000000000000000000000000000000000000000000000000000000000000000000000000000000000000000000000000000000000000000000000000000000000000000000000000000000000000000000000000000000000000000000000000000000000000000000000000000000000000000000000000000000000000000000000000000000000000000000000000000000000000000000000000000000000000000000000000000000000000000000000000000000000000000000000000000000000000000000000830200008083989680808000a00000000000000000000000000000000000000000000000000000000000000000880000000000000000c0c0",
        "blocks" : [
            {
                "rlp" : "0xf90260f901f8a082607b54c88d8feee52f30abc755b926953d9d9357b0c39fed73a8bf47f3d122a01dcc4de8dec75d7aab85b567b6ccd41ad312451b948a7413f0a142fd40d49347942adc25665018aa1fe0e6bc666dac8fc2697ff9baa095bbf7092d399c6b29551aa5ee738d7ca39dc56e2e00637f7a86d197c27d0a31a02e42786e6ec04830fd0a77ce80f317a47b51dbbaed516c714d01fdbfc50a940da041ca2a684b65e197e5164274ce8378f6886287548fd763dbd4d2131f421d9b06b901000000000000000000000000000000000000000000000000000000000000000000000000000000000000000000000000000000000000000000000000000000000000000000000000000000000000000000000000000000000000000000000000000000000000000000000000000000000000000000000000000000000000000000000000000000000000000000000000000000000000000000000000000000000000000000000000000000000000000000000000000000000000000000000000000000000000000000000000000000000000000000000000000000000000000000000000000000000000000000000000000000000000000000000000000000000083020000018398bca483012e588203e800a00000000000000000000000000000000000000000000000000000000000000000880000000000000000f862f860800183012e5894ba4f5374fce5edbc8e2a8697c15331677e6ebf0b80801ca054aeb49b272934f1c9b09d36b6ad6cac4ee262c311c9a86d3f98db65bd00ee51a00178bd16091e19ed2e1c7d8160095d6bc9d6ef1d168ff61cb194dfc3b1d4d8c1c0",
                "blockHeader" : {
                    "bloom" : "0x00000000000000000000000000000000000000000000000000000000000000000000000000000000000000000000000000000000000000000000000000000000000000000000000000000000000000000000000000000000000000000000000000000000000000000000000000000000000000000000000000000000000000000000000000000000000000000000000000000000000000000000000000000000000000000000000000000000000000000000000000000000000000000000000000000000000000000000000000000000000000000000000000000000000000000000000000000000000000000000000000000000000000000000000000000000",
                    "coinbase" : "0x2adc25665018aa1fe0e6bc666dac8fc2697ff9ba",
                    "difficulty" : "0x20000",
                    "extraData" : "0x00",
                    "gasLimit" : "0x98bca4",
                    "gasUsed" : "0x12e58",
                    "hash" : "0xbc17735a83663cd492b15d2cbcec28bea89fa0e6c0921f41a19e7d4a5036b0c2",
                    "mixHash" : "0x0000000000000000000000000000000000000000000000000000000000000000",
                    "nonce" : "0x0000000000000000",
                    "number" : "0x1",
                    "parentHash" : "0x82607b54c88d8feee52f30abc755b926953d9d9357b0c39fed73a8bf47f3d122",
                    "receiptTrie" : "0x41ca2a684b65e197e5164274ce8378f6886287548fd763dbd4d2131f421d9b06",
                    "stateRoot" : "0x95bbf7092d399c6b29551aa5ee738d7ca39dc56e2e00637f7a86d197c27d0a31",
                    "timestamp" : "0x3e8",
                    "transactionsTrie" : "0x2e42786e6ec04830fd0a77ce80f317a47b51dbbaed516c714d01fdbfc50a940d",
                    "uncleHash" : "0x1dcc4de8dec75d7aab85b567b6ccd41ad312451b948a7413f0a142fd40d49347"
                },
                "transactions" : [
                    {
                        "data" : "0x",
                        "gasLimit" : "0x012e58",
                        "gasPrice" : "0x01",
                        "nonce" : "0x00",
                        "secretKey" : "0x45a915e4d060149eb4365960e6a7a45f334393093061116b197e3240065ff2d8",
                        "to" : "0xba4f5374fce5edbc8e2a8697c15331677e6ebf0b",
                        "value" : "0x00"
                    }
                ]
            }
        ]
    },
    "TouchToEmptyAccountRevert2_d0g1v0_ConstantinopleFix" : {
        "_info" : {
            "comment" : "",
            "filling-rpc-server" : "Geth-1.9.3-unstable-d5bd3838-20190830",
            "filling-tool-version" : "retesteth-0.0.1+commit.222e3073.Linux.g++",
            "lllcversion" : "Version: 0.5.0-develop.2019.8.22+commit.9709dfe0.Linux.g++",
            "source" : "src/GeneralStateTestsFiller/stRevertTest/TouchToEmptyAccountRevert2Filler.json",
            "sourceHash" : "7e99ef7424f3e4d5c0c01b10eac7df15500cd90227894e75c0c3707b27d7a4b5"
        },
        "genesisBlockHeader" : {
            "bloom" : "0x00000000000000000000000000000000000000000000000000000000000000000000000000000000000000000000000000000000000000000000000000000000000000000000000000000000000000000000000000000000000000000000000000000000000000000000000000000000000000000000000000000000000000000000000000000000000000000000000000000000000000000000000000000000000000000000000000000000000000000000000000000000000000000000000000000000000000000000000000000000000000000000000000000000000000000000000000000000000000000000000000000000000000000000000000000000",
            "coinbase" : "0x2adc25665018aa1fe0e6bc666dac8fc2697ff9ba",
            "difficulty" : "0x20000",
            "extraData" : "0x00",
            "gasLimit" : "0x989680",
            "gasUsed" : "0x0",
            "hash" : "0x82607b54c88d8feee52f30abc755b926953d9d9357b0c39fed73a8bf47f3d122",
            "mixHash" : "0x0000000000000000000000000000000000000000000000000000000000000000",
            "nonce" : "0x0000000000000000",
            "number" : "0x0",
            "parentHash" : "0x0000000000000000000000000000000000000000000000000000000000000000",
            "receiptTrie" : "0x56e81f171bcc55a6ff8345e692c0f86e5b48e01b996cadc001622fb5e363b421",
            "stateRoot" : "0x7a5c2ca69baab334d19101761edc9ee07a518b9546f6cd713dacb2edabc8f913",
            "timestamp" : "0x0",
            "transactionsTrie" : "0x56e81f171bcc55a6ff8345e692c0f86e5b48e01b996cadc001622fb5e363b421",
            "uncleHash" : "0x1dcc4de8dec75d7aab85b567b6ccd41ad312451b948a7413f0a142fd40d49347"
        },
        "pre" : {
            "0x1000000000000000000000000000000000000000" : {
                "balance" : "0x00",
                "code" : "0x",
                "nonce" : "0x00",
                "storage" : {
                }
            },
            "0xa94f5374fce5edbc8e2a8697c15331677e6ebf0b" : {
                "balance" : "0xe8d4a51000",
                "code" : "0x",
                "nonce" : "0x00",
                "storage" : {
                }
            },
            "0xb94f5374fce5edbc8e2a8697c15331677e6ebf0b" : {
                "balance" : "0x00",
                "code" : "0x60006000600060006000731000000000000000000000000000000000000000617530f16002556001600355",
                "nonce" : "0x00",
                "storage" : {
                }
            },
            "0xba4f5374fce5edbc8e2a8697c15331677e6ebf0b" : {
                "balance" : "0x00",
                "code" : "0x60006000600060006000731000000000000000000000000000000000000000617530f16000556000600060006000600073b94f5374fce5edbc8e2a8697c15331677e6ebf0b617530f1600155",
                "nonce" : "0x00",
                "storage" : {
                }
            }
        },
        "postState" : {
            "0xa94f5374fce5edbc8e2a8697c15331677e6ebf0b" : {
                "code" : "0x",
                "nonce" : "0x01",
                "balance" : "0xe8d4a43798",
                "storage" : {
                }
            },
            "0xba4f5374fce5edbc8e2a8697c15331677e6ebf0b" : {
                "code" : "0x60006000600060006000731000000000000000000000000000000000000000617530f16000556000600060006000600073b94f5374fce5edbc8e2a8697c15331677e6ebf0b617530f1600155",
                "nonce" : "0x00",
                "balance" : "0x00",
                "storage" : {
                }
            },
            "0x2adc25665018aa1fe0e6bc666dac8fc2697ff9ba" : {
                "code" : "0x",
                "nonce" : "0x00",
                "balance" : "0x1bc16d674ec8d868",
                "storage" : {
                }
            },
            "0xb94f5374fce5edbc8e2a8697c15331677e6ebf0b" : {
                "code" : "0x60006000600060006000731000000000000000000000000000000000000000617530f16002556001600355",
                "nonce" : "0x00",
                "balance" : "0x00",
                "storage" : {
                }
            },
            "0x1000000000000000000000000000000000000000" : {
                "code" : "0x",
                "nonce" : "0x00",
                "balance" : "0x00",
                "storage" : {
                }
            }
        },
        "network" : "ConstantinopleFix",
        "sealEngine" : "NoProof",
        "lastblockhash" : "0x87483e6354c810b9d57a066fc716a28a1bd0fb5a515b9ffc49bd957e0209c110",
        "genesisRLP" : "0xf901f8f901f3a00000000000000000000000000000000000000000000000000000000000000000a01dcc4de8dec75d7aab85b567b6ccd41ad312451b948a7413f0a142fd40d49347942adc25665018aa1fe0e6bc666dac8fc2697ff9baa07a5c2ca69baab334d19101761edc9ee07a518b9546f6cd713dacb2edabc8f913a056e81f171bcc55a6ff8345e692c0f86e5b48e01b996cadc001622fb5e363b421a056e81f171bcc55a6ff8345e692c0f86e5b48e01b996cadc001622fb5e363b421b9010000000000000000000000000000000000000000000000000000000000000000000000000000000000000000000000000000000000000000000000000000000000000000000000000000000000000000000000000000000000000000000000000000000000000000000000000000000000000000000000000000000000000000000000000000000000000000000000000000000000000000000000000000000000000000000000000000000000000000000000000000000000000000000000000000000000000000000000000000000000000000000000000000000000000000000000000000000000000000000000000000000000000000000000000000000000830200008083989680808000a00000000000000000000000000000000000000000000000000000000000000000880000000000000000c0c0",
        "blocks" : [
            {
                "rlp" : "0xf9025ef901f7a082607b54c88d8feee52f30abc755b926953d9d9357b0c39fed73a8bf47f3d122a01dcc4de8dec75d7aab85b567b6ccd41ad312451b948a7413f0a142fd40d49347942adc25665018aa1fe0e6bc666dac8fc2697ff9baa043dd633836ba96578b0316544c0a3c76c8a229513fec43ac3203f8a5622412f2a068ba8b8fa1647b534315c9d013202e3436a640a3c757b460441f3e917fa1f26aa0d3ad19ac95ea155af03877aa586ba92bb99acfd75ba5c585561d83f487d1f1a7b901000000000000000000000000000000000000000000000000000000000000000000000000000000000000000000000000000000000000000000000000000000000000000000000000000000000000000000000000000000000000000000000000000000000000000000000000000000000000000000000000000000000000000000000000000000000000000000000000000000000000000000000000000000000000000000000000000000000000000000000000000000000000000000000000000000000000000000000000000000000000000000000000000000000000000000000000000000000000000000000000000000000000000000000000000000000083020000018398bca482d8688203e800a00000000000000000000000000000000000000000000000000000000000000000880000000000000000f861f85f800182d86894ba4f5374fce5edbc8e2a8697c15331677e6ebf0b80801ca08a81d99abefecd9046c0273bfa97447d0e39293abd5b967254814c522c8ff17ca05369327a9ddbf3c3f4d39d76efbfdf5076aa27cb32c4248568bd47fc76282850c0",
                "blockHeader" : {
                    "bloom" : "0x00000000000000000000000000000000000000000000000000000000000000000000000000000000000000000000000000000000000000000000000000000000000000000000000000000000000000000000000000000000000000000000000000000000000000000000000000000000000000000000000000000000000000000000000000000000000000000000000000000000000000000000000000000000000000000000000000000000000000000000000000000000000000000000000000000000000000000000000000000000000000000000000000000000000000000000000000000000000000000000000000000000000000000000000000000000",
                    "coinbase" : "0x2adc25665018aa1fe0e6bc666dac8fc2697ff9ba",
                    "difficulty" : "0x20000",
                    "extraData" : "0x00",
                    "gasLimit" : "0x98bca4",
                    "gasUsed" : "0xd868",
                    "hash" : "0x87483e6354c810b9d57a066fc716a28a1bd0fb5a515b9ffc49bd957e0209c110",
                    "mixHash" : "0x0000000000000000000000000000000000000000000000000000000000000000",
                    "nonce" : "0x0000000000000000",
                    "number" : "0x1",
                    "parentHash" : "0x82607b54c88d8feee52f30abc755b926953d9d9357b0c39fed73a8bf47f3d122",
                    "receiptTrie" : "0xd3ad19ac95ea155af03877aa586ba92bb99acfd75ba5c585561d83f487d1f1a7",
                    "stateRoot" : "0x43dd633836ba96578b0316544c0a3c76c8a229513fec43ac3203f8a5622412f2",
                    "timestamp" : "0x3e8",
                    "transactionsTrie" : "0x68ba8b8fa1647b534315c9d013202e3436a640a3c757b460441f3e917fa1f26a",
                    "uncleHash" : "0x1dcc4de8dec75d7aab85b567b6ccd41ad312451b948a7413f0a142fd40d49347"
                },
                "transactions" : [
                    {
                        "data" : "0x",
                        "gasLimit" : "0xd868",
                        "gasPrice" : "0x01",
                        "nonce" : "0x00",
                        "secretKey" : "0x45a915e4d060149eb4365960e6a7a45f334393093061116b197e3240065ff2d8",
                        "to" : "0xba4f5374fce5edbc8e2a8697c15331677e6ebf0b",
                        "value" : "0x00"
                    }
                ]
            }
        ]
    }
}