{
    "TouchToEmptyAccountRevert3_d0g0v0_ConstantinopleFix" : {
        "_info" : {
            "comment" : "",
            "filling-rpc-server" : "Geth-1.9.3-unstable-d5bd3838-20190830",
            "filling-tool-version" : "retesteth-0.0.1+commit.222e3073.Linux.g++",
            "lllcversion" : "Version: 0.5.0-develop.2019.8.22+commit.9709dfe0.Linux.g++",
            "source" : "src/GeneralStateTestsFiller/stRevertTest/TouchToEmptyAccountRevert3Filler.json",
            "sourceHash" : "30ba0bc1704c5ec971804de997b5905896e2f3767017899e72ee3fe8a376a1a2"
        },
        "genesisBlockHeader" : {
            "bloom" : "0x00000000000000000000000000000000000000000000000000000000000000000000000000000000000000000000000000000000000000000000000000000000000000000000000000000000000000000000000000000000000000000000000000000000000000000000000000000000000000000000000000000000000000000000000000000000000000000000000000000000000000000000000000000000000000000000000000000000000000000000000000000000000000000000000000000000000000000000000000000000000000000000000000000000000000000000000000000000000000000000000000000000000000000000000000000000",
            "coinbase" : "0x2adc25665018aa1fe0e6bc666dac8fc2697ff9ba",
            "difficulty" : "0x20000",
            "extraData" : "0x00",
            "gasLimit" : "0x989680",
            "gasUsed" : "0x0",
            "hash" : "0x407f0ec7b315a117d2859ae38e0bb38ca503185671db53c33437085d257f9e16",
            "mixHash" : "0x0000000000000000000000000000000000000000000000000000000000000000",
            "nonce" : "0x0000000000000000",
            "number" : "0x0",
            "parentHash" : "0x0000000000000000000000000000000000000000000000000000000000000000",
            "receiptTrie" : "0x56e81f171bcc55a6ff8345e692c0f86e5b48e01b996cadc001622fb5e363b421",
            "stateRoot" : "0xd41eafcc754f9e8563a2540777d9e1c5ac62660406ce7a4412b74751f1ae104e",
            "timestamp" : "0x0",
            "transactionsTrie" : "0x56e81f171bcc55a6ff8345e692c0f86e5b48e01b996cadc001622fb5e363b421",
            "uncleHash" : "0x1dcc4de8dec75d7aab85b567b6ccd41ad312451b948a7413f0a142fd40d49347"
        },
        "pre" : {
            "0x1000000000000000000000000000000000000000" : {
                "balance" : "0x00",
                "code" : "0x",
                "nonce" : "0x00",
                "storage" : {
                }
            },
            "0xa94f5374fce5edbc8e2a8697c15331677e6ebf0b" : {
                "balance" : "0xe8d4a51000",
                "code" : "0x",
                "nonce" : "0x00",
                "storage" : {
                }
            },
            "0xb94f5374fce5edbc8e2a8697c15331677e6ebf0b" : {
                "balance" : "0x00",
                "code" : "0x6000600060006000600073e94f5374fce5edbc8e2a8697c15331677e6ebf0b617530f16002556001600355",
                "nonce" : "0x00",
                "storage" : {
                }
            },
            "0xba4f5374fce5edbc8e2a8697c15331677e6ebf0b" : {
                "balance" : "0x00",
                "code" : "0x6000600060006000600073d94f5374fce5edbc8e2a8697c15331677e6ebf0b617530f16000556000600060006000600073b94f5374fce5edbc8e2a8697c15331677e6ebf0b617530f1600155",
                "nonce" : "0x00",
                "storage" : {
                }
            },
            "0xd94f5374fce5edbc8e2a8697c15331677e6ebf0b" : {
                "balance" : "0x00",
                "code" : "0x731000000000000000000000000000000000000000ff",
                "nonce" : "0x00",
                "storage" : {
                }
            },
            "0xe94f5374fce5edbc8e2a8697c15331677e6ebf0b" : {
                "balance" : "0x00",
                "code" : "0x731000000000000000000000000000000000000000ff",
                "nonce" : "0x00",
                "storage" : {
                }
            }
        },
        "postState" : {
            "0xa94f5374fce5edbc8e2a8697c15331677e6ebf0b" : {
                "code" : "0x",
                "nonce" : "0x01",
                "balance" : "0xe8d4a3ce20",
                "storage" : {
                }
            },
            "0xd94f5374fce5edbc8e2a8697c15331677e6ebf0b" : {
                "code" : "0x731000000000000000000000000000000000000000ff",
                "nonce" : "0x00",
                "balance" : "0x00",
                "storage" : {
                }
            },
            "0xe94f5374fce5edbc8e2a8697c15331677e6ebf0b" : {
                "code" : "0x731000000000000000000000000000000000000000ff",
                "nonce" : "0x00",
                "balance" : "0x00",
                "storage" : {
                }
            },
            "0xba4f5374fce5edbc8e2a8697c15331677e6ebf0b" : {
                "code" : "0x6000600060006000600073d94f5374fce5edbc8e2a8697c15331677e6ebf0b617530f16000556000600060006000600073b94f5374fce5edbc8e2a8697c15331677e6ebf0b617530f1600155",
                "nonce" : "0x00",
                "balance" : "0x00",
                "storage" : {
                }
            },
            "0x2adc25665018aa1fe0e6bc666dac8fc2697ff9ba" : {
                "code" : "0x",
                "nonce" : "0x00",
                "balance" : "0x1bc16d674ec941e0",
                "storage" : {
                }
            },
            "0xb94f5374fce5edbc8e2a8697c15331677e6ebf0b" : {
                "code" : "0x6000600060006000600073e94f5374fce5edbc8e2a8697c15331677e6ebf0b617530f16002556001600355",
                "nonce" : "0x00",
                "balance" : "0x00",
                "storage" : {
                }
            },
            "0x1000000000000000000000000000000000000000" : {
                "code" : "0x",
                "nonce" : "0x00",
                "balance" : "0x00",
                "storage" : {
                }
            }
        },
        "network" : "ConstantinopleFix",
        "sealEngine" : "NoProof",
        "lastblockhash" : "0x67cc1d4f6f2b6e8060055e685614c2a429d2b78dd6990692860a1ef853b35d8b",
        "genesisRLP" : "0xf901f8f901f3a00000000000000000000000000000000000000000000000000000000000000000a01dcc4de8dec75d7aab85b567b6ccd41ad312451b948a7413f0a142fd40d49347942adc25665018aa1fe0e6bc666dac8fc2697ff9baa0d41eafcc754f9e8563a2540777d9e1c5ac62660406ce7a4412b74751f1ae104ea056e81f171bcc55a6ff8345e692c0f86e5b48e01b996cadc001622fb5e363b421a056e81f171bcc55a6ff8345e692c0f86e5b48e01b996cadc001622fb5e363b421b9010000000000000000000000000000000000000000000000000000000000000000000000000000000000000000000000000000000000000000000000000000000000000000000000000000000000000000000000000000000000000000000000000000000000000000000000000000000000000000000000000000000000000000000000000000000000000000000000000000000000000000000000000000000000000000000000000000000000000000000000000000000000000000000000000000000000000000000000000000000000000000000000000000000000000000000000000000000000000000000000000000000000000000000000000000000000830200008083989680808000a00000000000000000000000000000000000000000000000000000000000000000880000000000000000c0c0",
        "blocks" : [
            {
                "rlp" : "0xf90260f901f8a0407f0ec7b315a117d2859ae38e0bb38ca503185671db53c33437085d257f9e16a01dcc4de8dec75d7aab85b567b6ccd41ad312451b948a7413f0a142fd40d49347942adc25665018aa1fe0e6bc666dac8fc2697ff9baa0eed43da76a80ace184c7f60a3fd3e3616651e3ecc0d8877c9b0d7b5d699aa0fea0903cb032d1e65affdad8f04c3a8866fb89f616051a1b8c394b306724fcfabea5a0b8abaa715d17fcfc4bc0395b274f6a93bf5243cd138598bbee2c97e1638da8c2b901000000000000000000000000000000000000000000000000000000000000000000000000000000000000000000000000000000000000000000000000000000000000000000000000000000000000000000000000000000000000000000000000000000000000000000000000000000000000000000000000000000000000000000000000000000000000000000000000000000000000000000000000000000000000000000000000000000000000000000000000000000000000000000000000000000000000000000000000000000000000000000000000000000000000000000000000000000000000000000000000000000000000000000000000000000000083020000018398bca4830141e08203e800a00000000000000000000000000000000000000000000000000000000000000000880000000000000000f862f8608001830141e094ba4f5374fce5edbc8e2a8697c15331677e6ebf0b80801ba0c54136371ca85a765ad177ab231137bd0c60e44363ed248490e9afefa43a4b4fa0226274aba5489e3f59adade154f1372e48e9da8fd245ffb7634f9262aa77f560c0",
                "blockHeader" : {
                    "bloom" : "0x00000000000000000000000000000000000000000000000000000000000000000000000000000000000000000000000000000000000000000000000000000000000000000000000000000000000000000000000000000000000000000000000000000000000000000000000000000000000000000000000000000000000000000000000000000000000000000000000000000000000000000000000000000000000000000000000000000000000000000000000000000000000000000000000000000000000000000000000000000000000000000000000000000000000000000000000000000000000000000000000000000000000000000000000000000000",
                    "coinbase" : "0x2adc25665018aa1fe0e6bc666dac8fc2697ff9ba",
                    "difficulty" : "0x20000",
                    "extraData" : "0x00",
                    "gasLimit" : "0x98bca4",
                    "gasUsed" : "0x141e0",
                    "hash" : "0x67cc1d4f6f2b6e8060055e685614c2a429d2b78dd6990692860a1ef853b35d8b",
                    "mixHash" : "0x0000000000000000000000000000000000000000000000000000000000000000",
                    "nonce" : "0x0000000000000000",
                    "number" : "0x1",
                    "parentHash" : "0x407f0ec7b315a117d2859ae38e0bb38ca503185671db53c33437085d257f9e16",
                    "receiptTrie" : "0xb8abaa715d17fcfc4bc0395b274f6a93bf5243cd138598bbee2c97e1638da8c2",
                    "stateRoot" : "0xeed43da76a80ace184c7f60a3fd3e3616651e3ecc0d8877c9b0d7b5d699aa0fe",
                    "timestamp" : "0x3e8",
                    "transactionsTrie" : "0x903cb032d1e65affdad8f04c3a8866fb89f616051a1b8c394b306724fcfabea5",
                    "uncleHash" : "0x1dcc4de8dec75d7aab85b567b6ccd41ad312451b948a7413f0a142fd40d49347"
                },
                "transactions" : [
                    {
                        "data" : "0x",
                        "gasLimit" : "0x0141e0",
                        "gasPrice" : "0x01",
                        "nonce" : "0x00",
                        "secretKey" : "0x45a915e4d060149eb4365960e6a7a45f334393093061116b197e3240065ff2d8",
                        "to" : "0xba4f5374fce5edbc8e2a8697c15331677e6ebf0b",
                        "value" : "0x00"
                    }
                ]
            }
        ]
    },
    "TouchToEmptyAccountRevert3_d0g1v0_ConstantinopleFix" : {
        "_info" : {
            "comment" : "",
            "filling-rpc-server" : "Geth-1.9.3-unstable-d5bd3838-20190830",
            "filling-tool-version" : "retesteth-0.0.1+commit.222e3073.Linux.g++",
            "lllcversion" : "Version: 0.5.0-develop.2019.8.22+commit.9709dfe0.Linux.g++",
            "source" : "src/GeneralStateTestsFiller/stRevertTest/TouchToEmptyAccountRevert3Filler.json",
            "sourceHash" : "30ba0bc1704c5ec971804de997b5905896e2f3767017899e72ee3fe8a376a1a2"
        },
        "genesisBlockHeader" : {
            "bloom" : "0x00000000000000000000000000000000000000000000000000000000000000000000000000000000000000000000000000000000000000000000000000000000000000000000000000000000000000000000000000000000000000000000000000000000000000000000000000000000000000000000000000000000000000000000000000000000000000000000000000000000000000000000000000000000000000000000000000000000000000000000000000000000000000000000000000000000000000000000000000000000000000000000000000000000000000000000000000000000000000000000000000000000000000000000000000000000",
            "coinbase" : "0x2adc25665018aa1fe0e6bc666dac8fc2697ff9ba",
            "difficulty" : "0x20000",
            "extraData" : "0x00",
            "gasLimit" : "0x989680",
            "gasUsed" : "0x0",
            "hash" : "0x407f0ec7b315a117d2859ae38e0bb38ca503185671db53c33437085d257f9e16",
            "mixHash" : "0x0000000000000000000000000000000000000000000000000000000000000000",
            "nonce" : "0x0000000000000000",
            "number" : "0x0",
            "parentHash" : "0x0000000000000000000000000000000000000000000000000000000000000000",
            "receiptTrie" : "0x56e81f171bcc55a6ff8345e692c0f86e5b48e01b996cadc001622fb5e363b421",
            "stateRoot" : "0xd41eafcc754f9e8563a2540777d9e1c5ac62660406ce7a4412b74751f1ae104e",
            "timestamp" : "0x0",
            "transactionsTrie" : "0x56e81f171bcc55a6ff8345e692c0f86e5b48e01b996cadc001622fb5e363b421",
            "uncleHash" : "0x1dcc4de8dec75d7aab85b567b6ccd41ad312451b948a7413f0a142fd40d49347"
        },
        "pre" : {
            "0x1000000000000000000000000000000000000000" : {
                "balance" : "0x00",
                "code" : "0x",
                "nonce" : "0x00",
                "storage" : {
                }
            },
            "0xa94f5374fce5edbc8e2a8697c15331677e6ebf0b" : {
                "balance" : "0xe8d4a51000",
                "code" : "0x",
                "nonce" : "0x00",
                "storage" : {
                }
            },
            "0xb94f5374fce5edbc8e2a8697c15331677e6ebf0b" : {
                "balance" : "0x00",
                "code" : "0x6000600060006000600073e94f5374fce5edbc8e2a8697c15331677e6ebf0b617530f16002556001600355",
                "nonce" : "0x00",
                "storage" : {
                }
            },
            "0xba4f5374fce5edbc8e2a8697c15331677e6ebf0b" : {
                "balance" : "0x00",
                "code" : "0x6000600060006000600073d94f5374fce5edbc8e2a8697c15331677e6ebf0b617530f16000556000600060006000600073b94f5374fce5edbc8e2a8697c15331677e6ebf0b617530f1600155",
                "nonce" : "0x00",
                "storage" : {
                }
            },
            "0xd94f5374fce5edbc8e2a8697c15331677e6ebf0b" : {
                "balance" : "0x00",
                "code" : "0x731000000000000000000000000000000000000000ff",
                "nonce" : "0x00",
                "storage" : {
                }
            },
            "0xe94f5374fce5edbc8e2a8697c15331677e6ebf0b" : {
                "balance" : "0x00",
                "code" : "0x731000000000000000000000000000000000000000ff",
                "nonce" : "0x00",
                "storage" : {
                }
            }
        },
        "postState" : {
            "0xa94f5374fce5edbc8e2a8697c15331677e6ebf0b" : {
                "code" : "0x",
                "nonce" : "0x01",
                "balance" : "0xe8d4a425a0",
                "storage" : {
                }
            },
            "0xd94f5374fce5edbc8e2a8697c15331677e6ebf0b" : {
                "code" : "0x731000000000000000000000000000000000000000ff",
                "nonce" : "0x00",
                "balance" : "0x00",
                "storage" : {
                }
            },
            "0xe94f5374fce5edbc8e2a8697c15331677e6ebf0b" : {
                "code" : "0x731000000000000000000000000000000000000000ff",
                "nonce" : "0x00",
                "balance" : "0x00",
                "storage" : {
                }
            },
            "0xba4f5374fce5edbc8e2a8697c15331677e6ebf0b" : {
                "code" : "0x6000600060006000600073d94f5374fce5edbc8e2a8697c15331677e6ebf0b617530f16000556000600060006000600073b94f5374fce5edbc8e2a8697c15331677e6ebf0b617530f1600155",
                "nonce" : "0x00",
                "balance" : "0x00",
                "storage" : {
                }
            },
            "0x2adc25665018aa1fe0e6bc666dac8fc2697ff9ba" : {
                "code" : "0x",
                "nonce" : "0x00",
                "balance" : "0x1bc16d674ec8ea60",
                "storage" : {
                }
            },
            "0xb94f5374fce5edbc8e2a8697c15331677e6ebf0b" : {
                "code" : "0x6000600060006000600073e94f5374fce5edbc8e2a8697c15331677e6ebf0b617530f16002556001600355",
                "nonce" : "0x00",
                "balance" : "0x00",
                "storage" : {
                }
            },
            "0x1000000000000000000000000000000000000000" : {
                "code" : "0x",
                "nonce" : "0x00",
                "balance" : "0x00",
                "storage" : {
                }
            }
        },
        "network" : "ConstantinopleFix",
        "sealEngine" : "NoProof",
        "lastblockhash" : "0x83cfce87f3f1928013b781319d1ee64320b0d1f9485c9d3415b399f676e3e12e",
        "genesisRLP" : "0xf901f8f901f3a00000000000000000000000000000000000000000000000000000000000000000a01dcc4de8dec75d7aab85b567b6ccd41ad312451b948a7413f0a142fd40d49347942adc25665018aa1fe0e6bc666dac8fc2697ff9baa0d41eafcc754f9e8563a2540777d9e1c5ac62660406ce7a4412b74751f1ae104ea056e81f171bcc55a6ff8345e692c0f86e5b48e01b996cadc001622fb5e363b421a056e81f171bcc55a6ff8345e692c0f86e5b48e01b996cadc001622fb5e363b421b9010000000000000000000000000000000000000000000000000000000000000000000000000000000000000000000000000000000000000000000000000000000000000000000000000000000000000000000000000000000000000000000000000000000000000000000000000000000000000000000000000000000000000000000000000000000000000000000000000000000000000000000000000000000000000000000000000000000000000000000000000000000000000000000000000000000000000000000000000000000000000000000000000000000000000000000000000000000000000000000000000000000000000000000000000000000000830200008083989680808000a00000000000000000000000000000000000000000000000000000000000000000880000000000000000c0c0",
        "blocks" : [
            {
                "rlp" : "0xf9025ef901f7a0407f0ec7b315a117d2859ae38e0bb38ca503185671db53c33437085d257f9e16a01dcc4de8dec75d7aab85b567b6ccd41ad312451b948a7413f0a142fd40d49347942adc25665018aa1fe0e6bc666dac8fc2697ff9baa00e58b6cc42eca24b796d4f0879aa6bc22490860b6e1dda130eecb0987abaf5f4a07fb038aa69677ca4d7e77018dca057c3b4d81b2b3aad45f8466fd049632e0bd0a0595998c1d9a5a64049a0d61a9e4b6bb8c69abf9c5ced72c174322a611dfd3e44b901000000000000000000000000000000000000000000000000000000000000000000000000000000000000000000000000000000000000000000000000000000000000000000000000000000000000000000000000000000000000000000000000000000000000000000000000000000000000000000000000000000000000000000000000000000000000000000000000000000000000000000000000000000000000000000000000000000000000000000000000000000000000000000000000000000000000000000000000000000000000000000000000000000000000000000000000000000000000000000000000000000000000000000000000000000000083020000018398bca482ea608203e800a00000000000000000000000000000000000000000000000000000000000000000880000000000000000f861f85f800182ea6094ba4f5374fce5edbc8e2a8697c15331677e6ebf0b80801ba001f216eafbcb966b1af4a033263f627308d2ee7b9103df7893e22b955dd7f81fa05cf244040e96894b2883f42ddc1b43ea3629774971d35166abc72af0e628e237c0",
                "blockHeader" : {
                    "bloom" : "0x00000000000000000000000000000000000000000000000000000000000000000000000000000000000000000000000000000000000000000000000000000000000000000000000000000000000000000000000000000000000000000000000000000000000000000000000000000000000000000000000000000000000000000000000000000000000000000000000000000000000000000000000000000000000000000000000000000000000000000000000000000000000000000000000000000000000000000000000000000000000000000000000000000000000000000000000000000000000000000000000000000000000000000000000000000000",
                    "coinbase" : "0x2adc25665018aa1fe0e6bc666dac8fc2697ff9ba",
                    "difficulty" : "0x20000",
                    "extraData" : "0x00",
                    "gasLimit" : "0x98bca4",
                    "gasUsed" : "0xea60",
                    "hash" : "0x83cfce87f3f1928013b781319d1ee64320b0d1f9485c9d3415b399f676e3e12e",
                    "mixHash" : "0x0000000000000000000000000000000000000000000000000000000000000000",
                    "nonce" : "0x0000000000000000",
                    "number" : "0x1",
                    "parentHash" : "0x407f0ec7b315a117d2859ae38e0bb38ca503185671db53c33437085d257f9e16",
                    "receiptTrie" : "0x595998c1d9a5a64049a0d61a9e4b6bb8c69abf9c5ced72c174322a611dfd3e44",
                    "stateRoot" : "0x0e58b6cc42eca24b796d4f0879aa6bc22490860b6e1dda130eecb0987abaf5f4",
                    "timestamp" : "0x3e8",
                    "transactionsTrie" : "0x7fb038aa69677ca4d7e77018dca057c3b4d81b2b3aad45f8466fd049632e0bd0",
                    "uncleHash" : "0x1dcc4de8dec75d7aab85b567b6ccd41ad312451b948a7413f0a142fd40d49347"
                },
                "transactions" : [
                    {
                        "data" : "0x",
                        "gasLimit" : "0xea60",
                        "gasPrice" : "0x01",
                        "nonce" : "0x00",
                        "secretKey" : "0x45a915e4d060149eb4365960e6a7a45f334393093061116b197e3240065ff2d8",
                        "to" : "0xba4f5374fce5edbc8e2a8697c15331677e6ebf0b",
                        "value" : "0x00"
                    }
                ]
            }
        ]
    }
}