{
    "TouchToEmptyAccountRevert2_d0g0v0_Byzantium" : {
        "_info" : {
            "comment" : "",
            "filledwith" : "cpp-1.3.0+commit.ee0c6776.Linux.g++",
            "lllcversion" : "Version: 0.4.20-develop.2018.2.4+commit.c696803f.Linux.g++",
            "source" : "src/BlockchainTestsFiller/GeneralStateTests/stRevertTest/TouchToEmptyAccountRevert2_d0g0v0Filler.json",
            "sourceHash" : "65a0f513e6fb8397756ed4ebda971f8badbde3e2ee3878cebf498279efb61c0f"
        },
        "blocks" : [
            {
                "blockHeader" : {
                    "bloom" : "0x00000000000000000000000000000000000000000000000000000000000000000000000000000000000000000000000000000000000000000000000000000000000000000000000000000000000000000000000000000000000000000000000000000000000000000000000000000000000000000000000000000000000000000000000000000000000000000000000000000000000000000000000000000000000000000000000000000000000000000000000000000000000000000000000000000000000000000000000000000000000000000000000000000000000000000000000000000000000000000000000000000000000000000000000000000000",
                    "coinbase" : "0x2adc25665018aa1fe0e6bc666dac8fc2697ff9ba",
                    "difficulty" : "0x020000",
                    "extraData" : "",
                    "gasLimit" : "0x989680",
                    "gasUsed" : "0x012e58",
                    "hash" : "0x2fbe5a585df3b6c260dda3c8df33427c378cfdc669dab6093a7738138428092f",
                    "mixHash" : "0xe384dd323a7aee67de925748273ee6717a335f0970535c68ff4bbd1975e259fe",
                    "nonce" : "0x0782a21e99362a9a",
                    "number" : "0x01",
                    "parentHash" : "0x3797f4aae251d4ab33e6ba76ba49712643045f4a2f45a243c683fc2891ed00b0",
                    "receiptTrie" : "0x41ca2a684b65e197e5164274ce8378f6886287548fd763dbd4d2131f421d9b06",
                    "stateRoot" : "0x0cc64d4cd097bed554ca1f3100f9525fcb8bb9f560bac2e3c54861bf1912180f",
                    "timestamp" : "0x03e8",
                    "transactionsTrie" : "0x2e42786e6ec04830fd0a77ce80f317a47b51dbbaed516c714d01fdbfc50a940d",
                    "uncleHash" : "0x1dcc4de8dec75d7aab85b567b6ccd41ad312451b948a7413f0a142fd40d49347"
                },
                "rlp" : "0xf90260f901f8a03797f4aae251d4ab33e6ba76ba49712643045f4a2f45a243c683fc2891ed00b0a01dcc4de8dec75d7aab85b567b6ccd41ad312451b948a7413f0a142fd40d49347942adc25665018aa1fe0e6bc666dac8fc2697ff9baa00cc64d4cd097bed554ca1f3100f9525fcb8bb9f560bac2e3c54861bf1912180fa02e42786e6ec04830fd0a77ce80f317a47b51dbbaed516c714d01fdbfc50a940da041ca2a684b65e197e5164274ce8378f6886287548fd763dbd4d2131f421d9b06b901000000000000000000000000000000000000000000000000000000000000000000000000000000000000000000000000000000000000000000000000000000000000000000000000000000000000000000000000000000000000000000000000000000000000000000000000000000000000000000000000000000000000000000000000000000000000000000000000000000000000000000000000000000000000000000000000000000000000000000000000000000000000000000000000000000000000000000000000000000000000000000000000000000000000000000000000000000000000000000000000000000000000000000000000000000000083020000018398968083012e588203e880a0e384dd323a7aee67de925748273ee6717a335f0970535c68ff4bbd1975e259fe880782a21e99362a9af862f860800183012e5894ba4f5374fce5edbc8e2a8697c15331677e6ebf0b80801ca054aeb49b272934f1c9b09d36b6ad6cac4ee262c311c9a86d3f98db65bd00ee51a00178bd16091e19ed2e1c7d8160095d6bc9d6ef1d168ff61cb194dfc3b1d4d8c1c0",
                "transactions" : [
                    {
                        "data" : "0x",
                        "gasLimit" : "0x012e58",
                        "gasPrice" : "0x01",
                        "nonce" : "0x00",
                        "r" : "0x54aeb49b272934f1c9b09d36b6ad6cac4ee262c311c9a86d3f98db65bd00ee51",
                        "s" : "0x0178bd16091e19ed2e1c7d8160095d6bc9d6ef1d168ff61cb194dfc3b1d4d8c1",
                        "to" : "0xba4f5374fce5edbc8e2a8697c15331677e6ebf0b",
                        "v" : "0x1c",
                        "value" : "0x00"
                    }
                ],
                "uncleHeaders" : [
                ]
            }
        ],
        "genesisBlockHeader" : {
            "bloom" : "0x00000000000000000000000000000000000000000000000000000000000000000000000000000000000000000000000000000000000000000000000000000000000000000000000000000000000000000000000000000000000000000000000000000000000000000000000000000000000000000000000000000000000000000000000000000000000000000000000000000000000000000000000000000000000000000000000000000000000000000000000000000000000000000000000000000000000000000000000000000000000000000000000000000000000000000000000000000000000000000000000000000000000000000000000000000000",
            "coinbase" : "0x2adc25665018aa1fe0e6bc666dac8fc2697ff9ba",
            "difficulty" : "0x020000",
            "extraData" : "0x42",
            "gasLimit" : "0x989680",
            "gasUsed" : "0x00",
            "hash" : "0x3797f4aae251d4ab33e6ba76ba49712643045f4a2f45a243c683fc2891ed00b0",
            "mixHash" : "0x56e81f171bcc55a6ff8345e692c0f86e5b48e01b996cadc001622fb5e363b421",
            "nonce" : "0x0102030405060708",
            "number" : "0x00",
            "parentHash" : "0x0000000000000000000000000000000000000000000000000000000000000000",
            "receiptTrie" : "0x56e81f171bcc55a6ff8345e692c0f86e5b48e01b996cadc001622fb5e363b421",
            "stateRoot" : "0x7a5c2ca69baab334d19101761edc9ee07a518b9546f6cd713dacb2edabc8f913",
            "timestamp" : "0x03b6",
            "transactionsTrie" : "0x56e81f171bcc55a6ff8345e692c0f86e5b48e01b996cadc001622fb5e363b421",
            "uncleHash" : "0x1dcc4de8dec75d7aab85b567b6ccd41ad312451b948a7413f0a142fd40d49347"
        },
        "genesisRLP" : "0xf901faf901f5a00000000000000000000000000000000000000000000000000000000000000000a01dcc4de8dec75d7aab85b567b6ccd41ad312451b948a7413f0a142fd40d49347942adc25665018aa1fe0e6bc666dac8fc2697ff9baa07a5c2ca69baab334d19101761edc9ee07a518b9546f6cd713dacb2edabc8f913a056e81f171bcc55a6ff8345e692c0f86e5b48e01b996cadc001622fb5e363b421a056e81f171bcc55a6ff8345e692c0f86e5b48e01b996cadc001622fb5e363b421b9010000000000000000000000000000000000000000000000000000000000000000000000000000000000000000000000000000000000000000000000000000000000000000000000000000000000000000000000000000000000000000000000000000000000000000000000000000000000000000000000000000000000000000000000000000000000000000000000000000000000000000000000000000000000000000000000000000000000000000000000000000000000000000000000000000000000000000000000000000000000000000000000000000000000000000000000000000000000000000000000000000000000000000000000000000000000830200008083989680808203b642a056e81f171bcc55a6ff8345e692c0f86e5b48e01b996cadc001622fb5e363b421880102030405060708c0c0",
        "lastblockhash" : "0x2fbe5a585df3b6c260dda3c8df33427c378cfdc669dab6093a7738138428092f",
        "network" : "Byzantium",
        "postState" : {
            "0x1000000000000000000000000000000000000000" : {
                "balance" : "0x00",
                "code" : "",
                "nonce" : "0x00",
                "storage" : {
                }
            },
            "0x2adc25665018aa1fe0e6bc666dac8fc2697ff9ba" : {
                "balance" : "0x29a2241af62d2e58",
                "code" : "",
                "nonce" : "0x00",
                "storage" : {
                }
            },
            "0xa94f5374fce5edbc8e2a8697c15331677e6ebf0b" : {
                "balance" : "0xe8d4a3e1a8",
                "code" : "",
                "nonce" : "0x01",
                "storage" : {
                }
            },
            "0xb94f5374fce5edbc8e2a8697c15331677e6ebf0b" : {
                "balance" : "0x00",
                "code" : "0x60006000600060006000731000000000000000000000000000000000000000617530f16002556001600355",
                "nonce" : "0x00",
                "storage" : {
                }
            },
            "0xba4f5374fce5edbc8e2a8697c15331677e6ebf0b" : {
                "balance" : "0x00",
                "code" : "0x60006000600060006000731000000000000000000000000000000000000000617530f16000556000600060006000600073b94f5374fce5edbc8e2a8697c15331677e6ebf0b617530f1600155",
                "nonce" : "0x00",
                "storage" : {
                }
            }
        },
        "pre" : {
            "0x1000000000000000000000000000000000000000" : {
                "balance" : "0x00",
                "code" : "",
                "nonce" : "0x00",
                "storage" : {
                }
            },
            "0xa94f5374fce5edbc8e2a8697c15331677e6ebf0b" : {
                "balance" : "0xe8d4a51000",
                "code" : "",
                "nonce" : "0x00",
                "storage" : {
                }
            },
            "0xb94f5374fce5edbc8e2a8697c15331677e6ebf0b" : {
                "balance" : "0x00",
                "code" : "0x60006000600060006000731000000000000000000000000000000000000000617530f16002556001600355",
                "nonce" : "0x00",
                "storage" : {
                }
            },
            "0xba4f5374fce5edbc8e2a8697c15331677e6ebf0b" : {
                "balance" : "0x00",
                "code" : "0x60006000600060006000731000000000000000000000000000000000000000617530f16000556000600060006000600073b94f5374fce5edbc8e2a8697c15331677e6ebf0b617530f1600155",
                "nonce" : "0x00",
                "storage" : {
                }
            }
        }
    },
    "TouchToEmptyAccountRevert2_d0g0v0_EIP150" : {
        "_info" : {
            "comment" : "",
            "filledwith" : "cpp-1.3.0+commit.ee0c6776.Linux.g++",
            "lllcversion" : "Version: 0.4.20-develop.2018.2.4+commit.c696803f.Linux.g++",
            "source" : "src/BlockchainTestsFiller/GeneralStateTests/stRevertTest/TouchToEmptyAccountRevert2_d0g0v0Filler.json",
            "sourceHash" : "65a0f513e6fb8397756ed4ebda971f8badbde3e2ee3878cebf498279efb61c0f"
        },
        "blocks" : [
            {
                "blockHeader" : {
                    "bloom" : "0x00000000000000000000000000000000000000000000000000000000000000000000000000000000000000000000000000000000000000000000000000000000000000000000000000000000000000000000000000000000000000000000000000000000000000000000000000000000000000000000000000000000000000000000000000000000000000000000000000000000000000000000000000000000000000000000000000000000000000000000000000000000000000000000000000000000000000000000000000000000000000000000000000000000000000000000000000000000000000000000000000000000000000000000000000000000",
                    "coinbase" : "0x2adc25665018aa1fe0e6bc666dac8fc2697ff9ba",
                    "difficulty" : "0x020000",
                    "extraData" : "",
                    "gasLimit" : "0x989680",
                    "gasUsed" : "0x012e58",
                    "hash" : "0x5083dcbf9b0c3b48fe33d47f4fc35cb7a8dd095a92abf178ded2f859d23f8263",
                    "mixHash" : "0x3b3e43b9cd39709c68ebb899486cb8714fc4467b12ec3019d4ce506568818b32",
                    "nonce" : "0xdc99d785b006b0fd",
                    "number" : "0x01",
                    "parentHash" : "0x3797f4aae251d4ab33e6ba76ba49712643045f4a2f45a243c683fc2891ed00b0",
                    "receiptTrie" : "0x8d2a9f4020df8909ee5377aa470ad31a68259665bf392db364b3d31eb6ae7263",
                    "stateRoot" : "0x8154e694a1619da171b31c9cf90fb316cbbc8821f1b39febd2fe413286aedb2a",
                    "timestamp" : "0x03e8",
                    "transactionsTrie" : "0x2e42786e6ec04830fd0a77ce80f317a47b51dbbaed516c714d01fdbfc50a940d",
                    "uncleHash" : "0x1dcc4de8dec75d7aab85b567b6ccd41ad312451b948a7413f0a142fd40d49347"
                },
                "rlp" : "0xf90260f901f8a03797f4aae251d4ab33e6ba76ba49712643045f4a2f45a243c683fc2891ed00b0a01dcc4de8dec75d7aab85b567b6ccd41ad312451b948a7413f0a142fd40d49347942adc25665018aa1fe0e6bc666dac8fc2697ff9baa08154e694a1619da171b31c9cf90fb316cbbc8821f1b39febd2fe413286aedb2aa02e42786e6ec04830fd0a77ce80f317a47b51dbbaed516c714d01fdbfc50a940da08d2a9f4020df8909ee5377aa470ad31a68259665bf392db364b3d31eb6ae7263b901000000000000000000000000000000000000000000000000000000000000000000000000000000000000000000000000000000000000000000000000000000000000000000000000000000000000000000000000000000000000000000000000000000000000000000000000000000000000000000000000000000000000000000000000000000000000000000000000000000000000000000000000000000000000000000000000000000000000000000000000000000000000000000000000000000000000000000000000000000000000000000000000000000000000000000000000000000000000000000000000000000000000000000000000000000000083020000018398968083012e588203e880a03b3e43b9cd39709c68ebb899486cb8714fc4467b12ec3019d4ce506568818b3288dc99d785b006b0fdf862f860800183012e5894ba4f5374fce5edbc8e2a8697c15331677e6ebf0b80801ca054aeb49b272934f1c9b09d36b6ad6cac4ee262c311c9a86d3f98db65bd00ee51a00178bd16091e19ed2e1c7d8160095d6bc9d6ef1d168ff61cb194dfc3b1d4d8c1c0",
                "transactions" : [
                    {
                        "data" : "0x",
                        "gasLimit" : "0x012e58",
                        "gasPrice" : "0x01",
                        "nonce" : "0x00",
                        "r" : "0x54aeb49b272934f1c9b09d36b6ad6cac4ee262c311c9a86d3f98db65bd00ee51",
                        "s" : "0x0178bd16091e19ed2e1c7d8160095d6bc9d6ef1d168ff61cb194dfc3b1d4d8c1",
                        "to" : "0xba4f5374fce5edbc8e2a8697c15331677e6ebf0b",
                        "v" : "0x1c",
                        "value" : "0x00"
                    }
                ],
                "uncleHeaders" : [
                ]
            }
        ],
        "genesisBlockHeader" : {
            "bloom" : "0x00000000000000000000000000000000000000000000000000000000000000000000000000000000000000000000000000000000000000000000000000000000000000000000000000000000000000000000000000000000000000000000000000000000000000000000000000000000000000000000000000000000000000000000000000000000000000000000000000000000000000000000000000000000000000000000000000000000000000000000000000000000000000000000000000000000000000000000000000000000000000000000000000000000000000000000000000000000000000000000000000000000000000000000000000000000",
            "coinbase" : "0x2adc25665018aa1fe0e6bc666dac8fc2697ff9ba",
            "difficulty" : "0x020000",
            "extraData" : "0x42",
            "gasLimit" : "0x989680",
            "gasUsed" : "0x00",
            "hash" : "0x3797f4aae251d4ab33e6ba76ba49712643045f4a2f45a243c683fc2891ed00b0",
            "mixHash" : "0x56e81f171bcc55a6ff8345e692c0f86e5b48e01b996cadc001622fb5e363b421",
            "nonce" : "0x0102030405060708",
            "number" : "0x00",
            "parentHash" : "0x0000000000000000000000000000000000000000000000000000000000000000",
            "receiptTrie" : "0x56e81f171bcc55a6ff8345e692c0f86e5b48e01b996cadc001622fb5e363b421",
            "stateRoot" : "0x7a5c2ca69baab334d19101761edc9ee07a518b9546f6cd713dacb2edabc8f913",
            "timestamp" : "0x03b6",
            "transactionsTrie" : "0x56e81f171bcc55a6ff8345e692c0f86e5b48e01b996cadc001622fb5e363b421",
            "uncleHash" : "0x1dcc4de8dec75d7aab85b567b6ccd41ad312451b948a7413f0a142fd40d49347"
        },
        "genesisRLP" : "0xf901faf901f5a00000000000000000000000000000000000000000000000000000000000000000a01dcc4de8dec75d7aab85b567b6ccd41ad312451b948a7413f0a142fd40d49347942adc25665018aa1fe0e6bc666dac8fc2697ff9baa07a5c2ca69baab334d19101761edc9ee07a518b9546f6cd713dacb2edabc8f913a056e81f171bcc55a6ff8345e692c0f86e5b48e01b996cadc001622fb5e363b421a056e81f171bcc55a6ff8345e692c0f86e5b48e01b996cadc001622fb5e363b421b9010000000000000000000000000000000000000000000000000000000000000000000000000000000000000000000000000000000000000000000000000000000000000000000000000000000000000000000000000000000000000000000000000000000000000000000000000000000000000000000000000000000000000000000000000000000000000000000000000000000000000000000000000000000000000000000000000000000000000000000000000000000000000000000000000000000000000000000000000000000000000000000000000000000000000000000000000000000000000000000000000000000000000000000000000000000000830200008083989680808203b642a056e81f171bcc55a6ff8345e692c0f86e5b48e01b996cadc001622fb5e363b421880102030405060708c0c0",
        "lastblockhash" : "0x5083dcbf9b0c3b48fe33d47f4fc35cb7a8dd095a92abf178ded2f859d23f8263",
        "network" : "EIP150",
        "postState" : {
            "0x1000000000000000000000000000000000000000" : {
                "balance" : "0x00",
                "code" : "",
                "nonce" : "0x00",
                "storage" : {
                }
            },
            "0x2adc25665018aa1fe0e6bc666dac8fc2697ff9ba" : {
                "balance" : "0x4563918244f52e58",
                "code" : "",
                "nonce" : "0x00",
                "storage" : {
                }
            },
            "0xa94f5374fce5edbc8e2a8697c15331677e6ebf0b" : {
                "balance" : "0xe8d4a3e1a8",
                "code" : "",
                "nonce" : "0x01",
                "storage" : {
                }
            },
            "0xb94f5374fce5edbc8e2a8697c15331677e6ebf0b" : {
                "balance" : "0x00",
                "code" : "0x60006000600060006000731000000000000000000000000000000000000000617530f16002556001600355",
                "nonce" : "0x00",
                "storage" : {
                }
            },
            "0xba4f5374fce5edbc8e2a8697c15331677e6ebf0b" : {
                "balance" : "0x00",
                "code" : "0x60006000600060006000731000000000000000000000000000000000000000617530f16000556000600060006000600073b94f5374fce5edbc8e2a8697c15331677e6ebf0b617530f1600155",
                "nonce" : "0x00",
                "storage" : {
                }
            }
        },
        "pre" : {
            "0x1000000000000000000000000000000000000000" : {
                "balance" : "0x00",
                "code" : "",
                "nonce" : "0x00",
                "storage" : {
                }
            },
            "0xa94f5374fce5edbc8e2a8697c15331677e6ebf0b" : {
                "balance" : "0xe8d4a51000",
                "code" : "",
                "nonce" : "0x00",
                "storage" : {
                }
            },
            "0xb94f5374fce5edbc8e2a8697c15331677e6ebf0b" : {
                "balance" : "0x00",
                "code" : "0x60006000600060006000731000000000000000000000000000000000000000617530f16002556001600355",
                "nonce" : "0x00",
                "storage" : {
                }
            },
            "0xba4f5374fce5edbc8e2a8697c15331677e6ebf0b" : {
                "balance" : "0x00",
                "code" : "0x60006000600060006000731000000000000000000000000000000000000000617530f16000556000600060006000600073b94f5374fce5edbc8e2a8697c15331677e6ebf0b617530f1600155",
                "nonce" : "0x00",
                "storage" : {
                }
            }
        }
    },
    "TouchToEmptyAccountRevert2_d0g0v0_EIP158" : {
        "_info" : {
            "comment" : "",
            "filledwith" : "cpp-1.3.0+commit.ee0c6776.Linux.g++",
            "lllcversion" : "Version: 0.4.20-develop.2018.2.4+commit.c696803f.Linux.g++",
            "source" : "src/BlockchainTestsFiller/GeneralStateTests/stRevertTest/TouchToEmptyAccountRevert2_d0g0v0Filler.json",
            "sourceHash" : "65a0f513e6fb8397756ed4ebda971f8badbde3e2ee3878cebf498279efb61c0f"
        },
        "blocks" : [
            {
                "blockHeader" : {
                    "bloom" : "0x00000000000000000000000000000000000000000000000000000000000000000000000000000000000000000000000000000000000000000000000000000000000000000000000000000000000000000000000000000000000000000000000000000000000000000000000000000000000000000000000000000000000000000000000000000000000000000000000000000000000000000000000000000000000000000000000000000000000000000000000000000000000000000000000000000000000000000000000000000000000000000000000000000000000000000000000000000000000000000000000000000000000000000000000000000000",
                    "coinbase" : "0x2adc25665018aa1fe0e6bc666dac8fc2697ff9ba",
                    "difficulty" : "0x020000",
                    "extraData" : "",
                    "gasLimit" : "0x989680",
                    "gasUsed" : "0x012e58",
                    "hash" : "0x91ce1bdef48998a11503224ab74272cd4bfac8480bb326246eb27b2383dbf761",
                    "mixHash" : "0xd9525c2cc6bbfd8cf8bc20eccfeafea81ee46f526a606aef86f6fe3539922043",
                    "nonce" : "0x6ec4013ef469718d",
                    "number" : "0x01",
                    "parentHash" : "0x3797f4aae251d4ab33e6ba76ba49712643045f4a2f45a243c683fc2891ed00b0",
                    "receiptTrie" : "0x8d2a9f4020df8909ee5377aa470ad31a68259665bf392db364b3d31eb6ae7263",
                    "stateRoot" : "0x8154e694a1619da171b31c9cf90fb316cbbc8821f1b39febd2fe413286aedb2a",
                    "timestamp" : "0x03e8",
                    "transactionsTrie" : "0x2e42786e6ec04830fd0a77ce80f317a47b51dbbaed516c714d01fdbfc50a940d",
                    "uncleHash" : "0x1dcc4de8dec75d7aab85b567b6ccd41ad312451b948a7413f0a142fd40d49347"
                },
                "rlp" : "0xf90260f901f8a03797f4aae251d4ab33e6ba76ba49712643045f4a2f45a243c683fc2891ed00b0a01dcc4de8dec75d7aab85b567b6ccd41ad312451b948a7413f0a142fd40d49347942adc25665018aa1fe0e6bc666dac8fc2697ff9baa08154e694a1619da171b31c9cf90fb316cbbc8821f1b39febd2fe413286aedb2aa02e42786e6ec04830fd0a77ce80f317a47b51dbbaed516c714d01fdbfc50a940da08d2a9f4020df8909ee5377aa470ad31a68259665bf392db364b3d31eb6ae7263b901000000000000000000000000000000000000000000000000000000000000000000000000000000000000000000000000000000000000000000000000000000000000000000000000000000000000000000000000000000000000000000000000000000000000000000000000000000000000000000000000000000000000000000000000000000000000000000000000000000000000000000000000000000000000000000000000000000000000000000000000000000000000000000000000000000000000000000000000000000000000000000000000000000000000000000000000000000000000000000000000000000000000000000000000000000000083020000018398968083012e588203e880a0d9525c2cc6bbfd8cf8bc20eccfeafea81ee46f526a606aef86f6fe3539922043886ec4013ef469718df862f860800183012e5894ba4f5374fce5edbc8e2a8697c15331677e6ebf0b80801ca054aeb49b272934f1c9b09d36b6ad6cac4ee262c311c9a86d3f98db65bd00ee51a00178bd16091e19ed2e1c7d8160095d6bc9d6ef1d168ff61cb194dfc3b1d4d8c1c0",
                "transactions" : [
                    {
                        "data" : "0x",
                        "gasLimit" : "0x012e58",
                        "gasPrice" : "0x01",
                        "nonce" : "0x00",
                        "r" : "0x54aeb49b272934f1c9b09d36b6ad6cac4ee262c311c9a86d3f98db65bd00ee51",
                        "s" : "0x0178bd16091e19ed2e1c7d8160095d6bc9d6ef1d168ff61cb194dfc3b1d4d8c1",
                        "to" : "0xba4f5374fce5edbc8e2a8697c15331677e6ebf0b",
                        "v" : "0x1c",
                        "value" : "0x00"
                    }
                ],
                "uncleHeaders" : [
                ]
            }
        ],
        "genesisBlockHeader" : {
            "bloom" : "0x00000000000000000000000000000000000000000000000000000000000000000000000000000000000000000000000000000000000000000000000000000000000000000000000000000000000000000000000000000000000000000000000000000000000000000000000000000000000000000000000000000000000000000000000000000000000000000000000000000000000000000000000000000000000000000000000000000000000000000000000000000000000000000000000000000000000000000000000000000000000000000000000000000000000000000000000000000000000000000000000000000000000000000000000000000000",
            "coinbase" : "0x2adc25665018aa1fe0e6bc666dac8fc2697ff9ba",
            "difficulty" : "0x020000",
            "extraData" : "0x42",
            "gasLimit" : "0x989680",
            "gasUsed" : "0x00",
            "hash" : "0x3797f4aae251d4ab33e6ba76ba49712643045f4a2f45a243c683fc2891ed00b0",
            "mixHash" : "0x56e81f171bcc55a6ff8345e692c0f86e5b48e01b996cadc001622fb5e363b421",
            "nonce" : "0x0102030405060708",
            "number" : "0x00",
            "parentHash" : "0x0000000000000000000000000000000000000000000000000000000000000000",
            "receiptTrie" : "0x56e81f171bcc55a6ff8345e692c0f86e5b48e01b996cadc001622fb5e363b421",
            "stateRoot" : "0x7a5c2ca69baab334d19101761edc9ee07a518b9546f6cd713dacb2edabc8f913",
            "timestamp" : "0x03b6",
            "transactionsTrie" : "0x56e81f171bcc55a6ff8345e692c0f86e5b48e01b996cadc001622fb5e363b421",
            "uncleHash" : "0x1dcc4de8dec75d7aab85b567b6ccd41ad312451b948a7413f0a142fd40d49347"
        },
        "genesisRLP" : "0xf901faf901f5a00000000000000000000000000000000000000000000000000000000000000000a01dcc4de8dec75d7aab85b567b6ccd41ad312451b948a7413f0a142fd40d49347942adc25665018aa1fe0e6bc666dac8fc2697ff9baa07a5c2ca69baab334d19101761edc9ee07a518b9546f6cd713dacb2edabc8f913a056e81f171bcc55a6ff8345e692c0f86e5b48e01b996cadc001622fb5e363b421a056e81f171bcc55a6ff8345e692c0f86e5b48e01b996cadc001622fb5e363b421b9010000000000000000000000000000000000000000000000000000000000000000000000000000000000000000000000000000000000000000000000000000000000000000000000000000000000000000000000000000000000000000000000000000000000000000000000000000000000000000000000000000000000000000000000000000000000000000000000000000000000000000000000000000000000000000000000000000000000000000000000000000000000000000000000000000000000000000000000000000000000000000000000000000000000000000000000000000000000000000000000000000000000000000000000000000000000830200008083989680808203b642a056e81f171bcc55a6ff8345e692c0f86e5b48e01b996cadc001622fb5e363b421880102030405060708c0c0",
        "lastblockhash" : "0x91ce1bdef48998a11503224ab74272cd4bfac8480bb326246eb27b2383dbf761",
        "network" : "EIP158",
        "postState" : {
            "0x1000000000000000000000000000000000000000" : {
                "balance" : "0x00",
                "code" : "",
                "nonce" : "0x00",
                "storage" : {
                }
            },
            "0x2adc25665018aa1fe0e6bc666dac8fc2697ff9ba" : {
                "balance" : "0x4563918244f52e58",
                "code" : "",
                "nonce" : "0x00",
                "storage" : {
                }
            },
            "0xa94f5374fce5edbc8e2a8697c15331677e6ebf0b" : {
                "balance" : "0xe8d4a3e1a8",
                "code" : "",
                "nonce" : "0x01",
                "storage" : {
                }
            },
            "0xb94f5374fce5edbc8e2a8697c15331677e6ebf0b" : {
                "balance" : "0x00",
                "code" : "0x60006000600060006000731000000000000000000000000000000000000000617530f16002556001600355",
                "nonce" : "0x00",
                "storage" : {
                }
            },
            "0xba4f5374fce5edbc8e2a8697c15331677e6ebf0b" : {
                "balance" : "0x00",
                "code" : "0x60006000600060006000731000000000000000000000000000000000000000617530f16000556000600060006000600073b94f5374fce5edbc8e2a8697c15331677e6ebf0b617530f1600155",
                "nonce" : "0x00",
                "storage" : {
                }
            }
        },
        "pre" : {
            "0x1000000000000000000000000000000000000000" : {
                "balance" : "0x00",
                "code" : "",
                "nonce" : "0x00",
                "storage" : {
                }
            },
            "0xa94f5374fce5edbc8e2a8697c15331677e6ebf0b" : {
                "balance" : "0xe8d4a51000",
                "code" : "",
                "nonce" : "0x00",
                "storage" : {
                }
            },
            "0xb94f5374fce5edbc8e2a8697c15331677e6ebf0b" : {
                "balance" : "0x00",
                "code" : "0x60006000600060006000731000000000000000000000000000000000000000617530f16002556001600355",
                "nonce" : "0x00",
                "storage" : {
                }
            },
            "0xba4f5374fce5edbc8e2a8697c15331677e6ebf0b" : {
                "balance" : "0x00",
                "code" : "0x60006000600060006000731000000000000000000000000000000000000000617530f16000556000600060006000600073b94f5374fce5edbc8e2a8697c15331677e6ebf0b617530f1600155",
                "nonce" : "0x00",
                "storage" : {
                }
            }
        }
    },
    "TouchToEmptyAccountRevert2_d0g0v0_Homestead" : {
        "_info" : {
            "comment" : "",
            "filledwith" : "cpp-1.3.0+commit.ee0c6776.Linux.g++",
            "lllcversion" : "Version: 0.4.20-develop.2018.2.4+commit.c696803f.Linux.g++",
            "source" : "src/BlockchainTestsFiller/GeneralStateTests/stRevertTest/TouchToEmptyAccountRevert2_d0g0v0Filler.json",
            "sourceHash" : "65a0f513e6fb8397756ed4ebda971f8badbde3e2ee3878cebf498279efb61c0f"
        },
        "blocks" : [
            {
                "blockHeader" : {
                    "bloom" : "0x00000000000000000000000000000000000000000000000000000000000000000000000000000000000000000000000000000000000000000000000000000000000000000000000000000000000000000000000000000000000000000000000000000000000000000000000000000000000000000000000000000000000000000000000000000000000000000000000000000000000000000000000000000000000000000000000000000000000000000000000000000000000000000000000000000000000000000000000000000000000000000000000000000000000000000000000000000000000000000000000000000000000000000000000000000000",
                    "coinbase" : "0x2adc25665018aa1fe0e6bc666dac8fc2697ff9ba",
                    "difficulty" : "0x020000",
                    "extraData" : "",
                    "gasLimit" : "0x989680",
                    "gasUsed" : "0x012960",
                    "hash" : "0xae2550a2a880bf824054413b5250c5ce177ca3e1eb335a275ce53e2eb38d0785",
                    "mixHash" : "0xc34e2c839030dfb9fa17006f67d7b606918dd10fd55ddefeb7b4e788c2e6a444",
                    "nonce" : "0xa084132754bc3398",
                    "number" : "0x01",
                    "parentHash" : "0x3797f4aae251d4ab33e6ba76ba49712643045f4a2f45a243c683fc2891ed00b0",
                    "receiptTrie" : "0x9bb4c7ec36816a298957d664f34ecf0e59ece5cfc481197bdac733f4aca503fd",
                    "stateRoot" : "0xeb7378441bb2ccb29da3ffc039a2a689f79cbd21cba0fe40287d26155f65e6a8",
                    "timestamp" : "0x03e8",
                    "transactionsTrie" : "0x2e42786e6ec04830fd0a77ce80f317a47b51dbbaed516c714d01fdbfc50a940d",
                    "uncleHash" : "0x1dcc4de8dec75d7aab85b567b6ccd41ad312451b948a7413f0a142fd40d49347"
                },
                "rlp" : "0xf90260f901f8a03797f4aae251d4ab33e6ba76ba49712643045f4a2f45a243c683fc2891ed00b0a01dcc4de8dec75d7aab85b567b6ccd41ad312451b948a7413f0a142fd40d49347942adc25665018aa1fe0e6bc666dac8fc2697ff9baa0eb7378441bb2ccb29da3ffc039a2a689f79cbd21cba0fe40287d26155f65e6a8a02e42786e6ec04830fd0a77ce80f317a47b51dbbaed516c714d01fdbfc50a940da09bb4c7ec36816a298957d664f34ecf0e59ece5cfc481197bdac733f4aca503fdb9010000000000000000000000000000000000000000000000000000000000000000000000000000000000000000000000000000000000000000000000000000000000000000000000000000000000000000000000000000000000000000000000000000000000000000000000000000000000000000000000000000000000000000000000000000000000000000000000000000000000000000000000000000000000000000000000000000000000000000000000000000000000000000000000000000000000000000000000000000000000000000000000000000000000000000000000000000000000000000000000000000000000000000000000000000000000830200000183989680830129608203e880a0c34e2c839030dfb9fa17006f67d7b606918dd10fd55ddefeb7b4e788c2e6a44488a084132754bc3398f862f860800183012e5894ba4f5374fce5edbc8e2a8697c15331677e6ebf0b80801ca054aeb49b272934f1c9b09d36b6ad6cac4ee262c311c9a86d3f98db65bd00ee51a00178bd16091e19ed2e1c7d8160095d6bc9d6ef1d168ff61cb194dfc3b1d4d8c1c0",
                "transactions" : [
                    {
                        "data" : "0x",
                        "gasLimit" : "0x012e58",
                        "gasPrice" : "0x01",
                        "nonce" : "0x00",
                        "r" : "0x54aeb49b272934f1c9b09d36b6ad6cac4ee262c311c9a86d3f98db65bd00ee51",
                        "s" : "0x0178bd16091e19ed2e1c7d8160095d6bc9d6ef1d168ff61cb194dfc3b1d4d8c1",
                        "to" : "0xba4f5374fce5edbc8e2a8697c15331677e6ebf0b",
                        "v" : "0x1c",
                        "value" : "0x00"
                    }
                ],
                "uncleHeaders" : [
                ]
            }
        ],
        "genesisBlockHeader" : {
            "bloom" : "0x00000000000000000000000000000000000000000000000000000000000000000000000000000000000000000000000000000000000000000000000000000000000000000000000000000000000000000000000000000000000000000000000000000000000000000000000000000000000000000000000000000000000000000000000000000000000000000000000000000000000000000000000000000000000000000000000000000000000000000000000000000000000000000000000000000000000000000000000000000000000000000000000000000000000000000000000000000000000000000000000000000000000000000000000000000000",
            "coinbase" : "0x2adc25665018aa1fe0e6bc666dac8fc2697ff9ba",
            "difficulty" : "0x020000",
            "extraData" : "0x42",
            "gasLimit" : "0x989680",
            "gasUsed" : "0x00",
            "hash" : "0x3797f4aae251d4ab33e6ba76ba49712643045f4a2f45a243c683fc2891ed00b0",
            "mixHash" : "0x56e81f171bcc55a6ff8345e692c0f86e5b48e01b996cadc001622fb5e363b421",
            "nonce" : "0x0102030405060708",
            "number" : "0x00",
            "parentHash" : "0x0000000000000000000000000000000000000000000000000000000000000000",
            "receiptTrie" : "0x56e81f171bcc55a6ff8345e692c0f86e5b48e01b996cadc001622fb5e363b421",
            "stateRoot" : "0x7a5c2ca69baab334d19101761edc9ee07a518b9546f6cd713dacb2edabc8f913",
            "timestamp" : "0x03b6",
            "transactionsTrie" : "0x56e81f171bcc55a6ff8345e692c0f86e5b48e01b996cadc001622fb5e363b421",
            "uncleHash" : "0x1dcc4de8dec75d7aab85b567b6ccd41ad312451b948a7413f0a142fd40d49347"
        },
        "genesisRLP" : "0xf901faf901f5a00000000000000000000000000000000000000000000000000000000000000000a01dcc4de8dec75d7aab85b567b6ccd41ad312451b948a7413f0a142fd40d49347942adc25665018aa1fe0e6bc666dac8fc2697ff9baa07a5c2ca69baab334d19101761edc9ee07a518b9546f6cd713dacb2edabc8f913a056e81f171bcc55a6ff8345e692c0f86e5b48e01b996cadc001622fb5e363b421a056e81f171bcc55a6ff8345e692c0f86e5b48e01b996cadc001622fb5e363b421b9010000000000000000000000000000000000000000000000000000000000000000000000000000000000000000000000000000000000000000000000000000000000000000000000000000000000000000000000000000000000000000000000000000000000000000000000000000000000000000000000000000000000000000000000000000000000000000000000000000000000000000000000000000000000000000000000000000000000000000000000000000000000000000000000000000000000000000000000000000000000000000000000000000000000000000000000000000000000000000000000000000000000000000000000000000000000830200008083989680808203b642a056e81f171bcc55a6ff8345e692c0f86e5b48e01b996cadc001622fb5e363b421880102030405060708c0c0",
        "lastblockhash" : "0xae2550a2a880bf824054413b5250c5ce177ca3e1eb335a275ce53e2eb38d0785",
        "network" : "Homestead",
        "postState" : {
            "0x1000000000000000000000000000000000000000" : {
                "balance" : "0x00",
                "code" : "",
                "nonce" : "0x00",
                "storage" : {
                }
            },
            "0x2adc25665018aa1fe0e6bc666dac8fc2697ff9ba" : {
                "balance" : "0x4563918244f52960",
                "code" : "",
                "nonce" : "0x00",
                "storage" : {
                }
            },
            "0xa94f5374fce5edbc8e2a8697c15331677e6ebf0b" : {
                "balance" : "0xe8d4a3e6a0",
                "code" : "",
                "nonce" : "0x01",
                "storage" : {
                }
            },
            "0xb94f5374fce5edbc8e2a8697c15331677e6ebf0b" : {
                "balance" : "0x00",
                "code" : "0x60006000600060006000731000000000000000000000000000000000000000617530f16002556001600355",
                "nonce" : "0x00",
                "storage" : {
                }
            },
            "0xba4f5374fce5edbc8e2a8697c15331677e6ebf0b" : {
                "balance" : "0x00",
                "code" : "0x60006000600060006000731000000000000000000000000000000000000000617530f16000556000600060006000600073b94f5374fce5edbc8e2a8697c15331677e6ebf0b617530f1600155",
                "nonce" : "0x00",
                "storage" : {
                    "0x00" : "0x01"
                }
            }
        },
        "pre" : {
            "0x1000000000000000000000000000000000000000" : {
                "balance" : "0x00",
                "code" : "",
                "nonce" : "0x00",
                "storage" : {
                }
            },
            "0xa94f5374fce5edbc8e2a8697c15331677e6ebf0b" : {
                "balance" : "0xe8d4a51000",
                "code" : "",
                "nonce" : "0x00",
                "storage" : {
                }
            },
            "0xb94f5374fce5edbc8e2a8697c15331677e6ebf0b" : {
                "balance" : "0x00",
                "code" : "0x60006000600060006000731000000000000000000000000000000000000000617530f16002556001600355",
                "nonce" : "0x00",
                "storage" : {
                }
            },
            "0xba4f5374fce5edbc8e2a8697c15331677e6ebf0b" : {
                "balance" : "0x00",
                "code" : "0x60006000600060006000731000000000000000000000000000000000000000617530f16000556000600060006000600073b94f5374fce5edbc8e2a8697c15331677e6ebf0b617530f1600155",
                "nonce" : "0x00",
                "storage" : {
                }
            }
        }
    }
}