{
    "ecmul_0-3_5616_21000_128" : {
        "_info" : {
            "comment" : "Puts the point (0, 3) and the factor 21888242871839275222246405745257275088548364400416034343698204186575808495616 into the ECMUL precompile, truncating or expanding the input data to 128 bytes. Gives the execution 21000 bytes",
            "filling-rpc-server" : "evm version 1.13.13-unstable-034bc466-20240219",
            "filling-tool-version" : "retesteth-0.3.2-cancun+commit.014a68a5.Linux.g++",
            "generatedTestHash" : "d9a7c9bd3a46cf24b59716531abfa555f13d2f216566ff83617b76978558f0db",
            "lllcversion" : "Version: 0.5.14-develop.2023.7.11+commit.c58ab2c6.mod.Linux.g++",
            "solidity" : "Version: 0.8.21+commit.d9974bed.Linux.g++",
            "source" : "src/GeneralStateTestsFiller/stZeroKnowledge2/ecmul_0-3_5616_21000_128Filler.json",
            "sourceHash" : "52e3170e173eb05d90526ed309134d8240ecf1a49866885330ea037cbe3dcd5f"
        },
        "env" : {
            "currentBaseFee" : "0x0a",
            "currentCoinbase" : "0x3535353535353535353535353535353535353535",
            "currentDifficulty" : "0x020000",
            "currentExcessBlobGas" : "0x00",
            "currentGasLimit" : "0x05f5e100",
            "currentNumber" : "0x01",
            "currentRandom" : "0x0000000000000000000000000000000000000000000000000000000000020000",
            "currentTimestamp" : "0x03e8"
        },
        "post" : {
            "Berlin" : [
                {
                    "hash" : "0xe9546250246c61a4e78276fb3a3c014b7bee887aa7e61d2707c1f8c5d3cf351f",
                    "indexes" : {
                        "data" : 0,
                        "gas" : 0,
                        "value" : 0
                    },
                    "logs" : "0x1dcc4de8dec75d7aab85b567b6ccd41ad312451b948a7413f0a142fd40d49347",
                    "txbytes" : "0xf901244d0a82b02094c305c901078781c232a2a521c2af7980f8385ee980b8c430c8d1da000000000000000000000000000000000000000000000000000000000000002000000000000000000000000000000000000000000000000000000000000000800000000000000000000000000000000000000000000000000000000000000000000000000000000000000000000000000000000000000000000000000000000330644e72e131a029b85045b68181585d2833e84879b9709143e1f593f000000000000000000000000000000000000000000000000000000000000000000000001ca05e2268cf45e4a6b294602adbaccf88a207b95087ffb7262ce5d50e83fafb4bd2a07d78a0d6c3334511168932ca087e474743ff0ff5a9aa533d54caf293f705e10c"
                },
                {
                    "hash" : "0x84081175ded53db84bafbb4d45c97bc10e381b7c85ab88dd93ecb411cae5860b",
                    "indexes" : {
                        "data" : 0,
                        "gas" : 1,
                        "value" : 0
                    },
                    "logs" : "0x1dcc4de8dec75d7aab85b567b6ccd41ad312451b948a7413f0a142fd40d49347",
                    "txbytes" : "0xf901254d0a83015f9094c305c901078781c232a2a521c2af7980f8385ee980b8c430c8d1da000000000000000000000000000000000000000000000000000000000000002000000000000000000000000000000000000000000000000000000000000000800000000000000000000000000000000000000000000000000000000000000000000000000000000000000000000000000000000000000000000000000000000330644e72e131a029b85045b68181585d2833e84879b9709143e1f593f000000000000000000000000000000000000000000000000000000000000000000000001ba06859683002f2adc1279838ce00895c177649c9eb86f01c81430a4a68856a9c95a0401ca69beec78844c4fb38403e1ba4a6e3bef8d400aa348b22452cd2d06a3da0"
                },
                {
                    "hash" : "0xa4f7e0411cbe8d74dacc60fdc9327b1ee5c72f9a1c177a068723ca7ed543713e",
                    "indexes" : {
                        "data" : 0,
                        "gas" : 2,
                        "value" : 0
                    },
                    "logs" : "0x1dcc4de8dec75d7aab85b567b6ccd41ad312451b948a7413f0a142fd40d49347",
                    "txbytes" : "0xf901254d0a8301adb094c305c901078781c232a2a521c2af7980f8385ee980b8c430c8d1da000000000000000000000000000000000000000000000000000000000000002000000000000000000000000000000000000000000000000000000000000000800000000000000000000000000000000000000000000000000000000000000000000000000000000000000000000000000000000000000000000000000000000330644e72e131a029b85045b68181585d2833e84879b9709143e1f593f000000000000000000000000000000000000000000000000000000000000000000000001ca0162202350101b9470464056efebec893da5ef3ab08ff1a49be5eb2ca495656daa04ee315018d60b719046e2d4424fcfc7cc20cd7f1b88dd736b499351de438def5"
                },
                {
                    "hash" : "0xa57626bfcbbf64d170ed7901de7f78a1f8a2e4fa0a175bf56511b1df4d7ff040",
                    "indexes" : {
                        "data" : 0,
                        "gas" : 3,
                        "value" : 0
                    },
                    "logs" : "0x1dcc4de8dec75d7aab85b567b6ccd41ad312451b948a7413f0a142fd40d49347",
                    "txbytes" : "0xf901254d0a83030d4094c305c901078781c232a2a521c2af7980f8385ee980b8c430c8d1da000000000000000000000000000000000000000000000000000000000000002000000000000000000000000000000000000000000000000000000000000000800000000000000000000000000000000000000000000000000000000000000000000000000000000000000000000000000000000000000000000000000000000330644e72e131a029b85045b68181585d2833e84879b9709143e1f593f000000000000000000000000000000000000000000000000000000000000000000000001ba0f51ec64ac193ff652ffb91cd59e9817d3bc1489ff0d589b681a38964231d88baa058ceb617ae8593e671811630f1bad685000acc68c0c4d84fb37f33ff22bd1d11"
                }
            ],
            "Cancun" : [
                {
                    "hash" : "0xc70afbfc4e188c4d90e0bf97c17a1783c6a46d51b77e7c37274e73d45fd73459",
                    "indexes" : {
                        "data" : 0,
                        "gas" : 0,
                        "value" : 0
                    },
                    "logs" : "0x1dcc4de8dec75d7aab85b567b6ccd41ad312451b948a7413f0a142fd40d49347",
                    "txbytes" : "0xf901244d0a82b02094c305c901078781c232a2a521c2af7980f8385ee980b8c430c8d1da000000000000000000000000000000000000000000000000000000000000002000000000000000000000000000000000000000000000000000000000000000800000000000000000000000000000000000000000000000000000000000000000000000000000000000000000000000000000000000000000000000000000000330644e72e131a029b85045b68181585d2833e84879b9709143e1f593f000000000000000000000000000000000000000000000000000000000000000000000001ca05e2268cf45e4a6b294602adbaccf88a207b95087ffb7262ce5d50e83fafb4bd2a07d78a0d6c3334511168932ca087e474743ff0ff5a9aa533d54caf293f705e10c"
                },
                {
                    "hash" : "0xd1b639caddea1f5779773193d0758a73e3f8e8bdbf76f2408ef716be47a832bd",
                    "indexes" : {
                        "data" : 0,
                        "gas" : 1,
                        "value" : 0
                    },
                    "logs" : "0x1dcc4de8dec75d7aab85b567b6ccd41ad312451b948a7413f0a142fd40d49347",
                    "txbytes" : "0xf901254d0a83015f9094c305c901078781c232a2a521c2af7980f8385ee980b8c430c8d1da000000000000000000000000000000000000000000000000000000000000002000000000000000000000000000000000000000000000000000000000000000800000000000000000000000000000000000000000000000000000000000000000000000000000000000000000000000000000000000000000000000000000000330644e72e131a029b85045b68181585d2833e84879b9709143e1f593f000000000000000000000000000000000000000000000000000000000000000000000001ba06859683002f2adc1279838ce00895c177649c9eb86f01c81430a4a68856a9c95a0401ca69beec78844c4fb38403e1ba4a6e3bef8d400aa348b22452cd2d06a3da0"
                },
                {
                    "hash" : "0xf0fd0562b698f656a4e7b55dd83efba8e107a0ca4df200823a9be998e4b4d210",
                    "indexes" : {
                        "data" : 0,
                        "gas" : 2,
                        "value" : 0
                    },
                    "logs" : "0x1dcc4de8dec75d7aab85b567b6ccd41ad312451b948a7413f0a142fd40d49347",
                    "txbytes" : "0xf901254d0a8301adb094c305c901078781c232a2a521c2af7980f8385ee980b8c430c8d1da000000000000000000000000000000000000000000000000000000000000002000000000000000000000000000000000000000000000000000000000000000800000000000000000000000000000000000000000000000000000000000000000000000000000000000000000000000000000000000000000000000000000000330644e72e131a029b85045b68181585d2833e84879b9709143e1f593f000000000000000000000000000000000000000000000000000000000000000000000001ca0162202350101b9470464056efebec893da5ef3ab08ff1a49be5eb2ca495656daa04ee315018d60b719046e2d4424fcfc7cc20cd7f1b88dd736b499351de438def5"
                },
                {
                    "hash" : "0x1da5f81ed30878975380e183432f6e6c4c0ebeaf191514d1be97019e4dedd2f5",
                    "indexes" : {
                        "data" : 0,
                        "gas" : 3,
                        "value" : 0
                    },
                    "logs" : "0x1dcc4de8dec75d7aab85b567b6ccd41ad312451b948a7413f0a142fd40d49347",
                    "txbytes" : "0xf901254d0a83030d4094c305c901078781c232a2a521c2af7980f8385ee980b8c430c8d1da000000000000000000000000000000000000000000000000000000000000002000000000000000000000000000000000000000000000000000000000000000800000000000000000000000000000000000000000000000000000000000000000000000000000000000000000000000000000000000000000000000000000000330644e72e131a029b85045b68181585d2833e84879b9709143e1f593f000000000000000000000000000000000000000000000000000000000000000000000001ba0f51ec64ac193ff652ffb91cd59e9817d3bc1489ff0d589b681a38964231d88baa058ceb617ae8593e671811630f1bad685000acc68c0c4d84fb37f33ff22bd1d11"
                }
            ],
            "Istanbul" : [
                {
                    "hash" : "0xe9546250246c61a4e78276fb3a3c014b7bee887aa7e61d2707c1f8c5d3cf351f",
                    "indexes" : {
                        "data" : 0,
                        "gas" : 0,
                        "value" : 0
                    },
                    "logs" : "0x1dcc4de8dec75d7aab85b567b6ccd41ad312451b948a7413f0a142fd40d49347",
                    "txbytes" : "0xf901244d0a82b02094c305c901078781c232a2a521c2af7980f8385ee980b8c430c8d1da000000000000000000000000000000000000000000000000000000000000002000000000000000000000000000000000000000000000000000000000000000800000000000000000000000000000000000000000000000000000000000000000000000000000000000000000000000000000000000000000000000000000000330644e72e131a029b85045b68181585d2833e84879b9709143e1f593f000000000000000000000000000000000000000000000000000000000000000000000001ca05e2268cf45e4a6b294602adbaccf88a207b95087ffb7262ce5d50e83fafb4bd2a07d78a0d6c3334511168932ca087e474743ff0ff5a9aa533d54caf293f705e10c"
                },
                {
                    "hash" : "0x84081175ded53db84bafbb4d45c97bc10e381b7c85ab88dd93ecb411cae5860b",
                    "indexes" : {
                        "data" : 0,
                        "gas" : 1,
                        "value" : 0
                    },
                    "logs" : "0x1dcc4de8dec75d7aab85b567b6ccd41ad312451b948a7413f0a142fd40d49347",
                    "txbytes" : "0xf901254d0a83015f9094c305c901078781c232a2a521c2af7980f8385ee980b8c430c8d1da000000000000000000000000000000000000000000000000000000000000002000000000000000000000000000000000000000000000000000000000000000800000000000000000000000000000000000000000000000000000000000000000000000000000000000000000000000000000000000000000000000000000000330644e72e131a029b85045b68181585d2833e84879b9709143e1f593f000000000000000000000000000000000000000000000000000000000000000000000001ba06859683002f2adc1279838ce00895c177649c9eb86f01c81430a4a68856a9c95a0401ca69beec78844c4fb38403e1ba4a6e3bef8d400aa348b22452cd2d06a3da0"
                },
                {
                    "hash" : "0xa4f7e0411cbe8d74dacc60fdc9327b1ee5c72f9a1c177a068723ca7ed543713e",
                    "indexes" : {
                        "data" : 0,
                        "gas" : 2,
                        "value" : 0
                    },
                    "logs" : "0x1dcc4de8dec75d7aab85b567b6ccd41ad312451b948a7413f0a142fd40d49347",
                    "txbytes" : "0xf901254d0a8301adb094c305c901078781c232a2a521c2af7980f8385ee980b8c430c8d1da000000000000000000000000000000000000000000000000000000000000002000000000000000000000000000000000000000000000000000000000000000800000000000000000000000000000000000000000000000000000000000000000000000000000000000000000000000000000000000000000000000000000000330644e72e131a029b85045b68181585d2833e84879b9709143e1f593f000000000000000000000000000000000000000000000000000000000000000000000001ca0162202350101b9470464056efebec893da5ef3ab08ff1a49be5eb2ca495656daa04ee315018d60b719046e2d4424fcfc7cc20cd7f1b88dd736b499351de438def5"
                },
                {
                    "hash" : "0xa57626bfcbbf64d170ed7901de7f78a1f8a2e4fa0a175bf56511b1df4d7ff040",
                    "indexes" : {
                        "data" : 0,
                        "gas" : 3,
                        "value" : 0
                    },
                    "logs" : "0x1dcc4de8dec75d7aab85b567b6ccd41ad312451b948a7413f0a142fd40d49347",
                    "txbytes" : "0xf901254d0a83030d4094c305c901078781c232a2a521c2af7980f8385ee980b8c430c8d1da000000000000000000000000000000000000000000000000000000000000002000000000000000000000000000000000000000000000000000000000000000800000000000000000000000000000000000000000000000000000000000000000000000000000000000000000000000000000000000000000000000000000000330644e72e131a029b85045b68181585d2833e84879b9709143e1f593f000000000000000000000000000000000000000000000000000000000000000000000001ba0f51ec64ac193ff652ffb91cd59e9817d3bc1489ff0d589b681a38964231d88baa058ceb617ae8593e671811630f1bad685000acc68c0c4d84fb37f33ff22bd1d11"
                }
            ],
            "London" : [
                {
                    "hash" : "0xcf78bf8b8d8f05ef953c832821355d399fc71ca2e6a619d3c1c3ff84494996ff",
                    "indexes" : {
                        "data" : 0,
                        "gas" : 0,
                        "value" : 0
                    },
                    "logs" : "0x1dcc4de8dec75d7aab85b567b6ccd41ad312451b948a7413f0a142fd40d49347",
                    "txbytes" : "0xf901244d0a82b02094c305c901078781c232a2a521c2af7980f8385ee980b8c430c8d1da000000000000000000000000000000000000000000000000000000000000002000000000000000000000000000000000000000000000000000000000000000800000000000000000000000000000000000000000000000000000000000000000000000000000000000000000000000000000000000000000000000000000000330644e72e131a029b85045b68181585d2833e84879b9709143e1f593f000000000000000000000000000000000000000000000000000000000000000000000001ca05e2268cf45e4a6b294602adbaccf88a207b95087ffb7262ce5d50e83fafb4bd2a07d78a0d6c3334511168932ca087e474743ff0ff5a9aa533d54caf293f705e10c"
                },
                {
                    "hash" : "0x867fad625e899a398e2b8251e6f1be68d24d7fced7f023145efbf77b70fbfa13",
                    "indexes" : {
                        "data" : 0,
                        "gas" : 1,
                        "value" : 0
                    },
                    "logs" : "0x1dcc4de8dec75d7aab85b567b6ccd41ad312451b948a7413f0a142fd40d49347",
                    "txbytes" : "0xf901254d0a83015f9094c305c901078781c232a2a521c2af7980f8385ee980b8c430c8d1da000000000000000000000000000000000000000000000000000000000000002000000000000000000000000000000000000000000000000000000000000000800000000000000000000000000000000000000000000000000000000000000000000000000000000000000000000000000000000000000000000000000000000330644e72e131a029b85045b68181585d2833e84879b9709143e1f593f000000000000000000000000000000000000000000000000000000000000000000000001ba06859683002f2adc1279838ce00895c177649c9eb86f01c81430a4a68856a9c95a0401ca69beec78844c4fb38403e1ba4a6e3bef8d400aa348b22452cd2d06a3da0"
                },
                {
                    "hash" : "0xabcb3d292918a9247923559a4a26387bcda75bcfe7f75749ec41403746262597",
                    "indexes" : {
                        "data" : 0,
                        "gas" : 2,
                        "value" : 0
                    },
                    "logs" : "0x1dcc4de8dec75d7aab85b567b6ccd41ad312451b948a7413f0a142fd40d49347",
                    "txbytes" : "0xf901254d0a8301adb094c305c901078781c232a2a521c2af7980f8385ee980b8c430c8d1da000000000000000000000000000000000000000000000000000000000000002000000000000000000000000000000000000000000000000000000000000000800000000000000000000000000000000000000000000000000000000000000000000000000000000000000000000000000000000000000000000000000000000330644e72e131a029b85045b68181585d2833e84879b9709143e1f593f000000000000000000000000000000000000000000000000000000000000000000000001ca0162202350101b9470464056efebec893da5ef3ab08ff1a49be5eb2ca495656daa04ee315018d60b719046e2d4424fcfc7cc20cd7f1b88dd736b499351de438def5"
                },
                {
                    "hash" : "0x3bcc098e78a84daa2c557ae4e604affc0157b5e0c4f1101ff3c691169369603e",
                    "indexes" : {
                        "data" : 0,
                        "gas" : 3,
                        "value" : 0
                    },
                    "logs" : "0x1dcc4de8dec75d7aab85b567b6ccd41ad312451b948a7413f0a142fd40d49347",
                    "txbytes" : "0xf901254d0a83030d4094c305c901078781c232a2a521c2af7980f8385ee980b8c430c8d1da000000000000000000000000000000000000000000000000000000000000002000000000000000000000000000000000000000000000000000000000000000800000000000000000000000000000000000000000000000000000000000000000000000000000000000000000000000000000000000000000000000000000000330644e72e131a029b85045b68181585d2833e84879b9709143e1f593f000000000000000000000000000000000000000000000000000000000000000000000001ba0f51ec64ac193ff652ffb91cd59e9817d3bc1489ff0d589b681a38964231d88baa058ceb617ae8593e671811630f1bad685000acc68c0c4d84fb37f33ff22bd1d11"
                }
            ],
            "Paris" : [
                {
                    "hash" : "0xcf78bf8b8d8f05ef953c832821355d399fc71ca2e6a619d3c1c3ff84494996ff",
                    "indexes" : {
                        "data" : 0,
                        "gas" : 0,
                        "value" : 0
                    },
                    "logs" : "0x1dcc4de8dec75d7aab85b567b6ccd41ad312451b948a7413f0a142fd40d49347",
                    "txbytes" : "0xf901244d0a82b02094c305c901078781c232a2a521c2af7980f8385ee980b8c430c8d1da000000000000000000000000000000000000000000000000000000000000002000000000000000000000000000000000000000000000000000000000000000800000000000000000000000000000000000000000000000000000000000000000000000000000000000000000000000000000000000000000000000000000000330644e72e131a029b85045b68181585d2833e84879b9709143e1f593f000000000000000000000000000000000000000000000000000000000000000000000001ca05e2268cf45e4a6b294602adbaccf88a207b95087ffb7262ce5d50e83fafb4bd2a07d78a0d6c3334511168932ca087e474743ff0ff5a9aa533d54caf293f705e10c"
                },
                {
                    "hash" : "0x867fad625e899a398e2b8251e6f1be68d24d7fced7f023145efbf77b70fbfa13",
                    "indexes" : {
                        "data" : 0,
                        "gas" : 1,
                        "value" : 0
                    },
                    "logs" : "0x1dcc4de8dec75d7aab85b567b6ccd41ad312451b948a7413f0a142fd40d49347",
                    "txbytes" : "0xf901254d0a83015f9094c305c901078781c232a2a521c2af7980f8385ee980b8c430c8d1da000000000000000000000000000000000000000000000000000000000000002000000000000000000000000000000000000000000000000000000000000000800000000000000000000000000000000000000000000000000000000000000000000000000000000000000000000000000000000000000000000000000000000330644e72e131a029b85045b68181585d2833e84879b9709143e1f593f000000000000000000000000000000000000000000000000000000000000000000000001ba06859683002f2adc1279838ce00895c177649c9eb86f01c81430a4a68856a9c95a0401ca69beec78844c4fb38403e1ba4a6e3bef8d400aa348b22452cd2d06a3da0"
                },
                {
                    "hash" : "0xabcb3d292918a9247923559a4a26387bcda75bcfe7f75749ec41403746262597",
                    "indexes" : {
                        "data" : 0,
                        "gas" : 2,
                        "value" : 0
                    },
                    "logs" : "0x1dcc4de8dec75d7aab85b567b6ccd41ad312451b948a7413f0a142fd40d49347",
                    "txbytes" : "0xf901254d0a8301adb094c305c901078781c232a2a521c2af7980f8385ee980b8c430c8d1da000000000000000000000000000000000000000000000000000000000000002000000000000000000000000000000000000000000000000000000000000000800000000000000000000000000000000000000000000000000000000000000000000000000000000000000000000000000000000000000000000000000000000330644e72e131a029b85045b68181585d2833e84879b9709143e1f593f000000000000000000000000000000000000000000000000000000000000000000000001ca0162202350101b9470464056efebec893da5ef3ab08ff1a49be5eb2ca495656daa04ee315018d60b719046e2d4424fcfc7cc20cd7f1b88dd736b499351de438def5"
                },
                {
                    "hash" : "0x3bcc098e78a84daa2c557ae4e604affc0157b5e0c4f1101ff3c691169369603e",
                    "indexes" : {
                        "data" : 0,
                        "gas" : 3,
                        "value" : 0
                    },
                    "logs" : "0x1dcc4de8dec75d7aab85b567b6ccd41ad312451b948a7413f0a142fd40d49347",
                    "txbytes" : "0xf901254d0a83030d4094c305c901078781c232a2a521c2af7980f8385ee980b8c430c8d1da000000000000000000000000000000000000000000000000000000000000002000000000000000000000000000000000000000000000000000000000000000800000000000000000000000000000000000000000000000000000000000000000000000000000000000000000000000000000000000000000000000000000000330644e72e131a029b85045b68181585d2833e84879b9709143e1f593f000000000000000000000000000000000000000000000000000000000000000000000001ba0f51ec64ac193ff652ffb91cd59e9817d3bc1489ff0d589b681a38964231d88baa058ceb617ae8593e671811630f1bad685000acc68c0c4d84fb37f33ff22bd1d11"
                }
            ],
            "Shanghai" : [
                {
                    "hash" : "0xcf78bf8b8d8f05ef953c832821355d399fc71ca2e6a619d3c1c3ff84494996ff",
                    "indexes" : {
                        "data" : 0,
                        "gas" : 0,
                        "value" : 0
                    },
                    "logs" : "0x1dcc4de8dec75d7aab85b567b6ccd41ad312451b948a7413f0a142fd40d49347",
                    "txbytes" : "0xf901244d0a82b02094c305c901078781c232a2a521c2af7980f8385ee980b8c430c8d1da000000000000000000000000000000000000000000000000000000000000002000000000000000000000000000000000000000000000000000000000000000800000000000000000000000000000000000000000000000000000000000000000000000000000000000000000000000000000000000000000000000000000000330644e72e131a029b85045b68181585d2833e84879b9709143e1f593f000000000000000000000000000000000000000000000000000000000000000000000001ca05e2268cf45e4a6b294602adbaccf88a207b95087ffb7262ce5d50e83fafb4bd2a07d78a0d6c3334511168932ca087e474743ff0ff5a9aa533d54caf293f705e10c"
                },
                {
                    "hash" : "0x867fad625e899a398e2b8251e6f1be68d24d7fced7f023145efbf77b70fbfa13",
                    "indexes" : {
                        "data" : 0,
                        "gas" : 1,
                        "value" : 0
                    },
                    "logs" : "0x1dcc4de8dec75d7aab85b567b6ccd41ad312451b948a7413f0a142fd40d49347",
                    "txbytes" : "0xf901254d0a83015f9094c305c901078781c232a2a521c2af7980f8385ee980b8c430c8d1da000000000000000000000000000000000000000000000000000000000000002000000000000000000000000000000000000000000000000000000000000000800000000000000000000000000000000000000000000000000000000000000000000000000000000000000000000000000000000000000000000000000000000330644e72e131a029b85045b68181585d2833e84879b9709143e1f593f000000000000000000000000000000000000000000000000000000000000000000000001ba06859683002f2adc1279838ce00895c177649c9eb86f01c81430a4a68856a9c95a0401ca69beec78844c4fb38403e1ba4a6e3bef8d400aa348b22452cd2d06a3da0"
                },
                {
                    "hash" : "0xabcb3d292918a9247923559a4a26387bcda75bcfe7f75749ec41403746262597",
                    "indexes" : {
                        "data" : 0,
                        "gas" : 2,
                        "value" : 0
                    },
                    "logs" : "0x1dcc4de8dec75d7aab85b567b6ccd41ad312451b948a7413f0a142fd40d49347",
                    "txbytes" : "0xf901254d0a8301adb094c305c901078781c232a2a521c2af7980f8385ee980b8c430c8d1da000000000000000000000000000000000000000000000000000000000000002000000000000000000000000000000000000000000000000000000000000000800000000000000000000000000000000000000000000000000000000000000000000000000000000000000000000000000000000000000000000000000000000330644e72e131a029b85045b68181585d2833e84879b9709143e1f593f000000000000000000000000000000000000000000000000000000000000000000000001ca0162202350101b9470464056efebec893da5ef3ab08ff1a49be5eb2ca495656daa04ee315018d60b719046e2d4424fcfc7cc20cd7f1b88dd736b499351de438def5"
                },
                {
                    "hash" : "0x3bcc098e78a84daa2c557ae4e604affc0157b5e0c4f1101ff3c691169369603e",
                    "indexes" : {
                        "data" : 0,
                        "gas" : 3,
                        "value" : 0
                    },
                    "logs" : "0x1dcc4de8dec75d7aab85b567b6ccd41ad312451b948a7413f0a142fd40d49347",
                    "txbytes" : "0xf901254d0a83030d4094c305c901078781c232a2a521c2af7980f8385ee980b8c430c8d1da000000000000000000000000000000000000000000000000000000000000002000000000000000000000000000000000000000000000000000000000000000800000000000000000000000000000000000000000000000000000000000000000000000000000000000000000000000000000000000000000000000000000000330644e72e131a029b85045b68181585d2833e84879b9709143e1f593f000000000000000000000000000000000000000000000000000000000000000000000001ba0f51ec64ac193ff652ffb91cd59e9817d3bc1489ff0d589b681a38964231d88baa058ceb617ae8593e671811630f1bad685000acc68c0c4d84fb37f33ff22bd1d11"
                }
            ]
        },
        "pre" : {
            "0x0000000000000000000000000000000000000000" : {
                "balance" : "0x01",
                "code" : "0x",
                "nonce" : "0x00",
                "storage" : {
                }
            },
            "0x0000000000000000000000000000000000000001" : {
                "balance" : "0x01",
                "code" : "0x",
                "nonce" : "0x00",
                "storage" : {
                }
            },
            "0x0000000000000000000000000000000000000002" : {
                "balance" : "0x01",
                "code" : "0x",
                "nonce" : "0x00",
                "storage" : {
                }
            },
            "0x0000000000000000000000000000000000000003" : {
                "balance" : "0x01",
                "code" : "0x",
                "nonce" : "0x00",
                "storage" : {
                }
            },
            "0x0000000000000000000000000000000000000004" : {
                "balance" : "0x01",
                "code" : "0x",
                "nonce" : "0x00",
                "storage" : {
                }
            },
            "0x0000000000000000000000000000000000000005" : {
                "balance" : "0x01",
                "code" : "0x",
                "nonce" : "0x00",
                "storage" : {
                }
            },
            "0x0000000000000000000000000000000000000006" : {
                "balance" : "0x01",
                "code" : "0x",
                "nonce" : "0x00",
                "storage" : {
                }
            },
            "0x0000000000000000000000000000000000000007" : {
                "balance" : "0x01",
                "code" : "0x",
                "nonce" : "0x00",
                "storage" : {
                }
            },
            "0x000f3df6d732807ef1319fb7b8bb8522d0beac02" : {
                "balance" : "0x00",
                "code" : "0x3373fffffffffffffffffffffffffffffffffffffffe14604d57602036146024575f5ffd5b5f35801560495762001fff810690815414603c575f5ffd5b62001fff01545f5260205ff35b5f5ffd5b62001fff42064281555f359062001fff015500",
                "nonce" : "0x01",
                "storage" : {
                }
            },
            "0x10a1c1cb95c92ec31d3f22c66eef1d9f3f258c6b" : {
                "balance" : "0x0de0b6b3a7640000",
                "code" : "0x",
                "nonce" : "0x00",
                "storage" : {
                }
            },
            "0x13cbb8d99c6c4e0f2728c7d72606e78a29c4e224" : {
                "balance" : "0x0de0b6b3a7640000",
                "code" : "0x",
                "nonce" : "0x00",
                "storage" : {
                }
            },
            "0x24143873e0e0815fdcbcffdbe09c979cbf9ad013" : {
                "balance" : "0x0de0b6b3a7640000",
                "code" : "0x",
                "nonce" : "0x00",
                "storage" : {
                }
            },
            "0x3535353535353535353535353535353535353535" : {
                "balance" : "0x35406e",
                "code" : "0x",
                "nonce" : "0x00",
                "storage" : {
                }
            },
            "0x598443f1880ef585b21f1d7585bd0577402861e5" : {
                "balance" : "0x0de0b6b3a7640000",
                "code" : "0x",
                "nonce" : "0x00",
                "storage" : {
                }
            },
            "0x77db2bebba79db42a978f896968f4afce746ea1f" : {
                "balance" : "0x0de0b6b3a7640000",
                "code" : "0x",
                "nonce" : "0x00",
                "storage" : {
                }
            },
            "0x7d577a597b2742b498cb5cf0c26cdcd726d39e6e" : {
                "balance" : "0x0de0b6b3a7640000",
                "code" : "0x",
                "nonce" : "0x00",
                "storage" : {
                }
            },
            "0x82a978b3f5962a5b0957d9ee9eef472ee55b42f1" : {
                "balance" : "0x0de0b6b3a72ebf92",
                "code" : "0x",
                "nonce" : "0x4d",
                "storage" : {
                }
            },
            "0x90f0b1ebbba1c1936aff7aaf20a7878ff9e04b6c" : {
                "balance" : "0x0de0b6b3a7640000",
                "code" : "0x",
                "nonce" : "0x00",
                "storage" : {
                }
            },
            "0xc305c901078781c232a2a521c2af7980f8385ee9" : {
                "balance" : "0x00",
                "code" : "0x600035601c52740100000000000000000000000000000000000000006020526fffffffffffffffffffffffffffffffff6040527fffffffffffffffffffffffffffffffff000000000000000000000000000000016060527402540be3fffffffffffffffffffffffffdabf41c006080527ffffffffffffffffffffffffdabf41c00000000000000000000000002540be40060a0526330c8d1da600051141561012b5760c06004356004013511151558576004356004013560200160043560040161014037604061026061014051610160600060076305f5e0fff11558576040610240526102406060806102c0828460006004601bf15050506102c08051602082012090506000556102c060206020820352604081510160206001820306601f820103905060208203f350005b",
                "nonce" : "0x01",
                "storage" : {
                }
            },
            "0xdceceaf3fc5c0a63d195d69b1a90011b7b19650d" : {
                "balance" : "0x0de0b6b3a7640000",
                "code" : "0x",
                "nonce" : "0x00",
                "storage" : {
                }
            },
            "0xe0fc04fa2d34a66b779fd5cee748268032a146c0" : {
                "balance" : "0x0de0b6b3a7640000",
                "code" : "0x",
                "nonce" : "0x00",
                "storage" : {
                }
            }
        },
        "transaction" : {
            "data" : [
                "0x30c8d1da000000000000000000000000000000000000000000000000000000000000002000000000000000000000000000000000000000000000000000000000000000800000000000000000000000000000000000000000000000000000000000000000000000000000000000000000000000000000000000000000000000000000000330644e72e131a029b85045b68181585d2833e84879b9709143e1f593f00000000000000000000000000000000000000000000000000000000000000000000000"
            ],
            "gasLimit" : [
                "0xb020",
                "0x015f90",
                "0x01adb0",
                "0x030d40"
            ],
            "gasPrice" : "0x0a",
            "nonce" : "0x4d",
            "secretKey" : "0x044852b2a670ade5407e78fb2863c51de9fcb96542a07186fe3aeda6bb8a116d",
            "sender" : "0x82a978b3f5962a5b0957d9ee9eef472ee55b42f1",
            "to" : "0xc305c901078781c232a2a521c2af7980f8385ee9",
            "value" : [
                "0x00"
            ]
        }
    }
}