{
    "ecmul_1-2_0_21000_80" : {
        "_info" : {
            "comment" : "Puts the point (1, 2) and the factor 0 into the ECMUL precompile, truncating or expanding the input data to 80 bytes. Gives the execution 21000 bytes",
            "filling-rpc-server" : "evm version 1.13.13-unstable-034bc466-20240219",
            "filling-tool-version" : "retesteth-0.3.2-cancun+commit.014a68a5.Linux.g++",
            "generatedTestHash" : "d1955066a4d36ed82a0197da9d31e9e3213a7e4346106a6fa7da20345a71d026",
            "lllcversion" : "Version: 0.5.14-develop.2023.7.11+commit.c58ab2c6.mod.Linux.g++",
            "solidity" : "Version: 0.8.21+commit.d9974bed.Linux.g++",
            "source" : "src/GeneralStateTestsFiller/stZeroKnowledge2/ecmul_1-2_0_21000_80Filler.json",
            "sourceHash" : "8a808a8636d08bf4105628457157f118afec372d36fdeccd6004662d28fe445e"
        },
        "env" : {
            "currentBaseFee" : "0x0a",
            "currentCoinbase" : "0x3535353535353535353535353535353535353535",
            "currentDifficulty" : "0x020000",
            "currentExcessBlobGas" : "0x00",
            "currentGasLimit" : "0x05f5e100",
            "currentNumber" : "0x01",
            "currentRandom" : "0x0000000000000000000000000000000000000000000000000000000000020000",
            "currentTimestamp" : "0x03e8"
        },
        "post" : {
            "Berlin" : [
                {
                    "hash" : "0xa868e3fcb80db5b62fc8d12875e2efb3ea8e38ac12b3e046d42851d4d9ddc6e0",
                    "indexes" : {
                        "data" : 0,
                        "gas" : 0,
                        "value" : 0
                    },
                    "logs" : "0x1dcc4de8dec75d7aab85b567b6ccd41ad312451b948a7413f0a142fd40d49347",
                    "txbytes" : "0xf901040a0a82a8a094c305c901078781c232a2a521c2af7980f8385ee980b8a430c8d1da000000000000000000000000000000000000000000000000000000000000002000000000000000000000000000000000000000000000000000000000000000500000000000000000000000000000000000000000000000000000000000000001000000000000000000000000000000000000000000000000000000000000000200000000000000000000000000000000000000000000000000000000000000001ba023eae325c43d43ad62d129cd5e26624645e9cfe29b085e637e6369d977cfe203a028039f3f79c015e691e899b04d469aec5c34f28dfc01a5f199afabda0cd7bb4c"
                },
                {
                    "hash" : "0xb48d78e66a8a8a74858b854ea6b533125381fa7844e8db046862a9e7d2e7d2fa",
                    "indexes" : {
                        "data" : 0,
                        "gas" : 1,
                        "value" : 0
                    },
                    "logs" : "0x1dcc4de8dec75d7aab85b567b6ccd41ad312451b948a7413f0a142fd40d49347",
                    "txbytes" : "0xf901050a0a83015f9094c305c901078781c232a2a521c2af7980f8385ee980b8a430c8d1da000000000000000000000000000000000000000000000000000000000000002000000000000000000000000000000000000000000000000000000000000000500000000000000000000000000000000000000000000000000000000000000001000000000000000000000000000000000000000000000000000000000000000200000000000000000000000000000000000000000000000000000000000000001ca0643cae931a038f1dd5da24811459416903267313ed09292de30b4e187dca4cbca036ed8b374f0f3deda6ba7d535a06f0f65923f92e644149853122cfae13fc6214"
                },
                {
                    "hash" : "0xb48d78e66a8a8a74858b854ea6b533125381fa7844e8db046862a9e7d2e7d2fa",
                    "indexes" : {
                        "data" : 0,
                        "gas" : 2,
                        "value" : 0
                    },
                    "logs" : "0x1dcc4de8dec75d7aab85b567b6ccd41ad312451b948a7413f0a142fd40d49347",
                    "txbytes" : "0xf901050a0a8301adb094c305c901078781c232a2a521c2af7980f8385ee980b8a430c8d1da000000000000000000000000000000000000000000000000000000000000002000000000000000000000000000000000000000000000000000000000000000500000000000000000000000000000000000000000000000000000000000000001000000000000000000000000000000000000000000000000000000000000000200000000000000000000000000000000000000000000000000000000000000001ca03639004b9a7c7a4f5da748bb81ed180cc9c4c6a749d73925505db27f074e1ae7a0667220db3bb9e79f2f20b8bbe288693a7eeecaa34e69ef9dce7d6b0569a947c5"
                },
                {
                    "hash" : "0xb48d78e66a8a8a74858b854ea6b533125381fa7844e8db046862a9e7d2e7d2fa",
                    "indexes" : {
                        "data" : 0,
                        "gas" : 3,
                        "value" : 0
                    },
                    "logs" : "0x1dcc4de8dec75d7aab85b567b6ccd41ad312451b948a7413f0a142fd40d49347",
                    "txbytes" : "0xf901050a0a83030d4094c305c901078781c232a2a521c2af7980f8385ee980b8a430c8d1da000000000000000000000000000000000000000000000000000000000000002000000000000000000000000000000000000000000000000000000000000000500000000000000000000000000000000000000000000000000000000000000001000000000000000000000000000000000000000000000000000000000000000200000000000000000000000000000000000000000000000000000000000000001ba0dbe7c014aa6c24b80c122519759d09fce8904b3907649072b888a43d2c9f11a7a014dda608aae0a93560634731cf3b7f62f3f2ce9cdb480bb74b2f68146be599a2"
                }
            ],
            "Cancun" : [
                {
                    "hash" : "0x2a62b1b8ea201abdb8f477f045a5d1c88b522ffe6e3c552509f3df683b2fd5a0",
                    "indexes" : {
                        "data" : 0,
                        "gas" : 0,
                        "value" : 0
                    },
                    "logs" : "0x1dcc4de8dec75d7aab85b567b6ccd41ad312451b948a7413f0a142fd40d49347",
                    "txbytes" : "0xf901040a0a82a8a094c305c901078781c232a2a521c2af7980f8385ee980b8a430c8d1da000000000000000000000000000000000000000000000000000000000000002000000000000000000000000000000000000000000000000000000000000000500000000000000000000000000000000000000000000000000000000000000001000000000000000000000000000000000000000000000000000000000000000200000000000000000000000000000000000000000000000000000000000000001ba023eae325c43d43ad62d129cd5e26624645e9cfe29b085e637e6369d977cfe203a028039f3f79c015e691e899b04d469aec5c34f28dfc01a5f199afabda0cd7bb4c"
                },
                {
                    "hash" : "0xbedfe29c59dc03b47d27371000a1fd482be78f5cdaef75b1db96e6d1a6a0aa91",
                    "indexes" : {
                        "data" : 0,
                        "gas" : 1,
                        "value" : 0
                    },
                    "logs" : "0x1dcc4de8dec75d7aab85b567b6ccd41ad312451b948a7413f0a142fd40d49347",
                    "txbytes" : "0xf901050a0a83015f9094c305c901078781c232a2a521c2af7980f8385ee980b8a430c8d1da000000000000000000000000000000000000000000000000000000000000002000000000000000000000000000000000000000000000000000000000000000500000000000000000000000000000000000000000000000000000000000000001000000000000000000000000000000000000000000000000000000000000000200000000000000000000000000000000000000000000000000000000000000001ca0643cae931a038f1dd5da24811459416903267313ed09292de30b4e187dca4cbca036ed8b374f0f3deda6ba7d535a06f0f65923f92e644149853122cfae13fc6214"
                },
                {
                    "hash" : "0xbedfe29c59dc03b47d27371000a1fd482be78f5cdaef75b1db96e6d1a6a0aa91",
                    "indexes" : {
                        "data" : 0,
                        "gas" : 2,
                        "value" : 0
                    },
                    "logs" : "0x1dcc4de8dec75d7aab85b567b6ccd41ad312451b948a7413f0a142fd40d49347",
                    "txbytes" : "0xf901050a0a8301adb094c305c901078781c232a2a521c2af7980f8385ee980b8a430c8d1da000000000000000000000000000000000000000000000000000000000000002000000000000000000000000000000000000000000000000000000000000000500000000000000000000000000000000000000000000000000000000000000001000000000000000000000000000000000000000000000000000000000000000200000000000000000000000000000000000000000000000000000000000000001ca03639004b9a7c7a4f5da748bb81ed180cc9c4c6a749d73925505db27f074e1ae7a0667220db3bb9e79f2f20b8bbe288693a7eeecaa34e69ef9dce7d6b0569a947c5"
                },
                {
                    "hash" : "0xbedfe29c59dc03b47d27371000a1fd482be78f5cdaef75b1db96e6d1a6a0aa91",
                    "indexes" : {
                        "data" : 0,
                        "gas" : 3,
                        "value" : 0
                    },
                    "logs" : "0x1dcc4de8dec75d7aab85b567b6ccd41ad312451b948a7413f0a142fd40d49347",
                    "txbytes" : "0xf901050a0a83030d4094c305c901078781c232a2a521c2af7980f8385ee980b8a430c8d1da000000000000000000000000000000000000000000000000000000000000002000000000000000000000000000000000000000000000000000000000000000500000000000000000000000000000000000000000000000000000000000000001000000000000000000000000000000000000000000000000000000000000000200000000000000000000000000000000000000000000000000000000000000001ba0dbe7c014aa6c24b80c122519759d09fce8904b3907649072b888a43d2c9f11a7a014dda608aae0a93560634731cf3b7f62f3f2ce9cdb480bb74b2f68146be599a2"
                }
            ],
            "Istanbul" : [
                {
                    "hash" : "0xa868e3fcb80db5b62fc8d12875e2efb3ea8e38ac12b3e046d42851d4d9ddc6e0",
                    "indexes" : {
                        "data" : 0,
                        "gas" : 0,
                        "value" : 0
                    },
                    "logs" : "0x1dcc4de8dec75d7aab85b567b6ccd41ad312451b948a7413f0a142fd40d49347",
                    "txbytes" : "0xf901040a0a82a8a094c305c901078781c232a2a521c2af7980f8385ee980b8a430c8d1da000000000000000000000000000000000000000000000000000000000000002000000000000000000000000000000000000000000000000000000000000000500000000000000000000000000000000000000000000000000000000000000001000000000000000000000000000000000000000000000000000000000000000200000000000000000000000000000000000000000000000000000000000000001ba023eae325c43d43ad62d129cd5e26624645e9cfe29b085e637e6369d977cfe203a028039f3f79c015e691e899b04d469aec5c34f28dfc01a5f199afabda0cd7bb4c"
                },
                {
                    "hash" : "0xc4651ce2907ca6b098ae38eed1ff47220d0b983a278ecde26c5edcd97381cc1c",
                    "indexes" : {
                        "data" : 0,
                        "gas" : 1,
                        "value" : 0
                    },
                    "logs" : "0x1dcc4de8dec75d7aab85b567b6ccd41ad312451b948a7413f0a142fd40d49347",
                    "txbytes" : "0xf901050a0a83015f9094c305c901078781c232a2a521c2af7980f8385ee980b8a430c8d1da000000000000000000000000000000000000000000000000000000000000002000000000000000000000000000000000000000000000000000000000000000500000000000000000000000000000000000000000000000000000000000000001000000000000000000000000000000000000000000000000000000000000000200000000000000000000000000000000000000000000000000000000000000001ca0643cae931a038f1dd5da24811459416903267313ed09292de30b4e187dca4cbca036ed8b374f0f3deda6ba7d535a06f0f65923f92e644149853122cfae13fc6214"
                },
                {
                    "hash" : "0xc4651ce2907ca6b098ae38eed1ff47220d0b983a278ecde26c5edcd97381cc1c",
                    "indexes" : {
                        "data" : 0,
                        "gas" : 2,
                        "value" : 0
                    },
                    "logs" : "0x1dcc4de8dec75d7aab85b567b6ccd41ad312451b948a7413f0a142fd40d49347",
                    "txbytes" : "0xf901050a0a8301adb094c305c901078781c232a2a521c2af7980f8385ee980b8a430c8d1da000000000000000000000000000000000000000000000000000000000000002000000000000000000000000000000000000000000000000000000000000000500000000000000000000000000000000000000000000000000000000000000001000000000000000000000000000000000000000000000000000000000000000200000000000000000000000000000000000000000000000000000000000000001ca03639004b9a7c7a4f5da748bb81ed180cc9c4c6a749d73925505db27f074e1ae7a0667220db3bb9e79f2f20b8bbe288693a7eeecaa34e69ef9dce7d6b0569a947c5"
                },
                {
                    "hash" : "0xc4651ce2907ca6b098ae38eed1ff47220d0b983a278ecde26c5edcd97381cc1c",
                    "indexes" : {
                        "data" : 0,
                        "gas" : 3,
                        "value" : 0
                    },
                    "logs" : "0x1dcc4de8dec75d7aab85b567b6ccd41ad312451b948a7413f0a142fd40d49347",
                    "txbytes" : "0xf901050a0a83030d4094c305c901078781c232a2a521c2af7980f8385ee980b8a430c8d1da000000000000000000000000000000000000000000000000000000000000002000000000000000000000000000000000000000000000000000000000000000500000000000000000000000000000000000000000000000000000000000000001000000000000000000000000000000000000000000000000000000000000000200000000000000000000000000000000000000000000000000000000000000001ba0dbe7c014aa6c24b80c122519759d09fce8904b3907649072b888a43d2c9f11a7a014dda608aae0a93560634731cf3b7f62f3f2ce9cdb480bb74b2f68146be599a2"
                }
            ],
            "London" : [
                {
                    "hash" : "0x45ef6eecdb6fac5372f3c749e567dfef222975686be931e1bc7d59737a7beb81",
                    "indexes" : {
                        "data" : 0,
                        "gas" : 0,
                        "value" : 0
                    },
                    "logs" : "0x1dcc4de8dec75d7aab85b567b6ccd41ad312451b948a7413f0a142fd40d49347",
                    "txbytes" : "0xf901040a0a82a8a094c305c901078781c232a2a521c2af7980f8385ee980b8a430c8d1da000000000000000000000000000000000000000000000000000000000000002000000000000000000000000000000000000000000000000000000000000000500000000000000000000000000000000000000000000000000000000000000001000000000000000000000000000000000000000000000000000000000000000200000000000000000000000000000000000000000000000000000000000000001ba023eae325c43d43ad62d129cd5e26624645e9cfe29b085e637e6369d977cfe203a028039f3f79c015e691e899b04d469aec5c34f28dfc01a5f199afabda0cd7bb4c"
                },
                {
                    "hash" : "0x1087b297ed9052041b737da25ad82ea1ec29a732dfd692db7d20469f0ca42e4b",
                    "indexes" : {
                        "data" : 0,
                        "gas" : 1,
                        "value" : 0
                    },
                    "logs" : "0x1dcc4de8dec75d7aab85b567b6ccd41ad312451b948a7413f0a142fd40d49347",
                    "txbytes" : "0xf901050a0a83015f9094c305c901078781c232a2a521c2af7980f8385ee980b8a430c8d1da000000000000000000000000000000000000000000000000000000000000002000000000000000000000000000000000000000000000000000000000000000500000000000000000000000000000000000000000000000000000000000000001000000000000000000000000000000000000000000000000000000000000000200000000000000000000000000000000000000000000000000000000000000001ca0643cae931a038f1dd5da24811459416903267313ed09292de30b4e187dca4cbca036ed8b374f0f3deda6ba7d535a06f0f65923f92e644149853122cfae13fc6214"
                },
                {
                    "hash" : "0x1087b297ed9052041b737da25ad82ea1ec29a732dfd692db7d20469f0ca42e4b",
                    "indexes" : {
                        "data" : 0,
                        "gas" : 2,
                        "value" : 0
                    },
                    "logs" : "0x1dcc4de8dec75d7aab85b567b6ccd41ad312451b948a7413f0a142fd40d49347",
                    "txbytes" : "0xf901050a0a8301adb094c305c901078781c232a2a521c2af7980f8385ee980b8a430c8d1da000000000000000000000000000000000000000000000000000000000000002000000000000000000000000000000000000000000000000000000000000000500000000000000000000000000000000000000000000000000000000000000001000000000000000000000000000000000000000000000000000000000000000200000000000000000000000000000000000000000000000000000000000000001ca03639004b9a7c7a4f5da748bb81ed180cc9c4c6a749d73925505db27f074e1ae7a0667220db3bb9e79f2f20b8bbe288693a7eeecaa34e69ef9dce7d6b0569a947c5"
                },
                {
                    "hash" : "0x1087b297ed9052041b737da25ad82ea1ec29a732dfd692db7d20469f0ca42e4b",
                    "indexes" : {
                        "data" : 0,
                        "gas" : 3,
                        "value" : 0
                    },
                    "logs" : "0x1dcc4de8dec75d7aab85b567b6ccd41ad312451b948a7413f0a142fd40d49347",
                    "txbytes" : "0xf901050a0a83030d4094c305c901078781c232a2a521c2af7980f8385ee980b8a430c8d1da000000000000000000000000000000000000000000000000000000000000002000000000000000000000000000000000000000000000000000000000000000500000000000000000000000000000000000000000000000000000000000000001000000000000000000000000000000000000000000000000000000000000000200000000000000000000000000000000000000000000000000000000000000001ba0dbe7c014aa6c24b80c122519759d09fce8904b3907649072b888a43d2c9f11a7a014dda608aae0a93560634731cf3b7f62f3f2ce9cdb480bb74b2f68146be599a2"
                }
            ],
            "Paris" : [
                {
                    "hash" : "0x45ef6eecdb6fac5372f3c749e567dfef222975686be931e1bc7d59737a7beb81",
                    "indexes" : {
                        "data" : 0,
                        "gas" : 0,
                        "value" : 0
                    },
                    "logs" : "0x1dcc4de8dec75d7aab85b567b6ccd41ad312451b948a7413f0a142fd40d49347",
                    "txbytes" : "0xf901040a0a82a8a094c305c901078781c232a2a521c2af7980f8385ee980b8a430c8d1da000000000000000000000000000000000000000000000000000000000000002000000000000000000000000000000000000000000000000000000000000000500000000000000000000000000000000000000000000000000000000000000001000000000000000000000000000000000000000000000000000000000000000200000000000000000000000000000000000000000000000000000000000000001ba023eae325c43d43ad62d129cd5e26624645e9cfe29b085e637e6369d977cfe203a028039f3f79c015e691e899b04d469aec5c34f28dfc01a5f199afabda0cd7bb4c"
                },
                {
                    "hash" : "0x1087b297ed9052041b737da25ad82ea1ec29a732dfd692db7d20469f0ca42e4b",
                    "indexes" : {
                        "data" : 0,
                        "gas" : 1,
                        "value" : 0
                    },
                    "logs" : "0x1dcc4de8dec75d7aab85b567b6ccd41ad312451b948a7413f0a142fd40d49347",
                    "txbytes" : "0xf901050a0a83015f9094c305c901078781c232a2a521c2af7980f8385ee980b8a430c8d1da000000000000000000000000000000000000000000000000000000000000002000000000000000000000000000000000000000000000000000000000000000500000000000000000000000000000000000000000000000000000000000000001000000000000000000000000000000000000000000000000000000000000000200000000000000000000000000000000000000000000000000000000000000001ca0643cae931a038f1dd5da24811459416903267313ed09292de30b4e187dca4cbca036ed8b374f0f3deda6ba7d535a06f0f65923f92e644149853122cfae13fc6214"
                },
                {
                    "hash" : "0x1087b297ed9052041b737da25ad82ea1ec29a732dfd692db7d20469f0ca42e4b",
                    "indexes" : {
                        "data" : 0,
                        "gas" : 2,
                        "value" : 0
                    },
                    "logs" : "0x1dcc4de8dec75d7aab85b567b6ccd41ad312451b948a7413f0a142fd40d49347",
                    "txbytes" : "0xf901050a0a8301adb094c305c901078781c232a2a521c2af7980f8385ee980b8a430c8d1da000000000000000000000000000000000000000000000000000000000000002000000000000000000000000000000000000000000000000000000000000000500000000000000000000000000000000000000000000000000000000000000001000000000000000000000000000000000000000000000000000000000000000200000000000000000000000000000000000000000000000000000000000000001ca03639004b9a7c7a4f5da748bb81ed180cc9c4c6a749d73925505db27f074e1ae7a0667220db3bb9e79f2f20b8bbe288693a7eeecaa34e69ef9dce7d6b0569a947c5"
                },
                {
                    "hash" : "0x1087b297ed9052041b737da25ad82ea1ec29a732dfd692db7d20469f0ca42e4b",
                    "indexes" : {
                        "data" : 0,
                        "gas" : 3,
                        "value" : 0
                    },
                    "logs" : "0x1dcc4de8dec75d7aab85b567b6ccd41ad312451b948a7413f0a142fd40d49347",
                    "txbytes" : "0xf901050a0a83030d4094c305c901078781c232a2a521c2af7980f8385ee980b8a430c8d1da000000000000000000000000000000000000000000000000000000000000002000000000000000000000000000000000000000000000000000000000000000500000000000000000000000000000000000000000000000000000000000000001000000000000000000000000000000000000000000000000000000000000000200000000000000000000000000000000000000000000000000000000000000001ba0dbe7c014aa6c24b80c122519759d09fce8904b3907649072b888a43d2c9f11a7a014dda608aae0a93560634731cf3b7f62f3f2ce9cdb480bb74b2f68146be599a2"
                }
            ],
            "Shanghai" : [
                {
                    "hash" : "0x45ef6eecdb6fac5372f3c749e567dfef222975686be931e1bc7d59737a7beb81",
                    "indexes" : {
                        "data" : 0,
                        "gas" : 0,
                        "value" : 0
                    },
                    "logs" : "0x1dcc4de8dec75d7aab85b567b6ccd41ad312451b948a7413f0a142fd40d49347",
                    "txbytes" : "0xf901040a0a82a8a094c305c901078781c232a2a521c2af7980f8385ee980b8a430c8d1da000000000000000000000000000000000000000000000000000000000000002000000000000000000000000000000000000000000000000000000000000000500000000000000000000000000000000000000000000000000000000000000001000000000000000000000000000000000000000000000000000000000000000200000000000000000000000000000000000000000000000000000000000000001ba023eae325c43d43ad62d129cd5e26624645e9cfe29b085e637e6369d977cfe203a028039f3f79c015e691e899b04d469aec5c34f28dfc01a5f199afabda0cd7bb4c"
                },
                {
                    "hash" : "0x1087b297ed9052041b737da25ad82ea1ec29a732dfd692db7d20469f0ca42e4b",
                    "indexes" : {
                        "data" : 0,
                        "gas" : 1,
                        "value" : 0
                    },
                    "logs" : "0x1dcc4de8dec75d7aab85b567b6ccd41ad312451b948a7413f0a142fd40d49347",
                    "txbytes" : "0xf901050a0a83015f9094c305c901078781c232a2a521c2af7980f8385ee980b8a430c8d1da000000000000000000000000000000000000000000000000000000000000002000000000000000000000000000000000000000000000000000000000000000500000000000000000000000000000000000000000000000000000000000000001000000000000000000000000000000000000000000000000000000000000000200000000000000000000000000000000000000000000000000000000000000001ca0643cae931a038f1dd5da24811459416903267313ed09292de30b4e187dca4cbca036ed8b374f0f3deda6ba7d535a06f0f65923f92e644149853122cfae13fc6214"
                },
                {
                    "hash" : "0x1087b297ed9052041b737da25ad82ea1ec29a732dfd692db7d20469f0ca42e4b",
                    "indexes" : {
                        "data" : 0,
                        "gas" : 2,
                        "value" : 0
                    },
                    "logs" : "0x1dcc4de8dec75d7aab85b567b6ccd41ad312451b948a7413f0a142fd40d49347",
                    "txbytes" : "0xf901050a0a8301adb094c305c901078781c232a2a521c2af7980f8385ee980b8a430c8d1da000000000000000000000000000000000000000000000000000000000000002000000000000000000000000000000000000000000000000000000000000000500000000000000000000000000000000000000000000000000000000000000001000000000000000000000000000000000000000000000000000000000000000200000000000000000000000000000000000000000000000000000000000000001ca03639004b9a7c7a4f5da748bb81ed180cc9c4c6a749d73925505db27f074e1ae7a0667220db3bb9e79f2f20b8bbe288693a7eeecaa34e69ef9dce7d6b0569a947c5"
                },
                {
                    "hash" : "0x1087b297ed9052041b737da25ad82ea1ec29a732dfd692db7d20469f0ca42e4b",
                    "indexes" : {
                        "data" : 0,
                        "gas" : 3,
                        "value" : 0
                    },
                    "logs" : "0x1dcc4de8dec75d7aab85b567b6ccd41ad312451b948a7413f0a142fd40d49347",
                    "txbytes" : "0xf901050a0a83030d4094c305c901078781c232a2a521c2af7980f8385ee980b8a430c8d1da000000000000000000000000000000000000000000000000000000000000002000000000000000000000000000000000000000000000000000000000000000500000000000000000000000000000000000000000000000000000000000000001000000000000000000000000000000000000000000000000000000000000000200000000000000000000000000000000000000000000000000000000000000001ba0dbe7c014aa6c24b80c122519759d09fce8904b3907649072b888a43d2c9f11a7a014dda608aae0a93560634731cf3b7f62f3f2ce9cdb480bb74b2f68146be599a2"
                }
            ]
        },
        "pre" : {
            "0x0000000000000000000000000000000000000000" : {
                "balance" : "0x01",
                "code" : "0x",
                "nonce" : "0x00",
                "storage" : {
                }
            },
            "0x0000000000000000000000000000000000000001" : {
                "balance" : "0x01",
                "code" : "0x",
                "nonce" : "0x00",
                "storage" : {
                }
            },
            "0x0000000000000000000000000000000000000002" : {
                "balance" : "0x01",
                "code" : "0x",
                "nonce" : "0x00",
                "storage" : {
                }
            },
            "0x0000000000000000000000000000000000000003" : {
                "balance" : "0x01",
                "code" : "0x",
                "nonce" : "0x00",
                "storage" : {
                }
            },
            "0x0000000000000000000000000000000000000004" : {
                "balance" : "0x01",
                "code" : "0x",
                "nonce" : "0x00",
                "storage" : {
                }
            },
            "0x0000000000000000000000000000000000000005" : {
                "balance" : "0x01",
                "code" : "0x",
                "nonce" : "0x00",
                "storage" : {
                }
            },
            "0x0000000000000000000000000000000000000006" : {
                "balance" : "0x01",
                "code" : "0x",
                "nonce" : "0x00",
                "storage" : {
                }
            },
            "0x0000000000000000000000000000000000000007" : {
                "balance" : "0x01",
                "code" : "0x",
                "nonce" : "0x00",
                "storage" : {
                }
            },
            "0x000f3df6d732807ef1319fb7b8bb8522d0beac02" : {
                "balance" : "0x00",
                "code" : "0x3373fffffffffffffffffffffffffffffffffffffffe14604d57602036146024575f5ffd5b5f35801560495762001fff810690815414603c575f5ffd5b62001fff01545f5260205ff35b5f5ffd5b62001fff42064281555f359062001fff015500",
                "nonce" : "0x01",
                "storage" : {
                }
            },
            "0x10a1c1cb95c92ec31d3f22c66eef1d9f3f258c6b" : {
                "balance" : "0x0de0b6b3a7640000",
                "code" : "0x",
                "nonce" : "0x00",
                "storage" : {
                }
            },
            "0x13cbb8d99c6c4e0f2728c7d72606e78a29c4e224" : {
                "balance" : "0x0de0b6b3a7640000",
                "code" : "0x",
                "nonce" : "0x00",
                "storage" : {
                }
            },
            "0x24143873e0e0815fdcbcffdbe09c979cbf9ad013" : {
                "balance" : "0x0de0b6b3a7640000",
                "code" : "0x",
                "nonce" : "0x00",
                "storage" : {
                }
            },
            "0x3535353535353535353535353535353535353535" : {
                "balance" : "0x07ea4e",
                "code" : "0x",
                "nonce" : "0x00",
                "storage" : {
                }
            },
            "0x598443f1880ef585b21f1d7585bd0577402861e5" : {
                "balance" : "0x0de0b6b3a7640000",
                "code" : "0x",
                "nonce" : "0x00",
                "storage" : {
                }
            },
            "0x77db2bebba79db42a978f896968f4afce746ea1f" : {
                "balance" : "0x0de0b6b3a7640000",
                "code" : "0x",
                "nonce" : "0x00",
                "storage" : {
                }
            },
            "0x7d577a597b2742b498cb5cf0c26cdcd726d39e6e" : {
                "balance" : "0x0de0b6b3a7640000",
                "code" : "0x",
                "nonce" : "0x00",
                "storage" : {
                }
            },
            "0x82a978b3f5962a5b0957d9ee9eef472ee55b42f1" : {
                "balance" : "0x0de0b6b3a75c15b2",
                "code" : "0x",
                "nonce" : "0x0a",
                "storage" : {
                }
            },
            "0x90f0b1ebbba1c1936aff7aaf20a7878ff9e04b6c" : {
                "balance" : "0x0de0b6b3a7640000",
                "code" : "0x",
                "nonce" : "0x00",
                "storage" : {
                }
            },
            "0xc305c901078781c232a2a521c2af7980f8385ee9" : {
                "balance" : "0x00",
                "code" : "0x600035601c52740100000000000000000000000000000000000000006020526fffffffffffffffffffffffffffffffff6040527fffffffffffffffffffffffffffffffff000000000000000000000000000000016060527402540be3fffffffffffffffffffffffffdabf41c006080527ffffffffffffffffffffffffdabf41c00000000000000000000000002540be40060a0526330c8d1da600051141561012b5760c06004356004013511151558576004356004013560200160043560040161014037604061026061014051610160600060076305f5e0fff11558576040610240526102406060806102c0828460006004601bf15050506102c08051602082012090506000556102c060206020820352604081510160206001820306601f820103905060208203f350005b",
                "nonce" : "0x01",
                "storage" : {
                }
            },
            "0xdceceaf3fc5c0a63d195d69b1a90011b7b19650d" : {
                "balance" : "0x0de0b6b3a7640000",
                "code" : "0x",
                "nonce" : "0x00",
                "storage" : {
                }
            },
            "0xe0fc04fa2d34a66b779fd5cee748268032a146c0" : {
                "balance" : "0x0de0b6b3a7640000",
                "code" : "0x",
                "nonce" : "0x00",
                "storage" : {
                }
            }
        },
        "transaction" : {
            "data" : [
                "0x30c8d1da00000000000000000000000000000000000000000000000000000000000000200000000000000000000000000000000000000000000000000000000000000050000000000000000000000000000000000000000000000000000000000000000100000000000000000000000000000000000000000000000000000000000000020000000000000000000000000000000000000000000000000000000000000000"
            ],
            "gasLimit" : [
                "0xa8a0",
                "0x015f90",
                "0x01adb0",
                "0x030d40"
            ],
            "gasPrice" : "0x0a",
            "nonce" : "0x0a",
            "secretKey" : "0x044852b2a670ade5407e78fb2863c51de9fcb96542a07186fe3aeda6bb8a116d",
            "sender" : "0x82a978b3f5962a5b0957d9ee9eef472ee55b42f1",
            "to" : "0xc305c901078781c232a2a521c2af7980f8385ee9",
            "value" : [
                "0x00"
            ]
        }
    }
}