{
    "transStorageBlockchain_Merge+1153" : {
        "_info" : {
            "comment" : "Ori Pomerantz qbzzt1@gmail.com",
            "filling-rpc-server" : "evm version 1.11.0-unstable-efdc1274-20230505",
            "filling-tool-version" : "retesteth-0.3.1-shanghai+commit.1c63d24c.Linux.g++",
            "generatedTestHash" : "b796f8729ea3df79fcdfd8deba89655e249d63f8b5652abe02b2188fad56091d",
            "lllcversion" : "Version: 0.5.14-develop.2023.6.19+commit.b2b86751.Linux.g++",
            "solidity" : "Version: 0.8.17+commit.8df45f5f.Linux.g++",
            "source" : "src/EIPTestsFiller/BlockchainTests/bcEIP1153-transientStorage/transStorageBlockchainFiller.yml",
            "sourceHash" : "9d74b4037ac0c8c78d0541891859f86f26a36c277d370436db2574034c8b3c4e"
        },
        "blocks" : [
            {
                "blockHeader" : {
                    "baseFeePerGas" : "0x0e",
                    "bloom" : "0x00000000000000000000000000000000000000000000000000000000000000000000000000000000000000000000000000000000000000000000000000000000000000000000000000000000000000000000000000000000000000000000000000000000000000000000000000000000000000000000000000000000000000000000000000000000000000000000000000000000000000000000000000000000000000000000000000000000000000000000000000000000000000000000000000000000000000000000000000000000000000000000000000000000000000000000000000000000000000000000000000000000000000000000000000000000",
                    "coinbase" : "0x8888f1f195afa192cfee860698584c030f4c9db1",
                    "difficulty" : "0x00",
                    "extraData" : "0x42",
                    "gasLimit" : "0x2fefd8",
                    "gasUsed" : "0x014d80",
                    "hash" : "0xaf6a51e9f918704d2469c4186988054b9db028c14e803c0c9443471590a20f79",
                    "mixHash" : "0x0000000000000000000000000000000000000000000000000000000000020000",
                    "nonce" : "0x0000000000000000",
                    "number" : "0x01",
                    "parentHash" : "0x873330535dc8be4ba7952a8f4d7f0013def67a9835bda22e59f8ab7064373482",
                    "receiptTrie" : "0x6cac3d8f6d88e9ddad8723c0956b7d1907d58fbb49b3cef02bb38b741fbcd4d0",
                    "stateRoot" : "0x61628e133b45ca1648f0dcda71539b0178436703653ccf83d23afa2c35391ef2",
                    "timestamp" : "0x54c99069",
                    "transactionsTrie" : "0xbc5b1c25492d5ffe9fa14728d889c620514df78e7fb0441776f00ab6c4db9737",
                    "uncleHash" : "0x1dcc4de8dec75d7aab85b567b6ccd41ad312451b948a7413f0a142fd40d49347"
                },
                "blocknumber" : "1",
                "chainname" : "default",
                "rlp" : "0xf90387f901f8a0873330535dc8be4ba7952a8f4d7f0013def67a9835bda22e59f8ab7064373482a01dcc4de8dec75d7aab85b567b6ccd41ad312451b948a7413f0a142fd40d49347948888f1f195afa192cfee860698584c030f4c9db1a061628e133b45ca1648f0dcda71539b0178436703653ccf83d23afa2c35391ef2a0bc5b1c25492d5ffe9fa14728d889c620514df78e7fb0441776f00ab6c4db9737a06cac3d8f6d88e9ddad8723c0956b7d1907d58fbb49b3cef02bb38b741fbcd4d0b90100000000000000000000000000000000000000000000000000000000000000000000000000000000000000000000000000000000000000000000000000000000000000000000000000000000000000000000000000000000000000000000000000000000000000000000000000000000000000000000000000000000000000000000000000000000000000000000000000000000000000000000000000000000000000000000000000000000000000000000000000000000000000000000000000000000000000000000000000000000000000000000000000000000000000000000000000000000000000000000000000000000000000000000000000000000008001832fefd883014d808454c9906942a000000000000000000000000000000000000000000000000000000000000200008800000000000000000ef90188f8600114830f424094de570000de570000de570000de570000de57000080011ba02a798234a64049fd9edfbaf17731649d0a6568d0aa58e4d24ba43b9cee1ce20aa006216b852f718749ce1a29425c45f323d6dda0b982ffe5a5993be6761130901ef8600214830f424094de570000de570000de570000de570000de57000080021ca03b896b6b6f235b83ee552c3b84ec3c268b79c09555e93dfa2678bb381b1c7365a06d9b1587dbc852a4ae2cb9f4fd5392949457550e125dc9fd7262d16e27f6190bf8600314830f424094de570000de570000de570000de570000de57000080031ca0bf803363d30a8c9169d77b79326b0643f7e95c725a719c410c3cb01d62b44f58a015255c3b0820dbd80b3cb02b8132b528eb805dab6085020f5d93461148e280dff8600414830f424094de570000de570000de570000de570000de57000080041ca0dff8c039e81fff3b4714e899b2ad050ac4e908da0d8e7d20f3eb8d9b0a529663a0103eeb87865344f6f07562b8df992a5a349cdf9c8f890ea62545403e7bf31a48c0",
                "transactions" : [
                    {
                        "data" : "0x01",
                        "gasLimit" : "0x0f4240",
                        "gasPrice" : "0x14",
                        "nonce" : "0x01",
                        "r" : "0x2a798234a64049fd9edfbaf17731649d0a6568d0aa58e4d24ba43b9cee1ce20a",
                        "s" : "0x06216b852f718749ce1a29425c45f323d6dda0b982ffe5a5993be6761130901e",
                        "sender" : "0xa94f5374fce5edbc8e2a8697c15331677e6ebf0b",
                        "to" : "0xde570000de570000de570000de570000de570000",
                        "v" : "0x1b",
                        "value" : "0x00"
                    },
                    {
                        "data" : "0x02",
                        "gasLimit" : "0x0f4240",
                        "gasPrice" : "0x14",
                        "nonce" : "0x02",
                        "r" : "0x3b896b6b6f235b83ee552c3b84ec3c268b79c09555e93dfa2678bb381b1c7365",
                        "s" : "0x6d9b1587dbc852a4ae2cb9f4fd5392949457550e125dc9fd7262d16e27f6190b",
                        "sender" : "0xa94f5374fce5edbc8e2a8697c15331677e6ebf0b",
                        "to" : "0xde570000de570000de570000de570000de570000",
                        "v" : "0x1c",
                        "value" : "0x00"
                    },
                    {
                        "data" : "0x03",
                        "gasLimit" : "0x0f4240",
                        "gasPrice" : "0x14",
                        "nonce" : "0x03",
                        "r" : "0xbf803363d30a8c9169d77b79326b0643f7e95c725a719c410c3cb01d62b44f58",
                        "s" : "0x15255c3b0820dbd80b3cb02b8132b528eb805dab6085020f5d93461148e280df",
                        "sender" : "0xa94f5374fce5edbc8e2a8697c15331677e6ebf0b",
                        "to" : "0xde570000de570000de570000de570000de570000",
                        "v" : "0x1c",
                        "value" : "0x00"
                    },
                    {
                        "data" : "0x04",
                        "gasLimit" : "0x0f4240",
                        "gasPrice" : "0x14",
                        "nonce" : "0x04",
                        "r" : "0xdff8c039e81fff3b4714e899b2ad050ac4e908da0d8e7d20f3eb8d9b0a529663",
                        "s" : "0x103eeb87865344f6f07562b8df992a5a349cdf9c8f890ea62545403e7bf31a48",
                        "sender" : "0xa94f5374fce5edbc8e2a8697c15331677e6ebf0b",
                        "to" : "0xde570000de570000de570000de570000de570000",
                        "v" : "0x1c",
                        "value" : "0x00"
                    }
                ],
                "uncleHeaders" : [
                ]
            },
            {
                "blockHeader" : {
                    "baseFeePerGas" : "0x0d",
                    "bloom" : "0x00000000000000000000000000000000000000000000000000000000000000000000000000000000000000000000000000000000000000000000000000000000000000000000000000000000000000000000000000000000000000000000000000000000000000000000000000000000000000000000000000000000000000000000000000000000000000000000000000000000000000000000000000000000000000000000000000000000000000000000000000000000000000000000000000000000000000000000000000000000000000000000000000000000000000000000000000000000000000000000000000000000000000000000000000000000",
                    "coinbase" : "0x8888f1f195afa192cfee860698584c030f4c9db1",
                    "difficulty" : "0x00",
                    "extraData" : "0x42",
                    "gasLimit" : "0x2fefd8",
                    "gasUsed" : "0x014dbe",
                    "hash" : "0x0b29795a842943521529aba3e6fb448a00c0e6ce12e8ffcc6b8340ad1c4c3615",
                    "mixHash" : "0x0000000000000000000000000000000000000000000000000000000000020000",
                    "nonce" : "0x0000000000000000",
                    "number" : "0x02",
                    "parentHash" : "0xaf6a51e9f918704d2469c4186988054b9db028c14e803c0c9443471590a20f79",
                    "receiptTrie" : "0xe05848f3561214a2a36dd5df627e65d5779b2947f969387e18509dd8bda72579",
                    "stateRoot" : "0x1d500b499bb8d480efda1a53dde179cc4819a7708b69645fe15679f79dcfff3a",
                    "timestamp" : "0x54c99451",
                    "transactionsTrie" : "0x3688eb8245167c2b038a5a78489cadb5e92ab57c3d5c30d63e7f8665b5a6cdf9",
                    "uncleHash" : "0x1dcc4de8dec75d7aab85b567b6ccd41ad312451b948a7413f0a142fd40d49347"
                },
                "blocknumber" : "2",
                "chainname" : "default",
                "rlp" : "0xf90387f901f8a0af6a51e9f918704d2469c4186988054b9db028c14e803c0c9443471590a20f79a01dcc4de8dec75d7aab85b567b6ccd41ad312451b948a7413f0a142fd40d49347948888f1f195afa192cfee860698584c030f4c9db1a01d500b499bb8d480efda1a53dde179cc4819a7708b69645fe15679f79dcfff3aa03688eb8245167c2b038a5a78489cadb5e92ab57c3d5c30d63e7f8665b5a6cdf9a0e05848f3561214a2a36dd5df627e65d5779b2947f969387e18509dd8bda72579b90100000000000000000000000000000000000000000000000000000000000000000000000000000000000000000000000000000000000000000000000000000000000000000000000000000000000000000000000000000000000000000000000000000000000000000000000000000000000000000000000000000000000000000000000000000000000000000000000000000000000000000000000000000000000000000000000000000000000000000000000000000000000000000000000000000000000000000000000000000000000000000000000000000000000000000000000000000000000000000000000000000000000000000000000000000000008002832fefd883014dbe8454c9945142a000000000000000000000000000000000000000000000000000000000000200008800000000000000000df90188f8600514830f424094de570000de570000de570000de570000de57000080011ba01ec816526f6419a0660dbf49d37471f87eb2bed887ce2486776a7a02060b20e3a075c63b2e821d27979406f5e8c48c1f66868051db239248f31510dec320fff529f8600614830f424094de570000de570000de570000de570000de57000080021ca0a1c007aa00b1118715b666386122310834164ccf3b8d85f763c400b429651f1da04320db67c6fb5258e866be4cabcad520bcddc36c3d896ae4336757b69c34dd6ef8600714830f424094de570000de570000de570000de570000de57000080031ca0c764e68d24b07c40e8b26be1bc8d9ac0092c562672503a051a6b4202e74e32ada06981af2f3dddb60629ed0e7775d1d6348f2b4a8d22f07f3fb76ddfcae664e2a7f8600814830f424094de570000de570000de570000de570000de57000080041ba01b46ac4c8c58ed0deb5613523af7abe9a57305dd7e9a9bac15eaf5bf1355d254a046173ceab467545dbb062771cf210df0e7ce3d4dcb1016b960910ae289267a37c0",
                "transactions" : [
                    {
                        "data" : "0x01",
                        "gasLimit" : "0x0f4240",
                        "gasPrice" : "0x14",
                        "nonce" : "0x05",
                        "r" : "0x1ec816526f6419a0660dbf49d37471f87eb2bed887ce2486776a7a02060b20e3",
                        "s" : "0x75c63b2e821d27979406f5e8c48c1f66868051db239248f31510dec320fff529",
                        "sender" : "0xa94f5374fce5edbc8e2a8697c15331677e6ebf0b",
                        "to" : "0xde570000de570000de570000de570000de570000",
                        "v" : "0x1b",
                        "value" : "0x00"
                    },
                    {
                        "data" : "0x02",
                        "gasLimit" : "0x0f4240",
                        "gasPrice" : "0x14",
                        "nonce" : "0x06",
                        "r" : "0xa1c007aa00b1118715b666386122310834164ccf3b8d85f763c400b429651f1d",
                        "s" : "0x4320db67c6fb5258e866be4cabcad520bcddc36c3d896ae4336757b69c34dd6e",
                        "sender" : "0xa94f5374fce5edbc8e2a8697c15331677e6ebf0b",
                        "to" : "0xde570000de570000de570000de570000de570000",
                        "v" : "0x1c",
                        "value" : "0x00"
                    },
                    {
                        "data" : "0x03",
                        "gasLimit" : "0x0f4240",
                        "gasPrice" : "0x14",
                        "nonce" : "0x07",
                        "r" : "0xc764e68d24b07c40e8b26be1bc8d9ac0092c562672503a051a6b4202e74e32ad",
                        "s" : "0x6981af2f3dddb60629ed0e7775d1d6348f2b4a8d22f07f3fb76ddfcae664e2a7",
                        "sender" : "0xa94f5374fce5edbc8e2a8697c15331677e6ebf0b",
                        "to" : "0xde570000de570000de570000de570000de570000",
                        "v" : "0x1c",
                        "value" : "0x00"
                    },
                    {
                        "data" : "0x04",
                        "gasLimit" : "0x0f4240",
                        "gasPrice" : "0x14",
                        "nonce" : "0x08",
                        "r" : "0x1b46ac4c8c58ed0deb5613523af7abe9a57305dd7e9a9bac15eaf5bf1355d254",
                        "s" : "0x46173ceab467545dbb062771cf210df0e7ce3d4dcb1016b960910ae289267a37",
                        "sender" : "0xa94f5374fce5edbc8e2a8697c15331677e6ebf0b",
                        "to" : "0xde570000de570000de570000de570000de570000",
                        "v" : "0x1b",
                        "value" : "0x00"
                    }
                ],
                "uncleHeaders" : [
                ]
            },
            {
                "blockHeader" : {
                    "baseFeePerGas" : "0x0c",
                    "bloom" : "0x00000000000000000000000000000000000000000000000000000000000000000000000000000000000000000000000000000000000000000000000000000000000000000000000000000000000000000000000000000000000000000000000000000000000000000000000000000000000000000000000000000000000000000000000000000000000000000000000000000000000000000000000000000000000000000000000000000000000000000000000000000000000000000000000000000000000000000000000000000000000000000000000000000000000000000000000000000000000000000000000000000000000000000000000000000000",
                    "coinbase" : "0x8888f1f195afa192cfee860698584c030f4c9db1",
                    "difficulty" : "0x00",
                    "extraData" : "0x42",
                    "gasLimit" : "0x2fefd8",
                    "gasUsed" : "0x014dea",
                    "hash" : "0x0fd661daedaf8047a35f447fc28384b0e202b2ff8dffe9b2dffdd3129c9472c7",
                    "mixHash" : "0x0000000000000000000000000000000000000000000000000000000000020000",
                    "nonce" : "0x0000000000000000",
                    "number" : "0x03",
                    "parentHash" : "0x0b29795a842943521529aba3e6fb448a00c0e6ce12e8ffcc6b8340ad1c4c3615",
                    "receiptTrie" : "0xabe6a1b85420ab2b2ea271c8b2a1f79086b9288a2ef962d9b755fdb2bb249ddd",
                    "stateRoot" : "0xab430843007c96d83cbb2c443a49c3a8c4bb3c9cfbe898d798641062dcbe53bc",
                    "timestamp" : "0x54c99839",
                    "transactionsTrie" : "0x5aace97b3d51efec353e6a8496fbdd6c3572b896ad06450f98fc1862c340551e",
                    "uncleHash" : "0x1dcc4de8dec75d7aab85b567b6ccd41ad312451b948a7413f0a142fd40d49347"
                },
                "blocknumber" : "3",
                "chainname" : "default",
                "rlp" : "0xf90387f901f8a00b29795a842943521529aba3e6fb448a00c0e6ce12e8ffcc6b8340ad1c4c3615a01dcc4de8dec75d7aab85b567b6ccd41ad312451b948a7413f0a142fd40d49347948888f1f195afa192cfee860698584c030f4c9db1a0ab430843007c96d83cbb2c443a49c3a8c4bb3c9cfbe898d798641062dcbe53bca05aace97b3d51efec353e6a8496fbdd6c3572b896ad06450f98fc1862c340551ea0abe6a1b85420ab2b2ea271c8b2a1f79086b9288a2ef962d9b755fdb2bb249dddb90100000000000000000000000000000000000000000000000000000000000000000000000000000000000000000000000000000000000000000000000000000000000000000000000000000000000000000000000000000000000000000000000000000000000000000000000000000000000000000000000000000000000000000000000000000000000000000000000000000000000000000000000000000000000000000000000000000000000000000000000000000000000000000000000000000000000000000000000000000000000000000000000000000000000000000000000000000000000000000000000000000000000000000000000000000000008003832fefd883014dea8454c9983942a000000000000000000000000000000000000000000000000000000000000200008800000000000000000cf90188f8600914830f424094de570000de570000de570000de570000de57000080011ca030ae7c1dc906146080ed524bff45b3badf55ecb2c91ed1aa6d70c12da4aa23e2a040656f03cab1a8734a01ebefbc10d149ca8b3364e89485d6f25491b312a67e03f8600a14830f424094de570000de570000de570000de570000de57000080021ca0b6176c4fa758d30582344eacf87d4e9d699fefa699848957b36bd726ed834cafa07671aed11e1b2f9190f256b2587cb0863ecf644a7735b908a96c044b6acad1eaf8600b14830f424094de570000de570000de570000de570000de57000080031ba073194e45a7072eba3aa7de1d6d548b049b3fb2cbc0360ae68d3e0e6796240ceda0704ee097d3ad115fb730d5799c8182a285f11464b2f1bbf6f903263e49c8bf8af8600c14830f424094de570000de570000de570000de570000de57000080041ba0330e860a07d33e28d507c301840b2fb912f001d3c2d0c89bc9725fa0b7723900a027a60cf5e60da2956f3fc0cca2d9ee8f9fcffae6a7384e836b83826367865b88c0",
                "transactions" : [
                    {
                        "data" : "0x01",
                        "gasLimit" : "0x0f4240",
                        "gasPrice" : "0x14",
                        "nonce" : "0x09",
                        "r" : "0x30ae7c1dc906146080ed524bff45b3badf55ecb2c91ed1aa6d70c12da4aa23e2",
                        "s" : "0x40656f03cab1a8734a01ebefbc10d149ca8b3364e89485d6f25491b312a67e03",
                        "sender" : "0xa94f5374fce5edbc8e2a8697c15331677e6ebf0b",
                        "to" : "0xde570000de570000de570000de570000de570000",
                        "v" : "0x1c",
                        "value" : "0x00"
                    },
                    {
                        "data" : "0x02",
                        "gasLimit" : "0x0f4240",
                        "gasPrice" : "0x14",
                        "nonce" : "0x0a",
                        "r" : "0xb6176c4fa758d30582344eacf87d4e9d699fefa699848957b36bd726ed834caf",
                        "s" : "0x7671aed11e1b2f9190f256b2587cb0863ecf644a7735b908a96c044b6acad1ea",
                        "sender" : "0xa94f5374fce5edbc8e2a8697c15331677e6ebf0b",
                        "to" : "0xde570000de570000de570000de570000de570000",
                        "v" : "0x1c",
                        "value" : "0x00"
                    },
                    {
                        "data" : "0x03",
                        "gasLimit" : "0x0f4240",
                        "gasPrice" : "0x14",
                        "nonce" : "0x0b",
                        "r" : "0x73194e45a7072eba3aa7de1d6d548b049b3fb2cbc0360ae68d3e0e6796240ced",
                        "s" : "0x704ee097d3ad115fb730d5799c8182a285f11464b2f1bbf6f903263e49c8bf8a",
                        "sender" : "0xa94f5374fce5edbc8e2a8697c15331677e6ebf0b",
                        "to" : "0xde570000de570000de570000de570000de570000",
                        "v" : "0x1b",
                        "value" : "0x00"
                    },
                    {
                        "data" : "0x04",
                        "gasLimit" : "0x0f4240",
                        "gasPrice" : "0x14",
                        "nonce" : "0x0c",
                        "r" : "0x330e860a07d33e28d507c301840b2fb912f001d3c2d0c89bc9725fa0b7723900",
                        "s" : "0x27a60cf5e60da2956f3fc0cca2d9ee8f9fcffae6a7384e836b83826367865b88",
                        "sender" : "0xa94f5374fce5edbc8e2a8697c15331677e6ebf0b",
                        "to" : "0xde570000de570000de570000de570000de570000",
                        "v" : "0x1b",
                        "value" : "0x00"
                    }
                ],
                "uncleHeaders" : [
                ]
            },
            {
                "blockHeader" : {
                    "baseFeePerGas" : "0x0b",
                    "bloom" : "0x00000000000000000000000000000000000000000000000000000000000000000000000000000000000000000000000000000000000000000000000000000000000000000000000000000000000000000000000000000000000000000000000000000000000000000000000000000000000000000000000000000000000000000000000000000000000000000000000000000000000000000000000000000000000000000000000000000000000000000000000000000000000000000000000000000000000000000000000000000000000000000000000000000000000000000000000000000000000000000000000000000000000000000000000000000000",
                    "coinbase" : "0x8888f1f195afa192cfee860698584c030f4c9db1",
                    "difficulty" : "0x00",
                    "extraData" : "0x42",
                    "gasLimit" : "0x2fefd8",
                    "gasUsed" : "0x1f2c04",
                    "hash" : "0xea30c3d18d38ff29d11eeed67dd0e0a7b63fe941cfde441fade8fc5d25294ac0",
                    "mixHash" : "0x0000000000000000000000000000000000000000000000000000000000020000",
                    "nonce" : "0x0000000000000000",
                    "number" : "0x04",
                    "parentHash" : "0x0fd661daedaf8047a35f447fc28384b0e202b2ff8dffe9b2dffdd3129c9472c7",
                    "receiptTrie" : "0x8a261b9a4d354d2e66cd01db5c2534de5e5ed01a1b101fe2239760322473381d",
                    "stateRoot" : "0x1ead0df94ad11152eff88accffb82c1c2fcb10ff5546e168cb9a781403d59e66",
                    "timestamp" : "0x54c99c21",
                    "transactionsTrie" : "0x1ab87c88a6ad0b8b4b94e1f8153fdd9c073c58e26b68618afe168232dfd42418",
                    "uncleHash" : "0x1dcc4de8dec75d7aab85b567b6ccd41ad312451b948a7413f0a142fd40d49347"
                },
                "blocknumber" : "4",
                "chainname" : "default",
                "rlp" : "0xf90387f901f8a00fd661daedaf8047a35f447fc28384b0e202b2ff8dffe9b2dffdd3129c9472c7a01dcc4de8dec75d7aab85b567b6ccd41ad312451b948a7413f0a142fd40d49347948888f1f195afa192cfee860698584c030f4c9db1a01ead0df94ad11152eff88accffb82c1c2fcb10ff5546e168cb9a781403d59e66a01ab87c88a6ad0b8b4b94e1f8153fdd9c073c58e26b68618afe168232dfd42418a08a261b9a4d354d2e66cd01db5c2534de5e5ed01a1b101fe2239760322473381db90100000000000000000000000000000000000000000000000000000000000000000000000000000000000000000000000000000000000000000000000000000000000000000000000000000000000000000000000000000000000000000000000000000000000000000000000000000000000000000000000000000000000000000000000000000000000000000000000000000000000000000000000000000000000000000000000000000000000000000000000000000000000000000000000000000000000000000000000000000000000000000000000000000000000000000000000000000000000000000000000000000000000000000000000000000000008004832fefd8831f2c048454c99c2142a000000000000000000000000000000000000000000000000000000000000200008800000000000000000bf90188f8600d14830f424094de570000de570000de570000de570000de57000080011ca0972f3d6d3f9e0fe87c8b99c03e41869106ad3766824234ba5de3efb18667a4f9a07186183d284ea01ae5487a897950207bec7f33942738ca6aa559a4b9f50bd1c4f8600e14830f424094de570000de570000de570000de570000de57000080021ca061cc22fb5c2741826e4e873ece5d8df904d2256b2ede90e60f958f18f50e9713a04948ce3e3af9d43f88df900479f78e52249c776ffd5f04ac195ee412b478302ef8600f14830f424094de570000de570000de570000de570000de57000080031ba05ec60c59181b023ad777653de60a011bc03df2e6a05cfe5a1b3bcd830ab272fea03cbf0d52c5620a8aa15a9e364ed4d25bd9fb8a40be1752062c92566472a326fef8601014830f424094de570000de570000de570000de570000de57000080041ba08b69d2c0f10d534f1b121e04625462d0ad61803432badfe1ddc0682a63b3c7b7a067cf0ba63a193d9db8bb0e103ac1f07de86c168c2d31d23ffa458bef8f2acaa3c0",
                "transactions" : [
                    {
                        "data" : "0x01",
                        "gasLimit" : "0x0f4240",
                        "gasPrice" : "0x14",
                        "nonce" : "0x0d",
                        "r" : "0x972f3d6d3f9e0fe87c8b99c03e41869106ad3766824234ba5de3efb18667a4f9",
                        "s" : "0x7186183d284ea01ae5487a897950207bec7f33942738ca6aa559a4b9f50bd1c4",
                        "sender" : "0xa94f5374fce5edbc8e2a8697c15331677e6ebf0b",
                        "to" : "0xde570000de570000de570000de570000de570000",
                        "v" : "0x1c",
                        "value" : "0x00"
                    },
                    {
                        "data" : "0x02",
                        "gasLimit" : "0x0f4240",
                        "gasPrice" : "0x14",
                        "nonce" : "0x0e",
                        "r" : "0x61cc22fb5c2741826e4e873ece5d8df904d2256b2ede90e60f958f18f50e9713",
                        "s" : "0x4948ce3e3af9d43f88df900479f78e52249c776ffd5f04ac195ee412b478302e",
                        "sender" : "0xa94f5374fce5edbc8e2a8697c15331677e6ebf0b",
                        "to" : "0xde570000de570000de570000de570000de570000",
                        "v" : "0x1c",
                        "value" : "0x00"
                    },
                    {
                        "data" : "0x03",
                        "gasLimit" : "0x0f4240",
                        "gasPrice" : "0x14",
                        "nonce" : "0x0f",
                        "r" : "0x5ec60c59181b023ad777653de60a011bc03df2e6a05cfe5a1b3bcd830ab272fe",
                        "s" : "0x3cbf0d52c5620a8aa15a9e364ed4d25bd9fb8a40be1752062c92566472a326fe",
                        "sender" : "0xa94f5374fce5edbc8e2a8697c15331677e6ebf0b",
                        "to" : "0xde570000de570000de570000de570000de570000",
                        "v" : "0x1b",
                        "value" : "0x00"
                    },
                    {
                        "data" : "0x04",
                        "gasLimit" : "0x0f4240",
                        "gasPrice" : "0x14",
                        "nonce" : "0x10",
                        "r" : "0x8b69d2c0f10d534f1b121e04625462d0ad61803432badfe1ddc0682a63b3c7b7",
                        "s" : "0x67cf0ba63a193d9db8bb0e103ac1f07de86c168c2d31d23ffa458bef8f2acaa3",
                        "sender" : "0xa94f5374fce5edbc8e2a8697c15331677e6ebf0b",
                        "to" : "0xde570000de570000de570000de570000de570000",
                        "v" : "0x1b",
                        "value" : "0x00"
                    }
                ],
                "uncleHeaders" : [
                ]
            },
            {
                "blockHeader" : {
                    "baseFeePerGas" : "0x0c",
                    "bloom" : "0x00000000000000000000000000000000000000000000000000000000000000000000000000000000000000000000000000000000000000000000000000000000000000000000000000000000000000000000000000000000000000000000000000000000000000000000000000000000000000000000000000000000000000000000000000000000000000000000000000000000000000000000000000000000000000000000000000000000000000000000000000000000000000000000000000000000000000000000000000000000000000000000000000000000000000000000000000000000000000000000000000000000000000000000000000000000",
                    "coinbase" : "0x8888f1f195afa192cfee860698584c030f4c9db1",
                    "difficulty" : "0x00",
                    "extraData" : "0x42",
                    "gasLimit" : "0x2fefd8",
                    "gasUsed" : "0x1f2c04",
                    "hash" : "0x66cd992a83529872fc07b347b7a21ef1b1faf61300c0bac1a435c99d88541787",
                    "mixHash" : "0x0000000000000000000000000000000000000000000000000000000000020000",
                    "nonce" : "0x0000000000000000",
                    "number" : "0x05",
                    "parentHash" : "0xea30c3d18d38ff29d11eeed67dd0e0a7b63fe941cfde441fade8fc5d25294ac0",
                    "receiptTrie" : "0x8a261b9a4d354d2e66cd01db5c2534de5e5ed01a1b101fe2239760322473381d",
                    "stateRoot" : "0xa0225e818a51a9a89d75392e6f357cb9ba436b3793f9aae2d084fde866945b9c",
                    "timestamp" : "0x54c9a009",
                    "transactionsTrie" : "0x430156c8dacbaecbd4bbc852be3ba15980f701e7b875d1ff437d1b53a4f3c0aa",
                    "uncleHash" : "0x1dcc4de8dec75d7aab85b567b6ccd41ad312451b948a7413f0a142fd40d49347"
                },
                "blocknumber" : "5",
                "chainname" : "default",
                "rlp" : "0xf90387f901f8a0ea30c3d18d38ff29d11eeed67dd0e0a7b63fe941cfde441fade8fc5d25294ac0a01dcc4de8dec75d7aab85b567b6ccd41ad312451b948a7413f0a142fd40d49347948888f1f195afa192cfee860698584c030f4c9db1a0a0225e818a51a9a89d75392e6f357cb9ba436b3793f9aae2d084fde866945b9ca0430156c8dacbaecbd4bbc852be3ba15980f701e7b875d1ff437d1b53a4f3c0aaa08a261b9a4d354d2e66cd01db5c2534de5e5ed01a1b101fe2239760322473381db90100000000000000000000000000000000000000000000000000000000000000000000000000000000000000000000000000000000000000000000000000000000000000000000000000000000000000000000000000000000000000000000000000000000000000000000000000000000000000000000000000000000000000000000000000000000000000000000000000000000000000000000000000000000000000000000000000000000000000000000000000000000000000000000000000000000000000000000000000000000000000000000000000000000000000000000000000000000000000000000000000000000000000000000000000000000008005832fefd8831f2c048454c9a00942a000000000000000000000000000000000000000000000000000000000000200008800000000000000000cf90188f8601114830f424094de570000de570000de570000de570000de57000080011ca0aff28ed6d174e1033831c24bc66fd09f5096a184cea924491a7de3d46accc9c3a04a3b53cbfbd9c9d3ee68894d8fc5545c152c1cdca45705acd1f989e15cd1ffd4f8601214830f424094de570000de570000de570000de570000de57000080021ca0d43e761aa6c6ff10e7b59f9a424e73a5da4f552321874d9185e272b5d42882f1a05c49a810681000516ea204422c233a2d5562a520bcb260183cadf8c7691db3e7f8601314830f424094de570000de570000de570000de570000de57000080031ca092cf243f5a469e73f170de717f85b3d1e8cfc722f4f2a6a1e443813677632f32a03372231b9c8fc8c7ce3f5fa5f186ad3aadbb39cfbec002ee5101f635cbc0b39df8601414830f424094de570000de570000de570000de570000de57000080041ba08ba2a54989e1d0c5214b633b2c31159e5bbe296df123f2b64bab723389034a6da06e0cb9e118c2be3aa2964b224d162d8a8f9a79ed51e8796cee773a309497d91dc0",
                "transactions" : [
                    {
                        "data" : "0x01",
                        "gasLimit" : "0x0f4240",
                        "gasPrice" : "0x14",
                        "nonce" : "0x11",
                        "r" : "0xaff28ed6d174e1033831c24bc66fd09f5096a184cea924491a7de3d46accc9c3",
                        "s" : "0x4a3b53cbfbd9c9d3ee68894d8fc5545c152c1cdca45705acd1f989e15cd1ffd4",
                        "sender" : "0xa94f5374fce5edbc8e2a8697c15331677e6ebf0b",
                        "to" : "0xde570000de570000de570000de570000de570000",
                        "v" : "0x1c",
                        "value" : "0x00"
                    },
                    {
                        "data" : "0x02",
                        "gasLimit" : "0x0f4240",
                        "gasPrice" : "0x14",
                        "nonce" : "0x12",
                        "r" : "0xd43e761aa6c6ff10e7b59f9a424e73a5da4f552321874d9185e272b5d42882f1",
                        "s" : "0x5c49a810681000516ea204422c233a2d5562a520bcb260183cadf8c7691db3e7",
                        "sender" : "0xa94f5374fce5edbc8e2a8697c15331677e6ebf0b",
                        "to" : "0xde570000de570000de570000de570000de570000",
                        "v" : "0x1c",
                        "value" : "0x00"
                    },
                    {
                        "data" : "0x03",
                        "gasLimit" : "0x0f4240",
                        "gasPrice" : "0x14",
                        "nonce" : "0x13",
                        "r" : "0x92cf243f5a469e73f170de717f85b3d1e8cfc722f4f2a6a1e443813677632f32",
                        "s" : "0x3372231b9c8fc8c7ce3f5fa5f186ad3aadbb39cfbec002ee5101f635cbc0b39d",
                        "sender" : "0xa94f5374fce5edbc8e2a8697c15331677e6ebf0b",
                        "to" : "0xde570000de570000de570000de570000de570000",
                        "v" : "0x1c",
                        "value" : "0x00"
                    },
                    {
                        "data" : "0x04",
                        "gasLimit" : "0x0f4240",
                        "gasPrice" : "0x14",
                        "nonce" : "0x14",
                        "r" : "0x8ba2a54989e1d0c5214b633b2c31159e5bbe296df123f2b64bab723389034a6d",
                        "s" : "0x6e0cb9e118c2be3aa2964b224d162d8a8f9a79ed51e8796cee773a309497d91d",
                        "sender" : "0xa94f5374fce5edbc8e2a8697c15331677e6ebf0b",
                        "to" : "0xde570000de570000de570000de570000de570000",
                        "v" : "0x1b",
                        "value" : "0x00"
                    }
                ],
                "uncleHeaders" : [
                ]
            },
            {
                "blockHeader" : {
                    "baseFeePerGas" : "0x0d",
                    "bloom" : "0x00000000000000000000000000000000000000000000000000000000000000000000000000000000000000000000000000000000000000000000000000000000000000000000000000000000000000000000000000000000000000000000000000000000000000000000000000000000000000000000000000000000000000000000000000000000000000000000000000000000000000000000000000000000000000000000000000000000000000000000000000000000000000000000000000000000000000000000000000000000000000000000000000000000000000000000000000000000000000000000000000000000000000000000000000000000",
                    "coinbase" : "0x8888f1f195afa192cfee860698584c030f4c9db1",
                    "difficulty" : "0x00",
                    "extraData" : "0x42",
                    "gasLimit" : "0x2fefd8",
                    "gasUsed" : "0x014e5c",
                    "hash" : "0xeff93669d8c1eeb8054c1bb5aa15f29178ea87553c15479602a3ee64c9432882",
                    "mixHash" : "0x0000000000000000000000000000000000000000000000000000000000020000",
                    "nonce" : "0x0000000000000000",
                    "number" : "0x06",
                    "parentHash" : "0x66cd992a83529872fc07b347b7a21ef1b1faf61300c0bac1a435c99d88541787",
                    "receiptTrie" : "0xf82b6bc4e7baf820d5e2f447a23f1d9670a3c9361d42bbfe5a52719e966bfdab",
                    "stateRoot" : "0xa171d0e6294b318ae621c084f57a62f3cb9fc0a01a144b48a8ee2e2659878b29",
                    "timestamp" : "0x54c9a3f1",
                    "transactionsTrie" : "0x95da058c43f466cbc2d716c4cb7b70714c547cf9623dcd2a0eb3b7880dba23af",
                    "uncleHash" : "0x1dcc4de8dec75d7aab85b567b6ccd41ad312451b948a7413f0a142fd40d49347"
                },
                "blocknumber" : "6",
                "chainname" : "default",
                "rlp" : "0xf90387f901f8a066cd992a83529872fc07b347b7a21ef1b1faf61300c0bac1a435c99d88541787a01dcc4de8dec75d7aab85b567b6ccd41ad312451b948a7413f0a142fd40d49347948888f1f195afa192cfee860698584c030f4c9db1a0a171d0e6294b318ae621c084f57a62f3cb9fc0a01a144b48a8ee2e2659878b29a095da058c43f466cbc2d716c4cb7b70714c547cf9623dcd2a0eb3b7880dba23afa0f82b6bc4e7baf820d5e2f447a23f1d9670a3c9361d42bbfe5a52719e966bfdabb90100000000000000000000000000000000000000000000000000000000000000000000000000000000000000000000000000000000000000000000000000000000000000000000000000000000000000000000000000000000000000000000000000000000000000000000000000000000000000000000000000000000000000000000000000000000000000000000000000000000000000000000000000000000000000000000000000000000000000000000000000000000000000000000000000000000000000000000000000000000000000000000000000000000000000000000000000000000000000000000000000000000000000000000000000000000008006832fefd883014e5c8454c9a3f142a000000000000000000000000000000000000000000000000000000000000200008800000000000000000df90188f8601514830f424094de570000de570000de570000de570000de57000080011ba0edec48abc037056dffa56bba11d79f99c9656111a1caaaa836dcef6e9dc2de7ba007a16eeb70883a364606060c86159bbae7982eac56fc51af5a73e1830c23cc04f8601614830f424094de570000de570000de570000de570000de57000080021ba08c8e74820c4729a7e3d7cf63f6d155488f8edce1e76a0ebad15378e93eba55e3a01fac79d5f6df032d24af271a94520488e6917680732561dcd75c05a3e7479ae4f8601714830f424094de570000de570000de570000de570000de57000080031ca01d78c58e07ba1d9348f22a3beb78d8b12cf66d4553d8a42bea10383f1cb4d19fa013fc37e0d738bc1905b23fd1bc2a6499ba47f6433f2f85af976155308747e75ff8601814830f424094de570000de570000de570000de570000de57000080041ca00fbae3aa7b129043fd2c2fd2d963288c6b8653bb5c1a557c1b95f3bfcc1512b3a02d4dc7a5283fbcf36bc2f59eb75b2cd04db8dd32f7d3ccd5051af4eaabf8f4c5c0",
                "transactions" : [
                    {
                        "data" : "0x01",
                        "gasLimit" : "0x0f4240",
                        "gasPrice" : "0x14",
                        "nonce" : "0x15",
                        "r" : "0xedec48abc037056dffa56bba11d79f99c9656111a1caaaa836dcef6e9dc2de7b",
                        "s" : "0x07a16eeb70883a364606060c86159bbae7982eac56fc51af5a73e1830c23cc04",
                        "sender" : "0xa94f5374fce5edbc8e2a8697c15331677e6ebf0b",
                        "to" : "0xde570000de570000de570000de570000de570000",
                        "v" : "0x1b",
                        "value" : "0x00"
                    },
                    {
                        "data" : "0x02",
                        "gasLimit" : "0x0f4240",
                        "gasPrice" : "0x14",
                        "nonce" : "0x16",
                        "r" : "0x8c8e74820c4729a7e3d7cf63f6d155488f8edce1e76a0ebad15378e93eba55e3",
                        "s" : "0x1fac79d5f6df032d24af271a94520488e6917680732561dcd75c05a3e7479ae4",
                        "sender" : "0xa94f5374fce5edbc8e2a8697c15331677e6ebf0b",
                        "to" : "0xde570000de570000de570000de570000de570000",
                        "v" : "0x1b",
                        "value" : "0x00"
                    },
                    {
                        "data" : "0x03",
                        "gasLimit" : "0x0f4240",
                        "gasPrice" : "0x14",
                        "nonce" : "0x17",
                        "r" : "0x1d78c58e07ba1d9348f22a3beb78d8b12cf66d4553d8a42bea10383f1cb4d19f",
                        "s" : "0x13fc37e0d738bc1905b23fd1bc2a6499ba47f6433f2f85af976155308747e75f",
                        "sender" : "0xa94f5374fce5edbc8e2a8697c15331677e6ebf0b",
                        "to" : "0xde570000de570000de570000de570000de570000",
                        "v" : "0x1c",
                        "value" : "0x00"
                    },
                    {
                        "data" : "0x04",
                        "gasLimit" : "0x0f4240",
                        "gasPrice" : "0x14",
                        "nonce" : "0x18",
                        "r" : "0x0fbae3aa7b129043fd2c2fd2d963288c6b8653bb5c1a557c1b95f3bfcc1512b3",
                        "s" : "0x2d4dc7a5283fbcf36bc2f59eb75b2cd04db8dd32f7d3ccd5051af4eaabf8f4c5",
                        "sender" : "0xa94f5374fce5edbc8e2a8697c15331677e6ebf0b",
                        "to" : "0xde570000de570000de570000de570000de570000",
                        "v" : "0x1c",
                        "value" : "0x00"
                    }
                ],
                "uncleHeaders" : [
                ]
            }
        ],
        "genesisBlockHeader" : {
            "baseFeePerGas" : "0x10",
            "bloom" : "0x00000000000000000000000000000000000000000000000000000000000000000000000000000000000000000000000000000000000000000000000000000000000000000000000000000000000000000000000000000000000000000000000000000000000000000000000000000000000000000000000000000000000000000000000000000000000000000000000000000000000000000000000000000000000000000000000000000000000000000000000000000000000000000000000000000000000000000000000000000000000000000000000000000000000000000000000000000000000000000000000000000000000000000000000000000000",
            "coinbase" : "0x8888f1f195afa192cfee860698584c030f4c9db1",
            "difficulty" : "0x00",
            "extraData" : "0x42",
            "gasLimit" : "0x2fefd8",
            "gasUsed" : "0x00",
            "hash" : "0x873330535dc8be4ba7952a8f4d7f0013def67a9835bda22e59f8ab7064373482",
            "mixHash" : "0x0000000000000000000000000000000000000000000000000000000000020000",
            "nonce" : "0x0000000000000000",
            "number" : "0x00",
            "parentHash" : "0x0000000000000000000000000000000000000000000000000000000000000000",
            "receiptTrie" : "0x56e81f171bcc55a6ff8345e692c0f86e5b48e01b996cadc001622fb5e363b421",
            "stateRoot" : "0x73b409b6dfacad438402ff633583e77355b3259f83f26e9a384a53e71735fd2c",
            "timestamp" : "0x54c98c81",
            "transactionsTrie" : "0x56e81f171bcc55a6ff8345e692c0f86e5b48e01b996cadc001622fb5e363b421",
            "uncleHash" : "0x1dcc4de8dec75d7aab85b567b6ccd41ad312451b948a7413f0a142fd40d49347"
        },
        "genesisRLP" : "0xf901faf901f5a00000000000000000000000000000000000000000000000000000000000000000a01dcc4de8dec75d7aab85b567b6ccd41ad312451b948a7413f0a142fd40d49347948888f1f195afa192cfee860698584c030f4c9db1a073b409b6dfacad438402ff633583e77355b3259f83f26e9a384a53e71735fd2ca056e81f171bcc55a6ff8345e692c0f86e5b48e01b996cadc001622fb5e363b421a056e81f171bcc55a6ff8345e692c0f86e5b48e01b996cadc001622fb5e363b421b90100000000000000000000000000000000000000000000000000000000000000000000000000000000000000000000000000000000000000000000000000000000000000000000000000000000000000000000000000000000000000000000000000000000000000000000000000000000000000000000000000000000000000000000000000000000000000000000000000000000000000000000000000000000000000000000000000000000000000000000000000000000000000000000000000000000000000000000000000000000000000000000000000000000000000000000000000000000000000000000000000000000000000000000000000000000008080832fefd8808454c98c8142a0000000000000000000000000000000000000000000000000000000000002000088000000000000000010c0c0",
        "lastblockhash" : "0xeff93669d8c1eeb8054c1bb5aa15f29178ea87553c15479602a3ee64c9432882",
        "network" : "Merge+1153",
        "postState" : {
            "0x8888f1f195afa192cfee860698584c030f4c9db1" : {
                "balance" : "0x0236714a",
                "code" : "0x",
                "nonce" : "0x00",
                "storage" : {
                }
            },
            "0xa94f5374fce5edbc8e2a8697c15331677e6ebf0b" : {
                "balance" : "0x024ec4ad10",
                "code" : "0x",
                "nonce" : "0x19",
                "storage" : {
                }
            },
            "0xd02d72e067e77158444ef2020ff2d325f929b363" : {
                "balance" : "0x00",
                "code" : "0x",
                "nonce" : "0x00",
                "storage" : {
                }
            },
            "0xde570000de570000de570000de570000de570000" : {
                "balance" : "0x00",
                "code" : "0x6015565b600081b39050919050565b8181b45050565b60003560001a4360038214600183141715603a57603160006003565b60108202830155005b604561beef6000600e565b80600181146074576002811460765760038114607c576004811460825760058114608457600681146091576093565b005b60206000f35b60206000fd5bfe5b61beef63b160b160526093565b005b505050",
                "nonce" : "0x01",
                "storage" : {
                }
            }
        },
        "pre" : {
            "0xa94f5374fce5edbc8e2a8697c15331677e6ebf0b" : {
                "balance" : "0x02540be400",
                "code" : "0x",
                "nonce" : "0x01",
                "storage" : {
                }
            },
            "0xd02d72e067e77158444ef2020ff2d325f929b363" : {
                "balance" : "0x00",
                "code" : "0x",
                "nonce" : "0x00",
                "storage" : {
                }
            },
            "0xde570000de570000de570000de570000de570000" : {
                "balance" : "0x00",
                "code" : "0x6015565b600081b39050919050565b8181b45050565b60003560001a4360038214600183141715603a57603160006003565b60108202830155005b604561beef6000600e565b80600181146074576002811460765760038114607c576004811460825760058114608457600681146091576093565b005b60206000f35b60206000fd5bfe5b61beef63b160b160526093565b005b505050",
                "nonce" : "0x01",
                "storage" : {
                    "0x11" : "0x60a7",
                    "0x13" : "0x60a7",
                    "0x21" : "0x60a7",
                    "0x23" : "0x60a7",
                    "0x31" : "0x60a7",
                    "0x33" : "0x60a7",
                    "0x41" : "0x60a7",
                    "0x43" : "0x60a7",
                    "0x51" : "0x60a7",
                    "0x53" : "0x60a7",
                    "0x61" : "0x60a7",
                    "0x63" : "0x60a7"
                }
            }
        },
        "sealEngine" : "NoProof"
    }
}