{
    "201503110226PYTHON_DUP6" : {
        "_info" : {
            "comment" : "This test used to be a VM test and it once failed in python client some day.  Since the test contains a BALANCE instruction (which must be mocked), it's moved to GeneralSateTest https://github.com/ethereum/tests/pull/445/files#r179426325",
            "filling-rpc-server" : "evm version 1.13.13-unstable-034bc466-20240219",
            "filling-tool-version" : "retesteth-0.3.2-cancun+commit.014a68a5.Linux.g++",
            "generatedTestHash" : "336eae33f9bd699ddea419aabe0b12ce4a24f2da33397b576905c974872398f9",
            "lllcversion" : "Version: 0.5.14-develop.2023.7.11+commit.c58ab2c6.mod.Linux.g++",
            "solidity" : "Version: 0.8.21+commit.d9974bed.Linux.g++",
            "source" : "src/GeneralStateTestsFiller/stRandom2/201503110226PYTHON_DUP6Filler.json",
            "sourceHash" : "b8a87ae07deb6d3da0d35cb19b1acd1b6dbfa792004c1cf0761a56945a33f150"
        },
        "env" : {
            "currentBaseFee" : "0x0a",
            "currentCoinbase" : "0x2adc25665018aa1fe0e6bc666dac8fc2697ff9ba",
            "currentDifficulty" : "0x020000",
            "currentExcessBlobGas" : "0x00",
            "currentGasLimit" : "0x038d7ea4c68000",
            "currentNumber" : "0x01",
            "currentRandom" : "0x0000000000000000000000000000000000000000000000000000000000020000",
            "currentTimestamp" : "0x03e8"
        },
        "post" : {
            "Berlin" : [
                {
                    "hash" : "0xa13e79b7280dae302e1e53351149fbfada39f868f40d126dce11eddaadd60590",
                    "indexes" : {
                        "data" : 0,
                        "gas" : 0,
                        "value" : 0
                    },
                    "logs" : "0x1dcc4de8dec75d7aab85b567b6ccd41ad312451b948a7413f0a142fd40d49347",
                    "txbytes" : "0xf86e80865af3107a4000830186a0940f572e5295c57f15886f9b263e2f6d2d6c7b5ec6880de0b6b3a7640000801ba095e48b6cdb342026b8bf5c3fa3eacf4044e3c1f6865edc2f2fe471a4dfa00cafa07dc3ff02760c8839631cdbcb9ac82f7322a6e28f3b8ab5f5ecaaec983425cf20"
                }
            ],
            "Cancun" : [
                {
                    "hash" : "0xcc10af879d204d71aa0cfc06dd4e7895b145320713039986a9224446e446e0df",
                    "indexes" : {
                        "data" : 0,
                        "gas" : 0,
                        "value" : 0
                    },
                    "logs" : "0x1dcc4de8dec75d7aab85b567b6ccd41ad312451b948a7413f0a142fd40d49347",
                    "txbytes" : "0xf86e80865af3107a4000830186a0940f572e5295c57f15886f9b263e2f6d2d6c7b5ec6880de0b6b3a7640000801ba095e48b6cdb342026b8bf5c3fa3eacf4044e3c1f6865edc2f2fe471a4dfa00cafa07dc3ff02760c8839631cdbcb9ac82f7322a6e28f3b8ab5f5ecaaec983425cf20"
                }
            ],
            "Istanbul" : [
                {
                    "hash" : "0xa13e79b7280dae302e1e53351149fbfada39f868f40d126dce11eddaadd60590",
                    "indexes" : {
                        "data" : 0,
                        "gas" : 0,
                        "value" : 0
                    },
                    "logs" : "0x1dcc4de8dec75d7aab85b567b6ccd41ad312451b948a7413f0a142fd40d49347",
                    "txbytes" : "0xf86e80865af3107a4000830186a0940f572e5295c57f15886f9b263e2f6d2d6c7b5ec6880de0b6b3a7640000801ba095e48b6cdb342026b8bf5c3fa3eacf4044e3c1f6865edc2f2fe471a4dfa00cafa07dc3ff02760c8839631cdbcb9ac82f7322a6e28f3b8ab5f5ecaaec983425cf20"
                }
            ],
            "London" : [
                {
                    "hash" : "0x0f86d4780f28d63e15cd0a620d3d78d0f481d3d54a4d47cbc4c9060934706466",
                    "indexes" : {
                        "data" : 0,
                        "gas" : 0,
                        "value" : 0
                    },
                    "logs" : "0x1dcc4de8dec75d7aab85b567b6ccd41ad312451b948a7413f0a142fd40d49347",
                    "txbytes" : "0xf86e80865af3107a4000830186a0940f572e5295c57f15886f9b263e2f6d2d6c7b5ec6880de0b6b3a7640000801ba095e48b6cdb342026b8bf5c3fa3eacf4044e3c1f6865edc2f2fe471a4dfa00cafa07dc3ff02760c8839631cdbcb9ac82f7322a6e28f3b8ab5f5ecaaec983425cf20"
                }
            ],
            "Paris" : [
                {
                    "hash" : "0x0f86d4780f28d63e15cd0a620d3d78d0f481d3d54a4d47cbc4c9060934706466",
                    "indexes" : {
                        "data" : 0,
                        "gas" : 0,
                        "value" : 0
                    },
                    "logs" : "0x1dcc4de8dec75d7aab85b567b6ccd41ad312451b948a7413f0a142fd40d49347",
                    "txbytes" : "0xf86e80865af3107a4000830186a0940f572e5295c57f15886f9b263e2f6d2d6c7b5ec6880de0b6b3a7640000801ba095e48b6cdb342026b8bf5c3fa3eacf4044e3c1f6865edc2f2fe471a4dfa00cafa07dc3ff02760c8839631cdbcb9ac82f7322a6e28f3b8ab5f5ecaaec983425cf20"
                }
            ],
            "Shanghai" : [
                {
                    "hash" : "0x0f86d4780f28d63e15cd0a620d3d78d0f481d3d54a4d47cbc4c9060934706466",
                    "indexes" : {
                        "data" : 0,
                        "gas" : 0,
                        "value" : 0
                    },
                    "logs" : "0x1dcc4de8dec75d7aab85b567b6ccd41ad312451b948a7413f0a142fd40d49347",
                    "txbytes" : "0xf86e80865af3107a4000830186a0940f572e5295c57f15886f9b263e2f6d2d6c7b5ec6880de0b6b3a7640000801ba095e48b6cdb342026b8bf5c3fa3eacf4044e3c1f6865edc2f2fe471a4dfa00cafa07dc3ff02760c8839631cdbcb9ac82f7322a6e28f3b8ab5f5ecaaec983425cf20"
                }
            ]
        },
        "pre" : {
            "0x000f3df6d732807ef1319fb7b8bb8522d0beac02" : {
                "balance" : "0x00",
                "code" : "0x3373fffffffffffffffffffffffffffffffffffffffe14604d57602036146024575f5ffd5b5f35801560495762001fff810690815414603c575f5ffd5b62001fff01545f5260205ff35b5f5ffd5b62001fff42064281555f359062001fff015500",
                "nonce" : "0x01",
                "storage" : {
                }
            },
            "0x0f572e5295c57f15886f9b263e2f6d2d6c7b5ec6" : {
                "balance" : "0x0de0b6b3a7640000",
                "code" : "0x45414443434042405b85",
                "nonce" : "0x00",
                "storage" : {
                }
            },
            "0xa94f5374fce5edbc8e2a8697c15331677e6ebf0b" : {
                "balance" : "0x1038beec8feeca2598",
                "code" : "0x",
                "nonce" : "0x00",
                "storage" : {
                }
            }
        },
        "transaction" : {
            "data" : [
                "0x"
            ],
            "gasLimit" : [
                "0x0186a0"
            ],
            "gasPrice" : "0x5af3107a4000",
            "nonce" : "0x00",
            "secretKey" : "0x45a915e4d060149eb4365960e6a7a45f334393093061116b197e3240065ff2d8",
            "sender" : "0xa94f5374fce5edbc8e2a8697c15331677e6ebf0b",
            "to" : "0x0f572e5295c57f15886f9b263e2f6d2d6c7b5ec6",
            "value" : [
                "0x0de0b6b3a7640000"
            ]
        }
    }
}