{
    "randomStatetest648" : {
        "_info" : {
            "comment" : "Consensus issue test produced by fuzz testing team 00000005-storagefuzz-1",
            "filling-rpc-server" : "evm version 1.10.2-unstable-22082f9e-20210309",
            "filling-tool-version" : "retesteth-0.1.0-accesslist+commit.93b2675e.Linux.g++",
            "lllcversion" : "Version: 0.5.14-develop.2021.3.9+commit.14c9d5de.Linux.g++",
            "source" : "src/GeneralStateTestsFiller/stRandom2/randomStatetest648Filler.json",
            "sourceHash" : "483507794c6ea042e4dce46c1b2f8443105f1dfb755c07bb586fbb6ee90c9add"
        },
        "env" : {
            "currentCoinbase" : "0xb94f5374fce5edbc8e2a8697c15331677e6ebf0b",
            "currentDifficulty" : "0x020000",
            "currentGasLimit" : "0x26e1f476fe1e22",
            "currentNumber" : "0x01",
            "currentTimestamp" : "0x03e8",
            "previousHash" : "0x5e20a0453cecd065ea59c37ac63e079ee08998b6045136a8ce6635c7912ec0b6"
        },
        "post" : {
            "Berlin" : [
                {
                    "indexes" : {
                        "data" : 0,
                        "gas" : 0,
                        "value" : 0
                    },
                    "hash" : "0x23f905e1aa2c79aab581b339b756324028bd0b36975e28d047e88a6b99b3d035",
                    "txbytes" : "0xf8c3800183053dad9400000000000000000000000000000000000000f183db2206b85f384c289327fda733f319011b605929b98b6cc52e4915c942369264c71a3ca70ebce56fef7e41103f1acc71e91f299bf6c5730b265d6f9d475936735ea60c58b9bb125a78178171784759606d696e98f8522b52fe213edee397b3df6ca9f0c61ba0ccd3a822d2211a099272807e85a18e036de7e49ff7a44bf9ffdeeecd55225db8a02c896e9fff62e7e6d56b87962a7b588e4efddc3f08b469109653688dd275bfbe",
                    "logs" : "0x1dcc4de8dec75d7aab85b567b6ccd41ad312451b948a7413f0a142fd40d49347"
                }
            ],
            "Istanbul" : [
                {
                    "indexes" : {
                        "data" : 0,
                        "gas" : 0,
                        "value" : 0
                    },
                    "hash" : "0x23f905e1aa2c79aab581b339b756324028bd0b36975e28d047e88a6b99b3d035",
                    "txbytes" : "0xf8c3800183053dad9400000000000000000000000000000000000000f183db2206b85f384c289327fda733f319011b605929b98b6cc52e4915c942369264c71a3ca70ebce56fef7e41103f1acc71e91f299bf6c5730b265d6f9d475936735ea60c58b9bb125a78178171784759606d696e98f8522b52fe213edee397b3df6ca9f0c61ba0ccd3a822d2211a099272807e85a18e036de7e49ff7a44bf9ffdeeecd55225db8a02c896e9fff62e7e6d56b87962a7b588e4efddc3f08b469109653688dd275bfbe",
                    "logs" : "0x1dcc4de8dec75d7aab85b567b6ccd41ad312451b948a7413f0a142fd40d49347"
                }
            ]
        },
        "pre" : {
            "0x00000000000000000000000000000000000000f1" : {
                "balance" : "0x00",
                "code" : "0x600060006000600060f15af450600060005060f5fffd",
                "nonce" : "0x00",
                "storage" : {
                }
            },
            "0x00000000000000000000000000000000000000f5" : {
                "balance" : "0x00",
                "code" : "0x600050",
                "nonce" : "0x00",
                "storage" : {
                }
            },
            "0xa94f5374fce5edbc8e2a8697c15331677e6ebf0b" : {
                "balance" : "0xffffffff",
                "code" : "0x",
                "nonce" : "0x00",
                "storage" : {
                }
            }
        },
        "transaction" : {
            "data" : [
                "0x384c289327fda733f319011b605929b98b6cc52e4915c942369264c71a3ca70ebce56fef7e41103f1acc71e91f299bf6c5730b265d6f9d475936735ea60c58b9bb125a78178171784759606d696e98f8522b52fe213edee397b3df6ca9f0c6"
            ],
            "gasLimit" : [
                "0x053dad"
            ],
            "gasPrice" : "0x01",
            "nonce" : "0x00",
            "secretKey" : "0x45a915e4d060149eb4365960e6a7a45f334393093061116b197e3240065ff2d8",
            "to" : "0x00000000000000000000000000000000000000f1",
            "value" : [
                "0xdb2206"
            ]
        }
    }
}