{
    "randomStatetest506" : {
        "_info" : {
            "comment" : "",
            "filling-rpc-server" : "evm version 1.11.4-unstable-e14043db-20230308",
            "filling-tool-version" : "retesteth-0.3.0-shanghai+commit.fd2c0a83.Linux.g++",
            "generatedTestHash" : "fc35c3997ddc2f904908b465a2921b1dae17122a1bb4f3f728426f93996e0685",
            "lllcversion" : "Version: 0.5.14-develop.2022.7.30+commit.a096d7a9.Linux.g++",
            "solidity" : "Version: 0.8.17+commit.8df45f5f.Linux.g++",
            "source" : "src/GeneralStateTestsFiller/stRandom2/randomStatetest506Filler.json",
            "sourceHash" : "f6b19311ff7168d969f82d001c774697e62596984dfb088ea41216be72b06823"
        },
        "env" : {
            "currentBaseFee" : "0x0a",
            "currentCoinbase" : "0x945304eb96065b2a98b57a48a06ae28d285a71b5",
            "currentDifficulty" : "0x020000",
            "currentGasLimit" : "0x7fffffffffffffff",
            "currentNumber" : "0x01",
            "currentRandom" : "0x0000000000000000000000000000000000000000000000000000000000020000",
            "currentTimestamp" : "0x03e8",
            "previousHash" : "0x5e20a0453cecd065ea59c37ac63e079ee08998b6045136a8ce6635c7912ec0b6"
        },
        "post" : {
            "Berlin" : [
                {
                    "hash" : "0xcd1ace1d437d81588b8ffcb5884e4c6c675e128b3b481502c01599ddfa76ae80",
                    "indexes" : {
                        "data" : 0,
                        "gas" : 0,
                        "value" : 0
                    },
                    "logs" : "0x1dcc4de8dec75d7aab85b567b6ccd41ad312451b948a7413f0a142fd40d49347",
                    "txbytes" : "0xf9013b800a847aa74d6294095e7baea6a6c7c4c2dfeb977efac326af552d87843879dac6b8d57fffffffffffffffffffffffffffffffffffffffffffffffffffffffffffffffff7f000000000000000000000000945304eb96065b2a98b57a48a06ae28d285a71b57f000000000000000000000000000000000000000000000000000000000000c3507f000000000000000000000000000000000000000000000000000000000000000042377f000000000000000000000000ffffffffffffffffffffffffffffffffffffffff7f00000000000000000000000100000000000000000000000000000000000000006ba218f370862059149e3cff201ca024a79453fb48f422e2a0a4841159a07b7ee02257c609dd3ff32ed3bf2393eb01a039ff72e6b2d123577f0bb70a4538382a4e8b999e63d21804daab82a167fe03c0"
                }
            ],
            "Istanbul" : [
                {
                    "hash" : "0xf941dda33ae6db9f16fc39a357b7566c32cb2851c7f1e261a335864132d1f357",
                    "indexes" : {
                        "data" : 0,
                        "gas" : 0,
                        "value" : 0
                    },
                    "logs" : "0x1dcc4de8dec75d7aab85b567b6ccd41ad312451b948a7413f0a142fd40d49347",
                    "txbytes" : "0xf9013b800a847aa74d6294095e7baea6a6c7c4c2dfeb977efac326af552d87843879dac6b8d57fffffffffffffffffffffffffffffffffffffffffffffffffffffffffffffffff7f000000000000000000000000945304eb96065b2a98b57a48a06ae28d285a71b57f000000000000000000000000000000000000000000000000000000000000c3507f000000000000000000000000000000000000000000000000000000000000000042377f000000000000000000000000ffffffffffffffffffffffffffffffffffffffff7f00000000000000000000000100000000000000000000000000000000000000006ba218f370862059149e3cff201ca024a79453fb48f422e2a0a4841159a07b7ee02257c609dd3ff32ed3bf2393eb01a039ff72e6b2d123577f0bb70a4538382a4e8b999e63d21804daab82a167fe03c0"
                }
            ],
            "London" : [
                {
                    "hash" : "0x379069f785aad1cc551e631f31438cc22b4d470253e32ad39eacb001a41fcda1",
                    "indexes" : {
                        "data" : 0,
                        "gas" : 0,
                        "value" : 0
                    },
                    "logs" : "0x1dcc4de8dec75d7aab85b567b6ccd41ad312451b948a7413f0a142fd40d49347",
                    "txbytes" : "0xf9013b800a847aa74d6294095e7baea6a6c7c4c2dfeb977efac326af552d87843879dac6b8d57fffffffffffffffffffffffffffffffffffffffffffffffffffffffffffffffff7f000000000000000000000000945304eb96065b2a98b57a48a06ae28d285a71b57f000000000000000000000000000000000000000000000000000000000000c3507f000000000000000000000000000000000000000000000000000000000000000042377f000000000000000000000000ffffffffffffffffffffffffffffffffffffffff7f00000000000000000000000100000000000000000000000000000000000000006ba218f370862059149e3cff201ca024a79453fb48f422e2a0a4841159a07b7ee02257c609dd3ff32ed3bf2393eb01a039ff72e6b2d123577f0bb70a4538382a4e8b999e63d21804daab82a167fe03c0"
                }
            ],
            "Merge" : [
                {
                    "hash" : "0x379069f785aad1cc551e631f31438cc22b4d470253e32ad39eacb001a41fcda1",
                    "indexes" : {
                        "data" : 0,
                        "gas" : 0,
                        "value" : 0
                    },
                    "logs" : "0x1dcc4de8dec75d7aab85b567b6ccd41ad312451b948a7413f0a142fd40d49347",
                    "txbytes" : "0xf9013b800a847aa74d6294095e7baea6a6c7c4c2dfeb977efac326af552d87843879dac6b8d57fffffffffffffffffffffffffffffffffffffffffffffffffffffffffffffffff7f000000000000000000000000945304eb96065b2a98b57a48a06ae28d285a71b57f000000000000000000000000000000000000000000000000000000000000c3507f000000000000000000000000000000000000000000000000000000000000000042377f000000000000000000000000ffffffffffffffffffffffffffffffffffffffff7f00000000000000000000000100000000000000000000000000000000000000006ba218f370862059149e3cff201ca024a79453fb48f422e2a0a4841159a07b7ee02257c609dd3ff32ed3bf2393eb01a039ff72e6b2d123577f0bb70a4538382a4e8b999e63d21804daab82a167fe03c0"
                }
            ],
            "Shanghai" : [
                {
                    "hash" : "0x379069f785aad1cc551e631f31438cc22b4d470253e32ad39eacb001a41fcda1",
                    "indexes" : {
                        "data" : 0,
                        "gas" : 0,
                        "value" : 0
                    },
                    "logs" : "0x1dcc4de8dec75d7aab85b567b6ccd41ad312451b948a7413f0a142fd40d49347",
                    "txbytes" : "0xf9013b800a847aa74d6294095e7baea6a6c7c4c2dfeb977efac326af552d87843879dac6b8d57fffffffffffffffffffffffffffffffffffffffffffffffffffffffffffffffff7f000000000000000000000000945304eb96065b2a98b57a48a06ae28d285a71b57f000000000000000000000000000000000000000000000000000000000000c3507f000000000000000000000000000000000000000000000000000000000000000042377f000000000000000000000000ffffffffffffffffffffffffffffffffffffffff7f00000000000000000000000100000000000000000000000000000000000000006ba218f370862059149e3cff201ca024a79453fb48f422e2a0a4841159a07b7ee02257c609dd3ff32ed3bf2393eb01a039ff72e6b2d123577f0bb70a4538382a4e8b999e63d21804daab82a167fe03c0"
                }
            ]
        },
        "pre" : {
            "0x095e7baea6a6c7c4c2dfeb977efac326af552d87" : {
                "balance" : "0x00",
                "code" : "0x7fffffffffffffffffffffffffffffffffffffffffffffffffffffffffffffffff7f000000000000000000000000945304eb96065b2a98b57a48a06ae28d285a71b57f000000000000000000000000000000000000000000000000000000000000c3507f000000000000000000000000000000000000000000000000000000000000000042377f000000000000000000000000ffffffffffffffffffffffffffffffffffffffff7f00000000000000000000000100000000000000000000000000000000000000006ba218f370862059149e3cff2060005155",
                "nonce" : "0x00",
                "storage" : {
                }
            },
            "0x945304eb96065b2a98b57a48a06ae28d285a71b5" : {
                "balance" : "0x2e",
                "code" : "0x6000355415600957005b60203560003555",
                "nonce" : "0x00",
                "storage" : {
                }
            },
            "0xa94f5374fce5edbc8e2a8697c15331677e6ebf0b" : {
                "balance" : "0x0de0b6b3a7640000",
                "code" : "0x",
                "nonce" : "0x00",
                "storage" : {
                }
            }
        },
        "transaction" : {
            "data" : [
                "0x7fffffffffffffffffffffffffffffffffffffffffffffffffffffffffffffffff7f000000000000000000000000945304eb96065b2a98b57a48a06ae28d285a71b57f000000000000000000000000000000000000000000000000000000000000c3507f000000000000000000000000000000000000000000000000000000000000000042377f000000000000000000000000ffffffffffffffffffffffffffffffffffffffff7f00000000000000000000000100000000000000000000000000000000000000006ba218f370862059149e3cff20"
            ],
            "gasLimit" : [
                "0x7aa74d62"
            ],
            "gasPrice" : "0x0a",
            "nonce" : "0x00",
            "secretKey" : "0x45a915e4d060149eb4365960e6a7a45f334393093061116b197e3240065ff2d8",
            "sender" : "0xa94f5374fce5edbc8e2a8697c15331677e6ebf0b",
            "to" : "0x095e7baea6a6c7c4c2dfeb977efac326af552d87",
            "value" : [
                "0x3879dac6"
            ]
        }
    }
}