{
    "randomStatetest647" : {
        "_info" : {
            "comment" : "Malicious bytecode found by fuzztest tool: returndatacopy(0,-1)",
            "filling-rpc-server" : "evm version 1.10.2-unstable-22082f9e-20210309",
            "filling-tool-version" : "retesteth-0.1.0-accesslist+commit.47c69eb3.Linux.g++",
            "lllcversion" : "Version: 0.5.14-develop.2020.6.22+commit.9189ad7a.Linux.g++",
            "source" : "src/GeneralStateTestsFiller/stRandom2/randomStatetest647Filler.json",
            "sourceHash" : "7fe7b8c9a2a8eda1f4c979836b2d6e52c5239ac088b946862859feceda7bb29e"
        },
        "env" : {
            "currentCoinbase" : "0xd94f5374fce5edbc8e2a8697c15331677e6ebf0b",
            "currentDifficulty" : "0x020000",
            "currentGasLimit" : "0x42fe8c95373ea1",
            "currentNumber" : "0x01",
            "currentTimestamp" : "0x03e8",
            "previousHash" : "0xb9cdadfa4eb6b43788795e580e7cb36b4c85348412173e7bb3b9e7e954f7949f"
        },
        "post" : {
            "Berlin" : [
                {
                    "indexes" : {
                        "data" : 0,
                        "gas" : 0,
                        "value" : 0
                    },
                    "hash" : "0x608b059b4f2e5517a3f633e9376b656d476e66063c86d71072491d518eea8e84",
                    "txbytes" : "0xf860800183584d3194c94f5374fce5edbc8e2a8697c15331677e6ebf0b80801ba0b8b4255ee0ebbc999fd83d5247c119f9c089e9a2ce40d52b234288fd77856839a0362d599ccebcbc12dae17e88f74e55df047a99916bc7b4e164f203ba7c1106ef",
                    "logs" : "0x1dcc4de8dec75d7aab85b567b6ccd41ad312451b948a7413f0a142fd40d49347"
                }
            ],
            "Istanbul" : [
                {
                    "indexes" : {
                        "data" : 0,
                        "gas" : 0,
                        "value" : 0
                    },
                    "hash" : "0x608b059b4f2e5517a3f633e9376b656d476e66063c86d71072491d518eea8e84",
                    "txbytes" : "0xf860800183584d3194c94f5374fce5edbc8e2a8697c15331677e6ebf0b80801ba0b8b4255ee0ebbc999fd83d5247c119f9c089e9a2ce40d52b234288fd77856839a0362d599ccebcbc12dae17e88f74e55df047a99916bc7b4e164f203ba7c1106ef",
                    "logs" : "0x1dcc4de8dec75d7aab85b567b6ccd41ad312451b948a7413f0a142fd40d49347"
                }
            ]
        },
        "pre" : {
            "0xa94f5374fce5edbc8e2a8697c15331677e6ebf0b" : {
                "balance" : "0x3b9aca00",
                "code" : "0x",
                "nonce" : "0x00",
                "storage" : {
                }
            },
            "0xc94f5374fce5edbc8e2a8697c15331677e6ebf0b" : {
                "balance" : "0x00",
                "code" : "0x6001600160000360003e00",
                "nonce" : "0x07",
                "storage" : {
                }
            }
        },
        "transaction" : {
            "data" : [
                "0x"
            ],
            "gasLimit" : [
                "0x584d31"
            ],
            "gasPrice" : "0x01",
            "nonce" : "0x00",
            "secretKey" : "0x45a915e4d060149eb4365960e6a7a45f334393093061116b197e3240065ff2d8",
            "to" : "0xc94f5374fce5edbc8e2a8697c15331677e6ebf0b",
            "value" : [
                "0x00"
            ]
        }
    }
}