{
    "randomStatetest466" : {
        "_info" : {
            "comment" : "",
            "filling-rpc-server" : "evm version 1.11.4-unstable-e14043db-20230308",
            "filling-tool-version" : "retesteth-0.3.0-shanghai+commit.fd2c0a83.Linux.g++",
            "generatedTestHash" : "5f900ebffa94b66b0753f60bbd57e5ee9c26bddf09f4ca064c22e9491ddfef32",
            "lllcversion" : "Version: 0.5.14-develop.2022.7.30+commit.a096d7a9.Linux.g++",
            "solidity" : "Version: 0.8.17+commit.8df45f5f.Linux.g++",
            "source" : "src/GeneralStateTestsFiller/stRandom2/randomStatetest466Filler.json",
            "sourceHash" : "6a4a133f0577b0f6553ada2dc96016eb89c513b3a5db11f4fd7f80f334138d48"
        },
        "env" : {
            "currentBaseFee" : "0x0a",
            "currentCoinbase" : "0x945304eb96065b2a98b57a48a06ae28d285a71b5",
            "currentDifficulty" : "0x020000",
            "currentGasLimit" : "0x7fffffffffffffff",
            "currentNumber" : "0x01",
            "currentRandom" : "0x0000000000000000000000000000000000000000000000000000000000020000",
            "currentTimestamp" : "0x03e8",
            "previousHash" : "0x5e20a0453cecd065ea59c37ac63e079ee08998b6045136a8ce6635c7912ec0b6"
        },
        "post" : {
            "Berlin" : [
                {
                    "hash" : "0x4ce80f01bfb35726392306635b14bbe4c5357b4ce37b879c5ac7d8835b9aa82c",
                    "indexes" : {
                        "data" : 0,
                        "gas" : 0,
                        "value" : 0
                    },
                    "logs" : "0x1dcc4de8dec75d7aab85b567b6ccd41ad312451b948a7413f0a142fd40d49347",
                    "txbytes" : "0xf8ce800a83d9acdb94095e7baea6a6c7c4c2dfeb977efac326af552d87846ac01f3ab8697ffffffffffffffffffffffffffffffffffffffffffffffffffffffffffffffffe7ffffffffffffffffffffffffffffffffffffffffffffffffffffffffffffffffe7f000000000000000000000000ffffffffffffffffffffffffffffffffffffffff4244904244041ca0df29184c10a82323e0bfb87b9d4428c91c70c2ffff549831547c1cd85811d05aa05056a353a81a6d6d322e6aaadd0605f7cadcc2586f27760d2e4fe2daf113b821"
                }
            ],
            "Istanbul" : [
                {
                    "hash" : "0xd1819783eb73a1be39e2b76ad18cfd1c0e9732bbff7edc5d190967054a0e2879",
                    "indexes" : {
                        "data" : 0,
                        "gas" : 0,
                        "value" : 0
                    },
                    "logs" : "0x1dcc4de8dec75d7aab85b567b6ccd41ad312451b948a7413f0a142fd40d49347",
                    "txbytes" : "0xf8ce800a83d9acdb94095e7baea6a6c7c4c2dfeb977efac326af552d87846ac01f3ab8697ffffffffffffffffffffffffffffffffffffffffffffffffffffffffffffffffe7ffffffffffffffffffffffffffffffffffffffffffffffffffffffffffffffffe7f000000000000000000000000ffffffffffffffffffffffffffffffffffffffff4244904244041ca0df29184c10a82323e0bfb87b9d4428c91c70c2ffff549831547c1cd85811d05aa05056a353a81a6d6d322e6aaadd0605f7cadcc2586f27760d2e4fe2daf113b821"
                }
            ],
            "London" : [
                {
                    "hash" : "0xa63d8134a09b95b0b1156a6cd01e8abb493497ecb17d7a02667d11313e52fada",
                    "indexes" : {
                        "data" : 0,
                        "gas" : 0,
                        "value" : 0
                    },
                    "logs" : "0x1dcc4de8dec75d7aab85b567b6ccd41ad312451b948a7413f0a142fd40d49347",
                    "txbytes" : "0xf8ce800a83d9acdb94095e7baea6a6c7c4c2dfeb977efac326af552d87846ac01f3ab8697ffffffffffffffffffffffffffffffffffffffffffffffffffffffffffffffffe7ffffffffffffffffffffffffffffffffffffffffffffffffffffffffffffffffe7f000000000000000000000000ffffffffffffffffffffffffffffffffffffffff4244904244041ca0df29184c10a82323e0bfb87b9d4428c91c70c2ffff549831547c1cd85811d05aa05056a353a81a6d6d322e6aaadd0605f7cadcc2586f27760d2e4fe2daf113b821"
                }
            ],
            "Merge" : [
                {
                    "hash" : "0xa63d8134a09b95b0b1156a6cd01e8abb493497ecb17d7a02667d11313e52fada",
                    "indexes" : {
                        "data" : 0,
                        "gas" : 0,
                        "value" : 0
                    },
                    "logs" : "0x1dcc4de8dec75d7aab85b567b6ccd41ad312451b948a7413f0a142fd40d49347",
                    "txbytes" : "0xf8ce800a83d9acdb94095e7baea6a6c7c4c2dfeb977efac326af552d87846ac01f3ab8697ffffffffffffffffffffffffffffffffffffffffffffffffffffffffffffffffe7ffffffffffffffffffffffffffffffffffffffffffffffffffffffffffffffffe7f000000000000000000000000ffffffffffffffffffffffffffffffffffffffff4244904244041ca0df29184c10a82323e0bfb87b9d4428c91c70c2ffff549831547c1cd85811d05aa05056a353a81a6d6d322e6aaadd0605f7cadcc2586f27760d2e4fe2daf113b821"
                }
            ],
            "Shanghai" : [
                {
                    "hash" : "0xa63d8134a09b95b0b1156a6cd01e8abb493497ecb17d7a02667d11313e52fada",
                    "indexes" : {
                        "data" : 0,
                        "gas" : 0,
                        "value" : 0
                    },
                    "logs" : "0x1dcc4de8dec75d7aab85b567b6ccd41ad312451b948a7413f0a142fd40d49347",
                    "txbytes" : "0xf8ce800a83d9acdb94095e7baea6a6c7c4c2dfeb977efac326af552d87846ac01f3ab8697ffffffffffffffffffffffffffffffffffffffffffffffffffffffffffffffffe7ffffffffffffffffffffffffffffffffffffffffffffffffffffffffffffffffe7f000000000000000000000000ffffffffffffffffffffffffffffffffffffffff4244904244041ca0df29184c10a82323e0bfb87b9d4428c91c70c2ffff549831547c1cd85811d05aa05056a353a81a6d6d322e6aaadd0605f7cadcc2586f27760d2e4fe2daf113b821"
                }
            ]
        },
        "pre" : {
            "0x095e7baea6a6c7c4c2dfeb977efac326af552d87" : {
                "balance" : "0x00",
                "code" : "0x7ffffffffffffffffffffffffffffffffffffffffffffffffffffffffffffffffe7ffffffffffffffffffffffffffffffffffffffffffffffffffffffffffffffffe7f000000000000000000000000ffffffffffffffffffffffffffffffffffffffff4244904244045560005155",
                "nonce" : "0x00",
                "storage" : {
                }
            },
            "0x945304eb96065b2a98b57a48a06ae28d285a71b5" : {
                "balance" : "0x2e",
                "code" : "0x6000355415600957005b60203560003555",
                "nonce" : "0x00",
                "storage" : {
                }
            },
            "0xa94f5374fce5edbc8e2a8697c15331677e6ebf0b" : {
                "balance" : "0x0de0b6b3a7640000",
                "code" : "0x",
                "nonce" : "0x00",
                "storage" : {
                }
            }
        },
        "transaction" : {
            "data" : [
                "0x7ffffffffffffffffffffffffffffffffffffffffffffffffffffffffffffffffe7ffffffffffffffffffffffffffffffffffffffffffffffffffffffffffffffffe7f000000000000000000000000ffffffffffffffffffffffffffffffffffffffff424490424404"
            ],
            "gasLimit" : [
                "0xd9acdb"
            ],
            "gasPrice" : "0x0a",
            "nonce" : "0x00",
            "secretKey" : "0x45a915e4d060149eb4365960e6a7a45f334393093061116b197e3240065ff2d8",
            "sender" : "0xa94f5374fce5edbc8e2a8697c15331677e6ebf0b",
            "to" : "0x095e7baea6a6c7c4c2dfeb977efac326af552d87",
            "value" : [
                "0x6ac01f3a"
            ]
        }
    }
}