{
    "randomStatetest488" : {
        "_info" : {
            "comment" : "",
            "filling-rpc-server" : "evm version 1.13.13-unstable-034bc466-20240219",
            "filling-tool-version" : "retesteth-0.3.2-cancun+commit.014a68a5.Linux.g++",
            "generatedTestHash" : "7a4f127b1df9eeab1c37b18fbe805954244e6b5dbdd8b83f4d8496947025c041",
            "lllcversion" : "Version: 0.5.14-develop.2023.7.11+commit.c58ab2c6.mod.Linux.g++",
            "solidity" : "Version: 0.8.21+commit.d9974bed.Linux.g++",
            "source" : "src/GeneralStateTestsFiller/stRandom2/randomStatetest488Filler.json",
            "sourceHash" : "edf570507be730636f3170026f2cea9ff42ab134c30a2c2b74e76f17c463c935"
        },
        "env" : {
            "currentBaseFee" : "0x0a",
            "currentCoinbase" : "0x945304eb96065b2a98b57a48a06ae28d285a71b5",
            "currentDifficulty" : "0x020000",
            "currentExcessBlobGas" : "0x00",
            "currentGasLimit" : "0x7fffffffffffffff",
            "currentNumber" : "0x01",
            "currentRandom" : "0x0000000000000000000000000000000000000000000000000000000000020000",
            "currentTimestamp" : "0x03e8"
        },
        "post" : {
            "Berlin" : [
                {
                    "hash" : "0xc2e348aadee54eba444e8ad135fd55b51a071f9c7acb5113c51a0f39cb8a8e85",
                    "indexes" : {
                        "data" : 0,
                        "gas" : 0,
                        "value" : 0
                    },
                    "logs" : "0x1dcc4de8dec75d7aab85b567b6ccd41ad312451b948a7413f0a142fd40d49347",
                    "txbytes" : "0xf9013d800a845663f4fe94095e7baea6a6c7c4c2dfeb977efac326af552d878453844097b8d77f00000000000000000000000100000000000000000000000000000000000000007f000000000000000000000000945304eb96065b2a98b57a48a06ae28d285a71b57f000000000000000000000000945304eb96065b2a98b57a48a06ae28d285a71b5427f00000000000000000000000000000000000000000000000000000000000000007fffffffffffffffffffffffffffffffffffffffffffffffffffffffffffffffff7ffffffffffffffffffffffffffffffffffffffffffffffffffffffffffffffffe6f3250648093577f6364a218f0907e7d1ca0d4393fb33f81482a841c098daa1eaecb4bb719f27a06e50ec7c1d3f138247993a078e99ee09c62bc1e1a8a13c0f3be35f53fe9ba1165ad21859dd5a071f22c1c15"
                }
            ],
            "Cancun" : [
                {
                    "hash" : "0x890d17e1523002d3efc2132eaa36d2a8390f3a07faba68790e4a0670769e83be",
                    "indexes" : {
                        "data" : 0,
                        "gas" : 0,
                        "value" : 0
                    },
                    "logs" : "0x1dcc4de8dec75d7aab85b567b6ccd41ad312451b948a7413f0a142fd40d49347",
                    "txbytes" : "0xf9013d800a845663f4fe94095e7baea6a6c7c4c2dfeb977efac326af552d878453844097b8d77f00000000000000000000000100000000000000000000000000000000000000007f000000000000000000000000945304eb96065b2a98b57a48a06ae28d285a71b57f000000000000000000000000945304eb96065b2a98b57a48a06ae28d285a71b5427f00000000000000000000000000000000000000000000000000000000000000007fffffffffffffffffffffffffffffffffffffffffffffffffffffffffffffffff7ffffffffffffffffffffffffffffffffffffffffffffffffffffffffffffffffe6f3250648093577f6364a218f0907e7d1ca0d4393fb33f81482a841c098daa1eaecb4bb719f27a06e50ec7c1d3f138247993a078e99ee09c62bc1e1a8a13c0f3be35f53fe9ba1165ad21859dd5a071f22c1c15"
                }
            ],
            "Istanbul" : [
                {
                    "hash" : "0xe08aebee102b6c65a1811eeeaf8690dd4f5a797ce042f4deb51f2dc2443fc4d5",
                    "indexes" : {
                        "data" : 0,
                        "gas" : 0,
                        "value" : 0
                    },
                    "logs" : "0x1dcc4de8dec75d7aab85b567b6ccd41ad312451b948a7413f0a142fd40d49347",
                    "txbytes" : "0xf9013d800a845663f4fe94095e7baea6a6c7c4c2dfeb977efac326af552d878453844097b8d77f00000000000000000000000100000000000000000000000000000000000000007f000000000000000000000000945304eb96065b2a98b57a48a06ae28d285a71b57f000000000000000000000000945304eb96065b2a98b57a48a06ae28d285a71b5427f00000000000000000000000000000000000000000000000000000000000000007fffffffffffffffffffffffffffffffffffffffffffffffffffffffffffffffff7ffffffffffffffffffffffffffffffffffffffffffffffffffffffffffffffffe6f3250648093577f6364a218f0907e7d1ca0d4393fb33f81482a841c098daa1eaecb4bb719f27a06e50ec7c1d3f138247993a078e99ee09c62bc1e1a8a13c0f3be35f53fe9ba1165ad21859dd5a071f22c1c15"
                }
            ],
            "London" : [
                {
                    "hash" : "0x58594f7f03e1591417fcf33b37bdbf672570bdac6e75a8b316a7174ce2417aab",
                    "indexes" : {
                        "data" : 0,
                        "gas" : 0,
                        "value" : 0
                    },
                    "logs" : "0x1dcc4de8dec75d7aab85b567b6ccd41ad312451b948a7413f0a142fd40d49347",
                    "txbytes" : "0xf9013d800a845663f4fe94095e7baea6a6c7c4c2dfeb977efac326af552d878453844097b8d77f00000000000000000000000100000000000000000000000000000000000000007f000000000000000000000000945304eb96065b2a98b57a48a06ae28d285a71b57f000000000000000000000000945304eb96065b2a98b57a48a06ae28d285a71b5427f00000000000000000000000000000000000000000000000000000000000000007fffffffffffffffffffffffffffffffffffffffffffffffffffffffffffffffff7ffffffffffffffffffffffffffffffffffffffffffffffffffffffffffffffffe6f3250648093577f6364a218f0907e7d1ca0d4393fb33f81482a841c098daa1eaecb4bb719f27a06e50ec7c1d3f138247993a078e99ee09c62bc1e1a8a13c0f3be35f53fe9ba1165ad21859dd5a071f22c1c15"
                }
            ],
            "Paris" : [
                {
                    "hash" : "0x58594f7f03e1591417fcf33b37bdbf672570bdac6e75a8b316a7174ce2417aab",
                    "indexes" : {
                        "data" : 0,
                        "gas" : 0,
                        "value" : 0
                    },
                    "logs" : "0x1dcc4de8dec75d7aab85b567b6ccd41ad312451b948a7413f0a142fd40d49347",
                    "txbytes" : "0xf9013d800a845663f4fe94095e7baea6a6c7c4c2dfeb977efac326af552d878453844097b8d77f00000000000000000000000100000000000000000000000000000000000000007f000000000000000000000000945304eb96065b2a98b57a48a06ae28d285a71b57f000000000000000000000000945304eb96065b2a98b57a48a06ae28d285a71b5427f00000000000000000000000000000000000000000000000000000000000000007fffffffffffffffffffffffffffffffffffffffffffffffffffffffffffffffff7ffffffffffffffffffffffffffffffffffffffffffffffffffffffffffffffffe6f3250648093577f6364a218f0907e7d1ca0d4393fb33f81482a841c098daa1eaecb4bb719f27a06e50ec7c1d3f138247993a078e99ee09c62bc1e1a8a13c0f3be35f53fe9ba1165ad21859dd5a071f22c1c15"
                }
            ],
            "Shanghai" : [
                {
                    "hash" : "0x58594f7f03e1591417fcf33b37bdbf672570bdac6e75a8b316a7174ce2417aab",
                    "indexes" : {
                        "data" : 0,
                        "gas" : 0,
                        "value" : 0
                    },
                    "logs" : "0x1dcc4de8dec75d7aab85b567b6ccd41ad312451b948a7413f0a142fd40d49347",
                    "txbytes" : "0xf9013d800a845663f4fe94095e7baea6a6c7c4c2dfeb977efac326af552d878453844097b8d77f00000000000000000000000100000000000000000000000000000000000000007f000000000000000000000000945304eb96065b2a98b57a48a06ae28d285a71b57f000000000000000000000000945304eb96065b2a98b57a48a06ae28d285a71b5427f00000000000000000000000000000000000000000000000000000000000000007fffffffffffffffffffffffffffffffffffffffffffffffffffffffffffffffff7ffffffffffffffffffffffffffffffffffffffffffffffffffffffffffffffffe6f3250648093577f6364a218f0907e7d1ca0d4393fb33f81482a841c098daa1eaecb4bb719f27a06e50ec7c1d3f138247993a078e99ee09c62bc1e1a8a13c0f3be35f53fe9ba1165ad21859dd5a071f22c1c15"
                }
            ]
        },
        "pre" : {
            "0x000f3df6d732807ef1319fb7b8bb8522d0beac02" : {
                "balance" : "0x00",
                "code" : "0x3373fffffffffffffffffffffffffffffffffffffffe14604d57602036146024575f5ffd5b5f35801560495762001fff810690815414603c575f5ffd5b62001fff01545f5260205ff35b5f5ffd5b62001fff42064281555f359062001fff015500",
                "nonce" : "0x01",
                "storage" : {
                }
            },
            "0x095e7baea6a6c7c4c2dfeb977efac326af552d87" : {
                "balance" : "0x00",
                "code" : "0x7f00000000000000000000000100000000000000000000000000000000000000007f000000000000000000000000945304eb96065b2a98b57a48a06ae28d285a71b57f000000000000000000000000945304eb96065b2a98b57a48a06ae28d285a71b5427f00000000000000000000000000000000000000000000000000000000000000007fffffffffffffffffffffffffffffffffffffffffffffffffffffffffffffffff7ffffffffffffffffffffffffffffffffffffffffffffffffffffffffffffffffe6f3250648093577f6364a218f0907e7d5560005155",
                "nonce" : "0x00",
                "storage" : {
                }
            },
            "0x945304eb96065b2a98b57a48a06ae28d285a71b5" : {
                "balance" : "0x2e",
                "code" : "0x6000355415600957005b60203560003555",
                "nonce" : "0x00",
                "storage" : {
                }
            },
            "0xa94f5374fce5edbc8e2a8697c15331677e6ebf0b" : {
                "balance" : "0x0de0b6b3a7640000",
                "code" : "0x",
                "nonce" : "0x00",
                "storage" : {
                }
            }
        },
        "transaction" : {
            "data" : [
                "0x7f00000000000000000000000100000000000000000000000000000000000000007f000000000000000000000000945304eb96065b2a98b57a48a06ae28d285a71b57f000000000000000000000000945304eb96065b2a98b57a48a06ae28d285a71b5427f00000000000000000000000000000000000000000000000000000000000000007fffffffffffffffffffffffffffffffffffffffffffffffffffffffffffffffff7ffffffffffffffffffffffffffffffffffffffffffffffffffffffffffffffffe6f3250648093577f6364a218f0907e7d"
            ],
            "gasLimit" : [
                "0x5663f4fe"
            ],
            "gasPrice" : "0x0a",
            "nonce" : "0x00",
            "secretKey" : "0x45a915e4d060149eb4365960e6a7a45f334393093061116b197e3240065ff2d8",
            "sender" : "0xa94f5374fce5edbc8e2a8697c15331677e6ebf0b",
            "to" : "0x095e7baea6a6c7c4c2dfeb977efac326af552d87",
            "value" : [
                "0x53844097"
            ]
        }
    }
}