{
    "randomStatetest418" : {
        "_info" : {
            "comment" : "",
            "filling-rpc-server" : "evm version 1.13.13-unstable-034bc466-20240219",
            "filling-tool-version" : "retesteth-0.3.2-cancun+commit.014a68a5.Linux.g++",
            "generatedTestHash" : "8b28219cedfaba2111f57e4c6a69df7d62113af8ff7bd2d8dd6b9903c7920bbb",
            "lllcversion" : "Version: 0.5.14-develop.2023.7.11+commit.c58ab2c6.mod.Linux.g++",
            "solidity" : "Version: 0.8.21+commit.d9974bed.Linux.g++",
            "source" : "src/GeneralStateTestsFiller/stRandom2/randomStatetest418Filler.json",
            "sourceHash" : "d4806d1c9ae4802cd1ac477682ba2a62ae25a0e208d8cfe99de89a7d08d0ab11"
        },
        "env" : {
            "currentBaseFee" : "0x0a",
            "currentCoinbase" : "0x945304eb96065b2a98b57a48a06ae28d285a71b5",
            "currentDifficulty" : "0x020000",
            "currentExcessBlobGas" : "0x00",
            "currentGasLimit" : "0x7fffffffffffffff",
            "currentNumber" : "0x01",
            "currentRandom" : "0x0000000000000000000000000000000000000000000000000000000000020000",
            "currentTimestamp" : "0x03e8"
        },
        "post" : {
            "Berlin" : [
                {
                    "hash" : "0x744bc956f812ca53c5b6bd1961c8d0678351a2807f6190a854362d48047c29fc",
                    "indexes" : {
                        "data" : 0,
                        "gas" : 0,
                        "value" : 0
                    },
                    "logs" : "0xd3b1ece1f008a1b8b87a40b00c1641b0453208ce20cea731d5aa007726ef5167",
                    "txbytes" : "0xf90137800a8417647ecd94095e7baea6a6c7c4c2dfeb977efac326af552d878465a87a48b8d17f0000000000000000000000000000000000000000000000000000000000000000437f00000000000000000000000000000000000000000000000000000000000000017f000000000000000000000000945304eb96065b2a98b57a48a06ae28d285a71b57f000000000000000000000000000000000000000000000000000000000000c3507f0000000000000000000000000000000000000000000000000000000000000000417fffffffffffffffffffffffffffffffffffffffffffffffffffffffffffffffff12a36234970658a0311ca0b1d5e6079e41a7bd620475aa1a78376298fe092480c2a6f915f594f687238009a048bee4c118fb90dc127da338f217350a7a508b9a6cbab435eae0387389a3cbdc"
                }
            ],
            "Cancun" : [
                {
                    "hash" : "0x0fc794423f0490559eed4673eaae5b88a79409287f7a2fbc288895b5c536732b",
                    "indexes" : {
                        "data" : 0,
                        "gas" : 0,
                        "value" : 0
                    },
                    "logs" : "0xd3b1ece1f008a1b8b87a40b00c1641b0453208ce20cea731d5aa007726ef5167",
                    "txbytes" : "0xf90137800a8417647ecd94095e7baea6a6c7c4c2dfeb977efac326af552d878465a87a48b8d17f0000000000000000000000000000000000000000000000000000000000000000437f00000000000000000000000000000000000000000000000000000000000000017f000000000000000000000000945304eb96065b2a98b57a48a06ae28d285a71b57f000000000000000000000000000000000000000000000000000000000000c3507f0000000000000000000000000000000000000000000000000000000000000000417fffffffffffffffffffffffffffffffffffffffffffffffffffffffffffffffff12a36234970658a0311ca0b1d5e6079e41a7bd620475aa1a78376298fe092480c2a6f915f594f687238009a048bee4c118fb90dc127da338f217350a7a508b9a6cbab435eae0387389a3cbdc"
                }
            ],
            "Istanbul" : [
                {
                    "hash" : "0x4f0c6211a2db2f98fa3d6b527787e5abe82682a24fb4fdacbac6aeafd33724da",
                    "indexes" : {
                        "data" : 0,
                        "gas" : 0,
                        "value" : 0
                    },
                    "logs" : "0xd3b1ece1f008a1b8b87a40b00c1641b0453208ce20cea731d5aa007726ef5167",
                    "txbytes" : "0xf90137800a8417647ecd94095e7baea6a6c7c4c2dfeb977efac326af552d878465a87a48b8d17f0000000000000000000000000000000000000000000000000000000000000000437f00000000000000000000000000000000000000000000000000000000000000017f000000000000000000000000945304eb96065b2a98b57a48a06ae28d285a71b57f000000000000000000000000000000000000000000000000000000000000c3507f0000000000000000000000000000000000000000000000000000000000000000417fffffffffffffffffffffffffffffffffffffffffffffffffffffffffffffffff12a36234970658a0311ca0b1d5e6079e41a7bd620475aa1a78376298fe092480c2a6f915f594f687238009a048bee4c118fb90dc127da338f217350a7a508b9a6cbab435eae0387389a3cbdc"
                }
            ],
            "London" : [
                {
                    "hash" : "0x2c5979130c51829dfc5d836c79eec13418b35a65a1dc74eba75cc4158dae9475",
                    "indexes" : {
                        "data" : 0,
                        "gas" : 0,
                        "value" : 0
                    },
                    "logs" : "0xd3b1ece1f008a1b8b87a40b00c1641b0453208ce20cea731d5aa007726ef5167",
                    "txbytes" : "0xf90137800a8417647ecd94095e7baea6a6c7c4c2dfeb977efac326af552d878465a87a48b8d17f0000000000000000000000000000000000000000000000000000000000000000437f00000000000000000000000000000000000000000000000000000000000000017f000000000000000000000000945304eb96065b2a98b57a48a06ae28d285a71b57f000000000000000000000000000000000000000000000000000000000000c3507f0000000000000000000000000000000000000000000000000000000000000000417fffffffffffffffffffffffffffffffffffffffffffffffffffffffffffffffff12a36234970658a0311ca0b1d5e6079e41a7bd620475aa1a78376298fe092480c2a6f915f594f687238009a048bee4c118fb90dc127da338f217350a7a508b9a6cbab435eae0387389a3cbdc"
                }
            ],
            "Paris" : [
                {
                    "hash" : "0x2c5979130c51829dfc5d836c79eec13418b35a65a1dc74eba75cc4158dae9475",
                    "indexes" : {
                        "data" : 0,
                        "gas" : 0,
                        "value" : 0
                    },
                    "logs" : "0xd3b1ece1f008a1b8b87a40b00c1641b0453208ce20cea731d5aa007726ef5167",
                    "txbytes" : "0xf90137800a8417647ecd94095e7baea6a6c7c4c2dfeb977efac326af552d878465a87a48b8d17f0000000000000000000000000000000000000000000000000000000000000000437f00000000000000000000000000000000000000000000000000000000000000017f000000000000000000000000945304eb96065b2a98b57a48a06ae28d285a71b57f000000000000000000000000000000000000000000000000000000000000c3507f0000000000000000000000000000000000000000000000000000000000000000417fffffffffffffffffffffffffffffffffffffffffffffffffffffffffffffffff12a36234970658a0311ca0b1d5e6079e41a7bd620475aa1a78376298fe092480c2a6f915f594f687238009a048bee4c118fb90dc127da338f217350a7a508b9a6cbab435eae0387389a3cbdc"
                }
            ],
            "Shanghai" : [
                {
                    "hash" : "0x2c5979130c51829dfc5d836c79eec13418b35a65a1dc74eba75cc4158dae9475",
                    "indexes" : {
                        "data" : 0,
                        "gas" : 0,
                        "value" : 0
                    },
                    "logs" : "0xd3b1ece1f008a1b8b87a40b00c1641b0453208ce20cea731d5aa007726ef5167",
                    "txbytes" : "0xf90137800a8417647ecd94095e7baea6a6c7c4c2dfeb977efac326af552d878465a87a48b8d17f0000000000000000000000000000000000000000000000000000000000000000437f00000000000000000000000000000000000000000000000000000000000000017f000000000000000000000000945304eb96065b2a98b57a48a06ae28d285a71b57f000000000000000000000000000000000000000000000000000000000000c3507f0000000000000000000000000000000000000000000000000000000000000000417fffffffffffffffffffffffffffffffffffffffffffffffffffffffffffffffff12a36234970658a0311ca0b1d5e6079e41a7bd620475aa1a78376298fe092480c2a6f915f594f687238009a048bee4c118fb90dc127da338f217350a7a508b9a6cbab435eae0387389a3cbdc"
                }
            ]
        },
        "pre" : {
            "0x000f3df6d732807ef1319fb7b8bb8522d0beac02" : {
                "balance" : "0x00",
                "code" : "0x3373fffffffffffffffffffffffffffffffffffffffe14604d57602036146024575f5ffd5b5f35801560495762001fff810690815414603c575f5ffd5b62001fff01545f5260205ff35b5f5ffd5b62001fff42064281555f359062001fff015500",
                "nonce" : "0x01",
                "storage" : {
                }
            },
            "0x095e7baea6a6c7c4c2dfeb977efac326af552d87" : {
                "balance" : "0x00",
                "code" : "0x7f0000000000000000000000000000000000000000000000000000000000000000437f00000000000000000000000000000000000000000000000000000000000000017f000000000000000000000000945304eb96065b2a98b57a48a06ae28d285a71b57f000000000000000000000000000000000000000000000000000000000000c3507f0000000000000000000000000000000000000000000000000000000000000000417fffffffffffffffffffffffffffffffffffffffffffffffffffffffffffffffff12a36234970658a03160005155",
                "nonce" : "0x00",
                "storage" : {
                }
            },
            "0x945304eb96065b2a98b57a48a06ae28d285a71b5" : {
                "balance" : "0x2e",
                "code" : "0x6000355415600957005b60203560003555",
                "nonce" : "0x00",
                "storage" : {
                }
            },
            "0xa94f5374fce5edbc8e2a8697c15331677e6ebf0b" : {
                "balance" : "0x0de0b6b3a7640000",
                "code" : "0x",
                "nonce" : "0x00",
                "storage" : {
                }
            }
        },
        "transaction" : {
            "data" : [
                "0x7f0000000000000000000000000000000000000000000000000000000000000000437f00000000000000000000000000000000000000000000000000000000000000017f000000000000000000000000945304eb96065b2a98b57a48a06ae28d285a71b57f000000000000000000000000000000000000000000000000000000000000c3507f0000000000000000000000000000000000000000000000000000000000000000417fffffffffffffffffffffffffffffffffffffffffffffffffffffffffffffffff12a36234970658a031"
            ],
            "gasLimit" : [
                "0x17647ecd"
            ],
            "gasPrice" : "0x0a",
            "nonce" : "0x00",
            "secretKey" : "0x45a915e4d060149eb4365960e6a7a45f334393093061116b197e3240065ff2d8",
            "sender" : "0xa94f5374fce5edbc8e2a8697c15331677e6ebf0b",
            "to" : "0x095e7baea6a6c7c4c2dfeb977efac326af552d87",
            "value" : [
                "0x65a87a48"
            ]
        }
    }
}