{
    "randomStatetest421" : {
        "_info" : {
            "comment" : "",
            "filling-rpc-server" : "evm version 1.13.11-unstable-765f2904-20240124",
            "filling-tool-version" : "retesteth-0.3.2-cancun+commit.ea13235b.Linux.g++",
            "generatedTestHash" : "37fdfd0e9dc538941cb8e183640e88eaf390e63cb1d35cde0db15c7e2dbe6a61",
            "lllcversion" : "Version: 0.5.14-develop.2023.7.11+commit.c58ab2c6.mod.Linux.g++",
            "solidity" : "Version: 0.8.21+commit.d9974bed.Linux.g++",
            "source" : "src/GeneralStateTestsFiller/stRandom2/randomStatetest421Filler.json",
            "sourceHash" : "76ca72bd92304dc080066a695156307642af0788c8cf5b448d40d4994d5fc1d8"
        },
        "env" : {
            "currentBaseFee" : "0x0a",
            "currentCoinbase" : "0x945304eb96065b2a98b57a48a06ae28d285a71b5",
            "currentDifficulty" : "0x020000",
            "currentExcessBlobGas" : "0x00",
            "currentGasLimit" : "0x7fffffffffffffff",
            "currentNumber" : "0x01",
            "currentRandom" : "0x0000000000000000000000000000000000000000000000000000000000020000",
            "currentTimestamp" : "0x03e8"
        },
        "post" : {
            "Berlin" : [
                {
                    "hash" : "0xa16a4607eb73c1ab37572f6a7ea2d43b2d0d0acc26c0d2a753f66a3f534dd62d",
                    "indexes" : {
                        "data" : 0,
                        "gas" : 0,
                        "value" : 0
                    },
                    "logs" : "0x1dcc4de8dec75d7aab85b567b6ccd41ad312451b948a7413f0a142fd40d49347",
                    "txbytes" : "0xf8db800a841418f81894095e7baea6a6c7c4c2dfeb977efac326af552d878452d1555fb875437f00000000000000000000000000000000000000000000000000000000000000007ffffffffffffffffffffffffffffffffffffffffffffffffffffffffffffffffe7fffffffffffffffffffffffffffffffffffffffffffffffffffffffffffffffff6f38454051968ff184a47d5009123197171ba06b5f5f39f0712ad57dede4051d2a06942a6602423fdbc8d6156616c3f7dae9ada0630c3b8d4a098cc03a186296b9e3c6c4e1cf9097a7d57f4ef5885c4af48ebc08"
                }
            ],
            "Cancun" : [
                {
                    "hash" : "0xc57abd6380314c496b4db71a47b36a3000f0f5b3b38e990af312cabfd0b3599e",
                    "indexes" : {
                        "data" : 0,
                        "gas" : 0,
                        "value" : 0
                    },
                    "logs" : "0x1dcc4de8dec75d7aab85b567b6ccd41ad312451b948a7413f0a142fd40d49347",
                    "txbytes" : "0xf8db800a841418f81894095e7baea6a6c7c4c2dfeb977efac326af552d878452d1555fb875437f00000000000000000000000000000000000000000000000000000000000000007ffffffffffffffffffffffffffffffffffffffffffffffffffffffffffffffffe7fffffffffffffffffffffffffffffffffffffffffffffffffffffffffffffffff6f38454051968ff184a47d5009123197171ba06b5f5f39f0712ad57dede4051d2a06942a6602423fdbc8d6156616c3f7dae9ada0630c3b8d4a098cc03a186296b9e3c6c4e1cf9097a7d57f4ef5885c4af48ebc08"
                }
            ],
            "Istanbul" : [
                {
                    "hash" : "0xfbaedd5c5902fc34495b34e390c24fb782af581f7490aeb80c260a6a0982197e",
                    "indexes" : {
                        "data" : 0,
                        "gas" : 0,
                        "value" : 0
                    },
                    "logs" : "0x1dcc4de8dec75d7aab85b567b6ccd41ad312451b948a7413f0a142fd40d49347",
                    "txbytes" : "0xf8db800a841418f81894095e7baea6a6c7c4c2dfeb977efac326af552d878452d1555fb875437f00000000000000000000000000000000000000000000000000000000000000007ffffffffffffffffffffffffffffffffffffffffffffffffffffffffffffffffe7fffffffffffffffffffffffffffffffffffffffffffffffffffffffffffffffff6f38454051968ff184a47d5009123197171ba06b5f5f39f0712ad57dede4051d2a06942a6602423fdbc8d6156616c3f7dae9ada0630c3b8d4a098cc03a186296b9e3c6c4e1cf9097a7d57f4ef5885c4af48ebc08"
                }
            ],
            "London" : [
                {
                    "hash" : "0xc57abd6380314c496b4db71a47b36a3000f0f5b3b38e990af312cabfd0b3599e",
                    "indexes" : {
                        "data" : 0,
                        "gas" : 0,
                        "value" : 0
                    },
                    "logs" : "0x1dcc4de8dec75d7aab85b567b6ccd41ad312451b948a7413f0a142fd40d49347",
                    "txbytes" : "0xf8db800a841418f81894095e7baea6a6c7c4c2dfeb977efac326af552d878452d1555fb875437f00000000000000000000000000000000000000000000000000000000000000007ffffffffffffffffffffffffffffffffffffffffffffffffffffffffffffffffe7fffffffffffffffffffffffffffffffffffffffffffffffffffffffffffffffff6f38454051968ff184a47d5009123197171ba06b5f5f39f0712ad57dede4051d2a06942a6602423fdbc8d6156616c3f7dae9ada0630c3b8d4a098cc03a186296b9e3c6c4e1cf9097a7d57f4ef5885c4af48ebc08"
                }
            ],
            "Paris" : [
                {
                    "hash" : "0xc57abd6380314c496b4db71a47b36a3000f0f5b3b38e990af312cabfd0b3599e",
                    "indexes" : {
                        "data" : 0,
                        "gas" : 0,
                        "value" : 0
                    },
                    "logs" : "0x1dcc4de8dec75d7aab85b567b6ccd41ad312451b948a7413f0a142fd40d49347",
                    "txbytes" : "0xf8db800a841418f81894095e7baea6a6c7c4c2dfeb977efac326af552d878452d1555fb875437f00000000000000000000000000000000000000000000000000000000000000007ffffffffffffffffffffffffffffffffffffffffffffffffffffffffffffffffe7fffffffffffffffffffffffffffffffffffffffffffffffffffffffffffffffff6f38454051968ff184a47d5009123197171ba06b5f5f39f0712ad57dede4051d2a06942a6602423fdbc8d6156616c3f7dae9ada0630c3b8d4a098cc03a186296b9e3c6c4e1cf9097a7d57f4ef5885c4af48ebc08"
                }
            ],
            "Shanghai" : [
                {
                    "hash" : "0xc57abd6380314c496b4db71a47b36a3000f0f5b3b38e990af312cabfd0b3599e",
                    "indexes" : {
                        "data" : 0,
                        "gas" : 0,
                        "value" : 0
                    },
                    "logs" : "0x1dcc4de8dec75d7aab85b567b6ccd41ad312451b948a7413f0a142fd40d49347",
                    "txbytes" : "0xf8db800a841418f81894095e7baea6a6c7c4c2dfeb977efac326af552d878452d1555fb875437f00000000000000000000000000000000000000000000000000000000000000007ffffffffffffffffffffffffffffffffffffffffffffffffffffffffffffffffe7fffffffffffffffffffffffffffffffffffffffffffffffffffffffffffffffff6f38454051968ff184a47d5009123197171ba06b5f5f39f0712ad57dede4051d2a06942a6602423fdbc8d6156616c3f7dae9ada0630c3b8d4a098cc03a186296b9e3c6c4e1cf9097a7d57f4ef5885c4af48ebc08"
                }
            ]
        },
        "pre" : {
            "0x095e7baea6a6c7c4c2dfeb977efac326af552d87" : {
                "balance" : "0x00",
                "code" : "0x437f00000000000000000000000000000000000000000000000000000000000000007ffffffffffffffffffffffffffffffffffffffffffffffffffffffffffffffffe7fffffffffffffffffffffffffffffffffffffffffffffffffffffffffffffffff6f38454051968ff184a47d50091231971760005155",
                "nonce" : "0x00",
                "storage" : {
                }
            },
            "0x945304eb96065b2a98b57a48a06ae28d285a71b5" : {
                "balance" : "0x2e",
                "code" : "0x6000355415600957005b60203560003555",
                "nonce" : "0x00",
                "storage" : {
                }
            },
            "0xa94f5374fce5edbc8e2a8697c15331677e6ebf0b" : {
                "balance" : "0x0de0b6b3a7640000",
                "code" : "0x",
                "nonce" : "0x00",
                "storage" : {
                }
            }
        },
        "transaction" : {
            "data" : [
                "0x437f00000000000000000000000000000000000000000000000000000000000000007ffffffffffffffffffffffffffffffffffffffffffffffffffffffffffffffffe7fffffffffffffffffffffffffffffffffffffffffffffffffffffffffffffffff6f38454051968ff184a47d500912319717"
            ],
            "gasLimit" : [
                "0x1418f818"
            ],
            "gasPrice" : "0x0a",
            "nonce" : "0x00",
            "secretKey" : "0x45a915e4d060149eb4365960e6a7a45f334393093061116b197e3240065ff2d8",
            "sender" : "0xa94f5374fce5edbc8e2a8697c15331677e6ebf0b",
            "to" : "0x095e7baea6a6c7c4c2dfeb977efac326af552d87",
            "value" : [
                "0x52d1555f"
            ]
        }
    }
}