{
    "randomStatetest584" : {
        "_info" : {
            "comment" : "",
            "filling-rpc-server" : "evm version 1.13.13-unstable-034bc466-20240219",
            "filling-tool-version" : "retesteth-0.3.2-cancun+commit.014a68a5.Linux.g++",
            "generatedTestHash" : "55802d76e4c085fc7dcfa9f0a7ad3cc6d0d7e18f3d3d294160844faafc668377",
            "lllcversion" : "Version: 0.5.14-develop.2023.7.11+commit.c58ab2c6.mod.Linux.g++",
            "solidity" : "Version: 0.8.21+commit.d9974bed.Linux.g++",
            "source" : "src/GeneralStateTestsFiller/stRandom2/randomStatetest584Filler.json",
            "sourceHash" : "9ff1994f90a7f4d5eb057a46e3e6b8e7c0a04b8ebf5e977d1b9b9bbeb624eaef"
        },
        "env" : {
            "currentBaseFee" : "0x0a",
            "currentCoinbase" : "0x945304eb96065b2a98b57a48a06ae28d285a71b5",
            "currentDifficulty" : "0x020000",
            "currentExcessBlobGas" : "0x00",
            "currentGasLimit" : "0x7fffffffffffffff",
            "currentNumber" : "0x01",
            "currentRandom" : "0x0000000000000000000000000000000000000000000000000000000000020000",
            "currentTimestamp" : "0x03e8"
        },
        "post" : {
            "Berlin" : [
                {
                    "hash" : "0xadc9ad80fbe1eef943450a2c3798668654982c868f4ab43e59b632b6d31d9aab",
                    "indexes" : {
                        "data" : 0,
                        "gas" : 0,
                        "value" : 0
                    },
                    "logs" : "0x1dcc4de8dec75d7aab85b567b6ccd41ad312451b948a7413f0a142fd40d49347",
                    "txbytes" : "0xf90174800a8405a07ffb94095e7baea6a6c7c4c2dfeb977efac326af552d878415058f0db9010d7f000000000000000000000000ffffffffffffffffffffffffffffffffffffffff7f000000000000000000000000945304eb96065b2a98b57a48a06ae28d285a71b57f000000000000000000000000000000000000000000000000000000000000c3507f000000000000000000000000945304eb96065b2a98b57a48a06ae28d285a71b57f00000000000000000000000000000000000000000000000000000000000000017fffffffffffffffffffffffffffffffffffffffffffffffffffffffffffffffff7f000000000000000000000000ffffffffffffffffffffffffffffffffffffffff7ffffffffffffffffffffffffffffffffffffffffffffffffffffffffffffffffe96921909331ca0ca1830a9647eb788483a261658c4737bb33164c9cd5a5be71557cc0f7c19d662a001d6bb8e5d54c6665523e18f9b358bbf293520cc300fe7c27a4243052ba64b12"
                }
            ],
            "Cancun" : [
                {
                    "hash" : "0x324da9cb10acafa0e5fda71839c0d4589076ecee5da779955cf1eb792c9b18e4",
                    "indexes" : {
                        "data" : 0,
                        "gas" : 0,
                        "value" : 0
                    },
                    "logs" : "0x1dcc4de8dec75d7aab85b567b6ccd41ad312451b948a7413f0a142fd40d49347",
                    "txbytes" : "0xf90174800a8405a07ffb94095e7baea6a6c7c4c2dfeb977efac326af552d878415058f0db9010d7f000000000000000000000000ffffffffffffffffffffffffffffffffffffffff7f000000000000000000000000945304eb96065b2a98b57a48a06ae28d285a71b57f000000000000000000000000000000000000000000000000000000000000c3507f000000000000000000000000945304eb96065b2a98b57a48a06ae28d285a71b57f00000000000000000000000000000000000000000000000000000000000000017fffffffffffffffffffffffffffffffffffffffffffffffffffffffffffffffff7f000000000000000000000000ffffffffffffffffffffffffffffffffffffffff7ffffffffffffffffffffffffffffffffffffffffffffffffffffffffffffffffe96921909331ca0ca1830a9647eb788483a261658c4737bb33164c9cd5a5be71557cc0f7c19d662a001d6bb8e5d54c6665523e18f9b358bbf293520cc300fe7c27a4243052ba64b12"
                }
            ],
            "Istanbul" : [
                {
                    "hash" : "0x366ffcbf591118571204de3e44a98c5cb6ad745357ef9a9b2b8a7f312f8e3d30",
                    "indexes" : {
                        "data" : 0,
                        "gas" : 0,
                        "value" : 0
                    },
                    "logs" : "0x1dcc4de8dec75d7aab85b567b6ccd41ad312451b948a7413f0a142fd40d49347",
                    "txbytes" : "0xf90174800a8405a07ffb94095e7baea6a6c7c4c2dfeb977efac326af552d878415058f0db9010d7f000000000000000000000000ffffffffffffffffffffffffffffffffffffffff7f000000000000000000000000945304eb96065b2a98b57a48a06ae28d285a71b57f000000000000000000000000000000000000000000000000000000000000c3507f000000000000000000000000945304eb96065b2a98b57a48a06ae28d285a71b57f00000000000000000000000000000000000000000000000000000000000000017fffffffffffffffffffffffffffffffffffffffffffffffffffffffffffffffff7f000000000000000000000000ffffffffffffffffffffffffffffffffffffffff7ffffffffffffffffffffffffffffffffffffffffffffffffffffffffffffffffe96921909331ca0ca1830a9647eb788483a261658c4737bb33164c9cd5a5be71557cc0f7c19d662a001d6bb8e5d54c6665523e18f9b358bbf293520cc300fe7c27a4243052ba64b12"
                }
            ],
            "London" : [
                {
                    "hash" : "0x2b26da8098cf6c8c1970343623b841008289b89d2ae7f255ae201fd960c00faa",
                    "indexes" : {
                        "data" : 0,
                        "gas" : 0,
                        "value" : 0
                    },
                    "logs" : "0x1dcc4de8dec75d7aab85b567b6ccd41ad312451b948a7413f0a142fd40d49347",
                    "txbytes" : "0xf90174800a8405a07ffb94095e7baea6a6c7c4c2dfeb977efac326af552d878415058f0db9010d7f000000000000000000000000ffffffffffffffffffffffffffffffffffffffff7f000000000000000000000000945304eb96065b2a98b57a48a06ae28d285a71b57f000000000000000000000000000000000000000000000000000000000000c3507f000000000000000000000000945304eb96065b2a98b57a48a06ae28d285a71b57f00000000000000000000000000000000000000000000000000000000000000017fffffffffffffffffffffffffffffffffffffffffffffffffffffffffffffffff7f000000000000000000000000ffffffffffffffffffffffffffffffffffffffff7ffffffffffffffffffffffffffffffffffffffffffffffffffffffffffffffffe96921909331ca0ca1830a9647eb788483a261658c4737bb33164c9cd5a5be71557cc0f7c19d662a001d6bb8e5d54c6665523e18f9b358bbf293520cc300fe7c27a4243052ba64b12"
                }
            ],
            "Paris" : [
                {
                    "hash" : "0x2b26da8098cf6c8c1970343623b841008289b89d2ae7f255ae201fd960c00faa",
                    "indexes" : {
                        "data" : 0,
                        "gas" : 0,
                        "value" : 0
                    },
                    "logs" : "0x1dcc4de8dec75d7aab85b567b6ccd41ad312451b948a7413f0a142fd40d49347",
                    "txbytes" : "0xf90174800a8405a07ffb94095e7baea6a6c7c4c2dfeb977efac326af552d878415058f0db9010d7f000000000000000000000000ffffffffffffffffffffffffffffffffffffffff7f000000000000000000000000945304eb96065b2a98b57a48a06ae28d285a71b57f000000000000000000000000000000000000000000000000000000000000c3507f000000000000000000000000945304eb96065b2a98b57a48a06ae28d285a71b57f00000000000000000000000000000000000000000000000000000000000000017fffffffffffffffffffffffffffffffffffffffffffffffffffffffffffffffff7f000000000000000000000000ffffffffffffffffffffffffffffffffffffffff7ffffffffffffffffffffffffffffffffffffffffffffffffffffffffffffffffe96921909331ca0ca1830a9647eb788483a261658c4737bb33164c9cd5a5be71557cc0f7c19d662a001d6bb8e5d54c6665523e18f9b358bbf293520cc300fe7c27a4243052ba64b12"
                }
            ],
            "Shanghai" : [
                {
                    "hash" : "0x2b26da8098cf6c8c1970343623b841008289b89d2ae7f255ae201fd960c00faa",
                    "indexes" : {
                        "data" : 0,
                        "gas" : 0,
                        "value" : 0
                    },
                    "logs" : "0x1dcc4de8dec75d7aab85b567b6ccd41ad312451b948a7413f0a142fd40d49347",
                    "txbytes" : "0xf90174800a8405a07ffb94095e7baea6a6c7c4c2dfeb977efac326af552d878415058f0db9010d7f000000000000000000000000ffffffffffffffffffffffffffffffffffffffff7f000000000000000000000000945304eb96065b2a98b57a48a06ae28d285a71b57f000000000000000000000000000000000000000000000000000000000000c3507f000000000000000000000000945304eb96065b2a98b57a48a06ae28d285a71b57f00000000000000000000000000000000000000000000000000000000000000017fffffffffffffffffffffffffffffffffffffffffffffffffffffffffffffffff7f000000000000000000000000ffffffffffffffffffffffffffffffffffffffff7ffffffffffffffffffffffffffffffffffffffffffffffffffffffffffffffffe96921909331ca0ca1830a9647eb788483a261658c4737bb33164c9cd5a5be71557cc0f7c19d662a001d6bb8e5d54c6665523e18f9b358bbf293520cc300fe7c27a4243052ba64b12"
                }
            ]
        },
        "pre" : {
            "0x000f3df6d732807ef1319fb7b8bb8522d0beac02" : {
                "balance" : "0x00",
                "code" : "0x3373fffffffffffffffffffffffffffffffffffffffe14604d57602036146024575f5ffd5b5f35801560495762001fff810690815414603c575f5ffd5b62001fff01545f5260205ff35b5f5ffd5b62001fff42064281555f359062001fff015500",
                "nonce" : "0x01",
                "storage" : {
                }
            },
            "0x095e7baea6a6c7c4c2dfeb977efac326af552d87" : {
                "balance" : "0x00",
                "code" : "0x7f000000000000000000000000ffffffffffffffffffffffffffffffffffffffff7f000000000000000000000000945304eb96065b2a98b57a48a06ae28d285a71b57f000000000000000000000000000000000000000000000000000000000000c3507f000000000000000000000000945304eb96065b2a98b57a48a06ae28d285a71b57f00000000000000000000000000000000000000000000000000000000000000017fffffffffffffffffffffffffffffffffffffffffffffffffffffffffffffffff7f000000000000000000000000ffffffffffffffffffffffffffffffffffffffff7ffffffffffffffffffffffffffffffffffffffffffffffffffffffffffffffffe96921909335560005155",
                "nonce" : "0x00",
                "storage" : {
                }
            },
            "0x945304eb96065b2a98b57a48a06ae28d285a71b5" : {
                "balance" : "0x2e",
                "code" : "0x6000355415600957005b60203560003555",
                "nonce" : "0x00",
                "storage" : {
                }
            },
            "0xa94f5374fce5edbc8e2a8697c15331677e6ebf0b" : {
                "balance" : "0x0de0b6b3a7640000",
                "code" : "0x",
                "nonce" : "0x00",
                "storage" : {
                }
            }
        },
        "transaction" : {
            "data" : [
                "0x7f000000000000000000000000ffffffffffffffffffffffffffffffffffffffff7f000000000000000000000000945304eb96065b2a98b57a48a06ae28d285a71b57f000000000000000000000000000000000000000000000000000000000000c3507f000000000000000000000000945304eb96065b2a98b57a48a06ae28d285a71b57f00000000000000000000000000000000000000000000000000000000000000017fffffffffffffffffffffffffffffffffffffffffffffffffffffffffffffffff7f000000000000000000000000ffffffffffffffffffffffffffffffffffffffff7ffffffffffffffffffffffffffffffffffffffffffffffffffffffffffffffffe9692190933"
            ],
            "gasLimit" : [
                "0x05a07ffb"
            ],
            "gasPrice" : "0x0a",
            "nonce" : "0x00",
            "secretKey" : "0x45a915e4d060149eb4365960e6a7a45f334393093061116b197e3240065ff2d8",
            "sender" : "0xa94f5374fce5edbc8e2a8697c15331677e6ebf0b",
            "to" : "0x095e7baea6a6c7c4c2dfeb977efac326af552d87",
            "value" : [
                "0x15058f0d"
            ]
        }
    }
}