{
    "randomStatetest517" : {
        "_info" : {
            "comment" : "",
            "filling-rpc-server" : "evm version 1.13.11-unstable-765f2904-20240124",
            "filling-tool-version" : "retesteth-0.3.2-cancun+commit.ea13235b.Linux.g++",
            "generatedTestHash" : "d1a261dd1e07ce5cd19f68f9b72dd02bee2cc1edd010ace0a75b16c8d8a116bf",
            "lllcversion" : "Version: 0.5.14-develop.2023.7.11+commit.c58ab2c6.mod.Linux.g++",
            "solidity" : "Version: 0.8.21+commit.d9974bed.Linux.g++",
            "source" : "src/GeneralStateTestsFiller/stRandom2/randomStatetest517Filler.json",
            "sourceHash" : "9570e061c2c2d716673cc913a4a0f4c7f95202f091d5a9af458c4c00b713918d"
        },
        "env" : {
            "currentBaseFee" : "0x0a",
            "currentCoinbase" : "0x945304eb96065b2a98b57a48a06ae28d285a71b5",
            "currentDifficulty" : "0x020000",
            "currentExcessBlobGas" : "0x00",
            "currentGasLimit" : "0x7fffffffffffffff",
            "currentNumber" : "0x01",
            "currentRandom" : "0x0000000000000000000000000000000000000000000000000000000000020000",
            "currentTimestamp" : "0x03e8"
        },
        "post" : {
            "Berlin" : [
                {
                    "hash" : "0xf8e87a390140a0fc3161cda87f54dc2dfe49925f5910249fdccdbe53fbaaefc3",
                    "indexes" : {
                        "data" : 0,
                        "gas" : 0,
                        "value" : 0
                    },
                    "logs" : "0x1dcc4de8dec75d7aab85b567b6ccd41ad312451b948a7413f0a142fd40d49347",
                    "txbytes" : "0xf9011e800a8422d1e6e194095e7baea6a6c7c4c2dfeb977efac326af552d87847291aa4fb8b87fffffffffffffffffffffffffffffffffffffffffffffffffffffffffffffffff7f000000000000000000000000ffffffffffffffffffffffffffffffffffffffff7f00000000000000000000000000000000000000000000000000000000000000017f00000000000000000000000100000000000000000000000000000000000000007f000000000000000000000000ffffffffffffffffffffffffffffffffffffffff3a6f450831a46a867f32569596f0099f7b8c911ca01c1f8cd6f75515afde46c01dace09db2f7554aaf011fe2050b2683834e302d11a0613b4006e7203ffbbef8a50296df9e4ccb2b1c5bb7efef3c12eaaf61b0b9924b"
                }
            ],
            "Cancun" : [
                {
                    "hash" : "0xa1f0ffafed7433c64aa1d04ad7712995ca925da9011ea2a6d5a478b61c4009a2",
                    "indexes" : {
                        "data" : 0,
                        "gas" : 0,
                        "value" : 0
                    },
                    "logs" : "0x1dcc4de8dec75d7aab85b567b6ccd41ad312451b948a7413f0a142fd40d49347",
                    "txbytes" : "0xf9011e800a8422d1e6e194095e7baea6a6c7c4c2dfeb977efac326af552d87847291aa4fb8b87fffffffffffffffffffffffffffffffffffffffffffffffffffffffffffffffff7f000000000000000000000000ffffffffffffffffffffffffffffffffffffffff7f00000000000000000000000000000000000000000000000000000000000000017f00000000000000000000000100000000000000000000000000000000000000007f000000000000000000000000ffffffffffffffffffffffffffffffffffffffff3a6f450831a46a867f32569596f0099f7b8c911ca01c1f8cd6f75515afde46c01dace09db2f7554aaf011fe2050b2683834e302d11a0613b4006e7203ffbbef8a50296df9e4ccb2b1c5bb7efef3c12eaaf61b0b9924b"
                }
            ],
            "Istanbul" : [
                {
                    "hash" : "0xb775b48e1a98d1cccba3ecf62761eefa5b0a06d0e95206ae0a567a3370305047",
                    "indexes" : {
                        "data" : 0,
                        "gas" : 0,
                        "value" : 0
                    },
                    "logs" : "0x1dcc4de8dec75d7aab85b567b6ccd41ad312451b948a7413f0a142fd40d49347",
                    "txbytes" : "0xf9011e800a8422d1e6e194095e7baea6a6c7c4c2dfeb977efac326af552d87847291aa4fb8b87fffffffffffffffffffffffffffffffffffffffffffffffffffffffffffffffff7f000000000000000000000000ffffffffffffffffffffffffffffffffffffffff7f00000000000000000000000000000000000000000000000000000000000000017f00000000000000000000000100000000000000000000000000000000000000007f000000000000000000000000ffffffffffffffffffffffffffffffffffffffff3a6f450831a46a867f32569596f0099f7b8c911ca01c1f8cd6f75515afde46c01dace09db2f7554aaf011fe2050b2683834e302d11a0613b4006e7203ffbbef8a50296df9e4ccb2b1c5bb7efef3c12eaaf61b0b9924b"
                }
            ],
            "London" : [
                {
                    "hash" : "0xa1f0ffafed7433c64aa1d04ad7712995ca925da9011ea2a6d5a478b61c4009a2",
                    "indexes" : {
                        "data" : 0,
                        "gas" : 0,
                        "value" : 0
                    },
                    "logs" : "0x1dcc4de8dec75d7aab85b567b6ccd41ad312451b948a7413f0a142fd40d49347",
                    "txbytes" : "0xf9011e800a8422d1e6e194095e7baea6a6c7c4c2dfeb977efac326af552d87847291aa4fb8b87fffffffffffffffffffffffffffffffffffffffffffffffffffffffffffffffff7f000000000000000000000000ffffffffffffffffffffffffffffffffffffffff7f00000000000000000000000000000000000000000000000000000000000000017f00000000000000000000000100000000000000000000000000000000000000007f000000000000000000000000ffffffffffffffffffffffffffffffffffffffff3a6f450831a46a867f32569596f0099f7b8c911ca01c1f8cd6f75515afde46c01dace09db2f7554aaf011fe2050b2683834e302d11a0613b4006e7203ffbbef8a50296df9e4ccb2b1c5bb7efef3c12eaaf61b0b9924b"
                }
            ],
            "Paris" : [
                {
                    "hash" : "0xa1f0ffafed7433c64aa1d04ad7712995ca925da9011ea2a6d5a478b61c4009a2",
                    "indexes" : {
                        "data" : 0,
                        "gas" : 0,
                        "value" : 0
                    },
                    "logs" : "0x1dcc4de8dec75d7aab85b567b6ccd41ad312451b948a7413f0a142fd40d49347",
                    "txbytes" : "0xf9011e800a8422d1e6e194095e7baea6a6c7c4c2dfeb977efac326af552d87847291aa4fb8b87fffffffffffffffffffffffffffffffffffffffffffffffffffffffffffffffff7f000000000000000000000000ffffffffffffffffffffffffffffffffffffffff7f00000000000000000000000000000000000000000000000000000000000000017f00000000000000000000000100000000000000000000000000000000000000007f000000000000000000000000ffffffffffffffffffffffffffffffffffffffff3a6f450831a46a867f32569596f0099f7b8c911ca01c1f8cd6f75515afde46c01dace09db2f7554aaf011fe2050b2683834e302d11a0613b4006e7203ffbbef8a50296df9e4ccb2b1c5bb7efef3c12eaaf61b0b9924b"
                }
            ],
            "Shanghai" : [
                {
                    "hash" : "0xa1f0ffafed7433c64aa1d04ad7712995ca925da9011ea2a6d5a478b61c4009a2",
                    "indexes" : {
                        "data" : 0,
                        "gas" : 0,
                        "value" : 0
                    },
                    "logs" : "0x1dcc4de8dec75d7aab85b567b6ccd41ad312451b948a7413f0a142fd40d49347",
                    "txbytes" : "0xf9011e800a8422d1e6e194095e7baea6a6c7c4c2dfeb977efac326af552d87847291aa4fb8b87fffffffffffffffffffffffffffffffffffffffffffffffffffffffffffffffff7f000000000000000000000000ffffffffffffffffffffffffffffffffffffffff7f00000000000000000000000000000000000000000000000000000000000000017f00000000000000000000000100000000000000000000000000000000000000007f000000000000000000000000ffffffffffffffffffffffffffffffffffffffff3a6f450831a46a867f32569596f0099f7b8c911ca01c1f8cd6f75515afde46c01dace09db2f7554aaf011fe2050b2683834e302d11a0613b4006e7203ffbbef8a50296df9e4ccb2b1c5bb7efef3c12eaaf61b0b9924b"
                }
            ]
        },
        "pre" : {
            "0x095e7baea6a6c7c4c2dfeb977efac326af552d87" : {
                "balance" : "0x00",
                "code" : "0x7fffffffffffffffffffffffffffffffffffffffffffffffffffffffffffffffff7f000000000000000000000000ffffffffffffffffffffffffffffffffffffffff7f00000000000000000000000000000000000000000000000000000000000000017f00000000000000000000000100000000000000000000000000000000000000007f000000000000000000000000ffffffffffffffffffffffffffffffffffffffff3a6f450831a46a867f32569596f0099f7b8c915560005155",
                "nonce" : "0x00",
                "storage" : {
                }
            },
            "0x945304eb96065b2a98b57a48a06ae28d285a71b5" : {
                "balance" : "0x2e",
                "code" : "0x6000355415600957005b60203560003555",
                "nonce" : "0x00",
                "storage" : {
                }
            },
            "0xa94f5374fce5edbc8e2a8697c15331677e6ebf0b" : {
                "balance" : "0x0de0b6b3a7640000",
                "code" : "0x",
                "nonce" : "0x00",
                "storage" : {
                }
            }
        },
        "transaction" : {
            "data" : [
                "0x7fffffffffffffffffffffffffffffffffffffffffffffffffffffffffffffffff7f000000000000000000000000ffffffffffffffffffffffffffffffffffffffff7f00000000000000000000000000000000000000000000000000000000000000017f00000000000000000000000100000000000000000000000000000000000000007f000000000000000000000000ffffffffffffffffffffffffffffffffffffffff3a6f450831a46a867f32569596f0099f7b8c91"
            ],
            "gasLimit" : [
                "0x22d1e6e1"
            ],
            "gasPrice" : "0x0a",
            "nonce" : "0x00",
            "secretKey" : "0x45a915e4d060149eb4365960e6a7a45f334393093061116b197e3240065ff2d8",
            "sender" : "0xa94f5374fce5edbc8e2a8697c15331677e6ebf0b",
            "to" : "0x095e7baea6a6c7c4c2dfeb977efac326af552d87",
            "value" : [
                "0x7291aa4f"
            ]
        }
    }
}