{
    "randomStatetest523" : {
        "_info" : {
            "comment" : "",
            "filling-rpc-server" : "evm version 1.13.13-unstable-034bc466-20240219",
            "filling-tool-version" : "retesteth-0.3.2-cancun+commit.014a68a5.Linux.g++",
            "generatedTestHash" : "61b9137c8961109f62ee65a29b166ec63a0eeab89ed37f4941dd8dc5ac54c75a",
            "lllcversion" : "Version: 0.5.14-develop.2023.7.11+commit.c58ab2c6.mod.Linux.g++",
            "solidity" : "Version: 0.8.21+commit.d9974bed.Linux.g++",
            "source" : "src/GeneralStateTestsFiller/stRandom2/randomStatetest523Filler.json",
            "sourceHash" : "f6118aa9dba0f4abffe136a73443eb66a05850fccc856d4011500f219c1af438"
        },
        "env" : {
            "currentBaseFee" : "0x0a",
            "currentCoinbase" : "0x945304eb96065b2a98b57a48a06ae28d285a71b5",
            "currentDifficulty" : "0x020000",
            "currentExcessBlobGas" : "0x00",
            "currentGasLimit" : "0x7fffffffffffffff",
            "currentNumber" : "0x01",
            "currentRandom" : "0x0000000000000000000000000000000000000000000000000000000000020000",
            "currentTimestamp" : "0x03e8"
        },
        "post" : {
            "Berlin" : [
                {
                    "hash" : "0xf2a445f6a44e53561029efe5f4e0e3d1c6a48322f60ee748841dfcb919d5cc7a",
                    "indexes" : {
                        "data" : 0,
                        "gas" : 0,
                        "value" : 0
                    },
                    "logs" : "0x1dcc4de8dec75d7aab85b567b6ccd41ad312451b948a7413f0a142fd40d49347",
                    "txbytes" : "0xf8f4800a846dcfcf5294095e7baea6a6c7c4c2dfeb977efac326af552d87845741bf83b88e417f00000000000000000000000000000000000000000000000000000000000000017ffffffffffffffffffffffffffffffffffffffffffffffffffffffffffffffffe4450427f00000000000000000000000000000000000000000000000000000000000000017f00000000000000000000000000000000000000000000000000000000000000003560080b348d1ca01e6ea8b4c69e8eb9a71777b7ccd3f44d265cee07b02bcebeabec396b889f724ba0361eed6a6ad8bfd4592f32617b3a21638a9e2c7789e1ad04ce9db26a48fcdeb4"
                }
            ],
            "Cancun" : [
                {
                    "hash" : "0x608acef35305be4615e41171afec2a5b6493be60f99b7ea00b112b977f9116ec",
                    "indexes" : {
                        "data" : 0,
                        "gas" : 0,
                        "value" : 0
                    },
                    "logs" : "0x1dcc4de8dec75d7aab85b567b6ccd41ad312451b948a7413f0a142fd40d49347",
                    "txbytes" : "0xf8f4800a846dcfcf5294095e7baea6a6c7c4c2dfeb977efac326af552d87845741bf83b88e417f00000000000000000000000000000000000000000000000000000000000000017ffffffffffffffffffffffffffffffffffffffffffffffffffffffffffffffffe4450427f00000000000000000000000000000000000000000000000000000000000000017f00000000000000000000000000000000000000000000000000000000000000003560080b348d1ca01e6ea8b4c69e8eb9a71777b7ccd3f44d265cee07b02bcebeabec396b889f724ba0361eed6a6ad8bfd4592f32617b3a21638a9e2c7789e1ad04ce9db26a48fcdeb4"
                }
            ],
            "Istanbul" : [
                {
                    "hash" : "0xf2a445f6a44e53561029efe5f4e0e3d1c6a48322f60ee748841dfcb919d5cc7a",
                    "indexes" : {
                        "data" : 0,
                        "gas" : 0,
                        "value" : 0
                    },
                    "logs" : "0x1dcc4de8dec75d7aab85b567b6ccd41ad312451b948a7413f0a142fd40d49347",
                    "txbytes" : "0xf8f4800a846dcfcf5294095e7baea6a6c7c4c2dfeb977efac326af552d87845741bf83b88e417f00000000000000000000000000000000000000000000000000000000000000017ffffffffffffffffffffffffffffffffffffffffffffffffffffffffffffffffe4450427f00000000000000000000000000000000000000000000000000000000000000017f00000000000000000000000000000000000000000000000000000000000000003560080b348d1ca01e6ea8b4c69e8eb9a71777b7ccd3f44d265cee07b02bcebeabec396b889f724ba0361eed6a6ad8bfd4592f32617b3a21638a9e2c7789e1ad04ce9db26a48fcdeb4"
                }
            ],
            "London" : [
                {
                    "hash" : "0x41e5b6da201bdc837a773ab9eaa54c810a2d3166f20776b485223153528cb57b",
                    "indexes" : {
                        "data" : 0,
                        "gas" : 0,
                        "value" : 0
                    },
                    "logs" : "0x1dcc4de8dec75d7aab85b567b6ccd41ad312451b948a7413f0a142fd40d49347",
                    "txbytes" : "0xf8f4800a846dcfcf5294095e7baea6a6c7c4c2dfeb977efac326af552d87845741bf83b88e417f00000000000000000000000000000000000000000000000000000000000000017ffffffffffffffffffffffffffffffffffffffffffffffffffffffffffffffffe4450427f00000000000000000000000000000000000000000000000000000000000000017f00000000000000000000000000000000000000000000000000000000000000003560080b348d1ca01e6ea8b4c69e8eb9a71777b7ccd3f44d265cee07b02bcebeabec396b889f724ba0361eed6a6ad8bfd4592f32617b3a21638a9e2c7789e1ad04ce9db26a48fcdeb4"
                }
            ],
            "Paris" : [
                {
                    "hash" : "0x41e5b6da201bdc837a773ab9eaa54c810a2d3166f20776b485223153528cb57b",
                    "indexes" : {
                        "data" : 0,
                        "gas" : 0,
                        "value" : 0
                    },
                    "logs" : "0x1dcc4de8dec75d7aab85b567b6ccd41ad312451b948a7413f0a142fd40d49347",
                    "txbytes" : "0xf8f4800a846dcfcf5294095e7baea6a6c7c4c2dfeb977efac326af552d87845741bf83b88e417f00000000000000000000000000000000000000000000000000000000000000017ffffffffffffffffffffffffffffffffffffffffffffffffffffffffffffffffe4450427f00000000000000000000000000000000000000000000000000000000000000017f00000000000000000000000000000000000000000000000000000000000000003560080b348d1ca01e6ea8b4c69e8eb9a71777b7ccd3f44d265cee07b02bcebeabec396b889f724ba0361eed6a6ad8bfd4592f32617b3a21638a9e2c7789e1ad04ce9db26a48fcdeb4"
                }
            ],
            "Shanghai" : [
                {
                    "hash" : "0x41e5b6da201bdc837a773ab9eaa54c810a2d3166f20776b485223153528cb57b",
                    "indexes" : {
                        "data" : 0,
                        "gas" : 0,
                        "value" : 0
                    },
                    "logs" : "0x1dcc4de8dec75d7aab85b567b6ccd41ad312451b948a7413f0a142fd40d49347",
                    "txbytes" : "0xf8f4800a846dcfcf5294095e7baea6a6c7c4c2dfeb977efac326af552d87845741bf83b88e417f00000000000000000000000000000000000000000000000000000000000000017ffffffffffffffffffffffffffffffffffffffffffffffffffffffffffffffffe4450427f00000000000000000000000000000000000000000000000000000000000000017f00000000000000000000000000000000000000000000000000000000000000003560080b348d1ca01e6ea8b4c69e8eb9a71777b7ccd3f44d265cee07b02bcebeabec396b889f724ba0361eed6a6ad8bfd4592f32617b3a21638a9e2c7789e1ad04ce9db26a48fcdeb4"
                }
            ]
        },
        "pre" : {
            "0x000f3df6d732807ef1319fb7b8bb8522d0beac02" : {
                "balance" : "0x00",
                "code" : "0x3373fffffffffffffffffffffffffffffffffffffffe14604d57602036146024575f5ffd5b5f35801560495762001fff810690815414603c575f5ffd5b62001fff01545f5260205ff35b5f5ffd5b62001fff42064281555f359062001fff015500",
                "nonce" : "0x01",
                "storage" : {
                }
            },
            "0x095e7baea6a6c7c4c2dfeb977efac326af552d87" : {
                "balance" : "0x00",
                "code" : "0x417f00000000000000000000000000000000000000000000000000000000000000017ffffffffffffffffffffffffffffffffffffffffffffffffffffffffffffffffe4450427f00000000000000000000000000000000000000000000000000000000000000017f00000000000000000000000000000000000000000000000000000000000000003560080b348d5560005155",
                "nonce" : "0x00",
                "storage" : {
                }
            },
            "0x945304eb96065b2a98b57a48a06ae28d285a71b5" : {
                "balance" : "0x2e",
                "code" : "0x6000355415600957005b60203560003555",
                "nonce" : "0x00",
                "storage" : {
                }
            },
            "0xa94f5374fce5edbc8e2a8697c15331677e6ebf0b" : {
                "balance" : "0x0de0b6b3a7640000",
                "code" : "0x",
                "nonce" : "0x00",
                "storage" : {
                }
            }
        },
        "transaction" : {
            "data" : [
                "0x417f00000000000000000000000000000000000000000000000000000000000000017ffffffffffffffffffffffffffffffffffffffffffffffffffffffffffffffffe4450427f00000000000000000000000000000000000000000000000000000000000000017f00000000000000000000000000000000000000000000000000000000000000003560080b348d"
            ],
            "gasLimit" : [
                "0x6dcfcf52"
            ],
            "gasPrice" : "0x0a",
            "nonce" : "0x00",
            "secretKey" : "0x45a915e4d060149eb4365960e6a7a45f334393093061116b197e3240065ff2d8",
            "sender" : "0xa94f5374fce5edbc8e2a8697c15331677e6ebf0b",
            "to" : "0x095e7baea6a6c7c4c2dfeb977efac326af552d87",
            "value" : [
                "0x5741bf83"
            ]
        }
    }
}