{
    "randomStatetest553" : {
        "_info" : {
            "comment" : "",
            "filling-rpc-server" : "evm version 1.11.4-unstable-e14043db-20230308",
            "filling-tool-version" : "retesteth-0.3.0-shanghai+commit.fd2c0a83.Linux.g++",
            "generatedTestHash" : "35659fb342a246e9c0d0b8f9cf71a3a3fb4f3a63231b94792ee2a3ccc02ca112",
            "lllcversion" : "Version: 0.5.14-develop.2022.7.30+commit.a096d7a9.Linux.g++",
            "solidity" : "Version: 0.8.17+commit.8df45f5f.Linux.g++",
            "source" : "src/GeneralStateTestsFiller/stRandom2/randomStatetest553Filler.json",
            "sourceHash" : "a53076e25b9a0ed88478a4df7ce45bb3e45527a6a4c48cf9661ed2bde0217b57"
        },
        "env" : {
            "currentBaseFee" : "0x0a",
            "currentCoinbase" : "0x945304eb96065b2a98b57a48a06ae28d285a71b5",
            "currentDifficulty" : "0x020000",
            "currentGasLimit" : "0x7fffffffffffffff",
            "currentNumber" : "0x01",
            "currentRandom" : "0x0000000000000000000000000000000000000000000000000000000000020000",
            "currentTimestamp" : "0x03e8",
            "previousHash" : "0x5e20a0453cecd065ea59c37ac63e079ee08998b6045136a8ce6635c7912ec0b6"
        },
        "post" : {
            "Berlin" : [
                {
                    "hash" : "0x99d9078cb261f50e328e00266a44bd00366108ff6bb6edad5ccd2cf58fc8064b",
                    "indexes" : {
                        "data" : 0,
                        "gas" : 0,
                        "value" : 0
                    },
                    "logs" : "0x1dcc4de8dec75d7aab85b567b6ccd41ad312451b948a7413f0a142fd40d49347",
                    "txbytes" : "0xf9015d800a8454f14b6594095e7baea6a6c7c4c2dfeb977efac326af552d8783022fb6b8f87f00000000000000000000000000000000000000000000000000000000000000017f000000000000000000000000945304eb96065b2a98b57a48a06ae28d285a71b57ffffffffffffffffffffffffffffffffffffffffffffffffffffffffffffffffe7f00000000000000000000000100000000000000000000000000000000000000007f000000000000000000000000ffffffffffffffffffffffffffffffffffffffff7f000000000000000000000000ffffffffffffffffffffffffffffffffffffffff7f00000000000000000000000000000000000000000000000000000000000000016f94819c780585376da073368c45828ca01ca095547089002e311a7b874e2eac1ed9d3e84e88a183768644e38e7020450d9ddea053294baf84013e11f66c37818e22a6dff60c6c0a7c9d7b68ba8328e8ac8fa130"
                }
            ],
            "Istanbul" : [
                {
                    "hash" : "0x911c673dee8df3075f22dcf61ad6c2c1a8e60fefaeeceb460eafc5421f30332e",
                    "indexes" : {
                        "data" : 0,
                        "gas" : 0,
                        "value" : 0
                    },
                    "logs" : "0x1dcc4de8dec75d7aab85b567b6ccd41ad312451b948a7413f0a142fd40d49347",
                    "txbytes" : "0xf9015d800a8454f14b6594095e7baea6a6c7c4c2dfeb977efac326af552d8783022fb6b8f87f00000000000000000000000000000000000000000000000000000000000000017f000000000000000000000000945304eb96065b2a98b57a48a06ae28d285a71b57ffffffffffffffffffffffffffffffffffffffffffffffffffffffffffffffffe7f00000000000000000000000100000000000000000000000000000000000000007f000000000000000000000000ffffffffffffffffffffffffffffffffffffffff7f000000000000000000000000ffffffffffffffffffffffffffffffffffffffff7f00000000000000000000000000000000000000000000000000000000000000016f94819c780585376da073368c45828ca01ca095547089002e311a7b874e2eac1ed9d3e84e88a183768644e38e7020450d9ddea053294baf84013e11f66c37818e22a6dff60c6c0a7c9d7b68ba8328e8ac8fa130"
                }
            ],
            "London" : [
                {
                    "hash" : "0xbc3a0aff7c12c1a546fc29b41885d036dde89c6c2693e9633f595f32cee4686e",
                    "indexes" : {
                        "data" : 0,
                        "gas" : 0,
                        "value" : 0
                    },
                    "logs" : "0x1dcc4de8dec75d7aab85b567b6ccd41ad312451b948a7413f0a142fd40d49347",
                    "txbytes" : "0xf9015d800a8454f14b6594095e7baea6a6c7c4c2dfeb977efac326af552d8783022fb6b8f87f00000000000000000000000000000000000000000000000000000000000000017f000000000000000000000000945304eb96065b2a98b57a48a06ae28d285a71b57ffffffffffffffffffffffffffffffffffffffffffffffffffffffffffffffffe7f00000000000000000000000100000000000000000000000000000000000000007f000000000000000000000000ffffffffffffffffffffffffffffffffffffffff7f000000000000000000000000ffffffffffffffffffffffffffffffffffffffff7f00000000000000000000000000000000000000000000000000000000000000016f94819c780585376da073368c45828ca01ca095547089002e311a7b874e2eac1ed9d3e84e88a183768644e38e7020450d9ddea053294baf84013e11f66c37818e22a6dff60c6c0a7c9d7b68ba8328e8ac8fa130"
                }
            ],
            "Merge" : [
                {
                    "hash" : "0xbc3a0aff7c12c1a546fc29b41885d036dde89c6c2693e9633f595f32cee4686e",
                    "indexes" : {
                        "data" : 0,
                        "gas" : 0,
                        "value" : 0
                    },
                    "logs" : "0x1dcc4de8dec75d7aab85b567b6ccd41ad312451b948a7413f0a142fd40d49347",
                    "txbytes" : "0xf9015d800a8454f14b6594095e7baea6a6c7c4c2dfeb977efac326af552d8783022fb6b8f87f00000000000000000000000000000000000000000000000000000000000000017f000000000000000000000000945304eb96065b2a98b57a48a06ae28d285a71b57ffffffffffffffffffffffffffffffffffffffffffffffffffffffffffffffffe7f00000000000000000000000100000000000000000000000000000000000000007f000000000000000000000000ffffffffffffffffffffffffffffffffffffffff7f000000000000000000000000ffffffffffffffffffffffffffffffffffffffff7f00000000000000000000000000000000000000000000000000000000000000016f94819c780585376da073368c45828ca01ca095547089002e311a7b874e2eac1ed9d3e84e88a183768644e38e7020450d9ddea053294baf84013e11f66c37818e22a6dff60c6c0a7c9d7b68ba8328e8ac8fa130"
                }
            ],
            "Shanghai" : [
                {
                    "hash" : "0xbc3a0aff7c12c1a546fc29b41885d036dde89c6c2693e9633f595f32cee4686e",
                    "indexes" : {
                        "data" : 0,
                        "gas" : 0,
                        "value" : 0
                    },
                    "logs" : "0x1dcc4de8dec75d7aab85b567b6ccd41ad312451b948a7413f0a142fd40d49347",
                    "txbytes" : "0xf9015d800a8454f14b6594095e7baea6a6c7c4c2dfeb977efac326af552d8783022fb6b8f87f00000000000000000000000000000000000000000000000000000000000000017f000000000000000000000000945304eb96065b2a98b57a48a06ae28d285a71b57ffffffffffffffffffffffffffffffffffffffffffffffffffffffffffffffffe7f00000000000000000000000100000000000000000000000000000000000000007f000000000000000000000000ffffffffffffffffffffffffffffffffffffffff7f000000000000000000000000ffffffffffffffffffffffffffffffffffffffff7f00000000000000000000000000000000000000000000000000000000000000016f94819c780585376da073368c45828ca01ca095547089002e311a7b874e2eac1ed9d3e84e88a183768644e38e7020450d9ddea053294baf84013e11f66c37818e22a6dff60c6c0a7c9d7b68ba8328e8ac8fa130"
                }
            ]
        },
        "pre" : {
            "0x095e7baea6a6c7c4c2dfeb977efac326af552d87" : {
                "balance" : "0x00",
                "code" : "0x7f00000000000000000000000000000000000000000000000000000000000000017f000000000000000000000000945304eb96065b2a98b57a48a06ae28d285a71b57ffffffffffffffffffffffffffffffffffffffffffffffffffffffffffffffffe7f00000000000000000000000100000000000000000000000000000000000000007f000000000000000000000000ffffffffffffffffffffffffffffffffffffffff7f000000000000000000000000ffffffffffffffffffffffffffffffffffffffff7f00000000000000000000000000000000000000000000000000000000000000016f94819c780585376da073368c45828ca060005155",
                "nonce" : "0x00",
                "storage" : {
                }
            },
            "0x945304eb96065b2a98b57a48a06ae28d285a71b5" : {
                "balance" : "0x2e",
                "code" : "0x6000355415600957005b60203560003555",
                "nonce" : "0x00",
                "storage" : {
                }
            },
            "0xa94f5374fce5edbc8e2a8697c15331677e6ebf0b" : {
                "balance" : "0x0de0b6b3a7640000",
                "code" : "0x",
                "nonce" : "0x00",
                "storage" : {
                }
            }
        },
        "transaction" : {
            "data" : [
                "0x7f00000000000000000000000000000000000000000000000000000000000000017f000000000000000000000000945304eb96065b2a98b57a48a06ae28d285a71b57ffffffffffffffffffffffffffffffffffffffffffffffffffffffffffffffffe7f00000000000000000000000100000000000000000000000000000000000000007f000000000000000000000000ffffffffffffffffffffffffffffffffffffffff7f000000000000000000000000ffffffffffffffffffffffffffffffffffffffff7f00000000000000000000000000000000000000000000000000000000000000016f94819c780585376da073368c45828ca0"
            ],
            "gasLimit" : [
                "0x54f14b65"
            ],
            "gasPrice" : "0x0a",
            "nonce" : "0x00",
            "secretKey" : "0x45a915e4d060149eb4365960e6a7a45f334393093061116b197e3240065ff2d8",
            "sender" : "0xa94f5374fce5edbc8e2a8697c15331677e6ebf0b",
            "to" : "0x095e7baea6a6c7c4c2dfeb977efac326af552d87",
            "value" : [
                "0x022fb6"
            ]
        }
    }
}