{
    "randomStatetest587" : {
        "_info" : {
            "comment" : "",
            "filling-rpc-server" : "evm version 1.10.2-unstable-22082f9e-20210309",
            "filling-tool-version" : "retesteth-0.1.0-accesslist+commit.47c69eb3.Linux.g++",
            "lllcversion" : "Version: 0.5.14-develop.2020.6.22+commit.9189ad7a.Linux.g++",
            "source" : "src/GeneralStateTestsFiller/stRandom2/randomStatetest587Filler.json",
            "sourceHash" : "27d29ea6b18dfe634d5221a3be08d5784e9b46778c987ae9f73f3251ec4de6a0"
        },
        "env" : {
            "currentCoinbase" : "0x945304eb96065b2a98b57a48a06ae28d285a71b5",
            "currentDifficulty" : "0x020000",
            "currentGasLimit" : "0x7fffffffffffffff",
            "currentNumber" : "0x01",
            "currentTimestamp" : "0x03e8",
            "previousHash" : "0x5e20a0453cecd065ea59c37ac63e079ee08998b6045136a8ce6635c7912ec0b6"
        },
        "post" : {
            "Berlin" : [
                {
                    "indexes" : {
                        "data" : 0,
                        "gas" : 0,
                        "value" : 0
                    },
                    "hash" : "0xffe2810a5803cab8f1a55d6d60439507593a79fb511b573ac186ff517dc124b7",
                    "txbytes" : "0xf9013e80018479afcd8f94095e7baea6a6c7c4c2dfeb977efac326af552d878411604410b8d87f000000000000000000000000945304eb96065b2a98b57a48a06ae28d285a71b57ffffffffffffffffffffffffffffffffffffffffffffffffffffffffffffffffe7f00000000000000000000000000000000000000000000000000000000000000007f000000000000000000000000000000000000000000000000000000000000c350117f0000000000000000000000000000000000000000000000000000000000000001457f000000000000000000000000945304eb96065b2a98b57a48a06ae28d285a71b56f8b7152a3958a923c1665b27557089a1ca0be4e336636a8362bbe451ccb2ec50d3a5e189a129643bef43ebc9b8754d39e69a0415382f0bb381e1c2a799ba2c597539faa0dca994247fa3424aa60193667bc25",
                    "logs" : "0x1dcc4de8dec75d7aab85b567b6ccd41ad312451b948a7413f0a142fd40d49347"
                }
            ],
            "Istanbul" : [
                {
                    "indexes" : {
                        "data" : 0,
                        "gas" : 0,
                        "value" : 0
                    },
                    "hash" : "0xd3d15b2cbe9ed8e4375998e7fb2198061a6a73eb6d991001e82665d2ed761e87",
                    "txbytes" : "0xf9013e80018479afcd8f94095e7baea6a6c7c4c2dfeb977efac326af552d878411604410b8d87f000000000000000000000000945304eb96065b2a98b57a48a06ae28d285a71b57ffffffffffffffffffffffffffffffffffffffffffffffffffffffffffffffffe7f00000000000000000000000000000000000000000000000000000000000000007f000000000000000000000000000000000000000000000000000000000000c350117f0000000000000000000000000000000000000000000000000000000000000001457f000000000000000000000000945304eb96065b2a98b57a48a06ae28d285a71b56f8b7152a3958a923c1665b27557089a1ca0be4e336636a8362bbe451ccb2ec50d3a5e189a129643bef43ebc9b8754d39e69a0415382f0bb381e1c2a799ba2c597539faa0dca994247fa3424aa60193667bc25",
                    "logs" : "0x1dcc4de8dec75d7aab85b567b6ccd41ad312451b948a7413f0a142fd40d49347"
                }
            ]
        },
        "pre" : {
            "0x095e7baea6a6c7c4c2dfeb977efac326af552d87" : {
                "balance" : "0x00",
                "code" : "0x7f000000000000000000000000945304eb96065b2a98b57a48a06ae28d285a71b57ffffffffffffffffffffffffffffffffffffffffffffffffffffffffffffffffe7f00000000000000000000000000000000000000000000000000000000000000007f000000000000000000000000000000000000000000000000000000000000c350117f0000000000000000000000000000000000000000000000000000000000000001457f000000000000000000000000945304eb96065b2a98b57a48a06ae28d285a71b56f8b7152a3958a923c1665b27557089a5560005155",
                "nonce" : "0x00",
                "storage" : {
                }
            },
            "0x945304eb96065b2a98b57a48a06ae28d285a71b5" : {
                "balance" : "0x2e",
                "code" : "0x6000355415600957005b60203560003555",
                "nonce" : "0x00",
                "storage" : {
                }
            },
            "0xa94f5374fce5edbc8e2a8697c15331677e6ebf0b" : {
                "balance" : "0x0de0b6b3a7640000",
                "code" : "0x",
                "nonce" : "0x00",
                "storage" : {
                }
            }
        },
        "transaction" : {
            "data" : [
                "0x7f000000000000000000000000945304eb96065b2a98b57a48a06ae28d285a71b57ffffffffffffffffffffffffffffffffffffffffffffffffffffffffffffffffe7f00000000000000000000000000000000000000000000000000000000000000007f000000000000000000000000000000000000000000000000000000000000c350117f0000000000000000000000000000000000000000000000000000000000000001457f000000000000000000000000945304eb96065b2a98b57a48a06ae28d285a71b56f8b7152a3958a923c1665b27557089a"
            ],
            "gasLimit" : [
                "0x79afcd8f"
            ],
            "gasPrice" : "0x01",
            "nonce" : "0x00",
            "secretKey" : "0x45a915e4d060149eb4365960e6a7a45f334393093061116b197e3240065ff2d8",
            "to" : "0x095e7baea6a6c7c4c2dfeb977efac326af552d87",
            "value" : [
                "0x11604410"
            ]
        }
    }
}