{
    "randomStatetest408" : {
        "_info" : {
            "comment" : "",
            "filling-rpc-server" : "evm version 1.13.11-unstable-765f2904-20240124",
            "filling-tool-version" : "retesteth-0.3.2-cancun+commit.ea13235b.Linux.g++",
            "generatedTestHash" : "a42bc23c1a6a89a6c6ff51130d67d2f6e7becf41ead3051b13efc0611989c16c",
            "lllcversion" : "Version: 0.5.14-develop.2023.7.11+commit.c58ab2c6.mod.Linux.g++",
            "solidity" : "Version: 0.8.21+commit.d9974bed.Linux.g++",
            "source" : "src/GeneralStateTestsFiller/stRandom2/randomStatetest408Filler.json",
            "sourceHash" : "2fe8c187babf156b7298beae0cd02f08ee3a23db4d026d87330cfdccccbd0848"
        },
        "env" : {
            "currentBaseFee" : "0x0a",
            "currentCoinbase" : "0x945304eb96065b2a98b57a48a06ae28d285a71b5",
            "currentDifficulty" : "0x020000",
            "currentExcessBlobGas" : "0x00",
            "currentGasLimit" : "0x7fffffffffffffff",
            "currentNumber" : "0x01",
            "currentRandom" : "0x0000000000000000000000000000000000000000000000000000000000020000",
            "currentTimestamp" : "0x03e8"
        },
        "post" : {
            "Berlin" : [
                {
                    "hash" : "0x2ed590671019a35e903d64b79584b9879c01bc40dadc3845998a22a790ae9325",
                    "indexes" : {
                        "data" : 0,
                        "gas" : 0,
                        "value" : 0
                    },
                    "logs" : "0x1dcc4de8dec75d7aab85b567b6ccd41ad312451b948a7413f0a142fd40d49347",
                    "txbytes" : "0xf9015e800a84735c9a8094095e7baea6a6c7c4c2dfeb977efac326af552d878463ad417fb8f87ffffffffffffffffffffffffffffffffffffffffffffffffffffffffffffffffe447f000000000000000000000000945304eb96065b2a98b57a48a06ae28d285a71b57fffffffffffffffffffffffffffffffffffffffffffffffffffffffffffffffff7f00000000000000000000000000000000000000000000000000000000000000017f000000000000000000000000000000000000000000000000000000000000c3507ffffffffffffffffffffffffffffffffffffffffffffffffffffffffffffffffe7f000000000000000000000000ffffffffffffffffffffffffffffffffffffffff6f80656e8e6478946a323482135a8bf71ba033eb5c9304c1d0ee43a4e8838f9437fe959f719c5e15b224b86318d0b97cb330a00eac2465305bd4f24ceda123366ce6246c58d4292cd8986d034314683f263fe7"
                }
            ],
            "Cancun" : [
                {
                    "hash" : "0x89644f6385499252bccfe82fc13cdac88e44f0c1f719e043808c9973edad0df6",
                    "indexes" : {
                        "data" : 0,
                        "gas" : 0,
                        "value" : 0
                    },
                    "logs" : "0x1dcc4de8dec75d7aab85b567b6ccd41ad312451b948a7413f0a142fd40d49347",
                    "txbytes" : "0xf9015e800a84735c9a8094095e7baea6a6c7c4c2dfeb977efac326af552d878463ad417fb8f87ffffffffffffffffffffffffffffffffffffffffffffffffffffffffffffffffe447f000000000000000000000000945304eb96065b2a98b57a48a06ae28d285a71b57fffffffffffffffffffffffffffffffffffffffffffffffffffffffffffffffff7f00000000000000000000000000000000000000000000000000000000000000017f000000000000000000000000000000000000000000000000000000000000c3507ffffffffffffffffffffffffffffffffffffffffffffffffffffffffffffffffe7f000000000000000000000000ffffffffffffffffffffffffffffffffffffffff6f80656e8e6478946a323482135a8bf71ba033eb5c9304c1d0ee43a4e8838f9437fe959f719c5e15b224b86318d0b97cb330a00eac2465305bd4f24ceda123366ce6246c58d4292cd8986d034314683f263fe7"
                }
            ],
            "Istanbul" : [
                {
                    "hash" : "0x67579461172849b8f7f27ad86263757d5500f1ac42a71e82365589ae498b8082",
                    "indexes" : {
                        "data" : 0,
                        "gas" : 0,
                        "value" : 0
                    },
                    "logs" : "0x1dcc4de8dec75d7aab85b567b6ccd41ad312451b948a7413f0a142fd40d49347",
                    "txbytes" : "0xf9015e800a84735c9a8094095e7baea6a6c7c4c2dfeb977efac326af552d878463ad417fb8f87ffffffffffffffffffffffffffffffffffffffffffffffffffffffffffffffffe447f000000000000000000000000945304eb96065b2a98b57a48a06ae28d285a71b57fffffffffffffffffffffffffffffffffffffffffffffffffffffffffffffffff7f00000000000000000000000000000000000000000000000000000000000000017f000000000000000000000000000000000000000000000000000000000000c3507ffffffffffffffffffffffffffffffffffffffffffffffffffffffffffffffffe7f000000000000000000000000ffffffffffffffffffffffffffffffffffffffff6f80656e8e6478946a323482135a8bf71ba033eb5c9304c1d0ee43a4e8838f9437fe959f719c5e15b224b86318d0b97cb330a00eac2465305bd4f24ceda123366ce6246c58d4292cd8986d034314683f263fe7"
                }
            ],
            "London" : [
                {
                    "hash" : "0x89644f6385499252bccfe82fc13cdac88e44f0c1f719e043808c9973edad0df6",
                    "indexes" : {
                        "data" : 0,
                        "gas" : 0,
                        "value" : 0
                    },
                    "logs" : "0x1dcc4de8dec75d7aab85b567b6ccd41ad312451b948a7413f0a142fd40d49347",
                    "txbytes" : "0xf9015e800a84735c9a8094095e7baea6a6c7c4c2dfeb977efac326af552d878463ad417fb8f87ffffffffffffffffffffffffffffffffffffffffffffffffffffffffffffffffe447f000000000000000000000000945304eb96065b2a98b57a48a06ae28d285a71b57fffffffffffffffffffffffffffffffffffffffffffffffffffffffffffffffff7f00000000000000000000000000000000000000000000000000000000000000017f000000000000000000000000000000000000000000000000000000000000c3507ffffffffffffffffffffffffffffffffffffffffffffffffffffffffffffffffe7f000000000000000000000000ffffffffffffffffffffffffffffffffffffffff6f80656e8e6478946a323482135a8bf71ba033eb5c9304c1d0ee43a4e8838f9437fe959f719c5e15b224b86318d0b97cb330a00eac2465305bd4f24ceda123366ce6246c58d4292cd8986d034314683f263fe7"
                }
            ],
            "Paris" : [
                {
                    "hash" : "0x89644f6385499252bccfe82fc13cdac88e44f0c1f719e043808c9973edad0df6",
                    "indexes" : {
                        "data" : 0,
                        "gas" : 0,
                        "value" : 0
                    },
                    "logs" : "0x1dcc4de8dec75d7aab85b567b6ccd41ad312451b948a7413f0a142fd40d49347",
                    "txbytes" : "0xf9015e800a84735c9a8094095e7baea6a6c7c4c2dfeb977efac326af552d878463ad417fb8f87ffffffffffffffffffffffffffffffffffffffffffffffffffffffffffffffffe447f000000000000000000000000945304eb96065b2a98b57a48a06ae28d285a71b57fffffffffffffffffffffffffffffffffffffffffffffffffffffffffffffffff7f00000000000000000000000000000000000000000000000000000000000000017f000000000000000000000000000000000000000000000000000000000000c3507ffffffffffffffffffffffffffffffffffffffffffffffffffffffffffffffffe7f000000000000000000000000ffffffffffffffffffffffffffffffffffffffff6f80656e8e6478946a323482135a8bf71ba033eb5c9304c1d0ee43a4e8838f9437fe959f719c5e15b224b86318d0b97cb330a00eac2465305bd4f24ceda123366ce6246c58d4292cd8986d034314683f263fe7"
                }
            ],
            "Shanghai" : [
                {
                    "hash" : "0x89644f6385499252bccfe82fc13cdac88e44f0c1f719e043808c9973edad0df6",
                    "indexes" : {
                        "data" : 0,
                        "gas" : 0,
                        "value" : 0
                    },
                    "logs" : "0x1dcc4de8dec75d7aab85b567b6ccd41ad312451b948a7413f0a142fd40d49347",
                    "txbytes" : "0xf9015e800a84735c9a8094095e7baea6a6c7c4c2dfeb977efac326af552d878463ad417fb8f87ffffffffffffffffffffffffffffffffffffffffffffffffffffffffffffffffe447f000000000000000000000000945304eb96065b2a98b57a48a06ae28d285a71b57fffffffffffffffffffffffffffffffffffffffffffffffffffffffffffffffff7f00000000000000000000000000000000000000000000000000000000000000017f000000000000000000000000000000000000000000000000000000000000c3507ffffffffffffffffffffffffffffffffffffffffffffffffffffffffffffffffe7f000000000000000000000000ffffffffffffffffffffffffffffffffffffffff6f80656e8e6478946a323482135a8bf71ba033eb5c9304c1d0ee43a4e8838f9437fe959f719c5e15b224b86318d0b97cb330a00eac2465305bd4f24ceda123366ce6246c58d4292cd8986d034314683f263fe7"
                }
            ]
        },
        "pre" : {
            "0x095e7baea6a6c7c4c2dfeb977efac326af552d87" : {
                "balance" : "0x00",
                "code" : "0x7ffffffffffffffffffffffffffffffffffffffffffffffffffffffffffffffffe447f000000000000000000000000945304eb96065b2a98b57a48a06ae28d285a71b57fffffffffffffffffffffffffffffffffffffffffffffffffffffffffffffffff7f00000000000000000000000000000000000000000000000000000000000000017f000000000000000000000000000000000000000000000000000000000000c3507ffffffffffffffffffffffffffffffffffffffffffffffffffffffffffffffffe7f000000000000000000000000ffffffffffffffffffffffffffffffffffffffff6f80656e8e6478946a323482135a8bf75560005155",
                "nonce" : "0x00",
                "storage" : {
                }
            },
            "0x945304eb96065b2a98b57a48a06ae28d285a71b5" : {
                "balance" : "0x2e",
                "code" : "0x6000355415600957005b60203560003555",
                "nonce" : "0x00",
                "storage" : {
                }
            },
            "0xa94f5374fce5edbc8e2a8697c15331677e6ebf0b" : {
                "balance" : "0x0de0b6b3a7640000",
                "code" : "0x",
                "nonce" : "0x00",
                "storage" : {
                }
            }
        },
        "transaction" : {
            "data" : [
                "0x7ffffffffffffffffffffffffffffffffffffffffffffffffffffffffffffffffe447f000000000000000000000000945304eb96065b2a98b57a48a06ae28d285a71b57fffffffffffffffffffffffffffffffffffffffffffffffffffffffffffffffff7f00000000000000000000000000000000000000000000000000000000000000017f000000000000000000000000000000000000000000000000000000000000c3507ffffffffffffffffffffffffffffffffffffffffffffffffffffffffffffffffe7f000000000000000000000000ffffffffffffffffffffffffffffffffffffffff6f80656e8e6478946a323482135a8bf7"
            ],
            "gasLimit" : [
                "0x735c9a80"
            ],
            "gasPrice" : "0x0a",
            "nonce" : "0x00",
            "secretKey" : "0x45a915e4d060149eb4365960e6a7a45f334393093061116b197e3240065ff2d8",
            "sender" : "0xa94f5374fce5edbc8e2a8697c15331677e6ebf0b",
            "to" : "0x095e7baea6a6c7c4c2dfeb977efac326af552d87",
            "value" : [
                "0x63ad417f"
            ]
        }
    }
}