{
    "randomStatetest430" : {
        "_info" : {
            "comment" : "",
            "filling-rpc-server" : "evm version 1.11.4-unstable-e14043db-20230308",
            "filling-tool-version" : "retesteth-0.3.0-shanghai+commit.fd2c0a83.Linux.g++",
            "generatedTestHash" : "e4016f8a4ac3c04246940472213e112aeb5aa002a66947b79a325b120d28df14",
            "lllcversion" : "Version: 0.5.14-develop.2022.7.30+commit.a096d7a9.Linux.g++",
            "solidity" : "Version: 0.8.17+commit.8df45f5f.Linux.g++",
            "source" : "src/GeneralStateTestsFiller/stRandom2/randomStatetest430Filler.json",
            "sourceHash" : "b2d9e247bd9d34c68d2c33ee4ea28c2935bc557c9eaa28175150ac6a8fee8502"
        },
        "env" : {
            "currentBaseFee" : "0x0a",
            "currentCoinbase" : "0x945304eb96065b2a98b57a48a06ae28d285a71b5",
            "currentDifficulty" : "0x020000",
            "currentGasLimit" : "0x7fffffffffffffff",
            "currentNumber" : "0x01",
            "currentRandom" : "0x0000000000000000000000000000000000000000000000000000000000020000",
            "currentTimestamp" : "0x03e8",
            "previousHash" : "0x5e20a0453cecd065ea59c37ac63e079ee08998b6045136a8ce6635c7912ec0b6"
        },
        "post" : {
            "Berlin" : [
                {
                    "hash" : "0xa5e74bd6bc8f3e50764357cf9c46346f0fe8b10cacbf3968d579aa4733c69665",
                    "indexes" : {
                        "data" : 0,
                        "gas" : 0,
                        "value" : 0
                    },
                    "logs" : "0x1dcc4de8dec75d7aab85b567b6ccd41ad312451b948a7413f0a142fd40d49347",
                    "txbytes" : "0xf9015e800a84607daefc94095e7baea6a6c7c4c2dfeb977efac326af552d87846bf5e61fb8f87ffffffffffffffffffffffffffffffffffffffffffffffffffffffffffffffffe427f000000000000000000000000000000000000000000000000000000000000c3507fffffffffffffffffffffffffffffffffffffffffffffffffffffffffffffffff7f000000000000000000000000000000000000000000000000000000000000c3507f000000000000000000000000945304eb96065b2a98b57a48a06ae28d285a71b57f00000000000000000000000000000000000000000000000000000000000000017f00000000000000000000000000000000000000000000000000000000000000006f7d41a29934035b748e96a3135b69641ba0af29e2e20ecdf78b24fea27be45f23471052bdc6350265f327e36cb0a9c13ed3a0652e8fb0c727b27bcd5f7401c052343dd46529b31456b4aa4829fbea1f2a0910"
                }
            ],
            "Istanbul" : [
                {
                    "hash" : "0x6778cd050a4f2c74d438cec3f7d18eb42643999e87aace060cabfbf7ccc301d0",
                    "indexes" : {
                        "data" : 0,
                        "gas" : 0,
                        "value" : 0
                    },
                    "logs" : "0x1dcc4de8dec75d7aab85b567b6ccd41ad312451b948a7413f0a142fd40d49347",
                    "txbytes" : "0xf9015e800a84607daefc94095e7baea6a6c7c4c2dfeb977efac326af552d87846bf5e61fb8f87ffffffffffffffffffffffffffffffffffffffffffffffffffffffffffffffffe427f000000000000000000000000000000000000000000000000000000000000c3507fffffffffffffffffffffffffffffffffffffffffffffffffffffffffffffffff7f000000000000000000000000000000000000000000000000000000000000c3507f000000000000000000000000945304eb96065b2a98b57a48a06ae28d285a71b57f00000000000000000000000000000000000000000000000000000000000000017f00000000000000000000000000000000000000000000000000000000000000006f7d41a29934035b748e96a3135b69641ba0af29e2e20ecdf78b24fea27be45f23471052bdc6350265f327e36cb0a9c13ed3a0652e8fb0c727b27bcd5f7401c052343dd46529b31456b4aa4829fbea1f2a0910"
                }
            ],
            "London" : [
                {
                    "hash" : "0xf8fd07eda1a0207dd2e83638c8da78f173dc36e9905f0ffae3d1c498adb564a4",
                    "indexes" : {
                        "data" : 0,
                        "gas" : 0,
                        "value" : 0
                    },
                    "logs" : "0x1dcc4de8dec75d7aab85b567b6ccd41ad312451b948a7413f0a142fd40d49347",
                    "txbytes" : "0xf9015e800a84607daefc94095e7baea6a6c7c4c2dfeb977efac326af552d87846bf5e61fb8f87ffffffffffffffffffffffffffffffffffffffffffffffffffffffffffffffffe427f000000000000000000000000000000000000000000000000000000000000c3507fffffffffffffffffffffffffffffffffffffffffffffffffffffffffffffffff7f000000000000000000000000000000000000000000000000000000000000c3507f000000000000000000000000945304eb96065b2a98b57a48a06ae28d285a71b57f00000000000000000000000000000000000000000000000000000000000000017f00000000000000000000000000000000000000000000000000000000000000006f7d41a29934035b748e96a3135b69641ba0af29e2e20ecdf78b24fea27be45f23471052bdc6350265f327e36cb0a9c13ed3a0652e8fb0c727b27bcd5f7401c052343dd46529b31456b4aa4829fbea1f2a0910"
                }
            ],
            "Merge" : [
                {
                    "hash" : "0xf8fd07eda1a0207dd2e83638c8da78f173dc36e9905f0ffae3d1c498adb564a4",
                    "indexes" : {
                        "data" : 0,
                        "gas" : 0,
                        "value" : 0
                    },
                    "logs" : "0x1dcc4de8dec75d7aab85b567b6ccd41ad312451b948a7413f0a142fd40d49347",
                    "txbytes" : "0xf9015e800a84607daefc94095e7baea6a6c7c4c2dfeb977efac326af552d87846bf5e61fb8f87ffffffffffffffffffffffffffffffffffffffffffffffffffffffffffffffffe427f000000000000000000000000000000000000000000000000000000000000c3507fffffffffffffffffffffffffffffffffffffffffffffffffffffffffffffffff7f000000000000000000000000000000000000000000000000000000000000c3507f000000000000000000000000945304eb96065b2a98b57a48a06ae28d285a71b57f00000000000000000000000000000000000000000000000000000000000000017f00000000000000000000000000000000000000000000000000000000000000006f7d41a29934035b748e96a3135b69641ba0af29e2e20ecdf78b24fea27be45f23471052bdc6350265f327e36cb0a9c13ed3a0652e8fb0c727b27bcd5f7401c052343dd46529b31456b4aa4829fbea1f2a0910"
                }
            ],
            "Shanghai" : [
                {
                    "hash" : "0xf8fd07eda1a0207dd2e83638c8da78f173dc36e9905f0ffae3d1c498adb564a4",
                    "indexes" : {
                        "data" : 0,
                        "gas" : 0,
                        "value" : 0
                    },
                    "logs" : "0x1dcc4de8dec75d7aab85b567b6ccd41ad312451b948a7413f0a142fd40d49347",
                    "txbytes" : "0xf9015e800a84607daefc94095e7baea6a6c7c4c2dfeb977efac326af552d87846bf5e61fb8f87ffffffffffffffffffffffffffffffffffffffffffffffffffffffffffffffffe427f000000000000000000000000000000000000000000000000000000000000c3507fffffffffffffffffffffffffffffffffffffffffffffffffffffffffffffffff7f000000000000000000000000000000000000000000000000000000000000c3507f000000000000000000000000945304eb96065b2a98b57a48a06ae28d285a71b57f00000000000000000000000000000000000000000000000000000000000000017f00000000000000000000000000000000000000000000000000000000000000006f7d41a29934035b748e96a3135b69641ba0af29e2e20ecdf78b24fea27be45f23471052bdc6350265f327e36cb0a9c13ed3a0652e8fb0c727b27bcd5f7401c052343dd46529b31456b4aa4829fbea1f2a0910"
                }
            ]
        },
        "pre" : {
            "0x095e7baea6a6c7c4c2dfeb977efac326af552d87" : {
                "balance" : "0x00",
                "code" : "0x7ffffffffffffffffffffffffffffffffffffffffffffffffffffffffffffffffe427f000000000000000000000000000000000000000000000000000000000000c3507fffffffffffffffffffffffffffffffffffffffffffffffffffffffffffffffff7f000000000000000000000000000000000000000000000000000000000000c3507f000000000000000000000000945304eb96065b2a98b57a48a06ae28d285a71b57f00000000000000000000000000000000000000000000000000000000000000017f00000000000000000000000000000000000000000000000000000000000000006f7d41a29934035b748e96a3135b69645560005155",
                "nonce" : "0x00",
                "storage" : {
                }
            },
            "0x945304eb96065b2a98b57a48a06ae28d285a71b5" : {
                "balance" : "0x2e",
                "code" : "0x6000355415600957005b60203560003555",
                "nonce" : "0x00",
                "storage" : {
                }
            },
            "0xa94f5374fce5edbc8e2a8697c15331677e6ebf0b" : {
                "balance" : "0x0de0b6b3a7640000",
                "code" : "0x",
                "nonce" : "0x00",
                "storage" : {
                }
            }
        },
        "transaction" : {
            "data" : [
                "0x7ffffffffffffffffffffffffffffffffffffffffffffffffffffffffffffffffe427f000000000000000000000000000000000000000000000000000000000000c3507fffffffffffffffffffffffffffffffffffffffffffffffffffffffffffffffff7f000000000000000000000000000000000000000000000000000000000000c3507f000000000000000000000000945304eb96065b2a98b57a48a06ae28d285a71b57f00000000000000000000000000000000000000000000000000000000000000017f00000000000000000000000000000000000000000000000000000000000000006f7d41a29934035b748e96a3135b6964"
            ],
            "gasLimit" : [
                "0x607daefc"
            ],
            "gasPrice" : "0x0a",
            "nonce" : "0x00",
            "secretKey" : "0x45a915e4d060149eb4365960e6a7a45f334393093061116b197e3240065ff2d8",
            "sender" : "0xa94f5374fce5edbc8e2a8697c15331677e6ebf0b",
            "to" : "0x095e7baea6a6c7c4c2dfeb977efac326af552d87",
            "value" : [
                "0x6bf5e61f"
            ]
        }
    }
}