{
    "randomStatetest415" : {
        "_info" : {
            "comment" : "",
            "filling-rpc-server" : "evm version 1.13.13-unstable-034bc466-20240219",
            "filling-tool-version" : "retesteth-0.3.2-cancun+commit.014a68a5.Linux.g++",
            "generatedTestHash" : "3f4a57febe968ae506f1ec49ee605446b06b149a2d316270baf61ab0759607e0",
            "lllcversion" : "Version: 0.5.14-develop.2023.7.11+commit.c58ab2c6.mod.Linux.g++",
            "solidity" : "Version: 0.8.21+commit.d9974bed.Linux.g++",
            "source" : "src/GeneralStateTestsFiller/stRandom2/randomStatetest415Filler.json",
            "sourceHash" : "e9e581e7dd8436751011d3a5f748be5f4eed4837e61be89dd30d39dce8d8c1ac"
        },
        "env" : {
            "currentBaseFee" : "0x0a",
            "currentCoinbase" : "0x945304eb96065b2a98b57a48a06ae28d285a71b5",
            "currentDifficulty" : "0x020000",
            "currentExcessBlobGas" : "0x00",
            "currentGasLimit" : "0x7fffffffffffffff",
            "currentNumber" : "0x01",
            "currentRandom" : "0x0000000000000000000000000000000000000000000000000000000000020000",
            "currentTimestamp" : "0x03e8"
        },
        "post" : {
            "Berlin" : [
                {
                    "hash" : "0x04f33287908d3a2f525dcf21a9e7dbf96f8aebf40565ff84124e9f52447658b6",
                    "indexes" : {
                        "data" : 0,
                        "gas" : 0,
                        "value" : 0
                    },
                    "logs" : "0x390428532a653dc4b4c8b06be33656ac6a7176560350b69582ef56c651362cdd",
                    "txbytes" : "0xf8f9800a8423bf317894095e7baea6a6c7c4c2dfeb977efac326af552d878449a12105b8937fffffffffffffffffffffffffffffffffffffffffffffffffffffffffffffffff437f000000000000000000000000000000000000000000000000000000000000000142427f000000000000000000000000945304eb96065b2a98b57a48a06ae28d285a71b5357f000000000000000000000000ffffffffffffffffffffffffffffffffffffffff62010a8c8794a17e8ea4f21ca078de88d60f30b18b6a673a7757d11f18a93bf637fd96fa0f53abd15e7e2b411aa04470ceec4c06ecc4af56dcdc767b5236793216bb31743b8d8e7b1aaed2ac1125"
                }
            ],
            "Cancun" : [
                {
                    "hash" : "0xbf4c7d2e509f844b2669c406007ec3034db911174d6205f42fb5ec2f9501e016",
                    "indexes" : {
                        "data" : 0,
                        "gas" : 0,
                        "value" : 0
                    },
                    "logs" : "0x390428532a653dc4b4c8b06be33656ac6a7176560350b69582ef56c651362cdd",
                    "txbytes" : "0xf8f9800a8423bf317894095e7baea6a6c7c4c2dfeb977efac326af552d878449a12105b8937fffffffffffffffffffffffffffffffffffffffffffffffffffffffffffffffff437f000000000000000000000000000000000000000000000000000000000000000142427f000000000000000000000000945304eb96065b2a98b57a48a06ae28d285a71b5357f000000000000000000000000ffffffffffffffffffffffffffffffffffffffff62010a8c8794a17e8ea4f21ca078de88d60f30b18b6a673a7757d11f18a93bf637fd96fa0f53abd15e7e2b411aa04470ceec4c06ecc4af56dcdc767b5236793216bb31743b8d8e7b1aaed2ac1125"
                }
            ],
            "Istanbul" : [
                {
                    "hash" : "0x04f33287908d3a2f525dcf21a9e7dbf96f8aebf40565ff84124e9f52447658b6",
                    "indexes" : {
                        "data" : 0,
                        "gas" : 0,
                        "value" : 0
                    },
                    "logs" : "0x390428532a653dc4b4c8b06be33656ac6a7176560350b69582ef56c651362cdd",
                    "txbytes" : "0xf8f9800a8423bf317894095e7baea6a6c7c4c2dfeb977efac326af552d878449a12105b8937fffffffffffffffffffffffffffffffffffffffffffffffffffffffffffffffff437f000000000000000000000000000000000000000000000000000000000000000142427f000000000000000000000000945304eb96065b2a98b57a48a06ae28d285a71b5357f000000000000000000000000ffffffffffffffffffffffffffffffffffffffff62010a8c8794a17e8ea4f21ca078de88d60f30b18b6a673a7757d11f18a93bf637fd96fa0f53abd15e7e2b411aa04470ceec4c06ecc4af56dcdc767b5236793216bb31743b8d8e7b1aaed2ac1125"
                }
            ],
            "London" : [
                {
                    "hash" : "0xa817816ac60c6fcde13d4ef149954eee3aeffe79c4e7a76903beee83297a89dc",
                    "indexes" : {
                        "data" : 0,
                        "gas" : 0,
                        "value" : 0
                    },
                    "logs" : "0x390428532a653dc4b4c8b06be33656ac6a7176560350b69582ef56c651362cdd",
                    "txbytes" : "0xf8f9800a8423bf317894095e7baea6a6c7c4c2dfeb977efac326af552d878449a12105b8937fffffffffffffffffffffffffffffffffffffffffffffffffffffffffffffffff437f000000000000000000000000000000000000000000000000000000000000000142427f000000000000000000000000945304eb96065b2a98b57a48a06ae28d285a71b5357f000000000000000000000000ffffffffffffffffffffffffffffffffffffffff62010a8c8794a17e8ea4f21ca078de88d60f30b18b6a673a7757d11f18a93bf637fd96fa0f53abd15e7e2b411aa04470ceec4c06ecc4af56dcdc767b5236793216bb31743b8d8e7b1aaed2ac1125"
                }
            ],
            "Paris" : [
                {
                    "hash" : "0xa817816ac60c6fcde13d4ef149954eee3aeffe79c4e7a76903beee83297a89dc",
                    "indexes" : {
                        "data" : 0,
                        "gas" : 0,
                        "value" : 0
                    },
                    "logs" : "0x390428532a653dc4b4c8b06be33656ac6a7176560350b69582ef56c651362cdd",
                    "txbytes" : "0xf8f9800a8423bf317894095e7baea6a6c7c4c2dfeb977efac326af552d878449a12105b8937fffffffffffffffffffffffffffffffffffffffffffffffffffffffffffffffff437f000000000000000000000000000000000000000000000000000000000000000142427f000000000000000000000000945304eb96065b2a98b57a48a06ae28d285a71b5357f000000000000000000000000ffffffffffffffffffffffffffffffffffffffff62010a8c8794a17e8ea4f21ca078de88d60f30b18b6a673a7757d11f18a93bf637fd96fa0f53abd15e7e2b411aa04470ceec4c06ecc4af56dcdc767b5236793216bb31743b8d8e7b1aaed2ac1125"
                }
            ],
            "Shanghai" : [
                {
                    "hash" : "0xa817816ac60c6fcde13d4ef149954eee3aeffe79c4e7a76903beee83297a89dc",
                    "indexes" : {
                        "data" : 0,
                        "gas" : 0,
                        "value" : 0
                    },
                    "logs" : "0x390428532a653dc4b4c8b06be33656ac6a7176560350b69582ef56c651362cdd",
                    "txbytes" : "0xf8f9800a8423bf317894095e7baea6a6c7c4c2dfeb977efac326af552d878449a12105b8937fffffffffffffffffffffffffffffffffffffffffffffffffffffffffffffffff437f000000000000000000000000000000000000000000000000000000000000000142427f000000000000000000000000945304eb96065b2a98b57a48a06ae28d285a71b5357f000000000000000000000000ffffffffffffffffffffffffffffffffffffffff62010a8c8794a17e8ea4f21ca078de88d60f30b18b6a673a7757d11f18a93bf637fd96fa0f53abd15e7e2b411aa04470ceec4c06ecc4af56dcdc767b5236793216bb31743b8d8e7b1aaed2ac1125"
                }
            ]
        },
        "pre" : {
            "0x000f3df6d732807ef1319fb7b8bb8522d0beac02" : {
                "balance" : "0x00",
                "code" : "0x3373fffffffffffffffffffffffffffffffffffffffe14604d57602036146024575f5ffd5b5f35801560495762001fff810690815414603c575f5ffd5b62001fff01545f5260205ff35b5f5ffd5b62001fff42064281555f359062001fff015500",
                "nonce" : "0x01",
                "storage" : {
                }
            },
            "0x095e7baea6a6c7c4c2dfeb977efac326af552d87" : {
                "balance" : "0x00",
                "code" : "0x7fffffffffffffffffffffffffffffffffffffffffffffffffffffffffffffffff437f000000000000000000000000000000000000000000000000000000000000000142427f000000000000000000000000945304eb96065b2a98b57a48a06ae28d285a71b5357f000000000000000000000000ffffffffffffffffffffffffffffffffffffffff62010a8c8794a17e8ea4f260005155",
                "nonce" : "0x00",
                "storage" : {
                }
            },
            "0x945304eb96065b2a98b57a48a06ae28d285a71b5" : {
                "balance" : "0x2e",
                "code" : "0x6000355415600957005b60203560003555",
                "nonce" : "0x00",
                "storage" : {
                }
            },
            "0xa94f5374fce5edbc8e2a8697c15331677e6ebf0b" : {
                "balance" : "0x0de0b6b3a7640000",
                "code" : "0x",
                "nonce" : "0x00",
                "storage" : {
                }
            }
        },
        "transaction" : {
            "data" : [
                "0x7fffffffffffffffffffffffffffffffffffffffffffffffffffffffffffffffff437f000000000000000000000000000000000000000000000000000000000000000142427f000000000000000000000000945304eb96065b2a98b57a48a06ae28d285a71b5357f000000000000000000000000ffffffffffffffffffffffffffffffffffffffff62010a8c8794a17e8ea4f2"
            ],
            "gasLimit" : [
                "0x23bf3178"
            ],
            "gasPrice" : "0x0a",
            "nonce" : "0x00",
            "secretKey" : "0x45a915e4d060149eb4365960e6a7a45f334393093061116b197e3240065ff2d8",
            "sender" : "0xa94f5374fce5edbc8e2a8697c15331677e6ebf0b",
            "to" : "0x095e7baea6a6c7c4c2dfeb977efac326af552d87",
            "value" : [
                "0x49a12105"
            ]
        }
    }
}