{
    "randomStatetest495" : {
        "_info" : {
            "comment" : "",
            "filling-rpc-server" : "evm version 1.13.13-unstable-034bc466-20240219",
            "filling-tool-version" : "retesteth-0.3.2-cancun+commit.014a68a5.Linux.g++",
            "generatedTestHash" : "5897d30627a6a30a5a7e8f7d041d0a89385af72df52271885c94497518b7ac78",
            "lllcversion" : "Version: 0.5.14-develop.2023.7.11+commit.c58ab2c6.mod.Linux.g++",
            "solidity" : "Version: 0.8.21+commit.d9974bed.Linux.g++",
            "source" : "src/GeneralStateTestsFiller/stRandom2/randomStatetest495Filler.json",
            "sourceHash" : "440da4f2d7ae2134bf4e6797c0e6bdae43a648be4ee60c2a37fed1d639275043"
        },
        "env" : {
            "currentBaseFee" : "0x0a",
            "currentCoinbase" : "0x945304eb96065b2a98b57a48a06ae28d285a71b5",
            "currentDifficulty" : "0x020000",
            "currentExcessBlobGas" : "0x00",
            "currentGasLimit" : "0x7fffffffffffffff",
            "currentNumber" : "0x01",
            "currentRandom" : "0x0000000000000000000000000000000000000000000000000000000000020000",
            "currentTimestamp" : "0x03e8"
        },
        "post" : {
            "Berlin" : [
                {
                    "hash" : "0x1a6b73e386d316d7d5e897e813300143cd7668cd26115b4f1886626fab0dbe1a",
                    "indexes" : {
                        "data" : 0,
                        "gas" : 0,
                        "value" : 0
                    },
                    "logs" : "0x1dcc4de8dec75d7aab85b567b6ccd41ad312451b948a7413f0a142fd40d49347",
                    "txbytes" : "0xf9013b800a842c138ff594095e7baea6a6c7c4c2dfeb977efac326af552d87840ca044eeb8d57f000000000000000000000000945304eb96065b2a98b57a48a06ae28d285a71b57f000000000000000000000000ffffffffffffffffffffffffffffffffffffffff7ffffffffffffffffffffffffffffffffffffffffffffffffffffffffffffffffe7f000000000000000000000000945304eb96065b2a98b57a48a06ae28d285a71b57f00000000000000000000000100000000000000000000000000000000000000006f427ffffffffffffffffffffffffffffffffffffffffffffffffffffffffffffffffe7e6410f26f519c538ea2070a6c1ca0a0eaac3c642f70f9d6df4a7cac549b9a6656fa94b20a443e4c4f79ce13cfec2ea0425a3f1964fe7308f66a26238c45e96911e994a41f1d7a630724f3a34429358d"
                }
            ],
            "Cancun" : [
                {
                    "hash" : "0x227555ff0f673eb3bdc6a20d4813c29d0a0a07b1f35dd090a13b6726f44f615a",
                    "indexes" : {
                        "data" : 0,
                        "gas" : 0,
                        "value" : 0
                    },
                    "logs" : "0x1dcc4de8dec75d7aab85b567b6ccd41ad312451b948a7413f0a142fd40d49347",
                    "txbytes" : "0xf9013b800a842c138ff594095e7baea6a6c7c4c2dfeb977efac326af552d87840ca044eeb8d57f000000000000000000000000945304eb96065b2a98b57a48a06ae28d285a71b57f000000000000000000000000ffffffffffffffffffffffffffffffffffffffff7ffffffffffffffffffffffffffffffffffffffffffffffffffffffffffffffffe7f000000000000000000000000945304eb96065b2a98b57a48a06ae28d285a71b57f00000000000000000000000100000000000000000000000000000000000000006f427ffffffffffffffffffffffffffffffffffffffffffffffffffffffffffffffffe7e6410f26f519c538ea2070a6c1ca0a0eaac3c642f70f9d6df4a7cac549b9a6656fa94b20a443e4c4f79ce13cfec2ea0425a3f1964fe7308f66a26238c45e96911e994a41f1d7a630724f3a34429358d"
                }
            ],
            "Istanbul" : [
                {
                    "hash" : "0x86997887da13a022d49e55facb33432417b4f28eb00f615f1613d2ad01d79f43",
                    "indexes" : {
                        "data" : 0,
                        "gas" : 0,
                        "value" : 0
                    },
                    "logs" : "0x1dcc4de8dec75d7aab85b567b6ccd41ad312451b948a7413f0a142fd40d49347",
                    "txbytes" : "0xf9013b800a842c138ff594095e7baea6a6c7c4c2dfeb977efac326af552d87840ca044eeb8d57f000000000000000000000000945304eb96065b2a98b57a48a06ae28d285a71b57f000000000000000000000000ffffffffffffffffffffffffffffffffffffffff7ffffffffffffffffffffffffffffffffffffffffffffffffffffffffffffffffe7f000000000000000000000000945304eb96065b2a98b57a48a06ae28d285a71b57f00000000000000000000000100000000000000000000000000000000000000006f427ffffffffffffffffffffffffffffffffffffffffffffffffffffffffffffffffe7e6410f26f519c538ea2070a6c1ca0a0eaac3c642f70f9d6df4a7cac549b9a6656fa94b20a443e4c4f79ce13cfec2ea0425a3f1964fe7308f66a26238c45e96911e994a41f1d7a630724f3a34429358d"
                }
            ],
            "London" : [
                {
                    "hash" : "0x67903a06ca45457db07cb5d466260a0eee84e19332440d08a689667ce4c3f7ad",
                    "indexes" : {
                        "data" : 0,
                        "gas" : 0,
                        "value" : 0
                    },
                    "logs" : "0x1dcc4de8dec75d7aab85b567b6ccd41ad312451b948a7413f0a142fd40d49347",
                    "txbytes" : "0xf9013b800a842c138ff594095e7baea6a6c7c4c2dfeb977efac326af552d87840ca044eeb8d57f000000000000000000000000945304eb96065b2a98b57a48a06ae28d285a71b57f000000000000000000000000ffffffffffffffffffffffffffffffffffffffff7ffffffffffffffffffffffffffffffffffffffffffffffffffffffffffffffffe7f000000000000000000000000945304eb96065b2a98b57a48a06ae28d285a71b57f00000000000000000000000100000000000000000000000000000000000000006f427ffffffffffffffffffffffffffffffffffffffffffffffffffffffffffffffffe7e6410f26f519c538ea2070a6c1ca0a0eaac3c642f70f9d6df4a7cac549b9a6656fa94b20a443e4c4f79ce13cfec2ea0425a3f1964fe7308f66a26238c45e96911e994a41f1d7a630724f3a34429358d"
                }
            ],
            "Paris" : [
                {
                    "hash" : "0x67903a06ca45457db07cb5d466260a0eee84e19332440d08a689667ce4c3f7ad",
                    "indexes" : {
                        "data" : 0,
                        "gas" : 0,
                        "value" : 0
                    },
                    "logs" : "0x1dcc4de8dec75d7aab85b567b6ccd41ad312451b948a7413f0a142fd40d49347",
                    "txbytes" : "0xf9013b800a842c138ff594095e7baea6a6c7c4c2dfeb977efac326af552d87840ca044eeb8d57f000000000000000000000000945304eb96065b2a98b57a48a06ae28d285a71b57f000000000000000000000000ffffffffffffffffffffffffffffffffffffffff7ffffffffffffffffffffffffffffffffffffffffffffffffffffffffffffffffe7f000000000000000000000000945304eb96065b2a98b57a48a06ae28d285a71b57f00000000000000000000000100000000000000000000000000000000000000006f427ffffffffffffffffffffffffffffffffffffffffffffffffffffffffffffffffe7e6410f26f519c538ea2070a6c1ca0a0eaac3c642f70f9d6df4a7cac549b9a6656fa94b20a443e4c4f79ce13cfec2ea0425a3f1964fe7308f66a26238c45e96911e994a41f1d7a630724f3a34429358d"
                }
            ],
            "Shanghai" : [
                {
                    "hash" : "0x67903a06ca45457db07cb5d466260a0eee84e19332440d08a689667ce4c3f7ad",
                    "indexes" : {
                        "data" : 0,
                        "gas" : 0,
                        "value" : 0
                    },
                    "logs" : "0x1dcc4de8dec75d7aab85b567b6ccd41ad312451b948a7413f0a142fd40d49347",
                    "txbytes" : "0xf9013b800a842c138ff594095e7baea6a6c7c4c2dfeb977efac326af552d87840ca044eeb8d57f000000000000000000000000945304eb96065b2a98b57a48a06ae28d285a71b57f000000000000000000000000ffffffffffffffffffffffffffffffffffffffff7ffffffffffffffffffffffffffffffffffffffffffffffffffffffffffffffffe7f000000000000000000000000945304eb96065b2a98b57a48a06ae28d285a71b57f00000000000000000000000100000000000000000000000000000000000000006f427ffffffffffffffffffffffffffffffffffffffffffffffffffffffffffffffffe7e6410f26f519c538ea2070a6c1ca0a0eaac3c642f70f9d6df4a7cac549b9a6656fa94b20a443e4c4f79ce13cfec2ea0425a3f1964fe7308f66a26238c45e96911e994a41f1d7a630724f3a34429358d"
                }
            ]
        },
        "pre" : {
            "0x000f3df6d732807ef1319fb7b8bb8522d0beac02" : {
                "balance" : "0x00",
                "code" : "0x3373fffffffffffffffffffffffffffffffffffffffe14604d57602036146024575f5ffd5b5f35801560495762001fff810690815414603c575f5ffd5b62001fff01545f5260205ff35b5f5ffd5b62001fff42064281555f359062001fff015500",
                "nonce" : "0x01",
                "storage" : {
                }
            },
            "0x095e7baea6a6c7c4c2dfeb977efac326af552d87" : {
                "balance" : "0x00",
                "code" : "0x7f000000000000000000000000945304eb96065b2a98b57a48a06ae28d285a71b57f000000000000000000000000ffffffffffffffffffffffffffffffffffffffff7ffffffffffffffffffffffffffffffffffffffffffffffffffffffffffffffffe7f000000000000000000000000945304eb96065b2a98b57a48a06ae28d285a71b57f00000000000000000000000100000000000000000000000000000000000000006f427ffffffffffffffffffffffffffffffffffffffffffffffffffffffffffffffffe7e6410f26f519c538ea2070a6c60005155",
                "nonce" : "0x00",
                "storage" : {
                }
            },
            "0x945304eb96065b2a98b57a48a06ae28d285a71b5" : {
                "balance" : "0x2e",
                "code" : "0x6000355415600957005b60203560003555",
                "nonce" : "0x00",
                "storage" : {
                }
            },
            "0xa94f5374fce5edbc8e2a8697c15331677e6ebf0b" : {
                "balance" : "0x0de0b6b3a7640000",
                "code" : "0x",
                "nonce" : "0x00",
                "storage" : {
                }
            }
        },
        "transaction" : {
            "data" : [
                "0x7f000000000000000000000000945304eb96065b2a98b57a48a06ae28d285a71b57f000000000000000000000000ffffffffffffffffffffffffffffffffffffffff7ffffffffffffffffffffffffffffffffffffffffffffffffffffffffffffffffe7f000000000000000000000000945304eb96065b2a98b57a48a06ae28d285a71b57f00000000000000000000000100000000000000000000000000000000000000006f427ffffffffffffffffffffffffffffffffffffffffffffffffffffffffffffffffe7e6410f26f519c538ea2070a6c"
            ],
            "gasLimit" : [
                "0x2c138ff5"
            ],
            "gasPrice" : "0x0a",
            "nonce" : "0x00",
            "secretKey" : "0x45a915e4d060149eb4365960e6a7a45f334393093061116b197e3240065ff2d8",
            "sender" : "0xa94f5374fce5edbc8e2a8697c15331677e6ebf0b",
            "to" : "0x095e7baea6a6c7c4c2dfeb977efac326af552d87",
            "value" : [
                "0x0ca044ee"
            ]
        }
    }
}