{
    "randomStatetest461" : {
        "_info" : {
            "comment" : "",
            "filling-rpc-server" : "evm version 1.13.11-unstable-765f2904-20240124",
            "filling-tool-version" : "retesteth-0.3.2-cancun+commit.ea13235b.Linux.g++",
            "generatedTestHash" : "5623d5f64fbeb7e4775d287a6ad2d85d090baf3630b3a9e809e86879cb67b85f",
            "lllcversion" : "Version: 0.5.14-develop.2023.7.11+commit.c58ab2c6.mod.Linux.g++",
            "solidity" : "Version: 0.8.21+commit.d9974bed.Linux.g++",
            "source" : "src/GeneralStateTestsFiller/stRandom2/randomStatetest461Filler.json",
            "sourceHash" : "dd9c584fb3ade76357f9246f4c4d89e676d352a0fe61e40cd04bc230a9bf43dc"
        },
        "env" : {
            "currentBaseFee" : "0x0a",
            "currentCoinbase" : "0x945304eb96065b2a98b57a48a06ae28d285a71b5",
            "currentDifficulty" : "0x020000",
            "currentExcessBlobGas" : "0x00",
            "currentGasLimit" : "0x7fffffffffffffff",
            "currentNumber" : "0x01",
            "currentRandom" : "0x0000000000000000000000000000000000000000000000000000000000020000",
            "currentTimestamp" : "0x03e8"
        },
        "post" : {
            "Berlin" : [
                {
                    "hash" : "0x6ed2705d88f489d8dd1277750ee538db81939b97970bf0d0209bc1cdacb7f53e",
                    "indexes" : {
                        "data" : 0,
                        "gas" : 0,
                        "value" : 0
                    },
                    "logs" : "0x1dcc4de8dec75d7aab85b567b6ccd41ad312451b948a7413f0a142fd40d49347",
                    "txbytes" : "0xf90131800a8447649f1594095e7baea6a6c7c4c2dfeb977efac326af552d878420b19906b8cb7f000000000000000000000000000000000000000000000000000000000000c350517f000000000000000000000000000000000000000000000000000000000000c3507f000000000000000000000000ffffffffffffffffffffffffffffffffffffffff7fffffffffffffffffffffffffffffffffffffffffffffffffffffffffffffffff7fffffffffffffffffffffffffffffffffffffffffffffffffffffffffffffffff7fffffffffffffffffffffffffffffffffffffffffffffffffffffffffffffffff425152591ca01d6e07232a46d5dc004104d06742c0e5e43b0069d0f2985dd59e15fa0b2bed3aa07305d8f6e59c8094e07f92977db61bd8fca6b26848cfff5878f9ec2c18798704"
                }
            ],
            "Cancun" : [
                {
                    "hash" : "0x799a713ee80a1c1911bcd9104fd970526c7adf125837f01566153c9d35f993f0",
                    "indexes" : {
                        "data" : 0,
                        "gas" : 0,
                        "value" : 0
                    },
                    "logs" : "0x1dcc4de8dec75d7aab85b567b6ccd41ad312451b948a7413f0a142fd40d49347",
                    "txbytes" : "0xf90131800a8447649f1594095e7baea6a6c7c4c2dfeb977efac326af552d878420b19906b8cb7f000000000000000000000000000000000000000000000000000000000000c350517f000000000000000000000000000000000000000000000000000000000000c3507f000000000000000000000000ffffffffffffffffffffffffffffffffffffffff7fffffffffffffffffffffffffffffffffffffffffffffffffffffffffffffffff7fffffffffffffffffffffffffffffffffffffffffffffffffffffffffffffffff7fffffffffffffffffffffffffffffffffffffffffffffffffffffffffffffffff425152591ca01d6e07232a46d5dc004104d06742c0e5e43b0069d0f2985dd59e15fa0b2bed3aa07305d8f6e59c8094e07f92977db61bd8fca6b26848cfff5878f9ec2c18798704"
                }
            ],
            "Istanbul" : [
                {
                    "hash" : "0x970e9ca78c726896086618d07c4628f2abd78dd91c357c5cf41e115430b63340",
                    "indexes" : {
                        "data" : 0,
                        "gas" : 0,
                        "value" : 0
                    },
                    "logs" : "0x1dcc4de8dec75d7aab85b567b6ccd41ad312451b948a7413f0a142fd40d49347",
                    "txbytes" : "0xf90131800a8447649f1594095e7baea6a6c7c4c2dfeb977efac326af552d878420b19906b8cb7f000000000000000000000000000000000000000000000000000000000000c350517f000000000000000000000000000000000000000000000000000000000000c3507f000000000000000000000000ffffffffffffffffffffffffffffffffffffffff7fffffffffffffffffffffffffffffffffffffffffffffffffffffffffffffffff7fffffffffffffffffffffffffffffffffffffffffffffffffffffffffffffffff7fffffffffffffffffffffffffffffffffffffffffffffffffffffffffffffffff425152591ca01d6e07232a46d5dc004104d06742c0e5e43b0069d0f2985dd59e15fa0b2bed3aa07305d8f6e59c8094e07f92977db61bd8fca6b26848cfff5878f9ec2c18798704"
                }
            ],
            "London" : [
                {
                    "hash" : "0x799a713ee80a1c1911bcd9104fd970526c7adf125837f01566153c9d35f993f0",
                    "indexes" : {
                        "data" : 0,
                        "gas" : 0,
                        "value" : 0
                    },
                    "logs" : "0x1dcc4de8dec75d7aab85b567b6ccd41ad312451b948a7413f0a142fd40d49347",
                    "txbytes" : "0xf90131800a8447649f1594095e7baea6a6c7c4c2dfeb977efac326af552d878420b19906b8cb7f000000000000000000000000000000000000000000000000000000000000c350517f000000000000000000000000000000000000000000000000000000000000c3507f000000000000000000000000ffffffffffffffffffffffffffffffffffffffff7fffffffffffffffffffffffffffffffffffffffffffffffffffffffffffffffff7fffffffffffffffffffffffffffffffffffffffffffffffffffffffffffffffff7fffffffffffffffffffffffffffffffffffffffffffffffffffffffffffffffff425152591ca01d6e07232a46d5dc004104d06742c0e5e43b0069d0f2985dd59e15fa0b2bed3aa07305d8f6e59c8094e07f92977db61bd8fca6b26848cfff5878f9ec2c18798704"
                }
            ],
            "Paris" : [
                {
                    "hash" : "0x799a713ee80a1c1911bcd9104fd970526c7adf125837f01566153c9d35f993f0",
                    "indexes" : {
                        "data" : 0,
                        "gas" : 0,
                        "value" : 0
                    },
                    "logs" : "0x1dcc4de8dec75d7aab85b567b6ccd41ad312451b948a7413f0a142fd40d49347",
                    "txbytes" : "0xf90131800a8447649f1594095e7baea6a6c7c4c2dfeb977efac326af552d878420b19906b8cb7f000000000000000000000000000000000000000000000000000000000000c350517f000000000000000000000000000000000000000000000000000000000000c3507f000000000000000000000000ffffffffffffffffffffffffffffffffffffffff7fffffffffffffffffffffffffffffffffffffffffffffffffffffffffffffffff7fffffffffffffffffffffffffffffffffffffffffffffffffffffffffffffffff7fffffffffffffffffffffffffffffffffffffffffffffffffffffffffffffffff425152591ca01d6e07232a46d5dc004104d06742c0e5e43b0069d0f2985dd59e15fa0b2bed3aa07305d8f6e59c8094e07f92977db61bd8fca6b26848cfff5878f9ec2c18798704"
                }
            ],
            "Shanghai" : [
                {
                    "hash" : "0x799a713ee80a1c1911bcd9104fd970526c7adf125837f01566153c9d35f993f0",
                    "indexes" : {
                        "data" : 0,
                        "gas" : 0,
                        "value" : 0
                    },
                    "logs" : "0x1dcc4de8dec75d7aab85b567b6ccd41ad312451b948a7413f0a142fd40d49347",
                    "txbytes" : "0xf90131800a8447649f1594095e7baea6a6c7c4c2dfeb977efac326af552d878420b19906b8cb7f000000000000000000000000000000000000000000000000000000000000c350517f000000000000000000000000000000000000000000000000000000000000c3507f000000000000000000000000ffffffffffffffffffffffffffffffffffffffff7fffffffffffffffffffffffffffffffffffffffffffffffffffffffffffffffff7fffffffffffffffffffffffffffffffffffffffffffffffffffffffffffffffff7fffffffffffffffffffffffffffffffffffffffffffffffffffffffffffffffff425152591ca01d6e07232a46d5dc004104d06742c0e5e43b0069d0f2985dd59e15fa0b2bed3aa07305d8f6e59c8094e07f92977db61bd8fca6b26848cfff5878f9ec2c18798704"
                }
            ]
        },
        "pre" : {
            "0x095e7baea6a6c7c4c2dfeb977efac326af552d87" : {
                "balance" : "0x00",
                "code" : "0x7f000000000000000000000000000000000000000000000000000000000000c350517f000000000000000000000000000000000000000000000000000000000000c3507f000000000000000000000000ffffffffffffffffffffffffffffffffffffffff7fffffffffffffffffffffffffffffffffffffffffffffffffffffffffffffffff7fffffffffffffffffffffffffffffffffffffffffffffffffffffffffffffffff7fffffffffffffffffffffffffffffffffffffffffffffffffffffffffffffffff4251525960005155",
                "nonce" : "0x00",
                "storage" : {
                }
            },
            "0x945304eb96065b2a98b57a48a06ae28d285a71b5" : {
                "balance" : "0x2e",
                "code" : "0x6000355415600957005b60203560003555",
                "nonce" : "0x00",
                "storage" : {
                }
            },
            "0xa94f5374fce5edbc8e2a8697c15331677e6ebf0b" : {
                "balance" : "0x0de0b6b3a7640000",
                "code" : "0x",
                "nonce" : "0x00",
                "storage" : {
                }
            }
        },
        "transaction" : {
            "data" : [
                "0x7f000000000000000000000000000000000000000000000000000000000000c350517f000000000000000000000000000000000000000000000000000000000000c3507f000000000000000000000000ffffffffffffffffffffffffffffffffffffffff7fffffffffffffffffffffffffffffffffffffffffffffffffffffffffffffffff7fffffffffffffffffffffffffffffffffffffffffffffffffffffffffffffffff7fffffffffffffffffffffffffffffffffffffffffffffffffffffffffffffffff42515259"
            ],
            "gasLimit" : [
                "0x47649f15"
            ],
            "gasPrice" : "0x0a",
            "nonce" : "0x00",
            "secretKey" : "0x45a915e4d060149eb4365960e6a7a45f334393093061116b197e3240065ff2d8",
            "sender" : "0xa94f5374fce5edbc8e2a8697c15331677e6ebf0b",
            "to" : "0x095e7baea6a6c7c4c2dfeb977efac326af552d87",
            "value" : [
                "0x20b19906"
            ]
        }
    }
}