{
    "codecopy_dejavu2" : {
        "_info" : {
            "comment" : "",
            "filling-rpc-server" : "evm version 1.13.13-unstable-034bc466-20240219",
            "filling-tool-version" : "retesteth-0.3.2-cancun+commit.014a68a5.Linux.g++",
            "generatedTestHash" : "70f505d1e501c7362a3f75b9898854e3897f9f9464b1ee2c3dc1f40626844707",
            "lllcversion" : "Version: 0.5.14-develop.2023.7.11+commit.c58ab2c6.mod.Linux.g++",
            "solidity" : "Version: 0.8.21+commit.d9974bed.Linux.g++",
            "source" : "src/GeneralStateTestsFiller/stMemoryTest/codecopy_dejavu2Filler.json",
            "sourceHash" : "f2434c1d7e5aae65b0c2c3990bb81594fb848f2da9d43b4a9fa45a95802864cb"
        },
        "env" : {
            "currentBaseFee" : "0x0a",
            "currentCoinbase" : "0x2adc25665018aa1fe0e6bc666dac8fc2697ff9ba",
            "currentDifficulty" : "0x020000",
            "currentExcessBlobGas" : "0x00",
            "currentGasLimit" : "0x0c540be400",
            "currentNumber" : "0x01",
            "currentRandom" : "0x0000000000000000000000000000000000000000000000000000000000020000",
            "currentTimestamp" : "0x03e8"
        },
        "post" : {
            "Berlin" : [
                {
                    "hash" : "0x54f0e0f1f23613153f9971fe7d2eda4404e9fc57225279e96846ee279ac9e8ad",
                    "indexes" : {
                        "data" : 0,
                        "gas" : 0,
                        "value" : 0
                    },
                    "logs" : "0x1dcc4de8dec75d7aab85b567b6ccd41ad312451b948a7413f0a142fd40d49347",
                    "txbytes" : "0xf862800a850a00000000940f572e5295c57f15886f9b263e2f6d2d6c7b5ec60a801ba03849f8f9cc495a15ee1c533d94ff32f8953ce0a61e16b130b3a7ee037e9009a8a03136cededb06724cbdeabb9d7b91124a09caa463f6d837a438b11ad3dfb24fad"
                }
            ],
            "Cancun" : [
                {
                    "hash" : "0x002f691bbe12f665c6f155916e9caf81e0087c3db54e534dbd2d7e44f1432901",
                    "indexes" : {
                        "data" : 0,
                        "gas" : 0,
                        "value" : 0
                    },
                    "logs" : "0x1dcc4de8dec75d7aab85b567b6ccd41ad312451b948a7413f0a142fd40d49347",
                    "txbytes" : "0xf862800a850a00000000940f572e5295c57f15886f9b263e2f6d2d6c7b5ec60a801ba03849f8f9cc495a15ee1c533d94ff32f8953ce0a61e16b130b3a7ee037e9009a8a03136cededb06724cbdeabb9d7b91124a09caa463f6d837a438b11ad3dfb24fad"
                }
            ],
            "Istanbul" : [
                {
                    "hash" : "0x54f0e0f1f23613153f9971fe7d2eda4404e9fc57225279e96846ee279ac9e8ad",
                    "indexes" : {
                        "data" : 0,
                        "gas" : 0,
                        "value" : 0
                    },
                    "logs" : "0x1dcc4de8dec75d7aab85b567b6ccd41ad312451b948a7413f0a142fd40d49347",
                    "txbytes" : "0xf862800a850a00000000940f572e5295c57f15886f9b263e2f6d2d6c7b5ec60a801ba03849f8f9cc495a15ee1c533d94ff32f8953ce0a61e16b130b3a7ee037e9009a8a03136cededb06724cbdeabb9d7b91124a09caa463f6d837a438b11ad3dfb24fad"
                }
            ],
            "London" : [
                {
                    "hash" : "0x6837463157dbc2b3892b2d213b02f2ea7ec91f9faed0a6df4ea176172a628060",
                    "indexes" : {
                        "data" : 0,
                        "gas" : 0,
                        "value" : 0
                    },
                    "logs" : "0x1dcc4de8dec75d7aab85b567b6ccd41ad312451b948a7413f0a142fd40d49347",
                    "txbytes" : "0xf862800a850a00000000940f572e5295c57f15886f9b263e2f6d2d6c7b5ec60a801ba03849f8f9cc495a15ee1c533d94ff32f8953ce0a61e16b130b3a7ee037e9009a8a03136cededb06724cbdeabb9d7b91124a09caa463f6d837a438b11ad3dfb24fad"
                }
            ],
            "Paris" : [
                {
                    "hash" : "0x6837463157dbc2b3892b2d213b02f2ea7ec91f9faed0a6df4ea176172a628060",
                    "indexes" : {
                        "data" : 0,
                        "gas" : 0,
                        "value" : 0
                    },
                    "logs" : "0x1dcc4de8dec75d7aab85b567b6ccd41ad312451b948a7413f0a142fd40d49347",
                    "txbytes" : "0xf862800a850a00000000940f572e5295c57f15886f9b263e2f6d2d6c7b5ec60a801ba03849f8f9cc495a15ee1c533d94ff32f8953ce0a61e16b130b3a7ee037e9009a8a03136cededb06724cbdeabb9d7b91124a09caa463f6d837a438b11ad3dfb24fad"
                }
            ],
            "Shanghai" : [
                {
                    "hash" : "0x6837463157dbc2b3892b2d213b02f2ea7ec91f9faed0a6df4ea176172a628060",
                    "indexes" : {
                        "data" : 0,
                        "gas" : 0,
                        "value" : 0
                    },
                    "logs" : "0x1dcc4de8dec75d7aab85b567b6ccd41ad312451b948a7413f0a142fd40d49347",
                    "txbytes" : "0xf862800a850a00000000940f572e5295c57f15886f9b263e2f6d2d6c7b5ec60a801ba03849f8f9cc495a15ee1c533d94ff32f8953ce0a61e16b130b3a7ee037e9009a8a03136cededb06724cbdeabb9d7b91124a09caa463f6d837a438b11ad3dfb24fad"
                }
            ]
        },
        "pre" : {
            "0x000f3df6d732807ef1319fb7b8bb8522d0beac02" : {
                "balance" : "0x00",
                "code" : "0x3373fffffffffffffffffffffffffffffffffffffffe14604d57602036146024575f5ffd5b5f35801560495762001fff810690815414603c575f5ffd5b62001fff01545f5260205ff35b5f5ffd5b62001fff42064281555f359062001fff015500",
                "nonce" : "0x01",
                "storage" : {
                }
            },
            "0x0f572e5295c57f15886f9b263e2f6d2d6c7b5ec6" : {
                "balance" : "0x0de0b6b3a7640000",
                "code" : "0x600a68010000000000000001601f3960005115601757005b00",
                "nonce" : "0x00",
                "storage" : {
                }
            },
            "0xa94f5374fce5edbc8e2a8697c15331677e6ebf0b" : {
                "balance" : "0x271000000000",
                "code" : "0x",
                "nonce" : "0x00",
                "storage" : {
                }
            }
        },
        "transaction" : {
            "data" : [
                "0x"
            ],
            "gasLimit" : [
                "0x0a00000000"
            ],
            "gasPrice" : "0x0a",
            "nonce" : "0x00",
            "secretKey" : "0x45a915e4d060149eb4365960e6a7a45f334393093061116b197e3240065ff2d8",
            "sender" : "0xa94f5374fce5edbc8e2a8697c15331677e6ebf0b",
            "to" : "0x0f572e5295c57f15886f9b263e2f6d2d6c7b5ec6",
            "value" : [
                "0x0a"
            ]
        }
    }
}