{
    "codeCopyOffset" : {
        "_info" : {
            "comment" : "",
            "filling-rpc-server" : "evm version 1.13.0-unstable-6ddb92ca-20230811",
            "filling-tool-version" : "retesteth-0.3.1-cancun+commit.8cf9b032.Linux.g++",
            "generatedTestHash" : "fc150c06c34e4e9bdedf21137582041c13a9f6e02bd1227ab46716f370325ba7",
            "lllcversion" : "Version: 0.5.14-develop.2023.8.11+commit.b2b86751.Linux.g++",
            "solidity" : "Version: 0.8.17+commit.8df45f5f.Linux.g++",
            "source" : "src/GeneralStateTestsFiller/stMemoryTest/codeCopyOffsetFiller.json",
            "sourceHash" : "bf91b8cd843a208bcf8438badfaf69b743e6f58ce5e95444a62371d77b47f5d2"
        },
        "env" : {
            "currentBaseFee" : "0x0a",
            "currentBeaconRoot" : "0x0000000000000000000000000000000000000000000000000000000000000000",
            "currentCoinbase" : "0x2adc25665018aa1fe0e6bc666dac8fc2697ff9ba",
            "currentDifficulty" : "0x020000",
            "currentGasLimit" : "0x0f4240",
            "currentNumber" : "0x01",
            "currentRandom" : "0x0000000000000000000000000000000000000000000000000000000000020000",
            "currentTimestamp" : "0x03e8",
            "currentWithdrawalsRoot" : "0x56e81f171bcc55a6ff8345e692c0f86e5b48e01b996cadc001622fb5e363b421",
            "previousHash" : "0x5e20a0453cecd065ea59c37ac63e079ee08998b6045136a8ce6635c7912ec0b6"
        },
        "post" : {
            "Berlin" : [
                {
                    "hash" : "0x91d837890c195254db00973c70190cff3c078627210b74512baa387b81468552",
                    "indexes" : {
                        "data" : 0,
                        "gas" : 0,
                        "value" : 0
                    },
                    "logs" : "0x1dcc4de8dec75d7aab85b567b6ccd41ad312451b948a7413f0a142fd40d49347",
                    "txbytes" : "0xf863800a83061a8094095e7baea6a6c7c4c2dfeb977efac326af552d87830186a0801ba0ffb600e63115a7362e7811894a91d8ba4330e526f22121c994c4692035dfdfd5a06198379fcac8de3dbfac48b165df4bf88e2088f294b61efb9a65fe2281c76e16"
                }
            ],
            "Istanbul" : [
                {
                    "hash" : "0x98779e6bb09dcd24d81a43782ace51c9e4bfcfe7fb48f20e2ba893702e58679a",
                    "indexes" : {
                        "data" : 0,
                        "gas" : 0,
                        "value" : 0
                    },
                    "logs" : "0x1dcc4de8dec75d7aab85b567b6ccd41ad312451b948a7413f0a142fd40d49347",
                    "txbytes" : "0xf863800a83061a8094095e7baea6a6c7c4c2dfeb977efac326af552d87830186a0801ba0ffb600e63115a7362e7811894a91d8ba4330e526f22121c994c4692035dfdfd5a06198379fcac8de3dbfac48b165df4bf88e2088f294b61efb9a65fe2281c76e16"
                }
            ],
            "London" : [
                {
                    "hash" : "0x0856211e583d2e34978244bf9f4488c583f465fa966ff70232ad1b1fe0a0af4d",
                    "indexes" : {
                        "data" : 0,
                        "gas" : 0,
                        "value" : 0
                    },
                    "logs" : "0x1dcc4de8dec75d7aab85b567b6ccd41ad312451b948a7413f0a142fd40d49347",
                    "txbytes" : "0xf863800a83061a8094095e7baea6a6c7c4c2dfeb977efac326af552d87830186a0801ba0ffb600e63115a7362e7811894a91d8ba4330e526f22121c994c4692035dfdfd5a06198379fcac8de3dbfac48b165df4bf88e2088f294b61efb9a65fe2281c76e16"
                }
            ],
            "Merge" : [
                {
                    "hash" : "0x0856211e583d2e34978244bf9f4488c583f465fa966ff70232ad1b1fe0a0af4d",
                    "indexes" : {
                        "data" : 0,
                        "gas" : 0,
                        "value" : 0
                    },
                    "logs" : "0x1dcc4de8dec75d7aab85b567b6ccd41ad312451b948a7413f0a142fd40d49347",
                    "txbytes" : "0xf863800a83061a8094095e7baea6a6c7c4c2dfeb977efac326af552d87830186a0801ba0ffb600e63115a7362e7811894a91d8ba4330e526f22121c994c4692035dfdfd5a06198379fcac8de3dbfac48b165df4bf88e2088f294b61efb9a65fe2281c76e16"
                }
            ],
            "Shanghai" : [
                {
                    "hash" : "0x0856211e583d2e34978244bf9f4488c583f465fa966ff70232ad1b1fe0a0af4d",
                    "indexes" : {
                        "data" : 0,
                        "gas" : 0,
                        "value" : 0
                    },
                    "logs" : "0x1dcc4de8dec75d7aab85b567b6ccd41ad312451b948a7413f0a142fd40d49347",
                    "txbytes" : "0xf863800a83061a8094095e7baea6a6c7c4c2dfeb977efac326af552d87830186a0801ba0ffb600e63115a7362e7811894a91d8ba4330e526f22121c994c4692035dfdfd5a06198379fcac8de3dbfac48b165df4bf88e2088f294b61efb9a65fe2281c76e16"
                }
            ]
        },
        "pre" : {
            "0x095e7baea6a6c7c4c2dfeb977efac326af552d87" : {
                "balance" : "0x0de0b6b3a7640000",
                "code" : "0x670123456789abcdef600052600080600f60008073eeeeeeeeeeeeeeeeeeeeeeeeeeeeeeeeeeeeeeee61fffff150",
                "nonce" : "0x01",
                "storage" : {
                }
            },
            "0xa94f5374fce5edbc8e2a8697c15331677e6ebf0b" : {
                "balance" : "0x0de0b6b3a7640000",
                "code" : "0x",
                "nonce" : "0x00",
                "storage" : {
                }
            },
            "0xeeeeeeeeeeeeeeeeeeeeeeeeeeeeeeeeeeeeeeee" : {
                "balance" : "0x0de0b6b3a7640000",
                "code" : "0x7fffffffffffffffffffffffffffffffffffffffffffffffffffffffffffffffff600052601061ffff60003960005160005500",
                "nonce" : "0x01",
                "storage" : {
                }
            }
        },
        "transaction" : {
            "data" : [
                "0x"
            ],
            "gasLimit" : [
                "0x061a80"
            ],
            "gasPrice" : "0x0a",
            "nonce" : "0x00",
            "secretKey" : "0x45a915e4d060149eb4365960e6a7a45f334393093061116b197e3240065ff2d8",
            "sender" : "0xa94f5374fce5edbc8e2a8697c15331677e6ebf0b",
            "to" : "0x095e7baea6a6c7c4c2dfeb977efac326af552d87",
            "value" : [
                "0x0186a0"
            ]
        }
    }
}