{
    "mem32kb_singleByte" : {
        "_info" : {
            "comment" : "",
            "filling-rpc-server" : "evm version 1.13.13-unstable-034bc466-20240219",
            "filling-tool-version" : "retesteth-0.3.2-cancun+commit.014a68a5.Linux.g++",
            "generatedTestHash" : "1071ea11fb8381886050870e1aed7389d5d3d2720e9750ea6378e345b0fd8a91",
            "lllcversion" : "Version: 0.5.14-develop.2023.7.11+commit.c58ab2c6.mod.Linux.g++",
            "solidity" : "Version: 0.8.21+commit.d9974bed.Linux.g++",
            "source" : "src/GeneralStateTestsFiller/stMemoryTest/mem32kb_singleByteFiller.json",
            "sourceHash" : "643fad351b48df4ea7b89920aab2f8acf55a4e04e82c1d0df02bf0530a5e5b38"
        },
        "env" : {
            "currentBaseFee" : "0x0a",
            "currentCoinbase" : "0x2adc25665018aa1fe0e6bc666dac8fc2697ff9ba",
            "currentDifficulty" : "0x020000",
            "currentExcessBlobGas" : "0x00",
            "currentGasLimit" : "0x0a00000000",
            "currentNumber" : "0x01",
            "currentRandom" : "0x0000000000000000000000000000000000000000000000000000000000020000",
            "currentTimestamp" : "0x03e8"
        },
        "post" : {
            "Berlin" : [
                {
                    "hash" : "0x60669791db26fbb833cfa60d7478789af4591e6b6ed7ae4a8a9a44bbf589bd6f",
                    "indexes" : {
                        "data" : 0,
                        "gas" : 0,
                        "value" : 0
                    },
                    "logs" : "0x1dcc4de8dec75d7aab85b567b6ccd41ad312451b948a7413f0a142fd40d49347",
                    "txbytes" : "0xf861800a8450001798940f572e5295c57f15886f9b263e2f6d2d6c7b5ec60a801ca09e8bd05e90d697a1cbd90bcf22341e921e639923c80de9be7263af47f84fffb6a00fda9a38b7a09e6f1cd6ab12080ee20c3b0c74673ad30fffa4181a8027945a5b"
                }
            ],
            "Cancun" : [
                {
                    "hash" : "0x4d86309fc7b46ae72e1ace18013112cda46fc361ecc106102f521d99b50165b6",
                    "indexes" : {
                        "data" : 0,
                        "gas" : 0,
                        "value" : 0
                    },
                    "logs" : "0x1dcc4de8dec75d7aab85b567b6ccd41ad312451b948a7413f0a142fd40d49347",
                    "txbytes" : "0xf861800a8450001798940f572e5295c57f15886f9b263e2f6d2d6c7b5ec60a801ca09e8bd05e90d697a1cbd90bcf22341e921e639923c80de9be7263af47f84fffb6a00fda9a38b7a09e6f1cd6ab12080ee20c3b0c74673ad30fffa4181a8027945a5b"
                }
            ],
            "Istanbul" : [
                {
                    "hash" : "0x78a7179620ae5c4e93bb61f8030cab198f5f5caef4fd4bc5b5f54427254cd795",
                    "indexes" : {
                        "data" : 0,
                        "gas" : 0,
                        "value" : 0
                    },
                    "logs" : "0x1dcc4de8dec75d7aab85b567b6ccd41ad312451b948a7413f0a142fd40d49347",
                    "txbytes" : "0xf861800a8450001798940f572e5295c57f15886f9b263e2f6d2d6c7b5ec60a801ca09e8bd05e90d697a1cbd90bcf22341e921e639923c80de9be7263af47f84fffb6a00fda9a38b7a09e6f1cd6ab12080ee20c3b0c74673ad30fffa4181a8027945a5b"
                }
            ],
            "London" : [
                {
                    "hash" : "0xb92104897b00cbb9aff4c34f6a701f68c22921a88e759c44f46499214e95b2fb",
                    "indexes" : {
                        "data" : 0,
                        "gas" : 0,
                        "value" : 0
                    },
                    "logs" : "0x1dcc4de8dec75d7aab85b567b6ccd41ad312451b948a7413f0a142fd40d49347",
                    "txbytes" : "0xf861800a8450001798940f572e5295c57f15886f9b263e2f6d2d6c7b5ec60a801ca09e8bd05e90d697a1cbd90bcf22341e921e639923c80de9be7263af47f84fffb6a00fda9a38b7a09e6f1cd6ab12080ee20c3b0c74673ad30fffa4181a8027945a5b"
                }
            ],
            "Paris" : [
                {
                    "hash" : "0xb92104897b00cbb9aff4c34f6a701f68c22921a88e759c44f46499214e95b2fb",
                    "indexes" : {
                        "data" : 0,
                        "gas" : 0,
                        "value" : 0
                    },
                    "logs" : "0x1dcc4de8dec75d7aab85b567b6ccd41ad312451b948a7413f0a142fd40d49347",
                    "txbytes" : "0xf861800a8450001798940f572e5295c57f15886f9b263e2f6d2d6c7b5ec60a801ca09e8bd05e90d697a1cbd90bcf22341e921e639923c80de9be7263af47f84fffb6a00fda9a38b7a09e6f1cd6ab12080ee20c3b0c74673ad30fffa4181a8027945a5b"
                }
            ],
            "Shanghai" : [
                {
                    "hash" : "0xb92104897b00cbb9aff4c34f6a701f68c22921a88e759c44f46499214e95b2fb",
                    "indexes" : {
                        "data" : 0,
                        "gas" : 0,
                        "value" : 0
                    },
                    "logs" : "0x1dcc4de8dec75d7aab85b567b6ccd41ad312451b948a7413f0a142fd40d49347",
                    "txbytes" : "0xf861800a8450001798940f572e5295c57f15886f9b263e2f6d2d6c7b5ec60a801ca09e8bd05e90d697a1cbd90bcf22341e921e639923c80de9be7263af47f84fffb6a00fda9a38b7a09e6f1cd6ab12080ee20c3b0c74673ad30fffa4181a8027945a5b"
                }
            ]
        },
        "pre" : {
            "0x000f3df6d732807ef1319fb7b8bb8522d0beac02" : {
                "balance" : "0x00",
                "code" : "0x3373fffffffffffffffffffffffffffffffffffffffe14604d57602036146024575f5ffd5b5f35801560495762001fff810690815414603c575f5ffd5b62001fff01545f5260205ff35b5f5ffd5b62001fff42064281555f359062001fff015500",
                "nonce" : "0x01",
                "storage" : {
                }
            },
            "0x0f572e5295c57f15886f9b263e2f6d2d6c7b5ec6" : {
                "balance" : "0x0de0b6b3a7640000",
                "code" : "0x602a617cff535960005500",
                "nonce" : "0x00",
                "storage" : {
                }
            },
            "0xa94f5374fce5edbc8e2a8697c15331677e6ebf0b" : {
                "balance" : "0x6400000000",
                "code" : "0x",
                "nonce" : "0x00",
                "storage" : {
                }
            }
        },
        "transaction" : {
            "data" : [
                "0x"
            ],
            "gasLimit" : [
                "0x50001798"
            ],
            "gasPrice" : "0x0a",
            "nonce" : "0x00",
            "secretKey" : "0x45a915e4d060149eb4365960e6a7a45f334393093061116b197e3240065ff2d8",
            "sender" : "0xa94f5374fce5edbc8e2a8697c15331677e6ebf0b",
            "to" : "0x0f572e5295c57f15886f9b263e2f6d2d6c7b5ec6",
            "value" : [
                "0x0a"
            ]
        }
    }
}