{
    "memReturn" : {
        "_info" : {
            "comment" : "",
            "filling-rpc-server" : "evm version 1.11.4-unstable-e14043db-20230308",
            "filling-tool-version" : "retesteth-0.3.0-shanghai+commit.fd2c0a83.Linux.g++",
            "generatedTestHash" : "ca5d44be06e6a415ac7cc710b38ea3600c93d0b555eb9c5cb0a7a3ca3e9cae06",
            "lllcversion" : "Version: 0.5.14-develop.2022.7.30+commit.a096d7a9.Linux.g++",
            "solidity" : "Version: 0.8.17+commit.8df45f5f.Linux.g++",
            "source" : "src/GeneralStateTestsFiller/stMemoryTest/memReturnFiller.json",
            "sourceHash" : "b5aa3dda860782dd34dc6c65174bf1b2fddf4e4e0ecc70467c8c4d6f3c46b193"
        },
        "env" : {
            "currentBaseFee" : "0x0a",
            "currentCoinbase" : "0x2adc25665018aa1fe0e6bc666dac8fc2697ff9ba",
            "currentDifficulty" : "0x020000",
            "currentGasLimit" : "0x0a00000000",
            "currentNumber" : "0x01",
            "currentRandom" : "0x0000000000000000000000000000000000000000000000000000000000020000",
            "currentTimestamp" : "0x03e8",
            "previousHash" : "0x5e20a0453cecd065ea59c37ac63e079ee08998b6045136a8ce6635c7912ec0b6"
        },
        "post" : {
            "Berlin" : [
                {
                    "hash" : "0x8ce7685ab59a3387b95e3ad380ac2c80e5e4c911c1f0cbc2edfd890c145baa95",
                    "indexes" : {
                        "data" : 0,
                        "gas" : 0,
                        "value" : 0
                    },
                    "logs" : "0x1dcc4de8dec75d7aab85b567b6ccd41ad312451b948a7413f0a142fd40d49347",
                    "txbytes" : "0xf8b2800a8450001798940f572e5295c57f15886f9b263e2f6d2d6c7b5ec60ab850ff55883355001144bbccddffeeaaaaaaaaaaaaaaaaaaaaaaaaaaaaaaaaaaaaaaaaaaaaaaaaaaaaaaaaaaaaaaaaaaaaaaaaaaaaaaaaaaaaaaaaaaaaaaaaaaaaaaaaaaaaaaaaaaaaaaaaaaaaaaaaaaaaaa1ba083394635d66c6e28e5a49259f9d02533472d7eecae40050187de84c773068ad2a02094be641e375d70b972b4ea489dd87cbf38bb574677849a1a1754147d5d1b19"
                }
            ],
            "Istanbul" : [
                {
                    "hash" : "0x8ce7685ab59a3387b95e3ad380ac2c80e5e4c911c1f0cbc2edfd890c145baa95",
                    "indexes" : {
                        "data" : 0,
                        "gas" : 0,
                        "value" : 0
                    },
                    "logs" : "0x1dcc4de8dec75d7aab85b567b6ccd41ad312451b948a7413f0a142fd40d49347",
                    "txbytes" : "0xf8b2800a8450001798940f572e5295c57f15886f9b263e2f6d2d6c7b5ec60ab850ff55883355001144bbccddffeeaaaaaaaaaaaaaaaaaaaaaaaaaaaaaaaaaaaaaaaaaaaaaaaaaaaaaaaaaaaaaaaaaaaaaaaaaaaaaaaaaaaaaaaaaaaaaaaaaaaaaaaaaaaaaaaaaaaaaaaaaaaaaaaaaaaaaa1ba083394635d66c6e28e5a49259f9d02533472d7eecae40050187de84c773068ad2a02094be641e375d70b972b4ea489dd87cbf38bb574677849a1a1754147d5d1b19"
                }
            ],
            "London" : [
                {
                    "hash" : "0x49bca536939a979b32af7e0bb5700f6c8455025a1c87b5d0c33b2fa369636208",
                    "indexes" : {
                        "data" : 0,
                        "gas" : 0,
                        "value" : 0
                    },
                    "logs" : "0x1dcc4de8dec75d7aab85b567b6ccd41ad312451b948a7413f0a142fd40d49347",
                    "txbytes" : "0xf8b2800a8450001798940f572e5295c57f15886f9b263e2f6d2d6c7b5ec60ab850ff55883355001144bbccddffeeaaaaaaaaaaaaaaaaaaaaaaaaaaaaaaaaaaaaaaaaaaaaaaaaaaaaaaaaaaaaaaaaaaaaaaaaaaaaaaaaaaaaaaaaaaaaaaaaaaaaaaaaaaaaaaaaaaaaaaaaaaaaaaaaaaaaaa1ba083394635d66c6e28e5a49259f9d02533472d7eecae40050187de84c773068ad2a02094be641e375d70b972b4ea489dd87cbf38bb574677849a1a1754147d5d1b19"
                }
            ],
            "Merge" : [
                {
                    "hash" : "0x49bca536939a979b32af7e0bb5700f6c8455025a1c87b5d0c33b2fa369636208",
                    "indexes" : {
                        "data" : 0,
                        "gas" : 0,
                        "value" : 0
                    },
                    "logs" : "0x1dcc4de8dec75d7aab85b567b6ccd41ad312451b948a7413f0a142fd40d49347",
                    "txbytes" : "0xf8b2800a8450001798940f572e5295c57f15886f9b263e2f6d2d6c7b5ec60ab850ff55883355001144bbccddffeeaaaaaaaaaaaaaaaaaaaaaaaaaaaaaaaaaaaaaaaaaaaaaaaaaaaaaaaaaaaaaaaaaaaaaaaaaaaaaaaaaaaaaaaaaaaaaaaaaaaaaaaaaaaaaaaaaaaaaaaaaaaaaaaaaaaaaa1ba083394635d66c6e28e5a49259f9d02533472d7eecae40050187de84c773068ad2a02094be641e375d70b972b4ea489dd87cbf38bb574677849a1a1754147d5d1b19"
                }
            ],
            "Shanghai" : [
                {
                    "hash" : "0x49bca536939a979b32af7e0bb5700f6c8455025a1c87b5d0c33b2fa369636208",
                    "indexes" : {
                        "data" : 0,
                        "gas" : 0,
                        "value" : 0
                    },
                    "logs" : "0x1dcc4de8dec75d7aab85b567b6ccd41ad312451b948a7413f0a142fd40d49347",
                    "txbytes" : "0xf8b2800a8450001798940f572e5295c57f15886f9b263e2f6d2d6c7b5ec60ab850ff55883355001144bbccddffeeaaaaaaaaaaaaaaaaaaaaaaaaaaaaaaaaaaaaaaaaaaaaaaaaaaaaaaaaaaaaaaaaaaaaaaaaaaaaaaaaaaaaaaaaaaaaaaaaaaaaaaaaaaaaaaaaaaaaaaaaaaaaaaaaaaaaaa1ba083394635d66c6e28e5a49259f9d02533472d7eecae40050187de84c773068ad2a02094be641e375d70b972b4ea489dd87cbf38bb574677849a1a1754147d5d1b19"
                }
            ]
        },
        "pre" : {
            "0x0f572e5295c57f15886f9b263e2f6d2d6c7b5ec6" : {
                "balance" : "0x0de0b6b3a7640000",
                "code" : "0x366000600037596000f300",
                "nonce" : "0x00",
                "storage" : {
                }
            },
            "0xa94f5374fce5edbc8e2a8697c15331677e6ebf0b" : {
                "balance" : "0x6400000000",
                "code" : "0x",
                "nonce" : "0x00",
                "storage" : {
                }
            }
        },
        "transaction" : {
            "data" : [
                "0xff55883355001144bbccddffeeaaaaaaaaaaaaaaaaaaaaaaaaaaaaaaaaaaaaaaaaaaaaaaaaaaaaaaaaaaaaaaaaaaaaaaaaaaaaaaaaaaaaaaaaaaaaaaaaaaaaaaaaaaaaaaaaaaaaaaaaaaaaaaaaaaaaaa"
            ],
            "gasLimit" : [
                "0x50001798"
            ],
            "gasPrice" : "0x0a",
            "nonce" : "0x00",
            "secretKey" : "0x45a915e4d060149eb4365960e6a7a45f334393093061116b197e3240065ff2d8",
            "sender" : "0xa94f5374fce5edbc8e2a8697c15331677e6ebf0b",
            "to" : "0x0f572e5295c57f15886f9b263e2f6d2d6c7b5ec6",
            "value" : [
                "0x0a"
            ]
        }
    }
}