{
    "msize" : {
        "_info" : {
            "comment" : "Ori Pomerantz qbzzt1@gmail.com",
            "filling-rpc-server" : "evm version 1.11.4-unstable-e14043db-20230308",
            "filling-tool-version" : "retesteth-0.3.0-shanghai+commit.fd2c0a83.Linux.g++",
            "generatedTestHash" : "d42a36fc32a02bea5f804d0584ee452b1e71385e74d64a04944bc6948e54d7cc",
            "labels" : {
                "0" : "msize0",
                "1" : "msize1",
                "2" : "msize2",
                "3" : "msize3",
                "4" : "chunks",
                "5" : "farChunk"
            },
            "lllcversion" : "Version: 0.5.14-develop.2022.7.30+commit.a096d7a9.Linux.g++",
            "solidity" : "Version: 0.8.17+commit.8df45f5f.Linux.g++",
            "source" : "src/GeneralStateTestsFiller/VMTests/vmIOandFlowOperations/msizeFiller.yml",
            "sourceHash" : "e2ad9189d2f1a7bd563ca552368293ccd85d550f6346fa6e2a4d9f63fb04fddf"
        },
        "env" : {
            "currentBaseFee" : "0x0a",
            "currentCoinbase" : "0x2adc25665018aa1fe0e6bc666dac8fc2697ff9ba",
            "currentDifficulty" : "0x020000",
            "currentGasLimit" : "0x0100000000",
            "currentNumber" : "0x01",
            "currentRandom" : "0x0000000000000000000000000000000000000000000000000000000000020000",
            "currentTimestamp" : "0x03e8",
            "previousHash" : "0x5e20a0453cecd065ea59c37ac63e079ee08998b6045136a8ce6635c7912ec0b6"
        },
        "post" : {
            "Berlin" : [
                {
                    "hash" : "0x31ef5e75dc065f742a9c865f5adff2117dd13500c1a30399590d6be3d7b62305",
                    "indexes" : {
                        "data" : 0,
                        "gas" : 0,
                        "value" : 0
                    },
                    "logs" : "0x1dcc4de8dec75d7aab85b567b6ccd41ad312451b948a7413f0a142fd40d49347",
                    "txbytes" : "0xf885800a841000000094cccccccccccccccccccccccccccccccccccccccc01a4693c613900000000000000000000000000000000000000000000000000000000000000001ba040cbf8c83e24d3ca34455dc9ec6edb8bbfe2cda6597bd47588d47bc6602d3e12a04b0dec4e432c34e6081c69cad7c56f8ea154961c1c8e99033b359d0e9d2856ef"
                },
                {
                    "hash" : "0x28402e4c6a4d44274cf133e1a26a0de3ffa6cb19a660aab7b67cd22eff77e7bd",
                    "indexes" : {
                        "data" : 1,
                        "gas" : 0,
                        "value" : 0
                    },
                    "logs" : "0x1dcc4de8dec75d7aab85b567b6ccd41ad312451b948a7413f0a142fd40d49347",
                    "txbytes" : "0xf885800a841000000094cccccccccccccccccccccccccccccccccccccccc01a4693c613900000000000000000000000000000000000000000000000000000000000000011ca0eeec95aaa61558ac0fe5a3f827a7b5ed14f36354d91e6de780f02c04801bafdba05b107d16468b577dfd5ea6d470bceb13c59c563dc7a62f1b80f5c5f33038388a"
                },
                {
                    "hash" : "0xb82770384c7cb462af7e245368d525126c5a570c7a7fff20567d1a930c155454",
                    "indexes" : {
                        "data" : 2,
                        "gas" : 0,
                        "value" : 0
                    },
                    "logs" : "0x1dcc4de8dec75d7aab85b567b6ccd41ad312451b948a7413f0a142fd40d49347",
                    "txbytes" : "0xf885800a841000000094cccccccccccccccccccccccccccccccccccccccc01a4693c613900000000000000000000000000000000000000000000000000000000000000021ba0519f691a6c93e36bee24bbdb1af5edbfed786e4fd6ce83b0c25687e5f4022379a03cf74aa2463d0d08acc48f5e38d4c1f5661edbf4b3a86e63853cfc932c4b4b10"
                },
                {
                    "hash" : "0x02b2c6b5709b34a7af92086223f362eb301bd1791fe4f807e90fc6086da68291",
                    "indexes" : {
                        "data" : 3,
                        "gas" : 0,
                        "value" : 0
                    },
                    "logs" : "0x1dcc4de8dec75d7aab85b567b6ccd41ad312451b948a7413f0a142fd40d49347",
                    "txbytes" : "0xf885800a841000000094cccccccccccccccccccccccccccccccccccccccc01a4693c613900000000000000000000000000000000000000000000000000000000000000031ca043dc213dadbde41f7a7eb9bc8bf905a47b255c239840c952de1d0af425189504a06ffe2dbf1c0ffdc1a4d4f7242d7c5b970cd1e41ce6ac050e4c0c6198738d8cc5"
                },
                {
                    "hash" : "0x65f9b2924042e8267d977705e28c23c2fe98644210fe34003e5a4fcfd66818c8",
                    "indexes" : {
                        "data" : 4,
                        "gas" : 0,
                        "value" : 0
                    },
                    "logs" : "0x1dcc4de8dec75d7aab85b567b6ccd41ad312451b948a7413f0a142fd40d49347",
                    "txbytes" : "0xf885800a841000000094cccccccccccccccccccccccccccccccccccccccc01a4693c613900000000000000000000000000000000000000000000000000000000000000041ba0fff98d8f1ed278c9fe15d9658c47be4e28b16394c88a04b08fc1fcab006f4f2ea0038dbf82a9c6561fdb99fe7f807a879a1fc148e5e7086d27668126070c8b2942"
                },
                {
                    "hash" : "0x60c6fbcc47ef6e516700082b5c9206a328bc25ea43e7ccac73a67c6191904f97",
                    "indexes" : {
                        "data" : 5,
                        "gas" : 0,
                        "value" : 0
                    },
                    "logs" : "0x1dcc4de8dec75d7aab85b567b6ccd41ad312451b948a7413f0a142fd40d49347",
                    "txbytes" : "0xf885800a841000000094cccccccccccccccccccccccccccccccccccccccc01a4693c613900000000000000000000000000000000000000000000000000000000000000051ca0b14bcbed2f0b59ecff2815d9ad83401f2ffd4f0c041c156e5cde9877fb37ca9aa04641f828f32dca1ae285bb1ac005a1674f583ac2c53515aecbe46009b36dbb5c"
                }
            ],
            "Istanbul" : [
                {
                    "hash" : "0x81aea0ca3a5b7c53780a54ec7dddf5b1f42dc7b17839a8202502489839112b3a",
                    "indexes" : {
                        "data" : 0,
                        "gas" : 0,
                        "value" : 0
                    },
                    "logs" : "0x1dcc4de8dec75d7aab85b567b6ccd41ad312451b948a7413f0a142fd40d49347",
                    "txbytes" : "0xf885800a841000000094cccccccccccccccccccccccccccccccccccccccc01a4693c613900000000000000000000000000000000000000000000000000000000000000001ba040cbf8c83e24d3ca34455dc9ec6edb8bbfe2cda6597bd47588d47bc6602d3e12a04b0dec4e432c34e6081c69cad7c56f8ea154961c1c8e99033b359d0e9d2856ef"
                },
                {
                    "hash" : "0x4fa866f9f4fd1be439f7ee1315d11fdfc5673182b0069efd07590f75babf33ad",
                    "indexes" : {
                        "data" : 1,
                        "gas" : 0,
                        "value" : 0
                    },
                    "logs" : "0x1dcc4de8dec75d7aab85b567b6ccd41ad312451b948a7413f0a142fd40d49347",
                    "txbytes" : "0xf885800a841000000094cccccccccccccccccccccccccccccccccccccccc01a4693c613900000000000000000000000000000000000000000000000000000000000000011ca0eeec95aaa61558ac0fe5a3f827a7b5ed14f36354d91e6de780f02c04801bafdba05b107d16468b577dfd5ea6d470bceb13c59c563dc7a62f1b80f5c5f33038388a"
                },
                {
                    "hash" : "0xe70ec96de54dddef31a94ce74f856d2933713d4df0643dfe7a885cee23fae16d",
                    "indexes" : {
                        "data" : 2,
                        "gas" : 0,
                        "value" : 0
                    },
                    "logs" : "0x1dcc4de8dec75d7aab85b567b6ccd41ad312451b948a7413f0a142fd40d49347",
                    "txbytes" : "0xf885800a841000000094cccccccccccccccccccccccccccccccccccccccc01a4693c613900000000000000000000000000000000000000000000000000000000000000021ba0519f691a6c93e36bee24bbdb1af5edbfed786e4fd6ce83b0c25687e5f4022379a03cf74aa2463d0d08acc48f5e38d4c1f5661edbf4b3a86e63853cfc932c4b4b10"
                },
                {
                    "hash" : "0x9f1d42ee964ffbb6882624ace5455b2b43486eaee8960ed224f619f8c8ca6760",
                    "indexes" : {
                        "data" : 3,
                        "gas" : 0,
                        "value" : 0
                    },
                    "logs" : "0x1dcc4de8dec75d7aab85b567b6ccd41ad312451b948a7413f0a142fd40d49347",
                    "txbytes" : "0xf885800a841000000094cccccccccccccccccccccccccccccccccccccccc01a4693c613900000000000000000000000000000000000000000000000000000000000000031ca043dc213dadbde41f7a7eb9bc8bf905a47b255c239840c952de1d0af425189504a06ffe2dbf1c0ffdc1a4d4f7242d7c5b970cd1e41ce6ac050e4c0c6198738d8cc5"
                },
                {
                    "hash" : "0x5ee73a87ce691aa106599ef51e85e96c6bcbff1283ba04f02c50b8d6457bfec0",
                    "indexes" : {
                        "data" : 4,
                        "gas" : 0,
                        "value" : 0
                    },
                    "logs" : "0x1dcc4de8dec75d7aab85b567b6ccd41ad312451b948a7413f0a142fd40d49347",
                    "txbytes" : "0xf885800a841000000094cccccccccccccccccccccccccccccccccccccccc01a4693c613900000000000000000000000000000000000000000000000000000000000000041ba0fff98d8f1ed278c9fe15d9658c47be4e28b16394c88a04b08fc1fcab006f4f2ea0038dbf82a9c6561fdb99fe7f807a879a1fc148e5e7086d27668126070c8b2942"
                },
                {
                    "hash" : "0x93e845c2ea14bc209dda4bd9b5f4f38f13aab5fa3d4f180c6cf264ba6ac6a278",
                    "indexes" : {
                        "data" : 5,
                        "gas" : 0,
                        "value" : 0
                    },
                    "logs" : "0x1dcc4de8dec75d7aab85b567b6ccd41ad312451b948a7413f0a142fd40d49347",
                    "txbytes" : "0xf885800a841000000094cccccccccccccccccccccccccccccccccccccccc01a4693c613900000000000000000000000000000000000000000000000000000000000000051ca0b14bcbed2f0b59ecff2815d9ad83401f2ffd4f0c041c156e5cde9877fb37ca9aa04641f828f32dca1ae285bb1ac005a1674f583ac2c53515aecbe46009b36dbb5c"
                }
            ],
            "London" : [
                {
                    "hash" : "0x5df1d67cf5b4762e8e99f90922593cfb747e20f63ad44fe20e2960106689d0e5",
                    "indexes" : {
                        "data" : 0,
                        "gas" : 0,
                        "value" : 0
                    },
                    "logs" : "0x1dcc4de8dec75d7aab85b567b6ccd41ad312451b948a7413f0a142fd40d49347",
                    "txbytes" : "0xf885800a841000000094cccccccccccccccccccccccccccccccccccccccc01a4693c613900000000000000000000000000000000000000000000000000000000000000001ba040cbf8c83e24d3ca34455dc9ec6edb8bbfe2cda6597bd47588d47bc6602d3e12a04b0dec4e432c34e6081c69cad7c56f8ea154961c1c8e99033b359d0e9d2856ef"
                },
                {
                    "hash" : "0xc0594b8b246baa6e0325a6cb2f92ea1dc728301e3ca801d65f55343125e2aee0",
                    "indexes" : {
                        "data" : 1,
                        "gas" : 0,
                        "value" : 0
                    },
                    "logs" : "0x1dcc4de8dec75d7aab85b567b6ccd41ad312451b948a7413f0a142fd40d49347",
                    "txbytes" : "0xf885800a841000000094cccccccccccccccccccccccccccccccccccccccc01a4693c613900000000000000000000000000000000000000000000000000000000000000011ca0eeec95aaa61558ac0fe5a3f827a7b5ed14f36354d91e6de780f02c04801bafdba05b107d16468b577dfd5ea6d470bceb13c59c563dc7a62f1b80f5c5f33038388a"
                },
                {
                    "hash" : "0x37a7600db0b0ac81868e3e8a77bbd000d45531ba725d510ad72311438586430e",
                    "indexes" : {
                        "data" : 2,
                        "gas" : 0,
                        "value" : 0
                    },
                    "logs" : "0x1dcc4de8dec75d7aab85b567b6ccd41ad312451b948a7413f0a142fd40d49347",
                    "txbytes" : "0xf885800a841000000094cccccccccccccccccccccccccccccccccccccccc01a4693c613900000000000000000000000000000000000000000000000000000000000000021ba0519f691a6c93e36bee24bbdb1af5edbfed786e4fd6ce83b0c25687e5f4022379a03cf74aa2463d0d08acc48f5e38d4c1f5661edbf4b3a86e63853cfc932c4b4b10"
                },
                {
                    "hash" : "0xcf04eb07048694ff08a035da08b66b2ca2f00967b3f0d6a2f04b9d13ad6f5e7b",
                    "indexes" : {
                        "data" : 3,
                        "gas" : 0,
                        "value" : 0
                    },
                    "logs" : "0x1dcc4de8dec75d7aab85b567b6ccd41ad312451b948a7413f0a142fd40d49347",
                    "txbytes" : "0xf885800a841000000094cccccccccccccccccccccccccccccccccccccccc01a4693c613900000000000000000000000000000000000000000000000000000000000000031ca043dc213dadbde41f7a7eb9bc8bf905a47b255c239840c952de1d0af425189504a06ffe2dbf1c0ffdc1a4d4f7242d7c5b970cd1e41ce6ac050e4c0c6198738d8cc5"
                },
                {
                    "hash" : "0xcd1003c807e3ac7cd5c3a514276d255d2463d95497b6be54d66957ce95f718b8",
                    "indexes" : {
                        "data" : 4,
                        "gas" : 0,
                        "value" : 0
                    },
                    "logs" : "0x1dcc4de8dec75d7aab85b567b6ccd41ad312451b948a7413f0a142fd40d49347",
                    "txbytes" : "0xf885800a841000000094cccccccccccccccccccccccccccccccccccccccc01a4693c613900000000000000000000000000000000000000000000000000000000000000041ba0fff98d8f1ed278c9fe15d9658c47be4e28b16394c88a04b08fc1fcab006f4f2ea0038dbf82a9c6561fdb99fe7f807a879a1fc148e5e7086d27668126070c8b2942"
                },
                {
                    "hash" : "0x1c7bf9df7b51eb78cd919f8303a47153f02bc6dd611487488b1dad0f43850d9d",
                    "indexes" : {
                        "data" : 5,
                        "gas" : 0,
                        "value" : 0
                    },
                    "logs" : "0x1dcc4de8dec75d7aab85b567b6ccd41ad312451b948a7413f0a142fd40d49347",
                    "txbytes" : "0xf885800a841000000094cccccccccccccccccccccccccccccccccccccccc01a4693c613900000000000000000000000000000000000000000000000000000000000000051ca0b14bcbed2f0b59ecff2815d9ad83401f2ffd4f0c041c156e5cde9877fb37ca9aa04641f828f32dca1ae285bb1ac005a1674f583ac2c53515aecbe46009b36dbb5c"
                }
            ],
            "Merge" : [
                {
                    "hash" : "0x5df1d67cf5b4762e8e99f90922593cfb747e20f63ad44fe20e2960106689d0e5",
                    "indexes" : {
                        "data" : 0,
                        "gas" : 0,
                        "value" : 0
                    },
                    "logs" : "0x1dcc4de8dec75d7aab85b567b6ccd41ad312451b948a7413f0a142fd40d49347",
                    "txbytes" : "0xf885800a841000000094cccccccccccccccccccccccccccccccccccccccc01a4693c613900000000000000000000000000000000000000000000000000000000000000001ba040cbf8c83e24d3ca34455dc9ec6edb8bbfe2cda6597bd47588d47bc6602d3e12a04b0dec4e432c34e6081c69cad7c56f8ea154961c1c8e99033b359d0e9d2856ef"
                },
                {
                    "hash" : "0xc0594b8b246baa6e0325a6cb2f92ea1dc728301e3ca801d65f55343125e2aee0",
                    "indexes" : {
                        "data" : 1,
                        "gas" : 0,
                        "value" : 0
                    },
                    "logs" : "0x1dcc4de8dec75d7aab85b567b6ccd41ad312451b948a7413f0a142fd40d49347",
                    "txbytes" : "0xf885800a841000000094cccccccccccccccccccccccccccccccccccccccc01a4693c613900000000000000000000000000000000000000000000000000000000000000011ca0eeec95aaa61558ac0fe5a3f827a7b5ed14f36354d91e6de780f02c04801bafdba05b107d16468b577dfd5ea6d470bceb13c59c563dc7a62f1b80f5c5f33038388a"
                },
                {
                    "hash" : "0x37a7600db0b0ac81868e3e8a77bbd000d45531ba725d510ad72311438586430e",
                    "indexes" : {
                        "data" : 2,
                        "gas" : 0,
                        "value" : 0
                    },
                    "logs" : "0x1dcc4de8dec75d7aab85b567b6ccd41ad312451b948a7413f0a142fd40d49347",
                    "txbytes" : "0xf885800a841000000094cccccccccccccccccccccccccccccccccccccccc01a4693c613900000000000000000000000000000000000000000000000000000000000000021ba0519f691a6c93e36bee24bbdb1af5edbfed786e4fd6ce83b0c25687e5f4022379a03cf74aa2463d0d08acc48f5e38d4c1f5661edbf4b3a86e63853cfc932c4b4b10"
                },
                {
                    "hash" : "0xcf04eb07048694ff08a035da08b66b2ca2f00967b3f0d6a2f04b9d13ad6f5e7b",
                    "indexes" : {
                        "data" : 3,
                        "gas" : 0,
                        "value" : 0
                    },
                    "logs" : "0x1dcc4de8dec75d7aab85b567b6ccd41ad312451b948a7413f0a142fd40d49347",
                    "txbytes" : "0xf885800a841000000094cccccccccccccccccccccccccccccccccccccccc01a4693c613900000000000000000000000000000000000000000000000000000000000000031ca043dc213dadbde41f7a7eb9bc8bf905a47b255c239840c952de1d0af425189504a06ffe2dbf1c0ffdc1a4d4f7242d7c5b970cd1e41ce6ac050e4c0c6198738d8cc5"
                },
                {
                    "hash" : "0xcd1003c807e3ac7cd5c3a514276d255d2463d95497b6be54d66957ce95f718b8",
                    "indexes" : {
                        "data" : 4,
                        "gas" : 0,
                        "value" : 0
                    },
                    "logs" : "0x1dcc4de8dec75d7aab85b567b6ccd41ad312451b948a7413f0a142fd40d49347",
                    "txbytes" : "0xf885800a841000000094cccccccccccccccccccccccccccccccccccccccc01a4693c613900000000000000000000000000000000000000000000000000000000000000041ba0fff98d8f1ed278c9fe15d9658c47be4e28b16394c88a04b08fc1fcab006f4f2ea0038dbf82a9c6561fdb99fe7f807a879a1fc148e5e7086d27668126070c8b2942"
                },
                {
                    "hash" : "0x1c7bf9df7b51eb78cd919f8303a47153f02bc6dd611487488b1dad0f43850d9d",
                    "indexes" : {
                        "data" : 5,
                        "gas" : 0,
                        "value" : 0
                    },
                    "logs" : "0x1dcc4de8dec75d7aab85b567b6ccd41ad312451b948a7413f0a142fd40d49347",
                    "txbytes" : "0xf885800a841000000094cccccccccccccccccccccccccccccccccccccccc01a4693c613900000000000000000000000000000000000000000000000000000000000000051ca0b14bcbed2f0b59ecff2815d9ad83401f2ffd4f0c041c156e5cde9877fb37ca9aa04641f828f32dca1ae285bb1ac005a1674f583ac2c53515aecbe46009b36dbb5c"
                }
            ],
            "Shanghai" : [
                {
                    "hash" : "0x5df1d67cf5b4762e8e99f90922593cfb747e20f63ad44fe20e2960106689d0e5",
                    "indexes" : {
                        "data" : 0,
                        "gas" : 0,
                        "value" : 0
                    },
                    "logs" : "0x1dcc4de8dec75d7aab85b567b6ccd41ad312451b948a7413f0a142fd40d49347",
                    "txbytes" : "0xf885800a841000000094cccccccccccccccccccccccccccccccccccccccc01a4693c613900000000000000000000000000000000000000000000000000000000000000001ba040cbf8c83e24d3ca34455dc9ec6edb8bbfe2cda6597bd47588d47bc6602d3e12a04b0dec4e432c34e6081c69cad7c56f8ea154961c1c8e99033b359d0e9d2856ef"
                },
                {
                    "hash" : "0xc0594b8b246baa6e0325a6cb2f92ea1dc728301e3ca801d65f55343125e2aee0",
                    "indexes" : {
                        "data" : 1,
                        "gas" : 0,
                        "value" : 0
                    },
                    "logs" : "0x1dcc4de8dec75d7aab85b567b6ccd41ad312451b948a7413f0a142fd40d49347",
                    "txbytes" : "0xf885800a841000000094cccccccccccccccccccccccccccccccccccccccc01a4693c613900000000000000000000000000000000000000000000000000000000000000011ca0eeec95aaa61558ac0fe5a3f827a7b5ed14f36354d91e6de780f02c04801bafdba05b107d16468b577dfd5ea6d470bceb13c59c563dc7a62f1b80f5c5f33038388a"
                },
                {
                    "hash" : "0x37a7600db0b0ac81868e3e8a77bbd000d45531ba725d510ad72311438586430e",
                    "indexes" : {
                        "data" : 2,
                        "gas" : 0,
                        "value" : 0
                    },
                    "logs" : "0x1dcc4de8dec75d7aab85b567b6ccd41ad312451b948a7413f0a142fd40d49347",
                    "txbytes" : "0xf885800a841000000094cccccccccccccccccccccccccccccccccccccccc01a4693c613900000000000000000000000000000000000000000000000000000000000000021ba0519f691a6c93e36bee24bbdb1af5edbfed786e4fd6ce83b0c25687e5f4022379a03cf74aa2463d0d08acc48f5e38d4c1f5661edbf4b3a86e63853cfc932c4b4b10"
                },
                {
                    "hash" : "0xcf04eb07048694ff08a035da08b66b2ca2f00967b3f0d6a2f04b9d13ad6f5e7b",
                    "indexes" : {
                        "data" : 3,
                        "gas" : 0,
                        "value" : 0
                    },
                    "logs" : "0x1dcc4de8dec75d7aab85b567b6ccd41ad312451b948a7413f0a142fd40d49347",
                    "txbytes" : "0xf885800a841000000094cccccccccccccccccccccccccccccccccccccccc01a4693c613900000000000000000000000000000000000000000000000000000000000000031ca043dc213dadbde41f7a7eb9bc8bf905a47b255c239840c952de1d0af425189504a06ffe2dbf1c0ffdc1a4d4f7242d7c5b970cd1e41ce6ac050e4c0c6198738d8cc5"
                },
                {
                    "hash" : "0xcd1003c807e3ac7cd5c3a514276d255d2463d95497b6be54d66957ce95f718b8",
                    "indexes" : {
                        "data" : 4,
                        "gas" : 0,
                        "value" : 0
                    },
                    "logs" : "0x1dcc4de8dec75d7aab85b567b6ccd41ad312451b948a7413f0a142fd40d49347",
                    "txbytes" : "0xf885800a841000000094cccccccccccccccccccccccccccccccccccccccc01a4693c613900000000000000000000000000000000000000000000000000000000000000041ba0fff98d8f1ed278c9fe15d9658c47be4e28b16394c88a04b08fc1fcab006f4f2ea0038dbf82a9c6561fdb99fe7f807a879a1fc148e5e7086d27668126070c8b2942"
                },
                {
                    "hash" : "0x1c7bf9df7b51eb78cd919f8303a47153f02bc6dd611487488b1dad0f43850d9d",
                    "indexes" : {
                        "data" : 5,
                        "gas" : 0,
                        "value" : 0
                    },
                    "logs" : "0x1dcc4de8dec75d7aab85b567b6ccd41ad312451b948a7413f0a142fd40d49347",
                    "txbytes" : "0xf885800a841000000094cccccccccccccccccccccccccccccccccccccccc01a4693c613900000000000000000000000000000000000000000000000000000000000000051ca0b14bcbed2f0b59ecff2815d9ad83401f2ffd4f0c041c156e5cde9877fb37ca9aa04641f828f32dca1ae285bb1ac005a1674f583ac2c53515aecbe46009b36dbb5c"
                }
            ]
        },
        "pre" : {
            "0x0000000000000000000000000000000000000100" : {
                "balance" : "0x0ba1a9ce0ba1a9ce",
                "code" : "0x60ff6000525960005500",
                "nonce" : "0x00",
                "storage" : {
                }
            },
            "0x0000000000000000000000000000000000000101" : {
                "balance" : "0x0ba1a9ce0ba1a9ce",
                "code" : "0x64ffffffffff6000525960005500",
                "nonce" : "0x00",
                "storage" : {
                }
            },
            "0x0000000000000000000000000000000000000102" : {
                "balance" : "0x0ba1a9ce0ba1a9ce",
                "code" : "0x64ffffffffff60005261eeee6020525960005500",
                "nonce" : "0x00",
                "storage" : {
                }
            },
            "0x0000000000000000000000000000000000000103" : {
                "balance" : "0x0ba1a9ce0ba1a9ce",
                "code" : "0x64ffffffffff60005261eeee605a525960005500",
                "nonce" : "0x00",
                "storage" : {
                }
            },
            "0x0000000000000000000000000000000000000104" : {
                "balance" : "0x0ba1a9ce0ba1a9ce",
                "code" : "0x6001601f535960005560016020535960015560006020535960025500",
                "nonce" : "0x00",
                "storage" : {
                }
            },
            "0x0000000000000000000000000000000000000105" : {
                "balance" : "0x0ba1a9ce0ba1a9ce",
                "code" : "0x600162b00000535960005500",
                "nonce" : "0x00",
                "storage" : {
                }
            },
            "0xa94f5374fce5edbc8e2a8697c15331677e6ebf0b" : {
                "balance" : "0x100000000000",
                "code" : "0x",
                "nonce" : "0x00",
                "storage" : {
                }
            },
            "0xcccccccccccccccccccccccccccccccccccccccc" : {
                "balance" : "0x0ba1a9ce0ba1a9ce",
                "code" : "0x6000600060006000600435610100015af400",
                "nonce" : "0x00",
                "storage" : {
                }
            }
        },
        "transaction" : {
            "data" : [
                "0x693c61390000000000000000000000000000000000000000000000000000000000000000",
                "0x693c61390000000000000000000000000000000000000000000000000000000000000001",
                "0x693c61390000000000000000000000000000000000000000000000000000000000000002",
                "0x693c61390000000000000000000000000000000000000000000000000000000000000003",
                "0x693c61390000000000000000000000000000000000000000000000000000000000000004",
                "0x693c61390000000000000000000000000000000000000000000000000000000000000005"
            ],
            "gasLimit" : [
                "0x10000000"
            ],
            "gasPrice" : "0x0a",
            "nonce" : "0x00",
            "secretKey" : "0x45a915e4d060149eb4365960e6a7a45f334393093061116b197e3240065ff2d8",
            "sender" : "0xa94f5374fce5edbc8e2a8697c15331677e6ebf0b",
            "to" : "0xcccccccccccccccccccccccccccccccccccccccc",
            "value" : [
                "0x01"
            ]
        }
    }
}