{
    "emptyBlobhashList" : {
        "_info" : {
            "comment" : "BLOB000",
            "filling-rpc-server" : "evm version 1.13.11-unstable-765f2904-20240124",
            "filling-tool-version" : "retesteth-0.3.2-cancun+commit.ea13235b.Linux.g++",
            "generatedTestHash" : "db49af9395289d8a85e29fc0fecb8e4d310db3fb70bebd4a427b9aa3cd8bab58",
            "lllcversion" : "Version: 0.5.14-develop.2023.7.11+commit.c58ab2c6.mod.Linux.g++",
            "solidity" : "Version: 0.8.21+commit.d9974bed.Linux.g++",
            "source" : "src/GeneralStateTestsFiller/Cancun/stEIP4844-blobtransactions/emptyBlobhashListFiller.yml",
            "sourceHash" : "44722a158370f2decd5b8a41466c5931f6799bef3f6bf736c1ae51b7eadcb3b9"
        },
        "env" : {
            "currentBaseFee" : "0x07",
            "currentCoinbase" : "0x2adc25665018aa1fe0e6bc666dac8fc2697ff9ba",
            "currentDifficulty" : "0x020000",
            "currentExcessBlobGas" : "0x00",
            "currentGasLimit" : "0x1000000000",
            "currentNumber" : "0x01",
            "currentRandom" : "0x0000000000000000000000000000000000000000000000000000000000020000",
            "currentTimestamp" : "0x03e8"
        },
        "post" : {
            "Cancun" : [
                {
                    "expectException" : "TR_EMPTYBLOB",
                    "hash" : "0x668817abd521eb1401e0b8e52014bf6e36346dc786bf9084f3f03ac09b2ffaa2",
                    "indexes" : {
                        "data" : 0,
                        "gas" : 0,
                        "value" : 0
                    },
                    "logs" : "0x1dcc4de8dec75d7aab85b567b6ccd41ad312451b948a7413f0a142fd40d49347",
                    "txbytes" : "0x03f8c901800285012a05f200833d090094095e7baea6a6c7c4c2dfeb977efac326af552d87830186a000f85bf85994095e7baea6a6c7c4c2dfeb977efac326af552d87f842a00000000000000000000000000000000000000000000000000000000000000000a000000000000000000000000000000000000000000000000000000000000000010ac001a08f8085876dad2d79955419c8b581c319e6edf3d2b9a7495862c061ae6c7ae349a03d18c34a22cac30bb86f3ca9dbc557fd5ea0d1bc37b79f00e1e463d056527245"
                }
            ]
        },
        "pre" : {
            "0x095e7baea6a6c7c4c2dfeb977efac326af552d87" : {
                "balance" : "0x0de0b6b3a7640000",
                "code" : "0x60004960005500",
                "nonce" : "0x00",
                "storage" : {
                }
            },
            "0xa94f5374fce5edbc8e2a8697c15331677e6ebf0b" : {
                "balance" : "0x0de0b6b3a7640000",
                "code" : "0x",
                "nonce" : "0x00",
                "storage" : {
                }
            }
        },
        "transaction" : {
            "accessLists" : [
                [
                    {
                        "address" : "0x095e7baea6a6c7c4c2dfeb977efac326af552d87",
                        "storageKeys" : [
                            "0x0000000000000000000000000000000000000000000000000000000000000000",
                            "0x0000000000000000000000000000000000000000000000000000000000000001"
                        ]
                    }
                ]
            ],
            "blobVersionedHashes" : [
            ],
            "data" : [
                "0x00"
            ],
            "gasLimit" : [
                "0x3d0900"
            ],
            "maxFeePerBlobGas" : "0x0a",
            "maxFeePerGas" : "0x012a05f200",
            "maxPriorityFeePerGas" : "0x02",
            "nonce" : "0x00",
            "secretKey" : "0x45a915e4d060149eb4365960e6a7a45f334393093061116b197e3240065ff2d8",
            "sender" : "0xa94f5374fce5edbc8e2a8697c15331677e6ebf0b",
            "to" : "0x095e7baea6a6c7c4c2dfeb977efac326af552d87",
            "value" : [
                "0x0186a0"
            ]
        }
    }
}