{
    "solidityExample_d0g0v0_Berlin" : {
        "_info" : {
            "comment" : "An example test for using solidity contracts in the test",
            "filling-rpc-server" : "evm version 1.10.2-unstable-22082f9e-20210309",
            "filling-tool-version" : "retesteth-0.1.0-accesslist+commit.93b2675e.Linux.g++",
            "lllcversion" : "Version: 0.5.14-develop.2021.3.9+commit.14c9d5de.Linux.g++",
            "source" : "src/GeneralStateTestsFiller/stExample/solidityExampleFiller.yml",
            "sourceHash" : "50291e1d3fc37a6614fcee39aa69ac52448717a152d18b168c72abc7bcb7286a"
        },
        "genesisBlockHeader" : {
            "bloom" : "0x00000000000000000000000000000000000000000000000000000000000000000000000000000000000000000000000000000000000000000000000000000000000000000000000000000000000000000000000000000000000000000000000000000000000000000000000000000000000000000000000000000000000000000000000000000000000000000000000000000000000000000000000000000000000000000000000000000000000000000000000000000000000000000000000000000000000000000000000000000000000000000000000000000000000000000000000000000000000000000000000000000000000000000000000000000000",
            "coinbase" : "0x2adc25665018aa1fe0e6bc666dac8fc2697ff9ba",
            "difficulty" : "0x020000",
            "extraData" : "0x00",
            "gasLimit" : "0x05f5e100",
            "gasUsed" : "0x00",
            "hash" : "0xe356b26bec31f4dad490c888962a58c089deaa90ecd7b041bd35d591f66fb495",
            "mixHash" : "0x0000000000000000000000000000000000000000000000000000000000000000",
            "nonce" : "0x0000000000000000",
            "number" : "0x00",
            "parentHash" : "0x0000000000000000000000000000000000000000000000000000000000000000",
            "receiptTrie" : "0x56e81f171bcc55a6ff8345e692c0f86e5b48e01b996cadc001622fb5e363b421",
            "stateRoot" : "0x663b1ef0463f341f228aafc9376f8ea8199532c543f1ada52a1a3cc6892b7835",
            "timestamp" : "0x00",
            "transactionsTrie" : "0x56e81f171bcc55a6ff8345e692c0f86e5b48e01b996cadc001622fb5e363b421",
            "uncleHash" : "0x1dcc4de8dec75d7aab85b567b6ccd41ad312451b948a7413f0a142fd40d49347"
        },
        "pre" : {
            "0x095e7baea6a6c7c4c2dfeb977efac326af552d87" : {
                "balance" : "0x0ba1a9ce0ba1a9ce",
                "code" : "0x608060405234801561001057600080fd5b506004361061002b5760003560e01c8063b66176a714610030575b600080fd5b6100666004803603604081101561004657600080fd5b810190808035906020019092919080359060200190929190505050610068565b005b60405161007490610167565b604051809103906000f080158015610090573d6000803e3d6000fd5b506000806101000a81548173ffffffffffffffffffffffffffffffffffffffff021916908373ffffffffffffffffffffffffffffffffffffffff16021790555060008054906101000a900473ffffffffffffffffffffffffffffffffffffffff1673ffffffffffffffffffffffffffffffffffffffff1663b66176a783836040518363ffffffff1660e01b81526004018083815260200182815260200192505050600060405180830381600087803b15801561014b57600080fd5b505af115801561015f573d6000803e3d6000fd5b505050505050565b60d0806101748339019056fe608060405267ff00ff00ff00ff00600055348015601b57600080fd5b5060a68061002a6000396000f3fe6080604052348015600f57600080fd5b506004361060285760003560e01c8063b66176a714602d575b600080fd5b606060048036036040811015604157600080fd5b8101908080359060200190929190803590602001909291905050506062565b005b80600081905550808255505056fea2646970667358221220e323c4636bdfcb129386c91fe1c2011a57d9e6825397e6057b89aaa113b6d6c564736f6c63430007000033a264697066735822122096be7d16cb286d89b14d213991be00a9c9c8adc4b3ef94a02322548113b1ce8d64736f6c63430007000033",
                "nonce" : "0x00",
                "storage" : {
                }
            },
            "0x195e7baea6a6c7c4c2dfeb977efac326af552d87" : {
                "balance" : "0x0ba1a9ce0ba1a9ce",
                "code" : "0x6080604052348015600f57600080fd5b506004361060285760003560e01c8063b66176a714602d575b600080fd5b606060048036036040811015604157600080fd5b8101908080359060200190929190803590602001909291905050506062565b005b80600081905550808255505056fea26469706673582212202aae3822c32f484cad234c803bcab15bf8842677da8010ec876f106033f5424564736f6c63430007000033",
                "nonce" : "0x00",
                "storage" : {
                }
            },
            "0xa94f5374fce5edbc8e2a8697c15331677e6ebf0b" : {
                "balance" : "0x0ba1a9ce0ba1a9ce",
                "code" : "0x",
                "nonce" : "0x00",
                "storage" : {
                }
            }
        },
        "postState" : {
            "0x095e7baea6a6c7c4c2dfeb977efac326af552d87" : {
                "code" : "0x608060405234801561001057600080fd5b506004361061002b5760003560e01c8063b66176a714610030575b600080fd5b6100666004803603604081101561004657600080fd5b810190808035906020019092919080359060200190929190505050610068565b005b60405161007490610167565b604051809103906000f080158015610090573d6000803e3d6000fd5b506000806101000a81548173ffffffffffffffffffffffffffffffffffffffff021916908373ffffffffffffffffffffffffffffffffffffffff16021790555060008054906101000a900473ffffffffffffffffffffffffffffffffffffffff1673ffffffffffffffffffffffffffffffffffffffff1663b66176a783836040518363ffffffff1660e01b81526004018083815260200182815260200192505050600060405180830381600087803b15801561014b57600080fd5b505af115801561015f573d6000803e3d6000fd5b505050505050565b60d0806101748339019056fe608060405267ff00ff00ff00ff00600055348015601b57600080fd5b5060a68061002a6000396000f3fe6080604052348015600f57600080fd5b506004361060285760003560e01c8063b66176a714602d575b600080fd5b606060048036036040811015604157600080fd5b8101908080359060200190929190803590602001909291905050506062565b005b80600081905550808255505056fea2646970667358221220e323c4636bdfcb129386c91fe1c2011a57d9e6825397e6057b89aaa113b6d6c564736f6c63430007000033a264697066735822122096be7d16cb286d89b14d213991be00a9c9c8adc4b3ef94a02322548113b1ce8d64736f6c63430007000033",
                "nonce" : "0x01",
                "balance" : "0x0ba1a9ce0ba1a9ce",
                "storage" : {
                    "0x00" : "0xd2571607e241ecf590ed94b12d87c94babe36db6"
                }
            },
            "0x195e7baea6a6c7c4c2dfeb977efac326af552d87" : {
                "code" : "0x6080604052348015600f57600080fd5b506004361060285760003560e01c8063b66176a714602d575b600080fd5b606060048036036040811015604157600080fd5b8101908080359060200190929190803590602001909291905050506062565b005b80600081905550808255505056fea26469706673582212202aae3822c32f484cad234c803bcab15bf8842677da8010ec876f106033f5424564736f6c63430007000033",
                "nonce" : "0x00",
                "balance" : "0x0ba1a9ce0ba1a9ce",
                "storage" : {
                }
            },
            "0x2adc25665018aa1fe0e6bc666dac8fc2697ff9ba" : {
                "code" : "0x",
                "nonce" : "0x00",
                "balance" : "0x1bc16d674eca5a8d",
                "storage" : {
                }
            },
            "0xa94f5374fce5edbc8e2a8697c15331677e6ebf0b" : {
                "code" : "0x",
                "nonce" : "0x01",
                "balance" : "0x0ba1a9ce0b9f4f41",
                "storage" : {
                }
            },
            "0xd2571607e241ecf590ed94b12d87c94babe36db6" : {
                "code" : "0x6080604052348015600f57600080fd5b506004361060285760003560e01c8063b66176a714602d575b600080fd5b606060048036036040811015604157600080fd5b8101908080359060200190929190803590602001909291905050506062565b005b80600081905550808255505056fea2646970667358221220e323c4636bdfcb129386c91fe1c2011a57d9e6825397e6057b89aaa113b6d6c564736f6c63430007000033",
                "nonce" : "0x01",
                "balance" : "0x00",
                "storage" : {
                    "0x00" : "0x45",
                    "0x05" : "0x45"
                }
            }
        },
        "network" : "Berlin",
        "sealEngine" : "NoProof",
        "lastblockhash" : "0xafa0d4d869dd2ad93a748c7c4d31b003568d391ace306c5fdd174b0f16c3ad95",
        "genesisRLP" : "0xf901f9f901f4a00000000000000000000000000000000000000000000000000000000000000000a01dcc4de8dec75d7aab85b567b6ccd41ad312451b948a7413f0a142fd40d49347942adc25665018aa1fe0e6bc666dac8fc2697ff9baa0663b1ef0463f341f228aafc9376f8ea8199532c543f1ada52a1a3cc6892b7835a056e81f171bcc55a6ff8345e692c0f86e5b48e01b996cadc001622fb5e363b421a056e81f171bcc55a6ff8345e692c0f86e5b48e01b996cadc001622fb5e363b421b901000000000000000000000000000000000000000000000000000000000000000000000000000000000000000000000000000000000000000000000000000000000000000000000000000000000000000000000000000000000000000000000000000000000000000000000000000000000000000000000000000000000000000000000000000000000000000000000000000000000000000000000000000000000000000000000000000000000000000000000000000000000000000000000000000000000000000000000000000000000000000000000000000000000000000000000000000000000000000000000000000000000000000000000000000000000083020000808405f5e100808000a00000000000000000000000000000000000000000000000000000000000000000880000000000000000c0c0",
        "blocks" : [
            {
                "rlp" : "0xf902a7f901f9a0e356b26bec31f4dad490c888962a58c089deaa90ecd7b041bd35d591f66fb495a01dcc4de8dec75d7aab85b567b6ccd41ad312451b948a7413f0a142fd40d49347942adc25665018aa1fe0e6bc666dac8fc2697ff9baa070ff1135a61c936ceec068297256ea4e170d852e1ebe625a8a51ba452961dccfa0cf4b1d5d4509e3504c4e871585aeba1f77c62137c7c3647dbe5098cf480458b7a09d8fc51b7ec7fea73425e992edb5db751925fc0b8226cd9054a4a65a8c8774bbb901000000000000000000000000000000000000000000000000000000000000000000000000000000000000000000000000000000000000000000000000000000000000000000000000000000000000000000000000000000000000000000000000000000000000000000000000000000000000000000000000000000000000000000000000000000000000000000000000000000000000000000000000000000000000000000000000000000000000000000000000000000000000000000000000000000000000000000000000000000000000000000000000000000000000000000000000000000000000000000000000000000000000000000000000000000000083020000018405f5e10083025a8d8203e800a00000000000000000000000000000000000000000000000000000000000000000880000000000000000f8a8f8a680018404c4b40094095e7baea6a6c7c4c2dfeb977efac326af552d8780b844b66176a7000000000000000000000000000000000000000000000000000000000000000500000000000000000000000000000000000000000000000000000000000000451ca03c3ed38b53ccd80f707de33c688c4c42fa163603fd47d413887a243f1f8abecfa03c125096ebea4560c7e8eec0dae555e1e38fdc13aef542b8b2387d4d02819998c0",
                "blockHeader" : {
                    "bloom" : "0x00000000000000000000000000000000000000000000000000000000000000000000000000000000000000000000000000000000000000000000000000000000000000000000000000000000000000000000000000000000000000000000000000000000000000000000000000000000000000000000000000000000000000000000000000000000000000000000000000000000000000000000000000000000000000000000000000000000000000000000000000000000000000000000000000000000000000000000000000000000000000000000000000000000000000000000000000000000000000000000000000000000000000000000000000000000",
                    "coinbase" : "0x2adc25665018aa1fe0e6bc666dac8fc2697ff9ba",
                    "difficulty" : "0x020000",
                    "extraData" : "0x00",
                    "gasLimit" : "0x05f5e100",
                    "gasUsed" : "0x025a8d",
                    "hash" : "0xafa0d4d869dd2ad93a748c7c4d31b003568d391ace306c5fdd174b0f16c3ad95",
                    "mixHash" : "0x0000000000000000000000000000000000000000000000000000000000000000",
                    "nonce" : "0x0000000000000000",
                    "number" : "0x01",
                    "parentHash" : "0xe356b26bec31f4dad490c888962a58c089deaa90ecd7b041bd35d591f66fb495",
                    "receiptTrie" : "0x9d8fc51b7ec7fea73425e992edb5db751925fc0b8226cd9054a4a65a8c8774bb",
                    "stateRoot" : "0x70ff1135a61c936ceec068297256ea4e170d852e1ebe625a8a51ba452961dccf",
                    "timestamp" : "0x03e8",
                    "transactionsTrie" : "0xcf4b1d5d4509e3504c4e871585aeba1f77c62137c7c3647dbe5098cf480458b7",
                    "uncleHash" : "0x1dcc4de8dec75d7aab85b567b6ccd41ad312451b948a7413f0a142fd40d49347"
                },
                "transactions" : [
                    {
                        "data" : "0xb66176a700000000000000000000000000000000000000000000000000000000000000050000000000000000000000000000000000000000000000000000000000000045",
                        "gasLimit" : "0x04c4b400",
                        "gasPrice" : "0x01",
                        "nonce" : "0x00",
                        "to" : "0x095e7baea6a6c7c4c2dfeb977efac326af552d87",
                        "value" : "0x00",
                        "v" : "0x1c",
                        "r" : "0x3c3ed38b53ccd80f707de33c688c4c42fa163603fd47d413887a243f1f8abecf",
                        "s" : "0x3c125096ebea4560c7e8eec0dae555e1e38fdc13aef542b8b2387d4d02819998"
                    }
                ],
                "uncleHeaders" : [
                ]
            }
        ]
    }
}