{
    "create2InitCodes_d8g0v0_Constantinople" : {
        "_info" : {
            "comment" : "",
            "filledwith" : "testeth 1.5.0.dev2+commit.61415d73.dirty",
            "lllcversion" : "Version: 0.4.25-develop.2018.8.9+commit.63d071d6.mod.Linux.g++",
            "source" : "src/BlockchainTestsFiller/GeneralStateTests/stCreate2/create2InitCodes_d8g0v0Filler.json",
            "sourceHash" : "b9cf8ec382861af3fbf308a3747e108ccbb9f997cf1a2b4f03e62fda0e2d0e16"
        },
        "blocks" : [
            {
                "blockHeader" : {
                    "bloom" : "0x00000000000000000000000000000000000000000000000000000000000000000000000000000000000000000000000000000000000000000000000000000000000000000000000000000000000000000000000000000000000000000000000000000000000000000000000000000000000000000000000000000000000000000000000000000000000000000000000000000000000000000000000000000000000000000000000000000000000000000000000000000000000000000000000000000000000000000000000000000000000000000000000000000000000000000000000000000000000000000000000000000000000000000000000000000000",
                    "coinbase" : "0x2adc25665018aa1fe0e6bc666dac8fc2697ff9ba",
                    "difficulty" : "0x020000",
                    "extraData" : "",
                    "gasLimit" : "0x0f4240",
                    "gasUsed" : "0x019e4e",
                    "hash" : "0x52a4082ee366640d6b4b9e0f06604ed4e58b1c63f27ad2095e6d57e60900d52a",
                    "mixHash" : "0x0000000000000000000000000000000000000000000000000000000000000000",
                    "nonce" : "0x0000000000000000",
                    "number" : "0x01",
                    "parentHash" : "0x813a03e58564185e9a635f602e5f8da3ab602ac12b45b34e03aadbae561a9020",
                    "receiptTrie" : "0x908fdf67d77ea4340d0d868e513eb0b5c689dfc14418e6beffd11356b6fbc802",
                    "stateRoot" : "0x4ac9e77d705a1420c33d9e7fd3afcdeb308aaea62fd54d80d9e986e605cf57cc",
                    "timestamp" : "0x03e8",
                    "transactionsTrie" : "0x317b88126943c4f171c4d487f47a694e0367f5bb91f61a4b6b3a3a47268cd2e7",
                    "uncleHash" : "0x1dcc4de8dec75d7aab85b567b6ccd41ad312451b948a7413f0a142fd40d49347"
                },
                "rlp" : "0xf9025ef901f8a0813a03e58564185e9a635f602e5f8da3ab602ac12b45b34e03aadbae561a9020a01dcc4de8dec75d7aab85b567b6ccd41ad312451b948a7413f0a142fd40d49347942adc25665018aa1fe0e6bc666dac8fc2697ff9baa04ac9e77d705a1420c33d9e7fd3afcdeb308aaea62fd54d80d9e986e605cf57cca0317b88126943c4f171c4d487f47a694e0367f5bb91f61a4b6b3a3a47268cd2e7a0908fdf67d77ea4340d0d868e513eb0b5c689dfc14418e6beffd11356b6fbc802b90100000000000000000000000000000000000000000000000000000000000000000000000000000000000000000000000000000000000000000000000000000000000000000000000000000000000000000000000000000000000000000000000000000000000000000000000000000000000000000000000000000000000000000000000000000000000000000000000000000000000000000000000000000000000000000000000000000000000000000000000000000000000000000000000000000000000000000000000000000000000000000000000000000000000000000000000000000000000000000000000000000000000000000000000000000000008302000001830f424083019e4e8203e880a00000000000000000000000000000000000000000000000000000000000000000880000000000000000f860f85e800183061a808001926160a960005260006002601e6001f56000551ba0858517c12bfee51e647c8cde5118f7bd12518c18eb0d16d0614fba7378b3b287a07564015416d676d923a7b97899e962d7ed15c3a27884e952558ba62c6a5546d3c0",
                "transactions" : [
                    {
                        "data" : "0x6160a960005260006002601e6001f5600055",
                        "gasLimit" : "0x061a80",
                        "gasPrice" : "0x01",
                        "nonce" : "0x00",
                        "r" : "0x858517c12bfee51e647c8cde5118f7bd12518c18eb0d16d0614fba7378b3b287",
                        "s" : "0x7564015416d676d923a7b97899e962d7ed15c3a27884e952558ba62c6a5546d3",
                        "to" : "",
                        "v" : "0x1b",
                        "value" : "0x01"
                    }
                ],
                "uncleHeaders" : [
                ]
            }
        ],
        "genesisBlockHeader" : {
            "bloom" : "0x00000000000000000000000000000000000000000000000000000000000000000000000000000000000000000000000000000000000000000000000000000000000000000000000000000000000000000000000000000000000000000000000000000000000000000000000000000000000000000000000000000000000000000000000000000000000000000000000000000000000000000000000000000000000000000000000000000000000000000000000000000000000000000000000000000000000000000000000000000000000000000000000000000000000000000000000000000000000000000000000000000000000000000000000000000000",
            "coinbase" : "0x2adc25665018aa1fe0e6bc666dac8fc2697ff9ba",
            "difficulty" : "0x020000",
            "extraData" : "0x42",
            "gasLimit" : "0x0f4240",
            "gasUsed" : "0x00",
            "hash" : "0x813a03e58564185e9a635f602e5f8da3ab602ac12b45b34e03aadbae561a9020",
            "mixHash" : "0x56e81f171bcc55a6ff8345e692c0f86e5b48e01b996cadc001622fb5e363b421",
            "nonce" : "0x0102030405060708",
            "number" : "0x00",
            "parentHash" : "0x0000000000000000000000000000000000000000000000000000000000000000",
            "receiptTrie" : "0x56e81f171bcc55a6ff8345e692c0f86e5b48e01b996cadc001622fb5e363b421",
            "stateRoot" : "0x517f2cdf6adb1a644878c390ffab4e130f1bed4b498ef7ce58c5addd98d61018",
            "timestamp" : "0x03b6",
            "transactionsTrie" : "0x56e81f171bcc55a6ff8345e692c0f86e5b48e01b996cadc001622fb5e363b421",
            "uncleHash" : "0x1dcc4de8dec75d7aab85b567b6ccd41ad312451b948a7413f0a142fd40d49347"
        },
        "genesisRLP" : "0xf901faf901f5a00000000000000000000000000000000000000000000000000000000000000000a01dcc4de8dec75d7aab85b567b6ccd41ad312451b948a7413f0a142fd40d49347942adc25665018aa1fe0e6bc666dac8fc2697ff9baa0517f2cdf6adb1a644878c390ffab4e130f1bed4b498ef7ce58c5addd98d61018a056e81f171bcc55a6ff8345e692c0f86e5b48e01b996cadc001622fb5e363b421a056e81f171bcc55a6ff8345e692c0f86e5b48e01b996cadc001622fb5e363b421b90100000000000000000000000000000000000000000000000000000000000000000000000000000000000000000000000000000000000000000000000000000000000000000000000000000000000000000000000000000000000000000000000000000000000000000000000000000000000000000000000000000000000000000000000000000000000000000000000000000000000000000000000000000000000000000000000000000000000000000000000000000000000000000000000000000000000000000000000000000000000000000000000000000000000000000000000000000000000000000000000000000000000000000000000000000000008302000080830f4240808203b642a056e81f171bcc55a6ff8345e692c0f86e5b48e01b996cadc001622fb5e363b421880102030405060708c0c0",
        "lastblockhash" : "0x52a4082ee366640d6b4b9e0f06604ed4e58b1c63f27ad2095e6d57e60900d52a",
        "network" : "Constantinople",
        "postState" : {
            "0x2adc25665018aa1fe0e6bc666dac8fc2697ff9ba" : {
                "balance" : "0x29a2241af62d9e4e",
                "code" : "",
                "nonce" : "0x00",
                "storage" : {
                }
            },
            "0x5210981ae8161a02a1b7e37452ae142aedc66ea3" : {
                "balance" : "0x01",
                "code" : "",
                "nonce" : "0x01",
                "storage" : {
                }
            },
            "0x6295ee1b4f6dd65047762f924ecd367c17eabf8f" : {
                "balance" : "0x00",
                "code" : "",
                "nonce" : "0x02",
                "storage" : {
                    "0x00" : "0x5210981ae8161a02a1b7e37452ae142aedc66ea3"
                }
            },
            "0xa94f5374fce5edbc8e2a8697c15331677e6ebf0b" : {
                "balance" : "0x0de0b6b3a76261b1",
                "code" : "",
                "nonce" : "0x01",
                "storage" : {
                }
            }
        },
        "pre" : {
            "0xa94f5374fce5edbc8e2a8697c15331677e6ebf0b" : {
                "balance" : "0x0de0b6b3a7640000",
                "code" : "",
                "nonce" : "0x00",
                "storage" : {
                }
            }
        },
        "sealEngine" : "NoProof"
    }
}