{
    "CREATE2_Suicide_d7g0v0_Constantinople" : {
        "_info" : {
            "comment" : "",
            "filledwith" : "testeth 1.5.0.dev2+commit.c823095e.dirty",
            "lllcversion" : "Version: 0.4.25-develop.2018.8.9+commit.63d071d6.mod.Linux.g++",
            "source" : "src/BlockchainTestsFiller/GeneralStateTests/stCreate2/CREATE2_Suicide_d7g0v0Filler.json",
            "sourceHash" : "5a0e7ad69e0492c7087dd5f384aa21f43d77bac91f2520d6100d1dfaad7526c2"
        },
        "blocks" : [
            {
                "blockHeader" : {
                    "bloom" : "0x00000000000000000000000000000000000000000000000000000000000000000000000000000000000000000000000000000000000000000000000000000000000000000000000000000000000000000000000000000000000000000000000000000000000000000000000000000000000000000000000000000000000000000000000000000000000000000000000000000000000000000000000000000000000000000000000000000000000000000000000000000000000000000000000000000000000000000000000000000000000000000000000000000000000000000000000000000000000000000000000000000000000000000000000000000000",
                    "coinbase" : "0x2adc25665018aa1fe0e6bc666dac8fc2697ff9ba",
                    "difficulty" : "0x020000",
                    "extraData" : "",
                    "gasLimit" : "0x989680",
                    "gasUsed" : "0x011493",
                    "hash" : "0x3ba33b10d995e95c97c0f125a3ea5f66b03d98673ec524568cd9095e371fcafb",
                    "mixHash" : "0x0000000000000000000000000000000000000000000000000000000000000000",
                    "nonce" : "0x0000000000000000",
                    "number" : "0x01",
                    "parentHash" : "0x997b30dda6b49dfb83a6a96c084c3dc16dfb26c87112fedc6f6782d31f2f9c7b",
                    "receiptTrie" : "0x79f0b303f9afeac15ac4cd804a74240186877230d23446b6e794ac36b1e25522",
                    "stateRoot" : "0xda7226e8d3a7740b9aaf7ef11832109f81b9e17d1781c9560a380cf718e438b1",
                    "timestamp" : "0x03e8",
                    "transactionsTrie" : "0xa7e335177447837d052b511132e7404032e35cdc161577f6464589a618c21939",
                    "uncleHash" : "0x1dcc4de8dec75d7aab85b567b6ccd41ad312451b948a7413f0a142fd40d49347"
                },
                "rlp" : "0xf9028af901f8a0997b30dda6b49dfb83a6a96c084c3dc16dfb26c87112fedc6f6782d31f2f9c7ba01dcc4de8dec75d7aab85b567b6ccd41ad312451b948a7413f0a142fd40d49347942adc25665018aa1fe0e6bc666dac8fc2697ff9baa0da7226e8d3a7740b9aaf7ef11832109f81b9e17d1781c9560a380cf718e438b1a0a7e335177447837d052b511132e7404032e35cdc161577f6464589a618c21939a079f0b303f9afeac15ac4cd804a74240186877230d23446b6e794ac36b1e25522b9010000000000000000000000000000000000000000000000000000000000000000000000000000000000000000000000000000000000000000000000000000000000000000000000000000000000000000000000000000000000000000000000000000000000000000000000000000000000000000000000000000000000000000000000000000000000000000000000000000000000000000000000000000000000000000000000000000000000000000000000000000000000000000000000000000000000000000000000000000000000000000000000000000000000000000000000000000000000000000000000000000000000000000000000000000000000830200000183989680830114938203e880a00000000000000000000000000000000000000000000000000000000000000000880000000000000000f88cf88a8001830927c0800ab83d6a6130ff6000526002601ef36000526000600b60156001f55060006000600060006000736cd0e5133771823da00d4cb545ec8cdab0e38203620249f0f11ba032dd7043953ec80a9ea69afd792d077a188192ca9882afca7383863ed48f379ea019d5710aba4baa590134cee737e8cb734970c02d19b9a6275605fd6f731c6eefc0",
                "transactions" : [
                    {
                        "data" : "0x6a6130ff6000526002601ef36000526000600b60156001f55060006000600060006000736cd0e5133771823da00d4cb545ec8cdab0e38203620249f0f1",
                        "gasLimit" : "0x0927c0",
                        "gasPrice" : "0x01",
                        "nonce" : "0x00",
                        "r" : "0x32dd7043953ec80a9ea69afd792d077a188192ca9882afca7383863ed48f379e",
                        "s" : "0x19d5710aba4baa590134cee737e8cb734970c02d19b9a6275605fd6f731c6eef",
                        "to" : "",
                        "v" : "0x1b",
                        "value" : "0x0a"
                    }
                ],
                "uncleHeaders" : [
                ]
            }
        ],
        "genesisBlockHeader" : {
            "bloom" : "0x00000000000000000000000000000000000000000000000000000000000000000000000000000000000000000000000000000000000000000000000000000000000000000000000000000000000000000000000000000000000000000000000000000000000000000000000000000000000000000000000000000000000000000000000000000000000000000000000000000000000000000000000000000000000000000000000000000000000000000000000000000000000000000000000000000000000000000000000000000000000000000000000000000000000000000000000000000000000000000000000000000000000000000000000000000000",
            "coinbase" : "0x2adc25665018aa1fe0e6bc666dac8fc2697ff9ba",
            "difficulty" : "0x020000",
            "extraData" : "0x42",
            "gasLimit" : "0x989680",
            "gasUsed" : "0x00",
            "hash" : "0x997b30dda6b49dfb83a6a96c084c3dc16dfb26c87112fedc6f6782d31f2f9c7b",
            "mixHash" : "0x56e81f171bcc55a6ff8345e692c0f86e5b48e01b996cadc001622fb5e363b421",
            "nonce" : "0x0102030405060708",
            "number" : "0x00",
            "parentHash" : "0x0000000000000000000000000000000000000000000000000000000000000000",
            "receiptTrie" : "0x56e81f171bcc55a6ff8345e692c0f86e5b48e01b996cadc001622fb5e363b421",
            "stateRoot" : "0xf01530719e567a2bfd10ea8dac83b1fb1dc4017e2ec9eb4e646339708a3ca96d",
            "timestamp" : "0x03b6",
            "transactionsTrie" : "0x56e81f171bcc55a6ff8345e692c0f86e5b48e01b996cadc001622fb5e363b421",
            "uncleHash" : "0x1dcc4de8dec75d7aab85b567b6ccd41ad312451b948a7413f0a142fd40d49347"
        },
        "genesisRLP" : "0xf901faf901f5a00000000000000000000000000000000000000000000000000000000000000000a01dcc4de8dec75d7aab85b567b6ccd41ad312451b948a7413f0a142fd40d49347942adc25665018aa1fe0e6bc666dac8fc2697ff9baa0f01530719e567a2bfd10ea8dac83b1fb1dc4017e2ec9eb4e646339708a3ca96da056e81f171bcc55a6ff8345e692c0f86e5b48e01b996cadc001622fb5e363b421a056e81f171bcc55a6ff8345e692c0f86e5b48e01b996cadc001622fb5e363b421b9010000000000000000000000000000000000000000000000000000000000000000000000000000000000000000000000000000000000000000000000000000000000000000000000000000000000000000000000000000000000000000000000000000000000000000000000000000000000000000000000000000000000000000000000000000000000000000000000000000000000000000000000000000000000000000000000000000000000000000000000000000000000000000000000000000000000000000000000000000000000000000000000000000000000000000000000000000000000000000000000000000000000000000000000000000000000830200008083989680808203b642a056e81f171bcc55a6ff8345e692c0f86e5b48e01b996cadc001622fb5e363b421880102030405060708c0c0",
        "lastblockhash" : "0x3ba33b10d995e95c97c0f125a3ea5f66b03d98673ec524568cd9095e371fcafb",
        "network" : "Constantinople",
        "postState" : {
            "0x2adc25665018aa1fe0e6bc666dac8fc2697ff9ba" : {
                "balance" : "0x29a2241af62d1493",
                "code" : "",
                "nonce" : "0x00",
                "storage" : {
                }
            },
            "0x6295ee1b4f6dd65047762f924ecd367c17eabf8f" : {
                "balance" : "0x09",
                "code" : "",
                "nonce" : "0x02",
                "storage" : {
                }
            },
            "0xa94f5374fce5edbc8e2a8697c15331677e6ebf0b" : {
                "balance" : "0xe8d4a3fb63",
                "code" : "0x6130ff6000526002601ef3",
                "nonce" : "0x01",
                "storage" : {
                }
            }
        },
        "pre" : {
            "0xa94f5374fce5edbc8e2a8697c15331677e6ebf0b" : {
                "balance" : "0xe8d4a51000",
                "code" : "0x6130ff6000526002601ef3",
                "nonce" : "0x00",
                "storage" : {
                }
            }
        },
        "sealEngine" : "NoProof"
    }
}