{
    "CREATE2_Bounds2_d0g0v0_ConstantinopleFix" : {
        "_info" : {
            "comment" : "",
            "filling-rpc-server" : "Geth-1.9.3-unstable-d5bd3838-20190830",
            "filling-tool-version" : "retesteth-0.0.1+commit.222e3073.Linux.g++",
            "lllcversion" : "Version: 0.5.0-develop.2019.8.22+commit.9709dfe0.Linux.g++",
            "source" : "src/GeneralStateTestsFiller/stCreate2/CREATE2_Bounds2Filler.json",
            "sourceHash" : "2e10e871efba730ea95121d9d841b4da3dae6345524c087a0197443924d7d026"
        },
        "genesisBlockHeader" : {
            "bloom" : "0x00000000000000000000000000000000000000000000000000000000000000000000000000000000000000000000000000000000000000000000000000000000000000000000000000000000000000000000000000000000000000000000000000000000000000000000000000000000000000000000000000000000000000000000000000000000000000000000000000000000000000000000000000000000000000000000000000000000000000000000000000000000000000000000000000000000000000000000000000000000000000000000000000000000000000000000000000000000000000000000000000000000000000000000000000000000",
            "coinbase" : "0x2adc25665018aa1fe0e6bc666dac8fc2697ff9ba",
            "difficulty" : "0x20000",
            "extraData" : "0x00",
            "gasLimit" : "0x7fffffffffffffff",
            "gasUsed" : "0x0",
            "hash" : "0x0b6d1548b6f64d6d4a4734e467019db2155ae1e75d1ae1e8eae0562edc0df4bb",
            "mixHash" : "0x0000000000000000000000000000000000000000000000000000000000000000",
            "nonce" : "0x0000000000000000",
            "number" : "0x0",
            "parentHash" : "0x0000000000000000000000000000000000000000000000000000000000000000",
            "receiptTrie" : "0x56e81f171bcc55a6ff8345e692c0f86e5b48e01b996cadc001622fb5e363b421",
            "stateRoot" : "0xdc7a4f73c8ea492c9aa16c26e6ec427f871244b3e0ad95eff7185cc15fa9bfff",
            "timestamp" : "0x0",
            "transactionsTrie" : "0x56e81f171bcc55a6ff8345e692c0f86e5b48e01b996cadc001622fb5e363b421",
            "uncleHash" : "0x1dcc4de8dec75d7aab85b567b6ccd41ad312451b948a7413f0a142fd40d49347"
        },
        "pre" : {
            "0x1000000000000000000000000000000000000000" : {
                "balance" : "0x64",
                "code" : "0x7f6001600155601080600c6000396000f3006000355415600957005b602035600060005260356020536055602153600063ffffffff60006001f5",
                "nonce" : "0x00",
                "storage" : {
                }
            },
            "0xa94f5374fce5edbc8e2a8697c15331677e6ebf0b" : {
                "balance" : "0x0fffffffffffffffffffffffffffffffffffffffffffffffff",
                "code" : "0x",
                "nonce" : "0x00",
                "storage" : {
                }
            }
        },
        "postState" : {
            "0xa94f5374fce5edbc8e2a8697c15331677e6ebf0b" : {
                "code" : "0x",
                "nonce" : "0x01",
                "balance" : "0x0ffffffffffffffffffffffffffffffffffffffffffffdb60f",
                "storage" : {
                }
            },
            "0x2adc25665018aa1fe0e6bc666dac8fc2697ff9ba" : {
                "code" : "0x",
                "nonce" : "0x00",
                "balance" : "0x1bc16d674eca49f0",
                "storage" : {
                }
            },
            "0x1000000000000000000000000000000000000000" : {
                "code" : "0x7f6001600155601080600c6000396000f3006000355415600957005b602035600060005260356020536055602153600063ffffffff60006001f5",
                "nonce" : "0x00",
                "balance" : "0x64",
                "storage" : {
                }
            }
        },
        "network" : "ConstantinopleFix",
        "sealEngine" : "NoProof",
        "lastblockhash" : "0x00374cb47d941cdb80c37de60eb98fdbe7c214b07e96ce383c499fdf5cd889ac",
        "genesisRLP" : "0xf901fdf901f8a00000000000000000000000000000000000000000000000000000000000000000a01dcc4de8dec75d7aab85b567b6ccd41ad312451b948a7413f0a142fd40d49347942adc25665018aa1fe0e6bc666dac8fc2697ff9baa0dc7a4f73c8ea492c9aa16c26e6ec427f871244b3e0ad95eff7185cc15fa9bfffa056e81f171bcc55a6ff8345e692c0f86e5b48e01b996cadc001622fb5e363b421a056e81f171bcc55a6ff8345e692c0f86e5b48e01b996cadc001622fb5e363b421b90100000000000000000000000000000000000000000000000000000000000000000000000000000000000000000000000000000000000000000000000000000000000000000000000000000000000000000000000000000000000000000000000000000000000000000000000000000000000000000000000000000000000000000000000000000000000000000000000000000000000000000000000000000000000000000000000000000000000000000000000000000000000000000000000000000000000000000000000000000000000000000000000000000000000000000000000000000000000000000000000000000000000000000000000000000000008302000080887fffffffffffffff808000a00000000000000000000000000000000000000000000000000000000000000000880000000000000000c0c0",
        "blocks" : [
            {
                "rlp" : "0xf90265f901fda00b6d1548b6f64d6d4a4734e467019db2155ae1e75d1ae1e8eae0562edc0df4bba01dcc4de8dec75d7aab85b567b6ccd41ad312451b948a7413f0a142fd40d49347942adc25665018aa1fe0e6bc666dac8fc2697ff9baa0f183ac697d5781a4baef7ace1e5825532430f175b858b025ece6abe815fcdd70a01b8e596a9db7ec729190ec7a6678c3dd8e7c9a3a1017c8460bb56eb845d06688a0a0e10907f175886de9bd8cd4ac2c21d1db4109a3a9fecf60f54015ee102803fdb90100000000000000000000000000000000000000000000000000000000000000000000000000000000000000000000000000000000000000000000000000000000000000000000000000000000000000000000000000000000000000000000000000000000000000000000000000000000000000000000000000000000000000000000000000000000000000000000000000000000000000000000000000000000000000000000000000000000000000000000000000000000000000000000000000000000000000000000000000000000000000000000000000000000000000000000000000000000000000000000000000000000000000000000000000000000008302000001887fffffffffffffff830249f08203e800a00000000000000000000000000000000000000000000000000000000000000000880000000000000000f862f8608001830249f094100000000000000000000000000000000000000080801ca05e9a8d9240c75515986647d9630197613462976cda4a542b6725e0b7eb4fedf3a01d242de15a6e46330a9a0d411f18ca2c9d27201fb6feefffe70b9313634e7be2c0",
                "blockHeader" : {
                    "bloom" : "0x00000000000000000000000000000000000000000000000000000000000000000000000000000000000000000000000000000000000000000000000000000000000000000000000000000000000000000000000000000000000000000000000000000000000000000000000000000000000000000000000000000000000000000000000000000000000000000000000000000000000000000000000000000000000000000000000000000000000000000000000000000000000000000000000000000000000000000000000000000000000000000000000000000000000000000000000000000000000000000000000000000000000000000000000000000000",
                    "coinbase" : "0x2adc25665018aa1fe0e6bc666dac8fc2697ff9ba",
                    "difficulty" : "0x20000",
                    "extraData" : "0x00",
                    "gasLimit" : "0x7fffffffffffffff",
                    "gasUsed" : "0x249f0",
                    "hash" : "0x00374cb47d941cdb80c37de60eb98fdbe7c214b07e96ce383c499fdf5cd889ac",
                    "mixHash" : "0x0000000000000000000000000000000000000000000000000000000000000000",
                    "nonce" : "0x0000000000000000",
                    "number" : "0x1",
                    "parentHash" : "0x0b6d1548b6f64d6d4a4734e467019db2155ae1e75d1ae1e8eae0562edc0df4bb",
                    "receiptTrie" : "0xa0e10907f175886de9bd8cd4ac2c21d1db4109a3a9fecf60f54015ee102803fd",
                    "stateRoot" : "0xf183ac697d5781a4baef7ace1e5825532430f175b858b025ece6abe815fcdd70",
                    "timestamp" : "0x3e8",
                    "transactionsTrie" : "0x1b8e596a9db7ec729190ec7a6678c3dd8e7c9a3a1017c8460bb56eb845d06688",
                    "uncleHash" : "0x1dcc4de8dec75d7aab85b567b6ccd41ad312451b948a7413f0a142fd40d49347"
                },
                "transactions" : [
                    {
                        "data" : "0x",
                        "gasLimit" : "0x0249f0",
                        "gasPrice" : "0x01",
                        "nonce" : "0x00",
                        "secretKey" : "0x45a915e4d060149eb4365960e6a7a45f334393093061116b197e3240065ff2d8",
                        "to" : "0x1000000000000000000000000000000000000000",
                        "value" : "0x00"
                    }
                ]
            }
        ]
    },
    "CREATE2_Bounds2_d0g1v0_ConstantinopleFix" : {
        "_info" : {
            "comment" : "",
            "filling-rpc-server" : "Geth-1.9.3-unstable-d5bd3838-20190830",
            "filling-tool-version" : "retesteth-0.0.1+commit.222e3073.Linux.g++",
            "lllcversion" : "Version: 0.5.0-develop.2019.8.22+commit.9709dfe0.Linux.g++",
            "source" : "src/GeneralStateTestsFiller/stCreate2/CREATE2_Bounds2Filler.json",
            "sourceHash" : "2e10e871efba730ea95121d9d841b4da3dae6345524c087a0197443924d7d026"
        },
        "genesisBlockHeader" : {
            "bloom" : "0x00000000000000000000000000000000000000000000000000000000000000000000000000000000000000000000000000000000000000000000000000000000000000000000000000000000000000000000000000000000000000000000000000000000000000000000000000000000000000000000000000000000000000000000000000000000000000000000000000000000000000000000000000000000000000000000000000000000000000000000000000000000000000000000000000000000000000000000000000000000000000000000000000000000000000000000000000000000000000000000000000000000000000000000000000000000",
            "coinbase" : "0x2adc25665018aa1fe0e6bc666dac8fc2697ff9ba",
            "difficulty" : "0x20000",
            "extraData" : "0x00",
            "gasLimit" : "0x7fffffffffffffff",
            "gasUsed" : "0x0",
            "hash" : "0x0b6d1548b6f64d6d4a4734e467019db2155ae1e75d1ae1e8eae0562edc0df4bb",
            "mixHash" : "0x0000000000000000000000000000000000000000000000000000000000000000",
            "nonce" : "0x0000000000000000",
            "number" : "0x0",
            "parentHash" : "0x0000000000000000000000000000000000000000000000000000000000000000",
            "receiptTrie" : "0x56e81f171bcc55a6ff8345e692c0f86e5b48e01b996cadc001622fb5e363b421",
            "stateRoot" : "0xdc7a4f73c8ea492c9aa16c26e6ec427f871244b3e0ad95eff7185cc15fa9bfff",
            "timestamp" : "0x0",
            "transactionsTrie" : "0x56e81f171bcc55a6ff8345e692c0f86e5b48e01b996cadc001622fb5e363b421",
            "uncleHash" : "0x1dcc4de8dec75d7aab85b567b6ccd41ad312451b948a7413f0a142fd40d49347"
        },
        "pre" : {
            "0x1000000000000000000000000000000000000000" : {
                "balance" : "0x64",
                "code" : "0x7f6001600155601080600c6000396000f3006000355415600957005b602035600060005260356020536055602153600063ffffffff60006001f5",
                "nonce" : "0x00",
                "storage" : {
                }
            },
            "0xa94f5374fce5edbc8e2a8697c15331677e6ebf0b" : {
                "balance" : "0x0fffffffffffffffffffffffffffffffffffffffffffffffff",
                "code" : "0x",
                "nonce" : "0x00",
                "storage" : {
                }
            }
        },
        "postState" : {
            "0xa94f5374fce5edbc8e2a8697c15331677e6ebf0b" : {
                "code" : "0x",
                "nonce" : "0x01",
                "balance" : "0x0ffffffffffffffffffffffffffffffffffffffffff1194d7f",
                "storage" : {
                }
            },
            "0x2adc25665018aa1fe0e6bc666dac8fc2697ff9ba" : {
                "code" : "0x",
                "nonce" : "0x00",
                "balance" : "0x1bc16d675daeb280",
                "storage" : {
                }
            },
            "0x1000000000000000000000000000000000000000" : {
                "code" : "0x7f6001600155601080600c6000396000f3006000355415600957005b602035600060005260356020536055602153600063ffffffff60006001f5",
                "nonce" : "0x00",
                "balance" : "0x64",
                "storage" : {
                }
            }
        },
        "network" : "ConstantinopleFix",
        "sealEngine" : "NoProof",
        "lastblockhash" : "0xf0556e3bb3f88bdfb9c4068aeb761758ef996abbd30a776f21ccd82af7f4097c",
        "genesisRLP" : "0xf901fdf901f8a00000000000000000000000000000000000000000000000000000000000000000a01dcc4de8dec75d7aab85b567b6ccd41ad312451b948a7413f0a142fd40d49347942adc25665018aa1fe0e6bc666dac8fc2697ff9baa0dc7a4f73c8ea492c9aa16c26e6ec427f871244b3e0ad95eff7185cc15fa9bfffa056e81f171bcc55a6ff8345e692c0f86e5b48e01b996cadc001622fb5e363b421a056e81f171bcc55a6ff8345e692c0f86e5b48e01b996cadc001622fb5e363b421b90100000000000000000000000000000000000000000000000000000000000000000000000000000000000000000000000000000000000000000000000000000000000000000000000000000000000000000000000000000000000000000000000000000000000000000000000000000000000000000000000000000000000000000000000000000000000000000000000000000000000000000000000000000000000000000000000000000000000000000000000000000000000000000000000000000000000000000000000000000000000000000000000000000000000000000000000000000000000000000000000000000000000000000000000000000000008302000080887fffffffffffffff808000a00000000000000000000000000000000000000000000000000000000000000000880000000000000000c0c0",
        "blocks" : [
            {
                "rlp" : "0xf90267f901fea00b6d1548b6f64d6d4a4734e467019db2155ae1e75d1ae1e8eae0562edc0df4bba01dcc4de8dec75d7aab85b567b6ccd41ad312451b948a7413f0a142fd40d49347942adc25665018aa1fe0e6bc666dac8fc2697ff9baa04c6b43fc9cc96c16f42e0ba7c952b687e9bcf8804286ddee7dc910a7229f159ba0529ed70f6dbc2da86364672bc584f428cb919c6fc347d00576d28d3a041de33ba027408083641cf20cfde86cd87cd57bf10c741d7553352ca96118e31ab8ceb9ceb90100000000000000000000000000000000000000000000000000000000000000000000000000000000000000000000000000000000000000000000000000000000000000000000000000000000000000000000000000000000000000000000000000000000000000000000000000000000000000000000000000000000000000000000000000000000000000000000000000000000000000000000000000000000000000000000000000000000000000000000000000000000000000000000000000000000000000000000000000000000000000000000000000000000000000000000000000000000000000000000000000000000000000000000000000000000008302000001887fffffffffffffff840ee6b2808203e800a00000000000000000000000000000000000000000000000000000000000000000880000000000000000f863f8618001840ee6b28094100000000000000000000000000000000000000080801ba0f56cade5a7835c5558487651eed88f2a60c7e479a532b75c3962b8bdc44573a8a01d4b7dd05400b9dce7a9efa5d6f80121194bc981dd9bfc13c6548916f79ec18ac0",
                "blockHeader" : {
                    "bloom" : "0x00000000000000000000000000000000000000000000000000000000000000000000000000000000000000000000000000000000000000000000000000000000000000000000000000000000000000000000000000000000000000000000000000000000000000000000000000000000000000000000000000000000000000000000000000000000000000000000000000000000000000000000000000000000000000000000000000000000000000000000000000000000000000000000000000000000000000000000000000000000000000000000000000000000000000000000000000000000000000000000000000000000000000000000000000000000",
                    "coinbase" : "0x2adc25665018aa1fe0e6bc666dac8fc2697ff9ba",
                    "difficulty" : "0x20000",
                    "extraData" : "0x00",
                    "gasLimit" : "0x7fffffffffffffff",
                    "gasUsed" : "0xee6b280",
                    "hash" : "0xf0556e3bb3f88bdfb9c4068aeb761758ef996abbd30a776f21ccd82af7f4097c",
                    "mixHash" : "0x0000000000000000000000000000000000000000000000000000000000000000",
                    "nonce" : "0x0000000000000000",
                    "number" : "0x1",
                    "parentHash" : "0x0b6d1548b6f64d6d4a4734e467019db2155ae1e75d1ae1e8eae0562edc0df4bb",
                    "receiptTrie" : "0x27408083641cf20cfde86cd87cd57bf10c741d7553352ca96118e31ab8ceb9ce",
                    "stateRoot" : "0x4c6b43fc9cc96c16f42e0ba7c952b687e9bcf8804286ddee7dc910a7229f159b",
                    "timestamp" : "0x3e8",
                    "transactionsTrie" : "0x529ed70f6dbc2da86364672bc584f428cb919c6fc347d00576d28d3a041de33b",
                    "uncleHash" : "0x1dcc4de8dec75d7aab85b567b6ccd41ad312451b948a7413f0a142fd40d49347"
                },
                "transactions" : [
                    {
                        "data" : "0x",
                        "gasLimit" : "0x0ee6b280",
                        "gasPrice" : "0x01",
                        "nonce" : "0x00",
                        "secretKey" : "0x45a915e4d060149eb4365960e6a7a45f334393093061116b197e3240065ff2d8",
                        "to" : "0x1000000000000000000000000000000000000000",
                        "value" : "0x00"
                    }
                ]
            }
        ]
    }
}