{
    "create2collisionSelfdestructedRevert_d2g0v0_Byzantium" : {
        "_info" : {
            "comment" : "collision with address that has been selfdestructed in the same transaction but then REVERT is called",
            "filledwith" : "testeth 1.5.0.dev2+commit.88f7415e.dirty",
            "lllcversion" : "Version: 0.4.25-develop.2018.8.9+commit.63d071d6.mod.Linux.g++",
            "source" : "src/BlockchainTestsFiller/GeneralStateTests/stCreate2/create2collisionSelfdestructedRevert_d2g0v0Filler.json",
            "sourceHash" : "6d32a179d5b5763dc2358546e7fc2822623f3d2215ca39c865a74b8b9f938c4c"
        },
        "blocks" : [
            {
                "blockHeader" : {
                    "bloom" : "0x00000000000000000000000000000000000000000000000000000000000000000000000000000000000000000000000000000000000000000000000000000000000000000000000000000000000000000000000000000000000000000000000000000000000000000000000000000000000000000000000000000000000000000000000000000000000000000000000000000000000000000000000000000000000000000000000000000000000000000000000000000000000000000000000000000000000000000000000000000000000000000000000000000000000000000000000000000000000000000000000000000000000000000000000000000000",
                    "coinbase" : "0x2adc25665018aa1fe0e6bc666dac8fc2697ff9ba",
                    "difficulty" : "0x020000",
                    "extraData" : "",
                    "gasLimit" : "0x0f4240",
                    "gasUsed" : "0x061a80",
                    "hash" : "0xbbf77358bbd81787d7132ce6d5c48ae740fb966eb4e0573ad60fe90bbc36a206",
                    "mixHash" : "0x0000000000000000000000000000000000000000000000000000000000000000",
                    "nonce" : "0x0000000000000000",
                    "number" : "0x01",
                    "parentHash" : "0x9e403072017b50f3e1bf4af66a01ace806703dc9e22f9edb5041a2f0a197771e",
                    "receiptTrie" : "0xba9991e573821b0c234e361e68d2fe4b0fc940f8380d61fc18ee6ceb963b7094",
                    "stateRoot" : "0x43ecc522a3fc260cb9bf3ad88eebdd082a81c5859441419825ac49c594131b56",
                    "timestamp" : "0x03e8",
                    "transactionsTrie" : "0x3a24300e873f6d4db115964a71ff0dc85cdaa2695a2fff95931a0c44be348023",
                    "uncleHash" : "0x1dcc4de8dec75d7aab85b567b6ccd41ad312451b948a7413f0a142fd40d49347"
                },
                "rlp" : "0xf90299f901f8a09e403072017b50f3e1bf4af66a01ace806703dc9e22f9edb5041a2f0a197771ea01dcc4de8dec75d7aab85b567b6ccd41ad312451b948a7413f0a142fd40d49347942adc25665018aa1fe0e6bc666dac8fc2697ff9baa043ecc522a3fc260cb9bf3ad88eebdd082a81c5859441419825ac49c594131b56a03a24300e873f6d4db115964a71ff0dc85cdaa2695a2fff95931a0c44be348023a0ba9991e573821b0c234e361e68d2fe4b0fc940f8380d61fc18ee6ceb963b7094b90100000000000000000000000000000000000000000000000000000000000000000000000000000000000000000000000000000000000000000000000000000000000000000000000000000000000000000000000000000000000000000000000000000000000000000000000000000000000000000000000000000000000000000000000000000000000000000000000000000000000000000000000000000000000000000000000000000000000000000000000000000000000000000000000000000000000000000000000000000000000000000000000000000000000000000000000000000000000000000000000000000000000000000000000000000000008302000001830f424083061a808203e880a00000000000000000000000000000000000000000000000000000000000000000880000000000000000f89bf899800183061a808001b84c6000600060006000600073e2b35478fdd26477cc576dd906e6277761246a3c61c350f1506d6460016001556000526005601bf36000526000600e60126000f550621122336000526003601dfd1ca024c1a4a1f47eb30f0d674c8ecd87cecd868652abfaa828e9bd9201cdd01f62c6a0667d69fde64034e7a20ac0da13137c43e5baf6ce477f1527e954ff374fbf26cdc0",
                "transactions" : [
                    {
                        "data" : "0x6000600060006000600073e2b35478fdd26477cc576dd906e6277761246a3c61c350f1506d6460016001556000526005601bf36000526000600e60126000f550621122336000526003601dfd",
                        "gasLimit" : "0x061a80",
                        "gasPrice" : "0x01",
                        "nonce" : "0x00",
                        "r" : "0x24c1a4a1f47eb30f0d674c8ecd87cecd868652abfaa828e9bd9201cdd01f62c6",
                        "s" : "0x667d69fde64034e7a20ac0da13137c43e5baf6ce477f1527e954ff374fbf26cd",
                        "to" : "",
                        "v" : "0x1c",
                        "value" : "0x01"
                    }
                ],
                "uncleHeaders" : [
                ]
            }
        ],
        "genesisBlockHeader" : {
            "bloom" : "0x00000000000000000000000000000000000000000000000000000000000000000000000000000000000000000000000000000000000000000000000000000000000000000000000000000000000000000000000000000000000000000000000000000000000000000000000000000000000000000000000000000000000000000000000000000000000000000000000000000000000000000000000000000000000000000000000000000000000000000000000000000000000000000000000000000000000000000000000000000000000000000000000000000000000000000000000000000000000000000000000000000000000000000000000000000000",
            "coinbase" : "0x2adc25665018aa1fe0e6bc666dac8fc2697ff9ba",
            "difficulty" : "0x020000",
            "extraData" : "0x42",
            "gasLimit" : "0x0f4240",
            "gasUsed" : "0x00",
            "hash" : "0x9e403072017b50f3e1bf4af66a01ace806703dc9e22f9edb5041a2f0a197771e",
            "mixHash" : "0x56e81f171bcc55a6ff8345e692c0f86e5b48e01b996cadc001622fb5e363b421",
            "nonce" : "0x0102030405060708",
            "number" : "0x00",
            "parentHash" : "0x0000000000000000000000000000000000000000000000000000000000000000",
            "receiptTrie" : "0x56e81f171bcc55a6ff8345e692c0f86e5b48e01b996cadc001622fb5e363b421",
            "stateRoot" : "0x0edf4ab8df4ed5fbf6225445f8a37a4176d466fe14a0b485c6ddcd1a7968494e",
            "timestamp" : "0x03b6",
            "transactionsTrie" : "0x56e81f171bcc55a6ff8345e692c0f86e5b48e01b996cadc001622fb5e363b421",
            "uncleHash" : "0x1dcc4de8dec75d7aab85b567b6ccd41ad312451b948a7413f0a142fd40d49347"
        },
        "genesisRLP" : "0xf901faf901f5a00000000000000000000000000000000000000000000000000000000000000000a01dcc4de8dec75d7aab85b567b6ccd41ad312451b948a7413f0a142fd40d49347942adc25665018aa1fe0e6bc666dac8fc2697ff9baa00edf4ab8df4ed5fbf6225445f8a37a4176d466fe14a0b485c6ddcd1a7968494ea056e81f171bcc55a6ff8345e692c0f86e5b48e01b996cadc001622fb5e363b421a056e81f171bcc55a6ff8345e692c0f86e5b48e01b996cadc001622fb5e363b421b90100000000000000000000000000000000000000000000000000000000000000000000000000000000000000000000000000000000000000000000000000000000000000000000000000000000000000000000000000000000000000000000000000000000000000000000000000000000000000000000000000000000000000000000000000000000000000000000000000000000000000000000000000000000000000000000000000000000000000000000000000000000000000000000000000000000000000000000000000000000000000000000000000000000000000000000000000000000000000000000000000000000000000000000000000000000008302000080830f4240808203b642a056e81f171bcc55a6ff8345e692c0f86e5b48e01b996cadc001622fb5e363b421880102030405060708c0c0",
        "lastblockhash" : "0xbbf77358bbd81787d7132ce6d5c48ae740fb966eb4e0573ad60fe90bbc36a206",
        "network" : "Byzantium",
        "postState" : {
            "0x2adc25665018aa1fe0e6bc666dac8fc2697ff9ba" : {
                "balance" : "0x29a2241af6321a80",
                "code" : "",
                "nonce" : "0x00",
                "storage" : {
                }
            },
            "0xa94f5374fce5edbc8e2a8697c15331677e6ebf0b" : {
                "balance" : "0x0de0b6b3a75de580",
                "code" : "",
                "nonce" : "0x01",
                "storage" : {
                }
            },
            "0xaf3ecba2fe09a4f6c19f16a9d119e44e08c2da01" : {
                "balance" : "0x01",
                "code" : "0x6010ff",
                "nonce" : "0x00",
                "storage" : {
                }
            },
            "0xe2b35478fdd26477cc576dd906e6277761246a3c" : {
                "balance" : "0x01",
                "code" : "0x6010ff",
                "nonce" : "0x00",
                "storage" : {
                }
            },
            "0xec2c6832d00680ece8ff9254f81fdab0a5a2ac50" : {
                "balance" : "0x01",
                "code" : "0x6010ff",
                "nonce" : "0x00",
                "storage" : {
                }
            }
        },
        "pre" : {
            "0xa94f5374fce5edbc8e2a8697c15331677e6ebf0b" : {
                "balance" : "0x0de0b6b3a7640000",
                "code" : "",
                "nonce" : "0x00",
                "storage" : {
                }
            },
            "0xaf3ecba2fe09a4f6c19f16a9d119e44e08c2da01" : {
                "balance" : "0x01",
                "code" : "0x6010ff",
                "nonce" : "0x00",
                "storage" : {
                }
            },
            "0xe2b35478fdd26477cc576dd906e6277761246a3c" : {
                "balance" : "0x01",
                "code" : "0x6010ff",
                "nonce" : "0x00",
                "storage" : {
                }
            },
            "0xec2c6832d00680ece8ff9254f81fdab0a5a2ac50" : {
                "balance" : "0x01",
                "code" : "0x6010ff",
                "nonce" : "0x00",
                "storage" : {
                }
            }
        },
        "sealEngine" : "NoProof"
    },
    "create2collisionSelfdestructedRevert_d2g0v0_Constantinople" : {
        "_info" : {
            "comment" : "collision with address that has been selfdestructed in the same transaction but then REVERT is called",
            "filledwith" : "testeth 1.5.0.dev2+commit.88f7415e.dirty",
            "lllcversion" : "Version: 0.4.25-develop.2018.8.9+commit.63d071d6.mod.Linux.g++",
            "source" : "src/BlockchainTestsFiller/GeneralStateTests/stCreate2/create2collisionSelfdestructedRevert_d2g0v0Filler.json",
            "sourceHash" : "6d32a179d5b5763dc2358546e7fc2822623f3d2215ca39c865a74b8b9f938c4c"
        },
        "blocks" : [
            {
                "blockHeader" : {
                    "bloom" : "0x00000000000000000000000000000000000000000000000000000000000000000000000000000000000000000000000000000000000000000000000000000000000000000000000000000000000000000000000000000000000000000000000000000000000000000000000000000000000000000000000000000000000000000000000000000000000000000000000000000000000000000000000000000000000000000000000000000000000000000000000000000000000000000000000000000000000000000000000000000000000000000000000000000000000000000000000000000000000000000000000000000000000000000000000000000000",
                    "coinbase" : "0x2adc25665018aa1fe0e6bc666dac8fc2697ff9ba",
                    "difficulty" : "0x020000",
                    "extraData" : "",
                    "gasLimit" : "0x0f4240",
                    "gasUsed" : "0x06097f",
                    "hash" : "0x6a89adf3f7c5edae79454c74daa0ce609c0704d4a9636aa8b0d6d5a3abc115b9",
                    "mixHash" : "0x0000000000000000000000000000000000000000000000000000000000000000",
                    "nonce" : "0x0000000000000000",
                    "number" : "0x01",
                    "parentHash" : "0x9e403072017b50f3e1bf4af66a01ace806703dc9e22f9edb5041a2f0a197771e",
                    "receiptTrie" : "0xbab692e75bedb513574bba889199d2f422da1ca1f0645b4495b7dcd30ef450dd",
                    "stateRoot" : "0xf07203611d9da6c88d1da6cf2f8afdc19cef4a07f1fa3818bd923be1ded969a6",
                    "timestamp" : "0x03e8",
                    "transactionsTrie" : "0x3a24300e873f6d4db115964a71ff0dc85cdaa2695a2fff95931a0c44be348023",
                    "uncleHash" : "0x1dcc4de8dec75d7aab85b567b6ccd41ad312451b948a7413f0a142fd40d49347"
                },
                "rlp" : "0xf90299f901f8a09e403072017b50f3e1bf4af66a01ace806703dc9e22f9edb5041a2f0a197771ea01dcc4de8dec75d7aab85b567b6ccd41ad312451b948a7413f0a142fd40d49347942adc25665018aa1fe0e6bc666dac8fc2697ff9baa0f07203611d9da6c88d1da6cf2f8afdc19cef4a07f1fa3818bd923be1ded969a6a03a24300e873f6d4db115964a71ff0dc85cdaa2695a2fff95931a0c44be348023a0bab692e75bedb513574bba889199d2f422da1ca1f0645b4495b7dcd30ef450ddb90100000000000000000000000000000000000000000000000000000000000000000000000000000000000000000000000000000000000000000000000000000000000000000000000000000000000000000000000000000000000000000000000000000000000000000000000000000000000000000000000000000000000000000000000000000000000000000000000000000000000000000000000000000000000000000000000000000000000000000000000000000000000000000000000000000000000000000000000000000000000000000000000000000000000000000000000000000000000000000000000000000000000000000000000000000000008302000001830f42408306097f8203e880a00000000000000000000000000000000000000000000000000000000000000000880000000000000000f89bf899800183061a808001b84c6000600060006000600073e2b35478fdd26477cc576dd906e6277761246a3c61c350f1506d6460016001556000526005601bf36000526000600e60126000f550621122336000526003601dfd1ca024c1a4a1f47eb30f0d674c8ecd87cecd868652abfaa828e9bd9201cdd01f62c6a0667d69fde64034e7a20ac0da13137c43e5baf6ce477f1527e954ff374fbf26cdc0",
                "transactions" : [
                    {
                        "data" : "0x6000600060006000600073e2b35478fdd26477cc576dd906e6277761246a3c61c350f1506d6460016001556000526005601bf36000526000600e60126000f550621122336000526003601dfd",
                        "gasLimit" : "0x061a80",
                        "gasPrice" : "0x01",
                        "nonce" : "0x00",
                        "r" : "0x24c1a4a1f47eb30f0d674c8ecd87cecd868652abfaa828e9bd9201cdd01f62c6",
                        "s" : "0x667d69fde64034e7a20ac0da13137c43e5baf6ce477f1527e954ff374fbf26cd",
                        "to" : "",
                        "v" : "0x1c",
                        "value" : "0x01"
                    }
                ],
                "uncleHeaders" : [
                ]
            }
        ],
        "genesisBlockHeader" : {
            "bloom" : "0x00000000000000000000000000000000000000000000000000000000000000000000000000000000000000000000000000000000000000000000000000000000000000000000000000000000000000000000000000000000000000000000000000000000000000000000000000000000000000000000000000000000000000000000000000000000000000000000000000000000000000000000000000000000000000000000000000000000000000000000000000000000000000000000000000000000000000000000000000000000000000000000000000000000000000000000000000000000000000000000000000000000000000000000000000000000",
            "coinbase" : "0x2adc25665018aa1fe0e6bc666dac8fc2697ff9ba",
            "difficulty" : "0x020000",
            "extraData" : "0x42",
            "gasLimit" : "0x0f4240",
            "gasUsed" : "0x00",
            "hash" : "0x9e403072017b50f3e1bf4af66a01ace806703dc9e22f9edb5041a2f0a197771e",
            "mixHash" : "0x56e81f171bcc55a6ff8345e692c0f86e5b48e01b996cadc001622fb5e363b421",
            "nonce" : "0x0102030405060708",
            "number" : "0x00",
            "parentHash" : "0x0000000000000000000000000000000000000000000000000000000000000000",
            "receiptTrie" : "0x56e81f171bcc55a6ff8345e692c0f86e5b48e01b996cadc001622fb5e363b421",
            "stateRoot" : "0x0edf4ab8df4ed5fbf6225445f8a37a4176d466fe14a0b485c6ddcd1a7968494e",
            "timestamp" : "0x03b6",
            "transactionsTrie" : "0x56e81f171bcc55a6ff8345e692c0f86e5b48e01b996cadc001622fb5e363b421",
            "uncleHash" : "0x1dcc4de8dec75d7aab85b567b6ccd41ad312451b948a7413f0a142fd40d49347"
        },
        "genesisRLP" : "0xf901faf901f5a00000000000000000000000000000000000000000000000000000000000000000a01dcc4de8dec75d7aab85b567b6ccd41ad312451b948a7413f0a142fd40d49347942adc25665018aa1fe0e6bc666dac8fc2697ff9baa00edf4ab8df4ed5fbf6225445f8a37a4176d466fe14a0b485c6ddcd1a7968494ea056e81f171bcc55a6ff8345e692c0f86e5b48e01b996cadc001622fb5e363b421a056e81f171bcc55a6ff8345e692c0f86e5b48e01b996cadc001622fb5e363b421b90100000000000000000000000000000000000000000000000000000000000000000000000000000000000000000000000000000000000000000000000000000000000000000000000000000000000000000000000000000000000000000000000000000000000000000000000000000000000000000000000000000000000000000000000000000000000000000000000000000000000000000000000000000000000000000000000000000000000000000000000000000000000000000000000000000000000000000000000000000000000000000000000000000000000000000000000000000000000000000000000000000000000000000000000000000000008302000080830f4240808203b642a056e81f171bcc55a6ff8345e692c0f86e5b48e01b996cadc001622fb5e363b421880102030405060708c0c0",
        "lastblockhash" : "0x6a89adf3f7c5edae79454c74daa0ce609c0704d4a9636aa8b0d6d5a3abc115b9",
        "network" : "Constantinople",
        "postState" : {
            "0x2adc25665018aa1fe0e6bc666dac8fc2697ff9ba" : {
                "balance" : "0x29a2241af632097f",
                "code" : "",
                "nonce" : "0x00",
                "storage" : {
                }
            },
            "0xa94f5374fce5edbc8e2a8697c15331677e6ebf0b" : {
                "balance" : "0x0de0b6b3a75df681",
                "code" : "",
                "nonce" : "0x01",
                "storage" : {
                }
            },
            "0xaf3ecba2fe09a4f6c19f16a9d119e44e08c2da01" : {
                "balance" : "0x01",
                "code" : "0x6010ff",
                "nonce" : "0x00",
                "storage" : {
                }
            },
            "0xe2b35478fdd26477cc576dd906e6277761246a3c" : {
                "balance" : "0x01",
                "code" : "0x6010ff",
                "nonce" : "0x00",
                "storage" : {
                }
            },
            "0xec2c6832d00680ece8ff9254f81fdab0a5a2ac50" : {
                "balance" : "0x01",
                "code" : "0x6010ff",
                "nonce" : "0x00",
                "storage" : {
                }
            }
        },
        "pre" : {
            "0xa94f5374fce5edbc8e2a8697c15331677e6ebf0b" : {
                "balance" : "0x0de0b6b3a7640000",
                "code" : "",
                "nonce" : "0x00",
                "storage" : {
                }
            },
            "0xaf3ecba2fe09a4f6c19f16a9d119e44e08c2da01" : {
                "balance" : "0x01",
                "code" : "0x6010ff",
                "nonce" : "0x00",
                "storage" : {
                }
            },
            "0xe2b35478fdd26477cc576dd906e6277761246a3c" : {
                "balance" : "0x01",
                "code" : "0x6010ff",
                "nonce" : "0x00",
                "storage" : {
                }
            },
            "0xec2c6832d00680ece8ff9254f81fdab0a5a2ac50" : {
                "balance" : "0x01",
                "code" : "0x6010ff",
                "nonce" : "0x00",
                "storage" : {
                }
            }
        },
        "sealEngine" : "NoProof"
    }
}