{
    "randomStatetest649_d0g0v0_Berlin" : {
        "_info" : {
            "comment" : "Consensus issue test produced by fuzz testing team FuzzyVM-1240834021-1071009090.json.min",
            "filling-rpc-server" : "evm version 1.10.2-unstable-22082f9e-20210309",
            "filling-tool-version" : "retesteth-0.1.0-accesslist+commit.dcd27dfc.Linux.g++",
            "lllcversion" : "Version: 0.5.14-develop.2021.3.9+commit.14c9d5de.Linux.g++",
            "source" : "src/GeneralStateTestsFiller/stRandom2/randomStatetest649Filler.json",
            "sourceHash" : "cd1c8283552b9bad62077f52fda61b34dc50ec622d75b30b6bf324a0993f938d"
        },
        "genesisBlockHeader" : {
            "bloom" : "0x00000000000000000000000000000000000000000000000000000000000000000000000000000000000000000000000000000000000000000000000000000000000000000000000000000000000000000000000000000000000000000000000000000000000000000000000000000000000000000000000000000000000000000000000000000000000000000000000000000000000000000000000000000000000000000000000000000000000000000000000000000000000000000000000000000000000000000000000000000000000000000000000000000000000000000000000000000000000000000000000000000000000000000000000000000000",
            "coinbase" : "0xb94f5374fce5edbc8e2a8697c15331677e6ebf0b",
            "difficulty" : "0x020000",
            "extraData" : "0x00",
            "gasLimit" : "0x26e1f476fe1e22",
            "gasUsed" : "0x00",
            "hash" : "0xbe2aecb38c392925f91434d910cd8dfb0db91f4855bfc5bdb3b3ee504ae32b2f",
            "mixHash" : "0x0000000000000000000000000000000000000000000000000000000000000000",
            "nonce" : "0x0000000000000000",
            "number" : "0x00",
            "parentHash" : "0x0000000000000000000000000000000000000000000000000000000000000000",
            "receiptTrie" : "0x56e81f171bcc55a6ff8345e692c0f86e5b48e01b996cadc001622fb5e363b421",
            "stateRoot" : "0xcc6fc53f76a48746166f9ddb98ba529e4a48bbed83ea4fb61ebf693084b4b143",
            "timestamp" : "0x00",
            "transactionsTrie" : "0x56e81f171bcc55a6ff8345e692c0f86e5b48e01b996cadc001622fb5e363b421",
            "uncleHash" : "0x1dcc4de8dec75d7aab85b567b6ccd41ad312451b948a7413f0a142fd40d49347"
        },
        "pre" : {
            "0x000000000000000000000000000000ca1100f022" : {
                "balance" : "0x00",
                "code" : "0x7f6c756dbf65726963616e207f9439303733373936353331363631303037345a056000527f7265737582673075742074650041030a000000efbf7125e86c756dbf657269636020527f616e207f9439303733373936353331363631303037345a0572657375826730757f742074650041030a000000efbf7125e86c756dbf65726963616e207f943930377f33373936353331363631303037345a057265737582673075742074650041030a7cefbf7125e86c756dbf65726963616e207f9439303733373936353331367f3631303037345a057265737582673075742074650041030a000000efbf7125e8606c60e053607560e153606d60e25360bf60e353606560e453607260e553606960e653606360e75360e860006000f06000600060006000845a6950507f7f9439303733373936353331363631303037345a05726573758267307574207460005260206000f35b410061943961207f61616e616963616572600563012b9bbff167000000000000015f565b670000000000004ca65661363551613636556136555161363755613675516136385561369551613639556136b55161363a556136d55161363b556136f55161363c556137155161363d556137355161363e556137555161363f55613775516136405561379551613641556137b551613642556137d551613643556137f55161364455613815516136455561383551613646556138555161364755613875516136485561389551613649556138b55161364a556138d55161364b556138f55161364c556139155161364d556139355161364e556139555161364f55613975516136505561399551613651556139b551613652556139d551613653556139f55161365455613a155161365555613a355161365655613a555161365755613a755161365855613a955161365955613ab55161365a55613ad55161365b55613af55161365c00",
                "nonce" : "0x00",
                "storage" : {
                }
            },
            "0xa94f5374fce5edbc8e2a8697c15331677e6ebf0b" : {
                "balance" : "0x3fffffffffffffff",
                "code" : "0x",
                "nonce" : "0x00",
                "storage" : {
                }
            }
        },
        "postState" : {
            "0x000000000000000000000000000000ca1100f022" : {
                "code" : "0x7f6c756dbf65726963616e207f9439303733373936353331363631303037345a056000527f7265737582673075742074650041030a000000efbf7125e86c756dbf657269636020527f616e207f9439303733373936353331363631303037345a0572657375826730757f742074650041030a000000efbf7125e86c756dbf65726963616e207f943930377f33373936353331363631303037345a057265737582673075742074650041030a7cefbf7125e86c756dbf65726963616e207f9439303733373936353331367f3631303037345a057265737582673075742074650041030a000000efbf7125e8606c60e053607560e153606d60e25360bf60e353606560e453607260e553606960e653606360e75360e860006000f06000600060006000845a6950507f7f9439303733373936353331363631303037345a05726573758267307574207460005260206000f35b410061943961207f61616e616963616572600563012b9bbff167000000000000015f565b670000000000004ca65661363551613636556136555161363755613675516136385561369551613639556136b55161363a556136d55161363b556136f55161363c556137155161363d556137355161363e556137555161363f55613775516136405561379551613641556137b551613642556137d551613643556137f55161364455613815516136455561383551613646556138555161364755613875516136485561389551613649556138b55161364a556138d55161364b556138f55161364c556139155161364d556139355161364e556139555161364f55613975516136505561399551613651556139b551613652556139d551613653556139f55161365455613a155161365555613a355161365655613a555161365755613a755161365855613a955161365955613ab55161365a55613ad55161365b55613af55161365c00",
                "nonce" : "0x00",
                "balance" : "0x00",
                "storage" : {
                }
            },
            "0xa94f5374fce5edbc8e2a8697c15331677e6ebf0b" : {
                "code" : "0x",
                "nonce" : "0x01",
                "balance" : "0x3ffffffffffdbe8b",
                "storage" : {
                }
            },
            "0xb94f5374fce5edbc8e2a8697c15331677e6ebf0b" : {
                "code" : "0x",
                "nonce" : "0x00",
                "balance" : "0x1bc16d674eca4174",
                "storage" : {
                }
            }
        },
        "network" : "Berlin",
        "sealEngine" : "NoProof",
        "lastblockhash" : "0x73ace0b6859629c9f49257f71a49c3a4920e483fb2cd34d1e195b724d358c4ff",
        "genesisRLP" : "0xf901fcf901f7a00000000000000000000000000000000000000000000000000000000000000000a01dcc4de8dec75d7aab85b567b6ccd41ad312451b948a7413f0a142fd40d4934794b94f5374fce5edbc8e2a8697c15331677e6ebf0ba0cc6fc53f76a48746166f9ddb98ba529e4a48bbed83ea4fb61ebf693084b4b143a056e81f171bcc55a6ff8345e692c0f86e5b48e01b996cadc001622fb5e363b421a056e81f171bcc55a6ff8345e692c0f86e5b48e01b996cadc001622fb5e363b421b901000000000000000000000000000000000000000000000000000000000000000000000000000000000000000000000000000000000000000000000000000000000000000000000000000000000000000000000000000000000000000000000000000000000000000000000000000000000000000000000000000000000000000000000000000000000000000000000000000000000000000000000000000000000000000000000000000000000000000000000000000000000000000000000000000000000000000000000000000000000000000000000000000000000000000000000000000000000000000000000000000000000000000000000000000000000083020000808726e1f476fe1e22808000a00000000000000000000000000000000000000000000000000000000000000000880000000000000000c0c0",
        "blocks" : [
            {
                "rlp" : "0xf902cdf901fca0be2aecb38c392925f91434d910cd8dfb0db91f4855bfc5bdb3b3ee504ae32b2fa01dcc4de8dec75d7aab85b567b6ccd41ad312451b948a7413f0a142fd40d4934794b94f5374fce5edbc8e2a8697c15331677e6ebf0ba064783e5f9bcbdd7b9d894700133b5b167ead2866917f1b15938c0608a9782b29a0b2761a67927767b7d25448f5193e53dcdbbc80b3f0a457ee17237e546aa45d1ea0dbcb7cc3cece29c0736378afad03ccef4d9f3d143e85e136a67ca5c4c76ee46db901000000000000000000000000000000000000000000000000000000000000000000000000000000000000000000000000000000000000000000000000000000000000000000000000000000000000000000000000000000000000000000000000000000000000000000000000000000000000000000000000000000000000000000000000000000000000000000000000000000000000000000000000000000000000000000000000000000000000000000000000000000000000000000000000000000000000000000000000000000000000000000000000000000000000000000000000000000000000000000000000000000000000000000000000000000000083020000018726e1f476fe1e22830241748203e800a00000000000000000000000000000000000000000000000000000000000000000880000000000000000f8cbf8c980018302417494000000000000000000000000000000ca1100f02284efbf7125b864756dbf65726963616e207f9439303733373936353331363631303037345a057265737582673075742074650041030a000000efbf7125e86c756dbf65726963616e207f9439303733373936353331363631303037345a05726573758267307574207465001ba013dc7831ab5bad5ee3b5da70240f658f2b077129d1ad8c7e1740ccfaaff48871a010c1acce0bf635aac8fe9e35f1952e8f8e94c7732b91fbf75d47a847ee0f35a1c0",
                "blockHeader" : {
                    "bloom" : "0x00000000000000000000000000000000000000000000000000000000000000000000000000000000000000000000000000000000000000000000000000000000000000000000000000000000000000000000000000000000000000000000000000000000000000000000000000000000000000000000000000000000000000000000000000000000000000000000000000000000000000000000000000000000000000000000000000000000000000000000000000000000000000000000000000000000000000000000000000000000000000000000000000000000000000000000000000000000000000000000000000000000000000000000000000000000",
                    "coinbase" : "0xb94f5374fce5edbc8e2a8697c15331677e6ebf0b",
                    "difficulty" : "0x020000",
                    "extraData" : "0x00",
                    "gasLimit" : "0x26e1f476fe1e22",
                    "gasUsed" : "0x024174",
                    "hash" : "0x73ace0b6859629c9f49257f71a49c3a4920e483fb2cd34d1e195b724d358c4ff",
                    "mixHash" : "0x0000000000000000000000000000000000000000000000000000000000000000",
                    "nonce" : "0x0000000000000000",
                    "number" : "0x01",
                    "parentHash" : "0xbe2aecb38c392925f91434d910cd8dfb0db91f4855bfc5bdb3b3ee504ae32b2f",
                    "receiptTrie" : "0xdbcb7cc3cece29c0736378afad03ccef4d9f3d143e85e136a67ca5c4c76ee46d",
                    "stateRoot" : "0x64783e5f9bcbdd7b9d894700133b5b167ead2866917f1b15938c0608a9782b29",
                    "timestamp" : "0x03e8",
                    "transactionsTrie" : "0xb2761a67927767b7d25448f5193e53dcdbbc80b3f0a457ee17237e546aa45d1e",
                    "uncleHash" : "0x1dcc4de8dec75d7aab85b567b6ccd41ad312451b948a7413f0a142fd40d49347"
                },
                "transactions" : [
                    {
                        "data" : "0x756dbf65726963616e207f9439303733373936353331363631303037345a057265737582673075742074650041030a000000efbf7125e86c756dbf65726963616e207f9439303733373936353331363631303037345a0572657375826730757420746500",
                        "gasLimit" : "0x024174",
                        "gasPrice" : "0x01",
                        "nonce" : "0x00",
                        "to" : "0x000000000000000000000000000000ca1100f022",
                        "value" : "0xefbf7125",
                        "v" : "0x1b",
                        "r" : "0x13dc7831ab5bad5ee3b5da70240f658f2b077129d1ad8c7e1740ccfaaff48871",
                        "s" : "0x10c1acce0bf635aac8fe9e35f1952e8f8e94c7732b91fbf75d47a847ee0f35a1"
                    }
                ],
                "uncleHeaders" : [
                ]
            }
        ]
    },
    "randomStatetest649_d0g0v0_Istanbul" : {
        "_info" : {
            "comment" : "Consensus issue test produced by fuzz testing team FuzzyVM-1240834021-1071009090.json.min",
            "filling-rpc-server" : "evm version 1.10.2-unstable-22082f9e-20210309",
            "filling-tool-version" : "retesteth-0.1.0-accesslist+commit.dcd27dfc.Linux.g++",
            "lllcversion" : "Version: 0.5.14-develop.2021.3.9+commit.14c9d5de.Linux.g++",
            "source" : "src/GeneralStateTestsFiller/stRandom2/randomStatetest649Filler.json",
            "sourceHash" : "cd1c8283552b9bad62077f52fda61b34dc50ec622d75b30b6bf324a0993f938d"
        },
        "genesisBlockHeader" : {
            "bloom" : "0x00000000000000000000000000000000000000000000000000000000000000000000000000000000000000000000000000000000000000000000000000000000000000000000000000000000000000000000000000000000000000000000000000000000000000000000000000000000000000000000000000000000000000000000000000000000000000000000000000000000000000000000000000000000000000000000000000000000000000000000000000000000000000000000000000000000000000000000000000000000000000000000000000000000000000000000000000000000000000000000000000000000000000000000000000000000",
            "coinbase" : "0xb94f5374fce5edbc8e2a8697c15331677e6ebf0b",
            "difficulty" : "0x020000",
            "extraData" : "0x00",
            "gasLimit" : "0x26e1f476fe1e22",
            "gasUsed" : "0x00",
            "hash" : "0xbe2aecb38c392925f91434d910cd8dfb0db91f4855bfc5bdb3b3ee504ae32b2f",
            "mixHash" : "0x0000000000000000000000000000000000000000000000000000000000000000",
            "nonce" : "0x0000000000000000",
            "number" : "0x00",
            "parentHash" : "0x0000000000000000000000000000000000000000000000000000000000000000",
            "receiptTrie" : "0x56e81f171bcc55a6ff8345e692c0f86e5b48e01b996cadc001622fb5e363b421",
            "stateRoot" : "0xcc6fc53f76a48746166f9ddb98ba529e4a48bbed83ea4fb61ebf693084b4b143",
            "timestamp" : "0x00",
            "transactionsTrie" : "0x56e81f171bcc55a6ff8345e692c0f86e5b48e01b996cadc001622fb5e363b421",
            "uncleHash" : "0x1dcc4de8dec75d7aab85b567b6ccd41ad312451b948a7413f0a142fd40d49347"
        },
        "pre" : {
            "0x000000000000000000000000000000ca1100f022" : {
                "balance" : "0x00",
                "code" : "0x7f6c756dbf65726963616e207f9439303733373936353331363631303037345a056000527f7265737582673075742074650041030a000000efbf7125e86c756dbf657269636020527f616e207f9439303733373936353331363631303037345a0572657375826730757f742074650041030a000000efbf7125e86c756dbf65726963616e207f943930377f33373936353331363631303037345a057265737582673075742074650041030a7cefbf7125e86c756dbf65726963616e207f9439303733373936353331367f3631303037345a057265737582673075742074650041030a000000efbf7125e8606c60e053607560e153606d60e25360bf60e353606560e453607260e553606960e653606360e75360e860006000f06000600060006000845a6950507f7f9439303733373936353331363631303037345a05726573758267307574207460005260206000f35b410061943961207f61616e616963616572600563012b9bbff167000000000000015f565b670000000000004ca65661363551613636556136555161363755613675516136385561369551613639556136b55161363a556136d55161363b556136f55161363c556137155161363d556137355161363e556137555161363f55613775516136405561379551613641556137b551613642556137d551613643556137f55161364455613815516136455561383551613646556138555161364755613875516136485561389551613649556138b55161364a556138d55161364b556138f55161364c556139155161364d556139355161364e556139555161364f55613975516136505561399551613651556139b551613652556139d551613653556139f55161365455613a155161365555613a355161365655613a555161365755613a755161365855613a955161365955613ab55161365a55613ad55161365b55613af55161365c00",
                "nonce" : "0x00",
                "storage" : {
                }
            },
            "0xa94f5374fce5edbc8e2a8697c15331677e6ebf0b" : {
                "balance" : "0x3fffffffffffffff",
                "code" : "0x",
                "nonce" : "0x00",
                "storage" : {
                }
            }
        },
        "postState" : {
            "0x000000000000000000000000000000ca1100f022" : {
                "code" : "0x7f6c756dbf65726963616e207f9439303733373936353331363631303037345a056000527f7265737582673075742074650041030a000000efbf7125e86c756dbf657269636020527f616e207f9439303733373936353331363631303037345a0572657375826730757f742074650041030a000000efbf7125e86c756dbf65726963616e207f943930377f33373936353331363631303037345a057265737582673075742074650041030a7cefbf7125e86c756dbf65726963616e207f9439303733373936353331367f3631303037345a057265737582673075742074650041030a000000efbf7125e8606c60e053607560e153606d60e25360bf60e353606560e453607260e553606960e653606360e75360e860006000f06000600060006000845a6950507f7f9439303733373936353331363631303037345a05726573758267307574207460005260206000f35b410061943961207f61616e616963616572600563012b9bbff167000000000000015f565b670000000000004ca65661363551613636556136555161363755613675516136385561369551613639556136b55161363a556136d55161363b556136f55161363c556137155161363d556137355161363e556137555161363f55613775516136405561379551613641556137b551613642556137d551613643556137f55161364455613815516136455561383551613646556138555161364755613875516136485561389551613649556138b55161364a556138d55161364b556138f55161364c556139155161364d556139355161364e556139555161364f55613975516136505561399551613651556139b551613652556139d551613653556139f55161365455613a155161365555613a355161365655613a555161365755613a755161365855613a955161365955613ab55161365a55613ad55161365b55613af55161365c00",
                "nonce" : "0x01",
                "balance" : "0xefbf7125",
                "storage" : {
                }
            },
            "0xa94f5374fce5edbc8e2a8697c15331677e6ebf0b" : {
                "code" : "0x",
                "nonce" : "0x01",
                "balance" : "0x3fffffff103e4d66",
                "storage" : {
                }
            },
            "0xb94f5374fce5edbc8e2a8697c15331677e6ebf0b" : {
                "code" : "0x",
                "nonce" : "0x00",
                "balance" : "0x1bc16d674eca4174",
                "storage" : {
                }
            }
        },
        "network" : "Istanbul",
        "sealEngine" : "NoProof",
        "lastblockhash" : "0x401b8e01995bb6acfcdd1719e5a4454baadc04a81155793a3edadc61a6f5236c",
        "genesisRLP" : "0xf901fcf901f7a00000000000000000000000000000000000000000000000000000000000000000a01dcc4de8dec75d7aab85b567b6ccd41ad312451b948a7413f0a142fd40d4934794b94f5374fce5edbc8e2a8697c15331677e6ebf0ba0cc6fc53f76a48746166f9ddb98ba529e4a48bbed83ea4fb61ebf693084b4b143a056e81f171bcc55a6ff8345e692c0f86e5b48e01b996cadc001622fb5e363b421a056e81f171bcc55a6ff8345e692c0f86e5b48e01b996cadc001622fb5e363b421b901000000000000000000000000000000000000000000000000000000000000000000000000000000000000000000000000000000000000000000000000000000000000000000000000000000000000000000000000000000000000000000000000000000000000000000000000000000000000000000000000000000000000000000000000000000000000000000000000000000000000000000000000000000000000000000000000000000000000000000000000000000000000000000000000000000000000000000000000000000000000000000000000000000000000000000000000000000000000000000000000000000000000000000000000000000000083020000808726e1f476fe1e22808000a00000000000000000000000000000000000000000000000000000000000000000880000000000000000c0c0",
        "blocks" : [
            {
                "rlp" : "0xf902cdf901fca0be2aecb38c392925f91434d910cd8dfb0db91f4855bfc5bdb3b3ee504ae32b2fa01dcc4de8dec75d7aab85b567b6ccd41ad312451b948a7413f0a142fd40d4934794b94f5374fce5edbc8e2a8697c15331677e6ebf0ba0093eab281006f1cb4f33a7fc63770a6ba20c1156c33e3ded16d23e6ca414a35fa0b2761a67927767b7d25448f5193e53dcdbbc80b3f0a457ee17237e546aa45d1ea051c869b39300ea54bc01cd1e263dd83816412f9ac1cae94c04c026656ac5a9b1b901000000000000000000000000000000000000000000000000000000000000000000000000000000000000000000000000000000000000000000000000000000000000000000000000000000000000000000000000000000000000000000000000000000000000000000000000000000000000000000000000000000000000000000000000000000000000000000000000000000000000000000000000000000000000000000000000000000000000000000000000000000000000000000000000000000000000000000000000000000000000000000000000000000000000000000000000000000000000000000000000000000000000000000000000000000000083020000018726e1f476fe1e22830241748203e800a00000000000000000000000000000000000000000000000000000000000000000880000000000000000f8cbf8c980018302417494000000000000000000000000000000ca1100f02284efbf7125b864756dbf65726963616e207f9439303733373936353331363631303037345a057265737582673075742074650041030a000000efbf7125e86c756dbf65726963616e207f9439303733373936353331363631303037345a05726573758267307574207465001ba013dc7831ab5bad5ee3b5da70240f658f2b077129d1ad8c7e1740ccfaaff48871a010c1acce0bf635aac8fe9e35f1952e8f8e94c7732b91fbf75d47a847ee0f35a1c0",
                "blockHeader" : {
                    "bloom" : "0x00000000000000000000000000000000000000000000000000000000000000000000000000000000000000000000000000000000000000000000000000000000000000000000000000000000000000000000000000000000000000000000000000000000000000000000000000000000000000000000000000000000000000000000000000000000000000000000000000000000000000000000000000000000000000000000000000000000000000000000000000000000000000000000000000000000000000000000000000000000000000000000000000000000000000000000000000000000000000000000000000000000000000000000000000000000",
                    "coinbase" : "0xb94f5374fce5edbc8e2a8697c15331677e6ebf0b",
                    "difficulty" : "0x020000",
                    "extraData" : "0x00",
                    "gasLimit" : "0x26e1f476fe1e22",
                    "gasUsed" : "0x024174",
                    "hash" : "0x401b8e01995bb6acfcdd1719e5a4454baadc04a81155793a3edadc61a6f5236c",
                    "mixHash" : "0x0000000000000000000000000000000000000000000000000000000000000000",
                    "nonce" : "0x0000000000000000",
                    "number" : "0x01",
                    "parentHash" : "0xbe2aecb38c392925f91434d910cd8dfb0db91f4855bfc5bdb3b3ee504ae32b2f",
                    "receiptTrie" : "0x51c869b39300ea54bc01cd1e263dd83816412f9ac1cae94c04c026656ac5a9b1",
                    "stateRoot" : "0x093eab281006f1cb4f33a7fc63770a6ba20c1156c33e3ded16d23e6ca414a35f",
                    "timestamp" : "0x03e8",
                    "transactionsTrie" : "0xb2761a67927767b7d25448f5193e53dcdbbc80b3f0a457ee17237e546aa45d1e",
                    "uncleHash" : "0x1dcc4de8dec75d7aab85b567b6ccd41ad312451b948a7413f0a142fd40d49347"
                },
                "transactions" : [
                    {
                        "data" : "0x756dbf65726963616e207f9439303733373936353331363631303037345a057265737582673075742074650041030a000000efbf7125e86c756dbf65726963616e207f9439303733373936353331363631303037345a0572657375826730757420746500",
                        "gasLimit" : "0x024174",
                        "gasPrice" : "0x01",
                        "nonce" : "0x00",
                        "to" : "0x000000000000000000000000000000ca1100f022",
                        "value" : "0xefbf7125",
                        "v" : "0x1b",
                        "r" : "0x13dc7831ab5bad5ee3b5da70240f658f2b077129d1ad8c7e1740ccfaaff48871",
                        "s" : "0x10c1acce0bf635aac8fe9e35f1952e8f8e94c7732b91fbf75d47a847ee0f35a1"
                    }
                ],
                "uncleHeaders" : [
                ]
            }
        ]
    }
}