{
    "randomStatetest615_d0g0v0_Byzantium" : {
        "_info" : {
            "comment" : "",
            "filledwith" : "cpp-1.3.0+commit.8fb57c56.Linux.g++",
            "lllcversion" : "Version: 0.4.20-develop.2018.1.8+commit.2548228b.Linux.g++",
            "source" : "src/BlockchainTestsFiller/GeneralStateTests/stRandom2/randomStatetest615_d0g0v0Filler.json",
            "sourceHash" : "74dfa7aad21246f45eedecb8e2ea1abdd7ddbe5e374334a5c323ac7339131da6"
        },
        "blocks" : [
            {
                "blockHeader" : {
                    "bloom" : "0x00000000000000000000000000000000000000000000000000000000000000000000000000000000000000000000000000000000000000000000000000000000000000000000000000000000000000000000000000000000000000000000000000000000000000000000000000000000000000000000000000000000000000000000000000000000000000000000000000000000000000000000000000000000000000000000000000000000000000000000000000000000000000000000000000000000000000000000000000000000000000000000000000000000000000000000000000000000000000000000000000000000000000000000000000000000",
                    "coinbase" : "0x945304eb96065b2a98b57a48a06ae28d285a71b5",
                    "difficulty" : "0x020000",
                    "extraData" : "",
                    "gasLimit" : "0x7fffffffffffffff",
                    "gasUsed" : "0xdee3",
                    "hash" : "0x4ef658183587cbf0c6e90e210f25068be9ea1aac321c867661f4adda734612e8",
                    "mixHash" : "0x3b02f1076d63111a8f1bc1ee0ce19c61d6a42ac2998c26a48973e4176af80c02",
                    "nonce" : "0x702308c3578f0d3f",
                    "number" : "0x01",
                    "parentHash" : "0x0d358dd6f2aa79ad1dc9aed65c4ceaacfda1f9dcf11877d6100c3525d93b6289",
                    "receiptTrie" : "0x1ca70f03b8f850b05941f6d83f1fb204e2c06bba55ae62ece0b3a0fdb96e1431",
                    "stateRoot" : "0x8f0d678692ea6f0c89ec6046b1d1e6a36169b9f858dab3e0a57251710b596213",
                    "timestamp" : "0x03e8",
                    "transactionsTrie" : "0x587c0eb2de9077ea85f1fa7a9c3ee69e5fa800fb52756981c3dec1f8dbfcf86d",
                    "uncleHash" : "0x1dcc4de8dec75d7aab85b567b6ccd41ad312451b948a7413f0a142fd40d49347"
                },
                "rlp" : "0xf90360f901fca00d358dd6f2aa79ad1dc9aed65c4ceaacfda1f9dcf11877d6100c3525d93b6289a01dcc4de8dec75d7aab85b567b6ccd41ad312451b948a7413f0a142fd40d4934794945304eb96065b2a98b57a48a06ae28d285a71b5a08f0d678692ea6f0c89ec6046b1d1e6a36169b9f858dab3e0a57251710b596213a0587c0eb2de9077ea85f1fa7a9c3ee69e5fa800fb52756981c3dec1f8dbfcf86da01ca70f03b8f850b05941f6d83f1fb204e2c06bba55ae62ece0b3a0fdb96e1431b90100000000000000000000000000000000000000000000000000000000000000000000000000000000000000000000000000000000000000000000000000000000000000000000000000000000000000000000000000000000000000000000000000000000000000000000000000000000000000000000000000000000000000000000000000000000000000000000000000000000000000000000000000000000000000000000000000000000000000000000000000000000000000000000000000000000000000000000000000000000000000000000000000000000000000000000000000000000000000000000000000000000000000000000000000000000008302000001887fffffffffffffff82dee38203e880a03b02f1076d63111a8f1bc1ee0ce19c61d6a42ac2998c26a48973e4176af80c0288702308c3578f0d3ff9015df9015a8001841440029494095e7baea6a6c7c4c2dfeb977efac326af552d87847bcc296ab8f47f000000000000000000000000ffffffffffffffffffffffffffffffffffffffff7fffffffffffffffffffffffffffffffffffffffffffffffffffffffffffffffff7ffffffffffffffffffffffffffffffffffffffffffffffffffffffffffffffffe7f00000000000000000000000000000000000000000000000000000000000000007ffffffffffffffffffffffffffffffffffffffffffffffffffffffffffffffffe837f000000000000000000000000ffffffffffffffffffffffffffffffffffffffff7f000000000000000000000001000000000000000000000000000000000000000009556c6f390a3054d7368a9a1ca09c803cb876c26526148485627ae3f21d4f8056eb7f5af1f2485a998ff586a70fa0250332d55ce856c641cde40040eb843bc5b786c8e1ac6df84aae92577c323412c0",
                "transactions" : [
                    {
                        "data" : "0x7f000000000000000000000000ffffffffffffffffffffffffffffffffffffffff7fffffffffffffffffffffffffffffffffffffffffffffffffffffffffffffffff7ffffffffffffffffffffffffffffffffffffffffffffffffffffffffffffffffe7f00000000000000000000000000000000000000000000000000000000000000007ffffffffffffffffffffffffffffffffffffffffffffffffffffffffffffffffe837f000000000000000000000000ffffffffffffffffffffffffffffffffffffffff7f000000000000000000000001000000000000000000000000000000000000000009556c6f390a3054d7368a9a",
                        "gasLimit" : "0x14400294",
                        "gasPrice" : "0x01",
                        "nonce" : "0x00",
                        "r" : "0x9c803cb876c26526148485627ae3f21d4f8056eb7f5af1f2485a998ff586a70f",
                        "s" : "0x250332d55ce856c641cde40040eb843bc5b786c8e1ac6df84aae92577c323412",
                        "to" : "0x095e7baea6a6c7c4c2dfeb977efac326af552d87",
                        "v" : "0x1c",
                        "value" : "0x7bcc296a"
                    }
                ],
                "uncleHeaders" : [
                ]
            }
        ],
        "genesisBlockHeader" : {
            "bloom" : "0x00000000000000000000000000000000000000000000000000000000000000000000000000000000000000000000000000000000000000000000000000000000000000000000000000000000000000000000000000000000000000000000000000000000000000000000000000000000000000000000000000000000000000000000000000000000000000000000000000000000000000000000000000000000000000000000000000000000000000000000000000000000000000000000000000000000000000000000000000000000000000000000000000000000000000000000000000000000000000000000000000000000000000000000000000000000",
            "coinbase" : "0x945304eb96065b2a98b57a48a06ae28d285a71b5",
            "difficulty" : "0x020000",
            "extraData" : "0x42",
            "gasLimit" : "0x7fffffffffffffff",
            "gasUsed" : "0x00",
            "hash" : "0x0d358dd6f2aa79ad1dc9aed65c4ceaacfda1f9dcf11877d6100c3525d93b6289",
            "mixHash" : "0x56e81f171bcc55a6ff8345e692c0f86e5b48e01b996cadc001622fb5e363b421",
            "nonce" : "0x0102030405060708",
            "number" : "0x00",
            "parentHash" : "0x0000000000000000000000000000000000000000000000000000000000000000",
            "receiptTrie" : "0x56e81f171bcc55a6ff8345e692c0f86e5b48e01b996cadc001622fb5e363b421",
            "stateRoot" : "0x75c25f0b27114886182d3371b26d98a990e07ef06fe7f3b9528fa82826665498",
            "timestamp" : "0x03b6",
            "transactionsTrie" : "0x56e81f171bcc55a6ff8345e692c0f86e5b48e01b996cadc001622fb5e363b421",
            "uncleHash" : "0x1dcc4de8dec75d7aab85b567b6ccd41ad312451b948a7413f0a142fd40d49347"
        },
        "genesisRLP" : "0xf901fff901faa00000000000000000000000000000000000000000000000000000000000000000a01dcc4de8dec75d7aab85b567b6ccd41ad312451b948a7413f0a142fd40d4934794945304eb96065b2a98b57a48a06ae28d285a71b5a075c25f0b27114886182d3371b26d98a990e07ef06fe7f3b9528fa82826665498a056e81f171bcc55a6ff8345e692c0f86e5b48e01b996cadc001622fb5e363b421a056e81f171bcc55a6ff8345e692c0f86e5b48e01b996cadc001622fb5e363b421b90100000000000000000000000000000000000000000000000000000000000000000000000000000000000000000000000000000000000000000000000000000000000000000000000000000000000000000000000000000000000000000000000000000000000000000000000000000000000000000000000000000000000000000000000000000000000000000000000000000000000000000000000000000000000000000000000000000000000000000000000000000000000000000000000000000000000000000000000000000000000000000000000000000000000000000000000000000000000000000000000000000000000000000000000000000000008302000080887fffffffffffffff808203b642a056e81f171bcc55a6ff8345e692c0f86e5b48e01b996cadc001622fb5e363b421880102030405060708c0c0",
        "lastblockhash" : "0x4ef658183587cbf0c6e90e210f25068be9ea1aac321c867661f4adda734612e8",
        "network" : "Byzantium",
        "postState" : {
            "0x095e7baea6a6c7c4c2dfeb977efac326af552d87" : {
                "balance" : "0x7bcc296a",
                "code" : "0x7f000000000000000000000000ffffffffffffffffffffffffffffffffffffffff7fffffffffffffffffffffffffffffffffffffffffffffffffffffffffffffffff7ffffffffffffffffffffffffffffffffffffffffffffffffffffffffffffffffe7f00000000000000000000000000000000000000000000000000000000000000007ffffffffffffffffffffffffffffffffffffffffffffffffffffffffffffffffe837f000000000000000000000000ffffffffffffffffffffffffffffffffffffffff7f000000000000000000000001000000000000000000000000000000000000000009556c6f390a3054d7368a9a5560005155",
                "nonce" : "0x00",
                "storage" : {
                    "0xffffffffffffffffffffffff000000000000000000000000ffffffffffffffff" : "0xfffffffffffffffffffffffffffffffffffffffffffffffffffffffffffffffe"
                }
            },
            "0x945304eb96065b2a98b57a48a06ae28d285a71b5" : {
                "balance" : "0x29a2241af62cdf11",
                "code" : "0x6000355415600957005b60203560003555",
                "nonce" : "0x00",
                "storage" : {
                }
            },
            "0xa94f5374fce5edbc8e2a8697c15331677e6ebf0b" : {
                "balance" : "0x0de0b6b32b96f7b3",
                "code" : "",
                "nonce" : "0x01",
                "storage" : {
                }
            }
        },
        "pre" : {
            "0x095e7baea6a6c7c4c2dfeb977efac326af552d87" : {
                "balance" : "0x00",
                "code" : "0x7f000000000000000000000000ffffffffffffffffffffffffffffffffffffffff7fffffffffffffffffffffffffffffffffffffffffffffffffffffffffffffffff7ffffffffffffffffffffffffffffffffffffffffffffffffffffffffffffffffe7f00000000000000000000000000000000000000000000000000000000000000007ffffffffffffffffffffffffffffffffffffffffffffffffffffffffffffffffe837f000000000000000000000000ffffffffffffffffffffffffffffffffffffffff7f000000000000000000000001000000000000000000000000000000000000000009556c6f390a3054d7368a9a5560005155",
                "nonce" : "0x00",
                "storage" : {
                }
            },
            "0x945304eb96065b2a98b57a48a06ae28d285a71b5" : {
                "balance" : "0x2e",
                "code" : "0x6000355415600957005b60203560003555",
                "nonce" : "0x00",
                "storage" : {
                }
            },
            "0xa94f5374fce5edbc8e2a8697c15331677e6ebf0b" : {
                "balance" : "0x0de0b6b3a7640000",
                "code" : "",
                "nonce" : "0x00",
                "storage" : {
                }
            }
        }
    },
    "randomStatetest615_d0g0v0_Homestead" : {
        "_info" : {
            "comment" : "",
            "filledwith" : "cpp-1.3.0+commit.8fb57c56.Linux.g++",
            "lllcversion" : "Version: 0.4.20-develop.2018.1.8+commit.2548228b.Linux.g++",
            "source" : "src/BlockchainTestsFiller/GeneralStateTests/stRandom2/randomStatetest615_d0g0v0Filler.json",
            "sourceHash" : "74dfa7aad21246f45eedecb8e2ea1abdd7ddbe5e374334a5c323ac7339131da6"
        },
        "blocks" : [
            {
                "blockHeader" : {
                    "bloom" : "0x00000000000000000000000000000000000000000000000000000000000000000000000000000000000000000000000000000000000000000000000000000000000000000000000000000000000000000000000000000000000000000000000000000000000000000000000000000000000000000000000000000000000000000000000000000000000000000000000000000000000000000000000000000000000000000000000000000000000000000000000000000000000000000000000000000000000000000000000000000000000000000000000000000000000000000000000000000000000000000000000000000000000000000000000000000000",
                    "coinbase" : "0x945304eb96065b2a98b57a48a06ae28d285a71b5",
                    "difficulty" : "0x020000",
                    "extraData" : "",
                    "gasLimit" : "0x7fffffffffffffff",
                    "gasUsed" : "0xdee3",
                    "hash" : "0xb19ecbfbbf82c6093f9d630f7d98dc57cf4c470ec1a13204a8f9be35c62985dc",
                    "mixHash" : "0x78b4649198e28d72aa6873c0286a2dcfb069cbe10ce140b02865c2747f2dd163",
                    "nonce" : "0x0dee5698cb4ac657",
                    "number" : "0x01",
                    "parentHash" : "0x0d358dd6f2aa79ad1dc9aed65c4ceaacfda1f9dcf11877d6100c3525d93b6289",
                    "receiptTrie" : "0x09f7297aa39370b4142d870d55165537c2173a1759c374d2c4e315b0a4428544",
                    "stateRoot" : "0x03fc8397ed4d9bf242c4833b19ca4cce80d17f4d2fdce56f62607a9d70100992",
                    "timestamp" : "0x03e8",
                    "transactionsTrie" : "0x587c0eb2de9077ea85f1fa7a9c3ee69e5fa800fb52756981c3dec1f8dbfcf86d",
                    "uncleHash" : "0x1dcc4de8dec75d7aab85b567b6ccd41ad312451b948a7413f0a142fd40d49347"
                },
                "rlp" : "0xf90360f901fca00d358dd6f2aa79ad1dc9aed65c4ceaacfda1f9dcf11877d6100c3525d93b6289a01dcc4de8dec75d7aab85b567b6ccd41ad312451b948a7413f0a142fd40d4934794945304eb96065b2a98b57a48a06ae28d285a71b5a003fc8397ed4d9bf242c4833b19ca4cce80d17f4d2fdce56f62607a9d70100992a0587c0eb2de9077ea85f1fa7a9c3ee69e5fa800fb52756981c3dec1f8dbfcf86da009f7297aa39370b4142d870d55165537c2173a1759c374d2c4e315b0a4428544b90100000000000000000000000000000000000000000000000000000000000000000000000000000000000000000000000000000000000000000000000000000000000000000000000000000000000000000000000000000000000000000000000000000000000000000000000000000000000000000000000000000000000000000000000000000000000000000000000000000000000000000000000000000000000000000000000000000000000000000000000000000000000000000000000000000000000000000000000000000000000000000000000000000000000000000000000000000000000000000000000000000000000000000000000000000000008302000001887fffffffffffffff82dee38203e880a078b4649198e28d72aa6873c0286a2dcfb069cbe10ce140b02865c2747f2dd163880dee5698cb4ac657f9015df9015a8001841440029494095e7baea6a6c7c4c2dfeb977efac326af552d87847bcc296ab8f47f000000000000000000000000ffffffffffffffffffffffffffffffffffffffff7fffffffffffffffffffffffffffffffffffffffffffffffffffffffffffffffff7ffffffffffffffffffffffffffffffffffffffffffffffffffffffffffffffffe7f00000000000000000000000000000000000000000000000000000000000000007ffffffffffffffffffffffffffffffffffffffffffffffffffffffffffffffffe837f000000000000000000000000ffffffffffffffffffffffffffffffffffffffff7f000000000000000000000001000000000000000000000000000000000000000009556c6f390a3054d7368a9a1ca09c803cb876c26526148485627ae3f21d4f8056eb7f5af1f2485a998ff586a70fa0250332d55ce856c641cde40040eb843bc5b786c8e1ac6df84aae92577c323412c0",
                "transactions" : [
                    {
                        "data" : "0x7f000000000000000000000000ffffffffffffffffffffffffffffffffffffffff7fffffffffffffffffffffffffffffffffffffffffffffffffffffffffffffffff7ffffffffffffffffffffffffffffffffffffffffffffffffffffffffffffffffe7f00000000000000000000000000000000000000000000000000000000000000007ffffffffffffffffffffffffffffffffffffffffffffffffffffffffffffffffe837f000000000000000000000000ffffffffffffffffffffffffffffffffffffffff7f000000000000000000000001000000000000000000000000000000000000000009556c6f390a3054d7368a9a",
                        "gasLimit" : "0x14400294",
                        "gasPrice" : "0x01",
                        "nonce" : "0x00",
                        "r" : "0x9c803cb876c26526148485627ae3f21d4f8056eb7f5af1f2485a998ff586a70f",
                        "s" : "0x250332d55ce856c641cde40040eb843bc5b786c8e1ac6df84aae92577c323412",
                        "to" : "0x095e7baea6a6c7c4c2dfeb977efac326af552d87",
                        "v" : "0x1c",
                        "value" : "0x7bcc296a"
                    }
                ],
                "uncleHeaders" : [
                ]
            }
        ],
        "genesisBlockHeader" : {
            "bloom" : "0x00000000000000000000000000000000000000000000000000000000000000000000000000000000000000000000000000000000000000000000000000000000000000000000000000000000000000000000000000000000000000000000000000000000000000000000000000000000000000000000000000000000000000000000000000000000000000000000000000000000000000000000000000000000000000000000000000000000000000000000000000000000000000000000000000000000000000000000000000000000000000000000000000000000000000000000000000000000000000000000000000000000000000000000000000000000",
            "coinbase" : "0x945304eb96065b2a98b57a48a06ae28d285a71b5",
            "difficulty" : "0x020000",
            "extraData" : "0x42",
            "gasLimit" : "0x7fffffffffffffff",
            "gasUsed" : "0x00",
            "hash" : "0x0d358dd6f2aa79ad1dc9aed65c4ceaacfda1f9dcf11877d6100c3525d93b6289",
            "mixHash" : "0x56e81f171bcc55a6ff8345e692c0f86e5b48e01b996cadc001622fb5e363b421",
            "nonce" : "0x0102030405060708",
            "number" : "0x00",
            "parentHash" : "0x0000000000000000000000000000000000000000000000000000000000000000",
            "receiptTrie" : "0x56e81f171bcc55a6ff8345e692c0f86e5b48e01b996cadc001622fb5e363b421",
            "stateRoot" : "0x75c25f0b27114886182d3371b26d98a990e07ef06fe7f3b9528fa82826665498",
            "timestamp" : "0x03b6",
            "transactionsTrie" : "0x56e81f171bcc55a6ff8345e692c0f86e5b48e01b996cadc001622fb5e363b421",
            "uncleHash" : "0x1dcc4de8dec75d7aab85b567b6ccd41ad312451b948a7413f0a142fd40d49347"
        },
        "genesisRLP" : "0xf901fff901faa00000000000000000000000000000000000000000000000000000000000000000a01dcc4de8dec75d7aab85b567b6ccd41ad312451b948a7413f0a142fd40d4934794945304eb96065b2a98b57a48a06ae28d285a71b5a075c25f0b27114886182d3371b26d98a990e07ef06fe7f3b9528fa82826665498a056e81f171bcc55a6ff8345e692c0f86e5b48e01b996cadc001622fb5e363b421a056e81f171bcc55a6ff8345e692c0f86e5b48e01b996cadc001622fb5e363b421b90100000000000000000000000000000000000000000000000000000000000000000000000000000000000000000000000000000000000000000000000000000000000000000000000000000000000000000000000000000000000000000000000000000000000000000000000000000000000000000000000000000000000000000000000000000000000000000000000000000000000000000000000000000000000000000000000000000000000000000000000000000000000000000000000000000000000000000000000000000000000000000000000000000000000000000000000000000000000000000000000000000000000000000000000000000000008302000080887fffffffffffffff808203b642a056e81f171bcc55a6ff8345e692c0f86e5b48e01b996cadc001622fb5e363b421880102030405060708c0c0",
        "lastblockhash" : "0xb19ecbfbbf82c6093f9d630f7d98dc57cf4c470ec1a13204a8f9be35c62985dc",
        "network" : "Homestead",
        "postState" : {
            "0x095e7baea6a6c7c4c2dfeb977efac326af552d87" : {
                "balance" : "0x7bcc296a",
                "code" : "0x7f000000000000000000000000ffffffffffffffffffffffffffffffffffffffff7fffffffffffffffffffffffffffffffffffffffffffffffffffffffffffffffff7ffffffffffffffffffffffffffffffffffffffffffffffffffffffffffffffffe7f00000000000000000000000000000000000000000000000000000000000000007ffffffffffffffffffffffffffffffffffffffffffffffffffffffffffffffffe837f000000000000000000000000ffffffffffffffffffffffffffffffffffffffff7f000000000000000000000001000000000000000000000000000000000000000009556c6f390a3054d7368a9a5560005155",
                "nonce" : "0x00",
                "storage" : {
                    "0xffffffffffffffffffffffff000000000000000000000000ffffffffffffffff" : "0xfffffffffffffffffffffffffffffffffffffffffffffffffffffffffffffffe"
                }
            },
            "0x945304eb96065b2a98b57a48a06ae28d285a71b5" : {
                "balance" : "0x4563918244f4df11",
                "code" : "0x6000355415600957005b60203560003555",
                "nonce" : "0x00",
                "storage" : {
                }
            },
            "0xa94f5374fce5edbc8e2a8697c15331677e6ebf0b" : {
                "balance" : "0x0de0b6b32b96f7b3",
                "code" : "",
                "nonce" : "0x01",
                "storage" : {
                }
            }
        },
        "pre" : {
            "0x095e7baea6a6c7c4c2dfeb977efac326af552d87" : {
                "balance" : "0x00",
                "code" : "0x7f000000000000000000000000ffffffffffffffffffffffffffffffffffffffff7fffffffffffffffffffffffffffffffffffffffffffffffffffffffffffffffff7ffffffffffffffffffffffffffffffffffffffffffffffffffffffffffffffffe7f00000000000000000000000000000000000000000000000000000000000000007ffffffffffffffffffffffffffffffffffffffffffffffffffffffffffffffffe837f000000000000000000000000ffffffffffffffffffffffffffffffffffffffff7f000000000000000000000001000000000000000000000000000000000000000009556c6f390a3054d7368a9a5560005155",
                "nonce" : "0x00",
                "storage" : {
                }
            },
            "0x945304eb96065b2a98b57a48a06ae28d285a71b5" : {
                "balance" : "0x2e",
                "code" : "0x6000355415600957005b60203560003555",
                "nonce" : "0x00",
                "storage" : {
                }
            },
            "0xa94f5374fce5edbc8e2a8697c15331677e6ebf0b" : {
                "balance" : "0x0de0b6b3a7640000",
                "code" : "",
                "nonce" : "0x00",
                "storage" : {
                }
            }
        }
    }
}