{
    "randomStatetest643_d0g0v0_Cancun" : {
        "_info" : {
            "comment" : "Return ~1 MB out of bounds of the init code. should throw codesize error after EIP158 and create empty account before EIP158",
            "filling-rpc-server" : "evm version 1.14.4-unstable-3d8028a6-20240513",
            "filling-tool-version" : "retesteth-0.3.2-cancun+commit.cae6bc33.Linux.g++",
            "generatedTestHash" : "042699a871b0a33d2ddd1187d87a37cfa8feacb5258c81ff6e0771a15501e657",
            "lllcversion" : "Version: 0.5.14-develop.2023.7.11+commit.c58ab2c6.mod.Linux.g++",
            "solidity" : "Version: 0.8.21+commit.d9974bed.Linux.g++",
            "source" : "src/GeneralStateTestsFiller/stRandom2/randomStatetest643Filler.json",
            "sourceHash" : "a1a36669b21f31b97f5f5a668e011d312870237e1b3e415b8335ae37f80486e4"
        },
        "blocks" : [
            {
                "blockHeader" : {
                    "baseFeePerGas" : "0x0a",
                    "blobGasUsed" : "0x00",
                    "bloom" : "0x00000000000000000000000000000000000000000000000000000000000000000000000000000000000000000000000000000000000000000000000000000000000000000000000000000000000000000000000000000000000000000000000000000000000000000000000000000000000000000000000000000000000000000000000000000000000000000000000000000000000000000000000000000000000000000000000000000000000000000000000000000000000000000000000000000000000000000000000000000000000000000000000000000000000000000000000000000000000000000000000000000000000000000000000000000000",
                    "coinbase" : "0xa94f5374fce5edbc8e2a8697c15331677e6ebf0b",
                    "difficulty" : "0x00",
                    "excessBlobGas" : "0x00",
                    "extraData" : "0x00",
                    "gasLimit" : "0x7f0d477519ac97",
                    "gasUsed" : "0x9628e5",
                    "hash" : "0xc2ec25c2b0bfd2dfbd3851ead245575624cfc245428b7cab4dcea660aa202a95",
                    "mixHash" : "0x0000000000000000000000000000000000000000000000000000000000020000",
                    "nonce" : "0x0000000000000000",
                    "number" : "0x01",
                    "parentBeaconBlockRoot" : "0x0000000000000000000000000000000000000000000000000000000000000000",
                    "parentHash" : "0xac9b6f87200acfcfe5bb2a241def800db159905f3de0eafd516d9a574e91cf7b",
                    "receiptTrie" : "0xf5039932bcc49d2ab9209147be9becc080f205ae85e46f2014cf6eee682bca30",
                    "stateRoot" : "0x9ca6e568b07697016773a37f98efaf4fbdb834f2cc16f972666bd3436b33e6b9",
                    "timestamp" : "0x03e8",
                    "transactionsTrie" : "0x199c6fcb0f9e039ef5f479ec7b26c911121bf9a99f544081fffebfdb208057fa",
                    "uncleHash" : "0x1dcc4de8dec75d7aab85b567b6ccd41ad312451b948a7413f0a142fd40d49347",
                    "withdrawalsRoot" : "0x56e81f171bcc55a6ff8345e692c0f86e5b48e01b996cadc001622fb5e363b421"
                },
                "rlp" : "0xf90401f9023ea0ac9b6f87200acfcfe5bb2a241def800db159905f3de0eafd516d9a574e91cf7ba01dcc4de8dec75d7aab85b567b6ccd41ad312451b948a7413f0a142fd40d4934794a94f5374fce5edbc8e2a8697c15331677e6ebf0ba09ca6e568b07697016773a37f98efaf4fbdb834f2cc16f972666bd3436b33e6b9a0199c6fcb0f9e039ef5f479ec7b26c911121bf9a99f544081fffebfdb208057faa0f5039932bcc49d2ab9209147be9becc080f205ae85e46f2014cf6eee682bca30b90100000000000000000000000000000000000000000000000000000000000000000000000000000000000000000000000000000000000000000000000000000000000000000000000000000000000000000000000000000000000000000000000000000000000000000000000000000000000000000000000000000000000000000000000000000000000000000000000000000000000000000000000000000000000000000000000000000000000000000000000000000000000000000000000000000000000000000000000000000000000000000000000000000000000000000000000000000000000000000000000000000000000000000000000000000000008001877f0d477519ac97839628e58203e800a000000000000000000000000000000000000000000000000000000000000200008800000000000000000aa056e81f171bcc55a6ff8345e692c0f86e5b48e01b996cadc001622fb5e363b4218080a00000000000000000000000000000000000000000000000000000000000000000f901bbf901b8800a839628e58084f0ec2ce5b90166620d15bc62074ac2f3789b4ff89d27fb5018b60a3730731819c16c8a1e6513c3c2703e63f82ce3617b9c5bdd435cc4e8eaffa5d05d45aef99b6726757bbe89b4ae0e5b9b6062855c2d525b6ca347c35412d0ab99dbc839a14f619a34621beef752635999fd987437da3edb75b58f986d9b62ffc1e6dae25c7e0c019f73922a0ab96d77aef70627e71d0a63d38d2d09afec6a9f6dd36fff38e99a634e506f29060c4e3c3371d213d31078939857877d1780bc984b1ae1225b8dc7cc534cd080ba4b324f436d2c211b3c30889cf66d57b8f669c1be7711d78254d859636790551a4a0f6e0c06664680c8fadd1d7e7b3e887ea3cff5077d014551ed36a72977742f6dcee4113c33297428527783529e675399ca43d5df7d9a4151fcac7093585bb8c6df7d6563faafe035226b81786f72b243bfdbc99e8fd67571df50e0ed7a8e1aaca76fcc65151e7730dee525a07c75d1b3855ae0bfbe0d79ff4905974c837e30a06fb163d89d1ca030c972e9451a551f9804e61a512b493405b850be84d055b3794956982db1199da03748ab8e4a075fde742856e50e4c283b5f0a157e83f20a6b09196ed3db8d8790c0c0",
                "transactions" : [
                    {
                        "data" : "0x620d15bc62074ac2f3789b4ff89d27fb5018b60a3730731819c16c8a1e6513c3c2703e63f82ce3617b9c5bdd435cc4e8eaffa5d05d45aef99b6726757bbe89b4ae0e5b9b6062855c2d525b6ca347c35412d0ab99dbc839a14f619a34621beef752635999fd987437da3edb75b58f986d9b62ffc1e6dae25c7e0c019f73922a0ab96d77aef70627e71d0a63d38d2d09afec6a9f6dd36fff38e99a634e506f29060c4e3c3371d213d31078939857877d1780bc984b1ae1225b8dc7cc534cd080ba4b324f436d2c211b3c30889cf66d57b8f669c1be7711d78254d859636790551a4a0f6e0c06664680c8fadd1d7e7b3e887ea3cff5077d014551ed36a72977742f6dcee4113c33297428527783529e675399ca43d5df7d9a4151fcac7093585bb8c6df7d6563faafe035226b81786f72b243bfdbc99e8fd67571df50e0ed7a8e1aaca76fcc65151e7730dee525a07c75d1b3855ae0bfbe0d79ff4905974c837e30a06fb163d89d",
                        "gasLimit" : "0x9628e5",
                        "gasPrice" : "0x0a",
                        "nonce" : "0x00",
                        "r" : "0x30c972e9451a551f9804e61a512b493405b850be84d055b3794956982db1199d",
                        "s" : "0x3748ab8e4a075fde742856e50e4c283b5f0a157e83f20a6b09196ed3db8d8790",
                        "sender" : "0xa94f5374fce5edbc8e2a8697c15331677e6ebf0b",
                        "to" : "",
                        "v" : "0x1c",
                        "value" : "0xf0ec2ce5"
                    }
                ],
                "uncleHeaders" : [
                ],
                "withdrawals" : [
                ]
            }
        ],
        "genesisBlockHeader" : {
            "baseFeePerGas" : "0x0b",
            "blobGasUsed" : "0x00",
            "bloom" : "0x00000000000000000000000000000000000000000000000000000000000000000000000000000000000000000000000000000000000000000000000000000000000000000000000000000000000000000000000000000000000000000000000000000000000000000000000000000000000000000000000000000000000000000000000000000000000000000000000000000000000000000000000000000000000000000000000000000000000000000000000000000000000000000000000000000000000000000000000000000000000000000000000000000000000000000000000000000000000000000000000000000000000000000000000000000000",
            "coinbase" : "0xa94f5374fce5edbc8e2a8697c15331677e6ebf0b",
            "difficulty" : "0x00",
            "excessBlobGas" : "0x060000",
            "extraData" : "0x00",
            "gasLimit" : "0x7f0d477519ac97",
            "gasUsed" : "0x00",
            "hash" : "0xac9b6f87200acfcfe5bb2a241def800db159905f3de0eafd516d9a574e91cf7b",
            "mixHash" : "0x0000000000000000000000000000000000000000000000000000000000020000",
            "nonce" : "0x0000000000000000",
            "number" : "0x00",
            "parentBeaconBlockRoot" : "0x0000000000000000000000000000000000000000000000000000000000000000",
            "parentHash" : "0x0000000000000000000000000000000000000000000000000000000000000000",
            "receiptTrie" : "0x56e81f171bcc55a6ff8345e692c0f86e5b48e01b996cadc001622fb5e363b421",
            "stateRoot" : "0x8dd5b8f97a3b3271f3c91997304970c04f37154bcfaeb598e5c463cac97f8272",
            "timestamp" : "0x00",
            "transactionsTrie" : "0x56e81f171bcc55a6ff8345e692c0f86e5b48e01b996cadc001622fb5e363b421",
            "uncleHash" : "0x1dcc4de8dec75d7aab85b567b6ccd41ad312451b948a7413f0a142fd40d49347",
            "withdrawalsRoot" : "0x56e81f171bcc55a6ff8345e692c0f86e5b48e01b996cadc001622fb5e363b421"
        },
        "genesisRLP" : "0xf90242f9023ca00000000000000000000000000000000000000000000000000000000000000000a01dcc4de8dec75d7aab85b567b6ccd41ad312451b948a7413f0a142fd40d4934794a94f5374fce5edbc8e2a8697c15331677e6ebf0ba08dd5b8f97a3b3271f3c91997304970c04f37154bcfaeb598e5c463cac97f8272a056e81f171bcc55a6ff8345e692c0f86e5b48e01b996cadc001622fb5e363b421a056e81f171bcc55a6ff8345e692c0f86e5b48e01b996cadc001622fb5e363b421b90100000000000000000000000000000000000000000000000000000000000000000000000000000000000000000000000000000000000000000000000000000000000000000000000000000000000000000000000000000000000000000000000000000000000000000000000000000000000000000000000000000000000000000000000000000000000000000000000000000000000000000000000000000000000000000000000000000000000000000000000000000000000000000000000000000000000000000000000000000000000000000000000000000000000000000000000000000000000000000000000000000000000000000000000000000000008080877f0d477519ac97808000a000000000000000000000000000000000000000000000000000000000000200008800000000000000000ba056e81f171bcc55a6ff8345e692c0f86e5b48e01b996cadc001622fb5e363b4218083060000a00000000000000000000000000000000000000000000000000000000000000000c0c0c0",
        "lastblockhash" : "0xc2ec25c2b0bfd2dfbd3851ead245575624cfc245428b7cab4dcea660aa202a95",
        "network" : "Cancun",
        "postState" : {
            "0x000f3df6d732807ef1319fb7b8bb8522d0beac02" : {
                "balance" : "0x00",
                "code" : "0x3373fffffffffffffffffffffffffffffffffffffffe14604d57602036146024575f5ffd5b5f35801560495762001fff810690815414603c575f5ffd5b62001fff01545f5260205ff35b5f5ffd5b62001fff42064281555f359062001fff015500",
                "nonce" : "0x01",
                "storage" : {
                    "0x03e8" : "0x03e8"
                }
            },
            "0x1000000000000000000000000000000000000000" : {
                "balance" : "0x3f91b25c1601534b",
                "code" : "0x79ecfecf2ab84463f738fc85b069590fcff0334fb1a7108861a44465a26237bc83297ff893a1a95c84afbecc79e1ee4acc8fca826df1ab268bdfd9e712ad0d261f5ede0b6545e6a7d462826d39eb0ac5b4c3ef35f0b4e6d9e05f0773fc63be0c082847f6f9f7728764e142fcd95702c36d65c1e55ec0e2128768030e4eb0de74b57969caa2f2493998537ad0ecba9400ebae911dad6f98bd15da63a8614aa455dc593fa70386a260c66270f1d7527b75f1bf8a683b5d1721f7dd57755bd6a9bed9f874e3876cfcac6762ea51",
                "nonce" : "0xd2",
                "storage" : {
                }
            },
            "0xa94f5374fce5edbc8e2a8697c15331677e6ebf0b" : {
                "balance" : "0xa015cddab132e212",
                "code" : "0x",
                "nonce" : "0x01",
                "storage" : {
                }
            },
            "0xc94f5374fce5edbc8e2a8697c15331677e6ebf0b" : {
                "balance" : "0x262e8de142312a2d",
                "code" : "0x436debc3912504eded08f73b9ff9490d73fc4f820a0890b7e8417fa97940713aeb870e59a790607f6b3d5649e57458ea8692da323253735967657e3fc6e02f6de1c0ff6cc18e051bdd52ad7b1eb441440620426b3485ab683d44ff8d5544eb7f7fb3e1f4c30063640b5a626f341b6271dd59621208476208431973c94f5374fce5edbc8e2a8697c15331677e6ebf0b6338f86b9af4",
                "nonce" : "0xf3",
                "storage" : {
                }
            }
        },
        "pre" : {
            "0x000f3df6d732807ef1319fb7b8bb8522d0beac02" : {
                "balance" : "0x00",
                "code" : "0x3373fffffffffffffffffffffffffffffffffffffffe14604d57602036146024575f5ffd5b5f35801560495762001fff810690815414603c575f5ffd5b62001fff01545f5260205ff35b5f5ffd5b62001fff42064281555f359062001fff015500",
                "nonce" : "0x01",
                "storage" : {
                }
            },
            "0x1000000000000000000000000000000000000000" : {
                "balance" : "0x3f91b25c1601534b",
                "code" : "0x79ecfecf2ab84463f738fc85b069590fcff0334fb1a7108861a44465a26237bc83297ff893a1a95c84afbecc79e1ee4acc8fca826df1ab268bdfd9e712ad0d261f5ede0b6545e6a7d462826d39eb0ac5b4c3ef35f0b4e6d9e05f0773fc63be0c082847f6f9f7728764e142fcd95702c36d65c1e55ec0e2128768030e4eb0de74b57969caa2f2493998537ad0ecba9400ebae911dad6f98bd15da63a8614aa455dc593fa70386a260c66270f1d7527b75f1bf8a683b5d1721f7dd57755bd6a9bed9f874e3876cfcac6762ea51",
                "nonce" : "0xd2",
                "storage" : {
                }
            },
            "0xa94f5374fce5edbc8e2a8697c15331677e6ebf0b" : {
                "balance" : "0xa015cddab7107b04",
                "code" : "0x",
                "nonce" : "0x00",
                "storage" : {
                }
            },
            "0xc94f5374fce5edbc8e2a8697c15331677e6ebf0b" : {
                "balance" : "0x262e8de142312a2d",
                "code" : "0x436debc3912504eded08f73b9ff9490d73fc4f820a0890b7e8417fa97940713aeb870e59a790607f6b3d5649e57458ea8692da323253735967657e3fc6e02f6de1c0ff6cc18e051bdd52ad7b1eb441440620426b3485ab683d44ff8d5544eb7f7fb3e1f4c30063640b5a626f341b6271dd59621208476208431973c94f5374fce5edbc8e2a8697c15331677e6ebf0b6338f86b9af4",
                "nonce" : "0xf3",
                "storage" : {
                }
            }
        },
        "sealEngine" : "NoProof"
    }
}