{
    "randomStatetest580_d0g0v0_Byzantium" : {
        "_info" : {
            "comment" : "",
            "filledwith" : "cpp-1.3.0+commit.8fb57c56.Linux.g++",
            "lllcversion" : "Version: 0.4.20-develop.2018.1.8+commit.2548228b.Linux.g++",
            "source" : "src/BlockchainTestsFiller/GeneralStateTests/stRandom2/randomStatetest580_d0g0v0Filler.json",
            "sourceHash" : "0ce96fa80e0be24f85798760a4f732f7300ffa6428b3f19be74d88186611ef4d"
        },
        "blocks" : [
            {
                "blockHeader" : {
                    "bloom" : "0x00000000000000000000000000000000000000000000000000000000000000000000000000000000000000000000000000000000000000000000000000000000000000000000000000000000000000000000000000000000000000000000000000000000000000000000000000000000000000000000000000000000000000000000000000000000000000000000000000000000000000000000000000000000000000000000000000000000000000000000000000000000000000000000000000000000000000000000000000000000000000000000000000000000000000000000000000000000000000000000000000000000000000000000000000000000",
                    "coinbase" : "0x945304eb96065b2a98b57a48a06ae28d285a71b5",
                    "difficulty" : "0x020000",
                    "extraData" : "",
                    "gasLimit" : "0x7fffffffffffffff",
                    "gasUsed" : "0xb2eb",
                    "hash" : "0xaf15a5962d4798993e5e7d8f2fc5205f61973e14e5bc8b4dd6f7df991b17ece0",
                    "mixHash" : "0xac53f04b9dd946f78c3ef4d78dbdc7349bf3198bb08c0725546b61aa6c0d934b",
                    "nonce" : "0xab2301ac09518485",
                    "number" : "0x01",
                    "parentHash" : "0x816922a6346d211d8c57a3f91fb150ae4627d8c3417fdc9b7d27545c447f2384",
                    "receiptTrie" : "0x476c89c467afbb9e0789e33c940e73f4ba0e54f749fdd484f5cf3181431ed586",
                    "stateRoot" : "0x0fb6615252bee18c0730f8277a3a0f258b81d6f2fed30f74a25dbc11e1871d5a",
                    "timestamp" : "0x03e8",
                    "transactionsTrie" : "0x1c506e474b85c45b7c9270aaadb917bff5f8bb57ff8aa58f9105bc2e81b87843",
                    "uncleHash" : "0x1dcc4de8dec75d7aab85b567b6ccd41ad312451b948a7413f0a142fd40d49347"
                },
                "rlp" : "0xf90364f901fca0816922a6346d211d8c57a3f91fb150ae4627d8c3417fdc9b7d27545c447f2384a01dcc4de8dec75d7aab85b567b6ccd41ad312451b948a7413f0a142fd40d4934794945304eb96065b2a98b57a48a06ae28d285a71b5a00fb6615252bee18c0730f8277a3a0f258b81d6f2fed30f74a25dbc11e1871d5aa01c506e474b85c45b7c9270aaadb917bff5f8bb57ff8aa58f9105bc2e81b87843a0476c89c467afbb9e0789e33c940e73f4ba0e54f749fdd484f5cf3181431ed586b90100000000000000000000000000000000000000000000000000000000000000000000000000000000000000000000000000000000000000000000000000000000000000000000000000000000000000000000000000000000000000000000000000000000000000000000000000000000000000000000000000000000000000000000000000000000000000000000000000000000000000000000000000000000000000000000000000000000000000000000000000000000000000000000000000000000000000000000000000000000000000000000000000000000000000000000000000000000000000000000000000000000000000000000000000000000008302000001887fffffffffffffff82b2eb8203e880a0ac53f04b9dd946f78c3ef4d78dbdc7349bf3198bb08c0725546b61aa6c0d934b88ab2301ac09518485f90161f9015e8001840a3b391c94095e7baea6a6c7c4c2dfeb977efac326af552d87842c360421b8f87f00000000000000000000000000000000000000000000000000000000000000007f00000000000000000000000000000000000000000000000000000000000000017ffffffffffffffffffffffffffffffffffffffffffffffffffffffffffffffffe7f0000000000000000000000000000000000000000000000000000000000000000457f00000000000000000000000000000000000000000000000000000000000000007f000000000000000000000000000000000000000000000000000000000000c3507f00000000000000000000000000000000000000000000000000000000000000006f4640879d18777b953a209836379a301ba08923fafdba254ddd23be55d8609ba694cbe415f888545ec1ed1db715e2404caba03dfd6b2817a60ecdaa2fd8b5e09198847133f3a5e3605f103c8947803173ea23c0",
                "transactions" : [
                    {
                        "data" : "0x7f00000000000000000000000000000000000000000000000000000000000000007f00000000000000000000000000000000000000000000000000000000000000017ffffffffffffffffffffffffffffffffffffffffffffffffffffffffffffffffe7f0000000000000000000000000000000000000000000000000000000000000000457f00000000000000000000000000000000000000000000000000000000000000007f000000000000000000000000000000000000000000000000000000000000c3507f00000000000000000000000000000000000000000000000000000000000000006f4640879d18777b953a209836379a30",
                        "gasLimit" : "0x0a3b391c",
                        "gasPrice" : "0x01",
                        "nonce" : "0x00",
                        "r" : "0x8923fafdba254ddd23be55d8609ba694cbe415f888545ec1ed1db715e2404cab",
                        "s" : "0x3dfd6b2817a60ecdaa2fd8b5e09198847133f3a5e3605f103c8947803173ea23",
                        "to" : "0x095e7baea6a6c7c4c2dfeb977efac326af552d87",
                        "v" : "0x1b",
                        "value" : "0x2c360421"
                    }
                ],
                "uncleHeaders" : [
                ]
            }
        ],
        "genesisBlockHeader" : {
            "bloom" : "0x00000000000000000000000000000000000000000000000000000000000000000000000000000000000000000000000000000000000000000000000000000000000000000000000000000000000000000000000000000000000000000000000000000000000000000000000000000000000000000000000000000000000000000000000000000000000000000000000000000000000000000000000000000000000000000000000000000000000000000000000000000000000000000000000000000000000000000000000000000000000000000000000000000000000000000000000000000000000000000000000000000000000000000000000000000000",
            "coinbase" : "0x945304eb96065b2a98b57a48a06ae28d285a71b5",
            "difficulty" : "0x020000",
            "extraData" : "0x42",
            "gasLimit" : "0x7fffffffffffffff",
            "gasUsed" : "0x00",
            "hash" : "0x816922a6346d211d8c57a3f91fb150ae4627d8c3417fdc9b7d27545c447f2384",
            "mixHash" : "0x56e81f171bcc55a6ff8345e692c0f86e5b48e01b996cadc001622fb5e363b421",
            "nonce" : "0x0102030405060708",
            "number" : "0x00",
            "parentHash" : "0x0000000000000000000000000000000000000000000000000000000000000000",
            "receiptTrie" : "0x56e81f171bcc55a6ff8345e692c0f86e5b48e01b996cadc001622fb5e363b421",
            "stateRoot" : "0x127df64bce3fad0c16b7400a6457dd18d969ce6cc845d27aa08b8e808a571f5f",
            "timestamp" : "0x03b6",
            "transactionsTrie" : "0x56e81f171bcc55a6ff8345e692c0f86e5b48e01b996cadc001622fb5e363b421",
            "uncleHash" : "0x1dcc4de8dec75d7aab85b567b6ccd41ad312451b948a7413f0a142fd40d49347"
        },
        "genesisRLP" : "0xf901fff901faa00000000000000000000000000000000000000000000000000000000000000000a01dcc4de8dec75d7aab85b567b6ccd41ad312451b948a7413f0a142fd40d4934794945304eb96065b2a98b57a48a06ae28d285a71b5a0127df64bce3fad0c16b7400a6457dd18d969ce6cc845d27aa08b8e808a571f5fa056e81f171bcc55a6ff8345e692c0f86e5b48e01b996cadc001622fb5e363b421a056e81f171bcc55a6ff8345e692c0f86e5b48e01b996cadc001622fb5e363b421b90100000000000000000000000000000000000000000000000000000000000000000000000000000000000000000000000000000000000000000000000000000000000000000000000000000000000000000000000000000000000000000000000000000000000000000000000000000000000000000000000000000000000000000000000000000000000000000000000000000000000000000000000000000000000000000000000000000000000000000000000000000000000000000000000000000000000000000000000000000000000000000000000000000000000000000000000000000000000000000000000000000000000000000000000000000000008302000080887fffffffffffffff808203b642a056e81f171bcc55a6ff8345e692c0f86e5b48e01b996cadc001622fb5e363b421880102030405060708c0c0",
        "lastblockhash" : "0xaf15a5962d4798993e5e7d8f2fc5205f61973e14e5bc8b4dd6f7df991b17ece0",
        "network" : "Byzantium",
        "postState" : {
            "0x095e7baea6a6c7c4c2dfeb977efac326af552d87" : {
                "balance" : "0x2c360421",
                "code" : "0x7f00000000000000000000000000000000000000000000000000000000000000007f00000000000000000000000000000000000000000000000000000000000000017ffffffffffffffffffffffffffffffffffffffffffffffffffffffffffffffffe7f0000000000000000000000000000000000000000000000000000000000000000457f00000000000000000000000000000000000000000000000000000000000000007f000000000000000000000000000000000000000000000000000000000000c3507f00000000000000000000000000000000000000000000000000000000000000006f4640879d18777b953a209836379a305560005155",
                "nonce" : "0x00",
                "storage" : {
                    "0x00" : "0x4640879d18777b953a209836379a3055"
                }
            },
            "0x945304eb96065b2a98b57a48a06ae28d285a71b5" : {
                "balance" : "0x29a2241af62cb319",
                "code" : "0x6000355415600957005b60203560003555",
                "nonce" : "0x00",
                "storage" : {
                }
            },
            "0xa94f5374fce5edbc8e2a8697c15331677e6ebf0b" : {
                "balance" : "0x0de0b6b37b2d48f4",
                "code" : "",
                "nonce" : "0x01",
                "storage" : {
                }
            }
        },
        "pre" : {
            "0x095e7baea6a6c7c4c2dfeb977efac326af552d87" : {
                "balance" : "0x00",
                "code" : "0x7f00000000000000000000000000000000000000000000000000000000000000007f00000000000000000000000000000000000000000000000000000000000000017ffffffffffffffffffffffffffffffffffffffffffffffffffffffffffffffffe7f0000000000000000000000000000000000000000000000000000000000000000457f00000000000000000000000000000000000000000000000000000000000000007f000000000000000000000000000000000000000000000000000000000000c3507f00000000000000000000000000000000000000000000000000000000000000006f4640879d18777b953a209836379a305560005155",
                "nonce" : "0x00",
                "storage" : {
                }
            },
            "0x945304eb96065b2a98b57a48a06ae28d285a71b5" : {
                "balance" : "0x2e",
                "code" : "0x6000355415600957005b60203560003555",
                "nonce" : "0x00",
                "storage" : {
                }
            },
            "0xa94f5374fce5edbc8e2a8697c15331677e6ebf0b" : {
                "balance" : "0x0de0b6b3a7640000",
                "code" : "",
                "nonce" : "0x00",
                "storage" : {
                }
            }
        }
    },
    "randomStatetest580_d0g0v0_Homestead" : {
        "_info" : {
            "comment" : "",
            "filledwith" : "cpp-1.3.0+commit.8fb57c56.Linux.g++",
            "lllcversion" : "Version: 0.4.20-develop.2018.1.8+commit.2548228b.Linux.g++",
            "source" : "src/BlockchainTestsFiller/GeneralStateTests/stRandom2/randomStatetest580_d0g0v0Filler.json",
            "sourceHash" : "0ce96fa80e0be24f85798760a4f732f7300ffa6428b3f19be74d88186611ef4d"
        },
        "blocks" : [
            {
                "blockHeader" : {
                    "bloom" : "0x00000000000000000000000000000000000000000000000000000000000000000000000000000000000000000000000000000000000000000000000000000000000000000000000000000000000000000000000000000000000000000000000000000000000000000000000000000000000000000000000000000000000000000000000000000000000000000000000000000000000000000000000000000000000000000000000000000000000000000000000000000000000000000000000000000000000000000000000000000000000000000000000000000000000000000000000000000000000000000000000000000000000000000000000000000000",
                    "coinbase" : "0x945304eb96065b2a98b57a48a06ae28d285a71b5",
                    "difficulty" : "0x020000",
                    "extraData" : "",
                    "gasLimit" : "0x7fffffffffffffff",
                    "gasUsed" : "0xb2eb",
                    "hash" : "0x7959311afe0a5f2823e5fdbee3ef1f24d3cab6765e0480610eb6334452237176",
                    "mixHash" : "0x97bac2e19055a36fb714204793d8cf75da157fed69f8c1991673ee1f53e5374e",
                    "nonce" : "0x0e52737c826a1303",
                    "number" : "0x01",
                    "parentHash" : "0x816922a6346d211d8c57a3f91fb150ae4627d8c3417fdc9b7d27545c447f2384",
                    "receiptTrie" : "0xc320b638b527cc601cac97b3964a7c2e6aa88bbd1ba4402fb6c170a36564f61e",
                    "stateRoot" : "0x35a038c58dd100f0799ca687f996923738ea3ffd45f6bdff07190ce064cf1d3b",
                    "timestamp" : "0x03e8",
                    "transactionsTrie" : "0x1c506e474b85c45b7c9270aaadb917bff5f8bb57ff8aa58f9105bc2e81b87843",
                    "uncleHash" : "0x1dcc4de8dec75d7aab85b567b6ccd41ad312451b948a7413f0a142fd40d49347"
                },
                "rlp" : "0xf90364f901fca0816922a6346d211d8c57a3f91fb150ae4627d8c3417fdc9b7d27545c447f2384a01dcc4de8dec75d7aab85b567b6ccd41ad312451b948a7413f0a142fd40d4934794945304eb96065b2a98b57a48a06ae28d285a71b5a035a038c58dd100f0799ca687f996923738ea3ffd45f6bdff07190ce064cf1d3ba01c506e474b85c45b7c9270aaadb917bff5f8bb57ff8aa58f9105bc2e81b87843a0c320b638b527cc601cac97b3964a7c2e6aa88bbd1ba4402fb6c170a36564f61eb90100000000000000000000000000000000000000000000000000000000000000000000000000000000000000000000000000000000000000000000000000000000000000000000000000000000000000000000000000000000000000000000000000000000000000000000000000000000000000000000000000000000000000000000000000000000000000000000000000000000000000000000000000000000000000000000000000000000000000000000000000000000000000000000000000000000000000000000000000000000000000000000000000000000000000000000000000000000000000000000000000000000000000000000000000000000008302000001887fffffffffffffff82b2eb8203e880a097bac2e19055a36fb714204793d8cf75da157fed69f8c1991673ee1f53e5374e880e52737c826a1303f90161f9015e8001840a3b391c94095e7baea6a6c7c4c2dfeb977efac326af552d87842c360421b8f87f00000000000000000000000000000000000000000000000000000000000000007f00000000000000000000000000000000000000000000000000000000000000017ffffffffffffffffffffffffffffffffffffffffffffffffffffffffffffffffe7f0000000000000000000000000000000000000000000000000000000000000000457f00000000000000000000000000000000000000000000000000000000000000007f000000000000000000000000000000000000000000000000000000000000c3507f00000000000000000000000000000000000000000000000000000000000000006f4640879d18777b953a209836379a301ba08923fafdba254ddd23be55d8609ba694cbe415f888545ec1ed1db715e2404caba03dfd6b2817a60ecdaa2fd8b5e09198847133f3a5e3605f103c8947803173ea23c0",
                "transactions" : [
                    {
                        "data" : "0x7f00000000000000000000000000000000000000000000000000000000000000007f00000000000000000000000000000000000000000000000000000000000000017ffffffffffffffffffffffffffffffffffffffffffffffffffffffffffffffffe7f0000000000000000000000000000000000000000000000000000000000000000457f00000000000000000000000000000000000000000000000000000000000000007f000000000000000000000000000000000000000000000000000000000000c3507f00000000000000000000000000000000000000000000000000000000000000006f4640879d18777b953a209836379a30",
                        "gasLimit" : "0x0a3b391c",
                        "gasPrice" : "0x01",
                        "nonce" : "0x00",
                        "r" : "0x8923fafdba254ddd23be55d8609ba694cbe415f888545ec1ed1db715e2404cab",
                        "s" : "0x3dfd6b2817a60ecdaa2fd8b5e09198847133f3a5e3605f103c8947803173ea23",
                        "to" : "0x095e7baea6a6c7c4c2dfeb977efac326af552d87",
                        "v" : "0x1b",
                        "value" : "0x2c360421"
                    }
                ],
                "uncleHeaders" : [
                ]
            }
        ],
        "genesisBlockHeader" : {
            "bloom" : "0x00000000000000000000000000000000000000000000000000000000000000000000000000000000000000000000000000000000000000000000000000000000000000000000000000000000000000000000000000000000000000000000000000000000000000000000000000000000000000000000000000000000000000000000000000000000000000000000000000000000000000000000000000000000000000000000000000000000000000000000000000000000000000000000000000000000000000000000000000000000000000000000000000000000000000000000000000000000000000000000000000000000000000000000000000000000",
            "coinbase" : "0x945304eb96065b2a98b57a48a06ae28d285a71b5",
            "difficulty" : "0x020000",
            "extraData" : "0x42",
            "gasLimit" : "0x7fffffffffffffff",
            "gasUsed" : "0x00",
            "hash" : "0x816922a6346d211d8c57a3f91fb150ae4627d8c3417fdc9b7d27545c447f2384",
            "mixHash" : "0x56e81f171bcc55a6ff8345e692c0f86e5b48e01b996cadc001622fb5e363b421",
            "nonce" : "0x0102030405060708",
            "number" : "0x00",
            "parentHash" : "0x0000000000000000000000000000000000000000000000000000000000000000",
            "receiptTrie" : "0x56e81f171bcc55a6ff8345e692c0f86e5b48e01b996cadc001622fb5e363b421",
            "stateRoot" : "0x127df64bce3fad0c16b7400a6457dd18d969ce6cc845d27aa08b8e808a571f5f",
            "timestamp" : "0x03b6",
            "transactionsTrie" : "0x56e81f171bcc55a6ff8345e692c0f86e5b48e01b996cadc001622fb5e363b421",
            "uncleHash" : "0x1dcc4de8dec75d7aab85b567b6ccd41ad312451b948a7413f0a142fd40d49347"
        },
        "genesisRLP" : "0xf901fff901faa00000000000000000000000000000000000000000000000000000000000000000a01dcc4de8dec75d7aab85b567b6ccd41ad312451b948a7413f0a142fd40d4934794945304eb96065b2a98b57a48a06ae28d285a71b5a0127df64bce3fad0c16b7400a6457dd18d969ce6cc845d27aa08b8e808a571f5fa056e81f171bcc55a6ff8345e692c0f86e5b48e01b996cadc001622fb5e363b421a056e81f171bcc55a6ff8345e692c0f86e5b48e01b996cadc001622fb5e363b421b90100000000000000000000000000000000000000000000000000000000000000000000000000000000000000000000000000000000000000000000000000000000000000000000000000000000000000000000000000000000000000000000000000000000000000000000000000000000000000000000000000000000000000000000000000000000000000000000000000000000000000000000000000000000000000000000000000000000000000000000000000000000000000000000000000000000000000000000000000000000000000000000000000000000000000000000000000000000000000000000000000000000000000000000000000000000008302000080887fffffffffffffff808203b642a056e81f171bcc55a6ff8345e692c0f86e5b48e01b996cadc001622fb5e363b421880102030405060708c0c0",
        "lastblockhash" : "0x7959311afe0a5f2823e5fdbee3ef1f24d3cab6765e0480610eb6334452237176",
        "network" : "Homestead",
        "postState" : {
            "0x095e7baea6a6c7c4c2dfeb977efac326af552d87" : {
                "balance" : "0x2c360421",
                "code" : "0x7f00000000000000000000000000000000000000000000000000000000000000007f00000000000000000000000000000000000000000000000000000000000000017ffffffffffffffffffffffffffffffffffffffffffffffffffffffffffffffffe7f0000000000000000000000000000000000000000000000000000000000000000457f00000000000000000000000000000000000000000000000000000000000000007f000000000000000000000000000000000000000000000000000000000000c3507f00000000000000000000000000000000000000000000000000000000000000006f4640879d18777b953a209836379a305560005155",
                "nonce" : "0x00",
                "storage" : {
                    "0x00" : "0x4640879d18777b953a209836379a3055"
                }
            },
            "0x945304eb96065b2a98b57a48a06ae28d285a71b5" : {
                "balance" : "0x4563918244f4b319",
                "code" : "0x6000355415600957005b60203560003555",
                "nonce" : "0x00",
                "storage" : {
                }
            },
            "0xa94f5374fce5edbc8e2a8697c15331677e6ebf0b" : {
                "balance" : "0x0de0b6b37b2d48f4",
                "code" : "",
                "nonce" : "0x01",
                "storage" : {
                }
            }
        },
        "pre" : {
            "0x095e7baea6a6c7c4c2dfeb977efac326af552d87" : {
                "balance" : "0x00",
                "code" : "0x7f00000000000000000000000000000000000000000000000000000000000000007f00000000000000000000000000000000000000000000000000000000000000017ffffffffffffffffffffffffffffffffffffffffffffffffffffffffffffffffe7f0000000000000000000000000000000000000000000000000000000000000000457f00000000000000000000000000000000000000000000000000000000000000007f000000000000000000000000000000000000000000000000000000000000c3507f00000000000000000000000000000000000000000000000000000000000000006f4640879d18777b953a209836379a305560005155",
                "nonce" : "0x00",
                "storage" : {
                }
            },
            "0x945304eb96065b2a98b57a48a06ae28d285a71b5" : {
                "balance" : "0x2e",
                "code" : "0x6000355415600957005b60203560003555",
                "nonce" : "0x00",
                "storage" : {
                }
            },
            "0xa94f5374fce5edbc8e2a8697c15331677e6ebf0b" : {
                "balance" : "0x0de0b6b3a7640000",
                "code" : "",
                "nonce" : "0x00",
                "storage" : {
                }
            }
        }
    }
}