{
    "codecopyMemExp_Berlin" : {
        "_info" : {
            "comment" : "Converted from VMTest source. ",
            "filling-rpc-server" : "evm version 1.10.2-unstable-22082f9e-20210309",
            "filling-tool-version" : "retesteth-0.1.0-accesslist+commit.47c69eb3.Linux.g++",
            "lllcversion" : "Version: 0.5.14-develop.2020.6.22+commit.9189ad7a.Linux.g++",
            "source" : "src/VMTestsFiller/vmIOandFlowOperations/codecopyMemExpFiller.json",
            "sourceHash" : "609f0cb27ff0c6996e7b64d14b99df16366d4476f7cebde8a49c50e184b91621"
        },
        "sealEngine" : "NoProof",
        "network" : "Berlin",
        "pre" : {
            "0x0f572e5295c57f15886f9b263e2f6d2d6c7b5ec6" : {
                "balance" : "0x152d02c7e14af6800000",
                "code" : "0x60ff60ff630fffffff630fffffff39",
                "nonce" : "0x00",
                "storage" : {
                }
            },
            "0xa94f5374fce5edbc8e2a8697c15331677e6ebf0b" : {
                "balance" : "0x7ffffffffffffff0",
                "code" : "0x",
                "nonce" : "0x00",
                "storage" : {
                }
            }
        },
        "genesisBlockHeader" : {
            "bloom" : "0x00000000000000000000000000000000000000000000000000000000000000000000000000000000000000000000000000000000000000000000000000000000000000000000000000000000000000000000000000000000000000000000000000000000000000000000000000000000000000000000000000000000000000000000000000000000000000000000000000000000000000000000000000000000000000000000000000000000000000000000000000000000000000000000000000000000000000000000000000000000000000000000000000000000000000000000000000000000000000000000000000000000000000000000000000000000",
            "coinbase" : "0x2adc25665018aa1fe0e6bc666dac8fc2697ff9ba",
            "difficulty" : "0x020000",
            "extraData" : "0x42",
            "gasLimit" : "0x01f4153d80",
            "gasUsed" : "0x00",
            "hash" : "0xb626b649fc766fac9437cc30b42d2c18409fbbc3fd44c053114fc485245a7f80",
            "mixHash" : "0x0000000000000000000000000000000000000000000000000000000000000000",
            "nonce" : "0x0000000000000000",
            "number" : "0x00",
            "parentHash" : "0x0000000000000000000000000000000000000000000000000000000000000000",
            "receiptTrie" : "0x56e81f171bcc55a6ff8345e692c0f86e5b48e01b996cadc001622fb5e363b421",
            "stateRoot" : "0xa69f82f409dbd5f3bfa0e295040a3eb79e60e501efe7a6b378be5a139a21c5a3",
            "timestamp" : "0x00",
            "transactionsTrie" : "0x56e81f171bcc55a6ff8345e692c0f86e5b48e01b996cadc001622fb5e363b421",
            "uncleHash" : "0x1dcc4de8dec75d7aab85b567b6ccd41ad312451b948a7413f0a142fd40d49347"
        },
        "genesisRLP" : "0xf901faf901f5a00000000000000000000000000000000000000000000000000000000000000000a01dcc4de8dec75d7aab85b567b6ccd41ad312451b948a7413f0a142fd40d49347942adc25665018aa1fe0e6bc666dac8fc2697ff9baa0a69f82f409dbd5f3bfa0e295040a3eb79e60e501efe7a6b378be5a139a21c5a3a056e81f171bcc55a6ff8345e692c0f86e5b48e01b996cadc001622fb5e363b421a056e81f171bcc55a6ff8345e692c0f86e5b48e01b996cadc001622fb5e363b421b901000000000000000000000000000000000000000000000000000000000000000000000000000000000000000000000000000000000000000000000000000000000000000000000000000000000000000000000000000000000000000000000000000000000000000000000000000000000000000000000000000000000000000000000000000000000000000000000000000000000000000000000000000000000000000000000000000000000000000000000000000000000000000000000000000000000000000000000000000000000000000000000000000000000000000000000000000000000000000000000000000000000000000000000000000000000083020000808501f4153d80808042a00000000000000000000000000000000000000000000000000000000000000000880000000000000000c0c0",
        "blocks" : [
            {
                "chainname" : "default",
                "blocknumber" : "1",
                "uncleHeaders" : [
                ],
                "blockHeader" : {
                    "bloom" : "0x00000000000000000000000000000000000000000000000000000000000000000000000000000000000000000000000000000000000000000000000000000000000000000000000000000000000000000000000000000000000000000000000000000000000000000000000000000000000000000000000000000000000000000000000000000000000000000000000000000000000000000000000000000000000000000000000000000000000000000000000000000000000000000000000000000000000000000000000000000000000000000000000000000000000000000000000000000000000000000000000000000000000000000000000000000000",
                    "coinbase" : "0x2adc25665018aa1fe0e6bc666dac8fc2697ff9ba",
                    "difficulty" : "0x020000",
                    "extraData" : "0x42",
                    "gasLimit" : "0x01f4153d80",
                    "gasUsed" : "0x01f4153d80",
                    "hash" : "0x8e360c2bf0c793dd238628731986f6aa98e923916d30040035eddb815b1a8caf",
                    "mixHash" : "0x0000000000000000000000000000000000000000000000000000000000000000",
                    "nonce" : "0x0000000000000000",
                    "number" : "0x01",
                    "parentHash" : "0xb626b649fc766fac9437cc30b42d2c18409fbbc3fd44c053114fc485245a7f80",
                    "receiptTrie" : "0x94330843662d3cd64f0ca5fbf6b8ab18bcb97fe347403a6e273e270b5a428265",
                    "stateRoot" : "0x5a1d726c433fb4c30e07a5c52843e9ffad5b4448fc8bcaecdbd3d7a786c144b8",
                    "timestamp" : "0x03e8",
                    "transactionsTrie" : "0x15c88b1e38ff6e26d1053b5b39a987050375f3de0ce01f681cada95a2f0aa98e",
                    "uncleHash" : "0x1dcc4de8dec75d7aab85b567b6ccd41ad312451b948a7413f0a142fd40d49347"
                },
                "transactions" : [
                    {
                        "data" : "0x",
                        "gasLimit" : "0x01f4153d80",
                        "gasPrice" : "0x01",
                        "nonce" : "0x00",
                        "r" : "0xe5b42f91872c3d11a0ff8531f3d8704c4c01ffca4242527efb944645c67674bb",
                        "s" : "0x36977a546daf2b6b9f26640ed10fcbe03573836943a42b5ff6f7ad7f235d2491",
                        "to" : "0x0f572e5295c57f15886f9b263e2f6d2d6c7b5ec6",
                        "v" : "0x1c",
                        "value" : "0x0b"
                    }
                ],
                "rlp" : "0xf90266f901fca0b626b649fc766fac9437cc30b42d2c18409fbbc3fd44c053114fc485245a7f80a01dcc4de8dec75d7aab85b567b6ccd41ad312451b948a7413f0a142fd40d49347942adc25665018aa1fe0e6bc666dac8fc2697ff9baa05a1d726c433fb4c30e07a5c52843e9ffad5b4448fc8bcaecdbd3d7a786c144b8a015c88b1e38ff6e26d1053b5b39a987050375f3de0ce01f681cada95a2f0aa98ea094330843662d3cd64f0ca5fbf6b8ab18bcb97fe347403a6e273e270b5a428265b901000000000000000000000000000000000000000000000000000000000000000000000000000000000000000000000000000000000000000000000000000000000000000000000000000000000000000000000000000000000000000000000000000000000000000000000000000000000000000000000000000000000000000000000000000000000000000000000000000000000000000000000000000000000000000000000000000000000000000000000000000000000000000000000000000000000000000000000000000000000000000000000000000000000000000000000000000000000000000000000000000000000000000000000000000000000083020000018501f4153d808501f4153d808203e842a00000000000000000000000000000000000000000000000000000000000000000880000000000000000f864f86280018501f4153d80940f572e5295c57f15886f9b263e2f6d2d6c7b5ec60b801ca0e5b42f91872c3d11a0ff8531f3d8704c4c01ffca4242527efb944645c67674bba036977a546daf2b6b9f26640ed10fcbe03573836943a42b5ff6f7ad7f235d2491c0"
            }
        ],
        "postState" : {
            "0x0f572e5295c57f15886f9b263e2f6d2d6c7b5ec6" : {
                "code" : "0x60ff60ff630fffffff630fffffff39",
                "nonce" : "0x00",
                "balance" : "0x152d02c7e14af6800000",
                "storage" : {
                }
            },
            "0x2adc25665018aa1fe0e6bc666dac8fc2697ff9ba" : {
                "code" : "0x",
                "nonce" : "0x00",
                "balance" : "0x1bc16d6942dd3d80",
                "storage" : {
                }
            },
            "0xa94f5374fce5edbc8e2a8697c15331677e6ebf0b" : {
                "code" : "0x",
                "nonce" : "0x01",
                "balance" : "0x7ffffffe0beac270",
                "storage" : {
                }
            }
        },
        "lastblockhash" : "0x8e360c2bf0c793dd238628731986f6aa98e923916d30040035eddb815b1a8caf"
    },
    "codecopyMemExp_Istanbul" : {
        "_info" : {
            "comment" : "Converted from VMTest source. ",
            "filling-rpc-server" : "evm version 1.10.2-unstable-22082f9e-20210309",
            "filling-tool-version" : "retesteth-0.1.0-accesslist+commit.47c69eb3.Linux.g++",
            "lllcversion" : "Version: 0.5.14-develop.2020.6.22+commit.9189ad7a.Linux.g++",
            "source" : "src/VMTestsFiller/vmIOandFlowOperations/codecopyMemExpFiller.json",
            "sourceHash" : "609f0cb27ff0c6996e7b64d14b99df16366d4476f7cebde8a49c50e184b91621"
        },
        "sealEngine" : "NoProof",
        "network" : "Istanbul",
        "pre" : {
            "0x0f572e5295c57f15886f9b263e2f6d2d6c7b5ec6" : {
                "balance" : "0x152d02c7e14af6800000",
                "code" : "0x60ff60ff630fffffff630fffffff39",
                "nonce" : "0x00",
                "storage" : {
                }
            },
            "0xa94f5374fce5edbc8e2a8697c15331677e6ebf0b" : {
                "balance" : "0x7ffffffffffffff0",
                "code" : "0x",
                "nonce" : "0x00",
                "storage" : {
                }
            }
        },
        "genesisBlockHeader" : {
            "bloom" : "0x00000000000000000000000000000000000000000000000000000000000000000000000000000000000000000000000000000000000000000000000000000000000000000000000000000000000000000000000000000000000000000000000000000000000000000000000000000000000000000000000000000000000000000000000000000000000000000000000000000000000000000000000000000000000000000000000000000000000000000000000000000000000000000000000000000000000000000000000000000000000000000000000000000000000000000000000000000000000000000000000000000000000000000000000000000000",
            "coinbase" : "0x2adc25665018aa1fe0e6bc666dac8fc2697ff9ba",
            "difficulty" : "0x020000",
            "extraData" : "0x42",
            "gasLimit" : "0x01f4153d80",
            "gasUsed" : "0x00",
            "hash" : "0xb626b649fc766fac9437cc30b42d2c18409fbbc3fd44c053114fc485245a7f80",
            "mixHash" : "0x0000000000000000000000000000000000000000000000000000000000000000",
            "nonce" : "0x0000000000000000",
            "number" : "0x00",
            "parentHash" : "0x0000000000000000000000000000000000000000000000000000000000000000",
            "receiptTrie" : "0x56e81f171bcc55a6ff8345e692c0f86e5b48e01b996cadc001622fb5e363b421",
            "stateRoot" : "0xa69f82f409dbd5f3bfa0e295040a3eb79e60e501efe7a6b378be5a139a21c5a3",
            "timestamp" : "0x00",
            "transactionsTrie" : "0x56e81f171bcc55a6ff8345e692c0f86e5b48e01b996cadc001622fb5e363b421",
            "uncleHash" : "0x1dcc4de8dec75d7aab85b567b6ccd41ad312451b948a7413f0a142fd40d49347"
        },
        "genesisRLP" : "0xf901faf901f5a00000000000000000000000000000000000000000000000000000000000000000a01dcc4de8dec75d7aab85b567b6ccd41ad312451b948a7413f0a142fd40d49347942adc25665018aa1fe0e6bc666dac8fc2697ff9baa0a69f82f409dbd5f3bfa0e295040a3eb79e60e501efe7a6b378be5a139a21c5a3a056e81f171bcc55a6ff8345e692c0f86e5b48e01b996cadc001622fb5e363b421a056e81f171bcc55a6ff8345e692c0f86e5b48e01b996cadc001622fb5e363b421b901000000000000000000000000000000000000000000000000000000000000000000000000000000000000000000000000000000000000000000000000000000000000000000000000000000000000000000000000000000000000000000000000000000000000000000000000000000000000000000000000000000000000000000000000000000000000000000000000000000000000000000000000000000000000000000000000000000000000000000000000000000000000000000000000000000000000000000000000000000000000000000000000000000000000000000000000000000000000000000000000000000000000000000000000000000000083020000808501f4153d80808042a00000000000000000000000000000000000000000000000000000000000000000880000000000000000c0c0",
        "blocks" : [
            {
                "chainname" : "default",
                "blocknumber" : "1",
                "uncleHeaders" : [
                ],
                "blockHeader" : {
                    "bloom" : "0x00000000000000000000000000000000000000000000000000000000000000000000000000000000000000000000000000000000000000000000000000000000000000000000000000000000000000000000000000000000000000000000000000000000000000000000000000000000000000000000000000000000000000000000000000000000000000000000000000000000000000000000000000000000000000000000000000000000000000000000000000000000000000000000000000000000000000000000000000000000000000000000000000000000000000000000000000000000000000000000000000000000000000000000000000000000",
                    "coinbase" : "0x2adc25665018aa1fe0e6bc666dac8fc2697ff9ba",
                    "difficulty" : "0x020000",
                    "extraData" : "0x42",
                    "gasLimit" : "0x01f4153d80",
                    "gasUsed" : "0x01f4153d80",
                    "hash" : "0x8e360c2bf0c793dd238628731986f6aa98e923916d30040035eddb815b1a8caf",
                    "mixHash" : "0x0000000000000000000000000000000000000000000000000000000000000000",
                    "nonce" : "0x0000000000000000",
                    "number" : "0x01",
                    "parentHash" : "0xb626b649fc766fac9437cc30b42d2c18409fbbc3fd44c053114fc485245a7f80",
                    "receiptTrie" : "0x94330843662d3cd64f0ca5fbf6b8ab18bcb97fe347403a6e273e270b5a428265",
                    "stateRoot" : "0x5a1d726c433fb4c30e07a5c52843e9ffad5b4448fc8bcaecdbd3d7a786c144b8",
                    "timestamp" : "0x03e8",
                    "transactionsTrie" : "0x15c88b1e38ff6e26d1053b5b39a987050375f3de0ce01f681cada95a2f0aa98e",
                    "uncleHash" : "0x1dcc4de8dec75d7aab85b567b6ccd41ad312451b948a7413f0a142fd40d49347"
                },
                "transactions" : [
                    {
                        "data" : "0x",
                        "gasLimit" : "0x01f4153d80",
                        "gasPrice" : "0x01",
                        "nonce" : "0x00",
                        "r" : "0xe5b42f91872c3d11a0ff8531f3d8704c4c01ffca4242527efb944645c67674bb",
                        "s" : "0x36977a546daf2b6b9f26640ed10fcbe03573836943a42b5ff6f7ad7f235d2491",
                        "to" : "0x0f572e5295c57f15886f9b263e2f6d2d6c7b5ec6",
                        "v" : "0x1c",
                        "value" : "0x0b"
                    }
                ],
                "rlp" : "0xf90266f901fca0b626b649fc766fac9437cc30b42d2c18409fbbc3fd44c053114fc485245a7f80a01dcc4de8dec75d7aab85b567b6ccd41ad312451b948a7413f0a142fd40d49347942adc25665018aa1fe0e6bc666dac8fc2697ff9baa05a1d726c433fb4c30e07a5c52843e9ffad5b4448fc8bcaecdbd3d7a786c144b8a015c88b1e38ff6e26d1053b5b39a987050375f3de0ce01f681cada95a2f0aa98ea094330843662d3cd64f0ca5fbf6b8ab18bcb97fe347403a6e273e270b5a428265b901000000000000000000000000000000000000000000000000000000000000000000000000000000000000000000000000000000000000000000000000000000000000000000000000000000000000000000000000000000000000000000000000000000000000000000000000000000000000000000000000000000000000000000000000000000000000000000000000000000000000000000000000000000000000000000000000000000000000000000000000000000000000000000000000000000000000000000000000000000000000000000000000000000000000000000000000000000000000000000000000000000000000000000000000000000000083020000018501f4153d808501f4153d808203e842a00000000000000000000000000000000000000000000000000000000000000000880000000000000000f864f86280018501f4153d80940f572e5295c57f15886f9b263e2f6d2d6c7b5ec60b801ca0e5b42f91872c3d11a0ff8531f3d8704c4c01ffca4242527efb944645c67674bba036977a546daf2b6b9f26640ed10fcbe03573836943a42b5ff6f7ad7f235d2491c0"
            }
        ],
        "postState" : {
            "0x0f572e5295c57f15886f9b263e2f6d2d6c7b5ec6" : {
                "code" : "0x60ff60ff630fffffff630fffffff39",
                "nonce" : "0x00",
                "balance" : "0x152d02c7e14af6800000",
                "storage" : {
                }
            },
            "0x2adc25665018aa1fe0e6bc666dac8fc2697ff9ba" : {
                "code" : "0x",
                "nonce" : "0x00",
                "balance" : "0x1bc16d6942dd3d80",
                "storage" : {
                }
            },
            "0xa94f5374fce5edbc8e2a8697c15331677e6ebf0b" : {
                "code" : "0x",
                "nonce" : "0x01",
                "balance" : "0x7ffffffe0beac270",
                "storage" : {
                }
            }
        },
        "lastblockhash" : "0x8e360c2bf0c793dd238628731986f6aa98e923916d30040035eddb815b1a8caf"
    }
}