{
    "modexp_37120_37111_0_1000000" : {
        "_info" : {
            "comment" : "Puts the base 179769313486231590772930519078902473361797697894230657273430081157732675805500963132708477322407536021120113879871393357658789768814416622492847430639474124377767893424865485276302219601246094119453082952085005768838150682342462881473913110540827237163350510684586298239947245938479716304835356329624224137120, exponent 179769313486231590772930519078902473361797697894230657273430081157732675805500963132708477322407536021120113879871393357658789768814416622492847430639474124377767893424865485276302219601246094119453082952085005768838150682342462881473913110540827237163350510684586298239947245938479716304835356329624224137111 and modulus 0 into the MODEXP precompile, saves the hash of the result. Gives the execution 1000000 gas",
            "filling-rpc-server" : "evm version 1.10.2-unstable-22082f9e-20210309",
            "filling-tool-version" : "retesteth-0.1.0-accesslist+commit.47c69eb3.Linux.g++",
            "lllcversion" : "Version: 0.5.14-develop.2020.6.22+commit.9189ad7a.Linux.g++",
            "source" : "src/GeneralStateTestsFiller/stPreCompiledContracts/modexp_37120_37111_0_1000000Filler.json",
            "sourceHash" : "a41afb1e186b68793c1ecb813030833edb39451a09ada9bfbb4ab332bf3bec02"
        },
        "env" : {
            "currentCoinbase" : "0x3535353535353535353535353535353535353535",
            "currentDifficulty" : "0x020000",
            "currentGasLimit" : "0x05f5e100",
            "currentNumber" : "0x01",
            "currentTimestamp" : "0x03e8",
            "previousHash" : "0xc6745cf3cada515bbfb9573261c82547e0b8f9e3d5dd382e464704a84e47b5ad"
        },
        "post" : {
            "Berlin" : [
                {
                    "indexes" : {
                        "data" : 0,
                        "gas" : 0,
                        "value" : 0
                    },
                    "hash" : "0x9e6b4ce0f5749ddf0280c7c869d5b626621c309394873548053d3ea0d6eee797",
                    "txbytes" : "0xf902060101830fdd1894c305c901078781c232a2a521c2af7980f8385ee980b901a430c8d1da00000000000000000000000000000000000000000000000000000000000000200000000000000000000000000000000000000000000000000000000000000160000000000000000000000000000000000000000000000000000000000000008000000000000000000000000000000000000000000000000000000000000000800000000000000000000000000000000000000000000000000000000000000000ffffffffffffffffffffffffffffffffffffffffffffffffffffffffffffffffffffffffffffffffffffffffffffffffffffffffffffffffffffffffffffffffffffffffffffffffffffffffffffffffffffffffffffffffffffffffffffffffffffffffffffffffffffffffffffffffffffffffffffffffffffffffffffffa0ffffffffffffffffffffffffffffffffffffffffffffffffffffffffffffffffffffffffffffffffffffffffffffffffffffffffffffffffffffffffffffffffffffffffffffffffffffffffffffffffffffffffffffffffffffffffffffffffffffffffffffffffffffffffffffffffffffffffffffffffffffffffffffff971ba0043c71ff3719f5d0602ae7eadfad2970040ba6efe698abd18e7d16337b1b64d9a04615feed7f83ecbdd53ec07d253e8fd21db8e293088afef26fca33d1b13b33d8",
                    "logs" : "0x1dcc4de8dec75d7aab85b567b6ccd41ad312451b948a7413f0a142fd40d49347"
                },
                {
                    "indexes" : {
                        "data" : 0,
                        "gas" : 3,
                        "value" : 0
                    },
                    "hash" : "0x9e6b4ce0f5749ddf0280c7c869d5b626621c309394873548053d3ea0d6eee797",
                    "txbytes" : "0xf90206010183030d4094c305c901078781c232a2a521c2af7980f8385ee980b901a430c8d1da00000000000000000000000000000000000000000000000000000000000000200000000000000000000000000000000000000000000000000000000000000160000000000000000000000000000000000000000000000000000000000000008000000000000000000000000000000000000000000000000000000000000000800000000000000000000000000000000000000000000000000000000000000000ffffffffffffffffffffffffffffffffffffffffffffffffffffffffffffffffffffffffffffffffffffffffffffffffffffffffffffffffffffffffffffffffffffffffffffffffffffffffffffffffffffffffffffffffffffffffffffffffffffffffffffffffffffffffffffffffffffffffffffffffffffffffffffffa0ffffffffffffffffffffffffffffffffffffffffffffffffffffffffffffffffffffffffffffffffffffffffffffffffffffffffffffffffffffffffffffffffffffffffffffffffffffffffffffffffffffffffffffffffffffffffffffffffffffffffffffffffffffffffffffffffffffffffffffffffffffffffffffff971ba03d056fcbf5bdc7380d8439f1ebb4ae949af69e60afd9fb420a94bbe1c9a5bf7fa0397f444c125b479b35bfebef978e94a6247810be4b157d019acef1fe1d0115fd",
                    "logs" : "0x1dcc4de8dec75d7aab85b567b6ccd41ad312451b948a7413f0a142fd40d49347"
                },
                {
                    "indexes" : {
                        "data" : 0,
                        "gas" : 1,
                        "value" : 0
                    },
                    "hash" : "0x73813383b4d8f23ef391c075800a0cd3668bc61d4a73a1e64a8a9f40160049ee",
                    "txbytes" : "0xf90206010183015f9094c305c901078781c232a2a521c2af7980f8385ee980b901a430c8d1da00000000000000000000000000000000000000000000000000000000000000200000000000000000000000000000000000000000000000000000000000000160000000000000000000000000000000000000000000000000000000000000008000000000000000000000000000000000000000000000000000000000000000800000000000000000000000000000000000000000000000000000000000000000ffffffffffffffffffffffffffffffffffffffffffffffffffffffffffffffffffffffffffffffffffffffffffffffffffffffffffffffffffffffffffffffffffffffffffffffffffffffffffffffffffffffffffffffffffffffffffffffffffffffffffffffffffffffffffffffffffffffffffffffffffffffffffffffa0ffffffffffffffffffffffffffffffffffffffffffffffffffffffffffffffffffffffffffffffffffffffffffffffffffffffffffffffffffffffffffffffffffffffffffffffffffffffffffffffffffffffffffffffffffffffffffffffffffffffffffffffffffffffffffffffffffffffffffffffffffffffffffffff971ca05d7791c2c9d618a1614cb09ff8bde0c7573c9632611d609a4b6c88de1e1abdbda037457e745a1506f3092b1b52982c5cd1a86c0f980ef8d3cae4a94bb2c8bd7781",
                    "logs" : "0x1dcc4de8dec75d7aab85b567b6ccd41ad312451b948a7413f0a142fd40d49347"
                },
                {
                    "indexes" : {
                        "data" : 0,
                        "gas" : 2,
                        "value" : 0
                    },
                    "hash" : "0x981e17e9b20e48fa6930039a4d237d6cab7fb7e54217d195dd69ed5a6beffee7",
                    "txbytes" : "0xf9020601018301adb094c305c901078781c232a2a521c2af7980f8385ee980b901a430c8d1da00000000000000000000000000000000000000000000000000000000000000200000000000000000000000000000000000000000000000000000000000000160000000000000000000000000000000000000000000000000000000000000008000000000000000000000000000000000000000000000000000000000000000800000000000000000000000000000000000000000000000000000000000000000ffffffffffffffffffffffffffffffffffffffffffffffffffffffffffffffffffffffffffffffffffffffffffffffffffffffffffffffffffffffffffffffffffffffffffffffffffffffffffffffffffffffffffffffffffffffffffffffffffffffffffffffffffffffffffffffffffffffffffffffffffffffffffffffa0ffffffffffffffffffffffffffffffffffffffffffffffffffffffffffffffffffffffffffffffffffffffffffffffffffffffffffffffffffffffffffffffffffffffffffffffffffffffffffffffffffffffffffffffffffffffffffffffffffffffffffffffffffffffffffffffffffffffffffffffffffffffffffffff971ca0bc3b29699392e4dc158ae440a2daa70cbffc28a55bca3ae1adba82ac7c042bb4a057716946d6f82b100a838a36d74ee5977d2603a9b2a2625fb707f2c2c586915d",
                    "logs" : "0x1dcc4de8dec75d7aab85b567b6ccd41ad312451b948a7413f0a142fd40d49347"
                }
            ],
            "Istanbul" : [
                {
                    "indexes" : {
                        "data" : 0,
                        "gas" : 0,
                        "value" : 0
                    },
                    "hash" : "0x11fefc2a2b5e2372277dd243420aa8d3516330373f3d154ae0d79bc2625ad069",
                    "txbytes" : "0xf902060101830fdd1894c305c901078781c232a2a521c2af7980f8385ee980b901a430c8d1da00000000000000000000000000000000000000000000000000000000000000200000000000000000000000000000000000000000000000000000000000000160000000000000000000000000000000000000000000000000000000000000008000000000000000000000000000000000000000000000000000000000000000800000000000000000000000000000000000000000000000000000000000000000ffffffffffffffffffffffffffffffffffffffffffffffffffffffffffffffffffffffffffffffffffffffffffffffffffffffffffffffffffffffffffffffffffffffffffffffffffffffffffffffffffffffffffffffffffffffffffffffffffffffffffffffffffffffffffffffffffffffffffffffffffffffffffffffa0ffffffffffffffffffffffffffffffffffffffffffffffffffffffffffffffffffffffffffffffffffffffffffffffffffffffffffffffffffffffffffffffffffffffffffffffffffffffffffffffffffffffffffffffffffffffffffffffffffffffffffffffffffffffffffffffffffffffffffffffffffffffffffffff971ba0043c71ff3719f5d0602ae7eadfad2970040ba6efe698abd18e7d16337b1b64d9a04615feed7f83ecbdd53ec07d253e8fd21db8e293088afef26fca33d1b13b33d8",
                    "logs" : "0x1dcc4de8dec75d7aab85b567b6ccd41ad312451b948a7413f0a142fd40d49347"
                },
                {
                    "indexes" : {
                        "data" : 0,
                        "gas" : 1,
                        "value" : 0
                    },
                    "hash" : "0x73813383b4d8f23ef391c075800a0cd3668bc61d4a73a1e64a8a9f40160049ee",
                    "txbytes" : "0xf90206010183015f9094c305c901078781c232a2a521c2af7980f8385ee980b901a430c8d1da00000000000000000000000000000000000000000000000000000000000000200000000000000000000000000000000000000000000000000000000000000160000000000000000000000000000000000000000000000000000000000000008000000000000000000000000000000000000000000000000000000000000000800000000000000000000000000000000000000000000000000000000000000000ffffffffffffffffffffffffffffffffffffffffffffffffffffffffffffffffffffffffffffffffffffffffffffffffffffffffffffffffffffffffffffffffffffffffffffffffffffffffffffffffffffffffffffffffffffffffffffffffffffffffffffffffffffffffffffffffffffffffffffffffffffffffffffffa0ffffffffffffffffffffffffffffffffffffffffffffffffffffffffffffffffffffffffffffffffffffffffffffffffffffffffffffffffffffffffffffffffffffffffffffffffffffffffffffffffffffffffffffffffffffffffffffffffffffffffffffffffffffffffffffffffffffffffffffffffffffffffffffff971ca05d7791c2c9d618a1614cb09ff8bde0c7573c9632611d609a4b6c88de1e1abdbda037457e745a1506f3092b1b52982c5cd1a86c0f980ef8d3cae4a94bb2c8bd7781",
                    "logs" : "0x1dcc4de8dec75d7aab85b567b6ccd41ad312451b948a7413f0a142fd40d49347"
                },
                {
                    "indexes" : {
                        "data" : 0,
                        "gas" : 2,
                        "value" : 0
                    },
                    "hash" : "0x981e17e9b20e48fa6930039a4d237d6cab7fb7e54217d195dd69ed5a6beffee7",
                    "txbytes" : "0xf9020601018301adb094c305c901078781c232a2a521c2af7980f8385ee980b901a430c8d1da00000000000000000000000000000000000000000000000000000000000000200000000000000000000000000000000000000000000000000000000000000160000000000000000000000000000000000000000000000000000000000000008000000000000000000000000000000000000000000000000000000000000000800000000000000000000000000000000000000000000000000000000000000000ffffffffffffffffffffffffffffffffffffffffffffffffffffffffffffffffffffffffffffffffffffffffffffffffffffffffffffffffffffffffffffffffffffffffffffffffffffffffffffffffffffffffffffffffffffffffffffffffffffffffffffffffffffffffffffffffffffffffffffffffffffffffffffffa0ffffffffffffffffffffffffffffffffffffffffffffffffffffffffffffffffffffffffffffffffffffffffffffffffffffffffffffffffffffffffffffffffffffffffffffffffffffffffffffffffffffffffffffffffffffffffffffffffffffffffffffffffffffffffffffffffffffffffffffffffffffffffffffff971ca0bc3b29699392e4dc158ae440a2daa70cbffc28a55bca3ae1adba82ac7c042bb4a057716946d6f82b100a838a36d74ee5977d2603a9b2a2625fb707f2c2c586915d",
                    "logs" : "0x1dcc4de8dec75d7aab85b567b6ccd41ad312451b948a7413f0a142fd40d49347"
                }
            ]
        },
        "pre" : {
            "0x0000000000000000000000000000000000000001" : {
                "balance" : "0x01",
                "code" : "0x",
                "nonce" : "0x00",
                "storage" : {
                }
            },
            "0x0000000000000000000000000000000000000002" : {
                "balance" : "0x01",
                "code" : "0x",
                "nonce" : "0x00",
                "storage" : {
                }
            },
            "0x0000000000000000000000000000000000000003" : {
                "balance" : "0x01",
                "code" : "0x",
                "nonce" : "0x00",
                "storage" : {
                }
            },
            "0x0000000000000000000000000000000000000004" : {
                "balance" : "0x01",
                "code" : "0x",
                "nonce" : "0x00",
                "storage" : {
                }
            },
            "0x0000000000000000000000000000000000000005" : {
                "balance" : "0x01",
                "code" : "0x",
                "nonce" : "0x00",
                "storage" : {
                }
            },
            "0x0000000000000000000000000000000000000006" : {
                "balance" : "0x01",
                "code" : "0x",
                "nonce" : "0x00",
                "storage" : {
                }
            },
            "0x0000000000000000000000000000000000000007" : {
                "balance" : "0x01",
                "code" : "0x",
                "nonce" : "0x00",
                "storage" : {
                }
            },
            "0x0000000000000000000000000000000000000008" : {
                "balance" : "0x01",
                "code" : "0x",
                "nonce" : "0x00",
                "storage" : {
                }
            },
            "0x3535353535353535353535353535353535353535" : {
                "balance" : "0x0202fa",
                "code" : "0x",
                "nonce" : "0x00",
                "storage" : {
                }
            },
            "0x82a978b3f5962a5b0957d9ee9eef472ee55b42f1" : {
                "balance" : "0x0de0b6b3a761fd06",
                "code" : "0x",
                "nonce" : "0x01",
                "storage" : {
                }
            },
            "0xc305c901078781c232a2a521c2af7980f8385ee9" : {
                "balance" : "0x00",
                "code" : "0x600035601c52740100000000000000000000000000000000000000006020526fffffffffffffffffffffffffffffffff6040527fffffffffffffffffffffffffffffffff000000000000000000000000000000016060527402540be3fffffffffffffffffffffffffdabf41c006080527ffffffffffffffffffffffffdabf41c00000000000000000000000002540be40060a0526330c8d1da600051141561012c576101846004356004013511151558576004356004013560200160043560040161014037600161034061014051610160600060056305f5e0fff11558576001610320526103206021806103808284600060046015f150505061038080516020820120905060005561038060206020820352604081510160206001820306601f820103905060208203f350005b",
                "nonce" : "0x01",
                "storage" : {
                }
            }
        },
        "transaction" : {
            "data" : [
                "0x30c8d1da00000000000000000000000000000000000000000000000000000000000000200000000000000000000000000000000000000000000000000000000000000160000000000000000000000000000000000000000000000000000000000000008000000000000000000000000000000000000000000000000000000000000000800000000000000000000000000000000000000000000000000000000000000000ffffffffffffffffffffffffffffffffffffffffffffffffffffffffffffffffffffffffffffffffffffffffffffffffffffffffffffffffffffffffffffffffffffffffffffffffffffffffffffffffffffffffffffffffffffffffffffffffffffffffffffffffffffffffffffffffffffffffffffffffffffffffffffffa0ffffffffffffffffffffffffffffffffffffffffffffffffffffffffffffffffffffffffffffffffffffffffffffffffffffffffffffffffffffffffffffffffffffffffffffffffffffffffffffffffffffffffffffffffffffffffffffffffffffffffffffffffffffffffffffffffffffffffffffffffffffffffffffff97"
            ],
            "gasLimit" : [
                "0x0fdd18",
                "0x015f90",
                "0x01adb0",
                "0x030d40"
            ],
            "gasPrice" : "0x01",
            "nonce" : "0x01",
            "secretKey" : "0x044852b2a670ade5407e78fb2863c51de9fcb96542a07186fe3aeda6bb8a116d",
            "to" : "0xc305c901078781c232a2a521c2af7980f8385ee9",
            "value" : [
                "0x00"
            ]
        }
    }
}