{
    "transactionCosts" : {
        "_info" : {
            "comment" : "Ori Pomerantz qbzzt1@gmail.com",
            "filling-rpc-server" : "evm version 1.10.2-unstable-22082f9e-20210309",
            "filling-tool-version" : "retesteth-0.1.0-accesslist+commit.47c69eb3.Linux.g++",
            "lllcversion" : "Version: 0.5.14-develop.2020.6.22+commit.9189ad7a.Linux.g++",
            "source" : "src/GeneralStateTestsFiller/stEIP2930/transactionCostsFiller.yml",
            "sourceHash" : "0cbf75b8414b81a90fa7345f92b3b1d36fd642e4798def4ac7eaf5141bfb292a",
            "labels" : {
                "0" : ":label type0",
                "1" : ":label addrs_0_keys_0",
                "10" : ":label addrs_1_keys_2",
                "11" : ":label addrs_10_keys_25",
                "2" : ":label addrs_1_keys_0",
                "3" : ":label addrs_1_keys_1",
                "4" : ":label addrs_1_keys_1",
                "5" : ":label addrs_1_keys_1",
                "6" : ":label addrs_1_keys_2",
                "7" : ":label addrs_2_keys_2",
                "8" : ":label addrs_2_keys_2",
                "9" : ":label addrs_2_keys_2"
            }
        },
        "env" : {
            "currentCoinbase" : "0x2adc25665018aa1fe0e6bc666dac8fc2697ff9ba",
            "currentDifficulty" : "0x020000",
            "currentGasLimit" : "0xff112233445566",
            "currentNumber" : "0x01",
            "currentTimestamp" : "0x03e8",
            "previousHash" : "0x5e20a0453cecd065ea59c37ac63e079ee08998b6045136a8ce6635c7912ec0b6"
        },
        "post" : {
            "Berlin" : [
                {
                    "indexes" : {
                        "data" : 0,
                        "gas" : 0,
                        "value" : 0
                    },
                    "hash" : "0x55ca365148aaee4492ff72db2a60b663987fa85b81368d45f8aa2b2fa02fa596",
                    "txbytes" : "0xf863800183061a8094cccccccccccccccccccccccccccccccccccccccc830186a0001ca0c721886959d3e92c88a23c492055a2e5168f4b954851d79309299f5b09bdbc3aa04a1d65ab446ae5e2f39ddd2b297452ccf32f24f874042cf38f5ec349096fe026",
                    "logs" : "0x1dcc4de8dec75d7aab85b567b6ccd41ad312451b948a7413f0a142fd40d49347"
                },
                {
                    "indexes" : {
                        "data" : 1,
                        "gas" : 0,
                        "value" : 0
                    },
                    "hash" : "0x55ca365148aaee4492ff72db2a60b663987fa85b81368d45f8aa2b2fa02fa596",
                    "txbytes" : "0xb86801f86501800183061a8094cccccccccccccccccccccccccccccccccccccccc830186a000c080a0162c4096da010b3074b99b01a39c164a8fbd1f49678f6c0eb7db3680c37db77aa0270223be53316716e0b13b419926fd316189b2a175ffa925822d061a40ef66fc",
                    "logs" : "0x1dcc4de8dec75d7aab85b567b6ccd41ad312451b948a7413f0a142fd40d49347"
                },
                {
                    "indexes" : {
                        "data" : 2,
                        "gas" : 0,
                        "value" : 0
                    },
                    "hash" : "0x05c9134cbefec68f18d71b69ecb7b8c3ed72dab21af198f9835a42e1cb21fd28",
                    "txbytes" : "0xb87f01f87c01800183061a8094cccccccccccccccccccccccccccccccccccccccc830186a000d7d6940000000000000000000000000000000000000102c080a0324927a2efe2344923a98a573125c7d03a001aae19196629a158d4d22f01381ba03e714efd5d85b7fa478d0b9d62b613c97bb0a60dc5a20b5100ee2e44b36a8dce",
                    "logs" : "0x1dcc4de8dec75d7aab85b567b6ccd41ad312451b948a7413f0a142fd40d49347"
                },
                {
                    "indexes" : {
                        "data" : 3,
                        "gas" : 0,
                        "value" : 0
                    },
                    "hash" : "0x6e97a015ba055be91c8da3eca1e10be6b731968ef6c4ce5e3247f00446cb84f7",
                    "txbytes" : "0xb8a101f89e01800183061a8094cccccccccccccccccccccccccccccccccccccccc830186a000f838f7940000000000000000000000000000000000000101e1a0000000000000000000000000000000000000000000000000000000000000000080a0d5b7ef5714066211de196e6372b3fd54daf0705d0cc9996b636b5c68a6ec0a26a01f2e16cae42249c41ec146af53af5cc01b2f297a2ec5186a21860d23ef1a640f",
                    "logs" : "0x1dcc4de8dec75d7aab85b567b6ccd41ad312451b948a7413f0a142fd40d49347"
                },
                {
                    "indexes" : {
                        "data" : 4,
                        "gas" : 0,
                        "value" : 0
                    },
                    "hash" : "0x6e97a015ba055be91c8da3eca1e10be6b731968ef6c4ce5e3247f00446cb84f7",
                    "txbytes" : "0xb8a101f89e01800183061a8094cccccccccccccccccccccccccccccccccccccccc830186a000f838f794ff00000000000000000000000000000000000101e1a0000000000000000000000000000000000000000000000000000000000000000080a0d0e5b1944d711c2baf6b4b5167cb8b78b77798afa96cad7b975c46f2a92a13e0a044dda6b671376bb4d5af1abd7a5a910ed78e287a33ec72321a1eefa32608cdee",
                    "logs" : "0x1dcc4de8dec75d7aab85b567b6ccd41ad312451b948a7413f0a142fd40d49347"
                },
                {
                    "indexes" : {
                        "data" : 5,
                        "gas" : 0,
                        "value" : 0
                    },
                    "hash" : "0x6e97a015ba055be91c8da3eca1e10be6b731968ef6c4ce5e3247f00446cb84f7",
                    "txbytes" : "0xb8a101f89e01800183061a8094cccccccccccccccccccccccccccccccccccccccc830186a000f838f794ff00000000000000000000000000000000000101e1a0000000000000000000000000000000000000000fffffffffffffffffffffffff80a0761457733d194dfe5731636dcf2adf009ae86a2b5f3e8e478470f814deebe2aca01c1580a42930e55709e881d39978048f7d572e0fe785549eae09b46796a7eb1b",
                    "logs" : "0x1dcc4de8dec75d7aab85b567b6ccd41ad312451b948a7413f0a142fd40d49347"
                },
                {
                    "indexes" : {
                        "data" : 6,
                        "gas" : 0,
                        "value" : 0
                    },
                    "hash" : "0x8c276817f8acb7b66a4d309155567a0cf893f2994007c642d0506156d6b4dc18",
                    "txbytes" : "0xb8c401f8c101800183061a8094cccccccccccccccccccccccccccccccccccccccc830186a000f85bf859940000000000000000000000000000000000000101f842a00000000000000000000000000000000000000000000000000000000000000000a0000000000000000000000000000000000000000000000000000000000000000180a013a7c4e234a007e7da37c948736a82eff7b264441a28ef7b3dbd53d38fef82eaa0476569fc80ca41c22650b0a0310eefd8469214a0862707bea67a2fc9b77759c2",
                    "logs" : "0x1dcc4de8dec75d7aab85b567b6ccd41ad312451b948a7413f0a142fd40d49347"
                },
                {
                    "indexes" : {
                        "data" : 10,
                        "gas" : 0,
                        "value" : 0
                    },
                    "hash" : "0x8c276817f8acb7b66a4d309155567a0cf893f2994007c642d0506156d6b4dc18",
                    "txbytes" : "0xb8c401f8c101800183061a8094cccccccccccccccccccccccccccccccccccccccc830186a000f85bf859940000000000000000000000000000000000000101f842a00000000000000000000000000000000000000000000000000000000000000000a0000000000000000000000000000000000000000000000000000000000000000080a0be40bde641119e0a1a2e04a74426f02d6f1e41d92ea84a5137906a1402d3e74fa04a16a2d5ba5558cef7733843b4a8631b91de79efd846ef8f3738da16b02c3be7",
                    "logs" : "0x1dcc4de8dec75d7aab85b567b6ccd41ad312451b948a7413f0a142fd40d49347"
                },
                {
                    "indexes" : {
                        "data" : 7,
                        "gas" : 0,
                        "value" : 0
                    },
                    "hash" : "0x6e4d962d95b735d923e907ed077d896a215a04e9b0a7536774d191b7ef5981e2",
                    "txbytes" : "0xb8d901f8d601800183061a8094cccccccccccccccccccccccccccccccccccccccc830186a000f870f7940000000000000000000000000000000000000101e1a00000000000000000000000000000000000000000000000000000000000000000f7940000000000000000000000000000000000000102e1a0000000000000000000000000000000000000000000000000000000000000000180a010bc8ac58d75ea362b08ba00d1bc57ec4bc082672207b1feddd5d94a9972d2bfa04e01ac4ef349478850611feee1fbae91478a1d08b65e2395a1ef6dbbb3794d98",
                    "logs" : "0x1dcc4de8dec75d7aab85b567b6ccd41ad312451b948a7413f0a142fd40d49347"
                },
                {
                    "indexes" : {
                        "data" : 8,
                        "gas" : 0,
                        "value" : 0
                    },
                    "hash" : "0x6e4d962d95b735d923e907ed077d896a215a04e9b0a7536774d191b7ef5981e2",
                    "txbytes" : "0xb8d901f8d601800183061a8094cccccccccccccccccccccccccccccccccccccccc830186a000f870f7940000000000000000000000000000000000000101e1a00000000000000000000000000000000000000000000000000000000000000000f7940000000000000000000000000000000000000101e1a0000000000000000000000000000000000000000000000000000000000000000180a00ae7d1215e4226dd02e960354b4a4a86b54f22858d0ffb9191b5499ac8178711a0546ef494eeabdc4a64ff08494392a8eefacd0719c759ec683f0f2bb17a281781",
                    "logs" : "0x1dcc4de8dec75d7aab85b567b6ccd41ad312451b948a7413f0a142fd40d49347"
                },
                {
                    "indexes" : {
                        "data" : 9,
                        "gas" : 0,
                        "value" : 0
                    },
                    "hash" : "0x6e4d962d95b735d923e907ed077d896a215a04e9b0a7536774d191b7ef5981e2",
                    "txbytes" : "0xb8d901f8d601800183061a8094cccccccccccccccccccccccccccccccccccccccc830186a000f870f7940000000000000000000000000000000000000101e1a00000000000000000000000000000000000000000000000000000000000000000f7940000000000000000000000000000000000000101e1a0000000000000000000000000000000000000000000000000000000000000000001a094b24e7ddd6cb8cf4ba91eb9c9179f70d89c6f3d06387a71fa739c9cb88f0fdba0580f137eb57793bef26bd78e40f494c90e7b0a5b5d53275130d991d812335f60",
                    "logs" : "0x1dcc4de8dec75d7aab85b567b6ccd41ad312451b948a7413f0a142fd40d49347"
                },
                {
                    "indexes" : {
                        "data" : 11,
                        "gas" : 0,
                        "value" : 0
                    },
                    "hash" : "0x7d73f7d123ff5f61cd3fb6898f763eac194c4dee8e1a84f898341e9cee54ac13",
                    "txbytes" : "0xb9049c01f9049801800183061a8094cccccccccccccccccccccccccccccccccccccccc830186a000f90431f87a940000000000000000000000000000000000000100f863a00000000000000000000000000000000000000000000000000000000000000000a00000000000000000000000000000000000000000000000000000000000000010a00000000000000000000000000000000000000000000000000ffffffffffffffff859940000000000000000000000000000000000000101f842a00000000000000000000000000000000000000000000000000000000000000000a00000000000000000000000000000000000000000000000000000000000000010f87a940000000000000000000000000000000000000102f863a00000000000000000000000000000000000000000000000000000000000000000a00000000000000000000000000000000000000000000000000000000000000010a00000000000000000000000000000000000000000000000000ffffffffffffffff859940000000000000000000000000000000000000103f842a00000000000000000000000000000000000000000000000000000000000000000a00000000000000000000000000000000000000000000000000000000000000010f87a940000000000000000000000000000000000000104f863a00000000000000000000000000000000000000000000000000000000000000000a00000000000000000000000000000000000000000000000000000000000000010a00000000000000000000000000000000000000000000000000ffffffffffffffff8bc940000000000000000000000000000000000000105f8a5a00000000000000000000000000000000000000000000000000000000000000000a00000000000000000000000000000000000000000000000000000000000000010a00000000000000000000000000000000000000000000000000000000000001111a00000000000000000000000000000000000000000000000000000000000002222a00000000000000000000000000000000000000000000000000000000000003333d6940000000000000000000000000000000000000106c0f859940000000000000000000000000000000000000107f842a00000000000000000000000000000000000000000000000000000000000000000a00000000000000000000000000000000000000000000000000000000000000010f87a940000000000000000000000000000000000000108f863a00000000000000000000000000000000000000000000000000000000000000000a00000000000000000000000000000000000000000000000000000000000000010a00000000000000000000000000000000000000000000000000ffffffffffffffff859940000000000000000000000000000000000000109f842a00000000000000000000000000000000000000000000000000000000000000000a0000000000000000000000000000000000000000000000000000000000000001001a0bad4487255e0693ea2cbb61b26606fb9d04029d0d2855d5a80a3f43c1ca28bc7a026c349aba35639ae10301b44850843e6d7569721e7a3799bda7e03d734ae3974",
                    "logs" : "0x1dcc4de8dec75d7aab85b567b6ccd41ad312451b948a7413f0a142fd40d49347"
                }
            ]
        },
        "pre" : {
            "0xa94f5374fce5edbc8e2a8697c15331677e6ebf0b" : {
                "balance" : "0x05f7b9ac",
                "code" : "0x",
                "nonce" : "0x00",
                "storage" : {
                }
            },
            "0xcccccccccccccccccccccccccccccccccccccccc" : {
                "balance" : "0x0ba1a9ce0ba1a9ce",
                "code" : "0x00",
                "nonce" : "0x00",
                "storage" : {
                }
            }
        },
        "transaction" : {
            "data" : [
                "0x00",
                "0x00",
                "0x00",
                "0x00",
                "0x00",
                "0x00",
                "0x00",
                "0x00",
                "0x00",
                "0x00",
                "0x00",
                "0x00"
            ],
            "accessLists" : [
                null,
                [
                ],
                [
                    {
                        "address" : "0x0000000000000000000000000000000000000102",
                        "storageKeys" : [
                        ]
                    }
                ],
                [
                    {
                        "address" : "0x0000000000000000000000000000000000000101",
                        "storageKeys" : [
                            "0x0000000000000000000000000000000000000000000000000000000000000000"
                        ]
                    }
                ],
                [
                    {
                        "address" : "0xff00000000000000000000000000000000000101",
                        "storageKeys" : [
                            "0x0000000000000000000000000000000000000000000000000000000000000000"
                        ]
                    }
                ],
                [
                    {
                        "address" : "0xff00000000000000000000000000000000000101",
                        "storageKeys" : [
                            "0x000000000000000000000000000000000000000fffffffffffffffffffffffff"
                        ]
                    }
                ],
                [
                    {
                        "address" : "0x0000000000000000000000000000000000000101",
                        "storageKeys" : [
                            "0x0000000000000000000000000000000000000000000000000000000000000000",
                            "0x0000000000000000000000000000000000000000000000000000000000000001"
                        ]
                    }
                ],
                [
                    {
                        "address" : "0x0000000000000000000000000000000000000101",
                        "storageKeys" : [
                            "0x0000000000000000000000000000000000000000000000000000000000000000"
                        ]
                    },
                    {
                        "address" : "0x0000000000000000000000000000000000000102",
                        "storageKeys" : [
                            "0x0000000000000000000000000000000000000000000000000000000000000001"
                        ]
                    }
                ],
                [
                    {
                        "address" : "0x0000000000000000000000000000000000000101",
                        "storageKeys" : [
                            "0x0000000000000000000000000000000000000000000000000000000000000000"
                        ]
                    },
                    {
                        "address" : "0x0000000000000000000000000000000000000101",
                        "storageKeys" : [
                            "0x0000000000000000000000000000000000000000000000000000000000000001"
                        ]
                    }
                ],
                [
                    {
                        "address" : "0x0000000000000000000000000000000000000101",
                        "storageKeys" : [
                            "0x0000000000000000000000000000000000000000000000000000000000000000"
                        ]
                    },
                    {
                        "address" : "0x0000000000000000000000000000000000000101",
                        "storageKeys" : [
                            "0x0000000000000000000000000000000000000000000000000000000000000000"
                        ]
                    }
                ],
                [
                    {
                        "address" : "0x0000000000000000000000000000000000000101",
                        "storageKeys" : [
                            "0x0000000000000000000000000000000000000000000000000000000000000000",
                            "0x0000000000000000000000000000000000000000000000000000000000000000"
                        ]
                    }
                ],
                [
                    {
                        "address" : "0x0000000000000000000000000000000000000100",
                        "storageKeys" : [
                            "0x0000000000000000000000000000000000000000000000000000000000000000",
                            "0x0000000000000000000000000000000000000000000000000000000000000010",
                            "0x0000000000000000000000000000000000000000000000000fffffffffffffff"
                        ]
                    },
                    {
                        "address" : "0x0000000000000000000000000000000000000101",
                        "storageKeys" : [
                            "0x0000000000000000000000000000000000000000000000000000000000000000",
                            "0x0000000000000000000000000000000000000000000000000000000000000010"
                        ]
                    },
                    {
                        "address" : "0x0000000000000000000000000000000000000102",
                        "storageKeys" : [
                            "0x0000000000000000000000000000000000000000000000000000000000000000",
                            "0x0000000000000000000000000000000000000000000000000000000000000010",
                            "0x0000000000000000000000000000000000000000000000000fffffffffffffff"
                        ]
                    },
                    {
                        "address" : "0x0000000000000000000000000000000000000103",
                        "storageKeys" : [
                            "0x0000000000000000000000000000000000000000000000000000000000000000",
                            "0x0000000000000000000000000000000000000000000000000000000000000010"
                        ]
                    },
                    {
                        "address" : "0x0000000000000000000000000000000000000104",
                        "storageKeys" : [
                            "0x0000000000000000000000000000000000000000000000000000000000000000",
                            "0x0000000000000000000000000000000000000000000000000000000000000010",
                            "0x0000000000000000000000000000000000000000000000000fffffffffffffff"
                        ]
                    },
                    {
                        "address" : "0x0000000000000000000000000000000000000105",
                        "storageKeys" : [
                            "0x0000000000000000000000000000000000000000000000000000000000000000",
                            "0x0000000000000000000000000000000000000000000000000000000000000010",
                            "0x0000000000000000000000000000000000000000000000000000000000001111",
                            "0x0000000000000000000000000000000000000000000000000000000000002222",
                            "0x0000000000000000000000000000000000000000000000000000000000003333"
                        ]
                    },
                    {
                        "address" : "0x0000000000000000000000000000000000000106",
                        "storageKeys" : [
                        ]
                    },
                    {
                        "address" : "0x0000000000000000000000000000000000000107",
                        "storageKeys" : [
                            "0x0000000000000000000000000000000000000000000000000000000000000000",
                            "0x0000000000000000000000000000000000000000000000000000000000000010"
                        ]
                    },
                    {
                        "address" : "0x0000000000000000000000000000000000000108",
                        "storageKeys" : [
                            "0x0000000000000000000000000000000000000000000000000000000000000000",
                            "0x0000000000000000000000000000000000000000000000000000000000000010",
                            "0x0000000000000000000000000000000000000000000000000fffffffffffffff"
                        ]
                    },
                    {
                        "address" : "0x0000000000000000000000000000000000000109",
                        "storageKeys" : [
                            "0x0000000000000000000000000000000000000000000000000000000000000000",
                            "0x0000000000000000000000000000000000000000000000000000000000000010"
                        ]
                    }
                ]
            ],
            "gasLimit" : [
                "0x061a80"
            ],
            "gasPrice" : "0x01",
            "nonce" : "0x00",
            "secretKey" : "0x45a915e4d060149eb4365960e6a7a45f334393093061116b197e3240065ff2d8",
            "to" : "0xcccccccccccccccccccccccccccccccccccccccc",
            "value" : [
                "0x0186a0"
            ]
        }
    }
}