{
    "RawCallGasValueTransfer" : {
        "_info" : {
            "comment" : "",
            "filling-rpc-server" : "evm version 1.13.5-unstable-cd295356-20231019",
            "filling-tool-version" : "retesteth-0.3.1-cancun+commit.1e18e0b3.Linux.g++",
            "generatedTestHash" : "dc0274ff08a32a3ff1ea182f1ea44c0878b8254236fd50eb226af76a298cb042",
            "lllcversion" : "Version: 0.5.14-develop.2023.7.11+commit.c58ab2c6.mod.Linux.g++",
            "solidity" : "Version: 0.8.21+commit.d9974bed.Linux.g++",
            "source" : "src/GeneralStateTestsFiller/stEIP150singleCodeGasPrices/RawCallGasValueTransferFiller.json",
            "sourceHash" : "7538d2bf7d7c82aaf54d60b5f071459ed263d3fc66b22e217faa2d3d9fcb6d5a"
        },
        "env" : {
            "currentBaseFee" : "0x0a",
            "currentBeaconRoot" : "0x0000000000000000000000000000000000000000000000000000000000000000",
            "currentCoinbase" : "0x2adc25665018aa1fe0e6bc666dac8fc2697ff9ba",
            "currentDifficulty" : "0x020000",
            "currentGasLimit" : "0x989680",
            "currentNumber" : "0x01",
            "currentRandom" : "0x0000000000000000000000000000000000000000000000000000000000020000",
            "currentTimestamp" : "0x03e8",
            "currentWithdrawalsRoot" : "0x56e81f171bcc55a6ff8345e692c0f86e5b48e01b996cadc001622fb5e363b421",
            "previousHash" : "0x5e20a0453cecd065ea59c37ac63e079ee08998b6045136a8ce6635c7912ec0b6"
        },
        "post" : {
            "Berlin" : [
                {
                    "hash" : "0x231be7c5a62e8af5009c4acb1c1a98edd010e094a3c6d0260ef9135d4b692a0e",
                    "indexes" : {
                        "data" : 0,
                        "gas" : 0,
                        "value" : 0
                    },
                    "logs" : "0x1dcc4de8dec75d7aab85b567b6ccd41ad312451b948a7413f0a142fd40d49347",
                    "txbytes" : "0xf860800a8307a12094b94f5374fce5edbc8e2a8697c15331677e6ebf0b0a801ba0fb35c05d1d179aeeff9c12ca66f64b951bd1a1e6b2e8fd598d1ca177ac864ab8a0594406f2277897478d246b26b04bb589a5ed05944a22f904a29742f962ac8b5e"
                }
            ],
            "Cancun" : [
                {
                    "hash" : "0x58bea6abb8668d3645bc62f56267b4dfceb489b0f0fb13e35486801e4643f151",
                    "indexes" : {
                        "data" : 0,
                        "gas" : 0,
                        "value" : 0
                    },
                    "logs" : "0x1dcc4de8dec75d7aab85b567b6ccd41ad312451b948a7413f0a142fd40d49347",
                    "txbytes" : "0xf860800a8307a12094b94f5374fce5edbc8e2a8697c15331677e6ebf0b0a801ba0fb35c05d1d179aeeff9c12ca66f64b951bd1a1e6b2e8fd598d1ca177ac864ab8a0594406f2277897478d246b26b04bb589a5ed05944a22f904a29742f962ac8b5e"
                }
            ],
            "Istanbul" : [
                {
                    "hash" : "0xdc3c13b22b04d0ea3a55902b8141767f0de63ae371df1e2cd66cff3e7695d5a3",
                    "indexes" : {
                        "data" : 0,
                        "gas" : 0,
                        "value" : 0
                    },
                    "logs" : "0x1dcc4de8dec75d7aab85b567b6ccd41ad312451b948a7413f0a142fd40d49347",
                    "txbytes" : "0xf860800a8307a12094b94f5374fce5edbc8e2a8697c15331677e6ebf0b0a801ba0fb35c05d1d179aeeff9c12ca66f64b951bd1a1e6b2e8fd598d1ca177ac864ab8a0594406f2277897478d246b26b04bb589a5ed05944a22f904a29742f962ac8b5e"
                }
            ],
            "London" : [
                {
                    "hash" : "0x58bea6abb8668d3645bc62f56267b4dfceb489b0f0fb13e35486801e4643f151",
                    "indexes" : {
                        "data" : 0,
                        "gas" : 0,
                        "value" : 0
                    },
                    "logs" : "0x1dcc4de8dec75d7aab85b567b6ccd41ad312451b948a7413f0a142fd40d49347",
                    "txbytes" : "0xf860800a8307a12094b94f5374fce5edbc8e2a8697c15331677e6ebf0b0a801ba0fb35c05d1d179aeeff9c12ca66f64b951bd1a1e6b2e8fd598d1ca177ac864ab8a0594406f2277897478d246b26b04bb589a5ed05944a22f904a29742f962ac8b5e"
                }
            ],
            "Merge" : [
                {
                    "hash" : "0x58bea6abb8668d3645bc62f56267b4dfceb489b0f0fb13e35486801e4643f151",
                    "indexes" : {
                        "data" : 0,
                        "gas" : 0,
                        "value" : 0
                    },
                    "logs" : "0x1dcc4de8dec75d7aab85b567b6ccd41ad312451b948a7413f0a142fd40d49347",
                    "txbytes" : "0xf860800a8307a12094b94f5374fce5edbc8e2a8697c15331677e6ebf0b0a801ba0fb35c05d1d179aeeff9c12ca66f64b951bd1a1e6b2e8fd598d1ca177ac864ab8a0594406f2277897478d246b26b04bb589a5ed05944a22f904a29742f962ac8b5e"
                }
            ],
            "Shanghai" : [
                {
                    "hash" : "0x58bea6abb8668d3645bc62f56267b4dfceb489b0f0fb13e35486801e4643f151",
                    "indexes" : {
                        "data" : 0,
                        "gas" : 0,
                        "value" : 0
                    },
                    "logs" : "0x1dcc4de8dec75d7aab85b567b6ccd41ad312451b948a7413f0a142fd40d49347",
                    "txbytes" : "0xf860800a8307a12094b94f5374fce5edbc8e2a8697c15331677e6ebf0b0a801ba0fb35c05d1d179aeeff9c12ca66f64b951bd1a1e6b2e8fd598d1ca177ac864ab8a0594406f2277897478d246b26b04bb589a5ed05944a22f904a29742f962ac8b5e"
                }
            ]
        },
        "pre" : {
            "0x094f5374fce5edbc8e2a8697c15331677e6ebf0b" : {
                "balance" : "0x00",
                "code" : "0x5a60025500",
                "nonce" : "0x00",
                "storage" : {
                }
            },
            "0xa94f5374fce5edbc8e2a8697c15331677e6ebf0b" : {
                "balance" : "0xe8d4a51000",
                "code" : "0x",
                "nonce" : "0x00",
                "storage" : {
                }
            },
            "0xb94f5374fce5edbc8e2a8697c15331677e6ebf0b" : {
                "balance" : "0x00",
                "code" : "0x5a6000526000600060006000600a73094f5374fce5edbc8e2a8697c15331677e6ebf0b617530f1505a6000510360015500",
                "nonce" : "0x00",
                "storage" : {
                }
            }
        },
        "transaction" : {
            "data" : [
                "0x"
            ],
            "gasLimit" : [
                "0x07a120"
            ],
            "gasPrice" : "0x0a",
            "nonce" : "0x00",
            "secretKey" : "0x45a915e4d060149eb4365960e6a7a45f334393093061116b197e3240065ff2d8",
            "sender" : "0xa94f5374fce5edbc8e2a8697c15331677e6ebf0b",
            "to" : "0xb94f5374fce5edbc8e2a8697c15331677e6ebf0b",
            "value" : [
                "0x0a"
            ]
        }
    }
}