{
    "01_tloadBeginningTxn_d0g0v0_Cancun" : {
        "_info" : {
            "comment" : "load arbitrary value is 0 at beginning of transaction",
            "filling-rpc-server" : "Nimbus-t8n 0.1.2",
            "filling-tool-version" : "retesteth-0.3.1-shanghai+commit.31d6e9d8.Linux.g++",
            "generatedTestHash" : "025cb9ed1e0ac2521091871105f035ad6a86e86bd7e3c97b417dc50668aa68a3",
            "lllcversion" : "Version: 0.5.14-develop.2023.5.21+commit.a096d7a9.mod.Linux.g++",
            "solidity" : "Version: 0.8.17+commit.8df45f5f.Linux.g++",
            "source" : "src/EIPTestsFiller/StateTests/stEIP1153-transientStorage/01_tloadBeginningTxnFiller.yml",
            "sourceHash" : "ae5ae058195a033cd9dfd081a9255cd78d52a4f2931c084e62709aab92046a31"
        },
        "blocks" : [
            {
                "blockHeader" : {
                    "baseFeePerGas" : "0x0a",
                    "bloom" : "0x00000000000000000000000000000000000000000000000000000000000000000000000000000000000000000000000000000000000000000000000000000000000000000000000000000000000000000000000000000000000000000000000000000000000000000000000000000000000000000000000000000000000000000000000000000000000000000000000000000000000000000000000000000000000000000000000000000000000000000000000000000000000000000000000000000000000000000000000000000000000000000000000000000000000000000000000000000000000000000000000000000000000000000000000000000000",
                    "coinbase" : "0x2adc25665018aa1fe0e6bc666dac8fc2697ff9ba",
                    "dataGasUsed" : "0x00",
                    "difficulty" : "0x00",
                    "excessDataGas" : "0x00",
                    "extraData" : "0x00",
                    "gasLimit" : "0x10000000000000",
                    "gasUsed" : "0x533f",
                    "hash" : "0xc2de18eecde5a574094547e014e1935344a4c8672c52c7d117a2cdc5d88d9718",
                    "mixHash" : "0x0000000000000000000000000000000000000000000000000000000000020000",
                    "nonce" : "0x0000000000000000",
                    "number" : "0x01",
                    "parentHash" : "0x15b24290594fddeb861b11d98258cda9e921bdbb24c73a16494a8f32b7893a79",
                    "receiptTrie" : "0xee87ca54eb8421ce6e9288524fc9ed1f24afa005566eb11f86c4bbf6148d9209",
                    "stateRoot" : "0x26f10b85f04a6cbf81e36751c4b4ccd610006de6efa317d430aad1910a1b7bc1",
                    "timestamp" : "0x03e8",
                    "transactionsTrie" : "0xf2083e2df96ed07133b03a55293a5308fe74438c3a3917315c6957c443ce949f",
                    "uncleHash" : "0x1dcc4de8dec75d7aab85b567b6ccd41ad312451b948a7413f0a142fd40d49347",
                    "withdrawalsRoot" : "0x56e81f171bcc55a6ff8345e692c0f86e5b48e01b996cadc001622fb5e363b421"
                },
                "rlp" : "0xf90291f9021ca015b24290594fddeb861b11d98258cda9e921bdbb24c73a16494a8f32b7893a79a01dcc4de8dec75d7aab85b567b6ccd41ad312451b948a7413f0a142fd40d49347942adc25665018aa1fe0e6bc666dac8fc2697ff9baa026f10b85f04a6cbf81e36751c4b4ccd610006de6efa317d430aad1910a1b7bc1a0f2083e2df96ed07133b03a55293a5308fe74438c3a3917315c6957c443ce949fa0ee87ca54eb8421ce6e9288524fc9ed1f24afa005566eb11f86c4bbf6148d9209b90100000000000000000000000000000000000000000000000000000000000000000000000000000000000000000000000000000000000000000000000000000000000000000000000000000000000000000000000000000000000000000000000000000000000000000000000000000000000000000000000000000000000000000000000000000000000000000000000000000000000000000000000000000000000000000000000000000000000000000000000000000000000000000000000000000000000000000000000000000000000000000000000000000000000000000000000000000000000000000000000000000000000000000000000000000000008001871000000000000082533f8203e800a000000000000000000000000000000000000000000000000000000000000200008800000000000000000aa056e81f171bcc55a6ff8345e692c0f86e5b48e01b996cadc001622fb5e363b4218080f86eb86c02f8690180808207d0871000000000000094000000000000000000000000000000000000000a8080c001a0371c3eaf9c37702b54b3c60b876db06cb3b1696aad73a1c75e69f5ec6be3b948a01bca3cd059fd1a07106a68a75a6deca879c6d9aecda55a68bcb0163c67b7e787c0c0",
                "transactions" : [
                    {
                        "accessList" : [
                        ],
                        "chainId" : "0x01",
                        "data" : "0x",
                        "gasLimit" : "0x10000000000000",
                        "maxFeePerGas" : "0x07d0",
                        "maxPriorityFeePerGas" : "0x00",
                        "nonce" : "0x00",
                        "r" : "0x371c3eaf9c37702b54b3c60b876db06cb3b1696aad73a1c75e69f5ec6be3b948",
                        "s" : "0x1bca3cd059fd1a07106a68a75a6deca879c6d9aecda55a68bcb0163c67b7e787",
                        "sender" : "0xa94f5374fce5edbc8e2a8697c15331677e6ebf0b",
                        "to" : "0x000000000000000000000000000000000000000a",
                        "type" : "0x02",
                        "v" : "0x01",
                        "value" : "0x00"
                    }
                ],
                "uncleHeaders" : [
                ],
                "withdrawals" : [
                ]
            }
        ],
        "genesisBlockHeader" : {
            "baseFeePerGas" : "0x0b",
            "bloom" : "0x00000000000000000000000000000000000000000000000000000000000000000000000000000000000000000000000000000000000000000000000000000000000000000000000000000000000000000000000000000000000000000000000000000000000000000000000000000000000000000000000000000000000000000000000000000000000000000000000000000000000000000000000000000000000000000000000000000000000000000000000000000000000000000000000000000000000000000000000000000000000000000000000000000000000000000000000000000000000000000000000000000000000000000000000000000000",
            "coinbase" : "0x2adc25665018aa1fe0e6bc666dac8fc2697ff9ba",
            "dataGasUsed" : "0x00",
            "difficulty" : "0x00",
            "excessDataGas" : "0x00",
            "extraData" : "0x00",
            "gasLimit" : "0x10000000000000",
            "gasUsed" : "0x00",
            "hash" : "0x15b24290594fddeb861b11d98258cda9e921bdbb24c73a16494a8f32b7893a79",
            "mixHash" : "0x0000000000000000000000000000000000000000000000000000000000020000",
            "nonce" : "0x0000000000000000",
            "number" : "0x00",
            "parentHash" : "0x0000000000000000000000000000000000000000000000000000000000000000",
            "receiptTrie" : "0x56e81f171bcc55a6ff8345e692c0f86e5b48e01b996cadc001622fb5e363b421",
            "stateRoot" : "0x0006c4da546cd18838b72fc3211e7159c537e1a5e2ff0614321cc09720adc9e2",
            "timestamp" : "0x00",
            "transactionsTrie" : "0x56e81f171bcc55a6ff8345e692c0f86e5b48e01b996cadc001622fb5e363b421",
            "uncleHash" : "0x1dcc4de8dec75d7aab85b567b6ccd41ad312451b948a7413f0a142fd40d49347",
            "withdrawalsRoot" : "0x56e81f171bcc55a6ff8345e692c0f86e5b48e01b996cadc001622fb5e363b421"
        },
        "genesisRLP" : "0xf9021ef90218a00000000000000000000000000000000000000000000000000000000000000000a01dcc4de8dec75d7aab85b567b6ccd41ad312451b948a7413f0a142fd40d49347942adc25665018aa1fe0e6bc666dac8fc2697ff9baa00006c4da546cd18838b72fc3211e7159c537e1a5e2ff0614321cc09720adc9e2a056e81f171bcc55a6ff8345e692c0f86e5b48e01b996cadc001622fb5e363b421a056e81f171bcc55a6ff8345e692c0f86e5b48e01b996cadc001622fb5e363b421b901000000000000000000000000000000000000000000000000000000000000000000000000000000000000000000000000000000000000000000000000000000000000000000000000000000000000000000000000000000000000000000000000000000000000000000000000000000000000000000000000000000000000000000000000000000000000000000000000000000000000000000000000000000000000000000000000000000000000000000000000000000000000000000000000000000000000000000000000000000000000000000000000000000000000000000000000000000000000000000000000000000000000000000000000000000000080808710000000000000808000a000000000000000000000000000000000000000000000000000000000000200008800000000000000000ba056e81f171bcc55a6ff8345e692c0f86e5b48e01b996cadc001622fb5e363b4218080c0c0c0",
        "lastblockhash" : "0xc2de18eecde5a574094547e014e1935344a4c8672c52c7d117a2cdc5d88d9718",
        "network" : "Cancun",
        "postState" : {
            "0x000000000000000000000000000000000000000a" : {
                "balance" : "0x0de0b6b3a7640000",
                "code" : "0x60005c8060015550",
                "nonce" : "0x00",
                "storage" : {
                }
            },
            "0xa94f5374fce5edbc8e2a8697c15331677e6ebf0b" : {
                "balance" : "0x3635c9adc5de9cbf8a",
                "code" : "0x",
                "nonce" : "0x01",
                "storage" : {
                }
            }
        },
        "pre" : {
            "0x000000000000000000000000000000000000000a" : {
                "balance" : "0x0de0b6b3a7640000",
                "code" : "0x60005c8060015550",
                "nonce" : "0x00",
                "storage" : {
                    "0x01" : "0xffff"
                }
            },
            "0xa94f5374fce5edbc8e2a8697c15331677e6ebf0b" : {
                "balance" : "0x3635c9adc5dea00000",
                "code" : "0x",
                "nonce" : "0x00",
                "storage" : {
                }
            }
        },
        "sealEngine" : "NoProof"
    }
}