{
    "02_tloadAfterTstore_d0g0v0_Cancun" : {
        "_info" : {
            "comment" : "tload from same slot after tstore returns correct value",
            "filling-rpc-server" : "Nimbus-t8n 0.1.2",
            "filling-tool-version" : "retesteth-0.3.1-shanghai+commit.31d6e9d8.Linux.g++",
            "generatedTestHash" : "142ee90bd649700ab6885b9543089b0a221d6282829f87c7f0b316d3e7a54b7a",
            "lllcversion" : "Version: 0.5.14-develop.2023.5.21+commit.a096d7a9.mod.Linux.g++",
            "solidity" : "Version: 0.8.17+commit.8df45f5f.Linux.g++",
            "source" : "src/EIPTestsFiller/StateTests/stEIP1153-transientStorage/02_tloadAfterTstoreFiller.yml",
            "sourceHash" : "e240861875fc785afbbc6478afc2966acdd0709ad3975c124ec4020277a39fbd"
        },
        "blocks" : [
            {
                "blockHeader" : {
                    "baseFeePerGas" : "0x0a",
                    "bloom" : "0x00000000000000000000000000000000000000000000000000000000000000000000000000000000000000000000000000000000000000000000000000000000000000000000000000000000000000000000000000000000000000000000000000000000000000000000000000000000000000000000000000000000000000000000000000000000000000000000000000000000000000000000000000000000000000000000000000000000000000000000000000000000000000000000000000000000000000000000000000000000000000000000000000000000000000000000000000000000000000000000000000000000000000000000000000000000",
                    "coinbase" : "0x2adc25665018aa1fe0e6bc666dac8fc2697ff9ba",
                    "dataGasUsed" : "0x00",
                    "difficulty" : "0x00",
                    "excessDataGas" : "0x00",
                    "extraData" : "0x00",
                    "gasLimit" : "0x10000000000000",
                    "gasUsed" : "0xa935",
                    "hash" : "0x26ae8b5ca01b55dbddb638238868fc18eb1a6a98188c593592ed66f585a699f7",
                    "mixHash" : "0x0000000000000000000000000000000000000000000000000000000000020000",
                    "nonce" : "0x0000000000000000",
                    "number" : "0x01",
                    "parentHash" : "0x031c29692891030ebe718e736dda26d077366c263040059c6c7e2b568d4d895f",
                    "receiptTrie" : "0xdd76720471cb7d558899ec79cbf3e37338d597598f15ae62a741c5df9276c854",
                    "stateRoot" : "0xc9410fb81e0fb905dfb85e3b3e4d7efaceea57a5dd13b36da0831bb4082e8887",
                    "timestamp" : "0x03e8",
                    "transactionsTrie" : "0x20be185f444f32ccc42c3d8e42c2a0f032e6a8ced23178277092c5da3a1fca3e",
                    "uncleHash" : "0x1dcc4de8dec75d7aab85b567b6ccd41ad312451b948a7413f0a142fd40d49347",
                    "withdrawalsRoot" : "0x56e81f171bcc55a6ff8345e692c0f86e5b48e01b996cadc001622fb5e363b421"
                },
                "rlp" : "0xf90291f9021ca0031c29692891030ebe718e736dda26d077366c263040059c6c7e2b568d4d895fa01dcc4de8dec75d7aab85b567b6ccd41ad312451b948a7413f0a142fd40d49347942adc25665018aa1fe0e6bc666dac8fc2697ff9baa0c9410fb81e0fb905dfb85e3b3e4d7efaceea57a5dd13b36da0831bb4082e8887a020be185f444f32ccc42c3d8e42c2a0f032e6a8ced23178277092c5da3a1fca3ea0dd76720471cb7d558899ec79cbf3e37338d597598f15ae62a741c5df9276c854b90100000000000000000000000000000000000000000000000000000000000000000000000000000000000000000000000000000000000000000000000000000000000000000000000000000000000000000000000000000000000000000000000000000000000000000000000000000000000000000000000000000000000000000000000000000000000000000000000000000000000000000000000000000000000000000000000000000000000000000000000000000000000000000000000000000000000000000000000000000000000000000000000000000000000000000000000000000000000000000000000000000000000000000000000000000000008001871000000000000082a9358203e800a000000000000000000000000000000000000000000000000000000000000200008800000000000000000aa056e81f171bcc55a6ff8345e692c0f86e5b48e01b996cadc001622fb5e363b4218080f86eb86c02f869018080820fa0871000000000000094000000000000000000000000000000000000000a8080c001a0265982b28582156178323a10f893819c0198e299d3563732d1ab953071309fa1a00e5e9711949eb422c3d73b15f1a7cdbb1ae105002f6b6b792607803576577e91c0c0",
                "transactions" : [
                    {
                        "accessList" : [
                        ],
                        "chainId" : "0x01",
                        "data" : "0x",
                        "gasLimit" : "0x10000000000000",
                        "maxFeePerGas" : "0x0fa0",
                        "maxPriorityFeePerGas" : "0x00",
                        "nonce" : "0x00",
                        "r" : "0x265982b28582156178323a10f893819c0198e299d3563732d1ab953071309fa1",
                        "s" : "0x0e5e9711949eb422c3d73b15f1a7cdbb1ae105002f6b6b792607803576577e91",
                        "sender" : "0xa94f5374fce5edbc8e2a8697c15331677e6ebf0b",
                        "to" : "0x000000000000000000000000000000000000000a",
                        "type" : "0x02",
                        "v" : "0x01",
                        "value" : "0x00"
                    }
                ],
                "uncleHeaders" : [
                ],
                "withdrawals" : [
                ]
            }
        ],
        "genesisBlockHeader" : {
            "baseFeePerGas" : "0x0b",
            "bloom" : "0x00000000000000000000000000000000000000000000000000000000000000000000000000000000000000000000000000000000000000000000000000000000000000000000000000000000000000000000000000000000000000000000000000000000000000000000000000000000000000000000000000000000000000000000000000000000000000000000000000000000000000000000000000000000000000000000000000000000000000000000000000000000000000000000000000000000000000000000000000000000000000000000000000000000000000000000000000000000000000000000000000000000000000000000000000000000",
            "coinbase" : "0x2adc25665018aa1fe0e6bc666dac8fc2697ff9ba",
            "dataGasUsed" : "0x00",
            "difficulty" : "0x00",
            "excessDataGas" : "0x00",
            "extraData" : "0x00",
            "gasLimit" : "0x10000000000000",
            "gasUsed" : "0x00",
            "hash" : "0x031c29692891030ebe718e736dda26d077366c263040059c6c7e2b568d4d895f",
            "mixHash" : "0x0000000000000000000000000000000000000000000000000000000000020000",
            "nonce" : "0x0000000000000000",
            "number" : "0x00",
            "parentHash" : "0x0000000000000000000000000000000000000000000000000000000000000000",
            "receiptTrie" : "0x56e81f171bcc55a6ff8345e692c0f86e5b48e01b996cadc001622fb5e363b421",
            "stateRoot" : "0x966799c64d8e89438c04239cc475964dcb837dfca567099de81ffe48b9836bc1",
            "timestamp" : "0x00",
            "transactionsTrie" : "0x56e81f171bcc55a6ff8345e692c0f86e5b48e01b996cadc001622fb5e363b421",
            "uncleHash" : "0x1dcc4de8dec75d7aab85b567b6ccd41ad312451b948a7413f0a142fd40d49347",
            "withdrawalsRoot" : "0x56e81f171bcc55a6ff8345e692c0f86e5b48e01b996cadc001622fb5e363b421"
        },
        "genesisRLP" : "0xf9021ef90218a00000000000000000000000000000000000000000000000000000000000000000a01dcc4de8dec75d7aab85b567b6ccd41ad312451b948a7413f0a142fd40d49347942adc25665018aa1fe0e6bc666dac8fc2697ff9baa0966799c64d8e89438c04239cc475964dcb837dfca567099de81ffe48b9836bc1a056e81f171bcc55a6ff8345e692c0f86e5b48e01b996cadc001622fb5e363b421a056e81f171bcc55a6ff8345e692c0f86e5b48e01b996cadc001622fb5e363b421b901000000000000000000000000000000000000000000000000000000000000000000000000000000000000000000000000000000000000000000000000000000000000000000000000000000000000000000000000000000000000000000000000000000000000000000000000000000000000000000000000000000000000000000000000000000000000000000000000000000000000000000000000000000000000000000000000000000000000000000000000000000000000000000000000000000000000000000000000000000000000000000000000000000000000000000000000000000000000000000000000000000000000000000000000000000000080808710000000000000808000a000000000000000000000000000000000000000000000000000000000000200008800000000000000000ba056e81f171bcc55a6ff8345e692c0f86e5b48e01b996cadc001622fb5e363b4218080c0c0c0",
        "lastblockhash" : "0x26ae8b5ca01b55dbddb638238868fc18eb1a6a98188c593592ed66f585a699f7",
        "network" : "Cancun",
        "postState" : {
            "0x000000000000000000000000000000000000000a" : {
                "balance" : "0x0de0b6b3a7640000",
                "code" : "0x605860005d60005c8060015550",
                "nonce" : "0x00",
                "storage" : {
                    "0x01" : "0x58"
                }
            },
            "0xa94f5374fce5edbc8e2a8697c15331677e6ebf0b" : {
                "balance" : "0x3635c9adc5de9963ee",
                "code" : "0x",
                "nonce" : "0x01",
                "storage" : {
                }
            }
        },
        "pre" : {
            "0x000000000000000000000000000000000000000a" : {
                "balance" : "0x0de0b6b3a7640000",
                "code" : "0x605860005d60005c8060015550",
                "nonce" : "0x00",
                "storage" : {
                }
            },
            "0xa94f5374fce5edbc8e2a8697c15331677e6ebf0b" : {
                "balance" : "0x3635c9adc5dea00000",
                "code" : "0x",
                "nonce" : "0x00",
                "storage" : {
                }
            }
        },
        "sealEngine" : "NoProof"
    }
}