{
    "17_tstoreGas_d0g0v0_Cancun" : {
        "_info" : {
            "comment" : "Tstore arbitrary value in arbitrary slot costs 100 gas.",
            "filling-rpc-server" : "evm version 1.12.1-unstable-4c0559f5-20230731",
            "filling-tool-version" : "retesteth-0.3.1-cancun+commit.0f656e9b.Linux.g++",
            "generatedTestHash" : "35e0e9ed9058eaecb927a5b31244c790747c7600c758a7184a2982047cf7dfa3",
            "lllcversion" : "Version: 0.5.14-develop.2023.7.11+commit.c58ab2c6.mod.Linux.g++",
            "solidity" : "Version: 0.8.20+commit.a1b79de6.Linux.g++",
            "source" : "src/EIPTestsFiller/StateTests/stEIP1153-transientStorage/17_tstoreGasFiller.yml",
            "sourceHash" : "a90ebe297788aa077d521d52f04afe067d3578192ccdebbe4282e228dcaa9472"
        },
        "blocks" : [
            {
                "blockHeader" : {
                    "baseFeePerGas" : "0x0a",
                    "parentBeaconBlockRoot" : "0x0000000000000000000000000000000000000000000000000000000000000000",
                    "blobGasUsed" : "0x00",
                    "bloom" : "0x00000000000000000000000000000000000000000000000000000000000000000000000000000000000000000000000000000000000000000000000000000000000000000000000000000000000000000000000000000000000000000000000000000000000000000000000000000000000000000000000000000000000000000000000000000000000000000000000000000000000000000000000000000000000000000000000000000000000000000000000000000000000000000000000000000000000000000000000000000000000000000000000000000000000000000000000000000000000000000000000000000000000000000000000000000000",
                    "coinbase" : "0x2adc25665018aa1fe0e6bc666dac8fc2697ff9ba",
                    "difficulty" : "0x00",
                    "excessBlobGas" : "0x00",
                    "extraData" : "0x00",
                    "gasLimit" : "0x10000000000000",
                    "gasUsed" : "0xa8e4",
                    "hash" : "0xc39eb31d04dbefb227854fe390ee64ea00f3b0f1ec265c430fe79e80d3425b75",
                    "mixHash" : "0x0000000000000000000000000000000000000000000000000000000000020000",
                    "nonce" : "0x0000000000000000",
                    "number" : "0x01",
                    "parentHash" : "0xa7c27d7f788059b3b3b2a723c9020c465a6b5d11a469d8b530e044e10660bb80",
                    "receiptTrie" : "0x8bf47445b4705f77031483aec2c0574600cfa5d4183368b85d393398e0cf4f79",
                    "stateRoot" : "0x6bf2264ce19dd4102cea6970a314841543e984ba9f172f3c8792dfcfa81dfbe3",
                    "timestamp" : "0x03e8",
                    "transactionsTrie" : "0x23691e5c58c111ae0ac392394cede146b3eb0efa5846661606fa7ee4ad8cfaa1",
                    "uncleHash" : "0x1dcc4de8dec75d7aab85b567b6ccd41ad312451b948a7413f0a142fd40d49347",
                    "withdrawalsRoot" : "0x56e81f171bcc55a6ff8345e692c0f86e5b48e01b996cadc001622fb5e363b421"
                },
                "rlp" : "0xf902aef9023da0a7c27d7f788059b3b3b2a723c9020c465a6b5d11a469d8b530e044e10660bb80a01dcc4de8dec75d7aab85b567b6ccd41ad312451b948a7413f0a142fd40d49347942adc25665018aa1fe0e6bc666dac8fc2697ff9baa06bf2264ce19dd4102cea6970a314841543e984ba9f172f3c8792dfcfa81dfbe3a023691e5c58c111ae0ac392394cede146b3eb0efa5846661606fa7ee4ad8cfaa1a08bf47445b4705f77031483aec2c0574600cfa5d4183368b85d393398e0cf4f79b90100000000000000000000000000000000000000000000000000000000000000000000000000000000000000000000000000000000000000000000000000000000000000000000000000000000000000000000000000000000000000000000000000000000000000000000000000000000000000000000000000000000000000000000000000000000000000000000000000000000000000000000000000000000000000000000000000000000000000000000000000000000000000000000000000000000000000000000000000000000000000000000000000000000000000000000000000000000000000000000000000000000000000000000000000000000008001871000000000000082a8e48203e800a000000000000000000000000000000000000000000000000000000000000200008800000000000000000aa056e81f171bcc55a6ff8345e692c0f86e5b48e01b996cadc001622fb5e363b4218080a00000000000000000000000000000000000000000000000000000000000000000f86ab86802f8650180808207d083061a8094a00000000000000000000000000000000000000a8080c080a0eb34938cf59db03479b41a3c3e520a1acdde6b24fe9632bad61ed321f18a5862a02c7e383e3616633f6e5253c56064f29ea377d2b97c80aab328786facc0978cbec0c0",
                "transactions" : [
                    {
                        "accessList" : [
                        ],
                        "chainId" : "0x01",
                        "data" : "0x",
                        "gasLimit" : "0x061a80",
                        "maxFeePerGas" : "0x07d0",
                        "maxPriorityFeePerGas" : "0x00",
                        "nonce" : "0x00",
                        "r" : "0xeb34938cf59db03479b41a3c3e520a1acdde6b24fe9632bad61ed321f18a5862",
                        "s" : "0x2c7e383e3616633f6e5253c56064f29ea377d2b97c80aab328786facc0978cbe",
                        "sender" : "0xa94f5374fce5edbc8e2a8697c15331677e6ebf0b",
                        "to" : "0xa00000000000000000000000000000000000000a",
                        "type" : "0x02",
                        "v" : "0x00",
                        "value" : "0x00"
                    }
                ],
                "uncleHeaders" : [
                ],
                "withdrawals" : [
                ]
            }
        ],
        "genesisBlockHeader" : {
            "baseFeePerGas" : "0x0b",
            "parentBeaconBlockRoot" : "0x0000000000000000000000000000000000000000000000000000000000000000",
            "blobGasUsed" : "0x00",
            "bloom" : "0x00000000000000000000000000000000000000000000000000000000000000000000000000000000000000000000000000000000000000000000000000000000000000000000000000000000000000000000000000000000000000000000000000000000000000000000000000000000000000000000000000000000000000000000000000000000000000000000000000000000000000000000000000000000000000000000000000000000000000000000000000000000000000000000000000000000000000000000000000000000000000000000000000000000000000000000000000000000000000000000000000000000000000000000000000000000",
            "coinbase" : "0x2adc25665018aa1fe0e6bc666dac8fc2697ff9ba",
            "difficulty" : "0x00",
            "excessBlobGas" : "0x00",
            "extraData" : "0x00",
            "gasLimit" : "0x10000000000000",
            "gasUsed" : "0x00",
            "hash" : "0xa7c27d7f788059b3b3b2a723c9020c465a6b5d11a469d8b530e044e10660bb80",
            "mixHash" : "0x0000000000000000000000000000000000000000000000000000000000020000",
            "nonce" : "0x0000000000000000",
            "number" : "0x00",
            "parentHash" : "0x0000000000000000000000000000000000000000000000000000000000000000",
            "receiptTrie" : "0x56e81f171bcc55a6ff8345e692c0f86e5b48e01b996cadc001622fb5e363b421",
            "stateRoot" : "0x4857a0832fb021d6ece1d64250fafbb01fd2dc2e0127d998ed5aa075b6c3c8c4",
            "timestamp" : "0x00",
            "transactionsTrie" : "0x56e81f171bcc55a6ff8345e692c0f86e5b48e01b996cadc001622fb5e363b421",
            "uncleHash" : "0x1dcc4de8dec75d7aab85b567b6ccd41ad312451b948a7413f0a142fd40d49347",
            "withdrawalsRoot" : "0x56e81f171bcc55a6ff8345e692c0f86e5b48e01b996cadc001622fb5e363b421"
        },
        "genesisRLP" : "0xf9023ff90239a00000000000000000000000000000000000000000000000000000000000000000a01dcc4de8dec75d7aab85b567b6ccd41ad312451b948a7413f0a142fd40d49347942adc25665018aa1fe0e6bc666dac8fc2697ff9baa04857a0832fb021d6ece1d64250fafbb01fd2dc2e0127d998ed5aa075b6c3c8c4a056e81f171bcc55a6ff8345e692c0f86e5b48e01b996cadc001622fb5e363b421a056e81f171bcc55a6ff8345e692c0f86e5b48e01b996cadc001622fb5e363b421b901000000000000000000000000000000000000000000000000000000000000000000000000000000000000000000000000000000000000000000000000000000000000000000000000000000000000000000000000000000000000000000000000000000000000000000000000000000000000000000000000000000000000000000000000000000000000000000000000000000000000000000000000000000000000000000000000000000000000000000000000000000000000000000000000000000000000000000000000000000000000000000000000000000000000000000000000000000000000000000000000000000000000000000000000000000000080808710000000000000808000a000000000000000000000000000000000000000000000000000000000000200008800000000000000000ba056e81f171bcc55a6ff8345e692c0f86e5b48e01b996cadc001622fb5e363b4218080a00000000000000000000000000000000000000000000000000000000000000000c0c0c0",
        "lastblockhash" : "0xc39eb31d04dbefb227854fe390ee64ea00f3b0f1ec265c430fe79e80d3425b75",
        "network" : "Cancun",
        "postState" : {
            "0xa00000000000000000000000000000000000000a" : {
                "balance" : "0x0de0b6b3a7640000",
                "code" : "0x60075a60035f5d5a8281830303600155505050",
                "nonce" : "0x00",
                "storage" : {
                    "0x01" : "0x64"
                }
            },
            "0xa94f5374fce5edbc8e2a8697c15331677e6ebf0b" : {
                "balance" : "0x3635c9adc5de996718",
                "code" : "0x",
                "nonce" : "0x01",
                "storage" : {
                }
            }
        },
        "pre" : {
            "0xa00000000000000000000000000000000000000a" : {
                "balance" : "0x0de0b6b3a7640000",
                "code" : "0x60075a60035f5d5a8281830303600155505050",
                "nonce" : "0x00",
                "storage" : {
                }
            },
            "0xa94f5374fce5edbc8e2a8697c15331677e6ebf0b" : {
                "balance" : "0x3635c9adc5dea00000",
                "code" : "0x",
                "nonce" : "0x00",
                "storage" : {
                }
            }
        },
        "sealEngine" : "NoProof"
    }
}