{
    "returndatasize_after_failing_delegatecall_d0g0v0_Berlin" : {
        "_info" : {
            "comment" : "",
            "filling-rpc-server" : "evm version 1.10.2-unstable-22082f9e-20210309",
            "filling-tool-version" : "retesteth-0.1.0-accesslist+commit.47c69eb3.Linux.g++",
            "lllcversion" : "Version: 0.5.14-develop.2020.6.22+commit.9189ad7a.Linux.g++",
            "source" : "src/GeneralStateTestsFiller/stReturnDataTest/returndatasize_after_failing_delegatecallFiller.json",
            "sourceHash" : "21e1c67707b4de50b8a278d3767145043e318cbd5a5a6829c915ddbd7d81c901"
        },
        "genesisBlockHeader" : {
            "bloom" : "0x00000000000000000000000000000000000000000000000000000000000000000000000000000000000000000000000000000000000000000000000000000000000000000000000000000000000000000000000000000000000000000000000000000000000000000000000000000000000000000000000000000000000000000000000000000000000000000000000000000000000000000000000000000000000000000000000000000000000000000000000000000000000000000000000000000000000000000000000000000000000000000000000000000000000000000000000000000000000000000000000000000000000000000000000000000000",
            "coinbase" : "0x2adc25665018aa1fe0e6bc666dac8fc2697ff9ba",
            "difficulty" : "0x020000",
            "extraData" : "0x00",
            "gasLimit" : "0x1a00000000",
            "gasUsed" : "0x00",
            "hash" : "0x0d0f3ce050e726e5e85a0e3ea144362c89d41c804f2f2223eb27fe53fc5dc0ca",
            "mixHash" : "0x0000000000000000000000000000000000000000000000000000000000000000",
            "nonce" : "0x0000000000000000",
            "number" : "0x00",
            "parentHash" : "0x0000000000000000000000000000000000000000000000000000000000000000",
            "receiptTrie" : "0x56e81f171bcc55a6ff8345e692c0f86e5b48e01b996cadc001622fb5e363b421",
            "stateRoot" : "0xcc6d295012e414bc92746b6c094d4278c3de771c8cd9f7e4e929dd299551f433",
            "timestamp" : "0x00",
            "transactionsTrie" : "0x56e81f171bcc55a6ff8345e692c0f86e5b48e01b996cadc001622fb5e363b421",
            "uncleHash" : "0x1dcc4de8dec75d7aab85b567b6ccd41ad312451b948a7413f0a142fd40d49347"
        },
        "pre" : {
            "0x0f572e5295c57f15886f9b263e2f6d2d6c7b5ec6" : {
                "balance" : "0x01000000",
                "code" : "0x",
                "nonce" : "0x00",
                "storage" : {
                }
            },
            "0x1000000000000000000000000000000000000001" : {
                "balance" : "0x00",
                "code" : "0x600060006000600073a94f5374fce5edbc8e2a8697c15331677e6ebf0b612710f4503d60005500",
                "nonce" : "0x00",
                "storage" : {
                    "0x00" : "0xffffffffffffffffffffffffffffffffffffffffffffffffffffffffffffffff"
                }
            },
            "0xa94f5374fce5edbc8e2a8697c15331677e6ebf0b" : {
                "balance" : "0x6400000000",
                "code" : "0xfd",
                "nonce" : "0x00",
                "storage" : {
                }
            }
        },
        "postState" : {
            "0x0f572e5295c57f15886f9b263e2f6d2d6c7b5ec6" : {
                "code" : "0x",
                "nonce" : "0x00",
                "balance" : "0x01000000",
                "storage" : {
                }
            },
            "0x1000000000000000000000000000000000000001" : {
                "code" : "0x600060006000600073a94f5374fce5edbc8e2a8697c15331677e6ebf0b612710f4503d60005500",
                "nonce" : "0x00",
                "balance" : "0x00",
                "storage" : {
                }
            },
            "0x2adc25665018aa1fe0e6bc666dac8fc2697ff9ba" : {
                "code" : "0x",
                "nonce" : "0x00",
                "balance" : "0x1bc16d674ec85285",
                "storage" : {
                }
            },
            "0xa94f5374fce5edbc8e2a8697c15331677e6ebf0b" : {
                "code" : "0xfd",
                "nonce" : "0x01",
                "balance" : "0x63ffffad7b",
                "storage" : {
                }
            }
        },
        "network" : "Berlin",
        "sealEngine" : "NoProof",
        "lastblockhash" : "0x68a1c6b4b69a1b3f69772a48db02ca9c6b100f40fbd645295a07d5d35a2861f6",
        "genesisRLP" : "0xf901faf901f5a00000000000000000000000000000000000000000000000000000000000000000a01dcc4de8dec75d7aab85b567b6ccd41ad312451b948a7413f0a142fd40d49347942adc25665018aa1fe0e6bc666dac8fc2697ff9baa0cc6d295012e414bc92746b6c094d4278c3de771c8cd9f7e4e929dd299551f433a056e81f171bcc55a6ff8345e692c0f86e5b48e01b996cadc001622fb5e363b421a056e81f171bcc55a6ff8345e692c0f86e5b48e01b996cadc001622fb5e363b421b90100000000000000000000000000000000000000000000000000000000000000000000000000000000000000000000000000000000000000000000000000000000000000000000000000000000000000000000000000000000000000000000000000000000000000000000000000000000000000000000000000000000000000000000000000000000000000000000000000000000000000000000000000000000000000000000000000000000000000000000000000000000000000000000000000000000000000000000000000000000000000000000000000000000000000000000000000000000000000000000000000000000000000000000000000000000008302000080851a00000000808000a00000000000000000000000000000000000000000000000000000000000000000880000000000000000c0c0",
        "blocks" : [
            {
                "rlp" : "0xf90263f901f9a00d0f3ce050e726e5e85a0e3ea144362c89d41c804f2f2223eb27fe53fc5dc0caa01dcc4de8dec75d7aab85b567b6ccd41ad312451b948a7413f0a142fd40d49347942adc25665018aa1fe0e6bc666dac8fc2697ff9baa03ce91ceecd39d9bf1a73d52efba7173adf4ce400b9f6d040666f5dd3a366010ca0942a5626ebc24a913758d77ab9d72c3563724d8a433d611b1bf05ca4a3cf5c3ba055dc6394458d5b4badcf90aff7c7ea45edf814ae735d5fc7277abfdf9e653844b90100000000000000000000000000000000000000000000000000000000000000000000000000000000000000000000000000000000000000000000000000000000000000000000000000000000000000000000000000000000000000000000000000000000000000000000000000000000000000000000000000000000000000000000000000000000000000000000000000000000000000000000000000000000000000000000000000000000000000000000000000000000000000000000000000000000000000000000000000000000000000000000000000000000000000000000000000000000000000000000000000000000000000000000000000000000008302000001851a000000008252858203e800a00000000000000000000000000000000000000000000000000000000000000000880000000000000000f864f8628001850a0000000094100000000000000000000000000000000000000180801ba0d645bcff7a04b34bc1f20889cffafd8bf9764818e4eff2556c4513c3e6aa4426a0758a2988d8cdfe9eebdf3e6d1d2c63bd9718c956af62e21af76f52e047ace5e8c0",
                "blockHeader" : {
                    "bloom" : "0x00000000000000000000000000000000000000000000000000000000000000000000000000000000000000000000000000000000000000000000000000000000000000000000000000000000000000000000000000000000000000000000000000000000000000000000000000000000000000000000000000000000000000000000000000000000000000000000000000000000000000000000000000000000000000000000000000000000000000000000000000000000000000000000000000000000000000000000000000000000000000000000000000000000000000000000000000000000000000000000000000000000000000000000000000000000",
                    "coinbase" : "0x2adc25665018aa1fe0e6bc666dac8fc2697ff9ba",
                    "difficulty" : "0x020000",
                    "extraData" : "0x00",
                    "gasLimit" : "0x1a00000000",
                    "gasUsed" : "0x5285",
                    "hash" : "0x68a1c6b4b69a1b3f69772a48db02ca9c6b100f40fbd645295a07d5d35a2861f6",
                    "mixHash" : "0x0000000000000000000000000000000000000000000000000000000000000000",
                    "nonce" : "0x0000000000000000",
                    "number" : "0x01",
                    "parentHash" : "0x0d0f3ce050e726e5e85a0e3ea144362c89d41c804f2f2223eb27fe53fc5dc0ca",
                    "receiptTrie" : "0x55dc6394458d5b4badcf90aff7c7ea45edf814ae735d5fc7277abfdf9e653844",
                    "stateRoot" : "0x3ce91ceecd39d9bf1a73d52efba7173adf4ce400b9f6d040666f5dd3a366010c",
                    "timestamp" : "0x03e8",
                    "transactionsTrie" : "0x942a5626ebc24a913758d77ab9d72c3563724d8a433d611b1bf05ca4a3cf5c3b",
                    "uncleHash" : "0x1dcc4de8dec75d7aab85b567b6ccd41ad312451b948a7413f0a142fd40d49347"
                },
                "transactions" : [
                    {
                        "data" : "0x",
                        "gasLimit" : "0x0a00000000",
                        "gasPrice" : "0x01",
                        "nonce" : "0x00",
                        "to" : "0x1000000000000000000000000000000000000001",
                        "value" : "0x00",
                        "v" : "0x1b",
                        "r" : "0xd645bcff7a04b34bc1f20889cffafd8bf9764818e4eff2556c4513c3e6aa4426",
                        "s" : "0x758a2988d8cdfe9eebdf3e6d1d2c63bd9718c956af62e21af76f52e047ace5e8"
                    }
                ],
                "uncleHeaders" : [
                ]
            }
        ]
    },
    "returndatasize_after_failing_delegatecall_d0g0v0_Istanbul" : {
        "_info" : {
            "comment" : "",
            "filling-rpc-server" : "evm version 1.10.2-unstable-22082f9e-20210309",
            "filling-tool-version" : "retesteth-0.1.0-accesslist+commit.47c69eb3.Linux.g++",
            "lllcversion" : "Version: 0.5.14-develop.2020.6.22+commit.9189ad7a.Linux.g++",
            "source" : "src/GeneralStateTestsFiller/stReturnDataTest/returndatasize_after_failing_delegatecallFiller.json",
            "sourceHash" : "21e1c67707b4de50b8a278d3767145043e318cbd5a5a6829c915ddbd7d81c901"
        },
        "genesisBlockHeader" : {
            "bloom" : "0x00000000000000000000000000000000000000000000000000000000000000000000000000000000000000000000000000000000000000000000000000000000000000000000000000000000000000000000000000000000000000000000000000000000000000000000000000000000000000000000000000000000000000000000000000000000000000000000000000000000000000000000000000000000000000000000000000000000000000000000000000000000000000000000000000000000000000000000000000000000000000000000000000000000000000000000000000000000000000000000000000000000000000000000000000000000",
            "coinbase" : "0x2adc25665018aa1fe0e6bc666dac8fc2697ff9ba",
            "difficulty" : "0x020000",
            "extraData" : "0x00",
            "gasLimit" : "0x1a00000000",
            "gasUsed" : "0x00",
            "hash" : "0x0d0f3ce050e726e5e85a0e3ea144362c89d41c804f2f2223eb27fe53fc5dc0ca",
            "mixHash" : "0x0000000000000000000000000000000000000000000000000000000000000000",
            "nonce" : "0x0000000000000000",
            "number" : "0x00",
            "parentHash" : "0x0000000000000000000000000000000000000000000000000000000000000000",
            "receiptTrie" : "0x56e81f171bcc55a6ff8345e692c0f86e5b48e01b996cadc001622fb5e363b421",
            "stateRoot" : "0xcc6d295012e414bc92746b6c094d4278c3de771c8cd9f7e4e929dd299551f433",
            "timestamp" : "0x00",
            "transactionsTrie" : "0x56e81f171bcc55a6ff8345e692c0f86e5b48e01b996cadc001622fb5e363b421",
            "uncleHash" : "0x1dcc4de8dec75d7aab85b567b6ccd41ad312451b948a7413f0a142fd40d49347"
        },
        "pre" : {
            "0x0f572e5295c57f15886f9b263e2f6d2d6c7b5ec6" : {
                "balance" : "0x01000000",
                "code" : "0x",
                "nonce" : "0x00",
                "storage" : {
                }
            },
            "0x1000000000000000000000000000000000000001" : {
                "balance" : "0x00",
                "code" : "0x600060006000600073a94f5374fce5edbc8e2a8697c15331677e6ebf0b612710f4503d60005500",
                "nonce" : "0x00",
                "storage" : {
                    "0x00" : "0xffffffffffffffffffffffffffffffffffffffffffffffffffffffffffffffff"
                }
            },
            "0xa94f5374fce5edbc8e2a8697c15331677e6ebf0b" : {
                "balance" : "0x6400000000",
                "code" : "0xfd",
                "nonce" : "0x00",
                "storage" : {
                }
            }
        },
        "postState" : {
            "0x0f572e5295c57f15886f9b263e2f6d2d6c7b5ec6" : {
                "code" : "0x",
                "nonce" : "0x00",
                "balance" : "0x01000000",
                "storage" : {
                }
            },
            "0x1000000000000000000000000000000000000001" : {
                "code" : "0x600060006000600073a94f5374fce5edbc8e2a8697c15331677e6ebf0b612710f4503d60005500",
                "nonce" : "0x00",
                "balance" : "0x00",
                "storage" : {
                }
            },
            "0x2adc25665018aa1fe0e6bc666dac8fc2697ff9ba" : {
                "code" : "0x",
                "nonce" : "0x00",
                "balance" : "0x1bc16d674ec854dd",
                "storage" : {
                }
            },
            "0xa94f5374fce5edbc8e2a8697c15331677e6ebf0b" : {
                "code" : "0xfd",
                "nonce" : "0x01",
                "balance" : "0x63ffffab23",
                "storage" : {
                }
            }
        },
        "network" : "Istanbul",
        "sealEngine" : "NoProof",
        "lastblockhash" : "0x01a059c83b92a56dcb8031c703be96a96308e5f52ebfacbef08ed88090d168f3",
        "genesisRLP" : "0xf901faf901f5a00000000000000000000000000000000000000000000000000000000000000000a01dcc4de8dec75d7aab85b567b6ccd41ad312451b948a7413f0a142fd40d49347942adc25665018aa1fe0e6bc666dac8fc2697ff9baa0cc6d295012e414bc92746b6c094d4278c3de771c8cd9f7e4e929dd299551f433a056e81f171bcc55a6ff8345e692c0f86e5b48e01b996cadc001622fb5e363b421a056e81f171bcc55a6ff8345e692c0f86e5b48e01b996cadc001622fb5e363b421b90100000000000000000000000000000000000000000000000000000000000000000000000000000000000000000000000000000000000000000000000000000000000000000000000000000000000000000000000000000000000000000000000000000000000000000000000000000000000000000000000000000000000000000000000000000000000000000000000000000000000000000000000000000000000000000000000000000000000000000000000000000000000000000000000000000000000000000000000000000000000000000000000000000000000000000000000000000000000000000000000000000000000000000000000000000000008302000080851a00000000808000a00000000000000000000000000000000000000000000000000000000000000000880000000000000000c0c0",
        "blocks" : [
            {
                "rlp" : "0xf90263f901f9a00d0f3ce050e726e5e85a0e3ea144362c89d41c804f2f2223eb27fe53fc5dc0caa01dcc4de8dec75d7aab85b567b6ccd41ad312451b948a7413f0a142fd40d49347942adc25665018aa1fe0e6bc666dac8fc2697ff9baa0c9e0e0d851baf93a7b366752ed5a4204376c0230335f6ad5255d0c282a822eb6a0942a5626ebc24a913758d77ab9d72c3563724d8a433d611b1bf05ca4a3cf5c3ba08c863d1a3b5eb733199f7be9fc99a0ef90e6d9bef6cf662cd9fbd205570c5536b90100000000000000000000000000000000000000000000000000000000000000000000000000000000000000000000000000000000000000000000000000000000000000000000000000000000000000000000000000000000000000000000000000000000000000000000000000000000000000000000000000000000000000000000000000000000000000000000000000000000000000000000000000000000000000000000000000000000000000000000000000000000000000000000000000000000000000000000000000000000000000000000000000000000000000000000000000000000000000000000000000000000000000000000000000000000008302000001851a000000008254dd8203e800a00000000000000000000000000000000000000000000000000000000000000000880000000000000000f864f8628001850a0000000094100000000000000000000000000000000000000180801ba0d645bcff7a04b34bc1f20889cffafd8bf9764818e4eff2556c4513c3e6aa4426a0758a2988d8cdfe9eebdf3e6d1d2c63bd9718c956af62e21af76f52e047ace5e8c0",
                "blockHeader" : {
                    "bloom" : "0x00000000000000000000000000000000000000000000000000000000000000000000000000000000000000000000000000000000000000000000000000000000000000000000000000000000000000000000000000000000000000000000000000000000000000000000000000000000000000000000000000000000000000000000000000000000000000000000000000000000000000000000000000000000000000000000000000000000000000000000000000000000000000000000000000000000000000000000000000000000000000000000000000000000000000000000000000000000000000000000000000000000000000000000000000000000",
                    "coinbase" : "0x2adc25665018aa1fe0e6bc666dac8fc2697ff9ba",
                    "difficulty" : "0x020000",
                    "extraData" : "0x00",
                    "gasLimit" : "0x1a00000000",
                    "gasUsed" : "0x54dd",
                    "hash" : "0x01a059c83b92a56dcb8031c703be96a96308e5f52ebfacbef08ed88090d168f3",
                    "mixHash" : "0x0000000000000000000000000000000000000000000000000000000000000000",
                    "nonce" : "0x0000000000000000",
                    "number" : "0x01",
                    "parentHash" : "0x0d0f3ce050e726e5e85a0e3ea144362c89d41c804f2f2223eb27fe53fc5dc0ca",
                    "receiptTrie" : "0x8c863d1a3b5eb733199f7be9fc99a0ef90e6d9bef6cf662cd9fbd205570c5536",
                    "stateRoot" : "0xc9e0e0d851baf93a7b366752ed5a4204376c0230335f6ad5255d0c282a822eb6",
                    "timestamp" : "0x03e8",
                    "transactionsTrie" : "0x942a5626ebc24a913758d77ab9d72c3563724d8a433d611b1bf05ca4a3cf5c3b",
                    "uncleHash" : "0x1dcc4de8dec75d7aab85b567b6ccd41ad312451b948a7413f0a142fd40d49347"
                },
                "transactions" : [
                    {
                        "data" : "0x",
                        "gasLimit" : "0x0a00000000",
                        "gasPrice" : "0x01",
                        "nonce" : "0x00",
                        "to" : "0x1000000000000000000000000000000000000001",
                        "value" : "0x00",
                        "v" : "0x1b",
                        "r" : "0xd645bcff7a04b34bc1f20889cffafd8bf9764818e4eff2556c4513c3e6aa4426",
                        "s" : "0x758a2988d8cdfe9eebdf3e6d1d2c63bd9718c956af62e21af76f52e047ace5e8"
                    }
                ],
                "uncleHeaders" : [
                ]
            }
        ]
    }
}