{
    "returndatacopy_following_failing_call_d0g0v0_Byzantium" : {
        "_info" : {
            "comment" : "",
            "filledwith" : "cpp-1.3.0+commit.ee0c6776.Linux.g++",
            "lllcversion" : "Version: 0.4.20-develop.2018.2.4+commit.c696803f.Linux.g++",
            "source" : "src/BlockchainTestsFiller/GeneralStateTests/stReturnDataTest/returndatacopy_following_failing_call_d0g0v0Filler.json",
            "sourceHash" : "1d128153a981841e2153cebc7a18a879087ac08aaf839e8bc5abcebd2657c97f"
        },
        "blocks" : [
            {
                "blockHeader" : {
                    "bloom" : "0x00000000000000000000000000000000000000000000000000000000000000000000000000000000000000000000000000000000000000000000000000000000000000000000000000000000000000000000000000000000000000000000000000000000000000000000000000000000000000000000000000000000000000000000000000000000000000000000000000000000000000000000000000000000000000000000000000000000000000000000000000000000000000000000000000000000000000000000000000000000000000000000000000000000000000000000000000000000000000000000000000000000000000000000000000000000",
                    "coinbase" : "0x2adc25665018aa1fe0e6bc666dac8fc2697ff9ba",
                    "difficulty" : "0x020000",
                    "extraData" : "",
                    "gasLimit" : "0x0a00000000",
                    "gasUsed" : "0x0a00000000",
                    "hash" : "0xeeaba73e6c5b85ac9be62821e853637a43ac3c331209172beb79aa215c8c70ae",
                    "mixHash" : "0x00cb7edd8fa71d3c28e6e0253b26707f5b4acf99f031bf0a2f8e8b22c9716407",
                    "nonce" : "0xcf431c51b73cd7c2",
                    "number" : "0x01",
                    "parentHash" : "0xfce3a19c4129332ccd514c37f867e372c46015054f42fa64215b812c6e85ee23",
                    "receiptTrie" : "0x97fe59b8004de685658f61c2939be1892eb8593c1ce622c392dd985946712e06",
                    "stateRoot" : "0x2bf83c383a426f1b11714f246009bc47cb3fcb5368c3a0715318dcf26804e67a",
                    "timestamp" : "0x03e8",
                    "transactionsTrie" : "0xde317ba0085ad3bc6f64da920500c40ceb94789c007f8c54b3e766eae29616ab",
                    "uncleHash" : "0x1dcc4de8dec75d7aab85b567b6ccd41ad312451b948a7413f0a142fd40d49347"
                },
                "rlp" : "0xf90266f901fca0fce3a19c4129332ccd514c37f867e372c46015054f42fa64215b812c6e85ee23a01dcc4de8dec75d7aab85b567b6ccd41ad312451b948a7413f0a142fd40d49347942adc25665018aa1fe0e6bc666dac8fc2697ff9baa02bf83c383a426f1b11714f246009bc47cb3fcb5368c3a0715318dcf26804e67aa0de317ba0085ad3bc6f64da920500c40ceb94789c007f8c54b3e766eae29616aba097fe59b8004de685658f61c2939be1892eb8593c1ce622c392dd985946712e06b90100000000000000000000000000000000000000000000000000000000000000000000000000000000000000000000000000000000000000000000000000000000000000000000000000000000000000000000000000000000000000000000000000000000000000000000000000000000000000000000000000000000000000000000000000000000000000000000000000000000000000000000000000000000000000000000000000000000000000000000000000000000000000000000000000000000000000000000000000000000000000000000000000000000000000000000000000000000000000000000000000000000000000000000000000000000008302000001850a00000000850a000000008203e880a000cb7edd8fa71d3c28e6e0253b26707f5b4acf99f031bf0a2f8e8b22c971640788cf431c51b73cd7c2f864f8628001850a00000000940f572e5295c57f15886f9b263e2f6d2d6c7b5ec680801ba03b6c2d4d0d9d0abf4d624a6f2930e213789e9c00f679a9afa996fb4bd27cb507a024a40d7f4cf44278ac739ecf9eeba61554646709142d968ed1c555be138a3ea2c0",
                "transactions" : [
                    {
                        "data" : "0x",
                        "gasLimit" : "0x0a00000000",
                        "gasPrice" : "0x01",
                        "nonce" : "0x00",
                        "r" : "0x3b6c2d4d0d9d0abf4d624a6f2930e213789e9c00f679a9afa996fb4bd27cb507",
                        "s" : "0x24a40d7f4cf44278ac739ecf9eeba61554646709142d968ed1c555be138a3ea2",
                        "to" : "0x0f572e5295c57f15886f9b263e2f6d2d6c7b5ec6",
                        "v" : "0x1b",
                        "value" : "0x00"
                    }
                ],
                "uncleHeaders" : [
                ]
            }
        ],
        "genesisBlockHeader" : {
            "bloom" : "0x00000000000000000000000000000000000000000000000000000000000000000000000000000000000000000000000000000000000000000000000000000000000000000000000000000000000000000000000000000000000000000000000000000000000000000000000000000000000000000000000000000000000000000000000000000000000000000000000000000000000000000000000000000000000000000000000000000000000000000000000000000000000000000000000000000000000000000000000000000000000000000000000000000000000000000000000000000000000000000000000000000000000000000000000000000000",
            "coinbase" : "0x2adc25665018aa1fe0e6bc666dac8fc2697ff9ba",
            "difficulty" : "0x020000",
            "extraData" : "0x42",
            "gasLimit" : "0x0a00000000",
            "gasUsed" : "0x00",
            "hash" : "0xfce3a19c4129332ccd514c37f867e372c46015054f42fa64215b812c6e85ee23",
            "mixHash" : "0x56e81f171bcc55a6ff8345e692c0f86e5b48e01b996cadc001622fb5e363b421",
            "nonce" : "0x0102030405060708",
            "number" : "0x00",
            "parentHash" : "0x0000000000000000000000000000000000000000000000000000000000000000",
            "receiptTrie" : "0x56e81f171bcc55a6ff8345e692c0f86e5b48e01b996cadc001622fb5e363b421",
            "stateRoot" : "0xd47c2b8a35a7e8d1177aa60fcd9ea58ea6fd6ac9c08cef18c23d061228c97f6c",
            "timestamp" : "0x03b6",
            "transactionsTrie" : "0x56e81f171bcc55a6ff8345e692c0f86e5b48e01b996cadc001622fb5e363b421",
            "uncleHash" : "0x1dcc4de8dec75d7aab85b567b6ccd41ad312451b948a7413f0a142fd40d49347"
        },
        "genesisRLP" : "0xf901fcf901f7a00000000000000000000000000000000000000000000000000000000000000000a01dcc4de8dec75d7aab85b567b6ccd41ad312451b948a7413f0a142fd40d49347942adc25665018aa1fe0e6bc666dac8fc2697ff9baa0d47c2b8a35a7e8d1177aa60fcd9ea58ea6fd6ac9c08cef18c23d061228c97f6ca056e81f171bcc55a6ff8345e692c0f86e5b48e01b996cadc001622fb5e363b421a056e81f171bcc55a6ff8345e692c0f86e5b48e01b996cadc001622fb5e363b421b90100000000000000000000000000000000000000000000000000000000000000000000000000000000000000000000000000000000000000000000000000000000000000000000000000000000000000000000000000000000000000000000000000000000000000000000000000000000000000000000000000000000000000000000000000000000000000000000000000000000000000000000000000000000000000000000000000000000000000000000000000000000000000000000000000000000000000000000000000000000000000000000000000000000000000000000000000000000000000000000000000000000000000000000000000000000008302000080850a00000000808203b642a056e81f171bcc55a6ff8345e692c0f86e5b48e01b996cadc001622fb5e363b421880102030405060708c0c0",
        "lastblockhash" : "0xeeaba73e6c5b85ac9be62821e853637a43ac3c331209172beb79aa215c8c70ae",
        "network" : "Byzantium",
        "postState" : {
            "0x0aabbccdd5c57f15886f9b263e2f6d2d6c7b5ec6" : {
                "balance" : "0x00",
                "code" : "0xfd",
                "nonce" : "0x00",
                "storage" : {
                }
            },
            "0x0f572e5295c57f15886f9b263e2f6d2d6c7b5ec6" : {
                "balance" : "0x00",
                "code" : "0x60006000600060006000730aabbccdd5c57f15886f9b263e2f6d2d6c7b5ec6640900000000f1506020600160003e600051600055",
                "nonce" : "0x00",
                "storage" : {
                    "0x00" : "0x01"
                }
            },
            "0x2adc25665018aa1fe0e6bc666dac8fc2697ff9ba" : {
                "balance" : "0x29a22424f62c0000",
                "code" : "",
                "nonce" : "0x00",
                "storage" : {
                }
            },
            "0xa94f5374fce5edbc8e2a8697c15331677e6ebf0b" : {
                "balance" : "0x5a00000000",
                "code" : "",
                "nonce" : "0x01",
                "storage" : {
                }
            }
        },
        "pre" : {
            "0x0aabbccdd5c57f15886f9b263e2f6d2d6c7b5ec6" : {
                "balance" : "0x00",
                "code" : "0xfd",
                "nonce" : "0x00",
                "storage" : {
                }
            },
            "0x0f572e5295c57f15886f9b263e2f6d2d6c7b5ec6" : {
                "balance" : "0x00",
                "code" : "0x60006000600060006000730aabbccdd5c57f15886f9b263e2f6d2d6c7b5ec6640900000000f1506020600160003e600051600055",
                "nonce" : "0x00",
                "storage" : {
                    "0x00" : "0x01"
                }
            },
            "0xa94f5374fce5edbc8e2a8697c15331677e6ebf0b" : {
                "balance" : "0x6400000000",
                "code" : "",
                "nonce" : "0x00",
                "storage" : {
                }
            }
        }
    },
    "returndatacopy_following_failing_call_d0g0v0_EIP150" : {
        "_info" : {
            "comment" : "",
            "filledwith" : "cpp-1.3.0+commit.ee0c6776.Linux.g++",
            "lllcversion" : "Version: 0.4.20-develop.2018.2.4+commit.c696803f.Linux.g++",
            "source" : "src/BlockchainTestsFiller/GeneralStateTests/stReturnDataTest/returndatacopy_following_failing_call_d0g0v0Filler.json",
            "sourceHash" : "1d128153a981841e2153cebc7a18a879087ac08aaf839e8bc5abcebd2657c97f"
        },
        "blocks" : [
            {
                "blockHeader" : {
                    "bloom" : "0x00000000000000000000000000000000000000000000000000000000000000000000000000000000000000000000000000000000000000000000000000000000000000000000000000000000000000000000000000000000000000000000000000000000000000000000000000000000000000000000000000000000000000000000000000000000000000000000000000000000000000000000000000000000000000000000000000000000000000000000000000000000000000000000000000000000000000000000000000000000000000000000000000000000000000000000000000000000000000000000000000000000000000000000000000000000",
                    "coinbase" : "0x2adc25665018aa1fe0e6bc666dac8fc2697ff9ba",
                    "difficulty" : "0x020000",
                    "extraData" : "",
                    "gasLimit" : "0x0a00000000",
                    "gasUsed" : "0x0a00000000",
                    "hash" : "0x3d2ab0530424915a12b2224f5462a4ba0d462192c1cf6425627b5a1cb0620cc5",
                    "mixHash" : "0x49607261a2884d10f5da420950aaab952ea4bb6fc83fa864bf1005c372326b5d",
                    "nonce" : "0x95933ac09c6e0f3b",
                    "number" : "0x01",
                    "parentHash" : "0xfce3a19c4129332ccd514c37f867e372c46015054f42fa64215b812c6e85ee23",
                    "receiptTrie" : "0x97023e2ac02f924a2f3a30836d7095f4800db721fbfd6c892d215be6e40b7461",
                    "stateRoot" : "0x5a7a1b0f900700da3dcc57257e938471080da541dba776be71dbbfa877a7570f",
                    "timestamp" : "0x03e8",
                    "transactionsTrie" : "0xde317ba0085ad3bc6f64da920500c40ceb94789c007f8c54b3e766eae29616ab",
                    "uncleHash" : "0x1dcc4de8dec75d7aab85b567b6ccd41ad312451b948a7413f0a142fd40d49347"
                },
                "rlp" : "0xf90266f901fca0fce3a19c4129332ccd514c37f867e372c46015054f42fa64215b812c6e85ee23a01dcc4de8dec75d7aab85b567b6ccd41ad312451b948a7413f0a142fd40d49347942adc25665018aa1fe0e6bc666dac8fc2697ff9baa05a7a1b0f900700da3dcc57257e938471080da541dba776be71dbbfa877a7570fa0de317ba0085ad3bc6f64da920500c40ceb94789c007f8c54b3e766eae29616aba097023e2ac02f924a2f3a30836d7095f4800db721fbfd6c892d215be6e40b7461b90100000000000000000000000000000000000000000000000000000000000000000000000000000000000000000000000000000000000000000000000000000000000000000000000000000000000000000000000000000000000000000000000000000000000000000000000000000000000000000000000000000000000000000000000000000000000000000000000000000000000000000000000000000000000000000000000000000000000000000000000000000000000000000000000000000000000000000000000000000000000000000000000000000000000000000000000000000000000000000000000000000000000000000000000000000000008302000001850a00000000850a000000008203e880a049607261a2884d10f5da420950aaab952ea4bb6fc83fa864bf1005c372326b5d8895933ac09c6e0f3bf864f8628001850a00000000940f572e5295c57f15886f9b263e2f6d2d6c7b5ec680801ba03b6c2d4d0d9d0abf4d624a6f2930e213789e9c00f679a9afa996fb4bd27cb507a024a40d7f4cf44278ac739ecf9eeba61554646709142d968ed1c555be138a3ea2c0",
                "transactions" : [
                    {
                        "data" : "0x",
                        "gasLimit" : "0x0a00000000",
                        "gasPrice" : "0x01",
                        "nonce" : "0x00",
                        "r" : "0x3b6c2d4d0d9d0abf4d624a6f2930e213789e9c00f679a9afa996fb4bd27cb507",
                        "s" : "0x24a40d7f4cf44278ac739ecf9eeba61554646709142d968ed1c555be138a3ea2",
                        "to" : "0x0f572e5295c57f15886f9b263e2f6d2d6c7b5ec6",
                        "v" : "0x1b",
                        "value" : "0x00"
                    }
                ],
                "uncleHeaders" : [
                ]
            }
        ],
        "genesisBlockHeader" : {
            "bloom" : "0x00000000000000000000000000000000000000000000000000000000000000000000000000000000000000000000000000000000000000000000000000000000000000000000000000000000000000000000000000000000000000000000000000000000000000000000000000000000000000000000000000000000000000000000000000000000000000000000000000000000000000000000000000000000000000000000000000000000000000000000000000000000000000000000000000000000000000000000000000000000000000000000000000000000000000000000000000000000000000000000000000000000000000000000000000000000",
            "coinbase" : "0x2adc25665018aa1fe0e6bc666dac8fc2697ff9ba",
            "difficulty" : "0x020000",
            "extraData" : "0x42",
            "gasLimit" : "0x0a00000000",
            "gasUsed" : "0x00",
            "hash" : "0xfce3a19c4129332ccd514c37f867e372c46015054f42fa64215b812c6e85ee23",
            "mixHash" : "0x56e81f171bcc55a6ff8345e692c0f86e5b48e01b996cadc001622fb5e363b421",
            "nonce" : "0x0102030405060708",
            "number" : "0x00",
            "parentHash" : "0x0000000000000000000000000000000000000000000000000000000000000000",
            "receiptTrie" : "0x56e81f171bcc55a6ff8345e692c0f86e5b48e01b996cadc001622fb5e363b421",
            "stateRoot" : "0xd47c2b8a35a7e8d1177aa60fcd9ea58ea6fd6ac9c08cef18c23d061228c97f6c",
            "timestamp" : "0x03b6",
            "transactionsTrie" : "0x56e81f171bcc55a6ff8345e692c0f86e5b48e01b996cadc001622fb5e363b421",
            "uncleHash" : "0x1dcc4de8dec75d7aab85b567b6ccd41ad312451b948a7413f0a142fd40d49347"
        },
        "genesisRLP" : "0xf901fcf901f7a00000000000000000000000000000000000000000000000000000000000000000a01dcc4de8dec75d7aab85b567b6ccd41ad312451b948a7413f0a142fd40d49347942adc25665018aa1fe0e6bc666dac8fc2697ff9baa0d47c2b8a35a7e8d1177aa60fcd9ea58ea6fd6ac9c08cef18c23d061228c97f6ca056e81f171bcc55a6ff8345e692c0f86e5b48e01b996cadc001622fb5e363b421a056e81f171bcc55a6ff8345e692c0f86e5b48e01b996cadc001622fb5e363b421b90100000000000000000000000000000000000000000000000000000000000000000000000000000000000000000000000000000000000000000000000000000000000000000000000000000000000000000000000000000000000000000000000000000000000000000000000000000000000000000000000000000000000000000000000000000000000000000000000000000000000000000000000000000000000000000000000000000000000000000000000000000000000000000000000000000000000000000000000000000000000000000000000000000000000000000000000000000000000000000000000000000000000000000000000000000000008302000080850a00000000808203b642a056e81f171bcc55a6ff8345e692c0f86e5b48e01b996cadc001622fb5e363b421880102030405060708c0c0",
        "lastblockhash" : "0x3d2ab0530424915a12b2224f5462a4ba0d462192c1cf6425627b5a1cb0620cc5",
        "network" : "EIP150",
        "postState" : {
            "0x0aabbccdd5c57f15886f9b263e2f6d2d6c7b5ec6" : {
                "balance" : "0x00",
                "code" : "0xfd",
                "nonce" : "0x00",
                "storage" : {
                }
            },
            "0x0f572e5295c57f15886f9b263e2f6d2d6c7b5ec6" : {
                "balance" : "0x00",
                "code" : "0x60006000600060006000730aabbccdd5c57f15886f9b263e2f6d2d6c7b5ec6640900000000f1506020600160003e600051600055",
                "nonce" : "0x00",
                "storage" : {
                    "0x00" : "0x01"
                }
            },
            "0x2adc25665018aa1fe0e6bc666dac8fc2697ff9ba" : {
                "balance" : "0x4563918c44f40000",
                "code" : "",
                "nonce" : "0x00",
                "storage" : {
                }
            },
            "0xa94f5374fce5edbc8e2a8697c15331677e6ebf0b" : {
                "balance" : "0x5a00000000",
                "code" : "",
                "nonce" : "0x01",
                "storage" : {
                }
            }
        },
        "pre" : {
            "0x0aabbccdd5c57f15886f9b263e2f6d2d6c7b5ec6" : {
                "balance" : "0x00",
                "code" : "0xfd",
                "nonce" : "0x00",
                "storage" : {
                }
            },
            "0x0f572e5295c57f15886f9b263e2f6d2d6c7b5ec6" : {
                "balance" : "0x00",
                "code" : "0x60006000600060006000730aabbccdd5c57f15886f9b263e2f6d2d6c7b5ec6640900000000f1506020600160003e600051600055",
                "nonce" : "0x00",
                "storage" : {
                    "0x00" : "0x01"
                }
            },
            "0xa94f5374fce5edbc8e2a8697c15331677e6ebf0b" : {
                "balance" : "0x6400000000",
                "code" : "",
                "nonce" : "0x00",
                "storage" : {
                }
            }
        }
    },
    "returndatacopy_following_failing_call_d0g0v0_EIP158" : {
        "_info" : {
            "comment" : "",
            "filledwith" : "cpp-1.3.0+commit.ee0c6776.Linux.g++",
            "lllcversion" : "Version: 0.4.20-develop.2018.2.4+commit.c696803f.Linux.g++",
            "source" : "src/BlockchainTestsFiller/GeneralStateTests/stReturnDataTest/returndatacopy_following_failing_call_d0g0v0Filler.json",
            "sourceHash" : "1d128153a981841e2153cebc7a18a879087ac08aaf839e8bc5abcebd2657c97f"
        },
        "blocks" : [
            {
                "blockHeader" : {
                    "bloom" : "0x00000000000000000000000000000000000000000000000000000000000000000000000000000000000000000000000000000000000000000000000000000000000000000000000000000000000000000000000000000000000000000000000000000000000000000000000000000000000000000000000000000000000000000000000000000000000000000000000000000000000000000000000000000000000000000000000000000000000000000000000000000000000000000000000000000000000000000000000000000000000000000000000000000000000000000000000000000000000000000000000000000000000000000000000000000000",
                    "coinbase" : "0x2adc25665018aa1fe0e6bc666dac8fc2697ff9ba",
                    "difficulty" : "0x020000",
                    "extraData" : "",
                    "gasLimit" : "0x0a00000000",
                    "gasUsed" : "0x0a00000000",
                    "hash" : "0x8c97fe6179024fff5c502193baf3e965253aa4e5775a8747d53c1c3e337a3cc2",
                    "mixHash" : "0x7ca18b8791372a048759cf124f4c7ee39c73f7131256de2a23d945dad1878ed0",
                    "nonce" : "0x3abf51b844d7316a",
                    "number" : "0x01",
                    "parentHash" : "0xfce3a19c4129332ccd514c37f867e372c46015054f42fa64215b812c6e85ee23",
                    "receiptTrie" : "0x97023e2ac02f924a2f3a30836d7095f4800db721fbfd6c892d215be6e40b7461",
                    "stateRoot" : "0x5a7a1b0f900700da3dcc57257e938471080da541dba776be71dbbfa877a7570f",
                    "timestamp" : "0x03e8",
                    "transactionsTrie" : "0xde317ba0085ad3bc6f64da920500c40ceb94789c007f8c54b3e766eae29616ab",
                    "uncleHash" : "0x1dcc4de8dec75d7aab85b567b6ccd41ad312451b948a7413f0a142fd40d49347"
                },
                "rlp" : "0xf90266f901fca0fce3a19c4129332ccd514c37f867e372c46015054f42fa64215b812c6e85ee23a01dcc4de8dec75d7aab85b567b6ccd41ad312451b948a7413f0a142fd40d49347942adc25665018aa1fe0e6bc666dac8fc2697ff9baa05a7a1b0f900700da3dcc57257e938471080da541dba776be71dbbfa877a7570fa0de317ba0085ad3bc6f64da920500c40ceb94789c007f8c54b3e766eae29616aba097023e2ac02f924a2f3a30836d7095f4800db721fbfd6c892d215be6e40b7461b90100000000000000000000000000000000000000000000000000000000000000000000000000000000000000000000000000000000000000000000000000000000000000000000000000000000000000000000000000000000000000000000000000000000000000000000000000000000000000000000000000000000000000000000000000000000000000000000000000000000000000000000000000000000000000000000000000000000000000000000000000000000000000000000000000000000000000000000000000000000000000000000000000000000000000000000000000000000000000000000000000000000000000000000000000000000008302000001850a00000000850a000000008203e880a07ca18b8791372a048759cf124f4c7ee39c73f7131256de2a23d945dad1878ed0883abf51b844d7316af864f8628001850a00000000940f572e5295c57f15886f9b263e2f6d2d6c7b5ec680801ba03b6c2d4d0d9d0abf4d624a6f2930e213789e9c00f679a9afa996fb4bd27cb507a024a40d7f4cf44278ac739ecf9eeba61554646709142d968ed1c555be138a3ea2c0",
                "transactions" : [
                    {
                        "data" : "0x",
                        "gasLimit" : "0x0a00000000",
                        "gasPrice" : "0x01",
                        "nonce" : "0x00",
                        "r" : "0x3b6c2d4d0d9d0abf4d624a6f2930e213789e9c00f679a9afa996fb4bd27cb507",
                        "s" : "0x24a40d7f4cf44278ac739ecf9eeba61554646709142d968ed1c555be138a3ea2",
                        "to" : "0x0f572e5295c57f15886f9b263e2f6d2d6c7b5ec6",
                        "v" : "0x1b",
                        "value" : "0x00"
                    }
                ],
                "uncleHeaders" : [
                ]
            }
        ],
        "genesisBlockHeader" : {
            "bloom" : "0x00000000000000000000000000000000000000000000000000000000000000000000000000000000000000000000000000000000000000000000000000000000000000000000000000000000000000000000000000000000000000000000000000000000000000000000000000000000000000000000000000000000000000000000000000000000000000000000000000000000000000000000000000000000000000000000000000000000000000000000000000000000000000000000000000000000000000000000000000000000000000000000000000000000000000000000000000000000000000000000000000000000000000000000000000000000",
            "coinbase" : "0x2adc25665018aa1fe0e6bc666dac8fc2697ff9ba",
            "difficulty" : "0x020000",
            "extraData" : "0x42",
            "gasLimit" : "0x0a00000000",
            "gasUsed" : "0x00",
            "hash" : "0xfce3a19c4129332ccd514c37f867e372c46015054f42fa64215b812c6e85ee23",
            "mixHash" : "0x56e81f171bcc55a6ff8345e692c0f86e5b48e01b996cadc001622fb5e363b421",
            "nonce" : "0x0102030405060708",
            "number" : "0x00",
            "parentHash" : "0x0000000000000000000000000000000000000000000000000000000000000000",
            "receiptTrie" : "0x56e81f171bcc55a6ff8345e692c0f86e5b48e01b996cadc001622fb5e363b421",
            "stateRoot" : "0xd47c2b8a35a7e8d1177aa60fcd9ea58ea6fd6ac9c08cef18c23d061228c97f6c",
            "timestamp" : "0x03b6",
            "transactionsTrie" : "0x56e81f171bcc55a6ff8345e692c0f86e5b48e01b996cadc001622fb5e363b421",
            "uncleHash" : "0x1dcc4de8dec75d7aab85b567b6ccd41ad312451b948a7413f0a142fd40d49347"
        },
        "genesisRLP" : "0xf901fcf901f7a00000000000000000000000000000000000000000000000000000000000000000a01dcc4de8dec75d7aab85b567b6ccd41ad312451b948a7413f0a142fd40d49347942adc25665018aa1fe0e6bc666dac8fc2697ff9baa0d47c2b8a35a7e8d1177aa60fcd9ea58ea6fd6ac9c08cef18c23d061228c97f6ca056e81f171bcc55a6ff8345e692c0f86e5b48e01b996cadc001622fb5e363b421a056e81f171bcc55a6ff8345e692c0f86e5b48e01b996cadc001622fb5e363b421b90100000000000000000000000000000000000000000000000000000000000000000000000000000000000000000000000000000000000000000000000000000000000000000000000000000000000000000000000000000000000000000000000000000000000000000000000000000000000000000000000000000000000000000000000000000000000000000000000000000000000000000000000000000000000000000000000000000000000000000000000000000000000000000000000000000000000000000000000000000000000000000000000000000000000000000000000000000000000000000000000000000000000000000000000000000000008302000080850a00000000808203b642a056e81f171bcc55a6ff8345e692c0f86e5b48e01b996cadc001622fb5e363b421880102030405060708c0c0",
        "lastblockhash" : "0x8c97fe6179024fff5c502193baf3e965253aa4e5775a8747d53c1c3e337a3cc2",
        "network" : "EIP158",
        "postState" : {
            "0x0aabbccdd5c57f15886f9b263e2f6d2d6c7b5ec6" : {
                "balance" : "0x00",
                "code" : "0xfd",
                "nonce" : "0x00",
                "storage" : {
                }
            },
            "0x0f572e5295c57f15886f9b263e2f6d2d6c7b5ec6" : {
                "balance" : "0x00",
                "code" : "0x60006000600060006000730aabbccdd5c57f15886f9b263e2f6d2d6c7b5ec6640900000000f1506020600160003e600051600055",
                "nonce" : "0x00",
                "storage" : {
                    "0x00" : "0x01"
                }
            },
            "0x2adc25665018aa1fe0e6bc666dac8fc2697ff9ba" : {
                "balance" : "0x4563918c44f40000",
                "code" : "",
                "nonce" : "0x00",
                "storage" : {
                }
            },
            "0xa94f5374fce5edbc8e2a8697c15331677e6ebf0b" : {
                "balance" : "0x5a00000000",
                "code" : "",
                "nonce" : "0x01",
                "storage" : {
                }
            }
        },
        "pre" : {
            "0x0aabbccdd5c57f15886f9b263e2f6d2d6c7b5ec6" : {
                "balance" : "0x00",
                "code" : "0xfd",
                "nonce" : "0x00",
                "storage" : {
                }
            },
            "0x0f572e5295c57f15886f9b263e2f6d2d6c7b5ec6" : {
                "balance" : "0x00",
                "code" : "0x60006000600060006000730aabbccdd5c57f15886f9b263e2f6d2d6c7b5ec6640900000000f1506020600160003e600051600055",
                "nonce" : "0x00",
                "storage" : {
                    "0x00" : "0x01"
                }
            },
            "0xa94f5374fce5edbc8e2a8697c15331677e6ebf0b" : {
                "balance" : "0x6400000000",
                "code" : "",
                "nonce" : "0x00",
                "storage" : {
                }
            }
        }
    },
    "returndatacopy_following_failing_call_d0g0v0_Frontier" : {
        "_info" : {
            "comment" : "",
            "filledwith" : "cpp-1.3.0+commit.ee0c6776.Linux.g++",
            "lllcversion" : "Version: 0.4.20-develop.2018.2.4+commit.c696803f.Linux.g++",
            "source" : "src/BlockchainTestsFiller/GeneralStateTests/stReturnDataTest/returndatacopy_following_failing_call_d0g0v0Filler.json",
            "sourceHash" : "1d128153a981841e2153cebc7a18a879087ac08aaf839e8bc5abcebd2657c97f"
        },
        "blocks" : [
            {
                "blockHeader" : {
                    "bloom" : "0x00000000000000000000000000000000000000000000000000000000000000000000000000000000000000000000000000000000000000000000000000000000000000000000000000000000000000000000000000000000000000000000000000000000000000000000000000000000000000000000000000000000000000000000000000000000000000000000000000000000000000000000000000000000000000000000000000000000000000000000000000000000000000000000000000000000000000000000000000000000000000000000000000000000000000000000000000000000000000000000000000000000000000000000000000000000",
                    "coinbase" : "0x2adc25665018aa1fe0e6bc666dac8fc2697ff9ba",
                    "difficulty" : "0x020000",
                    "extraData" : "",
                    "gasLimit" : "0x0a00000000",
                    "gasUsed" : "0x0a00000000",
                    "hash" : "0x001d0d5e6833e20948ac06951cc52b6d21a3de5f0580da40ecb9fac885c44727",
                    "mixHash" : "0x2af1efa58e6185506e5a19c29e5bc2c538539f2c77a5ad00165003222404ff39",
                    "nonce" : "0xc227d9e53aec438c",
                    "number" : "0x01",
                    "parentHash" : "0xfce3a19c4129332ccd514c37f867e372c46015054f42fa64215b812c6e85ee23",
                    "receiptTrie" : "0x97023e2ac02f924a2f3a30836d7095f4800db721fbfd6c892d215be6e40b7461",
                    "stateRoot" : "0x5a7a1b0f900700da3dcc57257e938471080da541dba776be71dbbfa877a7570f",
                    "timestamp" : "0x03e8",
                    "transactionsTrie" : "0xde317ba0085ad3bc6f64da920500c40ceb94789c007f8c54b3e766eae29616ab",
                    "uncleHash" : "0x1dcc4de8dec75d7aab85b567b6ccd41ad312451b948a7413f0a142fd40d49347"
                },
                "rlp" : "0xf90266f901fca0fce3a19c4129332ccd514c37f867e372c46015054f42fa64215b812c6e85ee23a01dcc4de8dec75d7aab85b567b6ccd41ad312451b948a7413f0a142fd40d49347942adc25665018aa1fe0e6bc666dac8fc2697ff9baa05a7a1b0f900700da3dcc57257e938471080da541dba776be71dbbfa877a7570fa0de317ba0085ad3bc6f64da920500c40ceb94789c007f8c54b3e766eae29616aba097023e2ac02f924a2f3a30836d7095f4800db721fbfd6c892d215be6e40b7461b90100000000000000000000000000000000000000000000000000000000000000000000000000000000000000000000000000000000000000000000000000000000000000000000000000000000000000000000000000000000000000000000000000000000000000000000000000000000000000000000000000000000000000000000000000000000000000000000000000000000000000000000000000000000000000000000000000000000000000000000000000000000000000000000000000000000000000000000000000000000000000000000000000000000000000000000000000000000000000000000000000000000000000000000000000000000008302000001850a00000000850a000000008203e880a02af1efa58e6185506e5a19c29e5bc2c538539f2c77a5ad00165003222404ff3988c227d9e53aec438cf864f8628001850a00000000940f572e5295c57f15886f9b263e2f6d2d6c7b5ec680801ba03b6c2d4d0d9d0abf4d624a6f2930e213789e9c00f679a9afa996fb4bd27cb507a024a40d7f4cf44278ac739ecf9eeba61554646709142d968ed1c555be138a3ea2c0",
                "transactions" : [
                    {
                        "data" : "0x",
                        "gasLimit" : "0x0a00000000",
                        "gasPrice" : "0x01",
                        "nonce" : "0x00",
                        "r" : "0x3b6c2d4d0d9d0abf4d624a6f2930e213789e9c00f679a9afa996fb4bd27cb507",
                        "s" : "0x24a40d7f4cf44278ac739ecf9eeba61554646709142d968ed1c555be138a3ea2",
                        "to" : "0x0f572e5295c57f15886f9b263e2f6d2d6c7b5ec6",
                        "v" : "0x1b",
                        "value" : "0x00"
                    }
                ],
                "uncleHeaders" : [
                ]
            }
        ],
        "genesisBlockHeader" : {
            "bloom" : "0x00000000000000000000000000000000000000000000000000000000000000000000000000000000000000000000000000000000000000000000000000000000000000000000000000000000000000000000000000000000000000000000000000000000000000000000000000000000000000000000000000000000000000000000000000000000000000000000000000000000000000000000000000000000000000000000000000000000000000000000000000000000000000000000000000000000000000000000000000000000000000000000000000000000000000000000000000000000000000000000000000000000000000000000000000000000",
            "coinbase" : "0x2adc25665018aa1fe0e6bc666dac8fc2697ff9ba",
            "difficulty" : "0x020000",
            "extraData" : "0x42",
            "gasLimit" : "0x0a00000000",
            "gasUsed" : "0x00",
            "hash" : "0xfce3a19c4129332ccd514c37f867e372c46015054f42fa64215b812c6e85ee23",
            "mixHash" : "0x56e81f171bcc55a6ff8345e692c0f86e5b48e01b996cadc001622fb5e363b421",
            "nonce" : "0x0102030405060708",
            "number" : "0x00",
            "parentHash" : "0x0000000000000000000000000000000000000000000000000000000000000000",
            "receiptTrie" : "0x56e81f171bcc55a6ff8345e692c0f86e5b48e01b996cadc001622fb5e363b421",
            "stateRoot" : "0xd47c2b8a35a7e8d1177aa60fcd9ea58ea6fd6ac9c08cef18c23d061228c97f6c",
            "timestamp" : "0x03b6",
            "transactionsTrie" : "0x56e81f171bcc55a6ff8345e692c0f86e5b48e01b996cadc001622fb5e363b421",
            "uncleHash" : "0x1dcc4de8dec75d7aab85b567b6ccd41ad312451b948a7413f0a142fd40d49347"
        },
        "genesisRLP" : "0xf901fcf901f7a00000000000000000000000000000000000000000000000000000000000000000a01dcc4de8dec75d7aab85b567b6ccd41ad312451b948a7413f0a142fd40d49347942adc25665018aa1fe0e6bc666dac8fc2697ff9baa0d47c2b8a35a7e8d1177aa60fcd9ea58ea6fd6ac9c08cef18c23d061228c97f6ca056e81f171bcc55a6ff8345e692c0f86e5b48e01b996cadc001622fb5e363b421a056e81f171bcc55a6ff8345e692c0f86e5b48e01b996cadc001622fb5e363b421b90100000000000000000000000000000000000000000000000000000000000000000000000000000000000000000000000000000000000000000000000000000000000000000000000000000000000000000000000000000000000000000000000000000000000000000000000000000000000000000000000000000000000000000000000000000000000000000000000000000000000000000000000000000000000000000000000000000000000000000000000000000000000000000000000000000000000000000000000000000000000000000000000000000000000000000000000000000000000000000000000000000000000000000000000000000000008302000080850a00000000808203b642a056e81f171bcc55a6ff8345e692c0f86e5b48e01b996cadc001622fb5e363b421880102030405060708c0c0",
        "lastblockhash" : "0x001d0d5e6833e20948ac06951cc52b6d21a3de5f0580da40ecb9fac885c44727",
        "network" : "Frontier",
        "postState" : {
            "0x0aabbccdd5c57f15886f9b263e2f6d2d6c7b5ec6" : {
                "balance" : "0x00",
                "code" : "0xfd",
                "nonce" : "0x00",
                "storage" : {
                }
            },
            "0x0f572e5295c57f15886f9b263e2f6d2d6c7b5ec6" : {
                "balance" : "0x00",
                "code" : "0x60006000600060006000730aabbccdd5c57f15886f9b263e2f6d2d6c7b5ec6640900000000f1506020600160003e600051600055",
                "nonce" : "0x00",
                "storage" : {
                    "0x00" : "0x01"
                }
            },
            "0x2adc25665018aa1fe0e6bc666dac8fc2697ff9ba" : {
                "balance" : "0x4563918c44f40000",
                "code" : "",
                "nonce" : "0x00",
                "storage" : {
                }
            },
            "0xa94f5374fce5edbc8e2a8697c15331677e6ebf0b" : {
                "balance" : "0x5a00000000",
                "code" : "",
                "nonce" : "0x01",
                "storage" : {
                }
            }
        },
        "pre" : {
            "0x0aabbccdd5c57f15886f9b263e2f6d2d6c7b5ec6" : {
                "balance" : "0x00",
                "code" : "0xfd",
                "nonce" : "0x00",
                "storage" : {
                }
            },
            "0x0f572e5295c57f15886f9b263e2f6d2d6c7b5ec6" : {
                "balance" : "0x00",
                "code" : "0x60006000600060006000730aabbccdd5c57f15886f9b263e2f6d2d6c7b5ec6640900000000f1506020600160003e600051600055",
                "nonce" : "0x00",
                "storage" : {
                    "0x00" : "0x01"
                }
            },
            "0xa94f5374fce5edbc8e2a8697c15331677e6ebf0b" : {
                "balance" : "0x6400000000",
                "code" : "",
                "nonce" : "0x00",
                "storage" : {
                }
            }
        }
    },
    "returndatacopy_following_failing_call_d0g0v0_Homestead" : {
        "_info" : {
            "comment" : "",
            "filledwith" : "cpp-1.3.0+commit.ee0c6776.Linux.g++",
            "lllcversion" : "Version: 0.4.20-develop.2018.2.4+commit.c696803f.Linux.g++",
            "source" : "src/BlockchainTestsFiller/GeneralStateTests/stReturnDataTest/returndatacopy_following_failing_call_d0g0v0Filler.json",
            "sourceHash" : "1d128153a981841e2153cebc7a18a879087ac08aaf839e8bc5abcebd2657c97f"
        },
        "blocks" : [
            {
                "blockHeader" : {
                    "bloom" : "0x00000000000000000000000000000000000000000000000000000000000000000000000000000000000000000000000000000000000000000000000000000000000000000000000000000000000000000000000000000000000000000000000000000000000000000000000000000000000000000000000000000000000000000000000000000000000000000000000000000000000000000000000000000000000000000000000000000000000000000000000000000000000000000000000000000000000000000000000000000000000000000000000000000000000000000000000000000000000000000000000000000000000000000000000000000000",
                    "coinbase" : "0x2adc25665018aa1fe0e6bc666dac8fc2697ff9ba",
                    "difficulty" : "0x020000",
                    "extraData" : "",
                    "gasLimit" : "0x0a00000000",
                    "gasUsed" : "0x0a00000000",
                    "hash" : "0xb7fabe83e374656386ca5c2878046db3fdb4282c9f7aa7f87898c849df719984",
                    "mixHash" : "0x23cf418618c7493423c5833833b850f75b69c5a2605e881adc1d705a7af0bb1f",
                    "nonce" : "0x0771a82f75641256",
                    "number" : "0x01",
                    "parentHash" : "0xfce3a19c4129332ccd514c37f867e372c46015054f42fa64215b812c6e85ee23",
                    "receiptTrie" : "0x97023e2ac02f924a2f3a30836d7095f4800db721fbfd6c892d215be6e40b7461",
                    "stateRoot" : "0x5a7a1b0f900700da3dcc57257e938471080da541dba776be71dbbfa877a7570f",
                    "timestamp" : "0x03e8",
                    "transactionsTrie" : "0xde317ba0085ad3bc6f64da920500c40ceb94789c007f8c54b3e766eae29616ab",
                    "uncleHash" : "0x1dcc4de8dec75d7aab85b567b6ccd41ad312451b948a7413f0a142fd40d49347"
                },
                "rlp" : "0xf90266f901fca0fce3a19c4129332ccd514c37f867e372c46015054f42fa64215b812c6e85ee23a01dcc4de8dec75d7aab85b567b6ccd41ad312451b948a7413f0a142fd40d49347942adc25665018aa1fe0e6bc666dac8fc2697ff9baa05a7a1b0f900700da3dcc57257e938471080da541dba776be71dbbfa877a7570fa0de317ba0085ad3bc6f64da920500c40ceb94789c007f8c54b3e766eae29616aba097023e2ac02f924a2f3a30836d7095f4800db721fbfd6c892d215be6e40b7461b90100000000000000000000000000000000000000000000000000000000000000000000000000000000000000000000000000000000000000000000000000000000000000000000000000000000000000000000000000000000000000000000000000000000000000000000000000000000000000000000000000000000000000000000000000000000000000000000000000000000000000000000000000000000000000000000000000000000000000000000000000000000000000000000000000000000000000000000000000000000000000000000000000000000000000000000000000000000000000000000000000000000000000000000000000000000008302000001850a00000000850a000000008203e880a023cf418618c7493423c5833833b850f75b69c5a2605e881adc1d705a7af0bb1f880771a82f75641256f864f8628001850a00000000940f572e5295c57f15886f9b263e2f6d2d6c7b5ec680801ba03b6c2d4d0d9d0abf4d624a6f2930e213789e9c00f679a9afa996fb4bd27cb507a024a40d7f4cf44278ac739ecf9eeba61554646709142d968ed1c555be138a3ea2c0",
                "transactions" : [
                    {
                        "data" : "0x",
                        "gasLimit" : "0x0a00000000",
                        "gasPrice" : "0x01",
                        "nonce" : "0x00",
                        "r" : "0x3b6c2d4d0d9d0abf4d624a6f2930e213789e9c00f679a9afa996fb4bd27cb507",
                        "s" : "0x24a40d7f4cf44278ac739ecf9eeba61554646709142d968ed1c555be138a3ea2",
                        "to" : "0x0f572e5295c57f15886f9b263e2f6d2d6c7b5ec6",
                        "v" : "0x1b",
                        "value" : "0x00"
                    }
                ],
                "uncleHeaders" : [
                ]
            }
        ],
        "genesisBlockHeader" : {
            "bloom" : "0x00000000000000000000000000000000000000000000000000000000000000000000000000000000000000000000000000000000000000000000000000000000000000000000000000000000000000000000000000000000000000000000000000000000000000000000000000000000000000000000000000000000000000000000000000000000000000000000000000000000000000000000000000000000000000000000000000000000000000000000000000000000000000000000000000000000000000000000000000000000000000000000000000000000000000000000000000000000000000000000000000000000000000000000000000000000",
            "coinbase" : "0x2adc25665018aa1fe0e6bc666dac8fc2697ff9ba",
            "difficulty" : "0x020000",
            "extraData" : "0x42",
            "gasLimit" : "0x0a00000000",
            "gasUsed" : "0x00",
            "hash" : "0xfce3a19c4129332ccd514c37f867e372c46015054f42fa64215b812c6e85ee23",
            "mixHash" : "0x56e81f171bcc55a6ff8345e692c0f86e5b48e01b996cadc001622fb5e363b421",
            "nonce" : "0x0102030405060708",
            "number" : "0x00",
            "parentHash" : "0x0000000000000000000000000000000000000000000000000000000000000000",
            "receiptTrie" : "0x56e81f171bcc55a6ff8345e692c0f86e5b48e01b996cadc001622fb5e363b421",
            "stateRoot" : "0xd47c2b8a35a7e8d1177aa60fcd9ea58ea6fd6ac9c08cef18c23d061228c97f6c",
            "timestamp" : "0x03b6",
            "transactionsTrie" : "0x56e81f171bcc55a6ff8345e692c0f86e5b48e01b996cadc001622fb5e363b421",
            "uncleHash" : "0x1dcc4de8dec75d7aab85b567b6ccd41ad312451b948a7413f0a142fd40d49347"
        },
        "genesisRLP" : "0xf901fcf901f7a00000000000000000000000000000000000000000000000000000000000000000a01dcc4de8dec75d7aab85b567b6ccd41ad312451b948a7413f0a142fd40d49347942adc25665018aa1fe0e6bc666dac8fc2697ff9baa0d47c2b8a35a7e8d1177aa60fcd9ea58ea6fd6ac9c08cef18c23d061228c97f6ca056e81f171bcc55a6ff8345e692c0f86e5b48e01b996cadc001622fb5e363b421a056e81f171bcc55a6ff8345e692c0f86e5b48e01b996cadc001622fb5e363b421b90100000000000000000000000000000000000000000000000000000000000000000000000000000000000000000000000000000000000000000000000000000000000000000000000000000000000000000000000000000000000000000000000000000000000000000000000000000000000000000000000000000000000000000000000000000000000000000000000000000000000000000000000000000000000000000000000000000000000000000000000000000000000000000000000000000000000000000000000000000000000000000000000000000000000000000000000000000000000000000000000000000000000000000000000000000000008302000080850a00000000808203b642a056e81f171bcc55a6ff8345e692c0f86e5b48e01b996cadc001622fb5e363b421880102030405060708c0c0",
        "lastblockhash" : "0xb7fabe83e374656386ca5c2878046db3fdb4282c9f7aa7f87898c849df719984",
        "network" : "Homestead",
        "postState" : {
            "0x0aabbccdd5c57f15886f9b263e2f6d2d6c7b5ec6" : {
                "balance" : "0x00",
                "code" : "0xfd",
                "nonce" : "0x00",
                "storage" : {
                }
            },
            "0x0f572e5295c57f15886f9b263e2f6d2d6c7b5ec6" : {
                "balance" : "0x00",
                "code" : "0x60006000600060006000730aabbccdd5c57f15886f9b263e2f6d2d6c7b5ec6640900000000f1506020600160003e600051600055",
                "nonce" : "0x00",
                "storage" : {
                    "0x00" : "0x01"
                }
            },
            "0x2adc25665018aa1fe0e6bc666dac8fc2697ff9ba" : {
                "balance" : "0x4563918c44f40000",
                "code" : "",
                "nonce" : "0x00",
                "storage" : {
                }
            },
            "0xa94f5374fce5edbc8e2a8697c15331677e6ebf0b" : {
                "balance" : "0x5a00000000",
                "code" : "",
                "nonce" : "0x01",
                "storage" : {
                }
            }
        },
        "pre" : {
            "0x0aabbccdd5c57f15886f9b263e2f6d2d6c7b5ec6" : {
                "balance" : "0x00",
                "code" : "0xfd",
                "nonce" : "0x00",
                "storage" : {
                }
            },
            "0x0f572e5295c57f15886f9b263e2f6d2d6c7b5ec6" : {
                "balance" : "0x00",
                "code" : "0x60006000600060006000730aabbccdd5c57f15886f9b263e2f6d2d6c7b5ec6640900000000f1506020600160003e600051600055",
                "nonce" : "0x00",
                "storage" : {
                    "0x00" : "0x01"
                }
            },
            "0xa94f5374fce5edbc8e2a8697c15331677e6ebf0b" : {
                "balance" : "0x6400000000",
                "code" : "",
                "nonce" : "0x00",
                "storage" : {
                }
            }
        }
    }
}