{
    "push0Gas2_d0g0v0_London" : {
        "_info" : {
            "comment" : "",
            "filling-rpc-server" : "evm version 1.10.18-unstable-e0a1fd5f-20220511",
            "filling-tool-version" : "retesteth-0.2.2-testinfo+commit.764be094.Linux.g++",
            "generatedTestHash" : "1a9667ec73201d7020639aeeb13c7ba541a8d5891a870c6912f667a2fc936783",
            "lllcversion" : "Version: 0.5.14-develop.2022.4.6+commit.401d5358.Linux.g++",
            "solidity" : "Version: 0.8.5+commit.a4f2e591.Linux.g++",
            "source" : "src/GeneralStateTestsFiller/VMTests/vmTests/push0Gas2Filler.yml",
            "sourceHash" : "93adb5d5680bfa21601719a9558b45a49a87f139451c6011e4540d8ea74212dd"
        },
        "blocks" : [
            {
                "blockHeader" : {
                    "baseFeePerGas" : "0x0a",
                    "bloom" : "0x00000000000000000000000000000000000000000000000000000000000000000000000000000000000000000000000000000000000000000000000000000000000000000000000000000000000000000000000000000000000000000000000000000000000000000000000000000000000000000000000000000000000000000000000000000000000000000000000000000000000000000000000000000000000000000000000000000000000000000000000000000000000000000000000000000000000000000000000000000000000000000000000000000000000000000000000000000000000000000000000000000000000000000000000000000000",
                    "coinbase" : "0x2adc25665018aa1fe0e6bc666dac8fc2697ff9ba",
                    "difficulty" : "0x020000",
                    "extraData" : "0x00",
                    "gasLimit" : "0x05500000",
                    "gasUsed" : "0x02423f",
                    "hash" : "0xa0dc89f6234ac0aa948f5ccf205498b41706ad0ee766bd59cdcad1b991c64fca",
                    "mixHash" : "0x0000000000000000000000000000000000000000000000000000000000000000",
                    "nonce" : "0x0000000000000000",
                    "number" : "0x01",
                    "parentHash" : "0x96976223b64156e684a00b9c5256409b15703133cf4f38ab080cf581ed77683a",
                    "receiptTrie" : "0xa2a11e82047086b298344363ffbbe7a7b10a2f58b4428894feb12e9c547b9394",
                    "stateRoot" : "0xf83db856f6f2b33637285e2fc2a13e8563f4b5fe5c1bdb928c70712934433d57",
                    "timestamp" : "0x03e8",
                    "transactionsTrie" : "0xb81c540ef9e6ab173f28d35f73bf374b6d425b9a28e1f30e871db31ee92d49fa",
                    "uncleHash" : "0x1dcc4de8dec75d7aab85b567b6ccd41ad312451b948a7413f0a142fd40d49347"
                },
                "rlp" : "0xf90276f901faa096976223b64156e684a00b9c5256409b15703133cf4f38ab080cf581ed77683aa01dcc4de8dec75d7aab85b567b6ccd41ad312451b948a7413f0a142fd40d49347942adc25665018aa1fe0e6bc666dac8fc2697ff9baa0f83db856f6f2b33637285e2fc2a13e8563f4b5fe5c1bdb928c70712934433d57a0b81c540ef9e6ab173f28d35f73bf374b6d425b9a28e1f30e871db31ee92d49faa0a2a11e82047086b298344363ffbbe7a7b10a2f58b4428894feb12e9c547b9394b9010000000000000000000000000000000000000000000000000000000000000000000000000000000000000000000000000000000000000000000000000000000000000000000000000000000000000000000000000000000000000000000000000000000000000000000000000000000000000000000000000000000000000000000000000000000000000000000000000000000000000000000000000000000000000000000000000000000000000000000000000000000000000000000000000000000000000000000000000000000000000000000000000000000000000000000000000000000000000000000000000000000000000000000000000000000000830200000184055000008302423f8203e800a000000000000000000000000000000000000000000000000000000000000000008800000000000000000af876f874800a830493e094b94f5374fce5edbc8e2a8697c15331677e6ebf0b809400000000000000000000000000000000000001001ca07ca35b9faa1194e9e41b540d2b6e444e4fa53ad965c7ec13daee2d66a6bb6b17a0277aeba1448340329eaf4924eef938e51e7e7be7bc980e25a9bf6caf358603d9c0",
                "transactions" : [
                    {
                        "data" : "0x0000000000000000000000000000000000000100",
                        "gasLimit" : "0x0493e0",
                        "gasPrice" : "0x0a",
                        "nonce" : "0x00",
                        "r" : "0x7ca35b9faa1194e9e41b540d2b6e444e4fa53ad965c7ec13daee2d66a6bb6b17",
                        "s" : "0x277aeba1448340329eaf4924eef938e51e7e7be7bc980e25a9bf6caf358603d9",
                        "sender" : "0xa94f5374fce5edbc8e2a8697c15331677e6ebf0b",
                        "to" : "0xb94f5374fce5edbc8e2a8697c15331677e6ebf0b",
                        "v" : "0x1c",
                        "value" : "0x00"
                    }
                ],
                "uncleHeaders" : [
                ]
            }
        ],
        "genesisBlockHeader" : {
            "baseFeePerGas" : "0x0b",
            "bloom" : "0x00000000000000000000000000000000000000000000000000000000000000000000000000000000000000000000000000000000000000000000000000000000000000000000000000000000000000000000000000000000000000000000000000000000000000000000000000000000000000000000000000000000000000000000000000000000000000000000000000000000000000000000000000000000000000000000000000000000000000000000000000000000000000000000000000000000000000000000000000000000000000000000000000000000000000000000000000000000000000000000000000000000000000000000000000000000",
            "coinbase" : "0x2adc25665018aa1fe0e6bc666dac8fc2697ff9ba",
            "difficulty" : "0x020000",
            "extraData" : "0x00",
            "gasLimit" : "0x05500000",
            "gasUsed" : "0x00",
            "hash" : "0x96976223b64156e684a00b9c5256409b15703133cf4f38ab080cf581ed77683a",
            "mixHash" : "0x0000000000000000000000000000000000000000000000000000000000000000",
            "nonce" : "0x0000000000000000",
            "number" : "0x00",
            "parentHash" : "0x0000000000000000000000000000000000000000000000000000000000000000",
            "receiptTrie" : "0x56e81f171bcc55a6ff8345e692c0f86e5b48e01b996cadc001622fb5e363b421",
            "stateRoot" : "0x89444575b5c0919b3e08fb13469ed832d1b63870a6ad6f8e50a829be7a1f9832",
            "timestamp" : "0x00",
            "transactionsTrie" : "0x56e81f171bcc55a6ff8345e692c0f86e5b48e01b996cadc001622fb5e363b421",
            "uncleHash" : "0x1dcc4de8dec75d7aab85b567b6ccd41ad312451b948a7413f0a142fd40d49347"
        },
        "genesisRLP" : "0xf901faf901f5a00000000000000000000000000000000000000000000000000000000000000000a01dcc4de8dec75d7aab85b567b6ccd41ad312451b948a7413f0a142fd40d49347942adc25665018aa1fe0e6bc666dac8fc2697ff9baa089444575b5c0919b3e08fb13469ed832d1b63870a6ad6f8e50a829be7a1f9832a056e81f171bcc55a6ff8345e692c0f86e5b48e01b996cadc001622fb5e363b421a056e81f171bcc55a6ff8345e692c0f86e5b48e01b996cadc001622fb5e363b421b901000000000000000000000000000000000000000000000000000000000000000000000000000000000000000000000000000000000000000000000000000000000000000000000000000000000000000000000000000000000000000000000000000000000000000000000000000000000000000000000000000000000000000000000000000000000000000000000000000000000000000000000000000000000000000000000000000000000000000000000000000000000000000000000000000000000000000000000000000000000000000000000000000000000000000000000000000000000000000000000000000000000000000000000000000000000083020000808405500000808000a000000000000000000000000000000000000000000000000000000000000000008800000000000000000bc0c0",
        "lastblockhash" : "0xa0dc89f6234ac0aa948f5ccf205498b41706ad0ee766bd59cdcad1b991c64fca",
        "network" : "London",
        "postState" : {
            "0x0000000000000000000000000000000000000100" : {
                "balance" : "0x00",
                "code" : "0x5a5f5a9091039055",
                "nonce" : "0x00",
                "storage" : {
                }
            },
            "0x0000000000000000000000000000000000000200" : {
                "balance" : "0x00",
                "code" : "0x5a60005a9091039055",
                "nonce" : "0x00",
                "storage" : {
                }
            },
            "0x2adc25665018aa1fe0e6bc666dac8fc2697ff9ba" : {
                "balance" : "0x1bc16d674ec80000",
                "code" : "0x",
                "nonce" : "0x00",
                "storage" : {
                }
            },
            "0xa94f5374fce5edbc8e2a8697c15331677e6ebf0b" : {
                "balance" : "0x82000a",
                "code" : "0x",
                "nonce" : "0x01",
                "storage" : {
                }
            },
            "0xb94f5374fce5edbc8e2a8697c15331677e6ebf0b" : {
                "balance" : "0x00",
                "code" : "0x6000600060006000600060003560601c620186a0f16000556001600155",
                "nonce" : "0x00",
                "storage" : {
                    "0x01" : "0x01"
                }
            }
        },
        "pre" : {
            "0x0000000000000000000000000000000000000100" : {
                "balance" : "0x00",
                "code" : "0x5a5f5a9091039055",
                "nonce" : "0x00",
                "storage" : {
                }
            },
            "0x0000000000000000000000000000000000000200" : {
                "balance" : "0x00",
                "code" : "0x5a60005a9091039055",
                "nonce" : "0x00",
                "storage" : {
                }
            },
            "0xa94f5374fce5edbc8e2a8697c15331677e6ebf0b" : {
                "balance" : "0x989680",
                "code" : "0x",
                "nonce" : "0x00",
                "storage" : {
                }
            },
            "0xb94f5374fce5edbc8e2a8697c15331677e6ebf0b" : {
                "balance" : "0x00",
                "code" : "0x6000600060006000600060003560601c620186a0f16000556001600155",
                "nonce" : "0x00",
                "storage" : {
                }
            }
        },
        "sealEngine" : "NoProof"
    },
    "push0Gas2_d0g0v0_London+3855" : {
        "_info" : {
            "comment" : "",
            "filling-rpc-server" : "evm version 1.10.18-unstable-e0a1fd5f-20220511",
            "filling-tool-version" : "retesteth-0.2.2-testinfo+commit.764be094.Linux.g++",
            "generatedTestHash" : "6b0e976fee7e84029f12942db821ea32064c77bddb05fd311f370ed46224579b",
            "lllcversion" : "Version: 0.5.14-develop.2022.4.6+commit.401d5358.Linux.g++",
            "solidity" : "Version: 0.8.5+commit.a4f2e591.Linux.g++",
            "source" : "src/GeneralStateTestsFiller/VMTests/vmTests/push0Gas2Filler.yml",
            "sourceHash" : "93adb5d5680bfa21601719a9558b45a49a87f139451c6011e4540d8ea74212dd"
        },
        "blocks" : [
            {
                "blockHeader" : {
                    "baseFeePerGas" : "0x0a",
                    "bloom" : "0x00000000000000000000000000000000000000000000000000000000000000000000000000000000000000000000000000000000000000000000000000000000000000000000000000000000000000000000000000000000000000000000000000000000000000000000000000000000000000000000000000000000000000000000000000000000000000000000000000000000000000000000000000000000000000000000000000000000000000000000000000000000000000000000000000000000000000000000000000000000000000000000000000000000000000000000000000000000000000000000000000000000000000000000000000000000",
                    "coinbase" : "0x2adc25665018aa1fe0e6bc666dac8fc2697ff9ba",
                    "difficulty" : "0x020000",
                    "extraData" : "0x00",
                    "gasLimit" : "0x05500000",
                    "gasUsed" : "0x015fc1",
                    "hash" : "0xe010d3d37864e5b20458afe9701c36f77ebc35b463d9726ce5122a2ac2b735c7",
                    "mixHash" : "0x0000000000000000000000000000000000000000000000000000000000000000",
                    "nonce" : "0x0000000000000000",
                    "number" : "0x01",
                    "parentHash" : "0x96976223b64156e684a00b9c5256409b15703133cf4f38ab080cf581ed77683a",
                    "receiptTrie" : "0x51d71b1989bda5410b5dff44af6f22ce9b5aec30d0b55d78178339ac8b09bd06",
                    "stateRoot" : "0xa19824bc0e4c164cd8821ff4ae1544066206c33935b119cb77d15f1deaf04b37",
                    "timestamp" : "0x03e8",
                    "transactionsTrie" : "0xb81c540ef9e6ab173f28d35f73bf374b6d425b9a28e1f30e871db31ee92d49fa",
                    "uncleHash" : "0x1dcc4de8dec75d7aab85b567b6ccd41ad312451b948a7413f0a142fd40d49347"
                },
                "rlp" : "0xf90276f901faa096976223b64156e684a00b9c5256409b15703133cf4f38ab080cf581ed77683aa01dcc4de8dec75d7aab85b567b6ccd41ad312451b948a7413f0a142fd40d49347942adc25665018aa1fe0e6bc666dac8fc2697ff9baa0a19824bc0e4c164cd8821ff4ae1544066206c33935b119cb77d15f1deaf04b37a0b81c540ef9e6ab173f28d35f73bf374b6d425b9a28e1f30e871db31ee92d49faa051d71b1989bda5410b5dff44af6f22ce9b5aec30d0b55d78178339ac8b09bd06b90100000000000000000000000000000000000000000000000000000000000000000000000000000000000000000000000000000000000000000000000000000000000000000000000000000000000000000000000000000000000000000000000000000000000000000000000000000000000000000000000000000000000000000000000000000000000000000000000000000000000000000000000000000000000000000000000000000000000000000000000000000000000000000000000000000000000000000000000000000000000000000000000000000000000000000000000000000000000000000000000000000000000000000000000000000000008302000001840550000083015fc18203e800a000000000000000000000000000000000000000000000000000000000000000008800000000000000000af876f874800a830493e094b94f5374fce5edbc8e2a8697c15331677e6ebf0b809400000000000000000000000000000000000001001ca07ca35b9faa1194e9e41b540d2b6e444e4fa53ad965c7ec13daee2d66a6bb6b17a0277aeba1448340329eaf4924eef938e51e7e7be7bc980e25a9bf6caf358603d9c0",
                "transactions" : [
                    {
                        "data" : "0x0000000000000000000000000000000000000100",
                        "gasLimit" : "0x0493e0",
                        "gasPrice" : "0x0a",
                        "nonce" : "0x00",
                        "r" : "0x7ca35b9faa1194e9e41b540d2b6e444e4fa53ad965c7ec13daee2d66a6bb6b17",
                        "s" : "0x277aeba1448340329eaf4924eef938e51e7e7be7bc980e25a9bf6caf358603d9",
                        "sender" : "0xa94f5374fce5edbc8e2a8697c15331677e6ebf0b",
                        "to" : "0xb94f5374fce5edbc8e2a8697c15331677e6ebf0b",
                        "v" : "0x1c",
                        "value" : "0x00"
                    }
                ],
                "uncleHeaders" : [
                ]
            }
        ],
        "genesisBlockHeader" : {
            "baseFeePerGas" : "0x0b",
            "bloom" : "0x00000000000000000000000000000000000000000000000000000000000000000000000000000000000000000000000000000000000000000000000000000000000000000000000000000000000000000000000000000000000000000000000000000000000000000000000000000000000000000000000000000000000000000000000000000000000000000000000000000000000000000000000000000000000000000000000000000000000000000000000000000000000000000000000000000000000000000000000000000000000000000000000000000000000000000000000000000000000000000000000000000000000000000000000000000000",
            "coinbase" : "0x2adc25665018aa1fe0e6bc666dac8fc2697ff9ba",
            "difficulty" : "0x020000",
            "extraData" : "0x00",
            "gasLimit" : "0x05500000",
            "gasUsed" : "0x00",
            "hash" : "0x96976223b64156e684a00b9c5256409b15703133cf4f38ab080cf581ed77683a",
            "mixHash" : "0x0000000000000000000000000000000000000000000000000000000000000000",
            "nonce" : "0x0000000000000000",
            "number" : "0x00",
            "parentHash" : "0x0000000000000000000000000000000000000000000000000000000000000000",
            "receiptTrie" : "0x56e81f171bcc55a6ff8345e692c0f86e5b48e01b996cadc001622fb5e363b421",
            "stateRoot" : "0x89444575b5c0919b3e08fb13469ed832d1b63870a6ad6f8e50a829be7a1f9832",
            "timestamp" : "0x00",
            "transactionsTrie" : "0x56e81f171bcc55a6ff8345e692c0f86e5b48e01b996cadc001622fb5e363b421",
            "uncleHash" : "0x1dcc4de8dec75d7aab85b567b6ccd41ad312451b948a7413f0a142fd40d49347"
        },
        "genesisRLP" : "0xf901faf901f5a00000000000000000000000000000000000000000000000000000000000000000a01dcc4de8dec75d7aab85b567b6ccd41ad312451b948a7413f0a142fd40d49347942adc25665018aa1fe0e6bc666dac8fc2697ff9baa089444575b5c0919b3e08fb13469ed832d1b63870a6ad6f8e50a829be7a1f9832a056e81f171bcc55a6ff8345e692c0f86e5b48e01b996cadc001622fb5e363b421a056e81f171bcc55a6ff8345e692c0f86e5b48e01b996cadc001622fb5e363b421b901000000000000000000000000000000000000000000000000000000000000000000000000000000000000000000000000000000000000000000000000000000000000000000000000000000000000000000000000000000000000000000000000000000000000000000000000000000000000000000000000000000000000000000000000000000000000000000000000000000000000000000000000000000000000000000000000000000000000000000000000000000000000000000000000000000000000000000000000000000000000000000000000000000000000000000000000000000000000000000000000000000000000000000000000000000000083020000808405500000808000a000000000000000000000000000000000000000000000000000000000000000008800000000000000000bc0c0",
        "lastblockhash" : "0xe010d3d37864e5b20458afe9701c36f77ebc35b463d9726ce5122a2ac2b735c7",
        "network" : "London+3855",
        "postState" : {
            "0x0000000000000000000000000000000000000100" : {
                "balance" : "0x00",
                "code" : "0x5a5f5a9091039055",
                "nonce" : "0x00",
                "storage" : {
                    "0x00" : "0x04"
                }
            },
            "0x0000000000000000000000000000000000000200" : {
                "balance" : "0x00",
                "code" : "0x5a60005a9091039055",
                "nonce" : "0x00",
                "storage" : {
                }
            },
            "0x2adc25665018aa1fe0e6bc666dac8fc2697ff9ba" : {
                "balance" : "0x1bc16d674ec80000",
                "code" : "0x",
                "nonce" : "0x00",
                "storage" : {
                }
            },
            "0xa94f5374fce5edbc8e2a8697c15331677e6ebf0b" : {
                "balance" : "0x8ad8f6",
                "code" : "0x",
                "nonce" : "0x01",
                "storage" : {
                }
            },
            "0xb94f5374fce5edbc8e2a8697c15331677e6ebf0b" : {
                "balance" : "0x00",
                "code" : "0x6000600060006000600060003560601c620186a0f16000556001600155",
                "nonce" : "0x00",
                "storage" : {
                    "0x00" : "0x01",
                    "0x01" : "0x01"
                }
            }
        },
        "pre" : {
            "0x0000000000000000000000000000000000000100" : {
                "balance" : "0x00",
                "code" : "0x5a5f5a9091039055",
                "nonce" : "0x00",
                "storage" : {
                }
            },
            "0x0000000000000000000000000000000000000200" : {
                "balance" : "0x00",
                "code" : "0x5a60005a9091039055",
                "nonce" : "0x00",
                "storage" : {
                }
            },
            "0xa94f5374fce5edbc8e2a8697c15331677e6ebf0b" : {
                "balance" : "0x989680",
                "code" : "0x",
                "nonce" : "0x00",
                "storage" : {
                }
            },
            "0xb94f5374fce5edbc8e2a8697c15331677e6ebf0b" : {
                "balance" : "0x00",
                "code" : "0x6000600060006000600060003560601c620186a0f16000556001600155",
                "nonce" : "0x00",
                "storage" : {
                }
            }
        },
        "sealEngine" : "NoProof"
    },
    "push0Gas2_d1g0v0_London" : {
        "_info" : {
            "comment" : "",
            "filling-rpc-server" : "evm version 1.10.18-unstable-e0a1fd5f-20220511",
            "filling-tool-version" : "retesteth-0.2.2-testinfo+commit.764be094.Linux.g++",
            "generatedTestHash" : "7fc265a10c01586e1475358c0f72bebc70c38c603bb8c8fd1fe339dd528e9bcc",
            "lllcversion" : "Version: 0.5.14-develop.2022.4.6+commit.401d5358.Linux.g++",
            "solidity" : "Version: 0.8.5+commit.a4f2e591.Linux.g++",
            "source" : "src/GeneralStateTestsFiller/VMTests/vmTests/push0Gas2Filler.yml",
            "sourceHash" : "93adb5d5680bfa21601719a9558b45a49a87f139451c6011e4540d8ea74212dd"
        },
        "blocks" : [
            {
                "blockHeader" : {
                    "baseFeePerGas" : "0x0a",
                    "bloom" : "0x00000000000000000000000000000000000000000000000000000000000000000000000000000000000000000000000000000000000000000000000000000000000000000000000000000000000000000000000000000000000000000000000000000000000000000000000000000000000000000000000000000000000000000000000000000000000000000000000000000000000000000000000000000000000000000000000000000000000000000000000000000000000000000000000000000000000000000000000000000000000000000000000000000000000000000000000000000000000000000000000000000000000000000000000000000000",
                    "coinbase" : "0x2adc25665018aa1fe0e6bc666dac8fc2697ff9ba",
                    "difficulty" : "0x020000",
                    "extraData" : "0x00",
                    "gasLimit" : "0x05500000",
                    "gasUsed" : "0x015fc2",
                    "hash" : "0xdc5a2e2eb8dd6b356448bf6d2bb81d1213ec1c0b34d48bd67c41b1719f1a2f49",
                    "mixHash" : "0x0000000000000000000000000000000000000000000000000000000000000000",
                    "nonce" : "0x0000000000000000",
                    "number" : "0x01",
                    "parentHash" : "0x96976223b64156e684a00b9c5256409b15703133cf4f38ab080cf581ed77683a",
                    "receiptTrie" : "0xee08efce4bf702555dd45c5f7364ce650533104df283abe14190c37250625ec7",
                    "stateRoot" : "0xf43756d3af5e7831b3ce96e05ae4ba934454271095e0d50f0d2c42f182b7cdb6",
                    "timestamp" : "0x03e8",
                    "transactionsTrie" : "0xb36956b72c3e1d7a4b37c17f48750969ad39b086937ec2550e859d1c7f9d5229",
                    "uncleHash" : "0x1dcc4de8dec75d7aab85b567b6ccd41ad312451b948a7413f0a142fd40d49347"
                },
                "rlp" : "0xf90276f901faa096976223b64156e684a00b9c5256409b15703133cf4f38ab080cf581ed77683aa01dcc4de8dec75d7aab85b567b6ccd41ad312451b948a7413f0a142fd40d49347942adc25665018aa1fe0e6bc666dac8fc2697ff9baa0f43756d3af5e7831b3ce96e05ae4ba934454271095e0d50f0d2c42f182b7cdb6a0b36956b72c3e1d7a4b37c17f48750969ad39b086937ec2550e859d1c7f9d5229a0ee08efce4bf702555dd45c5f7364ce650533104df283abe14190c37250625ec7b90100000000000000000000000000000000000000000000000000000000000000000000000000000000000000000000000000000000000000000000000000000000000000000000000000000000000000000000000000000000000000000000000000000000000000000000000000000000000000000000000000000000000000000000000000000000000000000000000000000000000000000000000000000000000000000000000000000000000000000000000000000000000000000000000000000000000000000000000000000000000000000000000000000000000000000000000000000000000000000000000000000000000000000000000000000000008302000001840550000083015fc28203e800a000000000000000000000000000000000000000000000000000000000000000008800000000000000000af876f874800a830493e094b94f5374fce5edbc8e2a8697c15331677e6ebf0b809400000000000000000000000000000000000002001ca065aa51a4adb898398fcfa495e7657d2aeedfb7dc5a81dd492464ca7e658e5ba6a0493cdb6782f806fb8b4b61766288b7fb6240cde8a7b97a96b4d6db75d8aed4a5c0",
                "transactions" : [
                    {
                        "data" : "0x0000000000000000000000000000000000000200",
                        "gasLimit" : "0x0493e0",
                        "gasPrice" : "0x0a",
                        "nonce" : "0x00",
                        "r" : "0x65aa51a4adb898398fcfa495e7657d2aeedfb7dc5a81dd492464ca7e658e5ba6",
                        "s" : "0x493cdb6782f806fb8b4b61766288b7fb6240cde8a7b97a96b4d6db75d8aed4a5",
                        "sender" : "0xa94f5374fce5edbc8e2a8697c15331677e6ebf0b",
                        "to" : "0xb94f5374fce5edbc8e2a8697c15331677e6ebf0b",
                        "v" : "0x1c",
                        "value" : "0x00"
                    }
                ],
                "uncleHeaders" : [
                ]
            }
        ],
        "genesisBlockHeader" : {
            "baseFeePerGas" : "0x0b",
            "bloom" : "0x00000000000000000000000000000000000000000000000000000000000000000000000000000000000000000000000000000000000000000000000000000000000000000000000000000000000000000000000000000000000000000000000000000000000000000000000000000000000000000000000000000000000000000000000000000000000000000000000000000000000000000000000000000000000000000000000000000000000000000000000000000000000000000000000000000000000000000000000000000000000000000000000000000000000000000000000000000000000000000000000000000000000000000000000000000000",
            "coinbase" : "0x2adc25665018aa1fe0e6bc666dac8fc2697ff9ba",
            "difficulty" : "0x020000",
            "extraData" : "0x00",
            "gasLimit" : "0x05500000",
            "gasUsed" : "0x00",
            "hash" : "0x96976223b64156e684a00b9c5256409b15703133cf4f38ab080cf581ed77683a",
            "mixHash" : "0x0000000000000000000000000000000000000000000000000000000000000000",
            "nonce" : "0x0000000000000000",
            "number" : "0x00",
            "parentHash" : "0x0000000000000000000000000000000000000000000000000000000000000000",
            "receiptTrie" : "0x56e81f171bcc55a6ff8345e692c0f86e5b48e01b996cadc001622fb5e363b421",
            "stateRoot" : "0x89444575b5c0919b3e08fb13469ed832d1b63870a6ad6f8e50a829be7a1f9832",
            "timestamp" : "0x00",
            "transactionsTrie" : "0x56e81f171bcc55a6ff8345e692c0f86e5b48e01b996cadc001622fb5e363b421",
            "uncleHash" : "0x1dcc4de8dec75d7aab85b567b6ccd41ad312451b948a7413f0a142fd40d49347"
        },
        "genesisRLP" : "0xf901faf901f5a00000000000000000000000000000000000000000000000000000000000000000a01dcc4de8dec75d7aab85b567b6ccd41ad312451b948a7413f0a142fd40d49347942adc25665018aa1fe0e6bc666dac8fc2697ff9baa089444575b5c0919b3e08fb13469ed832d1b63870a6ad6f8e50a829be7a1f9832a056e81f171bcc55a6ff8345e692c0f86e5b48e01b996cadc001622fb5e363b421a056e81f171bcc55a6ff8345e692c0f86e5b48e01b996cadc001622fb5e363b421b901000000000000000000000000000000000000000000000000000000000000000000000000000000000000000000000000000000000000000000000000000000000000000000000000000000000000000000000000000000000000000000000000000000000000000000000000000000000000000000000000000000000000000000000000000000000000000000000000000000000000000000000000000000000000000000000000000000000000000000000000000000000000000000000000000000000000000000000000000000000000000000000000000000000000000000000000000000000000000000000000000000000000000000000000000000000083020000808405500000808000a000000000000000000000000000000000000000000000000000000000000000008800000000000000000bc0c0",
        "lastblockhash" : "0xdc5a2e2eb8dd6b356448bf6d2bb81d1213ec1c0b34d48bd67c41b1719f1a2f49",
        "network" : "London",
        "postState" : {
            "0x0000000000000000000000000000000000000100" : {
                "balance" : "0x00",
                "code" : "0x5a5f5a9091039055",
                "nonce" : "0x00",
                "storage" : {
                }
            },
            "0x0000000000000000000000000000000000000200" : {
                "balance" : "0x00",
                "code" : "0x5a60005a9091039055",
                "nonce" : "0x00",
                "storage" : {
                    "0x00" : "0x05"
                }
            },
            "0x2adc25665018aa1fe0e6bc666dac8fc2697ff9ba" : {
                "balance" : "0x1bc16d674ec80000",
                "code" : "0x",
                "nonce" : "0x00",
                "storage" : {
                }
            },
            "0xa94f5374fce5edbc8e2a8697c15331677e6ebf0b" : {
                "balance" : "0x8ad8ec",
                "code" : "0x",
                "nonce" : "0x01",
                "storage" : {
                }
            },
            "0xb94f5374fce5edbc8e2a8697c15331677e6ebf0b" : {
                "balance" : "0x00",
                "code" : "0x6000600060006000600060003560601c620186a0f16000556001600155",
                "nonce" : "0x00",
                "storage" : {
                    "0x00" : "0x01",
                    "0x01" : "0x01"
                }
            }
        },
        "pre" : {
            "0x0000000000000000000000000000000000000100" : {
                "balance" : "0x00",
                "code" : "0x5a5f5a9091039055",
                "nonce" : "0x00",
                "storage" : {
                }
            },
            "0x0000000000000000000000000000000000000200" : {
                "balance" : "0x00",
                "code" : "0x5a60005a9091039055",
                "nonce" : "0x00",
                "storage" : {
                }
            },
            "0xa94f5374fce5edbc8e2a8697c15331677e6ebf0b" : {
                "balance" : "0x989680",
                "code" : "0x",
                "nonce" : "0x00",
                "storage" : {
                }
            },
            "0xb94f5374fce5edbc8e2a8697c15331677e6ebf0b" : {
                "balance" : "0x00",
                "code" : "0x6000600060006000600060003560601c620186a0f16000556001600155",
                "nonce" : "0x00",
                "storage" : {
                }
            }
        },
        "sealEngine" : "NoProof"
    },
    "push0Gas2_d1g0v0_London+3855" : {
        "_info" : {
            "comment" : "",
            "filling-rpc-server" : "evm version 1.10.18-unstable-e0a1fd5f-20220511",
            "filling-tool-version" : "retesteth-0.2.2-testinfo+commit.764be094.Linux.g++",
            "generatedTestHash" : "6a873023c152ec83a32caa9af30fffdad59331ecb4fe1634e8a208daddd14e0b",
            "lllcversion" : "Version: 0.5.14-develop.2022.4.6+commit.401d5358.Linux.g++",
            "solidity" : "Version: 0.8.5+commit.a4f2e591.Linux.g++",
            "source" : "src/GeneralStateTestsFiller/VMTests/vmTests/push0Gas2Filler.yml",
            "sourceHash" : "93adb5d5680bfa21601719a9558b45a49a87f139451c6011e4540d8ea74212dd"
        },
        "blocks" : [
            {
                "blockHeader" : {
                    "baseFeePerGas" : "0x0a",
                    "bloom" : "0x00000000000000000000000000000000000000000000000000000000000000000000000000000000000000000000000000000000000000000000000000000000000000000000000000000000000000000000000000000000000000000000000000000000000000000000000000000000000000000000000000000000000000000000000000000000000000000000000000000000000000000000000000000000000000000000000000000000000000000000000000000000000000000000000000000000000000000000000000000000000000000000000000000000000000000000000000000000000000000000000000000000000000000000000000000000",
                    "coinbase" : "0x2adc25665018aa1fe0e6bc666dac8fc2697ff9ba",
                    "difficulty" : "0x020000",
                    "extraData" : "0x00",
                    "gasLimit" : "0x05500000",
                    "gasUsed" : "0x015fc2",
                    "hash" : "0xdc5a2e2eb8dd6b356448bf6d2bb81d1213ec1c0b34d48bd67c41b1719f1a2f49",
                    "mixHash" : "0x0000000000000000000000000000000000000000000000000000000000000000",
                    "nonce" : "0x0000000000000000",
                    "number" : "0x01",
                    "parentHash" : "0x96976223b64156e684a00b9c5256409b15703133cf4f38ab080cf581ed77683a",
                    "receiptTrie" : "0xee08efce4bf702555dd45c5f7364ce650533104df283abe14190c37250625ec7",
                    "stateRoot" : "0xf43756d3af5e7831b3ce96e05ae4ba934454271095e0d50f0d2c42f182b7cdb6",
                    "timestamp" : "0x03e8",
                    "transactionsTrie" : "0xb36956b72c3e1d7a4b37c17f48750969ad39b086937ec2550e859d1c7f9d5229",
                    "uncleHash" : "0x1dcc4de8dec75d7aab85b567b6ccd41ad312451b948a7413f0a142fd40d49347"
                },
                "rlp" : "0xf90276f901faa096976223b64156e684a00b9c5256409b15703133cf4f38ab080cf581ed77683aa01dcc4de8dec75d7aab85b567b6ccd41ad312451b948a7413f0a142fd40d49347942adc25665018aa1fe0e6bc666dac8fc2697ff9baa0f43756d3af5e7831b3ce96e05ae4ba934454271095e0d50f0d2c42f182b7cdb6a0b36956b72c3e1d7a4b37c17f48750969ad39b086937ec2550e859d1c7f9d5229a0ee08efce4bf702555dd45c5f7364ce650533104df283abe14190c37250625ec7b90100000000000000000000000000000000000000000000000000000000000000000000000000000000000000000000000000000000000000000000000000000000000000000000000000000000000000000000000000000000000000000000000000000000000000000000000000000000000000000000000000000000000000000000000000000000000000000000000000000000000000000000000000000000000000000000000000000000000000000000000000000000000000000000000000000000000000000000000000000000000000000000000000000000000000000000000000000000000000000000000000000000000000000000000000000000008302000001840550000083015fc28203e800a000000000000000000000000000000000000000000000000000000000000000008800000000000000000af876f874800a830493e094b94f5374fce5edbc8e2a8697c15331677e6ebf0b809400000000000000000000000000000000000002001ca065aa51a4adb898398fcfa495e7657d2aeedfb7dc5a81dd492464ca7e658e5ba6a0493cdb6782f806fb8b4b61766288b7fb6240cde8a7b97a96b4d6db75d8aed4a5c0",
                "transactions" : [
                    {
                        "data" : "0x0000000000000000000000000000000000000200",
                        "gasLimit" : "0x0493e0",
                        "gasPrice" : "0x0a",
                        "nonce" : "0x00",
                        "r" : "0x65aa51a4adb898398fcfa495e7657d2aeedfb7dc5a81dd492464ca7e658e5ba6",
                        "s" : "0x493cdb6782f806fb8b4b61766288b7fb6240cde8a7b97a96b4d6db75d8aed4a5",
                        "sender" : "0xa94f5374fce5edbc8e2a8697c15331677e6ebf0b",
                        "to" : "0xb94f5374fce5edbc8e2a8697c15331677e6ebf0b",
                        "v" : "0x1c",
                        "value" : "0x00"
                    }
                ],
                "uncleHeaders" : [
                ]
            }
        ],
        "genesisBlockHeader" : {
            "baseFeePerGas" : "0x0b",
            "bloom" : "0x00000000000000000000000000000000000000000000000000000000000000000000000000000000000000000000000000000000000000000000000000000000000000000000000000000000000000000000000000000000000000000000000000000000000000000000000000000000000000000000000000000000000000000000000000000000000000000000000000000000000000000000000000000000000000000000000000000000000000000000000000000000000000000000000000000000000000000000000000000000000000000000000000000000000000000000000000000000000000000000000000000000000000000000000000000000",
            "coinbase" : "0x2adc25665018aa1fe0e6bc666dac8fc2697ff9ba",
            "difficulty" : "0x020000",
            "extraData" : "0x00",
            "gasLimit" : "0x05500000",
            "gasUsed" : "0x00",
            "hash" : "0x96976223b64156e684a00b9c5256409b15703133cf4f38ab080cf581ed77683a",
            "mixHash" : "0x0000000000000000000000000000000000000000000000000000000000000000",
            "nonce" : "0x0000000000000000",
            "number" : "0x00",
            "parentHash" : "0x0000000000000000000000000000000000000000000000000000000000000000",
            "receiptTrie" : "0x56e81f171bcc55a6ff8345e692c0f86e5b48e01b996cadc001622fb5e363b421",
            "stateRoot" : "0x89444575b5c0919b3e08fb13469ed832d1b63870a6ad6f8e50a829be7a1f9832",
            "timestamp" : "0x00",
            "transactionsTrie" : "0x56e81f171bcc55a6ff8345e692c0f86e5b48e01b996cadc001622fb5e363b421",
            "uncleHash" : "0x1dcc4de8dec75d7aab85b567b6ccd41ad312451b948a7413f0a142fd40d49347"
        },
        "genesisRLP" : "0xf901faf901f5a00000000000000000000000000000000000000000000000000000000000000000a01dcc4de8dec75d7aab85b567b6ccd41ad312451b948a7413f0a142fd40d49347942adc25665018aa1fe0e6bc666dac8fc2697ff9baa089444575b5c0919b3e08fb13469ed832d1b63870a6ad6f8e50a829be7a1f9832a056e81f171bcc55a6ff8345e692c0f86e5b48e01b996cadc001622fb5e363b421a056e81f171bcc55a6ff8345e692c0f86e5b48e01b996cadc001622fb5e363b421b901000000000000000000000000000000000000000000000000000000000000000000000000000000000000000000000000000000000000000000000000000000000000000000000000000000000000000000000000000000000000000000000000000000000000000000000000000000000000000000000000000000000000000000000000000000000000000000000000000000000000000000000000000000000000000000000000000000000000000000000000000000000000000000000000000000000000000000000000000000000000000000000000000000000000000000000000000000000000000000000000000000000000000000000000000000000083020000808405500000808000a000000000000000000000000000000000000000000000000000000000000000008800000000000000000bc0c0",
        "lastblockhash" : "0xdc5a2e2eb8dd6b356448bf6d2bb81d1213ec1c0b34d48bd67c41b1719f1a2f49",
        "network" : "London+3855",
        "postState" : {
            "0x0000000000000000000000000000000000000100" : {
                "balance" : "0x00",
                "code" : "0x5a5f5a9091039055",
                "nonce" : "0x00",
                "storage" : {
                }
            },
            "0x0000000000000000000000000000000000000200" : {
                "balance" : "0x00",
                "code" : "0x5a60005a9091039055",
                "nonce" : "0x00",
                "storage" : {
                    "0x00" : "0x05"
                }
            },
            "0x2adc25665018aa1fe0e6bc666dac8fc2697ff9ba" : {
                "balance" : "0x1bc16d674ec80000",
                "code" : "0x",
                "nonce" : "0x00",
                "storage" : {
                }
            },
            "0xa94f5374fce5edbc8e2a8697c15331677e6ebf0b" : {
                "balance" : "0x8ad8ec",
                "code" : "0x",
                "nonce" : "0x01",
                "storage" : {
                }
            },
            "0xb94f5374fce5edbc8e2a8697c15331677e6ebf0b" : {
                "balance" : "0x00",
                "code" : "0x6000600060006000600060003560601c620186a0f16000556001600155",
                "nonce" : "0x00",
                "storage" : {
                    "0x00" : "0x01",
                    "0x01" : "0x01"
                }
            }
        },
        "pre" : {
            "0x0000000000000000000000000000000000000100" : {
                "balance" : "0x00",
                "code" : "0x5a5f5a9091039055",
                "nonce" : "0x00",
                "storage" : {
                }
            },
            "0x0000000000000000000000000000000000000200" : {
                "balance" : "0x00",
                "code" : "0x5a60005a9091039055",
                "nonce" : "0x00",
                "storage" : {
                }
            },
            "0xa94f5374fce5edbc8e2a8697c15331677e6ebf0b" : {
                "balance" : "0x989680",
                "code" : "0x",
                "nonce" : "0x00",
                "storage" : {
                }
            },
            "0xb94f5374fce5edbc8e2a8697c15331677e6ebf0b" : {
                "balance" : "0x00",
                "code" : "0x6000600060006000600060003560601c620186a0f16000556001600155",
                "nonce" : "0x00",
                "storage" : {
                }
            }
        },
        "sealEngine" : "NoProof"
    }
}