{
    "push0Gas2_d0g0v0_Merge" : {
        "_info" : {
            "comment" : "",
            "filling-rpc-server" : "evm version 1.11.0-unstable-8334b5f5-20221111",
            "filling-tool-version" : "retesteth-0.2.3-postmerge+commit.4795aaf2.Linux.g++",
            "generatedTestHash" : "8e42e7c58a0dee08ce55cec77a233b058d97bf465e54f0e5445ad85d29780ae3",
            "lllcversion" : "Version: 0.5.14-develop.2022.7.30+commit.a096d7a9.Linux.g++",
            "solidity" : "Version: 0.8.5+commit.a4f2e591.Linux.g++",
            "source" : "src/GeneralStateTestsFiller/VMTests/vmTests/push0Gas2Filler.yml",
            "sourceHash" : "b98dbd0f71465e52ca63080d029411b97869034493a9a9dc2b9d246b53c2cf15"
        },
        "blocks" : [
            {
                "blockHeader" : {
                    "baseFeePerGas" : "0x0a",
                    "bloom" : "0x00000000000000000000000000000000000000000000000000000000000000000000000000000000000000000000000000000000000000000000000000000000000000000000000000000000000000000000000000000000000000000000000000000000000000000000000000000000000000000000000000000000000000000000000000000000000000000000000000000000000000000000000000000000000000000000000000000000000000000000000000000000000000000000000000000000000000000000000000000000000000000000000000000000000000000000000000000000000000000000000000000000000000000000000000000000",
                    "coinbase" : "0x2adc25665018aa1fe0e6bc666dac8fc2697ff9ba",
                    "difficulty" : "0x00",
                    "extraData" : "0x00",
                    "gasLimit" : "0x05500000",
                    "gasUsed" : "0x02423f",
                    "hash" : "0x5d359c0ad6ce559050b74ae88bb4ac380c5eda8d96c5b583aee90a253f6060b8",
                    "mixHash" : "0x0000000000000000000000000000000000000000000000000000000000020000",
                    "nonce" : "0x0000000000000000",
                    "number" : "0x01",
                    "parentHash" : "0x3e211f05e391a48d78cd03d802a2242493c2f5545e1dac9f1a8a6d9ebd601c5c",
                    "receiptTrie" : "0xa2a11e82047086b298344363ffbbe7a7b10a2f58b4428894feb12e9c547b9394",
                    "stateRoot" : "0x4be1fa7a308e185cc11220eb5b76c6d15bf00e3cd779b7eb11bf87169a64a247",
                    "timestamp" : "0x03e8",
                    "transactionsTrie" : "0xb81c540ef9e6ab173f28d35f73bf374b6d425b9a28e1f30e871db31ee92d49fa",
                    "uncleHash" : "0x1dcc4de8dec75d7aab85b567b6ccd41ad312451b948a7413f0a142fd40d49347"
                },
                "rlp" : "0xf90273f901f7a03e211f05e391a48d78cd03d802a2242493c2f5545e1dac9f1a8a6d9ebd601c5ca01dcc4de8dec75d7aab85b567b6ccd41ad312451b948a7413f0a142fd40d49347942adc25665018aa1fe0e6bc666dac8fc2697ff9baa04be1fa7a308e185cc11220eb5b76c6d15bf00e3cd779b7eb11bf87169a64a247a0b81c540ef9e6ab173f28d35f73bf374b6d425b9a28e1f30e871db31ee92d49faa0a2a11e82047086b298344363ffbbe7a7b10a2f58b4428894feb12e9c547b9394b9010000000000000000000000000000000000000000000000000000000000000000000000000000000000000000000000000000000000000000000000000000000000000000000000000000000000000000000000000000000000000000000000000000000000000000000000000000000000000000000000000000000000000000000000000000000000000000000000000000000000000000000000000000000000000000000000000000000000000000000000000000000000000000000000000000000000000000000000000000000000000000000000000000000000000000000000000000000000000000000000000000000000000000000000000000000000800184055000008302423f8203e800a000000000000000000000000000000000000000000000000000000000000200008800000000000000000af876f874800a830493e094b94f5374fce5edbc8e2a8697c15331677e6ebf0b809400000000000000000000000000000000000001001ca07ca35b9faa1194e9e41b540d2b6e444e4fa53ad965c7ec13daee2d66a6bb6b17a0277aeba1448340329eaf4924eef938e51e7e7be7bc980e25a9bf6caf358603d9c0",
                "transactions" : [
                    {
                        "data" : "0x0000000000000000000000000000000000000100",
                        "gasLimit" : "0x0493e0",
                        "gasPrice" : "0x0a",
                        "nonce" : "0x00",
                        "r" : "0x7ca35b9faa1194e9e41b540d2b6e444e4fa53ad965c7ec13daee2d66a6bb6b17",
                        "s" : "0x277aeba1448340329eaf4924eef938e51e7e7be7bc980e25a9bf6caf358603d9",
                        "sender" : "0xa94f5374fce5edbc8e2a8697c15331677e6ebf0b",
                        "to" : "0xb94f5374fce5edbc8e2a8697c15331677e6ebf0b",
                        "v" : "0x1c",
                        "value" : "0x00"
                    }
                ],
                "uncleHeaders" : [
                ]
            }
        ],
        "genesisBlockHeader" : {
            "baseFeePerGas" : "0x0b",
            "bloom" : "0x00000000000000000000000000000000000000000000000000000000000000000000000000000000000000000000000000000000000000000000000000000000000000000000000000000000000000000000000000000000000000000000000000000000000000000000000000000000000000000000000000000000000000000000000000000000000000000000000000000000000000000000000000000000000000000000000000000000000000000000000000000000000000000000000000000000000000000000000000000000000000000000000000000000000000000000000000000000000000000000000000000000000000000000000000000000",
            "coinbase" : "0x2adc25665018aa1fe0e6bc666dac8fc2697ff9ba",
            "difficulty" : "0x00",
            "extraData" : "0x00",
            "gasLimit" : "0x05500000",
            "gasUsed" : "0x00",
            "hash" : "0x3e211f05e391a48d78cd03d802a2242493c2f5545e1dac9f1a8a6d9ebd601c5c",
            "mixHash" : "0x0000000000000000000000000000000000000000000000000000000000020000",
            "nonce" : "0x0000000000000000",
            "number" : "0x00",
            "parentHash" : "0x0000000000000000000000000000000000000000000000000000000000000000",
            "receiptTrie" : "0x56e81f171bcc55a6ff8345e692c0f86e5b48e01b996cadc001622fb5e363b421",
            "stateRoot" : "0x89444575b5c0919b3e08fb13469ed832d1b63870a6ad6f8e50a829be7a1f9832",
            "timestamp" : "0x00",
            "transactionsTrie" : "0x56e81f171bcc55a6ff8345e692c0f86e5b48e01b996cadc001622fb5e363b421",
            "uncleHash" : "0x1dcc4de8dec75d7aab85b567b6ccd41ad312451b948a7413f0a142fd40d49347"
        },
        "genesisRLP" : "0xf901f7f901f2a00000000000000000000000000000000000000000000000000000000000000000a01dcc4de8dec75d7aab85b567b6ccd41ad312451b948a7413f0a142fd40d49347942adc25665018aa1fe0e6bc666dac8fc2697ff9baa089444575b5c0919b3e08fb13469ed832d1b63870a6ad6f8e50a829be7a1f9832a056e81f171bcc55a6ff8345e692c0f86e5b48e01b996cadc001622fb5e363b421a056e81f171bcc55a6ff8345e692c0f86e5b48e01b996cadc001622fb5e363b421b901000000000000000000000000000000000000000000000000000000000000000000000000000000000000000000000000000000000000000000000000000000000000000000000000000000000000000000000000000000000000000000000000000000000000000000000000000000000000000000000000000000000000000000000000000000000000000000000000000000000000000000000000000000000000000000000000000000000000000000000000000000000000000000000000000000000000000000000000000000000000000000000000000000000000000000000000000000000000000000000000000000000000000000000000000000000080808405500000808000a000000000000000000000000000000000000000000000000000000000000200008800000000000000000bc0c0",
        "lastblockhash" : "0x5d359c0ad6ce559050b74ae88bb4ac380c5eda8d96c5b583aee90a253f6060b8",
        "network" : "Merge",
        "postState" : {
            "0x0000000000000000000000000000000000000100" : {
                "balance" : "0x00",
                "code" : "0x5a5f5a9091039055",
                "nonce" : "0x00",
                "storage" : {
                }
            },
            "0x0000000000000000000000000000000000000200" : {
                "balance" : "0x00",
                "code" : "0x5a60005a9091039055",
                "nonce" : "0x00",
                "storage" : {
                }
            },
            "0xa94f5374fce5edbc8e2a8697c15331677e6ebf0b" : {
                "balance" : "0x82000a",
                "code" : "0x",
                "nonce" : "0x01",
                "storage" : {
                }
            },
            "0xb94f5374fce5edbc8e2a8697c15331677e6ebf0b" : {
                "balance" : "0x00",
                "code" : "0x6000600060006000600060003560601c620186a0f16000556001600155",
                "nonce" : "0x00",
                "storage" : {
                    "0x01" : "0x01"
                }
            }
        },
        "pre" : {
            "0x0000000000000000000000000000000000000100" : {
                "balance" : "0x00",
                "code" : "0x5a5f5a9091039055",
                "nonce" : "0x00",
                "storage" : {
                }
            },
            "0x0000000000000000000000000000000000000200" : {
                "balance" : "0x00",
                "code" : "0x5a60005a9091039055",
                "nonce" : "0x00",
                "storage" : {
                }
            },
            "0xa94f5374fce5edbc8e2a8697c15331677e6ebf0b" : {
                "balance" : "0x989680",
                "code" : "0x",
                "nonce" : "0x00",
                "storage" : {
                }
            },
            "0xb94f5374fce5edbc8e2a8697c15331677e6ebf0b" : {
                "balance" : "0x00",
                "code" : "0x6000600060006000600060003560601c620186a0f16000556001600155",
                "nonce" : "0x00",
                "storage" : {
                }
            }
        },
        "sealEngine" : "NoProof"
    },
    "push0Gas2_d0g0v0_Merge+3855" : {
        "_info" : {
            "comment" : "",
            "filling-rpc-server" : "evm version 1.11.0-unstable-8334b5f5-20221111",
            "filling-tool-version" : "retesteth-0.2.3-postmerge+commit.4795aaf2.Linux.g++",
            "generatedTestHash" : "23138936c933115a59c310e98677f99800b93954a4b851cc8bf8573b441a4e3c",
            "lllcversion" : "Version: 0.5.14-develop.2022.7.30+commit.a096d7a9.Linux.g++",
            "solidity" : "Version: 0.8.5+commit.a4f2e591.Linux.g++",
            "source" : "src/GeneralStateTestsFiller/VMTests/vmTests/push0Gas2Filler.yml",
            "sourceHash" : "b98dbd0f71465e52ca63080d029411b97869034493a9a9dc2b9d246b53c2cf15"
        },
        "blocks" : [
            {
                "blockHeader" : {
                    "baseFeePerGas" : "0x0a",
                    "bloom" : "0x00000000000000000000000000000000000000000000000000000000000000000000000000000000000000000000000000000000000000000000000000000000000000000000000000000000000000000000000000000000000000000000000000000000000000000000000000000000000000000000000000000000000000000000000000000000000000000000000000000000000000000000000000000000000000000000000000000000000000000000000000000000000000000000000000000000000000000000000000000000000000000000000000000000000000000000000000000000000000000000000000000000000000000000000000000000",
                    "coinbase" : "0x2adc25665018aa1fe0e6bc666dac8fc2697ff9ba",
                    "difficulty" : "0x00",
                    "extraData" : "0x00",
                    "gasLimit" : "0x05500000",
                    "gasUsed" : "0x015fc1",
                    "hash" : "0xe0a893dec3c8569f168a4645fa4e578dcfb397d490016dc3d0244dadb268efc8",
                    "mixHash" : "0x0000000000000000000000000000000000000000000000000000000000020000",
                    "nonce" : "0x0000000000000000",
                    "number" : "0x01",
                    "parentHash" : "0x3e211f05e391a48d78cd03d802a2242493c2f5545e1dac9f1a8a6d9ebd601c5c",
                    "receiptTrie" : "0x51d71b1989bda5410b5dff44af6f22ce9b5aec30d0b55d78178339ac8b09bd06",
                    "stateRoot" : "0x4d516d5bf477e17e1546a703cbd391d2213d342e5962a8f546d5179ac7283bf3",
                    "timestamp" : "0x03e8",
                    "transactionsTrie" : "0xb81c540ef9e6ab173f28d35f73bf374b6d425b9a28e1f30e871db31ee92d49fa",
                    "uncleHash" : "0x1dcc4de8dec75d7aab85b567b6ccd41ad312451b948a7413f0a142fd40d49347"
                },
                "rlp" : "0xf90273f901f7a03e211f05e391a48d78cd03d802a2242493c2f5545e1dac9f1a8a6d9ebd601c5ca01dcc4de8dec75d7aab85b567b6ccd41ad312451b948a7413f0a142fd40d49347942adc25665018aa1fe0e6bc666dac8fc2697ff9baa04d516d5bf477e17e1546a703cbd391d2213d342e5962a8f546d5179ac7283bf3a0b81c540ef9e6ab173f28d35f73bf374b6d425b9a28e1f30e871db31ee92d49faa051d71b1989bda5410b5dff44af6f22ce9b5aec30d0b55d78178339ac8b09bd06b90100000000000000000000000000000000000000000000000000000000000000000000000000000000000000000000000000000000000000000000000000000000000000000000000000000000000000000000000000000000000000000000000000000000000000000000000000000000000000000000000000000000000000000000000000000000000000000000000000000000000000000000000000000000000000000000000000000000000000000000000000000000000000000000000000000000000000000000000000000000000000000000000000000000000000000000000000000000000000000000000000000000000000000000000000000000008001840550000083015fc18203e800a000000000000000000000000000000000000000000000000000000000000200008800000000000000000af876f874800a830493e094b94f5374fce5edbc8e2a8697c15331677e6ebf0b809400000000000000000000000000000000000001001ca07ca35b9faa1194e9e41b540d2b6e444e4fa53ad965c7ec13daee2d66a6bb6b17a0277aeba1448340329eaf4924eef938e51e7e7be7bc980e25a9bf6caf358603d9c0",
                "transactions" : [
                    {
                        "data" : "0x0000000000000000000000000000000000000100",
                        "gasLimit" : "0x0493e0",
                        "gasPrice" : "0x0a",
                        "nonce" : "0x00",
                        "r" : "0x7ca35b9faa1194e9e41b540d2b6e444e4fa53ad965c7ec13daee2d66a6bb6b17",
                        "s" : "0x277aeba1448340329eaf4924eef938e51e7e7be7bc980e25a9bf6caf358603d9",
                        "sender" : "0xa94f5374fce5edbc8e2a8697c15331677e6ebf0b",
                        "to" : "0xb94f5374fce5edbc8e2a8697c15331677e6ebf0b",
                        "v" : "0x1c",
                        "value" : "0x00"
                    }
                ],
                "uncleHeaders" : [
                ]
            }
        ],
        "genesisBlockHeader" : {
            "baseFeePerGas" : "0x0b",
            "bloom" : "0x00000000000000000000000000000000000000000000000000000000000000000000000000000000000000000000000000000000000000000000000000000000000000000000000000000000000000000000000000000000000000000000000000000000000000000000000000000000000000000000000000000000000000000000000000000000000000000000000000000000000000000000000000000000000000000000000000000000000000000000000000000000000000000000000000000000000000000000000000000000000000000000000000000000000000000000000000000000000000000000000000000000000000000000000000000000",
            "coinbase" : "0x2adc25665018aa1fe0e6bc666dac8fc2697ff9ba",
            "difficulty" : "0x00",
            "extraData" : "0x00",
            "gasLimit" : "0x05500000",
            "gasUsed" : "0x00",
            "hash" : "0x3e211f05e391a48d78cd03d802a2242493c2f5545e1dac9f1a8a6d9ebd601c5c",
            "mixHash" : "0x0000000000000000000000000000000000000000000000000000000000020000",
            "nonce" : "0x0000000000000000",
            "number" : "0x00",
            "parentHash" : "0x0000000000000000000000000000000000000000000000000000000000000000",
            "receiptTrie" : "0x56e81f171bcc55a6ff8345e692c0f86e5b48e01b996cadc001622fb5e363b421",
            "stateRoot" : "0x89444575b5c0919b3e08fb13469ed832d1b63870a6ad6f8e50a829be7a1f9832",
            "timestamp" : "0x00",
            "transactionsTrie" : "0x56e81f171bcc55a6ff8345e692c0f86e5b48e01b996cadc001622fb5e363b421",
            "uncleHash" : "0x1dcc4de8dec75d7aab85b567b6ccd41ad312451b948a7413f0a142fd40d49347"
        },
        "genesisRLP" : "0xf901f7f901f2a00000000000000000000000000000000000000000000000000000000000000000a01dcc4de8dec75d7aab85b567b6ccd41ad312451b948a7413f0a142fd40d49347942adc25665018aa1fe0e6bc666dac8fc2697ff9baa089444575b5c0919b3e08fb13469ed832d1b63870a6ad6f8e50a829be7a1f9832a056e81f171bcc55a6ff8345e692c0f86e5b48e01b996cadc001622fb5e363b421a056e81f171bcc55a6ff8345e692c0f86e5b48e01b996cadc001622fb5e363b421b901000000000000000000000000000000000000000000000000000000000000000000000000000000000000000000000000000000000000000000000000000000000000000000000000000000000000000000000000000000000000000000000000000000000000000000000000000000000000000000000000000000000000000000000000000000000000000000000000000000000000000000000000000000000000000000000000000000000000000000000000000000000000000000000000000000000000000000000000000000000000000000000000000000000000000000000000000000000000000000000000000000000000000000000000000000000080808405500000808000a000000000000000000000000000000000000000000000000000000000000200008800000000000000000bc0c0",
        "lastblockhash" : "0xe0a893dec3c8569f168a4645fa4e578dcfb397d490016dc3d0244dadb268efc8",
        "network" : "Merge+3855",
        "postState" : {
            "0x0000000000000000000000000000000000000100" : {
                "balance" : "0x00",
                "code" : "0x5a5f5a9091039055",
                "nonce" : "0x00",
                "storage" : {
                    "0x00" : "0x04"
                }
            },
            "0x0000000000000000000000000000000000000200" : {
                "balance" : "0x00",
                "code" : "0x5a60005a9091039055",
                "nonce" : "0x00",
                "storage" : {
                }
            },
            "0xa94f5374fce5edbc8e2a8697c15331677e6ebf0b" : {
                "balance" : "0x8ad8f6",
                "code" : "0x",
                "nonce" : "0x01",
                "storage" : {
                }
            },
            "0xb94f5374fce5edbc8e2a8697c15331677e6ebf0b" : {
                "balance" : "0x00",
                "code" : "0x6000600060006000600060003560601c620186a0f16000556001600155",
                "nonce" : "0x00",
                "storage" : {
                    "0x00" : "0x01",
                    "0x01" : "0x01"
                }
            }
        },
        "pre" : {
            "0x0000000000000000000000000000000000000100" : {
                "balance" : "0x00",
                "code" : "0x5a5f5a9091039055",
                "nonce" : "0x00",
                "storage" : {
                }
            },
            "0x0000000000000000000000000000000000000200" : {
                "balance" : "0x00",
                "code" : "0x5a60005a9091039055",
                "nonce" : "0x00",
                "storage" : {
                }
            },
            "0xa94f5374fce5edbc8e2a8697c15331677e6ebf0b" : {
                "balance" : "0x989680",
                "code" : "0x",
                "nonce" : "0x00",
                "storage" : {
                }
            },
            "0xb94f5374fce5edbc8e2a8697c15331677e6ebf0b" : {
                "balance" : "0x00",
                "code" : "0x6000600060006000600060003560601c620186a0f16000556001600155",
                "nonce" : "0x00",
                "storage" : {
                }
            }
        },
        "sealEngine" : "NoProof"
    },
    "push0Gas2_d1g0v0_Merge" : {
        "_info" : {
            "comment" : "",
            "filling-rpc-server" : "evm version 1.11.0-unstable-8334b5f5-20221111",
            "filling-tool-version" : "retesteth-0.2.3-postmerge+commit.4795aaf2.Linux.g++",
            "generatedTestHash" : "95e9eed76946309c88bd5b31269c623c8b5e1647f50ef0520a2c887e4584dc1f",
            "lllcversion" : "Version: 0.5.14-develop.2022.7.30+commit.a096d7a9.Linux.g++",
            "solidity" : "Version: 0.8.5+commit.a4f2e591.Linux.g++",
            "source" : "src/GeneralStateTestsFiller/VMTests/vmTests/push0Gas2Filler.yml",
            "sourceHash" : "b98dbd0f71465e52ca63080d029411b97869034493a9a9dc2b9d246b53c2cf15"
        },
        "blocks" : [
            {
                "blockHeader" : {
                    "baseFeePerGas" : "0x0a",
                    "bloom" : "0x00000000000000000000000000000000000000000000000000000000000000000000000000000000000000000000000000000000000000000000000000000000000000000000000000000000000000000000000000000000000000000000000000000000000000000000000000000000000000000000000000000000000000000000000000000000000000000000000000000000000000000000000000000000000000000000000000000000000000000000000000000000000000000000000000000000000000000000000000000000000000000000000000000000000000000000000000000000000000000000000000000000000000000000000000000000",
                    "coinbase" : "0x2adc25665018aa1fe0e6bc666dac8fc2697ff9ba",
                    "difficulty" : "0x00",
                    "extraData" : "0x00",
                    "gasLimit" : "0x05500000",
                    "gasUsed" : "0x015fc2",
                    "hash" : "0xc67591d7685da859550bb637406ff01f03a69661e0fb4568db1fdbacadec649e",
                    "mixHash" : "0x0000000000000000000000000000000000000000000000000000000000020000",
                    "nonce" : "0x0000000000000000",
                    "number" : "0x01",
                    "parentHash" : "0x3e211f05e391a48d78cd03d802a2242493c2f5545e1dac9f1a8a6d9ebd601c5c",
                    "receiptTrie" : "0xee08efce4bf702555dd45c5f7364ce650533104df283abe14190c37250625ec7",
                    "stateRoot" : "0x8f09fc92400e32b5b6147edba6d9cb020751ce42b7ea6b926f2f54de6b794732",
                    "timestamp" : "0x03e8",
                    "transactionsTrie" : "0xb36956b72c3e1d7a4b37c17f48750969ad39b086937ec2550e859d1c7f9d5229",
                    "uncleHash" : "0x1dcc4de8dec75d7aab85b567b6ccd41ad312451b948a7413f0a142fd40d49347"
                },
                "rlp" : "0xf90273f901f7a03e211f05e391a48d78cd03d802a2242493c2f5545e1dac9f1a8a6d9ebd601c5ca01dcc4de8dec75d7aab85b567b6ccd41ad312451b948a7413f0a142fd40d49347942adc25665018aa1fe0e6bc666dac8fc2697ff9baa08f09fc92400e32b5b6147edba6d9cb020751ce42b7ea6b926f2f54de6b794732a0b36956b72c3e1d7a4b37c17f48750969ad39b086937ec2550e859d1c7f9d5229a0ee08efce4bf702555dd45c5f7364ce650533104df283abe14190c37250625ec7b90100000000000000000000000000000000000000000000000000000000000000000000000000000000000000000000000000000000000000000000000000000000000000000000000000000000000000000000000000000000000000000000000000000000000000000000000000000000000000000000000000000000000000000000000000000000000000000000000000000000000000000000000000000000000000000000000000000000000000000000000000000000000000000000000000000000000000000000000000000000000000000000000000000000000000000000000000000000000000000000000000000000000000000000000000000000008001840550000083015fc28203e800a000000000000000000000000000000000000000000000000000000000000200008800000000000000000af876f874800a830493e094b94f5374fce5edbc8e2a8697c15331677e6ebf0b809400000000000000000000000000000000000002001ca065aa51a4adb898398fcfa495e7657d2aeedfb7dc5a81dd492464ca7e658e5ba6a0493cdb6782f806fb8b4b61766288b7fb6240cde8a7b97a96b4d6db75d8aed4a5c0",
                "transactions" : [
                    {
                        "data" : "0x0000000000000000000000000000000000000200",
                        "gasLimit" : "0x0493e0",
                        "gasPrice" : "0x0a",
                        "nonce" : "0x00",
                        "r" : "0x65aa51a4adb898398fcfa495e7657d2aeedfb7dc5a81dd492464ca7e658e5ba6",
                        "s" : "0x493cdb6782f806fb8b4b61766288b7fb6240cde8a7b97a96b4d6db75d8aed4a5",
                        "sender" : "0xa94f5374fce5edbc8e2a8697c15331677e6ebf0b",
                        "to" : "0xb94f5374fce5edbc8e2a8697c15331677e6ebf0b",
                        "v" : "0x1c",
                        "value" : "0x00"
                    }
                ],
                "uncleHeaders" : [
                ]
            }
        ],
        "genesisBlockHeader" : {
            "baseFeePerGas" : "0x0b",
            "bloom" : "0x00000000000000000000000000000000000000000000000000000000000000000000000000000000000000000000000000000000000000000000000000000000000000000000000000000000000000000000000000000000000000000000000000000000000000000000000000000000000000000000000000000000000000000000000000000000000000000000000000000000000000000000000000000000000000000000000000000000000000000000000000000000000000000000000000000000000000000000000000000000000000000000000000000000000000000000000000000000000000000000000000000000000000000000000000000000",
            "coinbase" : "0x2adc25665018aa1fe0e6bc666dac8fc2697ff9ba",
            "difficulty" : "0x00",
            "extraData" : "0x00",
            "gasLimit" : "0x05500000",
            "gasUsed" : "0x00",
            "hash" : "0x3e211f05e391a48d78cd03d802a2242493c2f5545e1dac9f1a8a6d9ebd601c5c",
            "mixHash" : "0x0000000000000000000000000000000000000000000000000000000000020000",
            "nonce" : "0x0000000000000000",
            "number" : "0x00",
            "parentHash" : "0x0000000000000000000000000000000000000000000000000000000000000000",
            "receiptTrie" : "0x56e81f171bcc55a6ff8345e692c0f86e5b48e01b996cadc001622fb5e363b421",
            "stateRoot" : "0x89444575b5c0919b3e08fb13469ed832d1b63870a6ad6f8e50a829be7a1f9832",
            "timestamp" : "0x00",
            "transactionsTrie" : "0x56e81f171bcc55a6ff8345e692c0f86e5b48e01b996cadc001622fb5e363b421",
            "uncleHash" : "0x1dcc4de8dec75d7aab85b567b6ccd41ad312451b948a7413f0a142fd40d49347"
        },
        "genesisRLP" : "0xf901f7f901f2a00000000000000000000000000000000000000000000000000000000000000000a01dcc4de8dec75d7aab85b567b6ccd41ad312451b948a7413f0a142fd40d49347942adc25665018aa1fe0e6bc666dac8fc2697ff9baa089444575b5c0919b3e08fb13469ed832d1b63870a6ad6f8e50a829be7a1f9832a056e81f171bcc55a6ff8345e692c0f86e5b48e01b996cadc001622fb5e363b421a056e81f171bcc55a6ff8345e692c0f86e5b48e01b996cadc001622fb5e363b421b901000000000000000000000000000000000000000000000000000000000000000000000000000000000000000000000000000000000000000000000000000000000000000000000000000000000000000000000000000000000000000000000000000000000000000000000000000000000000000000000000000000000000000000000000000000000000000000000000000000000000000000000000000000000000000000000000000000000000000000000000000000000000000000000000000000000000000000000000000000000000000000000000000000000000000000000000000000000000000000000000000000000000000000000000000000000080808405500000808000a000000000000000000000000000000000000000000000000000000000000200008800000000000000000bc0c0",
        "lastblockhash" : "0xc67591d7685da859550bb637406ff01f03a69661e0fb4568db1fdbacadec649e",
        "network" : "Merge",
        "postState" : {
            "0x0000000000000000000000000000000000000100" : {
                "balance" : "0x00",
                "code" : "0x5a5f5a9091039055",
                "nonce" : "0x00",
                "storage" : {
                }
            },
            "0x0000000000000000000000000000000000000200" : {
                "balance" : "0x00",
                "code" : "0x5a60005a9091039055",
                "nonce" : "0x00",
                "storage" : {
                    "0x00" : "0x05"
                }
            },
            "0xa94f5374fce5edbc8e2a8697c15331677e6ebf0b" : {
                "balance" : "0x8ad8ec",
                "code" : "0x",
                "nonce" : "0x01",
                "storage" : {
                }
            },
            "0xb94f5374fce5edbc8e2a8697c15331677e6ebf0b" : {
                "balance" : "0x00",
                "code" : "0x6000600060006000600060003560601c620186a0f16000556001600155",
                "nonce" : "0x00",
                "storage" : {
                    "0x00" : "0x01",
                    "0x01" : "0x01"
                }
            }
        },
        "pre" : {
            "0x0000000000000000000000000000000000000100" : {
                "balance" : "0x00",
                "code" : "0x5a5f5a9091039055",
                "nonce" : "0x00",
                "storage" : {
                }
            },
            "0x0000000000000000000000000000000000000200" : {
                "balance" : "0x00",
                "code" : "0x5a60005a9091039055",
                "nonce" : "0x00",
                "storage" : {
                }
            },
            "0xa94f5374fce5edbc8e2a8697c15331677e6ebf0b" : {
                "balance" : "0x989680",
                "code" : "0x",
                "nonce" : "0x00",
                "storage" : {
                }
            },
            "0xb94f5374fce5edbc8e2a8697c15331677e6ebf0b" : {
                "balance" : "0x00",
                "code" : "0x6000600060006000600060003560601c620186a0f16000556001600155",
                "nonce" : "0x00",
                "storage" : {
                }
            }
        },
        "sealEngine" : "NoProof"
    },
    "push0Gas2_d1g0v0_Merge+3855" : {
        "_info" : {
            "comment" : "",
            "filling-rpc-server" : "evm version 1.11.0-unstable-8334b5f5-20221111",
            "filling-tool-version" : "retesteth-0.2.3-postmerge+commit.4795aaf2.Linux.g++",
            "generatedTestHash" : "7c7e8f9cac6a3fe3cc398b16d50f76b7c718c3d03c1fe93622688ad3b9789bcf",
            "lllcversion" : "Version: 0.5.14-develop.2022.7.30+commit.a096d7a9.Linux.g++",
            "solidity" : "Version: 0.8.5+commit.a4f2e591.Linux.g++",
            "source" : "src/GeneralStateTestsFiller/VMTests/vmTests/push0Gas2Filler.yml",
            "sourceHash" : "b98dbd0f71465e52ca63080d029411b97869034493a9a9dc2b9d246b53c2cf15"
        },
        "blocks" : [
            {
                "blockHeader" : {
                    "baseFeePerGas" : "0x0a",
                    "bloom" : "0x00000000000000000000000000000000000000000000000000000000000000000000000000000000000000000000000000000000000000000000000000000000000000000000000000000000000000000000000000000000000000000000000000000000000000000000000000000000000000000000000000000000000000000000000000000000000000000000000000000000000000000000000000000000000000000000000000000000000000000000000000000000000000000000000000000000000000000000000000000000000000000000000000000000000000000000000000000000000000000000000000000000000000000000000000000000",
                    "coinbase" : "0x2adc25665018aa1fe0e6bc666dac8fc2697ff9ba",
                    "difficulty" : "0x00",
                    "extraData" : "0x00",
                    "gasLimit" : "0x05500000",
                    "gasUsed" : "0x015fc2",
                    "hash" : "0xc67591d7685da859550bb637406ff01f03a69661e0fb4568db1fdbacadec649e",
                    "mixHash" : "0x0000000000000000000000000000000000000000000000000000000000020000",
                    "nonce" : "0x0000000000000000",
                    "number" : "0x01",
                    "parentHash" : "0x3e211f05e391a48d78cd03d802a2242493c2f5545e1dac9f1a8a6d9ebd601c5c",
                    "receiptTrie" : "0xee08efce4bf702555dd45c5f7364ce650533104df283abe14190c37250625ec7",
                    "stateRoot" : "0x8f09fc92400e32b5b6147edba6d9cb020751ce42b7ea6b926f2f54de6b794732",
                    "timestamp" : "0x03e8",
                    "transactionsTrie" : "0xb36956b72c3e1d7a4b37c17f48750969ad39b086937ec2550e859d1c7f9d5229",
                    "uncleHash" : "0x1dcc4de8dec75d7aab85b567b6ccd41ad312451b948a7413f0a142fd40d49347"
                },
                "rlp" : "0xf90273f901f7a03e211f05e391a48d78cd03d802a2242493c2f5545e1dac9f1a8a6d9ebd601c5ca01dcc4de8dec75d7aab85b567b6ccd41ad312451b948a7413f0a142fd40d49347942adc25665018aa1fe0e6bc666dac8fc2697ff9baa08f09fc92400e32b5b6147edba6d9cb020751ce42b7ea6b926f2f54de6b794732a0b36956b72c3e1d7a4b37c17f48750969ad39b086937ec2550e859d1c7f9d5229a0ee08efce4bf702555dd45c5f7364ce650533104df283abe14190c37250625ec7b90100000000000000000000000000000000000000000000000000000000000000000000000000000000000000000000000000000000000000000000000000000000000000000000000000000000000000000000000000000000000000000000000000000000000000000000000000000000000000000000000000000000000000000000000000000000000000000000000000000000000000000000000000000000000000000000000000000000000000000000000000000000000000000000000000000000000000000000000000000000000000000000000000000000000000000000000000000000000000000000000000000000000000000000000000000000008001840550000083015fc28203e800a000000000000000000000000000000000000000000000000000000000000200008800000000000000000af876f874800a830493e094b94f5374fce5edbc8e2a8697c15331677e6ebf0b809400000000000000000000000000000000000002001ca065aa51a4adb898398fcfa495e7657d2aeedfb7dc5a81dd492464ca7e658e5ba6a0493cdb6782f806fb8b4b61766288b7fb6240cde8a7b97a96b4d6db75d8aed4a5c0",
                "transactions" : [
                    {
                        "data" : "0x0000000000000000000000000000000000000200",
                        "gasLimit" : "0x0493e0",
                        "gasPrice" : "0x0a",
                        "nonce" : "0x00",
                        "r" : "0x65aa51a4adb898398fcfa495e7657d2aeedfb7dc5a81dd492464ca7e658e5ba6",
                        "s" : "0x493cdb6782f806fb8b4b61766288b7fb6240cde8a7b97a96b4d6db75d8aed4a5",
                        "sender" : "0xa94f5374fce5edbc8e2a8697c15331677e6ebf0b",
                        "to" : "0xb94f5374fce5edbc8e2a8697c15331677e6ebf0b",
                        "v" : "0x1c",
                        "value" : "0x00"
                    }
                ],
                "uncleHeaders" : [
                ]
            }
        ],
        "genesisBlockHeader" : {
            "baseFeePerGas" : "0x0b",
            "bloom" : "0x00000000000000000000000000000000000000000000000000000000000000000000000000000000000000000000000000000000000000000000000000000000000000000000000000000000000000000000000000000000000000000000000000000000000000000000000000000000000000000000000000000000000000000000000000000000000000000000000000000000000000000000000000000000000000000000000000000000000000000000000000000000000000000000000000000000000000000000000000000000000000000000000000000000000000000000000000000000000000000000000000000000000000000000000000000000",
            "coinbase" : "0x2adc25665018aa1fe0e6bc666dac8fc2697ff9ba",
            "difficulty" : "0x00",
            "extraData" : "0x00",
            "gasLimit" : "0x05500000",
            "gasUsed" : "0x00",
            "hash" : "0x3e211f05e391a48d78cd03d802a2242493c2f5545e1dac9f1a8a6d9ebd601c5c",
            "mixHash" : "0x0000000000000000000000000000000000000000000000000000000000020000",
            "nonce" : "0x0000000000000000",
            "number" : "0x00",
            "parentHash" : "0x0000000000000000000000000000000000000000000000000000000000000000",
            "receiptTrie" : "0x56e81f171bcc55a6ff8345e692c0f86e5b48e01b996cadc001622fb5e363b421",
            "stateRoot" : "0x89444575b5c0919b3e08fb13469ed832d1b63870a6ad6f8e50a829be7a1f9832",
            "timestamp" : "0x00",
            "transactionsTrie" : "0x56e81f171bcc55a6ff8345e692c0f86e5b48e01b996cadc001622fb5e363b421",
            "uncleHash" : "0x1dcc4de8dec75d7aab85b567b6ccd41ad312451b948a7413f0a142fd40d49347"
        },
        "genesisRLP" : "0xf901f7f901f2a00000000000000000000000000000000000000000000000000000000000000000a01dcc4de8dec75d7aab85b567b6ccd41ad312451b948a7413f0a142fd40d49347942adc25665018aa1fe0e6bc666dac8fc2697ff9baa089444575b5c0919b3e08fb13469ed832d1b63870a6ad6f8e50a829be7a1f9832a056e81f171bcc55a6ff8345e692c0f86e5b48e01b996cadc001622fb5e363b421a056e81f171bcc55a6ff8345e692c0f86e5b48e01b996cadc001622fb5e363b421b901000000000000000000000000000000000000000000000000000000000000000000000000000000000000000000000000000000000000000000000000000000000000000000000000000000000000000000000000000000000000000000000000000000000000000000000000000000000000000000000000000000000000000000000000000000000000000000000000000000000000000000000000000000000000000000000000000000000000000000000000000000000000000000000000000000000000000000000000000000000000000000000000000000000000000000000000000000000000000000000000000000000000000000000000000000000080808405500000808000a000000000000000000000000000000000000000000000000000000000000200008800000000000000000bc0c0",
        "lastblockhash" : "0xc67591d7685da859550bb637406ff01f03a69661e0fb4568db1fdbacadec649e",
        "network" : "Merge+3855",
        "postState" : {
            "0x0000000000000000000000000000000000000100" : {
                "balance" : "0x00",
                "code" : "0x5a5f5a9091039055",
                "nonce" : "0x00",
                "storage" : {
                }
            },
            "0x0000000000000000000000000000000000000200" : {
                "balance" : "0x00",
                "code" : "0x5a60005a9091039055",
                "nonce" : "0x00",
                "storage" : {
                    "0x00" : "0x05"
                }
            },
            "0xa94f5374fce5edbc8e2a8697c15331677e6ebf0b" : {
                "balance" : "0x8ad8ec",
                "code" : "0x",
                "nonce" : "0x01",
                "storage" : {
                }
            },
            "0xb94f5374fce5edbc8e2a8697c15331677e6ebf0b" : {
                "balance" : "0x00",
                "code" : "0x6000600060006000600060003560601c620186a0f16000556001600155",
                "nonce" : "0x00",
                "storage" : {
                    "0x00" : "0x01",
                    "0x01" : "0x01"
                }
            }
        },
        "pre" : {
            "0x0000000000000000000000000000000000000100" : {
                "balance" : "0x00",
                "code" : "0x5a5f5a9091039055",
                "nonce" : "0x00",
                "storage" : {
                }
            },
            "0x0000000000000000000000000000000000000200" : {
                "balance" : "0x00",
                "code" : "0x5a60005a9091039055",
                "nonce" : "0x00",
                "storage" : {
                }
            },
            "0xa94f5374fce5edbc8e2a8697c15331677e6ebf0b" : {
                "balance" : "0x989680",
                "code" : "0x",
                "nonce" : "0x00",
                "storage" : {
                }
            },
            "0xb94f5374fce5edbc8e2a8697c15331677e6ebf0b" : {
                "balance" : "0x00",
                "code" : "0x6000600060006000600060003560601c620186a0f16000556001600155",
                "nonce" : "0x00",
                "storage" : {
                }
            }
        },
        "sealEngine" : "NoProof"
    }
}