{
    "CREATE2_EOF1_FromEOF" : {
        "_info" : {
            "comment" : "",
            "filling-rpc-server" : "evm version 1.11.0-unstable-1327798d-20230111",
            "filling-tool-version" : "retesteth-0.2.3-postmerge+commit.424c1882.Darwin.appleclang",
            "generatedTestHash" : "395183d3abc80297f6f6aa9875be9389019455e437b0a8271e29cc4081428c9e",
            "labels" : {
                "0" : "eof1_initcode_deploying_valid_eof1",
                "1" : "eof1_initcode_deploying_valid_eof1_with_data",
                "2" : "eof1_initcode_with_data_deploying_valid_eof1",
                "3" : "eof1_initcode_with_data_deploying_valid_eof1_with_data"
            },
            "lllcversion" : "Error getting LLLC Version",
            "solidity" : "Version: 0.8.17+commit.8df45f5f.Darwin.appleclang",
            "source" : "src/GeneralStateTestsFiller/EIPTests/stEOF/stEIP3540/CREATE2_EOF1_FromEOFFiller.yml",
            "sourceHash" : "c43b4bf068378d2ee658cd15e11437c0c620e749a8cf0e702f1ace9544f37034"
        },
        "env" : {
            "currentBaseFee" : "0x0a",
            "currentCoinbase" : "0x2adc25665018aa1fe0e6bc666dac8fc2697ff9ba",
            "currentDifficulty" : "0x020000",
            "currentGasLimit" : "0x05500000",
            "currentNumber" : "0x01",
            "currentRandom" : "0x0000000000000000000000000000000000000000000000000000000000000000",
            "currentTimestamp" : "0x03e8",
            "previousHash" : "0x5e20a0453cecd065ea59c37ac63e079ee08998b6045136a8ce6635c7912ec0b6"
        },
        "post" : {
            "Shanghai" : [
                {
                    "hash" : "0xb97521babe8696a988507908b90f96edce2ed9e969ddfb8e30228aa5a7ef3aed",
                    "indexes" : {
                        "data" : 0,
                        "gas" : 0,
                        "value" : 0
                    },
                    "logs" : "0x1dcc4de8dec75d7aab85b567b6ccd41ad312451b948a7413f0a142fd40d49347",
                    "txbytes" : "0xf89d800a83e4e1c094b94f5374fce5edbc8e2a8697c15331677e6ebf0b80b83cef0001010004020001002903000000000000027fef0001010004020001000403000000000000016000500000000000000000000060005260176000f31ca08267761a6f44dbc9c5d71e75bc513f1fb999997cb9bc92a04044c616996b104ca0031f6892566e1be813f59565ffb1b4e30464d8c0df255cdf75c514418ef6dc37"
                },
                {
                    "hash" : "0x67a655e7595e7498ba8c391d9c445d6dd5393934c814457996c28079eea7c58e",
                    "indexes" : {
                        "data" : 1,
                        "gas" : 0,
                        "value" : 0
                    },
                    "logs" : "0x1dcc4de8dec75d7aab85b567b6ccd41ad312451b948a7413f0a142fd40d49347",
                    "txbytes" : "0xf89d800a83e4e1c094b94f5374fce5edbc8e2a8697c15331677e6ebf0b80b83cef0001010004020001002903000000000000027fef00010100040200010004030004000000000160005000aabbccdd0000000000600052601b6000f31ca0c6af29d7749e4481c32a85b9e63baf262ac144bbe33dcc18e4063f176142aa6aa007a211629048f8dc7bd9253a0a1444c43540eae2b8837db5774f357fda444940"
                },
                {
                    "hash" : "0x77fc1dab71721e8e32bd654d39464328a8974c2678f1103bc632f44ae83d0de2",
                    "indexes" : {
                        "data" : 2,
                        "gas" : 0,
                        "value" : 0
                    },
                    "logs" : "0x1dcc4de8dec75d7aab85b567b6ccd41ad312451b948a7413f0a142fd40d49347",
                    "txbytes" : "0xf8a1800a83e4e1c094b94f5374fce5edbc8e2a8697c15331677e6ebf0b80b840ef0001010004020001002903000400000000027fef0001010004020001000403000000000000016000500000000000000000000060005260176000f3aabbccdd1ca0d6b3723e908493be2697f45c5330c8a17cd4c2fd544a2e21b7096615b3a96847a04b7e8a6d2c96592e06862a2b9e3241464f234f642bca681989fb37d248f80b98"
                },
                {
                    "hash" : "0x9a737b67dc156e380c95f08e0eb36e34dd1c813c8af40f7477fe9ea932b9c1a7",
                    "indexes" : {
                        "data" : 3,
                        "gas" : 0,
                        "value" : 0
                    },
                    "logs" : "0x1dcc4de8dec75d7aab85b567b6ccd41ad312451b948a7413f0a142fd40d49347",
                    "txbytes" : "0xf89f800a83e4e1c094b94f5374fce5edbc8e2a8697c15331677e6ebf0b80b83eef0001010004020001002903000200000000027fef00010100040200010004030004000000000160005000aabbccdd0000000000600052601b6000f3eeff1ca0d75a9d47b4c76f2e1461929eac4db0095b4bfdcc672e10230dcbc561cf6885f2a015bf18a1802a0c6b1da15a0d0daa99f274957a5833288315afef183d67fbd8fc"
                }
            ]
        },
        "pre" : {
            "0xa94f5374fce5edbc8e2a8697c15331677e6ebf0b" : {
                "balance" : "0x0bebc200",
                "code" : "0x",
                "nonce" : "0x00",
                "storage" : {
                }
            },
            "0xb94f5374fce5edbc8e2a8697c15331677e6ebf0b" : {
                "balance" : "0x00",
                "code" : "0xef00010100040200010017030000000000000436600060003760003660006000f5600055600160015500",
                "nonce" : "0x00",
                "storage" : {
                }
            }
        },
        "transaction" : {
            "data" : [
                "0xef0001010004020001002903000000000000027fef0001010004020001000403000000000000016000500000000000000000000060005260176000f3",
                "0xef0001010004020001002903000000000000027fef00010100040200010004030004000000000160005000aabbccdd0000000000600052601b6000f3",
                "0xef0001010004020001002903000400000000027fef0001010004020001000403000000000000016000500000000000000000000060005260176000f3aabbccdd",
                "0xef0001010004020001002903000200000000027fef00010100040200010004030004000000000160005000aabbccdd0000000000600052601b6000f3eeff"
            ],
            "gasLimit" : [
                "0xe4e1c0"
            ],
            "gasPrice" : "0x0a",
            "nonce" : "0x00",
            "secretKey" : "0x45a915e4d060149eb4365960e6a7a45f334393093061116b197e3240065ff2d8",
            "sender" : "0xa94f5374fce5edbc8e2a8697c15331677e6ebf0b",
            "to" : "0xb94f5374fce5edbc8e2a8697c15331677e6ebf0b",
            "value" : [
                "0x00"
            ]
        }
    }
}