{
    "CREATE_EOF1_FromEOF" : {
        "_info" : {
            "comment" : "",
            "filling-rpc-server" : "evm version 1.11.0-unstable-e2fa55a4-20221108",
            "filling-tool-version" : "retesteth-0.2.3-postmerge+commit.596607c5.Linux.g++",
            "generatedTestHash" : "8510cd2dd1d5a4b91c468a7a948411aef36b9d5029701aa477bc0fe1337a4395",
            "labels" : {
                "0" : "deploying_0xef",
                "1" : "deploying_0xef00",
                "10" : "legacy_initcode_deploying_legacy",
                "2" : "deploying_0xef0000",
                "3" : "deploying_0xef00..00",
                "4" : "deploying_valid_eof1",
                "5" : "deploying_valid_eof1_with_data",
                "6" : "eof1_initcode_deploying_valid_eof1",
                "7" : "eof1_initcode_deploying_valid_eof1_with_data",
                "8" : "eof1_initcode_with_data_deploying_valid_eof1",
                "9" : "eof1_initcode_with_data_deploying_valid_eof1_with_data"
            },
            "lllcversion" : "Version: 0.5.14-develop.2022.4.6+commit.401d5358.Linux.g++",
            "solidity" : "Version: 0.8.5+commit.a4f2e591.Linux.g++",
            "source" : "src/GeneralStateTestsFiller/stEIP3540/CREATE_EOF1_FromEOFFiller.yml",
            "sourceHash" : "0f6c4cf93b18def43ef86004841e58d14ad0c92b8fe2e2b4e394039c60eb236d"
        },
        "env" : {
            "currentBaseFee" : "0x0a",
            "currentCoinbase" : "0x2adc25665018aa1fe0e6bc666dac8fc2697ff9ba",
            "currentDifficulty" : "0x020000",
            "currentGasLimit" : "0x05500000",
            "currentNumber" : "0x01",
            "currentRandom" : "0x0000000000000000000000000000000000000000000000000000000000020000",
            "currentTimestamp" : "0x03e8",
            "previousHash" : "0x5e20a0453cecd065ea59c37ac63e079ee08998b6045136a8ce6635c7912ec0b6"
        },
        "post" : {
            "Merge+3540+3670" : [
                {
                    "hash" : "0xd075a3d655f189ef7cd7ba7dc5a73a22114fc7469fd85c1a55008dea5993aedf",
                    "indexes" : {
                        "data" : 0,
                        "gas" : 0,
                        "value" : 0
                    },
                    "logs" : "0x1dcc4de8dec75d7aab85b567b6ccd41ad312451b948a7413f0a142fd40d49347",
                    "txbytes" : "0xf86a800a83e4e1c094b94f5374fce5edbc8e2a8697c15331677e6ebf0b808a60ef60005360016000f31ba0e855b14706c4e47fd8e765368486ed5ca2cb7ac886b261a46457d21111f05411a03f1314ff819e6ca49b98a5dff224d0693bbac4860a583993dffe6ebab6170f29"
                },
                {
                    "hash" : "0xd075a3d655f189ef7cd7ba7dc5a73a22114fc7469fd85c1a55008dea5993aedf",
                    "indexes" : {
                        "data" : 1,
                        "gas" : 0,
                        "value" : 0
                    },
                    "logs" : "0x1dcc4de8dec75d7aab85b567b6ccd41ad312451b948a7413f0a142fd40d49347",
                    "txbytes" : "0xf86a800a83e4e1c094b94f5374fce5edbc8e2a8697c15331677e6ebf0b808a60ef60005360026000f31ca06ee98cfd5267b69178e4be20f1329f1c89e166fba19273893ba937d5146f769da0436338587693edaa893c286784edfe7f148a992bbdbafd465ee6b76d7778ea0f"
                },
                {
                    "hash" : "0xd075a3d655f189ef7cd7ba7dc5a73a22114fc7469fd85c1a55008dea5993aedf",
                    "indexes" : {
                        "data" : 2,
                        "gas" : 0,
                        "value" : 0
                    },
                    "logs" : "0x1dcc4de8dec75d7aab85b567b6ccd41ad312451b948a7413f0a142fd40d49347",
                    "txbytes" : "0xf86a800a83e4e1c094b94f5374fce5edbc8e2a8697c15331677e6ebf0b808a60ef60005360036000f31ba0153b6cbc5cfa36fd43c5e3f34648c78e86cf834458596fdea722af3f87e4a218a016e64bbd4f747198175fe26487fbdd138a34b561b8cfd7846262bd950e28cc2c"
                },
                {
                    "hash" : "0xd075a3d655f189ef7cd7ba7dc5a73a22114fc7469fd85c1a55008dea5993aedf",
                    "indexes" : {
                        "data" : 3,
                        "gas" : 0,
                        "value" : 0
                    },
                    "logs" : "0x1dcc4de8dec75d7aab85b567b6ccd41ad312451b948a7413f0a142fd40d49347",
                    "txbytes" : "0xf86a800a83e4e1c094b94f5374fce5edbc8e2a8697c15331677e6ebf0b808a60ef60005360206000f31ba036a8d004476109bc6d56b18701fbde81b722c2e2e75dadc47af7a23fba0f9c1fa051d310370e93d5d256a3ef1d477211df118d37500d592336859f294390ca09f6"
                },
                {
                    "hash" : "0x6b04c8114d8d448c7698d0c45308bd6961a051ad7379230c378ff38436c01d50",
                    "indexes" : {
                        "data" : 4,
                        "gas" : 0,
                        "value" : 0
                    },
                    "logs" : "0x1dcc4de8dec75d7aab85b567b6ccd41ad312451b948a7413f0a142fd40d49347",
                    "txbytes" : "0xf889800a83e4e1c094b94f5374fce5edbc8e2a8697c15331677e6ebf0b80a97fef00010100030060000000000000000000000000000000000000000000000000600052600a6000f31ba08e6d834110481f9976ad8a1c1525098ea9dfc1aaff54d6f04484026a7f2e51aea022472eed7ef21f2075753f82cee83a16a743c542ecfbeff5888fe79016ec14b3"
                },
                {
                    "hash" : "0x8fa3ab5ed843935862d18970021df68c3fe1591822eb878eda30e812c3c76f43",
                    "indexes" : {
                        "data" : 5,
                        "gas" : 0,
                        "value" : 0
                    },
                    "logs" : "0x1dcc4de8dec75d7aab85b567b6ccd41ad312451b948a7413f0a142fd40d49347",
                    "txbytes" : "0xf889800a83e4e1c094b94f5374fce5edbc8e2a8697c15331677e6ebf0b80a97fef000101000302000400600000aabbccdd00000000000000000000000000000060005260116000f31ba0369e0019eb11cc4faf182e06fd1cc7a6790d9fc83042dfea998b3e7cd7e3ebe3a038ac0fdc66b53f48b1fd3c9b83758ecb04d0ee7edb4e925ebae38e4ecc6e2f7c"
                },
                {
                    "hash" : "0xe5f8ad23232f1c60140c3cf03b014c793466fea085d2efdb91a9d5ef4de9a17b",
                    "indexes" : {
                        "data" : 6,
                        "gas" : 0,
                        "value" : 0
                    },
                    "logs" : "0x1dcc4de8dec75d7aab85b567b6ccd41ad312451b948a7413f0a142fd40d49347",
                    "txbytes" : "0xf890800a83e4e1c094b94f5374fce5edbc8e2a8697c15331677e6ebf0b80b0ef0001010029007fef00010100030060000000000000000000000000000000000000000000000000600052600a6000f31ba05034cba31548e9f26b911339c40acc533b8e771effedc418d9e780319d42ef4ca0168a12db4fc40bb56b410fcc62214fae00800a5ca4315964cba0b0541c7e34a5"
                },
                {
                    "hash" : "0x5d87c2354313888382117f0b56fa0f3d02767072f4a4af90fb70070ae1983d7e",
                    "indexes" : {
                        "data" : 7,
                        "gas" : 0,
                        "value" : 0
                    },
                    "logs" : "0x1dcc4de8dec75d7aab85b567b6ccd41ad312451b948a7413f0a142fd40d49347",
                    "txbytes" : "0xf890800a83e4e1c094b94f5374fce5edbc8e2a8697c15331677e6ebf0b80b0ef0001010029007fef000101000302000400600000aabbccdd00000000000000000000000000000060005260116000f31ba0407f345c1dd82bbd8098d2a46c0116bd6649e7162c07e946516328548626be9fa057bc938c209db9303abaa99f4b74bf8742b0a6ab00618ed0220c714eb62ce322"
                },
                {
                    "hash" : "0x054a29a178ace5b3f796590b2fe10cea2ba4948bde7c32d76dc996e3830c9980",
                    "indexes" : {
                        "data" : 8,
                        "gas" : 0,
                        "value" : 0
                    },
                    "logs" : "0x1dcc4de8dec75d7aab85b567b6ccd41ad312451b948a7413f0a142fd40d49347",
                    "txbytes" : "0xf897800a83e4e1c094b94f5374fce5edbc8e2a8697c15331677e6ebf0b80b7ef0001010029020004007fef00010100030060000000000000000000000000000000000000000000000000600052600a6000f3aabbccdd1ca02c7726b5234c95f8b690496221b91c5b6d3cf88b0363690f19331999e43a4353a06625127697ed9c0214a2e032c587a7c6ce956a76aeafaa2f60e6cd736c8e6222"
                },
                {
                    "hash" : "0x9f159b36826ec1d9763f06e6202a52f064fe514b26567ed25b693f1045e57cac",
                    "indexes" : {
                        "data" : 9,
                        "gas" : 0,
                        "value" : 0
                    },
                    "logs" : "0x1dcc4de8dec75d7aab85b567b6ccd41ad312451b948a7413f0a142fd40d49347",
                    "txbytes" : "0xf895800a83e4e1c094b94f5374fce5edbc8e2a8697c15331677e6ebf0b80b5ef0001010029020002007fef000101000302000400600000aabbccdd00000000000000000000000000000060005260116000f3eeff1ba0b2c0b77f46b143420d45cbb17a667f1005bda0dd8f9cdb1aaa92d0c8b8b65f5ca061b43cbe4f0dd9a6c8790e0b28725bdad060bf89021c1b3920e0f999e94ad4c8"
                },
                {
                    "hash" : "0xc61814b3888f35a254cda924d7515af20203bf3e355d6a6fa119c2800aa9670e",
                    "indexes" : {
                        "data" : 10,
                        "gas" : 0,
                        "value" : 0
                    },
                    "logs" : "0x1dcc4de8dec75d7aab85b567b6ccd41ad312451b948a7413f0a142fd40d49347",
                    "txbytes" : "0xf865800a83e4e1c094b94f5374fce5edbc8e2a8697c15331677e6ebf0b808560016000f31ba08ded9ae1fd850114385f132b1e74d4e123627865bf35a8ccdd1571c4f019b4c4a005536793e1483242976ce12f1a4e9724391d86f23c8d3bad310fa63d636c3ad0"
                }
            ]
        },
        "pre" : {
            "0xa94f5374fce5edbc8e2a8697c15331677e6ebf0b" : {
                "balance" : "0x0bebc200",
                "code" : "0x",
                "nonce" : "0x00",
                "storage" : {
                }
            },
            "0xb94f5374fce5edbc8e2a8697c15331677e6ebf0b" : {
                "balance" : "0x00",
                "code" : "0xef0001010015003660006000373660006000f0600055600160015500",
                "nonce" : "0x00",
                "storage" : {
                }
            }
        },
        "transaction" : {
            "data" : [
                "0x60ef60005360016000f3",
                "0x60ef60005360026000f3",
                "0x60ef60005360036000f3",
                "0x60ef60005360206000f3",
                "0x7fef00010100030060000000000000000000000000000000000000000000000000600052600a6000f3",
                "0x7fef000101000302000400600000aabbccdd00000000000000000000000000000060005260116000f3",
                "0xef0001010029007fef00010100030060000000000000000000000000000000000000000000000000600052600a6000f3",
                "0xef0001010029007fef000101000302000400600000aabbccdd00000000000000000000000000000060005260116000f3",
                "0xef0001010029020004007fef00010100030060000000000000000000000000000000000000000000000000600052600a6000f3aabbccdd",
                "0xef0001010029020002007fef000101000302000400600000aabbccdd00000000000000000000000000000060005260116000f3eeff",
                "0x60016000f3"
            ],
            "gasLimit" : [
                "0xe4e1c0"
            ],
            "gasPrice" : "0x0a",
            "nonce" : "0x00",
            "secretKey" : "0x45a915e4d060149eb4365960e6a7a45f334393093061116b197e3240065ff2d8",
            "sender" : "0xa94f5374fce5edbc8e2a8697c15331677e6ebf0b",
            "to" : "0xb94f5374fce5edbc8e2a8697c15331677e6ebf0b",
            "value" : [
                "0x00"
            ]
        }
    }
}
