{
    "EOF1_Execution" : {
        "_info" : {
            "comment" : "",
            "filling-rpc-server" : "evm version 1.11.0-unstable-c6839940",
            "filling-tool-version" : "retesteth-0.2.3-postmerge+commit.6ca2b808.Linux.g++",
            "generatedTestHash" : "62ed4b041ca0ce420cec9d468857281125dae1ca122fc72b4c0326c4e599c32b",
            "labels" : {
                "0" : "basic_valid_eof",
                "1" : "basic_valid_eof_with_data",
                "10" : "extcodecopy",
                "11" : "extcodecopy_inside_eof",
                "12" : "extcodecopy_out_of_bounds",
                "13" : "extcodecopy_out_of_bounds_eof",
                "2" : "push_complete",
                "3" : "codesize",
                "4" : "codecopy",
                "5" : "codecopy_out_out_bounds",
                "6" : "extcodesize",
                "7" : "extcodesize_inside_eof",
                "8" : "extcodehash",
                "9" : "extcodehash_inside_eof"
            },
            "lllcversion" : "Version: 0.5.14-develop.2022.7.30+commit.a096d7a9.Linux.g++",
            "solidity" : "Version: 0.8.17+commit.8df45f5f.Linux.g++",
            "source" : "src/GeneralStateTestsFiller/EIPTests/stEOF/stEIP3540/EOF1_ExecutionFiller.yml",
            "sourceHash" : "e3ce366cd7deaa0f3ca10e4806118be9d3759035953fb5e740561ed9215c4a8e"
        },
        "env" : {
            "currentBaseFee" : "0x0a",
            "currentCoinbase" : "0x2adc25665018aa1fe0e6bc666dac8fc2697ff9ba",
            "currentDifficulty" : "0x020000",
            "currentGasLimit" : "0x05500000",
            "currentNumber" : "0x01",
            "currentRandom" : "0x0000000000000000000000000000000000000000000000000000000000020000",
            "currentTimestamp" : "0x03e8",
            "previousHash" : "0x5e20a0453cecd065ea59c37ac63e079ee08998b6045136a8ce6635c7912ec0b6"
        },
        "post" : {
            "Merge" : [
                {
                    "hash" : "0x960914177920d6715543a9c94375f65612f74feab8013edca17964adb985fe49",
                    "indexes" : {
                        "data" : 0,
                        "gas" : 0,
                        "value" : 0
                    },
                    "logs" : "0x1dcc4de8dec75d7aab85b567b6ccd41ad312451b948a7413f0a142fd40d49347",
                    "txbytes" : "0xf874800a830aae6094b94f5374fce5edbc8e2a8697c15331677e6ebf0b8094c94f5374fce5edbc8e2a8697c15331677e6ebf0b1ba00f2fcdd4b12c82b225c6fa285c8bb5ec12173696d7e4dbca308a32dae03f2a8fa036144afe01bd2cba73e7afe4cefaeb5051f19c07cc4d81a508bdb50cfcd5451d"
                },
                {
                    "hash" : "0x960914177920d6715543a9c94375f65612f74feab8013edca17964adb985fe49",
                    "indexes" : {
                        "data" : 1,
                        "gas" : 0,
                        "value" : 0
                    },
                    "logs" : "0x1dcc4de8dec75d7aab85b567b6ccd41ad312451b948a7413f0a142fd40d49347",
                    "txbytes" : "0xf874800a830aae6094b94f5374fce5edbc8e2a8697c15331677e6ebf0b8094d94f5374fce5edbc8e2a8697c15331677e6ebf0b1ba0bbdf9288646d44d3c72bb330001f8fee4d4f89981a89ab4890bf99efd34fe019a06738f208dc53a57ec8d4924be148cb3242f8b85bbb468a02227b708ae8c3d79a"
                },
                {
                    "hash" : "0x960914177920d6715543a9c94375f65612f74feab8013edca17964adb985fe49",
                    "indexes" : {
                        "data" : 2,
                        "gas" : 0,
                        "value" : 0
                    },
                    "logs" : "0x1dcc4de8dec75d7aab85b567b6ccd41ad312451b948a7413f0a142fd40d49347",
                    "txbytes" : "0xf874800a830aae6094b94f5374fce5edbc8e2a8697c15331677e6ebf0b8094024f5374fce5edbc8e2a8697c15331677e6ebf0b1ca0ddda9fbf42a2c4959c273d72edf8ce7b5c232f136650b4b3525add61ea0801fba04425c0b7a23e0db9c78a6cf9eff0462423b24f82fac1b6ba97cd0a06dfec7612"
                },
                {
                    "hash" : "0x960914177920d6715543a9c94375f65612f74feab8013edca17964adb985fe49",
                    "indexes" : {
                        "data" : 3,
                        "gas" : 0,
                        "value" : 0
                    },
                    "logs" : "0x1dcc4de8dec75d7aab85b567b6ccd41ad312451b948a7413f0a142fd40d49347",
                    "txbytes" : "0xf874800a830aae6094b94f5374fce5edbc8e2a8697c15331677e6ebf0b8094504f5374fce5edbc8e2a8697c15331677e6ebf0b1ca0529c826a2f39e5bd46c7244e8b4b14eb7b39e7a4c159857fc4bdcc0f0b59418ca01b5d2c1c1ff3633624d98c872ba37144441550a27bc61bea58a81dc22e17f6a3"
                },
                {
                    "hash" : "0x960914177920d6715543a9c94375f65612f74feab8013edca17964adb985fe49",
                    "indexes" : {
                        "data" : 4,
                        "gas" : 0,
                        "value" : 0
                    },
                    "logs" : "0x1dcc4de8dec75d7aab85b567b6ccd41ad312451b948a7413f0a142fd40d49347",
                    "txbytes" : "0xf874800a830aae6094b94f5374fce5edbc8e2a8697c15331677e6ebf0b8094514f5374fce5edbc8e2a8697c15331677e6ebf0b1ba06c613003f07b4c58deecacc57c301179746a846e8b1287a992e5f676ef33fcf1a00ea490e8676098885825204bcb04cc035871738eb777cfa40ad1370aff8a1106"
                },
                {
                    "hash" : "0x960914177920d6715543a9c94375f65612f74feab8013edca17964adb985fe49",
                    "indexes" : {
                        "data" : 5,
                        "gas" : 0,
                        "value" : 0
                    },
                    "logs" : "0x1dcc4de8dec75d7aab85b567b6ccd41ad312451b948a7413f0a142fd40d49347",
                    "txbytes" : "0xf874800a830aae6094b94f5374fce5edbc8e2a8697c15331677e6ebf0b8094524f5374fce5edbc8e2a8697c15331677e6ebf0b1ba0f019a173f1ade159a89ce883a63b6d5a9f0485e26e9e520a5fded126810ba89ba07179096d67a415bd915faeb54c1bfe701ccd145b5bb32cb59dc33da1be48ef7b"
                },
                {
                    "hash" : "0x8f03be16e0daa991ac8958670aad5832006f7f0eaf6cb95117fb123ed7936af1",
                    "indexes" : {
                        "data" : 6,
                        "gas" : 0,
                        "value" : 0
                    },
                    "logs" : "0x1dcc4de8dec75d7aab85b567b6ccd41ad312451b948a7413f0a142fd40d49347",
                    "txbytes" : "0xf874800a830aae6094b94f5374fce5edbc8e2a8697c15331677e6ebf0b8094604f5374fce5edbc8e2a8697c15331677e6ebf0b1ba05bed551950fdeb8a2e00c01b418e5437c91d2cafd65eb1ed8c56ad20a763a5eaa04318456a5b830203df765194dbeb83c58a396118efb61fa1db38ef10a03d326f"
                },
                {
                    "hash" : "0x960914177920d6715543a9c94375f65612f74feab8013edca17964adb985fe49",
                    "indexes" : {
                        "data" : 7,
                        "gas" : 0,
                        "value" : 0
                    },
                    "logs" : "0x1dcc4de8dec75d7aab85b567b6ccd41ad312451b948a7413f0a142fd40d49347",
                    "txbytes" : "0xf874800a830aae6094b94f5374fce5edbc8e2a8697c15331677e6ebf0b8094614f5374fce5edbc8e2a8697c15331677e6ebf0b1ba0481bd123f8e9c84f507324c9f5000acb635fa9025ddf1171acb16cce22243460a0118c991fe65e29cab0b39a251c8e5057b3b5c06550f40eb7152843336fadf527"
                },
                {
                    "hash" : "0x9ed69ddad8131b3ad75e137a1346f0fb4f98565e9ff79a9e63c4b5c569b30b9f",
                    "indexes" : {
                        "data" : 8,
                        "gas" : 0,
                        "value" : 0
                    },
                    "logs" : "0x1dcc4de8dec75d7aab85b567b6ccd41ad312451b948a7413f0a142fd40d49347",
                    "txbytes" : "0xf874800a830aae6094b94f5374fce5edbc8e2a8697c15331677e6ebf0b8094624f5374fce5edbc8e2a8697c15331677e6ebf0b1ca05d3d57e2e62661735a1b51901f4ee7e6af4cb4a5b4f307fe7dae5b1082935c40a04e89f86c38132944ad4d92a4d7b383e976abd7c676a5981e0f13a6cbc7fdf07d"
                },
                {
                    "hash" : "0x960914177920d6715543a9c94375f65612f74feab8013edca17964adb985fe49",
                    "indexes" : {
                        "data" : 9,
                        "gas" : 0,
                        "value" : 0
                    },
                    "logs" : "0x1dcc4de8dec75d7aab85b567b6ccd41ad312451b948a7413f0a142fd40d49347",
                    "txbytes" : "0xf874800a830aae6094b94f5374fce5edbc8e2a8697c15331677e6ebf0b8094634f5374fce5edbc8e2a8697c15331677e6ebf0b1ba06c182d4bd2987caa55a7e1c4c8652d15e125d0fc8bb28ed2c57cb8e500655462a03ec200e4f10ab33e4d3e414a88883d47faaa1eabbf58c26c01a90fd8444f5c36"
                },
                {
                    "hash" : "0xedc64c7cfec55db003d763a79c4143f2272a2038b5e6a6a713016d90e8174129",
                    "indexes" : {
                        "data" : 10,
                        "gas" : 0,
                        "value" : 0
                    },
                    "logs" : "0x1dcc4de8dec75d7aab85b567b6ccd41ad312451b948a7413f0a142fd40d49347",
                    "txbytes" : "0xf874800a830aae6094b94f5374fce5edbc8e2a8697c15331677e6ebf0b8094644f5374fce5edbc8e2a8697c15331677e6ebf0b1ca056dd2833f1a7aac465f96308f049f18de8a0df6e18f9864664f41e5b553fc7c6a0455e0d8361e7839de2f16e4bf0ca9b196b75f32d9994524f67b4cc40a331c4de"
                },
                {
                    "hash" : "0x960914177920d6715543a9c94375f65612f74feab8013edca17964adb985fe49",
                    "indexes" : {
                        "data" : 11,
                        "gas" : 0,
                        "value" : 0
                    },
                    "logs" : "0x1dcc4de8dec75d7aab85b567b6ccd41ad312451b948a7413f0a142fd40d49347",
                    "txbytes" : "0xf874800a830aae6094b94f5374fce5edbc8e2a8697c15331677e6ebf0b8094654f5374fce5edbc8e2a8697c15331677e6ebf0b1ba08b6504c574b41e0d661a61accc0f42ea8c5672fa6911bb76c5f4e42eecca553aa049a5c5fc75958c321ffec2733712582156027b649c3d3aeee5f6becdfa79eeca"
                },
                {
                    "hash" : "0x3ad3b60a1540407a953251bab66d740e785c5b0baff57626adbc0830cfd1b6d3",
                    "indexes" : {
                        "data" : 12,
                        "gas" : 0,
                        "value" : 0
                    },
                    "logs" : "0x1dcc4de8dec75d7aab85b567b6ccd41ad312451b948a7413f0a142fd40d49347",
                    "txbytes" : "0xf874800a830aae6094b94f5374fce5edbc8e2a8697c15331677e6ebf0b8094664f5374fce5edbc8e2a8697c15331677e6ebf0b1ba07b25bb17aeaeabcfe5c302fbd30f06e4624badec74008348342a7aff10f0b203a00e0cef1ccb2a85facc935f973cfec336d28ea476c29a71b3053200580d7b58a9"
                },
                {
                    "hash" : "0x960914177920d6715543a9c94375f65612f74feab8013edca17964adb985fe49",
                    "indexes" : {
                        "data" : 13,
                        "gas" : 0,
                        "value" : 0
                    },
                    "logs" : "0x1dcc4de8dec75d7aab85b567b6ccd41ad312451b948a7413f0a142fd40d49347",
                    "txbytes" : "0xf874800a830aae6094b94f5374fce5edbc8e2a8697c15331677e6ebf0b8094674f5374fce5edbc8e2a8697c15331677e6ebf0b1ba0e411a17a9c48a18ca17de3d65d0a123fc5507b5fe3a9155336c83d28e9a38895a026bdbcb958773c3158e3b848dce7b93957b5efcafa205eafb0dc231a18092914"
                }
            ],
            "Shanghai" : [
                {
                    "hash" : "0x8a5184719b2abe1afe6c374a1e5a2c8a1d973b91bc857caeaf443bde0d31bd78",
                    "indexes" : {
                        "data" : 0,
                        "gas" : 0,
                        "value" : 0
                    },
                    "logs" : "0x1dcc4de8dec75d7aab85b567b6ccd41ad312451b948a7413f0a142fd40d49347",
                    "txbytes" : "0xf874800a830aae6094b94f5374fce5edbc8e2a8697c15331677e6ebf0b8094c94f5374fce5edbc8e2a8697c15331677e6ebf0b1ba00f2fcdd4b12c82b225c6fa285c8bb5ec12173696d7e4dbca308a32dae03f2a8fa036144afe01bd2cba73e7afe4cefaeb5051f19c07cc4d81a508bdb50cfcd5451d"
                },
                {
                    "hash" : "0x88ffa0a7effc75fe35bfab960eadce15a96b51599d5cc30a55b813e961a54f0d",
                    "indexes" : {
                        "data" : 1,
                        "gas" : 0,
                        "value" : 0
                    },
                    "logs" : "0x1dcc4de8dec75d7aab85b567b6ccd41ad312451b948a7413f0a142fd40d49347",
                    "txbytes" : "0xf874800a830aae6094b94f5374fce5edbc8e2a8697c15331677e6ebf0b8094d94f5374fce5edbc8e2a8697c15331677e6ebf0b1ba0bbdf9288646d44d3c72bb330001f8fee4d4f89981a89ab4890bf99efd34fe019a06738f208dc53a57ec8d4924be148cb3242f8b85bbb468a02227b708ae8c3d79a"
                },
                {
                    "hash" : "0x6c3fce991d79dcee3f151aef5c5b6ed75ce2d5076e7a641a587e49a67d8b7f4b",
                    "indexes" : {
                        "data" : 2,
                        "gas" : 0,
                        "value" : 0
                    },
                    "logs" : "0x1dcc4de8dec75d7aab85b567b6ccd41ad312451b948a7413f0a142fd40d49347",
                    "txbytes" : "0xf874800a830aae6094b94f5374fce5edbc8e2a8697c15331677e6ebf0b8094024f5374fce5edbc8e2a8697c15331677e6ebf0b1ca0ddda9fbf42a2c4959c273d72edf8ce7b5c232f136650b4b3525add61ea0801fba04425c0b7a23e0db9c78a6cf9eff0462423b24f82fac1b6ba97cd0a06dfec7612"
                },
                {
                    "hash" : "0xab03c21ea3633b4675570676ad23d86357205a23135111614bc2ccc3dbae6ba2",
                    "indexes" : {
                        "data" : 3,
                        "gas" : 0,
                        "value" : 0
                    },
                    "logs" : "0x1dcc4de8dec75d7aab85b567b6ccd41ad312451b948a7413f0a142fd40d49347",
                    "txbytes" : "0xf874800a830aae6094b94f5374fce5edbc8e2a8697c15331677e6ebf0b8094504f5374fce5edbc8e2a8697c15331677e6ebf0b1ca0529c826a2f39e5bd46c7244e8b4b14eb7b39e7a4c159857fc4bdcc0f0b59418ca01b5d2c1c1ff3633624d98c872ba37144441550a27bc61bea58a81dc22e17f6a3"
                },
                {
                    "hash" : "0xf44257ba1a196c5816c9fcbb0e37838e5f13580df711826eaf01aa3fe59ac808",
                    "indexes" : {
                        "data" : 4,
                        "gas" : 0,
                        "value" : 0
                    },
                    "logs" : "0x1dcc4de8dec75d7aab85b567b6ccd41ad312451b948a7413f0a142fd40d49347",
                    "txbytes" : "0xf874800a830aae6094b94f5374fce5edbc8e2a8697c15331677e6ebf0b8094514f5374fce5edbc8e2a8697c15331677e6ebf0b1ba06c613003f07b4c58deecacc57c301179746a846e8b1287a992e5f676ef33fcf1a00ea490e8676098885825204bcb04cc035871738eb777cfa40ad1370aff8a1106"
                },
                {
                    "hash" : "0x61a4932cbb8864408db5583873ac5282c7eb02b3a5bf2b4c1d4780ae40aad4d4",
                    "indexes" : {
                        "data" : 5,
                        "gas" : 0,
                        "value" : 0
                    },
                    "logs" : "0x1dcc4de8dec75d7aab85b567b6ccd41ad312451b948a7413f0a142fd40d49347",
                    "txbytes" : "0xf874800a830aae6094b94f5374fce5edbc8e2a8697c15331677e6ebf0b8094524f5374fce5edbc8e2a8697c15331677e6ebf0b1ba0f019a173f1ade159a89ce883a63b6d5a9f0485e26e9e520a5fded126810ba89ba07179096d67a415bd915faeb54c1bfe701ccd145b5bb32cb59dc33da1be48ef7b"
                },
                {
                    "hash" : "0x8f03be16e0daa991ac8958670aad5832006f7f0eaf6cb95117fb123ed7936af1",
                    "indexes" : {
                        "data" : 6,
                        "gas" : 0,
                        "value" : 0
                    },
                    "logs" : "0x1dcc4de8dec75d7aab85b567b6ccd41ad312451b948a7413f0a142fd40d49347",
                    "txbytes" : "0xf874800a830aae6094b94f5374fce5edbc8e2a8697c15331677e6ebf0b8094604f5374fce5edbc8e2a8697c15331677e6ebf0b1ba05bed551950fdeb8a2e00c01b418e5437c91d2cafd65eb1ed8c56ad20a763a5eaa04318456a5b830203df765194dbeb83c58a396118efb61fa1db38ef10a03d326f"
                },
                {
                    "hash" : "0xa341b12e097e5fa2a6238f21216cda617e292d273079f5476597615077d9508a",
                    "indexes" : {
                        "data" : 7,
                        "gas" : 0,
                        "value" : 0
                    },
                    "logs" : "0x1dcc4de8dec75d7aab85b567b6ccd41ad312451b948a7413f0a142fd40d49347",
                    "txbytes" : "0xf874800a830aae6094b94f5374fce5edbc8e2a8697c15331677e6ebf0b8094614f5374fce5edbc8e2a8697c15331677e6ebf0b1ba0481bd123f8e9c84f507324c9f5000acb635fa9025ddf1171acb16cce22243460a0118c991fe65e29cab0b39a251c8e5057b3b5c06550f40eb7152843336fadf527"
                },
                {
                    "hash" : "0x9ed69ddad8131b3ad75e137a1346f0fb4f98565e9ff79a9e63c4b5c569b30b9f",
                    "indexes" : {
                        "data" : 8,
                        "gas" : 0,
                        "value" : 0
                    },
                    "logs" : "0x1dcc4de8dec75d7aab85b567b6ccd41ad312451b948a7413f0a142fd40d49347",
                    "txbytes" : "0xf874800a830aae6094b94f5374fce5edbc8e2a8697c15331677e6ebf0b8094624f5374fce5edbc8e2a8697c15331677e6ebf0b1ca05d3d57e2e62661735a1b51901f4ee7e6af4cb4a5b4f307fe7dae5b1082935c40a04e89f86c38132944ad4d92a4d7b383e976abd7c676a5981e0f13a6cbc7fdf07d"
                },
                {
                    "hash" : "0xad5199f573bd52488dd47602a16fe72a910a042dd4a6c7c79be293dd7747c51f",
                    "indexes" : {
                        "data" : 9,
                        "gas" : 0,
                        "value" : 0
                    },
                    "logs" : "0x1dcc4de8dec75d7aab85b567b6ccd41ad312451b948a7413f0a142fd40d49347",
                    "txbytes" : "0xf874800a830aae6094b94f5374fce5edbc8e2a8697c15331677e6ebf0b8094634f5374fce5edbc8e2a8697c15331677e6ebf0b1ba06c182d4bd2987caa55a7e1c4c8652d15e125d0fc8bb28ed2c57cb8e500655462a03ec200e4f10ab33e4d3e414a88883d47faaa1eabbf58c26c01a90fd8444f5c36"
                },
                {
                    "hash" : "0xedc64c7cfec55db003d763a79c4143f2272a2038b5e6a6a713016d90e8174129",
                    "indexes" : {
                        "data" : 10,
                        "gas" : 0,
                        "value" : 0
                    },
                    "logs" : "0x1dcc4de8dec75d7aab85b567b6ccd41ad312451b948a7413f0a142fd40d49347",
                    "txbytes" : "0xf874800a830aae6094b94f5374fce5edbc8e2a8697c15331677e6ebf0b8094644f5374fce5edbc8e2a8697c15331677e6ebf0b1ca056dd2833f1a7aac465f96308f049f18de8a0df6e18f9864664f41e5b553fc7c6a0455e0d8361e7839de2f16e4bf0ca9b196b75f32d9994524f67b4cc40a331c4de"
                },
                {
                    "hash" : "0xc26e6de46d92b57aa7ac1bde28258437d0d95096a03d90ceb87b7db6cf27f98e",
                    "indexes" : {
                        "data" : 11,
                        "gas" : 0,
                        "value" : 0
                    },
                    "logs" : "0x1dcc4de8dec75d7aab85b567b6ccd41ad312451b948a7413f0a142fd40d49347",
                    "txbytes" : "0xf874800a830aae6094b94f5374fce5edbc8e2a8697c15331677e6ebf0b8094654f5374fce5edbc8e2a8697c15331677e6ebf0b1ba08b6504c574b41e0d661a61accc0f42ea8c5672fa6911bb76c5f4e42eecca553aa049a5c5fc75958c321ffec2733712582156027b649c3d3aeee5f6becdfa79eeca"
                },
                {
                    "hash" : "0x3ad3b60a1540407a953251bab66d740e785c5b0baff57626adbc0830cfd1b6d3",
                    "indexes" : {
                        "data" : 12,
                        "gas" : 0,
                        "value" : 0
                    },
                    "logs" : "0x1dcc4de8dec75d7aab85b567b6ccd41ad312451b948a7413f0a142fd40d49347",
                    "txbytes" : "0xf874800a830aae6094b94f5374fce5edbc8e2a8697c15331677e6ebf0b8094664f5374fce5edbc8e2a8697c15331677e6ebf0b1ba07b25bb17aeaeabcfe5c302fbd30f06e4624badec74008348342a7aff10f0b203a00e0cef1ccb2a85facc935f973cfec336d28ea476c29a71b3053200580d7b58a9"
                },
                {
                    "hash" : "0xa38bec0bb7b79decd179d419333d987e1f69f72c336dfbdbad7e6741efd1b932",
                    "indexes" : {
                        "data" : 13,
                        "gas" : 0,
                        "value" : 0
                    },
                    "logs" : "0x1dcc4de8dec75d7aab85b567b6ccd41ad312451b948a7413f0a142fd40d49347",
                    "txbytes" : "0xf874800a830aae6094b94f5374fce5edbc8e2a8697c15331677e6ebf0b8094674f5374fce5edbc8e2a8697c15331677e6ebf0b1ba0e411a17a9c48a18ca17de3d65d0a123fc5507b5fe3a9155336c83d28e9a38895a026bdbcb958773c3158e3b848dce7b93957b5efcafa205eafb0dc231a18092914"
                }
            ]
        },
        "pre" : {
            "0x024f5374fce5edbc8e2a8697c15331677e6ebf0b" : {
                "balance" : "0x00",
                "code" : "0xef00010100040200010009030000000000000263aabbccdd60005500",
                "nonce" : "0x00",
                "storage" : {
                }
            },
            "0x504f5374fce5edbc8e2a8697c15331677e6ebf0b" : {
                "balance" : "0x00",
                "code" : "0xef0001010004020001000503000000000000023860005500",
                "nonce" : "0x00",
                "storage" : {
                }
            },
            "0x514f5374fce5edbc8e2a8697c15331677e6ebf0b" : {
                "balance" : "0x00",
                "code" : "0xef000101000402000100140300040000000003602d600160003960005160005560205160015500aabbccdd",
                "nonce" : "0x00",
                "storage" : {
                }
            },
            "0x524f5374fce5edbc8e2a8697c15331677e6ebf0b" : {
                "balance" : "0x00",
                "code" : "0xef0001010004020001003203000400000000037fffffffffffffffffffffffffffffffffffffffffffffffffffffffffffffffff6000526008604560003960005160005500aabbccdd",
                "nonce" : "0x00",
                "storage" : {
                }
            },
            "0x604f5374fce5edbc8e2a8697c15331677e6ebf0b" : {
                "balance" : "0x00",
                "code" : "0x73d94f5374fce5edbc8e2a8697c15331677e6ebf0b3b600055",
                "nonce" : "0x00",
                "storage" : {
                }
            },
            "0x614f5374fce5edbc8e2a8697c15331677e6ebf0b" : {
                "balance" : "0x00",
                "code" : "0xef0001010004020001001a030000000000000273d94f5374fce5edbc8e2a8697c15331677e6ebf0b3b60005500",
                "nonce" : "0x00",
                "storage" : {
                }
            },
            "0x624f5374fce5edbc8e2a8697c15331677e6ebf0b" : {
                "balance" : "0x00",
                "code" : "0x73d94f5374fce5edbc8e2a8697c15331677e6ebf0b3f600055",
                "nonce" : "0x00",
                "storage" : {
                }
            },
            "0x634f5374fce5edbc8e2a8697c15331677e6ebf0b" : {
                "balance" : "0x00",
                "code" : "0xef0001010004020001001a030000000000000273d94f5374fce5edbc8e2a8697c15331677e6ebf0b3f60005500",
                "nonce" : "0x00",
                "storage" : {
                }
            },
            "0x644f5374fce5edbc8e2a8697c15331677e6ebf0b" : {
                "balance" : "0x00",
                "code" : "0x601b6001600073d94f5374fce5edbc8e2a8697c15331677e6ebf0b3c600051600055",
                "nonce" : "0x00",
                "storage" : {
                }
            },
            "0x654f5374fce5edbc8e2a8697c15331677e6ebf0b" : {
                "balance" : "0x00",
                "code" : "0xef000101000402000100230300000000000004601b6001600073d94f5374fce5edbc8e2a8697c15331677e6ebf0b3c60005160005500",
                "nonce" : "0x00",
                "storage" : {
                }
            },
            "0x664f5374fce5edbc8e2a8697c15331677e6ebf0b" : {
                "balance" : "0x00",
                "code" : "0x7fffffffffffffffffffffffffffffffffffffffffffffffffffffffffffffffff60005260086019600073d94f5374fce5edbc8e2a8697c15331677e6ebf0b3c600051600055",
                "nonce" : "0x00",
                "storage" : {
                }
            },
            "0x674f5374fce5edbc8e2a8697c15331677e6ebf0b" : {
                "balance" : "0x00",
                "code" : "0xef0001010004020001004703000000000000047fffffffffffffffffffffffffffffffffffffffffffffffffffffffffffffffff60005260086019600073d94f5374fce5edbc8e2a8697c15331677e6ebf0b3c60005160005500",
                "nonce" : "0x00",
                "storage" : {
                }
            },
            "0xa94f5374fce5edbc8e2a8697c15331677e6ebf0b" : {
                "balance" : "0x989680",
                "code" : "0x",
                "nonce" : "0x00",
                "storage" : {
                }
            },
            "0xb94f5374fce5edbc8e2a8697c15331677e6ebf0b" : {
                "balance" : "0x00",
                "code" : "0x6000806000806000803560601c620186a0f160005560018055",
                "nonce" : "0x00",
                "storage" : {
                }
            },
            "0xc94f5374fce5edbc8e2a8697c15331677e6ebf0b" : {
                "balance" : "0x00",
                "code" : "0xef000101000402000100060300000000000002600160005500",
                "nonce" : "0x00",
                "storage" : {
                }
            },
            "0xd94f5374fce5edbc8e2a8697c15331677e6ebf0b" : {
                "balance" : "0x00",
                "code" : "0xef000101000402000100060300040000000002600160005500aabbccdd",
                "nonce" : "0x00",
                "storage" : {
                }
            }
        },
        "transaction" : {
            "data" : [
                "0xc94f5374fce5edbc8e2a8697c15331677e6ebf0b",
                "0xd94f5374fce5edbc8e2a8697c15331677e6ebf0b",
                "0x024f5374fce5edbc8e2a8697c15331677e6ebf0b",
                "0x504f5374fce5edbc8e2a8697c15331677e6ebf0b",
                "0x514f5374fce5edbc8e2a8697c15331677e6ebf0b",
                "0x524f5374fce5edbc8e2a8697c15331677e6ebf0b",
                "0x604f5374fce5edbc8e2a8697c15331677e6ebf0b",
                "0x614f5374fce5edbc8e2a8697c15331677e6ebf0b",
                "0x624f5374fce5edbc8e2a8697c15331677e6ebf0b",
                "0x634f5374fce5edbc8e2a8697c15331677e6ebf0b",
                "0x644f5374fce5edbc8e2a8697c15331677e6ebf0b",
                "0x654f5374fce5edbc8e2a8697c15331677e6ebf0b",
                "0x664f5374fce5edbc8e2a8697c15331677e6ebf0b",
                "0x674f5374fce5edbc8e2a8697c15331677e6ebf0b"
            ],
            "gasLimit" : [
                "0x0aae60"
            ],
            "gasPrice" : "0x0a",
            "nonce" : "0x00",
            "secretKey" : "0x45a915e4d060149eb4365960e6a7a45f334393093061116b197e3240065ff2d8",
            "sender" : "0xa94f5374fce5edbc8e2a8697c15331677e6ebf0b",
            "to" : "0xb94f5374fce5edbc8e2a8697c15331677e6ebf0b",
            "value" : [
                "0x00"
            ]
        }
    }
}