{
    "shallowStack_d53g0v0_EIP150" : {
        "_info" : {
            "comment" : "",
            "filledwith" : "cpp-1.3.0+commit.16292201.Linux.g++",
            "source" : "/src/GenStateTestAsBcTemp/stStackTests/shallowStack_d53g0v0Filler.json"
        },
        "blocks" : [
            {
                "blockHeader" : {
                    "bloom" : "0x00000000000000000000000000000000000000000000000000000000000000000000000000000000000000000000000000000000000000000000000000000000000000000000000000000000000000000000000000000000000000000000000000000000000000000000000000000000000000000000000000000000000000000000000000000000000000000000000000000000000000000000000000000000000000000000000000000000000000000000000000000000000000000000000000000000000000000000000000000000000000000000000000000000000000000000000000000000000000000000000000000000000000000000000000000000",
                    "coinbase" : "0x2adc25665018aa1fe0e6bc666dac8fc2697ff9ba",
                    "difficulty" : "0x020000",
                    "extraData" : "",
                    "gasLimit" : "0x0a00000000",
                    "gasUsed" : "0x0493e0",
                    "hash" : "0xda07668fc56e3713852dbc93dda40d5cc3b523f94debc6fbfa8d25e998a8d33d",
                    "mixHash" : "0xb30a69194f3c2d46773137cab76bd6ea2f8a16a63957947da23fb2e1e0b6d23a",
                    "nonce" : "0x39fcc1f395fb57d3",
                    "number" : "0x01",
                    "parentHash" : "0xbf82cec88667ba7112d825fdde9b12f69a584c0d88a818f72cf533860eef9d12",
                    "receiptTrie" : "0x043709099859f0100751918acbcc9a5d8231156ae96e39144d1253a5fd44b7a4",
                    "stateRoot" : "0xb8c610ebc6de2fcc601a8bc7d2740481b7b09ad220228036b2b0ed0255ed04a6",
                    "timestamp" : "0x03e8",
                    "transactionsTrie" : "0x7405fdc1b1ff1da6fb229faafde53579ab7b8bfbc024a1dd10ef764feb31eba7",
                    "uncleHash" : "0x1dcc4de8dec75d7aab85b567b6ccd41ad312451b948a7413f0a142fd40d49347"
                },
                "rlp" : "0xf9026cf901faa0bf82cec88667ba7112d825fdde9b12f69a584c0d88a818f72cf533860eef9d12a01dcc4de8dec75d7aab85b567b6ccd41ad312451b948a7413f0a142fd40d49347942adc25665018aa1fe0e6bc666dac8fc2697ff9baa0b8c610ebc6de2fcc601a8bc7d2740481b7b09ad220228036b2b0ed0255ed04a6a07405fdc1b1ff1da6fb229faafde53579ab7b8bfbc024a1dd10ef764feb31eba7a0043709099859f0100751918acbcc9a5d8231156ae96e39144d1253a5fd44b7a4b90100000000000000000000000000000000000000000000000000000000000000000000000000000000000000000000000000000000000000000000000000000000000000000000000000000000000000000000000000000000000000000000000000000000000000000000000000000000000000000000000000000000000000000000000000000000000000000000000000000000000000000000000000000000000000000000000000000000000000000000000000000000000000000000000000000000000000000000000000000000000000000000000000000000000000000000000000000000000000000000000000000000000000000000000000000000008302000001850a00000000830493e08203e880a0b30a69194f3c2d46773137cab76bd6ea2f8a16a63957947da23fb2e1e0b6d23a8839fcc1f395fb57d3f86cf86a8001830493e080809e60136012601160106009600860076006600560046003600260018f6000551ca061c8cfeaed609c804acafe6e11916a1cf50babe0682f0a686a40d42c019906ffa058362bac33fe5c752a548d76745411ee76d29869bd8f0d4163dd933eaeee4c52c0",
                "transactions" : [
                    {
                        "data" : "0x60136012601160106009600860076006600560046003600260018f600055",
                        "gasLimit" : "0x0493e0",
                        "gasPrice" : "0x01",
                        "nonce" : "0x00",
                        "r" : "0x61c8cfeaed609c804acafe6e11916a1cf50babe0682f0a686a40d42c019906ff",
                        "s" : "0x58362bac33fe5c752a548d76745411ee76d29869bd8f0d4163dd933eaeee4c52",
                        "to" : "",
                        "v" : "0x1c",
                        "value" : "0x00"
                    }
                ],
                "uncleHeaders" : [
                ]
            }
        ],
        "genesisBlockHeader" : {
            "bloom" : "0x00000000000000000000000000000000000000000000000000000000000000000000000000000000000000000000000000000000000000000000000000000000000000000000000000000000000000000000000000000000000000000000000000000000000000000000000000000000000000000000000000000000000000000000000000000000000000000000000000000000000000000000000000000000000000000000000000000000000000000000000000000000000000000000000000000000000000000000000000000000000000000000000000000000000000000000000000000000000000000000000000000000000000000000000000000000",
            "coinbase" : "0x2adc25665018aa1fe0e6bc666dac8fc2697ff9ba",
            "difficulty" : "0x020000",
            "extraData" : "0x42",
            "gasLimit" : "0x0a00000000",
            "gasUsed" : "0x00",
            "hash" : "0xbf82cec88667ba7112d825fdde9b12f69a584c0d88a818f72cf533860eef9d12",
            "mixHash" : "0x56e81f171bcc55a6ff8345e692c0f86e5b48e01b996cadc001622fb5e363b421",
            "nonce" : "0x0102030405060708",
            "number" : "0x00",
            "parentHash" : "0x0000000000000000000000000000000000000000000000000000000000000000",
            "receiptTrie" : "0x56e81f171bcc55a6ff8345e692c0f86e5b48e01b996cadc001622fb5e363b421",
            "stateRoot" : "0x008ee04e394b2d73709f97316aceb055e1ef425cf2cc18511254b3b024842b89",
            "timestamp" : "0x03b6",
            "transactionsTrie" : "0x56e81f171bcc55a6ff8345e692c0f86e5b48e01b996cadc001622fb5e363b421",
            "uncleHash" : "0x1dcc4de8dec75d7aab85b567b6ccd41ad312451b948a7413f0a142fd40d49347"
        },
        "genesisRLP" : "0xf901fcf901f7a00000000000000000000000000000000000000000000000000000000000000000a01dcc4de8dec75d7aab85b567b6ccd41ad312451b948a7413f0a142fd40d49347942adc25665018aa1fe0e6bc666dac8fc2697ff9baa0008ee04e394b2d73709f97316aceb055e1ef425cf2cc18511254b3b024842b89a056e81f171bcc55a6ff8345e692c0f86e5b48e01b996cadc001622fb5e363b421a056e81f171bcc55a6ff8345e692c0f86e5b48e01b996cadc001622fb5e363b421b90100000000000000000000000000000000000000000000000000000000000000000000000000000000000000000000000000000000000000000000000000000000000000000000000000000000000000000000000000000000000000000000000000000000000000000000000000000000000000000000000000000000000000000000000000000000000000000000000000000000000000000000000000000000000000000000000000000000000000000000000000000000000000000000000000000000000000000000000000000000000000000000000000000000000000000000000000000000000000000000000000000000000000000000000000000000008302000080850a00000000808203b642a056e81f171bcc55a6ff8345e692c0f86e5b48e01b996cadc001622fb5e363b421880102030405060708c0c0",
        "lastblockhash" : "0xda07668fc56e3713852dbc93dda40d5cc3b523f94debc6fbfa8d25e998a8d33d",
        "network" : "EIP150",
        "postState" : {
            "0x2adc25665018aa1fe0e6bc666dac8fc2697ff9ba" : {
                "balance" : "0x4563918244f893e0",
                "code" : "",
                "nonce" : "0x00",
                "storage" : {
                }
            },
            "0xa94f5374fce5edbc8e2a8697c15331677e6ebf0b" : {
                "balance" : "0x270ffffb6c20",
                "code" : "",
                "nonce" : "0x01",
                "storage" : {
                }
            }
        },
        "pre" : {
            "0xa94f5374fce5edbc8e2a8697c15331677e6ebf0b" : {
                "balance" : "0x271000000000",
                "code" : "",
                "nonce" : "0x00",
                "storage" : {
                }
            }
        }
    },
    "shallowStack_d53g0v0_EIP158" : {
        "_info" : {
            "comment" : "",
            "filledwith" : "cpp-1.3.0+commit.16292201.Linux.g++",
            "source" : "/src/GenStateTestAsBcTemp/stStackTests/shallowStack_d53g0v0Filler.json"
        },
        "blocks" : [
            {
                "blockHeader" : {
                    "bloom" : "0x00000000000000000000000000000000000000000000000000000000000000000000000000000000000000000000000000000000000000000000000000000000000000000000000000000000000000000000000000000000000000000000000000000000000000000000000000000000000000000000000000000000000000000000000000000000000000000000000000000000000000000000000000000000000000000000000000000000000000000000000000000000000000000000000000000000000000000000000000000000000000000000000000000000000000000000000000000000000000000000000000000000000000000000000000000000",
                    "coinbase" : "0x2adc25665018aa1fe0e6bc666dac8fc2697ff9ba",
                    "difficulty" : "0x020000",
                    "extraData" : "",
                    "gasLimit" : "0x0a00000000",
                    "gasUsed" : "0x0493e0",
                    "hash" : "0x06dd357aed66d46c870e9f14e5f35eb5733a0ec9f72b0ddf433e9c94a5ef33f0",
                    "mixHash" : "0x1b91d7de57fcf7861a0f3d20e6cc9d5566182b89fcbd52dd0508c4e7e115622e",
                    "nonce" : "0x72c6c2b20770da20",
                    "number" : "0x01",
                    "parentHash" : "0xbf82cec88667ba7112d825fdde9b12f69a584c0d88a818f72cf533860eef9d12",
                    "receiptTrie" : "0x043709099859f0100751918acbcc9a5d8231156ae96e39144d1253a5fd44b7a4",
                    "stateRoot" : "0xb8c610ebc6de2fcc601a8bc7d2740481b7b09ad220228036b2b0ed0255ed04a6",
                    "timestamp" : "0x03e8",
                    "transactionsTrie" : "0x7405fdc1b1ff1da6fb229faafde53579ab7b8bfbc024a1dd10ef764feb31eba7",
                    "uncleHash" : "0x1dcc4de8dec75d7aab85b567b6ccd41ad312451b948a7413f0a142fd40d49347"
                },
                "rlp" : "0xf9026cf901faa0bf82cec88667ba7112d825fdde9b12f69a584c0d88a818f72cf533860eef9d12a01dcc4de8dec75d7aab85b567b6ccd41ad312451b948a7413f0a142fd40d49347942adc25665018aa1fe0e6bc666dac8fc2697ff9baa0b8c610ebc6de2fcc601a8bc7d2740481b7b09ad220228036b2b0ed0255ed04a6a07405fdc1b1ff1da6fb229faafde53579ab7b8bfbc024a1dd10ef764feb31eba7a0043709099859f0100751918acbcc9a5d8231156ae96e39144d1253a5fd44b7a4b90100000000000000000000000000000000000000000000000000000000000000000000000000000000000000000000000000000000000000000000000000000000000000000000000000000000000000000000000000000000000000000000000000000000000000000000000000000000000000000000000000000000000000000000000000000000000000000000000000000000000000000000000000000000000000000000000000000000000000000000000000000000000000000000000000000000000000000000000000000000000000000000000000000000000000000000000000000000000000000000000000000000000000000000000000000000008302000001850a00000000830493e08203e880a01b91d7de57fcf7861a0f3d20e6cc9d5566182b89fcbd52dd0508c4e7e115622e8872c6c2b20770da20f86cf86a8001830493e080809e60136012601160106009600860076006600560046003600260018f6000551ca061c8cfeaed609c804acafe6e11916a1cf50babe0682f0a686a40d42c019906ffa058362bac33fe5c752a548d76745411ee76d29869bd8f0d4163dd933eaeee4c52c0",
                "transactions" : [
                    {
                        "data" : "0x60136012601160106009600860076006600560046003600260018f600055",
                        "gasLimit" : "0x0493e0",
                        "gasPrice" : "0x01",
                        "nonce" : "0x00",
                        "r" : "0x61c8cfeaed609c804acafe6e11916a1cf50babe0682f0a686a40d42c019906ff",
                        "s" : "0x58362bac33fe5c752a548d76745411ee76d29869bd8f0d4163dd933eaeee4c52",
                        "to" : "",
                        "v" : "0x1c",
                        "value" : "0x00"
                    }
                ],
                "uncleHeaders" : [
                ]
            }
        ],
        "genesisBlockHeader" : {
            "bloom" : "0x00000000000000000000000000000000000000000000000000000000000000000000000000000000000000000000000000000000000000000000000000000000000000000000000000000000000000000000000000000000000000000000000000000000000000000000000000000000000000000000000000000000000000000000000000000000000000000000000000000000000000000000000000000000000000000000000000000000000000000000000000000000000000000000000000000000000000000000000000000000000000000000000000000000000000000000000000000000000000000000000000000000000000000000000000000000",
            "coinbase" : "0x2adc25665018aa1fe0e6bc666dac8fc2697ff9ba",
            "difficulty" : "0x020000",
            "extraData" : "0x42",
            "gasLimit" : "0x0a00000000",
            "gasUsed" : "0x00",
            "hash" : "0xbf82cec88667ba7112d825fdde9b12f69a584c0d88a818f72cf533860eef9d12",
            "mixHash" : "0x56e81f171bcc55a6ff8345e692c0f86e5b48e01b996cadc001622fb5e363b421",
            "nonce" : "0x0102030405060708",
            "number" : "0x00",
            "parentHash" : "0x0000000000000000000000000000000000000000000000000000000000000000",
            "receiptTrie" : "0x56e81f171bcc55a6ff8345e692c0f86e5b48e01b996cadc001622fb5e363b421",
            "stateRoot" : "0x008ee04e394b2d73709f97316aceb055e1ef425cf2cc18511254b3b024842b89",
            "timestamp" : "0x03b6",
            "transactionsTrie" : "0x56e81f171bcc55a6ff8345e692c0f86e5b48e01b996cadc001622fb5e363b421",
            "uncleHash" : "0x1dcc4de8dec75d7aab85b567b6ccd41ad312451b948a7413f0a142fd40d49347"
        },
        "genesisRLP" : "0xf901fcf901f7a00000000000000000000000000000000000000000000000000000000000000000a01dcc4de8dec75d7aab85b567b6ccd41ad312451b948a7413f0a142fd40d49347942adc25665018aa1fe0e6bc666dac8fc2697ff9baa0008ee04e394b2d73709f97316aceb055e1ef425cf2cc18511254b3b024842b89a056e81f171bcc55a6ff8345e692c0f86e5b48e01b996cadc001622fb5e363b421a056e81f171bcc55a6ff8345e692c0f86e5b48e01b996cadc001622fb5e363b421b90100000000000000000000000000000000000000000000000000000000000000000000000000000000000000000000000000000000000000000000000000000000000000000000000000000000000000000000000000000000000000000000000000000000000000000000000000000000000000000000000000000000000000000000000000000000000000000000000000000000000000000000000000000000000000000000000000000000000000000000000000000000000000000000000000000000000000000000000000000000000000000000000000000000000000000000000000000000000000000000000000000000000000000000000000000000008302000080850a00000000808203b642a056e81f171bcc55a6ff8345e692c0f86e5b48e01b996cadc001622fb5e363b421880102030405060708c0c0",
        "lastblockhash" : "0x06dd357aed66d46c870e9f14e5f35eb5733a0ec9f72b0ddf433e9c94a5ef33f0",
        "network" : "EIP158",
        "postState" : {
            "0x2adc25665018aa1fe0e6bc666dac8fc2697ff9ba" : {
                "balance" : "0x4563918244f893e0",
                "code" : "",
                "nonce" : "0x00",
                "storage" : {
                }
            },
            "0xa94f5374fce5edbc8e2a8697c15331677e6ebf0b" : {
                "balance" : "0x270ffffb6c20",
                "code" : "",
                "nonce" : "0x01",
                "storage" : {
                }
            }
        },
        "pre" : {
            "0xa94f5374fce5edbc8e2a8697c15331677e6ebf0b" : {
                "balance" : "0x271000000000",
                "code" : "",
                "nonce" : "0x00",
                "storage" : {
                }
            }
        }
    },
    "shallowStack_d53g0v0_Frontier" : {
        "_info" : {
            "comment" : "",
            "filledwith" : "cpp-1.3.0+commit.16292201.Linux.g++",
            "source" : "/src/GenStateTestAsBcTemp/stStackTests/shallowStack_d53g0v0Filler.json"
        },
        "blocks" : [
            {
                "blockHeader" : {
                    "bloom" : "0x00000000000000000000000000000000000000000000000000000000000000000000000000000000000000000000000000000000000000000000000000000000000000000000000000000000000000000000000000000000000000000000000000000000000000000000000000000000000000000000000000000000000000000000000000000000000000000000000000000000000000000000000000000000000000000000000000000000000000000000000000000000000000000000000000000000000000000000000000000000000000000000000000000000000000000000000000000000000000000000000000000000000000000000000000000000",
                    "coinbase" : "0x2adc25665018aa1fe0e6bc666dac8fc2697ff9ba",
                    "difficulty" : "0x020000",
                    "extraData" : "",
                    "gasLimit" : "0x0a00000000",
                    "gasUsed" : "0x0493e0",
                    "hash" : "0x0ee9981c17abc379035d50ad59b6db39048041c842be31feadadf1c0802befc7",
                    "mixHash" : "0x38bfd5660b8b8572d1808d5ed331878c70713775a40c02b6559ed6f873a92fc5",
                    "nonce" : "0x3675ef08283a48dc",
                    "number" : "0x01",
                    "parentHash" : "0xbf82cec88667ba7112d825fdde9b12f69a584c0d88a818f72cf533860eef9d12",
                    "receiptTrie" : "0x043709099859f0100751918acbcc9a5d8231156ae96e39144d1253a5fd44b7a4",
                    "stateRoot" : "0xb8c610ebc6de2fcc601a8bc7d2740481b7b09ad220228036b2b0ed0255ed04a6",
                    "timestamp" : "0x03e8",
                    "transactionsTrie" : "0x7405fdc1b1ff1da6fb229faafde53579ab7b8bfbc024a1dd10ef764feb31eba7",
                    "uncleHash" : "0x1dcc4de8dec75d7aab85b567b6ccd41ad312451b948a7413f0a142fd40d49347"
                },
                "rlp" : "0xf9026cf901faa0bf82cec88667ba7112d825fdde9b12f69a584c0d88a818f72cf533860eef9d12a01dcc4de8dec75d7aab85b567b6ccd41ad312451b948a7413f0a142fd40d49347942adc25665018aa1fe0e6bc666dac8fc2697ff9baa0b8c610ebc6de2fcc601a8bc7d2740481b7b09ad220228036b2b0ed0255ed04a6a07405fdc1b1ff1da6fb229faafde53579ab7b8bfbc024a1dd10ef764feb31eba7a0043709099859f0100751918acbcc9a5d8231156ae96e39144d1253a5fd44b7a4b90100000000000000000000000000000000000000000000000000000000000000000000000000000000000000000000000000000000000000000000000000000000000000000000000000000000000000000000000000000000000000000000000000000000000000000000000000000000000000000000000000000000000000000000000000000000000000000000000000000000000000000000000000000000000000000000000000000000000000000000000000000000000000000000000000000000000000000000000000000000000000000000000000000000000000000000000000000000000000000000000000000000000000000000000000000000008302000001850a00000000830493e08203e880a038bfd5660b8b8572d1808d5ed331878c70713775a40c02b6559ed6f873a92fc5883675ef08283a48dcf86cf86a8001830493e080809e60136012601160106009600860076006600560046003600260018f6000551ca061c8cfeaed609c804acafe6e11916a1cf50babe0682f0a686a40d42c019906ffa058362bac33fe5c752a548d76745411ee76d29869bd8f0d4163dd933eaeee4c52c0",
                "transactions" : [
                    {
                        "data" : "0x60136012601160106009600860076006600560046003600260018f600055",
                        "gasLimit" : "0x0493e0",
                        "gasPrice" : "0x01",
                        "nonce" : "0x00",
                        "r" : "0x61c8cfeaed609c804acafe6e11916a1cf50babe0682f0a686a40d42c019906ff",
                        "s" : "0x58362bac33fe5c752a548d76745411ee76d29869bd8f0d4163dd933eaeee4c52",
                        "to" : "",
                        "v" : "0x1c",
                        "value" : "0x00"
                    }
                ],
                "uncleHeaders" : [
                ]
            }
        ],
        "genesisBlockHeader" : {
            "bloom" : "0x00000000000000000000000000000000000000000000000000000000000000000000000000000000000000000000000000000000000000000000000000000000000000000000000000000000000000000000000000000000000000000000000000000000000000000000000000000000000000000000000000000000000000000000000000000000000000000000000000000000000000000000000000000000000000000000000000000000000000000000000000000000000000000000000000000000000000000000000000000000000000000000000000000000000000000000000000000000000000000000000000000000000000000000000000000000",
            "coinbase" : "0x2adc25665018aa1fe0e6bc666dac8fc2697ff9ba",
            "difficulty" : "0x020000",
            "extraData" : "0x42",
            "gasLimit" : "0x0a00000000",
            "gasUsed" : "0x00",
            "hash" : "0xbf82cec88667ba7112d825fdde9b12f69a584c0d88a818f72cf533860eef9d12",
            "mixHash" : "0x56e81f171bcc55a6ff8345e692c0f86e5b48e01b996cadc001622fb5e363b421",
            "nonce" : "0x0102030405060708",
            "number" : "0x00",
            "parentHash" : "0x0000000000000000000000000000000000000000000000000000000000000000",
            "receiptTrie" : "0x56e81f171bcc55a6ff8345e692c0f86e5b48e01b996cadc001622fb5e363b421",
            "stateRoot" : "0x008ee04e394b2d73709f97316aceb055e1ef425cf2cc18511254b3b024842b89",
            "timestamp" : "0x03b6",
            "transactionsTrie" : "0x56e81f171bcc55a6ff8345e692c0f86e5b48e01b996cadc001622fb5e363b421",
            "uncleHash" : "0x1dcc4de8dec75d7aab85b567b6ccd41ad312451b948a7413f0a142fd40d49347"
        },
        "genesisRLP" : "0xf901fcf901f7a00000000000000000000000000000000000000000000000000000000000000000a01dcc4de8dec75d7aab85b567b6ccd41ad312451b948a7413f0a142fd40d49347942adc25665018aa1fe0e6bc666dac8fc2697ff9baa0008ee04e394b2d73709f97316aceb055e1ef425cf2cc18511254b3b024842b89a056e81f171bcc55a6ff8345e692c0f86e5b48e01b996cadc001622fb5e363b421a056e81f171bcc55a6ff8345e692c0f86e5b48e01b996cadc001622fb5e363b421b90100000000000000000000000000000000000000000000000000000000000000000000000000000000000000000000000000000000000000000000000000000000000000000000000000000000000000000000000000000000000000000000000000000000000000000000000000000000000000000000000000000000000000000000000000000000000000000000000000000000000000000000000000000000000000000000000000000000000000000000000000000000000000000000000000000000000000000000000000000000000000000000000000000000000000000000000000000000000000000000000000000000000000000000000000000000008302000080850a00000000808203b642a056e81f171bcc55a6ff8345e692c0f86e5b48e01b996cadc001622fb5e363b421880102030405060708c0c0",
        "lastblockhash" : "0x0ee9981c17abc379035d50ad59b6db39048041c842be31feadadf1c0802befc7",
        "network" : "Frontier",
        "postState" : {
            "0x2adc25665018aa1fe0e6bc666dac8fc2697ff9ba" : {
                "balance" : "0x4563918244f893e0",
                "code" : "",
                "nonce" : "0x00",
                "storage" : {
                }
            },
            "0xa94f5374fce5edbc8e2a8697c15331677e6ebf0b" : {
                "balance" : "0x270ffffb6c20",
                "code" : "",
                "nonce" : "0x01",
                "storage" : {
                }
            }
        },
        "pre" : {
            "0xa94f5374fce5edbc8e2a8697c15331677e6ebf0b" : {
                "balance" : "0x271000000000",
                "code" : "",
                "nonce" : "0x00",
                "storage" : {
                }
            }
        }
    },
    "shallowStack_d53g0v0_Homestead" : {
        "_info" : {
            "comment" : "",
            "filledwith" : "cpp-1.3.0+commit.16292201.Linux.g++",
            "source" : "/src/GenStateTestAsBcTemp/stStackTests/shallowStack_d53g0v0Filler.json"
        },
        "blocks" : [
            {
                "blockHeader" : {
                    "bloom" : "0x00000000000000000000000000000000000000000000000000000000000000000000000000000000000000000000000000000000000000000000000000000000000000000000000000000000000000000000000000000000000000000000000000000000000000000000000000000000000000000000000000000000000000000000000000000000000000000000000000000000000000000000000000000000000000000000000000000000000000000000000000000000000000000000000000000000000000000000000000000000000000000000000000000000000000000000000000000000000000000000000000000000000000000000000000000000",
                    "coinbase" : "0x2adc25665018aa1fe0e6bc666dac8fc2697ff9ba",
                    "difficulty" : "0x020000",
                    "extraData" : "",
                    "gasLimit" : "0x0a00000000",
                    "gasUsed" : "0x0493e0",
                    "hash" : "0x52b22b7c21c6861737dea655e47c52efd24b951abccbc5b4366cd9ec87a07f29",
                    "mixHash" : "0x010b857dabdf91dcb89ff726128a68f89bac7ac93369c04a3953502a4adb6610",
                    "nonce" : "0xc9ebd873c75e70e4",
                    "number" : "0x01",
                    "parentHash" : "0xbf82cec88667ba7112d825fdde9b12f69a584c0d88a818f72cf533860eef9d12",
                    "receiptTrie" : "0x043709099859f0100751918acbcc9a5d8231156ae96e39144d1253a5fd44b7a4",
                    "stateRoot" : "0xb8c610ebc6de2fcc601a8bc7d2740481b7b09ad220228036b2b0ed0255ed04a6",
                    "timestamp" : "0x03e8",
                    "transactionsTrie" : "0x7405fdc1b1ff1da6fb229faafde53579ab7b8bfbc024a1dd10ef764feb31eba7",
                    "uncleHash" : "0x1dcc4de8dec75d7aab85b567b6ccd41ad312451b948a7413f0a142fd40d49347"
                },
                "rlp" : "0xf9026cf901faa0bf82cec88667ba7112d825fdde9b12f69a584c0d88a818f72cf533860eef9d12a01dcc4de8dec75d7aab85b567b6ccd41ad312451b948a7413f0a142fd40d49347942adc25665018aa1fe0e6bc666dac8fc2697ff9baa0b8c610ebc6de2fcc601a8bc7d2740481b7b09ad220228036b2b0ed0255ed04a6a07405fdc1b1ff1da6fb229faafde53579ab7b8bfbc024a1dd10ef764feb31eba7a0043709099859f0100751918acbcc9a5d8231156ae96e39144d1253a5fd44b7a4b90100000000000000000000000000000000000000000000000000000000000000000000000000000000000000000000000000000000000000000000000000000000000000000000000000000000000000000000000000000000000000000000000000000000000000000000000000000000000000000000000000000000000000000000000000000000000000000000000000000000000000000000000000000000000000000000000000000000000000000000000000000000000000000000000000000000000000000000000000000000000000000000000000000000000000000000000000000000000000000000000000000000000000000000000000000000008302000001850a00000000830493e08203e880a0010b857dabdf91dcb89ff726128a68f89bac7ac93369c04a3953502a4adb661088c9ebd873c75e70e4f86cf86a8001830493e080809e60136012601160106009600860076006600560046003600260018f6000551ca061c8cfeaed609c804acafe6e11916a1cf50babe0682f0a686a40d42c019906ffa058362bac33fe5c752a548d76745411ee76d29869bd8f0d4163dd933eaeee4c52c0",
                "transactions" : [
                    {
                        "data" : "0x60136012601160106009600860076006600560046003600260018f600055",
                        "gasLimit" : "0x0493e0",
                        "gasPrice" : "0x01",
                        "nonce" : "0x00",
                        "r" : "0x61c8cfeaed609c804acafe6e11916a1cf50babe0682f0a686a40d42c019906ff",
                        "s" : "0x58362bac33fe5c752a548d76745411ee76d29869bd8f0d4163dd933eaeee4c52",
                        "to" : "",
                        "v" : "0x1c",
                        "value" : "0x00"
                    }
                ],
                "uncleHeaders" : [
                ]
            }
        ],
        "genesisBlockHeader" : {
            "bloom" : "0x00000000000000000000000000000000000000000000000000000000000000000000000000000000000000000000000000000000000000000000000000000000000000000000000000000000000000000000000000000000000000000000000000000000000000000000000000000000000000000000000000000000000000000000000000000000000000000000000000000000000000000000000000000000000000000000000000000000000000000000000000000000000000000000000000000000000000000000000000000000000000000000000000000000000000000000000000000000000000000000000000000000000000000000000000000000",
            "coinbase" : "0x2adc25665018aa1fe0e6bc666dac8fc2697ff9ba",
            "difficulty" : "0x020000",
            "extraData" : "0x42",
            "gasLimit" : "0x0a00000000",
            "gasUsed" : "0x00",
            "hash" : "0xbf82cec88667ba7112d825fdde9b12f69a584c0d88a818f72cf533860eef9d12",
            "mixHash" : "0x56e81f171bcc55a6ff8345e692c0f86e5b48e01b996cadc001622fb5e363b421",
            "nonce" : "0x0102030405060708",
            "number" : "0x00",
            "parentHash" : "0x0000000000000000000000000000000000000000000000000000000000000000",
            "receiptTrie" : "0x56e81f171bcc55a6ff8345e692c0f86e5b48e01b996cadc001622fb5e363b421",
            "stateRoot" : "0x008ee04e394b2d73709f97316aceb055e1ef425cf2cc18511254b3b024842b89",
            "timestamp" : "0x03b6",
            "transactionsTrie" : "0x56e81f171bcc55a6ff8345e692c0f86e5b48e01b996cadc001622fb5e363b421",
            "uncleHash" : "0x1dcc4de8dec75d7aab85b567b6ccd41ad312451b948a7413f0a142fd40d49347"
        },
        "genesisRLP" : "0xf901fcf901f7a00000000000000000000000000000000000000000000000000000000000000000a01dcc4de8dec75d7aab85b567b6ccd41ad312451b948a7413f0a142fd40d49347942adc25665018aa1fe0e6bc666dac8fc2697ff9baa0008ee04e394b2d73709f97316aceb055e1ef425cf2cc18511254b3b024842b89a056e81f171bcc55a6ff8345e692c0f86e5b48e01b996cadc001622fb5e363b421a056e81f171bcc55a6ff8345e692c0f86e5b48e01b996cadc001622fb5e363b421b90100000000000000000000000000000000000000000000000000000000000000000000000000000000000000000000000000000000000000000000000000000000000000000000000000000000000000000000000000000000000000000000000000000000000000000000000000000000000000000000000000000000000000000000000000000000000000000000000000000000000000000000000000000000000000000000000000000000000000000000000000000000000000000000000000000000000000000000000000000000000000000000000000000000000000000000000000000000000000000000000000000000000000000000000000000000008302000080850a00000000808203b642a056e81f171bcc55a6ff8345e692c0f86e5b48e01b996cadc001622fb5e363b421880102030405060708c0c0",
        "lastblockhash" : "0x52b22b7c21c6861737dea655e47c52efd24b951abccbc5b4366cd9ec87a07f29",
        "network" : "Homestead",
        "postState" : {
            "0x2adc25665018aa1fe0e6bc666dac8fc2697ff9ba" : {
                "balance" : "0x4563918244f893e0",
                "code" : "",
                "nonce" : "0x00",
                "storage" : {
                }
            },
            "0xa94f5374fce5edbc8e2a8697c15331677e6ebf0b" : {
                "balance" : "0x270ffffb6c20",
                "code" : "",
                "nonce" : "0x01",
                "storage" : {
                }
            }
        },
        "pre" : {
            "0xa94f5374fce5edbc8e2a8697c15331677e6ebf0b" : {
                "balance" : "0x271000000000",
                "code" : "",
                "nonce" : "0x00",
                "storage" : {
                }
            }
        }
    },
    "shallowStack_d53g0v0_Metropolis" : {
        "_info" : {
            "comment" : "",
            "filledwith" : "cpp-1.3.0+commit.16292201.Linux.g++",
            "source" : "/src/GenStateTestAsBcTemp/stStackTests/shallowStack_d53g0v0Filler.json"
        },
        "blocks" : [
            {
                "blockHeader" : {
                    "bloom" : "0x00000000000000000000000000000000000000000000000000000000000000000000000000000000000000000000000000000000000000000000000000000000000000000000000000000000000000000000000000000000000000000000000000000000000000000000000000000000000000000000000000000000000000000000000000000000000000000000000000000000000000000000000000000000000000000000000000000000000000000000000000000000000000000000000000000000000000000000000000000000000000000000000000000000000000000000000000000000000000000000000000000000000000000000000000000000",
                    "coinbase" : "0x2adc25665018aa1fe0e6bc666dac8fc2697ff9ba",
                    "difficulty" : "0x020000",
                    "extraData" : "",
                    "gasLimit" : "0x0a00000000",
                    "gasUsed" : "0x0493e0",
                    "hash" : "0x420e592545463c5700ac0a40e07d3f8c82a78912f79fcdd2440fd0cae7e2143b",
                    "mixHash" : "0xb53162eaf249c4ca99aa88a93564c7ad153a6c9bcabb1500a2286dc52381c4f6",
                    "nonce" : "0x627a4bb841ca3f8f",
                    "number" : "0x01",
                    "parentHash" : "0xbf82cec88667ba7112d825fdde9b12f69a584c0d88a818f72cf533860eef9d12",
                    "receiptTrie" : "0xe2a8b0fa171b989aab37eee4a349917e9c93607fc5c7b07513cf8997ec83e8bf",
                    "stateRoot" : "0xabbf71d6827e246444ff330b04c386d32a3ca62e844daaf51cfe2bba7bba734f",
                    "timestamp" : "0x03e8",
                    "transactionsTrie" : "0x7405fdc1b1ff1da6fb229faafde53579ab7b8bfbc024a1dd10ef764feb31eba7",
                    "uncleHash" : "0x1dcc4de8dec75d7aab85b567b6ccd41ad312451b948a7413f0a142fd40d49347"
                },
                "rlp" : "0xf9026cf901faa0bf82cec88667ba7112d825fdde9b12f69a584c0d88a818f72cf533860eef9d12a01dcc4de8dec75d7aab85b567b6ccd41ad312451b948a7413f0a142fd40d49347942adc25665018aa1fe0e6bc666dac8fc2697ff9baa0abbf71d6827e246444ff330b04c386d32a3ca62e844daaf51cfe2bba7bba734fa07405fdc1b1ff1da6fb229faafde53579ab7b8bfbc024a1dd10ef764feb31eba7a0e2a8b0fa171b989aab37eee4a349917e9c93607fc5c7b07513cf8997ec83e8bfb90100000000000000000000000000000000000000000000000000000000000000000000000000000000000000000000000000000000000000000000000000000000000000000000000000000000000000000000000000000000000000000000000000000000000000000000000000000000000000000000000000000000000000000000000000000000000000000000000000000000000000000000000000000000000000000000000000000000000000000000000000000000000000000000000000000000000000000000000000000000000000000000000000000000000000000000000000000000000000000000000000000000000000000000000000000000008302000001850a00000000830493e08203e880a0b53162eaf249c4ca99aa88a93564c7ad153a6c9bcabb1500a2286dc52381c4f688627a4bb841ca3f8ff86cf86a8001830493e080809e60136012601160106009600860076006600560046003600260018f6000551ca061c8cfeaed609c804acafe6e11916a1cf50babe0682f0a686a40d42c019906ffa058362bac33fe5c752a548d76745411ee76d29869bd8f0d4163dd933eaeee4c52c0",
                "transactions" : [
                    {
                        "data" : "0x60136012601160106009600860076006600560046003600260018f600055",
                        "gasLimit" : "0x0493e0",
                        "gasPrice" : "0x01",
                        "nonce" : "0x00",
                        "r" : "0x61c8cfeaed609c804acafe6e11916a1cf50babe0682f0a686a40d42c019906ff",
                        "s" : "0x58362bac33fe5c752a548d76745411ee76d29869bd8f0d4163dd933eaeee4c52",
                        "to" : "",
                        "v" : "0x1c",
                        "value" : "0x00"
                    }
                ],
                "uncleHeaders" : [
                ]
            }
        ],
        "genesisBlockHeader" : {
            "bloom" : "0x00000000000000000000000000000000000000000000000000000000000000000000000000000000000000000000000000000000000000000000000000000000000000000000000000000000000000000000000000000000000000000000000000000000000000000000000000000000000000000000000000000000000000000000000000000000000000000000000000000000000000000000000000000000000000000000000000000000000000000000000000000000000000000000000000000000000000000000000000000000000000000000000000000000000000000000000000000000000000000000000000000000000000000000000000000000",
            "coinbase" : "0x2adc25665018aa1fe0e6bc666dac8fc2697ff9ba",
            "difficulty" : "0x020000",
            "extraData" : "0x42",
            "gasLimit" : "0x0a00000000",
            "gasUsed" : "0x00",
            "hash" : "0xbf82cec88667ba7112d825fdde9b12f69a584c0d88a818f72cf533860eef9d12",
            "mixHash" : "0x56e81f171bcc55a6ff8345e692c0f86e5b48e01b996cadc001622fb5e363b421",
            "nonce" : "0x0102030405060708",
            "number" : "0x00",
            "parentHash" : "0x0000000000000000000000000000000000000000000000000000000000000000",
            "receiptTrie" : "0x56e81f171bcc55a6ff8345e692c0f86e5b48e01b996cadc001622fb5e363b421",
            "stateRoot" : "0x008ee04e394b2d73709f97316aceb055e1ef425cf2cc18511254b3b024842b89",
            "timestamp" : "0x03b6",
            "transactionsTrie" : "0x56e81f171bcc55a6ff8345e692c0f86e5b48e01b996cadc001622fb5e363b421",
            "uncleHash" : "0x1dcc4de8dec75d7aab85b567b6ccd41ad312451b948a7413f0a142fd40d49347"
        },
        "genesisRLP" : "0xf901fcf901f7a00000000000000000000000000000000000000000000000000000000000000000a01dcc4de8dec75d7aab85b567b6ccd41ad312451b948a7413f0a142fd40d49347942adc25665018aa1fe0e6bc666dac8fc2697ff9baa0008ee04e394b2d73709f97316aceb055e1ef425cf2cc18511254b3b024842b89a056e81f171bcc55a6ff8345e692c0f86e5b48e01b996cadc001622fb5e363b421a056e81f171bcc55a6ff8345e692c0f86e5b48e01b996cadc001622fb5e363b421b90100000000000000000000000000000000000000000000000000000000000000000000000000000000000000000000000000000000000000000000000000000000000000000000000000000000000000000000000000000000000000000000000000000000000000000000000000000000000000000000000000000000000000000000000000000000000000000000000000000000000000000000000000000000000000000000000000000000000000000000000000000000000000000000000000000000000000000000000000000000000000000000000000000000000000000000000000000000000000000000000000000000000000000000000000000000008302000080850a00000000808203b642a056e81f171bcc55a6ff8345e692c0f86e5b48e01b996cadc001622fb5e363b421880102030405060708c0c0",
        "lastblockhash" : "0x420e592545463c5700ac0a40e07d3f8c82a78912f79fcdd2440fd0cae7e2143b",
        "network" : "Metropolis",
        "postState" : {
            "0x00000000000000000000000000000000000000f0" : {
                "balance" : "0x00",
                "code" : "",
                "nonce" : "0x00",
                "storage" : {
                }
            },
            "0x2adc25665018aa1fe0e6bc666dac8fc2697ff9ba" : {
                "balance" : "0x4563918244f893e0",
                "code" : "",
                "nonce" : "0x00",
                "storage" : {
                }
            },
            "0xa94f5374fce5edbc8e2a8697c15331677e6ebf0b" : {
                "balance" : "0x270ffffb6c20",
                "code" : "",
                "nonce" : "0x01",
                "storage" : {
                }
            }
        },
        "pre" : {
            "0xa94f5374fce5edbc8e2a8697c15331677e6ebf0b" : {
                "balance" : "0x271000000000",
                "code" : "",
                "nonce" : "0x00",
                "storage" : {
                }
            }
        }
    }
}