{
    "stackOverflowM1PUSH_d3g0v0_Byzantium" : {
        "_info" : {
            "comment" : "",
            "filledwith" : "cpp-1.3.0+commit.ee0c6776.Linux.g++",
            "lllcversion" : "Version: 0.4.20-develop.2018.2.4+commit.c696803f.Linux.g++",
            "source" : "src/BlockchainTestsFiller/GeneralStateTests/stStackTests/stackOverflowM1PUSH_d3g0v0Filler.json",
            "sourceHash" : "b6eb32e33dcf6dc2a440fe269c92f0d3fc62c69f083c125f35aee12457ad0253"
        },
        "blocks" : [
            {
                "blockHeader" : {
                    "bloom" : "0x00000000000000000000000000000000000000000000000000000000000000000000000000000000000000000000000000000000000000000000000000000000000000000000000000000000000000000000000000000000000000000000000000000000000000000000000000000000000000000000000000000000000000000000000000000000000000000000000000000000000000000000000000000000000000000000000000000000000000000000000000000000000000000000000000000000000000000000000000000000000000000000000000000000000000000000000000000000000000000000000000000000000000000000000000000000",
                    "coinbase" : "0x2adc25665018aa1fe0e6bc666dac8fc2697ff9ba",
                    "difficulty" : "0x020000",
                    "extraData" : "",
                    "gasLimit" : "0x0a00000000",
                    "gasUsed" : "0x023b08",
                    "hash" : "0x1d7baa5161a1dfbdea903cbd206fb27ebe0d5be0026b5ce3e61581c00499e719",
                    "mixHash" : "0x7e38cda6ee08e21dcdd1ce81fed3d0fee39b660069efe0b17373e0b6db1ee581",
                    "nonce" : "0x5e7f444f8fb9395b",
                    "number" : "0x01",
                    "parentHash" : "0xb7d1d85e1c06f99c2e3a8d93a15824f88df6c1d2643284871aca54964223455b",
                    "receiptTrie" : "0x4d65238ef5de64335e44e307b169544de0fe9f43250a65faacd55c5bcca63218",
                    "stateRoot" : "0x2951cb1c26c37e56ed178eaeb8e83b8d18b431531f846c50ea14b4304c19ca7e",
                    "timestamp" : "0x03e8",
                    "transactionsTrie" : "0x9768076fb68cace14ee0324f8ef4ba46316e3970dd75f7567ec53cb25f712315",
                    "uncleHash" : "0x1dcc4de8dec75d7aab85b567b6ccd41ad312451b948a7413f0a142fd40d49347"
                },
                "rlp" : "0xf91a52f901faa0b7d1d85e1c06f99c2e3a8d93a15824f88df6c1d2643284871aca54964223455ba01dcc4de8dec75d7aab85b567b6ccd41ad312451b948a7413f0a142fd40d49347942adc25665018aa1fe0e6bc666dac8fc2697ff9baa02951cb1c26c37e56ed178eaeb8e83b8d18b431531f846c50ea14b4304c19ca7ea09768076fb68cace14ee0324f8ef4ba46316e3970dd75f7567ec53cb25f712315a04d65238ef5de64335e44e307b169544de0fe9f43250a65faacd55c5bcca63218b90100000000000000000000000000000000000000000000000000000000000000000000000000000000000000000000000000000000000000000000000000000000000000000000000000000000000000000000000000000000000000000000000000000000000000000000000000000000000000000000000000000000000000000000000000000000000000000000000000000000000000000000000000000000000000000000000000000000000000000000000000000000000000000000000000000000000000000000000000000000000000000000000000000000000000000000000000000000000000000000000000000000000000000000000000000000008302000001850a0000000083023b088203e880a07e38cda6ee08e21dcdd1ce81fed3d0fee39b660069efe0b17373e0b6db1ee581885e7f444f8fb9395bf91851f9184e8001835b8d808001b918006400000000006400000000006400000000006400000000006400000000006400000000006400000000006400000000006400000000006400000000006400000000006400000000006400000000006400000000006400000000006400000000006400000000006400000000006400000000006400000000006400000000006400000000006400000000006400000000006400000000006400000000006400000000006400000000006400000000006400000000006400000000006400000000006400000000006400000000006400000000006400000000006400000000006400000000006400000000006400000000006400000000006400000000006400000000006400000000006400000000006400000000006400000000006400000000006400000000006400000000006400000000006400000000006400000000006400000000006400000000006400000000006400000000006400000000006400000000006400000000006400000000006400000000006400000000006400000000006400000000006400000000006400000000006400000000006400000000006400000000006400000000006400000000006400000000006400000000006400000000006400000000006400000000006400000000006400000000006400000000006400000000006400000000006400000000006400000000006400000000006400000000006400000000006400000000006400000000006400000000006400000000006400000000006400000000006400000000006400000000006400000000006400000000006400000000006400000000006400000000006400000000006400000000006400000000006400000000006400000000006400000000006400000000006400000000006400000000006400000000006400000000006400000000006400000000006400000000006400000000006400000000006400000000006400000000006400000000006400000000006400000000006400000000006400000000006400000000006400000000006400000000006400000000006400000000006400000000006400000000006400000000006400000000006400000000006400000000006400000000006400000000006400000000006400000000006400000000006400000000006400000000006400000000006400000000006400000000006400000000006400000000006400000000006400000000006400000000006400000000006400000000006400000000006400000000006400000000006400000000006400000000006400000000006400000000006400000000006400000000006400000000006400000000006400000000006400000000006400000000006400000000006400000000006400000000006400000000006400000000006400000000006400000000006400000000006400000000006400000000006400000000006400000000006400000000006400000000006400000000006400000000006400000000006400000000006400000000006400000000006400000000006400000000006400000000006400000000006400000000006400000000006400000000006400000000006400000000006400000000006400000000006400000000006400000000006400000000006400000000006400000000006400000000006400000000006400000000006400000000006400000000006400000000006400000000006400000000006400000000006400000000006400000000006400000000006400000000006400000000006400000000006400000000006400000000006400000000006400000000006400000000006400000000006400000000006400000000006400000000006400000000006400000000006400000000006400000000006400000000006400000000006400000000006400000000006400000000006400000000006400000000006400000000006400000000006400000000006400000000006400000000006400000000006400000000006400000000006400000000006400000000006400000000006400000000006400000000006400000000006400000000006400000000006400000000006400000000006400000000006400000000006400000000006400000000006400000000006400000000006400000000006400000000006400000000006400000000006400000000006400000000006400000000006400000000006400000000006400000000006400000000006400000000006400000000006400000000006400000000006400000000006400000000006400000000006400000000006400000000006400000000006400000000006400000000006400000000006400000000006400000000006400000000006400000000006400000000006400000000006400000000006400000000006400000000006400000000006400000000006400000000006400000000006400000000006400000000006400000000006400000000006400000000006400000000006400000000006400000000006400000000006400000000006400000000006400000000006400000000006400000000006400000000006400000000006400000000006400000000006400000000006400000000006400000000006400000000006400000000006400000000006400000000006400000000006400000000006400000000006400000000006400000000006400000000006400000000006400000000006400000000006400000000006400000000006400000000006400000000006400000000006400000000006400000000006400000000006400000000006400000000006400000000006400000000006400000000006400000000006400000000006400000000006400000000006400000000006400000000006400000000006400000000006400000000006400000000006400000000006400000000006400000000006400000000006400000000006400000000006400000000006400000000006400000000006400000000006400000000006400000000006400000000006400000000006400000000006400000000006400000000006400000000006400000000006400000000006400000000006400000000006400000000006400000000006400000000006400000000006400000000006400000000006400000000006400000000006400000000006400000000006400000000006400000000006400000000006400000000006400000000006400000000006400000000006400000000006400000000006400000000006400000000006400000000006400000000006400000000006400000000006400000000006400000000006400000000006400000000006400000000006400000000006400000000006400000000006400000000006400000000006400000000006400000000006400000000006400000000006400000000006400000000006400000000006400000000006400000000006400000000006400000000006400000000006400000000006400000000006400000000006400000000006400000000006400000000006400000000006400000000006400000000006400000000006400000000006400000000006400000000006400000000006400000000006400000000006400000000006400000000006400000000006400000000006400000000006400000000006400000000006400000000006400000000006400000000006400000000006400000000006400000000006400000000006400000000006400000000006400000000006400000000006400000000006400000000006400000000006400000000006400000000006400000000006400000000006400000000006400000000006400000000006400000000006400000000006400000000006400000000006400000000006400000000006400000000006400000000006400000000006400000000006400000000006400000000006400000000006400000000006400000000006400000000006400000000006400000000006400000000006400000000006400000000006400000000006400000000006400000000006400000000006400000000006400000000006400000000006400000000006400000000006400000000006400000000006400000000006400000000006400000000006400000000006400000000006400000000006400000000006400000000006400000000006400000000006400000000006400000000006400000000006400000000006400000000006400000000006400000000006400000000006400000000006400000000006400000000006400000000006400000000006400000000006400000000006400000000006400000000006400000000006400000000006400000000006400000000006400000000006400000000006400000000006400000000006400000000006400000000006400000000006400000000006400000000006400000000006400000000006400000000006400000000006400000000006400000000006400000000006400000000006400000000006400000000006400000000006400000000006400000000006400000000006400000000006400000000006400000000006400000000006400000000006400000000006400000000006400000000006400000000006400000000006400000000006400000000006400000000006400000000006400000000006400000000006400000000006400000000006400000000006400000000006400000000006400000000006400000000006400000000006400000000006400000000006400000000006400000000006400000000006400000000006400000000006400000000006400000000006400000000006400000000006400000000006400000000006400000000006400000000006400000000006400000000006400000000006400000000006400000000006400000000006400000000006400000000006400000000006400000000006400000000006400000000006400000000006400000000006400000000006400000000006400000000006400000000006400000000006400000000006400000000006400000000006400000000006400000000006400000000006400000000006400000000006400000000006400000000006400000000006400000000006400000000006400000000006400000000006400000000006400000000006400000000006400000000006400000000006400000000006400000000006400000000006400000000006400000000006400000000006400000000006400000000006400000000006400000000006400000000006400000000006400000000006400000000006400000000006400000000006400000000006400000000006400000000006400000000006400000000006400000000006400000000006400000000006400000000006400000000006400000000006400000000006400000000006400000000006400000000006400000000006400000000006400000000006400000000006400000000006400000000006400000000006400000000006400000000006400000000006400000000006400000000006400000000006400000000006400000000006400000000006400000000006400000000006400000000006400000000006400000000006400000000006400000000006400000000006400000000006400000000006400000000006400000000006400000000006400000000006400000000006400000000006400000000006400000000006400000000006400000000006400000000006400000000006400000000006400000000006400000000006400000000006400000000006400000000006400000000006400000000006400000000006400000000006400000000006400000000006400000000006400000000006400000000006400000000006400000000006400000000006400000000006400000000006400000000006400000000006400000000006400000000006400000000006400000000006400000000006400000000006400000000006400000000006400000000006400000000006400000000006400000000006400000000006400000000006400000000006400000000006400000000006400000000006400000000006400000000006400000000006400000000006400000000006400000000006400000000006400000000006400000000006400000000006400000000006400000000006400000000006400000000006400000000006400000000006400000000006400000000006400000000006400000000006400000000006400000000006400000000006400000000006400000000006400000000006400000000006400000000006400000000006400000000006400000000006400000000006400000000006400000000006400000000006400000000006400000000006400000000006400000000006400000000006400000000006400000000006400000000006400000000006400000000006400000000006400000000006400000000006400000000006400000000006400000000006400000000006400000000006400000000006400000000006400000000006400000000006400000000006400000000006400000000006400000000006400000000006400000000006400000000006400000000006400000000006400000000006400000000006400000000006400000000006400000000006400000000006400000000006400000000006400000000006400000000006400000000006400000000006400000000006400000000006400000000006400000000006400000000006400000000006400000000006400000000006400000000006400000000006400000000006400000000006400000000006400000000006400000000006400000000006400000000006400000000006400000000006400000000006400000000006400000000006400000000006400000000006400000000006400000000006400000000006400000000006400000000006400000000006400000000006400000000006400000000006400000000006400000000006400000000006400000000006400000000006400000000006400000000006400000000006400000000006400000000006400000000006400000000006400000000006400000000006400000000006400000000006400000000006400000000006400000000006400000000006400000000006400000000006400000000006400000000006400000000006400000000006400000000006400000000006400000000006400000000006400000000006400000000006400000000006400000000006400000000006400000000006400000000006400000000006400000000006400000000006400000000006400000000006400000000006400000000006400000000006400000000006400000000006400000000006400000000006400000000006400000000006400000000006400000000006400000000006400000000006400000000006400000000006400000000006400000000006400000000006400000000006400000000006400000000006400000000006400000000006400000000006400000000006400000000006400000000006400000000006400000000006400000000006400000000006400000000006400000000006400000000006400000000006400000000006400000000006400000000006400000000006400000000006400000000006400000000006400000000006400000000006400000000006400000000006400000000006400000000006400000000006400000000006400000000006400000000006400000000006400000000006400000000006400000000006400000000006400000000006400000000006400000000006400000000006400000000006400000000006400000000006400000000006400000000006400000000006400000000006400000000006400000000006400000000006400000000006400000000006400000000006400000000006400000000006400000000006400000000006400000000006400000000006400000000006400000000006400000000006400000000006400000000006400000000006400000000006400000000006400000000006400000000006400000000006400000000006400000000006400000000006400000000006400000000006400000000006400000000006400000000006400000000006400000000006400000000006400000000006400000000006400000000006400000000006400000000006400000000006400000000006400000000006400000000006400000000006400000000006400000000006400000000006400000000006400000000006400000000006400000000006400000000006400000000006400000000006400000000006400000000006400000000006400000000006400000000006400000000006400000000006400000000006400000000001ba0ef5937be2e06d6345dac130983e4cef1dc5656f921317417488ba40964dc0c90a051f8974bed44caa06d87b5e73e57e178562c2483fba097ebd38862cd53b8dab8c0",
                "transactions" : [
                    {
                        "data" : "0x640000000000640000000000640000000000640000000000640000000000640000000000640000000000640000000000640000000000640000000000640000000000640000000000640000000000640000000000640000000000640000000000640000000000640000000000640000000000640000000000640000000000640000000000640000000000640000000000640000000000640000000000640000000000640000000000640000000000640000000000640000000000640000000000640000000000640000000000640000000000640000000000640000000000640000000000640000000000640000000000640000000000640000000000640000000000640000000000640000000000640000000000640000000000640000000000640000000000640000000000640000000000640000000000640000000000640000000000640000000000640000000000640000000000640000000000640000000000640000000000640000000000640000000000640000000000640000000000640000000000640000000000640000000000640000000000640000000000640000000000640000000000640000000000640000000000640000000000640000000000640000000000640000000000640000000000640000000000640000000000640000000000640000000000640000000000640000000000640000000000640000000000640000000000640000000000640000000000640000000000640000000000640000000000640000000000640000000000640000000000640000000000640000000000640000000000640000000000640000000000640000000000640000000000640000000000640000000000640000000000640000000000640000000000640000000000640000000000640000000000640000000000640000000000640000000000640000000000640000000000640000000000640000000000640000000000640000000000640000000000640000000000640000000000640000000000640000000000640000000000640000000000640000000000640000000000640000000000640000000000640000000000640000000000640000000000640000000000640000000000640000000000640000000000640000000000640000000000640000000000640000000000640000000000640000000000640000000000640000000000640000000000640000000000640000000000640000000000640000000000640000000000640000000000640000000000640000000000640000000000640000000000640000000000640000000000640000000000640000000000640000000000640000000000640000000000640000000000640000000000640000000000640000000000640000000000640000000000640000000000640000000000640000000000640000000000640000000000640000000000640000000000640000000000640000000000640000000000640000000000640000000000640000000000640000000000640000000000640000000000640000000000640000000000640000000000640000000000640000000000640000000000640000000000640000000000640000000000640000000000640000000000640000000000640000000000640000000000640000000000640000000000640000000000640000000000640000000000640000000000640000000000640000000000640000000000640000000000640000000000640000000000640000000000640000000000640000000000640000000000640000000000640000000000640000000000640000000000640000000000640000000000640000000000640000000000640000000000640000000000640000000000640000000000640000000000640000000000640000000000640000000000640000000000640000000000640000000000640000000000640000000000640000000000640000000000640000000000640000000000640000000000640000000000640000000000640000000000640000000000640000000000640000000000640000000000640000000000640000000000640000000000640000000000640000000000640000000000640000000000640000000000640000000000640000000000640000000000640000000000640000000000640000000000640000000000640000000000640000000000640000000000640000000000640000000000640000000000640000000000640000000000640000000000640000000000640000000000640000000000640000000000640000000000640000000000640000000000640000000000640000000000640000000000640000000000640000000000640000000000640000000000640000000000640000000000640000000000640000000000640000000000640000000000640000000000640000000000640000000000640000000000640000000000640000000000640000000000640000000000640000000000640000000000640000000000640000000000640000000000640000000000640000000000640000000000640000000000640000000000640000000000640000000000640000000000640000000000640000000000640000000000640000000000640000000000640000000000640000000000640000000000640000000000640000000000640000000000640000000000640000000000640000000000640000000000640000000000640000000000640000000000640000000000640000000000640000000000640000000000640000000000640000000000640000000000640000000000640000000000640000000000640000000000640000000000640000000000640000000000640000000000640000000000640000000000640000000000640000000000640000000000640000000000640000000000640000000000640000000000640000000000640000000000640000000000640000000000640000000000640000000000640000000000640000000000640000000000640000000000640000000000640000000000640000000000640000000000640000000000640000000000640000000000640000000000640000000000640000000000640000000000640000000000640000000000640000000000640000000000640000000000640000000000640000000000640000000000640000000000640000000000640000000000640000000000640000000000640000000000640000000000640000000000640000000000640000000000640000000000640000000000640000000000640000000000640000000000640000000000640000000000640000000000640000000000640000000000640000000000640000000000640000000000640000000000640000000000640000000000640000000000640000000000640000000000640000000000640000000000640000000000640000000000640000000000640000000000640000000000640000000000640000000000640000000000640000000000640000000000640000000000640000000000640000000000640000000000640000000000640000000000640000000000640000000000640000000000640000000000640000000000640000000000640000000000640000000000640000000000640000000000640000000000640000000000640000000000640000000000640000000000640000000000640000000000640000000000640000000000640000000000640000000000640000000000640000000000640000000000640000000000640000000000640000000000640000000000640000000000640000000000640000000000640000000000640000000000640000000000640000000000640000000000640000000000640000000000640000000000640000000000640000000000640000000000640000000000640000000000640000000000640000000000640000000000640000000000640000000000640000000000640000000000640000000000640000000000640000000000640000000000640000000000640000000000640000000000640000000000640000000000640000000000640000000000640000000000640000000000640000000000640000000000640000000000640000000000640000000000640000000000640000000000640000000000640000000000640000000000640000000000640000000000640000000000640000000000640000000000640000000000640000000000640000000000640000000000640000000000640000000000640000000000640000000000640000000000640000000000640000000000640000000000640000000000640000000000640000000000640000000000640000000000640000000000640000000000640000000000640000000000640000000000640000000000640000000000640000000000640000000000640000000000640000000000640000000000640000000000640000000000640000000000640000000000640000000000640000000000640000000000640000000000640000000000640000000000640000000000640000000000640000000000640000000000640000000000640000000000640000000000640000000000640000000000640000000000640000000000640000000000640000000000640000000000640000000000640000000000640000000000640000000000640000000000640000000000640000000000640000000000640000000000640000000000640000000000640000000000640000000000640000000000640000000000640000000000640000000000640000000000640000000000640000000000640000000000640000000000640000000000640000000000640000000000640000000000640000000000640000000000640000000000640000000000640000000000640000000000640000000000640000000000640000000000640000000000640000000000640000000000640000000000640000000000640000000000640000000000640000000000640000000000640000000000640000000000640000000000640000000000640000000000640000000000640000000000640000000000640000000000640000000000640000000000640000000000640000000000640000000000640000000000640000000000640000000000640000000000640000000000640000000000640000000000640000000000640000000000640000000000640000000000640000000000640000000000640000000000640000000000640000000000640000000000640000000000640000000000640000000000640000000000640000000000640000000000640000000000640000000000640000000000640000000000640000000000640000000000640000000000640000000000640000000000640000000000640000000000640000000000640000000000640000000000640000000000640000000000640000000000640000000000640000000000640000000000640000000000640000000000640000000000640000000000640000000000640000000000640000000000640000000000640000000000640000000000640000000000640000000000640000000000640000000000640000000000640000000000640000000000640000000000640000000000640000000000640000000000640000000000640000000000640000000000640000000000640000000000640000000000640000000000640000000000640000000000640000000000640000000000640000000000640000000000640000000000640000000000640000000000640000000000640000000000640000000000640000000000640000000000640000000000640000000000640000000000640000000000640000000000640000000000640000000000640000000000640000000000640000000000640000000000640000000000640000000000640000000000640000000000640000000000640000000000640000000000640000000000640000000000640000000000640000000000640000000000640000000000640000000000640000000000640000000000640000000000640000000000640000000000640000000000640000000000640000000000640000000000640000000000640000000000640000000000640000000000640000000000640000000000640000000000640000000000640000000000640000000000640000000000640000000000640000000000640000000000640000000000640000000000640000000000640000000000640000000000640000000000640000000000640000000000640000000000640000000000640000000000640000000000640000000000640000000000640000000000640000000000640000000000640000000000640000000000640000000000640000000000640000000000640000000000640000000000640000000000640000000000640000000000640000000000640000000000640000000000640000000000640000000000640000000000640000000000640000000000640000000000640000000000640000000000640000000000640000000000640000000000640000000000640000000000640000000000640000000000640000000000640000000000640000000000640000000000640000000000640000000000640000000000640000000000640000000000640000000000640000000000640000000000640000000000640000000000640000000000640000000000640000000000640000000000640000000000640000000000640000000000640000000000640000000000640000000000640000000000640000000000640000000000640000000000640000000000640000000000640000000000640000000000640000000000640000000000640000000000640000000000640000000000640000000000640000000000640000000000640000000000640000000000640000000000640000000000640000000000640000000000640000000000640000000000640000000000640000000000640000000000640000000000640000000000640000000000640000000000640000000000640000000000640000000000640000000000640000000000640000000000640000000000640000000000640000000000640000000000640000000000640000000000640000000000640000000000640000000000640000000000640000000000640000000000640000000000640000000000640000000000640000000000640000000000640000000000640000000000640000000000640000000000640000000000640000000000640000000000640000000000640000000000640000000000640000000000640000000000640000000000640000000000640000000000640000000000640000000000640000000000640000000000640000000000640000000000640000000000640000000000640000000000640000000000640000000000640000000000640000000000640000000000640000000000640000000000640000000000640000000000640000000000640000000000640000000000640000000000640000000000640000000000640000000000640000000000640000000000640000000000640000000000640000000000640000000000640000000000640000000000640000000000640000000000640000000000640000000000640000000000640000000000640000000000640000000000640000000000640000000000640000000000640000000000640000000000640000000000640000000000640000000000640000000000640000000000640000000000640000000000640000000000640000000000640000000000640000000000640000000000640000000000640000000000640000000000640000000000640000000000640000000000640000000000640000000000640000000000640000000000640000000000640000000000640000000000640000000000640000000000640000000000640000000000640000000000640000000000640000000000640000000000640000000000640000000000640000000000640000000000640000000000640000000000640000000000640000000000640000000000640000000000640000000000640000000000640000000000640000000000640000000000640000000000640000000000640000000000640000000000640000000000640000000000640000000000640000000000640000000000640000000000640000000000640000000000640000000000640000000000640000000000640000000000640000000000640000000000640000000000640000000000640000000000640000000000640000000000640000000000640000000000640000000000640000000000640000000000640000000000640000000000640000000000640000000000640000000000640000000000640000000000640000000000640000000000640000000000",
                        "gasLimit" : "0x5b8d80",
                        "gasPrice" : "0x01",
                        "nonce" : "0x00",
                        "r" : "0xef5937be2e06d6345dac130983e4cef1dc5656f921317417488ba40964dc0c90",
                        "s" : "0x51f8974bed44caa06d87b5e73e57e178562c2483fba097ebd38862cd53b8dab8",
                        "to" : "",
                        "v" : "0x1b",
                        "value" : "0x01"
                    }
                ],
                "uncleHeaders" : [
                ]
            }
        ],
        "genesisBlockHeader" : {
            "bloom" : "0x00000000000000000000000000000000000000000000000000000000000000000000000000000000000000000000000000000000000000000000000000000000000000000000000000000000000000000000000000000000000000000000000000000000000000000000000000000000000000000000000000000000000000000000000000000000000000000000000000000000000000000000000000000000000000000000000000000000000000000000000000000000000000000000000000000000000000000000000000000000000000000000000000000000000000000000000000000000000000000000000000000000000000000000000000000000",
            "coinbase" : "0x2adc25665018aa1fe0e6bc666dac8fc2697ff9ba",
            "difficulty" : "0x020000",
            "extraData" : "0x42",
            "gasLimit" : "0x0a00000000",
            "gasUsed" : "0x00",
            "hash" : "0xb7d1d85e1c06f99c2e3a8d93a15824f88df6c1d2643284871aca54964223455b",
            "mixHash" : "0x56e81f171bcc55a6ff8345e692c0f86e5b48e01b996cadc001622fb5e363b421",
            "nonce" : "0x0102030405060708",
            "number" : "0x00",
            "parentHash" : "0x0000000000000000000000000000000000000000000000000000000000000000",
            "receiptTrie" : "0x56e81f171bcc55a6ff8345e692c0f86e5b48e01b996cadc001622fb5e363b421",
            "stateRoot" : "0xf88012c07d4f4c3463fad1a106542c15693af39cb215f195035f63ab2497aa01",
            "timestamp" : "0x03b6",
            "transactionsTrie" : "0x56e81f171bcc55a6ff8345e692c0f86e5b48e01b996cadc001622fb5e363b421",
            "uncleHash" : "0x1dcc4de8dec75d7aab85b567b6ccd41ad312451b948a7413f0a142fd40d49347"
        },
        "genesisRLP" : "0xf901fcf901f7a00000000000000000000000000000000000000000000000000000000000000000a01dcc4de8dec75d7aab85b567b6ccd41ad312451b948a7413f0a142fd40d49347942adc25665018aa1fe0e6bc666dac8fc2697ff9baa0f88012c07d4f4c3463fad1a106542c15693af39cb215f195035f63ab2497aa01a056e81f171bcc55a6ff8345e692c0f86e5b48e01b996cadc001622fb5e363b421a056e81f171bcc55a6ff8345e692c0f86e5b48e01b996cadc001622fb5e363b421b90100000000000000000000000000000000000000000000000000000000000000000000000000000000000000000000000000000000000000000000000000000000000000000000000000000000000000000000000000000000000000000000000000000000000000000000000000000000000000000000000000000000000000000000000000000000000000000000000000000000000000000000000000000000000000000000000000000000000000000000000000000000000000000000000000000000000000000000000000000000000000000000000000000000000000000000000000000000000000000000000000000000000000000000000000000000008302000080850a00000000808203b642a056e81f171bcc55a6ff8345e692c0f86e5b48e01b996cadc001622fb5e363b421880102030405060708c0c0",
        "lastblockhash" : "0x1d7baa5161a1dfbdea903cbd206fb27ebe0d5be0026b5ce3e61581c00499e719",
        "network" : "Byzantium",
        "postState" : {
            "0x2adc25665018aa1fe0e6bc666dac8fc2697ff9ba" : {
                "balance" : "0x29a2241af62e3b08",
                "code" : "",
                "nonce" : "0x00",
                "storage" : {
                }
            },
            "0x6295ee1b4f6dd65047762f924ecd367c17eabf8f" : {
                "balance" : "0x01",
                "code" : "",
                "nonce" : "0x01",
                "storage" : {
                }
            },
            "0xa94f5374fce5edbc8e2a8697c15331677e6ebf0b" : {
                "balance" : "0xe8d4a50ffffffdc4f7",
                "code" : "",
                "nonce" : "0x01",
                "storage" : {
                }
            },
            "0xb94f5374fce5edbc8e2a8697c15331677e6ebf0b" : {
                "balance" : "0xe8d4a5100000000000",
                "code" : "",
                "nonce" : "0x00",
                "storage" : {
                }
            }
        },
        "pre" : {
            "0xa94f5374fce5edbc8e2a8697c15331677e6ebf0b" : {
                "balance" : "0xe8d4a5100000000000",
                "code" : "",
                "nonce" : "0x00",
                "storage" : {
                }
            },
            "0xb94f5374fce5edbc8e2a8697c15331677e6ebf0b" : {
                "balance" : "0xe8d4a5100000000000",
                "code" : "",
                "nonce" : "0x00",
                "storage" : {
                }
            }
        }
    }
}