{
    "stackOverflowM1PUSH_d5g0v0_Byzantium" : {
        "_info" : {
            "comment" : "",
            "filledwith" : "cpp-1.3.0+commit.ee0c6776.Linux.g++",
            "lllcversion" : "Version: 0.4.20-develop.2018.2.4+commit.c696803f.Linux.g++",
            "source" : "src/BlockchainTestsFiller/GeneralStateTests/stStackTests/stackOverflowM1PUSH_d5g0v0Filler.json",
            "sourceHash" : "8203bb1b6d81c871130c9dc32c7da6def0c6f6369bbdac09da036b5271c8f19e"
        },
        "blocks" : [
            {
                "blockHeader" : {
                    "bloom" : "0x00000000000000000000000000000000000000000000000000000000000000000000000000000000000000000000000000000000000000000000000000000000000000000000000000000000000000000000000000000000000000000000000000000000000000000000000000000000000000000000000000000000000000000000000000000000000000000000000000000000000000000000000000000000000000000000000000000000000000000000000000000000000000000000000000000000000000000000000000000000000000000000000000000000000000000000000000000000000000000000000000000000000000000000000000000000",
                    "coinbase" : "0x2adc25665018aa1fe0e6bc666dac8fc2697ff9ba",
                    "difficulty" : "0x020000",
                    "extraData" : "",
                    "gasLimit" : "0x0a00000000",
                    "gasUsed" : "0x025b08",
                    "hash" : "0xd8a4b3cdcc2b42d4fc4aa7c82ce7acf0e6693406159ccbb1431e19d3c725755c",
                    "mixHash" : "0x43024b96f9c2baaab395f327a1cc432d55129ae54b8c77a0f35de8882ab1e572",
                    "nonce" : "0x72130112de51b816",
                    "number" : "0x01",
                    "parentHash" : "0xb7d1d85e1c06f99c2e3a8d93a15824f88df6c1d2643284871aca54964223455b",
                    "receiptTrie" : "0xc5f890cc0b0df0285d7eb9604fb2fa6af7fef216e8de77245ad0c1aa74e064bc",
                    "stateRoot" : "0xf582773234b7d127494701dc841333d3a08782a6caa00469eb6e1097cdad8dc1",
                    "timestamp" : "0x03e8",
                    "transactionsTrie" : "0x5b1b5ee4cc775e2d263b1d8aec8859fb40589f693856fd6a07206638251bc454",
                    "uncleHash" : "0x1dcc4de8dec75d7aab85b567b6ccd41ad312451b948a7413f0a142fd40d49347"
                },
                "rlp" : "0xf92252f901faa0b7d1d85e1c06f99c2e3a8d93a15824f88df6c1d2643284871aca54964223455ba01dcc4de8dec75d7aab85b567b6ccd41ad312451b948a7413f0a142fd40d49347942adc25665018aa1fe0e6bc666dac8fc2697ff9baa0f582773234b7d127494701dc841333d3a08782a6caa00469eb6e1097cdad8dc1a05b1b5ee4cc775e2d263b1d8aec8859fb40589f693856fd6a07206638251bc454a0c5f890cc0b0df0285d7eb9604fb2fa6af7fef216e8de77245ad0c1aa74e064bcb90100000000000000000000000000000000000000000000000000000000000000000000000000000000000000000000000000000000000000000000000000000000000000000000000000000000000000000000000000000000000000000000000000000000000000000000000000000000000000000000000000000000000000000000000000000000000000000000000000000000000000000000000000000000000000000000000000000000000000000000000000000000000000000000000000000000000000000000000000000000000000000000000000000000000000000000000000000000000000000000000000000000000000000000000000000000008302000001850a0000000083025b088203e880a043024b96f9c2baaab395f327a1cc432d55129ae54b8c77a0f35de8882ab1e5728872130112de51b816f92051f9204e8001835b8d808001b9200066000000000000006600000000000000660000000000000066000000000000006600000000000000660000000000000066000000000000006600000000000000660000000000000066000000000000006600000000000000660000000000000066000000000000006600000000000000660000000000000066000000000000006600000000000000660000000000000066000000000000006600000000000000660000000000000066000000000000006600000000000000660000000000000066000000000000006600000000000000660000000000000066000000000000006600000000000000660000000000000066000000000000006600000000000000660000000000000066000000000000006600000000000000660000000000000066000000000000006600000000000000660000000000000066000000000000006600000000000000660000000000000066000000000000006600000000000000660000000000000066000000000000006600000000000000660000000000000066000000000000006600000000000000660000000000000066000000000000006600000000000000660000000000000066000000000000006600000000000000660000000000000066000000000000006600000000000000660000000000000066000000000000006600000000000000660000000000000066000000000000006600000000000000660000000000000066000000000000006600000000000000660000000000000066000000000000006600000000000000660000000000000066000000000000006600000000000000660000000000000066000000000000006600000000000000660000000000000066000000000000006600000000000000660000000000000066000000000000006600000000000000660000000000000066000000000000006600000000000000660000000000000066000000000000006600000000000000660000000000000066000000000000006600000000000000660000000000000066000000000000006600000000000000660000000000000066000000000000006600000000000000660000000000000066000000000000006600000000000000660000000000000066000000000000006600000000000000660000000000000066000000000000006600000000000000660000000000000066000000000000006600000000000000660000000000000066000000000000006600000000000000660000000000000066000000000000006600000000000000660000000000000066000000000000006600000000000000660000000000000066000000000000006600000000000000660000000000000066000000000000006600000000000000660000000000000066000000000000006600000000000000660000000000000066000000000000006600000000000000660000000000000066000000000000006600000000000000660000000000000066000000000000006600000000000000660000000000000066000000000000006600000000000000660000000000000066000000000000006600000000000000660000000000000066000000000000006600000000000000660000000000000066000000000000006600000000000000660000000000000066000000000000006600000000000000660000000000000066000000000000006600000000000000660000000000000066000000000000006600000000000000660000000000000066000000000000006600000000000000660000000000000066000000000000006600000000000000660000000000000066000000000000006600000000000000660000000000000066000000000000006600000000000000660000000000000066000000000000006600000000000000660000000000000066000000000000006600000000000000660000000000000066000000000000006600000000000000660000000000000066000000000000006600000000000000660000000000000066000000000000006600000000000000660000000000000066000000000000006600000000000000660000000000000066000000000000006600000000000000660000000000000066000000000000006600000000000000660000000000000066000000000000006600000000000000660000000000000066000000000000006600000000000000660000000000000066000000000000006600000000000000660000000000000066000000000000006600000000000000660000000000000066000000000000006600000000000000660000000000000066000000000000006600000000000000660000000000000066000000000000006600000000000000660000000000000066000000000000006600000000000000660000000000000066000000000000006600000000000000660000000000000066000000000000006600000000000000660000000000000066000000000000006600000000000000660000000000000066000000000000006600000000000000660000000000000066000000000000006600000000000000660000000000000066000000000000006600000000000000660000000000000066000000000000006600000000000000660000000000000066000000000000006600000000000000660000000000000066000000000000006600000000000000660000000000000066000000000000006600000000000000660000000000000066000000000000006600000000000000660000000000000066000000000000006600000000000000660000000000000066000000000000006600000000000000660000000000000066000000000000006600000000000000660000000000000066000000000000006600000000000000660000000000000066000000000000006600000000000000660000000000000066000000000000006600000000000000660000000000000066000000000000006600000000000000660000000000000066000000000000006600000000000000660000000000000066000000000000006600000000000000660000000000000066000000000000006600000000000000660000000000000066000000000000006600000000000000660000000000000066000000000000006600000000000000660000000000000066000000000000006600000000000000660000000000000066000000000000006600000000000000660000000000000066000000000000006600000000000000660000000000000066000000000000006600000000000000660000000000000066000000000000006600000000000000660000000000000066000000000000006600000000000000660000000000000066000000000000006600000000000000660000000000000066000000000000006600000000000000660000000000000066000000000000006600000000000000660000000000000066000000000000006600000000000000660000000000000066000000000000006600000000000000660000000000000066000000000000006600000000000000660000000000000066000000000000006600000000000000660000000000000066000000000000006600000000000000660000000000000066000000000000006600000000000000660000000000000066000000000000006600000000000000660000000000000066000000000000006600000000000000660000000000000066000000000000006600000000000000660000000000000066000000000000006600000000000000660000000000000066000000000000006600000000000000660000000000000066000000000000006600000000000000660000000000000066000000000000006600000000000000660000000000000066000000000000006600000000000000660000000000000066000000000000006600000000000000660000000000000066000000000000006600000000000000660000000000000066000000000000006600000000000000660000000000000066000000000000006600000000000000660000000000000066000000000000006600000000000000660000000000000066000000000000006600000000000000660000000000000066000000000000006600000000000000660000000000000066000000000000006600000000000000660000000000000066000000000000006600000000000000660000000000000066000000000000006600000000000000660000000000000066000000000000006600000000000000660000000000000066000000000000006600000000000000660000000000000066000000000000006600000000000000660000000000000066000000000000006600000000000000660000000000000066000000000000006600000000000000660000000000000066000000000000006600000000000000660000000000000066000000000000006600000000000000660000000000000066000000000000006600000000000000660000000000000066000000000000006600000000000000660000000000000066000000000000006600000000000000660000000000000066000000000000006600000000000000660000000000000066000000000000006600000000000000660000000000000066000000000000006600000000000000660000000000000066000000000000006600000000000000660000000000000066000000000000006600000000000000660000000000000066000000000000006600000000000000660000000000000066000000000000006600000000000000660000000000000066000000000000006600000000000000660000000000000066000000000000006600000000000000660000000000000066000000000000006600000000000000660000000000000066000000000000006600000000000000660000000000000066000000000000006600000000000000660000000000000066000000000000006600000000000000660000000000000066000000000000006600000000000000660000000000000066000000000000006600000000000000660000000000000066000000000000006600000000000000660000000000000066000000000000006600000000000000660000000000000066000000000000006600000000000000660000000000000066000000000000006600000000000000660000000000000066000000000000006600000000000000660000000000000066000000000000006600000000000000660000000000000066000000000000006600000000000000660000000000000066000000000000006600000000000000660000000000000066000000000000006600000000000000660000000000000066000000000000006600000000000000660000000000000066000000000000006600000000000000660000000000000066000000000000006600000000000000660000000000000066000000000000006600000000000000660000000000000066000000000000006600000000000000660000000000000066000000000000006600000000000000660000000000000066000000000000006600000000000000660000000000000066000000000000006600000000000000660000000000000066000000000000006600000000000000660000000000000066000000000000006600000000000000660000000000000066000000000000006600000000000000660000000000000066000000000000006600000000000000660000000000000066000000000000006600000000000000660000000000000066000000000000006600000000000000660000000000000066000000000000006600000000000000660000000000000066000000000000006600000000000000660000000000000066000000000000006600000000000000660000000000000066000000000000006600000000000000660000000000000066000000000000006600000000000000660000000000000066000000000000006600000000000000660000000000000066000000000000006600000000000000660000000000000066000000000000006600000000000000660000000000000066000000000000006600000000000000660000000000000066000000000000006600000000000000660000000000000066000000000000006600000000000000660000000000000066000000000000006600000000000000660000000000000066000000000000006600000000000000660000000000000066000000000000006600000000000000660000000000000066000000000000006600000000000000660000000000000066000000000000006600000000000000660000000000000066000000000000006600000000000000660000000000000066000000000000006600000000000000660000000000000066000000000000006600000000000000660000000000000066000000000000006600000000000000660000000000000066000000000000006600000000000000660000000000000066000000000000006600000000000000660000000000000066000000000000006600000000000000660000000000000066000000000000006600000000000000660000000000000066000000000000006600000000000000660000000000000066000000000000006600000000000000660000000000000066000000000000006600000000000000660000000000000066000000000000006600000000000000660000000000000066000000000000006600000000000000660000000000000066000000000000006600000000000000660000000000000066000000000000006600000000000000660000000000000066000000000000006600000000000000660000000000000066000000000000006600000000000000660000000000000066000000000000006600000000000000660000000000000066000000000000006600000000000000660000000000000066000000000000006600000000000000660000000000000066000000000000006600000000000000660000000000000066000000000000006600000000000000660000000000000066000000000000006600000000000000660000000000000066000000000000006600000000000000660000000000000066000000000000006600000000000000660000000000000066000000000000006600000000000000660000000000000066000000000000006600000000000000660000000000000066000000000000006600000000000000660000000000000066000000000000006600000000000000660000000000000066000000000000006600000000000000660000000000000066000000000000006600000000000000660000000000000066000000000000006600000000000000660000000000000066000000000000006600000000000000660000000000000066000000000000006600000000000000660000000000000066000000000000006600000000000000660000000000000066000000000000006600000000000000660000000000000066000000000000006600000000000000660000000000000066000000000000006600000000000000660000000000000066000000000000006600000000000000660000000000000066000000000000006600000000000000660000000000000066000000000000006600000000000000660000000000000066000000000000006600000000000000660000000000000066000000000000006600000000000000660000000000000066000000000000006600000000000000660000000000000066000000000000006600000000000000660000000000000066000000000000006600000000000000660000000000000066000000000000006600000000000000660000000000000066000000000000006600000000000000660000000000000066000000000000006600000000000000660000000000000066000000000000006600000000000000660000000000000066000000000000006600000000000000660000000000000066000000000000006600000000000000660000000000000066000000000000006600000000000000660000000000000066000000000000006600000000000000660000000000000066000000000000006600000000000000660000000000000066000000000000006600000000000000660000000000000066000000000000006600000000000000660000000000000066000000000000006600000000000000660000000000000066000000000000006600000000000000660000000000000066000000000000006600000000000000660000000000000066000000000000006600000000000000660000000000000066000000000000006600000000000000660000000000000066000000000000006600000000000000660000000000000066000000000000006600000000000000660000000000000066000000000000006600000000000000660000000000000066000000000000006600000000000000660000000000000066000000000000006600000000000000660000000000000066000000000000006600000000000000660000000000000066000000000000006600000000000000660000000000000066000000000000006600000000000000660000000000000066000000000000006600000000000000660000000000000066000000000000006600000000000000660000000000000066000000000000006600000000000000660000000000000066000000000000006600000000000000660000000000000066000000000000006600000000000000660000000000000066000000000000006600000000000000660000000000000066000000000000006600000000000000660000000000000066000000000000006600000000000000660000000000000066000000000000006600000000000000660000000000000066000000000000006600000000000000660000000000000066000000000000006600000000000000660000000000000066000000000000006600000000000000660000000000000066000000000000006600000000000000660000000000000066000000000000006600000000000000660000000000000066000000000000006600000000000000660000000000000066000000000000006600000000000000660000000000000066000000000000006600000000000000660000000000000066000000000000006600000000000000660000000000000066000000000000006600000000000000660000000000000066000000000000006600000000000000660000000000000066000000000000006600000000000000660000000000000066000000000000006600000000000000660000000000000066000000000000006600000000000000660000000000000066000000000000006600000000000000660000000000000066000000000000006600000000000000660000000000000066000000000000006600000000000000660000000000000066000000000000006600000000000000660000000000000066000000000000006600000000000000660000000000000066000000000000006600000000000000660000000000000066000000000000006600000000000000660000000000000066000000000000006600000000000000660000000000000066000000000000006600000000000000660000000000000066000000000000006600000000000000660000000000000066000000000000006600000000000000660000000000000066000000000000006600000000000000660000000000000066000000000000006600000000000000660000000000000066000000000000006600000000000000660000000000000066000000000000006600000000000000660000000000000066000000000000006600000000000000660000000000000066000000000000006600000000000000660000000000000066000000000000006600000000000000660000000000000066000000000000006600000000000000660000000000000066000000000000006600000000000000660000000000000066000000000000006600000000000000660000000000000066000000000000006600000000000000660000000000000066000000000000006600000000000000660000000000000066000000000000006600000000000000660000000000000066000000000000006600000000000000660000000000000066000000000000006600000000000000660000000000000066000000000000006600000000000000660000000000000066000000000000006600000000000000660000000000000066000000000000006600000000000000660000000000000066000000000000006600000000000000660000000000000066000000000000006600000000000000660000000000000066000000000000006600000000000000660000000000000066000000000000006600000000000000660000000000000066000000000000006600000000000000660000000000000066000000000000006600000000000000660000000000000066000000000000006600000000000000660000000000000066000000000000006600000000000000660000000000000066000000000000006600000000000000660000000000000066000000000000006600000000000000660000000000000066000000000000006600000000000000660000000000000066000000000000006600000000000000660000000000000066000000000000006600000000000000660000000000000066000000000000006600000000000000660000000000000066000000000000006600000000000000660000000000000066000000000000006600000000000000660000000000000066000000000000006600000000000000660000000000000066000000000000006600000000000000660000000000000066000000000000006600000000000000660000000000000066000000000000006600000000000000660000000000000066000000000000006600000000000000660000000000000066000000000000006600000000000000660000000000000066000000000000006600000000000000660000000000000066000000000000006600000000000000660000000000000066000000000000006600000000000000660000000000000066000000000000006600000000000000660000000000000066000000000000001ba0ab4d614fe5dea2dba65be1a1247c09e68c700a59e51a90be16599e89c5de30f8a0659a2c1a49230fa35321501a4915708fb307c4563925bac8e4db69bfad9b11adc0",
                "transactions" : [
                    {
                        "data" : "0x6600000000000000660000000000000066000000000000006600000000000000660000000000000066000000000000006600000000000000660000000000000066000000000000006600000000000000660000000000000066000000000000006600000000000000660000000000000066000000000000006600000000000000660000000000000066000000000000006600000000000000660000000000000066000000000000006600000000000000660000000000000066000000000000006600000000000000660000000000000066000000000000006600000000000000660000000000000066000000000000006600000000000000660000000000000066000000000000006600000000000000660000000000000066000000000000006600000000000000660000000000000066000000000000006600000000000000660000000000000066000000000000006600000000000000660000000000000066000000000000006600000000000000660000000000000066000000000000006600000000000000660000000000000066000000000000006600000000000000660000000000000066000000000000006600000000000000660000000000000066000000000000006600000000000000660000000000000066000000000000006600000000000000660000000000000066000000000000006600000000000000660000000000000066000000000000006600000000000000660000000000000066000000000000006600000000000000660000000000000066000000000000006600000000000000660000000000000066000000000000006600000000000000660000000000000066000000000000006600000000000000660000000000000066000000000000006600000000000000660000000000000066000000000000006600000000000000660000000000000066000000000000006600000000000000660000000000000066000000000000006600000000000000660000000000000066000000000000006600000000000000660000000000000066000000000000006600000000000000660000000000000066000000000000006600000000000000660000000000000066000000000000006600000000000000660000000000000066000000000000006600000000000000660000000000000066000000000000006600000000000000660000000000000066000000000000006600000000000000660000000000000066000000000000006600000000000000660000000000000066000000000000006600000000000000660000000000000066000000000000006600000000000000660000000000000066000000000000006600000000000000660000000000000066000000000000006600000000000000660000000000000066000000000000006600000000000000660000000000000066000000000000006600000000000000660000000000000066000000000000006600000000000000660000000000000066000000000000006600000000000000660000000000000066000000000000006600000000000000660000000000000066000000000000006600000000000000660000000000000066000000000000006600000000000000660000000000000066000000000000006600000000000000660000000000000066000000000000006600000000000000660000000000000066000000000000006600000000000000660000000000000066000000000000006600000000000000660000000000000066000000000000006600000000000000660000000000000066000000000000006600000000000000660000000000000066000000000000006600000000000000660000000000000066000000000000006600000000000000660000000000000066000000000000006600000000000000660000000000000066000000000000006600000000000000660000000000000066000000000000006600000000000000660000000000000066000000000000006600000000000000660000000000000066000000000000006600000000000000660000000000000066000000000000006600000000000000660000000000000066000000000000006600000000000000660000000000000066000000000000006600000000000000660000000000000066000000000000006600000000000000660000000000000066000000000000006600000000000000660000000000000066000000000000006600000000000000660000000000000066000000000000006600000000000000660000000000000066000000000000006600000000000000660000000000000066000000000000006600000000000000660000000000000066000000000000006600000000000000660000000000000066000000000000006600000000000000660000000000000066000000000000006600000000000000660000000000000066000000000000006600000000000000660000000000000066000000000000006600000000000000660000000000000066000000000000006600000000000000660000000000000066000000000000006600000000000000660000000000000066000000000000006600000000000000660000000000000066000000000000006600000000000000660000000000000066000000000000006600000000000000660000000000000066000000000000006600000000000000660000000000000066000000000000006600000000000000660000000000000066000000000000006600000000000000660000000000000066000000000000006600000000000000660000000000000066000000000000006600000000000000660000000000000066000000000000006600000000000000660000000000000066000000000000006600000000000000660000000000000066000000000000006600000000000000660000000000000066000000000000006600000000000000660000000000000066000000000000006600000000000000660000000000000066000000000000006600000000000000660000000000000066000000000000006600000000000000660000000000000066000000000000006600000000000000660000000000000066000000000000006600000000000000660000000000000066000000000000006600000000000000660000000000000066000000000000006600000000000000660000000000000066000000000000006600000000000000660000000000000066000000000000006600000000000000660000000000000066000000000000006600000000000000660000000000000066000000000000006600000000000000660000000000000066000000000000006600000000000000660000000000000066000000000000006600000000000000660000000000000066000000000000006600000000000000660000000000000066000000000000006600000000000000660000000000000066000000000000006600000000000000660000000000000066000000000000006600000000000000660000000000000066000000000000006600000000000000660000000000000066000000000000006600000000000000660000000000000066000000000000006600000000000000660000000000000066000000000000006600000000000000660000000000000066000000000000006600000000000000660000000000000066000000000000006600000000000000660000000000000066000000000000006600000000000000660000000000000066000000000000006600000000000000660000000000000066000000000000006600000000000000660000000000000066000000000000006600000000000000660000000000000066000000000000006600000000000000660000000000000066000000000000006600000000000000660000000000000066000000000000006600000000000000660000000000000066000000000000006600000000000000660000000000000066000000000000006600000000000000660000000000000066000000000000006600000000000000660000000000000066000000000000006600000000000000660000000000000066000000000000006600000000000000660000000000000066000000000000006600000000000000660000000000000066000000000000006600000000000000660000000000000066000000000000006600000000000000660000000000000066000000000000006600000000000000660000000000000066000000000000006600000000000000660000000000000066000000000000006600000000000000660000000000000066000000000000006600000000000000660000000000000066000000000000006600000000000000660000000000000066000000000000006600000000000000660000000000000066000000000000006600000000000000660000000000000066000000000000006600000000000000660000000000000066000000000000006600000000000000660000000000000066000000000000006600000000000000660000000000000066000000000000006600000000000000660000000000000066000000000000006600000000000000660000000000000066000000000000006600000000000000660000000000000066000000000000006600000000000000660000000000000066000000000000006600000000000000660000000000000066000000000000006600000000000000660000000000000066000000000000006600000000000000660000000000000066000000000000006600000000000000660000000000000066000000000000006600000000000000660000000000000066000000000000006600000000000000660000000000000066000000000000006600000000000000660000000000000066000000000000006600000000000000660000000000000066000000000000006600000000000000660000000000000066000000000000006600000000000000660000000000000066000000000000006600000000000000660000000000000066000000000000006600000000000000660000000000000066000000000000006600000000000000660000000000000066000000000000006600000000000000660000000000000066000000000000006600000000000000660000000000000066000000000000006600000000000000660000000000000066000000000000006600000000000000660000000000000066000000000000006600000000000000660000000000000066000000000000006600000000000000660000000000000066000000000000006600000000000000660000000000000066000000000000006600000000000000660000000000000066000000000000006600000000000000660000000000000066000000000000006600000000000000660000000000000066000000000000006600000000000000660000000000000066000000000000006600000000000000660000000000000066000000000000006600000000000000660000000000000066000000000000006600000000000000660000000000000066000000000000006600000000000000660000000000000066000000000000006600000000000000660000000000000066000000000000006600000000000000660000000000000066000000000000006600000000000000660000000000000066000000000000006600000000000000660000000000000066000000000000006600000000000000660000000000000066000000000000006600000000000000660000000000000066000000000000006600000000000000660000000000000066000000000000006600000000000000660000000000000066000000000000006600000000000000660000000000000066000000000000006600000000000000660000000000000066000000000000006600000000000000660000000000000066000000000000006600000000000000660000000000000066000000000000006600000000000000660000000000000066000000000000006600000000000000660000000000000066000000000000006600000000000000660000000000000066000000000000006600000000000000660000000000000066000000000000006600000000000000660000000000000066000000000000006600000000000000660000000000000066000000000000006600000000000000660000000000000066000000000000006600000000000000660000000000000066000000000000006600000000000000660000000000000066000000000000006600000000000000660000000000000066000000000000006600000000000000660000000000000066000000000000006600000000000000660000000000000066000000000000006600000000000000660000000000000066000000000000006600000000000000660000000000000066000000000000006600000000000000660000000000000066000000000000006600000000000000660000000000000066000000000000006600000000000000660000000000000066000000000000006600000000000000660000000000000066000000000000006600000000000000660000000000000066000000000000006600000000000000660000000000000066000000000000006600000000000000660000000000000066000000000000006600000000000000660000000000000066000000000000006600000000000000660000000000000066000000000000006600000000000000660000000000000066000000000000006600000000000000660000000000000066000000000000006600000000000000660000000000000066000000000000006600000000000000660000000000000066000000000000006600000000000000660000000000000066000000000000006600000000000000660000000000000066000000000000006600000000000000660000000000000066000000000000006600000000000000660000000000000066000000000000006600000000000000660000000000000066000000000000006600000000000000660000000000000066000000000000006600000000000000660000000000000066000000000000006600000000000000660000000000000066000000000000006600000000000000660000000000000066000000000000006600000000000000660000000000000066000000000000006600000000000000660000000000000066000000000000006600000000000000660000000000000066000000000000006600000000000000660000000000000066000000000000006600000000000000660000000000000066000000000000006600000000000000660000000000000066000000000000006600000000000000660000000000000066000000000000006600000000000000660000000000000066000000000000006600000000000000660000000000000066000000000000006600000000000000660000000000000066000000000000006600000000000000660000000000000066000000000000006600000000000000660000000000000066000000000000006600000000000000660000000000000066000000000000006600000000000000660000000000000066000000000000006600000000000000660000000000000066000000000000006600000000000000660000000000000066000000000000006600000000000000660000000000000066000000000000006600000000000000660000000000000066000000000000006600000000000000660000000000000066000000000000006600000000000000660000000000000066000000000000006600000000000000660000000000000066000000000000006600000000000000660000000000000066000000000000006600000000000000660000000000000066000000000000006600000000000000660000000000000066000000000000006600000000000000660000000000000066000000000000006600000000000000660000000000000066000000000000006600000000000000660000000000000066000000000000006600000000000000660000000000000066000000000000006600000000000000660000000000000066000000000000006600000000000000660000000000000066000000000000006600000000000000660000000000000066000000000000006600000000000000660000000000000066000000000000006600000000000000660000000000000066000000000000006600000000000000660000000000000066000000000000006600000000000000660000000000000066000000000000006600000000000000660000000000000066000000000000006600000000000000660000000000000066000000000000006600000000000000660000000000000066000000000000006600000000000000660000000000000066000000000000006600000000000000660000000000000066000000000000006600000000000000660000000000000066000000000000006600000000000000660000000000000066000000000000006600000000000000660000000000000066000000000000006600000000000000660000000000000066000000000000006600000000000000660000000000000066000000000000006600000000000000660000000000000066000000000000006600000000000000660000000000000066000000000000006600000000000000660000000000000066000000000000006600000000000000660000000000000066000000000000006600000000000000660000000000000066000000000000006600000000000000660000000000000066000000000000006600000000000000660000000000000066000000000000006600000000000000660000000000000066000000000000006600000000000000660000000000000066000000000000006600000000000000660000000000000066000000000000006600000000000000660000000000000066000000000000006600000000000000660000000000000066000000000000006600000000000000660000000000000066000000000000006600000000000000660000000000000066000000000000006600000000000000660000000000000066000000000000006600000000000000660000000000000066000000000000006600000000000000660000000000000066000000000000006600000000000000660000000000000066000000000000006600000000000000660000000000000066000000000000006600000000000000660000000000000066000000000000006600000000000000660000000000000066000000000000006600000000000000660000000000000066000000000000006600000000000000660000000000000066000000000000006600000000000000660000000000000066000000000000006600000000000000660000000000000066000000000000006600000000000000660000000000000066000000000000006600000000000000660000000000000066000000000000006600000000000000660000000000000066000000000000006600000000000000660000000000000066000000000000006600000000000000660000000000000066000000000000006600000000000000660000000000000066000000000000006600000000000000660000000000000066000000000000006600000000000000660000000000000066000000000000006600000000000000660000000000000066000000000000006600000000000000660000000000000066000000000000006600000000000000660000000000000066000000000000006600000000000000660000000000000066000000000000006600000000000000660000000000000066000000000000006600000000000000660000000000000066000000000000006600000000000000660000000000000066000000000000006600000000000000660000000000000066000000000000006600000000000000660000000000000066000000000000006600000000000000660000000000000066000000000000006600000000000000660000000000000066000000000000006600000000000000660000000000000066000000000000006600000000000000660000000000000066000000000000006600000000000000660000000000000066000000000000006600000000000000660000000000000066000000000000006600000000000000660000000000000066000000000000006600000000000000660000000000000066000000000000006600000000000000660000000000000066000000000000006600000000000000660000000000000066000000000000006600000000000000660000000000000066000000000000006600000000000000660000000000000066000000000000006600000000000000660000000000000066000000000000006600000000000000660000000000000066000000000000006600000000000000660000000000000066000000000000006600000000000000660000000000000066000000000000006600000000000000660000000000000066000000000000006600000000000000660000000000000066000000000000006600000000000000660000000000000066000000000000006600000000000000660000000000000066000000000000006600000000000000660000000000000066000000000000006600000000000000660000000000000066000000000000006600000000000000660000000000000066000000000000006600000000000000660000000000000066000000000000006600000000000000660000000000000066000000000000006600000000000000660000000000000066000000000000006600000000000000660000000000000066000000000000006600000000000000660000000000000066000000000000006600000000000000660000000000000066000000000000006600000000000000660000000000000066000000000000006600000000000000660000000000000066000000000000006600000000000000660000000000000066000000000000006600000000000000660000000000000066000000000000006600000000000000660000000000000066000000000000006600000000000000660000000000000066000000000000006600000000000000",
                        "gasLimit" : "0x5b8d80",
                        "gasPrice" : "0x01",
                        "nonce" : "0x00",
                        "r" : "0xab4d614fe5dea2dba65be1a1247c09e68c700a59e51a90be16599e89c5de30f8",
                        "s" : "0x659a2c1a49230fa35321501a4915708fb307c4563925bac8e4db69bfad9b11ad",
                        "to" : "",
                        "v" : "0x1b",
                        "value" : "0x01"
                    }
                ],
                "uncleHeaders" : [
                ]
            }
        ],
        "genesisBlockHeader" : {
            "bloom" : "0x00000000000000000000000000000000000000000000000000000000000000000000000000000000000000000000000000000000000000000000000000000000000000000000000000000000000000000000000000000000000000000000000000000000000000000000000000000000000000000000000000000000000000000000000000000000000000000000000000000000000000000000000000000000000000000000000000000000000000000000000000000000000000000000000000000000000000000000000000000000000000000000000000000000000000000000000000000000000000000000000000000000000000000000000000000000",
            "coinbase" : "0x2adc25665018aa1fe0e6bc666dac8fc2697ff9ba",
            "difficulty" : "0x020000",
            "extraData" : "0x42",
            "gasLimit" : "0x0a00000000",
            "gasUsed" : "0x00",
            "hash" : "0xb7d1d85e1c06f99c2e3a8d93a15824f88df6c1d2643284871aca54964223455b",
            "mixHash" : "0x56e81f171bcc55a6ff8345e692c0f86e5b48e01b996cadc001622fb5e363b421",
            "nonce" : "0x0102030405060708",
            "number" : "0x00",
            "parentHash" : "0x0000000000000000000000000000000000000000000000000000000000000000",
            "receiptTrie" : "0x56e81f171bcc55a6ff8345e692c0f86e5b48e01b996cadc001622fb5e363b421",
            "stateRoot" : "0xf88012c07d4f4c3463fad1a106542c15693af39cb215f195035f63ab2497aa01",
            "timestamp" : "0x03b6",
            "transactionsTrie" : "0x56e81f171bcc55a6ff8345e692c0f86e5b48e01b996cadc001622fb5e363b421",
            "uncleHash" : "0x1dcc4de8dec75d7aab85b567b6ccd41ad312451b948a7413f0a142fd40d49347"
        },
        "genesisRLP" : "0xf901fcf901f7a00000000000000000000000000000000000000000000000000000000000000000a01dcc4de8dec75d7aab85b567b6ccd41ad312451b948a7413f0a142fd40d49347942adc25665018aa1fe0e6bc666dac8fc2697ff9baa0f88012c07d4f4c3463fad1a106542c15693af39cb215f195035f63ab2497aa01a056e81f171bcc55a6ff8345e692c0f86e5b48e01b996cadc001622fb5e363b421a056e81f171bcc55a6ff8345e692c0f86e5b48e01b996cadc001622fb5e363b421b90100000000000000000000000000000000000000000000000000000000000000000000000000000000000000000000000000000000000000000000000000000000000000000000000000000000000000000000000000000000000000000000000000000000000000000000000000000000000000000000000000000000000000000000000000000000000000000000000000000000000000000000000000000000000000000000000000000000000000000000000000000000000000000000000000000000000000000000000000000000000000000000000000000000000000000000000000000000000000000000000000000000000000000000000000000000008302000080850a00000000808203b642a056e81f171bcc55a6ff8345e692c0f86e5b48e01b996cadc001622fb5e363b421880102030405060708c0c0",
        "lastblockhash" : "0xd8a4b3cdcc2b42d4fc4aa7c82ce7acf0e6693406159ccbb1431e19d3c725755c",
        "network" : "Byzantium",
        "postState" : {
            "0x2adc25665018aa1fe0e6bc666dac8fc2697ff9ba" : {
                "balance" : "0x29a2241af62e5b08",
                "code" : "",
                "nonce" : "0x00",
                "storage" : {
                }
            },
            "0x6295ee1b4f6dd65047762f924ecd367c17eabf8f" : {
                "balance" : "0x01",
                "code" : "",
                "nonce" : "0x01",
                "storage" : {
                }
            },
            "0xa94f5374fce5edbc8e2a8697c15331677e6ebf0b" : {
                "balance" : "0xe8d4a50ffffffda4f7",
                "code" : "",
                "nonce" : "0x01",
                "storage" : {
                }
            },
            "0xb94f5374fce5edbc8e2a8697c15331677e6ebf0b" : {
                "balance" : "0xe8d4a5100000000000",
                "code" : "",
                "nonce" : "0x00",
                "storage" : {
                }
            }
        },
        "pre" : {
            "0xa94f5374fce5edbc8e2a8697c15331677e6ebf0b" : {
                "balance" : "0xe8d4a5100000000000",
                "code" : "",
                "nonce" : "0x00",
                "storage" : {
                }
            },
            "0xb94f5374fce5edbc8e2a8697c15331677e6ebf0b" : {
                "balance" : "0xe8d4a5100000000000",
                "code" : "",
                "nonce" : "0x00",
                "storage" : {
                }
            }
        }
    }
}