{
    "Transaction64Rule_d64e0_d0g0v0_EIP150" : {
        "_info" : {
            "comment" : "",
            "filledwith" : "cpp-1.3.0+commit.16292201.Linux.g++",
            "source" : "/src/GenStateTestAsBcTemp/stEIP150Specific/Transaction64Rule_d64e0_d0g0v0Filler.json"
        },
        "blocks" : [
            {
                "blockHeader" : {
                    "bloom" : "0x00000000000000000000000000000000000000000000000000000000000000000000000000000000000000000000000000000000000000000000000000000000000000000000000000000000000000000000000000000000000000000000000000000000000000000000000000000000000000000000000000000000000000000000000000000000000000000000000000000000000000000000000000000000000000000000000000000000000000000000000000000000000000000000000000000000000000000000000000000000000000000000000000000000000000000000000000000000000000000000000000000000000000000000000000000000",
                    "coinbase" : "0x2adc25665018aa1fe0e6bc666dac8fc2697ff9ba",
                    "difficulty" : "0x020000",
                    "extraData" : "",
                    "gasLimit" : "0x989680",
                    "gasUsed" : "0x013f4b",
                    "hash" : "0x9dcee72bc0ad24ce3b67774bc93c754e2ef70ce31d33c3c74018ddb2c796818d",
                    "mixHash" : "0x4d013999cfbe50c5012d6cfe0f22e086445c1c2352bb6ad0c84ff8aea6b916a5",
                    "nonce" : "0x53f432ad44cc7434",
                    "number" : "0x01",
                    "parentHash" : "0xbef829a9162ec28c4fd407f96b8b2eb2998beca8df7fcc55f197a98dc49cb47d",
                    "receiptTrie" : "0x50cb4e8c663cc5b7a9f284093379d1deebe9efc983ae38355913c504d384fb0a",
                    "stateRoot" : "0x2232cda49c3379d95ba7032a2cd51f6bd4698c8b0ee09bfdc899c4c767c3ce3f",
                    "timestamp" : "0x03e8",
                    "transactionsTrie" : "0xd02fc60ef394b0f4d36b7daf6b0d6acfe3fd0256d7872ad93116eb514929f59e",
                    "uncleHash" : "0x1dcc4de8dec75d7aab85b567b6ccd41ad312451b948a7413f0a142fd40d49347"
                },
                "rlp" : "0xf90260f901f8a0bef829a9162ec28c4fd407f96b8b2eb2998beca8df7fcc55f197a98dc49cb47da01dcc4de8dec75d7aab85b567b6ccd41ad312451b948a7413f0a142fd40d49347942adc25665018aa1fe0e6bc666dac8fc2697ff9baa02232cda49c3379d95ba7032a2cd51f6bd4698c8b0ee09bfdc899c4c767c3ce3fa0d02fc60ef394b0f4d36b7daf6b0d6acfe3fd0256d7872ad93116eb514929f59ea050cb4e8c663cc5b7a9f284093379d1deebe9efc983ae38355913c504d384fb0ab901000000000000000000000000000000000000000000000000000000000000000000000000000000000000000000000000000000000000000000000000000000000000000000000000000000000000000000000000000000000000000000000000000000000000000000000000000000000000000000000000000000000000000000000000000000000000000000000000000000000000000000000000000000000000000000000000000000000000000000000000000000000000000000000000000000000000000000000000000000000000000000000000000000000000000000000000000000000000000000000000000000000000000000000000000000000083020000018398968083013f4b8203e880a04d013999cfbe50c5012d6cfe0f22e086445c1c2352bb6ad0c84ff8aea6b916a58853f432ad44cc7434f862f86080018302713e94b94f5374fce5edbc8e2a8697c15331677e6ebf0b80801ba05d708778ba066e19336af45ad9148bd0cfce2499c1296faa3ee9335fb85a68c5a0093c5b2906d9a5bf87d9b9c43b2bee75eaa2f9237c3a49cad1a171f11ed69f6dc0",
                "transactions" : [
                    {
                        "data" : "",
                        "gasLimit" : "0x02713e",
                        "gasPrice" : "0x01",
                        "nonce" : "0x00",
                        "r" : "0x5d708778ba066e19336af45ad9148bd0cfce2499c1296faa3ee9335fb85a68c5",
                        "s" : "0x093c5b2906d9a5bf87d9b9c43b2bee75eaa2f9237c3a49cad1a171f11ed69f6d",
                        "to" : "0xb94f5374fce5edbc8e2a8697c15331677e6ebf0b",
                        "v" : "0x1b",
                        "value" : "0x00"
                    }
                ],
                "uncleHeaders" : [
                ]
            }
        ],
        "genesisBlockHeader" : {
            "bloom" : "0x00000000000000000000000000000000000000000000000000000000000000000000000000000000000000000000000000000000000000000000000000000000000000000000000000000000000000000000000000000000000000000000000000000000000000000000000000000000000000000000000000000000000000000000000000000000000000000000000000000000000000000000000000000000000000000000000000000000000000000000000000000000000000000000000000000000000000000000000000000000000000000000000000000000000000000000000000000000000000000000000000000000000000000000000000000000",
            "coinbase" : "0x2adc25665018aa1fe0e6bc666dac8fc2697ff9ba",
            "difficulty" : "0x020000",
            "extraData" : "0x42",
            "gasLimit" : "0x989680",
            "gasUsed" : "0x00",
            "hash" : "0xbef829a9162ec28c4fd407f96b8b2eb2998beca8df7fcc55f197a98dc49cb47d",
            "mixHash" : "0x56e81f171bcc55a6ff8345e692c0f86e5b48e01b996cadc001622fb5e363b421",
            "nonce" : "0x0102030405060708",
            "number" : "0x00",
            "parentHash" : "0x0000000000000000000000000000000000000000000000000000000000000000",
            "receiptTrie" : "0x56e81f171bcc55a6ff8345e692c0f86e5b48e01b996cadc001622fb5e363b421",
            "stateRoot" : "0x12e10185d929ed9a4f2bf673105d9e1de287a641c59bbf43399740fc05e8156b",
            "timestamp" : "0x03b6",
            "transactionsTrie" : "0x56e81f171bcc55a6ff8345e692c0f86e5b48e01b996cadc001622fb5e363b421",
            "uncleHash" : "0x1dcc4de8dec75d7aab85b567b6ccd41ad312451b948a7413f0a142fd40d49347"
        },
        "genesisRLP" : "0xf901faf901f5a00000000000000000000000000000000000000000000000000000000000000000a01dcc4de8dec75d7aab85b567b6ccd41ad312451b948a7413f0a142fd40d49347942adc25665018aa1fe0e6bc666dac8fc2697ff9baa012e10185d929ed9a4f2bf673105d9e1de287a641c59bbf43399740fc05e8156ba056e81f171bcc55a6ff8345e692c0f86e5b48e01b996cadc001622fb5e363b421a056e81f171bcc55a6ff8345e692c0f86e5b48e01b996cadc001622fb5e363b421b9010000000000000000000000000000000000000000000000000000000000000000000000000000000000000000000000000000000000000000000000000000000000000000000000000000000000000000000000000000000000000000000000000000000000000000000000000000000000000000000000000000000000000000000000000000000000000000000000000000000000000000000000000000000000000000000000000000000000000000000000000000000000000000000000000000000000000000000000000000000000000000000000000000000000000000000000000000000000000000000000000000000000000000000000000000000000830200008083989680808203b642a056e81f171bcc55a6ff8345e692c0f86e5b48e01b996cadc001622fb5e363b421880102030405060708c0c0",
        "lastblockhash" : "0x9dcee72bc0ad24ce3b67774bc93c754e2ef70ce31d33c3c74018ddb2c796818d",
        "network" : "EIP150",
        "postState" : {
            "0x1000000000000000000000000000000000000118" : {
                "balance" : "0x00",
                "code" : "0x600c600155",
                "nonce" : "0x00",
                "storage" : {
                    "0x01" : "0x0c"
                }
            },
            "0x2adc25665018aa1fe0e6bc666dac8fc2697ff9ba" : {
                "balance" : "0x4563918244f53f4b",
                "code" : "",
                "nonce" : "0x00",
                "storage" : {
                }
            },
            "0xa94f5374fce5edbc8e2a8697c15331677e6ebf0b" : {
                "balance" : "0xe8d4a3d0b5",
                "code" : "",
                "nonce" : "0x01",
                "storage" : {
                }
            },
            "0xb94f5374fce5edbc8e2a8697c15331677e6ebf0b" : {
                "balance" : "0x00",
                "code" : "0x5a6000556000600060006000600073100000000000000000000000000000000000011862027100f1505a600255",
                "nonce" : "0x00",
                "storage" : {
                    "0x00" : "0x021f34",
                    "0x02" : "0x018016"
                }
            }
        },
        "pre" : {
            "0x1000000000000000000000000000000000000118" : {
                "balance" : "0x00",
                "code" : "0x600c600155",
                "nonce" : "0x00",
                "storage" : {
                }
            },
            "0xa94f5374fce5edbc8e2a8697c15331677e6ebf0b" : {
                "balance" : "0xe8d4a51000",
                "code" : "",
                "nonce" : "0x00",
                "storage" : {
                }
            },
            "0xb94f5374fce5edbc8e2a8697c15331677e6ebf0b" : {
                "balance" : "0x00",
                "code" : "0x5a6000556000600060006000600073100000000000000000000000000000000000011862027100f1505a600255",
                "nonce" : "0x00",
                "storage" : {
                }
            }
        }
    },
    "Transaction64Rule_d64e0_d0g0v0_EIP158" : {
        "_info" : {
            "comment" : "",
            "filledwith" : "cpp-1.3.0+commit.16292201.Linux.g++",
            "source" : "/src/GenStateTestAsBcTemp/stEIP150Specific/Transaction64Rule_d64e0_d0g0v0Filler.json"
        },
        "blocks" : [
            {
                "blockHeader" : {
                    "bloom" : "0x00000000000000000000000000000000000000000000000000000000000000000000000000000000000000000000000000000000000000000000000000000000000000000000000000000000000000000000000000000000000000000000000000000000000000000000000000000000000000000000000000000000000000000000000000000000000000000000000000000000000000000000000000000000000000000000000000000000000000000000000000000000000000000000000000000000000000000000000000000000000000000000000000000000000000000000000000000000000000000000000000000000000000000000000000000000",
                    "coinbase" : "0x2adc25665018aa1fe0e6bc666dac8fc2697ff9ba",
                    "difficulty" : "0x020000",
                    "extraData" : "",
                    "gasLimit" : "0x989680",
                    "gasUsed" : "0x013f4b",
                    "hash" : "0x7b62ef6b36f2c9047541df1f7db0bcee7431e7a46201461a395d9ff7def7d243",
                    "mixHash" : "0x05f793ac7a6fb9b233096e357278bb02483312adbf9f9a6537cff59010ee2889",
                    "nonce" : "0xfafe44149053db16",
                    "number" : "0x01",
                    "parentHash" : "0xbef829a9162ec28c4fd407f96b8b2eb2998beca8df7fcc55f197a98dc49cb47d",
                    "receiptTrie" : "0x50cb4e8c663cc5b7a9f284093379d1deebe9efc983ae38355913c504d384fb0a",
                    "stateRoot" : "0x2232cda49c3379d95ba7032a2cd51f6bd4698c8b0ee09bfdc899c4c767c3ce3f",
                    "timestamp" : "0x03e8",
                    "transactionsTrie" : "0xd02fc60ef394b0f4d36b7daf6b0d6acfe3fd0256d7872ad93116eb514929f59e",
                    "uncleHash" : "0x1dcc4de8dec75d7aab85b567b6ccd41ad312451b948a7413f0a142fd40d49347"
                },
                "rlp" : "0xf90260f901f8a0bef829a9162ec28c4fd407f96b8b2eb2998beca8df7fcc55f197a98dc49cb47da01dcc4de8dec75d7aab85b567b6ccd41ad312451b948a7413f0a142fd40d49347942adc25665018aa1fe0e6bc666dac8fc2697ff9baa02232cda49c3379d95ba7032a2cd51f6bd4698c8b0ee09bfdc899c4c767c3ce3fa0d02fc60ef394b0f4d36b7daf6b0d6acfe3fd0256d7872ad93116eb514929f59ea050cb4e8c663cc5b7a9f284093379d1deebe9efc983ae38355913c504d384fb0ab901000000000000000000000000000000000000000000000000000000000000000000000000000000000000000000000000000000000000000000000000000000000000000000000000000000000000000000000000000000000000000000000000000000000000000000000000000000000000000000000000000000000000000000000000000000000000000000000000000000000000000000000000000000000000000000000000000000000000000000000000000000000000000000000000000000000000000000000000000000000000000000000000000000000000000000000000000000000000000000000000000000000000000000000000000000000083020000018398968083013f4b8203e880a005f793ac7a6fb9b233096e357278bb02483312adbf9f9a6537cff59010ee288988fafe44149053db16f862f86080018302713e94b94f5374fce5edbc8e2a8697c15331677e6ebf0b80801ba05d708778ba066e19336af45ad9148bd0cfce2499c1296faa3ee9335fb85a68c5a0093c5b2906d9a5bf87d9b9c43b2bee75eaa2f9237c3a49cad1a171f11ed69f6dc0",
                "transactions" : [
                    {
                        "data" : "",
                        "gasLimit" : "0x02713e",
                        "gasPrice" : "0x01",
                        "nonce" : "0x00",
                        "r" : "0x5d708778ba066e19336af45ad9148bd0cfce2499c1296faa3ee9335fb85a68c5",
                        "s" : "0x093c5b2906d9a5bf87d9b9c43b2bee75eaa2f9237c3a49cad1a171f11ed69f6d",
                        "to" : "0xb94f5374fce5edbc8e2a8697c15331677e6ebf0b",
                        "v" : "0x1b",
                        "value" : "0x00"
                    }
                ],
                "uncleHeaders" : [
                ]
            }
        ],
        "genesisBlockHeader" : {
            "bloom" : "0x00000000000000000000000000000000000000000000000000000000000000000000000000000000000000000000000000000000000000000000000000000000000000000000000000000000000000000000000000000000000000000000000000000000000000000000000000000000000000000000000000000000000000000000000000000000000000000000000000000000000000000000000000000000000000000000000000000000000000000000000000000000000000000000000000000000000000000000000000000000000000000000000000000000000000000000000000000000000000000000000000000000000000000000000000000000",
            "coinbase" : "0x2adc25665018aa1fe0e6bc666dac8fc2697ff9ba",
            "difficulty" : "0x020000",
            "extraData" : "0x42",
            "gasLimit" : "0x989680",
            "gasUsed" : "0x00",
            "hash" : "0xbef829a9162ec28c4fd407f96b8b2eb2998beca8df7fcc55f197a98dc49cb47d",
            "mixHash" : "0x56e81f171bcc55a6ff8345e692c0f86e5b48e01b996cadc001622fb5e363b421",
            "nonce" : "0x0102030405060708",
            "number" : "0x00",
            "parentHash" : "0x0000000000000000000000000000000000000000000000000000000000000000",
            "receiptTrie" : "0x56e81f171bcc55a6ff8345e692c0f86e5b48e01b996cadc001622fb5e363b421",
            "stateRoot" : "0x12e10185d929ed9a4f2bf673105d9e1de287a641c59bbf43399740fc05e8156b",
            "timestamp" : "0x03b6",
            "transactionsTrie" : "0x56e81f171bcc55a6ff8345e692c0f86e5b48e01b996cadc001622fb5e363b421",
            "uncleHash" : "0x1dcc4de8dec75d7aab85b567b6ccd41ad312451b948a7413f0a142fd40d49347"
        },
        "genesisRLP" : "0xf901faf901f5a00000000000000000000000000000000000000000000000000000000000000000a01dcc4de8dec75d7aab85b567b6ccd41ad312451b948a7413f0a142fd40d49347942adc25665018aa1fe0e6bc666dac8fc2697ff9baa012e10185d929ed9a4f2bf673105d9e1de287a641c59bbf43399740fc05e8156ba056e81f171bcc55a6ff8345e692c0f86e5b48e01b996cadc001622fb5e363b421a056e81f171bcc55a6ff8345e692c0f86e5b48e01b996cadc001622fb5e363b421b9010000000000000000000000000000000000000000000000000000000000000000000000000000000000000000000000000000000000000000000000000000000000000000000000000000000000000000000000000000000000000000000000000000000000000000000000000000000000000000000000000000000000000000000000000000000000000000000000000000000000000000000000000000000000000000000000000000000000000000000000000000000000000000000000000000000000000000000000000000000000000000000000000000000000000000000000000000000000000000000000000000000000000000000000000000000000830200008083989680808203b642a056e81f171bcc55a6ff8345e692c0f86e5b48e01b996cadc001622fb5e363b421880102030405060708c0c0",
        "lastblockhash" : "0x7b62ef6b36f2c9047541df1f7db0bcee7431e7a46201461a395d9ff7def7d243",
        "network" : "EIP158",
        "postState" : {
            "0x1000000000000000000000000000000000000118" : {
                "balance" : "0x00",
                "code" : "0x600c600155",
                "nonce" : "0x00",
                "storage" : {
                    "0x01" : "0x0c"
                }
            },
            "0x2adc25665018aa1fe0e6bc666dac8fc2697ff9ba" : {
                "balance" : "0x4563918244f53f4b",
                "code" : "",
                "nonce" : "0x00",
                "storage" : {
                }
            },
            "0xa94f5374fce5edbc8e2a8697c15331677e6ebf0b" : {
                "balance" : "0xe8d4a3d0b5",
                "code" : "",
                "nonce" : "0x01",
                "storage" : {
                }
            },
            "0xb94f5374fce5edbc8e2a8697c15331677e6ebf0b" : {
                "balance" : "0x00",
                "code" : "0x5a6000556000600060006000600073100000000000000000000000000000000000011862027100f1505a600255",
                "nonce" : "0x00",
                "storage" : {
                    "0x00" : "0x021f34",
                    "0x02" : "0x018016"
                }
            }
        },
        "pre" : {
            "0x1000000000000000000000000000000000000118" : {
                "balance" : "0x00",
                "code" : "0x600c600155",
                "nonce" : "0x00",
                "storage" : {
                }
            },
            "0xa94f5374fce5edbc8e2a8697c15331677e6ebf0b" : {
                "balance" : "0xe8d4a51000",
                "code" : "",
                "nonce" : "0x00",
                "storage" : {
                }
            },
            "0xb94f5374fce5edbc8e2a8697c15331677e6ebf0b" : {
                "balance" : "0x00",
                "code" : "0x5a6000556000600060006000600073100000000000000000000000000000000000011862027100f1505a600255",
                "nonce" : "0x00",
                "storage" : {
                }
            }
        }
    },
    "Transaction64Rule_d64e0_d0g0v0_Frontier" : {
        "_info" : {
            "comment" : "",
            "filledwith" : "cpp-1.3.0+commit.16292201.Linux.g++",
            "source" : "/src/GenStateTestAsBcTemp/stEIP150Specific/Transaction64Rule_d64e0_d0g0v0Filler.json"
        },
        "blocks" : [
            {
                "blockHeader" : {
                    "bloom" : "0x00000000000000000000000000000000000000000000000000000000000000000000000000000000000000000000000000000000000000000000000000000000000000000000000000000000000000000000000000000000000000000000000000000000000000000000000000000000000000000000000000000000000000000000000000000000000000000000000000000000000000000000000000000000000000000000000000000000000000000000000000000000000000000000000000000000000000000000000000000000000000000000000000000000000000000000000000000000000000000000000000000000000000000000000000000000",
                    "coinbase" : "0x2adc25665018aa1fe0e6bc666dac8fc2697ff9ba",
                    "difficulty" : "0x020000",
                    "extraData" : "",
                    "gasLimit" : "0x989680",
                    "gasUsed" : "0x02713e",
                    "hash" : "0x0a1135f604548a8daafacd6180ad64fcec69de81ecfbe2a233493747d4de06d6",
                    "mixHash" : "0x53118407bbb7fa94b223015cca6d4bcce18487a40749134b6d849c0a48bdc61a",
                    "nonce" : "0xe211b20e5e54b1ee",
                    "number" : "0x01",
                    "parentHash" : "0xbef829a9162ec28c4fd407f96b8b2eb2998beca8df7fcc55f197a98dc49cb47d",
                    "receiptTrie" : "0xd92c0de66506fa0341096870b851800b22115abe1e6ced11db9fbe121cab1f28",
                    "stateRoot" : "0xb5e567d6ab119f56104e0e3d4609b07268a8f801af7aae133267963dc2431955",
                    "timestamp" : "0x03e8",
                    "transactionsTrie" : "0xd02fc60ef394b0f4d36b7daf6b0d6acfe3fd0256d7872ad93116eb514929f59e",
                    "uncleHash" : "0x1dcc4de8dec75d7aab85b567b6ccd41ad312451b948a7413f0a142fd40d49347"
                },
                "rlp" : "0xf90260f901f8a0bef829a9162ec28c4fd407f96b8b2eb2998beca8df7fcc55f197a98dc49cb47da01dcc4de8dec75d7aab85b567b6ccd41ad312451b948a7413f0a142fd40d49347942adc25665018aa1fe0e6bc666dac8fc2697ff9baa0b5e567d6ab119f56104e0e3d4609b07268a8f801af7aae133267963dc2431955a0d02fc60ef394b0f4d36b7daf6b0d6acfe3fd0256d7872ad93116eb514929f59ea0d92c0de66506fa0341096870b851800b22115abe1e6ced11db9fbe121cab1f28b90100000000000000000000000000000000000000000000000000000000000000000000000000000000000000000000000000000000000000000000000000000000000000000000000000000000000000000000000000000000000000000000000000000000000000000000000000000000000000000000000000000000000000000000000000000000000000000000000000000000000000000000000000000000000000000000000000000000000000000000000000000000000000000000000000000000000000000000000000000000000000000000000000000000000000000000000000000000000000000000000000000000000000000000000000000000008302000001839896808302713e8203e880a053118407bbb7fa94b223015cca6d4bcce18487a40749134b6d849c0a48bdc61a88e211b20e5e54b1eef862f86080018302713e94b94f5374fce5edbc8e2a8697c15331677e6ebf0b80801ba05d708778ba066e19336af45ad9148bd0cfce2499c1296faa3ee9335fb85a68c5a0093c5b2906d9a5bf87d9b9c43b2bee75eaa2f9237c3a49cad1a171f11ed69f6dc0",
                "transactions" : [
                    {
                        "data" : "",
                        "gasLimit" : "0x02713e",
                        "gasPrice" : "0x01",
                        "nonce" : "0x00",
                        "r" : "0x5d708778ba066e19336af45ad9148bd0cfce2499c1296faa3ee9335fb85a68c5",
                        "s" : "0x093c5b2906d9a5bf87d9b9c43b2bee75eaa2f9237c3a49cad1a171f11ed69f6d",
                        "to" : "0xb94f5374fce5edbc8e2a8697c15331677e6ebf0b",
                        "v" : "0x1b",
                        "value" : "0x00"
                    }
                ],
                "uncleHeaders" : [
                ]
            }
        ],
        "genesisBlockHeader" : {
            "bloom" : "0x00000000000000000000000000000000000000000000000000000000000000000000000000000000000000000000000000000000000000000000000000000000000000000000000000000000000000000000000000000000000000000000000000000000000000000000000000000000000000000000000000000000000000000000000000000000000000000000000000000000000000000000000000000000000000000000000000000000000000000000000000000000000000000000000000000000000000000000000000000000000000000000000000000000000000000000000000000000000000000000000000000000000000000000000000000000",
            "coinbase" : "0x2adc25665018aa1fe0e6bc666dac8fc2697ff9ba",
            "difficulty" : "0x020000",
            "extraData" : "0x42",
            "gasLimit" : "0x989680",
            "gasUsed" : "0x00",
            "hash" : "0xbef829a9162ec28c4fd407f96b8b2eb2998beca8df7fcc55f197a98dc49cb47d",
            "mixHash" : "0x56e81f171bcc55a6ff8345e692c0f86e5b48e01b996cadc001622fb5e363b421",
            "nonce" : "0x0102030405060708",
            "number" : "0x00",
            "parentHash" : "0x0000000000000000000000000000000000000000000000000000000000000000",
            "receiptTrie" : "0x56e81f171bcc55a6ff8345e692c0f86e5b48e01b996cadc001622fb5e363b421",
            "stateRoot" : "0x12e10185d929ed9a4f2bf673105d9e1de287a641c59bbf43399740fc05e8156b",
            "timestamp" : "0x03b6",
            "transactionsTrie" : "0x56e81f171bcc55a6ff8345e692c0f86e5b48e01b996cadc001622fb5e363b421",
            "uncleHash" : "0x1dcc4de8dec75d7aab85b567b6ccd41ad312451b948a7413f0a142fd40d49347"
        },
        "genesisRLP" : "0xf901faf901f5a00000000000000000000000000000000000000000000000000000000000000000a01dcc4de8dec75d7aab85b567b6ccd41ad312451b948a7413f0a142fd40d49347942adc25665018aa1fe0e6bc666dac8fc2697ff9baa012e10185d929ed9a4f2bf673105d9e1de287a641c59bbf43399740fc05e8156ba056e81f171bcc55a6ff8345e692c0f86e5b48e01b996cadc001622fb5e363b421a056e81f171bcc55a6ff8345e692c0f86e5b48e01b996cadc001622fb5e363b421b9010000000000000000000000000000000000000000000000000000000000000000000000000000000000000000000000000000000000000000000000000000000000000000000000000000000000000000000000000000000000000000000000000000000000000000000000000000000000000000000000000000000000000000000000000000000000000000000000000000000000000000000000000000000000000000000000000000000000000000000000000000000000000000000000000000000000000000000000000000000000000000000000000000000000000000000000000000000000000000000000000000000000000000000000000000000000830200008083989680808203b642a056e81f171bcc55a6ff8345e692c0f86e5b48e01b996cadc001622fb5e363b421880102030405060708c0c0",
        "lastblockhash" : "0x0a1135f604548a8daafacd6180ad64fcec69de81ecfbe2a233493747d4de06d6",
        "network" : "Frontier",
        "postState" : {
            "0x1000000000000000000000000000000000000118" : {
                "balance" : "0x00",
                "code" : "0x600c600155",
                "nonce" : "0x00",
                "storage" : {
                }
            },
            "0x2adc25665018aa1fe0e6bc666dac8fc2697ff9ba" : {
                "balance" : "0x4563918244f6713e",
                "code" : "",
                "nonce" : "0x00",
                "storage" : {
                }
            },
            "0xa94f5374fce5edbc8e2a8697c15331677e6ebf0b" : {
                "balance" : "0xe8d4a29ec2",
                "code" : "",
                "nonce" : "0x01",
                "storage" : {
                }
            },
            "0xb94f5374fce5edbc8e2a8697c15331677e6ebf0b" : {
                "balance" : "0x00",
                "code" : "0x5a6000556000600060006000600073100000000000000000000000000000000000011862027100f1505a600255",
                "nonce" : "0x00",
                "storage" : {
                }
            }
        },
        "pre" : {
            "0x1000000000000000000000000000000000000118" : {
                "balance" : "0x00",
                "code" : "0x600c600155",
                "nonce" : "0x00",
                "storage" : {
                }
            },
            "0xa94f5374fce5edbc8e2a8697c15331677e6ebf0b" : {
                "balance" : "0xe8d4a51000",
                "code" : "",
                "nonce" : "0x00",
                "storage" : {
                }
            },
            "0xb94f5374fce5edbc8e2a8697c15331677e6ebf0b" : {
                "balance" : "0x00",
                "code" : "0x5a6000556000600060006000600073100000000000000000000000000000000000011862027100f1505a600255",
                "nonce" : "0x00",
                "storage" : {
                }
            }
        }
    },
    "Transaction64Rule_d64e0_d0g0v0_Homestead" : {
        "_info" : {
            "comment" : "",
            "filledwith" : "cpp-1.3.0+commit.16292201.Linux.g++",
            "source" : "/src/GenStateTestAsBcTemp/stEIP150Specific/Transaction64Rule_d64e0_d0g0v0Filler.json"
        },
        "blocks" : [
            {
                "blockHeader" : {
                    "bloom" : "0x00000000000000000000000000000000000000000000000000000000000000000000000000000000000000000000000000000000000000000000000000000000000000000000000000000000000000000000000000000000000000000000000000000000000000000000000000000000000000000000000000000000000000000000000000000000000000000000000000000000000000000000000000000000000000000000000000000000000000000000000000000000000000000000000000000000000000000000000000000000000000000000000000000000000000000000000000000000000000000000000000000000000000000000000000000000",
                    "coinbase" : "0x2adc25665018aa1fe0e6bc666dac8fc2697ff9ba",
                    "difficulty" : "0x020000",
                    "extraData" : "",
                    "gasLimit" : "0x989680",
                    "gasUsed" : "0x02713e",
                    "hash" : "0xdb2f775a0173641005dea0a4d8c4cd9b34ea8deda5870f480dc5392e4a4471c3",
                    "mixHash" : "0xfe5fa044d92611ab8fa75611c7e6481562bca74e94d5188b2d383447463b87f2",
                    "nonce" : "0xd818c279f7b05069",
                    "number" : "0x01",
                    "parentHash" : "0xbef829a9162ec28c4fd407f96b8b2eb2998beca8df7fcc55f197a98dc49cb47d",
                    "receiptTrie" : "0xd92c0de66506fa0341096870b851800b22115abe1e6ced11db9fbe121cab1f28",
                    "stateRoot" : "0xb5e567d6ab119f56104e0e3d4609b07268a8f801af7aae133267963dc2431955",
                    "timestamp" : "0x03e8",
                    "transactionsTrie" : "0xd02fc60ef394b0f4d36b7daf6b0d6acfe3fd0256d7872ad93116eb514929f59e",
                    "uncleHash" : "0x1dcc4de8dec75d7aab85b567b6ccd41ad312451b948a7413f0a142fd40d49347"
                },
                "rlp" : "0xf90260f901f8a0bef829a9162ec28c4fd407f96b8b2eb2998beca8df7fcc55f197a98dc49cb47da01dcc4de8dec75d7aab85b567b6ccd41ad312451b948a7413f0a142fd40d49347942adc25665018aa1fe0e6bc666dac8fc2697ff9baa0b5e567d6ab119f56104e0e3d4609b07268a8f801af7aae133267963dc2431955a0d02fc60ef394b0f4d36b7daf6b0d6acfe3fd0256d7872ad93116eb514929f59ea0d92c0de66506fa0341096870b851800b22115abe1e6ced11db9fbe121cab1f28b90100000000000000000000000000000000000000000000000000000000000000000000000000000000000000000000000000000000000000000000000000000000000000000000000000000000000000000000000000000000000000000000000000000000000000000000000000000000000000000000000000000000000000000000000000000000000000000000000000000000000000000000000000000000000000000000000000000000000000000000000000000000000000000000000000000000000000000000000000000000000000000000000000000000000000000000000000000000000000000000000000000000000000000000000000000000008302000001839896808302713e8203e880a0fe5fa044d92611ab8fa75611c7e6481562bca74e94d5188b2d383447463b87f288d818c279f7b05069f862f86080018302713e94b94f5374fce5edbc8e2a8697c15331677e6ebf0b80801ba05d708778ba066e19336af45ad9148bd0cfce2499c1296faa3ee9335fb85a68c5a0093c5b2906d9a5bf87d9b9c43b2bee75eaa2f9237c3a49cad1a171f11ed69f6dc0",
                "transactions" : [
                    {
                        "data" : "",
                        "gasLimit" : "0x02713e",
                        "gasPrice" : "0x01",
                        "nonce" : "0x00",
                        "r" : "0x5d708778ba066e19336af45ad9148bd0cfce2499c1296faa3ee9335fb85a68c5",
                        "s" : "0x093c5b2906d9a5bf87d9b9c43b2bee75eaa2f9237c3a49cad1a171f11ed69f6d",
                        "to" : "0xb94f5374fce5edbc8e2a8697c15331677e6ebf0b",
                        "v" : "0x1b",
                        "value" : "0x00"
                    }
                ],
                "uncleHeaders" : [
                ]
            }
        ],
        "genesisBlockHeader" : {
            "bloom" : "0x00000000000000000000000000000000000000000000000000000000000000000000000000000000000000000000000000000000000000000000000000000000000000000000000000000000000000000000000000000000000000000000000000000000000000000000000000000000000000000000000000000000000000000000000000000000000000000000000000000000000000000000000000000000000000000000000000000000000000000000000000000000000000000000000000000000000000000000000000000000000000000000000000000000000000000000000000000000000000000000000000000000000000000000000000000000",
            "coinbase" : "0x2adc25665018aa1fe0e6bc666dac8fc2697ff9ba",
            "difficulty" : "0x020000",
            "extraData" : "0x42",
            "gasLimit" : "0x989680",
            "gasUsed" : "0x00",
            "hash" : "0xbef829a9162ec28c4fd407f96b8b2eb2998beca8df7fcc55f197a98dc49cb47d",
            "mixHash" : "0x56e81f171bcc55a6ff8345e692c0f86e5b48e01b996cadc001622fb5e363b421",
            "nonce" : "0x0102030405060708",
            "number" : "0x00",
            "parentHash" : "0x0000000000000000000000000000000000000000000000000000000000000000",
            "receiptTrie" : "0x56e81f171bcc55a6ff8345e692c0f86e5b48e01b996cadc001622fb5e363b421",
            "stateRoot" : "0x12e10185d929ed9a4f2bf673105d9e1de287a641c59bbf43399740fc05e8156b",
            "timestamp" : "0x03b6",
            "transactionsTrie" : "0x56e81f171bcc55a6ff8345e692c0f86e5b48e01b996cadc001622fb5e363b421",
            "uncleHash" : "0x1dcc4de8dec75d7aab85b567b6ccd41ad312451b948a7413f0a142fd40d49347"
        },
        "genesisRLP" : "0xf901faf901f5a00000000000000000000000000000000000000000000000000000000000000000a01dcc4de8dec75d7aab85b567b6ccd41ad312451b948a7413f0a142fd40d49347942adc25665018aa1fe0e6bc666dac8fc2697ff9baa012e10185d929ed9a4f2bf673105d9e1de287a641c59bbf43399740fc05e8156ba056e81f171bcc55a6ff8345e692c0f86e5b48e01b996cadc001622fb5e363b421a056e81f171bcc55a6ff8345e692c0f86e5b48e01b996cadc001622fb5e363b421b9010000000000000000000000000000000000000000000000000000000000000000000000000000000000000000000000000000000000000000000000000000000000000000000000000000000000000000000000000000000000000000000000000000000000000000000000000000000000000000000000000000000000000000000000000000000000000000000000000000000000000000000000000000000000000000000000000000000000000000000000000000000000000000000000000000000000000000000000000000000000000000000000000000000000000000000000000000000000000000000000000000000000000000000000000000000000830200008083989680808203b642a056e81f171bcc55a6ff8345e692c0f86e5b48e01b996cadc001622fb5e363b421880102030405060708c0c0",
        "lastblockhash" : "0xdb2f775a0173641005dea0a4d8c4cd9b34ea8deda5870f480dc5392e4a4471c3",
        "network" : "Homestead",
        "postState" : {
            "0x1000000000000000000000000000000000000118" : {
                "balance" : "0x00",
                "code" : "0x600c600155",
                "nonce" : "0x00",
                "storage" : {
                }
            },
            "0x2adc25665018aa1fe0e6bc666dac8fc2697ff9ba" : {
                "balance" : "0x4563918244f6713e",
                "code" : "",
                "nonce" : "0x00",
                "storage" : {
                }
            },
            "0xa94f5374fce5edbc8e2a8697c15331677e6ebf0b" : {
                "balance" : "0xe8d4a29ec2",
                "code" : "",
                "nonce" : "0x01",
                "storage" : {
                }
            },
            "0xb94f5374fce5edbc8e2a8697c15331677e6ebf0b" : {
                "balance" : "0x00",
                "code" : "0x5a6000556000600060006000600073100000000000000000000000000000000000011862027100f1505a600255",
                "nonce" : "0x00",
                "storage" : {
                }
            }
        },
        "pre" : {
            "0x1000000000000000000000000000000000000118" : {
                "balance" : "0x00",
                "code" : "0x600c600155",
                "nonce" : "0x00",
                "storage" : {
                }
            },
            "0xa94f5374fce5edbc8e2a8697c15331677e6ebf0b" : {
                "balance" : "0xe8d4a51000",
                "code" : "",
                "nonce" : "0x00",
                "storage" : {
                }
            },
            "0xb94f5374fce5edbc8e2a8697c15331677e6ebf0b" : {
                "balance" : "0x00",
                "code" : "0x5a6000556000600060006000600073100000000000000000000000000000000000011862027100f1505a600255",
                "nonce" : "0x00",
                "storage" : {
                }
            }
        }
    },
    "Transaction64Rule_d64e0_d0g0v0_Metropolis" : {
        "_info" : {
            "comment" : "",
            "filledwith" : "cpp-1.3.0+commit.16292201.Linux.g++",
            "source" : "/src/GenStateTestAsBcTemp/stEIP150Specific/Transaction64Rule_d64e0_d0g0v0Filler.json"
        },
        "blocks" : [
            {
                "blockHeader" : {
                    "bloom" : "0x00000000000000000000000000000000000000000000000000000000000000000000000000000000000000000000000000000000000000000000000000000000000000000000000000000000000000000000000000000000000000000000000000000000000000000000000000000000000000000000000000000000000000000000000000000000000000000000000000000000000000000000000000000000000000000000000000000000000000000000000000000000000000000000000000000000000000000000000000000000000000000000000000000000000000000000000000000000000000000000000000000000000000000000000000000000",
                    "coinbase" : "0x2adc25665018aa1fe0e6bc666dac8fc2697ff9ba",
                    "difficulty" : "0x020000",
                    "extraData" : "",
                    "gasLimit" : "0x989680",
                    "gasUsed" : "0x013f4b",
                    "hash" : "0xed90317629239fc5565544f45f322e132d2d3a720ef00bc5958e5a10c4e1d7a5",
                    "mixHash" : "0x9d168b009cc42fa267daeb4e093e8b3b1b684a20fe644335199056c4f9e84c35",
                    "nonce" : "0xbb22c681552c5c57",
                    "number" : "0x01",
                    "parentHash" : "0xbef829a9162ec28c4fd407f96b8b2eb2998beca8df7fcc55f197a98dc49cb47d",
                    "receiptTrie" : "0xe06889af26825b4219a6478341e56fd66b386896b598507bfa6e446266239093",
                    "stateRoot" : "0x6d71919aa8b5f850f8665ca9e8edc04de113debfc45e6469433cee9fd19edb8c",
                    "timestamp" : "0x03e8",
                    "transactionsTrie" : "0xd02fc60ef394b0f4d36b7daf6b0d6acfe3fd0256d7872ad93116eb514929f59e",
                    "uncleHash" : "0x1dcc4de8dec75d7aab85b567b6ccd41ad312451b948a7413f0a142fd40d49347"
                },
                "rlp" : "0xf90260f901f8a0bef829a9162ec28c4fd407f96b8b2eb2998beca8df7fcc55f197a98dc49cb47da01dcc4de8dec75d7aab85b567b6ccd41ad312451b948a7413f0a142fd40d49347942adc25665018aa1fe0e6bc666dac8fc2697ff9baa06d71919aa8b5f850f8665ca9e8edc04de113debfc45e6469433cee9fd19edb8ca0d02fc60ef394b0f4d36b7daf6b0d6acfe3fd0256d7872ad93116eb514929f59ea0e06889af26825b4219a6478341e56fd66b386896b598507bfa6e446266239093b901000000000000000000000000000000000000000000000000000000000000000000000000000000000000000000000000000000000000000000000000000000000000000000000000000000000000000000000000000000000000000000000000000000000000000000000000000000000000000000000000000000000000000000000000000000000000000000000000000000000000000000000000000000000000000000000000000000000000000000000000000000000000000000000000000000000000000000000000000000000000000000000000000000000000000000000000000000000000000000000000000000000000000000000000000000000083020000018398968083013f4b8203e880a09d168b009cc42fa267daeb4e093e8b3b1b684a20fe644335199056c4f9e84c3588bb22c681552c5c57f862f86080018302713e94b94f5374fce5edbc8e2a8697c15331677e6ebf0b80801ba05d708778ba066e19336af45ad9148bd0cfce2499c1296faa3ee9335fb85a68c5a0093c5b2906d9a5bf87d9b9c43b2bee75eaa2f9237c3a49cad1a171f11ed69f6dc0",
                "transactions" : [
                    {
                        "data" : "",
                        "gasLimit" : "0x02713e",
                        "gasPrice" : "0x01",
                        "nonce" : "0x00",
                        "r" : "0x5d708778ba066e19336af45ad9148bd0cfce2499c1296faa3ee9335fb85a68c5",
                        "s" : "0x093c5b2906d9a5bf87d9b9c43b2bee75eaa2f9237c3a49cad1a171f11ed69f6d",
                        "to" : "0xb94f5374fce5edbc8e2a8697c15331677e6ebf0b",
                        "v" : "0x1b",
                        "value" : "0x00"
                    }
                ],
                "uncleHeaders" : [
                ]
            }
        ],
        "genesisBlockHeader" : {
            "bloom" : "0x00000000000000000000000000000000000000000000000000000000000000000000000000000000000000000000000000000000000000000000000000000000000000000000000000000000000000000000000000000000000000000000000000000000000000000000000000000000000000000000000000000000000000000000000000000000000000000000000000000000000000000000000000000000000000000000000000000000000000000000000000000000000000000000000000000000000000000000000000000000000000000000000000000000000000000000000000000000000000000000000000000000000000000000000000000000",
            "coinbase" : "0x2adc25665018aa1fe0e6bc666dac8fc2697ff9ba",
            "difficulty" : "0x020000",
            "extraData" : "0x42",
            "gasLimit" : "0x989680",
            "gasUsed" : "0x00",
            "hash" : "0xbef829a9162ec28c4fd407f96b8b2eb2998beca8df7fcc55f197a98dc49cb47d",
            "mixHash" : "0x56e81f171bcc55a6ff8345e692c0f86e5b48e01b996cadc001622fb5e363b421",
            "nonce" : "0x0102030405060708",
            "number" : "0x00",
            "parentHash" : "0x0000000000000000000000000000000000000000000000000000000000000000",
            "receiptTrie" : "0x56e81f171bcc55a6ff8345e692c0f86e5b48e01b996cadc001622fb5e363b421",
            "stateRoot" : "0x12e10185d929ed9a4f2bf673105d9e1de287a641c59bbf43399740fc05e8156b",
            "timestamp" : "0x03b6",
            "transactionsTrie" : "0x56e81f171bcc55a6ff8345e692c0f86e5b48e01b996cadc001622fb5e363b421",
            "uncleHash" : "0x1dcc4de8dec75d7aab85b567b6ccd41ad312451b948a7413f0a142fd40d49347"
        },
        "genesisRLP" : "0xf901faf901f5a00000000000000000000000000000000000000000000000000000000000000000a01dcc4de8dec75d7aab85b567b6ccd41ad312451b948a7413f0a142fd40d49347942adc25665018aa1fe0e6bc666dac8fc2697ff9baa012e10185d929ed9a4f2bf673105d9e1de287a641c59bbf43399740fc05e8156ba056e81f171bcc55a6ff8345e692c0f86e5b48e01b996cadc001622fb5e363b421a056e81f171bcc55a6ff8345e692c0f86e5b48e01b996cadc001622fb5e363b421b9010000000000000000000000000000000000000000000000000000000000000000000000000000000000000000000000000000000000000000000000000000000000000000000000000000000000000000000000000000000000000000000000000000000000000000000000000000000000000000000000000000000000000000000000000000000000000000000000000000000000000000000000000000000000000000000000000000000000000000000000000000000000000000000000000000000000000000000000000000000000000000000000000000000000000000000000000000000000000000000000000000000000000000000000000000000000830200008083989680808203b642a056e81f171bcc55a6ff8345e692c0f86e5b48e01b996cadc001622fb5e363b421880102030405060708c0c0",
        "lastblockhash" : "0xed90317629239fc5565544f45f322e132d2d3a720ef00bc5958e5a10c4e1d7a5",
        "network" : "Metropolis",
        "postState" : {
            "0x00000000000000000000000000000000000000f0" : {
                "balance" : "0x00",
                "code" : "",
                "nonce" : "0x00",
                "storage" : {
                }
            },
            "0x1000000000000000000000000000000000000118" : {
                "balance" : "0x00",
                "code" : "0x600c600155",
                "nonce" : "0x00",
                "storage" : {
                    "0x01" : "0x0c"
                }
            },
            "0x2adc25665018aa1fe0e6bc666dac8fc2697ff9ba" : {
                "balance" : "0x4563918244f53f4b",
                "code" : "",
                "nonce" : "0x00",
                "storage" : {
                }
            },
            "0xa94f5374fce5edbc8e2a8697c15331677e6ebf0b" : {
                "balance" : "0xe8d4a3d0b5",
                "code" : "",
                "nonce" : "0x01",
                "storage" : {
                }
            },
            "0xb94f5374fce5edbc8e2a8697c15331677e6ebf0b" : {
                "balance" : "0x00",
                "code" : "0x5a6000556000600060006000600073100000000000000000000000000000000000011862027100f1505a600255",
                "nonce" : "0x00",
                "storage" : {
                    "0x00" : "0x021f34",
                    "0x02" : "0x018016"
                }
            }
        },
        "pre" : {
            "0x1000000000000000000000000000000000000118" : {
                "balance" : "0x00",
                "code" : "0x600c600155",
                "nonce" : "0x00",
                "storage" : {
                }
            },
            "0xa94f5374fce5edbc8e2a8697c15331677e6ebf0b" : {
                "balance" : "0xe8d4a51000",
                "code" : "",
                "nonce" : "0x00",
                "storage" : {
                }
            },
            "0xb94f5374fce5edbc8e2a8697c15331677e6ebf0b" : {
                "balance" : "0x00",
                "code" : "0x5a6000556000600060006000600073100000000000000000000000000000000000011862027100f1505a600255",
                "nonce" : "0x00",
                "storage" : {
                }
            }
        }
    }
}