{
    "CALLCODEEcrecoverV_prefixed0_d0g0v0_Byzantium" : {
        "_info" : {
            "comment" : "",
            "filledwith" : "cpp-1.3.0+commit.82b0643a.Linux.g++",
            "lllcversion" : "Version: 0.4.20-develop.2018.1.8+commit.2548228b.Linux.g++",
            "source" : "src/BlockchainTestsFiller/GeneralStateTests/stPreCompiledContracts2/CALLCODEEcrecoverV_prefixed0_d0g0v0Filler.json",
            "sourceHash" : "078d7df6d0e44cdc9f6f933674c5d2e372c00a38d0c96e190a799ed682554b6b"
        },
        "blocks" : [
            {
                "blockHeader" : {
                    "bloom" : "0x00000000000000000000000000000000000000000000000000000000000000000000000000000000000000000000000000000000000000000000000000000000000000000000000000000000000000000000000000000000000000000000000000000000000000000000000000000000000000000000000000000000000000000000000000000000000000000000000000000000000000000000000000000000000000000000000000000000000000000000000000000000000000000000000000000000000000000000000000000000000000000000000000000000000000000000000000000000000000000000000000000000000000000000000000000000",
                    "coinbase" : "0x2adc25665018aa1fe0e6bc666dac8fc2697ff9ba",
                    "difficulty" : "0x020000",
                    "extraData" : "",
                    "gasLimit" : "0x989680",
                    "gasUsed" : "0x014c4a",
                    "hash" : "0xe6e93409062ff8c1643a2ef05f4fc1ea9da2bf93da8d37628c2c5d5060963519",
                    "mixHash" : "0xcbe968a68290c792ddd1a681c9d0d3ae43ee6dc130881356ed43ebd0c4557f27",
                    "nonce" : "0x44af886976c57a6c",
                    "number" : "0x01",
                    "parentHash" : "0xa6954d67fb0b9a42d72332d54a86a0bc1d7a47bc86db662d140d8cc6fabbe6bb",
                    "receiptTrie" : "0x1d3b13ce31e6cf15ee2e9ed7c6cfbaa9c19d7d8943b4ef8f310949be5b0b668b",
                    "stateRoot" : "0xfb0ad397086492203b13ded5477684c830d2581520718d7a161a634249e62847",
                    "timestamp" : "0x03e8",
                    "transactionsTrie" : "0xd37192728eefe1f2e2362558635fa7ccf7265c44872f2a269cd9c945bcb9ecb5",
                    "uncleHash" : "0x1dcc4de8dec75d7aab85b567b6ccd41ad312451b948a7413f0a142fd40d49347"
                },
                "rlp" : "0xf90263f901f8a0a6954d67fb0b9a42d72332d54a86a0bc1d7a47bc86db662d140d8cc6fabbe6bba01dcc4de8dec75d7aab85b567b6ccd41ad312451b948a7413f0a142fd40d49347942adc25665018aa1fe0e6bc666dac8fc2697ff9baa0fb0ad397086492203b13ded5477684c830d2581520718d7a161a634249e62847a0d37192728eefe1f2e2362558635fa7ccf7265c44872f2a269cd9c945bcb9ecb5a01d3b13ce31e6cf15ee2e9ed7c6cfbaa9c19d7d8943b4ef8f310949be5b0b668bb901000000000000000000000000000000000000000000000000000000000000000000000000000000000000000000000000000000000000000000000000000000000000000000000000000000000000000000000000000000000000000000000000000000000000000000000000000000000000000000000000000000000000000000000000000000000000000000000000000000000000000000000000000000000000000000000000000000000000000000000000000000000000000000000000000000000000000000000000000000000000000000000000000000000000000000000000000000000000000000000000000000000000000000000000000000000083020000018398968083014c4a8203e880a0cbe968a68290c792ddd1a681c9d0d3ae43ee6dc130881356ed43ebd0c4557f278844af886976c57a6cf865f86380018337ba9094095e7baea6a6c7c4c2dfeb977efac326af552d87830186a0801ba03fcfff9e4085fc94af03ad71daa986e585e5b354c2b414a134e0624796a30d8ea072000b0edcceb7d4c1c5b6fed5bd5fcb74789702f3f171f1cd75c617bbb379cdc0",
                "transactions" : [
                    {
                        "data" : "0x",
                        "gasLimit" : "0x37ba90",
                        "gasPrice" : "0x01",
                        "nonce" : "0x00",
                        "r" : "0x3fcfff9e4085fc94af03ad71daa986e585e5b354c2b414a134e0624796a30d8e",
                        "s" : "0x72000b0edcceb7d4c1c5b6fed5bd5fcb74789702f3f171f1cd75c617bbb379cd",
                        "to" : "0x095e7baea6a6c7c4c2dfeb977efac326af552d87",
                        "v" : "0x1b",
                        "value" : "0x0186a0"
                    }
                ],
                "uncleHeaders" : [
                ]
            }
        ],
        "genesisBlockHeader" : {
            "bloom" : "0x00000000000000000000000000000000000000000000000000000000000000000000000000000000000000000000000000000000000000000000000000000000000000000000000000000000000000000000000000000000000000000000000000000000000000000000000000000000000000000000000000000000000000000000000000000000000000000000000000000000000000000000000000000000000000000000000000000000000000000000000000000000000000000000000000000000000000000000000000000000000000000000000000000000000000000000000000000000000000000000000000000000000000000000000000000000",
            "coinbase" : "0x2adc25665018aa1fe0e6bc666dac8fc2697ff9ba",
            "difficulty" : "0x020000",
            "extraData" : "0x42",
            "gasLimit" : "0x989680",
            "gasUsed" : "0x00",
            "hash" : "0xa6954d67fb0b9a42d72332d54a86a0bc1d7a47bc86db662d140d8cc6fabbe6bb",
            "mixHash" : "0x56e81f171bcc55a6ff8345e692c0f86e5b48e01b996cadc001622fb5e363b421",
            "nonce" : "0x0102030405060708",
            "number" : "0x00",
            "parentHash" : "0x0000000000000000000000000000000000000000000000000000000000000000",
            "receiptTrie" : "0x56e81f171bcc55a6ff8345e692c0f86e5b48e01b996cadc001622fb5e363b421",
            "stateRoot" : "0x150ed8b6702a4667a4e69b87e156170432a0c6f80fcc37db22e337be6c6ce597",
            "timestamp" : "0x03b6",
            "transactionsTrie" : "0x56e81f171bcc55a6ff8345e692c0f86e5b48e01b996cadc001622fb5e363b421",
            "uncleHash" : "0x1dcc4de8dec75d7aab85b567b6ccd41ad312451b948a7413f0a142fd40d49347"
        },
        "genesisRLP" : "0xf901faf901f5a00000000000000000000000000000000000000000000000000000000000000000a01dcc4de8dec75d7aab85b567b6ccd41ad312451b948a7413f0a142fd40d49347942adc25665018aa1fe0e6bc666dac8fc2697ff9baa0150ed8b6702a4667a4e69b87e156170432a0c6f80fcc37db22e337be6c6ce597a056e81f171bcc55a6ff8345e692c0f86e5b48e01b996cadc001622fb5e363b421a056e81f171bcc55a6ff8345e692c0f86e5b48e01b996cadc001622fb5e363b421b9010000000000000000000000000000000000000000000000000000000000000000000000000000000000000000000000000000000000000000000000000000000000000000000000000000000000000000000000000000000000000000000000000000000000000000000000000000000000000000000000000000000000000000000000000000000000000000000000000000000000000000000000000000000000000000000000000000000000000000000000000000000000000000000000000000000000000000000000000000000000000000000000000000000000000000000000000000000000000000000000000000000000000000000000000000000000830200008083989680808203b642a056e81f171bcc55a6ff8345e692c0f86e5b48e01b996cadc001622fb5e363b421880102030405060708c0c0",
        "lastblockhash" : "0xe6e93409062ff8c1643a2ef05f4fc1ea9da2bf93da8d37628c2c5d5060963519",
        "network" : "Byzantium",
        "postState" : {
            "0x095e7baea6a6c7c4c2dfeb977efac326af552d87" : {
                "balance" : "0x0132b3a0",
                "code" : "0x7f18c547e4f7b0f325ad1e56f57e26c745b09a3e503d86e00e5255ff7f715d3d1c600052601c6020527f73b1693892219d736caba55bdb67216e485557ea6b6af75f37096c9aa6a5a75f6040527feeb940b1d03b21e36b0e47e79769f095fe2ab855bd91e3a38756b7d75a9c4549606052602060806080600060006001620493e0f260025560a060020a608051066000556000543214600155",
                "nonce" : "0x00",
                "storage" : {
                    "0x00" : "0xa94f5374fce5edbc8e2a8697c15331677e6ebf0b",
                    "0x01" : "0x01",
                    "0x02" : "0x01"
                }
            },
            "0x2adc25665018aa1fe0e6bc666dac8fc2697ff9ba" : {
                "balance" : "0x29a2241af62d4c4a",
                "code" : "",
                "nonce" : "0x00",
                "storage" : {
                }
            },
            "0xa94f5374fce5edbc8e2a8697c15331677e6ebf0b" : {
                "balance" : "0x0de0b6b3a7612d16",
                "code" : "",
                "nonce" : "0x01",
                "storage" : {
                }
            }
        },
        "pre" : {
            "0x095e7baea6a6c7c4c2dfeb977efac326af552d87" : {
                "balance" : "0x01312d00",
                "code" : "0x7f18c547e4f7b0f325ad1e56f57e26c745b09a3e503d86e00e5255ff7f715d3d1c600052601c6020527f73b1693892219d736caba55bdb67216e485557ea6b6af75f37096c9aa6a5a75f6040527feeb940b1d03b21e36b0e47e79769f095fe2ab855bd91e3a38756b7d75a9c4549606052602060806080600060006001620493e0f260025560a060020a608051066000556000543214600155",
                "nonce" : "0x00",
                "storage" : {
                }
            },
            "0xa94f5374fce5edbc8e2a8697c15331677e6ebf0b" : {
                "balance" : "0x0de0b6b3a7640000",
                "code" : "",
                "nonce" : "0x00",
                "storage" : {
                }
            }
        }
    },
    "CALLCODEEcrecoverV_prefixed0_d0g0v0_EIP150" : {
        "_info" : {
            "comment" : "",
            "filledwith" : "cpp-1.3.0+commit.82b0643a.Linux.g++",
            "lllcversion" : "Version: 0.4.20-develop.2018.1.8+commit.2548228b.Linux.g++",
            "source" : "src/BlockchainTestsFiller/GeneralStateTests/stPreCompiledContracts2/CALLCODEEcrecoverV_prefixed0_d0g0v0Filler.json",
            "sourceHash" : "078d7df6d0e44cdc9f6f933674c5d2e372c00a38d0c96e190a799ed682554b6b"
        },
        "blocks" : [
            {
                "blockHeader" : {
                    "bloom" : "0x00000000000000000000000000000000000000000000000000000000000000000000000000000000000000000000000000000000000000000000000000000000000000000000000000000000000000000000000000000000000000000000000000000000000000000000000000000000000000000000000000000000000000000000000000000000000000000000000000000000000000000000000000000000000000000000000000000000000000000000000000000000000000000000000000000000000000000000000000000000000000000000000000000000000000000000000000000000000000000000000000000000000000000000000000000000",
                    "coinbase" : "0x2adc25665018aa1fe0e6bc666dac8fc2697ff9ba",
                    "difficulty" : "0x020000",
                    "extraData" : "",
                    "gasLimit" : "0x989680",
                    "gasUsed" : "0x014c22",
                    "hash" : "0x51fffc6168d92c885413797f5b87b54b4ac201643e39d217869f6f938c5fada6",
                    "mixHash" : "0xfeaaa4d15f32d1519285d694c259f837b8191e1e4db3921d23fc2629dfc5b3ae",
                    "nonce" : "0x8bccda1ba9ee2d3b",
                    "number" : "0x01",
                    "parentHash" : "0xa6954d67fb0b9a42d72332d54a86a0bc1d7a47bc86db662d140d8cc6fabbe6bb",
                    "receiptTrie" : "0xf1102bc83642f117c5252d8ccbda1076003a1224da2f331d5b5be3f6952fda47",
                    "stateRoot" : "0xc93a933cdaa196d4e774eee3f7b657b1c9de0a0c331b86d796fddeafbee2c2e7",
                    "timestamp" : "0x03e8",
                    "transactionsTrie" : "0xd37192728eefe1f2e2362558635fa7ccf7265c44872f2a269cd9c945bcb9ecb5",
                    "uncleHash" : "0x1dcc4de8dec75d7aab85b567b6ccd41ad312451b948a7413f0a142fd40d49347"
                },
                "rlp" : "0xf90263f901f8a0a6954d67fb0b9a42d72332d54a86a0bc1d7a47bc86db662d140d8cc6fabbe6bba01dcc4de8dec75d7aab85b567b6ccd41ad312451b948a7413f0a142fd40d49347942adc25665018aa1fe0e6bc666dac8fc2697ff9baa0c93a933cdaa196d4e774eee3f7b657b1c9de0a0c331b86d796fddeafbee2c2e7a0d37192728eefe1f2e2362558635fa7ccf7265c44872f2a269cd9c945bcb9ecb5a0f1102bc83642f117c5252d8ccbda1076003a1224da2f331d5b5be3f6952fda47b901000000000000000000000000000000000000000000000000000000000000000000000000000000000000000000000000000000000000000000000000000000000000000000000000000000000000000000000000000000000000000000000000000000000000000000000000000000000000000000000000000000000000000000000000000000000000000000000000000000000000000000000000000000000000000000000000000000000000000000000000000000000000000000000000000000000000000000000000000000000000000000000000000000000000000000000000000000000000000000000000000000000000000000000000000000000083020000018398968083014c228203e880a0feaaa4d15f32d1519285d694c259f837b8191e1e4db3921d23fc2629dfc5b3ae888bccda1ba9ee2d3bf865f86380018337ba9094095e7baea6a6c7c4c2dfeb977efac326af552d87830186a0801ba03fcfff9e4085fc94af03ad71daa986e585e5b354c2b414a134e0624796a30d8ea072000b0edcceb7d4c1c5b6fed5bd5fcb74789702f3f171f1cd75c617bbb379cdc0",
                "transactions" : [
                    {
                        "data" : "0x",
                        "gasLimit" : "0x37ba90",
                        "gasPrice" : "0x01",
                        "nonce" : "0x00",
                        "r" : "0x3fcfff9e4085fc94af03ad71daa986e585e5b354c2b414a134e0624796a30d8e",
                        "s" : "0x72000b0edcceb7d4c1c5b6fed5bd5fcb74789702f3f171f1cd75c617bbb379cd",
                        "to" : "0x095e7baea6a6c7c4c2dfeb977efac326af552d87",
                        "v" : "0x1b",
                        "value" : "0x0186a0"
                    }
                ],
                "uncleHeaders" : [
                ]
            }
        ],
        "genesisBlockHeader" : {
            "bloom" : "0x00000000000000000000000000000000000000000000000000000000000000000000000000000000000000000000000000000000000000000000000000000000000000000000000000000000000000000000000000000000000000000000000000000000000000000000000000000000000000000000000000000000000000000000000000000000000000000000000000000000000000000000000000000000000000000000000000000000000000000000000000000000000000000000000000000000000000000000000000000000000000000000000000000000000000000000000000000000000000000000000000000000000000000000000000000000",
            "coinbase" : "0x2adc25665018aa1fe0e6bc666dac8fc2697ff9ba",
            "difficulty" : "0x020000",
            "extraData" : "0x42",
            "gasLimit" : "0x989680",
            "gasUsed" : "0x00",
            "hash" : "0xa6954d67fb0b9a42d72332d54a86a0bc1d7a47bc86db662d140d8cc6fabbe6bb",
            "mixHash" : "0x56e81f171bcc55a6ff8345e692c0f86e5b48e01b996cadc001622fb5e363b421",
            "nonce" : "0x0102030405060708",
            "number" : "0x00",
            "parentHash" : "0x0000000000000000000000000000000000000000000000000000000000000000",
            "receiptTrie" : "0x56e81f171bcc55a6ff8345e692c0f86e5b48e01b996cadc001622fb5e363b421",
            "stateRoot" : "0x150ed8b6702a4667a4e69b87e156170432a0c6f80fcc37db22e337be6c6ce597",
            "timestamp" : "0x03b6",
            "transactionsTrie" : "0x56e81f171bcc55a6ff8345e692c0f86e5b48e01b996cadc001622fb5e363b421",
            "uncleHash" : "0x1dcc4de8dec75d7aab85b567b6ccd41ad312451b948a7413f0a142fd40d49347"
        },
        "genesisRLP" : "0xf901faf901f5a00000000000000000000000000000000000000000000000000000000000000000a01dcc4de8dec75d7aab85b567b6ccd41ad312451b948a7413f0a142fd40d49347942adc25665018aa1fe0e6bc666dac8fc2697ff9baa0150ed8b6702a4667a4e69b87e156170432a0c6f80fcc37db22e337be6c6ce597a056e81f171bcc55a6ff8345e692c0f86e5b48e01b996cadc001622fb5e363b421a056e81f171bcc55a6ff8345e692c0f86e5b48e01b996cadc001622fb5e363b421b9010000000000000000000000000000000000000000000000000000000000000000000000000000000000000000000000000000000000000000000000000000000000000000000000000000000000000000000000000000000000000000000000000000000000000000000000000000000000000000000000000000000000000000000000000000000000000000000000000000000000000000000000000000000000000000000000000000000000000000000000000000000000000000000000000000000000000000000000000000000000000000000000000000000000000000000000000000000000000000000000000000000000000000000000000000000000830200008083989680808203b642a056e81f171bcc55a6ff8345e692c0f86e5b48e01b996cadc001622fb5e363b421880102030405060708c0c0",
        "lastblockhash" : "0x51fffc6168d92c885413797f5b87b54b4ac201643e39d217869f6f938c5fada6",
        "network" : "EIP150",
        "postState" : {
            "0x095e7baea6a6c7c4c2dfeb977efac326af552d87" : {
                "balance" : "0x0132b3a0",
                "code" : "0x7f18c547e4f7b0f325ad1e56f57e26c745b09a3e503d86e00e5255ff7f715d3d1c600052601c6020527f73b1693892219d736caba55bdb67216e485557ea6b6af75f37096c9aa6a5a75f6040527feeb940b1d03b21e36b0e47e79769f095fe2ab855bd91e3a38756b7d75a9c4549606052602060806080600060006001620493e0f260025560a060020a608051066000556000543214600155",
                "nonce" : "0x00",
                "storage" : {
                    "0x00" : "0xa94f5374fce5edbc8e2a8697c15331677e6ebf0b",
                    "0x01" : "0x01",
                    "0x02" : "0x01"
                }
            },
            "0x2adc25665018aa1fe0e6bc666dac8fc2697ff9ba" : {
                "balance" : "0x4563918244f54c22",
                "code" : "",
                "nonce" : "0x00",
                "storage" : {
                }
            },
            "0xa94f5374fce5edbc8e2a8697c15331677e6ebf0b" : {
                "balance" : "0x0de0b6b3a7612d3e",
                "code" : "",
                "nonce" : "0x01",
                "storage" : {
                }
            }
        },
        "pre" : {
            "0x095e7baea6a6c7c4c2dfeb977efac326af552d87" : {
                "balance" : "0x01312d00",
                "code" : "0x7f18c547e4f7b0f325ad1e56f57e26c745b09a3e503d86e00e5255ff7f715d3d1c600052601c6020527f73b1693892219d736caba55bdb67216e485557ea6b6af75f37096c9aa6a5a75f6040527feeb940b1d03b21e36b0e47e79769f095fe2ab855bd91e3a38756b7d75a9c4549606052602060806080600060006001620493e0f260025560a060020a608051066000556000543214600155",
                "nonce" : "0x00",
                "storage" : {
                }
            },
            "0xa94f5374fce5edbc8e2a8697c15331677e6ebf0b" : {
                "balance" : "0x0de0b6b3a7640000",
                "code" : "",
                "nonce" : "0x00",
                "storage" : {
                }
            }
        }
    },
    "CALLCODEEcrecoverV_prefixed0_d0g0v0_EIP158" : {
        "_info" : {
            "comment" : "",
            "filledwith" : "cpp-1.3.0+commit.82b0643a.Linux.g++",
            "lllcversion" : "Version: 0.4.20-develop.2018.1.8+commit.2548228b.Linux.g++",
            "source" : "src/BlockchainTestsFiller/GeneralStateTests/stPreCompiledContracts2/CALLCODEEcrecoverV_prefixed0_d0g0v0Filler.json",
            "sourceHash" : "078d7df6d0e44cdc9f6f933674c5d2e372c00a38d0c96e190a799ed682554b6b"
        },
        "blocks" : [
            {
                "blockHeader" : {
                    "bloom" : "0x00000000000000000000000000000000000000000000000000000000000000000000000000000000000000000000000000000000000000000000000000000000000000000000000000000000000000000000000000000000000000000000000000000000000000000000000000000000000000000000000000000000000000000000000000000000000000000000000000000000000000000000000000000000000000000000000000000000000000000000000000000000000000000000000000000000000000000000000000000000000000000000000000000000000000000000000000000000000000000000000000000000000000000000000000000000",
                    "coinbase" : "0x2adc25665018aa1fe0e6bc666dac8fc2697ff9ba",
                    "difficulty" : "0x020000",
                    "extraData" : "",
                    "gasLimit" : "0x989680",
                    "gasUsed" : "0x014c4a",
                    "hash" : "0x113445e596427e885eb081782ebea00c9fc09ff68efb23211264f1c69813d49a",
                    "mixHash" : "0xb4216a62e2b20516a40222251ea448bb32dd8b1750de7615943f8b6f29326e05",
                    "nonce" : "0x1377e2973e3bbb1c",
                    "number" : "0x01",
                    "parentHash" : "0xa6954d67fb0b9a42d72332d54a86a0bc1d7a47bc86db662d140d8cc6fabbe6bb",
                    "receiptTrie" : "0x3e6916e27e0dc93d0eba8c3d0009c5b94ad366e95784dd02331a02ea94d98d4a",
                    "stateRoot" : "0x3c68daaee43999e56eaa1ba8bfa60f90f774ef62c586b37b398ec15ffd1344d1",
                    "timestamp" : "0x03e8",
                    "transactionsTrie" : "0xd37192728eefe1f2e2362558635fa7ccf7265c44872f2a269cd9c945bcb9ecb5",
                    "uncleHash" : "0x1dcc4de8dec75d7aab85b567b6ccd41ad312451b948a7413f0a142fd40d49347"
                },
                "rlp" : "0xf90263f901f8a0a6954d67fb0b9a42d72332d54a86a0bc1d7a47bc86db662d140d8cc6fabbe6bba01dcc4de8dec75d7aab85b567b6ccd41ad312451b948a7413f0a142fd40d49347942adc25665018aa1fe0e6bc666dac8fc2697ff9baa03c68daaee43999e56eaa1ba8bfa60f90f774ef62c586b37b398ec15ffd1344d1a0d37192728eefe1f2e2362558635fa7ccf7265c44872f2a269cd9c945bcb9ecb5a03e6916e27e0dc93d0eba8c3d0009c5b94ad366e95784dd02331a02ea94d98d4ab901000000000000000000000000000000000000000000000000000000000000000000000000000000000000000000000000000000000000000000000000000000000000000000000000000000000000000000000000000000000000000000000000000000000000000000000000000000000000000000000000000000000000000000000000000000000000000000000000000000000000000000000000000000000000000000000000000000000000000000000000000000000000000000000000000000000000000000000000000000000000000000000000000000000000000000000000000000000000000000000000000000000000000000000000000000000083020000018398968083014c4a8203e880a0b4216a62e2b20516a40222251ea448bb32dd8b1750de7615943f8b6f29326e05881377e2973e3bbb1cf865f86380018337ba9094095e7baea6a6c7c4c2dfeb977efac326af552d87830186a0801ba03fcfff9e4085fc94af03ad71daa986e585e5b354c2b414a134e0624796a30d8ea072000b0edcceb7d4c1c5b6fed5bd5fcb74789702f3f171f1cd75c617bbb379cdc0",
                "transactions" : [
                    {
                        "data" : "0x",
                        "gasLimit" : "0x37ba90",
                        "gasPrice" : "0x01",
                        "nonce" : "0x00",
                        "r" : "0x3fcfff9e4085fc94af03ad71daa986e585e5b354c2b414a134e0624796a30d8e",
                        "s" : "0x72000b0edcceb7d4c1c5b6fed5bd5fcb74789702f3f171f1cd75c617bbb379cd",
                        "to" : "0x095e7baea6a6c7c4c2dfeb977efac326af552d87",
                        "v" : "0x1b",
                        "value" : "0x0186a0"
                    }
                ],
                "uncleHeaders" : [
                ]
            }
        ],
        "genesisBlockHeader" : {
            "bloom" : "0x00000000000000000000000000000000000000000000000000000000000000000000000000000000000000000000000000000000000000000000000000000000000000000000000000000000000000000000000000000000000000000000000000000000000000000000000000000000000000000000000000000000000000000000000000000000000000000000000000000000000000000000000000000000000000000000000000000000000000000000000000000000000000000000000000000000000000000000000000000000000000000000000000000000000000000000000000000000000000000000000000000000000000000000000000000000",
            "coinbase" : "0x2adc25665018aa1fe0e6bc666dac8fc2697ff9ba",
            "difficulty" : "0x020000",
            "extraData" : "0x42",
            "gasLimit" : "0x989680",
            "gasUsed" : "0x00",
            "hash" : "0xa6954d67fb0b9a42d72332d54a86a0bc1d7a47bc86db662d140d8cc6fabbe6bb",
            "mixHash" : "0x56e81f171bcc55a6ff8345e692c0f86e5b48e01b996cadc001622fb5e363b421",
            "nonce" : "0x0102030405060708",
            "number" : "0x00",
            "parentHash" : "0x0000000000000000000000000000000000000000000000000000000000000000",
            "receiptTrie" : "0x56e81f171bcc55a6ff8345e692c0f86e5b48e01b996cadc001622fb5e363b421",
            "stateRoot" : "0x150ed8b6702a4667a4e69b87e156170432a0c6f80fcc37db22e337be6c6ce597",
            "timestamp" : "0x03b6",
            "transactionsTrie" : "0x56e81f171bcc55a6ff8345e692c0f86e5b48e01b996cadc001622fb5e363b421",
            "uncleHash" : "0x1dcc4de8dec75d7aab85b567b6ccd41ad312451b948a7413f0a142fd40d49347"
        },
        "genesisRLP" : "0xf901faf901f5a00000000000000000000000000000000000000000000000000000000000000000a01dcc4de8dec75d7aab85b567b6ccd41ad312451b948a7413f0a142fd40d49347942adc25665018aa1fe0e6bc666dac8fc2697ff9baa0150ed8b6702a4667a4e69b87e156170432a0c6f80fcc37db22e337be6c6ce597a056e81f171bcc55a6ff8345e692c0f86e5b48e01b996cadc001622fb5e363b421a056e81f171bcc55a6ff8345e692c0f86e5b48e01b996cadc001622fb5e363b421b9010000000000000000000000000000000000000000000000000000000000000000000000000000000000000000000000000000000000000000000000000000000000000000000000000000000000000000000000000000000000000000000000000000000000000000000000000000000000000000000000000000000000000000000000000000000000000000000000000000000000000000000000000000000000000000000000000000000000000000000000000000000000000000000000000000000000000000000000000000000000000000000000000000000000000000000000000000000000000000000000000000000000000000000000000000000000830200008083989680808203b642a056e81f171bcc55a6ff8345e692c0f86e5b48e01b996cadc001622fb5e363b421880102030405060708c0c0",
        "lastblockhash" : "0x113445e596427e885eb081782ebea00c9fc09ff68efb23211264f1c69813d49a",
        "network" : "EIP158",
        "postState" : {
            "0x095e7baea6a6c7c4c2dfeb977efac326af552d87" : {
                "balance" : "0x0132b3a0",
                "code" : "0x7f18c547e4f7b0f325ad1e56f57e26c745b09a3e503d86e00e5255ff7f715d3d1c600052601c6020527f73b1693892219d736caba55bdb67216e485557ea6b6af75f37096c9aa6a5a75f6040527feeb940b1d03b21e36b0e47e79769f095fe2ab855bd91e3a38756b7d75a9c4549606052602060806080600060006001620493e0f260025560a060020a608051066000556000543214600155",
                "nonce" : "0x00",
                "storage" : {
                    "0x00" : "0xa94f5374fce5edbc8e2a8697c15331677e6ebf0b",
                    "0x01" : "0x01",
                    "0x02" : "0x01"
                }
            },
            "0x2adc25665018aa1fe0e6bc666dac8fc2697ff9ba" : {
                "balance" : "0x4563918244f54c4a",
                "code" : "",
                "nonce" : "0x00",
                "storage" : {
                }
            },
            "0xa94f5374fce5edbc8e2a8697c15331677e6ebf0b" : {
                "balance" : "0x0de0b6b3a7612d16",
                "code" : "",
                "nonce" : "0x01",
                "storage" : {
                }
            }
        },
        "pre" : {
            "0x095e7baea6a6c7c4c2dfeb977efac326af552d87" : {
                "balance" : "0x01312d00",
                "code" : "0x7f18c547e4f7b0f325ad1e56f57e26c745b09a3e503d86e00e5255ff7f715d3d1c600052601c6020527f73b1693892219d736caba55bdb67216e485557ea6b6af75f37096c9aa6a5a75f6040527feeb940b1d03b21e36b0e47e79769f095fe2ab855bd91e3a38756b7d75a9c4549606052602060806080600060006001620493e0f260025560a060020a608051066000556000543214600155",
                "nonce" : "0x00",
                "storage" : {
                }
            },
            "0xa94f5374fce5edbc8e2a8697c15331677e6ebf0b" : {
                "balance" : "0x0de0b6b3a7640000",
                "code" : "",
                "nonce" : "0x00",
                "storage" : {
                }
            }
        }
    },
    "CALLCODEEcrecoverV_prefixed0_d0g0v0_Frontier" : {
        "_info" : {
            "comment" : "",
            "filledwith" : "cpp-1.3.0+commit.82b0643a.Linux.g++",
            "lllcversion" : "Version: 0.4.20-develop.2018.1.8+commit.2548228b.Linux.g++",
            "source" : "src/BlockchainTestsFiller/GeneralStateTests/stPreCompiledContracts2/CALLCODEEcrecoverV_prefixed0_d0g0v0Filler.json",
            "sourceHash" : "078d7df6d0e44cdc9f6f933674c5d2e372c00a38d0c96e190a799ed682554b6b"
        },
        "blocks" : [
            {
                "blockHeader" : {
                    "bloom" : "0x00000000000000000000000000000000000000000000000000000000000000000000000000000000000000000000000000000000000000000000000000000000000000000000000000000000000000000000000000000000000000000000000000000000000000000000000000000000000000000000000000000000000000000000000000000000000000000000000000000000000000000000000000000000000000000000000000000000000000000000000000000000000000000000000000000000000000000000000000000000000000000000000000000000000000000000000000000000000000000000000000000000000000000000000000000000",
                    "coinbase" : "0x2adc25665018aa1fe0e6bc666dac8fc2697ff9ba",
                    "difficulty" : "0x020000",
                    "extraData" : "",
                    "gasLimit" : "0x989680",
                    "gasUsed" : "0x0148f8",
                    "hash" : "0x7e834faec8a6b35d285644bccc040c600efa1ea0397a58f9df67815aa26c2dc0",
                    "mixHash" : "0xef74f2eb565055947973dbc858a757244ceeade844486adc34709ee232417b82",
                    "nonce" : "0x18d848fe13338e4e",
                    "number" : "0x01",
                    "parentHash" : "0xa6954d67fb0b9a42d72332d54a86a0bc1d7a47bc86db662d140d8cc6fabbe6bb",
                    "receiptTrie" : "0xec2bbdf2dcd33e0b46becb82a5db15cb2734060521cf4887ae253eb62a6a1828",
                    "stateRoot" : "0xa86a4c89021ab4ef17127a4e2ac281072d17eb27fa09085cd3df291c415b36b3",
                    "timestamp" : "0x03e8",
                    "transactionsTrie" : "0xd37192728eefe1f2e2362558635fa7ccf7265c44872f2a269cd9c945bcb9ecb5",
                    "uncleHash" : "0x1dcc4de8dec75d7aab85b567b6ccd41ad312451b948a7413f0a142fd40d49347"
                },
                "rlp" : "0xf90263f901f8a0a6954d67fb0b9a42d72332d54a86a0bc1d7a47bc86db662d140d8cc6fabbe6bba01dcc4de8dec75d7aab85b567b6ccd41ad312451b948a7413f0a142fd40d49347942adc25665018aa1fe0e6bc666dac8fc2697ff9baa0a86a4c89021ab4ef17127a4e2ac281072d17eb27fa09085cd3df291c415b36b3a0d37192728eefe1f2e2362558635fa7ccf7265c44872f2a269cd9c945bcb9ecb5a0ec2bbdf2dcd33e0b46becb82a5db15cb2734060521cf4887ae253eb62a6a1828b9010000000000000000000000000000000000000000000000000000000000000000000000000000000000000000000000000000000000000000000000000000000000000000000000000000000000000000000000000000000000000000000000000000000000000000000000000000000000000000000000000000000000000000000000000000000000000000000000000000000000000000000000000000000000000000000000000000000000000000000000000000000000000000000000000000000000000000000000000000000000000000000000000000000000000000000000000000000000000000000000000000000000000000000000000000000000830200000183989680830148f88203e880a0ef74f2eb565055947973dbc858a757244ceeade844486adc34709ee232417b828818d848fe13338e4ef865f86380018337ba9094095e7baea6a6c7c4c2dfeb977efac326af552d87830186a0801ba03fcfff9e4085fc94af03ad71daa986e585e5b354c2b414a134e0624796a30d8ea072000b0edcceb7d4c1c5b6fed5bd5fcb74789702f3f171f1cd75c617bbb379cdc0",
                "transactions" : [
                    {
                        "data" : "0x",
                        "gasLimit" : "0x37ba90",
                        "gasPrice" : "0x01",
                        "nonce" : "0x00",
                        "r" : "0x3fcfff9e4085fc94af03ad71daa986e585e5b354c2b414a134e0624796a30d8e",
                        "s" : "0x72000b0edcceb7d4c1c5b6fed5bd5fcb74789702f3f171f1cd75c617bbb379cd",
                        "to" : "0x095e7baea6a6c7c4c2dfeb977efac326af552d87",
                        "v" : "0x1b",
                        "value" : "0x0186a0"
                    }
                ],
                "uncleHeaders" : [
                ]
            }
        ],
        "genesisBlockHeader" : {
            "bloom" : "0x00000000000000000000000000000000000000000000000000000000000000000000000000000000000000000000000000000000000000000000000000000000000000000000000000000000000000000000000000000000000000000000000000000000000000000000000000000000000000000000000000000000000000000000000000000000000000000000000000000000000000000000000000000000000000000000000000000000000000000000000000000000000000000000000000000000000000000000000000000000000000000000000000000000000000000000000000000000000000000000000000000000000000000000000000000000",
            "coinbase" : "0x2adc25665018aa1fe0e6bc666dac8fc2697ff9ba",
            "difficulty" : "0x020000",
            "extraData" : "0x42",
            "gasLimit" : "0x989680",
            "gasUsed" : "0x00",
            "hash" : "0xa6954d67fb0b9a42d72332d54a86a0bc1d7a47bc86db662d140d8cc6fabbe6bb",
            "mixHash" : "0x56e81f171bcc55a6ff8345e692c0f86e5b48e01b996cadc001622fb5e363b421",
            "nonce" : "0x0102030405060708",
            "number" : "0x00",
            "parentHash" : "0x0000000000000000000000000000000000000000000000000000000000000000",
            "receiptTrie" : "0x56e81f171bcc55a6ff8345e692c0f86e5b48e01b996cadc001622fb5e363b421",
            "stateRoot" : "0x150ed8b6702a4667a4e69b87e156170432a0c6f80fcc37db22e337be6c6ce597",
            "timestamp" : "0x03b6",
            "transactionsTrie" : "0x56e81f171bcc55a6ff8345e692c0f86e5b48e01b996cadc001622fb5e363b421",
            "uncleHash" : "0x1dcc4de8dec75d7aab85b567b6ccd41ad312451b948a7413f0a142fd40d49347"
        },
        "genesisRLP" : "0xf901faf901f5a00000000000000000000000000000000000000000000000000000000000000000a01dcc4de8dec75d7aab85b567b6ccd41ad312451b948a7413f0a142fd40d49347942adc25665018aa1fe0e6bc666dac8fc2697ff9baa0150ed8b6702a4667a4e69b87e156170432a0c6f80fcc37db22e337be6c6ce597a056e81f171bcc55a6ff8345e692c0f86e5b48e01b996cadc001622fb5e363b421a056e81f171bcc55a6ff8345e692c0f86e5b48e01b996cadc001622fb5e363b421b9010000000000000000000000000000000000000000000000000000000000000000000000000000000000000000000000000000000000000000000000000000000000000000000000000000000000000000000000000000000000000000000000000000000000000000000000000000000000000000000000000000000000000000000000000000000000000000000000000000000000000000000000000000000000000000000000000000000000000000000000000000000000000000000000000000000000000000000000000000000000000000000000000000000000000000000000000000000000000000000000000000000000000000000000000000000000830200008083989680808203b642a056e81f171bcc55a6ff8345e692c0f86e5b48e01b996cadc001622fb5e363b421880102030405060708c0c0",
        "lastblockhash" : "0x7e834faec8a6b35d285644bccc040c600efa1ea0397a58f9df67815aa26c2dc0",
        "network" : "Frontier",
        "postState" : {
            "0x095e7baea6a6c7c4c2dfeb977efac326af552d87" : {
                "balance" : "0x0132b3a0",
                "code" : "0x7f18c547e4f7b0f325ad1e56f57e26c745b09a3e503d86e00e5255ff7f715d3d1c600052601c6020527f73b1693892219d736caba55bdb67216e485557ea6b6af75f37096c9aa6a5a75f6040527feeb940b1d03b21e36b0e47e79769f095fe2ab855bd91e3a38756b7d75a9c4549606052602060806080600060006001620493e0f260025560a060020a608051066000556000543214600155",
                "nonce" : "0x00",
                "storage" : {
                    "0x00" : "0xa94f5374fce5edbc8e2a8697c15331677e6ebf0b",
                    "0x01" : "0x01",
                    "0x02" : "0x01"
                }
            },
            "0x2adc25665018aa1fe0e6bc666dac8fc2697ff9ba" : {
                "balance" : "0x4563918244f548f8",
                "code" : "",
                "nonce" : "0x00",
                "storage" : {
                }
            },
            "0xa94f5374fce5edbc8e2a8697c15331677e6ebf0b" : {
                "balance" : "0x0de0b6b3a7613068",
                "code" : "",
                "nonce" : "0x01",
                "storage" : {
                }
            }
        },
        "pre" : {
            "0x095e7baea6a6c7c4c2dfeb977efac326af552d87" : {
                "balance" : "0x01312d00",
                "code" : "0x7f18c547e4f7b0f325ad1e56f57e26c745b09a3e503d86e00e5255ff7f715d3d1c600052601c6020527f73b1693892219d736caba55bdb67216e485557ea6b6af75f37096c9aa6a5a75f6040527feeb940b1d03b21e36b0e47e79769f095fe2ab855bd91e3a38756b7d75a9c4549606052602060806080600060006001620493e0f260025560a060020a608051066000556000543214600155",
                "nonce" : "0x00",
                "storage" : {
                }
            },
            "0xa94f5374fce5edbc8e2a8697c15331677e6ebf0b" : {
                "balance" : "0x0de0b6b3a7640000",
                "code" : "",
                "nonce" : "0x00",
                "storage" : {
                }
            }
        }
    },
    "CALLCODEEcrecoverV_prefixed0_d0g0v0_Homestead" : {
        "_info" : {
            "comment" : "",
            "filledwith" : "cpp-1.3.0+commit.82b0643a.Linux.g++",
            "lllcversion" : "Version: 0.4.20-develop.2018.1.8+commit.2548228b.Linux.g++",
            "source" : "src/BlockchainTestsFiller/GeneralStateTests/stPreCompiledContracts2/CALLCODEEcrecoverV_prefixed0_d0g0v0Filler.json",
            "sourceHash" : "078d7df6d0e44cdc9f6f933674c5d2e372c00a38d0c96e190a799ed682554b6b"
        },
        "blocks" : [
            {
                "blockHeader" : {
                    "bloom" : "0x00000000000000000000000000000000000000000000000000000000000000000000000000000000000000000000000000000000000000000000000000000000000000000000000000000000000000000000000000000000000000000000000000000000000000000000000000000000000000000000000000000000000000000000000000000000000000000000000000000000000000000000000000000000000000000000000000000000000000000000000000000000000000000000000000000000000000000000000000000000000000000000000000000000000000000000000000000000000000000000000000000000000000000000000000000000",
                    "coinbase" : "0x2adc25665018aa1fe0e6bc666dac8fc2697ff9ba",
                    "difficulty" : "0x020000",
                    "extraData" : "",
                    "gasLimit" : "0x989680",
                    "gasUsed" : "0x0148f8",
                    "hash" : "0xf27308c6cc99df42fef18612746ab15a550c8e87a88ceae66b44790e9c288820",
                    "mixHash" : "0xe4939b3946d0fbee0922f3239bd5c4242d47d9762745ed474c4ec5e715dc2e9f",
                    "nonce" : "0x11725b543c5bc07f",
                    "number" : "0x01",
                    "parentHash" : "0xa6954d67fb0b9a42d72332d54a86a0bc1d7a47bc86db662d140d8cc6fabbe6bb",
                    "receiptTrie" : "0xec2bbdf2dcd33e0b46becb82a5db15cb2734060521cf4887ae253eb62a6a1828",
                    "stateRoot" : "0xa86a4c89021ab4ef17127a4e2ac281072d17eb27fa09085cd3df291c415b36b3",
                    "timestamp" : "0x03e8",
                    "transactionsTrie" : "0xd37192728eefe1f2e2362558635fa7ccf7265c44872f2a269cd9c945bcb9ecb5",
                    "uncleHash" : "0x1dcc4de8dec75d7aab85b567b6ccd41ad312451b948a7413f0a142fd40d49347"
                },
                "rlp" : "0xf90263f901f8a0a6954d67fb0b9a42d72332d54a86a0bc1d7a47bc86db662d140d8cc6fabbe6bba01dcc4de8dec75d7aab85b567b6ccd41ad312451b948a7413f0a142fd40d49347942adc25665018aa1fe0e6bc666dac8fc2697ff9baa0a86a4c89021ab4ef17127a4e2ac281072d17eb27fa09085cd3df291c415b36b3a0d37192728eefe1f2e2362558635fa7ccf7265c44872f2a269cd9c945bcb9ecb5a0ec2bbdf2dcd33e0b46becb82a5db15cb2734060521cf4887ae253eb62a6a1828b9010000000000000000000000000000000000000000000000000000000000000000000000000000000000000000000000000000000000000000000000000000000000000000000000000000000000000000000000000000000000000000000000000000000000000000000000000000000000000000000000000000000000000000000000000000000000000000000000000000000000000000000000000000000000000000000000000000000000000000000000000000000000000000000000000000000000000000000000000000000000000000000000000000000000000000000000000000000000000000000000000000000000000000000000000000000000830200000183989680830148f88203e880a0e4939b3946d0fbee0922f3239bd5c4242d47d9762745ed474c4ec5e715dc2e9f8811725b543c5bc07ff865f86380018337ba9094095e7baea6a6c7c4c2dfeb977efac326af552d87830186a0801ba03fcfff9e4085fc94af03ad71daa986e585e5b354c2b414a134e0624796a30d8ea072000b0edcceb7d4c1c5b6fed5bd5fcb74789702f3f171f1cd75c617bbb379cdc0",
                "transactions" : [
                    {
                        "data" : "0x",
                        "gasLimit" : "0x37ba90",
                        "gasPrice" : "0x01",
                        "nonce" : "0x00",
                        "r" : "0x3fcfff9e4085fc94af03ad71daa986e585e5b354c2b414a134e0624796a30d8e",
                        "s" : "0x72000b0edcceb7d4c1c5b6fed5bd5fcb74789702f3f171f1cd75c617bbb379cd",
                        "to" : "0x095e7baea6a6c7c4c2dfeb977efac326af552d87",
                        "v" : "0x1b",
                        "value" : "0x0186a0"
                    }
                ],
                "uncleHeaders" : [
                ]
            }
        ],
        "genesisBlockHeader" : {
            "bloom" : "0x00000000000000000000000000000000000000000000000000000000000000000000000000000000000000000000000000000000000000000000000000000000000000000000000000000000000000000000000000000000000000000000000000000000000000000000000000000000000000000000000000000000000000000000000000000000000000000000000000000000000000000000000000000000000000000000000000000000000000000000000000000000000000000000000000000000000000000000000000000000000000000000000000000000000000000000000000000000000000000000000000000000000000000000000000000000",
            "coinbase" : "0x2adc25665018aa1fe0e6bc666dac8fc2697ff9ba",
            "difficulty" : "0x020000",
            "extraData" : "0x42",
            "gasLimit" : "0x989680",
            "gasUsed" : "0x00",
            "hash" : "0xa6954d67fb0b9a42d72332d54a86a0bc1d7a47bc86db662d140d8cc6fabbe6bb",
            "mixHash" : "0x56e81f171bcc55a6ff8345e692c0f86e5b48e01b996cadc001622fb5e363b421",
            "nonce" : "0x0102030405060708",
            "number" : "0x00",
            "parentHash" : "0x0000000000000000000000000000000000000000000000000000000000000000",
            "receiptTrie" : "0x56e81f171bcc55a6ff8345e692c0f86e5b48e01b996cadc001622fb5e363b421",
            "stateRoot" : "0x150ed8b6702a4667a4e69b87e156170432a0c6f80fcc37db22e337be6c6ce597",
            "timestamp" : "0x03b6",
            "transactionsTrie" : "0x56e81f171bcc55a6ff8345e692c0f86e5b48e01b996cadc001622fb5e363b421",
            "uncleHash" : "0x1dcc4de8dec75d7aab85b567b6ccd41ad312451b948a7413f0a142fd40d49347"
        },
        "genesisRLP" : "0xf901faf901f5a00000000000000000000000000000000000000000000000000000000000000000a01dcc4de8dec75d7aab85b567b6ccd41ad312451b948a7413f0a142fd40d49347942adc25665018aa1fe0e6bc666dac8fc2697ff9baa0150ed8b6702a4667a4e69b87e156170432a0c6f80fcc37db22e337be6c6ce597a056e81f171bcc55a6ff8345e692c0f86e5b48e01b996cadc001622fb5e363b421a056e81f171bcc55a6ff8345e692c0f86e5b48e01b996cadc001622fb5e363b421b9010000000000000000000000000000000000000000000000000000000000000000000000000000000000000000000000000000000000000000000000000000000000000000000000000000000000000000000000000000000000000000000000000000000000000000000000000000000000000000000000000000000000000000000000000000000000000000000000000000000000000000000000000000000000000000000000000000000000000000000000000000000000000000000000000000000000000000000000000000000000000000000000000000000000000000000000000000000000000000000000000000000000000000000000000000000000830200008083989680808203b642a056e81f171bcc55a6ff8345e692c0f86e5b48e01b996cadc001622fb5e363b421880102030405060708c0c0",
        "lastblockhash" : "0xf27308c6cc99df42fef18612746ab15a550c8e87a88ceae66b44790e9c288820",
        "network" : "Homestead",
        "postState" : {
            "0x095e7baea6a6c7c4c2dfeb977efac326af552d87" : {
                "balance" : "0x0132b3a0",
                "code" : "0x7f18c547e4f7b0f325ad1e56f57e26c745b09a3e503d86e00e5255ff7f715d3d1c600052601c6020527f73b1693892219d736caba55bdb67216e485557ea6b6af75f37096c9aa6a5a75f6040527feeb940b1d03b21e36b0e47e79769f095fe2ab855bd91e3a38756b7d75a9c4549606052602060806080600060006001620493e0f260025560a060020a608051066000556000543214600155",
                "nonce" : "0x00",
                "storage" : {
                    "0x00" : "0xa94f5374fce5edbc8e2a8697c15331677e6ebf0b",
                    "0x01" : "0x01",
                    "0x02" : "0x01"
                }
            },
            "0x2adc25665018aa1fe0e6bc666dac8fc2697ff9ba" : {
                "balance" : "0x4563918244f548f8",
                "code" : "",
                "nonce" : "0x00",
                "storage" : {
                }
            },
            "0xa94f5374fce5edbc8e2a8697c15331677e6ebf0b" : {
                "balance" : "0x0de0b6b3a7613068",
                "code" : "",
                "nonce" : "0x01",
                "storage" : {
                }
            }
        },
        "pre" : {
            "0x095e7baea6a6c7c4c2dfeb977efac326af552d87" : {
                "balance" : "0x01312d00",
                "code" : "0x7f18c547e4f7b0f325ad1e56f57e26c745b09a3e503d86e00e5255ff7f715d3d1c600052601c6020527f73b1693892219d736caba55bdb67216e485557ea6b6af75f37096c9aa6a5a75f6040527feeb940b1d03b21e36b0e47e79769f095fe2ab855bd91e3a38756b7d75a9c4549606052602060806080600060006001620493e0f260025560a060020a608051066000556000543214600155",
                "nonce" : "0x00",
                "storage" : {
                }
            },
            "0xa94f5374fce5edbc8e2a8697c15331677e6ebf0b" : {
                "balance" : "0x0de0b6b3a7640000",
                "code" : "",
                "nonce" : "0x00",
                "storage" : {
                }
            }
        }
    }
}