{
    "modexpRandomInput_d0g0v0_Byzantium" : {
        "_info" : {
            "comment" : "",
            "filledwith" : "cpp-1.3.0+commit.72502df4.Linux.g++",
            "lllcversion" : "Version: 0.4.18-develop.2017.10.11+commit.81f9f86c.Linux.g++",
            "source" : "src/BlockchainTestsFiller/GeneralStateTests/stPreCompiledContracts2/modexpRandomInput_d0g0v0Filler.json",
            "sourceHash" : "ac2e43742289fda3ad7e096f73aab101c12d211d800e2ba41d25b5357d00c721"
        },
        "blocks" : [
            {
                "blockHeader" : {
                    "bloom" : "0x00000000000000000000000000000000000000000000000000000000000000000000000000000000000000000000000000000000000000000000000000000000000000000000000000000000000000000000000000000000000000000000000000000000000000000000000000000000000000000000000000000000000000000000000000000000000000000000000000000000000000000000000000000000000000000000000000000000000000000000000000000000000000000000000000000000000000000000000000000000000000000000000000000000000000000000000000000000000000000000000000000000000000000000000000000000",
                    "coinbase" : "0x3535353535353535353535353535353535353535",
                    "difficulty" : "0x020000",
                    "extraData" : "",
                    "gasLimit" : "0x05f5e100",
                    "gasUsed" : "0x5958",
                    "hash" : "0x35bdce7be7be72d9eb20acd09620178523f75e5e4209e6b993f8af0d10c7ac40",
                    "mixHash" : "0x10a9226f875f4e6e66bd68445cc6f1a4e226e418cb79665ead385967fbc49aa7",
                    "nonce" : "0xdbefa804bb686a96",
                    "number" : "0x01",
                    "parentHash" : "0x4b56dd4fada98cf6fd1120843082bf1765b4d9e183bb9f233d01033f2baf851c",
                    "receiptTrie" : "0xf1098edc18bb71db4ebed7b64e8376f33d37ea4bca940e6803ba4a2adb15f20e",
                    "stateRoot" : "0x51cefcefcfea4dd46f8aa0bbb556a6a7fc6709273a6f773bdc3e63bd8b8fbb1d",
                    "timestamp" : "0x03e8",
                    "transactionsTrie" : "0xda8c5f62923dbb423ab78b97901a374b23a27dd287763e5e254f3cf7937f97d4",
                    "uncleHash" : "0x1dcc4de8dec75d7aab85b567b6ccd41ad312451b948a7413f0a142fd40d49347"
                },
                "rlp" : "0xf9029af901f8a04b56dd4fada98cf6fd1120843082bf1765b4d9e183bb9f233d01033f2baf851ca01dcc4de8dec75d7aab85b567b6ccd41ad312451b948a7413f0a142fd40d49347943535353535353535353535353535353535353535a051cefcefcfea4dd46f8aa0bbb556a6a7fc6709273a6f773bdc3e63bd8b8fbb1da0da8c5f62923dbb423ab78b97901a374b23a27dd287763e5e254f3cf7937f97d4a0f1098edc18bb71db4ebed7b64e8376f33d37ea4bca940e6803ba4a2adb15f20eb901000000000000000000000000000000000000000000000000000000000000000000000000000000000000000000000000000000000000000000000000000000000000000000000000000000000000000000000000000000000000000000000000000000000000000000000000000000000000000000000000000000000000000000000000000000000000000000000000000000000000000000000000000000000000000000000000000000000000000000000000000000000000000000000000000000000000000000000000000000000000000000000000000000000000000000000000000000000000000000000000000000000000000000000000000000000083020000018405f5e1008259588203e880a010a9226f875f4e6e66bd68445cc6f1a4e226e418cb79665ead385967fbc49aa788dbefa804bb686a96f89cf89a80018301adb094000000000000000000000000000000000000000580b83900000000000000000000000000000000000000000000000000000000000000e3000000000000000000000000000000000000000000000000001ba0f9207991cd3c80532e96a7d42ec3c587119e0b7d1a2efa9520e1a0a7679d24fea06878ac7c44e52d45931dba9f46af422795290550f3ce2b3c3699fc38bf5d01e3c0",
                "transactions" : [
                    {
                        "data" : "0x00000000000000000000000000000000000000000000000000000000000000e300000000000000000000000000000000000000000000000000",
                        "gasLimit" : "0x01adb0",
                        "gasPrice" : "0x01",
                        "nonce" : "0x00",
                        "r" : "0xf9207991cd3c80532e96a7d42ec3c587119e0b7d1a2efa9520e1a0a7679d24fe",
                        "s" : "0x6878ac7c44e52d45931dba9f46af422795290550f3ce2b3c3699fc38bf5d01e3",
                        "to" : "0x0000000000000000000000000000000000000005",
                        "v" : "0x1b",
                        "value" : "0x00"
                    }
                ],
                "uncleHeaders" : [
                ]
            }
        ],
        "genesisBlockHeader" : {
            "bloom" : "0x00000000000000000000000000000000000000000000000000000000000000000000000000000000000000000000000000000000000000000000000000000000000000000000000000000000000000000000000000000000000000000000000000000000000000000000000000000000000000000000000000000000000000000000000000000000000000000000000000000000000000000000000000000000000000000000000000000000000000000000000000000000000000000000000000000000000000000000000000000000000000000000000000000000000000000000000000000000000000000000000000000000000000000000000000000000",
            "coinbase" : "0x3535353535353535353535353535353535353535",
            "difficulty" : "0x020000",
            "extraData" : "0x42",
            "gasLimit" : "0x05f5e100",
            "gasUsed" : "0x00",
            "hash" : "0x4b56dd4fada98cf6fd1120843082bf1765b4d9e183bb9f233d01033f2baf851c",
            "mixHash" : "0x56e81f171bcc55a6ff8345e692c0f86e5b48e01b996cadc001622fb5e363b421",
            "nonce" : "0x0102030405060708",
            "number" : "0x00",
            "parentHash" : "0x0000000000000000000000000000000000000000000000000000000000000000",
            "receiptTrie" : "0x56e81f171bcc55a6ff8345e692c0f86e5b48e01b996cadc001622fb5e363b421",
            "stateRoot" : "0x70c42824108fafccadbfce71e6e22660c4fad89be18be324cd15ef351969a8c8",
            "timestamp" : "0x03b6",
            "transactionsTrie" : "0x56e81f171bcc55a6ff8345e692c0f86e5b48e01b996cadc001622fb5e363b421",
            "uncleHash" : "0x1dcc4de8dec75d7aab85b567b6ccd41ad312451b948a7413f0a142fd40d49347"
        },
        "genesisRLP" : "0xf901fbf901f6a00000000000000000000000000000000000000000000000000000000000000000a01dcc4de8dec75d7aab85b567b6ccd41ad312451b948a7413f0a142fd40d49347943535353535353535353535353535353535353535a070c42824108fafccadbfce71e6e22660c4fad89be18be324cd15ef351969a8c8a056e81f171bcc55a6ff8345e692c0f86e5b48e01b996cadc001622fb5e363b421a056e81f171bcc55a6ff8345e692c0f86e5b48e01b996cadc001622fb5e363b421b901000000000000000000000000000000000000000000000000000000000000000000000000000000000000000000000000000000000000000000000000000000000000000000000000000000000000000000000000000000000000000000000000000000000000000000000000000000000000000000000000000000000000000000000000000000000000000000000000000000000000000000000000000000000000000000000000000000000000000000000000000000000000000000000000000000000000000000000000000000000000000000000000000000000000000000000000000000000000000000000000000000000000000000000000000000000083020000808405f5e100808203b642a056e81f171bcc55a6ff8345e692c0f86e5b48e01b996cadc001622fb5e363b421880102030405060708c0c0",
        "lastblockhash" : "0x35bdce7be7be72d9eb20acd09620178523f75e5e4209e6b993f8af0d10c7ac40",
        "network" : "Byzantium",
        "postState" : {
            "0x3535353535353535353535353535353535353535" : {
                "balance" : "0x29a2241af62c5958",
                "code" : "",
                "nonce" : "0x00",
                "storage" : {
                }
            },
            "0xa94f5374fce5edbc8e2a8697c15331677e6ebf0b" : {
                "balance" : "0x3635c9adc5de9fa6a8",
                "code" : "",
                "nonce" : "0x01",
                "storage" : {
                }
            }
        },
        "pre" : {
            "0xa94f5374fce5edbc8e2a8697c15331677e6ebf0b" : {
                "balance" : "0x3635c9adc5dea00000",
                "code" : "",
                "nonce" : "0x00",
                "storage" : {
                }
            }
        }
    },
    "modexpRandomInput_d0g0v0_Constantinople" : {
        "_info" : {
            "comment" : "",
            "filledwith" : "cpp-1.3.0+commit.72502df4.Linux.g++",
            "lllcversion" : "Version: 0.4.18-develop.2017.10.11+commit.81f9f86c.Linux.g++",
            "source" : "src/BlockchainTestsFiller/GeneralStateTests/stPreCompiledContracts2/modexpRandomInput_d0g0v0Filler.json",
            "sourceHash" : "ac2e43742289fda3ad7e096f73aab101c12d211d800e2ba41d25b5357d00c721"
        },
        "blocks" : [
            {
                "blockHeader" : {
                    "bloom" : "0x00000000000000000000000000000000000000000000000000000000000000000000000000000000000000000000000000000000000000000000000000000000000000000000000000000000000000000000000000000000000000000000000000000000000000000000000000000000000000000000000000000000000000000000000000000000000000000000000000000000000000000000000000000000000000000000000000000000000000000000000000000000000000000000000000000000000000000000000000000000000000000000000000000000000000000000000000000000000000000000000000000000000000000000000000000000",
                    "coinbase" : "0x3535353535353535353535353535353535353535",
                    "difficulty" : "0x020000",
                    "extraData" : "",
                    "gasLimit" : "0x05f5e100",
                    "gasUsed" : "0x5958",
                    "hash" : "0xd8ae7e24d6715ea8267b0866cd0091b9ebf5db952ae6000afbe663b9458bb7a2",
                    "mixHash" : "0x10810addff4a3cb3f86060c177232db425659f0f70e32129f99d540a2e269425",
                    "nonce" : "0x6f0387d7e3ada992",
                    "number" : "0x01",
                    "parentHash" : "0x4b56dd4fada98cf6fd1120843082bf1765b4d9e183bb9f233d01033f2baf851c",
                    "receiptTrie" : "0xf1098edc18bb71db4ebed7b64e8376f33d37ea4bca940e6803ba4a2adb15f20e",
                    "stateRoot" : "0x51cefcefcfea4dd46f8aa0bbb556a6a7fc6709273a6f773bdc3e63bd8b8fbb1d",
                    "timestamp" : "0x03e8",
                    "transactionsTrie" : "0xda8c5f62923dbb423ab78b97901a374b23a27dd287763e5e254f3cf7937f97d4",
                    "uncleHash" : "0x1dcc4de8dec75d7aab85b567b6ccd41ad312451b948a7413f0a142fd40d49347"
                },
                "rlp" : "0xf9029af901f8a04b56dd4fada98cf6fd1120843082bf1765b4d9e183bb9f233d01033f2baf851ca01dcc4de8dec75d7aab85b567b6ccd41ad312451b948a7413f0a142fd40d49347943535353535353535353535353535353535353535a051cefcefcfea4dd46f8aa0bbb556a6a7fc6709273a6f773bdc3e63bd8b8fbb1da0da8c5f62923dbb423ab78b97901a374b23a27dd287763e5e254f3cf7937f97d4a0f1098edc18bb71db4ebed7b64e8376f33d37ea4bca940e6803ba4a2adb15f20eb901000000000000000000000000000000000000000000000000000000000000000000000000000000000000000000000000000000000000000000000000000000000000000000000000000000000000000000000000000000000000000000000000000000000000000000000000000000000000000000000000000000000000000000000000000000000000000000000000000000000000000000000000000000000000000000000000000000000000000000000000000000000000000000000000000000000000000000000000000000000000000000000000000000000000000000000000000000000000000000000000000000000000000000000000000000000083020000018405f5e1008259588203e880a010810addff4a3cb3f86060c177232db425659f0f70e32129f99d540a2e269425886f0387d7e3ada992f89cf89a80018301adb094000000000000000000000000000000000000000580b83900000000000000000000000000000000000000000000000000000000000000e3000000000000000000000000000000000000000000000000001ba0f9207991cd3c80532e96a7d42ec3c587119e0b7d1a2efa9520e1a0a7679d24fea06878ac7c44e52d45931dba9f46af422795290550f3ce2b3c3699fc38bf5d01e3c0",
                "transactions" : [
                    {
                        "data" : "0x00000000000000000000000000000000000000000000000000000000000000e300000000000000000000000000000000000000000000000000",
                        "gasLimit" : "0x01adb0",
                        "gasPrice" : "0x01",
                        "nonce" : "0x00",
                        "r" : "0xf9207991cd3c80532e96a7d42ec3c587119e0b7d1a2efa9520e1a0a7679d24fe",
                        "s" : "0x6878ac7c44e52d45931dba9f46af422795290550f3ce2b3c3699fc38bf5d01e3",
                        "to" : "0x0000000000000000000000000000000000000005",
                        "v" : "0x1b",
                        "value" : "0x00"
                    }
                ],
                "uncleHeaders" : [
                ]
            }
        ],
        "genesisBlockHeader" : {
            "bloom" : "0x00000000000000000000000000000000000000000000000000000000000000000000000000000000000000000000000000000000000000000000000000000000000000000000000000000000000000000000000000000000000000000000000000000000000000000000000000000000000000000000000000000000000000000000000000000000000000000000000000000000000000000000000000000000000000000000000000000000000000000000000000000000000000000000000000000000000000000000000000000000000000000000000000000000000000000000000000000000000000000000000000000000000000000000000000000000",
            "coinbase" : "0x3535353535353535353535353535353535353535",
            "difficulty" : "0x020000",
            "extraData" : "0x42",
            "gasLimit" : "0x05f5e100",
            "gasUsed" : "0x00",
            "hash" : "0x4b56dd4fada98cf6fd1120843082bf1765b4d9e183bb9f233d01033f2baf851c",
            "mixHash" : "0x56e81f171bcc55a6ff8345e692c0f86e5b48e01b996cadc001622fb5e363b421",
            "nonce" : "0x0102030405060708",
            "number" : "0x00",
            "parentHash" : "0x0000000000000000000000000000000000000000000000000000000000000000",
            "receiptTrie" : "0x56e81f171bcc55a6ff8345e692c0f86e5b48e01b996cadc001622fb5e363b421",
            "stateRoot" : "0x70c42824108fafccadbfce71e6e22660c4fad89be18be324cd15ef351969a8c8",
            "timestamp" : "0x03b6",
            "transactionsTrie" : "0x56e81f171bcc55a6ff8345e692c0f86e5b48e01b996cadc001622fb5e363b421",
            "uncleHash" : "0x1dcc4de8dec75d7aab85b567b6ccd41ad312451b948a7413f0a142fd40d49347"
        },
        "genesisRLP" : "0xf901fbf901f6a00000000000000000000000000000000000000000000000000000000000000000a01dcc4de8dec75d7aab85b567b6ccd41ad312451b948a7413f0a142fd40d49347943535353535353535353535353535353535353535a070c42824108fafccadbfce71e6e22660c4fad89be18be324cd15ef351969a8c8a056e81f171bcc55a6ff8345e692c0f86e5b48e01b996cadc001622fb5e363b421a056e81f171bcc55a6ff8345e692c0f86e5b48e01b996cadc001622fb5e363b421b901000000000000000000000000000000000000000000000000000000000000000000000000000000000000000000000000000000000000000000000000000000000000000000000000000000000000000000000000000000000000000000000000000000000000000000000000000000000000000000000000000000000000000000000000000000000000000000000000000000000000000000000000000000000000000000000000000000000000000000000000000000000000000000000000000000000000000000000000000000000000000000000000000000000000000000000000000000000000000000000000000000000000000000000000000000000083020000808405f5e100808203b642a056e81f171bcc55a6ff8345e692c0f86e5b48e01b996cadc001622fb5e363b421880102030405060708c0c0",
        "lastblockhash" : "0xd8ae7e24d6715ea8267b0866cd0091b9ebf5db952ae6000afbe663b9458bb7a2",
        "network" : "Constantinople",
        "postState" : {
            "0x3535353535353535353535353535353535353535" : {
                "balance" : "0x29a2241af62c5958",
                "code" : "",
                "nonce" : "0x00",
                "storage" : {
                }
            },
            "0xa94f5374fce5edbc8e2a8697c15331677e6ebf0b" : {
                "balance" : "0x3635c9adc5de9fa6a8",
                "code" : "",
                "nonce" : "0x01",
                "storage" : {
                }
            }
        },
        "pre" : {
            "0xa94f5374fce5edbc8e2a8697c15331677e6ebf0b" : {
                "balance" : "0x3635c9adc5dea00000",
                "code" : "",
                "nonce" : "0x00",
                "storage" : {
                }
            }
        }
    },
    "modexpRandomInput_d0g0v0_EIP150" : {
        "_info" : {
            "comment" : "",
            "filledwith" : "cpp-1.3.0+commit.72502df4.Linux.g++",
            "lllcversion" : "Version: 0.4.18-develop.2017.10.11+commit.81f9f86c.Linux.g++",
            "source" : "src/BlockchainTestsFiller/GeneralStateTests/stPreCompiledContracts2/modexpRandomInput_d0g0v0Filler.json",
            "sourceHash" : "ac2e43742289fda3ad7e096f73aab101c12d211d800e2ba41d25b5357d00c721"
        },
        "blocks" : [
            {
                "blockHeader" : {
                    "bloom" : "0x00000000000000000000000000000000000000000000000000000000000000000000000000000000000000000000000000000000000000000000000000000000000000000000000000000000000000000000000000000000000000000000000000000000000000000000000000000000000000000000000000000000000000000000000000000000000000000000000000000000000000000000000000000000000000000000000000000000000000000000000000000000000000000000000000000000000000000000000000000000000000000000000000000000000000000000000000000000000000000000000000000000000000000000000000000000",
                    "coinbase" : "0x3535353535353535353535353535353535353535",
                    "difficulty" : "0x020000",
                    "extraData" : "",
                    "gasLimit" : "0x05f5e100",
                    "gasUsed" : "0x532c",
                    "hash" : "0x1a35b806a9981f67bd985e47f8c85e5b6cf887f5a479610dc8109895b456fdfe",
                    "mixHash" : "0xcbbd1d78af7ae3d3047b02bddadb2375ce838c19e01c89006ec45b4b3373a698",
                    "nonce" : "0x714d7965cc8541ed",
                    "number" : "0x01",
                    "parentHash" : "0x4b56dd4fada98cf6fd1120843082bf1765b4d9e183bb9f233d01033f2baf851c",
                    "receiptTrie" : "0x6f8f390d099bfe2947d93f4e1d803c1f9aacfeec5224111dba783618be02c218",
                    "stateRoot" : "0x517c142b4dee10ffe0a995b3b2f624fda66fb4703e492b553d49826ef05ad901",
                    "timestamp" : "0x03e8",
                    "transactionsTrie" : "0xda8c5f62923dbb423ab78b97901a374b23a27dd287763e5e254f3cf7937f97d4",
                    "uncleHash" : "0x1dcc4de8dec75d7aab85b567b6ccd41ad312451b948a7413f0a142fd40d49347"
                },
                "rlp" : "0xf9029af901f8a04b56dd4fada98cf6fd1120843082bf1765b4d9e183bb9f233d01033f2baf851ca01dcc4de8dec75d7aab85b567b6ccd41ad312451b948a7413f0a142fd40d49347943535353535353535353535353535353535353535a0517c142b4dee10ffe0a995b3b2f624fda66fb4703e492b553d49826ef05ad901a0da8c5f62923dbb423ab78b97901a374b23a27dd287763e5e254f3cf7937f97d4a06f8f390d099bfe2947d93f4e1d803c1f9aacfeec5224111dba783618be02c218b901000000000000000000000000000000000000000000000000000000000000000000000000000000000000000000000000000000000000000000000000000000000000000000000000000000000000000000000000000000000000000000000000000000000000000000000000000000000000000000000000000000000000000000000000000000000000000000000000000000000000000000000000000000000000000000000000000000000000000000000000000000000000000000000000000000000000000000000000000000000000000000000000000000000000000000000000000000000000000000000000000000000000000000000000000000000083020000018405f5e10082532c8203e880a0cbbd1d78af7ae3d3047b02bddadb2375ce838c19e01c89006ec45b4b3373a69888714d7965cc8541edf89cf89a80018301adb094000000000000000000000000000000000000000580b83900000000000000000000000000000000000000000000000000000000000000e3000000000000000000000000000000000000000000000000001ba0f9207991cd3c80532e96a7d42ec3c587119e0b7d1a2efa9520e1a0a7679d24fea06878ac7c44e52d45931dba9f46af422795290550f3ce2b3c3699fc38bf5d01e3c0",
                "transactions" : [
                    {
                        "data" : "0x00000000000000000000000000000000000000000000000000000000000000e300000000000000000000000000000000000000000000000000",
                        "gasLimit" : "0x01adb0",
                        "gasPrice" : "0x01",
                        "nonce" : "0x00",
                        "r" : "0xf9207991cd3c80532e96a7d42ec3c587119e0b7d1a2efa9520e1a0a7679d24fe",
                        "s" : "0x6878ac7c44e52d45931dba9f46af422795290550f3ce2b3c3699fc38bf5d01e3",
                        "to" : "0x0000000000000000000000000000000000000005",
                        "v" : "0x1b",
                        "value" : "0x00"
                    }
                ],
                "uncleHeaders" : [
                ]
            }
        ],
        "genesisBlockHeader" : {
            "bloom" : "0x00000000000000000000000000000000000000000000000000000000000000000000000000000000000000000000000000000000000000000000000000000000000000000000000000000000000000000000000000000000000000000000000000000000000000000000000000000000000000000000000000000000000000000000000000000000000000000000000000000000000000000000000000000000000000000000000000000000000000000000000000000000000000000000000000000000000000000000000000000000000000000000000000000000000000000000000000000000000000000000000000000000000000000000000000000000",
            "coinbase" : "0x3535353535353535353535353535353535353535",
            "difficulty" : "0x020000",
            "extraData" : "0x42",
            "gasLimit" : "0x05f5e100",
            "gasUsed" : "0x00",
            "hash" : "0x4b56dd4fada98cf6fd1120843082bf1765b4d9e183bb9f233d01033f2baf851c",
            "mixHash" : "0x56e81f171bcc55a6ff8345e692c0f86e5b48e01b996cadc001622fb5e363b421",
            "nonce" : "0x0102030405060708",
            "number" : "0x00",
            "parentHash" : "0x0000000000000000000000000000000000000000000000000000000000000000",
            "receiptTrie" : "0x56e81f171bcc55a6ff8345e692c0f86e5b48e01b996cadc001622fb5e363b421",
            "stateRoot" : "0x70c42824108fafccadbfce71e6e22660c4fad89be18be324cd15ef351969a8c8",
            "timestamp" : "0x03b6",
            "transactionsTrie" : "0x56e81f171bcc55a6ff8345e692c0f86e5b48e01b996cadc001622fb5e363b421",
            "uncleHash" : "0x1dcc4de8dec75d7aab85b567b6ccd41ad312451b948a7413f0a142fd40d49347"
        },
        "genesisRLP" : "0xf901fbf901f6a00000000000000000000000000000000000000000000000000000000000000000a01dcc4de8dec75d7aab85b567b6ccd41ad312451b948a7413f0a142fd40d49347943535353535353535353535353535353535353535a070c42824108fafccadbfce71e6e22660c4fad89be18be324cd15ef351969a8c8a056e81f171bcc55a6ff8345e692c0f86e5b48e01b996cadc001622fb5e363b421a056e81f171bcc55a6ff8345e692c0f86e5b48e01b996cadc001622fb5e363b421b901000000000000000000000000000000000000000000000000000000000000000000000000000000000000000000000000000000000000000000000000000000000000000000000000000000000000000000000000000000000000000000000000000000000000000000000000000000000000000000000000000000000000000000000000000000000000000000000000000000000000000000000000000000000000000000000000000000000000000000000000000000000000000000000000000000000000000000000000000000000000000000000000000000000000000000000000000000000000000000000000000000000000000000000000000000000083020000808405f5e100808203b642a056e81f171bcc55a6ff8345e692c0f86e5b48e01b996cadc001622fb5e363b421880102030405060708c0c0",
        "lastblockhash" : "0x1a35b806a9981f67bd985e47f8c85e5b6cf887f5a479610dc8109895b456fdfe",
        "network" : "EIP150",
        "postState" : {
            "0x0000000000000000000000000000000000000005" : {
                "balance" : "0x00",
                "code" : "",
                "nonce" : "0x00",
                "storage" : {
                }
            },
            "0x3535353535353535353535353535353535353535" : {
                "balance" : "0x4563918244f4532c",
                "code" : "",
                "nonce" : "0x00",
                "storage" : {
                }
            },
            "0xa94f5374fce5edbc8e2a8697c15331677e6ebf0b" : {
                "balance" : "0x3635c9adc5de9facd4",
                "code" : "",
                "nonce" : "0x01",
                "storage" : {
                }
            }
        },
        "pre" : {
            "0xa94f5374fce5edbc8e2a8697c15331677e6ebf0b" : {
                "balance" : "0x3635c9adc5dea00000",
                "code" : "",
                "nonce" : "0x00",
                "storage" : {
                }
            }
        }
    },
    "modexpRandomInput_d0g0v0_EIP158" : {
        "_info" : {
            "comment" : "",
            "filledwith" : "cpp-1.3.0+commit.72502df4.Linux.g++",
            "lllcversion" : "Version: 0.4.18-develop.2017.10.11+commit.81f9f86c.Linux.g++",
            "source" : "src/BlockchainTestsFiller/GeneralStateTests/stPreCompiledContracts2/modexpRandomInput_d0g0v0Filler.json",
            "sourceHash" : "ac2e43742289fda3ad7e096f73aab101c12d211d800e2ba41d25b5357d00c721"
        },
        "blocks" : [
            {
                "blockHeader" : {
                    "bloom" : "0x00000000000000000000000000000000000000000000000000000000000000000000000000000000000000000000000000000000000000000000000000000000000000000000000000000000000000000000000000000000000000000000000000000000000000000000000000000000000000000000000000000000000000000000000000000000000000000000000000000000000000000000000000000000000000000000000000000000000000000000000000000000000000000000000000000000000000000000000000000000000000000000000000000000000000000000000000000000000000000000000000000000000000000000000000000000",
                    "coinbase" : "0x3535353535353535353535353535353535353535",
                    "difficulty" : "0x020000",
                    "extraData" : "",
                    "gasLimit" : "0x05f5e100",
                    "gasUsed" : "0x532c",
                    "hash" : "0x4951a6554704de03468cd2ce34bbb7a5207a3d474879dcb4c75394457255c280",
                    "mixHash" : "0x82b17244db110dfc1b04cd1aad02f669f9aa20cda0dfa02f8dcd03238c5da20a",
                    "nonce" : "0x6d9bf7e9d87339d1",
                    "number" : "0x01",
                    "parentHash" : "0x4b56dd4fada98cf6fd1120843082bf1765b4d9e183bb9f233d01033f2baf851c",
                    "receiptTrie" : "0x0e6832bc9b6017350e4ad728b83fa6c0d2ae825dd7e6278435a65cf1d94e13bf",
                    "stateRoot" : "0xedd656043a22dc6ec3c481395858d8c8463e911a3c3394d1192ffffbb33c56ba",
                    "timestamp" : "0x03e8",
                    "transactionsTrie" : "0xda8c5f62923dbb423ab78b97901a374b23a27dd287763e5e254f3cf7937f97d4",
                    "uncleHash" : "0x1dcc4de8dec75d7aab85b567b6ccd41ad312451b948a7413f0a142fd40d49347"
                },
                "rlp" : "0xf9029af901f8a04b56dd4fada98cf6fd1120843082bf1765b4d9e183bb9f233d01033f2baf851ca01dcc4de8dec75d7aab85b567b6ccd41ad312451b948a7413f0a142fd40d49347943535353535353535353535353535353535353535a0edd656043a22dc6ec3c481395858d8c8463e911a3c3394d1192ffffbb33c56baa0da8c5f62923dbb423ab78b97901a374b23a27dd287763e5e254f3cf7937f97d4a00e6832bc9b6017350e4ad728b83fa6c0d2ae825dd7e6278435a65cf1d94e13bfb901000000000000000000000000000000000000000000000000000000000000000000000000000000000000000000000000000000000000000000000000000000000000000000000000000000000000000000000000000000000000000000000000000000000000000000000000000000000000000000000000000000000000000000000000000000000000000000000000000000000000000000000000000000000000000000000000000000000000000000000000000000000000000000000000000000000000000000000000000000000000000000000000000000000000000000000000000000000000000000000000000000000000000000000000000000000083020000018405f5e10082532c8203e880a082b17244db110dfc1b04cd1aad02f669f9aa20cda0dfa02f8dcd03238c5da20a886d9bf7e9d87339d1f89cf89a80018301adb094000000000000000000000000000000000000000580b83900000000000000000000000000000000000000000000000000000000000000e3000000000000000000000000000000000000000000000000001ba0f9207991cd3c80532e96a7d42ec3c587119e0b7d1a2efa9520e1a0a7679d24fea06878ac7c44e52d45931dba9f46af422795290550f3ce2b3c3699fc38bf5d01e3c0",
                "transactions" : [
                    {
                        "data" : "0x00000000000000000000000000000000000000000000000000000000000000e300000000000000000000000000000000000000000000000000",
                        "gasLimit" : "0x01adb0",
                        "gasPrice" : "0x01",
                        "nonce" : "0x00",
                        "r" : "0xf9207991cd3c80532e96a7d42ec3c587119e0b7d1a2efa9520e1a0a7679d24fe",
                        "s" : "0x6878ac7c44e52d45931dba9f46af422795290550f3ce2b3c3699fc38bf5d01e3",
                        "to" : "0x0000000000000000000000000000000000000005",
                        "v" : "0x1b",
                        "value" : "0x00"
                    }
                ],
                "uncleHeaders" : [
                ]
            }
        ],
        "genesisBlockHeader" : {
            "bloom" : "0x00000000000000000000000000000000000000000000000000000000000000000000000000000000000000000000000000000000000000000000000000000000000000000000000000000000000000000000000000000000000000000000000000000000000000000000000000000000000000000000000000000000000000000000000000000000000000000000000000000000000000000000000000000000000000000000000000000000000000000000000000000000000000000000000000000000000000000000000000000000000000000000000000000000000000000000000000000000000000000000000000000000000000000000000000000000",
            "coinbase" : "0x3535353535353535353535353535353535353535",
            "difficulty" : "0x020000",
            "extraData" : "0x42",
            "gasLimit" : "0x05f5e100",
            "gasUsed" : "0x00",
            "hash" : "0x4b56dd4fada98cf6fd1120843082bf1765b4d9e183bb9f233d01033f2baf851c",
            "mixHash" : "0x56e81f171bcc55a6ff8345e692c0f86e5b48e01b996cadc001622fb5e363b421",
            "nonce" : "0x0102030405060708",
            "number" : "0x00",
            "parentHash" : "0x0000000000000000000000000000000000000000000000000000000000000000",
            "receiptTrie" : "0x56e81f171bcc55a6ff8345e692c0f86e5b48e01b996cadc001622fb5e363b421",
            "stateRoot" : "0x70c42824108fafccadbfce71e6e22660c4fad89be18be324cd15ef351969a8c8",
            "timestamp" : "0x03b6",
            "transactionsTrie" : "0x56e81f171bcc55a6ff8345e692c0f86e5b48e01b996cadc001622fb5e363b421",
            "uncleHash" : "0x1dcc4de8dec75d7aab85b567b6ccd41ad312451b948a7413f0a142fd40d49347"
        },
        "genesisRLP" : "0xf901fbf901f6a00000000000000000000000000000000000000000000000000000000000000000a01dcc4de8dec75d7aab85b567b6ccd41ad312451b948a7413f0a142fd40d49347943535353535353535353535353535353535353535a070c42824108fafccadbfce71e6e22660c4fad89be18be324cd15ef351969a8c8a056e81f171bcc55a6ff8345e692c0f86e5b48e01b996cadc001622fb5e363b421a056e81f171bcc55a6ff8345e692c0f86e5b48e01b996cadc001622fb5e363b421b901000000000000000000000000000000000000000000000000000000000000000000000000000000000000000000000000000000000000000000000000000000000000000000000000000000000000000000000000000000000000000000000000000000000000000000000000000000000000000000000000000000000000000000000000000000000000000000000000000000000000000000000000000000000000000000000000000000000000000000000000000000000000000000000000000000000000000000000000000000000000000000000000000000000000000000000000000000000000000000000000000000000000000000000000000000000083020000808405f5e100808203b642a056e81f171bcc55a6ff8345e692c0f86e5b48e01b996cadc001622fb5e363b421880102030405060708c0c0",
        "lastblockhash" : "0x4951a6554704de03468cd2ce34bbb7a5207a3d474879dcb4c75394457255c280",
        "network" : "EIP158",
        "postState" : {
            "0x3535353535353535353535353535353535353535" : {
                "balance" : "0x4563918244f4532c",
                "code" : "",
                "nonce" : "0x00",
                "storage" : {
                }
            },
            "0xa94f5374fce5edbc8e2a8697c15331677e6ebf0b" : {
                "balance" : "0x3635c9adc5de9facd4",
                "code" : "",
                "nonce" : "0x01",
                "storage" : {
                }
            }
        },
        "pre" : {
            "0xa94f5374fce5edbc8e2a8697c15331677e6ebf0b" : {
                "balance" : "0x3635c9adc5dea00000",
                "code" : "",
                "nonce" : "0x00",
                "storage" : {
                }
            }
        }
    },
    "modexpRandomInput_d0g0v0_Frontier" : {
        "_info" : {
            "comment" : "",
            "filledwith" : "cpp-1.3.0+commit.72502df4.Linux.g++",
            "lllcversion" : "Version: 0.4.18-develop.2017.10.11+commit.81f9f86c.Linux.g++",
            "source" : "src/BlockchainTestsFiller/GeneralStateTests/stPreCompiledContracts2/modexpRandomInput_d0g0v0Filler.json",
            "sourceHash" : "ac2e43742289fda3ad7e096f73aab101c12d211d800e2ba41d25b5357d00c721"
        },
        "blocks" : [
            {
                "blockHeader" : {
                    "bloom" : "0x00000000000000000000000000000000000000000000000000000000000000000000000000000000000000000000000000000000000000000000000000000000000000000000000000000000000000000000000000000000000000000000000000000000000000000000000000000000000000000000000000000000000000000000000000000000000000000000000000000000000000000000000000000000000000000000000000000000000000000000000000000000000000000000000000000000000000000000000000000000000000000000000000000000000000000000000000000000000000000000000000000000000000000000000000000000",
                    "coinbase" : "0x3535353535353535353535353535353535353535",
                    "difficulty" : "0x020000",
                    "extraData" : "",
                    "gasLimit" : "0x05f5e100",
                    "gasUsed" : "0x532c",
                    "hash" : "0x374db156c17fab7ac2ba29c7e162b5a7572699265fed1c03e6a08909f28efbe6",
                    "mixHash" : "0x751fb46b4f4e68d3b7a6e83b09d9a963f76e14ab5be9cb998c7cf9f46e2e7867",
                    "nonce" : "0x214ded28be5f02bd",
                    "number" : "0x01",
                    "parentHash" : "0x4b56dd4fada98cf6fd1120843082bf1765b4d9e183bb9f233d01033f2baf851c",
                    "receiptTrie" : "0x6f8f390d099bfe2947d93f4e1d803c1f9aacfeec5224111dba783618be02c218",
                    "stateRoot" : "0x517c142b4dee10ffe0a995b3b2f624fda66fb4703e492b553d49826ef05ad901",
                    "timestamp" : "0x03e8",
                    "transactionsTrie" : "0xda8c5f62923dbb423ab78b97901a374b23a27dd287763e5e254f3cf7937f97d4",
                    "uncleHash" : "0x1dcc4de8dec75d7aab85b567b6ccd41ad312451b948a7413f0a142fd40d49347"
                },
                "rlp" : "0xf9029af901f8a04b56dd4fada98cf6fd1120843082bf1765b4d9e183bb9f233d01033f2baf851ca01dcc4de8dec75d7aab85b567b6ccd41ad312451b948a7413f0a142fd40d49347943535353535353535353535353535353535353535a0517c142b4dee10ffe0a995b3b2f624fda66fb4703e492b553d49826ef05ad901a0da8c5f62923dbb423ab78b97901a374b23a27dd287763e5e254f3cf7937f97d4a06f8f390d099bfe2947d93f4e1d803c1f9aacfeec5224111dba783618be02c218b901000000000000000000000000000000000000000000000000000000000000000000000000000000000000000000000000000000000000000000000000000000000000000000000000000000000000000000000000000000000000000000000000000000000000000000000000000000000000000000000000000000000000000000000000000000000000000000000000000000000000000000000000000000000000000000000000000000000000000000000000000000000000000000000000000000000000000000000000000000000000000000000000000000000000000000000000000000000000000000000000000000000000000000000000000000000083020000018405f5e10082532c8203e880a0751fb46b4f4e68d3b7a6e83b09d9a963f76e14ab5be9cb998c7cf9f46e2e786788214ded28be5f02bdf89cf89a80018301adb094000000000000000000000000000000000000000580b83900000000000000000000000000000000000000000000000000000000000000e3000000000000000000000000000000000000000000000000001ba0f9207991cd3c80532e96a7d42ec3c587119e0b7d1a2efa9520e1a0a7679d24fea06878ac7c44e52d45931dba9f46af422795290550f3ce2b3c3699fc38bf5d01e3c0",
                "transactions" : [
                    {
                        "data" : "0x00000000000000000000000000000000000000000000000000000000000000e300000000000000000000000000000000000000000000000000",
                        "gasLimit" : "0x01adb0",
                        "gasPrice" : "0x01",
                        "nonce" : "0x00",
                        "r" : "0xf9207991cd3c80532e96a7d42ec3c587119e0b7d1a2efa9520e1a0a7679d24fe",
                        "s" : "0x6878ac7c44e52d45931dba9f46af422795290550f3ce2b3c3699fc38bf5d01e3",
                        "to" : "0x0000000000000000000000000000000000000005",
                        "v" : "0x1b",
                        "value" : "0x00"
                    }
                ],
                "uncleHeaders" : [
                ]
            }
        ],
        "genesisBlockHeader" : {
            "bloom" : "0x00000000000000000000000000000000000000000000000000000000000000000000000000000000000000000000000000000000000000000000000000000000000000000000000000000000000000000000000000000000000000000000000000000000000000000000000000000000000000000000000000000000000000000000000000000000000000000000000000000000000000000000000000000000000000000000000000000000000000000000000000000000000000000000000000000000000000000000000000000000000000000000000000000000000000000000000000000000000000000000000000000000000000000000000000000000",
            "coinbase" : "0x3535353535353535353535353535353535353535",
            "difficulty" : "0x020000",
            "extraData" : "0x42",
            "gasLimit" : "0x05f5e100",
            "gasUsed" : "0x00",
            "hash" : "0x4b56dd4fada98cf6fd1120843082bf1765b4d9e183bb9f233d01033f2baf851c",
            "mixHash" : "0x56e81f171bcc55a6ff8345e692c0f86e5b48e01b996cadc001622fb5e363b421",
            "nonce" : "0x0102030405060708",
            "number" : "0x00",
            "parentHash" : "0x0000000000000000000000000000000000000000000000000000000000000000",
            "receiptTrie" : "0x56e81f171bcc55a6ff8345e692c0f86e5b48e01b996cadc001622fb5e363b421",
            "stateRoot" : "0x70c42824108fafccadbfce71e6e22660c4fad89be18be324cd15ef351969a8c8",
            "timestamp" : "0x03b6",
            "transactionsTrie" : "0x56e81f171bcc55a6ff8345e692c0f86e5b48e01b996cadc001622fb5e363b421",
            "uncleHash" : "0x1dcc4de8dec75d7aab85b567b6ccd41ad312451b948a7413f0a142fd40d49347"
        },
        "genesisRLP" : "0xf901fbf901f6a00000000000000000000000000000000000000000000000000000000000000000a01dcc4de8dec75d7aab85b567b6ccd41ad312451b948a7413f0a142fd40d49347943535353535353535353535353535353535353535a070c42824108fafccadbfce71e6e22660c4fad89be18be324cd15ef351969a8c8a056e81f171bcc55a6ff8345e692c0f86e5b48e01b996cadc001622fb5e363b421a056e81f171bcc55a6ff8345e692c0f86e5b48e01b996cadc001622fb5e363b421b901000000000000000000000000000000000000000000000000000000000000000000000000000000000000000000000000000000000000000000000000000000000000000000000000000000000000000000000000000000000000000000000000000000000000000000000000000000000000000000000000000000000000000000000000000000000000000000000000000000000000000000000000000000000000000000000000000000000000000000000000000000000000000000000000000000000000000000000000000000000000000000000000000000000000000000000000000000000000000000000000000000000000000000000000000000000083020000808405f5e100808203b642a056e81f171bcc55a6ff8345e692c0f86e5b48e01b996cadc001622fb5e363b421880102030405060708c0c0",
        "lastblockhash" : "0x374db156c17fab7ac2ba29c7e162b5a7572699265fed1c03e6a08909f28efbe6",
        "network" : "Frontier",
        "postState" : {
            "0x0000000000000000000000000000000000000005" : {
                "balance" : "0x00",
                "code" : "",
                "nonce" : "0x00",
                "storage" : {
                }
            },
            "0x3535353535353535353535353535353535353535" : {
                "balance" : "0x4563918244f4532c",
                "code" : "",
                "nonce" : "0x00",
                "storage" : {
                }
            },
            "0xa94f5374fce5edbc8e2a8697c15331677e6ebf0b" : {
                "balance" : "0x3635c9adc5de9facd4",
                "code" : "",
                "nonce" : "0x01",
                "storage" : {
                }
            }
        },
        "pre" : {
            "0xa94f5374fce5edbc8e2a8697c15331677e6ebf0b" : {
                "balance" : "0x3635c9adc5dea00000",
                "code" : "",
                "nonce" : "0x00",
                "storage" : {
                }
            }
        }
    },
    "modexpRandomInput_d0g0v0_Homestead" : {
        "_info" : {
            "comment" : "",
            "filledwith" : "cpp-1.3.0+commit.72502df4.Linux.g++",
            "lllcversion" : "Version: 0.4.18-develop.2017.10.11+commit.81f9f86c.Linux.g++",
            "source" : "src/BlockchainTestsFiller/GeneralStateTests/stPreCompiledContracts2/modexpRandomInput_d0g0v0Filler.json",
            "sourceHash" : "ac2e43742289fda3ad7e096f73aab101c12d211d800e2ba41d25b5357d00c721"
        },
        "blocks" : [
            {
                "blockHeader" : {
                    "bloom" : "0x00000000000000000000000000000000000000000000000000000000000000000000000000000000000000000000000000000000000000000000000000000000000000000000000000000000000000000000000000000000000000000000000000000000000000000000000000000000000000000000000000000000000000000000000000000000000000000000000000000000000000000000000000000000000000000000000000000000000000000000000000000000000000000000000000000000000000000000000000000000000000000000000000000000000000000000000000000000000000000000000000000000000000000000000000000000",
                    "coinbase" : "0x3535353535353535353535353535353535353535",
                    "difficulty" : "0x020000",
                    "extraData" : "",
                    "gasLimit" : "0x05f5e100",
                    "gasUsed" : "0x532c",
                    "hash" : "0x1e75add1dae20a566932b4e36c730bcd60577b923fe9d0801d5b413292f3f014",
                    "mixHash" : "0x85e8e5ec03ec30284728530cd79000efc242e3aa741a8cc5382e5e0967ca1155",
                    "nonce" : "0x9f7737c8a038cf19",
                    "number" : "0x01",
                    "parentHash" : "0x4b56dd4fada98cf6fd1120843082bf1765b4d9e183bb9f233d01033f2baf851c",
                    "receiptTrie" : "0x6f8f390d099bfe2947d93f4e1d803c1f9aacfeec5224111dba783618be02c218",
                    "stateRoot" : "0x517c142b4dee10ffe0a995b3b2f624fda66fb4703e492b553d49826ef05ad901",
                    "timestamp" : "0x03e8",
                    "transactionsTrie" : "0xda8c5f62923dbb423ab78b97901a374b23a27dd287763e5e254f3cf7937f97d4",
                    "uncleHash" : "0x1dcc4de8dec75d7aab85b567b6ccd41ad312451b948a7413f0a142fd40d49347"
                },
                "rlp" : "0xf9029af901f8a04b56dd4fada98cf6fd1120843082bf1765b4d9e183bb9f233d01033f2baf851ca01dcc4de8dec75d7aab85b567b6ccd41ad312451b948a7413f0a142fd40d49347943535353535353535353535353535353535353535a0517c142b4dee10ffe0a995b3b2f624fda66fb4703e492b553d49826ef05ad901a0da8c5f62923dbb423ab78b97901a374b23a27dd287763e5e254f3cf7937f97d4a06f8f390d099bfe2947d93f4e1d803c1f9aacfeec5224111dba783618be02c218b901000000000000000000000000000000000000000000000000000000000000000000000000000000000000000000000000000000000000000000000000000000000000000000000000000000000000000000000000000000000000000000000000000000000000000000000000000000000000000000000000000000000000000000000000000000000000000000000000000000000000000000000000000000000000000000000000000000000000000000000000000000000000000000000000000000000000000000000000000000000000000000000000000000000000000000000000000000000000000000000000000000000000000000000000000000000083020000018405f5e10082532c8203e880a085e8e5ec03ec30284728530cd79000efc242e3aa741a8cc5382e5e0967ca1155889f7737c8a038cf19f89cf89a80018301adb094000000000000000000000000000000000000000580b83900000000000000000000000000000000000000000000000000000000000000e3000000000000000000000000000000000000000000000000001ba0f9207991cd3c80532e96a7d42ec3c587119e0b7d1a2efa9520e1a0a7679d24fea06878ac7c44e52d45931dba9f46af422795290550f3ce2b3c3699fc38bf5d01e3c0",
                "transactions" : [
                    {
                        "data" : "0x00000000000000000000000000000000000000000000000000000000000000e300000000000000000000000000000000000000000000000000",
                        "gasLimit" : "0x01adb0",
                        "gasPrice" : "0x01",
                        "nonce" : "0x00",
                        "r" : "0xf9207991cd3c80532e96a7d42ec3c587119e0b7d1a2efa9520e1a0a7679d24fe",
                        "s" : "0x6878ac7c44e52d45931dba9f46af422795290550f3ce2b3c3699fc38bf5d01e3",
                        "to" : "0x0000000000000000000000000000000000000005",
                        "v" : "0x1b",
                        "value" : "0x00"
                    }
                ],
                "uncleHeaders" : [
                ]
            }
        ],
        "genesisBlockHeader" : {
            "bloom" : "0x00000000000000000000000000000000000000000000000000000000000000000000000000000000000000000000000000000000000000000000000000000000000000000000000000000000000000000000000000000000000000000000000000000000000000000000000000000000000000000000000000000000000000000000000000000000000000000000000000000000000000000000000000000000000000000000000000000000000000000000000000000000000000000000000000000000000000000000000000000000000000000000000000000000000000000000000000000000000000000000000000000000000000000000000000000000",
            "coinbase" : "0x3535353535353535353535353535353535353535",
            "difficulty" : "0x020000",
            "extraData" : "0x42",
            "gasLimit" : "0x05f5e100",
            "gasUsed" : "0x00",
            "hash" : "0x4b56dd4fada98cf6fd1120843082bf1765b4d9e183bb9f233d01033f2baf851c",
            "mixHash" : "0x56e81f171bcc55a6ff8345e692c0f86e5b48e01b996cadc001622fb5e363b421",
            "nonce" : "0x0102030405060708",
            "number" : "0x00",
            "parentHash" : "0x0000000000000000000000000000000000000000000000000000000000000000",
            "receiptTrie" : "0x56e81f171bcc55a6ff8345e692c0f86e5b48e01b996cadc001622fb5e363b421",
            "stateRoot" : "0x70c42824108fafccadbfce71e6e22660c4fad89be18be324cd15ef351969a8c8",
            "timestamp" : "0x03b6",
            "transactionsTrie" : "0x56e81f171bcc55a6ff8345e692c0f86e5b48e01b996cadc001622fb5e363b421",
            "uncleHash" : "0x1dcc4de8dec75d7aab85b567b6ccd41ad312451b948a7413f0a142fd40d49347"
        },
        "genesisRLP" : "0xf901fbf901f6a00000000000000000000000000000000000000000000000000000000000000000a01dcc4de8dec75d7aab85b567b6ccd41ad312451b948a7413f0a142fd40d49347943535353535353535353535353535353535353535a070c42824108fafccadbfce71e6e22660c4fad89be18be324cd15ef351969a8c8a056e81f171bcc55a6ff8345e692c0f86e5b48e01b996cadc001622fb5e363b421a056e81f171bcc55a6ff8345e692c0f86e5b48e01b996cadc001622fb5e363b421b901000000000000000000000000000000000000000000000000000000000000000000000000000000000000000000000000000000000000000000000000000000000000000000000000000000000000000000000000000000000000000000000000000000000000000000000000000000000000000000000000000000000000000000000000000000000000000000000000000000000000000000000000000000000000000000000000000000000000000000000000000000000000000000000000000000000000000000000000000000000000000000000000000000000000000000000000000000000000000000000000000000000000000000000000000000000083020000808405f5e100808203b642a056e81f171bcc55a6ff8345e692c0f86e5b48e01b996cadc001622fb5e363b421880102030405060708c0c0",
        "lastblockhash" : "0x1e75add1dae20a566932b4e36c730bcd60577b923fe9d0801d5b413292f3f014",
        "network" : "Homestead",
        "postState" : {
            "0x0000000000000000000000000000000000000005" : {
                "balance" : "0x00",
                "code" : "",
                "nonce" : "0x00",
                "storage" : {
                }
            },
            "0x3535353535353535353535353535353535353535" : {
                "balance" : "0x4563918244f4532c",
                "code" : "",
                "nonce" : "0x00",
                "storage" : {
                }
            },
            "0xa94f5374fce5edbc8e2a8697c15331677e6ebf0b" : {
                "balance" : "0x3635c9adc5de9facd4",
                "code" : "",
                "nonce" : "0x01",
                "storage" : {
                }
            }
        },
        "pre" : {
            "0xa94f5374fce5edbc8e2a8697c15331677e6ebf0b" : {
                "balance" : "0x3635c9adc5dea00000",
                "code" : "",
                "nonce" : "0x00",
                "storage" : {
                }
            }
        }
    }
}