{
    "blobhashListBounds6_d0g0v0_Cancun" : {
        "_info" : {
            "comment" : "BLOB006",
            "filling-rpc-server" : "evm version 1.13.9-unstable-e3eeb64c-20240104",
            "filling-tool-version" : "retesteth-0.3.2-cancun+commit.e4e89453.Linux.g++",
            "generatedTestHash" : "6bd603be2380b1a5c15c716d34d25b0e8a33084c44da000820cd8e220a9fde86",
            "lllcversion" : "Version: 0.5.14-develop.2023.7.11+commit.c58ab2c6.mod.Linux.g++",
            "solidity" : "Version: 0.8.21+commit.d9974bed.Linux.g++",
            "source" : "src/GeneralStateTestsFiller/Cancun/stEIP4844-blobtransactions/blobhashListBounds6Filler.yml",
            "sourceHash" : "8e5ba663fb396fd4037d99565db5f36ce7b97adfb50c155710ecc498e1be8fd1"
        },
        "blocks" : [
            {
                "blockHeader" : {
                    "baseFeePerGas" : "0x07",
                    "blobGasUsed" : "0x0c0000",
                    "bloom" : "0x00000000000000000000000000000000000000000000000000000000000000000000000000000000000000000000000000000000000000000000000000000000000000000000000000000000000000000000000000000000000000000000000000000000000000000000000000000000000000000000000000000000000000000000000000000000000000000000000000000000000000000000000000000000000000000000000000000000000000000000000000000000000000000000000000000000000000000000000000000000000000000000000000000000000000000000000000000000000000000000000000000000000000000000000000000000",
                    "coinbase" : "0x2adc25665018aa1fe0e6bc666dac8fc2697ff9ba",
                    "difficulty" : "0x00",
                    "excessBlobGas" : "0x00",
                    "extraData" : "0x00",
                    "gasLimit" : "0x1000000000",
                    "gasUsed" : "0x6ab1",
                    "hash" : "0xf047dd124256a61fced19bf9578436c476a8cb01c4c4af4331a15531bd9fac0e",
                    "mixHash" : "0x0000000000000000000000000000000000000000000000000000000000020000",
                    "nonce" : "0x0000000000000000",
                    "number" : "0x01",
                    "parentBeaconBlockRoot" : "0x0000000000000000000000000000000000000000000000000000000000000000",
                    "parentHash" : "0xf203e33228ca6b422c1f0ea058f543b77fb49fad6f0970f838dc69017cab23fe",
                    "receiptTrie" : "0xf8ec0dcb724906966cbcae8f5c9671267fa89655fccb06586636d29adacafa3c",
                    "stateRoot" : "0x4d5e563b0457d135453a7641e246f13a404b752218c54bc70a07be2f228c926a",
                    "timestamp" : "0x03e8",
                    "transactionsTrie" : "0x82713a43df902f4aadd00e52d39dc8e913cab6ce5524a63cf2c1f074b9d2c45f",
                    "uncleHash" : "0x1dcc4de8dec75d7aab85b567b6ccd41ad312451b948a7413f0a142fd40d49347",
                    "withdrawalsRoot" : "0x56e81f171bcc55a6ff8345e692c0f86e5b48e01b996cadc001622fb5e363b421"
                },
                "rlp" : "0xf903ddf9023ea0f203e33228ca6b422c1f0ea058f543b77fb49fad6f0970f838dc69017cab23fea01dcc4de8dec75d7aab85b567b6ccd41ad312451b948a7413f0a142fd40d49347942adc25665018aa1fe0e6bc666dac8fc2697ff9baa04d5e563b0457d135453a7641e246f13a404b752218c54bc70a07be2f228c926aa082713a43df902f4aadd00e52d39dc8e913cab6ce5524a63cf2c1f074b9d2c45fa0f8ec0dcb724906966cbcae8f5c9671267fa89655fccb06586636d29adacafa3cb90100000000000000000000000000000000000000000000000000000000000000000000000000000000000000000000000000000000000000000000000000000000000000000000000000000000000000000000000000000000000000000000000000000000000000000000000000000000000000000000000000000000000000000000000000000000000000000000000000000000000000000000000000000000000000000000000000000000000000000000000000000000000000000000000000000000000000000000000000000000000000000000000000000000000000000000000000000000000000000000000000000000000000000000000000000000008001851000000000826ab18203e800a0000000000000000000000000000000000000000000000000000000000002000088000000000000000007a056e81f171bcc55a6ff8345e692c0f86e5b48e01b996cadc001622fb5e363b421830c000080a00000000000000000000000000000000000000000000000000000000000000000f90197b9019403f9019001800285012a05f200833d090094095e7baea6a6c7c4c2dfeb977efac326af552d87830186a000f85bf85994095e7baea6a6c7c4c2dfeb977efac326af552d87f842a00000000000000000000000000000000000000000000000000000000000000000a000000000000000000000000000000000000000000000000000000000000000010af8c6a001a915e4d060149eb4365960e6a7a45f334393093061116b197e3240065f0001a001a915e4d060149eb4365960e6a7a45f334393093061116b197e3240065f0002a001a915e4d060149eb4365960e6a7a45f334393093061116b197e3240065f0003a001a915e4d060149eb4365960e6a7a45f334393093061116b197e3240065f0004a001a915e4d060149eb4365960e6a7a45f334393093061116b197e3240065f0005a001a915e4d060149eb4365960e6a7a45f334393093061116b197e3240065f000601a0468bdd8391fcbe8492008fe39073c942d8b15989e12099b4914052e265b8ad95a07fb95fb729af17253c4480efa1a1ddc40e645c8de736dba2c363d87a817f7396c0c0",
                "transactions" : [
                    {
                        "accessList" : [
                            {
                                "address" : "0x095e7baea6a6c7c4c2dfeb977efac326af552d87",
                                "storageKeys" : [
                                    "0x0000000000000000000000000000000000000000000000000000000000000000",
                                    "0x0000000000000000000000000000000000000000000000000000000000000001"
                                ]
                            }
                        ],
                        "blobVersionedHashes" : [
                            "0x01a915e4d060149eb4365960e6a7a45f334393093061116b197e3240065f0001",
                            "0x01a915e4d060149eb4365960e6a7a45f334393093061116b197e3240065f0002",
                            "0x01a915e4d060149eb4365960e6a7a45f334393093061116b197e3240065f0003",
                            "0x01a915e4d060149eb4365960e6a7a45f334393093061116b197e3240065f0004",
                            "0x01a915e4d060149eb4365960e6a7a45f334393093061116b197e3240065f0005",
                            "0x01a915e4d060149eb4365960e6a7a45f334393093061116b197e3240065f0006"
                        ],
                        "chainId" : "0x01",
                        "data" : "0x00",
                        "gasLimit" : "0x3d0900",
                        "maxFeePerBlobGas" : "0x0a",
                        "maxFeePerGas" : "0x012a05f200",
                        "maxPriorityFeePerGas" : "0x02",
                        "nonce" : "0x00",
                        "r" : "0x468bdd8391fcbe8492008fe39073c942d8b15989e12099b4914052e265b8ad95",
                        "s" : "0x7fb95fb729af17253c4480efa1a1ddc40e645c8de736dba2c363d87a817f7396",
                        "sender" : "0xa94f5374fce5edbc8e2a8697c15331677e6ebf0b",
                        "to" : "0x095e7baea6a6c7c4c2dfeb977efac326af552d87",
                        "type" : "0x03",
                        "v" : "0x01",
                        "value" : "0x0186a0"
                    }
                ],
                "uncleHeaders" : [
                ],
                "withdrawals" : [
                ]
            }
        ],
        "genesisBlockHeader" : {
            "baseFeePerGas" : "0x08",
            "blobGasUsed" : "0x00",
            "bloom" : "0x00000000000000000000000000000000000000000000000000000000000000000000000000000000000000000000000000000000000000000000000000000000000000000000000000000000000000000000000000000000000000000000000000000000000000000000000000000000000000000000000000000000000000000000000000000000000000000000000000000000000000000000000000000000000000000000000000000000000000000000000000000000000000000000000000000000000000000000000000000000000000000000000000000000000000000000000000000000000000000000000000000000000000000000000000000000",
            "coinbase" : "0x2adc25665018aa1fe0e6bc666dac8fc2697ff9ba",
            "difficulty" : "0x00",
            "excessBlobGas" : "0x00",
            "extraData" : "0x00",
            "gasLimit" : "0x1000000000",
            "gasUsed" : "0x00",
            "hash" : "0xf203e33228ca6b422c1f0ea058f543b77fb49fad6f0970f838dc69017cab23fe",
            "mixHash" : "0x0000000000000000000000000000000000000000000000000000000000020000",
            "nonce" : "0x0000000000000000",
            "number" : "0x00",
            "parentBeaconBlockRoot" : "0x0000000000000000000000000000000000000000000000000000000000000000",
            "parentHash" : "0x0000000000000000000000000000000000000000000000000000000000000000",
            "receiptTrie" : "0x56e81f171bcc55a6ff8345e692c0f86e5b48e01b996cadc001622fb5e363b421",
            "stateRoot" : "0x538353a3893bdc8daa9eb125f6680804fc6f63e07ba1a1b65329614325528a54",
            "timestamp" : "0x00",
            "transactionsTrie" : "0x56e81f171bcc55a6ff8345e692c0f86e5b48e01b996cadc001622fb5e363b421",
            "uncleHash" : "0x1dcc4de8dec75d7aab85b567b6ccd41ad312451b948a7413f0a142fd40d49347",
            "withdrawalsRoot" : "0x56e81f171bcc55a6ff8345e692c0f86e5b48e01b996cadc001622fb5e363b421"
        },
        "genesisRLP" : "0xf9023df90237a00000000000000000000000000000000000000000000000000000000000000000a01dcc4de8dec75d7aab85b567b6ccd41ad312451b948a7413f0a142fd40d49347942adc25665018aa1fe0e6bc666dac8fc2697ff9baa0538353a3893bdc8daa9eb125f6680804fc6f63e07ba1a1b65329614325528a54a056e81f171bcc55a6ff8345e692c0f86e5b48e01b996cadc001622fb5e363b421a056e81f171bcc55a6ff8345e692c0f86e5b48e01b996cadc001622fb5e363b421b90100000000000000000000000000000000000000000000000000000000000000000000000000000000000000000000000000000000000000000000000000000000000000000000000000000000000000000000000000000000000000000000000000000000000000000000000000000000000000000000000000000000000000000000000000000000000000000000000000000000000000000000000000000000000000000000000000000000000000000000000000000000000000000000000000000000000000000000000000000000000000000000000000000000000000000000000000000000000000000000000000000000000000000000000000000000008080851000000000808000a0000000000000000000000000000000000000000000000000000000000002000088000000000000000008a056e81f171bcc55a6ff8345e692c0f86e5b48e01b996cadc001622fb5e363b4218080a00000000000000000000000000000000000000000000000000000000000000000c0c0c0",
        "lastblockhash" : "0xf047dd124256a61fced19bf9578436c476a8cb01c4c4af4331a15531bd9fac0e",
        "network" : "Cancun",
        "postState" : {
            "0x095e7baea6a6c7c4c2dfeb977efac326af552d87" : {
                "balance" : "0x0de0b6b3a76586a0",
                "code" : "0x600a4960005500",
                "nonce" : "0x00",
                "storage" : {
                }
            },
            "0x2adc25665018aa1fe0e6bc666dac8fc2697ff9ba" : {
                "balance" : "0xd562",
                "code" : "0x",
                "nonce" : "0x00",
                "storage" : {
                }
            },
            "0xa94f5374fce5edbc8e2a8697c15331677e6ebf0b" : {
                "balance" : "0x0de0b6b3a752b927",
                "code" : "0x",
                "nonce" : "0x01",
                "storage" : {
                }
            }
        },
        "pre" : {
            "0x095e7baea6a6c7c4c2dfeb977efac326af552d87" : {
                "balance" : "0x0de0b6b3a7640000",
                "code" : "0x600a4960005500",
                "nonce" : "0x00",
                "storage" : {
                }
            },
            "0xa94f5374fce5edbc8e2a8697c15331677e6ebf0b" : {
                "balance" : "0x0de0b6b3a7640000",
                "code" : "0x",
                "nonce" : "0x00",
                "storage" : {
                }
            }
        },
        "sealEngine" : "NoProof"
    }
}