{
    "TransactionWithSvaluePrefixed00" : {
        "_info" : {
            "comment" : "",
            "filledwith" : "cpp-1.3.0+commit.6e0ce939.Linux.g++",
            "lllcversion" : "Version: 0.4.18-develop.2017.10.6+commit.6c09e32c.Linux.g++",
            "source" : "src/TransactionTestsFiller/ttEip158/TransactionWithSvaluePrefixed00Filler.json",
            "sourceHash" : "f1a553cbf97593313279bfb19d577fc29e76c04d6cd76b0835cf990e9c7162c2"
        },
        "blocknumber" : "2675000",
        "hash" : "e105dd8e6927c4c27d69b5c3926a521208181ed830134685293479b05729ae54",
        "rlp" : "0xf851800182520894095e7baea6a6c7c4c2dfeb977efac326af552d870b801ba098ff921201554726367d2be8c804a7ff89ccf285ebc57dff8ae4c44b9c19ac4a920ef0b28ad43601b4ab949f53faa07bd2c804",
        "sender" : "a825d77f343f31619c991cd7db5aaa6adbe9452e",
        "transaction" : {
            "data" : "",
            "gasLimit" : "0x5208",
            "gasPrice" : "0x01",
            "nonce" : "0x00",
            "r" : "0x98ff921201554726367d2be8c804a7ff89ccf285ebc57dff8ae4c44b9c19ac4a",
            "s" : "0xef0b28ad43601b4ab949f53faa07bd2c804",
            "to" : "0x095e7baea6a6c7c4c2dfeb977efac326af552d87",
            "v" : "0x1b",
            "value" : "0x0b"
        }
    }
}