{
    "and" : {
        "_info" : {
            "comment" : "Ori Pomerantz qbzzt1@gmail.com",
            "filling-rpc-server" : "evm version 1.10.2-unstable-22082f9e-20210309",
            "filling-tool-version" : "retesteth-0.1.0-accesslist+commit.47c69eb3.Linux.g++",
            "lllcversion" : "Version: 0.5.14-develop.2020.6.22+commit.9189ad7a.Linux.g++",
            "source" : "src/GeneralStateTestsFiller/VMTests/vmBitwiseLogicOperation/andFiller.yml",
            "sourceHash" : "0622defdc0406352723dc2701f58eb5efd3a8add1f1653886fd5ce498fd17017",
            "labels" : {
                "0" : ":label and_2_2",
                "1" : ":label and_2_1",
                "2" : ":label and_3_1",
                "3" : ":label and_allones_bignum",
                "4" : ":label and_allones_eefee"
            }
        },
        "env" : {
            "currentCoinbase" : "0x2adc25665018aa1fe0e6bc666dac8fc2697ff9ba",
            "currentDifficulty" : "0x020000",
            "currentGasLimit" : "0x05f5e100",
            "currentNumber" : "0x01",
            "currentTimestamp" : "0x03e8",
            "previousHash" : "0x5e20a0453cecd065ea59c37ac63e079ee08998b6045136a8ce6635c7912ec0b6"
        },
        "post" : {
            "Berlin" : [
                {
                    "indexes" : {
                        "data" : 0,
                        "gas" : 0,
                        "value" : 0
                    },
                    "hash" : "0x294807edcc0199bdbf9e704ea266f78b33d18e5453cdabb3faf8c7d79e600c7e",
                    "txbytes" : "0xf88580018404c4b40094cccccccccccccccccccccccccccccccccccccccc01a4693c613900000000000000000000000000000000000000000000000000000000000000001ba08eeba432a3954ac6c47e39f71bcce15296d3ee164806e14574a281d2ef1e5cd8a0516a699c0ea68c77c9993ee65510c2c49c3365439c9ad7d7acea2ba315e82257",
                    "logs" : "0x1dcc4de8dec75d7aab85b567b6ccd41ad312451b948a7413f0a142fd40d49347"
                },
                {
                    "indexes" : {
                        "data" : 2,
                        "gas" : 0,
                        "value" : 0
                    },
                    "hash" : "0x83954432ea2f4b07b2fa81daee4c243719b303bcf50f1eefe78cf7e46f0ea707",
                    "txbytes" : "0xf88580018404c4b40094cccccccccccccccccccccccccccccccccccccccc01a4693c613900000000000000000000000000000000000000000000000000000000000000021ba06e91e88d6ff9824c63967c05d2721afbdc408723585adced759ae0bf00b26a39a01072e7a06f7962bee3c171fc458e21c4f25c2603d69d544442cfaf5ab4ee6251",
                    "logs" : "0x1dcc4de8dec75d7aab85b567b6ccd41ad312451b948a7413f0a142fd40d49347"
                },
                {
                    "indexes" : {
                        "data" : 3,
                        "gas" : 0,
                        "value" : 0
                    },
                    "hash" : "0x4a132abe4c8e25021bbc19c822aebc51892f20d587238dcd4adc96988634754c",
                    "txbytes" : "0xf88580018404c4b40094cccccccccccccccccccccccccccccccccccccccc01a4693c613900000000000000000000000000000000000000000000000000000000000000031ca01495a7e1cd0a8ee6b7a2f3b6e027a5df32b05f45ecd372e78b84b3b428d918c5a0508e56b49ed794f2a3bec92325f7611fc02fe006b2d701f2fa5a77bc6c279967",
                    "logs" : "0x1dcc4de8dec75d7aab85b567b6ccd41ad312451b948a7413f0a142fd40d49347"
                },
                {
                    "indexes" : {
                        "data" : 4,
                        "gas" : 0,
                        "value" : 0
                    },
                    "hash" : "0xa7caa1d59d6853ec24cc42cec70c3d9da77a9f2211af62910238caf3b48db586",
                    "txbytes" : "0xf88580018404c4b40094cccccccccccccccccccccccccccccccccccccccc01a4693c613900000000000000000000000000000000000000000000000000000000000000041ba0c4a345e3a1be0474cc3cb24b853698a3b8311b6d9d77d259b89a7d4c7ed8ffc7a052742442d9e4f93cb675cd2d2295250e6e4ca11dbb2c64af3f83f6f8d0993d45",
                    "logs" : "0x1dcc4de8dec75d7aab85b567b6ccd41ad312451b948a7413f0a142fd40d49347"
                },
                {
                    "indexes" : {
                        "data" : 1,
                        "gas" : 0,
                        "value" : 0
                    },
                    "hash" : "0xc6fd58fbc6b8729e13f33798990bd886e182831dc20f425d7f926c37f2684b0a",
                    "txbytes" : "0xf88580018404c4b40094cccccccccccccccccccccccccccccccccccccccc01a4693c613900000000000000000000000000000000000000000000000000000000000000011ba0a10a6d356c5027b495e3713bf1fdba3b303ac8f7712bdd34d703273e50c45c4fa01e429194b2ae11a1a823478aff677f2b408cc63cae46ec72a092c14d4d6d739b",
                    "logs" : "0x1dcc4de8dec75d7aab85b567b6ccd41ad312451b948a7413f0a142fd40d49347"
                }
            ],
            "Istanbul" : [
                {
                    "indexes" : {
                        "data" : 0,
                        "gas" : 0,
                        "value" : 0
                    },
                    "hash" : "0x304e955131d622b85572dccd43e2250e485ef8f465a2f6a7b5c8ff4dfbd7476e",
                    "txbytes" : "0xf88580018404c4b40094cccccccccccccccccccccccccccccccccccccccc01a4693c613900000000000000000000000000000000000000000000000000000000000000001ba08eeba432a3954ac6c47e39f71bcce15296d3ee164806e14574a281d2ef1e5cd8a0516a699c0ea68c77c9993ee65510c2c49c3365439c9ad7d7acea2ba315e82257",
                    "logs" : "0x1dcc4de8dec75d7aab85b567b6ccd41ad312451b948a7413f0a142fd40d49347"
                },
                {
                    "indexes" : {
                        "data" : 2,
                        "gas" : 0,
                        "value" : 0
                    },
                    "hash" : "0x31a78430cd157d7eee6b54e01db1c334729f6791e1399ddaac3e30c0debc577a",
                    "txbytes" : "0xf88580018404c4b40094cccccccccccccccccccccccccccccccccccccccc01a4693c613900000000000000000000000000000000000000000000000000000000000000021ba06e91e88d6ff9824c63967c05d2721afbdc408723585adced759ae0bf00b26a39a01072e7a06f7962bee3c171fc458e21c4f25c2603d69d544442cfaf5ab4ee6251",
                    "logs" : "0x1dcc4de8dec75d7aab85b567b6ccd41ad312451b948a7413f0a142fd40d49347"
                },
                {
                    "indexes" : {
                        "data" : 3,
                        "gas" : 0,
                        "value" : 0
                    },
                    "hash" : "0xfc3436efdb08e73eedeeb87886399d71748c6cf983d3ac6aa87a8ccfdafd9714",
                    "txbytes" : "0xf88580018404c4b40094cccccccccccccccccccccccccccccccccccccccc01a4693c613900000000000000000000000000000000000000000000000000000000000000031ca01495a7e1cd0a8ee6b7a2f3b6e027a5df32b05f45ecd372e78b84b3b428d918c5a0508e56b49ed794f2a3bec92325f7611fc02fe006b2d701f2fa5a77bc6c279967",
                    "logs" : "0x1dcc4de8dec75d7aab85b567b6ccd41ad312451b948a7413f0a142fd40d49347"
                },
                {
                    "indexes" : {
                        "data" : 4,
                        "gas" : 0,
                        "value" : 0
                    },
                    "hash" : "0x7519cc98111db189f3b6e61340ba6172a54d01cb8e07cb26dc1d6addaad9fe5d",
                    "txbytes" : "0xf88580018404c4b40094cccccccccccccccccccccccccccccccccccccccc01a4693c613900000000000000000000000000000000000000000000000000000000000000041ba0c4a345e3a1be0474cc3cb24b853698a3b8311b6d9d77d259b89a7d4c7ed8ffc7a052742442d9e4f93cb675cd2d2295250e6e4ca11dbb2c64af3f83f6f8d0993d45",
                    "logs" : "0x1dcc4de8dec75d7aab85b567b6ccd41ad312451b948a7413f0a142fd40d49347"
                },
                {
                    "indexes" : {
                        "data" : 1,
                        "gas" : 0,
                        "value" : 0
                    },
                    "hash" : "0x7433c7d537b1e2b22e729c0498aa95f89d8b7753daba0a89fc397240812d1692",
                    "txbytes" : "0xf88580018404c4b40094cccccccccccccccccccccccccccccccccccccccc01a4693c613900000000000000000000000000000000000000000000000000000000000000011ba0a10a6d356c5027b495e3713bf1fdba3b303ac8f7712bdd34d703273e50c45c4fa01e429194b2ae11a1a823478aff677f2b408cc63cae46ec72a092c14d4d6d739b",
                    "logs" : "0x1dcc4de8dec75d7aab85b567b6ccd41ad312451b948a7413f0a142fd40d49347"
                }
            ]
        },
        "pre" : {
            "0x0000000000000000000000000000000000000100" : {
                "balance" : "0x0ba1a9ce0ba1a9ce",
                "code" : "0x600260021660005500",
                "nonce" : "0x00",
                "storage" : {
                }
            },
            "0x0000000000000000000000000000000000000101" : {
                "balance" : "0x0ba1a9ce0ba1a9ce",
                "code" : "0x600160021660005500",
                "nonce" : "0x00",
                "storage" : {
                }
            },
            "0x0000000000000000000000000000000000000102" : {
                "balance" : "0x0ba1a9ce0ba1a9ce",
                "code" : "0x600160031660005500",
                "nonce" : "0x00",
                "storage" : {
                }
            },
            "0x0000000000000000000000000000000000000103" : {
                "balance" : "0x0ba1a9ce0ba1a9ce",
                "code" : "0x7f0123456789abcdef0123456789abcdef0123456789abcdef0123456789abcdef7fffffffffffffffffffffffffffffffffffffffffffffffffffffffffffffffff1660005500",
                "nonce" : "0x00",
                "storage" : {
                }
            },
            "0x0000000000000000000000000000000000000104" : {
                "balance" : "0x0ba1a9ce0ba1a9ce",
                "code" : "0x7fffffffffffffffffffffffffffffffffffffffffffffffffffffffffffffffff7feeeeeeeeeeeeeeeeeeeeeeeeeeeeefeeeeeeeeeeeeeeeeeeeeeeeeeeeeeeeeee1660005500",
                "nonce" : "0x00",
                "storage" : {
                }
            },
            "0xa94f5374fce5edbc8e2a8697c15331677e6ebf0b" : {
                "balance" : "0x0ba1a9ce0ba1a9ce",
                "code" : "0x",
                "nonce" : "0x00",
                "storage" : {
                }
            },
            "0xcccccccccccccccccccccccccccccccccccccccc" : {
                "balance" : "0x0ba1a9ce0ba1a9ce",
                "code" : "0x600060006000600060006004356101000162fffffff100",
                "nonce" : "0x00",
                "storage" : {
                }
            }
        },
        "transaction" : {
            "data" : [
                "0x693c61390000000000000000000000000000000000000000000000000000000000000000",
                "0x693c61390000000000000000000000000000000000000000000000000000000000000001",
                "0x693c61390000000000000000000000000000000000000000000000000000000000000002",
                "0x693c61390000000000000000000000000000000000000000000000000000000000000003",
                "0x693c61390000000000000000000000000000000000000000000000000000000000000004"
            ],
            "gasLimit" : [
                "0x04c4b400"
            ],
            "gasPrice" : "0x01",
            "nonce" : "0x00",
            "secretKey" : "0x45a915e4d060149eb4365960e6a7a45f334393093061116b197e3240065ff2d8",
            "to" : "0xcccccccccccccccccccccccccccccccccccccccc",
            "value" : [
                "0x01"
            ]
        }
    }
}