{
    "not" : {
        "_info" : {
            "comment" : "Ori Pomerantz qbzzt1@gmail.com",
            "filling-rpc-server" : "evm version 1.10.2-unstable-22082f9e-20210309",
            "filling-tool-version" : "retesteth-0.1.0-accesslist+commit.47c69eb3.Linux.g++",
            "lllcversion" : "Version: 0.5.14-develop.2020.6.22+commit.9189ad7a.Linux.g++",
            "source" : "src/GeneralStateTestsFiller/VMTests/vmBitwiseLogicOperation/notFiller.yml",
            "sourceHash" : "95f030d1e7efd9a0c88711556f4dfb8e00af36cb525cffe2acf5dae69c0ebc9d",
            "labels" : {
                "0" : ":label not_0",
                "1" : ":label not_2",
                "2" : ":label not_allones",
                "3" : ":label not_neg2",
                "4" : ":label not_neg_2_pow_256",
                "5" : ":label not_neg0"
            }
        },
        "env" : {
            "currentCoinbase" : "0x2adc25665018aa1fe0e6bc666dac8fc2697ff9ba",
            "currentDifficulty" : "0x020000",
            "currentGasLimit" : "0x05f5e100",
            "currentNumber" : "0x01",
            "currentTimestamp" : "0x03e8",
            "previousHash" : "0x5e20a0453cecd065ea59c37ac63e079ee08998b6045136a8ce6635c7912ec0b6"
        },
        "post" : {
            "Berlin" : [
                {
                    "indexes" : {
                        "data" : 0,
                        "gas" : 0,
                        "value" : 0
                    },
                    "hash" : "0xcf12f153ca219f366b339a979dce522b8cc2a2b9b0638bed592be4936b1bc01e",
                    "txbytes" : "0xf88580018404c4b40094cccccccccccccccccccccccccccccccccccccccc01a4693c613900000000000000000000000000000000000000000000000000000000000000001ba08eeba432a3954ac6c47e39f71bcce15296d3ee164806e14574a281d2ef1e5cd8a0516a699c0ea68c77c9993ee65510c2c49c3365439c9ad7d7acea2ba315e82257",
                    "logs" : "0x1dcc4de8dec75d7aab85b567b6ccd41ad312451b948a7413f0a142fd40d49347"
                },
                {
                    "indexes" : {
                        "data" : 1,
                        "gas" : 0,
                        "value" : 0
                    },
                    "hash" : "0x106cd6e55c2737e4805cf1664f84feb62b4de0f9a26aaf84bbd756ac53318f26",
                    "txbytes" : "0xf88580018404c4b40094cccccccccccccccccccccccccccccccccccccccc01a4693c613900000000000000000000000000000000000000000000000000000000000000011ba0a10a6d356c5027b495e3713bf1fdba3b303ac8f7712bdd34d703273e50c45c4fa01e429194b2ae11a1a823478aff677f2b408cc63cae46ec72a092c14d4d6d739b",
                    "logs" : "0x1dcc4de8dec75d7aab85b567b6ccd41ad312451b948a7413f0a142fd40d49347"
                },
                {
                    "indexes" : {
                        "data" : 2,
                        "gas" : 0,
                        "value" : 0
                    },
                    "hash" : "0x1b4f8705e07fa7ef347a4293a1946e7ae137d042a7e4931141b01d720b8a4cb6",
                    "txbytes" : "0xf88580018404c4b40094cccccccccccccccccccccccccccccccccccccccc01a4693c613900000000000000000000000000000000000000000000000000000000000000021ba06e91e88d6ff9824c63967c05d2721afbdc408723585adced759ae0bf00b26a39a01072e7a06f7962bee3c171fc458e21c4f25c2603d69d544442cfaf5ab4ee6251",
                    "logs" : "0x1dcc4de8dec75d7aab85b567b6ccd41ad312451b948a7413f0a142fd40d49347"
                },
                {
                    "indexes" : {
                        "data" : 3,
                        "gas" : 0,
                        "value" : 0
                    },
                    "hash" : "0x29dfd9aec1450d3bdacc9fe34b7418e4610ee5b5682878c6aa88d65664df8676",
                    "txbytes" : "0xf88580018404c4b40094cccccccccccccccccccccccccccccccccccccccc01a4693c613900000000000000000000000000000000000000000000000000000000000000031ca01495a7e1cd0a8ee6b7a2f3b6e027a5df32b05f45ecd372e78b84b3b428d918c5a0508e56b49ed794f2a3bec92325f7611fc02fe006b2d701f2fa5a77bc6c279967",
                    "logs" : "0x1dcc4de8dec75d7aab85b567b6ccd41ad312451b948a7413f0a142fd40d49347"
                },
                {
                    "indexes" : {
                        "data" : 4,
                        "gas" : 0,
                        "value" : 0
                    },
                    "hash" : "0x4340781c6c33fd21cb9853584713a6102fa8baa0b6c32d548049bdf3102d8a68",
                    "txbytes" : "0xf88580018404c4b40094cccccccccccccccccccccccccccccccccccccccc01a4693c613900000000000000000000000000000000000000000000000000000000000000041ba0c4a345e3a1be0474cc3cb24b853698a3b8311b6d9d77d259b89a7d4c7ed8ffc7a052742442d9e4f93cb675cd2d2295250e6e4ca11dbb2c64af3f83f6f8d0993d45",
                    "logs" : "0x1dcc4de8dec75d7aab85b567b6ccd41ad312451b948a7413f0a142fd40d49347"
                },
                {
                    "indexes" : {
                        "data" : 5,
                        "gas" : 0,
                        "value" : 0
                    },
                    "hash" : "0x82db35da05ad51d1074b6300b12380cf8da23fef1a4283a91391162aed843502",
                    "txbytes" : "0xf88580018404c4b40094cccccccccccccccccccccccccccccccccccccccc01a4693c613900000000000000000000000000000000000000000000000000000000000000051ca0ce4f2e2d7adb90e6968b7f2e53dfb322f253e3874b805e0e00a7450e9791bc15a007b52143255bc915f07611ef9249aa2398ac1302524770e6e5a80aed52804edb",
                    "logs" : "0x1dcc4de8dec75d7aab85b567b6ccd41ad312451b948a7413f0a142fd40d49347"
                }
            ],
            "Istanbul" : [
                {
                    "indexes" : {
                        "data" : 0,
                        "gas" : 0,
                        "value" : 0
                    },
                    "hash" : "0x08a62fee54481b730f7dbcf66d112a721d24ba870f137cdcff11e9c3affd46aa",
                    "txbytes" : "0xf88580018404c4b40094cccccccccccccccccccccccccccccccccccccccc01a4693c613900000000000000000000000000000000000000000000000000000000000000001ba08eeba432a3954ac6c47e39f71bcce15296d3ee164806e14574a281d2ef1e5cd8a0516a699c0ea68c77c9993ee65510c2c49c3365439c9ad7d7acea2ba315e82257",
                    "logs" : "0x1dcc4de8dec75d7aab85b567b6ccd41ad312451b948a7413f0a142fd40d49347"
                },
                {
                    "indexes" : {
                        "data" : 1,
                        "gas" : 0,
                        "value" : 0
                    },
                    "hash" : "0x197bdad44973fb3af2ceb5094acf6ceb1e8a8a32a4ab9ef8cc6b9e7f0423737d",
                    "txbytes" : "0xf88580018404c4b40094cccccccccccccccccccccccccccccccccccccccc01a4693c613900000000000000000000000000000000000000000000000000000000000000011ba0a10a6d356c5027b495e3713bf1fdba3b303ac8f7712bdd34d703273e50c45c4fa01e429194b2ae11a1a823478aff677f2b408cc63cae46ec72a092c14d4d6d739b",
                    "logs" : "0x1dcc4de8dec75d7aab85b567b6ccd41ad312451b948a7413f0a142fd40d49347"
                },
                {
                    "indexes" : {
                        "data" : 2,
                        "gas" : 0,
                        "value" : 0
                    },
                    "hash" : "0x82bfff03541e7924b8e87b942d78bb7fa13383ce6803b5c2e7970718ebba0087",
                    "txbytes" : "0xf88580018404c4b40094cccccccccccccccccccccccccccccccccccccccc01a4693c613900000000000000000000000000000000000000000000000000000000000000021ba06e91e88d6ff9824c63967c05d2721afbdc408723585adced759ae0bf00b26a39a01072e7a06f7962bee3c171fc458e21c4f25c2603d69d544442cfaf5ab4ee6251",
                    "logs" : "0x1dcc4de8dec75d7aab85b567b6ccd41ad312451b948a7413f0a142fd40d49347"
                },
                {
                    "indexes" : {
                        "data" : 3,
                        "gas" : 0,
                        "value" : 0
                    },
                    "hash" : "0x7ef68c339e416995c5f63025af94721b303536b60ec4038624fdbc289145bfc3",
                    "txbytes" : "0xf88580018404c4b40094cccccccccccccccccccccccccccccccccccccccc01a4693c613900000000000000000000000000000000000000000000000000000000000000031ca01495a7e1cd0a8ee6b7a2f3b6e027a5df32b05f45ecd372e78b84b3b428d918c5a0508e56b49ed794f2a3bec92325f7611fc02fe006b2d701f2fa5a77bc6c279967",
                    "logs" : "0x1dcc4de8dec75d7aab85b567b6ccd41ad312451b948a7413f0a142fd40d49347"
                },
                {
                    "indexes" : {
                        "data" : 4,
                        "gas" : 0,
                        "value" : 0
                    },
                    "hash" : "0x160043adb6c609fa74d23f2d78b20825ead7d167cff35170ee43cf115434dba9",
                    "txbytes" : "0xf88580018404c4b40094cccccccccccccccccccccccccccccccccccccccc01a4693c613900000000000000000000000000000000000000000000000000000000000000041ba0c4a345e3a1be0474cc3cb24b853698a3b8311b6d9d77d259b89a7d4c7ed8ffc7a052742442d9e4f93cb675cd2d2295250e6e4ca11dbb2c64af3f83f6f8d0993d45",
                    "logs" : "0x1dcc4de8dec75d7aab85b567b6ccd41ad312451b948a7413f0a142fd40d49347"
                },
                {
                    "indexes" : {
                        "data" : 5,
                        "gas" : 0,
                        "value" : 0
                    },
                    "hash" : "0x8bc8d171bebe7fc9614f3264983700ae6929eeff1431108a8d7992c9523cdcee",
                    "txbytes" : "0xf88580018404c4b40094cccccccccccccccccccccccccccccccccccccccc01a4693c613900000000000000000000000000000000000000000000000000000000000000051ca0ce4f2e2d7adb90e6968b7f2e53dfb322f253e3874b805e0e00a7450e9791bc15a007b52143255bc915f07611ef9249aa2398ac1302524770e6e5a80aed52804edb",
                    "logs" : "0x1dcc4de8dec75d7aab85b567b6ccd41ad312451b948a7413f0a142fd40d49347"
                }
            ]
        },
        "pre" : {
            "0x0000000000000000000000000000000000000100" : {
                "balance" : "0x0ba1a9ce0ba1a9ce",
                "code" : "0x60001960005500",
                "nonce" : "0x00",
                "storage" : {
                }
            },
            "0x0000000000000000000000000000000000000101" : {
                "balance" : "0x0ba1a9ce0ba1a9ce",
                "code" : "0x60021960005500",
                "nonce" : "0x00",
                "storage" : {
                }
            },
            "0x0000000000000000000000000000000000000102" : {
                "balance" : "0x0ba1a9ce0ba1a9ce",
                "code" : "0x7fffffffffffffffffffffffffffffffffffffffffffffffffffffffffffffffff1960005500",
                "nonce" : "0x00",
                "storage" : {
                }
            },
            "0x0000000000000000000000000000000000000103" : {
                "balance" : "0x0ba1a9ce0ba1a9ce",
                "code" : "0x60026000031960005500",
                "nonce" : "0x00",
                "storage" : {
                }
            },
            "0x0000000000000000000000000000000000000104" : {
                "balance" : "0x0ba1a9ce0ba1a9ce",
                "code" : "0x7fffffffffffffffffffffffffffffffffffffffffffffffffffffffffffffffff6000031960005500",
                "nonce" : "0x00",
                "storage" : {
                }
            },
            "0x0000000000000000000000000000000000000105" : {
                "balance" : "0x0ba1a9ce0ba1a9ce",
                "code" : "0x60006000031960005500",
                "nonce" : "0x00",
                "storage" : {
                }
            },
            "0xa94f5374fce5edbc8e2a8697c15331677e6ebf0b" : {
                "balance" : "0x0ba1a9ce0ba1a9ce",
                "code" : "0x",
                "nonce" : "0x00",
                "storage" : {
                }
            },
            "0xcccccccccccccccccccccccccccccccccccccccc" : {
                "balance" : "0x0ba1a9ce0ba1a9ce",
                "code" : "0x600060006000600060006004356101000162fffffff100",
                "nonce" : "0x00",
                "storage" : {
                }
            }
        },
        "transaction" : {
            "data" : [
                "0x693c61390000000000000000000000000000000000000000000000000000000000000000",
                "0x693c61390000000000000000000000000000000000000000000000000000000000000001",
                "0x693c61390000000000000000000000000000000000000000000000000000000000000002",
                "0x693c61390000000000000000000000000000000000000000000000000000000000000003",
                "0x693c61390000000000000000000000000000000000000000000000000000000000000004",
                "0x693c61390000000000000000000000000000000000000000000000000000000000000005"
            ],
            "gasLimit" : [
                "0x04c4b400"
            ],
            "gasPrice" : "0x01",
            "nonce" : "0x00",
            "secretKey" : "0x45a915e4d060149eb4365960e6a7a45f334393093061116b197e3240065ff2d8",
            "to" : "0xcccccccccccccccccccccccccccccccccccccccc",
            "value" : [
                "0x01"
            ]
        }
    }
}