{
    "cancunExample_Cancun" : {
        "_info" : {
            "comment" : "Note that difficulty of genesisHeader is auto corrected to 0x00 on PoS forks, as well as mixHash",
            "filling-rpc-server" : "evm version 1.12.1-unstable-4c0559f5-20230731",
            "filling-tool-version" : "retesteth-0.3.1-cancun+commit.cff06e77.Linux.g++",
            "generatedTestHash" : "35b8f3fc59c72754cb34016ac60de2a639283d4eaf5729beab1bfa0fcb3aa8c9",
            "lllcversion" : "Version: 0.5.14-develop.2023.7.11+commit.c58ab2c6.mod.Linux.g++",
            "solidity" : "Version: 0.8.20+commit.a1b79de6.Linux.g++",
            "source" : "src/BlockchainTestsFiller/ValidBlocks/bcExample/cancunExampleFiller.json",
            "sourceHash" : "d821b4691698262a8b804a80d7b17ee0623b2fb0797dbb5e2fc2ee3e48166909"
        },
        "blocks" : [
            {
                "blockHeader" : {
                    "baseFeePerGas" : "0x09",
                    "parentBeaconBlockRoot" : "0x0000000000000000000000000000000000000000000000000000000000000000",
                    "blobGasUsed" : "0x020000",
                    "bloom" : "0x00000000000000000000000000000000000000000000000000000000000000000000000000000000000000000000000000000000000000000000000000000000000000000000000000000000000000000000000000000000000000000000000000000000000000000000000000000000000000000000000000000000000000000000000000000000000000000000000000000000000000000000000000000000000000000000000000000000000000000000000000000000000000000000000000000000000000000000000000000000000000000000000000000000000000000000000000000000000000000000000000000000000000000000000000000000",
                    "coinbase" : "0x2adc25665018aa1fe0e6bc666dac8fc2697ff9ba",
                    "difficulty" : "0x00",
                    "excessBlobGas" : "0x00",
                    "extraData" : "0x42",
                    "gasLimit" : "0x7fffffffffffffff",
                    "gasUsed" : "0xa865",
                    "hash" : "0x819fe36db3da42aa3d9febe1565d39c7f8d847cc782f1049fffd4f38349171e3",
                    "mixHash" : "0x56e81f171bcc55a6ff8345e692c0f86e5b48e01b996cadc001622fb5e363b421",
                    "nonce" : "0x0000000000000000",
                    "number" : "0x01",
                    "parentHash" : "0xad2e5c7a196adf6363eec3bdbb22db264d6f24bf4c3707c8cb088dd02af7edd5",
                    "receiptTrie" : "0xbff643da765981266133094092d98c81d2ac8e9a83a7bbda46c3d736f1f874ac",
                    "stateRoot" : "0xa40cb3fab01848e922a48bd24191815df9f721ad4b60376edac75161517663e8",
                    "timestamp" : "0x079e",
                    "transactionsTrie" : "0x4409cc4b699384ba5f8248d92b784713610c5ff9c1de51e9239da0dac76de9ce",
                    "uncleHash" : "0x1dcc4de8dec75d7aab85b567b6ccd41ad312451b948a7413f0a142fd40d49347",
                    "withdrawalsRoot" : "0x56e81f171bcc55a6ff8345e692c0f86e5b48e01b996cadc001622fb5e363b421"
                },
                "blocknumber" : "1",
                "chainname" : "default",
                "rlp" : "0xf902d3f90241a0ad2e5c7a196adf6363eec3bdbb22db264d6f24bf4c3707c8cb088dd02af7edd5a01dcc4de8dec75d7aab85b567b6ccd41ad312451b948a7413f0a142fd40d49347942adc25665018aa1fe0e6bc666dac8fc2697ff9baa0a40cb3fab01848e922a48bd24191815df9f721ad4b60376edac75161517663e8a04409cc4b699384ba5f8248d92b784713610c5ff9c1de51e9239da0dac76de9cea0bff643da765981266133094092d98c81d2ac8e9a83a7bbda46c3d736f1f874acb90100000000000000000000000000000000000000000000000000000000000000000000000000000000000000000000000000000000000000000000000000000000000000000000000000000000000000000000000000000000000000000000000000000000000000000000000000000000000000000000000000000000000000000000000000000000000000000000000000000000000000000000000000000000000000000000000000000000000000000000000000000000000000000000000000000000000000000000000000000000000000000000000000000000000000000000000000000000000000000000000000000000000000000000000000000000008001887fffffffffffffff82a86582079e42a056e81f171bcc55a6ff8345e692c0f86e5b48e01b996cadc001622fb5e363b42188000000000000000009a056e81f171bcc55a6ff8345e692c0f86e5b48e01b996cadc001622fb5e363b4218302000080a00000000000000000000000000000000000000000000000000000000000000000f88bb88903f8860180026483061a8094b94f5374fce5edbc8e2a8697c15331677e6ebf0b8080c00ae1a001a915e4d060149eb4365960e6a7a45f334393093061116b197e3240065ff2d801a025e16bb498552165016751911c3608d79000ab89dc3100776e729e6ea13091c7a03acacff7fc0cff6eda8a927dec93ca17765e1ee6cbc06c5954ce102e097c01d2c0c0",
                "transactions" : [
                    {
                        "accessList" : [
                        ],
                        "blobVersionedHashes" : [
                            "0x01a915e4d060149eb4365960e6a7a45f334393093061116b197e3240065ff2d8"
                        ],
                        "chainId" : "0x01",
                        "data" : "0x",
                        "gasLimit" : "0x061a80",
                        "maxFeePerBlobGas" : "0x0a",
                        "maxFeePerGas" : "0x64",
                        "maxPriorityFeePerGas" : "0x02",
                        "nonce" : "0x00",
                        "r" : "0x25e16bb498552165016751911c3608d79000ab89dc3100776e729e6ea13091c7",
                        "s" : "0x3acacff7fc0cff6eda8a927dec93ca17765e1ee6cbc06c5954ce102e097c01d2",
                        "sender" : "0xa94f5374fce5edbc8e2a8697c15331677e6ebf0b",
                        "to" : "0xb94f5374fce5edbc8e2a8697c15331677e6ebf0b",
                        "type" : "0x03",
                        "v" : "0x01",
                        "value" : "0x00"
                    }
                ],
                "uncleHeaders" : [
                ],
                "withdrawals" : [
                ]
            }
        ],
        "genesisBlockHeader" : {
            "baseFeePerGas" : "0x0a",
            "parentBeaconBlockRoot" : "0x0000000000000000000000000000000000000000000000000000000000000000",
            "blobGasUsed" : "0x00",
            "bloom" : "0x00000000000000000000000000000000000000000000000000000000000000000000000000000000000000000000000000000000000000000000000000000000000000000000000000000000000000000000000000000000000000000000000000000000000000000000000000000000000000000000000000000000000000000000000000000000000000000000000000000000000000000000000000000000000000000000000000000000000000000000000000000000000000000000000000000000000000000000000000000000000000000000000000000000000000000000000000000000000000000000000000000000000000000000000000000000",
            "coinbase" : "0x2adc25665018aa1fe0e6bc666dac8fc2697ff9ba",
            "difficulty" : "0x00",
            "excessBlobGas" : "0x00",
            "extraData" : "0x42",
            "gasLimit" : "0x7fffffffffffffff",
            "gasUsed" : "0x00",
            "hash" : "0xad2e5c7a196adf6363eec3bdbb22db264d6f24bf4c3707c8cb088dd02af7edd5",
            "mixHash" : "0x56e81f171bcc55a6ff8345e692c0f86e5b48e01b996cadc001622fb5e363b421",
            "nonce" : "0x0000000000000000",
            "number" : "0x00",
            "parentHash" : "0x0000000000000000000000000000000000000000000000000000000000000000",
            "receiptTrie" : "0x56e81f171bcc55a6ff8345e692c0f86e5b48e01b996cadc001622fb5e363b421",
            "stateRoot" : "0x6839086a373fe6d246824ee3235cd95e05d67071e6aa226835b4ba6f90c670b0",
            "timestamp" : "0x03b6",
            "transactionsTrie" : "0x56e81f171bcc55a6ff8345e692c0f86e5b48e01b996cadc001622fb5e363b421",
            "uncleHash" : "0x1dcc4de8dec75d7aab85b567b6ccd41ad312451b948a7413f0a142fd40d49347",
            "withdrawalsRoot" : "0x56e81f171bcc55a6ff8345e692c0f86e5b48e01b996cadc001622fb5e363b421"
        },
        "genesisRLP" : "0xf90242f9023ca00000000000000000000000000000000000000000000000000000000000000000a01dcc4de8dec75d7aab85b567b6ccd41ad312451b948a7413f0a142fd40d49347942adc25665018aa1fe0e6bc666dac8fc2697ff9baa06839086a373fe6d246824ee3235cd95e05d67071e6aa226835b4ba6f90c670b0a056e81f171bcc55a6ff8345e692c0f86e5b48e01b996cadc001622fb5e363b421a056e81f171bcc55a6ff8345e692c0f86e5b48e01b996cadc001622fb5e363b421b90100000000000000000000000000000000000000000000000000000000000000000000000000000000000000000000000000000000000000000000000000000000000000000000000000000000000000000000000000000000000000000000000000000000000000000000000000000000000000000000000000000000000000000000000000000000000000000000000000000000000000000000000000000000000000000000000000000000000000000000000000000000000000000000000000000000000000000000000000000000000000000000000000000000000000000000000000000000000000000000000000000000000000000000000000000000008080887fffffffffffffff808203b642a056e81f171bcc55a6ff8345e692c0f86e5b48e01b996cadc001622fb5e363b4218800000000000000000aa056e81f171bcc55a6ff8345e692c0f86e5b48e01b996cadc001622fb5e363b4218080a00000000000000000000000000000000000000000000000000000000000000000c0c0c0",
        "lastblockhash" : "0x819fe36db3da42aa3d9febe1565d39c7f8d847cc782f1049fffd4f38349171e3",
        "network" : "Cancun",
        "postState" : {
            "0x2adc25665018aa1fe0e6bc666dac8fc2697ff9ba" : {
                "balance" : "0x0150ca",
                "code" : "0x",
                "nonce" : "0x00",
                "storage" : {
                }
            },
            "0xa94f5374fce5edbc8e2a8697c15331677e6ebf0b" : {
                "balance" : "0x016345785d80c3a9",
                "code" : "0x",
                "nonce" : "0x01",
                "storage" : {
                }
            },
            "0xb94f5374fce5edbc8e2a8697c15331677e6ebf0b" : {
                "balance" : "0x016345785d8a0000",
                "code" : "0x60004960015500",
                "nonce" : "0x00",
                "storage" : {
                    "0x01" : "0x01a915e4d060149eb4365960e6a7a45f334393093061116b197e3240065ff2d8"
                }
            }
        },
        "pre" : {
            "0xa94f5374fce5edbc8e2a8697c15331677e6ebf0b" : {
                "balance" : "0x016345785d8a0000",
                "code" : "0x",
                "nonce" : "0x00",
                "storage" : {
                }
            },
            "0xb94f5374fce5edbc8e2a8697c15331677e6ebf0b" : {
                "balance" : "0x016345785d8a0000",
                "code" : "0x60004960015500",
                "nonce" : "0x00",
                "storage" : {
                }
            }
        },
        "sealEngine" : "NoProof"
    }
}