{
    "calldatacopy_DataIndexTooHigh_return_Berlin" : {
        "_info" : {
            "comment" : "Converted from VMTest source. ",
            "filling-rpc-server" : "evm version 1.10.2-unstable-22082f9e-20210309",
            "filling-tool-version" : "retesteth-0.1.0-accesslist+commit.47c69eb3.Linux.g++",
            "lllcversion" : "Version: 0.5.14-develop.2020.6.22+commit.9189ad7a.Linux.g++",
            "source" : "src/VMTestsFiller/vmEnvironmentalInfo/calldatacopy_DataIndexTooHigh_returnFiller.json",
            "sourceHash" : "d40d6c8f3b1a5a6e4906850230eb9541825f18a6e2c966f2d49ef0825f5f761b"
        },
        "sealEngine" : "NoProof",
        "network" : "Berlin",
        "pre" : {
            "0x0f572e5295c57f15886f9b263e2f6d2d6c7b5ec6" : {
                "balance" : "0x0de0b6b3a7640000",
                "code" : "0x60ff7ffffffffffffffffffffffffffffffffffffffffffffffffffffffffffffffffa600037600051600055596000f300",
                "nonce" : "0x00",
                "storage" : {
                }
            },
            "0xa94f5374fce5edbc8e2a8697c15331677e6ebf0b" : {
                "balance" : "0x7ffffffffffffff0",
                "code" : "0x",
                "nonce" : "0x00",
                "storage" : {
                }
            }
        },
        "genesisBlockHeader" : {
            "bloom" : "0x00000000000000000000000000000000000000000000000000000000000000000000000000000000000000000000000000000000000000000000000000000000000000000000000000000000000000000000000000000000000000000000000000000000000000000000000000000000000000000000000000000000000000000000000000000000000000000000000000000000000000000000000000000000000000000000000000000000000000000000000000000000000000000000000000000000000000000000000000000000000000000000000000000000000000000000000000000000000000000000000000000000000000000000000000000000",
            "coinbase" : "0x2adc25665018aa1fe0e6bc666dac8fc2697ff9ba",
            "difficulty" : "0x020000",
            "extraData" : "0x42",
            "gasLimit" : "0x7fffffffffffffff",
            "gasUsed" : "0x00",
            "hash" : "0xf00a3e8cb85540bc4aafb33e125bb082655eb3c6b21122d31ce3fa9d61c48746",
            "mixHash" : "0x0000000000000000000000000000000000000000000000000000000000000000",
            "nonce" : "0x0000000000000000",
            "number" : "0x00",
            "parentHash" : "0x0000000000000000000000000000000000000000000000000000000000000000",
            "receiptTrie" : "0x56e81f171bcc55a6ff8345e692c0f86e5b48e01b996cadc001622fb5e363b421",
            "stateRoot" : "0x3e223c93f2f69f202e5ebad82e7de722e3d29146cd6931e8bd580de4832664f1",
            "timestamp" : "0x00",
            "transactionsTrie" : "0x56e81f171bcc55a6ff8345e692c0f86e5b48e01b996cadc001622fb5e363b421",
            "uncleHash" : "0x1dcc4de8dec75d7aab85b567b6ccd41ad312451b948a7413f0a142fd40d49347"
        },
        "genesisRLP" : "0xf901fdf901f8a00000000000000000000000000000000000000000000000000000000000000000a01dcc4de8dec75d7aab85b567b6ccd41ad312451b948a7413f0a142fd40d49347942adc25665018aa1fe0e6bc666dac8fc2697ff9baa03e223c93f2f69f202e5ebad82e7de722e3d29146cd6931e8bd580de4832664f1a056e81f171bcc55a6ff8345e692c0f86e5b48e01b996cadc001622fb5e363b421a056e81f171bcc55a6ff8345e692c0f86e5b48e01b996cadc001622fb5e363b421b90100000000000000000000000000000000000000000000000000000000000000000000000000000000000000000000000000000000000000000000000000000000000000000000000000000000000000000000000000000000000000000000000000000000000000000000000000000000000000000000000000000000000000000000000000000000000000000000000000000000000000000000000000000000000000000000000000000000000000000000000000000000000000000000000000000000000000000000000000000000000000000000000000000000000000000000000000000000000000000000000000000000000000000000000000000000008302000080887fffffffffffffff808042a00000000000000000000000000000000000000000000000000000000000000000880000000000000000c0c0",
        "blocks" : [
            {
                "chainname" : "default",
                "blocknumber" : "1",
                "uncleHeaders" : [
                ],
                "blockHeader" : {
                    "bloom" : "0x00000000000000000000000000000000000000000000000000000000000000000000000000000000000000000000000000000000000000000000000000000000000000000000000000000000000000000000000000000000000000000000000000000000000000000000000000000000000000000000000000000000000000000000000000000000000000000000000000000000000000000000000000000000000000000000000000000000000000000000000000000000000000000000000000000000000000000000000000000000000000000000000000000000000000000000000000000000000000000000000000000000000000000000000000000000",
                    "coinbase" : "0x2adc25665018aa1fe0e6bc666dac8fc2697ff9ba",
                    "difficulty" : "0x020000",
                    "extraData" : "0x42",
                    "gasLimit" : "0x7fffffffffffffff",
                    "gasUsed" : "0x5bfa",
                    "hash" : "0x44343a642da2ff69b3ee695b546bbabb340d104b3b588706106dc522df728618",
                    "mixHash" : "0x0000000000000000000000000000000000000000000000000000000000000000",
                    "nonce" : "0x0000000000000000",
                    "number" : "0x01",
                    "parentHash" : "0xf00a3e8cb85540bc4aafb33e125bb082655eb3c6b21122d31ce3fa9d61c48746",
                    "receiptTrie" : "0xbb469f78c85d68873b3edc180a9341d8c2f1c3d1f6b444a2c8fe5940b3ca1303",
                    "stateRoot" : "0x528a0652bde286cf6baaf9ec561a58f91380c14a4e52f95215f22025e48b05e8",
                    "timestamp" : "0x03e8",
                    "transactionsTrie" : "0x7ff1a182eb7161dd7e7f0bb52122e0847ea83d6edfc291e2493d93158e640f81",
                    "uncleHash" : "0x1dcc4de8dec75d7aab85b567b6ccd41ad312451b948a7413f0a142fd40d49347"
                },
                "transactions" : [
                    {
                        "data" : "0x1234567890abcdef01234567890abcdef0",
                        "gasLimit" : "0x174876e800",
                        "gasPrice" : "0x0c",
                        "nonce" : "0x00",
                        "r" : "0xd3495ed8a53d8131d8fe1b586135f73625ca3b1780b73bb803b69448af6dcda2",
                        "s" : "0x785acddb1c3c8e6ecfeebee3a90b80be39ccefc4f9e07498963bec2c9bf3db31",
                        "to" : "0x0f572e5295c57f15886f9b263e2f6d2d6c7b5ec6",
                        "v" : "0x1b",
                        "value" : "0x0b"
                    }
                ],
                "rlp" : "0xf90277f901fca0f00a3e8cb85540bc4aafb33e125bb082655eb3c6b21122d31ce3fa9d61c48746a01dcc4de8dec75d7aab85b567b6ccd41ad312451b948a7413f0a142fd40d49347942adc25665018aa1fe0e6bc666dac8fc2697ff9baa0528a0652bde286cf6baaf9ec561a58f91380c14a4e52f95215f22025e48b05e8a07ff1a182eb7161dd7e7f0bb52122e0847ea83d6edfc291e2493d93158e640f81a0bb469f78c85d68873b3edc180a9341d8c2f1c3d1f6b444a2c8fe5940b3ca1303b90100000000000000000000000000000000000000000000000000000000000000000000000000000000000000000000000000000000000000000000000000000000000000000000000000000000000000000000000000000000000000000000000000000000000000000000000000000000000000000000000000000000000000000000000000000000000000000000000000000000000000000000000000000000000000000000000000000000000000000000000000000000000000000000000000000000000000000000000000000000000000000000000000000000000000000000000000000000000000000000000000000000000000000000000000000000008302000001887fffffffffffffff825bfa8203e842a00000000000000000000000000000000000000000000000000000000000000000880000000000000000f875f873800c85174876e800940f572e5295c57f15886f9b263e2f6d2d6c7b5ec60b911234567890abcdef01234567890abcdef01ba0d3495ed8a53d8131d8fe1b586135f73625ca3b1780b73bb803b69448af6dcda2a0785acddb1c3c8e6ecfeebee3a90b80be39ccefc4f9e07498963bec2c9bf3db31c0"
            }
        ],
        "postState" : {
            "0x0f572e5295c57f15886f9b263e2f6d2d6c7b5ec6" : {
                "code" : "0x60ff7ffffffffffffffffffffffffffffffffffffffffffffffffffffffffffffffffa600037600051600055596000f300",
                "nonce" : "0x00",
                "balance" : "0x0de0b6b3a764000b",
                "storage" : {
                }
            },
            "0x2adc25665018aa1fe0e6bc666dac8fc2697ff9ba" : {
                "code" : "0x",
                "nonce" : "0x00",
                "balance" : "0x1bc16d674ecc4fb8",
                "storage" : {
                }
            },
            "0xa94f5374fce5edbc8e2a8697c15331677e6ebf0b" : {
                "code" : "0x",
                "nonce" : "0x01",
                "balance" : "0x7ffffffffffbb02d",
                "storage" : {
                }
            }
        },
        "lastblockhash" : "0x44343a642da2ff69b3ee695b546bbabb340d104b3b588706106dc522df728618"
    },
    "calldatacopy_DataIndexTooHigh_return_Istanbul" : {
        "_info" : {
            "comment" : "Converted from VMTest source. ",
            "filling-rpc-server" : "evm version 1.10.2-unstable-22082f9e-20210309",
            "filling-tool-version" : "retesteth-0.1.0-accesslist+commit.47c69eb3.Linux.g++",
            "lllcversion" : "Version: 0.5.14-develop.2020.6.22+commit.9189ad7a.Linux.g++",
            "source" : "src/VMTestsFiller/vmEnvironmentalInfo/calldatacopy_DataIndexTooHigh_returnFiller.json",
            "sourceHash" : "d40d6c8f3b1a5a6e4906850230eb9541825f18a6e2c966f2d49ef0825f5f761b"
        },
        "sealEngine" : "NoProof",
        "network" : "Istanbul",
        "pre" : {
            "0x0f572e5295c57f15886f9b263e2f6d2d6c7b5ec6" : {
                "balance" : "0x0de0b6b3a7640000",
                "code" : "0x60ff7ffffffffffffffffffffffffffffffffffffffffffffffffffffffffffffffffa600037600051600055596000f300",
                "nonce" : "0x00",
                "storage" : {
                }
            },
            "0xa94f5374fce5edbc8e2a8697c15331677e6ebf0b" : {
                "balance" : "0x7ffffffffffffff0",
                "code" : "0x",
                "nonce" : "0x00",
                "storage" : {
                }
            }
        },
        "genesisBlockHeader" : {
            "bloom" : "0x00000000000000000000000000000000000000000000000000000000000000000000000000000000000000000000000000000000000000000000000000000000000000000000000000000000000000000000000000000000000000000000000000000000000000000000000000000000000000000000000000000000000000000000000000000000000000000000000000000000000000000000000000000000000000000000000000000000000000000000000000000000000000000000000000000000000000000000000000000000000000000000000000000000000000000000000000000000000000000000000000000000000000000000000000000000",
            "coinbase" : "0x2adc25665018aa1fe0e6bc666dac8fc2697ff9ba",
            "difficulty" : "0x020000",
            "extraData" : "0x42",
            "gasLimit" : "0x7fffffffffffffff",
            "gasUsed" : "0x00",
            "hash" : "0xf00a3e8cb85540bc4aafb33e125bb082655eb3c6b21122d31ce3fa9d61c48746",
            "mixHash" : "0x0000000000000000000000000000000000000000000000000000000000000000",
            "nonce" : "0x0000000000000000",
            "number" : "0x00",
            "parentHash" : "0x0000000000000000000000000000000000000000000000000000000000000000",
            "receiptTrie" : "0x56e81f171bcc55a6ff8345e692c0f86e5b48e01b996cadc001622fb5e363b421",
            "stateRoot" : "0x3e223c93f2f69f202e5ebad82e7de722e3d29146cd6931e8bd580de4832664f1",
            "timestamp" : "0x00",
            "transactionsTrie" : "0x56e81f171bcc55a6ff8345e692c0f86e5b48e01b996cadc001622fb5e363b421",
            "uncleHash" : "0x1dcc4de8dec75d7aab85b567b6ccd41ad312451b948a7413f0a142fd40d49347"
        },
        "genesisRLP" : "0xf901fdf901f8a00000000000000000000000000000000000000000000000000000000000000000a01dcc4de8dec75d7aab85b567b6ccd41ad312451b948a7413f0a142fd40d49347942adc25665018aa1fe0e6bc666dac8fc2697ff9baa03e223c93f2f69f202e5ebad82e7de722e3d29146cd6931e8bd580de4832664f1a056e81f171bcc55a6ff8345e692c0f86e5b48e01b996cadc001622fb5e363b421a056e81f171bcc55a6ff8345e692c0f86e5b48e01b996cadc001622fb5e363b421b90100000000000000000000000000000000000000000000000000000000000000000000000000000000000000000000000000000000000000000000000000000000000000000000000000000000000000000000000000000000000000000000000000000000000000000000000000000000000000000000000000000000000000000000000000000000000000000000000000000000000000000000000000000000000000000000000000000000000000000000000000000000000000000000000000000000000000000000000000000000000000000000000000000000000000000000000000000000000000000000000000000000000000000000000000000000008302000080887fffffffffffffff808042a00000000000000000000000000000000000000000000000000000000000000000880000000000000000c0c0",
        "blocks" : [
            {
                "chainname" : "default",
                "blocknumber" : "1",
                "uncleHeaders" : [
                ],
                "blockHeader" : {
                    "bloom" : "0x00000000000000000000000000000000000000000000000000000000000000000000000000000000000000000000000000000000000000000000000000000000000000000000000000000000000000000000000000000000000000000000000000000000000000000000000000000000000000000000000000000000000000000000000000000000000000000000000000000000000000000000000000000000000000000000000000000000000000000000000000000000000000000000000000000000000000000000000000000000000000000000000000000000000000000000000000000000000000000000000000000000000000000000000000000000",
                    "coinbase" : "0x2adc25665018aa1fe0e6bc666dac8fc2697ff9ba",
                    "difficulty" : "0x020000",
                    "extraData" : "0x42",
                    "gasLimit" : "0x7fffffffffffffff",
                    "gasUsed" : "0x5682",
                    "hash" : "0xe48bf31b1c94ca252585331476071dfb7aa5b849908d6893d2d9e3726e640f53",
                    "mixHash" : "0x0000000000000000000000000000000000000000000000000000000000000000",
                    "nonce" : "0x0000000000000000",
                    "number" : "0x01",
                    "parentHash" : "0xf00a3e8cb85540bc4aafb33e125bb082655eb3c6b21122d31ce3fa9d61c48746",
                    "receiptTrie" : "0x29aadbad4963cff00324b77792ada51303b50ce28156ae285fbaedbb27f258c3",
                    "stateRoot" : "0xd874b72d2a4254e98c8f40217de09c69acd066168d91969cb48b111f0b2f5ef7",
                    "timestamp" : "0x03e8",
                    "transactionsTrie" : "0x7ff1a182eb7161dd7e7f0bb52122e0847ea83d6edfc291e2493d93158e640f81",
                    "uncleHash" : "0x1dcc4de8dec75d7aab85b567b6ccd41ad312451b948a7413f0a142fd40d49347"
                },
                "transactions" : [
                    {
                        "data" : "0x1234567890abcdef01234567890abcdef0",
                        "gasLimit" : "0x174876e800",
                        "gasPrice" : "0x0c",
                        "nonce" : "0x00",
                        "r" : "0xd3495ed8a53d8131d8fe1b586135f73625ca3b1780b73bb803b69448af6dcda2",
                        "s" : "0x785acddb1c3c8e6ecfeebee3a90b80be39ccefc4f9e07498963bec2c9bf3db31",
                        "to" : "0x0f572e5295c57f15886f9b263e2f6d2d6c7b5ec6",
                        "v" : "0x1b",
                        "value" : "0x0b"
                    }
                ],
                "rlp" : "0xf90277f901fca0f00a3e8cb85540bc4aafb33e125bb082655eb3c6b21122d31ce3fa9d61c48746a01dcc4de8dec75d7aab85b567b6ccd41ad312451b948a7413f0a142fd40d49347942adc25665018aa1fe0e6bc666dac8fc2697ff9baa0d874b72d2a4254e98c8f40217de09c69acd066168d91969cb48b111f0b2f5ef7a07ff1a182eb7161dd7e7f0bb52122e0847ea83d6edfc291e2493d93158e640f81a029aadbad4963cff00324b77792ada51303b50ce28156ae285fbaedbb27f258c3b90100000000000000000000000000000000000000000000000000000000000000000000000000000000000000000000000000000000000000000000000000000000000000000000000000000000000000000000000000000000000000000000000000000000000000000000000000000000000000000000000000000000000000000000000000000000000000000000000000000000000000000000000000000000000000000000000000000000000000000000000000000000000000000000000000000000000000000000000000000000000000000000000000000000000000000000000000000000000000000000000000000000000000000000000000000000008302000001887fffffffffffffff8256828203e842a00000000000000000000000000000000000000000000000000000000000000000880000000000000000f875f873800c85174876e800940f572e5295c57f15886f9b263e2f6d2d6c7b5ec60b911234567890abcdef01234567890abcdef01ba0d3495ed8a53d8131d8fe1b586135f73625ca3b1780b73bb803b69448af6dcda2a0785acddb1c3c8e6ecfeebee3a90b80be39ccefc4f9e07498963bec2c9bf3db31c0"
            }
        ],
        "postState" : {
            "0x0f572e5295c57f15886f9b263e2f6d2d6c7b5ec6" : {
                "code" : "0x60ff7ffffffffffffffffffffffffffffffffffffffffffffffffffffffffffffffffa600037600051600055596000f300",
                "nonce" : "0x00",
                "balance" : "0x0de0b6b3a764000b",
                "storage" : {
                }
            },
            "0x2adc25665018aa1fe0e6bc666dac8fc2697ff9ba" : {
                "code" : "0x",
                "nonce" : "0x00",
                "balance" : "0x1bc16d674ecc0e18",
                "storage" : {
                }
            },
            "0xa94f5374fce5edbc8e2a8697c15331677e6ebf0b" : {
                "code" : "0x",
                "nonce" : "0x01",
                "balance" : "0x7ffffffffffbf1cd",
                "storage" : {
                }
            }
        },
        "lastblockhash" : "0xe48bf31b1c94ca252585331476071dfb7aa5b849908d6893d2d9e3726e640f53"
    }
}