{
    "calldatacopyZeroMemExpansion_return_Istanbul" : {
        "_info" : {
            "comment" : "Converted from VMTest source. ",
            "filling-rpc-server" : "Geth-1.9.13-unstable-5d7e5b00-20200327",
            "filling-tool-version" : "retesteth-0.0.2+commit.2bebcc98.Linux.g++",
            "lllcversion" : "Version: 0.5.14-develop.2020.3.30+commit.8f259595.Linux.g++",
            "source" : "src/VMTestsFiller/vmEnvironmentalInfo/calldatacopyZeroMemExpansion_returnFiller.json",
            "sourceHash" : "06f76845fe79e1e25af55961b3b19d90654d23179cc8e74b6ae93a1cac50a1ed"
        },
        "sealEngine" : "NoProof",
        "network" : "Istanbul",
        "pre" : {
            "0x0f572e5295c57f15886f9b263e2f6d2d6c7b5ec6" : {
                "balance" : "0x0de0b6b3a7640000",
                "code" : "0x60006000600037600051600055596000f300",
                "nonce" : "0x00",
                "storage" : {
                }
            },
            "0xa94f5374fce5edbc8e2a8697c15331677e6ebf0b" : {
                "balance" : "0x7ffffffffffffff0",
                "code" : "0x",
                "nonce" : "0x00",
                "storage" : {
                }
            }
        },
        "genesisBlockHeader" : {
            "bloom" : "0x00000000000000000000000000000000000000000000000000000000000000000000000000000000000000000000000000000000000000000000000000000000000000000000000000000000000000000000000000000000000000000000000000000000000000000000000000000000000000000000000000000000000000000000000000000000000000000000000000000000000000000000000000000000000000000000000000000000000000000000000000000000000000000000000000000000000000000000000000000000000000000000000000000000000000000000000000000000000000000000000000000000000000000000000000000000",
            "coinbase" : "0x2adc25665018aa1fe0e6bc666dac8fc2697ff9ba",
            "difficulty" : "0x020000",
            "extraData" : "0x42",
            "gasLimit" : "0x7fffffffffffffff",
            "gasUsed" : "0x00",
            "hash" : "0x8924b5552e8d2090940567cc69ebe7583d9e1901dfe5a47fc2dcd70c07dc0cbf",
            "mixHash" : "0x0000000000000000000000000000000000000000000000000000000000000000",
            "nonce" : "0x0000000000000000",
            "number" : "0x00",
            "parentHash" : "0x0000000000000000000000000000000000000000000000000000000000000000",
            "receiptTrie" : "0x56e81f171bcc55a6ff8345e692c0f86e5b48e01b996cadc001622fb5e363b421",
            "stateRoot" : "0x7a5b6f225950561f06ae227f1cacea00db7f7f3f9b1dcf82aaadeeaf59793b31",
            "timestamp" : "0x00",
            "transactionsTrie" : "0x56e81f171bcc55a6ff8345e692c0f86e5b48e01b996cadc001622fb5e363b421",
            "uncleHash" : "0x1dcc4de8dec75d7aab85b567b6ccd41ad312451b948a7413f0a142fd40d49347"
        },
        "genesisRLP" : "0xf901fdf901f8a00000000000000000000000000000000000000000000000000000000000000000a01dcc4de8dec75d7aab85b567b6ccd41ad312451b948a7413f0a142fd40d49347942adc25665018aa1fe0e6bc666dac8fc2697ff9baa07a5b6f225950561f06ae227f1cacea00db7f7f3f9b1dcf82aaadeeaf59793b31a056e81f171bcc55a6ff8345e692c0f86e5b48e01b996cadc001622fb5e363b421a056e81f171bcc55a6ff8345e692c0f86e5b48e01b996cadc001622fb5e363b421b90100000000000000000000000000000000000000000000000000000000000000000000000000000000000000000000000000000000000000000000000000000000000000000000000000000000000000000000000000000000000000000000000000000000000000000000000000000000000000000000000000000000000000000000000000000000000000000000000000000000000000000000000000000000000000000000000000000000000000000000000000000000000000000000000000000000000000000000000000000000000000000000000000000000000000000000000000000000000000000000000000000000000000000000000000000000008302000080887fffffffffffffff808042a00000000000000000000000000000000000000000000000000000000000000000880000000000000000c0c0",
        "blocks" : [
            {
                "chainname" : "default",
                "blocknumber" : "1",
                "uncleHeaders" : [
                ],
                "blockHeader" : {
                    "bloom" : "0x00000000000000000000000000000000000000000000000000000000000000000000000000000000000000000000000000000000000000000000000000000000000000000000000000000000000000000000000000000000000000000000000000000000000000000000000000000000000000000000000000000000000000000000000000000000000000000000000000000000000000000000000000000000000000000000000000000000000000000000000000000000000000000000000000000000000000000000000000000000000000000000000000000000000000000000000000000000000000000000000000000000000000000000000000000000",
                    "coinbase" : "0x2adc25665018aa1fe0e6bc666dac8fc2697ff9ba",
                    "difficulty" : "0x020000",
                    "extraData" : "0x42",
                    "gasLimit" : "0x7fffffffffffffff",
                    "gasUsed" : "0x5655",
                    "hash" : "0x7e14050b5be2e6a647daa8377562ecef8d9f1c43d991bfbe76c7f7e8094ec994",
                    "mixHash" : "0x0000000000000000000000000000000000000000000000000000000000000000",
                    "nonce" : "0x0000000000000000",
                    "number" : "0x01",
                    "parentHash" : "0x8924b5552e8d2090940567cc69ebe7583d9e1901dfe5a47fc2dcd70c07dc0cbf",
                    "receiptTrie" : "0x7233e4d6589f58145795ff2395f3c13e3b0a7e26c9c1eee10a41610c40fd4c4a",
                    "stateRoot" : "0x59eae313abf83ceff57f2b79cc59e69efe6cfa1410e3b537b78b785cf79abcc6",
                    "timestamp" : "0x03e8",
                    "transactionsTrie" : "0x7ff1a182eb7161dd7e7f0bb52122e0847ea83d6edfc291e2493d93158e640f81",
                    "uncleHash" : "0x1dcc4de8dec75d7aab85b567b6ccd41ad312451b948a7413f0a142fd40d49347"
                },
                "transactions" : [
                    {
                        "data" : "0x1234567890abcdef01234567890abcdef0",
                        "gasLimit" : "0x174876e800",
                        "gasPrice" : "0x0c",
                        "nonce" : "0x00",
                        "to" : "0x0f572e5295c57f15886f9b263e2f6d2d6c7b5ec6",
                        "value" : "0x0b",
                        "v" : "0x1b",
                        "r" : "0xd3495ed8a53d8131d8fe1b586135f73625ca3b1780b73bb803b69448af6dcda2",
                        "s" : "0x785acddb1c3c8e6ecfeebee3a90b80be39ccefc4f9e07498963bec2c9bf3db31"
                    }
                ],
                "rlp" : "0xf90277f901fca08924b5552e8d2090940567cc69ebe7583d9e1901dfe5a47fc2dcd70c07dc0cbfa01dcc4de8dec75d7aab85b567b6ccd41ad312451b948a7413f0a142fd40d49347942adc25665018aa1fe0e6bc666dac8fc2697ff9baa059eae313abf83ceff57f2b79cc59e69efe6cfa1410e3b537b78b785cf79abcc6a07ff1a182eb7161dd7e7f0bb52122e0847ea83d6edfc291e2493d93158e640f81a07233e4d6589f58145795ff2395f3c13e3b0a7e26c9c1eee10a41610c40fd4c4ab90100000000000000000000000000000000000000000000000000000000000000000000000000000000000000000000000000000000000000000000000000000000000000000000000000000000000000000000000000000000000000000000000000000000000000000000000000000000000000000000000000000000000000000000000000000000000000000000000000000000000000000000000000000000000000000000000000000000000000000000000000000000000000000000000000000000000000000000000000000000000000000000000000000000000000000000000000000000000000000000000000000000000000000000000000000000008302000001887fffffffffffffff8256558203e842a00000000000000000000000000000000000000000000000000000000000000000880000000000000000f875f873800c85174876e800940f572e5295c57f15886f9b263e2f6d2d6c7b5ec60b911234567890abcdef01234567890abcdef01ba0d3495ed8a53d8131d8fe1b586135f73625ca3b1780b73bb803b69448af6dcda2a0785acddb1c3c8e6ecfeebee3a90b80be39ccefc4f9e07498963bec2c9bf3db31c0"
            }
        ],
        "postState" : {
            "0xa94f5374fce5edbc8e2a8697c15331677e6ebf0b" : {
                "code" : "0x",
                "nonce" : "0x01",
                "balance" : "0x7ffffffffffbf3e9",
                "storage" : {
                }
            },
            "0x2adc25665018aa1fe0e6bc666dac8fc2697ff9ba" : {
                "code" : "0x",
                "nonce" : "0x00",
                "balance" : "0x1bc16d674ecc0bfc",
                "storage" : {
                }
            },
            "0x0f572e5295c57f15886f9b263e2f6d2d6c7b5ec6" : {
                "code" : "0x60006000600037600051600055596000f300",
                "nonce" : "0x00",
                "balance" : "0x0de0b6b3a764000b",
                "storage" : {
                }
            }
        },
        "lastblockhash" : "0x7e14050b5be2e6a647daa8377562ecef8d9f1c43d991bfbe76c7f7e8094ec994"
    }
}