{
    "calldatacopy2_return_Berlin" : {
        "_info" : {
            "comment" : "Converted from VMTest source. ",
            "filling-rpc-server" : "evm version 1.10.2-unstable-22082f9e-20210309",
            "filling-tool-version" : "retesteth-0.1.0-accesslist+commit.47c69eb3.Linux.g++",
            "lllcversion" : "Version: 0.5.14-develop.2020.6.22+commit.9189ad7a.Linux.g++",
            "source" : "src/VMTestsFiller/vmEnvironmentalInfo/calldatacopy2_returnFiller.json",
            "sourceHash" : "51350f10a5256f249f770aa3422530e45a961ff0a53c9dfa01f3eb572097f1a2"
        },
        "sealEngine" : "NoProof",
        "network" : "Berlin",
        "pre" : {
            "0x0f572e5295c57f15886f9b263e2f6d2d6c7b5ec6" : {
                "balance" : "0x0de0b6b3a7640000",
                "code" : "0x60006001600037600051600055596000f300",
                "nonce" : "0x00",
                "storage" : {
                }
            },
            "0xa94f5374fce5edbc8e2a8697c15331677e6ebf0b" : {
                "balance" : "0x7ffffffffffffff0",
                "code" : "0x",
                "nonce" : "0x00",
                "storage" : {
                }
            }
        },
        "genesisBlockHeader" : {
            "bloom" : "0x00000000000000000000000000000000000000000000000000000000000000000000000000000000000000000000000000000000000000000000000000000000000000000000000000000000000000000000000000000000000000000000000000000000000000000000000000000000000000000000000000000000000000000000000000000000000000000000000000000000000000000000000000000000000000000000000000000000000000000000000000000000000000000000000000000000000000000000000000000000000000000000000000000000000000000000000000000000000000000000000000000000000000000000000000000000",
            "coinbase" : "0x2adc25665018aa1fe0e6bc666dac8fc2697ff9ba",
            "difficulty" : "0x020000",
            "extraData" : "0x42",
            "gasLimit" : "0x7fffffffffffffff",
            "gasUsed" : "0x00",
            "hash" : "0x55e2a59a050f2194305fcf6a82d5bd049e84b9130ab947b26f69208acfe3aa2b",
            "mixHash" : "0x0000000000000000000000000000000000000000000000000000000000000000",
            "nonce" : "0x0000000000000000",
            "number" : "0x00",
            "parentHash" : "0x0000000000000000000000000000000000000000000000000000000000000000",
            "receiptTrie" : "0x56e81f171bcc55a6ff8345e692c0f86e5b48e01b996cadc001622fb5e363b421",
            "stateRoot" : "0x80f0e65ad25bdf3288cb0d3145e1c28cecec688a6a078ceaadf8ae6f5ffe5274",
            "timestamp" : "0x00",
            "transactionsTrie" : "0x56e81f171bcc55a6ff8345e692c0f86e5b48e01b996cadc001622fb5e363b421",
            "uncleHash" : "0x1dcc4de8dec75d7aab85b567b6ccd41ad312451b948a7413f0a142fd40d49347"
        },
        "genesisRLP" : "0xf901fdf901f8a00000000000000000000000000000000000000000000000000000000000000000a01dcc4de8dec75d7aab85b567b6ccd41ad312451b948a7413f0a142fd40d49347942adc25665018aa1fe0e6bc666dac8fc2697ff9baa080f0e65ad25bdf3288cb0d3145e1c28cecec688a6a078ceaadf8ae6f5ffe5274a056e81f171bcc55a6ff8345e692c0f86e5b48e01b996cadc001622fb5e363b421a056e81f171bcc55a6ff8345e692c0f86e5b48e01b996cadc001622fb5e363b421b90100000000000000000000000000000000000000000000000000000000000000000000000000000000000000000000000000000000000000000000000000000000000000000000000000000000000000000000000000000000000000000000000000000000000000000000000000000000000000000000000000000000000000000000000000000000000000000000000000000000000000000000000000000000000000000000000000000000000000000000000000000000000000000000000000000000000000000000000000000000000000000000000000000000000000000000000000000000000000000000000000000000000000000000000000000000008302000080887fffffffffffffff808042a00000000000000000000000000000000000000000000000000000000000000000880000000000000000c0c0",
        "blocks" : [
            {
                "chainname" : "default",
                "blocknumber" : "1",
                "uncleHeaders" : [
                ],
                "blockHeader" : {
                    "bloom" : "0x00000000000000000000000000000000000000000000000000000000000000000000000000000000000000000000000000000000000000000000000000000000000000000000000000000000000000000000000000000000000000000000000000000000000000000000000000000000000000000000000000000000000000000000000000000000000000000000000000000000000000000000000000000000000000000000000000000000000000000000000000000000000000000000000000000000000000000000000000000000000000000000000000000000000000000000000000000000000000000000000000000000000000000000000000000000",
                    "coinbase" : "0x2adc25665018aa1fe0e6bc666dac8fc2697ff9ba",
                    "difficulty" : "0x020000",
                    "extraData" : "0x42",
                    "gasLimit" : "0x7fffffffffffffff",
                    "gasUsed" : "0x5bcd",
                    "hash" : "0xe368d7c19d1ff36c833d914e3d33949ad30e576268a0e669e65caf058220cccb",
                    "mixHash" : "0x0000000000000000000000000000000000000000000000000000000000000000",
                    "nonce" : "0x0000000000000000",
                    "number" : "0x01",
                    "parentHash" : "0x55e2a59a050f2194305fcf6a82d5bd049e84b9130ab947b26f69208acfe3aa2b",
                    "receiptTrie" : "0x8578acf9908385f424c468eda1814ccaf390bd9e9b81ae7d4faf52f190b5d4d4",
                    "stateRoot" : "0x053aad75a2b257b7340f1a911077cb9bef610941d1f15d6e95249c1139299d0f",
                    "timestamp" : "0x03e8",
                    "transactionsTrie" : "0x7ff1a182eb7161dd7e7f0bb52122e0847ea83d6edfc291e2493d93158e640f81",
                    "uncleHash" : "0x1dcc4de8dec75d7aab85b567b6ccd41ad312451b948a7413f0a142fd40d49347"
                },
                "transactions" : [
                    {
                        "data" : "0x1234567890abcdef01234567890abcdef0",
                        "gasLimit" : "0x174876e800",
                        "gasPrice" : "0x0c",
                        "nonce" : "0x00",
                        "r" : "0xd3495ed8a53d8131d8fe1b586135f73625ca3b1780b73bb803b69448af6dcda2",
                        "s" : "0x785acddb1c3c8e6ecfeebee3a90b80be39ccefc4f9e07498963bec2c9bf3db31",
                        "to" : "0x0f572e5295c57f15886f9b263e2f6d2d6c7b5ec6",
                        "v" : "0x1b",
                        "value" : "0x0b"
                    }
                ],
                "rlp" : "0xf90277f901fca055e2a59a050f2194305fcf6a82d5bd049e84b9130ab947b26f69208acfe3aa2ba01dcc4de8dec75d7aab85b567b6ccd41ad312451b948a7413f0a142fd40d49347942adc25665018aa1fe0e6bc666dac8fc2697ff9baa0053aad75a2b257b7340f1a911077cb9bef610941d1f15d6e95249c1139299d0fa07ff1a182eb7161dd7e7f0bb52122e0847ea83d6edfc291e2493d93158e640f81a08578acf9908385f424c468eda1814ccaf390bd9e9b81ae7d4faf52f190b5d4d4b90100000000000000000000000000000000000000000000000000000000000000000000000000000000000000000000000000000000000000000000000000000000000000000000000000000000000000000000000000000000000000000000000000000000000000000000000000000000000000000000000000000000000000000000000000000000000000000000000000000000000000000000000000000000000000000000000000000000000000000000000000000000000000000000000000000000000000000000000000000000000000000000000000000000000000000000000000000000000000000000000000000000000000000000000000000000008302000001887fffffffffffffff825bcd8203e842a00000000000000000000000000000000000000000000000000000000000000000880000000000000000f875f873800c85174876e800940f572e5295c57f15886f9b263e2f6d2d6c7b5ec60b911234567890abcdef01234567890abcdef01ba0d3495ed8a53d8131d8fe1b586135f73625ca3b1780b73bb803b69448af6dcda2a0785acddb1c3c8e6ecfeebee3a90b80be39ccefc4f9e07498963bec2c9bf3db31c0"
            }
        ],
        "postState" : {
            "0x0f572e5295c57f15886f9b263e2f6d2d6c7b5ec6" : {
                "code" : "0x60006001600037600051600055596000f300",
                "nonce" : "0x00",
                "balance" : "0x0de0b6b3a764000b",
                "storage" : {
                }
            },
            "0x2adc25665018aa1fe0e6bc666dac8fc2697ff9ba" : {
                "code" : "0x",
                "nonce" : "0x00",
                "balance" : "0x1bc16d674ecc4d9c",
                "storage" : {
                }
            },
            "0xa94f5374fce5edbc8e2a8697c15331677e6ebf0b" : {
                "code" : "0x",
                "nonce" : "0x01",
                "balance" : "0x7ffffffffffbb249",
                "storage" : {
                }
            }
        },
        "lastblockhash" : "0xe368d7c19d1ff36c833d914e3d33949ad30e576268a0e669e65caf058220cccb"
    },
    "calldatacopy2_return_Istanbul" : {
        "_info" : {
            "comment" : "Converted from VMTest source. ",
            "filling-rpc-server" : "evm version 1.10.2-unstable-22082f9e-20210309",
            "filling-tool-version" : "retesteth-0.1.0-accesslist+commit.47c69eb3.Linux.g++",
            "lllcversion" : "Version: 0.5.14-develop.2020.6.22+commit.9189ad7a.Linux.g++",
            "source" : "src/VMTestsFiller/vmEnvironmentalInfo/calldatacopy2_returnFiller.json",
            "sourceHash" : "51350f10a5256f249f770aa3422530e45a961ff0a53c9dfa01f3eb572097f1a2"
        },
        "sealEngine" : "NoProof",
        "network" : "Istanbul",
        "pre" : {
            "0x0f572e5295c57f15886f9b263e2f6d2d6c7b5ec6" : {
                "balance" : "0x0de0b6b3a7640000",
                "code" : "0x60006001600037600051600055596000f300",
                "nonce" : "0x00",
                "storage" : {
                }
            },
            "0xa94f5374fce5edbc8e2a8697c15331677e6ebf0b" : {
                "balance" : "0x7ffffffffffffff0",
                "code" : "0x",
                "nonce" : "0x00",
                "storage" : {
                }
            }
        },
        "genesisBlockHeader" : {
            "bloom" : "0x00000000000000000000000000000000000000000000000000000000000000000000000000000000000000000000000000000000000000000000000000000000000000000000000000000000000000000000000000000000000000000000000000000000000000000000000000000000000000000000000000000000000000000000000000000000000000000000000000000000000000000000000000000000000000000000000000000000000000000000000000000000000000000000000000000000000000000000000000000000000000000000000000000000000000000000000000000000000000000000000000000000000000000000000000000000",
            "coinbase" : "0x2adc25665018aa1fe0e6bc666dac8fc2697ff9ba",
            "difficulty" : "0x020000",
            "extraData" : "0x42",
            "gasLimit" : "0x7fffffffffffffff",
            "gasUsed" : "0x00",
            "hash" : "0x55e2a59a050f2194305fcf6a82d5bd049e84b9130ab947b26f69208acfe3aa2b",
            "mixHash" : "0x0000000000000000000000000000000000000000000000000000000000000000",
            "nonce" : "0x0000000000000000",
            "number" : "0x00",
            "parentHash" : "0x0000000000000000000000000000000000000000000000000000000000000000",
            "receiptTrie" : "0x56e81f171bcc55a6ff8345e692c0f86e5b48e01b996cadc001622fb5e363b421",
            "stateRoot" : "0x80f0e65ad25bdf3288cb0d3145e1c28cecec688a6a078ceaadf8ae6f5ffe5274",
            "timestamp" : "0x00",
            "transactionsTrie" : "0x56e81f171bcc55a6ff8345e692c0f86e5b48e01b996cadc001622fb5e363b421",
            "uncleHash" : "0x1dcc4de8dec75d7aab85b567b6ccd41ad312451b948a7413f0a142fd40d49347"
        },
        "genesisRLP" : "0xf901fdf901f8a00000000000000000000000000000000000000000000000000000000000000000a01dcc4de8dec75d7aab85b567b6ccd41ad312451b948a7413f0a142fd40d49347942adc25665018aa1fe0e6bc666dac8fc2697ff9baa080f0e65ad25bdf3288cb0d3145e1c28cecec688a6a078ceaadf8ae6f5ffe5274a056e81f171bcc55a6ff8345e692c0f86e5b48e01b996cadc001622fb5e363b421a056e81f171bcc55a6ff8345e692c0f86e5b48e01b996cadc001622fb5e363b421b90100000000000000000000000000000000000000000000000000000000000000000000000000000000000000000000000000000000000000000000000000000000000000000000000000000000000000000000000000000000000000000000000000000000000000000000000000000000000000000000000000000000000000000000000000000000000000000000000000000000000000000000000000000000000000000000000000000000000000000000000000000000000000000000000000000000000000000000000000000000000000000000000000000000000000000000000000000000000000000000000000000000000000000000000000000000008302000080887fffffffffffffff808042a00000000000000000000000000000000000000000000000000000000000000000880000000000000000c0c0",
        "blocks" : [
            {
                "chainname" : "default",
                "blocknumber" : "1",
                "uncleHeaders" : [
                ],
                "blockHeader" : {
                    "bloom" : "0x00000000000000000000000000000000000000000000000000000000000000000000000000000000000000000000000000000000000000000000000000000000000000000000000000000000000000000000000000000000000000000000000000000000000000000000000000000000000000000000000000000000000000000000000000000000000000000000000000000000000000000000000000000000000000000000000000000000000000000000000000000000000000000000000000000000000000000000000000000000000000000000000000000000000000000000000000000000000000000000000000000000000000000000000000000000",
                    "coinbase" : "0x2adc25665018aa1fe0e6bc666dac8fc2697ff9ba",
                    "difficulty" : "0x020000",
                    "extraData" : "0x42",
                    "gasLimit" : "0x7fffffffffffffff",
                    "gasUsed" : "0x5655",
                    "hash" : "0x23cb317bdaca9573ce27b886fa9190992c7fd559e08ea9ca6ed9e88ad2e1107a",
                    "mixHash" : "0x0000000000000000000000000000000000000000000000000000000000000000",
                    "nonce" : "0x0000000000000000",
                    "number" : "0x01",
                    "parentHash" : "0x55e2a59a050f2194305fcf6a82d5bd049e84b9130ab947b26f69208acfe3aa2b",
                    "receiptTrie" : "0x7233e4d6589f58145795ff2395f3c13e3b0a7e26c9c1eee10a41610c40fd4c4a",
                    "stateRoot" : "0xce87756cabb78829518e89943a8e11502e89c308371ea4abe3c17a8a7dcdba4d",
                    "timestamp" : "0x03e8",
                    "transactionsTrie" : "0x7ff1a182eb7161dd7e7f0bb52122e0847ea83d6edfc291e2493d93158e640f81",
                    "uncleHash" : "0x1dcc4de8dec75d7aab85b567b6ccd41ad312451b948a7413f0a142fd40d49347"
                },
                "transactions" : [
                    {
                        "data" : "0x1234567890abcdef01234567890abcdef0",
                        "gasLimit" : "0x174876e800",
                        "gasPrice" : "0x0c",
                        "nonce" : "0x00",
                        "r" : "0xd3495ed8a53d8131d8fe1b586135f73625ca3b1780b73bb803b69448af6dcda2",
                        "s" : "0x785acddb1c3c8e6ecfeebee3a90b80be39ccefc4f9e07498963bec2c9bf3db31",
                        "to" : "0x0f572e5295c57f15886f9b263e2f6d2d6c7b5ec6",
                        "v" : "0x1b",
                        "value" : "0x0b"
                    }
                ],
                "rlp" : "0xf90277f901fca055e2a59a050f2194305fcf6a82d5bd049e84b9130ab947b26f69208acfe3aa2ba01dcc4de8dec75d7aab85b567b6ccd41ad312451b948a7413f0a142fd40d49347942adc25665018aa1fe0e6bc666dac8fc2697ff9baa0ce87756cabb78829518e89943a8e11502e89c308371ea4abe3c17a8a7dcdba4da07ff1a182eb7161dd7e7f0bb52122e0847ea83d6edfc291e2493d93158e640f81a07233e4d6589f58145795ff2395f3c13e3b0a7e26c9c1eee10a41610c40fd4c4ab90100000000000000000000000000000000000000000000000000000000000000000000000000000000000000000000000000000000000000000000000000000000000000000000000000000000000000000000000000000000000000000000000000000000000000000000000000000000000000000000000000000000000000000000000000000000000000000000000000000000000000000000000000000000000000000000000000000000000000000000000000000000000000000000000000000000000000000000000000000000000000000000000000000000000000000000000000000000000000000000000000000000000000000000000000000000008302000001887fffffffffffffff8256558203e842a00000000000000000000000000000000000000000000000000000000000000000880000000000000000f875f873800c85174876e800940f572e5295c57f15886f9b263e2f6d2d6c7b5ec60b911234567890abcdef01234567890abcdef01ba0d3495ed8a53d8131d8fe1b586135f73625ca3b1780b73bb803b69448af6dcda2a0785acddb1c3c8e6ecfeebee3a90b80be39ccefc4f9e07498963bec2c9bf3db31c0"
            }
        ],
        "postState" : {
            "0x0f572e5295c57f15886f9b263e2f6d2d6c7b5ec6" : {
                "code" : "0x60006001600037600051600055596000f300",
                "nonce" : "0x00",
                "balance" : "0x0de0b6b3a764000b",
                "storage" : {
                }
            },
            "0x2adc25665018aa1fe0e6bc666dac8fc2697ff9ba" : {
                "code" : "0x",
                "nonce" : "0x00",
                "balance" : "0x1bc16d674ecc0bfc",
                "storage" : {
                }
            },
            "0xa94f5374fce5edbc8e2a8697c15331677e6ebf0b" : {
                "code" : "0x",
                "nonce" : "0x01",
                "balance" : "0x7ffffffffffbf3e9",
                "storage" : {
                }
            }
        },
        "lastblockhash" : "0x23cb317bdaca9573ce27b886fa9190992c7fd559e08ea9ca6ed9e88ad2e1107a"
    }
}