{
    "contractCreationOOGdontLeaveEmptyContract_d0g0v0_EIP150" : {
        "_info" : {
            "comment" : "",
            "filledwith" : "cpp-1.3.0+commit.16292201.Linux.g++",
            "source" : "/src/GenStateTestAsBcTemp/stHomesteadSpecific/contractCreationOOGdontLeaveEmptyContract_d0g0v0Filler.json"
        },
        "blocks" : [
            {
                "blockHeader" : {
                    "bloom" : "0x00000000000000000000000000000000000000000000000000000000000000000000000000000000000000000000000000000000000000000000000000000000000000000000000000000000000000000000000000000000000000000000000000000000000000000000000000000000000000000000000000000000000000000000000000000000000000000000000000000000000000000000000000000000000000000000000000000000000000000000000000000000000000000000000000000000000000000000000000000000000000000000000000000000000000000000000000000000000000000000000000000000000000000000000000000000",
                    "coinbase" : "0x2adc25665018aa1fe0e6bc666dac8fc2697ff9ba",
                    "difficulty" : "0x020000",
                    "extraData" : "",
                    "gasLimit" : "0x0f4240",
                    "gasUsed" : "0x016a48",
                    "hash" : "0x005453bfe7da3980ec609c4224f541843c0bc6af7cc3c87a1dcbf8a721fff3d6",
                    "mixHash" : "0x060bd21d713ef226bde41d5bc5bffc25cf3c08943d46d697a099e6884b8086a9",
                    "nonce" : "0x67ebba88895ca631",
                    "number" : "0x01",
                    "parentHash" : "0xc197dd8d242ed404c45ba3296a0a3e60664a00eb52be61c81a750eb1f128ecde",
                    "receiptTrie" : "0xed4572e94671ef02cc28c296afb667fbd0caa8f195443db78053d7293f2d815a",
                    "stateRoot" : "0x6d62c8781dbe8448076e10b6f083cd2b2b418c22639d6831ad776de2e031d110",
                    "timestamp" : "0x03e8",
                    "transactionsTrie" : "0x5886f6d8c18d2ab5f33bb64a328d6eb09255443e2775248b610adabff31e790a",
                    "uncleHash" : "0x1dcc4de8dec75d7aab85b567b6ccd41ad312451b948a7413f0a142fd40d49347"
                },
                "rlp" : "0xf90260f901f8a0c197dd8d242ed404c45ba3296a0a3e60664a00eb52be61c81a750eb1f128ecdea01dcc4de8dec75d7aab85b567b6ccd41ad312451b948a7413f0a142fd40d49347942adc25665018aa1fe0e6bc666dac8fc2697ff9baa06d62c8781dbe8448076e10b6f083cd2b2b418c22639d6831ad776de2e031d110a05886f6d8c18d2ab5f33bb64a328d6eb09255443e2775248b610adabff31e790aa0ed4572e94671ef02cc28c296afb667fbd0caa8f195443db78053d7293f2d815ab90100000000000000000000000000000000000000000000000000000000000000000000000000000000000000000000000000000000000000000000000000000000000000000000000000000000000000000000000000000000000000000000000000000000000000000000000000000000000000000000000000000000000000000000000000000000000000000000000000000000000000000000000000000000000000000000000000000000000000000000000000000000000000000000000000000000000000000000000000000000000000000000000000000000000000000000000000000000000000000000000000000000000000000000000000000000008302000001830f424083016a488203e880a0060bd21d713ef226bde41d5bc5bffc25cf3c08943d46d697a099e6884b8086a98867ebba88895ca631f862f860800183016b8094100000000000000000000000000000000000000180801ca048fcbe6740dbb3ae8557dd1370ebd60e8fad8925522eeb2689984ef8241ae4d8a008f0cf92d81454dab493ab6b0cb3b69aec915cf8ab06bdeac36f617094f9c8d3c0",
                "transactions" : [
                    {
                        "data" : "",
                        "gasLimit" : "0x016b80",
                        "gasPrice" : "0x01",
                        "nonce" : "0x00",
                        "r" : "0x48fcbe6740dbb3ae8557dd1370ebd60e8fad8925522eeb2689984ef8241ae4d8",
                        "s" : "0x08f0cf92d81454dab493ab6b0cb3b69aec915cf8ab06bdeac36f617094f9c8d3",
                        "to" : "0x1000000000000000000000000000000000000001",
                        "v" : "0x1c",
                        "value" : "0x00"
                    }
                ],
                "uncleHeaders" : [
                ]
            }
        ],
        "genesisBlockHeader" : {
            "bloom" : "0x00000000000000000000000000000000000000000000000000000000000000000000000000000000000000000000000000000000000000000000000000000000000000000000000000000000000000000000000000000000000000000000000000000000000000000000000000000000000000000000000000000000000000000000000000000000000000000000000000000000000000000000000000000000000000000000000000000000000000000000000000000000000000000000000000000000000000000000000000000000000000000000000000000000000000000000000000000000000000000000000000000000000000000000000000000000",
            "coinbase" : "0x2adc25665018aa1fe0e6bc666dac8fc2697ff9ba",
            "difficulty" : "0x020000",
            "extraData" : "0x42",
            "gasLimit" : "0x0f4240",
            "gasUsed" : "0x00",
            "hash" : "0xc197dd8d242ed404c45ba3296a0a3e60664a00eb52be61c81a750eb1f128ecde",
            "mixHash" : "0x56e81f171bcc55a6ff8345e692c0f86e5b48e01b996cadc001622fb5e363b421",
            "nonce" : "0x0102030405060708",
            "number" : "0x00",
            "parentHash" : "0x0000000000000000000000000000000000000000000000000000000000000000",
            "receiptTrie" : "0x56e81f171bcc55a6ff8345e692c0f86e5b48e01b996cadc001622fb5e363b421",
            "stateRoot" : "0x21e213bbb6a6590941ab30ef7e13e57dcd51e8619ed98ad82cb2aa6996327482",
            "timestamp" : "0x03b6",
            "transactionsTrie" : "0x56e81f171bcc55a6ff8345e692c0f86e5b48e01b996cadc001622fb5e363b421",
            "uncleHash" : "0x1dcc4de8dec75d7aab85b567b6ccd41ad312451b948a7413f0a142fd40d49347"
        },
        "genesisRLP" : "0xf901faf901f5a00000000000000000000000000000000000000000000000000000000000000000a01dcc4de8dec75d7aab85b567b6ccd41ad312451b948a7413f0a142fd40d49347942adc25665018aa1fe0e6bc666dac8fc2697ff9baa021e213bbb6a6590941ab30ef7e13e57dcd51e8619ed98ad82cb2aa6996327482a056e81f171bcc55a6ff8345e692c0f86e5b48e01b996cadc001622fb5e363b421a056e81f171bcc55a6ff8345e692c0f86e5b48e01b996cadc001622fb5e363b421b90100000000000000000000000000000000000000000000000000000000000000000000000000000000000000000000000000000000000000000000000000000000000000000000000000000000000000000000000000000000000000000000000000000000000000000000000000000000000000000000000000000000000000000000000000000000000000000000000000000000000000000000000000000000000000000000000000000000000000000000000000000000000000000000000000000000000000000000000000000000000000000000000000000000000000000000000000000000000000000000000000000000000000000000000000000000008302000080830f4240808203b642a056e81f171bcc55a6ff8345e692c0f86e5b48e01b996cadc001622fb5e363b421880102030405060708c0c0",
        "lastblockhash" : "0x005453bfe7da3980ec609c4224f541843c0bc6af7cc3c87a1dcbf8a721fff3d6",
        "network" : "EIP150",
        "postState" : {
            "0x1000000000000000000000000000000000000001" : {
                "balance" : "0x00",
                "code" : "0x60106001557f6001600155601080600c6000396000f3006000355415600957005b6020356000600052602060006000f0",
                "nonce" : "0x01",
                "storage" : {
                    "0x01" : "0x10"
                }
            },
            "0x2adc25665018aa1fe0e6bc666dac8fc2697ff9ba" : {
                "balance" : "0x4563918244f56a48",
                "code" : "",
                "nonce" : "0x00",
                "storage" : {
                }
            },
            "0xa94f5374fce5edbc8e2a8697c15331677e6ebf0b" : {
                "balance" : "0x1c58",
                "code" : "",
                "nonce" : "0x01",
                "storage" : {
                }
            }
        },
        "pre" : {
            "0x1000000000000000000000000000000000000001" : {
                "balance" : "0x00",
                "code" : "0x60106001557f6001600155601080600c6000396000f3006000355415600957005b6020356000600052602060006000f0",
                "nonce" : "0x00",
                "storage" : {
                }
            },
            "0xa94f5374fce5edbc8e2a8697c15331677e6ebf0b" : {
                "balance" : "0x0186a0",
                "code" : "",
                "nonce" : "0x00",
                "storage" : {
                }
            }
        }
    },
    "contractCreationOOGdontLeaveEmptyContract_d0g0v0_EIP158" : {
        "_info" : {
            "comment" : "",
            "filledwith" : "cpp-1.3.0+commit.16292201.Linux.g++",
            "source" : "/src/GenStateTestAsBcTemp/stHomesteadSpecific/contractCreationOOGdontLeaveEmptyContract_d0g0v0Filler.json"
        },
        "blocks" : [
            {
                "blockHeader" : {
                    "bloom" : "0x00000000000000000000000000000000000000000000000000000000000000000000000000000000000000000000000000000000000000000000000000000000000000000000000000000000000000000000000000000000000000000000000000000000000000000000000000000000000000000000000000000000000000000000000000000000000000000000000000000000000000000000000000000000000000000000000000000000000000000000000000000000000000000000000000000000000000000000000000000000000000000000000000000000000000000000000000000000000000000000000000000000000000000000000000000000",
                    "coinbase" : "0x2adc25665018aa1fe0e6bc666dac8fc2697ff9ba",
                    "difficulty" : "0x020000",
                    "extraData" : "",
                    "gasLimit" : "0x0f4240",
                    "gasUsed" : "0x016a48",
                    "hash" : "0xb43c3015d7ea74ecae4ffe1303c163268f4315f268cd40c0f8cad2bedd500c36",
                    "mixHash" : "0xdeffbce00279c564a9915994c878edf74de8c957d6520c6d35db4163eb5a1ec2",
                    "nonce" : "0x14be97a1b08f8f63",
                    "number" : "0x01",
                    "parentHash" : "0xc197dd8d242ed404c45ba3296a0a3e60664a00eb52be61c81a750eb1f128ecde",
                    "receiptTrie" : "0xed4572e94671ef02cc28c296afb667fbd0caa8f195443db78053d7293f2d815a",
                    "stateRoot" : "0x6d62c8781dbe8448076e10b6f083cd2b2b418c22639d6831ad776de2e031d110",
                    "timestamp" : "0x03e8",
                    "transactionsTrie" : "0x5886f6d8c18d2ab5f33bb64a328d6eb09255443e2775248b610adabff31e790a",
                    "uncleHash" : "0x1dcc4de8dec75d7aab85b567b6ccd41ad312451b948a7413f0a142fd40d49347"
                },
                "rlp" : "0xf90260f901f8a0c197dd8d242ed404c45ba3296a0a3e60664a00eb52be61c81a750eb1f128ecdea01dcc4de8dec75d7aab85b567b6ccd41ad312451b948a7413f0a142fd40d49347942adc25665018aa1fe0e6bc666dac8fc2697ff9baa06d62c8781dbe8448076e10b6f083cd2b2b418c22639d6831ad776de2e031d110a05886f6d8c18d2ab5f33bb64a328d6eb09255443e2775248b610adabff31e790aa0ed4572e94671ef02cc28c296afb667fbd0caa8f195443db78053d7293f2d815ab90100000000000000000000000000000000000000000000000000000000000000000000000000000000000000000000000000000000000000000000000000000000000000000000000000000000000000000000000000000000000000000000000000000000000000000000000000000000000000000000000000000000000000000000000000000000000000000000000000000000000000000000000000000000000000000000000000000000000000000000000000000000000000000000000000000000000000000000000000000000000000000000000000000000000000000000000000000000000000000000000000000000000000000000000000000000008302000001830f424083016a488203e880a0deffbce00279c564a9915994c878edf74de8c957d6520c6d35db4163eb5a1ec28814be97a1b08f8f63f862f860800183016b8094100000000000000000000000000000000000000180801ca048fcbe6740dbb3ae8557dd1370ebd60e8fad8925522eeb2689984ef8241ae4d8a008f0cf92d81454dab493ab6b0cb3b69aec915cf8ab06bdeac36f617094f9c8d3c0",
                "transactions" : [
                    {
                        "data" : "",
                        "gasLimit" : "0x016b80",
                        "gasPrice" : "0x01",
                        "nonce" : "0x00",
                        "r" : "0x48fcbe6740dbb3ae8557dd1370ebd60e8fad8925522eeb2689984ef8241ae4d8",
                        "s" : "0x08f0cf92d81454dab493ab6b0cb3b69aec915cf8ab06bdeac36f617094f9c8d3",
                        "to" : "0x1000000000000000000000000000000000000001",
                        "v" : "0x1c",
                        "value" : "0x00"
                    }
                ],
                "uncleHeaders" : [
                ]
            }
        ],
        "genesisBlockHeader" : {
            "bloom" : "0x00000000000000000000000000000000000000000000000000000000000000000000000000000000000000000000000000000000000000000000000000000000000000000000000000000000000000000000000000000000000000000000000000000000000000000000000000000000000000000000000000000000000000000000000000000000000000000000000000000000000000000000000000000000000000000000000000000000000000000000000000000000000000000000000000000000000000000000000000000000000000000000000000000000000000000000000000000000000000000000000000000000000000000000000000000000",
            "coinbase" : "0x2adc25665018aa1fe0e6bc666dac8fc2697ff9ba",
            "difficulty" : "0x020000",
            "extraData" : "0x42",
            "gasLimit" : "0x0f4240",
            "gasUsed" : "0x00",
            "hash" : "0xc197dd8d242ed404c45ba3296a0a3e60664a00eb52be61c81a750eb1f128ecde",
            "mixHash" : "0x56e81f171bcc55a6ff8345e692c0f86e5b48e01b996cadc001622fb5e363b421",
            "nonce" : "0x0102030405060708",
            "number" : "0x00",
            "parentHash" : "0x0000000000000000000000000000000000000000000000000000000000000000",
            "receiptTrie" : "0x56e81f171bcc55a6ff8345e692c0f86e5b48e01b996cadc001622fb5e363b421",
            "stateRoot" : "0x21e213bbb6a6590941ab30ef7e13e57dcd51e8619ed98ad82cb2aa6996327482",
            "timestamp" : "0x03b6",
            "transactionsTrie" : "0x56e81f171bcc55a6ff8345e692c0f86e5b48e01b996cadc001622fb5e363b421",
            "uncleHash" : "0x1dcc4de8dec75d7aab85b567b6ccd41ad312451b948a7413f0a142fd40d49347"
        },
        "genesisRLP" : "0xf901faf901f5a00000000000000000000000000000000000000000000000000000000000000000a01dcc4de8dec75d7aab85b567b6ccd41ad312451b948a7413f0a142fd40d49347942adc25665018aa1fe0e6bc666dac8fc2697ff9baa021e213bbb6a6590941ab30ef7e13e57dcd51e8619ed98ad82cb2aa6996327482a056e81f171bcc55a6ff8345e692c0f86e5b48e01b996cadc001622fb5e363b421a056e81f171bcc55a6ff8345e692c0f86e5b48e01b996cadc001622fb5e363b421b90100000000000000000000000000000000000000000000000000000000000000000000000000000000000000000000000000000000000000000000000000000000000000000000000000000000000000000000000000000000000000000000000000000000000000000000000000000000000000000000000000000000000000000000000000000000000000000000000000000000000000000000000000000000000000000000000000000000000000000000000000000000000000000000000000000000000000000000000000000000000000000000000000000000000000000000000000000000000000000000000000000000000000000000000000000000008302000080830f4240808203b642a056e81f171bcc55a6ff8345e692c0f86e5b48e01b996cadc001622fb5e363b421880102030405060708c0c0",
        "lastblockhash" : "0xb43c3015d7ea74ecae4ffe1303c163268f4315f268cd40c0f8cad2bedd500c36",
        "network" : "EIP158",
        "postState" : {
            "0x1000000000000000000000000000000000000001" : {
                "balance" : "0x00",
                "code" : "0x60106001557f6001600155601080600c6000396000f3006000355415600957005b6020356000600052602060006000f0",
                "nonce" : "0x01",
                "storage" : {
                    "0x01" : "0x10"
                }
            },
            "0x2adc25665018aa1fe0e6bc666dac8fc2697ff9ba" : {
                "balance" : "0x4563918244f56a48",
                "code" : "",
                "nonce" : "0x00",
                "storage" : {
                }
            },
            "0xa94f5374fce5edbc8e2a8697c15331677e6ebf0b" : {
                "balance" : "0x1c58",
                "code" : "",
                "nonce" : "0x01",
                "storage" : {
                }
            }
        },
        "pre" : {
            "0x1000000000000000000000000000000000000001" : {
                "balance" : "0x00",
                "code" : "0x60106001557f6001600155601080600c6000396000f3006000355415600957005b6020356000600052602060006000f0",
                "nonce" : "0x00",
                "storage" : {
                }
            },
            "0xa94f5374fce5edbc8e2a8697c15331677e6ebf0b" : {
                "balance" : "0x0186a0",
                "code" : "",
                "nonce" : "0x00",
                "storage" : {
                }
            }
        }
    },
    "contractCreationOOGdontLeaveEmptyContract_d0g0v0_Frontier" : {
        "_info" : {
            "comment" : "",
            "filledwith" : "cpp-1.3.0+commit.16292201.Linux.g++",
            "source" : "/src/GenStateTestAsBcTemp/stHomesteadSpecific/contractCreationOOGdontLeaveEmptyContract_d0g0v0Filler.json"
        },
        "blocks" : [
            {
                "blockHeader" : {
                    "bloom" : "0x00000000000000000000000000000000000000000000000000000000000000000000000000000000000000000000000000000000000000000000000000000000000000000000000000000000000000000000000000000000000000000000000000000000000000000000000000000000000000000000000000000000000000000000000000000000000000000000000000000000000000000000000000000000000000000000000000000000000000000000000000000000000000000000000000000000000000000000000000000000000000000000000000000000000000000000000000000000000000000000000000000000000000000000000000000000",
                    "coinbase" : "0x2adc25665018aa1fe0e6bc666dac8fc2697ff9ba",
                    "difficulty" : "0x020000",
                    "extraData" : "",
                    "gasLimit" : "0x0f4240",
                    "gasUsed" : "0x016b80",
                    "hash" : "0xb9406bff337cac652c859dcad6e9c7c9a0c4acbf3fa59be1a915d8eb4dcba6a7",
                    "mixHash" : "0xc7b15d271327d64d4faae6217774513d2edff723e15ea593077653540636ff96",
                    "nonce" : "0x2e2f73b7d5275a75",
                    "number" : "0x01",
                    "parentHash" : "0xc197dd8d242ed404c45ba3296a0a3e60664a00eb52be61c81a750eb1f128ecde",
                    "receiptTrie" : "0x8e820dd78fbefd430c1cb18dbf61d0ebe8236278b33ea764deee3734f8d33d8c",
                    "stateRoot" : "0xf18826e3108e8b891a4eac830fe4b9115cf1b44035c67da8436526feee90f8a0",
                    "timestamp" : "0x03e8",
                    "transactionsTrie" : "0x5886f6d8c18d2ab5f33bb64a328d6eb09255443e2775248b610adabff31e790a",
                    "uncleHash" : "0x1dcc4de8dec75d7aab85b567b6ccd41ad312451b948a7413f0a142fd40d49347"
                },
                "rlp" : "0xf90260f901f8a0c197dd8d242ed404c45ba3296a0a3e60664a00eb52be61c81a750eb1f128ecdea01dcc4de8dec75d7aab85b567b6ccd41ad312451b948a7413f0a142fd40d49347942adc25665018aa1fe0e6bc666dac8fc2697ff9baa0f18826e3108e8b891a4eac830fe4b9115cf1b44035c67da8436526feee90f8a0a05886f6d8c18d2ab5f33bb64a328d6eb09255443e2775248b610adabff31e790aa08e820dd78fbefd430c1cb18dbf61d0ebe8236278b33ea764deee3734f8d33d8cb90100000000000000000000000000000000000000000000000000000000000000000000000000000000000000000000000000000000000000000000000000000000000000000000000000000000000000000000000000000000000000000000000000000000000000000000000000000000000000000000000000000000000000000000000000000000000000000000000000000000000000000000000000000000000000000000000000000000000000000000000000000000000000000000000000000000000000000000000000000000000000000000000000000000000000000000000000000000000000000000000000000000000000000000000000000000008302000001830f424083016b808203e880a0c7b15d271327d64d4faae6217774513d2edff723e15ea593077653540636ff96882e2f73b7d5275a75f862f860800183016b8094100000000000000000000000000000000000000180801ca048fcbe6740dbb3ae8557dd1370ebd60e8fad8925522eeb2689984ef8241ae4d8a008f0cf92d81454dab493ab6b0cb3b69aec915cf8ab06bdeac36f617094f9c8d3c0",
                "transactions" : [
                    {
                        "data" : "",
                        "gasLimit" : "0x016b80",
                        "gasPrice" : "0x01",
                        "nonce" : "0x00",
                        "r" : "0x48fcbe6740dbb3ae8557dd1370ebd60e8fad8925522eeb2689984ef8241ae4d8",
                        "s" : "0x08f0cf92d81454dab493ab6b0cb3b69aec915cf8ab06bdeac36f617094f9c8d3",
                        "to" : "0x1000000000000000000000000000000000000001",
                        "v" : "0x1c",
                        "value" : "0x00"
                    }
                ],
                "uncleHeaders" : [
                ]
            }
        ],
        "genesisBlockHeader" : {
            "bloom" : "0x00000000000000000000000000000000000000000000000000000000000000000000000000000000000000000000000000000000000000000000000000000000000000000000000000000000000000000000000000000000000000000000000000000000000000000000000000000000000000000000000000000000000000000000000000000000000000000000000000000000000000000000000000000000000000000000000000000000000000000000000000000000000000000000000000000000000000000000000000000000000000000000000000000000000000000000000000000000000000000000000000000000000000000000000000000000",
            "coinbase" : "0x2adc25665018aa1fe0e6bc666dac8fc2697ff9ba",
            "difficulty" : "0x020000",
            "extraData" : "0x42",
            "gasLimit" : "0x0f4240",
            "gasUsed" : "0x00",
            "hash" : "0xc197dd8d242ed404c45ba3296a0a3e60664a00eb52be61c81a750eb1f128ecde",
            "mixHash" : "0x56e81f171bcc55a6ff8345e692c0f86e5b48e01b996cadc001622fb5e363b421",
            "nonce" : "0x0102030405060708",
            "number" : "0x00",
            "parentHash" : "0x0000000000000000000000000000000000000000000000000000000000000000",
            "receiptTrie" : "0x56e81f171bcc55a6ff8345e692c0f86e5b48e01b996cadc001622fb5e363b421",
            "stateRoot" : "0x21e213bbb6a6590941ab30ef7e13e57dcd51e8619ed98ad82cb2aa6996327482",
            "timestamp" : "0x03b6",
            "transactionsTrie" : "0x56e81f171bcc55a6ff8345e692c0f86e5b48e01b996cadc001622fb5e363b421",
            "uncleHash" : "0x1dcc4de8dec75d7aab85b567b6ccd41ad312451b948a7413f0a142fd40d49347"
        },
        "genesisRLP" : "0xf901faf901f5a00000000000000000000000000000000000000000000000000000000000000000a01dcc4de8dec75d7aab85b567b6ccd41ad312451b948a7413f0a142fd40d49347942adc25665018aa1fe0e6bc666dac8fc2697ff9baa021e213bbb6a6590941ab30ef7e13e57dcd51e8619ed98ad82cb2aa6996327482a056e81f171bcc55a6ff8345e692c0f86e5b48e01b996cadc001622fb5e363b421a056e81f171bcc55a6ff8345e692c0f86e5b48e01b996cadc001622fb5e363b421b90100000000000000000000000000000000000000000000000000000000000000000000000000000000000000000000000000000000000000000000000000000000000000000000000000000000000000000000000000000000000000000000000000000000000000000000000000000000000000000000000000000000000000000000000000000000000000000000000000000000000000000000000000000000000000000000000000000000000000000000000000000000000000000000000000000000000000000000000000000000000000000000000000000000000000000000000000000000000000000000000000000000000000000000000000000000008302000080830f4240808203b642a056e81f171bcc55a6ff8345e692c0f86e5b48e01b996cadc001622fb5e363b421880102030405060708c0c0",
        "lastblockhash" : "0xb9406bff337cac652c859dcad6e9c7c9a0c4acbf3fa59be1a915d8eb4dcba6a7",
        "network" : "Frontier",
        "postState" : {
            "0x1000000000000000000000000000000000000001" : {
                "balance" : "0x00",
                "code" : "0x60106001557f6001600155601080600c6000396000f3006000355415600957005b6020356000600052602060006000f0",
                "nonce" : "0x01",
                "storage" : {
                    "0x01" : "0x10"
                }
            },
            "0x2adc25665018aa1fe0e6bc666dac8fc2697ff9ba" : {
                "balance" : "0x4563918244f56b80",
                "code" : "",
                "nonce" : "0x00",
                "storage" : {
                }
            },
            "0xa94f5374fce5edbc8e2a8697c15331677e6ebf0b" : {
                "balance" : "0x1b20",
                "code" : "",
                "nonce" : "0x01",
                "storage" : {
                }
            }
        },
        "pre" : {
            "0x1000000000000000000000000000000000000001" : {
                "balance" : "0x00",
                "code" : "0x60106001557f6001600155601080600c6000396000f3006000355415600957005b6020356000600052602060006000f0",
                "nonce" : "0x00",
                "storage" : {
                }
            },
            "0xa94f5374fce5edbc8e2a8697c15331677e6ebf0b" : {
                "balance" : "0x0186a0",
                "code" : "",
                "nonce" : "0x00",
                "storage" : {
                }
            }
        }
    },
    "contractCreationOOGdontLeaveEmptyContract_d0g0v0_Homestead" : {
        "_info" : {
            "comment" : "",
            "filledwith" : "cpp-1.3.0+commit.16292201.Linux.g++",
            "source" : "/src/GenStateTestAsBcTemp/stHomesteadSpecific/contractCreationOOGdontLeaveEmptyContract_d0g0v0Filler.json"
        },
        "blocks" : [
            {
                "blockHeader" : {
                    "bloom" : "0x00000000000000000000000000000000000000000000000000000000000000000000000000000000000000000000000000000000000000000000000000000000000000000000000000000000000000000000000000000000000000000000000000000000000000000000000000000000000000000000000000000000000000000000000000000000000000000000000000000000000000000000000000000000000000000000000000000000000000000000000000000000000000000000000000000000000000000000000000000000000000000000000000000000000000000000000000000000000000000000000000000000000000000000000000000000",
                    "coinbase" : "0x2adc25665018aa1fe0e6bc666dac8fc2697ff9ba",
                    "difficulty" : "0x020000",
                    "extraData" : "",
                    "gasLimit" : "0x0f4240",
                    "gasUsed" : "0x016b80",
                    "hash" : "0x928714ffe04fb9d4ef9ec19a9b3822a388312d45b13a745a6c8e3ea1ee52f760",
                    "mixHash" : "0x1849860372f6c2a5966935244fe6d5a11ad63fd7f060d43d92b3c86c1827d396",
                    "nonce" : "0xfc3cdc89a80cd704",
                    "number" : "0x01",
                    "parentHash" : "0xc197dd8d242ed404c45ba3296a0a3e60664a00eb52be61c81a750eb1f128ecde",
                    "receiptTrie" : "0x8e820dd78fbefd430c1cb18dbf61d0ebe8236278b33ea764deee3734f8d33d8c",
                    "stateRoot" : "0xf18826e3108e8b891a4eac830fe4b9115cf1b44035c67da8436526feee90f8a0",
                    "timestamp" : "0x03e8",
                    "transactionsTrie" : "0x5886f6d8c18d2ab5f33bb64a328d6eb09255443e2775248b610adabff31e790a",
                    "uncleHash" : "0x1dcc4de8dec75d7aab85b567b6ccd41ad312451b948a7413f0a142fd40d49347"
                },
                "rlp" : "0xf90260f901f8a0c197dd8d242ed404c45ba3296a0a3e60664a00eb52be61c81a750eb1f128ecdea01dcc4de8dec75d7aab85b567b6ccd41ad312451b948a7413f0a142fd40d49347942adc25665018aa1fe0e6bc666dac8fc2697ff9baa0f18826e3108e8b891a4eac830fe4b9115cf1b44035c67da8436526feee90f8a0a05886f6d8c18d2ab5f33bb64a328d6eb09255443e2775248b610adabff31e790aa08e820dd78fbefd430c1cb18dbf61d0ebe8236278b33ea764deee3734f8d33d8cb90100000000000000000000000000000000000000000000000000000000000000000000000000000000000000000000000000000000000000000000000000000000000000000000000000000000000000000000000000000000000000000000000000000000000000000000000000000000000000000000000000000000000000000000000000000000000000000000000000000000000000000000000000000000000000000000000000000000000000000000000000000000000000000000000000000000000000000000000000000000000000000000000000000000000000000000000000000000000000000000000000000000000000000000000000000000008302000001830f424083016b808203e880a01849860372f6c2a5966935244fe6d5a11ad63fd7f060d43d92b3c86c1827d39688fc3cdc89a80cd704f862f860800183016b8094100000000000000000000000000000000000000180801ca048fcbe6740dbb3ae8557dd1370ebd60e8fad8925522eeb2689984ef8241ae4d8a008f0cf92d81454dab493ab6b0cb3b69aec915cf8ab06bdeac36f617094f9c8d3c0",
                "transactions" : [
                    {
                        "data" : "",
                        "gasLimit" : "0x016b80",
                        "gasPrice" : "0x01",
                        "nonce" : "0x00",
                        "r" : "0x48fcbe6740dbb3ae8557dd1370ebd60e8fad8925522eeb2689984ef8241ae4d8",
                        "s" : "0x08f0cf92d81454dab493ab6b0cb3b69aec915cf8ab06bdeac36f617094f9c8d3",
                        "to" : "0x1000000000000000000000000000000000000001",
                        "v" : "0x1c",
                        "value" : "0x00"
                    }
                ],
                "uncleHeaders" : [
                ]
            }
        ],
        "genesisBlockHeader" : {
            "bloom" : "0x00000000000000000000000000000000000000000000000000000000000000000000000000000000000000000000000000000000000000000000000000000000000000000000000000000000000000000000000000000000000000000000000000000000000000000000000000000000000000000000000000000000000000000000000000000000000000000000000000000000000000000000000000000000000000000000000000000000000000000000000000000000000000000000000000000000000000000000000000000000000000000000000000000000000000000000000000000000000000000000000000000000000000000000000000000000",
            "coinbase" : "0x2adc25665018aa1fe0e6bc666dac8fc2697ff9ba",
            "difficulty" : "0x020000",
            "extraData" : "0x42",
            "gasLimit" : "0x0f4240",
            "gasUsed" : "0x00",
            "hash" : "0xc197dd8d242ed404c45ba3296a0a3e60664a00eb52be61c81a750eb1f128ecde",
            "mixHash" : "0x56e81f171bcc55a6ff8345e692c0f86e5b48e01b996cadc001622fb5e363b421",
            "nonce" : "0x0102030405060708",
            "number" : "0x00",
            "parentHash" : "0x0000000000000000000000000000000000000000000000000000000000000000",
            "receiptTrie" : "0x56e81f171bcc55a6ff8345e692c0f86e5b48e01b996cadc001622fb5e363b421",
            "stateRoot" : "0x21e213bbb6a6590941ab30ef7e13e57dcd51e8619ed98ad82cb2aa6996327482",
            "timestamp" : "0x03b6",
            "transactionsTrie" : "0x56e81f171bcc55a6ff8345e692c0f86e5b48e01b996cadc001622fb5e363b421",
            "uncleHash" : "0x1dcc4de8dec75d7aab85b567b6ccd41ad312451b948a7413f0a142fd40d49347"
        },
        "genesisRLP" : "0xf901faf901f5a00000000000000000000000000000000000000000000000000000000000000000a01dcc4de8dec75d7aab85b567b6ccd41ad312451b948a7413f0a142fd40d49347942adc25665018aa1fe0e6bc666dac8fc2697ff9baa021e213bbb6a6590941ab30ef7e13e57dcd51e8619ed98ad82cb2aa6996327482a056e81f171bcc55a6ff8345e692c0f86e5b48e01b996cadc001622fb5e363b421a056e81f171bcc55a6ff8345e692c0f86e5b48e01b996cadc001622fb5e363b421b90100000000000000000000000000000000000000000000000000000000000000000000000000000000000000000000000000000000000000000000000000000000000000000000000000000000000000000000000000000000000000000000000000000000000000000000000000000000000000000000000000000000000000000000000000000000000000000000000000000000000000000000000000000000000000000000000000000000000000000000000000000000000000000000000000000000000000000000000000000000000000000000000000000000000000000000000000000000000000000000000000000000000000000000000000000000008302000080830f4240808203b642a056e81f171bcc55a6ff8345e692c0f86e5b48e01b996cadc001622fb5e363b421880102030405060708c0c0",
        "lastblockhash" : "0x928714ffe04fb9d4ef9ec19a9b3822a388312d45b13a745a6c8e3ea1ee52f760",
        "network" : "Homestead",
        "postState" : {
            "0x1000000000000000000000000000000000000001" : {
                "balance" : "0x00",
                "code" : "0x60106001557f6001600155601080600c6000396000f3006000355415600957005b6020356000600052602060006000f0",
                "nonce" : "0x01",
                "storage" : {
                    "0x01" : "0x10"
                }
            },
            "0x2adc25665018aa1fe0e6bc666dac8fc2697ff9ba" : {
                "balance" : "0x4563918244f56b80",
                "code" : "",
                "nonce" : "0x00",
                "storage" : {
                }
            },
            "0xa94f5374fce5edbc8e2a8697c15331677e6ebf0b" : {
                "balance" : "0x1b20",
                "code" : "",
                "nonce" : "0x01",
                "storage" : {
                }
            }
        },
        "pre" : {
            "0x1000000000000000000000000000000000000001" : {
                "balance" : "0x00",
                "code" : "0x60106001557f6001600155601080600c6000396000f3006000355415600957005b6020356000600052602060006000f0",
                "nonce" : "0x00",
                "storage" : {
                }
            },
            "0xa94f5374fce5edbc8e2a8697c15331677e6ebf0b" : {
                "balance" : "0x0186a0",
                "code" : "",
                "nonce" : "0x00",
                "storage" : {
                }
            }
        }
    },
    "contractCreationOOGdontLeaveEmptyContract_d0g0v0_Metropolis" : {
        "_info" : {
            "comment" : "",
            "filledwith" : "cpp-1.3.0+commit.16292201.Linux.g++",
            "source" : "/src/GenStateTestAsBcTemp/stHomesteadSpecific/contractCreationOOGdontLeaveEmptyContract_d0g0v0Filler.json"
        },
        "blocks" : [
            {
                "blockHeader" : {
                    "bloom" : "0x00000000000000000000000000000000000000000000000000000000000000000000000000000000000000000000000000000000000000000000000000000000000000000000000000000000000000000000000000000000000000000000000000000000000000000000000000000000000000000000000000000000000000000000000000000000000000000000000000000000000000000000000000000000000000000000000000000000000000000000000000000000000000000000000000000000000000000000000000000000000000000000000000000000000000000000000000000000000000000000000000000000000000000000000000000000",
                    "coinbase" : "0x2adc25665018aa1fe0e6bc666dac8fc2697ff9ba",
                    "difficulty" : "0x020000",
                    "extraData" : "",
                    "gasLimit" : "0x0f4240",
                    "gasUsed" : "0x016a48",
                    "hash" : "0x46362f5f87f2d0922b51fea6fce68d3273dc3b021b4643c8aee90bd231f2fd23",
                    "mixHash" : "0x330c7b5a16a65fc22f9c9abb9da62876d32c67361b2e47f2fc74c7d35b841dfe",
                    "nonce" : "0x6daf5862a174202a",
                    "number" : "0x01",
                    "parentHash" : "0xc197dd8d242ed404c45ba3296a0a3e60664a00eb52be61c81a750eb1f128ecde",
                    "receiptTrie" : "0x3668343422de198ffb815b81ab0f6d39d132bc7068af5fee12b292adc49098cd",
                    "stateRoot" : "0x126f5e0b48ea8559a39ca7a0df48ab11ba5ad280e2910bf6cd919d065aa44d14",
                    "timestamp" : "0x03e8",
                    "transactionsTrie" : "0x5886f6d8c18d2ab5f33bb64a328d6eb09255443e2775248b610adabff31e790a",
                    "uncleHash" : "0x1dcc4de8dec75d7aab85b567b6ccd41ad312451b948a7413f0a142fd40d49347"
                },
                "rlp" : "0xf90260f901f8a0c197dd8d242ed404c45ba3296a0a3e60664a00eb52be61c81a750eb1f128ecdea01dcc4de8dec75d7aab85b567b6ccd41ad312451b948a7413f0a142fd40d49347942adc25665018aa1fe0e6bc666dac8fc2697ff9baa0126f5e0b48ea8559a39ca7a0df48ab11ba5ad280e2910bf6cd919d065aa44d14a05886f6d8c18d2ab5f33bb64a328d6eb09255443e2775248b610adabff31e790aa03668343422de198ffb815b81ab0f6d39d132bc7068af5fee12b292adc49098cdb90100000000000000000000000000000000000000000000000000000000000000000000000000000000000000000000000000000000000000000000000000000000000000000000000000000000000000000000000000000000000000000000000000000000000000000000000000000000000000000000000000000000000000000000000000000000000000000000000000000000000000000000000000000000000000000000000000000000000000000000000000000000000000000000000000000000000000000000000000000000000000000000000000000000000000000000000000000000000000000000000000000000000000000000000000000000008302000001830f424083016a488203e880a0330c7b5a16a65fc22f9c9abb9da62876d32c67361b2e47f2fc74c7d35b841dfe886daf5862a174202af862f860800183016b8094100000000000000000000000000000000000000180801ca048fcbe6740dbb3ae8557dd1370ebd60e8fad8925522eeb2689984ef8241ae4d8a008f0cf92d81454dab493ab6b0cb3b69aec915cf8ab06bdeac36f617094f9c8d3c0",
                "transactions" : [
                    {
                        "data" : "",
                        "gasLimit" : "0x016b80",
                        "gasPrice" : "0x01",
                        "nonce" : "0x00",
                        "r" : "0x48fcbe6740dbb3ae8557dd1370ebd60e8fad8925522eeb2689984ef8241ae4d8",
                        "s" : "0x08f0cf92d81454dab493ab6b0cb3b69aec915cf8ab06bdeac36f617094f9c8d3",
                        "to" : "0x1000000000000000000000000000000000000001",
                        "v" : "0x1c",
                        "value" : "0x00"
                    }
                ],
                "uncleHeaders" : [
                ]
            }
        ],
        "genesisBlockHeader" : {
            "bloom" : "0x00000000000000000000000000000000000000000000000000000000000000000000000000000000000000000000000000000000000000000000000000000000000000000000000000000000000000000000000000000000000000000000000000000000000000000000000000000000000000000000000000000000000000000000000000000000000000000000000000000000000000000000000000000000000000000000000000000000000000000000000000000000000000000000000000000000000000000000000000000000000000000000000000000000000000000000000000000000000000000000000000000000000000000000000000000000",
            "coinbase" : "0x2adc25665018aa1fe0e6bc666dac8fc2697ff9ba",
            "difficulty" : "0x020000",
            "extraData" : "0x42",
            "gasLimit" : "0x0f4240",
            "gasUsed" : "0x00",
            "hash" : "0xc197dd8d242ed404c45ba3296a0a3e60664a00eb52be61c81a750eb1f128ecde",
            "mixHash" : "0x56e81f171bcc55a6ff8345e692c0f86e5b48e01b996cadc001622fb5e363b421",
            "nonce" : "0x0102030405060708",
            "number" : "0x00",
            "parentHash" : "0x0000000000000000000000000000000000000000000000000000000000000000",
            "receiptTrie" : "0x56e81f171bcc55a6ff8345e692c0f86e5b48e01b996cadc001622fb5e363b421",
            "stateRoot" : "0x21e213bbb6a6590941ab30ef7e13e57dcd51e8619ed98ad82cb2aa6996327482",
            "timestamp" : "0x03b6",
            "transactionsTrie" : "0x56e81f171bcc55a6ff8345e692c0f86e5b48e01b996cadc001622fb5e363b421",
            "uncleHash" : "0x1dcc4de8dec75d7aab85b567b6ccd41ad312451b948a7413f0a142fd40d49347"
        },
        "genesisRLP" : "0xf901faf901f5a00000000000000000000000000000000000000000000000000000000000000000a01dcc4de8dec75d7aab85b567b6ccd41ad312451b948a7413f0a142fd40d49347942adc25665018aa1fe0e6bc666dac8fc2697ff9baa021e213bbb6a6590941ab30ef7e13e57dcd51e8619ed98ad82cb2aa6996327482a056e81f171bcc55a6ff8345e692c0f86e5b48e01b996cadc001622fb5e363b421a056e81f171bcc55a6ff8345e692c0f86e5b48e01b996cadc001622fb5e363b421b90100000000000000000000000000000000000000000000000000000000000000000000000000000000000000000000000000000000000000000000000000000000000000000000000000000000000000000000000000000000000000000000000000000000000000000000000000000000000000000000000000000000000000000000000000000000000000000000000000000000000000000000000000000000000000000000000000000000000000000000000000000000000000000000000000000000000000000000000000000000000000000000000000000000000000000000000000000000000000000000000000000000000000000000000000000000008302000080830f4240808203b642a056e81f171bcc55a6ff8345e692c0f86e5b48e01b996cadc001622fb5e363b421880102030405060708c0c0",
        "lastblockhash" : "0x46362f5f87f2d0922b51fea6fce68d3273dc3b021b4643c8aee90bd231f2fd23",
        "network" : "Metropolis",
        "postState" : {
            "0x00000000000000000000000000000000000000f0" : {
                "balance" : "0x00",
                "code" : "",
                "nonce" : "0x00",
                "storage" : {
                }
            },
            "0x1000000000000000000000000000000000000001" : {
                "balance" : "0x00",
                "code" : "0x60106001557f6001600155601080600c6000396000f3006000355415600957005b6020356000600052602060006000f0",
                "nonce" : "0x01",
                "storage" : {
                    "0x01" : "0x10"
                }
            },
            "0x2adc25665018aa1fe0e6bc666dac8fc2697ff9ba" : {
                "balance" : "0x4563918244f56a48",
                "code" : "",
                "nonce" : "0x00",
                "storage" : {
                }
            },
            "0xa94f5374fce5edbc8e2a8697c15331677e6ebf0b" : {
                "balance" : "0x1c58",
                "code" : "",
                "nonce" : "0x01",
                "storage" : {
                }
            }
        },
        "pre" : {
            "0x1000000000000000000000000000000000000001" : {
                "balance" : "0x00",
                "code" : "0x60106001557f6001600155601080600c6000396000f3006000355415600957005b6020356000600052602060006000f0",
                "nonce" : "0x00",
                "storage" : {
                }
            },
            "0xa94f5374fce5edbc8e2a8697c15331677e6ebf0b" : {
                "balance" : "0x0186a0",
                "code" : "",
                "nonce" : "0x00",
                "storage" : {
                }
            }
        }
    }
}