{
    "contractCreationOOGdontLeaveEmptyContractViaTransaction_d0g0v0_EIP150" : {
        "_info" : {
            "comment" : "",
            "filledwith" : "cpp-1.3.0+commit.16292201.Linux.g++",
            "source" : "/src/GenStateTestAsBcTemp/stHomesteadSpecific/contractCreationOOGdontLeaveEmptyContractViaTransaction_d0g0v0Filler.json"
        },
        "blocks" : [
            {
                "blockHeader" : {
                    "bloom" : "0x00000000000000000000000000000000000000000000000000000000000000000000000000000000000000000000000000000000000000000000000000000000000000000000000000000000000000000000000000000000000000000000000000000000000000000000000000000000000000000000000000000000000000000000000000000000000000000000000000000000000000000000000000000000000000000000000000000000000000000000000000000000000000000000000000000000000000000000000000000000000000000000000000000000000000000000000000000000000000000000000000000000000000000000000000000000",
                    "coinbase" : "0x2adc25665018aa1fe0e6bc666dac8fc2697ff9ba",
                    "difficulty" : "0x020000",
                    "extraData" : "",
                    "gasLimit" : "0x0f4240",
                    "gasUsed" : "0x012411",
                    "hash" : "0x9b1ccbd2b8046ec75f54cd586547cfd1d8b121910ac059c6ac5b658ebd0ff74d",
                    "mixHash" : "0xa1014dad583c9dcf3b0ec8085063fa1ec8f5142adbcf2b1d6064bfb8836243c4",
                    "nonce" : "0x98161d5a0d7ae8af",
                    "number" : "0x01",
                    "parentHash" : "0xe5a437534ced7e31e44e28665f1e3cc47c479a7d58c28b2c526d31c7baefa9a8",
                    "receiptTrie" : "0xa63ffb62c2696aaa17532b3586a6566b49593215b7638b0b26584099959c7c18",
                    "stateRoot" : "0x103b5b674d7a830696bf15e879c9fbe444b430115564e93a0b6a9fff57077a8a",
                    "timestamp" : "0x03e8",
                    "transactionsTrie" : "0xfadf0d215532cd6486a8ddfac719ca2eabd2547f7cda9f32185c1177c7f23d75",
                    "uncleHash" : "0x1dcc4de8dec75d7aab85b567b6ccd41ad312451b948a7413f0a142fd40d49347"
                },
                "rlp" : "0xf9026ff901f8a0e5a437534ced7e31e44e28665f1e3cc47c479a7d58c28b2c526d31c7baefa9a8a01dcc4de8dec75d7aab85b567b6ccd41ad312451b948a7413f0a142fd40d49347942adc25665018aa1fe0e6bc666dac8fc2697ff9baa0103b5b674d7a830696bf15e879c9fbe444b430115564e93a0b6a9fff57077a8aa0fadf0d215532cd6486a8ddfac719ca2eabd2547f7cda9f32185c1177c7f23d75a0a63ffb62c2696aaa17532b3586a6566b49593215b7638b0b26584099959c7c18b90100000000000000000000000000000000000000000000000000000000000000000000000000000000000000000000000000000000000000000000000000000000000000000000000000000000000000000000000000000000000000000000000000000000000000000000000000000000000000000000000000000000000000000000000000000000000000000000000000000000000000000000000000000000000000000000000000000000000000000000000000000000000000000000000000000000000000000000000000000000000000000000000000000000000000000000000000000000000000000000000000000000000000000000000000000000008302000001830f4240830124118203e880a0a1014dad583c9dcf3b0ec8085063fa1ec8f5142adbcf2b1d6064bfb8836243c48898161d5a0d7ae8aff871f86f8001830177008080a36040600060406000600073100000000000000000000000000000000000000161c350f11ba0853740cbaebf3b696c992d835f16e8159e521ad8b04ec513949cfba45c6b9e9ea035ac6d22ac62556b698ae2c76c368a2913b380732ba26254dc785e22926476a0c0",
                "transactions" : [
                    {
                        "data" : "0x6040600060406000600073100000000000000000000000000000000000000161c350f1",
                        "gasLimit" : "0x017700",
                        "gasPrice" : "0x01",
                        "nonce" : "0x00",
                        "r" : "0x853740cbaebf3b696c992d835f16e8159e521ad8b04ec513949cfba45c6b9e9e",
                        "s" : "0x35ac6d22ac62556b698ae2c76c368a2913b380732ba26254dc785e22926476a0",
                        "to" : "",
                        "v" : "0x1b",
                        "value" : "0x00"
                    }
                ],
                "uncleHeaders" : [
                ]
            }
        ],
        "genesisBlockHeader" : {
            "bloom" : "0x00000000000000000000000000000000000000000000000000000000000000000000000000000000000000000000000000000000000000000000000000000000000000000000000000000000000000000000000000000000000000000000000000000000000000000000000000000000000000000000000000000000000000000000000000000000000000000000000000000000000000000000000000000000000000000000000000000000000000000000000000000000000000000000000000000000000000000000000000000000000000000000000000000000000000000000000000000000000000000000000000000000000000000000000000000000",
            "coinbase" : "0x2adc25665018aa1fe0e6bc666dac8fc2697ff9ba",
            "difficulty" : "0x020000",
            "extraData" : "0x42",
            "gasLimit" : "0x0f4240",
            "gasUsed" : "0x00",
            "hash" : "0xe5a437534ced7e31e44e28665f1e3cc47c479a7d58c28b2c526d31c7baefa9a8",
            "mixHash" : "0x56e81f171bcc55a6ff8345e692c0f86e5b48e01b996cadc001622fb5e363b421",
            "nonce" : "0x0102030405060708",
            "number" : "0x00",
            "parentHash" : "0x0000000000000000000000000000000000000000000000000000000000000000",
            "receiptTrie" : "0x56e81f171bcc55a6ff8345e692c0f86e5b48e01b996cadc001622fb5e363b421",
            "stateRoot" : "0x26ca89fc47fe53d151a3cbbb0e2700c971eb046457d20cffe91c448f0b4d3df5",
            "timestamp" : "0x03b6",
            "transactionsTrie" : "0x56e81f171bcc55a6ff8345e692c0f86e5b48e01b996cadc001622fb5e363b421",
            "uncleHash" : "0x1dcc4de8dec75d7aab85b567b6ccd41ad312451b948a7413f0a142fd40d49347"
        },
        "genesisRLP" : "0xf901faf901f5a00000000000000000000000000000000000000000000000000000000000000000a01dcc4de8dec75d7aab85b567b6ccd41ad312451b948a7413f0a142fd40d49347942adc25665018aa1fe0e6bc666dac8fc2697ff9baa026ca89fc47fe53d151a3cbbb0e2700c971eb046457d20cffe91c448f0b4d3df5a056e81f171bcc55a6ff8345e692c0f86e5b48e01b996cadc001622fb5e363b421a056e81f171bcc55a6ff8345e692c0f86e5b48e01b996cadc001622fb5e363b421b90100000000000000000000000000000000000000000000000000000000000000000000000000000000000000000000000000000000000000000000000000000000000000000000000000000000000000000000000000000000000000000000000000000000000000000000000000000000000000000000000000000000000000000000000000000000000000000000000000000000000000000000000000000000000000000000000000000000000000000000000000000000000000000000000000000000000000000000000000000000000000000000000000000000000000000000000000000000000000000000000000000000000000000000000000000000008302000080830f4240808203b642a056e81f171bcc55a6ff8345e692c0f86e5b48e01b996cadc001622fb5e363b421880102030405060708c0c0",
        "lastblockhash" : "0x9b1ccbd2b8046ec75f54cd586547cfd1d8b121910ac059c6ac5b658ebd0ff74d",
        "network" : "EIP150",
        "postState" : {
            "0x1000000000000000000000000000000000000001" : {
                "balance" : "0x00",
                "code" : "0x6001600155",
                "nonce" : "0x00",
                "storage" : {
                    "0x01" : "0x01"
                }
            },
            "0x2adc25665018aa1fe0e6bc666dac8fc2697ff9ba" : {
                "balance" : "0x4563918244f52411",
                "code" : "",
                "nonce" : "0x00",
                "storage" : {
                }
            },
            "0x6295ee1b4f6dd65047762f924ecd367c17eabf8f" : {
                "balance" : "0x00",
                "code" : "",
                "nonce" : "0x00",
                "storage" : {
                }
            },
            "0xa94f5374fce5edbc8e2a8697c15331677e6ebf0b" : {
                "balance" : "0x0fa4cf",
                "code" : "",
                "nonce" : "0x01",
                "storage" : {
                }
            },
            "0xb94f5374fce5edbc8e2a8697c15331677e6ebf0b" : {
                "balance" : "0x0186a0",
                "code" : "0x6040600060406000600073100000000000000000000000000000000000000161c350f1",
                "nonce" : "0x00",
                "storage" : {
                }
            }
        },
        "pre" : {
            "0x1000000000000000000000000000000000000001" : {
                "balance" : "0x00",
                "code" : "0x6001600155",
                "nonce" : "0x00",
                "storage" : {
                }
            },
            "0xa94f5374fce5edbc8e2a8697c15331677e6ebf0b" : {
                "balance" : "0x10c8e0",
                "code" : "",
                "nonce" : "0x00",
                "storage" : {
                }
            },
            "0xb94f5374fce5edbc8e2a8697c15331677e6ebf0b" : {
                "balance" : "0x0186a0",
                "code" : "0x6040600060406000600073100000000000000000000000000000000000000161c350f1",
                "nonce" : "0x00",
                "storage" : {
                }
            }
        }
    },
    "contractCreationOOGdontLeaveEmptyContractViaTransaction_d0g0v0_EIP158" : {
        "_info" : {
            "comment" : "",
            "filledwith" : "cpp-1.3.0+commit.16292201.Linux.g++",
            "source" : "/src/GenStateTestAsBcTemp/stHomesteadSpecific/contractCreationOOGdontLeaveEmptyContractViaTransaction_d0g0v0Filler.json"
        },
        "blocks" : [
            {
                "blockHeader" : {
                    "bloom" : "0x00000000000000000000000000000000000000000000000000000000000000000000000000000000000000000000000000000000000000000000000000000000000000000000000000000000000000000000000000000000000000000000000000000000000000000000000000000000000000000000000000000000000000000000000000000000000000000000000000000000000000000000000000000000000000000000000000000000000000000000000000000000000000000000000000000000000000000000000000000000000000000000000000000000000000000000000000000000000000000000000000000000000000000000000000000000",
                    "coinbase" : "0x2adc25665018aa1fe0e6bc666dac8fc2697ff9ba",
                    "difficulty" : "0x020000",
                    "extraData" : "",
                    "gasLimit" : "0x0f4240",
                    "gasUsed" : "0x012411",
                    "hash" : "0x6ec2473128512a109e29ba8ad1e73d28552349c2f3365dbc210da5f5eb8549d6",
                    "mixHash" : "0xc0da2863e495289e052e6e7cacc715d7cd22ff516280523374991b2cd640d531",
                    "nonce" : "0x25920129b18353cd",
                    "number" : "0x01",
                    "parentHash" : "0xe5a437534ced7e31e44e28665f1e3cc47c479a7d58c28b2c526d31c7baefa9a8",
                    "receiptTrie" : "0x4e6e9fe6af22e3e907ed4065b100164275937966c9c0fb96c1c45db7121a25e3",
                    "stateRoot" : "0xb8f5c0cddc6e40944e9af47c34e7eb6d443d42601aa5ab9f92c96dfd7174467e",
                    "timestamp" : "0x03e8",
                    "transactionsTrie" : "0xfadf0d215532cd6486a8ddfac719ca2eabd2547f7cda9f32185c1177c7f23d75",
                    "uncleHash" : "0x1dcc4de8dec75d7aab85b567b6ccd41ad312451b948a7413f0a142fd40d49347"
                },
                "rlp" : "0xf9026ff901f8a0e5a437534ced7e31e44e28665f1e3cc47c479a7d58c28b2c526d31c7baefa9a8a01dcc4de8dec75d7aab85b567b6ccd41ad312451b948a7413f0a142fd40d49347942adc25665018aa1fe0e6bc666dac8fc2697ff9baa0b8f5c0cddc6e40944e9af47c34e7eb6d443d42601aa5ab9f92c96dfd7174467ea0fadf0d215532cd6486a8ddfac719ca2eabd2547f7cda9f32185c1177c7f23d75a04e6e9fe6af22e3e907ed4065b100164275937966c9c0fb96c1c45db7121a25e3b90100000000000000000000000000000000000000000000000000000000000000000000000000000000000000000000000000000000000000000000000000000000000000000000000000000000000000000000000000000000000000000000000000000000000000000000000000000000000000000000000000000000000000000000000000000000000000000000000000000000000000000000000000000000000000000000000000000000000000000000000000000000000000000000000000000000000000000000000000000000000000000000000000000000000000000000000000000000000000000000000000000000000000000000000000000000008302000001830f4240830124118203e880a0c0da2863e495289e052e6e7cacc715d7cd22ff516280523374991b2cd640d5318825920129b18353cdf871f86f8001830177008080a36040600060406000600073100000000000000000000000000000000000000161c350f11ba0853740cbaebf3b696c992d835f16e8159e521ad8b04ec513949cfba45c6b9e9ea035ac6d22ac62556b698ae2c76c368a2913b380732ba26254dc785e22926476a0c0",
                "transactions" : [
                    {
                        "data" : "0x6040600060406000600073100000000000000000000000000000000000000161c350f1",
                        "gasLimit" : "0x017700",
                        "gasPrice" : "0x01",
                        "nonce" : "0x00",
                        "r" : "0x853740cbaebf3b696c992d835f16e8159e521ad8b04ec513949cfba45c6b9e9e",
                        "s" : "0x35ac6d22ac62556b698ae2c76c368a2913b380732ba26254dc785e22926476a0",
                        "to" : "",
                        "v" : "0x1b",
                        "value" : "0x00"
                    }
                ],
                "uncleHeaders" : [
                ]
            }
        ],
        "genesisBlockHeader" : {
            "bloom" : "0x00000000000000000000000000000000000000000000000000000000000000000000000000000000000000000000000000000000000000000000000000000000000000000000000000000000000000000000000000000000000000000000000000000000000000000000000000000000000000000000000000000000000000000000000000000000000000000000000000000000000000000000000000000000000000000000000000000000000000000000000000000000000000000000000000000000000000000000000000000000000000000000000000000000000000000000000000000000000000000000000000000000000000000000000000000000",
            "coinbase" : "0x2adc25665018aa1fe0e6bc666dac8fc2697ff9ba",
            "difficulty" : "0x020000",
            "extraData" : "0x42",
            "gasLimit" : "0x0f4240",
            "gasUsed" : "0x00",
            "hash" : "0xe5a437534ced7e31e44e28665f1e3cc47c479a7d58c28b2c526d31c7baefa9a8",
            "mixHash" : "0x56e81f171bcc55a6ff8345e692c0f86e5b48e01b996cadc001622fb5e363b421",
            "nonce" : "0x0102030405060708",
            "number" : "0x00",
            "parentHash" : "0x0000000000000000000000000000000000000000000000000000000000000000",
            "receiptTrie" : "0x56e81f171bcc55a6ff8345e692c0f86e5b48e01b996cadc001622fb5e363b421",
            "stateRoot" : "0x26ca89fc47fe53d151a3cbbb0e2700c971eb046457d20cffe91c448f0b4d3df5",
            "timestamp" : "0x03b6",
            "transactionsTrie" : "0x56e81f171bcc55a6ff8345e692c0f86e5b48e01b996cadc001622fb5e363b421",
            "uncleHash" : "0x1dcc4de8dec75d7aab85b567b6ccd41ad312451b948a7413f0a142fd40d49347"
        },
        "genesisRLP" : "0xf901faf901f5a00000000000000000000000000000000000000000000000000000000000000000a01dcc4de8dec75d7aab85b567b6ccd41ad312451b948a7413f0a142fd40d49347942adc25665018aa1fe0e6bc666dac8fc2697ff9baa026ca89fc47fe53d151a3cbbb0e2700c971eb046457d20cffe91c448f0b4d3df5a056e81f171bcc55a6ff8345e692c0f86e5b48e01b996cadc001622fb5e363b421a056e81f171bcc55a6ff8345e692c0f86e5b48e01b996cadc001622fb5e363b421b90100000000000000000000000000000000000000000000000000000000000000000000000000000000000000000000000000000000000000000000000000000000000000000000000000000000000000000000000000000000000000000000000000000000000000000000000000000000000000000000000000000000000000000000000000000000000000000000000000000000000000000000000000000000000000000000000000000000000000000000000000000000000000000000000000000000000000000000000000000000000000000000000000000000000000000000000000000000000000000000000000000000000000000000000000000000008302000080830f4240808203b642a056e81f171bcc55a6ff8345e692c0f86e5b48e01b996cadc001622fb5e363b421880102030405060708c0c0",
        "lastblockhash" : "0x6ec2473128512a109e29ba8ad1e73d28552349c2f3365dbc210da5f5eb8549d6",
        "network" : "EIP158",
        "postState" : {
            "0x1000000000000000000000000000000000000001" : {
                "balance" : "0x00",
                "code" : "0x6001600155",
                "nonce" : "0x00",
                "storage" : {
                    "0x01" : "0x01"
                }
            },
            "0x2adc25665018aa1fe0e6bc666dac8fc2697ff9ba" : {
                "balance" : "0x4563918244f52411",
                "code" : "",
                "nonce" : "0x00",
                "storage" : {
                }
            },
            "0x6295ee1b4f6dd65047762f924ecd367c17eabf8f" : {
                "balance" : "0x00",
                "code" : "",
                "nonce" : "0x01",
                "storage" : {
                }
            },
            "0xa94f5374fce5edbc8e2a8697c15331677e6ebf0b" : {
                "balance" : "0x0fa4cf",
                "code" : "",
                "nonce" : "0x01",
                "storage" : {
                }
            },
            "0xb94f5374fce5edbc8e2a8697c15331677e6ebf0b" : {
                "balance" : "0x0186a0",
                "code" : "0x6040600060406000600073100000000000000000000000000000000000000161c350f1",
                "nonce" : "0x00",
                "storage" : {
                }
            }
        },
        "pre" : {
            "0x1000000000000000000000000000000000000001" : {
                "balance" : "0x00",
                "code" : "0x6001600155",
                "nonce" : "0x00",
                "storage" : {
                }
            },
            "0xa94f5374fce5edbc8e2a8697c15331677e6ebf0b" : {
                "balance" : "0x10c8e0",
                "code" : "",
                "nonce" : "0x00",
                "storage" : {
                }
            },
            "0xb94f5374fce5edbc8e2a8697c15331677e6ebf0b" : {
                "balance" : "0x0186a0",
                "code" : "0x6040600060406000600073100000000000000000000000000000000000000161c350f1",
                "nonce" : "0x00",
                "storage" : {
                }
            }
        }
    },
    "contractCreationOOGdontLeaveEmptyContractViaTransaction_d0g0v0_Frontier" : {
        "_info" : {
            "comment" : "",
            "filledwith" : "cpp-1.3.0+commit.16292201.Linux.g++",
            "source" : "/src/GenStateTestAsBcTemp/stHomesteadSpecific/contractCreationOOGdontLeaveEmptyContractViaTransaction_d0g0v0Filler.json"
        },
        "blocks" : [
            {
                "blockHeader" : {
                    "bloom" : "0x00000000000000000000000000000000000000000000000000000000000000000000000000000000000000000000000000000000000000000000000000000000000000000000000000000000000000000000000000000000000000000000000000000000000000000000000000000000000000000000000000000000000000000000000000000000000000000000000000000000000000000000000000000000000000000000000000000000000000000000000000000000000000000000000000000000000000000000000000000000000000000000000000000000000000000000000000000000000000000000000000000000000000000000000000000000",
                    "coinbase" : "0x2adc25665018aa1fe0e6bc666dac8fc2697ff9ba",
                    "difficulty" : "0x020000",
                    "extraData" : "",
                    "gasLimit" : "0x0f4240",
                    "gasUsed" : "0xa47d",
                    "hash" : "0xe806d5de4769407af183b4a12a1f0ff562ecf560e886df93f8e502b455105832",
                    "mixHash" : "0xb1e63330f51a053876bec170ae7fbe0b7c7892caa59e663eeb6c9794f195fc1a",
                    "nonce" : "0xee46782d6e590564",
                    "number" : "0x01",
                    "parentHash" : "0xe5a437534ced7e31e44e28665f1e3cc47c479a7d58c28b2c526d31c7baefa9a8",
                    "receiptTrie" : "0x9b272ec522fa063a87654d4e0b48c53dc6fbf4c8d5a6b2c43984f81def85ed37",
                    "stateRoot" : "0xd1a45c49b6abedf18effe65923902759e52367b5e7dfb08d1ef92c7b6a1dd280",
                    "timestamp" : "0x03e8",
                    "transactionsTrie" : "0xfadf0d215532cd6486a8ddfac719ca2eabd2547f7cda9f32185c1177c7f23d75",
                    "uncleHash" : "0x1dcc4de8dec75d7aab85b567b6ccd41ad312451b948a7413f0a142fd40d49347"
                },
                "rlp" : "0xf9026ef901f7a0e5a437534ced7e31e44e28665f1e3cc47c479a7d58c28b2c526d31c7baefa9a8a01dcc4de8dec75d7aab85b567b6ccd41ad312451b948a7413f0a142fd40d49347942adc25665018aa1fe0e6bc666dac8fc2697ff9baa0d1a45c49b6abedf18effe65923902759e52367b5e7dfb08d1ef92c7b6a1dd280a0fadf0d215532cd6486a8ddfac719ca2eabd2547f7cda9f32185c1177c7f23d75a09b272ec522fa063a87654d4e0b48c53dc6fbf4c8d5a6b2c43984f81def85ed37b90100000000000000000000000000000000000000000000000000000000000000000000000000000000000000000000000000000000000000000000000000000000000000000000000000000000000000000000000000000000000000000000000000000000000000000000000000000000000000000000000000000000000000000000000000000000000000000000000000000000000000000000000000000000000000000000000000000000000000000000000000000000000000000000000000000000000000000000000000000000000000000000000000000000000000000000000000000000000000000000000000000000000000000000000000000000008302000001830f424082a47d8203e880a0b1e63330f51a053876bec170ae7fbe0b7c7892caa59e663eeb6c9794f195fc1a88ee46782d6e590564f871f86f8001830177008080a36040600060406000600073100000000000000000000000000000000000000161c350f11ba0853740cbaebf3b696c992d835f16e8159e521ad8b04ec513949cfba45c6b9e9ea035ac6d22ac62556b698ae2c76c368a2913b380732ba26254dc785e22926476a0c0",
                "transactions" : [
                    {
                        "data" : "0x6040600060406000600073100000000000000000000000000000000000000161c350f1",
                        "gasLimit" : "0x017700",
                        "gasPrice" : "0x01",
                        "nonce" : "0x00",
                        "r" : "0x853740cbaebf3b696c992d835f16e8159e521ad8b04ec513949cfba45c6b9e9e",
                        "s" : "0x35ac6d22ac62556b698ae2c76c368a2913b380732ba26254dc785e22926476a0",
                        "to" : "",
                        "v" : "0x1b",
                        "value" : "0x00"
                    }
                ],
                "uncleHeaders" : [
                ]
            }
        ],
        "genesisBlockHeader" : {
            "bloom" : "0x00000000000000000000000000000000000000000000000000000000000000000000000000000000000000000000000000000000000000000000000000000000000000000000000000000000000000000000000000000000000000000000000000000000000000000000000000000000000000000000000000000000000000000000000000000000000000000000000000000000000000000000000000000000000000000000000000000000000000000000000000000000000000000000000000000000000000000000000000000000000000000000000000000000000000000000000000000000000000000000000000000000000000000000000000000000",
            "coinbase" : "0x2adc25665018aa1fe0e6bc666dac8fc2697ff9ba",
            "difficulty" : "0x020000",
            "extraData" : "0x42",
            "gasLimit" : "0x0f4240",
            "gasUsed" : "0x00",
            "hash" : "0xe5a437534ced7e31e44e28665f1e3cc47c479a7d58c28b2c526d31c7baefa9a8",
            "mixHash" : "0x56e81f171bcc55a6ff8345e692c0f86e5b48e01b996cadc001622fb5e363b421",
            "nonce" : "0x0102030405060708",
            "number" : "0x00",
            "parentHash" : "0x0000000000000000000000000000000000000000000000000000000000000000",
            "receiptTrie" : "0x56e81f171bcc55a6ff8345e692c0f86e5b48e01b996cadc001622fb5e363b421",
            "stateRoot" : "0x26ca89fc47fe53d151a3cbbb0e2700c971eb046457d20cffe91c448f0b4d3df5",
            "timestamp" : "0x03b6",
            "transactionsTrie" : "0x56e81f171bcc55a6ff8345e692c0f86e5b48e01b996cadc001622fb5e363b421",
            "uncleHash" : "0x1dcc4de8dec75d7aab85b567b6ccd41ad312451b948a7413f0a142fd40d49347"
        },
        "genesisRLP" : "0xf901faf901f5a00000000000000000000000000000000000000000000000000000000000000000a01dcc4de8dec75d7aab85b567b6ccd41ad312451b948a7413f0a142fd40d49347942adc25665018aa1fe0e6bc666dac8fc2697ff9baa026ca89fc47fe53d151a3cbbb0e2700c971eb046457d20cffe91c448f0b4d3df5a056e81f171bcc55a6ff8345e692c0f86e5b48e01b996cadc001622fb5e363b421a056e81f171bcc55a6ff8345e692c0f86e5b48e01b996cadc001622fb5e363b421b90100000000000000000000000000000000000000000000000000000000000000000000000000000000000000000000000000000000000000000000000000000000000000000000000000000000000000000000000000000000000000000000000000000000000000000000000000000000000000000000000000000000000000000000000000000000000000000000000000000000000000000000000000000000000000000000000000000000000000000000000000000000000000000000000000000000000000000000000000000000000000000000000000000000000000000000000000000000000000000000000000000000000000000000000000000000008302000080830f4240808203b642a056e81f171bcc55a6ff8345e692c0f86e5b48e01b996cadc001622fb5e363b421880102030405060708c0c0",
        "lastblockhash" : "0xe806d5de4769407af183b4a12a1f0ff562ecf560e886df93f8e502b455105832",
        "network" : "Frontier",
        "postState" : {
            "0x1000000000000000000000000000000000000001" : {
                "balance" : "0x00",
                "code" : "0x6001600155",
                "nonce" : "0x00",
                "storage" : {
                    "0x01" : "0x01"
                }
            },
            "0x2adc25665018aa1fe0e6bc666dac8fc2697ff9ba" : {
                "balance" : "0x4563918244f4a47d",
                "code" : "",
                "nonce" : "0x00",
                "storage" : {
                }
            },
            "0x6295ee1b4f6dd65047762f924ecd367c17eabf8f" : {
                "balance" : "0x00",
                "code" : "",
                "nonce" : "0x00",
                "storage" : {
                }
            },
            "0xa94f5374fce5edbc8e2a8697c15331677e6ebf0b" : {
                "balance" : "0x102463",
                "code" : "",
                "nonce" : "0x01",
                "storage" : {
                }
            },
            "0xb94f5374fce5edbc8e2a8697c15331677e6ebf0b" : {
                "balance" : "0x0186a0",
                "code" : "0x6040600060406000600073100000000000000000000000000000000000000161c350f1",
                "nonce" : "0x00",
                "storage" : {
                }
            }
        },
        "pre" : {
            "0x1000000000000000000000000000000000000001" : {
                "balance" : "0x00",
                "code" : "0x6001600155",
                "nonce" : "0x00",
                "storage" : {
                }
            },
            "0xa94f5374fce5edbc8e2a8697c15331677e6ebf0b" : {
                "balance" : "0x10c8e0",
                "code" : "",
                "nonce" : "0x00",
                "storage" : {
                }
            },
            "0xb94f5374fce5edbc8e2a8697c15331677e6ebf0b" : {
                "balance" : "0x0186a0",
                "code" : "0x6040600060406000600073100000000000000000000000000000000000000161c350f1",
                "nonce" : "0x00",
                "storage" : {
                }
            }
        }
    },
    "contractCreationOOGdontLeaveEmptyContractViaTransaction_d0g0v0_Homestead" : {
        "_info" : {
            "comment" : "",
            "filledwith" : "cpp-1.3.0+commit.16292201.Linux.g++",
            "source" : "/src/GenStateTestAsBcTemp/stHomesteadSpecific/contractCreationOOGdontLeaveEmptyContractViaTransaction_d0g0v0Filler.json"
        },
        "blocks" : [
            {
                "blockHeader" : {
                    "bloom" : "0x00000000000000000000000000000000000000000000000000000000000000000000000000000000000000000000000000000000000000000000000000000000000000000000000000000000000000000000000000000000000000000000000000000000000000000000000000000000000000000000000000000000000000000000000000000000000000000000000000000000000000000000000000000000000000000000000000000000000000000000000000000000000000000000000000000000000000000000000000000000000000000000000000000000000000000000000000000000000000000000000000000000000000000000000000000000",
                    "coinbase" : "0x2adc25665018aa1fe0e6bc666dac8fc2697ff9ba",
                    "difficulty" : "0x020000",
                    "extraData" : "",
                    "gasLimit" : "0x0f4240",
                    "gasUsed" : "0x017700",
                    "hash" : "0xe18b1032ebb78baa9d1b26cb0965a3bcd91458de3f22074842153a60f195d509",
                    "mixHash" : "0x033817478258fe95271a9e125b44783771bf03712a332eae21799f8731689d5d",
                    "nonce" : "0x5481a7fb398df823",
                    "number" : "0x01",
                    "parentHash" : "0xe5a437534ced7e31e44e28665f1e3cc47c479a7d58c28b2c526d31c7baefa9a8",
                    "receiptTrie" : "0x52ebd4980507f15b1e600aafc55aad09e79cf6dc34778fc11cb4a7a6547e61be",
                    "stateRoot" : "0x20f67f4727a30a2a08b10addb6b064f4352155d1a33668d3037221e0477c053f",
                    "timestamp" : "0x03e8",
                    "transactionsTrie" : "0xfadf0d215532cd6486a8ddfac719ca2eabd2547f7cda9f32185c1177c7f23d75",
                    "uncleHash" : "0x1dcc4de8dec75d7aab85b567b6ccd41ad312451b948a7413f0a142fd40d49347"
                },
                "rlp" : "0xf9026ff901f8a0e5a437534ced7e31e44e28665f1e3cc47c479a7d58c28b2c526d31c7baefa9a8a01dcc4de8dec75d7aab85b567b6ccd41ad312451b948a7413f0a142fd40d49347942adc25665018aa1fe0e6bc666dac8fc2697ff9baa020f67f4727a30a2a08b10addb6b064f4352155d1a33668d3037221e0477c053fa0fadf0d215532cd6486a8ddfac719ca2eabd2547f7cda9f32185c1177c7f23d75a052ebd4980507f15b1e600aafc55aad09e79cf6dc34778fc11cb4a7a6547e61beb90100000000000000000000000000000000000000000000000000000000000000000000000000000000000000000000000000000000000000000000000000000000000000000000000000000000000000000000000000000000000000000000000000000000000000000000000000000000000000000000000000000000000000000000000000000000000000000000000000000000000000000000000000000000000000000000000000000000000000000000000000000000000000000000000000000000000000000000000000000000000000000000000000000000000000000000000000000000000000000000000000000000000000000000000000000000008302000001830f4240830177008203e880a0033817478258fe95271a9e125b44783771bf03712a332eae21799f8731689d5d885481a7fb398df823f871f86f8001830177008080a36040600060406000600073100000000000000000000000000000000000000161c350f11ba0853740cbaebf3b696c992d835f16e8159e521ad8b04ec513949cfba45c6b9e9ea035ac6d22ac62556b698ae2c76c368a2913b380732ba26254dc785e22926476a0c0",
                "transactions" : [
                    {
                        "data" : "0x6040600060406000600073100000000000000000000000000000000000000161c350f1",
                        "gasLimit" : "0x017700",
                        "gasPrice" : "0x01",
                        "nonce" : "0x00",
                        "r" : "0x853740cbaebf3b696c992d835f16e8159e521ad8b04ec513949cfba45c6b9e9e",
                        "s" : "0x35ac6d22ac62556b698ae2c76c368a2913b380732ba26254dc785e22926476a0",
                        "to" : "",
                        "v" : "0x1b",
                        "value" : "0x00"
                    }
                ],
                "uncleHeaders" : [
                ]
            }
        ],
        "genesisBlockHeader" : {
            "bloom" : "0x00000000000000000000000000000000000000000000000000000000000000000000000000000000000000000000000000000000000000000000000000000000000000000000000000000000000000000000000000000000000000000000000000000000000000000000000000000000000000000000000000000000000000000000000000000000000000000000000000000000000000000000000000000000000000000000000000000000000000000000000000000000000000000000000000000000000000000000000000000000000000000000000000000000000000000000000000000000000000000000000000000000000000000000000000000000",
            "coinbase" : "0x2adc25665018aa1fe0e6bc666dac8fc2697ff9ba",
            "difficulty" : "0x020000",
            "extraData" : "0x42",
            "gasLimit" : "0x0f4240",
            "gasUsed" : "0x00",
            "hash" : "0xe5a437534ced7e31e44e28665f1e3cc47c479a7d58c28b2c526d31c7baefa9a8",
            "mixHash" : "0x56e81f171bcc55a6ff8345e692c0f86e5b48e01b996cadc001622fb5e363b421",
            "nonce" : "0x0102030405060708",
            "number" : "0x00",
            "parentHash" : "0x0000000000000000000000000000000000000000000000000000000000000000",
            "receiptTrie" : "0x56e81f171bcc55a6ff8345e692c0f86e5b48e01b996cadc001622fb5e363b421",
            "stateRoot" : "0x26ca89fc47fe53d151a3cbbb0e2700c971eb046457d20cffe91c448f0b4d3df5",
            "timestamp" : "0x03b6",
            "transactionsTrie" : "0x56e81f171bcc55a6ff8345e692c0f86e5b48e01b996cadc001622fb5e363b421",
            "uncleHash" : "0x1dcc4de8dec75d7aab85b567b6ccd41ad312451b948a7413f0a142fd40d49347"
        },
        "genesisRLP" : "0xf901faf901f5a00000000000000000000000000000000000000000000000000000000000000000a01dcc4de8dec75d7aab85b567b6ccd41ad312451b948a7413f0a142fd40d49347942adc25665018aa1fe0e6bc666dac8fc2697ff9baa026ca89fc47fe53d151a3cbbb0e2700c971eb046457d20cffe91c448f0b4d3df5a056e81f171bcc55a6ff8345e692c0f86e5b48e01b996cadc001622fb5e363b421a056e81f171bcc55a6ff8345e692c0f86e5b48e01b996cadc001622fb5e363b421b90100000000000000000000000000000000000000000000000000000000000000000000000000000000000000000000000000000000000000000000000000000000000000000000000000000000000000000000000000000000000000000000000000000000000000000000000000000000000000000000000000000000000000000000000000000000000000000000000000000000000000000000000000000000000000000000000000000000000000000000000000000000000000000000000000000000000000000000000000000000000000000000000000000000000000000000000000000000000000000000000000000000000000000000000000000000008302000080830f4240808203b642a056e81f171bcc55a6ff8345e692c0f86e5b48e01b996cadc001622fb5e363b421880102030405060708c0c0",
        "lastblockhash" : "0xe18b1032ebb78baa9d1b26cb0965a3bcd91458de3f22074842153a60f195d509",
        "network" : "Homestead",
        "postState" : {
            "0x1000000000000000000000000000000000000001" : {
                "balance" : "0x00",
                "code" : "0x6001600155",
                "nonce" : "0x00",
                "storage" : {
                }
            },
            "0x2adc25665018aa1fe0e6bc666dac8fc2697ff9ba" : {
                "balance" : "0x4563918244f57700",
                "code" : "",
                "nonce" : "0x00",
                "storage" : {
                }
            },
            "0xa94f5374fce5edbc8e2a8697c15331677e6ebf0b" : {
                "balance" : "0x0f51e0",
                "code" : "",
                "nonce" : "0x01",
                "storage" : {
                }
            },
            "0xb94f5374fce5edbc8e2a8697c15331677e6ebf0b" : {
                "balance" : "0x0186a0",
                "code" : "0x6040600060406000600073100000000000000000000000000000000000000161c350f1",
                "nonce" : "0x00",
                "storage" : {
                }
            }
        },
        "pre" : {
            "0x1000000000000000000000000000000000000001" : {
                "balance" : "0x00",
                "code" : "0x6001600155",
                "nonce" : "0x00",
                "storage" : {
                }
            },
            "0xa94f5374fce5edbc8e2a8697c15331677e6ebf0b" : {
                "balance" : "0x10c8e0",
                "code" : "",
                "nonce" : "0x00",
                "storage" : {
                }
            },
            "0xb94f5374fce5edbc8e2a8697c15331677e6ebf0b" : {
                "balance" : "0x0186a0",
                "code" : "0x6040600060406000600073100000000000000000000000000000000000000161c350f1",
                "nonce" : "0x00",
                "storage" : {
                }
            }
        }
    },
    "contractCreationOOGdontLeaveEmptyContractViaTransaction_d0g0v0_Metropolis" : {
        "_info" : {
            "comment" : "",
            "filledwith" : "cpp-1.3.0+commit.16292201.Linux.g++",
            "source" : "/src/GenStateTestAsBcTemp/stHomesteadSpecific/contractCreationOOGdontLeaveEmptyContractViaTransaction_d0g0v0Filler.json"
        },
        "blocks" : [
            {
                "blockHeader" : {
                    "bloom" : "0x00000000000000000000000000000000000000000000000000000000000000000000000000000000000000000000000000000000000000000000000000000000000000000000000000000000000000000000000000000000000000000000000000000000000000000000000000000000000000000000000000000000000000000000000000000000000000000000000000000000000000000000000000000000000000000000000000000000000000000000000000000000000000000000000000000000000000000000000000000000000000000000000000000000000000000000000000000000000000000000000000000000000000000000000000000000",
                    "coinbase" : "0x2adc25665018aa1fe0e6bc666dac8fc2697ff9ba",
                    "difficulty" : "0x020000",
                    "extraData" : "",
                    "gasLimit" : "0x0f4240",
                    "gasUsed" : "0x012411",
                    "hash" : "0x0a7222eb38ecbbe49575dd868c657b3293002310d8d9993f89f7aa899b92fca8",
                    "mixHash" : "0x6c8e23d0d2afba8ebdfd43278c9d5c155fe3b7c87472063a0ebd4072cafba59d",
                    "nonce" : "0x8662e408023aa324",
                    "number" : "0x01",
                    "parentHash" : "0xe5a437534ced7e31e44e28665f1e3cc47c479a7d58c28b2c526d31c7baefa9a8",
                    "receiptTrie" : "0xd3e8dadbfb4135b152b7668c12a668eb9404d351609ba709e236bc4b0289dfc7",
                    "stateRoot" : "0x543eb20d854608a19200934538fffd133cde1e16008f9d298b34744ac7663e33",
                    "timestamp" : "0x03e8",
                    "transactionsTrie" : "0xfadf0d215532cd6486a8ddfac719ca2eabd2547f7cda9f32185c1177c7f23d75",
                    "uncleHash" : "0x1dcc4de8dec75d7aab85b567b6ccd41ad312451b948a7413f0a142fd40d49347"
                },
                "rlp" : "0xf9026ff901f8a0e5a437534ced7e31e44e28665f1e3cc47c479a7d58c28b2c526d31c7baefa9a8a01dcc4de8dec75d7aab85b567b6ccd41ad312451b948a7413f0a142fd40d49347942adc25665018aa1fe0e6bc666dac8fc2697ff9baa0543eb20d854608a19200934538fffd133cde1e16008f9d298b34744ac7663e33a0fadf0d215532cd6486a8ddfac719ca2eabd2547f7cda9f32185c1177c7f23d75a0d3e8dadbfb4135b152b7668c12a668eb9404d351609ba709e236bc4b0289dfc7b90100000000000000000000000000000000000000000000000000000000000000000000000000000000000000000000000000000000000000000000000000000000000000000000000000000000000000000000000000000000000000000000000000000000000000000000000000000000000000000000000000000000000000000000000000000000000000000000000000000000000000000000000000000000000000000000000000000000000000000000000000000000000000000000000000000000000000000000000000000000000000000000000000000000000000000000000000000000000000000000000000000000000000000000000000000000008302000001830f4240830124118203e880a06c8e23d0d2afba8ebdfd43278c9d5c155fe3b7c87472063a0ebd4072cafba59d888662e408023aa324f871f86f8001830177008080a36040600060406000600073100000000000000000000000000000000000000161c350f11ba0853740cbaebf3b696c992d835f16e8159e521ad8b04ec513949cfba45c6b9e9ea035ac6d22ac62556b698ae2c76c368a2913b380732ba26254dc785e22926476a0c0",
                "transactions" : [
                    {
                        "data" : "0x6040600060406000600073100000000000000000000000000000000000000161c350f1",
                        "gasLimit" : "0x017700",
                        "gasPrice" : "0x01",
                        "nonce" : "0x00",
                        "r" : "0x853740cbaebf3b696c992d835f16e8159e521ad8b04ec513949cfba45c6b9e9e",
                        "s" : "0x35ac6d22ac62556b698ae2c76c368a2913b380732ba26254dc785e22926476a0",
                        "to" : "",
                        "v" : "0x1b",
                        "value" : "0x00"
                    }
                ],
                "uncleHeaders" : [
                ]
            }
        ],
        "genesisBlockHeader" : {
            "bloom" : "0x00000000000000000000000000000000000000000000000000000000000000000000000000000000000000000000000000000000000000000000000000000000000000000000000000000000000000000000000000000000000000000000000000000000000000000000000000000000000000000000000000000000000000000000000000000000000000000000000000000000000000000000000000000000000000000000000000000000000000000000000000000000000000000000000000000000000000000000000000000000000000000000000000000000000000000000000000000000000000000000000000000000000000000000000000000000",
            "coinbase" : "0x2adc25665018aa1fe0e6bc666dac8fc2697ff9ba",
            "difficulty" : "0x020000",
            "extraData" : "0x42",
            "gasLimit" : "0x0f4240",
            "gasUsed" : "0x00",
            "hash" : "0xe5a437534ced7e31e44e28665f1e3cc47c479a7d58c28b2c526d31c7baefa9a8",
            "mixHash" : "0x56e81f171bcc55a6ff8345e692c0f86e5b48e01b996cadc001622fb5e363b421",
            "nonce" : "0x0102030405060708",
            "number" : "0x00",
            "parentHash" : "0x0000000000000000000000000000000000000000000000000000000000000000",
            "receiptTrie" : "0x56e81f171bcc55a6ff8345e692c0f86e5b48e01b996cadc001622fb5e363b421",
            "stateRoot" : "0x26ca89fc47fe53d151a3cbbb0e2700c971eb046457d20cffe91c448f0b4d3df5",
            "timestamp" : "0x03b6",
            "transactionsTrie" : "0x56e81f171bcc55a6ff8345e692c0f86e5b48e01b996cadc001622fb5e363b421",
            "uncleHash" : "0x1dcc4de8dec75d7aab85b567b6ccd41ad312451b948a7413f0a142fd40d49347"
        },
        "genesisRLP" : "0xf901faf901f5a00000000000000000000000000000000000000000000000000000000000000000a01dcc4de8dec75d7aab85b567b6ccd41ad312451b948a7413f0a142fd40d49347942adc25665018aa1fe0e6bc666dac8fc2697ff9baa026ca89fc47fe53d151a3cbbb0e2700c971eb046457d20cffe91c448f0b4d3df5a056e81f171bcc55a6ff8345e692c0f86e5b48e01b996cadc001622fb5e363b421a056e81f171bcc55a6ff8345e692c0f86e5b48e01b996cadc001622fb5e363b421b90100000000000000000000000000000000000000000000000000000000000000000000000000000000000000000000000000000000000000000000000000000000000000000000000000000000000000000000000000000000000000000000000000000000000000000000000000000000000000000000000000000000000000000000000000000000000000000000000000000000000000000000000000000000000000000000000000000000000000000000000000000000000000000000000000000000000000000000000000000000000000000000000000000000000000000000000000000000000000000000000000000000000000000000000000000000008302000080830f4240808203b642a056e81f171bcc55a6ff8345e692c0f86e5b48e01b996cadc001622fb5e363b421880102030405060708c0c0",
        "lastblockhash" : "0x0a7222eb38ecbbe49575dd868c657b3293002310d8d9993f89f7aa899b92fca8",
        "network" : "Metropolis",
        "postState" : {
            "0x00000000000000000000000000000000000000f0" : {
                "balance" : "0x00",
                "code" : "",
                "nonce" : "0x00",
                "storage" : {
                }
            },
            "0x1000000000000000000000000000000000000001" : {
                "balance" : "0x00",
                "code" : "0x6001600155",
                "nonce" : "0x00",
                "storage" : {
                    "0x01" : "0x01"
                }
            },
            "0x2adc25665018aa1fe0e6bc666dac8fc2697ff9ba" : {
                "balance" : "0x4563918244f52411",
                "code" : "",
                "nonce" : "0x00",
                "storage" : {
                }
            },
            "0x6295ee1b4f6dd65047762f924ecd367c17eabf8f" : {
                "balance" : "0x00",
                "code" : "",
                "nonce" : "0x01",
                "storage" : {
                }
            },
            "0xa94f5374fce5edbc8e2a8697c15331677e6ebf0b" : {
                "balance" : "0x0fa4cf",
                "code" : "",
                "nonce" : "0x01",
                "storage" : {
                }
            },
            "0xb94f5374fce5edbc8e2a8697c15331677e6ebf0b" : {
                "balance" : "0x0186a0",
                "code" : "0x6040600060406000600073100000000000000000000000000000000000000161c350f1",
                "nonce" : "0x00",
                "storage" : {
                }
            }
        },
        "pre" : {
            "0x1000000000000000000000000000000000000001" : {
                "balance" : "0x00",
                "code" : "0x6001600155",
                "nonce" : "0x00",
                "storage" : {
                }
            },
            "0xa94f5374fce5edbc8e2a8697c15331677e6ebf0b" : {
                "balance" : "0x10c8e0",
                "code" : "",
                "nonce" : "0x00",
                "storage" : {
                }
            },
            "0xb94f5374fce5edbc8e2a8697c15331677e6ebf0b" : {
                "balance" : "0x0186a0",
                "code" : "0x6040600060406000600073100000000000000000000000000000000000000161c350f1",
                "nonce" : "0x00",
                "storage" : {
                }
            }
        }
    }
}