{
    "push0Gas" : {
        "_info" : {
            "comment" : "",
            "filling-rpc-server" : "evm version 1.10.18-unstable-e0a1fd5f-20220511",
            "filling-tool-version" : "retesteth-0.2.2-testinfo+commit.764be094.Linux.g++",
            "generatedTestHash" : "794e03ae4a88717940690c5cbf39cb51aa427e15415b7336f83d8a60f3f376df",
            "lllcversion" : "Version: 0.5.14-develop.2022.4.6+commit.401d5358.Linux.g++",
            "solidity" : "Version: 0.8.5+commit.a4f2e591.Linux.g++",
            "source" : "src/GeneralStateTestsFiller/VMTests/vmTests/push0GasFiller.yml",
            "sourceHash" : "1c1e1713f8a8ad4938ef7acafcb05d7e2b980db26c1222e687183804f744ec81"
        },
        "env" : {
            "currentBaseFee" : "0x0a",
            "currentCoinbase" : "0x2adc25665018aa1fe0e6bc666dac8fc2697ff9ba",
            "currentDifficulty" : "0x020000",
            "currentGasLimit" : "0x05500000",
            "currentNumber" : "0x01",
            "currentTimestamp" : "0x03e8",
            "previousHash" : "0x5e20a0453cecd065ea59c37ac63e079ee08998b6045136a8ce6635c7912ec0b6"
        },
        "post" : {
            "London" : [
                {
                    "hash" : "0x25cea017a8450518cc1a570910c986d3b4f85d353a4056e76efd5cefdd52a49c",
                    "indexes" : {
                        "data" : 0,
                        "gas" : 0,
                        "value" : 0
                    },
                    "logs" : "0x1dcc4de8dec75d7aab85b567b6ccd41ad312451b948a7413f0a142fd40d49347",
                    "txbytes" : "0xf860800a830186a094000000000000000000000000000000000000010080801ca0753590b1e64336e51b421406117bb41e0276af5c97af6cb5b4fae36ef8a06ff4a028cacd94912f457a7154683fc73136dc930f2834483e6c655904e2e32a82210a"
                }
            ],
            "London+3855" : [
                {
                    "hash" : "0x4932165d01b117f122159e38364903f2ef81b375e9581dc567c743640d56a685",
                    "indexes" : {
                        "data" : 0,
                        "gas" : 0,
                        "value" : 0
                    },
                    "logs" : "0x1dcc4de8dec75d7aab85b567b6ccd41ad312451b948a7413f0a142fd40d49347",
                    "txbytes" : "0xf860800a830186a094000000000000000000000000000000000000010080801ca0753590b1e64336e51b421406117bb41e0276af5c97af6cb5b4fae36ef8a06ff4a028cacd94912f457a7154683fc73136dc930f2834483e6c655904e2e32a82210a"
                }
            ]
        },
        "pre" : {
            "0x0000000000000000000000000000000000000100" : {
                "balance" : "0x00",
                "code" : "0x5f",
                "nonce" : "0x00",
                "storage" : {
                }
            },
            "0xa94f5374fce5edbc8e2a8697c15331677e6ebf0b" : {
                "balance" : "0x989680",
                "code" : "0x",
                "nonce" : "0x00",
                "storage" : {
                }
            }
        },
        "transaction" : {
            "data" : [
                "0x"
            ],
            "gasLimit" : [
                "0x0186a0"
            ],
            "gasPrice" : "0x0a",
            "nonce" : "0x00",
            "secretKey" : "0x45a915e4d060149eb4365960e6a7a45f334393093061116b197e3240065ff2d8",
            "sender" : "0xa94f5374fce5edbc8e2a8697c15331677e6ebf0b",
            "to" : "0x0000000000000000000000000000000000000100",
            "value" : [
                "0x00"
            ]
        }
    }
}