{
    "suicide" : {
        "_info" : {
            "comment" : "Ori Pomerantz qbzzt1@gmail.com",
            "filling-rpc-server" : "evm version 1.13.13-unstable-034bc466-20240219",
            "filling-tool-version" : "retesteth-0.3.2-cancun+commit.014a68a5.Linux.g++",
            "generatedTestHash" : "51b01dc20ac462baae7799a6f80a00f281d017e595380c6914ca373a839f4adf",
            "labels" : {
                "0" : "caller",
                "1" : "random",
                "2" : "myself"
            },
            "lllcversion" : "Version: 0.5.14-develop.2023.7.11+commit.c58ab2c6.mod.Linux.g++",
            "solidity" : "Version: 0.8.21+commit.d9974bed.Linux.g++",
            "source" : "src/GeneralStateTestsFiller/VMTests/vmTests/suicideFiller.yml",
            "sourceHash" : "b1930cdad638e6f504687bd17dcae23ab548b131d4751f022d34b6f5ebd96566"
        },
        "env" : {
            "currentBaseFee" : "0x0a",
            "currentCoinbase" : "0x2adc25665018aa1fe0e6bc666dac8fc2697ff9ba",
            "currentDifficulty" : "0x020000",
            "currentExcessBlobGas" : "0x00",
            "currentGasLimit" : "0x05f5e100",
            "currentNumber" : "0x01",
            "currentRandom" : "0x0000000000000000000000000000000000000000000000000000000000020000",
            "currentTimestamp" : "0x03e8"
        },
        "post" : {
            "Berlin" : [
                {
                    "hash" : "0x2c9903e45238db8083ff13d5d7460b7e6797d36e47758d939f3d874e597ead8a",
                    "indexes" : {
                        "data" : 0,
                        "gas" : 0,
                        "value" : 0
                    },
                    "logs" : "0x1dcc4de8dec75d7aab85b567b6ccd41ad312451b948a7413f0a142fd40d49347",
                    "txbytes" : "0xf885800a8404c4b40094cccccccccccccccccccccccccccccccccccccccc80a4693c613900000000000000000000000000000000000000000000000000000000000001001ca0d3c0e29ce9d2a085d241ef81f09da0335ecee69d8938df5d833999ff6a520690a006906fea77bb6004ffe55d0154cd56eda761f36a419cef70afa6a9c9a92657f5"
                },
                {
                    "hash" : "0x52aabd23df90b153e88c4fd6a815599c4aab54a0ad6c9006af8edde9890eea8a",
                    "indexes" : {
                        "data" : 1,
                        "gas" : 0,
                        "value" : 0
                    },
                    "logs" : "0x1dcc4de8dec75d7aab85b567b6ccd41ad312451b948a7413f0a142fd40d49347",
                    "txbytes" : "0xf885800a8404c4b40094cccccccccccccccccccccccccccccccccccccccc80a4693c613900000000000000000000000000000000000000000000000000000000000001011ba0c5ce9bce3a2c711ebf44ec3b79ed285cdd74d0000d821fbd58f2c88342f0d5a1a07ea63bf89a4aaa64a3e0c0376ace90ea127d9ba6810f33649154cfca5901daef"
                },
                {
                    "hash" : "0x44082dfc3532250e87a7716d9aea3b653cd3f0a44ba98795cee5949709c8d847",
                    "indexes" : {
                        "data" : 2,
                        "gas" : 0,
                        "value" : 0
                    },
                    "logs" : "0x1dcc4de8dec75d7aab85b567b6ccd41ad312451b948a7413f0a142fd40d49347",
                    "txbytes" : "0xf885800a8404c4b40094cccccccccccccccccccccccccccccccccccccccc80a4693c613900000000000000000000000000000000000000000000000000000000000001021ba032206aa41d72e0f1d9652e58976758147c0c58b23c2b779f1061a13239adbc4aa05a7deb5d2b12dedddbebc1b7f59a48c41236fd7273f4cff9d938a4a322c097f3"
                }
            ],
            "Cancun" : [
                {
                    "hash" : "0xd844826a5483ba71e51cbcd9633911d5d7ddb9f51465363865be3cd4f6d4ecfa",
                    "indexes" : {
                        "data" : 0,
                        "gas" : 0,
                        "value" : 0
                    },
                    "logs" : "0x1dcc4de8dec75d7aab85b567b6ccd41ad312451b948a7413f0a142fd40d49347",
                    "txbytes" : "0xf885800a8404c4b40094cccccccccccccccccccccccccccccccccccccccc80a4693c613900000000000000000000000000000000000000000000000000000000000001001ca0d3c0e29ce9d2a085d241ef81f09da0335ecee69d8938df5d833999ff6a520690a006906fea77bb6004ffe55d0154cd56eda761f36a419cef70afa6a9c9a92657f5"
                },
                {
                    "hash" : "0x8a9926c74dd65549655c10a0ec2216383e6405453936c67736dfdeb06c65ed0b",
                    "indexes" : {
                        "data" : 1,
                        "gas" : 0,
                        "value" : 0
                    },
                    "logs" : "0x1dcc4de8dec75d7aab85b567b6ccd41ad312451b948a7413f0a142fd40d49347",
                    "txbytes" : "0xf885800a8404c4b40094cccccccccccccccccccccccccccccccccccccccc80a4693c613900000000000000000000000000000000000000000000000000000000000001011ba0c5ce9bce3a2c711ebf44ec3b79ed285cdd74d0000d821fbd58f2c88342f0d5a1a07ea63bf89a4aaa64a3e0c0376ace90ea127d9ba6810f33649154cfca5901daef"
                },
                {
                    "hash" : "0xe8c4cc555666d4510e342a7c27c26dd767fdfbb1dcb0c6c5d4474d020dca4dd1",
                    "indexes" : {
                        "data" : 2,
                        "gas" : 0,
                        "value" : 0
                    },
                    "logs" : "0x1dcc4de8dec75d7aab85b567b6ccd41ad312451b948a7413f0a142fd40d49347",
                    "txbytes" : "0xf885800a8404c4b40094cccccccccccccccccccccccccccccccccccccccc80a4693c613900000000000000000000000000000000000000000000000000000000000001021ba032206aa41d72e0f1d9652e58976758147c0c58b23c2b779f1061a13239adbc4aa05a7deb5d2b12dedddbebc1b7f59a48c41236fd7273f4cff9d938a4a322c097f3"
                }
            ],
            "Istanbul" : [
                {
                    "hash" : "0x84db5ac09325f84d3d8d3dc7f0039de7313685342d8a77d415dc8182c2ab1c0a",
                    "indexes" : {
                        "data" : 0,
                        "gas" : 0,
                        "value" : 0
                    },
                    "logs" : "0x1dcc4de8dec75d7aab85b567b6ccd41ad312451b948a7413f0a142fd40d49347",
                    "txbytes" : "0xf885800a8404c4b40094cccccccccccccccccccccccccccccccccccccccc80a4693c613900000000000000000000000000000000000000000000000000000000000001001ca0d3c0e29ce9d2a085d241ef81f09da0335ecee69d8938df5d833999ff6a520690a006906fea77bb6004ffe55d0154cd56eda761f36a419cef70afa6a9c9a92657f5"
                },
                {
                    "hash" : "0xd390e04af12e996505fedd4d74016617ae8906eb93484c7ced7855a68f27f65f",
                    "indexes" : {
                        "data" : 1,
                        "gas" : 0,
                        "value" : 0
                    },
                    "logs" : "0x1dcc4de8dec75d7aab85b567b6ccd41ad312451b948a7413f0a142fd40d49347",
                    "txbytes" : "0xf885800a8404c4b40094cccccccccccccccccccccccccccccccccccccccc80a4693c613900000000000000000000000000000000000000000000000000000000000001011ba0c5ce9bce3a2c711ebf44ec3b79ed285cdd74d0000d821fbd58f2c88342f0d5a1a07ea63bf89a4aaa64a3e0c0376ace90ea127d9ba6810f33649154cfca5901daef"
                },
                {
                    "hash" : "0x31dd1a376d692b6c2465c70be87d9da53bcc7c01fd4d1ddc5235b6f34ebf7429",
                    "indexes" : {
                        "data" : 2,
                        "gas" : 0,
                        "value" : 0
                    },
                    "logs" : "0x1dcc4de8dec75d7aab85b567b6ccd41ad312451b948a7413f0a142fd40d49347",
                    "txbytes" : "0xf885800a8404c4b40094cccccccccccccccccccccccccccccccccccccccc80a4693c613900000000000000000000000000000000000000000000000000000000000001021ba032206aa41d72e0f1d9652e58976758147c0c58b23c2b779f1061a13239adbc4aa05a7deb5d2b12dedddbebc1b7f59a48c41236fd7273f4cff9d938a4a322c097f3"
                }
            ],
            "London" : [
                {
                    "hash" : "0x8de2b6866aeb4be9d27f4488c8800e686ac38dab11365776786f1b9a34041386",
                    "indexes" : {
                        "data" : 0,
                        "gas" : 0,
                        "value" : 0
                    },
                    "logs" : "0x1dcc4de8dec75d7aab85b567b6ccd41ad312451b948a7413f0a142fd40d49347",
                    "txbytes" : "0xf885800a8404c4b40094cccccccccccccccccccccccccccccccccccccccc80a4693c613900000000000000000000000000000000000000000000000000000000000001001ca0d3c0e29ce9d2a085d241ef81f09da0335ecee69d8938df5d833999ff6a520690a006906fea77bb6004ffe55d0154cd56eda761f36a419cef70afa6a9c9a92657f5"
                },
                {
                    "hash" : "0x23f74f3aeadc69a2ac9145d7c6c4cbdf58e942b5a371d9f06d59bcd6da66d5a3",
                    "indexes" : {
                        "data" : 1,
                        "gas" : 0,
                        "value" : 0
                    },
                    "logs" : "0x1dcc4de8dec75d7aab85b567b6ccd41ad312451b948a7413f0a142fd40d49347",
                    "txbytes" : "0xf885800a8404c4b40094cccccccccccccccccccccccccccccccccccccccc80a4693c613900000000000000000000000000000000000000000000000000000000000001011ba0c5ce9bce3a2c711ebf44ec3b79ed285cdd74d0000d821fbd58f2c88342f0d5a1a07ea63bf89a4aaa64a3e0c0376ace90ea127d9ba6810f33649154cfca5901daef"
                },
                {
                    "hash" : "0xeb37e8d2cd493b02d59836d7f71b0819f1d3743d0a92d2c32ebe4da4aafdfced",
                    "indexes" : {
                        "data" : 2,
                        "gas" : 0,
                        "value" : 0
                    },
                    "logs" : "0x1dcc4de8dec75d7aab85b567b6ccd41ad312451b948a7413f0a142fd40d49347",
                    "txbytes" : "0xf885800a8404c4b40094cccccccccccccccccccccccccccccccccccccccc80a4693c613900000000000000000000000000000000000000000000000000000000000001021ba032206aa41d72e0f1d9652e58976758147c0c58b23c2b779f1061a13239adbc4aa05a7deb5d2b12dedddbebc1b7f59a48c41236fd7273f4cff9d938a4a322c097f3"
                }
            ],
            "Paris" : [
                {
                    "hash" : "0x8de2b6866aeb4be9d27f4488c8800e686ac38dab11365776786f1b9a34041386",
                    "indexes" : {
                        "data" : 0,
                        "gas" : 0,
                        "value" : 0
                    },
                    "logs" : "0x1dcc4de8dec75d7aab85b567b6ccd41ad312451b948a7413f0a142fd40d49347",
                    "txbytes" : "0xf885800a8404c4b40094cccccccccccccccccccccccccccccccccccccccc80a4693c613900000000000000000000000000000000000000000000000000000000000001001ca0d3c0e29ce9d2a085d241ef81f09da0335ecee69d8938df5d833999ff6a520690a006906fea77bb6004ffe55d0154cd56eda761f36a419cef70afa6a9c9a92657f5"
                },
                {
                    "hash" : "0x23f74f3aeadc69a2ac9145d7c6c4cbdf58e942b5a371d9f06d59bcd6da66d5a3",
                    "indexes" : {
                        "data" : 1,
                        "gas" : 0,
                        "value" : 0
                    },
                    "logs" : "0x1dcc4de8dec75d7aab85b567b6ccd41ad312451b948a7413f0a142fd40d49347",
                    "txbytes" : "0xf885800a8404c4b40094cccccccccccccccccccccccccccccccccccccccc80a4693c613900000000000000000000000000000000000000000000000000000000000001011ba0c5ce9bce3a2c711ebf44ec3b79ed285cdd74d0000d821fbd58f2c88342f0d5a1a07ea63bf89a4aaa64a3e0c0376ace90ea127d9ba6810f33649154cfca5901daef"
                },
                {
                    "hash" : "0xeb37e8d2cd493b02d59836d7f71b0819f1d3743d0a92d2c32ebe4da4aafdfced",
                    "indexes" : {
                        "data" : 2,
                        "gas" : 0,
                        "value" : 0
                    },
                    "logs" : "0x1dcc4de8dec75d7aab85b567b6ccd41ad312451b948a7413f0a142fd40d49347",
                    "txbytes" : "0xf885800a8404c4b40094cccccccccccccccccccccccccccccccccccccccc80a4693c613900000000000000000000000000000000000000000000000000000000000001021ba032206aa41d72e0f1d9652e58976758147c0c58b23c2b779f1061a13239adbc4aa05a7deb5d2b12dedddbebc1b7f59a48c41236fd7273f4cff9d938a4a322c097f3"
                }
            ],
            "Shanghai" : [
                {
                    "hash" : "0x8de2b6866aeb4be9d27f4488c8800e686ac38dab11365776786f1b9a34041386",
                    "indexes" : {
                        "data" : 0,
                        "gas" : 0,
                        "value" : 0
                    },
                    "logs" : "0x1dcc4de8dec75d7aab85b567b6ccd41ad312451b948a7413f0a142fd40d49347",
                    "txbytes" : "0xf885800a8404c4b40094cccccccccccccccccccccccccccccccccccccccc80a4693c613900000000000000000000000000000000000000000000000000000000000001001ca0d3c0e29ce9d2a085d241ef81f09da0335ecee69d8938df5d833999ff6a520690a006906fea77bb6004ffe55d0154cd56eda761f36a419cef70afa6a9c9a92657f5"
                },
                {
                    "hash" : "0x23f74f3aeadc69a2ac9145d7c6c4cbdf58e942b5a371d9f06d59bcd6da66d5a3",
                    "indexes" : {
                        "data" : 1,
                        "gas" : 0,
                        "value" : 0
                    },
                    "logs" : "0x1dcc4de8dec75d7aab85b567b6ccd41ad312451b948a7413f0a142fd40d49347",
                    "txbytes" : "0xf885800a8404c4b40094cccccccccccccccccccccccccccccccccccccccc80a4693c613900000000000000000000000000000000000000000000000000000000000001011ba0c5ce9bce3a2c711ebf44ec3b79ed285cdd74d0000d821fbd58f2c88342f0d5a1a07ea63bf89a4aaa64a3e0c0376ace90ea127d9ba6810f33649154cfca5901daef"
                },
                {
                    "hash" : "0xeb37e8d2cd493b02d59836d7f71b0819f1d3743d0a92d2c32ebe4da4aafdfced",
                    "indexes" : {
                        "data" : 2,
                        "gas" : 0,
                        "value" : 0
                    },
                    "logs" : "0x1dcc4de8dec75d7aab85b567b6ccd41ad312451b948a7413f0a142fd40d49347",
                    "txbytes" : "0xf885800a8404c4b40094cccccccccccccccccccccccccccccccccccccccc80a4693c613900000000000000000000000000000000000000000000000000000000000001021ba032206aa41d72e0f1d9652e58976758147c0c58b23c2b779f1061a13239adbc4aa05a7deb5d2b12dedddbebc1b7f59a48c41236fd7273f4cff9d938a4a322c097f3"
                }
            ]
        },
        "pre" : {
            "0x0000000000000000000000000000000000000100" : {
                "balance" : "0xff000000000000",
                "code" : "0x33ff00",
                "nonce" : "0x00",
                "storage" : {
                }
            },
            "0x0000000000000000000000000000000000000101" : {
                "balance" : "0x100000000000",
                "code" : "0x61deadff00",
                "nonce" : "0x00",
                "storage" : {
                }
            },
            "0x0000000000000000000000000000000000000102" : {
                "balance" : "0x100000000000",
                "code" : "0x30ff00",
                "nonce" : "0x00",
                "storage" : {
                }
            },
            "0x000f3df6d732807ef1319fb7b8bb8522d0beac02" : {
                "balance" : "0x00",
                "code" : "0x3373fffffffffffffffffffffffffffffffffffffffe14604d57602036146024575f5ffd5b5f35801560495762001fff810690815414603c575f5ffd5b62001fff01545f5260205ff35b5f5ffd5b62001fff42064281555f359062001fff015500",
                "nonce" : "0x01",
                "storage" : {
                }
            },
            "0xa94f5374fce5edbc8e2a8697c15331677e6ebf0b" : {
                "balance" : "0x5af3107a4000",
                "code" : "0x",
                "nonce" : "0x00",
                "storage" : {
                }
            },
            "0xcccccccccccccccccccccccccccccccccccccccc" : {
                "balance" : "0x100000000000",
                "code" : "0x600060006000600060006004355af100",
                "nonce" : "0x00",
                "storage" : {
                }
            }
        },
        "transaction" : {
            "data" : [
                "0x693c61390000000000000000000000000000000000000000000000000000000000000100",
                "0x693c61390000000000000000000000000000000000000000000000000000000000000101",
                "0x693c61390000000000000000000000000000000000000000000000000000000000000102"
            ],
            "gasLimit" : [
                "0x04c4b400"
            ],
            "gasPrice" : "0x0a",
            "nonce" : "0x00",
            "secretKey" : "0x45a915e4d060149eb4365960e6a7a45f334393093061116b197e3240065ff2d8",
            "sender" : "0xa94f5374fce5edbc8e2a8697c15331677e6ebf0b",
            "to" : "0xcccccccccccccccccccccccccccccccccccccccc",
            "value" : [
                "0x00"
            ]
        }
    }
}