{
    "CallLowLevelCreatesSolidity_d0g0v0_Berlin" : {
        "_info" : {
            "comment" : "",
            "filling-rpc-server" : "evm version 1.9.23-unstable-0efc69a9-20201022",
            "filling-tool-version" : "retesteth-0.0.9-berlin+commit.2f30f0ea.Linux.g++",
            "lllcversion" : "Version: 0.5.14-develop.2020.6.22+commit.9189ad7a.Linux.g++",
            "source" : "src/GeneralStateTestsFiller/stSolidityTest/CallLowLevelCreatesSolidityFiller.json",
            "sourceHash" : "a10d2f87fdce5424c7d7741a4ce32e751653c6018d5d37dbc6840278d08e38f7"
        },
        "genesisBlockHeader" : {
            "bloom" : "0x00000000000000000000000000000000000000000000000000000000000000000000000000000000000000000000000000000000000000000000000000000000000000000000000000000000000000000000000000000000000000000000000000000000000000000000000000000000000000000000000000000000000000000000000000000000000000000000000000000000000000000000000000000000000000000000000000000000000000000000000000000000000000000000000000000000000000000000000000000000000000000000000000000000000000000000000000000000000000000000000000000000000000000000000000000000",
            "coinbase" : "0x2adc25665018aa1fe0e6bc666dac8fc2697ff9ba",
            "difficulty" : "0x020000",
            "extraData" : "0x00",
            "gasLimit" : "0x05f5e100",
            "gasUsed" : "0x00",
            "hash" : "0x68aae12700773e627713a7383cf248fc0a7af3ce15ca2287c17ae2fc6d4765fc",
            "mixHash" : "0x0000000000000000000000000000000000000000000000000000000000000000",
            "nonce" : "0x0000000000000000",
            "number" : "0x00",
            "parentHash" : "0x0000000000000000000000000000000000000000000000000000000000000000",
            "receiptTrie" : "0x56e81f171bcc55a6ff8345e692c0f86e5b48e01b996cadc001622fb5e363b421",
            "stateRoot" : "0x695e890a531c8c1af44b07b410345e2684133d3afc8b2605078e1b312d337606",
            "timestamp" : "0x00",
            "transactionsTrie" : "0x56e81f171bcc55a6ff8345e692c0f86e5b48e01b996cadc001622fb5e363b421",
            "uncleHash" : "0x1dcc4de8dec75d7aab85b567b6ccd41ad312451b948a7413f0a142fd40d49347"
        },
        "pre" : {
            "0x095e7baea6a6c7c4c2dfeb977efac326af552d87" : {
                "balance" : "0x0186a0",
                "code" : "0x60003560e060020a9004806330debb4214610021578063c04062261461003257005b61002c6004356100c7565b60006000f35b61003a610044565b8060005260206000f35b60006000600160008190555073095e7baea6a6c7c4c2dfeb977efac326af552d87600181905550606a6100d2600039606a60006000f0905080600160a060020a03166319ab453c600060008260e060020a026000526004600154600160a060020a03168152602001600060008660325a03f16100bc57005b505060005491505090565b80600081905550505600605e80600c6000396000f30060003560e060020a9004806319ab453c14601557005b601e6004356024565b60006000f35b80600160a060020a03166330debb42600060008260e060020a02600052600460e18152602001600060008660325a03f1605957005b50505056",
                "nonce" : "0x00",
                "storage" : {
                }
            },
            "0xa94f5374fce5edbc8e2a8697c15331677e6ebf0b" : {
                "balance" : "0x0f4240",
                "code" : "0x",
                "nonce" : "0x00",
                "storage" : {
                }
            }
        },
        "postState" : {
            "0x095e7baea6a6c7c4c2dfeb977efac326af552d87" : {
                "code" : "0x60003560e060020a9004806330debb4214610021578063c04062261461003257005b61002c6004356100c7565b60006000f35b61003a610044565b8060005260206000f35b60006000600160008190555073095e7baea6a6c7c4c2dfeb977efac326af552d87600181905550606a6100d2600039606a60006000f0905080600160a060020a03166319ab453c600060008260e060020a026000526004600154600160a060020a03168152602001600060008660325a03f16100bc57005b505060005491505090565b80600081905550505600605e80600c6000396000f30060003560e060020a9004806319ab453c14601557005b601e6004356024565b60006000f35b80600160a060020a03166330debb42600060008260e060020a02600052600460e18152602001600060008660325a03f1605957005b50505056",
                "nonce" : "0x01",
                "balance" : "0x0186a1",
                "storage" : {
                    "0x00" : "0xe1",
                    "0x01" : "0x095e7baea6a6c7c4c2dfeb977efac326af552d87"
                }
            },
            "0x2adc25665018aa1fe0e6bc666dac8fc2697ff9ba" : {
                "code" : "0x",
                "nonce" : "0x00",
                "balance" : "0x1bc16d674ec9cbae",
                "storage" : {
                }
            },
            "0xa94f5374fce5edbc8e2a8697c15331677e6ebf0b" : {
                "code" : "0x",
                "nonce" : "0x01",
                "balance" : "0x0d7691",
                "storage" : {
                }
            },
            "0xd2571607e241ecf590ed94b12d87c94babe36db6" : {
                "code" : "0x60003560e060020a9004806319ab453c14601557005b601e6004356024565b60006000f35b80600160a060020a03166330debb42600060008260e060020a02600052600460e18152602001600060008660325a03f1605957005b50505056",
                "nonce" : "0x01",
                "balance" : "0x00",
                "storage" : {
                }
            }
        },
        "network" : "Berlin",
        "sealEngine" : "NoProof",
        "lastblockhash" : "0x8be6128c5ee7bc1e6847302161abb546b420d3dc6a236c00a3b45e5b90181819",
        "genesisRLP" : "0xf901f9f901f4a00000000000000000000000000000000000000000000000000000000000000000a01dcc4de8dec75d7aab85b567b6ccd41ad312451b948a7413f0a142fd40d49347942adc25665018aa1fe0e6bc666dac8fc2697ff9baa0695e890a531c8c1af44b07b410345e2684133d3afc8b2605078e1b312d337606a056e81f171bcc55a6ff8345e692c0f86e5b48e01b996cadc001622fb5e363b421a056e81f171bcc55a6ff8345e692c0f86e5b48e01b996cadc001622fb5e363b421b901000000000000000000000000000000000000000000000000000000000000000000000000000000000000000000000000000000000000000000000000000000000000000000000000000000000000000000000000000000000000000000000000000000000000000000000000000000000000000000000000000000000000000000000000000000000000000000000000000000000000000000000000000000000000000000000000000000000000000000000000000000000000000000000000000000000000000000000000000000000000000000000000000000000000000000000000000000000000000000000000000000000000000000000000000000000083020000808405f5e100808000a00000000000000000000000000000000000000000000000000000000000000000880000000000000000c0c0",
        "blocks" : [
            {
                "rlp" : "0xf90265f901f9a068aae12700773e627713a7383cf248fc0a7af3ce15ca2287c17ae2fc6d4765fca01dcc4de8dec75d7aab85b567b6ccd41ad312451b948a7413f0a142fd40d49347942adc25665018aa1fe0e6bc666dac8fc2697ff9baa06c3e47f2518cdc359acd3323c38f9acf1b3ef163134c6d48f9ae346c424782b3a0758e126e5308d1ef59b0be3487c5cd860b33d0b7ebde2ecb38b45cde05f5cbc1a0b4f1b6a782521c7403f9d6f9171bea5018b5f0ba1ff5dd5c97ac21749ef0e787b901000000000000000000000000000000000000000000000000000000000000000000000000000000000000000000000000000000000000000000000000000000000000000000000000000000000000000000000000000000000000000000000000000000000000000000000000000000000000000000000000000000000000000000000000000000000000000000000000000000000000000000000000000000000000000000000000000000000000000000000000000000000000000000000000000000000000000000000000000000000000000000000000000000000000000000000000000000000000000000000000000000000000000000000000000000000083020000018405f5e1008301cbae8203e800a00000000000000000000000000000000000000000000000000000000000000000880000000000000000f866f86480018305573094095e7baea6a6c7c4c2dfeb977efac326af552d870184c04062261ba0de52c10f466ca9a09c552f9669cf780cae9466caf4389d9196863b9ad1609d5ea076154d3c182d7b93f161add2125a73a0ba33ca816963930e51e1e7ee67d3bd7fc0",
                "blockHeader" : {
                    "bloom" : "0x00000000000000000000000000000000000000000000000000000000000000000000000000000000000000000000000000000000000000000000000000000000000000000000000000000000000000000000000000000000000000000000000000000000000000000000000000000000000000000000000000000000000000000000000000000000000000000000000000000000000000000000000000000000000000000000000000000000000000000000000000000000000000000000000000000000000000000000000000000000000000000000000000000000000000000000000000000000000000000000000000000000000000000000000000000000",
                    "coinbase" : "0x2adc25665018aa1fe0e6bc666dac8fc2697ff9ba",
                    "difficulty" : "0x020000",
                    "extraData" : "0x00",
                    "gasLimit" : "0x05f5e100",
                    "gasUsed" : "0x01cbae",
                    "hash" : "0x8be6128c5ee7bc1e6847302161abb546b420d3dc6a236c00a3b45e5b90181819",
                    "mixHash" : "0x0000000000000000000000000000000000000000000000000000000000000000",
                    "nonce" : "0x0000000000000000",
                    "number" : "0x01",
                    "parentHash" : "0x68aae12700773e627713a7383cf248fc0a7af3ce15ca2287c17ae2fc6d4765fc",
                    "receiptTrie" : "0xb4f1b6a782521c7403f9d6f9171bea5018b5f0ba1ff5dd5c97ac21749ef0e787",
                    "stateRoot" : "0x6c3e47f2518cdc359acd3323c38f9acf1b3ef163134c6d48f9ae346c424782b3",
                    "timestamp" : "0x03e8",
                    "transactionsTrie" : "0x758e126e5308d1ef59b0be3487c5cd860b33d0b7ebde2ecb38b45cde05f5cbc1",
                    "uncleHash" : "0x1dcc4de8dec75d7aab85b567b6ccd41ad312451b948a7413f0a142fd40d49347"
                },
                "transactions" : [
                    {
                        "data" : "0xc0406226",
                        "gasLimit" : "0x055730",
                        "gasPrice" : "0x01",
                        "nonce" : "0x00",
                        "to" : "0x095e7baea6a6c7c4c2dfeb977efac326af552d87",
                        "value" : "0x01",
                        "v" : "0x1b",
                        "r" : "0xde52c10f466ca9a09c552f9669cf780cae9466caf4389d9196863b9ad1609d5e",
                        "s" : "0x76154d3c182d7b93f161add2125a73a0ba33ca816963930e51e1e7ee67d3bd7f"
                    }
                ],
                "uncleHeaders" : [
                ]
            }
        ]
    },
    "CallLowLevelCreatesSolidity_d0g0v0_Istanbul" : {
        "_info" : {
            "comment" : "",
            "filling-rpc-server" : "evm version 1.9.23-unstable-0efc69a9-20201022",
            "filling-tool-version" : "retesteth-0.0.9-berlin+commit.2f30f0ea.Linux.g++",
            "lllcversion" : "Version: 0.5.14-develop.2020.6.22+commit.9189ad7a.Linux.g++",
            "source" : "src/GeneralStateTestsFiller/stSolidityTest/CallLowLevelCreatesSolidityFiller.json",
            "sourceHash" : "a10d2f87fdce5424c7d7741a4ce32e751653c6018d5d37dbc6840278d08e38f7"
        },
        "genesisBlockHeader" : {
            "bloom" : "0x00000000000000000000000000000000000000000000000000000000000000000000000000000000000000000000000000000000000000000000000000000000000000000000000000000000000000000000000000000000000000000000000000000000000000000000000000000000000000000000000000000000000000000000000000000000000000000000000000000000000000000000000000000000000000000000000000000000000000000000000000000000000000000000000000000000000000000000000000000000000000000000000000000000000000000000000000000000000000000000000000000000000000000000000000000000",
            "coinbase" : "0x2adc25665018aa1fe0e6bc666dac8fc2697ff9ba",
            "difficulty" : "0x020000",
            "extraData" : "0x00",
            "gasLimit" : "0x05f5e100",
            "gasUsed" : "0x00",
            "hash" : "0x68aae12700773e627713a7383cf248fc0a7af3ce15ca2287c17ae2fc6d4765fc",
            "mixHash" : "0x0000000000000000000000000000000000000000000000000000000000000000",
            "nonce" : "0x0000000000000000",
            "number" : "0x00",
            "parentHash" : "0x0000000000000000000000000000000000000000000000000000000000000000",
            "receiptTrie" : "0x56e81f171bcc55a6ff8345e692c0f86e5b48e01b996cadc001622fb5e363b421",
            "stateRoot" : "0x695e890a531c8c1af44b07b410345e2684133d3afc8b2605078e1b312d337606",
            "timestamp" : "0x00",
            "transactionsTrie" : "0x56e81f171bcc55a6ff8345e692c0f86e5b48e01b996cadc001622fb5e363b421",
            "uncleHash" : "0x1dcc4de8dec75d7aab85b567b6ccd41ad312451b948a7413f0a142fd40d49347"
        },
        "pre" : {
            "0x095e7baea6a6c7c4c2dfeb977efac326af552d87" : {
                "balance" : "0x0186a0",
                "code" : "0x60003560e060020a9004806330debb4214610021578063c04062261461003257005b61002c6004356100c7565b60006000f35b61003a610044565b8060005260206000f35b60006000600160008190555073095e7baea6a6c7c4c2dfeb977efac326af552d87600181905550606a6100d2600039606a60006000f0905080600160a060020a03166319ab453c600060008260e060020a026000526004600154600160a060020a03168152602001600060008660325a03f16100bc57005b505060005491505090565b80600081905550505600605e80600c6000396000f30060003560e060020a9004806319ab453c14601557005b601e6004356024565b60006000f35b80600160a060020a03166330debb42600060008260e060020a02600052600460e18152602001600060008660325a03f1605957005b50505056",
                "nonce" : "0x00",
                "storage" : {
                }
            },
            "0xa94f5374fce5edbc8e2a8697c15331677e6ebf0b" : {
                "balance" : "0x0f4240",
                "code" : "0x",
                "nonce" : "0x00",
                "storage" : {
                }
            }
        },
        "postState" : {
            "0x095e7baea6a6c7c4c2dfeb977efac326af552d87" : {
                "code" : "0x60003560e060020a9004806330debb4214610021578063c04062261461003257005b61002c6004356100c7565b60006000f35b61003a610044565b8060005260206000f35b60006000600160008190555073095e7baea6a6c7c4c2dfeb977efac326af552d87600181905550606a6100d2600039606a60006000f0905080600160a060020a03166319ab453c600060008260e060020a026000526004600154600160a060020a03168152602001600060008660325a03f16100bc57005b505060005491505090565b80600081905550505600605e80600c6000396000f30060003560e060020a9004806319ab453c14601557005b601e6004356024565b60006000f35b80600160a060020a03166330debb42600060008260e060020a02600052600460e18152602001600060008660325a03f1605957005b50505056",
                "nonce" : "0x01",
                "balance" : "0x0186a1",
                "storage" : {
                    "0x00" : "0xe1",
                    "0x01" : "0x095e7baea6a6c7c4c2dfeb977efac326af552d87"
                }
            },
            "0x2adc25665018aa1fe0e6bc666dac8fc2697ff9ba" : {
                "code" : "0x",
                "nonce" : "0x00",
                "balance" : "0x1bc16d674ec9c82a",
                "storage" : {
                }
            },
            "0xa94f5374fce5edbc8e2a8697c15331677e6ebf0b" : {
                "code" : "0x",
                "nonce" : "0x01",
                "balance" : "0x0d7a15",
                "storage" : {
                }
            },
            "0xd2571607e241ecf590ed94b12d87c94babe36db6" : {
                "code" : "0x60003560e060020a9004806319ab453c14601557005b601e6004356024565b60006000f35b80600160a060020a03166330debb42600060008260e060020a02600052600460e18152602001600060008660325a03f1605957005b50505056",
                "nonce" : "0x01",
                "balance" : "0x00",
                "storage" : {
                }
            }
        },
        "network" : "Istanbul",
        "sealEngine" : "NoProof",
        "lastblockhash" : "0x49be4f2d6fb32c23fd3e8630a3df5c1fabf3499848ccf58f41e90693abaa6807",
        "genesisRLP" : "0xf901f9f901f4a00000000000000000000000000000000000000000000000000000000000000000a01dcc4de8dec75d7aab85b567b6ccd41ad312451b948a7413f0a142fd40d49347942adc25665018aa1fe0e6bc666dac8fc2697ff9baa0695e890a531c8c1af44b07b410345e2684133d3afc8b2605078e1b312d337606a056e81f171bcc55a6ff8345e692c0f86e5b48e01b996cadc001622fb5e363b421a056e81f171bcc55a6ff8345e692c0f86e5b48e01b996cadc001622fb5e363b421b901000000000000000000000000000000000000000000000000000000000000000000000000000000000000000000000000000000000000000000000000000000000000000000000000000000000000000000000000000000000000000000000000000000000000000000000000000000000000000000000000000000000000000000000000000000000000000000000000000000000000000000000000000000000000000000000000000000000000000000000000000000000000000000000000000000000000000000000000000000000000000000000000000000000000000000000000000000000000000000000000000000000000000000000000000000000083020000808405f5e100808000a00000000000000000000000000000000000000000000000000000000000000000880000000000000000c0c0",
        "blocks" : [
            {
                "rlp" : "0xf90265f901f9a068aae12700773e627713a7383cf248fc0a7af3ce15ca2287c17ae2fc6d4765fca01dcc4de8dec75d7aab85b567b6ccd41ad312451b948a7413f0a142fd40d49347942adc25665018aa1fe0e6bc666dac8fc2697ff9baa04e0e097c18659f1e638038edc1e29937e3c8d4ca853f493a8954db87eb728645a0758e126e5308d1ef59b0be3487c5cd860b33d0b7ebde2ecb38b45cde05f5cbc1a0550e9b5dc64d72a43191b44e436de8b58529e8a0a18f82070c583a27b92ac06db901000000000000000000000000000000000000000000000000000000000000000000000000000000000000000000000000000000000000000000000000000000000000000000000000000000000000000000000000000000000000000000000000000000000000000000000000000000000000000000000000000000000000000000000000000000000000000000000000000000000000000000000000000000000000000000000000000000000000000000000000000000000000000000000000000000000000000000000000000000000000000000000000000000000000000000000000000000000000000000000000000000000000000000000000000000000083020000018405f5e1008301c82a8203e800a00000000000000000000000000000000000000000000000000000000000000000880000000000000000f866f86480018305573094095e7baea6a6c7c4c2dfeb977efac326af552d870184c04062261ba0de52c10f466ca9a09c552f9669cf780cae9466caf4389d9196863b9ad1609d5ea076154d3c182d7b93f161add2125a73a0ba33ca816963930e51e1e7ee67d3bd7fc0",
                "blockHeader" : {
                    "bloom" : "0x00000000000000000000000000000000000000000000000000000000000000000000000000000000000000000000000000000000000000000000000000000000000000000000000000000000000000000000000000000000000000000000000000000000000000000000000000000000000000000000000000000000000000000000000000000000000000000000000000000000000000000000000000000000000000000000000000000000000000000000000000000000000000000000000000000000000000000000000000000000000000000000000000000000000000000000000000000000000000000000000000000000000000000000000000000000",
                    "coinbase" : "0x2adc25665018aa1fe0e6bc666dac8fc2697ff9ba",
                    "difficulty" : "0x020000",
                    "extraData" : "0x00",
                    "gasLimit" : "0x05f5e100",
                    "gasUsed" : "0x01c82a",
                    "hash" : "0x49be4f2d6fb32c23fd3e8630a3df5c1fabf3499848ccf58f41e90693abaa6807",
                    "mixHash" : "0x0000000000000000000000000000000000000000000000000000000000000000",
                    "nonce" : "0x0000000000000000",
                    "number" : "0x01",
                    "parentHash" : "0x68aae12700773e627713a7383cf248fc0a7af3ce15ca2287c17ae2fc6d4765fc",
                    "receiptTrie" : "0x550e9b5dc64d72a43191b44e436de8b58529e8a0a18f82070c583a27b92ac06d",
                    "stateRoot" : "0x4e0e097c18659f1e638038edc1e29937e3c8d4ca853f493a8954db87eb728645",
                    "timestamp" : "0x03e8",
                    "transactionsTrie" : "0x758e126e5308d1ef59b0be3487c5cd860b33d0b7ebde2ecb38b45cde05f5cbc1",
                    "uncleHash" : "0x1dcc4de8dec75d7aab85b567b6ccd41ad312451b948a7413f0a142fd40d49347"
                },
                "transactions" : [
                    {
                        "data" : "0xc0406226",
                        "gasLimit" : "0x055730",
                        "gasPrice" : "0x01",
                        "nonce" : "0x00",
                        "to" : "0x095e7baea6a6c7c4c2dfeb977efac326af552d87",
                        "value" : "0x01",
                        "v" : "0x1b",
                        "r" : "0xde52c10f466ca9a09c552f9669cf780cae9466caf4389d9196863b9ad1609d5e",
                        "s" : "0x76154d3c182d7b93f161add2125a73a0ba33ca816963930e51e1e7ee67d3bd7f"
                    }
                ],
                "uncleHeaders" : [
                ]
            }
        ]
    }
}