{
    "CallInfiniteLoop_d0g0v0_EIP150" : {
        "_info" : {
            "comment" : "",
            "filledwith" : "cpp-1.3.0+commit.16292201.Linux.g++",
            "source" : "/src/GenStateTestAsBcTemp/stSolidityTest/CallInfiniteLoop_d0g0v0Filler.json"
        },
        "blocks" : [
            {
                "blockHeader" : {
                    "bloom" : "0x00000000000000000000000000000000000000000000000000000000000000000000000000000000000000000000000000000000000000000000000000000000000000000000000000000000000000000000000000000000000000000000000000000000000000000000000000000000000000000000000000000000000000000000000000000000000000000000000000000000000000000000000000000000000000000000000000000000000000000000000000000000000000000000000000000000000000000000000000000000000000000000000000000000000000000000000000000000000000000000000000000000000000000000000000000000",
                    "coinbase" : "0x2adc25665018aa1fe0e6bc666dac8fc2697ff9ba",
                    "difficulty" : "0x020000",
                    "extraData" : "",
                    "gasLimit" : "0x05f5e100",
                    "gasUsed" : "0x0493e0",
                    "hash" : "0x2f66f6cc8a10ac9015470c95fddd01dc11c90a6d36faa9314269886d7ec32d3a",
                    "mixHash" : "0xc04564b8de989b1f00bed4352534d065d09f1fab994c9a3a8d75bb1de5bb99b4",
                    "nonce" : "0x2495f59c525c25b6",
                    "number" : "0x01",
                    "parentHash" : "0xaf65948b068aa5f6dd7d6b3d7169356292d1bea4e878f63c3a5e16cd988b02ac",
                    "receiptTrie" : "0x9d8209995e44e7cdffd35272965b74847c540219648362944b21c9b0c2d32aae",
                    "stateRoot" : "0xa88613c5e13175d1444ab3a361ea70abef57741bb58074397c744c19ac8fec10",
                    "timestamp" : "0x03e8",
                    "transactionsTrie" : "0x014562a324bcd50a3be341c4141c9968e29bc3382332517037b21acf0b278349",
                    "uncleHash" : "0x1dcc4de8dec75d7aab85b567b6ccd41ad312451b948a7413f0a142fd40d49347"
                },
                "rlp" : "0xf90265f901f9a0af65948b068aa5f6dd7d6b3d7169356292d1bea4e878f63c3a5e16cd988b02aca01dcc4de8dec75d7aab85b567b6ccd41ad312451b948a7413f0a142fd40d49347942adc25665018aa1fe0e6bc666dac8fc2697ff9baa0a88613c5e13175d1444ab3a361ea70abef57741bb58074397c744c19ac8fec10a0014562a324bcd50a3be341c4141c9968e29bc3382332517037b21acf0b278349a09d8209995e44e7cdffd35272965b74847c540219648362944b21c9b0c2d32aaeb901000000000000000000000000000000000000000000000000000000000000000000000000000000000000000000000000000000000000000000000000000000000000000000000000000000000000000000000000000000000000000000000000000000000000000000000000000000000000000000000000000000000000000000000000000000000000000000000000000000000000000000000000000000000000000000000000000000000000000000000000000000000000000000000000000000000000000000000000000000000000000000000000000000000000000000000000000000000000000000000000000000000000000000000000000000000083020000018405f5e100830493e08203e880a0c04564b8de989b1f00bed4352534d065d09f1fab994c9a3a8d75bb1de5bb99b4882495f59c525c25b6f866f8648001830493e094095e7baea6a6c7c4c2dfeb977efac326af552d870184296df0df1ba0740f12159ebaea0e54f0bbec0ac065245b7ccc78414f48704eba19bef21854b8a041b8ec2be1f67d03a58633df898ce0f63b512dd7ed9babf650cc3f315c18864fc0",
                "transactions" : [
                    {
                        "data" : "0x296df0df",
                        "gasLimit" : "0x0493e0",
                        "gasPrice" : "0x01",
                        "nonce" : "0x00",
                        "r" : "0x740f12159ebaea0e54f0bbec0ac065245b7ccc78414f48704eba19bef21854b8",
                        "s" : "0x41b8ec2be1f67d03a58633df898ce0f63b512dd7ed9babf650cc3f315c18864f",
                        "to" : "0x095e7baea6a6c7c4c2dfeb977efac326af552d87",
                        "v" : "0x1b",
                        "value" : "0x01"
                    }
                ],
                "uncleHeaders" : [
                ]
            }
        ],
        "genesisBlockHeader" : {
            "bloom" : "0x00000000000000000000000000000000000000000000000000000000000000000000000000000000000000000000000000000000000000000000000000000000000000000000000000000000000000000000000000000000000000000000000000000000000000000000000000000000000000000000000000000000000000000000000000000000000000000000000000000000000000000000000000000000000000000000000000000000000000000000000000000000000000000000000000000000000000000000000000000000000000000000000000000000000000000000000000000000000000000000000000000000000000000000000000000000",
            "coinbase" : "0x2adc25665018aa1fe0e6bc666dac8fc2697ff9ba",
            "difficulty" : "0x020000",
            "extraData" : "0x42",
            "gasLimit" : "0x05f5e100",
            "gasUsed" : "0x00",
            "hash" : "0xaf65948b068aa5f6dd7d6b3d7169356292d1bea4e878f63c3a5e16cd988b02ac",
            "mixHash" : "0x56e81f171bcc55a6ff8345e692c0f86e5b48e01b996cadc001622fb5e363b421",
            "nonce" : "0x0102030405060708",
            "number" : "0x00",
            "parentHash" : "0x0000000000000000000000000000000000000000000000000000000000000000",
            "receiptTrie" : "0x56e81f171bcc55a6ff8345e692c0f86e5b48e01b996cadc001622fb5e363b421",
            "stateRoot" : "0x24f62c43bb67a849ccdea98bc7d026f2fb7c372da9795a6fee7684477ef26a52",
            "timestamp" : "0x03b6",
            "transactionsTrie" : "0x56e81f171bcc55a6ff8345e692c0f86e5b48e01b996cadc001622fb5e363b421",
            "uncleHash" : "0x1dcc4de8dec75d7aab85b567b6ccd41ad312451b948a7413f0a142fd40d49347"
        },
        "genesisRLP" : "0xf901fbf901f6a00000000000000000000000000000000000000000000000000000000000000000a01dcc4de8dec75d7aab85b567b6ccd41ad312451b948a7413f0a142fd40d49347942adc25665018aa1fe0e6bc666dac8fc2697ff9baa024f62c43bb67a849ccdea98bc7d026f2fb7c372da9795a6fee7684477ef26a52a056e81f171bcc55a6ff8345e692c0f86e5b48e01b996cadc001622fb5e363b421a056e81f171bcc55a6ff8345e692c0f86e5b48e01b996cadc001622fb5e363b421b901000000000000000000000000000000000000000000000000000000000000000000000000000000000000000000000000000000000000000000000000000000000000000000000000000000000000000000000000000000000000000000000000000000000000000000000000000000000000000000000000000000000000000000000000000000000000000000000000000000000000000000000000000000000000000000000000000000000000000000000000000000000000000000000000000000000000000000000000000000000000000000000000000000000000000000000000000000000000000000000000000000000000000000000000000000000083020000808405f5e100808203b642a056e81f171bcc55a6ff8345e692c0f86e5b48e01b996cadc001622fb5e363b421880102030405060708c0c0",
        "lastblockhash" : "0x2f66f6cc8a10ac9015470c95fddd01dc11c90a6d36faa9314269886d7ec32d3a",
        "network" : "EIP150",
        "postState" : {
            "0x095e7baea6a6c7c4c2dfeb977efac326af552d87" : {
                "balance" : "0x0186a0",
                "code" : "0x60003560e060020a90048063296df0df1460295780634893d88a146035578063981a316514604157005b602f604d565b60006000f35b603b6062565b60006000f35b6047605a565b60006000f35b5b600115605857604e565b565b60606062565b565b6068605a565b56",
                "nonce" : "0x00",
                "storage" : {
                }
            },
            "0x2adc25665018aa1fe0e6bc666dac8fc2697ff9ba" : {
                "balance" : "0x4563918244f893e0",
                "code" : "",
                "nonce" : "0x00",
                "storage" : {
                }
            },
            "0xa94f5374fce5edbc8e2a8697c15331677e6ebf0b" : {
                "balance" : "0x030d40",
                "code" : "",
                "nonce" : "0x01",
                "storage" : {
                }
            }
        },
        "pre" : {
            "0x095e7baea6a6c7c4c2dfeb977efac326af552d87" : {
                "balance" : "0x0186a0",
                "code" : "0x60003560e060020a90048063296df0df1460295780634893d88a146035578063981a316514604157005b602f604d565b60006000f35b603b6062565b60006000f35b6047605a565b60006000f35b5b600115605857604e565b565b60606062565b565b6068605a565b56",
                "nonce" : "0x00",
                "storage" : {
                }
            },
            "0xa94f5374fce5edbc8e2a8697c15331677e6ebf0b" : {
                "balance" : "0x07a120",
                "code" : "",
                "nonce" : "0x00",
                "storage" : {
                }
            }
        }
    },
    "CallInfiniteLoop_d0g0v0_EIP158" : {
        "_info" : {
            "comment" : "",
            "filledwith" : "cpp-1.3.0+commit.16292201.Linux.g++",
            "source" : "/src/GenStateTestAsBcTemp/stSolidityTest/CallInfiniteLoop_d0g0v0Filler.json"
        },
        "blocks" : [
            {
                "blockHeader" : {
                    "bloom" : "0x00000000000000000000000000000000000000000000000000000000000000000000000000000000000000000000000000000000000000000000000000000000000000000000000000000000000000000000000000000000000000000000000000000000000000000000000000000000000000000000000000000000000000000000000000000000000000000000000000000000000000000000000000000000000000000000000000000000000000000000000000000000000000000000000000000000000000000000000000000000000000000000000000000000000000000000000000000000000000000000000000000000000000000000000000000000",
                    "coinbase" : "0x2adc25665018aa1fe0e6bc666dac8fc2697ff9ba",
                    "difficulty" : "0x020000",
                    "extraData" : "",
                    "gasLimit" : "0x05f5e100",
                    "gasUsed" : "0x0493e0",
                    "hash" : "0x5f261a3bb29af5ad8dc720d66cee4cbf14b41c7019ed3cad8096507e06d6e7de",
                    "mixHash" : "0xbf84ab15e710cec96672dee61785a444a51eaabfb10be863a4bb621d239996df",
                    "nonce" : "0x72b56607550a31de",
                    "number" : "0x01",
                    "parentHash" : "0xaf65948b068aa5f6dd7d6b3d7169356292d1bea4e878f63c3a5e16cd988b02ac",
                    "receiptTrie" : "0x9d8209995e44e7cdffd35272965b74847c540219648362944b21c9b0c2d32aae",
                    "stateRoot" : "0xa88613c5e13175d1444ab3a361ea70abef57741bb58074397c744c19ac8fec10",
                    "timestamp" : "0x03e8",
                    "transactionsTrie" : "0x014562a324bcd50a3be341c4141c9968e29bc3382332517037b21acf0b278349",
                    "uncleHash" : "0x1dcc4de8dec75d7aab85b567b6ccd41ad312451b948a7413f0a142fd40d49347"
                },
                "rlp" : "0xf90265f901f9a0af65948b068aa5f6dd7d6b3d7169356292d1bea4e878f63c3a5e16cd988b02aca01dcc4de8dec75d7aab85b567b6ccd41ad312451b948a7413f0a142fd40d49347942adc25665018aa1fe0e6bc666dac8fc2697ff9baa0a88613c5e13175d1444ab3a361ea70abef57741bb58074397c744c19ac8fec10a0014562a324bcd50a3be341c4141c9968e29bc3382332517037b21acf0b278349a09d8209995e44e7cdffd35272965b74847c540219648362944b21c9b0c2d32aaeb901000000000000000000000000000000000000000000000000000000000000000000000000000000000000000000000000000000000000000000000000000000000000000000000000000000000000000000000000000000000000000000000000000000000000000000000000000000000000000000000000000000000000000000000000000000000000000000000000000000000000000000000000000000000000000000000000000000000000000000000000000000000000000000000000000000000000000000000000000000000000000000000000000000000000000000000000000000000000000000000000000000000000000000000000000000000083020000018405f5e100830493e08203e880a0bf84ab15e710cec96672dee61785a444a51eaabfb10be863a4bb621d239996df8872b56607550a31def866f8648001830493e094095e7baea6a6c7c4c2dfeb977efac326af552d870184296df0df1ba0740f12159ebaea0e54f0bbec0ac065245b7ccc78414f48704eba19bef21854b8a041b8ec2be1f67d03a58633df898ce0f63b512dd7ed9babf650cc3f315c18864fc0",
                "transactions" : [
                    {
                        "data" : "0x296df0df",
                        "gasLimit" : "0x0493e0",
                        "gasPrice" : "0x01",
                        "nonce" : "0x00",
                        "r" : "0x740f12159ebaea0e54f0bbec0ac065245b7ccc78414f48704eba19bef21854b8",
                        "s" : "0x41b8ec2be1f67d03a58633df898ce0f63b512dd7ed9babf650cc3f315c18864f",
                        "to" : "0x095e7baea6a6c7c4c2dfeb977efac326af552d87",
                        "v" : "0x1b",
                        "value" : "0x01"
                    }
                ],
                "uncleHeaders" : [
                ]
            }
        ],
        "genesisBlockHeader" : {
            "bloom" : "0x00000000000000000000000000000000000000000000000000000000000000000000000000000000000000000000000000000000000000000000000000000000000000000000000000000000000000000000000000000000000000000000000000000000000000000000000000000000000000000000000000000000000000000000000000000000000000000000000000000000000000000000000000000000000000000000000000000000000000000000000000000000000000000000000000000000000000000000000000000000000000000000000000000000000000000000000000000000000000000000000000000000000000000000000000000000",
            "coinbase" : "0x2adc25665018aa1fe0e6bc666dac8fc2697ff9ba",
            "difficulty" : "0x020000",
            "extraData" : "0x42",
            "gasLimit" : "0x05f5e100",
            "gasUsed" : "0x00",
            "hash" : "0xaf65948b068aa5f6dd7d6b3d7169356292d1bea4e878f63c3a5e16cd988b02ac",
            "mixHash" : "0x56e81f171bcc55a6ff8345e692c0f86e5b48e01b996cadc001622fb5e363b421",
            "nonce" : "0x0102030405060708",
            "number" : "0x00",
            "parentHash" : "0x0000000000000000000000000000000000000000000000000000000000000000",
            "receiptTrie" : "0x56e81f171bcc55a6ff8345e692c0f86e5b48e01b996cadc001622fb5e363b421",
            "stateRoot" : "0x24f62c43bb67a849ccdea98bc7d026f2fb7c372da9795a6fee7684477ef26a52",
            "timestamp" : "0x03b6",
            "transactionsTrie" : "0x56e81f171bcc55a6ff8345e692c0f86e5b48e01b996cadc001622fb5e363b421",
            "uncleHash" : "0x1dcc4de8dec75d7aab85b567b6ccd41ad312451b948a7413f0a142fd40d49347"
        },
        "genesisRLP" : "0xf901fbf901f6a00000000000000000000000000000000000000000000000000000000000000000a01dcc4de8dec75d7aab85b567b6ccd41ad312451b948a7413f0a142fd40d49347942adc25665018aa1fe0e6bc666dac8fc2697ff9baa024f62c43bb67a849ccdea98bc7d026f2fb7c372da9795a6fee7684477ef26a52a056e81f171bcc55a6ff8345e692c0f86e5b48e01b996cadc001622fb5e363b421a056e81f171bcc55a6ff8345e692c0f86e5b48e01b996cadc001622fb5e363b421b901000000000000000000000000000000000000000000000000000000000000000000000000000000000000000000000000000000000000000000000000000000000000000000000000000000000000000000000000000000000000000000000000000000000000000000000000000000000000000000000000000000000000000000000000000000000000000000000000000000000000000000000000000000000000000000000000000000000000000000000000000000000000000000000000000000000000000000000000000000000000000000000000000000000000000000000000000000000000000000000000000000000000000000000000000000000083020000808405f5e100808203b642a056e81f171bcc55a6ff8345e692c0f86e5b48e01b996cadc001622fb5e363b421880102030405060708c0c0",
        "lastblockhash" : "0x5f261a3bb29af5ad8dc720d66cee4cbf14b41c7019ed3cad8096507e06d6e7de",
        "network" : "EIP158",
        "postState" : {
            "0x095e7baea6a6c7c4c2dfeb977efac326af552d87" : {
                "balance" : "0x0186a0",
                "code" : "0x60003560e060020a90048063296df0df1460295780634893d88a146035578063981a316514604157005b602f604d565b60006000f35b603b6062565b60006000f35b6047605a565b60006000f35b5b600115605857604e565b565b60606062565b565b6068605a565b56",
                "nonce" : "0x00",
                "storage" : {
                }
            },
            "0x2adc25665018aa1fe0e6bc666dac8fc2697ff9ba" : {
                "balance" : "0x4563918244f893e0",
                "code" : "",
                "nonce" : "0x00",
                "storage" : {
                }
            },
            "0xa94f5374fce5edbc8e2a8697c15331677e6ebf0b" : {
                "balance" : "0x030d40",
                "code" : "",
                "nonce" : "0x01",
                "storage" : {
                }
            }
        },
        "pre" : {
            "0x095e7baea6a6c7c4c2dfeb977efac326af552d87" : {
                "balance" : "0x0186a0",
                "code" : "0x60003560e060020a90048063296df0df1460295780634893d88a146035578063981a316514604157005b602f604d565b60006000f35b603b6062565b60006000f35b6047605a565b60006000f35b5b600115605857604e565b565b60606062565b565b6068605a565b56",
                "nonce" : "0x00",
                "storage" : {
                }
            },
            "0xa94f5374fce5edbc8e2a8697c15331677e6ebf0b" : {
                "balance" : "0x07a120",
                "code" : "",
                "nonce" : "0x00",
                "storage" : {
                }
            }
        }
    },
    "CallInfiniteLoop_d0g0v0_Frontier" : {
        "_info" : {
            "comment" : "",
            "filledwith" : "cpp-1.3.0+commit.16292201.Linux.g++",
            "source" : "/src/GenStateTestAsBcTemp/stSolidityTest/CallInfiniteLoop_d0g0v0Filler.json"
        },
        "blocks" : [
            {
                "blockHeader" : {
                    "bloom" : "0x00000000000000000000000000000000000000000000000000000000000000000000000000000000000000000000000000000000000000000000000000000000000000000000000000000000000000000000000000000000000000000000000000000000000000000000000000000000000000000000000000000000000000000000000000000000000000000000000000000000000000000000000000000000000000000000000000000000000000000000000000000000000000000000000000000000000000000000000000000000000000000000000000000000000000000000000000000000000000000000000000000000000000000000000000000000",
                    "coinbase" : "0x2adc25665018aa1fe0e6bc666dac8fc2697ff9ba",
                    "difficulty" : "0x020000",
                    "extraData" : "",
                    "gasLimit" : "0x05f5e100",
                    "gasUsed" : "0x0493e0",
                    "hash" : "0xd63e7e7902bda55fbba1657684d6b96a492a029903f6eac5adb6de6c93c8bdbb",
                    "mixHash" : "0x61bdbf1c61e75f886ee54f61d1ee1bf7b32373ef859af6b752369cb94c59063f",
                    "nonce" : "0x480d95470bb79bf9",
                    "number" : "0x01",
                    "parentHash" : "0xaf65948b068aa5f6dd7d6b3d7169356292d1bea4e878f63c3a5e16cd988b02ac",
                    "receiptTrie" : "0x9d8209995e44e7cdffd35272965b74847c540219648362944b21c9b0c2d32aae",
                    "stateRoot" : "0xa88613c5e13175d1444ab3a361ea70abef57741bb58074397c744c19ac8fec10",
                    "timestamp" : "0x03e8",
                    "transactionsTrie" : "0x014562a324bcd50a3be341c4141c9968e29bc3382332517037b21acf0b278349",
                    "uncleHash" : "0x1dcc4de8dec75d7aab85b567b6ccd41ad312451b948a7413f0a142fd40d49347"
                },
                "rlp" : "0xf90265f901f9a0af65948b068aa5f6dd7d6b3d7169356292d1bea4e878f63c3a5e16cd988b02aca01dcc4de8dec75d7aab85b567b6ccd41ad312451b948a7413f0a142fd40d49347942adc25665018aa1fe0e6bc666dac8fc2697ff9baa0a88613c5e13175d1444ab3a361ea70abef57741bb58074397c744c19ac8fec10a0014562a324bcd50a3be341c4141c9968e29bc3382332517037b21acf0b278349a09d8209995e44e7cdffd35272965b74847c540219648362944b21c9b0c2d32aaeb901000000000000000000000000000000000000000000000000000000000000000000000000000000000000000000000000000000000000000000000000000000000000000000000000000000000000000000000000000000000000000000000000000000000000000000000000000000000000000000000000000000000000000000000000000000000000000000000000000000000000000000000000000000000000000000000000000000000000000000000000000000000000000000000000000000000000000000000000000000000000000000000000000000000000000000000000000000000000000000000000000000000000000000000000000000000083020000018405f5e100830493e08203e880a061bdbf1c61e75f886ee54f61d1ee1bf7b32373ef859af6b752369cb94c59063f88480d95470bb79bf9f866f8648001830493e094095e7baea6a6c7c4c2dfeb977efac326af552d870184296df0df1ba0740f12159ebaea0e54f0bbec0ac065245b7ccc78414f48704eba19bef21854b8a041b8ec2be1f67d03a58633df898ce0f63b512dd7ed9babf650cc3f315c18864fc0",
                "transactions" : [
                    {
                        "data" : "0x296df0df",
                        "gasLimit" : "0x0493e0",
                        "gasPrice" : "0x01",
                        "nonce" : "0x00",
                        "r" : "0x740f12159ebaea0e54f0bbec0ac065245b7ccc78414f48704eba19bef21854b8",
                        "s" : "0x41b8ec2be1f67d03a58633df898ce0f63b512dd7ed9babf650cc3f315c18864f",
                        "to" : "0x095e7baea6a6c7c4c2dfeb977efac326af552d87",
                        "v" : "0x1b",
                        "value" : "0x01"
                    }
                ],
                "uncleHeaders" : [
                ]
            }
        ],
        "genesisBlockHeader" : {
            "bloom" : "0x00000000000000000000000000000000000000000000000000000000000000000000000000000000000000000000000000000000000000000000000000000000000000000000000000000000000000000000000000000000000000000000000000000000000000000000000000000000000000000000000000000000000000000000000000000000000000000000000000000000000000000000000000000000000000000000000000000000000000000000000000000000000000000000000000000000000000000000000000000000000000000000000000000000000000000000000000000000000000000000000000000000000000000000000000000000",
            "coinbase" : "0x2adc25665018aa1fe0e6bc666dac8fc2697ff9ba",
            "difficulty" : "0x020000",
            "extraData" : "0x42",
            "gasLimit" : "0x05f5e100",
            "gasUsed" : "0x00",
            "hash" : "0xaf65948b068aa5f6dd7d6b3d7169356292d1bea4e878f63c3a5e16cd988b02ac",
            "mixHash" : "0x56e81f171bcc55a6ff8345e692c0f86e5b48e01b996cadc001622fb5e363b421",
            "nonce" : "0x0102030405060708",
            "number" : "0x00",
            "parentHash" : "0x0000000000000000000000000000000000000000000000000000000000000000",
            "receiptTrie" : "0x56e81f171bcc55a6ff8345e692c0f86e5b48e01b996cadc001622fb5e363b421",
            "stateRoot" : "0x24f62c43bb67a849ccdea98bc7d026f2fb7c372da9795a6fee7684477ef26a52",
            "timestamp" : "0x03b6",
            "transactionsTrie" : "0x56e81f171bcc55a6ff8345e692c0f86e5b48e01b996cadc001622fb5e363b421",
            "uncleHash" : "0x1dcc4de8dec75d7aab85b567b6ccd41ad312451b948a7413f0a142fd40d49347"
        },
        "genesisRLP" : "0xf901fbf901f6a00000000000000000000000000000000000000000000000000000000000000000a01dcc4de8dec75d7aab85b567b6ccd41ad312451b948a7413f0a142fd40d49347942adc25665018aa1fe0e6bc666dac8fc2697ff9baa024f62c43bb67a849ccdea98bc7d026f2fb7c372da9795a6fee7684477ef26a52a056e81f171bcc55a6ff8345e692c0f86e5b48e01b996cadc001622fb5e363b421a056e81f171bcc55a6ff8345e692c0f86e5b48e01b996cadc001622fb5e363b421b901000000000000000000000000000000000000000000000000000000000000000000000000000000000000000000000000000000000000000000000000000000000000000000000000000000000000000000000000000000000000000000000000000000000000000000000000000000000000000000000000000000000000000000000000000000000000000000000000000000000000000000000000000000000000000000000000000000000000000000000000000000000000000000000000000000000000000000000000000000000000000000000000000000000000000000000000000000000000000000000000000000000000000000000000000000000083020000808405f5e100808203b642a056e81f171bcc55a6ff8345e692c0f86e5b48e01b996cadc001622fb5e363b421880102030405060708c0c0",
        "lastblockhash" : "0xd63e7e7902bda55fbba1657684d6b96a492a029903f6eac5adb6de6c93c8bdbb",
        "network" : "Frontier",
        "postState" : {
            "0x095e7baea6a6c7c4c2dfeb977efac326af552d87" : {
                "balance" : "0x0186a0",
                "code" : "0x60003560e060020a90048063296df0df1460295780634893d88a146035578063981a316514604157005b602f604d565b60006000f35b603b6062565b60006000f35b6047605a565b60006000f35b5b600115605857604e565b565b60606062565b565b6068605a565b56",
                "nonce" : "0x00",
                "storage" : {
                }
            },
            "0x2adc25665018aa1fe0e6bc666dac8fc2697ff9ba" : {
                "balance" : "0x4563918244f893e0",
                "code" : "",
                "nonce" : "0x00",
                "storage" : {
                }
            },
            "0xa94f5374fce5edbc8e2a8697c15331677e6ebf0b" : {
                "balance" : "0x030d40",
                "code" : "",
                "nonce" : "0x01",
                "storage" : {
                }
            }
        },
        "pre" : {
            "0x095e7baea6a6c7c4c2dfeb977efac326af552d87" : {
                "balance" : "0x0186a0",
                "code" : "0x60003560e060020a90048063296df0df1460295780634893d88a146035578063981a316514604157005b602f604d565b60006000f35b603b6062565b60006000f35b6047605a565b60006000f35b5b600115605857604e565b565b60606062565b565b6068605a565b56",
                "nonce" : "0x00",
                "storage" : {
                }
            },
            "0xa94f5374fce5edbc8e2a8697c15331677e6ebf0b" : {
                "balance" : "0x07a120",
                "code" : "",
                "nonce" : "0x00",
                "storage" : {
                }
            }
        }
    },
    "CallInfiniteLoop_d0g0v0_Homestead" : {
        "_info" : {
            "comment" : "",
            "filledwith" : "cpp-1.3.0+commit.16292201.Linux.g++",
            "source" : "/src/GenStateTestAsBcTemp/stSolidityTest/CallInfiniteLoop_d0g0v0Filler.json"
        },
        "blocks" : [
            {
                "blockHeader" : {
                    "bloom" : "0x00000000000000000000000000000000000000000000000000000000000000000000000000000000000000000000000000000000000000000000000000000000000000000000000000000000000000000000000000000000000000000000000000000000000000000000000000000000000000000000000000000000000000000000000000000000000000000000000000000000000000000000000000000000000000000000000000000000000000000000000000000000000000000000000000000000000000000000000000000000000000000000000000000000000000000000000000000000000000000000000000000000000000000000000000000000",
                    "coinbase" : "0x2adc25665018aa1fe0e6bc666dac8fc2697ff9ba",
                    "difficulty" : "0x020000",
                    "extraData" : "",
                    "gasLimit" : "0x05f5e100",
                    "gasUsed" : "0x0493e0",
                    "hash" : "0x3f2b34ae0722963130799a5bc248e1c74bfb839fa03c9822cbecac9fddabff17",
                    "mixHash" : "0xdbb0d15f2488f003150347b2f07f95076c5ba43c73ef33a868ee48363dd09ef3",
                    "nonce" : "0xb1dc8cfec41799d2",
                    "number" : "0x01",
                    "parentHash" : "0xaf65948b068aa5f6dd7d6b3d7169356292d1bea4e878f63c3a5e16cd988b02ac",
                    "receiptTrie" : "0x9d8209995e44e7cdffd35272965b74847c540219648362944b21c9b0c2d32aae",
                    "stateRoot" : "0xa88613c5e13175d1444ab3a361ea70abef57741bb58074397c744c19ac8fec10",
                    "timestamp" : "0x03e8",
                    "transactionsTrie" : "0x014562a324bcd50a3be341c4141c9968e29bc3382332517037b21acf0b278349",
                    "uncleHash" : "0x1dcc4de8dec75d7aab85b567b6ccd41ad312451b948a7413f0a142fd40d49347"
                },
                "rlp" : "0xf90265f901f9a0af65948b068aa5f6dd7d6b3d7169356292d1bea4e878f63c3a5e16cd988b02aca01dcc4de8dec75d7aab85b567b6ccd41ad312451b948a7413f0a142fd40d49347942adc25665018aa1fe0e6bc666dac8fc2697ff9baa0a88613c5e13175d1444ab3a361ea70abef57741bb58074397c744c19ac8fec10a0014562a324bcd50a3be341c4141c9968e29bc3382332517037b21acf0b278349a09d8209995e44e7cdffd35272965b74847c540219648362944b21c9b0c2d32aaeb901000000000000000000000000000000000000000000000000000000000000000000000000000000000000000000000000000000000000000000000000000000000000000000000000000000000000000000000000000000000000000000000000000000000000000000000000000000000000000000000000000000000000000000000000000000000000000000000000000000000000000000000000000000000000000000000000000000000000000000000000000000000000000000000000000000000000000000000000000000000000000000000000000000000000000000000000000000000000000000000000000000000000000000000000000000000083020000018405f5e100830493e08203e880a0dbb0d15f2488f003150347b2f07f95076c5ba43c73ef33a868ee48363dd09ef388b1dc8cfec41799d2f866f8648001830493e094095e7baea6a6c7c4c2dfeb977efac326af552d870184296df0df1ba0740f12159ebaea0e54f0bbec0ac065245b7ccc78414f48704eba19bef21854b8a041b8ec2be1f67d03a58633df898ce0f63b512dd7ed9babf650cc3f315c18864fc0",
                "transactions" : [
                    {
                        "data" : "0x296df0df",
                        "gasLimit" : "0x0493e0",
                        "gasPrice" : "0x01",
                        "nonce" : "0x00",
                        "r" : "0x740f12159ebaea0e54f0bbec0ac065245b7ccc78414f48704eba19bef21854b8",
                        "s" : "0x41b8ec2be1f67d03a58633df898ce0f63b512dd7ed9babf650cc3f315c18864f",
                        "to" : "0x095e7baea6a6c7c4c2dfeb977efac326af552d87",
                        "v" : "0x1b",
                        "value" : "0x01"
                    }
                ],
                "uncleHeaders" : [
                ]
            }
        ],
        "genesisBlockHeader" : {
            "bloom" : "0x00000000000000000000000000000000000000000000000000000000000000000000000000000000000000000000000000000000000000000000000000000000000000000000000000000000000000000000000000000000000000000000000000000000000000000000000000000000000000000000000000000000000000000000000000000000000000000000000000000000000000000000000000000000000000000000000000000000000000000000000000000000000000000000000000000000000000000000000000000000000000000000000000000000000000000000000000000000000000000000000000000000000000000000000000000000",
            "coinbase" : "0x2adc25665018aa1fe0e6bc666dac8fc2697ff9ba",
            "difficulty" : "0x020000",
            "extraData" : "0x42",
            "gasLimit" : "0x05f5e100",
            "gasUsed" : "0x00",
            "hash" : "0xaf65948b068aa5f6dd7d6b3d7169356292d1bea4e878f63c3a5e16cd988b02ac",
            "mixHash" : "0x56e81f171bcc55a6ff8345e692c0f86e5b48e01b996cadc001622fb5e363b421",
            "nonce" : "0x0102030405060708",
            "number" : "0x00",
            "parentHash" : "0x0000000000000000000000000000000000000000000000000000000000000000",
            "receiptTrie" : "0x56e81f171bcc55a6ff8345e692c0f86e5b48e01b996cadc001622fb5e363b421",
            "stateRoot" : "0x24f62c43bb67a849ccdea98bc7d026f2fb7c372da9795a6fee7684477ef26a52",
            "timestamp" : "0x03b6",
            "transactionsTrie" : "0x56e81f171bcc55a6ff8345e692c0f86e5b48e01b996cadc001622fb5e363b421",
            "uncleHash" : "0x1dcc4de8dec75d7aab85b567b6ccd41ad312451b948a7413f0a142fd40d49347"
        },
        "genesisRLP" : "0xf901fbf901f6a00000000000000000000000000000000000000000000000000000000000000000a01dcc4de8dec75d7aab85b567b6ccd41ad312451b948a7413f0a142fd40d49347942adc25665018aa1fe0e6bc666dac8fc2697ff9baa024f62c43bb67a849ccdea98bc7d026f2fb7c372da9795a6fee7684477ef26a52a056e81f171bcc55a6ff8345e692c0f86e5b48e01b996cadc001622fb5e363b421a056e81f171bcc55a6ff8345e692c0f86e5b48e01b996cadc001622fb5e363b421b901000000000000000000000000000000000000000000000000000000000000000000000000000000000000000000000000000000000000000000000000000000000000000000000000000000000000000000000000000000000000000000000000000000000000000000000000000000000000000000000000000000000000000000000000000000000000000000000000000000000000000000000000000000000000000000000000000000000000000000000000000000000000000000000000000000000000000000000000000000000000000000000000000000000000000000000000000000000000000000000000000000000000000000000000000000000083020000808405f5e100808203b642a056e81f171bcc55a6ff8345e692c0f86e5b48e01b996cadc001622fb5e363b421880102030405060708c0c0",
        "lastblockhash" : "0x3f2b34ae0722963130799a5bc248e1c74bfb839fa03c9822cbecac9fddabff17",
        "network" : "Homestead",
        "postState" : {
            "0x095e7baea6a6c7c4c2dfeb977efac326af552d87" : {
                "balance" : "0x0186a0",
                "code" : "0x60003560e060020a90048063296df0df1460295780634893d88a146035578063981a316514604157005b602f604d565b60006000f35b603b6062565b60006000f35b6047605a565b60006000f35b5b600115605857604e565b565b60606062565b565b6068605a565b56",
                "nonce" : "0x00",
                "storage" : {
                }
            },
            "0x2adc25665018aa1fe0e6bc666dac8fc2697ff9ba" : {
                "balance" : "0x4563918244f893e0",
                "code" : "",
                "nonce" : "0x00",
                "storage" : {
                }
            },
            "0xa94f5374fce5edbc8e2a8697c15331677e6ebf0b" : {
                "balance" : "0x030d40",
                "code" : "",
                "nonce" : "0x01",
                "storage" : {
                }
            }
        },
        "pre" : {
            "0x095e7baea6a6c7c4c2dfeb977efac326af552d87" : {
                "balance" : "0x0186a0",
                "code" : "0x60003560e060020a90048063296df0df1460295780634893d88a146035578063981a316514604157005b602f604d565b60006000f35b603b6062565b60006000f35b6047605a565b60006000f35b5b600115605857604e565b565b60606062565b565b6068605a565b56",
                "nonce" : "0x00",
                "storage" : {
                }
            },
            "0xa94f5374fce5edbc8e2a8697c15331677e6ebf0b" : {
                "balance" : "0x07a120",
                "code" : "",
                "nonce" : "0x00",
                "storage" : {
                }
            }
        }
    },
    "CallInfiniteLoop_d0g0v0_Metropolis" : {
        "_info" : {
            "comment" : "",
            "filledwith" : "cpp-1.3.0+commit.16292201.Linux.g++",
            "source" : "/src/GenStateTestAsBcTemp/stSolidityTest/CallInfiniteLoop_d0g0v0Filler.json"
        },
        "blocks" : [
            {
                "blockHeader" : {
                    "bloom" : "0x00000000000000000000000000000000000000000000000000000000000000000000000000000000000000000000000000000000000000000000000000000000000000000000000000000000000000000000000000000000000000000000000000000000000000000000000000000000000000000000000000000000000000000000000000000000000000000000000000000000000000000000000000000000000000000000000000000000000000000000000000000000000000000000000000000000000000000000000000000000000000000000000000000000000000000000000000000000000000000000000000000000000000000000000000000000",
                    "coinbase" : "0x2adc25665018aa1fe0e6bc666dac8fc2697ff9ba",
                    "difficulty" : "0x020000",
                    "extraData" : "",
                    "gasLimit" : "0x05f5e100",
                    "gasUsed" : "0x0493e0",
                    "hash" : "0x23efad228e2606fe5f56c697c63ec3c72ff08cf135ced80e8d91e5a996a513f4",
                    "mixHash" : "0x21d89a7645913128874c2c3f076152c37583cc035e1d8d692af099a5ddb9c3a5",
                    "nonce" : "0xe844e61d07a64585",
                    "number" : "0x01",
                    "parentHash" : "0xaf65948b068aa5f6dd7d6b3d7169356292d1bea4e878f63c3a5e16cd988b02ac",
                    "receiptTrie" : "0xe2a8b0fa171b989aab37eee4a349917e9c93607fc5c7b07513cf8997ec83e8bf",
                    "stateRoot" : "0x3d741506f272c16e1fcfd7018fb5aa8c101af5968c488015f91d6b623bfeeee2",
                    "timestamp" : "0x03e8",
                    "transactionsTrie" : "0x014562a324bcd50a3be341c4141c9968e29bc3382332517037b21acf0b278349",
                    "uncleHash" : "0x1dcc4de8dec75d7aab85b567b6ccd41ad312451b948a7413f0a142fd40d49347"
                },
                "rlp" : "0xf90265f901f9a0af65948b068aa5f6dd7d6b3d7169356292d1bea4e878f63c3a5e16cd988b02aca01dcc4de8dec75d7aab85b567b6ccd41ad312451b948a7413f0a142fd40d49347942adc25665018aa1fe0e6bc666dac8fc2697ff9baa03d741506f272c16e1fcfd7018fb5aa8c101af5968c488015f91d6b623bfeeee2a0014562a324bcd50a3be341c4141c9968e29bc3382332517037b21acf0b278349a0e2a8b0fa171b989aab37eee4a349917e9c93607fc5c7b07513cf8997ec83e8bfb901000000000000000000000000000000000000000000000000000000000000000000000000000000000000000000000000000000000000000000000000000000000000000000000000000000000000000000000000000000000000000000000000000000000000000000000000000000000000000000000000000000000000000000000000000000000000000000000000000000000000000000000000000000000000000000000000000000000000000000000000000000000000000000000000000000000000000000000000000000000000000000000000000000000000000000000000000000000000000000000000000000000000000000000000000000000083020000018405f5e100830493e08203e880a021d89a7645913128874c2c3f076152c37583cc035e1d8d692af099a5ddb9c3a588e844e61d07a64585f866f8648001830493e094095e7baea6a6c7c4c2dfeb977efac326af552d870184296df0df1ba0740f12159ebaea0e54f0bbec0ac065245b7ccc78414f48704eba19bef21854b8a041b8ec2be1f67d03a58633df898ce0f63b512dd7ed9babf650cc3f315c18864fc0",
                "transactions" : [
                    {
                        "data" : "0x296df0df",
                        "gasLimit" : "0x0493e0",
                        "gasPrice" : "0x01",
                        "nonce" : "0x00",
                        "r" : "0x740f12159ebaea0e54f0bbec0ac065245b7ccc78414f48704eba19bef21854b8",
                        "s" : "0x41b8ec2be1f67d03a58633df898ce0f63b512dd7ed9babf650cc3f315c18864f",
                        "to" : "0x095e7baea6a6c7c4c2dfeb977efac326af552d87",
                        "v" : "0x1b",
                        "value" : "0x01"
                    }
                ],
                "uncleHeaders" : [
                ]
            }
        ],
        "genesisBlockHeader" : {
            "bloom" : "0x00000000000000000000000000000000000000000000000000000000000000000000000000000000000000000000000000000000000000000000000000000000000000000000000000000000000000000000000000000000000000000000000000000000000000000000000000000000000000000000000000000000000000000000000000000000000000000000000000000000000000000000000000000000000000000000000000000000000000000000000000000000000000000000000000000000000000000000000000000000000000000000000000000000000000000000000000000000000000000000000000000000000000000000000000000000",
            "coinbase" : "0x2adc25665018aa1fe0e6bc666dac8fc2697ff9ba",
            "difficulty" : "0x020000",
            "extraData" : "0x42",
            "gasLimit" : "0x05f5e100",
            "gasUsed" : "0x00",
            "hash" : "0xaf65948b068aa5f6dd7d6b3d7169356292d1bea4e878f63c3a5e16cd988b02ac",
            "mixHash" : "0x56e81f171bcc55a6ff8345e692c0f86e5b48e01b996cadc001622fb5e363b421",
            "nonce" : "0x0102030405060708",
            "number" : "0x00",
            "parentHash" : "0x0000000000000000000000000000000000000000000000000000000000000000",
            "receiptTrie" : "0x56e81f171bcc55a6ff8345e692c0f86e5b48e01b996cadc001622fb5e363b421",
            "stateRoot" : "0x24f62c43bb67a849ccdea98bc7d026f2fb7c372da9795a6fee7684477ef26a52",
            "timestamp" : "0x03b6",
            "transactionsTrie" : "0x56e81f171bcc55a6ff8345e692c0f86e5b48e01b996cadc001622fb5e363b421",
            "uncleHash" : "0x1dcc4de8dec75d7aab85b567b6ccd41ad312451b948a7413f0a142fd40d49347"
        },
        "genesisRLP" : "0xf901fbf901f6a00000000000000000000000000000000000000000000000000000000000000000a01dcc4de8dec75d7aab85b567b6ccd41ad312451b948a7413f0a142fd40d49347942adc25665018aa1fe0e6bc666dac8fc2697ff9baa024f62c43bb67a849ccdea98bc7d026f2fb7c372da9795a6fee7684477ef26a52a056e81f171bcc55a6ff8345e692c0f86e5b48e01b996cadc001622fb5e363b421a056e81f171bcc55a6ff8345e692c0f86e5b48e01b996cadc001622fb5e363b421b901000000000000000000000000000000000000000000000000000000000000000000000000000000000000000000000000000000000000000000000000000000000000000000000000000000000000000000000000000000000000000000000000000000000000000000000000000000000000000000000000000000000000000000000000000000000000000000000000000000000000000000000000000000000000000000000000000000000000000000000000000000000000000000000000000000000000000000000000000000000000000000000000000000000000000000000000000000000000000000000000000000000000000000000000000000000083020000808405f5e100808203b642a056e81f171bcc55a6ff8345e692c0f86e5b48e01b996cadc001622fb5e363b421880102030405060708c0c0",
        "lastblockhash" : "0x23efad228e2606fe5f56c697c63ec3c72ff08cf135ced80e8d91e5a996a513f4",
        "network" : "Metropolis",
        "postState" : {
            "0x00000000000000000000000000000000000000f0" : {
                "balance" : "0x00",
                "code" : "",
                "nonce" : "0x00",
                "storage" : {
                }
            },
            "0x095e7baea6a6c7c4c2dfeb977efac326af552d87" : {
                "balance" : "0x0186a0",
                "code" : "0x60003560e060020a90048063296df0df1460295780634893d88a146035578063981a316514604157005b602f604d565b60006000f35b603b6062565b60006000f35b6047605a565b60006000f35b5b600115605857604e565b565b60606062565b565b6068605a565b56",
                "nonce" : "0x00",
                "storage" : {
                }
            },
            "0x2adc25665018aa1fe0e6bc666dac8fc2697ff9ba" : {
                "balance" : "0x4563918244f893e0",
                "code" : "",
                "nonce" : "0x00",
                "storage" : {
                }
            },
            "0xa94f5374fce5edbc8e2a8697c15331677e6ebf0b" : {
                "balance" : "0x030d40",
                "code" : "",
                "nonce" : "0x01",
                "storage" : {
                }
            }
        },
        "pre" : {
            "0x095e7baea6a6c7c4c2dfeb977efac326af552d87" : {
                "balance" : "0x0186a0",
                "code" : "0x60003560e060020a90048063296df0df1460295780634893d88a146035578063981a316514604157005b602f604d565b60006000f35b603b6062565b60006000f35b6047605a565b60006000f35b5b600115605857604e565b565b60606062565b565b6068605a565b56",
                "nonce" : "0x00",
                "storage" : {
                }
            },
            "0xa94f5374fce5edbc8e2a8697c15331677e6ebf0b" : {
                "balance" : "0x07a120",
                "code" : "",
                "nonce" : "0x00",
                "storage" : {
                }
            }
        }
    }
}