{
    "RecursiveCreateContracts_d0g0v0_EIP150" : {
        "blocks" : [
            {
                "blockHeader" : {
                    "bloom" : "00000000000000000000000000000000000000000000000000000000000000000000000000000000000000000000000000000000000000000000000000000000000000000000000000000000000000000000000000000000000000000000000000000000000000000000000000000000000000000000000000000000000000000000000000000000000000000000000000000000000000000000000000000000000000000000000000000000000000000000000000000000000000000000000000000000000000000000000000000000000000000000000000000000000000000000000000000000000000000000000000000000000000000000000000000000",
                    "coinbase" : "2adc25665018aa1fe0e6bc666dac8fc2697ff9ba",
                    "difficulty" : "0x020000",
                    "extraData" : "0x",
                    "gasLimit" : "0x05f46389",
                    "gasUsed" : "0x047c58",
                    "hash" : "817a4d0171f3955ca9961f9fbf119f17a2e2cbc7f9a712289bae1eb2fdd8a706",
                    "mixHash" : "60f7f173aa7c14835b94831f9882db5fb875a4b8c2b57519d6e5d524a13fc810",
                    "nonce" : "587e884d4f081a12",
                    "number" : "0x01",
                    "parentHash" : "c08a36d1ce134122b4b5f45c002b44929430015bf2689e8a96cc9e67839bbd01",
                    "receiptTrie" : "ae8819315a0408deb1c81e76744654aebf07d1b9daf1504cc1f00ae7de791d23",
                    "stateRoot" : "ce41f4a53001e23a0968edd0d03e611516c27cac7d2ed65d98c1a3efd7034f60",
                    "timestamp" : "0x5891f2f4",
                    "transactionsTrie" : "09168f568223560a36885a1da8aa603fe6cab871b8c1dba31eadaece7b9a9418",
                    "uncleHash" : "1dcc4de8dec75d7aab85b567b6ccd41ad312451b948a7413f0a142fd40d49347"
                },
                "rlp" : "0xf90287f901fba0c08a36d1ce134122b4b5f45c002b44929430015bf2689e8a96cc9e67839bbd01a01dcc4de8dec75d7aab85b567b6ccd41ad312451b948a7413f0a142fd40d49347942adc25665018aa1fe0e6bc666dac8fc2697ff9baa0ce41f4a53001e23a0968edd0d03e611516c27cac7d2ed65d98c1a3efd7034f60a009168f568223560a36885a1da8aa603fe6cab871b8c1dba31eadaece7b9a9418a0ae8819315a0408deb1c81e76744654aebf07d1b9daf1504cc1f00ae7de791d23b901000000000000000000000000000000000000000000000000000000000000000000000000000000000000000000000000000000000000000000000000000000000000000000000000000000000000000000000000000000000000000000000000000000000000000000000000000000000000000000000000000000000000000000000000000000000000000000000000000000000000000000000000000000000000000000000000000000000000000000000000000000000000000000000000000000000000000000000000000000000000000000000000000000000000000000000000000000000000000000000000000000000000000000000000000000000083020000018405f4638983047c58845891f2f480a060f7f173aa7c14835b94831f9882db5fb875a4b8c2b57519d6e5d524a13fc81088587e884d4f081a12f886f8848001830493e094095e7baea6a6c7c4c2dfeb977efac326af552d8701a4a444f5e900000000000000000000000000000000000000000000000000000000000003041ba0cc395a2eb3f6629fc35549372a9d25b6e0f9eda0b60387f5a0363d7640c53959a00dbc94a096632bf57ebd82fe0c0c40f10b66aa043ab8cc2de8d057afb78311efc0",
                "transactions" : [
                    {
                        "data" : "0xa444f5e90000000000000000000000000000000000000000000000000000000000000304",
                        "gasLimit" : "0x0493e0",
                        "gasPrice" : "0x01",
                        "nonce" : "0x00",
                        "r" : "0xcc395a2eb3f6629fc35549372a9d25b6e0f9eda0b60387f5a0363d7640c53959",
                        "s" : "0x0dbc94a096632bf57ebd82fe0c0c40f10b66aa043ab8cc2de8d057afb78311ef",
                        "to" : "095e7baea6a6c7c4c2dfeb977efac326af552d87",
                        "v" : "0x1b",
                        "value" : "0x01"
                    }
                ],
                "uncleHeaders" : [
                ]
            }
        ],
        "genesisBlockHeader" : {
            "bloom" : "00000000000000000000000000000000000000000000000000000000000000000000000000000000000000000000000000000000000000000000000000000000000000000000000000000000000000000000000000000000000000000000000000000000000000000000000000000000000000000000000000000000000000000000000000000000000000000000000000000000000000000000000000000000000000000000000000000000000000000000000000000000000000000000000000000000000000000000000000000000000000000000000000000000000000000000000000000000000000000000000000000000000000000000000000000000",
            "coinbase" : "2adc25665018aa1fe0e6bc666dac8fc2697ff9ba",
            "difficulty" : "0x020000",
            "extraData" : "0x42",
            "gasLimit" : "0x05f5e100",
            "gasUsed" : "0x00",
            "hash" : "c08a36d1ce134122b4b5f45c002b44929430015bf2689e8a96cc9e67839bbd01",
            "mixHash" : "56e81f171bcc55a6ff8345e692c0f86e5b48e01b996cadc001622fb5e363b421",
            "nonce" : "0102030405060708",
            "number" : "0x00",
            "parentHash" : "0000000000000000000000000000000000000000000000000000000000000000",
            "receiptTrie" : "56e81f171bcc55a6ff8345e692c0f86e5b48e01b996cadc001622fb5e363b421",
            "stateRoot" : "587907fda5c07b4613ce792d46abe052f89f3ce6ea907d38ecace44b0cc3f7be",
            "timestamp" : "0x54c98c81",
            "transactionsTrie" : "56e81f171bcc55a6ff8345e692c0f86e5b48e01b996cadc001622fb5e363b421",
            "uncleHash" : "1dcc4de8dec75d7aab85b567b6ccd41ad312451b948a7413f0a142fd40d49347"
        },
        "genesisRLP" : "0xf901fdf901f8a00000000000000000000000000000000000000000000000000000000000000000a01dcc4de8dec75d7aab85b567b6ccd41ad312451b948a7413f0a142fd40d49347942adc25665018aa1fe0e6bc666dac8fc2697ff9baa0587907fda5c07b4613ce792d46abe052f89f3ce6ea907d38ecace44b0cc3f7bea056e81f171bcc55a6ff8345e692c0f86e5b48e01b996cadc001622fb5e363b421a056e81f171bcc55a6ff8345e692c0f86e5b48e01b996cadc001622fb5e363b421b901000000000000000000000000000000000000000000000000000000000000000000000000000000000000000000000000000000000000000000000000000000000000000000000000000000000000000000000000000000000000000000000000000000000000000000000000000000000000000000000000000000000000000000000000000000000000000000000000000000000000000000000000000000000000000000000000000000000000000000000000000000000000000000000000000000000000000000000000000000000000000000000000000000000000000000000000000000000000000000000000000000000000000000000000000000000083020000808405f5e100808454c98c8142a056e81f171bcc55a6ff8345e692c0f86e5b48e01b996cadc001622fb5e363b421880102030405060708c0c0",
        "lastblockhash" : "817a4d0171f3955ca9961f9fbf119f17a2e2cbc7f9a712289bae1eb2fdd8a706",
        "network" : "EIP150",
        "postState" : {
            "095e7baea6a6c7c4c2dfeb977efac326af552d87" : {
                "balance" : "0x314dc6448d9338c15b0a00000001",
                "code" : "0x60003560e060020a90048063820b13f614610021578063a444f5e91461003257005b61002c600435610093565b60006000f35b61003d600435610043565b60006000f35b600073095e7baea6a6c7c4c2dfeb977efac326af552d8760008190555081600181905550606b6101ad600039606b600054600160a060020a0316815260200182815260200160006000f090505050565b600060c86100e560003960c8600054600160a060020a0316815260200182815260200160006000f0905080600160a060020a0316600060026000600060006000848787f16100dd57005b50505050505600604060c860043960045160245160006001820391508160008190555060008211602657604c565b606b605d600039606b83600160a060020a0316815260200182815260200160006000f090505b505050600180605c6000396000f300006040606b6004396004516024516001810390508060008190555060008111602457605b565b81600160a060020a031663820b13f6600060008260e060020a026000526004858152602001600060008660325a03f1605857005b50505b5050600180606a6000396000f300006040606b6004396004516024516001810390508060008190555060008111602457605b565b81600160a060020a031663820b13f6600060008260e060020a026000526004858152602001600060008660325a03f1605857005b50505b5050600180606a6000396000f30000",
                "nonce" : "0x01",
                "storage" : {
                    "0x00" : "0x095e7baea6a6c7c4c2dfeb977efac326af552d87",
                    "0x01" : "0x0304"
                }
            },
            "2adc25665018aa1fe0e6bc666dac8fc2697ff9ba" : {
                "balance" : "0x4563918244f87c58",
                "code" : "0x",
                "nonce" : "0x00",
                "storage" : {
                }
            },
            "a94f5374fce5edbc8e2a8697c15331677e6ebf0b" : {
                "balance" : "0x47cee7",
                "code" : "0x",
                "nonce" : "0x01",
                "storage" : {
                }
            },
            "d2571607e241ecf590ed94b12d87c94babe36db6" : {
                "balance" : "0x00",
                "code" : "0x",
                "nonce" : "0x00",
                "storage" : {
                    "0x00" : "0x0303"
                }
            }
        },
        "pre" : {
            "095e7baea6a6c7c4c2dfeb977efac326af552d87" : {
                "balance" : "0x314dc6448d9338c15b0a00000000",
                "code" : "0x60003560e060020a90048063820b13f614610021578063a444f5e91461003257005b61002c600435610093565b60006000f35b61003d600435610043565b60006000f35b600073095e7baea6a6c7c4c2dfeb977efac326af552d8760008190555081600181905550606b6101ad600039606b600054600160a060020a0316815260200182815260200160006000f090505050565b600060c86100e560003960c8600054600160a060020a0316815260200182815260200160006000f0905080600160a060020a0316600060026000600060006000848787f16100dd57005b50505050505600604060c860043960045160245160006001820391508160008190555060008211602657604c565b606b605d600039606b83600160a060020a0316815260200182815260200160006000f090505b505050600180605c6000396000f300006040606b6004396004516024516001810390508060008190555060008111602457605b565b81600160a060020a031663820b13f6600060008260e060020a026000526004858152602001600060008660325a03f1605857005b50505b5050600180606a6000396000f300006040606b6004396004516024516001810390508060008190555060008111602457605b565b81600160a060020a031663820b13f6600060008260e060020a026000526004858152602001600060008660325a03f1605857005b50505b5050600180606a6000396000f30000",
                "nonce" : "0x00",
                "storage" : {
                }
            },
            "a94f5374fce5edbc8e2a8697c15331677e6ebf0b" : {
                "balance" : "0x4c4b40",
                "code" : "0x",
                "nonce" : "0x00",
                "storage" : {
                }
            }
        }
    },
    "RecursiveCreateContracts_d0g0v0_EIP158" : {
        "blocks" : [
            {
                "blockHeader" : {
                    "bloom" : "00000000000000000000000000000000000000000000000000000000000000000000000000000000000000000000000000000000000000000000000000000000000000000000000000000000000000000000000000000000000000000000000000000000000000000000000000000000000000000000000000000000000000000000000000000000000000000000000000000000000000000000000000000000000000000000000000000000000000000000000000000000000000000000000000000000000000000000000000000000000000000000000000000000000000000000000000000000000000000000000000000000000000000000000000000000",
                    "coinbase" : "2adc25665018aa1fe0e6bc666dac8fc2697ff9ba",
                    "difficulty" : "0x020000",
                    "extraData" : "0x",
                    "gasLimit" : "0x05f46389",
                    "gasUsed" : "0x047c5d",
                    "hash" : "7c128a0c3f47f4eaa6944077f2432d25f67d476b4cc2a5527945f1ab37911ec9",
                    "mixHash" : "d669da81e16a8b5be285949cf310cc36f550cb1c6eb7970e349dcdd9088e795e",
                    "nonce" : "6b3462ab5c616211",
                    "number" : "0x01",
                    "parentHash" : "c08a36d1ce134122b4b5f45c002b44929430015bf2689e8a96cc9e67839bbd01",
                    "receiptTrie" : "651180a2abcbccd94bc2ca4832e93fe5f345743f7bb5651738604ab3f7f673ec",
                    "stateRoot" : "3546d4876f62e59491dbfc39e8c6b7e4bd701e91fbf70f71ceebb96b59314fd8",
                    "timestamp" : "0x5891f2f5",
                    "transactionsTrie" : "09168f568223560a36885a1da8aa603fe6cab871b8c1dba31eadaece7b9a9418",
                    "uncleHash" : "1dcc4de8dec75d7aab85b567b6ccd41ad312451b948a7413f0a142fd40d49347"
                },
                "rlp" : "0xf90287f901fba0c08a36d1ce134122b4b5f45c002b44929430015bf2689e8a96cc9e67839bbd01a01dcc4de8dec75d7aab85b567b6ccd41ad312451b948a7413f0a142fd40d49347942adc25665018aa1fe0e6bc666dac8fc2697ff9baa03546d4876f62e59491dbfc39e8c6b7e4bd701e91fbf70f71ceebb96b59314fd8a009168f568223560a36885a1da8aa603fe6cab871b8c1dba31eadaece7b9a9418a0651180a2abcbccd94bc2ca4832e93fe5f345743f7bb5651738604ab3f7f673ecb901000000000000000000000000000000000000000000000000000000000000000000000000000000000000000000000000000000000000000000000000000000000000000000000000000000000000000000000000000000000000000000000000000000000000000000000000000000000000000000000000000000000000000000000000000000000000000000000000000000000000000000000000000000000000000000000000000000000000000000000000000000000000000000000000000000000000000000000000000000000000000000000000000000000000000000000000000000000000000000000000000000000000000000000000000000000083020000018405f4638983047c5d845891f2f580a0d669da81e16a8b5be285949cf310cc36f550cb1c6eb7970e349dcdd9088e795e886b3462ab5c616211f886f8848001830493e094095e7baea6a6c7c4c2dfeb977efac326af552d8701a4a444f5e900000000000000000000000000000000000000000000000000000000000003041ba0cc395a2eb3f6629fc35549372a9d25b6e0f9eda0b60387f5a0363d7640c53959a00dbc94a096632bf57ebd82fe0c0c40f10b66aa043ab8cc2de8d057afb78311efc0",
                "transactions" : [
                    {
                        "data" : "0xa444f5e90000000000000000000000000000000000000000000000000000000000000304",
                        "gasLimit" : "0x0493e0",
                        "gasPrice" : "0x01",
                        "nonce" : "0x00",
                        "r" : "0xcc395a2eb3f6629fc35549372a9d25b6e0f9eda0b60387f5a0363d7640c53959",
                        "s" : "0x0dbc94a096632bf57ebd82fe0c0c40f10b66aa043ab8cc2de8d057afb78311ef",
                        "to" : "095e7baea6a6c7c4c2dfeb977efac326af552d87",
                        "v" : "0x1b",
                        "value" : "0x01"
                    }
                ],
                "uncleHeaders" : [
                ]
            }
        ],
        "genesisBlockHeader" : {
            "bloom" : "00000000000000000000000000000000000000000000000000000000000000000000000000000000000000000000000000000000000000000000000000000000000000000000000000000000000000000000000000000000000000000000000000000000000000000000000000000000000000000000000000000000000000000000000000000000000000000000000000000000000000000000000000000000000000000000000000000000000000000000000000000000000000000000000000000000000000000000000000000000000000000000000000000000000000000000000000000000000000000000000000000000000000000000000000000000",
            "coinbase" : "2adc25665018aa1fe0e6bc666dac8fc2697ff9ba",
            "difficulty" : "0x020000",
            "extraData" : "0x42",
            "gasLimit" : "0x05f5e100",
            "gasUsed" : "0x00",
            "hash" : "c08a36d1ce134122b4b5f45c002b44929430015bf2689e8a96cc9e67839bbd01",
            "mixHash" : "56e81f171bcc55a6ff8345e692c0f86e5b48e01b996cadc001622fb5e363b421",
            "nonce" : "0102030405060708",
            "number" : "0x00",
            "parentHash" : "0000000000000000000000000000000000000000000000000000000000000000",
            "receiptTrie" : "56e81f171bcc55a6ff8345e692c0f86e5b48e01b996cadc001622fb5e363b421",
            "stateRoot" : "587907fda5c07b4613ce792d46abe052f89f3ce6ea907d38ecace44b0cc3f7be",
            "timestamp" : "0x54c98c81",
            "transactionsTrie" : "56e81f171bcc55a6ff8345e692c0f86e5b48e01b996cadc001622fb5e363b421",
            "uncleHash" : "1dcc4de8dec75d7aab85b567b6ccd41ad312451b948a7413f0a142fd40d49347"
        },
        "genesisRLP" : "0xf901fdf901f8a00000000000000000000000000000000000000000000000000000000000000000a01dcc4de8dec75d7aab85b567b6ccd41ad312451b948a7413f0a142fd40d49347942adc25665018aa1fe0e6bc666dac8fc2697ff9baa0587907fda5c07b4613ce792d46abe052f89f3ce6ea907d38ecace44b0cc3f7bea056e81f171bcc55a6ff8345e692c0f86e5b48e01b996cadc001622fb5e363b421a056e81f171bcc55a6ff8345e692c0f86e5b48e01b996cadc001622fb5e363b421b901000000000000000000000000000000000000000000000000000000000000000000000000000000000000000000000000000000000000000000000000000000000000000000000000000000000000000000000000000000000000000000000000000000000000000000000000000000000000000000000000000000000000000000000000000000000000000000000000000000000000000000000000000000000000000000000000000000000000000000000000000000000000000000000000000000000000000000000000000000000000000000000000000000000000000000000000000000000000000000000000000000000000000000000000000000000083020000808405f5e100808454c98c8142a056e81f171bcc55a6ff8345e692c0f86e5b48e01b996cadc001622fb5e363b421880102030405060708c0c0",
        "lastblockhash" : "7c128a0c3f47f4eaa6944077f2432d25f67d476b4cc2a5527945f1ab37911ec9",
        "network" : "EIP158",
        "postState" : {
            "095e7baea6a6c7c4c2dfeb977efac326af552d87" : {
                "balance" : "0x314dc6448d9338c15b0a00000001",
                "code" : "0x60003560e060020a90048063820b13f614610021578063a444f5e91461003257005b61002c600435610093565b60006000f35b61003d600435610043565b60006000f35b600073095e7baea6a6c7c4c2dfeb977efac326af552d8760008190555081600181905550606b6101ad600039606b600054600160a060020a0316815260200182815260200160006000f090505050565b600060c86100e560003960c8600054600160a060020a0316815260200182815260200160006000f0905080600160a060020a0316600060026000600060006000848787f16100dd57005b50505050505600604060c860043960045160245160006001820391508160008190555060008211602657604c565b606b605d600039606b83600160a060020a0316815260200182815260200160006000f090505b505050600180605c6000396000f300006040606b6004396004516024516001810390508060008190555060008111602457605b565b81600160a060020a031663820b13f6600060008260e060020a026000526004858152602001600060008660325a03f1605857005b50505b5050600180606a6000396000f300006040606b6004396004516024516001810390508060008190555060008111602457605b565b81600160a060020a031663820b13f6600060008260e060020a026000526004858152602001600060008660325a03f1605857005b50505b5050600180606a6000396000f30000",
                "nonce" : "0x01",
                "storage" : {
                    "0x00" : "0x095e7baea6a6c7c4c2dfeb977efac326af552d87",
                    "0x01" : "0x0304"
                }
            },
            "2adc25665018aa1fe0e6bc666dac8fc2697ff9ba" : {
                "balance" : "0x4563918244f87c5d",
                "code" : "0x",
                "nonce" : "0x00",
                "storage" : {
                }
            },
            "a94f5374fce5edbc8e2a8697c15331677e6ebf0b" : {
                "balance" : "0x47cee2",
                "code" : "0x",
                "nonce" : "0x01",
                "storage" : {
                }
            },
            "d2571607e241ecf590ed94b12d87c94babe36db6" : {
                "balance" : "0x00",
                "code" : "0x",
                "nonce" : "0x01",
                "storage" : {
                    "0x00" : "0x0303"
                }
            }
        },
        "pre" : {
            "095e7baea6a6c7c4c2dfeb977efac326af552d87" : {
                "balance" : "0x314dc6448d9338c15b0a00000000",
                "code" : "0x60003560e060020a90048063820b13f614610021578063a444f5e91461003257005b61002c600435610093565b60006000f35b61003d600435610043565b60006000f35b600073095e7baea6a6c7c4c2dfeb977efac326af552d8760008190555081600181905550606b6101ad600039606b600054600160a060020a0316815260200182815260200160006000f090505050565b600060c86100e560003960c8600054600160a060020a0316815260200182815260200160006000f0905080600160a060020a0316600060026000600060006000848787f16100dd57005b50505050505600604060c860043960045160245160006001820391508160008190555060008211602657604c565b606b605d600039606b83600160a060020a0316815260200182815260200160006000f090505b505050600180605c6000396000f300006040606b6004396004516024516001810390508060008190555060008111602457605b565b81600160a060020a031663820b13f6600060008260e060020a026000526004858152602001600060008660325a03f1605857005b50505b5050600180606a6000396000f300006040606b6004396004516024516001810390508060008190555060008111602457605b565b81600160a060020a031663820b13f6600060008260e060020a026000526004858152602001600060008660325a03f1605857005b50505b5050600180606a6000396000f30000",
                "nonce" : "0x00",
                "storage" : {
                }
            },
            "a94f5374fce5edbc8e2a8697c15331677e6ebf0b" : {
                "balance" : "0x4c4b40",
                "code" : "0x",
                "nonce" : "0x00",
                "storage" : {
                }
            }
        }
    },
    "RecursiveCreateContracts_d0g0v0_Frontier" : {
        "blocks" : [
            {
                "blockHeader" : {
                    "bloom" : "00000000000000000000000000000000000000000000000000000000000000000000000000000000000000000000000000000000000000000000000000000000000000000000000000000000000000000000000000000000000000000000000000000000000000000000000000000000000000000000000000000000000000000000000000000000000000000000000000000000000000000000000000000000000000000000000000000000000000000000000000000000000000000000000000000000000000000000000000000000000000000000000000000000000000000000000000000000000000000000000000000000000000000000000000000000",
                    "coinbase" : "2adc25665018aa1fe0e6bc666dac8fc2697ff9ba",
                    "difficulty" : "0x020000",
                    "extraData" : "0x",
                    "gasLimit" : "0x05f46389",
                    "gasUsed" : "0x0493e0",
                    "hash" : "2e3b73f432eb8e92344a0ffbac66df01a554790f5765576989cea04609a48796",
                    "mixHash" : "9aefbdada76e8ebd6e774c089177faf6cbbcaf4056edb2f5b4a0947dd596d837",
                    "nonce" : "8e41dbf4d6dfec4c",
                    "number" : "0x01",
                    "parentHash" : "c08a36d1ce134122b4b5f45c002b44929430015bf2689e8a96cc9e67839bbd01",
                    "receiptTrie" : "c96f46ae5171956c17db844da58e7c0ad25fd0ae9abb83d66f51f85b1eb1face",
                    "stateRoot" : "f9aecc69c36cec40866b0f988875bec11f59343ba2f763fd875be53fa9c470ca",
                    "timestamp" : "0x5891f2f7",
                    "transactionsTrie" : "09168f568223560a36885a1da8aa603fe6cab871b8c1dba31eadaece7b9a9418",
                    "uncleHash" : "1dcc4de8dec75d7aab85b567b6ccd41ad312451b948a7413f0a142fd40d49347"
                },
                "rlp" : "0xf90287f901fba0c08a36d1ce134122b4b5f45c002b44929430015bf2689e8a96cc9e67839bbd01a01dcc4de8dec75d7aab85b567b6ccd41ad312451b948a7413f0a142fd40d49347942adc25665018aa1fe0e6bc666dac8fc2697ff9baa0f9aecc69c36cec40866b0f988875bec11f59343ba2f763fd875be53fa9c470caa009168f568223560a36885a1da8aa603fe6cab871b8c1dba31eadaece7b9a9418a0c96f46ae5171956c17db844da58e7c0ad25fd0ae9abb83d66f51f85b1eb1faceb901000000000000000000000000000000000000000000000000000000000000000000000000000000000000000000000000000000000000000000000000000000000000000000000000000000000000000000000000000000000000000000000000000000000000000000000000000000000000000000000000000000000000000000000000000000000000000000000000000000000000000000000000000000000000000000000000000000000000000000000000000000000000000000000000000000000000000000000000000000000000000000000000000000000000000000000000000000000000000000000000000000000000000000000000000000000083020000018405f46389830493e0845891f2f780a09aefbdada76e8ebd6e774c089177faf6cbbcaf4056edb2f5b4a0947dd596d837888e41dbf4d6dfec4cf886f8848001830493e094095e7baea6a6c7c4c2dfeb977efac326af552d8701a4a444f5e900000000000000000000000000000000000000000000000000000000000003041ba0cc395a2eb3f6629fc35549372a9d25b6e0f9eda0b60387f5a0363d7640c53959a00dbc94a096632bf57ebd82fe0c0c40f10b66aa043ab8cc2de8d057afb78311efc0",
                "transactions" : [
                    {
                        "data" : "0xa444f5e90000000000000000000000000000000000000000000000000000000000000304",
                        "gasLimit" : "0x0493e0",
                        "gasPrice" : "0x01",
                        "nonce" : "0x00",
                        "r" : "0xcc395a2eb3f6629fc35549372a9d25b6e0f9eda0b60387f5a0363d7640c53959",
                        "s" : "0x0dbc94a096632bf57ebd82fe0c0c40f10b66aa043ab8cc2de8d057afb78311ef",
                        "to" : "095e7baea6a6c7c4c2dfeb977efac326af552d87",
                        "v" : "0x1b",
                        "value" : "0x01"
                    }
                ],
                "uncleHeaders" : [
                ]
            }
        ],
        "genesisBlockHeader" : {
            "bloom" : "00000000000000000000000000000000000000000000000000000000000000000000000000000000000000000000000000000000000000000000000000000000000000000000000000000000000000000000000000000000000000000000000000000000000000000000000000000000000000000000000000000000000000000000000000000000000000000000000000000000000000000000000000000000000000000000000000000000000000000000000000000000000000000000000000000000000000000000000000000000000000000000000000000000000000000000000000000000000000000000000000000000000000000000000000000000",
            "coinbase" : "2adc25665018aa1fe0e6bc666dac8fc2697ff9ba",
            "difficulty" : "0x020000",
            "extraData" : "0x42",
            "gasLimit" : "0x05f5e100",
            "gasUsed" : "0x00",
            "hash" : "c08a36d1ce134122b4b5f45c002b44929430015bf2689e8a96cc9e67839bbd01",
            "mixHash" : "56e81f171bcc55a6ff8345e692c0f86e5b48e01b996cadc001622fb5e363b421",
            "nonce" : "0102030405060708",
            "number" : "0x00",
            "parentHash" : "0000000000000000000000000000000000000000000000000000000000000000",
            "receiptTrie" : "56e81f171bcc55a6ff8345e692c0f86e5b48e01b996cadc001622fb5e363b421",
            "stateRoot" : "587907fda5c07b4613ce792d46abe052f89f3ce6ea907d38ecace44b0cc3f7be",
            "timestamp" : "0x54c98c81",
            "transactionsTrie" : "56e81f171bcc55a6ff8345e692c0f86e5b48e01b996cadc001622fb5e363b421",
            "uncleHash" : "1dcc4de8dec75d7aab85b567b6ccd41ad312451b948a7413f0a142fd40d49347"
        },
        "genesisRLP" : "0xf901fdf901f8a00000000000000000000000000000000000000000000000000000000000000000a01dcc4de8dec75d7aab85b567b6ccd41ad312451b948a7413f0a142fd40d49347942adc25665018aa1fe0e6bc666dac8fc2697ff9baa0587907fda5c07b4613ce792d46abe052f89f3ce6ea907d38ecace44b0cc3f7bea056e81f171bcc55a6ff8345e692c0f86e5b48e01b996cadc001622fb5e363b421a056e81f171bcc55a6ff8345e692c0f86e5b48e01b996cadc001622fb5e363b421b901000000000000000000000000000000000000000000000000000000000000000000000000000000000000000000000000000000000000000000000000000000000000000000000000000000000000000000000000000000000000000000000000000000000000000000000000000000000000000000000000000000000000000000000000000000000000000000000000000000000000000000000000000000000000000000000000000000000000000000000000000000000000000000000000000000000000000000000000000000000000000000000000000000000000000000000000000000000000000000000000000000000000000000000000000000000083020000808405f5e100808454c98c8142a056e81f171bcc55a6ff8345e692c0f86e5b48e01b996cadc001622fb5e363b421880102030405060708c0c0",
        "lastblockhash" : "2e3b73f432eb8e92344a0ffbac66df01a554790f5765576989cea04609a48796",
        "network" : "Frontier",
        "postState" : {
            "095e7baea6a6c7c4c2dfeb977efac326af552d87" : {
                "balance" : "0x314dc6448d9338c15b0a00000000",
                "code" : "0x60003560e060020a90048063820b13f614610021578063a444f5e91461003257005b61002c600435610093565b60006000f35b61003d600435610043565b60006000f35b600073095e7baea6a6c7c4c2dfeb977efac326af552d8760008190555081600181905550606b6101ad600039606b600054600160a060020a0316815260200182815260200160006000f090505050565b600060c86100e560003960c8600054600160a060020a0316815260200182815260200160006000f0905080600160a060020a0316600060026000600060006000848787f16100dd57005b50505050505600604060c860043960045160245160006001820391508160008190555060008211602657604c565b606b605d600039606b83600160a060020a0316815260200182815260200160006000f090505b505050600180605c6000396000f300006040606b6004396004516024516001810390508060008190555060008111602457605b565b81600160a060020a031663820b13f6600060008260e060020a026000526004858152602001600060008660325a03f1605857005b50505b5050600180606a6000396000f300006040606b6004396004516024516001810390508060008190555060008111602457605b565b81600160a060020a031663820b13f6600060008260e060020a026000526004858152602001600060008660325a03f1605857005b50505b5050600180606a6000396000f30000",
                "nonce" : "0x00",
                "storage" : {
                }
            },
            "2adc25665018aa1fe0e6bc666dac8fc2697ff9ba" : {
                "balance" : "0x4563918244f893e0",
                "code" : "0x",
                "nonce" : "0x00",
                "storage" : {
                }
            },
            "a94f5374fce5edbc8e2a8697c15331677e6ebf0b" : {
                "balance" : "0x47b760",
                "code" : "0x",
                "nonce" : "0x01",
                "storage" : {
                }
            }
        },
        "pre" : {
            "095e7baea6a6c7c4c2dfeb977efac326af552d87" : {
                "balance" : "0x314dc6448d9338c15b0a00000000",
                "code" : "0x60003560e060020a90048063820b13f614610021578063a444f5e91461003257005b61002c600435610093565b60006000f35b61003d600435610043565b60006000f35b600073095e7baea6a6c7c4c2dfeb977efac326af552d8760008190555081600181905550606b6101ad600039606b600054600160a060020a0316815260200182815260200160006000f090505050565b600060c86100e560003960c8600054600160a060020a0316815260200182815260200160006000f0905080600160a060020a0316600060026000600060006000848787f16100dd57005b50505050505600604060c860043960045160245160006001820391508160008190555060008211602657604c565b606b605d600039606b83600160a060020a0316815260200182815260200160006000f090505b505050600180605c6000396000f300006040606b6004396004516024516001810390508060008190555060008111602457605b565b81600160a060020a031663820b13f6600060008260e060020a026000526004858152602001600060008660325a03f1605857005b50505b5050600180606a6000396000f300006040606b6004396004516024516001810390508060008190555060008111602457605b565b81600160a060020a031663820b13f6600060008260e060020a026000526004858152602001600060008660325a03f1605857005b50505b5050600180606a6000396000f30000",
                "nonce" : "0x00",
                "storage" : {
                }
            },
            "a94f5374fce5edbc8e2a8697c15331677e6ebf0b" : {
                "balance" : "0x4c4b40",
                "code" : "0x",
                "nonce" : "0x00",
                "storage" : {
                }
            }
        }
    },
    "RecursiveCreateContracts_d0g0v0_Homestead" : {
        "blocks" : [
            {
                "blockHeader" : {
                    "bloom" : "00000000000000000000000000000000000000000000000000000000000000000000000000000000000000000000000000000000000000000000000000000000000000000000000000000000000000000000000000000000000000000000000000000000000000000000000000000000000000000000000000000000000000000000000000000000000000000000000000000000000000000000000000000000000000000000000000000000000000000000000000000000000000000000000000000000000000000000000000000000000000000000000000000000000000000000000000000000000000000000000000000000000000000000000000000000",
                    "coinbase" : "2adc25665018aa1fe0e6bc666dac8fc2697ff9ba",
                    "difficulty" : "0x020000",
                    "extraData" : "0x",
                    "gasLimit" : "0x05f46389",
                    "gasUsed" : "0x0493e0",
                    "hash" : "834b22246d7ecbf8cc89f1b607ac1dce959ad0c5d4e19e14bba0b6f19174336c",
                    "mixHash" : "77979cf658d5981aecb71a369d7222054176046868f17677bb40591fda0dad50",
                    "nonce" : "4a8f77d0458cea5b",
                    "number" : "0x01",
                    "parentHash" : "c08a36d1ce134122b4b5f45c002b44929430015bf2689e8a96cc9e67839bbd01",
                    "receiptTrie" : "c96f46ae5171956c17db844da58e7c0ad25fd0ae9abb83d66f51f85b1eb1face",
                    "stateRoot" : "f9aecc69c36cec40866b0f988875bec11f59343ba2f763fd875be53fa9c470ca",
                    "timestamp" : "0x5891f2f9",
                    "transactionsTrie" : "09168f568223560a36885a1da8aa603fe6cab871b8c1dba31eadaece7b9a9418",
                    "uncleHash" : "1dcc4de8dec75d7aab85b567b6ccd41ad312451b948a7413f0a142fd40d49347"
                },
                "rlp" : "0xf90287f901fba0c08a36d1ce134122b4b5f45c002b44929430015bf2689e8a96cc9e67839bbd01a01dcc4de8dec75d7aab85b567b6ccd41ad312451b948a7413f0a142fd40d49347942adc25665018aa1fe0e6bc666dac8fc2697ff9baa0f9aecc69c36cec40866b0f988875bec11f59343ba2f763fd875be53fa9c470caa009168f568223560a36885a1da8aa603fe6cab871b8c1dba31eadaece7b9a9418a0c96f46ae5171956c17db844da58e7c0ad25fd0ae9abb83d66f51f85b1eb1faceb901000000000000000000000000000000000000000000000000000000000000000000000000000000000000000000000000000000000000000000000000000000000000000000000000000000000000000000000000000000000000000000000000000000000000000000000000000000000000000000000000000000000000000000000000000000000000000000000000000000000000000000000000000000000000000000000000000000000000000000000000000000000000000000000000000000000000000000000000000000000000000000000000000000000000000000000000000000000000000000000000000000000000000000000000000000000083020000018405f46389830493e0845891f2f980a077979cf658d5981aecb71a369d7222054176046868f17677bb40591fda0dad50884a8f77d0458cea5bf886f8848001830493e094095e7baea6a6c7c4c2dfeb977efac326af552d8701a4a444f5e900000000000000000000000000000000000000000000000000000000000003041ba0cc395a2eb3f6629fc35549372a9d25b6e0f9eda0b60387f5a0363d7640c53959a00dbc94a096632bf57ebd82fe0c0c40f10b66aa043ab8cc2de8d057afb78311efc0",
                "transactions" : [
                    {
                        "data" : "0xa444f5e90000000000000000000000000000000000000000000000000000000000000304",
                        "gasLimit" : "0x0493e0",
                        "gasPrice" : "0x01",
                        "nonce" : "0x00",
                        "r" : "0xcc395a2eb3f6629fc35549372a9d25b6e0f9eda0b60387f5a0363d7640c53959",
                        "s" : "0x0dbc94a096632bf57ebd82fe0c0c40f10b66aa043ab8cc2de8d057afb78311ef",
                        "to" : "095e7baea6a6c7c4c2dfeb977efac326af552d87",
                        "v" : "0x1b",
                        "value" : "0x01"
                    }
                ],
                "uncleHeaders" : [
                ]
            }
        ],
        "genesisBlockHeader" : {
            "bloom" : "00000000000000000000000000000000000000000000000000000000000000000000000000000000000000000000000000000000000000000000000000000000000000000000000000000000000000000000000000000000000000000000000000000000000000000000000000000000000000000000000000000000000000000000000000000000000000000000000000000000000000000000000000000000000000000000000000000000000000000000000000000000000000000000000000000000000000000000000000000000000000000000000000000000000000000000000000000000000000000000000000000000000000000000000000000000",
            "coinbase" : "2adc25665018aa1fe0e6bc666dac8fc2697ff9ba",
            "difficulty" : "0x020000",
            "extraData" : "0x42",
            "gasLimit" : "0x05f5e100",
            "gasUsed" : "0x00",
            "hash" : "c08a36d1ce134122b4b5f45c002b44929430015bf2689e8a96cc9e67839bbd01",
            "mixHash" : "56e81f171bcc55a6ff8345e692c0f86e5b48e01b996cadc001622fb5e363b421",
            "nonce" : "0102030405060708",
            "number" : "0x00",
            "parentHash" : "0000000000000000000000000000000000000000000000000000000000000000",
            "receiptTrie" : "56e81f171bcc55a6ff8345e692c0f86e5b48e01b996cadc001622fb5e363b421",
            "stateRoot" : "587907fda5c07b4613ce792d46abe052f89f3ce6ea907d38ecace44b0cc3f7be",
            "timestamp" : "0x54c98c81",
            "transactionsTrie" : "56e81f171bcc55a6ff8345e692c0f86e5b48e01b996cadc001622fb5e363b421",
            "uncleHash" : "1dcc4de8dec75d7aab85b567b6ccd41ad312451b948a7413f0a142fd40d49347"
        },
        "genesisRLP" : "0xf901fdf901f8a00000000000000000000000000000000000000000000000000000000000000000a01dcc4de8dec75d7aab85b567b6ccd41ad312451b948a7413f0a142fd40d49347942adc25665018aa1fe0e6bc666dac8fc2697ff9baa0587907fda5c07b4613ce792d46abe052f89f3ce6ea907d38ecace44b0cc3f7bea056e81f171bcc55a6ff8345e692c0f86e5b48e01b996cadc001622fb5e363b421a056e81f171bcc55a6ff8345e692c0f86e5b48e01b996cadc001622fb5e363b421b901000000000000000000000000000000000000000000000000000000000000000000000000000000000000000000000000000000000000000000000000000000000000000000000000000000000000000000000000000000000000000000000000000000000000000000000000000000000000000000000000000000000000000000000000000000000000000000000000000000000000000000000000000000000000000000000000000000000000000000000000000000000000000000000000000000000000000000000000000000000000000000000000000000000000000000000000000000000000000000000000000000000000000000000000000000000083020000808405f5e100808454c98c8142a056e81f171bcc55a6ff8345e692c0f86e5b48e01b996cadc001622fb5e363b421880102030405060708c0c0",
        "lastblockhash" : "834b22246d7ecbf8cc89f1b607ac1dce959ad0c5d4e19e14bba0b6f19174336c",
        "network" : "Homestead",
        "postState" : {
            "095e7baea6a6c7c4c2dfeb977efac326af552d87" : {
                "balance" : "0x314dc6448d9338c15b0a00000000",
                "code" : "0x60003560e060020a90048063820b13f614610021578063a444f5e91461003257005b61002c600435610093565b60006000f35b61003d600435610043565b60006000f35b600073095e7baea6a6c7c4c2dfeb977efac326af552d8760008190555081600181905550606b6101ad600039606b600054600160a060020a0316815260200182815260200160006000f090505050565b600060c86100e560003960c8600054600160a060020a0316815260200182815260200160006000f0905080600160a060020a0316600060026000600060006000848787f16100dd57005b50505050505600604060c860043960045160245160006001820391508160008190555060008211602657604c565b606b605d600039606b83600160a060020a0316815260200182815260200160006000f090505b505050600180605c6000396000f300006040606b6004396004516024516001810390508060008190555060008111602457605b565b81600160a060020a031663820b13f6600060008260e060020a026000526004858152602001600060008660325a03f1605857005b50505b5050600180606a6000396000f300006040606b6004396004516024516001810390508060008190555060008111602457605b565b81600160a060020a031663820b13f6600060008260e060020a026000526004858152602001600060008660325a03f1605857005b50505b5050600180606a6000396000f30000",
                "nonce" : "0x00",
                "storage" : {
                }
            },
            "2adc25665018aa1fe0e6bc666dac8fc2697ff9ba" : {
                "balance" : "0x4563918244f893e0",
                "code" : "0x",
                "nonce" : "0x00",
                "storage" : {
                }
            },
            "a94f5374fce5edbc8e2a8697c15331677e6ebf0b" : {
                "balance" : "0x47b760",
                "code" : "0x",
                "nonce" : "0x01",
                "storage" : {
                }
            }
        },
        "pre" : {
            "095e7baea6a6c7c4c2dfeb977efac326af552d87" : {
                "balance" : "0x314dc6448d9338c15b0a00000000",
                "code" : "0x60003560e060020a90048063820b13f614610021578063a444f5e91461003257005b61002c600435610093565b60006000f35b61003d600435610043565b60006000f35b600073095e7baea6a6c7c4c2dfeb977efac326af552d8760008190555081600181905550606b6101ad600039606b600054600160a060020a0316815260200182815260200160006000f090505050565b600060c86100e560003960c8600054600160a060020a0316815260200182815260200160006000f0905080600160a060020a0316600060026000600060006000848787f16100dd57005b50505050505600604060c860043960045160245160006001820391508160008190555060008211602657604c565b606b605d600039606b83600160a060020a0316815260200182815260200160006000f090505b505050600180605c6000396000f300006040606b6004396004516024516001810390508060008190555060008111602457605b565b81600160a060020a031663820b13f6600060008260e060020a026000526004858152602001600060008660325a03f1605857005b50505b5050600180606a6000396000f300006040606b6004396004516024516001810390508060008190555060008111602457605b565b81600160a060020a031663820b13f6600060008260e060020a026000526004858152602001600060008660325a03f1605857005b50505b5050600180606a6000396000f30000",
                "nonce" : "0x00",
                "storage" : {
                }
            },
            "a94f5374fce5edbc8e2a8697c15331677e6ebf0b" : {
                "balance" : "0x4c4b40",
                "code" : "0x",
                "nonce" : "0x00",
                "storage" : {
                }
            }
        }
    }
}