{
    "RecursiveCreateContractsCreate4Contracts_d0g0v0_EIP150" : {
        "blocks" : [
            {
                "blockHeader" : {
                    "bloom" : "00000000000000000000000000000000000000000000000000000000000000000000000000000000000000000000000000000000000000000000000000000000000000000000000000000000000000000000000000000000000000000000000000000000000000000000000000000000000000000000000000000000000000000000000000000000000000000000000000000000000000000000000000000000000000000000000000000000000000000000000000000000000000000000000000000000000000000000000000000000000000000000000000000000000000000000000000000000000000000000000000000000000000000000000000000000",
                    "coinbase" : "2adc25665018aa1fe0e6bc666dac8fc2697ff9ba",
                    "difficulty" : "0x020000",
                    "extraData" : "0x",
                    "gasLimit" : "0x05f5e100",
                    "gasUsed" : "0x042dd5",
                    "hash" : "22b567451e7cfd5c76836f57009f8cfdad40fbc6b93f1c6cacd26c12ad1f5d83",
                    "mixHash" : "d88508953f1496ab8d0e1b18f310c6dd1aba1dd8f73260c9c1faad885a2e10c8",
                    "nonce" : "7464d8a4a88c56a3",
                    "number" : "0x01",
                    "parentHash" : "ccd2199fa3818a4d655cc27f744d9264756cb3f65ac5d8ba935c8e2f5d6ba2f6",
                    "receiptTrie" : "da3494ed3ec3e03b49f91518b78e9d0a813cce26a4266e2c1fc77b247fb3f95e",
                    "stateRoot" : "d1a9680e1d46c26bb57e1523fb3ef3b5147a63200c0c8faa49f7c9d5185aeeb2",
                    "timestamp" : "0x03e8",
                    "transactionsTrie" : "39ad9d99163f4e19a1756a274801a9834a317fb986d2f59dc742e00767219124",
                    "uncleHash" : "1dcc4de8dec75d7aab85b567b6ccd41ad312451b948a7413f0a142fd40d49347"
                },
                "rlp" : "0xf90285f901f9a0ccd2199fa3818a4d655cc27f744d9264756cb3f65ac5d8ba935c8e2f5d6ba2f6a01dcc4de8dec75d7aab85b567b6ccd41ad312451b948a7413f0a142fd40d49347942adc25665018aa1fe0e6bc666dac8fc2697ff9baa0d1a9680e1d46c26bb57e1523fb3ef3b5147a63200c0c8faa49f7c9d5185aeeb2a039ad9d99163f4e19a1756a274801a9834a317fb986d2f59dc742e00767219124a0da3494ed3ec3e03b49f91518b78e9d0a813cce26a4266e2c1fc77b247fb3f95eb901000000000000000000000000000000000000000000000000000000000000000000000000000000000000000000000000000000000000000000000000000000000000000000000000000000000000000000000000000000000000000000000000000000000000000000000000000000000000000000000000000000000000000000000000000000000000000000000000000000000000000000000000000000000000000000000000000000000000000000000000000000000000000000000000000000000000000000000000000000000000000000000000000000000000000000000000000000000000000000000000000000000000000000000000000000000083020000018405f5e10083042dd58203e880a0d88508953f1496ab8d0e1b18f310c6dd1aba1dd8f73260c9c1faad885a2e10c8887464d8a4a88c56a3f886f8848001830493e094095e7baea6a6c7c4c2dfeb977efac326af552d8701a4a444f5e900000000000000000000000000000000000000000000000000000000000000041ca031b57750bcec27d287de2911813a872395e21714d4116dd8fbd8f986e3afcb75a06b024ae4d324ac48370d37629381d034e74a32b5ef3f9f74a2b19c92578ecb95c0",
                "transactions" : [
                    {
                        "data" : "0xa444f5e90000000000000000000000000000000000000000000000000000000000000004",
                        "gasLimit" : "0x0493e0",
                        "gasPrice" : "0x01",
                        "nonce" : "0x00",
                        "r" : "0x31b57750bcec27d287de2911813a872395e21714d4116dd8fbd8f986e3afcb75",
                        "s" : "0x6b024ae4d324ac48370d37629381d034e74a32b5ef3f9f74a2b19c92578ecb95",
                        "to" : "095e7baea6a6c7c4c2dfeb977efac326af552d87",
                        "v" : "0x1c",
                        "value" : "0x01"
                    }
                ],
                "uncleHeaders" : [
                ]
            }
        ],
        "genesisBlockHeader" : {
            "bloom" : "00000000000000000000000000000000000000000000000000000000000000000000000000000000000000000000000000000000000000000000000000000000000000000000000000000000000000000000000000000000000000000000000000000000000000000000000000000000000000000000000000000000000000000000000000000000000000000000000000000000000000000000000000000000000000000000000000000000000000000000000000000000000000000000000000000000000000000000000000000000000000000000000000000000000000000000000000000000000000000000000000000000000000000000000000000000",
            "coinbase" : "2adc25665018aa1fe0e6bc666dac8fc2697ff9ba",
            "difficulty" : "0x020000",
            "extraData" : "0x42",
            "gasLimit" : "0x05f5e100",
            "gasUsed" : "0x00",
            "hash" : "ccd2199fa3818a4d655cc27f744d9264756cb3f65ac5d8ba935c8e2f5d6ba2f6",
            "mixHash" : "56e81f171bcc55a6ff8345e692c0f86e5b48e01b996cadc001622fb5e363b421",
            "nonce" : "0102030405060708",
            "number" : "0x00",
            "parentHash" : "0000000000000000000000000000000000000000000000000000000000000000",
            "receiptTrie" : "56e81f171bcc55a6ff8345e692c0f86e5b48e01b996cadc001622fb5e363b421",
            "stateRoot" : "587907fda5c07b4613ce792d46abe052f89f3ce6ea907d38ecace44b0cc3f7be",
            "timestamp" : "0x03b6",
            "transactionsTrie" : "56e81f171bcc55a6ff8345e692c0f86e5b48e01b996cadc001622fb5e363b421",
            "uncleHash" : "1dcc4de8dec75d7aab85b567b6ccd41ad312451b948a7413f0a142fd40d49347"
        },
        "genesisRLP" : "0xf901fbf901f6a00000000000000000000000000000000000000000000000000000000000000000a01dcc4de8dec75d7aab85b567b6ccd41ad312451b948a7413f0a142fd40d49347942adc25665018aa1fe0e6bc666dac8fc2697ff9baa0587907fda5c07b4613ce792d46abe052f89f3ce6ea907d38ecace44b0cc3f7bea056e81f171bcc55a6ff8345e692c0f86e5b48e01b996cadc001622fb5e363b421a056e81f171bcc55a6ff8345e692c0f86e5b48e01b996cadc001622fb5e363b421b901000000000000000000000000000000000000000000000000000000000000000000000000000000000000000000000000000000000000000000000000000000000000000000000000000000000000000000000000000000000000000000000000000000000000000000000000000000000000000000000000000000000000000000000000000000000000000000000000000000000000000000000000000000000000000000000000000000000000000000000000000000000000000000000000000000000000000000000000000000000000000000000000000000000000000000000000000000000000000000000000000000000000000000000000000000000083020000808405f5e100808203b642a056e81f171bcc55a6ff8345e692c0f86e5b48e01b996cadc001622fb5e363b421880102030405060708c0c0",
        "lastblockhash" : "22b567451e7cfd5c76836f57009f8cfdad40fbc6b93f1c6cacd26c12ad1f5d83",
        "network" : "EIP150",
        "postState" : {
            "095e7baea6a6c7c4c2dfeb977efac326af552d87" : {
                "balance" : "0x314dc6448d9338c15b09fffffffd",
                "code" : "0x60003560e060020a90048063820b13f614610021578063a444f5e91461003257005b61002c600435610093565b60006000f35b61003d600435610043565b60006000f35b600073095e7baea6a6c7c4c2dfeb977efac326af552d8760008190555081600181905550606b6101ad600039606b600054600160a060020a0316815260200182815260200160006000f090505050565b600060c86100e560003960c8600054600160a060020a0316815260200182815260200160006000f0905080600160a060020a0316600060026000600060006000848787f16100dd57005b50505050505600604060c860043960045160245160006001820391508160008190555060008211602657604c565b606b605d600039606b83600160a060020a0316815260200182815260200160006000f090505b505050600180605c6000396000f300006040606b6004396004516024516001810390508060008190555060008111602457605b565b81600160a060020a031663820b13f6600060008260e060020a026000526004858152602001600060008660325a03f1605857005b50505b5050600180606a6000396000f300006040606b6004396004516024516001810390508060008190555060008111602457605b565b81600160a060020a031663820b13f6600060008260e060020a026000526004858152602001600060008660325a03f1605857005b50505b5050600180606a6000396000f30000",
                "nonce" : "0x03",
                "storage" : {
                    "0x00" : "0x095e7baea6a6c7c4c2dfeb977efac326af552d87",
                    "0x01" : "0x04"
                }
            },
            "2adc25665018aa1fe0e6bc666dac8fc2697ff9ba" : {
                "balance" : "0x4563918244f82dd5",
                "code" : "0x",
                "nonce" : "0x00",
                "storage" : {
                }
            },
            "5d35480c6e7f8952363fa280a0a96906da981f63" : {
                "balance" : "0x02",
                "code" : "0x00",
                "nonce" : "0x00",
                "storage" : {
                }
            },
            "a94f5374fce5edbc8e2a8697c15331677e6ebf0b" : {
                "balance" : "0x481d6a",
                "code" : "0x",
                "nonce" : "0x01",
                "storage" : {
                }
            },
            "b88de88b35ecbf3c141e3caae2baf35834d18f63" : {
                "balance" : "0x02",
                "code" : "0x00",
                "nonce" : "0x01",
                "storage" : {
                    "0x00" : "0x02"
                }
            },
            "c506eeab8810e0b592686a218b889284e45b2c35" : {
                "balance" : "0x00",
                "code" : "0x00",
                "nonce" : "0x00",
                "storage" : {
                    "0x00" : "0x01"
                }
            },
            "d2571607e241ecf590ed94b12d87c94babe36db6" : {
                "balance" : "0x00",
                "code" : "0x00",
                "nonce" : "0x00",
                "storage" : {
                    "0x00" : "0x03"
                }
            }
        },
        "pre" : {
            "095e7baea6a6c7c4c2dfeb977efac326af552d87" : {
                "balance" : "0x314dc6448d9338c15b0a00000000",
                "code" : "0x60003560e060020a90048063820b13f614610021578063a444f5e91461003257005b61002c600435610093565b60006000f35b61003d600435610043565b60006000f35b600073095e7baea6a6c7c4c2dfeb977efac326af552d8760008190555081600181905550606b6101ad600039606b600054600160a060020a0316815260200182815260200160006000f090505050565b600060c86100e560003960c8600054600160a060020a0316815260200182815260200160006000f0905080600160a060020a0316600060026000600060006000848787f16100dd57005b50505050505600604060c860043960045160245160006001820391508160008190555060008211602657604c565b606b605d600039606b83600160a060020a0316815260200182815260200160006000f090505b505050600180605c6000396000f300006040606b6004396004516024516001810390508060008190555060008111602457605b565b81600160a060020a031663820b13f6600060008260e060020a026000526004858152602001600060008660325a03f1605857005b50505b5050600180606a6000396000f300006040606b6004396004516024516001810390508060008190555060008111602457605b565b81600160a060020a031663820b13f6600060008260e060020a026000526004858152602001600060008660325a03f1605857005b50505b5050600180606a6000396000f30000",
                "nonce" : "0x00",
                "storage" : {
                }
            },
            "a94f5374fce5edbc8e2a8697c15331677e6ebf0b" : {
                "balance" : "0x4c4b40",
                "code" : "0x",
                "nonce" : "0x00",
                "storage" : {
                }
            }
        }
    },
    "RecursiveCreateContractsCreate4Contracts_d0g0v0_EIP158" : {
        "blocks" : [
            {
                "blockHeader" : {
                    "bloom" : "00000000000000000000000000000000000000000000000000000000000000000000000000000000000000000000000000000000000000000000000000000000000000000000000000000000000000000000000000000000000000000000000000000000000000000000000000000000000000000000000000000000000000000000000000000000000000000000000000000000000000000000000000000000000000000000000000000000000000000000000000000000000000000000000000000000000000000000000000000000000000000000000000000000000000000000000000000000000000000000000000000000000000000000000000000000",
                    "coinbase" : "2adc25665018aa1fe0e6bc666dac8fc2697ff9ba",
                    "difficulty" : "0x020000",
                    "extraData" : "0x",
                    "gasLimit" : "0x05f5e100",
                    "gasUsed" : "0x042fdd",
                    "hash" : "47879d79e4bac28458d2dd2d637f7a7df807355dd5d96d3bcb83850524fe143c",
                    "mixHash" : "1dbb37f9e61cd2c7c32a3993fb32bd67a08ca4d76a2d13daf22e4a06663daab1",
                    "nonce" : "19a6284200719563",
                    "number" : "0x01",
                    "parentHash" : "ccd2199fa3818a4d655cc27f744d9264756cb3f65ac5d8ba935c8e2f5d6ba2f6",
                    "receiptTrie" : "1c4eb32db8a0b41b29be448a617fc79119736ca41a84446bb4443638a8b8547e",
                    "stateRoot" : "4a91535576ea6dcc06b99b570bdb0d5c4cc9b73f4e75385e58c1a2be4ff81a59",
                    "timestamp" : "0x03e8",
                    "transactionsTrie" : "39ad9d99163f4e19a1756a274801a9834a317fb986d2f59dc742e00767219124",
                    "uncleHash" : "1dcc4de8dec75d7aab85b567b6ccd41ad312451b948a7413f0a142fd40d49347"
                },
                "rlp" : "0xf90285f901f9a0ccd2199fa3818a4d655cc27f744d9264756cb3f65ac5d8ba935c8e2f5d6ba2f6a01dcc4de8dec75d7aab85b567b6ccd41ad312451b948a7413f0a142fd40d49347942adc25665018aa1fe0e6bc666dac8fc2697ff9baa04a91535576ea6dcc06b99b570bdb0d5c4cc9b73f4e75385e58c1a2be4ff81a59a039ad9d99163f4e19a1756a274801a9834a317fb986d2f59dc742e00767219124a01c4eb32db8a0b41b29be448a617fc79119736ca41a84446bb4443638a8b8547eb901000000000000000000000000000000000000000000000000000000000000000000000000000000000000000000000000000000000000000000000000000000000000000000000000000000000000000000000000000000000000000000000000000000000000000000000000000000000000000000000000000000000000000000000000000000000000000000000000000000000000000000000000000000000000000000000000000000000000000000000000000000000000000000000000000000000000000000000000000000000000000000000000000000000000000000000000000000000000000000000000000000000000000000000000000000000083020000018405f5e10083042fdd8203e880a01dbb37f9e61cd2c7c32a3993fb32bd67a08ca4d76a2d13daf22e4a06663daab18819a6284200719563f886f8848001830493e094095e7baea6a6c7c4c2dfeb977efac326af552d8701a4a444f5e900000000000000000000000000000000000000000000000000000000000000041ca031b57750bcec27d287de2911813a872395e21714d4116dd8fbd8f986e3afcb75a06b024ae4d324ac48370d37629381d034e74a32b5ef3f9f74a2b19c92578ecb95c0",
                "transactions" : [
                    {
                        "data" : "0xa444f5e90000000000000000000000000000000000000000000000000000000000000004",
                        "gasLimit" : "0x0493e0",
                        "gasPrice" : "0x01",
                        "nonce" : "0x00",
                        "r" : "0x31b57750bcec27d287de2911813a872395e21714d4116dd8fbd8f986e3afcb75",
                        "s" : "0x6b024ae4d324ac48370d37629381d034e74a32b5ef3f9f74a2b19c92578ecb95",
                        "to" : "095e7baea6a6c7c4c2dfeb977efac326af552d87",
                        "v" : "0x1c",
                        "value" : "0x01"
                    }
                ],
                "uncleHeaders" : [
                ]
            }
        ],
        "genesisBlockHeader" : {
            "bloom" : "00000000000000000000000000000000000000000000000000000000000000000000000000000000000000000000000000000000000000000000000000000000000000000000000000000000000000000000000000000000000000000000000000000000000000000000000000000000000000000000000000000000000000000000000000000000000000000000000000000000000000000000000000000000000000000000000000000000000000000000000000000000000000000000000000000000000000000000000000000000000000000000000000000000000000000000000000000000000000000000000000000000000000000000000000000000",
            "coinbase" : "2adc25665018aa1fe0e6bc666dac8fc2697ff9ba",
            "difficulty" : "0x020000",
            "extraData" : "0x42",
            "gasLimit" : "0x05f5e100",
            "gasUsed" : "0x00",
            "hash" : "ccd2199fa3818a4d655cc27f744d9264756cb3f65ac5d8ba935c8e2f5d6ba2f6",
            "mixHash" : "56e81f171bcc55a6ff8345e692c0f86e5b48e01b996cadc001622fb5e363b421",
            "nonce" : "0102030405060708",
            "number" : "0x00",
            "parentHash" : "0000000000000000000000000000000000000000000000000000000000000000",
            "receiptTrie" : "56e81f171bcc55a6ff8345e692c0f86e5b48e01b996cadc001622fb5e363b421",
            "stateRoot" : "587907fda5c07b4613ce792d46abe052f89f3ce6ea907d38ecace44b0cc3f7be",
            "timestamp" : "0x03b6",
            "transactionsTrie" : "56e81f171bcc55a6ff8345e692c0f86e5b48e01b996cadc001622fb5e363b421",
            "uncleHash" : "1dcc4de8dec75d7aab85b567b6ccd41ad312451b948a7413f0a142fd40d49347"
        },
        "genesisRLP" : "0xf901fbf901f6a00000000000000000000000000000000000000000000000000000000000000000a01dcc4de8dec75d7aab85b567b6ccd41ad312451b948a7413f0a142fd40d49347942adc25665018aa1fe0e6bc666dac8fc2697ff9baa0587907fda5c07b4613ce792d46abe052f89f3ce6ea907d38ecace44b0cc3f7bea056e81f171bcc55a6ff8345e692c0f86e5b48e01b996cadc001622fb5e363b421a056e81f171bcc55a6ff8345e692c0f86e5b48e01b996cadc001622fb5e363b421b901000000000000000000000000000000000000000000000000000000000000000000000000000000000000000000000000000000000000000000000000000000000000000000000000000000000000000000000000000000000000000000000000000000000000000000000000000000000000000000000000000000000000000000000000000000000000000000000000000000000000000000000000000000000000000000000000000000000000000000000000000000000000000000000000000000000000000000000000000000000000000000000000000000000000000000000000000000000000000000000000000000000000000000000000000000000083020000808405f5e100808203b642a056e81f171bcc55a6ff8345e692c0f86e5b48e01b996cadc001622fb5e363b421880102030405060708c0c0",
        "lastblockhash" : "47879d79e4bac28458d2dd2d637f7a7df807355dd5d96d3bcb83850524fe143c",
        "network" : "EIP158",
        "postState" : {
            "095e7baea6a6c7c4c2dfeb977efac326af552d87" : {
                "balance" : "0x314dc6448d9338c15b09fffffffd",
                "code" : "0x60003560e060020a90048063820b13f614610021578063a444f5e91461003257005b61002c600435610093565b60006000f35b61003d600435610043565b60006000f35b600073095e7baea6a6c7c4c2dfeb977efac326af552d8760008190555081600181905550606b6101ad600039606b600054600160a060020a0316815260200182815260200160006000f090505050565b600060c86100e560003960c8600054600160a060020a0316815260200182815260200160006000f0905080600160a060020a0316600060026000600060006000848787f16100dd57005b50505050505600604060c860043960045160245160006001820391508160008190555060008211602657604c565b606b605d600039606b83600160a060020a0316815260200182815260200160006000f090505b505050600180605c6000396000f300006040606b6004396004516024516001810390508060008190555060008111602457605b565b81600160a060020a031663820b13f6600060008260e060020a026000526004858152602001600060008660325a03f1605857005b50505b5050600180606a6000396000f300006040606b6004396004516024516001810390508060008190555060008111602457605b565b81600160a060020a031663820b13f6600060008260e060020a026000526004858152602001600060008660325a03f1605857005b50505b5050600180606a6000396000f30000",
                "nonce" : "0x03",
                "storage" : {
                    "0x00" : "0x095e7baea6a6c7c4c2dfeb977efac326af552d87",
                    "0x01" : "0x04"
                }
            },
            "2adc25665018aa1fe0e6bc666dac8fc2697ff9ba" : {
                "balance" : "0x4563918244f82fdd",
                "code" : "0x",
                "nonce" : "0x00",
                "storage" : {
                }
            },
            "2b25ae4b13cb6e06869f694d29de45e7614ebd97" : {
                "balance" : "0x00",
                "code" : "0x00",
                "nonce" : "0x01",
                "storage" : {
                    "0x00" : "0x01"
                }
            },
            "5d35480c6e7f8952363fa280a0a96906da981f63" : {
                "balance" : "0x02",
                "code" : "0x00",
                "nonce" : "0x01",
                "storage" : {
                }
            },
            "a94f5374fce5edbc8e2a8697c15331677e6ebf0b" : {
                "balance" : "0x481b62",
                "code" : "0x",
                "nonce" : "0x01",
                "storage" : {
                }
            },
            "b88de88b35ecbf3c141e3caae2baf35834d18f63" : {
                "balance" : "0x02",
                "code" : "0x00",
                "nonce" : "0x02",
                "storage" : {
                    "0x00" : "0x02"
                }
            },
            "d2571607e241ecf590ed94b12d87c94babe36db6" : {
                "balance" : "0x00",
                "code" : "0x00",
                "nonce" : "0x01",
                "storage" : {
                    "0x00" : "0x03"
                }
            }
        },
        "pre" : {
            "095e7baea6a6c7c4c2dfeb977efac326af552d87" : {
                "balance" : "0x314dc6448d9338c15b0a00000000",
                "code" : "0x60003560e060020a90048063820b13f614610021578063a444f5e91461003257005b61002c600435610093565b60006000f35b61003d600435610043565b60006000f35b600073095e7baea6a6c7c4c2dfeb977efac326af552d8760008190555081600181905550606b6101ad600039606b600054600160a060020a0316815260200182815260200160006000f090505050565b600060c86100e560003960c8600054600160a060020a0316815260200182815260200160006000f0905080600160a060020a0316600060026000600060006000848787f16100dd57005b50505050505600604060c860043960045160245160006001820391508160008190555060008211602657604c565b606b605d600039606b83600160a060020a0316815260200182815260200160006000f090505b505050600180605c6000396000f300006040606b6004396004516024516001810390508060008190555060008111602457605b565b81600160a060020a031663820b13f6600060008260e060020a026000526004858152602001600060008660325a03f1605857005b50505b5050600180606a6000396000f300006040606b6004396004516024516001810390508060008190555060008111602457605b565b81600160a060020a031663820b13f6600060008260e060020a026000526004858152602001600060008660325a03f1605857005b50505b5050600180606a6000396000f30000",
                "nonce" : "0x00",
                "storage" : {
                }
            },
            "a94f5374fce5edbc8e2a8697c15331677e6ebf0b" : {
                "balance" : "0x4c4b40",
                "code" : "0x",
                "nonce" : "0x00",
                "storage" : {
                }
            }
        }
    },
    "RecursiveCreateContractsCreate4Contracts_d0g0v0_Frontier" : {
        "blocks" : [
            {
                "blockHeader" : {
                    "bloom" : "00000000000000000000000000000000000000000000000000000000000000000000000000000000000000000000000000000000000000000000000000000000000000000000000000000000000000000000000000000000000000000000000000000000000000000000000000000000000000000000000000000000000000000000000000000000000000000000000000000000000000000000000000000000000000000000000000000000000000000000000000000000000000000000000000000000000000000000000000000000000000000000000000000000000000000000000000000000000000000000000000000000000000000000000000000000",
                    "coinbase" : "2adc25665018aa1fe0e6bc666dac8fc2697ff9ba",
                    "difficulty" : "0x020000",
                    "extraData" : "0x",
                    "gasLimit" : "0x05f5e100",
                    "gasUsed" : "0x0421c3",
                    "hash" : "aae6599126404a488487ec98a22bf4bfe86058424a1978ba32e6daa23808ce06",
                    "mixHash" : "08d630754b6bac15e1de8d5580f5910d3b4fbf7060f687cd8714280d6411e4d2",
                    "nonce" : "e5da9fccdcf32b1d",
                    "number" : "0x01",
                    "parentHash" : "ccd2199fa3818a4d655cc27f744d9264756cb3f65ac5d8ba935c8e2f5d6ba2f6",
                    "receiptTrie" : "c18e13d5390dfdf4801dfbd80201bfaceccd16f6c45be2da14101315fb8aa691",
                    "stateRoot" : "a835eed6852bcf868cb0afed6869587ed865c3122edabdd4f4cbb317a73eed8f",
                    "timestamp" : "0x03e8",
                    "transactionsTrie" : "39ad9d99163f4e19a1756a274801a9834a317fb986d2f59dc742e00767219124",
                    "uncleHash" : "1dcc4de8dec75d7aab85b567b6ccd41ad312451b948a7413f0a142fd40d49347"
                },
                "rlp" : "0xf90285f901f9a0ccd2199fa3818a4d655cc27f744d9264756cb3f65ac5d8ba935c8e2f5d6ba2f6a01dcc4de8dec75d7aab85b567b6ccd41ad312451b948a7413f0a142fd40d49347942adc25665018aa1fe0e6bc666dac8fc2697ff9baa0a835eed6852bcf868cb0afed6869587ed865c3122edabdd4f4cbb317a73eed8fa039ad9d99163f4e19a1756a274801a9834a317fb986d2f59dc742e00767219124a0c18e13d5390dfdf4801dfbd80201bfaceccd16f6c45be2da14101315fb8aa691b901000000000000000000000000000000000000000000000000000000000000000000000000000000000000000000000000000000000000000000000000000000000000000000000000000000000000000000000000000000000000000000000000000000000000000000000000000000000000000000000000000000000000000000000000000000000000000000000000000000000000000000000000000000000000000000000000000000000000000000000000000000000000000000000000000000000000000000000000000000000000000000000000000000000000000000000000000000000000000000000000000000000000000000000000000000000083020000018405f5e100830421c38203e880a008d630754b6bac15e1de8d5580f5910d3b4fbf7060f687cd8714280d6411e4d288e5da9fccdcf32b1df886f8848001830493e094095e7baea6a6c7c4c2dfeb977efac326af552d8701a4a444f5e900000000000000000000000000000000000000000000000000000000000000041ca031b57750bcec27d287de2911813a872395e21714d4116dd8fbd8f986e3afcb75a06b024ae4d324ac48370d37629381d034e74a32b5ef3f9f74a2b19c92578ecb95c0",
                "transactions" : [
                    {
                        "data" : "0xa444f5e90000000000000000000000000000000000000000000000000000000000000004",
                        "gasLimit" : "0x0493e0",
                        "gasPrice" : "0x01",
                        "nonce" : "0x00",
                        "r" : "0x31b57750bcec27d287de2911813a872395e21714d4116dd8fbd8f986e3afcb75",
                        "s" : "0x6b024ae4d324ac48370d37629381d034e74a32b5ef3f9f74a2b19c92578ecb95",
                        "to" : "095e7baea6a6c7c4c2dfeb977efac326af552d87",
                        "v" : "0x1c",
                        "value" : "0x01"
                    }
                ],
                "uncleHeaders" : [
                ]
            }
        ],
        "genesisBlockHeader" : {
            "bloom" : "00000000000000000000000000000000000000000000000000000000000000000000000000000000000000000000000000000000000000000000000000000000000000000000000000000000000000000000000000000000000000000000000000000000000000000000000000000000000000000000000000000000000000000000000000000000000000000000000000000000000000000000000000000000000000000000000000000000000000000000000000000000000000000000000000000000000000000000000000000000000000000000000000000000000000000000000000000000000000000000000000000000000000000000000000000000",
            "coinbase" : "2adc25665018aa1fe0e6bc666dac8fc2697ff9ba",
            "difficulty" : "0x020000",
            "extraData" : "0x42",
            "gasLimit" : "0x05f5e100",
            "gasUsed" : "0x00",
            "hash" : "ccd2199fa3818a4d655cc27f744d9264756cb3f65ac5d8ba935c8e2f5d6ba2f6",
            "mixHash" : "56e81f171bcc55a6ff8345e692c0f86e5b48e01b996cadc001622fb5e363b421",
            "nonce" : "0102030405060708",
            "number" : "0x00",
            "parentHash" : "0000000000000000000000000000000000000000000000000000000000000000",
            "receiptTrie" : "56e81f171bcc55a6ff8345e692c0f86e5b48e01b996cadc001622fb5e363b421",
            "stateRoot" : "587907fda5c07b4613ce792d46abe052f89f3ce6ea907d38ecace44b0cc3f7be",
            "timestamp" : "0x03b6",
            "transactionsTrie" : "56e81f171bcc55a6ff8345e692c0f86e5b48e01b996cadc001622fb5e363b421",
            "uncleHash" : "1dcc4de8dec75d7aab85b567b6ccd41ad312451b948a7413f0a142fd40d49347"
        },
        "genesisRLP" : "0xf901fbf901f6a00000000000000000000000000000000000000000000000000000000000000000a01dcc4de8dec75d7aab85b567b6ccd41ad312451b948a7413f0a142fd40d49347942adc25665018aa1fe0e6bc666dac8fc2697ff9baa0587907fda5c07b4613ce792d46abe052f89f3ce6ea907d38ecace44b0cc3f7bea056e81f171bcc55a6ff8345e692c0f86e5b48e01b996cadc001622fb5e363b421a056e81f171bcc55a6ff8345e692c0f86e5b48e01b996cadc001622fb5e363b421b901000000000000000000000000000000000000000000000000000000000000000000000000000000000000000000000000000000000000000000000000000000000000000000000000000000000000000000000000000000000000000000000000000000000000000000000000000000000000000000000000000000000000000000000000000000000000000000000000000000000000000000000000000000000000000000000000000000000000000000000000000000000000000000000000000000000000000000000000000000000000000000000000000000000000000000000000000000000000000000000000000000000000000000000000000000000083020000808405f5e100808203b642a056e81f171bcc55a6ff8345e692c0f86e5b48e01b996cadc001622fb5e363b421880102030405060708c0c0",
        "lastblockhash" : "aae6599126404a488487ec98a22bf4bfe86058424a1978ba32e6daa23808ce06",
        "network" : "Frontier",
        "postState" : {
            "095e7baea6a6c7c4c2dfeb977efac326af552d87" : {
                "balance" : "0x314dc6448d9338c15b09fffffffd",
                "code" : "0x60003560e060020a90048063820b13f614610021578063a444f5e91461003257005b61002c600435610093565b60006000f35b61003d600435610043565b60006000f35b600073095e7baea6a6c7c4c2dfeb977efac326af552d8760008190555081600181905550606b6101ad600039606b600054600160a060020a0316815260200182815260200160006000f090505050565b600060c86100e560003960c8600054600160a060020a0316815260200182815260200160006000f0905080600160a060020a0316600060026000600060006000848787f16100dd57005b50505050505600604060c860043960045160245160006001820391508160008190555060008211602657604c565b606b605d600039606b83600160a060020a0316815260200182815260200160006000f090505b505050600180605c6000396000f300006040606b6004396004516024516001810390508060008190555060008111602457605b565b81600160a060020a031663820b13f6600060008260e060020a026000526004858152602001600060008660325a03f1605857005b50505b5050600180606a6000396000f300006040606b6004396004516024516001810390508060008190555060008111602457605b565b81600160a060020a031663820b13f6600060008260e060020a026000526004858152602001600060008660325a03f1605857005b50505b5050600180606a6000396000f30000",
                "nonce" : "0x03",
                "storage" : {
                    "0x00" : "0x095e7baea6a6c7c4c2dfeb977efac326af552d87",
                    "0x01" : "0x04"
                }
            },
            "2adc25665018aa1fe0e6bc666dac8fc2697ff9ba" : {
                "balance" : "0x4563918244f821c3",
                "code" : "0x",
                "nonce" : "0x00",
                "storage" : {
                }
            },
            "5d35480c6e7f8952363fa280a0a96906da981f63" : {
                "balance" : "0x02",
                "code" : "0x00",
                "nonce" : "0x00",
                "storage" : {
                }
            },
            "a94f5374fce5edbc8e2a8697c15331677e6ebf0b" : {
                "balance" : "0x48297c",
                "code" : "0x",
                "nonce" : "0x01",
                "storage" : {
                }
            },
            "b88de88b35ecbf3c141e3caae2baf35834d18f63" : {
                "balance" : "0x02",
                "code" : "0x00",
                "nonce" : "0x01",
                "storage" : {
                    "0x00" : "0x02"
                }
            },
            "c506eeab8810e0b592686a218b889284e45b2c35" : {
                "balance" : "0x00",
                "code" : "0x00",
                "nonce" : "0x00",
                "storage" : {
                    "0x00" : "0x01"
                }
            },
            "d2571607e241ecf590ed94b12d87c94babe36db6" : {
                "balance" : "0x00",
                "code" : "0x00",
                "nonce" : "0x00",
                "storage" : {
                    "0x00" : "0x03"
                }
            }
        },
        "pre" : {
            "095e7baea6a6c7c4c2dfeb977efac326af552d87" : {
                "balance" : "0x314dc6448d9338c15b0a00000000",
                "code" : "0x60003560e060020a90048063820b13f614610021578063a444f5e91461003257005b61002c600435610093565b60006000f35b61003d600435610043565b60006000f35b600073095e7baea6a6c7c4c2dfeb977efac326af552d8760008190555081600181905550606b6101ad600039606b600054600160a060020a0316815260200182815260200160006000f090505050565b600060c86100e560003960c8600054600160a060020a0316815260200182815260200160006000f0905080600160a060020a0316600060026000600060006000848787f16100dd57005b50505050505600604060c860043960045160245160006001820391508160008190555060008211602657604c565b606b605d600039606b83600160a060020a0316815260200182815260200160006000f090505b505050600180605c6000396000f300006040606b6004396004516024516001810390508060008190555060008111602457605b565b81600160a060020a031663820b13f6600060008260e060020a026000526004858152602001600060008660325a03f1605857005b50505b5050600180606a6000396000f300006040606b6004396004516024516001810390508060008190555060008111602457605b565b81600160a060020a031663820b13f6600060008260e060020a026000526004858152602001600060008660325a03f1605857005b50505b5050600180606a6000396000f30000",
                "nonce" : "0x00",
                "storage" : {
                }
            },
            "a94f5374fce5edbc8e2a8697c15331677e6ebf0b" : {
                "balance" : "0x4c4b40",
                "code" : "0x",
                "nonce" : "0x00",
                "storage" : {
                }
            }
        }
    },
    "RecursiveCreateContractsCreate4Contracts_d0g0v0_Homestead" : {
        "blocks" : [
            {
                "blockHeader" : {
                    "bloom" : "00000000000000000000000000000000000000000000000000000000000000000000000000000000000000000000000000000000000000000000000000000000000000000000000000000000000000000000000000000000000000000000000000000000000000000000000000000000000000000000000000000000000000000000000000000000000000000000000000000000000000000000000000000000000000000000000000000000000000000000000000000000000000000000000000000000000000000000000000000000000000000000000000000000000000000000000000000000000000000000000000000000000000000000000000000000",
                    "coinbase" : "2adc25665018aa1fe0e6bc666dac8fc2697ff9ba",
                    "difficulty" : "0x020000",
                    "extraData" : "0x",
                    "gasLimit" : "0x05f5e100",
                    "gasUsed" : "0x0421c3",
                    "hash" : "15a7baf91361164070a932700de4195a146ce7bf5dedf88e3572b21e836ccb46",
                    "mixHash" : "67df89dfe85d73135d40e3f222498039cfe162768ad90abd0ad590a60db7f9b4",
                    "nonce" : "6f5375a7a0d9bf67",
                    "number" : "0x01",
                    "parentHash" : "ccd2199fa3818a4d655cc27f744d9264756cb3f65ac5d8ba935c8e2f5d6ba2f6",
                    "receiptTrie" : "c18e13d5390dfdf4801dfbd80201bfaceccd16f6c45be2da14101315fb8aa691",
                    "stateRoot" : "a835eed6852bcf868cb0afed6869587ed865c3122edabdd4f4cbb317a73eed8f",
                    "timestamp" : "0x03e8",
                    "transactionsTrie" : "39ad9d99163f4e19a1756a274801a9834a317fb986d2f59dc742e00767219124",
                    "uncleHash" : "1dcc4de8dec75d7aab85b567b6ccd41ad312451b948a7413f0a142fd40d49347"
                },
                "rlp" : "0xf90285f901f9a0ccd2199fa3818a4d655cc27f744d9264756cb3f65ac5d8ba935c8e2f5d6ba2f6a01dcc4de8dec75d7aab85b567b6ccd41ad312451b948a7413f0a142fd40d49347942adc25665018aa1fe0e6bc666dac8fc2697ff9baa0a835eed6852bcf868cb0afed6869587ed865c3122edabdd4f4cbb317a73eed8fa039ad9d99163f4e19a1756a274801a9834a317fb986d2f59dc742e00767219124a0c18e13d5390dfdf4801dfbd80201bfaceccd16f6c45be2da14101315fb8aa691b901000000000000000000000000000000000000000000000000000000000000000000000000000000000000000000000000000000000000000000000000000000000000000000000000000000000000000000000000000000000000000000000000000000000000000000000000000000000000000000000000000000000000000000000000000000000000000000000000000000000000000000000000000000000000000000000000000000000000000000000000000000000000000000000000000000000000000000000000000000000000000000000000000000000000000000000000000000000000000000000000000000000000000000000000000000000083020000018405f5e100830421c38203e880a067df89dfe85d73135d40e3f222498039cfe162768ad90abd0ad590a60db7f9b4886f5375a7a0d9bf67f886f8848001830493e094095e7baea6a6c7c4c2dfeb977efac326af552d8701a4a444f5e900000000000000000000000000000000000000000000000000000000000000041ca031b57750bcec27d287de2911813a872395e21714d4116dd8fbd8f986e3afcb75a06b024ae4d324ac48370d37629381d034e74a32b5ef3f9f74a2b19c92578ecb95c0",
                "transactions" : [
                    {
                        "data" : "0xa444f5e90000000000000000000000000000000000000000000000000000000000000004",
                        "gasLimit" : "0x0493e0",
                        "gasPrice" : "0x01",
                        "nonce" : "0x00",
                        "r" : "0x31b57750bcec27d287de2911813a872395e21714d4116dd8fbd8f986e3afcb75",
                        "s" : "0x6b024ae4d324ac48370d37629381d034e74a32b5ef3f9f74a2b19c92578ecb95",
                        "to" : "095e7baea6a6c7c4c2dfeb977efac326af552d87",
                        "v" : "0x1c",
                        "value" : "0x01"
                    }
                ],
                "uncleHeaders" : [
                ]
            }
        ],
        "genesisBlockHeader" : {
            "bloom" : "00000000000000000000000000000000000000000000000000000000000000000000000000000000000000000000000000000000000000000000000000000000000000000000000000000000000000000000000000000000000000000000000000000000000000000000000000000000000000000000000000000000000000000000000000000000000000000000000000000000000000000000000000000000000000000000000000000000000000000000000000000000000000000000000000000000000000000000000000000000000000000000000000000000000000000000000000000000000000000000000000000000000000000000000000000000",
            "coinbase" : "2adc25665018aa1fe0e6bc666dac8fc2697ff9ba",
            "difficulty" : "0x020000",
            "extraData" : "0x42",
            "gasLimit" : "0x05f5e100",
            "gasUsed" : "0x00",
            "hash" : "ccd2199fa3818a4d655cc27f744d9264756cb3f65ac5d8ba935c8e2f5d6ba2f6",
            "mixHash" : "56e81f171bcc55a6ff8345e692c0f86e5b48e01b996cadc001622fb5e363b421",
            "nonce" : "0102030405060708",
            "number" : "0x00",
            "parentHash" : "0000000000000000000000000000000000000000000000000000000000000000",
            "receiptTrie" : "56e81f171bcc55a6ff8345e692c0f86e5b48e01b996cadc001622fb5e363b421",
            "stateRoot" : "587907fda5c07b4613ce792d46abe052f89f3ce6ea907d38ecace44b0cc3f7be",
            "timestamp" : "0x03b6",
            "transactionsTrie" : "56e81f171bcc55a6ff8345e692c0f86e5b48e01b996cadc001622fb5e363b421",
            "uncleHash" : "1dcc4de8dec75d7aab85b567b6ccd41ad312451b948a7413f0a142fd40d49347"
        },
        "genesisRLP" : "0xf901fbf901f6a00000000000000000000000000000000000000000000000000000000000000000a01dcc4de8dec75d7aab85b567b6ccd41ad312451b948a7413f0a142fd40d49347942adc25665018aa1fe0e6bc666dac8fc2697ff9baa0587907fda5c07b4613ce792d46abe052f89f3ce6ea907d38ecace44b0cc3f7bea056e81f171bcc55a6ff8345e692c0f86e5b48e01b996cadc001622fb5e363b421a056e81f171bcc55a6ff8345e692c0f86e5b48e01b996cadc001622fb5e363b421b901000000000000000000000000000000000000000000000000000000000000000000000000000000000000000000000000000000000000000000000000000000000000000000000000000000000000000000000000000000000000000000000000000000000000000000000000000000000000000000000000000000000000000000000000000000000000000000000000000000000000000000000000000000000000000000000000000000000000000000000000000000000000000000000000000000000000000000000000000000000000000000000000000000000000000000000000000000000000000000000000000000000000000000000000000000000083020000808405f5e100808203b642a056e81f171bcc55a6ff8345e692c0f86e5b48e01b996cadc001622fb5e363b421880102030405060708c0c0",
        "lastblockhash" : "15a7baf91361164070a932700de4195a146ce7bf5dedf88e3572b21e836ccb46",
        "network" : "Homestead",
        "postState" : {
            "095e7baea6a6c7c4c2dfeb977efac326af552d87" : {
                "balance" : "0x314dc6448d9338c15b09fffffffd",
                "code" : "0x60003560e060020a90048063820b13f614610021578063a444f5e91461003257005b61002c600435610093565b60006000f35b61003d600435610043565b60006000f35b600073095e7baea6a6c7c4c2dfeb977efac326af552d8760008190555081600181905550606b6101ad600039606b600054600160a060020a0316815260200182815260200160006000f090505050565b600060c86100e560003960c8600054600160a060020a0316815260200182815260200160006000f0905080600160a060020a0316600060026000600060006000848787f16100dd57005b50505050505600604060c860043960045160245160006001820391508160008190555060008211602657604c565b606b605d600039606b83600160a060020a0316815260200182815260200160006000f090505b505050600180605c6000396000f300006040606b6004396004516024516001810390508060008190555060008111602457605b565b81600160a060020a031663820b13f6600060008260e060020a026000526004858152602001600060008660325a03f1605857005b50505b5050600180606a6000396000f300006040606b6004396004516024516001810390508060008190555060008111602457605b565b81600160a060020a031663820b13f6600060008260e060020a026000526004858152602001600060008660325a03f1605857005b50505b5050600180606a6000396000f30000",
                "nonce" : "0x03",
                "storage" : {
                    "0x00" : "0x095e7baea6a6c7c4c2dfeb977efac326af552d87",
                    "0x01" : "0x04"
                }
            },
            "2adc25665018aa1fe0e6bc666dac8fc2697ff9ba" : {
                "balance" : "0x4563918244f821c3",
                "code" : "0x",
                "nonce" : "0x00",
                "storage" : {
                }
            },
            "5d35480c6e7f8952363fa280a0a96906da981f63" : {
                "balance" : "0x02",
                "code" : "0x00",
                "nonce" : "0x00",
                "storage" : {
                }
            },
            "a94f5374fce5edbc8e2a8697c15331677e6ebf0b" : {
                "balance" : "0x48297c",
                "code" : "0x",
                "nonce" : "0x01",
                "storage" : {
                }
            },
            "b88de88b35ecbf3c141e3caae2baf35834d18f63" : {
                "balance" : "0x02",
                "code" : "0x00",
                "nonce" : "0x01",
                "storage" : {
                    "0x00" : "0x02"
                }
            },
            "c506eeab8810e0b592686a218b889284e45b2c35" : {
                "balance" : "0x00",
                "code" : "0x00",
                "nonce" : "0x00",
                "storage" : {
                    "0x00" : "0x01"
                }
            },
            "d2571607e241ecf590ed94b12d87c94babe36db6" : {
                "balance" : "0x00",
                "code" : "0x00",
                "nonce" : "0x00",
                "storage" : {
                    "0x00" : "0x03"
                }
            }
        },
        "pre" : {
            "095e7baea6a6c7c4c2dfeb977efac326af552d87" : {
                "balance" : "0x314dc6448d9338c15b0a00000000",
                "code" : "0x60003560e060020a90048063820b13f614610021578063a444f5e91461003257005b61002c600435610093565b60006000f35b61003d600435610043565b60006000f35b600073095e7baea6a6c7c4c2dfeb977efac326af552d8760008190555081600181905550606b6101ad600039606b600054600160a060020a0316815260200182815260200160006000f090505050565b600060c86100e560003960c8600054600160a060020a0316815260200182815260200160006000f0905080600160a060020a0316600060026000600060006000848787f16100dd57005b50505050505600604060c860043960045160245160006001820391508160008190555060008211602657604c565b606b605d600039606b83600160a060020a0316815260200182815260200160006000f090505b505050600180605c6000396000f300006040606b6004396004516024516001810390508060008190555060008111602457605b565b81600160a060020a031663820b13f6600060008260e060020a026000526004858152602001600060008660325a03f1605857005b50505b5050600180606a6000396000f300006040606b6004396004516024516001810390508060008190555060008111602457605b565b81600160a060020a031663820b13f6600060008260e060020a026000526004858152602001600060008660325a03f1605857005b50505b5050600180606a6000396000f30000",
                "nonce" : "0x00",
                "storage" : {
                }
            },
            "a94f5374fce5edbc8e2a8697c15331677e6ebf0b" : {
                "balance" : "0x4c4b40",
                "code" : "0x",
                "nonce" : "0x00",
                "storage" : {
                }
            }
        }
    }
}