{
    "Create2OOGafterInitCodeReturndata3" : {
        "_info" : {
            "comment" : "Calls a contract that runs CREATE2 which deploy a code. then OOG happens upon deployment of the actual code. check the RETURN data buffer in initial contract",
            "filling-rpc-server" : "evm version 1.13.13-unstable-034bc466-20240219",
            "filling-tool-version" : "retesteth-0.3.2-cancun+commit.014a68a5.Linux.g++",
            "generatedTestHash" : "cc9760ab401e0fb8f760ba74a72024255014397cbd9b8a7fabcfdcefc9f76432",
            "lllcversion" : "Version: 0.5.14-develop.2023.7.11+commit.c58ab2c6.mod.Linux.g++",
            "solidity" : "Version: 0.8.21+commit.d9974bed.Linux.g++",
            "source" : "src/GeneralStateTestsFiller/stCreate2/Create2OOGafterInitCodeReturndata3Filler.json",
            "sourceHash" : "ddb75b0a7c69a8870271a799b474fc754a5d98fa3bb5fc8d439dd2296f649c39"
        },
        "env" : {
            "currentBaseFee" : "0x0a",
            "currentCoinbase" : "0x2adc25665018aa1fe0e6bc666dac8fc2697ff9ba",
            "currentDifficulty" : "0x020000",
            "currentExcessBlobGas" : "0x00",
            "currentGasLimit" : "0x989680",
            "currentNumber" : "0x01",
            "currentRandom" : "0x0000000000000000000000000000000000000000000000000000000000020000",
            "currentTimestamp" : "0x03e8"
        },
        "post" : {
            "Berlin" : [
                {
                    "hash" : "0xdcdf7334b49ebb37eb12e35d9ae087a36dc6b1fda7f126956a7649fab79aadd1",
                    "indexes" : {
                        "data" : 0,
                        "gas" : 0,
                        "value" : 0
                    },
                    "logs" : "0x1dcc4de8dec75d7aab85b567b6ccd41ad312451b948a7413f0a142fd40d49347",
                    "txbytes" : "0xf85f800a82d6d894c94f5374fce5edbc8e2a8697c15331677e6ebf0b80801ba0218b16ddb45b30b08298f1b83b556fdb43f9b24298883a0a53a3901ace7c20b6a071786b1b966b14d9cca3eb42ff4d9a04248660ce2e727ca1e6c69d4014daddf4"
                }
            ],
            "Cancun" : [
                {
                    "hash" : "0x9425c8838f24e1d7524b476bcfec907287569d921fab66249678e74be1a4196d",
                    "indexes" : {
                        "data" : 0,
                        "gas" : 0,
                        "value" : 0
                    },
                    "logs" : "0x1dcc4de8dec75d7aab85b567b6ccd41ad312451b948a7413f0a142fd40d49347",
                    "txbytes" : "0xf85f800a82d6d894c94f5374fce5edbc8e2a8697c15331677e6ebf0b80801ba0218b16ddb45b30b08298f1b83b556fdb43f9b24298883a0a53a3901ace7c20b6a071786b1b966b14d9cca3eb42ff4d9a04248660ce2e727ca1e6c69d4014daddf4"
                }
            ],
            "Istanbul" : [
                {
                    "hash" : "0xdcdf7334b49ebb37eb12e35d9ae087a36dc6b1fda7f126956a7649fab79aadd1",
                    "indexes" : {
                        "data" : 0,
                        "gas" : 0,
                        "value" : 0
                    },
                    "logs" : "0x1dcc4de8dec75d7aab85b567b6ccd41ad312451b948a7413f0a142fd40d49347",
                    "txbytes" : "0xf85f800a82d6d894c94f5374fce5edbc8e2a8697c15331677e6ebf0b80801ba0218b16ddb45b30b08298f1b83b556fdb43f9b24298883a0a53a3901ace7c20b6a071786b1b966b14d9cca3eb42ff4d9a04248660ce2e727ca1e6c69d4014daddf4"
                }
            ],
            "London" : [
                {
                    "hash" : "0xfc959f53db08706eb079c0416aae5494e74c2506d9420a8b914d3b79aca92028",
                    "indexes" : {
                        "data" : 0,
                        "gas" : 0,
                        "value" : 0
                    },
                    "logs" : "0x1dcc4de8dec75d7aab85b567b6ccd41ad312451b948a7413f0a142fd40d49347",
                    "txbytes" : "0xf85f800a82d6d894c94f5374fce5edbc8e2a8697c15331677e6ebf0b80801ba0218b16ddb45b30b08298f1b83b556fdb43f9b24298883a0a53a3901ace7c20b6a071786b1b966b14d9cca3eb42ff4d9a04248660ce2e727ca1e6c69d4014daddf4"
                }
            ],
            "Paris" : [
                {
                    "hash" : "0xfc959f53db08706eb079c0416aae5494e74c2506d9420a8b914d3b79aca92028",
                    "indexes" : {
                        "data" : 0,
                        "gas" : 0,
                        "value" : 0
                    },
                    "logs" : "0x1dcc4de8dec75d7aab85b567b6ccd41ad312451b948a7413f0a142fd40d49347",
                    "txbytes" : "0xf85f800a82d6d894c94f5374fce5edbc8e2a8697c15331677e6ebf0b80801ba0218b16ddb45b30b08298f1b83b556fdb43f9b24298883a0a53a3901ace7c20b6a071786b1b966b14d9cca3eb42ff4d9a04248660ce2e727ca1e6c69d4014daddf4"
                }
            ],
            "Shanghai" : [
                {
                    "hash" : "0xfc959f53db08706eb079c0416aae5494e74c2506d9420a8b914d3b79aca92028",
                    "indexes" : {
                        "data" : 0,
                        "gas" : 0,
                        "value" : 0
                    },
                    "logs" : "0x1dcc4de8dec75d7aab85b567b6ccd41ad312451b948a7413f0a142fd40d49347",
                    "txbytes" : "0xf85f800a82d6d894c94f5374fce5edbc8e2a8697c15331677e6ebf0b80801ba0218b16ddb45b30b08298f1b83b556fdb43f9b24298883a0a53a3901ace7c20b6a071786b1b966b14d9cca3eb42ff4d9a04248660ce2e727ca1e6c69d4014daddf4"
                }
            ]
        },
        "pre" : {
            "0x000f3df6d732807ef1319fb7b8bb8522d0beac02" : {
                "balance" : "0x00",
                "code" : "0x3373fffffffffffffffffffffffffffffffffffffffe14604d57602036146024575f5ffd5b5f35801560495762001fff810690815414603c575f5ffd5b62001fff01545f5260205ff35b5f5ffd5b62001fff42064281555f359062001fff015500",
                "nonce" : "0x01",
                "storage" : {
                }
            },
            "0xa94f5374fce5edbc8e2a8697c15331677e6ebf0b" : {
                "balance" : "0xe8d4a51000",
                "code" : "0x",
                "nonce" : "0x00",
                "storage" : {
                }
            },
            "0xb94f5374fce5edbc8e2a8697c15331677e6ebf0b" : {
                "balance" : "0x00",
                "code" : "0x6d6460016001556000526005601bf36000526000600e60126000f500",
                "nonce" : "0x00",
                "storage" : {
                }
            },
            "0xc94f5374fce5edbc8e2a8697c15331677e6ebf0b" : {
                "balance" : "0x00",
                "code" : "0x6020600060006000600073b94f5374fce5edbc8e2a8697c15331677e6ebf0b5af2506020600060003e60005160015500",
                "nonce" : "0x00",
                "storage" : {
                    "0x01" : "0x01"
                }
            }
        },
        "transaction" : {
            "data" : [
                "0x"
            ],
            "gasLimit" : [
                "0xd6d8"
            ],
            "gasPrice" : "0x0a",
            "nonce" : "0x00",
            "secretKey" : "0x45a915e4d060149eb4365960e6a7a45f334393093061116b197e3240065ff2d8",
            "sender" : "0xa94f5374fce5edbc8e2a8697c15331677e6ebf0b",
            "to" : "0xc94f5374fce5edbc8e2a8697c15331677e6ebf0b",
            "value" : [
                "0x00"
            ]
        }
    }
}