{
    "randomStatetest79BC_Cancun" : {
        "_info" : {
            "comment" : "",
            "filling-rpc-server" : "evm version 1.14.4-unstable-3d8028a6-20240513",
            "filling-tool-version" : "retesteth-0.3.2-cancun+commit.cae6bc33.Linux.g++",
            "generatedTestHash" : "ba8fb5bb38fb0c29b3d9f05dea10289e985953d2ee6ef9b8e9f7cccaab907a42",
            "lllcversion" : "Version: 0.5.14-develop.2023.7.11+commit.c58ab2c6.mod.Linux.g++",
            "solidity" : "Version: 0.8.21+commit.d9974bed.Linux.g++",
            "source" : "src/BlockchainTestsFiller/ValidBlocks/bcRandomBlockhashTest/randomStatetest79BCFiller.json",
            "sourceHash" : "c2c04354266a3d422945612bedfffee35b11d850f11d5623e429ed17ef4ab6c0"
        },
        "blocks" : [
            {
                "blockHeader" : {
                    "baseFeePerGas" : "0x0e",
                    "blobGasUsed" : "0x00",
                    "bloom" : "0x00000000000000000000000000000000000000000000000000000000000000000000000000000000000000000000000000000000000000000000000000000000000000000000000000000000000000000000000000000000000000000000000000000000000000000000000000000000000000000000000000000000000000000000000000000000000000000000000000000000000000000000000000000000000000000000000000000000000000000000000000000000000000000000000000000000000000000000000000000000000000000000000000000000000000000000000000000000000000000000000000000000000000000000000000000000",
                    "coinbase" : "0x945304eb96065b2a98b57a48a06ae28d285a71b5",
                    "difficulty" : "0x00",
                    "excessBlobGas" : "0x00",
                    "extraData" : "0x42",
                    "gasLimit" : "0x7fffffffffffffff",
                    "gasUsed" : "0xb040",
                    "hash" : "0x370cc55d2fa9d9d1ad11463e69a3b244e7811f5214bab51f4729a3c4df7cf77c",
                    "mixHash" : "0x0000000000000000000000000000000000000000000000000000000000020000",
                    "nonce" : "0x0000000000000000",
                    "number" : "0x01",
                    "parentBeaconBlockRoot" : "0x0000000000000000000000000000000000000000000000000000000000000000",
                    "parentHash" : "0xbb282190bc40d5ae090301d2f9410bac3a9b027714cd9c97256e66ecc4d904e1",
                    "receiptTrie" : "0x365e9132ed9e3573908d8b5ec10dfcb39e64c1f5648df2ebac623816e114728e",
                    "stateRoot" : "0xef7ae86052c5361c569d0d6a4628d47fbe2e8d3685877208356f21d721d12a6c",
                    "timestamp" : "0x03e8",
                    "transactionsTrie" : "0x2439072faec9bdf0b1f5a486412b7136f3185d0453e739e443a40f89d2c86d9e",
                    "uncleHash" : "0x1dcc4de8dec75d7aab85b567b6ccd41ad312451b948a7413f0a142fd40d49347",
                    "withdrawalsRoot" : "0x56e81f171bcc55a6ff8345e692c0f86e5b48e01b996cadc001622fb5e363b421"
                },
                "blocknumber" : "1",
                "chainname" : "default",
                "rlp" : "0xf90389f9023ea0bb282190bc40d5ae090301d2f9410bac3a9b027714cd9c97256e66ecc4d904e1a01dcc4de8dec75d7aab85b567b6ccd41ad312451b948a7413f0a142fd40d4934794945304eb96065b2a98b57a48a06ae28d285a71b5a0ef7ae86052c5361c569d0d6a4628d47fbe2e8d3685877208356f21d721d12a6ca02439072faec9bdf0b1f5a486412b7136f3185d0453e739e443a40f89d2c86d9ea0365e9132ed9e3573908d8b5ec10dfcb39e64c1f5648df2ebac623816e114728eb90100000000000000000000000000000000000000000000000000000000000000000000000000000000000000000000000000000000000000000000000000000000000000000000000000000000000000000000000000000000000000000000000000000000000000000000000000000000000000000000000000000000000000000000000000000000000000000000000000000000000000000000000000000000000000000000000000000000000000000000000000000000000000000000000000000000000000000000000000000000000000000000000000000000000000000000000000000000000000000000000000000000000000000000000000000000008001887fffffffffffffff82b0408203e842a000000000000000000000000000000000000000000000000000000000000200008800000000000000000ea056e81f171bcc55a6ff8345e692c0f86e5b48e01b996cadc001622fb5e363b4218080a00000000000000000000000000000000000000000000000000000000000000000f90143f90140808203e8845ed0901894095e7baea6a6c7c4c2dfeb977efac326af552d87841571e2aeb8d87f00000000000000000000000000000000000000000000000000000000000000017f00000000000000000000000000000000000000000000000000000000000000017f00000000000000000000000000000000000000000000000000000000000000017f00000000000000000000000000000000000000000000000000000000000000017ffffffffffffffffffffffffffffffffffffffffffffffffffffffffffffffffe40447ffffffffffffffffffffffffffffffffffffffffffffffffffffffffffffffffe6f6b0656903a860a0242881274078b431ba070d9e97047023b48454e231c585c5847e5dd77f2c39e95eaa3d32218f6ea80b9a00d794a2caa339f5926944fc8e63642e9ced2ff87a16782af9367340c9dd01c8fc0c0",
                "transactions" : [
                    {
                        "data" : "0x7f00000000000000000000000000000000000000000000000000000000000000017f00000000000000000000000000000000000000000000000000000000000000017f00000000000000000000000000000000000000000000000000000000000000017f00000000000000000000000000000000000000000000000000000000000000017ffffffffffffffffffffffffffffffffffffffffffffffffffffffffffffffffe40447ffffffffffffffffffffffffffffffffffffffffffffffffffffffffffffffffe6f6b0656903a860a0242881274078b43",
                        "gasLimit" : "0x5ed09018",
                        "gasPrice" : "0x03e8",
                        "nonce" : "0x00",
                        "r" : "0x70d9e97047023b48454e231c585c5847e5dd77f2c39e95eaa3d32218f6ea80b9",
                        "s" : "0x0d794a2caa339f5926944fc8e63642e9ced2ff87a16782af9367340c9dd01c8f",
                        "sender" : "0xa94f5374fce5edbc8e2a8697c15331677e6ebf0b",
                        "to" : "0x095e7baea6a6c7c4c2dfeb977efac326af552d87",
                        "v" : "0x1b",
                        "value" : "0x1571e2ae"
                    }
                ],
                "uncleHeaders" : [
                ],
                "withdrawals" : [
                ]
            }
        ],
        "genesisBlockHeader" : {
            "baseFeePerGas" : "0x10",
            "blobGasUsed" : "0x00",
            "bloom" : "0x00000000000000000000000000000000000000000000000000000000000000000000000000000000000000000000000000000000000000000000000000000000000000000000000000000000000000000000000000000000000000000000000000000000000000000000000000000000000000000000000000000000000000000000000000000000000000000000000000000000000000000000000000000000000000000000000000000000000000000000000000000000000000000000000000000000000000000000000000000000000000000000000000000000000000000000000000000000000000000000000000000000000000000000000000000000",
            "coinbase" : "0x945304eb96065b2a98b57a48a06ae28d285a71b5",
            "difficulty" : "0x00",
            "excessBlobGas" : "0x00",
            "extraData" : "0x42",
            "gasLimit" : "0x7fffffffffffffff",
            "gasUsed" : "0x00",
            "hash" : "0xbb282190bc40d5ae090301d2f9410bac3a9b027714cd9c97256e66ecc4d904e1",
            "mixHash" : "0x0000000000000000000000000000000000000000000000000000000000020000",
            "nonce" : "0x0000000000000000",
            "number" : "0x00",
            "parentBeaconBlockRoot" : "0x0000000000000000000000000000000000000000000000000000000000000000",
            "parentHash" : "0x0000000000000000000000000000000000000000000000000000000000000000",
            "receiptTrie" : "0x56e81f171bcc55a6ff8345e692c0f86e5b48e01b996cadc001622fb5e363b421",
            "stateRoot" : "0x4b4af090e74a739b4adbef4d54872cef684f614cffbb3bfbc7ddaee09e301f39",
            "timestamp" : "0x03b6",
            "transactionsTrie" : "0x56e81f171bcc55a6ff8345e692c0f86e5b48e01b996cadc001622fb5e363b421",
            "uncleHash" : "0x1dcc4de8dec75d7aab85b567b6ccd41ad312451b948a7413f0a142fd40d49347",
            "withdrawalsRoot" : "0x56e81f171bcc55a6ff8345e692c0f86e5b48e01b996cadc001622fb5e363b421"
        },
        "genesisRLP" : "0xf90242f9023ca00000000000000000000000000000000000000000000000000000000000000000a01dcc4de8dec75d7aab85b567b6ccd41ad312451b948a7413f0a142fd40d4934794945304eb96065b2a98b57a48a06ae28d285a71b5a04b4af090e74a739b4adbef4d54872cef684f614cffbb3bfbc7ddaee09e301f39a056e81f171bcc55a6ff8345e692c0f86e5b48e01b996cadc001622fb5e363b421a056e81f171bcc55a6ff8345e692c0f86e5b48e01b996cadc001622fb5e363b421b90100000000000000000000000000000000000000000000000000000000000000000000000000000000000000000000000000000000000000000000000000000000000000000000000000000000000000000000000000000000000000000000000000000000000000000000000000000000000000000000000000000000000000000000000000000000000000000000000000000000000000000000000000000000000000000000000000000000000000000000000000000000000000000000000000000000000000000000000000000000000000000000000000000000000000000000000000000000000000000000000000000000000000000000000000000000008080887fffffffffffffff808203b642a0000000000000000000000000000000000000000000000000000000000002000088000000000000000010a056e81f171bcc55a6ff8345e692c0f86e5b48e01b996cadc001622fb5e363b4218080a00000000000000000000000000000000000000000000000000000000000000000c0c0c0",
        "lastblockhash" : "0x370cc55d2fa9d9d1ad11463e69a3b244e7811f5214bab51f4729a3c4df7cf77c",
        "network" : "Cancun",
        "postState" : {
            "0x000f3df6d732807ef1319fb7b8bb8522d0beac02" : {
                "balance" : "0x00",
                "code" : "0x3373fffffffffffffffffffffffffffffffffffffffe14604d57602036146024575f5ffd5b5f35801560495762001fff810690815414603c575f5ffd5b62001fff01545f5260205ff35b5f5ffd5b62001fff42064281555f359062001fff015500",
                "nonce" : "0x01",
                "storage" : {
                    "0x03b6" : "0x03b6",
                    "0x03e8" : "0x03e8",
                    "0x079e" : "0x079e"
                }
            },
            "0x095e7baea6a6c7c4c2dfeb977efac326af552d87" : {
                "balance" : "0x1571e2ae",
                "code" : "0x7f00000000000000000000000000000000000000000000000000000000000000017f00000000000000000000000000000000000000000000000000000000000000017f00000000000000000000000000000000000000000000000000000000000000017f00000000000000000000000000000000000000000000000000000000000000017ffffffffffffffffffffffffffffffffffffffffffffffffffffffffffffffffe40447ffffffffffffffffffffffffffffffffffffffffffffffffffffffffffffffffe6f6b0656903a860a0242881274078b435560005155",
                "nonce" : "0x00",
                "storage" : {
                    "0x00" : "0x6b0656903a860a0242881274078b4355"
                }
            },
            "0x945304eb96065b2a98b57a48a06ae28d285a71b5" : {
                "balance" : "0x02a6d6ae",
                "code" : "0x6000355415600957005b60203560003555",
                "nonce" : "0x00",
                "storage" : {
                }
            },
            "0xa94f5374fce5edbc8e2a8697c15331677e6ebf0b" : {
                "balance" : "0x0de0b6b38f41a352",
                "code" : "0x",
                "nonce" : "0x01",
                "storage" : {
                }
            }
        },
        "pre" : {
            "0x000f3df6d732807ef1319fb7b8bb8522d0beac02" : {
                "balance" : "0x00",
                "code" : "0x3373fffffffffffffffffffffffffffffffffffffffe14604d57602036146024575f5ffd5b5f35801560495762001fff810690815414603c575f5ffd5b62001fff01545f5260205ff35b5f5ffd5b62001fff42064281555f359062001fff015500",
                "nonce" : "0x01",
                "storage" : {
                    "0x03b6" : "0x03b6",
                    "0x03e8" : "0x03e8",
                    "0x079e" : "0x079e"
                }
            },
            "0x095e7baea6a6c7c4c2dfeb977efac326af552d87" : {
                "balance" : "0x00",
                "code" : "0x7f00000000000000000000000000000000000000000000000000000000000000017f00000000000000000000000000000000000000000000000000000000000000017f00000000000000000000000000000000000000000000000000000000000000017f00000000000000000000000000000000000000000000000000000000000000017ffffffffffffffffffffffffffffffffffffffffffffffffffffffffffffffffe40447ffffffffffffffffffffffffffffffffffffffffffffffffffffffffffffffffe6f6b0656903a860a0242881274078b435560005155",
                "nonce" : "0x00",
                "storage" : {
                }
            },
            "0x945304eb96065b2a98b57a48a06ae28d285a71b5" : {
                "balance" : "0x2e",
                "code" : "0x6000355415600957005b60203560003555",
                "nonce" : "0x00",
                "storage" : {
                }
            },
            "0xa94f5374fce5edbc8e2a8697c15331677e6ebf0b" : {
                "balance" : "0x0de0b6b3a7640000",
                "code" : "0x",
                "nonce" : "0x00",
                "storage" : {
                }
            }
        },
        "sealEngine" : "NoProof"
    }
}