{
    "randomStatetest224BC_Cancun" : {
        "_info" : {
            "comment" : "",
            "filling-rpc-server" : "evm version 1.14.4-unstable-3d8028a6-20240513",
            "filling-tool-version" : "retesteth-0.3.2-cancun+commit.cae6bc33.Linux.g++",
            "generatedTestHash" : "4a9d697a2eadb7a7f539b3b0c76a43a7bd3b4b651af3a82e3f10d5abb9bb301b",
            "lllcversion" : "Version: 0.5.14-develop.2023.7.11+commit.c58ab2c6.mod.Linux.g++",
            "solidity" : "Version: 0.8.21+commit.d9974bed.Linux.g++",
            "source" : "src/BlockchainTestsFiller/ValidBlocks/bcRandomBlockhashTest/randomStatetest224BCFiller.json",
            "sourceHash" : "83c8b6c5a975c766167578ab32a9f660202692075e30dae9cab9373db9499aa3"
        },
        "blocks" : [
            {
                "blockHeader" : {
                    "baseFeePerGas" : "0x0e",
                    "blobGasUsed" : "0x00",
                    "bloom" : "0x00000000000000001000000000000000000000000000000000000000000000000000000000000000000000000000000000000010000000000000000000000000000000000000000000000000000000000000000000000000800000000000000000000000000000000000000004000000000000000000000000000000000000200000000000000000000000000000000000000000000000000000000000000000000000000000000004000000000000000008000010000000000000000000000000000000000000200000000000000000000000000040000000000000000000000000000040000000000000000000000000000010000000000000000000000000",
                    "coinbase" : "0x945304eb96065b2a98b57a48a06ae28d285a71b5",
                    "difficulty" : "0x00",
                    "excessBlobGas" : "0x00",
                    "extraData" : "0x42",
                    "gasLimit" : "0x7fffffffffffffff",
                    "gasUsed" : "0x16983d",
                    "hash" : "0xa3ac2a462b0e67d5056ef8e389b96491c9ecd94f1a8ea92eeffe240d14ffa098",
                    "mixHash" : "0x0000000000000000000000000000000000000000000000000000000000020000",
                    "nonce" : "0x0000000000000000",
                    "number" : "0x01",
                    "parentBeaconBlockRoot" : "0x0000000000000000000000000000000000000000000000000000000000000000",
                    "parentHash" : "0x7cb61e70bb2959371e114fdb0885f896445d3f5771fefbea1c317d7a65fa1376",
                    "receiptTrie" : "0x816d21ad687e1c4cf0d9cd3578f6e5c467bf9046b937f56ba68b4ba2b06f4fbb",
                    "stateRoot" : "0x5b22363713f608b8172def985f9b857ea97ac018d4394eeabd5aea8eb57743dc",
                    "timestamp" : "0x03e8",
                    "transactionsTrie" : "0x38389afd1dea42eae85fc64e1358f91187a80e2a1eb5df6cd8120899b4cf43f7",
                    "uncleHash" : "0x1dcc4de8dec75d7aab85b567b6ccd41ad312451b948a7413f0a142fd40d49347",
                    "withdrawalsRoot" : "0x56e81f171bcc55a6ff8345e692c0f86e5b48e01b996cadc001622fb5e363b421"
                },
                "blocknumber" : "1",
                "chainname" : "default",
                "rlp" : "0xf903a8f9023fa07cb61e70bb2959371e114fdb0885f896445d3f5771fefbea1c317d7a65fa1376a01dcc4de8dec75d7aab85b567b6ccd41ad312451b948a7413f0a142fd40d4934794945304eb96065b2a98b57a48a06ae28d285a71b5a05b22363713f608b8172def985f9b857ea97ac018d4394eeabd5aea8eb57743dca038389afd1dea42eae85fc64e1358f91187a80e2a1eb5df6cd8120899b4cf43f7a0816d21ad687e1c4cf0d9cd3578f6e5c467bf9046b937f56ba68b4ba2b06f4fbbb90100000000000000000010000000000000000000000000000000000000000000000000000000000000000000000000000000000000100000000000000000000000000000000000000000000000000000000000000000000000008000000000000000000000000000000000000000040000000000000000000000000000000000002000000000000000000000000000000000000000000000000000000000000000000000000000000000040000000000000000080000100000000000000000000000000000000000002000000000000000000000000000400000000000000000000000000000400000000000000000000000000000100000000000000000000000008001887fffffffffffffff8316983d8203e842a000000000000000000000000000000000000000000000000000000000000200008800000000000000000ea056e81f171bcc55a6ff8345e692c0f86e5b48e01b996cadc001622fb5e363b4218080a00000000000000000000000000000000000000000000000000000000000000000f90161f9015e808203e884450bec9494095e7baea6a6c7c4c2dfeb977efac326af552d87846974fd0db8f67f00000000000000000000000000000000000000000000000000000000000000017f0000000000000000000000010000000000000000000000000000000000000000407f000000000000000000000000000000000000000000000000000000000000c3507fffffffffffffffffffffffffffffffffffffffffffffffffffffffffffffffff7ffffffffffffffffffffffffffffffffffffffffffffffffffffffffffffffffe7f00000000000000000000000000000000000000000000000000000000000000007f00000000000000000000000100000000000000000000000000000000000000001a6202a31690a3a06f6e9307039b1ca072799fa65f1a1a8c25335a0db05658a7103802dd1fa42665496b63bfa27eebfda01d33f173c3a75161ca3f6a824229032f1cc06548f305d3f4a085ac4e8fa4131bc0c0",
                "transactions" : [
                    {
                        "data" : "0x7f00000000000000000000000000000000000000000000000000000000000000017f0000000000000000000000010000000000000000000000000000000000000000407f000000000000000000000000000000000000000000000000000000000000c3507fffffffffffffffffffffffffffffffffffffffffffffffffffffffffffffffff7ffffffffffffffffffffffffffffffffffffffffffffffffffffffffffffffffe7f00000000000000000000000000000000000000000000000000000000000000007f00000000000000000000000100000000000000000000000000000000000000001a6202a31690a3a06f6e9307039b",
                        "gasLimit" : "0x450bec94",
                        "gasPrice" : "0x03e8",
                        "nonce" : "0x00",
                        "r" : "0x72799fa65f1a1a8c25335a0db05658a7103802dd1fa42665496b63bfa27eebfd",
                        "s" : "0x1d33f173c3a75161ca3f6a824229032f1cc06548f305d3f4a085ac4e8fa4131b",
                        "sender" : "0xa94f5374fce5edbc8e2a8697c15331677e6ebf0b",
                        "to" : "0x095e7baea6a6c7c4c2dfeb977efac326af552d87",
                        "v" : "0x1c",
                        "value" : "0x6974fd0d"
                    }
                ],
                "uncleHeaders" : [
                ],
                "withdrawals" : [
                ]
            }
        ],
        "genesisBlockHeader" : {
            "baseFeePerGas" : "0x10",
            "blobGasUsed" : "0x00",
            "bloom" : "0x00000000000000000000000000000000000000000000000000000000000000000000000000000000000000000000000000000000000000000000000000000000000000000000000000000000000000000000000000000000000000000000000000000000000000000000000000000000000000000000000000000000000000000000000000000000000000000000000000000000000000000000000000000000000000000000000000000000000000000000000000000000000000000000000000000000000000000000000000000000000000000000000000000000000000000000000000000000000000000000000000000000000000000000000000000000",
            "coinbase" : "0x945304eb96065b2a98b57a48a06ae28d285a71b5",
            "difficulty" : "0x00",
            "excessBlobGas" : "0x00",
            "extraData" : "0x42",
            "gasLimit" : "0x7fffffffffffffff",
            "gasUsed" : "0x00",
            "hash" : "0x7cb61e70bb2959371e114fdb0885f896445d3f5771fefbea1c317d7a65fa1376",
            "mixHash" : "0x0000000000000000000000000000000000000000000000000000000000020000",
            "nonce" : "0x0000000000000000",
            "number" : "0x00",
            "parentBeaconBlockRoot" : "0x0000000000000000000000000000000000000000000000000000000000000000",
            "parentHash" : "0x0000000000000000000000000000000000000000000000000000000000000000",
            "receiptTrie" : "0x56e81f171bcc55a6ff8345e692c0f86e5b48e01b996cadc001622fb5e363b421",
            "stateRoot" : "0xcd8d3c662f41cf526c831657b41579fc59cc0efd4549149e0a4d3eeb573d47c2",
            "timestamp" : "0x03b6",
            "transactionsTrie" : "0x56e81f171bcc55a6ff8345e692c0f86e5b48e01b996cadc001622fb5e363b421",
            "uncleHash" : "0x1dcc4de8dec75d7aab85b567b6ccd41ad312451b948a7413f0a142fd40d49347",
            "withdrawalsRoot" : "0x56e81f171bcc55a6ff8345e692c0f86e5b48e01b996cadc001622fb5e363b421"
        },
        "genesisRLP" : "0xf90242f9023ca00000000000000000000000000000000000000000000000000000000000000000a01dcc4de8dec75d7aab85b567b6ccd41ad312451b948a7413f0a142fd40d4934794945304eb96065b2a98b57a48a06ae28d285a71b5a0cd8d3c662f41cf526c831657b41579fc59cc0efd4549149e0a4d3eeb573d47c2a056e81f171bcc55a6ff8345e692c0f86e5b48e01b996cadc001622fb5e363b421a056e81f171bcc55a6ff8345e692c0f86e5b48e01b996cadc001622fb5e363b421b90100000000000000000000000000000000000000000000000000000000000000000000000000000000000000000000000000000000000000000000000000000000000000000000000000000000000000000000000000000000000000000000000000000000000000000000000000000000000000000000000000000000000000000000000000000000000000000000000000000000000000000000000000000000000000000000000000000000000000000000000000000000000000000000000000000000000000000000000000000000000000000000000000000000000000000000000000000000000000000000000000000000000000000000000000000000008080887fffffffffffffff808203b642a0000000000000000000000000000000000000000000000000000000000002000088000000000000000010a056e81f171bcc55a6ff8345e692c0f86e5b48e01b996cadc001622fb5e363b4218080a00000000000000000000000000000000000000000000000000000000000000000c0c0c0",
        "lastblockhash" : "0xa3ac2a462b0e67d5056ef8e389b96491c9ecd94f1a8ea92eeffe240d14ffa098",
        "network" : "Cancun",
        "postState" : {
            "0x000f3df6d732807ef1319fb7b8bb8522d0beac02" : {
                "balance" : "0x00",
                "code" : "0x3373fffffffffffffffffffffffffffffffffffffffe14604d57602036146024575f5ffd5b5f35801560495762001fff810690815414603c575f5ffd5b62001fff01545f5260205ff35b5f5ffd5b62001fff42064281555f359062001fff015500",
                "nonce" : "0x01",
                "storage" : {
                    "0x03b6" : "0x03b6",
                    "0x03e8" : "0x03e8",
                    "0x079e" : "0x079e"
                }
            },
            "0x095e7baea6a6c7c4c2dfeb977efac326af552d87" : {
                "balance" : "0x6974fd0d",
                "code" : "0x7f00000000000000000000000000000000000000000000000000000000000000017f0000000000000000000000010000000000000000000000000000000000000000407f000000000000000000000000000000000000000000000000000000000000c3507fffffffffffffffffffffffffffffffffffffffffffffffffffffffffffffffff7ffffffffffffffffffffffffffffffffffffffffffffffffffffffffffffffffe7f00000000000000000000000000000000000000000000000000000000000000007f00000000000000000000000100000000000000000000000000000000000000001a6202a31690a3a06f6e9307039b",
                "nonce" : "0x00",
                "storage" : {
                }
            },
            "0x945304eb96065b2a98b57a48a06ae28d285a71b5" : {
                "balance" : "0x57065b20",
                "code" : "0x6000355415600957005b60203560003555",
                "nonce" : "0x00",
                "storage" : {
                }
            },
            "0xa94f5374fce5edbc8e2a8697c15331677e6ebf0b" : {
                "balance" : "0x0de0b6b2e5ac54ab",
                "code" : "0x",
                "nonce" : "0x01",
                "storage" : {
                }
            }
        },
        "pre" : {
            "0x000f3df6d732807ef1319fb7b8bb8522d0beac02" : {
                "balance" : "0x00",
                "code" : "0x3373fffffffffffffffffffffffffffffffffffffffe14604d57602036146024575f5ffd5b5f35801560495762001fff810690815414603c575f5ffd5b62001fff01545f5260205ff35b5f5ffd5b62001fff42064281555f359062001fff015500",
                "nonce" : "0x01",
                "storage" : {
                    "0x03b6" : "0x03b6",
                    "0x03e8" : "0x03e8",
                    "0x079e" : "0x079e"
                }
            },
            "0x095e7baea6a6c7c4c2dfeb977efac326af552d87" : {
                "balance" : "0x00",
                "code" : "0x7f00000000000000000000000000000000000000000000000000000000000000017f0000000000000000000000010000000000000000000000000000000000000000407f000000000000000000000000000000000000000000000000000000000000c3507fffffffffffffffffffffffffffffffffffffffffffffffffffffffffffffffff7ffffffffffffffffffffffffffffffffffffffffffffffffffffffffffffffffe7f00000000000000000000000000000000000000000000000000000000000000007f00000000000000000000000100000000000000000000000000000000000000001a6202a31690a3a06f6e9307039b",
                "nonce" : "0x00",
                "storage" : {
                }
            },
            "0x945304eb96065b2a98b57a48a06ae28d285a71b5" : {
                "balance" : "0x2e",
                "code" : "0x6000355415600957005b60203560003555",
                "nonce" : "0x00",
                "storage" : {
                }
            },
            "0xa94f5374fce5edbc8e2a8697c15331677e6ebf0b" : {
                "balance" : "0x0de0b6b3a7640000",
                "code" : "0x",
                "nonce" : "0x00",
                "storage" : {
                }
            }
        },
        "sealEngine" : "NoProof"
    }
}