{
    "recursiveCreate" : {
        "_info" : {
            "comment" : "",
            "filling-rpc-server" : "evm version 1.13.5-unstable-cd295356-20231019",
            "filling-tool-version" : "retesteth-0.3.1-cancun+commit.1e18e0b3.Linux.g++",
            "generatedTestHash" : "f32b722f87410035c8de2eca8cd37a0a8b533b06dce6d8c4319d674677d41e9d",
            "lllcversion" : "Version: 0.5.14-develop.2023.7.11+commit.c58ab2c6.mod.Linux.g++",
            "solidity" : "Version: 0.8.21+commit.d9974bed.Linux.g++",
            "source" : "src/GeneralStateTestsFiller/stRecursiveCreate/recursiveCreateFiller.json",
            "sourceHash" : "ad311df5585d51344d6d8c56296ba25e16254e1dc83a6b3dc82439c10e4cf943"
        },
        "env" : {
            "currentBaseFee" : "0x0a",
            "currentBeaconRoot" : "0x0000000000000000000000000000000000000000000000000000000000000000",
            "currentCoinbase" : "0x2adc25665018aa1fe0e6bc666dac8fc2697ff9ba",
            "currentDifficulty" : "0x020000",
            "currentGasLimit" : "0x989680",
            "currentNumber" : "0x01",
            "currentRandom" : "0x0000000000000000000000000000000000000000000000000000000000020000",
            "currentTimestamp" : "0x03e8",
            "currentWithdrawalsRoot" : "0x56e81f171bcc55a6ff8345e692c0f86e5b48e01b996cadc001622fb5e363b421",
            "previousHash" : "0x5e20a0453cecd065ea59c37ac63e079ee08998b6045136a8ce6635c7912ec0b6"
        },
        "post" : {
            "Berlin" : [
                {
                    "hash" : "0x4dd18f90b54e05e0ee20af058f9f3dfc5da962b26303986c018cf7c6eb759420",
                    "indexes" : {
                        "data" : 0,
                        "gas" : 0,
                        "value" : 0
                    },
                    "logs" : "0x1dcc4de8dec75d7aab85b567b6ccd41ad312451b948a7413f0a142fd40d49347",
                    "txbytes" : "0xf863800a8307194894095e7baea6a6c7c4c2dfeb977efac326af552d87830186a0801ba0e09f431eb694e4b46e0eb325c6da0bc8cb60445e99a81f866cb7f4e49e59a03da00ed1cab2222bf904d208f6d0a7b6f6ee0964fabba0664d33b4c9af6bb5437ea9"
                }
            ],
            "Cancun" : [
                {
                    "hash" : "0x47a85e3898757686eaf282fa2e1e38a3453a6e21343b886524351c60911bc6ca",
                    "indexes" : {
                        "data" : 0,
                        "gas" : 0,
                        "value" : 0
                    },
                    "logs" : "0x1dcc4de8dec75d7aab85b567b6ccd41ad312451b948a7413f0a142fd40d49347",
                    "txbytes" : "0xf863800a8307194894095e7baea6a6c7c4c2dfeb977efac326af552d87830186a0801ba0e09f431eb694e4b46e0eb325c6da0bc8cb60445e99a81f866cb7f4e49e59a03da00ed1cab2222bf904d208f6d0a7b6f6ee0964fabba0664d33b4c9af6bb5437ea9"
                }
            ],
            "Istanbul" : [
                {
                    "hash" : "0x4dd18f90b54e05e0ee20af058f9f3dfc5da962b26303986c018cf7c6eb759420",
                    "indexes" : {
                        "data" : 0,
                        "gas" : 0,
                        "value" : 0
                    },
                    "logs" : "0x1dcc4de8dec75d7aab85b567b6ccd41ad312451b948a7413f0a142fd40d49347",
                    "txbytes" : "0xf863800a8307194894095e7baea6a6c7c4c2dfeb977efac326af552d87830186a0801ba0e09f431eb694e4b46e0eb325c6da0bc8cb60445e99a81f866cb7f4e49e59a03da00ed1cab2222bf904d208f6d0a7b6f6ee0964fabba0664d33b4c9af6bb5437ea9"
                }
            ],
            "London" : [
                {
                    "hash" : "0x994f71d9ed303253fc523f87de7628d1b97d03eec0627743ad5e4d861805e1d3",
                    "indexes" : {
                        "data" : 0,
                        "gas" : 0,
                        "value" : 0
                    },
                    "logs" : "0x1dcc4de8dec75d7aab85b567b6ccd41ad312451b948a7413f0a142fd40d49347",
                    "txbytes" : "0xf863800a8307194894095e7baea6a6c7c4c2dfeb977efac326af552d87830186a0801ba0e09f431eb694e4b46e0eb325c6da0bc8cb60445e99a81f866cb7f4e49e59a03da00ed1cab2222bf904d208f6d0a7b6f6ee0964fabba0664d33b4c9af6bb5437ea9"
                }
            ],
            "Merge" : [
                {
                    "hash" : "0x994f71d9ed303253fc523f87de7628d1b97d03eec0627743ad5e4d861805e1d3",
                    "indexes" : {
                        "data" : 0,
                        "gas" : 0,
                        "value" : 0
                    },
                    "logs" : "0x1dcc4de8dec75d7aab85b567b6ccd41ad312451b948a7413f0a142fd40d49347",
                    "txbytes" : "0xf863800a8307194894095e7baea6a6c7c4c2dfeb977efac326af552d87830186a0801ba0e09f431eb694e4b46e0eb325c6da0bc8cb60445e99a81f866cb7f4e49e59a03da00ed1cab2222bf904d208f6d0a7b6f6ee0964fabba0664d33b4c9af6bb5437ea9"
                }
            ],
            "Shanghai" : [
                {
                    "hash" : "0x47a85e3898757686eaf282fa2e1e38a3453a6e21343b886524351c60911bc6ca",
                    "indexes" : {
                        "data" : 0,
                        "gas" : 0,
                        "value" : 0
                    },
                    "logs" : "0x1dcc4de8dec75d7aab85b567b6ccd41ad312451b948a7413f0a142fd40d49347",
                    "txbytes" : "0xf863800a8307194894095e7baea6a6c7c4c2dfeb977efac326af552d87830186a0801ba0e09f431eb694e4b46e0eb325c6da0bc8cb60445e99a81f866cb7f4e49e59a03da00ed1cab2222bf904d208f6d0a7b6f6ee0964fabba0664d33b4c9af6bb5437ea9"
                }
            ]
        },
        "pre" : {
            "0x095e7baea6a6c7c4c2dfeb977efac326af552d87" : {
                "balance" : "0x01312d00",
                "code" : "0x60206000600039602060006000f000",
                "nonce" : "0x00",
                "storage" : {
                }
            },
            "0xa94f5374fce5edbc8e2a8697c15331677e6ebf0b" : {
                "balance" : "0x0de0b6b3a7640000",
                "code" : "0x",
                "nonce" : "0x00",
                "storage" : {
                }
            }
        },
        "transaction" : {
            "data" : [
                "0x"
            ],
            "gasLimit" : [
                "0x071948"
            ],
            "gasPrice" : "0x0a",
            "nonce" : "0x00",
            "secretKey" : "0x45a915e4d060149eb4365960e6a7a45f334393093061116b197e3240065ff2d8",
            "sender" : "0xa94f5374fce5edbc8e2a8697c15331677e6ebf0b",
            "to" : "0x095e7baea6a6c7c4c2dfeb977efac326af552d87",
            "value" : [
                "0x0186a0"
            ]
        }
    }
}