{
    "EXP_Empty_d0g0v0_Berlin" : {
        "_info" : {
            "comment" : "",
            "filling-rpc-server" : "evm version 1.10.2-unstable-22082f9e-20210309",
            "filling-tool-version" : "retesteth-0.1.0-accesslist+commit.47c69eb3.Linux.g++",
            "lllcversion" : "Version: 0.5.14-develop.2020.6.22+commit.9189ad7a.Linux.g++",
            "source" : "src/GeneralStateTestsFiller/stEIP158Specific/EXP_EmptyFiller.json",
            "sourceHash" : "57209ed4ffb9edd86e72e8c78092c1e263c6e9013503e4deff1b10c1bab01db5"
        },
        "genesisBlockHeader" : {
            "bloom" : "0x00000000000000000000000000000000000000000000000000000000000000000000000000000000000000000000000000000000000000000000000000000000000000000000000000000000000000000000000000000000000000000000000000000000000000000000000000000000000000000000000000000000000000000000000000000000000000000000000000000000000000000000000000000000000000000000000000000000000000000000000000000000000000000000000000000000000000000000000000000000000000000000000000000000000000000000000000000000000000000000000000000000000000000000000000000000",
            "coinbase" : "0x2adc25665018aa1fe0e6bc666dac8fc2697ff9ba",
            "difficulty" : "0x020000",
            "extraData" : "0x00",
            "gasLimit" : "0x989680",
            "gasUsed" : "0x00",
            "hash" : "0xcaad002d60b1600e35de03a3ab1a28c32f891a86bb697981a32e5b217f7d4408",
            "mixHash" : "0x0000000000000000000000000000000000000000000000000000000000000000",
            "nonce" : "0x0000000000000000",
            "number" : "0x00",
            "parentHash" : "0x0000000000000000000000000000000000000000000000000000000000000000",
            "receiptTrie" : "0x56e81f171bcc55a6ff8345e692c0f86e5b48e01b996cadc001622fb5e363b421",
            "stateRoot" : "0xe24b7bc9e91b4cb0514c2acaaf6f4bd0a62054ed90e348e6db30b1fc262ad831",
            "timestamp" : "0x00",
            "transactionsTrie" : "0x56e81f171bcc55a6ff8345e692c0f86e5b48e01b996cadc001622fb5e363b421",
            "uncleHash" : "0x1dcc4de8dec75d7aab85b567b6ccd41ad312451b948a7413f0a142fd40d49347"
        },
        "pre" : {
            "0xa94f5374fce5edbc8e2a8697c15331677e6ebf0b" : {
                "balance" : "0xe8d4a51000",
                "code" : "0x",
                "nonce" : "0x00",
                "storage" : {
                }
            },
            "0xb94f5374fce5edbc8e2a8697c15331677e6ebf0b" : {
                "balance" : "0x00",
                "code" : "0x5a600052600c60000a6001555a600051036002555a6000526000600c0a6003555a600051036004555a60005267ffffffffffffffff60000a6005555a600051036006555a6000526fffffffffffffffffffffffffffffffff60000a6007555a600051036008555a6000527fffffffffffffffffffffffffffffffffffffffffffffffffffffffffffffffff60000a6009555a60005103600a555a600052600067ffffffffffffffff0a600b555a60005103600c555a60005260006fffffffffffffffffffffffffffffffff0a600d555a60005103600e555a60005260007fffffffffffffffffffffffffffffffffffffffffffffffffffffffffffffffff0a600f555a6000510360645500",
                "nonce" : "0x00",
                "storage" : {
                }
            }
        },
        "postState" : {
            "0x2adc25665018aa1fe0e6bc666dac8fc2697ff9ba" : {
                "code" : "0x",
                "nonce" : "0x00",
                "balance" : "0x1bc16d674ecc8cc5",
                "storage" : {
                }
            },
            "0xa94f5374fce5edbc8e2a8697c15331677e6ebf0b" : {
                "code" : "0x",
                "nonce" : "0x01",
                "balance" : "0xe8d4a0833b",
                "storage" : {
                }
            },
            "0xb94f5374fce5edbc8e2a8697c15331677e6ebf0b" : {
                "code" : "0x5a600052600c60000a6001555a600051036002555a6000526000600c0a6003555a600051036004555a60005267ffffffffffffffff60000a6005555a600051036006555a6000526fffffffffffffffffffffffffffffffff60000a6007555a600051036008555a6000527fffffffffffffffffffffffffffffffffffffffffffffffffffffffffffffffff60000a6009555a60005103600a555a600052600067ffffffffffffffff0a600b555a60005103600c555a60005260006fffffffffffffffffffffffffffffffff0a600d555a60005103600e555a60005260007fffffffffffffffffffffffffffffffffffffffffffffffffffffffffffffffff0a600f555a6000510360645500",
                "nonce" : "0x00",
                "balance" : "0x00",
                "storage" : {
                    "0x02" : "0x08e8",
                    "0x03" : "0x01",
                    "0x04" : "0x566f",
                    "0x06" : "0x0a43",
                    "0x08" : "0x0bd3",
                    "0x0a" : "0x0ef3",
                    "0x0b" : "0x01",
                    "0x0c" : "0x566f",
                    "0x0d" : "0x01",
                    "0x0e" : "0x566f",
                    "0x0f" : "0x01",
                    "0x64" : "0x566f"
                }
            }
        },
        "network" : "Berlin",
        "sealEngine" : "NoProof",
        "lastblockhash" : "0x824a492788f42188bafe9c890bad7dac61b74ea99ddf515ff93645f328394b7a",
        "genesisRLP" : "0xf901f8f901f3a00000000000000000000000000000000000000000000000000000000000000000a01dcc4de8dec75d7aab85b567b6ccd41ad312451b948a7413f0a142fd40d49347942adc25665018aa1fe0e6bc666dac8fc2697ff9baa0e24b7bc9e91b4cb0514c2acaaf6f4bd0a62054ed90e348e6db30b1fc262ad831a056e81f171bcc55a6ff8345e692c0f86e5b48e01b996cadc001622fb5e363b421a056e81f171bcc55a6ff8345e692c0f86e5b48e01b996cadc001622fb5e363b421b9010000000000000000000000000000000000000000000000000000000000000000000000000000000000000000000000000000000000000000000000000000000000000000000000000000000000000000000000000000000000000000000000000000000000000000000000000000000000000000000000000000000000000000000000000000000000000000000000000000000000000000000000000000000000000000000000000000000000000000000000000000000000000000000000000000000000000000000000000000000000000000000000000000000000000000000000000000000000000000000000000000000000000000000000000000000000830200008083989680808000a00000000000000000000000000000000000000000000000000000000000000000880000000000000000c0c0",
        "blocks" : [
            {
                "rlp" : "0xf90260f901f8a0caad002d60b1600e35de03a3ab1a28c32f891a86bb697981a32e5b217f7d4408a01dcc4de8dec75d7aab85b567b6ccd41ad312451b948a7413f0a142fd40d49347942adc25665018aa1fe0e6bc666dac8fc2697ff9baa0ba0807456d50f15667fb4ecd3f324c38aaa96489457f6ea3007d527c1e7c079ea059652e5662eb625efd106d67b9b25d3c12a15e69494d1d24f59d867c211f6761a0383ad2d340de8e759e0f8ce86c541591497697d38871017d9027a39327a8c17db901000000000000000000000000000000000000000000000000000000000000000000000000000000000000000000000000000000000000000000000000000000000000000000000000000000000000000000000000000000000000000000000000000000000000000000000000000000000000000000000000000000000000000000000000000000000000000000000000000000000000000000000000000000000000000000000000000000000000000000000000000000000000000000000000000000000000000000000000000000000000000000000000000000000000000000000000000000000000000000000000000000000000000000000000000000000083020000018398968083048cc58203e800a00000000000000000000000000000000000000000000000000000000000000000880000000000000000f862f8608001830927c094b94f5374fce5edbc8e2a8697c15331677e6ebf0b80801ba08d0699f23d032b86db35ed7bb39c2357bec870fbfbe7db30b1795d320d8965c6a002f578fd949e84f0dc1307f5dd714c9a7158b31891d43f45459edcb52e345f7cc0",
                "blockHeader" : {
                    "bloom" : "0x00000000000000000000000000000000000000000000000000000000000000000000000000000000000000000000000000000000000000000000000000000000000000000000000000000000000000000000000000000000000000000000000000000000000000000000000000000000000000000000000000000000000000000000000000000000000000000000000000000000000000000000000000000000000000000000000000000000000000000000000000000000000000000000000000000000000000000000000000000000000000000000000000000000000000000000000000000000000000000000000000000000000000000000000000000000",
                    "coinbase" : "0x2adc25665018aa1fe0e6bc666dac8fc2697ff9ba",
                    "difficulty" : "0x020000",
                    "extraData" : "0x00",
                    "gasLimit" : "0x989680",
                    "gasUsed" : "0x048cc5",
                    "hash" : "0x824a492788f42188bafe9c890bad7dac61b74ea99ddf515ff93645f328394b7a",
                    "mixHash" : "0x0000000000000000000000000000000000000000000000000000000000000000",
                    "nonce" : "0x0000000000000000",
                    "number" : "0x01",
                    "parentHash" : "0xcaad002d60b1600e35de03a3ab1a28c32f891a86bb697981a32e5b217f7d4408",
                    "receiptTrie" : "0x383ad2d340de8e759e0f8ce86c541591497697d38871017d9027a39327a8c17d",
                    "stateRoot" : "0xba0807456d50f15667fb4ecd3f324c38aaa96489457f6ea3007d527c1e7c079e",
                    "timestamp" : "0x03e8",
                    "transactionsTrie" : "0x59652e5662eb625efd106d67b9b25d3c12a15e69494d1d24f59d867c211f6761",
                    "uncleHash" : "0x1dcc4de8dec75d7aab85b567b6ccd41ad312451b948a7413f0a142fd40d49347"
                },
                "transactions" : [
                    {
                        "data" : "0x",
                        "gasLimit" : "0x0927c0",
                        "gasPrice" : "0x01",
                        "nonce" : "0x00",
                        "to" : "0xb94f5374fce5edbc8e2a8697c15331677e6ebf0b",
                        "value" : "0x00",
                        "v" : "0x1b",
                        "r" : "0x8d0699f23d032b86db35ed7bb39c2357bec870fbfbe7db30b1795d320d8965c6",
                        "s" : "0x02f578fd949e84f0dc1307f5dd714c9a7158b31891d43f45459edcb52e345f7c"
                    }
                ],
                "uncleHeaders" : [
                ]
            }
        ]
    },
    "EXP_Empty_d0g0v0_Istanbul" : {
        "_info" : {
            "comment" : "",
            "filling-rpc-server" : "evm version 1.10.2-unstable-22082f9e-20210309",
            "filling-tool-version" : "retesteth-0.1.0-accesslist+commit.47c69eb3.Linux.g++",
            "lllcversion" : "Version: 0.5.14-develop.2020.6.22+commit.9189ad7a.Linux.g++",
            "source" : "src/GeneralStateTestsFiller/stEIP158Specific/EXP_EmptyFiller.json",
            "sourceHash" : "57209ed4ffb9edd86e72e8c78092c1e263c6e9013503e4deff1b10c1bab01db5"
        },
        "genesisBlockHeader" : {
            "bloom" : "0x00000000000000000000000000000000000000000000000000000000000000000000000000000000000000000000000000000000000000000000000000000000000000000000000000000000000000000000000000000000000000000000000000000000000000000000000000000000000000000000000000000000000000000000000000000000000000000000000000000000000000000000000000000000000000000000000000000000000000000000000000000000000000000000000000000000000000000000000000000000000000000000000000000000000000000000000000000000000000000000000000000000000000000000000000000000",
            "coinbase" : "0x2adc25665018aa1fe0e6bc666dac8fc2697ff9ba",
            "difficulty" : "0x020000",
            "extraData" : "0x00",
            "gasLimit" : "0x989680",
            "gasUsed" : "0x00",
            "hash" : "0xcaad002d60b1600e35de03a3ab1a28c32f891a86bb697981a32e5b217f7d4408",
            "mixHash" : "0x0000000000000000000000000000000000000000000000000000000000000000",
            "nonce" : "0x0000000000000000",
            "number" : "0x00",
            "parentHash" : "0x0000000000000000000000000000000000000000000000000000000000000000",
            "receiptTrie" : "0x56e81f171bcc55a6ff8345e692c0f86e5b48e01b996cadc001622fb5e363b421",
            "stateRoot" : "0xe24b7bc9e91b4cb0514c2acaaf6f4bd0a62054ed90e348e6db30b1fc262ad831",
            "timestamp" : "0x00",
            "transactionsTrie" : "0x56e81f171bcc55a6ff8345e692c0f86e5b48e01b996cadc001622fb5e363b421",
            "uncleHash" : "0x1dcc4de8dec75d7aab85b567b6ccd41ad312451b948a7413f0a142fd40d49347"
        },
        "pre" : {
            "0xa94f5374fce5edbc8e2a8697c15331677e6ebf0b" : {
                "balance" : "0xe8d4a51000",
                "code" : "0x",
                "nonce" : "0x00",
                "storage" : {
                }
            },
            "0xb94f5374fce5edbc8e2a8697c15331677e6ebf0b" : {
                "balance" : "0x00",
                "code" : "0x5a600052600c60000a6001555a600051036002555a6000526000600c0a6003555a600051036004555a60005267ffffffffffffffff60000a6005555a600051036006555a6000526fffffffffffffffffffffffffffffffff60000a6007555a600051036008555a6000527fffffffffffffffffffffffffffffffffffffffffffffffffffffffffffffffff60000a6009555a60005103600a555a600052600067ffffffffffffffff0a600b555a60005103600c555a60005260006fffffffffffffffffffffffffffffffff0a600d555a60005103600e555a60005260007fffffffffffffffffffffffffffffffffffffffffffffffffffffffffffffffff0a600f555a6000510360645500",
                "nonce" : "0x00",
                "storage" : {
                }
            }
        },
        "postState" : {
            "0x2adc25665018aa1fe0e6bc666dac8fc2697ff9ba" : {
                "code" : "0x",
                "nonce" : "0x00",
                "balance" : "0x1bc16d674ecc1475",
                "storage" : {
                }
            },
            "0xa94f5374fce5edbc8e2a8697c15331677e6ebf0b" : {
                "code" : "0x",
                "nonce" : "0x01",
                "balance" : "0xe8d4a0fb8b",
                "storage" : {
                }
            },
            "0xb94f5374fce5edbc8e2a8697c15331677e6ebf0b" : {
                "code" : "0x5a600052600c60000a6001555a600051036002555a6000526000600c0a6003555a600051036004555a60005267ffffffffffffffff60000a6005555a600051036006555a6000526fffffffffffffffffffffffffffffffff60000a6007555a600051036008555a6000527fffffffffffffffffffffffffffffffffffffffffffffffffffffffffffffffff60000a6009555a60005103600a555a600052600067ffffffffffffffff0a600b555a60005103600c555a60005260006fffffffffffffffffffffffffffffffff0a600d555a60005103600e555a60005260007fffffffffffffffffffffffffffffffffffffffffffffffffffffffffffffffff0a600f555a6000510360645500",
                "nonce" : "0x00",
                "balance" : "0x00",
                "storage" : {
                    "0x02" : "0x0370",
                    "0x03" : "0x01",
                    "0x04" : "0x4e3b",
                    "0x06" : "0x04cb",
                    "0x08" : "0x065b",
                    "0x0a" : "0x097b",
                    "0x0b" : "0x01",
                    "0x0c" : "0x4e3b",
                    "0x0d" : "0x01",
                    "0x0e" : "0x4e3b",
                    "0x0f" : "0x01",
                    "0x64" : "0x4e3b"
                }
            }
        },
        "network" : "Istanbul",
        "sealEngine" : "NoProof",
        "lastblockhash" : "0x768121c55a62edee36164712ed365f6b60f6b28b1f5872594c11727212530f93",
        "genesisRLP" : "0xf901f8f901f3a00000000000000000000000000000000000000000000000000000000000000000a01dcc4de8dec75d7aab85b567b6ccd41ad312451b948a7413f0a142fd40d49347942adc25665018aa1fe0e6bc666dac8fc2697ff9baa0e24b7bc9e91b4cb0514c2acaaf6f4bd0a62054ed90e348e6db30b1fc262ad831a056e81f171bcc55a6ff8345e692c0f86e5b48e01b996cadc001622fb5e363b421a056e81f171bcc55a6ff8345e692c0f86e5b48e01b996cadc001622fb5e363b421b9010000000000000000000000000000000000000000000000000000000000000000000000000000000000000000000000000000000000000000000000000000000000000000000000000000000000000000000000000000000000000000000000000000000000000000000000000000000000000000000000000000000000000000000000000000000000000000000000000000000000000000000000000000000000000000000000000000000000000000000000000000000000000000000000000000000000000000000000000000000000000000000000000000000000000000000000000000000000000000000000000000000000000000000000000000000000830200008083989680808000a00000000000000000000000000000000000000000000000000000000000000000880000000000000000c0c0",
        "blocks" : [
            {
                "rlp" : "0xf90260f901f8a0caad002d60b1600e35de03a3ab1a28c32f891a86bb697981a32e5b217f7d4408a01dcc4de8dec75d7aab85b567b6ccd41ad312451b948a7413f0a142fd40d49347942adc25665018aa1fe0e6bc666dac8fc2697ff9baa0d1465c116d0af2b56c959cbc563587b1094e7d7e4d704003dc1ceb3386d31c13a059652e5662eb625efd106d67b9b25d3c12a15e69494d1d24f59d867c211f6761a0bdf5ac3a83b973242b1442a8c7cd9c3e1ec7f615f70f8ad687f8e2daabe710d2b9010000000000000000000000000000000000000000000000000000000000000000000000000000000000000000000000000000000000000000000000000000000000000000000000000000000000000000000000000000000000000000000000000000000000000000000000000000000000000000000000000000000000000000000000000000000000000000000000000000000000000000000000000000000000000000000000000000000000000000000000000000000000000000000000000000000000000000000000000000000000000000000000000000000000000000000000000000000000000000000000000000000000000000000000000000000000830200000183989680830414758203e800a00000000000000000000000000000000000000000000000000000000000000000880000000000000000f862f8608001830927c094b94f5374fce5edbc8e2a8697c15331677e6ebf0b80801ba08d0699f23d032b86db35ed7bb39c2357bec870fbfbe7db30b1795d320d8965c6a002f578fd949e84f0dc1307f5dd714c9a7158b31891d43f45459edcb52e345f7cc0",
                "blockHeader" : {
                    "bloom" : "0x00000000000000000000000000000000000000000000000000000000000000000000000000000000000000000000000000000000000000000000000000000000000000000000000000000000000000000000000000000000000000000000000000000000000000000000000000000000000000000000000000000000000000000000000000000000000000000000000000000000000000000000000000000000000000000000000000000000000000000000000000000000000000000000000000000000000000000000000000000000000000000000000000000000000000000000000000000000000000000000000000000000000000000000000000000000",
                    "coinbase" : "0x2adc25665018aa1fe0e6bc666dac8fc2697ff9ba",
                    "difficulty" : "0x020000",
                    "extraData" : "0x00",
                    "gasLimit" : "0x989680",
                    "gasUsed" : "0x041475",
                    "hash" : "0x768121c55a62edee36164712ed365f6b60f6b28b1f5872594c11727212530f93",
                    "mixHash" : "0x0000000000000000000000000000000000000000000000000000000000000000",
                    "nonce" : "0x0000000000000000",
                    "number" : "0x01",
                    "parentHash" : "0xcaad002d60b1600e35de03a3ab1a28c32f891a86bb697981a32e5b217f7d4408",
                    "receiptTrie" : "0xbdf5ac3a83b973242b1442a8c7cd9c3e1ec7f615f70f8ad687f8e2daabe710d2",
                    "stateRoot" : "0xd1465c116d0af2b56c959cbc563587b1094e7d7e4d704003dc1ceb3386d31c13",
                    "timestamp" : "0x03e8",
                    "transactionsTrie" : "0x59652e5662eb625efd106d67b9b25d3c12a15e69494d1d24f59d867c211f6761",
                    "uncleHash" : "0x1dcc4de8dec75d7aab85b567b6ccd41ad312451b948a7413f0a142fd40d49347"
                },
                "transactions" : [
                    {
                        "data" : "0x",
                        "gasLimit" : "0x0927c0",
                        "gasPrice" : "0x01",
                        "nonce" : "0x00",
                        "to" : "0xb94f5374fce5edbc8e2a8697c15331677e6ebf0b",
                        "value" : "0x00",
                        "v" : "0x1b",
                        "r" : "0x8d0699f23d032b86db35ed7bb39c2357bec870fbfbe7db30b1795d320d8965c6",
                        "s" : "0x02f578fd949e84f0dc1307f5dd714c9a7158b31891d43f45459edcb52e345f7c"
                    }
                ],
                "uncleHeaders" : [
                ]
            }
        ]
    }
}