{
    "BadStateRootTxBC_d0g0v0_EIP150" : {
        "blocks" : [
            {
                "blockHeader" : {
                    "bloom" : "0x00000000000000000000000000000000000000000000000000000000000000000000000000000000000000000000000000000000000000000000000000000000000000000000000000000000000000000000000000000000000000000000000000000000000000000000000000000000000000000000000000000000000000000000000000000000000000000000000000000000000000000000000000000000000000000000000000000000000000000000000000000000000000000000000000000000000000000000000000000000000000000000000000000000000000000000000000000000000000000000000000000000000000000000000000000000",
                    "coinbase" : "0x2adc25665018aa1fe0e6bc666dac8fc2697ff9ba",
                    "difficulty" : "0x020000",
                    "extraData" : "",
                    "gasLimit" : "0x7fffffffffffffff",
                    "gasUsed" : "0x5c55",
                    "hash" : "0x27b9cb5d1df3cc9ec962f7e87794234b52c39b3132f71bbe80e90b11737dcf9d",
                    "mixHash" : "0x1aa914af19b7e963761e2b7d9da538eb8a6cd92935f07978ae7111787c86d37e",
                    "nonce" : "0xd1288e1e264db0a0",
                    "number" : "0x01",
                    "parentHash" : "0xa8b4f02ce7cac2047999dda3f507d46c68188dce95ae4e74c490a2d57c5f795e",
                    "receiptTrie" : "0x64b3a924f0f69c2da8a6300fc06ad18ac990be16e7076d7f3305a6d3df1cf709",
                    "stateRoot" : "0x3126e5162dfe56f37372bfa55c34f7de5ca9fda402e0c327da3785da4ba3c105",
                    "timestamp" : "0x03e8",
                    "transactionsTrie" : "0x76660905a74ef4a24b19295d8740a349b1170d3298118106201d43cd7886afbf",
                    "uncleHash" : "0x1dcc4de8dec75d7aab85b567b6ccd41ad312451b948a7413f0a142fd40d49347"
                },
                "rlp" : "0xf902c5f901fca0a8b4f02ce7cac2047999dda3f507d46c68188dce95ae4e74c490a2d57c5f795ea01dcc4de8dec75d7aab85b567b6ccd41ad312451b948a7413f0a142fd40d49347942adc25665018aa1fe0e6bc666dac8fc2697ff9baa03126e5162dfe56f37372bfa55c34f7de5ca9fda402e0c327da3785da4ba3c105a076660905a74ef4a24b19295d8740a349b1170d3298118106201d43cd7886afbfa064b3a924f0f69c2da8a6300fc06ad18ac990be16e7076d7f3305a6d3df1cf709b90100000000000000000000000000000000000000000000000000000000000000000000000000000000000000000000000000000000000000000000000000000000000000000000000000000000000000000000000000000000000000000000000000000000000000000000000000000000000000000000000000000000000000000000000000000000000000000000000000000000000000000000000000000000000000000000000000000000000000000000000000000000000000000000000000000000000000000000000000000000000000000000000000000000000000000000000000000000000000000000000000000000000000000000000000000000008302000001887fffffffffffffff825c558203e880a01aa914af19b7e963761e2b7d9da538eb8a6cd92935f07978ae7111787c86d37e88d1288e1e264db0a0f8c3f8c1800183030d40941baf27b88c48dd02b744999cf3522766929d2b2a80b86000000000000000000000000000000000000000000000000000000000000bc03712fac13c68425054e372b0861af05648614d69d32800fba9ad4522238d4b937a00000000000000000000000000000000000000000000000000000000000000001ca03d55a2ac293c7ad82632b18705e67ad2a0e6177d44f601dca043934c8cd8c07aa01c069ed47162b350a1f496e9a55f53685189e9c3076a4931334a43719b9a158ec0",
                "transactions" : [
                    {
                        "data" : "0x00000000000000000000000000000000000000000000000000000000000bc03712fac13c68425054e372b0861af05648614d69d32800fba9ad4522238d4b937a0000000000000000000000000000000000000000000000000000000000000000",
                        "gasLimit" : "0x030d40",
                        "gasPrice" : "0x01",
                        "nonce" : "0x00",
                        "r" : "0x3d55a2ac293c7ad82632b18705e67ad2a0e6177d44f601dca043934c8cd8c07a",
                        "s" : "0x1c069ed47162b350a1f496e9a55f53685189e9c3076a4931334a43719b9a158e",
                        "to" : "0x1baf27b88c48dd02b744999cf3522766929d2b2a",
                        "v" : "0x1c",
                        "value" : "0x00"
                    }
                ],
                "uncleHeaders" : [
                ]
            }
        ],
        "genesisBlockHeader" : {
            "bloom" : "0x00000000000000000000000000000000000000000000000000000000000000000000000000000000000000000000000000000000000000000000000000000000000000000000000000000000000000000000000000000000000000000000000000000000000000000000000000000000000000000000000000000000000000000000000000000000000000000000000000000000000000000000000000000000000000000000000000000000000000000000000000000000000000000000000000000000000000000000000000000000000000000000000000000000000000000000000000000000000000000000000000000000000000000000000000000000",
            "coinbase" : "0x2adc25665018aa1fe0e6bc666dac8fc2697ff9ba",
            "difficulty" : "0x020000",
            "extraData" : "0x42",
            "gasLimit" : "0x7fffffffffffffff",
            "gasUsed" : "0x00",
            "hash" : "0xa8b4f02ce7cac2047999dda3f507d46c68188dce95ae4e74c490a2d57c5f795e",
            "mixHash" : "0x56e81f171bcc55a6ff8345e692c0f86e5b48e01b996cadc001622fb5e363b421",
            "nonce" : "0x0102030405060708",
            "number" : "0x00",
            "parentHash" : "0x0000000000000000000000000000000000000000000000000000000000000000",
            "receiptTrie" : "0x56e81f171bcc55a6ff8345e692c0f86e5b48e01b996cadc001622fb5e363b421",
            "stateRoot" : "0x423c3994e5db8348336dd13c498b840988ea7f716a0b876af847c6b8a3446e43",
            "timestamp" : "0x03b6",
            "transactionsTrie" : "0x56e81f171bcc55a6ff8345e692c0f86e5b48e01b996cadc001622fb5e363b421",
            "uncleHash" : "0x1dcc4de8dec75d7aab85b567b6ccd41ad312451b948a7413f0a142fd40d49347"
        },
        "genesisRLP" : "0xf901fff901faa00000000000000000000000000000000000000000000000000000000000000000a01dcc4de8dec75d7aab85b567b6ccd41ad312451b948a7413f0a142fd40d49347942adc25665018aa1fe0e6bc666dac8fc2697ff9baa0423c3994e5db8348336dd13c498b840988ea7f716a0b876af847c6b8a3446e43a056e81f171bcc55a6ff8345e692c0f86e5b48e01b996cadc001622fb5e363b421a056e81f171bcc55a6ff8345e692c0f86e5b48e01b996cadc001622fb5e363b421b90100000000000000000000000000000000000000000000000000000000000000000000000000000000000000000000000000000000000000000000000000000000000000000000000000000000000000000000000000000000000000000000000000000000000000000000000000000000000000000000000000000000000000000000000000000000000000000000000000000000000000000000000000000000000000000000000000000000000000000000000000000000000000000000000000000000000000000000000000000000000000000000000000000000000000000000000000000000000000000000000000000000000000000000000000000000008302000080887fffffffffffffff808203b642a056e81f171bcc55a6ff8345e692c0f86e5b48e01b996cadc001622fb5e363b421880102030405060708c0c0",
        "lastblockhash" : "0x27b9cb5d1df3cc9ec962f7e87794234b52c39b3132f71bbe80e90b11737dcf9d",
        "network" : "EIP150",
        "postState" : {
            "0x1baf27b88c48dd02b744999cf3522766929d2b2a" : {
                "balance" : "0x03e8",
                "code" : "0x600073a94f5374fce5edbc8e2a8697c15331677e6ebf0b3314156023573540602035145b15602e576040356000555b",
                "nonce" : "0x00",
                "storage" : {
                }
            },
            "0x2adc25665018aa1fe0e6bc666dac8fc2697ff9ba" : {
                "balance" : "0x4563918244f45c55",
                "code" : "",
                "nonce" : "0x00",
                "storage" : {
                }
            },
            "0xa94f5374fce5edbc8e2a8697c15331677e6ebf0b" : {
                "balance" : "0x1e282b",
                "code" : "",
                "nonce" : "0x01",
                "storage" : {
                }
            }
        },
        "pre" : {
            "0x1baf27b88c48dd02b744999cf3522766929d2b2a" : {
                "balance" : "0x03e8",
                "code" : "0x600073a94f5374fce5edbc8e2a8697c15331677e6ebf0b3314156023573540602035145b15602e576040356000555b",
                "nonce" : "0x00",
                "storage" : {
                }
            },
            "0xa94f5374fce5edbc8e2a8697c15331677e6ebf0b" : {
                "balance" : "0x1e8480",
                "code" : "",
                "nonce" : "0x00",
                "storage" : {
                }
            }
        }
    },
    "BadStateRootTxBC_d0g0v0_EIP158" : {
        "blocks" : [
            {
                "blockHeader" : {
                    "bloom" : "0x00000000000000000000000000000000000000000000000000000000000000000000000000000000000000000000000000000000000000000000000000000000000000000000000000000000000000000000000000000000000000000000000000000000000000000000000000000000000000000000000000000000000000000000000000000000000000000000000000000000000000000000000000000000000000000000000000000000000000000000000000000000000000000000000000000000000000000000000000000000000000000000000000000000000000000000000000000000000000000000000000000000000000000000000000000000",
                    "coinbase" : "0x2adc25665018aa1fe0e6bc666dac8fc2697ff9ba",
                    "difficulty" : "0x020000",
                    "extraData" : "",
                    "gasLimit" : "0x7fffffffffffffff",
                    "gasUsed" : "0x5c55",
                    "hash" : "0xfc9a9dc1865dbca81a201b7dfd4bbe8eceea03304cf6a130bd1216ec0cc00691",
                    "mixHash" : "0xd86f0c00f34aa69cdf0ae7dac9b23d27be5a9e58ef18a72be89777dc22e37d06",
                    "nonce" : "0x112e244e4bc190c9",
                    "number" : "0x01",
                    "parentHash" : "0xa8b4f02ce7cac2047999dda3f507d46c68188dce95ae4e74c490a2d57c5f795e",
                    "receiptTrie" : "0x64b3a924f0f69c2da8a6300fc06ad18ac990be16e7076d7f3305a6d3df1cf709",
                    "stateRoot" : "0x3126e5162dfe56f37372bfa55c34f7de5ca9fda402e0c327da3785da4ba3c105",
                    "timestamp" : "0x03e8",
                    "transactionsTrie" : "0x76660905a74ef4a24b19295d8740a349b1170d3298118106201d43cd7886afbf",
                    "uncleHash" : "0x1dcc4de8dec75d7aab85b567b6ccd41ad312451b948a7413f0a142fd40d49347"
                },
                "rlp" : "0xf902c5f901fca0a8b4f02ce7cac2047999dda3f507d46c68188dce95ae4e74c490a2d57c5f795ea01dcc4de8dec75d7aab85b567b6ccd41ad312451b948a7413f0a142fd40d49347942adc25665018aa1fe0e6bc666dac8fc2697ff9baa03126e5162dfe56f37372bfa55c34f7de5ca9fda402e0c327da3785da4ba3c105a076660905a74ef4a24b19295d8740a349b1170d3298118106201d43cd7886afbfa064b3a924f0f69c2da8a6300fc06ad18ac990be16e7076d7f3305a6d3df1cf709b90100000000000000000000000000000000000000000000000000000000000000000000000000000000000000000000000000000000000000000000000000000000000000000000000000000000000000000000000000000000000000000000000000000000000000000000000000000000000000000000000000000000000000000000000000000000000000000000000000000000000000000000000000000000000000000000000000000000000000000000000000000000000000000000000000000000000000000000000000000000000000000000000000000000000000000000000000000000000000000000000000000000000000000000000000000000008302000001887fffffffffffffff825c558203e880a0d86f0c00f34aa69cdf0ae7dac9b23d27be5a9e58ef18a72be89777dc22e37d0688112e244e4bc190c9f8c3f8c1800183030d40941baf27b88c48dd02b744999cf3522766929d2b2a80b86000000000000000000000000000000000000000000000000000000000000bc03712fac13c68425054e372b0861af05648614d69d32800fba9ad4522238d4b937a00000000000000000000000000000000000000000000000000000000000000001ca03d55a2ac293c7ad82632b18705e67ad2a0e6177d44f601dca043934c8cd8c07aa01c069ed47162b350a1f496e9a55f53685189e9c3076a4931334a43719b9a158ec0",
                "transactions" : [
                    {
                        "data" : "0x00000000000000000000000000000000000000000000000000000000000bc03712fac13c68425054e372b0861af05648614d69d32800fba9ad4522238d4b937a0000000000000000000000000000000000000000000000000000000000000000",
                        "gasLimit" : "0x030d40",
                        "gasPrice" : "0x01",
                        "nonce" : "0x00",
                        "r" : "0x3d55a2ac293c7ad82632b18705e67ad2a0e6177d44f601dca043934c8cd8c07a",
                        "s" : "0x1c069ed47162b350a1f496e9a55f53685189e9c3076a4931334a43719b9a158e",
                        "to" : "0x1baf27b88c48dd02b744999cf3522766929d2b2a",
                        "v" : "0x1c",
                        "value" : "0x00"
                    }
                ],
                "uncleHeaders" : [
                ]
            }
        ],
        "genesisBlockHeader" : {
            "bloom" : "0x00000000000000000000000000000000000000000000000000000000000000000000000000000000000000000000000000000000000000000000000000000000000000000000000000000000000000000000000000000000000000000000000000000000000000000000000000000000000000000000000000000000000000000000000000000000000000000000000000000000000000000000000000000000000000000000000000000000000000000000000000000000000000000000000000000000000000000000000000000000000000000000000000000000000000000000000000000000000000000000000000000000000000000000000000000000",
            "coinbase" : "0x2adc25665018aa1fe0e6bc666dac8fc2697ff9ba",
            "difficulty" : "0x020000",
            "extraData" : "0x42",
            "gasLimit" : "0x7fffffffffffffff",
            "gasUsed" : "0x00",
            "hash" : "0xa8b4f02ce7cac2047999dda3f507d46c68188dce95ae4e74c490a2d57c5f795e",
            "mixHash" : "0x56e81f171bcc55a6ff8345e692c0f86e5b48e01b996cadc001622fb5e363b421",
            "nonce" : "0x0102030405060708",
            "number" : "0x00",
            "parentHash" : "0x0000000000000000000000000000000000000000000000000000000000000000",
            "receiptTrie" : "0x56e81f171bcc55a6ff8345e692c0f86e5b48e01b996cadc001622fb5e363b421",
            "stateRoot" : "0x423c3994e5db8348336dd13c498b840988ea7f716a0b876af847c6b8a3446e43",
            "timestamp" : "0x03b6",
            "transactionsTrie" : "0x56e81f171bcc55a6ff8345e692c0f86e5b48e01b996cadc001622fb5e363b421",
            "uncleHash" : "0x1dcc4de8dec75d7aab85b567b6ccd41ad312451b948a7413f0a142fd40d49347"
        },
        "genesisRLP" : "0xf901fff901faa00000000000000000000000000000000000000000000000000000000000000000a01dcc4de8dec75d7aab85b567b6ccd41ad312451b948a7413f0a142fd40d49347942adc25665018aa1fe0e6bc666dac8fc2697ff9baa0423c3994e5db8348336dd13c498b840988ea7f716a0b876af847c6b8a3446e43a056e81f171bcc55a6ff8345e692c0f86e5b48e01b996cadc001622fb5e363b421a056e81f171bcc55a6ff8345e692c0f86e5b48e01b996cadc001622fb5e363b421b90100000000000000000000000000000000000000000000000000000000000000000000000000000000000000000000000000000000000000000000000000000000000000000000000000000000000000000000000000000000000000000000000000000000000000000000000000000000000000000000000000000000000000000000000000000000000000000000000000000000000000000000000000000000000000000000000000000000000000000000000000000000000000000000000000000000000000000000000000000000000000000000000000000000000000000000000000000000000000000000000000000000000000000000000000000000008302000080887fffffffffffffff808203b642a056e81f171bcc55a6ff8345e692c0f86e5b48e01b996cadc001622fb5e363b421880102030405060708c0c0",
        "lastblockhash" : "0xfc9a9dc1865dbca81a201b7dfd4bbe8eceea03304cf6a130bd1216ec0cc00691",
        "network" : "EIP158",
        "postState" : {
            "0x1baf27b88c48dd02b744999cf3522766929d2b2a" : {
                "balance" : "0x03e8",
                "code" : "0x600073a94f5374fce5edbc8e2a8697c15331677e6ebf0b3314156023573540602035145b15602e576040356000555b",
                "nonce" : "0x00",
                "storage" : {
                }
            },
            "0x2adc25665018aa1fe0e6bc666dac8fc2697ff9ba" : {
                "balance" : "0x4563918244f45c55",
                "code" : "",
                "nonce" : "0x00",
                "storage" : {
                }
            },
            "0xa94f5374fce5edbc8e2a8697c15331677e6ebf0b" : {
                "balance" : "0x1e282b",
                "code" : "",
                "nonce" : "0x01",
                "storage" : {
                }
            }
        },
        "pre" : {
            "0x1baf27b88c48dd02b744999cf3522766929d2b2a" : {
                "balance" : "0x03e8",
                "code" : "0x600073a94f5374fce5edbc8e2a8697c15331677e6ebf0b3314156023573540602035145b15602e576040356000555b",
                "nonce" : "0x00",
                "storage" : {
                }
            },
            "0xa94f5374fce5edbc8e2a8697c15331677e6ebf0b" : {
                "balance" : "0x1e8480",
                "code" : "",
                "nonce" : "0x00",
                "storage" : {
                }
            }
        }
    },
    "BadStateRootTxBC_d0g0v0_Frontier" : {
        "blocks" : [
            {
                "blockHeader" : {
                    "bloom" : "0x00000000000000000000000000000000000000000000000000000000000000000000000000000000000000000000000000000000000000000000000000000000000000000000000000000000000000000000000000000000000000000000000000000000000000000000000000000000000000000000000000000000000000000000000000000000000000000000000000000000000000000000000000000000000000000000000000000000000000000000000000000000000000000000000000000000000000000000000000000000000000000000000000000000000000000000000000000000000000000000000000000000000000000000000000000000",
                    "coinbase" : "0x2adc25665018aa1fe0e6bc666dac8fc2697ff9ba",
                    "difficulty" : "0x020000",
                    "extraData" : "",
                    "gasLimit" : "0x7fffffffffffffff",
                    "gasUsed" : "0x5c55",
                    "hash" : "0xbcc79731029ee2c8065ee5e052a9aea3dbbb6db3a8292330f1986d5429fcff97",
                    "mixHash" : "0x344449ea2cf3d4b9913eb9fd8b8a31664cfcf93f21e2e044df192dfff2e1968e",
                    "nonce" : "0x0cb12f167e52bef1",
                    "number" : "0x01",
                    "parentHash" : "0xa8b4f02ce7cac2047999dda3f507d46c68188dce95ae4e74c490a2d57c5f795e",
                    "receiptTrie" : "0x64b3a924f0f69c2da8a6300fc06ad18ac990be16e7076d7f3305a6d3df1cf709",
                    "stateRoot" : "0x3126e5162dfe56f37372bfa55c34f7de5ca9fda402e0c327da3785da4ba3c105",
                    "timestamp" : "0x03e8",
                    "transactionsTrie" : "0x76660905a74ef4a24b19295d8740a349b1170d3298118106201d43cd7886afbf",
                    "uncleHash" : "0x1dcc4de8dec75d7aab85b567b6ccd41ad312451b948a7413f0a142fd40d49347"
                },
                "rlp" : "0xf902c5f901fca0a8b4f02ce7cac2047999dda3f507d46c68188dce95ae4e74c490a2d57c5f795ea01dcc4de8dec75d7aab85b567b6ccd41ad312451b948a7413f0a142fd40d49347942adc25665018aa1fe0e6bc666dac8fc2697ff9baa03126e5162dfe56f37372bfa55c34f7de5ca9fda402e0c327da3785da4ba3c105a076660905a74ef4a24b19295d8740a349b1170d3298118106201d43cd7886afbfa064b3a924f0f69c2da8a6300fc06ad18ac990be16e7076d7f3305a6d3df1cf709b90100000000000000000000000000000000000000000000000000000000000000000000000000000000000000000000000000000000000000000000000000000000000000000000000000000000000000000000000000000000000000000000000000000000000000000000000000000000000000000000000000000000000000000000000000000000000000000000000000000000000000000000000000000000000000000000000000000000000000000000000000000000000000000000000000000000000000000000000000000000000000000000000000000000000000000000000000000000000000000000000000000000000000000000000000000000008302000001887fffffffffffffff825c558203e880a0344449ea2cf3d4b9913eb9fd8b8a31664cfcf93f21e2e044df192dfff2e1968e880cb12f167e52bef1f8c3f8c1800183030d40941baf27b88c48dd02b744999cf3522766929d2b2a80b86000000000000000000000000000000000000000000000000000000000000bc03712fac13c68425054e372b0861af05648614d69d32800fba9ad4522238d4b937a00000000000000000000000000000000000000000000000000000000000000001ca03d55a2ac293c7ad82632b18705e67ad2a0e6177d44f601dca043934c8cd8c07aa01c069ed47162b350a1f496e9a55f53685189e9c3076a4931334a43719b9a158ec0",
                "transactions" : [
                    {
                        "data" : "0x00000000000000000000000000000000000000000000000000000000000bc03712fac13c68425054e372b0861af05648614d69d32800fba9ad4522238d4b937a0000000000000000000000000000000000000000000000000000000000000000",
                        "gasLimit" : "0x030d40",
                        "gasPrice" : "0x01",
                        "nonce" : "0x00",
                        "r" : "0x3d55a2ac293c7ad82632b18705e67ad2a0e6177d44f601dca043934c8cd8c07a",
                        "s" : "0x1c069ed47162b350a1f496e9a55f53685189e9c3076a4931334a43719b9a158e",
                        "to" : "0x1baf27b88c48dd02b744999cf3522766929d2b2a",
                        "v" : "0x1c",
                        "value" : "0x00"
                    }
                ],
                "uncleHeaders" : [
                ]
            }
        ],
        "genesisBlockHeader" : {
            "bloom" : "0x00000000000000000000000000000000000000000000000000000000000000000000000000000000000000000000000000000000000000000000000000000000000000000000000000000000000000000000000000000000000000000000000000000000000000000000000000000000000000000000000000000000000000000000000000000000000000000000000000000000000000000000000000000000000000000000000000000000000000000000000000000000000000000000000000000000000000000000000000000000000000000000000000000000000000000000000000000000000000000000000000000000000000000000000000000000",
            "coinbase" : "0x2adc25665018aa1fe0e6bc666dac8fc2697ff9ba",
            "difficulty" : "0x020000",
            "extraData" : "0x42",
            "gasLimit" : "0x7fffffffffffffff",
            "gasUsed" : "0x00",
            "hash" : "0xa8b4f02ce7cac2047999dda3f507d46c68188dce95ae4e74c490a2d57c5f795e",
            "mixHash" : "0x56e81f171bcc55a6ff8345e692c0f86e5b48e01b996cadc001622fb5e363b421",
            "nonce" : "0x0102030405060708",
            "number" : "0x00",
            "parentHash" : "0x0000000000000000000000000000000000000000000000000000000000000000",
            "receiptTrie" : "0x56e81f171bcc55a6ff8345e692c0f86e5b48e01b996cadc001622fb5e363b421",
            "stateRoot" : "0x423c3994e5db8348336dd13c498b840988ea7f716a0b876af847c6b8a3446e43",
            "timestamp" : "0x03b6",
            "transactionsTrie" : "0x56e81f171bcc55a6ff8345e692c0f86e5b48e01b996cadc001622fb5e363b421",
            "uncleHash" : "0x1dcc4de8dec75d7aab85b567b6ccd41ad312451b948a7413f0a142fd40d49347"
        },
        "genesisRLP" : "0xf901fff901faa00000000000000000000000000000000000000000000000000000000000000000a01dcc4de8dec75d7aab85b567b6ccd41ad312451b948a7413f0a142fd40d49347942adc25665018aa1fe0e6bc666dac8fc2697ff9baa0423c3994e5db8348336dd13c498b840988ea7f716a0b876af847c6b8a3446e43a056e81f171bcc55a6ff8345e692c0f86e5b48e01b996cadc001622fb5e363b421a056e81f171bcc55a6ff8345e692c0f86e5b48e01b996cadc001622fb5e363b421b90100000000000000000000000000000000000000000000000000000000000000000000000000000000000000000000000000000000000000000000000000000000000000000000000000000000000000000000000000000000000000000000000000000000000000000000000000000000000000000000000000000000000000000000000000000000000000000000000000000000000000000000000000000000000000000000000000000000000000000000000000000000000000000000000000000000000000000000000000000000000000000000000000000000000000000000000000000000000000000000000000000000000000000000000000000000008302000080887fffffffffffffff808203b642a056e81f171bcc55a6ff8345e692c0f86e5b48e01b996cadc001622fb5e363b421880102030405060708c0c0",
        "lastblockhash" : "0xbcc79731029ee2c8065ee5e052a9aea3dbbb6db3a8292330f1986d5429fcff97",
        "network" : "Frontier",
        "postState" : {
            "0x1baf27b88c48dd02b744999cf3522766929d2b2a" : {
                "balance" : "0x03e8",
                "code" : "0x600073a94f5374fce5edbc8e2a8697c15331677e6ebf0b3314156023573540602035145b15602e576040356000555b",
                "nonce" : "0x00",
                "storage" : {
                }
            },
            "0x2adc25665018aa1fe0e6bc666dac8fc2697ff9ba" : {
                "balance" : "0x4563918244f45c55",
                "code" : "",
                "nonce" : "0x00",
                "storage" : {
                }
            },
            "0xa94f5374fce5edbc8e2a8697c15331677e6ebf0b" : {
                "balance" : "0x1e282b",
                "code" : "",
                "nonce" : "0x01",
                "storage" : {
                }
            }
        },
        "pre" : {
            "0x1baf27b88c48dd02b744999cf3522766929d2b2a" : {
                "balance" : "0x03e8",
                "code" : "0x600073a94f5374fce5edbc8e2a8697c15331677e6ebf0b3314156023573540602035145b15602e576040356000555b",
                "nonce" : "0x00",
                "storage" : {
                }
            },
            "0xa94f5374fce5edbc8e2a8697c15331677e6ebf0b" : {
                "balance" : "0x1e8480",
                "code" : "",
                "nonce" : "0x00",
                "storage" : {
                }
            }
        }
    },
    "BadStateRootTxBC_d0g0v0_Homestead" : {
        "blocks" : [
            {
                "blockHeader" : {
                    "bloom" : "0x00000000000000000000000000000000000000000000000000000000000000000000000000000000000000000000000000000000000000000000000000000000000000000000000000000000000000000000000000000000000000000000000000000000000000000000000000000000000000000000000000000000000000000000000000000000000000000000000000000000000000000000000000000000000000000000000000000000000000000000000000000000000000000000000000000000000000000000000000000000000000000000000000000000000000000000000000000000000000000000000000000000000000000000000000000000",
                    "coinbase" : "0x2adc25665018aa1fe0e6bc666dac8fc2697ff9ba",
                    "difficulty" : "0x020000",
                    "extraData" : "",
                    "gasLimit" : "0x7fffffffffffffff",
                    "gasUsed" : "0x5c55",
                    "hash" : "0x060ddca070cf4cebac9391a6aa83a7d9b7b6ccf53e5c7db59df0cf8262ab271b",
                    "mixHash" : "0xa8d0d59d001c4e8d38af5a213b1af4ce72184d513a6f0d514eee3bf368520f29",
                    "nonce" : "0x84855921b4a59619",
                    "number" : "0x01",
                    "parentHash" : "0xa8b4f02ce7cac2047999dda3f507d46c68188dce95ae4e74c490a2d57c5f795e",
                    "receiptTrie" : "0x64b3a924f0f69c2da8a6300fc06ad18ac990be16e7076d7f3305a6d3df1cf709",
                    "stateRoot" : "0x3126e5162dfe56f37372bfa55c34f7de5ca9fda402e0c327da3785da4ba3c105",
                    "timestamp" : "0x03e8",
                    "transactionsTrie" : "0x76660905a74ef4a24b19295d8740a349b1170d3298118106201d43cd7886afbf",
                    "uncleHash" : "0x1dcc4de8dec75d7aab85b567b6ccd41ad312451b948a7413f0a142fd40d49347"
                },
                "rlp" : "0xf902c5f901fca0a8b4f02ce7cac2047999dda3f507d46c68188dce95ae4e74c490a2d57c5f795ea01dcc4de8dec75d7aab85b567b6ccd41ad312451b948a7413f0a142fd40d49347942adc25665018aa1fe0e6bc666dac8fc2697ff9baa03126e5162dfe56f37372bfa55c34f7de5ca9fda402e0c327da3785da4ba3c105a076660905a74ef4a24b19295d8740a349b1170d3298118106201d43cd7886afbfa064b3a924f0f69c2da8a6300fc06ad18ac990be16e7076d7f3305a6d3df1cf709b90100000000000000000000000000000000000000000000000000000000000000000000000000000000000000000000000000000000000000000000000000000000000000000000000000000000000000000000000000000000000000000000000000000000000000000000000000000000000000000000000000000000000000000000000000000000000000000000000000000000000000000000000000000000000000000000000000000000000000000000000000000000000000000000000000000000000000000000000000000000000000000000000000000000000000000000000000000000000000000000000000000000000000000000000000000000008302000001887fffffffffffffff825c558203e880a0a8d0d59d001c4e8d38af5a213b1af4ce72184d513a6f0d514eee3bf368520f298884855921b4a59619f8c3f8c1800183030d40941baf27b88c48dd02b744999cf3522766929d2b2a80b86000000000000000000000000000000000000000000000000000000000000bc03712fac13c68425054e372b0861af05648614d69d32800fba9ad4522238d4b937a00000000000000000000000000000000000000000000000000000000000000001ca03d55a2ac293c7ad82632b18705e67ad2a0e6177d44f601dca043934c8cd8c07aa01c069ed47162b350a1f496e9a55f53685189e9c3076a4931334a43719b9a158ec0",
                "transactions" : [
                    {
                        "data" : "0x00000000000000000000000000000000000000000000000000000000000bc03712fac13c68425054e372b0861af05648614d69d32800fba9ad4522238d4b937a0000000000000000000000000000000000000000000000000000000000000000",
                        "gasLimit" : "0x030d40",
                        "gasPrice" : "0x01",
                        "nonce" : "0x00",
                        "r" : "0x3d55a2ac293c7ad82632b18705e67ad2a0e6177d44f601dca043934c8cd8c07a",
                        "s" : "0x1c069ed47162b350a1f496e9a55f53685189e9c3076a4931334a43719b9a158e",
                        "to" : "0x1baf27b88c48dd02b744999cf3522766929d2b2a",
                        "v" : "0x1c",
                        "value" : "0x00"
                    }
                ],
                "uncleHeaders" : [
                ]
            }
        ],
        "genesisBlockHeader" : {
            "bloom" : "0x00000000000000000000000000000000000000000000000000000000000000000000000000000000000000000000000000000000000000000000000000000000000000000000000000000000000000000000000000000000000000000000000000000000000000000000000000000000000000000000000000000000000000000000000000000000000000000000000000000000000000000000000000000000000000000000000000000000000000000000000000000000000000000000000000000000000000000000000000000000000000000000000000000000000000000000000000000000000000000000000000000000000000000000000000000000",
            "coinbase" : "0x2adc25665018aa1fe0e6bc666dac8fc2697ff9ba",
            "difficulty" : "0x020000",
            "extraData" : "0x42",
            "gasLimit" : "0x7fffffffffffffff",
            "gasUsed" : "0x00",
            "hash" : "0xa8b4f02ce7cac2047999dda3f507d46c68188dce95ae4e74c490a2d57c5f795e",
            "mixHash" : "0x56e81f171bcc55a6ff8345e692c0f86e5b48e01b996cadc001622fb5e363b421",
            "nonce" : "0x0102030405060708",
            "number" : "0x00",
            "parentHash" : "0x0000000000000000000000000000000000000000000000000000000000000000",
            "receiptTrie" : "0x56e81f171bcc55a6ff8345e692c0f86e5b48e01b996cadc001622fb5e363b421",
            "stateRoot" : "0x423c3994e5db8348336dd13c498b840988ea7f716a0b876af847c6b8a3446e43",
            "timestamp" : "0x03b6",
            "transactionsTrie" : "0x56e81f171bcc55a6ff8345e692c0f86e5b48e01b996cadc001622fb5e363b421",
            "uncleHash" : "0x1dcc4de8dec75d7aab85b567b6ccd41ad312451b948a7413f0a142fd40d49347"
        },
        "genesisRLP" : "0xf901fff901faa00000000000000000000000000000000000000000000000000000000000000000a01dcc4de8dec75d7aab85b567b6ccd41ad312451b948a7413f0a142fd40d49347942adc25665018aa1fe0e6bc666dac8fc2697ff9baa0423c3994e5db8348336dd13c498b840988ea7f716a0b876af847c6b8a3446e43a056e81f171bcc55a6ff8345e692c0f86e5b48e01b996cadc001622fb5e363b421a056e81f171bcc55a6ff8345e692c0f86e5b48e01b996cadc001622fb5e363b421b90100000000000000000000000000000000000000000000000000000000000000000000000000000000000000000000000000000000000000000000000000000000000000000000000000000000000000000000000000000000000000000000000000000000000000000000000000000000000000000000000000000000000000000000000000000000000000000000000000000000000000000000000000000000000000000000000000000000000000000000000000000000000000000000000000000000000000000000000000000000000000000000000000000000000000000000000000000000000000000000000000000000000000000000000000000000008302000080887fffffffffffffff808203b642a056e81f171bcc55a6ff8345e692c0f86e5b48e01b996cadc001622fb5e363b421880102030405060708c0c0",
        "lastblockhash" : "0x060ddca070cf4cebac9391a6aa83a7d9b7b6ccf53e5c7db59df0cf8262ab271b",
        "network" : "Homestead",
        "postState" : {
            "0x1baf27b88c48dd02b744999cf3522766929d2b2a" : {
                "balance" : "0x03e8",
                "code" : "0x600073a94f5374fce5edbc8e2a8697c15331677e6ebf0b3314156023573540602035145b15602e576040356000555b",
                "nonce" : "0x00",
                "storage" : {
                }
            },
            "0x2adc25665018aa1fe0e6bc666dac8fc2697ff9ba" : {
                "balance" : "0x4563918244f45c55",
                "code" : "",
                "nonce" : "0x00",
                "storage" : {
                }
            },
            "0xa94f5374fce5edbc8e2a8697c15331677e6ebf0b" : {
                "balance" : "0x1e282b",
                "code" : "",
                "nonce" : "0x01",
                "storage" : {
                }
            }
        },
        "pre" : {
            "0x1baf27b88c48dd02b744999cf3522766929d2b2a" : {
                "balance" : "0x03e8",
                "code" : "0x600073a94f5374fce5edbc8e2a8697c15331677e6ebf0b3314156023573540602035145b15602e576040356000555b",
                "nonce" : "0x00",
                "storage" : {
                }
            },
            "0xa94f5374fce5edbc8e2a8697c15331677e6ebf0b" : {
                "balance" : "0x1e8480",
                "code" : "",
                "nonce" : "0x00",
                "storage" : {
                }
            }
        }
    },
    "BadStateRootTxBC_d0g0v0_Metropolis" : {
        "blocks" : [
            {
                "blockHeader" : {
                    "bloom" : "0x00000000000000000000000000000000000000000000000000000000000000000000000000000000000000000000000000000000000000000000000000000000000000000000000000000000000000000000000000000000000000000000000000000000000000000000000000000000000000000000000000000000000000000000000000000000000000000000000000000000000000000000000000000000000000000000000000000000000000000000000000000000000000000000000000000000000000000000000000000000000000000000000000000000000000000000000000000000000000000000000000000000000000000000000000000000",
                    "coinbase" : "0x2adc25665018aa1fe0e6bc666dac8fc2697ff9ba",
                    "difficulty" : "0x020000",
                    "extraData" : "",
                    "gasLimit" : "0x7fffffffffffffff",
                    "gasUsed" : "0x5f61",
                    "hash" : "0x1c3850db0614bf3b79f627c37dd02e28789ba976b78ed0b51b16c1af468c4f27",
                    "mixHash" : "0x8d4b64ce599042f5769ec603b44aaf6ae49191d0aa95c6ad348192e20ac42d0b",
                    "nonce" : "0x004573a2592a94eb",
                    "number" : "0x01",
                    "parentHash" : "0xa8b4f02ce7cac2047999dda3f507d46c68188dce95ae4e74c490a2d57c5f795e",
                    "receiptTrie" : "0xa7ded80c8dbd8b0dc1de0221f9a4731bcce738f962fc57738b3331ab0ace7908",
                    "stateRoot" : "0x3c96ef2a7d618f31baf648d70b5e57c78510020758f68741dc39657736bfaccd",
                    "timestamp" : "0x03e8",
                    "transactionsTrie" : "0x76660905a74ef4a24b19295d8740a349b1170d3298118106201d43cd7886afbf",
                    "uncleHash" : "0x1dcc4de8dec75d7aab85b567b6ccd41ad312451b948a7413f0a142fd40d49347"
                },
                "rlp" : "0xf902c5f901fca0a8b4f02ce7cac2047999dda3f507d46c68188dce95ae4e74c490a2d57c5f795ea01dcc4de8dec75d7aab85b567b6ccd41ad312451b948a7413f0a142fd40d49347942adc25665018aa1fe0e6bc666dac8fc2697ff9baa03c96ef2a7d618f31baf648d70b5e57c78510020758f68741dc39657736bfaccda076660905a74ef4a24b19295d8740a349b1170d3298118106201d43cd7886afbfa0a7ded80c8dbd8b0dc1de0221f9a4731bcce738f962fc57738b3331ab0ace7908b90100000000000000000000000000000000000000000000000000000000000000000000000000000000000000000000000000000000000000000000000000000000000000000000000000000000000000000000000000000000000000000000000000000000000000000000000000000000000000000000000000000000000000000000000000000000000000000000000000000000000000000000000000000000000000000000000000000000000000000000000000000000000000000000000000000000000000000000000000000000000000000000000000000000000000000000000000000000000000000000000000000000000000000000000000000000008302000001887fffffffffffffff825f618203e880a08d4b64ce599042f5769ec603b44aaf6ae49191d0aa95c6ad348192e20ac42d0b88004573a2592a94ebf8c3f8c1800183030d40941baf27b88c48dd02b744999cf3522766929d2b2a80b86000000000000000000000000000000000000000000000000000000000000bc03712fac13c68425054e372b0861af05648614d69d32800fba9ad4522238d4b937a00000000000000000000000000000000000000000000000000000000000000001ca03d55a2ac293c7ad82632b18705e67ad2a0e6177d44f601dca043934c8cd8c07aa01c069ed47162b350a1f496e9a55f53685189e9c3076a4931334a43719b9a158ec0",
                "transactions" : [
                    {
                        "data" : "0x00000000000000000000000000000000000000000000000000000000000bc03712fac13c68425054e372b0861af05648614d69d32800fba9ad4522238d4b937a0000000000000000000000000000000000000000000000000000000000000000",
                        "gasLimit" : "0x030d40",
                        "gasPrice" : "0x01",
                        "nonce" : "0x00",
                        "r" : "0x3d55a2ac293c7ad82632b18705e67ad2a0e6177d44f601dca043934c8cd8c07a",
                        "s" : "0x1c069ed47162b350a1f496e9a55f53685189e9c3076a4931334a43719b9a158e",
                        "to" : "0x1baf27b88c48dd02b744999cf3522766929d2b2a",
                        "v" : "0x1c",
                        "value" : "0x00"
                    }
                ],
                "uncleHeaders" : [
                ]
            }
        ],
        "genesisBlockHeader" : {
            "bloom" : "0x00000000000000000000000000000000000000000000000000000000000000000000000000000000000000000000000000000000000000000000000000000000000000000000000000000000000000000000000000000000000000000000000000000000000000000000000000000000000000000000000000000000000000000000000000000000000000000000000000000000000000000000000000000000000000000000000000000000000000000000000000000000000000000000000000000000000000000000000000000000000000000000000000000000000000000000000000000000000000000000000000000000000000000000000000000000",
            "coinbase" : "0x2adc25665018aa1fe0e6bc666dac8fc2697ff9ba",
            "difficulty" : "0x020000",
            "extraData" : "0x42",
            "gasLimit" : "0x7fffffffffffffff",
            "gasUsed" : "0x00",
            "hash" : "0xa8b4f02ce7cac2047999dda3f507d46c68188dce95ae4e74c490a2d57c5f795e",
            "mixHash" : "0x56e81f171bcc55a6ff8345e692c0f86e5b48e01b996cadc001622fb5e363b421",
            "nonce" : "0x0102030405060708",
            "number" : "0x00",
            "parentHash" : "0x0000000000000000000000000000000000000000000000000000000000000000",
            "receiptTrie" : "0x56e81f171bcc55a6ff8345e692c0f86e5b48e01b996cadc001622fb5e363b421",
            "stateRoot" : "0x423c3994e5db8348336dd13c498b840988ea7f716a0b876af847c6b8a3446e43",
            "timestamp" : "0x03b6",
            "transactionsTrie" : "0x56e81f171bcc55a6ff8345e692c0f86e5b48e01b996cadc001622fb5e363b421",
            "uncleHash" : "0x1dcc4de8dec75d7aab85b567b6ccd41ad312451b948a7413f0a142fd40d49347"
        },
        "genesisRLP" : "0xf901fff901faa00000000000000000000000000000000000000000000000000000000000000000a01dcc4de8dec75d7aab85b567b6ccd41ad312451b948a7413f0a142fd40d49347942adc25665018aa1fe0e6bc666dac8fc2697ff9baa0423c3994e5db8348336dd13c498b840988ea7f716a0b876af847c6b8a3446e43a056e81f171bcc55a6ff8345e692c0f86e5b48e01b996cadc001622fb5e363b421a056e81f171bcc55a6ff8345e692c0f86e5b48e01b996cadc001622fb5e363b421b90100000000000000000000000000000000000000000000000000000000000000000000000000000000000000000000000000000000000000000000000000000000000000000000000000000000000000000000000000000000000000000000000000000000000000000000000000000000000000000000000000000000000000000000000000000000000000000000000000000000000000000000000000000000000000000000000000000000000000000000000000000000000000000000000000000000000000000000000000000000000000000000000000000000000000000000000000000000000000000000000000000000000000000000000000000000008302000080887fffffffffffffff808203b642a056e81f171bcc55a6ff8345e692c0f86e5b48e01b996cadc001622fb5e363b421880102030405060708c0c0",
        "lastblockhash" : "0x1c3850db0614bf3b79f627c37dd02e28789ba976b78ed0b51b16c1af468c4f27",
        "network" : "Metropolis",
        "postState" : {
            "0x00000000000000000000000000000000000000f0" : {
                "balance" : "0x00",
                "code" : "",
                "nonce" : "0x00",
                "storage" : {
                }
            },
            "0x1baf27b88c48dd02b744999cf3522766929d2b2a" : {
                "balance" : "0x03e8",
                "code" : "0x600073a94f5374fce5edbc8e2a8697c15331677e6ebf0b3314156023573540602035145b15602e576040356000555b",
                "nonce" : "0x00",
                "storage" : {
                }
            },
            "0x2adc25665018aa1fe0e6bc666dac8fc2697ff9ba" : {
                "balance" : "0x4563918244f45f61",
                "code" : "",
                "nonce" : "0x00",
                "storage" : {
                }
            },
            "0xa94f5374fce5edbc8e2a8697c15331677e6ebf0b" : {
                "balance" : "0x1e251f",
                "code" : "",
                "nonce" : "0x01",
                "storage" : {
                }
            }
        },
        "pre" : {
            "0x1baf27b88c48dd02b744999cf3522766929d2b2a" : {
                "balance" : "0x03e8",
                "code" : "0x600073a94f5374fce5edbc8e2a8697c15331677e6ebf0b3314156023573540602035145b15602e576040356000555b",
                "nonce" : "0x00",
                "storage" : {
                }
            },
            "0xa94f5374fce5edbc8e2a8697c15331677e6ebf0b" : {
                "balance" : "0x1e8480",
                "code" : "",
                "nonce" : "0x00",
                "storage" : {
                }
            }
        }
    }
}