{
    "randomStatetest0" : {
        "_info" : {
            "comment" : "",
            "filling-rpc-server" : "evm version 1.13.11-unstable-765f2904-20240124",
            "filling-tool-version" : "retesteth-0.3.2-cancun+commit.ea13235b.Linux.g++",
            "generatedTestHash" : "95be8eac8c01885e48d6b07dc03c3c0e1bc590fc3390e522239e295262ae7c8e",
            "lllcversion" : "Version: 0.5.14-develop.2023.7.11+commit.c58ab2c6.mod.Linux.g++",
            "solidity" : "Version: 0.8.21+commit.d9974bed.Linux.g++",
            "source" : "src/GeneralStateTestsFiller/stRandom/randomStatetest0Filler.json",
            "sourceHash" : "23a37ec0e70788c3aee71313c8dc3ae6a23ab575df4c3a7013c44fdc91d621b9"
        },
        "env" : {
            "currentBaseFee" : "0x0a",
            "currentCoinbase" : "0x945304eb96065b2a98b57a48a06ae28d285a71b5",
            "currentDifficulty" : "0x020000",
            "currentExcessBlobGas" : "0x00",
            "currentGasLimit" : "0x7fffffffffffffff",
            "currentNumber" : "0x01",
            "currentRandom" : "0x0000000000000000000000000000000000000000000000000000000000020000",
            "currentTimestamp" : "0x03e8"
        },
        "post" : {
            "Berlin" : [
                {
                    "hash" : "0x4b366dcbbe1e703f2ffd9150e6ff3478a5db9edc900a25a1c1148c89cec9bef1",
                    "indexes" : {
                        "data" : 0,
                        "gas" : 0,
                        "value" : 0
                    },
                    "logs" : "0x1dcc4de8dec75d7aab85b567b6ccd41ad312451b948a7413f0a142fd40d49347",
                    "txbytes" : "0xf90152800a8424c93d7594095e7baea6a6c7c4c2dfeb977efac326af552d8784613aa6abb8ec7f00000000000000000000000000000000000000000000000000000000000000007f00000000000000000000000100000000000000000000000000000000000000007ffffffffffffffffffffffffffffffffffffffffffffffffffffffffffffffffe7f000000000000000000000000000000000000000000000000000000000000c3507f00000000000000000000000100000000000000000000000000000000000000007fffffffffffffffffffffffffffffffffffffffffffffffffffffffffffffffff857ffffffffffffffffffffffffffffffffffffffffffffffffffffffffffffffffe1302056f1ba0236c864ebf0f47f3cc7d1db1bf96b3938a5cdf2309f5ce2b0681b2281fb6f9bca039e326b9ffdfd158991d955419f84b87010396c3c6339e0ddbbe52a9423d8664"
                }
            ],
            "Cancun" : [
                {
                    "hash" : "0x785613e72622121cf74942434813304bcc77f430403463cd94b57ae3e5617f0b",
                    "indexes" : {
                        "data" : 0,
                        "gas" : 0,
                        "value" : 0
                    },
                    "logs" : "0x1dcc4de8dec75d7aab85b567b6ccd41ad312451b948a7413f0a142fd40d49347",
                    "txbytes" : "0xf90152800a8424c93d7594095e7baea6a6c7c4c2dfeb977efac326af552d8784613aa6abb8ec7f00000000000000000000000000000000000000000000000000000000000000007f00000000000000000000000100000000000000000000000000000000000000007ffffffffffffffffffffffffffffffffffffffffffffffffffffffffffffffffe7f000000000000000000000000000000000000000000000000000000000000c3507f00000000000000000000000100000000000000000000000000000000000000007fffffffffffffffffffffffffffffffffffffffffffffffffffffffffffffffff857ffffffffffffffffffffffffffffffffffffffffffffffffffffffffffffffffe1302056f1ba0236c864ebf0f47f3cc7d1db1bf96b3938a5cdf2309f5ce2b0681b2281fb6f9bca039e326b9ffdfd158991d955419f84b87010396c3c6339e0ddbbe52a9423d8664"
                }
            ],
            "Istanbul" : [
                {
                    "hash" : "0x4b366dcbbe1e703f2ffd9150e6ff3478a5db9edc900a25a1c1148c89cec9bef1",
                    "indexes" : {
                        "data" : 0,
                        "gas" : 0,
                        "value" : 0
                    },
                    "logs" : "0x1dcc4de8dec75d7aab85b567b6ccd41ad312451b948a7413f0a142fd40d49347",
                    "txbytes" : "0xf90152800a8424c93d7594095e7baea6a6c7c4c2dfeb977efac326af552d8784613aa6abb8ec7f00000000000000000000000000000000000000000000000000000000000000007f00000000000000000000000100000000000000000000000000000000000000007ffffffffffffffffffffffffffffffffffffffffffffffffffffffffffffffffe7f000000000000000000000000000000000000000000000000000000000000c3507f00000000000000000000000100000000000000000000000000000000000000007fffffffffffffffffffffffffffffffffffffffffffffffffffffffffffffffff857ffffffffffffffffffffffffffffffffffffffffffffffffffffffffffffffffe1302056f1ba0236c864ebf0f47f3cc7d1db1bf96b3938a5cdf2309f5ce2b0681b2281fb6f9bca039e326b9ffdfd158991d955419f84b87010396c3c6339e0ddbbe52a9423d8664"
                }
            ],
            "London" : [
                {
                    "hash" : "0x785613e72622121cf74942434813304bcc77f430403463cd94b57ae3e5617f0b",
                    "indexes" : {
                        "data" : 0,
                        "gas" : 0,
                        "value" : 0
                    },
                    "logs" : "0x1dcc4de8dec75d7aab85b567b6ccd41ad312451b948a7413f0a142fd40d49347",
                    "txbytes" : "0xf90152800a8424c93d7594095e7baea6a6c7c4c2dfeb977efac326af552d8784613aa6abb8ec7f00000000000000000000000000000000000000000000000000000000000000007f00000000000000000000000100000000000000000000000000000000000000007ffffffffffffffffffffffffffffffffffffffffffffffffffffffffffffffffe7f000000000000000000000000000000000000000000000000000000000000c3507f00000000000000000000000100000000000000000000000000000000000000007fffffffffffffffffffffffffffffffffffffffffffffffffffffffffffffffff857ffffffffffffffffffffffffffffffffffffffffffffffffffffffffffffffffe1302056f1ba0236c864ebf0f47f3cc7d1db1bf96b3938a5cdf2309f5ce2b0681b2281fb6f9bca039e326b9ffdfd158991d955419f84b87010396c3c6339e0ddbbe52a9423d8664"
                }
            ],
            "Paris" : [
                {
                    "hash" : "0x785613e72622121cf74942434813304bcc77f430403463cd94b57ae3e5617f0b",
                    "indexes" : {
                        "data" : 0,
                        "gas" : 0,
                        "value" : 0
                    },
                    "logs" : "0x1dcc4de8dec75d7aab85b567b6ccd41ad312451b948a7413f0a142fd40d49347",
                    "txbytes" : "0xf90152800a8424c93d7594095e7baea6a6c7c4c2dfeb977efac326af552d8784613aa6abb8ec7f00000000000000000000000000000000000000000000000000000000000000007f00000000000000000000000100000000000000000000000000000000000000007ffffffffffffffffffffffffffffffffffffffffffffffffffffffffffffffffe7f000000000000000000000000000000000000000000000000000000000000c3507f00000000000000000000000100000000000000000000000000000000000000007fffffffffffffffffffffffffffffffffffffffffffffffffffffffffffffffff857ffffffffffffffffffffffffffffffffffffffffffffffffffffffffffffffffe1302056f1ba0236c864ebf0f47f3cc7d1db1bf96b3938a5cdf2309f5ce2b0681b2281fb6f9bca039e326b9ffdfd158991d955419f84b87010396c3c6339e0ddbbe52a9423d8664"
                }
            ],
            "Shanghai" : [
                {
                    "hash" : "0x785613e72622121cf74942434813304bcc77f430403463cd94b57ae3e5617f0b",
                    "indexes" : {
                        "data" : 0,
                        "gas" : 0,
                        "value" : 0
                    },
                    "logs" : "0x1dcc4de8dec75d7aab85b567b6ccd41ad312451b948a7413f0a142fd40d49347",
                    "txbytes" : "0xf90152800a8424c93d7594095e7baea6a6c7c4c2dfeb977efac326af552d8784613aa6abb8ec7f00000000000000000000000000000000000000000000000000000000000000007f00000000000000000000000100000000000000000000000000000000000000007ffffffffffffffffffffffffffffffffffffffffffffffffffffffffffffffffe7f000000000000000000000000000000000000000000000000000000000000c3507f00000000000000000000000100000000000000000000000000000000000000007fffffffffffffffffffffffffffffffffffffffffffffffffffffffffffffffff857ffffffffffffffffffffffffffffffffffffffffffffffffffffffffffffffffe1302056f1ba0236c864ebf0f47f3cc7d1db1bf96b3938a5cdf2309f5ce2b0681b2281fb6f9bca039e326b9ffdfd158991d955419f84b87010396c3c6339e0ddbbe52a9423d8664"
                }
            ]
        },
        "pre" : {
            "0x095e7baea6a6c7c4c2dfeb977efac326af552d87" : {
                "balance" : "0x00",
                "code" : "0x7f00000000000000000000000000000000000000000000000000000000000000007f00000000000000000000000100000000000000000000000000000000000000007ffffffffffffffffffffffffffffffffffffffffffffffffffffffffffffffffe7f000000000000000000000000000000000000000000000000000000000000c3507f00000000000000000000000100000000000000000000000000000000000000007fffffffffffffffffffffffffffffffffffffffffffffffffffffffffffffffff857ffffffffffffffffffffffffffffffffffffffffffffffffffffffffffffffffe1302056f60005155",
                "nonce" : "0x00",
                "storage" : {
                }
            },
            "0x945304eb96065b2a98b57a48a06ae28d285a71b5" : {
                "balance" : "0x2e",
                "code" : "0x6000355415600957005b60203560003555",
                "nonce" : "0x00",
                "storage" : {
                }
            },
            "0xa94f5374fce5edbc8e2a8697c15331677e6ebf0b" : {
                "balance" : "0x0de0b6b3a7640000",
                "code" : "0x",
                "nonce" : "0x00",
                "storage" : {
                }
            }
        },
        "transaction" : {
            "data" : [
                "0x7f00000000000000000000000000000000000000000000000000000000000000007f00000000000000000000000100000000000000000000000000000000000000007ffffffffffffffffffffffffffffffffffffffffffffffffffffffffffffffffe7f000000000000000000000000000000000000000000000000000000000000c3507f00000000000000000000000100000000000000000000000000000000000000007fffffffffffffffffffffffffffffffffffffffffffffffffffffffffffffffff857ffffffffffffffffffffffffffffffffffffffffffffffffffffffffffffffffe1302056f"
            ],
            "gasLimit" : [
                "0x24c93d75"
            ],
            "gasPrice" : "0x0a",
            "nonce" : "0x00",
            "secretKey" : "0x45a915e4d060149eb4365960e6a7a45f334393093061116b197e3240065ff2d8",
            "sender" : "0xa94f5374fce5edbc8e2a8697c15331677e6ebf0b",
            "to" : "0x095e7baea6a6c7c4c2dfeb977efac326af552d87",
            "value" : [
                "0x613aa6ab"
            ]
        }
    }
}