{
    "randomStatetest341" : {
        "_info" : {
            "comment" : "",
            "filling-rpc-server" : "evm version 1.13.13-unstable-034bc466-20240219",
            "filling-tool-version" : "retesteth-0.3.2-cancun+commit.014a68a5.Linux.g++",
            "generatedTestHash" : "e89ec4541c4e03bc8b256da85215088e09a5be806eafc1bd41a98c0ecbd0838a",
            "lllcversion" : "Version: 0.5.14-develop.2023.7.11+commit.c58ab2c6.mod.Linux.g++",
            "solidity" : "Version: 0.8.21+commit.d9974bed.Linux.g++",
            "source" : "src/GeneralStateTestsFiller/stRandom/randomStatetest341Filler.json",
            "sourceHash" : "179054558ed90420f5f80d09f7279260d575c10187d1021042ff57850a8de813"
        },
        "env" : {
            "currentBaseFee" : "0x0a",
            "currentCoinbase" : "0x945304eb96065b2a98b57a48a06ae28d285a71b5",
            "currentDifficulty" : "0x020000",
            "currentExcessBlobGas" : "0x00",
            "currentGasLimit" : "0x7fffffffffffffff",
            "currentNumber" : "0x01",
            "currentRandom" : "0x0000000000000000000000000000000000000000000000000000000000020000",
            "currentTimestamp" : "0x03e8"
        },
        "post" : {
            "Berlin" : [
                {
                    "hash" : "0xab40ccd4dfb95fae01d944cd301be2c9de19ed9ad8903008c9dcabba5ba5597f",
                    "indexes" : {
                        "data" : 0,
                        "gas" : 0,
                        "value" : 0
                    },
                    "logs" : "0x1dcc4de8dec75d7aab85b567b6ccd41ad312451b948a7413f0a142fd40d49347",
                    "txbytes" : "0xf9013c800a8401a7640194095e7baea6a6c7c4c2dfeb977efac326af552d878316ab40b8d7427f00000000000000000000000000000000000000000000000000000000000000007f00000000000000000000000000000000000000000000000000000000000000017f000000000000000000000000945304eb96065b2a98b57a48a06ae28d285a71b57ffffffffffffffffffffffffffffffffffffffffffffffffffffffffffffffffe7f000000000000000000000000ffffffffffffffffffffffffffffffffffffffff7f000000000000000000000000ffffffffffffffffffffffffffffffffffffffff583481f36a85646d53671639175b94081ca04ab90fe7fc6d44599ffa31449fa0a8770ccffacbd65dd49f0aad28329d9a58fca00fc02823e746f1a0ee3130c068700661f7c07ecc01f8a64e4d95cb57917f0a5f"
                }
            ],
            "Cancun" : [
                {
                    "hash" : "0xbc70ad8297fb70645f686b97bf72bdc96948d7739b79478db033416cf22e3ae9",
                    "indexes" : {
                        "data" : 0,
                        "gas" : 0,
                        "value" : 0
                    },
                    "logs" : "0x1dcc4de8dec75d7aab85b567b6ccd41ad312451b948a7413f0a142fd40d49347",
                    "txbytes" : "0xf9013c800a8401a7640194095e7baea6a6c7c4c2dfeb977efac326af552d878316ab40b8d7427f00000000000000000000000000000000000000000000000000000000000000007f00000000000000000000000000000000000000000000000000000000000000017f000000000000000000000000945304eb96065b2a98b57a48a06ae28d285a71b57ffffffffffffffffffffffffffffffffffffffffffffffffffffffffffffffffe7f000000000000000000000000ffffffffffffffffffffffffffffffffffffffff7f000000000000000000000000ffffffffffffffffffffffffffffffffffffffff583481f36a85646d53671639175b94081ca04ab90fe7fc6d44599ffa31449fa0a8770ccffacbd65dd49f0aad28329d9a58fca00fc02823e746f1a0ee3130c068700661f7c07ecc01f8a64e4d95cb57917f0a5f"
                }
            ],
            "Istanbul" : [
                {
                    "hash" : "0xab40ccd4dfb95fae01d944cd301be2c9de19ed9ad8903008c9dcabba5ba5597f",
                    "indexes" : {
                        "data" : 0,
                        "gas" : 0,
                        "value" : 0
                    },
                    "logs" : "0x1dcc4de8dec75d7aab85b567b6ccd41ad312451b948a7413f0a142fd40d49347",
                    "txbytes" : "0xf9013c800a8401a7640194095e7baea6a6c7c4c2dfeb977efac326af552d878316ab40b8d7427f00000000000000000000000000000000000000000000000000000000000000007f00000000000000000000000000000000000000000000000000000000000000017f000000000000000000000000945304eb96065b2a98b57a48a06ae28d285a71b57ffffffffffffffffffffffffffffffffffffffffffffffffffffffffffffffffe7f000000000000000000000000ffffffffffffffffffffffffffffffffffffffff7f000000000000000000000000ffffffffffffffffffffffffffffffffffffffff583481f36a85646d53671639175b94081ca04ab90fe7fc6d44599ffa31449fa0a8770ccffacbd65dd49f0aad28329d9a58fca00fc02823e746f1a0ee3130c068700661f7c07ecc01f8a64e4d95cb57917f0a5f"
                }
            ],
            "London" : [
                {
                    "hash" : "0x2db8effade253f5d6d46c1f3372ecf7da8270e4415d135efbea2bd396b76e34e",
                    "indexes" : {
                        "data" : 0,
                        "gas" : 0,
                        "value" : 0
                    },
                    "logs" : "0x1dcc4de8dec75d7aab85b567b6ccd41ad312451b948a7413f0a142fd40d49347",
                    "txbytes" : "0xf9013c800a8401a7640194095e7baea6a6c7c4c2dfeb977efac326af552d878316ab40b8d7427f00000000000000000000000000000000000000000000000000000000000000007f00000000000000000000000000000000000000000000000000000000000000017f000000000000000000000000945304eb96065b2a98b57a48a06ae28d285a71b57ffffffffffffffffffffffffffffffffffffffffffffffffffffffffffffffffe7f000000000000000000000000ffffffffffffffffffffffffffffffffffffffff7f000000000000000000000000ffffffffffffffffffffffffffffffffffffffff583481f36a85646d53671639175b94081ca04ab90fe7fc6d44599ffa31449fa0a8770ccffacbd65dd49f0aad28329d9a58fca00fc02823e746f1a0ee3130c068700661f7c07ecc01f8a64e4d95cb57917f0a5f"
                }
            ],
            "Paris" : [
                {
                    "hash" : "0x2db8effade253f5d6d46c1f3372ecf7da8270e4415d135efbea2bd396b76e34e",
                    "indexes" : {
                        "data" : 0,
                        "gas" : 0,
                        "value" : 0
                    },
                    "logs" : "0x1dcc4de8dec75d7aab85b567b6ccd41ad312451b948a7413f0a142fd40d49347",
                    "txbytes" : "0xf9013c800a8401a7640194095e7baea6a6c7c4c2dfeb977efac326af552d878316ab40b8d7427f00000000000000000000000000000000000000000000000000000000000000007f00000000000000000000000000000000000000000000000000000000000000017f000000000000000000000000945304eb96065b2a98b57a48a06ae28d285a71b57ffffffffffffffffffffffffffffffffffffffffffffffffffffffffffffffffe7f000000000000000000000000ffffffffffffffffffffffffffffffffffffffff7f000000000000000000000000ffffffffffffffffffffffffffffffffffffffff583481f36a85646d53671639175b94081ca04ab90fe7fc6d44599ffa31449fa0a8770ccffacbd65dd49f0aad28329d9a58fca00fc02823e746f1a0ee3130c068700661f7c07ecc01f8a64e4d95cb57917f0a5f"
                }
            ],
            "Shanghai" : [
                {
                    "hash" : "0x2db8effade253f5d6d46c1f3372ecf7da8270e4415d135efbea2bd396b76e34e",
                    "indexes" : {
                        "data" : 0,
                        "gas" : 0,
                        "value" : 0
                    },
                    "logs" : "0x1dcc4de8dec75d7aab85b567b6ccd41ad312451b948a7413f0a142fd40d49347",
                    "txbytes" : "0xf9013c800a8401a7640194095e7baea6a6c7c4c2dfeb977efac326af552d878316ab40b8d7427f00000000000000000000000000000000000000000000000000000000000000007f00000000000000000000000000000000000000000000000000000000000000017f000000000000000000000000945304eb96065b2a98b57a48a06ae28d285a71b57ffffffffffffffffffffffffffffffffffffffffffffffffffffffffffffffffe7f000000000000000000000000ffffffffffffffffffffffffffffffffffffffff7f000000000000000000000000ffffffffffffffffffffffffffffffffffffffff583481f36a85646d53671639175b94081ca04ab90fe7fc6d44599ffa31449fa0a8770ccffacbd65dd49f0aad28329d9a58fca00fc02823e746f1a0ee3130c068700661f7c07ecc01f8a64e4d95cb57917f0a5f"
                }
            ]
        },
        "pre" : {
            "0x000f3df6d732807ef1319fb7b8bb8522d0beac02" : {
                "balance" : "0x00",
                "code" : "0x3373fffffffffffffffffffffffffffffffffffffffe14604d57602036146024575f5ffd5b5f35801560495762001fff810690815414603c575f5ffd5b62001fff01545f5260205ff35b5f5ffd5b62001fff42064281555f359062001fff015500",
                "nonce" : "0x01",
                "storage" : {
                }
            },
            "0x095e7baea6a6c7c4c2dfeb977efac326af552d87" : {
                "balance" : "0x00",
                "code" : "0x427f00000000000000000000000000000000000000000000000000000000000000007f00000000000000000000000000000000000000000000000000000000000000017f000000000000000000000000945304eb96065b2a98b57a48a06ae28d285a71b57ffffffffffffffffffffffffffffffffffffffffffffffffffffffffffffffffe7f000000000000000000000000ffffffffffffffffffffffffffffffffffffffff7f000000000000000000000000ffffffffffffffffffffffffffffffffffffffff583481f36a85646d53671639175b940860005155",
                "nonce" : "0x00",
                "storage" : {
                }
            },
            "0x945304eb96065b2a98b57a48a06ae28d285a71b5" : {
                "balance" : "0x2e",
                "code" : "0x6000355415600957005b60203560003555",
                "nonce" : "0x00",
                "storage" : {
                }
            },
            "0xa94f5374fce5edbc8e2a8697c15331677e6ebf0b" : {
                "balance" : "0x0de0b6b3a7640000",
                "code" : "0x",
                "nonce" : "0x00",
                "storage" : {
                }
            }
        },
        "transaction" : {
            "data" : [
                "0x427f00000000000000000000000000000000000000000000000000000000000000007f00000000000000000000000000000000000000000000000000000000000000017f000000000000000000000000945304eb96065b2a98b57a48a06ae28d285a71b57ffffffffffffffffffffffffffffffffffffffffffffffffffffffffffffffffe7f000000000000000000000000ffffffffffffffffffffffffffffffffffffffff7f000000000000000000000000ffffffffffffffffffffffffffffffffffffffff583481f36a85646d53671639175b9408"
            ],
            "gasLimit" : [
                "0x01a76401"
            ],
            "gasPrice" : "0x0a",
            "nonce" : "0x00",
            "secretKey" : "0x45a915e4d060149eb4365960e6a7a45f334393093061116b197e3240065ff2d8",
            "sender" : "0xa94f5374fce5edbc8e2a8697c15331677e6ebf0b",
            "to" : "0x095e7baea6a6c7c4c2dfeb977efac326af552d87",
            "value" : [
                "0x16ab40"
            ]
        }
    }
}