{
    "randomStatetest83" : {
        "_info" : {
            "comment" : "",
            "filling-rpc-server" : "evm version 1.13.13-unstable-034bc466-20240219",
            "filling-tool-version" : "retesteth-0.3.2-cancun+commit.014a68a5.Linux.g++",
            "generatedTestHash" : "2dae6476ddbc6b26e61f30559bef4db395e1a9859ffe14e520ec3538a4c19bd0",
            "lllcversion" : "Version: 0.5.14-develop.2023.7.11+commit.c58ab2c6.mod.Linux.g++",
            "solidity" : "Version: 0.8.21+commit.d9974bed.Linux.g++",
            "source" : "src/GeneralStateTestsFiller/stRandom/randomStatetest83Filler.json",
            "sourceHash" : "cc50d9e360ccb7bc73063a86b0572f7b04c6e3cab87bafd1f77cbee52e34358a"
        },
        "env" : {
            "currentBaseFee" : "0x0a",
            "currentCoinbase" : "0x945304eb96065b2a98b57a48a06ae28d285a71b5",
            "currentDifficulty" : "0x020000",
            "currentExcessBlobGas" : "0x00",
            "currentGasLimit" : "0x7fffffffffffffff",
            "currentNumber" : "0x01",
            "currentRandom" : "0x0000000000000000000000000000000000000000000000000000000000020000",
            "currentTimestamp" : "0x03e8"
        },
        "post" : {
            "Berlin" : [
                {
                    "hash" : "0x1eedb01bf67c1ee9088615e0b4f4a8e99350d4342ee25d3c5d1a9267ea65d579",
                    "indexes" : {
                        "data" : 0,
                        "gas" : 0,
                        "value" : 0
                    },
                    "logs" : "0x1dcc4de8dec75d7aab85b567b6ccd41ad312451b948a7413f0a142fd40d49347",
                    "txbytes" : "0xf9013e800a841845c69994095e7baea6a6c7c4c2dfeb977efac326af552d87843c81798cb8d87f00000000000000000000000000000000000000000000000000000000000000007f000000000000000000000000ffffffffffffffffffffffffffffffffffffffff427f00000000000000000000000000000000000000000000000000000000000000017f000000000000000000000000ffffffffffffffffffffffffffffffffffffffff7f0000000000000000000000000000000000000000000000000000000000000000307ffffffffffffffffffffffffffffffffffffffffffffffffffffffffffffffffe6fa1109af20740728e72150a7a9c09591ca07d90a8d88e82619a95a79ea77becac9245217741cd514623df703ad9e7250a0ea02bea885696471e1ebc8d48f5c44794b58b791a505ccfb429c949d83485ed2fa7"
                }
            ],
            "Cancun" : [
                {
                    "hash" : "0x30b8113439a14bbbf7385f9aeca1b6b0353ceada2c7b1fff74a6e4a5d915b827",
                    "indexes" : {
                        "data" : 0,
                        "gas" : 0,
                        "value" : 0
                    },
                    "logs" : "0x1dcc4de8dec75d7aab85b567b6ccd41ad312451b948a7413f0a142fd40d49347",
                    "txbytes" : "0xf9013e800a841845c69994095e7baea6a6c7c4c2dfeb977efac326af552d87843c81798cb8d87f00000000000000000000000000000000000000000000000000000000000000007f000000000000000000000000ffffffffffffffffffffffffffffffffffffffff427f00000000000000000000000000000000000000000000000000000000000000017f000000000000000000000000ffffffffffffffffffffffffffffffffffffffff7f0000000000000000000000000000000000000000000000000000000000000000307ffffffffffffffffffffffffffffffffffffffffffffffffffffffffffffffffe6fa1109af20740728e72150a7a9c09591ca07d90a8d88e82619a95a79ea77becac9245217741cd514623df703ad9e7250a0ea02bea885696471e1ebc8d48f5c44794b58b791a505ccfb429c949d83485ed2fa7"
                }
            ],
            "Istanbul" : [
                {
                    "hash" : "0x3de376f2310fb974af50979cc2c41a978fa0eab3d41a5244c7cb0e93a9ff0e14",
                    "indexes" : {
                        "data" : 0,
                        "gas" : 0,
                        "value" : 0
                    },
                    "logs" : "0x1dcc4de8dec75d7aab85b567b6ccd41ad312451b948a7413f0a142fd40d49347",
                    "txbytes" : "0xf9013e800a841845c69994095e7baea6a6c7c4c2dfeb977efac326af552d87843c81798cb8d87f00000000000000000000000000000000000000000000000000000000000000007f000000000000000000000000ffffffffffffffffffffffffffffffffffffffff427f00000000000000000000000000000000000000000000000000000000000000017f000000000000000000000000ffffffffffffffffffffffffffffffffffffffff7f0000000000000000000000000000000000000000000000000000000000000000307ffffffffffffffffffffffffffffffffffffffffffffffffffffffffffffffffe6fa1109af20740728e72150a7a9c09591ca07d90a8d88e82619a95a79ea77becac9245217741cd514623df703ad9e7250a0ea02bea885696471e1ebc8d48f5c44794b58b791a505ccfb429c949d83485ed2fa7"
                }
            ],
            "London" : [
                {
                    "hash" : "0x5759ec8c0de452846f8cf0249c5a6e181827c79ec9122fde66de218a3c62a2f7",
                    "indexes" : {
                        "data" : 0,
                        "gas" : 0,
                        "value" : 0
                    },
                    "logs" : "0x1dcc4de8dec75d7aab85b567b6ccd41ad312451b948a7413f0a142fd40d49347",
                    "txbytes" : "0xf9013e800a841845c69994095e7baea6a6c7c4c2dfeb977efac326af552d87843c81798cb8d87f00000000000000000000000000000000000000000000000000000000000000007f000000000000000000000000ffffffffffffffffffffffffffffffffffffffff427f00000000000000000000000000000000000000000000000000000000000000017f000000000000000000000000ffffffffffffffffffffffffffffffffffffffff7f0000000000000000000000000000000000000000000000000000000000000000307ffffffffffffffffffffffffffffffffffffffffffffffffffffffffffffffffe6fa1109af20740728e72150a7a9c09591ca07d90a8d88e82619a95a79ea77becac9245217741cd514623df703ad9e7250a0ea02bea885696471e1ebc8d48f5c44794b58b791a505ccfb429c949d83485ed2fa7"
                }
            ],
            "Paris" : [
                {
                    "hash" : "0x5759ec8c0de452846f8cf0249c5a6e181827c79ec9122fde66de218a3c62a2f7",
                    "indexes" : {
                        "data" : 0,
                        "gas" : 0,
                        "value" : 0
                    },
                    "logs" : "0x1dcc4de8dec75d7aab85b567b6ccd41ad312451b948a7413f0a142fd40d49347",
                    "txbytes" : "0xf9013e800a841845c69994095e7baea6a6c7c4c2dfeb977efac326af552d87843c81798cb8d87f00000000000000000000000000000000000000000000000000000000000000007f000000000000000000000000ffffffffffffffffffffffffffffffffffffffff427f00000000000000000000000000000000000000000000000000000000000000017f000000000000000000000000ffffffffffffffffffffffffffffffffffffffff7f0000000000000000000000000000000000000000000000000000000000000000307ffffffffffffffffffffffffffffffffffffffffffffffffffffffffffffffffe6fa1109af20740728e72150a7a9c09591ca07d90a8d88e82619a95a79ea77becac9245217741cd514623df703ad9e7250a0ea02bea885696471e1ebc8d48f5c44794b58b791a505ccfb429c949d83485ed2fa7"
                }
            ],
            "Shanghai" : [
                {
                    "hash" : "0x5759ec8c0de452846f8cf0249c5a6e181827c79ec9122fde66de218a3c62a2f7",
                    "indexes" : {
                        "data" : 0,
                        "gas" : 0,
                        "value" : 0
                    },
                    "logs" : "0x1dcc4de8dec75d7aab85b567b6ccd41ad312451b948a7413f0a142fd40d49347",
                    "txbytes" : "0xf9013e800a841845c69994095e7baea6a6c7c4c2dfeb977efac326af552d87843c81798cb8d87f00000000000000000000000000000000000000000000000000000000000000007f000000000000000000000000ffffffffffffffffffffffffffffffffffffffff427f00000000000000000000000000000000000000000000000000000000000000017f000000000000000000000000ffffffffffffffffffffffffffffffffffffffff7f0000000000000000000000000000000000000000000000000000000000000000307ffffffffffffffffffffffffffffffffffffffffffffffffffffffffffffffffe6fa1109af20740728e72150a7a9c09591ca07d90a8d88e82619a95a79ea77becac9245217741cd514623df703ad9e7250a0ea02bea885696471e1ebc8d48f5c44794b58b791a505ccfb429c949d83485ed2fa7"
                }
            ]
        },
        "pre" : {
            "0x000f3df6d732807ef1319fb7b8bb8522d0beac02" : {
                "balance" : "0x00",
                "code" : "0x3373fffffffffffffffffffffffffffffffffffffffe14604d57602036146024575f5ffd5b5f35801560495762001fff810690815414603c575f5ffd5b62001fff01545f5260205ff35b5f5ffd5b62001fff42064281555f359062001fff015500",
                "nonce" : "0x01",
                "storage" : {
                }
            },
            "0x095e7baea6a6c7c4c2dfeb977efac326af552d87" : {
                "balance" : "0x00",
                "code" : "0x7f00000000000000000000000000000000000000000000000000000000000000007f000000000000000000000000ffffffffffffffffffffffffffffffffffffffff427f00000000000000000000000000000000000000000000000000000000000000017f000000000000000000000000ffffffffffffffffffffffffffffffffffffffff7f0000000000000000000000000000000000000000000000000000000000000000307ffffffffffffffffffffffffffffffffffffffffffffffffffffffffffffffffe6fa1109af20740728e72150a7a9c09595560005155",
                "nonce" : "0x00",
                "storage" : {
                }
            },
            "0x945304eb96065b2a98b57a48a06ae28d285a71b5" : {
                "balance" : "0x2e",
                "code" : "0x6000355415600957005b60203560003555",
                "nonce" : "0x00",
                "storage" : {
                }
            },
            "0xa94f5374fce5edbc8e2a8697c15331677e6ebf0b" : {
                "balance" : "0x0de0b6b3a7640000",
                "code" : "0x",
                "nonce" : "0x00",
                "storage" : {
                }
            }
        },
        "transaction" : {
            "data" : [
                "0x7f00000000000000000000000000000000000000000000000000000000000000007f000000000000000000000000ffffffffffffffffffffffffffffffffffffffff427f00000000000000000000000000000000000000000000000000000000000000017f000000000000000000000000ffffffffffffffffffffffffffffffffffffffff7f0000000000000000000000000000000000000000000000000000000000000000307ffffffffffffffffffffffffffffffffffffffffffffffffffffffffffffffffe6fa1109af20740728e72150a7a9c0959"
            ],
            "gasLimit" : [
                "0x1845c699"
            ],
            "gasPrice" : "0x0a",
            "nonce" : "0x00",
            "secretKey" : "0x45a915e4d060149eb4365960e6a7a45f334393093061116b197e3240065ff2d8",
            "sender" : "0xa94f5374fce5edbc8e2a8697c15331677e6ebf0b",
            "to" : "0x095e7baea6a6c7c4c2dfeb977efac326af552d87",
            "value" : [
                "0x3c81798c"
            ]
        }
    }
}