{
    "randomStatetest204" : {
        "_info" : {
            "comment" : "",
            "filling-rpc-server" : "evm version 1.13.11-unstable-765f2904-20240124",
            "filling-tool-version" : "retesteth-0.3.2-cancun+commit.ea13235b.Linux.g++",
            "generatedTestHash" : "6e1957711b8736d92f17aac9c06aea4ec64186a117eec557a63c6a946be600ce",
            "lllcversion" : "Version: 0.5.14-develop.2023.7.11+commit.c58ab2c6.mod.Linux.g++",
            "solidity" : "Version: 0.8.21+commit.d9974bed.Linux.g++",
            "source" : "src/GeneralStateTestsFiller/stRandom/randomStatetest204Filler.json",
            "sourceHash" : "2c6f71fca346bffb074d4e82cc2783c6006db0a10e1905b1fea03c47c4f63926"
        },
        "env" : {
            "currentBaseFee" : "0x0a",
            "currentCoinbase" : "0x945304eb96065b2a98b57a48a06ae28d285a71b5",
            "currentDifficulty" : "0x020000",
            "currentExcessBlobGas" : "0x00",
            "currentGasLimit" : "0x7fffffffffffffff",
            "currentNumber" : "0x01",
            "currentRandom" : "0x0000000000000000000000000000000000000000000000000000000000020000",
            "currentTimestamp" : "0x03e8"
        },
        "post" : {
            "Berlin" : [
                {
                    "hash" : "0xc16e99d3462ef8fcc2b36b82edba8c971bf79c2767040ef806054147ddb7b03c",
                    "indexes" : {
                        "data" : 0,
                        "gas" : 0,
                        "value" : 0
                    },
                    "logs" : "0x1dcc4de8dec75d7aab85b567b6ccd41ad312451b948a7413f0a142fd40d49347",
                    "txbytes" : "0xf90171800a844d39e43794095e7baea6a6c7c4c2dfeb977efac326af552d8784763f0c95b9010a7f000000000000000000000000000000000000000000000000000000000000c3507f00000000000000000000000000000000000000000000000000000000000000017f000000000000000000000000945304eb96065b2a98b57a48a06ae28d285a71b57f00000000000000000000000000000000000000000000000000000000000000007f00000000000000000000000000000000000000000000000000000000000000017fffffffffffffffffffffffffffffffffffffffffffffffffffffffffffffffff7f00000000000000000000000100000000000000000000000000000000000000007f000000000000000000000000ffffffffffffffffffffffffffffffffffffffff09821ca0fb7c6f551b71824bc2e07b5a7f9389de39f5c71bbecee10555286b1450d51bb2a04431561f274f2b532f365bd5a671d458fd40820ac4fe1ae4401816584c2e2ee5"
                }
            ],
            "Cancun" : [
                {
                    "hash" : "0x1f750a6d6b1e3d4ed09813bbdebe27295b5b5922a0fdb311e6dbabc3395b4bb7",
                    "indexes" : {
                        "data" : 0,
                        "gas" : 0,
                        "value" : 0
                    },
                    "logs" : "0x1dcc4de8dec75d7aab85b567b6ccd41ad312451b948a7413f0a142fd40d49347",
                    "txbytes" : "0xf90171800a844d39e43794095e7baea6a6c7c4c2dfeb977efac326af552d8784763f0c95b9010a7f000000000000000000000000000000000000000000000000000000000000c3507f00000000000000000000000000000000000000000000000000000000000000017f000000000000000000000000945304eb96065b2a98b57a48a06ae28d285a71b57f00000000000000000000000000000000000000000000000000000000000000007f00000000000000000000000000000000000000000000000000000000000000017fffffffffffffffffffffffffffffffffffffffffffffffffffffffffffffffff7f00000000000000000000000100000000000000000000000000000000000000007f000000000000000000000000ffffffffffffffffffffffffffffffffffffffff09821ca0fb7c6f551b71824bc2e07b5a7f9389de39f5c71bbecee10555286b1450d51bb2a04431561f274f2b532f365bd5a671d458fd40820ac4fe1ae4401816584c2e2ee5"
                }
            ],
            "Istanbul" : [
                {
                    "hash" : "0x8ca67b925998520cba3bd57a02810e25f8fc49ba7bf5234c1b490fb9dac225de",
                    "indexes" : {
                        "data" : 0,
                        "gas" : 0,
                        "value" : 0
                    },
                    "logs" : "0x1dcc4de8dec75d7aab85b567b6ccd41ad312451b948a7413f0a142fd40d49347",
                    "txbytes" : "0xf90171800a844d39e43794095e7baea6a6c7c4c2dfeb977efac326af552d8784763f0c95b9010a7f000000000000000000000000000000000000000000000000000000000000c3507f00000000000000000000000000000000000000000000000000000000000000017f000000000000000000000000945304eb96065b2a98b57a48a06ae28d285a71b57f00000000000000000000000000000000000000000000000000000000000000007f00000000000000000000000000000000000000000000000000000000000000017fffffffffffffffffffffffffffffffffffffffffffffffffffffffffffffffff7f00000000000000000000000100000000000000000000000000000000000000007f000000000000000000000000ffffffffffffffffffffffffffffffffffffffff09821ca0fb7c6f551b71824bc2e07b5a7f9389de39f5c71bbecee10555286b1450d51bb2a04431561f274f2b532f365bd5a671d458fd40820ac4fe1ae4401816584c2e2ee5"
                }
            ],
            "London" : [
                {
                    "hash" : "0x1f750a6d6b1e3d4ed09813bbdebe27295b5b5922a0fdb311e6dbabc3395b4bb7",
                    "indexes" : {
                        "data" : 0,
                        "gas" : 0,
                        "value" : 0
                    },
                    "logs" : "0x1dcc4de8dec75d7aab85b567b6ccd41ad312451b948a7413f0a142fd40d49347",
                    "txbytes" : "0xf90171800a844d39e43794095e7baea6a6c7c4c2dfeb977efac326af552d8784763f0c95b9010a7f000000000000000000000000000000000000000000000000000000000000c3507f00000000000000000000000000000000000000000000000000000000000000017f000000000000000000000000945304eb96065b2a98b57a48a06ae28d285a71b57f00000000000000000000000000000000000000000000000000000000000000007f00000000000000000000000000000000000000000000000000000000000000017fffffffffffffffffffffffffffffffffffffffffffffffffffffffffffffffff7f00000000000000000000000100000000000000000000000000000000000000007f000000000000000000000000ffffffffffffffffffffffffffffffffffffffff09821ca0fb7c6f551b71824bc2e07b5a7f9389de39f5c71bbecee10555286b1450d51bb2a04431561f274f2b532f365bd5a671d458fd40820ac4fe1ae4401816584c2e2ee5"
                }
            ],
            "Paris" : [
                {
                    "hash" : "0x1f750a6d6b1e3d4ed09813bbdebe27295b5b5922a0fdb311e6dbabc3395b4bb7",
                    "indexes" : {
                        "data" : 0,
                        "gas" : 0,
                        "value" : 0
                    },
                    "logs" : "0x1dcc4de8dec75d7aab85b567b6ccd41ad312451b948a7413f0a142fd40d49347",
                    "txbytes" : "0xf90171800a844d39e43794095e7baea6a6c7c4c2dfeb977efac326af552d8784763f0c95b9010a7f000000000000000000000000000000000000000000000000000000000000c3507f00000000000000000000000000000000000000000000000000000000000000017f000000000000000000000000945304eb96065b2a98b57a48a06ae28d285a71b57f00000000000000000000000000000000000000000000000000000000000000007f00000000000000000000000000000000000000000000000000000000000000017fffffffffffffffffffffffffffffffffffffffffffffffffffffffffffffffff7f00000000000000000000000100000000000000000000000000000000000000007f000000000000000000000000ffffffffffffffffffffffffffffffffffffffff09821ca0fb7c6f551b71824bc2e07b5a7f9389de39f5c71bbecee10555286b1450d51bb2a04431561f274f2b532f365bd5a671d458fd40820ac4fe1ae4401816584c2e2ee5"
                }
            ],
            "Shanghai" : [
                {
                    "hash" : "0x1f750a6d6b1e3d4ed09813bbdebe27295b5b5922a0fdb311e6dbabc3395b4bb7",
                    "indexes" : {
                        "data" : 0,
                        "gas" : 0,
                        "value" : 0
                    },
                    "logs" : "0x1dcc4de8dec75d7aab85b567b6ccd41ad312451b948a7413f0a142fd40d49347",
                    "txbytes" : "0xf90171800a844d39e43794095e7baea6a6c7c4c2dfeb977efac326af552d8784763f0c95b9010a7f000000000000000000000000000000000000000000000000000000000000c3507f00000000000000000000000000000000000000000000000000000000000000017f000000000000000000000000945304eb96065b2a98b57a48a06ae28d285a71b57f00000000000000000000000000000000000000000000000000000000000000007f00000000000000000000000000000000000000000000000000000000000000017fffffffffffffffffffffffffffffffffffffffffffffffffffffffffffffffff7f00000000000000000000000100000000000000000000000000000000000000007f000000000000000000000000ffffffffffffffffffffffffffffffffffffffff09821ca0fb7c6f551b71824bc2e07b5a7f9389de39f5c71bbecee10555286b1450d51bb2a04431561f274f2b532f365bd5a671d458fd40820ac4fe1ae4401816584c2e2ee5"
                }
            ]
        },
        "pre" : {
            "0x095e7baea6a6c7c4c2dfeb977efac326af552d87" : {
                "balance" : "0x00",
                "code" : "0x7f000000000000000000000000000000000000000000000000000000000000c3507f00000000000000000000000000000000000000000000000000000000000000017f000000000000000000000000945304eb96065b2a98b57a48a06ae28d285a71b57f00000000000000000000000000000000000000000000000000000000000000007f00000000000000000000000000000000000000000000000000000000000000017fffffffffffffffffffffffffffffffffffffffffffffffffffffffffffffffff7f00000000000000000000000100000000000000000000000000000000000000007f000000000000000000000000ffffffffffffffffffffffffffffffffffffffff098255",
                "nonce" : "0x00",
                "storage" : {
                }
            },
            "0x945304eb96065b2a98b57a48a06ae28d285a71b5" : {
                "balance" : "0x2e",
                "code" : "0x6000355415600957005b60203560003555",
                "nonce" : "0x00",
                "storage" : {
                }
            },
            "0xa94f5374fce5edbc8e2a8697c15331677e6ebf0b" : {
                "balance" : "0x0de0b6b3a7640000",
                "code" : "0x",
                "nonce" : "0x00",
                "storage" : {
                }
            }
        },
        "transaction" : {
            "data" : [
                "0x7f000000000000000000000000000000000000000000000000000000000000c3507f00000000000000000000000000000000000000000000000000000000000000017f000000000000000000000000945304eb96065b2a98b57a48a06ae28d285a71b57f00000000000000000000000000000000000000000000000000000000000000007f00000000000000000000000000000000000000000000000000000000000000017fffffffffffffffffffffffffffffffffffffffffffffffffffffffffffffffff7f00000000000000000000000100000000000000000000000000000000000000007f000000000000000000000000ffffffffffffffffffffffffffffffffffffffff0982"
            ],
            "gasLimit" : [
                "0x4d39e437"
            ],
            "gasPrice" : "0x0a",
            "nonce" : "0x00",
            "secretKey" : "0x45a915e4d060149eb4365960e6a7a45f334393093061116b197e3240065ff2d8",
            "sender" : "0xa94f5374fce5edbc8e2a8697c15331677e6ebf0b",
            "to" : "0x095e7baea6a6c7c4c2dfeb977efac326af552d87",
            "value" : [
                "0x763f0c95"
            ]
        }
    }
}