{
    "randomStatetest22" : {
        "_info" : {
            "comment" : "",
            "filling-rpc-server" : "evm version 1.13.11-unstable-765f2904-20240124",
            "filling-tool-version" : "retesteth-0.3.2-cancun+commit.ea13235b.Linux.g++",
            "generatedTestHash" : "5da30d1ef0f39ba8a09a5296d29b5e5ed5ce34a64fdd7614832bd1d18455c354",
            "lllcversion" : "Version: 0.5.14-develop.2023.7.11+commit.c58ab2c6.mod.Linux.g++",
            "solidity" : "Version: 0.8.21+commit.d9974bed.Linux.g++",
            "source" : "src/GeneralStateTestsFiller/stRandom/randomStatetest22Filler.json",
            "sourceHash" : "c69ec87b840e44a6f29a62e6c402196d4e8f9a3af6abbdcd498bd20c09a9847e"
        },
        "env" : {
            "currentBaseFee" : "0x0a",
            "currentCoinbase" : "0x945304eb96065b2a98b57a48a06ae28d285a71b5",
            "currentDifficulty" : "0x020000",
            "currentExcessBlobGas" : "0x00",
            "currentGasLimit" : "0x7fffffffffffffff",
            "currentNumber" : "0x01",
            "currentRandom" : "0x0000000000000000000000000000000000000000000000000000000000020000",
            "currentTimestamp" : "0x03e8"
        },
        "post" : {
            "Berlin" : [
                {
                    "hash" : "0xe5b6bd8bc4edb04d949404291db811e01b3a418ac1502f9a13395b89fc7c5992",
                    "indexes" : {
                        "data" : 0,
                        "gas" : 0,
                        "value" : 0
                    },
                    "logs" : "0x1dcc4de8dec75d7aab85b567b6ccd41ad312451b948a7413f0a142fd40d49347",
                    "txbytes" : "0xf90137800a8460e1613694095e7baea6a6c7c4c2dfeb977efac326af552d87846c243ae4b8d16d417fffffffffffffffffffffffffffffffffffffffffffffffffffffffffffffffff7f00000000000000000000000000000000000000000000000000000000000000017fffffffffffffffffffffffffffffffffffffffffffffffffffffffffffffffff7f000000000000000000000000000000000000000000000000000000000000c3507f00000000000000000000000100000000000000000000000000000000000000007fffffffffffffffffffffffffffffffffffffffffffffffffffffffffffffffff7e969f926084143c791ba07dc3ea5a58e13921d0bf2712a9f749b93746dfb77e07c79a80436bae932c8643a022f1afb4f689907f6f46fbbedd91daa563a61ed54fb28592352be80371d52ecf"
                }
            ],
            "Cancun" : [
                {
                    "hash" : "0xe442a5090448982d8f7cfe37d12fb38829c13e082d5660a77ca7063719326ef0",
                    "indexes" : {
                        "data" : 0,
                        "gas" : 0,
                        "value" : 0
                    },
                    "logs" : "0x1dcc4de8dec75d7aab85b567b6ccd41ad312451b948a7413f0a142fd40d49347",
                    "txbytes" : "0xf90137800a8460e1613694095e7baea6a6c7c4c2dfeb977efac326af552d87846c243ae4b8d16d417fffffffffffffffffffffffffffffffffffffffffffffffffffffffffffffffff7f00000000000000000000000000000000000000000000000000000000000000017fffffffffffffffffffffffffffffffffffffffffffffffffffffffffffffffff7f000000000000000000000000000000000000000000000000000000000000c3507f00000000000000000000000100000000000000000000000000000000000000007fffffffffffffffffffffffffffffffffffffffffffffffffffffffffffffffff7e969f926084143c791ba07dc3ea5a58e13921d0bf2712a9f749b93746dfb77e07c79a80436bae932c8643a022f1afb4f689907f6f46fbbedd91daa563a61ed54fb28592352be80371d52ecf"
                }
            ],
            "Istanbul" : [
                {
                    "hash" : "0xda918833da3d0ebed7432c462331a8148ccd6ad55ef78f97988804c12672d7b3",
                    "indexes" : {
                        "data" : 0,
                        "gas" : 0,
                        "value" : 0
                    },
                    "logs" : "0x1dcc4de8dec75d7aab85b567b6ccd41ad312451b948a7413f0a142fd40d49347",
                    "txbytes" : "0xf90137800a8460e1613694095e7baea6a6c7c4c2dfeb977efac326af552d87846c243ae4b8d16d417fffffffffffffffffffffffffffffffffffffffffffffffffffffffffffffffff7f00000000000000000000000000000000000000000000000000000000000000017fffffffffffffffffffffffffffffffffffffffffffffffffffffffffffffffff7f000000000000000000000000000000000000000000000000000000000000c3507f00000000000000000000000100000000000000000000000000000000000000007fffffffffffffffffffffffffffffffffffffffffffffffffffffffffffffffff7e969f926084143c791ba07dc3ea5a58e13921d0bf2712a9f749b93746dfb77e07c79a80436bae932c8643a022f1afb4f689907f6f46fbbedd91daa563a61ed54fb28592352be80371d52ecf"
                }
            ],
            "London" : [
                {
                    "hash" : "0x5808666cb3ac332e823416b38504f88bdc34d79bf9ae7f1c9b2dd29350aab71b",
                    "indexes" : {
                        "data" : 0,
                        "gas" : 0,
                        "value" : 0
                    },
                    "logs" : "0x1dcc4de8dec75d7aab85b567b6ccd41ad312451b948a7413f0a142fd40d49347",
                    "txbytes" : "0xf90137800a8460e1613694095e7baea6a6c7c4c2dfeb977efac326af552d87846c243ae4b8d16d417fffffffffffffffffffffffffffffffffffffffffffffffffffffffffffffffff7f00000000000000000000000000000000000000000000000000000000000000017fffffffffffffffffffffffffffffffffffffffffffffffffffffffffffffffff7f000000000000000000000000000000000000000000000000000000000000c3507f00000000000000000000000100000000000000000000000000000000000000007fffffffffffffffffffffffffffffffffffffffffffffffffffffffffffffffff7e969f926084143c791ba07dc3ea5a58e13921d0bf2712a9f749b93746dfb77e07c79a80436bae932c8643a022f1afb4f689907f6f46fbbedd91daa563a61ed54fb28592352be80371d52ecf"
                }
            ],
            "Paris" : [
                {
                    "hash" : "0x5808666cb3ac332e823416b38504f88bdc34d79bf9ae7f1c9b2dd29350aab71b",
                    "indexes" : {
                        "data" : 0,
                        "gas" : 0,
                        "value" : 0
                    },
                    "logs" : "0x1dcc4de8dec75d7aab85b567b6ccd41ad312451b948a7413f0a142fd40d49347",
                    "txbytes" : "0xf90137800a8460e1613694095e7baea6a6c7c4c2dfeb977efac326af552d87846c243ae4b8d16d417fffffffffffffffffffffffffffffffffffffffffffffffffffffffffffffffff7f00000000000000000000000000000000000000000000000000000000000000017fffffffffffffffffffffffffffffffffffffffffffffffffffffffffffffffff7f000000000000000000000000000000000000000000000000000000000000c3507f00000000000000000000000100000000000000000000000000000000000000007fffffffffffffffffffffffffffffffffffffffffffffffffffffffffffffffff7e969f926084143c791ba07dc3ea5a58e13921d0bf2712a9f749b93746dfb77e07c79a80436bae932c8643a022f1afb4f689907f6f46fbbedd91daa563a61ed54fb28592352be80371d52ecf"
                }
            ],
            "Shanghai" : [
                {
                    "hash" : "0x5808666cb3ac332e823416b38504f88bdc34d79bf9ae7f1c9b2dd29350aab71b",
                    "indexes" : {
                        "data" : 0,
                        "gas" : 0,
                        "value" : 0
                    },
                    "logs" : "0x1dcc4de8dec75d7aab85b567b6ccd41ad312451b948a7413f0a142fd40d49347",
                    "txbytes" : "0xf90137800a8460e1613694095e7baea6a6c7c4c2dfeb977efac326af552d87846c243ae4b8d16d417fffffffffffffffffffffffffffffffffffffffffffffffffffffffffffffffff7f00000000000000000000000000000000000000000000000000000000000000017fffffffffffffffffffffffffffffffffffffffffffffffffffffffffffffffff7f000000000000000000000000000000000000000000000000000000000000c3507f00000000000000000000000100000000000000000000000000000000000000007fffffffffffffffffffffffffffffffffffffffffffffffffffffffffffffffff7e969f926084143c791ba07dc3ea5a58e13921d0bf2712a9f749b93746dfb77e07c79a80436bae932c8643a022f1afb4f689907f6f46fbbedd91daa563a61ed54fb28592352be80371d52ecf"
                }
            ]
        },
        "pre" : {
            "0x095e7baea6a6c7c4c2dfeb977efac326af552d87" : {
                "balance" : "0x00",
                "code" : "0x6d417fffffffffffffffffffffffffffffffffffffffffffffffffffffffffffffffff7f00000000000000000000000000000000000000000000000000000000000000017fffffffffffffffffffffffffffffffffffffffffffffffffffffffffffffffff7f000000000000000000000000000000000000000000000000000000000000c3507f00000000000000000000000100000000000000000000000000000000000000007fffffffffffffffffffffffffffffffffffffffffffffffffffffffffffffffff7e969f926084143c7960005155",
                "nonce" : "0x00",
                "storage" : {
                }
            },
            "0x945304eb96065b2a98b57a48a06ae28d285a71b5" : {
                "balance" : "0x2e",
                "code" : "0x6000355415600957005b60203560003555",
                "nonce" : "0x00",
                "storage" : {
                }
            },
            "0xa94f5374fce5edbc8e2a8697c15331677e6ebf0b" : {
                "balance" : "0x0de0b6b3a7640000",
                "code" : "0x",
                "nonce" : "0x00",
                "storage" : {
                }
            }
        },
        "transaction" : {
            "data" : [
                "0x6d417fffffffffffffffffffffffffffffffffffffffffffffffffffffffffffffffff7f00000000000000000000000000000000000000000000000000000000000000017fffffffffffffffffffffffffffffffffffffffffffffffffffffffffffffffff7f000000000000000000000000000000000000000000000000000000000000c3507f00000000000000000000000100000000000000000000000000000000000000007fffffffffffffffffffffffffffffffffffffffffffffffffffffffffffffffff7e969f926084143c79"
            ],
            "gasLimit" : [
                "0x60e16136"
            ],
            "gasPrice" : "0x0a",
            "nonce" : "0x00",
            "secretKey" : "0x45a915e4d060149eb4365960e6a7a45f334393093061116b197e3240065ff2d8",
            "sender" : "0xa94f5374fce5edbc8e2a8697c15331677e6ebf0b",
            "to" : "0x095e7baea6a6c7c4c2dfeb977efac326af552d87",
            "value" : [
                "0x6c243ae4"
            ]
        }
    }
}