{
    "randomStatetest230" : {
        "_info" : {
            "comment" : "",
            "filling-rpc-server" : "evm version 1.10.2-unstable-22082f9e-20210309",
            "filling-tool-version" : "retesteth-0.1.0-accesslist+commit.47c69eb3.Linux.g++",
            "lllcversion" : "Version: 0.5.14-develop.2020.6.22+commit.9189ad7a.Linux.g++",
            "source" : "src/GeneralStateTestsFiller/stRandom/randomStatetest230Filler.json",
            "sourceHash" : "7413cb0f272990ddc20e193796c607ce0f25254b416114192db9df7d2c3d8f43"
        },
        "env" : {
            "currentCoinbase" : "0x945304eb96065b2a98b57a48a06ae28d285a71b5",
            "currentDifficulty" : "0x020000",
            "currentGasLimit" : "0x7fffffffffffffff",
            "currentNumber" : "0x01",
            "currentTimestamp" : "0x03e8",
            "previousHash" : "0x5e20a0453cecd065ea59c37ac63e079ee08998b6045136a8ce6635c7912ec0b6"
        },
        "post" : {
            "Berlin" : [
                {
                    "indexes" : {
                        "data" : 0,
                        "gas" : 0,
                        "value" : 0
                    },
                    "hash" : "0x718bebbffa8cd01e4aeb9d9d6c29b5f58e6019b77b7e62023383bf9591cde657",
                    "txbytes" : "0xf9012e800184762004ae94095e7baea6a6c7c4c2dfeb977efac326af552d878433136fc3b8c87f000000000000000000000000000000000000000000000000000000000000c350427f00000000000000000000000100000000000000000000000000000000000000007ffffffffffffffffffffffffffffffffffffffffffffffffffffffffffffffffe7ffffffffffffffffffffffffffffffffffffffffffffffffffffffffffffffffe7ffffffffffffffffffffffffffffffffffffffffffffffffffffffffffffffffe7ffffffffffffffffffffffffffffffffffffffffffffffffffffffffffffffffe091ca08cdcb300c8f2d2eb2cd39562795fd3fef6c1a8cadb8896d65a3a51c6caa3eb05a0780136acd65ee4322111073f8e91bc21ffc3c0744d02dbc45a0148e40040d2d2",
                    "logs" : "0x1dcc4de8dec75d7aab85b567b6ccd41ad312451b948a7413f0a142fd40d49347"
                }
            ],
            "Istanbul" : [
                {
                    "indexes" : {
                        "data" : 0,
                        "gas" : 0,
                        "value" : 0
                    },
                    "hash" : "0x1dc6b1886102eea30080648b86406d052eb96dd5eac2d45c41cd061b2d8cddc3",
                    "txbytes" : "0xf9012e800184762004ae94095e7baea6a6c7c4c2dfeb977efac326af552d878433136fc3b8c87f000000000000000000000000000000000000000000000000000000000000c350427f00000000000000000000000100000000000000000000000000000000000000007ffffffffffffffffffffffffffffffffffffffffffffffffffffffffffffffffe7ffffffffffffffffffffffffffffffffffffffffffffffffffffffffffffffffe7ffffffffffffffffffffffffffffffffffffffffffffffffffffffffffffffffe7ffffffffffffffffffffffffffffffffffffffffffffffffffffffffffffffffe091ca08cdcb300c8f2d2eb2cd39562795fd3fef6c1a8cadb8896d65a3a51c6caa3eb05a0780136acd65ee4322111073f8e91bc21ffc3c0744d02dbc45a0148e40040d2d2",
                    "logs" : "0x1dcc4de8dec75d7aab85b567b6ccd41ad312451b948a7413f0a142fd40d49347"
                }
            ]
        },
        "pre" : {
            "0x095e7baea6a6c7c4c2dfeb977efac326af552d87" : {
                "balance" : "0x00",
                "code" : "0x7f000000000000000000000000000000000000000000000000000000000000c350427f00000000000000000000000100000000000000000000000000000000000000007ffffffffffffffffffffffffffffffffffffffffffffffffffffffffffffffffe7ffffffffffffffffffffffffffffffffffffffffffffffffffffffffffffffffe7ffffffffffffffffffffffffffffffffffffffffffffffffffffffffffffffffe7ffffffffffffffffffffffffffffffffffffffffffffffffffffffffffffffffe0960005155",
                "nonce" : "0x00",
                "storage" : {
                }
            },
            "0x945304eb96065b2a98b57a48a06ae28d285a71b5" : {
                "balance" : "0x2e",
                "code" : "0x6000355415600957005b60203560003555",
                "nonce" : "0x00",
                "storage" : {
                }
            },
            "0xa94f5374fce5edbc8e2a8697c15331677e6ebf0b" : {
                "balance" : "0x0de0b6b3a7640000",
                "code" : "0x",
                "nonce" : "0x00",
                "storage" : {
                }
            }
        },
        "transaction" : {
            "data" : [
                "0x7f000000000000000000000000000000000000000000000000000000000000c350427f00000000000000000000000100000000000000000000000000000000000000007ffffffffffffffffffffffffffffffffffffffffffffffffffffffffffffffffe7ffffffffffffffffffffffffffffffffffffffffffffffffffffffffffffffffe7ffffffffffffffffffffffffffffffffffffffffffffffffffffffffffffffffe7ffffffffffffffffffffffffffffffffffffffffffffffffffffffffffffffffe09"
            ],
            "gasLimit" : [
                "0x762004ae"
            ],
            "gasPrice" : "0x01",
            "nonce" : "0x00",
            "secretKey" : "0x45a915e4d060149eb4365960e6a7a45f334393093061116b197e3240065ff2d8",
            "to" : "0x095e7baea6a6c7c4c2dfeb977efac326af552d87",
            "value" : [
                "0x33136fc3"
            ]
        }
    }
}