{
    "randomStatetest33" : {
        "_info" : {
            "comment" : "",
            "filling-rpc-server" : "evm version 1.13.11-unstable-765f2904-20240124",
            "filling-tool-version" : "retesteth-0.3.2-cancun+commit.ea13235b.Linux.g++",
            "generatedTestHash" : "d6a8c64223e85e13b68d39a0d28984afa54f231dedb9c2986b7529fa2ca38ef2",
            "lllcversion" : "Version: 0.5.14-develop.2023.7.11+commit.c58ab2c6.mod.Linux.g++",
            "solidity" : "Version: 0.8.21+commit.d9974bed.Linux.g++",
            "source" : "src/GeneralStateTestsFiller/stRandom/randomStatetest33Filler.json",
            "sourceHash" : "af56ea7d34e74797fb32c67be39bbc39c485cf1a6e0e05a84caf1313ded386bb"
        },
        "env" : {
            "currentBaseFee" : "0x0a",
            "currentCoinbase" : "0x945304eb96065b2a98b57a48a06ae28d285a71b5",
            "currentDifficulty" : "0x020000",
            "currentExcessBlobGas" : "0x00",
            "currentGasLimit" : "0x7fffffffffffffff",
            "currentNumber" : "0x01",
            "currentRandom" : "0x0000000000000000000000000000000000000000000000000000000000020000",
            "currentTimestamp" : "0x03e8"
        },
        "post" : {
            "Berlin" : [
                {
                    "hash" : "0x465abb42e3420bd6f123536d70ce98caf3ead1393c37014d1c4ea5197ce9f8e0",
                    "indexes" : {
                        "data" : 0,
                        "gas" : 0,
                        "value" : 0
                    },
                    "logs" : "0x1dcc4de8dec75d7aab85b567b6ccd41ad312451b948a7413f0a142fd40d49347",
                    "txbytes" : "0xf9015e800a847da7527b94095e7baea6a6c7c4c2dfeb977efac326af552d8784075b50bab8f87f000000000000000000000000000000000000000000000000000000000000c3507f00000000000000000000000000000000000000000000000000000000000000015a7fffffffffffffffffffffffffffffffffffffffffffffffffffffffffffffffff7ffffffffffffffffffffffffffffffffffffffffffffffffffffffffffffffffe7ffffffffffffffffffffffffffffffffffffffffffffffffffffffffffffffffe7f00000000000000000000000000000000000000000000000000000000000000017f000000000000000000000000000000000000000000000000000000000000c3506f6940566279386017a362876372698f1ca05ad6bd5905351bee1f9aa7d3e8bf4ddee5c7041e09a0c2edf4bbd815a7893098a03efe6ad3dd939359bf47875d4da9b6d18f10635e8e528ccb04c789cc0dd9043c"
                }
            ],
            "Cancun" : [
                {
                    "hash" : "0xfe1f59389fcdd91d9a0e5ecc76bb5061872e28f0edf5849e5760e9750e5a41af",
                    "indexes" : {
                        "data" : 0,
                        "gas" : 0,
                        "value" : 0
                    },
                    "logs" : "0x1dcc4de8dec75d7aab85b567b6ccd41ad312451b948a7413f0a142fd40d49347",
                    "txbytes" : "0xf9015e800a847da7527b94095e7baea6a6c7c4c2dfeb977efac326af552d8784075b50bab8f87f000000000000000000000000000000000000000000000000000000000000c3507f00000000000000000000000000000000000000000000000000000000000000015a7fffffffffffffffffffffffffffffffffffffffffffffffffffffffffffffffff7ffffffffffffffffffffffffffffffffffffffffffffffffffffffffffffffffe7ffffffffffffffffffffffffffffffffffffffffffffffffffffffffffffffffe7f00000000000000000000000000000000000000000000000000000000000000017f000000000000000000000000000000000000000000000000000000000000c3506f6940566279386017a362876372698f1ca05ad6bd5905351bee1f9aa7d3e8bf4ddee5c7041e09a0c2edf4bbd815a7893098a03efe6ad3dd939359bf47875d4da9b6d18f10635e8e528ccb04c789cc0dd9043c"
                }
            ],
            "Istanbul" : [
                {
                    "hash" : "0x8afc15c5ef03d0f5c59dde87e32fa8287950a6c950145e1684983e758151f94b",
                    "indexes" : {
                        "data" : 0,
                        "gas" : 0,
                        "value" : 0
                    },
                    "logs" : "0x1dcc4de8dec75d7aab85b567b6ccd41ad312451b948a7413f0a142fd40d49347",
                    "txbytes" : "0xf9015e800a847da7527b94095e7baea6a6c7c4c2dfeb977efac326af552d8784075b50bab8f87f000000000000000000000000000000000000000000000000000000000000c3507f00000000000000000000000000000000000000000000000000000000000000015a7fffffffffffffffffffffffffffffffffffffffffffffffffffffffffffffffff7ffffffffffffffffffffffffffffffffffffffffffffffffffffffffffffffffe7ffffffffffffffffffffffffffffffffffffffffffffffffffffffffffffffffe7f00000000000000000000000000000000000000000000000000000000000000017f000000000000000000000000000000000000000000000000000000000000c3506f6940566279386017a362876372698f1ca05ad6bd5905351bee1f9aa7d3e8bf4ddee5c7041e09a0c2edf4bbd815a7893098a03efe6ad3dd939359bf47875d4da9b6d18f10635e8e528ccb04c789cc0dd9043c"
                }
            ],
            "London" : [
                {
                    "hash" : "0xfe1f59389fcdd91d9a0e5ecc76bb5061872e28f0edf5849e5760e9750e5a41af",
                    "indexes" : {
                        "data" : 0,
                        "gas" : 0,
                        "value" : 0
                    },
                    "logs" : "0x1dcc4de8dec75d7aab85b567b6ccd41ad312451b948a7413f0a142fd40d49347",
                    "txbytes" : "0xf9015e800a847da7527b94095e7baea6a6c7c4c2dfeb977efac326af552d8784075b50bab8f87f000000000000000000000000000000000000000000000000000000000000c3507f00000000000000000000000000000000000000000000000000000000000000015a7fffffffffffffffffffffffffffffffffffffffffffffffffffffffffffffffff7ffffffffffffffffffffffffffffffffffffffffffffffffffffffffffffffffe7ffffffffffffffffffffffffffffffffffffffffffffffffffffffffffffffffe7f00000000000000000000000000000000000000000000000000000000000000017f000000000000000000000000000000000000000000000000000000000000c3506f6940566279386017a362876372698f1ca05ad6bd5905351bee1f9aa7d3e8bf4ddee5c7041e09a0c2edf4bbd815a7893098a03efe6ad3dd939359bf47875d4da9b6d18f10635e8e528ccb04c789cc0dd9043c"
                }
            ],
            "Paris" : [
                {
                    "hash" : "0xfe1f59389fcdd91d9a0e5ecc76bb5061872e28f0edf5849e5760e9750e5a41af",
                    "indexes" : {
                        "data" : 0,
                        "gas" : 0,
                        "value" : 0
                    },
                    "logs" : "0x1dcc4de8dec75d7aab85b567b6ccd41ad312451b948a7413f0a142fd40d49347",
                    "txbytes" : "0xf9015e800a847da7527b94095e7baea6a6c7c4c2dfeb977efac326af552d8784075b50bab8f87f000000000000000000000000000000000000000000000000000000000000c3507f00000000000000000000000000000000000000000000000000000000000000015a7fffffffffffffffffffffffffffffffffffffffffffffffffffffffffffffffff7ffffffffffffffffffffffffffffffffffffffffffffffffffffffffffffffffe7ffffffffffffffffffffffffffffffffffffffffffffffffffffffffffffffffe7f00000000000000000000000000000000000000000000000000000000000000017f000000000000000000000000000000000000000000000000000000000000c3506f6940566279386017a362876372698f1ca05ad6bd5905351bee1f9aa7d3e8bf4ddee5c7041e09a0c2edf4bbd815a7893098a03efe6ad3dd939359bf47875d4da9b6d18f10635e8e528ccb04c789cc0dd9043c"
                }
            ],
            "Shanghai" : [
                {
                    "hash" : "0xfe1f59389fcdd91d9a0e5ecc76bb5061872e28f0edf5849e5760e9750e5a41af",
                    "indexes" : {
                        "data" : 0,
                        "gas" : 0,
                        "value" : 0
                    },
                    "logs" : "0x1dcc4de8dec75d7aab85b567b6ccd41ad312451b948a7413f0a142fd40d49347",
                    "txbytes" : "0xf9015e800a847da7527b94095e7baea6a6c7c4c2dfeb977efac326af552d8784075b50bab8f87f000000000000000000000000000000000000000000000000000000000000c3507f00000000000000000000000000000000000000000000000000000000000000015a7fffffffffffffffffffffffffffffffffffffffffffffffffffffffffffffffff7ffffffffffffffffffffffffffffffffffffffffffffffffffffffffffffffffe7ffffffffffffffffffffffffffffffffffffffffffffffffffffffffffffffffe7f00000000000000000000000000000000000000000000000000000000000000017f000000000000000000000000000000000000000000000000000000000000c3506f6940566279386017a362876372698f1ca05ad6bd5905351bee1f9aa7d3e8bf4ddee5c7041e09a0c2edf4bbd815a7893098a03efe6ad3dd939359bf47875d4da9b6d18f10635e8e528ccb04c789cc0dd9043c"
                }
            ]
        },
        "pre" : {
            "0x095e7baea6a6c7c4c2dfeb977efac326af552d87" : {
                "balance" : "0x00",
                "code" : "0x7f000000000000000000000000000000000000000000000000000000000000c3507f00000000000000000000000000000000000000000000000000000000000000015a7fffffffffffffffffffffffffffffffffffffffffffffffffffffffffffffffff7ffffffffffffffffffffffffffffffffffffffffffffffffffffffffffffffffe7ffffffffffffffffffffffffffffffffffffffffffffffffffffffffffffffffe7f00000000000000000000000000000000000000000000000000000000000000017f000000000000000000000000000000000000000000000000000000000000c3506f6940566279386017a362876372698f5560005155",
                "nonce" : "0x00",
                "storage" : {
                }
            },
            "0x945304eb96065b2a98b57a48a06ae28d285a71b5" : {
                "balance" : "0x2e",
                "code" : "0x6000355415600957005b60203560003555",
                "nonce" : "0x00",
                "storage" : {
                }
            },
            "0xa94f5374fce5edbc8e2a8697c15331677e6ebf0b" : {
                "balance" : "0x0de0b6b3a7640000",
                "code" : "0x",
                "nonce" : "0x00",
                "storage" : {
                }
            }
        },
        "transaction" : {
            "data" : [
                "0x7f000000000000000000000000000000000000000000000000000000000000c3507f00000000000000000000000000000000000000000000000000000000000000015a7fffffffffffffffffffffffffffffffffffffffffffffffffffffffffffffffff7ffffffffffffffffffffffffffffffffffffffffffffffffffffffffffffffffe7ffffffffffffffffffffffffffffffffffffffffffffffffffffffffffffffffe7f00000000000000000000000000000000000000000000000000000000000000017f000000000000000000000000000000000000000000000000000000000000c3506f6940566279386017a362876372698f"
            ],
            "gasLimit" : [
                "0x7da7527b"
            ],
            "gasPrice" : "0x0a",
            "nonce" : "0x00",
            "secretKey" : "0x45a915e4d060149eb4365960e6a7a45f334393093061116b197e3240065ff2d8",
            "sender" : "0xa94f5374fce5edbc8e2a8697c15331677e6ebf0b",
            "to" : "0x095e7baea6a6c7c4c2dfeb977efac326af552d87",
            "value" : [
                "0x075b50ba"
            ]
        }
    }
}