{
    "randomStatetest51" : {
        "_info" : {
            "comment" : "",
            "filling-rpc-server" : "evm version 1.13.11-unstable-765f2904-20240124",
            "filling-tool-version" : "retesteth-0.3.2-cancun+commit.ea13235b.Linux.g++",
            "generatedTestHash" : "0625366d798ba745bbfb9c733fbf59b6b29717e4125c7845dc1b2d93afb0dad2",
            "lllcversion" : "Version: 0.5.14-develop.2023.7.11+commit.c58ab2c6.mod.Linux.g++",
            "solidity" : "Version: 0.8.21+commit.d9974bed.Linux.g++",
            "source" : "src/GeneralStateTestsFiller/stRandom/randomStatetest51Filler.json",
            "sourceHash" : "c135646f6dd6d2cfbfcf4fba39336c7477e2af19464fece915cf828a745ee5f9"
        },
        "env" : {
            "currentBaseFee" : "0x0a",
            "currentCoinbase" : "0x945304eb96065b2a98b57a48a06ae28d285a71b5",
            "currentDifficulty" : "0x020000",
            "currentExcessBlobGas" : "0x00",
            "currentGasLimit" : "0x7fffffffffffffff",
            "currentNumber" : "0x01",
            "currentRandom" : "0x0000000000000000000000000000000000000000000000000000000000020000",
            "currentTimestamp" : "0x03e8"
        },
        "post" : {
            "Berlin" : [
                {
                    "hash" : "0x61d701101f8090e3e3aacd1504e59dab7a00bced0b02092537dcc4d2fff11847",
                    "indexes" : {
                        "data" : 0,
                        "gas" : 0,
                        "value" : 0
                    },
                    "logs" : "0x1dcc4de8dec75d7aab85b567b6ccd41ad312451b948a7413f0a142fd40d49347",
                    "txbytes" : "0xf90111800a846ef38b0194095e7baea6a6c7c4c2dfeb977efac326af552d87843f4d7811b8ab7f0000000000000000000000000000000000000000000000000000000000000001757f000000000000000000000000945304eb96065b2a98b57a48a06ae28d285a71b57a7f000000000000000000000000945304eb96065b2a98b57a48a06ae28d285a71b57f000000000000000000000000945304eb96065b2a98b57a48a06ae28d285a71b5447ffffffffffffffffffffffffffffffffffffffffffffffffffffffffffffffffe83189b1ba00d16c59e0dd4942e8d0871a90de819876567f4d85c7b2e34ff6b2357248dbdd3a0559400ac4aeaff36bb2ccf5fca7e60a59b447e25306bfa0fdecc929ea1930bea"
                }
            ],
            "Cancun" : [
                {
                    "hash" : "0xc88c77eab1bfd14dbc4f8d5febc128c3a1a7889aee453700c4f185742b2ee7da",
                    "indexes" : {
                        "data" : 0,
                        "gas" : 0,
                        "value" : 0
                    },
                    "logs" : "0x1dcc4de8dec75d7aab85b567b6ccd41ad312451b948a7413f0a142fd40d49347",
                    "txbytes" : "0xf90111800a846ef38b0194095e7baea6a6c7c4c2dfeb977efac326af552d87843f4d7811b8ab7f0000000000000000000000000000000000000000000000000000000000000001757f000000000000000000000000945304eb96065b2a98b57a48a06ae28d285a71b57a7f000000000000000000000000945304eb96065b2a98b57a48a06ae28d285a71b57f000000000000000000000000945304eb96065b2a98b57a48a06ae28d285a71b5447ffffffffffffffffffffffffffffffffffffffffffffffffffffffffffffffffe83189b1ba00d16c59e0dd4942e8d0871a90de819876567f4d85c7b2e34ff6b2357248dbdd3a0559400ac4aeaff36bb2ccf5fca7e60a59b447e25306bfa0fdecc929ea1930bea"
                }
            ],
            "Istanbul" : [
                {
                    "hash" : "0x61d701101f8090e3e3aacd1504e59dab7a00bced0b02092537dcc4d2fff11847",
                    "indexes" : {
                        "data" : 0,
                        "gas" : 0,
                        "value" : 0
                    },
                    "logs" : "0x1dcc4de8dec75d7aab85b567b6ccd41ad312451b948a7413f0a142fd40d49347",
                    "txbytes" : "0xf90111800a846ef38b0194095e7baea6a6c7c4c2dfeb977efac326af552d87843f4d7811b8ab7f0000000000000000000000000000000000000000000000000000000000000001757f000000000000000000000000945304eb96065b2a98b57a48a06ae28d285a71b57a7f000000000000000000000000945304eb96065b2a98b57a48a06ae28d285a71b57f000000000000000000000000945304eb96065b2a98b57a48a06ae28d285a71b5447ffffffffffffffffffffffffffffffffffffffffffffffffffffffffffffffffe83189b1ba00d16c59e0dd4942e8d0871a90de819876567f4d85c7b2e34ff6b2357248dbdd3a0559400ac4aeaff36bb2ccf5fca7e60a59b447e25306bfa0fdecc929ea1930bea"
                }
            ],
            "London" : [
                {
                    "hash" : "0xc88c77eab1bfd14dbc4f8d5febc128c3a1a7889aee453700c4f185742b2ee7da",
                    "indexes" : {
                        "data" : 0,
                        "gas" : 0,
                        "value" : 0
                    },
                    "logs" : "0x1dcc4de8dec75d7aab85b567b6ccd41ad312451b948a7413f0a142fd40d49347",
                    "txbytes" : "0xf90111800a846ef38b0194095e7baea6a6c7c4c2dfeb977efac326af552d87843f4d7811b8ab7f0000000000000000000000000000000000000000000000000000000000000001757f000000000000000000000000945304eb96065b2a98b57a48a06ae28d285a71b57a7f000000000000000000000000945304eb96065b2a98b57a48a06ae28d285a71b57f000000000000000000000000945304eb96065b2a98b57a48a06ae28d285a71b5447ffffffffffffffffffffffffffffffffffffffffffffffffffffffffffffffffe83189b1ba00d16c59e0dd4942e8d0871a90de819876567f4d85c7b2e34ff6b2357248dbdd3a0559400ac4aeaff36bb2ccf5fca7e60a59b447e25306bfa0fdecc929ea1930bea"
                }
            ],
            "Paris" : [
                {
                    "hash" : "0xc88c77eab1bfd14dbc4f8d5febc128c3a1a7889aee453700c4f185742b2ee7da",
                    "indexes" : {
                        "data" : 0,
                        "gas" : 0,
                        "value" : 0
                    },
                    "logs" : "0x1dcc4de8dec75d7aab85b567b6ccd41ad312451b948a7413f0a142fd40d49347",
                    "txbytes" : "0xf90111800a846ef38b0194095e7baea6a6c7c4c2dfeb977efac326af552d87843f4d7811b8ab7f0000000000000000000000000000000000000000000000000000000000000001757f000000000000000000000000945304eb96065b2a98b57a48a06ae28d285a71b57a7f000000000000000000000000945304eb96065b2a98b57a48a06ae28d285a71b57f000000000000000000000000945304eb96065b2a98b57a48a06ae28d285a71b5447ffffffffffffffffffffffffffffffffffffffffffffffffffffffffffffffffe83189b1ba00d16c59e0dd4942e8d0871a90de819876567f4d85c7b2e34ff6b2357248dbdd3a0559400ac4aeaff36bb2ccf5fca7e60a59b447e25306bfa0fdecc929ea1930bea"
                }
            ],
            "Shanghai" : [
                {
                    "hash" : "0xc88c77eab1bfd14dbc4f8d5febc128c3a1a7889aee453700c4f185742b2ee7da",
                    "indexes" : {
                        "data" : 0,
                        "gas" : 0,
                        "value" : 0
                    },
                    "logs" : "0x1dcc4de8dec75d7aab85b567b6ccd41ad312451b948a7413f0a142fd40d49347",
                    "txbytes" : "0xf90111800a846ef38b0194095e7baea6a6c7c4c2dfeb977efac326af552d87843f4d7811b8ab7f0000000000000000000000000000000000000000000000000000000000000001757f000000000000000000000000945304eb96065b2a98b57a48a06ae28d285a71b57a7f000000000000000000000000945304eb96065b2a98b57a48a06ae28d285a71b57f000000000000000000000000945304eb96065b2a98b57a48a06ae28d285a71b5447ffffffffffffffffffffffffffffffffffffffffffffffffffffffffffffffffe83189b1ba00d16c59e0dd4942e8d0871a90de819876567f4d85c7b2e34ff6b2357248dbdd3a0559400ac4aeaff36bb2ccf5fca7e60a59b447e25306bfa0fdecc929ea1930bea"
                }
            ]
        },
        "pre" : {
            "0x095e7baea6a6c7c4c2dfeb977efac326af552d87" : {
                "balance" : "0x00",
                "code" : "0x7f0000000000000000000000000000000000000000000000000000000000000001757f000000000000000000000000945304eb96065b2a98b57a48a06ae28d285a71b57a7f000000000000000000000000945304eb96065b2a98b57a48a06ae28d285a71b57f000000000000000000000000945304eb96065b2a98b57a48a06ae28d285a71b5447ffffffffffffffffffffffffffffffffffffffffffffffffffffffffffffffffe83189b60005155",
                "nonce" : "0x00",
                "storage" : {
                }
            },
            "0x945304eb96065b2a98b57a48a06ae28d285a71b5" : {
                "balance" : "0x2e",
                "code" : "0x6000355415600957005b60203560003555",
                "nonce" : "0x00",
                "storage" : {
                }
            },
            "0xa94f5374fce5edbc8e2a8697c15331677e6ebf0b" : {
                "balance" : "0x0de0b6b3a7640000",
                "code" : "0x",
                "nonce" : "0x00",
                "storage" : {
                }
            }
        },
        "transaction" : {
            "data" : [
                "0x7f0000000000000000000000000000000000000000000000000000000000000001757f000000000000000000000000945304eb96065b2a98b57a48a06ae28d285a71b57a7f000000000000000000000000945304eb96065b2a98b57a48a06ae28d285a71b57f000000000000000000000000945304eb96065b2a98b57a48a06ae28d285a71b5447ffffffffffffffffffffffffffffffffffffffffffffffffffffffffffffffffe83189b"
            ],
            "gasLimit" : [
                "0x6ef38b01"
            ],
            "gasPrice" : "0x0a",
            "nonce" : "0x00",
            "secretKey" : "0x45a915e4d060149eb4365960e6a7a45f334393093061116b197e3240065ff2d8",
            "sender" : "0xa94f5374fce5edbc8e2a8697c15331677e6ebf0b",
            "to" : "0x095e7baea6a6c7c4c2dfeb977efac326af552d87",
            "value" : [
                "0x3f4d7811"
            ]
        }
    }
}