{
    "randomStatetest66" : {
        "_info" : {
            "comment" : "",
            "filling-rpc-server" : "evm version 1.13.11-unstable-765f2904-20240124",
            "filling-tool-version" : "retesteth-0.3.2-cancun+commit.ea13235b.Linux.g++",
            "generatedTestHash" : "da56f4e97c926dd0b7daca43a041686caaa0526267d5bb977206a92d9d6b5c41",
            "lllcversion" : "Version: 0.5.14-develop.2023.7.11+commit.c58ab2c6.mod.Linux.g++",
            "solidity" : "Version: 0.8.21+commit.d9974bed.Linux.g++",
            "source" : "src/GeneralStateTestsFiller/stRandom/randomStatetest66Filler.json",
            "sourceHash" : "0c82ff94d4faf0c1420ffb3d5172ac3d2804632f34bd5d573e56453f58210ee5"
        },
        "env" : {
            "currentBaseFee" : "0x0a",
            "currentCoinbase" : "0x945304eb96065b2a98b57a48a06ae28d285a71b5",
            "currentDifficulty" : "0x020000",
            "currentExcessBlobGas" : "0x00",
            "currentGasLimit" : "0x7fffffffffffffff",
            "currentNumber" : "0x01",
            "currentRandom" : "0x0000000000000000000000000000000000000000000000000000000000020000",
            "currentTimestamp" : "0x03e8"
        },
        "post" : {
            "Berlin" : [
                {
                    "hash" : "0x71e846765a36f9a849e43f2abe37d484cbf00f969f345ffa157f02b7201d4da8",
                    "indexes" : {
                        "data" : 0,
                        "gas" : 0,
                        "value" : 0
                    },
                    "logs" : "0x1dcc4de8dec75d7aab85b567b6ccd41ad312451b948a7413f0a142fd40d49347",
                    "txbytes" : "0xf9010e800a845be4cce894095e7baea6a6c7c4c2dfeb977efac326af552d87842f5660ceb8a8457fffffffffffffffffffffffffffffffffffffffffffffffffffffffffffffffff417fffffffffffffffffffffffffffffffffffffffffffffffffffffffffffffffff7f000000000000000000000000945304eb96065b2a98b57a48a06ae28d285a71b57ffffffffffffffffffffffffffffffffffffffffffffffffffffffffffffffffe097f00000000000000000000000100000000000000000000000000000000000000001ba0f967dc26c76afea70929af5c9c06765af74d4cfd8725aa115fdfe083f8701ecfa068b3e31486ace4c7bee633dc867961b7242c849d4035aafb2c669d63ab985735"
                }
            ],
            "Cancun" : [
                {
                    "hash" : "0xb39c123018bf6b7f3c07759e3897fd2fb34127baf4cb5cefd9e6b0e36c651c0a",
                    "indexes" : {
                        "data" : 0,
                        "gas" : 0,
                        "value" : 0
                    },
                    "logs" : "0x1dcc4de8dec75d7aab85b567b6ccd41ad312451b948a7413f0a142fd40d49347",
                    "txbytes" : "0xf9010e800a845be4cce894095e7baea6a6c7c4c2dfeb977efac326af552d87842f5660ceb8a8457fffffffffffffffffffffffffffffffffffffffffffffffffffffffffffffffff417fffffffffffffffffffffffffffffffffffffffffffffffffffffffffffffffff7f000000000000000000000000945304eb96065b2a98b57a48a06ae28d285a71b57ffffffffffffffffffffffffffffffffffffffffffffffffffffffffffffffffe097f00000000000000000000000100000000000000000000000000000000000000001ba0f967dc26c76afea70929af5c9c06765af74d4cfd8725aa115fdfe083f8701ecfa068b3e31486ace4c7bee633dc867961b7242c849d4035aafb2c669d63ab985735"
                }
            ],
            "Istanbul" : [
                {
                    "hash" : "0xe5e9b4537a1780948a95d6c65d5b2b1c8fb49331d72826b2750fb5855fc8fd8a",
                    "indexes" : {
                        "data" : 0,
                        "gas" : 0,
                        "value" : 0
                    },
                    "logs" : "0x1dcc4de8dec75d7aab85b567b6ccd41ad312451b948a7413f0a142fd40d49347",
                    "txbytes" : "0xf9010e800a845be4cce894095e7baea6a6c7c4c2dfeb977efac326af552d87842f5660ceb8a8457fffffffffffffffffffffffffffffffffffffffffffffffffffffffffffffffff417fffffffffffffffffffffffffffffffffffffffffffffffffffffffffffffffff7f000000000000000000000000945304eb96065b2a98b57a48a06ae28d285a71b57ffffffffffffffffffffffffffffffffffffffffffffffffffffffffffffffffe097f00000000000000000000000100000000000000000000000000000000000000001ba0f967dc26c76afea70929af5c9c06765af74d4cfd8725aa115fdfe083f8701ecfa068b3e31486ace4c7bee633dc867961b7242c849d4035aafb2c669d63ab985735"
                }
            ],
            "London" : [
                {
                    "hash" : "0xb39c123018bf6b7f3c07759e3897fd2fb34127baf4cb5cefd9e6b0e36c651c0a",
                    "indexes" : {
                        "data" : 0,
                        "gas" : 0,
                        "value" : 0
                    },
                    "logs" : "0x1dcc4de8dec75d7aab85b567b6ccd41ad312451b948a7413f0a142fd40d49347",
                    "txbytes" : "0xf9010e800a845be4cce894095e7baea6a6c7c4c2dfeb977efac326af552d87842f5660ceb8a8457fffffffffffffffffffffffffffffffffffffffffffffffffffffffffffffffff417fffffffffffffffffffffffffffffffffffffffffffffffffffffffffffffffff7f000000000000000000000000945304eb96065b2a98b57a48a06ae28d285a71b57ffffffffffffffffffffffffffffffffffffffffffffffffffffffffffffffffe097f00000000000000000000000100000000000000000000000000000000000000001ba0f967dc26c76afea70929af5c9c06765af74d4cfd8725aa115fdfe083f8701ecfa068b3e31486ace4c7bee633dc867961b7242c849d4035aafb2c669d63ab985735"
                }
            ],
            "Paris" : [
                {
                    "hash" : "0xb39c123018bf6b7f3c07759e3897fd2fb34127baf4cb5cefd9e6b0e36c651c0a",
                    "indexes" : {
                        "data" : 0,
                        "gas" : 0,
                        "value" : 0
                    },
                    "logs" : "0x1dcc4de8dec75d7aab85b567b6ccd41ad312451b948a7413f0a142fd40d49347",
                    "txbytes" : "0xf9010e800a845be4cce894095e7baea6a6c7c4c2dfeb977efac326af552d87842f5660ceb8a8457fffffffffffffffffffffffffffffffffffffffffffffffffffffffffffffffff417fffffffffffffffffffffffffffffffffffffffffffffffffffffffffffffffff7f000000000000000000000000945304eb96065b2a98b57a48a06ae28d285a71b57ffffffffffffffffffffffffffffffffffffffffffffffffffffffffffffffffe097f00000000000000000000000100000000000000000000000000000000000000001ba0f967dc26c76afea70929af5c9c06765af74d4cfd8725aa115fdfe083f8701ecfa068b3e31486ace4c7bee633dc867961b7242c849d4035aafb2c669d63ab985735"
                }
            ],
            "Shanghai" : [
                {
                    "hash" : "0xb39c123018bf6b7f3c07759e3897fd2fb34127baf4cb5cefd9e6b0e36c651c0a",
                    "indexes" : {
                        "data" : 0,
                        "gas" : 0,
                        "value" : 0
                    },
                    "logs" : "0x1dcc4de8dec75d7aab85b567b6ccd41ad312451b948a7413f0a142fd40d49347",
                    "txbytes" : "0xf9010e800a845be4cce894095e7baea6a6c7c4c2dfeb977efac326af552d87842f5660ceb8a8457fffffffffffffffffffffffffffffffffffffffffffffffffffffffffffffffff417fffffffffffffffffffffffffffffffffffffffffffffffffffffffffffffffff7f000000000000000000000000945304eb96065b2a98b57a48a06ae28d285a71b57ffffffffffffffffffffffffffffffffffffffffffffffffffffffffffffffffe097f00000000000000000000000100000000000000000000000000000000000000001ba0f967dc26c76afea70929af5c9c06765af74d4cfd8725aa115fdfe083f8701ecfa068b3e31486ace4c7bee633dc867961b7242c849d4035aafb2c669d63ab985735"
                }
            ]
        },
        "pre" : {
            "0x095e7baea6a6c7c4c2dfeb977efac326af552d87" : {
                "balance" : "0x00",
                "code" : "0x457fffffffffffffffffffffffffffffffffffffffffffffffffffffffffffffffff417fffffffffffffffffffffffffffffffffffffffffffffffffffffffffffffffff7f000000000000000000000000945304eb96065b2a98b57a48a06ae28d285a71b57ffffffffffffffffffffffffffffffffffffffffffffffffffffffffffffffffe097f000000000000000000000001000000000000000000000000000000000000000055",
                "nonce" : "0x00",
                "storage" : {
                }
            },
            "0x945304eb96065b2a98b57a48a06ae28d285a71b5" : {
                "balance" : "0x2e",
                "code" : "0x6000355415600957005b60203560003555",
                "nonce" : "0x00",
                "storage" : {
                }
            },
            "0xa94f5374fce5edbc8e2a8697c15331677e6ebf0b" : {
                "balance" : "0x0de0b6b3a7640000",
                "code" : "0x",
                "nonce" : "0x00",
                "storage" : {
                }
            }
        },
        "transaction" : {
            "data" : [
                "0x457fffffffffffffffffffffffffffffffffffffffffffffffffffffffffffffffff417fffffffffffffffffffffffffffffffffffffffffffffffffffffffffffffffff7f000000000000000000000000945304eb96065b2a98b57a48a06ae28d285a71b57ffffffffffffffffffffffffffffffffffffffffffffffffffffffffffffffffe097f0000000000000000000000010000000000000000000000000000000000000000"
            ],
            "gasLimit" : [
                "0x5be4cce8"
            ],
            "gasPrice" : "0x0a",
            "nonce" : "0x00",
            "secretKey" : "0x45a915e4d060149eb4365960e6a7a45f334393093061116b197e3240065ff2d8",
            "sender" : "0xa94f5374fce5edbc8e2a8697c15331677e6ebf0b",
            "to" : "0x095e7baea6a6c7c4c2dfeb977efac326af552d87",
            "value" : [
                "0x2f5660ce"
            ]
        }
    }
}