{
    "randomStatetest310" : {
        "_info" : {
            "comment" : "",
            "filling-rpc-server" : "evm version 1.11.4-unstable-e14043db-20230308",
            "filling-tool-version" : "retesteth-0.3.0-shanghai+commit.fd2c0a83.Linux.g++",
            "generatedTestHash" : "617f4e864d6bdd89905d675ab2d8f3bacfd787ae1ac81dd0f41801e61b7efd14",
            "lllcversion" : "Version: 0.5.14-develop.2022.7.30+commit.a096d7a9.Linux.g++",
            "solidity" : "Version: 0.8.17+commit.8df45f5f.Linux.g++",
            "source" : "src/GeneralStateTestsFiller/stRandom/randomStatetest310Filler.json",
            "sourceHash" : "76b6cc62d783b2e8326a79b5c4d88f2a8761a4812acdb181cf9e0c28f705f672"
        },
        "env" : {
            "currentBaseFee" : "0x0a",
            "currentCoinbase" : "0x945304eb96065b2a98b57a48a06ae28d285a71b5",
            "currentDifficulty" : "0x020000",
            "currentGasLimit" : "0x7fffffffffffffff",
            "currentNumber" : "0x01",
            "currentRandom" : "0x0000000000000000000000000000000000000000000000000000000000020000",
            "currentTimestamp" : "0x03e8",
            "previousHash" : "0x5e20a0453cecd065ea59c37ac63e079ee08998b6045136a8ce6635c7912ec0b6"
        },
        "post" : {
            "Berlin" : [
                {
                    "hash" : "0x012efdbeeaf23fb493f4ee53b2ff1dd3a6c82a63e73b0c42829488c20d6c723a",
                    "indexes" : {
                        "data" : 0,
                        "gas" : 0,
                        "value" : 0
                    },
                    "logs" : "0x1dcc4de8dec75d7aab85b567b6ccd41ad312451b948a7413f0a142fd40d49347",
                    "txbytes" : "0xf8fd800a841a37e2dd94095e7baea6a6c7c4c2dfeb977efac326af552d87841b76ed9db89744587fffffffffffffffffffffffffffffffffffffffffffffffffffffffffffffffff7f000000000000000000000000000000000000000000000000000000000000c3507f000000000000000000000000ffffffffffffffffffffffffffffffffffffffff59907fffffffffffffffffffffffffffffffffffffffffffffffffffffffffffffffff1a37160b6a650645597c796e9c97951ba06f2295bc5526bf1b558aa1a041981b8662f2704a04f2cd9629e5b2581801b942a029a2c3b4e489b78ace734d7b9e1f1283ccb2eead7b6812d693b5431aa55bed83"
                }
            ],
            "Istanbul" : [
                {
                    "hash" : "0xa08bc564309e22ba9fa17a92871dc2cf1ff6ef281408395fee541262e96801dd",
                    "indexes" : {
                        "data" : 0,
                        "gas" : 0,
                        "value" : 0
                    },
                    "logs" : "0x1dcc4de8dec75d7aab85b567b6ccd41ad312451b948a7413f0a142fd40d49347",
                    "txbytes" : "0xf8fd800a841a37e2dd94095e7baea6a6c7c4c2dfeb977efac326af552d87841b76ed9db89744587fffffffffffffffffffffffffffffffffffffffffffffffffffffffffffffffff7f000000000000000000000000000000000000000000000000000000000000c3507f000000000000000000000000ffffffffffffffffffffffffffffffffffffffff59907fffffffffffffffffffffffffffffffffffffffffffffffffffffffffffffffff1a37160b6a650645597c796e9c97951ba06f2295bc5526bf1b558aa1a041981b8662f2704a04f2cd9629e5b2581801b942a029a2c3b4e489b78ace734d7b9e1f1283ccb2eead7b6812d693b5431aa55bed83"
                }
            ],
            "London" : [
                {
                    "hash" : "0xb0c7764a36f556e80b3c348942b777f8d16de1222837e506f531e1b83360c1e8",
                    "indexes" : {
                        "data" : 0,
                        "gas" : 0,
                        "value" : 0
                    },
                    "logs" : "0x1dcc4de8dec75d7aab85b567b6ccd41ad312451b948a7413f0a142fd40d49347",
                    "txbytes" : "0xf8fd800a841a37e2dd94095e7baea6a6c7c4c2dfeb977efac326af552d87841b76ed9db89744587fffffffffffffffffffffffffffffffffffffffffffffffffffffffffffffffff7f000000000000000000000000000000000000000000000000000000000000c3507f000000000000000000000000ffffffffffffffffffffffffffffffffffffffff59907fffffffffffffffffffffffffffffffffffffffffffffffffffffffffffffffff1a37160b6a650645597c796e9c97951ba06f2295bc5526bf1b558aa1a041981b8662f2704a04f2cd9629e5b2581801b942a029a2c3b4e489b78ace734d7b9e1f1283ccb2eead7b6812d693b5431aa55bed83"
                }
            ],
            "Merge" : [
                {
                    "hash" : "0xb0c7764a36f556e80b3c348942b777f8d16de1222837e506f531e1b83360c1e8",
                    "indexes" : {
                        "data" : 0,
                        "gas" : 0,
                        "value" : 0
                    },
                    "logs" : "0x1dcc4de8dec75d7aab85b567b6ccd41ad312451b948a7413f0a142fd40d49347",
                    "txbytes" : "0xf8fd800a841a37e2dd94095e7baea6a6c7c4c2dfeb977efac326af552d87841b76ed9db89744587fffffffffffffffffffffffffffffffffffffffffffffffffffffffffffffffff7f000000000000000000000000000000000000000000000000000000000000c3507f000000000000000000000000ffffffffffffffffffffffffffffffffffffffff59907fffffffffffffffffffffffffffffffffffffffffffffffffffffffffffffffff1a37160b6a650645597c796e9c97951ba06f2295bc5526bf1b558aa1a041981b8662f2704a04f2cd9629e5b2581801b942a029a2c3b4e489b78ace734d7b9e1f1283ccb2eead7b6812d693b5431aa55bed83"
                }
            ],
            "Shanghai" : [
                {
                    "hash" : "0xb0c7764a36f556e80b3c348942b777f8d16de1222837e506f531e1b83360c1e8",
                    "indexes" : {
                        "data" : 0,
                        "gas" : 0,
                        "value" : 0
                    },
                    "logs" : "0x1dcc4de8dec75d7aab85b567b6ccd41ad312451b948a7413f0a142fd40d49347",
                    "txbytes" : "0xf8fd800a841a37e2dd94095e7baea6a6c7c4c2dfeb977efac326af552d87841b76ed9db89744587fffffffffffffffffffffffffffffffffffffffffffffffffffffffffffffffff7f000000000000000000000000000000000000000000000000000000000000c3507f000000000000000000000000ffffffffffffffffffffffffffffffffffffffff59907fffffffffffffffffffffffffffffffffffffffffffffffffffffffffffffffff1a37160b6a650645597c796e9c97951ba06f2295bc5526bf1b558aa1a041981b8662f2704a04f2cd9629e5b2581801b942a029a2c3b4e489b78ace734d7b9e1f1283ccb2eead7b6812d693b5431aa55bed83"
                }
            ]
        },
        "pre" : {
            "0x095e7baea6a6c7c4c2dfeb977efac326af552d87" : {
                "balance" : "0x00",
                "code" : "0x44587fffffffffffffffffffffffffffffffffffffffffffffffffffffffffffffffff7f000000000000000000000000000000000000000000000000000000000000c3507f000000000000000000000000ffffffffffffffffffffffffffffffffffffffff59907fffffffffffffffffffffffffffffffffffffffffffffffffffffffffffffffff1a37160b6a650645597c796e9c97955560005155",
                "nonce" : "0x00",
                "storage" : {
                }
            },
            "0x945304eb96065b2a98b57a48a06ae28d285a71b5" : {
                "balance" : "0x2e",
                "code" : "0x6000355415600957005b60203560003555",
                "nonce" : "0x00",
                "storage" : {
                }
            },
            "0xa94f5374fce5edbc8e2a8697c15331677e6ebf0b" : {
                "balance" : "0x0de0b6b3a7640000",
                "code" : "0x",
                "nonce" : "0x00",
                "storage" : {
                }
            }
        },
        "transaction" : {
            "data" : [
                "0x44587fffffffffffffffffffffffffffffffffffffffffffffffffffffffffffffffff7f000000000000000000000000000000000000000000000000000000000000c3507f000000000000000000000000ffffffffffffffffffffffffffffffffffffffff59907fffffffffffffffffffffffffffffffffffffffffffffffffffffffffffffffff1a37160b6a650645597c796e9c9795"
            ],
            "gasLimit" : [
                "0x1a37e2dd"
            ],
            "gasPrice" : "0x0a",
            "nonce" : "0x00",
            "secretKey" : "0x45a915e4d060149eb4365960e6a7a45f334393093061116b197e3240065ff2d8",
            "sender" : "0xa94f5374fce5edbc8e2a8697c15331677e6ebf0b",
            "to" : "0x095e7baea6a6c7c4c2dfeb977efac326af552d87",
            "value" : [
                "0x1b76ed9d"
            ]
        }
    }
}