{
    "randomStatetest87" : {
        "_info" : {
            "comment" : "",
            "filling-rpc-server" : "evm version 1.13.13-unstable-034bc466-20240219",
            "filling-tool-version" : "retesteth-0.3.2-cancun+commit.014a68a5.Linux.g++",
            "generatedTestHash" : "e03df5bb4bc662ae9393d4c759c8a4ef0cd73dcca73cb4466f651df973c7b980",
            "lllcversion" : "Version: 0.5.14-develop.2023.7.11+commit.c58ab2c6.mod.Linux.g++",
            "solidity" : "Version: 0.8.21+commit.d9974bed.Linux.g++",
            "source" : "src/GeneralStateTestsFiller/stRandom/randomStatetest87Filler.json",
            "sourceHash" : "126c62f981ad83bebb53557c33b8b758c0890aa7b3065e515f988f664a021ee6"
        },
        "env" : {
            "currentBaseFee" : "0x0a",
            "currentCoinbase" : "0x945304eb96065b2a98b57a48a06ae28d285a71b5",
            "currentDifficulty" : "0x020000",
            "currentExcessBlobGas" : "0x00",
            "currentGasLimit" : "0x7fffffffffffffff",
            "currentNumber" : "0x01",
            "currentRandom" : "0x0000000000000000000000000000000000000000000000000000000000020000",
            "currentTimestamp" : "0x03e8"
        },
        "post" : {
            "Berlin" : [
                {
                    "hash" : "0xcd320b3adb2ef7579ee06d2bfa4c1874335461075830244411eba2c8e70f2612",
                    "indexes" : {
                        "data" : 0,
                        "gas" : 0,
                        "value" : 0
                    },
                    "logs" : "0x1dcc4de8dec75d7aab85b567b6ccd41ad312451b948a7413f0a142fd40d49347",
                    "txbytes" : "0xf9013e800a84366ad29e94095e7baea6a6c7c4c2dfeb977efac326af552d87847b1e5dc9b8d87fffffffffffffffffffffffffffffffffffffffffffffffffffffffffffffffff7f00000000000000000000000000000000000000000000000000000000000000007f00000000000000000000000000000000000000000000000000000000000000007f00000000000000000000000100000000000000000000000000000000000000007f00000000000000000000000100000000000000000000000000000000000000005b7ffffffffffffffffffffffffffffffffffffffffffffffffffffffffffffffffe6f446e638e7e16736c030393727d7481741ba04080bcc8c4faa6c64dbab9f871b306a5f588003c609607faf723aae7c14ca176a05cb49ba42ede855281429b6233d2ba8dc72ec5d703f9114dc758a51ecce14645"
                }
            ],
            "Cancun" : [
                {
                    "hash" : "0x51a1f58f1b969da7a045d33c8b7baf45d9a90d292a5433731be7763b75b0e9a9",
                    "indexes" : {
                        "data" : 0,
                        "gas" : 0,
                        "value" : 0
                    },
                    "logs" : "0x1dcc4de8dec75d7aab85b567b6ccd41ad312451b948a7413f0a142fd40d49347",
                    "txbytes" : "0xf9013e800a84366ad29e94095e7baea6a6c7c4c2dfeb977efac326af552d87847b1e5dc9b8d87fffffffffffffffffffffffffffffffffffffffffffffffffffffffffffffffff7f00000000000000000000000000000000000000000000000000000000000000007f00000000000000000000000000000000000000000000000000000000000000007f00000000000000000000000100000000000000000000000000000000000000007f00000000000000000000000100000000000000000000000000000000000000005b7ffffffffffffffffffffffffffffffffffffffffffffffffffffffffffffffffe6f446e638e7e16736c030393727d7481741ba04080bcc8c4faa6c64dbab9f871b306a5f588003c609607faf723aae7c14ca176a05cb49ba42ede855281429b6233d2ba8dc72ec5d703f9114dc758a51ecce14645"
                }
            ],
            "Istanbul" : [
                {
                    "hash" : "0xff0f1321dad930f8206f16ffcb2cbe5985b035681f480443ecebd616a8820882",
                    "indexes" : {
                        "data" : 0,
                        "gas" : 0,
                        "value" : 0
                    },
                    "logs" : "0x1dcc4de8dec75d7aab85b567b6ccd41ad312451b948a7413f0a142fd40d49347",
                    "txbytes" : "0xf9013e800a84366ad29e94095e7baea6a6c7c4c2dfeb977efac326af552d87847b1e5dc9b8d87fffffffffffffffffffffffffffffffffffffffffffffffffffffffffffffffff7f00000000000000000000000000000000000000000000000000000000000000007f00000000000000000000000000000000000000000000000000000000000000007f00000000000000000000000100000000000000000000000000000000000000007f00000000000000000000000100000000000000000000000000000000000000005b7ffffffffffffffffffffffffffffffffffffffffffffffffffffffffffffffffe6f446e638e7e16736c030393727d7481741ba04080bcc8c4faa6c64dbab9f871b306a5f588003c609607faf723aae7c14ca176a05cb49ba42ede855281429b6233d2ba8dc72ec5d703f9114dc758a51ecce14645"
                }
            ],
            "London" : [
                {
                    "hash" : "0x5861d485e7b26f2fd485373a16421a3c034cbbc490568b50721ce99a18be7bc7",
                    "indexes" : {
                        "data" : 0,
                        "gas" : 0,
                        "value" : 0
                    },
                    "logs" : "0x1dcc4de8dec75d7aab85b567b6ccd41ad312451b948a7413f0a142fd40d49347",
                    "txbytes" : "0xf9013e800a84366ad29e94095e7baea6a6c7c4c2dfeb977efac326af552d87847b1e5dc9b8d87fffffffffffffffffffffffffffffffffffffffffffffffffffffffffffffffff7f00000000000000000000000000000000000000000000000000000000000000007f00000000000000000000000000000000000000000000000000000000000000007f00000000000000000000000100000000000000000000000000000000000000007f00000000000000000000000100000000000000000000000000000000000000005b7ffffffffffffffffffffffffffffffffffffffffffffffffffffffffffffffffe6f446e638e7e16736c030393727d7481741ba04080bcc8c4faa6c64dbab9f871b306a5f588003c609607faf723aae7c14ca176a05cb49ba42ede855281429b6233d2ba8dc72ec5d703f9114dc758a51ecce14645"
                }
            ],
            "Paris" : [
                {
                    "hash" : "0x5861d485e7b26f2fd485373a16421a3c034cbbc490568b50721ce99a18be7bc7",
                    "indexes" : {
                        "data" : 0,
                        "gas" : 0,
                        "value" : 0
                    },
                    "logs" : "0x1dcc4de8dec75d7aab85b567b6ccd41ad312451b948a7413f0a142fd40d49347",
                    "txbytes" : "0xf9013e800a84366ad29e94095e7baea6a6c7c4c2dfeb977efac326af552d87847b1e5dc9b8d87fffffffffffffffffffffffffffffffffffffffffffffffffffffffffffffffff7f00000000000000000000000000000000000000000000000000000000000000007f00000000000000000000000000000000000000000000000000000000000000007f00000000000000000000000100000000000000000000000000000000000000007f00000000000000000000000100000000000000000000000000000000000000005b7ffffffffffffffffffffffffffffffffffffffffffffffffffffffffffffffffe6f446e638e7e16736c030393727d7481741ba04080bcc8c4faa6c64dbab9f871b306a5f588003c609607faf723aae7c14ca176a05cb49ba42ede855281429b6233d2ba8dc72ec5d703f9114dc758a51ecce14645"
                }
            ],
            "Shanghai" : [
                {
                    "hash" : "0x5861d485e7b26f2fd485373a16421a3c034cbbc490568b50721ce99a18be7bc7",
                    "indexes" : {
                        "data" : 0,
                        "gas" : 0,
                        "value" : 0
                    },
                    "logs" : "0x1dcc4de8dec75d7aab85b567b6ccd41ad312451b948a7413f0a142fd40d49347",
                    "txbytes" : "0xf9013e800a84366ad29e94095e7baea6a6c7c4c2dfeb977efac326af552d87847b1e5dc9b8d87fffffffffffffffffffffffffffffffffffffffffffffffffffffffffffffffff7f00000000000000000000000000000000000000000000000000000000000000007f00000000000000000000000000000000000000000000000000000000000000007f00000000000000000000000100000000000000000000000000000000000000007f00000000000000000000000100000000000000000000000000000000000000005b7ffffffffffffffffffffffffffffffffffffffffffffffffffffffffffffffffe6f446e638e7e16736c030393727d7481741ba04080bcc8c4faa6c64dbab9f871b306a5f588003c609607faf723aae7c14ca176a05cb49ba42ede855281429b6233d2ba8dc72ec5d703f9114dc758a51ecce14645"
                }
            ]
        },
        "pre" : {
            "0x000f3df6d732807ef1319fb7b8bb8522d0beac02" : {
                "balance" : "0x00",
                "code" : "0x3373fffffffffffffffffffffffffffffffffffffffe14604d57602036146024575f5ffd5b5f35801560495762001fff810690815414603c575f5ffd5b62001fff01545f5260205ff35b5f5ffd5b62001fff42064281555f359062001fff015500",
                "nonce" : "0x01",
                "storage" : {
                }
            },
            "0x095e7baea6a6c7c4c2dfeb977efac326af552d87" : {
                "balance" : "0x00",
                "code" : "0x7fffffffffffffffffffffffffffffffffffffffffffffffffffffffffffffffff7f00000000000000000000000000000000000000000000000000000000000000007f00000000000000000000000000000000000000000000000000000000000000007f00000000000000000000000100000000000000000000000000000000000000007f00000000000000000000000100000000000000000000000000000000000000005b7ffffffffffffffffffffffffffffffffffffffffffffffffffffffffffffffffe6f446e638e7e16736c030393727d74817460005155",
                "nonce" : "0x00",
                "storage" : {
                }
            },
            "0x945304eb96065b2a98b57a48a06ae28d285a71b5" : {
                "balance" : "0x2e",
                "code" : "0x6000355415600957005b60203560003555",
                "nonce" : "0x00",
                "storage" : {
                }
            },
            "0xa94f5374fce5edbc8e2a8697c15331677e6ebf0b" : {
                "balance" : "0x0de0b6b3a7640000",
                "code" : "0x",
                "nonce" : "0x00",
                "storage" : {
                }
            }
        },
        "transaction" : {
            "data" : [
                "0x7fffffffffffffffffffffffffffffffffffffffffffffffffffffffffffffffff7f00000000000000000000000000000000000000000000000000000000000000007f00000000000000000000000000000000000000000000000000000000000000007f00000000000000000000000100000000000000000000000000000000000000007f00000000000000000000000100000000000000000000000000000000000000005b7ffffffffffffffffffffffffffffffffffffffffffffffffffffffffffffffffe6f446e638e7e16736c030393727d748174"
            ],
            "gasLimit" : [
                "0x366ad29e"
            ],
            "gasPrice" : "0x0a",
            "nonce" : "0x00",
            "secretKey" : "0x45a915e4d060149eb4365960e6a7a45f334393093061116b197e3240065ff2d8",
            "sender" : "0xa94f5374fce5edbc8e2a8697c15331677e6ebf0b",
            "to" : "0x095e7baea6a6c7c4c2dfeb977efac326af552d87",
            "value" : [
                "0x7b1e5dc9"
            ]
        }
    }
}