{
    "randomStatetest131" : {
        "_info" : {
            "comment" : "",
            "filling-rpc-server" : "evm version 1.13.11-unstable-765f2904-20240124",
            "filling-tool-version" : "retesteth-0.3.2-cancun+commit.ea13235b.Linux.g++",
            "generatedTestHash" : "90611d7ba5f7daa6925f3f7f9a171784688d3cee88ec9d5c2891124947b6b1ae",
            "lllcversion" : "Version: 0.5.14-develop.2023.7.11+commit.c58ab2c6.mod.Linux.g++",
            "solidity" : "Version: 0.8.21+commit.d9974bed.Linux.g++",
            "source" : "src/GeneralStateTestsFiller/stRandom/randomStatetest131Filler.json",
            "sourceHash" : "6bdb1d034637b06dd0fa6a5e64e90b91dd42b0223ab9d295c4c72fdaa6a4f7e5"
        },
        "env" : {
            "currentBaseFee" : "0x0a",
            "currentCoinbase" : "0x945304eb96065b2a98b57a48a06ae28d285a71b5",
            "currentDifficulty" : "0x020000",
            "currentExcessBlobGas" : "0x00",
            "currentGasLimit" : "0x7fffffffffffffff",
            "currentNumber" : "0x01",
            "currentRandom" : "0x0000000000000000000000000000000000000000000000000000000000020000",
            "currentTimestamp" : "0x03e8"
        },
        "post" : {
            "Berlin" : [
                {
                    "hash" : "0x5a8cc3e8a9cb9cbef68ccd31a1130cce4b9b21d92ba8fffd0f35f55e67e6c143",
                    "indexes" : {
                        "data" : 0,
                        "gas" : 0,
                        "value" : 0
                    },
                    "logs" : "0x1dcc4de8dec75d7aab85b567b6ccd41ad312451b948a7413f0a142fd40d49347",
                    "txbytes" : "0xf9011e800a842cc6a48894095e7baea6a6c7c4c2dfeb977efac326af552d87841c479f90b8b87f00000000000000000000000100000000000000000000000000000000000000007fffffffffffffffffffffffffffffffffffffffffffffffffffffffffffffffff7f000000000000000000000000000000000000000000000000000000000000c3507f000000000000000000000000ffffffffffffffffffffffffffffffffffffffff7f000000000000000000000001000000000000000000000000000000000000000014416f36ff85758270710168547a97778860961ca02190c6d198716ef67de7c3f95ec373b522645d5532d571ffc038c42ca915d9c6a0030d88e1bf9876ce4427d0e35e2a18df972c5a2ca683b395d3df6d5efea2ebdb"
                }
            ],
            "Cancun" : [
                {
                    "hash" : "0x60c20758337fc83fbd18c4e572e0bb4b6d0d4657e117faf76f547bd1890987af",
                    "indexes" : {
                        "data" : 0,
                        "gas" : 0,
                        "value" : 0
                    },
                    "logs" : "0x1dcc4de8dec75d7aab85b567b6ccd41ad312451b948a7413f0a142fd40d49347",
                    "txbytes" : "0xf9011e800a842cc6a48894095e7baea6a6c7c4c2dfeb977efac326af552d87841c479f90b8b87f00000000000000000000000100000000000000000000000000000000000000007fffffffffffffffffffffffffffffffffffffffffffffffffffffffffffffffff7f000000000000000000000000000000000000000000000000000000000000c3507f000000000000000000000000ffffffffffffffffffffffffffffffffffffffff7f000000000000000000000001000000000000000000000000000000000000000014416f36ff85758270710168547a97778860961ca02190c6d198716ef67de7c3f95ec373b522645d5532d571ffc038c42ca915d9c6a0030d88e1bf9876ce4427d0e35e2a18df972c5a2ca683b395d3df6d5efea2ebdb"
                }
            ],
            "Istanbul" : [
                {
                    "hash" : "0x241bc26acd0e42cb046089eb63b46fd5063af8f0212230c0276c5dc0c3330597",
                    "indexes" : {
                        "data" : 0,
                        "gas" : 0,
                        "value" : 0
                    },
                    "logs" : "0x1dcc4de8dec75d7aab85b567b6ccd41ad312451b948a7413f0a142fd40d49347",
                    "txbytes" : "0xf9011e800a842cc6a48894095e7baea6a6c7c4c2dfeb977efac326af552d87841c479f90b8b87f00000000000000000000000100000000000000000000000000000000000000007fffffffffffffffffffffffffffffffffffffffffffffffffffffffffffffffff7f000000000000000000000000000000000000000000000000000000000000c3507f000000000000000000000000ffffffffffffffffffffffffffffffffffffffff7f000000000000000000000001000000000000000000000000000000000000000014416f36ff85758270710168547a97778860961ca02190c6d198716ef67de7c3f95ec373b522645d5532d571ffc038c42ca915d9c6a0030d88e1bf9876ce4427d0e35e2a18df972c5a2ca683b395d3df6d5efea2ebdb"
                }
            ],
            "London" : [
                {
                    "hash" : "0x60c20758337fc83fbd18c4e572e0bb4b6d0d4657e117faf76f547bd1890987af",
                    "indexes" : {
                        "data" : 0,
                        "gas" : 0,
                        "value" : 0
                    },
                    "logs" : "0x1dcc4de8dec75d7aab85b567b6ccd41ad312451b948a7413f0a142fd40d49347",
                    "txbytes" : "0xf9011e800a842cc6a48894095e7baea6a6c7c4c2dfeb977efac326af552d87841c479f90b8b87f00000000000000000000000100000000000000000000000000000000000000007fffffffffffffffffffffffffffffffffffffffffffffffffffffffffffffffff7f000000000000000000000000000000000000000000000000000000000000c3507f000000000000000000000000ffffffffffffffffffffffffffffffffffffffff7f000000000000000000000001000000000000000000000000000000000000000014416f36ff85758270710168547a97778860961ca02190c6d198716ef67de7c3f95ec373b522645d5532d571ffc038c42ca915d9c6a0030d88e1bf9876ce4427d0e35e2a18df972c5a2ca683b395d3df6d5efea2ebdb"
                }
            ],
            "Paris" : [
                {
                    "hash" : "0x60c20758337fc83fbd18c4e572e0bb4b6d0d4657e117faf76f547bd1890987af",
                    "indexes" : {
                        "data" : 0,
                        "gas" : 0,
                        "value" : 0
                    },
                    "logs" : "0x1dcc4de8dec75d7aab85b567b6ccd41ad312451b948a7413f0a142fd40d49347",
                    "txbytes" : "0xf9011e800a842cc6a48894095e7baea6a6c7c4c2dfeb977efac326af552d87841c479f90b8b87f00000000000000000000000100000000000000000000000000000000000000007fffffffffffffffffffffffffffffffffffffffffffffffffffffffffffffffff7f000000000000000000000000000000000000000000000000000000000000c3507f000000000000000000000000ffffffffffffffffffffffffffffffffffffffff7f000000000000000000000001000000000000000000000000000000000000000014416f36ff85758270710168547a97778860961ca02190c6d198716ef67de7c3f95ec373b522645d5532d571ffc038c42ca915d9c6a0030d88e1bf9876ce4427d0e35e2a18df972c5a2ca683b395d3df6d5efea2ebdb"
                }
            ],
            "Shanghai" : [
                {
                    "hash" : "0x60c20758337fc83fbd18c4e572e0bb4b6d0d4657e117faf76f547bd1890987af",
                    "indexes" : {
                        "data" : 0,
                        "gas" : 0,
                        "value" : 0
                    },
                    "logs" : "0x1dcc4de8dec75d7aab85b567b6ccd41ad312451b948a7413f0a142fd40d49347",
                    "txbytes" : "0xf9011e800a842cc6a48894095e7baea6a6c7c4c2dfeb977efac326af552d87841c479f90b8b87f00000000000000000000000100000000000000000000000000000000000000007fffffffffffffffffffffffffffffffffffffffffffffffffffffffffffffffff7f000000000000000000000000000000000000000000000000000000000000c3507f000000000000000000000000ffffffffffffffffffffffffffffffffffffffff7f000000000000000000000001000000000000000000000000000000000000000014416f36ff85758270710168547a97778860961ca02190c6d198716ef67de7c3f95ec373b522645d5532d571ffc038c42ca915d9c6a0030d88e1bf9876ce4427d0e35e2a18df972c5a2ca683b395d3df6d5efea2ebdb"
                }
            ]
        },
        "pre" : {
            "0x095e7baea6a6c7c4c2dfeb977efac326af552d87" : {
                "balance" : "0x00",
                "code" : "0x7f00000000000000000000000100000000000000000000000000000000000000007fffffffffffffffffffffffffffffffffffffffffffffffffffffffffffffffff7f000000000000000000000000000000000000000000000000000000000000c3507f000000000000000000000000ffffffffffffffffffffffffffffffffffffffff7f000000000000000000000001000000000000000000000000000000000000000014416f36ff85758270710168547a977788609660005155",
                "nonce" : "0x00",
                "storage" : {
                }
            },
            "0x945304eb96065b2a98b57a48a06ae28d285a71b5" : {
                "balance" : "0x2e",
                "code" : "0x6000355415600957005b60203560003555",
                "nonce" : "0x00",
                "storage" : {
                }
            },
            "0xa94f5374fce5edbc8e2a8697c15331677e6ebf0b" : {
                "balance" : "0x0de0b6b3a7640000",
                "code" : "0x",
                "nonce" : "0x00",
                "storage" : {
                }
            }
        },
        "transaction" : {
            "data" : [
                "0x7f00000000000000000000000100000000000000000000000000000000000000007fffffffffffffffffffffffffffffffffffffffffffffffffffffffffffffffff7f000000000000000000000000000000000000000000000000000000000000c3507f000000000000000000000000ffffffffffffffffffffffffffffffffffffffff7f000000000000000000000001000000000000000000000000000000000000000014416f36ff85758270710168547a9777886096"
            ],
            "gasLimit" : [
                "0x2cc6a488"
            ],
            "gasPrice" : "0x0a",
            "nonce" : "0x00",
            "secretKey" : "0x45a915e4d060149eb4365960e6a7a45f334393093061116b197e3240065ff2d8",
            "sender" : "0xa94f5374fce5edbc8e2a8697c15331677e6ebf0b",
            "to" : "0x095e7baea6a6c7c4c2dfeb977efac326af552d87",
            "value" : [
                "0x1c479f90"
            ]
        }
    }
}