{
    "randomStatetest280" : {
        "_info" : {
            "comment" : "",
            "filling-rpc-server" : "evm version 1.13.13-unstable-034bc466-20240219",
            "filling-tool-version" : "retesteth-0.3.2-cancun+commit.014a68a5.Linux.g++",
            "generatedTestHash" : "8b0488e5d462a6979311ba857cc024e2954893ea8a469a38159ff05c92b94708",
            "lllcversion" : "Version: 0.5.14-develop.2023.7.11+commit.c58ab2c6.mod.Linux.g++",
            "solidity" : "Version: 0.8.21+commit.d9974bed.Linux.g++",
            "source" : "src/GeneralStateTestsFiller/stRandom/randomStatetest280Filler.json",
            "sourceHash" : "b2a70cca67935f2babe65232f41ea0709deb3e5cd739b4c0b38eb8f9c2beab6a"
        },
        "env" : {
            "currentBaseFee" : "0x0a",
            "currentCoinbase" : "0x945304eb96065b2a98b57a48a06ae28d285a71b5",
            "currentDifficulty" : "0x020000",
            "currentExcessBlobGas" : "0x00",
            "currentGasLimit" : "0x7fffffffffffffff",
            "currentNumber" : "0x01",
            "currentRandom" : "0x0000000000000000000000000000000000000000000000000000000000020000",
            "currentTimestamp" : "0x03e8"
        },
        "post" : {
            "Berlin" : [
                {
                    "hash" : "0xa0ad23b9597bdd423e4b7e90e9c8a61fa15e1d187e7580d4c865f60652147955",
                    "indexes" : {
                        "data" : 0,
                        "gas" : 0,
                        "value" : 0
                    },
                    "logs" : "0x1dcc4de8dec75d7aab85b567b6ccd41ad312451b948a7413f0a142fd40d49347",
                    "txbytes" : "0xf8dd800a842db9c36994095e7baea6a6c7c4c2dfeb977efac326af552d8784303cdc5ab8777f000000000000000000000000000000000000000000000000000000000000000143507f000000000000000000000000000000000000000000000000000000000000c350417f00000000000000000000000000000000000000000000000000000000000000006f423b3c407e7c6f16718668738d193cf21ca0d2b8785f8e691ac846965585637a88b474794405fc0cef90094bbf6a57770536a07de472ac85d78d59b79fb43d2eca4491e4a850358a116f6f79ad6a2cdde62fc2"
                }
            ],
            "Cancun" : [
                {
                    "hash" : "0xd078847bbb17b16a0eb9497dc5e039a6704c972c4f0b912841b68b10e662a25c",
                    "indexes" : {
                        "data" : 0,
                        "gas" : 0,
                        "value" : 0
                    },
                    "logs" : "0x1dcc4de8dec75d7aab85b567b6ccd41ad312451b948a7413f0a142fd40d49347",
                    "txbytes" : "0xf8dd800a842db9c36994095e7baea6a6c7c4c2dfeb977efac326af552d8784303cdc5ab8777f000000000000000000000000000000000000000000000000000000000000000143507f000000000000000000000000000000000000000000000000000000000000c350417f00000000000000000000000000000000000000000000000000000000000000006f423b3c407e7c6f16718668738d193cf21ca0d2b8785f8e691ac846965585637a88b474794405fc0cef90094bbf6a57770536a07de472ac85d78d59b79fb43d2eca4491e4a850358a116f6f79ad6a2cdde62fc2"
                }
            ],
            "Istanbul" : [
                {
                    "hash" : "0x8e9d9ded2779f592dbb2434541dd9bfa02c9dcc1b248ae16729c6a837a1b9f66",
                    "indexes" : {
                        "data" : 0,
                        "gas" : 0,
                        "value" : 0
                    },
                    "logs" : "0x1dcc4de8dec75d7aab85b567b6ccd41ad312451b948a7413f0a142fd40d49347",
                    "txbytes" : "0xf8dd800a842db9c36994095e7baea6a6c7c4c2dfeb977efac326af552d8784303cdc5ab8777f000000000000000000000000000000000000000000000000000000000000000143507f000000000000000000000000000000000000000000000000000000000000c350417f00000000000000000000000000000000000000000000000000000000000000006f423b3c407e7c6f16718668738d193cf21ca0d2b8785f8e691ac846965585637a88b474794405fc0cef90094bbf6a57770536a07de472ac85d78d59b79fb43d2eca4491e4a850358a116f6f79ad6a2cdde62fc2"
                }
            ],
            "London" : [
                {
                    "hash" : "0x9bf0379f105c2b03c93d8a6771cd8e2c35a54d72e25664d4aa83ca6bc3a962eb",
                    "indexes" : {
                        "data" : 0,
                        "gas" : 0,
                        "value" : 0
                    },
                    "logs" : "0x1dcc4de8dec75d7aab85b567b6ccd41ad312451b948a7413f0a142fd40d49347",
                    "txbytes" : "0xf8dd800a842db9c36994095e7baea6a6c7c4c2dfeb977efac326af552d8784303cdc5ab8777f000000000000000000000000000000000000000000000000000000000000000143507f000000000000000000000000000000000000000000000000000000000000c350417f00000000000000000000000000000000000000000000000000000000000000006f423b3c407e7c6f16718668738d193cf21ca0d2b8785f8e691ac846965585637a88b474794405fc0cef90094bbf6a57770536a07de472ac85d78d59b79fb43d2eca4491e4a850358a116f6f79ad6a2cdde62fc2"
                }
            ],
            "Paris" : [
                {
                    "hash" : "0x9bf0379f105c2b03c93d8a6771cd8e2c35a54d72e25664d4aa83ca6bc3a962eb",
                    "indexes" : {
                        "data" : 0,
                        "gas" : 0,
                        "value" : 0
                    },
                    "logs" : "0x1dcc4de8dec75d7aab85b567b6ccd41ad312451b948a7413f0a142fd40d49347",
                    "txbytes" : "0xf8dd800a842db9c36994095e7baea6a6c7c4c2dfeb977efac326af552d8784303cdc5ab8777f000000000000000000000000000000000000000000000000000000000000000143507f000000000000000000000000000000000000000000000000000000000000c350417f00000000000000000000000000000000000000000000000000000000000000006f423b3c407e7c6f16718668738d193cf21ca0d2b8785f8e691ac846965585637a88b474794405fc0cef90094bbf6a57770536a07de472ac85d78d59b79fb43d2eca4491e4a850358a116f6f79ad6a2cdde62fc2"
                }
            ],
            "Shanghai" : [
                {
                    "hash" : "0x9bf0379f105c2b03c93d8a6771cd8e2c35a54d72e25664d4aa83ca6bc3a962eb",
                    "indexes" : {
                        "data" : 0,
                        "gas" : 0,
                        "value" : 0
                    },
                    "logs" : "0x1dcc4de8dec75d7aab85b567b6ccd41ad312451b948a7413f0a142fd40d49347",
                    "txbytes" : "0xf8dd800a842db9c36994095e7baea6a6c7c4c2dfeb977efac326af552d8784303cdc5ab8777f000000000000000000000000000000000000000000000000000000000000000143507f000000000000000000000000000000000000000000000000000000000000c350417f00000000000000000000000000000000000000000000000000000000000000006f423b3c407e7c6f16718668738d193cf21ca0d2b8785f8e691ac846965585637a88b474794405fc0cef90094bbf6a57770536a07de472ac85d78d59b79fb43d2eca4491e4a850358a116f6f79ad6a2cdde62fc2"
                }
            ]
        },
        "pre" : {
            "0x000f3df6d732807ef1319fb7b8bb8522d0beac02" : {
                "balance" : "0x00",
                "code" : "0x3373fffffffffffffffffffffffffffffffffffffffe14604d57602036146024575f5ffd5b5f35801560495762001fff810690815414603c575f5ffd5b62001fff01545f5260205ff35b5f5ffd5b62001fff42064281555f359062001fff015500",
                "nonce" : "0x01",
                "storage" : {
                }
            },
            "0x095e7baea6a6c7c4c2dfeb977efac326af552d87" : {
                "balance" : "0x00",
                "code" : "0x7f000000000000000000000000000000000000000000000000000000000000000143507f000000000000000000000000000000000000000000000000000000000000c350417f00000000000000000000000000000000000000000000000000000000000000006f423b3c407e7c6f16718668738d193cf260005155",
                "nonce" : "0x00",
                "storage" : {
                }
            },
            "0x945304eb96065b2a98b57a48a06ae28d285a71b5" : {
                "balance" : "0x2e",
                "code" : "0x6000355415600957005b60203560003555",
                "nonce" : "0x00",
                "storage" : {
                }
            },
            "0xa94f5374fce5edbc8e2a8697c15331677e6ebf0b" : {
                "balance" : "0x0de0b6b3a7640000",
                "code" : "0x",
                "nonce" : "0x00",
                "storage" : {
                }
            }
        },
        "transaction" : {
            "data" : [
                "0x7f000000000000000000000000000000000000000000000000000000000000000143507f000000000000000000000000000000000000000000000000000000000000c350417f00000000000000000000000000000000000000000000000000000000000000006f423b3c407e7c6f16718668738d193cf2"
            ],
            "gasLimit" : [
                "0x2db9c369"
            ],
            "gasPrice" : "0x0a",
            "nonce" : "0x00",
            "secretKey" : "0x45a915e4d060149eb4365960e6a7a45f334393093061116b197e3240065ff2d8",
            "sender" : "0xa94f5374fce5edbc8e2a8697c15331677e6ebf0b",
            "to" : "0x095e7baea6a6c7c4c2dfeb977efac326af552d87",
            "value" : [
                "0x303cdc5a"
            ]
        }
    }
}