{
    "randomStatetest48" : {
        "_info" : {
            "comment" : "",
            "filling-rpc-server" : "evm version 1.13.13-unstable-034bc466-20240219",
            "filling-tool-version" : "retesteth-0.3.2-cancun+commit.014a68a5.Linux.g++",
            "generatedTestHash" : "0a61b1d8704edfa8debce2da97f268124b09015cdc82bab9f0407799a93a2052",
            "lllcversion" : "Version: 0.5.14-develop.2023.7.11+commit.c58ab2c6.mod.Linux.g++",
            "solidity" : "Version: 0.8.21+commit.d9974bed.Linux.g++",
            "source" : "src/GeneralStateTestsFiller/stRandom/randomStatetest48Filler.json",
            "sourceHash" : "fa3bdb03215f0d7230eeb0174e3dbf7026b77dce1363670eee948e4d44e16443"
        },
        "env" : {
            "currentBaseFee" : "0x0a",
            "currentCoinbase" : "0x945304eb96065b2a98b57a48a06ae28d285a71b5",
            "currentDifficulty" : "0x020000",
            "currentExcessBlobGas" : "0x00",
            "currentGasLimit" : "0x7fffffffffffffff",
            "currentNumber" : "0x01",
            "currentRandom" : "0x0000000000000000000000000000000000000000000000000000000000020000",
            "currentTimestamp" : "0x03e8"
        },
        "post" : {
            "Berlin" : [
                {
                    "hash" : "0xad42749dc5be216a64c449db3823139c3c5a5d904d8d6743511ea94de1e5635e",
                    "indexes" : {
                        "data" : 0,
                        "gas" : 0,
                        "value" : 0
                    },
                    "logs" : "0x5c99d1f58e603f0a8e3d4bdfe4e572fb6020c3206cd413a26e17d308e1e3aa03",
                    "txbytes" : "0xf901ee800a847e6bc9f894095e7baea6a6c7c4c2dfeb977efac326af552d87845c4c6e38b9018776dd12f3185b84dfc71eb93f4df4ca30dcf34446f25793016424a5e33b6a65fb5d64a9394d7ebefb1c15de971a2d2f53377765d50c698d4e26adea05dd2f6a1688f60eb8b172d796a45c6f79596bfb719df5a571ce8c339e9d7e9b3905324643a2b9fd541956552fc258e688303ecb25082776fde7334cdf046f70c8669a6a05c36909038278e925f0156be9ddb9b83786de8a325ab28e61d18397714bcda0fd5ca879c870d383721c638733b1f78074cc1079e72e0bbbad262348a8976eaaf313a261dccb69dbaf283beebcac7ac3b8166a4deb1fe5099a1c7f3ef595357e76ca260a703bec4848a3cc9804d6de6e5b853b54dd65979292f596ee132edf67eb948e4e4d22f9cb7629bf8b642cb921b2ed9b13e47cb06d6c6f4384c7b372ee7cb61f76a363f8fa68309e3d308179ad3e15fd752d6586e9030c8c1f274878bf7fbe1b569944fdda166c47411878f3702bbe1bbabbce8b10701076e0338bfa289d424c13f4f438474afd71abc18290e0a3c853537a13ce9869d3942c7b6802bfb0f345a9af828b961ca08439850fc4d1f7c27d71945f66093caf39123465c11c1f50d2d0c31aa6c8829ba05f15c595063ce2748af11db94a7009a1c82695d0eb07f4136d0789980b327bff"
                }
            ],
            "Cancun" : [
                {
                    "hash" : "0xdbfcbd0c2d66b4e9dda2531014a5ab2e73581e34f2075f74d68410e6f802a111",
                    "indexes" : {
                        "data" : 0,
                        "gas" : 0,
                        "value" : 0
                    },
                    "logs" : "0x5c99d1f58e603f0a8e3d4bdfe4e572fb6020c3206cd413a26e17d308e1e3aa03",
                    "txbytes" : "0xf901ee800a847e6bc9f894095e7baea6a6c7c4c2dfeb977efac326af552d87845c4c6e38b9018776dd12f3185b84dfc71eb93f4df4ca30dcf34446f25793016424a5e33b6a65fb5d64a9394d7ebefb1c15de971a2d2f53377765d50c698d4e26adea05dd2f6a1688f60eb8b172d796a45c6f79596bfb719df5a571ce8c339e9d7e9b3905324643a2b9fd541956552fc258e688303ecb25082776fde7334cdf046f70c8669a6a05c36909038278e925f0156be9ddb9b83786de8a325ab28e61d18397714bcda0fd5ca879c870d383721c638733b1f78074cc1079e72e0bbbad262348a8976eaaf313a261dccb69dbaf283beebcac7ac3b8166a4deb1fe5099a1c7f3ef595357e76ca260a703bec4848a3cc9804d6de6e5b853b54dd65979292f596ee132edf67eb948e4e4d22f9cb7629bf8b642cb921b2ed9b13e47cb06d6c6f4384c7b372ee7cb61f76a363f8fa68309e3d308179ad3e15fd752d6586e9030c8c1f274878bf7fbe1b569944fdda166c47411878f3702bbe1bbabbce8b10701076e0338bfa289d424c13f4f438474afd71abc18290e0a3c853537a13ce9869d3942c7b6802bfb0f345a9af828b961ca08439850fc4d1f7c27d71945f66093caf39123465c11c1f50d2d0c31aa6c8829ba05f15c595063ce2748af11db94a7009a1c82695d0eb07f4136d0789980b327bff"
                }
            ],
            "Istanbul" : [
                {
                    "hash" : "0x994e7afb15dbff0edad897019e0bd49bf7d2432b5dc82df3521f32f0668eb3b4",
                    "indexes" : {
                        "data" : 0,
                        "gas" : 0,
                        "value" : 0
                    },
                    "logs" : "0x5c99d1f58e603f0a8e3d4bdfe4e572fb6020c3206cd413a26e17d308e1e3aa03",
                    "txbytes" : "0xf901ee800a847e6bc9f894095e7baea6a6c7c4c2dfeb977efac326af552d87845c4c6e38b9018776dd12f3185b84dfc71eb93f4df4ca30dcf34446f25793016424a5e33b6a65fb5d64a9394d7ebefb1c15de971a2d2f53377765d50c698d4e26adea05dd2f6a1688f60eb8b172d796a45c6f79596bfb719df5a571ce8c339e9d7e9b3905324643a2b9fd541956552fc258e688303ecb25082776fde7334cdf046f70c8669a6a05c36909038278e925f0156be9ddb9b83786de8a325ab28e61d18397714bcda0fd5ca879c870d383721c638733b1f78074cc1079e72e0bbbad262348a8976eaaf313a261dccb69dbaf283beebcac7ac3b8166a4deb1fe5099a1c7f3ef595357e76ca260a703bec4848a3cc9804d6de6e5b853b54dd65979292f596ee132edf67eb948e4e4d22f9cb7629bf8b642cb921b2ed9b13e47cb06d6c6f4384c7b372ee7cb61f76a363f8fa68309e3d308179ad3e15fd752d6586e9030c8c1f274878bf7fbe1b569944fdda166c47411878f3702bbe1bbabbce8b10701076e0338bfa289d424c13f4f438474afd71abc18290e0a3c853537a13ce9869d3942c7b6802bfb0f345a9af828b961ca08439850fc4d1f7c27d71945f66093caf39123465c11c1f50d2d0c31aa6c8829ba05f15c595063ce2748af11db94a7009a1c82695d0eb07f4136d0789980b327bff"
                }
            ],
            "London" : [
                {
                    "hash" : "0x4f5b77f6018ce092801a5e5b510cc1a3a5d2a65c12e6a280b474f455a52849a1",
                    "indexes" : {
                        "data" : 0,
                        "gas" : 0,
                        "value" : 0
                    },
                    "logs" : "0x5c99d1f58e603f0a8e3d4bdfe4e572fb6020c3206cd413a26e17d308e1e3aa03",
                    "txbytes" : "0xf901ee800a847e6bc9f894095e7baea6a6c7c4c2dfeb977efac326af552d87845c4c6e38b9018776dd12f3185b84dfc71eb93f4df4ca30dcf34446f25793016424a5e33b6a65fb5d64a9394d7ebefb1c15de971a2d2f53377765d50c698d4e26adea05dd2f6a1688f60eb8b172d796a45c6f79596bfb719df5a571ce8c339e9d7e9b3905324643a2b9fd541956552fc258e688303ecb25082776fde7334cdf046f70c8669a6a05c36909038278e925f0156be9ddb9b83786de8a325ab28e61d18397714bcda0fd5ca879c870d383721c638733b1f78074cc1079e72e0bbbad262348a8976eaaf313a261dccb69dbaf283beebcac7ac3b8166a4deb1fe5099a1c7f3ef595357e76ca260a703bec4848a3cc9804d6de6e5b853b54dd65979292f596ee132edf67eb948e4e4d22f9cb7629bf8b642cb921b2ed9b13e47cb06d6c6f4384c7b372ee7cb61f76a363f8fa68309e3d308179ad3e15fd752d6586e9030c8c1f274878bf7fbe1b569944fdda166c47411878f3702bbe1bbabbce8b10701076e0338bfa289d424c13f4f438474afd71abc18290e0a3c853537a13ce9869d3942c7b6802bfb0f345a9af828b961ca08439850fc4d1f7c27d71945f66093caf39123465c11c1f50d2d0c31aa6c8829ba05f15c595063ce2748af11db94a7009a1c82695d0eb07f4136d0789980b327bff"
                }
            ],
            "Paris" : [
                {
                    "hash" : "0x4f5b77f6018ce092801a5e5b510cc1a3a5d2a65c12e6a280b474f455a52849a1",
                    "indexes" : {
                        "data" : 0,
                        "gas" : 0,
                        "value" : 0
                    },
                    "logs" : "0x5c99d1f58e603f0a8e3d4bdfe4e572fb6020c3206cd413a26e17d308e1e3aa03",
                    "txbytes" : "0xf901ee800a847e6bc9f894095e7baea6a6c7c4c2dfeb977efac326af552d87845c4c6e38b9018776dd12f3185b84dfc71eb93f4df4ca30dcf34446f25793016424a5e33b6a65fb5d64a9394d7ebefb1c15de971a2d2f53377765d50c698d4e26adea05dd2f6a1688f60eb8b172d796a45c6f79596bfb719df5a571ce8c339e9d7e9b3905324643a2b9fd541956552fc258e688303ecb25082776fde7334cdf046f70c8669a6a05c36909038278e925f0156be9ddb9b83786de8a325ab28e61d18397714bcda0fd5ca879c870d383721c638733b1f78074cc1079e72e0bbbad262348a8976eaaf313a261dccb69dbaf283beebcac7ac3b8166a4deb1fe5099a1c7f3ef595357e76ca260a703bec4848a3cc9804d6de6e5b853b54dd65979292f596ee132edf67eb948e4e4d22f9cb7629bf8b642cb921b2ed9b13e47cb06d6c6f4384c7b372ee7cb61f76a363f8fa68309e3d308179ad3e15fd752d6586e9030c8c1f274878bf7fbe1b569944fdda166c47411878f3702bbe1bbabbce8b10701076e0338bfa289d424c13f4f438474afd71abc18290e0a3c853537a13ce9869d3942c7b6802bfb0f345a9af828b961ca08439850fc4d1f7c27d71945f66093caf39123465c11c1f50d2d0c31aa6c8829ba05f15c595063ce2748af11db94a7009a1c82695d0eb07f4136d0789980b327bff"
                }
            ],
            "Shanghai" : [
                {
                    "hash" : "0x4f5b77f6018ce092801a5e5b510cc1a3a5d2a65c12e6a280b474f455a52849a1",
                    "indexes" : {
                        "data" : 0,
                        "gas" : 0,
                        "value" : 0
                    },
                    "logs" : "0x5c99d1f58e603f0a8e3d4bdfe4e572fb6020c3206cd413a26e17d308e1e3aa03",
                    "txbytes" : "0xf901ee800a847e6bc9f894095e7baea6a6c7c4c2dfeb977efac326af552d87845c4c6e38b9018776dd12f3185b84dfc71eb93f4df4ca30dcf34446f25793016424a5e33b6a65fb5d64a9394d7ebefb1c15de971a2d2f53377765d50c698d4e26adea05dd2f6a1688f60eb8b172d796a45c6f79596bfb719df5a571ce8c339e9d7e9b3905324643a2b9fd541956552fc258e688303ecb25082776fde7334cdf046f70c8669a6a05c36909038278e925f0156be9ddb9b83786de8a325ab28e61d18397714bcda0fd5ca879c870d383721c638733b1f78074cc1079e72e0bbbad262348a8976eaaf313a261dccb69dbaf283beebcac7ac3b8166a4deb1fe5099a1c7f3ef595357e76ca260a703bec4848a3cc9804d6de6e5b853b54dd65979292f596ee132edf67eb948e4e4d22f9cb7629bf8b642cb921b2ed9b13e47cb06d6c6f4384c7b372ee7cb61f76a363f8fa68309e3d308179ad3e15fd752d6586e9030c8c1f274878bf7fbe1b569944fdda166c47411878f3702bbe1bbabbce8b10701076e0338bfa289d424c13f4f438474afd71abc18290e0a3c853537a13ce9869d3942c7b6802bfb0f345a9af828b961ca08439850fc4d1f7c27d71945f66093caf39123465c11c1f50d2d0c31aa6c8829ba05f15c595063ce2748af11db94a7009a1c82695d0eb07f4136d0789980b327bff"
                }
            ]
        },
        "pre" : {
            "0x000f3df6d732807ef1319fb7b8bb8522d0beac02" : {
                "balance" : "0x00",
                "code" : "0x3373fffffffffffffffffffffffffffffffffffffffe14604d57602036146024575f5ffd5b5f35801560495762001fff810690815414603c575f5ffd5b62001fff01545f5260205ff35b5f5ffd5b62001fff42064281555f359062001fff015500",
                "nonce" : "0x01",
                "storage" : {
                }
            },
            "0x095e7baea6a6c7c4c2dfeb977efac326af552d87" : {
                "balance" : "0x00",
                "code" : "0x38785231d8e75db11d6da7040cee1a12ebf739e5022caa60f92d51636060b6d96d698fc0e9ced2f6a0087344559c43612f0561a73ba3600a600d6014600963186262c173095e7baea6a6c7c4c2dfeb977efac326af552d876370f82d9ff1604166f49ef1fea120af77ba4cce3f35bc52ca5c40bf14c77e95ea92e69520143ff9c7827bcfe760aee06d241e31a0773476da22f7ce8131475838c23b59f7a3c46b2b99c0955e169ee3527ca9f7674467bdf2c0eebf6f60129232",
                "nonce" : "0x00",
                "storage" : {
                }
            },
            "0x945304eb96065b2a98b57a48a06ae28d285a71b5" : {
                "balance" : "0x2e",
                "code" : "0x6000355415600957005b60203560003555",
                "nonce" : "0x00",
                "storage" : {
                }
            },
            "0xa94f5374fce5edbc8e2a8697c15331677e6ebf0b" : {
                "balance" : "0x0de0b6b3a7640000",
                "code" : "0x",
                "nonce" : "0x00",
                "storage" : {
                }
            }
        },
        "transaction" : {
            "data" : [
                "0x76dd12f3185b84dfc71eb93f4df4ca30dcf34446f25793016424a5e33b6a65fb5d64a9394d7ebefb1c15de971a2d2f53377765d50c698d4e26adea05dd2f6a1688f60eb8b172d796a45c6f79596bfb719df5a571ce8c339e9d7e9b3905324643a2b9fd541956552fc258e688303ecb25082776fde7334cdf046f70c8669a6a05c36909038278e925f0156be9ddb9b83786de8a325ab28e61d18397714bcda0fd5ca879c870d383721c638733b1f78074cc1079e72e0bbbad262348a8976eaaf313a261dccb69dbaf283beebcac7ac3b8166a4deb1fe5099a1c7f3ef595357e76ca260a703bec4848a3cc9804d6de6e5b853b54dd65979292f596ee132edf67eb948e4e4d22f9cb7629bf8b642cb921b2ed9b13e47cb06d6c6f4384c7b372ee7cb61f76a363f8fa68309e3d308179ad3e15fd752d6586e9030c8c1f274878bf7fbe1b569944fdda166c47411878f3702bbe1bbabbce8b10701076e0338bfa289d424c13f4f438474afd71abc18290e0a3c853537a13ce9869d3942c7b6802bfb0f345a9af828b96"
            ],
            "gasLimit" : [
                "0x7e6bc9f8"
            ],
            "gasPrice" : "0x0a",
            "nonce" : "0x00",
            "secretKey" : "0x45a915e4d060149eb4365960e6a7a45f334393093061116b197e3240065ff2d8",
            "sender" : "0xa94f5374fce5edbc8e2a8697c15331677e6ebf0b",
            "to" : "0x095e7baea6a6c7c4c2dfeb977efac326af552d87",
            "value" : [
                "0x5c4c6e38"
            ]
        }
    }
}