{
    "randomStatetest357" : {
        "_info" : {
            "comment" : "",
            "filling-rpc-server" : "evm version 1.13.11-unstable-765f2904-20240124",
            "filling-tool-version" : "retesteth-0.3.2-cancun+commit.ea13235b.Linux.g++",
            "generatedTestHash" : "0d61da0390bd0ae47738ab4db47217ea31a1103ca1c20491ca42c44960ab8178",
            "lllcversion" : "Version: 0.5.14-develop.2023.7.11+commit.c58ab2c6.mod.Linux.g++",
            "solidity" : "Version: 0.8.21+commit.d9974bed.Linux.g++",
            "source" : "src/GeneralStateTestsFiller/stRandom/randomStatetest357Filler.json",
            "sourceHash" : "00e36572a01a25401dd53437efaf9576bf8c6a79ebbc5708a64ee60eaf831d5d"
        },
        "env" : {
            "currentBaseFee" : "0x0a",
            "currentCoinbase" : "0x945304eb96065b2a98b57a48a06ae28d285a71b5",
            "currentDifficulty" : "0x020000",
            "currentExcessBlobGas" : "0x00",
            "currentGasLimit" : "0x7fffffffffffffff",
            "currentNumber" : "0x01",
            "currentRandom" : "0x0000000000000000000000000000000000000000000000000000000000020000",
            "currentTimestamp" : "0x03e8"
        },
        "post" : {
            "Berlin" : [
                {
                    "hash" : "0xfe0c31cadfae1aed7c58ed1f8f28ad04755b272082910aafe93fd2c5cdfbfd3b",
                    "indexes" : {
                        "data" : 0,
                        "gas" : 0,
                        "value" : 0
                    },
                    "logs" : "0x1dcc4de8dec75d7aab85b567b6ccd41ad312451b948a7413f0a142fd40d49347",
                    "txbytes" : "0xf90154800a84359eb7b494095e7baea6a6c7c4c2dfeb977efac326af552d87845a634cd2b8ee7f000000000000000000000000000000000000000000000000000000000000c3507f000000000000000000000000ffffffffffffffffffffffffffffffffffffffff7f00000000000000000000000100000000000000000000000000000000000000007f000000000000000000000000000000000000000000000000000000000000c350427fffffffffffffffffffffffffffffffffffffffffffffffffffffffffffffffff7fffffffffffffffffffffffffffffffffffffffffffffffffffffffffffffffff7fffffffffffffffffffffffffffffffffffffffffffffffffffffffffffffffff09377c5380711ba02ab9adbf933ea82559c127cf688532d1930b3d352748c2065a55759f5b84d750a07d9f53ffe4dd1d297b64738fee7f448a9523ff58f411595c9a148c3cfeee6c28"
                }
            ],
            "Cancun" : [
                {
                    "hash" : "0xd1eae421dd93c385f2687967729e9e2616efd4f0a33958dfb9750e6bfaf8a5f9",
                    "indexes" : {
                        "data" : 0,
                        "gas" : 0,
                        "value" : 0
                    },
                    "logs" : "0x1dcc4de8dec75d7aab85b567b6ccd41ad312451b948a7413f0a142fd40d49347",
                    "txbytes" : "0xf90154800a84359eb7b494095e7baea6a6c7c4c2dfeb977efac326af552d87845a634cd2b8ee7f000000000000000000000000000000000000000000000000000000000000c3507f000000000000000000000000ffffffffffffffffffffffffffffffffffffffff7f00000000000000000000000100000000000000000000000000000000000000007f000000000000000000000000000000000000000000000000000000000000c350427fffffffffffffffffffffffffffffffffffffffffffffffffffffffffffffffff7fffffffffffffffffffffffffffffffffffffffffffffffffffffffffffffffff7fffffffffffffffffffffffffffffffffffffffffffffffffffffffffffffffff09377c5380711ba02ab9adbf933ea82559c127cf688532d1930b3d352748c2065a55759f5b84d750a07d9f53ffe4dd1d297b64738fee7f448a9523ff58f411595c9a148c3cfeee6c28"
                }
            ],
            "Istanbul" : [
                {
                    "hash" : "0xfe0c31cadfae1aed7c58ed1f8f28ad04755b272082910aafe93fd2c5cdfbfd3b",
                    "indexes" : {
                        "data" : 0,
                        "gas" : 0,
                        "value" : 0
                    },
                    "logs" : "0x1dcc4de8dec75d7aab85b567b6ccd41ad312451b948a7413f0a142fd40d49347",
                    "txbytes" : "0xf90154800a84359eb7b494095e7baea6a6c7c4c2dfeb977efac326af552d87845a634cd2b8ee7f000000000000000000000000000000000000000000000000000000000000c3507f000000000000000000000000ffffffffffffffffffffffffffffffffffffffff7f00000000000000000000000100000000000000000000000000000000000000007f000000000000000000000000000000000000000000000000000000000000c350427fffffffffffffffffffffffffffffffffffffffffffffffffffffffffffffffff7fffffffffffffffffffffffffffffffffffffffffffffffffffffffffffffffff7fffffffffffffffffffffffffffffffffffffffffffffffffffffffffffffffff09377c5380711ba02ab9adbf933ea82559c127cf688532d1930b3d352748c2065a55759f5b84d750a07d9f53ffe4dd1d297b64738fee7f448a9523ff58f411595c9a148c3cfeee6c28"
                }
            ],
            "London" : [
                {
                    "hash" : "0xd1eae421dd93c385f2687967729e9e2616efd4f0a33958dfb9750e6bfaf8a5f9",
                    "indexes" : {
                        "data" : 0,
                        "gas" : 0,
                        "value" : 0
                    },
                    "logs" : "0x1dcc4de8dec75d7aab85b567b6ccd41ad312451b948a7413f0a142fd40d49347",
                    "txbytes" : "0xf90154800a84359eb7b494095e7baea6a6c7c4c2dfeb977efac326af552d87845a634cd2b8ee7f000000000000000000000000000000000000000000000000000000000000c3507f000000000000000000000000ffffffffffffffffffffffffffffffffffffffff7f00000000000000000000000100000000000000000000000000000000000000007f000000000000000000000000000000000000000000000000000000000000c350427fffffffffffffffffffffffffffffffffffffffffffffffffffffffffffffffff7fffffffffffffffffffffffffffffffffffffffffffffffffffffffffffffffff7fffffffffffffffffffffffffffffffffffffffffffffffffffffffffffffffff09377c5380711ba02ab9adbf933ea82559c127cf688532d1930b3d352748c2065a55759f5b84d750a07d9f53ffe4dd1d297b64738fee7f448a9523ff58f411595c9a148c3cfeee6c28"
                }
            ],
            "Paris" : [
                {
                    "hash" : "0xd1eae421dd93c385f2687967729e9e2616efd4f0a33958dfb9750e6bfaf8a5f9",
                    "indexes" : {
                        "data" : 0,
                        "gas" : 0,
                        "value" : 0
                    },
                    "logs" : "0x1dcc4de8dec75d7aab85b567b6ccd41ad312451b948a7413f0a142fd40d49347",
                    "txbytes" : "0xf90154800a84359eb7b494095e7baea6a6c7c4c2dfeb977efac326af552d87845a634cd2b8ee7f000000000000000000000000000000000000000000000000000000000000c3507f000000000000000000000000ffffffffffffffffffffffffffffffffffffffff7f00000000000000000000000100000000000000000000000000000000000000007f000000000000000000000000000000000000000000000000000000000000c350427fffffffffffffffffffffffffffffffffffffffffffffffffffffffffffffffff7fffffffffffffffffffffffffffffffffffffffffffffffffffffffffffffffff7fffffffffffffffffffffffffffffffffffffffffffffffffffffffffffffffff09377c5380711ba02ab9adbf933ea82559c127cf688532d1930b3d352748c2065a55759f5b84d750a07d9f53ffe4dd1d297b64738fee7f448a9523ff58f411595c9a148c3cfeee6c28"
                }
            ],
            "Shanghai" : [
                {
                    "hash" : "0xd1eae421dd93c385f2687967729e9e2616efd4f0a33958dfb9750e6bfaf8a5f9",
                    "indexes" : {
                        "data" : 0,
                        "gas" : 0,
                        "value" : 0
                    },
                    "logs" : "0x1dcc4de8dec75d7aab85b567b6ccd41ad312451b948a7413f0a142fd40d49347",
                    "txbytes" : "0xf90154800a84359eb7b494095e7baea6a6c7c4c2dfeb977efac326af552d87845a634cd2b8ee7f000000000000000000000000000000000000000000000000000000000000c3507f000000000000000000000000ffffffffffffffffffffffffffffffffffffffff7f00000000000000000000000100000000000000000000000000000000000000007f000000000000000000000000000000000000000000000000000000000000c350427fffffffffffffffffffffffffffffffffffffffffffffffffffffffffffffffff7fffffffffffffffffffffffffffffffffffffffffffffffffffffffffffffffff7fffffffffffffffffffffffffffffffffffffffffffffffffffffffffffffffff09377c5380711ba02ab9adbf933ea82559c127cf688532d1930b3d352748c2065a55759f5b84d750a07d9f53ffe4dd1d297b64738fee7f448a9523ff58f411595c9a148c3cfeee6c28"
                }
            ]
        },
        "pre" : {
            "0x095e7baea6a6c7c4c2dfeb977efac326af552d87" : {
                "balance" : "0x00",
                "code" : "0x7f000000000000000000000000000000000000000000000000000000000000c3507f000000000000000000000000ffffffffffffffffffffffffffffffffffffffff7f00000000000000000000000100000000000000000000000000000000000000007f000000000000000000000000000000000000000000000000000000000000c350427fffffffffffffffffffffffffffffffffffffffffffffffffffffffffffffffff7fffffffffffffffffffffffffffffffffffffffffffffffffffffffffffffffff7fffffffffffffffffffffffffffffffffffffffffffffffffffffffffffffffff09377c5380715560005155",
                "nonce" : "0x00",
                "storage" : {
                }
            },
            "0x945304eb96065b2a98b57a48a06ae28d285a71b5" : {
                "balance" : "0x2e",
                "code" : "0x6000355415600957005b60203560003555",
                "nonce" : "0x00",
                "storage" : {
                }
            },
            "0xa94f5374fce5edbc8e2a8697c15331677e6ebf0b" : {
                "balance" : "0x0de0b6b3a7640000",
                "code" : "0x",
                "nonce" : "0x00",
                "storage" : {
                }
            }
        },
        "transaction" : {
            "data" : [
                "0x7f000000000000000000000000000000000000000000000000000000000000c3507f000000000000000000000000ffffffffffffffffffffffffffffffffffffffff7f00000000000000000000000100000000000000000000000000000000000000007f000000000000000000000000000000000000000000000000000000000000c350427fffffffffffffffffffffffffffffffffffffffffffffffffffffffffffffffff7fffffffffffffffffffffffffffffffffffffffffffffffffffffffffffffffff7fffffffffffffffffffffffffffffffffffffffffffffffffffffffffffffffff09377c538071"
            ],
            "gasLimit" : [
                "0x359eb7b4"
            ],
            "gasPrice" : "0x0a",
            "nonce" : "0x00",
            "secretKey" : "0x45a915e4d060149eb4365960e6a7a45f334393093061116b197e3240065ff2d8",
            "sender" : "0xa94f5374fce5edbc8e2a8697c15331677e6ebf0b",
            "to" : "0x095e7baea6a6c7c4c2dfeb977efac326af552d87",
            "value" : [
                "0x5a634cd2"
            ]
        }
    }
}