{
    "randomStatetest198" : {
        "_info" : {
            "comment" : "",
            "filling-rpc-server" : "evm version 1.13.13-unstable-034bc466-20240219",
            "filling-tool-version" : "retesteth-0.3.2-cancun+commit.014a68a5.Linux.g++",
            "generatedTestHash" : "5e8de79b45b3e6b81daac25540f020526a9c62f56be2aaf61c95c44e4b2a39a9",
            "lllcversion" : "Version: 0.5.14-develop.2023.7.11+commit.c58ab2c6.mod.Linux.g++",
            "solidity" : "Version: 0.8.21+commit.d9974bed.Linux.g++",
            "source" : "src/GeneralStateTestsFiller/stRandom/randomStatetest198Filler.json",
            "sourceHash" : "61ff3e6880a0c244c2415d0f54a2298a356231507fd71a68818f1dffe2723ccf"
        },
        "env" : {
            "currentBaseFee" : "0x0a",
            "currentCoinbase" : "0x945304eb96065b2a98b57a48a06ae28d285a71b5",
            "currentDifficulty" : "0x020000",
            "currentExcessBlobGas" : "0x00",
            "currentGasLimit" : "0x7fffffffffffffff",
            "currentNumber" : "0x01",
            "currentRandom" : "0x0000000000000000000000000000000000000000000000000000000000020000",
            "currentTimestamp" : "0x03e8"
        },
        "post" : {
            "Berlin" : [
                {
                    "hash" : "0x4865997e0b05200ae974ad2bb6e9be4c6a4904ef6adac32370f1a163295c431c",
                    "indexes" : {
                        "data" : 0,
                        "gas" : 0,
                        "value" : 0
                    },
                    "logs" : "0x1dcc4de8dec75d7aab85b567b6ccd41ad312451b948a7413f0a142fd40d49347",
                    "txbytes" : "0xf9013b800a8445b9fb1b94095e7baea6a6c7c4c2dfeb977efac326af552d878439b58405b8d542417ffffffffffffffffffffffffffffffffffffffffffffffffffffffffffffffffe7f00000000000000000000000000000000000000000000000000000000000000017ffffffffffffffffffffffffffffffffffffffffffffffffffffffffffffffffe7f000000000000000000000000ffffffffffffffffffffffffffffffffffffffff7f000000000000000000000000ffffffffffffffffffffffffffffffffffffffff7f000000000000000000000000ffffffffffffffffffffffffffffffffffffffff09ff614044129a0169a26894151ba0ef381ecf3f9ff5f8163a5bbfa5d3be70bcf797235119530b0d57df97ae13499aa040c82d7c3d24a3c642f43b9836e831c0ef774b69dea330c8a5091fb8a499fbdc"
                }
            ],
            "Cancun" : [
                {
                    "hash" : "0xeb95bd1f20598a9f89b2bbe3868dc7b88c83b600f53c40a0469eb4b3053d37cc",
                    "indexes" : {
                        "data" : 0,
                        "gas" : 0,
                        "value" : 0
                    },
                    "logs" : "0x1dcc4de8dec75d7aab85b567b6ccd41ad312451b948a7413f0a142fd40d49347",
                    "txbytes" : "0xf9013b800a8445b9fb1b94095e7baea6a6c7c4c2dfeb977efac326af552d878439b58405b8d542417ffffffffffffffffffffffffffffffffffffffffffffffffffffffffffffffffe7f00000000000000000000000000000000000000000000000000000000000000017ffffffffffffffffffffffffffffffffffffffffffffffffffffffffffffffffe7f000000000000000000000000ffffffffffffffffffffffffffffffffffffffff7f000000000000000000000000ffffffffffffffffffffffffffffffffffffffff7f000000000000000000000000ffffffffffffffffffffffffffffffffffffffff09ff614044129a0169a26894151ba0ef381ecf3f9ff5f8163a5bbfa5d3be70bcf797235119530b0d57df97ae13499aa040c82d7c3d24a3c642f43b9836e831c0ef774b69dea330c8a5091fb8a499fbdc"
                }
            ],
            "Istanbul" : [
                {
                    "hash" : "0xe0b12e40a923a6ef6e59cbe5de7171580522655246ef25d17c11cea14894f8be",
                    "indexes" : {
                        "data" : 0,
                        "gas" : 0,
                        "value" : 0
                    },
                    "logs" : "0x1dcc4de8dec75d7aab85b567b6ccd41ad312451b948a7413f0a142fd40d49347",
                    "txbytes" : "0xf9013b800a8445b9fb1b94095e7baea6a6c7c4c2dfeb977efac326af552d878439b58405b8d542417ffffffffffffffffffffffffffffffffffffffffffffffffffffffffffffffffe7f00000000000000000000000000000000000000000000000000000000000000017ffffffffffffffffffffffffffffffffffffffffffffffffffffffffffffffffe7f000000000000000000000000ffffffffffffffffffffffffffffffffffffffff7f000000000000000000000000ffffffffffffffffffffffffffffffffffffffff7f000000000000000000000000ffffffffffffffffffffffffffffffffffffffff09ff614044129a0169a26894151ba0ef381ecf3f9ff5f8163a5bbfa5d3be70bcf797235119530b0d57df97ae13499aa040c82d7c3d24a3c642f43b9836e831c0ef774b69dea330c8a5091fb8a499fbdc"
                }
            ],
            "London" : [
                {
                    "hash" : "0x73800743a0210fdf6f5ed172f764b7f21f6c422d6e940ac143d96f0fd6278638",
                    "indexes" : {
                        "data" : 0,
                        "gas" : 0,
                        "value" : 0
                    },
                    "logs" : "0x1dcc4de8dec75d7aab85b567b6ccd41ad312451b948a7413f0a142fd40d49347",
                    "txbytes" : "0xf9013b800a8445b9fb1b94095e7baea6a6c7c4c2dfeb977efac326af552d878439b58405b8d542417ffffffffffffffffffffffffffffffffffffffffffffffffffffffffffffffffe7f00000000000000000000000000000000000000000000000000000000000000017ffffffffffffffffffffffffffffffffffffffffffffffffffffffffffffffffe7f000000000000000000000000ffffffffffffffffffffffffffffffffffffffff7f000000000000000000000000ffffffffffffffffffffffffffffffffffffffff7f000000000000000000000000ffffffffffffffffffffffffffffffffffffffff09ff614044129a0169a26894151ba0ef381ecf3f9ff5f8163a5bbfa5d3be70bcf797235119530b0d57df97ae13499aa040c82d7c3d24a3c642f43b9836e831c0ef774b69dea330c8a5091fb8a499fbdc"
                }
            ],
            "Paris" : [
                {
                    "hash" : "0x73800743a0210fdf6f5ed172f764b7f21f6c422d6e940ac143d96f0fd6278638",
                    "indexes" : {
                        "data" : 0,
                        "gas" : 0,
                        "value" : 0
                    },
                    "logs" : "0x1dcc4de8dec75d7aab85b567b6ccd41ad312451b948a7413f0a142fd40d49347",
                    "txbytes" : "0xf9013b800a8445b9fb1b94095e7baea6a6c7c4c2dfeb977efac326af552d878439b58405b8d542417ffffffffffffffffffffffffffffffffffffffffffffffffffffffffffffffffe7f00000000000000000000000000000000000000000000000000000000000000017ffffffffffffffffffffffffffffffffffffffffffffffffffffffffffffffffe7f000000000000000000000000ffffffffffffffffffffffffffffffffffffffff7f000000000000000000000000ffffffffffffffffffffffffffffffffffffffff7f000000000000000000000000ffffffffffffffffffffffffffffffffffffffff09ff614044129a0169a26894151ba0ef381ecf3f9ff5f8163a5bbfa5d3be70bcf797235119530b0d57df97ae13499aa040c82d7c3d24a3c642f43b9836e831c0ef774b69dea330c8a5091fb8a499fbdc"
                }
            ],
            "Shanghai" : [
                {
                    "hash" : "0x73800743a0210fdf6f5ed172f764b7f21f6c422d6e940ac143d96f0fd6278638",
                    "indexes" : {
                        "data" : 0,
                        "gas" : 0,
                        "value" : 0
                    },
                    "logs" : "0x1dcc4de8dec75d7aab85b567b6ccd41ad312451b948a7413f0a142fd40d49347",
                    "txbytes" : "0xf9013b800a8445b9fb1b94095e7baea6a6c7c4c2dfeb977efac326af552d878439b58405b8d542417ffffffffffffffffffffffffffffffffffffffffffffffffffffffffffffffffe7f00000000000000000000000000000000000000000000000000000000000000017ffffffffffffffffffffffffffffffffffffffffffffffffffffffffffffffffe7f000000000000000000000000ffffffffffffffffffffffffffffffffffffffff7f000000000000000000000000ffffffffffffffffffffffffffffffffffffffff7f000000000000000000000000ffffffffffffffffffffffffffffffffffffffff09ff614044129a0169a26894151ba0ef381ecf3f9ff5f8163a5bbfa5d3be70bcf797235119530b0d57df97ae13499aa040c82d7c3d24a3c642f43b9836e831c0ef774b69dea330c8a5091fb8a499fbdc"
                }
            ]
        },
        "pre" : {
            "0x000f3df6d732807ef1319fb7b8bb8522d0beac02" : {
                "balance" : "0x00",
                "code" : "0x3373fffffffffffffffffffffffffffffffffffffffe14604d57602036146024575f5ffd5b5f35801560495762001fff810690815414603c575f5ffd5b62001fff01545f5260205ff35b5f5ffd5b62001fff42064281555f359062001fff015500",
                "nonce" : "0x01",
                "storage" : {
                }
            },
            "0x095e7baea6a6c7c4c2dfeb977efac326af552d87" : {
                "balance" : "0x00",
                "code" : "0x42417ffffffffffffffffffffffffffffffffffffffffffffffffffffffffffffffffe7f00000000000000000000000000000000000000000000000000000000000000017ffffffffffffffffffffffffffffffffffffffffffffffffffffffffffffffffe7f000000000000000000000000ffffffffffffffffffffffffffffffffffffffff7f000000000000000000000000ffffffffffffffffffffffffffffffffffffffff7f000000000000000000000000ffffffffffffffffffffffffffffffffffffffff09ff614044129a0169a2689415",
                "nonce" : "0x00",
                "storage" : {
                }
            },
            "0x945304eb96065b2a98b57a48a06ae28d285a71b5" : {
                "balance" : "0x2e",
                "code" : "0x6000355415600957005b60203560003555",
                "nonce" : "0x00",
                "storage" : {
                }
            },
            "0xa94f5374fce5edbc8e2a8697c15331677e6ebf0b" : {
                "balance" : "0x0de0b6b3a7640000",
                "code" : "0x",
                "nonce" : "0x00",
                "storage" : {
                }
            }
        },
        "transaction" : {
            "data" : [
                "0x42417ffffffffffffffffffffffffffffffffffffffffffffffffffffffffffffffffe7f00000000000000000000000000000000000000000000000000000000000000017ffffffffffffffffffffffffffffffffffffffffffffffffffffffffffffffffe7f000000000000000000000000ffffffffffffffffffffffffffffffffffffffff7f000000000000000000000000ffffffffffffffffffffffffffffffffffffffff7f000000000000000000000000ffffffffffffffffffffffffffffffffffffffff09ff614044129a0169a2689415"
            ],
            "gasLimit" : [
                "0x45b9fb1b"
            ],
            "gasPrice" : "0x0a",
            "nonce" : "0x00",
            "secretKey" : "0x45a915e4d060149eb4365960e6a7a45f334393093061116b197e3240065ff2d8",
            "sender" : "0xa94f5374fce5edbc8e2a8697c15331677e6ebf0b",
            "to" : "0x095e7baea6a6c7c4c2dfeb977efac326af552d87",
            "value" : [
                "0x39b58405"
            ]
        }
    }
}