{
    "randomStatetest293" : {
        "_info" : {
            "comment" : "",
            "filling-rpc-server" : "evm version 1.11.4-unstable-e14043db-20230308",
            "filling-tool-version" : "retesteth-0.3.0-shanghai+commit.fd2c0a83.Linux.g++",
            "generatedTestHash" : "81d32eb0fc29e31c1e62fa1425ff4f1f0bf60811986fe450d4bf90050886e15d",
            "lllcversion" : "Version: 0.5.14-develop.2022.7.30+commit.a096d7a9.Linux.g++",
            "solidity" : "Version: 0.8.17+commit.8df45f5f.Linux.g++",
            "source" : "src/GeneralStateTestsFiller/stRandom/randomStatetest293Filler.json",
            "sourceHash" : "dfaad26553e0ea90506db99f66c7b8dcbec80d7722f9c628d1ea2c797dff80d5"
        },
        "env" : {
            "currentBaseFee" : "0x0a",
            "currentCoinbase" : "0x945304eb96065b2a98b57a48a06ae28d285a71b5",
            "currentDifficulty" : "0x020000",
            "currentGasLimit" : "0x7fffffffffffffff",
            "currentNumber" : "0x01",
            "currentRandom" : "0x0000000000000000000000000000000000000000000000000000000000020000",
            "currentTimestamp" : "0x03e8",
            "previousHash" : "0x5e20a0453cecd065ea59c37ac63e079ee08998b6045136a8ce6635c7912ec0b6"
        },
        "post" : {
            "Berlin" : [
                {
                    "hash" : "0xb6014a5f6f5ebc8da7a25a07dc9689ded893f79b4e7ba6ab8444489afbbed90b",
                    "indexes" : {
                        "data" : 0,
                        "gas" : 0,
                        "value" : 0
                    },
                    "logs" : "0x1dcc4de8dec75d7aab85b567b6ccd41ad312451b948a7413f0a142fd40d49347",
                    "txbytes" : "0xf8fd800a840d2d827e94095e7baea6a6c7c4c2dfeb977efac326af552d87843cf6d3a7b8977f00000000000000000000000100000000000000000000000000000000000000007ffffffffffffffffffffffffffffffffffffffffffffffffffffffffffffffffe417f00000000000000000000000000000000000000000000000000000000000000007ffffffffffffffffffffffffffffffffffffffffffffffffffffffffffffffffe6f458962699489837460090897f3056682841ca09404e0b378cce5dee576e76e54cb4ce882aa2e096cb2d3997236ac63dacc9667a065a25495db9cde482729c25c49311c6877fe1b231c42ddab82dcc27889270a55"
                }
            ],
            "Istanbul" : [
                {
                    "hash" : "0x55fad01fb4a875fd0f3bff6d3bba7596c3303cb1a3a806dceaac327ffeb3a5c5",
                    "indexes" : {
                        "data" : 0,
                        "gas" : 0,
                        "value" : 0
                    },
                    "logs" : "0x1dcc4de8dec75d7aab85b567b6ccd41ad312451b948a7413f0a142fd40d49347",
                    "txbytes" : "0xf8fd800a840d2d827e94095e7baea6a6c7c4c2dfeb977efac326af552d87843cf6d3a7b8977f00000000000000000000000100000000000000000000000000000000000000007ffffffffffffffffffffffffffffffffffffffffffffffffffffffffffffffffe417f00000000000000000000000000000000000000000000000000000000000000007ffffffffffffffffffffffffffffffffffffffffffffffffffffffffffffffffe6f458962699489837460090897f3056682841ca09404e0b378cce5dee576e76e54cb4ce882aa2e096cb2d3997236ac63dacc9667a065a25495db9cde482729c25c49311c6877fe1b231c42ddab82dcc27889270a55"
                }
            ],
            "London" : [
                {
                    "hash" : "0x65ad9ac8c8fd7a34647e9e9b90f4615d444e7d5646c2d2c8716aeaa889c69daf",
                    "indexes" : {
                        "data" : 0,
                        "gas" : 0,
                        "value" : 0
                    },
                    "logs" : "0x1dcc4de8dec75d7aab85b567b6ccd41ad312451b948a7413f0a142fd40d49347",
                    "txbytes" : "0xf8fd800a840d2d827e94095e7baea6a6c7c4c2dfeb977efac326af552d87843cf6d3a7b8977f00000000000000000000000100000000000000000000000000000000000000007ffffffffffffffffffffffffffffffffffffffffffffffffffffffffffffffffe417f00000000000000000000000000000000000000000000000000000000000000007ffffffffffffffffffffffffffffffffffffffffffffffffffffffffffffffffe6f458962699489837460090897f3056682841ca09404e0b378cce5dee576e76e54cb4ce882aa2e096cb2d3997236ac63dacc9667a065a25495db9cde482729c25c49311c6877fe1b231c42ddab82dcc27889270a55"
                }
            ],
            "Merge" : [
                {
                    "hash" : "0x65ad9ac8c8fd7a34647e9e9b90f4615d444e7d5646c2d2c8716aeaa889c69daf",
                    "indexes" : {
                        "data" : 0,
                        "gas" : 0,
                        "value" : 0
                    },
                    "logs" : "0x1dcc4de8dec75d7aab85b567b6ccd41ad312451b948a7413f0a142fd40d49347",
                    "txbytes" : "0xf8fd800a840d2d827e94095e7baea6a6c7c4c2dfeb977efac326af552d87843cf6d3a7b8977f00000000000000000000000100000000000000000000000000000000000000007ffffffffffffffffffffffffffffffffffffffffffffffffffffffffffffffffe417f00000000000000000000000000000000000000000000000000000000000000007ffffffffffffffffffffffffffffffffffffffffffffffffffffffffffffffffe6f458962699489837460090897f3056682841ca09404e0b378cce5dee576e76e54cb4ce882aa2e096cb2d3997236ac63dacc9667a065a25495db9cde482729c25c49311c6877fe1b231c42ddab82dcc27889270a55"
                }
            ],
            "Shanghai" : [
                {
                    "hash" : "0x65ad9ac8c8fd7a34647e9e9b90f4615d444e7d5646c2d2c8716aeaa889c69daf",
                    "indexes" : {
                        "data" : 0,
                        "gas" : 0,
                        "value" : 0
                    },
                    "logs" : "0x1dcc4de8dec75d7aab85b567b6ccd41ad312451b948a7413f0a142fd40d49347",
                    "txbytes" : "0xf8fd800a840d2d827e94095e7baea6a6c7c4c2dfeb977efac326af552d87843cf6d3a7b8977f00000000000000000000000100000000000000000000000000000000000000007ffffffffffffffffffffffffffffffffffffffffffffffffffffffffffffffffe417f00000000000000000000000000000000000000000000000000000000000000007ffffffffffffffffffffffffffffffffffffffffffffffffffffffffffffffffe6f458962699489837460090897f3056682841ca09404e0b378cce5dee576e76e54cb4ce882aa2e096cb2d3997236ac63dacc9667a065a25495db9cde482729c25c49311c6877fe1b231c42ddab82dcc27889270a55"
                }
            ]
        },
        "pre" : {
            "0x095e7baea6a6c7c4c2dfeb977efac326af552d87" : {
                "balance" : "0x00",
                "code" : "0x7f00000000000000000000000100000000000000000000000000000000000000007ffffffffffffffffffffffffffffffffffffffffffffffffffffffffffffffffe417f00000000000000000000000000000000000000000000000000000000000000007ffffffffffffffffffffffffffffffffffffffffffffffffffffffffffffffffe6f458962699489837460090897f3056682845560005155",
                "nonce" : "0x00",
                "storage" : {
                }
            },
            "0x945304eb96065b2a98b57a48a06ae28d285a71b5" : {
                "balance" : "0x2e",
                "code" : "0x6000355415600957005b60203560003555",
                "nonce" : "0x00",
                "storage" : {
                }
            },
            "0xa94f5374fce5edbc8e2a8697c15331677e6ebf0b" : {
                "balance" : "0x0de0b6b3a7640000",
                "code" : "0x",
                "nonce" : "0x00",
                "storage" : {
                }
            }
        },
        "transaction" : {
            "data" : [
                "0x7f00000000000000000000000100000000000000000000000000000000000000007ffffffffffffffffffffffffffffffffffffffffffffffffffffffffffffffffe417f00000000000000000000000000000000000000000000000000000000000000007ffffffffffffffffffffffffffffffffffffffffffffffffffffffffffffffffe6f458962699489837460090897f305668284"
            ],
            "gasLimit" : [
                "0x0d2d827e"
            ],
            "gasPrice" : "0x0a",
            "nonce" : "0x00",
            "secretKey" : "0x45a915e4d060149eb4365960e6a7a45f334393093061116b197e3240065ff2d8",
            "sender" : "0xa94f5374fce5edbc8e2a8697c15331677e6ebf0b",
            "to" : "0x095e7baea6a6c7c4c2dfeb977efac326af552d87",
            "value" : [
                "0x3cf6d3a7"
            ]
        }
    }
}