{
    "randomStatetest216" : {
        "_info" : {
            "comment" : "",
            "filling-rpc-server" : "evm version 1.13.13-unstable-034bc466-20240219",
            "filling-tool-version" : "retesteth-0.3.2-cancun+commit.014a68a5.Linux.g++",
            "generatedTestHash" : "f59446203307f2312141d7924264a73c634e239117c547908bf2993b7797fccd",
            "lllcversion" : "Version: 0.5.14-develop.2023.7.11+commit.c58ab2c6.mod.Linux.g++",
            "solidity" : "Version: 0.8.21+commit.d9974bed.Linux.g++",
            "source" : "src/GeneralStateTestsFiller/stRandom/randomStatetest216Filler.json",
            "sourceHash" : "8adbc15bea286be15d033b54d1355916ede46649979ed702a7049e0f7ff9eac6"
        },
        "env" : {
            "currentBaseFee" : "0x0a",
            "currentCoinbase" : "0x945304eb96065b2a98b57a48a06ae28d285a71b5",
            "currentDifficulty" : "0x020000",
            "currentExcessBlobGas" : "0x00",
            "currentGasLimit" : "0x7fffffffffffffff",
            "currentNumber" : "0x01",
            "currentRandom" : "0x0000000000000000000000000000000000000000000000000000000000020000",
            "currentTimestamp" : "0x03e8"
        },
        "post" : {
            "Berlin" : [
                {
                    "hash" : "0xba7f85629abeb6e2cfab8c604d5d84702f75d12a670c994671dd54d403ca8c85",
                    "indexes" : {
                        "data" : 0,
                        "gas" : 0,
                        "value" : 0
                    },
                    "logs" : "0x1dcc4de8dec75d7aab85b567b6ccd41ad312451b948a7413f0a142fd40d49347",
                    "txbytes" : "0xf9015c800a8408befbe794095e7baea6a6c7c4c2dfeb977efac326af552d8784288181ddb8f67f00000000000000000000000000000000000000000000000000000000000000007f000000000000000000000000000000000000000000000000000000000000c3507f000000000000000000000000000000000000000000000000000000000000c350447f000000000000000000000000945304eb96065b2a98b57a48a06ae28d285a71b57f000000000000000000000000000000000000000000000000000000000000c3507ffffffffffffffffffffffffffffffffffffffffffffffffffffffffffffffffe7f000000000000000000000000000000000000000000000000000000000000c3506d766d67fe0785320899130644941ba0b4302dea2e53056142e18ea358bc0b09ef11d52ccef4e79da57e785b1586cb25a00304fc6b7de91029f430fedba889c4affd7d871b8c4b54558750ba59f6b3a5f6"
                }
            ],
            "Cancun" : [
                {
                    "hash" : "0x0e0056505053f70683ac22338c8ae98e63e2e3a14c17a42cd7af8d0b4fdf3efb",
                    "indexes" : {
                        "data" : 0,
                        "gas" : 0,
                        "value" : 0
                    },
                    "logs" : "0x1dcc4de8dec75d7aab85b567b6ccd41ad312451b948a7413f0a142fd40d49347",
                    "txbytes" : "0xf9015c800a8408befbe794095e7baea6a6c7c4c2dfeb977efac326af552d8784288181ddb8f67f00000000000000000000000000000000000000000000000000000000000000007f000000000000000000000000000000000000000000000000000000000000c3507f000000000000000000000000000000000000000000000000000000000000c350447f000000000000000000000000945304eb96065b2a98b57a48a06ae28d285a71b57f000000000000000000000000000000000000000000000000000000000000c3507ffffffffffffffffffffffffffffffffffffffffffffffffffffffffffffffffe7f000000000000000000000000000000000000000000000000000000000000c3506d766d67fe0785320899130644941ba0b4302dea2e53056142e18ea358bc0b09ef11d52ccef4e79da57e785b1586cb25a00304fc6b7de91029f430fedba889c4affd7d871b8c4b54558750ba59f6b3a5f6"
                }
            ],
            "Istanbul" : [
                {
                    "hash" : "0xc8a8fad7a8dc53cc434e3030e5bcc3f47869bba3757748881a6f402bcf7f4200",
                    "indexes" : {
                        "data" : 0,
                        "gas" : 0,
                        "value" : 0
                    },
                    "logs" : "0x1dcc4de8dec75d7aab85b567b6ccd41ad312451b948a7413f0a142fd40d49347",
                    "txbytes" : "0xf9015c800a8408befbe794095e7baea6a6c7c4c2dfeb977efac326af552d8784288181ddb8f67f00000000000000000000000000000000000000000000000000000000000000007f000000000000000000000000000000000000000000000000000000000000c3507f000000000000000000000000000000000000000000000000000000000000c350447f000000000000000000000000945304eb96065b2a98b57a48a06ae28d285a71b57f000000000000000000000000000000000000000000000000000000000000c3507ffffffffffffffffffffffffffffffffffffffffffffffffffffffffffffffffe7f000000000000000000000000000000000000000000000000000000000000c3506d766d67fe0785320899130644941ba0b4302dea2e53056142e18ea358bc0b09ef11d52ccef4e79da57e785b1586cb25a00304fc6b7de91029f430fedba889c4affd7d871b8c4b54558750ba59f6b3a5f6"
                }
            ],
            "London" : [
                {
                    "hash" : "0xcbc599472b2e495d9ed3296825ef87ecf9c6f1204c04f006537b69b5a855775f",
                    "indexes" : {
                        "data" : 0,
                        "gas" : 0,
                        "value" : 0
                    },
                    "logs" : "0x1dcc4de8dec75d7aab85b567b6ccd41ad312451b948a7413f0a142fd40d49347",
                    "txbytes" : "0xf9015c800a8408befbe794095e7baea6a6c7c4c2dfeb977efac326af552d8784288181ddb8f67f00000000000000000000000000000000000000000000000000000000000000007f000000000000000000000000000000000000000000000000000000000000c3507f000000000000000000000000000000000000000000000000000000000000c350447f000000000000000000000000945304eb96065b2a98b57a48a06ae28d285a71b57f000000000000000000000000000000000000000000000000000000000000c3507ffffffffffffffffffffffffffffffffffffffffffffffffffffffffffffffffe7f000000000000000000000000000000000000000000000000000000000000c3506d766d67fe0785320899130644941ba0b4302dea2e53056142e18ea358bc0b09ef11d52ccef4e79da57e785b1586cb25a00304fc6b7de91029f430fedba889c4affd7d871b8c4b54558750ba59f6b3a5f6"
                }
            ],
            "Paris" : [
                {
                    "hash" : "0xcbc599472b2e495d9ed3296825ef87ecf9c6f1204c04f006537b69b5a855775f",
                    "indexes" : {
                        "data" : 0,
                        "gas" : 0,
                        "value" : 0
                    },
                    "logs" : "0x1dcc4de8dec75d7aab85b567b6ccd41ad312451b948a7413f0a142fd40d49347",
                    "txbytes" : "0xf9015c800a8408befbe794095e7baea6a6c7c4c2dfeb977efac326af552d8784288181ddb8f67f00000000000000000000000000000000000000000000000000000000000000007f000000000000000000000000000000000000000000000000000000000000c3507f000000000000000000000000000000000000000000000000000000000000c350447f000000000000000000000000945304eb96065b2a98b57a48a06ae28d285a71b57f000000000000000000000000000000000000000000000000000000000000c3507ffffffffffffffffffffffffffffffffffffffffffffffffffffffffffffffffe7f000000000000000000000000000000000000000000000000000000000000c3506d766d67fe0785320899130644941ba0b4302dea2e53056142e18ea358bc0b09ef11d52ccef4e79da57e785b1586cb25a00304fc6b7de91029f430fedba889c4affd7d871b8c4b54558750ba59f6b3a5f6"
                }
            ],
            "Shanghai" : [
                {
                    "hash" : "0xcbc599472b2e495d9ed3296825ef87ecf9c6f1204c04f006537b69b5a855775f",
                    "indexes" : {
                        "data" : 0,
                        "gas" : 0,
                        "value" : 0
                    },
                    "logs" : "0x1dcc4de8dec75d7aab85b567b6ccd41ad312451b948a7413f0a142fd40d49347",
                    "txbytes" : "0xf9015c800a8408befbe794095e7baea6a6c7c4c2dfeb977efac326af552d8784288181ddb8f67f00000000000000000000000000000000000000000000000000000000000000007f000000000000000000000000000000000000000000000000000000000000c3507f000000000000000000000000000000000000000000000000000000000000c350447f000000000000000000000000945304eb96065b2a98b57a48a06ae28d285a71b57f000000000000000000000000000000000000000000000000000000000000c3507ffffffffffffffffffffffffffffffffffffffffffffffffffffffffffffffffe7f000000000000000000000000000000000000000000000000000000000000c3506d766d67fe0785320899130644941ba0b4302dea2e53056142e18ea358bc0b09ef11d52ccef4e79da57e785b1586cb25a00304fc6b7de91029f430fedba889c4affd7d871b8c4b54558750ba59f6b3a5f6"
                }
            ]
        },
        "pre" : {
            "0x000f3df6d732807ef1319fb7b8bb8522d0beac02" : {
                "balance" : "0x00",
                "code" : "0x3373fffffffffffffffffffffffffffffffffffffffe14604d57602036146024575f5ffd5b5f35801560495762001fff810690815414603c575f5ffd5b62001fff01545f5260205ff35b5f5ffd5b62001fff42064281555f359062001fff015500",
                "nonce" : "0x01",
                "storage" : {
                }
            },
            "0x095e7baea6a6c7c4c2dfeb977efac326af552d87" : {
                "balance" : "0x00",
                "code" : "0x7f00000000000000000000000000000000000000000000000000000000000000007f000000000000000000000000000000000000000000000000000000000000c3507f000000000000000000000000000000000000000000000000000000000000c350447f000000000000000000000000945304eb96065b2a98b57a48a06ae28d285a71b57f000000000000000000000000000000000000000000000000000000000000c3507ffffffffffffffffffffffffffffffffffffffffffffffffffffffffffffffffe7f000000000000000000000000000000000000000000000000000000000000c3506d766d67fe0785320899130644945560005155",
                "nonce" : "0x00",
                "storage" : {
                }
            },
            "0x945304eb96065b2a98b57a48a06ae28d285a71b5" : {
                "balance" : "0x2e",
                "code" : "0x6000355415600957005b60203560003555",
                "nonce" : "0x00",
                "storage" : {
                }
            },
            "0xa94f5374fce5edbc8e2a8697c15331677e6ebf0b" : {
                "balance" : "0x0de0b6b3a7640000",
                "code" : "0x",
                "nonce" : "0x00",
                "storage" : {
                }
            }
        },
        "transaction" : {
            "data" : [
                "0x7f00000000000000000000000000000000000000000000000000000000000000007f000000000000000000000000000000000000000000000000000000000000c3507f000000000000000000000000000000000000000000000000000000000000c350447f000000000000000000000000945304eb96065b2a98b57a48a06ae28d285a71b57f000000000000000000000000000000000000000000000000000000000000c3507ffffffffffffffffffffffffffffffffffffffffffffffffffffffffffffffffe7f000000000000000000000000000000000000000000000000000000000000c3506d766d67fe078532089913064494"
            ],
            "gasLimit" : [
                "0x08befbe7"
            ],
            "gasPrice" : "0x0a",
            "nonce" : "0x00",
            "secretKey" : "0x45a915e4d060149eb4365960e6a7a45f334393093061116b197e3240065ff2d8",
            "sender" : "0xa94f5374fce5edbc8e2a8697c15331677e6ebf0b",
            "to" : "0x095e7baea6a6c7c4c2dfeb977efac326af552d87",
            "value" : [
                "0x288181dd"
            ]
        }
    }
}