{
    "randomStatetest28" : {
        "_info" : {
            "comment" : "",
            "filling-rpc-server" : "evm version 1.13.13-unstable-034bc466-20240219",
            "filling-tool-version" : "retesteth-0.3.2-cancun+commit.014a68a5.Linux.g++",
            "generatedTestHash" : "423aa5a600acaf89b61c36e2b41d4268656df99ebe2b6b57e09716f7818dfb2c",
            "lllcversion" : "Version: 0.5.14-develop.2023.7.11+commit.c58ab2c6.mod.Linux.g++",
            "solidity" : "Version: 0.8.21+commit.d9974bed.Linux.g++",
            "source" : "src/GeneralStateTestsFiller/stRandom/randomStatetest28Filler.json",
            "sourceHash" : "f5bf495361ae39d2fe5937b5e7928e3b1e1f24368b0729113f846d46563a47c5"
        },
        "env" : {
            "currentBaseFee" : "0x0a",
            "currentCoinbase" : "0x945304eb96065b2a98b57a48a06ae28d285a71b5",
            "currentDifficulty" : "0x020000",
            "currentExcessBlobGas" : "0x00",
            "currentGasLimit" : "0x7fffffffffffffff",
            "currentNumber" : "0x01",
            "currentRandom" : "0x0000000000000000000000000000000000000000000000000000000000020000",
            "currentTimestamp" : "0x03e8"
        },
        "post" : {
            "Berlin" : [
                {
                    "hash" : "0x708c8492cd96429e7f0e64005b3004d5152eca8b79441eff693e410ae0d5c1bd",
                    "indexes" : {
                        "data" : 0,
                        "gas" : 0,
                        "value" : 0
                    },
                    "logs" : "0x1dcc4de8dec75d7aab85b567b6ccd41ad312451b948a7413f0a142fd40d49347",
                    "txbytes" : "0xf9011e800a841996674b94095e7baea6a6c7c4c2dfeb977efac326af552d878451af41e7b8b87ffffffffffffffffffffffffffffffffffffffffffffffffffffffffffffffffe7fffffffffffffffffffffffffffffffffffffffffffffffffffffffffffffffff7fffffffffffffffffffffffffffffffffffffffffffffffffffffffffffffffff417f00000000000000000000000100000000000000000000000000000000000000007f000000000000000000000000945304eb96065b2a98b57a48a06ae28d285a71b56f38129d68939a19a2697172926f6a6736301ca0fd0e1538e65c7bb9f5c4a02d7ad051e995fa1a7a91dbb2f10d4495c61be46701a0102af8acdfd6473c5bcb6a4ecddfc07476fe5faf965d1d24b287108333d3189b"
                }
            ],
            "Cancun" : [
                {
                    "hash" : "0x32b0875beea40ebc25fd4e0726395840504a6813a8302ea2dd24b10545fa2197",
                    "indexes" : {
                        "data" : 0,
                        "gas" : 0,
                        "value" : 0
                    },
                    "logs" : "0x1dcc4de8dec75d7aab85b567b6ccd41ad312451b948a7413f0a142fd40d49347",
                    "txbytes" : "0xf9011e800a841996674b94095e7baea6a6c7c4c2dfeb977efac326af552d878451af41e7b8b87ffffffffffffffffffffffffffffffffffffffffffffffffffffffffffffffffe7fffffffffffffffffffffffffffffffffffffffffffffffffffffffffffffffff7fffffffffffffffffffffffffffffffffffffffffffffffffffffffffffffffff417f00000000000000000000000100000000000000000000000000000000000000007f000000000000000000000000945304eb96065b2a98b57a48a06ae28d285a71b56f38129d68939a19a2697172926f6a6736301ca0fd0e1538e65c7bb9f5c4a02d7ad051e995fa1a7a91dbb2f10d4495c61be46701a0102af8acdfd6473c5bcb6a4ecddfc07476fe5faf965d1d24b287108333d3189b"
                }
            ],
            "Istanbul" : [
                {
                    "hash" : "0xcfef4a9b22e6d1700a4722e8ead0a61cd706ad8bdb9dfdbd30f3701ad929fa65",
                    "indexes" : {
                        "data" : 0,
                        "gas" : 0,
                        "value" : 0
                    },
                    "logs" : "0x1dcc4de8dec75d7aab85b567b6ccd41ad312451b948a7413f0a142fd40d49347",
                    "txbytes" : "0xf9011e800a841996674b94095e7baea6a6c7c4c2dfeb977efac326af552d878451af41e7b8b87ffffffffffffffffffffffffffffffffffffffffffffffffffffffffffffffffe7fffffffffffffffffffffffffffffffffffffffffffffffffffffffffffffffff7fffffffffffffffffffffffffffffffffffffffffffffffffffffffffffffffff417f00000000000000000000000100000000000000000000000000000000000000007f000000000000000000000000945304eb96065b2a98b57a48a06ae28d285a71b56f38129d68939a19a2697172926f6a6736301ca0fd0e1538e65c7bb9f5c4a02d7ad051e995fa1a7a91dbb2f10d4495c61be46701a0102af8acdfd6473c5bcb6a4ecddfc07476fe5faf965d1d24b287108333d3189b"
                }
            ],
            "London" : [
                {
                    "hash" : "0x704e771769125d8e37dd6336765eac8a259decde816cf1a344e64312755bdfea",
                    "indexes" : {
                        "data" : 0,
                        "gas" : 0,
                        "value" : 0
                    },
                    "logs" : "0x1dcc4de8dec75d7aab85b567b6ccd41ad312451b948a7413f0a142fd40d49347",
                    "txbytes" : "0xf9011e800a841996674b94095e7baea6a6c7c4c2dfeb977efac326af552d878451af41e7b8b87ffffffffffffffffffffffffffffffffffffffffffffffffffffffffffffffffe7fffffffffffffffffffffffffffffffffffffffffffffffffffffffffffffffff7fffffffffffffffffffffffffffffffffffffffffffffffffffffffffffffffff417f00000000000000000000000100000000000000000000000000000000000000007f000000000000000000000000945304eb96065b2a98b57a48a06ae28d285a71b56f38129d68939a19a2697172926f6a6736301ca0fd0e1538e65c7bb9f5c4a02d7ad051e995fa1a7a91dbb2f10d4495c61be46701a0102af8acdfd6473c5bcb6a4ecddfc07476fe5faf965d1d24b287108333d3189b"
                }
            ],
            "Paris" : [
                {
                    "hash" : "0x704e771769125d8e37dd6336765eac8a259decde816cf1a344e64312755bdfea",
                    "indexes" : {
                        "data" : 0,
                        "gas" : 0,
                        "value" : 0
                    },
                    "logs" : "0x1dcc4de8dec75d7aab85b567b6ccd41ad312451b948a7413f0a142fd40d49347",
                    "txbytes" : "0xf9011e800a841996674b94095e7baea6a6c7c4c2dfeb977efac326af552d878451af41e7b8b87ffffffffffffffffffffffffffffffffffffffffffffffffffffffffffffffffe7fffffffffffffffffffffffffffffffffffffffffffffffffffffffffffffffff7fffffffffffffffffffffffffffffffffffffffffffffffffffffffffffffffff417f00000000000000000000000100000000000000000000000000000000000000007f000000000000000000000000945304eb96065b2a98b57a48a06ae28d285a71b56f38129d68939a19a2697172926f6a6736301ca0fd0e1538e65c7bb9f5c4a02d7ad051e995fa1a7a91dbb2f10d4495c61be46701a0102af8acdfd6473c5bcb6a4ecddfc07476fe5faf965d1d24b287108333d3189b"
                }
            ],
            "Shanghai" : [
                {
                    "hash" : "0x704e771769125d8e37dd6336765eac8a259decde816cf1a344e64312755bdfea",
                    "indexes" : {
                        "data" : 0,
                        "gas" : 0,
                        "value" : 0
                    },
                    "logs" : "0x1dcc4de8dec75d7aab85b567b6ccd41ad312451b948a7413f0a142fd40d49347",
                    "txbytes" : "0xf9011e800a841996674b94095e7baea6a6c7c4c2dfeb977efac326af552d878451af41e7b8b87ffffffffffffffffffffffffffffffffffffffffffffffffffffffffffffffffe7fffffffffffffffffffffffffffffffffffffffffffffffffffffffffffffffff7fffffffffffffffffffffffffffffffffffffffffffffffffffffffffffffffff417f00000000000000000000000100000000000000000000000000000000000000007f000000000000000000000000945304eb96065b2a98b57a48a06ae28d285a71b56f38129d68939a19a2697172926f6a6736301ca0fd0e1538e65c7bb9f5c4a02d7ad051e995fa1a7a91dbb2f10d4495c61be46701a0102af8acdfd6473c5bcb6a4ecddfc07476fe5faf965d1d24b287108333d3189b"
                }
            ]
        },
        "pre" : {
            "0x000f3df6d732807ef1319fb7b8bb8522d0beac02" : {
                "balance" : "0x00",
                "code" : "0x3373fffffffffffffffffffffffffffffffffffffffe14604d57602036146024575f5ffd5b5f35801560495762001fff810690815414603c575f5ffd5b62001fff01545f5260205ff35b5f5ffd5b62001fff42064281555f359062001fff015500",
                "nonce" : "0x01",
                "storage" : {
                }
            },
            "0x095e7baea6a6c7c4c2dfeb977efac326af552d87" : {
                "balance" : "0x00",
                "code" : "0x7ffffffffffffffffffffffffffffffffffffffffffffffffffffffffffffffffe7fffffffffffffffffffffffffffffffffffffffffffffffffffffffffffffffff7fffffffffffffffffffffffffffffffffffffffffffffffffffffffffffffffff417f00000000000000000000000100000000000000000000000000000000000000007f000000000000000000000000945304eb96065b2a98b57a48a06ae28d285a71b56f38129d68939a19a2697172926f6a67363055",
                "nonce" : "0x00",
                "storage" : {
                }
            },
            "0x945304eb96065b2a98b57a48a06ae28d285a71b5" : {
                "balance" : "0x2e",
                "code" : "0x6000355415600957005b60203560003555",
                "nonce" : "0x00",
                "storage" : {
                }
            },
            "0xa94f5374fce5edbc8e2a8697c15331677e6ebf0b" : {
                "balance" : "0x0de0b6b3a7640000",
                "code" : "0x",
                "nonce" : "0x00",
                "storage" : {
                }
            }
        },
        "transaction" : {
            "data" : [
                "0x7ffffffffffffffffffffffffffffffffffffffffffffffffffffffffffffffffe7fffffffffffffffffffffffffffffffffffffffffffffffffffffffffffffffff7fffffffffffffffffffffffffffffffffffffffffffffffffffffffffffffffff417f00000000000000000000000100000000000000000000000000000000000000007f000000000000000000000000945304eb96065b2a98b57a48a06ae28d285a71b56f38129d68939a19a2697172926f6a673630"
            ],
            "gasLimit" : [
                "0x1996674b"
            ],
            "gasPrice" : "0x0a",
            "nonce" : "0x00",
            "secretKey" : "0x45a915e4d060149eb4365960e6a7a45f334393093061116b197e3240065ff2d8",
            "sender" : "0xa94f5374fce5edbc8e2a8697c15331677e6ebf0b",
            "to" : "0x095e7baea6a6c7c4c2dfeb977efac326af552d87",
            "value" : [
                "0x51af41e7"
            ]
        }
    }
}