{
    "randomStatetest171" : {
        "_info" : {
            "comment" : "",
            "filling-rpc-server" : "evm version 1.13.11-unstable-765f2904-20240124",
            "filling-tool-version" : "retesteth-0.3.2-cancun+commit.ea13235b.Linux.g++",
            "generatedTestHash" : "756118849ac87f0a99afc7003cecc66fa485c5043a74d2aef75c7cb06b686f28",
            "lllcversion" : "Version: 0.5.14-develop.2023.7.11+commit.c58ab2c6.mod.Linux.g++",
            "solidity" : "Version: 0.8.21+commit.d9974bed.Linux.g++",
            "source" : "src/GeneralStateTestsFiller/stRandom/randomStatetest171Filler.json",
            "sourceHash" : "d9bb48e707105a3404da2db7a48ed7fa0088856742ad41701e22476f9c3c7526"
        },
        "env" : {
            "currentBaseFee" : "0x0a",
            "currentCoinbase" : "0x945304eb96065b2a98b57a48a06ae28d285a71b5",
            "currentDifficulty" : "0x020000",
            "currentExcessBlobGas" : "0x00",
            "currentGasLimit" : "0x7fffffffffffffff",
            "currentNumber" : "0x01",
            "currentRandom" : "0x0000000000000000000000000000000000000000000000000000000000020000",
            "currentTimestamp" : "0x03e8"
        },
        "post" : {
            "Berlin" : [
                {
                    "hash" : "0x0e34e02d20274c216ee23a5ece77817dd40b4d4aa9584da05ae2fb843f1f74f9",
                    "indexes" : {
                        "data" : 0,
                        "gas" : 0,
                        "value" : 0
                    },
                    "logs" : "0x1dcc4de8dec75d7aab85b567b6ccd41ad312451b948a7413f0a142fd40d49347",
                    "txbytes" : "0xf9012f800a846580cd0894095e7baea6a6c7c4c2dfeb977efac326af552d878466e639e4b8c97f000000000000000000000000000000000000000000000000000000000000c350437f00000000000000000000000000000000000000000000000000000000000000007f00000000000000000000000000000000000000000000000000000000000000017ffffffffffffffffffffffffffffffffffffffffffffffffffffffffffffffffe7f000000000000000000000000945304eb96065b2a98b57a48a06ae28d285a71b5197ffffffffffffffffffffffffffffffffffffffffffffffffffffffffffffffffe091ca07acfb4bedee8002576d4efcf60cec518a98f7d9340c126d54ef2348a2181cc99a0310034e32c13c130d92ad59ec090dd533d6befaeba216848bdda048b6a3f5d85"
                }
            ],
            "Cancun" : [
                {
                    "hash" : "0x452f86be04eee57d51ca496bb9cada5788cf398bb7541de51d5699e819d1e3aa",
                    "indexes" : {
                        "data" : 0,
                        "gas" : 0,
                        "value" : 0
                    },
                    "logs" : "0x1dcc4de8dec75d7aab85b567b6ccd41ad312451b948a7413f0a142fd40d49347",
                    "txbytes" : "0xf9012f800a846580cd0894095e7baea6a6c7c4c2dfeb977efac326af552d878466e639e4b8c97f000000000000000000000000000000000000000000000000000000000000c350437f00000000000000000000000000000000000000000000000000000000000000007f00000000000000000000000000000000000000000000000000000000000000017ffffffffffffffffffffffffffffffffffffffffffffffffffffffffffffffffe7f000000000000000000000000945304eb96065b2a98b57a48a06ae28d285a71b5197ffffffffffffffffffffffffffffffffffffffffffffffffffffffffffffffffe091ca07acfb4bedee8002576d4efcf60cec518a98f7d9340c126d54ef2348a2181cc99a0310034e32c13c130d92ad59ec090dd533d6befaeba216848bdda048b6a3f5d85"
                }
            ],
            "Istanbul" : [
                {
                    "hash" : "0x304bb3359954052775539c409219ed631a1673a8b16c4f6872f2368aa4e34d23",
                    "indexes" : {
                        "data" : 0,
                        "gas" : 0,
                        "value" : 0
                    },
                    "logs" : "0x1dcc4de8dec75d7aab85b567b6ccd41ad312451b948a7413f0a142fd40d49347",
                    "txbytes" : "0xf9012f800a846580cd0894095e7baea6a6c7c4c2dfeb977efac326af552d878466e639e4b8c97f000000000000000000000000000000000000000000000000000000000000c350437f00000000000000000000000000000000000000000000000000000000000000007f00000000000000000000000000000000000000000000000000000000000000017ffffffffffffffffffffffffffffffffffffffffffffffffffffffffffffffffe7f000000000000000000000000945304eb96065b2a98b57a48a06ae28d285a71b5197ffffffffffffffffffffffffffffffffffffffffffffffffffffffffffffffffe091ca07acfb4bedee8002576d4efcf60cec518a98f7d9340c126d54ef2348a2181cc99a0310034e32c13c130d92ad59ec090dd533d6befaeba216848bdda048b6a3f5d85"
                }
            ],
            "London" : [
                {
                    "hash" : "0x452f86be04eee57d51ca496bb9cada5788cf398bb7541de51d5699e819d1e3aa",
                    "indexes" : {
                        "data" : 0,
                        "gas" : 0,
                        "value" : 0
                    },
                    "logs" : "0x1dcc4de8dec75d7aab85b567b6ccd41ad312451b948a7413f0a142fd40d49347",
                    "txbytes" : "0xf9012f800a846580cd0894095e7baea6a6c7c4c2dfeb977efac326af552d878466e639e4b8c97f000000000000000000000000000000000000000000000000000000000000c350437f00000000000000000000000000000000000000000000000000000000000000007f00000000000000000000000000000000000000000000000000000000000000017ffffffffffffffffffffffffffffffffffffffffffffffffffffffffffffffffe7f000000000000000000000000945304eb96065b2a98b57a48a06ae28d285a71b5197ffffffffffffffffffffffffffffffffffffffffffffffffffffffffffffffffe091ca07acfb4bedee8002576d4efcf60cec518a98f7d9340c126d54ef2348a2181cc99a0310034e32c13c130d92ad59ec090dd533d6befaeba216848bdda048b6a3f5d85"
                }
            ],
            "Paris" : [
                {
                    "hash" : "0x452f86be04eee57d51ca496bb9cada5788cf398bb7541de51d5699e819d1e3aa",
                    "indexes" : {
                        "data" : 0,
                        "gas" : 0,
                        "value" : 0
                    },
                    "logs" : "0x1dcc4de8dec75d7aab85b567b6ccd41ad312451b948a7413f0a142fd40d49347",
                    "txbytes" : "0xf9012f800a846580cd0894095e7baea6a6c7c4c2dfeb977efac326af552d878466e639e4b8c97f000000000000000000000000000000000000000000000000000000000000c350437f00000000000000000000000000000000000000000000000000000000000000007f00000000000000000000000000000000000000000000000000000000000000017ffffffffffffffffffffffffffffffffffffffffffffffffffffffffffffffffe7f000000000000000000000000945304eb96065b2a98b57a48a06ae28d285a71b5197ffffffffffffffffffffffffffffffffffffffffffffffffffffffffffffffffe091ca07acfb4bedee8002576d4efcf60cec518a98f7d9340c126d54ef2348a2181cc99a0310034e32c13c130d92ad59ec090dd533d6befaeba216848bdda048b6a3f5d85"
                }
            ],
            "Shanghai" : [
                {
                    "hash" : "0x452f86be04eee57d51ca496bb9cada5788cf398bb7541de51d5699e819d1e3aa",
                    "indexes" : {
                        "data" : 0,
                        "gas" : 0,
                        "value" : 0
                    },
                    "logs" : "0x1dcc4de8dec75d7aab85b567b6ccd41ad312451b948a7413f0a142fd40d49347",
                    "txbytes" : "0xf9012f800a846580cd0894095e7baea6a6c7c4c2dfeb977efac326af552d878466e639e4b8c97f000000000000000000000000000000000000000000000000000000000000c350437f00000000000000000000000000000000000000000000000000000000000000007f00000000000000000000000000000000000000000000000000000000000000017ffffffffffffffffffffffffffffffffffffffffffffffffffffffffffffffffe7f000000000000000000000000945304eb96065b2a98b57a48a06ae28d285a71b5197ffffffffffffffffffffffffffffffffffffffffffffffffffffffffffffffffe091ca07acfb4bedee8002576d4efcf60cec518a98f7d9340c126d54ef2348a2181cc99a0310034e32c13c130d92ad59ec090dd533d6befaeba216848bdda048b6a3f5d85"
                }
            ]
        },
        "pre" : {
            "0x095e7baea6a6c7c4c2dfeb977efac326af552d87" : {
                "balance" : "0x00",
                "code" : "0x7f000000000000000000000000000000000000000000000000000000000000c350437f00000000000000000000000000000000000000000000000000000000000000007f00000000000000000000000000000000000000000000000000000000000000017ffffffffffffffffffffffffffffffffffffffffffffffffffffffffffffffffe7f000000000000000000000000945304eb96065b2a98b57a48a06ae28d285a71b5197ffffffffffffffffffffffffffffffffffffffffffffffffffffffffffffffffe095560005155",
                "nonce" : "0x00",
                "storage" : {
                }
            },
            "0x945304eb96065b2a98b57a48a06ae28d285a71b5" : {
                "balance" : "0x2e",
                "code" : "0x6000355415600957005b60203560003555",
                "nonce" : "0x00",
                "storage" : {
                }
            },
            "0xa94f5374fce5edbc8e2a8697c15331677e6ebf0b" : {
                "balance" : "0x0de0b6b3a7640000",
                "code" : "0x",
                "nonce" : "0x00",
                "storage" : {
                }
            }
        },
        "transaction" : {
            "data" : [
                "0x7f000000000000000000000000000000000000000000000000000000000000c350437f00000000000000000000000000000000000000000000000000000000000000007f00000000000000000000000000000000000000000000000000000000000000017ffffffffffffffffffffffffffffffffffffffffffffffffffffffffffffffffe7f000000000000000000000000945304eb96065b2a98b57a48a06ae28d285a71b5197ffffffffffffffffffffffffffffffffffffffffffffffffffffffffffffffffe09"
            ],
            "gasLimit" : [
                "0x6580cd08"
            ],
            "gasPrice" : "0x0a",
            "nonce" : "0x00",
            "secretKey" : "0x45a915e4d060149eb4365960e6a7a45f334393093061116b197e3240065ff2d8",
            "sender" : "0xa94f5374fce5edbc8e2a8697c15331677e6ebf0b",
            "to" : "0x095e7baea6a6c7c4c2dfeb977efac326af552d87",
            "value" : [
                "0x66e639e4"
            ]
        }
    }
}