{
    "randomStatetest187" : {
        "_info" : {
            "comment" : "",
            "filling-rpc-server" : "evm version 1.13.11-unstable-765f2904-20240124",
            "filling-tool-version" : "retesteth-0.3.2-cancun+commit.ea13235b.Linux.g++",
            "generatedTestHash" : "e0d524881d47e17a0f752f368124b4b9d677c93f235b29eee17d755854f7c05c",
            "lllcversion" : "Version: 0.5.14-develop.2023.7.11+commit.c58ab2c6.mod.Linux.g++",
            "solidity" : "Version: 0.8.21+commit.d9974bed.Linux.g++",
            "source" : "src/GeneralStateTestsFiller/stRandom/randomStatetest187Filler.json",
            "sourceHash" : "4d71c242197b31e791795da67055959ef973ed1b88dd46e490331ea2998d5032"
        },
        "env" : {
            "currentBaseFee" : "0x0a",
            "currentCoinbase" : "0x945304eb96065b2a98b57a48a06ae28d285a71b5",
            "currentDifficulty" : "0x020000",
            "currentExcessBlobGas" : "0x00",
            "currentGasLimit" : "0x7fffffffffffffff",
            "currentNumber" : "0x01",
            "currentRandom" : "0x0000000000000000000000000000000000000000000000000000000000020000",
            "currentTimestamp" : "0x03e8"
        },
        "post" : {
            "Berlin" : [
                {
                    "hash" : "0x3889adf0abcdeb7dd351c3aa8375474de5ddf7fda1bbb44b9d111ebb7e93bc5d",
                    "indexes" : {
                        "data" : 0,
                        "gas" : 0,
                        "value" : 0
                    },
                    "logs" : "0x1dcc4de8dec75d7aab85b567b6ccd41ad312451b948a7413f0a142fd40d49347",
                    "txbytes" : "0xf9011d800a84316eeeb194095e7baea6a6c7c4c2dfeb977efac326af552d8784372e4882b8b77f000000000000000000000000ffffffffffffffffffffffffffffffffffffffff457f00000000000000000000000000000000000000000000000000000000000000007f00000000000000000000000000000000000000000000000000000000000000017f000000000000000000000000000000000000000000000000000000000000c3507f00000000000000000000000000000000000000000000000000000000000000006f75988036a0562096036b04518877199d1ba062452835446ff854d937e17b208cd7da4e338b7cfee43ac92442820e872ae101a03e603fc0f3e5c227e8967c4587c1979ce462eeba0b123e7d27203405220b8c9f"
                }
            ],
            "Cancun" : [
                {
                    "hash" : "0x42917b9b0b50d19fe84ec3a524791b0d482d6fa03fa0ad18eedd994f19cb622f",
                    "indexes" : {
                        "data" : 0,
                        "gas" : 0,
                        "value" : 0
                    },
                    "logs" : "0x1dcc4de8dec75d7aab85b567b6ccd41ad312451b948a7413f0a142fd40d49347",
                    "txbytes" : "0xf9011d800a84316eeeb194095e7baea6a6c7c4c2dfeb977efac326af552d8784372e4882b8b77f000000000000000000000000ffffffffffffffffffffffffffffffffffffffff457f00000000000000000000000000000000000000000000000000000000000000007f00000000000000000000000000000000000000000000000000000000000000017f000000000000000000000000000000000000000000000000000000000000c3507f00000000000000000000000000000000000000000000000000000000000000006f75988036a0562096036b04518877199d1ba062452835446ff854d937e17b208cd7da4e338b7cfee43ac92442820e872ae101a03e603fc0f3e5c227e8967c4587c1979ce462eeba0b123e7d27203405220b8c9f"
                }
            ],
            "Istanbul" : [
                {
                    "hash" : "0x1fefa02e656a52e3dd8ec77c99c08a1fe3224d9a89af67661584d84ab39779d0",
                    "indexes" : {
                        "data" : 0,
                        "gas" : 0,
                        "value" : 0
                    },
                    "logs" : "0x1dcc4de8dec75d7aab85b567b6ccd41ad312451b948a7413f0a142fd40d49347",
                    "txbytes" : "0xf9011d800a84316eeeb194095e7baea6a6c7c4c2dfeb977efac326af552d8784372e4882b8b77f000000000000000000000000ffffffffffffffffffffffffffffffffffffffff457f00000000000000000000000000000000000000000000000000000000000000007f00000000000000000000000000000000000000000000000000000000000000017f000000000000000000000000000000000000000000000000000000000000c3507f00000000000000000000000000000000000000000000000000000000000000006f75988036a0562096036b04518877199d1ba062452835446ff854d937e17b208cd7da4e338b7cfee43ac92442820e872ae101a03e603fc0f3e5c227e8967c4587c1979ce462eeba0b123e7d27203405220b8c9f"
                }
            ],
            "London" : [
                {
                    "hash" : "0x42917b9b0b50d19fe84ec3a524791b0d482d6fa03fa0ad18eedd994f19cb622f",
                    "indexes" : {
                        "data" : 0,
                        "gas" : 0,
                        "value" : 0
                    },
                    "logs" : "0x1dcc4de8dec75d7aab85b567b6ccd41ad312451b948a7413f0a142fd40d49347",
                    "txbytes" : "0xf9011d800a84316eeeb194095e7baea6a6c7c4c2dfeb977efac326af552d8784372e4882b8b77f000000000000000000000000ffffffffffffffffffffffffffffffffffffffff457f00000000000000000000000000000000000000000000000000000000000000007f00000000000000000000000000000000000000000000000000000000000000017f000000000000000000000000000000000000000000000000000000000000c3507f00000000000000000000000000000000000000000000000000000000000000006f75988036a0562096036b04518877199d1ba062452835446ff854d937e17b208cd7da4e338b7cfee43ac92442820e872ae101a03e603fc0f3e5c227e8967c4587c1979ce462eeba0b123e7d27203405220b8c9f"
                }
            ],
            "Paris" : [
                {
                    "hash" : "0x42917b9b0b50d19fe84ec3a524791b0d482d6fa03fa0ad18eedd994f19cb622f",
                    "indexes" : {
                        "data" : 0,
                        "gas" : 0,
                        "value" : 0
                    },
                    "logs" : "0x1dcc4de8dec75d7aab85b567b6ccd41ad312451b948a7413f0a142fd40d49347",
                    "txbytes" : "0xf9011d800a84316eeeb194095e7baea6a6c7c4c2dfeb977efac326af552d8784372e4882b8b77f000000000000000000000000ffffffffffffffffffffffffffffffffffffffff457f00000000000000000000000000000000000000000000000000000000000000007f00000000000000000000000000000000000000000000000000000000000000017f000000000000000000000000000000000000000000000000000000000000c3507f00000000000000000000000000000000000000000000000000000000000000006f75988036a0562096036b04518877199d1ba062452835446ff854d937e17b208cd7da4e338b7cfee43ac92442820e872ae101a03e603fc0f3e5c227e8967c4587c1979ce462eeba0b123e7d27203405220b8c9f"
                }
            ],
            "Shanghai" : [
                {
                    "hash" : "0x42917b9b0b50d19fe84ec3a524791b0d482d6fa03fa0ad18eedd994f19cb622f",
                    "indexes" : {
                        "data" : 0,
                        "gas" : 0,
                        "value" : 0
                    },
                    "logs" : "0x1dcc4de8dec75d7aab85b567b6ccd41ad312451b948a7413f0a142fd40d49347",
                    "txbytes" : "0xf9011d800a84316eeeb194095e7baea6a6c7c4c2dfeb977efac326af552d8784372e4882b8b77f000000000000000000000000ffffffffffffffffffffffffffffffffffffffff457f00000000000000000000000000000000000000000000000000000000000000007f00000000000000000000000000000000000000000000000000000000000000017f000000000000000000000000000000000000000000000000000000000000c3507f00000000000000000000000000000000000000000000000000000000000000006f75988036a0562096036b04518877199d1ba062452835446ff854d937e17b208cd7da4e338b7cfee43ac92442820e872ae101a03e603fc0f3e5c227e8967c4587c1979ce462eeba0b123e7d27203405220b8c9f"
                }
            ]
        },
        "pre" : {
            "0x095e7baea6a6c7c4c2dfeb977efac326af552d87" : {
                "balance" : "0x00",
                "code" : "0x7f000000000000000000000000ffffffffffffffffffffffffffffffffffffffff457f00000000000000000000000000000000000000000000000000000000000000007f00000000000000000000000000000000000000000000000000000000000000017f000000000000000000000000000000000000000000000000000000000000c3507f00000000000000000000000000000000000000000000000000000000000000006f75988036a0562096036b04518877199d60005155",
                "nonce" : "0x00",
                "storage" : {
                }
            },
            "0x945304eb96065b2a98b57a48a06ae28d285a71b5" : {
                "balance" : "0x2e",
                "code" : "0x6000355415600957005b60203560003555",
                "nonce" : "0x00",
                "storage" : {
                }
            },
            "0xa94f5374fce5edbc8e2a8697c15331677e6ebf0b" : {
                "balance" : "0x0de0b6b3a7640000",
                "code" : "0x",
                "nonce" : "0x00",
                "storage" : {
                }
            }
        },
        "transaction" : {
            "data" : [
                "0x7f000000000000000000000000ffffffffffffffffffffffffffffffffffffffff457f00000000000000000000000000000000000000000000000000000000000000007f00000000000000000000000000000000000000000000000000000000000000017f000000000000000000000000000000000000000000000000000000000000c3507f00000000000000000000000000000000000000000000000000000000000000006f75988036a0562096036b04518877199d"
            ],
            "gasLimit" : [
                "0x316eeeb1"
            ],
            "gasPrice" : "0x0a",
            "nonce" : "0x00",
            "secretKey" : "0x45a915e4d060149eb4365960e6a7a45f334393093061116b197e3240065ff2d8",
            "sender" : "0xa94f5374fce5edbc8e2a8697c15331677e6ebf0b",
            "to" : "0x095e7baea6a6c7c4c2dfeb977efac326af552d87",
            "value" : [
                "0x372e4882"
            ]
        }
    }
}