{
    "randomStatetest121" : {
        "_info" : {
            "comment" : "",
            "filling-rpc-server" : "evm version 1.13.11-unstable-765f2904-20240124",
            "filling-tool-version" : "retesteth-0.3.2-cancun+commit.ea13235b.Linux.g++",
            "generatedTestHash" : "9984430ab20f2d4b81f6c8a6a589a4a80c8d0e8ac175758de7585789df020c1c",
            "lllcversion" : "Version: 0.5.14-develop.2023.7.11+commit.c58ab2c6.mod.Linux.g++",
            "solidity" : "Version: 0.8.21+commit.d9974bed.Linux.g++",
            "source" : "src/GeneralStateTestsFiller/stRandom/randomStatetest121Filler.json",
            "sourceHash" : "8bd2cbf43a6be5680e864d6a1a23df81818267b8c0bb85b6c6752a79cb19ef86"
        },
        "env" : {
            "currentBaseFee" : "0x0a",
            "currentCoinbase" : "0x945304eb96065b2a98b57a48a06ae28d285a71b5",
            "currentDifficulty" : "0x020000",
            "currentExcessBlobGas" : "0x00",
            "currentGasLimit" : "0x7fffffffffffffff",
            "currentNumber" : "0x01",
            "currentRandom" : "0x0000000000000000000000000000000000000000000000000000000000020000",
            "currentTimestamp" : "0x03e8"
        },
        "post" : {
            "Berlin" : [
                {
                    "hash" : "0xd6f6f493a2167ee1f70677369f7f6ce0b710b01ee7cc04a2c164387e6b44a13e",
                    "indexes" : {
                        "data" : 0,
                        "gas" : 0,
                        "value" : 0
                    },
                    "logs" : "0x1dcc4de8dec75d7aab85b567b6ccd41ad312451b948a7413f0a142fd40d49347",
                    "txbytes" : "0xf9015e800a840b1aa48694095e7baea6a6c7c4c2dfeb977efac326af552d8784492a84cfb8f87f000000000000000000000000945304eb96065b2a98b57a48a06ae28d285a71b57f00000000000000000000000000000000000000000000000000000000000000017ffffffffffffffffffffffffffffffffffffffffffffffffffffffffffffffffe7f00000000000000000000000000000000000000000000000000000000000000007ffffffffffffffffffffffffffffffffffffffffffffffffffffffffffffffffe7ffffffffffffffffffffffffffffffffffffffffffffffffffffffffffffffffe7f000000000000000000000000000000000000000000000000000000000000c350456f305842321509108c689f7ca3195a9d1ba08ac1b4c15197c614f9d108bf549583faac811fd900fc50ba7d52bfabb95f236da066a51edcf9b122885e393889fd51b39b078240bc5fadf063fa7dafbc88576f90"
                }
            ],
            "Cancun" : [
                {
                    "hash" : "0xe0947884508a21190202402724302898cd9df00f5eab07be9203c82805e856d5",
                    "indexes" : {
                        "data" : 0,
                        "gas" : 0,
                        "value" : 0
                    },
                    "logs" : "0x1dcc4de8dec75d7aab85b567b6ccd41ad312451b948a7413f0a142fd40d49347",
                    "txbytes" : "0xf9015e800a840b1aa48694095e7baea6a6c7c4c2dfeb977efac326af552d8784492a84cfb8f87f000000000000000000000000945304eb96065b2a98b57a48a06ae28d285a71b57f00000000000000000000000000000000000000000000000000000000000000017ffffffffffffffffffffffffffffffffffffffffffffffffffffffffffffffffe7f00000000000000000000000000000000000000000000000000000000000000007ffffffffffffffffffffffffffffffffffffffffffffffffffffffffffffffffe7ffffffffffffffffffffffffffffffffffffffffffffffffffffffffffffffffe7f000000000000000000000000000000000000000000000000000000000000c350456f305842321509108c689f7ca3195a9d1ba08ac1b4c15197c614f9d108bf549583faac811fd900fc50ba7d52bfabb95f236da066a51edcf9b122885e393889fd51b39b078240bc5fadf063fa7dafbc88576f90"
                }
            ],
            "Istanbul" : [
                {
                    "hash" : "0x30930cba2ce4bf1cfbbe7f604731fcdf4fd4ebcf245be51cca480c7010be47dd",
                    "indexes" : {
                        "data" : 0,
                        "gas" : 0,
                        "value" : 0
                    },
                    "logs" : "0x1dcc4de8dec75d7aab85b567b6ccd41ad312451b948a7413f0a142fd40d49347",
                    "txbytes" : "0xf9015e800a840b1aa48694095e7baea6a6c7c4c2dfeb977efac326af552d8784492a84cfb8f87f000000000000000000000000945304eb96065b2a98b57a48a06ae28d285a71b57f00000000000000000000000000000000000000000000000000000000000000017ffffffffffffffffffffffffffffffffffffffffffffffffffffffffffffffffe7f00000000000000000000000000000000000000000000000000000000000000007ffffffffffffffffffffffffffffffffffffffffffffffffffffffffffffffffe7ffffffffffffffffffffffffffffffffffffffffffffffffffffffffffffffffe7f000000000000000000000000000000000000000000000000000000000000c350456f305842321509108c689f7ca3195a9d1ba08ac1b4c15197c614f9d108bf549583faac811fd900fc50ba7d52bfabb95f236da066a51edcf9b122885e393889fd51b39b078240bc5fadf063fa7dafbc88576f90"
                }
            ],
            "London" : [
                {
                    "hash" : "0xe0947884508a21190202402724302898cd9df00f5eab07be9203c82805e856d5",
                    "indexes" : {
                        "data" : 0,
                        "gas" : 0,
                        "value" : 0
                    },
                    "logs" : "0x1dcc4de8dec75d7aab85b567b6ccd41ad312451b948a7413f0a142fd40d49347",
                    "txbytes" : "0xf9015e800a840b1aa48694095e7baea6a6c7c4c2dfeb977efac326af552d8784492a84cfb8f87f000000000000000000000000945304eb96065b2a98b57a48a06ae28d285a71b57f00000000000000000000000000000000000000000000000000000000000000017ffffffffffffffffffffffffffffffffffffffffffffffffffffffffffffffffe7f00000000000000000000000000000000000000000000000000000000000000007ffffffffffffffffffffffffffffffffffffffffffffffffffffffffffffffffe7ffffffffffffffffffffffffffffffffffffffffffffffffffffffffffffffffe7f000000000000000000000000000000000000000000000000000000000000c350456f305842321509108c689f7ca3195a9d1ba08ac1b4c15197c614f9d108bf549583faac811fd900fc50ba7d52bfabb95f236da066a51edcf9b122885e393889fd51b39b078240bc5fadf063fa7dafbc88576f90"
                }
            ],
            "Paris" : [
                {
                    "hash" : "0xe0947884508a21190202402724302898cd9df00f5eab07be9203c82805e856d5",
                    "indexes" : {
                        "data" : 0,
                        "gas" : 0,
                        "value" : 0
                    },
                    "logs" : "0x1dcc4de8dec75d7aab85b567b6ccd41ad312451b948a7413f0a142fd40d49347",
                    "txbytes" : "0xf9015e800a840b1aa48694095e7baea6a6c7c4c2dfeb977efac326af552d8784492a84cfb8f87f000000000000000000000000945304eb96065b2a98b57a48a06ae28d285a71b57f00000000000000000000000000000000000000000000000000000000000000017ffffffffffffffffffffffffffffffffffffffffffffffffffffffffffffffffe7f00000000000000000000000000000000000000000000000000000000000000007ffffffffffffffffffffffffffffffffffffffffffffffffffffffffffffffffe7ffffffffffffffffffffffffffffffffffffffffffffffffffffffffffffffffe7f000000000000000000000000000000000000000000000000000000000000c350456f305842321509108c689f7ca3195a9d1ba08ac1b4c15197c614f9d108bf549583faac811fd900fc50ba7d52bfabb95f236da066a51edcf9b122885e393889fd51b39b078240bc5fadf063fa7dafbc88576f90"
                }
            ],
            "Shanghai" : [
                {
                    "hash" : "0xe0947884508a21190202402724302898cd9df00f5eab07be9203c82805e856d5",
                    "indexes" : {
                        "data" : 0,
                        "gas" : 0,
                        "value" : 0
                    },
                    "logs" : "0x1dcc4de8dec75d7aab85b567b6ccd41ad312451b948a7413f0a142fd40d49347",
                    "txbytes" : "0xf9015e800a840b1aa48694095e7baea6a6c7c4c2dfeb977efac326af552d8784492a84cfb8f87f000000000000000000000000945304eb96065b2a98b57a48a06ae28d285a71b57f00000000000000000000000000000000000000000000000000000000000000017ffffffffffffffffffffffffffffffffffffffffffffffffffffffffffffffffe7f00000000000000000000000000000000000000000000000000000000000000007ffffffffffffffffffffffffffffffffffffffffffffffffffffffffffffffffe7ffffffffffffffffffffffffffffffffffffffffffffffffffffffffffffffffe7f000000000000000000000000000000000000000000000000000000000000c350456f305842321509108c689f7ca3195a9d1ba08ac1b4c15197c614f9d108bf549583faac811fd900fc50ba7d52bfabb95f236da066a51edcf9b122885e393889fd51b39b078240bc5fadf063fa7dafbc88576f90"
                }
            ]
        },
        "pre" : {
            "0x095e7baea6a6c7c4c2dfeb977efac326af552d87" : {
                "balance" : "0x00",
                "code" : "0x7f000000000000000000000000945304eb96065b2a98b57a48a06ae28d285a71b57f00000000000000000000000000000000000000000000000000000000000000017ffffffffffffffffffffffffffffffffffffffffffffffffffffffffffffffffe7f00000000000000000000000000000000000000000000000000000000000000007ffffffffffffffffffffffffffffffffffffffffffffffffffffffffffffffffe7ffffffffffffffffffffffffffffffffffffffffffffffffffffffffffffffffe7f000000000000000000000000000000000000000000000000000000000000c350456f305842321509108c689f7ca3195a9d5560005155",
                "nonce" : "0x00",
                "storage" : {
                }
            },
            "0x945304eb96065b2a98b57a48a06ae28d285a71b5" : {
                "balance" : "0x2e",
                "code" : "0x6000355415600957005b60203560003555",
                "nonce" : "0x00",
                "storage" : {
                }
            },
            "0xa94f5374fce5edbc8e2a8697c15331677e6ebf0b" : {
                "balance" : "0x0de0b6b3a7640000",
                "code" : "0x",
                "nonce" : "0x00",
                "storage" : {
                }
            }
        },
        "transaction" : {
            "data" : [
                "0x7f000000000000000000000000945304eb96065b2a98b57a48a06ae28d285a71b57f00000000000000000000000000000000000000000000000000000000000000017ffffffffffffffffffffffffffffffffffffffffffffffffffffffffffffffffe7f00000000000000000000000000000000000000000000000000000000000000007ffffffffffffffffffffffffffffffffffffffffffffffffffffffffffffffffe7ffffffffffffffffffffffffffffffffffffffffffffffffffffffffffffffffe7f000000000000000000000000000000000000000000000000000000000000c350456f305842321509108c689f7ca3195a9d"
            ],
            "gasLimit" : [
                "0x0b1aa486"
            ],
            "gasPrice" : "0x0a",
            "nonce" : "0x00",
            "secretKey" : "0x45a915e4d060149eb4365960e6a7a45f334393093061116b197e3240065ff2d8",
            "sender" : "0xa94f5374fce5edbc8e2a8697c15331677e6ebf0b",
            "to" : "0x095e7baea6a6c7c4c2dfeb977efac326af552d87",
            "value" : [
                "0x492a84cf"
            ]
        }
    }
}