{
    "randomStatetest312" : {
        "_info" : {
            "comment" : "",
            "filling-rpc-server" : "evm version 1.13.13-unstable-034bc466-20240219",
            "filling-tool-version" : "retesteth-0.3.2-cancun+commit.014a68a5.Linux.g++",
            "generatedTestHash" : "7daed9c6f755b471942492e92e6902734c87f0425156b54246efd65ccd07c122",
            "lllcversion" : "Version: 0.5.14-develop.2023.7.11+commit.c58ab2c6.mod.Linux.g++",
            "solidity" : "Version: 0.8.21+commit.d9974bed.Linux.g++",
            "source" : "src/GeneralStateTestsFiller/stRandom/randomStatetest312Filler.json",
            "sourceHash" : "7ce69715287128092984220cbb218733e6e64fe74537aa4efd903308f396bb7f"
        },
        "env" : {
            "currentBaseFee" : "0x0a",
            "currentCoinbase" : "0x945304eb96065b2a98b57a48a06ae28d285a71b5",
            "currentDifficulty" : "0x020000",
            "currentExcessBlobGas" : "0x00",
            "currentGasLimit" : "0x7fffffffffffffff",
            "currentNumber" : "0x01",
            "currentRandom" : "0x0000000000000000000000000000000000000000000000000000000000020000",
            "currentTimestamp" : "0x03e8"
        },
        "post" : {
            "Berlin" : [
                {
                    "hash" : "0x55d2161933d43924cec7aff56cc5889eea7e666fe199d5e5cf4fa9c9dcd879ce",
                    "indexes" : {
                        "data" : 0,
                        "gas" : 0,
                        "value" : 0
                    },
                    "logs" : "0x1dcc4de8dec75d7aab85b567b6ccd41ad312451b948a7413f0a142fd40d49347",
                    "txbytes" : "0xf9012f800a844e58e92894095e7baea6a6c7c4c2dfeb977efac326af552d87843b27676cb8c97f00000000000000000000000000000000000000000000000000000000000000007f000000000000000000000000945304eb96065b2a98b57a48a06ae28d285a71b57f00000000000000000000000000000000000000000000000000000000000000017fffffffffffffffffffffffffffffffffffffffffffffffffffffffffffffffff427f000000000000000000000000945304eb96065b2a98b57a48a06ae28d285a71b57f0000000000000000000000000000000000000000000000000000000000000000187b1ba0327885b2bbbb00ecf3ff68006504a645494045412d60b74692ac3bf6476e293aa07be0bed2120fb252d8d18e704f7c9b6caf6b1350312401a19fe62eab7a5ccc7b"
                }
            ],
            "Cancun" : [
                {
                    "hash" : "0x1217a229ed36672a0efcf68651a478ed3265933f95dc83c6eaad999b7d351584",
                    "indexes" : {
                        "data" : 0,
                        "gas" : 0,
                        "value" : 0
                    },
                    "logs" : "0x1dcc4de8dec75d7aab85b567b6ccd41ad312451b948a7413f0a142fd40d49347",
                    "txbytes" : "0xf9012f800a844e58e92894095e7baea6a6c7c4c2dfeb977efac326af552d87843b27676cb8c97f00000000000000000000000000000000000000000000000000000000000000007f000000000000000000000000945304eb96065b2a98b57a48a06ae28d285a71b57f00000000000000000000000000000000000000000000000000000000000000017fffffffffffffffffffffffffffffffffffffffffffffffffffffffffffffffff427f000000000000000000000000945304eb96065b2a98b57a48a06ae28d285a71b57f0000000000000000000000000000000000000000000000000000000000000000187b1ba0327885b2bbbb00ecf3ff68006504a645494045412d60b74692ac3bf6476e293aa07be0bed2120fb252d8d18e704f7c9b6caf6b1350312401a19fe62eab7a5ccc7b"
                }
            ],
            "Istanbul" : [
                {
                    "hash" : "0x55d2161933d43924cec7aff56cc5889eea7e666fe199d5e5cf4fa9c9dcd879ce",
                    "indexes" : {
                        "data" : 0,
                        "gas" : 0,
                        "value" : 0
                    },
                    "logs" : "0x1dcc4de8dec75d7aab85b567b6ccd41ad312451b948a7413f0a142fd40d49347",
                    "txbytes" : "0xf9012f800a844e58e92894095e7baea6a6c7c4c2dfeb977efac326af552d87843b27676cb8c97f00000000000000000000000000000000000000000000000000000000000000007f000000000000000000000000945304eb96065b2a98b57a48a06ae28d285a71b57f00000000000000000000000000000000000000000000000000000000000000017fffffffffffffffffffffffffffffffffffffffffffffffffffffffffffffffff427f000000000000000000000000945304eb96065b2a98b57a48a06ae28d285a71b57f0000000000000000000000000000000000000000000000000000000000000000187b1ba0327885b2bbbb00ecf3ff68006504a645494045412d60b74692ac3bf6476e293aa07be0bed2120fb252d8d18e704f7c9b6caf6b1350312401a19fe62eab7a5ccc7b"
                }
            ],
            "London" : [
                {
                    "hash" : "0x01e33e56be5834099cf8dc1d1f09901c50b1b57bef7b1a7000bb734fe1cdf431",
                    "indexes" : {
                        "data" : 0,
                        "gas" : 0,
                        "value" : 0
                    },
                    "logs" : "0x1dcc4de8dec75d7aab85b567b6ccd41ad312451b948a7413f0a142fd40d49347",
                    "txbytes" : "0xf9012f800a844e58e92894095e7baea6a6c7c4c2dfeb977efac326af552d87843b27676cb8c97f00000000000000000000000000000000000000000000000000000000000000007f000000000000000000000000945304eb96065b2a98b57a48a06ae28d285a71b57f00000000000000000000000000000000000000000000000000000000000000017fffffffffffffffffffffffffffffffffffffffffffffffffffffffffffffffff427f000000000000000000000000945304eb96065b2a98b57a48a06ae28d285a71b57f0000000000000000000000000000000000000000000000000000000000000000187b1ba0327885b2bbbb00ecf3ff68006504a645494045412d60b74692ac3bf6476e293aa07be0bed2120fb252d8d18e704f7c9b6caf6b1350312401a19fe62eab7a5ccc7b"
                }
            ],
            "Paris" : [
                {
                    "hash" : "0x01e33e56be5834099cf8dc1d1f09901c50b1b57bef7b1a7000bb734fe1cdf431",
                    "indexes" : {
                        "data" : 0,
                        "gas" : 0,
                        "value" : 0
                    },
                    "logs" : "0x1dcc4de8dec75d7aab85b567b6ccd41ad312451b948a7413f0a142fd40d49347",
                    "txbytes" : "0xf9012f800a844e58e92894095e7baea6a6c7c4c2dfeb977efac326af552d87843b27676cb8c97f00000000000000000000000000000000000000000000000000000000000000007f000000000000000000000000945304eb96065b2a98b57a48a06ae28d285a71b57f00000000000000000000000000000000000000000000000000000000000000017fffffffffffffffffffffffffffffffffffffffffffffffffffffffffffffffff427f000000000000000000000000945304eb96065b2a98b57a48a06ae28d285a71b57f0000000000000000000000000000000000000000000000000000000000000000187b1ba0327885b2bbbb00ecf3ff68006504a645494045412d60b74692ac3bf6476e293aa07be0bed2120fb252d8d18e704f7c9b6caf6b1350312401a19fe62eab7a5ccc7b"
                }
            ],
            "Shanghai" : [
                {
                    "hash" : "0x01e33e56be5834099cf8dc1d1f09901c50b1b57bef7b1a7000bb734fe1cdf431",
                    "indexes" : {
                        "data" : 0,
                        "gas" : 0,
                        "value" : 0
                    },
                    "logs" : "0x1dcc4de8dec75d7aab85b567b6ccd41ad312451b948a7413f0a142fd40d49347",
                    "txbytes" : "0xf9012f800a844e58e92894095e7baea6a6c7c4c2dfeb977efac326af552d87843b27676cb8c97f00000000000000000000000000000000000000000000000000000000000000007f000000000000000000000000945304eb96065b2a98b57a48a06ae28d285a71b57f00000000000000000000000000000000000000000000000000000000000000017fffffffffffffffffffffffffffffffffffffffffffffffffffffffffffffffff427f000000000000000000000000945304eb96065b2a98b57a48a06ae28d285a71b57f0000000000000000000000000000000000000000000000000000000000000000187b1ba0327885b2bbbb00ecf3ff68006504a645494045412d60b74692ac3bf6476e293aa07be0bed2120fb252d8d18e704f7c9b6caf6b1350312401a19fe62eab7a5ccc7b"
                }
            ]
        },
        "pre" : {
            "0x000f3df6d732807ef1319fb7b8bb8522d0beac02" : {
                "balance" : "0x00",
                "code" : "0x3373fffffffffffffffffffffffffffffffffffffffe14604d57602036146024575f5ffd5b5f35801560495762001fff810690815414603c575f5ffd5b62001fff01545f5260205ff35b5f5ffd5b62001fff42064281555f359062001fff015500",
                "nonce" : "0x01",
                "storage" : {
                }
            },
            "0x095e7baea6a6c7c4c2dfeb977efac326af552d87" : {
                "balance" : "0x00",
                "code" : "0x7f00000000000000000000000000000000000000000000000000000000000000007f000000000000000000000000945304eb96065b2a98b57a48a06ae28d285a71b57f00000000000000000000000000000000000000000000000000000000000000017fffffffffffffffffffffffffffffffffffffffffffffffffffffffffffffffff427f000000000000000000000000945304eb96065b2a98b57a48a06ae28d285a71b57f0000000000000000000000000000000000000000000000000000000000000000187b55",
                "nonce" : "0x00",
                "storage" : {
                }
            },
            "0x945304eb96065b2a98b57a48a06ae28d285a71b5" : {
                "balance" : "0x2e",
                "code" : "0x6000355415600957005b60203560003555",
                "nonce" : "0x00",
                "storage" : {
                }
            },
            "0xa94f5374fce5edbc8e2a8697c15331677e6ebf0b" : {
                "balance" : "0x0de0b6b3a7640000",
                "code" : "0x",
                "nonce" : "0x00",
                "storage" : {
                }
            }
        },
        "transaction" : {
            "data" : [
                "0x7f00000000000000000000000000000000000000000000000000000000000000007f000000000000000000000000945304eb96065b2a98b57a48a06ae28d285a71b57f00000000000000000000000000000000000000000000000000000000000000017fffffffffffffffffffffffffffffffffffffffffffffffffffffffffffffffff427f000000000000000000000000945304eb96065b2a98b57a48a06ae28d285a71b57f0000000000000000000000000000000000000000000000000000000000000000187b"
            ],
            "gasLimit" : [
                "0x4e58e928"
            ],
            "gasPrice" : "0x0a",
            "nonce" : "0x00",
            "secretKey" : "0x45a915e4d060149eb4365960e6a7a45f334393093061116b197e3240065ff2d8",
            "sender" : "0xa94f5374fce5edbc8e2a8697c15331677e6ebf0b",
            "to" : "0x095e7baea6a6c7c4c2dfeb977efac326af552d87",
            "value" : [
                "0x3b27676c"
            ]
        }
    }
}