{
    "randomStatetest125" : {
        "_info" : {
            "comment" : "",
            "filling-rpc-server" : "evm version 1.11.4-unstable-e14043db-20230308",
            "filling-tool-version" : "retesteth-0.3.0-shanghai+commit.fd2c0a83.Linux.g++",
            "generatedTestHash" : "baa9d64ec698a0054d90242489cfeefec1e97bad54a6cdb92534eaa932063f51",
            "lllcversion" : "Version: 0.5.14-develop.2022.7.30+commit.a096d7a9.Linux.g++",
            "solidity" : "Version: 0.8.17+commit.8df45f5f.Linux.g++",
            "source" : "src/GeneralStateTestsFiller/stRandom/randomStatetest125Filler.json",
            "sourceHash" : "bb75bd698308ac9bd52c38c9fa7eed1d964ccf02edfdc72bad63f80af39fd1a3"
        },
        "env" : {
            "currentBaseFee" : "0x0a",
            "currentCoinbase" : "0x945304eb96065b2a98b57a48a06ae28d285a71b5",
            "currentDifficulty" : "0x020000",
            "currentGasLimit" : "0x7fffffffffffffff",
            "currentNumber" : "0x01",
            "currentRandom" : "0x0000000000000000000000000000000000000000000000000000000000020000",
            "currentTimestamp" : "0x03e8",
            "previousHash" : "0x5e20a0453cecd065ea59c37ac63e079ee08998b6045136a8ce6635c7912ec0b6"
        },
        "post" : {
            "Berlin" : [
                {
                    "hash" : "0xab79b2dae3a6357e8d24dd1dc8c6efdae95597ae045bba55d2723e9735ec5b1b",
                    "indexes" : {
                        "data" : 0,
                        "gas" : 0,
                        "value" : 0
                    },
                    "logs" : "0x1dcc4de8dec75d7aab85b567b6ccd41ad312451b948a7413f0a142fd40d49347",
                    "txbytes" : "0xf9010e800a844b03b27e94095e7baea6a6c7c4c2dfeb977efac326af552d87842e97f8a3b8a87f0000000000000000000000000000000000000000000000000000000000000001207f000000000000000000000000000000000000000000000000000000000000c3507fffffffffffffffffffffffffffffffffffffffffffffffffffffffffffffffff7f000000000000000000000000000000000000000000000000000000000000c3507ffffffffffffffffffffffffffffffffffffffffffffffffffffffffffffffffe406f1ba0944d19137581467f4273e34621df57146a6ec237576cd7b8e6fd149309aa7a2aa00ba0c9c3e7061a054c01e8844ea6b5652750c63b396ec111e4fea789fc451767"
                }
            ],
            "Istanbul" : [
                {
                    "hash" : "0xab79b2dae3a6357e8d24dd1dc8c6efdae95597ae045bba55d2723e9735ec5b1b",
                    "indexes" : {
                        "data" : 0,
                        "gas" : 0,
                        "value" : 0
                    },
                    "logs" : "0x1dcc4de8dec75d7aab85b567b6ccd41ad312451b948a7413f0a142fd40d49347",
                    "txbytes" : "0xf9010e800a844b03b27e94095e7baea6a6c7c4c2dfeb977efac326af552d87842e97f8a3b8a87f0000000000000000000000000000000000000000000000000000000000000001207f000000000000000000000000000000000000000000000000000000000000c3507fffffffffffffffffffffffffffffffffffffffffffffffffffffffffffffffff7f000000000000000000000000000000000000000000000000000000000000c3507ffffffffffffffffffffffffffffffffffffffffffffffffffffffffffffffffe406f1ba0944d19137581467f4273e34621df57146a6ec237576cd7b8e6fd149309aa7a2aa00ba0c9c3e7061a054c01e8844ea6b5652750c63b396ec111e4fea789fc451767"
                }
            ],
            "London" : [
                {
                    "hash" : "0x0b56697ec32f2d45df2373a31c45ffe25c9a84203d41f2476b03ec59aa846b1a",
                    "indexes" : {
                        "data" : 0,
                        "gas" : 0,
                        "value" : 0
                    },
                    "logs" : "0x1dcc4de8dec75d7aab85b567b6ccd41ad312451b948a7413f0a142fd40d49347",
                    "txbytes" : "0xf9010e800a844b03b27e94095e7baea6a6c7c4c2dfeb977efac326af552d87842e97f8a3b8a87f0000000000000000000000000000000000000000000000000000000000000001207f000000000000000000000000000000000000000000000000000000000000c3507fffffffffffffffffffffffffffffffffffffffffffffffffffffffffffffffff7f000000000000000000000000000000000000000000000000000000000000c3507ffffffffffffffffffffffffffffffffffffffffffffffffffffffffffffffffe406f1ba0944d19137581467f4273e34621df57146a6ec237576cd7b8e6fd149309aa7a2aa00ba0c9c3e7061a054c01e8844ea6b5652750c63b396ec111e4fea789fc451767"
                }
            ],
            "Merge" : [
                {
                    "hash" : "0x0b56697ec32f2d45df2373a31c45ffe25c9a84203d41f2476b03ec59aa846b1a",
                    "indexes" : {
                        "data" : 0,
                        "gas" : 0,
                        "value" : 0
                    },
                    "logs" : "0x1dcc4de8dec75d7aab85b567b6ccd41ad312451b948a7413f0a142fd40d49347",
                    "txbytes" : "0xf9010e800a844b03b27e94095e7baea6a6c7c4c2dfeb977efac326af552d87842e97f8a3b8a87f0000000000000000000000000000000000000000000000000000000000000001207f000000000000000000000000000000000000000000000000000000000000c3507fffffffffffffffffffffffffffffffffffffffffffffffffffffffffffffffff7f000000000000000000000000000000000000000000000000000000000000c3507ffffffffffffffffffffffffffffffffffffffffffffffffffffffffffffffffe406f1ba0944d19137581467f4273e34621df57146a6ec237576cd7b8e6fd149309aa7a2aa00ba0c9c3e7061a054c01e8844ea6b5652750c63b396ec111e4fea789fc451767"
                }
            ],
            "Shanghai" : [
                {
                    "hash" : "0x0b56697ec32f2d45df2373a31c45ffe25c9a84203d41f2476b03ec59aa846b1a",
                    "indexes" : {
                        "data" : 0,
                        "gas" : 0,
                        "value" : 0
                    },
                    "logs" : "0x1dcc4de8dec75d7aab85b567b6ccd41ad312451b948a7413f0a142fd40d49347",
                    "txbytes" : "0xf9010e800a844b03b27e94095e7baea6a6c7c4c2dfeb977efac326af552d87842e97f8a3b8a87f0000000000000000000000000000000000000000000000000000000000000001207f000000000000000000000000000000000000000000000000000000000000c3507fffffffffffffffffffffffffffffffffffffffffffffffffffffffffffffffff7f000000000000000000000000000000000000000000000000000000000000c3507ffffffffffffffffffffffffffffffffffffffffffffffffffffffffffffffffe406f1ba0944d19137581467f4273e34621df57146a6ec237576cd7b8e6fd149309aa7a2aa00ba0c9c3e7061a054c01e8844ea6b5652750c63b396ec111e4fea789fc451767"
                }
            ]
        },
        "pre" : {
            "0x095e7baea6a6c7c4c2dfeb977efac326af552d87" : {
                "balance" : "0x00",
                "code" : "0x7f0000000000000000000000000000000000000000000000000000000000000001207f000000000000000000000000000000000000000000000000000000000000c3507fffffffffffffffffffffffffffffffffffffffffffffffffffffffffffffffff7f000000000000000000000000000000000000000000000000000000000000c3507ffffffffffffffffffffffffffffffffffffffffffffffffffffffffffffffffe406f",
                "nonce" : "0x00",
                "storage" : {
                }
            },
            "0x945304eb96065b2a98b57a48a06ae28d285a71b5" : {
                "balance" : "0x2e",
                "code" : "0x6000355415600957005b60203560003555",
                "nonce" : "0x00",
                "storage" : {
                }
            },
            "0xa94f5374fce5edbc8e2a8697c15331677e6ebf0b" : {
                "balance" : "0x0de0b6b3a7640000",
                "code" : "0x",
                "nonce" : "0x00",
                "storage" : {
                }
            }
        },
        "transaction" : {
            "data" : [
                "0x7f0000000000000000000000000000000000000000000000000000000000000001207f000000000000000000000000000000000000000000000000000000000000c3507fffffffffffffffffffffffffffffffffffffffffffffffffffffffffffffffff7f000000000000000000000000000000000000000000000000000000000000c3507ffffffffffffffffffffffffffffffffffffffffffffffffffffffffffffffffe406f"
            ],
            "gasLimit" : [
                "0x4b03b27e"
            ],
            "gasPrice" : "0x0a",
            "nonce" : "0x00",
            "secretKey" : "0x45a915e4d060149eb4365960e6a7a45f334393093061116b197e3240065ff2d8",
            "sender" : "0xa94f5374fce5edbc8e2a8697c15331677e6ebf0b",
            "to" : "0x095e7baea6a6c7c4c2dfeb977efac326af552d87",
            "value" : [
                "0x2e97f8a3"
            ]
        }
    }
}