{
    "randomStatetest304" : {
        "_info" : {
            "comment" : "",
            "filling-rpc-server" : "evm version 1.13.13-unstable-034bc466-20240219",
            "filling-tool-version" : "retesteth-0.3.2-cancun+commit.014a68a5.Linux.g++",
            "generatedTestHash" : "7dd0449d02a58159a1ab192af8d4a506db6efa8625ae9c4ec0eef26657baf095",
            "lllcversion" : "Version: 0.5.14-develop.2023.7.11+commit.c58ab2c6.mod.Linux.g++",
            "solidity" : "Version: 0.8.21+commit.d9974bed.Linux.g++",
            "source" : "src/GeneralStateTestsFiller/stRandom/randomStatetest304Filler.json",
            "sourceHash" : "14fec8daad601c860b12f590f6a849793acdb132999c5d48810769a95ce04c85"
        },
        "env" : {
            "currentBaseFee" : "0x0a",
            "currentCoinbase" : "0x945304eb96065b2a98b57a48a06ae28d285a71b5",
            "currentDifficulty" : "0x020000",
            "currentExcessBlobGas" : "0x00",
            "currentGasLimit" : "0x7fffffffffffffff",
            "currentNumber" : "0x01",
            "currentRandom" : "0x0000000000000000000000000000000000000000000000000000000000020000",
            "currentTimestamp" : "0x03e8"
        },
        "post" : {
            "Berlin" : [
                {
                    "hash" : "0x66391f955a9b44f6f1349c90fb0587d3b3bd615ca7e15bd13497fba43204c512",
                    "indexes" : {
                        "data" : 0,
                        "gas" : 0,
                        "value" : 0
                    },
                    "logs" : "0x1dcc4de8dec75d7aab85b567b6ccd41ad312451b948a7413f0a142fd40d49347",
                    "txbytes" : "0xf90137800a842e4c7a7b94095e7baea6a6c7c4c2dfeb977efac326af552d8784293d448fb8d17f0000000000000000000000010000000000000000000000000000000000000000a27f000000000000000000000000ffffffffffffffffffffffffffffffffffffffff167ffffffffffffffffffffffffffffffffffffffffffffffffffffffffffffffffe7f00000000000000000000000100000000000000000000000000000000000000007f000000000000000000000000ffffffffffffffffffffffffffffffffffffffff7f000000000000000000000000ffffffffffffffffffffffffffffffffffffffff42070b8c5430070bf11ba00b2bcfc4db6a9418e4897af71222d817da0eb44ebe2140f7a9c88f3b1ea1b0f8a041cdbf91642d4c374f4bd472366866afd09711e8f3ad086b6066ea01a9652016"
                }
            ],
            "Cancun" : [
                {
                    "hash" : "0xef491c65b186b2fe3f87bcfd3a2bd3ae410b5e1a876646574858e2dbadcd7394",
                    "indexes" : {
                        "data" : 0,
                        "gas" : 0,
                        "value" : 0
                    },
                    "logs" : "0x1dcc4de8dec75d7aab85b567b6ccd41ad312451b948a7413f0a142fd40d49347",
                    "txbytes" : "0xf90137800a842e4c7a7b94095e7baea6a6c7c4c2dfeb977efac326af552d8784293d448fb8d17f0000000000000000000000010000000000000000000000000000000000000000a27f000000000000000000000000ffffffffffffffffffffffffffffffffffffffff167ffffffffffffffffffffffffffffffffffffffffffffffffffffffffffffffffe7f00000000000000000000000100000000000000000000000000000000000000007f000000000000000000000000ffffffffffffffffffffffffffffffffffffffff7f000000000000000000000000ffffffffffffffffffffffffffffffffffffffff42070b8c5430070bf11ba00b2bcfc4db6a9418e4897af71222d817da0eb44ebe2140f7a9c88f3b1ea1b0f8a041cdbf91642d4c374f4bd472366866afd09711e8f3ad086b6066ea01a9652016"
                }
            ],
            "Istanbul" : [
                {
                    "hash" : "0x66391f955a9b44f6f1349c90fb0587d3b3bd615ca7e15bd13497fba43204c512",
                    "indexes" : {
                        "data" : 0,
                        "gas" : 0,
                        "value" : 0
                    },
                    "logs" : "0x1dcc4de8dec75d7aab85b567b6ccd41ad312451b948a7413f0a142fd40d49347",
                    "txbytes" : "0xf90137800a842e4c7a7b94095e7baea6a6c7c4c2dfeb977efac326af552d8784293d448fb8d17f0000000000000000000000010000000000000000000000000000000000000000a27f000000000000000000000000ffffffffffffffffffffffffffffffffffffffff167ffffffffffffffffffffffffffffffffffffffffffffffffffffffffffffffffe7f00000000000000000000000100000000000000000000000000000000000000007f000000000000000000000000ffffffffffffffffffffffffffffffffffffffff7f000000000000000000000000ffffffffffffffffffffffffffffffffffffffff42070b8c5430070bf11ba00b2bcfc4db6a9418e4897af71222d817da0eb44ebe2140f7a9c88f3b1ea1b0f8a041cdbf91642d4c374f4bd472366866afd09711e8f3ad086b6066ea01a9652016"
                }
            ],
            "London" : [
                {
                    "hash" : "0x9c7b36c8d230ab777bd22221e4465ae00585830073f52367e5b9623a28cd9dd8",
                    "indexes" : {
                        "data" : 0,
                        "gas" : 0,
                        "value" : 0
                    },
                    "logs" : "0x1dcc4de8dec75d7aab85b567b6ccd41ad312451b948a7413f0a142fd40d49347",
                    "txbytes" : "0xf90137800a842e4c7a7b94095e7baea6a6c7c4c2dfeb977efac326af552d8784293d448fb8d17f0000000000000000000000010000000000000000000000000000000000000000a27f000000000000000000000000ffffffffffffffffffffffffffffffffffffffff167ffffffffffffffffffffffffffffffffffffffffffffffffffffffffffffffffe7f00000000000000000000000100000000000000000000000000000000000000007f000000000000000000000000ffffffffffffffffffffffffffffffffffffffff7f000000000000000000000000ffffffffffffffffffffffffffffffffffffffff42070b8c5430070bf11ba00b2bcfc4db6a9418e4897af71222d817da0eb44ebe2140f7a9c88f3b1ea1b0f8a041cdbf91642d4c374f4bd472366866afd09711e8f3ad086b6066ea01a9652016"
                }
            ],
            "Paris" : [
                {
                    "hash" : "0x9c7b36c8d230ab777bd22221e4465ae00585830073f52367e5b9623a28cd9dd8",
                    "indexes" : {
                        "data" : 0,
                        "gas" : 0,
                        "value" : 0
                    },
                    "logs" : "0x1dcc4de8dec75d7aab85b567b6ccd41ad312451b948a7413f0a142fd40d49347",
                    "txbytes" : "0xf90137800a842e4c7a7b94095e7baea6a6c7c4c2dfeb977efac326af552d8784293d448fb8d17f0000000000000000000000010000000000000000000000000000000000000000a27f000000000000000000000000ffffffffffffffffffffffffffffffffffffffff167ffffffffffffffffffffffffffffffffffffffffffffffffffffffffffffffffe7f00000000000000000000000100000000000000000000000000000000000000007f000000000000000000000000ffffffffffffffffffffffffffffffffffffffff7f000000000000000000000000ffffffffffffffffffffffffffffffffffffffff42070b8c5430070bf11ba00b2bcfc4db6a9418e4897af71222d817da0eb44ebe2140f7a9c88f3b1ea1b0f8a041cdbf91642d4c374f4bd472366866afd09711e8f3ad086b6066ea01a9652016"
                }
            ],
            "Shanghai" : [
                {
                    "hash" : "0x9c7b36c8d230ab777bd22221e4465ae00585830073f52367e5b9623a28cd9dd8",
                    "indexes" : {
                        "data" : 0,
                        "gas" : 0,
                        "value" : 0
                    },
                    "logs" : "0x1dcc4de8dec75d7aab85b567b6ccd41ad312451b948a7413f0a142fd40d49347",
                    "txbytes" : "0xf90137800a842e4c7a7b94095e7baea6a6c7c4c2dfeb977efac326af552d8784293d448fb8d17f0000000000000000000000010000000000000000000000000000000000000000a27f000000000000000000000000ffffffffffffffffffffffffffffffffffffffff167ffffffffffffffffffffffffffffffffffffffffffffffffffffffffffffffffe7f00000000000000000000000100000000000000000000000000000000000000007f000000000000000000000000ffffffffffffffffffffffffffffffffffffffff7f000000000000000000000000ffffffffffffffffffffffffffffffffffffffff42070b8c5430070bf11ba00b2bcfc4db6a9418e4897af71222d817da0eb44ebe2140f7a9c88f3b1ea1b0f8a041cdbf91642d4c374f4bd472366866afd09711e8f3ad086b6066ea01a9652016"
                }
            ]
        },
        "pre" : {
            "0x000f3df6d732807ef1319fb7b8bb8522d0beac02" : {
                "balance" : "0x00",
                "code" : "0x3373fffffffffffffffffffffffffffffffffffffffe14604d57602036146024575f5ffd5b5f35801560495762001fff810690815414603c575f5ffd5b62001fff01545f5260205ff35b5f5ffd5b62001fff42064281555f359062001fff015500",
                "nonce" : "0x01",
                "storage" : {
                }
            },
            "0x095e7baea6a6c7c4c2dfeb977efac326af552d87" : {
                "balance" : "0x00",
                "code" : "0x7f0000000000000000000000010000000000000000000000000000000000000000a27f000000000000000000000000ffffffffffffffffffffffffffffffffffffffff167ffffffffffffffffffffffffffffffffffffffffffffffffffffffffffffffffe7f00000000000000000000000100000000000000000000000000000000000000007f000000000000000000000000ffffffffffffffffffffffffffffffffffffffff7f000000000000000000000000ffffffffffffffffffffffffffffffffffffffff42070b8c5430070bf15560005155",
                "nonce" : "0x00",
                "storage" : {
                }
            },
            "0x945304eb96065b2a98b57a48a06ae28d285a71b5" : {
                "balance" : "0x2e",
                "code" : "0x6000355415600957005b60203560003555",
                "nonce" : "0x00",
                "storage" : {
                }
            },
            "0xa94f5374fce5edbc8e2a8697c15331677e6ebf0b" : {
                "balance" : "0x0de0b6b3a7640000",
                "code" : "0x",
                "nonce" : "0x00",
                "storage" : {
                }
            }
        },
        "transaction" : {
            "data" : [
                "0x7f0000000000000000000000010000000000000000000000000000000000000000a27f000000000000000000000000ffffffffffffffffffffffffffffffffffffffff167ffffffffffffffffffffffffffffffffffffffffffffffffffffffffffffffffe7f00000000000000000000000100000000000000000000000000000000000000007f000000000000000000000000ffffffffffffffffffffffffffffffffffffffff7f000000000000000000000000ffffffffffffffffffffffffffffffffffffffff42070b8c5430070bf1"
            ],
            "gasLimit" : [
                "0x2e4c7a7b"
            ],
            "gasPrice" : "0x0a",
            "nonce" : "0x00",
            "secretKey" : "0x45a915e4d060149eb4365960e6a7a45f334393093061116b197e3240065ff2d8",
            "sender" : "0xa94f5374fce5edbc8e2a8697c15331677e6ebf0b",
            "to" : "0x095e7baea6a6c7c4c2dfeb977efac326af552d87",
            "value" : [
                "0x293d448f"
            ]
        }
    }
}