{
    "callToNonExistent" : {
        "_info" : {
            "comment" : "https://github.com/ethereum/tests/issues/652",
            "filling-rpc-server" : "evm version 1.13.13-unstable-034bc466-20240219",
            "filling-tool-version" : "retesteth-0.3.2-cancun+commit.014a68a5.Linux.g++",
            "generatedTestHash" : "8c869a604ff75b7847d440cf923ba14bd2138b65dfd3a1a6caa11d3173053d86",
            "lllcversion" : "Version: 0.5.14-develop.2023.7.11+commit.c58ab2c6.mod.Linux.g++",
            "solidity" : "Version: 0.8.21+commit.d9974bed.Linux.g++",
            "source" : "src/GeneralStateTestsFiller/stExtCodeHash/callToNonExistentFiller.json",
            "sourceHash" : "abf03cd1a4323f9a78d08ad42bfd6b62e0b980f889b8b7b63e2631b738529d44"
        },
        "env" : {
            "currentBaseFee" : "0x0a",
            "currentCoinbase" : "0x2adc25665018aa1fe0e6bc666dac8fc2697ff9ba",
            "currentDifficulty" : "0x020000",
            "currentExcessBlobGas" : "0x00",
            "currentGasLimit" : "0xb2d05e00",
            "currentNumber" : "0x01",
            "currentRandom" : "0x0000000000000000000000000000000000000000000000000000000000020000",
            "currentTimestamp" : "0x03e8"
        },
        "post" : {
            "Berlin" : [
                {
                    "hash" : "0xc6536fe296a62c4a6fa2021c59707791bfaa4e175c15e2a3e2e7262d67662e7b",
                    "indexes" : {
                        "data" : 0,
                        "gas" : 0,
                        "value" : 0
                    },
                    "logs" : "0x1dcc4de8dec75d7aab85b567b6ccd41ad312451b948a7413f0a142fd40d49347",
                    "txbytes" : "0xf880800a830186a094100000000000000000000000000000000000000001a000000000000000000000000010000000000000000000000000000000000000011ca07c083b036be3a2e160151e89a1c9253049fe80fb916fb44f1ed5dd2c27f8e63da04a1e1e46aa1f22836f2223ba6d6380f918b6e71620dc77caddd45bbffb526b4e"
                },
                {
                    "hash" : "0xc6536fe296a62c4a6fa2021c59707791bfaa4e175c15e2a3e2e7262d67662e7b",
                    "indexes" : {
                        "data" : 1,
                        "gas" : 0,
                        "value" : 0
                    },
                    "logs" : "0x1dcc4de8dec75d7aab85b567b6ccd41ad312451b948a7413f0a142fd40d49347",
                    "txbytes" : "0xf880800a830186a094100000000000000000000000000000000000000001a000000000000000000000000020000000000000000000000000000000000000011ba007880ac8844b66fc4a9c7599d8fafdfd42bcfb098665e854b1f355bb3bb59795a003fcdf76e6661ed9b8da69fb8d203672a120f4c5e54d1836c2818f7225922cf1"
                },
                {
                    "hash" : "0x529aafb4fec08c523ff3e22018bc38f3bf086be3d82a82c6d750d5d91ef67601",
                    "indexes" : {
                        "data" : 2,
                        "gas" : 0,
                        "value" : 0
                    },
                    "logs" : "0x1dcc4de8dec75d7aab85b567b6ccd41ad312451b948a7413f0a142fd40d49347",
                    "txbytes" : "0xf880800a830186a094100000000000000000000000000000000000000001a000000000000000000000000030000000000000000000000000000000000000011ca0ee5a124738fe45bfe6f7033bc18a47894d051562826706ef514be677ab76026ca05a37a5aaa2a104cb2d19e45530b98076375d9f61e1a6b21e8e6f3922c02bbc2f"
                },
                {
                    "hash" : "0x529aafb4fec08c523ff3e22018bc38f3bf086be3d82a82c6d750d5d91ef67601",
                    "indexes" : {
                        "data" : 3,
                        "gas" : 0,
                        "value" : 0
                    },
                    "logs" : "0x1dcc4de8dec75d7aab85b567b6ccd41ad312451b948a7413f0a142fd40d49347",
                    "txbytes" : "0xf880800a830186a094100000000000000000000000000000000000000001a000000000000000000000000040000000000000000000000000000000000000011ba0a48163c9728cdb95c26a49faafe02e2ca5c9ff4e44470fe3498544a412d02fd0a012a2ed928c2f0a08ff3a57eea09d87b797fe56d678aa2bd732238395d5cf56a5"
                }
            ],
            "Cancun" : [
                {
                    "hash" : "0xaca3ec886b56d8df5bee6ddd5e478647a15fb272f2d7649ce037d4adc95e1284",
                    "indexes" : {
                        "data" : 0,
                        "gas" : 0,
                        "value" : 0
                    },
                    "logs" : "0x1dcc4de8dec75d7aab85b567b6ccd41ad312451b948a7413f0a142fd40d49347",
                    "txbytes" : "0xf880800a830186a094100000000000000000000000000000000000000001a000000000000000000000000010000000000000000000000000000000000000011ca07c083b036be3a2e160151e89a1c9253049fe80fb916fb44f1ed5dd2c27f8e63da04a1e1e46aa1f22836f2223ba6d6380f918b6e71620dc77caddd45bbffb526b4e"
                },
                {
                    "hash" : "0xaca3ec886b56d8df5bee6ddd5e478647a15fb272f2d7649ce037d4adc95e1284",
                    "indexes" : {
                        "data" : 1,
                        "gas" : 0,
                        "value" : 0
                    },
                    "logs" : "0x1dcc4de8dec75d7aab85b567b6ccd41ad312451b948a7413f0a142fd40d49347",
                    "txbytes" : "0xf880800a830186a094100000000000000000000000000000000000000001a000000000000000000000000020000000000000000000000000000000000000011ba007880ac8844b66fc4a9c7599d8fafdfd42bcfb098665e854b1f355bb3bb59795a003fcdf76e6661ed9b8da69fb8d203672a120f4c5e54d1836c2818f7225922cf1"
                },
                {
                    "hash" : "0xc85e20f456dd9f5c6d310a7719daa9bd00aaa2a1aa1fbbf06b4f371d0c0d56b9",
                    "indexes" : {
                        "data" : 2,
                        "gas" : 0,
                        "value" : 0
                    },
                    "logs" : "0x1dcc4de8dec75d7aab85b567b6ccd41ad312451b948a7413f0a142fd40d49347",
                    "txbytes" : "0xf880800a830186a094100000000000000000000000000000000000000001a000000000000000000000000030000000000000000000000000000000000000011ca0ee5a124738fe45bfe6f7033bc18a47894d051562826706ef514be677ab76026ca05a37a5aaa2a104cb2d19e45530b98076375d9f61e1a6b21e8e6f3922c02bbc2f"
                },
                {
                    "hash" : "0xc85e20f456dd9f5c6d310a7719daa9bd00aaa2a1aa1fbbf06b4f371d0c0d56b9",
                    "indexes" : {
                        "data" : 3,
                        "gas" : 0,
                        "value" : 0
                    },
                    "logs" : "0x1dcc4de8dec75d7aab85b567b6ccd41ad312451b948a7413f0a142fd40d49347",
                    "txbytes" : "0xf880800a830186a094100000000000000000000000000000000000000001a000000000000000000000000040000000000000000000000000000000000000011ba0a48163c9728cdb95c26a49faafe02e2ca5c9ff4e44470fe3498544a412d02fd0a012a2ed928c2f0a08ff3a57eea09d87b797fe56d678aa2bd732238395d5cf56a5"
                }
            ],
            "Istanbul" : [
                {
                    "hash" : "0x67a2c77e6e0ed8fb5d6cb470676ccf8766e9a895f20a84d47f5bbb83ae04ee9c",
                    "indexes" : {
                        "data" : 0,
                        "gas" : 0,
                        "value" : 0
                    },
                    "logs" : "0x1dcc4de8dec75d7aab85b567b6ccd41ad312451b948a7413f0a142fd40d49347",
                    "txbytes" : "0xf880800a830186a094100000000000000000000000000000000000000001a000000000000000000000000010000000000000000000000000000000000000011ca07c083b036be3a2e160151e89a1c9253049fe80fb916fb44f1ed5dd2c27f8e63da04a1e1e46aa1f22836f2223ba6d6380f918b6e71620dc77caddd45bbffb526b4e"
                },
                {
                    "hash" : "0x67a2c77e6e0ed8fb5d6cb470676ccf8766e9a895f20a84d47f5bbb83ae04ee9c",
                    "indexes" : {
                        "data" : 1,
                        "gas" : 0,
                        "value" : 0
                    },
                    "logs" : "0x1dcc4de8dec75d7aab85b567b6ccd41ad312451b948a7413f0a142fd40d49347",
                    "txbytes" : "0xf880800a830186a094100000000000000000000000000000000000000001a000000000000000000000000020000000000000000000000000000000000000011ba007880ac8844b66fc4a9c7599d8fafdfd42bcfb098665e854b1f355bb3bb59795a003fcdf76e6661ed9b8da69fb8d203672a120f4c5e54d1836c2818f7225922cf1"
                },
                {
                    "hash" : "0x7e3685860cf0202080965c8191f15af15b03e0d6e216c3b2da4d2fc668de3304",
                    "indexes" : {
                        "data" : 2,
                        "gas" : 0,
                        "value" : 0
                    },
                    "logs" : "0x1dcc4de8dec75d7aab85b567b6ccd41ad312451b948a7413f0a142fd40d49347",
                    "txbytes" : "0xf880800a830186a094100000000000000000000000000000000000000001a000000000000000000000000030000000000000000000000000000000000000011ca0ee5a124738fe45bfe6f7033bc18a47894d051562826706ef514be677ab76026ca05a37a5aaa2a104cb2d19e45530b98076375d9f61e1a6b21e8e6f3922c02bbc2f"
                },
                {
                    "hash" : "0x7e3685860cf0202080965c8191f15af15b03e0d6e216c3b2da4d2fc668de3304",
                    "indexes" : {
                        "data" : 3,
                        "gas" : 0,
                        "value" : 0
                    },
                    "logs" : "0x1dcc4de8dec75d7aab85b567b6ccd41ad312451b948a7413f0a142fd40d49347",
                    "txbytes" : "0xf880800a830186a094100000000000000000000000000000000000000001a000000000000000000000000040000000000000000000000000000000000000011ba0a48163c9728cdb95c26a49faafe02e2ca5c9ff4e44470fe3498544a412d02fd0a012a2ed928c2f0a08ff3a57eea09d87b797fe56d678aa2bd732238395d5cf56a5"
                }
            ],
            "London" : [
                {
                    "hash" : "0x718476447f2106c2e1b0b20c574301f87cb89030b9d16af2e891a07fd038f013",
                    "indexes" : {
                        "data" : 0,
                        "gas" : 0,
                        "value" : 0
                    },
                    "logs" : "0x1dcc4de8dec75d7aab85b567b6ccd41ad312451b948a7413f0a142fd40d49347",
                    "txbytes" : "0xf880800a830186a094100000000000000000000000000000000000000001a000000000000000000000000010000000000000000000000000000000000000011ca07c083b036be3a2e160151e89a1c9253049fe80fb916fb44f1ed5dd2c27f8e63da04a1e1e46aa1f22836f2223ba6d6380f918b6e71620dc77caddd45bbffb526b4e"
                },
                {
                    "hash" : "0x718476447f2106c2e1b0b20c574301f87cb89030b9d16af2e891a07fd038f013",
                    "indexes" : {
                        "data" : 1,
                        "gas" : 0,
                        "value" : 0
                    },
                    "logs" : "0x1dcc4de8dec75d7aab85b567b6ccd41ad312451b948a7413f0a142fd40d49347",
                    "txbytes" : "0xf880800a830186a094100000000000000000000000000000000000000001a000000000000000000000000020000000000000000000000000000000000000011ba007880ac8844b66fc4a9c7599d8fafdfd42bcfb098665e854b1f355bb3bb59795a003fcdf76e6661ed9b8da69fb8d203672a120f4c5e54d1836c2818f7225922cf1"
                },
                {
                    "hash" : "0x4f72b50acb12e4807b8e301d3521444c869e5caef8ed1d5d5fe0f6b57bf5f2b8",
                    "indexes" : {
                        "data" : 2,
                        "gas" : 0,
                        "value" : 0
                    },
                    "logs" : "0x1dcc4de8dec75d7aab85b567b6ccd41ad312451b948a7413f0a142fd40d49347",
                    "txbytes" : "0xf880800a830186a094100000000000000000000000000000000000000001a000000000000000000000000030000000000000000000000000000000000000011ca0ee5a124738fe45bfe6f7033bc18a47894d051562826706ef514be677ab76026ca05a37a5aaa2a104cb2d19e45530b98076375d9f61e1a6b21e8e6f3922c02bbc2f"
                },
                {
                    "hash" : "0x4f72b50acb12e4807b8e301d3521444c869e5caef8ed1d5d5fe0f6b57bf5f2b8",
                    "indexes" : {
                        "data" : 3,
                        "gas" : 0,
                        "value" : 0
                    },
                    "logs" : "0x1dcc4de8dec75d7aab85b567b6ccd41ad312451b948a7413f0a142fd40d49347",
                    "txbytes" : "0xf880800a830186a094100000000000000000000000000000000000000001a000000000000000000000000040000000000000000000000000000000000000011ba0a48163c9728cdb95c26a49faafe02e2ca5c9ff4e44470fe3498544a412d02fd0a012a2ed928c2f0a08ff3a57eea09d87b797fe56d678aa2bd732238395d5cf56a5"
                }
            ],
            "Paris" : [
                {
                    "hash" : "0x718476447f2106c2e1b0b20c574301f87cb89030b9d16af2e891a07fd038f013",
                    "indexes" : {
                        "data" : 0,
                        "gas" : 0,
                        "value" : 0
                    },
                    "logs" : "0x1dcc4de8dec75d7aab85b567b6ccd41ad312451b948a7413f0a142fd40d49347",
                    "txbytes" : "0xf880800a830186a094100000000000000000000000000000000000000001a000000000000000000000000010000000000000000000000000000000000000011ca07c083b036be3a2e160151e89a1c9253049fe80fb916fb44f1ed5dd2c27f8e63da04a1e1e46aa1f22836f2223ba6d6380f918b6e71620dc77caddd45bbffb526b4e"
                },
                {
                    "hash" : "0x718476447f2106c2e1b0b20c574301f87cb89030b9d16af2e891a07fd038f013",
                    "indexes" : {
                        "data" : 1,
                        "gas" : 0,
                        "value" : 0
                    },
                    "logs" : "0x1dcc4de8dec75d7aab85b567b6ccd41ad312451b948a7413f0a142fd40d49347",
                    "txbytes" : "0xf880800a830186a094100000000000000000000000000000000000000001a000000000000000000000000020000000000000000000000000000000000000011ba007880ac8844b66fc4a9c7599d8fafdfd42bcfb098665e854b1f355bb3bb59795a003fcdf76e6661ed9b8da69fb8d203672a120f4c5e54d1836c2818f7225922cf1"
                },
                {
                    "hash" : "0x4f72b50acb12e4807b8e301d3521444c869e5caef8ed1d5d5fe0f6b57bf5f2b8",
                    "indexes" : {
                        "data" : 2,
                        "gas" : 0,
                        "value" : 0
                    },
                    "logs" : "0x1dcc4de8dec75d7aab85b567b6ccd41ad312451b948a7413f0a142fd40d49347",
                    "txbytes" : "0xf880800a830186a094100000000000000000000000000000000000000001a000000000000000000000000030000000000000000000000000000000000000011ca0ee5a124738fe45bfe6f7033bc18a47894d051562826706ef514be677ab76026ca05a37a5aaa2a104cb2d19e45530b98076375d9f61e1a6b21e8e6f3922c02bbc2f"
                },
                {
                    "hash" : "0x4f72b50acb12e4807b8e301d3521444c869e5caef8ed1d5d5fe0f6b57bf5f2b8",
                    "indexes" : {
                        "data" : 3,
                        "gas" : 0,
                        "value" : 0
                    },
                    "logs" : "0x1dcc4de8dec75d7aab85b567b6ccd41ad312451b948a7413f0a142fd40d49347",
                    "txbytes" : "0xf880800a830186a094100000000000000000000000000000000000000001a000000000000000000000000040000000000000000000000000000000000000011ba0a48163c9728cdb95c26a49faafe02e2ca5c9ff4e44470fe3498544a412d02fd0a012a2ed928c2f0a08ff3a57eea09d87b797fe56d678aa2bd732238395d5cf56a5"
                }
            ],
            "Shanghai" : [
                {
                    "hash" : "0x718476447f2106c2e1b0b20c574301f87cb89030b9d16af2e891a07fd038f013",
                    "indexes" : {
                        "data" : 0,
                        "gas" : 0,
                        "value" : 0
                    },
                    "logs" : "0x1dcc4de8dec75d7aab85b567b6ccd41ad312451b948a7413f0a142fd40d49347",
                    "txbytes" : "0xf880800a830186a094100000000000000000000000000000000000000001a000000000000000000000000010000000000000000000000000000000000000011ca07c083b036be3a2e160151e89a1c9253049fe80fb916fb44f1ed5dd2c27f8e63da04a1e1e46aa1f22836f2223ba6d6380f918b6e71620dc77caddd45bbffb526b4e"
                },
                {
                    "hash" : "0x718476447f2106c2e1b0b20c574301f87cb89030b9d16af2e891a07fd038f013",
                    "indexes" : {
                        "data" : 1,
                        "gas" : 0,
                        "value" : 0
                    },
                    "logs" : "0x1dcc4de8dec75d7aab85b567b6ccd41ad312451b948a7413f0a142fd40d49347",
                    "txbytes" : "0xf880800a830186a094100000000000000000000000000000000000000001a000000000000000000000000020000000000000000000000000000000000000011ba007880ac8844b66fc4a9c7599d8fafdfd42bcfb098665e854b1f355bb3bb59795a003fcdf76e6661ed9b8da69fb8d203672a120f4c5e54d1836c2818f7225922cf1"
                },
                {
                    "hash" : "0x4f72b50acb12e4807b8e301d3521444c869e5caef8ed1d5d5fe0f6b57bf5f2b8",
                    "indexes" : {
                        "data" : 2,
                        "gas" : 0,
                        "value" : 0
                    },
                    "logs" : "0x1dcc4de8dec75d7aab85b567b6ccd41ad312451b948a7413f0a142fd40d49347",
                    "txbytes" : "0xf880800a830186a094100000000000000000000000000000000000000001a000000000000000000000000030000000000000000000000000000000000000011ca0ee5a124738fe45bfe6f7033bc18a47894d051562826706ef514be677ab76026ca05a37a5aaa2a104cb2d19e45530b98076375d9f61e1a6b21e8e6f3922c02bbc2f"
                },
                {
                    "hash" : "0x4f72b50acb12e4807b8e301d3521444c869e5caef8ed1d5d5fe0f6b57bf5f2b8",
                    "indexes" : {
                        "data" : 3,
                        "gas" : 0,
                        "value" : 0
                    },
                    "logs" : "0x1dcc4de8dec75d7aab85b567b6ccd41ad312451b948a7413f0a142fd40d49347",
                    "txbytes" : "0xf880800a830186a094100000000000000000000000000000000000000001a000000000000000000000000040000000000000000000000000000000000000011ba0a48163c9728cdb95c26a49faafe02e2ca5c9ff4e44470fe3498544a412d02fd0a012a2ed928c2f0a08ff3a57eea09d87b797fe56d678aa2bd732238395d5cf56a5"
                }
            ]
        },
        "pre" : {
            "0x000f3df6d732807ef1319fb7b8bb8522d0beac02" : {
                "balance" : "0x00",
                "code" : "0x3373fffffffffffffffffffffffffffffffffffffffe14604d57602036146024575f5ffd5b5f35801560495762001fff810690815414603c575f5ffd5b62001fff01545f5260205ff35b5f5ffd5b62001fff42064281555f359062001fff015500",
                "nonce" : "0x01",
                "storage" : {
                }
            },
            "0x1000000000000000000000000000000000000000" : {
                "balance" : "0x00",
                "code" : "0x604060006040600060006000355af200",
                "nonce" : "0x00",
                "storage" : {
                    "0x01" : "0x1122"
                }
            },
            "0x1000000000000000000000000000000000000001" : {
                "balance" : "0x00",
                "code" : "0x6000600060006000600073dead0000000000000000000000000000000000016161a8f160005573dead0000000000000000000000000000000000013f60015500",
                "nonce" : "0x00",
                "storage" : {
                }
            },
            "0x2000000000000000000000000000000000000001" : {
                "balance" : "0x00",
                "code" : "0x6000600060006000600073dead0000000000000000000000000000000000016161a8f260005573dead0000000000000000000000000000000000013f60015500",
                "nonce" : "0x00",
                "storage" : {
                }
            },
            "0x3000000000000000000000000000000000000001" : {
                "balance" : "0x00",
                "code" : "0x600060006000600073dead0000000000000000000000000000000000016161a8f460005573dead0000000000000000000000000000000000013f60015500",
                "nonce" : "0x00",
                "storage" : {
                }
            },
            "0x4000000000000000000000000000000000000001" : {
                "balance" : "0x00",
                "code" : "0x600060006000600073dead0000000000000000000000000000000000016161a8fa60005573dead0000000000000000000000000000000000013f60015500",
                "nonce" : "0x00",
                "storage" : {
                }
            },
            "0xa94f5374fce5edbc8e2a8697c15331677e6ebf0b" : {
                "balance" : "0x0de0b6b3a7640000",
                "code" : "0x",
                "nonce" : "0x00",
                "storage" : {
                }
            }
        },
        "transaction" : {
            "data" : [
                "0x0000000000000000000000001000000000000000000000000000000000000001",
                "0x0000000000000000000000002000000000000000000000000000000000000001",
                "0x0000000000000000000000003000000000000000000000000000000000000001",
                "0x0000000000000000000000004000000000000000000000000000000000000001"
            ],
            "gasLimit" : [
                "0x0186a0"
            ],
            "gasPrice" : "0x0a",
            "nonce" : "0x00",
            "secretKey" : "0x45a915e4d060149eb4365960e6a7a45f334393093061116b197e3240065ff2d8",
            "sender" : "0xa94f5374fce5edbc8e2a8697c15331677e6ebf0b",
            "to" : "0x1000000000000000000000000000000000000000",
            "value" : [
                "0x01"
            ]
        }
    }
}