{
    "randomStatetest331BC_Byzantium" : {
        "_info" : {
            "comment" : "",
            "filledwith" : "cpp-1.3.0+commit.6e0ce939.Linux.g++",
            "lllcversion" : "Version: 0.4.18-develop.2017.9.25+commit.a72237f2.Linux.g++",
            "source" : "src/BlockchainTestsFiller/bcRandomBlockhashTest/randomStatetest331BCFiller.json",
            "sourceHash" : "e1aed650f48e3d16e7f90111a6cd2895921ae450ff890c531b25af6c6eb3d388"
        },
        "blocks" : [
            {
                "blockHeader" : {
                    "bloom" : "0x00000000000000000000000000000000000000000000000000000000000000000000000000000000000000000000000000000000000000000000000000000000000000000000000000000000000000000000000000000000000000000000000000000000000000000000000000000000000000000000000000000000000000000000000000000000000000000000000000000000000000000000000000000000000000000000000000000000000000000000000000000000000000000000000000000000000000000000000000000000000000000000000000000000000000000000000000000000000000000000000000000000000000000000000000000000",
                    "coinbase" : "0x945304eb96065b2a98b57a48a06ae28d285a71b5",
                    "difficulty" : "0x020000",
                    "extraData" : "",
                    "gasLimit" : "0x7fffffffffffffff",
                    "gasUsed" : "0xb04d",
                    "hash" : "0x76de4bde8351e8fa21c76a36dcdf2ebe1797fb4bdf76e231a14d2d4c416cdefd",
                    "mixHash" : "0x76c9dc1d4c88f193b77e22c6865f5872ea79d98092a270351e0f830ec915f3b6",
                    "nonce" : "0xb5154e7122c9ca05",
                    "number" : "0x01",
                    "parentHash" : "0xa8350477a60c8792887859543ccc5185c33d92594ce75de07caf2e28e8ee2d27",
                    "receiptTrie" : "0x622ce7ee2828b28799128a6ce0da0d26852154d528f8225b7fd81b6f870c0749",
                    "stateRoot" : "0x45caf96cd034940c4bc30bc2d9a4b3a15646a7806f2402967b6ecb39aa4517bd",
                    "timestamp" : "0x03e8",
                    "transactionsTrie" : "0x8212e4c00b99117a9d4fd2186431072d4cdd08869784757c9c49195c4b4665b7",
                    "uncleHash" : "0x1dcc4de8dec75d7aab85b567b6ccd41ad312451b948a7413f0a142fd40d49347"
                },
                "rlp" : "0xf90316f901fca0a8350477a60c8792887859543ccc5185c33d92594ce75de07caf2e28e8ee2d27a01dcc4de8dec75d7aab85b567b6ccd41ad312451b948a7413f0a142fd40d4934794945304eb96065b2a98b57a48a06ae28d285a71b5a045caf96cd034940c4bc30bc2d9a4b3a15646a7806f2402967b6ecb39aa4517bda08212e4c00b99117a9d4fd2186431072d4cdd08869784757c9c49195c4b4665b7a0622ce7ee2828b28799128a6ce0da0d26852154d528f8225b7fd81b6f870c0749b90100000000000000000000000000000000000000000000000000000000000000000000000000000000000000000000000000000000000000000000000000000000000000000000000000000000000000000000000000000000000000000000000000000000000000000000000000000000000000000000000000000000000000000000000000000000000000000000000000000000000000000000000000000000000000000000000000000000000000000000000000000000000000000000000000000000000000000000000000000000000000000000000000000000000000000000000000000000000000000000000000000000000000000000000000000000008302000001887fffffffffffffff82b04d8203e880a076c9dc1d4c88f193b77e22c6865f5872ea79d98092a270351e0f830ec915f3b688b5154e7122c9ca05f90113f9011080018446cdc80094095e7baea6a6c7c4c2dfeb977efac326af552d878457cbfdd8b8aa7f000000000000000000000000ffffffffffffffffffffffffffffffffffffffff7f000000000000000000000000945304eb96065b2a98b57a48a06ae28d285a71b5067f0000000000000000000000000000000000000000000000000000000000000000407f000000000000000000000000000000000000000000000000000000000000c350427f00000000000000000000000000000000000000000000000000000000000000013a091ba0fad2921118d24da085bd30da963ed847e6fd782a9521677430169a87c2b7b630a019f13a92f98dc4b4b07e58d7df862896595eb00e73e0b13e930c5d0cc7de412dc0",
                "transactions" : [
                    {
                        "data" : "0x7f000000000000000000000000ffffffffffffffffffffffffffffffffffffffff7f000000000000000000000000945304eb96065b2a98b57a48a06ae28d285a71b5067f0000000000000000000000000000000000000000000000000000000000000000407f000000000000000000000000000000000000000000000000000000000000c350427f00000000000000000000000000000000000000000000000000000000000000013a09",
                        "gasLimit" : "0x46cdc800",
                        "gasPrice" : "0x01",
                        "nonce" : "0x00",
                        "r" : "0xfad2921118d24da085bd30da963ed847e6fd782a9521677430169a87c2b7b630",
                        "s" : "0x19f13a92f98dc4b4b07e58d7df862896595eb00e73e0b13e930c5d0cc7de412d",
                        "to" : "0x095e7baea6a6c7c4c2dfeb977efac326af552d87",
                        "v" : "0x1b",
                        "value" : "0x57cbfdd8"
                    }
                ],
                "uncleHeaders" : [
                ]
            }
        ],
        "genesisBlockHeader" : {
            "bloom" : "0x00000000000000000000000000000000000000000000000000000000000000000000000000000000000000000000000000000000000000000000000000000000000000000000000000000000000000000000000000000000000000000000000000000000000000000000000000000000000000000000000000000000000000000000000000000000000000000000000000000000000000000000000000000000000000000000000000000000000000000000000000000000000000000000000000000000000000000000000000000000000000000000000000000000000000000000000000000000000000000000000000000000000000000000000000000000",
            "coinbase" : "0x945304eb96065b2a98b57a48a06ae28d285a71b5",
            "difficulty" : "0x020000",
            "extraData" : "0x42",
            "gasLimit" : "0x7fffffffffffffff",
            "gasUsed" : "0x00",
            "hash" : "0xa8350477a60c8792887859543ccc5185c33d92594ce75de07caf2e28e8ee2d27",
            "mixHash" : "0x56e81f171bcc55a6ff8345e692c0f86e5b48e01b996cadc001622fb5e363b421",
            "nonce" : "0x0102030405060708",
            "number" : "0x00",
            "parentHash" : "0x0000000000000000000000000000000000000000000000000000000000000000",
            "receiptTrie" : "0x56e81f171bcc55a6ff8345e692c0f86e5b48e01b996cadc001622fb5e363b421",
            "stateRoot" : "0x97f79e05ce7620b04045aa55fbe2f15f62cdadfd82ce4f9666203dc10ca1d767",
            "timestamp" : "0x03b6",
            "transactionsTrie" : "0x56e81f171bcc55a6ff8345e692c0f86e5b48e01b996cadc001622fb5e363b421",
            "uncleHash" : "0x1dcc4de8dec75d7aab85b567b6ccd41ad312451b948a7413f0a142fd40d49347"
        },
        "genesisRLP" : "0xf901fff901faa00000000000000000000000000000000000000000000000000000000000000000a01dcc4de8dec75d7aab85b567b6ccd41ad312451b948a7413f0a142fd40d4934794945304eb96065b2a98b57a48a06ae28d285a71b5a097f79e05ce7620b04045aa55fbe2f15f62cdadfd82ce4f9666203dc10ca1d767a056e81f171bcc55a6ff8345e692c0f86e5b48e01b996cadc001622fb5e363b421a056e81f171bcc55a6ff8345e692c0f86e5b48e01b996cadc001622fb5e363b421b90100000000000000000000000000000000000000000000000000000000000000000000000000000000000000000000000000000000000000000000000000000000000000000000000000000000000000000000000000000000000000000000000000000000000000000000000000000000000000000000000000000000000000000000000000000000000000000000000000000000000000000000000000000000000000000000000000000000000000000000000000000000000000000000000000000000000000000000000000000000000000000000000000000000000000000000000000000000000000000000000000000000000000000000000000000000008302000080887fffffffffffffff808203b642a056e81f171bcc55a6ff8345e692c0f86e5b48e01b996cadc001622fb5e363b421880102030405060708c0c0",
        "lastblockhash" : "0x76de4bde8351e8fa21c76a36dcdf2ebe1797fb4bdf76e231a14d2d4c416cdefd",
        "network" : "Byzantium",
        "postState" : {
            "0x095e7baea6a6c7c4c2dfeb977efac326af552d87" : {
                "balance" : "0x57cbfdd8",
                "code" : "0x7f000000000000000000000000ffffffffffffffffffffffffffffffffffffffff7f000000000000000000000000945304eb96065b2a98b57a48a06ae28d285a71b5067f0000000000000000000000000000000000000000000000000000000000000000407f000000000000000000000000000000000000000000000000000000000000c350427f00000000000000000000000000000000000000000000000000000000000000013a0960005155",
                "nonce" : "0x00",
                "storage" : {
                    "0x00" : "0x01"
                }
            },
            "0x945304eb96065b2a98b57a48a06ae28d285a71b5" : {
                "balance" : "0x29a2241af62cb07b",
                "code" : "0x6000355415600957005b60203560003555",
                "nonce" : "0x00",
                "storage" : {
                }
            },
            "0xa94f5374fce5edbc8e2a8697c15331677e6ebf0b" : {
                "balance" : "0x0de0b6b34f9751db",
                "code" : "",
                "nonce" : "0x01",
                "storage" : {
                }
            }
        },
        "pre" : {
            "0x095e7baea6a6c7c4c2dfeb977efac326af552d87" : {
                "balance" : "0x00",
                "code" : "0x7f000000000000000000000000ffffffffffffffffffffffffffffffffffffffff7f000000000000000000000000945304eb96065b2a98b57a48a06ae28d285a71b5067f0000000000000000000000000000000000000000000000000000000000000000407f000000000000000000000000000000000000000000000000000000000000c350427f00000000000000000000000000000000000000000000000000000000000000013a0960005155",
                "nonce" : "0x00",
                "storage" : {
                }
            },
            "0x945304eb96065b2a98b57a48a06ae28d285a71b5" : {
                "balance" : "0x2e",
                "code" : "0x6000355415600957005b60203560003555",
                "nonce" : "0x00",
                "storage" : {
                }
            },
            "0xa94f5374fce5edbc8e2a8697c15331677e6ebf0b" : {
                "balance" : "0x0de0b6b3a7640000",
                "code" : "",
                "nonce" : "0x00",
                "storage" : {
                }
            }
        }
    },
    "randomStatetest331BC_EIP150" : {
        "_info" : {
            "comment" : "",
            "filledwith" : "cpp-1.3.0+commit.6e0ce939.Linux.g++",
            "lllcversion" : "Version: 0.4.18-develop.2017.9.25+commit.a72237f2.Linux.g++",
            "source" : "src/BlockchainTestsFiller/bcRandomBlockhashTest/randomStatetest331BCFiller.json",
            "sourceHash" : "e1aed650f48e3d16e7f90111a6cd2895921ae450ff890c531b25af6c6eb3d388"
        },
        "blocks" : [
            {
                "blockHeader" : {
                    "bloom" : "0x00000000000000000000000000000000000000000000000000000000000000000000000000000000000000000000000000000000000000000000000000000000000000000000000000000000000000000000000000000000000000000000000000000000000000000000000000000000000000000000000000000000000000000000000000000000000000000000000000000000000000000000000000000000000000000000000000000000000000000000000000000000000000000000000000000000000000000000000000000000000000000000000000000000000000000000000000000000000000000000000000000000000000000000000000000000",
                    "coinbase" : "0x945304eb96065b2a98b57a48a06ae28d285a71b5",
                    "difficulty" : "0x020000",
                    "extraData" : "",
                    "gasLimit" : "0x7fffffffffffffff",
                    "gasUsed" : "0xb04d",
                    "hash" : "0xbc0fd9ec8ad863537587827bf3625af779af334a808f71e372f2697877304f41",
                    "mixHash" : "0xf0c940ac9f5afecd3be93b6e24c8d3e4b48582b68c632c7dac93bb9726a9f27c",
                    "nonce" : "0x1988fba05444b7f5",
                    "number" : "0x01",
                    "parentHash" : "0xa8350477a60c8792887859543ccc5185c33d92594ce75de07caf2e28e8ee2d27",
                    "receiptTrie" : "0x45bf1468bbb3fa2f0bf381fadf41330c7e80014f7e3f0dc2136110d083e398be",
                    "stateRoot" : "0x5c02f8948a5ce578da2f25f1e59b590ab1ab30c6f3d4ffa7c0db1cc10187d2a3",
                    "timestamp" : "0x03e8",
                    "transactionsTrie" : "0x8212e4c00b99117a9d4fd2186431072d4cdd08869784757c9c49195c4b4665b7",
                    "uncleHash" : "0x1dcc4de8dec75d7aab85b567b6ccd41ad312451b948a7413f0a142fd40d49347"
                },
                "rlp" : "0xf90316f901fca0a8350477a60c8792887859543ccc5185c33d92594ce75de07caf2e28e8ee2d27a01dcc4de8dec75d7aab85b567b6ccd41ad312451b948a7413f0a142fd40d4934794945304eb96065b2a98b57a48a06ae28d285a71b5a05c02f8948a5ce578da2f25f1e59b590ab1ab30c6f3d4ffa7c0db1cc10187d2a3a08212e4c00b99117a9d4fd2186431072d4cdd08869784757c9c49195c4b4665b7a045bf1468bbb3fa2f0bf381fadf41330c7e80014f7e3f0dc2136110d083e398beb90100000000000000000000000000000000000000000000000000000000000000000000000000000000000000000000000000000000000000000000000000000000000000000000000000000000000000000000000000000000000000000000000000000000000000000000000000000000000000000000000000000000000000000000000000000000000000000000000000000000000000000000000000000000000000000000000000000000000000000000000000000000000000000000000000000000000000000000000000000000000000000000000000000000000000000000000000000000000000000000000000000000000000000000000000000000008302000001887fffffffffffffff82b04d8203e880a0f0c940ac9f5afecd3be93b6e24c8d3e4b48582b68c632c7dac93bb9726a9f27c881988fba05444b7f5f90113f9011080018446cdc80094095e7baea6a6c7c4c2dfeb977efac326af552d878457cbfdd8b8aa7f000000000000000000000000ffffffffffffffffffffffffffffffffffffffff7f000000000000000000000000945304eb96065b2a98b57a48a06ae28d285a71b5067f0000000000000000000000000000000000000000000000000000000000000000407f000000000000000000000000000000000000000000000000000000000000c350427f00000000000000000000000000000000000000000000000000000000000000013a091ba0fad2921118d24da085bd30da963ed847e6fd782a9521677430169a87c2b7b630a019f13a92f98dc4b4b07e58d7df862896595eb00e73e0b13e930c5d0cc7de412dc0",
                "transactions" : [
                    {
                        "data" : "0x7f000000000000000000000000ffffffffffffffffffffffffffffffffffffffff7f000000000000000000000000945304eb96065b2a98b57a48a06ae28d285a71b5067f0000000000000000000000000000000000000000000000000000000000000000407f000000000000000000000000000000000000000000000000000000000000c350427f00000000000000000000000000000000000000000000000000000000000000013a09",
                        "gasLimit" : "0x46cdc800",
                        "gasPrice" : "0x01",
                        "nonce" : "0x00",
                        "r" : "0xfad2921118d24da085bd30da963ed847e6fd782a9521677430169a87c2b7b630",
                        "s" : "0x19f13a92f98dc4b4b07e58d7df862896595eb00e73e0b13e930c5d0cc7de412d",
                        "to" : "0x095e7baea6a6c7c4c2dfeb977efac326af552d87",
                        "v" : "0x1b",
                        "value" : "0x57cbfdd8"
                    }
                ],
                "uncleHeaders" : [
                ]
            }
        ],
        "genesisBlockHeader" : {
            "bloom" : "0x00000000000000000000000000000000000000000000000000000000000000000000000000000000000000000000000000000000000000000000000000000000000000000000000000000000000000000000000000000000000000000000000000000000000000000000000000000000000000000000000000000000000000000000000000000000000000000000000000000000000000000000000000000000000000000000000000000000000000000000000000000000000000000000000000000000000000000000000000000000000000000000000000000000000000000000000000000000000000000000000000000000000000000000000000000000",
            "coinbase" : "0x945304eb96065b2a98b57a48a06ae28d285a71b5",
            "difficulty" : "0x020000",
            "extraData" : "0x42",
            "gasLimit" : "0x7fffffffffffffff",
            "gasUsed" : "0x00",
            "hash" : "0xa8350477a60c8792887859543ccc5185c33d92594ce75de07caf2e28e8ee2d27",
            "mixHash" : "0x56e81f171bcc55a6ff8345e692c0f86e5b48e01b996cadc001622fb5e363b421",
            "nonce" : "0x0102030405060708",
            "number" : "0x00",
            "parentHash" : "0x0000000000000000000000000000000000000000000000000000000000000000",
            "receiptTrie" : "0x56e81f171bcc55a6ff8345e692c0f86e5b48e01b996cadc001622fb5e363b421",
            "stateRoot" : "0x97f79e05ce7620b04045aa55fbe2f15f62cdadfd82ce4f9666203dc10ca1d767",
            "timestamp" : "0x03b6",
            "transactionsTrie" : "0x56e81f171bcc55a6ff8345e692c0f86e5b48e01b996cadc001622fb5e363b421",
            "uncleHash" : "0x1dcc4de8dec75d7aab85b567b6ccd41ad312451b948a7413f0a142fd40d49347"
        },
        "genesisRLP" : "0xf901fff901faa00000000000000000000000000000000000000000000000000000000000000000a01dcc4de8dec75d7aab85b567b6ccd41ad312451b948a7413f0a142fd40d4934794945304eb96065b2a98b57a48a06ae28d285a71b5a097f79e05ce7620b04045aa55fbe2f15f62cdadfd82ce4f9666203dc10ca1d767a056e81f171bcc55a6ff8345e692c0f86e5b48e01b996cadc001622fb5e363b421a056e81f171bcc55a6ff8345e692c0f86e5b48e01b996cadc001622fb5e363b421b90100000000000000000000000000000000000000000000000000000000000000000000000000000000000000000000000000000000000000000000000000000000000000000000000000000000000000000000000000000000000000000000000000000000000000000000000000000000000000000000000000000000000000000000000000000000000000000000000000000000000000000000000000000000000000000000000000000000000000000000000000000000000000000000000000000000000000000000000000000000000000000000000000000000000000000000000000000000000000000000000000000000000000000000000000000000008302000080887fffffffffffffff808203b642a056e81f171bcc55a6ff8345e692c0f86e5b48e01b996cadc001622fb5e363b421880102030405060708c0c0",
        "lastblockhash" : "0xbc0fd9ec8ad863537587827bf3625af779af334a808f71e372f2697877304f41",
        "network" : "EIP150",
        "postState" : {
            "0x095e7baea6a6c7c4c2dfeb977efac326af552d87" : {
                "balance" : "0x57cbfdd8",
                "code" : "0x7f000000000000000000000000ffffffffffffffffffffffffffffffffffffffff7f000000000000000000000000945304eb96065b2a98b57a48a06ae28d285a71b5067f0000000000000000000000000000000000000000000000000000000000000000407f000000000000000000000000000000000000000000000000000000000000c350427f00000000000000000000000000000000000000000000000000000000000000013a0960005155",
                "nonce" : "0x00",
                "storage" : {
                    "0x00" : "0x01"
                }
            },
            "0x945304eb96065b2a98b57a48a06ae28d285a71b5" : {
                "balance" : "0x4563918244f4b07b",
                "code" : "0x6000355415600957005b60203560003555",
                "nonce" : "0x00",
                "storage" : {
                }
            },
            "0xa94f5374fce5edbc8e2a8697c15331677e6ebf0b" : {
                "balance" : "0x0de0b6b34f9751db",
                "code" : "",
                "nonce" : "0x01",
                "storage" : {
                }
            }
        },
        "pre" : {
            "0x095e7baea6a6c7c4c2dfeb977efac326af552d87" : {
                "balance" : "0x00",
                "code" : "0x7f000000000000000000000000ffffffffffffffffffffffffffffffffffffffff7f000000000000000000000000945304eb96065b2a98b57a48a06ae28d285a71b5067f0000000000000000000000000000000000000000000000000000000000000000407f000000000000000000000000000000000000000000000000000000000000c350427f00000000000000000000000000000000000000000000000000000000000000013a0960005155",
                "nonce" : "0x00",
                "storage" : {
                }
            },
            "0x945304eb96065b2a98b57a48a06ae28d285a71b5" : {
                "balance" : "0x2e",
                "code" : "0x6000355415600957005b60203560003555",
                "nonce" : "0x00",
                "storage" : {
                }
            },
            "0xa94f5374fce5edbc8e2a8697c15331677e6ebf0b" : {
                "balance" : "0x0de0b6b3a7640000",
                "code" : "",
                "nonce" : "0x00",
                "storage" : {
                }
            }
        }
    },
    "randomStatetest331BC_EIP158" : {
        "_info" : {
            "comment" : "",
            "filledwith" : "cpp-1.3.0+commit.6e0ce939.Linux.g++",
            "lllcversion" : "Version: 0.4.18-develop.2017.9.25+commit.a72237f2.Linux.g++",
            "source" : "src/BlockchainTestsFiller/bcRandomBlockhashTest/randomStatetest331BCFiller.json",
            "sourceHash" : "e1aed650f48e3d16e7f90111a6cd2895921ae450ff890c531b25af6c6eb3d388"
        },
        "blocks" : [
            {
                "blockHeader" : {
                    "bloom" : "0x00000000000000000000000000000000000000000000000000000000000000000000000000000000000000000000000000000000000000000000000000000000000000000000000000000000000000000000000000000000000000000000000000000000000000000000000000000000000000000000000000000000000000000000000000000000000000000000000000000000000000000000000000000000000000000000000000000000000000000000000000000000000000000000000000000000000000000000000000000000000000000000000000000000000000000000000000000000000000000000000000000000000000000000000000000000",
                    "coinbase" : "0x945304eb96065b2a98b57a48a06ae28d285a71b5",
                    "difficulty" : "0x020000",
                    "extraData" : "",
                    "gasLimit" : "0x7fffffffffffffff",
                    "gasUsed" : "0xb04d",
                    "hash" : "0x42d2758f2799a4f1ebda6b70b07d883f7830607b3fc7d99f9016ecceffaf3d66",
                    "mixHash" : "0xa4cd63413a0244cc08dcbab0ac940608bfbcb2a424680b5514fae1573cca2b89",
                    "nonce" : "0xd817e7c36946807f",
                    "number" : "0x01",
                    "parentHash" : "0xa8350477a60c8792887859543ccc5185c33d92594ce75de07caf2e28e8ee2d27",
                    "receiptTrie" : "0x45bf1468bbb3fa2f0bf381fadf41330c7e80014f7e3f0dc2136110d083e398be",
                    "stateRoot" : "0x5c02f8948a5ce578da2f25f1e59b590ab1ab30c6f3d4ffa7c0db1cc10187d2a3",
                    "timestamp" : "0x03e8",
                    "transactionsTrie" : "0x8212e4c00b99117a9d4fd2186431072d4cdd08869784757c9c49195c4b4665b7",
                    "uncleHash" : "0x1dcc4de8dec75d7aab85b567b6ccd41ad312451b948a7413f0a142fd40d49347"
                },
                "rlp" : "0xf90316f901fca0a8350477a60c8792887859543ccc5185c33d92594ce75de07caf2e28e8ee2d27a01dcc4de8dec75d7aab85b567b6ccd41ad312451b948a7413f0a142fd40d4934794945304eb96065b2a98b57a48a06ae28d285a71b5a05c02f8948a5ce578da2f25f1e59b590ab1ab30c6f3d4ffa7c0db1cc10187d2a3a08212e4c00b99117a9d4fd2186431072d4cdd08869784757c9c49195c4b4665b7a045bf1468bbb3fa2f0bf381fadf41330c7e80014f7e3f0dc2136110d083e398beb90100000000000000000000000000000000000000000000000000000000000000000000000000000000000000000000000000000000000000000000000000000000000000000000000000000000000000000000000000000000000000000000000000000000000000000000000000000000000000000000000000000000000000000000000000000000000000000000000000000000000000000000000000000000000000000000000000000000000000000000000000000000000000000000000000000000000000000000000000000000000000000000000000000000000000000000000000000000000000000000000000000000000000000000000000000000008302000001887fffffffffffffff82b04d8203e880a0a4cd63413a0244cc08dcbab0ac940608bfbcb2a424680b5514fae1573cca2b8988d817e7c36946807ff90113f9011080018446cdc80094095e7baea6a6c7c4c2dfeb977efac326af552d878457cbfdd8b8aa7f000000000000000000000000ffffffffffffffffffffffffffffffffffffffff7f000000000000000000000000945304eb96065b2a98b57a48a06ae28d285a71b5067f0000000000000000000000000000000000000000000000000000000000000000407f000000000000000000000000000000000000000000000000000000000000c350427f00000000000000000000000000000000000000000000000000000000000000013a091ba0fad2921118d24da085bd30da963ed847e6fd782a9521677430169a87c2b7b630a019f13a92f98dc4b4b07e58d7df862896595eb00e73e0b13e930c5d0cc7de412dc0",
                "transactions" : [
                    {
                        "data" : "0x7f000000000000000000000000ffffffffffffffffffffffffffffffffffffffff7f000000000000000000000000945304eb96065b2a98b57a48a06ae28d285a71b5067f0000000000000000000000000000000000000000000000000000000000000000407f000000000000000000000000000000000000000000000000000000000000c350427f00000000000000000000000000000000000000000000000000000000000000013a09",
                        "gasLimit" : "0x46cdc800",
                        "gasPrice" : "0x01",
                        "nonce" : "0x00",
                        "r" : "0xfad2921118d24da085bd30da963ed847e6fd782a9521677430169a87c2b7b630",
                        "s" : "0x19f13a92f98dc4b4b07e58d7df862896595eb00e73e0b13e930c5d0cc7de412d",
                        "to" : "0x095e7baea6a6c7c4c2dfeb977efac326af552d87",
                        "v" : "0x1b",
                        "value" : "0x57cbfdd8"
                    }
                ],
                "uncleHeaders" : [
                ]
            }
        ],
        "genesisBlockHeader" : {
            "bloom" : "0x00000000000000000000000000000000000000000000000000000000000000000000000000000000000000000000000000000000000000000000000000000000000000000000000000000000000000000000000000000000000000000000000000000000000000000000000000000000000000000000000000000000000000000000000000000000000000000000000000000000000000000000000000000000000000000000000000000000000000000000000000000000000000000000000000000000000000000000000000000000000000000000000000000000000000000000000000000000000000000000000000000000000000000000000000000000",
            "coinbase" : "0x945304eb96065b2a98b57a48a06ae28d285a71b5",
            "difficulty" : "0x020000",
            "extraData" : "0x42",
            "gasLimit" : "0x7fffffffffffffff",
            "gasUsed" : "0x00",
            "hash" : "0xa8350477a60c8792887859543ccc5185c33d92594ce75de07caf2e28e8ee2d27",
            "mixHash" : "0x56e81f171bcc55a6ff8345e692c0f86e5b48e01b996cadc001622fb5e363b421",
            "nonce" : "0x0102030405060708",
            "number" : "0x00",
            "parentHash" : "0x0000000000000000000000000000000000000000000000000000000000000000",
            "receiptTrie" : "0x56e81f171bcc55a6ff8345e692c0f86e5b48e01b996cadc001622fb5e363b421",
            "stateRoot" : "0x97f79e05ce7620b04045aa55fbe2f15f62cdadfd82ce4f9666203dc10ca1d767",
            "timestamp" : "0x03b6",
            "transactionsTrie" : "0x56e81f171bcc55a6ff8345e692c0f86e5b48e01b996cadc001622fb5e363b421",
            "uncleHash" : "0x1dcc4de8dec75d7aab85b567b6ccd41ad312451b948a7413f0a142fd40d49347"
        },
        "genesisRLP" : "0xf901fff901faa00000000000000000000000000000000000000000000000000000000000000000a01dcc4de8dec75d7aab85b567b6ccd41ad312451b948a7413f0a142fd40d4934794945304eb96065b2a98b57a48a06ae28d285a71b5a097f79e05ce7620b04045aa55fbe2f15f62cdadfd82ce4f9666203dc10ca1d767a056e81f171bcc55a6ff8345e692c0f86e5b48e01b996cadc001622fb5e363b421a056e81f171bcc55a6ff8345e692c0f86e5b48e01b996cadc001622fb5e363b421b90100000000000000000000000000000000000000000000000000000000000000000000000000000000000000000000000000000000000000000000000000000000000000000000000000000000000000000000000000000000000000000000000000000000000000000000000000000000000000000000000000000000000000000000000000000000000000000000000000000000000000000000000000000000000000000000000000000000000000000000000000000000000000000000000000000000000000000000000000000000000000000000000000000000000000000000000000000000000000000000000000000000000000000000000000000000008302000080887fffffffffffffff808203b642a056e81f171bcc55a6ff8345e692c0f86e5b48e01b996cadc001622fb5e363b421880102030405060708c0c0",
        "lastblockhash" : "0x42d2758f2799a4f1ebda6b70b07d883f7830607b3fc7d99f9016ecceffaf3d66",
        "network" : "EIP158",
        "postState" : {
            "0x095e7baea6a6c7c4c2dfeb977efac326af552d87" : {
                "balance" : "0x57cbfdd8",
                "code" : "0x7f000000000000000000000000ffffffffffffffffffffffffffffffffffffffff7f000000000000000000000000945304eb96065b2a98b57a48a06ae28d285a71b5067f0000000000000000000000000000000000000000000000000000000000000000407f000000000000000000000000000000000000000000000000000000000000c350427f00000000000000000000000000000000000000000000000000000000000000013a0960005155",
                "nonce" : "0x00",
                "storage" : {
                    "0x00" : "0x01"
                }
            },
            "0x945304eb96065b2a98b57a48a06ae28d285a71b5" : {
                "balance" : "0x4563918244f4b07b",
                "code" : "0x6000355415600957005b60203560003555",
                "nonce" : "0x00",
                "storage" : {
                }
            },
            "0xa94f5374fce5edbc8e2a8697c15331677e6ebf0b" : {
                "balance" : "0x0de0b6b34f9751db",
                "code" : "",
                "nonce" : "0x01",
                "storage" : {
                }
            }
        },
        "pre" : {
            "0x095e7baea6a6c7c4c2dfeb977efac326af552d87" : {
                "balance" : "0x00",
                "code" : "0x7f000000000000000000000000ffffffffffffffffffffffffffffffffffffffff7f000000000000000000000000945304eb96065b2a98b57a48a06ae28d285a71b5067f0000000000000000000000000000000000000000000000000000000000000000407f000000000000000000000000000000000000000000000000000000000000c350427f00000000000000000000000000000000000000000000000000000000000000013a0960005155",
                "nonce" : "0x00",
                "storage" : {
                }
            },
            "0x945304eb96065b2a98b57a48a06ae28d285a71b5" : {
                "balance" : "0x2e",
                "code" : "0x6000355415600957005b60203560003555",
                "nonce" : "0x00",
                "storage" : {
                }
            },
            "0xa94f5374fce5edbc8e2a8697c15331677e6ebf0b" : {
                "balance" : "0x0de0b6b3a7640000",
                "code" : "",
                "nonce" : "0x00",
                "storage" : {
                }
            }
        }
    },
    "randomStatetest331BC_Frontier" : {
        "_info" : {
            "comment" : "",
            "filledwith" : "cpp-1.3.0+commit.6e0ce939.Linux.g++",
            "lllcversion" : "Version: 0.4.18-develop.2017.9.25+commit.a72237f2.Linux.g++",
            "source" : "src/BlockchainTestsFiller/bcRandomBlockhashTest/randomStatetest331BCFiller.json",
            "sourceHash" : "e1aed650f48e3d16e7f90111a6cd2895921ae450ff890c531b25af6c6eb3d388"
        },
        "blocks" : [
            {
                "blockHeader" : {
                    "bloom" : "0x00000000000000000000000000000000000000000000000000000000000000000000000000000000000000000000000000000000000000000000000000000000000000000000000000000000000000000000000000000000000000000000000000000000000000000000000000000000000000000000000000000000000000000000000000000000000000000000000000000000000000000000000000000000000000000000000000000000000000000000000000000000000000000000000000000000000000000000000000000000000000000000000000000000000000000000000000000000000000000000000000000000000000000000000000000000",
                    "coinbase" : "0x945304eb96065b2a98b57a48a06ae28d285a71b5",
                    "difficulty" : "0x020000",
                    "extraData" : "",
                    "gasLimit" : "0x7fffffffffffffff",
                    "gasUsed" : "0xb04d",
                    "hash" : "0x214d70f4e95eeb2142872996bb88a2121394ad654bd2a38f68e9e05f0b17b346",
                    "mixHash" : "0x5f92b7fdb2231e879fe732d291420b9c2e8af195df15e2c9a76f9bdbd6f78ba5",
                    "nonce" : "0xff0ad5e015340e9d",
                    "number" : "0x01",
                    "parentHash" : "0xa8350477a60c8792887859543ccc5185c33d92594ce75de07caf2e28e8ee2d27",
                    "receiptTrie" : "0x45bf1468bbb3fa2f0bf381fadf41330c7e80014f7e3f0dc2136110d083e398be",
                    "stateRoot" : "0x5c02f8948a5ce578da2f25f1e59b590ab1ab30c6f3d4ffa7c0db1cc10187d2a3",
                    "timestamp" : "0x03e8",
                    "transactionsTrie" : "0x8212e4c00b99117a9d4fd2186431072d4cdd08869784757c9c49195c4b4665b7",
                    "uncleHash" : "0x1dcc4de8dec75d7aab85b567b6ccd41ad312451b948a7413f0a142fd40d49347"
                },
                "rlp" : "0xf90316f901fca0a8350477a60c8792887859543ccc5185c33d92594ce75de07caf2e28e8ee2d27a01dcc4de8dec75d7aab85b567b6ccd41ad312451b948a7413f0a142fd40d4934794945304eb96065b2a98b57a48a06ae28d285a71b5a05c02f8948a5ce578da2f25f1e59b590ab1ab30c6f3d4ffa7c0db1cc10187d2a3a08212e4c00b99117a9d4fd2186431072d4cdd08869784757c9c49195c4b4665b7a045bf1468bbb3fa2f0bf381fadf41330c7e80014f7e3f0dc2136110d083e398beb90100000000000000000000000000000000000000000000000000000000000000000000000000000000000000000000000000000000000000000000000000000000000000000000000000000000000000000000000000000000000000000000000000000000000000000000000000000000000000000000000000000000000000000000000000000000000000000000000000000000000000000000000000000000000000000000000000000000000000000000000000000000000000000000000000000000000000000000000000000000000000000000000000000000000000000000000000000000000000000000000000000000000000000000000000000000008302000001887fffffffffffffff82b04d8203e880a05f92b7fdb2231e879fe732d291420b9c2e8af195df15e2c9a76f9bdbd6f78ba588ff0ad5e015340e9df90113f9011080018446cdc80094095e7baea6a6c7c4c2dfeb977efac326af552d878457cbfdd8b8aa7f000000000000000000000000ffffffffffffffffffffffffffffffffffffffff7f000000000000000000000000945304eb96065b2a98b57a48a06ae28d285a71b5067f0000000000000000000000000000000000000000000000000000000000000000407f000000000000000000000000000000000000000000000000000000000000c350427f00000000000000000000000000000000000000000000000000000000000000013a091ba0fad2921118d24da085bd30da963ed847e6fd782a9521677430169a87c2b7b630a019f13a92f98dc4b4b07e58d7df862896595eb00e73e0b13e930c5d0cc7de412dc0",
                "transactions" : [
                    {
                        "data" : "0x7f000000000000000000000000ffffffffffffffffffffffffffffffffffffffff7f000000000000000000000000945304eb96065b2a98b57a48a06ae28d285a71b5067f0000000000000000000000000000000000000000000000000000000000000000407f000000000000000000000000000000000000000000000000000000000000c350427f00000000000000000000000000000000000000000000000000000000000000013a09",
                        "gasLimit" : "0x46cdc800",
                        "gasPrice" : "0x01",
                        "nonce" : "0x00",
                        "r" : "0xfad2921118d24da085bd30da963ed847e6fd782a9521677430169a87c2b7b630",
                        "s" : "0x19f13a92f98dc4b4b07e58d7df862896595eb00e73e0b13e930c5d0cc7de412d",
                        "to" : "0x095e7baea6a6c7c4c2dfeb977efac326af552d87",
                        "v" : "0x1b",
                        "value" : "0x57cbfdd8"
                    }
                ],
                "uncleHeaders" : [
                ]
            }
        ],
        "genesisBlockHeader" : {
            "bloom" : "0x00000000000000000000000000000000000000000000000000000000000000000000000000000000000000000000000000000000000000000000000000000000000000000000000000000000000000000000000000000000000000000000000000000000000000000000000000000000000000000000000000000000000000000000000000000000000000000000000000000000000000000000000000000000000000000000000000000000000000000000000000000000000000000000000000000000000000000000000000000000000000000000000000000000000000000000000000000000000000000000000000000000000000000000000000000000",
            "coinbase" : "0x945304eb96065b2a98b57a48a06ae28d285a71b5",
            "difficulty" : "0x020000",
            "extraData" : "0x42",
            "gasLimit" : "0x7fffffffffffffff",
            "gasUsed" : "0x00",
            "hash" : "0xa8350477a60c8792887859543ccc5185c33d92594ce75de07caf2e28e8ee2d27",
            "mixHash" : "0x56e81f171bcc55a6ff8345e692c0f86e5b48e01b996cadc001622fb5e363b421",
            "nonce" : "0x0102030405060708",
            "number" : "0x00",
            "parentHash" : "0x0000000000000000000000000000000000000000000000000000000000000000",
            "receiptTrie" : "0x56e81f171bcc55a6ff8345e692c0f86e5b48e01b996cadc001622fb5e363b421",
            "stateRoot" : "0x97f79e05ce7620b04045aa55fbe2f15f62cdadfd82ce4f9666203dc10ca1d767",
            "timestamp" : "0x03b6",
            "transactionsTrie" : "0x56e81f171bcc55a6ff8345e692c0f86e5b48e01b996cadc001622fb5e363b421",
            "uncleHash" : "0x1dcc4de8dec75d7aab85b567b6ccd41ad312451b948a7413f0a142fd40d49347"
        },
        "genesisRLP" : "0xf901fff901faa00000000000000000000000000000000000000000000000000000000000000000a01dcc4de8dec75d7aab85b567b6ccd41ad312451b948a7413f0a142fd40d4934794945304eb96065b2a98b57a48a06ae28d285a71b5a097f79e05ce7620b04045aa55fbe2f15f62cdadfd82ce4f9666203dc10ca1d767a056e81f171bcc55a6ff8345e692c0f86e5b48e01b996cadc001622fb5e363b421a056e81f171bcc55a6ff8345e692c0f86e5b48e01b996cadc001622fb5e363b421b90100000000000000000000000000000000000000000000000000000000000000000000000000000000000000000000000000000000000000000000000000000000000000000000000000000000000000000000000000000000000000000000000000000000000000000000000000000000000000000000000000000000000000000000000000000000000000000000000000000000000000000000000000000000000000000000000000000000000000000000000000000000000000000000000000000000000000000000000000000000000000000000000000000000000000000000000000000000000000000000000000000000000000000000000000000000008302000080887fffffffffffffff808203b642a056e81f171bcc55a6ff8345e692c0f86e5b48e01b996cadc001622fb5e363b421880102030405060708c0c0",
        "lastblockhash" : "0x214d70f4e95eeb2142872996bb88a2121394ad654bd2a38f68e9e05f0b17b346",
        "network" : "Frontier",
        "postState" : {
            "0x095e7baea6a6c7c4c2dfeb977efac326af552d87" : {
                "balance" : "0x57cbfdd8",
                "code" : "0x7f000000000000000000000000ffffffffffffffffffffffffffffffffffffffff7f000000000000000000000000945304eb96065b2a98b57a48a06ae28d285a71b5067f0000000000000000000000000000000000000000000000000000000000000000407f000000000000000000000000000000000000000000000000000000000000c350427f00000000000000000000000000000000000000000000000000000000000000013a0960005155",
                "nonce" : "0x00",
                "storage" : {
                    "0x00" : "0x01"
                }
            },
            "0x945304eb96065b2a98b57a48a06ae28d285a71b5" : {
                "balance" : "0x4563918244f4b07b",
                "code" : "0x6000355415600957005b60203560003555",
                "nonce" : "0x00",
                "storage" : {
                }
            },
            "0xa94f5374fce5edbc8e2a8697c15331677e6ebf0b" : {
                "balance" : "0x0de0b6b34f9751db",
                "code" : "",
                "nonce" : "0x01",
                "storage" : {
                }
            }
        },
        "pre" : {
            "0x095e7baea6a6c7c4c2dfeb977efac326af552d87" : {
                "balance" : "0x00",
                "code" : "0x7f000000000000000000000000ffffffffffffffffffffffffffffffffffffffff7f000000000000000000000000945304eb96065b2a98b57a48a06ae28d285a71b5067f0000000000000000000000000000000000000000000000000000000000000000407f000000000000000000000000000000000000000000000000000000000000c350427f00000000000000000000000000000000000000000000000000000000000000013a0960005155",
                "nonce" : "0x00",
                "storage" : {
                }
            },
            "0x945304eb96065b2a98b57a48a06ae28d285a71b5" : {
                "balance" : "0x2e",
                "code" : "0x6000355415600957005b60203560003555",
                "nonce" : "0x00",
                "storage" : {
                }
            },
            "0xa94f5374fce5edbc8e2a8697c15331677e6ebf0b" : {
                "balance" : "0x0de0b6b3a7640000",
                "code" : "",
                "nonce" : "0x00",
                "storage" : {
                }
            }
        }
    },
    "randomStatetest331BC_Homestead" : {
        "_info" : {
            "comment" : "",
            "filledwith" : "cpp-1.3.0+commit.6e0ce939.Linux.g++",
            "lllcversion" : "Version: 0.4.18-develop.2017.9.25+commit.a72237f2.Linux.g++",
            "source" : "src/BlockchainTestsFiller/bcRandomBlockhashTest/randomStatetest331BCFiller.json",
            "sourceHash" : "e1aed650f48e3d16e7f90111a6cd2895921ae450ff890c531b25af6c6eb3d388"
        },
        "blocks" : [
            {
                "blockHeader" : {
                    "bloom" : "0x00000000000000000000000000000000000000000000000000000000000000000000000000000000000000000000000000000000000000000000000000000000000000000000000000000000000000000000000000000000000000000000000000000000000000000000000000000000000000000000000000000000000000000000000000000000000000000000000000000000000000000000000000000000000000000000000000000000000000000000000000000000000000000000000000000000000000000000000000000000000000000000000000000000000000000000000000000000000000000000000000000000000000000000000000000000",
                    "coinbase" : "0x945304eb96065b2a98b57a48a06ae28d285a71b5",
                    "difficulty" : "0x020000",
                    "extraData" : "",
                    "gasLimit" : "0x7fffffffffffffff",
                    "gasUsed" : "0xb04d",
                    "hash" : "0xc4c7020a6f2666ba18e96d09a20692c955ef9d1898d4003044c7ff2a4182c71f",
                    "mixHash" : "0x58f264fe670ab51ee0408f30efa84201e5b13f872be2dccacb8ff2843f592691",
                    "nonce" : "0x88c42c3aa2644aa0",
                    "number" : "0x01",
                    "parentHash" : "0xa8350477a60c8792887859543ccc5185c33d92594ce75de07caf2e28e8ee2d27",
                    "receiptTrie" : "0x45bf1468bbb3fa2f0bf381fadf41330c7e80014f7e3f0dc2136110d083e398be",
                    "stateRoot" : "0x5c02f8948a5ce578da2f25f1e59b590ab1ab30c6f3d4ffa7c0db1cc10187d2a3",
                    "timestamp" : "0x03e8",
                    "transactionsTrie" : "0x8212e4c00b99117a9d4fd2186431072d4cdd08869784757c9c49195c4b4665b7",
                    "uncleHash" : "0x1dcc4de8dec75d7aab85b567b6ccd41ad312451b948a7413f0a142fd40d49347"
                },
                "rlp" : "0xf90316f901fca0a8350477a60c8792887859543ccc5185c33d92594ce75de07caf2e28e8ee2d27a01dcc4de8dec75d7aab85b567b6ccd41ad312451b948a7413f0a142fd40d4934794945304eb96065b2a98b57a48a06ae28d285a71b5a05c02f8948a5ce578da2f25f1e59b590ab1ab30c6f3d4ffa7c0db1cc10187d2a3a08212e4c00b99117a9d4fd2186431072d4cdd08869784757c9c49195c4b4665b7a045bf1468bbb3fa2f0bf381fadf41330c7e80014f7e3f0dc2136110d083e398beb90100000000000000000000000000000000000000000000000000000000000000000000000000000000000000000000000000000000000000000000000000000000000000000000000000000000000000000000000000000000000000000000000000000000000000000000000000000000000000000000000000000000000000000000000000000000000000000000000000000000000000000000000000000000000000000000000000000000000000000000000000000000000000000000000000000000000000000000000000000000000000000000000000000000000000000000000000000000000000000000000000000000000000000000000000000000008302000001887fffffffffffffff82b04d8203e880a058f264fe670ab51ee0408f30efa84201e5b13f872be2dccacb8ff2843f5926918888c42c3aa2644aa0f90113f9011080018446cdc80094095e7baea6a6c7c4c2dfeb977efac326af552d878457cbfdd8b8aa7f000000000000000000000000ffffffffffffffffffffffffffffffffffffffff7f000000000000000000000000945304eb96065b2a98b57a48a06ae28d285a71b5067f0000000000000000000000000000000000000000000000000000000000000000407f000000000000000000000000000000000000000000000000000000000000c350427f00000000000000000000000000000000000000000000000000000000000000013a091ba0fad2921118d24da085bd30da963ed847e6fd782a9521677430169a87c2b7b630a019f13a92f98dc4b4b07e58d7df862896595eb00e73e0b13e930c5d0cc7de412dc0",
                "transactions" : [
                    {
                        "data" : "0x7f000000000000000000000000ffffffffffffffffffffffffffffffffffffffff7f000000000000000000000000945304eb96065b2a98b57a48a06ae28d285a71b5067f0000000000000000000000000000000000000000000000000000000000000000407f000000000000000000000000000000000000000000000000000000000000c350427f00000000000000000000000000000000000000000000000000000000000000013a09",
                        "gasLimit" : "0x46cdc800",
                        "gasPrice" : "0x01",
                        "nonce" : "0x00",
                        "r" : "0xfad2921118d24da085bd30da963ed847e6fd782a9521677430169a87c2b7b630",
                        "s" : "0x19f13a92f98dc4b4b07e58d7df862896595eb00e73e0b13e930c5d0cc7de412d",
                        "to" : "0x095e7baea6a6c7c4c2dfeb977efac326af552d87",
                        "v" : "0x1b",
                        "value" : "0x57cbfdd8"
                    }
                ],
                "uncleHeaders" : [
                ]
            }
        ],
        "genesisBlockHeader" : {
            "bloom" : "0x00000000000000000000000000000000000000000000000000000000000000000000000000000000000000000000000000000000000000000000000000000000000000000000000000000000000000000000000000000000000000000000000000000000000000000000000000000000000000000000000000000000000000000000000000000000000000000000000000000000000000000000000000000000000000000000000000000000000000000000000000000000000000000000000000000000000000000000000000000000000000000000000000000000000000000000000000000000000000000000000000000000000000000000000000000000",
            "coinbase" : "0x945304eb96065b2a98b57a48a06ae28d285a71b5",
            "difficulty" : "0x020000",
            "extraData" : "0x42",
            "gasLimit" : "0x7fffffffffffffff",
            "gasUsed" : "0x00",
            "hash" : "0xa8350477a60c8792887859543ccc5185c33d92594ce75de07caf2e28e8ee2d27",
            "mixHash" : "0x56e81f171bcc55a6ff8345e692c0f86e5b48e01b996cadc001622fb5e363b421",
            "nonce" : "0x0102030405060708",
            "number" : "0x00",
            "parentHash" : "0x0000000000000000000000000000000000000000000000000000000000000000",
            "receiptTrie" : "0x56e81f171bcc55a6ff8345e692c0f86e5b48e01b996cadc001622fb5e363b421",
            "stateRoot" : "0x97f79e05ce7620b04045aa55fbe2f15f62cdadfd82ce4f9666203dc10ca1d767",
            "timestamp" : "0x03b6",
            "transactionsTrie" : "0x56e81f171bcc55a6ff8345e692c0f86e5b48e01b996cadc001622fb5e363b421",
            "uncleHash" : "0x1dcc4de8dec75d7aab85b567b6ccd41ad312451b948a7413f0a142fd40d49347"
        },
        "genesisRLP" : "0xf901fff901faa00000000000000000000000000000000000000000000000000000000000000000a01dcc4de8dec75d7aab85b567b6ccd41ad312451b948a7413f0a142fd40d4934794945304eb96065b2a98b57a48a06ae28d285a71b5a097f79e05ce7620b04045aa55fbe2f15f62cdadfd82ce4f9666203dc10ca1d767a056e81f171bcc55a6ff8345e692c0f86e5b48e01b996cadc001622fb5e363b421a056e81f171bcc55a6ff8345e692c0f86e5b48e01b996cadc001622fb5e363b421b90100000000000000000000000000000000000000000000000000000000000000000000000000000000000000000000000000000000000000000000000000000000000000000000000000000000000000000000000000000000000000000000000000000000000000000000000000000000000000000000000000000000000000000000000000000000000000000000000000000000000000000000000000000000000000000000000000000000000000000000000000000000000000000000000000000000000000000000000000000000000000000000000000000000000000000000000000000000000000000000000000000000000000000000000000000000008302000080887fffffffffffffff808203b642a056e81f171bcc55a6ff8345e692c0f86e5b48e01b996cadc001622fb5e363b421880102030405060708c0c0",
        "lastblockhash" : "0xc4c7020a6f2666ba18e96d09a20692c955ef9d1898d4003044c7ff2a4182c71f",
        "network" : "Homestead",
        "postState" : {
            "0x095e7baea6a6c7c4c2dfeb977efac326af552d87" : {
                "balance" : "0x57cbfdd8",
                "code" : "0x7f000000000000000000000000ffffffffffffffffffffffffffffffffffffffff7f000000000000000000000000945304eb96065b2a98b57a48a06ae28d285a71b5067f0000000000000000000000000000000000000000000000000000000000000000407f000000000000000000000000000000000000000000000000000000000000c350427f00000000000000000000000000000000000000000000000000000000000000013a0960005155",
                "nonce" : "0x00",
                "storage" : {
                    "0x00" : "0x01"
                }
            },
            "0x945304eb96065b2a98b57a48a06ae28d285a71b5" : {
                "balance" : "0x4563918244f4b07b",
                "code" : "0x6000355415600957005b60203560003555",
                "nonce" : "0x00",
                "storage" : {
                }
            },
            "0xa94f5374fce5edbc8e2a8697c15331677e6ebf0b" : {
                "balance" : "0x0de0b6b34f9751db",
                "code" : "",
                "nonce" : "0x01",
                "storage" : {
                }
            }
        },
        "pre" : {
            "0x095e7baea6a6c7c4c2dfeb977efac326af552d87" : {
                "balance" : "0x00",
                "code" : "0x7f000000000000000000000000ffffffffffffffffffffffffffffffffffffffff7f000000000000000000000000945304eb96065b2a98b57a48a06ae28d285a71b5067f0000000000000000000000000000000000000000000000000000000000000000407f000000000000000000000000000000000000000000000000000000000000c350427f00000000000000000000000000000000000000000000000000000000000000013a0960005155",
                "nonce" : "0x00",
                "storage" : {
                }
            },
            "0x945304eb96065b2a98b57a48a06ae28d285a71b5" : {
                "balance" : "0x2e",
                "code" : "0x6000355415600957005b60203560003555",
                "nonce" : "0x00",
                "storage" : {
                }
            },
            "0xa94f5374fce5edbc8e2a8697c15331677e6ebf0b" : {
                "balance" : "0x0de0b6b3a7640000",
                "code" : "",
                "nonce" : "0x00",
                "storage" : {
                }
            }
        }
    }
}