{
    "randomStatetest91BC_EIP150" : {
        "_info" : {
            "comment" : "",
            "filledwith" : "cpp-1.3.0+commit.3b370491.Linux.g++",
            "source" : "/src/BlockchainTestsFiller/bcRandomBlockhashTest/randomStatetest91BCFiller.json"
        },
        "blocks" : [
            {
                "blockHeader" : {
                    "bloom" : "0x00000000000000000000000000000000000000000000000000000000000000000000000000000000000000000000000000000000000000000000000000000000000000000000000000000000000000000000000000000000000000000000000000000000000000000000000000000000000000000000000000000000000000000000000000000000000000000000000000000000000000000000000000000000000000000000000000000000000000000000000000000000000000000000000000000000000000000000000000000000000000000000000000000000000000000000000000000000000000000000000000000000000000000000000000000000",
                    "coinbase" : "0x945304eb96065b2a98b57a48a06ae28d285a71b5",
                    "difficulty" : "0x020000",
                    "extraData" : "",
                    "gasLimit" : "0x7fffffffffffffff",
                    "gasUsed" : "0xaf7b",
                    "hash" : "0x221e6bc924cd65c3674ee25be5e7bafe07da18e74f748bad6833b97cb067d2ca",
                    "mixHash" : "0x7e4e9ff3d0055383c0cdb45c075201b6461c755da164ec00a873b4f194461d91",
                    "nonce" : "0x34f043540fd03907",
                    "number" : "0x01",
                    "parentHash" : "0xc6d2eb7d48055d6088b426ea4ac2e0fd80b1c351ab9b7dc87c4981e4c376e708",
                    "receiptTrie" : "0xef70972b56e2ca8baed6aa0b6af1b7d4ed93cea05ddb0af4359be433993e04cc",
                    "stateRoot" : "0xc1014ccc60abba7b6dde061c3d2b6fb94456ec208f14299db9114c215cf63f4a",
                    "timestamp" : "0x03e8",
                    "transactionsTrie" : "0xa1a8c9005086046d31b492d556a1dca992deb348022aec36b92539d0dce3ef95",
                    "uncleHash" : "0x1dcc4de8dec75d7aab85b567b6ccd41ad312451b948a7413f0a142fd40d49347"
                },
                "rlp" : "0xf90324f901fca0c6d2eb7d48055d6088b426ea4ac2e0fd80b1c351ab9b7dc87c4981e4c376e708a01dcc4de8dec75d7aab85b567b6ccd41ad312451b948a7413f0a142fd40d4934794945304eb96065b2a98b57a48a06ae28d285a71b5a0c1014ccc60abba7b6dde061c3d2b6fb94456ec208f14299db9114c215cf63f4aa0a1a8c9005086046d31b492d556a1dca992deb348022aec36b92539d0dce3ef95a0ef70972b56e2ca8baed6aa0b6af1b7d4ed93cea05ddb0af4359be433993e04ccb90100000000000000000000000000000000000000000000000000000000000000000000000000000000000000000000000000000000000000000000000000000000000000000000000000000000000000000000000000000000000000000000000000000000000000000000000000000000000000000000000000000000000000000000000000000000000000000000000000000000000000000000000000000000000000000000000000000000000000000000000000000000000000000000000000000000000000000000000000000000000000000000000000000000000000000000000000000000000000000000000000000000000000000000000000000000008302000001887fffffffffffffff82af7b8203e880a07e4e9ff3d0055383c0cdb45c075201b6461c755da164ec00a873b4f194461d918834f043540fd03907f90121f9011e8001845465b41894095e7baea6a6c7c4c2dfeb977efac326af552d87847bcee261b8b87f00000000000000000000000000000000000000000000000000000000000000017f000000000000000000000001000000000000000000000000000000000000000045407f000000000000000000000000945304eb96065b2a98b57a48a06ae28d285a71b57f000000000000000000000000000000000000000000000000000000000000c350447f00000000000000000000000100000000000000000000000000000000000000006f8b0b688d7b410a45178f6f956454f31ca06129e9da7bb7c03bac1b1db26c907b3a18ec336f607be4b9c5cb3090ab51bce1a023d59dccdc8a9b2551f5c375db36e0985076d68f468d01338c8be9a67dd1a907c0",
                "transactions" : [
                    {
                        "data" : "0x7f00000000000000000000000000000000000000000000000000000000000000017f000000000000000000000001000000000000000000000000000000000000000045407f000000000000000000000000945304eb96065b2a98b57a48a06ae28d285a71b57f000000000000000000000000000000000000000000000000000000000000c350447f00000000000000000000000100000000000000000000000000000000000000006f8b0b688d7b410a45178f6f956454f3",
                        "gasLimit" : "0x5465b418",
                        "gasPrice" : "0x01",
                        "nonce" : "0x00",
                        "r" : "0x6129e9da7bb7c03bac1b1db26c907b3a18ec336f607be4b9c5cb3090ab51bce1",
                        "s" : "0x23d59dccdc8a9b2551f5c375db36e0985076d68f468d01338c8be9a67dd1a907",
                        "to" : "0x095e7baea6a6c7c4c2dfeb977efac326af552d87",
                        "v" : "0x1c",
                        "value" : "0x7bcee261"
                    }
                ],
                "uncleHeaders" : [
                ]
            }
        ],
        "genesisBlockHeader" : {
            "bloom" : "0x00000000000000000000000000000000000000000000000000000000000000000000000000000000000000000000000000000000000000000000000000000000000000000000000000000000000000000000000000000000000000000000000000000000000000000000000000000000000000000000000000000000000000000000000000000000000000000000000000000000000000000000000000000000000000000000000000000000000000000000000000000000000000000000000000000000000000000000000000000000000000000000000000000000000000000000000000000000000000000000000000000000000000000000000000000000",
            "coinbase" : "0x945304eb96065b2a98b57a48a06ae28d285a71b5",
            "difficulty" : "0x020000",
            "extraData" : "0x42",
            "gasLimit" : "0x7fffffffffffffff",
            "gasUsed" : "0x00",
            "hash" : "0xc6d2eb7d48055d6088b426ea4ac2e0fd80b1c351ab9b7dc87c4981e4c376e708",
            "mixHash" : "0x56e81f171bcc55a6ff8345e692c0f86e5b48e01b996cadc001622fb5e363b421",
            "nonce" : "0x0102030405060708",
            "number" : "0x00",
            "parentHash" : "0x0000000000000000000000000000000000000000000000000000000000000000",
            "receiptTrie" : "0x56e81f171bcc55a6ff8345e692c0f86e5b48e01b996cadc001622fb5e363b421",
            "stateRoot" : "0xf5fb4160482fb04f85616efdcc018ea0c75cf9e2cf8b846489edc1776670b8aa",
            "timestamp" : "0x03b6",
            "transactionsTrie" : "0x56e81f171bcc55a6ff8345e692c0f86e5b48e01b996cadc001622fb5e363b421",
            "uncleHash" : "0x1dcc4de8dec75d7aab85b567b6ccd41ad312451b948a7413f0a142fd40d49347"
        },
        "genesisRLP" : "0xf901fff901faa00000000000000000000000000000000000000000000000000000000000000000a01dcc4de8dec75d7aab85b567b6ccd41ad312451b948a7413f0a142fd40d4934794945304eb96065b2a98b57a48a06ae28d285a71b5a0f5fb4160482fb04f85616efdcc018ea0c75cf9e2cf8b846489edc1776670b8aaa056e81f171bcc55a6ff8345e692c0f86e5b48e01b996cadc001622fb5e363b421a056e81f171bcc55a6ff8345e692c0f86e5b48e01b996cadc001622fb5e363b421b90100000000000000000000000000000000000000000000000000000000000000000000000000000000000000000000000000000000000000000000000000000000000000000000000000000000000000000000000000000000000000000000000000000000000000000000000000000000000000000000000000000000000000000000000000000000000000000000000000000000000000000000000000000000000000000000000000000000000000000000000000000000000000000000000000000000000000000000000000000000000000000000000000000000000000000000000000000000000000000000000000000000000000000000000000000000008302000080887fffffffffffffff808203b642a056e81f171bcc55a6ff8345e692c0f86e5b48e01b996cadc001622fb5e363b421880102030405060708c0c0",
        "lastblockhash" : "0x221e6bc924cd65c3674ee25be5e7bafe07da18e74f748bad6833b97cb067d2ca",
        "network" : "EIP150",
        "postState" : {
            "0x095e7baea6a6c7c4c2dfeb977efac326af552d87" : {
                "balance" : "0x7bcee261",
                "code" : "0x7f00000000000000000000000000000000000000000000000000000000000000017f000000000000000000000001000000000000000000000000000000000000000045407f000000000000000000000000945304eb96065b2a98b57a48a06ae28d285a71b57f000000000000000000000000000000000000000000000000000000000000c350447f00000000000000000000000100000000000000000000000000000000000000006f8b0b688d7b410a45178f6f956454f35560005155",
                "nonce" : "0x00",
                "storage" : {
                    "0x00" : "0x8b0b688d7b410a45178f6f956454f355"
                }
            },
            "0x945304eb96065b2a98b57a48a06ae28d285a71b5" : {
                "balance" : "0x4563918244f4afa9",
                "code" : "0x6000355415600957005b60203560003555",
                "nonce" : "0x00",
                "storage" : {
                }
            },
            "0xa94f5374fce5edbc8e2a8697c15331677e6ebf0b" : {
                "balance" : "0x0de0b6b32b946e24",
                "code" : "",
                "nonce" : "0x01",
                "storage" : {
                }
            }
        },
        "pre" : {
            "0x095e7baea6a6c7c4c2dfeb977efac326af552d87" : {
                "balance" : "0x00",
                "code" : "0x7f00000000000000000000000000000000000000000000000000000000000000017f000000000000000000000001000000000000000000000000000000000000000045407f000000000000000000000000945304eb96065b2a98b57a48a06ae28d285a71b57f000000000000000000000000000000000000000000000000000000000000c350447f00000000000000000000000100000000000000000000000000000000000000006f8b0b688d7b410a45178f6f956454f35560005155",
                "nonce" : "0x00",
                "storage" : {
                }
            },
            "0x945304eb96065b2a98b57a48a06ae28d285a71b5" : {
                "balance" : "0x2e",
                "code" : "0x6000355415600957005b60203560003555",
                "nonce" : "0x00",
                "storage" : {
                }
            },
            "0xa94f5374fce5edbc8e2a8697c15331677e6ebf0b" : {
                "balance" : "0x0de0b6b3a7640000",
                "code" : "",
                "nonce" : "0x00",
                "storage" : {
                }
            }
        }
    },
    "randomStatetest91BC_EIP158" : {
        "_info" : {
            "comment" : "",
            "filledwith" : "cpp-1.3.0+commit.3b370491.Linux.g++",
            "source" : "/src/BlockchainTestsFiller/bcRandomBlockhashTest/randomStatetest91BCFiller.json"
        },
        "blocks" : [
            {
                "blockHeader" : {
                    "bloom" : "0x00000000000000000000000000000000000000000000000000000000000000000000000000000000000000000000000000000000000000000000000000000000000000000000000000000000000000000000000000000000000000000000000000000000000000000000000000000000000000000000000000000000000000000000000000000000000000000000000000000000000000000000000000000000000000000000000000000000000000000000000000000000000000000000000000000000000000000000000000000000000000000000000000000000000000000000000000000000000000000000000000000000000000000000000000000000",
                    "coinbase" : "0x945304eb96065b2a98b57a48a06ae28d285a71b5",
                    "difficulty" : "0x020000",
                    "extraData" : "",
                    "gasLimit" : "0x7fffffffffffffff",
                    "gasUsed" : "0xaf7b",
                    "hash" : "0x86db2ae27fe7ae801623f62dbe8f252a0177186e756e66a7771ac17719822300",
                    "mixHash" : "0xae7f88a4713b17953ad934e18a2b6f0168493da582c3126d5525ce10f49d715e",
                    "nonce" : "0x54fb526350106040",
                    "number" : "0x01",
                    "parentHash" : "0xc6d2eb7d48055d6088b426ea4ac2e0fd80b1c351ab9b7dc87c4981e4c376e708",
                    "receiptTrie" : "0xef70972b56e2ca8baed6aa0b6af1b7d4ed93cea05ddb0af4359be433993e04cc",
                    "stateRoot" : "0xc1014ccc60abba7b6dde061c3d2b6fb94456ec208f14299db9114c215cf63f4a",
                    "timestamp" : "0x03e8",
                    "transactionsTrie" : "0xa1a8c9005086046d31b492d556a1dca992deb348022aec36b92539d0dce3ef95",
                    "uncleHash" : "0x1dcc4de8dec75d7aab85b567b6ccd41ad312451b948a7413f0a142fd40d49347"
                },
                "rlp" : "0xf90324f901fca0c6d2eb7d48055d6088b426ea4ac2e0fd80b1c351ab9b7dc87c4981e4c376e708a01dcc4de8dec75d7aab85b567b6ccd41ad312451b948a7413f0a142fd40d4934794945304eb96065b2a98b57a48a06ae28d285a71b5a0c1014ccc60abba7b6dde061c3d2b6fb94456ec208f14299db9114c215cf63f4aa0a1a8c9005086046d31b492d556a1dca992deb348022aec36b92539d0dce3ef95a0ef70972b56e2ca8baed6aa0b6af1b7d4ed93cea05ddb0af4359be433993e04ccb90100000000000000000000000000000000000000000000000000000000000000000000000000000000000000000000000000000000000000000000000000000000000000000000000000000000000000000000000000000000000000000000000000000000000000000000000000000000000000000000000000000000000000000000000000000000000000000000000000000000000000000000000000000000000000000000000000000000000000000000000000000000000000000000000000000000000000000000000000000000000000000000000000000000000000000000000000000000000000000000000000000000000000000000000000000000008302000001887fffffffffffffff82af7b8203e880a0ae7f88a4713b17953ad934e18a2b6f0168493da582c3126d5525ce10f49d715e8854fb526350106040f90121f9011e8001845465b41894095e7baea6a6c7c4c2dfeb977efac326af552d87847bcee261b8b87f00000000000000000000000000000000000000000000000000000000000000017f000000000000000000000001000000000000000000000000000000000000000045407f000000000000000000000000945304eb96065b2a98b57a48a06ae28d285a71b57f000000000000000000000000000000000000000000000000000000000000c350447f00000000000000000000000100000000000000000000000000000000000000006f8b0b688d7b410a45178f6f956454f31ca06129e9da7bb7c03bac1b1db26c907b3a18ec336f607be4b9c5cb3090ab51bce1a023d59dccdc8a9b2551f5c375db36e0985076d68f468d01338c8be9a67dd1a907c0",
                "transactions" : [
                    {
                        "data" : "0x7f00000000000000000000000000000000000000000000000000000000000000017f000000000000000000000001000000000000000000000000000000000000000045407f000000000000000000000000945304eb96065b2a98b57a48a06ae28d285a71b57f000000000000000000000000000000000000000000000000000000000000c350447f00000000000000000000000100000000000000000000000000000000000000006f8b0b688d7b410a45178f6f956454f3",
                        "gasLimit" : "0x5465b418",
                        "gasPrice" : "0x01",
                        "nonce" : "0x00",
                        "r" : "0x6129e9da7bb7c03bac1b1db26c907b3a18ec336f607be4b9c5cb3090ab51bce1",
                        "s" : "0x23d59dccdc8a9b2551f5c375db36e0985076d68f468d01338c8be9a67dd1a907",
                        "to" : "0x095e7baea6a6c7c4c2dfeb977efac326af552d87",
                        "v" : "0x1c",
                        "value" : "0x7bcee261"
                    }
                ],
                "uncleHeaders" : [
                ]
            }
        ],
        "genesisBlockHeader" : {
            "bloom" : "0x00000000000000000000000000000000000000000000000000000000000000000000000000000000000000000000000000000000000000000000000000000000000000000000000000000000000000000000000000000000000000000000000000000000000000000000000000000000000000000000000000000000000000000000000000000000000000000000000000000000000000000000000000000000000000000000000000000000000000000000000000000000000000000000000000000000000000000000000000000000000000000000000000000000000000000000000000000000000000000000000000000000000000000000000000000000",
            "coinbase" : "0x945304eb96065b2a98b57a48a06ae28d285a71b5",
            "difficulty" : "0x020000",
            "extraData" : "0x42",
            "gasLimit" : "0x7fffffffffffffff",
            "gasUsed" : "0x00",
            "hash" : "0xc6d2eb7d48055d6088b426ea4ac2e0fd80b1c351ab9b7dc87c4981e4c376e708",
            "mixHash" : "0x56e81f171bcc55a6ff8345e692c0f86e5b48e01b996cadc001622fb5e363b421",
            "nonce" : "0x0102030405060708",
            "number" : "0x00",
            "parentHash" : "0x0000000000000000000000000000000000000000000000000000000000000000",
            "receiptTrie" : "0x56e81f171bcc55a6ff8345e692c0f86e5b48e01b996cadc001622fb5e363b421",
            "stateRoot" : "0xf5fb4160482fb04f85616efdcc018ea0c75cf9e2cf8b846489edc1776670b8aa",
            "timestamp" : "0x03b6",
            "transactionsTrie" : "0x56e81f171bcc55a6ff8345e692c0f86e5b48e01b996cadc001622fb5e363b421",
            "uncleHash" : "0x1dcc4de8dec75d7aab85b567b6ccd41ad312451b948a7413f0a142fd40d49347"
        },
        "genesisRLP" : "0xf901fff901faa00000000000000000000000000000000000000000000000000000000000000000a01dcc4de8dec75d7aab85b567b6ccd41ad312451b948a7413f0a142fd40d4934794945304eb96065b2a98b57a48a06ae28d285a71b5a0f5fb4160482fb04f85616efdcc018ea0c75cf9e2cf8b846489edc1776670b8aaa056e81f171bcc55a6ff8345e692c0f86e5b48e01b996cadc001622fb5e363b421a056e81f171bcc55a6ff8345e692c0f86e5b48e01b996cadc001622fb5e363b421b90100000000000000000000000000000000000000000000000000000000000000000000000000000000000000000000000000000000000000000000000000000000000000000000000000000000000000000000000000000000000000000000000000000000000000000000000000000000000000000000000000000000000000000000000000000000000000000000000000000000000000000000000000000000000000000000000000000000000000000000000000000000000000000000000000000000000000000000000000000000000000000000000000000000000000000000000000000000000000000000000000000000000000000000000000000000008302000080887fffffffffffffff808203b642a056e81f171bcc55a6ff8345e692c0f86e5b48e01b996cadc001622fb5e363b421880102030405060708c0c0",
        "lastblockhash" : "0x86db2ae27fe7ae801623f62dbe8f252a0177186e756e66a7771ac17719822300",
        "network" : "EIP158",
        "postState" : {
            "0x095e7baea6a6c7c4c2dfeb977efac326af552d87" : {
                "balance" : "0x7bcee261",
                "code" : "0x7f00000000000000000000000000000000000000000000000000000000000000017f000000000000000000000001000000000000000000000000000000000000000045407f000000000000000000000000945304eb96065b2a98b57a48a06ae28d285a71b57f000000000000000000000000000000000000000000000000000000000000c350447f00000000000000000000000100000000000000000000000000000000000000006f8b0b688d7b410a45178f6f956454f35560005155",
                "nonce" : "0x00",
                "storage" : {
                    "0x00" : "0x8b0b688d7b410a45178f6f956454f355"
                }
            },
            "0x945304eb96065b2a98b57a48a06ae28d285a71b5" : {
                "balance" : "0x4563918244f4afa9",
                "code" : "0x6000355415600957005b60203560003555",
                "nonce" : "0x00",
                "storage" : {
                }
            },
            "0xa94f5374fce5edbc8e2a8697c15331677e6ebf0b" : {
                "balance" : "0x0de0b6b32b946e24",
                "code" : "",
                "nonce" : "0x01",
                "storage" : {
                }
            }
        },
        "pre" : {
            "0x095e7baea6a6c7c4c2dfeb977efac326af552d87" : {
                "balance" : "0x00",
                "code" : "0x7f00000000000000000000000000000000000000000000000000000000000000017f000000000000000000000001000000000000000000000000000000000000000045407f000000000000000000000000945304eb96065b2a98b57a48a06ae28d285a71b57f000000000000000000000000000000000000000000000000000000000000c350447f00000000000000000000000100000000000000000000000000000000000000006f8b0b688d7b410a45178f6f956454f35560005155",
                "nonce" : "0x00",
                "storage" : {
                }
            },
            "0x945304eb96065b2a98b57a48a06ae28d285a71b5" : {
                "balance" : "0x2e",
                "code" : "0x6000355415600957005b60203560003555",
                "nonce" : "0x00",
                "storage" : {
                }
            },
            "0xa94f5374fce5edbc8e2a8697c15331677e6ebf0b" : {
                "balance" : "0x0de0b6b3a7640000",
                "code" : "",
                "nonce" : "0x00",
                "storage" : {
                }
            }
        }
    },
    "randomStatetest91BC_Frontier" : {
        "_info" : {
            "comment" : "",
            "filledwith" : "cpp-1.3.0+commit.3b370491.Linux.g++",
            "source" : "/src/BlockchainTestsFiller/bcRandomBlockhashTest/randomStatetest91BCFiller.json"
        },
        "blocks" : [
            {
                "blockHeader" : {
                    "bloom" : "0x00000000000000000000000000000000000000000000000000000000000000000000000000000000000000000000000000000000000000000000000000000000000000000000000000000000000000000000000000000000000000000000000000000000000000000000000000000000000000000000000000000000000000000000000000000000000000000000000000000000000000000000000000000000000000000000000000000000000000000000000000000000000000000000000000000000000000000000000000000000000000000000000000000000000000000000000000000000000000000000000000000000000000000000000000000000",
                    "coinbase" : "0x945304eb96065b2a98b57a48a06ae28d285a71b5",
                    "difficulty" : "0x020000",
                    "extraData" : "",
                    "gasLimit" : "0x7fffffffffffffff",
                    "gasUsed" : "0xaf7b",
                    "hash" : "0xd33d80e6d9bb1d8f737a604c408bce8a50d14010204edb68ac07044b427dc4cc",
                    "mixHash" : "0x2d9882bb6697f2734ac66ee8ed665c7c277f0d2251b2fc267e9b42a6746b032c",
                    "nonce" : "0x4bef48662480fb2f",
                    "number" : "0x01",
                    "parentHash" : "0xc6d2eb7d48055d6088b426ea4ac2e0fd80b1c351ab9b7dc87c4981e4c376e708",
                    "receiptTrie" : "0xef70972b56e2ca8baed6aa0b6af1b7d4ed93cea05ddb0af4359be433993e04cc",
                    "stateRoot" : "0xc1014ccc60abba7b6dde061c3d2b6fb94456ec208f14299db9114c215cf63f4a",
                    "timestamp" : "0x03e8",
                    "transactionsTrie" : "0xa1a8c9005086046d31b492d556a1dca992deb348022aec36b92539d0dce3ef95",
                    "uncleHash" : "0x1dcc4de8dec75d7aab85b567b6ccd41ad312451b948a7413f0a142fd40d49347"
                },
                "rlp" : "0xf90324f901fca0c6d2eb7d48055d6088b426ea4ac2e0fd80b1c351ab9b7dc87c4981e4c376e708a01dcc4de8dec75d7aab85b567b6ccd41ad312451b948a7413f0a142fd40d4934794945304eb96065b2a98b57a48a06ae28d285a71b5a0c1014ccc60abba7b6dde061c3d2b6fb94456ec208f14299db9114c215cf63f4aa0a1a8c9005086046d31b492d556a1dca992deb348022aec36b92539d0dce3ef95a0ef70972b56e2ca8baed6aa0b6af1b7d4ed93cea05ddb0af4359be433993e04ccb90100000000000000000000000000000000000000000000000000000000000000000000000000000000000000000000000000000000000000000000000000000000000000000000000000000000000000000000000000000000000000000000000000000000000000000000000000000000000000000000000000000000000000000000000000000000000000000000000000000000000000000000000000000000000000000000000000000000000000000000000000000000000000000000000000000000000000000000000000000000000000000000000000000000000000000000000000000000000000000000000000000000000000000000000000000000008302000001887fffffffffffffff82af7b8203e880a02d9882bb6697f2734ac66ee8ed665c7c277f0d2251b2fc267e9b42a6746b032c884bef48662480fb2ff90121f9011e8001845465b41894095e7baea6a6c7c4c2dfeb977efac326af552d87847bcee261b8b87f00000000000000000000000000000000000000000000000000000000000000017f000000000000000000000001000000000000000000000000000000000000000045407f000000000000000000000000945304eb96065b2a98b57a48a06ae28d285a71b57f000000000000000000000000000000000000000000000000000000000000c350447f00000000000000000000000100000000000000000000000000000000000000006f8b0b688d7b410a45178f6f956454f31ca06129e9da7bb7c03bac1b1db26c907b3a18ec336f607be4b9c5cb3090ab51bce1a023d59dccdc8a9b2551f5c375db36e0985076d68f468d01338c8be9a67dd1a907c0",
                "transactions" : [
                    {
                        "data" : "0x7f00000000000000000000000000000000000000000000000000000000000000017f000000000000000000000001000000000000000000000000000000000000000045407f000000000000000000000000945304eb96065b2a98b57a48a06ae28d285a71b57f000000000000000000000000000000000000000000000000000000000000c350447f00000000000000000000000100000000000000000000000000000000000000006f8b0b688d7b410a45178f6f956454f3",
                        "gasLimit" : "0x5465b418",
                        "gasPrice" : "0x01",
                        "nonce" : "0x00",
                        "r" : "0x6129e9da7bb7c03bac1b1db26c907b3a18ec336f607be4b9c5cb3090ab51bce1",
                        "s" : "0x23d59dccdc8a9b2551f5c375db36e0985076d68f468d01338c8be9a67dd1a907",
                        "to" : "0x095e7baea6a6c7c4c2dfeb977efac326af552d87",
                        "v" : "0x1c",
                        "value" : "0x7bcee261"
                    }
                ],
                "uncleHeaders" : [
                ]
            }
        ],
        "genesisBlockHeader" : {
            "bloom" : "0x00000000000000000000000000000000000000000000000000000000000000000000000000000000000000000000000000000000000000000000000000000000000000000000000000000000000000000000000000000000000000000000000000000000000000000000000000000000000000000000000000000000000000000000000000000000000000000000000000000000000000000000000000000000000000000000000000000000000000000000000000000000000000000000000000000000000000000000000000000000000000000000000000000000000000000000000000000000000000000000000000000000000000000000000000000000",
            "coinbase" : "0x945304eb96065b2a98b57a48a06ae28d285a71b5",
            "difficulty" : "0x020000",
            "extraData" : "0x42",
            "gasLimit" : "0x7fffffffffffffff",
            "gasUsed" : "0x00",
            "hash" : "0xc6d2eb7d48055d6088b426ea4ac2e0fd80b1c351ab9b7dc87c4981e4c376e708",
            "mixHash" : "0x56e81f171bcc55a6ff8345e692c0f86e5b48e01b996cadc001622fb5e363b421",
            "nonce" : "0x0102030405060708",
            "number" : "0x00",
            "parentHash" : "0x0000000000000000000000000000000000000000000000000000000000000000",
            "receiptTrie" : "0x56e81f171bcc55a6ff8345e692c0f86e5b48e01b996cadc001622fb5e363b421",
            "stateRoot" : "0xf5fb4160482fb04f85616efdcc018ea0c75cf9e2cf8b846489edc1776670b8aa",
            "timestamp" : "0x03b6",
            "transactionsTrie" : "0x56e81f171bcc55a6ff8345e692c0f86e5b48e01b996cadc001622fb5e363b421",
            "uncleHash" : "0x1dcc4de8dec75d7aab85b567b6ccd41ad312451b948a7413f0a142fd40d49347"
        },
        "genesisRLP" : "0xf901fff901faa00000000000000000000000000000000000000000000000000000000000000000a01dcc4de8dec75d7aab85b567b6ccd41ad312451b948a7413f0a142fd40d4934794945304eb96065b2a98b57a48a06ae28d285a71b5a0f5fb4160482fb04f85616efdcc018ea0c75cf9e2cf8b846489edc1776670b8aaa056e81f171bcc55a6ff8345e692c0f86e5b48e01b996cadc001622fb5e363b421a056e81f171bcc55a6ff8345e692c0f86e5b48e01b996cadc001622fb5e363b421b90100000000000000000000000000000000000000000000000000000000000000000000000000000000000000000000000000000000000000000000000000000000000000000000000000000000000000000000000000000000000000000000000000000000000000000000000000000000000000000000000000000000000000000000000000000000000000000000000000000000000000000000000000000000000000000000000000000000000000000000000000000000000000000000000000000000000000000000000000000000000000000000000000000000000000000000000000000000000000000000000000000000000000000000000000000000008302000080887fffffffffffffff808203b642a056e81f171bcc55a6ff8345e692c0f86e5b48e01b996cadc001622fb5e363b421880102030405060708c0c0",
        "lastblockhash" : "0xd33d80e6d9bb1d8f737a604c408bce8a50d14010204edb68ac07044b427dc4cc",
        "network" : "Frontier",
        "postState" : {
            "0x095e7baea6a6c7c4c2dfeb977efac326af552d87" : {
                "balance" : "0x7bcee261",
                "code" : "0x7f00000000000000000000000000000000000000000000000000000000000000017f000000000000000000000001000000000000000000000000000000000000000045407f000000000000000000000000945304eb96065b2a98b57a48a06ae28d285a71b57f000000000000000000000000000000000000000000000000000000000000c350447f00000000000000000000000100000000000000000000000000000000000000006f8b0b688d7b410a45178f6f956454f35560005155",
                "nonce" : "0x00",
                "storage" : {
                    "0x00" : "0x8b0b688d7b410a45178f6f956454f355"
                }
            },
            "0x945304eb96065b2a98b57a48a06ae28d285a71b5" : {
                "balance" : "0x4563918244f4afa9",
                "code" : "0x6000355415600957005b60203560003555",
                "nonce" : "0x00",
                "storage" : {
                }
            },
            "0xa94f5374fce5edbc8e2a8697c15331677e6ebf0b" : {
                "balance" : "0x0de0b6b32b946e24",
                "code" : "",
                "nonce" : "0x01",
                "storage" : {
                }
            }
        },
        "pre" : {
            "0x095e7baea6a6c7c4c2dfeb977efac326af552d87" : {
                "balance" : "0x00",
                "code" : "0x7f00000000000000000000000000000000000000000000000000000000000000017f000000000000000000000001000000000000000000000000000000000000000045407f000000000000000000000000945304eb96065b2a98b57a48a06ae28d285a71b57f000000000000000000000000000000000000000000000000000000000000c350447f00000000000000000000000100000000000000000000000000000000000000006f8b0b688d7b410a45178f6f956454f35560005155",
                "nonce" : "0x00",
                "storage" : {
                }
            },
            "0x945304eb96065b2a98b57a48a06ae28d285a71b5" : {
                "balance" : "0x2e",
                "code" : "0x6000355415600957005b60203560003555",
                "nonce" : "0x00",
                "storage" : {
                }
            },
            "0xa94f5374fce5edbc8e2a8697c15331677e6ebf0b" : {
                "balance" : "0x0de0b6b3a7640000",
                "code" : "",
                "nonce" : "0x00",
                "storage" : {
                }
            }
        }
    },
    "randomStatetest91BC_Homestead" : {
        "_info" : {
            "comment" : "",
            "filledwith" : "cpp-1.3.0+commit.3b370491.Linux.g++",
            "source" : "/src/BlockchainTestsFiller/bcRandomBlockhashTest/randomStatetest91BCFiller.json"
        },
        "blocks" : [
            {
                "blockHeader" : {
                    "bloom" : "0x00000000000000000000000000000000000000000000000000000000000000000000000000000000000000000000000000000000000000000000000000000000000000000000000000000000000000000000000000000000000000000000000000000000000000000000000000000000000000000000000000000000000000000000000000000000000000000000000000000000000000000000000000000000000000000000000000000000000000000000000000000000000000000000000000000000000000000000000000000000000000000000000000000000000000000000000000000000000000000000000000000000000000000000000000000000",
                    "coinbase" : "0x945304eb96065b2a98b57a48a06ae28d285a71b5",
                    "difficulty" : "0x020000",
                    "extraData" : "",
                    "gasLimit" : "0x7fffffffffffffff",
                    "gasUsed" : "0xaf7b",
                    "hash" : "0x451a5986d03ca92aded2f9d5a991ce789df8f13f2b36666434188bdc2f368d13",
                    "mixHash" : "0xa4697914e652345817d35812d6859d1d34addd0db76ebdc15cc3adb19f5a390c",
                    "nonce" : "0xf73a1c5547844242",
                    "number" : "0x01",
                    "parentHash" : "0xc6d2eb7d48055d6088b426ea4ac2e0fd80b1c351ab9b7dc87c4981e4c376e708",
                    "receiptTrie" : "0xef70972b56e2ca8baed6aa0b6af1b7d4ed93cea05ddb0af4359be433993e04cc",
                    "stateRoot" : "0xc1014ccc60abba7b6dde061c3d2b6fb94456ec208f14299db9114c215cf63f4a",
                    "timestamp" : "0x03e8",
                    "transactionsTrie" : "0xa1a8c9005086046d31b492d556a1dca992deb348022aec36b92539d0dce3ef95",
                    "uncleHash" : "0x1dcc4de8dec75d7aab85b567b6ccd41ad312451b948a7413f0a142fd40d49347"
                },
                "rlp" : "0xf90324f901fca0c6d2eb7d48055d6088b426ea4ac2e0fd80b1c351ab9b7dc87c4981e4c376e708a01dcc4de8dec75d7aab85b567b6ccd41ad312451b948a7413f0a142fd40d4934794945304eb96065b2a98b57a48a06ae28d285a71b5a0c1014ccc60abba7b6dde061c3d2b6fb94456ec208f14299db9114c215cf63f4aa0a1a8c9005086046d31b492d556a1dca992deb348022aec36b92539d0dce3ef95a0ef70972b56e2ca8baed6aa0b6af1b7d4ed93cea05ddb0af4359be433993e04ccb90100000000000000000000000000000000000000000000000000000000000000000000000000000000000000000000000000000000000000000000000000000000000000000000000000000000000000000000000000000000000000000000000000000000000000000000000000000000000000000000000000000000000000000000000000000000000000000000000000000000000000000000000000000000000000000000000000000000000000000000000000000000000000000000000000000000000000000000000000000000000000000000000000000000000000000000000000000000000000000000000000000000000000000000000000000000008302000001887fffffffffffffff82af7b8203e880a0a4697914e652345817d35812d6859d1d34addd0db76ebdc15cc3adb19f5a390c88f73a1c5547844242f90121f9011e8001845465b41894095e7baea6a6c7c4c2dfeb977efac326af552d87847bcee261b8b87f00000000000000000000000000000000000000000000000000000000000000017f000000000000000000000001000000000000000000000000000000000000000045407f000000000000000000000000945304eb96065b2a98b57a48a06ae28d285a71b57f000000000000000000000000000000000000000000000000000000000000c350447f00000000000000000000000100000000000000000000000000000000000000006f8b0b688d7b410a45178f6f956454f31ca06129e9da7bb7c03bac1b1db26c907b3a18ec336f607be4b9c5cb3090ab51bce1a023d59dccdc8a9b2551f5c375db36e0985076d68f468d01338c8be9a67dd1a907c0",
                "transactions" : [
                    {
                        "data" : "0x7f00000000000000000000000000000000000000000000000000000000000000017f000000000000000000000001000000000000000000000000000000000000000045407f000000000000000000000000945304eb96065b2a98b57a48a06ae28d285a71b57f000000000000000000000000000000000000000000000000000000000000c350447f00000000000000000000000100000000000000000000000000000000000000006f8b0b688d7b410a45178f6f956454f3",
                        "gasLimit" : "0x5465b418",
                        "gasPrice" : "0x01",
                        "nonce" : "0x00",
                        "r" : "0x6129e9da7bb7c03bac1b1db26c907b3a18ec336f607be4b9c5cb3090ab51bce1",
                        "s" : "0x23d59dccdc8a9b2551f5c375db36e0985076d68f468d01338c8be9a67dd1a907",
                        "to" : "0x095e7baea6a6c7c4c2dfeb977efac326af552d87",
                        "v" : "0x1c",
                        "value" : "0x7bcee261"
                    }
                ],
                "uncleHeaders" : [
                ]
            }
        ],
        "genesisBlockHeader" : {
            "bloom" : "0x00000000000000000000000000000000000000000000000000000000000000000000000000000000000000000000000000000000000000000000000000000000000000000000000000000000000000000000000000000000000000000000000000000000000000000000000000000000000000000000000000000000000000000000000000000000000000000000000000000000000000000000000000000000000000000000000000000000000000000000000000000000000000000000000000000000000000000000000000000000000000000000000000000000000000000000000000000000000000000000000000000000000000000000000000000000",
            "coinbase" : "0x945304eb96065b2a98b57a48a06ae28d285a71b5",
            "difficulty" : "0x020000",
            "extraData" : "0x42",
            "gasLimit" : "0x7fffffffffffffff",
            "gasUsed" : "0x00",
            "hash" : "0xc6d2eb7d48055d6088b426ea4ac2e0fd80b1c351ab9b7dc87c4981e4c376e708",
            "mixHash" : "0x56e81f171bcc55a6ff8345e692c0f86e5b48e01b996cadc001622fb5e363b421",
            "nonce" : "0x0102030405060708",
            "number" : "0x00",
            "parentHash" : "0x0000000000000000000000000000000000000000000000000000000000000000",
            "receiptTrie" : "0x56e81f171bcc55a6ff8345e692c0f86e5b48e01b996cadc001622fb5e363b421",
            "stateRoot" : "0xf5fb4160482fb04f85616efdcc018ea0c75cf9e2cf8b846489edc1776670b8aa",
            "timestamp" : "0x03b6",
            "transactionsTrie" : "0x56e81f171bcc55a6ff8345e692c0f86e5b48e01b996cadc001622fb5e363b421",
            "uncleHash" : "0x1dcc4de8dec75d7aab85b567b6ccd41ad312451b948a7413f0a142fd40d49347"
        },
        "genesisRLP" : "0xf901fff901faa00000000000000000000000000000000000000000000000000000000000000000a01dcc4de8dec75d7aab85b567b6ccd41ad312451b948a7413f0a142fd40d4934794945304eb96065b2a98b57a48a06ae28d285a71b5a0f5fb4160482fb04f85616efdcc018ea0c75cf9e2cf8b846489edc1776670b8aaa056e81f171bcc55a6ff8345e692c0f86e5b48e01b996cadc001622fb5e363b421a056e81f171bcc55a6ff8345e692c0f86e5b48e01b996cadc001622fb5e363b421b90100000000000000000000000000000000000000000000000000000000000000000000000000000000000000000000000000000000000000000000000000000000000000000000000000000000000000000000000000000000000000000000000000000000000000000000000000000000000000000000000000000000000000000000000000000000000000000000000000000000000000000000000000000000000000000000000000000000000000000000000000000000000000000000000000000000000000000000000000000000000000000000000000000000000000000000000000000000000000000000000000000000000000000000000000000000008302000080887fffffffffffffff808203b642a056e81f171bcc55a6ff8345e692c0f86e5b48e01b996cadc001622fb5e363b421880102030405060708c0c0",
        "lastblockhash" : "0x451a5986d03ca92aded2f9d5a991ce789df8f13f2b36666434188bdc2f368d13",
        "network" : "Homestead",
        "postState" : {
            "0x095e7baea6a6c7c4c2dfeb977efac326af552d87" : {
                "balance" : "0x7bcee261",
                "code" : "0x7f00000000000000000000000000000000000000000000000000000000000000017f000000000000000000000001000000000000000000000000000000000000000045407f000000000000000000000000945304eb96065b2a98b57a48a06ae28d285a71b57f000000000000000000000000000000000000000000000000000000000000c350447f00000000000000000000000100000000000000000000000000000000000000006f8b0b688d7b410a45178f6f956454f35560005155",
                "nonce" : "0x00",
                "storage" : {
                    "0x00" : "0x8b0b688d7b410a45178f6f956454f355"
                }
            },
            "0x945304eb96065b2a98b57a48a06ae28d285a71b5" : {
                "balance" : "0x4563918244f4afa9",
                "code" : "0x6000355415600957005b60203560003555",
                "nonce" : "0x00",
                "storage" : {
                }
            },
            "0xa94f5374fce5edbc8e2a8697c15331677e6ebf0b" : {
                "balance" : "0x0de0b6b32b946e24",
                "code" : "",
                "nonce" : "0x01",
                "storage" : {
                }
            }
        },
        "pre" : {
            "0x095e7baea6a6c7c4c2dfeb977efac326af552d87" : {
                "balance" : "0x00",
                "code" : "0x7f00000000000000000000000000000000000000000000000000000000000000017f000000000000000000000001000000000000000000000000000000000000000045407f000000000000000000000000945304eb96065b2a98b57a48a06ae28d285a71b57f000000000000000000000000000000000000000000000000000000000000c350447f00000000000000000000000100000000000000000000000000000000000000006f8b0b688d7b410a45178f6f956454f35560005155",
                "nonce" : "0x00",
                "storage" : {
                }
            },
            "0x945304eb96065b2a98b57a48a06ae28d285a71b5" : {
                "balance" : "0x2e",
                "code" : "0x6000355415600957005b60203560003555",
                "nonce" : "0x00",
                "storage" : {
                }
            },
            "0xa94f5374fce5edbc8e2a8697c15331677e6ebf0b" : {
                "balance" : "0x0de0b6b3a7640000",
                "code" : "",
                "nonce" : "0x00",
                "storage" : {
                }
            }
        }
    },
    "randomStatetest91BC_Metropolis" : {
        "_info" : {
            "comment" : "",
            "filledwith" : "cpp-1.3.0+commit.3b370491.Linux.g++",
            "source" : "/src/BlockchainTestsFiller/bcRandomBlockhashTest/randomStatetest91BCFiller.json"
        },
        "blocks" : [
            {
                "blockHeader" : {
                    "bloom" : "0x00000000000000000000000000000000000000000000000000000000000000000000000000000000000000000000000000000000000000000000000000000000000000000000000000000000000000000000000000000000000000000000000000000000000000000000000000000000000000000000000000000000000000000000000000000000000000000000000000000000000000000000000000000000000000000000000000000000000000000000000000000000000000000000000000000000000000000000000000000000000000000000000000000000000000000000000000000000000000000000000000000000000000000000000000000000",
                    "coinbase" : "0x945304eb96065b2a98b57a48a06ae28d285a71b5",
                    "difficulty" : "0x020000",
                    "extraData" : "",
                    "gasLimit" : "0x7fffffffffffffff",
                    "gasUsed" : "0xb287",
                    "hash" : "0xfb07c2cd77b02393539e9281fef88f9fc8462e5f6a0180aaea9df4b5d3986bdc",
                    "mixHash" : "0xecfde2c5b08a0fe230ccd05547b323d43e71baa963ffb86d459280e37ebed622",
                    "nonce" : "0xa409afdf2a6c26dd",
                    "number" : "0x01",
                    "parentHash" : "0xc6d2eb7d48055d6088b426ea4ac2e0fd80b1c351ab9b7dc87c4981e4c376e708",
                    "receiptTrie" : "0xab4cb03145c4c901d6edb52cb86aa6795b5f057eced1c2c9ee556c5c3faf1ed7",
                    "stateRoot" : "0xb1a4271e9eb3cc3a92525baa31156fb9c7413c79b143f2288281779bd17f602f",
                    "timestamp" : "0x03e8",
                    "transactionsTrie" : "0xa1a8c9005086046d31b492d556a1dca992deb348022aec36b92539d0dce3ef95",
                    "uncleHash" : "0x1dcc4de8dec75d7aab85b567b6ccd41ad312451b948a7413f0a142fd40d49347"
                },
                "rlp" : "0xf90324f901fca0c6d2eb7d48055d6088b426ea4ac2e0fd80b1c351ab9b7dc87c4981e4c376e708a01dcc4de8dec75d7aab85b567b6ccd41ad312451b948a7413f0a142fd40d4934794945304eb96065b2a98b57a48a06ae28d285a71b5a0b1a4271e9eb3cc3a92525baa31156fb9c7413c79b143f2288281779bd17f602fa0a1a8c9005086046d31b492d556a1dca992deb348022aec36b92539d0dce3ef95a0ab4cb03145c4c901d6edb52cb86aa6795b5f057eced1c2c9ee556c5c3faf1ed7b90100000000000000000000000000000000000000000000000000000000000000000000000000000000000000000000000000000000000000000000000000000000000000000000000000000000000000000000000000000000000000000000000000000000000000000000000000000000000000000000000000000000000000000000000000000000000000000000000000000000000000000000000000000000000000000000000000000000000000000000000000000000000000000000000000000000000000000000000000000000000000000000000000000000000000000000000000000000000000000000000000000000000000000000000000000000008302000001887fffffffffffffff82b2878203e880a0ecfde2c5b08a0fe230ccd05547b323d43e71baa963ffb86d459280e37ebed62288a409afdf2a6c26ddf90121f9011e8001845465b41894095e7baea6a6c7c4c2dfeb977efac326af552d87847bcee261b8b87f00000000000000000000000000000000000000000000000000000000000000017f000000000000000000000001000000000000000000000000000000000000000045407f000000000000000000000000945304eb96065b2a98b57a48a06ae28d285a71b57f000000000000000000000000000000000000000000000000000000000000c350447f00000000000000000000000100000000000000000000000000000000000000006f8b0b688d7b410a45178f6f956454f31ca06129e9da7bb7c03bac1b1db26c907b3a18ec336f607be4b9c5cb3090ab51bce1a023d59dccdc8a9b2551f5c375db36e0985076d68f468d01338c8be9a67dd1a907c0",
                "transactions" : [
                    {
                        "data" : "0x7f00000000000000000000000000000000000000000000000000000000000000017f000000000000000000000001000000000000000000000000000000000000000045407f000000000000000000000000945304eb96065b2a98b57a48a06ae28d285a71b57f000000000000000000000000000000000000000000000000000000000000c350447f00000000000000000000000100000000000000000000000000000000000000006f8b0b688d7b410a45178f6f956454f3",
                        "gasLimit" : "0x5465b418",
                        "gasPrice" : "0x01",
                        "nonce" : "0x00",
                        "r" : "0x6129e9da7bb7c03bac1b1db26c907b3a18ec336f607be4b9c5cb3090ab51bce1",
                        "s" : "0x23d59dccdc8a9b2551f5c375db36e0985076d68f468d01338c8be9a67dd1a907",
                        "to" : "0x095e7baea6a6c7c4c2dfeb977efac326af552d87",
                        "v" : "0x1c",
                        "value" : "0x7bcee261"
                    }
                ],
                "uncleHeaders" : [
                ]
            }
        ],
        "genesisBlockHeader" : {
            "bloom" : "0x00000000000000000000000000000000000000000000000000000000000000000000000000000000000000000000000000000000000000000000000000000000000000000000000000000000000000000000000000000000000000000000000000000000000000000000000000000000000000000000000000000000000000000000000000000000000000000000000000000000000000000000000000000000000000000000000000000000000000000000000000000000000000000000000000000000000000000000000000000000000000000000000000000000000000000000000000000000000000000000000000000000000000000000000000000000",
            "coinbase" : "0x945304eb96065b2a98b57a48a06ae28d285a71b5",
            "difficulty" : "0x020000",
            "extraData" : "0x42",
            "gasLimit" : "0x7fffffffffffffff",
            "gasUsed" : "0x00",
            "hash" : "0xc6d2eb7d48055d6088b426ea4ac2e0fd80b1c351ab9b7dc87c4981e4c376e708",
            "mixHash" : "0x56e81f171bcc55a6ff8345e692c0f86e5b48e01b996cadc001622fb5e363b421",
            "nonce" : "0x0102030405060708",
            "number" : "0x00",
            "parentHash" : "0x0000000000000000000000000000000000000000000000000000000000000000",
            "receiptTrie" : "0x56e81f171bcc55a6ff8345e692c0f86e5b48e01b996cadc001622fb5e363b421",
            "stateRoot" : "0xf5fb4160482fb04f85616efdcc018ea0c75cf9e2cf8b846489edc1776670b8aa",
            "timestamp" : "0x03b6",
            "transactionsTrie" : "0x56e81f171bcc55a6ff8345e692c0f86e5b48e01b996cadc001622fb5e363b421",
            "uncleHash" : "0x1dcc4de8dec75d7aab85b567b6ccd41ad312451b948a7413f0a142fd40d49347"
        },
        "genesisRLP" : "0xf901fff901faa00000000000000000000000000000000000000000000000000000000000000000a01dcc4de8dec75d7aab85b567b6ccd41ad312451b948a7413f0a142fd40d4934794945304eb96065b2a98b57a48a06ae28d285a71b5a0f5fb4160482fb04f85616efdcc018ea0c75cf9e2cf8b846489edc1776670b8aaa056e81f171bcc55a6ff8345e692c0f86e5b48e01b996cadc001622fb5e363b421a056e81f171bcc55a6ff8345e692c0f86e5b48e01b996cadc001622fb5e363b421b90100000000000000000000000000000000000000000000000000000000000000000000000000000000000000000000000000000000000000000000000000000000000000000000000000000000000000000000000000000000000000000000000000000000000000000000000000000000000000000000000000000000000000000000000000000000000000000000000000000000000000000000000000000000000000000000000000000000000000000000000000000000000000000000000000000000000000000000000000000000000000000000000000000000000000000000000000000000000000000000000000000000000000000000000000000000008302000080887fffffffffffffff808203b642a056e81f171bcc55a6ff8345e692c0f86e5b48e01b996cadc001622fb5e363b421880102030405060708c0c0",
        "lastblockhash" : "0xfb07c2cd77b02393539e9281fef88f9fc8462e5f6a0180aaea9df4b5d3986bdc",
        "network" : "Metropolis",
        "postState" : {
            "0x00000000000000000000000000000000000000f0" : {
                "balance" : "0x00",
                "code" : "",
                "nonce" : "0x00",
                "storage" : {
                }
            },
            "0x095e7baea6a6c7c4c2dfeb977efac326af552d87" : {
                "balance" : "0x7bcee261",
                "code" : "0x7f00000000000000000000000000000000000000000000000000000000000000017f000000000000000000000001000000000000000000000000000000000000000045407f000000000000000000000000945304eb96065b2a98b57a48a06ae28d285a71b57f000000000000000000000000000000000000000000000000000000000000c350447f00000000000000000000000100000000000000000000000000000000000000006f8b0b688d7b410a45178f6f956454f35560005155",
                "nonce" : "0x00",
                "storage" : {
                    "0x00" : "0x8b0b688d7b410a45178f6f956454f355"
                }
            },
            "0x945304eb96065b2a98b57a48a06ae28d285a71b5" : {
                "balance" : "0x4563918244f4b2b5",
                "code" : "0x6000355415600957005b60203560003555",
                "nonce" : "0x00",
                "storage" : {
                }
            },
            "0xa94f5374fce5edbc8e2a8697c15331677e6ebf0b" : {
                "balance" : "0x0de0b6b32b946b18",
                "code" : "",
                "nonce" : "0x01",
                "storage" : {
                }
            }
        },
        "pre" : {
            "0x095e7baea6a6c7c4c2dfeb977efac326af552d87" : {
                "balance" : "0x00",
                "code" : "0x7f00000000000000000000000000000000000000000000000000000000000000017f000000000000000000000001000000000000000000000000000000000000000045407f000000000000000000000000945304eb96065b2a98b57a48a06ae28d285a71b57f000000000000000000000000000000000000000000000000000000000000c350447f00000000000000000000000100000000000000000000000000000000000000006f8b0b688d7b410a45178f6f956454f35560005155",
                "nonce" : "0x00",
                "storage" : {
                }
            },
            "0x945304eb96065b2a98b57a48a06ae28d285a71b5" : {
                "balance" : "0x2e",
                "code" : "0x6000355415600957005b60203560003555",
                "nonce" : "0x00",
                "storage" : {
                }
            },
            "0xa94f5374fce5edbc8e2a8697c15331677e6ebf0b" : {
                "balance" : "0x0de0b6b3a7640000",
                "code" : "",
                "nonce" : "0x00",
                "storage" : {
                }
            }
        }
    }
}