{
    "randomStatetestDEFAULT-Tue_07_58_41-15153-575192" : {
        "_info" : {
            "comment" : "This is a canon example of a test found by fuzzing with EVMlab, demoing how a suicide-created-but-empty account has a non-zero codehash in geth",
            "filling-rpc-server" : "evm version 1.13.13-unstable-034bc466-20240219",
            "filling-tool-version" : "retesteth-0.3.2-cancun+commit.014a68a5.Linux.g++",
            "generatedTestHash" : "5be567a7497b9a4d1bd4ab55307ff32ab012c70223abd5a61af832a1544a7a84",
            "lllcversion" : "Version: 0.5.14-develop.2023.7.11+commit.c58ab2c6.mod.Linux.g++",
            "solidity" : "Version: 0.8.21+commit.d9974bed.Linux.g++",
            "source" : "src/GeneralStateTestsFiller/stBugs/randomStatetestDEFAULT-Tue_07_58_41-15153-575192Filler.json",
            "sourceHash" : "0cced3a5ce3b0620238778aa4a25a9213e106baea96117c115b68ebae144ae22"
        },
        "env" : {
            "currentBaseFee" : "0x0a",
            "currentCoinbase" : "0x1000000000000000000000000000000000000000",
            "currentDifficulty" : "0x020000",
            "currentExcessBlobGas" : "0x00",
            "currentGasLimit" : "0x01312d00",
            "currentNumber" : "0x01",
            "currentRandom" : "0x0000000000000000000000000000000000000000000000000000000000020000",
            "currentTimestamp" : "0x03e8"
        },
        "post" : {
            "Berlin" : [
                {
                    "hash" : "0xea26511890395772c6746f691cdaddef7703f0ebf077c1b0a4b4057d8ee430b4",
                    "indexes" : {
                        "data" : 0,
                        "gas" : 0,
                        "value" : 0
                    },
                    "logs" : "0x1dcc4de8dec75d7aab85b567b6ccd41ad312451b948a7413f0a142fd40d49347",
                    "txbytes" : "0xf8601c0b835fde0794100000000000000000000000000000000000000080801ba05bcf308f6e13f1d310f7bf7c07d23668bfa84384314330c375849619d8bca497a07f8b3303b6d5daf687b482dec689a32d1829d573854757e3dd2e6f101ab36b4a"
                }
            ],
            "Cancun" : [
                {
                    "hash" : "0x94e66e157675d78d45e237dfb9eedf17db923094f50e46c01d4512b4c7a81531",
                    "indexes" : {
                        "data" : 0,
                        "gas" : 0,
                        "value" : 0
                    },
                    "logs" : "0x1dcc4de8dec75d7aab85b567b6ccd41ad312451b948a7413f0a142fd40d49347",
                    "txbytes" : "0xf8601c0b835fde0794100000000000000000000000000000000000000080801ba05bcf308f6e13f1d310f7bf7c07d23668bfa84384314330c375849619d8bca497a07f8b3303b6d5daf687b482dec689a32d1829d573854757e3dd2e6f101ab36b4a"
                }
            ],
            "Istanbul" : [
                {
                    "hash" : "0x640b8971fc39eb859a73920f2d55bd58ed03a572d8a7e333be72740cbf26a4b6",
                    "indexes" : {
                        "data" : 0,
                        "gas" : 0,
                        "value" : 0
                    },
                    "logs" : "0x1dcc4de8dec75d7aab85b567b6ccd41ad312451b948a7413f0a142fd40d49347",
                    "txbytes" : "0xf8601c0b835fde0794100000000000000000000000000000000000000080801ba05bcf308f6e13f1d310f7bf7c07d23668bfa84384314330c375849619d8bca497a07f8b3303b6d5daf687b482dec689a32d1829d573854757e3dd2e6f101ab36b4a"
                }
            ],
            "London" : [
                {
                    "hash" : "0xcf7c81b9c926c400573cf77a6c15bd45f1d560d6152fed87a71cd9e9e60ce5dd",
                    "indexes" : {
                        "data" : 0,
                        "gas" : 0,
                        "value" : 0
                    },
                    "logs" : "0x1dcc4de8dec75d7aab85b567b6ccd41ad312451b948a7413f0a142fd40d49347",
                    "txbytes" : "0xf8601c0b835fde0794100000000000000000000000000000000000000080801ba05bcf308f6e13f1d310f7bf7c07d23668bfa84384314330c375849619d8bca497a07f8b3303b6d5daf687b482dec689a32d1829d573854757e3dd2e6f101ab36b4a"
                }
            ],
            "Paris" : [
                {
                    "hash" : "0xcf7c81b9c926c400573cf77a6c15bd45f1d560d6152fed87a71cd9e9e60ce5dd",
                    "indexes" : {
                        "data" : 0,
                        "gas" : 0,
                        "value" : 0
                    },
                    "logs" : "0x1dcc4de8dec75d7aab85b567b6ccd41ad312451b948a7413f0a142fd40d49347",
                    "txbytes" : "0xf8601c0b835fde0794100000000000000000000000000000000000000080801ba05bcf308f6e13f1d310f7bf7c07d23668bfa84384314330c375849619d8bca497a07f8b3303b6d5daf687b482dec689a32d1829d573854757e3dd2e6f101ab36b4a"
                }
            ],
            "Shanghai" : [
                {
                    "hash" : "0xcf7c81b9c926c400573cf77a6c15bd45f1d560d6152fed87a71cd9e9e60ce5dd",
                    "indexes" : {
                        "data" : 0,
                        "gas" : 0,
                        "value" : 0
                    },
                    "logs" : "0x1dcc4de8dec75d7aab85b567b6ccd41ad312451b948a7413f0a142fd40d49347",
                    "txbytes" : "0xf8601c0b835fde0794100000000000000000000000000000000000000080801ba05bcf308f6e13f1d310f7bf7c07d23668bfa84384314330c375849619d8bca497a07f8b3303b6d5daf687b482dec689a32d1829d573854757e3dd2e6f101ab36b4a"
                }
            ]
        },
        "pre" : {
            "0x000000000000000000000000000000000000dead" : {
                "balance" : "0x00",
                "code" : "0x62abcdefff",
                "nonce" : "0x1c",
                "storage" : {
                }
            },
            "0x000f3df6d732807ef1319fb7b8bb8522d0beac02" : {
                "balance" : "0x00",
                "code" : "0x3373fffffffffffffffffffffffffffffffffffffffe14604d57602036146024575f5ffd5b5f35801560495762001fff810690815414603c575f5ffd5b62001fff01545f5260205ff35b5f5ffd5b62001fff42064281555f359062001fff015500",
                "nonce" : "0x01",
                "storage" : {
                }
            },
            "0x1000000000000000000000000000000000000000" : {
                "balance" : "0x00",
                "code" : "0x61dead6000600060006000600061dead5af162abcdef3f600155",
                "nonce" : "0x1c",
                "storage" : {
                }
            },
            "0xa94f5374fce5edbc8e2a8697c15331677e6ebf0b" : {
                "balance" : "0x5d8fdd3ff54298b4",
                "code" : "0x",
                "nonce" : "0x1c",
                "storage" : {
                }
            }
        },
        "transaction" : {
            "data" : [
                "0x"
            ],
            "gasLimit" : [
                "0x5fde07"
            ],
            "gasPrice" : "0x0b",
            "nonce" : "0x1c",
            "secretKey" : "0x45a915e4d060149eb4365960e6a7a45f334393093061116b197e3240065ff2d8",
            "sender" : "0xa94f5374fce5edbc8e2a8697c15331677e6ebf0b",
            "to" : "0x1000000000000000000000000000000000000000",
            "value" : [
                "0x00"
            ]
        }
    }
}