{
    "randomStatetestDEFAULT-Tue_07_58_41-15153-575192_london" : {
        "_info" : {
            "comment" : "This is a canon example of a test found by fuzzing with EVMlab, demoing how a suicide-created-but-empty account has a non-zero codehash in geth",
            "filling-rpc-server" : "evm version 1.11.4-unstable-e14043db-20230308",
            "filling-tool-version" : "retesteth-0.3.0-shanghai+commit.fd2c0a83.Linux.g++",
            "generatedTestHash" : "25f646ebafb05f2cd38b5214ad6c2acff32588561411cd486eca18940e43a7e9",
            "lllcversion" : "Version: 0.5.14-develop.2022.7.30+commit.a096d7a9.Linux.g++",
            "solidity" : "Version: 0.8.17+commit.8df45f5f.Linux.g++",
            "source" : "src/GeneralStateTestsFiller/stBugs/randomStatetestDEFAULT-Tue_07_58_41-15153-575192_londonFiller.json",
            "sourceHash" : "b623dd0bc2713c0cf6e8bf69179d37243ec51b7d10f996a828e6f3964fed1cfe"
        },
        "env" : {
            "currentBaseFee" : "0x0a",
            "currentCoinbase" : "0x1000000000000000000000000000000000000000",
            "currentDifficulty" : "0x020000",
            "currentGasLimit" : "0x01312d00",
            "currentNumber" : "0x01",
            "currentRandom" : "0x0000000000000000000000000000000000000000000000000000000000020000",
            "currentTimestamp" : "0x03e8",
            "previousHash" : "0x5fa368f13facaec6bf82d19c5d075fd3386be8a4265ed2d90c29b312a09b6d9d"
        },
        "post" : {
            "Berlin" : [
                {
                    "hash" : "0xcc21f45b2d2d4a34a26263f1e4848b999c1d06388de85ccaf77605d9c1c26f1f",
                    "indexes" : {
                        "data" : 0,
                        "gas" : 0,
                        "value" : 0
                    },
                    "logs" : "0x1dcc4de8dec75d7aab85b567b6ccd41ad312451b948a7413f0a142fd40d49347",
                    "txbytes" : "0xf8601c0a835fde0794100000000000000000000000000000000000000080801ba0945b0f78b6921849705296174ddec81de943cf3c8d9b65cc3dc85d0946bb64eda039303ddce8ae619da612ff2d33511309c0d5db322e4a3a6bb3013eef5388ebce"
                }
            ],
            "Istanbul" : [
                {
                    "hash" : "0x7b7af87151447302aaa5057dacfa3ce718a7ade115cacbdfcf62bb2a78fbe64c",
                    "indexes" : {
                        "data" : 0,
                        "gas" : 0,
                        "value" : 0
                    },
                    "logs" : "0x1dcc4de8dec75d7aab85b567b6ccd41ad312451b948a7413f0a142fd40d49347",
                    "txbytes" : "0xf8601c0a835fde0794100000000000000000000000000000000000000080801ba0945b0f78b6921849705296174ddec81de943cf3c8d9b65cc3dc85d0946bb64eda039303ddce8ae619da612ff2d33511309c0d5db322e4a3a6bb3013eef5388ebce"
                }
            ],
            "London" : [
                {
                    "hash" : "0x9291257cadfc5b03d9f08a8ef7b74ac0af8a734f5b1312cd4dbb254bf41d5bff",
                    "indexes" : {
                        "data" : 0,
                        "gas" : 0,
                        "value" : 0
                    },
                    "logs" : "0x1dcc4de8dec75d7aab85b567b6ccd41ad312451b948a7413f0a142fd40d49347",
                    "txbytes" : "0xf8601c0a835fde0794100000000000000000000000000000000000000080801ba0945b0f78b6921849705296174ddec81de943cf3c8d9b65cc3dc85d0946bb64eda039303ddce8ae619da612ff2d33511309c0d5db322e4a3a6bb3013eef5388ebce"
                }
            ],
            "Merge" : [
                {
                    "hash" : "0x9291257cadfc5b03d9f08a8ef7b74ac0af8a734f5b1312cd4dbb254bf41d5bff",
                    "indexes" : {
                        "data" : 0,
                        "gas" : 0,
                        "value" : 0
                    },
                    "logs" : "0x1dcc4de8dec75d7aab85b567b6ccd41ad312451b948a7413f0a142fd40d49347",
                    "txbytes" : "0xf8601c0a835fde0794100000000000000000000000000000000000000080801ba0945b0f78b6921849705296174ddec81de943cf3c8d9b65cc3dc85d0946bb64eda039303ddce8ae619da612ff2d33511309c0d5db322e4a3a6bb3013eef5388ebce"
                }
            ],
            "Shanghai" : [
                {
                    "hash" : "0x9291257cadfc5b03d9f08a8ef7b74ac0af8a734f5b1312cd4dbb254bf41d5bff",
                    "indexes" : {
                        "data" : 0,
                        "gas" : 0,
                        "value" : 0
                    },
                    "logs" : "0x1dcc4de8dec75d7aab85b567b6ccd41ad312451b948a7413f0a142fd40d49347",
                    "txbytes" : "0xf8601c0a835fde0794100000000000000000000000000000000000000080801ba0945b0f78b6921849705296174ddec81de943cf3c8d9b65cc3dc85d0946bb64eda039303ddce8ae619da612ff2d33511309c0d5db322e4a3a6bb3013eef5388ebce"
                }
            ]
        },
        "pre" : {
            "0x000000000000000000000000000000000000dead" : {
                "balance" : "0x00",
                "code" : "0x62abcdefff",
                "nonce" : "0x1c",
                "storage" : {
                }
            },
            "0x1000000000000000000000000000000000000000" : {
                "balance" : "0x00",
                "code" : "0x61dead6000600060006000600061dead5af162abcdef3f600155",
                "nonce" : "0x1c",
                "storage" : {
                }
            },
            "0xa94f5374fce5edbc8e2a8697c15331677e6ebf0b" : {
                "balance" : "0x5d8fdd3ff54298b4",
                "code" : "0x",
                "nonce" : "0x1c",
                "storage" : {
                }
            }
        },
        "transaction" : {
            "data" : [
                "0x"
            ],
            "gasLimit" : [
                "0x5fde07"
            ],
            "gasPrice" : "0x0a",
            "nonce" : "0x1c",
            "secretKey" : "0x45a915e4d060149eb4365960e6a7a45f334393093061116b197e3240065ff2d8",
            "sender" : "0xa94f5374fce5edbc8e2a8697c15331677e6ebf0b",
            "to" : "0x1000000000000000000000000000000000000000",
            "value" : [
                "0x00"
            ]
        }
    }
}