{
    "staticcall_createfails" : {
        "_info" : {
            "comment" : "",
            "filling-rpc-server" : "evm version 1.10.21-unstable-692bfd1b-20220630",
            "filling-tool-version" : "retesteth-0.2.2-testinfo+commit.1e11e5ce.Linux.g++",
            "generatedTestHash" : "7b07a75f413162d6f370e77678e63e4fa77cf1c0e3da26793dccdfd4fe820c05",
            "lllcversion" : "Version: 0.5.14-develop.2022.6.6+commit.245805fe.Linux.g++",
            "solidity" : "Version: 0.8.5+commit.a4f2e591.Linux.g++",
            "source" : "src/GeneralStateTestsFiller/stBugs/staticcall_createfailsFiller.json",
            "sourceHash" : "9b0330e3c24e67b58bc95d0c721eb5754f1ae853fa803f826499529ff0ed60a7"
        },
        "env" : {
            "currentBaseFee" : "0x0a",
            "currentCoinbase" : "0x1000000000000000000000000000000000000000",
            "currentDifficulty" : "0x020000",
            "currentGasLimit" : "0x54a60a4202e088",
            "currentNumber" : "0x01",
            "currentRandom" : "0x0000000000000000000000000000000000000000000000000000000000020000",
            "currentTimestamp" : "0x03e8",
            "previousHash" : "0x0da7f1041f7b60aec6b67cafa0c08c10c9954d0b43737891d204ff372d166593"
        },
        "post" : {
            "Berlin" : [
                {
                    "hash" : "0xfc5e8cde5508404018bb8eb266c087f9adce307ef202ac5c55727013a001332c",
                    "indexes" : {
                        "data" : 0,
                        "gas" : 0,
                        "value" : 0
                    },
                    "logs" : "0x1dcc4de8dec75d7aab85b567b6ccd41ad312451b948a7413f0a142fd40d49347",
                    "txbytes" : "0xf880800a8301d4c094b94f5374fce5edbc8e2a8697c15331677e6ebf0b80a0000000000000000000000000c94f5374fce5edbc8e2a8697c15331677e6ebf0b1ba009e63b5e4eb0b681fbdb4e912b508ad3d73338b9323ff26e50c6ff405668c3eda02b546184882273ef66c9961f085171d5b5679293a65a80776baecb30fda1db2b"
                },
                {
                    "hash" : "0xfc5e8cde5508404018bb8eb266c087f9adce307ef202ac5c55727013a001332c",
                    "indexes" : {
                        "data" : 1,
                        "gas" : 0,
                        "value" : 0
                    },
                    "logs" : "0x1dcc4de8dec75d7aab85b567b6ccd41ad312451b948a7413f0a142fd40d49347",
                    "txbytes" : "0xf880800a8301d4c094b94f5374fce5edbc8e2a8697c15331677e6ebf0b80a0000000000000000000000000d94f5374fce5edbc8e2a8697c15331677e6ebf0b1ca0844567c660a6723df62f98f3128a2a836402265567f7cf94e4786a607abc50f5a021b48a2aa1f650049631c01b6dcf2524764c604c78bee31bd3319cdcb370675b"
                }
            ],
            "Istanbul" : [
                {
                    "hash" : "0x1dd57feacecb832943af8fdc455d539605fca8f5a22ebc4cd5ba1b154e2cd162",
                    "indexes" : {
                        "data" : 0,
                        "gas" : 0,
                        "value" : 0
                    },
                    "logs" : "0x1dcc4de8dec75d7aab85b567b6ccd41ad312451b948a7413f0a142fd40d49347",
                    "txbytes" : "0xf880800a8301d4c094b94f5374fce5edbc8e2a8697c15331677e6ebf0b80a0000000000000000000000000c94f5374fce5edbc8e2a8697c15331677e6ebf0b1ba009e63b5e4eb0b681fbdb4e912b508ad3d73338b9323ff26e50c6ff405668c3eda02b546184882273ef66c9961f085171d5b5679293a65a80776baecb30fda1db2b"
                },
                {
                    "hash" : "0x1dd57feacecb832943af8fdc455d539605fca8f5a22ebc4cd5ba1b154e2cd162",
                    "indexes" : {
                        "data" : 1,
                        "gas" : 0,
                        "value" : 0
                    },
                    "logs" : "0x1dcc4de8dec75d7aab85b567b6ccd41ad312451b948a7413f0a142fd40d49347",
                    "txbytes" : "0xf880800a8301d4c094b94f5374fce5edbc8e2a8697c15331677e6ebf0b80a0000000000000000000000000d94f5374fce5edbc8e2a8697c15331677e6ebf0b1ca0844567c660a6723df62f98f3128a2a836402265567f7cf94e4786a607abc50f5a021b48a2aa1f650049631c01b6dcf2524764c604c78bee31bd3319cdcb370675b"
                }
            ],
            "London" : [
                {
                    "hash" : "0x2ca98c6cda480e1c1f4f8a2b21a4732345f3629f5aeee55752a006d14e2b009c",
                    "indexes" : {
                        "data" : 0,
                        "gas" : 0,
                        "value" : 0
                    },
                    "logs" : "0x1dcc4de8dec75d7aab85b567b6ccd41ad312451b948a7413f0a142fd40d49347",
                    "txbytes" : "0xf880800a8301d4c094b94f5374fce5edbc8e2a8697c15331677e6ebf0b80a0000000000000000000000000c94f5374fce5edbc8e2a8697c15331677e6ebf0b1ba009e63b5e4eb0b681fbdb4e912b508ad3d73338b9323ff26e50c6ff405668c3eda02b546184882273ef66c9961f085171d5b5679293a65a80776baecb30fda1db2b"
                },
                {
                    "hash" : "0x2ca98c6cda480e1c1f4f8a2b21a4732345f3629f5aeee55752a006d14e2b009c",
                    "indexes" : {
                        "data" : 1,
                        "gas" : 0,
                        "value" : 0
                    },
                    "logs" : "0x1dcc4de8dec75d7aab85b567b6ccd41ad312451b948a7413f0a142fd40d49347",
                    "txbytes" : "0xf880800a8301d4c094b94f5374fce5edbc8e2a8697c15331677e6ebf0b80a0000000000000000000000000d94f5374fce5edbc8e2a8697c15331677e6ebf0b1ca0844567c660a6723df62f98f3128a2a836402265567f7cf94e4786a607abc50f5a021b48a2aa1f650049631c01b6dcf2524764c604c78bee31bd3319cdcb370675b"
                }
            ],
            "Merge" : [
                {
                    "hash" : "0x2ca98c6cda480e1c1f4f8a2b21a4732345f3629f5aeee55752a006d14e2b009c",
                    "indexes" : {
                        "data" : 0,
                        "gas" : 0,
                        "value" : 0
                    },
                    "logs" : "0x1dcc4de8dec75d7aab85b567b6ccd41ad312451b948a7413f0a142fd40d49347",
                    "txbytes" : "0xf880800a8301d4c094b94f5374fce5edbc8e2a8697c15331677e6ebf0b80a0000000000000000000000000c94f5374fce5edbc8e2a8697c15331677e6ebf0b1ba009e63b5e4eb0b681fbdb4e912b508ad3d73338b9323ff26e50c6ff405668c3eda02b546184882273ef66c9961f085171d5b5679293a65a80776baecb30fda1db2b"
                },
                {
                    "hash" : "0x2ca98c6cda480e1c1f4f8a2b21a4732345f3629f5aeee55752a006d14e2b009c",
                    "indexes" : {
                        "data" : 1,
                        "gas" : 0,
                        "value" : 0
                    },
                    "logs" : "0x1dcc4de8dec75d7aab85b567b6ccd41ad312451b948a7413f0a142fd40d49347",
                    "txbytes" : "0xf880800a8301d4c094b94f5374fce5edbc8e2a8697c15331677e6ebf0b80a0000000000000000000000000d94f5374fce5edbc8e2a8697c15331677e6ebf0b1ca0844567c660a6723df62f98f3128a2a836402265567f7cf94e4786a607abc50f5a021b48a2aa1f650049631c01b6dcf2524764c604c78bee31bd3319cdcb370675b"
                }
            ]
        },
        "pre" : {
            "0xa94f5374fce5edbc8e2a8697c15331677e6ebf0b" : {
                "balance" : "0x38beec8feeca2598",
                "code" : "0x",
                "nonce" : "0x00",
                "storage" : {
                }
            },
            "0xb94f5374fce5edbc8e2a8697c15331677e6ebf0b" : {
                "balance" : "0x00",
                "code" : "0x600060006000600060003562011170fa60015500",
                "nonce" : "0x3f",
                "storage" : {
                    "0x01" : "0x01"
                }
            },
            "0xc94f5374fce5edbc8e2a8697c15331677e6ebf0b" : {
                "balance" : "0x00",
                "code" : "0x6001600152600160016001f060025500",
                "nonce" : "0x3f",
                "storage" : {
                }
            },
            "0xd94f5374fce5edbc8e2a8697c15331677e6ebf0b" : {
                "balance" : "0x00",
                "code" : "0x60006000f0",
                "nonce" : "0x3f",
                "storage" : {
                }
            }
        },
        "transaction" : {
            "data" : [
                "0x000000000000000000000000c94f5374fce5edbc8e2a8697c15331677e6ebf0b",
                "0x000000000000000000000000d94f5374fce5edbc8e2a8697c15331677e6ebf0b"
            ],
            "gasLimit" : [
                "0x01d4c0"
            ],
            "gasPrice" : "0x0a",
            "nonce" : "0x00",
            "secretKey" : "0x45a915e4d060149eb4365960e6a7a45f334393093061116b197e3240065ff2d8",
            "sender" : "0xa94f5374fce5edbc8e2a8697c15331677e6ebf0b",
            "to" : "0xb94f5374fce5edbc8e2a8697c15331677e6ebf0b",
            "value" : [
                "0x00"
            ]
        }
    }
}