{
    "createFailBalanceTooLow_d0g0v0_Byzantium" : {
        "_info" : {
            "comment" : "",
            "filledwith" : "cpp-1.3.0+commit.7b8143d3.Linux.g++",
            "source" : "/src/GenStateTestAsBcTemp/stCallCreateCallCodeTest/createFailBalanceTooLow_d0g0v0Filler.json"
        },
        "blocks" : [
            {
                "blockHeader" : {
                    "bloom" : "0x00000000000000000000000000000000000000000000000000000000000000000000000000000000000000000000000000000000000000000000000000000000000000000000000000000000000000000000000000000000000000000000000000000000000000000000000000000000000000000000000000000000000000000000000000000000000000000000000000000000000000000000000000000000000000000000000000000000000000000000000000000000000000000000000000000000000000000000000000000000000000000000000000000000000000000000000000000000000000000000000000000000000000000000000000000000",
                    "coinbase" : "0x2adc25665018aa1fe0e6bc666dac8fc2697ff9ba",
                    "difficulty" : "0x020000",
                    "extraData" : "",
                    "gasLimit" : "0x05f5e100",
                    "gasUsed" : "0xcf1d",
                    "hash" : "0x3a06ae5cba3e06aaa0598721b029c7babfa00a01291ee2c1f12e964bfb1b5f92",
                    "mixHash" : "0xbbe0e8e5d7df6067b6cf400eeb17e81885ea073a3bec1a38f36105f5c3d36efc",
                    "nonce" : "0x3cb79c81c41c10d1",
                    "number" : "0x01",
                    "parentHash" : "0xef1bb6b29119fd8042d4ed3543a0682ea4f6e2c84456090419aef623013dfe8a",
                    "receiptTrie" : "0x00b8495dc39a1867756b3962d9316b90d7e98079aaa353df03c564f919ea4e81",
                    "stateRoot" : "0x99994bd023948af6a4e4106fdeb75d51b5b95e7920561dbcab830500f62933c8",
                    "timestamp" : "0x03e8",
                    "transactionsTrie" : "0xb9bf574604a1e0ffbae835310ec9467f0cf530bf8944d4df39bf78186fd55544",
                    "uncleHash" : "0x1dcc4de8dec75d7aab85b567b6ccd41ad312451b948a7413f0a142fd40d49347"
                },
                "rlp" : "0xf9025ff901f8a0ef1bb6b29119fd8042d4ed3543a0682ea4f6e2c84456090419aef623013dfe8aa01dcc4de8dec75d7aab85b567b6ccd41ad312451b948a7413f0a142fd40d49347942adc25665018aa1fe0e6bc666dac8fc2697ff9baa099994bd023948af6a4e4106fdeb75d51b5b95e7920561dbcab830500f62933c8a0b9bf574604a1e0ffbae835310ec9467f0cf530bf8944d4df39bf78186fd55544a000b8495dc39a1867756b3962d9316b90d7e98079aaa353df03c564f919ea4e81b901000000000000000000000000000000000000000000000000000000000000000000000000000000000000000000000000000000000000000000000000000000000000000000000000000000000000000000000000000000000000000000000000000000000000000000000000000000000000000000000000000000000000000000000000000000000000000000000000000000000000000000000000000000000000000000000000000000000000000000000000000000000000000000000000000000000000000000000000000000000000000000000000000000000000000000000000000000000000000000000000000000000000000000000000000000000083020000018405f5e10082cf1d8203e880a0bbe0e8e5d7df6067b6cf400eeb17e81885ea073a3bec1a38f36105f5c3d36efc883cb79c81c41c10d1f861f85f800182cf1d94095e7baea6a6c7c4c2dfeb977efac326af552d8717801ca0eab5fca09ac6909e72a92ec0fced7ce18900f2024141b40e0c61adec0be059cda043d95a7d30256afeb5792db54b1b22199f974794e6bc7efdfcdaf34109f5bb0cc0",
                "transactions" : [
                    {
                        "data" : "",
                        "gasLimit" : "0xcf1d",
                        "gasPrice" : "0x01",
                        "nonce" : "0x00",
                        "r" : "0xeab5fca09ac6909e72a92ec0fced7ce18900f2024141b40e0c61adec0be059cd",
                        "s" : "0x43d95a7d30256afeb5792db54b1b22199f974794e6bc7efdfcdaf34109f5bb0c",
                        "to" : "0x095e7baea6a6c7c4c2dfeb977efac326af552d87",
                        "v" : "0x1c",
                        "value" : "0x17"
                    }
                ],
                "uncleHeaders" : [
                ]
            }
        ],
        "genesisBlockHeader" : {
            "bloom" : "0x00000000000000000000000000000000000000000000000000000000000000000000000000000000000000000000000000000000000000000000000000000000000000000000000000000000000000000000000000000000000000000000000000000000000000000000000000000000000000000000000000000000000000000000000000000000000000000000000000000000000000000000000000000000000000000000000000000000000000000000000000000000000000000000000000000000000000000000000000000000000000000000000000000000000000000000000000000000000000000000000000000000000000000000000000000000",
            "coinbase" : "0x2adc25665018aa1fe0e6bc666dac8fc2697ff9ba",
            "difficulty" : "0x020000",
            "extraData" : "0x42",
            "gasLimit" : "0x05f5e100",
            "gasUsed" : "0x00",
            "hash" : "0xef1bb6b29119fd8042d4ed3543a0682ea4f6e2c84456090419aef623013dfe8a",
            "mixHash" : "0x56e81f171bcc55a6ff8345e692c0f86e5b48e01b996cadc001622fb5e363b421",
            "nonce" : "0x0102030405060708",
            "number" : "0x00",
            "parentHash" : "0x0000000000000000000000000000000000000000000000000000000000000000",
            "receiptTrie" : "0x56e81f171bcc55a6ff8345e692c0f86e5b48e01b996cadc001622fb5e363b421",
            "stateRoot" : "0x9ccb0c4ed8bebbe743112c67416ed1c59fdad42dfa0ac2a3cf47ae2bb4aeba61",
            "timestamp" : "0x03b6",
            "transactionsTrie" : "0x56e81f171bcc55a6ff8345e692c0f86e5b48e01b996cadc001622fb5e363b421",
            "uncleHash" : "0x1dcc4de8dec75d7aab85b567b6ccd41ad312451b948a7413f0a142fd40d49347"
        },
        "genesisRLP" : "0xf901fbf901f6a00000000000000000000000000000000000000000000000000000000000000000a01dcc4de8dec75d7aab85b567b6ccd41ad312451b948a7413f0a142fd40d49347942adc25665018aa1fe0e6bc666dac8fc2697ff9baa09ccb0c4ed8bebbe743112c67416ed1c59fdad42dfa0ac2a3cf47ae2bb4aeba61a056e81f171bcc55a6ff8345e692c0f86e5b48e01b996cadc001622fb5e363b421a056e81f171bcc55a6ff8345e692c0f86e5b48e01b996cadc001622fb5e363b421b901000000000000000000000000000000000000000000000000000000000000000000000000000000000000000000000000000000000000000000000000000000000000000000000000000000000000000000000000000000000000000000000000000000000000000000000000000000000000000000000000000000000000000000000000000000000000000000000000000000000000000000000000000000000000000000000000000000000000000000000000000000000000000000000000000000000000000000000000000000000000000000000000000000000000000000000000000000000000000000000000000000000000000000000000000000000083020000808405f5e100808203b642a056e81f171bcc55a6ff8345e692c0f86e5b48e01b996cadc001622fb5e363b421880102030405060708c0c0",
        "lastblockhash" : "0x3a06ae5cba3e06aaa0598721b029c7babfa00a01291ee2c1f12e964bfb1b5f92",
        "network" : "Byzantium",
        "postState" : {
            "0x095e7baea6a6c7c4c2dfeb977efac326af552d87" : {
                "balance" : "0x0de0b6b3a7640000",
                "code" : "0x605a60005360016000670de0b6b3a7640018f0ff",
                "nonce" : "0x00",
                "storage" : {
                }
            },
            "0x2adc25665018aa1fe0e6bc666dac8fc2697ff9ba" : {
                "balance" : "0x29a2241af62ccf1d",
                "code" : "",
                "nonce" : "0x00",
                "storage" : {
                }
            },
            "0xa94f5374fce5edbc8e2a8697c15331677e6ebf0b" : {
                "balance" : "0x0de0b6b3a76330e3",
                "code" : "",
                "nonce" : "0x01",
                "storage" : {
                }
            }
        },
        "pre" : {
            "0x095e7baea6a6c7c4c2dfeb977efac326af552d87" : {
                "balance" : "0x0de0b6b3a7640000",
                "code" : "0x605a60005360016000670de0b6b3a7640018f0ff",
                "nonce" : "0x00",
                "storage" : {
                }
            },
            "0xa94f5374fce5edbc8e2a8697c15331677e6ebf0b" : {
                "balance" : "0x0de0b6b3a7640000",
                "code" : "",
                "nonce" : "0x00",
                "storage" : {
                }
            }
        }
    },
    "createFailBalanceTooLow_d0g0v0_Constantinople" : {
        "_info" : {
            "comment" : "",
            "filledwith" : "cpp-1.3.0+commit.7b8143d3.Linux.g++",
            "source" : "/src/GenStateTestAsBcTemp/stCallCreateCallCodeTest/createFailBalanceTooLow_d0g0v0Filler.json"
        },
        "blocks" : [
            {
                "blockHeader" : {
                    "bloom" : "0x00000000000000000000000000000000000000000000000000000000000000000000000000000000000000000000000000000000000000000000000000000000000000000000000000000000000000000000000000000000000000000000000000000000000000000000000000000000000000000000000000000000000000000000000000000000000000000000000000000000000000000000000000000000000000000000000000000000000000000000000000000000000000000000000000000000000000000000000000000000000000000000000000000000000000000000000000000000000000000000000000000000000000000000000000000000",
                    "coinbase" : "0x2adc25665018aa1fe0e6bc666dac8fc2697ff9ba",
                    "difficulty" : "0x020000",
                    "extraData" : "",
                    "gasLimit" : "0x05f5e100",
                    "gasUsed" : "0xcf1d",
                    "hash" : "0xdc5dcafa09ebd33a1354ff27e66135a99084f25e282ebf6936815590d3f12fe5",
                    "mixHash" : "0x687bd1e2dd785d74e02219ef07d30a11e08f897e37113fbe2fc0bd69059a646c",
                    "nonce" : "0x6665e971cac97922",
                    "number" : "0x01",
                    "parentHash" : "0xef1bb6b29119fd8042d4ed3543a0682ea4f6e2c84456090419aef623013dfe8a",
                    "receiptTrie" : "0x00b8495dc39a1867756b3962d9316b90d7e98079aaa353df03c564f919ea4e81",
                    "stateRoot" : "0x8f8c923c767baa24af01c9f5b9e90d8a64bf04fa289946c00b9562e5d83ae4ad",
                    "timestamp" : "0x03e8",
                    "transactionsTrie" : "0xb9bf574604a1e0ffbae835310ec9467f0cf530bf8944d4df39bf78186fd55544",
                    "uncleHash" : "0x1dcc4de8dec75d7aab85b567b6ccd41ad312451b948a7413f0a142fd40d49347"
                },
                "rlp" : "0xf9025ff901f8a0ef1bb6b29119fd8042d4ed3543a0682ea4f6e2c84456090419aef623013dfe8aa01dcc4de8dec75d7aab85b567b6ccd41ad312451b948a7413f0a142fd40d49347942adc25665018aa1fe0e6bc666dac8fc2697ff9baa08f8c923c767baa24af01c9f5b9e90d8a64bf04fa289946c00b9562e5d83ae4ada0b9bf574604a1e0ffbae835310ec9467f0cf530bf8944d4df39bf78186fd55544a000b8495dc39a1867756b3962d9316b90d7e98079aaa353df03c564f919ea4e81b901000000000000000000000000000000000000000000000000000000000000000000000000000000000000000000000000000000000000000000000000000000000000000000000000000000000000000000000000000000000000000000000000000000000000000000000000000000000000000000000000000000000000000000000000000000000000000000000000000000000000000000000000000000000000000000000000000000000000000000000000000000000000000000000000000000000000000000000000000000000000000000000000000000000000000000000000000000000000000000000000000000000000000000000000000000000083020000018405f5e10082cf1d8203e880a0687bd1e2dd785d74e02219ef07d30a11e08f897e37113fbe2fc0bd69059a646c886665e971cac97922f861f85f800182cf1d94095e7baea6a6c7c4c2dfeb977efac326af552d8717801ca0eab5fca09ac6909e72a92ec0fced7ce18900f2024141b40e0c61adec0be059cda043d95a7d30256afeb5792db54b1b22199f974794e6bc7efdfcdaf34109f5bb0cc0",
                "transactions" : [
                    {
                        "data" : "",
                        "gasLimit" : "0xcf1d",
                        "gasPrice" : "0x01",
                        "nonce" : "0x00",
                        "r" : "0xeab5fca09ac6909e72a92ec0fced7ce18900f2024141b40e0c61adec0be059cd",
                        "s" : "0x43d95a7d30256afeb5792db54b1b22199f974794e6bc7efdfcdaf34109f5bb0c",
                        "to" : "0x095e7baea6a6c7c4c2dfeb977efac326af552d87",
                        "v" : "0x1c",
                        "value" : "0x17"
                    }
                ],
                "uncleHeaders" : [
                ]
            }
        ],
        "genesisBlockHeader" : {
            "bloom" : "0x00000000000000000000000000000000000000000000000000000000000000000000000000000000000000000000000000000000000000000000000000000000000000000000000000000000000000000000000000000000000000000000000000000000000000000000000000000000000000000000000000000000000000000000000000000000000000000000000000000000000000000000000000000000000000000000000000000000000000000000000000000000000000000000000000000000000000000000000000000000000000000000000000000000000000000000000000000000000000000000000000000000000000000000000000000000",
            "coinbase" : "0x2adc25665018aa1fe0e6bc666dac8fc2697ff9ba",
            "difficulty" : "0x020000",
            "extraData" : "0x42",
            "gasLimit" : "0x05f5e100",
            "gasUsed" : "0x00",
            "hash" : "0xef1bb6b29119fd8042d4ed3543a0682ea4f6e2c84456090419aef623013dfe8a",
            "mixHash" : "0x56e81f171bcc55a6ff8345e692c0f86e5b48e01b996cadc001622fb5e363b421",
            "nonce" : "0x0102030405060708",
            "number" : "0x00",
            "parentHash" : "0x0000000000000000000000000000000000000000000000000000000000000000",
            "receiptTrie" : "0x56e81f171bcc55a6ff8345e692c0f86e5b48e01b996cadc001622fb5e363b421",
            "stateRoot" : "0x9ccb0c4ed8bebbe743112c67416ed1c59fdad42dfa0ac2a3cf47ae2bb4aeba61",
            "timestamp" : "0x03b6",
            "transactionsTrie" : "0x56e81f171bcc55a6ff8345e692c0f86e5b48e01b996cadc001622fb5e363b421",
            "uncleHash" : "0x1dcc4de8dec75d7aab85b567b6ccd41ad312451b948a7413f0a142fd40d49347"
        },
        "genesisRLP" : "0xf901fbf901f6a00000000000000000000000000000000000000000000000000000000000000000a01dcc4de8dec75d7aab85b567b6ccd41ad312451b948a7413f0a142fd40d49347942adc25665018aa1fe0e6bc666dac8fc2697ff9baa09ccb0c4ed8bebbe743112c67416ed1c59fdad42dfa0ac2a3cf47ae2bb4aeba61a056e81f171bcc55a6ff8345e692c0f86e5b48e01b996cadc001622fb5e363b421a056e81f171bcc55a6ff8345e692c0f86e5b48e01b996cadc001622fb5e363b421b901000000000000000000000000000000000000000000000000000000000000000000000000000000000000000000000000000000000000000000000000000000000000000000000000000000000000000000000000000000000000000000000000000000000000000000000000000000000000000000000000000000000000000000000000000000000000000000000000000000000000000000000000000000000000000000000000000000000000000000000000000000000000000000000000000000000000000000000000000000000000000000000000000000000000000000000000000000000000000000000000000000000000000000000000000000000083020000808405f5e100808203b642a056e81f171bcc55a6ff8345e692c0f86e5b48e01b996cadc001622fb5e363b421880102030405060708c0c0",
        "lastblockhash" : "0xdc5dcafa09ebd33a1354ff27e66135a99084f25e282ebf6936815590d3f12fe5",
        "network" : "Constantinople",
        "postState" : {
            "0x00000000000000000000000000000000000000f0" : {
                "balance" : "0x00",
                "code" : "",
                "nonce" : "0x00",
                "storage" : {
                }
            },
            "0x095e7baea6a6c7c4c2dfeb977efac326af552d87" : {
                "balance" : "0x0de0b6b3a7640000",
                "code" : "0x605a60005360016000670de0b6b3a7640018f0ff",
                "nonce" : "0x00",
                "storage" : {
                }
            },
            "0x2adc25665018aa1fe0e6bc666dac8fc2697ff9ba" : {
                "balance" : "0x29a2241af62ccf1d",
                "code" : "",
                "nonce" : "0x00",
                "storage" : {
                }
            },
            "0xa94f5374fce5edbc8e2a8697c15331677e6ebf0b" : {
                "balance" : "0x0de0b6b3a76330e3",
                "code" : "",
                "nonce" : "0x01",
                "storage" : {
                }
            }
        },
        "pre" : {
            "0x095e7baea6a6c7c4c2dfeb977efac326af552d87" : {
                "balance" : "0x0de0b6b3a7640000",
                "code" : "0x605a60005360016000670de0b6b3a7640018f0ff",
                "nonce" : "0x00",
                "storage" : {
                }
            },
            "0xa94f5374fce5edbc8e2a8697c15331677e6ebf0b" : {
                "balance" : "0x0de0b6b3a7640000",
                "code" : "",
                "nonce" : "0x00",
                "storage" : {
                }
            }
        }
    },
    "createFailBalanceTooLow_d0g0v0_EIP150" : {
        "_info" : {
            "comment" : "",
            "filledwith" : "cpp-1.3.0+commit.7b8143d3.Linux.g++",
            "source" : "/src/GenStateTestAsBcTemp/stCallCreateCallCodeTest/createFailBalanceTooLow_d0g0v0Filler.json"
        },
        "blocks" : [
            {
                "blockHeader" : {
                    "bloom" : "0x00000000000000000000000000000000000000000000000000000000000000000000000000000000000000000000000000000000000000000000000000000000000000000000000000000000000000000000000000000000000000000000000000000000000000000000000000000000000000000000000000000000000000000000000000000000000000000000000000000000000000000000000000000000000000000000000000000000000000000000000000000000000000000000000000000000000000000000000000000000000000000000000000000000000000000000000000000000000000000000000000000000000000000000000000000000",
                    "coinbase" : "0x2adc25665018aa1fe0e6bc666dac8fc2697ff9ba",
                    "difficulty" : "0x020000",
                    "extraData" : "",
                    "gasLimit" : "0x05f5e100",
                    "gasUsed" : "0xcf1d",
                    "hash" : "0x0f664d8c92d83c06f03318ab934b8072c915e837e3bcc9bc30e750cf0f0d5823",
                    "mixHash" : "0xd4550134f9783595ce23c5ba703df7bcd9d865d1f4739235ba81e9de453e851e",
                    "nonce" : "0x7d87f6ec5b479574",
                    "number" : "0x01",
                    "parentHash" : "0xef1bb6b29119fd8042d4ed3543a0682ea4f6e2c84456090419aef623013dfe8a",
                    "receiptTrie" : "0xf3cad313855606752e420b2cb5443a211ab0e343827bf82aa3584688232ca279",
                    "stateRoot" : "0x2b6e0f3b883465d535151624e35f068b5d66f767ea8205455585411f8dd25d8b",
                    "timestamp" : "0x03e8",
                    "transactionsTrie" : "0xb9bf574604a1e0ffbae835310ec9467f0cf530bf8944d4df39bf78186fd55544",
                    "uncleHash" : "0x1dcc4de8dec75d7aab85b567b6ccd41ad312451b948a7413f0a142fd40d49347"
                },
                "rlp" : "0xf9025ff901f8a0ef1bb6b29119fd8042d4ed3543a0682ea4f6e2c84456090419aef623013dfe8aa01dcc4de8dec75d7aab85b567b6ccd41ad312451b948a7413f0a142fd40d49347942adc25665018aa1fe0e6bc666dac8fc2697ff9baa02b6e0f3b883465d535151624e35f068b5d66f767ea8205455585411f8dd25d8ba0b9bf574604a1e0ffbae835310ec9467f0cf530bf8944d4df39bf78186fd55544a0f3cad313855606752e420b2cb5443a211ab0e343827bf82aa3584688232ca279b901000000000000000000000000000000000000000000000000000000000000000000000000000000000000000000000000000000000000000000000000000000000000000000000000000000000000000000000000000000000000000000000000000000000000000000000000000000000000000000000000000000000000000000000000000000000000000000000000000000000000000000000000000000000000000000000000000000000000000000000000000000000000000000000000000000000000000000000000000000000000000000000000000000000000000000000000000000000000000000000000000000000000000000000000000000000083020000018405f5e10082cf1d8203e880a0d4550134f9783595ce23c5ba703df7bcd9d865d1f4739235ba81e9de453e851e887d87f6ec5b479574f861f85f800182cf1d94095e7baea6a6c7c4c2dfeb977efac326af552d8717801ca0eab5fca09ac6909e72a92ec0fced7ce18900f2024141b40e0c61adec0be059cda043d95a7d30256afeb5792db54b1b22199f974794e6bc7efdfcdaf34109f5bb0cc0",
                "transactions" : [
                    {
                        "data" : "",
                        "gasLimit" : "0xcf1d",
                        "gasPrice" : "0x01",
                        "nonce" : "0x00",
                        "r" : "0xeab5fca09ac6909e72a92ec0fced7ce18900f2024141b40e0c61adec0be059cd",
                        "s" : "0x43d95a7d30256afeb5792db54b1b22199f974794e6bc7efdfcdaf34109f5bb0c",
                        "to" : "0x095e7baea6a6c7c4c2dfeb977efac326af552d87",
                        "v" : "0x1c",
                        "value" : "0x17"
                    }
                ],
                "uncleHeaders" : [
                ]
            }
        ],
        "genesisBlockHeader" : {
            "bloom" : "0x00000000000000000000000000000000000000000000000000000000000000000000000000000000000000000000000000000000000000000000000000000000000000000000000000000000000000000000000000000000000000000000000000000000000000000000000000000000000000000000000000000000000000000000000000000000000000000000000000000000000000000000000000000000000000000000000000000000000000000000000000000000000000000000000000000000000000000000000000000000000000000000000000000000000000000000000000000000000000000000000000000000000000000000000000000000",
            "coinbase" : "0x2adc25665018aa1fe0e6bc666dac8fc2697ff9ba",
            "difficulty" : "0x020000",
            "extraData" : "0x42",
            "gasLimit" : "0x05f5e100",
            "gasUsed" : "0x00",
            "hash" : "0xef1bb6b29119fd8042d4ed3543a0682ea4f6e2c84456090419aef623013dfe8a",
            "mixHash" : "0x56e81f171bcc55a6ff8345e692c0f86e5b48e01b996cadc001622fb5e363b421",
            "nonce" : "0x0102030405060708",
            "number" : "0x00",
            "parentHash" : "0x0000000000000000000000000000000000000000000000000000000000000000",
            "receiptTrie" : "0x56e81f171bcc55a6ff8345e692c0f86e5b48e01b996cadc001622fb5e363b421",
            "stateRoot" : "0x9ccb0c4ed8bebbe743112c67416ed1c59fdad42dfa0ac2a3cf47ae2bb4aeba61",
            "timestamp" : "0x03b6",
            "transactionsTrie" : "0x56e81f171bcc55a6ff8345e692c0f86e5b48e01b996cadc001622fb5e363b421",
            "uncleHash" : "0x1dcc4de8dec75d7aab85b567b6ccd41ad312451b948a7413f0a142fd40d49347"
        },
        "genesisRLP" : "0xf901fbf901f6a00000000000000000000000000000000000000000000000000000000000000000a01dcc4de8dec75d7aab85b567b6ccd41ad312451b948a7413f0a142fd40d49347942adc25665018aa1fe0e6bc666dac8fc2697ff9baa09ccb0c4ed8bebbe743112c67416ed1c59fdad42dfa0ac2a3cf47ae2bb4aeba61a056e81f171bcc55a6ff8345e692c0f86e5b48e01b996cadc001622fb5e363b421a056e81f171bcc55a6ff8345e692c0f86e5b48e01b996cadc001622fb5e363b421b901000000000000000000000000000000000000000000000000000000000000000000000000000000000000000000000000000000000000000000000000000000000000000000000000000000000000000000000000000000000000000000000000000000000000000000000000000000000000000000000000000000000000000000000000000000000000000000000000000000000000000000000000000000000000000000000000000000000000000000000000000000000000000000000000000000000000000000000000000000000000000000000000000000000000000000000000000000000000000000000000000000000000000000000000000000000083020000808405f5e100808203b642a056e81f171bcc55a6ff8345e692c0f86e5b48e01b996cadc001622fb5e363b421880102030405060708c0c0",
        "lastblockhash" : "0x0f664d8c92d83c06f03318ab934b8072c915e837e3bcc9bc30e750cf0f0d5823",
        "network" : "EIP150",
        "postState" : {
            "0x095e7baea6a6c7c4c2dfeb977efac326af552d87" : {
                "balance" : "0x0de0b6b3a7640000",
                "code" : "0x605a60005360016000670de0b6b3a7640018f0ff",
                "nonce" : "0x00",
                "storage" : {
                }
            },
            "0x2adc25665018aa1fe0e6bc666dac8fc2697ff9ba" : {
                "balance" : "0x4563918244f4cf1d",
                "code" : "",
                "nonce" : "0x00",
                "storage" : {
                }
            },
            "0xa94f5374fce5edbc8e2a8697c15331677e6ebf0b" : {
                "balance" : "0x0de0b6b3a76330e3",
                "code" : "",
                "nonce" : "0x01",
                "storage" : {
                }
            }
        },
        "pre" : {
            "0x095e7baea6a6c7c4c2dfeb977efac326af552d87" : {
                "balance" : "0x0de0b6b3a7640000",
                "code" : "0x605a60005360016000670de0b6b3a7640018f0ff",
                "nonce" : "0x00",
                "storage" : {
                }
            },
            "0xa94f5374fce5edbc8e2a8697c15331677e6ebf0b" : {
                "balance" : "0x0de0b6b3a7640000",
                "code" : "",
                "nonce" : "0x00",
                "storage" : {
                }
            }
        }
    },
    "createFailBalanceTooLow_d0g0v0_EIP158" : {
        "_info" : {
            "comment" : "",
            "filledwith" : "cpp-1.3.0+commit.7b8143d3.Linux.g++",
            "source" : "/src/GenStateTestAsBcTemp/stCallCreateCallCodeTest/createFailBalanceTooLow_d0g0v0Filler.json"
        },
        "blocks" : [
            {
                "blockHeader" : {
                    "bloom" : "0x00000000000000000000000000000000000000000000000000000000000000000000000000000000000000000000000000000000000000000000000000000000000000000000000000000000000000000000000000000000000000000000000000000000000000000000000000000000000000000000000000000000000000000000000000000000000000000000000000000000000000000000000000000000000000000000000000000000000000000000000000000000000000000000000000000000000000000000000000000000000000000000000000000000000000000000000000000000000000000000000000000000000000000000000000000000",
                    "coinbase" : "0x2adc25665018aa1fe0e6bc666dac8fc2697ff9ba",
                    "difficulty" : "0x020000",
                    "extraData" : "",
                    "gasLimit" : "0x05f5e100",
                    "gasUsed" : "0xcf1d",
                    "hash" : "0xe8565e2b364da130cf6ef3a584b7ef7fd576d058a9d63d1f08f2b5d644ec08f4",
                    "mixHash" : "0x3a464562ef1117a4be9a180bf65356de33944782586e014522ab6113732b7f62",
                    "nonce" : "0xf9d2faceb605770d",
                    "number" : "0x01",
                    "parentHash" : "0xef1bb6b29119fd8042d4ed3543a0682ea4f6e2c84456090419aef623013dfe8a",
                    "receiptTrie" : "0xf3cad313855606752e420b2cb5443a211ab0e343827bf82aa3584688232ca279",
                    "stateRoot" : "0x2b6e0f3b883465d535151624e35f068b5d66f767ea8205455585411f8dd25d8b",
                    "timestamp" : "0x03e8",
                    "transactionsTrie" : "0xb9bf574604a1e0ffbae835310ec9467f0cf530bf8944d4df39bf78186fd55544",
                    "uncleHash" : "0x1dcc4de8dec75d7aab85b567b6ccd41ad312451b948a7413f0a142fd40d49347"
                },
                "rlp" : "0xf9025ff901f8a0ef1bb6b29119fd8042d4ed3543a0682ea4f6e2c84456090419aef623013dfe8aa01dcc4de8dec75d7aab85b567b6ccd41ad312451b948a7413f0a142fd40d49347942adc25665018aa1fe0e6bc666dac8fc2697ff9baa02b6e0f3b883465d535151624e35f068b5d66f767ea8205455585411f8dd25d8ba0b9bf574604a1e0ffbae835310ec9467f0cf530bf8944d4df39bf78186fd55544a0f3cad313855606752e420b2cb5443a211ab0e343827bf82aa3584688232ca279b901000000000000000000000000000000000000000000000000000000000000000000000000000000000000000000000000000000000000000000000000000000000000000000000000000000000000000000000000000000000000000000000000000000000000000000000000000000000000000000000000000000000000000000000000000000000000000000000000000000000000000000000000000000000000000000000000000000000000000000000000000000000000000000000000000000000000000000000000000000000000000000000000000000000000000000000000000000000000000000000000000000000000000000000000000000000083020000018405f5e10082cf1d8203e880a03a464562ef1117a4be9a180bf65356de33944782586e014522ab6113732b7f6288f9d2faceb605770df861f85f800182cf1d94095e7baea6a6c7c4c2dfeb977efac326af552d8717801ca0eab5fca09ac6909e72a92ec0fced7ce18900f2024141b40e0c61adec0be059cda043d95a7d30256afeb5792db54b1b22199f974794e6bc7efdfcdaf34109f5bb0cc0",
                "transactions" : [
                    {
                        "data" : "",
                        "gasLimit" : "0xcf1d",
                        "gasPrice" : "0x01",
                        "nonce" : "0x00",
                        "r" : "0xeab5fca09ac6909e72a92ec0fced7ce18900f2024141b40e0c61adec0be059cd",
                        "s" : "0x43d95a7d30256afeb5792db54b1b22199f974794e6bc7efdfcdaf34109f5bb0c",
                        "to" : "0x095e7baea6a6c7c4c2dfeb977efac326af552d87",
                        "v" : "0x1c",
                        "value" : "0x17"
                    }
                ],
                "uncleHeaders" : [
                ]
            }
        ],
        "genesisBlockHeader" : {
            "bloom" : "0x00000000000000000000000000000000000000000000000000000000000000000000000000000000000000000000000000000000000000000000000000000000000000000000000000000000000000000000000000000000000000000000000000000000000000000000000000000000000000000000000000000000000000000000000000000000000000000000000000000000000000000000000000000000000000000000000000000000000000000000000000000000000000000000000000000000000000000000000000000000000000000000000000000000000000000000000000000000000000000000000000000000000000000000000000000000",
            "coinbase" : "0x2adc25665018aa1fe0e6bc666dac8fc2697ff9ba",
            "difficulty" : "0x020000",
            "extraData" : "0x42",
            "gasLimit" : "0x05f5e100",
            "gasUsed" : "0x00",
            "hash" : "0xef1bb6b29119fd8042d4ed3543a0682ea4f6e2c84456090419aef623013dfe8a",
            "mixHash" : "0x56e81f171bcc55a6ff8345e692c0f86e5b48e01b996cadc001622fb5e363b421",
            "nonce" : "0x0102030405060708",
            "number" : "0x00",
            "parentHash" : "0x0000000000000000000000000000000000000000000000000000000000000000",
            "receiptTrie" : "0x56e81f171bcc55a6ff8345e692c0f86e5b48e01b996cadc001622fb5e363b421",
            "stateRoot" : "0x9ccb0c4ed8bebbe743112c67416ed1c59fdad42dfa0ac2a3cf47ae2bb4aeba61",
            "timestamp" : "0x03b6",
            "transactionsTrie" : "0x56e81f171bcc55a6ff8345e692c0f86e5b48e01b996cadc001622fb5e363b421",
            "uncleHash" : "0x1dcc4de8dec75d7aab85b567b6ccd41ad312451b948a7413f0a142fd40d49347"
        },
        "genesisRLP" : "0xf901fbf901f6a00000000000000000000000000000000000000000000000000000000000000000a01dcc4de8dec75d7aab85b567b6ccd41ad312451b948a7413f0a142fd40d49347942adc25665018aa1fe0e6bc666dac8fc2697ff9baa09ccb0c4ed8bebbe743112c67416ed1c59fdad42dfa0ac2a3cf47ae2bb4aeba61a056e81f171bcc55a6ff8345e692c0f86e5b48e01b996cadc001622fb5e363b421a056e81f171bcc55a6ff8345e692c0f86e5b48e01b996cadc001622fb5e363b421b901000000000000000000000000000000000000000000000000000000000000000000000000000000000000000000000000000000000000000000000000000000000000000000000000000000000000000000000000000000000000000000000000000000000000000000000000000000000000000000000000000000000000000000000000000000000000000000000000000000000000000000000000000000000000000000000000000000000000000000000000000000000000000000000000000000000000000000000000000000000000000000000000000000000000000000000000000000000000000000000000000000000000000000000000000000000083020000808405f5e100808203b642a056e81f171bcc55a6ff8345e692c0f86e5b48e01b996cadc001622fb5e363b421880102030405060708c0c0",
        "lastblockhash" : "0xe8565e2b364da130cf6ef3a584b7ef7fd576d058a9d63d1f08f2b5d644ec08f4",
        "network" : "EIP158",
        "postState" : {
            "0x095e7baea6a6c7c4c2dfeb977efac326af552d87" : {
                "balance" : "0x0de0b6b3a7640000",
                "code" : "0x605a60005360016000670de0b6b3a7640018f0ff",
                "nonce" : "0x00",
                "storage" : {
                }
            },
            "0x2adc25665018aa1fe0e6bc666dac8fc2697ff9ba" : {
                "balance" : "0x4563918244f4cf1d",
                "code" : "",
                "nonce" : "0x00",
                "storage" : {
                }
            },
            "0xa94f5374fce5edbc8e2a8697c15331677e6ebf0b" : {
                "balance" : "0x0de0b6b3a76330e3",
                "code" : "",
                "nonce" : "0x01",
                "storage" : {
                }
            }
        },
        "pre" : {
            "0x095e7baea6a6c7c4c2dfeb977efac326af552d87" : {
                "balance" : "0x0de0b6b3a7640000",
                "code" : "0x605a60005360016000670de0b6b3a7640018f0ff",
                "nonce" : "0x00",
                "storage" : {
                }
            },
            "0xa94f5374fce5edbc8e2a8697c15331677e6ebf0b" : {
                "balance" : "0x0de0b6b3a7640000",
                "code" : "",
                "nonce" : "0x00",
                "storage" : {
                }
            }
        }
    },
    "createFailBalanceTooLow_d0g0v0_Frontier" : {
        "_info" : {
            "comment" : "",
            "filledwith" : "cpp-1.3.0+commit.7b8143d3.Linux.g++",
            "source" : "/src/GenStateTestAsBcTemp/stCallCreateCallCodeTest/createFailBalanceTooLow_d0g0v0Filler.json"
        },
        "blocks" : [
            {
                "blockHeader" : {
                    "bloom" : "0x00000000000000000000000000000000000000000000000000000000000000000000000000000000000000000000000000000000000000000000000000000000000000000000000000000000000000000000000000000000000000000000000000000000000000000000000000000000000000000000000000000000000000000000000000000000000000000000000000000000000000000000000000000000000000000000000000000000000000000000000000000000000000000000000000000000000000000000000000000000000000000000000000000000000000000000000000000000000000000000000000000000000000000000000000000000",
                    "coinbase" : "0x2adc25665018aa1fe0e6bc666dac8fc2697ff9ba",
                    "difficulty" : "0x020000",
                    "extraData" : "",
                    "gasLimit" : "0x05f5e100",
                    "gasUsed" : "0x715d",
                    "hash" : "0xc8691e4b4ea60a63ff1a475d3e8e42171dc103b622ed31c935a12d10c82d61d2",
                    "mixHash" : "0xb15a5091c18d4f64578685b792aebb1cac3ca8882366e3e629fb660faf9942d8",
                    "nonce" : "0x2093c270e7086fa3",
                    "number" : "0x01",
                    "parentHash" : "0xef1bb6b29119fd8042d4ed3543a0682ea4f6e2c84456090419aef623013dfe8a",
                    "receiptTrie" : "0xad9034be61ccac4ed34dd3704c9e61fbd180435e22a8b193e1efc5d2400260aa",
                    "stateRoot" : "0xdf1cc3e9a9cb749e69a01fedb35fddcf5f54bcec1406125977eac23f9381a886",
                    "timestamp" : "0x03e8",
                    "transactionsTrie" : "0xb9bf574604a1e0ffbae835310ec9467f0cf530bf8944d4df39bf78186fd55544",
                    "uncleHash" : "0x1dcc4de8dec75d7aab85b567b6ccd41ad312451b948a7413f0a142fd40d49347"
                },
                "rlp" : "0xf9025ff901f8a0ef1bb6b29119fd8042d4ed3543a0682ea4f6e2c84456090419aef623013dfe8aa01dcc4de8dec75d7aab85b567b6ccd41ad312451b948a7413f0a142fd40d49347942adc25665018aa1fe0e6bc666dac8fc2697ff9baa0df1cc3e9a9cb749e69a01fedb35fddcf5f54bcec1406125977eac23f9381a886a0b9bf574604a1e0ffbae835310ec9467f0cf530bf8944d4df39bf78186fd55544a0ad9034be61ccac4ed34dd3704c9e61fbd180435e22a8b193e1efc5d2400260aab901000000000000000000000000000000000000000000000000000000000000000000000000000000000000000000000000000000000000000000000000000000000000000000000000000000000000000000000000000000000000000000000000000000000000000000000000000000000000000000000000000000000000000000000000000000000000000000000000000000000000000000000000000000000000000000000000000000000000000000000000000000000000000000000000000000000000000000000000000000000000000000000000000000000000000000000000000000000000000000000000000000000000000000000000000000000083020000018405f5e10082715d8203e880a0b15a5091c18d4f64578685b792aebb1cac3ca8882366e3e629fb660faf9942d8882093c270e7086fa3f861f85f800182cf1d94095e7baea6a6c7c4c2dfeb977efac326af552d8717801ca0eab5fca09ac6909e72a92ec0fced7ce18900f2024141b40e0c61adec0be059cda043d95a7d30256afeb5792db54b1b22199f974794e6bc7efdfcdaf34109f5bb0cc0",
                "transactions" : [
                    {
                        "data" : "",
                        "gasLimit" : "0xcf1d",
                        "gasPrice" : "0x01",
                        "nonce" : "0x00",
                        "r" : "0xeab5fca09ac6909e72a92ec0fced7ce18900f2024141b40e0c61adec0be059cd",
                        "s" : "0x43d95a7d30256afeb5792db54b1b22199f974794e6bc7efdfcdaf34109f5bb0c",
                        "to" : "0x095e7baea6a6c7c4c2dfeb977efac326af552d87",
                        "v" : "0x1c",
                        "value" : "0x17"
                    }
                ],
                "uncleHeaders" : [
                ]
            }
        ],
        "genesisBlockHeader" : {
            "bloom" : "0x00000000000000000000000000000000000000000000000000000000000000000000000000000000000000000000000000000000000000000000000000000000000000000000000000000000000000000000000000000000000000000000000000000000000000000000000000000000000000000000000000000000000000000000000000000000000000000000000000000000000000000000000000000000000000000000000000000000000000000000000000000000000000000000000000000000000000000000000000000000000000000000000000000000000000000000000000000000000000000000000000000000000000000000000000000000",
            "coinbase" : "0x2adc25665018aa1fe0e6bc666dac8fc2697ff9ba",
            "difficulty" : "0x020000",
            "extraData" : "0x42",
            "gasLimit" : "0x05f5e100",
            "gasUsed" : "0x00",
            "hash" : "0xef1bb6b29119fd8042d4ed3543a0682ea4f6e2c84456090419aef623013dfe8a",
            "mixHash" : "0x56e81f171bcc55a6ff8345e692c0f86e5b48e01b996cadc001622fb5e363b421",
            "nonce" : "0x0102030405060708",
            "number" : "0x00",
            "parentHash" : "0x0000000000000000000000000000000000000000000000000000000000000000",
            "receiptTrie" : "0x56e81f171bcc55a6ff8345e692c0f86e5b48e01b996cadc001622fb5e363b421",
            "stateRoot" : "0x9ccb0c4ed8bebbe743112c67416ed1c59fdad42dfa0ac2a3cf47ae2bb4aeba61",
            "timestamp" : "0x03b6",
            "transactionsTrie" : "0x56e81f171bcc55a6ff8345e692c0f86e5b48e01b996cadc001622fb5e363b421",
            "uncleHash" : "0x1dcc4de8dec75d7aab85b567b6ccd41ad312451b948a7413f0a142fd40d49347"
        },
        "genesisRLP" : "0xf901fbf901f6a00000000000000000000000000000000000000000000000000000000000000000a01dcc4de8dec75d7aab85b567b6ccd41ad312451b948a7413f0a142fd40d49347942adc25665018aa1fe0e6bc666dac8fc2697ff9baa09ccb0c4ed8bebbe743112c67416ed1c59fdad42dfa0ac2a3cf47ae2bb4aeba61a056e81f171bcc55a6ff8345e692c0f86e5b48e01b996cadc001622fb5e363b421a056e81f171bcc55a6ff8345e692c0f86e5b48e01b996cadc001622fb5e363b421b901000000000000000000000000000000000000000000000000000000000000000000000000000000000000000000000000000000000000000000000000000000000000000000000000000000000000000000000000000000000000000000000000000000000000000000000000000000000000000000000000000000000000000000000000000000000000000000000000000000000000000000000000000000000000000000000000000000000000000000000000000000000000000000000000000000000000000000000000000000000000000000000000000000000000000000000000000000000000000000000000000000000000000000000000000000000083020000808405f5e100808203b642a056e81f171bcc55a6ff8345e692c0f86e5b48e01b996cadc001622fb5e363b421880102030405060708c0c0",
        "lastblockhash" : "0xc8691e4b4ea60a63ff1a475d3e8e42171dc103b622ed31c935a12d10c82d61d2",
        "network" : "Frontier",
        "postState" : {
            "0x0000000000000000000000000000000000000000" : {
                "balance" : "0x0de0b6b3a7640017",
                "code" : "",
                "nonce" : "0x00",
                "storage" : {
                }
            },
            "0x2adc25665018aa1fe0e6bc666dac8fc2697ff9ba" : {
                "balance" : "0x4563918244f4715d",
                "code" : "",
                "nonce" : "0x00",
                "storage" : {
                }
            },
            "0xa94f5374fce5edbc8e2a8697c15331677e6ebf0b" : {
                "balance" : "0x0de0b6b3a7638e8c",
                "code" : "",
                "nonce" : "0x01",
                "storage" : {
                }
            }
        },
        "pre" : {
            "0x095e7baea6a6c7c4c2dfeb977efac326af552d87" : {
                "balance" : "0x0de0b6b3a7640000",
                "code" : "0x605a60005360016000670de0b6b3a7640018f0ff",
                "nonce" : "0x00",
                "storage" : {
                }
            },
            "0xa94f5374fce5edbc8e2a8697c15331677e6ebf0b" : {
                "balance" : "0x0de0b6b3a7640000",
                "code" : "",
                "nonce" : "0x00",
                "storage" : {
                }
            }
        }
    },
    "createFailBalanceTooLow_d0g0v0_Homestead" : {
        "_info" : {
            "comment" : "",
            "filledwith" : "cpp-1.3.0+commit.7b8143d3.Linux.g++",
            "source" : "/src/GenStateTestAsBcTemp/stCallCreateCallCodeTest/createFailBalanceTooLow_d0g0v0Filler.json"
        },
        "blocks" : [
            {
                "blockHeader" : {
                    "bloom" : "0x00000000000000000000000000000000000000000000000000000000000000000000000000000000000000000000000000000000000000000000000000000000000000000000000000000000000000000000000000000000000000000000000000000000000000000000000000000000000000000000000000000000000000000000000000000000000000000000000000000000000000000000000000000000000000000000000000000000000000000000000000000000000000000000000000000000000000000000000000000000000000000000000000000000000000000000000000000000000000000000000000000000000000000000000000000000",
                    "coinbase" : "0x2adc25665018aa1fe0e6bc666dac8fc2697ff9ba",
                    "difficulty" : "0x020000",
                    "extraData" : "",
                    "gasLimit" : "0x05f5e100",
                    "gasUsed" : "0x715d",
                    "hash" : "0x41db4a3367197c62e8765d0ff14f6d53d6f086902192b80d88f58755488df9f9",
                    "mixHash" : "0x61c7a4ffbc1a41425e2af156da42ce696bcc11d9cf96567e70acdc23a290adb9",
                    "nonce" : "0xc4413c50f723de59",
                    "number" : "0x01",
                    "parentHash" : "0xef1bb6b29119fd8042d4ed3543a0682ea4f6e2c84456090419aef623013dfe8a",
                    "receiptTrie" : "0xad9034be61ccac4ed34dd3704c9e61fbd180435e22a8b193e1efc5d2400260aa",
                    "stateRoot" : "0xdf1cc3e9a9cb749e69a01fedb35fddcf5f54bcec1406125977eac23f9381a886",
                    "timestamp" : "0x03e8",
                    "transactionsTrie" : "0xb9bf574604a1e0ffbae835310ec9467f0cf530bf8944d4df39bf78186fd55544",
                    "uncleHash" : "0x1dcc4de8dec75d7aab85b567b6ccd41ad312451b948a7413f0a142fd40d49347"
                },
                "rlp" : "0xf9025ff901f8a0ef1bb6b29119fd8042d4ed3543a0682ea4f6e2c84456090419aef623013dfe8aa01dcc4de8dec75d7aab85b567b6ccd41ad312451b948a7413f0a142fd40d49347942adc25665018aa1fe0e6bc666dac8fc2697ff9baa0df1cc3e9a9cb749e69a01fedb35fddcf5f54bcec1406125977eac23f9381a886a0b9bf574604a1e0ffbae835310ec9467f0cf530bf8944d4df39bf78186fd55544a0ad9034be61ccac4ed34dd3704c9e61fbd180435e22a8b193e1efc5d2400260aab901000000000000000000000000000000000000000000000000000000000000000000000000000000000000000000000000000000000000000000000000000000000000000000000000000000000000000000000000000000000000000000000000000000000000000000000000000000000000000000000000000000000000000000000000000000000000000000000000000000000000000000000000000000000000000000000000000000000000000000000000000000000000000000000000000000000000000000000000000000000000000000000000000000000000000000000000000000000000000000000000000000000000000000000000000000000083020000018405f5e10082715d8203e880a061c7a4ffbc1a41425e2af156da42ce696bcc11d9cf96567e70acdc23a290adb988c4413c50f723de59f861f85f800182cf1d94095e7baea6a6c7c4c2dfeb977efac326af552d8717801ca0eab5fca09ac6909e72a92ec0fced7ce18900f2024141b40e0c61adec0be059cda043d95a7d30256afeb5792db54b1b22199f974794e6bc7efdfcdaf34109f5bb0cc0",
                "transactions" : [
                    {
                        "data" : "",
                        "gasLimit" : "0xcf1d",
                        "gasPrice" : "0x01",
                        "nonce" : "0x00",
                        "r" : "0xeab5fca09ac6909e72a92ec0fced7ce18900f2024141b40e0c61adec0be059cd",
                        "s" : "0x43d95a7d30256afeb5792db54b1b22199f974794e6bc7efdfcdaf34109f5bb0c",
                        "to" : "0x095e7baea6a6c7c4c2dfeb977efac326af552d87",
                        "v" : "0x1c",
                        "value" : "0x17"
                    }
                ],
                "uncleHeaders" : [
                ]
            }
        ],
        "genesisBlockHeader" : {
            "bloom" : "0x00000000000000000000000000000000000000000000000000000000000000000000000000000000000000000000000000000000000000000000000000000000000000000000000000000000000000000000000000000000000000000000000000000000000000000000000000000000000000000000000000000000000000000000000000000000000000000000000000000000000000000000000000000000000000000000000000000000000000000000000000000000000000000000000000000000000000000000000000000000000000000000000000000000000000000000000000000000000000000000000000000000000000000000000000000000",
            "coinbase" : "0x2adc25665018aa1fe0e6bc666dac8fc2697ff9ba",
            "difficulty" : "0x020000",
            "extraData" : "0x42",
            "gasLimit" : "0x05f5e100",
            "gasUsed" : "0x00",
            "hash" : "0xef1bb6b29119fd8042d4ed3543a0682ea4f6e2c84456090419aef623013dfe8a",
            "mixHash" : "0x56e81f171bcc55a6ff8345e692c0f86e5b48e01b996cadc001622fb5e363b421",
            "nonce" : "0x0102030405060708",
            "number" : "0x00",
            "parentHash" : "0x0000000000000000000000000000000000000000000000000000000000000000",
            "receiptTrie" : "0x56e81f171bcc55a6ff8345e692c0f86e5b48e01b996cadc001622fb5e363b421",
            "stateRoot" : "0x9ccb0c4ed8bebbe743112c67416ed1c59fdad42dfa0ac2a3cf47ae2bb4aeba61",
            "timestamp" : "0x03b6",
            "transactionsTrie" : "0x56e81f171bcc55a6ff8345e692c0f86e5b48e01b996cadc001622fb5e363b421",
            "uncleHash" : "0x1dcc4de8dec75d7aab85b567b6ccd41ad312451b948a7413f0a142fd40d49347"
        },
        "genesisRLP" : "0xf901fbf901f6a00000000000000000000000000000000000000000000000000000000000000000a01dcc4de8dec75d7aab85b567b6ccd41ad312451b948a7413f0a142fd40d49347942adc25665018aa1fe0e6bc666dac8fc2697ff9baa09ccb0c4ed8bebbe743112c67416ed1c59fdad42dfa0ac2a3cf47ae2bb4aeba61a056e81f171bcc55a6ff8345e692c0f86e5b48e01b996cadc001622fb5e363b421a056e81f171bcc55a6ff8345e692c0f86e5b48e01b996cadc001622fb5e363b421b901000000000000000000000000000000000000000000000000000000000000000000000000000000000000000000000000000000000000000000000000000000000000000000000000000000000000000000000000000000000000000000000000000000000000000000000000000000000000000000000000000000000000000000000000000000000000000000000000000000000000000000000000000000000000000000000000000000000000000000000000000000000000000000000000000000000000000000000000000000000000000000000000000000000000000000000000000000000000000000000000000000000000000000000000000000000083020000808405f5e100808203b642a056e81f171bcc55a6ff8345e692c0f86e5b48e01b996cadc001622fb5e363b421880102030405060708c0c0",
        "lastblockhash" : "0x41db4a3367197c62e8765d0ff14f6d53d6f086902192b80d88f58755488df9f9",
        "network" : "Homestead",
        "postState" : {
            "0x0000000000000000000000000000000000000000" : {
                "balance" : "0x0de0b6b3a7640017",
                "code" : "",
                "nonce" : "0x00",
                "storage" : {
                }
            },
            "0x2adc25665018aa1fe0e6bc666dac8fc2697ff9ba" : {
                "balance" : "0x4563918244f4715d",
                "code" : "",
                "nonce" : "0x00",
                "storage" : {
                }
            },
            "0xa94f5374fce5edbc8e2a8697c15331677e6ebf0b" : {
                "balance" : "0x0de0b6b3a7638e8c",
                "code" : "",
                "nonce" : "0x01",
                "storage" : {
                }
            }
        },
        "pre" : {
            "0x095e7baea6a6c7c4c2dfeb977efac326af552d87" : {
                "balance" : "0x0de0b6b3a7640000",
                "code" : "0x605a60005360016000670de0b6b3a7640018f0ff",
                "nonce" : "0x00",
                "storage" : {
                }
            },
            "0xa94f5374fce5edbc8e2a8697c15331677e6ebf0b" : {
                "balance" : "0x0de0b6b3a7640000",
                "code" : "",
                "nonce" : "0x00",
                "storage" : {
                }
            }
        }
    }
}