{
    "createInitFailUndefinedInstruction_d0g0v0_Byzantium" : {
        "_info" : {
            "comment" : "",
            "filledwith" : "cpp-1.3.0+commit.7b8143d3.Linux.g++",
            "source" : "/src/GenStateTestAsBcTemp/stCallCreateCallCodeTest/createInitFailUndefinedInstruction_d0g0v0Filler.json"
        },
        "blocks" : [
            {
                "blockHeader" : {
                    "bloom" : "0x00000000000000000000000000000000000000000000000000000000000000000000000000000000000000000000000000000000000000000000000000000000000000000000000000000000000000000000000000000000000000000000000000000000000000000000000000000000000000000000000000000000000000000000000000000000000000000000000000000000000000000000000000000000000000000000000000000000000000000000000000000000000000000000000000000000000000000000000000000000000000000000000000000000000000000000000000000000000000000000000000000000000000000000000000000000",
                    "coinbase" : "0x2adc25665018aa1fe0e6bc666dac8fc2697ff9ba",
                    "difficulty" : "0x020000",
                    "extraData" : "",
                    "gasLimit" : "0x05f5e100",
                    "gasUsed" : "0x05de2429",
                    "hash" : "0xbc90ded2a7bacc3e66b84175f533cba85d2288717e73d942c91d157247c0c225",
                    "mixHash" : "0x3129eb32b1429f89e67c1634e128fc90be4330967f9125699015967662b045ca",
                    "nonce" : "0x6b5c425f1b37f6f9",
                    "number" : "0x01",
                    "parentHash" : "0xcbff487273a0530d8baf340d76584e5102451c615f470f41b37fc634509ff7d6",
                    "receiptTrie" : "0x4abc455ea42b05ee31f1ac1b48a2be9059b37a20378ac71515b5c3b33be685d0",
                    "stateRoot" : "0x5e506925dbe96d14428c93dabd3b9bf0d1aa7d397c06b32b3434bee57c0ee175",
                    "timestamp" : "0x03e8",
                    "transactionsTrie" : "0x75e61774a2ff58cbe32653420256c7f44bc715715a423b0b746d5c622979af6b",
                    "uncleHash" : "0x1dcc4de8dec75d7aab85b567b6ccd41ad312451b948a7413f0a142fd40d49347"
                },
                "rlp" : "0xf90266f901faa0cbff487273a0530d8baf340d76584e5102451c615f470f41b37fc634509ff7d6a01dcc4de8dec75d7aab85b567b6ccd41ad312451b948a7413f0a142fd40d49347942adc25665018aa1fe0e6bc666dac8fc2697ff9baa05e506925dbe96d14428c93dabd3b9bf0d1aa7d397c06b32b3434bee57c0ee175a075e61774a2ff58cbe32653420256c7f44bc715715a423b0b746d5c622979af6ba04abc455ea42b05ee31f1ac1b48a2be9059b37a20378ac71515b5c3b33be685d0b901000000000000000000000000000000000000000000000000000000000000000000000000000000000000000000000000000000000000000000000000000000000000000000000000000000000000000000000000000000000000000000000000000000000000000000000000000000000000000000000000000000000000000000000000000000000000000000000000000000000000000000000000000000000000000000000000000000000000000000000000000000000000000000000000000000000000000000000000000000000000000000000000000000000000000000000000000000000000000000000000000000000000000000000000000000000083020000018405f5e1008405de24298203e880a03129eb32b1429f89e67c1634e128fc90be4330967f9125699015967662b045ca886b5c425f1b37f6f9f866f86480018405f5e10094095e7baea6a6c7c4c2dfeb977efac326af552d87830186a0801ba088544c93a564b4c28d2ffac2074a0c55fdd4658fe0d215596ed2e32e3ef7f56ba07fb4075d54190f825d7c47bb820284757b34fd6293904a93cddb1d3aa961ac28c0",
                "transactions" : [
                    {
                        "data" : "",
                        "gasLimit" : "0x05f5e100",
                        "gasPrice" : "0x01",
                        "nonce" : "0x00",
                        "r" : "0x88544c93a564b4c28d2ffac2074a0c55fdd4658fe0d215596ed2e32e3ef7f56b",
                        "s" : "0x7fb4075d54190f825d7c47bb820284757b34fd6293904a93cddb1d3aa961ac28",
                        "to" : "0x095e7baea6a6c7c4c2dfeb977efac326af552d87",
                        "v" : "0x1b",
                        "value" : "0x0186a0"
                    }
                ],
                "uncleHeaders" : [
                ]
            }
        ],
        "genesisBlockHeader" : {
            "bloom" : "0x00000000000000000000000000000000000000000000000000000000000000000000000000000000000000000000000000000000000000000000000000000000000000000000000000000000000000000000000000000000000000000000000000000000000000000000000000000000000000000000000000000000000000000000000000000000000000000000000000000000000000000000000000000000000000000000000000000000000000000000000000000000000000000000000000000000000000000000000000000000000000000000000000000000000000000000000000000000000000000000000000000000000000000000000000000000",
            "coinbase" : "0x2adc25665018aa1fe0e6bc666dac8fc2697ff9ba",
            "difficulty" : "0x020000",
            "extraData" : "0x42",
            "gasLimit" : "0x05f5e100",
            "gasUsed" : "0x00",
            "hash" : "0xcbff487273a0530d8baf340d76584e5102451c615f470f41b37fc634509ff7d6",
            "mixHash" : "0x56e81f171bcc55a6ff8345e692c0f86e5b48e01b996cadc001622fb5e363b421",
            "nonce" : "0x0102030405060708",
            "number" : "0x00",
            "parentHash" : "0x0000000000000000000000000000000000000000000000000000000000000000",
            "receiptTrie" : "0x56e81f171bcc55a6ff8345e692c0f86e5b48e01b996cadc001622fb5e363b421",
            "stateRoot" : "0x0028a671f4b1a1255d40c41e1285c80b0707c3d574be68568f5e7d31a3dc7d60",
            "timestamp" : "0x03b6",
            "transactionsTrie" : "0x56e81f171bcc55a6ff8345e692c0f86e5b48e01b996cadc001622fb5e363b421",
            "uncleHash" : "0x1dcc4de8dec75d7aab85b567b6ccd41ad312451b948a7413f0a142fd40d49347"
        },
        "genesisRLP" : "0xf901fbf901f6a00000000000000000000000000000000000000000000000000000000000000000a01dcc4de8dec75d7aab85b567b6ccd41ad312451b948a7413f0a142fd40d49347942adc25665018aa1fe0e6bc666dac8fc2697ff9baa00028a671f4b1a1255d40c41e1285c80b0707c3d574be68568f5e7d31a3dc7d60a056e81f171bcc55a6ff8345e692c0f86e5b48e01b996cadc001622fb5e363b421a056e81f171bcc55a6ff8345e692c0f86e5b48e01b996cadc001622fb5e363b421b901000000000000000000000000000000000000000000000000000000000000000000000000000000000000000000000000000000000000000000000000000000000000000000000000000000000000000000000000000000000000000000000000000000000000000000000000000000000000000000000000000000000000000000000000000000000000000000000000000000000000000000000000000000000000000000000000000000000000000000000000000000000000000000000000000000000000000000000000000000000000000000000000000000000000000000000000000000000000000000000000000000000000000000000000000000000083020000808405f5e100808203b642a056e81f171bcc55a6ff8345e692c0f86e5b48e01b996cadc001622fb5e363b421880102030405060708c0c0",
        "lastblockhash" : "0xbc90ded2a7bacc3e66b84175f533cba85d2288717e73d942c91d157247c0c225",
        "network" : "Byzantium",
        "postState" : {
            "0x0000000000000000000000000000000000000000" : {
                "balance" : "0x0de0b6b3a76586a0",
                "code" : "",
                "nonce" : "0x00",
                "storage" : {
                }
            },
            "0x2adc25665018aa1fe0e6bc666dac8fc2697ff9ba" : {
                "balance" : "0x29a2241afc0a2429",
                "code" : "",
                "nonce" : "0x00",
                "storage" : {
                }
            },
            "0xa94f5374fce5edbc8e2a8697c15331677e6ebf0b" : {
                "balance" : "0x0de0b6b3a1845537",
                "code" : "",
                "nonce" : "0x01",
                "storage" : {
                }
            }
        },
        "pre" : {
            "0x095e7baea6a6c7c4c2dfeb977efac326af552d87" : {
                "balance" : "0x0de0b6b3a7640000",
                "code" : "0x60f4600053600160006001f0ff",
                "nonce" : "0x00",
                "storage" : {
                }
            },
            "0xa94f5374fce5edbc8e2a8697c15331677e6ebf0b" : {
                "balance" : "0x0de0b6b3a7640000",
                "code" : "",
                "nonce" : "0x00",
                "storage" : {
                }
            }
        }
    },
    "createInitFailUndefinedInstruction_d0g0v0_Constantinople" : {
        "_info" : {
            "comment" : "",
            "filledwith" : "cpp-1.3.0+commit.7b8143d3.Linux.g++",
            "source" : "/src/GenStateTestAsBcTemp/stCallCreateCallCodeTest/createInitFailUndefinedInstruction_d0g0v0Filler.json"
        },
        "blocks" : [
            {
                "blockHeader" : {
                    "bloom" : "0x00000000000000000000000000000000000000000000000000000000000000000000000000000000000000000000000000000000000000000000000000000000000000000000000000000000000000000000000000000000000000000000000000000000000000000000000000000000000000000000000000000000000000000000000000000000000000000000000000000000000000000000000000000000000000000000000000000000000000000000000000000000000000000000000000000000000000000000000000000000000000000000000000000000000000000000000000000000000000000000000000000000000000000000000000000000",
                    "coinbase" : "0x2adc25665018aa1fe0e6bc666dac8fc2697ff9ba",
                    "difficulty" : "0x020000",
                    "extraData" : "",
                    "gasLimit" : "0x05f5e100",
                    "gasUsed" : "0x05de2429",
                    "hash" : "0x0e93d99564ff3b28b553b356268bccc69673ef6b4b4b3d67bc2b8608ad9e9648",
                    "mixHash" : "0x27e4d861eb474c12c000d0cddc75b78ddf4dff6aa7de98ca83dc5d45af8cb9f5",
                    "nonce" : "0x770755fc318fc9a1",
                    "number" : "0x01",
                    "parentHash" : "0xcbff487273a0530d8baf340d76584e5102451c615f470f41b37fc634509ff7d6",
                    "receiptTrie" : "0x4abc455ea42b05ee31f1ac1b48a2be9059b37a20378ac71515b5c3b33be685d0",
                    "stateRoot" : "0xbdb92fc6e0524866543849f01fdaf09ac27d88ac0e59f77a3fcce2b6764982db",
                    "timestamp" : "0x03e8",
                    "transactionsTrie" : "0x75e61774a2ff58cbe32653420256c7f44bc715715a423b0b746d5c622979af6b",
                    "uncleHash" : "0x1dcc4de8dec75d7aab85b567b6ccd41ad312451b948a7413f0a142fd40d49347"
                },
                "rlp" : "0xf90266f901faa0cbff487273a0530d8baf340d76584e5102451c615f470f41b37fc634509ff7d6a01dcc4de8dec75d7aab85b567b6ccd41ad312451b948a7413f0a142fd40d49347942adc25665018aa1fe0e6bc666dac8fc2697ff9baa0bdb92fc6e0524866543849f01fdaf09ac27d88ac0e59f77a3fcce2b6764982dba075e61774a2ff58cbe32653420256c7f44bc715715a423b0b746d5c622979af6ba04abc455ea42b05ee31f1ac1b48a2be9059b37a20378ac71515b5c3b33be685d0b901000000000000000000000000000000000000000000000000000000000000000000000000000000000000000000000000000000000000000000000000000000000000000000000000000000000000000000000000000000000000000000000000000000000000000000000000000000000000000000000000000000000000000000000000000000000000000000000000000000000000000000000000000000000000000000000000000000000000000000000000000000000000000000000000000000000000000000000000000000000000000000000000000000000000000000000000000000000000000000000000000000000000000000000000000000000083020000018405f5e1008405de24298203e880a027e4d861eb474c12c000d0cddc75b78ddf4dff6aa7de98ca83dc5d45af8cb9f588770755fc318fc9a1f866f86480018405f5e10094095e7baea6a6c7c4c2dfeb977efac326af552d87830186a0801ba088544c93a564b4c28d2ffac2074a0c55fdd4658fe0d215596ed2e32e3ef7f56ba07fb4075d54190f825d7c47bb820284757b34fd6293904a93cddb1d3aa961ac28c0",
                "transactions" : [
                    {
                        "data" : "",
                        "gasLimit" : "0x05f5e100",
                        "gasPrice" : "0x01",
                        "nonce" : "0x00",
                        "r" : "0x88544c93a564b4c28d2ffac2074a0c55fdd4658fe0d215596ed2e32e3ef7f56b",
                        "s" : "0x7fb4075d54190f825d7c47bb820284757b34fd6293904a93cddb1d3aa961ac28",
                        "to" : "0x095e7baea6a6c7c4c2dfeb977efac326af552d87",
                        "v" : "0x1b",
                        "value" : "0x0186a0"
                    }
                ],
                "uncleHeaders" : [
                ]
            }
        ],
        "genesisBlockHeader" : {
            "bloom" : "0x00000000000000000000000000000000000000000000000000000000000000000000000000000000000000000000000000000000000000000000000000000000000000000000000000000000000000000000000000000000000000000000000000000000000000000000000000000000000000000000000000000000000000000000000000000000000000000000000000000000000000000000000000000000000000000000000000000000000000000000000000000000000000000000000000000000000000000000000000000000000000000000000000000000000000000000000000000000000000000000000000000000000000000000000000000000",
            "coinbase" : "0x2adc25665018aa1fe0e6bc666dac8fc2697ff9ba",
            "difficulty" : "0x020000",
            "extraData" : "0x42",
            "gasLimit" : "0x05f5e100",
            "gasUsed" : "0x00",
            "hash" : "0xcbff487273a0530d8baf340d76584e5102451c615f470f41b37fc634509ff7d6",
            "mixHash" : "0x56e81f171bcc55a6ff8345e692c0f86e5b48e01b996cadc001622fb5e363b421",
            "nonce" : "0x0102030405060708",
            "number" : "0x00",
            "parentHash" : "0x0000000000000000000000000000000000000000000000000000000000000000",
            "receiptTrie" : "0x56e81f171bcc55a6ff8345e692c0f86e5b48e01b996cadc001622fb5e363b421",
            "stateRoot" : "0x0028a671f4b1a1255d40c41e1285c80b0707c3d574be68568f5e7d31a3dc7d60",
            "timestamp" : "0x03b6",
            "transactionsTrie" : "0x56e81f171bcc55a6ff8345e692c0f86e5b48e01b996cadc001622fb5e363b421",
            "uncleHash" : "0x1dcc4de8dec75d7aab85b567b6ccd41ad312451b948a7413f0a142fd40d49347"
        },
        "genesisRLP" : "0xf901fbf901f6a00000000000000000000000000000000000000000000000000000000000000000a01dcc4de8dec75d7aab85b567b6ccd41ad312451b948a7413f0a142fd40d49347942adc25665018aa1fe0e6bc666dac8fc2697ff9baa00028a671f4b1a1255d40c41e1285c80b0707c3d574be68568f5e7d31a3dc7d60a056e81f171bcc55a6ff8345e692c0f86e5b48e01b996cadc001622fb5e363b421a056e81f171bcc55a6ff8345e692c0f86e5b48e01b996cadc001622fb5e363b421b901000000000000000000000000000000000000000000000000000000000000000000000000000000000000000000000000000000000000000000000000000000000000000000000000000000000000000000000000000000000000000000000000000000000000000000000000000000000000000000000000000000000000000000000000000000000000000000000000000000000000000000000000000000000000000000000000000000000000000000000000000000000000000000000000000000000000000000000000000000000000000000000000000000000000000000000000000000000000000000000000000000000000000000000000000000000083020000808405f5e100808203b642a056e81f171bcc55a6ff8345e692c0f86e5b48e01b996cadc001622fb5e363b421880102030405060708c0c0",
        "lastblockhash" : "0x0e93d99564ff3b28b553b356268bccc69673ef6b4b4b3d67bc2b8608ad9e9648",
        "network" : "Constantinople",
        "postState" : {
            "0x0000000000000000000000000000000000000000" : {
                "balance" : "0x0de0b6b3a76586a0",
                "code" : "",
                "nonce" : "0x00",
                "storage" : {
                }
            },
            "0x00000000000000000000000000000000000000f0" : {
                "balance" : "0x00",
                "code" : "",
                "nonce" : "0x00",
                "storage" : {
                }
            },
            "0x2adc25665018aa1fe0e6bc666dac8fc2697ff9ba" : {
                "balance" : "0x29a2241afc0a2429",
                "code" : "",
                "nonce" : "0x00",
                "storage" : {
                }
            },
            "0xa94f5374fce5edbc8e2a8697c15331677e6ebf0b" : {
                "balance" : "0x0de0b6b3a1845537",
                "code" : "",
                "nonce" : "0x01",
                "storage" : {
                }
            }
        },
        "pre" : {
            "0x095e7baea6a6c7c4c2dfeb977efac326af552d87" : {
                "balance" : "0x0de0b6b3a7640000",
                "code" : "0x60f4600053600160006001f0ff",
                "nonce" : "0x00",
                "storage" : {
                }
            },
            "0xa94f5374fce5edbc8e2a8697c15331677e6ebf0b" : {
                "balance" : "0x0de0b6b3a7640000",
                "code" : "",
                "nonce" : "0x00",
                "storage" : {
                }
            }
        }
    },
    "createInitFailUndefinedInstruction_d0g0v0_EIP150" : {
        "_info" : {
            "comment" : "",
            "filledwith" : "cpp-1.3.0+commit.7b8143d3.Linux.g++",
            "source" : "/src/GenStateTestAsBcTemp/stCallCreateCallCodeTest/createInitFailUndefinedInstruction_d0g0v0Filler.json"
        },
        "blocks" : [
            {
                "blockHeader" : {
                    "bloom" : "0x00000000000000000000000000000000000000000000000000000000000000000000000000000000000000000000000000000000000000000000000000000000000000000000000000000000000000000000000000000000000000000000000000000000000000000000000000000000000000000000000000000000000000000000000000000000000000000000000000000000000000000000000000000000000000000000000000000000000000000000000000000000000000000000000000000000000000000000000000000000000000000000000000000000000000000000000000000000000000000000000000000000000000000000000000000000",
                    "coinbase" : "0x2adc25665018aa1fe0e6bc666dac8fc2697ff9ba",
                    "difficulty" : "0x020000",
                    "extraData" : "",
                    "gasLimit" : "0x05f5e100",
                    "gasUsed" : "0x05de2429",
                    "hash" : "0xd64316f9788a33b4abd23d5f0193ee3d0f41da19de715b7d4fdd9eb74a0dc0a3",
                    "mixHash" : "0x1eafdd088999b2b017a846e264dd81ad37c16bf22ead5eb8386bbd69a1c26431",
                    "nonce" : "0x92cf705cc1b70c8c",
                    "number" : "0x01",
                    "parentHash" : "0xcbff487273a0530d8baf340d76584e5102451c615f470f41b37fc634509ff7d6",
                    "receiptTrie" : "0x492104097be561ae597c4bfec7059fddccf05363171ee3fca75bf372cb1adf03",
                    "stateRoot" : "0xbf5e9b6997b323ff0a2cecda3ddb667c966fccbd5e75d0c2c5a81af7df1e6400",
                    "timestamp" : "0x03e8",
                    "transactionsTrie" : "0x75e61774a2ff58cbe32653420256c7f44bc715715a423b0b746d5c622979af6b",
                    "uncleHash" : "0x1dcc4de8dec75d7aab85b567b6ccd41ad312451b948a7413f0a142fd40d49347"
                },
                "rlp" : "0xf90266f901faa0cbff487273a0530d8baf340d76584e5102451c615f470f41b37fc634509ff7d6a01dcc4de8dec75d7aab85b567b6ccd41ad312451b948a7413f0a142fd40d49347942adc25665018aa1fe0e6bc666dac8fc2697ff9baa0bf5e9b6997b323ff0a2cecda3ddb667c966fccbd5e75d0c2c5a81af7df1e6400a075e61774a2ff58cbe32653420256c7f44bc715715a423b0b746d5c622979af6ba0492104097be561ae597c4bfec7059fddccf05363171ee3fca75bf372cb1adf03b901000000000000000000000000000000000000000000000000000000000000000000000000000000000000000000000000000000000000000000000000000000000000000000000000000000000000000000000000000000000000000000000000000000000000000000000000000000000000000000000000000000000000000000000000000000000000000000000000000000000000000000000000000000000000000000000000000000000000000000000000000000000000000000000000000000000000000000000000000000000000000000000000000000000000000000000000000000000000000000000000000000000000000000000000000000000083020000018405f5e1008405de24298203e880a01eafdd088999b2b017a846e264dd81ad37c16bf22ead5eb8386bbd69a1c264318892cf705cc1b70c8cf866f86480018405f5e10094095e7baea6a6c7c4c2dfeb977efac326af552d87830186a0801ba088544c93a564b4c28d2ffac2074a0c55fdd4658fe0d215596ed2e32e3ef7f56ba07fb4075d54190f825d7c47bb820284757b34fd6293904a93cddb1d3aa961ac28c0",
                "transactions" : [
                    {
                        "data" : "",
                        "gasLimit" : "0x05f5e100",
                        "gasPrice" : "0x01",
                        "nonce" : "0x00",
                        "r" : "0x88544c93a564b4c28d2ffac2074a0c55fdd4658fe0d215596ed2e32e3ef7f56b",
                        "s" : "0x7fb4075d54190f825d7c47bb820284757b34fd6293904a93cddb1d3aa961ac28",
                        "to" : "0x095e7baea6a6c7c4c2dfeb977efac326af552d87",
                        "v" : "0x1b",
                        "value" : "0x0186a0"
                    }
                ],
                "uncleHeaders" : [
                ]
            }
        ],
        "genesisBlockHeader" : {
            "bloom" : "0x00000000000000000000000000000000000000000000000000000000000000000000000000000000000000000000000000000000000000000000000000000000000000000000000000000000000000000000000000000000000000000000000000000000000000000000000000000000000000000000000000000000000000000000000000000000000000000000000000000000000000000000000000000000000000000000000000000000000000000000000000000000000000000000000000000000000000000000000000000000000000000000000000000000000000000000000000000000000000000000000000000000000000000000000000000000",
            "coinbase" : "0x2adc25665018aa1fe0e6bc666dac8fc2697ff9ba",
            "difficulty" : "0x020000",
            "extraData" : "0x42",
            "gasLimit" : "0x05f5e100",
            "gasUsed" : "0x00",
            "hash" : "0xcbff487273a0530d8baf340d76584e5102451c615f470f41b37fc634509ff7d6",
            "mixHash" : "0x56e81f171bcc55a6ff8345e692c0f86e5b48e01b996cadc001622fb5e363b421",
            "nonce" : "0x0102030405060708",
            "number" : "0x00",
            "parentHash" : "0x0000000000000000000000000000000000000000000000000000000000000000",
            "receiptTrie" : "0x56e81f171bcc55a6ff8345e692c0f86e5b48e01b996cadc001622fb5e363b421",
            "stateRoot" : "0x0028a671f4b1a1255d40c41e1285c80b0707c3d574be68568f5e7d31a3dc7d60",
            "timestamp" : "0x03b6",
            "transactionsTrie" : "0x56e81f171bcc55a6ff8345e692c0f86e5b48e01b996cadc001622fb5e363b421",
            "uncleHash" : "0x1dcc4de8dec75d7aab85b567b6ccd41ad312451b948a7413f0a142fd40d49347"
        },
        "genesisRLP" : "0xf901fbf901f6a00000000000000000000000000000000000000000000000000000000000000000a01dcc4de8dec75d7aab85b567b6ccd41ad312451b948a7413f0a142fd40d49347942adc25665018aa1fe0e6bc666dac8fc2697ff9baa00028a671f4b1a1255d40c41e1285c80b0707c3d574be68568f5e7d31a3dc7d60a056e81f171bcc55a6ff8345e692c0f86e5b48e01b996cadc001622fb5e363b421a056e81f171bcc55a6ff8345e692c0f86e5b48e01b996cadc001622fb5e363b421b901000000000000000000000000000000000000000000000000000000000000000000000000000000000000000000000000000000000000000000000000000000000000000000000000000000000000000000000000000000000000000000000000000000000000000000000000000000000000000000000000000000000000000000000000000000000000000000000000000000000000000000000000000000000000000000000000000000000000000000000000000000000000000000000000000000000000000000000000000000000000000000000000000000000000000000000000000000000000000000000000000000000000000000000000000000000083020000808405f5e100808203b642a056e81f171bcc55a6ff8345e692c0f86e5b48e01b996cadc001622fb5e363b421880102030405060708c0c0",
        "lastblockhash" : "0xd64316f9788a33b4abd23d5f0193ee3d0f41da19de715b7d4fdd9eb74a0dc0a3",
        "network" : "EIP150",
        "postState" : {
            "0x0000000000000000000000000000000000000000" : {
                "balance" : "0x0de0b6b3a76586a0",
                "code" : "",
                "nonce" : "0x00",
                "storage" : {
                }
            },
            "0x2adc25665018aa1fe0e6bc666dac8fc2697ff9ba" : {
                "balance" : "0x456391824ad22429",
                "code" : "",
                "nonce" : "0x00",
                "storage" : {
                }
            },
            "0xa94f5374fce5edbc8e2a8697c15331677e6ebf0b" : {
                "balance" : "0x0de0b6b3a1845537",
                "code" : "",
                "nonce" : "0x01",
                "storage" : {
                }
            }
        },
        "pre" : {
            "0x095e7baea6a6c7c4c2dfeb977efac326af552d87" : {
                "balance" : "0x0de0b6b3a7640000",
                "code" : "0x60f4600053600160006001f0ff",
                "nonce" : "0x00",
                "storage" : {
                }
            },
            "0xa94f5374fce5edbc8e2a8697c15331677e6ebf0b" : {
                "balance" : "0x0de0b6b3a7640000",
                "code" : "",
                "nonce" : "0x00",
                "storage" : {
                }
            }
        }
    },
    "createInitFailUndefinedInstruction_d0g0v0_EIP158" : {
        "_info" : {
            "comment" : "",
            "filledwith" : "cpp-1.3.0+commit.7b8143d3.Linux.g++",
            "source" : "/src/GenStateTestAsBcTemp/stCallCreateCallCodeTest/createInitFailUndefinedInstruction_d0g0v0Filler.json"
        },
        "blocks" : [
            {
                "blockHeader" : {
                    "bloom" : "0x00000000000000000000000000000000000000000000000000000000000000000000000000000000000000000000000000000000000000000000000000000000000000000000000000000000000000000000000000000000000000000000000000000000000000000000000000000000000000000000000000000000000000000000000000000000000000000000000000000000000000000000000000000000000000000000000000000000000000000000000000000000000000000000000000000000000000000000000000000000000000000000000000000000000000000000000000000000000000000000000000000000000000000000000000000000",
                    "coinbase" : "0x2adc25665018aa1fe0e6bc666dac8fc2697ff9ba",
                    "difficulty" : "0x020000",
                    "extraData" : "",
                    "gasLimit" : "0x05f5e100",
                    "gasUsed" : "0x05de2429",
                    "hash" : "0xea135bc12ecaf3f6b6d2f3848f4ad0b31f02a6a1b9155c51ed2e1542487d741d",
                    "mixHash" : "0xca5cc369d4af4c46185fd6e153bf9e7f95afa26c0fa0c04d00b60a47958b99ec",
                    "nonce" : "0x1eef32217d4df2d4",
                    "number" : "0x01",
                    "parentHash" : "0xcbff487273a0530d8baf340d76584e5102451c615f470f41b37fc634509ff7d6",
                    "receiptTrie" : "0x492104097be561ae597c4bfec7059fddccf05363171ee3fca75bf372cb1adf03",
                    "stateRoot" : "0xbf5e9b6997b323ff0a2cecda3ddb667c966fccbd5e75d0c2c5a81af7df1e6400",
                    "timestamp" : "0x03e8",
                    "transactionsTrie" : "0x75e61774a2ff58cbe32653420256c7f44bc715715a423b0b746d5c622979af6b",
                    "uncleHash" : "0x1dcc4de8dec75d7aab85b567b6ccd41ad312451b948a7413f0a142fd40d49347"
                },
                "rlp" : "0xf90266f901faa0cbff487273a0530d8baf340d76584e5102451c615f470f41b37fc634509ff7d6a01dcc4de8dec75d7aab85b567b6ccd41ad312451b948a7413f0a142fd40d49347942adc25665018aa1fe0e6bc666dac8fc2697ff9baa0bf5e9b6997b323ff0a2cecda3ddb667c966fccbd5e75d0c2c5a81af7df1e6400a075e61774a2ff58cbe32653420256c7f44bc715715a423b0b746d5c622979af6ba0492104097be561ae597c4bfec7059fddccf05363171ee3fca75bf372cb1adf03b901000000000000000000000000000000000000000000000000000000000000000000000000000000000000000000000000000000000000000000000000000000000000000000000000000000000000000000000000000000000000000000000000000000000000000000000000000000000000000000000000000000000000000000000000000000000000000000000000000000000000000000000000000000000000000000000000000000000000000000000000000000000000000000000000000000000000000000000000000000000000000000000000000000000000000000000000000000000000000000000000000000000000000000000000000000000083020000018405f5e1008405de24298203e880a0ca5cc369d4af4c46185fd6e153bf9e7f95afa26c0fa0c04d00b60a47958b99ec881eef32217d4df2d4f866f86480018405f5e10094095e7baea6a6c7c4c2dfeb977efac326af552d87830186a0801ba088544c93a564b4c28d2ffac2074a0c55fdd4658fe0d215596ed2e32e3ef7f56ba07fb4075d54190f825d7c47bb820284757b34fd6293904a93cddb1d3aa961ac28c0",
                "transactions" : [
                    {
                        "data" : "",
                        "gasLimit" : "0x05f5e100",
                        "gasPrice" : "0x01",
                        "nonce" : "0x00",
                        "r" : "0x88544c93a564b4c28d2ffac2074a0c55fdd4658fe0d215596ed2e32e3ef7f56b",
                        "s" : "0x7fb4075d54190f825d7c47bb820284757b34fd6293904a93cddb1d3aa961ac28",
                        "to" : "0x095e7baea6a6c7c4c2dfeb977efac326af552d87",
                        "v" : "0x1b",
                        "value" : "0x0186a0"
                    }
                ],
                "uncleHeaders" : [
                ]
            }
        ],
        "genesisBlockHeader" : {
            "bloom" : "0x00000000000000000000000000000000000000000000000000000000000000000000000000000000000000000000000000000000000000000000000000000000000000000000000000000000000000000000000000000000000000000000000000000000000000000000000000000000000000000000000000000000000000000000000000000000000000000000000000000000000000000000000000000000000000000000000000000000000000000000000000000000000000000000000000000000000000000000000000000000000000000000000000000000000000000000000000000000000000000000000000000000000000000000000000000000",
            "coinbase" : "0x2adc25665018aa1fe0e6bc666dac8fc2697ff9ba",
            "difficulty" : "0x020000",
            "extraData" : "0x42",
            "gasLimit" : "0x05f5e100",
            "gasUsed" : "0x00",
            "hash" : "0xcbff487273a0530d8baf340d76584e5102451c615f470f41b37fc634509ff7d6",
            "mixHash" : "0x56e81f171bcc55a6ff8345e692c0f86e5b48e01b996cadc001622fb5e363b421",
            "nonce" : "0x0102030405060708",
            "number" : "0x00",
            "parentHash" : "0x0000000000000000000000000000000000000000000000000000000000000000",
            "receiptTrie" : "0x56e81f171bcc55a6ff8345e692c0f86e5b48e01b996cadc001622fb5e363b421",
            "stateRoot" : "0x0028a671f4b1a1255d40c41e1285c80b0707c3d574be68568f5e7d31a3dc7d60",
            "timestamp" : "0x03b6",
            "transactionsTrie" : "0x56e81f171bcc55a6ff8345e692c0f86e5b48e01b996cadc001622fb5e363b421",
            "uncleHash" : "0x1dcc4de8dec75d7aab85b567b6ccd41ad312451b948a7413f0a142fd40d49347"
        },
        "genesisRLP" : "0xf901fbf901f6a00000000000000000000000000000000000000000000000000000000000000000a01dcc4de8dec75d7aab85b567b6ccd41ad312451b948a7413f0a142fd40d49347942adc25665018aa1fe0e6bc666dac8fc2697ff9baa00028a671f4b1a1255d40c41e1285c80b0707c3d574be68568f5e7d31a3dc7d60a056e81f171bcc55a6ff8345e692c0f86e5b48e01b996cadc001622fb5e363b421a056e81f171bcc55a6ff8345e692c0f86e5b48e01b996cadc001622fb5e363b421b901000000000000000000000000000000000000000000000000000000000000000000000000000000000000000000000000000000000000000000000000000000000000000000000000000000000000000000000000000000000000000000000000000000000000000000000000000000000000000000000000000000000000000000000000000000000000000000000000000000000000000000000000000000000000000000000000000000000000000000000000000000000000000000000000000000000000000000000000000000000000000000000000000000000000000000000000000000000000000000000000000000000000000000000000000000000083020000808405f5e100808203b642a056e81f171bcc55a6ff8345e692c0f86e5b48e01b996cadc001622fb5e363b421880102030405060708c0c0",
        "lastblockhash" : "0xea135bc12ecaf3f6b6d2f3848f4ad0b31f02a6a1b9155c51ed2e1542487d741d",
        "network" : "EIP158",
        "postState" : {
            "0x0000000000000000000000000000000000000000" : {
                "balance" : "0x0de0b6b3a76586a0",
                "code" : "",
                "nonce" : "0x00",
                "storage" : {
                }
            },
            "0x2adc25665018aa1fe0e6bc666dac8fc2697ff9ba" : {
                "balance" : "0x456391824ad22429",
                "code" : "",
                "nonce" : "0x00",
                "storage" : {
                }
            },
            "0xa94f5374fce5edbc8e2a8697c15331677e6ebf0b" : {
                "balance" : "0x0de0b6b3a1845537",
                "code" : "",
                "nonce" : "0x01",
                "storage" : {
                }
            }
        },
        "pre" : {
            "0x095e7baea6a6c7c4c2dfeb977efac326af552d87" : {
                "balance" : "0x0de0b6b3a7640000",
                "code" : "0x60f4600053600160006001f0ff",
                "nonce" : "0x00",
                "storage" : {
                }
            },
            "0xa94f5374fce5edbc8e2a8697c15331677e6ebf0b" : {
                "balance" : "0x0de0b6b3a7640000",
                "code" : "",
                "nonce" : "0x00",
                "storage" : {
                }
            }
        }
    },
    "createInitFailUndefinedInstruction_d0g0v0_Frontier" : {
        "_info" : {
            "comment" : "",
            "filledwith" : "cpp-1.3.0+commit.7b8143d3.Linux.g++",
            "source" : "/src/GenStateTestAsBcTemp/stCallCreateCallCodeTest/createInitFailUndefinedInstruction_d0g0v0Filler.json"
        },
        "blocks" : [
            {
                "blockHeader" : {
                    "bloom" : "0x00000000000000000000000000000000000000000000000000000000000000000000000000000000000000000000000000000000000000000000000000000000000000000000000000000000000000000000000000000000000000000000000000000000000000000000000000000000000000000000000000000000000000000000000000000000000000000000000000000000000000000000000000000000000000000000000000000000000000000000000000000000000000000000000000000000000000000000000000000000000000000000000000000000000000000000000000000000000000000000000000000000000000000000000000000000",
                    "coinbase" : "0x2adc25665018aa1fe0e6bc666dac8fc2697ff9ba",
                    "difficulty" : "0x020000",
                    "extraData" : "",
                    "gasLimit" : "0x05f5e100",
                    "gasUsed" : "0x05f58340",
                    "hash" : "0x33728a623adc1ee3912feb678373a9453cb6a8a795afe1e1280d857938b8ceaa",
                    "mixHash" : "0x040c6f25dc26ce2bfe94553171b8bf1b0451d35f146de2170c3333160230417d",
                    "nonce" : "0xb2f20b749b516825",
                    "number" : "0x01",
                    "parentHash" : "0xcbff487273a0530d8baf340d76584e5102451c615f470f41b37fc634509ff7d6",
                    "receiptTrie" : "0x297434bb102fde84e1334f2767855669b51b075f8aad50f0fec7ed27a9c2033a",
                    "stateRoot" : "0xf8ab0473a58752f3916b4bda129c722c25ba74e5bed67805d622c55fbdbc6d7d",
                    "timestamp" : "0x03e8",
                    "transactionsTrie" : "0x75e61774a2ff58cbe32653420256c7f44bc715715a423b0b746d5c622979af6b",
                    "uncleHash" : "0x1dcc4de8dec75d7aab85b567b6ccd41ad312451b948a7413f0a142fd40d49347"
                },
                "rlp" : "0xf90266f901faa0cbff487273a0530d8baf340d76584e5102451c615f470f41b37fc634509ff7d6a01dcc4de8dec75d7aab85b567b6ccd41ad312451b948a7413f0a142fd40d49347942adc25665018aa1fe0e6bc666dac8fc2697ff9baa0f8ab0473a58752f3916b4bda129c722c25ba74e5bed67805d622c55fbdbc6d7da075e61774a2ff58cbe32653420256c7f44bc715715a423b0b746d5c622979af6ba0297434bb102fde84e1334f2767855669b51b075f8aad50f0fec7ed27a9c2033ab901000000000000000000000000000000000000000000000000000000000000000000000000000000000000000000000000000000000000000000000000000000000000000000000000000000000000000000000000000000000000000000000000000000000000000000000000000000000000000000000000000000000000000000000000000000000000000000000000000000000000000000000000000000000000000000000000000000000000000000000000000000000000000000000000000000000000000000000000000000000000000000000000000000000000000000000000000000000000000000000000000000000000000000000000000000000083020000018405f5e1008405f583408203e880a0040c6f25dc26ce2bfe94553171b8bf1b0451d35f146de2170c3333160230417d88b2f20b749b516825f866f86480018405f5e10094095e7baea6a6c7c4c2dfeb977efac326af552d87830186a0801ba088544c93a564b4c28d2ffac2074a0c55fdd4658fe0d215596ed2e32e3ef7f56ba07fb4075d54190f825d7c47bb820284757b34fd6293904a93cddb1d3aa961ac28c0",
                "transactions" : [
                    {
                        "data" : "",
                        "gasLimit" : "0x05f5e100",
                        "gasPrice" : "0x01",
                        "nonce" : "0x00",
                        "r" : "0x88544c93a564b4c28d2ffac2074a0c55fdd4658fe0d215596ed2e32e3ef7f56b",
                        "s" : "0x7fb4075d54190f825d7c47bb820284757b34fd6293904a93cddb1d3aa961ac28",
                        "to" : "0x095e7baea6a6c7c4c2dfeb977efac326af552d87",
                        "v" : "0x1b",
                        "value" : "0x0186a0"
                    }
                ],
                "uncleHeaders" : [
                ]
            }
        ],
        "genesisBlockHeader" : {
            "bloom" : "0x00000000000000000000000000000000000000000000000000000000000000000000000000000000000000000000000000000000000000000000000000000000000000000000000000000000000000000000000000000000000000000000000000000000000000000000000000000000000000000000000000000000000000000000000000000000000000000000000000000000000000000000000000000000000000000000000000000000000000000000000000000000000000000000000000000000000000000000000000000000000000000000000000000000000000000000000000000000000000000000000000000000000000000000000000000000",
            "coinbase" : "0x2adc25665018aa1fe0e6bc666dac8fc2697ff9ba",
            "difficulty" : "0x020000",
            "extraData" : "0x42",
            "gasLimit" : "0x05f5e100",
            "gasUsed" : "0x00",
            "hash" : "0xcbff487273a0530d8baf340d76584e5102451c615f470f41b37fc634509ff7d6",
            "mixHash" : "0x56e81f171bcc55a6ff8345e692c0f86e5b48e01b996cadc001622fb5e363b421",
            "nonce" : "0x0102030405060708",
            "number" : "0x00",
            "parentHash" : "0x0000000000000000000000000000000000000000000000000000000000000000",
            "receiptTrie" : "0x56e81f171bcc55a6ff8345e692c0f86e5b48e01b996cadc001622fb5e363b421",
            "stateRoot" : "0x0028a671f4b1a1255d40c41e1285c80b0707c3d574be68568f5e7d31a3dc7d60",
            "timestamp" : "0x03b6",
            "transactionsTrie" : "0x56e81f171bcc55a6ff8345e692c0f86e5b48e01b996cadc001622fb5e363b421",
            "uncleHash" : "0x1dcc4de8dec75d7aab85b567b6ccd41ad312451b948a7413f0a142fd40d49347"
        },
        "genesisRLP" : "0xf901fbf901f6a00000000000000000000000000000000000000000000000000000000000000000a01dcc4de8dec75d7aab85b567b6ccd41ad312451b948a7413f0a142fd40d49347942adc25665018aa1fe0e6bc666dac8fc2697ff9baa00028a671f4b1a1255d40c41e1285c80b0707c3d574be68568f5e7d31a3dc7d60a056e81f171bcc55a6ff8345e692c0f86e5b48e01b996cadc001622fb5e363b421a056e81f171bcc55a6ff8345e692c0f86e5b48e01b996cadc001622fb5e363b421b901000000000000000000000000000000000000000000000000000000000000000000000000000000000000000000000000000000000000000000000000000000000000000000000000000000000000000000000000000000000000000000000000000000000000000000000000000000000000000000000000000000000000000000000000000000000000000000000000000000000000000000000000000000000000000000000000000000000000000000000000000000000000000000000000000000000000000000000000000000000000000000000000000000000000000000000000000000000000000000000000000000000000000000000000000000000083020000808405f5e100808203b642a056e81f171bcc55a6ff8345e692c0f86e5b48e01b996cadc001622fb5e363b421880102030405060708c0c0",
        "lastblockhash" : "0x33728a623adc1ee3912feb678373a9453cb6a8a795afe1e1280d857938b8ceaa",
        "network" : "Frontier",
        "postState" : {
            "0x0000000000000000000000000000000000000000" : {
                "balance" : "0x0de0b6b3a76586a0",
                "code" : "",
                "nonce" : "0x00",
                "storage" : {
                }
            },
            "0x2adc25665018aa1fe0e6bc666dac8fc2697ff9ba" : {
                "balance" : "0x456391824ae98340",
                "code" : "",
                "nonce" : "0x00",
                "storage" : {
                }
            },
            "0xa94f5374fce5edbc8e2a8697c15331677e6ebf0b" : {
                "balance" : "0x0de0b6b3a16cf620",
                "code" : "",
                "nonce" : "0x01",
                "storage" : {
                }
            }
        },
        "pre" : {
            "0x095e7baea6a6c7c4c2dfeb977efac326af552d87" : {
                "balance" : "0x0de0b6b3a7640000",
                "code" : "0x60f4600053600160006001f0ff",
                "nonce" : "0x00",
                "storage" : {
                }
            },
            "0xa94f5374fce5edbc8e2a8697c15331677e6ebf0b" : {
                "balance" : "0x0de0b6b3a7640000",
                "code" : "",
                "nonce" : "0x00",
                "storage" : {
                }
            }
        }
    },
    "createInitFailUndefinedInstruction_d0g0v0_Homestead" : {
        "_info" : {
            "comment" : "",
            "filledwith" : "cpp-1.3.0+commit.7b8143d3.Linux.g++",
            "source" : "/src/GenStateTestAsBcTemp/stCallCreateCallCodeTest/createInitFailUndefinedInstruction_d0g0v0Filler.json"
        },
        "blocks" : [
            {
                "blockHeader" : {
                    "bloom" : "0x00000000000000000000000000000000000000000000000000000000000000000000000000000000000000000000000000000000000000000000000000000000000000000000000000000000000000000000000000000000000000000000000000000000000000000000000000000000000000000000000000000000000000000000000000000000000000000000000000000000000000000000000000000000000000000000000000000000000000000000000000000000000000000000000000000000000000000000000000000000000000000000000000000000000000000000000000000000000000000000000000000000000000000000000000000000",
                    "coinbase" : "0x2adc25665018aa1fe0e6bc666dac8fc2697ff9ba",
                    "difficulty" : "0x020000",
                    "extraData" : "",
                    "gasLimit" : "0x05f5e100",
                    "gasUsed" : "0x05f58340",
                    "hash" : "0x0beb96c1824c46102bcae0aa117a5fdb503e522cef3d7f3d1a2033bf1837773e",
                    "mixHash" : "0x7eab7d8effa85ec4bf58af1891383d25a49b3000cef5ca289a12acf9bf676c3d",
                    "nonce" : "0x3367e2da38f4d412",
                    "number" : "0x01",
                    "parentHash" : "0xcbff487273a0530d8baf340d76584e5102451c615f470f41b37fc634509ff7d6",
                    "receiptTrie" : "0x297434bb102fde84e1334f2767855669b51b075f8aad50f0fec7ed27a9c2033a",
                    "stateRoot" : "0xf8ab0473a58752f3916b4bda129c722c25ba74e5bed67805d622c55fbdbc6d7d",
                    "timestamp" : "0x03e8",
                    "transactionsTrie" : "0x75e61774a2ff58cbe32653420256c7f44bc715715a423b0b746d5c622979af6b",
                    "uncleHash" : "0x1dcc4de8dec75d7aab85b567b6ccd41ad312451b948a7413f0a142fd40d49347"
                },
                "rlp" : "0xf90266f901faa0cbff487273a0530d8baf340d76584e5102451c615f470f41b37fc634509ff7d6a01dcc4de8dec75d7aab85b567b6ccd41ad312451b948a7413f0a142fd40d49347942adc25665018aa1fe0e6bc666dac8fc2697ff9baa0f8ab0473a58752f3916b4bda129c722c25ba74e5bed67805d622c55fbdbc6d7da075e61774a2ff58cbe32653420256c7f44bc715715a423b0b746d5c622979af6ba0297434bb102fde84e1334f2767855669b51b075f8aad50f0fec7ed27a9c2033ab901000000000000000000000000000000000000000000000000000000000000000000000000000000000000000000000000000000000000000000000000000000000000000000000000000000000000000000000000000000000000000000000000000000000000000000000000000000000000000000000000000000000000000000000000000000000000000000000000000000000000000000000000000000000000000000000000000000000000000000000000000000000000000000000000000000000000000000000000000000000000000000000000000000000000000000000000000000000000000000000000000000000000000000000000000000000083020000018405f5e1008405f583408203e880a07eab7d8effa85ec4bf58af1891383d25a49b3000cef5ca289a12acf9bf676c3d883367e2da38f4d412f866f86480018405f5e10094095e7baea6a6c7c4c2dfeb977efac326af552d87830186a0801ba088544c93a564b4c28d2ffac2074a0c55fdd4658fe0d215596ed2e32e3ef7f56ba07fb4075d54190f825d7c47bb820284757b34fd6293904a93cddb1d3aa961ac28c0",
                "transactions" : [
                    {
                        "data" : "",
                        "gasLimit" : "0x05f5e100",
                        "gasPrice" : "0x01",
                        "nonce" : "0x00",
                        "r" : "0x88544c93a564b4c28d2ffac2074a0c55fdd4658fe0d215596ed2e32e3ef7f56b",
                        "s" : "0x7fb4075d54190f825d7c47bb820284757b34fd6293904a93cddb1d3aa961ac28",
                        "to" : "0x095e7baea6a6c7c4c2dfeb977efac326af552d87",
                        "v" : "0x1b",
                        "value" : "0x0186a0"
                    }
                ],
                "uncleHeaders" : [
                ]
            }
        ],
        "genesisBlockHeader" : {
            "bloom" : "0x00000000000000000000000000000000000000000000000000000000000000000000000000000000000000000000000000000000000000000000000000000000000000000000000000000000000000000000000000000000000000000000000000000000000000000000000000000000000000000000000000000000000000000000000000000000000000000000000000000000000000000000000000000000000000000000000000000000000000000000000000000000000000000000000000000000000000000000000000000000000000000000000000000000000000000000000000000000000000000000000000000000000000000000000000000000",
            "coinbase" : "0x2adc25665018aa1fe0e6bc666dac8fc2697ff9ba",
            "difficulty" : "0x020000",
            "extraData" : "0x42",
            "gasLimit" : "0x05f5e100",
            "gasUsed" : "0x00",
            "hash" : "0xcbff487273a0530d8baf340d76584e5102451c615f470f41b37fc634509ff7d6",
            "mixHash" : "0x56e81f171bcc55a6ff8345e692c0f86e5b48e01b996cadc001622fb5e363b421",
            "nonce" : "0x0102030405060708",
            "number" : "0x00",
            "parentHash" : "0x0000000000000000000000000000000000000000000000000000000000000000",
            "receiptTrie" : "0x56e81f171bcc55a6ff8345e692c0f86e5b48e01b996cadc001622fb5e363b421",
            "stateRoot" : "0x0028a671f4b1a1255d40c41e1285c80b0707c3d574be68568f5e7d31a3dc7d60",
            "timestamp" : "0x03b6",
            "transactionsTrie" : "0x56e81f171bcc55a6ff8345e692c0f86e5b48e01b996cadc001622fb5e363b421",
            "uncleHash" : "0x1dcc4de8dec75d7aab85b567b6ccd41ad312451b948a7413f0a142fd40d49347"
        },
        "genesisRLP" : "0xf901fbf901f6a00000000000000000000000000000000000000000000000000000000000000000a01dcc4de8dec75d7aab85b567b6ccd41ad312451b948a7413f0a142fd40d49347942adc25665018aa1fe0e6bc666dac8fc2697ff9baa00028a671f4b1a1255d40c41e1285c80b0707c3d574be68568f5e7d31a3dc7d60a056e81f171bcc55a6ff8345e692c0f86e5b48e01b996cadc001622fb5e363b421a056e81f171bcc55a6ff8345e692c0f86e5b48e01b996cadc001622fb5e363b421b901000000000000000000000000000000000000000000000000000000000000000000000000000000000000000000000000000000000000000000000000000000000000000000000000000000000000000000000000000000000000000000000000000000000000000000000000000000000000000000000000000000000000000000000000000000000000000000000000000000000000000000000000000000000000000000000000000000000000000000000000000000000000000000000000000000000000000000000000000000000000000000000000000000000000000000000000000000000000000000000000000000000000000000000000000000000083020000808405f5e100808203b642a056e81f171bcc55a6ff8345e692c0f86e5b48e01b996cadc001622fb5e363b421880102030405060708c0c0",
        "lastblockhash" : "0x0beb96c1824c46102bcae0aa117a5fdb503e522cef3d7f3d1a2033bf1837773e",
        "network" : "Homestead",
        "postState" : {
            "0x0000000000000000000000000000000000000000" : {
                "balance" : "0x0de0b6b3a76586a0",
                "code" : "",
                "nonce" : "0x00",
                "storage" : {
                }
            },
            "0x2adc25665018aa1fe0e6bc666dac8fc2697ff9ba" : {
                "balance" : "0x456391824ae98340",
                "code" : "",
                "nonce" : "0x00",
                "storage" : {
                }
            },
            "0xa94f5374fce5edbc8e2a8697c15331677e6ebf0b" : {
                "balance" : "0x0de0b6b3a16cf620",
                "code" : "",
                "nonce" : "0x01",
                "storage" : {
                }
            }
        },
        "pre" : {
            "0x095e7baea6a6c7c4c2dfeb977efac326af552d87" : {
                "balance" : "0x0de0b6b3a7640000",
                "code" : "0x60f4600053600160006001f0ff",
                "nonce" : "0x00",
                "storage" : {
                }
            },
            "0xa94f5374fce5edbc8e2a8697c15331677e6ebf0b" : {
                "balance" : "0x0de0b6b3a7640000",
                "code" : "",
                "nonce" : "0x00",
                "storage" : {
                }
            }
        }
    }
}