{
    "createJS_ExampleContract_d0g0v0_Byzantium" : {
        "_info" : {
            "comment" : "",
            "filledwith" : "cpp-1.3.0+commit.619a6438.Linux.g++",
            "lllcversion" : "Version: 0.4.20-develop.2018.1.8+commit.2548228b.Linux.g++",
            "source" : "src/BlockchainTestsFiller/GeneralStateTests/stCallCreateCallCodeTest/createJS_ExampleContract_d0g0v0Filler.json",
            "sourceHash" : "c531ba16010a4148aeac458a52fd3d98770c4ef4f571fcd1508e179a44d5159b"
        },
        "blocks" : [
            {
                "blockHeader" : {
                    "bloom" : "0x00000000000000000000000000000000000000000000000000000000000000000000000000000000000000000000000000000000000000000000000000000000000000000000000000000000000000000000000000000000000000000000000000000000000000000000000000000000000000000000000000000000000000000000000000000000000000000000000000000000000000000000000000000000000000000000000000000000000000000000000000000000000000000000000000000000000000000000000000000000000000000000000000000000000000000000000000000000000000000000000000000000000000000000000000000000",
                    "coinbase" : "0x2adc25665018aa1fe0e6bc666dac8fc2697ff9ba",
                    "difficulty" : "0x020000",
                    "extraData" : "",
                    "gasLimit" : "0x0f4240",
                    "gasUsed" : "0x0927c0",
                    "hash" : "0x020fc4ea2bf5eace55568c7ebd373b65f26c033248f19d6e75ec861b92c38b91",
                    "mixHash" : "0xb3144eb16cdbb174235c100327eb9f4034155191db25996b08298d97a6ad3cea",
                    "nonce" : "0xce8a57b1d5d63e58",
                    "number" : "0x01",
                    "parentHash" : "0x38850b3326123466344e9b5eb824ecc05d158b66d7d10dda7103c9592a263458",
                    "receiptTrie" : "0x498b3877860df644cfd4fcc2e12bc89f717e8618d276fe033ca9152312997215",
                    "stateRoot" : "0x5ff055d9225481aea4c93131a6d766780bf768ef287b1d0f1a7d4a077a419612",
                    "timestamp" : "0x03e8",
                    "transactionsTrie" : "0x0f46cd87bb26b8752c4d35c5b54c80c860286c850aacadb5426d1c66d156156e",
                    "uncleHash" : "0x1dcc4de8dec75d7aab85b567b6ccd41ad312451b948a7413f0a142fd40d49347"
                },
                "rlp" : "0xf9065df901f8a038850b3326123466344e9b5eb824ecc05d158b66d7d10dda7103c9592a263458a01dcc4de8dec75d7aab85b567b6ccd41ad312451b948a7413f0a142fd40d49347942adc25665018aa1fe0e6bc666dac8fc2697ff9baa05ff055d9225481aea4c93131a6d766780bf768ef287b1d0f1a7d4a077a419612a00f46cd87bb26b8752c4d35c5b54c80c860286c850aacadb5426d1c66d156156ea0498b3877860df644cfd4fcc2e12bc89f717e8618d276fe033ca9152312997215b90100000000000000000000000000000000000000000000000000000000000000000000000000000000000000000000000000000000000000000000000000000000000000000000000000000000000000000000000000000000000000000000000000000000000000000000000000000000000000000000000000000000000000000000000000000000000000000000000000000000000000000000000000000000000000000000000000000000000000000000000000000000000000000000000000000000000000000000000000000000000000000000000000000000000000000000000000000000000000000000000000000000000000000000000000000000008302000001830f4240830927c08203e880a0b3144eb16cdbb174235c100327eb9f4034155191db25996b08298d97a6ad3cea88ce8a57b1d5d63e58f9045ef9045b8001830927c080830186a0b9040a60406103ca600439600451602451336000819055506000600481905550816001819055508060028190555042600581905550336003819055505050610381806100496000396000f30060003560e060020a9004806343d726d61461004257806391b7f5ed14610050578063d686f9ee14610061578063f5bade661461006f578063fcfff16f1461008057005b61004a6101de565b60006000f35b61005b6004356100bf565b60006000f35b610069610304565b60006000f35b61007a60043561008e565b60006000f35b6100886100f0565b60006000f35b600054600160a060020a031633600160a060020a031614156100af576100b4565b6100bc565b806001819055505b50565b600054600160a060020a031633600160a060020a031614156100e0576100e5565b6100ed565b806002819055505b50565b600054600160a060020a031633600160a060020a031614806101255750600354600160a060020a031633600160a060020a0316145b61012e57610161565b60016004819055507f59ebeb90bc63057b6515673c3ecf9438e5058bca0f92585014eced636878c9a560006000a16101dc565b60045460011480610173575060015434105b6101b85760016004819055507f59ebeb90bc63057b6515673c3ecf9438e5058bca0f92585014eced636878c9a560006000a142600581905550336003819055506101db565b33600160a060020a03166000346000600060006000848787f16101d757005b5050505b5b565b60006004546000146101ef576101f4565b610301565b600054600160a060020a031633600160a060020a031614801561022c5750600054600160a060020a0316600354600160a060020a0316145b61023557610242565b6000600481905550610301565b600354600160a060020a031633600160a060020a03161461026257610300565b600554420360025402905060015481116102c757600354600160a060020a0316600082600154036000600060006000848787f161029b57005b505050600054600160a060020a03166000826000600060006000848787f16102bf57005b5050506102ee565b600054600160a060020a031660006001546000600060006000848787f16102ea57005b5050505b60006004819055506000546003819055505b5b50565b6000600054600160a060020a031633600160a060020a031614156103275761032c565b61037e565b600554420360025402905060015481116103455761037d565b600054600160a060020a031660006001546000600060006000848787f161036857005b50505060006004819055506000546003819055505b5b5056000000000000000000000000000000000000000000000000000000000000004200000000000000000000000000000000000000000000000000000000000000231ca02bd8d1699b0fda2b486c176076f8039ae0bec6bb7237c328033f89efc352282da0415be60a0f371eac3b515ad6ee3c6a62d29d632e84194edb7087977df63afbf7c0",
                "transactions" : [
                    {
                        "data" : "0x60406103ca600439600451602451336000819055506000600481905550816001819055508060028190555042600581905550336003819055505050610381806100496000396000f30060003560e060020a9004806343d726d61461004257806391b7f5ed14610050578063d686f9ee14610061578063f5bade661461006f578063fcfff16f1461008057005b61004a6101de565b60006000f35b61005b6004356100bf565b60006000f35b610069610304565b60006000f35b61007a60043561008e565b60006000f35b6100886100f0565b60006000f35b600054600160a060020a031633600160a060020a031614156100af576100b4565b6100bc565b806001819055505b50565b600054600160a060020a031633600160a060020a031614156100e0576100e5565b6100ed565b806002819055505b50565b600054600160a060020a031633600160a060020a031614806101255750600354600160a060020a031633600160a060020a0316145b61012e57610161565b60016004819055507f59ebeb90bc63057b6515673c3ecf9438e5058bca0f92585014eced636878c9a560006000a16101dc565b60045460011480610173575060015434105b6101b85760016004819055507f59ebeb90bc63057b6515673c3ecf9438e5058bca0f92585014eced636878c9a560006000a142600581905550336003819055506101db565b33600160a060020a03166000346000600060006000848787f16101d757005b5050505b5b565b60006004546000146101ef576101f4565b610301565b600054600160a060020a031633600160a060020a031614801561022c5750600054600160a060020a0316600354600160a060020a0316145b61023557610242565b6000600481905550610301565b600354600160a060020a031633600160a060020a03161461026257610300565b600554420360025402905060015481116102c757600354600160a060020a0316600082600154036000600060006000848787f161029b57005b505050600054600160a060020a03166000826000600060006000848787f16102bf57005b5050506102ee565b600054600160a060020a031660006001546000600060006000848787f16102ea57005b5050505b60006004819055506000546003819055505b5b50565b6000600054600160a060020a031633600160a060020a031614156103275761032c565b61037e565b600554420360025402905060015481116103455761037d565b600054600160a060020a031660006001546000600060006000848787f161036857005b50505060006004819055506000546003819055505b5b505600000000000000000000000000000000000000000000000000000000000000420000000000000000000000000000000000000000000000000000000000000023",
                        "gasLimit" : "0x0927c0",
                        "gasPrice" : "0x01",
                        "nonce" : "0x00",
                        "r" : "0x2bd8d1699b0fda2b486c176076f8039ae0bec6bb7237c328033f89efc352282d",
                        "s" : "0x415be60a0f371eac3b515ad6ee3c6a62d29d632e84194edb7087977df63afbf7",
                        "to" : "",
                        "v" : "0x1c",
                        "value" : "0x0186a0"
                    }
                ],
                "uncleHeaders" : [
                ]
            }
        ],
        "genesisBlockHeader" : {
            "bloom" : "0x00000000000000000000000000000000000000000000000000000000000000000000000000000000000000000000000000000000000000000000000000000000000000000000000000000000000000000000000000000000000000000000000000000000000000000000000000000000000000000000000000000000000000000000000000000000000000000000000000000000000000000000000000000000000000000000000000000000000000000000000000000000000000000000000000000000000000000000000000000000000000000000000000000000000000000000000000000000000000000000000000000000000000000000000000000000",
            "coinbase" : "0x2adc25665018aa1fe0e6bc666dac8fc2697ff9ba",
            "difficulty" : "0x020000",
            "extraData" : "0x42",
            "gasLimit" : "0x0f4240",
            "gasUsed" : "0x00",
            "hash" : "0x38850b3326123466344e9b5eb824ecc05d158b66d7d10dda7103c9592a263458",
            "mixHash" : "0x56e81f171bcc55a6ff8345e692c0f86e5b48e01b996cadc001622fb5e363b421",
            "nonce" : "0x0102030405060708",
            "number" : "0x00",
            "parentHash" : "0x0000000000000000000000000000000000000000000000000000000000000000",
            "receiptTrie" : "0x56e81f171bcc55a6ff8345e692c0f86e5b48e01b996cadc001622fb5e363b421",
            "stateRoot" : "0xe1a3750b19ae018e0179d9e5f2ab65af3afe10b15e1754f85f8324b4ba38fe9f",
            "timestamp" : "0x03b6",
            "transactionsTrie" : "0x56e81f171bcc55a6ff8345e692c0f86e5b48e01b996cadc001622fb5e363b421",
            "uncleHash" : "0x1dcc4de8dec75d7aab85b567b6ccd41ad312451b948a7413f0a142fd40d49347"
        },
        "genesisRLP" : "0xf901faf901f5a00000000000000000000000000000000000000000000000000000000000000000a01dcc4de8dec75d7aab85b567b6ccd41ad312451b948a7413f0a142fd40d49347942adc25665018aa1fe0e6bc666dac8fc2697ff9baa0e1a3750b19ae018e0179d9e5f2ab65af3afe10b15e1754f85f8324b4ba38fe9fa056e81f171bcc55a6ff8345e692c0f86e5b48e01b996cadc001622fb5e363b421a056e81f171bcc55a6ff8345e692c0f86e5b48e01b996cadc001622fb5e363b421b90100000000000000000000000000000000000000000000000000000000000000000000000000000000000000000000000000000000000000000000000000000000000000000000000000000000000000000000000000000000000000000000000000000000000000000000000000000000000000000000000000000000000000000000000000000000000000000000000000000000000000000000000000000000000000000000000000000000000000000000000000000000000000000000000000000000000000000000000000000000000000000000000000000000000000000000000000000000000000000000000000000000000000000000000000000000008302000080830f4240808203b642a056e81f171bcc55a6ff8345e692c0f86e5b48e01b996cadc001622fb5e363b421880102030405060708c0c0",
        "lastblockhash" : "0x020fc4ea2bf5eace55568c7ebd373b65f26c033248f19d6e75ec861b92c38b91",
        "network" : "Byzantium",
        "postState" : {
            "0x2adc25665018aa1fe0e6bc666dac8fc2697ff9ba" : {
                "balance" : "0x29a2241af63527c0",
                "code" : "",
                "nonce" : "0x00",
                "storage" : {
                }
            },
            "0x6295ee1b4f6dd65047762f924ecd367c17eabf8f" : {
                "balance" : "0x0186a0",
                "code" : "0x60003560e060020a9004806343d726d61461004257806391b7f5ed14610050578063d686f9ee14610061578063f5bade661461006f578063fcfff16f1461008057005b61004a6101de565b60006000f35b61005b6004356100bf565b60006000f35b610069610304565b60006000f35b61007a60043561008e565b60006000f35b6100886100f0565b60006000f35b600054600160a060020a031633600160a060020a031614156100af576100b4565b6100bc565b806001819055505b50565b600054600160a060020a031633600160a060020a031614156100e0576100e5565b6100ed565b806002819055505b50565b600054600160a060020a031633600160a060020a031614806101255750600354600160a060020a031633600160a060020a0316145b61012e57610161565b60016004819055507f59ebeb90bc63057b6515673c3ecf9438e5058bca0f92585014eced636878c9a560006000a16101dc565b60045460011480610173575060015434105b6101b85760016004819055507f59ebeb90bc63057b6515673c3ecf9438e5058bca0f92585014eced636878c9a560006000a142600581905550336003819055506101db565b33600160a060020a03166000346000600060006000848787f16101d757005b5050505b5b565b60006004546000146101ef576101f4565b610301565b600054600160a060020a031633600160a060020a031614801561022c5750600054600160a060020a0316600354600160a060020a0316145b61023557610242565b6000600481905550610301565b600354600160a060020a031633600160a060020a03161461026257610300565b600554420360025402905060015481116102c757600354600160a060020a0316600082600154036000600060006000848787f161029b57005b505050600054600160a060020a03166000826000600060006000848787f16102bf57005b5050506102ee565b600054600160a060020a031660006001546000600060006000848787f16102ea57005b5050505b60006004819055506000546003819055505b5b50565b6000600054600160a060020a031633600160a060020a031614156103275761032c565b61037e565b600554420360025402905060015481116103455761037d565b600054600160a060020a031660006001546000600060006000848787f161036857005b50505060006004819055506000546003819055505b5b5056",
                "nonce" : "0x00",
                "storage" : {
                    "0x00" : "0xa94f5374fce5edbc8e2a8697c15331677e6ebf0b",
                    "0x01" : "0x42",
                    "0x02" : "0x23",
                    "0x03" : "0xa94f5374fce5edbc8e2a8697c15331677e6ebf0b",
                    "0x05" : "0x54c98c81"
                }
            },
            "0xa94f5374fce5edbc8e2a8697c15331677e6ebf0b" : {
                "balance" : "0x09184e697840",
                "code" : "",
                "nonce" : "0x01",
                "storage" : {
                }
            }
        },
        "pre" : {
            "0x6295ee1b4f6dd65047762f924ecd367c17eabf8f" : {
                "balance" : "0x0186a0",
                "code" : "0x60003560e060020a9004806343d726d61461004257806391b7f5ed14610050578063d686f9ee14610061578063f5bade661461006f578063fcfff16f1461008057005b61004a6101de565b60006000f35b61005b6004356100bf565b60006000f35b610069610304565b60006000f35b61007a60043561008e565b60006000f35b6100886100f0565b60006000f35b600054600160a060020a031633600160a060020a031614156100af576100b4565b6100bc565b806001819055505b50565b600054600160a060020a031633600160a060020a031614156100e0576100e5565b6100ed565b806002819055505b50565b600054600160a060020a031633600160a060020a031614806101255750600354600160a060020a031633600160a060020a0316145b61012e57610161565b60016004819055507f59ebeb90bc63057b6515673c3ecf9438e5058bca0f92585014eced636878c9a560006000a16101dc565b60045460011480610173575060015434105b6101b85760016004819055507f59ebeb90bc63057b6515673c3ecf9438e5058bca0f92585014eced636878c9a560006000a142600581905550336003819055506101db565b33600160a060020a03166000346000600060006000848787f16101d757005b5050505b5b565b60006004546000146101ef576101f4565b610301565b600054600160a060020a031633600160a060020a031614801561022c5750600054600160a060020a0316600354600160a060020a0316145b61023557610242565b6000600481905550610301565b600354600160a060020a031633600160a060020a03161461026257610300565b600554420360025402905060015481116102c757600354600160a060020a0316600082600154036000600060006000848787f161029b57005b505050600054600160a060020a03166000826000600060006000848787f16102bf57005b5050506102ee565b600054600160a060020a031660006001546000600060006000848787f16102ea57005b5050505b60006004819055506000546003819055505b5b50565b6000600054600160a060020a031633600160a060020a031614156103275761032c565b61037e565b600554420360025402905060015481116103455761037d565b600054600160a060020a031660006001546000600060006000848787f161036857005b50505060006004819055506000546003819055505b5b5056",
                "nonce" : "0x00",
                "storage" : {
                    "0x00" : "0xa94f5374fce5edbc8e2a8697c15331677e6ebf0b",
                    "0x01" : "0x42",
                    "0x02" : "0x23",
                    "0x03" : "0xa94f5374fce5edbc8e2a8697c15331677e6ebf0b",
                    "0x05" : "0x54c98c81"
                }
            },
            "0xa94f5374fce5edbc8e2a8697c15331677e6ebf0b" : {
                "balance" : "0x09184e72a000",
                "code" : "",
                "nonce" : "0x00",
                "storage" : {
                }
            }
        }
    },
    "createJS_ExampleContract_d0g0v0_Frontier" : {
        "_info" : {
            "comment" : "",
            "filledwith" : "cpp-1.3.0+commit.619a6438.Linux.g++",
            "lllcversion" : "Version: 0.4.20-develop.2018.1.8+commit.2548228b.Linux.g++",
            "source" : "src/BlockchainTestsFiller/GeneralStateTests/stCallCreateCallCodeTest/createJS_ExampleContract_d0g0v0Filler.json",
            "sourceHash" : "c531ba16010a4148aeac458a52fd3d98770c4ef4f571fcd1508e179a44d5159b"
        },
        "blocks" : [
            {
                "blockHeader" : {
                    "bloom" : "0x00000000000000000000000000000000000000000000000000000000000000000000000000000000000000000000000000000000000000000000000000000000000000000000000000000000000000000000000000000000000000000000000000000000000000000000000000000000000000000000000000000000000000000000000000000000000000000000000000000000000000000000000000000000000000000000000000000000000000000000000000000000000000000000000000000000000000000000000000000000000000000000000000000000000000000000000000000000000000000000000000000000000000000000000000000000",
                    "coinbase" : "0x2adc25665018aa1fe0e6bc666dac8fc2697ff9ba",
                    "difficulty" : "0x020000",
                    "extraData" : "",
                    "gasLimit" : "0x0f4240",
                    "gasUsed" : "0x0927c0",
                    "hash" : "0x29c8f22a704a8f1f2a05f1047c132506802d7a78ac8eaec411e087d584e145b2",
                    "mixHash" : "0x6d00a3fda5846eff3ab847f74078cbb3d24127af985f3aec2f161dd209d7c25d",
                    "nonce" : "0xef3dc9762f18f1a6",
                    "number" : "0x01",
                    "parentHash" : "0x38850b3326123466344e9b5eb824ecc05d158b66d7d10dda7103c9592a263458",
                    "receiptTrie" : "0x3ac7edd793f591b8642798fdaa65929c5c0d90a6d7ad48c7b48142dd36343cd6",
                    "stateRoot" : "0xd7ed1fb6756c97bd2bc6fb8732d8cf78ae8fc758fba75c142954556fdc056e5f",
                    "timestamp" : "0x03e8",
                    "transactionsTrie" : "0x0f46cd87bb26b8752c4d35c5b54c80c860286c850aacadb5426d1c66d156156e",
                    "uncleHash" : "0x1dcc4de8dec75d7aab85b567b6ccd41ad312451b948a7413f0a142fd40d49347"
                },
                "rlp" : "0xf9065df901f8a038850b3326123466344e9b5eb824ecc05d158b66d7d10dda7103c9592a263458a01dcc4de8dec75d7aab85b567b6ccd41ad312451b948a7413f0a142fd40d49347942adc25665018aa1fe0e6bc666dac8fc2697ff9baa0d7ed1fb6756c97bd2bc6fb8732d8cf78ae8fc758fba75c142954556fdc056e5fa00f46cd87bb26b8752c4d35c5b54c80c860286c850aacadb5426d1c66d156156ea03ac7edd793f591b8642798fdaa65929c5c0d90a6d7ad48c7b48142dd36343cd6b90100000000000000000000000000000000000000000000000000000000000000000000000000000000000000000000000000000000000000000000000000000000000000000000000000000000000000000000000000000000000000000000000000000000000000000000000000000000000000000000000000000000000000000000000000000000000000000000000000000000000000000000000000000000000000000000000000000000000000000000000000000000000000000000000000000000000000000000000000000000000000000000000000000000000000000000000000000000000000000000000000000000000000000000000000000000008302000001830f4240830927c08203e880a06d00a3fda5846eff3ab847f74078cbb3d24127af985f3aec2f161dd209d7c25d88ef3dc9762f18f1a6f9045ef9045b8001830927c080830186a0b9040a60406103ca600439600451602451336000819055506000600481905550816001819055508060028190555042600581905550336003819055505050610381806100496000396000f30060003560e060020a9004806343d726d61461004257806391b7f5ed14610050578063d686f9ee14610061578063f5bade661461006f578063fcfff16f1461008057005b61004a6101de565b60006000f35b61005b6004356100bf565b60006000f35b610069610304565b60006000f35b61007a60043561008e565b60006000f35b6100886100f0565b60006000f35b600054600160a060020a031633600160a060020a031614156100af576100b4565b6100bc565b806001819055505b50565b600054600160a060020a031633600160a060020a031614156100e0576100e5565b6100ed565b806002819055505b50565b600054600160a060020a031633600160a060020a031614806101255750600354600160a060020a031633600160a060020a0316145b61012e57610161565b60016004819055507f59ebeb90bc63057b6515673c3ecf9438e5058bca0f92585014eced636878c9a560006000a16101dc565b60045460011480610173575060015434105b6101b85760016004819055507f59ebeb90bc63057b6515673c3ecf9438e5058bca0f92585014eced636878c9a560006000a142600581905550336003819055506101db565b33600160a060020a03166000346000600060006000848787f16101d757005b5050505b5b565b60006004546000146101ef576101f4565b610301565b600054600160a060020a031633600160a060020a031614801561022c5750600054600160a060020a0316600354600160a060020a0316145b61023557610242565b6000600481905550610301565b600354600160a060020a031633600160a060020a03161461026257610300565b600554420360025402905060015481116102c757600354600160a060020a0316600082600154036000600060006000848787f161029b57005b505050600054600160a060020a03166000826000600060006000848787f16102bf57005b5050506102ee565b600054600160a060020a031660006001546000600060006000848787f16102ea57005b5050505b60006004819055506000546003819055505b5b50565b6000600054600160a060020a031633600160a060020a031614156103275761032c565b61037e565b600554420360025402905060015481116103455761037d565b600054600160a060020a031660006001546000600060006000848787f161036857005b50505060006004819055506000546003819055505b5b5056000000000000000000000000000000000000000000000000000000000000004200000000000000000000000000000000000000000000000000000000000000231ca02bd8d1699b0fda2b486c176076f8039ae0bec6bb7237c328033f89efc352282da0415be60a0f371eac3b515ad6ee3c6a62d29d632e84194edb7087977df63afbf7c0",
                "transactions" : [
                    {
                        "data" : "0x60406103ca600439600451602451336000819055506000600481905550816001819055508060028190555042600581905550336003819055505050610381806100496000396000f30060003560e060020a9004806343d726d61461004257806391b7f5ed14610050578063d686f9ee14610061578063f5bade661461006f578063fcfff16f1461008057005b61004a6101de565b60006000f35b61005b6004356100bf565b60006000f35b610069610304565b60006000f35b61007a60043561008e565b60006000f35b6100886100f0565b60006000f35b600054600160a060020a031633600160a060020a031614156100af576100b4565b6100bc565b806001819055505b50565b600054600160a060020a031633600160a060020a031614156100e0576100e5565b6100ed565b806002819055505b50565b600054600160a060020a031633600160a060020a031614806101255750600354600160a060020a031633600160a060020a0316145b61012e57610161565b60016004819055507f59ebeb90bc63057b6515673c3ecf9438e5058bca0f92585014eced636878c9a560006000a16101dc565b60045460011480610173575060015434105b6101b85760016004819055507f59ebeb90bc63057b6515673c3ecf9438e5058bca0f92585014eced636878c9a560006000a142600581905550336003819055506101db565b33600160a060020a03166000346000600060006000848787f16101d757005b5050505b5b565b60006004546000146101ef576101f4565b610301565b600054600160a060020a031633600160a060020a031614801561022c5750600054600160a060020a0316600354600160a060020a0316145b61023557610242565b6000600481905550610301565b600354600160a060020a031633600160a060020a03161461026257610300565b600554420360025402905060015481116102c757600354600160a060020a0316600082600154036000600060006000848787f161029b57005b505050600054600160a060020a03166000826000600060006000848787f16102bf57005b5050506102ee565b600054600160a060020a031660006001546000600060006000848787f16102ea57005b5050505b60006004819055506000546003819055505b5b50565b6000600054600160a060020a031633600160a060020a031614156103275761032c565b61037e565b600554420360025402905060015481116103455761037d565b600054600160a060020a031660006001546000600060006000848787f161036857005b50505060006004819055506000546003819055505b5b505600000000000000000000000000000000000000000000000000000000000000420000000000000000000000000000000000000000000000000000000000000023",
                        "gasLimit" : "0x0927c0",
                        "gasPrice" : "0x01",
                        "nonce" : "0x00",
                        "r" : "0x2bd8d1699b0fda2b486c176076f8039ae0bec6bb7237c328033f89efc352282d",
                        "s" : "0x415be60a0f371eac3b515ad6ee3c6a62d29d632e84194edb7087977df63afbf7",
                        "to" : "",
                        "v" : "0x1c",
                        "value" : "0x0186a0"
                    }
                ],
                "uncleHeaders" : [
                ]
            }
        ],
        "genesisBlockHeader" : {
            "bloom" : "0x00000000000000000000000000000000000000000000000000000000000000000000000000000000000000000000000000000000000000000000000000000000000000000000000000000000000000000000000000000000000000000000000000000000000000000000000000000000000000000000000000000000000000000000000000000000000000000000000000000000000000000000000000000000000000000000000000000000000000000000000000000000000000000000000000000000000000000000000000000000000000000000000000000000000000000000000000000000000000000000000000000000000000000000000000000000",
            "coinbase" : "0x2adc25665018aa1fe0e6bc666dac8fc2697ff9ba",
            "difficulty" : "0x020000",
            "extraData" : "0x42",
            "gasLimit" : "0x0f4240",
            "gasUsed" : "0x00",
            "hash" : "0x38850b3326123466344e9b5eb824ecc05d158b66d7d10dda7103c9592a263458",
            "mixHash" : "0x56e81f171bcc55a6ff8345e692c0f86e5b48e01b996cadc001622fb5e363b421",
            "nonce" : "0x0102030405060708",
            "number" : "0x00",
            "parentHash" : "0x0000000000000000000000000000000000000000000000000000000000000000",
            "receiptTrie" : "0x56e81f171bcc55a6ff8345e692c0f86e5b48e01b996cadc001622fb5e363b421",
            "stateRoot" : "0xe1a3750b19ae018e0179d9e5f2ab65af3afe10b15e1754f85f8324b4ba38fe9f",
            "timestamp" : "0x03b6",
            "transactionsTrie" : "0x56e81f171bcc55a6ff8345e692c0f86e5b48e01b996cadc001622fb5e363b421",
            "uncleHash" : "0x1dcc4de8dec75d7aab85b567b6ccd41ad312451b948a7413f0a142fd40d49347"
        },
        "genesisRLP" : "0xf901faf901f5a00000000000000000000000000000000000000000000000000000000000000000a01dcc4de8dec75d7aab85b567b6ccd41ad312451b948a7413f0a142fd40d49347942adc25665018aa1fe0e6bc666dac8fc2697ff9baa0e1a3750b19ae018e0179d9e5f2ab65af3afe10b15e1754f85f8324b4ba38fe9fa056e81f171bcc55a6ff8345e692c0f86e5b48e01b996cadc001622fb5e363b421a056e81f171bcc55a6ff8345e692c0f86e5b48e01b996cadc001622fb5e363b421b90100000000000000000000000000000000000000000000000000000000000000000000000000000000000000000000000000000000000000000000000000000000000000000000000000000000000000000000000000000000000000000000000000000000000000000000000000000000000000000000000000000000000000000000000000000000000000000000000000000000000000000000000000000000000000000000000000000000000000000000000000000000000000000000000000000000000000000000000000000000000000000000000000000000000000000000000000000000000000000000000000000000000000000000000000000000008302000080830f4240808203b642a056e81f171bcc55a6ff8345e692c0f86e5b48e01b996cadc001622fb5e363b421880102030405060708c0c0",
        "lastblockhash" : "0x29c8f22a704a8f1f2a05f1047c132506802d7a78ac8eaec411e087d584e145b2",
        "network" : "Frontier",
        "postState" : {
            "0x2adc25665018aa1fe0e6bc666dac8fc2697ff9ba" : {
                "balance" : "0x4563918244fd27c0",
                "code" : "",
                "nonce" : "0x00",
                "storage" : {
                }
            },
            "0x6295ee1b4f6dd65047762f924ecd367c17eabf8f" : {
                "balance" : "0x0186a0",
                "code" : "0x60003560e060020a9004806343d726d61461004257806391b7f5ed14610050578063d686f9ee14610061578063f5bade661461006f578063fcfff16f1461008057005b61004a6101de565b60006000f35b61005b6004356100bf565b60006000f35b610069610304565b60006000f35b61007a60043561008e565b60006000f35b6100886100f0565b60006000f35b600054600160a060020a031633600160a060020a031614156100af576100b4565b6100bc565b806001819055505b50565b600054600160a060020a031633600160a060020a031614156100e0576100e5565b6100ed565b806002819055505b50565b600054600160a060020a031633600160a060020a031614806101255750600354600160a060020a031633600160a060020a0316145b61012e57610161565b60016004819055507f59ebeb90bc63057b6515673c3ecf9438e5058bca0f92585014eced636878c9a560006000a16101dc565b60045460011480610173575060015434105b6101b85760016004819055507f59ebeb90bc63057b6515673c3ecf9438e5058bca0f92585014eced636878c9a560006000a142600581905550336003819055506101db565b33600160a060020a03166000346000600060006000848787f16101d757005b5050505b5b565b60006004546000146101ef576101f4565b610301565b600054600160a060020a031633600160a060020a031614801561022c5750600054600160a060020a0316600354600160a060020a0316145b61023557610242565b6000600481905550610301565b600354600160a060020a031633600160a060020a03161461026257610300565b600554420360025402905060015481116102c757600354600160a060020a0316600082600154036000600060006000848787f161029b57005b505050600054600160a060020a03166000826000600060006000848787f16102bf57005b5050506102ee565b600054600160a060020a031660006001546000600060006000848787f16102ea57005b5050505b60006004819055506000546003819055505b5b50565b6000600054600160a060020a031633600160a060020a031614156103275761032c565b61037e565b600554420360025402905060015481116103455761037d565b600054600160a060020a031660006001546000600060006000848787f161036857005b50505060006004819055506000546003819055505b5b5056",
                "nonce" : "0x00",
                "storage" : {
                    "0x00" : "0xa94f5374fce5edbc8e2a8697c15331677e6ebf0b",
                    "0x01" : "0x42",
                    "0x02" : "0x23",
                    "0x03" : "0xa94f5374fce5edbc8e2a8697c15331677e6ebf0b",
                    "0x05" : "0x54c98c81"
                }
            },
            "0xa94f5374fce5edbc8e2a8697c15331677e6ebf0b" : {
                "balance" : "0x09184e697840",
                "code" : "",
                "nonce" : "0x01",
                "storage" : {
                }
            }
        },
        "pre" : {
            "0x6295ee1b4f6dd65047762f924ecd367c17eabf8f" : {
                "balance" : "0x0186a0",
                "code" : "0x60003560e060020a9004806343d726d61461004257806391b7f5ed14610050578063d686f9ee14610061578063f5bade661461006f578063fcfff16f1461008057005b61004a6101de565b60006000f35b61005b6004356100bf565b60006000f35b610069610304565b60006000f35b61007a60043561008e565b60006000f35b6100886100f0565b60006000f35b600054600160a060020a031633600160a060020a031614156100af576100b4565b6100bc565b806001819055505b50565b600054600160a060020a031633600160a060020a031614156100e0576100e5565b6100ed565b806002819055505b50565b600054600160a060020a031633600160a060020a031614806101255750600354600160a060020a031633600160a060020a0316145b61012e57610161565b60016004819055507f59ebeb90bc63057b6515673c3ecf9438e5058bca0f92585014eced636878c9a560006000a16101dc565b60045460011480610173575060015434105b6101b85760016004819055507f59ebeb90bc63057b6515673c3ecf9438e5058bca0f92585014eced636878c9a560006000a142600581905550336003819055506101db565b33600160a060020a03166000346000600060006000848787f16101d757005b5050505b5b565b60006004546000146101ef576101f4565b610301565b600054600160a060020a031633600160a060020a031614801561022c5750600054600160a060020a0316600354600160a060020a0316145b61023557610242565b6000600481905550610301565b600354600160a060020a031633600160a060020a03161461026257610300565b600554420360025402905060015481116102c757600354600160a060020a0316600082600154036000600060006000848787f161029b57005b505050600054600160a060020a03166000826000600060006000848787f16102bf57005b5050506102ee565b600054600160a060020a031660006001546000600060006000848787f16102ea57005b5050505b60006004819055506000546003819055505b5b50565b6000600054600160a060020a031633600160a060020a031614156103275761032c565b61037e565b600554420360025402905060015481116103455761037d565b600054600160a060020a031660006001546000600060006000848787f161036857005b50505060006004819055506000546003819055505b5b5056",
                "nonce" : "0x00",
                "storage" : {
                    "0x00" : "0xa94f5374fce5edbc8e2a8697c15331677e6ebf0b",
                    "0x01" : "0x42",
                    "0x02" : "0x23",
                    "0x03" : "0xa94f5374fce5edbc8e2a8697c15331677e6ebf0b",
                    "0x05" : "0x54c98c81"
                }
            },
            "0xa94f5374fce5edbc8e2a8697c15331677e6ebf0b" : {
                "balance" : "0x09184e72a000",
                "code" : "",
                "nonce" : "0x00",
                "storage" : {
                }
            }
        }
    }
}