{
    "createJS_NoCollision_d0g0v0_ConstantinopleFix" : {
        "_info" : {
            "comment" : "",
            "filling-rpc-server" : "Geth-1.9.3-unstable-d5bd3838-20190830",
            "filling-tool-version" : "retesteth-0.0.1+commit.222e3073.Linux.g++",
            "lllcversion" : "Version: 0.5.0-develop.2019.8.22+commit.9709dfe0.Linux.g++",
            "source" : "src/GeneralStateTestsFiller/stCallCreateCallCodeTest/createJS_NoCollisionFiller.json",
            "sourceHash" : "ac6783db00e46077270f8a652a6e0170b6ba79825686de094f9df3b530bbf73f"
        },
        "genesisBlockHeader" : {
            "bloom" : "0x00000000000000000000000000000000000000000000000000000000000000000000000000000000000000000000000000000000000000000000000000000000000000000000000000000000000000000000000000000000000000000000000000000000000000000000000000000000000000000000000000000000000000000000000000000000000000000000000000000000000000000000000000000000000000000000000000000000000000000000000000000000000000000000000000000000000000000000000000000000000000000000000000000000000000000000000000000000000000000000000000000000000000000000000000000000",
            "coinbase" : "0x2adc25665018aa1fe0e6bc666dac8fc2697ff9ba",
            "difficulty" : "0x20000",
            "extraData" : "0x00",
            "gasLimit" : "0xf4240",
            "gasUsed" : "0x0",
            "hash" : "0x5626a0d2f57845ae771c5e3df40a476e6bd2f5c365e772f9f039e87e33dbbb2e",
            "mixHash" : "0x0000000000000000000000000000000000000000000000000000000000000000",
            "nonce" : "0x0000000000000000",
            "number" : "0x0",
            "parentHash" : "0x0000000000000000000000000000000000000000000000000000000000000000",
            "receiptTrie" : "0x56e81f171bcc55a6ff8345e692c0f86e5b48e01b996cadc001622fb5e363b421",
            "stateRoot" : "0x7dba07d6b448a186e9612e5f737d1c909dce473e53199901a302c00646d523c1",
            "timestamp" : "0x0",
            "transactionsTrie" : "0x56e81f171bcc55a6ff8345e692c0f86e5b48e01b996cadc001622fb5e363b421",
            "uncleHash" : "0x1dcc4de8dec75d7aab85b567b6ccd41ad312451b948a7413f0a142fd40d49347"
        },
        "pre" : {
            "0xa94f5374fce5edbc8e2a8697c15331677e6ebf0b" : {
                "balance" : "0x09184e72a000",
                "code" : "0x",
                "nonce" : "0x00",
                "storage" : {
                }
            }
        },
        "postState" : {
            "0xa94f5374fce5edbc8e2a8697c15331677e6ebf0b" : {
                "code" : "0x",
                "nonce" : "0x01",
                "balance" : "0x09184e6b054c",
                "storage" : {
                }
            },
            "0x2adc25665018aa1fe0e6bc666dac8fc2697ff9ba" : {
                "code" : "0x",
                "nonce" : "0x00",
                "balance" : "0x1bc16d674ece1414",
                "storage" : {
                }
            },
            "0x6295ee1b4f6dd65047762f924ecd367c17eabf8f" : {
                "code" : "0x60003560e060020a9004806343d726d61461004257806391b7f5ed14610050578063d686f9ee14610061578063f5bade661461006f578063fcfff16f1461008057005b61004a6101de565b60006000f35b61005b6004356100bf565b60006000f35b610069610304565b60006000f35b61007a60043561008e565b60006000f35b6100886100f0565b60006000f35b600054600160a060020a031633600160a060020a031614156100af576100b4565b6100bc565b806001819055505b50565b600054600160a060020a031633600160a060020a031614156100e0576100e5565b6100ed565b806002819055505b50565b600054600160a060020a031633600160a060020a031614806101255750600354600160a060020a031633600160a060020a0316145b61012e57610161565b60016004819055507f59ebeb90bc63057b6515673c3ecf9438e5058bca0f92585014eced636878c9a560006000a16101dc565b60045460011480610173575060015434105b6101b85760016004819055507f59ebeb90bc63057b6515673c3ecf9438e5058bca0f92585014eced636878c9a560006000a142600581905550336003819055506101db565b33600160a060020a03166000346000600060006000848787f16101d757005b5050505b5b565b60006004546000146101ef576101f4565b610301565b600054600160a060020a031633600160a060020a031614801561022c5750600054600160a060020a0316600354600160a060020a0316145b61023557610242565b6000600481905550610301565b600354600160a060020a031633600160a060020a03161461026257610300565b600554420360025402905060015481116102c757600354600160a060020a0316600082600154036000600060006000848787f161029b57005b505050600054600160a060020a03166000826000600060006000848787f16102bf57005b5050506102ee565b600054600160a060020a031660006001546000600060006000848787f16102ea57005b5050505b60006004819055506000546003819055505b5b50565b6000600054600160a060020a031633600160a060020a031614156103275761032c565b61037e565b600554420360025402905060015481116103455761037d565b600054600160a060020a031660006001546000600060006000848787f161036857005b50505060006004819055506000546003819055505b5b5056",
                "nonce" : "0x01",
                "balance" : "0x0186a0",
                "storage" : {
                    "0x05" : "0x03e8",
                    "0x00" : "0xa94f5374fce5edbc8e2a8697c15331677e6ebf0b",
                    "0x02" : "0x23",
                    "0x01" : "0x42",
                    "0x03" : "0xa94f5374fce5edbc8e2a8697c15331677e6ebf0b"
                }
            }
        },
        "network" : "ConstantinopleFix",
        "sealEngine" : "NoProof",
        "lastblockhash" : "0x112aceea597fb6e3755cc54a04e59f8b4dac06bf032f6434644f8c0963398084",
        "genesisRLP" : "0xf901f8f901f3a00000000000000000000000000000000000000000000000000000000000000000a01dcc4de8dec75d7aab85b567b6ccd41ad312451b948a7413f0a142fd40d49347942adc25665018aa1fe0e6bc666dac8fc2697ff9baa07dba07d6b448a186e9612e5f737d1c909dce473e53199901a302c00646d523c1a056e81f171bcc55a6ff8345e692c0f86e5b48e01b996cadc001622fb5e363b421a056e81f171bcc55a6ff8345e692c0f86e5b48e01b996cadc001622fb5e363b421b90100000000000000000000000000000000000000000000000000000000000000000000000000000000000000000000000000000000000000000000000000000000000000000000000000000000000000000000000000000000000000000000000000000000000000000000000000000000000000000000000000000000000000000000000000000000000000000000000000000000000000000000000000000000000000000000000000000000000000000000000000000000000000000000000000000000000000000000000000000000000000000000000000000000000000000000000000000000000000000000000000000000000000000000000000000000008302000080830f4240808000a00000000000000000000000000000000000000000000000000000000000000000880000000000000000c0c0",
        "blocks" : [
            {
                "rlp" : "0xf9065df901f8a05626a0d2f57845ae771c5e3df40a476e6bd2f5c365e772f9f039e87e33dbbb2ea01dcc4de8dec75d7aab85b567b6ccd41ad312451b948a7413f0a142fd40d49347942adc25665018aa1fe0e6bc666dac8fc2697ff9baa044d079243573560193f6cfdd4b24637b03f9cac328f19844fc23481ea725150ea00f46cd87bb26b8752c4d35c5b54c80c860286c850aacadb5426d1c66d156156ea0691010ed0500e4d44ade320c2ab395deedd2a77d949805ac06e484b91758693cb90100000000000000000000000000000000000000000000000000000000000000000000000000000000000000000000000000000000000000000000000000000000000000000000000000000000000000000000000000000000000000000000000000000000000000000000000000000000000000000000000000000000000000000000000000000000000000000000000000000000000000000000000000000000000000000000000000000000000000000000000000000000000000000000000000000000000000000000000000000000000000000000000000000000000000000000000000000000000000000000000000000000000000000000000000000000008302000001830f460f830614148203e800a00000000000000000000000000000000000000000000000000000000000000000880000000000000000f9045ef9045b8001830927c080830186a0b9040a60406103ca600439600451602451336000819055506000600481905550816001819055508060028190555042600581905550336003819055505050610381806100496000396000f30060003560e060020a9004806343d726d61461004257806391b7f5ed14610050578063d686f9ee14610061578063f5bade661461006f578063fcfff16f1461008057005b61004a6101de565b60006000f35b61005b6004356100bf565b60006000f35b610069610304565b60006000f35b61007a60043561008e565b60006000f35b6100886100f0565b60006000f35b600054600160a060020a031633600160a060020a031614156100af576100b4565b6100bc565b806001819055505b50565b600054600160a060020a031633600160a060020a031614156100e0576100e5565b6100ed565b806002819055505b50565b600054600160a060020a031633600160a060020a031614806101255750600354600160a060020a031633600160a060020a0316145b61012e57610161565b60016004819055507f59ebeb90bc63057b6515673c3ecf9438e5058bca0f92585014eced636878c9a560006000a16101dc565b60045460011480610173575060015434105b6101b85760016004819055507f59ebeb90bc63057b6515673c3ecf9438e5058bca0f92585014eced636878c9a560006000a142600581905550336003819055506101db565b33600160a060020a03166000346000600060006000848787f16101d757005b5050505b5b565b60006004546000146101ef576101f4565b610301565b600054600160a060020a031633600160a060020a031614801561022c5750600054600160a060020a0316600354600160a060020a0316145b61023557610242565b6000600481905550610301565b600354600160a060020a031633600160a060020a03161461026257610300565b600554420360025402905060015481116102c757600354600160a060020a0316600082600154036000600060006000848787f161029b57005b505050600054600160a060020a03166000826000600060006000848787f16102bf57005b5050506102ee565b600054600160a060020a031660006001546000600060006000848787f16102ea57005b5050505b60006004819055506000546003819055505b5b50565b6000600054600160a060020a031633600160a060020a031614156103275761032c565b61037e565b600554420360025402905060015481116103455761037d565b600054600160a060020a031660006001546000600060006000848787f161036857005b50505060006004819055506000546003819055505b5b5056000000000000000000000000000000000000000000000000000000000000004200000000000000000000000000000000000000000000000000000000000000231ca02bd8d1699b0fda2b486c176076f8039ae0bec6bb7237c328033f89efc352282da0415be60a0f371eac3b515ad6ee3c6a62d29d632e84194edb7087977df63afbf7c0",
                "blockHeader" : {
                    "bloom" : "0x00000000000000000000000000000000000000000000000000000000000000000000000000000000000000000000000000000000000000000000000000000000000000000000000000000000000000000000000000000000000000000000000000000000000000000000000000000000000000000000000000000000000000000000000000000000000000000000000000000000000000000000000000000000000000000000000000000000000000000000000000000000000000000000000000000000000000000000000000000000000000000000000000000000000000000000000000000000000000000000000000000000000000000000000000000000",
                    "coinbase" : "0x2adc25665018aa1fe0e6bc666dac8fc2697ff9ba",
                    "difficulty" : "0x20000",
                    "extraData" : "0x00",
                    "gasLimit" : "0xf460f",
                    "gasUsed" : "0x61414",
                    "hash" : "0x112aceea597fb6e3755cc54a04e59f8b4dac06bf032f6434644f8c0963398084",
                    "mixHash" : "0x0000000000000000000000000000000000000000000000000000000000000000",
                    "nonce" : "0x0000000000000000",
                    "number" : "0x1",
                    "parentHash" : "0x5626a0d2f57845ae771c5e3df40a476e6bd2f5c365e772f9f039e87e33dbbb2e",
                    "receiptTrie" : "0x691010ed0500e4d44ade320c2ab395deedd2a77d949805ac06e484b91758693c",
                    "stateRoot" : "0x44d079243573560193f6cfdd4b24637b03f9cac328f19844fc23481ea725150e",
                    "timestamp" : "0x3e8",
                    "transactionsTrie" : "0x0f46cd87bb26b8752c4d35c5b54c80c860286c850aacadb5426d1c66d156156e",
                    "uncleHash" : "0x1dcc4de8dec75d7aab85b567b6ccd41ad312451b948a7413f0a142fd40d49347"
                },
                "transactions" : [
                    {
                        "data" : "0x60406103ca600439600451602451336000819055506000600481905550816001819055508060028190555042600581905550336003819055505050610381806100496000396000f30060003560e060020a9004806343d726d61461004257806391b7f5ed14610050578063d686f9ee14610061578063f5bade661461006f578063fcfff16f1461008057005b61004a6101de565b60006000f35b61005b6004356100bf565b60006000f35b610069610304565b60006000f35b61007a60043561008e565b60006000f35b6100886100f0565b60006000f35b600054600160a060020a031633600160a060020a031614156100af576100b4565b6100bc565b806001819055505b50565b600054600160a060020a031633600160a060020a031614156100e0576100e5565b6100ed565b806002819055505b50565b600054600160a060020a031633600160a060020a031614806101255750600354600160a060020a031633600160a060020a0316145b61012e57610161565b60016004819055507f59ebeb90bc63057b6515673c3ecf9438e5058bca0f92585014eced636878c9a560006000a16101dc565b60045460011480610173575060015434105b6101b85760016004819055507f59ebeb90bc63057b6515673c3ecf9438e5058bca0f92585014eced636878c9a560006000a142600581905550336003819055506101db565b33600160a060020a03166000346000600060006000848787f16101d757005b5050505b5b565b60006004546000146101ef576101f4565b610301565b600054600160a060020a031633600160a060020a031614801561022c5750600054600160a060020a0316600354600160a060020a0316145b61023557610242565b6000600481905550610301565b600354600160a060020a031633600160a060020a03161461026257610300565b600554420360025402905060015481116102c757600354600160a060020a0316600082600154036000600060006000848787f161029b57005b505050600054600160a060020a03166000826000600060006000848787f16102bf57005b5050506102ee565b600054600160a060020a031660006001546000600060006000848787f16102ea57005b5050505b60006004819055506000546003819055505b5b50565b6000600054600160a060020a031633600160a060020a031614156103275761032c565b61037e565b600554420360025402905060015481116103455761037d565b600054600160a060020a031660006001546000600060006000848787f161036857005b50505060006004819055506000546003819055505b5b505600000000000000000000000000000000000000000000000000000000000000420000000000000000000000000000000000000000000000000000000000000023",
                        "gasLimit" : "0x0927c0",
                        "gasPrice" : "0x01",
                        "nonce" : "0x00",
                        "secretKey" : "0x45a915e4d060149eb4365960e6a7a45f334393093061116b197e3240065ff2d8",
                        "to" : "",
                        "value" : "0x0186a0"
                    }
                ]
            }
        ]
    }
}