{
    "createRevert_Berlin" : {
        "_info" : {
            "comment" : "This test contains a create transaction that fails by REVERT in the init code.  The focus is on the status code in the transaction receipt (though not specified in the expect section).",
            "filling-rpc-server" : "evm version 1.10.16-unstable-0f893109-20220105",
            "filling-tool-version" : "retesteth-0.2.2-testinfo+commit.ce1746ec.Linux.g++",
            "generatedTestHash" : "5beda99608674f3393aadfbbefa450bb118bd80de2134555186d8f393307c417",
            "lllcversion" : "Version: 0.5.14-develop.2021.11.27+commit.401d5358.Linux.g++",
            "solidity" : "Version: 0.8.5+commit.a4f2e591.Linux.g++",
            "source" : "src/BlockchainTestsFiller/ValidBlocks/bcValidBlockTest/createRevertFiller.json",
            "sourceHash" : "5e9d5ccbced28adb1c5a1453eff90114d2079aef3ea969809a4a93edcb53e637"
        },
        "blocks" : [
            {
                "blockHeader" : {
                    "bloom" : "0x00000000000000000000000000000000000000000000000000000000000000000000000000000000000000000000000000000000000000000000000000000000000000000000000000000000000000000000000000000000000000000000000000000000000000000000000000000000000000000000000000000000000000000000000000000000000000000000000000000000000000000000000000000000000000000000000000000000000000000000000000000000000000000000000000000000000000000000000000000000000000000000000000000000000000000000000000000000000000000000000000000000000000000000000000000000",
                    "coinbase" : "0x8888f1f195afa192cfee860698584c030f4c9db1",
                    "difficulty" : "0x020000",
                    "extraData" : "0x42",
                    "gasLimit" : "0x2fefd8",
                    "gasUsed" : "0x00",
                    "hash" : "0xc1008db30edbc62de010ce88ee47a4e2d04042cc2d1c33a975d4c7172152d02b",
                    "mixHash" : "0x0000000000000000000000000000000000000000000000000000000000000000",
                    "nonce" : "0x0000000000000000",
                    "number" : "0x01",
                    "parentHash" : "0x68a61c4a05db4913009de5666753258eb9306157680dc5da0d93656550c9257e",
                    "receiptTrie" : "0x56e81f171bcc55a6ff8345e692c0f86e5b48e01b996cadc001622fb5e363b421",
                    "stateRoot" : "0x8d5347d9c606ba837a3b2ca960505233aec6b5f4718904bc0863814c0c32618c",
                    "timestamp" : "0x54c99069",
                    "transactionsTrie" : "0x56e81f171bcc55a6ff8345e692c0f86e5b48e01b996cadc001622fb5e363b421",
                    "uncleHash" : "0x1dcc4de8dec75d7aab85b567b6ccd41ad312451b948a7413f0a142fd40d49347"
                },
                "blocknumber" : "1",
                "chainname" : "default",
                "rlp" : "0xf901fcf901f7a068a61c4a05db4913009de5666753258eb9306157680dc5da0d93656550c9257ea01dcc4de8dec75d7aab85b567b6ccd41ad312451b948a7413f0a142fd40d49347948888f1f195afa192cfee860698584c030f4c9db1a08d5347d9c606ba837a3b2ca960505233aec6b5f4718904bc0863814c0c32618ca056e81f171bcc55a6ff8345e692c0f86e5b48e01b996cadc001622fb5e363b421a056e81f171bcc55a6ff8345e692c0f86e5b48e01b996cadc001622fb5e363b421b90100000000000000000000000000000000000000000000000000000000000000000000000000000000000000000000000000000000000000000000000000000000000000000000000000000000000000000000000000000000000000000000000000000000000000000000000000000000000000000000000000000000000000000000000000000000000000000000000000000000000000000000000000000000000000000000000000000000000000000000000000000000000000000000000000000000000000000000000000000000000000000000000000000000000000000000000000000000000000000000000000000000000000000000000000000000008302000001832fefd8808454c9906942a00000000000000000000000000000000000000000000000000000000000000000880000000000000000c0c0",
                "transactionSequence" : [
                    {
                        "exception" : "TR_IntrinsicGas",
                        "rawBytes" : "0xf852808203e882c350800a8560006000fd1ca0bd88ea3f8fbd5ca488ebea8dbfe0d8f1369223c152c2f020e596b39e62761225a026a6f6f2e877f1240409cdbc2660fde363aaf4bf6b2079b358953489678966db",
                        "valid" : "false"
                    }
                ],
                "transactions" : [
                ],
                "uncleHeaders" : [
                ]
            }
        ],
        "genesisBlockHeader" : {
            "bloom" : "0x00000000000000000000000000000000000000000000000000000000000000000000000000000000000000000000000000000000000000000000000000000000000000000000000000000000000000000000000000000000000000000000000000000000000000000000000000000000000000000000000000000000000000000000000000000000000000000000000000000000000000000000000000000000000000000000000000000000000000000000000000000000000000000000000000000000000000000000000000000000000000000000000000000000000000000000000000000000000000000000000000000000000000000000000000000000",
            "coinbase" : "0x8888f1f195afa192cfee860698584c030f4c9db1",
            "difficulty" : "0x020000",
            "extraData" : "0x42",
            "gasLimit" : "0x2fefd8",
            "gasUsed" : "0x00",
            "hash" : "0x68a61c4a05db4913009de5666753258eb9306157680dc5da0d93656550c9257e",
            "mixHash" : "0x0000000000000000000000000000000000000000000000000000000000000000",
            "nonce" : "0x0000000000000000",
            "number" : "0x00",
            "parentHash" : "0x0000000000000000000000000000000000000000000000000000000000000000",
            "receiptTrie" : "0x56e81f171bcc55a6ff8345e692c0f86e5b48e01b996cadc001622fb5e363b421",
            "stateRoot" : "0xcafd881ab193703b83816c49ff6c2bf6ba6f464a1be560c42106128c8dbc35e7",
            "timestamp" : "0x54c98c81",
            "transactionsTrie" : "0x56e81f171bcc55a6ff8345e692c0f86e5b48e01b996cadc001622fb5e363b421",
            "uncleHash" : "0x1dcc4de8dec75d7aab85b567b6ccd41ad312451b948a7413f0a142fd40d49347"
        },
        "genesisRLP" : "0xf901fcf901f7a00000000000000000000000000000000000000000000000000000000000000000a01dcc4de8dec75d7aab85b567b6ccd41ad312451b948a7413f0a142fd40d49347948888f1f195afa192cfee860698584c030f4c9db1a0cafd881ab193703b83816c49ff6c2bf6ba6f464a1be560c42106128c8dbc35e7a056e81f171bcc55a6ff8345e692c0f86e5b48e01b996cadc001622fb5e363b421a056e81f171bcc55a6ff8345e692c0f86e5b48e01b996cadc001622fb5e363b421b90100000000000000000000000000000000000000000000000000000000000000000000000000000000000000000000000000000000000000000000000000000000000000000000000000000000000000000000000000000000000000000000000000000000000000000000000000000000000000000000000000000000000000000000000000000000000000000000000000000000000000000000000000000000000000000000000000000000000000000000000000000000000000000000000000000000000000000000000000000000000000000000000000000000000000000000000000000000000000000000000000000000000000000000000000000000008302000080832fefd8808454c98c8142a00000000000000000000000000000000000000000000000000000000000000000880000000000000000c0c0",
        "lastblockhash" : "0xc1008db30edbc62de010ce88ee47a4e2d04042cc2d1c33a975d4c7172152d02b",
        "network" : "Berlin",
        "postState" : {
            "0x8888f1f195afa192cfee860698584c030f4c9db1" : {
                "balance" : "0x1bc16d674ec80000",
                "code" : "0x",
                "nonce" : "0x00",
                "storage" : {
                }
            },
            "0xa94f5374fce5edbc8e2a8697c15331677e6ebf0b" : {
                "balance" : "0x02540be400",
                "code" : "0x",
                "nonce" : "0x00",
                "storage" : {
                }
            }
        },
        "pre" : {
            "0xa94f5374fce5edbc8e2a8697c15331677e6ebf0b" : {
                "balance" : "0x02540be400",
                "code" : "0x",
                "nonce" : "0x00",
                "storage" : {
                }
            }
        },
        "sealEngine" : "NoProof"
    },
    "createRevert_Istanbul" : {
        "_info" : {
            "comment" : "This test contains a create transaction that fails by REVERT in the init code.  The focus is on the status code in the transaction receipt (though not specified in the expect section).",
            "filling-rpc-server" : "evm version 1.10.16-unstable-0f893109-20220105",
            "filling-tool-version" : "retesteth-0.2.2-testinfo+commit.ce1746ec.Linux.g++",
            "generatedTestHash" : "83774ad4ed440388e4d85a2915c3fa53d7884270e7aebc0f6c781702d4c2f596",
            "lllcversion" : "Version: 0.5.14-develop.2021.11.27+commit.401d5358.Linux.g++",
            "solidity" : "Version: 0.8.5+commit.a4f2e591.Linux.g++",
            "source" : "src/BlockchainTestsFiller/ValidBlocks/bcValidBlockTest/createRevertFiller.json",
            "sourceHash" : "5e9d5ccbced28adb1c5a1453eff90114d2079aef3ea969809a4a93edcb53e637"
        },
        "blocks" : [
            {
                "blockHeader" : {
                    "bloom" : "0x00000000000000000000000000000000000000000000000000000000000000000000000000000000000000000000000000000000000000000000000000000000000000000000000000000000000000000000000000000000000000000000000000000000000000000000000000000000000000000000000000000000000000000000000000000000000000000000000000000000000000000000000000000000000000000000000000000000000000000000000000000000000000000000000000000000000000000000000000000000000000000000000000000000000000000000000000000000000000000000000000000000000000000000000000000000",
                    "coinbase" : "0x8888f1f195afa192cfee860698584c030f4c9db1",
                    "difficulty" : "0x020000",
                    "extraData" : "0x42",
                    "gasLimit" : "0x2fefd8",
                    "gasUsed" : "0x00",
                    "hash" : "0xc1008db30edbc62de010ce88ee47a4e2d04042cc2d1c33a975d4c7172152d02b",
                    "mixHash" : "0x0000000000000000000000000000000000000000000000000000000000000000",
                    "nonce" : "0x0000000000000000",
                    "number" : "0x01",
                    "parentHash" : "0x68a61c4a05db4913009de5666753258eb9306157680dc5da0d93656550c9257e",
                    "receiptTrie" : "0x56e81f171bcc55a6ff8345e692c0f86e5b48e01b996cadc001622fb5e363b421",
                    "stateRoot" : "0x8d5347d9c606ba837a3b2ca960505233aec6b5f4718904bc0863814c0c32618c",
                    "timestamp" : "0x54c99069",
                    "transactionsTrie" : "0x56e81f171bcc55a6ff8345e692c0f86e5b48e01b996cadc001622fb5e363b421",
                    "uncleHash" : "0x1dcc4de8dec75d7aab85b567b6ccd41ad312451b948a7413f0a142fd40d49347"
                },
                "blocknumber" : "1",
                "chainname" : "default",
                "rlp" : "0xf901fcf901f7a068a61c4a05db4913009de5666753258eb9306157680dc5da0d93656550c9257ea01dcc4de8dec75d7aab85b567b6ccd41ad312451b948a7413f0a142fd40d49347948888f1f195afa192cfee860698584c030f4c9db1a08d5347d9c606ba837a3b2ca960505233aec6b5f4718904bc0863814c0c32618ca056e81f171bcc55a6ff8345e692c0f86e5b48e01b996cadc001622fb5e363b421a056e81f171bcc55a6ff8345e692c0f86e5b48e01b996cadc001622fb5e363b421b90100000000000000000000000000000000000000000000000000000000000000000000000000000000000000000000000000000000000000000000000000000000000000000000000000000000000000000000000000000000000000000000000000000000000000000000000000000000000000000000000000000000000000000000000000000000000000000000000000000000000000000000000000000000000000000000000000000000000000000000000000000000000000000000000000000000000000000000000000000000000000000000000000000000000000000000000000000000000000000000000000000000000000000000000000000000008302000001832fefd8808454c9906942a00000000000000000000000000000000000000000000000000000000000000000880000000000000000c0c0",
                "transactionSequence" : [
                    {
                        "exception" : "TR_IntrinsicGas",
                        "rawBytes" : "0xf852808203e882c350800a8560006000fd1ca0bd88ea3f8fbd5ca488ebea8dbfe0d8f1369223c152c2f020e596b39e62761225a026a6f6f2e877f1240409cdbc2660fde363aaf4bf6b2079b358953489678966db",
                        "valid" : "false"
                    }
                ],
                "transactions" : [
                ],
                "uncleHeaders" : [
                ]
            }
        ],
        "genesisBlockHeader" : {
            "bloom" : "0x00000000000000000000000000000000000000000000000000000000000000000000000000000000000000000000000000000000000000000000000000000000000000000000000000000000000000000000000000000000000000000000000000000000000000000000000000000000000000000000000000000000000000000000000000000000000000000000000000000000000000000000000000000000000000000000000000000000000000000000000000000000000000000000000000000000000000000000000000000000000000000000000000000000000000000000000000000000000000000000000000000000000000000000000000000000",
            "coinbase" : "0x8888f1f195afa192cfee860698584c030f4c9db1",
            "difficulty" : "0x020000",
            "extraData" : "0x42",
            "gasLimit" : "0x2fefd8",
            "gasUsed" : "0x00",
            "hash" : "0x68a61c4a05db4913009de5666753258eb9306157680dc5da0d93656550c9257e",
            "mixHash" : "0x0000000000000000000000000000000000000000000000000000000000000000",
            "nonce" : "0x0000000000000000",
            "number" : "0x00",
            "parentHash" : "0x0000000000000000000000000000000000000000000000000000000000000000",
            "receiptTrie" : "0x56e81f171bcc55a6ff8345e692c0f86e5b48e01b996cadc001622fb5e363b421",
            "stateRoot" : "0xcafd881ab193703b83816c49ff6c2bf6ba6f464a1be560c42106128c8dbc35e7",
            "timestamp" : "0x54c98c81",
            "transactionsTrie" : "0x56e81f171bcc55a6ff8345e692c0f86e5b48e01b996cadc001622fb5e363b421",
            "uncleHash" : "0x1dcc4de8dec75d7aab85b567b6ccd41ad312451b948a7413f0a142fd40d49347"
        },
        "genesisRLP" : "0xf901fcf901f7a00000000000000000000000000000000000000000000000000000000000000000a01dcc4de8dec75d7aab85b567b6ccd41ad312451b948a7413f0a142fd40d49347948888f1f195afa192cfee860698584c030f4c9db1a0cafd881ab193703b83816c49ff6c2bf6ba6f464a1be560c42106128c8dbc35e7a056e81f171bcc55a6ff8345e692c0f86e5b48e01b996cadc001622fb5e363b421a056e81f171bcc55a6ff8345e692c0f86e5b48e01b996cadc001622fb5e363b421b90100000000000000000000000000000000000000000000000000000000000000000000000000000000000000000000000000000000000000000000000000000000000000000000000000000000000000000000000000000000000000000000000000000000000000000000000000000000000000000000000000000000000000000000000000000000000000000000000000000000000000000000000000000000000000000000000000000000000000000000000000000000000000000000000000000000000000000000000000000000000000000000000000000000000000000000000000000000000000000000000000000000000000000000000000000000008302000080832fefd8808454c98c8142a00000000000000000000000000000000000000000000000000000000000000000880000000000000000c0c0",
        "lastblockhash" : "0xc1008db30edbc62de010ce88ee47a4e2d04042cc2d1c33a975d4c7172152d02b",
        "network" : "Istanbul",
        "postState" : {
            "0x8888f1f195afa192cfee860698584c030f4c9db1" : {
                "balance" : "0x1bc16d674ec80000",
                "code" : "0x",
                "nonce" : "0x00",
                "storage" : {
                }
            },
            "0xa94f5374fce5edbc8e2a8697c15331677e6ebf0b" : {
                "balance" : "0x02540be400",
                "code" : "0x",
                "nonce" : "0x00",
                "storage" : {
                }
            }
        },
        "pre" : {
            "0xa94f5374fce5edbc8e2a8697c15331677e6ebf0b" : {
                "balance" : "0x02540be400",
                "code" : "0x",
                "nonce" : "0x00",
                "storage" : {
                }
            }
        },
        "sealEngine" : "NoProof"
    },
    "createRevert_London" : {
        "_info" : {
            "comment" : "This test contains a create transaction that fails by REVERT in the init code.  The focus is on the status code in the transaction receipt (though not specified in the expect section).",
            "filling-rpc-server" : "evm version 1.10.16-unstable-0f893109-20220105",
            "filling-tool-version" : "retesteth-0.2.2-testinfo+commit.ce1746ec.Linux.g++",
            "generatedTestHash" : "0ee998b9216d2b8587013e27e312e6052980327f7ede708f909a3692323016ce",
            "lllcversion" : "Version: 0.5.14-develop.2021.11.27+commit.401d5358.Linux.g++",
            "solidity" : "Version: 0.8.5+commit.a4f2e591.Linux.g++",
            "source" : "src/BlockchainTestsFiller/ValidBlocks/bcValidBlockTest/createRevertFiller.json",
            "sourceHash" : "5e9d5ccbced28adb1c5a1453eff90114d2079aef3ea969809a4a93edcb53e637"
        },
        "blocks" : [
            {
                "blockHeader" : {
                    "baseFeePerGas" : "0x0e",
                    "bloom" : "0x00000000000000000000000000000000000000000000000000000000000000000000000000000000000000000000000000000000000000000000000000000000000000000000000000000000000000000000000000000000000000000000000000000000000000000000000000000000000000000000000000000000000000000000000000000000000000000000000000000000000000000000000000000000000000000000000000000000000000000000000000000000000000000000000000000000000000000000000000000000000000000000000000000000000000000000000000000000000000000000000000000000000000000000000000000000",
                    "coinbase" : "0x8888f1f195afa192cfee860698584c030f4c9db1",
                    "difficulty" : "0x020000",
                    "extraData" : "0x42",
                    "gasLimit" : "0x2fefd8",
                    "gasUsed" : "0x00",
                    "hash" : "0x140c2ada7a1a34e470621402fe6b03195b302de1d9216c3b6dfefba42e499a3a",
                    "mixHash" : "0x0000000000000000000000000000000000000000000000000000000000000000",
                    "nonce" : "0x0000000000000000",
                    "number" : "0x01",
                    "parentHash" : "0x543278f34ba6185af611e888394c9317c36db5674d406fac82472b788bf19284",
                    "receiptTrie" : "0x56e81f171bcc55a6ff8345e692c0f86e5b48e01b996cadc001622fb5e363b421",
                    "stateRoot" : "0x8d5347d9c606ba837a3b2ca960505233aec6b5f4718904bc0863814c0c32618c",
                    "timestamp" : "0x54c99069",
                    "transactionsTrie" : "0x56e81f171bcc55a6ff8345e692c0f86e5b48e01b996cadc001622fb5e363b421",
                    "uncleHash" : "0x1dcc4de8dec75d7aab85b567b6ccd41ad312451b948a7413f0a142fd40d49347"
                },
                "blocknumber" : "1",
                "chainname" : "default",
                "rlp" : "0xf901fdf901f8a0543278f34ba6185af611e888394c9317c36db5674d406fac82472b788bf19284a01dcc4de8dec75d7aab85b567b6ccd41ad312451b948a7413f0a142fd40d49347948888f1f195afa192cfee860698584c030f4c9db1a08d5347d9c606ba837a3b2ca960505233aec6b5f4718904bc0863814c0c32618ca056e81f171bcc55a6ff8345e692c0f86e5b48e01b996cadc001622fb5e363b421a056e81f171bcc55a6ff8345e692c0f86e5b48e01b996cadc001622fb5e363b421b90100000000000000000000000000000000000000000000000000000000000000000000000000000000000000000000000000000000000000000000000000000000000000000000000000000000000000000000000000000000000000000000000000000000000000000000000000000000000000000000000000000000000000000000000000000000000000000000000000000000000000000000000000000000000000000000000000000000000000000000000000000000000000000000000000000000000000000000000000000000000000000000000000000000000000000000000000000000000000000000000000000000000000000000000000000000008302000001832fefd8808454c9906942a000000000000000000000000000000000000000000000000000000000000000008800000000000000000ec0c0",
                "transactionSequence" : [
                    {
                        "exception" : "TR_IntrinsicGas",
                        "rawBytes" : "0xf852808203e882c350800a8560006000fd1ca0bd88ea3f8fbd5ca488ebea8dbfe0d8f1369223c152c2f020e596b39e62761225a026a6f6f2e877f1240409cdbc2660fde363aaf4bf6b2079b358953489678966db",
                        "valid" : "false"
                    }
                ],
                "transactions" : [
                ],
                "uncleHeaders" : [
                ]
            }
        ],
        "genesisBlockHeader" : {
            "baseFeePerGas" : "0x10",
            "bloom" : "0x00000000000000000000000000000000000000000000000000000000000000000000000000000000000000000000000000000000000000000000000000000000000000000000000000000000000000000000000000000000000000000000000000000000000000000000000000000000000000000000000000000000000000000000000000000000000000000000000000000000000000000000000000000000000000000000000000000000000000000000000000000000000000000000000000000000000000000000000000000000000000000000000000000000000000000000000000000000000000000000000000000000000000000000000000000000",
            "coinbase" : "0x8888f1f195afa192cfee860698584c030f4c9db1",
            "difficulty" : "0x020000",
            "extraData" : "0x42",
            "gasLimit" : "0x2fefd8",
            "gasUsed" : "0x00",
            "hash" : "0x543278f34ba6185af611e888394c9317c36db5674d406fac82472b788bf19284",
            "mixHash" : "0x0000000000000000000000000000000000000000000000000000000000000000",
            "nonce" : "0x0000000000000000",
            "number" : "0x00",
            "parentHash" : "0x0000000000000000000000000000000000000000000000000000000000000000",
            "receiptTrie" : "0x56e81f171bcc55a6ff8345e692c0f86e5b48e01b996cadc001622fb5e363b421",
            "stateRoot" : "0xcafd881ab193703b83816c49ff6c2bf6ba6f464a1be560c42106128c8dbc35e7",
            "timestamp" : "0x54c98c81",
            "transactionsTrie" : "0x56e81f171bcc55a6ff8345e692c0f86e5b48e01b996cadc001622fb5e363b421",
            "uncleHash" : "0x1dcc4de8dec75d7aab85b567b6ccd41ad312451b948a7413f0a142fd40d49347"
        },
        "genesisRLP" : "0xf901fdf901f8a00000000000000000000000000000000000000000000000000000000000000000a01dcc4de8dec75d7aab85b567b6ccd41ad312451b948a7413f0a142fd40d49347948888f1f195afa192cfee860698584c030f4c9db1a0cafd881ab193703b83816c49ff6c2bf6ba6f464a1be560c42106128c8dbc35e7a056e81f171bcc55a6ff8345e692c0f86e5b48e01b996cadc001622fb5e363b421a056e81f171bcc55a6ff8345e692c0f86e5b48e01b996cadc001622fb5e363b421b90100000000000000000000000000000000000000000000000000000000000000000000000000000000000000000000000000000000000000000000000000000000000000000000000000000000000000000000000000000000000000000000000000000000000000000000000000000000000000000000000000000000000000000000000000000000000000000000000000000000000000000000000000000000000000000000000000000000000000000000000000000000000000000000000000000000000000000000000000000000000000000000000000000000000000000000000000000000000000000000000000000000000000000000000000000000008302000080832fefd8808454c98c8142a0000000000000000000000000000000000000000000000000000000000000000088000000000000000010c0c0",
        "lastblockhash" : "0x140c2ada7a1a34e470621402fe6b03195b302de1d9216c3b6dfefba42e499a3a",
        "network" : "London",
        "postState" : {
            "0x8888f1f195afa192cfee860698584c030f4c9db1" : {
                "balance" : "0x1bc16d674ec80000",
                "code" : "0x",
                "nonce" : "0x00",
                "storage" : {
                }
            },
            "0xa94f5374fce5edbc8e2a8697c15331677e6ebf0b" : {
                "balance" : "0x02540be400",
                "code" : "0x",
                "nonce" : "0x00",
                "storage" : {
                }
            }
        },
        "pre" : {
            "0xa94f5374fce5edbc8e2a8697c15331677e6ebf0b" : {
                "balance" : "0x02540be400",
                "code" : "0x",
                "nonce" : "0x00",
                "storage" : {
                }
            }
        },
        "sealEngine" : "NoProof"
    }
}