{
    "dataTx2_Cancun" : {
        "_info" : {
            "comment" : "",
            "filling-rpc-server" : "evm version 1.14.4-unstable-3d8028a6-20240513",
            "filling-tool-version" : "retesteth-0.3.2-cancun+commit.cae6bc33.Linux.g++",
            "generatedTestHash" : "da3dd3a5c04e7ab05972cfb457341bde047f8ae23bc63217c6e94fd5c3b81eec",
            "lllcversion" : "Version: 0.5.14-develop.2023.7.11+commit.c58ab2c6.mod.Linux.g++",
            "solidity" : "Version: 0.8.21+commit.d9974bed.Linux.g++",
            "source" : "src/BlockchainTestsFiller/ValidBlocks/bcValidBlockTest/dataTx2Filler.json",
            "sourceHash" : "773ebd38827b680019cd7fd44628a25240bf080f74d8661a223a0a93dbbefe33"
        },
        "blocks" : [
            {
                "blockHeader" : {
                    "baseFeePerGas" : "0x0e",
                    "blobGasUsed" : "0x00",
                    "bloom" : "0x00000000000000000000000000000000000000000000000000000000000000000000000000000000000000000000000000000000000000000000000000000000000000000000000000000000000000000000000000000000000000000000000000000000000000000000000000000000000000000000000000000000000000000000000000000000000000000000000000000000000000000000000000000000000000000000000000000000000000000000000000000000000000000000000000000000000000000000000000000000000000000000000000000000000000000000000000000000000000000000000000000000000000000000000000000000",
                    "coinbase" : "0x8888f1f195afa192cfee860698584c030f4c9db1",
                    "difficulty" : "0x00",
                    "excessBlobGas" : "0x00",
                    "extraData" : "0x42",
                    "gasLimit" : "0x2fefd8",
                    "gasUsed" : "0x0186a0",
                    "hash" : "0x23e6c9e6a033e143f6ba82b6585d5b444fd431689c30ffe556853164723fc40a",
                    "mixHash" : "0x0000000000000000000000000000000000000000000000000000000000020000",
                    "nonce" : "0x0000000000000000",
                    "number" : "0x01",
                    "parentBeaconBlockRoot" : "0x0000000000000000000000000000000000000000000000000000000000000000",
                    "parentHash" : "0x8cbc69e33bd85b1f8d7bc6cae8f1d4502b74cfd0cd5f24a558c0d0c257c69daa",
                    "receiptTrie" : "0x777f1c1c378807634128348e4f0eeca6a0e7f516ea411690ca04266323f671a4",
                    "stateRoot" : "0x2fc2094e7e7f7b5e1f84f504f38ee73e84e3a3ee9a44f0b38a1d32abe02119a6",
                    "timestamp" : "0x54c99069",
                    "transactionsTrie" : "0x02c56753744d1f68550540c286b9b349d3cfca065bf1a087da62ac06057ff7f8",
                    "uncleHash" : "0x1dcc4de8dec75d7aab85b567b6ccd41ad312451b948a7413f0a142fd40d49347",
                    "withdrawalsRoot" : "0x56e81f171bcc55a6ff8345e692c0f86e5b48e01b996cadc001622fb5e363b421"
                },
                "blocknumber" : "1",
                "chainname" : "default",
                "rlp" : "0xf90443f9023ca08cbc69e33bd85b1f8d7bc6cae8f1d4502b74cfd0cd5f24a558c0d0c257c69daaa01dcc4de8dec75d7aab85b567b6ccd41ad312451b948a7413f0a142fd40d49347948888f1f195afa192cfee860698584c030f4c9db1a02fc2094e7e7f7b5e1f84f504f38ee73e84e3a3ee9a44f0b38a1d32abe02119a6a002c56753744d1f68550540c286b9b349d3cfca065bf1a087da62ac06057ff7f8a0777f1c1c378807634128348e4f0eeca6a0e7f516ea411690ca04266323f671a4b90100000000000000000000000000000000000000000000000000000000000000000000000000000000000000000000000000000000000000000000000000000000000000000000000000000000000000000000000000000000000000000000000000000000000000000000000000000000000000000000000000000000000000000000000000000000000000000000000000000000000000000000000000000000000000000000000000000000000000000000000000000000000000000000000000000000000000000000000000000000000000000000000000000000000000000000000000000000000000000000000000000000000000000000000000000000008001832fefd8830186a08454c9906942a000000000000000000000000000000000000000000000000000000000000200008800000000000000000ea056e81f171bcc55a6ff8345e692c0f86e5b48e01b996cadc001622fb5e363b4218080a00000000000000000000000000000000000000000000000000000000000000000f901fff901fc8032830186a08080b901ae60056013565b6101918061001d6000396000f35b3360008190555056006001600060e060020a6000350480630a874df61461003a57806341c0e1b514610058578063a02b161e14610066578063dbbdf0831461007757005b610045600435610149565b80600160a060020a031660005260206000f35b610060610161565b60006000f35b6100716004356100d4565b60006000f35b61008560043560243561008b565b60006000f35b600054600160a060020a031632600160a060020a031614156100ac576100b1565b6100d0565b8060018360005260205260406000208190555081600060005260206000a15b5050565b600054600160a060020a031633600160a060020a031614158015610118575033600160a060020a0316600182600052602052604060002054600160a060020a031614155b61012157610126565b610146565b600060018260005260205260406000208190555080600060005260206000a15b50565b60006001826000526020526040600020549050919050565b600054600160a060020a031633600160a060020a0316146101815761018f565b600054600160a060020a0316ff5b561ba0468a915f087692bb9be503831a3dfef2cf9c8dee26deb40ff2ec99e8d22665aea05cedae0810c3851ecd1004bfdbfe6ddc7753c2d665993bb01ce75af7857b13dcc0c0",
                "transactions" : [
                    {
                        "data" : "0x60056013565b6101918061001d6000396000f35b3360008190555056006001600060e060020a6000350480630a874df61461003a57806341c0e1b514610058578063a02b161e14610066578063dbbdf0831461007757005b610045600435610149565b80600160a060020a031660005260206000f35b610060610161565b60006000f35b6100716004356100d4565b60006000f35b61008560043560243561008b565b60006000f35b600054600160a060020a031632600160a060020a031614156100ac576100b1565b6100d0565b8060018360005260205260406000208190555081600060005260206000a15b5050565b600054600160a060020a031633600160a060020a031614158015610118575033600160a060020a0316600182600052602052604060002054600160a060020a031614155b61012157610126565b610146565b600060018260005260205260406000208190555080600060005260206000a15b50565b60006001826000526020526040600020549050919050565b600054600160a060020a031633600160a060020a0316146101815761018f565b600054600160a060020a0316ff5b56",
                        "gasLimit" : "0x0186a0",
                        "gasPrice" : "0x32",
                        "nonce" : "0x00",
                        "r" : "0x468a915f087692bb9be503831a3dfef2cf9c8dee26deb40ff2ec99e8d22665ae",
                        "s" : "0x5cedae0810c3851ecd1004bfdbfe6ddc7753c2d665993bb01ce75af7857b13dc",
                        "sender" : "0xa94f5374fce5edbc8e2a8697c15331677e6ebf0b",
                        "to" : "",
                        "v" : "0x1b",
                        "value" : "0x00"
                    }
                ],
                "uncleHeaders" : [
                ],
                "withdrawals" : [
                ]
            }
        ],
        "genesisBlockHeader" : {
            "baseFeePerGas" : "0x10",
            "blobGasUsed" : "0x00",
            "bloom" : "0x00000000000000000000000000000000000000000000000000000000000000000000000000000000000000000000000000000000000000000000000000000000000000000000000000000000000000000000000000000000000000000000000000000000000000000000000000000000000000000000000000000000000000000000000000000000000000000000000000000000000000000000000000000000000000000000000000000000000000000000000000000000000000000000000000000000000000000000000000000000000000000000000000000000000000000000000000000000000000000000000000000000000000000000000000000000",
            "coinbase" : "0x8888f1f195afa192cfee860698584c030f4c9db1",
            "difficulty" : "0x00",
            "excessBlobGas" : "0x00",
            "extraData" : "0x42",
            "gasLimit" : "0x2fefd8",
            "gasUsed" : "0x00",
            "hash" : "0x8cbc69e33bd85b1f8d7bc6cae8f1d4502b74cfd0cd5f24a558c0d0c257c69daa",
            "mixHash" : "0x0000000000000000000000000000000000000000000000000000000000020000",
            "nonce" : "0x0000000000000000",
            "number" : "0x00",
            "parentBeaconBlockRoot" : "0x0000000000000000000000000000000000000000000000000000000000000000",
            "parentHash" : "0x0000000000000000000000000000000000000000000000000000000000000000",
            "receiptTrie" : "0x56e81f171bcc55a6ff8345e692c0f86e5b48e01b996cadc001622fb5e363b421",
            "stateRoot" : "0x53c881003b15376a1d1d235531d20bfccc8f1bdce9caeb6a6c5ac64a9c9b1e93",
            "timestamp" : "0x54c98c81",
            "transactionsTrie" : "0x56e81f171bcc55a6ff8345e692c0f86e5b48e01b996cadc001622fb5e363b421",
            "uncleHash" : "0x1dcc4de8dec75d7aab85b567b6ccd41ad312451b948a7413f0a142fd40d49347",
            "withdrawalsRoot" : "0x56e81f171bcc55a6ff8345e692c0f86e5b48e01b996cadc001622fb5e363b421"
        },
        "genesisRLP" : "0xf9023ff90239a00000000000000000000000000000000000000000000000000000000000000000a01dcc4de8dec75d7aab85b567b6ccd41ad312451b948a7413f0a142fd40d49347948888f1f195afa192cfee860698584c030f4c9db1a053c881003b15376a1d1d235531d20bfccc8f1bdce9caeb6a6c5ac64a9c9b1e93a056e81f171bcc55a6ff8345e692c0f86e5b48e01b996cadc001622fb5e363b421a056e81f171bcc55a6ff8345e692c0f86e5b48e01b996cadc001622fb5e363b421b90100000000000000000000000000000000000000000000000000000000000000000000000000000000000000000000000000000000000000000000000000000000000000000000000000000000000000000000000000000000000000000000000000000000000000000000000000000000000000000000000000000000000000000000000000000000000000000000000000000000000000000000000000000000000000000000000000000000000000000000000000000000000000000000000000000000000000000000000000000000000000000000000000000000000000000000000000000000000000000000000000000000000000000000000000000000008080832fefd8808454c98c8142a0000000000000000000000000000000000000000000000000000000000002000088000000000000000010a056e81f171bcc55a6ff8345e692c0f86e5b48e01b996cadc001622fb5e363b4218080a00000000000000000000000000000000000000000000000000000000000000000c0c0c0",
        "lastblockhash" : "0x23e6c9e6a033e143f6ba82b6585d5b444fd431689c30ffe556853164723fc40a",
        "network" : "Cancun",
        "postState" : {
            "0x000f3df6d732807ef1319fb7b8bb8522d0beac02" : {
                "balance" : "0x00",
                "code" : "0x3373fffffffffffffffffffffffffffffffffffffffe14604d57602036146024575f5ffd5b5f35801560495762001fff810690815414603c575f5ffd5b62001fff01545f5260205ff35b5f5ffd5b62001fff42064281555f359062001fff015500",
                "nonce" : "0x01",
                "storage" : {
                    "0x12e2" : "0x54c98c81",
                    "0x16ca" : "0x54c99069"
                }
            },
            "0x8888f1f195afa192cfee860698584c030f4c9db1" : {
                "balance" : "0x36ee80",
                "code" : "0x",
                "nonce" : "0x00",
                "storage" : {
                }
            },
            "0xa94f5374fce5edbc8e2a8697c15331677e6ebf0b" : {
                "balance" : "0x0253bf98c0",
                "code" : "0x",
                "nonce" : "0x01",
                "storage" : {
                }
            }
        },
        "pre" : {
            "0x000f3df6d732807ef1319fb7b8bb8522d0beac02" : {
                "balance" : "0x00",
                "code" : "0x3373fffffffffffffffffffffffffffffffffffffffe14604d57602036146024575f5ffd5b5f35801560495762001fff810690815414603c575f5ffd5b62001fff01545f5260205ff35b5f5ffd5b62001fff42064281555f359062001fff015500",
                "nonce" : "0x01",
                "storage" : {
                    "0x12e2" : "0x54c98c81"
                }
            },
            "0xa94f5374fce5edbc8e2a8697c15331677e6ebf0b" : {
                "balance" : "0x02540be400",
                "code" : "0x",
                "nonce" : "0x00",
                "storage" : {
                }
            }
        },
        "sealEngine" : "NoProof"
    }
}