{
    "DelegatecallToPrecompileFromCalledContract_d0g0v0_Berlin" : {
        "_info" : {
            "comment" : "Contract C calls contract B.\nContract B staticcalls contract A.\nContract A delegatecalls precompiled contracts.\nIt should execute successfully for each precompiled contract.\n",
            "filling-rpc-server" : "evm version 1.9.23-unstable-0efc69a9-20201022",
            "filling-tool-version" : "retesteth-0.0.9-berlin+commit.2f30f0ea.Linux.g++",
            "lllcversion" : "Version: 0.5.14-develop.2020.6.22+commit.9189ad7a.Linux.g++",
            "source" : "src/GeneralStateTestsFiller/stStaticFlagEnabled/DelegatecallToPrecompileFromCalledContractFiller.yml",
            "sourceHash" : "c7a804bd33e90d1348ef67017e909e595dbfebda4cddd93fee7b4ecb8c326c8d"
        },
        "genesisBlockHeader" : {
            "bloom" : "0x00000000000000000000000000000000000000000000000000000000000000000000000000000000000000000000000000000000000000000000000000000000000000000000000000000000000000000000000000000000000000000000000000000000000000000000000000000000000000000000000000000000000000000000000000000000000000000000000000000000000000000000000000000000000000000000000000000000000000000000000000000000000000000000000000000000000000000000000000000000000000000000000000000000000000000000000000000000000000000000000000000000000000000000000000000000",
            "coinbase" : "0xcafe000000000000000000000000000000000001",
            "difficulty" : "0x020000",
            "extraData" : "0x00",
            "gasLimit" : "0x989680",
            "gasUsed" : "0x00",
            "hash" : "0x78fd5dfa1e0e4d5e27523ae79079230bb057ab5abb04264e443195d8ca57d1ad",
            "mixHash" : "0x0000000000000000000000000000000000000000000000000000000000000000",
            "nonce" : "0x0000000000000000",
            "number" : "0x00",
            "parentHash" : "0x0000000000000000000000000000000000000000000000000000000000000000",
            "receiptTrie" : "0x56e81f171bcc55a6ff8345e692c0f86e5b48e01b996cadc001622fb5e363b421",
            "stateRoot" : "0xcb0b12be443e717aabb59b5aa545105e52fcef79632cb6d74b13a0b865480382",
            "timestamp" : "0x00",
            "transactionsTrie" : "0x56e81f171bcc55a6ff8345e692c0f86e5b48e01b996cadc001622fb5e363b421",
            "uncleHash" : "0x1dcc4de8dec75d7aab85b567b6ccd41ad312451b948a7413f0a142fd40d49347"
        },
        "pre" : {
            "0xa000000000000000000000000000000000000000" : {
                "balance" : "0x03e8",
                "code" : "0x7f18c547e4f7b0f325ad1e56f57e26c745b09a3e503d86e00e5255ff7f715d3d1c600052601c6020527f73b1693892219d736caba55bdb67216e485557ea6b6af75f37096c9aa6a5a75f6040527feeb940b1d03b21e36b0e47e79769f095fe2ab855bd91e3a38756b7d75a9c454960605260206120006080600060015af4620a00005260a060020a6120005106620a010052620a0100513214620a02005260006000526000602052600060405260006060526000612000527c0ccccccccccccccccccccccccccccccccccccccccccccccccccc00000060005260206120006020600060025af4620a030052600051620a04005261200051620a05005260006000526000612000527c0ccccccccccccccccccccccccccccccccccccccccccccccccccc00000060005260206120006020600060035af4620a060052600051620a07005261200051620a08005260006000526000612000527c0ccccccccccccccccccccccccccccccccccccccccccccccccccc00000060005260206120006020600060045af4620a09005261200051620a10005260006000526000612000526001600052602060205260206040527f03fffffffffffffffffffffffffffffffffffffffffffffffffffffffefffffc6060527f2efffffffffffffffffffffffffffffffffffffffffffffffffffffffefffffc6080527f2f0000000000000000000000000000000000000000000000000000000000000060a052602061200060a1600060055af4620a11005261200051620a12005260006000526000602052600060405260006060526000608052600060a0526000612000527f0f25929bcb43d5a57391564615c9e70a992b10eafa4db109709649cf48c50dd26000527f16da2f5cb6be7a0aa72c440c53c9bbdfec6c36c7d515536431b3a865468acbba6020527f1de49a4b0233273bba8146af82042d004f2085ec982397db0d97da17204cc2866040527f0217327ffc463919bef80cc166d09c6172639d8589799928761bcd9f22c903d460605260406120006080600060065af4620a13005261200051620a14005261202051620a15005260006000526000602052600060405260006060526000612000526000612020527f0f25929bcb43d5a57391564615c9e70a992b10eafa4db109709649cf48c50dd26000527f16da2f5cb6be7a0aa72c440c53c9bbdfec6c36c7d515536431b3a865468acbba602052600360405260406120006060600060075af4620a16005261200051620a17005261202051620a1800526000600052600060205260006040526000612000526000612020527f1c76476f4def4bb94541d57ebba1193381ffa7aa76ada664dd31c16024c43f596000527f3034dd2920f673e204fee2811c678745fc819b55d3e9d294e45c9b03a76aef416020527f209dd15ebff5d46c4bd888e51a93cf99a7329636c63514396b4a452003a35bf76040527f04bf11ca01483bfa8b34b43561848d28905960114c8ac04049af4b6315a416786060527f2bb8324af6cfc93537a2ad1a445cfd0ca2a71acd7ac41fadbf933c2a51be344d6080527f120a2a4cf30c1bf9845f20c6fe39e07ea2cce61f0c9bb048165fe5e4de87755060a0527f111e129f1cf1097710d41c4ac70fcdfa5ba2023c6ff1cbeac322de49d1b6df7c60c0527f2032c61a830e3c17286de9462bf242fca2883585b93870a73853face6a6bf41160e0527f198e9393920d483a7260bfb731fb5d25f1aa493335a9e71297e485b7aef312c2610100527f1800deef121f1e76426a00665e5c4479674322d4f75edadd46debd5cd992f6ed610120527f090689d0585ff075ec9e99ad690c3395bc4b313370b38ef355acdadcd122975b610140527f12c85ea5db8c6deb4aab71808dcb408fe3d1e7690c43d37b4ce6cc0166fa7daa610160526020612000610180600060085af4620a19005261200051620a20005260006120005262012020620a0000f300",
                "nonce" : "0x00",
                "storage" : {
                }
            },
            "0xa94f5374fce5edbc8e2a8697c15331677e6ebf0b" : {
                "balance" : "0x0de0b6b3a7640000",
                "code" : "0x",
                "nonce" : "0x00",
                "storage" : {
                }
            },
            "0xb000000000000000000000000000000000000000" : {
                "balance" : "0x03e8",
                "code" : "0x7ffeedfeedfeedfeedfeedfeedfeedfeedfeedfeedfeedfeedfeedfeedfeedfeed60005562012020620a00006000600073a0000000000000000000000000000000000000005afa507ffeedfeedfeedfeedfeedfeedfeedfeedfeedfeedfeedfeedfeedfeedfeedfeed600155620a000051610a0055620a110051610a1155620a010051610a0155620a120051610a1255620a020051610a0255620a130051610a1355620a030051610a0355620a140051610a1455620a040051610a0455620a150051610a1555620a050051610a0555620a160051610a1655620a060051610a0655620a170051610a1755620a070051610a0755620a180051610a1855620a080051610a0855620a190051610a1955620a090051610a0955620a200051610a2055620a100051610a105500",
                "nonce" : "0x00",
                "storage" : {
                    "0x00" : "0xdeadbeafdeadbeafdeadbeafdeadbeafdeadbeafdeadbeafdeadbeafdeadbeaf",
                    "0x01" : "0xdeadbeafdeadbeafdeadbeafdeadbeafdeadbeafdeadbeafdeadbeafdeadbeaf"
                }
            },
            "0xc000000000000000000000000000000000000000" : {
                "balance" : "0x03e8",
                "code" : "0x7ffeedfeedfeedfeedfeedfeedfeedfeedfeedfeedfeedfeedfeedfeedfeedfeed6000556000600060006000600073b0000000000000000000000000000000000000005af1507ffeedfeedfeedfeedfeedfeedfeedfeedfeedfeedfeedfeedfeedfeedfeedfeed60015500",
                "nonce" : "0x00",
                "storage" : {
                    "0x00" : "0xdeadbeafdeadbeafdeadbeafdeadbeafdeadbeafdeadbeafdeadbeafdeadbeaf",
                    "0x01" : "0xdeadbeafdeadbeafdeadbeafdeadbeafdeadbeafdeadbeafdeadbeafdeadbeaf"
                }
            }
        },
        "postState" : {
            "0xa000000000000000000000000000000000000000" : {
                "code" : "0x7f18c547e4f7b0f325ad1e56f57e26c745b09a3e503d86e00e5255ff7f715d3d1c600052601c6020527f73b1693892219d736caba55bdb67216e485557ea6b6af75f37096c9aa6a5a75f6040527feeb940b1d03b21e36b0e47e79769f095fe2ab855bd91e3a38756b7d75a9c454960605260206120006080600060015af4620a00005260a060020a6120005106620a010052620a0100513214620a02005260006000526000602052600060405260006060526000612000527c0ccccccccccccccccccccccccccccccccccccccccccccccccccc00000060005260206120006020600060025af4620a030052600051620a04005261200051620a05005260006000526000612000527c0ccccccccccccccccccccccccccccccccccccccccccccccccccc00000060005260206120006020600060035af4620a060052600051620a07005261200051620a08005260006000526000612000527c0ccccccccccccccccccccccccccccccccccccccccccccccccccc00000060005260206120006020600060045af4620a09005261200051620a10005260006000526000612000526001600052602060205260206040527f03fffffffffffffffffffffffffffffffffffffffffffffffffffffffefffffc6060527f2efffffffffffffffffffffffffffffffffffffffffffffffffffffffefffffc6080527f2f0000000000000000000000000000000000000000000000000000000000000060a052602061200060a1600060055af4620a11005261200051620a12005260006000526000602052600060405260006060526000608052600060a0526000612000527f0f25929bcb43d5a57391564615c9e70a992b10eafa4db109709649cf48c50dd26000527f16da2f5cb6be7a0aa72c440c53c9bbdfec6c36c7d515536431b3a865468acbba6020527f1de49a4b0233273bba8146af82042d004f2085ec982397db0d97da17204cc2866040527f0217327ffc463919bef80cc166d09c6172639d8589799928761bcd9f22c903d460605260406120006080600060065af4620a13005261200051620a14005261202051620a15005260006000526000602052600060405260006060526000612000526000612020527f0f25929bcb43d5a57391564615c9e70a992b10eafa4db109709649cf48c50dd26000527f16da2f5cb6be7a0aa72c440c53c9bbdfec6c36c7d515536431b3a865468acbba602052600360405260406120006060600060075af4620a16005261200051620a17005261202051620a1800526000600052600060205260006040526000612000526000612020527f1c76476f4def4bb94541d57ebba1193381ffa7aa76ada664dd31c16024c43f596000527f3034dd2920f673e204fee2811c678745fc819b55d3e9d294e45c9b03a76aef416020527f209dd15ebff5d46c4bd888e51a93cf99a7329636c63514396b4a452003a35bf76040527f04bf11ca01483bfa8b34b43561848d28905960114c8ac04049af4b6315a416786060527f2bb8324af6cfc93537a2ad1a445cfd0ca2a71acd7ac41fadbf933c2a51be344d6080527f120a2a4cf30c1bf9845f20c6fe39e07ea2cce61f0c9bb048165fe5e4de87755060a0527f111e129f1cf1097710d41c4ac70fcdfa5ba2023c6ff1cbeac322de49d1b6df7c60c0527f2032c61a830e3c17286de9462bf242fca2883585b93870a73853face6a6bf41160e0527f198e9393920d483a7260bfb731fb5d25f1aa493335a9e71297e485b7aef312c2610100527f1800deef121f1e76426a00665e5c4479674322d4f75edadd46debd5cd992f6ed610120527f090689d0585ff075ec9e99ad690c3395bc4b313370b38ef355acdadcd122975b610140527f12c85ea5db8c6deb4aab71808dcb408fe3d1e7690c43d37b4ce6cc0166fa7daa610160526020612000610180600060085af4620a19005261200051620a20005260006120005262012020620a0000f300",
                "nonce" : "0x00",
                "balance" : "0x03e8",
                "storage" : {
                }
            },
            "0xa94f5374fce5edbc8e2a8697c15331677e6ebf0b" : {
                "code" : "0x",
                "nonce" : "0x01",
                "balance" : "0x0de0b6b3a7391346",
                "storage" : {
                }
            },
            "0xb000000000000000000000000000000000000000" : {
                "code" : "0x7ffeedfeedfeedfeedfeedfeedfeedfeedfeedfeedfeedfeedfeedfeedfeedfeed60005562012020620a00006000600073a0000000000000000000000000000000000000005afa507ffeedfeedfeedfeedfeedfeedfeedfeedfeedfeedfeedfeedfeedfeedfeedfeed600155620a000051610a0055620a110051610a1155620a010051610a0155620a120051610a1255620a020051610a0255620a130051610a1355620a030051610a0355620a140051610a1455620a040051610a0455620a150051610a1555620a050051610a0555620a160051610a1655620a060051610a0655620a170051610a1755620a070051610a0755620a180051610a1855620a080051610a0855620a190051610a1955620a090051610a0955620a200051610a2055620a100051610a105500",
                "nonce" : "0x00",
                "balance" : "0x03e8",
                "storage" : {
                    "0x00" : "0xfeedfeedfeedfeedfeedfeedfeedfeedfeedfeedfeedfeedfeedfeedfeedfeed",
                    "0x01" : "0xfeedfeedfeedfeedfeedfeedfeedfeedfeedfeedfeedfeedfeedfeedfeedfeed",
                    "0x0a00" : "0x01",
                    "0x0a01" : "0xa94f5374fce5edbc8e2a8697c15331677e6ebf0b",
                    "0x0a02" : "0x01",
                    "0x0a03" : "0x01",
                    "0x0a04" : "0x0ccccccccccccccccccccccccccccccccccccccccccccccccccc000000",
                    "0x0a05" : "0x73f5062fb68ed2a1ec82ff8c73f9251bb9cf53a623bc93527e16bc5ae29dad74",
                    "0x0a06" : "0x01",
                    "0x0a07" : "0x0ccccccccccccccccccccccccccccccccccccccccccccccccccc000000",
                    "0x0a08" : "0x14ef238cfa4075e9ede92f18b1566c1dd0b99aaa",
                    "0x0a09" : "0x01",
                    "0x0a10" : "0x0ccccccccccccccccccccccccccccccccccccccccccccccccccc000000",
                    "0x0a11" : "0x01",
                    "0x0a12" : "0x01",
                    "0x0a13" : "0x01",
                    "0x0a14" : "0x1f4d1d80177b1377743d1901f70d7389be7f7a35a35bfd234a8aaee615b88c49",
                    "0x0a15" : "0x018683193ae021a2f8920fed186cde5d9b1365116865281ccf884c1f28b1df8f",
                    "0x0a16" : "0x01",
                    "0x0a17" : "0x1f4d1d80177b1377743d1901f70d7389be7f7a35a35bfd234a8aaee615b88c49",
                    "0x0a18" : "0x018683193ae021a2f8920fed186cde5d9b1365116865281ccf884c1f28b1df8f",
                    "0x0a19" : "0x01",
                    "0x0a20" : "0x01"
                }
            },
            "0xc000000000000000000000000000000000000000" : {
                "code" : "0x7ffeedfeedfeedfeedfeedfeedfeedfeedfeedfeedfeedfeedfeedfeedfeedfeed6000556000600060006000600073b0000000000000000000000000000000000000005af1507ffeedfeedfeedfeedfeedfeedfeedfeedfeedfeedfeedfeedfeedfeedfeedfeed60015500",
                "nonce" : "0x00",
                "balance" : "0x044c",
                "storage" : {
                    "0x00" : "0xfeedfeedfeedfeedfeedfeedfeedfeedfeedfeedfeedfeedfeedfeedfeedfeed",
                    "0x01" : "0xfeedfeedfeedfeedfeedfeedfeedfeedfeedfeedfeedfeedfeedfeedfeedfeed"
                }
            },
            "0xcafe000000000000000000000000000000000001" : {
                "code" : "0x",
                "nonce" : "0x00",
                "balance" : "0x1bc16d674ef2ec56",
                "storage" : {
                }
            }
        },
        "network" : "Berlin",
        "sealEngine" : "NoProof",
        "lastblockhash" : "0xac46b5f74b8076b960d0f7e5415c13d6ca3dbd618fd9566dad01be4daf7deaef",
        "genesisRLP" : "0xf901f8f901f3a00000000000000000000000000000000000000000000000000000000000000000a01dcc4de8dec75d7aab85b567b6ccd41ad312451b948a7413f0a142fd40d4934794cafe000000000000000000000000000000000001a0cb0b12be443e717aabb59b5aa545105e52fcef79632cb6d74b13a0b865480382a056e81f171bcc55a6ff8345e692c0f86e5b48e01b996cadc001622fb5e363b421a056e81f171bcc55a6ff8345e692c0f86e5b48e01b996cadc001622fb5e363b421b9010000000000000000000000000000000000000000000000000000000000000000000000000000000000000000000000000000000000000000000000000000000000000000000000000000000000000000000000000000000000000000000000000000000000000000000000000000000000000000000000000000000000000000000000000000000000000000000000000000000000000000000000000000000000000000000000000000000000000000000000000000000000000000000000000000000000000000000000000000000000000000000000000000000000000000000000000000000000000000000000000000000000000000000000000000000000830200008083989680808000a00000000000000000000000000000000000000000000000000000000000000000880000000000000000c0c0",
        "blocks" : [
            {
                "rlp" : "0xf90260f901f8a078fd5dfa1e0e4d5e27523ae79079230bb057ab5abb04264e443195d8ca57d1ada01dcc4de8dec75d7aab85b567b6ccd41ad312451b948a7413f0a142fd40d4934794cafe000000000000000000000000000000000001a0813cd51eb2afff295878b216e1cc73c2ddd2d15bc5c7c5ebec8b423bdb7f4d52a046eb9e39a5157746976c8afa96a6412d0b524dc2f8492e6c8757db0b6a34c4aca0b8354bd1416a188c8b2dac9315a33a566f8e1c90903b5c8827241b59a0478965b9010000000000000000000000000000000000000000000000000000000000000000000000000000000000000000000000000000000000000000000000000000000000000000000000000000000000000000000000000000000000000000000000000000000000000000000000000000000000000000000000000000000000000000000000000000000000000000000000000000000000000000000000000000000000000000000000000000000000000000000000000000000000000000000000000000000000000000000000000000000000000000000000000000000000000000000000000000000000000000000000000000000000000000000000000000000000830200000183989680832aec568203e800a00000000000000000000000000000000000000000000000000000000000000000880000000000000000f862f8608001833d090094c00000000000000000000000000000000000000064801ca08eda3b08cb64c1146ae390eedaecb5934531c33bb9d1d00a43a74bdd0fc4d719a06d18b1221ec5fba924ba1d1b61bdcf14baf1df2a23a62a555baf33cdb90c66f8c0",
                "blockHeader" : {
                    "bloom" : "0x00000000000000000000000000000000000000000000000000000000000000000000000000000000000000000000000000000000000000000000000000000000000000000000000000000000000000000000000000000000000000000000000000000000000000000000000000000000000000000000000000000000000000000000000000000000000000000000000000000000000000000000000000000000000000000000000000000000000000000000000000000000000000000000000000000000000000000000000000000000000000000000000000000000000000000000000000000000000000000000000000000000000000000000000000000000",
                    "coinbase" : "0xcafe000000000000000000000000000000000001",
                    "difficulty" : "0x020000",
                    "extraData" : "0x00",
                    "gasLimit" : "0x989680",
                    "gasUsed" : "0x2aec56",
                    "hash" : "0xac46b5f74b8076b960d0f7e5415c13d6ca3dbd618fd9566dad01be4daf7deaef",
                    "mixHash" : "0x0000000000000000000000000000000000000000000000000000000000000000",
                    "nonce" : "0x0000000000000000",
                    "number" : "0x01",
                    "parentHash" : "0x78fd5dfa1e0e4d5e27523ae79079230bb057ab5abb04264e443195d8ca57d1ad",
                    "receiptTrie" : "0xb8354bd1416a188c8b2dac9315a33a566f8e1c90903b5c8827241b59a0478965",
                    "stateRoot" : "0x813cd51eb2afff295878b216e1cc73c2ddd2d15bc5c7c5ebec8b423bdb7f4d52",
                    "timestamp" : "0x03e8",
                    "transactionsTrie" : "0x46eb9e39a5157746976c8afa96a6412d0b524dc2f8492e6c8757db0b6a34c4ac",
                    "uncleHash" : "0x1dcc4de8dec75d7aab85b567b6ccd41ad312451b948a7413f0a142fd40d49347"
                },
                "transactions" : [
                    {
                        "data" : "0x",
                        "gasLimit" : "0x3d0900",
                        "gasPrice" : "0x01",
                        "nonce" : "0x00",
                        "to" : "0xc000000000000000000000000000000000000000",
                        "value" : "0x64",
                        "v" : "0x1c",
                        "r" : "0x8eda3b08cb64c1146ae390eedaecb5934531c33bb9d1d00a43a74bdd0fc4d719",
                        "s" : "0x6d18b1221ec5fba924ba1d1b61bdcf14baf1df2a23a62a555baf33cdb90c66f8"
                    }
                ],
                "uncleHeaders" : [
                ]
            }
        ]
    },
    "DelegatecallToPrecompileFromCalledContract_d0g0v0_Istanbul" : {
        "_info" : {
            "comment" : "Contract C calls contract B.\nContract B staticcalls contract A.\nContract A delegatecalls precompiled contracts.\nIt should execute successfully for each precompiled contract.\n",
            "filling-rpc-server" : "evm version 1.9.23-unstable-0efc69a9-20201022",
            "filling-tool-version" : "retesteth-0.0.9-berlin+commit.2f30f0ea.Linux.g++",
            "lllcversion" : "Version: 0.5.14-develop.2020.6.22+commit.9189ad7a.Linux.g++",
            "source" : "src/GeneralStateTestsFiller/stStaticFlagEnabled/DelegatecallToPrecompileFromCalledContractFiller.yml",
            "sourceHash" : "c7a804bd33e90d1348ef67017e909e595dbfebda4cddd93fee7b4ecb8c326c8d"
        },
        "genesisBlockHeader" : {
            "bloom" : "0x00000000000000000000000000000000000000000000000000000000000000000000000000000000000000000000000000000000000000000000000000000000000000000000000000000000000000000000000000000000000000000000000000000000000000000000000000000000000000000000000000000000000000000000000000000000000000000000000000000000000000000000000000000000000000000000000000000000000000000000000000000000000000000000000000000000000000000000000000000000000000000000000000000000000000000000000000000000000000000000000000000000000000000000000000000000",
            "coinbase" : "0xcafe000000000000000000000000000000000001",
            "difficulty" : "0x020000",
            "extraData" : "0x00",
            "gasLimit" : "0x989680",
            "gasUsed" : "0x00",
            "hash" : "0x78fd5dfa1e0e4d5e27523ae79079230bb057ab5abb04264e443195d8ca57d1ad",
            "mixHash" : "0x0000000000000000000000000000000000000000000000000000000000000000",
            "nonce" : "0x0000000000000000",
            "number" : "0x00",
            "parentHash" : "0x0000000000000000000000000000000000000000000000000000000000000000",
            "receiptTrie" : "0x56e81f171bcc55a6ff8345e692c0f86e5b48e01b996cadc001622fb5e363b421",
            "stateRoot" : "0xcb0b12be443e717aabb59b5aa545105e52fcef79632cb6d74b13a0b865480382",
            "timestamp" : "0x00",
            "transactionsTrie" : "0x56e81f171bcc55a6ff8345e692c0f86e5b48e01b996cadc001622fb5e363b421",
            "uncleHash" : "0x1dcc4de8dec75d7aab85b567b6ccd41ad312451b948a7413f0a142fd40d49347"
        },
        "pre" : {
            "0xa000000000000000000000000000000000000000" : {
                "balance" : "0x03e8",
                "code" : "0x7f18c547e4f7b0f325ad1e56f57e26c745b09a3e503d86e00e5255ff7f715d3d1c600052601c6020527f73b1693892219d736caba55bdb67216e485557ea6b6af75f37096c9aa6a5a75f6040527feeb940b1d03b21e36b0e47e79769f095fe2ab855bd91e3a38756b7d75a9c454960605260206120006080600060015af4620a00005260a060020a6120005106620a010052620a0100513214620a02005260006000526000602052600060405260006060526000612000527c0ccccccccccccccccccccccccccccccccccccccccccccccccccc00000060005260206120006020600060025af4620a030052600051620a04005261200051620a05005260006000526000612000527c0ccccccccccccccccccccccccccccccccccccccccccccccccccc00000060005260206120006020600060035af4620a060052600051620a07005261200051620a08005260006000526000612000527c0ccccccccccccccccccccccccccccccccccccccccccccccccccc00000060005260206120006020600060045af4620a09005261200051620a10005260006000526000612000526001600052602060205260206040527f03fffffffffffffffffffffffffffffffffffffffffffffffffffffffefffffc6060527f2efffffffffffffffffffffffffffffffffffffffffffffffffffffffefffffc6080527f2f0000000000000000000000000000000000000000000000000000000000000060a052602061200060a1600060055af4620a11005261200051620a12005260006000526000602052600060405260006060526000608052600060a0526000612000527f0f25929bcb43d5a57391564615c9e70a992b10eafa4db109709649cf48c50dd26000527f16da2f5cb6be7a0aa72c440c53c9bbdfec6c36c7d515536431b3a865468acbba6020527f1de49a4b0233273bba8146af82042d004f2085ec982397db0d97da17204cc2866040527f0217327ffc463919bef80cc166d09c6172639d8589799928761bcd9f22c903d460605260406120006080600060065af4620a13005261200051620a14005261202051620a15005260006000526000602052600060405260006060526000612000526000612020527f0f25929bcb43d5a57391564615c9e70a992b10eafa4db109709649cf48c50dd26000527f16da2f5cb6be7a0aa72c440c53c9bbdfec6c36c7d515536431b3a865468acbba602052600360405260406120006060600060075af4620a16005261200051620a17005261202051620a1800526000600052600060205260006040526000612000526000612020527f1c76476f4def4bb94541d57ebba1193381ffa7aa76ada664dd31c16024c43f596000527f3034dd2920f673e204fee2811c678745fc819b55d3e9d294e45c9b03a76aef416020527f209dd15ebff5d46c4bd888e51a93cf99a7329636c63514396b4a452003a35bf76040527f04bf11ca01483bfa8b34b43561848d28905960114c8ac04049af4b6315a416786060527f2bb8324af6cfc93537a2ad1a445cfd0ca2a71acd7ac41fadbf933c2a51be344d6080527f120a2a4cf30c1bf9845f20c6fe39e07ea2cce61f0c9bb048165fe5e4de87755060a0527f111e129f1cf1097710d41c4ac70fcdfa5ba2023c6ff1cbeac322de49d1b6df7c60c0527f2032c61a830e3c17286de9462bf242fca2883585b93870a73853face6a6bf41160e0527f198e9393920d483a7260bfb731fb5d25f1aa493335a9e71297e485b7aef312c2610100527f1800deef121f1e76426a00665e5c4479674322d4f75edadd46debd5cd992f6ed610120527f090689d0585ff075ec9e99ad690c3395bc4b313370b38ef355acdadcd122975b610140527f12c85ea5db8c6deb4aab71808dcb408fe3d1e7690c43d37b4ce6cc0166fa7daa610160526020612000610180600060085af4620a19005261200051620a20005260006120005262012020620a0000f300",
                "nonce" : "0x00",
                "storage" : {
                }
            },
            "0xa94f5374fce5edbc8e2a8697c15331677e6ebf0b" : {
                "balance" : "0x0de0b6b3a7640000",
                "code" : "0x",
                "nonce" : "0x00",
                "storage" : {
                }
            },
            "0xb000000000000000000000000000000000000000" : {
                "balance" : "0x03e8",
                "code" : "0x7ffeedfeedfeedfeedfeedfeedfeedfeedfeedfeedfeedfeedfeedfeedfeedfeed60005562012020620a00006000600073a0000000000000000000000000000000000000005afa507ffeedfeedfeedfeedfeedfeedfeedfeedfeedfeedfeedfeedfeedfeedfeedfeed600155620a000051610a0055620a110051610a1155620a010051610a0155620a120051610a1255620a020051610a0255620a130051610a1355620a030051610a0355620a140051610a1455620a040051610a0455620a150051610a1555620a050051610a0555620a160051610a1655620a060051610a0655620a170051610a1755620a070051610a0755620a180051610a1855620a080051610a0855620a190051610a1955620a090051610a0955620a200051610a2055620a100051610a105500",
                "nonce" : "0x00",
                "storage" : {
                    "0x00" : "0xdeadbeafdeadbeafdeadbeafdeadbeafdeadbeafdeadbeafdeadbeafdeadbeaf",
                    "0x01" : "0xdeadbeafdeadbeafdeadbeafdeadbeafdeadbeafdeadbeafdeadbeafdeadbeaf"
                }
            },
            "0xc000000000000000000000000000000000000000" : {
                "balance" : "0x03e8",
                "code" : "0x7ffeedfeedfeedfeedfeedfeedfeedfeedfeedfeedfeedfeedfeedfeedfeedfeed6000556000600060006000600073b0000000000000000000000000000000000000005af1507ffeedfeedfeedfeedfeedfeedfeedfeedfeedfeedfeedfeedfeedfeedfeedfeed60015500",
                "nonce" : "0x00",
                "storage" : {
                    "0x00" : "0xdeadbeafdeadbeafdeadbeafdeadbeafdeadbeafdeadbeafdeadbeafdeadbeaf",
                    "0x01" : "0xdeadbeafdeadbeafdeadbeafdeadbeafdeadbeafdeadbeafdeadbeafdeadbeaf"
                }
            }
        },
        "postState" : {
            "0xa000000000000000000000000000000000000000" : {
                "code" : "0x7f18c547e4f7b0f325ad1e56f57e26c745b09a3e503d86e00e5255ff7f715d3d1c600052601c6020527f73b1693892219d736caba55bdb67216e485557ea6b6af75f37096c9aa6a5a75f6040527feeb940b1d03b21e36b0e47e79769f095fe2ab855bd91e3a38756b7d75a9c454960605260206120006080600060015af4620a00005260a060020a6120005106620a010052620a0100513214620a02005260006000526000602052600060405260006060526000612000527c0ccccccccccccccccccccccccccccccccccccccccccccccccccc00000060005260206120006020600060025af4620a030052600051620a04005261200051620a05005260006000526000612000527c0ccccccccccccccccccccccccccccccccccccccccccccccccccc00000060005260206120006020600060035af4620a060052600051620a07005261200051620a08005260006000526000612000527c0ccccccccccccccccccccccccccccccccccccccccccccccccccc00000060005260206120006020600060045af4620a09005261200051620a10005260006000526000612000526001600052602060205260206040527f03fffffffffffffffffffffffffffffffffffffffffffffffffffffffefffffc6060527f2efffffffffffffffffffffffffffffffffffffffffffffffffffffffefffffc6080527f2f0000000000000000000000000000000000000000000000000000000000000060a052602061200060a1600060055af4620a11005261200051620a12005260006000526000602052600060405260006060526000608052600060a0526000612000527f0f25929bcb43d5a57391564615c9e70a992b10eafa4db109709649cf48c50dd26000527f16da2f5cb6be7a0aa72c440c53c9bbdfec6c36c7d515536431b3a865468acbba6020527f1de49a4b0233273bba8146af82042d004f2085ec982397db0d97da17204cc2866040527f0217327ffc463919bef80cc166d09c6172639d8589799928761bcd9f22c903d460605260406120006080600060065af4620a13005261200051620a14005261202051620a15005260006000526000602052600060405260006060526000612000526000612020527f0f25929bcb43d5a57391564615c9e70a992b10eafa4db109709649cf48c50dd26000527f16da2f5cb6be7a0aa72c440c53c9bbdfec6c36c7d515536431b3a865468acbba602052600360405260406120006060600060075af4620a16005261200051620a17005261202051620a1800526000600052600060205260006040526000612000526000612020527f1c76476f4def4bb94541d57ebba1193381ffa7aa76ada664dd31c16024c43f596000527f3034dd2920f673e204fee2811c678745fc819b55d3e9d294e45c9b03a76aef416020527f209dd15ebff5d46c4bd888e51a93cf99a7329636c63514396b4a452003a35bf76040527f04bf11ca01483bfa8b34b43561848d28905960114c8ac04049af4b6315a416786060527f2bb8324af6cfc93537a2ad1a445cfd0ca2a71acd7ac41fadbf933c2a51be344d6080527f120a2a4cf30c1bf9845f20c6fe39e07ea2cce61f0c9bb048165fe5e4de87755060a0527f111e129f1cf1097710d41c4ac70fcdfa5ba2023c6ff1cbeac322de49d1b6df7c60c0527f2032c61a830e3c17286de9462bf242fca2883585b93870a73853face6a6bf41160e0527f198e9393920d483a7260bfb731fb5d25f1aa493335a9e71297e485b7aef312c2610100527f1800deef121f1e76426a00665e5c4479674322d4f75edadd46debd5cd992f6ed610120527f090689d0585ff075ec9e99ad690c3395bc4b313370b38ef355acdadcd122975b610140527f12c85ea5db8c6deb4aab71808dcb408fe3d1e7690c43d37b4ce6cc0166fa7daa610160526020612000610180600060085af4620a19005261200051620a20005260006120005262012020620a0000f300",
                "nonce" : "0x00",
                "balance" : "0x03e8",
                "storage" : {
                }
            },
            "0xa94f5374fce5edbc8e2a8697c15331677e6ebf0b" : {
                "code" : "0x",
                "nonce" : "0x01",
                "balance" : "0x0de0b6b3a739bba2",
                "storage" : {
                }
            },
            "0xb000000000000000000000000000000000000000" : {
                "code" : "0x7ffeedfeedfeedfeedfeedfeedfeedfeedfeedfeedfeedfeedfeedfeedfeedfeed60005562012020620a00006000600073a0000000000000000000000000000000000000005afa507ffeedfeedfeedfeedfeedfeedfeedfeedfeedfeedfeedfeedfeedfeedfeedfeed600155620a000051610a0055620a110051610a1155620a010051610a0155620a120051610a1255620a020051610a0255620a130051610a1355620a030051610a0355620a140051610a1455620a040051610a0455620a150051610a1555620a050051610a0555620a160051610a1655620a060051610a0655620a170051610a1755620a070051610a0755620a180051610a1855620a080051610a0855620a190051610a1955620a090051610a0955620a200051610a2055620a100051610a105500",
                "nonce" : "0x00",
                "balance" : "0x03e8",
                "storage" : {
                    "0x00" : "0xfeedfeedfeedfeedfeedfeedfeedfeedfeedfeedfeedfeedfeedfeedfeedfeed",
                    "0x01" : "0xfeedfeedfeedfeedfeedfeedfeedfeedfeedfeedfeedfeedfeedfeedfeedfeed",
                    "0x0a00" : "0x01",
                    "0x0a01" : "0xa94f5374fce5edbc8e2a8697c15331677e6ebf0b",
                    "0x0a02" : "0x01",
                    "0x0a03" : "0x01",
                    "0x0a04" : "0x0ccccccccccccccccccccccccccccccccccccccccccccccccccc000000",
                    "0x0a05" : "0x73f5062fb68ed2a1ec82ff8c73f9251bb9cf53a623bc93527e16bc5ae29dad74",
                    "0x0a06" : "0x01",
                    "0x0a07" : "0x0ccccccccccccccccccccccccccccccccccccccccccccccccccc000000",
                    "0x0a08" : "0x14ef238cfa4075e9ede92f18b1566c1dd0b99aaa",
                    "0x0a09" : "0x01",
                    "0x0a10" : "0x0ccccccccccccccccccccccccccccccccccccccccccccccccccc000000",
                    "0x0a11" : "0x01",
                    "0x0a12" : "0x01",
                    "0x0a13" : "0x01",
                    "0x0a14" : "0x1f4d1d80177b1377743d1901f70d7389be7f7a35a35bfd234a8aaee615b88c49",
                    "0x0a15" : "0x018683193ae021a2f8920fed186cde5d9b1365116865281ccf884c1f28b1df8f",
                    "0x0a16" : "0x01",
                    "0x0a17" : "0x1f4d1d80177b1377743d1901f70d7389be7f7a35a35bfd234a8aaee615b88c49",
                    "0x0a18" : "0x018683193ae021a2f8920fed186cde5d9b1365116865281ccf884c1f28b1df8f",
                    "0x0a19" : "0x01",
                    "0x0a20" : "0x01"
                }
            },
            "0xc000000000000000000000000000000000000000" : {
                "code" : "0x7ffeedfeedfeedfeedfeedfeedfeedfeedfeedfeedfeedfeedfeedfeedfeedfeed6000556000600060006000600073b0000000000000000000000000000000000000005af1507ffeedfeedfeedfeedfeedfeedfeedfeedfeedfeedfeedfeedfeedfeedfeedfeed60015500",
                "nonce" : "0x00",
                "balance" : "0x044c",
                "storage" : {
                    "0x00" : "0xfeedfeedfeedfeedfeedfeedfeedfeedfeedfeedfeedfeedfeedfeedfeedfeed",
                    "0x01" : "0xfeedfeedfeedfeedfeedfeedfeedfeedfeedfeedfeedfeedfeedfeedfeedfeed"
                }
            },
            "0xcafe000000000000000000000000000000000001" : {
                "code" : "0x",
                "nonce" : "0x00",
                "balance" : "0x1bc16d674ef243fa",
                "storage" : {
                }
            }
        },
        "network" : "Istanbul",
        "sealEngine" : "NoProof",
        "lastblockhash" : "0x7bcd01ed61907de0eb1ff87d6f619ec6f09b313fd908a5b30a3fce63bab60d6c",
        "genesisRLP" : "0xf901f8f901f3a00000000000000000000000000000000000000000000000000000000000000000a01dcc4de8dec75d7aab85b567b6ccd41ad312451b948a7413f0a142fd40d4934794cafe000000000000000000000000000000000001a0cb0b12be443e717aabb59b5aa545105e52fcef79632cb6d74b13a0b865480382a056e81f171bcc55a6ff8345e692c0f86e5b48e01b996cadc001622fb5e363b421a056e81f171bcc55a6ff8345e692c0f86e5b48e01b996cadc001622fb5e363b421b9010000000000000000000000000000000000000000000000000000000000000000000000000000000000000000000000000000000000000000000000000000000000000000000000000000000000000000000000000000000000000000000000000000000000000000000000000000000000000000000000000000000000000000000000000000000000000000000000000000000000000000000000000000000000000000000000000000000000000000000000000000000000000000000000000000000000000000000000000000000000000000000000000000000000000000000000000000000000000000000000000000000000000000000000000000000000830200008083989680808000a00000000000000000000000000000000000000000000000000000000000000000880000000000000000c0c0",
        "blocks" : [
            {
                "rlp" : "0xf90260f901f8a078fd5dfa1e0e4d5e27523ae79079230bb057ab5abb04264e443195d8ca57d1ada01dcc4de8dec75d7aab85b567b6ccd41ad312451b948a7413f0a142fd40d4934794cafe000000000000000000000000000000000001a0797dd6691ce9828421ed9c5d7fda5f98b87b9462885eefc0373e0917f3ebf654a046eb9e39a5157746976c8afa96a6412d0b524dc2f8492e6c8757db0b6a34c4aca045117c234e0f21b98e09ed8c6848eae7b37fb881492ff8ed28c32630578c0398b9010000000000000000000000000000000000000000000000000000000000000000000000000000000000000000000000000000000000000000000000000000000000000000000000000000000000000000000000000000000000000000000000000000000000000000000000000000000000000000000000000000000000000000000000000000000000000000000000000000000000000000000000000000000000000000000000000000000000000000000000000000000000000000000000000000000000000000000000000000000000000000000000000000000000000000000000000000000000000000000000000000000000000000000000000000000000830200000183989680832a43fa8203e800a00000000000000000000000000000000000000000000000000000000000000000880000000000000000f862f8608001833d090094c00000000000000000000000000000000000000064801ca08eda3b08cb64c1146ae390eedaecb5934531c33bb9d1d00a43a74bdd0fc4d719a06d18b1221ec5fba924ba1d1b61bdcf14baf1df2a23a62a555baf33cdb90c66f8c0",
                "blockHeader" : {
                    "bloom" : "0x00000000000000000000000000000000000000000000000000000000000000000000000000000000000000000000000000000000000000000000000000000000000000000000000000000000000000000000000000000000000000000000000000000000000000000000000000000000000000000000000000000000000000000000000000000000000000000000000000000000000000000000000000000000000000000000000000000000000000000000000000000000000000000000000000000000000000000000000000000000000000000000000000000000000000000000000000000000000000000000000000000000000000000000000000000000",
                    "coinbase" : "0xcafe000000000000000000000000000000000001",
                    "difficulty" : "0x020000",
                    "extraData" : "0x00",
                    "gasLimit" : "0x989680",
                    "gasUsed" : "0x2a43fa",
                    "hash" : "0x7bcd01ed61907de0eb1ff87d6f619ec6f09b313fd908a5b30a3fce63bab60d6c",
                    "mixHash" : "0x0000000000000000000000000000000000000000000000000000000000000000",
                    "nonce" : "0x0000000000000000",
                    "number" : "0x01",
                    "parentHash" : "0x78fd5dfa1e0e4d5e27523ae79079230bb057ab5abb04264e443195d8ca57d1ad",
                    "receiptTrie" : "0x45117c234e0f21b98e09ed8c6848eae7b37fb881492ff8ed28c32630578c0398",
                    "stateRoot" : "0x797dd6691ce9828421ed9c5d7fda5f98b87b9462885eefc0373e0917f3ebf654",
                    "timestamp" : "0x03e8",
                    "transactionsTrie" : "0x46eb9e39a5157746976c8afa96a6412d0b524dc2f8492e6c8757db0b6a34c4ac",
                    "uncleHash" : "0x1dcc4de8dec75d7aab85b567b6ccd41ad312451b948a7413f0a142fd40d49347"
                },
                "transactions" : [
                    {
                        "data" : "0x",
                        "gasLimit" : "0x3d0900",
                        "gasPrice" : "0x01",
                        "nonce" : "0x00",
                        "to" : "0xc000000000000000000000000000000000000000",
                        "value" : "0x64",
                        "v" : "0x1c",
                        "r" : "0x8eda3b08cb64c1146ae390eedaecb5934531c33bb9d1d00a43a74bdd0fc4d719",
                        "s" : "0x6d18b1221ec5fba924ba1d1b61bdcf14baf1df2a23a62a555baf33cdb90c66f8"
                    }
                ],
                "uncleHeaders" : [
                ]
            }
        ]
    }
}