{
    "BadStateRootTxBC_d0g0v0_EIP150" : {
        "blocks" : [
            {
                "blockHeader" : {
                    "bloom" : "0x00000000000000000000000000000000000000000000000000000000000000000000000000000000000000000000000000000000000000000000000000000000000000000000000000000000000000000000000000000000000000000000000000000000000000000000000000000000000000000000000000000000000000000000000000000000000000000000000000000000000000000000000000000000000000000000000000000000000000000000000000000000000000000000000000000000000000000000000000000000000000000000000000000000000000000000000000000000000000000000000000000000000000000000000000000000",
                    "coinbase" : "0x2adc25665018aa1fe0e6bc666dac8fc2697ff9ba",
                    "difficulty" : "0x020000",
                    "extraData" : "",
                    "gasLimit" : "0x7fffffffffffffff",
                    "gasUsed" : "0x5c55",
                    "hash" : "0x599c19cfd50a369c361c85c08a5e4143ea2ccbe92f43066b77575ccbb0a388b5",
                    "mixHash" : "0x9ca86afff47ad6b8dabf6dee0b97c520c81954d9c33036bfcb0267c9627e8a56",
                    "nonce" : "0xa07a5afac2ac63e2",
                    "number" : "0x01",
                    "parentHash" : "0xa8b4f02ce7cac2047999dda3f507d46c68188dce95ae4e74c490a2d57c5f795e",
                    "receiptTrie" : "0x64b3a924f0f69c2da8a6300fc06ad18ac990be16e7076d7f3305a6d3df1cf709",
                    "stateRoot" : "0x3126e5162dfe56f37372bfa55c34f7de5ca9fda402e0c327da3785da4ba3c105",
                    "timestamp" : "0x03e8",
                    "transactionsTrie" : "0x76660905a74ef4a24b19295d8740a349b1170d3298118106201d43cd7886afbf",
                    "uncleHash" : "0x1dcc4de8dec75d7aab85b567b6ccd41ad312451b948a7413f0a142fd40d49347"
                },
                "rlp" : "0xf902c5f901fca0a8b4f02ce7cac2047999dda3f507d46c68188dce95ae4e74c490a2d57c5f795ea01dcc4de8dec75d7aab85b567b6ccd41ad312451b948a7413f0a142fd40d49347942adc25665018aa1fe0e6bc666dac8fc2697ff9baa03126e5162dfe56f37372bfa55c34f7de5ca9fda402e0c327da3785da4ba3c105a076660905a74ef4a24b19295d8740a349b1170d3298118106201d43cd7886afbfa064b3a924f0f69c2da8a6300fc06ad18ac990be16e7076d7f3305a6d3df1cf709b90100000000000000000000000000000000000000000000000000000000000000000000000000000000000000000000000000000000000000000000000000000000000000000000000000000000000000000000000000000000000000000000000000000000000000000000000000000000000000000000000000000000000000000000000000000000000000000000000000000000000000000000000000000000000000000000000000000000000000000000000000000000000000000000000000000000000000000000000000000000000000000000000000000000000000000000000000000000000000000000000000000000000000000000000000000000008302000001887fffffffffffffff825c558203e880a09ca86afff47ad6b8dabf6dee0b97c520c81954d9c33036bfcb0267c9627e8a5688a07a5afac2ac63e2f8c3f8c1800183030d40941baf27b88c48dd02b744999cf3522766929d2b2a80b86000000000000000000000000000000000000000000000000000000000000bc03712fac13c68425054e372b0861af05648614d69d32800fba9ad4522238d4b937a00000000000000000000000000000000000000000000000000000000000000001ca03d55a2ac293c7ad82632b18705e67ad2a0e6177d44f601dca043934c8cd8c07aa01c069ed47162b350a1f496e9a55f53685189e9c3076a4931334a43719b9a158ec0",
                "transactions" : [
                    {
                        "data" : "0x00000000000000000000000000000000000000000000000000000000000bc03712fac13c68425054e372b0861af05648614d69d32800fba9ad4522238d4b937a0000000000000000000000000000000000000000000000000000000000000000",
                        "gasLimit" : "0x030d40",
                        "gasPrice" : "0x01",
                        "nonce" : "0x00",
                        "r" : "0x3d55a2ac293c7ad82632b18705e67ad2a0e6177d44f601dca043934c8cd8c07a",
                        "s" : "0x1c069ed47162b350a1f496e9a55f53685189e9c3076a4931334a43719b9a158e",
                        "to" : "0x1baf27b88c48dd02b744999cf3522766929d2b2a",
                        "v" : "0x1c",
                        "value" : "0x00"
                    }
                ],
                "uncleHeaders" : [
                ]
            }
        ],
        "genesisBlockHeader" : {
            "bloom" : "0x00000000000000000000000000000000000000000000000000000000000000000000000000000000000000000000000000000000000000000000000000000000000000000000000000000000000000000000000000000000000000000000000000000000000000000000000000000000000000000000000000000000000000000000000000000000000000000000000000000000000000000000000000000000000000000000000000000000000000000000000000000000000000000000000000000000000000000000000000000000000000000000000000000000000000000000000000000000000000000000000000000000000000000000000000000000",
            "coinbase" : "0x2adc25665018aa1fe0e6bc666dac8fc2697ff9ba",
            "difficulty" : "0x020000",
            "extraData" : "0x42",
            "gasLimit" : "0x7fffffffffffffff",
            "gasUsed" : "0x00",
            "hash" : "0xa8b4f02ce7cac2047999dda3f507d46c68188dce95ae4e74c490a2d57c5f795e",
            "mixHash" : "0x56e81f171bcc55a6ff8345e692c0f86e5b48e01b996cadc001622fb5e363b421",
            "nonce" : "0x0102030405060708",
            "number" : "0x00",
            "parentHash" : "0x0000000000000000000000000000000000000000000000000000000000000000",
            "receiptTrie" : "0x56e81f171bcc55a6ff8345e692c0f86e5b48e01b996cadc001622fb5e363b421",
            "stateRoot" : "0x423c3994e5db8348336dd13c498b840988ea7f716a0b876af847c6b8a3446e43",
            "timestamp" : "0x03b6",
            "transactionsTrie" : "0x56e81f171bcc55a6ff8345e692c0f86e5b48e01b996cadc001622fb5e363b421",
            "uncleHash" : "0x1dcc4de8dec75d7aab85b567b6ccd41ad312451b948a7413f0a142fd40d49347"
        },
        "genesisRLP" : "0xf901fff901faa00000000000000000000000000000000000000000000000000000000000000000a01dcc4de8dec75d7aab85b567b6ccd41ad312451b948a7413f0a142fd40d49347942adc25665018aa1fe0e6bc666dac8fc2697ff9baa0423c3994e5db8348336dd13c498b840988ea7f716a0b876af847c6b8a3446e43a056e81f171bcc55a6ff8345e692c0f86e5b48e01b996cadc001622fb5e363b421a056e81f171bcc55a6ff8345e692c0f86e5b48e01b996cadc001622fb5e363b421b90100000000000000000000000000000000000000000000000000000000000000000000000000000000000000000000000000000000000000000000000000000000000000000000000000000000000000000000000000000000000000000000000000000000000000000000000000000000000000000000000000000000000000000000000000000000000000000000000000000000000000000000000000000000000000000000000000000000000000000000000000000000000000000000000000000000000000000000000000000000000000000000000000000000000000000000000000000000000000000000000000000000000000000000000000000000008302000080887fffffffffffffff808203b642a056e81f171bcc55a6ff8345e692c0f86e5b48e01b996cadc001622fb5e363b421880102030405060708c0c0",
        "lastblockhash" : "0x599c19cfd50a369c361c85c08a5e4143ea2ccbe92f43066b77575ccbb0a388b5",
        "network" : "EIP150",
        "postState" : {
            "0x1baf27b88c48dd02b744999cf3522766929d2b2a" : {
                "balance" : "0x03e8",
                "code" : "0x600073a94f5374fce5edbc8e2a8697c15331677e6ebf0b3314156023573540602035145b15602e576040356000555b",
                "nonce" : "0x00",
                "storage" : {
                }
            },
            "0x2adc25665018aa1fe0e6bc666dac8fc2697ff9ba" : {
                "balance" : "0x4563918244f45c55",
                "code" : "",
                "nonce" : "0x00",
                "storage" : {
                }
            },
            "0xa94f5374fce5edbc8e2a8697c15331677e6ebf0b" : {
                "balance" : "0x1e282b",
                "code" : "",
                "nonce" : "0x01",
                "storage" : {
                }
            }
        },
        "pre" : {
            "0x1baf27b88c48dd02b744999cf3522766929d2b2a" : {
                "balance" : "0x03e8",
                "code" : "0x600073a94f5374fce5edbc8e2a8697c15331677e6ebf0b3314156023573540602035145b15602e576040356000555b",
                "nonce" : "0x00",
                "storage" : {
                }
            },
            "0xa94f5374fce5edbc8e2a8697c15331677e6ebf0b" : {
                "balance" : "0x1e8480",
                "code" : "",
                "nonce" : "0x00",
                "storage" : {
                }
            }
        }
    },
    "BadStateRootTxBC_d0g0v0_EIP158" : {
        "blocks" : [
            {
                "blockHeader" : {
                    "bloom" : "0x00000000000000000000000000000000000000000000000000000000000000000000000000000000000000000000000000000000000000000000000000000000000000000000000000000000000000000000000000000000000000000000000000000000000000000000000000000000000000000000000000000000000000000000000000000000000000000000000000000000000000000000000000000000000000000000000000000000000000000000000000000000000000000000000000000000000000000000000000000000000000000000000000000000000000000000000000000000000000000000000000000000000000000000000000000000",
                    "coinbase" : "0x2adc25665018aa1fe0e6bc666dac8fc2697ff9ba",
                    "difficulty" : "0x020000",
                    "extraData" : "",
                    "gasLimit" : "0x7fffffffffffffff",
                    "gasUsed" : "0x5c55",
                    "hash" : "0xf97b36e0cc9eaac59f617c60ac8cf946efc5cac61b29c8d302cc354a0fdedafa",
                    "mixHash" : "0x6d6209e7483185196050d3bdc1727df7a57f42f1120446ffc3a22b2d1435c4a7",
                    "nonce" : "0xf9fd106e24db5841",
                    "number" : "0x01",
                    "parentHash" : "0xa8b4f02ce7cac2047999dda3f507d46c68188dce95ae4e74c490a2d57c5f795e",
                    "receiptTrie" : "0x64b3a924f0f69c2da8a6300fc06ad18ac990be16e7076d7f3305a6d3df1cf709",
                    "stateRoot" : "0x3126e5162dfe56f37372bfa55c34f7de5ca9fda402e0c327da3785da4ba3c105",
                    "timestamp" : "0x03e8",
                    "transactionsTrie" : "0x76660905a74ef4a24b19295d8740a349b1170d3298118106201d43cd7886afbf",
                    "uncleHash" : "0x1dcc4de8dec75d7aab85b567b6ccd41ad312451b948a7413f0a142fd40d49347"
                },
                "rlp" : "0xf902c5f901fca0a8b4f02ce7cac2047999dda3f507d46c68188dce95ae4e74c490a2d57c5f795ea01dcc4de8dec75d7aab85b567b6ccd41ad312451b948a7413f0a142fd40d49347942adc25665018aa1fe0e6bc666dac8fc2697ff9baa03126e5162dfe56f37372bfa55c34f7de5ca9fda402e0c327da3785da4ba3c105a076660905a74ef4a24b19295d8740a349b1170d3298118106201d43cd7886afbfa064b3a924f0f69c2da8a6300fc06ad18ac990be16e7076d7f3305a6d3df1cf709b90100000000000000000000000000000000000000000000000000000000000000000000000000000000000000000000000000000000000000000000000000000000000000000000000000000000000000000000000000000000000000000000000000000000000000000000000000000000000000000000000000000000000000000000000000000000000000000000000000000000000000000000000000000000000000000000000000000000000000000000000000000000000000000000000000000000000000000000000000000000000000000000000000000000000000000000000000000000000000000000000000000000000000000000000000000000008302000001887fffffffffffffff825c558203e880a06d6209e7483185196050d3bdc1727df7a57f42f1120446ffc3a22b2d1435c4a788f9fd106e24db5841f8c3f8c1800183030d40941baf27b88c48dd02b744999cf3522766929d2b2a80b86000000000000000000000000000000000000000000000000000000000000bc03712fac13c68425054e372b0861af05648614d69d32800fba9ad4522238d4b937a00000000000000000000000000000000000000000000000000000000000000001ca03d55a2ac293c7ad82632b18705e67ad2a0e6177d44f601dca043934c8cd8c07aa01c069ed47162b350a1f496e9a55f53685189e9c3076a4931334a43719b9a158ec0",
                "transactions" : [
                    {
                        "data" : "0x00000000000000000000000000000000000000000000000000000000000bc03712fac13c68425054e372b0861af05648614d69d32800fba9ad4522238d4b937a0000000000000000000000000000000000000000000000000000000000000000",
                        "gasLimit" : "0x030d40",
                        "gasPrice" : "0x01",
                        "nonce" : "0x00",
                        "r" : "0x3d55a2ac293c7ad82632b18705e67ad2a0e6177d44f601dca043934c8cd8c07a",
                        "s" : "0x1c069ed47162b350a1f496e9a55f53685189e9c3076a4931334a43719b9a158e",
                        "to" : "0x1baf27b88c48dd02b744999cf3522766929d2b2a",
                        "v" : "0x1c",
                        "value" : "0x00"
                    }
                ],
                "uncleHeaders" : [
                ]
            }
        ],
        "genesisBlockHeader" : {
            "bloom" : "0x00000000000000000000000000000000000000000000000000000000000000000000000000000000000000000000000000000000000000000000000000000000000000000000000000000000000000000000000000000000000000000000000000000000000000000000000000000000000000000000000000000000000000000000000000000000000000000000000000000000000000000000000000000000000000000000000000000000000000000000000000000000000000000000000000000000000000000000000000000000000000000000000000000000000000000000000000000000000000000000000000000000000000000000000000000000",
            "coinbase" : "0x2adc25665018aa1fe0e6bc666dac8fc2697ff9ba",
            "difficulty" : "0x020000",
            "extraData" : "0x42",
            "gasLimit" : "0x7fffffffffffffff",
            "gasUsed" : "0x00",
            "hash" : "0xa8b4f02ce7cac2047999dda3f507d46c68188dce95ae4e74c490a2d57c5f795e",
            "mixHash" : "0x56e81f171bcc55a6ff8345e692c0f86e5b48e01b996cadc001622fb5e363b421",
            "nonce" : "0x0102030405060708",
            "number" : "0x00",
            "parentHash" : "0x0000000000000000000000000000000000000000000000000000000000000000",
            "receiptTrie" : "0x56e81f171bcc55a6ff8345e692c0f86e5b48e01b996cadc001622fb5e363b421",
            "stateRoot" : "0x423c3994e5db8348336dd13c498b840988ea7f716a0b876af847c6b8a3446e43",
            "timestamp" : "0x03b6",
            "transactionsTrie" : "0x56e81f171bcc55a6ff8345e692c0f86e5b48e01b996cadc001622fb5e363b421",
            "uncleHash" : "0x1dcc4de8dec75d7aab85b567b6ccd41ad312451b948a7413f0a142fd40d49347"
        },
        "genesisRLP" : "0xf901fff901faa00000000000000000000000000000000000000000000000000000000000000000a01dcc4de8dec75d7aab85b567b6ccd41ad312451b948a7413f0a142fd40d49347942adc25665018aa1fe0e6bc666dac8fc2697ff9baa0423c3994e5db8348336dd13c498b840988ea7f716a0b876af847c6b8a3446e43a056e81f171bcc55a6ff8345e692c0f86e5b48e01b996cadc001622fb5e363b421a056e81f171bcc55a6ff8345e692c0f86e5b48e01b996cadc001622fb5e363b421b90100000000000000000000000000000000000000000000000000000000000000000000000000000000000000000000000000000000000000000000000000000000000000000000000000000000000000000000000000000000000000000000000000000000000000000000000000000000000000000000000000000000000000000000000000000000000000000000000000000000000000000000000000000000000000000000000000000000000000000000000000000000000000000000000000000000000000000000000000000000000000000000000000000000000000000000000000000000000000000000000000000000000000000000000000000000008302000080887fffffffffffffff808203b642a056e81f171bcc55a6ff8345e692c0f86e5b48e01b996cadc001622fb5e363b421880102030405060708c0c0",
        "lastblockhash" : "0xf97b36e0cc9eaac59f617c60ac8cf946efc5cac61b29c8d302cc354a0fdedafa",
        "network" : "EIP158",
        "postState" : {
            "0x1baf27b88c48dd02b744999cf3522766929d2b2a" : {
                "balance" : "0x03e8",
                "code" : "0x600073a94f5374fce5edbc8e2a8697c15331677e6ebf0b3314156023573540602035145b15602e576040356000555b",
                "nonce" : "0x00",
                "storage" : {
                }
            },
            "0x2adc25665018aa1fe0e6bc666dac8fc2697ff9ba" : {
                "balance" : "0x4563918244f45c55",
                "code" : "",
                "nonce" : "0x00",
                "storage" : {
                }
            },
            "0xa94f5374fce5edbc8e2a8697c15331677e6ebf0b" : {
                "balance" : "0x1e282b",
                "code" : "",
                "nonce" : "0x01",
                "storage" : {
                }
            }
        },
        "pre" : {
            "0x1baf27b88c48dd02b744999cf3522766929d2b2a" : {
                "balance" : "0x03e8",
                "code" : "0x600073a94f5374fce5edbc8e2a8697c15331677e6ebf0b3314156023573540602035145b15602e576040356000555b",
                "nonce" : "0x00",
                "storage" : {
                }
            },
            "0xa94f5374fce5edbc8e2a8697c15331677e6ebf0b" : {
                "balance" : "0x1e8480",
                "code" : "",
                "nonce" : "0x00",
                "storage" : {
                }
            }
        }
    },
    "BadStateRootTxBC_d0g0v0_Frontier" : {
        "blocks" : [
            {
                "blockHeader" : {
                    "bloom" : "0x00000000000000000000000000000000000000000000000000000000000000000000000000000000000000000000000000000000000000000000000000000000000000000000000000000000000000000000000000000000000000000000000000000000000000000000000000000000000000000000000000000000000000000000000000000000000000000000000000000000000000000000000000000000000000000000000000000000000000000000000000000000000000000000000000000000000000000000000000000000000000000000000000000000000000000000000000000000000000000000000000000000000000000000000000000000",
                    "coinbase" : "0x2adc25665018aa1fe0e6bc666dac8fc2697ff9ba",
                    "difficulty" : "0x020000",
                    "extraData" : "",
                    "gasLimit" : "0x7fffffffffffffff",
                    "gasUsed" : "0x5c55",
                    "hash" : "0xc5e6a319e4a6aecfafc0a0518ce948e1e5a5ac9a31ef53b1d37d852c1dab3630",
                    "mixHash" : "0xe82832a9650ebb49c91ce2d81e4e4e18c12d4114a3308f24018de4c22d199618",
                    "nonce" : "0xa623b572cf04730d",
                    "number" : "0x01",
                    "parentHash" : "0xa8b4f02ce7cac2047999dda3f507d46c68188dce95ae4e74c490a2d57c5f795e",
                    "receiptTrie" : "0x64b3a924f0f69c2da8a6300fc06ad18ac990be16e7076d7f3305a6d3df1cf709",
                    "stateRoot" : "0x3126e5162dfe56f37372bfa55c34f7de5ca9fda402e0c327da3785da4ba3c105",
                    "timestamp" : "0x03e8",
                    "transactionsTrie" : "0x76660905a74ef4a24b19295d8740a349b1170d3298118106201d43cd7886afbf",
                    "uncleHash" : "0x1dcc4de8dec75d7aab85b567b6ccd41ad312451b948a7413f0a142fd40d49347"
                },
                "rlp" : "0xf902c5f901fca0a8b4f02ce7cac2047999dda3f507d46c68188dce95ae4e74c490a2d57c5f795ea01dcc4de8dec75d7aab85b567b6ccd41ad312451b948a7413f0a142fd40d49347942adc25665018aa1fe0e6bc666dac8fc2697ff9baa03126e5162dfe56f37372bfa55c34f7de5ca9fda402e0c327da3785da4ba3c105a076660905a74ef4a24b19295d8740a349b1170d3298118106201d43cd7886afbfa064b3a924f0f69c2da8a6300fc06ad18ac990be16e7076d7f3305a6d3df1cf709b90100000000000000000000000000000000000000000000000000000000000000000000000000000000000000000000000000000000000000000000000000000000000000000000000000000000000000000000000000000000000000000000000000000000000000000000000000000000000000000000000000000000000000000000000000000000000000000000000000000000000000000000000000000000000000000000000000000000000000000000000000000000000000000000000000000000000000000000000000000000000000000000000000000000000000000000000000000000000000000000000000000000000000000000000000000000008302000001887fffffffffffffff825c558203e880a0e82832a9650ebb49c91ce2d81e4e4e18c12d4114a3308f24018de4c22d19961888a623b572cf04730df8c3f8c1800183030d40941baf27b88c48dd02b744999cf3522766929d2b2a80b86000000000000000000000000000000000000000000000000000000000000bc03712fac13c68425054e372b0861af05648614d69d32800fba9ad4522238d4b937a00000000000000000000000000000000000000000000000000000000000000001ca03d55a2ac293c7ad82632b18705e67ad2a0e6177d44f601dca043934c8cd8c07aa01c069ed47162b350a1f496e9a55f53685189e9c3076a4931334a43719b9a158ec0",
                "transactions" : [
                    {
                        "data" : "0x00000000000000000000000000000000000000000000000000000000000bc03712fac13c68425054e372b0861af05648614d69d32800fba9ad4522238d4b937a0000000000000000000000000000000000000000000000000000000000000000",
                        "gasLimit" : "0x030d40",
                        "gasPrice" : "0x01",
                        "nonce" : "0x00",
                        "r" : "0x3d55a2ac293c7ad82632b18705e67ad2a0e6177d44f601dca043934c8cd8c07a",
                        "s" : "0x1c069ed47162b350a1f496e9a55f53685189e9c3076a4931334a43719b9a158e",
                        "to" : "0x1baf27b88c48dd02b744999cf3522766929d2b2a",
                        "v" : "0x1c",
                        "value" : "0x00"
                    }
                ],
                "uncleHeaders" : [
                ]
            }
        ],
        "genesisBlockHeader" : {
            "bloom" : "0x00000000000000000000000000000000000000000000000000000000000000000000000000000000000000000000000000000000000000000000000000000000000000000000000000000000000000000000000000000000000000000000000000000000000000000000000000000000000000000000000000000000000000000000000000000000000000000000000000000000000000000000000000000000000000000000000000000000000000000000000000000000000000000000000000000000000000000000000000000000000000000000000000000000000000000000000000000000000000000000000000000000000000000000000000000000",
            "coinbase" : "0x2adc25665018aa1fe0e6bc666dac8fc2697ff9ba",
            "difficulty" : "0x020000",
            "extraData" : "0x42",
            "gasLimit" : "0x7fffffffffffffff",
            "gasUsed" : "0x00",
            "hash" : "0xa8b4f02ce7cac2047999dda3f507d46c68188dce95ae4e74c490a2d57c5f795e",
            "mixHash" : "0x56e81f171bcc55a6ff8345e692c0f86e5b48e01b996cadc001622fb5e363b421",
            "nonce" : "0x0102030405060708",
            "number" : "0x00",
            "parentHash" : "0x0000000000000000000000000000000000000000000000000000000000000000",
            "receiptTrie" : "0x56e81f171bcc55a6ff8345e692c0f86e5b48e01b996cadc001622fb5e363b421",
            "stateRoot" : "0x423c3994e5db8348336dd13c498b840988ea7f716a0b876af847c6b8a3446e43",
            "timestamp" : "0x03b6",
            "transactionsTrie" : "0x56e81f171bcc55a6ff8345e692c0f86e5b48e01b996cadc001622fb5e363b421",
            "uncleHash" : "0x1dcc4de8dec75d7aab85b567b6ccd41ad312451b948a7413f0a142fd40d49347"
        },
        "genesisRLP" : "0xf901fff901faa00000000000000000000000000000000000000000000000000000000000000000a01dcc4de8dec75d7aab85b567b6ccd41ad312451b948a7413f0a142fd40d49347942adc25665018aa1fe0e6bc666dac8fc2697ff9baa0423c3994e5db8348336dd13c498b840988ea7f716a0b876af847c6b8a3446e43a056e81f171bcc55a6ff8345e692c0f86e5b48e01b996cadc001622fb5e363b421a056e81f171bcc55a6ff8345e692c0f86e5b48e01b996cadc001622fb5e363b421b90100000000000000000000000000000000000000000000000000000000000000000000000000000000000000000000000000000000000000000000000000000000000000000000000000000000000000000000000000000000000000000000000000000000000000000000000000000000000000000000000000000000000000000000000000000000000000000000000000000000000000000000000000000000000000000000000000000000000000000000000000000000000000000000000000000000000000000000000000000000000000000000000000000000000000000000000000000000000000000000000000000000000000000000000000000000008302000080887fffffffffffffff808203b642a056e81f171bcc55a6ff8345e692c0f86e5b48e01b996cadc001622fb5e363b421880102030405060708c0c0",
        "lastblockhash" : "0xc5e6a319e4a6aecfafc0a0518ce948e1e5a5ac9a31ef53b1d37d852c1dab3630",
        "network" : "Frontier",
        "postState" : {
            "0x1baf27b88c48dd02b744999cf3522766929d2b2a" : {
                "balance" : "0x03e8",
                "code" : "0x600073a94f5374fce5edbc8e2a8697c15331677e6ebf0b3314156023573540602035145b15602e576040356000555b",
                "nonce" : "0x00",
                "storage" : {
                }
            },
            "0x2adc25665018aa1fe0e6bc666dac8fc2697ff9ba" : {
                "balance" : "0x4563918244f45c55",
                "code" : "",
                "nonce" : "0x00",
                "storage" : {
                }
            },
            "0xa94f5374fce5edbc8e2a8697c15331677e6ebf0b" : {
                "balance" : "0x1e282b",
                "code" : "",
                "nonce" : "0x01",
                "storage" : {
                }
            }
        },
        "pre" : {
            "0x1baf27b88c48dd02b744999cf3522766929d2b2a" : {
                "balance" : "0x03e8",
                "code" : "0x600073a94f5374fce5edbc8e2a8697c15331677e6ebf0b3314156023573540602035145b15602e576040356000555b",
                "nonce" : "0x00",
                "storage" : {
                }
            },
            "0xa94f5374fce5edbc8e2a8697c15331677e6ebf0b" : {
                "balance" : "0x1e8480",
                "code" : "",
                "nonce" : "0x00",
                "storage" : {
                }
            }
        }
    },
    "BadStateRootTxBC_d0g0v0_Homestead" : {
        "blocks" : [
            {
                "blockHeader" : {
                    "bloom" : "0x00000000000000000000000000000000000000000000000000000000000000000000000000000000000000000000000000000000000000000000000000000000000000000000000000000000000000000000000000000000000000000000000000000000000000000000000000000000000000000000000000000000000000000000000000000000000000000000000000000000000000000000000000000000000000000000000000000000000000000000000000000000000000000000000000000000000000000000000000000000000000000000000000000000000000000000000000000000000000000000000000000000000000000000000000000000",
                    "coinbase" : "0x2adc25665018aa1fe0e6bc666dac8fc2697ff9ba",
                    "difficulty" : "0x020000",
                    "extraData" : "",
                    "gasLimit" : "0x7fffffffffffffff",
                    "gasUsed" : "0x5c55",
                    "hash" : "0x122bca3474cc8494cd1f782b0715b6fc28d215113887d62d0beb5e2121dd844c",
                    "mixHash" : "0x22454fa0a3590665e4b63174e48779edf4b5325682320acd5e4d3300228d14df",
                    "nonce" : "0x5dd308e50cf4d690",
                    "number" : "0x01",
                    "parentHash" : "0xa8b4f02ce7cac2047999dda3f507d46c68188dce95ae4e74c490a2d57c5f795e",
                    "receiptTrie" : "0x64b3a924f0f69c2da8a6300fc06ad18ac990be16e7076d7f3305a6d3df1cf709",
                    "stateRoot" : "0x3126e5162dfe56f37372bfa55c34f7de5ca9fda402e0c327da3785da4ba3c105",
                    "timestamp" : "0x03e8",
                    "transactionsTrie" : "0x76660905a74ef4a24b19295d8740a349b1170d3298118106201d43cd7886afbf",
                    "uncleHash" : "0x1dcc4de8dec75d7aab85b567b6ccd41ad312451b948a7413f0a142fd40d49347"
                },
                "rlp" : "0xf902c5f901fca0a8b4f02ce7cac2047999dda3f507d46c68188dce95ae4e74c490a2d57c5f795ea01dcc4de8dec75d7aab85b567b6ccd41ad312451b948a7413f0a142fd40d49347942adc25665018aa1fe0e6bc666dac8fc2697ff9baa03126e5162dfe56f37372bfa55c34f7de5ca9fda402e0c327da3785da4ba3c105a076660905a74ef4a24b19295d8740a349b1170d3298118106201d43cd7886afbfa064b3a924f0f69c2da8a6300fc06ad18ac990be16e7076d7f3305a6d3df1cf709b90100000000000000000000000000000000000000000000000000000000000000000000000000000000000000000000000000000000000000000000000000000000000000000000000000000000000000000000000000000000000000000000000000000000000000000000000000000000000000000000000000000000000000000000000000000000000000000000000000000000000000000000000000000000000000000000000000000000000000000000000000000000000000000000000000000000000000000000000000000000000000000000000000000000000000000000000000000000000000000000000000000000000000000000000000000000008302000001887fffffffffffffff825c558203e880a022454fa0a3590665e4b63174e48779edf4b5325682320acd5e4d3300228d14df885dd308e50cf4d690f8c3f8c1800183030d40941baf27b88c48dd02b744999cf3522766929d2b2a80b86000000000000000000000000000000000000000000000000000000000000bc03712fac13c68425054e372b0861af05648614d69d32800fba9ad4522238d4b937a00000000000000000000000000000000000000000000000000000000000000001ca03d55a2ac293c7ad82632b18705e67ad2a0e6177d44f601dca043934c8cd8c07aa01c069ed47162b350a1f496e9a55f53685189e9c3076a4931334a43719b9a158ec0",
                "transactions" : [
                    {
                        "data" : "0x00000000000000000000000000000000000000000000000000000000000bc03712fac13c68425054e372b0861af05648614d69d32800fba9ad4522238d4b937a0000000000000000000000000000000000000000000000000000000000000000",
                        "gasLimit" : "0x030d40",
                        "gasPrice" : "0x01",
                        "nonce" : "0x00",
                        "r" : "0x3d55a2ac293c7ad82632b18705e67ad2a0e6177d44f601dca043934c8cd8c07a",
                        "s" : "0x1c069ed47162b350a1f496e9a55f53685189e9c3076a4931334a43719b9a158e",
                        "to" : "0x1baf27b88c48dd02b744999cf3522766929d2b2a",
                        "v" : "0x1c",
                        "value" : "0x00"
                    }
                ],
                "uncleHeaders" : [
                ]
            }
        ],
        "genesisBlockHeader" : {
            "bloom" : "0x00000000000000000000000000000000000000000000000000000000000000000000000000000000000000000000000000000000000000000000000000000000000000000000000000000000000000000000000000000000000000000000000000000000000000000000000000000000000000000000000000000000000000000000000000000000000000000000000000000000000000000000000000000000000000000000000000000000000000000000000000000000000000000000000000000000000000000000000000000000000000000000000000000000000000000000000000000000000000000000000000000000000000000000000000000000",
            "coinbase" : "0x2adc25665018aa1fe0e6bc666dac8fc2697ff9ba",
            "difficulty" : "0x020000",
            "extraData" : "0x42",
            "gasLimit" : "0x7fffffffffffffff",
            "gasUsed" : "0x00",
            "hash" : "0xa8b4f02ce7cac2047999dda3f507d46c68188dce95ae4e74c490a2d57c5f795e",
            "mixHash" : "0x56e81f171bcc55a6ff8345e692c0f86e5b48e01b996cadc001622fb5e363b421",
            "nonce" : "0x0102030405060708",
            "number" : "0x00",
            "parentHash" : "0x0000000000000000000000000000000000000000000000000000000000000000",
            "receiptTrie" : "0x56e81f171bcc55a6ff8345e692c0f86e5b48e01b996cadc001622fb5e363b421",
            "stateRoot" : "0x423c3994e5db8348336dd13c498b840988ea7f716a0b876af847c6b8a3446e43",
            "timestamp" : "0x03b6",
            "transactionsTrie" : "0x56e81f171bcc55a6ff8345e692c0f86e5b48e01b996cadc001622fb5e363b421",
            "uncleHash" : "0x1dcc4de8dec75d7aab85b567b6ccd41ad312451b948a7413f0a142fd40d49347"
        },
        "genesisRLP" : "0xf901fff901faa00000000000000000000000000000000000000000000000000000000000000000a01dcc4de8dec75d7aab85b567b6ccd41ad312451b948a7413f0a142fd40d49347942adc25665018aa1fe0e6bc666dac8fc2697ff9baa0423c3994e5db8348336dd13c498b840988ea7f716a0b876af847c6b8a3446e43a056e81f171bcc55a6ff8345e692c0f86e5b48e01b996cadc001622fb5e363b421a056e81f171bcc55a6ff8345e692c0f86e5b48e01b996cadc001622fb5e363b421b90100000000000000000000000000000000000000000000000000000000000000000000000000000000000000000000000000000000000000000000000000000000000000000000000000000000000000000000000000000000000000000000000000000000000000000000000000000000000000000000000000000000000000000000000000000000000000000000000000000000000000000000000000000000000000000000000000000000000000000000000000000000000000000000000000000000000000000000000000000000000000000000000000000000000000000000000000000000000000000000000000000000000000000000000000000000008302000080887fffffffffffffff808203b642a056e81f171bcc55a6ff8345e692c0f86e5b48e01b996cadc001622fb5e363b421880102030405060708c0c0",
        "lastblockhash" : "0x122bca3474cc8494cd1f782b0715b6fc28d215113887d62d0beb5e2121dd844c",
        "network" : "Homestead",
        "postState" : {
            "0x1baf27b88c48dd02b744999cf3522766929d2b2a" : {
                "balance" : "0x03e8",
                "code" : "0x600073a94f5374fce5edbc8e2a8697c15331677e6ebf0b3314156023573540602035145b15602e576040356000555b",
                "nonce" : "0x00",
                "storage" : {
                }
            },
            "0x2adc25665018aa1fe0e6bc666dac8fc2697ff9ba" : {
                "balance" : "0x4563918244f45c55",
                "code" : "",
                "nonce" : "0x00",
                "storage" : {
                }
            },
            "0xa94f5374fce5edbc8e2a8697c15331677e6ebf0b" : {
                "balance" : "0x1e282b",
                "code" : "",
                "nonce" : "0x01",
                "storage" : {
                }
            }
        },
        "pre" : {
            "0x1baf27b88c48dd02b744999cf3522766929d2b2a" : {
                "balance" : "0x03e8",
                "code" : "0x600073a94f5374fce5edbc8e2a8697c15331677e6ebf0b3314156023573540602035145b15602e576040356000555b",
                "nonce" : "0x00",
                "storage" : {
                }
            },
            "0xa94f5374fce5edbc8e2a8697c15331677e6ebf0b" : {
                "balance" : "0x1e8480",
                "code" : "",
                "nonce" : "0x00",
                "storage" : {
                }
            }
        }
    },
    "BadStateRootTxBC_d0g0v0_Metropolis" : {
        "blocks" : [
            {
                "blockHeader" : {
                    "bloom" : "0x00000000000000000000000000000000000000000000000000000000000000000000000000000000000000000000000000000000000000000000000000000000000000000000000000000000000000000000000000000000000000000000000000000000000000000000000000000000000000000000000000000000000000000000000000000000000000000000000000000000000000000000000000000000000000000000000000000000000000000000000000000000000000000000000000000000000000000000000000000000000000000000000000000000000000000000000000000000000000000000000000000000000000000000000000000000",
                    "coinbase" : "0x2adc25665018aa1fe0e6bc666dac8fc2697ff9ba",
                    "difficulty" : "0x020000",
                    "extraData" : "",
                    "gasLimit" : "0x7fffffffffffffff",
                    "gasUsed" : "0x5f61",
                    "hash" : "0x4c0e151424c3b6ef04781e4cbf1cf24d75cf97f2aad7c011de08872abbfd211c",
                    "mixHash" : "0x447a663daafdc962816f3199129906598eced17828c1bc9fc3eb7de8e4b36ad5",
                    "nonce" : "0x2895d30b28205f40",
                    "number" : "0x01",
                    "parentHash" : "0xa8b4f02ce7cac2047999dda3f507d46c68188dce95ae4e74c490a2d57c5f795e",
                    "receiptTrie" : "0xa7ded80c8dbd8b0dc1de0221f9a4731bcce738f962fc57738b3331ab0ace7908",
                    "stateRoot" : "0x3c96ef2a7d618f31baf648d70b5e57c78510020758f68741dc39657736bfaccd",
                    "timestamp" : "0x03e8",
                    "transactionsTrie" : "0x76660905a74ef4a24b19295d8740a349b1170d3298118106201d43cd7886afbf",
                    "uncleHash" : "0x1dcc4de8dec75d7aab85b567b6ccd41ad312451b948a7413f0a142fd40d49347"
                },
                "rlp" : "0xf902c5f901fca0a8b4f02ce7cac2047999dda3f507d46c68188dce95ae4e74c490a2d57c5f795ea01dcc4de8dec75d7aab85b567b6ccd41ad312451b948a7413f0a142fd40d49347942adc25665018aa1fe0e6bc666dac8fc2697ff9baa03c96ef2a7d618f31baf648d70b5e57c78510020758f68741dc39657736bfaccda076660905a74ef4a24b19295d8740a349b1170d3298118106201d43cd7886afbfa0a7ded80c8dbd8b0dc1de0221f9a4731bcce738f962fc57738b3331ab0ace7908b90100000000000000000000000000000000000000000000000000000000000000000000000000000000000000000000000000000000000000000000000000000000000000000000000000000000000000000000000000000000000000000000000000000000000000000000000000000000000000000000000000000000000000000000000000000000000000000000000000000000000000000000000000000000000000000000000000000000000000000000000000000000000000000000000000000000000000000000000000000000000000000000000000000000000000000000000000000000000000000000000000000000000000000000000000000000008302000001887fffffffffffffff825f618203e880a0447a663daafdc962816f3199129906598eced17828c1bc9fc3eb7de8e4b36ad5882895d30b28205f40f8c3f8c1800183030d40941baf27b88c48dd02b744999cf3522766929d2b2a80b86000000000000000000000000000000000000000000000000000000000000bc03712fac13c68425054e372b0861af05648614d69d32800fba9ad4522238d4b937a00000000000000000000000000000000000000000000000000000000000000001ca03d55a2ac293c7ad82632b18705e67ad2a0e6177d44f601dca043934c8cd8c07aa01c069ed47162b350a1f496e9a55f53685189e9c3076a4931334a43719b9a158ec0",
                "transactions" : [
                    {
                        "data" : "0x00000000000000000000000000000000000000000000000000000000000bc03712fac13c68425054e372b0861af05648614d69d32800fba9ad4522238d4b937a0000000000000000000000000000000000000000000000000000000000000000",
                        "gasLimit" : "0x030d40",
                        "gasPrice" : "0x01",
                        "nonce" : "0x00",
                        "r" : "0x3d55a2ac293c7ad82632b18705e67ad2a0e6177d44f601dca043934c8cd8c07a",
                        "s" : "0x1c069ed47162b350a1f496e9a55f53685189e9c3076a4931334a43719b9a158e",
                        "to" : "0x1baf27b88c48dd02b744999cf3522766929d2b2a",
                        "v" : "0x1c",
                        "value" : "0x00"
                    }
                ],
                "uncleHeaders" : [
                ]
            }
        ],
        "genesisBlockHeader" : {
            "bloom" : "0x00000000000000000000000000000000000000000000000000000000000000000000000000000000000000000000000000000000000000000000000000000000000000000000000000000000000000000000000000000000000000000000000000000000000000000000000000000000000000000000000000000000000000000000000000000000000000000000000000000000000000000000000000000000000000000000000000000000000000000000000000000000000000000000000000000000000000000000000000000000000000000000000000000000000000000000000000000000000000000000000000000000000000000000000000000000",
            "coinbase" : "0x2adc25665018aa1fe0e6bc666dac8fc2697ff9ba",
            "difficulty" : "0x020000",
            "extraData" : "0x42",
            "gasLimit" : "0x7fffffffffffffff",
            "gasUsed" : "0x00",
            "hash" : "0xa8b4f02ce7cac2047999dda3f507d46c68188dce95ae4e74c490a2d57c5f795e",
            "mixHash" : "0x56e81f171bcc55a6ff8345e692c0f86e5b48e01b996cadc001622fb5e363b421",
            "nonce" : "0x0102030405060708",
            "number" : "0x00",
            "parentHash" : "0x0000000000000000000000000000000000000000000000000000000000000000",
            "receiptTrie" : "0x56e81f171bcc55a6ff8345e692c0f86e5b48e01b996cadc001622fb5e363b421",
            "stateRoot" : "0x423c3994e5db8348336dd13c498b840988ea7f716a0b876af847c6b8a3446e43",
            "timestamp" : "0x03b6",
            "transactionsTrie" : "0x56e81f171bcc55a6ff8345e692c0f86e5b48e01b996cadc001622fb5e363b421",
            "uncleHash" : "0x1dcc4de8dec75d7aab85b567b6ccd41ad312451b948a7413f0a142fd40d49347"
        },
        "genesisRLP" : "0xf901fff901faa00000000000000000000000000000000000000000000000000000000000000000a01dcc4de8dec75d7aab85b567b6ccd41ad312451b948a7413f0a142fd40d49347942adc25665018aa1fe0e6bc666dac8fc2697ff9baa0423c3994e5db8348336dd13c498b840988ea7f716a0b876af847c6b8a3446e43a056e81f171bcc55a6ff8345e692c0f86e5b48e01b996cadc001622fb5e363b421a056e81f171bcc55a6ff8345e692c0f86e5b48e01b996cadc001622fb5e363b421b90100000000000000000000000000000000000000000000000000000000000000000000000000000000000000000000000000000000000000000000000000000000000000000000000000000000000000000000000000000000000000000000000000000000000000000000000000000000000000000000000000000000000000000000000000000000000000000000000000000000000000000000000000000000000000000000000000000000000000000000000000000000000000000000000000000000000000000000000000000000000000000000000000000000000000000000000000000000000000000000000000000000000000000000000000000000008302000080887fffffffffffffff808203b642a056e81f171bcc55a6ff8345e692c0f86e5b48e01b996cadc001622fb5e363b421880102030405060708c0c0",
        "lastblockhash" : "0x4c0e151424c3b6ef04781e4cbf1cf24d75cf97f2aad7c011de08872abbfd211c",
        "network" : "Metropolis",
        "postState" : {
            "0x00000000000000000000000000000000000000f0" : {
                "balance" : "0x00",
                "code" : "",
                "nonce" : "0x00",
                "storage" : {
                }
            },
            "0x1baf27b88c48dd02b744999cf3522766929d2b2a" : {
                "balance" : "0x03e8",
                "code" : "0x600073a94f5374fce5edbc8e2a8697c15331677e6ebf0b3314156023573540602035145b15602e576040356000555b",
                "nonce" : "0x00",
                "storage" : {
                }
            },
            "0x2adc25665018aa1fe0e6bc666dac8fc2697ff9ba" : {
                "balance" : "0x4563918244f45f61",
                "code" : "",
                "nonce" : "0x00",
                "storage" : {
                }
            },
            "0xa94f5374fce5edbc8e2a8697c15331677e6ebf0b" : {
                "balance" : "0x1e251f",
                "code" : "",
                "nonce" : "0x01",
                "storage" : {
                }
            }
        },
        "pre" : {
            "0x1baf27b88c48dd02b744999cf3522766929d2b2a" : {
                "balance" : "0x03e8",
                "code" : "0x600073a94f5374fce5edbc8e2a8697c15331677e6ebf0b3314156023573540602035145b15602e576040356000555b",
                "nonce" : "0x00",
                "storage" : {
                }
            },
            "0xa94f5374fce5edbc8e2a8697c15331677e6ebf0b" : {
                "balance" : "0x1e8480",
                "code" : "",
                "nonce" : "0x00",
                "storage" : {
                }
            }
        }
    }
}