{
    "failed_tx_xcf416c53_d0g0v0_Berlin" : {
        "_info" : {
            "comment" : "",
            "filling-rpc-server" : "evm version 1.13.11-unstable-765f2904-20240124",
            "filling-tool-version" : "retesteth-0.3.2-cancun+commit.da14a80e.Linux.g++",
            "generatedTestHash" : "df28cd65f82340ac0bf0ec16e7fac3adf1820acd8be404cb92a390cb5499a60e",
            "lllcversion" : "Version: 0.5.14-develop.2023.7.11+commit.c58ab2c6.mod.Linux.g++",
            "solidity" : "Version: 0.8.21+commit.d9974bed.Linux.g++",
            "source" : "src/GeneralStateTestsFiller/stSpecialTest/failed_tx_xcf416c53Filler.json",
            "sourceHash" : "7512fd4d8dc8ec2aec4e465ab1999db9d28098e9de50f23a04e5890595685adc"
        },
        "blocks" : [
            {
                "blockHeader" : {
                    "bloom" : "0x00000000000000000000000000000000000000000000000000000000000000000000000000000000000000000000000000000000000000000000000000000000000000000000000000000000000000000000000000000000000000000000000000000000000000000000000000000000000000000000000000000000000000000000000000000000000000000000000000000000000000000000000000000000000000000000000000000000000000000000000000000000000000000000000000000000000000000000000000000000000000000000000000000000000000000000000000000000000000000000000000000000000000000000000000000000",
                    "coinbase" : "0x68795c4aa09d6f4ed3e5deddf8c2ad3049a601da",
                    "difficulty" : "0x020000",
                    "extraData" : "0x00",
                    "gasLimit" : "0x0bebc200",
                    "gasUsed" : "0x1c8bad",
                    "hash" : "0x0d941831af7514956a30afbc0be9a615edf6d80ddc3ca2a6f9b4e0770a5c77c4",
                    "mixHash" : "0x0000000000000000000000000000000000000000000000000000000000000000",
                    "nonce" : "0x0000000000000000",
                    "number" : "0x01",
                    "parentHash" : "0x62839401df8970ec70785f62e9e9d559b256a9a10b343baf6c064747b094de09",
                    "receiptTrie" : "0x920ed46051da94d53ca3b741bcdb69fda3e0cbbf9486318e479a0f8f733e54f2",
                    "stateRoot" : "0xb433b01ce593ccf77fe2998ed2a334b4f13236624f2304aea647ceb7c40c932d",
                    "timestamp" : "0x03e8",
                    "transactionsTrie" : "0xbc8d11625ad3004f4f63123d0efd97b7798ba258b68eb313e9aadd87f5594291",
                    "uncleHash" : "0x1dcc4de8dec75d7aab85b567b6ccd41ad312451b948a7413f0a142fd40d49347"
                },
                "rlp" : "0xf902a6f901f9a062839401df8970ec70785f62e9e9d559b256a9a10b343baf6c064747b094de09a01dcc4de8dec75d7aab85b567b6ccd41ad312451b948a7413f0a142fd40d493479468795c4aa09d6f4ed3e5deddf8c2ad3049a601daa0b433b01ce593ccf77fe2998ed2a334b4f13236624f2304aea647ceb7c40c932da0bc8d11625ad3004f4f63123d0efd97b7798ba258b68eb313e9aadd87f5594291a0920ed46051da94d53ca3b741bcdb69fda3e0cbbf9486318e479a0f8f733e54f2b90100000000000000000000000000000000000000000000000000000000000000000000000000000000000000000000000000000000000000000000000000000000000000000000000000000000000000000000000000000000000000000000000000000000000000000000000000000000000000000000000000000000000000000000000000000000000000000000000000000000000000000000000000000000000000000000000000000000000000000000000000000000000000000000000000000000000000000000000000000000000000000000000000000000000000000000000000000000000000000000000000000000000000000000000000000000008302000001840bebc200831c8bad8203e800a00000000000000000000000000000000000000000000000000000000000000000880000000000000000f8a7f8a5010a83f8b7e0940e879ae28cdddeb31a405a9db354505a5560b0bd80b84497dd3054000000000000000000000000000000000000000000000000000000000000000000000000000000000000000000000000000000000000000000000000000002bc1ca0c7168521175d9b3646f818d187da084790eb4353e0a01fe9beecd2e280a08fd7a0416e5ea499289dbf68e105e6c4f2881a2b87b73eca68a47b52d3476bf98a536bc0",
                "transactions" : [
                    {
                        "data" : "0x97dd3054000000000000000000000000000000000000000000000000000000000000000000000000000000000000000000000000000000000000000000000000000002bc",
                        "gasLimit" : "0xf8b7e0",
                        "gasPrice" : "0x0a",
                        "nonce" : "0x01",
                        "r" : "0xc7168521175d9b3646f818d187da084790eb4353e0a01fe9beecd2e280a08fd7",
                        "s" : "0x416e5ea499289dbf68e105e6c4f2881a2b87b73eca68a47b52d3476bf98a536b",
                        "sender" : "0xa94f5374fce5edbc8e2a8697c15331677e6ebf0b",
                        "to" : "0x0e879ae28cdddeb31a405a9db354505a5560b0bd",
                        "v" : "0x1c",
                        "value" : "0x00"
                    }
                ],
                "uncleHeaders" : [
                ]
            }
        ],
        "genesisBlockHeader" : {
            "bloom" : "0x00000000000000000000000000000000000000000000000000000000000000000000000000000000000000000000000000000000000000000000000000000000000000000000000000000000000000000000000000000000000000000000000000000000000000000000000000000000000000000000000000000000000000000000000000000000000000000000000000000000000000000000000000000000000000000000000000000000000000000000000000000000000000000000000000000000000000000000000000000000000000000000000000000000000000000000000000000000000000000000000000000000000000000000000000000000",
            "coinbase" : "0x68795c4aa09d6f4ed3e5deddf8c2ad3049a601da",
            "difficulty" : "0x020000",
            "extraData" : "0x00",
            "gasLimit" : "0x0bebc200",
            "gasUsed" : "0x00",
            "hash" : "0x62839401df8970ec70785f62e9e9d559b256a9a10b343baf6c064747b094de09",
            "mixHash" : "0x0000000000000000000000000000000000000000000000000000000000000000",
            "nonce" : "0x0000000000000000",
            "number" : "0x00",
            "parentHash" : "0x0000000000000000000000000000000000000000000000000000000000000000",
            "receiptTrie" : "0x56e81f171bcc55a6ff8345e692c0f86e5b48e01b996cadc001622fb5e363b421",
            "stateRoot" : "0x071f5dbe08f2a3b33b8c4a046998e5e5d7131356f95c13da91a2062236b92642",
            "timestamp" : "0x00",
            "transactionsTrie" : "0x56e81f171bcc55a6ff8345e692c0f86e5b48e01b996cadc001622fb5e363b421",
            "uncleHash" : "0x1dcc4de8dec75d7aab85b567b6ccd41ad312451b948a7413f0a142fd40d49347"
        },
        "genesisRLP" : "0xf901f9f901f4a00000000000000000000000000000000000000000000000000000000000000000a01dcc4de8dec75d7aab85b567b6ccd41ad312451b948a7413f0a142fd40d493479468795c4aa09d6f4ed3e5deddf8c2ad3049a601daa0071f5dbe08f2a3b33b8c4a046998e5e5d7131356f95c13da91a2062236b92642a056e81f171bcc55a6ff8345e692c0f86e5b48e01b996cadc001622fb5e363b421a056e81f171bcc55a6ff8345e692c0f86e5b48e01b996cadc001622fb5e363b421b90100000000000000000000000000000000000000000000000000000000000000000000000000000000000000000000000000000000000000000000000000000000000000000000000000000000000000000000000000000000000000000000000000000000000000000000000000000000000000000000000000000000000000000000000000000000000000000000000000000000000000000000000000000000000000000000000000000000000000000000000000000000000000000000000000000000000000000000000000000000000000000000000000000000000000000000000000000000000000000000000000000000000000000000000000000000008302000080840bebc200808000a00000000000000000000000000000000000000000000000000000000000000000880000000000000000c0c0",
        "lastblockhash" : "0x0d941831af7514956a30afbc0be9a615edf6d80ddc3ca2a6f9b4e0770a5c77c4",
        "network" : "Berlin",
        "postState" : {
            "0x0e879ae28cdddeb31a405a9db354505a5560b0bd" : {
                "balance" : "0x00",
                "code" : "0x7c0100000000000000000000000000000000000000000000000000000000600035046397dd3054811415610065576004356040526024356060526040516060515b808212156100625760006000600060006000866000f150600182019150610040565b50505b50",
                "nonce" : "0x00",
                "storage" : {
                }
            },
            "0x68795c4aa09d6f4ed3e5deddf8c2ad3049a601da" : {
                "balance" : "0x1bc16d674fe574c2",
                "code" : "0x",
                "nonce" : "0x00",
                "storage" : {
                }
            },
            "0xa94f5374fce5edbc8e2a8697c15331677e6ebf0b" : {
                "balance" : "0x0de0b6b3a6468b3e",
                "code" : "0x",
                "nonce" : "0x02",
                "storage" : {
                }
            }
        },
        "pre" : {
            "0x0000000000000000000000000000000000000003" : {
                "balance" : "0x00",
                "code" : "0x",
                "nonce" : "0x00",
                "storage" : {
                }
            },
            "0x0e879ae28cdddeb31a405a9db354505a5560b0bd" : {
                "balance" : "0x00",
                "code" : "0x7c0100000000000000000000000000000000000000000000000000000000600035046397dd3054811415610065576004356040526024356060526040516060515b808212156100625760006000600060006000866000f150600182019150610040565b50505b50",
                "nonce" : "0x00",
                "storage" : {
                }
            },
            "0xa94f5374fce5edbc8e2a8697c15331677e6ebf0b" : {
                "balance" : "0x0de0b6b3a7640000",
                "code" : "0x",
                "nonce" : "0x01",
                "storage" : {
                }
            }
        },
        "sealEngine" : "NoProof"
    },
    "failed_tx_xcf416c53_d0g0v0_Istanbul" : {
        "_info" : {
            "comment" : "",
            "filling-rpc-server" : "evm version 1.13.11-unstable-765f2904-20240124",
            "filling-tool-version" : "retesteth-0.3.2-cancun+commit.da14a80e.Linux.g++",
            "generatedTestHash" : "38cdff74debbc3df667194c0d76db569cc5012a965bf735e5292dfd1df621fe5",
            "lllcversion" : "Version: 0.5.14-develop.2023.7.11+commit.c58ab2c6.mod.Linux.g++",
            "solidity" : "Version: 0.8.21+commit.d9974bed.Linux.g++",
            "source" : "src/GeneralStateTestsFiller/stSpecialTest/failed_tx_xcf416c53Filler.json",
            "sourceHash" : "7512fd4d8dc8ec2aec4e465ab1999db9d28098e9de50f23a04e5890595685adc"
        },
        "blocks" : [
            {
                "blockHeader" : {
                    "bloom" : "0x00000000000000000000000000000000000000000000000000000000000000000000000000000000000000000000000000000000000000000000000000000000000000000000000000000000000000000000000000000000000000000000000000000000000000000000000000000000000000000000000000000000000000000000000000000000000000000000000000000000000000000000000000000000000000000000000000000000000000000000000000000000000000000000000000000000000000000000000000000000000000000000000000000000000000000000000000000000000000000000000000000000000000000000000000000000",
                    "coinbase" : "0x68795c4aa09d6f4ed3e5deddf8c2ad3049a601da",
                    "difficulty" : "0x020000",
                    "extraData" : "0x00",
                    "gasLimit" : "0x0bebc200",
                    "gasUsed" : "0x089841",
                    "hash" : "0x40dba506ef274ebc3bb58dc7a3ec03e8b8bf931aa5655251087657c214524557",
                    "mixHash" : "0x0000000000000000000000000000000000000000000000000000000000000000",
                    "nonce" : "0x0000000000000000",
                    "number" : "0x01",
                    "parentHash" : "0x62839401df8970ec70785f62e9e9d559b256a9a10b343baf6c064747b094de09",
                    "receiptTrie" : "0x2511efbccc0cdc0f80fdf2ec6f0287ceebe7d0f4d8ccc640a79b0184c2519d1e",
                    "stateRoot" : "0x4a354dbee41e9c94adb66917ee9b007bcc314d5f0c74902318b5f72e6fc20b01",
                    "timestamp" : "0x03e8",
                    "transactionsTrie" : "0xbc8d11625ad3004f4f63123d0efd97b7798ba258b68eb313e9aadd87f5594291",
                    "uncleHash" : "0x1dcc4de8dec75d7aab85b567b6ccd41ad312451b948a7413f0a142fd40d49347"
                },
                "rlp" : "0xf902a6f901f9a062839401df8970ec70785f62e9e9d559b256a9a10b343baf6c064747b094de09a01dcc4de8dec75d7aab85b567b6ccd41ad312451b948a7413f0a142fd40d493479468795c4aa09d6f4ed3e5deddf8c2ad3049a601daa04a354dbee41e9c94adb66917ee9b007bcc314d5f0c74902318b5f72e6fc20b01a0bc8d11625ad3004f4f63123d0efd97b7798ba258b68eb313e9aadd87f5594291a02511efbccc0cdc0f80fdf2ec6f0287ceebe7d0f4d8ccc640a79b0184c2519d1eb90100000000000000000000000000000000000000000000000000000000000000000000000000000000000000000000000000000000000000000000000000000000000000000000000000000000000000000000000000000000000000000000000000000000000000000000000000000000000000000000000000000000000000000000000000000000000000000000000000000000000000000000000000000000000000000000000000000000000000000000000000000000000000000000000000000000000000000000000000000000000000000000000000000000000000000000000000000000000000000000000000000000000000000000000000000000008302000001840bebc200830898418203e800a00000000000000000000000000000000000000000000000000000000000000000880000000000000000f8a7f8a5010a83f8b7e0940e879ae28cdddeb31a405a9db354505a5560b0bd80b84497dd3054000000000000000000000000000000000000000000000000000000000000000000000000000000000000000000000000000000000000000000000000000002bc1ca0c7168521175d9b3646f818d187da084790eb4353e0a01fe9beecd2e280a08fd7a0416e5ea499289dbf68e105e6c4f2881a2b87b73eca68a47b52d3476bf98a536bc0",
                "transactions" : [
                    {
                        "data" : "0x97dd3054000000000000000000000000000000000000000000000000000000000000000000000000000000000000000000000000000000000000000000000000000002bc",
                        "gasLimit" : "0xf8b7e0",
                        "gasPrice" : "0x0a",
                        "nonce" : "0x01",
                        "r" : "0xc7168521175d9b3646f818d187da084790eb4353e0a01fe9beecd2e280a08fd7",
                        "s" : "0x416e5ea499289dbf68e105e6c4f2881a2b87b73eca68a47b52d3476bf98a536b",
                        "sender" : "0xa94f5374fce5edbc8e2a8697c15331677e6ebf0b",
                        "to" : "0x0e879ae28cdddeb31a405a9db354505a5560b0bd",
                        "v" : "0x1c",
                        "value" : "0x00"
                    }
                ],
                "uncleHeaders" : [
                ]
            }
        ],
        "genesisBlockHeader" : {
            "bloom" : "0x00000000000000000000000000000000000000000000000000000000000000000000000000000000000000000000000000000000000000000000000000000000000000000000000000000000000000000000000000000000000000000000000000000000000000000000000000000000000000000000000000000000000000000000000000000000000000000000000000000000000000000000000000000000000000000000000000000000000000000000000000000000000000000000000000000000000000000000000000000000000000000000000000000000000000000000000000000000000000000000000000000000000000000000000000000000",
            "coinbase" : "0x68795c4aa09d6f4ed3e5deddf8c2ad3049a601da",
            "difficulty" : "0x020000",
            "extraData" : "0x00",
            "gasLimit" : "0x0bebc200",
            "gasUsed" : "0x00",
            "hash" : "0x62839401df8970ec70785f62e9e9d559b256a9a10b343baf6c064747b094de09",
            "mixHash" : "0x0000000000000000000000000000000000000000000000000000000000000000",
            "nonce" : "0x0000000000000000",
            "number" : "0x00",
            "parentHash" : "0x0000000000000000000000000000000000000000000000000000000000000000",
            "receiptTrie" : "0x56e81f171bcc55a6ff8345e692c0f86e5b48e01b996cadc001622fb5e363b421",
            "stateRoot" : "0x071f5dbe08f2a3b33b8c4a046998e5e5d7131356f95c13da91a2062236b92642",
            "timestamp" : "0x00",
            "transactionsTrie" : "0x56e81f171bcc55a6ff8345e692c0f86e5b48e01b996cadc001622fb5e363b421",
            "uncleHash" : "0x1dcc4de8dec75d7aab85b567b6ccd41ad312451b948a7413f0a142fd40d49347"
        },
        "genesisRLP" : "0xf901f9f901f4a00000000000000000000000000000000000000000000000000000000000000000a01dcc4de8dec75d7aab85b567b6ccd41ad312451b948a7413f0a142fd40d493479468795c4aa09d6f4ed3e5deddf8c2ad3049a601daa0071f5dbe08f2a3b33b8c4a046998e5e5d7131356f95c13da91a2062236b92642a056e81f171bcc55a6ff8345e692c0f86e5b48e01b996cadc001622fb5e363b421a056e81f171bcc55a6ff8345e692c0f86e5b48e01b996cadc001622fb5e363b421b90100000000000000000000000000000000000000000000000000000000000000000000000000000000000000000000000000000000000000000000000000000000000000000000000000000000000000000000000000000000000000000000000000000000000000000000000000000000000000000000000000000000000000000000000000000000000000000000000000000000000000000000000000000000000000000000000000000000000000000000000000000000000000000000000000000000000000000000000000000000000000000000000000000000000000000000000000000000000000000000000000000000000000000000000000000000008302000080840bebc200808000a00000000000000000000000000000000000000000000000000000000000000000880000000000000000c0c0",
        "lastblockhash" : "0x40dba506ef274ebc3bb58dc7a3ec03e8b8bf931aa5655251087657c214524557",
        "network" : "Istanbul",
        "postState" : {
            "0x0e879ae28cdddeb31a405a9db354505a5560b0bd" : {
                "balance" : "0x00",
                "code" : "0x7c0100000000000000000000000000000000000000000000000000000000600035046397dd3054811415610065576004356040526024356060526040516060515b808212156100625760006000600060006000866000f150600182019150610040565b50505b50",
                "nonce" : "0x00",
                "storage" : {
                }
            },
            "0x68795c4aa09d6f4ed3e5deddf8c2ad3049a601da" : {
                "balance" : "0x1bc16d674f1df28a",
                "code" : "0x",
                "nonce" : "0x00",
                "storage" : {
                }
            },
            "0xa94f5374fce5edbc8e2a8697c15331677e6ebf0b" : {
                "balance" : "0x0de0b6b3a70e0d76",
                "code" : "0x",
                "nonce" : "0x02",
                "storage" : {
                }
            }
        },
        "pre" : {
            "0x0000000000000000000000000000000000000003" : {
                "balance" : "0x00",
                "code" : "0x",
                "nonce" : "0x00",
                "storage" : {
                }
            },
            "0x0e879ae28cdddeb31a405a9db354505a5560b0bd" : {
                "balance" : "0x00",
                "code" : "0x7c0100000000000000000000000000000000000000000000000000000000600035046397dd3054811415610065576004356040526024356060526040516060515b808212156100625760006000600060006000866000f150600182019150610040565b50505b50",
                "nonce" : "0x00",
                "storage" : {
                }
            },
            "0xa94f5374fce5edbc8e2a8697c15331677e6ebf0b" : {
                "balance" : "0x0de0b6b3a7640000",
                "code" : "0x",
                "nonce" : "0x01",
                "storage" : {
                }
            }
        },
        "sealEngine" : "NoProof"
    },
    "failed_tx_xcf416c53_d0g0v0_London" : {
        "_info" : {
            "comment" : "",
            "filling-rpc-server" : "evm version 1.13.11-unstable-765f2904-20240124",
            "filling-tool-version" : "retesteth-0.3.2-cancun+commit.da14a80e.Linux.g++",
            "generatedTestHash" : "08d59cecb475efc47d2b0dd15643759fe74e3a2f8487f26c2c4cf5ed02a4a8eb",
            "lllcversion" : "Version: 0.5.14-develop.2023.7.11+commit.c58ab2c6.mod.Linux.g++",
            "solidity" : "Version: 0.8.21+commit.d9974bed.Linux.g++",
            "source" : "src/GeneralStateTestsFiller/stSpecialTest/failed_tx_xcf416c53Filler.json",
            "sourceHash" : "7512fd4d8dc8ec2aec4e465ab1999db9d28098e9de50f23a04e5890595685adc"
        },
        "blocks" : [
            {
                "blockHeader" : {
                    "baseFeePerGas" : "0x0a",
                    "bloom" : "0x00000000000000000000000000000000000000000000000000000000000000000000000000000000000000000000000000000000000000000000000000000000000000000000000000000000000000000000000000000000000000000000000000000000000000000000000000000000000000000000000000000000000000000000000000000000000000000000000000000000000000000000000000000000000000000000000000000000000000000000000000000000000000000000000000000000000000000000000000000000000000000000000000000000000000000000000000000000000000000000000000000000000000000000000000000000",
                    "coinbase" : "0x68795c4aa09d6f4ed3e5deddf8c2ad3049a601da",
                    "difficulty" : "0x020000",
                    "extraData" : "0x00",
                    "gasLimit" : "0x0bebc200",
                    "gasUsed" : "0x1c8bad",
                    "hash" : "0xf44d0410c1626b7ca7ded63876759ce6f22fe9067a528a21ceeba6474894b6e8",
                    "mixHash" : "0x0000000000000000000000000000000000000000000000000000000000000000",
                    "nonce" : "0x0000000000000000",
                    "number" : "0x01",
                    "parentHash" : "0x83e528200e9c2a8c33131e753fee8950114b8c7b4f27635990c4b7030de9d124",
                    "receiptTrie" : "0x920ed46051da94d53ca3b741bcdb69fda3e0cbbf9486318e479a0f8f733e54f2",
                    "stateRoot" : "0x93633bee522c0553f38a77fa17107a9beb89a4d82100645194bab1e19f7cda4e",
                    "timestamp" : "0x03e8",
                    "transactionsTrie" : "0xbc8d11625ad3004f4f63123d0efd97b7798ba258b68eb313e9aadd87f5594291",
                    "uncleHash" : "0x1dcc4de8dec75d7aab85b567b6ccd41ad312451b948a7413f0a142fd40d49347"
                },
                "rlp" : "0xf902a7f901faa083e528200e9c2a8c33131e753fee8950114b8c7b4f27635990c4b7030de9d124a01dcc4de8dec75d7aab85b567b6ccd41ad312451b948a7413f0a142fd40d493479468795c4aa09d6f4ed3e5deddf8c2ad3049a601daa093633bee522c0553f38a77fa17107a9beb89a4d82100645194bab1e19f7cda4ea0bc8d11625ad3004f4f63123d0efd97b7798ba258b68eb313e9aadd87f5594291a0920ed46051da94d53ca3b741bcdb69fda3e0cbbf9486318e479a0f8f733e54f2b90100000000000000000000000000000000000000000000000000000000000000000000000000000000000000000000000000000000000000000000000000000000000000000000000000000000000000000000000000000000000000000000000000000000000000000000000000000000000000000000000000000000000000000000000000000000000000000000000000000000000000000000000000000000000000000000000000000000000000000000000000000000000000000000000000000000000000000000000000000000000000000000000000000000000000000000000000000000000000000000000000000000000000000000000000000000008302000001840bebc200831c8bad8203e800a000000000000000000000000000000000000000000000000000000000000000008800000000000000000af8a7f8a5010a83f8b7e0940e879ae28cdddeb31a405a9db354505a5560b0bd80b84497dd3054000000000000000000000000000000000000000000000000000000000000000000000000000000000000000000000000000000000000000000000000000002bc1ca0c7168521175d9b3646f818d187da084790eb4353e0a01fe9beecd2e280a08fd7a0416e5ea499289dbf68e105e6c4f2881a2b87b73eca68a47b52d3476bf98a536bc0",
                "transactions" : [
                    {
                        "data" : "0x97dd3054000000000000000000000000000000000000000000000000000000000000000000000000000000000000000000000000000000000000000000000000000002bc",
                        "gasLimit" : "0xf8b7e0",
                        "gasPrice" : "0x0a",
                        "nonce" : "0x01",
                        "r" : "0xc7168521175d9b3646f818d187da084790eb4353e0a01fe9beecd2e280a08fd7",
                        "s" : "0x416e5ea499289dbf68e105e6c4f2881a2b87b73eca68a47b52d3476bf98a536b",
                        "sender" : "0xa94f5374fce5edbc8e2a8697c15331677e6ebf0b",
                        "to" : "0x0e879ae28cdddeb31a405a9db354505a5560b0bd",
                        "v" : "0x1c",
                        "value" : "0x00"
                    }
                ],
                "uncleHeaders" : [
                ]
            }
        ],
        "genesisBlockHeader" : {
            "baseFeePerGas" : "0x0b",
            "bloom" : "0x00000000000000000000000000000000000000000000000000000000000000000000000000000000000000000000000000000000000000000000000000000000000000000000000000000000000000000000000000000000000000000000000000000000000000000000000000000000000000000000000000000000000000000000000000000000000000000000000000000000000000000000000000000000000000000000000000000000000000000000000000000000000000000000000000000000000000000000000000000000000000000000000000000000000000000000000000000000000000000000000000000000000000000000000000000000",
            "coinbase" : "0x68795c4aa09d6f4ed3e5deddf8c2ad3049a601da",
            "difficulty" : "0x020000",
            "extraData" : "0x00",
            "gasLimit" : "0x0bebc200",
            "gasUsed" : "0x00",
            "hash" : "0x83e528200e9c2a8c33131e753fee8950114b8c7b4f27635990c4b7030de9d124",
            "mixHash" : "0x0000000000000000000000000000000000000000000000000000000000000000",
            "nonce" : "0x0000000000000000",
            "number" : "0x00",
            "parentHash" : "0x0000000000000000000000000000000000000000000000000000000000000000",
            "receiptTrie" : "0x56e81f171bcc55a6ff8345e692c0f86e5b48e01b996cadc001622fb5e363b421",
            "stateRoot" : "0x071f5dbe08f2a3b33b8c4a046998e5e5d7131356f95c13da91a2062236b92642",
            "timestamp" : "0x00",
            "transactionsTrie" : "0x56e81f171bcc55a6ff8345e692c0f86e5b48e01b996cadc001622fb5e363b421",
            "uncleHash" : "0x1dcc4de8dec75d7aab85b567b6ccd41ad312451b948a7413f0a142fd40d49347"
        },
        "genesisRLP" : "0xf901faf901f5a00000000000000000000000000000000000000000000000000000000000000000a01dcc4de8dec75d7aab85b567b6ccd41ad312451b948a7413f0a142fd40d493479468795c4aa09d6f4ed3e5deddf8c2ad3049a601daa0071f5dbe08f2a3b33b8c4a046998e5e5d7131356f95c13da91a2062236b92642a056e81f171bcc55a6ff8345e692c0f86e5b48e01b996cadc001622fb5e363b421a056e81f171bcc55a6ff8345e692c0f86e5b48e01b996cadc001622fb5e363b421b90100000000000000000000000000000000000000000000000000000000000000000000000000000000000000000000000000000000000000000000000000000000000000000000000000000000000000000000000000000000000000000000000000000000000000000000000000000000000000000000000000000000000000000000000000000000000000000000000000000000000000000000000000000000000000000000000000000000000000000000000000000000000000000000000000000000000000000000000000000000000000000000000000000000000000000000000000000000000000000000000000000000000000000000000000000000008302000080840bebc200808000a000000000000000000000000000000000000000000000000000000000000000008800000000000000000bc0c0",
        "lastblockhash" : "0xf44d0410c1626b7ca7ded63876759ce6f22fe9067a528a21ceeba6474894b6e8",
        "network" : "London",
        "postState" : {
            "0x0e879ae28cdddeb31a405a9db354505a5560b0bd" : {
                "balance" : "0x00",
                "code" : "0x7c0100000000000000000000000000000000000000000000000000000000600035046397dd3054811415610065576004356040526024356060526040516060515b808212156100625760006000600060006000866000f150600182019150610040565b50505b50",
                "nonce" : "0x00",
                "storage" : {
                }
            },
            "0x68795c4aa09d6f4ed3e5deddf8c2ad3049a601da" : {
                "balance" : "0x1bc16d674ec80000",
                "code" : "0x",
                "nonce" : "0x00",
                "storage" : {
                }
            },
            "0xa94f5374fce5edbc8e2a8697c15331677e6ebf0b" : {
                "balance" : "0x0de0b6b3a6468b3e",
                "code" : "0x",
                "nonce" : "0x02",
                "storage" : {
                }
            }
        },
        "pre" : {
            "0x0000000000000000000000000000000000000003" : {
                "balance" : "0x00",
                "code" : "0x",
                "nonce" : "0x00",
                "storage" : {
                }
            },
            "0x0e879ae28cdddeb31a405a9db354505a5560b0bd" : {
                "balance" : "0x00",
                "code" : "0x7c0100000000000000000000000000000000000000000000000000000000600035046397dd3054811415610065576004356040526024356060526040516060515b808212156100625760006000600060006000866000f150600182019150610040565b50505b50",
                "nonce" : "0x00",
                "storage" : {
                }
            },
            "0xa94f5374fce5edbc8e2a8697c15331677e6ebf0b" : {
                "balance" : "0x0de0b6b3a7640000",
                "code" : "0x",
                "nonce" : "0x01",
                "storage" : {
                }
            }
        },
        "sealEngine" : "NoProof"
    }
}