{
    "gasPrice0_d0g0v0_EIP150" : {
        "_info" : {
            "comment" : "",
            "filledwith" : "cpp-1.3.0+commit.16292201.Linux.g++",
            "source" : "/src/GenStateTestAsBcTemp/stSpecialTest/gasPrice0_d0g0v0Filler.json"
        },
        "blocks" : [
            {
                "blockHeader" : {
                    "bloom" : "0x00000000000000000000000000000000000000000000000000000000000000000000000000000000000000000000000000000000000000000000000000000000000000000000000000000000000000000000000000000000000000000000000000000000000000000000000000000000000000000000000000000000000000000000000000000000000000000000000000000000000000000000000000000000000000000000000000000000000000000000000000000000000000000000000000000000000000000000000000000000000000000000000000000000000000000000000000000000000000000000000000000000000000000000000000000000",
                    "coinbase" : "0x2adc25665018aa1fe0e6bc666dac8fc2697ff9ba",
                    "difficulty" : "0x020000",
                    "extraData" : "",
                    "gasLimit" : "0x0f4240",
                    "gasUsed" : "0xa034",
                    "hash" : "0xe7b9493e31af14ac4b071460e4058ba534e356d7096d66d03a5536df543d5e78",
                    "mixHash" : "0xc870b48a8bf848fbc276edbff565f5654df2f3b19a442fd497cb270cd2745409",
                    "nonce" : "0x7b6908a17618a41c",
                    "number" : "0x01",
                    "parentHash" : "0x26f4cb1cb9685bad697c0c16ca0d27fe0a4b09364f83ed8418cef0d523783625",
                    "receiptTrie" : "0x2020ff02579a8cb5d06ddedcebe1db0a5dfd1dac620157589f1b42d6242834e8",
                    "stateRoot" : "0x7728561ce91a98aa7db09b9d6902169bb7aa5850941db57d4c5e120ec3814473",
                    "timestamp" : "0x03e8",
                    "transactionsTrie" : "0x4a6cd97af990bb819f9e3803607d8969f6ad8bbf5043d10c4ca5738f46e0bff3",
                    "uncleHash" : "0x1dcc4de8dec75d7aab85b567b6ccd41ad312451b948a7413f0a142fd40d49347"
                },
                "rlp" : "0xf90261f901f7a026f4cb1cb9685bad697c0c16ca0d27fe0a4b09364f83ed8418cef0d523783625a01dcc4de8dec75d7aab85b567b6ccd41ad312451b948a7413f0a142fd40d49347942adc25665018aa1fe0e6bc666dac8fc2697ff9baa07728561ce91a98aa7db09b9d6902169bb7aa5850941db57d4c5e120ec3814473a04a6cd97af990bb819f9e3803607d8969f6ad8bbf5043d10c4ca5738f46e0bff3a02020ff02579a8cb5d06ddedcebe1db0a5dfd1dac620157589f1b42d6242834e8b90100000000000000000000000000000000000000000000000000000000000000000000000000000000000000000000000000000000000000000000000000000000000000000000000000000000000000000000000000000000000000000000000000000000000000000000000000000000000000000000000000000000000000000000000000000000000000000000000000000000000000000000000000000000000000000000000000000000000000000000000000000000000000000000000000000000000000000000000000000000000000000000000000000000000000000000000000000000000000000000000000000000000000000000000000000000008302000001830f424082a0348203e880a0c870b48a8bf848fbc276edbff565f5654df2f3b19a442fd497cb270cd2745409887b6908a17618a41cf864f862808082a03494095e7baea6a6c7c4c2dfeb977efac326af552d87830186a0801ba03939645df023741816ac8b51602537f8cd86577c397b9e0b04d269aad08cff15a063329273f2f2b4179e471c0957e66e7b8b6d17fd70ef83601c6c8fae930a2251c0",
                "transactions" : [
                    {
                        "data" : "",
                        "gasLimit" : "0xa034",
                        "gasPrice" : "0x00",
                        "nonce" : "0x00",
                        "r" : "0x3939645df023741816ac8b51602537f8cd86577c397b9e0b04d269aad08cff15",
                        "s" : "0x63329273f2f2b4179e471c0957e66e7b8b6d17fd70ef83601c6c8fae930a2251",
                        "to" : "0x095e7baea6a6c7c4c2dfeb977efac326af552d87",
                        "v" : "0x1b",
                        "value" : "0x0186a0"
                    }
                ],
                "uncleHeaders" : [
                ]
            }
        ],
        "genesisBlockHeader" : {
            "bloom" : "0x00000000000000000000000000000000000000000000000000000000000000000000000000000000000000000000000000000000000000000000000000000000000000000000000000000000000000000000000000000000000000000000000000000000000000000000000000000000000000000000000000000000000000000000000000000000000000000000000000000000000000000000000000000000000000000000000000000000000000000000000000000000000000000000000000000000000000000000000000000000000000000000000000000000000000000000000000000000000000000000000000000000000000000000000000000000",
            "coinbase" : "0x2adc25665018aa1fe0e6bc666dac8fc2697ff9ba",
            "difficulty" : "0x020000",
            "extraData" : "0x42",
            "gasLimit" : "0x0f4240",
            "gasUsed" : "0x00",
            "hash" : "0x26f4cb1cb9685bad697c0c16ca0d27fe0a4b09364f83ed8418cef0d523783625",
            "mixHash" : "0x56e81f171bcc55a6ff8345e692c0f86e5b48e01b996cadc001622fb5e363b421",
            "nonce" : "0x0102030405060708",
            "number" : "0x00",
            "parentHash" : "0x0000000000000000000000000000000000000000000000000000000000000000",
            "receiptTrie" : "0x56e81f171bcc55a6ff8345e692c0f86e5b48e01b996cadc001622fb5e363b421",
            "stateRoot" : "0x4b4b7a0d58a2388c0e6b3b048c3c27edd6febc6f04171167ed15a77ab2e60b16",
            "timestamp" : "0x03b6",
            "transactionsTrie" : "0x56e81f171bcc55a6ff8345e692c0f86e5b48e01b996cadc001622fb5e363b421",
            "uncleHash" : "0x1dcc4de8dec75d7aab85b567b6ccd41ad312451b948a7413f0a142fd40d49347"
        },
        "genesisRLP" : "0xf901faf901f5a00000000000000000000000000000000000000000000000000000000000000000a01dcc4de8dec75d7aab85b567b6ccd41ad312451b948a7413f0a142fd40d49347942adc25665018aa1fe0e6bc666dac8fc2697ff9baa04b4b7a0d58a2388c0e6b3b048c3c27edd6febc6f04171167ed15a77ab2e60b16a056e81f171bcc55a6ff8345e692c0f86e5b48e01b996cadc001622fb5e363b421a056e81f171bcc55a6ff8345e692c0f86e5b48e01b996cadc001622fb5e363b421b90100000000000000000000000000000000000000000000000000000000000000000000000000000000000000000000000000000000000000000000000000000000000000000000000000000000000000000000000000000000000000000000000000000000000000000000000000000000000000000000000000000000000000000000000000000000000000000000000000000000000000000000000000000000000000000000000000000000000000000000000000000000000000000000000000000000000000000000000000000000000000000000000000000000000000000000000000000000000000000000000000000000000000000000000000000000008302000080830f4240808203b642a056e81f171bcc55a6ff8345e692c0f86e5b48e01b996cadc001622fb5e363b421880102030405060708c0c0",
        "lastblockhash" : "0xe7b9493e31af14ac4b071460e4058ba534e356d7096d66d03a5536df543d5e78",
        "network" : "EIP150",
        "postState" : {
            "0x095e7baea6a6c7c4c2dfeb977efac326af552d87" : {
                "balance" : "0x0de0b6b3a76586a0",
                "code" : "0x6001600101600055",
                "nonce" : "0x00",
                "storage" : {
                    "0x00" : "0x02"
                }
            },
            "0x2adc25665018aa1fe0e6bc666dac8fc2697ff9ba" : {
                "balance" : "0x4563918244f40000",
                "code" : "",
                "nonce" : "0x00",
                "storage" : {
                }
            },
            "0xa94f5374fce5edbc8e2a8697c15331677e6ebf0b" : {
                "balance" : "0x0de0b6b3a7627960",
                "code" : "",
                "nonce" : "0x01",
                "storage" : {
                }
            }
        },
        "pre" : {
            "0x095e7baea6a6c7c4c2dfeb977efac326af552d87" : {
                "balance" : "0x0de0b6b3a7640000",
                "code" : "0x6001600101600055",
                "nonce" : "0x00",
                "storage" : {
                }
            },
            "0xa94f5374fce5edbc8e2a8697c15331677e6ebf0b" : {
                "balance" : "0x0de0b6b3a7640000",
                "code" : "",
                "nonce" : "0x00",
                "storage" : {
                }
            }
        }
    },
    "gasPrice0_d0g0v0_EIP158" : {
        "_info" : {
            "comment" : "",
            "filledwith" : "cpp-1.3.0+commit.16292201.Linux.g++",
            "source" : "/src/GenStateTestAsBcTemp/stSpecialTest/gasPrice0_d0g0v0Filler.json"
        },
        "blocks" : [
            {
                "blockHeader" : {
                    "bloom" : "0x00000000000000000000000000000000000000000000000000000000000000000000000000000000000000000000000000000000000000000000000000000000000000000000000000000000000000000000000000000000000000000000000000000000000000000000000000000000000000000000000000000000000000000000000000000000000000000000000000000000000000000000000000000000000000000000000000000000000000000000000000000000000000000000000000000000000000000000000000000000000000000000000000000000000000000000000000000000000000000000000000000000000000000000000000000000",
                    "coinbase" : "0x2adc25665018aa1fe0e6bc666dac8fc2697ff9ba",
                    "difficulty" : "0x020000",
                    "extraData" : "",
                    "gasLimit" : "0x0f4240",
                    "gasUsed" : "0xa034",
                    "hash" : "0x3f4a6f58d0f7a95af0f5785a5547f3cd902ebf133610567823c3d08a1790f073",
                    "mixHash" : "0xfa595e12069969f8ac9afe34dc0fcbf1394645aba090229c0a0d44f0834589b4",
                    "nonce" : "0x0df20f9e04a7549e",
                    "number" : "0x01",
                    "parentHash" : "0x26f4cb1cb9685bad697c0c16ca0d27fe0a4b09364f83ed8418cef0d523783625",
                    "receiptTrie" : "0x3936f68369b4d024aa51768076b5a31b17cf2eb1087e3d281d18282c8ef2ab3d",
                    "stateRoot" : "0x7728561ce91a98aa7db09b9d6902169bb7aa5850941db57d4c5e120ec3814473",
                    "timestamp" : "0x03e8",
                    "transactionsTrie" : "0x4a6cd97af990bb819f9e3803607d8969f6ad8bbf5043d10c4ca5738f46e0bff3",
                    "uncleHash" : "0x1dcc4de8dec75d7aab85b567b6ccd41ad312451b948a7413f0a142fd40d49347"
                },
                "rlp" : "0xf90261f901f7a026f4cb1cb9685bad697c0c16ca0d27fe0a4b09364f83ed8418cef0d523783625a01dcc4de8dec75d7aab85b567b6ccd41ad312451b948a7413f0a142fd40d49347942adc25665018aa1fe0e6bc666dac8fc2697ff9baa07728561ce91a98aa7db09b9d6902169bb7aa5850941db57d4c5e120ec3814473a04a6cd97af990bb819f9e3803607d8969f6ad8bbf5043d10c4ca5738f46e0bff3a03936f68369b4d024aa51768076b5a31b17cf2eb1087e3d281d18282c8ef2ab3db90100000000000000000000000000000000000000000000000000000000000000000000000000000000000000000000000000000000000000000000000000000000000000000000000000000000000000000000000000000000000000000000000000000000000000000000000000000000000000000000000000000000000000000000000000000000000000000000000000000000000000000000000000000000000000000000000000000000000000000000000000000000000000000000000000000000000000000000000000000000000000000000000000000000000000000000000000000000000000000000000000000000000000000000000000000000008302000001830f424082a0348203e880a0fa595e12069969f8ac9afe34dc0fcbf1394645aba090229c0a0d44f0834589b4880df20f9e04a7549ef864f862808082a03494095e7baea6a6c7c4c2dfeb977efac326af552d87830186a0801ba03939645df023741816ac8b51602537f8cd86577c397b9e0b04d269aad08cff15a063329273f2f2b4179e471c0957e66e7b8b6d17fd70ef83601c6c8fae930a2251c0",
                "transactions" : [
                    {
                        "data" : "",
                        "gasLimit" : "0xa034",
                        "gasPrice" : "0x00",
                        "nonce" : "0x00",
                        "r" : "0x3939645df023741816ac8b51602537f8cd86577c397b9e0b04d269aad08cff15",
                        "s" : "0x63329273f2f2b4179e471c0957e66e7b8b6d17fd70ef83601c6c8fae930a2251",
                        "to" : "0x095e7baea6a6c7c4c2dfeb977efac326af552d87",
                        "v" : "0x1b",
                        "value" : "0x0186a0"
                    }
                ],
                "uncleHeaders" : [
                ]
            }
        ],
        "genesisBlockHeader" : {
            "bloom" : "0x00000000000000000000000000000000000000000000000000000000000000000000000000000000000000000000000000000000000000000000000000000000000000000000000000000000000000000000000000000000000000000000000000000000000000000000000000000000000000000000000000000000000000000000000000000000000000000000000000000000000000000000000000000000000000000000000000000000000000000000000000000000000000000000000000000000000000000000000000000000000000000000000000000000000000000000000000000000000000000000000000000000000000000000000000000000",
            "coinbase" : "0x2adc25665018aa1fe0e6bc666dac8fc2697ff9ba",
            "difficulty" : "0x020000",
            "extraData" : "0x42",
            "gasLimit" : "0x0f4240",
            "gasUsed" : "0x00",
            "hash" : "0x26f4cb1cb9685bad697c0c16ca0d27fe0a4b09364f83ed8418cef0d523783625",
            "mixHash" : "0x56e81f171bcc55a6ff8345e692c0f86e5b48e01b996cadc001622fb5e363b421",
            "nonce" : "0x0102030405060708",
            "number" : "0x00",
            "parentHash" : "0x0000000000000000000000000000000000000000000000000000000000000000",
            "receiptTrie" : "0x56e81f171bcc55a6ff8345e692c0f86e5b48e01b996cadc001622fb5e363b421",
            "stateRoot" : "0x4b4b7a0d58a2388c0e6b3b048c3c27edd6febc6f04171167ed15a77ab2e60b16",
            "timestamp" : "0x03b6",
            "transactionsTrie" : "0x56e81f171bcc55a6ff8345e692c0f86e5b48e01b996cadc001622fb5e363b421",
            "uncleHash" : "0x1dcc4de8dec75d7aab85b567b6ccd41ad312451b948a7413f0a142fd40d49347"
        },
        "genesisRLP" : "0xf901faf901f5a00000000000000000000000000000000000000000000000000000000000000000a01dcc4de8dec75d7aab85b567b6ccd41ad312451b948a7413f0a142fd40d49347942adc25665018aa1fe0e6bc666dac8fc2697ff9baa04b4b7a0d58a2388c0e6b3b048c3c27edd6febc6f04171167ed15a77ab2e60b16a056e81f171bcc55a6ff8345e692c0f86e5b48e01b996cadc001622fb5e363b421a056e81f171bcc55a6ff8345e692c0f86e5b48e01b996cadc001622fb5e363b421b90100000000000000000000000000000000000000000000000000000000000000000000000000000000000000000000000000000000000000000000000000000000000000000000000000000000000000000000000000000000000000000000000000000000000000000000000000000000000000000000000000000000000000000000000000000000000000000000000000000000000000000000000000000000000000000000000000000000000000000000000000000000000000000000000000000000000000000000000000000000000000000000000000000000000000000000000000000000000000000000000000000000000000000000000000000000008302000080830f4240808203b642a056e81f171bcc55a6ff8345e692c0f86e5b48e01b996cadc001622fb5e363b421880102030405060708c0c0",
        "lastblockhash" : "0x3f4a6f58d0f7a95af0f5785a5547f3cd902ebf133610567823c3d08a1790f073",
        "network" : "EIP158",
        "postState" : {
            "0x095e7baea6a6c7c4c2dfeb977efac326af552d87" : {
                "balance" : "0x0de0b6b3a76586a0",
                "code" : "0x6001600101600055",
                "nonce" : "0x00",
                "storage" : {
                    "0x00" : "0x02"
                }
            },
            "0x2adc25665018aa1fe0e6bc666dac8fc2697ff9ba" : {
                "balance" : "0x4563918244f40000",
                "code" : "",
                "nonce" : "0x00",
                "storage" : {
                }
            },
            "0xa94f5374fce5edbc8e2a8697c15331677e6ebf0b" : {
                "balance" : "0x0de0b6b3a7627960",
                "code" : "",
                "nonce" : "0x01",
                "storage" : {
                }
            }
        },
        "pre" : {
            "0x095e7baea6a6c7c4c2dfeb977efac326af552d87" : {
                "balance" : "0x0de0b6b3a7640000",
                "code" : "0x6001600101600055",
                "nonce" : "0x00",
                "storage" : {
                }
            },
            "0xa94f5374fce5edbc8e2a8697c15331677e6ebf0b" : {
                "balance" : "0x0de0b6b3a7640000",
                "code" : "",
                "nonce" : "0x00",
                "storage" : {
                }
            }
        }
    },
    "gasPrice0_d0g0v0_Frontier" : {
        "_info" : {
            "comment" : "",
            "filledwith" : "cpp-1.3.0+commit.16292201.Linux.g++",
            "source" : "/src/GenStateTestAsBcTemp/stSpecialTest/gasPrice0_d0g0v0Filler.json"
        },
        "blocks" : [
            {
                "blockHeader" : {
                    "bloom" : "0x00000000000000000000000000000000000000000000000000000000000000000000000000000000000000000000000000000000000000000000000000000000000000000000000000000000000000000000000000000000000000000000000000000000000000000000000000000000000000000000000000000000000000000000000000000000000000000000000000000000000000000000000000000000000000000000000000000000000000000000000000000000000000000000000000000000000000000000000000000000000000000000000000000000000000000000000000000000000000000000000000000000000000000000000000000000",
                    "coinbase" : "0x2adc25665018aa1fe0e6bc666dac8fc2697ff9ba",
                    "difficulty" : "0x020000",
                    "extraData" : "",
                    "gasLimit" : "0x0f4240",
                    "gasUsed" : "0xa034",
                    "hash" : "0x24fbf16bc04a5588755c2b9438ada4e766650de771c332815a738e577ba46ad6",
                    "mixHash" : "0x9e25f46104e7bc749d07d126464d2a59ed4d225ed2109b4d286b10e48dcc0cc2",
                    "nonce" : "0x9c3e9e37e4d9a858",
                    "number" : "0x01",
                    "parentHash" : "0x26f4cb1cb9685bad697c0c16ca0d27fe0a4b09364f83ed8418cef0d523783625",
                    "receiptTrie" : "0x2020ff02579a8cb5d06ddedcebe1db0a5dfd1dac620157589f1b42d6242834e8",
                    "stateRoot" : "0x7728561ce91a98aa7db09b9d6902169bb7aa5850941db57d4c5e120ec3814473",
                    "timestamp" : "0x03e8",
                    "transactionsTrie" : "0x4a6cd97af990bb819f9e3803607d8969f6ad8bbf5043d10c4ca5738f46e0bff3",
                    "uncleHash" : "0x1dcc4de8dec75d7aab85b567b6ccd41ad312451b948a7413f0a142fd40d49347"
                },
                "rlp" : "0xf90261f901f7a026f4cb1cb9685bad697c0c16ca0d27fe0a4b09364f83ed8418cef0d523783625a01dcc4de8dec75d7aab85b567b6ccd41ad312451b948a7413f0a142fd40d49347942adc25665018aa1fe0e6bc666dac8fc2697ff9baa07728561ce91a98aa7db09b9d6902169bb7aa5850941db57d4c5e120ec3814473a04a6cd97af990bb819f9e3803607d8969f6ad8bbf5043d10c4ca5738f46e0bff3a02020ff02579a8cb5d06ddedcebe1db0a5dfd1dac620157589f1b42d6242834e8b90100000000000000000000000000000000000000000000000000000000000000000000000000000000000000000000000000000000000000000000000000000000000000000000000000000000000000000000000000000000000000000000000000000000000000000000000000000000000000000000000000000000000000000000000000000000000000000000000000000000000000000000000000000000000000000000000000000000000000000000000000000000000000000000000000000000000000000000000000000000000000000000000000000000000000000000000000000000000000000000000000000000000000000000000000000000008302000001830f424082a0348203e880a09e25f46104e7bc749d07d126464d2a59ed4d225ed2109b4d286b10e48dcc0cc2889c3e9e37e4d9a858f864f862808082a03494095e7baea6a6c7c4c2dfeb977efac326af552d87830186a0801ba03939645df023741816ac8b51602537f8cd86577c397b9e0b04d269aad08cff15a063329273f2f2b4179e471c0957e66e7b8b6d17fd70ef83601c6c8fae930a2251c0",
                "transactions" : [
                    {
                        "data" : "",
                        "gasLimit" : "0xa034",
                        "gasPrice" : "0x00",
                        "nonce" : "0x00",
                        "r" : "0x3939645df023741816ac8b51602537f8cd86577c397b9e0b04d269aad08cff15",
                        "s" : "0x63329273f2f2b4179e471c0957e66e7b8b6d17fd70ef83601c6c8fae930a2251",
                        "to" : "0x095e7baea6a6c7c4c2dfeb977efac326af552d87",
                        "v" : "0x1b",
                        "value" : "0x0186a0"
                    }
                ],
                "uncleHeaders" : [
                ]
            }
        ],
        "genesisBlockHeader" : {
            "bloom" : "0x00000000000000000000000000000000000000000000000000000000000000000000000000000000000000000000000000000000000000000000000000000000000000000000000000000000000000000000000000000000000000000000000000000000000000000000000000000000000000000000000000000000000000000000000000000000000000000000000000000000000000000000000000000000000000000000000000000000000000000000000000000000000000000000000000000000000000000000000000000000000000000000000000000000000000000000000000000000000000000000000000000000000000000000000000000000",
            "coinbase" : "0x2adc25665018aa1fe0e6bc666dac8fc2697ff9ba",
            "difficulty" : "0x020000",
            "extraData" : "0x42",
            "gasLimit" : "0x0f4240",
            "gasUsed" : "0x00",
            "hash" : "0x26f4cb1cb9685bad697c0c16ca0d27fe0a4b09364f83ed8418cef0d523783625",
            "mixHash" : "0x56e81f171bcc55a6ff8345e692c0f86e5b48e01b996cadc001622fb5e363b421",
            "nonce" : "0x0102030405060708",
            "number" : "0x00",
            "parentHash" : "0x0000000000000000000000000000000000000000000000000000000000000000",
            "receiptTrie" : "0x56e81f171bcc55a6ff8345e692c0f86e5b48e01b996cadc001622fb5e363b421",
            "stateRoot" : "0x4b4b7a0d58a2388c0e6b3b048c3c27edd6febc6f04171167ed15a77ab2e60b16",
            "timestamp" : "0x03b6",
            "transactionsTrie" : "0x56e81f171bcc55a6ff8345e692c0f86e5b48e01b996cadc001622fb5e363b421",
            "uncleHash" : "0x1dcc4de8dec75d7aab85b567b6ccd41ad312451b948a7413f0a142fd40d49347"
        },
        "genesisRLP" : "0xf901faf901f5a00000000000000000000000000000000000000000000000000000000000000000a01dcc4de8dec75d7aab85b567b6ccd41ad312451b948a7413f0a142fd40d49347942adc25665018aa1fe0e6bc666dac8fc2697ff9baa04b4b7a0d58a2388c0e6b3b048c3c27edd6febc6f04171167ed15a77ab2e60b16a056e81f171bcc55a6ff8345e692c0f86e5b48e01b996cadc001622fb5e363b421a056e81f171bcc55a6ff8345e692c0f86e5b48e01b996cadc001622fb5e363b421b90100000000000000000000000000000000000000000000000000000000000000000000000000000000000000000000000000000000000000000000000000000000000000000000000000000000000000000000000000000000000000000000000000000000000000000000000000000000000000000000000000000000000000000000000000000000000000000000000000000000000000000000000000000000000000000000000000000000000000000000000000000000000000000000000000000000000000000000000000000000000000000000000000000000000000000000000000000000000000000000000000000000000000000000000000000000008302000080830f4240808203b642a056e81f171bcc55a6ff8345e692c0f86e5b48e01b996cadc001622fb5e363b421880102030405060708c0c0",
        "lastblockhash" : "0x24fbf16bc04a5588755c2b9438ada4e766650de771c332815a738e577ba46ad6",
        "network" : "Frontier",
        "postState" : {
            "0x095e7baea6a6c7c4c2dfeb977efac326af552d87" : {
                "balance" : "0x0de0b6b3a76586a0",
                "code" : "0x6001600101600055",
                "nonce" : "0x00",
                "storage" : {
                    "0x00" : "0x02"
                }
            },
            "0x2adc25665018aa1fe0e6bc666dac8fc2697ff9ba" : {
                "balance" : "0x4563918244f40000",
                "code" : "",
                "nonce" : "0x00",
                "storage" : {
                }
            },
            "0xa94f5374fce5edbc8e2a8697c15331677e6ebf0b" : {
                "balance" : "0x0de0b6b3a7627960",
                "code" : "",
                "nonce" : "0x01",
                "storage" : {
                }
            }
        },
        "pre" : {
            "0x095e7baea6a6c7c4c2dfeb977efac326af552d87" : {
                "balance" : "0x0de0b6b3a7640000",
                "code" : "0x6001600101600055",
                "nonce" : "0x00",
                "storage" : {
                }
            },
            "0xa94f5374fce5edbc8e2a8697c15331677e6ebf0b" : {
                "balance" : "0x0de0b6b3a7640000",
                "code" : "",
                "nonce" : "0x00",
                "storage" : {
                }
            }
        }
    },
    "gasPrice0_d0g0v0_Homestead" : {
        "_info" : {
            "comment" : "",
            "filledwith" : "cpp-1.3.0+commit.16292201.Linux.g++",
            "source" : "/src/GenStateTestAsBcTemp/stSpecialTest/gasPrice0_d0g0v0Filler.json"
        },
        "blocks" : [
            {
                "blockHeader" : {
                    "bloom" : "0x00000000000000000000000000000000000000000000000000000000000000000000000000000000000000000000000000000000000000000000000000000000000000000000000000000000000000000000000000000000000000000000000000000000000000000000000000000000000000000000000000000000000000000000000000000000000000000000000000000000000000000000000000000000000000000000000000000000000000000000000000000000000000000000000000000000000000000000000000000000000000000000000000000000000000000000000000000000000000000000000000000000000000000000000000000000",
                    "coinbase" : "0x2adc25665018aa1fe0e6bc666dac8fc2697ff9ba",
                    "difficulty" : "0x020000",
                    "extraData" : "",
                    "gasLimit" : "0x0f4240",
                    "gasUsed" : "0xa034",
                    "hash" : "0xebafd9920911c28432033c0646aafb55c870e0db2a5bfa20d732782d47ce8c42",
                    "mixHash" : "0xe8284b74b79b752ecc70e88c92986e63db71dc1646139ef94c9c5986902644ca",
                    "nonce" : "0x7396dc397f1b1a62",
                    "number" : "0x01",
                    "parentHash" : "0x26f4cb1cb9685bad697c0c16ca0d27fe0a4b09364f83ed8418cef0d523783625",
                    "receiptTrie" : "0x2020ff02579a8cb5d06ddedcebe1db0a5dfd1dac620157589f1b42d6242834e8",
                    "stateRoot" : "0x7728561ce91a98aa7db09b9d6902169bb7aa5850941db57d4c5e120ec3814473",
                    "timestamp" : "0x03e8",
                    "transactionsTrie" : "0x4a6cd97af990bb819f9e3803607d8969f6ad8bbf5043d10c4ca5738f46e0bff3",
                    "uncleHash" : "0x1dcc4de8dec75d7aab85b567b6ccd41ad312451b948a7413f0a142fd40d49347"
                },
                "rlp" : "0xf90261f901f7a026f4cb1cb9685bad697c0c16ca0d27fe0a4b09364f83ed8418cef0d523783625a01dcc4de8dec75d7aab85b567b6ccd41ad312451b948a7413f0a142fd40d49347942adc25665018aa1fe0e6bc666dac8fc2697ff9baa07728561ce91a98aa7db09b9d6902169bb7aa5850941db57d4c5e120ec3814473a04a6cd97af990bb819f9e3803607d8969f6ad8bbf5043d10c4ca5738f46e0bff3a02020ff02579a8cb5d06ddedcebe1db0a5dfd1dac620157589f1b42d6242834e8b90100000000000000000000000000000000000000000000000000000000000000000000000000000000000000000000000000000000000000000000000000000000000000000000000000000000000000000000000000000000000000000000000000000000000000000000000000000000000000000000000000000000000000000000000000000000000000000000000000000000000000000000000000000000000000000000000000000000000000000000000000000000000000000000000000000000000000000000000000000000000000000000000000000000000000000000000000000000000000000000000000000000000000000000000000000000008302000001830f424082a0348203e880a0e8284b74b79b752ecc70e88c92986e63db71dc1646139ef94c9c5986902644ca887396dc397f1b1a62f864f862808082a03494095e7baea6a6c7c4c2dfeb977efac326af552d87830186a0801ba03939645df023741816ac8b51602537f8cd86577c397b9e0b04d269aad08cff15a063329273f2f2b4179e471c0957e66e7b8b6d17fd70ef83601c6c8fae930a2251c0",
                "transactions" : [
                    {
                        "data" : "",
                        "gasLimit" : "0xa034",
                        "gasPrice" : "0x00",
                        "nonce" : "0x00",
                        "r" : "0x3939645df023741816ac8b51602537f8cd86577c397b9e0b04d269aad08cff15",
                        "s" : "0x63329273f2f2b4179e471c0957e66e7b8b6d17fd70ef83601c6c8fae930a2251",
                        "to" : "0x095e7baea6a6c7c4c2dfeb977efac326af552d87",
                        "v" : "0x1b",
                        "value" : "0x0186a0"
                    }
                ],
                "uncleHeaders" : [
                ]
            }
        ],
        "genesisBlockHeader" : {
            "bloom" : "0x00000000000000000000000000000000000000000000000000000000000000000000000000000000000000000000000000000000000000000000000000000000000000000000000000000000000000000000000000000000000000000000000000000000000000000000000000000000000000000000000000000000000000000000000000000000000000000000000000000000000000000000000000000000000000000000000000000000000000000000000000000000000000000000000000000000000000000000000000000000000000000000000000000000000000000000000000000000000000000000000000000000000000000000000000000000",
            "coinbase" : "0x2adc25665018aa1fe0e6bc666dac8fc2697ff9ba",
            "difficulty" : "0x020000",
            "extraData" : "0x42",
            "gasLimit" : "0x0f4240",
            "gasUsed" : "0x00",
            "hash" : "0x26f4cb1cb9685bad697c0c16ca0d27fe0a4b09364f83ed8418cef0d523783625",
            "mixHash" : "0x56e81f171bcc55a6ff8345e692c0f86e5b48e01b996cadc001622fb5e363b421",
            "nonce" : "0x0102030405060708",
            "number" : "0x00",
            "parentHash" : "0x0000000000000000000000000000000000000000000000000000000000000000",
            "receiptTrie" : "0x56e81f171bcc55a6ff8345e692c0f86e5b48e01b996cadc001622fb5e363b421",
            "stateRoot" : "0x4b4b7a0d58a2388c0e6b3b048c3c27edd6febc6f04171167ed15a77ab2e60b16",
            "timestamp" : "0x03b6",
            "transactionsTrie" : "0x56e81f171bcc55a6ff8345e692c0f86e5b48e01b996cadc001622fb5e363b421",
            "uncleHash" : "0x1dcc4de8dec75d7aab85b567b6ccd41ad312451b948a7413f0a142fd40d49347"
        },
        "genesisRLP" : "0xf901faf901f5a00000000000000000000000000000000000000000000000000000000000000000a01dcc4de8dec75d7aab85b567b6ccd41ad312451b948a7413f0a142fd40d49347942adc25665018aa1fe0e6bc666dac8fc2697ff9baa04b4b7a0d58a2388c0e6b3b048c3c27edd6febc6f04171167ed15a77ab2e60b16a056e81f171bcc55a6ff8345e692c0f86e5b48e01b996cadc001622fb5e363b421a056e81f171bcc55a6ff8345e692c0f86e5b48e01b996cadc001622fb5e363b421b90100000000000000000000000000000000000000000000000000000000000000000000000000000000000000000000000000000000000000000000000000000000000000000000000000000000000000000000000000000000000000000000000000000000000000000000000000000000000000000000000000000000000000000000000000000000000000000000000000000000000000000000000000000000000000000000000000000000000000000000000000000000000000000000000000000000000000000000000000000000000000000000000000000000000000000000000000000000000000000000000000000000000000000000000000000000008302000080830f4240808203b642a056e81f171bcc55a6ff8345e692c0f86e5b48e01b996cadc001622fb5e363b421880102030405060708c0c0",
        "lastblockhash" : "0xebafd9920911c28432033c0646aafb55c870e0db2a5bfa20d732782d47ce8c42",
        "network" : "Homestead",
        "postState" : {
            "0x095e7baea6a6c7c4c2dfeb977efac326af552d87" : {
                "balance" : "0x0de0b6b3a76586a0",
                "code" : "0x6001600101600055",
                "nonce" : "0x00",
                "storage" : {
                    "0x00" : "0x02"
                }
            },
            "0x2adc25665018aa1fe0e6bc666dac8fc2697ff9ba" : {
                "balance" : "0x4563918244f40000",
                "code" : "",
                "nonce" : "0x00",
                "storage" : {
                }
            },
            "0xa94f5374fce5edbc8e2a8697c15331677e6ebf0b" : {
                "balance" : "0x0de0b6b3a7627960",
                "code" : "",
                "nonce" : "0x01",
                "storage" : {
                }
            }
        },
        "pre" : {
            "0x095e7baea6a6c7c4c2dfeb977efac326af552d87" : {
                "balance" : "0x0de0b6b3a7640000",
                "code" : "0x6001600101600055",
                "nonce" : "0x00",
                "storage" : {
                }
            },
            "0xa94f5374fce5edbc8e2a8697c15331677e6ebf0b" : {
                "balance" : "0x0de0b6b3a7640000",
                "code" : "",
                "nonce" : "0x00",
                "storage" : {
                }
            }
        }
    },
    "gasPrice0_d0g0v0_Metropolis" : {
        "_info" : {
            "comment" : "",
            "filledwith" : "cpp-1.3.0+commit.16292201.Linux.g++",
            "source" : "/src/GenStateTestAsBcTemp/stSpecialTest/gasPrice0_d0g0v0Filler.json"
        },
        "blocks" : [
            {
                "blockHeader" : {
                    "bloom" : "0x00000000000000000000000000000000000000000000000000000000000000000000000000000000000000000000000000000000000000000000000000000000000000000000000000000000000000000000000000000000000000000000000000000000000000000000000000000000000000000000000000000000000000000000000000000000000000000000000000000000000000000000000000000000000000000000000000000000000000000000000000000000000000000000000000000000000000000000000000000000000000000000000000000000000000000000000000000000000000000000000000000000000000000000000000000000",
                    "coinbase" : "0x2adc25665018aa1fe0e6bc666dac8fc2697ff9ba",
                    "difficulty" : "0x020000",
                    "extraData" : "",
                    "gasLimit" : "0x0f4240",
                    "gasUsed" : "0xa034",
                    "hash" : "0x60442467714bb7f5f9d5e14145a344770fc6b62528ae4778fe1fd2b847e964c1",
                    "mixHash" : "0xee457b2cc66f9df0bdd4925a7860a069a04cbfdcd3a33f35249dc3d2b4520021",
                    "nonce" : "0x8e9ab77e1e6abb43",
                    "number" : "0x01",
                    "parentHash" : "0x26f4cb1cb9685bad697c0c16ca0d27fe0a4b09364f83ed8418cef0d523783625",
                    "receiptTrie" : "0x5a0b89fb1e5f44d02b5900c39683a1796c591b2c3b08e3b1bfc94f5aa4f3c44d",
                    "stateRoot" : "0x444d91a16b470ee899a6c75e39542e7dc266afa115c8bfa04e0b1e057c264845",
                    "timestamp" : "0x03e8",
                    "transactionsTrie" : "0x4a6cd97af990bb819f9e3803607d8969f6ad8bbf5043d10c4ca5738f46e0bff3",
                    "uncleHash" : "0x1dcc4de8dec75d7aab85b567b6ccd41ad312451b948a7413f0a142fd40d49347"
                },
                "rlp" : "0xf90261f901f7a026f4cb1cb9685bad697c0c16ca0d27fe0a4b09364f83ed8418cef0d523783625a01dcc4de8dec75d7aab85b567b6ccd41ad312451b948a7413f0a142fd40d49347942adc25665018aa1fe0e6bc666dac8fc2697ff9baa0444d91a16b470ee899a6c75e39542e7dc266afa115c8bfa04e0b1e057c264845a04a6cd97af990bb819f9e3803607d8969f6ad8bbf5043d10c4ca5738f46e0bff3a05a0b89fb1e5f44d02b5900c39683a1796c591b2c3b08e3b1bfc94f5aa4f3c44db90100000000000000000000000000000000000000000000000000000000000000000000000000000000000000000000000000000000000000000000000000000000000000000000000000000000000000000000000000000000000000000000000000000000000000000000000000000000000000000000000000000000000000000000000000000000000000000000000000000000000000000000000000000000000000000000000000000000000000000000000000000000000000000000000000000000000000000000000000000000000000000000000000000000000000000000000000000000000000000000000000000000000000000000000000000000008302000001830f424082a0348203e880a0ee457b2cc66f9df0bdd4925a7860a069a04cbfdcd3a33f35249dc3d2b4520021888e9ab77e1e6abb43f864f862808082a03494095e7baea6a6c7c4c2dfeb977efac326af552d87830186a0801ba03939645df023741816ac8b51602537f8cd86577c397b9e0b04d269aad08cff15a063329273f2f2b4179e471c0957e66e7b8b6d17fd70ef83601c6c8fae930a2251c0",
                "transactions" : [
                    {
                        "data" : "",
                        "gasLimit" : "0xa034",
                        "gasPrice" : "0x00",
                        "nonce" : "0x00",
                        "r" : "0x3939645df023741816ac8b51602537f8cd86577c397b9e0b04d269aad08cff15",
                        "s" : "0x63329273f2f2b4179e471c0957e66e7b8b6d17fd70ef83601c6c8fae930a2251",
                        "to" : "0x095e7baea6a6c7c4c2dfeb977efac326af552d87",
                        "v" : "0x1b",
                        "value" : "0x0186a0"
                    }
                ],
                "uncleHeaders" : [
                ]
            }
        ],
        "genesisBlockHeader" : {
            "bloom" : "0x00000000000000000000000000000000000000000000000000000000000000000000000000000000000000000000000000000000000000000000000000000000000000000000000000000000000000000000000000000000000000000000000000000000000000000000000000000000000000000000000000000000000000000000000000000000000000000000000000000000000000000000000000000000000000000000000000000000000000000000000000000000000000000000000000000000000000000000000000000000000000000000000000000000000000000000000000000000000000000000000000000000000000000000000000000000",
            "coinbase" : "0x2adc25665018aa1fe0e6bc666dac8fc2697ff9ba",
            "difficulty" : "0x020000",
            "extraData" : "0x42",
            "gasLimit" : "0x0f4240",
            "gasUsed" : "0x00",
            "hash" : "0x26f4cb1cb9685bad697c0c16ca0d27fe0a4b09364f83ed8418cef0d523783625",
            "mixHash" : "0x56e81f171bcc55a6ff8345e692c0f86e5b48e01b996cadc001622fb5e363b421",
            "nonce" : "0x0102030405060708",
            "number" : "0x00",
            "parentHash" : "0x0000000000000000000000000000000000000000000000000000000000000000",
            "receiptTrie" : "0x56e81f171bcc55a6ff8345e692c0f86e5b48e01b996cadc001622fb5e363b421",
            "stateRoot" : "0x4b4b7a0d58a2388c0e6b3b048c3c27edd6febc6f04171167ed15a77ab2e60b16",
            "timestamp" : "0x03b6",
            "transactionsTrie" : "0x56e81f171bcc55a6ff8345e692c0f86e5b48e01b996cadc001622fb5e363b421",
            "uncleHash" : "0x1dcc4de8dec75d7aab85b567b6ccd41ad312451b948a7413f0a142fd40d49347"
        },
        "genesisRLP" : "0xf901faf901f5a00000000000000000000000000000000000000000000000000000000000000000a01dcc4de8dec75d7aab85b567b6ccd41ad312451b948a7413f0a142fd40d49347942adc25665018aa1fe0e6bc666dac8fc2697ff9baa04b4b7a0d58a2388c0e6b3b048c3c27edd6febc6f04171167ed15a77ab2e60b16a056e81f171bcc55a6ff8345e692c0f86e5b48e01b996cadc001622fb5e363b421a056e81f171bcc55a6ff8345e692c0f86e5b48e01b996cadc001622fb5e363b421b90100000000000000000000000000000000000000000000000000000000000000000000000000000000000000000000000000000000000000000000000000000000000000000000000000000000000000000000000000000000000000000000000000000000000000000000000000000000000000000000000000000000000000000000000000000000000000000000000000000000000000000000000000000000000000000000000000000000000000000000000000000000000000000000000000000000000000000000000000000000000000000000000000000000000000000000000000000000000000000000000000000000000000000000000000000000008302000080830f4240808203b642a056e81f171bcc55a6ff8345e692c0f86e5b48e01b996cadc001622fb5e363b421880102030405060708c0c0",
        "lastblockhash" : "0x60442467714bb7f5f9d5e14145a344770fc6b62528ae4778fe1fd2b847e964c1",
        "network" : "Metropolis",
        "postState" : {
            "0x00000000000000000000000000000000000000f0" : {
                "balance" : "0x00",
                "code" : "",
                "nonce" : "0x00",
                "storage" : {
                }
            },
            "0x095e7baea6a6c7c4c2dfeb977efac326af552d87" : {
                "balance" : "0x0de0b6b3a76586a0",
                "code" : "0x6001600101600055",
                "nonce" : "0x00",
                "storage" : {
                    "0x00" : "0x02"
                }
            },
            "0x2adc25665018aa1fe0e6bc666dac8fc2697ff9ba" : {
                "balance" : "0x4563918244f40000",
                "code" : "",
                "nonce" : "0x00",
                "storage" : {
                }
            },
            "0xa94f5374fce5edbc8e2a8697c15331677e6ebf0b" : {
                "balance" : "0x0de0b6b3a7627960",
                "code" : "",
                "nonce" : "0x01",
                "storage" : {
                }
            }
        },
        "pre" : {
            "0x095e7baea6a6c7c4c2dfeb977efac326af552d87" : {
                "balance" : "0x0de0b6b3a7640000",
                "code" : "0x6001600101600055",
                "nonce" : "0x00",
                "storage" : {
                }
            },
            "0xa94f5374fce5edbc8e2a8697c15331677e6ebf0b" : {
                "balance" : "0x0de0b6b3a7640000",
                "code" : "",
                "nonce" : "0x00",
                "storage" : {
                }
            }
        }
    }
}