{
    "makeMoney_d0g0v0_Byzantium" : {
        "_info" : {
            "comment" : "",
            "filledwith" : "cpp-1.3.0+commit.ee0c6776.Linux.g++",
            "lllcversion" : "Version: 0.4.20-develop.2018.2.4+commit.c696803f.Linux.g++",
            "source" : "src/BlockchainTestsFiller/GeneralStateTests/stSpecialTest/makeMoney_d0g0v0Filler.json",
            "sourceHash" : "61341fc47e4b408f7ee8c55b28e8565f2d1c90588d65b78cfb143e3761cae4bc"
        },
        "blocks" : [
            {
                "blockHeader" : {
                    "bloom" : "0x00000000000000000000000000000000000000000000000000000000000000000000000000000000000000000000000000000000000000000000000000000000000000000000000000000000000000000000000000000000000000000000000000000000000000000000000000000000000000000000000000000000000000000000000000000000000000000000000000000000000000000000000000000000000000000000000000000000000000000000000000000000000000000000000000000000000000000000000000000000000000000000000000000000000000000000000000000000000000000000000000000000000000000000000000000000",
                    "coinbase" : "0x2adc25665018aa1fe0e6bc666dac8fc2697ff9ba",
                    "difficulty" : "0x020000",
                    "extraData" : "",
                    "gasLimit" : "0x0f4240",
                    "gasUsed" : "0x010b5c",
                    "hash" : "0xdbceb45991136475449dee4d5d81e8cf2de7eb5e031fa67ecde524ede15f120e",
                    "mixHash" : "0x34975d0cef7682fd5799a43cf3561b1c79b89598fbd306560b1461c3a79cde37",
                    "nonce" : "0x0e2a5d55cdfa1be2",
                    "number" : "0x01",
                    "parentHash" : "0xba0d29185150e57ee6b9dc7cd328a68e4d3bd95f39baf5781faf81cd08a48c04",
                    "receiptTrie" : "0x2baaa45f25bcf8671b5fa0b2c8d4898f87a0cc127b93b05412637df4c61b8d12",
                    "stateRoot" : "0x72730358f74c9aff2ec6a6fffd9f318def79473caf6d862125d83f26ca74e3d8",
                    "timestamp" : "0x03e8",
                    "transactionsTrie" : "0x57cd1208949456b0bed5e02fa41b2e5c3c7d3af1083b667da1de3dcdac728f2d",
                    "uncleHash" : "0x1dcc4de8dec75d7aab85b567b6ccd41ad312451b948a7413f0a142fd40d49347"
                },
                "rlp" : "0xf90260f901f8a0ba0d29185150e57ee6b9dc7cd328a68e4d3bd95f39baf5781faf81cd08a48c04a01dcc4de8dec75d7aab85b567b6ccd41ad312451b948a7413f0a142fd40d49347942adc25665018aa1fe0e6bc666dac8fc2697ff9baa072730358f74c9aff2ec6a6fffd9f318def79473caf6d862125d83f26ca74e3d8a057cd1208949456b0bed5e02fa41b2e5c3c7d3af1083b667da1de3dcdac728f2da02baaa45f25bcf8671b5fa0b2c8d4898f87a0cc127b93b05412637df4c61b8d12b90100000000000000000000000000000000000000000000000000000000000000000000000000000000000000000000000000000000000000000000000000000000000000000000000000000000000000000000000000000000000000000000000000000000000000000000000000000000000000000000000000000000000000000000000000000000000000000000000000000000000000000000000000000000000000000000000000000000000000000000000000000000000000000000000000000000000000000000000000000000000000000000000000000000000000000000000000000000000000000000000000000000000000000000000000000000008302000001830f424083010b5c8203e880a034975d0cef7682fd5799a43cf3561b1c79b89598fbd306560b1461c3a79cde37880e2a5d55cdfa1be2f862f860800183037c9494095e7baea6a6c7c4c2dfeb977efac326af552d870a801ba0101438d10b20f52fc58d35ed7158388765cf9fd61744b25bb7bd9de3332e14d3a05a8a9e5fbcda8f3e48da6a2cb00105fcfe3a5d7285dd6daf7de6ebc63451e6bac0",
                "transactions" : [
                    {
                        "data" : "0x",
                        "gasLimit" : "0x037c94",
                        "gasPrice" : "0x01",
                        "nonce" : "0x00",
                        "r" : "0x101438d10b20f52fc58d35ed7158388765cf9fd61744b25bb7bd9de3332e14d3",
                        "s" : "0x5a8a9e5fbcda8f3e48da6a2cb00105fcfe3a5d7285dd6daf7de6ebc63451e6ba",
                        "to" : "0x095e7baea6a6c7c4c2dfeb977efac326af552d87",
                        "v" : "0x1b",
                        "value" : "0x0a"
                    }
                ],
                "uncleHeaders" : [
                ]
            }
        ],
        "genesisBlockHeader" : {
            "bloom" : "0x00000000000000000000000000000000000000000000000000000000000000000000000000000000000000000000000000000000000000000000000000000000000000000000000000000000000000000000000000000000000000000000000000000000000000000000000000000000000000000000000000000000000000000000000000000000000000000000000000000000000000000000000000000000000000000000000000000000000000000000000000000000000000000000000000000000000000000000000000000000000000000000000000000000000000000000000000000000000000000000000000000000000000000000000000000000",
            "coinbase" : "0x2adc25665018aa1fe0e6bc666dac8fc2697ff9ba",
            "difficulty" : "0x020000",
            "extraData" : "0x42",
            "gasLimit" : "0x0f4240",
            "gasUsed" : "0x00",
            "hash" : "0xba0d29185150e57ee6b9dc7cd328a68e4d3bd95f39baf5781faf81cd08a48c04",
            "mixHash" : "0x56e81f171bcc55a6ff8345e692c0f86e5b48e01b996cadc001622fb5e363b421",
            "nonce" : "0x0102030405060708",
            "number" : "0x00",
            "parentHash" : "0x0000000000000000000000000000000000000000000000000000000000000000",
            "receiptTrie" : "0x56e81f171bcc55a6ff8345e692c0f86e5b48e01b996cadc001622fb5e363b421",
            "stateRoot" : "0x25cf44640e3ee16fa191aa379acb9caa4b460c91715687054464bb80ffc01ad4",
            "timestamp" : "0x03b6",
            "transactionsTrie" : "0x56e81f171bcc55a6ff8345e692c0f86e5b48e01b996cadc001622fb5e363b421",
            "uncleHash" : "0x1dcc4de8dec75d7aab85b567b6ccd41ad312451b948a7413f0a142fd40d49347"
        },
        "genesisRLP" : "0xf901faf901f5a00000000000000000000000000000000000000000000000000000000000000000a01dcc4de8dec75d7aab85b567b6ccd41ad312451b948a7413f0a142fd40d49347942adc25665018aa1fe0e6bc666dac8fc2697ff9baa025cf44640e3ee16fa191aa379acb9caa4b460c91715687054464bb80ffc01ad4a056e81f171bcc55a6ff8345e692c0f86e5b48e01b996cadc001622fb5e363b421a056e81f171bcc55a6ff8345e692c0f86e5b48e01b996cadc001622fb5e363b421b90100000000000000000000000000000000000000000000000000000000000000000000000000000000000000000000000000000000000000000000000000000000000000000000000000000000000000000000000000000000000000000000000000000000000000000000000000000000000000000000000000000000000000000000000000000000000000000000000000000000000000000000000000000000000000000000000000000000000000000000000000000000000000000000000000000000000000000000000000000000000000000000000000000000000000000000000000000000000000000000000000000000000000000000000000000000008302000080830f4240808203b642a056e81f171bcc55a6ff8345e692c0f86e5b48e01b996cadc001622fb5e363b421880102030405060708c0c0",
        "lastblockhash" : "0xdbceb45991136475449dee4d5d81e8cf2de7eb5e031fa67ecde524ede15f120e",
        "network" : "Byzantium",
        "postState" : {
            "0x095e7baea6a6c7c4c2dfeb977efac326af552d87" : {
                "balance" : "0x0de0b6b3a763fff3",
                "code" : "0x7b601080600c6000396000f200600035541560095700602035600035556000526000600060006000601773aaaaaaaaace5edbc8e2a8697c15331677e6ebf0b7fffffffffffffffffffffffffffffffffffffffffffffffffffffffffffffffecf1",
                "nonce" : "0x00",
                "storage" : {
                }
            },
            "0x2adc25665018aa1fe0e6bc666dac8fc2697ff9ba" : {
                "balance" : "0x29a2241af62d0b5c",
                "code" : "",
                "nonce" : "0x00",
                "storage" : {
                }
            },
            "0xa94f5374fce5edbc8e2a8697c15331677e6ebf0b" : {
                "balance" : "0x0e36da",
                "code" : "",
                "nonce" : "0x01",
                "storage" : {
                }
            },
            "0xaaaaaaaaace5edbc8e2a8697c15331677e6ebf0b" : {
                "balance" : "0x0de0b6b3a7640017",
                "code" : "0x600160015532600255",
                "nonce" : "0x00",
                "storage" : {
                    "0x01" : "0x01",
                    "0x02" : "0xa94f5374fce5edbc8e2a8697c15331677e6ebf0b"
                }
            }
        },
        "pre" : {
            "0x095e7baea6a6c7c4c2dfeb977efac326af552d87" : {
                "balance" : "0x0de0b6b3a7640000",
                "code" : "0x7b601080600c6000396000f200600035541560095700602035600035556000526000600060006000601773aaaaaaaaace5edbc8e2a8697c15331677e6ebf0b7fffffffffffffffffffffffffffffffffffffffffffffffffffffffffffffffecf1",
                "nonce" : "0x00",
                "storage" : {
                }
            },
            "0xa94f5374fce5edbc8e2a8697c15331677e6ebf0b" : {
                "balance" : "0x0f4240",
                "code" : "",
                "nonce" : "0x00",
                "storage" : {
                }
            },
            "0xaaaaaaaaace5edbc8e2a8697c15331677e6ebf0b" : {
                "balance" : "0x0de0b6b3a7640000",
                "code" : "0x600160015532600255",
                "nonce" : "0x00",
                "storage" : {
                }
            }
        }
    },
    "makeMoney_d0g0v0_EIP158" : {
        "_info" : {
            "comment" : "",
            "filledwith" : "cpp-1.3.0+commit.ee0c6776.Linux.g++",
            "lllcversion" : "Version: 0.4.20-develop.2018.2.4+commit.c696803f.Linux.g++",
            "source" : "src/BlockchainTestsFiller/GeneralStateTests/stSpecialTest/makeMoney_d0g0v0Filler.json",
            "sourceHash" : "61341fc47e4b408f7ee8c55b28e8565f2d1c90588d65b78cfb143e3761cae4bc"
        },
        "blocks" : [
            {
                "blockHeader" : {
                    "bloom" : "0x00000000000000000000000000000000000000000000000000000000000000000000000000000000000000000000000000000000000000000000000000000000000000000000000000000000000000000000000000000000000000000000000000000000000000000000000000000000000000000000000000000000000000000000000000000000000000000000000000000000000000000000000000000000000000000000000000000000000000000000000000000000000000000000000000000000000000000000000000000000000000000000000000000000000000000000000000000000000000000000000000000000000000000000000000000000",
                    "coinbase" : "0x2adc25665018aa1fe0e6bc666dac8fc2697ff9ba",
                    "difficulty" : "0x020000",
                    "extraData" : "",
                    "gasLimit" : "0x0f4240",
                    "gasUsed" : "0x010b5c",
                    "hash" : "0x6c6549e66ac377e673c7e8c15ccfddc02e2a39194f921dfce79bd694df081f89",
                    "mixHash" : "0x898d3ea98fbb8323bb92315b0c3556cc330f0eba198f97e64dc5112463d716be",
                    "nonce" : "0x52fd03bc3439dacf",
                    "number" : "0x01",
                    "parentHash" : "0xba0d29185150e57ee6b9dc7cd328a68e4d3bd95f39baf5781faf81cd08a48c04",
                    "receiptTrie" : "0x29a9b815792843fe54b1b545ce7f528b7707b66a573756e8db496a5f637e77fd",
                    "stateRoot" : "0x6aae668673ba7fdf6f7db9dd0d9fa17f57f42d04da9f125d025270560cca6bf4",
                    "timestamp" : "0x03e8",
                    "transactionsTrie" : "0x57cd1208949456b0bed5e02fa41b2e5c3c7d3af1083b667da1de3dcdac728f2d",
                    "uncleHash" : "0x1dcc4de8dec75d7aab85b567b6ccd41ad312451b948a7413f0a142fd40d49347"
                },
                "rlp" : "0xf90260f901f8a0ba0d29185150e57ee6b9dc7cd328a68e4d3bd95f39baf5781faf81cd08a48c04a01dcc4de8dec75d7aab85b567b6ccd41ad312451b948a7413f0a142fd40d49347942adc25665018aa1fe0e6bc666dac8fc2697ff9baa06aae668673ba7fdf6f7db9dd0d9fa17f57f42d04da9f125d025270560cca6bf4a057cd1208949456b0bed5e02fa41b2e5c3c7d3af1083b667da1de3dcdac728f2da029a9b815792843fe54b1b545ce7f528b7707b66a573756e8db496a5f637e77fdb90100000000000000000000000000000000000000000000000000000000000000000000000000000000000000000000000000000000000000000000000000000000000000000000000000000000000000000000000000000000000000000000000000000000000000000000000000000000000000000000000000000000000000000000000000000000000000000000000000000000000000000000000000000000000000000000000000000000000000000000000000000000000000000000000000000000000000000000000000000000000000000000000000000000000000000000000000000000000000000000000000000000000000000000000000000000008302000001830f424083010b5c8203e880a0898d3ea98fbb8323bb92315b0c3556cc330f0eba198f97e64dc5112463d716be8852fd03bc3439dacff862f860800183037c9494095e7baea6a6c7c4c2dfeb977efac326af552d870a801ba0101438d10b20f52fc58d35ed7158388765cf9fd61744b25bb7bd9de3332e14d3a05a8a9e5fbcda8f3e48da6a2cb00105fcfe3a5d7285dd6daf7de6ebc63451e6bac0",
                "transactions" : [
                    {
                        "data" : "0x",
                        "gasLimit" : "0x037c94",
                        "gasPrice" : "0x01",
                        "nonce" : "0x00",
                        "r" : "0x101438d10b20f52fc58d35ed7158388765cf9fd61744b25bb7bd9de3332e14d3",
                        "s" : "0x5a8a9e5fbcda8f3e48da6a2cb00105fcfe3a5d7285dd6daf7de6ebc63451e6ba",
                        "to" : "0x095e7baea6a6c7c4c2dfeb977efac326af552d87",
                        "v" : "0x1b",
                        "value" : "0x0a"
                    }
                ],
                "uncleHeaders" : [
                ]
            }
        ],
        "genesisBlockHeader" : {
            "bloom" : "0x00000000000000000000000000000000000000000000000000000000000000000000000000000000000000000000000000000000000000000000000000000000000000000000000000000000000000000000000000000000000000000000000000000000000000000000000000000000000000000000000000000000000000000000000000000000000000000000000000000000000000000000000000000000000000000000000000000000000000000000000000000000000000000000000000000000000000000000000000000000000000000000000000000000000000000000000000000000000000000000000000000000000000000000000000000000",
            "coinbase" : "0x2adc25665018aa1fe0e6bc666dac8fc2697ff9ba",
            "difficulty" : "0x020000",
            "extraData" : "0x42",
            "gasLimit" : "0x0f4240",
            "gasUsed" : "0x00",
            "hash" : "0xba0d29185150e57ee6b9dc7cd328a68e4d3bd95f39baf5781faf81cd08a48c04",
            "mixHash" : "0x56e81f171bcc55a6ff8345e692c0f86e5b48e01b996cadc001622fb5e363b421",
            "nonce" : "0x0102030405060708",
            "number" : "0x00",
            "parentHash" : "0x0000000000000000000000000000000000000000000000000000000000000000",
            "receiptTrie" : "0x56e81f171bcc55a6ff8345e692c0f86e5b48e01b996cadc001622fb5e363b421",
            "stateRoot" : "0x25cf44640e3ee16fa191aa379acb9caa4b460c91715687054464bb80ffc01ad4",
            "timestamp" : "0x03b6",
            "transactionsTrie" : "0x56e81f171bcc55a6ff8345e692c0f86e5b48e01b996cadc001622fb5e363b421",
            "uncleHash" : "0x1dcc4de8dec75d7aab85b567b6ccd41ad312451b948a7413f0a142fd40d49347"
        },
        "genesisRLP" : "0xf901faf901f5a00000000000000000000000000000000000000000000000000000000000000000a01dcc4de8dec75d7aab85b567b6ccd41ad312451b948a7413f0a142fd40d49347942adc25665018aa1fe0e6bc666dac8fc2697ff9baa025cf44640e3ee16fa191aa379acb9caa4b460c91715687054464bb80ffc01ad4a056e81f171bcc55a6ff8345e692c0f86e5b48e01b996cadc001622fb5e363b421a056e81f171bcc55a6ff8345e692c0f86e5b48e01b996cadc001622fb5e363b421b90100000000000000000000000000000000000000000000000000000000000000000000000000000000000000000000000000000000000000000000000000000000000000000000000000000000000000000000000000000000000000000000000000000000000000000000000000000000000000000000000000000000000000000000000000000000000000000000000000000000000000000000000000000000000000000000000000000000000000000000000000000000000000000000000000000000000000000000000000000000000000000000000000000000000000000000000000000000000000000000000000000000000000000000000000000000008302000080830f4240808203b642a056e81f171bcc55a6ff8345e692c0f86e5b48e01b996cadc001622fb5e363b421880102030405060708c0c0",
        "lastblockhash" : "0x6c6549e66ac377e673c7e8c15ccfddc02e2a39194f921dfce79bd694df081f89",
        "network" : "EIP158",
        "postState" : {
            "0x095e7baea6a6c7c4c2dfeb977efac326af552d87" : {
                "balance" : "0x0de0b6b3a763fff3",
                "code" : "0x7b601080600c6000396000f200600035541560095700602035600035556000526000600060006000601773aaaaaaaaace5edbc8e2a8697c15331677e6ebf0b7fffffffffffffffffffffffffffffffffffffffffffffffffffffffffffffffecf1",
                "nonce" : "0x00",
                "storage" : {
                }
            },
            "0x2adc25665018aa1fe0e6bc666dac8fc2697ff9ba" : {
                "balance" : "0x4563918244f50b5c",
                "code" : "",
                "nonce" : "0x00",
                "storage" : {
                }
            },
            "0xa94f5374fce5edbc8e2a8697c15331677e6ebf0b" : {
                "balance" : "0x0e36da",
                "code" : "",
                "nonce" : "0x01",
                "storage" : {
                }
            },
            "0xaaaaaaaaace5edbc8e2a8697c15331677e6ebf0b" : {
                "balance" : "0x0de0b6b3a7640017",
                "code" : "0x600160015532600255",
                "nonce" : "0x00",
                "storage" : {
                    "0x01" : "0x01",
                    "0x02" : "0xa94f5374fce5edbc8e2a8697c15331677e6ebf0b"
                }
            }
        },
        "pre" : {
            "0x095e7baea6a6c7c4c2dfeb977efac326af552d87" : {
                "balance" : "0x0de0b6b3a7640000",
                "code" : "0x7b601080600c6000396000f200600035541560095700602035600035556000526000600060006000601773aaaaaaaaace5edbc8e2a8697c15331677e6ebf0b7fffffffffffffffffffffffffffffffffffffffffffffffffffffffffffffffecf1",
                "nonce" : "0x00",
                "storage" : {
                }
            },
            "0xa94f5374fce5edbc8e2a8697c15331677e6ebf0b" : {
                "balance" : "0x0f4240",
                "code" : "",
                "nonce" : "0x00",
                "storage" : {
                }
            },
            "0xaaaaaaaaace5edbc8e2a8697c15331677e6ebf0b" : {
                "balance" : "0x0de0b6b3a7640000",
                "code" : "0x600160015532600255",
                "nonce" : "0x00",
                "storage" : {
                }
            }
        }
    },
    "makeMoney_d0g0v0_Homestead" : {
        "_info" : {
            "comment" : "",
            "filledwith" : "cpp-1.3.0+commit.ee0c6776.Linux.g++",
            "lllcversion" : "Version: 0.4.20-develop.2018.2.4+commit.c696803f.Linux.g++",
            "source" : "src/BlockchainTestsFiller/GeneralStateTests/stSpecialTest/makeMoney_d0g0v0Filler.json",
            "sourceHash" : "61341fc47e4b408f7ee8c55b28e8565f2d1c90588d65b78cfb143e3761cae4bc"
        },
        "blocks" : [
            {
                "blockHeader" : {
                    "bloom" : "0x00000000000000000000000000000000000000000000000000000000000000000000000000000000000000000000000000000000000000000000000000000000000000000000000000000000000000000000000000000000000000000000000000000000000000000000000000000000000000000000000000000000000000000000000000000000000000000000000000000000000000000000000000000000000000000000000000000000000000000000000000000000000000000000000000000000000000000000000000000000000000000000000000000000000000000000000000000000000000000000000000000000000000000000000000000000",
                    "coinbase" : "0x2adc25665018aa1fe0e6bc666dac8fc2697ff9ba",
                    "difficulty" : "0x020000",
                    "extraData" : "",
                    "gasLimit" : "0x0f4240",
                    "gasUsed" : "0x037c94",
                    "hash" : "0xec2ccd49fd19e04e3b8b5644ae49b47b7fb58064b431abb0eb6c63bdb2814a91",
                    "mixHash" : "0xfc9b5241f89c56327f65b7acbb7f1f87222bd699351e2f5f70d2f9fb15ec0288",
                    "nonce" : "0x2bd2c230dc5eb7fa",
                    "number" : "0x01",
                    "parentHash" : "0xba0d29185150e57ee6b9dc7cd328a68e4d3bd95f39baf5781faf81cd08a48c04",
                    "receiptTrie" : "0xe5c9dabd67359428665ee942686e5e529d3f3430ea3a7bc0e9c40f2bca409f82",
                    "stateRoot" : "0xc225dda54ed06df9d2ccf377b2403d2bf9b567032b07e70b6612b38e0cff9915",
                    "timestamp" : "0x03e8",
                    "transactionsTrie" : "0x57cd1208949456b0bed5e02fa41b2e5c3c7d3af1083b667da1de3dcdac728f2d",
                    "uncleHash" : "0x1dcc4de8dec75d7aab85b567b6ccd41ad312451b948a7413f0a142fd40d49347"
                },
                "rlp" : "0xf90260f901f8a0ba0d29185150e57ee6b9dc7cd328a68e4d3bd95f39baf5781faf81cd08a48c04a01dcc4de8dec75d7aab85b567b6ccd41ad312451b948a7413f0a142fd40d49347942adc25665018aa1fe0e6bc666dac8fc2697ff9baa0c225dda54ed06df9d2ccf377b2403d2bf9b567032b07e70b6612b38e0cff9915a057cd1208949456b0bed5e02fa41b2e5c3c7d3af1083b667da1de3dcdac728f2da0e5c9dabd67359428665ee942686e5e529d3f3430ea3a7bc0e9c40f2bca409f82b90100000000000000000000000000000000000000000000000000000000000000000000000000000000000000000000000000000000000000000000000000000000000000000000000000000000000000000000000000000000000000000000000000000000000000000000000000000000000000000000000000000000000000000000000000000000000000000000000000000000000000000000000000000000000000000000000000000000000000000000000000000000000000000000000000000000000000000000000000000000000000000000000000000000000000000000000000000000000000000000000000000000000000000000000000000000008302000001830f424083037c948203e880a0fc9b5241f89c56327f65b7acbb7f1f87222bd699351e2f5f70d2f9fb15ec0288882bd2c230dc5eb7faf862f860800183037c9494095e7baea6a6c7c4c2dfeb977efac326af552d870a801ba0101438d10b20f52fc58d35ed7158388765cf9fd61744b25bb7bd9de3332e14d3a05a8a9e5fbcda8f3e48da6a2cb00105fcfe3a5d7285dd6daf7de6ebc63451e6bac0",
                "transactions" : [
                    {
                        "data" : "0x",
                        "gasLimit" : "0x037c94",
                        "gasPrice" : "0x01",
                        "nonce" : "0x00",
                        "r" : "0x101438d10b20f52fc58d35ed7158388765cf9fd61744b25bb7bd9de3332e14d3",
                        "s" : "0x5a8a9e5fbcda8f3e48da6a2cb00105fcfe3a5d7285dd6daf7de6ebc63451e6ba",
                        "to" : "0x095e7baea6a6c7c4c2dfeb977efac326af552d87",
                        "v" : "0x1b",
                        "value" : "0x0a"
                    }
                ],
                "uncleHeaders" : [
                ]
            }
        ],
        "genesisBlockHeader" : {
            "bloom" : "0x00000000000000000000000000000000000000000000000000000000000000000000000000000000000000000000000000000000000000000000000000000000000000000000000000000000000000000000000000000000000000000000000000000000000000000000000000000000000000000000000000000000000000000000000000000000000000000000000000000000000000000000000000000000000000000000000000000000000000000000000000000000000000000000000000000000000000000000000000000000000000000000000000000000000000000000000000000000000000000000000000000000000000000000000000000000",
            "coinbase" : "0x2adc25665018aa1fe0e6bc666dac8fc2697ff9ba",
            "difficulty" : "0x020000",
            "extraData" : "0x42",
            "gasLimit" : "0x0f4240",
            "gasUsed" : "0x00",
            "hash" : "0xba0d29185150e57ee6b9dc7cd328a68e4d3bd95f39baf5781faf81cd08a48c04",
            "mixHash" : "0x56e81f171bcc55a6ff8345e692c0f86e5b48e01b996cadc001622fb5e363b421",
            "nonce" : "0x0102030405060708",
            "number" : "0x00",
            "parentHash" : "0x0000000000000000000000000000000000000000000000000000000000000000",
            "receiptTrie" : "0x56e81f171bcc55a6ff8345e692c0f86e5b48e01b996cadc001622fb5e363b421",
            "stateRoot" : "0x25cf44640e3ee16fa191aa379acb9caa4b460c91715687054464bb80ffc01ad4",
            "timestamp" : "0x03b6",
            "transactionsTrie" : "0x56e81f171bcc55a6ff8345e692c0f86e5b48e01b996cadc001622fb5e363b421",
            "uncleHash" : "0x1dcc4de8dec75d7aab85b567b6ccd41ad312451b948a7413f0a142fd40d49347"
        },
        "genesisRLP" : "0xf901faf901f5a00000000000000000000000000000000000000000000000000000000000000000a01dcc4de8dec75d7aab85b567b6ccd41ad312451b948a7413f0a142fd40d49347942adc25665018aa1fe0e6bc666dac8fc2697ff9baa025cf44640e3ee16fa191aa379acb9caa4b460c91715687054464bb80ffc01ad4a056e81f171bcc55a6ff8345e692c0f86e5b48e01b996cadc001622fb5e363b421a056e81f171bcc55a6ff8345e692c0f86e5b48e01b996cadc001622fb5e363b421b90100000000000000000000000000000000000000000000000000000000000000000000000000000000000000000000000000000000000000000000000000000000000000000000000000000000000000000000000000000000000000000000000000000000000000000000000000000000000000000000000000000000000000000000000000000000000000000000000000000000000000000000000000000000000000000000000000000000000000000000000000000000000000000000000000000000000000000000000000000000000000000000000000000000000000000000000000000000000000000000000000000000000000000000000000000000008302000080830f4240808203b642a056e81f171bcc55a6ff8345e692c0f86e5b48e01b996cadc001622fb5e363b421880102030405060708c0c0",
        "lastblockhash" : "0xec2ccd49fd19e04e3b8b5644ae49b47b7fb58064b431abb0eb6c63bdb2814a91",
        "network" : "Homestead",
        "postState" : {
            "0x095e7baea6a6c7c4c2dfeb977efac326af552d87" : {
                "balance" : "0x0de0b6b3a7640000",
                "code" : "0x7b601080600c6000396000f200600035541560095700602035600035556000526000600060006000601773aaaaaaaaace5edbc8e2a8697c15331677e6ebf0b7fffffffffffffffffffffffffffffffffffffffffffffffffffffffffffffffecf1",
                "nonce" : "0x00",
                "storage" : {
                }
            },
            "0x2adc25665018aa1fe0e6bc666dac8fc2697ff9ba" : {
                "balance" : "0x4563918244f77c94",
                "code" : "",
                "nonce" : "0x00",
                "storage" : {
                }
            },
            "0xa94f5374fce5edbc8e2a8697c15331677e6ebf0b" : {
                "balance" : "0x0bc5ac",
                "code" : "",
                "nonce" : "0x01",
                "storage" : {
                }
            },
            "0xaaaaaaaaace5edbc8e2a8697c15331677e6ebf0b" : {
                "balance" : "0x0de0b6b3a7640000",
                "code" : "0x600160015532600255",
                "nonce" : "0x00",
                "storage" : {
                }
            }
        },
        "pre" : {
            "0x095e7baea6a6c7c4c2dfeb977efac326af552d87" : {
                "balance" : "0x0de0b6b3a7640000",
                "code" : "0x7b601080600c6000396000f200600035541560095700602035600035556000526000600060006000601773aaaaaaaaace5edbc8e2a8697c15331677e6ebf0b7fffffffffffffffffffffffffffffffffffffffffffffffffffffffffffffffecf1",
                "nonce" : "0x00",
                "storage" : {
                }
            },
            "0xa94f5374fce5edbc8e2a8697c15331677e6ebf0b" : {
                "balance" : "0x0f4240",
                "code" : "",
                "nonce" : "0x00",
                "storage" : {
                }
            },
            "0xaaaaaaaaace5edbc8e2a8697c15331677e6ebf0b" : {
                "balance" : "0x0de0b6b3a7640000",
                "code" : "0x600160015532600255",
                "nonce" : "0x00",
                "storage" : {
                }
            }
        }
    }
}