{
    "measureGas" : {
        "_info" : {
            "comment" : "Ori Pomerantz   qbzzt1@gmail.com",
            "filling-rpc-server" : "evm version 1.11.4-unstable-e14043db-20230308",
            "filling-tool-version" : "retesteth-0.3.0-shanghai+commit.fd2c0a83.Linux.g++",
            "generatedTestHash" : "038c209b05a301f6eb97d60358ea3bbfd63408833786cd8a8c31d387a2bf09de",
            "labels" : {
                "0" : "CREATE",
                "1" : "CREATE2",
                "10" : "EXTCODE",
                "2" : "CALL",
                "3" : "CALLCODE",
                "4" : "DELEGATECALL",
                "5" : "STATICCALL",
                "6" : "MLOAD",
                "7" : "MSTORE",
                "8" : "MSTORE8",
                "9" : "SHA3"
            },
            "lllcversion" : "Version: 0.5.14-develop.2022.7.30+commit.a096d7a9.Linux.g++",
            "solidity" : "Version: 0.8.17+commit.8df45f5f.Linux.g++",
            "source" : "src/GeneralStateTestsFiller/stBadOpcode/measureGasFiller.yml",
            "sourceHash" : "7f3310ad633b4233a7e69d6039814a59de23899554ef799d2b66e56dc2048877"
        },
        "env" : {
            "currentBaseFee" : "0x0a",
            "currentCoinbase" : "0x2adc25665018aa1fe0e6bc666dac8fc2697ff9ba",
            "currentDifficulty" : "0x020000",
            "currentGasLimit" : "0x05f5e100",
            "currentNumber" : "0x01",
            "currentRandom" : "0x0000000000000000000000000000000000000000000000000000000000020000",
            "currentTimestamp" : "0x03e8",
            "previousHash" : "0x5e20a0453cecd065ea59c37ac63e079ee08998b6045136a8ce6635c7912ec0b6"
        },
        "post" : {
            "London" : [
                {
                    "hash" : "0x62d0f81d37aa0e1fb5175b2c4d469ed4fd07804328e04fb391ca3f9a04fe62e2",
                    "indexes" : {
                        "data" : 0,
                        "gas" : 0,
                        "value" : 0
                    },
                    "logs" : "0x1dcc4de8dec75d7aab85b567b6ccd41ad312451b948a7413f0a142fd40d49347",
                    "txbytes" : "0xf885010a8404c4b40094cccccccccccccccccccccccccccccccccccccccc80a4693c613900000000000000000000000000000000000000000000000000000000000000f01ca0557d839b6febb1a156ed60c183495c8cba8443fc72d259602b6b3a38fd8c70cda062425aa43de3d326e736ab16ef872b2f3aa50dd8318a033c638d63b909063169"
                },
                {
                    "hash" : "0xf02b9f071ef213b5617d4880acc8d7799f5da1be2bf93727bee9c4d6f9b9bb0f",
                    "indexes" : {
                        "data" : 1,
                        "gas" : 0,
                        "value" : 0
                    },
                    "logs" : "0x1dcc4de8dec75d7aab85b567b6ccd41ad312451b948a7413f0a142fd40d49347",
                    "txbytes" : "0xf885010a8404c4b40094cccccccccccccccccccccccccccccccccccccccc80a4693c613900000000000000000000000000000000000000000000000000000000000000f51ca0a5171d519ebe2181db331781ba1d2813ef1ccfaa8a8abff74781699c6b753d71a00f57d1613b58c1ffa65ba07547a70026665b647f8660da827bcc55453651d9c3"
                },
                {
                    "hash" : "0x7424abc21d0c9d491bb893f3f1a91aea04fe3748d77c3f43a5292643d62cda30",
                    "indexes" : {
                        "data" : 2,
                        "gas" : 0,
                        "value" : 0
                    },
                    "logs" : "0x1dcc4de8dec75d7aab85b567b6ccd41ad312451b948a7413f0a142fd40d49347",
                    "txbytes" : "0xf885010a8404c4b40094cccccccccccccccccccccccccccccccccccccccc80a4693c613900000000000000000000000000000000000000000000000000000000000000f11ca01721db694df213d77f7e80114434b7dccbaee1645915534b367a822b0f8797f9a05ed8722121b040f95bbf9b0063d8b9775a609ab1e9c4cd248d0e5f229e98585d"
                },
                {
                    "hash" : "0x7424abc21d0c9d491bb893f3f1a91aea04fe3748d77c3f43a5292643d62cda30",
                    "indexes" : {
                        "data" : 3,
                        "gas" : 0,
                        "value" : 0
                    },
                    "logs" : "0x1dcc4de8dec75d7aab85b567b6ccd41ad312451b948a7413f0a142fd40d49347",
                    "txbytes" : "0xf885010a8404c4b40094cccccccccccccccccccccccccccccccccccccccc80a4693c613900000000000000000000000000000000000000000000000000000000000000f21ca0ea42e7bbf4a6a8f72f130ae2f9005ca37908f339d2a788108902c638035170aba0150df6813ca893f847d1d798681cff9724882f6f45dfc1363bbeaa973a99ec07"
                },
                {
                    "hash" : "0x62059b1a403999816fb05e17be7d997ea29b8305bd9d0d97449f34c3abe0b53d",
                    "indexes" : {
                        "data" : 4,
                        "gas" : 0,
                        "value" : 0
                    },
                    "logs" : "0x1dcc4de8dec75d7aab85b567b6ccd41ad312451b948a7413f0a142fd40d49347",
                    "txbytes" : "0xf885010a8404c4b40094cccccccccccccccccccccccccccccccccccccccc80a4693c613900000000000000000000000000000000000000000000000000000000000000f41ca0cf339783b8b7fe5a1bc98dc56ce474c11c3b02584039e34285d348bf727ae4f6a06ab392d121c7cf5a9eb7f445ef3dce1883dc995acd8947e14bb6bb1a43479b33"
                },
                {
                    "hash" : "0x62059b1a403999816fb05e17be7d997ea29b8305bd9d0d97449f34c3abe0b53d",
                    "indexes" : {
                        "data" : 5,
                        "gas" : 0,
                        "value" : 0
                    },
                    "logs" : "0x1dcc4de8dec75d7aab85b567b6ccd41ad312451b948a7413f0a142fd40d49347",
                    "txbytes" : "0xf885010a8404c4b40094cccccccccccccccccccccccccccccccccccccccc80a4693c613900000000000000000000000000000000000000000000000000000000000000fa1ba0d7e338b4d80eb34d67df26182e7f3fc2ec368a0c0233e55b3fdb8de36bf106d4a02a99b5f895df35b5498a26adb52fd9247c33675b4fe89f0562419af3a70e10df"
                },
                {
                    "hash" : "0x5a74b7adec78f1084cf837949ad4821ec4ac79557898b5b645aec3110d81978f",
                    "indexes" : {
                        "data" : 6,
                        "gas" : 0,
                        "value" : 0
                    },
                    "logs" : "0x1dcc4de8dec75d7aab85b567b6ccd41ad312451b948a7413f0a142fd40d49347",
                    "txbytes" : "0xf885010a8404c4b40094cccccccccccccccccccccccccccccccccccccccc80a4693c613900000000000000000000000000000000000000000000000000000000000000511ba0c7f313b13d2dc29d41efe6171f6cfff4c1a41c82538060b108b9fa861b8f4f4aa066006432d421a06aa794068c588be91d3177f4635074f1039e6ef2813a44b7a1"
                },
                {
                    "hash" : "0x89a4b8f440ea37d5a39679f7fee1e3a64d961406106bda4a6e9e29db3e7e8d46",
                    "indexes" : {
                        "data" : 7,
                        "gas" : 0,
                        "value" : 0
                    },
                    "logs" : "0x1dcc4de8dec75d7aab85b567b6ccd41ad312451b948a7413f0a142fd40d49347",
                    "txbytes" : "0xf885010a8404c4b40094cccccccccccccccccccccccccccccccccccccccc80a4693c613900000000000000000000000000000000000000000000000000000000000000521ba01611d71186152944bf5e5a181badacfa9eb24d044485453379ebc7d7d2fab63ea078b5472b11db4b5c88c7bd2675c0e92bbd45e2477025c793d70b3095aafdb5e9"
                },
                {
                    "hash" : "0x89a4b8f440ea37d5a39679f7fee1e3a64d961406106bda4a6e9e29db3e7e8d46",
                    "indexes" : {
                        "data" : 8,
                        "gas" : 0,
                        "value" : 0
                    },
                    "logs" : "0x1dcc4de8dec75d7aab85b567b6ccd41ad312451b948a7413f0a142fd40d49347",
                    "txbytes" : "0xf885010a8404c4b40094cccccccccccccccccccccccccccccccccccccccc80a4693c613900000000000000000000000000000000000000000000000000000000000000531ca0e815ed079ae5d1883d3b6d93d91d208ef2fea0a5872c603add2dd2de09d8569da03c1b0d01e675504f1f5cd74f8d6233f01135258106cc24da664a70312998caf3"
                },
                {
                    "hash" : "0x06f853e7e168c31d5c4a8d2dbc0ffdca471b575fa75df2e0d21d930a8fb1ba78",
                    "indexes" : {
                        "data" : 10,
                        "gas" : 0,
                        "value" : 0
                    },
                    "logs" : "0x1dcc4de8dec75d7aab85b567b6ccd41ad312451b948a7413f0a142fd40d49347",
                    "txbytes" : "0xf885010a8404c4b40094cccccccccccccccccccccccccccccccccccccccc80a4693c6139000000000000000000000000000000000000000000000000000000000000003b1ba0ab7ea8c6b8dd4e4a37d41c01fc19b8e8881716ec8d319001d3549554f48e8cf6a0433a484e8d95768f499cb02a0841f28d6be1ba0a8d5bbe7f8f84dfcd686db4f4"
                },
                {
                    "hash" : "0x8ad5b4420f74c215fce8cf7759943592c2ae75495f60e4218e54cfba7601066a",
                    "indexes" : {
                        "data" : 9,
                        "gas" : 0,
                        "value" : 0
                    },
                    "logs" : "0x1dcc4de8dec75d7aab85b567b6ccd41ad312451b948a7413f0a142fd40d49347",
                    "txbytes" : "0xf885010a8404c4b40094cccccccccccccccccccccccccccccccccccccccc80a4693c613900000000000000000000000000000000000000000000000000000000000000201ca0b7bdfb6d7bf0407b530ab4164844650235a04a219fd031f0156c12383db01ce0a03639119bfb3a4361f2c25ba07aaaded2a4c3433bee90c0b6719cef90d20311eb"
                }
            ],
            "Merge" : [
                {
                    "hash" : "0x62d0f81d37aa0e1fb5175b2c4d469ed4fd07804328e04fb391ca3f9a04fe62e2",
                    "indexes" : {
                        "data" : 0,
                        "gas" : 0,
                        "value" : 0
                    },
                    "logs" : "0x1dcc4de8dec75d7aab85b567b6ccd41ad312451b948a7413f0a142fd40d49347",
                    "txbytes" : "0xf885010a8404c4b40094cccccccccccccccccccccccccccccccccccccccc80a4693c613900000000000000000000000000000000000000000000000000000000000000f01ca0557d839b6febb1a156ed60c183495c8cba8443fc72d259602b6b3a38fd8c70cda062425aa43de3d326e736ab16ef872b2f3aa50dd8318a033c638d63b909063169"
                },
                {
                    "hash" : "0xf02b9f071ef213b5617d4880acc8d7799f5da1be2bf93727bee9c4d6f9b9bb0f",
                    "indexes" : {
                        "data" : 1,
                        "gas" : 0,
                        "value" : 0
                    },
                    "logs" : "0x1dcc4de8dec75d7aab85b567b6ccd41ad312451b948a7413f0a142fd40d49347",
                    "txbytes" : "0xf885010a8404c4b40094cccccccccccccccccccccccccccccccccccccccc80a4693c613900000000000000000000000000000000000000000000000000000000000000f51ca0a5171d519ebe2181db331781ba1d2813ef1ccfaa8a8abff74781699c6b753d71a00f57d1613b58c1ffa65ba07547a70026665b647f8660da827bcc55453651d9c3"
                },
                {
                    "hash" : "0x7424abc21d0c9d491bb893f3f1a91aea04fe3748d77c3f43a5292643d62cda30",
                    "indexes" : {
                        "data" : 2,
                        "gas" : 0,
                        "value" : 0
                    },
                    "logs" : "0x1dcc4de8dec75d7aab85b567b6ccd41ad312451b948a7413f0a142fd40d49347",
                    "txbytes" : "0xf885010a8404c4b40094cccccccccccccccccccccccccccccccccccccccc80a4693c613900000000000000000000000000000000000000000000000000000000000000f11ca01721db694df213d77f7e80114434b7dccbaee1645915534b367a822b0f8797f9a05ed8722121b040f95bbf9b0063d8b9775a609ab1e9c4cd248d0e5f229e98585d"
                },
                {
                    "hash" : "0x7424abc21d0c9d491bb893f3f1a91aea04fe3748d77c3f43a5292643d62cda30",
                    "indexes" : {
                        "data" : 3,
                        "gas" : 0,
                        "value" : 0
                    },
                    "logs" : "0x1dcc4de8dec75d7aab85b567b6ccd41ad312451b948a7413f0a142fd40d49347",
                    "txbytes" : "0xf885010a8404c4b40094cccccccccccccccccccccccccccccccccccccccc80a4693c613900000000000000000000000000000000000000000000000000000000000000f21ca0ea42e7bbf4a6a8f72f130ae2f9005ca37908f339d2a788108902c638035170aba0150df6813ca893f847d1d798681cff9724882f6f45dfc1363bbeaa973a99ec07"
                },
                {
                    "hash" : "0x62059b1a403999816fb05e17be7d997ea29b8305bd9d0d97449f34c3abe0b53d",
                    "indexes" : {
                        "data" : 4,
                        "gas" : 0,
                        "value" : 0
                    },
                    "logs" : "0x1dcc4de8dec75d7aab85b567b6ccd41ad312451b948a7413f0a142fd40d49347",
                    "txbytes" : "0xf885010a8404c4b40094cccccccccccccccccccccccccccccccccccccccc80a4693c613900000000000000000000000000000000000000000000000000000000000000f41ca0cf339783b8b7fe5a1bc98dc56ce474c11c3b02584039e34285d348bf727ae4f6a06ab392d121c7cf5a9eb7f445ef3dce1883dc995acd8947e14bb6bb1a43479b33"
                },
                {
                    "hash" : "0x62059b1a403999816fb05e17be7d997ea29b8305bd9d0d97449f34c3abe0b53d",
                    "indexes" : {
                        "data" : 5,
                        "gas" : 0,
                        "value" : 0
                    },
                    "logs" : "0x1dcc4de8dec75d7aab85b567b6ccd41ad312451b948a7413f0a142fd40d49347",
                    "txbytes" : "0xf885010a8404c4b40094cccccccccccccccccccccccccccccccccccccccc80a4693c613900000000000000000000000000000000000000000000000000000000000000fa1ba0d7e338b4d80eb34d67df26182e7f3fc2ec368a0c0233e55b3fdb8de36bf106d4a02a99b5f895df35b5498a26adb52fd9247c33675b4fe89f0562419af3a70e10df"
                },
                {
                    "hash" : "0x5a74b7adec78f1084cf837949ad4821ec4ac79557898b5b645aec3110d81978f",
                    "indexes" : {
                        "data" : 6,
                        "gas" : 0,
                        "value" : 0
                    },
                    "logs" : "0x1dcc4de8dec75d7aab85b567b6ccd41ad312451b948a7413f0a142fd40d49347",
                    "txbytes" : "0xf885010a8404c4b40094cccccccccccccccccccccccccccccccccccccccc80a4693c613900000000000000000000000000000000000000000000000000000000000000511ba0c7f313b13d2dc29d41efe6171f6cfff4c1a41c82538060b108b9fa861b8f4f4aa066006432d421a06aa794068c588be91d3177f4635074f1039e6ef2813a44b7a1"
                },
                {
                    "hash" : "0x89a4b8f440ea37d5a39679f7fee1e3a64d961406106bda4a6e9e29db3e7e8d46",
                    "indexes" : {
                        "data" : 7,
                        "gas" : 0,
                        "value" : 0
                    },
                    "logs" : "0x1dcc4de8dec75d7aab85b567b6ccd41ad312451b948a7413f0a142fd40d49347",
                    "txbytes" : "0xf885010a8404c4b40094cccccccccccccccccccccccccccccccccccccccc80a4693c613900000000000000000000000000000000000000000000000000000000000000521ba01611d71186152944bf5e5a181badacfa9eb24d044485453379ebc7d7d2fab63ea078b5472b11db4b5c88c7bd2675c0e92bbd45e2477025c793d70b3095aafdb5e9"
                },
                {
                    "hash" : "0x89a4b8f440ea37d5a39679f7fee1e3a64d961406106bda4a6e9e29db3e7e8d46",
                    "indexes" : {
                        "data" : 8,
                        "gas" : 0,
                        "value" : 0
                    },
                    "logs" : "0x1dcc4de8dec75d7aab85b567b6ccd41ad312451b948a7413f0a142fd40d49347",
                    "txbytes" : "0xf885010a8404c4b40094cccccccccccccccccccccccccccccccccccccccc80a4693c613900000000000000000000000000000000000000000000000000000000000000531ca0e815ed079ae5d1883d3b6d93d91d208ef2fea0a5872c603add2dd2de09d8569da03c1b0d01e675504f1f5cd74f8d6233f01135258106cc24da664a70312998caf3"
                },
                {
                    "hash" : "0x06f853e7e168c31d5c4a8d2dbc0ffdca471b575fa75df2e0d21d930a8fb1ba78",
                    "indexes" : {
                        "data" : 10,
                        "gas" : 0,
                        "value" : 0
                    },
                    "logs" : "0x1dcc4de8dec75d7aab85b567b6ccd41ad312451b948a7413f0a142fd40d49347",
                    "txbytes" : "0xf885010a8404c4b40094cccccccccccccccccccccccccccccccccccccccc80a4693c6139000000000000000000000000000000000000000000000000000000000000003b1ba0ab7ea8c6b8dd4e4a37d41c01fc19b8e8881716ec8d319001d3549554f48e8cf6a0433a484e8d95768f499cb02a0841f28d6be1ba0a8d5bbe7f8f84dfcd686db4f4"
                },
                {
                    "hash" : "0x8ad5b4420f74c215fce8cf7759943592c2ae75495f60e4218e54cfba7601066a",
                    "indexes" : {
                        "data" : 9,
                        "gas" : 0,
                        "value" : 0
                    },
                    "logs" : "0x1dcc4de8dec75d7aab85b567b6ccd41ad312451b948a7413f0a142fd40d49347",
                    "txbytes" : "0xf885010a8404c4b40094cccccccccccccccccccccccccccccccccccccccc80a4693c613900000000000000000000000000000000000000000000000000000000000000201ca0b7bdfb6d7bf0407b530ab4164844650235a04a219fd031f0156c12383db01ce0a03639119bfb3a4361f2c25ba07aaaded2a4c3433bee90c0b6719cef90d20311eb"
                }
            ],
            "Shanghai" : [
                {
                    "hash" : "0xe105942f02dbe91565844eda16becac4cd885511bd9d340bd90a3bb3c52ccd41",
                    "indexes" : {
                        "data" : 0,
                        "gas" : 0,
                        "value" : 0
                    },
                    "logs" : "0x1dcc4de8dec75d7aab85b567b6ccd41ad312451b948a7413f0a142fd40d49347",
                    "txbytes" : "0xf885010a8404c4b40094cccccccccccccccccccccccccccccccccccccccc80a4693c613900000000000000000000000000000000000000000000000000000000000000f01ca0557d839b6febb1a156ed60c183495c8cba8443fc72d259602b6b3a38fd8c70cda062425aa43de3d326e736ab16ef872b2f3aa50dd8318a033c638d63b909063169"
                },
                {
                    "hash" : "0x2a90a7431361574cab77c2e140755ee6c8a360a93db20d746ba323a02ae5ccfd",
                    "indexes" : {
                        "data" : 1,
                        "gas" : 0,
                        "value" : 0
                    },
                    "logs" : "0x1dcc4de8dec75d7aab85b567b6ccd41ad312451b948a7413f0a142fd40d49347",
                    "txbytes" : "0xf885010a8404c4b40094cccccccccccccccccccccccccccccccccccccccc80a4693c613900000000000000000000000000000000000000000000000000000000000000f51ca0a5171d519ebe2181db331781ba1d2813ef1ccfaa8a8abff74781699c6b753d71a00f57d1613b58c1ffa65ba07547a70026665b647f8660da827bcc55453651d9c3"
                },
                {
                    "hash" : "0x7424abc21d0c9d491bb893f3f1a91aea04fe3748d77c3f43a5292643d62cda30",
                    "indexes" : {
                        "data" : 2,
                        "gas" : 0,
                        "value" : 0
                    },
                    "logs" : "0x1dcc4de8dec75d7aab85b567b6ccd41ad312451b948a7413f0a142fd40d49347",
                    "txbytes" : "0xf885010a8404c4b40094cccccccccccccccccccccccccccccccccccccccc80a4693c613900000000000000000000000000000000000000000000000000000000000000f11ca01721db694df213d77f7e80114434b7dccbaee1645915534b367a822b0f8797f9a05ed8722121b040f95bbf9b0063d8b9775a609ab1e9c4cd248d0e5f229e98585d"
                },
                {
                    "hash" : "0x7424abc21d0c9d491bb893f3f1a91aea04fe3748d77c3f43a5292643d62cda30",
                    "indexes" : {
                        "data" : 3,
                        "gas" : 0,
                        "value" : 0
                    },
                    "logs" : "0x1dcc4de8dec75d7aab85b567b6ccd41ad312451b948a7413f0a142fd40d49347",
                    "txbytes" : "0xf885010a8404c4b40094cccccccccccccccccccccccccccccccccccccccc80a4693c613900000000000000000000000000000000000000000000000000000000000000f21ca0ea42e7bbf4a6a8f72f130ae2f9005ca37908f339d2a788108902c638035170aba0150df6813ca893f847d1d798681cff9724882f6f45dfc1363bbeaa973a99ec07"
                },
                {
                    "hash" : "0x62059b1a403999816fb05e17be7d997ea29b8305bd9d0d97449f34c3abe0b53d",
                    "indexes" : {
                        "data" : 4,
                        "gas" : 0,
                        "value" : 0
                    },
                    "logs" : "0x1dcc4de8dec75d7aab85b567b6ccd41ad312451b948a7413f0a142fd40d49347",
                    "txbytes" : "0xf885010a8404c4b40094cccccccccccccccccccccccccccccccccccccccc80a4693c613900000000000000000000000000000000000000000000000000000000000000f41ca0cf339783b8b7fe5a1bc98dc56ce474c11c3b02584039e34285d348bf727ae4f6a06ab392d121c7cf5a9eb7f445ef3dce1883dc995acd8947e14bb6bb1a43479b33"
                },
                {
                    "hash" : "0x62059b1a403999816fb05e17be7d997ea29b8305bd9d0d97449f34c3abe0b53d",
                    "indexes" : {
                        "data" : 5,
                        "gas" : 0,
                        "value" : 0
                    },
                    "logs" : "0x1dcc4de8dec75d7aab85b567b6ccd41ad312451b948a7413f0a142fd40d49347",
                    "txbytes" : "0xf885010a8404c4b40094cccccccccccccccccccccccccccccccccccccccc80a4693c613900000000000000000000000000000000000000000000000000000000000000fa1ba0d7e338b4d80eb34d67df26182e7f3fc2ec368a0c0233e55b3fdb8de36bf106d4a02a99b5f895df35b5498a26adb52fd9247c33675b4fe89f0562419af3a70e10df"
                },
                {
                    "hash" : "0x5a74b7adec78f1084cf837949ad4821ec4ac79557898b5b645aec3110d81978f",
                    "indexes" : {
                        "data" : 6,
                        "gas" : 0,
                        "value" : 0
                    },
                    "logs" : "0x1dcc4de8dec75d7aab85b567b6ccd41ad312451b948a7413f0a142fd40d49347",
                    "txbytes" : "0xf885010a8404c4b40094cccccccccccccccccccccccccccccccccccccccc80a4693c613900000000000000000000000000000000000000000000000000000000000000511ba0c7f313b13d2dc29d41efe6171f6cfff4c1a41c82538060b108b9fa861b8f4f4aa066006432d421a06aa794068c588be91d3177f4635074f1039e6ef2813a44b7a1"
                },
                {
                    "hash" : "0x89a4b8f440ea37d5a39679f7fee1e3a64d961406106bda4a6e9e29db3e7e8d46",
                    "indexes" : {
                        "data" : 7,
                        "gas" : 0,
                        "value" : 0
                    },
                    "logs" : "0x1dcc4de8dec75d7aab85b567b6ccd41ad312451b948a7413f0a142fd40d49347",
                    "txbytes" : "0xf885010a8404c4b40094cccccccccccccccccccccccccccccccccccccccc80a4693c613900000000000000000000000000000000000000000000000000000000000000521ba01611d71186152944bf5e5a181badacfa9eb24d044485453379ebc7d7d2fab63ea078b5472b11db4b5c88c7bd2675c0e92bbd45e2477025c793d70b3095aafdb5e9"
                },
                {
                    "hash" : "0x89a4b8f440ea37d5a39679f7fee1e3a64d961406106bda4a6e9e29db3e7e8d46",
                    "indexes" : {
                        "data" : 8,
                        "gas" : 0,
                        "value" : 0
                    },
                    "logs" : "0x1dcc4de8dec75d7aab85b567b6ccd41ad312451b948a7413f0a142fd40d49347",
                    "txbytes" : "0xf885010a8404c4b40094cccccccccccccccccccccccccccccccccccccccc80a4693c613900000000000000000000000000000000000000000000000000000000000000531ca0e815ed079ae5d1883d3b6d93d91d208ef2fea0a5872c603add2dd2de09d8569da03c1b0d01e675504f1f5cd74f8d6233f01135258106cc24da664a70312998caf3"
                },
                {
                    "hash" : "0x06f853e7e168c31d5c4a8d2dbc0ffdca471b575fa75df2e0d21d930a8fb1ba78",
                    "indexes" : {
                        "data" : 10,
                        "gas" : 0,
                        "value" : 0
                    },
                    "logs" : "0x1dcc4de8dec75d7aab85b567b6ccd41ad312451b948a7413f0a142fd40d49347",
                    "txbytes" : "0xf885010a8404c4b40094cccccccccccccccccccccccccccccccccccccccc80a4693c6139000000000000000000000000000000000000000000000000000000000000003b1ba0ab7ea8c6b8dd4e4a37d41c01fc19b8e8881716ec8d319001d3549554f48e8cf6a0433a484e8d95768f499cb02a0841f28d6be1ba0a8d5bbe7f8f84dfcd686db4f4"
                },
                {
                    "hash" : "0x8ad5b4420f74c215fce8cf7759943592c2ae75495f60e4218e54cfba7601066a",
                    "indexes" : {
                        "data" : 9,
                        "gas" : 0,
                        "value" : 0
                    },
                    "logs" : "0x1dcc4de8dec75d7aab85b567b6ccd41ad312451b948a7413f0a142fd40d49347",
                    "txbytes" : "0xf885010a8404c4b40094cccccccccccccccccccccccccccccccccccccccc80a4693c613900000000000000000000000000000000000000000000000000000000000000201ca0b7bdfb6d7bf0407b530ab4164844650235a04a219fd031f0156c12383db01ce0a03639119bfb3a4361f2c25ba07aaaded2a4c3433bee90c0b6719cef90d20311eb"
                }
            ]
        },
        "pre" : {
            "0x000000000000000000000000000000000000ca11" : {
                "balance" : "0x0ba1a9ce0ba1a9ce",
                "code" : "0x00",
                "nonce" : "0x01",
                "storage" : {
                }
            },
            "0x0000000000000000000000000000000000c0de20" : {
                "balance" : "0x0ba1a9ce0ba1a9ce",
                "code" : "0x61beef60002050",
                "nonce" : "0x01",
                "storage" : {
                }
            },
            "0x0000000000000000000000000000000000c0de3b" : {
                "balance" : "0x0ba1a9ce0ba1a9ce",
                "code" : "0x61ca11803b600080833c50",
                "nonce" : "0x01",
                "storage" : {
                }
            },
            "0x0000000000000000000000000000000000c0de51" : {
                "balance" : "0x0ba1a9ce0ba1a9ce",
                "code" : "0x61b0005150",
                "nonce" : "0x01",
                "storage" : {
                }
            },
            "0x0000000000000000000000000000000000c0de52" : {
                "balance" : "0x0ba1a9ce0ba1a9ce",
                "code" : "0x60ff61b00052",
                "nonce" : "0x01",
                "storage" : {
                }
            },
            "0x0000000000000000000000000000000000c0de53" : {
                "balance" : "0x0ba1a9ce0ba1a9ce",
                "code" : "0x60ff61b00053",
                "nonce" : "0x01",
                "storage" : {
                }
            },
            "0x0000000000000000000000000000000000c0def0" : {
                "balance" : "0x0ba1a9ce0ba1a9ce",
                "code" : "0x610200600080f050",
                "nonce" : "0x01",
                "storage" : {
                }
            },
            "0x0000000000000000000000000000000000c0def1" : {
                "balance" : "0x0ba1a9ce0ba1a9ce",
                "code" : "0x610100600061010060008061ca115af150",
                "nonce" : "0x01",
                "storage" : {
                }
            },
            "0x0000000000000000000000000000000000c0def2" : {
                "balance" : "0x0ba1a9ce0ba1a9ce",
                "code" : "0x610100600061010060008061ca115af250",
                "nonce" : "0x01",
                "storage" : {
                }
            },
            "0x0000000000000000000000000000000000c0def4" : {
                "balance" : "0x0ba1a9ce0ba1a9ce",
                "code" : "0x6101006000610100600061ca115af450",
                "nonce" : "0x01",
                "storage" : {
                }
            },
            "0x0000000000000000000000000000000000c0def5" : {
                "balance" : "0x0ba1a9ce0ba1a9ce",
                "code" : "0x5a615a1701610200600080f550",
                "nonce" : "0x01",
                "storage" : {
                }
            },
            "0x0000000000000000000000000000000000c0defa" : {
                "balance" : "0x0ba1a9ce0ba1a9ce",
                "code" : "0x6101006000610100600061ca115afa50",
                "nonce" : "0x01",
                "storage" : {
                }
            },
            "0xa94f5374fce5edbc8e2a8697c15331677e6ebf0b" : {
                "balance" : "0x0ba1a9ce0ba1a9ce",
                "code" : "0x",
                "nonce" : "0x01",
                "storage" : {
                }
            },
            "0xcccccccccccccccccccccccccccccccccccccccc" : {
                "balance" : "0x0ba1a9ce0ba1a9ce",
                "code" : "0x600061ea6060043562c0de00015b6001838303111560445760028284010460008060008060008686f1600081036033578194505b60018103603e578193505b5050600d565b81600055505050",
                "nonce" : "0x01",
                "storage" : {
                }
            }
        },
        "transaction" : {
            "data" : [
                "0x693c613900000000000000000000000000000000000000000000000000000000000000f0",
                "0x693c613900000000000000000000000000000000000000000000000000000000000000f5",
                "0x693c613900000000000000000000000000000000000000000000000000000000000000f1",
                "0x693c613900000000000000000000000000000000000000000000000000000000000000f2",
                "0x693c613900000000000000000000000000000000000000000000000000000000000000f4",
                "0x693c613900000000000000000000000000000000000000000000000000000000000000fa",
                "0x693c61390000000000000000000000000000000000000000000000000000000000000051",
                "0x693c61390000000000000000000000000000000000000000000000000000000000000052",
                "0x693c61390000000000000000000000000000000000000000000000000000000000000053",
                "0x693c61390000000000000000000000000000000000000000000000000000000000000020",
                "0x693c6139000000000000000000000000000000000000000000000000000000000000003b"
            ],
            "gasLimit" : [
                "0x04c4b400"
            ],
            "gasPrice" : "0x0a",
            "nonce" : "0x01",
            "secretKey" : "0x45a915e4d060149eb4365960e6a7a45f334393093061116b197e3240065ff2d8",
            "sender" : "0xa94f5374fce5edbc8e2a8697c15331677e6ebf0b",
            "to" : "0xcccccccccccccccccccccccccccccccccccccccc",
            "value" : [
                "0x00"
            ]
        }
    }
}