{
    "loop-add-10M_Berlin" : {
        "_info" : {
            "comment" : "Converted from VMTest source. ",
            "filling-rpc-server" : "evm version 1.9.24-unstable-b63e3c37-20201029",
            "filling-tool-version" : "retesteth-0.0.9-berlin+commit.60bef1d7.Linux.g++",
            "lllcversion" : "Version: 0.5.14-develop.2020.6.22+commit.9189ad7a.Linux.g++",
            "source" : "src/VMTestsFiller/vmPerformance/loop-add-10MFiller.json",
            "sourceHash" : "10b77f397f94e6be959cdddc6c31de9ec8360baf8c9a1d1a6fe6a83470afd4e4"
        },
        "sealEngine" : "NoProof",
        "network" : "Berlin",
        "pre" : {
            "0x0f572e5295c57f15886f9b263e2f6d2d6c7b5ec6" : {
                "balance" : "0x152d02c7e14af6800000",
                "code" : "0x606060405263ffffffff60e060020a60003504166315d42327811461004257806359e3e1ea14610070578063c4f8b9fb1461009e578063e01330bb146100c9575bfe5b341561004a57fe5b61005e6004356024356044356064356100f4565b60408051918252519081900360200190f35b341561007857fe5b61005e60043560243560443560643561011e565b60408051918252519081900360200190f35b34156100a657fe5b61005e600435602435604435610152565b60408051918252519081900360200190f35b34156100d157fe5b61005e600435602435604435610179565b60408051918252519081900360200190f35b600084815b83811015610110578486830991505b6001016100f9565b8192505b5050949350505050565b600084815b8381101561011057858281151561013657fe5b04850191505b600101610123565b8192505b5050949350505050565b600083815b8381101561016c57908401905b600101610157565b8192505b50509392505050565b600083815b8381101561016c57908402905b60010161017e565b8192505b505093925050505600a165627a7a72305820065081bd1e9fdffccd251332523241eaabd0fb1881a06529599a9c67d0a568e50029",
                "nonce" : "0x00",
                "storage" : {
                }
            },
            "0xa94f5374fce5edbc8e2a8697c15331677e6ebf0b" : {
                "balance" : "0x7ffffffffffffff0",
                "code" : "0x",
                "nonce" : "0x00",
                "storage" : {
                }
            }
        },
        "genesisBlockHeader" : {
            "bloom" : "0x00000000000000000000000000000000000000000000000000000000000000000000000000000000000000000000000000000000000000000000000000000000000000000000000000000000000000000000000000000000000000000000000000000000000000000000000000000000000000000000000000000000000000000000000000000000000000000000000000000000000000000000000000000000000000000000000000000000000000000000000000000000000000000000000000000000000000000000000000000000000000000000000000000000000000000000000000000000000000000000000000000000000000000000000000000000",
            "coinbase" : "0x2adc25665018aa1fe0e6bc666dac8fc2697ff9ba",
            "difficulty" : "0x020000",
            "extraData" : "0x42",
            "gasLimit" : "0x7fffffffffffffff",
            "gasUsed" : "0x00",
            "hash" : "0x4b2415fa518e64d25cb7b7f31845faa6a78f6d1793efa9c3b7fa7a9323b9262e",
            "mixHash" : "0x0000000000000000000000000000000000000000000000000000000000000000",
            "nonce" : "0x0000000000000000",
            "number" : "0x00",
            "parentHash" : "0x0000000000000000000000000000000000000000000000000000000000000000",
            "receiptTrie" : "0x56e81f171bcc55a6ff8345e692c0f86e5b48e01b996cadc001622fb5e363b421",
            "stateRoot" : "0x02a357452c36aff629f3f87d2b7cf1e0f8e0e6da750f04e8819c4019478d8c9d",
            "timestamp" : "0x00",
            "transactionsTrie" : "0x56e81f171bcc55a6ff8345e692c0f86e5b48e01b996cadc001622fb5e363b421",
            "uncleHash" : "0x1dcc4de8dec75d7aab85b567b6ccd41ad312451b948a7413f0a142fd40d49347"
        },
        "genesisRLP" : "0xf901fdf901f8a00000000000000000000000000000000000000000000000000000000000000000a01dcc4de8dec75d7aab85b567b6ccd41ad312451b948a7413f0a142fd40d49347942adc25665018aa1fe0e6bc666dac8fc2697ff9baa002a357452c36aff629f3f87d2b7cf1e0f8e0e6da750f04e8819c4019478d8c9da056e81f171bcc55a6ff8345e692c0f86e5b48e01b996cadc001622fb5e363b421a056e81f171bcc55a6ff8345e692c0f86e5b48e01b996cadc001622fb5e363b421b90100000000000000000000000000000000000000000000000000000000000000000000000000000000000000000000000000000000000000000000000000000000000000000000000000000000000000000000000000000000000000000000000000000000000000000000000000000000000000000000000000000000000000000000000000000000000000000000000000000000000000000000000000000000000000000000000000000000000000000000000000000000000000000000000000000000000000000000000000000000000000000000000000000000000000000000000000000000000000000000000000000000000000000000000000000000008302000080887fffffffffffffff808042a00000000000000000000000000000000000000000000000000000000000000000880000000000000000c0c0",
        "blocks" : [
            {
                "chainname" : "default",
                "blocknumber" : "1",
                "uncleHeaders" : [
                ],
                "blockHeader" : {
                    "bloom" : "0x00000000000000000000000000000000000000000000000000000000000000000000000000000000000000000000000000000000000000000000000000000000000000000000000000000000000000000000000000000000000000000000000000000000000000000000000000000000000000000000000000000000000000000000000000000000000000000000000000000000000000000000000000000000000000000000000000000000000000000000000000000000000000000000000000000000000000000000000000000000000000000000000000000000000000000000000000000000000000000000000000000000000000000000000000000000",
                    "coinbase" : "0x2adc25665018aa1fe0e6bc666dac8fc2697ff9ba",
                    "difficulty" : "0x020000",
                    "extraData" : "0x42",
                    "gasLimit" : "0x7fffffffffffffff",
                    "gasUsed" : "0x2161442f",
                    "hash" : "0x6c9af5c35a58d61b20c6d5260f1b5caf83bc3c95ce816d3a4e9c9f20e71f65ad",
                    "mixHash" : "0x0000000000000000000000000000000000000000000000000000000000000000",
                    "nonce" : "0x0000000000000000",
                    "number" : "0x01",
                    "parentHash" : "0x4b2415fa518e64d25cb7b7f31845faa6a78f6d1793efa9c3b7fa7a9323b9262e",
                    "receiptTrie" : "0xe155a7cea06ff0cf5d01a3f9a6f475ae2d784c26279e4e06c3ded105adcfcf0e",
                    "stateRoot" : "0x09aec00b5304f2193083ead41e76c83a5224e756cda7cded0ed1d23612bc4970",
                    "timestamp" : "0x03e8",
                    "transactionsTrie" : "0xf74cce97bcc49bdcc3d6a3dc8131918168285759a77c0ef53c18e9f6e2601987",
                    "uncleHash" : "0x1dcc4de8dec75d7aab85b567b6ccd41ad312451b948a7413f0a142fd40d49347"
                },
                "transactions" : [
                    {
                        "data" : "0xc4f8b9fb8edad8b55b1586805ea8c245d8c16b06a5102b791fc6eb60693731c0677bf501ff00ffffffffffffffffffffffffffaaffffffffffffffffbbffffffffffffff0000000000000000000000000000000000000000000000000000000000989680",
                        "gasLimit" : "0xe8d4a51000",
                        "gasPrice" : "0x0c",
                        "nonce" : "0x00",
                        "r" : "0x5338f9b8a1e0ab1ec300bdb842d154d179b55026b7fa63363240686c8e4394cf",
                        "s" : "0x3ec4efe92e4dc940572e8b9db37fd5393bd6c1990f71303498ddab24c097b96b",
                        "to" : "0x0f572e5295c57f15886f9b263e2f6d2d6c7b5ec6",
                        "v" : "0x1c",
                        "value" : "0x00"
                    }
                ],
                "rlp" : "0xf902cdf901fea04b2415fa518e64d25cb7b7f31845faa6a78f6d1793efa9c3b7fa7a9323b9262ea01dcc4de8dec75d7aab85b567b6ccd41ad312451b948a7413f0a142fd40d49347942adc25665018aa1fe0e6bc666dac8fc2697ff9baa009aec00b5304f2193083ead41e76c83a5224e756cda7cded0ed1d23612bc4970a0f74cce97bcc49bdcc3d6a3dc8131918168285759a77c0ef53c18e9f6e2601987a0e155a7cea06ff0cf5d01a3f9a6f475ae2d784c26279e4e06c3ded105adcfcf0eb90100000000000000000000000000000000000000000000000000000000000000000000000000000000000000000000000000000000000000000000000000000000000000000000000000000000000000000000000000000000000000000000000000000000000000000000000000000000000000000000000000000000000000000000000000000000000000000000000000000000000000000000000000000000000000000000000000000000000000000000000000000000000000000000000000000000000000000000000000000000000000000000000000000000000000000000000000000000000000000000000000000000000000000000000000000000008302000001887fffffffffffffff842161442f8203e842a00000000000000000000000000000000000000000000000000000000000000000880000000000000000f8c9f8c7800c85e8d4a51000940f572e5295c57f15886f9b263e2f6d2d6c7b5ec680b864c4f8b9fb8edad8b55b1586805ea8c245d8c16b06a5102b791fc6eb60693731c0677bf501ff00ffffffffffffffffffffffffffaaffffffffffffffffbbffffffffffffff00000000000000000000000000000000000000000000000000000000009896801ca05338f9b8a1e0ab1ec300bdb842d154d179b55026b7fa63363240686c8e4394cfa03ec4efe92e4dc940572e8b9db37fd5393bd6c1990f71303498ddab24c097b96bc0"
            }
        ],
        "postState" : {
            "0x0f572e5295c57f15886f9b263e2f6d2d6c7b5ec6" : {
                "code" : "0x606060405263ffffffff60e060020a60003504166315d42327811461004257806359e3e1ea14610070578063c4f8b9fb1461009e578063e01330bb146100c9575bfe5b341561004a57fe5b61005e6004356024356044356064356100f4565b60408051918252519081900360200190f35b341561007857fe5b61005e60043560243560443560643561011e565b60408051918252519081900360200190f35b34156100a657fe5b61005e600435602435604435610152565b60408051918252519081900360200190f35b34156100d157fe5b61005e600435602435604435610179565b60408051918252519081900360200190f35b600084815b83811015610110578486830991505b6001016100f9565b8192505b5050949350505050565b600084815b8381101561011057858281151561013657fe5b04850191505b600101610123565b8192505b5050949350505050565b600083815b8381101561016c57908401905b600101610157565b8192505b50509392505050565b600083815b8381101561016c57908402905b60010161017e565b8192505b505093925050505600a165627a7a72305820065081bd1e9fdffccd251332523241eaabd0fb1881a06529599a9c67d0a568e50029",
                "nonce" : "0x00",
                "balance" : "0x152d02c7e14af6800000",
                "storage" : {
                }
            },
            "0x2adc25665018aa1fe0e6bc666dac8fc2697ff9ba" : {
                "code" : "0x",
                "nonce" : "0x00",
                "balance" : "0x1bc16d68df573234",
                "storage" : {
                }
            },
            "0xa94f5374fce5edbc8e2a8697c15331677e6ebf0b" : {
                "code" : "0x",
                "nonce" : "0x01",
                "balance" : "0x7ffffffe6f70cdbc",
                "storage" : {
                }
            }
        },
        "lastblockhash" : "0x6c9af5c35a58d61b20c6d5260f1b5caf83bc3c95ce816d3a4e9c9f20e71f65ad"
    },
    "loop-add-10M_Istanbul" : {
        "_info" : {
            "comment" : "Converted from VMTest source. ",
            "filling-rpc-server" : "evm version 1.9.24-unstable-b63e3c37-20201029",
            "filling-tool-version" : "retesteth-0.0.9-berlin+commit.60bef1d7.Linux.g++",
            "lllcversion" : "Version: 0.5.14-develop.2020.6.22+commit.9189ad7a.Linux.g++",
            "source" : "src/VMTestsFiller/vmPerformance/loop-add-10MFiller.json",
            "sourceHash" : "10b77f397f94e6be959cdddc6c31de9ec8360baf8c9a1d1a6fe6a83470afd4e4"
        },
        "sealEngine" : "NoProof",
        "network" : "Istanbul",
        "pre" : {
            "0x0f572e5295c57f15886f9b263e2f6d2d6c7b5ec6" : {
                "balance" : "0x152d02c7e14af6800000",
                "code" : "0x606060405263ffffffff60e060020a60003504166315d42327811461004257806359e3e1ea14610070578063c4f8b9fb1461009e578063e01330bb146100c9575bfe5b341561004a57fe5b61005e6004356024356044356064356100f4565b60408051918252519081900360200190f35b341561007857fe5b61005e60043560243560443560643561011e565b60408051918252519081900360200190f35b34156100a657fe5b61005e600435602435604435610152565b60408051918252519081900360200190f35b34156100d157fe5b61005e600435602435604435610179565b60408051918252519081900360200190f35b600084815b83811015610110578486830991505b6001016100f9565b8192505b5050949350505050565b600084815b8381101561011057858281151561013657fe5b04850191505b600101610123565b8192505b5050949350505050565b600083815b8381101561016c57908401905b600101610157565b8192505b50509392505050565b600083815b8381101561016c57908402905b60010161017e565b8192505b505093925050505600a165627a7a72305820065081bd1e9fdffccd251332523241eaabd0fb1881a06529599a9c67d0a568e50029",
                "nonce" : "0x00",
                "storage" : {
                }
            },
            "0xa94f5374fce5edbc8e2a8697c15331677e6ebf0b" : {
                "balance" : "0x7ffffffffffffff0",
                "code" : "0x",
                "nonce" : "0x00",
                "storage" : {
                }
            }
        },
        "genesisBlockHeader" : {
            "bloom" : "0x00000000000000000000000000000000000000000000000000000000000000000000000000000000000000000000000000000000000000000000000000000000000000000000000000000000000000000000000000000000000000000000000000000000000000000000000000000000000000000000000000000000000000000000000000000000000000000000000000000000000000000000000000000000000000000000000000000000000000000000000000000000000000000000000000000000000000000000000000000000000000000000000000000000000000000000000000000000000000000000000000000000000000000000000000000000",
            "coinbase" : "0x2adc25665018aa1fe0e6bc666dac8fc2697ff9ba",
            "difficulty" : "0x020000",
            "extraData" : "0x42",
            "gasLimit" : "0x7fffffffffffffff",
            "gasUsed" : "0x00",
            "hash" : "0x4b2415fa518e64d25cb7b7f31845faa6a78f6d1793efa9c3b7fa7a9323b9262e",
            "mixHash" : "0x0000000000000000000000000000000000000000000000000000000000000000",
            "nonce" : "0x0000000000000000",
            "number" : "0x00",
            "parentHash" : "0x0000000000000000000000000000000000000000000000000000000000000000",
            "receiptTrie" : "0x56e81f171bcc55a6ff8345e692c0f86e5b48e01b996cadc001622fb5e363b421",
            "stateRoot" : "0x02a357452c36aff629f3f87d2b7cf1e0f8e0e6da750f04e8819c4019478d8c9d",
            "timestamp" : "0x00",
            "transactionsTrie" : "0x56e81f171bcc55a6ff8345e692c0f86e5b48e01b996cadc001622fb5e363b421",
            "uncleHash" : "0x1dcc4de8dec75d7aab85b567b6ccd41ad312451b948a7413f0a142fd40d49347"
        },
        "genesisRLP" : "0xf901fdf901f8a00000000000000000000000000000000000000000000000000000000000000000a01dcc4de8dec75d7aab85b567b6ccd41ad312451b948a7413f0a142fd40d49347942adc25665018aa1fe0e6bc666dac8fc2697ff9baa002a357452c36aff629f3f87d2b7cf1e0f8e0e6da750f04e8819c4019478d8c9da056e81f171bcc55a6ff8345e692c0f86e5b48e01b996cadc001622fb5e363b421a056e81f171bcc55a6ff8345e692c0f86e5b48e01b996cadc001622fb5e363b421b90100000000000000000000000000000000000000000000000000000000000000000000000000000000000000000000000000000000000000000000000000000000000000000000000000000000000000000000000000000000000000000000000000000000000000000000000000000000000000000000000000000000000000000000000000000000000000000000000000000000000000000000000000000000000000000000000000000000000000000000000000000000000000000000000000000000000000000000000000000000000000000000000000000000000000000000000000000000000000000000000000000000000000000000000000000000008302000080887fffffffffffffff808042a00000000000000000000000000000000000000000000000000000000000000000880000000000000000c0c0",
        "blocks" : [
            {
                "chainname" : "default",
                "blocknumber" : "1",
                "uncleHeaders" : [
                ],
                "blockHeader" : {
                    "bloom" : "0x00000000000000000000000000000000000000000000000000000000000000000000000000000000000000000000000000000000000000000000000000000000000000000000000000000000000000000000000000000000000000000000000000000000000000000000000000000000000000000000000000000000000000000000000000000000000000000000000000000000000000000000000000000000000000000000000000000000000000000000000000000000000000000000000000000000000000000000000000000000000000000000000000000000000000000000000000000000000000000000000000000000000000000000000000000000",
                    "coinbase" : "0x2adc25665018aa1fe0e6bc666dac8fc2697ff9ba",
                    "difficulty" : "0x020000",
                    "extraData" : "0x42",
                    "gasLimit" : "0x7fffffffffffffff",
                    "gasUsed" : "0x2161442f",
                    "hash" : "0x6c9af5c35a58d61b20c6d5260f1b5caf83bc3c95ce816d3a4e9c9f20e71f65ad",
                    "mixHash" : "0x0000000000000000000000000000000000000000000000000000000000000000",
                    "nonce" : "0x0000000000000000",
                    "number" : "0x01",
                    "parentHash" : "0x4b2415fa518e64d25cb7b7f31845faa6a78f6d1793efa9c3b7fa7a9323b9262e",
                    "receiptTrie" : "0xe155a7cea06ff0cf5d01a3f9a6f475ae2d784c26279e4e06c3ded105adcfcf0e",
                    "stateRoot" : "0x09aec00b5304f2193083ead41e76c83a5224e756cda7cded0ed1d23612bc4970",
                    "timestamp" : "0x03e8",
                    "transactionsTrie" : "0xf74cce97bcc49bdcc3d6a3dc8131918168285759a77c0ef53c18e9f6e2601987",
                    "uncleHash" : "0x1dcc4de8dec75d7aab85b567b6ccd41ad312451b948a7413f0a142fd40d49347"
                },
                "transactions" : [
                    {
                        "data" : "0xc4f8b9fb8edad8b55b1586805ea8c245d8c16b06a5102b791fc6eb60693731c0677bf501ff00ffffffffffffffffffffffffffaaffffffffffffffffbbffffffffffffff0000000000000000000000000000000000000000000000000000000000989680",
                        "gasLimit" : "0xe8d4a51000",
                        "gasPrice" : "0x0c",
                        "nonce" : "0x00",
                        "r" : "0x5338f9b8a1e0ab1ec300bdb842d154d179b55026b7fa63363240686c8e4394cf",
                        "s" : "0x3ec4efe92e4dc940572e8b9db37fd5393bd6c1990f71303498ddab24c097b96b",
                        "to" : "0x0f572e5295c57f15886f9b263e2f6d2d6c7b5ec6",
                        "v" : "0x1c",
                        "value" : "0x00"
                    }
                ],
                "rlp" : "0xf902cdf901fea04b2415fa518e64d25cb7b7f31845faa6a78f6d1793efa9c3b7fa7a9323b9262ea01dcc4de8dec75d7aab85b567b6ccd41ad312451b948a7413f0a142fd40d49347942adc25665018aa1fe0e6bc666dac8fc2697ff9baa009aec00b5304f2193083ead41e76c83a5224e756cda7cded0ed1d23612bc4970a0f74cce97bcc49bdcc3d6a3dc8131918168285759a77c0ef53c18e9f6e2601987a0e155a7cea06ff0cf5d01a3f9a6f475ae2d784c26279e4e06c3ded105adcfcf0eb90100000000000000000000000000000000000000000000000000000000000000000000000000000000000000000000000000000000000000000000000000000000000000000000000000000000000000000000000000000000000000000000000000000000000000000000000000000000000000000000000000000000000000000000000000000000000000000000000000000000000000000000000000000000000000000000000000000000000000000000000000000000000000000000000000000000000000000000000000000000000000000000000000000000000000000000000000000000000000000000000000000000000000000000000000000000008302000001887fffffffffffffff842161442f8203e842a00000000000000000000000000000000000000000000000000000000000000000880000000000000000f8c9f8c7800c85e8d4a51000940f572e5295c57f15886f9b263e2f6d2d6c7b5ec680b864c4f8b9fb8edad8b55b1586805ea8c245d8c16b06a5102b791fc6eb60693731c0677bf501ff00ffffffffffffffffffffffffffaaffffffffffffffffbbffffffffffffff00000000000000000000000000000000000000000000000000000000009896801ca05338f9b8a1e0ab1ec300bdb842d154d179b55026b7fa63363240686c8e4394cfa03ec4efe92e4dc940572e8b9db37fd5393bd6c1990f71303498ddab24c097b96bc0"
            }
        ],
        "postState" : {
            "0x0f572e5295c57f15886f9b263e2f6d2d6c7b5ec6" : {
                "code" : "0x606060405263ffffffff60e060020a60003504166315d42327811461004257806359e3e1ea14610070578063c4f8b9fb1461009e578063e01330bb146100c9575bfe5b341561004a57fe5b61005e6004356024356044356064356100f4565b60408051918252519081900360200190f35b341561007857fe5b61005e60043560243560443560643561011e565b60408051918252519081900360200190f35b34156100a657fe5b61005e600435602435604435610152565b60408051918252519081900360200190f35b34156100d157fe5b61005e600435602435604435610179565b60408051918252519081900360200190f35b600084815b83811015610110578486830991505b6001016100f9565b8192505b5050949350505050565b600084815b8381101561011057858281151561013657fe5b04850191505b600101610123565b8192505b5050949350505050565b600083815b8381101561016c57908401905b600101610157565b8192505b50509392505050565b600083815b8381101561016c57908402905b60010161017e565b8192505b505093925050505600a165627a7a72305820065081bd1e9fdffccd251332523241eaabd0fb1881a06529599a9c67d0a568e50029",
                "nonce" : "0x00",
                "balance" : "0x152d02c7e14af6800000",
                "storage" : {
                }
            },
            "0x2adc25665018aa1fe0e6bc666dac8fc2697ff9ba" : {
                "code" : "0x",
                "nonce" : "0x00",
                "balance" : "0x1bc16d68df573234",
                "storage" : {
                }
            },
            "0xa94f5374fce5edbc8e2a8697c15331677e6ebf0b" : {
                "code" : "0x",
                "nonce" : "0x01",
                "balance" : "0x7ffffffe6f70cdbc",
                "storage" : {
                }
            }
        },
        "lastblockhash" : "0x6c9af5c35a58d61b20c6d5260f1b5caf83bc3c95ce816d3a4e9c9f20e71f65ad"
    }
}