{
    "loop-exp-16b-100k_Berlin" : {
        "_info" : {
            "comment" : "Converted from VMTest source. ",
            "filling-rpc-server" : "evm version 1.10.2-unstable-22082f9e-20210309",
            "filling-tool-version" : "retesteth-0.1.0-accesslist+commit.47c69eb3.Linux.g++",
            "lllcversion" : "Version: 0.5.14-develop.2020.6.22+commit.9189ad7a.Linux.g++",
            "source" : "src/VMTestsFiller/vmPerformance/loop-exp-16b-100kFiller.json",
            "sourceHash" : "da6d3a8f090322359bc40bfd83009a817b009bbec3d01149a3429ca814996165"
        },
        "sealEngine" : "NoProof",
        "network" : "Berlin",
        "pre" : {
            "0x0f572e5295c57f15886f9b263e2f6d2d6c7b5ec6" : {
                "balance" : "0x152d02c7e14af6800000",
                "code" : "0x606060405260e060020a60003504633392ffc8811461003f5780633c77b95c1461006a578063ce67bda6146100c2578063ebbbe00b146100e8575b610002565b346100025761010e600435602435604435600082815b83811015610120579085900a90600101610055565b346100025761010e600435602435604435600082815b83811015610120579085900a85900a85900a85900a85900a85900a85900a85900a85900a85900a85900a85900a85900a85900a85900a85900a90601001610080565b346100025761010e6004356024356044356000805b82811015610129575b6001016100d7565b346100025761010e6004356024356044356000805b82811015610129575b6010016100fd565b60408051918252519081900360200190f35b50949350505050565b5091939250505056",
                "nonce" : "0x00",
                "storage" : {
                }
            },
            "0xa94f5374fce5edbc8e2a8697c15331677e6ebf0b" : {
                "balance" : "0x7ffffffffffffff0",
                "code" : "0x",
                "nonce" : "0x00",
                "storage" : {
                }
            }
        },
        "genesisBlockHeader" : {
            "bloom" : "0x00000000000000000000000000000000000000000000000000000000000000000000000000000000000000000000000000000000000000000000000000000000000000000000000000000000000000000000000000000000000000000000000000000000000000000000000000000000000000000000000000000000000000000000000000000000000000000000000000000000000000000000000000000000000000000000000000000000000000000000000000000000000000000000000000000000000000000000000000000000000000000000000000000000000000000000000000000000000000000000000000000000000000000000000000000000",
            "coinbase" : "0x2adc25665018aa1fe0e6bc666dac8fc2697ff9ba",
            "difficulty" : "0x020000",
            "extraData" : "0x42",
            "gasLimit" : "0x7fffffffffffffff",
            "gasUsed" : "0x00",
            "hash" : "0x22172a576c2354291573ac467e8c61afc53ef63aca478ae241fe4e6cf80ef673",
            "mixHash" : "0x0000000000000000000000000000000000000000000000000000000000000000",
            "nonce" : "0x0000000000000000",
            "number" : "0x00",
            "parentHash" : "0x0000000000000000000000000000000000000000000000000000000000000000",
            "receiptTrie" : "0x56e81f171bcc55a6ff8345e692c0f86e5b48e01b996cadc001622fb5e363b421",
            "stateRoot" : "0x50903c9265421beea05d1b37cc3b1b840567d78bd2ebe30f18b7c0e0308e60ca",
            "timestamp" : "0x00",
            "transactionsTrie" : "0x56e81f171bcc55a6ff8345e692c0f86e5b48e01b996cadc001622fb5e363b421",
            "uncleHash" : "0x1dcc4de8dec75d7aab85b567b6ccd41ad312451b948a7413f0a142fd40d49347"
        },
        "genesisRLP" : "0xf901fdf901f8a00000000000000000000000000000000000000000000000000000000000000000a01dcc4de8dec75d7aab85b567b6ccd41ad312451b948a7413f0a142fd40d49347942adc25665018aa1fe0e6bc666dac8fc2697ff9baa050903c9265421beea05d1b37cc3b1b840567d78bd2ebe30f18b7c0e0308e60caa056e81f171bcc55a6ff8345e692c0f86e5b48e01b996cadc001622fb5e363b421a056e81f171bcc55a6ff8345e692c0f86e5b48e01b996cadc001622fb5e363b421b90100000000000000000000000000000000000000000000000000000000000000000000000000000000000000000000000000000000000000000000000000000000000000000000000000000000000000000000000000000000000000000000000000000000000000000000000000000000000000000000000000000000000000000000000000000000000000000000000000000000000000000000000000000000000000000000000000000000000000000000000000000000000000000000000000000000000000000000000000000000000000000000000000000000000000000000000000000000000000000000000000000000000000000000000000000000008302000080887fffffffffffffff808042a00000000000000000000000000000000000000000000000000000000000000000880000000000000000c0c0",
        "blocks" : [
            {
                "chainname" : "default",
                "blocknumber" : "1",
                "uncleHeaders" : [
                ],
                "blockHeader" : {
                    "bloom" : "0x00000000000000000000000000000000000000000000000000000000000000000000000000000000000000000000000000000000000000000000000000000000000000000000000000000000000000000000000000000000000000000000000000000000000000000000000000000000000000000000000000000000000000000000000000000000000000000000000000000000000000000000000000000000000000000000000000000000000000000000000000000000000000000000000000000000000000000000000000000000000000000000000000000000000000000000000000000000000000000000000000000000000000000000000000000000",
                    "coinbase" : "0x2adc25665018aa1fe0e6bc666dac8fc2697ff9ba",
                    "difficulty" : "0x020000",
                    "extraData" : "0x42",
                    "gasLimit" : "0x7fffffffffffffff",
                    "gasUsed" : "0x052838b0",
                    "hash" : "0x61393c357cf6bad30943ec83bda037379a7ad679f278281f5b3311b2284fec93",
                    "mixHash" : "0x0000000000000000000000000000000000000000000000000000000000000000",
                    "nonce" : "0x0000000000000000",
                    "number" : "0x01",
                    "parentHash" : "0x22172a576c2354291573ac467e8c61afc53ef63aca478ae241fe4e6cf80ef673",
                    "receiptTrie" : "0x84ce7778aa945180e785a6eaa31b922c0c1167c06bffda88d7c5c5bcc219892e",
                    "stateRoot" : "0x6840bfa8dfe8cb2c6612efe4f9405d03537141b361e76ee52644b28c9c3fc960",
                    "timestamp" : "0x03e8",
                    "transactionsTrie" : "0x6603ca4d24b174c8cc70fdc9a1ea1ffe6039c4ab5506cd6f3918b3ae78a5da01",
                    "uncleHash" : "0x1dcc4de8dec75d7aab85b567b6ccd41ad312451b948a7413f0a142fd40d49347"
                },
                "transactions" : [
                    {
                        "data" : "0x3392ffc800000000000000000000000000000000ffffffffffffffffffffffffffffffff0000000000000000000000000000000000000000000000005851f42d4c957f2d00000000000000000000000000000000000000000000000000000000000186a0",
                        "gasLimit" : "0xe8d4a51000",
                        "gasPrice" : "0x02",
                        "nonce" : "0x00",
                        "r" : "0xea0c7e013848d6ca8142918782d0ae3ffe3126dcbc2931784dd4a7e61937e9de",
                        "s" : "0x4afd18466c3e7c066683dfcef633aa5055239f2fc7f8a2953884ab24697c1f8c",
                        "to" : "0x0f572e5295c57f15886f9b263e2f6d2d6c7b5ec6",
                        "v" : "0x1b",
                        "value" : "0x00"
                    }
                ],
                "rlp" : "0xf902cdf901fea022172a576c2354291573ac467e8c61afc53ef63aca478ae241fe4e6cf80ef673a01dcc4de8dec75d7aab85b567b6ccd41ad312451b948a7413f0a142fd40d49347942adc25665018aa1fe0e6bc666dac8fc2697ff9baa06840bfa8dfe8cb2c6612efe4f9405d03537141b361e76ee52644b28c9c3fc960a06603ca4d24b174c8cc70fdc9a1ea1ffe6039c4ab5506cd6f3918b3ae78a5da01a084ce7778aa945180e785a6eaa31b922c0c1167c06bffda88d7c5c5bcc219892eb90100000000000000000000000000000000000000000000000000000000000000000000000000000000000000000000000000000000000000000000000000000000000000000000000000000000000000000000000000000000000000000000000000000000000000000000000000000000000000000000000000000000000000000000000000000000000000000000000000000000000000000000000000000000000000000000000000000000000000000000000000000000000000000000000000000000000000000000000000000000000000000000000000000000000000000000000000000000000000000000000000000000000000000000000000000000008302000001887fffffffffffffff84052838b08203e842a00000000000000000000000000000000000000000000000000000000000000000880000000000000000f8c9f8c7800285e8d4a51000940f572e5295c57f15886f9b263e2f6d2d6c7b5ec680b8643392ffc800000000000000000000000000000000ffffffffffffffffffffffffffffffff0000000000000000000000000000000000000000000000005851f42d4c957f2d00000000000000000000000000000000000000000000000000000000000186a01ba0ea0c7e013848d6ca8142918782d0ae3ffe3126dcbc2931784dd4a7e61937e9dea04afd18466c3e7c066683dfcef633aa5055239f2fc7f8a2953884ab24697c1f8cc0"
            }
        ],
        "postState" : {
            "0x0f572e5295c57f15886f9b263e2f6d2d6c7b5ec6" : {
                "code" : "0x606060405260e060020a60003504633392ffc8811461003f5780633c77b95c1461006a578063ce67bda6146100c2578063ebbbe00b146100e8575b610002565b346100025761010e600435602435604435600082815b83811015610120579085900a90600101610055565b346100025761010e600435602435604435600082815b83811015610120579085900a85900a85900a85900a85900a85900a85900a85900a85900a85900a85900a85900a85900a85900a85900a85900a90601001610080565b346100025761010e6004356024356044356000805b82811015610129575b6001016100d7565b346100025761010e6004356024356044356000805b82811015610129575b6010016100fd565b60408051918252519081900360200190f35b50949350505050565b5091939250505056",
                "nonce" : "0x00",
                "balance" : "0x152d02c7e14af6800000",
                "storage" : {
                }
            },
            "0x2adc25665018aa1fe0e6bc666dac8fc2697ff9ba" : {
                "code" : "0x",
                "nonce" : "0x00",
                "balance" : "0x1bc16d6759187160",
                "storage" : {
                }
            },
            "0xa94f5374fce5edbc8e2a8697c15331677e6ebf0b" : {
                "code" : "0x",
                "nonce" : "0x01",
                "balance" : "0x7ffffffff5af8e90",
                "storage" : {
                }
            }
        },
        "lastblockhash" : "0x61393c357cf6bad30943ec83bda037379a7ad679f278281f5b3311b2284fec93"
    },
    "loop-exp-16b-100k_Istanbul" : {
        "_info" : {
            "comment" : "Converted from VMTest source. ",
            "filling-rpc-server" : "evm version 1.10.2-unstable-22082f9e-20210309",
            "filling-tool-version" : "retesteth-0.1.0-accesslist+commit.47c69eb3.Linux.g++",
            "lllcversion" : "Version: 0.5.14-develop.2020.6.22+commit.9189ad7a.Linux.g++",
            "source" : "src/VMTestsFiller/vmPerformance/loop-exp-16b-100kFiller.json",
            "sourceHash" : "da6d3a8f090322359bc40bfd83009a817b009bbec3d01149a3429ca814996165"
        },
        "sealEngine" : "NoProof",
        "network" : "Istanbul",
        "pre" : {
            "0x0f572e5295c57f15886f9b263e2f6d2d6c7b5ec6" : {
                "balance" : "0x152d02c7e14af6800000",
                "code" : "0x606060405260e060020a60003504633392ffc8811461003f5780633c77b95c1461006a578063ce67bda6146100c2578063ebbbe00b146100e8575b610002565b346100025761010e600435602435604435600082815b83811015610120579085900a90600101610055565b346100025761010e600435602435604435600082815b83811015610120579085900a85900a85900a85900a85900a85900a85900a85900a85900a85900a85900a85900a85900a85900a85900a85900a90601001610080565b346100025761010e6004356024356044356000805b82811015610129575b6001016100d7565b346100025761010e6004356024356044356000805b82811015610129575b6010016100fd565b60408051918252519081900360200190f35b50949350505050565b5091939250505056",
                "nonce" : "0x00",
                "storage" : {
                }
            },
            "0xa94f5374fce5edbc8e2a8697c15331677e6ebf0b" : {
                "balance" : "0x7ffffffffffffff0",
                "code" : "0x",
                "nonce" : "0x00",
                "storage" : {
                }
            }
        },
        "genesisBlockHeader" : {
            "bloom" : "0x00000000000000000000000000000000000000000000000000000000000000000000000000000000000000000000000000000000000000000000000000000000000000000000000000000000000000000000000000000000000000000000000000000000000000000000000000000000000000000000000000000000000000000000000000000000000000000000000000000000000000000000000000000000000000000000000000000000000000000000000000000000000000000000000000000000000000000000000000000000000000000000000000000000000000000000000000000000000000000000000000000000000000000000000000000000",
            "coinbase" : "0x2adc25665018aa1fe0e6bc666dac8fc2697ff9ba",
            "difficulty" : "0x020000",
            "extraData" : "0x42",
            "gasLimit" : "0x7fffffffffffffff",
            "gasUsed" : "0x00",
            "hash" : "0x22172a576c2354291573ac467e8c61afc53ef63aca478ae241fe4e6cf80ef673",
            "mixHash" : "0x0000000000000000000000000000000000000000000000000000000000000000",
            "nonce" : "0x0000000000000000",
            "number" : "0x00",
            "parentHash" : "0x0000000000000000000000000000000000000000000000000000000000000000",
            "receiptTrie" : "0x56e81f171bcc55a6ff8345e692c0f86e5b48e01b996cadc001622fb5e363b421",
            "stateRoot" : "0x50903c9265421beea05d1b37cc3b1b840567d78bd2ebe30f18b7c0e0308e60ca",
            "timestamp" : "0x00",
            "transactionsTrie" : "0x56e81f171bcc55a6ff8345e692c0f86e5b48e01b996cadc001622fb5e363b421",
            "uncleHash" : "0x1dcc4de8dec75d7aab85b567b6ccd41ad312451b948a7413f0a142fd40d49347"
        },
        "genesisRLP" : "0xf901fdf901f8a00000000000000000000000000000000000000000000000000000000000000000a01dcc4de8dec75d7aab85b567b6ccd41ad312451b948a7413f0a142fd40d49347942adc25665018aa1fe0e6bc666dac8fc2697ff9baa050903c9265421beea05d1b37cc3b1b840567d78bd2ebe30f18b7c0e0308e60caa056e81f171bcc55a6ff8345e692c0f86e5b48e01b996cadc001622fb5e363b421a056e81f171bcc55a6ff8345e692c0f86e5b48e01b996cadc001622fb5e363b421b90100000000000000000000000000000000000000000000000000000000000000000000000000000000000000000000000000000000000000000000000000000000000000000000000000000000000000000000000000000000000000000000000000000000000000000000000000000000000000000000000000000000000000000000000000000000000000000000000000000000000000000000000000000000000000000000000000000000000000000000000000000000000000000000000000000000000000000000000000000000000000000000000000000000000000000000000000000000000000000000000000000000000000000000000000000000008302000080887fffffffffffffff808042a00000000000000000000000000000000000000000000000000000000000000000880000000000000000c0c0",
        "blocks" : [
            {
                "chainname" : "default",
                "blocknumber" : "1",
                "uncleHeaders" : [
                ],
                "blockHeader" : {
                    "bloom" : "0x00000000000000000000000000000000000000000000000000000000000000000000000000000000000000000000000000000000000000000000000000000000000000000000000000000000000000000000000000000000000000000000000000000000000000000000000000000000000000000000000000000000000000000000000000000000000000000000000000000000000000000000000000000000000000000000000000000000000000000000000000000000000000000000000000000000000000000000000000000000000000000000000000000000000000000000000000000000000000000000000000000000000000000000000000000000",
                    "coinbase" : "0x2adc25665018aa1fe0e6bc666dac8fc2697ff9ba",
                    "difficulty" : "0x020000",
                    "extraData" : "0x42",
                    "gasLimit" : "0x7fffffffffffffff",
                    "gasUsed" : "0x052838b0",
                    "hash" : "0x61393c357cf6bad30943ec83bda037379a7ad679f278281f5b3311b2284fec93",
                    "mixHash" : "0x0000000000000000000000000000000000000000000000000000000000000000",
                    "nonce" : "0x0000000000000000",
                    "number" : "0x01",
                    "parentHash" : "0x22172a576c2354291573ac467e8c61afc53ef63aca478ae241fe4e6cf80ef673",
                    "receiptTrie" : "0x84ce7778aa945180e785a6eaa31b922c0c1167c06bffda88d7c5c5bcc219892e",
                    "stateRoot" : "0x6840bfa8dfe8cb2c6612efe4f9405d03537141b361e76ee52644b28c9c3fc960",
                    "timestamp" : "0x03e8",
                    "transactionsTrie" : "0x6603ca4d24b174c8cc70fdc9a1ea1ffe6039c4ab5506cd6f3918b3ae78a5da01",
                    "uncleHash" : "0x1dcc4de8dec75d7aab85b567b6ccd41ad312451b948a7413f0a142fd40d49347"
                },
                "transactions" : [
                    {
                        "data" : "0x3392ffc800000000000000000000000000000000ffffffffffffffffffffffffffffffff0000000000000000000000000000000000000000000000005851f42d4c957f2d00000000000000000000000000000000000000000000000000000000000186a0",
                        "gasLimit" : "0xe8d4a51000",
                        "gasPrice" : "0x02",
                        "nonce" : "0x00",
                        "r" : "0xea0c7e013848d6ca8142918782d0ae3ffe3126dcbc2931784dd4a7e61937e9de",
                        "s" : "0x4afd18466c3e7c066683dfcef633aa5055239f2fc7f8a2953884ab24697c1f8c",
                        "to" : "0x0f572e5295c57f15886f9b263e2f6d2d6c7b5ec6",
                        "v" : "0x1b",
                        "value" : "0x00"
                    }
                ],
                "rlp" : "0xf902cdf901fea022172a576c2354291573ac467e8c61afc53ef63aca478ae241fe4e6cf80ef673a01dcc4de8dec75d7aab85b567b6ccd41ad312451b948a7413f0a142fd40d49347942adc25665018aa1fe0e6bc666dac8fc2697ff9baa06840bfa8dfe8cb2c6612efe4f9405d03537141b361e76ee52644b28c9c3fc960a06603ca4d24b174c8cc70fdc9a1ea1ffe6039c4ab5506cd6f3918b3ae78a5da01a084ce7778aa945180e785a6eaa31b922c0c1167c06bffda88d7c5c5bcc219892eb90100000000000000000000000000000000000000000000000000000000000000000000000000000000000000000000000000000000000000000000000000000000000000000000000000000000000000000000000000000000000000000000000000000000000000000000000000000000000000000000000000000000000000000000000000000000000000000000000000000000000000000000000000000000000000000000000000000000000000000000000000000000000000000000000000000000000000000000000000000000000000000000000000000000000000000000000000000000000000000000000000000000000000000000000000000000008302000001887fffffffffffffff84052838b08203e842a00000000000000000000000000000000000000000000000000000000000000000880000000000000000f8c9f8c7800285e8d4a51000940f572e5295c57f15886f9b263e2f6d2d6c7b5ec680b8643392ffc800000000000000000000000000000000ffffffffffffffffffffffffffffffff0000000000000000000000000000000000000000000000005851f42d4c957f2d00000000000000000000000000000000000000000000000000000000000186a01ba0ea0c7e013848d6ca8142918782d0ae3ffe3126dcbc2931784dd4a7e61937e9dea04afd18466c3e7c066683dfcef633aa5055239f2fc7f8a2953884ab24697c1f8cc0"
            }
        ],
        "postState" : {
            "0x0f572e5295c57f15886f9b263e2f6d2d6c7b5ec6" : {
                "code" : "0x606060405260e060020a60003504633392ffc8811461003f5780633c77b95c1461006a578063ce67bda6146100c2578063ebbbe00b146100e8575b610002565b346100025761010e600435602435604435600082815b83811015610120579085900a90600101610055565b346100025761010e600435602435604435600082815b83811015610120579085900a85900a85900a85900a85900a85900a85900a85900a85900a85900a85900a85900a85900a85900a85900a85900a90601001610080565b346100025761010e6004356024356044356000805b82811015610129575b6001016100d7565b346100025761010e6004356024356044356000805b82811015610129575b6010016100fd565b60408051918252519081900360200190f35b50949350505050565b5091939250505056",
                "nonce" : "0x00",
                "balance" : "0x152d02c7e14af6800000",
                "storage" : {
                }
            },
            "0x2adc25665018aa1fe0e6bc666dac8fc2697ff9ba" : {
                "code" : "0x",
                "nonce" : "0x00",
                "balance" : "0x1bc16d6759187160",
                "storage" : {
                }
            },
            "0xa94f5374fce5edbc8e2a8697c15331677e6ebf0b" : {
                "code" : "0x",
                "nonce" : "0x01",
                "balance" : "0x7ffffffff5af8e90",
                "storage" : {
                }
            }
        },
        "lastblockhash" : "0x61393c357cf6bad30943ec83bda037379a7ad679f278281f5b3311b2284fec93"
    }
}