{
    "loop-exp-1b-1M_Berlin" : {
        "_info" : {
            "comment" : "Converted from VMTest source. ",
            "filling-rpc-server" : "evm version 1.9.24-unstable-b63e3c37-20201029",
            "filling-tool-version" : "retesteth-0.0.9-berlin+commit.60bef1d7.Linux.g++",
            "lllcversion" : "Version: 0.5.14-develop.2020.6.22+commit.9189ad7a.Linux.g++",
            "source" : "src/VMTestsFiller/vmPerformance/loop-exp-1b-1MFiller.json",
            "sourceHash" : "ca1937c28b20d009dd61d7a62aabc42fd4efc7a3deda252850c99070e8d6b6e9"
        },
        "sealEngine" : "NoProof",
        "network" : "Berlin",
        "pre" : {
            "0x0f572e5295c57f15886f9b263e2f6d2d6c7b5ec6" : {
                "balance" : "0x152d02c7e14af6800000",
                "code" : "0x606060405260e060020a60003504633392ffc8811461003f5780633c77b95c1461006a578063ce67bda6146100c2578063ebbbe00b146100e8575b610002565b346100025761010e600435602435604435600082815b83811015610120579085900a90600101610055565b346100025761010e600435602435604435600082815b83811015610120579085900a85900a85900a85900a85900a85900a85900a85900a85900a85900a85900a85900a85900a85900a85900a85900a90601001610080565b346100025761010e6004356024356044356000805b82811015610129575b6001016100d7565b346100025761010e6004356024356044356000805b82811015610129575b6010016100fd565b60408051918252519081900360200190f35b50949350505050565b5091939250505056",
                "nonce" : "0x00",
                "storage" : {
                }
            },
            "0xa94f5374fce5edbc8e2a8697c15331677e6ebf0b" : {
                "balance" : "0x7ffffffffffffff0",
                "code" : "0x",
                "nonce" : "0x00",
                "storage" : {
                }
            }
        },
        "genesisBlockHeader" : {
            "bloom" : "0x00000000000000000000000000000000000000000000000000000000000000000000000000000000000000000000000000000000000000000000000000000000000000000000000000000000000000000000000000000000000000000000000000000000000000000000000000000000000000000000000000000000000000000000000000000000000000000000000000000000000000000000000000000000000000000000000000000000000000000000000000000000000000000000000000000000000000000000000000000000000000000000000000000000000000000000000000000000000000000000000000000000000000000000000000000000",
            "coinbase" : "0x2adc25665018aa1fe0e6bc666dac8fc2697ff9ba",
            "difficulty" : "0x020000",
            "extraData" : "0x42",
            "gasLimit" : "0x7fffffffffffffff",
            "gasUsed" : "0x00",
            "hash" : "0x22172a576c2354291573ac467e8c61afc53ef63aca478ae241fe4e6cf80ef673",
            "mixHash" : "0x0000000000000000000000000000000000000000000000000000000000000000",
            "nonce" : "0x0000000000000000",
            "number" : "0x00",
            "parentHash" : "0x0000000000000000000000000000000000000000000000000000000000000000",
            "receiptTrie" : "0x56e81f171bcc55a6ff8345e692c0f86e5b48e01b996cadc001622fb5e363b421",
            "stateRoot" : "0x50903c9265421beea05d1b37cc3b1b840567d78bd2ebe30f18b7c0e0308e60ca",
            "timestamp" : "0x00",
            "transactionsTrie" : "0x56e81f171bcc55a6ff8345e692c0f86e5b48e01b996cadc001622fb5e363b421",
            "uncleHash" : "0x1dcc4de8dec75d7aab85b567b6ccd41ad312451b948a7413f0a142fd40d49347"
        },
        "genesisRLP" : "0xf901fdf901f8a00000000000000000000000000000000000000000000000000000000000000000a01dcc4de8dec75d7aab85b567b6ccd41ad312451b948a7413f0a142fd40d49347942adc25665018aa1fe0e6bc666dac8fc2697ff9baa050903c9265421beea05d1b37cc3b1b840567d78bd2ebe30f18b7c0e0308e60caa056e81f171bcc55a6ff8345e692c0f86e5b48e01b996cadc001622fb5e363b421a056e81f171bcc55a6ff8345e692c0f86e5b48e01b996cadc001622fb5e363b421b90100000000000000000000000000000000000000000000000000000000000000000000000000000000000000000000000000000000000000000000000000000000000000000000000000000000000000000000000000000000000000000000000000000000000000000000000000000000000000000000000000000000000000000000000000000000000000000000000000000000000000000000000000000000000000000000000000000000000000000000000000000000000000000000000000000000000000000000000000000000000000000000000000000000000000000000000000000000000000000000000000000000000000000000000000000000008302000080887fffffffffffffff808042a00000000000000000000000000000000000000000000000000000000000000000880000000000000000c0c0",
        "blocks" : [
            {
                "chainname" : "default",
                "blocknumber" : "1",
                "uncleHeaders" : [
                ],
                "blockHeader" : {
                    "bloom" : "0x00000000000000000000000000000000000000000000000000000000000000000000000000000000000000000000000000000000000000000000000000000000000000000000000000000000000000000000000000000000000000000000000000000000000000000000000000000000000000000000000000000000000000000000000000000000000000000000000000000000000000000000000000000000000000000000000000000000000000000000000000000000000000000000000000000000000000000000000000000000000000000000000000000000000000000000000000000000000000000000000000000000000000000000000000000000",
                    "coinbase" : "0x2adc25665018aa1fe0e6bc666dac8fc2697ff9ba",
                    "difficulty" : "0x020000",
                    "extraData" : "0x42",
                    "gasLimit" : "0x7fffffffffffffff",
                    "gasUsed" : "0x06db181c",
                    "hash" : "0x203d8a82232383c8a10dfd929871ca26f136f33ddc1e871c1caa9590f6fa4589",
                    "mixHash" : "0x0000000000000000000000000000000000000000000000000000000000000000",
                    "nonce" : "0x0000000000000000",
                    "number" : "0x01",
                    "parentHash" : "0x22172a576c2354291573ac467e8c61afc53ef63aca478ae241fe4e6cf80ef673",
                    "receiptTrie" : "0xa11bb2a74faf238f1eba9023844697a2f020528f9ac07a1c2f6b6a4f2433d99b",
                    "stateRoot" : "0x5be420e680a8657a58c80277731f14564d9161bd34d4430619342cf5beedab1a",
                    "timestamp" : "0x03e8",
                    "transactionsTrie" : "0x1678424fd48705b1823974a9d8036220b04470e110d58d50bcce0cdd23ac1959",
                    "uncleHash" : "0x1dcc4de8dec75d7aab85b567b6ccd41ad312451b948a7413f0a142fd40d49347"
                },
                "transactions" : [
                    {
                        "data" : "0x3392ffc800000000000000000000000000000000000000000000000000000000000000ff0000000000000000000000000000000000000000000000005851f42d4c957f2d00000000000000000000000000000000000000000000000000000000000f4240",
                        "gasLimit" : "0xe8d4a51000",
                        "gasPrice" : "0x02",
                        "nonce" : "0x00",
                        "r" : "0x79f21704dc4d2ba193e64e006d249473a6ab796b7208151182c77a04efa61ae1",
                        "s" : "0x065bff6a17e8a92eebd8a5f9014f63faa4b6df73f1c956141c899ce801031cf1",
                        "to" : "0x0f572e5295c57f15886f9b263e2f6d2d6c7b5ec6",
                        "v" : "0x1c",
                        "value" : "0x00"
                    }
                ],
                "rlp" : "0xf902cdf901fea022172a576c2354291573ac467e8c61afc53ef63aca478ae241fe4e6cf80ef673a01dcc4de8dec75d7aab85b567b6ccd41ad312451b948a7413f0a142fd40d49347942adc25665018aa1fe0e6bc666dac8fc2697ff9baa05be420e680a8657a58c80277731f14564d9161bd34d4430619342cf5beedab1aa01678424fd48705b1823974a9d8036220b04470e110d58d50bcce0cdd23ac1959a0a11bb2a74faf238f1eba9023844697a2f020528f9ac07a1c2f6b6a4f2433d99bb90100000000000000000000000000000000000000000000000000000000000000000000000000000000000000000000000000000000000000000000000000000000000000000000000000000000000000000000000000000000000000000000000000000000000000000000000000000000000000000000000000000000000000000000000000000000000000000000000000000000000000000000000000000000000000000000000000000000000000000000000000000000000000000000000000000000000000000000000000000000000000000000000000000000000000000000000000000000000000000000000000000000000000000000000000000000008302000001887fffffffffffffff8406db181c8203e842a00000000000000000000000000000000000000000000000000000000000000000880000000000000000f8c9f8c7800285e8d4a51000940f572e5295c57f15886f9b263e2f6d2d6c7b5ec680b8643392ffc800000000000000000000000000000000000000000000000000000000000000ff0000000000000000000000000000000000000000000000005851f42d4c957f2d00000000000000000000000000000000000000000000000000000000000f42401ca079f21704dc4d2ba193e64e006d249473a6ab796b7208151182c77a04efa61ae1a0065bff6a17e8a92eebd8a5f9014f63faa4b6df73f1c956141c899ce801031cf1c0"
            }
        ],
        "postState" : {
            "0x0f572e5295c57f15886f9b263e2f6d2d6c7b5ec6" : {
                "code" : "0x606060405260e060020a60003504633392ffc8811461003f5780633c77b95c1461006a578063ce67bda6146100c2578063ebbbe00b146100e8575b610002565b346100025761010e600435602435604435600082815b83811015610120579085900a90600101610055565b346100025761010e600435602435604435600082815b83811015610120579085900a85900a85900a85900a85900a85900a85900a85900a85900a85900a85900a85900a85900a85900a85900a85900a90601001610080565b346100025761010e6004356024356044356000805b82811015610129575b6001016100d7565b346100025761010e6004356024356044356000805b82811015610129575b6010016100fd565b60408051918252519081900360200190f35b50949350505050565b5091939250505056",
                "nonce" : "0x00",
                "balance" : "0x152d02c7e14af6800000",
                "storage" : {
                }
            },
            "0x2adc25665018aa1fe0e6bc666dac8fc2697ff9ba" : {
                "code" : "0x",
                "nonce" : "0x00",
                "balance" : "0x1bc16d675c7e3038",
                "storage" : {
                }
            },
            "0xa94f5374fce5edbc8e2a8697c15331677e6ebf0b" : {
                "code" : "0x",
                "nonce" : "0x01",
                "balance" : "0x7ffffffff249cfb8",
                "storage" : {
                }
            }
        },
        "lastblockhash" : "0x203d8a82232383c8a10dfd929871ca26f136f33ddc1e871c1caa9590f6fa4589"
    },
    "loop-exp-1b-1M_Istanbul" : {
        "_info" : {
            "comment" : "Converted from VMTest source. ",
            "filling-rpc-server" : "evm version 1.9.24-unstable-b63e3c37-20201029",
            "filling-tool-version" : "retesteth-0.0.9-berlin+commit.60bef1d7.Linux.g++",
            "lllcversion" : "Version: 0.5.14-develop.2020.6.22+commit.9189ad7a.Linux.g++",
            "source" : "src/VMTestsFiller/vmPerformance/loop-exp-1b-1MFiller.json",
            "sourceHash" : "ca1937c28b20d009dd61d7a62aabc42fd4efc7a3deda252850c99070e8d6b6e9"
        },
        "sealEngine" : "NoProof",
        "network" : "Istanbul",
        "pre" : {
            "0x0f572e5295c57f15886f9b263e2f6d2d6c7b5ec6" : {
                "balance" : "0x152d02c7e14af6800000",
                "code" : "0x606060405260e060020a60003504633392ffc8811461003f5780633c77b95c1461006a578063ce67bda6146100c2578063ebbbe00b146100e8575b610002565b346100025761010e600435602435604435600082815b83811015610120579085900a90600101610055565b346100025761010e600435602435604435600082815b83811015610120579085900a85900a85900a85900a85900a85900a85900a85900a85900a85900a85900a85900a85900a85900a85900a85900a90601001610080565b346100025761010e6004356024356044356000805b82811015610129575b6001016100d7565b346100025761010e6004356024356044356000805b82811015610129575b6010016100fd565b60408051918252519081900360200190f35b50949350505050565b5091939250505056",
                "nonce" : "0x00",
                "storage" : {
                }
            },
            "0xa94f5374fce5edbc8e2a8697c15331677e6ebf0b" : {
                "balance" : "0x7ffffffffffffff0",
                "code" : "0x",
                "nonce" : "0x00",
                "storage" : {
                }
            }
        },
        "genesisBlockHeader" : {
            "bloom" : "0x00000000000000000000000000000000000000000000000000000000000000000000000000000000000000000000000000000000000000000000000000000000000000000000000000000000000000000000000000000000000000000000000000000000000000000000000000000000000000000000000000000000000000000000000000000000000000000000000000000000000000000000000000000000000000000000000000000000000000000000000000000000000000000000000000000000000000000000000000000000000000000000000000000000000000000000000000000000000000000000000000000000000000000000000000000000",
            "coinbase" : "0x2adc25665018aa1fe0e6bc666dac8fc2697ff9ba",
            "difficulty" : "0x020000",
            "extraData" : "0x42",
            "gasLimit" : "0x7fffffffffffffff",
            "gasUsed" : "0x00",
            "hash" : "0x22172a576c2354291573ac467e8c61afc53ef63aca478ae241fe4e6cf80ef673",
            "mixHash" : "0x0000000000000000000000000000000000000000000000000000000000000000",
            "nonce" : "0x0000000000000000",
            "number" : "0x00",
            "parentHash" : "0x0000000000000000000000000000000000000000000000000000000000000000",
            "receiptTrie" : "0x56e81f171bcc55a6ff8345e692c0f86e5b48e01b996cadc001622fb5e363b421",
            "stateRoot" : "0x50903c9265421beea05d1b37cc3b1b840567d78bd2ebe30f18b7c0e0308e60ca",
            "timestamp" : "0x00",
            "transactionsTrie" : "0x56e81f171bcc55a6ff8345e692c0f86e5b48e01b996cadc001622fb5e363b421",
            "uncleHash" : "0x1dcc4de8dec75d7aab85b567b6ccd41ad312451b948a7413f0a142fd40d49347"
        },
        "genesisRLP" : "0xf901fdf901f8a00000000000000000000000000000000000000000000000000000000000000000a01dcc4de8dec75d7aab85b567b6ccd41ad312451b948a7413f0a142fd40d49347942adc25665018aa1fe0e6bc666dac8fc2697ff9baa050903c9265421beea05d1b37cc3b1b840567d78bd2ebe30f18b7c0e0308e60caa056e81f171bcc55a6ff8345e692c0f86e5b48e01b996cadc001622fb5e363b421a056e81f171bcc55a6ff8345e692c0f86e5b48e01b996cadc001622fb5e363b421b90100000000000000000000000000000000000000000000000000000000000000000000000000000000000000000000000000000000000000000000000000000000000000000000000000000000000000000000000000000000000000000000000000000000000000000000000000000000000000000000000000000000000000000000000000000000000000000000000000000000000000000000000000000000000000000000000000000000000000000000000000000000000000000000000000000000000000000000000000000000000000000000000000000000000000000000000000000000000000000000000000000000000000000000000000000000008302000080887fffffffffffffff808042a00000000000000000000000000000000000000000000000000000000000000000880000000000000000c0c0",
        "blocks" : [
            {
                "chainname" : "default",
                "blocknumber" : "1",
                "uncleHeaders" : [
                ],
                "blockHeader" : {
                    "bloom" : "0x00000000000000000000000000000000000000000000000000000000000000000000000000000000000000000000000000000000000000000000000000000000000000000000000000000000000000000000000000000000000000000000000000000000000000000000000000000000000000000000000000000000000000000000000000000000000000000000000000000000000000000000000000000000000000000000000000000000000000000000000000000000000000000000000000000000000000000000000000000000000000000000000000000000000000000000000000000000000000000000000000000000000000000000000000000000",
                    "coinbase" : "0x2adc25665018aa1fe0e6bc666dac8fc2697ff9ba",
                    "difficulty" : "0x020000",
                    "extraData" : "0x42",
                    "gasLimit" : "0x7fffffffffffffff",
                    "gasUsed" : "0x06db181c",
                    "hash" : "0x203d8a82232383c8a10dfd929871ca26f136f33ddc1e871c1caa9590f6fa4589",
                    "mixHash" : "0x0000000000000000000000000000000000000000000000000000000000000000",
                    "nonce" : "0x0000000000000000",
                    "number" : "0x01",
                    "parentHash" : "0x22172a576c2354291573ac467e8c61afc53ef63aca478ae241fe4e6cf80ef673",
                    "receiptTrie" : "0xa11bb2a74faf238f1eba9023844697a2f020528f9ac07a1c2f6b6a4f2433d99b",
                    "stateRoot" : "0x5be420e680a8657a58c80277731f14564d9161bd34d4430619342cf5beedab1a",
                    "timestamp" : "0x03e8",
                    "transactionsTrie" : "0x1678424fd48705b1823974a9d8036220b04470e110d58d50bcce0cdd23ac1959",
                    "uncleHash" : "0x1dcc4de8dec75d7aab85b567b6ccd41ad312451b948a7413f0a142fd40d49347"
                },
                "transactions" : [
                    {
                        "data" : "0x3392ffc800000000000000000000000000000000000000000000000000000000000000ff0000000000000000000000000000000000000000000000005851f42d4c957f2d00000000000000000000000000000000000000000000000000000000000f4240",
                        "gasLimit" : "0xe8d4a51000",
                        "gasPrice" : "0x02",
                        "nonce" : "0x00",
                        "r" : "0x79f21704dc4d2ba193e64e006d249473a6ab796b7208151182c77a04efa61ae1",
                        "s" : "0x065bff6a17e8a92eebd8a5f9014f63faa4b6df73f1c956141c899ce801031cf1",
                        "to" : "0x0f572e5295c57f15886f9b263e2f6d2d6c7b5ec6",
                        "v" : "0x1c",
                        "value" : "0x00"
                    }
                ],
                "rlp" : "0xf902cdf901fea022172a576c2354291573ac467e8c61afc53ef63aca478ae241fe4e6cf80ef673a01dcc4de8dec75d7aab85b567b6ccd41ad312451b948a7413f0a142fd40d49347942adc25665018aa1fe0e6bc666dac8fc2697ff9baa05be420e680a8657a58c80277731f14564d9161bd34d4430619342cf5beedab1aa01678424fd48705b1823974a9d8036220b04470e110d58d50bcce0cdd23ac1959a0a11bb2a74faf238f1eba9023844697a2f020528f9ac07a1c2f6b6a4f2433d99bb90100000000000000000000000000000000000000000000000000000000000000000000000000000000000000000000000000000000000000000000000000000000000000000000000000000000000000000000000000000000000000000000000000000000000000000000000000000000000000000000000000000000000000000000000000000000000000000000000000000000000000000000000000000000000000000000000000000000000000000000000000000000000000000000000000000000000000000000000000000000000000000000000000000000000000000000000000000000000000000000000000000000000000000000000000000000008302000001887fffffffffffffff8406db181c8203e842a00000000000000000000000000000000000000000000000000000000000000000880000000000000000f8c9f8c7800285e8d4a51000940f572e5295c57f15886f9b263e2f6d2d6c7b5ec680b8643392ffc800000000000000000000000000000000000000000000000000000000000000ff0000000000000000000000000000000000000000000000005851f42d4c957f2d00000000000000000000000000000000000000000000000000000000000f42401ca079f21704dc4d2ba193e64e006d249473a6ab796b7208151182c77a04efa61ae1a0065bff6a17e8a92eebd8a5f9014f63faa4b6df73f1c956141c899ce801031cf1c0"
            }
        ],
        "postState" : {
            "0x0f572e5295c57f15886f9b263e2f6d2d6c7b5ec6" : {
                "code" : "0x606060405260e060020a60003504633392ffc8811461003f5780633c77b95c1461006a578063ce67bda6146100c2578063ebbbe00b146100e8575b610002565b346100025761010e600435602435604435600082815b83811015610120579085900a90600101610055565b346100025761010e600435602435604435600082815b83811015610120579085900a85900a85900a85900a85900a85900a85900a85900a85900a85900a85900a85900a85900a85900a85900a85900a90601001610080565b346100025761010e6004356024356044356000805b82811015610129575b6001016100d7565b346100025761010e6004356024356044356000805b82811015610129575b6010016100fd565b60408051918252519081900360200190f35b50949350505050565b5091939250505056",
                "nonce" : "0x00",
                "balance" : "0x152d02c7e14af6800000",
                "storage" : {
                }
            },
            "0x2adc25665018aa1fe0e6bc666dac8fc2697ff9ba" : {
                "code" : "0x",
                "nonce" : "0x00",
                "balance" : "0x1bc16d675c7e3038",
                "storage" : {
                }
            },
            "0xa94f5374fce5edbc8e2a8697c15331677e6ebf0b" : {
                "code" : "0x",
                "nonce" : "0x01",
                "balance" : "0x7ffffffff249cfb8",
                "storage" : {
                }
            }
        },
        "lastblockhash" : "0x203d8a82232383c8a10dfd929871ca26f136f33ddc1e871c1caa9590f6fa4589"
    }
}