{
    "src/GeneralStateTestsFiller/Pyspecs/cancun/eip4844_blobs/test_point_evaluation_precompile.py::test_valid_precompile_calls[fork_Cancun-state_test-success_True-in_bounds_z]" : {
        "_info" : {
            "comment" : "`execution-spec-tests` generated test",
            "description" : "Test function documentation:\n\n    Test valid sanity precompile calls that are expected to succeed.\n\n    - `kzg_commitment` and `kzg_proof` are set to values such that `p(z)==0` for all values of `z`,\n    hence `y` is tested to be zero, and call to be successful.",
            "filling-rpc-server" : "evm version 1.14.4-unstable-3d8028a6-20240513",
            "filling-tool-version" : "retesteth-0.3.2-cancun+commit.2a41f237.Linux.g++",
            "filling-transition-tool" : "evm version 1.14.4-unstable-3d8028a6-20240513",
            "generatedTestHash" : "8147e783a3f23eafd4d97807ca57fe5ad5b0ddae2956541bcfce814887bdb650",
            "hash" : "0xb78bdfe9b5e7e0e59592ec71c0b7556aecd405e2b90e787dbab6df62530bea74",
            "lllcversion" : "Version: 0.5.14-develop.2023.7.11+commit.c58ab2c6.mod.Linux.g++",
            "solidity" : "Version: 0.8.21+commit.d9974bed.Linux.g++",
            "source" : "src/GeneralStateTestsFiller/Pyspecs/cancun/eip4844_blobs/test_point_evaluation_precompile.py",
            "sourceHash" : "25da6025e98b42cd56330bedd4365f4b4f06034368beeebad323569fdc415097",
            "url" : "https://github.com/ethereum/execution-spec-tests/blob/87ef9bee36585b5b9f72d6eaafeeb1999b641d3c/tests/tmp/tmptest_f8115fbb_8e6a_4abd_8bc3_36e8d18b35d5/test_point_evaluation_precompile.py#L242"
        },
        "env" : {
            "currentBaseFee" : "0x07",
            "currentCoinbase" : "0x2adc25665018aa1fe0e6bc666dac8fc2697ff9ba",
            "currentDifficulty" : "0x00",
            "currentExcessBlobGas" : "0x00",
            "currentGasLimit" : "0x016345785d8a0000",
            "currentNumber" : "0x01",
            "currentRandom" : "0x0000000000000000000000000000000000000000000000000000000000000000",
            "currentTimestamp" : "0x03e8"
        },
        "post" : {
            "Cancun" : [
                {
                    "hash" : "0x48cfaf427d5de87fcc289f732a019db969a65266f9ce859415efa47a3f53eecc",
                    "indexes" : {
                        "data" : 0,
                        "gas" : 0,
                        "value" : 0
                    },
                    "logs" : "0x1dcc4de8dec75d7aab85b567b6ccd41ad312451b948a7413f0a142fd40d49347",
                    "txbytes" : "0x02f9012401808007830f424094000000000000000000000000000000000000010080b8c0010657f37554c781402a22917dee2f75def7ab966d7b770905398eba3c44401473eda753299d7d483339d80809a1d80553bda402fffe5bfeffffffff000000000000000000000000000000000000000000000000000000000000000000000000c00000000000000000000000000000000000000000000000000000000000000000000000000000000000000000000000c00000000000000000000000000000000000000000000000000000000000000000000000000000000000000000000000c080a0cdcb82e08bcb8bb0eb6de7c1e142a910aa413891c9deeccd0c650737f5407307a06df091d7bdd64b38d24910e969040afa2f65abd8b0ddf8c42ce5e582edfcf4fe"
                }
            ]
        },
        "pre" : {
            "0x0000000000000000000000000000000000000100" : {
                "balance" : "0x01000000000000000000",
                "code" : "0x366000600037604060003660006000600a61c350f16000556000516001556020516002553d6003553d600060003e600051600455602051600555",
                "nonce" : "0x00",
                "storage" : {
                }
            },
            "0xa94f5374fce5edbc8e2a8697c15331677e6ebf0b" : {
                "balance" : "0x01000000000000000000",
                "code" : "0x",
                "nonce" : "0x00",
                "storage" : {
                }
            }
        },
        "transaction" : {
            "accessLists" : [
                [
                ]
            ],
            "data" : [
                "0x010657f37554c781402a22917dee2f75def7ab966d7b770905398eba3c44401473eda753299d7d483339d80809a1d80553bda402fffe5bfeffffffff000000000000000000000000000000000000000000000000000000000000000000000000c00000000000000000000000000000000000000000000000000000000000000000000000000000000000000000000000c00000000000000000000000000000000000000000000000000000000000000000000000000000000000000000000000"
            ],
            "gasLimit" : [
                "0x0f4240"
            ],
            "maxFeePerGas" : "0x07",
            "maxPriorityFeePerGas" : "0x00",
            "nonce" : "0x00",
            "secretKey" : "0x45a915e4d060149eb4365960e6a7a45f334393093061116b197e3240065ff2d8",
            "sender" : "0xa94f5374fce5edbc8e2a8697c15331677e6ebf0b",
            "to" : "0x0000000000000000000000000000000000000100",
            "value" : [
                "0x00"
            ]
        }
    }
}