{
    "byteNonConst_d0g0v0_ConstantinopleFix" : {
        "_info" : {
            "comment" : "",
            "filling-rpc-server" : "Geth-1.9.3-unstable-d5bd3838-20190830",
            "filling-tool-version" : "retesteth-0.0.1+commit.222e3073.Linux.g++",
            "lllcversion" : "Version: 0.5.0-develop.2019.8.22+commit.9709dfe0.Linux.g++",
            "source" : "src/GeneralStateTestsFiller/stArgsZeroOneBalance/byteNonConstFiller.yml",
            "sourceHash" : "71bcdfcd6cfa4f1e1e03c3cf8e0392d69f442a033ba43c0c15ae094cc02d83d8"
        },
        "genesisBlockHeader" : {
            "bloom" : "0x00000000000000000000000000000000000000000000000000000000000000000000000000000000000000000000000000000000000000000000000000000000000000000000000000000000000000000000000000000000000000000000000000000000000000000000000000000000000000000000000000000000000000000000000000000000000000000000000000000000000000000000000000000000000000000000000000000000000000000000000000000000000000000000000000000000000000000000000000000000000000000000000000000000000000000000000000000000000000000000000000000000000000000000000000000000",
            "coinbase" : "0x2adc25665018aa1fe0e6bc666dac8fc2697ff9ba",
            "difficulty" : "0x20000",
            "extraData" : "0x00",
            "gasLimit" : "0xf4240",
            "gasUsed" : "0x0",
            "hash" : "0x62defc4e2f50d532eef71f58ed7f6356a1bed41d7064df3ee6b06d3a3f2cc3a3",
            "mixHash" : "0x0000000000000000000000000000000000000000000000000000000000000000",
            "nonce" : "0x0000000000000000",
            "number" : "0x0",
            "parentHash" : "0x0000000000000000000000000000000000000000000000000000000000000000",
            "receiptTrie" : "0x56e81f171bcc55a6ff8345e692c0f86e5b48e01b996cadc001622fb5e363b421",
            "stateRoot" : "0x81c091dc34b7bd0b81fbe1e9d012a5584002f8361957b77e1580bcc6323fe91d",
            "timestamp" : "0x0",
            "transactionsTrie" : "0x56e81f171bcc55a6ff8345e692c0f86e5b48e01b996cadc001622fb5e363b421",
            "uncleHash" : "0x1dcc4de8dec75d7aab85b567b6ccd41ad312451b948a7413f0a142fd40d49347"
        },
        "pre" : {
            "0x095e7baea6a6c7c4c2dfeb977efac326af552d87" : {
                "balance" : "0x00",
                "code" : "0x73095e7baea6a6c7c4c2dfeb977efac326af552d873173095e7baea6a6c7c4c2dfeb977efac326af552d87311a600055",
                "nonce" : "0x00",
                "storage" : {
                }
            },
            "0xa94f5374fce5edbc8e2a8697c15331677e6ebf0b" : {
                "balance" : "0x0de0b6b3a7640000",
                "code" : "0x",
                "nonce" : "0x00",
                "storage" : {
                }
            }
        },
        "postState" : {
            "0xa94f5374fce5edbc8e2a8697c15331677e6ebf0b" : {
                "code" : "0x",
                "nonce" : "0x01",
                "balance" : "0x0de0b6b3a7639744",
                "storage" : {
                }
            },
            "0x095e7baea6a6c7c4c2dfeb977efac326af552d87" : {
                "code" : "0x73095e7baea6a6c7c4c2dfeb977efac326af552d873173095e7baea6a6c7c4c2dfeb977efac326af552d87311a600055",
                "nonce" : "0x00",
                "balance" : "0x00",
                "storage" : {
                }
            },
            "0x2adc25665018aa1fe0e6bc666dac8fc2697ff9ba" : {
                "code" : "0x",
                "nonce" : "0x00",
                "balance" : "0x1bc16d674ec868bc",
                "storage" : {
                }
            }
        },
        "network" : "ConstantinopleFix",
        "sealEngine" : "NoProof",
        "lastblockhash" : "0x35ae7577f1ad00af440f2b41ea8f127875643abea87f52ce9563118fdfd39996",
        "genesisRLP" : "0xf901f8f901f3a00000000000000000000000000000000000000000000000000000000000000000a01dcc4de8dec75d7aab85b567b6ccd41ad312451b948a7413f0a142fd40d49347942adc25665018aa1fe0e6bc666dac8fc2697ff9baa081c091dc34b7bd0b81fbe1e9d012a5584002f8361957b77e1580bcc6323fe91da056e81f171bcc55a6ff8345e692c0f86e5b48e01b996cadc001622fb5e363b421a056e81f171bcc55a6ff8345e692c0f86e5b48e01b996cadc001622fb5e363b421b90100000000000000000000000000000000000000000000000000000000000000000000000000000000000000000000000000000000000000000000000000000000000000000000000000000000000000000000000000000000000000000000000000000000000000000000000000000000000000000000000000000000000000000000000000000000000000000000000000000000000000000000000000000000000000000000000000000000000000000000000000000000000000000000000000000000000000000000000000000000000000000000000000000000000000000000000000000000000000000000000000000000000000000000000000000000008302000080830f4240808000a00000000000000000000000000000000000000000000000000000000000000000880000000000000000c0c0",
        "blocks" : [
            {
                "rlp" : "0xf9025ff901f7a062defc4e2f50d532eef71f58ed7f6356a1bed41d7064df3ee6b06d3a3f2cc3a3a01dcc4de8dec75d7aab85b567b6ccd41ad312451b948a7413f0a142fd40d49347942adc25665018aa1fe0e6bc666dac8fc2697ff9baa0b32e12062c45c6e790187c769613904f7dd0d88af763cc896e4a4b6a52850740a061276ef1c9b908482c8e8c08db0e17904a5358a160db4eb2d88c325d397443b8a065432e748f3cf563b142479c8af10a76d8c470da84ca9f02e1fd563907705b99b90100000000000000000000000000000000000000000000000000000000000000000000000000000000000000000000000000000000000000000000000000000000000000000000000000000000000000000000000000000000000000000000000000000000000000000000000000000000000000000000000000000000000000000000000000000000000000000000000000000000000000000000000000000000000000000000000000000000000000000000000000000000000000000000000000000000000000000000000000000000000000000000000000000000000000000000000000000000000000000000000000000000000000000000000000000000008302000001830f460f8268bc8203e800a00000000000000000000000000000000000000000000000000000000000000000880000000000000000f862f860800183061a8094095e7baea6a6c7c4c2dfeb977efac326af552d8780801ca0c1760cf96cfbbc2756850ffd2ff8078543d42da5fd0327619c642b2c8055d5a6a066715427a6eca6698235668ae3ee160dbe4f96df97ce96f2d1193a112a15ebb6c0",
                "blockHeader" : {
                    "bloom" : "0x00000000000000000000000000000000000000000000000000000000000000000000000000000000000000000000000000000000000000000000000000000000000000000000000000000000000000000000000000000000000000000000000000000000000000000000000000000000000000000000000000000000000000000000000000000000000000000000000000000000000000000000000000000000000000000000000000000000000000000000000000000000000000000000000000000000000000000000000000000000000000000000000000000000000000000000000000000000000000000000000000000000000000000000000000000000",
                    "coinbase" : "0x2adc25665018aa1fe0e6bc666dac8fc2697ff9ba",
                    "difficulty" : "0x20000",
                    "extraData" : "0x00",
                    "gasLimit" : "0xf460f",
                    "gasUsed" : "0x68bc",
                    "hash" : "0x35ae7577f1ad00af440f2b41ea8f127875643abea87f52ce9563118fdfd39996",
                    "mixHash" : "0x0000000000000000000000000000000000000000000000000000000000000000",
                    "nonce" : "0x0000000000000000",
                    "number" : "0x1",
                    "parentHash" : "0x62defc4e2f50d532eef71f58ed7f6356a1bed41d7064df3ee6b06d3a3f2cc3a3",
                    "receiptTrie" : "0x65432e748f3cf563b142479c8af10a76d8c470da84ca9f02e1fd563907705b99",
                    "stateRoot" : "0xb32e12062c45c6e790187c769613904f7dd0d88af763cc896e4a4b6a52850740",
                    "timestamp" : "0x3e8",
                    "transactionsTrie" : "0x61276ef1c9b908482c8e8c08db0e17904a5358a160db4eb2d88c325d397443b8",
                    "uncleHash" : "0x1dcc4de8dec75d7aab85b567b6ccd41ad312451b948a7413f0a142fd40d49347"
                },
                "transactions" : [
                    {
                        "data" : "0x",
                        "gasLimit" : "0x061a80",
                        "gasPrice" : "0x01",
                        "nonce" : "0x00",
                        "secretKey" : "0x45a915e4d060149eb4365960e6a7a45f334393093061116b197e3240065ff2d8",
                        "to" : "0x095e7baea6a6c7c4c2dfeb977efac326af552d87",
                        "value" : "0x00"
                    }
                ]
            }
        ]
    },
    "byteNonConst_d0g0v1_ConstantinopleFix" : {
        "_info" : {
            "comment" : "",
            "filling-rpc-server" : "Geth-1.9.3-unstable-d5bd3838-20190830",
            "filling-tool-version" : "retesteth-0.0.1+commit.222e3073.Linux.g++",
            "lllcversion" : "Version: 0.5.0-develop.2019.8.22+commit.9709dfe0.Linux.g++",
            "source" : "src/GeneralStateTestsFiller/stArgsZeroOneBalance/byteNonConstFiller.yml",
            "sourceHash" : "71bcdfcd6cfa4f1e1e03c3cf8e0392d69f442a033ba43c0c15ae094cc02d83d8"
        },
        "genesisBlockHeader" : {
            "bloom" : "0x00000000000000000000000000000000000000000000000000000000000000000000000000000000000000000000000000000000000000000000000000000000000000000000000000000000000000000000000000000000000000000000000000000000000000000000000000000000000000000000000000000000000000000000000000000000000000000000000000000000000000000000000000000000000000000000000000000000000000000000000000000000000000000000000000000000000000000000000000000000000000000000000000000000000000000000000000000000000000000000000000000000000000000000000000000000",
            "coinbase" : "0x2adc25665018aa1fe0e6bc666dac8fc2697ff9ba",
            "difficulty" : "0x20000",
            "extraData" : "0x00",
            "gasLimit" : "0xf4240",
            "gasUsed" : "0x0",
            "hash" : "0x62defc4e2f50d532eef71f58ed7f6356a1bed41d7064df3ee6b06d3a3f2cc3a3",
            "mixHash" : "0x0000000000000000000000000000000000000000000000000000000000000000",
            "nonce" : "0x0000000000000000",
            "number" : "0x0",
            "parentHash" : "0x0000000000000000000000000000000000000000000000000000000000000000",
            "receiptTrie" : "0x56e81f171bcc55a6ff8345e692c0f86e5b48e01b996cadc001622fb5e363b421",
            "stateRoot" : "0x81c091dc34b7bd0b81fbe1e9d012a5584002f8361957b77e1580bcc6323fe91d",
            "timestamp" : "0x0",
            "transactionsTrie" : "0x56e81f171bcc55a6ff8345e692c0f86e5b48e01b996cadc001622fb5e363b421",
            "uncleHash" : "0x1dcc4de8dec75d7aab85b567b6ccd41ad312451b948a7413f0a142fd40d49347"
        },
        "pre" : {
            "0x095e7baea6a6c7c4c2dfeb977efac326af552d87" : {
                "balance" : "0x00",
                "code" : "0x73095e7baea6a6c7c4c2dfeb977efac326af552d873173095e7baea6a6c7c4c2dfeb977efac326af552d87311a600055",
                "nonce" : "0x00",
                "storage" : {
                }
            },
            "0xa94f5374fce5edbc8e2a8697c15331677e6ebf0b" : {
                "balance" : "0x0de0b6b3a7640000",
                "code" : "0x",
                "nonce" : "0x00",
                "storage" : {
                }
            }
        },
        "postState" : {
            "0xa94f5374fce5edbc8e2a8697c15331677e6ebf0b" : {
                "code" : "0x",
                "nonce" : "0x01",
                "balance" : "0x0de0b6b3a7639743",
                "storage" : {
                }
            },
            "0x095e7baea6a6c7c4c2dfeb977efac326af552d87" : {
                "code" : "0x73095e7baea6a6c7c4c2dfeb977efac326af552d873173095e7baea6a6c7c4c2dfeb977efac326af552d87311a600055",
                "nonce" : "0x00",
                "balance" : "0x01",
                "storage" : {
                }
            },
            "0x2adc25665018aa1fe0e6bc666dac8fc2697ff9ba" : {
                "code" : "0x",
                "nonce" : "0x00",
                "balance" : "0x1bc16d674ec868bc",
                "storage" : {
                }
            }
        },
        "network" : "ConstantinopleFix",
        "sealEngine" : "NoProof",
        "lastblockhash" : "0x33fe7c061a030c7a5e599f03f05ca7b0e95bd25b48c3b8fd7589c0c1ba8e9a84",
        "genesisRLP" : "0xf901f8f901f3a00000000000000000000000000000000000000000000000000000000000000000a01dcc4de8dec75d7aab85b567b6ccd41ad312451b948a7413f0a142fd40d49347942adc25665018aa1fe0e6bc666dac8fc2697ff9baa081c091dc34b7bd0b81fbe1e9d012a5584002f8361957b77e1580bcc6323fe91da056e81f171bcc55a6ff8345e692c0f86e5b48e01b996cadc001622fb5e363b421a056e81f171bcc55a6ff8345e692c0f86e5b48e01b996cadc001622fb5e363b421b90100000000000000000000000000000000000000000000000000000000000000000000000000000000000000000000000000000000000000000000000000000000000000000000000000000000000000000000000000000000000000000000000000000000000000000000000000000000000000000000000000000000000000000000000000000000000000000000000000000000000000000000000000000000000000000000000000000000000000000000000000000000000000000000000000000000000000000000000000000000000000000000000000000000000000000000000000000000000000000000000000000000000000000000000000000000008302000080830f4240808000a00000000000000000000000000000000000000000000000000000000000000000880000000000000000c0c0",
        "blocks" : [
            {
                "rlp" : "0xf9025ff901f7a062defc4e2f50d532eef71f58ed7f6356a1bed41d7064df3ee6b06d3a3f2cc3a3a01dcc4de8dec75d7aab85b567b6ccd41ad312451b948a7413f0a142fd40d49347942adc25665018aa1fe0e6bc666dac8fc2697ff9baa0fa463d60f79fdc3f957ba76263896496e4af1ae45a2e3f8ddf9017dcdaa8d58ea0f2fde0741a86c3f5b87ccee3cce6faafd15be92989188f40919cb13422672757a065432e748f3cf563b142479c8af10a76d8c470da84ca9f02e1fd563907705b99b90100000000000000000000000000000000000000000000000000000000000000000000000000000000000000000000000000000000000000000000000000000000000000000000000000000000000000000000000000000000000000000000000000000000000000000000000000000000000000000000000000000000000000000000000000000000000000000000000000000000000000000000000000000000000000000000000000000000000000000000000000000000000000000000000000000000000000000000000000000000000000000000000000000000000000000000000000000000000000000000000000000000000000000000000000000000008302000001830f460f8268bc8203e800a00000000000000000000000000000000000000000000000000000000000000000880000000000000000f862f860800183061a8094095e7baea6a6c7c4c2dfeb977efac326af552d8701801ca0ae29a79903b187c6d075320f9834a330b5134244c7fb0476eba58cd87b175fd6a027a8f85308f5f08f4e2f6b2e23d9dcfd740108f8f96517e50c9e1dc86288a673c0",
                "blockHeader" : {
                    "bloom" : "0x00000000000000000000000000000000000000000000000000000000000000000000000000000000000000000000000000000000000000000000000000000000000000000000000000000000000000000000000000000000000000000000000000000000000000000000000000000000000000000000000000000000000000000000000000000000000000000000000000000000000000000000000000000000000000000000000000000000000000000000000000000000000000000000000000000000000000000000000000000000000000000000000000000000000000000000000000000000000000000000000000000000000000000000000000000000",
                    "coinbase" : "0x2adc25665018aa1fe0e6bc666dac8fc2697ff9ba",
                    "difficulty" : "0x20000",
                    "extraData" : "0x00",
                    "gasLimit" : "0xf460f",
                    "gasUsed" : "0x68bc",
                    "hash" : "0x33fe7c061a030c7a5e599f03f05ca7b0e95bd25b48c3b8fd7589c0c1ba8e9a84",
                    "mixHash" : "0x0000000000000000000000000000000000000000000000000000000000000000",
                    "nonce" : "0x0000000000000000",
                    "number" : "0x1",
                    "parentHash" : "0x62defc4e2f50d532eef71f58ed7f6356a1bed41d7064df3ee6b06d3a3f2cc3a3",
                    "receiptTrie" : "0x65432e748f3cf563b142479c8af10a76d8c470da84ca9f02e1fd563907705b99",
                    "stateRoot" : "0xfa463d60f79fdc3f957ba76263896496e4af1ae45a2e3f8ddf9017dcdaa8d58e",
                    "timestamp" : "0x3e8",
                    "transactionsTrie" : "0xf2fde0741a86c3f5b87ccee3cce6faafd15be92989188f40919cb13422672757",
                    "uncleHash" : "0x1dcc4de8dec75d7aab85b567b6ccd41ad312451b948a7413f0a142fd40d49347"
                },
                "transactions" : [
                    {
                        "data" : "0x",
                        "gasLimit" : "0x061a80",
                        "gasPrice" : "0x01",
                        "nonce" : "0x00",
                        "secretKey" : "0x45a915e4d060149eb4365960e6a7a45f334393093061116b197e3240065ff2d8",
                        "to" : "0x095e7baea6a6c7c4c2dfeb977efac326af552d87",
                        "value" : "0x01"
                    }
                ]
            }
        ]
    }
}