{
    "sha3NonConst_d0g0v0_Byzantium" : {
        "_info" : {
            "comment" : "",
            "filledwith" : "cpp-1.3.0+commit.82b0643a.Linux.g++",
            "lllcversion" : "Version: 0.4.20-develop.2018.1.8+commit.2548228b.Linux.g++",
            "source" : "src/BlockchainTestsFiller/GeneralStateTests/stArgsZeroOneBalance/sha3NonConst_d0g0v0Filler.json",
            "sourceHash" : "1356d2a9154818664626eea422ab691fb2978140be37ad0185df63643429cb3a"
        },
        "blocks" : [
            {
                "blockHeader" : {
                    "bloom" : "0x00000000000000000000000000000000000000000000000000000000000000000000000000000000000000000000000000000000000000000000000000000000000000000000000000000000000000000000000000000000000000000000000000000000000000000000000000000000000000000000000000000000000000000000000000000000000000000000000000000000000000000000000000000000000000000000000000000000000000000000000000000000000000000000000000000000000000000000000000000000000000000000000000000000000000000000000000000000000000000000000000000000000000000000000000000000",
                    "coinbase" : "0x2adc25665018aa1fe0e6bc666dac8fc2697ff9ba",
                    "difficulty" : "0x020000",
                    "extraData" : "",
                    "gasLimit" : "0x0f4240",
                    "gasUsed" : "0xa36f",
                    "hash" : "0xb2d82d8e46599e401d156c078de0b4707af698275a25b2f6467a76928babe5d3",
                    "mixHash" : "0xee499f2b0b00a73df052e6b5edc3b792a46bf4f23a12ce368bdbb21cd98f1a68",
                    "nonce" : "0x4051a5afec9c9126",
                    "number" : "0x01",
                    "parentHash" : "0xb9a52ed577bf45030f87d95e77d515a179a969bce06a163644d28b67a635cc7b",
                    "receiptTrie" : "0xe8afa51819784f0a939c7f0e0d9614c8e30b22697966868ae4fb944a3209e201",
                    "stateRoot" : "0x7205a33eeb12af04d163788d43b0324b961da14578c8547fa44d80e368b014ac",
                    "timestamp" : "0x03e8",
                    "transactionsTrie" : "0x61276ef1c9b908482c8e8c08db0e17904a5358a160db4eb2d88c325d397443b8",
                    "uncleHash" : "0x1dcc4de8dec75d7aab85b567b6ccd41ad312451b948a7413f0a142fd40d49347"
                },
                "rlp" : "0xf9025ff901f7a0b9a52ed577bf45030f87d95e77d515a179a969bce06a163644d28b67a635cc7ba01dcc4de8dec75d7aab85b567b6ccd41ad312451b948a7413f0a142fd40d49347942adc25665018aa1fe0e6bc666dac8fc2697ff9baa07205a33eeb12af04d163788d43b0324b961da14578c8547fa44d80e368b014aca061276ef1c9b908482c8e8c08db0e17904a5358a160db4eb2d88c325d397443b8a0e8afa51819784f0a939c7f0e0d9614c8e30b22697966868ae4fb944a3209e201b90100000000000000000000000000000000000000000000000000000000000000000000000000000000000000000000000000000000000000000000000000000000000000000000000000000000000000000000000000000000000000000000000000000000000000000000000000000000000000000000000000000000000000000000000000000000000000000000000000000000000000000000000000000000000000000000000000000000000000000000000000000000000000000000000000000000000000000000000000000000000000000000000000000000000000000000000000000000000000000000000000000000000000000000000000000000008302000001830f424082a36f8203e880a0ee499f2b0b00a73df052e6b5edc3b792a46bf4f23a12ce368bdbb21cd98f1a68884051a5afec9c9126f862f860800183061a8094095e7baea6a6c7c4c2dfeb977efac326af552d8780801ca0c1760cf96cfbbc2756850ffd2ff8078543d42da5fd0327619c642b2c8055d5a6a066715427a6eca6698235668ae3ee160dbe4f96df97ce96f2d1193a112a15ebb6c0",
                "transactions" : [
                    {
                        "data" : "0x",
                        "gasLimit" : "0x061a80",
                        "gasPrice" : "0x01",
                        "nonce" : "0x00",
                        "r" : "0xc1760cf96cfbbc2756850ffd2ff8078543d42da5fd0327619c642b2c8055d5a6",
                        "s" : "0x66715427a6eca6698235668ae3ee160dbe4f96df97ce96f2d1193a112a15ebb6",
                        "to" : "0x095e7baea6a6c7c4c2dfeb977efac326af552d87",
                        "v" : "0x1c",
                        "value" : "0x00"
                    }
                ],
                "uncleHeaders" : [
                ]
            }
        ],
        "genesisBlockHeader" : {
            "bloom" : "0x00000000000000000000000000000000000000000000000000000000000000000000000000000000000000000000000000000000000000000000000000000000000000000000000000000000000000000000000000000000000000000000000000000000000000000000000000000000000000000000000000000000000000000000000000000000000000000000000000000000000000000000000000000000000000000000000000000000000000000000000000000000000000000000000000000000000000000000000000000000000000000000000000000000000000000000000000000000000000000000000000000000000000000000000000000000",
            "coinbase" : "0x2adc25665018aa1fe0e6bc666dac8fc2697ff9ba",
            "difficulty" : "0x020000",
            "extraData" : "0x42",
            "gasLimit" : "0x0f4240",
            "gasUsed" : "0x00",
            "hash" : "0xb9a52ed577bf45030f87d95e77d515a179a969bce06a163644d28b67a635cc7b",
            "mixHash" : "0x56e81f171bcc55a6ff8345e692c0f86e5b48e01b996cadc001622fb5e363b421",
            "nonce" : "0x0102030405060708",
            "number" : "0x00",
            "parentHash" : "0x0000000000000000000000000000000000000000000000000000000000000000",
            "receiptTrie" : "0x56e81f171bcc55a6ff8345e692c0f86e5b48e01b996cadc001622fb5e363b421",
            "stateRoot" : "0x86916d89b0f0b0e02b1fc39f0d69299d8a7d7d794de2c175415c4f65c048f7ed",
            "timestamp" : "0x03b6",
            "transactionsTrie" : "0x56e81f171bcc55a6ff8345e692c0f86e5b48e01b996cadc001622fb5e363b421",
            "uncleHash" : "0x1dcc4de8dec75d7aab85b567b6ccd41ad312451b948a7413f0a142fd40d49347"
        },
        "genesisRLP" : "0xf901faf901f5a00000000000000000000000000000000000000000000000000000000000000000a01dcc4de8dec75d7aab85b567b6ccd41ad312451b948a7413f0a142fd40d49347942adc25665018aa1fe0e6bc666dac8fc2697ff9baa086916d89b0f0b0e02b1fc39f0d69299d8a7d7d794de2c175415c4f65c048f7eda056e81f171bcc55a6ff8345e692c0f86e5b48e01b996cadc001622fb5e363b421a056e81f171bcc55a6ff8345e692c0f86e5b48e01b996cadc001622fb5e363b421b90100000000000000000000000000000000000000000000000000000000000000000000000000000000000000000000000000000000000000000000000000000000000000000000000000000000000000000000000000000000000000000000000000000000000000000000000000000000000000000000000000000000000000000000000000000000000000000000000000000000000000000000000000000000000000000000000000000000000000000000000000000000000000000000000000000000000000000000000000000000000000000000000000000000000000000000000000000000000000000000000000000000000000000000000000000000008302000080830f4240808203b642a056e81f171bcc55a6ff8345e692c0f86e5b48e01b996cadc001622fb5e363b421880102030405060708c0c0",
        "lastblockhash" : "0xb2d82d8e46599e401d156c078de0b4707af698275a25b2f6467a76928babe5d3",
        "network" : "Byzantium",
        "postState" : {
            "0x095e7baea6a6c7c4c2dfeb977efac326af552d87" : {
                "balance" : "0x00",
                "code" : "0x73095e7baea6a6c7c4c2dfeb977efac326af552d873173095e7baea6a6c7c4c2dfeb977efac326af552d873120600055",
                "nonce" : "0x00",
                "storage" : {
                    "0x00" : "0xc5d2460186f7233c927e7db2dcc703c0e500b653ca82273b7bfad8045d85a470"
                }
            },
            "0x2adc25665018aa1fe0e6bc666dac8fc2697ff9ba" : {
                "balance" : "0x29a2241af62ca36f",
                "code" : "",
                "nonce" : "0x00",
                "storage" : {
                }
            },
            "0xa94f5374fce5edbc8e2a8697c15331677e6ebf0b" : {
                "balance" : "0x0de0b6b3a7635c91",
                "code" : "",
                "nonce" : "0x01",
                "storage" : {
                }
            }
        },
        "pre" : {
            "0x095e7baea6a6c7c4c2dfeb977efac326af552d87" : {
                "balance" : "0x00",
                "code" : "0x73095e7baea6a6c7c4c2dfeb977efac326af552d873173095e7baea6a6c7c4c2dfeb977efac326af552d873120600055",
                "nonce" : "0x00",
                "storage" : {
                }
            },
            "0xa94f5374fce5edbc8e2a8697c15331677e6ebf0b" : {
                "balance" : "0x0de0b6b3a7640000",
                "code" : "",
                "nonce" : "0x00",
                "storage" : {
                }
            }
        }
    }
}