{
    "CREATE2_EOF1" : {
        "_info" : {
            "comment" : "",
            "filling-rpc-server" : "evm version 1.11.0-unstable-291a73a8-20221117",
            "filling-tool-version" : "retesteth-0.2.3-postmerge+commit.596607c5.Linux.g++",
            "generatedTestHash" : "c19dba37ad0892802eb35bc539c5d1a088bc33033a25d5bc9e1a943668ab07ef",
            "labels" : {
                "0" : "eof1_initcode_rjump_jumpdest_pos",
                "1" : "eof1_initcode_rjump_jumpdest_neg",
                "10" : "eof1_initcode_rjumpi_neg",
                "11" : "eof1_initcode_rjumpi_zer",
                "12" : "eof1_initcode_deploy_eof1_rjump_jumpdest_pos",
                "13" : "eof1_initcode_deploy_eof1_rjump_jumpdest_neg",
                "14" : "eof1_initcode_deploy_eof1_rjump_jumpdest_zer",
                "15" : "eof1_initcode_deploy_eof1_rjumpi_jumpdest_pos",
                "16" : "eof1_initcode_deploy_eof1_rjumpi_jumpdest_neg",
                "17" : "eof1_initcode_deploy_eof1_rjumpi_jumpdest_zer",
                "18" : "eof1_initcode_deploy_eof1_rjump_pos",
                "19" : "eof1_initcode_deploy_eof1_rjump_neg",
                "2" : "eof1_initcode_rjump_jumpdest_zer",
                "20" : "eof1_initcode_deploy_eof1_rjump_zer",
                "21" : "eof1_initcode_deploy_eof1_rjumpi_pos",
                "22" : "eof1_initcode_deploy_eof1_rjumpi_neg",
                "23" : "eof1_initcode_deploy_eof1_rjumpi_zer",
                "3" : "eof1_initcode_rjump_pos",
                "4" : "eof1_initcode_rjump_neg",
                "5" : "eof1_initcode_rjump_zer",
                "6" : "eof1_initcode_rjumpi_jumpdest_pos",
                "7" : "eof1_initcode_rjumpi_jumpdest_neg",
                "8" : "eof1_initcode_rjumpi_jumpdest_zer",
                "9" : "eof1_initcode_rjumpi_pos"
            },
            "lllcversion" : "Version: 0.5.14-develop.2022.4.6+commit.401d5358.Linux.g++",
            "solidity" : "Version: 0.8.5+commit.a4f2e591.Linux.g++",
            "source" : "src/GeneralStateTestsFiller/stEIP4200/CREATE2_EOF1Filler.yml",
            "sourceHash" : "9f32ebaf5327f9c3e939beabbded770d2bed2af47beec4c4d9ec35c1d5b7affb"
        },
        "env" : {
            "currentBaseFee" : "0x0a",
            "currentCoinbase" : "0x2adc25665018aa1fe0e6bc666dac8fc2697ff9ba",
            "currentDifficulty" : "0x020000",
            "currentGasLimit" : "0x05500000",
            "currentNumber" : "0x01",
            "currentRandom" : "0x0000000000000000000000000000000000000000000000000000000000020000",
            "currentTimestamp" : "0x03e8",
            "previousHash" : "0x5e20a0453cecd065ea59c37ac63e079ee08998b6045136a8ce6635c7912ec0b6"
        },
        "post" : {
            "Merge+3540+3670+4200" : [
                {
                    "hash" : "0x35c5b9c0b132e32cd84f0438f1f7be80672dbc061719497e370b12cdb751d45f",
                    "indexes" : {
                        "data" : 0,
                        "gas" : 0,
                        "value" : 0
                    },
                    "logs" : "0x1dcc4de8dec75d7aab85b567b6ccd41ad312451b948a7413f0a142fd40d49347",
                    "txbytes" : "0xf885800a83e4e1c094b94f5374fce5edbc8e2a8697c15331677e6ebf0b80a5ef0001010013020008005c000300f3005b6008601d60003960086000f3ef000101000100fe1ca020a230416e2511256e9822fd73a98462cf5b13d3e67c2bda0a017f2e41f734f8a06dfdb15025b53e13fafdf4e81a0f4c08fa250832ef6ec20a5bd7a263417f4855"
                },
                {
                    "hash" : "0xc6a550357ca4db9623db47c60b726d797800a5cf658e52a6e1144c6135f2ef12",
                    "indexes" : {
                        "data" : 1,
                        "gas" : 0,
                        "value" : 0
                    },
                    "logs" : "0x1dcc4de8dec75d7aab85b567b6ccd41ad312451b948a7413f0a142fd40d49347",
                    "txbytes" : "0xf887800a83e4e1c094b94f5374fce5edbc8e2a8697c15331677e6ebf0b80a7ef0001010015020008005c000d5b6008601f60003960086000f35b5cffef00ef000101000100fe1ba0e7306f42f8d201168f24ec0d008084f00b28ec763a82cb3fa6946762646ef068a0796efc8ec26d234f878369f6e64900850c9a1a94f37ed739878844ea4afe5745"
                },
                {
                    "hash" : "0x54d2386254214945018ebcb80eb307af421b17c314ea64da815def44de980405",
                    "indexes" : {
                        "data" : 2,
                        "gas" : 0,
                        "value" : 0
                    },
                    "logs" : "0x1dcc4de8dec75d7aab85b567b6ccd41ad312451b948a7413f0a142fd40d49347",
                    "txbytes" : "0xf882800a83e4e1c094b94f5374fce5edbc8e2a8697c15331677e6ebf0b80a2ef0001010010020008005c00005b6008601a60003960086000f3ef000101000100fe1ca0cc99d69c53256039f6e5680280f3c243fbaa56bf7ae01fc6253470063b8a45f7a06ab85fc9d03bd4dd0c69774b0298f582567bfa507a6a23cb5f784a5cb1d99ee5"
                },
                {
                    "hash" : "0xe18282ccfa5080a5dbf485ecc022fe88485df94d32bfe3e3cdfaacd646a606cb",
                    "indexes" : {
                        "data" : 3,
                        "gas" : 0,
                        "value" : 0
                    },
                    "logs" : "0x1dcc4de8dec75d7aab85b567b6ccd41ad312451b948a7413f0a142fd40d49347",
                    "txbytes" : "0xf884800a83e4e1c094b94f5374fce5edbc8e2a8697c15331677e6ebf0b80a4ef0001010012020008005c000300f3006008601c60003960086000f3ef000101000100fe1ba091b6b3af091273892e062b1d12de009d234d28dc326780f60f664ce4272f0c82a045d2717c698f87a2b3a9c01eba6d184776567c10112bd0d2748681c3fe8f1713"
                },
                {
                    "hash" : "0xc000315cbf3a342f7b1a2dc4794f66c6553cd218404da3d9eee54c74475926a2",
                    "indexes" : {
                        "data" : 4,
                        "gas" : 0,
                        "value" : 0
                    },
                    "logs" : "0x1dcc4de8dec75d7aab85b567b6ccd41ad312451b948a7413f0a142fd40d49347",
                    "txbytes" : "0xf886800a83e4e1c094b94f5374fce5edbc8e2a8697c15331677e6ebf0b80a6ef0001010014020008005c000c6008601e60003960086000f35b5cfff000ef000101000100fe1ca08ba01d2793d97c22efec27a91160e4d08199a8fcd3a8d71fe99cb30153fa8075a05707f3185e37587594404f9f409bdaeb0e126b0756da992ebdceadd90c347967"
                },
                {
                    "hash" : "0x6e569beed8153b90f692e3d46d667b87e97be9e91e2d1e9d1c66cf791eb8a844",
                    "indexes" : {
                        "data" : 5,
                        "gas" : 0,
                        "value" : 0
                    },
                    "logs" : "0x1dcc4de8dec75d7aab85b567b6ccd41ad312451b948a7413f0a142fd40d49347",
                    "txbytes" : "0xf881800a83e4e1c094b94f5374fce5edbc8e2a8697c15331677e6ebf0b80a1ef000101000f020008005c00006008601960003960086000f3ef000101000100fe1ca0fc7188cdf3ca8d6e9fb9c1a958d5db67b2258531965a2dc5a9c465d00b7b7bb6a03641f088c0f244a5db2001ee0c7cba06118fd9e59a1ec00c0c9fa036de64be1d"
                },
                {
                    "hash" : "0xe63e10abc34b043b1fd13956733666b42d4e113cfbae8c3ee650ec0dba9c951a",
                    "indexes" : {
                        "data" : 6,
                        "gas" : 0,
                        "value" : 0
                    },
                    "logs" : "0x1dcc4de8dec75d7aab85b567b6ccd41ad312451b948a7413f0a142fd40d49347",
                    "txbytes" : "0xf887800a83e4e1c094b94f5374fce5edbc8e2a8697c15331677e6ebf0b80a7ef00010100150200080060015d000300f3005b6008601f60003960086000f3ef000101000100fe1ba072f84662621294266f15922b3d19bc37b9170ca6665fae6dda7effc608778b47a049b53af48d9488bd3f775d62e578a78cce423a00bca7c8af79b936c3846c5ac8"
                },
                {
                    "hash" : "0x9ca7ddfd588b8b1952ebc829ddaa844597039fda63be6ecc0de1da1d7b50c0b9",
                    "indexes" : {
                        "data" : 7,
                        "gas" : 0,
                        "value" : 0
                    },
                    "logs" : "0x1dcc4de8dec75d7aab85b567b6ccd41ad312451b948a7413f0a142fd40d49347",
                    "txbytes" : "0xf889800a83e4e1c094b94f5374fce5edbc8e2a8697c15331677e6ebf0b80a9ef0001010017020008005c000d5b6008602160003960086000f35b60015dffed00ef000101000100fe1ca03696cf47c0bbaee8b05e29297e86fe886d4a4d109b757c874402e88b77497dc6a03218416e7ed5574539f1f0046eb1e923718b291ed8f0d44e1c1ad0196084154a"
                },
                {
                    "hash" : "0xc1636e3d5ea7d7acab1011e6640cb45c47be48c4724b4df6e5ed2e0620a61444",
                    "indexes" : {
                        "data" : 8,
                        "gas" : 0,
                        "value" : 0
                    },
                    "logs" : "0x1dcc4de8dec75d7aab85b567b6ccd41ad312451b948a7413f0a142fd40d49347",
                    "txbytes" : "0xf884800a83e4e1c094b94f5374fce5edbc8e2a8697c15331677e6ebf0b80a4ef00010100120200080060015d00005b6008601c60003960086000f3ef000101000100fe1ca0de7316742e48dde55cf6504f2ad01c1ce4cd563158106e60151162d187738f2fa0378d43136c934e03f696c9360770c0f20eef56c8560d4f1ac8747764600221de"
                },
                {
                    "hash" : "0x564f74de216fc596cab800f116a979dd6176bd00e8a81d8e7b5bb2d55c216d70",
                    "indexes" : {
                        "data" : 9,
                        "gas" : 0,
                        "value" : 0
                    },
                    "logs" : "0x1dcc4de8dec75d7aab85b567b6ccd41ad312451b948a7413f0a142fd40d49347",
                    "txbytes" : "0xf886800a83e4e1c094b94f5374fce5edbc8e2a8697c15331677e6ebf0b80a6ef00010100140200080060015d000300f3006008601e60003960086000f3ef000101000100fe1ca07cb5336e3f77f7cd3373d8a51477d76f3c78d4be5aa52b124382b962950e3157a00570245c9e1f8dbd18d0249156ddc990febbf1aaa2c5262dcef976abf55fd851"
                },
                {
                    "hash" : "0x06d629d3543cd73192bf6f69057bec53b0325e40b2fb81a422f9969e8f9b5e56",
                    "indexes" : {
                        "data" : 10,
                        "gas" : 0,
                        "value" : 0
                    },
                    "logs" : "0x1dcc4de8dec75d7aab85b567b6ccd41ad312451b948a7413f0a142fd40d49347",
                    "txbytes" : "0xf888800a83e4e1c094b94f5374fce5edbc8e2a8697c15331677e6ebf0b80a8ef0001010016020008005c000c6008602060003960086000f35b60015dffee00ef000101000100fe1ba06bce4d92f3fea5ffc8101ab068e56cb9afcfc0c82ee729943fd83041aec5f659a03b47d71a4b3349b7e2a9115db0891499e98d22d05c0c42f52cf60a06beb55d50"
                },
                {
                    "hash" : "0xd4cc75753eb2013a02e57ed3e1eaee61ab16c3c43cfa4db4763f031d241301a4",
                    "indexes" : {
                        "data" : 11,
                        "gas" : 0,
                        "value" : 0
                    },
                    "logs" : "0x1dcc4de8dec75d7aab85b567b6ccd41ad312451b948a7413f0a142fd40d49347",
                    "txbytes" : "0xf883800a83e4e1c094b94f5374fce5edbc8e2a8697c15331677e6ebf0b80a3ef00010100110200080060015d00006008601b60003960086000f3ef000101000100fe1ca04e01b1dd5d53c696a927ee6d70a471d5ea76968b9bb5ab196ac31c1e5e48bfbda03b5bdb083e58361b5341f7ecdf743b4724bf468d17a77fe8e8d9b889dde96528"
                },
                {
                    "hash" : "0x68fe4d957d4df35b54c3306dbb0a89a49e6be89ea2b3198cc08f98c7bd2943d1",
                    "indexes" : {
                        "data" : 12,
                        "gas" : 0,
                        "value" : 0
                    },
                    "logs" : "0x1dcc4de8dec75d7aab85b567b6ccd41ad312451b948a7413f0a142fd40d49347",
                    "txbytes" : "0xf88a800a83e4e1c094b94f5374fce5edbc8e2a8697c15331677e6ebf0b80aaef000101000c020014006014601660003960146000f3ef000101000d005c000300f3005b6001600155001ca01e75b195b95e0b5c4ba05d71ae0b5766f1f58f1c22a881399e2ae325306363c3a0529ad63113146cee9d907a1cc67355cfd3b1dc9ae53272a236f08c76f497b4d2"
                },
                {
                    "hash" : "0xeab32a40c52ecad4d7cd1c888fdae91a7f3297d9630a61a533fcbe2f3f64d1a2",
                    "indexes" : {
                        "data" : 13,
                        "gas" : 0,
                        "value" : 0
                    },
                    "logs" : "0x1dcc4de8dec75d7aab85b567b6ccd41ad312451b948a7413f0a142fd40d49347",
                    "txbytes" : "0xf88d800a83e4e1c094b94f5374fce5edbc8e2a8697c15331677e6ebf0b80adef000101000c020017006017601660003960176000f3ef0001010010005c0008005b6001600155005b5cfff5001ba02fb14b7596c452ec16b17d203491e97a81c06c499636c7747cd69bbd3627cc63a06117655669353141df4158ccf9c8fe306be9f169c721d16c7f7bdb8074fc9ed8"
                },
                {
                    "hash" : "0x702a1ebbd2faf0e1a3146d590427f278c326b2449265f8b8347060f01b0311d0",
                    "indexes" : {
                        "data" : 14,
                        "gas" : 0,
                        "value" : 0
                    },
                    "logs" : "0x1dcc4de8dec75d7aab85b567b6ccd41ad312451b948a7413f0a142fd40d49347",
                    "txbytes" : "0xf887800a83e4e1c094b94f5374fce5edbc8e2a8697c15331677e6ebf0b80a7ef000101000c020011006011601660003960116000f3ef000101000a005c00005b6001600155001ba01263c41d6740dd2faa6af7a28ba9c04394f1b335eaf61e40922d6d94f426c8ada06fde3959e2dcb2ede266cffc070d3660aa0a80bc966b9da9b1c5a90c310e1234"
                },
                {
                    "hash" : "0xf5959eac6ec9f5b6513f124b50aa620f25c6ccb49fdb7fd703ac2ca65750a063",
                    "indexes" : {
                        "data" : 15,
                        "gas" : 0,
                        "value" : 0
                    },
                    "logs" : "0x1dcc4de8dec75d7aab85b567b6ccd41ad312451b948a7413f0a142fd40d49347",
                    "txbytes" : "0xf88c800a83e4e1c094b94f5374fce5edbc8e2a8697c15331677e6ebf0b80acef000101000c020016006016601660003960166000f3ef000101000f0060015d000300f3005b6001600155001ca04e62e85751a89a563217921adce56cb6e0d8ce7c713ff34bb2af5c926c8bbe4ea073fb76bf4536b2ae23bdb1ceb860a2e93af81fa059f4a1731c981067e2e6c3d1"
                },
                {
                    "hash" : "0x30aca49eee9f94e926ef34962a3eea94a05908b9c650e22942a005cfcfee3966",
                    "indexes" : {
                        "data" : 16,
                        "gas" : 0,
                        "value" : 0
                    },
                    "logs" : "0x1dcc4de8dec75d7aab85b567b6ccd41ad312451b948a7413f0a142fd40d49347",
                    "txbytes" : "0xf88f800a83e4e1c094b94f5374fce5edbc8e2a8697c15331677e6ebf0b80afef000101000c020019006019601660003960196000f3ef0001010012005c0008005b6001600155005b60015dfff3001ca05a31cc3460bd233994d533b5251335e7993024204d9cdd2e9fe08825952537d0a072fccacc4778931db56c04472ba4fbcfa64f743e44f9daf62b94e95bea72d95e"
                },
                {
                    "hash" : "0x8a468c1777884591bbaf11b031d59db6a36a2c176dcd3538627069b8288f7028",
                    "indexes" : {
                        "data" : 17,
                        "gas" : 0,
                        "value" : 0
                    },
                    "logs" : "0x1dcc4de8dec75d7aab85b567b6ccd41ad312451b948a7413f0a142fd40d49347",
                    "txbytes" : "0xf889800a83e4e1c094b94f5374fce5edbc8e2a8697c15331677e6ebf0b80a9ef000101000c020013006013601660003960136000f3ef000101000c0060015d00005b6001600155001ba05e541eb0ad6af383876a136d034a906e618b75db6fbe70cf57462c19bcfcb9a4a0273ab642d36036e798fd128af53336b6f3dbee688fdaf49636a4ca70aee7cfc9"
                },
                {
                    "hash" : "0x4f1c02bba32d44b50e2e1d7d97030afa2a8555ba0c702bbb3702862764e66865",
                    "indexes" : {
                        "data" : 18,
                        "gas" : 0,
                        "value" : 0
                    },
                    "logs" : "0x1dcc4de8dec75d7aab85b567b6ccd41ad312451b948a7413f0a142fd40d49347",
                    "txbytes" : "0xf889800a83e4e1c094b94f5374fce5edbc8e2a8697c15331677e6ebf0b80a9ef000101000c020013006013601660003960136000f3ef000101000c005c000300f3006001600155001ba0dd7fe6e3e2fa0708e3ee0c1328014aad25bc1ae95ee8ec52c081f2c50db3bb57a04d73c11dcebc9e209013f88029fffefeed8fb17ac7eae0fc6bfa2d3f43c74d4c"
                },
                {
                    "hash" : "0xec7631e59084d9ec4c07b1204a2c5689b479dec4c33138758390df79089f60dc",
                    "indexes" : {
                        "data" : 19,
                        "gas" : 0,
                        "value" : 0
                    },
                    "logs" : "0x1dcc4de8dec75d7aab85b567b6ccd41ad312451b948a7413f0a142fd40d49347",
                    "txbytes" : "0xf88c800a83e4e1c094b94f5374fce5edbc8e2a8697c15331677e6ebf0b80acef000101000c020016006016601660003960166000f3ef000101000f005c0007006001600155005b5cfff6001ba0b492781e1d189672e126a40d605e0a8c30243d6ce3c90651d99361cb65b2bb62a04a8ff55f3673b1c7c4673aaecf831464ea813bb5ad19e0d1f4bc8041b7c4b7c1"
                },
                {
                    "hash" : "0xefe39bd5a4b8bef1660635bd6c249f7517a77ebcd0b2a096e109ca14a2638abb",
                    "indexes" : {
                        "data" : 20,
                        "gas" : 0,
                        "value" : 0
                    },
                    "logs" : "0x1dcc4de8dec75d7aab85b567b6ccd41ad312451b948a7413f0a142fd40d49347",
                    "txbytes" : "0xf886800a83e4e1c094b94f5374fce5edbc8e2a8697c15331677e6ebf0b80a6ef000101000c020010006010601660003960106000f3ef0001010009005c00006001600155001ca0451e5f4ba93ae7f7bf71722877a8fe514b9dbf69b1713eeaaf466e3839e451cba069d0acf54af687cc779c8b6021513eecd1e885427a39c7c3f5d4e68b9c229d33"
                },
                {
                    "hash" : "0xeab59bc248bbf71369248e3adf57e02178c55b3ff28a47bb3c58dd38d92b7e43",
                    "indexes" : {
                        "data" : 21,
                        "gas" : 0,
                        "value" : 0
                    },
                    "logs" : "0x1dcc4de8dec75d7aab85b567b6ccd41ad312451b948a7413f0a142fd40d49347",
                    "txbytes" : "0xf88b800a83e4e1c094b94f5374fce5edbc8e2a8697c15331677e6ebf0b80abef000101000c020015006015601660003960156000f3ef000101000e0060015d000300f3006001600155001ba051c3427b301d123410845d6b8adb75ebbc9e56827ccba0100ff07725ce223d2fa06881801533894a0e05b6ba823460dbc086d7cd03f0cccec740ec4c7a862a0431"
                },
                {
                    "hash" : "0x778863ef65c6e80e3feed88efd43a6c94980f09364047c7361187cc536f2ebdd",
                    "indexes" : {
                        "data" : 22,
                        "gas" : 0,
                        "value" : 0
                    },
                    "logs" : "0x1dcc4de8dec75d7aab85b567b6ccd41ad312451b948a7413f0a142fd40d49347",
                    "txbytes" : "0xf88e800a83e4e1c094b94f5374fce5edbc8e2a8697c15331677e6ebf0b80aeef000101000c020018006018601660003960186000f3ef0001010011005c0007006001600155005b60015dfff4001ba0d137f30c9f4ffb936cb194d6e95f107ede36054005466d3c0bade5761e2b6a53a068d28ae37df8adfd26ade5439b675f5f7248e6e3a140be0833d7a8835fa05101"
                },
                {
                    "hash" : "0xd745cb5f422a4a4aae8abf24999480a31a5ec477b335f52e16e8e87ca46d30f3",
                    "indexes" : {
                        "data" : 23,
                        "gas" : 0,
                        "value" : 0
                    },
                    "logs" : "0x1dcc4de8dec75d7aab85b567b6ccd41ad312451b948a7413f0a142fd40d49347",
                    "txbytes" : "0xf888800a83e4e1c094b94f5374fce5edbc8e2a8697c15331677e6ebf0b80a8ef000101000c020012006012601660003960126000f3ef000101000b0060015d00006001600155001ca0fa8cfc019cd43e54be7c3db2fd62a243dae2657dc2d6129df6816568c801f8a3a014905a49c0c2565b1bfe5a106c2aff253c6aaa33874d5327740b1d95fda6fda4"
                }
            ]
        },
        "pre" : {
            "0xa94f5374fce5edbc8e2a8697c15331677e6ebf0b" : {
                "balance" : "0x0bebc200",
                "code" : "0x",
                "nonce" : "0x00",
                "storage" : {
                }
            },
            "0xb94f5374fce5edbc8e2a8697c15331677e6ebf0b" : {
                "balance" : "0x00",
                "code" : "0x36600060003760003660006000f56000556001600155",
                "nonce" : "0x00",
                "storage" : {
                }
            }
        },
        "transaction" : {
            "data" : [
                "0xef0001010013020008005c000300f3005b6008601d60003960086000f3ef000101000100fe",
                "0xef0001010015020008005c000d5b6008601f60003960086000f35b5cffef00ef000101000100fe",
                "0xef0001010010020008005c00005b6008601a60003960086000f3ef000101000100fe",
                "0xef0001010012020008005c000300f3006008601c60003960086000f3ef000101000100fe",
                "0xef0001010014020008005c000c6008601e60003960086000f35b5cfff000ef000101000100fe",
                "0xef000101000f020008005c00006008601960003960086000f3ef000101000100fe",
                "0xef00010100150200080060015d000300f3005b6008601f60003960086000f3ef000101000100fe",
                "0xef0001010017020008005c000d5b6008602160003960086000f35b60015dffed00ef000101000100fe",
                "0xef00010100120200080060015d00005b6008601c60003960086000f3ef000101000100fe",
                "0xef00010100140200080060015d000300f3006008601e60003960086000f3ef000101000100fe",
                "0xef0001010016020008005c000c6008602060003960086000f35b60015dffee00ef000101000100fe",
                "0xef00010100110200080060015d00006008601b60003960086000f3ef000101000100fe",
                "0xef000101000c020014006014601660003960146000f3ef000101000d005c000300f3005b600160015500",
                "0xef000101000c020017006017601660003960176000f3ef0001010010005c0008005b6001600155005b5cfff500",
                "0xef000101000c020011006011601660003960116000f3ef000101000a005c00005b600160015500",
                "0xef000101000c020016006016601660003960166000f3ef000101000f0060015d000300f3005b600160015500",
                "0xef000101000c020019006019601660003960196000f3ef0001010012005c0008005b6001600155005b60015dfff300",
                "0xef000101000c020013006013601660003960136000f3ef000101000c0060015d00005b600160015500",
                "0xef000101000c020013006013601660003960136000f3ef000101000c005c000300f300600160015500",
                "0xef000101000c020016006016601660003960166000f3ef000101000f005c0007006001600155005b5cfff600",
                "0xef000101000c020010006010601660003960106000f3ef0001010009005c0000600160015500",
                "0xef000101000c020015006015601660003960156000f3ef000101000e0060015d000300f300600160015500",
                "0xef000101000c020018006018601660003960186000f3ef0001010011005c0007006001600155005b60015dfff400",
                "0xef000101000c020012006012601660003960126000f3ef000101000b0060015d0000600160015500"
            ],
            "gasLimit" : [
                "0xe4e1c0"
            ],
            "gasPrice" : "0x0a",
            "nonce" : "0x00",
            "secretKey" : "0x45a915e4d060149eb4365960e6a7a45f334393093061116b197e3240065ff2d8",
            "sender" : "0xa94f5374fce5edbc8e2a8697c15331677e6ebf0b",
            "to" : "0xb94f5374fce5edbc8e2a8697c15331677e6ebf0b",
            "value" : [
                "0x00"
            ]
        }
    }
}