{
    "sar11_d0g0v0_Byzantium" : {
        "_info" : {
            "comment" : "",
            "filledwith" : "cpp-1.3.0+commit.e327dcb7.Linux.g++",
            "lllcversion" : "Version: 0.4.22-develop.2018.3.16+commit.2b2527f3.Linux.g++",
            "source" : "src/BlockchainTestsFiller/GeneralStateTests/stShift/sar11_d0g0v0Filler.json",
            "sourceHash" : "e20f502e1d613c7451050d8d04e58973463b7fc15e366ca63b1deb49c1bff299"
        },
        "blocks" : [
            {
                "blockHeader" : {
                    "bloom" : "0x00000000000000000000000000000000000000000000000000000000000000000000000000000000000000000000000000000000000000000000000000000000000000000000000000000000000000000000000000000000000000000000000000000000000000000000000000000000000000000000000000000000000000000000000000000000000000000000000000000000000000000000000000000000000000000000000000000000000000000000000000000000000000000000000000000000000000000000000000000000000000000000000000000000000000000000000000000000000000000000000000000000000000000000000000000000",
                    "coinbase" : "0x2adc25665018aa1fe0e6bc666dac8fc2697ff9ba",
                    "difficulty" : "0x020000",
                    "extraData" : "",
                    "gasLimit" : "0x0f4240",
                    "gasUsed" : "0x061a80",
                    "hash" : "0xaf0fc7c17aca7dfa7926cd9e59b77d2f8e07eec88f58d096ec7ed8db06d8d2f3",
                    "mixHash" : "0x523b32f652b0b328b18b27866a3c616dab397de131deaf01d4d92ff579ab21dd",
                    "nonce" : "0x7030fcf191901212",
                    "number" : "0x01",
                    "parentHash" : "0xbf97d3ea7724f289696ed09488c20e69d2911ab24f8688e860db8a11a7238a57",
                    "receiptTrie" : "0xba9991e573821b0c234e361e68d2fe4b0fc940f8380d61fc18ee6ceb963b7094",
                    "stateRoot" : "0xa0ed2da8aaa4b4050f423a36566c99d5e16e53bf00653261119001f68fd2dd8e",
                    "timestamp" : "0x03e8",
                    "transactionsTrie" : "0x93ca2a18d52e7c1846f7b104e2fc1e5fdc71ebe38187248f9437d39e74f43aab",
                    "uncleHash" : "0x1dcc4de8dec75d7aab85b567b6ccd41ad312451b948a7413f0a142fd40d49347"
                },
                "rlp" : "0xf90263f901f8a0bf97d3ea7724f289696ed09488c20e69d2911ab24f8688e860db8a11a7238a57a01dcc4de8dec75d7aab85b567b6ccd41ad312451b948a7413f0a142fd40d49347942adc25665018aa1fe0e6bc666dac8fc2697ff9baa0a0ed2da8aaa4b4050f423a36566c99d5e16e53bf00653261119001f68fd2dd8ea093ca2a18d52e7c1846f7b104e2fc1e5fdc71ebe38187248f9437d39e74f43aaba0ba9991e573821b0c234e361e68d2fe4b0fc940f8380d61fc18ee6ceb963b7094b90100000000000000000000000000000000000000000000000000000000000000000000000000000000000000000000000000000000000000000000000000000000000000000000000000000000000000000000000000000000000000000000000000000000000000000000000000000000000000000000000000000000000000000000000000000000000000000000000000000000000000000000000000000000000000000000000000000000000000000000000000000000000000000000000000000000000000000000000000000000000000000000000000000000000000000000000000000000000000000000000000000000000000000000000000000000008302000001830f424083061a808203e880a0523b32f652b0b328b18b27866a3c616dab397de131deaf01d4d92ff579ab21dd887030fcf191901212f865f863800183061a8094095e7baea6a6c7c4c2dfeb977efac326af552d87830186a0801ca0e94818d1f3b0c69eb37720145a5ead7fbf6f8d80139dd53953b4a782301050a3a01fcf46908c01576715411be0857e30027d6be3250a3653f049b3ff8d74d2540cc0",
                "transactions" : [
                    {
                        "data" : "0x",
                        "gasLimit" : "0x061a80",
                        "gasPrice" : "0x01",
                        "nonce" : "0x00",
                        "r" : "0xe94818d1f3b0c69eb37720145a5ead7fbf6f8d80139dd53953b4a782301050a3",
                        "s" : "0x1fcf46908c01576715411be0857e30027d6be3250a3653f049b3ff8d74d2540c",
                        "to" : "0x095e7baea6a6c7c4c2dfeb977efac326af552d87",
                        "v" : "0x1c",
                        "value" : "0x0186a0"
                    }
                ],
                "uncleHeaders" : [
                ]
            }
        ],
        "genesisBlockHeader" : {
            "bloom" : "0x00000000000000000000000000000000000000000000000000000000000000000000000000000000000000000000000000000000000000000000000000000000000000000000000000000000000000000000000000000000000000000000000000000000000000000000000000000000000000000000000000000000000000000000000000000000000000000000000000000000000000000000000000000000000000000000000000000000000000000000000000000000000000000000000000000000000000000000000000000000000000000000000000000000000000000000000000000000000000000000000000000000000000000000000000000000",
            "coinbase" : "0x2adc25665018aa1fe0e6bc666dac8fc2697ff9ba",
            "difficulty" : "0x020000",
            "extraData" : "0x42",
            "gasLimit" : "0x0f4240",
            "gasUsed" : "0x00",
            "hash" : "0xbf97d3ea7724f289696ed09488c20e69d2911ab24f8688e860db8a11a7238a57",
            "mixHash" : "0x56e81f171bcc55a6ff8345e692c0f86e5b48e01b996cadc001622fb5e363b421",
            "nonce" : "0x0102030405060708",
            "number" : "0x00",
            "parentHash" : "0x0000000000000000000000000000000000000000000000000000000000000000",
            "receiptTrie" : "0x56e81f171bcc55a6ff8345e692c0f86e5b48e01b996cadc001622fb5e363b421",
            "stateRoot" : "0x69dca32c9807887cda17d06b5575204c45eaeb681722a37f5f2f6ffaa712dea0",
            "timestamp" : "0x03b6",
            "transactionsTrie" : "0x56e81f171bcc55a6ff8345e692c0f86e5b48e01b996cadc001622fb5e363b421",
            "uncleHash" : "0x1dcc4de8dec75d7aab85b567b6ccd41ad312451b948a7413f0a142fd40d49347"
        },
        "genesisRLP" : "0xf901faf901f5a00000000000000000000000000000000000000000000000000000000000000000a01dcc4de8dec75d7aab85b567b6ccd41ad312451b948a7413f0a142fd40d49347942adc25665018aa1fe0e6bc666dac8fc2697ff9baa069dca32c9807887cda17d06b5575204c45eaeb681722a37f5f2f6ffaa712dea0a056e81f171bcc55a6ff8345e692c0f86e5b48e01b996cadc001622fb5e363b421a056e81f171bcc55a6ff8345e692c0f86e5b48e01b996cadc001622fb5e363b421b90100000000000000000000000000000000000000000000000000000000000000000000000000000000000000000000000000000000000000000000000000000000000000000000000000000000000000000000000000000000000000000000000000000000000000000000000000000000000000000000000000000000000000000000000000000000000000000000000000000000000000000000000000000000000000000000000000000000000000000000000000000000000000000000000000000000000000000000000000000000000000000000000000000000000000000000000000000000000000000000000000000000000000000000000000000000008302000080830f4240808203b642a056e81f171bcc55a6ff8345e692c0f86e5b48e01b996cadc001622fb5e363b421880102030405060708c0c0",
        "lastblockhash" : "0xaf0fc7c17aca7dfa7926cd9e59b77d2f8e07eec88f58d096ec7ed8db06d8d2f3",
        "network" : "Byzantium",
        "postState" : {
            "0x095e7baea6a6c7c4c2dfeb977efac326af552d87" : {
                "balance" : "0x0de0b6b3a7640000",
                "code" : "0x600160011d600055",
                "nonce" : "0x00",
                "storage" : {
                    "0x00" : "0x03"
                }
            },
            "0x2adc25665018aa1fe0e6bc666dac8fc2697ff9ba" : {
                "balance" : "0x29a2241af6321a80",
                "code" : "",
                "nonce" : "0x00",
                "storage" : {
                }
            },
            "0xa94f5374fce5edbc8e2a8697c15331677e6ebf0b" : {
                "balance" : "0x0de0b6b3a75de580",
                "code" : "",
                "nonce" : "0x01",
                "storage" : {
                }
            }
        },
        "pre" : {
            "0x095e7baea6a6c7c4c2dfeb977efac326af552d87" : {
                "balance" : "0x0de0b6b3a7640000",
                "code" : "0x600160011d600055",
                "nonce" : "0x00",
                "storage" : {
                    "0x00" : "0x03"
                }
            },
            "0xa94f5374fce5edbc8e2a8697c15331677e6ebf0b" : {
                "balance" : "0x0de0b6b3a7640000",
                "code" : "",
                "nonce" : "0x00",
                "storage" : {
                }
            }
        }
    },
    "sar11_d0g0v0_Constantinople" : {
        "_info" : {
            "comment" : "",
            "filledwith" : "cpp-1.3.0+commit.e327dcb7.Linux.g++",
            "lllcversion" : "Version: 0.4.22-develop.2018.3.16+commit.2b2527f3.Linux.g++",
            "source" : "src/BlockchainTestsFiller/GeneralStateTests/stShift/sar11_d0g0v0Filler.json",
            "sourceHash" : "e20f502e1d613c7451050d8d04e58973463b7fc15e366ca63b1deb49c1bff299"
        },
        "blocks" : [
            {
                "blockHeader" : {
                    "bloom" : "0x00000000000000000000000000000000000000000000000000000000000000000000000000000000000000000000000000000000000000000000000000000000000000000000000000000000000000000000000000000000000000000000000000000000000000000000000000000000000000000000000000000000000000000000000000000000000000000000000000000000000000000000000000000000000000000000000000000000000000000000000000000000000000000000000000000000000000000000000000000000000000000000000000000000000000000000000000000000000000000000000000000000000000000000000000000000",
                    "coinbase" : "0x2adc25665018aa1fe0e6bc666dac8fc2697ff9ba",
                    "difficulty" : "0x020000",
                    "extraData" : "",
                    "gasLimit" : "0x0f4240",
                    "gasUsed" : "0x32ce",
                    "hash" : "0x57e72c227b7d66c6f35bba626e2bf3f27351d75f5f542bbc1ccbb63e906a0dd6",
                    "mixHash" : "0xe98c624afe092bd5866be5f7ad7008a07d9b71e27ef6865e27d74fb83d47e4b0",
                    "nonce" : "0xd5d1ecd5171eb669",
                    "number" : "0x01",
                    "parentHash" : "0xbf97d3ea7724f289696ed09488c20e69d2911ab24f8688e860db8a11a7238a57",
                    "receiptTrie" : "0xfd8140e3683d961b3a96b7b1f88a1f333e69daf18b210ef208c6d673634f3b5e",
                    "stateRoot" : "0x47e40adfd905b18d615827d7f458d0a862771b43d75c9ffb7d698584b11ccf04",
                    "timestamp" : "0x03e8",
                    "transactionsTrie" : "0x93ca2a18d52e7c1846f7b104e2fc1e5fdc71ebe38187248f9437d39e74f43aab",
                    "uncleHash" : "0x1dcc4de8dec75d7aab85b567b6ccd41ad312451b948a7413f0a142fd40d49347"
                },
                "rlp" : "0xf90262f901f7a0bf97d3ea7724f289696ed09488c20e69d2911ab24f8688e860db8a11a7238a57a01dcc4de8dec75d7aab85b567b6ccd41ad312451b948a7413f0a142fd40d49347942adc25665018aa1fe0e6bc666dac8fc2697ff9baa047e40adfd905b18d615827d7f458d0a862771b43d75c9ffb7d698584b11ccf04a093ca2a18d52e7c1846f7b104e2fc1e5fdc71ebe38187248f9437d39e74f43aaba0fd8140e3683d961b3a96b7b1f88a1f333e69daf18b210ef208c6d673634f3b5eb90100000000000000000000000000000000000000000000000000000000000000000000000000000000000000000000000000000000000000000000000000000000000000000000000000000000000000000000000000000000000000000000000000000000000000000000000000000000000000000000000000000000000000000000000000000000000000000000000000000000000000000000000000000000000000000000000000000000000000000000000000000000000000000000000000000000000000000000000000000000000000000000000000000000000000000000000000000000000000000000000000000000000000000000000000000000008302000001830f42408232ce8203e880a0e98c624afe092bd5866be5f7ad7008a07d9b71e27ef6865e27d74fb83d47e4b088d5d1ecd5171eb669f865f863800183061a8094095e7baea6a6c7c4c2dfeb977efac326af552d87830186a0801ca0e94818d1f3b0c69eb37720145a5ead7fbf6f8d80139dd53953b4a782301050a3a01fcf46908c01576715411be0857e30027d6be3250a3653f049b3ff8d74d2540cc0",
                "transactions" : [
                    {
                        "data" : "0x",
                        "gasLimit" : "0x061a80",
                        "gasPrice" : "0x01",
                        "nonce" : "0x00",
                        "r" : "0xe94818d1f3b0c69eb37720145a5ead7fbf6f8d80139dd53953b4a782301050a3",
                        "s" : "0x1fcf46908c01576715411be0857e30027d6be3250a3653f049b3ff8d74d2540c",
                        "to" : "0x095e7baea6a6c7c4c2dfeb977efac326af552d87",
                        "v" : "0x1c",
                        "value" : "0x0186a0"
                    }
                ],
                "uncleHeaders" : [
                ]
            }
        ],
        "genesisBlockHeader" : {
            "bloom" : "0x00000000000000000000000000000000000000000000000000000000000000000000000000000000000000000000000000000000000000000000000000000000000000000000000000000000000000000000000000000000000000000000000000000000000000000000000000000000000000000000000000000000000000000000000000000000000000000000000000000000000000000000000000000000000000000000000000000000000000000000000000000000000000000000000000000000000000000000000000000000000000000000000000000000000000000000000000000000000000000000000000000000000000000000000000000000",
            "coinbase" : "0x2adc25665018aa1fe0e6bc666dac8fc2697ff9ba",
            "difficulty" : "0x020000",
            "extraData" : "0x42",
            "gasLimit" : "0x0f4240",
            "gasUsed" : "0x00",
            "hash" : "0xbf97d3ea7724f289696ed09488c20e69d2911ab24f8688e860db8a11a7238a57",
            "mixHash" : "0x56e81f171bcc55a6ff8345e692c0f86e5b48e01b996cadc001622fb5e363b421",
            "nonce" : "0x0102030405060708",
            "number" : "0x00",
            "parentHash" : "0x0000000000000000000000000000000000000000000000000000000000000000",
            "receiptTrie" : "0x56e81f171bcc55a6ff8345e692c0f86e5b48e01b996cadc001622fb5e363b421",
            "stateRoot" : "0x69dca32c9807887cda17d06b5575204c45eaeb681722a37f5f2f6ffaa712dea0",
            "timestamp" : "0x03b6",
            "transactionsTrie" : "0x56e81f171bcc55a6ff8345e692c0f86e5b48e01b996cadc001622fb5e363b421",
            "uncleHash" : "0x1dcc4de8dec75d7aab85b567b6ccd41ad312451b948a7413f0a142fd40d49347"
        },
        "genesisRLP" : "0xf901faf901f5a00000000000000000000000000000000000000000000000000000000000000000a01dcc4de8dec75d7aab85b567b6ccd41ad312451b948a7413f0a142fd40d49347942adc25665018aa1fe0e6bc666dac8fc2697ff9baa069dca32c9807887cda17d06b5575204c45eaeb681722a37f5f2f6ffaa712dea0a056e81f171bcc55a6ff8345e692c0f86e5b48e01b996cadc001622fb5e363b421a056e81f171bcc55a6ff8345e692c0f86e5b48e01b996cadc001622fb5e363b421b90100000000000000000000000000000000000000000000000000000000000000000000000000000000000000000000000000000000000000000000000000000000000000000000000000000000000000000000000000000000000000000000000000000000000000000000000000000000000000000000000000000000000000000000000000000000000000000000000000000000000000000000000000000000000000000000000000000000000000000000000000000000000000000000000000000000000000000000000000000000000000000000000000000000000000000000000000000000000000000000000000000000000000000000000000000000008302000080830f4240808203b642a056e81f171bcc55a6ff8345e692c0f86e5b48e01b996cadc001622fb5e363b421880102030405060708c0c0",
        "lastblockhash" : "0x57e72c227b7d66c6f35bba626e2bf3f27351d75f5f542bbc1ccbb63e906a0dd6",
        "network" : "Constantinople",
        "postState" : {
            "0x095e7baea6a6c7c4c2dfeb977efac326af552d87" : {
                "balance" : "0x0de0b6b3a76586a0",
                "code" : "0x600160011d600055",
                "nonce" : "0x00",
                "storage" : {
                }
            },
            "0x2adc25665018aa1fe0e6bc666dac8fc2697ff9ba" : {
                "balance" : "0x29a2241af62c32ce",
                "code" : "",
                "nonce" : "0x00",
                "storage" : {
                }
            },
            "0xa94f5374fce5edbc8e2a8697c15331677e6ebf0b" : {
                "balance" : "0x0de0b6b3a7624692",
                "code" : "",
                "nonce" : "0x01",
                "storage" : {
                }
            }
        },
        "pre" : {
            "0x095e7baea6a6c7c4c2dfeb977efac326af552d87" : {
                "balance" : "0x0de0b6b3a7640000",
                "code" : "0x600160011d600055",
                "nonce" : "0x00",
                "storage" : {
                    "0x00" : "0x03"
                }
            },
            "0xa94f5374fce5edbc8e2a8697c15331677e6ebf0b" : {
                "balance" : "0x0de0b6b3a7640000",
                "code" : "",
                "nonce" : "0x00",
                "storage" : {
                }
            }
        }
    },
    "sar11_d0g0v0_EIP150" : {
        "_info" : {
            "comment" : "",
            "filledwith" : "cpp-1.3.0+commit.e327dcb7.Linux.g++",
            "lllcversion" : "Version: 0.4.22-develop.2018.3.16+commit.2b2527f3.Linux.g++",
            "source" : "src/BlockchainTestsFiller/GeneralStateTests/stShift/sar11_d0g0v0Filler.json",
            "sourceHash" : "e20f502e1d613c7451050d8d04e58973463b7fc15e366ca63b1deb49c1bff299"
        },
        "blocks" : [
            {
                "blockHeader" : {
                    "bloom" : "0x00000000000000000000000000000000000000000000000000000000000000000000000000000000000000000000000000000000000000000000000000000000000000000000000000000000000000000000000000000000000000000000000000000000000000000000000000000000000000000000000000000000000000000000000000000000000000000000000000000000000000000000000000000000000000000000000000000000000000000000000000000000000000000000000000000000000000000000000000000000000000000000000000000000000000000000000000000000000000000000000000000000000000000000000000000000",
                    "coinbase" : "0x2adc25665018aa1fe0e6bc666dac8fc2697ff9ba",
                    "difficulty" : "0x020000",
                    "extraData" : "",
                    "gasLimit" : "0x0f4240",
                    "gasUsed" : "0x061a80",
                    "hash" : "0x8de589875fe378ddf12764151f3489df0375f11c737afbb646d4574f1292b8b0",
                    "mixHash" : "0x88d36fcdb3dd3194b9ad4efa0bfaec8b75c059bb1eea7f531153f403165128a4",
                    "nonce" : "0x49339c3d47dff579",
                    "number" : "0x01",
                    "parentHash" : "0xbf97d3ea7724f289696ed09488c20e69d2911ab24f8688e860db8a11a7238a57",
                    "receiptTrie" : "0x5c44ad056bc781d0b3c1bf6c672161eea7d50a6e798885bf6b075d002fdb5c74",
                    "stateRoot" : "0xfe57667ac0475d5c15de414f721df413ce1525a217d03a7e3ced619631a28b78",
                    "timestamp" : "0x03e8",
                    "transactionsTrie" : "0x93ca2a18d52e7c1846f7b104e2fc1e5fdc71ebe38187248f9437d39e74f43aab",
                    "uncleHash" : "0x1dcc4de8dec75d7aab85b567b6ccd41ad312451b948a7413f0a142fd40d49347"
                },
                "rlp" : "0xf90263f901f8a0bf97d3ea7724f289696ed09488c20e69d2911ab24f8688e860db8a11a7238a57a01dcc4de8dec75d7aab85b567b6ccd41ad312451b948a7413f0a142fd40d49347942adc25665018aa1fe0e6bc666dac8fc2697ff9baa0fe57667ac0475d5c15de414f721df413ce1525a217d03a7e3ced619631a28b78a093ca2a18d52e7c1846f7b104e2fc1e5fdc71ebe38187248f9437d39e74f43aaba05c44ad056bc781d0b3c1bf6c672161eea7d50a6e798885bf6b075d002fdb5c74b90100000000000000000000000000000000000000000000000000000000000000000000000000000000000000000000000000000000000000000000000000000000000000000000000000000000000000000000000000000000000000000000000000000000000000000000000000000000000000000000000000000000000000000000000000000000000000000000000000000000000000000000000000000000000000000000000000000000000000000000000000000000000000000000000000000000000000000000000000000000000000000000000000000000000000000000000000000000000000000000000000000000000000000000000000000000008302000001830f424083061a808203e880a088d36fcdb3dd3194b9ad4efa0bfaec8b75c059bb1eea7f531153f403165128a48849339c3d47dff579f865f863800183061a8094095e7baea6a6c7c4c2dfeb977efac326af552d87830186a0801ca0e94818d1f3b0c69eb37720145a5ead7fbf6f8d80139dd53953b4a782301050a3a01fcf46908c01576715411be0857e30027d6be3250a3653f049b3ff8d74d2540cc0",
                "transactions" : [
                    {
                        "data" : "0x",
                        "gasLimit" : "0x061a80",
                        "gasPrice" : "0x01",
                        "nonce" : "0x00",
                        "r" : "0xe94818d1f3b0c69eb37720145a5ead7fbf6f8d80139dd53953b4a782301050a3",
                        "s" : "0x1fcf46908c01576715411be0857e30027d6be3250a3653f049b3ff8d74d2540c",
                        "to" : "0x095e7baea6a6c7c4c2dfeb977efac326af552d87",
                        "v" : "0x1c",
                        "value" : "0x0186a0"
                    }
                ],
                "uncleHeaders" : [
                ]
            }
        ],
        "genesisBlockHeader" : {
            "bloom" : "0x00000000000000000000000000000000000000000000000000000000000000000000000000000000000000000000000000000000000000000000000000000000000000000000000000000000000000000000000000000000000000000000000000000000000000000000000000000000000000000000000000000000000000000000000000000000000000000000000000000000000000000000000000000000000000000000000000000000000000000000000000000000000000000000000000000000000000000000000000000000000000000000000000000000000000000000000000000000000000000000000000000000000000000000000000000000",
            "coinbase" : "0x2adc25665018aa1fe0e6bc666dac8fc2697ff9ba",
            "difficulty" : "0x020000",
            "extraData" : "0x42",
            "gasLimit" : "0x0f4240",
            "gasUsed" : "0x00",
            "hash" : "0xbf97d3ea7724f289696ed09488c20e69d2911ab24f8688e860db8a11a7238a57",
            "mixHash" : "0x56e81f171bcc55a6ff8345e692c0f86e5b48e01b996cadc001622fb5e363b421",
            "nonce" : "0x0102030405060708",
            "number" : "0x00",
            "parentHash" : "0x0000000000000000000000000000000000000000000000000000000000000000",
            "receiptTrie" : "0x56e81f171bcc55a6ff8345e692c0f86e5b48e01b996cadc001622fb5e363b421",
            "stateRoot" : "0x69dca32c9807887cda17d06b5575204c45eaeb681722a37f5f2f6ffaa712dea0",
            "timestamp" : "0x03b6",
            "transactionsTrie" : "0x56e81f171bcc55a6ff8345e692c0f86e5b48e01b996cadc001622fb5e363b421",
            "uncleHash" : "0x1dcc4de8dec75d7aab85b567b6ccd41ad312451b948a7413f0a142fd40d49347"
        },
        "genesisRLP" : "0xf901faf901f5a00000000000000000000000000000000000000000000000000000000000000000a01dcc4de8dec75d7aab85b567b6ccd41ad312451b948a7413f0a142fd40d49347942adc25665018aa1fe0e6bc666dac8fc2697ff9baa069dca32c9807887cda17d06b5575204c45eaeb681722a37f5f2f6ffaa712dea0a056e81f171bcc55a6ff8345e692c0f86e5b48e01b996cadc001622fb5e363b421a056e81f171bcc55a6ff8345e692c0f86e5b48e01b996cadc001622fb5e363b421b90100000000000000000000000000000000000000000000000000000000000000000000000000000000000000000000000000000000000000000000000000000000000000000000000000000000000000000000000000000000000000000000000000000000000000000000000000000000000000000000000000000000000000000000000000000000000000000000000000000000000000000000000000000000000000000000000000000000000000000000000000000000000000000000000000000000000000000000000000000000000000000000000000000000000000000000000000000000000000000000000000000000000000000000000000000000008302000080830f4240808203b642a056e81f171bcc55a6ff8345e692c0f86e5b48e01b996cadc001622fb5e363b421880102030405060708c0c0",
        "lastblockhash" : "0x8de589875fe378ddf12764151f3489df0375f11c737afbb646d4574f1292b8b0",
        "network" : "EIP150",
        "postState" : {
            "0x095e7baea6a6c7c4c2dfeb977efac326af552d87" : {
                "balance" : "0x0de0b6b3a7640000",
                "code" : "0x600160011d600055",
                "nonce" : "0x00",
                "storage" : {
                    "0x00" : "0x03"
                }
            },
            "0x2adc25665018aa1fe0e6bc666dac8fc2697ff9ba" : {
                "balance" : "0x4563918244fa1a80",
                "code" : "",
                "nonce" : "0x00",
                "storage" : {
                }
            },
            "0xa94f5374fce5edbc8e2a8697c15331677e6ebf0b" : {
                "balance" : "0x0de0b6b3a75de580",
                "code" : "",
                "nonce" : "0x01",
                "storage" : {
                }
            }
        },
        "pre" : {
            "0x095e7baea6a6c7c4c2dfeb977efac326af552d87" : {
                "balance" : "0x0de0b6b3a7640000",
                "code" : "0x600160011d600055",
                "nonce" : "0x00",
                "storage" : {
                    "0x00" : "0x03"
                }
            },
            "0xa94f5374fce5edbc8e2a8697c15331677e6ebf0b" : {
                "balance" : "0x0de0b6b3a7640000",
                "code" : "",
                "nonce" : "0x00",
                "storage" : {
                }
            }
        }
    },
    "sar11_d0g0v0_EIP158" : {
        "_info" : {
            "comment" : "",
            "filledwith" : "cpp-1.3.0+commit.e327dcb7.Linux.g++",
            "lllcversion" : "Version: 0.4.22-develop.2018.3.16+commit.2b2527f3.Linux.g++",
            "source" : "src/BlockchainTestsFiller/GeneralStateTests/stShift/sar11_d0g0v0Filler.json",
            "sourceHash" : "e20f502e1d613c7451050d8d04e58973463b7fc15e366ca63b1deb49c1bff299"
        },
        "blocks" : [
            {
                "blockHeader" : {
                    "bloom" : "0x00000000000000000000000000000000000000000000000000000000000000000000000000000000000000000000000000000000000000000000000000000000000000000000000000000000000000000000000000000000000000000000000000000000000000000000000000000000000000000000000000000000000000000000000000000000000000000000000000000000000000000000000000000000000000000000000000000000000000000000000000000000000000000000000000000000000000000000000000000000000000000000000000000000000000000000000000000000000000000000000000000000000000000000000000000000",
                    "coinbase" : "0x2adc25665018aa1fe0e6bc666dac8fc2697ff9ba",
                    "difficulty" : "0x020000",
                    "extraData" : "",
                    "gasLimit" : "0x0f4240",
                    "gasUsed" : "0x061a80",
                    "hash" : "0xaff3285634b4ad16462a919e350334a836e9489fb5a76d9bc3d4b93f9a751ea7",
                    "mixHash" : "0x8cce4cfe9d88385514c5b33385695dda4ce2e66d83734a0ed4817d0cc7320830",
                    "nonce" : "0xcb3436011a3f5b99",
                    "number" : "0x01",
                    "parentHash" : "0xbf97d3ea7724f289696ed09488c20e69d2911ab24f8688e860db8a11a7238a57",
                    "receiptTrie" : "0x5c44ad056bc781d0b3c1bf6c672161eea7d50a6e798885bf6b075d002fdb5c74",
                    "stateRoot" : "0xfe57667ac0475d5c15de414f721df413ce1525a217d03a7e3ced619631a28b78",
                    "timestamp" : "0x03e8",
                    "transactionsTrie" : "0x93ca2a18d52e7c1846f7b104e2fc1e5fdc71ebe38187248f9437d39e74f43aab",
                    "uncleHash" : "0x1dcc4de8dec75d7aab85b567b6ccd41ad312451b948a7413f0a142fd40d49347"
                },
                "rlp" : "0xf90263f901f8a0bf97d3ea7724f289696ed09488c20e69d2911ab24f8688e860db8a11a7238a57a01dcc4de8dec75d7aab85b567b6ccd41ad312451b948a7413f0a142fd40d49347942adc25665018aa1fe0e6bc666dac8fc2697ff9baa0fe57667ac0475d5c15de414f721df413ce1525a217d03a7e3ced619631a28b78a093ca2a18d52e7c1846f7b104e2fc1e5fdc71ebe38187248f9437d39e74f43aaba05c44ad056bc781d0b3c1bf6c672161eea7d50a6e798885bf6b075d002fdb5c74b90100000000000000000000000000000000000000000000000000000000000000000000000000000000000000000000000000000000000000000000000000000000000000000000000000000000000000000000000000000000000000000000000000000000000000000000000000000000000000000000000000000000000000000000000000000000000000000000000000000000000000000000000000000000000000000000000000000000000000000000000000000000000000000000000000000000000000000000000000000000000000000000000000000000000000000000000000000000000000000000000000000000000000000000000000000000008302000001830f424083061a808203e880a08cce4cfe9d88385514c5b33385695dda4ce2e66d83734a0ed4817d0cc732083088cb3436011a3f5b99f865f863800183061a8094095e7baea6a6c7c4c2dfeb977efac326af552d87830186a0801ca0e94818d1f3b0c69eb37720145a5ead7fbf6f8d80139dd53953b4a782301050a3a01fcf46908c01576715411be0857e30027d6be3250a3653f049b3ff8d74d2540cc0",
                "transactions" : [
                    {
                        "data" : "0x",
                        "gasLimit" : "0x061a80",
                        "gasPrice" : "0x01",
                        "nonce" : "0x00",
                        "r" : "0xe94818d1f3b0c69eb37720145a5ead7fbf6f8d80139dd53953b4a782301050a3",
                        "s" : "0x1fcf46908c01576715411be0857e30027d6be3250a3653f049b3ff8d74d2540c",
                        "to" : "0x095e7baea6a6c7c4c2dfeb977efac326af552d87",
                        "v" : "0x1c",
                        "value" : "0x0186a0"
                    }
                ],
                "uncleHeaders" : [
                ]
            }
        ],
        "genesisBlockHeader" : {
            "bloom" : "0x00000000000000000000000000000000000000000000000000000000000000000000000000000000000000000000000000000000000000000000000000000000000000000000000000000000000000000000000000000000000000000000000000000000000000000000000000000000000000000000000000000000000000000000000000000000000000000000000000000000000000000000000000000000000000000000000000000000000000000000000000000000000000000000000000000000000000000000000000000000000000000000000000000000000000000000000000000000000000000000000000000000000000000000000000000000",
            "coinbase" : "0x2adc25665018aa1fe0e6bc666dac8fc2697ff9ba",
            "difficulty" : "0x020000",
            "extraData" : "0x42",
            "gasLimit" : "0x0f4240",
            "gasUsed" : "0x00",
            "hash" : "0xbf97d3ea7724f289696ed09488c20e69d2911ab24f8688e860db8a11a7238a57",
            "mixHash" : "0x56e81f171bcc55a6ff8345e692c0f86e5b48e01b996cadc001622fb5e363b421",
            "nonce" : "0x0102030405060708",
            "number" : "0x00",
            "parentHash" : "0x0000000000000000000000000000000000000000000000000000000000000000",
            "receiptTrie" : "0x56e81f171bcc55a6ff8345e692c0f86e5b48e01b996cadc001622fb5e363b421",
            "stateRoot" : "0x69dca32c9807887cda17d06b5575204c45eaeb681722a37f5f2f6ffaa712dea0",
            "timestamp" : "0x03b6",
            "transactionsTrie" : "0x56e81f171bcc55a6ff8345e692c0f86e5b48e01b996cadc001622fb5e363b421",
            "uncleHash" : "0x1dcc4de8dec75d7aab85b567b6ccd41ad312451b948a7413f0a142fd40d49347"
        },
        "genesisRLP" : "0xf901faf901f5a00000000000000000000000000000000000000000000000000000000000000000a01dcc4de8dec75d7aab85b567b6ccd41ad312451b948a7413f0a142fd40d49347942adc25665018aa1fe0e6bc666dac8fc2697ff9baa069dca32c9807887cda17d06b5575204c45eaeb681722a37f5f2f6ffaa712dea0a056e81f171bcc55a6ff8345e692c0f86e5b48e01b996cadc001622fb5e363b421a056e81f171bcc55a6ff8345e692c0f86e5b48e01b996cadc001622fb5e363b421b90100000000000000000000000000000000000000000000000000000000000000000000000000000000000000000000000000000000000000000000000000000000000000000000000000000000000000000000000000000000000000000000000000000000000000000000000000000000000000000000000000000000000000000000000000000000000000000000000000000000000000000000000000000000000000000000000000000000000000000000000000000000000000000000000000000000000000000000000000000000000000000000000000000000000000000000000000000000000000000000000000000000000000000000000000000000008302000080830f4240808203b642a056e81f171bcc55a6ff8345e692c0f86e5b48e01b996cadc001622fb5e363b421880102030405060708c0c0",
        "lastblockhash" : "0xaff3285634b4ad16462a919e350334a836e9489fb5a76d9bc3d4b93f9a751ea7",
        "network" : "EIP158",
        "postState" : {
            "0x095e7baea6a6c7c4c2dfeb977efac326af552d87" : {
                "balance" : "0x0de0b6b3a7640000",
                "code" : "0x600160011d600055",
                "nonce" : "0x00",
                "storage" : {
                    "0x00" : "0x03"
                }
            },
            "0x2adc25665018aa1fe0e6bc666dac8fc2697ff9ba" : {
                "balance" : "0x4563918244fa1a80",
                "code" : "",
                "nonce" : "0x00",
                "storage" : {
                }
            },
            "0xa94f5374fce5edbc8e2a8697c15331677e6ebf0b" : {
                "balance" : "0x0de0b6b3a75de580",
                "code" : "",
                "nonce" : "0x01",
                "storage" : {
                }
            }
        },
        "pre" : {
            "0x095e7baea6a6c7c4c2dfeb977efac326af552d87" : {
                "balance" : "0x0de0b6b3a7640000",
                "code" : "0x600160011d600055",
                "nonce" : "0x00",
                "storage" : {
                    "0x00" : "0x03"
                }
            },
            "0xa94f5374fce5edbc8e2a8697c15331677e6ebf0b" : {
                "balance" : "0x0de0b6b3a7640000",
                "code" : "",
                "nonce" : "0x00",
                "storage" : {
                }
            }
        }
    },
    "sar11_d0g0v0_Frontier" : {
        "_info" : {
            "comment" : "",
            "filledwith" : "cpp-1.3.0+commit.e327dcb7.Linux.g++",
            "lllcversion" : "Version: 0.4.22-develop.2018.3.16+commit.2b2527f3.Linux.g++",
            "source" : "src/BlockchainTestsFiller/GeneralStateTests/stShift/sar11_d0g0v0Filler.json",
            "sourceHash" : "e20f502e1d613c7451050d8d04e58973463b7fc15e366ca63b1deb49c1bff299"
        },
        "blocks" : [
            {
                "blockHeader" : {
                    "bloom" : "0x00000000000000000000000000000000000000000000000000000000000000000000000000000000000000000000000000000000000000000000000000000000000000000000000000000000000000000000000000000000000000000000000000000000000000000000000000000000000000000000000000000000000000000000000000000000000000000000000000000000000000000000000000000000000000000000000000000000000000000000000000000000000000000000000000000000000000000000000000000000000000000000000000000000000000000000000000000000000000000000000000000000000000000000000000000000",
                    "coinbase" : "0x2adc25665018aa1fe0e6bc666dac8fc2697ff9ba",
                    "difficulty" : "0x020000",
                    "extraData" : "",
                    "gasLimit" : "0x0f4240",
                    "gasUsed" : "0x061a80",
                    "hash" : "0x4550d2712754c5726df3284492f2f7b4c2528d7a616ec0fcdf10ae2395651436",
                    "mixHash" : "0xf58ea8069459d516968a8e3d16e77ce0bcb7ab5dabc22004693c2d6dc3fe472a",
                    "nonce" : "0x8298732738688a40",
                    "number" : "0x01",
                    "parentHash" : "0xbf97d3ea7724f289696ed09488c20e69d2911ab24f8688e860db8a11a7238a57",
                    "receiptTrie" : "0x5c44ad056bc781d0b3c1bf6c672161eea7d50a6e798885bf6b075d002fdb5c74",
                    "stateRoot" : "0xfe57667ac0475d5c15de414f721df413ce1525a217d03a7e3ced619631a28b78",
                    "timestamp" : "0x03e8",
                    "transactionsTrie" : "0x93ca2a18d52e7c1846f7b104e2fc1e5fdc71ebe38187248f9437d39e74f43aab",
                    "uncleHash" : "0x1dcc4de8dec75d7aab85b567b6ccd41ad312451b948a7413f0a142fd40d49347"
                },
                "rlp" : "0xf90263f901f8a0bf97d3ea7724f289696ed09488c20e69d2911ab24f8688e860db8a11a7238a57a01dcc4de8dec75d7aab85b567b6ccd41ad312451b948a7413f0a142fd40d49347942adc25665018aa1fe0e6bc666dac8fc2697ff9baa0fe57667ac0475d5c15de414f721df413ce1525a217d03a7e3ced619631a28b78a093ca2a18d52e7c1846f7b104e2fc1e5fdc71ebe38187248f9437d39e74f43aaba05c44ad056bc781d0b3c1bf6c672161eea7d50a6e798885bf6b075d002fdb5c74b90100000000000000000000000000000000000000000000000000000000000000000000000000000000000000000000000000000000000000000000000000000000000000000000000000000000000000000000000000000000000000000000000000000000000000000000000000000000000000000000000000000000000000000000000000000000000000000000000000000000000000000000000000000000000000000000000000000000000000000000000000000000000000000000000000000000000000000000000000000000000000000000000000000000000000000000000000000000000000000000000000000000000000000000000000000000008302000001830f424083061a808203e880a0f58ea8069459d516968a8e3d16e77ce0bcb7ab5dabc22004693c2d6dc3fe472a888298732738688a40f865f863800183061a8094095e7baea6a6c7c4c2dfeb977efac326af552d87830186a0801ca0e94818d1f3b0c69eb37720145a5ead7fbf6f8d80139dd53953b4a782301050a3a01fcf46908c01576715411be0857e30027d6be3250a3653f049b3ff8d74d2540cc0",
                "transactions" : [
                    {
                        "data" : "0x",
                        "gasLimit" : "0x061a80",
                        "gasPrice" : "0x01",
                        "nonce" : "0x00",
                        "r" : "0xe94818d1f3b0c69eb37720145a5ead7fbf6f8d80139dd53953b4a782301050a3",
                        "s" : "0x1fcf46908c01576715411be0857e30027d6be3250a3653f049b3ff8d74d2540c",
                        "to" : "0x095e7baea6a6c7c4c2dfeb977efac326af552d87",
                        "v" : "0x1c",
                        "value" : "0x0186a0"
                    }
                ],
                "uncleHeaders" : [
                ]
            }
        ],
        "genesisBlockHeader" : {
            "bloom" : "0x00000000000000000000000000000000000000000000000000000000000000000000000000000000000000000000000000000000000000000000000000000000000000000000000000000000000000000000000000000000000000000000000000000000000000000000000000000000000000000000000000000000000000000000000000000000000000000000000000000000000000000000000000000000000000000000000000000000000000000000000000000000000000000000000000000000000000000000000000000000000000000000000000000000000000000000000000000000000000000000000000000000000000000000000000000000",
            "coinbase" : "0x2adc25665018aa1fe0e6bc666dac8fc2697ff9ba",
            "difficulty" : "0x020000",
            "extraData" : "0x42",
            "gasLimit" : "0x0f4240",
            "gasUsed" : "0x00",
            "hash" : "0xbf97d3ea7724f289696ed09488c20e69d2911ab24f8688e860db8a11a7238a57",
            "mixHash" : "0x56e81f171bcc55a6ff8345e692c0f86e5b48e01b996cadc001622fb5e363b421",
            "nonce" : "0x0102030405060708",
            "number" : "0x00",
            "parentHash" : "0x0000000000000000000000000000000000000000000000000000000000000000",
            "receiptTrie" : "0x56e81f171bcc55a6ff8345e692c0f86e5b48e01b996cadc001622fb5e363b421",
            "stateRoot" : "0x69dca32c9807887cda17d06b5575204c45eaeb681722a37f5f2f6ffaa712dea0",
            "timestamp" : "0x03b6",
            "transactionsTrie" : "0x56e81f171bcc55a6ff8345e692c0f86e5b48e01b996cadc001622fb5e363b421",
            "uncleHash" : "0x1dcc4de8dec75d7aab85b567b6ccd41ad312451b948a7413f0a142fd40d49347"
        },
        "genesisRLP" : "0xf901faf901f5a00000000000000000000000000000000000000000000000000000000000000000a01dcc4de8dec75d7aab85b567b6ccd41ad312451b948a7413f0a142fd40d49347942adc25665018aa1fe0e6bc666dac8fc2697ff9baa069dca32c9807887cda17d06b5575204c45eaeb681722a37f5f2f6ffaa712dea0a056e81f171bcc55a6ff8345e692c0f86e5b48e01b996cadc001622fb5e363b421a056e81f171bcc55a6ff8345e692c0f86e5b48e01b996cadc001622fb5e363b421b90100000000000000000000000000000000000000000000000000000000000000000000000000000000000000000000000000000000000000000000000000000000000000000000000000000000000000000000000000000000000000000000000000000000000000000000000000000000000000000000000000000000000000000000000000000000000000000000000000000000000000000000000000000000000000000000000000000000000000000000000000000000000000000000000000000000000000000000000000000000000000000000000000000000000000000000000000000000000000000000000000000000000000000000000000000000008302000080830f4240808203b642a056e81f171bcc55a6ff8345e692c0f86e5b48e01b996cadc001622fb5e363b421880102030405060708c0c0",
        "lastblockhash" : "0x4550d2712754c5726df3284492f2f7b4c2528d7a616ec0fcdf10ae2395651436",
        "network" : "Frontier",
        "postState" : {
            "0x095e7baea6a6c7c4c2dfeb977efac326af552d87" : {
                "balance" : "0x0de0b6b3a7640000",
                "code" : "0x600160011d600055",
                "nonce" : "0x00",
                "storage" : {
                    "0x00" : "0x03"
                }
            },
            "0x2adc25665018aa1fe0e6bc666dac8fc2697ff9ba" : {
                "balance" : "0x4563918244fa1a80",
                "code" : "",
                "nonce" : "0x00",
                "storage" : {
                }
            },
            "0xa94f5374fce5edbc8e2a8697c15331677e6ebf0b" : {
                "balance" : "0x0de0b6b3a75de580",
                "code" : "",
                "nonce" : "0x01",
                "storage" : {
                }
            }
        },
        "pre" : {
            "0x095e7baea6a6c7c4c2dfeb977efac326af552d87" : {
                "balance" : "0x0de0b6b3a7640000",
                "code" : "0x600160011d600055",
                "nonce" : "0x00",
                "storage" : {
                    "0x00" : "0x03"
                }
            },
            "0xa94f5374fce5edbc8e2a8697c15331677e6ebf0b" : {
                "balance" : "0x0de0b6b3a7640000",
                "code" : "",
                "nonce" : "0x00",
                "storage" : {
                }
            }
        }
    },
    "sar11_d0g0v0_Homestead" : {
        "_info" : {
            "comment" : "",
            "filledwith" : "cpp-1.3.0+commit.e327dcb7.Linux.g++",
            "lllcversion" : "Version: 0.4.22-develop.2018.3.16+commit.2b2527f3.Linux.g++",
            "source" : "src/BlockchainTestsFiller/GeneralStateTests/stShift/sar11_d0g0v0Filler.json",
            "sourceHash" : "e20f502e1d613c7451050d8d04e58973463b7fc15e366ca63b1deb49c1bff299"
        },
        "blocks" : [
            {
                "blockHeader" : {
                    "bloom" : "0x00000000000000000000000000000000000000000000000000000000000000000000000000000000000000000000000000000000000000000000000000000000000000000000000000000000000000000000000000000000000000000000000000000000000000000000000000000000000000000000000000000000000000000000000000000000000000000000000000000000000000000000000000000000000000000000000000000000000000000000000000000000000000000000000000000000000000000000000000000000000000000000000000000000000000000000000000000000000000000000000000000000000000000000000000000000",
                    "coinbase" : "0x2adc25665018aa1fe0e6bc666dac8fc2697ff9ba",
                    "difficulty" : "0x020000",
                    "extraData" : "",
                    "gasLimit" : "0x0f4240",
                    "gasUsed" : "0x061a80",
                    "hash" : "0xa6c6b82b3ae576fe7a03385f3e7f06a0a109117378f98bc3768552c666d8460e",
                    "mixHash" : "0xe3aa9df915cf833f55c1bf5093c1ea441a08ec50a91908a5ebff05e2f91be115",
                    "nonce" : "0xd794c7659095e561",
                    "number" : "0x01",
                    "parentHash" : "0xbf97d3ea7724f289696ed09488c20e69d2911ab24f8688e860db8a11a7238a57",
                    "receiptTrie" : "0x5c44ad056bc781d0b3c1bf6c672161eea7d50a6e798885bf6b075d002fdb5c74",
                    "stateRoot" : "0xfe57667ac0475d5c15de414f721df413ce1525a217d03a7e3ced619631a28b78",
                    "timestamp" : "0x03e8",
                    "transactionsTrie" : "0x93ca2a18d52e7c1846f7b104e2fc1e5fdc71ebe38187248f9437d39e74f43aab",
                    "uncleHash" : "0x1dcc4de8dec75d7aab85b567b6ccd41ad312451b948a7413f0a142fd40d49347"
                },
                "rlp" : "0xf90263f901f8a0bf97d3ea7724f289696ed09488c20e69d2911ab24f8688e860db8a11a7238a57a01dcc4de8dec75d7aab85b567b6ccd41ad312451b948a7413f0a142fd40d49347942adc25665018aa1fe0e6bc666dac8fc2697ff9baa0fe57667ac0475d5c15de414f721df413ce1525a217d03a7e3ced619631a28b78a093ca2a18d52e7c1846f7b104e2fc1e5fdc71ebe38187248f9437d39e74f43aaba05c44ad056bc781d0b3c1bf6c672161eea7d50a6e798885bf6b075d002fdb5c74b90100000000000000000000000000000000000000000000000000000000000000000000000000000000000000000000000000000000000000000000000000000000000000000000000000000000000000000000000000000000000000000000000000000000000000000000000000000000000000000000000000000000000000000000000000000000000000000000000000000000000000000000000000000000000000000000000000000000000000000000000000000000000000000000000000000000000000000000000000000000000000000000000000000000000000000000000000000000000000000000000000000000000000000000000000000000008302000001830f424083061a808203e880a0e3aa9df915cf833f55c1bf5093c1ea441a08ec50a91908a5ebff05e2f91be11588d794c7659095e561f865f863800183061a8094095e7baea6a6c7c4c2dfeb977efac326af552d87830186a0801ca0e94818d1f3b0c69eb37720145a5ead7fbf6f8d80139dd53953b4a782301050a3a01fcf46908c01576715411be0857e30027d6be3250a3653f049b3ff8d74d2540cc0",
                "transactions" : [
                    {
                        "data" : "0x",
                        "gasLimit" : "0x061a80",
                        "gasPrice" : "0x01",
                        "nonce" : "0x00",
                        "r" : "0xe94818d1f3b0c69eb37720145a5ead7fbf6f8d80139dd53953b4a782301050a3",
                        "s" : "0x1fcf46908c01576715411be0857e30027d6be3250a3653f049b3ff8d74d2540c",
                        "to" : "0x095e7baea6a6c7c4c2dfeb977efac326af552d87",
                        "v" : "0x1c",
                        "value" : "0x0186a0"
                    }
                ],
                "uncleHeaders" : [
                ]
            }
        ],
        "genesisBlockHeader" : {
            "bloom" : "0x00000000000000000000000000000000000000000000000000000000000000000000000000000000000000000000000000000000000000000000000000000000000000000000000000000000000000000000000000000000000000000000000000000000000000000000000000000000000000000000000000000000000000000000000000000000000000000000000000000000000000000000000000000000000000000000000000000000000000000000000000000000000000000000000000000000000000000000000000000000000000000000000000000000000000000000000000000000000000000000000000000000000000000000000000000000",
            "coinbase" : "0x2adc25665018aa1fe0e6bc666dac8fc2697ff9ba",
            "difficulty" : "0x020000",
            "extraData" : "0x42",
            "gasLimit" : "0x0f4240",
            "gasUsed" : "0x00",
            "hash" : "0xbf97d3ea7724f289696ed09488c20e69d2911ab24f8688e860db8a11a7238a57",
            "mixHash" : "0x56e81f171bcc55a6ff8345e692c0f86e5b48e01b996cadc001622fb5e363b421",
            "nonce" : "0x0102030405060708",
            "number" : "0x00",
            "parentHash" : "0x0000000000000000000000000000000000000000000000000000000000000000",
            "receiptTrie" : "0x56e81f171bcc55a6ff8345e692c0f86e5b48e01b996cadc001622fb5e363b421",
            "stateRoot" : "0x69dca32c9807887cda17d06b5575204c45eaeb681722a37f5f2f6ffaa712dea0",
            "timestamp" : "0x03b6",
            "transactionsTrie" : "0x56e81f171bcc55a6ff8345e692c0f86e5b48e01b996cadc001622fb5e363b421",
            "uncleHash" : "0x1dcc4de8dec75d7aab85b567b6ccd41ad312451b948a7413f0a142fd40d49347"
        },
        "genesisRLP" : "0xf901faf901f5a00000000000000000000000000000000000000000000000000000000000000000a01dcc4de8dec75d7aab85b567b6ccd41ad312451b948a7413f0a142fd40d49347942adc25665018aa1fe0e6bc666dac8fc2697ff9baa069dca32c9807887cda17d06b5575204c45eaeb681722a37f5f2f6ffaa712dea0a056e81f171bcc55a6ff8345e692c0f86e5b48e01b996cadc001622fb5e363b421a056e81f171bcc55a6ff8345e692c0f86e5b48e01b996cadc001622fb5e363b421b90100000000000000000000000000000000000000000000000000000000000000000000000000000000000000000000000000000000000000000000000000000000000000000000000000000000000000000000000000000000000000000000000000000000000000000000000000000000000000000000000000000000000000000000000000000000000000000000000000000000000000000000000000000000000000000000000000000000000000000000000000000000000000000000000000000000000000000000000000000000000000000000000000000000000000000000000000000000000000000000000000000000000000000000000000000000008302000080830f4240808203b642a056e81f171bcc55a6ff8345e692c0f86e5b48e01b996cadc001622fb5e363b421880102030405060708c0c0",
        "lastblockhash" : "0xa6c6b82b3ae576fe7a03385f3e7f06a0a109117378f98bc3768552c666d8460e",
        "network" : "Homestead",
        "postState" : {
            "0x095e7baea6a6c7c4c2dfeb977efac326af552d87" : {
                "balance" : "0x0de0b6b3a7640000",
                "code" : "0x600160011d600055",
                "nonce" : "0x00",
                "storage" : {
                    "0x00" : "0x03"
                }
            },
            "0x2adc25665018aa1fe0e6bc666dac8fc2697ff9ba" : {
                "balance" : "0x4563918244fa1a80",
                "code" : "",
                "nonce" : "0x00",
                "storage" : {
                }
            },
            "0xa94f5374fce5edbc8e2a8697c15331677e6ebf0b" : {
                "balance" : "0x0de0b6b3a75de580",
                "code" : "",
                "nonce" : "0x01",
                "storage" : {
                }
            }
        },
        "pre" : {
            "0x095e7baea6a6c7c4c2dfeb977efac326af552d87" : {
                "balance" : "0x0de0b6b3a7640000",
                "code" : "0x600160011d600055",
                "nonce" : "0x00",
                "storage" : {
                    "0x00" : "0x03"
                }
            },
            "0xa94f5374fce5edbc8e2a8697c15331677e6ebf0b" : {
                "balance" : "0x0de0b6b3a7640000",
                "code" : "",
                "nonce" : "0x00",
                "storage" : {
                }
            }
        }
    }
}