{
    "ContractStoreClearsSuccess" : {
        "_info" : {
            "comment" : "",
            "filling-rpc-server" : "evm version 1.10.2-unstable-22082f9e-20210309",
            "filling-tool-version" : "retesteth-0.1.0-accesslist+commit.47c69eb3.Linux.g++",
            "lllcversion" : "Version: 0.5.14-develop.2020.6.22+commit.9189ad7a.Linux.g++",
            "source" : "src/GeneralStateTestsFiller/stTransactionTest/ContractStoreClearsSuccessFiller.json",
            "sourceHash" : "7c4da83363d41dc2de6eddcca8c8d6ab2246910723044988aa25f33a8d459b15"
        },
        "env" : {
            "currentCoinbase" : "0xb94f5374fce5edbc8e2a8697c15331677e6ebf0b",
            "currentDifficulty" : "0x020000",
            "currentGasLimit" : "0x989680",
            "currentNumber" : "0x01",
            "currentTimestamp" : "0x03e8",
            "previousHash" : "0x5e20a0453cecd065ea59c37ac63e079ee08998b6045136a8ce6635c7912ec0b6"
        },
        "post" : {
            "Berlin" : [
                {
                    "indexes" : {
                        "data" : 0,
                        "gas" : 0,
                        "value" : 0
                    },
                    "hash" : "0xe4d19bfc5a23f3a85a4faff6e8e47a57532fa3768371ea096edc854f011abd38",
                    "txbytes" : "0xf86080018301fbd094d2571607e241ecf590ed94b12d87c94babe36db60a801ba049a56862d8cea002206dc16fa588e7f278a60c6a39077bde5bbec6f3ea029517a0405d48f39291133032d6bff688c9a2e6cfec064a52ba2c060427ed5a50ff478d",
                    "logs" : "0x1dcc4de8dec75d7aab85b567b6ccd41ad312451b948a7413f0a142fd40d49347"
                }
            ],
            "Istanbul" : [
                {
                    "indexes" : {
                        "data" : 0,
                        "gas" : 0,
                        "value" : 0
                    },
                    "hash" : "0xe4d19bfc5a23f3a85a4faff6e8e47a57532fa3768371ea096edc854f011abd38",
                    "txbytes" : "0xf86080018301fbd094d2571607e241ecf590ed94b12d87c94babe36db60a801ba049a56862d8cea002206dc16fa588e7f278a60c6a39077bde5bbec6f3ea029517a0405d48f39291133032d6bff688c9a2e6cfec064a52ba2c060427ed5a50ff478d",
                    "logs" : "0x1dcc4de8dec75d7aab85b567b6ccd41ad312451b948a7413f0a142fd40d49347"
                }
            ]
        },
        "pre" : {
            "0xa94f5374fce5edbc8e2a8697c15331677e6ebf0b" : {
                "balance" : "0x0222e0",
                "code" : "0x",
                "nonce" : "0x00",
                "storage" : {
                }
            },
            "0xd2571607e241ecf590ed94b12d87c94babe36db6" : {
                "balance" : "0x00",
                "code" : "0x600060005560006001556000600255600060035560006004556000600555600060065560006007556000600855600060095500",
                "nonce" : "0x00",
                "storage" : {
                    "0x00" : "0x0c",
                    "0x01" : "0x0c",
                    "0x02" : "0x0c",
                    "0x03" : "0x0c",
                    "0x04" : "0x0c",
                    "0x05" : "0x0c",
                    "0x06" : "0x0c",
                    "0x07" : "0x0c",
                    "0x08" : "0x0c",
                    "0x09" : "0x0c"
                }
            }
        },
        "transaction" : {
            "data" : [
                "0x"
            ],
            "gasLimit" : [
                "0x01fbd0"
            ],
            "gasPrice" : "0x01",
            "nonce" : "0x00",
            "secretKey" : "0x45a915e4d060149eb4365960e6a7a45f334393093061116b197e3240065ff2d8",
            "to" : "0xd2571607e241ecf590ed94b12d87c94babe36db6",
            "value" : [
                "0x0a"
            ]
        }
    }
}