{
    "ContractStoreClearsSuccess" : {
        "_info" : {
            "comment" : "",
            "filling-rpc-server" : "evm version 1.13.13-unstable-034bc466-20240219",
            "filling-tool-version" : "retesteth-0.3.2-cancun+commit.014a68a5.Linux.g++",
            "generatedTestHash" : "62eb120fa5aa98fd251ea0cfc515de4c4890200e6ed5fcaf4f5d3b3d025eb97c",
            "lllcversion" : "Version: 0.5.14-develop.2023.7.11+commit.c58ab2c6.mod.Linux.g++",
            "solidity" : "Version: 0.8.21+commit.d9974bed.Linux.g++",
            "source" : "src/GeneralStateTestsFiller/stTransactionTest/ContractStoreClearsSuccessFiller.json",
            "sourceHash" : "e84f4bc3f73bc5b3d7889905eaa6939531bb82498b1483fc9ff3972533239662"
        },
        "env" : {
            "currentBaseFee" : "0x0a",
            "currentCoinbase" : "0xb94f5374fce5edbc8e2a8697c15331677e6ebf0b",
            "currentDifficulty" : "0x020000",
            "currentExcessBlobGas" : "0x00",
            "currentGasLimit" : "0x989680",
            "currentNumber" : "0x01",
            "currentRandom" : "0x0000000000000000000000000000000000000000000000000000000000020000",
            "currentTimestamp" : "0x03e8"
        },
        "post" : {
            "Berlin" : [
                {
                    "hash" : "0x90afbcd3dd66089099179cd4a6cd88f6b7019acf75ee891f8682cd7d8d4f918c",
                    "indexes" : {
                        "data" : 0,
                        "gas" : 0,
                        "value" : 0
                    },
                    "logs" : "0x1dcc4de8dec75d7aab85b567b6ccd41ad312451b948a7413f0a142fd40d49347",
                    "txbytes" : "0xf860800a8301fbd094d2571607e241ecf590ed94b12d87c94babe36db60a801ca01eb0a418d15685d7b053d7725ebda337bd63ac222ee8bb28396682e5c9faaf53a041cac48f3945316b2201122d65e8fb0eef3ca1d97cc53078cf9544e1b2d1521d"
                }
            ],
            "Cancun" : [
                {
                    "hash" : "0x90b45aa04c8b01963c9c4abcafcdabfe525a873e634dd8aa48870a03d40dc989",
                    "indexes" : {
                        "data" : 0,
                        "gas" : 0,
                        "value" : 0
                    },
                    "logs" : "0x1dcc4de8dec75d7aab85b567b6ccd41ad312451b948a7413f0a142fd40d49347",
                    "txbytes" : "0xf860800a8301fbd094d2571607e241ecf590ed94b12d87c94babe36db60a801ca01eb0a418d15685d7b053d7725ebda337bd63ac222ee8bb28396682e5c9faaf53a041cac48f3945316b2201122d65e8fb0eef3ca1d97cc53078cf9544e1b2d1521d"
                }
            ],
            "Istanbul" : [
                {
                    "hash" : "0x90afbcd3dd66089099179cd4a6cd88f6b7019acf75ee891f8682cd7d8d4f918c",
                    "indexes" : {
                        "data" : 0,
                        "gas" : 0,
                        "value" : 0
                    },
                    "logs" : "0x1dcc4de8dec75d7aab85b567b6ccd41ad312451b948a7413f0a142fd40d49347",
                    "txbytes" : "0xf860800a8301fbd094d2571607e241ecf590ed94b12d87c94babe36db60a801ca01eb0a418d15685d7b053d7725ebda337bd63ac222ee8bb28396682e5c9faaf53a041cac48f3945316b2201122d65e8fb0eef3ca1d97cc53078cf9544e1b2d1521d"
                }
            ],
            "London" : [
                {
                    "hash" : "0x9d66252bb2f0e6faf5d3a2e58dd928ba0b7420c06ef2c030af90005e128c590f",
                    "indexes" : {
                        "data" : 0,
                        "gas" : 0,
                        "value" : 0
                    },
                    "logs" : "0x1dcc4de8dec75d7aab85b567b6ccd41ad312451b948a7413f0a142fd40d49347",
                    "txbytes" : "0xf860800a8301fbd094d2571607e241ecf590ed94b12d87c94babe36db60a801ca01eb0a418d15685d7b053d7725ebda337bd63ac222ee8bb28396682e5c9faaf53a041cac48f3945316b2201122d65e8fb0eef3ca1d97cc53078cf9544e1b2d1521d"
                }
            ],
            "Paris" : [
                {
                    "hash" : "0x9d66252bb2f0e6faf5d3a2e58dd928ba0b7420c06ef2c030af90005e128c590f",
                    "indexes" : {
                        "data" : 0,
                        "gas" : 0,
                        "value" : 0
                    },
                    "logs" : "0x1dcc4de8dec75d7aab85b567b6ccd41ad312451b948a7413f0a142fd40d49347",
                    "txbytes" : "0xf860800a8301fbd094d2571607e241ecf590ed94b12d87c94babe36db60a801ca01eb0a418d15685d7b053d7725ebda337bd63ac222ee8bb28396682e5c9faaf53a041cac48f3945316b2201122d65e8fb0eef3ca1d97cc53078cf9544e1b2d1521d"
                }
            ],
            "Shanghai" : [
                {
                    "hash" : "0x9d66252bb2f0e6faf5d3a2e58dd928ba0b7420c06ef2c030af90005e128c590f",
                    "indexes" : {
                        "data" : 0,
                        "gas" : 0,
                        "value" : 0
                    },
                    "logs" : "0x1dcc4de8dec75d7aab85b567b6ccd41ad312451b948a7413f0a142fd40d49347",
                    "txbytes" : "0xf860800a8301fbd094d2571607e241ecf590ed94b12d87c94babe36db60a801ca01eb0a418d15685d7b053d7725ebda337bd63ac222ee8bb28396682e5c9faaf53a041cac48f3945316b2201122d65e8fb0eef3ca1d97cc53078cf9544e1b2d1521d"
                }
            ]
        },
        "pre" : {
            "0x000f3df6d732807ef1319fb7b8bb8522d0beac02" : {
                "balance" : "0x00",
                "code" : "0x3373fffffffffffffffffffffffffffffffffffffffe14604d57602036146024575f5ffd5b5f35801560495762001fff810690815414603c575f5ffd5b62001fff01545f5260205ff35b5f5ffd5b62001fff42064281555f359062001fff015500",
                "nonce" : "0x01",
                "storage" : {
                }
            },
            "0xa94f5374fce5edbc8e2a8697c15331677e6ebf0b" : {
                "balance" : "0x08583b00",
                "code" : "0x",
                "nonce" : "0x00",
                "storage" : {
                }
            },
            "0xd2571607e241ecf590ed94b12d87c94babe36db6" : {
                "balance" : "0x00",
                "code" : "0x600060005560006001556000600255600060035560006004556000600555600060065560006007556000600855600060095500",
                "nonce" : "0x00",
                "storage" : {
                    "0x00" : "0x0c",
                    "0x01" : "0x0c",
                    "0x02" : "0x0c",
                    "0x03" : "0x0c",
                    "0x04" : "0x0c",
                    "0x05" : "0x0c",
                    "0x06" : "0x0c",
                    "0x07" : "0x0c",
                    "0x08" : "0x0c",
                    "0x09" : "0x0c"
                }
            }
        },
        "transaction" : {
            "data" : [
                "0x"
            ],
            "gasLimit" : [
                "0x01fbd0"
            ],
            "gasPrice" : "0x0a",
            "nonce" : "0x00",
            "secretKey" : "0x45a915e4d060149eb4365960e6a7a45f334393093061116b197e3240065ff2d8",
            "sender" : "0xa94f5374fce5edbc8e2a8697c15331677e6ebf0b",
            "to" : "0xd2571607e241ecf590ed94b12d87c94babe36db6",
            "value" : [
                "0x0a"
            ]
        }
    }
}