{
    "CreateMessageReverted" : {
        "_info" : {
            "comment" : "",
            "filling-rpc-server" : "evm version 1.13.11-unstable-765f2904-20240124",
            "filling-tool-version" : "retesteth-0.3.2-cancun+commit.ea13235b.Linux.g++",
            "generatedTestHash" : "60eb6a54bac0ea2743e989040be8e22d8f7f6aecdb3d1774f912365ab4008a64",
            "lllcversion" : "Version: 0.5.14-develop.2023.7.11+commit.c58ab2c6.mod.Linux.g++",
            "solidity" : "Version: 0.8.21+commit.d9974bed.Linux.g++",
            "source" : "src/GeneralStateTestsFiller/stTransactionTest/CreateMessageRevertedFiller.json",
            "sourceHash" : "73523872b28783efbb1ec1fad0b7b3a3981ca25e5e5865ee004ba427309c767a"
        },
        "env" : {
            "currentBaseFee" : "0x0a",
            "currentCoinbase" : "0x2adc25665018aa1fe0e6bc666dac8fc2697ff9ba",
            "currentDifficulty" : "0x020000",
            "currentExcessBlobGas" : "0x00",
            "currentGasLimit" : "0xe8d4a51000",
            "currentNumber" : "0x01",
            "currentRandom" : "0x0000000000000000000000000000000000000000000000000000000000020000",
            "currentTimestamp" : "0x03e8"
        },
        "post" : {
            "Berlin" : [
                {
                    "hash" : "0xdd75e62114b117dc195671b2d69b12f379b9faed81b004aeb95dcd5ddade4fec",
                    "indexes" : {
                        "data" : 0,
                        "gas" : 0,
                        "value" : 0
                    },
                    "logs" : "0x1dcc4de8dec75d7aab85b567b6ccd41ad312451b948a7413f0a142fd40d49347",
                    "txbytes" : "0xf85f800a82557a94b94f5374fce5edbc8e2a8697c15331677e6ebf0b64801ba02f4724f080f83d5d76183f1fe6c60b74bd75dc1dc84105573f7108ee7586337fa001426c8c4fe6eb1cddff8e2c1e16022395efaacf7455a43ff85e3ad861dc5c60"
                }
            ],
            "Cancun" : [
                {
                    "hash" : "0xd367f07e8240e66585005213d3ee744b1cd0b8542f6a4067c27816d6f6232854",
                    "indexes" : {
                        "data" : 0,
                        "gas" : 0,
                        "value" : 0
                    },
                    "logs" : "0x1dcc4de8dec75d7aab85b567b6ccd41ad312451b948a7413f0a142fd40d49347",
                    "txbytes" : "0xf85f800a82557a94b94f5374fce5edbc8e2a8697c15331677e6ebf0b64801ba02f4724f080f83d5d76183f1fe6c60b74bd75dc1dc84105573f7108ee7586337fa001426c8c4fe6eb1cddff8e2c1e16022395efaacf7455a43ff85e3ad861dc5c60"
                }
            ],
            "Istanbul" : [
                {
                    "hash" : "0xdd75e62114b117dc195671b2d69b12f379b9faed81b004aeb95dcd5ddade4fec",
                    "indexes" : {
                        "data" : 0,
                        "gas" : 0,
                        "value" : 0
                    },
                    "logs" : "0x1dcc4de8dec75d7aab85b567b6ccd41ad312451b948a7413f0a142fd40d49347",
                    "txbytes" : "0xf85f800a82557a94b94f5374fce5edbc8e2a8697c15331677e6ebf0b64801ba02f4724f080f83d5d76183f1fe6c60b74bd75dc1dc84105573f7108ee7586337fa001426c8c4fe6eb1cddff8e2c1e16022395efaacf7455a43ff85e3ad861dc5c60"
                }
            ],
            "London" : [
                {
                    "hash" : "0xd367f07e8240e66585005213d3ee744b1cd0b8542f6a4067c27816d6f6232854",
                    "indexes" : {
                        "data" : 0,
                        "gas" : 0,
                        "value" : 0
                    },
                    "logs" : "0x1dcc4de8dec75d7aab85b567b6ccd41ad312451b948a7413f0a142fd40d49347",
                    "txbytes" : "0xf85f800a82557a94b94f5374fce5edbc8e2a8697c15331677e6ebf0b64801ba02f4724f080f83d5d76183f1fe6c60b74bd75dc1dc84105573f7108ee7586337fa001426c8c4fe6eb1cddff8e2c1e16022395efaacf7455a43ff85e3ad861dc5c60"
                }
            ],
            "Paris" : [
                {
                    "hash" : "0xd367f07e8240e66585005213d3ee744b1cd0b8542f6a4067c27816d6f6232854",
                    "indexes" : {
                        "data" : 0,
                        "gas" : 0,
                        "value" : 0
                    },
                    "logs" : "0x1dcc4de8dec75d7aab85b567b6ccd41ad312451b948a7413f0a142fd40d49347",
                    "txbytes" : "0xf85f800a82557a94b94f5374fce5edbc8e2a8697c15331677e6ebf0b64801ba02f4724f080f83d5d76183f1fe6c60b74bd75dc1dc84105573f7108ee7586337fa001426c8c4fe6eb1cddff8e2c1e16022395efaacf7455a43ff85e3ad861dc5c60"
                }
            ],
            "Shanghai" : [
                {
                    "hash" : "0xd367f07e8240e66585005213d3ee744b1cd0b8542f6a4067c27816d6f6232854",
                    "indexes" : {
                        "data" : 0,
                        "gas" : 0,
                        "value" : 0
                    },
                    "logs" : "0x1dcc4de8dec75d7aab85b567b6ccd41ad312451b948a7413f0a142fd40d49347",
                    "txbytes" : "0xf85f800a82557a94b94f5374fce5edbc8e2a8697c15331677e6ebf0b64801ba02f4724f080f83d5d76183f1fe6c60b74bd75dc1dc84105573f7108ee7586337fa001426c8c4fe6eb1cddff8e2c1e16022395efaacf7455a43ff85e3ad861dc5c60"
                }
            ]
        },
        "pre" : {
            "0xa94f5374fce5edbc8e2a8697c15331677e6ebf0b" : {
                "balance" : "0x01c9c380",
                "code" : "0x",
                "nonce" : "0x00",
                "storage" : {
                }
            },
            "0xb94f5374fce5edbc8e2a8697c15331677e6ebf0b" : {
                "balance" : "0x00",
                "code" : "0x64600c6000556000526005601b6000f000",
                "nonce" : "0x00",
                "storage" : {
                }
            }
        },
        "transaction" : {
            "data" : [
                "0x"
            ],
            "gasLimit" : [
                "0x557a"
            ],
            "gasPrice" : "0x0a",
            "nonce" : "0x00",
            "secretKey" : "0x45a915e4d060149eb4365960e6a7a45f334393093061116b197e3240065ff2d8",
            "sender" : "0xa94f5374fce5edbc8e2a8697c15331677e6ebf0b",
            "to" : "0xb94f5374fce5edbc8e2a8697c15331677e6ebf0b",
            "value" : [
                "0x64"
            ]
        }
    }
}