{
    "HighGasLimit" : {
        "_info" : {
            "comment" : "",
            "filling-rpc-server" : "evm version 1.10.2-unstable-22082f9e-20210309",
            "filling-tool-version" : "retesteth-0.1.0-accesslist+commit.47c69eb3.Linux.g++",
            "lllcversion" : "Version: 0.5.14-develop.2020.6.22+commit.9189ad7a.Linux.g++",
            "source" : "src/GeneralStateTestsFiller/stTransactionTest/HighGasLimitFiller.json",
            "sourceHash" : "9790c607dbdc718d6c0d32e9c377e8994b00ddd829e849f7704b698c69467b4a"
        },
        "env" : {
            "currentCoinbase" : "0x2adc25665018aa1fe0e6bc666dac8fc2697ff9ba",
            "currentDifficulty" : "0x020000",
            "currentGasLimit" : "0x7fffffffffffffff",
            "currentNumber" : "0x01",
            "currentTimestamp" : "0x03e8",
            "previousHash" : "0x5e20a0453cecd065ea59c37ac63e079ee08998b6045136a8ce6635c7912ec0b6"
        },
        "post" : {
            "Berlin" : [
                {
                    "indexes" : {
                        "data" : 0,
                        "gas" : 0,
                        "value" : 0
                    },
                    "hash" : "0x05865d72d21eb3a4f7dc4354bfa22076873bfc2064b1f9d88a7ab24f96860eee",
                    "txbytes" : "0xf86f800788100000000000000094b94f5374fce5edbc8e2a8697c15331677e6ebf0b8203848832403495489834541ba010898022c73e87daa54dd1c540d64dab2d558bfca21ff4d7717890c565a6a8c7a040380f6c50f41656af6409c3bd87ce2e57de75f25f7dc00f746d31a9b60331f2",
                    "logs" : "0x1dcc4de8dec75d7aab85b567b6ccd41ad312451b948a7413f0a142fd40d49347"
                }
            ],
            "Istanbul" : [
                {
                    "indexes" : {
                        "data" : 0,
                        "gas" : 0,
                        "value" : 0
                    },
                    "hash" : "0x05865d72d21eb3a4f7dc4354bfa22076873bfc2064b1f9d88a7ab24f96860eee",
                    "txbytes" : "0xf86f800788100000000000000094b94f5374fce5edbc8e2a8697c15331677e6ebf0b8203848832403495489834541ba010898022c73e87daa54dd1c540d64dab2d558bfca21ff4d7717890c565a6a8c7a040380f6c50f41656af6409c3bd87ce2e57de75f25f7dc00f746d31a9b60331f2",
                    "logs" : "0x1dcc4de8dec75d7aab85b567b6ccd41ad312451b948a7413f0a142fd40d49347"
                }
            ]
        },
        "pre" : {
            "0xa94f5374fce5edbc8e2a8697c15331677e6ebf0b" : {
                "balance" : "0xffffffffffffffffffffffffffffffffffffffffffffffffffffffffffffffff",
                "code" : "0x",
                "nonce" : "0x00",
                "storage" : {
                }
            }
        },
        "transaction" : {
            "data" : [
                "0x3240349548983454"
            ],
            "gasLimit" : [
                "0x1000000000000000"
            ],
            "gasPrice" : "0x07",
            "nonce" : "0x00",
            "secretKey" : "0x45a915e4d060149eb4365960e6a7a45f334393093061116b197e3240065ff2d8",
            "to" : "0xb94f5374fce5edbc8e2a8697c15331677e6ebf0b",
            "value" : [
                "0x0384"
            ]
        }
    }
}