{
    "InternlCallStoreClearsSucces" : {
        "_info" : {
            "comment" : "",
            "filling-rpc-server" : "evm version 1.13.13-unstable-034bc466-20240219",
            "filling-tool-version" : "retesteth-0.3.2-cancun+commit.014a68a5.Linux.g++",
            "generatedTestHash" : "31631ef1c4471ffb1b87adb653d05bd9dd1fe770386ace39e8848ab47506e9f2",
            "lllcversion" : "Version: 0.5.14-develop.2023.7.11+commit.c58ab2c6.mod.Linux.g++",
            "solidity" : "Version: 0.8.21+commit.d9974bed.Linux.g++",
            "source" : "src/GeneralStateTestsFiller/stTransactionTest/InternlCallStoreClearsSuccesFiller.json",
            "sourceHash" : "4f4d1f5615830c9f8c297858f8a1a2b0f494b009b9761f91d44e33da5f8752d7"
        },
        "env" : {
            "currentBaseFee" : "0x0a",
            "currentCoinbase" : "0xb94f5374fce5edbc8e2a8697c15331677e6ebf0b",
            "currentDifficulty" : "0x020000",
            "currentExcessBlobGas" : "0x00",
            "currentGasLimit" : "0x0f4240",
            "currentNumber" : "0x01",
            "currentRandom" : "0x0000000000000000000000000000000000000000000000000000000000020000",
            "currentTimestamp" : "0x03e8"
        },
        "post" : {
            "Berlin" : [
                {
                    "hash" : "0x83bb916a5bfe403aafa95b4992e7fdd3f3d35c8f87ba605aa61a079baa081fe7",
                    "indexes" : {
                        "data" : 0,
                        "gas" : 0,
                        "value" : 0
                    },
                    "logs" : "0x1dcc4de8dec75d7aab85b567b6ccd41ad312451b948a7413f0a142fd40d49347",
                    "txbytes" : "0xf860800a8302710094c94f5374fce5edbc8e2a8697c15331677e6ebf0b0a801ca01b09da9879da722c5decb614abb43b747401549386dceddc50798d29e2a4c2fca03480b02f1b1d38d6a8f46bf4e60f9151f07762dc2a008f7aecf7b1b64659cf89"
                }
            ],
            "Cancun" : [
                {
                    "hash" : "0xc1f3cfdf36b1a2c250e71a6c5f14217cd9d10ee74f9718096d17c2cf3ed90a90",
                    "indexes" : {
                        "data" : 0,
                        "gas" : 0,
                        "value" : 0
                    },
                    "logs" : "0x1dcc4de8dec75d7aab85b567b6ccd41ad312451b948a7413f0a142fd40d49347",
                    "txbytes" : "0xf860800a8302710094c94f5374fce5edbc8e2a8697c15331677e6ebf0b0a801ca01b09da9879da722c5decb614abb43b747401549386dceddc50798d29e2a4c2fca03480b02f1b1d38d6a8f46bf4e60f9151f07762dc2a008f7aecf7b1b64659cf89"
                }
            ],
            "Istanbul" : [
                {
                    "hash" : "0x0778fb2d9de7639e75510bdab9338437bfb1195cd53805159bc3f39f200dbe18",
                    "indexes" : {
                        "data" : 0,
                        "gas" : 0,
                        "value" : 0
                    },
                    "logs" : "0x1dcc4de8dec75d7aab85b567b6ccd41ad312451b948a7413f0a142fd40d49347",
                    "txbytes" : "0xf860800a8302710094c94f5374fce5edbc8e2a8697c15331677e6ebf0b0a801ca01b09da9879da722c5decb614abb43b747401549386dceddc50798d29e2a4c2fca03480b02f1b1d38d6a8f46bf4e60f9151f07762dc2a008f7aecf7b1b64659cf89"
                }
            ],
            "London" : [
                {
                    "hash" : "0xe64bdd7f77a2803b467aed012e23d7302ccd46893ce6d6407904489255ca254e",
                    "indexes" : {
                        "data" : 0,
                        "gas" : 0,
                        "value" : 0
                    },
                    "logs" : "0x1dcc4de8dec75d7aab85b567b6ccd41ad312451b948a7413f0a142fd40d49347",
                    "txbytes" : "0xf860800a8302710094c94f5374fce5edbc8e2a8697c15331677e6ebf0b0a801ca01b09da9879da722c5decb614abb43b747401549386dceddc50798d29e2a4c2fca03480b02f1b1d38d6a8f46bf4e60f9151f07762dc2a008f7aecf7b1b64659cf89"
                }
            ],
            "Paris" : [
                {
                    "hash" : "0xe64bdd7f77a2803b467aed012e23d7302ccd46893ce6d6407904489255ca254e",
                    "indexes" : {
                        "data" : 0,
                        "gas" : 0,
                        "value" : 0
                    },
                    "logs" : "0x1dcc4de8dec75d7aab85b567b6ccd41ad312451b948a7413f0a142fd40d49347",
                    "txbytes" : "0xf860800a8302710094c94f5374fce5edbc8e2a8697c15331677e6ebf0b0a801ca01b09da9879da722c5decb614abb43b747401549386dceddc50798d29e2a4c2fca03480b02f1b1d38d6a8f46bf4e60f9151f07762dc2a008f7aecf7b1b64659cf89"
                }
            ],
            "Shanghai" : [
                {
                    "hash" : "0xe64bdd7f77a2803b467aed012e23d7302ccd46893ce6d6407904489255ca254e",
                    "indexes" : {
                        "data" : 0,
                        "gas" : 0,
                        "value" : 0
                    },
                    "logs" : "0x1dcc4de8dec75d7aab85b567b6ccd41ad312451b948a7413f0a142fd40d49347",
                    "txbytes" : "0xf860800a8302710094c94f5374fce5edbc8e2a8697c15331677e6ebf0b0a801ca01b09da9879da722c5decb614abb43b747401549386dceddc50798d29e2a4c2fca03480b02f1b1d38d6a8f46bf4e60f9151f07762dc2a008f7aecf7b1b64659cf89"
                }
            ]
        },
        "pre" : {
            "0x0000000000000000000000000000000000000000" : {
                "balance" : "0x00",
                "code" : "0x600060005560006001556000600255600060035560006004556000600555600060065560006007556000600855600060095500",
                "nonce" : "0x00",
                "storage" : {
                    "0x00" : "0x0c",
                    "0x01" : "0x0c",
                    "0x02" : "0x0c",
                    "0x03" : "0x0c",
                    "0x04" : "0x0c",
                    "0x05" : "0x0c",
                    "0x06" : "0x0c",
                    "0x07" : "0x0c",
                    "0x08" : "0x0c",
                    "0x09" : "0x0c"
                }
            },
            "0x000f3df6d732807ef1319fb7b8bb8522d0beac02" : {
                "balance" : "0x00",
                "code" : "0x3373fffffffffffffffffffffffffffffffffffffffe14604d57602036146024575f5ffd5b5f35801560495762001fff810690815414603c575f5ffd5b62001fff01545f5260205ff35b5f5ffd5b62001fff42064281555f359062001fff015500",
                "nonce" : "0x01",
                "storage" : {
                }
            },
            "0xa94f5374fce5edbc8e2a8697c15331677e6ebf0b" : {
                "balance" : "0x3b9aca00",
                "code" : "0x",
                "nonce" : "0x00",
                "storage" : {
                }
            },
            "0xc94f5374fce5edbc8e2a8697c15331677e6ebf0b" : {
                "balance" : "0x0a",
                "code" : "0x600060006000600060016000620186a0f100",
                "nonce" : "0x00",
                "storage" : {
                }
            }
        },
        "transaction" : {
            "data" : [
                "0x"
            ],
            "gasLimit" : [
                "0x027100"
            ],
            "gasPrice" : "0x0a",
            "nonce" : "0x00",
            "secretKey" : "0x45a915e4d060149eb4365960e6a7a45f334393093061116b197e3240065ff2d8",
            "sender" : "0xa94f5374fce5edbc8e2a8697c15331677e6ebf0b",
            "to" : "0xc94f5374fce5edbc8e2a8697c15331677e6ebf0b",
            "value" : [
                "0x0a"
            ]
        }
    }
}