{
    "StoreClearsAndInternlCallStoreClearsOOG" : {
        "_info" : {
            "comment" : "",
            "filling-rpc-server" : "evm version 1.13.11-unstable-765f2904-20240124",
            "filling-tool-version" : "retesteth-0.3.2-cancun+commit.ea13235b.Linux.g++",
            "generatedTestHash" : "98c499b8df9d022da97ea9f9120179fe58f2afe83c3a17f3123ad42f759299e7",
            "lllcversion" : "Version: 0.5.14-develop.2023.7.11+commit.c58ab2c6.mod.Linux.g++",
            "solidity" : "Version: 0.8.21+commit.d9974bed.Linux.g++",
            "source" : "src/GeneralStateTestsFiller/stTransactionTest/StoreClearsAndInternlCallStoreClearsOOGFiller.json",
            "sourceHash" : "9716e371796227443a12ce9def55f2f55ac6044d7a4469a946776f1de63e2a42"
        },
        "env" : {
            "currentBaseFee" : "0x0a",
            "currentCoinbase" : "0xb94f5374fce5edbc8e2a8697c15331677e6ebf0b",
            "currentDifficulty" : "0x020000",
            "currentExcessBlobGas" : "0x00",
            "currentGasLimit" : "0x989680",
            "currentNumber" : "0x01",
            "currentRandom" : "0x0000000000000000000000000000000000000000000000000000000000020000",
            "currentTimestamp" : "0x03e8"
        },
        "post" : {
            "Berlin" : [
                {
                    "hash" : "0x3e20fdc168541f6cccee4611d39f9f6f44cb1d60b9dac1c522f88b2aa06bd423",
                    "indexes" : {
                        "data" : 0,
                        "gas" : 0,
                        "value" : 0
                    },
                    "logs" : "0x1dcc4de8dec75d7aab85b567b6ccd41ad312451b948a7413f0a142fd40d49347",
                    "txbytes" : "0xf860800a83030d4094c94f5374fce5edbc8e2a8697c15331677e6ebf0b0a801ca0c9291e5983826f6d4d7cc91d0c22bf9e8079174ade181f2312bbef40d7f7dfc3a01670558c27459ba78b92ad368f4f6e15a84275da139a10c3c602d4baf61ebdbf"
                }
            ],
            "Cancun" : [
                {
                    "hash" : "0xe1edb4b08a1e62f45ec51b61d14bb03f893e57b8567a8b4c1dfd687019a4fa99",
                    "indexes" : {
                        "data" : 0,
                        "gas" : 0,
                        "value" : 0
                    },
                    "logs" : "0x1dcc4de8dec75d7aab85b567b6ccd41ad312451b948a7413f0a142fd40d49347",
                    "txbytes" : "0xf860800a83030d4094c94f5374fce5edbc8e2a8697c15331677e6ebf0b0a801ca0c9291e5983826f6d4d7cc91d0c22bf9e8079174ade181f2312bbef40d7f7dfc3a01670558c27459ba78b92ad368f4f6e15a84275da139a10c3c602d4baf61ebdbf"
                }
            ],
            "Istanbul" : [
                {
                    "hash" : "0x26660767410cdfbf8103a8a1d245f18a15edd431fcb494901cbe78e3494d661f",
                    "indexes" : {
                        "data" : 0,
                        "gas" : 0,
                        "value" : 0
                    },
                    "logs" : "0x1dcc4de8dec75d7aab85b567b6ccd41ad312451b948a7413f0a142fd40d49347",
                    "txbytes" : "0xf860800a83030d4094c94f5374fce5edbc8e2a8697c15331677e6ebf0b0a801ca0c9291e5983826f6d4d7cc91d0c22bf9e8079174ade181f2312bbef40d7f7dfc3a01670558c27459ba78b92ad368f4f6e15a84275da139a10c3c602d4baf61ebdbf"
                }
            ],
            "London" : [
                {
                    "hash" : "0xe1edb4b08a1e62f45ec51b61d14bb03f893e57b8567a8b4c1dfd687019a4fa99",
                    "indexes" : {
                        "data" : 0,
                        "gas" : 0,
                        "value" : 0
                    },
                    "logs" : "0x1dcc4de8dec75d7aab85b567b6ccd41ad312451b948a7413f0a142fd40d49347",
                    "txbytes" : "0xf860800a83030d4094c94f5374fce5edbc8e2a8697c15331677e6ebf0b0a801ca0c9291e5983826f6d4d7cc91d0c22bf9e8079174ade181f2312bbef40d7f7dfc3a01670558c27459ba78b92ad368f4f6e15a84275da139a10c3c602d4baf61ebdbf"
                }
            ],
            "Paris" : [
                {
                    "hash" : "0xe1edb4b08a1e62f45ec51b61d14bb03f893e57b8567a8b4c1dfd687019a4fa99",
                    "indexes" : {
                        "data" : 0,
                        "gas" : 0,
                        "value" : 0
                    },
                    "logs" : "0x1dcc4de8dec75d7aab85b567b6ccd41ad312451b948a7413f0a142fd40d49347",
                    "txbytes" : "0xf860800a83030d4094c94f5374fce5edbc8e2a8697c15331677e6ebf0b0a801ca0c9291e5983826f6d4d7cc91d0c22bf9e8079174ade181f2312bbef40d7f7dfc3a01670558c27459ba78b92ad368f4f6e15a84275da139a10c3c602d4baf61ebdbf"
                }
            ],
            "Shanghai" : [
                {
                    "hash" : "0xe1edb4b08a1e62f45ec51b61d14bb03f893e57b8567a8b4c1dfd687019a4fa99",
                    "indexes" : {
                        "data" : 0,
                        "gas" : 0,
                        "value" : 0
                    },
                    "logs" : "0x1dcc4de8dec75d7aab85b567b6ccd41ad312451b948a7413f0a142fd40d49347",
                    "txbytes" : "0xf860800a83030d4094c94f5374fce5edbc8e2a8697c15331677e6ebf0b0a801ca0c9291e5983826f6d4d7cc91d0c22bf9e8079174ade181f2312bbef40d7f7dfc3a01670558c27459ba78b92ad368f4f6e15a84275da139a10c3c602d4baf61ebdbf"
                }
            ]
        },
        "pre" : {
            "0x0000000000000000000000000000000000000000" : {
                "balance" : "0x00",
                "code" : "0x600060005560006001556000600255600060035560006004556000600555600060065560006007556000600855600060095500",
                "nonce" : "0x00",
                "storage" : {
                    "0x00" : "0x0c",
                    "0x01" : "0x0c",
                    "0x02" : "0x0c",
                    "0x03" : "0x0c",
                    "0x04" : "0x0c",
                    "0x05" : "0x0c",
                    "0x06" : "0x0c",
                    "0x07" : "0x0c",
                    "0x08" : "0x0c",
                    "0x09" : "0x0c"
                }
            },
            "0xa94f5374fce5edbc8e2a8697c15331677e6ebf0b" : {
                "balance" : "0x1dcd6500",
                "code" : "0x",
                "nonce" : "0x00",
                "storage" : {
                }
            },
            "0xc94f5374fce5edbc8e2a8697c15331677e6ebf0b" : {
                "balance" : "0x0a",
                "code" : "0x6000600055600060015560006002556000600355600060006000600060016000614e20f100",
                "nonce" : "0x00",
                "storage" : {
                    "0x00" : "0x0c",
                    "0x01" : "0x0c",
                    "0x02" : "0x0c",
                    "0x03" : "0x0c",
                    "0x04" : "0x0c"
                }
            }
        },
        "transaction" : {
            "data" : [
                "0x"
            ],
            "gasLimit" : [
                "0x030d40"
            ],
            "gasPrice" : "0x0a",
            "nonce" : "0x00",
            "secretKey" : "0x45a915e4d060149eb4365960e6a7a45f334393093061116b197e3240065ff2d8",
            "sender" : "0xa94f5374fce5edbc8e2a8697c15331677e6ebf0b",
            "to" : "0xc94f5374fce5edbc8e2a8697c15331677e6ebf0b",
            "value" : [
                "0x0a"
            ]
        }
    }
}