{
    "StoreGasOnCreate" : {
        "_info" : {
            "comment" : "",
            "filling-rpc-server" : "evm version 1.13.11-unstable-765f2904-20240124",
            "filling-tool-version" : "retesteth-0.3.2-cancun+commit.ea13235b.Linux.g++",
            "generatedTestHash" : "c68ca3f889a05e87ab981a2b86be21e930f0bf088fe07b3e88518216c574bfac",
            "lllcversion" : "Version: 0.5.14-develop.2023.7.11+commit.c58ab2c6.mod.Linux.g++",
            "solidity" : "Version: 0.8.21+commit.d9974bed.Linux.g++",
            "source" : "src/GeneralStateTestsFiller/stTransactionTest/StoreGasOnCreateFiller.json",
            "sourceHash" : "7ab4bd769263d96816b47cab68c246d4e51e28f35daf61351b94d6040b00549c"
        },
        "env" : {
            "currentBaseFee" : "0x0a",
            "currentCoinbase" : "0xb94f5374fce5edbc8e2a8697c15331677e6ebf0b",
            "currentDifficulty" : "0x020000",
            "currentExcessBlobGas" : "0x00",
            "currentGasLimit" : "0x0f4240",
            "currentNumber" : "0x01",
            "currentRandom" : "0x0000000000000000000000000000000000000000000000000000000000020000",
            "currentTimestamp" : "0x03e8"
        },
        "post" : {
            "Berlin" : [
                {
                    "hash" : "0x3ec57d19f1ca1af25fc49689a321d9714599b430d3fe388b5354eefa89ec1fc6",
                    "indexes" : {
                        "data" : 0,
                        "gas" : 0,
                        "value" : 0
                    },
                    "logs" : "0x1dcc4de8dec75d7aab85b567b6ccd41ad312451b948a7413f0a142fd40d49347",
                    "txbytes" : "0xf860800a8302032a94b94f5374fce5edbc8e2a8697c15331677e6ebf0b64801ca09f93161a8deeaa73d584470047736aaec71f9543cd1215a18125688db3ef2541a04d12577259d41ff57788b7de2ec7ae6172b990e4ae9612aecdf54b6b472a9ef4"
                }
            ],
            "Cancun" : [
                {
                    "hash" : "0x4edbc3d50bae8db2f8ae28b78f29fdcc05ce0f44767045c3bd2d8f83b25ea779",
                    "indexes" : {
                        "data" : 0,
                        "gas" : 0,
                        "value" : 0
                    },
                    "logs" : "0x1dcc4de8dec75d7aab85b567b6ccd41ad312451b948a7413f0a142fd40d49347",
                    "txbytes" : "0xf860800a8302032a94b94f5374fce5edbc8e2a8697c15331677e6ebf0b64801ca09f93161a8deeaa73d584470047736aaec71f9543cd1215a18125688db3ef2541a04d12577259d41ff57788b7de2ec7ae6172b990e4ae9612aecdf54b6b472a9ef4"
                }
            ],
            "Istanbul" : [
                {
                    "hash" : "0x03a789945cee91c10b2b1ca5d47a1be20cfc24f86d552aff0e2949b77f900dfd",
                    "indexes" : {
                        "data" : 0,
                        "gas" : 0,
                        "value" : 0
                    },
                    "logs" : "0x1dcc4de8dec75d7aab85b567b6ccd41ad312451b948a7413f0a142fd40d49347",
                    "txbytes" : "0xf860800a8302032a94b94f5374fce5edbc8e2a8697c15331677e6ebf0b64801ca09f93161a8deeaa73d584470047736aaec71f9543cd1215a18125688db3ef2541a04d12577259d41ff57788b7de2ec7ae6172b990e4ae9612aecdf54b6b472a9ef4"
                }
            ],
            "London" : [
                {
                    "hash" : "0x982bba4fd5da8f90be358a356de1fe48c756f29707f6df5827c93de66d5f7cf9",
                    "indexes" : {
                        "data" : 0,
                        "gas" : 0,
                        "value" : 0
                    },
                    "logs" : "0x1dcc4de8dec75d7aab85b567b6ccd41ad312451b948a7413f0a142fd40d49347",
                    "txbytes" : "0xf860800a8302032a94b94f5374fce5edbc8e2a8697c15331677e6ebf0b64801ca09f93161a8deeaa73d584470047736aaec71f9543cd1215a18125688db3ef2541a04d12577259d41ff57788b7de2ec7ae6172b990e4ae9612aecdf54b6b472a9ef4"
                }
            ],
            "Paris" : [
                {
                    "hash" : "0x982bba4fd5da8f90be358a356de1fe48c756f29707f6df5827c93de66d5f7cf9",
                    "indexes" : {
                        "data" : 0,
                        "gas" : 0,
                        "value" : 0
                    },
                    "logs" : "0x1dcc4de8dec75d7aab85b567b6ccd41ad312451b948a7413f0a142fd40d49347",
                    "txbytes" : "0xf860800a8302032a94b94f5374fce5edbc8e2a8697c15331677e6ebf0b64801ca09f93161a8deeaa73d584470047736aaec71f9543cd1215a18125688db3ef2541a04d12577259d41ff57788b7de2ec7ae6172b990e4ae9612aecdf54b6b472a9ef4"
                }
            ],
            "Shanghai" : [
                {
                    "hash" : "0x4edbc3d50bae8db2f8ae28b78f29fdcc05ce0f44767045c3bd2d8f83b25ea779",
                    "indexes" : {
                        "data" : 0,
                        "gas" : 0,
                        "value" : 0
                    },
                    "logs" : "0x1dcc4de8dec75d7aab85b567b6ccd41ad312451b948a7413f0a142fd40d49347",
                    "txbytes" : "0xf860800a8302032a94b94f5374fce5edbc8e2a8697c15331677e6ebf0b64801ca09f93161a8deeaa73d584470047736aaec71f9543cd1215a18125688db3ef2541a04d12577259d41ff57788b7de2ec7ae6172b990e4ae9612aecdf54b6b472a9ef4"
                }
            ]
        },
        "pre" : {
            "0xa94f5374fce5edbc8e2a8697c15331677e6ebf0b" : {
                "balance" : "0x17d78400",
                "code" : "0x",
                "nonce" : "0x00",
                "storage" : {
                }
            },
            "0xb94f5374fce5edbc8e2a8697c15331677e6ebf0b" : {
                "balance" : "0x00",
                "code" : "0x635a60fd556000526004601c6000f000",
                "nonce" : "0x00",
                "storage" : {
                }
            }
        },
        "transaction" : {
            "data" : [
                "0x"
            ],
            "gasLimit" : [
                "0x02032a"
            ],
            "gasPrice" : "0x0a",
            "nonce" : "0x00",
            "secretKey" : "0x45a915e4d060149eb4365960e6a7a45f334393093061116b197e3240065ff2d8",
            "sender" : "0xa94f5374fce5edbc8e2a8697c15331677e6ebf0b",
            "to" : "0xb94f5374fce5edbc8e2a8697c15331677e6ebf0b",
            "value" : [
                "0x64"
            ]
        }
    }
}