{
    "TransactionToItself" : {
        "_info" : {
            "comment" : "",
            "filling-rpc-server" : "evm version 1.10.21-unstable-692bfd1b-20220630",
            "filling-tool-version" : "retesteth-0.2.2-testinfo+commit.1e11e5ce.Linux.g++",
            "generatedTestHash" : "f473e12cb9462744c4f61814052d1b95672891267cab205c97b98bce09fa3a08",
            "lllcversion" : "Version: 0.5.14-develop.2022.6.6+commit.245805fe.Linux.g++",
            "solidity" : "Version: 0.8.5+commit.a4f2e591.Linux.g++",
            "source" : "src/GeneralStateTestsFiller/stTransactionTest/TransactionToItselfFiller.json",
            "sourceHash" : "9e08eb3b90b911ac26c7b545d50e15f38e695f8dd18c022ecd21e266540803ce"
        },
        "env" : {
            "currentBaseFee" : "0x0a",
            "currentCoinbase" : "0x2adc25665018aa1fe0e6bc666dac8fc2697ff9ba",
            "currentDifficulty" : "0x020000",
            "currentGasLimit" : "0x0f4240",
            "currentNumber" : "0x01",
            "currentRandom" : "0x0000000000000000000000000000000000000000000000000000000000020000",
            "currentTimestamp" : "0x03e8",
            "previousHash" : "0x5e20a0453cecd065ea59c37ac63e079ee08998b6045136a8ce6635c7912ec0b6"
        },
        "post" : {
            "Berlin" : [
                {
                    "hash" : "0xd44397f5a909dfdc535a8d18ba45596639c5cf23be0e67d060b2827136d41f6f",
                    "indexes" : {
                        "data" : 0,
                        "gas" : 0,
                        "value" : 0
                    },
                    "logs" : "0x1dcc4de8dec75d7aab85b567b6ccd41ad312451b948a7413f0a142fd40d49347",
                    "txbytes" : "0xf85f800a8261a894a94f5374fce5edbc8e2a8697c15331677e6ebf0b01801ca066516edb238ae274d489690754f1cad62e33be9687eccc5c61ceb4c3e1c0f2cda0157a7499fd6b8c81fd3262408ec8e5d1dd3faa6dfa41341fd466ef675761b0ec"
                }
            ],
            "Istanbul" : [
                {
                    "hash" : "0xd44397f5a909dfdc535a8d18ba45596639c5cf23be0e67d060b2827136d41f6f",
                    "indexes" : {
                        "data" : 0,
                        "gas" : 0,
                        "value" : 0
                    },
                    "logs" : "0x1dcc4de8dec75d7aab85b567b6ccd41ad312451b948a7413f0a142fd40d49347",
                    "txbytes" : "0xf85f800a8261a894a94f5374fce5edbc8e2a8697c15331677e6ebf0b01801ca066516edb238ae274d489690754f1cad62e33be9687eccc5c61ceb4c3e1c0f2cda0157a7499fd6b8c81fd3262408ec8e5d1dd3faa6dfa41341fd466ef675761b0ec"
                }
            ],
            "London" : [
                {
                    "hash" : "0x1f0b5746732d6ace9be5b10d884490e8105a805118bcf9577c180e237a9fa6d5",
                    "indexes" : {
                        "data" : 0,
                        "gas" : 0,
                        "value" : 0
                    },
                    "logs" : "0x1dcc4de8dec75d7aab85b567b6ccd41ad312451b948a7413f0a142fd40d49347",
                    "txbytes" : "0xf85f800a8261a894a94f5374fce5edbc8e2a8697c15331677e6ebf0b01801ca066516edb238ae274d489690754f1cad62e33be9687eccc5c61ceb4c3e1c0f2cda0157a7499fd6b8c81fd3262408ec8e5d1dd3faa6dfa41341fd466ef675761b0ec"
                }
            ],
            "Merge" : [
                {
                    "hash" : "0x1f0b5746732d6ace9be5b10d884490e8105a805118bcf9577c180e237a9fa6d5",
                    "indexes" : {
                        "data" : 0,
                        "gas" : 0,
                        "value" : 0
                    },
                    "logs" : "0x1dcc4de8dec75d7aab85b567b6ccd41ad312451b948a7413f0a142fd40d49347",
                    "txbytes" : "0xf85f800a8261a894a94f5374fce5edbc8e2a8697c15331677e6ebf0b01801ca066516edb238ae274d489690754f1cad62e33be9687eccc5c61ceb4c3e1c0f2cda0157a7499fd6b8c81fd3262408ec8e5d1dd3faa6dfa41341fd466ef675761b0ec"
                }
            ]
        },
        "pre" : {
            "0xa94f5374fce5edbc8e2a8697c15331677e6ebf0b" : {
                "balance" : "0x3b9aca00",
                "code" : "0x",
                "nonce" : "0x00",
                "storage" : {
                }
            }
        },
        "transaction" : {
            "data" : [
                "0x"
            ],
            "gasLimit" : [
                "0x61a8"
            ],
            "gasPrice" : "0x0a",
            "nonce" : "0x00",
            "secretKey" : "0x45a915e4d060149eb4365960e6a7a45f334393093061116b197e3240065ff2d8",
            "sender" : "0xa94f5374fce5edbc8e2a8697c15331677e6ebf0b",
            "to" : "0xa94f5374fce5edbc8e2a8697c15331677e6ebf0b",
            "value" : [
                "0x01"
            ]
        }
    }
}