{
    "ValueOverflow" : {
        "_info" : {
            "comment" : "",
            "filling-rpc-server" : "evm version 1.10.10-unstable-2a4874c2-20211007",
            "filling-tool-version" : "retesteth-0.2.0-memory+commit.ab7a9e3c.Linux.g++",
            "generatedTestHash" : "e110ec1f839008453753e46b163f49cca408594fbefa1399b01cfd843ecdc7cd",
            "lllcversion" : "Version: 0.5.14-develop.2021.10.5+commit.401d5358.Linux.g++",
            "source" : "src/GeneralStateTestsFiller/stTransactionTest/ValueOverflowFiller.yml",
            "sourceHash" : "a1626d31fb6eb2560692e59377813d19bd986753c99dacf2b31122c033fdb793"
        },
        "env" : {
            "currentBaseFee" : "0x0a",
            "currentCoinbase" : "0x2adc25665018aa1fe0e6bc666dac8fc2697ff9ba",
            "currentDifficulty" : "0x020000",
            "currentGasLimit" : "0x05500000",
            "currentNumber" : "0x01",
            "currentTimestamp" : "0x03e8",
            "previousHash" : "0x5e20a0453cecd065ea59c37ac63e079ee08998b6045136a8ce6635c7912ec0b6"
        },
        "post" : {
            "Berlin" : [
                {
                    "expectException" : "TR_NoFunds",
                    "hash" : "0x1751725d1aad5298768fbcf64069b2c1b85aeaffcc561146067d6beedd08052a",
                    "indexes" : {
                        "data" : 0,
                        "gas" : 0,
                        "value" : 0
                    },
                    "logs" : "0x1dcc4de8dec75d7aab85b567b6ccd41ad312451b948a7413f0a142fd40d49347",
                    "txbytes" : "0xf880806482520894d0d0d0d0d0d0d0d0d0d0d0d0d0d0d0d0d0d0d0d0a1010000000000000000000000000000000000000000000000000000000000000001801ba0c16787a8e25e941d67691954642876c08f00996163ae7dfadbbfd6cd436f549da06180e5626cae31590f40641fe8f63734316c4bfeb4cdfab6714198c1044d2e28"
                }
            ],
            "Byzantium" : [
                {
                    "expectException" : "TR_NoFunds",
                    "hash" : "0x1751725d1aad5298768fbcf64069b2c1b85aeaffcc561146067d6beedd08052a",
                    "indexes" : {
                        "data" : 0,
                        "gas" : 0,
                        "value" : 0
                    },
                    "logs" : "0x1dcc4de8dec75d7aab85b567b6ccd41ad312451b948a7413f0a142fd40d49347",
                    "txbytes" : "0xf880806482520894d0d0d0d0d0d0d0d0d0d0d0d0d0d0d0d0d0d0d0d0a1010000000000000000000000000000000000000000000000000000000000000001801ba0c16787a8e25e941d67691954642876c08f00996163ae7dfadbbfd6cd436f549da06180e5626cae31590f40641fe8f63734316c4bfeb4cdfab6714198c1044d2e28"
                }
            ],
            "Constantinople" : [
                {
                    "expectException" : "TR_NoFunds",
                    "hash" : "0x1751725d1aad5298768fbcf64069b2c1b85aeaffcc561146067d6beedd08052a",
                    "indexes" : {
                        "data" : 0,
                        "gas" : 0,
                        "value" : 0
                    },
                    "logs" : "0x1dcc4de8dec75d7aab85b567b6ccd41ad312451b948a7413f0a142fd40d49347",
                    "txbytes" : "0xf880806482520894d0d0d0d0d0d0d0d0d0d0d0d0d0d0d0d0d0d0d0d0a1010000000000000000000000000000000000000000000000000000000000000001801ba0c16787a8e25e941d67691954642876c08f00996163ae7dfadbbfd6cd436f549da06180e5626cae31590f40641fe8f63734316c4bfeb4cdfab6714198c1044d2e28"
                }
            ],
            "ConstantinopleFix" : [
                {
                    "expectException" : "TR_NoFunds",
                    "hash" : "0x1751725d1aad5298768fbcf64069b2c1b85aeaffcc561146067d6beedd08052a",
                    "indexes" : {
                        "data" : 0,
                        "gas" : 0,
                        "value" : 0
                    },
                    "logs" : "0x1dcc4de8dec75d7aab85b567b6ccd41ad312451b948a7413f0a142fd40d49347",
                    "txbytes" : "0xf880806482520894d0d0d0d0d0d0d0d0d0d0d0d0d0d0d0d0d0d0d0d0a1010000000000000000000000000000000000000000000000000000000000000001801ba0c16787a8e25e941d67691954642876c08f00996163ae7dfadbbfd6cd436f549da06180e5626cae31590f40641fe8f63734316c4bfeb4cdfab6714198c1044d2e28"
                }
            ],
            "EIP150" : [
                {
                    "expectException" : "TR_NoFunds",
                    "hash" : "0x1751725d1aad5298768fbcf64069b2c1b85aeaffcc561146067d6beedd08052a",
                    "indexes" : {
                        "data" : 0,
                        "gas" : 0,
                        "value" : 0
                    },
                    "logs" : "0x1dcc4de8dec75d7aab85b567b6ccd41ad312451b948a7413f0a142fd40d49347",
                    "txbytes" : "0xf880806482520894d0d0d0d0d0d0d0d0d0d0d0d0d0d0d0d0d0d0d0d0a1010000000000000000000000000000000000000000000000000000000000000001801ba0c16787a8e25e941d67691954642876c08f00996163ae7dfadbbfd6cd436f549da06180e5626cae31590f40641fe8f63734316c4bfeb4cdfab6714198c1044d2e28"
                }
            ],
            "EIP158" : [
                {
                    "expectException" : "TR_NoFunds",
                    "hash" : "0x1751725d1aad5298768fbcf64069b2c1b85aeaffcc561146067d6beedd08052a",
                    "indexes" : {
                        "data" : 0,
                        "gas" : 0,
                        "value" : 0
                    },
                    "logs" : "0x1dcc4de8dec75d7aab85b567b6ccd41ad312451b948a7413f0a142fd40d49347",
                    "txbytes" : "0xf880806482520894d0d0d0d0d0d0d0d0d0d0d0d0d0d0d0d0d0d0d0d0a1010000000000000000000000000000000000000000000000000000000000000001801ba0c16787a8e25e941d67691954642876c08f00996163ae7dfadbbfd6cd436f549da06180e5626cae31590f40641fe8f63734316c4bfeb4cdfab6714198c1044d2e28"
                }
            ],
            "Frontier" : [
                {
                    "expectException" : "TR_NoFunds",
                    "hash" : "0x1751725d1aad5298768fbcf64069b2c1b85aeaffcc561146067d6beedd08052a",
                    "indexes" : {
                        "data" : 0,
                        "gas" : 0,
                        "value" : 0
                    },
                    "logs" : "0x1dcc4de8dec75d7aab85b567b6ccd41ad312451b948a7413f0a142fd40d49347",
                    "txbytes" : "0xf880806482520894d0d0d0d0d0d0d0d0d0d0d0d0d0d0d0d0d0d0d0d0a1010000000000000000000000000000000000000000000000000000000000000001801ba0c16787a8e25e941d67691954642876c08f00996163ae7dfadbbfd6cd436f549da06180e5626cae31590f40641fe8f63734316c4bfeb4cdfab6714198c1044d2e28"
                }
            ],
            "Homestead" : [
                {
                    "expectException" : "TR_NoFunds",
                    "hash" : "0x1751725d1aad5298768fbcf64069b2c1b85aeaffcc561146067d6beedd08052a",
                    "indexes" : {
                        "data" : 0,
                        "gas" : 0,
                        "value" : 0
                    },
                    "logs" : "0x1dcc4de8dec75d7aab85b567b6ccd41ad312451b948a7413f0a142fd40d49347",
                    "txbytes" : "0xf880806482520894d0d0d0d0d0d0d0d0d0d0d0d0d0d0d0d0d0d0d0d0a1010000000000000000000000000000000000000000000000000000000000000001801ba0c16787a8e25e941d67691954642876c08f00996163ae7dfadbbfd6cd436f549da06180e5626cae31590f40641fe8f63734316c4bfeb4cdfab6714198c1044d2e28"
                }
            ],
            "Istanbul" : [
                {
                    "expectException" : "TR_NoFunds",
                    "hash" : "0x1751725d1aad5298768fbcf64069b2c1b85aeaffcc561146067d6beedd08052a",
                    "indexes" : {
                        "data" : 0,
                        "gas" : 0,
                        "value" : 0
                    },
                    "logs" : "0x1dcc4de8dec75d7aab85b567b6ccd41ad312451b948a7413f0a142fd40d49347",
                    "txbytes" : "0xf880806482520894d0d0d0d0d0d0d0d0d0d0d0d0d0d0d0d0d0d0d0d0a1010000000000000000000000000000000000000000000000000000000000000001801ba0c16787a8e25e941d67691954642876c08f00996163ae7dfadbbfd6cd436f549da06180e5626cae31590f40641fe8f63734316c4bfeb4cdfab6714198c1044d2e28"
                }
            ],
            "London" : [
                {
                    "expectException" : "TR_NoFunds",
                    "hash" : "0x1751725d1aad5298768fbcf64069b2c1b85aeaffcc561146067d6beedd08052a",
                    "indexes" : {
                        "data" : 0,
                        "gas" : 0,
                        "value" : 0
                    },
                    "logs" : "0x1dcc4de8dec75d7aab85b567b6ccd41ad312451b948a7413f0a142fd40d49347",
                    "txbytes" : "0xf880806482520894d0d0d0d0d0d0d0d0d0d0d0d0d0d0d0d0d0d0d0d0a1010000000000000000000000000000000000000000000000000000000000000001801ba0c16787a8e25e941d67691954642876c08f00996163ae7dfadbbfd6cd436f549da06180e5626cae31590f40641fe8f63734316c4bfeb4cdfab6714198c1044d2e28"
                }
            ]
        },
        "pre" : {
            "0xa94f5374fce5edbc8e2a8697c15331677e6ebf0b" : {
                "balance" : "0x3b9aca00",
                "code" : "0x",
                "nonce" : "0x00",
                "storage" : {
                }
            },
            "0xd0d0d0d0d0d0d0d0d0d0d0d0d0d0d0d0d0d0d0d0" : {
                "balance" : "0x00",
                "code" : "0x",
                "nonce" : "0x00",
                "storage" : {
                }
            }
        },
        "transaction" : {
            "data" : [
                "0x"
            ],
            "gasLimit" : [
                "0x5208"
            ],
            "gasPrice" : "0x64",
            "nonce" : "0x00",
            "secretKey" : "0x45a915e4d060149eb4365960e6a7a45f334393093061116b197e3240065ff2d8",
            "to" : "0xd0d0d0d0d0d0d0d0d0d0d0d0d0d0d0d0d0d0d0d0",
            "value" : [
                "0x:bigint 0x10000000000000000000000000000000000000000000000000000000000000001"
            ]
        }
    }
}