{
    "multimpleBalanceInstruction_Cancun" : {
        "_info" : {
            "comment" : "",
            "filling-rpc-server" : "evm version 1.14.4-unstable-3d8028a6-20240513",
            "filling-tool-version" : "retesteth-0.3.2-cancun+commit.cae6bc33.Linux.g++",
            "generatedTestHash" : "2a2d887dee73855a2d0b701cc904b58503e38ddefe0117979f7c0091b001cf0e",
            "lllcversion" : "Version: 0.5.14-develop.2023.7.11+commit.c58ab2c6.mod.Linux.g++",
            "solidity" : "Version: 0.8.21+commit.d9974bed.Linux.g++",
            "source" : "src/BlockchainTestsFiller/ValidBlocks/bcStateTests/multimpleBalanceInstructionFiller.json",
            "sourceHash" : "de90dcbb71f0a00e2116abbc9e4614e86b97875271ae4635901d5163f6b23c95"
        },
        "blocks" : [
            {
                "blockHeader" : {
                    "baseFeePerGas" : "0x0e",
                    "blobGasUsed" : "0x00",
                    "bloom" : "0x00000000000000000000000000000000000000000000000000000000000000000000000000000000000000000000000000000000000000000000000000000000000000000000000000000000000000000000000000000000000000000000000000000000000000000000000000000000000000000000000000000000000000000000000000000000000000000000000000000000000000000000000000000000000000000000000000000000000000000000000000000000000000000000000000000000000000000000000000000000000000000000000000000000000000000000000000000000000000000000000000000000000000000000000000000000",
                    "coinbase" : "0x8888f1f195afa192cfee860698584c030f4c9db1",
                    "difficulty" : "0x00",
                    "excessBlobGas" : "0x00",
                    "extraData" : "0x42",
                    "gasLimit" : "0x2fefd8",
                    "gasUsed" : "0x016846",
                    "hash" : "0x4761984e1ad3932a2c4ca4e4b682b37acd9e04cbd71bdbe3118af33c0f29bf61",
                    "mixHash" : "0x0000000000000000000000000000000000000000000000000000000000020000",
                    "nonce" : "0x0000000000000000",
                    "number" : "0x01",
                    "parentBeaconBlockRoot" : "0x0000000000000000000000000000000000000000000000000000000000000000",
                    "parentHash" : "0x8c5a94dd91f2040793a6aea9bc334dda1d0a0109f123d7dd04500819424f272b",
                    "receiptTrie" : "0x97210c3ab1ffa00644c8e9f2f187686132347bf46668359ebf946dfb5f76592b",
                    "stateRoot" : "0x544616e79be9dec6f422a70614087f96de09591718bf68d75921ab53d4ea8b2f",
                    "timestamp" : "0x54c99069",
                    "transactionsTrie" : "0xd6d13aba3712820bd9f0ad12a6c8d776b404832880fde39802093604905182d8",
                    "uncleHash" : "0x1dcc4de8dec75d7aab85b567b6ccd41ad312451b948a7413f0a142fd40d49347",
                    "withdrawalsRoot" : "0x56e81f171bcc55a6ff8345e692c0f86e5b48e01b996cadc001622fb5e363b421"
                },
                "blocknumber" : "1",
                "chainname" : "default",
                "rlp" : "0xf902a7f9023ca08c5a94dd91f2040793a6aea9bc334dda1d0a0109f123d7dd04500819424f272ba01dcc4de8dec75d7aab85b567b6ccd41ad312451b948a7413f0a142fd40d49347948888f1f195afa192cfee860698584c030f4c9db1a0544616e79be9dec6f422a70614087f96de09591718bf68d75921ab53d4ea8b2fa0d6d13aba3712820bd9f0ad12a6c8d776b404832880fde39802093604905182d8a097210c3ab1ffa00644c8e9f2f187686132347bf46668359ebf946dfb5f76592bb90100000000000000000000000000000000000000000000000000000000000000000000000000000000000000000000000000000000000000000000000000000000000000000000000000000000000000000000000000000000000000000000000000000000000000000000000000000000000000000000000000000000000000000000000000000000000000000000000000000000000000000000000000000000000000000000000000000000000000000000000000000000000000000000000000000000000000000000000000000000000000000000000000000000000000000000000000000000000000000000000000000000000000000000000000000000008001832fefd8830168468454c9906942a000000000000000000000000000000000000000000000000000000000000200008800000000000000000ea056e81f171bcc55a6ff8345e692c0f86e5b48e01b996cadc001622fb5e363b4218080a00000000000000000000000000000000000000000000000000000000000000000f864f862808203e88303d09094095e7baea6a6c7c4c2dfeb977efac326af552d870a801ba0078f05ca88e95f8e57e950d2292594c6f065a2a661e19d7c823c3e7ba1232393a070bf96ffb667a91f327ca6446edf4f0837e0383a7358035c165fb42fc8deec2fc0c0",
                "transactions" : [
                    {
                        "data" : "0x",
                        "gasLimit" : "0x03d090",
                        "gasPrice" : "0x03e8",
                        "nonce" : "0x00",
                        "r" : "0x078f05ca88e95f8e57e950d2292594c6f065a2a661e19d7c823c3e7ba1232393",
                        "s" : "0x70bf96ffb667a91f327ca6446edf4f0837e0383a7358035c165fb42fc8deec2f",
                        "sender" : "0xa94f5374fce5edbc8e2a8697c15331677e6ebf0b",
                        "to" : "0x095e7baea6a6c7c4c2dfeb977efac326af552d87",
                        "v" : "0x1b",
                        "value" : "0x0a"
                    }
                ],
                "uncleHeaders" : [
                ],
                "withdrawals" : [
                ]
            },
            {
                "blockHeader" : {
                    "baseFeePerGas" : "0x0d",
                    "blobGasUsed" : "0x00",
                    "bloom" : "0x00000000000000000000000000000000000000000000000000000000000000000000000000000000000000000000000000000000000000000000000000000000000000000000000000000000000000000000000000000000000000000000000000000000000000000000000000000000000000000000000000000000000000000000000000000000000000000000000000000000000000000000000000000000000000000000000000000000000000000000000000000000000000000000000000000000000000000000000000000000000000000000000000000000000000000000000000000000000000000000000000000000000000000000000000000000",
                    "coinbase" : "0x8888f1f195afa192cfee860698584c030f4c9db1",
                    "difficulty" : "0x00",
                    "excessBlobGas" : "0x00",
                    "extraData" : "0x42",
                    "gasLimit" : "0x2fefd8",
                    "gasUsed" : "0x026440",
                    "hash" : "0xd2c4f18e9adf2f65583d1bc376be40f5c48e8dfc95d72d8c5e1300dc17efc342",
                    "mixHash" : "0x0000000000000000000000000000000000000000000000000000000000020000",
                    "nonce" : "0x0000000000000000",
                    "number" : "0x02",
                    "parentBeaconBlockRoot" : "0x0000000000000000000000000000000000000000000000000000000000000000",
                    "parentHash" : "0x4761984e1ad3932a2c4ca4e4b682b37acd9e04cbd71bdbe3118af33c0f29bf61",
                    "receiptTrie" : "0xae730c00749f7e3a8d918ce6dd7cd1975e6f8a290f04450f2c8624a904198297",
                    "stateRoot" : "0x20254dfbd5d6f612e6a8ec7dc64aaeeaa3028c185d9c6e5b8fd4390e3f0fd902",
                    "timestamp" : "0x54c99451",
                    "transactionsTrie" : "0x8bed2a9eeaa2b09814f4a33daca8676f106c82e046b24f0f307ce5cccb7a13ef",
                    "uncleHash" : "0x1dcc4de8dec75d7aab85b567b6ccd41ad312451b948a7413f0a142fd40d49347",
                    "withdrawalsRoot" : "0x56e81f171bcc55a6ff8345e692c0f86e5b48e01b996cadc001622fb5e363b421"
                },
                "blocknumber" : "2",
                "chainname" : "default",
                "rlp" : "0xf902a9f9023ca04761984e1ad3932a2c4ca4e4b682b37acd9e04cbd71bdbe3118af33c0f29bf61a01dcc4de8dec75d7aab85b567b6ccd41ad312451b948a7413f0a142fd40d49347948888f1f195afa192cfee860698584c030f4c9db1a020254dfbd5d6f612e6a8ec7dc64aaeeaa3028c185d9c6e5b8fd4390e3f0fd902a08bed2a9eeaa2b09814f4a33daca8676f106c82e046b24f0f307ce5cccb7a13efa0ae730c00749f7e3a8d918ce6dd7cd1975e6f8a290f04450f2c8624a904198297b90100000000000000000000000000000000000000000000000000000000000000000000000000000000000000000000000000000000000000000000000000000000000000000000000000000000000000000000000000000000000000000000000000000000000000000000000000000000000000000000000000000000000000000000000000000000000000000000000000000000000000000000000000000000000000000000000000000000000000000000000000000000000000000000000000000000000000000000000000000000000000000000000000000000000000000000000000000000000000000000000000000000000000000000000000000000008002832fefd8830264408454c9945142a000000000000000000000000000000000000000000000000000000000000200008800000000000000000da056e81f171bcc55a6ff8345e692c0f86e5b48e01b996cadc001622fb5e363b4218080a00000000000000000000000000000000000000000000000000000000000000000f866f864018203e88303d09094195e7baea6a6c7c4c2dfeb977efac326af552d878203e8801ca03fc13690259ea1f0f7478fca772bbb4f95e852e0ca9d35efd49448f60c6dc45ca007474b35a5f77eb5238f6f714433092d28281f9fa8d8e682d34c93dd09714e32c0c0",
                "transactions" : [
                    {
                        "data" : "0x",
                        "gasLimit" : "0x03d090",
                        "gasPrice" : "0x03e8",
                        "nonce" : "0x01",
                        "r" : "0x3fc13690259ea1f0f7478fca772bbb4f95e852e0ca9d35efd49448f60c6dc45c",
                        "s" : "0x07474b35a5f77eb5238f6f714433092d28281f9fa8d8e682d34c93dd09714e32",
                        "sender" : "0xa94f5374fce5edbc8e2a8697c15331677e6ebf0b",
                        "to" : "0x195e7baea6a6c7c4c2dfeb977efac326af552d87",
                        "v" : "0x1c",
                        "value" : "0x03e8"
                    }
                ],
                "uncleHeaders" : [
                ],
                "withdrawals" : [
                ]
            }
        ],
        "genesisBlockHeader" : {
            "baseFeePerGas" : "0x10",
            "blobGasUsed" : "0x00",
            "bloom" : "0x00000000000000000000000000000000000000000000000000000000000000000000000000000000000000000000000000000000000000000000000000000000000000000000000000000000000000000000000000000000000000000000000000000000000000000000000000000000000000000000000000000000000000000000000000000000000000000000000000000000000000000000000000000000000000000000000000000000000000000000000000000000000000000000000000000000000000000000000000000000000000000000000000000000000000000000000000000000000000000000000000000000000000000000000000000000",
            "coinbase" : "0x8888f1f195afa192cfee860698584c030f4c9db1",
            "difficulty" : "0x00",
            "excessBlobGas" : "0x00",
            "extraData" : "0x42",
            "gasLimit" : "0x2fefd8",
            "gasUsed" : "0x00",
            "hash" : "0x8c5a94dd91f2040793a6aea9bc334dda1d0a0109f123d7dd04500819424f272b",
            "mixHash" : "0x0000000000000000000000000000000000000000000000000000000000020000",
            "nonce" : "0x0000000000000000",
            "number" : "0x00",
            "parentBeaconBlockRoot" : "0x0000000000000000000000000000000000000000000000000000000000000000",
            "parentHash" : "0x0000000000000000000000000000000000000000000000000000000000000000",
            "receiptTrie" : "0x56e81f171bcc55a6ff8345e692c0f86e5b48e01b996cadc001622fb5e363b421",
            "stateRoot" : "0xd70616c9838255789f65e2dbbbcb826b3d2c8f1e17599b971d95e53882fe389c",
            "timestamp" : "0x54c98c81",
            "transactionsTrie" : "0x56e81f171bcc55a6ff8345e692c0f86e5b48e01b996cadc001622fb5e363b421",
            "uncleHash" : "0x1dcc4de8dec75d7aab85b567b6ccd41ad312451b948a7413f0a142fd40d49347",
            "withdrawalsRoot" : "0x56e81f171bcc55a6ff8345e692c0f86e5b48e01b996cadc001622fb5e363b421"
        },
        "genesisRLP" : "0xf9023ff90239a00000000000000000000000000000000000000000000000000000000000000000a01dcc4de8dec75d7aab85b567b6ccd41ad312451b948a7413f0a142fd40d49347948888f1f195afa192cfee860698584c030f4c9db1a0d70616c9838255789f65e2dbbbcb826b3d2c8f1e17599b971d95e53882fe389ca056e81f171bcc55a6ff8345e692c0f86e5b48e01b996cadc001622fb5e363b421a056e81f171bcc55a6ff8345e692c0f86e5b48e01b996cadc001622fb5e363b421b90100000000000000000000000000000000000000000000000000000000000000000000000000000000000000000000000000000000000000000000000000000000000000000000000000000000000000000000000000000000000000000000000000000000000000000000000000000000000000000000000000000000000000000000000000000000000000000000000000000000000000000000000000000000000000000000000000000000000000000000000000000000000000000000000000000000000000000000000000000000000000000000000000000000000000000000000000000000000000000000000000000000000000000000000000000000008080832fefd8808454c98c8142a0000000000000000000000000000000000000000000000000000000000002000088000000000000000010a056e81f171bcc55a6ff8345e692c0f86e5b48e01b996cadc001622fb5e363b4218080a00000000000000000000000000000000000000000000000000000000000000000c0c0c0",
        "lastblockhash" : "0xd2c4f18e9adf2f65583d1bc376be40f5c48e8dfc95d72d8c5e1300dc17efc342",
        "network" : "Cancun",
        "postState" : {
            "0x000f3df6d732807ef1319fb7b8bb8522d0beac02" : {
                "balance" : "0x00",
                "code" : "0x3373fffffffffffffffffffffffffffffffffffffffe14604d57602036146024575f5ffd5b5f35801560495762001fff810690815414603c575f5ffd5b62001fff01545f5260205ff35b5f5ffd5b62001fff42064281555f359062001fff015500",
                "nonce" : "0x01",
                "storage" : {
                    "0x12e2" : "0x54c98c81",
                    "0x16ca" : "0x54c99069",
                    "0x1ab2" : "0x54c99451"
                }
            },
            "0x095e7baea6a6c7c4c2dfeb977efac326af552d87" : {
                "balance" : "0x0186aa",
                "code" : "0x73a94f5374fce5edbc8e2a8697c15331677e6ebf0b31600055738888f1f195afa192cfee860698584c030f4c9db13160015573a94f5374fce5edbc8e2a8697c15331677e6ebf0b31600255738888f1f195afa192cfee860698584c030f4c9db13160035573095e7baea6a6c7c4c2dfeb977efac326af552d873160055500",
                "nonce" : "0x00",
                "storage" : {
                    "0x00" : "0x038d7e95dfcd76",
                    "0x02" : "0x038d7e95dfcd76",
                    "0x05" : "0x0186aa"
                }
            },
            "0x195e7baea6a6c7c4c2dfeb977efac326af552d87" : {
                "balance" : "0x018a88",
                "code" : "0x73a94f5374fce5edbc8e2a8697c15331677e6ebf0b31600055738888f1f195afa192cfee860698584c030f4c9db13160015573a94f5374fce5edbc8e2a8697c15331677e6ebf0b31600255738888f1f195afa192cfee860698584c030f4c9db13160035573095e7baea6a6c7c4c2dfeb977efac326af552d873160045573195e7baea6a6c7c4c2dfeb977efac326af552d873160055500",
                "nonce" : "0x00",
                "storage" : {
                    "0x00" : "0x038d7e9060781e",
                    "0x01" : "0x056b9d9c",
                    "0x02" : "0x038d7e9060781e",
                    "0x03" : "0x056b9d9c",
                    "0x04" : "0x0186aa",
                    "0x05" : "0x018a88"
                }
            },
            "0x8888f1f195afa192cfee860698584c030f4c9db1" : {
                "balance" : "0x0ea4205c",
                "code" : "0x",
                "nonce" : "0x00",
                "storage" : {
                }
            },
            "0xa94f5374fce5edbc8e2a8697c15331677e6ebf0b" : {
                "balance" : "0x038d7e95ef909e",
                "code" : "0x",
                "nonce" : "0x02",
                "storage" : {
                }
            }
        },
        "pre" : {
            "0x000f3df6d732807ef1319fb7b8bb8522d0beac02" : {
                "balance" : "0x00",
                "code" : "0x3373fffffffffffffffffffffffffffffffffffffffe14604d57602036146024575f5ffd5b5f35801560495762001fff810690815414603c575f5ffd5b62001fff01545f5260205ff35b5f5ffd5b62001fff42064281555f359062001fff015500",
                "nonce" : "0x01",
                "storage" : {
                    "0x12e2" : "0x54c98c81"
                }
            },
            "0x095e7baea6a6c7c4c2dfeb977efac326af552d87" : {
                "balance" : "0x0186a0",
                "code" : "0x73a94f5374fce5edbc8e2a8697c15331677e6ebf0b31600055738888f1f195afa192cfee860698584c030f4c9db13160015573a94f5374fce5edbc8e2a8697c15331677e6ebf0b31600255738888f1f195afa192cfee860698584c030f4c9db13160035573095e7baea6a6c7c4c2dfeb977efac326af552d873160055500",
                "nonce" : "0x00",
                "storage" : {
                }
            },
            "0x195e7baea6a6c7c4c2dfeb977efac326af552d87" : {
                "balance" : "0x0186a0",
                "code" : "0x73a94f5374fce5edbc8e2a8697c15331677e6ebf0b31600055738888f1f195afa192cfee860698584c030f4c9db13160015573a94f5374fce5edbc8e2a8697c15331677e6ebf0b31600255738888f1f195afa192cfee860698584c030f4c9db13160035573095e7baea6a6c7c4c2dfeb977efac326af552d873160045573195e7baea6a6c7c4c2dfeb977efac326af552d873160055500",
                "nonce" : "0x00",
                "storage" : {
                }
            },
            "0xa94f5374fce5edbc8e2a8697c15331677e6ebf0b" : {
                "balance" : "0x038d7ea4c68000",
                "code" : "0x",
                "nonce" : "0x00",
                "storage" : {
                }
            }
        },
        "sealEngine" : "NoProof"
    }
}