{
    "ZeroValue_TransactionCALLwithData_ToOneStorageKey_OOGRevert_Istanbul_Berlin" : {
        "_info" : {
            "comment" : "intrinsic oog with data",
            "filling-rpc-server" : "evm version 1.10.16-unstable-0f893109-20220105",
            "filling-tool-version" : "retesteth-0.2.2-testinfo+commit.ce1746ec.Linux.g++",
            "generatedTestHash" : "cbc383006250dfcb69ca414d5515767402a11828cb1c13e406fbc5882d6853f1",
            "lllcversion" : "Version: 0.5.14-develop.2021.11.27+commit.401d5358.Linux.g++",
            "solidity" : "Version: 0.8.5+commit.a4f2e591.Linux.g++",
            "source" : "src/BlockchainTestsFiller/ValidBlocks/bcStateTests/ZeroValue_TransactionCALLwithData_ToOneStorageKey_OOGRevert_IstanbulFiller.json",
            "sourceHash" : "9100c0c1395ec1a4c9b04e42c3cd39bcf9e71e79333b5e904d81261eb40bc299"
        },
        "blocks" : [
            {
                "blockHeader" : {
                    "bloom" : "0x00000000000000000000000000000000000000000000000000000000000000000000000000000000000000000000000000000000000000000000000000000000000000000000000000000000000000000000000000000000000000000000000000000000000000000000000000000000000000000000000000000000000000000000000000000000000000000000000000000000000000000000000000000000000000000000000000000000000000000000000000000000000000000000000000000000000000000000000000000000000000000000000000000000000000000000000000000000000000000000000000000000000000000000000000000000",
                    "coinbase" : "0x2adc25665018aa1fe0e6bc666dac8fc2697ff9ba",
                    "difficulty" : "0x020000",
                    "extraData" : "0x42",
                    "gasLimit" : "0x989680",
                    "gasUsed" : "0x00",
                    "hash" : "0xd44d1c8b3a680a6a51b89fea95cf6cb18ffca30ef456f815bfa82038e53c5143",
                    "mixHash" : "0x0000000000000000000000000000000000000000000000000000000000000000",
                    "nonce" : "0x0000000000000000",
                    "number" : "0x01",
                    "parentHash" : "0x16659d2517039dd06a0d9138a0bbf6eb6c7e7420cc89784078e7e1e7f6d2039b",
                    "receiptTrie" : "0x56e81f171bcc55a6ff8345e692c0f86e5b48e01b996cadc001622fb5e363b421",
                    "stateRoot" : "0x14cfc3b9ae050f188bc7216a417c0e3e24232dfb4691deba793b4b4373dbda64",
                    "timestamp" : "0x07d0",
                    "transactionsTrie" : "0x56e81f171bcc55a6ff8345e692c0f86e5b48e01b996cadc001622fb5e363b421",
                    "uncleHash" : "0x1dcc4de8dec75d7aab85b567b6ccd41ad312451b948a7413f0a142fd40d49347"
                },
                "blocknumber" : "1",
                "chainname" : "default",
                "rlp" : "0xf901faf901f5a016659d2517039dd06a0d9138a0bbf6eb6c7e7420cc89784078e7e1e7f6d2039ba01dcc4de8dec75d7aab85b567b6ccd41ad312451b948a7413f0a142fd40d49347942adc25665018aa1fe0e6bc666dac8fc2697ff9baa014cfc3b9ae050f188bc7216a417c0e3e24232dfb4691deba793b4b4373dbda64a056e81f171bcc55a6ff8345e692c0f86e5b48e01b996cadc001622fb5e363b421a056e81f171bcc55a6ff8345e692c0f86e5b48e01b996cadc001622fb5e363b421b9010000000000000000000000000000000000000000000000000000000000000000000000000000000000000000000000000000000000000000000000000000000000000000000000000000000000000000000000000000000000000000000000000000000000000000000000000000000000000000000000000000000000000000000000000000000000000000000000000000000000000000000000000000000000000000000000000000000000000000000000000000000000000000000000000000000000000000000000000000000000000000000000000000000000000000000000000000000000000000000000000000000000000000000000000000000000830200000183989680808207d042a00000000000000000000000000000000000000000000000000000000000000000880000000000000000c0c0",
                "transactionSequence" : [
                    {
                        "exception" : "TR_IntrinsicGas",
                        "rawBytes" : "0xf90463808203e88288b894b94f5374fce5edbc8e2a8697c15331677e6ebf0b80b9040045a915e4d060149eb4365960e6a7a45f334393093061116b197e3240065ff2d845a915e4d060149eb4365960e6a7a45f334393093061116b197e3240065ff2d845a915e4d060149eb4365960e6a7a45f334393093061116b197e3240065ff2d845a915e4d060149eb4365960e6a7a45f334393093061116b197e3240065ff2d845a915e4d060149eb4365960e6a7a45f334393093061116b197e3240065ff2d845a915e4d060149eb4365960e6a7a45f334393093061116b197e3240065ff2d845a915e4d060149eb4365960e6a7a45f334393093061116b197e3240065ff2d845a915e4d060149eb4365960e6a7a45f334393093061116b197e3240065ff2d845a915e4d060149eb4365960e6a7a45f334393093061116b197e3240065ff2d845a915e4d060149eb4365960e6a7a45f334393093061116b197e3240065ff2d845a915e4d060149eb4365960e6a7a45f334393093061116b197e3240065ff2d845a915e4d060149eb4365960e6a7a45f334393093061116b197e3240065ff2d845a915e4d060149eb4365960e6a7a45f334393093061116b197e3240065ff2d845a915e4d060149eb4365960e6a7a45f334393093061116b197e3240065ff2d845a915e4d060149eb4365960e6a7a45f334393093061116b197e3240065ff2d845a915e4d060149eb4365960e6a7a45f334393093061116b197e3240065ff2d845a915e4d060149eb4365960e6a7a45f334393093061116b197e3240065ff2d845a915e4d060149eb4365960e6a7a45f334393093061116b197e3240065ff2d845a915e4d060149eb4365960e6a7a45f334393093061116b197e3240065ff2d845a915e4d060149eb4365960e6a7a45f334393093061116b197e3240065ff2d845a915e4d060149eb4365960e6a7a45f334393093061116b197e3240065ff2d845a915e4d060149eb4365960e6a7a45f334393093061116b197e3240065ff2d845a915e4d060149eb4365960e6a7a45f334393093061116b197e3240065ff2d845a915e4d060149eb4365960e6a7a45f334393093061116b197e3240065ff2d845a915e4d060149eb4365960e6a7a45f334393093061116b197e3240065ff2d845a915e4d060149eb4365960e6a7a45f334393093061116b197e3240065ff2d845a915e4d060149eb4365960e6a7a45f334393093061116b197e3240065ff2d845a915e4d060149eb4365960e6a7a45f334393093061116b197e3240065ff2d845a915e4d060149eb4365960e6a7a45f334393093061116b197e3240065ff2d845a915e4d060149eb4365960e6a7a45f334393093061116b197e3240065ff2d845a915e4d060149eb4365960e6a7a45f334393093061116b197e3240065ff2d845a915e4d060149eb4365960e6a7a45f334393093061116b197e3240065ff2d81ba02d071162099feb08bd3daf8f35ab3cc546365bda17ead23b0ab431a96e2227bda02808e386c5585dc40ad56e2c9ecd0f969988070ef4141952a71792b198772148",
                        "valid" : "false"
                    }
                ],
                "transactions" : [
                ],
                "uncleHeaders" : [
                ]
            }
        ],
        "genesisBlockHeader" : {
            "bloom" : "0x00000000000000000000000000000000000000000000000000000000000000000000000000000000000000000000000000000000000000000000000000000000000000000000000000000000000000000000000000000000000000000000000000000000000000000000000000000000000000000000000000000000000000000000000000000000000000000000000000000000000000000000000000000000000000000000000000000000000000000000000000000000000000000000000000000000000000000000000000000000000000000000000000000000000000000000000000000000000000000000000000000000000000000000000000000000",
            "coinbase" : "0x2adc25665018aa1fe0e6bc666dac8fc2697ff9ba",
            "difficulty" : "0x020000",
            "extraData" : "0x42",
            "gasLimit" : "0x989680",
            "gasUsed" : "0x00",
            "hash" : "0x16659d2517039dd06a0d9138a0bbf6eb6c7e7420cc89784078e7e1e7f6d2039b",
            "mixHash" : "0x0000000000000000000000000000000000000000000000000000000000000000",
            "nonce" : "0x0000000000000000",
            "number" : "0x00",
            "parentHash" : "0x0000000000000000000000000000000000000000000000000000000000000000",
            "receiptTrie" : "0x56e81f171bcc55a6ff8345e692c0f86e5b48e01b996cadc001622fb5e363b421",
            "stateRoot" : "0x25a66260e106e4aabf890c1bc398ad84d91a5da434f7fe39c2664c2cb1b39e99",
            "timestamp" : "0x03e8",
            "transactionsTrie" : "0x56e81f171bcc55a6ff8345e692c0f86e5b48e01b996cadc001622fb5e363b421",
            "uncleHash" : "0x1dcc4de8dec75d7aab85b567b6ccd41ad312451b948a7413f0a142fd40d49347"
        },
        "genesisRLP" : "0xf901faf901f5a00000000000000000000000000000000000000000000000000000000000000000a01dcc4de8dec75d7aab85b567b6ccd41ad312451b948a7413f0a142fd40d49347942adc25665018aa1fe0e6bc666dac8fc2697ff9baa025a66260e106e4aabf890c1bc398ad84d91a5da434f7fe39c2664c2cb1b39e99a056e81f171bcc55a6ff8345e692c0f86e5b48e01b996cadc001622fb5e363b421a056e81f171bcc55a6ff8345e692c0f86e5b48e01b996cadc001622fb5e363b421b9010000000000000000000000000000000000000000000000000000000000000000000000000000000000000000000000000000000000000000000000000000000000000000000000000000000000000000000000000000000000000000000000000000000000000000000000000000000000000000000000000000000000000000000000000000000000000000000000000000000000000000000000000000000000000000000000000000000000000000000000000000000000000000000000000000000000000000000000000000000000000000000000000000000000000000000000000000000000000000000000000000000000000000000000000000000000830200008083989680808203e842a00000000000000000000000000000000000000000000000000000000000000000880000000000000000c0c0",
        "lastblockhash" : "0xd44d1c8b3a680a6a51b89fea95cf6cb18ffca30ef456f815bfa82038e53c5143",
        "network" : "Berlin",
        "postState" : {
            "0x2adc25665018aa1fe0e6bc666dac8fc2697ff9ba" : {
                "balance" : "0x1bc16d674ec80000",
                "code" : "0x",
                "nonce" : "0x00",
                "storage" : {
                }
            },
            "0xa94f5374fce5edbc8e2a8697c15331677e6ebf0b" : {
                "balance" : "0xe8d4a51000",
                "code" : "0x",
                "nonce" : "0x00",
                "storage" : {
                }
            },
            "0xb94f5374fce5edbc8e2a8697c15331677e6ebf0b" : {
                "balance" : "0x00",
                "code" : "0x",
                "nonce" : "0x00",
                "storage" : {
                    "0x00" : "0x01"
                }
            }
        },
        "pre" : {
            "0xa94f5374fce5edbc8e2a8697c15331677e6ebf0b" : {
                "balance" : "0xe8d4a51000",
                "code" : "0x",
                "nonce" : "0x00",
                "storage" : {
                }
            },
            "0xb94f5374fce5edbc8e2a8697c15331677e6ebf0b" : {
                "balance" : "0x00",
                "code" : "0x",
                "nonce" : "0x00",
                "storage" : {
                    "0x00" : "0x01"
                }
            }
        },
        "sealEngine" : "NoProof"
    },
    "ZeroValue_TransactionCALLwithData_ToOneStorageKey_OOGRevert_Istanbul_Istanbul" : {
        "_info" : {
            "comment" : "intrinsic oog with data",
            "filling-rpc-server" : "evm version 1.10.16-unstable-0f893109-20220105",
            "filling-tool-version" : "retesteth-0.2.2-testinfo+commit.ce1746ec.Linux.g++",
            "generatedTestHash" : "7a96ecc5482a0784e5fa6c64415603e9e5f8d4c7235cecf1b47bf6214deb1fa3",
            "lllcversion" : "Version: 0.5.14-develop.2021.11.27+commit.401d5358.Linux.g++",
            "solidity" : "Version: 0.8.5+commit.a4f2e591.Linux.g++",
            "source" : "src/BlockchainTestsFiller/ValidBlocks/bcStateTests/ZeroValue_TransactionCALLwithData_ToOneStorageKey_OOGRevert_IstanbulFiller.json",
            "sourceHash" : "9100c0c1395ec1a4c9b04e42c3cd39bcf9e71e79333b5e904d81261eb40bc299"
        },
        "blocks" : [
            {
                "blockHeader" : {
                    "bloom" : "0x00000000000000000000000000000000000000000000000000000000000000000000000000000000000000000000000000000000000000000000000000000000000000000000000000000000000000000000000000000000000000000000000000000000000000000000000000000000000000000000000000000000000000000000000000000000000000000000000000000000000000000000000000000000000000000000000000000000000000000000000000000000000000000000000000000000000000000000000000000000000000000000000000000000000000000000000000000000000000000000000000000000000000000000000000000000",
                    "coinbase" : "0x2adc25665018aa1fe0e6bc666dac8fc2697ff9ba",
                    "difficulty" : "0x020000",
                    "extraData" : "0x42",
                    "gasLimit" : "0x989680",
                    "gasUsed" : "0x00",
                    "hash" : "0xd44d1c8b3a680a6a51b89fea95cf6cb18ffca30ef456f815bfa82038e53c5143",
                    "mixHash" : "0x0000000000000000000000000000000000000000000000000000000000000000",
                    "nonce" : "0x0000000000000000",
                    "number" : "0x01",
                    "parentHash" : "0x16659d2517039dd06a0d9138a0bbf6eb6c7e7420cc89784078e7e1e7f6d2039b",
                    "receiptTrie" : "0x56e81f171bcc55a6ff8345e692c0f86e5b48e01b996cadc001622fb5e363b421",
                    "stateRoot" : "0x14cfc3b9ae050f188bc7216a417c0e3e24232dfb4691deba793b4b4373dbda64",
                    "timestamp" : "0x07d0",
                    "transactionsTrie" : "0x56e81f171bcc55a6ff8345e692c0f86e5b48e01b996cadc001622fb5e363b421",
                    "uncleHash" : "0x1dcc4de8dec75d7aab85b567b6ccd41ad312451b948a7413f0a142fd40d49347"
                },
                "blocknumber" : "1",
                "chainname" : "default",
                "rlp" : "0xf901faf901f5a016659d2517039dd06a0d9138a0bbf6eb6c7e7420cc89784078e7e1e7f6d2039ba01dcc4de8dec75d7aab85b567b6ccd41ad312451b948a7413f0a142fd40d49347942adc25665018aa1fe0e6bc666dac8fc2697ff9baa014cfc3b9ae050f188bc7216a417c0e3e24232dfb4691deba793b4b4373dbda64a056e81f171bcc55a6ff8345e692c0f86e5b48e01b996cadc001622fb5e363b421a056e81f171bcc55a6ff8345e692c0f86e5b48e01b996cadc001622fb5e363b421b9010000000000000000000000000000000000000000000000000000000000000000000000000000000000000000000000000000000000000000000000000000000000000000000000000000000000000000000000000000000000000000000000000000000000000000000000000000000000000000000000000000000000000000000000000000000000000000000000000000000000000000000000000000000000000000000000000000000000000000000000000000000000000000000000000000000000000000000000000000000000000000000000000000000000000000000000000000000000000000000000000000000000000000000000000000000000830200000183989680808207d042a00000000000000000000000000000000000000000000000000000000000000000880000000000000000c0c0",
                "transactionSequence" : [
                    {
                        "exception" : "TR_IntrinsicGas",
                        "rawBytes" : "0xf90463808203e88288b894b94f5374fce5edbc8e2a8697c15331677e6ebf0b80b9040045a915e4d060149eb4365960e6a7a45f334393093061116b197e3240065ff2d845a915e4d060149eb4365960e6a7a45f334393093061116b197e3240065ff2d845a915e4d060149eb4365960e6a7a45f334393093061116b197e3240065ff2d845a915e4d060149eb4365960e6a7a45f334393093061116b197e3240065ff2d845a915e4d060149eb4365960e6a7a45f334393093061116b197e3240065ff2d845a915e4d060149eb4365960e6a7a45f334393093061116b197e3240065ff2d845a915e4d060149eb4365960e6a7a45f334393093061116b197e3240065ff2d845a915e4d060149eb4365960e6a7a45f334393093061116b197e3240065ff2d845a915e4d060149eb4365960e6a7a45f334393093061116b197e3240065ff2d845a915e4d060149eb4365960e6a7a45f334393093061116b197e3240065ff2d845a915e4d060149eb4365960e6a7a45f334393093061116b197e3240065ff2d845a915e4d060149eb4365960e6a7a45f334393093061116b197e3240065ff2d845a915e4d060149eb4365960e6a7a45f334393093061116b197e3240065ff2d845a915e4d060149eb4365960e6a7a45f334393093061116b197e3240065ff2d845a915e4d060149eb4365960e6a7a45f334393093061116b197e3240065ff2d845a915e4d060149eb4365960e6a7a45f334393093061116b197e3240065ff2d845a915e4d060149eb4365960e6a7a45f334393093061116b197e3240065ff2d845a915e4d060149eb4365960e6a7a45f334393093061116b197e3240065ff2d845a915e4d060149eb4365960e6a7a45f334393093061116b197e3240065ff2d845a915e4d060149eb4365960e6a7a45f334393093061116b197e3240065ff2d845a915e4d060149eb4365960e6a7a45f334393093061116b197e3240065ff2d845a915e4d060149eb4365960e6a7a45f334393093061116b197e3240065ff2d845a915e4d060149eb4365960e6a7a45f334393093061116b197e3240065ff2d845a915e4d060149eb4365960e6a7a45f334393093061116b197e3240065ff2d845a915e4d060149eb4365960e6a7a45f334393093061116b197e3240065ff2d845a915e4d060149eb4365960e6a7a45f334393093061116b197e3240065ff2d845a915e4d060149eb4365960e6a7a45f334393093061116b197e3240065ff2d845a915e4d060149eb4365960e6a7a45f334393093061116b197e3240065ff2d845a915e4d060149eb4365960e6a7a45f334393093061116b197e3240065ff2d845a915e4d060149eb4365960e6a7a45f334393093061116b197e3240065ff2d845a915e4d060149eb4365960e6a7a45f334393093061116b197e3240065ff2d845a915e4d060149eb4365960e6a7a45f334393093061116b197e3240065ff2d81ba02d071162099feb08bd3daf8f35ab3cc546365bda17ead23b0ab431a96e2227bda02808e386c5585dc40ad56e2c9ecd0f969988070ef4141952a71792b198772148",
                        "valid" : "false"
                    }
                ],
                "transactions" : [
                ],
                "uncleHeaders" : [
                ]
            }
        ],
        "genesisBlockHeader" : {
            "bloom" : "0x00000000000000000000000000000000000000000000000000000000000000000000000000000000000000000000000000000000000000000000000000000000000000000000000000000000000000000000000000000000000000000000000000000000000000000000000000000000000000000000000000000000000000000000000000000000000000000000000000000000000000000000000000000000000000000000000000000000000000000000000000000000000000000000000000000000000000000000000000000000000000000000000000000000000000000000000000000000000000000000000000000000000000000000000000000000",
            "coinbase" : "0x2adc25665018aa1fe0e6bc666dac8fc2697ff9ba",
            "difficulty" : "0x020000",
            "extraData" : "0x42",
            "gasLimit" : "0x989680",
            "gasUsed" : "0x00",
            "hash" : "0x16659d2517039dd06a0d9138a0bbf6eb6c7e7420cc89784078e7e1e7f6d2039b",
            "mixHash" : "0x0000000000000000000000000000000000000000000000000000000000000000",
            "nonce" : "0x0000000000000000",
            "number" : "0x00",
            "parentHash" : "0x0000000000000000000000000000000000000000000000000000000000000000",
            "receiptTrie" : "0x56e81f171bcc55a6ff8345e692c0f86e5b48e01b996cadc001622fb5e363b421",
            "stateRoot" : "0x25a66260e106e4aabf890c1bc398ad84d91a5da434f7fe39c2664c2cb1b39e99",
            "timestamp" : "0x03e8",
            "transactionsTrie" : "0x56e81f171bcc55a6ff8345e692c0f86e5b48e01b996cadc001622fb5e363b421",
            "uncleHash" : "0x1dcc4de8dec75d7aab85b567b6ccd41ad312451b948a7413f0a142fd40d49347"
        },
        "genesisRLP" : "0xf901faf901f5a00000000000000000000000000000000000000000000000000000000000000000a01dcc4de8dec75d7aab85b567b6ccd41ad312451b948a7413f0a142fd40d49347942adc25665018aa1fe0e6bc666dac8fc2697ff9baa025a66260e106e4aabf890c1bc398ad84d91a5da434f7fe39c2664c2cb1b39e99a056e81f171bcc55a6ff8345e692c0f86e5b48e01b996cadc001622fb5e363b421a056e81f171bcc55a6ff8345e692c0f86e5b48e01b996cadc001622fb5e363b421b9010000000000000000000000000000000000000000000000000000000000000000000000000000000000000000000000000000000000000000000000000000000000000000000000000000000000000000000000000000000000000000000000000000000000000000000000000000000000000000000000000000000000000000000000000000000000000000000000000000000000000000000000000000000000000000000000000000000000000000000000000000000000000000000000000000000000000000000000000000000000000000000000000000000000000000000000000000000000000000000000000000000000000000000000000000000000830200008083989680808203e842a00000000000000000000000000000000000000000000000000000000000000000880000000000000000c0c0",
        "lastblockhash" : "0xd44d1c8b3a680a6a51b89fea95cf6cb18ffca30ef456f815bfa82038e53c5143",
        "network" : "Istanbul",
        "postState" : {
            "0x2adc25665018aa1fe0e6bc666dac8fc2697ff9ba" : {
                "balance" : "0x1bc16d674ec80000",
                "code" : "0x",
                "nonce" : "0x00",
                "storage" : {
                }
            },
            "0xa94f5374fce5edbc8e2a8697c15331677e6ebf0b" : {
                "balance" : "0xe8d4a51000",
                "code" : "0x",
                "nonce" : "0x00",
                "storage" : {
                }
            },
            "0xb94f5374fce5edbc8e2a8697c15331677e6ebf0b" : {
                "balance" : "0x00",
                "code" : "0x",
                "nonce" : "0x00",
                "storage" : {
                    "0x00" : "0x01"
                }
            }
        },
        "pre" : {
            "0xa94f5374fce5edbc8e2a8697c15331677e6ebf0b" : {
                "balance" : "0xe8d4a51000",
                "code" : "0x",
                "nonce" : "0x00",
                "storage" : {
                }
            },
            "0xb94f5374fce5edbc8e2a8697c15331677e6ebf0b" : {
                "balance" : "0x00",
                "code" : "0x",
                "nonce" : "0x00",
                "storage" : {
                    "0x00" : "0x01"
                }
            }
        },
        "sealEngine" : "NoProof"
    },
    "ZeroValue_TransactionCALLwithData_ToOneStorageKey_OOGRevert_Istanbul_London" : {
        "_info" : {
            "comment" : "intrinsic oog with data",
            "filling-rpc-server" : "evm version 1.10.16-unstable-0f893109-20220105",
            "filling-tool-version" : "retesteth-0.2.2-testinfo+commit.ce1746ec.Linux.g++",
            "generatedTestHash" : "a89809740479ba44ef9816fcfba4e83d1070e1232c988a4bb8e684ec6b615c5e",
            "lllcversion" : "Version: 0.5.14-develop.2021.11.27+commit.401d5358.Linux.g++",
            "solidity" : "Version: 0.8.5+commit.a4f2e591.Linux.g++",
            "source" : "src/BlockchainTestsFiller/ValidBlocks/bcStateTests/ZeroValue_TransactionCALLwithData_ToOneStorageKey_OOGRevert_IstanbulFiller.json",
            "sourceHash" : "9100c0c1395ec1a4c9b04e42c3cd39bcf9e71e79333b5e904d81261eb40bc299"
        },
        "blocks" : [
            {
                "blockHeader" : {
                    "baseFeePerGas" : "0x0e",
                    "bloom" : "0x00000000000000000000000000000000000000000000000000000000000000000000000000000000000000000000000000000000000000000000000000000000000000000000000000000000000000000000000000000000000000000000000000000000000000000000000000000000000000000000000000000000000000000000000000000000000000000000000000000000000000000000000000000000000000000000000000000000000000000000000000000000000000000000000000000000000000000000000000000000000000000000000000000000000000000000000000000000000000000000000000000000000000000000000000000000",
                    "coinbase" : "0x2adc25665018aa1fe0e6bc666dac8fc2697ff9ba",
                    "difficulty" : "0x020000",
                    "extraData" : "0x42",
                    "gasLimit" : "0x989680",
                    "gasUsed" : "0x00",
                    "hash" : "0x63aa7370fa50c0c16cd21d958f12c012b70dadb01f75c15e94cb2b57f4538910",
                    "mixHash" : "0x0000000000000000000000000000000000000000000000000000000000000000",
                    "nonce" : "0x0000000000000000",
                    "number" : "0x01",
                    "parentHash" : "0x474821c704d283b9705af052ab6887fc9e44b74bc6b32c4cb27e3613a87294c0",
                    "receiptTrie" : "0x56e81f171bcc55a6ff8345e692c0f86e5b48e01b996cadc001622fb5e363b421",
                    "stateRoot" : "0x14cfc3b9ae050f188bc7216a417c0e3e24232dfb4691deba793b4b4373dbda64",
                    "timestamp" : "0x07d0",
                    "transactionsTrie" : "0x56e81f171bcc55a6ff8345e692c0f86e5b48e01b996cadc001622fb5e363b421",
                    "uncleHash" : "0x1dcc4de8dec75d7aab85b567b6ccd41ad312451b948a7413f0a142fd40d49347"
                },
                "blocknumber" : "1",
                "chainname" : "default",
                "rlp" : "0xf901fbf901f6a0474821c704d283b9705af052ab6887fc9e44b74bc6b32c4cb27e3613a87294c0a01dcc4de8dec75d7aab85b567b6ccd41ad312451b948a7413f0a142fd40d49347942adc25665018aa1fe0e6bc666dac8fc2697ff9baa014cfc3b9ae050f188bc7216a417c0e3e24232dfb4691deba793b4b4373dbda64a056e81f171bcc55a6ff8345e692c0f86e5b48e01b996cadc001622fb5e363b421a056e81f171bcc55a6ff8345e692c0f86e5b48e01b996cadc001622fb5e363b421b9010000000000000000000000000000000000000000000000000000000000000000000000000000000000000000000000000000000000000000000000000000000000000000000000000000000000000000000000000000000000000000000000000000000000000000000000000000000000000000000000000000000000000000000000000000000000000000000000000000000000000000000000000000000000000000000000000000000000000000000000000000000000000000000000000000000000000000000000000000000000000000000000000000000000000000000000000000000000000000000000000000000000000000000000000000000000830200000183989680808207d042a000000000000000000000000000000000000000000000000000000000000000008800000000000000000ec0c0",
                "transactionSequence" : [
                    {
                        "exception" : "TR_IntrinsicGas",
                        "rawBytes" : "0xf90463808203e88288b894b94f5374fce5edbc8e2a8697c15331677e6ebf0b80b9040045a915e4d060149eb4365960e6a7a45f334393093061116b197e3240065ff2d845a915e4d060149eb4365960e6a7a45f334393093061116b197e3240065ff2d845a915e4d060149eb4365960e6a7a45f334393093061116b197e3240065ff2d845a915e4d060149eb4365960e6a7a45f334393093061116b197e3240065ff2d845a915e4d060149eb4365960e6a7a45f334393093061116b197e3240065ff2d845a915e4d060149eb4365960e6a7a45f334393093061116b197e3240065ff2d845a915e4d060149eb4365960e6a7a45f334393093061116b197e3240065ff2d845a915e4d060149eb4365960e6a7a45f334393093061116b197e3240065ff2d845a915e4d060149eb4365960e6a7a45f334393093061116b197e3240065ff2d845a915e4d060149eb4365960e6a7a45f334393093061116b197e3240065ff2d845a915e4d060149eb4365960e6a7a45f334393093061116b197e3240065ff2d845a915e4d060149eb4365960e6a7a45f334393093061116b197e3240065ff2d845a915e4d060149eb4365960e6a7a45f334393093061116b197e3240065ff2d845a915e4d060149eb4365960e6a7a45f334393093061116b197e3240065ff2d845a915e4d060149eb4365960e6a7a45f334393093061116b197e3240065ff2d845a915e4d060149eb4365960e6a7a45f334393093061116b197e3240065ff2d845a915e4d060149eb4365960e6a7a45f334393093061116b197e3240065ff2d845a915e4d060149eb4365960e6a7a45f334393093061116b197e3240065ff2d845a915e4d060149eb4365960e6a7a45f334393093061116b197e3240065ff2d845a915e4d060149eb4365960e6a7a45f334393093061116b197e3240065ff2d845a915e4d060149eb4365960e6a7a45f334393093061116b197e3240065ff2d845a915e4d060149eb4365960e6a7a45f334393093061116b197e3240065ff2d845a915e4d060149eb4365960e6a7a45f334393093061116b197e3240065ff2d845a915e4d060149eb4365960e6a7a45f334393093061116b197e3240065ff2d845a915e4d060149eb4365960e6a7a45f334393093061116b197e3240065ff2d845a915e4d060149eb4365960e6a7a45f334393093061116b197e3240065ff2d845a915e4d060149eb4365960e6a7a45f334393093061116b197e3240065ff2d845a915e4d060149eb4365960e6a7a45f334393093061116b197e3240065ff2d845a915e4d060149eb4365960e6a7a45f334393093061116b197e3240065ff2d845a915e4d060149eb4365960e6a7a45f334393093061116b197e3240065ff2d845a915e4d060149eb4365960e6a7a45f334393093061116b197e3240065ff2d845a915e4d060149eb4365960e6a7a45f334393093061116b197e3240065ff2d81ba02d071162099feb08bd3daf8f35ab3cc546365bda17ead23b0ab431a96e2227bda02808e386c5585dc40ad56e2c9ecd0f969988070ef4141952a71792b198772148",
                        "valid" : "false"
                    }
                ],
                "transactions" : [
                ],
                "uncleHeaders" : [
                ]
            }
        ],
        "genesisBlockHeader" : {
            "baseFeePerGas" : "0x10",
            "bloom" : "0x00000000000000000000000000000000000000000000000000000000000000000000000000000000000000000000000000000000000000000000000000000000000000000000000000000000000000000000000000000000000000000000000000000000000000000000000000000000000000000000000000000000000000000000000000000000000000000000000000000000000000000000000000000000000000000000000000000000000000000000000000000000000000000000000000000000000000000000000000000000000000000000000000000000000000000000000000000000000000000000000000000000000000000000000000000000",
            "coinbase" : "0x2adc25665018aa1fe0e6bc666dac8fc2697ff9ba",
            "difficulty" : "0x020000",
            "extraData" : "0x42",
            "gasLimit" : "0x989680",
            "gasUsed" : "0x00",
            "hash" : "0x474821c704d283b9705af052ab6887fc9e44b74bc6b32c4cb27e3613a87294c0",
            "mixHash" : "0x0000000000000000000000000000000000000000000000000000000000000000",
            "nonce" : "0x0000000000000000",
            "number" : "0x00",
            "parentHash" : "0x0000000000000000000000000000000000000000000000000000000000000000",
            "receiptTrie" : "0x56e81f171bcc55a6ff8345e692c0f86e5b48e01b996cadc001622fb5e363b421",
            "stateRoot" : "0x25a66260e106e4aabf890c1bc398ad84d91a5da434f7fe39c2664c2cb1b39e99",
            "timestamp" : "0x03e8",
            "transactionsTrie" : "0x56e81f171bcc55a6ff8345e692c0f86e5b48e01b996cadc001622fb5e363b421",
            "uncleHash" : "0x1dcc4de8dec75d7aab85b567b6ccd41ad312451b948a7413f0a142fd40d49347"
        },
        "genesisRLP" : "0xf901fbf901f6a00000000000000000000000000000000000000000000000000000000000000000a01dcc4de8dec75d7aab85b567b6ccd41ad312451b948a7413f0a142fd40d49347942adc25665018aa1fe0e6bc666dac8fc2697ff9baa025a66260e106e4aabf890c1bc398ad84d91a5da434f7fe39c2664c2cb1b39e99a056e81f171bcc55a6ff8345e692c0f86e5b48e01b996cadc001622fb5e363b421a056e81f171bcc55a6ff8345e692c0f86e5b48e01b996cadc001622fb5e363b421b9010000000000000000000000000000000000000000000000000000000000000000000000000000000000000000000000000000000000000000000000000000000000000000000000000000000000000000000000000000000000000000000000000000000000000000000000000000000000000000000000000000000000000000000000000000000000000000000000000000000000000000000000000000000000000000000000000000000000000000000000000000000000000000000000000000000000000000000000000000000000000000000000000000000000000000000000000000000000000000000000000000000000000000000000000000000000830200008083989680808203e842a0000000000000000000000000000000000000000000000000000000000000000088000000000000000010c0c0",
        "lastblockhash" : "0x63aa7370fa50c0c16cd21d958f12c012b70dadb01f75c15e94cb2b57f4538910",
        "network" : "London",
        "postState" : {
            "0x2adc25665018aa1fe0e6bc666dac8fc2697ff9ba" : {
                "balance" : "0x1bc16d674ec80000",
                "code" : "0x",
                "nonce" : "0x00",
                "storage" : {
                }
            },
            "0xa94f5374fce5edbc8e2a8697c15331677e6ebf0b" : {
                "balance" : "0xe8d4a51000",
                "code" : "0x",
                "nonce" : "0x00",
                "storage" : {
                }
            },
            "0xb94f5374fce5edbc8e2a8697c15331677e6ebf0b" : {
                "balance" : "0x00",
                "code" : "0x",
                "nonce" : "0x00",
                "storage" : {
                    "0x00" : "0x01"
                }
            }
        },
        "pre" : {
            "0xa94f5374fce5edbc8e2a8697c15331677e6ebf0b" : {
                "balance" : "0xe8d4a51000",
                "code" : "0x",
                "nonce" : "0x00",
                "storage" : {
                }
            },
            "0xb94f5374fce5edbc8e2a8697c15331677e6ebf0b" : {
                "balance" : "0x00",
                "code" : "0x",
                "nonce" : "0x00",
                "storage" : {
                    "0x00" : "0x01"
                }
            }
        },
        "sealEngine" : "NoProof"
    }
}