{
    "gasPriceDiffPlaces" : {
        "_info" : {
            "comment" : "Ori Pomerantz   qbzzt1@gmail.com",
            "filling-rpc-server" : "evm version 1.10.5-unstable-bef78efb-20210622",
            "filling-tool-version" : "retesteth-0.1.2-london+commit.6b7b730c.Linux.g++",
            "lllcversion" : "Version: 0.5.14-develop.2021.6.22+commit.401d5358.Linux.g++",
            "source" : "src/GeneralStateTestsFiller/stEIP1559/gasPriceDiffPlacesFiller.yml",
            "sourceHash" : "d758bee4d40abac5a632c32481ebca5882f102140a6876aa958f1f6b4fd5f4d1",
            "labels" : {
                "0" : ":label normal",
                "1" : ":label normal",
                "2" : ":label normal"
            }
        },
        "env" : {
            "currentCoinbase" : "0x2adc25665018aa1fe0e6bc666dac8fc2697ff9ba",
            "currentDifficulty" : "0x020000",
            "currentNumber" : "0x01",
            "currentTimestamp" : "0x03e8",
            "previousHash" : "0x5e20a0453cecd065ea59c37ac63e079ee08998b6045136a8ce6635c7912ec0b6",
            "currentGasLimit" : "0x10000000000000",
            "currentBaseFee" : "0x0a"
        },
        "post" : {
            "London" : [
                {
                    "indexes" : {
                        "data" : 0,
                        "gas" : 0,
                        "value" : 0
                    },
                    "hash" : "0x20f75ae08744b52965cc38faf5afd47baedcddf21c013ee36a512309326bb143",
                    "txbytes" : "0x02f88d0101808207d0871000000000000094cccccccccccccccccccccccccccccccccccccccc80a4693c61390000000000000000000000000000000000000000000000000000000000000000c001a05fecc3972a35c9e341b41b0c269d9a7325e13269fb01c2f64cbce1046b3441c8a07d4d0eda0e4ebd53c5d0b6fc35c600b317f8fa873b3963ab623ec9cec7d969bd",
                    "logs" : "0x1dcc4de8dec75d7aab85b567b6ccd41ad312451b948a7413f0a142fd40d49347"
                },
                {
                    "indexes" : {
                        "data" : 1,
                        "gas" : 0,
                        "value" : 0
                    },
                    "hash" : "0x3792e5c67561468b5806b2a9b0547d9a8682deffbcbb77399c97ccad50442150",
                    "txbytes" : "0x02f88d0101808207d0871000000000000094cccccccccccccccccccccccccccccccccccccccc80a4693c613900000000000000000000000000000000000000000000000000000000000000f1c080a09e80912ac01c08a78ee4eb0198e15a84b528b2243951fff7e61311e652701452a056749abf7790146d2bdbbafdee3351a5d68a1fd88160936db332af9c1fb3eb24",
                    "logs" : "0x1dcc4de8dec75d7aab85b567b6ccd41ad312451b948a7413f0a142fd40d49347"
                },
                {
                    "indexes" : {
                        "data" : 2,
                        "gas" : 0,
                        "value" : 0
                    },
                    "hash" : "0xbe11ba23a2a52c17a3863a27105477ae86544bd52d5cc2a661219313b144670e",
                    "txbytes" : "0x02f88d0101808207d0871000000000000094cccccccccccccccccccccccccccccccccccccccc80a4693c613900000000000000000000000000000000000000000000000000000000000000f2c080a046ece6fff734a547c69a33de788d9caaf074f3d001c1b8daad94c4b0202915d9a0609931f6fe1f866b550a0ef78561f34fff0604434feca89f1a549090fdb22aa7",
                    "logs" : "0x1dcc4de8dec75d7aab85b567b6ccd41ad312451b948a7413f0a142fd40d49347"
                },
                {
                    "indexes" : {
                        "data" : 3,
                        "gas" : 0,
                        "value" : 0
                    },
                    "hash" : "0xd17b09003dc464d3c9465181ec68e1fabe0c88045a33c23ab8b56c6a42a1403c",
                    "txbytes" : "0x02f88d0101808207d0871000000000000094cccccccccccccccccccccccccccccccccccccccc80a4693c613900000000000000000000000000000000000000000000000000000000000000f4c001a008cddd14f5e0a4c56b7ab505705fd183433d48361251a68b1faa81b3885046bca0772c32d0010811b25f488b1971bb221263c11c4b58f74c555b70bd2b123c98bb",
                    "logs" : "0x1dcc4de8dec75d7aab85b567b6ccd41ad312451b948a7413f0a142fd40d49347"
                },
                {
                    "indexes" : {
                        "data" : 4,
                        "gas" : 0,
                        "value" : 0
                    },
                    "hash" : "0x2038309016e9e81cd5b0645ccb8fd6569c7ff881d77ee6c4c74fe7ee91f2b308",
                    "txbytes" : "0x02f88d0101808207d0871000000000000094cccccccccccccccccccccccccccccccccccccccc80a4693c613900000000000000000000000000000000000000000000000000000000000000fac001a0659425c1533f84bacbc9e119863db012ea8e8d49ec9d0ef208254dd67f0bdfa5a043409e4e89855389fe8fafddd4c58616ffcb3c99990c13e47cf362d63e012b9b",
                    "logs" : "0x1dcc4de8dec75d7aab85b567b6ccd41ad312451b948a7413f0a142fd40d49347"
                },
                {
                    "indexes" : {
                        "data" : 5,
                        "gas" : 0,
                        "value" : 0
                    },
                    "hash" : "0xe614b03a212452a5e1b1360ed7c399b3573a52d7f5072d82f071b59d501064e2",
                    "txbytes" : "0x02f88d0101808207d0871000000000000094cccccccccccccccccccccccccccccccccccccccc80a4693c6139000000000000000000000000000000000000000000000000000000000000f1f1c080a08b87f25c092c609d8e09e529c282a5c1673dfb8011fab4bd33471c4550fb9508a012f5cead6687b0f0be57382285d322d9039ad3974fab05d1c10e7ef0c6da440b",
                    "logs" : "0x1dcc4de8dec75d7aab85b567b6ccd41ad312451b948a7413f0a142fd40d49347"
                },
                {
                    "indexes" : {
                        "data" : 6,
                        "gas" : 0,
                        "value" : 0
                    },
                    "hash" : "0x635a39de4e845aba7a3641d8335921933ec3bf84c922c8e2c2f02d3f5169832e",
                    "txbytes" : "0x02f88d0101808207d0871000000000000094cccccccccccccccccccccccccccccccccccccccc80a4693c6139000000000000000000000000000000000000000000000000000000000000f2f1c080a0659cf5bfdd6eebab501ad332ea2c770fc723a794369a2b9596e784780d543970a01184cfd2af960db44400ccddaa973287625b97b283ee041ed32037d90c4ae92f",
                    "logs" : "0x1dcc4de8dec75d7aab85b567b6ccd41ad312451b948a7413f0a142fd40d49347"
                },
                {
                    "indexes" : {
                        "data" : 7,
                        "gas" : 0,
                        "value" : 0
                    },
                    "hash" : "0x82d4a520660382ed4707b3d26b0b3926f25dbd4ceab762d4201548affff48a1d",
                    "txbytes" : "0x02f88d0101808207d0871000000000000094cccccccccccccccccccccccccccccccccccccccc80a4693c6139000000000000000000000000000000000000000000000000000000000000f4f1c080a0de57cbc5fa6ee5d0dc5600fa79a3f926bd0899510c2f9e174fa210c2b7f98a2ca03ab592e458597beebe43ac760375b2e11a933136844b33632e007317a8e19b1c",
                    "logs" : "0x1dcc4de8dec75d7aab85b567b6ccd41ad312451b948a7413f0a142fd40d49347"
                },
                {
                    "indexes" : {
                        "data" : 8,
                        "gas" : 0,
                        "value" : 0
                    },
                    "hash" : "0x9a5013683ad093a34c199dfdc4f2dc355968a5a6ff3bc2cf38ea732b3848a265",
                    "txbytes" : "0x02f88d0101808207d0871000000000000094cccccccccccccccccccccccccccccccccccccccc80a4693c6139000000000000000000000000000000000000000000000000000000000000faf1c080a059a1b9cd3567a4de5bbf18cdae720bb644ba6b5345a1855410d5fa668aa4b6b4a04d774a8ad4c32d5fc4451b5e07ce1614a717d2a953588d97baeb1f3ce9e65c0e",
                    "logs" : "0x1dcc4de8dec75d7aab85b567b6ccd41ad312451b948a7413f0a142fd40d49347"
                },
                {
                    "indexes" : {
                        "data" : 9,
                        "gas" : 0,
                        "value" : 0
                    },
                    "hash" : "0x086cebde2b24a002800928cf6adc5f6ab2b43c759f0244325d0baa1b7b2ecd8d",
                    "txbytes" : "0x02f88d0101808207d0871000000000000094cccccccccccccccccccccccccccccccccccccccc80a4693c6139000000000000000000000000000000000000000000000000000000000000f1f2c001a0abbd2d83b62dcf9664c55f5588bdc3413080bbf46218c7c64097a73bf700a633a003fdde8c3df7a0d26939637cdfdc44dd86ab8024a997cc065b0f45da4117673b",
                    "logs" : "0x1dcc4de8dec75d7aab85b567b6ccd41ad312451b948a7413f0a142fd40d49347"
                },
                {
                    "indexes" : {
                        "data" : 10,
                        "gas" : 0,
                        "value" : 0
                    },
                    "hash" : "0xbfc0d2edb75964e4293e127f9c58100ea211c410e7292c4419a8df8710c4aea6",
                    "txbytes" : "0x02f88d0101808207d0871000000000000094cccccccccccccccccccccccccccccccccccccccc80a4693c6139000000000000000000000000000000000000000000000000000000000000f2f2c080a0e90f4264272eed6369aa1537b45b4604e365e4160209ccd22e27c58e967b658ca0592eba6664aa88d0c5a6d00a61e0b67a43c86f7ef6c604d2c196070f8c47118a",
                    "logs" : "0x1dcc4de8dec75d7aab85b567b6ccd41ad312451b948a7413f0a142fd40d49347"
                },
                {
                    "indexes" : {
                        "data" : 11,
                        "gas" : 0,
                        "value" : 0
                    },
                    "hash" : "0xd71c3e673909c11fa44af499da73f5cc01e7eb9c704d20484568b38bf6c246fd",
                    "txbytes" : "0x02f88d0101808207d0871000000000000094cccccccccccccccccccccccccccccccccccccccc80a4693c6139000000000000000000000000000000000000000000000000000000000000f4f2c080a02861868769052729e6f8daf6b16a63f5df5326cd143d65f1d504a7e76061f309a0342bb36f65885f9ab79b8825af81d57ee372edc9ca1fab0d9f7069fb5363b383",
                    "logs" : "0x1dcc4de8dec75d7aab85b567b6ccd41ad312451b948a7413f0a142fd40d49347"
                },
                {
                    "indexes" : {
                        "data" : 12,
                        "gas" : 0,
                        "value" : 0
                    },
                    "hash" : "0xa2da416d4c5239ed89a861d731959f3ad813b68b545aaa95bd75d8864302ec63",
                    "txbytes" : "0x02f88d0101808207d0871000000000000094cccccccccccccccccccccccccccccccccccccccc80a4693c6139000000000000000000000000000000000000000000000000000000000000faf2c001a0c6355c69df7a751fd3837f20fb4a7f70dd12470d81514af5d8d195e31a515f53a051d6ab4bdc824d1f26bb62eabe71307216ace4d8a0e2d4c29019982457bc357e",
                    "logs" : "0x1dcc4de8dec75d7aab85b567b6ccd41ad312451b948a7413f0a142fd40d49347"
                },
                {
                    "indexes" : {
                        "data" : 13,
                        "gas" : 0,
                        "value" : 0
                    },
                    "hash" : "0x0acaffeb08f0023ca3df2eb0e1afd5319bfc11e5b5513873179b1aa0d21b9270",
                    "txbytes" : "0x02f88d0101808207d0871000000000000094cccccccccccccccccccccccccccccccccccccccc80a4693c6139000000000000000000000000000000000000000000000000000000000000f1f4c080a0344ac4fdafa2941484cd90f994b968bcdbf0f7f0ea3c877458bc8242adf6dc98a02fab56faa2e171161b379c5d95baebc47f1e5ff85a813aedfc2b8e0b53106a8e",
                    "logs" : "0x1dcc4de8dec75d7aab85b567b6ccd41ad312451b948a7413f0a142fd40d49347"
                },
                {
                    "indexes" : {
                        "data" : 14,
                        "gas" : 0,
                        "value" : 0
                    },
                    "hash" : "0x082031212ff74409ea8309fe2a34f7f3e0aaf8e4b3fb8051d0601444b2c62d56",
                    "txbytes" : "0x02f88d0101808207d0871000000000000094cccccccccccccccccccccccccccccccccccccccc80a4693c6139000000000000000000000000000000000000000000000000000000000000f2f4c080a0800e92774385b212ceda99450bf85c236c8c16381931ea99a2a8868ebcf7e882a054af2bee098b7e76b21e94e4897b687fdc20ac4842aff3ed193a644cebff9fcb",
                    "logs" : "0x1dcc4de8dec75d7aab85b567b6ccd41ad312451b948a7413f0a142fd40d49347"
                },
                {
                    "indexes" : {
                        "data" : 15,
                        "gas" : 0,
                        "value" : 0
                    },
                    "hash" : "0xe4676f27ecaeecbce9329354d940c9bb0bbb3efd628eb87aeb3792d119e1663c",
                    "txbytes" : "0x02f88d0101808207d0871000000000000094cccccccccccccccccccccccccccccccccccccccc80a4693c6139000000000000000000000000000000000000000000000000000000000000f4f4c080a023725a2922c91fd2d04b4b5c6257b49af9caeb01c8265c082af868113e7e6285a06e40a1dbfabb47aa1872117d9453218cfafb2ce056eb0548f27cbbcfebc369fd",
                    "logs" : "0x1dcc4de8dec75d7aab85b567b6ccd41ad312451b948a7413f0a142fd40d49347"
                },
                {
                    "indexes" : {
                        "data" : 16,
                        "gas" : 0,
                        "value" : 0
                    },
                    "hash" : "0xbbc0a0a8fcede28b71f09c7966b16907d3f492c4fb21d1e6b1b6f73a4df258df",
                    "txbytes" : "0x02f88d0101808207d0871000000000000094cccccccccccccccccccccccccccccccccccccccc80a4693c6139000000000000000000000000000000000000000000000000000000000000faf4c080a0773fcd03fe8d9264c41ee029d617d3d4e1b9d47f690ea700fe51401ba2866807a042fd23cc415df3ca814adf4d548ee97dcfaa6842e10a812d84080156ff28cf75",
                    "logs" : "0x1dcc4de8dec75d7aab85b567b6ccd41ad312451b948a7413f0a142fd40d49347"
                },
                {
                    "indexes" : {
                        "data" : 17,
                        "gas" : 0,
                        "value" : 0
                    },
                    "hash" : "0xc9431c4616bf9a6af9981621757305cd5a116e421b6e7b202864f906900ec6dd",
                    "txbytes" : "0x02f88d0101808207d0871000000000000094cccccccccccccccccccccccccccccccccccccccc80a4693c6139000000000000000000000000000000000000000000000000000000000000f1fac001a0380d509db081829d7fa9aaec1ca3c2fb41f613e9afeca2d36c22c236d65dc902a01135287c4879d2a822fedc7d44e37eefdf1fbe1dd62e10d0f92710e89f87a491",
                    "logs" : "0x1dcc4de8dec75d7aab85b567b6ccd41ad312451b948a7413f0a142fd40d49347"
                },
                {
                    "indexes" : {
                        "data" : 18,
                        "gas" : 0,
                        "value" : 0
                    },
                    "hash" : "0xa5efdfbc1a75dc550968f9eef16cfb692f196734f79de40ab4767a8f538a1aad",
                    "txbytes" : "0x02f88d0101808207d0871000000000000094cccccccccccccccccccccccccccccccccccccccc80a4693c6139000000000000000000000000000000000000000000000000000000000000f2fac001a0e3068ca28c29206563f1deb807704f20a93cdfc69d8155e9de0b54d7aea4e37ca03b66e6189a9d65516ac0ef932f428cac9682d7c3759787dc4abdf4b776fa0bd7",
                    "logs" : "0x1dcc4de8dec75d7aab85b567b6ccd41ad312451b948a7413f0a142fd40d49347"
                },
                {
                    "indexes" : {
                        "data" : 19,
                        "gas" : 0,
                        "value" : 0
                    },
                    "hash" : "0x5e1fd88b41040d22378fe11d35c3a00a374cc1ce7d151ac4454f46969156274a",
                    "txbytes" : "0x02f88d0101808207d0871000000000000094cccccccccccccccccccccccccccccccccccccccc80a4693c6139000000000000000000000000000000000000000000000000000000000000f4fac080a0da65b77de7db4d20f795b7ef22c512806b07250fc4bd59321c3a99dd08ca6cf0a055e1732cd1341f4a3e9b67a12a409eebce7ce080a1f4d8eba34d875c53e046ea",
                    "logs" : "0x1dcc4de8dec75d7aab85b567b6ccd41ad312451b948a7413f0a142fd40d49347"
                },
                {
                    "indexes" : {
                        "data" : 20,
                        "gas" : 0,
                        "value" : 0
                    },
                    "hash" : "0x5ea0f85ca995e918e4e3de0074070a43d81895e205422ce21a904d38c3b9013a",
                    "txbytes" : "0x02f88d0101808207d0871000000000000094cccccccccccccccccccccccccccccccccccccccc80a4693c6139000000000000000000000000000000000000000000000000000000000000fafac080a0459be7bb6407880745fcc1675a574edcbb6fd70965cd85aa2ea52813e7391256a05d26225836b649c7e2804a8ba03541e9105be3b42f37a8b6ec844e0777593691",
                    "logs" : "0x1dcc4de8dec75d7aab85b567b6ccd41ad312451b948a7413f0a142fd40d49347"
                },
                {
                    "indexes" : {
                        "data" : 21,
                        "gas" : 0,
                        "value" : 0
                    },
                    "hash" : "0x1201ddfb0fe1de433ec3c78242c7d60d9d0f892c08bdc0bcdda47dfa23cc4692",
                    "txbytes" : "0x02f88d0101808207d0871000000000000094cccccccccccccccccccccccccccccccccccccccc80a4693c613900000000000000000000000000000000000000000000000000000000000000fdc001a0d809a77f2a07c479d11ff4024aa1fbe98377a0c29356de272a988e3bc2ea4588a07037c50bcb7c7ef03bd566e2d8a86ba018d4da90508074cc8bee69b67a77924f",
                    "logs" : "0x1dcc4de8dec75d7aab85b567b6ccd41ad312451b948a7413f0a142fd40d49347"
                },
                {
                    "indexes" : {
                        "data" : 22,
                        "gas" : 0,
                        "value" : 0
                    },
                    "hash" : "0x3fc25f380b1b562baa3384af440bba1a4ab20a7beca0f64eb40439a8b169a35a",
                    "txbytes" : "0x02f88d0101808207d0871000000000000094cccccccccccccccccccccccccccccccccccccccc80a4693c613900000000000000000000000000000000000000000000000000000000000000fec080a0ab0166c5c5641a1b0cbcf1e8a43490026a7cb8ff4419083c96f21728059def5da059986337a4a3d39e6c6122bd8241ea61a9d5c0d55fcc45e6781f6bbef8df05f7",
                    "logs" : "0x1dcc4de8dec75d7aab85b567b6ccd41ad312451b948a7413f0a142fd40d49347"
                },
                {
                    "indexes" : {
                        "data" : 23,
                        "gas" : 0,
                        "value" : 0
                    },
                    "hash" : "0xaaee6a0f0bce42ef03552c38cd20376eef2b76e2d155278267cc4401ec2fb9f7",
                    "txbytes" : "0x02f88d0101808207d0871000000000000094cccccccccccccccccccccccccccccccccccccccc80a4693c613900000000000000000000000000000000000000000000000000000000000000ffc001a0a97398e3b960322822f316f33502e135403ca83a51b5d183ed0af288918c08eaa04c38135b6b0bfd6d5d6c2b3c050dd0f6a4c7c3a93c2c67fabe25cb9c99047d2e",
                    "logs" : "0x1dcc4de8dec75d7aab85b567b6ccd41ad312451b948a7413f0a142fd40d49347"
                },
                {
                    "indexes" : {
                        "data" : 24,
                        "gas" : 0,
                        "value" : 0
                    },
                    "hash" : "0x91ccd0647fe949cf94023b3b988f84e5099cbe9f3dad5e3a86b166728791394a",
                    "txbytes" : "0x02f88d0101808207d0871000000000000094cccccccccccccccccccccccccccccccccccccccc80a4693c613900000000000000000000000000000000000000000000000000000000000000f0c080a0355efc21fa588278586b8504753553acc4d74157af5cb5cbbe793b3e9709a10ba07af040b6c62739cdef2af8bcd52b5667419d52fd45fa8be68b05935649478828",
                    "logs" : "0x1dcc4de8dec75d7aab85b567b6ccd41ad312451b948a7413f0a142fd40d49347"
                },
                {
                    "indexes" : {
                        "data" : 25,
                        "gas" : 0,
                        "value" : 0
                    },
                    "hash" : "0x8735c43e880b33b4527071ff9d83bb16f00028e3211da408fd87b10c849c04f1",
                    "txbytes" : "0x02f88d0101808207d0871000000000000094cccccccccccccccccccccccccccccccccccccccc80a4693c613900000000000000000000000000000000000000000000000000000000000000f5c001a0d7b50c10c5001b2fc72e5d9c86339363072a94237a3c94ab362a7b9b3037b2fca0271f06b642c188becf7c2ae0f82c99d2d6230dc7850d84cd5fc67ef5f0ed743b",
                    "logs" : "0x1dcc4de8dec75d7aab85b567b6ccd41ad312451b948a7413f0a142fd40d49347"
                },
                {
                    "indexes" : {
                        "data" : 26,
                        "gas" : 0,
                        "value" : 0
                    },
                    "hash" : "0x11d602cf66ce3f38784b733c0c00df6a037ac4d87303ce7d101b300b93569bfc",
                    "txbytes" : "0x02f88d0101808207d0871000000000000094cccccccccccccccccccccccccccccccccccccccc80a4693c6139000000000000000000000000000000000000000000000000000000000000f0f1c080a0b8006dc630cac9b1edad1e696f50e6aedcd05e073db4c0cd2227f08f04f1d45ca078674e95750bb15cd603a2861c43a08215471bd7ea3259f4573c3a6169f370f2",
                    "logs" : "0x1dcc4de8dec75d7aab85b567b6ccd41ad312451b948a7413f0a142fd40d49347"
                },
                {
                    "indexes" : {
                        "data" : 27,
                        "gas" : 0,
                        "value" : 0
                    },
                    "hash" : "0x43279f9fc0c33521b8d89db50f26cdb40bdb4bb90dd327a5bb58998df045bf40",
                    "txbytes" : "0x02f88d0101808207d0871000000000000094cccccccccccccccccccccccccccccccccccccccc80a4693c6139000000000000000000000000000000000000000000000000000000000000f5f1c080a0726d93cc3c74375d4ea7f6367ddac2f02d5842100b828eaf573bd48522ce2bd3a04acc22bb8bd09347435e7ee8e031f99b5e23156b66168cf3a6b0d62e5f2a8ec8",
                    "logs" : "0x1dcc4de8dec75d7aab85b567b6ccd41ad312451b948a7413f0a142fd40d49347"
                },
                {
                    "indexes" : {
                        "data" : 28,
                        "gas" : 0,
                        "value" : 0
                    },
                    "hash" : "0x90ac3919b535855b85bdb2f5494d3bc7b6207c6a462f2485e8ac5373f25e5197",
                    "txbytes" : "0x02f88d0101808207d0871000000000000094cccccccccccccccccccccccccccccccccccccccc80a4693c6139000000000000000000000000000000000000000000000000000000000000f0f2c001a0a7f4d8294be3af4b492fd1f1f56f9947825866132bb6060938eb44aede7a1765a03c1d574ef8a149feae033af8d2e5372b7464cda9fc7ea78f1b2f6bee2db80c91",
                    "logs" : "0x1dcc4de8dec75d7aab85b567b6ccd41ad312451b948a7413f0a142fd40d49347"
                },
                {
                    "indexes" : {
                        "data" : 29,
                        "gas" : 0,
                        "value" : 0
                    },
                    "hash" : "0xe3fa9527ff9f06a763782341a18636fab4beec3513dfee2920f020d9873f5f9d",
                    "txbytes" : "0x02f88d0101808207d0871000000000000094cccccccccccccccccccccccccccccccccccccccc80a4693c6139000000000000000000000000000000000000000000000000000000000000f5f2c001a09b408e94c6eb3ac94c7af4f4987a09f53c92a7c86a0010eed479f6da6f3bd5c1a00d727b2dce8f91c577b119dea04c9b3de8b4462f8048e86e730e7ee1edc3e532",
                    "logs" : "0x1dcc4de8dec75d7aab85b567b6ccd41ad312451b948a7413f0a142fd40d49347"
                },
                {
                    "indexes" : {
                        "data" : 30,
                        "gas" : 0,
                        "value" : 0
                    },
                    "hash" : "0x8285fff40141db6b68bbf1c49f9cf0fdd42cd60250b6e572e06fb645439035e5",
                    "txbytes" : "0x02f88d0101808207d0871000000000000094cccccccccccccccccccccccccccccccccccccccc80a4693c6139000000000000000000000000000000000000000000000000000000000000f0f4c001a0a4db60835b28e28e2839b8b58705db04cf975806b3e8b995682c666a85edb860a054c0c8a80578c42807ecaaa5ba66007d3e72eb2700303c0e3499dbf9f0d58fc7",
                    "logs" : "0x1dcc4de8dec75d7aab85b567b6ccd41ad312451b948a7413f0a142fd40d49347"
                },
                {
                    "indexes" : {
                        "data" : 31,
                        "gas" : 0,
                        "value" : 0
                    },
                    "hash" : "0xe7fc9ec5a6ff5bdcb7c4e02d84d84468042148afe8c14ec6ba3005fd5287fb2c",
                    "txbytes" : "0x02f88d0101808207d0871000000000000094cccccccccccccccccccccccccccccccccccccccc80a4693c6139000000000000000000000000000000000000000000000000000000000000f5f4c001a087d9b950923f5ed100fb8c739e98b384d4ba560bbc4592e947c66c7d52f3dae6a03151714546de8f7ad536a7c033e019c86d023ad6294dc4f1a7ccbbf61babb7cd",
                    "logs" : "0x1dcc4de8dec75d7aab85b567b6ccd41ad312451b948a7413f0a142fd40d49347"
                },
                {
                    "indexes" : {
                        "data" : 32,
                        "gas" : 0,
                        "value" : 0
                    },
                    "hash" : "0xf09e4a6132808da07b292d644e8bbbdf566d3df51a11d1b955907b1387757a52",
                    "txbytes" : "0x02f88d0101808207d0871000000000000094cccccccccccccccccccccccccccccccccccccccc80a4693c6139000000000000000000000000000000000000000000000000000000000000f0fac001a08ecab98d88a049405d31712ab9a26d22a9f698b7fb14d309ae1ae54e5d043a18a02dce365d6ab0a4aa2bcac59868b3ce7906aab14f9e462110a203db47c8dc7142",
                    "logs" : "0x1dcc4de8dec75d7aab85b567b6ccd41ad312451b948a7413f0a142fd40d49347"
                },
                {
                    "indexes" : {
                        "data" : 33,
                        "gas" : 0,
                        "value" : 0
                    },
                    "hash" : "0xea3954171d2ee1b81cc5b50fcfbdb8ca4ca0d08511b2dc937d0d4e89107eb4f3",
                    "txbytes" : "0x02f88d0101808207d0871000000000000094cccccccccccccccccccccccccccccccccccccccc80a4693c6139000000000000000000000000000000000000000000000000000000000000f5fac001a03b5293dfbd0a1db2e7afb4eb2e5593f39cd9ab037805d58178a0269564aae64ca0487fc73e65244872dc80f3804ffc619947ba0d515680c0fbb70871e67e8acff2",
                    "logs" : "0x1dcc4de8dec75d7aab85b567b6ccd41ad312451b948a7413f0a142fd40d49347"
                },
                {
                    "indexes" : {
                        "data" : 34,
                        "gas" : 0,
                        "value" : 0
                    },
                    "hash" : "0x2392e0eabca573dcb479f5ed000378ed7194e34697bb449a0bba94da84039c30",
                    "txbytes" : "0x02f88d0101808207d0871000000000000094cccccccccccccccccccccccccccccccccccccccc80a4693c613900000000000000000000000000000000000000000000000000000060baccfa57c080a0310e76a20de0f3b6d30e9a26e1bb0e4f812811c6454766434ae0e514a9f771b7a0406d43d01fcd606caf647b43c2ed8253247aa7421b244e76c19ae735875cb625",
                    "logs" : "0x1dcc4de8dec75d7aab85b567b6ccd41ad312451b948a7413f0a142fd40d49347"
                }
            ]
        },
        "pre" : {
            "0x000000000000000000000000000000000000c0de" : {
                "balance" : "0x0de0b6b3a7640000",
                "code" : "0x3a6000526000516040526021603ff3",
                "nonce" : "0x01",
                "storage" : {
                }
            },
            "0x000000000000000000000000000000000000ca11" : {
                "balance" : "0x0de0b6b3a7640000",
                "code" : "0x3a60005260206000f3",
                "nonce" : "0x01",
                "storage" : {
                }
            },
            "0x0000000000000000000000000000000000060006" : {
                "balance" : "0x0de0b6b3a7640000",
                "code" : "0x3a600052600051600055fe",
                "nonce" : "0x01",
                "storage" : {
                    "0x00" : "0x60a7"
                }
            },
            "0x000000000000000000000000000000000020c0de" : {
                "balance" : "0x0de0b6b3a7640000",
                "code" : "0x3a60005260206000f3",
                "nonce" : "0x01",
                "storage" : {
                }
            },
            "0x000000000000000000000000000000000060bacc" : {
                "balance" : "0x0de0b6b3a7640000",
                "code" : "0x3a60005260005160005560206000fd",
                "nonce" : "0x01",
                "storage" : {
                    "0x00" : "0x60a7"
                }
            },
            "0x00000000000000000000000000000000c0dec0de" : {
                "balance" : "0x0de0b6b3a7640000",
                "code" : "0x6220c0de803b8060006000843c806000f35050",
                "nonce" : "0x01",
                "storage" : {
                }
            },
            "0x00000000000000000000000000000000ca1100f1" : {
                "balance" : "0x0de0b6b3a7640000",
                "code" : "0x6020600060006000600061ca115af1151560195760206000fd5b60206000f3",
                "nonce" : "0x01",
                "storage" : {
                }
            },
            "0x00000000000000000000000000000000ca1100f2" : {
                "balance" : "0x0de0b6b3a7640000",
                "code" : "0x6020600060006000600061ca115af2151560195760206000fd5b60206000f3",
                "nonce" : "0x01",
                "storage" : {
                }
            },
            "0x00000000000000000000000000000000ca1100f4" : {
                "balance" : "0x0de0b6b3a7640000",
                "code" : "0x602060006000600061ca115af4151560175760206000fd5b60206000f3",
                "nonce" : "0x01",
                "storage" : {
                }
            },
            "0x00000000000000000000000000000000ca1100fa" : {
                "balance" : "0x0de0b6b3a7640000",
                "code" : "0x602060006000600061ca115afa151560175760206000fd5b60206000f3",
                "nonce" : "0x01",
                "storage" : {
                }
            },
            "0x00000000000000000000000000000000deaddead" : {
                "balance" : "0x0de0b6b3a7640000",
                "code" : "0x6000ff",
                "nonce" : "0x01",
                "storage" : {
                }
            },
            "0x00000000000000000000000000000060baccfa57" : {
                "balance" : "0x0de0b6b3a7640000",
                "code" : "0x60003560008114156014573a60005260206000f35b60018103600052602060006020600060006460baccfa575af1151560385760206000fd5b60206000f350",
                "nonce" : "0x01",
                "storage" : {
                }
            },
            "0xa94f5374fce5edbc8e2a8697c15331677e6ebf0b" : {
                "balance" : "0x3635c9adc5dea00000",
                "code" : "0x",
                "nonce" : "0x01",
                "storage" : {
                }
            },
            "0xcccccccccccccccccccccccccccccccccccccccc" : {
                "balance" : "0x0de0b6b3a7640000",
                "code" : "0x60043560016001602061c0de3b63c0dec0de3b6160a7600052856000811461015c5760f181146101655760f2811461017b5760f481146101915760fa81146101a55761f1f181146101b95761f2f181146101d15761f4f181146101e95761faf181146101ff5761f1f281146102155761f2f2811461022d5761f4f281146102455761faf2811461025b5761f1f481146102715761f2f481146102895761f4f481146102a15761faf481146102b75761f1fa81146102cd5761f2fa81146102e55761f4fa81146102fd5761fafa81146103135760fd81146103295760fe81146103645760ff81146103a15760f081146103dd5760f581146104005761f0f181146104265761f5f181146104525761f0f281146104815761f5f281146104a65761f0f481146104ce5761f5f481146104f15761f0fa81146105175761f5fa8114610541576460baccfa57811461056e5765bad0bad0bad0600052610589565b3a600052610589565b6020600060006000600061ca115af19550610589565b6020600060006000600061ca115af29550610589565b602060006000600061ca115af49550610589565b602060006000600061ca115afa9550610589565b6020600060006000600063ca1100f15af19550610589565b6020600060006000600063ca1100f15af29550610589565b602060006000600063ca1100f15af49550610589565b602060006000600063ca1100f15afa9550610589565b6020600060006000600063ca1100f25af19550610589565b6020600060006000600063ca1100f25af29550610589565b602060006000600063ca1100f25af49550610589565b602060006000600063ca1100f25afa9550610589565b6020600060006000600063ca1100f45af19550610589565b6020600060006000600063ca1100f45af29550610589565b602060006000600063ca1100f45af49550610589565b602060006000600063ca1100f45afa9550610589565b6020600060006000600063ca1100fa5af19550610589565b6020600060006000600063ca1100fa5af29550610589565b602060006000600063ca1100fa5af49550610589565b602060006000600063ca1100fa5afa9550610589565b3a600052600051600055600060006000600060006260bacc5af1503a60005260005160005414151561035f57640badbadbad6000525b610589565b3a60005260005160005560006000600060006000620600066161a8f1503a60005260005160005414151561039c57640badbadbad6000525b610589565b3a6000526000516000556000600060006000600063deaddead5af1503a6000526000516000541415156103d857640badbadbad6000525b610589565b8260008561c0de3c8284670de0b6b3a7640000f09450602060016000873c610589565b8260008561c0de3c615a178385670de0b6b3a7640000f59450602060016000873c610589565b8160008563c0dec0de3c8184670de0b6b3a7640000f0945060206000600060006000895af19550610589565b8160008563c0dec0de3c615a178285670de0b6b3a7640000f5945060206000600060006000895af19550610589565b8160008563c0dec0de3c81846000f0945060206000600060006000895af29550610589565b8160008563c0dec0de3c615a1782856000f5945060206000600060006000895af29550610589565b8160008563c0dec0de3c81846000f094506020600060006000885af49550610589565b8160008563c0dec0de3c615a1782856000f594506020600060006000885af49550610589565b8160008563c0dec0de3c8184670de0b6b3a7640000f094506020600060006000885afa9550610589565b8160008563c0dec0de3c615a178285670de0b6b3a7640000f594506020600060006000885afa9550610589565b6103ff600052602060006020600060006460baccfa575af195505b508415156105975760206000fd5b8315156105a45760206000fd5b600051600055505050505050",
                "nonce" : "0x01",
                "storage" : {
                    "0x00" : "0x60a7"
                }
            }
        },
        "transaction" : {
            "data" : [
                "0x693c61390000000000000000000000000000000000000000000000000000000000000000",
                "0x693c613900000000000000000000000000000000000000000000000000000000000000f1",
                "0x693c613900000000000000000000000000000000000000000000000000000000000000f2",
                "0x693c613900000000000000000000000000000000000000000000000000000000000000f4",
                "0x693c613900000000000000000000000000000000000000000000000000000000000000fa",
                "0x693c6139000000000000000000000000000000000000000000000000000000000000f1f1",
                "0x693c6139000000000000000000000000000000000000000000000000000000000000f2f1",
                "0x693c6139000000000000000000000000000000000000000000000000000000000000f4f1",
                "0x693c6139000000000000000000000000000000000000000000000000000000000000faf1",
                "0x693c6139000000000000000000000000000000000000000000000000000000000000f1f2",
                "0x693c6139000000000000000000000000000000000000000000000000000000000000f2f2",
                "0x693c6139000000000000000000000000000000000000000000000000000000000000f4f2",
                "0x693c6139000000000000000000000000000000000000000000000000000000000000faf2",
                "0x693c6139000000000000000000000000000000000000000000000000000000000000f1f4",
                "0x693c6139000000000000000000000000000000000000000000000000000000000000f2f4",
                "0x693c6139000000000000000000000000000000000000000000000000000000000000f4f4",
                "0x693c6139000000000000000000000000000000000000000000000000000000000000faf4",
                "0x693c6139000000000000000000000000000000000000000000000000000000000000f1fa",
                "0x693c6139000000000000000000000000000000000000000000000000000000000000f2fa",
                "0x693c6139000000000000000000000000000000000000000000000000000000000000f4fa",
                "0x693c6139000000000000000000000000000000000000000000000000000000000000fafa",
                "0x693c613900000000000000000000000000000000000000000000000000000000000000fd",
                "0x693c613900000000000000000000000000000000000000000000000000000000000000fe",
                "0x693c613900000000000000000000000000000000000000000000000000000000000000ff",
                "0x693c613900000000000000000000000000000000000000000000000000000000000000f0",
                "0x693c613900000000000000000000000000000000000000000000000000000000000000f5",
                "0x693c6139000000000000000000000000000000000000000000000000000000000000f0f1",
                "0x693c6139000000000000000000000000000000000000000000000000000000000000f5f1",
                "0x693c6139000000000000000000000000000000000000000000000000000000000000f0f2",
                "0x693c6139000000000000000000000000000000000000000000000000000000000000f5f2",
                "0x693c6139000000000000000000000000000000000000000000000000000000000000f0f4",
                "0x693c6139000000000000000000000000000000000000000000000000000000000000f5f4",
                "0x693c6139000000000000000000000000000000000000000000000000000000000000f0fa",
                "0x693c6139000000000000000000000000000000000000000000000000000000000000f5fa",
                "0x693c613900000000000000000000000000000000000000000000000000000060baccfa57"
            ],
            "accessLists" : [
                [
                ],
                [
                ],
                [
                ],
                [
                ],
                [
                ],
                [
                ],
                [
                ],
                [
                ],
                [
                ],
                [
                ],
                [
                ],
                [
                ],
                [
                ],
                [
                ],
                [
                ],
                [
                ],
                [
                ],
                [
                ],
                [
                ],
                [
                ],
                [
                ],
                [
                ],
                [
                ],
                [
                ],
                [
                ],
                [
                ],
                [
                ],
                [
                ],
                [
                ],
                [
                ],
                [
                ],
                [
                ],
                [
                ],
                [
                ],
                [
                ]
            ],
            "maxFeePerGas" : "0x07d0",
            "maxPriorityFeePerGas" : "0x00",
            "gasLimit" : [
                "0x10000000000000"
            ],
            "nonce" : "0x01",
            "secretKey" : "0x45a915e4d060149eb4365960e6a7a45f334393093061116b197e3240065ff2d8",
            "to" : "0xcccccccccccccccccccccccccccccccccccccccc",
            "value" : [
                "0x00"
            ]
        }
    }
}