{
    "lowGasLimit" : {
        "_info" : {
            "comment" : "Ori Pomerantz qbzzt1@gmail.com",
            "filling-rpc-server" : "evm version 1.13.13-unstable-034bc466-20240219",
            "filling-tool-version" : "retesteth-0.3.2-cancun+commit.014a68a5.Linux.g++",
            "generatedTestHash" : "9d0e68cc55e0538b0b3f0401bd1c59305b14652120a842891e11663751c89b6d",
            "lllcversion" : "Version: 0.5.14-develop.2023.7.11+commit.c58ab2c6.mod.Linux.g++",
            "solidity" : "Version: 0.8.21+commit.d9974bed.Linux.g++",
            "source" : "src/GeneralStateTestsFiller/stEIP1559/lowGasLimitFiller.yml",
            "sourceHash" : "7b961424ace8134a938bdefd205b6eefd68f6a514d0603d4848a758e25f92213"
        },
        "env" : {
            "currentBaseFee" : "0x03e8",
            "currentCoinbase" : "0x2adc25665018aa1fe0e6bc666dac8fc2697ff9ba",
            "currentDifficulty" : "0x020000",
            "currentExcessBlobGas" : "0x00",
            "currentGasLimit" : "0x013880",
            "currentNumber" : "0x01",
            "currentRandom" : "0x0000000000000000000000000000000000000000000000000000000000020000",
            "currentTimestamp" : "0x03e8"
        },
        "post" : {
            "Cancun" : [
                {
                    "expectException" : "TR_GasLimitReached",
                    "hash" : "0x2e5dda7ebcd8d80c0b0426ab70c0202068a67ebbd4927083f17780f29d19c6b6",
                    "indexes" : {
                        "data" : 0,
                        "gas" : 0,
                        "value" : 0
                    },
                    "logs" : "0x1dcc4de8dec75d7aab85b567b6ccd41ad312451b948a7413f0a142fd40d49347",
                    "txbytes" : "0x02f86701018203e88203e883015f9094cccccccccccccccccccccccccccccccccccccccc8000c001a0d116bcf69c336794ee7a497bbafba8dcaab4d8df659b862b29151189bbadf53ea04f9437f843e0785a4b642e55592e86eb530ff853fe631832ded1026296649907"
                },
                {
                    "hash" : "0x3098d2f4f3cc6a70f10b82d94d5a7d1dc0cf7d974b2b8cf5943d440199f83901",
                    "indexes" : {
                        "data" : 0,
                        "gas" : 1,
                        "value" : 0
                    },
                    "logs" : "0x1dcc4de8dec75d7aab85b567b6ccd41ad312451b948a7413f0a142fd40d49347",
                    "txbytes" : "0x02f86601018203e88203e882c35094cccccccccccccccccccccccccccccccccccccccc8000c080a05cd8d86e9511a4c005f2f05fb418efcfd67243ecfcdc49b68f7738a20984d4d2a03fd46728a0b6b72250e42f6e78337482dc88971847588526f06f1bdb7d82ecce"
                },
                {
                    "hash" : "0x43ae29dd1560abec76c1617716de16eb7aec8e895073c43adab6cb89b638dfb1",
                    "indexes" : {
                        "data" : 0,
                        "gas" : 2,
                        "value" : 0
                    },
                    "logs" : "0x1dcc4de8dec75d7aab85b567b6ccd41ad312451b948a7413f0a142fd40d49347",
                    "txbytes" : "0x02f86601018203e88203e88261a894cccccccccccccccccccccccccccccccccccccccc8000c001a0129b06778a71bd179f78a616cf15d0322935c733c9b95363c932e82dc7d9a3eda0126e02c12db989ec6d3851b73a49ad1b0a63a786a8454a386294b5202ab5c958"
                },
                {
                    "expectException" : "TR_IntrinsicGas",
                    "hash" : "0x2e5dda7ebcd8d80c0b0426ab70c0202068a67ebbd4927083f17780f29d19c6b6",
                    "indexes" : {
                        "data" : 0,
                        "gas" : 3,
                        "value" : 0
                    },
                    "logs" : "0x1dcc4de8dec75d7aab85b567b6ccd41ad312451b948a7413f0a142fd40d49347",
                    "txbytes" : "0x02f86601018203e88203e8824e2094cccccccccccccccccccccccccccccccccccccccc8000c080a0d60857a60776af9a5e8735b4c4b3df63b43904520c7a4941f8bbb635185c7a53a03a19f2f00a663c3c04142fb7518ff4ea1a752359411ea8406e53d6fee26aa0ec"
                }
            ],
            "London" : [
                {
                    "expectException" : "TR_GasLimitReached",
                    "hash" : "0x187f2521350906cc1af0600c1415b477528a9f9d15066986aeb2215e6124e5e2",
                    "indexes" : {
                        "data" : 0,
                        "gas" : 0,
                        "value" : 0
                    },
                    "logs" : "0x1dcc4de8dec75d7aab85b567b6ccd41ad312451b948a7413f0a142fd40d49347",
                    "txbytes" : "0x02f86701018203e88203e883015f9094cccccccccccccccccccccccccccccccccccccccc8000c001a0d116bcf69c336794ee7a497bbafba8dcaab4d8df659b862b29151189bbadf53ea04f9437f843e0785a4b642e55592e86eb530ff853fe631832ded1026296649907"
                },
                {
                    "hash" : "0x89ed3acd0a9f87f686bbf56885a04ae26dc0c576f7e810008b8286bb606cfe32",
                    "indexes" : {
                        "data" : 0,
                        "gas" : 1,
                        "value" : 0
                    },
                    "logs" : "0x1dcc4de8dec75d7aab85b567b6ccd41ad312451b948a7413f0a142fd40d49347",
                    "txbytes" : "0x02f86601018203e88203e882c35094cccccccccccccccccccccccccccccccccccccccc8000c080a05cd8d86e9511a4c005f2f05fb418efcfd67243ecfcdc49b68f7738a20984d4d2a03fd46728a0b6b72250e42f6e78337482dc88971847588526f06f1bdb7d82ecce"
                },
                {
                    "hash" : "0x790bac5181d9477fcc98a7a344c4f836e37da1a05b0db27dddb431c2084bf34c",
                    "indexes" : {
                        "data" : 0,
                        "gas" : 2,
                        "value" : 0
                    },
                    "logs" : "0x1dcc4de8dec75d7aab85b567b6ccd41ad312451b948a7413f0a142fd40d49347",
                    "txbytes" : "0x02f86601018203e88203e88261a894cccccccccccccccccccccccccccccccccccccccc8000c001a0129b06778a71bd179f78a616cf15d0322935c733c9b95363c932e82dc7d9a3eda0126e02c12db989ec6d3851b73a49ad1b0a63a786a8454a386294b5202ab5c958"
                },
                {
                    "expectException" : "TR_IntrinsicGas",
                    "hash" : "0x187f2521350906cc1af0600c1415b477528a9f9d15066986aeb2215e6124e5e2",
                    "indexes" : {
                        "data" : 0,
                        "gas" : 3,
                        "value" : 0
                    },
                    "logs" : "0x1dcc4de8dec75d7aab85b567b6ccd41ad312451b948a7413f0a142fd40d49347",
                    "txbytes" : "0x02f86601018203e88203e8824e2094cccccccccccccccccccccccccccccccccccccccc8000c080a0d60857a60776af9a5e8735b4c4b3df63b43904520c7a4941f8bbb635185c7a53a03a19f2f00a663c3c04142fb7518ff4ea1a752359411ea8406e53d6fee26aa0ec"
                }
            ],
            "Paris" : [
                {
                    "expectException" : "TR_GasLimitReached",
                    "hash" : "0x187f2521350906cc1af0600c1415b477528a9f9d15066986aeb2215e6124e5e2",
                    "indexes" : {
                        "data" : 0,
                        "gas" : 0,
                        "value" : 0
                    },
                    "logs" : "0x1dcc4de8dec75d7aab85b567b6ccd41ad312451b948a7413f0a142fd40d49347",
                    "txbytes" : "0x02f86701018203e88203e883015f9094cccccccccccccccccccccccccccccccccccccccc8000c001a0d116bcf69c336794ee7a497bbafba8dcaab4d8df659b862b29151189bbadf53ea04f9437f843e0785a4b642e55592e86eb530ff853fe631832ded1026296649907"
                },
                {
                    "hash" : "0x89ed3acd0a9f87f686bbf56885a04ae26dc0c576f7e810008b8286bb606cfe32",
                    "indexes" : {
                        "data" : 0,
                        "gas" : 1,
                        "value" : 0
                    },
                    "logs" : "0x1dcc4de8dec75d7aab85b567b6ccd41ad312451b948a7413f0a142fd40d49347",
                    "txbytes" : "0x02f86601018203e88203e882c35094cccccccccccccccccccccccccccccccccccccccc8000c080a05cd8d86e9511a4c005f2f05fb418efcfd67243ecfcdc49b68f7738a20984d4d2a03fd46728a0b6b72250e42f6e78337482dc88971847588526f06f1bdb7d82ecce"
                },
                {
                    "hash" : "0x790bac5181d9477fcc98a7a344c4f836e37da1a05b0db27dddb431c2084bf34c",
                    "indexes" : {
                        "data" : 0,
                        "gas" : 2,
                        "value" : 0
                    },
                    "logs" : "0x1dcc4de8dec75d7aab85b567b6ccd41ad312451b948a7413f0a142fd40d49347",
                    "txbytes" : "0x02f86601018203e88203e88261a894cccccccccccccccccccccccccccccccccccccccc8000c001a0129b06778a71bd179f78a616cf15d0322935c733c9b95363c932e82dc7d9a3eda0126e02c12db989ec6d3851b73a49ad1b0a63a786a8454a386294b5202ab5c958"
                },
                {
                    "expectException" : "TR_IntrinsicGas",
                    "hash" : "0x187f2521350906cc1af0600c1415b477528a9f9d15066986aeb2215e6124e5e2",
                    "indexes" : {
                        "data" : 0,
                        "gas" : 3,
                        "value" : 0
                    },
                    "logs" : "0x1dcc4de8dec75d7aab85b567b6ccd41ad312451b948a7413f0a142fd40d49347",
                    "txbytes" : "0x02f86601018203e88203e8824e2094cccccccccccccccccccccccccccccccccccccccc8000c080a0d60857a60776af9a5e8735b4c4b3df63b43904520c7a4941f8bbb635185c7a53a03a19f2f00a663c3c04142fb7518ff4ea1a752359411ea8406e53d6fee26aa0ec"
                }
            ],
            "Shanghai" : [
                {
                    "expectException" : "TR_GasLimitReached",
                    "hash" : "0x187f2521350906cc1af0600c1415b477528a9f9d15066986aeb2215e6124e5e2",
                    "indexes" : {
                        "data" : 0,
                        "gas" : 0,
                        "value" : 0
                    },
                    "logs" : "0x1dcc4de8dec75d7aab85b567b6ccd41ad312451b948a7413f0a142fd40d49347",
                    "txbytes" : "0x02f86701018203e88203e883015f9094cccccccccccccccccccccccccccccccccccccccc8000c001a0d116bcf69c336794ee7a497bbafba8dcaab4d8df659b862b29151189bbadf53ea04f9437f843e0785a4b642e55592e86eb530ff853fe631832ded1026296649907"
                },
                {
                    "hash" : "0x89ed3acd0a9f87f686bbf56885a04ae26dc0c576f7e810008b8286bb606cfe32",
                    "indexes" : {
                        "data" : 0,
                        "gas" : 1,
                        "value" : 0
                    },
                    "logs" : "0x1dcc4de8dec75d7aab85b567b6ccd41ad312451b948a7413f0a142fd40d49347",
                    "txbytes" : "0x02f86601018203e88203e882c35094cccccccccccccccccccccccccccccccccccccccc8000c080a05cd8d86e9511a4c005f2f05fb418efcfd67243ecfcdc49b68f7738a20984d4d2a03fd46728a0b6b72250e42f6e78337482dc88971847588526f06f1bdb7d82ecce"
                },
                {
                    "hash" : "0x790bac5181d9477fcc98a7a344c4f836e37da1a05b0db27dddb431c2084bf34c",
                    "indexes" : {
                        "data" : 0,
                        "gas" : 2,
                        "value" : 0
                    },
                    "logs" : "0x1dcc4de8dec75d7aab85b567b6ccd41ad312451b948a7413f0a142fd40d49347",
                    "txbytes" : "0x02f86601018203e88203e88261a894cccccccccccccccccccccccccccccccccccccccc8000c001a0129b06778a71bd179f78a616cf15d0322935c733c9b95363c932e82dc7d9a3eda0126e02c12db989ec6d3851b73a49ad1b0a63a786a8454a386294b5202ab5c958"
                },
                {
                    "expectException" : "TR_IntrinsicGas",
                    "hash" : "0x187f2521350906cc1af0600c1415b477528a9f9d15066986aeb2215e6124e5e2",
                    "indexes" : {
                        "data" : 0,
                        "gas" : 3,
                        "value" : 0
                    },
                    "logs" : "0x1dcc4de8dec75d7aab85b567b6ccd41ad312451b948a7413f0a142fd40d49347",
                    "txbytes" : "0x02f86601018203e88203e8824e2094cccccccccccccccccccccccccccccccccccccccc8000c080a0d60857a60776af9a5e8735b4c4b3df63b43904520c7a4941f8bbb635185c7a53a03a19f2f00a663c3c04142fb7518ff4ea1a752359411ea8406e53d6fee26aa0ec"
                }
            ]
        },
        "pre" : {
            "0x000f3df6d732807ef1319fb7b8bb8522d0beac02" : {
                "balance" : "0x00",
                "code" : "0x3373fffffffffffffffffffffffffffffffffffffffe14604d57602036146024575f5ffd5b5f35801560495762001fff810690815414603c575f5ffd5b62001fff01545f5260205ff35b5f5ffd5b62001fff42064281555f359062001fff015500",
                "nonce" : "0x01",
                "storage" : {
                }
            },
            "0xa94f5374fce5edbc8e2a8697c15331677e6ebf0b" : {
                "balance" : "0x0de0b6b3a7640000",
                "code" : "0x",
                "nonce" : "0x01",
                "storage" : {
                }
            },
            "0xcccccccccccccccccccccccccccccccccccccccc" : {
                "balance" : "0x0de0b6b3a7640000",
                "code" : "0x600260005500",
                "nonce" : "0x00",
                "storage" : {
                    "0x00" : "0x60a7"
                }
            }
        },
        "transaction" : {
            "accessLists" : [
                [
                ]
            ],
            "data" : [
                "0x00"
            ],
            "gasLimit" : [
                "0x015f90",
                "0xc350",
                "0x61a8",
                "0x4e20"
            ],
            "maxFeePerGas" : "0x03e8",
            "maxPriorityFeePerGas" : "0x03e8",
            "nonce" : "0x01",
            "secretKey" : "0x45a915e4d060149eb4365960e6a7a45f334393093061116b197e3240065ff2d8",
            "sender" : "0xa94f5374fce5edbc8e2a8697c15331677e6ebf0b",
            "to" : "0xcccccccccccccccccccccccccccccccccccccccc",
            "value" : [
                "0x00"
            ]
        }
    }
}