{
    "lowGasPriceOldTypes" : {
        "_info" : {
            "comment" : "Ori Pomerantz qbzzt1@gmail.com",
            "filling-rpc-server" : "evm version 1.11.4-unstable-e14043db-20230308",
            "filling-tool-version" : "retesteth-0.3.0-shanghai+commit.fd2c0a83.Linux.g++",
            "generatedTestHash" : "32435785ee2d414e56ce879b87b6f872baf943ada488cc9ebbcda2fdf2a11e1a",
            "lllcversion" : "Version: 0.5.14-develop.2022.7.30+commit.a096d7a9.Linux.g++",
            "solidity" : "Version: 0.8.17+commit.8df45f5f.Linux.g++",
            "source" : "src/GeneralStateTestsFiller/stEIP1559/lowGasPriceOldTypesFiller.yml",
            "sourceHash" : "1ada0a0690db7e30673f8367c3d4e63cf48c3fab00c7db7be6b2c19863d34480"
        },
        "env" : {
            "currentBaseFee" : "0x03e8",
            "currentCoinbase" : "0x2adc25665018aa1fe0e6bc666dac8fc2697ff9ba",
            "currentDifficulty" : "0x020000",
            "currentGasLimit" : "0xff112233445566",
            "currentNumber" : "0x01",
            "currentRandom" : "0x0000000000000000000000000000000000000000000000000000000000020000",
            "currentTimestamp" : "0x03e8",
            "previousHash" : "0x5e20a0453cecd065ea59c37ac63e079ee08998b6045136a8ce6635c7912ec0b6"
        },
        "post" : {
            "London" : [
                {
                    "expectException" : "TR_FeeCapLessThanBlocks",
                    "hash" : "0xbe57f760a74706ecb4287298e4bab95049107d6d6970f0d8f6386b6fee196c1e",
                    "indexes" : {
                        "data" : 0,
                        "gas" : 0,
                        "value" : 0
                    },
                    "logs" : "0x1dcc4de8dec75d7aab85b567b6ccd41ad312451b948a7413f0a142fd40d49347",
                    "txbytes" : "0xf865018203e783061a8094cccccccccccccccccccccccccccccccccccccccc830186a0001ca0d774d2b0990371752a5b348c246e7004a8561a924c5034e7c9d2fd32b4f2c39da00ef3f0e7e5b602fa987064056f13ed48f573cfbbe5128c7a54e51ab5f0c0f4c7"
                },
                {
                    "expectException" : "TR_FeeCapLessThanBlocks",
                    "hash" : "0xbe57f760a74706ecb4287298e4bab95049107d6d6970f0d8f6386b6fee196c1e",
                    "indexes" : {
                        "data" : 1,
                        "gas" : 0,
                        "value" : 0
                    },
                    "logs" : "0x1dcc4de8dec75d7aab85b567b6ccd41ad312451b948a7413f0a142fd40d49347",
                    "txbytes" : "0x01f86701018203e783061a8094cccccccccccccccccccccccccccccccccccccccc830186a001c080a071d41e66f218b09ba0bf90491584fc8a63ec62078c5e86f964456146e5fc3b8ba06757f546fdd4d4505be1e5373174f7d5706f5f5fcf8e89ca8663767a16cd682c"
                }
            ],
            "Merge" : [
                {
                    "expectException" : "TR_FeeCapLessThanBlocks",
                    "hash" : "0xbe57f760a74706ecb4287298e4bab95049107d6d6970f0d8f6386b6fee196c1e",
                    "indexes" : {
                        "data" : 0,
                        "gas" : 0,
                        "value" : 0
                    },
                    "logs" : "0x1dcc4de8dec75d7aab85b567b6ccd41ad312451b948a7413f0a142fd40d49347",
                    "txbytes" : "0xf865018203e783061a8094cccccccccccccccccccccccccccccccccccccccc830186a0001ca0d774d2b0990371752a5b348c246e7004a8561a924c5034e7c9d2fd32b4f2c39da00ef3f0e7e5b602fa987064056f13ed48f573cfbbe5128c7a54e51ab5f0c0f4c7"
                },
                {
                    "expectException" : "TR_FeeCapLessThanBlocks",
                    "hash" : "0xbe57f760a74706ecb4287298e4bab95049107d6d6970f0d8f6386b6fee196c1e",
                    "indexes" : {
                        "data" : 1,
                        "gas" : 0,
                        "value" : 0
                    },
                    "logs" : "0x1dcc4de8dec75d7aab85b567b6ccd41ad312451b948a7413f0a142fd40d49347",
                    "txbytes" : "0x01f86701018203e783061a8094cccccccccccccccccccccccccccccccccccccccc830186a001c080a071d41e66f218b09ba0bf90491584fc8a63ec62078c5e86f964456146e5fc3b8ba06757f546fdd4d4505be1e5373174f7d5706f5f5fcf8e89ca8663767a16cd682c"
                }
            ],
            "Shanghai" : [
                {
                    "expectException" : "TR_FeeCapLessThanBlocks",
                    "hash" : "0xbe57f760a74706ecb4287298e4bab95049107d6d6970f0d8f6386b6fee196c1e",
                    "indexes" : {
                        "data" : 0,
                        "gas" : 0,
                        "value" : 0
                    },
                    "logs" : "0x1dcc4de8dec75d7aab85b567b6ccd41ad312451b948a7413f0a142fd40d49347",
                    "txbytes" : "0xf865018203e783061a8094cccccccccccccccccccccccccccccccccccccccc830186a0001ca0d774d2b0990371752a5b348c246e7004a8561a924c5034e7c9d2fd32b4f2c39da00ef3f0e7e5b602fa987064056f13ed48f573cfbbe5128c7a54e51ab5f0c0f4c7"
                },
                {
                    "expectException" : "TR_FeeCapLessThanBlocks",
                    "hash" : "0xbe57f760a74706ecb4287298e4bab95049107d6d6970f0d8f6386b6fee196c1e",
                    "indexes" : {
                        "data" : 1,
                        "gas" : 0,
                        "value" : 0
                    },
                    "logs" : "0x1dcc4de8dec75d7aab85b567b6ccd41ad312451b948a7413f0a142fd40d49347",
                    "txbytes" : "0x01f86701018203e783061a8094cccccccccccccccccccccccccccccccccccccccc830186a001c080a071d41e66f218b09ba0bf90491584fc8a63ec62078c5e86f964456146e5fc3b8ba06757f546fdd4d4505be1e5373174f7d5706f5f5fcf8e89ca8663767a16cd682c"
                }
            ]
        },
        "pre" : {
            "0xa94f5374fce5edbc8e2a8697c15331677e6ebf0b" : {
                "balance" : "0x0de0b6b3a7640000",
                "code" : "0x",
                "nonce" : "0x01",
                "storage" : {
                }
            },
            "0xcccccccccccccccccccccccccccccccccccccccc" : {
                "balance" : "0x0de0b6b3a7640000",
                "code" : "0x60018001600055",
                "nonce" : "0x00",
                "storage" : {
                }
            }
        },
        "transaction" : {
            "accessLists" : [
                null,
                [
                ]
            ],
            "data" : [
                "0x00",
                "0x01"
            ],
            "gasLimit" : [
                "0x061a80"
            ],
            "gasPrice" : "0x03e7",
            "nonce" : "0x01",
            "secretKey" : "0x45a915e4d060149eb4365960e6a7a45f334393093061116b197e3240065ff2d8",
            "sender" : "0xa94f5374fce5edbc8e2a8697c15331677e6ebf0b",
            "to" : "0xcccccccccccccccccccccccccccccccccccccccc",
            "value" : [
                "0x0186a0"
            ]
        }
    }
}