{
    "outOfFunds" : {
        "_info" : {
            "comment" : "Ori Pomerantz qbzzt1@gmail.com",
            "filling-rpc-server" : "evm version 1.10.7-unstable-a1f16bc7-20210722",
            "filling-tool-version" : "retesteth-0.1.2-london-spdataobj+commit.59f93d81.Linux.g++",
            "lllcversion" : "Version: 0.5.14-develop.2021.6.15+commit.401d5358.Linux.g++",
            "source" : "src/GeneralStateTestsFiller/stEIP1559/outOfFundsFiller.yml",
            "sourceHash" : "34dc0b8b181cb7305d34ab9faf50704241d81f7cd69a72fe0940e009b887540c",
            "labels" : {
                "0" : ":label declaredKeyWrite",
                "0" : ":label declaredKeyWrite",
                "0" : ":label declaredKeyWrite",
                "0" : ":label declaredKeyWrite"
            }
        },
        "env" : {
            "currentCoinbase" : "0x2adc25665018aa1fe0e6bc666dac8fc2697ff9ba",
            "currentDifficulty" : "0x020000",
            "currentNumber" : "0x01",
            "currentTimestamp" : "0x03e8",
            "previousHash" : "0x5e20a0453cecd065ea59c37ac63e079ee08998b6045136a8ce6635c7912ec0b6",
            "currentGasLimit" : "0xff112233445566",
            "currentBaseFee" : "0x03e8"
        },
        "post" : {
            "London" : [
                {
                    "indexes" : {
                        "data" : 0,
                        "gas" : 0,
                        "value" : 0
                    },
                    "hash" : "0x500ddcebbfe42e15e3d8b5a3344b569cc5820e13d432e69b346a416bb1817491",
                    "txbytes" : "0x02f87001018502540be4008502540be40086246139ca800094cccccccccccccccccccccccccccccccccccccccc8000c001a0e07fb8a64ea3786c9a6649e54429e2786af3ea31c6d06165346678cf8ce44f9ba00e4a0526db1e905b7164a858fd5ebd2f1759e22e6955499448bd276a6aa62830",
                    "expectException" : "TR_NoFunds",
                    "logs" : "0x1dcc4de8dec75d7aab85b567b6ccd41ad312451b948a7413f0a142fd40d49347"
                },
                {
                    "indexes" : {
                        "data" : 0,
                        "gas" : 0,
                        "value" : 1
                    },
                    "hash" : "0x500ddcebbfe42e15e3d8b5a3344b569cc5820e13d432e69b346a416bb1817491",
                    "txbytes" : "0x02f87801018502540be4008502540be40086246139ca800094cccccccccccccccccccccccccccccccccccccccc880de0b6b3a764000000c080a0bbfcd99eb54d9dc66a90bb782a4af215ece4c70599d9af1fb526cc9d75dcb415a0024ac0fbe3ce985da107d75587597f35e8b9089438d408ff19f8cdd2c63a1472",
                    "expectException" : "TR_NoFunds",
                    "logs" : "0x1dcc4de8dec75d7aab85b567b6ccd41ad312451b948a7413f0a142fd40d49347"
                },
                {
                    "indexes" : {
                        "data" : 0,
                        "gas" : 1,
                        "value" : 0
                    },
                    "hash" : "0xcfc3199ebc66e160f6c10c5f832d563ce9fefd9440928848256b7606f2e92972",
                    "txbytes" : "0x02f86c01018502540be4008502540be400829c4094cccccccccccccccccccccccccccccccccccccccc8000c080a04526fedd497cd925b5b6e64701b79c60e3f22914045e7ae5e479c6ba98d6fb2aa05d3ac6ca6f788dd577d6e0470a2e5e9c97c7fd3278ee7d4e9d7ea9bc9b2605e6",
                    "logs" : "0x1dcc4de8dec75d7aab85b567b6ccd41ad312451b948a7413f0a142fd40d49347"
                },
                {
                    "indexes" : {
                        "data" : 0,
                        "gas" : 1,
                        "value" : 1
                    },
                    "hash" : "0x500ddcebbfe42e15e3d8b5a3344b569cc5820e13d432e69b346a416bb1817491",
                    "txbytes" : "0x02f87401018502540be4008502540be400829c4094cccccccccccccccccccccccccccccccccccccccc880de0b6b3a764000000c080a023cc80ef697d37093ff4756a780ebd8c3528e721445768d5ceb13627b2fd64eea05580462e88d28c3fa87b88880364f4d636b8d8ff64bf898988f861d8d0d346ec",
                    "expectException" : "TR_NoFunds",
                    "logs" : "0x1dcc4de8dec75d7aab85b567b6ccd41ad312451b948a7413f0a142fd40d49347"
                }
            ]
        },
        "pre" : {
            "0xa94f5374fce5edbc8e2a8697c15331677e6ebf0b" : {
                "balance" : "0x0de0b6b3a7640000",
                "code" : "0x",
                "nonce" : "0x01",
                "storage" : {
                }
            },
            "0xcccccccccccccccccccccccccccccccccccccccc" : {
                "balance" : "0x0de0b6b3a7640000",
                "code" : "0x6001600101600055",
                "nonce" : "0x00",
                "storage" : {
                }
            }
        },
        "transaction" : {
            "data" : [
                "0x00"
            ],
            "accessLists" : [
                [
                ]
            ],
            "maxFeePerGas" : "0x02540be400",
            "maxPriorityFeePerGas" : "0x02540be400",
            "gasLimit" : [
                "0x246139ca8000",
                "0x9c40"
            ],
            "nonce" : "0x01",
            "secretKey" : "0x45a915e4d060149eb4365960e6a7a45f334393093061116b197e3240065ff2d8",
            "to" : "0xcccccccccccccccccccccccccccccccccccccccc",
            "value" : [
                "0x00",
                "0x0de0b6b3a7640000"
            ]
        }
    }
}