{
    "typeTwoBerlin" : {
        "_info" : {
            "comment" : "Ori Pomerantz qbzzt1@gmail.com",
            "filling-rpc-server" : "evm version 1.13.13-unstable-034bc466-20240219",
            "filling-tool-version" : "retesteth-0.3.2-cancun+commit.014a68a5.Linux.g++",
            "generatedTestHash" : "ff6e75f6e3df023b3d9e35e4b1ae6b54351ae10661ce8ec6fdba05b7620a7c0f",
            "labels" : {
                "0" : "declaredKeyWrite"
            },
            "lllcversion" : "Version: 0.5.14-develop.2023.7.11+commit.c58ab2c6.mod.Linux.g++",
            "solidity" : "Version: 0.8.21+commit.d9974bed.Linux.g++",
            "source" : "src/GeneralStateTestsFiller/stEIP1559/typeTwoBerlinFiller.yml",
            "sourceHash" : "620e0b4295220c16b4aabefa5f44fcab1b0673df248cb8b255018fe4f86b2169"
        },
        "env" : {
            "currentBaseFee" : "0x03e8",
            "currentCoinbase" : "0x2adc25665018aa1fe0e6bc666dac8fc2697ff9ba",
            "currentDifficulty" : "0x020000",
            "currentExcessBlobGas" : "0x00",
            "currentGasLimit" : "0xff112233445566",
            "currentNumber" : "0x01",
            "currentRandom" : "0x0000000000000000000000000000000000000000000000000000000000020000",
            "currentTimestamp" : "0x03e8"
        },
        "post" : {
            "Berlin" : [
                {
                    "expectException" : "TR_TypeNotSupported",
                    "hash" : "0xb7d1104782d1787ab40414a216f2166ded929a65ed4dd2da4993ea2a0a24b1d6",
                    "indexes" : {
                        "data" : 0,
                        "gas" : 0,
                        "value" : 0
                    },
                    "logs" : "0x1dcc4de8dec75d7aab85b567b6ccd41ad312451b948a7413f0a142fd40d49347",
                    "txbytes" : "0x02f86a01018203e88203e883061a8094cccccccccccccccccccccccccccccccccccccccc830186a000c001a031616d40ae792e8f02c4eb3a46a0b29f74c7025c0d95b14bed325c2e88e0aef8a010c151566d00f2050f75740f954d115c038e1a56a2b5bb459c3ef644145ca625"
                }
            ],
            "Cancun" : [
                {
                    "hash" : "0x4a86caa1ae5cb0d075a14dca7dd8387eebe8214de125228f0a843457a2e367b3",
                    "indexes" : {
                        "data" : 0,
                        "gas" : 0,
                        "value" : 0
                    },
                    "logs" : "0x1dcc4de8dec75d7aab85b567b6ccd41ad312451b948a7413f0a142fd40d49347",
                    "txbytes" : "0x02f86a01018203e88203e883061a8094cccccccccccccccccccccccccccccccccccccccc830186a000c001a031616d40ae792e8f02c4eb3a46a0b29f74c7025c0d95b14bed325c2e88e0aef8a010c151566d00f2050f75740f954d115c038e1a56a2b5bb459c3ef644145ca625"
                }
            ],
            "London" : [
                {
                    "hash" : "0x2ed1009d91d83be54b68564df933ffef5f5683f91d4fd89e2d37109ce7b56b5b",
                    "indexes" : {
                        "data" : 0,
                        "gas" : 0,
                        "value" : 0
                    },
                    "logs" : "0x1dcc4de8dec75d7aab85b567b6ccd41ad312451b948a7413f0a142fd40d49347",
                    "txbytes" : "0x02f86a01018203e88203e883061a8094cccccccccccccccccccccccccccccccccccccccc830186a000c001a031616d40ae792e8f02c4eb3a46a0b29f74c7025c0d95b14bed325c2e88e0aef8a010c151566d00f2050f75740f954d115c038e1a56a2b5bb459c3ef644145ca625"
                }
            ],
            "Paris" : [
                {
                    "hash" : "0x2ed1009d91d83be54b68564df933ffef5f5683f91d4fd89e2d37109ce7b56b5b",
                    "indexes" : {
                        "data" : 0,
                        "gas" : 0,
                        "value" : 0
                    },
                    "logs" : "0x1dcc4de8dec75d7aab85b567b6ccd41ad312451b948a7413f0a142fd40d49347",
                    "txbytes" : "0x02f86a01018203e88203e883061a8094cccccccccccccccccccccccccccccccccccccccc830186a000c001a031616d40ae792e8f02c4eb3a46a0b29f74c7025c0d95b14bed325c2e88e0aef8a010c151566d00f2050f75740f954d115c038e1a56a2b5bb459c3ef644145ca625"
                }
            ],
            "Shanghai" : [
                {
                    "hash" : "0x2ed1009d91d83be54b68564df933ffef5f5683f91d4fd89e2d37109ce7b56b5b",
                    "indexes" : {
                        "data" : 0,
                        "gas" : 0,
                        "value" : 0
                    },
                    "logs" : "0x1dcc4de8dec75d7aab85b567b6ccd41ad312451b948a7413f0a142fd40d49347",
                    "txbytes" : "0x02f86a01018203e88203e883061a8094cccccccccccccccccccccccccccccccccccccccc830186a000c001a031616d40ae792e8f02c4eb3a46a0b29f74c7025c0d95b14bed325c2e88e0aef8a010c151566d00f2050f75740f954d115c038e1a56a2b5bb459c3ef644145ca625"
                }
            ]
        },
        "pre" : {
            "0x000f3df6d732807ef1319fb7b8bb8522d0beac02" : {
                "balance" : "0x00",
                "code" : "0x3373fffffffffffffffffffffffffffffffffffffffe14604d57602036146024575f5ffd5b5f35801560495762001fff810690815414603c575f5ffd5b62001fff01545f5260205ff35b5f5ffd5b62001fff42064281555f359062001fff015500",
                "nonce" : "0x01",
                "storage" : {
                }
            },
            "0xa94f5374fce5edbc8e2a8697c15331677e6ebf0b" : {
                "balance" : "0x0de0b6b3a7640000",
                "code" : "0x",
                "nonce" : "0x01",
                "storage" : {
                }
            },
            "0xcccccccccccccccccccccccccccccccccccccccc" : {
                "balance" : "0x0de0b6b3a7640000",
                "code" : "0x600260005500",
                "nonce" : "0x00",
                "storage" : {
                }
            }
        },
        "transaction" : {
            "accessLists" : [
                [
                ]
            ],
            "data" : [
                "0x00"
            ],
            "gasLimit" : [
                "0x061a80"
            ],
            "maxFeePerGas" : "0x03e8",
            "maxPriorityFeePerGas" : "0x03e8",
            "nonce" : "0x01",
            "secretKey" : "0x45a915e4d060149eb4365960e6a7a45f334393093061116b197e3240065ff2d8",
            "sender" : "0xa94f5374fce5edbc8e2a8697c15331677e6ebf0b",
            "to" : "0xcccccccccccccccccccccccccccccccccccccccc",
            "value" : [
                "0x0186a0"
            ]
        }
    }
}