{
    "DataTestFirstZeroBytes" : {
        "_info" : {
            "comment" : "",
            "filledwith" : "cpp-1.3.0+commit.6e0ce939.Linux.g++",
            "lllcversion" : "Version: 0.4.18-develop.2017.10.6+commit.6c09e32c.Linux.g++",
            "source" : "src/TransactionTestsFiller/ttHomestead/DataTestFirstZeroBytesFiller.json",
            "sourceHash" : "f5f59cf12ca78c7add754c50f061f4af414fdbb16812064263d4095f8364ce8c"
        },
        "blocknumber" : "1150000",
        "hash" : "375dadad71b4cfb9d436bf20e7df89bfa1503b603ed30f2bb221f94951f1dc7c",
        "rlp" : "0xf87c80018261a894095e7baea6a6c7c4c2dfeb977efac326af552d870a9d00000000000000000000000000100000000000000000000000000000001ba048b55bfa915ac795c431978d8a6a992b628d557da5ff759b307d495a36649353a01fffd310ac743f371de3b9f7f9cb56c0b28ad43601b4ab949f53faa07bd2c804",
        "sender" : "11a09dc2997c24ff70253d032437d68a03267354",
        "transaction" : {
            "data" : "0x0000000000000000000000000010000000000000000000000000000000",
            "gasLimit" : "0x61a8",
            "gasPrice" : "0x01",
            "nonce" : "0x00",
            "r" : "0x48b55bfa915ac795c431978d8a6a992b628d557da5ff759b307d495a36649353",
            "s" : "0x1fffd310ac743f371de3b9f7f9cb56c0b28ad43601b4ab949f53faa07bd2c804",
            "to" : "0x095e7baea6a6c7c4c2dfeb977efac326af552d87",
            "v" : "0x1b",
            "value" : "0x0a"
        }
    }
}