{
    "addmod" : {
        "_info" : {
            "comment" : "Ori Pomerantz qbzzt1@gmail.com",
            "filling-rpc-server" : "evm version 1.10.2-unstable-22082f9e-20210309",
            "filling-tool-version" : "retesteth-0.1.0-accesslist+commit.47c69eb3.Linux.g++",
            "lllcversion" : "Version: 0.5.14-develop.2020.6.22+commit.9189ad7a.Linux.g++",
            "source" : "src/GeneralStateTestsFiller/VMTests/vmArithmeticTest/addmodFiller.yml",
            "sourceHash" : "88845947502cf1b7b30b545fc9570694b3f200a0e349f45f3b57ff9350e89cd0",
            "labels" : {
                "0" : ":label addmod_1_2_2",
                "1" : ":label addmod_neg1_neg2_2",
                "10" : ":label addmod_neg1_neg2_5",
                "11" : ":label addmod_2_160_1_5",
                "12" : ":label addmod_4_1_0",
                "13" : ":label addmod_0_1_0",
                "14" : ":label addmod_1_0_0",
                "15" : ":label addmod_0_0_0_min_1",
                "2" : ":label addmod_neg6_1_3",
                "3" : ":label addmod_eq_smod",
                "4" : ":label addmod_eq_mod",
                "5" : ":label addmod_4_1_neg3",
                "6" : ":label addmod_4_1_neg3_eq",
                "7" : ":label addmod_neg1_0_5",
                "8" : ":label addmod_neg1_1_5",
                "9" : ":label addmod_neg1_2_5"
            }
        },
        "env" : {
            "currentCoinbase" : "0x2adc25665018aa1fe0e6bc666dac8fc2697ff9ba",
            "currentDifficulty" : "0x020000",
            "currentGasLimit" : "0x05f5e100",
            "currentNumber" : "0x01",
            "currentTimestamp" : "0x03e8",
            "previousHash" : "0x5e20a0453cecd065ea59c37ac63e079ee08998b6045136a8ce6635c7912ec0b6"
        },
        "post" : {
            "Berlin" : [
                {
                    "indexes" : {
                        "data" : 0,
                        "gas" : 0,
                        "value" : 0
                    },
                    "hash" : "0xefaf72654a348d0559004fed4dc704aa3c3fa91ff579ccbd6e6d04f551240ec4",
                    "txbytes" : "0xf88580018404c4b40094cccccccccccccccccccccccccccccccccccccccc01a4693c613900000000000000000000000000000000000000000000000000000000000000001ba08eeba432a3954ac6c47e39f71bcce15296d3ee164806e14574a281d2ef1e5cd8a0516a699c0ea68c77c9993ee65510c2c49c3365439c9ad7d7acea2ba315e82257",
                    "logs" : "0x1dcc4de8dec75d7aab85b567b6ccd41ad312451b948a7413f0a142fd40d49347"
                },
                {
                    "indexes" : {
                        "data" : 1,
                        "gas" : 0,
                        "value" : 0
                    },
                    "hash" : "0x47bc61ed88d18c3738995c4a0d3b7c7a85e5907f265739c07f0523aca74bb7b8",
                    "txbytes" : "0xf88580018404c4b40094cccccccccccccccccccccccccccccccccccccccc01a4693c613900000000000000000000000000000000000000000000000000000000000000011ba0a10a6d356c5027b495e3713bf1fdba3b303ac8f7712bdd34d703273e50c45c4fa01e429194b2ae11a1a823478aff677f2b408cc63cae46ec72a092c14d4d6d739b",
                    "logs" : "0x1dcc4de8dec75d7aab85b567b6ccd41ad312451b948a7413f0a142fd40d49347"
                },
                {
                    "indexes" : {
                        "data" : 2,
                        "gas" : 0,
                        "value" : 0
                    },
                    "hash" : "0x483ba53459e026d35ee6b2f23119fa3889f87d48e521fc5e826e112cd9fe3a1a",
                    "txbytes" : "0xf88580018404c4b40094cccccccccccccccccccccccccccccccccccccccc01a4693c613900000000000000000000000000000000000000000000000000000000000000021ba06e91e88d6ff9824c63967c05d2721afbdc408723585adced759ae0bf00b26a39a01072e7a06f7962bee3c171fc458e21c4f25c2603d69d544442cfaf5ab4ee6251",
                    "logs" : "0x1dcc4de8dec75d7aab85b567b6ccd41ad312451b948a7413f0a142fd40d49347"
                },
                {
                    "indexes" : {
                        "data" : 3,
                        "gas" : 0,
                        "value" : 0
                    },
                    "hash" : "0x334c5f9c54e3f4fc149f3287c0364787f788d60e5075b6ac8ffd1741ee7925f7",
                    "txbytes" : "0xf88580018404c4b40094cccccccccccccccccccccccccccccccccccccccc01a4693c613900000000000000000000000000000000000000000000000000000000000000031ca01495a7e1cd0a8ee6b7a2f3b6e027a5df32b05f45ecd372e78b84b3b428d918c5a0508e56b49ed794f2a3bec92325f7611fc02fe006b2d701f2fa5a77bc6c279967",
                    "logs" : "0x1dcc4de8dec75d7aab85b567b6ccd41ad312451b948a7413f0a142fd40d49347"
                },
                {
                    "indexes" : {
                        "data" : 4,
                        "gas" : 0,
                        "value" : 0
                    },
                    "hash" : "0xee7ecf6441ba0b4a22e4933d8e4906c17a157c7645eec1c5c36d0f9227c92982",
                    "txbytes" : "0xf88580018404c4b40094cccccccccccccccccccccccccccccccccccccccc01a4693c613900000000000000000000000000000000000000000000000000000000000000041ba0c4a345e3a1be0474cc3cb24b853698a3b8311b6d9d77d259b89a7d4c7ed8ffc7a052742442d9e4f93cb675cd2d2295250e6e4ca11dbb2c64af3f83f6f8d0993d45",
                    "logs" : "0x1dcc4de8dec75d7aab85b567b6ccd41ad312451b948a7413f0a142fd40d49347"
                },
                {
                    "indexes" : {
                        "data" : 5,
                        "gas" : 0,
                        "value" : 0
                    },
                    "hash" : "0x36e906a88a9efdc9bf87da22e7764eb37057447d2b425569d2d977c7f2351e8a",
                    "txbytes" : "0xf88580018404c4b40094cccccccccccccccccccccccccccccccccccccccc01a4693c613900000000000000000000000000000000000000000000000000000000000000051ca0ce4f2e2d7adb90e6968b7f2e53dfb322f253e3874b805e0e00a7450e9791bc15a007b52143255bc915f07611ef9249aa2398ac1302524770e6e5a80aed52804edb",
                    "logs" : "0x1dcc4de8dec75d7aab85b567b6ccd41ad312451b948a7413f0a142fd40d49347"
                },
                {
                    "indexes" : {
                        "data" : 6,
                        "gas" : 0,
                        "value" : 0
                    },
                    "hash" : "0x2df1a3519553a3f297b2f08e10b5e56d33d709648f251284eb68144c6f4d5168",
                    "txbytes" : "0xf88580018404c4b40094cccccccccccccccccccccccccccccccccccccccc01a4693c613900000000000000000000000000000000000000000000000000000000000000061ca09cb0fc51b627a160ef09871d13dc3b87acc24583924969b0525b0a9af862201aa043d218005a24f191ed2a50a23a8b8e3ec179259884d483c63bb2022be790bed2",
                    "logs" : "0x1dcc4de8dec75d7aab85b567b6ccd41ad312451b948a7413f0a142fd40d49347"
                },
                {
                    "indexes" : {
                        "data" : 7,
                        "gas" : 0,
                        "value" : 0
                    },
                    "hash" : "0x915e25a385ef9d0b3f906384e96a49b49a95c617d300cbb5dc2cac7e13ddbc92",
                    "txbytes" : "0xf88580018404c4b40094cccccccccccccccccccccccccccccccccccccccc01a4693c613900000000000000000000000000000000000000000000000000000000000000071ca00e5d0886d5dba7802dd2fe87fae09c69c2b536a505ceedec91ae5686283b28a7a04402b06a995565b97875c687d5ba0d308f9094046777739f36ffe5662f0b3a69",
                    "logs" : "0x1dcc4de8dec75d7aab85b567b6ccd41ad312451b948a7413f0a142fd40d49347"
                },
                {
                    "indexes" : {
                        "data" : 8,
                        "gas" : 0,
                        "value" : 0
                    },
                    "hash" : "0xdd216f4f076b46f8f9e8fe7754476e9b3335e2f7d330335db5f7fe32a0788fc1",
                    "txbytes" : "0xf88580018404c4b40094cccccccccccccccccccccccccccccccccccccccc01a4693c613900000000000000000000000000000000000000000000000000000000000000081ca0e5f7742a5f19ca451fffc2be112c4e70117975bb330b3c64dee4646861d5b75ba010135f750c42f7a3de1bc1f5aeac6ae0fe7455e1e54a430bee1f354cce619b11",
                    "logs" : "0x1dcc4de8dec75d7aab85b567b6ccd41ad312451b948a7413f0a142fd40d49347"
                },
                {
                    "indexes" : {
                        "data" : 9,
                        "gas" : 0,
                        "value" : 0
                    },
                    "hash" : "0x43d5f79c0c222de9a82dad929263430c79fe992173dfdf712e6bbd855a13f03b",
                    "txbytes" : "0xf88580018404c4b40094cccccccccccccccccccccccccccccccccccccccc01a4693c613900000000000000000000000000000000000000000000000000000000000000091ba0dca66d9ed347bf025071c28fa2708887c9b457082e3095c0a274387f231c0561a0027dc48d4dee30ae6e1263ab31557706699f4de33eea778b41cadfbe8daf9eec",
                    "logs" : "0x1dcc4de8dec75d7aab85b567b6ccd41ad312451b948a7413f0a142fd40d49347"
                },
                {
                    "indexes" : {
                        "data" : 10,
                        "gas" : 0,
                        "value" : 0
                    },
                    "hash" : "0x66281429d9b7d110847143920d8cbcd2b8bf4be27bc3f7929ec8c7365f7a5c5b",
                    "txbytes" : "0xf88580018404c4b40094cccccccccccccccccccccccccccccccccccccccc01a4693c6139000000000000000000000000000000000000000000000000000000000000000a1ba0cd44e41c636fade1e3186326a677a7be5114c05be13c80b26a72101e6c95e1b0a02dbaf7d47ca4318c850a5c333cdf5d53f4ed6f26d356c2a05a822703b975a023",
                    "logs" : "0x1dcc4de8dec75d7aab85b567b6ccd41ad312451b948a7413f0a142fd40d49347"
                },
                {
                    "indexes" : {
                        "data" : 11,
                        "gas" : 0,
                        "value" : 0
                    },
                    "hash" : "0x5646d53e343c23b3e06754a9c975d8752479d9b7e7a9945bfce27e166a71d6b7",
                    "txbytes" : "0xf88580018404c4b40094cccccccccccccccccccccccccccccccccccccccc01a4693c6139000000000000000000000000000000000000000000000000000000000000000b1ba01c1b9fc6f49579e609c24013fd8c941ba150bb62b0b6f360a3430a53da9771dca01893b13311d020877bbe3d6cf93bbfa35273ead3336b3d820384ca3e9904a1ed",
                    "logs" : "0x1dcc4de8dec75d7aab85b567b6ccd41ad312451b948a7413f0a142fd40d49347"
                },
                {
                    "indexes" : {
                        "data" : 12,
                        "gas" : 0,
                        "value" : 0
                    },
                    "hash" : "0x70091eb375795696861e0ae2e656f835e0c78ba29fe4471d045d3aa8730188e1",
                    "txbytes" : "0xf88580018404c4b40094cccccccccccccccccccccccccccccccccccccccc01a4693c6139000000000000000000000000000000000000000000000000000000000000000c1ca0ec6041e655ee5a167b7c1c37dced6e674f7b60d32656445f98949456cfc1f6b8a02147ba84e0399097d77f33b67fc3cb271640ce489e7f115b7bc1f55698d0eb53",
                    "logs" : "0x1dcc4de8dec75d7aab85b567b6ccd41ad312451b948a7413f0a142fd40d49347"
                },
                {
                    "indexes" : {
                        "data" : 13,
                        "gas" : 0,
                        "value" : 0
                    },
                    "hash" : "0x70091eb375795696861e0ae2e656f835e0c78ba29fe4471d045d3aa8730188e1",
                    "txbytes" : "0xf88580018404c4b40094cccccccccccccccccccccccccccccccccccccccc01a4693c6139000000000000000000000000000000000000000000000000000000000000000d1ca0ecfaa6a561812274d5a4fe000c81ccf5cc16b6a4664972fca37b2a67f41725b3a059d42357ccca536b4bca32cb948fdab7cd8008db614c5de185512a042962c443",
                    "logs" : "0x1dcc4de8dec75d7aab85b567b6ccd41ad312451b948a7413f0a142fd40d49347"
                },
                {
                    "indexes" : {
                        "data" : 14,
                        "gas" : 0,
                        "value" : 0
                    },
                    "hash" : "0x70091eb375795696861e0ae2e656f835e0c78ba29fe4471d045d3aa8730188e1",
                    "txbytes" : "0xf88580018404c4b40094cccccccccccccccccccccccccccccccccccccccc01a4693c6139000000000000000000000000000000000000000000000000000000000000000e1ba01cefb93c5113adb67cdebbebde5c43800a870c16e05945c6d77a29a8d412d751a045916cf1a1ff4708f3c36f936f63bd0caff150b04256bdd318ad97a1c423bb0d",
                    "logs" : "0x1dcc4de8dec75d7aab85b567b6ccd41ad312451b948a7413f0a142fd40d49347"
                },
                {
                    "indexes" : {
                        "data" : 15,
                        "gas" : 0,
                        "value" : 0
                    },
                    "hash" : "0xbbdc42749ca3dd12660df97dd9a17c087cb26a065701a3a95652e8d7196937df",
                    "txbytes" : "0xf88580018404c4b40094cccccccccccccccccccccccccccccccccccccccc01a4693c6139000000000000000000000000000000000000000000000000000000000000000f1ca029cadf81d2b830de7642148965d427e1422b67d3e794ae560b85c10c2bdb5f8aa01318074b0d4178a35eb356470275f605475da19d7a73237e0d381d526251a1e7",
                    "logs" : "0x1dcc4de8dec75d7aab85b567b6ccd41ad312451b948a7413f0a142fd40d49347"
                }
            ],
            "Istanbul" : [
                {
                    "indexes" : {
                        "data" : 0,
                        "gas" : 0,
                        "value" : 0
                    },
                    "hash" : "0xdcddc0c535bfdbb1bb396015258daf8bf911171e412d75749453cdd07f8c7335",
                    "txbytes" : "0xf88580018404c4b40094cccccccccccccccccccccccccccccccccccccccc01a4693c613900000000000000000000000000000000000000000000000000000000000000001ba08eeba432a3954ac6c47e39f71bcce15296d3ee164806e14574a281d2ef1e5cd8a0516a699c0ea68c77c9993ee65510c2c49c3365439c9ad7d7acea2ba315e82257",
                    "logs" : "0x1dcc4de8dec75d7aab85b567b6ccd41ad312451b948a7413f0a142fd40d49347"
                },
                {
                    "indexes" : {
                        "data" : 1,
                        "gas" : 0,
                        "value" : 0
                    },
                    "hash" : "0xe856bbac8e17bbf13306f790591f92d7994d9905b5335cbf1ff88a0d78e96997",
                    "txbytes" : "0xf88580018404c4b40094cccccccccccccccccccccccccccccccccccccccc01a4693c613900000000000000000000000000000000000000000000000000000000000000011ba0a10a6d356c5027b495e3713bf1fdba3b303ac8f7712bdd34d703273e50c45c4fa01e429194b2ae11a1a823478aff677f2b408cc63cae46ec72a092c14d4d6d739b",
                    "logs" : "0x1dcc4de8dec75d7aab85b567b6ccd41ad312451b948a7413f0a142fd40d49347"
                },
                {
                    "indexes" : {
                        "data" : 2,
                        "gas" : 0,
                        "value" : 0
                    },
                    "hash" : "0x96444bde54e25bd43d3e605a68113b6bf05b6262960b9bb5ae1261ea8e3574c2",
                    "txbytes" : "0xf88580018404c4b40094cccccccccccccccccccccccccccccccccccccccc01a4693c613900000000000000000000000000000000000000000000000000000000000000021ba06e91e88d6ff9824c63967c05d2721afbdc408723585adced759ae0bf00b26a39a01072e7a06f7962bee3c171fc458e21c4f25c2603d69d544442cfaf5ab4ee6251",
                    "logs" : "0x1dcc4de8dec75d7aab85b567b6ccd41ad312451b948a7413f0a142fd40d49347"
                },
                {
                    "indexes" : {
                        "data" : 3,
                        "gas" : 0,
                        "value" : 0
                    },
                    "hash" : "0xfce8f3cf441b6fba007c823faa97b96550761e2e11801c44f0cc6abdf46eeea4",
                    "txbytes" : "0xf88580018404c4b40094cccccccccccccccccccccccccccccccccccccccc01a4693c613900000000000000000000000000000000000000000000000000000000000000031ca01495a7e1cd0a8ee6b7a2f3b6e027a5df32b05f45ecd372e78b84b3b428d918c5a0508e56b49ed794f2a3bec92325f7611fc02fe006b2d701f2fa5a77bc6c279967",
                    "logs" : "0x1dcc4de8dec75d7aab85b567b6ccd41ad312451b948a7413f0a142fd40d49347"
                },
                {
                    "indexes" : {
                        "data" : 4,
                        "gas" : 0,
                        "value" : 0
                    },
                    "hash" : "0x1ca17ec7fc7e3ac97551b5cb41f80083ee9ac17cdbc6f0f6e0cf2d85cb337ea9",
                    "txbytes" : "0xf88580018404c4b40094cccccccccccccccccccccccccccccccccccccccc01a4693c613900000000000000000000000000000000000000000000000000000000000000041ba0c4a345e3a1be0474cc3cb24b853698a3b8311b6d9d77d259b89a7d4c7ed8ffc7a052742442d9e4f93cb675cd2d2295250e6e4ca11dbb2c64af3f83f6f8d0993d45",
                    "logs" : "0x1dcc4de8dec75d7aab85b567b6ccd41ad312451b948a7413f0a142fd40d49347"
                },
                {
                    "indexes" : {
                        "data" : 5,
                        "gas" : 0,
                        "value" : 0
                    },
                    "hash" : "0x0498b1478239a29236d08efa4c6d5c551b096f940cbd56a397444a8f96987e66",
                    "txbytes" : "0xf88580018404c4b40094cccccccccccccccccccccccccccccccccccccccc01a4693c613900000000000000000000000000000000000000000000000000000000000000051ca0ce4f2e2d7adb90e6968b7f2e53dfb322f253e3874b805e0e00a7450e9791bc15a007b52143255bc915f07611ef9249aa2398ac1302524770e6e5a80aed52804edb",
                    "logs" : "0x1dcc4de8dec75d7aab85b567b6ccd41ad312451b948a7413f0a142fd40d49347"
                },
                {
                    "indexes" : {
                        "data" : 6,
                        "gas" : 0,
                        "value" : 0
                    },
                    "hash" : "0x5861de19d28fe9d1e3da382e84384e2227dd46e2f91107410a7052943f776f36",
                    "txbytes" : "0xf88580018404c4b40094cccccccccccccccccccccccccccccccccccccccc01a4693c613900000000000000000000000000000000000000000000000000000000000000061ca09cb0fc51b627a160ef09871d13dc3b87acc24583924969b0525b0a9af862201aa043d218005a24f191ed2a50a23a8b8e3ec179259884d483c63bb2022be790bed2",
                    "logs" : "0x1dcc4de8dec75d7aab85b567b6ccd41ad312451b948a7413f0a142fd40d49347"
                },
                {
                    "indexes" : {
                        "data" : 7,
                        "gas" : 0,
                        "value" : 0
                    },
                    "hash" : "0x44b556ba4c382b58ec43c002761e0b94613b03049fc8c6a448d3eb6ecc81ca83",
                    "txbytes" : "0xf88580018404c4b40094cccccccccccccccccccccccccccccccccccccccc01a4693c613900000000000000000000000000000000000000000000000000000000000000071ca00e5d0886d5dba7802dd2fe87fae09c69c2b536a505ceedec91ae5686283b28a7a04402b06a995565b97875c687d5ba0d308f9094046777739f36ffe5662f0b3a69",
                    "logs" : "0x1dcc4de8dec75d7aab85b567b6ccd41ad312451b948a7413f0a142fd40d49347"
                },
                {
                    "indexes" : {
                        "data" : 8,
                        "gas" : 0,
                        "value" : 0
                    },
                    "hash" : "0x9747eb5812a1e99a5e5a74666e5fcca8733329eb439f46bd52104bb0bc3c8dc2",
                    "txbytes" : "0xf88580018404c4b40094cccccccccccccccccccccccccccccccccccccccc01a4693c613900000000000000000000000000000000000000000000000000000000000000081ca0e5f7742a5f19ca451fffc2be112c4e70117975bb330b3c64dee4646861d5b75ba010135f750c42f7a3de1bc1f5aeac6ae0fe7455e1e54a430bee1f354cce619b11",
                    "logs" : "0x1dcc4de8dec75d7aab85b567b6ccd41ad312451b948a7413f0a142fd40d49347"
                },
                {
                    "indexes" : {
                        "data" : 9,
                        "gas" : 0,
                        "value" : 0
                    },
                    "hash" : "0xee1fa8338a640d7b255249249b1718e06a425f7574469baad49930ee62dd4560",
                    "txbytes" : "0xf88580018404c4b40094cccccccccccccccccccccccccccccccccccccccc01a4693c613900000000000000000000000000000000000000000000000000000000000000091ba0dca66d9ed347bf025071c28fa2708887c9b457082e3095c0a274387f231c0561a0027dc48d4dee30ae6e1263ab31557706699f4de33eea778b41cadfbe8daf9eec",
                    "logs" : "0x1dcc4de8dec75d7aab85b567b6ccd41ad312451b948a7413f0a142fd40d49347"
                },
                {
                    "indexes" : {
                        "data" : 10,
                        "gas" : 0,
                        "value" : 0
                    },
                    "hash" : "0x6f05a725d6dd9e9505576ea7345a8a88880c52822e3d84a525fbba3f273f449b",
                    "txbytes" : "0xf88580018404c4b40094cccccccccccccccccccccccccccccccccccccccc01a4693c6139000000000000000000000000000000000000000000000000000000000000000a1ba0cd44e41c636fade1e3186326a677a7be5114c05be13c80b26a72101e6c95e1b0a02dbaf7d47ca4318c850a5c333cdf5d53f4ed6f26d356c2a05a822703b975a023",
                    "logs" : "0x1dcc4de8dec75d7aab85b567b6ccd41ad312451b948a7413f0a142fd40d49347"
                },
                {
                    "indexes" : {
                        "data" : 11,
                        "gas" : 0,
                        "value" : 0
                    },
                    "hash" : "0xf304070c8f2d6490e2859529b805367da16041c85820ae8bda0028df32d60fe7",
                    "txbytes" : "0xf88580018404c4b40094cccccccccccccccccccccccccccccccccccccccc01a4693c6139000000000000000000000000000000000000000000000000000000000000000b1ba01c1b9fc6f49579e609c24013fd8c941ba150bb62b0b6f360a3430a53da9771dca01893b13311d020877bbe3d6cf93bbfa35273ead3336b3d820384ca3e9904a1ed",
                    "logs" : "0x1dcc4de8dec75d7aab85b567b6ccd41ad312451b948a7413f0a142fd40d49347"
                },
                {
                    "indexes" : {
                        "data" : 12,
                        "gas" : 0,
                        "value" : 0
                    },
                    "hash" : "0x7a1f388b3d49ed0395a410d61574a52b8d68d80cf4b847c9c80f1cc096a6d494",
                    "txbytes" : "0xf88580018404c4b40094cccccccccccccccccccccccccccccccccccccccc01a4693c6139000000000000000000000000000000000000000000000000000000000000000c1ca0ec6041e655ee5a167b7c1c37dced6e674f7b60d32656445f98949456cfc1f6b8a02147ba84e0399097d77f33b67fc3cb271640ce489e7f115b7bc1f55698d0eb53",
                    "logs" : "0x1dcc4de8dec75d7aab85b567b6ccd41ad312451b948a7413f0a142fd40d49347"
                },
                {
                    "indexes" : {
                        "data" : 13,
                        "gas" : 0,
                        "value" : 0
                    },
                    "hash" : "0x7a1f388b3d49ed0395a410d61574a52b8d68d80cf4b847c9c80f1cc096a6d494",
                    "txbytes" : "0xf88580018404c4b40094cccccccccccccccccccccccccccccccccccccccc01a4693c6139000000000000000000000000000000000000000000000000000000000000000d1ca0ecfaa6a561812274d5a4fe000c81ccf5cc16b6a4664972fca37b2a67f41725b3a059d42357ccca536b4bca32cb948fdab7cd8008db614c5de185512a042962c443",
                    "logs" : "0x1dcc4de8dec75d7aab85b567b6ccd41ad312451b948a7413f0a142fd40d49347"
                },
                {
                    "indexes" : {
                        "data" : 14,
                        "gas" : 0,
                        "value" : 0
                    },
                    "hash" : "0x7a1f388b3d49ed0395a410d61574a52b8d68d80cf4b847c9c80f1cc096a6d494",
                    "txbytes" : "0xf88580018404c4b40094cccccccccccccccccccccccccccccccccccccccc01a4693c6139000000000000000000000000000000000000000000000000000000000000000e1ba01cefb93c5113adb67cdebbebde5c43800a870c16e05945c6d77a29a8d412d751a045916cf1a1ff4708f3c36f936f63bd0caff150b04256bdd318ad97a1c423bb0d",
                    "logs" : "0x1dcc4de8dec75d7aab85b567b6ccd41ad312451b948a7413f0a142fd40d49347"
                },
                {
                    "indexes" : {
                        "data" : 15,
                        "gas" : 0,
                        "value" : 0
                    },
                    "hash" : "0x3c7fad42c463c7e3ac98cca988e8152e5490123c847bc5677a9e5902e1a9239a",
                    "txbytes" : "0xf88580018404c4b40094cccccccccccccccccccccccccccccccccccccccc01a4693c6139000000000000000000000000000000000000000000000000000000000000000f1ca029cadf81d2b830de7642148965d427e1422b67d3e794ae560b85c10c2bdb5f8aa01318074b0d4178a35eb356470275f605475da19d7a73237e0d381d526251a1e7",
                    "logs" : "0x1dcc4de8dec75d7aab85b567b6ccd41ad312451b948a7413f0a142fd40d49347"
                }
            ]
        },
        "pre" : {
            "0x0000000000000000000000000000000000000100" : {
                "balance" : "0x0ba1a9ce0ba1a9ce",
                "code" : "0x6002600260010860005500",
                "nonce" : "0x00",
                "storage" : {
                }
            },
            "0x0000000000000000000000000000000000000101" : {
                "balance" : "0x0ba1a9ce0ba1a9ce",
                "code" : "0x6002600260000360016000030860005500",
                "nonce" : "0x00",
                "storage" : {
                }
            },
            "0x0000000000000000000000000000000000000102" : {
                "balance" : "0x0ba1a9ce0ba1a9ce",
                "code" : "0x6003600160066000030860005500",
                "nonce" : "0x00",
                "storage" : {
                }
            },
            "0x0000000000000000000000000000000000000103" : {
                "balance" : "0x0ba1a9ce0ba1a9ce",
                "code" : "0x6003600160066000030860036005600003071460005500",
                "nonce" : "0x00",
                "storage" : {
                }
            },
            "0x0000000000000000000000000000000000000104" : {
                "balance" : "0x0ba1a9ce0ba1a9ce",
                "code" : "0x6003600160066000030860036005600003061460005500",
                "nonce" : "0x00",
                "storage" : {
                }
            },
            "0x0000000000000000000000000000000000000105" : {
                "balance" : "0x0ba1a9ce0ba1a9ce",
                "code" : "0x6003600003600160040860005500",
                "nonce" : "0x00",
                "storage" : {
                }
            },
            "0x0000000000000000000000000000000000000106" : {
                "balance" : "0x0ba1a9ce0ba1a9ce",
                "code" : "0x6002600360000360016004081460005500",
                "nonce" : "0x00",
                "storage" : {
                }
            },
            "0x0000000000000000000000000000000000000107" : {
                "balance" : "0x0ba1a9ce0ba1a9ce",
                "code" : "0x6005600060016000030860005500",
                "nonce" : "0x00",
                "storage" : {
                }
            },
            "0x0000000000000000000000000000000000000108" : {
                "balance" : "0x0ba1a9ce0ba1a9ce",
                "code" : "0x6005600160016000030860005500",
                "nonce" : "0x00",
                "storage" : {
                }
            },
            "0x0000000000000000000000000000000000000109" : {
                "balance" : "0x0ba1a9ce0ba1a9ce",
                "code" : "0x6005600260016000030860005500",
                "nonce" : "0x00",
                "storage" : {
                }
            },
            "0x000000000000000000000000000000000000010a" : {
                "balance" : "0x0ba1a9ce0ba1a9ce",
                "code" : "0x6005600260000360016000030860005500",
                "nonce" : "0x00",
                "storage" : {
                }
            },
            "0x000000000000000000000000000000000000010b" : {
                "balance" : "0x0ba1a9ce0ba1a9ce",
                "code" : "0x600560017fffffffffffffffffffffffffffffffffffffffffffffffffffffffffffffffff0860005500",
                "nonce" : "0x00",
                "storage" : {
                }
            },
            "0x000000000000000000000000000000000000010c" : {
                "balance" : "0x0ba1a9ce0ba1a9ce",
                "code" : "0x6000600160040860005500",
                "nonce" : "0x00",
                "storage" : {
                }
            },
            "0x000000000000000000000000000000000000010d" : {
                "balance" : "0x0ba1a9ce0ba1a9ce",
                "code" : "0x6000600160000860005500",
                "nonce" : "0x00",
                "storage" : {
                }
            },
            "0x000000000000000000000000000000000000010e" : {
                "balance" : "0x0ba1a9ce0ba1a9ce",
                "code" : "0x6000600060010860005500",
                "nonce" : "0x00",
                "storage" : {
                }
            },
            "0x000000000000000000000000000000000000010f" : {
                "balance" : "0x0ba1a9ce0ba1a9ce",
                "code" : "0x6001600060006000080360005500",
                "nonce" : "0x00",
                "storage" : {
                }
            },
            "0xa94f5374fce5edbc8e2a8697c15331677e6ebf0b" : {
                "balance" : "0x0ba1a9ce0ba1a9ce",
                "code" : "0x",
                "nonce" : "0x00",
                "storage" : {
                }
            },
            "0xcccccccccccccccccccccccccccccccccccccccc" : {
                "balance" : "0x0ba1a9ce0ba1a9ce",
                "code" : "0x600060006000600060006004356101000162fffffff100",
                "nonce" : "0x00",
                "storage" : {
                }
            }
        },
        "transaction" : {
            "data" : [
                "0x693c61390000000000000000000000000000000000000000000000000000000000000000",
                "0x693c61390000000000000000000000000000000000000000000000000000000000000001",
                "0x693c61390000000000000000000000000000000000000000000000000000000000000002",
                "0x693c61390000000000000000000000000000000000000000000000000000000000000003",
                "0x693c61390000000000000000000000000000000000000000000000000000000000000004",
                "0x693c61390000000000000000000000000000000000000000000000000000000000000005",
                "0x693c61390000000000000000000000000000000000000000000000000000000000000006",
                "0x693c61390000000000000000000000000000000000000000000000000000000000000007",
                "0x693c61390000000000000000000000000000000000000000000000000000000000000008",
                "0x693c61390000000000000000000000000000000000000000000000000000000000000009",
                "0x693c6139000000000000000000000000000000000000000000000000000000000000000a",
                "0x693c6139000000000000000000000000000000000000000000000000000000000000000b",
                "0x693c6139000000000000000000000000000000000000000000000000000000000000000c",
                "0x693c6139000000000000000000000000000000000000000000000000000000000000000d",
                "0x693c6139000000000000000000000000000000000000000000000000000000000000000e",
                "0x693c6139000000000000000000000000000000000000000000000000000000000000000f"
            ],
            "gasLimit" : [
                "0x04c4b400"
            ],
            "gasPrice" : "0x01",
            "nonce" : "0x00",
            "secretKey" : "0x45a915e4d060149eb4365960e6a7a45f334393093061116b197e3240065ff2d8",
            "to" : "0xcccccccccccccccccccccccccccccccccccccccc",
            "value" : [
                "0x01"
            ]
        }
    }
}