{
    "fib" : {
        "_info" : {
            "comment" : "Ori Pomerantz qbzzt1@gmail.com",
            "filling-rpc-server" : "evm version 1.13.13-unstable-034bc466-20240219",
            "filling-tool-version" : "retesteth-0.3.2-cancun+commit.014a68a5.Linux.g++",
            "generatedTestHash" : "29eddb963d7ca92ea9c292adfb5c187d86cba4a4753ffd4add1e480fe7a3ec8d",
            "lllcversion" : "Version: 0.5.14-develop.2023.7.11+commit.c58ab2c6.mod.Linux.g++",
            "solidity" : "Version: 0.8.21+commit.d9974bed.Linux.g++",
            "source" : "src/GeneralStateTestsFiller/VMTests/vmArithmeticTest/fibFiller.yml",
            "sourceHash" : "8281f14773d5e0c750233684381f8b3b9a842eef59bb0696ef7ca78ec7877ba3"
        },
        "env" : {
            "currentBaseFee" : "0x0a",
            "currentCoinbase" : "0x2adc25665018aa1fe0e6bc666dac8fc2697ff9ba",
            "currentDifficulty" : "0x020000",
            "currentExcessBlobGas" : "0x00",
            "currentGasLimit" : "0x05f5e100",
            "currentNumber" : "0x01",
            "currentRandom" : "0x0000000000000000000000000000000000000000000000000000000000020000",
            "currentTimestamp" : "0x03e8"
        },
        "post" : {
            "Berlin" : [
                {
                    "hash" : "0x49350667a6a151fa9b9eb36be12029c15d86872d21dd675fddc3fbfd56f52057",
                    "indexes" : {
                        "data" : 0,
                        "gas" : 0,
                        "value" : 0
                    },
                    "logs" : "0x1dcc4de8dec75d7aab85b567b6ccd41ad312451b948a7413f0a142fd40d49347",
                    "txbytes" : "0xf861800a8404c4b40094cccccccccccccccccccccccccccccccccccccccc01011ca0db1a622b24f35797694145cbe4477b1e1139e30a7dfe81a22a1f08a772b90b90a04f3cf0cb9ad98a4c469d8d9cbf2693bc3182349023c9628f1bdc3791523d9d06"
                }
            ],
            "Cancun" : [
                {
                    "hash" : "0xf2478bbe790bedec3256356ebcdb39af917fad05e5d850bde0ca1d6a9855d9d9",
                    "indexes" : {
                        "data" : 0,
                        "gas" : 0,
                        "value" : 0
                    },
                    "logs" : "0x1dcc4de8dec75d7aab85b567b6ccd41ad312451b948a7413f0a142fd40d49347",
                    "txbytes" : "0xf861800a8404c4b40094cccccccccccccccccccccccccccccccccccccccc01011ca0db1a622b24f35797694145cbe4477b1e1139e30a7dfe81a22a1f08a772b90b90a04f3cf0cb9ad98a4c469d8d9cbf2693bc3182349023c9628f1bdc3791523d9d06"
                }
            ],
            "Istanbul" : [
                {
                    "hash" : "0x784eab8e68183b23a914dd457641ea97d0e32b5a342330d9aec32d17880f37f6",
                    "indexes" : {
                        "data" : 0,
                        "gas" : 0,
                        "value" : 0
                    },
                    "logs" : "0x1dcc4de8dec75d7aab85b567b6ccd41ad312451b948a7413f0a142fd40d49347",
                    "txbytes" : "0xf861800a8404c4b40094cccccccccccccccccccccccccccccccccccccccc01011ca0db1a622b24f35797694145cbe4477b1e1139e30a7dfe81a22a1f08a772b90b90a04f3cf0cb9ad98a4c469d8d9cbf2693bc3182349023c9628f1bdc3791523d9d06"
                }
            ],
            "London" : [
                {
                    "hash" : "0xc72c9397ae032ece846eb9e2b01a92787166f5d5c0c0f9fe34a609b10e0d723e",
                    "indexes" : {
                        "data" : 0,
                        "gas" : 0,
                        "value" : 0
                    },
                    "logs" : "0x1dcc4de8dec75d7aab85b567b6ccd41ad312451b948a7413f0a142fd40d49347",
                    "txbytes" : "0xf861800a8404c4b40094cccccccccccccccccccccccccccccccccccccccc01011ca0db1a622b24f35797694145cbe4477b1e1139e30a7dfe81a22a1f08a772b90b90a04f3cf0cb9ad98a4c469d8d9cbf2693bc3182349023c9628f1bdc3791523d9d06"
                }
            ],
            "Paris" : [
                {
                    "hash" : "0xc72c9397ae032ece846eb9e2b01a92787166f5d5c0c0f9fe34a609b10e0d723e",
                    "indexes" : {
                        "data" : 0,
                        "gas" : 0,
                        "value" : 0
                    },
                    "logs" : "0x1dcc4de8dec75d7aab85b567b6ccd41ad312451b948a7413f0a142fd40d49347",
                    "txbytes" : "0xf861800a8404c4b40094cccccccccccccccccccccccccccccccccccccccc01011ca0db1a622b24f35797694145cbe4477b1e1139e30a7dfe81a22a1f08a772b90b90a04f3cf0cb9ad98a4c469d8d9cbf2693bc3182349023c9628f1bdc3791523d9d06"
                }
            ],
            "Shanghai" : [
                {
                    "hash" : "0xc72c9397ae032ece846eb9e2b01a92787166f5d5c0c0f9fe34a609b10e0d723e",
                    "indexes" : {
                        "data" : 0,
                        "gas" : 0,
                        "value" : 0
                    },
                    "logs" : "0x1dcc4de8dec75d7aab85b567b6ccd41ad312451b948a7413f0a142fd40d49347",
                    "txbytes" : "0xf861800a8404c4b40094cccccccccccccccccccccccccccccccccccccccc01011ca0db1a622b24f35797694145cbe4477b1e1139e30a7dfe81a22a1f08a772b90b90a04f3cf0cb9ad98a4c469d8d9cbf2693bc3182349023c9628f1bdc3791523d9d06"
                }
            ]
        },
        "pre" : {
            "0x000f3df6d732807ef1319fb7b8bb8522d0beac02" : {
                "balance" : "0x00",
                "code" : "0x3373fffffffffffffffffffffffffffffffffffffffe14604d57602036146024575f5ffd5b5f35801560495762001fff810690815414603c575f5ffd5b62001fff01545f5260205ff35b5f5ffd5b62001fff42064281555f359062001fff015500",
                "nonce" : "0x01",
                "storage" : {
                }
            },
            "0xa94f5374fce5edbc8e2a8697c15331677e6ebf0b" : {
                "balance" : "0x0ba1a9ce0ba1a9ce",
                "code" : "0x",
                "nonce" : "0x00",
                "storage" : {
                }
            },
            "0xcccccccccccccccccccccccccccccccccccccccc" : {
                "balance" : "0x0ba1a9ce0ba1a9ce",
                "code" : "0x60026002035460016002035401600255600260030354600160030354016003556002600403546001600403540160045560026005035460016005035401600555600260060354600160060354016006556002600703546001600703540160075560026008035460016008035401600855600260090354600160090354016009556002600a03546001600a035401600a5500",
                "nonce" : "0x00",
                "storage" : {
                    "0x01" : "0x01"
                }
            }
        },
        "transaction" : {
            "data" : [
                "0x01"
            ],
            "gasLimit" : [
                "0x04c4b400"
            ],
            "gasPrice" : "0x0a",
            "nonce" : "0x00",
            "secretKey" : "0x45a915e4d060149eb4365960e6a7a45f334393093061116b197e3240065ff2d8",
            "sender" : "0xa94f5374fce5edbc8e2a8697c15331677e6ebf0b",
            "to" : "0xcccccccccccccccccccccccccccccccccccccccc",
            "value" : [
                "0x01"
            ]
        }
    }
}