{
    "sub" : {
        "_info" : {
            "comment" : "Ori Pomerantz qbzzt1@gmail.com",
            "filling-rpc-server" : "evm version 1.10.2-unstable-22082f9e-20210309",
            "filling-tool-version" : "retesteth-0.1.0-accesslist+commit.47c69eb3.Linux.g++",
            "lllcversion" : "Version: 0.5.14-develop.2020.6.22+commit.9189ad7a.Linux.g++",
            "source" : "src/GeneralStateTestsFiller/VMTests/vmArithmeticTest/subFiller.yml",
            "sourceHash" : "da4b0312d2594845a7194d1ead470acdcbc6acb3e49ceece0dd4d9b76c17d22e",
            "labels" : {
                "0" : ":label sub_23_1",
                "1" : ":label sub_2_3",
                "2" : ":label sub_0_23",
                "3" : ":label sub_0_neg1",
                "4" : ":label sub_neg1_0"
            }
        },
        "env" : {
            "currentCoinbase" : "0x2adc25665018aa1fe0e6bc666dac8fc2697ff9ba",
            "currentDifficulty" : "0x020000",
            "currentGasLimit" : "0x05f5e100",
            "currentNumber" : "0x01",
            "currentTimestamp" : "0x03e8",
            "previousHash" : "0x5e20a0453cecd065ea59c37ac63e079ee08998b6045136a8ce6635c7912ec0b6"
        },
        "post" : {
            "Berlin" : [
                {
                    "indexes" : {
                        "data" : 0,
                        "gas" : 0,
                        "value" : 0
                    },
                    "hash" : "0x7bb9c840096ba59caf2acdd76d8495a023029f68f0fed70fe777a56468f934d2",
                    "txbytes" : "0xf88580018404c4b40094cccccccccccccccccccccccccccccccccccccccc01a4693c613900000000000000000000000000000000000000000000000000000000000000001ba08eeba432a3954ac6c47e39f71bcce15296d3ee164806e14574a281d2ef1e5cd8a0516a699c0ea68c77c9993ee65510c2c49c3365439c9ad7d7acea2ba315e82257",
                    "logs" : "0x1dcc4de8dec75d7aab85b567b6ccd41ad312451b948a7413f0a142fd40d49347"
                },
                {
                    "indexes" : {
                        "data" : 1,
                        "gas" : 0,
                        "value" : 0
                    },
                    "hash" : "0x27e0065579b7e203d50872ff31fa4c9ad58688a644b5c650641330eba44e0c81",
                    "txbytes" : "0xf88580018404c4b40094cccccccccccccccccccccccccccccccccccccccc01a4693c613900000000000000000000000000000000000000000000000000000000000000011ba0a10a6d356c5027b495e3713bf1fdba3b303ac8f7712bdd34d703273e50c45c4fa01e429194b2ae11a1a823478aff677f2b408cc63cae46ec72a092c14d4d6d739b",
                    "logs" : "0x1dcc4de8dec75d7aab85b567b6ccd41ad312451b948a7413f0a142fd40d49347"
                },
                {
                    "indexes" : {
                        "data" : 2,
                        "gas" : 0,
                        "value" : 0
                    },
                    "hash" : "0xb22620a7bf4055cdd8b2dfff905b8bd1788cadea37a2b07548cf21d2eef5e357",
                    "txbytes" : "0xf88580018404c4b40094cccccccccccccccccccccccccccccccccccccccc01a4693c613900000000000000000000000000000000000000000000000000000000000000021ba06e91e88d6ff9824c63967c05d2721afbdc408723585adced759ae0bf00b26a39a01072e7a06f7962bee3c171fc458e21c4f25c2603d69d544442cfaf5ab4ee6251",
                    "logs" : "0x1dcc4de8dec75d7aab85b567b6ccd41ad312451b948a7413f0a142fd40d49347"
                },
                {
                    "indexes" : {
                        "data" : 3,
                        "gas" : 0,
                        "value" : 0
                    },
                    "hash" : "0x6f3f9e9e17e429ea517f8bd7b2678393ec9116d57fd3d2c06a2d3cd9327c2308",
                    "txbytes" : "0xf88580018404c4b40094cccccccccccccccccccccccccccccccccccccccc01a4693c613900000000000000000000000000000000000000000000000000000000000000031ca01495a7e1cd0a8ee6b7a2f3b6e027a5df32b05f45ecd372e78b84b3b428d918c5a0508e56b49ed794f2a3bec92325f7611fc02fe006b2d701f2fa5a77bc6c279967",
                    "logs" : "0x1dcc4de8dec75d7aab85b567b6ccd41ad312451b948a7413f0a142fd40d49347"
                },
                {
                    "indexes" : {
                        "data" : 4,
                        "gas" : 0,
                        "value" : 0
                    },
                    "hash" : "0x46a562d0f71d191e0872323ae5c1a5fffc7a64afe2fc9ffef8280c14cd5134df",
                    "txbytes" : "0xf88580018404c4b40094cccccccccccccccccccccccccccccccccccccccc01a4693c613900000000000000000000000000000000000000000000000000000000000000041ba0c4a345e3a1be0474cc3cb24b853698a3b8311b6d9d77d259b89a7d4c7ed8ffc7a052742442d9e4f93cb675cd2d2295250e6e4ca11dbb2c64af3f83f6f8d0993d45",
                    "logs" : "0x1dcc4de8dec75d7aab85b567b6ccd41ad312451b948a7413f0a142fd40d49347"
                }
            ],
            "Istanbul" : [
                {
                    "indexes" : {
                        "data" : 0,
                        "gas" : 0,
                        "value" : 0
                    },
                    "hash" : "0xd5893456a466716f8cebe6ecfdb456f734a84f7ca11d02b0303ac178a7a3d606",
                    "txbytes" : "0xf88580018404c4b40094cccccccccccccccccccccccccccccccccccccccc01a4693c613900000000000000000000000000000000000000000000000000000000000000001ba08eeba432a3954ac6c47e39f71bcce15296d3ee164806e14574a281d2ef1e5cd8a0516a699c0ea68c77c9993ee65510c2c49c3365439c9ad7d7acea2ba315e82257",
                    "logs" : "0x1dcc4de8dec75d7aab85b567b6ccd41ad312451b948a7413f0a142fd40d49347"
                },
                {
                    "indexes" : {
                        "data" : 1,
                        "gas" : 0,
                        "value" : 0
                    },
                    "hash" : "0xe47b17219a0421459fff2fbae824b5486a05cd45474b50525839063aff5b0af1",
                    "txbytes" : "0xf88580018404c4b40094cccccccccccccccccccccccccccccccccccccccc01a4693c613900000000000000000000000000000000000000000000000000000000000000011ba0a10a6d356c5027b495e3713bf1fdba3b303ac8f7712bdd34d703273e50c45c4fa01e429194b2ae11a1a823478aff677f2b408cc63cae46ec72a092c14d4d6d739b",
                    "logs" : "0x1dcc4de8dec75d7aab85b567b6ccd41ad312451b948a7413f0a142fd40d49347"
                },
                {
                    "indexes" : {
                        "data" : 2,
                        "gas" : 0,
                        "value" : 0
                    },
                    "hash" : "0xae691ccef5b96f46b5710e3bb9342f2cfef484f0b86bac2fec380cf113bbcc86",
                    "txbytes" : "0xf88580018404c4b40094cccccccccccccccccccccccccccccccccccccccc01a4693c613900000000000000000000000000000000000000000000000000000000000000021ba06e91e88d6ff9824c63967c05d2721afbdc408723585adced759ae0bf00b26a39a01072e7a06f7962bee3c171fc458e21c4f25c2603d69d544442cfaf5ab4ee6251",
                    "logs" : "0x1dcc4de8dec75d7aab85b567b6ccd41ad312451b948a7413f0a142fd40d49347"
                },
                {
                    "indexes" : {
                        "data" : 3,
                        "gas" : 0,
                        "value" : 0
                    },
                    "hash" : "0x259f15c3b69085db67cf82a44d374d0e3206078dee2bd4219dea5f2f64f164d6",
                    "txbytes" : "0xf88580018404c4b40094cccccccccccccccccccccccccccccccccccccccc01a4693c613900000000000000000000000000000000000000000000000000000000000000031ca01495a7e1cd0a8ee6b7a2f3b6e027a5df32b05f45ecd372e78b84b3b428d918c5a0508e56b49ed794f2a3bec92325f7611fc02fe006b2d701f2fa5a77bc6c279967",
                    "logs" : "0x1dcc4de8dec75d7aab85b567b6ccd41ad312451b948a7413f0a142fd40d49347"
                },
                {
                    "indexes" : {
                        "data" : 4,
                        "gas" : 0,
                        "value" : 0
                    },
                    "hash" : "0x2ea3f39444ce09984ce40a6164dde5afb2a3fffda326f0acd9b2ab8435c25987",
                    "txbytes" : "0xf88580018404c4b40094cccccccccccccccccccccccccccccccccccccccc01a4693c613900000000000000000000000000000000000000000000000000000000000000041ba0c4a345e3a1be0474cc3cb24b853698a3b8311b6d9d77d259b89a7d4c7ed8ffc7a052742442d9e4f93cb675cd2d2295250e6e4ca11dbb2c64af3f83f6f8d0993d45",
                    "logs" : "0x1dcc4de8dec75d7aab85b567b6ccd41ad312451b948a7413f0a142fd40d49347"
                }
            ]
        },
        "pre" : {
            "0x0000000000000000000000000000000000000100" : {
                "balance" : "0x0ba1a9ce0ba1a9ce",
                "code" : "0x600160170360005500",
                "nonce" : "0x00",
                "storage" : {
                }
            },
            "0x0000000000000000000000000000000000000101" : {
                "balance" : "0x0ba1a9ce0ba1a9ce",
                "code" : "0x600360020360005500",
                "nonce" : "0x00",
                "storage" : {
                }
            },
            "0x0000000000000000000000000000000000000102" : {
                "balance" : "0x0ba1a9ce0ba1a9ce",
                "code" : "0x601760000360005500",
                "nonce" : "0x00",
                "storage" : {
                }
            },
            "0x0000000000000000000000000000000000000103" : {
                "balance" : "0x0ba1a9ce0ba1a9ce",
                "code" : "0x7fffffffffffffffffffffffffffffffffffffffffffffffffffffffffffffffff60000360005500",
                "nonce" : "0x00",
                "storage" : {
                }
            },
            "0x0000000000000000000000000000000000000104" : {
                "balance" : "0x0ba1a9ce0ba1a9ce",
                "code" : "0x60007fffffffffffffffffffffffffffffffffffffffffffffffffffffffffffffffff0360005500",
                "nonce" : "0x00",
                "storage" : {
                }
            },
            "0xa94f5374fce5edbc8e2a8697c15331677e6ebf0b" : {
                "balance" : "0x0ba1a9ce0ba1a9ce",
                "code" : "0x",
                "nonce" : "0x00",
                "storage" : {
                }
            },
            "0xcccccccccccccccccccccccccccccccccccccccc" : {
                "balance" : "0x0ba1a9ce0ba1a9ce",
                "code" : "0x600060006000600060006004356101000162fffffff100",
                "nonce" : "0x00",
                "storage" : {
                }
            }
        },
        "transaction" : {
            "data" : [
                "0x693c61390000000000000000000000000000000000000000000000000000000000000000",
                "0x693c61390000000000000000000000000000000000000000000000000000000000000001",
                "0x693c61390000000000000000000000000000000000000000000000000000000000000002",
                "0x693c61390000000000000000000000000000000000000000000000000000000000000003",
                "0x693c61390000000000000000000000000000000000000000000000000000000000000004"
            ],
            "gasLimit" : [
                "0x04c4b400"
            ],
            "gasPrice" : "0x01",
            "nonce" : "0x00",
            "secretKey" : "0x45a915e4d060149eb4365960e6a7a45f334393093061116b197e3240065ff2d8",
            "to" : "0xcccccccccccccccccccccccccccccccccccccccc",
            "value" : [
                "0x01"
            ]
        }
    }
}