{
    "000-fork=Cancun-no_outer_selfdestruct" : {
        "_info" : {
            "comment" : "",
            "filling-rpc-server" : "evm version 1.13.0-unstable-b1a1675c-20230912",
            "filling-tool-version" : "retesteth-0.3.1-cancun+commit.cffe14c5.Linux.g++",
            "filling-transition-tool" : "evm version 1.13.0-unstable-b1a1675c-20230912",
            "generatedTestHash" : "e9b669d5cce9ad7e3977637f8eb9221044257c2057d9d3e7c80ac80b33276a7e",
            "lllcversion" : "Version: 0.5.14-develop.2023.7.11+commit.c58ab2c6.mod.Linux.g++",
            "solidity" : "Version: 0.8.20+commit.a1b79de6.Linux.g++",
            "source" : "src/EIPTestsFiller/Pyspecs/cancun/eip6780_selfdestruct/test_selfdestruct_revert.py",
            "sourceHash" : "1668d2d80d26c3ddabc5718cc1bfab53136ed47adb723364bb42371931cfc77a"
        },
        "blocks" : [
            {
                "blockHeader" : {
                    "baseFeePerGas" : "0x07",
                    "blobGasUsed" : "0x00",
                    "bloom" : "0x00000000000000000000000000000000000000000000000000000000000000000000000000000000000000000000000000000000000000000000000000000000000000000000000000000000000000000000000000000000000000000000000000000000000000000000000000000000000000000000000000000000000000000000000000000000000000000000000000000000000000000000000000000000000000000000000000000000000000000000000000000000000000000000000000000000000000000000000000000000000000000000000000000000000000000000000000000000000000000000000000000000000000000000000000000000",
                    "coinbase" : "0x2adc25665018aa1fe0e6bc666dac8fc2697ff9ba",
                    "difficulty" : "0x00",
                    "excessBlobGas" : "0x00",
                    "extraData" : "0x00",
                    "gasLimit" : "0x016345785d8a0000",
                    "gasUsed" : "0x039a01",
                    "hash" : "0xe8010355851599ef45a2071fc69e5d96f70b4c72dd4bcbed8bf77a9f0fc08745",
                    "mixHash" : "0x0000000000000000000000000000000000000000000000000000000000000000",
                    "nonce" : "0x0000000000000000",
                    "number" : "0x01",
                    "parentBeaconBlockRoot" : "0x0000000000000000000000000000000000000000000000000000000000000000",
                    "parentHash" : "0x68ca17dd6676fabc982a409033bd390be52f66dc63edf16533ed27efa5f1a530",
                    "receiptTrie" : "0xd5dea520f962bcb326c68f90f6eae6733b4002522d7a32da37cdc5c142b4dc4f",
                    "stateRoot" : "0xc0b5b2872ba09ffd83175c779b4698bdfa087c6f0468801b971374759671d7e6",
                    "timestamp" : "0x03e8",
                    "transactionsTrie" : "0xb3311f08e0e6add21bf54e298fc03e742cf752dff6576f524c3bbf94b39bb005",
                    "uncleHash" : "0x1dcc4de8dec75d7aab85b567b6ccd41ad312451b948a7413f0a142fd40d49347",
                    "withdrawalsRoot" : "0x56e81f171bcc55a6ff8345e692c0f86e5b48e01b996cadc001622fb5e363b421"
                },
                "rlp" : "0xf902ddf9023fa068ca17dd6676fabc982a409033bd390be52f66dc63edf16533ed27efa5f1a530a01dcc4de8dec75d7aab85b567b6ccd41ad312451b948a7413f0a142fd40d49347942adc25665018aa1fe0e6bc666dac8fc2697ff9baa0c0b5b2872ba09ffd83175c779b4698bdfa087c6f0468801b971374759671d7e6a0b3311f08e0e6add21bf54e298fc03e742cf752dff6576f524c3bbf94b39bb005a0d5dea520f962bcb326c68f90f6eae6733b4002522d7a32da37cdc5c142b4dc4fb9010000000000000000000000000000000000000000000000000000000000000000000000000000000000000000000000000000000000000000000000000000000000000000000000000000000000000000000000000000000000000000000000000000000000000000000000000000000000000000000000000000000000000000000000000000000000000000000000000000000000000000000000000000000000000000000000000000000000000000000000000000000000000000000000000000000000000000000000000000000000000000000000000000000000000000000000000000000000000000000000000000000000000000000000000000000000800188016345785d8a000083039a018203e800a0000000000000000000000000000000000000000000000000000000000000000088000000000000000007a056e81f171bcc55a6ff8345e692c0f86e5b48e01b996cadc001622fb5e363b4218080a00000000000000000000000000000000000000000000000000000000000000000f897f895800a8405f5e1008080b847603d6000600073000000000000000000000000000000000000abcd3c603d60006000f0600055600060006000600060007300000000000000000000000000000000deadbeef45f11ca05e2399ead0884964c44343e87ac090921870df6da40048cf4a37c2a5144cc3e9a04b5f3ec615e2767d1a598c5b5ab49e9666c4214bd453b2270e06319a6412cca2c0c0",
                "transactions" : [
                    {
                        "chainId" : "0x00",
                        "data" : "0x603d6000600073000000000000000000000000000000000000abcd3c603d60006000f0600055600060006000600060007300000000000000000000000000000000deadbeef45f1",
                        "gasLimit" : "0x05f5e100",
                        "gasPrice" : "0x0a",
                        "nonce" : "0x00",
                        "r" : "0x5e2399ead0884964c44343e87ac090921870df6da40048cf4a37c2a5144cc3e9",
                        "s" : "0x4b5f3ec615e2767d1a598c5b5ab49e9666c4214bd453b2270e06319a6412cca2",
                        "sender" : "0xa94f5374fce5edbc8e2a8697c15331677e6ebf0b",
                        "to" : "",
                        "type" : "0x00",
                        "v" : "0x1c",
                        "value" : "0x00"
                    }
                ],
                "uncleHeaders" : [
                ],
                "withdrawals" : [
                ]
            }
        ],
        "genesisBlockHeader" : {
            "baseFeePerGas" : "0x07",
            "blobGasUsed" : "0x00",
            "bloom" : "0x00000000000000000000000000000000000000000000000000000000000000000000000000000000000000000000000000000000000000000000000000000000000000000000000000000000000000000000000000000000000000000000000000000000000000000000000000000000000000000000000000000000000000000000000000000000000000000000000000000000000000000000000000000000000000000000000000000000000000000000000000000000000000000000000000000000000000000000000000000000000000000000000000000000000000000000000000000000000000000000000000000000000000000000000000000000",
            "coinbase" : "0x0000000000000000000000000000000000000000",
            "difficulty" : "0x00",
            "excessBlobGas" : "0x00",
            "extraData" : "0x00",
            "gasLimit" : "0x016345785d8a0000",
            "gasUsed" : "0x00",
            "hash" : "0x68ca17dd6676fabc982a409033bd390be52f66dc63edf16533ed27efa5f1a530",
            "mixHash" : "0x0000000000000000000000000000000000000000000000000000000000000000",
            "nonce" : "0x0000000000000000",
            "number" : "0x00",
            "parentBeaconBlockRoot" : "0x0000000000000000000000000000000000000000000000000000000000000000",
            "parentHash" : "0x0000000000000000000000000000000000000000000000000000000000000000",
            "receiptTrie" : "0x56e81f171bcc55a6ff8345e692c0f86e5b48e01b996cadc001622fb5e363b421",
            "stateRoot" : "0x73d41fbb1d8d08d6392b64096d6a6d528ebf68be0b659a2eee6b28abfb2a51d9",
            "timestamp" : "0x00",
            "transactionsTrie" : "0x56e81f171bcc55a6ff8345e692c0f86e5b48e01b996cadc001622fb5e363b421",
            "uncleHash" : "0x1dcc4de8dec75d7aab85b567b6ccd41ad312451b948a7413f0a142fd40d49347",
            "withdrawalsRoot" : "0x56e81f171bcc55a6ff8345e692c0f86e5b48e01b996cadc001622fb5e363b421"
        },
        "genesisRLP" : "0xf90240f9023aa00000000000000000000000000000000000000000000000000000000000000000a01dcc4de8dec75d7aab85b567b6ccd41ad312451b948a7413f0a142fd40d49347940000000000000000000000000000000000000000a073d41fbb1d8d08d6392b64096d6a6d528ebf68be0b659a2eee6b28abfb2a51d9a056e81f171bcc55a6ff8345e692c0f86e5b48e01b996cadc001622fb5e363b421a056e81f171bcc55a6ff8345e692c0f86e5b48e01b996cadc001622fb5e363b421b9010000000000000000000000000000000000000000000000000000000000000000000000000000000000000000000000000000000000000000000000000000000000000000000000000000000000000000000000000000000000000000000000000000000000000000000000000000000000000000000000000000000000000000000000000000000000000000000000000000000000000000000000000000000000000000000000000000000000000000000000000000000000000000000000000000000000000000000000000000000000000000000000000000000000000000000000000000000000000000000000000000000000000000000000000000000000808088016345785d8a0000808000a0000000000000000000000000000000000000000000000000000000000000000088000000000000000007a056e81f171bcc55a6ff8345e692c0f86e5b48e01b996cadc001622fb5e363b4218080a00000000000000000000000000000000000000000000000000000000000000000c0c0c0",
        "lastblockhash" : "0xe8010355851599ef45a2071fc69e5d96f70b4c72dd4bcbed8bf77a9f0fc08745",
        "network" : "Cancun",
        "postState" : {
            "0x000000000000000000000000000000000000abcd" : {
                "balance" : "0x00",
                "code" : "0x610032600081600b8239f35f35805f811460115760018114602057005b5f54600181019050805f555f80f35b60015460018101905080600155611234ff",
                "nonce" : "0x00",
                "storage" : {
                }
            },
            "0x00000000000000000000000000000000deadbeef" : {
                "balance" : "0x02",
                "code" : "0x5f355f6001825f811460145760018114606057005b5f80525f8060205f60017364e2ebd6405af8cb348aec519084d3fff42ebba645f150815f525f8060205f803045f1507364e2ebd6405af8cb348aec519084d3fff42ebba6316001555f80f35b60015f525f8060205f60017364e2ebd6405af8cb348aec519084d3fff42ebba645f15f80fd",
                "nonce" : "0x00",
                "storage" : {
                    "0x01" : "0x01"
                }
            },
            "0x2adc25665018aa1fe0e6bc666dac8fc2697ff9ba" : {
                "balance" : "0x0ace03",
                "code" : "0x",
                "nonce" : "0x00",
                "storage" : {
                }
            },
            "0x6295ee1b4f6dd65047762f924ecd367c17eabf8f" : {
                "balance" : "0x00",
                "code" : "0x",
                "nonce" : "0x02",
                "storage" : {
                    "0x00" : "0x64e2ebd6405af8cb348aec519084d3fff42ebba6"
                }
            },
            "0x64e2ebd6405af8cb348aec519084d3fff42ebba6" : {
                "balance" : "0x01",
                "code" : "0x5f35805f811460115760018114602057005b5f54600181019050805f555f80f35b60015460018101905080600155611234ff",
                "nonce" : "0x01",
                "storage" : {
                    "0x00" : "0x01"
                }
            },
            "0xa94f5374fce5edbc8e2a8697c15331677e6ebf0b" : {
                "balance" : "0x056bc75e2d62ebfbf6",
                "code" : "0x",
                "nonce" : "0x01",
                "storage" : {
                }
            },
            "0xbeac00ddb15f3b6d645c48263dc93862413a222d" : {
                "balance" : "0x00",
                "code" : "0x3373fffffffffffffffffffffffffffffffffffffffe14604457602036146024575f5ffd5b620180005f350680545f35146037575f5ffd5b6201800001545f5260205ff35b6201800042064281555f359062018000015500",
                "nonce" : "0x01",
                "storage" : {
                    "0x03e8" : "0x03e8"
                }
            }
        },
        "pre" : {
            "0x000000000000000000000000000000000000abcd" : {
                "balance" : "0x00",
                "code" : "0x610032600081600b8239f35f35805f811460115760018114602057005b5f54600181019050805f555f80f35b60015460018101905080600155611234ff",
                "nonce" : "0x00",
                "storage" : {
                }
            },
            "0x00000000000000000000000000000000deadbeef" : {
                "balance" : "0x03",
                "code" : "0x5f355f6001825f811460145760018114606057005b5f80525f8060205f60017364e2ebd6405af8cb348aec519084d3fff42ebba645f150815f525f8060205f803045f1507364e2ebd6405af8cb348aec519084d3fff42ebba6316001555f80f35b60015f525f8060205f60017364e2ebd6405af8cb348aec519084d3fff42ebba645f15f80fd",
                "nonce" : "0x00",
                "storage" : {
                }
            },
            "0xa94f5374fce5edbc8e2a8697c15331677e6ebf0b" : {
                "balance" : "0x056bc75e2d63100000",
                "code" : "0x",
                "nonce" : "0x00",
                "storage" : {
                }
            },
            "0xbeac00ddb15f3b6d645c48263dc93862413a222d" : {
                "balance" : "0x00",
                "code" : "0x3373fffffffffffffffffffffffffffffffffffffffe14604457602036146024575f5ffd5b620180005f350680545f35146037575f5ffd5b6201800001545f5260205ff35b6201800042064281555f359062018000015500",
                "nonce" : "0x01",
                "storage" : {
                }
            }
        },
        "sealEngine" : "NoProof"
    },
    "001-fork=Cancun-outer_selfdestruct_before_inner_call" : {
        "_info" : {
            "comment" : "",
            "filling-rpc-server" : "evm version 1.13.0-unstable-b1a1675c-20230912",
            "filling-tool-version" : "retesteth-0.3.1-cancun+commit.cffe14c5.Linux.g++",
            "filling-transition-tool" : "evm version 1.13.0-unstable-b1a1675c-20230912",
            "generatedTestHash" : "56e51ed86a5db24bbc80abe6c60ff35b9e4a69fd63f7f2b0410f81a55aa1e8c4",
            "lllcversion" : "Version: 0.5.14-develop.2023.7.11+commit.c58ab2c6.mod.Linux.g++",
            "solidity" : "Version: 0.8.20+commit.a1b79de6.Linux.g++",
            "source" : "src/EIPTestsFiller/Pyspecs/cancun/eip6780_selfdestruct/test_selfdestruct_revert.py",
            "sourceHash" : "1668d2d80d26c3ddabc5718cc1bfab53136ed47adb723364bb42371931cfc77a"
        },
        "blocks" : [
            {
                "blockHeader" : {
                    "baseFeePerGas" : "0x07",
                    "blobGasUsed" : "0x00",
                    "bloom" : "0x00000000000000000000000000000000000000000000000000000000000000000000000000000000000000000000000000000000000000000000000000000000000000000000000000000000000000000000000000000000000000000000000000000000000000000000000000000000000000000000000000000000000000000000000000000000000000000000000000000000000000000000000000000000000000000000000000000000000000000000000000000000000000000000000000000000000000000000000000000000000000000000000000000000000000000000000000000000000000000000000000000000000000000000000000000000",
                    "coinbase" : "0x2adc25665018aa1fe0e6bc666dac8fc2697ff9ba",
                    "difficulty" : "0x00",
                    "excessBlobGas" : "0x00",
                    "extraData" : "0x00",
                    "gasLimit" : "0x016345785d8a0000",
                    "gasUsed" : "0x03c94b",
                    "hash" : "0xc68ac4d8191faa3be5ed3e6f4058f72d7183d41d37c62bb1b12bc152d5b8ff65",
                    "mixHash" : "0x0000000000000000000000000000000000000000000000000000000000000000",
                    "nonce" : "0x0000000000000000",
                    "number" : "0x01",
                    "parentBeaconBlockRoot" : "0x0000000000000000000000000000000000000000000000000000000000000000",
                    "parentHash" : "0xa22f550f5a282c1381beed9e07fa9f28f8f6af83170ec9e531c23a718e9bf821",
                    "receiptTrie" : "0xba216058b12806178572364e550932d11bd7e16508f0047899cd89c57c993493",
                    "stateRoot" : "0x8e5508bae87868055bed1fd6c04a20e4a7acd582bbdf60213584584aaefcbefc",
                    "timestamp" : "0x03e8",
                    "transactionsTrie" : "0xb3311f08e0e6add21bf54e298fc03e742cf752dff6576f524c3bbf94b39bb005",
                    "uncleHash" : "0x1dcc4de8dec75d7aab85b567b6ccd41ad312451b948a7413f0a142fd40d49347",
                    "withdrawalsRoot" : "0x56e81f171bcc55a6ff8345e692c0f86e5b48e01b996cadc001622fb5e363b421"
                },
                "rlp" : "0xf902ddf9023fa0a22f550f5a282c1381beed9e07fa9f28f8f6af83170ec9e531c23a718e9bf821a01dcc4de8dec75d7aab85b567b6ccd41ad312451b948a7413f0a142fd40d49347942adc25665018aa1fe0e6bc666dac8fc2697ff9baa08e5508bae87868055bed1fd6c04a20e4a7acd582bbdf60213584584aaefcbefca0b3311f08e0e6add21bf54e298fc03e742cf752dff6576f524c3bbf94b39bb005a0ba216058b12806178572364e550932d11bd7e16508f0047899cd89c57c993493b9010000000000000000000000000000000000000000000000000000000000000000000000000000000000000000000000000000000000000000000000000000000000000000000000000000000000000000000000000000000000000000000000000000000000000000000000000000000000000000000000000000000000000000000000000000000000000000000000000000000000000000000000000000000000000000000000000000000000000000000000000000000000000000000000000000000000000000000000000000000000000000000000000000000000000000000000000000000000000000000000000000000000000000000000000000000000800188016345785d8a00008303c94b8203e800a0000000000000000000000000000000000000000000000000000000000000000088000000000000000007a056e81f171bcc55a6ff8345e692c0f86e5b48e01b996cadc001622fb5e363b4218080a00000000000000000000000000000000000000000000000000000000000000000f897f895800a8405f5e1008080b847603d6000600073000000000000000000000000000000000000abcd3c603d60006000f0600055600060006000600060007300000000000000000000000000000000deadbeef45f11ca05e2399ead0884964c44343e87ac090921870df6da40048cf4a37c2a5144cc3e9a04b5f3ec615e2767d1a598c5b5ab49e9666c4214bd453b2270e06319a6412cca2c0c0",
                "transactions" : [
                    {
                        "chainId" : "0x00",
                        "data" : "0x603d6000600073000000000000000000000000000000000000abcd3c603d60006000f0600055600060006000600060007300000000000000000000000000000000deadbeef45f1",
                        "gasLimit" : "0x05f5e100",
                        "gasPrice" : "0x0a",
                        "nonce" : "0x00",
                        "r" : "0x5e2399ead0884964c44343e87ac090921870df6da40048cf4a37c2a5144cc3e9",
                        "s" : "0x4b5f3ec615e2767d1a598c5b5ab49e9666c4214bd453b2270e06319a6412cca2",
                        "sender" : "0xa94f5374fce5edbc8e2a8697c15331677e6ebf0b",
                        "to" : "",
                        "type" : "0x00",
                        "v" : "0x1c",
                        "value" : "0x00"
                    }
                ],
                "uncleHeaders" : [
                ],
                "withdrawals" : [
                ]
            }
        ],
        "genesisBlockHeader" : {
            "baseFeePerGas" : "0x07",
            "blobGasUsed" : "0x00",
            "bloom" : "0x00000000000000000000000000000000000000000000000000000000000000000000000000000000000000000000000000000000000000000000000000000000000000000000000000000000000000000000000000000000000000000000000000000000000000000000000000000000000000000000000000000000000000000000000000000000000000000000000000000000000000000000000000000000000000000000000000000000000000000000000000000000000000000000000000000000000000000000000000000000000000000000000000000000000000000000000000000000000000000000000000000000000000000000000000000000",
            "coinbase" : "0x0000000000000000000000000000000000000000",
            "difficulty" : "0x00",
            "excessBlobGas" : "0x00",
            "extraData" : "0x00",
            "gasLimit" : "0x016345785d8a0000",
            "gasUsed" : "0x00",
            "hash" : "0xa22f550f5a282c1381beed9e07fa9f28f8f6af83170ec9e531c23a718e9bf821",
            "mixHash" : "0x0000000000000000000000000000000000000000000000000000000000000000",
            "nonce" : "0x0000000000000000",
            "number" : "0x00",
            "parentBeaconBlockRoot" : "0x0000000000000000000000000000000000000000000000000000000000000000",
            "parentHash" : "0x0000000000000000000000000000000000000000000000000000000000000000",
            "receiptTrie" : "0x56e81f171bcc55a6ff8345e692c0f86e5b48e01b996cadc001622fb5e363b421",
            "stateRoot" : "0x85940929906187ff6725bc8d4219cf8ff85f6210e387c9692a8d6874f885cf28",
            "timestamp" : "0x00",
            "transactionsTrie" : "0x56e81f171bcc55a6ff8345e692c0f86e5b48e01b996cadc001622fb5e363b421",
            "uncleHash" : "0x1dcc4de8dec75d7aab85b567b6ccd41ad312451b948a7413f0a142fd40d49347",
            "withdrawalsRoot" : "0x56e81f171bcc55a6ff8345e692c0f86e5b48e01b996cadc001622fb5e363b421"
        },
        "genesisRLP" : "0xf90240f9023aa00000000000000000000000000000000000000000000000000000000000000000a01dcc4de8dec75d7aab85b567b6ccd41ad312451b948a7413f0a142fd40d49347940000000000000000000000000000000000000000a085940929906187ff6725bc8d4219cf8ff85f6210e387c9692a8d6874f885cf28a056e81f171bcc55a6ff8345e692c0f86e5b48e01b996cadc001622fb5e363b421a056e81f171bcc55a6ff8345e692c0f86e5b48e01b996cadc001622fb5e363b421b9010000000000000000000000000000000000000000000000000000000000000000000000000000000000000000000000000000000000000000000000000000000000000000000000000000000000000000000000000000000000000000000000000000000000000000000000000000000000000000000000000000000000000000000000000000000000000000000000000000000000000000000000000000000000000000000000000000000000000000000000000000000000000000000000000000000000000000000000000000000000000000000000000000000000000000000000000000000000000000000000000000000000000000000000000000000000808088016345785d8a0000808000a0000000000000000000000000000000000000000000000000000000000000000088000000000000000007a056e81f171bcc55a6ff8345e692c0f86e5b48e01b996cadc001622fb5e363b4218080a00000000000000000000000000000000000000000000000000000000000000000c0c0c0",
        "lastblockhash" : "0xc68ac4d8191faa3be5ed3e6f4058f72d7183d41d37c62bb1b12bc152d5b8ff65",
        "network" : "Cancun",
        "postState" : {
            "0x0000000000000000000000000000000000001234" : {
                "balance" : "0x01",
                "code" : "0x",
                "nonce" : "0x00",
                "storage" : {
                }
            },
            "0x000000000000000000000000000000000000abcd" : {
                "balance" : "0x00",
                "code" : "0x610032600081600b8239f35f35805f811460115760018114602057005b5f54600181019050805f555f80f35b60015460018101905080600155611234ff",
                "nonce" : "0x00",
                "storage" : {
                }
            },
            "0x00000000000000000000000000000000deadbeef" : {
                "balance" : "0x01",
                "code" : "0x5f355f6001825f811460145760018114608357005b60015f525f8060205f60017364e2ebd6405af8cb348aec519084d3fff42ebba645f1505f80525f8060205f60017364e2ebd6405af8cb348aec519084d3fff42ebba645f150815f525f8060205f803045f1507364e2ebd6405af8cb348aec519084d3fff42ebba6316001555f80f35b60015f525f8060205f60017364e2ebd6405af8cb348aec519084d3fff42ebba645f15f80fd",
                "nonce" : "0x00",
                "storage" : {
                    "0x01" : "0x01"
                }
            },
            "0x2adc25665018aa1fe0e6bc666dac8fc2697ff9ba" : {
                "balance" : "0x0b5be1",
                "code" : "0x",
                "nonce" : "0x00",
                "storage" : {
                }
            },
            "0x6295ee1b4f6dd65047762f924ecd367c17eabf8f" : {
                "balance" : "0x00",
                "code" : "0x",
                "nonce" : "0x02",
                "storage" : {
                    "0x00" : "0x64e2ebd6405af8cb348aec519084d3fff42ebba6"
                }
            },
            "0xa94f5374fce5edbc8e2a8697c15331677e6ebf0b" : {
                "balance" : "0x056bc75e2d62ea2312",
                "code" : "0x",
                "nonce" : "0x01",
                "storage" : {
                }
            },
            "0xbeac00ddb15f3b6d645c48263dc93862413a222d" : {
                "balance" : "0x00",
                "code" : "0x3373fffffffffffffffffffffffffffffffffffffffe14604457602036146024575f5ffd5b620180005f350680545f35146037575f5ffd5b6201800001545f5260205ff35b6201800042064281555f359062018000015500",
                "nonce" : "0x01",
                "storage" : {
                    "0x03e8" : "0x03e8"
                }
            }
        },
        "pre" : {
            "0x000000000000000000000000000000000000abcd" : {
                "balance" : "0x00",
                "code" : "0x610032600081600b8239f35f35805f811460115760018114602057005b5f54600181019050805f555f80f35b60015460018101905080600155611234ff",
                "nonce" : "0x00",
                "storage" : {
                }
            },
            "0x00000000000000000000000000000000deadbeef" : {
                "balance" : "0x03",
                "code" : "0x5f355f6001825f811460145760018114608357005b60015f525f8060205f60017364e2ebd6405af8cb348aec519084d3fff42ebba645f1505f80525f8060205f60017364e2ebd6405af8cb348aec519084d3fff42ebba645f150815f525f8060205f803045f1507364e2ebd6405af8cb348aec519084d3fff42ebba6316001555f80f35b60015f525f8060205f60017364e2ebd6405af8cb348aec519084d3fff42ebba645f15f80fd",
                "nonce" : "0x00",
                "storage" : {
                }
            },
            "0xa94f5374fce5edbc8e2a8697c15331677e6ebf0b" : {
                "balance" : "0x056bc75e2d63100000",
                "code" : "0x",
                "nonce" : "0x00",
                "storage" : {
                }
            },
            "0xbeac00ddb15f3b6d645c48263dc93862413a222d" : {
                "balance" : "0x00",
                "code" : "0x3373fffffffffffffffffffffffffffffffffffffffe14604457602036146024575f5ffd5b620180005f350680545f35146037575f5ffd5b6201800001545f5260205ff35b6201800042064281555f359062018000015500",
                "nonce" : "0x01",
                "storage" : {
                }
            }
        },
        "sealEngine" : "NoProof"
    },
    "002-fork=Cancun-outer_selfdestruct_after_inner_call" : {
        "_info" : {
            "comment" : "",
            "filling-rpc-server" : "evm version 1.13.0-unstable-b1a1675c-20230912",
            "filling-tool-version" : "retesteth-0.3.1-cancun+commit.cffe14c5.Linux.g++",
            "filling-transition-tool" : "evm version 1.13.0-unstable-b1a1675c-20230912",
            "generatedTestHash" : "65a6757728ff1d4e27f122188f9446a6a7ce3193556a2c2ebbd0755eadab726d",
            "lllcversion" : "Version: 0.5.14-develop.2023.7.11+commit.c58ab2c6.mod.Linux.g++",
            "solidity" : "Version: 0.8.20+commit.a1b79de6.Linux.g++",
            "source" : "src/EIPTestsFiller/Pyspecs/cancun/eip6780_selfdestruct/test_selfdestruct_revert.py",
            "sourceHash" : "1668d2d80d26c3ddabc5718cc1bfab53136ed47adb723364bb42371931cfc77a"
        },
        "blocks" : [
            {
                "blockHeader" : {
                    "baseFeePerGas" : "0x07",
                    "blobGasUsed" : "0x00",
                    "bloom" : "0x00000000000000000000000000000000000000000000000000000000000000000000000000000000000000000000000000000000000000000000000000000000000000000000000000000000000000000000000000000000000000000000000000000000000000000000000000000000000000000000000000000000000000000000000000000000000000000000000000000000000000000000000000000000000000000000000000000000000000000000000000000000000000000000000000000000000000000000000000000000000000000000000000000000000000000000000000000000000000000000000000000000000000000000000000000000",
                    "coinbase" : "0x2adc25665018aa1fe0e6bc666dac8fc2697ff9ba",
                    "difficulty" : "0x00",
                    "excessBlobGas" : "0x00",
                    "extraData" : "0x00",
                    "gasLimit" : "0x016345785d8a0000",
                    "gasUsed" : "0x048aa5",
                    "hash" : "0x521ccfe4a00d306bcc73afd8d755b410d0b5e1ef155361097ace089a463c7e5e",
                    "mixHash" : "0x0000000000000000000000000000000000000000000000000000000000000000",
                    "nonce" : "0x0000000000000000",
                    "number" : "0x01",
                    "parentBeaconBlockRoot" : "0x0000000000000000000000000000000000000000000000000000000000000000",
                    "parentHash" : "0xa6b311d93ac69dda1eb1ebebf1834a0058ea67ae12d37594051dc9968d096377",
                    "receiptTrie" : "0x3c95d2b2b7b8fb524b84c854142ed429430a2226dff8242c34ac9fdec7afbe5e",
                    "stateRoot" : "0xb050ba837ad4a4614c851d84eb9453097882431a248d99b78fcaed86d7b8f2d0",
                    "timestamp" : "0x03e8",
                    "transactionsTrie" : "0xb3311f08e0e6add21bf54e298fc03e742cf752dff6576f524c3bbf94b39bb005",
                    "uncleHash" : "0x1dcc4de8dec75d7aab85b567b6ccd41ad312451b948a7413f0a142fd40d49347",
                    "withdrawalsRoot" : "0x56e81f171bcc55a6ff8345e692c0f86e5b48e01b996cadc001622fb5e363b421"
                },
                "rlp" : "0xf902ddf9023fa0a6b311d93ac69dda1eb1ebebf1834a0058ea67ae12d37594051dc9968d096377a01dcc4de8dec75d7aab85b567b6ccd41ad312451b948a7413f0a142fd40d49347942adc25665018aa1fe0e6bc666dac8fc2697ff9baa0b050ba837ad4a4614c851d84eb9453097882431a248d99b78fcaed86d7b8f2d0a0b3311f08e0e6add21bf54e298fc03e742cf752dff6576f524c3bbf94b39bb005a03c95d2b2b7b8fb524b84c854142ed429430a2226dff8242c34ac9fdec7afbe5eb9010000000000000000000000000000000000000000000000000000000000000000000000000000000000000000000000000000000000000000000000000000000000000000000000000000000000000000000000000000000000000000000000000000000000000000000000000000000000000000000000000000000000000000000000000000000000000000000000000000000000000000000000000000000000000000000000000000000000000000000000000000000000000000000000000000000000000000000000000000000000000000000000000000000000000000000000000000000000000000000000000000000000000000000000000000000000800188016345785d8a000083048aa58203e800a0000000000000000000000000000000000000000000000000000000000000000088000000000000000007a056e81f171bcc55a6ff8345e692c0f86e5b48e01b996cadc001622fb5e363b4218080a00000000000000000000000000000000000000000000000000000000000000000f897f895800a8405f5e1008080b847603d6000600073000000000000000000000000000000000000abcd3c603d60006000f0600055600060006000600060007300000000000000000000000000000000deadbeef45f11ca05e2399ead0884964c44343e87ac090921870df6da40048cf4a37c2a5144cc3e9a04b5f3ec615e2767d1a598c5b5ab49e9666c4214bd453b2270e06319a6412cca2c0c0",
                "transactions" : [
                    {
                        "chainId" : "0x00",
                        "data" : "0x603d6000600073000000000000000000000000000000000000abcd3c603d60006000f0600055600060006000600060007300000000000000000000000000000000deadbeef45f1",
                        "gasLimit" : "0x05f5e100",
                        "gasPrice" : "0x0a",
                        "nonce" : "0x00",
                        "r" : "0x5e2399ead0884964c44343e87ac090921870df6da40048cf4a37c2a5144cc3e9",
                        "s" : "0x4b5f3ec615e2767d1a598c5b5ab49e9666c4214bd453b2270e06319a6412cca2",
                        "sender" : "0xa94f5374fce5edbc8e2a8697c15331677e6ebf0b",
                        "to" : "",
                        "type" : "0x00",
                        "v" : "0x1c",
                        "value" : "0x00"
                    }
                ],
                "uncleHeaders" : [
                ],
                "withdrawals" : [
                ]
            }
        ],
        "genesisBlockHeader" : {
            "baseFeePerGas" : "0x07",
            "blobGasUsed" : "0x00",
            "bloom" : "0x00000000000000000000000000000000000000000000000000000000000000000000000000000000000000000000000000000000000000000000000000000000000000000000000000000000000000000000000000000000000000000000000000000000000000000000000000000000000000000000000000000000000000000000000000000000000000000000000000000000000000000000000000000000000000000000000000000000000000000000000000000000000000000000000000000000000000000000000000000000000000000000000000000000000000000000000000000000000000000000000000000000000000000000000000000000",
            "coinbase" : "0x0000000000000000000000000000000000000000",
            "difficulty" : "0x00",
            "excessBlobGas" : "0x00",
            "extraData" : "0x00",
            "gasLimit" : "0x016345785d8a0000",
            "gasUsed" : "0x00",
            "hash" : "0xa6b311d93ac69dda1eb1ebebf1834a0058ea67ae12d37594051dc9968d096377",
            "mixHash" : "0x0000000000000000000000000000000000000000000000000000000000000000",
            "nonce" : "0x0000000000000000",
            "number" : "0x00",
            "parentBeaconBlockRoot" : "0x0000000000000000000000000000000000000000000000000000000000000000",
            "parentHash" : "0x0000000000000000000000000000000000000000000000000000000000000000",
            "receiptTrie" : "0x56e81f171bcc55a6ff8345e692c0f86e5b48e01b996cadc001622fb5e363b421",
            "stateRoot" : "0x5d6658bbbb21209fa98ef1698ea439893cca4de13bf4f6e384e454338491cb5d",
            "timestamp" : "0x00",
            "transactionsTrie" : "0x56e81f171bcc55a6ff8345e692c0f86e5b48e01b996cadc001622fb5e363b421",
            "uncleHash" : "0x1dcc4de8dec75d7aab85b567b6ccd41ad312451b948a7413f0a142fd40d49347",
            "withdrawalsRoot" : "0x56e81f171bcc55a6ff8345e692c0f86e5b48e01b996cadc001622fb5e363b421"
        },
        "genesisRLP" : "0xf90240f9023aa00000000000000000000000000000000000000000000000000000000000000000a01dcc4de8dec75d7aab85b567b6ccd41ad312451b948a7413f0a142fd40d49347940000000000000000000000000000000000000000a05d6658bbbb21209fa98ef1698ea439893cca4de13bf4f6e384e454338491cb5da056e81f171bcc55a6ff8345e692c0f86e5b48e01b996cadc001622fb5e363b421a056e81f171bcc55a6ff8345e692c0f86e5b48e01b996cadc001622fb5e363b421b9010000000000000000000000000000000000000000000000000000000000000000000000000000000000000000000000000000000000000000000000000000000000000000000000000000000000000000000000000000000000000000000000000000000000000000000000000000000000000000000000000000000000000000000000000000000000000000000000000000000000000000000000000000000000000000000000000000000000000000000000000000000000000000000000000000000000000000000000000000000000000000000000000000000000000000000000000000000000000000000000000000000000000000000000000000000000808088016345785d8a0000808000a0000000000000000000000000000000000000000000000000000000000000000088000000000000000007a056e81f171bcc55a6ff8345e692c0f86e5b48e01b996cadc001622fb5e363b4218080a00000000000000000000000000000000000000000000000000000000000000000c0c0c0",
        "lastblockhash" : "0x521ccfe4a00d306bcc73afd8d755b410d0b5e1ef155361097ace089a463c7e5e",
        "network" : "Cancun",
        "postState" : {
            "0x0000000000000000000000000000000000001234" : {
                "balance" : "0x02",
                "code" : "0x",
                "nonce" : "0x00",
                "storage" : {
                }
            },
            "0x000000000000000000000000000000000000abcd" : {
                "balance" : "0x00",
                "code" : "0x610032600081600b8239f35f35805f811460115760018114602057005b5f54600181019050805f555f80f35b60015460018101905080600155611234ff",
                "nonce" : "0x00",
                "storage" : {
                }
            },
            "0x00000000000000000000000000000000deadbeef" : {
                "balance" : "0x01",
                "code" : "0x5f355f6001825f811460145760018114608257005b5f80525f8060205f60017364e2ebd6405af8cb348aec519084d3fff42ebba645f150815f525f8060205f803045f1507364e2ebd6405af8cb348aec519084d3fff42ebba63160015560015f525f8060205f60017364e2ebd6405af8cb348aec519084d3fff42ebba645f15f80f35b60015f525f8060205f60017364e2ebd6405af8cb348aec519084d3fff42ebba645f15f80fd",
                "nonce" : "0x00",
                "storage" : {
                    "0x01" : "0x01"
                }
            },
            "0x2adc25665018aa1fe0e6bc666dac8fc2697ff9ba" : {
                "balance" : "0x0d9fef",
                "code" : "0x",
                "nonce" : "0x00",
                "storage" : {
                }
            },
            "0x6295ee1b4f6dd65047762f924ecd367c17eabf8f" : {
                "balance" : "0x00",
                "code" : "0x",
                "nonce" : "0x02",
                "storage" : {
                    "0x00" : "0x64e2ebd6405af8cb348aec519084d3fff42ebba6"
                }
            },
            "0xa94f5374fce5edbc8e2a8697c15331677e6ebf0b" : {
                "balance" : "0x056bc75e2d62e2958e",
                "code" : "0x",
                "nonce" : "0x01",
                "storage" : {
                }
            },
            "0xbeac00ddb15f3b6d645c48263dc93862413a222d" : {
                "balance" : "0x00",
                "code" : "0x3373fffffffffffffffffffffffffffffffffffffffe14604457602036146024575f5ffd5b620180005f350680545f35146037575f5ffd5b6201800001545f5260205ff35b6201800042064281555f359062018000015500",
                "nonce" : "0x01",
                "storage" : {
                    "0x03e8" : "0x03e8"
                }
            }
        },
        "pre" : {
            "0x000000000000000000000000000000000000abcd" : {
                "balance" : "0x00",
                "code" : "0x610032600081600b8239f35f35805f811460115760018114602057005b5f54600181019050805f555f80f35b60015460018101905080600155611234ff",
                "nonce" : "0x00",
                "storage" : {
                }
            },
            "0x00000000000000000000000000000000deadbeef" : {
                "balance" : "0x03",
                "code" : "0x5f355f6001825f811460145760018114608257005b5f80525f8060205f60017364e2ebd6405af8cb348aec519084d3fff42ebba645f150815f525f8060205f803045f1507364e2ebd6405af8cb348aec519084d3fff42ebba63160015560015f525f8060205f60017364e2ebd6405af8cb348aec519084d3fff42ebba645f15f80f35b60015f525f8060205f60017364e2ebd6405af8cb348aec519084d3fff42ebba645f15f80fd",
                "nonce" : "0x00",
                "storage" : {
                }
            },
            "0xa94f5374fce5edbc8e2a8697c15331677e6ebf0b" : {
                "balance" : "0x056bc75e2d63100000",
                "code" : "0x",
                "nonce" : "0x00",
                "storage" : {
                }
            },
            "0xbeac00ddb15f3b6d645c48263dc93862413a222d" : {
                "balance" : "0x00",
                "code" : "0x3373fffffffffffffffffffffffffffffffffffffffe14604457602036146024575f5ffd5b620180005f350680545f35146037575f5ffd5b6201800001545f5260205ff35b6201800042064281555f359062018000015500",
                "nonce" : "0x01",
                "storage" : {
                }
            }
        },
        "sealEngine" : "NoProof"
    }
}