{
    "000-fork=Cancun-no_outer_selfdestruct" : {
        "_info" : {
            "comment" : "",
            "filling-rpc-server" : "evm version 1.13.0-unstable-0bf2d99a-20230901",
            "filling-tool-version" : "retesteth-0.3.1-cancun+commit.372a5939.Linux.g++",
            "filling-transition-tool" : "evm version 1.13.0-unstable-0bf2d99a-20230901",
            "generatedTestHash" : "3408e74b1c6dc88acb7a927993574b77f1fdeda82dce3e4738c3caf3194dfbf0",
            "lllcversion" : "Version: 0.5.14-develop.2023.7.11+commit.c58ab2c6.mod.Linux.g++",
            "solidity" : "Version: 0.8.20+commit.a1b79de6.Linux.g++",
            "source" : "src/EIPTestsFiller/Pyspecs/cancun/eip6780_selfdestruct/test_selfdestruct_revert.py",
            "sourceHash" : "1668d2d80d26c3ddabc5718cc1bfab53136ed47adb723364bb42371931cfc77a"
        },
        "blocks" : [
            {
                "blockHeader" : {
                    "baseFeePerGas" : "0x07",
                    "blobGasUsed" : "0x00",
                    "bloom" : "0x00000000000000000000000000000000000000000000000000000000000000000000000000000000000000000000000000000000000000000000000000000000000000000000000000000000000000000000000000000000000000000000000000000000000000000000000000000000000000000000000000000000000000000000000000000000000000000000000000000000000000000000000000000000000000000000000000000000000000000000000000000000000000000000000000000000000000000000000000000000000000000000000000000000000000000000000000000000000000000000000000000000000000000000000000000000",
                    "coinbase" : "0x2adc25665018aa1fe0e6bc666dac8fc2697ff9ba",
                    "difficulty" : "0x00",
                    "excessBlobGas" : "0x00",
                    "extraData" : "0x00",
                    "gasLimit" : "0x016345785d8a0000",
                    "gasUsed" : "0x029da5",
                    "hash" : "0x702116e09f5c55ab9d83d3c16f4ae89e4ac963c088b1c56aa206bf8fe7ca0bbb",
                    "mixHash" : "0x0000000000000000000000000000000000000000000000000000000000000000",
                    "nonce" : "0x0000000000000000",
                    "number" : "0x01",
                    "parentBeaconBlockRoot" : "0x0000000000000000000000000000000000000000000000000000000000000000",
                    "parentHash" : "0x5a946fb5cce24acb83adb30aa0109c24e6d81e0deffd607622c67d98e4b7e5de",
                    "receiptTrie" : "0x74cc8a34c6b9604c9301803c1f5c6e45319fca3745391e2fe76ceb9705616990",
                    "stateRoot" : "0x121e67358c659266f98bc5cffa6e9e4af2a3ec49e1fe3f886805060ec9481705",
                    "timestamp" : "0x03e8",
                    "transactionsTrie" : "0xaee86bdc9f4cdcab98bcbd2bf7778c96fa0ece00fcbd5e3676d7b8df9a90feba",
                    "uncleHash" : "0x1dcc4de8dec75d7aab85b567b6ccd41ad312451b948a7413f0a142fd40d49347",
                    "withdrawalsRoot" : "0x56e81f171bcc55a6ff8345e692c0f86e5b48e01b996cadc001622fb5e363b421"
                },
                "rlp" : "0xf902b6f9023fa05a946fb5cce24acb83adb30aa0109c24e6d81e0deffd607622c67d98e4b7e5dea01dcc4de8dec75d7aab85b567b6ccd41ad312451b948a7413f0a142fd40d49347942adc25665018aa1fe0e6bc666dac8fc2697ff9baa0121e67358c659266f98bc5cffa6e9e4af2a3ec49e1fe3f886805060ec9481705a0aee86bdc9f4cdcab98bcbd2bf7778c96fa0ece00fcbd5e3676d7b8df9a90febaa074cc8a34c6b9604c9301803c1f5c6e45319fca3745391e2fe76ceb9705616990b9010000000000000000000000000000000000000000000000000000000000000000000000000000000000000000000000000000000000000000000000000000000000000000000000000000000000000000000000000000000000000000000000000000000000000000000000000000000000000000000000000000000000000000000000000000000000000000000000000000000000000000000000000000000000000000000000000000000000000000000000000000000000000000000000000000000000000000000000000000000000000000000000000000000000000000000000000000000000000000000000000000000000000000000000000000000000800188016345785d8a000083029da58203e800a0000000000000000000000000000000000000000000000000000000000000000088000000000000000007a056e81f171bcc55a6ff8345e692c0f86e5b48e01b996cadc001622fb5e363b4218080a00000000000000000000000000000000000000000000000000000000000000000f870f86e800a8405f5e1008080a1600060006000600060007300000000000000000000000000000000deadbeef45f11ba04be9d4cb23e70d0bd36b18bedaa401fd9d2dc5bce6d37bae98777c094e8d6c46a046bb18ca04a74583befbf371e13a0190e72dcdb58e6da43d192008ddb9a6afb3c0c0",
                "transactions" : [
                    {
                        "chainId" : "0x00",
                        "data" : "0x600060006000600060007300000000000000000000000000000000deadbeef45f1",
                        "gasLimit" : "0x05f5e100",
                        "gasPrice" : "0x0a",
                        "nonce" : "0x00",
                        "r" : "0x4be9d4cb23e70d0bd36b18bedaa401fd9d2dc5bce6d37bae98777c094e8d6c46",
                        "s" : "0x46bb18ca04a74583befbf371e13a0190e72dcdb58e6da43d192008ddb9a6afb3",
                        "sender" : "0xa94f5374fce5edbc8e2a8697c15331677e6ebf0b",
                        "to" : "",
                        "type" : "0x00",
                        "v" : "0x1b",
                        "value" : "0x00"
                    }
                ],
                "uncleHeaders" : [
                ],
                "withdrawals" : [
                ]
            }
        ],
        "genesisBlockHeader" : {
            "baseFeePerGas" : "0x07",
            "blobGasUsed" : "0x00",
            "bloom" : "0x00000000000000000000000000000000000000000000000000000000000000000000000000000000000000000000000000000000000000000000000000000000000000000000000000000000000000000000000000000000000000000000000000000000000000000000000000000000000000000000000000000000000000000000000000000000000000000000000000000000000000000000000000000000000000000000000000000000000000000000000000000000000000000000000000000000000000000000000000000000000000000000000000000000000000000000000000000000000000000000000000000000000000000000000000000000",
            "coinbase" : "0x0000000000000000000000000000000000000000",
            "difficulty" : "0x00",
            "excessBlobGas" : "0x00",
            "extraData" : "0x00",
            "gasLimit" : "0x016345785d8a0000",
            "gasUsed" : "0x00",
            "hash" : "0x5a946fb5cce24acb83adb30aa0109c24e6d81e0deffd607622c67d98e4b7e5de",
            "mixHash" : "0x0000000000000000000000000000000000000000000000000000000000000000",
            "nonce" : "0x0000000000000000",
            "number" : "0x00",
            "parentBeaconBlockRoot" : "0x0000000000000000000000000000000000000000000000000000000000000000",
            "parentHash" : "0x0000000000000000000000000000000000000000000000000000000000000000",
            "receiptTrie" : "0x56e81f171bcc55a6ff8345e692c0f86e5b48e01b996cadc001622fb5e363b421",
            "stateRoot" : "0xb868c5669f4286d51547d78f8f0d52a6356642852acc4cf6be130990f08c37ca",
            "timestamp" : "0x00",
            "transactionsTrie" : "0x56e81f171bcc55a6ff8345e692c0f86e5b48e01b996cadc001622fb5e363b421",
            "uncleHash" : "0x1dcc4de8dec75d7aab85b567b6ccd41ad312451b948a7413f0a142fd40d49347",
            "withdrawalsRoot" : "0x56e81f171bcc55a6ff8345e692c0f86e5b48e01b996cadc001622fb5e363b421"
        },
        "genesisRLP" : "0xf90240f9023aa00000000000000000000000000000000000000000000000000000000000000000a01dcc4de8dec75d7aab85b567b6ccd41ad312451b948a7413f0a142fd40d49347940000000000000000000000000000000000000000a0b868c5669f4286d51547d78f8f0d52a6356642852acc4cf6be130990f08c37caa056e81f171bcc55a6ff8345e692c0f86e5b48e01b996cadc001622fb5e363b421a056e81f171bcc55a6ff8345e692c0f86e5b48e01b996cadc001622fb5e363b421b9010000000000000000000000000000000000000000000000000000000000000000000000000000000000000000000000000000000000000000000000000000000000000000000000000000000000000000000000000000000000000000000000000000000000000000000000000000000000000000000000000000000000000000000000000000000000000000000000000000000000000000000000000000000000000000000000000000000000000000000000000000000000000000000000000000000000000000000000000000000000000000000000000000000000000000000000000000000000000000000000000000000000000000000000000000000000808088016345785d8a0000808000a0000000000000000000000000000000000000000000000000000000000000000088000000000000000007a056e81f171bcc55a6ff8345e692c0f86e5b48e01b996cadc001622fb5e363b4218080a00000000000000000000000000000000000000000000000000000000000000000c0c0c0",
        "lastblockhash" : "0x702116e09f5c55ab9d83d3c16f4ae89e4ac963c088b1c56aa206bf8fe7ca0bbb",
        "network" : "Cancun",
        "postState" : {
            "0x000000000000000000000000000000000000000b" : {
                "balance" : "0x00",
                "code" : "0x3373fffffffffffffffffffffffffffffffffffffffe14604457602036146024575f5ffd5b620180005f350680545f35146037575f5ffd5b6201800001545f5260205ff35b42620180004206555f3562018000420662018000015500",
                "nonce" : "0x01",
                "storage" : {
                    "0x03e8" : "0x03e8"
                }
            },
            "0x00000000000000000000000000000000deadbeef" : {
                "balance" : "0x01",
                "code" : "0x5f355f6001825f811460145760018114606057005b5f80525f8060205f60017364e2ebd6405af8cb348aec519084d3fff42ebba645f150815f525f8060205f803045f1507364e2ebd6405af8cb348aec519084d3fff42ebba6316001555f80f35b60015f525f8060205f60017364e2ebd6405af8cb348aec519084d3fff42ebba645f15f80fd",
                "nonce" : "0x00",
                "storage" : {
                    "0x01" : "0x01"
                }
            },
            "0x2adc25665018aa1fe0e6bc666dac8fc2697ff9ba" : {
                "balance" : "0x07d8ef",
                "code" : "0x",
                "nonce" : "0x00",
                "storage" : {
                }
            },
            "0x6295ee1b4f6dd65047762f924ecd367c17eabf8f" : {
                "balance" : "0x00",
                "code" : "0x",
                "nonce" : "0x01",
                "storage" : {
                }
            },
            "0x64e2ebd6405af8cb348aec519084d3fff42ebba6" : {
                "balance" : "0x01",
                "code" : "0x5f35805f811460115760018114602057005b5f54600181019050805f555f80f35b60015460018101905080600155611234ff",
                "nonce" : "0x00",
                "storage" : {
                    "0x00" : "0x01"
                }
            },
            "0xa94f5374fce5edbc8e2a8697c15331677e6ebf0b" : {
                "balance" : "0x056bc75e2d62f5d78e",
                "code" : "0x",
                "nonce" : "0x01",
                "storage" : {
                }
            }
        },
        "pre" : {
            "0x000000000000000000000000000000000000000b" : {
                "balance" : "0x00",
                "code" : "0x3373fffffffffffffffffffffffffffffffffffffffe14604457602036146024575f5ffd5b620180005f350680545f35146037575f5ffd5b6201800001545f5260205ff35b42620180004206555f3562018000420662018000015500",
                "nonce" : "0x01",
                "storage" : {
                }
            },
            "0x00000000000000000000000000000000deadbeef" : {
                "balance" : "0x02",
                "code" : "0x5f355f6001825f811460145760018114606057005b5f80525f8060205f60017364e2ebd6405af8cb348aec519084d3fff42ebba645f150815f525f8060205f803045f1507364e2ebd6405af8cb348aec519084d3fff42ebba6316001555f80f35b60015f525f8060205f60017364e2ebd6405af8cb348aec519084d3fff42ebba645f15f80fd",
                "nonce" : "0x00",
                "storage" : {
                }
            },
            "0x64e2ebd6405af8cb348aec519084d3fff42ebba6" : {
                "balance" : "0x00",
                "code" : "0x5f35805f811460115760018114602057005b5f54600181019050805f555f80f35b60015460018101905080600155611234ff",
                "nonce" : "0x00",
                "storage" : {
                }
            },
            "0xa94f5374fce5edbc8e2a8697c15331677e6ebf0b" : {
                "balance" : "0x056bc75e2d63100000",
                "code" : "0x",
                "nonce" : "0x00",
                "storage" : {
                }
            }
        },
        "sealEngine" : "NoProof"
    },
    "001-fork=Cancun-outer_selfdestruct_before_inner_call" : {
        "_info" : {
            "comment" : "",
            "filling-rpc-server" : "evm version 1.13.0-unstable-0bf2d99a-20230901",
            "filling-tool-version" : "retesteth-0.3.1-cancun+commit.372a5939.Linux.g++",
            "filling-transition-tool" : "evm version 1.13.0-unstable-0bf2d99a-20230901",
            "generatedTestHash" : "d23266edc1aa93a7b8f6bd0b821dafa2acebe7e2a09935825ca240d642e08576",
            "lllcversion" : "Version: 0.5.14-develop.2023.7.11+commit.c58ab2c6.mod.Linux.g++",
            "solidity" : "Version: 0.8.20+commit.a1b79de6.Linux.g++",
            "source" : "src/EIPTestsFiller/Pyspecs/cancun/eip6780_selfdestruct/test_selfdestruct_revert.py",
            "sourceHash" : "1668d2d80d26c3ddabc5718cc1bfab53136ed47adb723364bb42371931cfc77a"
        },
        "blocks" : [
            {
                "blockHeader" : {
                    "baseFeePerGas" : "0x07",
                    "blobGasUsed" : "0x00",
                    "bloom" : "0x00000000000000000000000000000000000000000000000000000000000000000000000000000000000000000000000000000000000000000000000000000000000000000000000000000000000000000000000000000000000000000000000000000000000000000000000000000000000000000000000000000000000000000000000000000000000000000000000000000000000000000000000000000000000000000000000000000000000000000000000000000000000000000000000000000000000000000000000000000000000000000000000000000000000000000000000000000000000000000000000000000000000000000000000000000000",
                    "coinbase" : "0x2adc25665018aa1fe0e6bc666dac8fc2697ff9ba",
                    "difficulty" : "0x00",
                    "excessBlobGas" : "0x00",
                    "extraData" : "0x00",
                    "gasLimit" : "0x016345785d8a0000",
                    "gasUsed" : "0x02b851",
                    "hash" : "0xc61647fb919b012d05e853d66ae82eab6e3f3b03f1bf0a730dfc20297d239482",
                    "mixHash" : "0x0000000000000000000000000000000000000000000000000000000000000000",
                    "nonce" : "0x0000000000000000",
                    "number" : "0x01",
                    "parentBeaconBlockRoot" : "0x0000000000000000000000000000000000000000000000000000000000000000",
                    "parentHash" : "0x0969b97df02df6849d0c532e9a28f873bae1d3478a37886b66b7d6d13a7d4883",
                    "receiptTrie" : "0x334e4b297114883128ee1b7d16cfbbb06eb77331aa76179e67a3c1096bb24c15",
                    "stateRoot" : "0x004cf35c51658b6e5a1449d2d1aa7ff25027b928bcf88863d3484ffbc7dacb95",
                    "timestamp" : "0x03e8",
                    "transactionsTrie" : "0xaee86bdc9f4cdcab98bcbd2bf7778c96fa0ece00fcbd5e3676d7b8df9a90feba",
                    "uncleHash" : "0x1dcc4de8dec75d7aab85b567b6ccd41ad312451b948a7413f0a142fd40d49347",
                    "withdrawalsRoot" : "0x56e81f171bcc55a6ff8345e692c0f86e5b48e01b996cadc001622fb5e363b421"
                },
                "rlp" : "0xf902b6f9023fa00969b97df02df6849d0c532e9a28f873bae1d3478a37886b66b7d6d13a7d4883a01dcc4de8dec75d7aab85b567b6ccd41ad312451b948a7413f0a142fd40d49347942adc25665018aa1fe0e6bc666dac8fc2697ff9baa0004cf35c51658b6e5a1449d2d1aa7ff25027b928bcf88863d3484ffbc7dacb95a0aee86bdc9f4cdcab98bcbd2bf7778c96fa0ece00fcbd5e3676d7b8df9a90febaa0334e4b297114883128ee1b7d16cfbbb06eb77331aa76179e67a3c1096bb24c15b9010000000000000000000000000000000000000000000000000000000000000000000000000000000000000000000000000000000000000000000000000000000000000000000000000000000000000000000000000000000000000000000000000000000000000000000000000000000000000000000000000000000000000000000000000000000000000000000000000000000000000000000000000000000000000000000000000000000000000000000000000000000000000000000000000000000000000000000000000000000000000000000000000000000000000000000000000000000000000000000000000000000000000000000000000000000000800188016345785d8a00008302b8518203e800a0000000000000000000000000000000000000000000000000000000000000000088000000000000000007a056e81f171bcc55a6ff8345e692c0f86e5b48e01b996cadc001622fb5e363b4218080a00000000000000000000000000000000000000000000000000000000000000000f870f86e800a8405f5e1008080a1600060006000600060007300000000000000000000000000000000deadbeef45f11ba04be9d4cb23e70d0bd36b18bedaa401fd9d2dc5bce6d37bae98777c094e8d6c46a046bb18ca04a74583befbf371e13a0190e72dcdb58e6da43d192008ddb9a6afb3c0c0",
                "transactions" : [
                    {
                        "chainId" : "0x00",
                        "data" : "0x600060006000600060007300000000000000000000000000000000deadbeef45f1",
                        "gasLimit" : "0x05f5e100",
                        "gasPrice" : "0x0a",
                        "nonce" : "0x00",
                        "r" : "0x4be9d4cb23e70d0bd36b18bedaa401fd9d2dc5bce6d37bae98777c094e8d6c46",
                        "s" : "0x46bb18ca04a74583befbf371e13a0190e72dcdb58e6da43d192008ddb9a6afb3",
                        "sender" : "0xa94f5374fce5edbc8e2a8697c15331677e6ebf0b",
                        "to" : "",
                        "type" : "0x00",
                        "v" : "0x1b",
                        "value" : "0x00"
                    }
                ],
                "uncleHeaders" : [
                ],
                "withdrawals" : [
                ]
            }
        ],
        "genesisBlockHeader" : {
            "baseFeePerGas" : "0x07",
            "blobGasUsed" : "0x00",
            "bloom" : "0x00000000000000000000000000000000000000000000000000000000000000000000000000000000000000000000000000000000000000000000000000000000000000000000000000000000000000000000000000000000000000000000000000000000000000000000000000000000000000000000000000000000000000000000000000000000000000000000000000000000000000000000000000000000000000000000000000000000000000000000000000000000000000000000000000000000000000000000000000000000000000000000000000000000000000000000000000000000000000000000000000000000000000000000000000000000",
            "coinbase" : "0x0000000000000000000000000000000000000000",
            "difficulty" : "0x00",
            "excessBlobGas" : "0x00",
            "extraData" : "0x00",
            "gasLimit" : "0x016345785d8a0000",
            "gasUsed" : "0x00",
            "hash" : "0x0969b97df02df6849d0c532e9a28f873bae1d3478a37886b66b7d6d13a7d4883",
            "mixHash" : "0x0000000000000000000000000000000000000000000000000000000000000000",
            "nonce" : "0x0000000000000000",
            "number" : "0x00",
            "parentBeaconBlockRoot" : "0x0000000000000000000000000000000000000000000000000000000000000000",
            "parentHash" : "0x0000000000000000000000000000000000000000000000000000000000000000",
            "receiptTrie" : "0x56e81f171bcc55a6ff8345e692c0f86e5b48e01b996cadc001622fb5e363b421",
            "stateRoot" : "0x7d9fa816b5628c1a0f4594b574e47a0a1f10ad8ab42bb925c46cb1f1d4b6b634",
            "timestamp" : "0x00",
            "transactionsTrie" : "0x56e81f171bcc55a6ff8345e692c0f86e5b48e01b996cadc001622fb5e363b421",
            "uncleHash" : "0x1dcc4de8dec75d7aab85b567b6ccd41ad312451b948a7413f0a142fd40d49347",
            "withdrawalsRoot" : "0x56e81f171bcc55a6ff8345e692c0f86e5b48e01b996cadc001622fb5e363b421"
        },
        "genesisRLP" : "0xf90240f9023aa00000000000000000000000000000000000000000000000000000000000000000a01dcc4de8dec75d7aab85b567b6ccd41ad312451b948a7413f0a142fd40d49347940000000000000000000000000000000000000000a07d9fa816b5628c1a0f4594b574e47a0a1f10ad8ab42bb925c46cb1f1d4b6b634a056e81f171bcc55a6ff8345e692c0f86e5b48e01b996cadc001622fb5e363b421a056e81f171bcc55a6ff8345e692c0f86e5b48e01b996cadc001622fb5e363b421b9010000000000000000000000000000000000000000000000000000000000000000000000000000000000000000000000000000000000000000000000000000000000000000000000000000000000000000000000000000000000000000000000000000000000000000000000000000000000000000000000000000000000000000000000000000000000000000000000000000000000000000000000000000000000000000000000000000000000000000000000000000000000000000000000000000000000000000000000000000000000000000000000000000000000000000000000000000000000000000000000000000000000000000000000000000000000808088016345785d8a0000808000a0000000000000000000000000000000000000000000000000000000000000000088000000000000000007a056e81f171bcc55a6ff8345e692c0f86e5b48e01b996cadc001622fb5e363b4218080a00000000000000000000000000000000000000000000000000000000000000000c0c0c0",
        "lastblockhash" : "0xc61647fb919b012d05e853d66ae82eab6e3f3b03f1bf0a730dfc20297d239482",
        "network" : "Cancun",
        "postState" : {
            "0x000000000000000000000000000000000000000b" : {
                "balance" : "0x00",
                "code" : "0x3373fffffffffffffffffffffffffffffffffffffffe14604457602036146024575f5ffd5b620180005f350680545f35146037575f5ffd5b6201800001545f5260205ff35b42620180004206555f3562018000420662018000015500",
                "nonce" : "0x01",
                "storage" : {
                    "0x03e8" : "0x03e8"
                }
            },
            "0x0000000000000000000000000000000000001234" : {
                "balance" : "0x01",
                "code" : "0x",
                "nonce" : "0x00",
                "storage" : {
                }
            },
            "0x00000000000000000000000000000000deadbeef" : {
                "balance" : "0x00",
                "code" : "0x5f355f6001825f811460145760018114608357005b60015f525f8060205f60017364e2ebd6405af8cb348aec519084d3fff42ebba645f1505f80525f8060205f60017364e2ebd6405af8cb348aec519084d3fff42ebba645f150815f525f8060205f803045f1507364e2ebd6405af8cb348aec519084d3fff42ebba6316001555f80f35b60015f525f8060205f60017364e2ebd6405af8cb348aec519084d3fff42ebba645f15f80fd",
                "nonce" : "0x00",
                "storage" : {
                    "0x01" : "0x01"
                }
            },
            "0x2adc25665018aa1fe0e6bc666dac8fc2697ff9ba" : {
                "balance" : "0x0828f3",
                "code" : "0x",
                "nonce" : "0x00",
                "storage" : {
                }
            },
            "0x6295ee1b4f6dd65047762f924ecd367c17eabf8f" : {
                "balance" : "0x00",
                "code" : "0x",
                "nonce" : "0x01",
                "storage" : {
                }
            },
            "0x64e2ebd6405af8cb348aec519084d3fff42ebba6" : {
                "balance" : "0x01",
                "code" : "0x5f35805f811460115760018114602057005b5f54600181019050805f555f80f35b60015460018101905080600155611234ff",
                "nonce" : "0x00",
                "storage" : {
                    "0x00" : "0x01",
                    "0x01" : "0x01"
                }
            },
            "0xa94f5374fce5edbc8e2a8697c15331677e6ebf0b" : {
                "balance" : "0x056bc75e2d62f4ccd6",
                "code" : "0x",
                "nonce" : "0x01",
                "storage" : {
                }
            }
        },
        "pre" : {
            "0x000000000000000000000000000000000000000b" : {
                "balance" : "0x00",
                "code" : "0x3373fffffffffffffffffffffffffffffffffffffffe14604457602036146024575f5ffd5b620180005f350680545f35146037575f5ffd5b6201800001545f5260205ff35b42620180004206555f3562018000420662018000015500",
                "nonce" : "0x01",
                "storage" : {
                }
            },
            "0x00000000000000000000000000000000deadbeef" : {
                "balance" : "0x02",
                "code" : "0x5f355f6001825f811460145760018114608357005b60015f525f8060205f60017364e2ebd6405af8cb348aec519084d3fff42ebba645f1505f80525f8060205f60017364e2ebd6405af8cb348aec519084d3fff42ebba645f150815f525f8060205f803045f1507364e2ebd6405af8cb348aec519084d3fff42ebba6316001555f80f35b60015f525f8060205f60017364e2ebd6405af8cb348aec519084d3fff42ebba645f15f80fd",
                "nonce" : "0x00",
                "storage" : {
                }
            },
            "0x64e2ebd6405af8cb348aec519084d3fff42ebba6" : {
                "balance" : "0x00",
                "code" : "0x5f35805f811460115760018114602057005b5f54600181019050805f555f80f35b60015460018101905080600155611234ff",
                "nonce" : "0x00",
                "storage" : {
                }
            },
            "0xa94f5374fce5edbc8e2a8697c15331677e6ebf0b" : {
                "balance" : "0x056bc75e2d63100000",
                "code" : "0x",
                "nonce" : "0x00",
                "storage" : {
                }
            }
        },
        "sealEngine" : "NoProof"
    },
    "002-fork=Cancun-outer_selfdestruct_after_inner_call" : {
        "_info" : {
            "comment" : "",
            "filling-rpc-server" : "evm version 1.13.0-unstable-0bf2d99a-20230901",
            "filling-tool-version" : "retesteth-0.3.1-cancun+commit.372a5939.Linux.g++",
            "filling-transition-tool" : "evm version 1.13.0-unstable-0bf2d99a-20230901",
            "generatedTestHash" : "142817d7deda56433b79875e463a2bc198ed9373d9f27d30add6913dfcd17fdc",
            "lllcversion" : "Version: 0.5.14-develop.2023.7.11+commit.c58ab2c6.mod.Linux.g++",
            "solidity" : "Version: 0.8.20+commit.a1b79de6.Linux.g++",
            "source" : "src/EIPTestsFiller/Pyspecs/cancun/eip6780_selfdestruct/test_selfdestruct_revert.py",
            "sourceHash" : "1668d2d80d26c3ddabc5718cc1bfab53136ed47adb723364bb42371931cfc77a"
        },
        "blocks" : [
            {
                "blockHeader" : {
                    "baseFeePerGas" : "0x07",
                    "blobGasUsed" : "0x00",
                    "bloom" : "0x00000000000000000000000000000000000000000000000000000000000000000000000000000000000000000000000000000000000000000000000000000000000000000000000000000000000000000000000000000000000000000000000000000000000000000000000000000000000000000000000000000000000000000000000000000000000000000000000000000000000000000000000000000000000000000000000000000000000000000000000000000000000000000000000000000000000000000000000000000000000000000000000000000000000000000000000000000000000000000000000000000000000000000000000000000000",
                    "coinbase" : "0x2adc25665018aa1fe0e6bc666dac8fc2697ff9ba",
                    "difficulty" : "0x00",
                    "excessBlobGas" : "0x00",
                    "extraData" : "0x00",
                    "gasLimit" : "0x016345785d8a0000",
                    "gasUsed" : "0x038e49",
                    "hash" : "0x7f51573a592f1c7e224a48d4a1e424fc72e22db8cc850bde30f8375ee97dc72d",
                    "mixHash" : "0x0000000000000000000000000000000000000000000000000000000000000000",
                    "nonce" : "0x0000000000000000",
                    "number" : "0x01",
                    "parentBeaconBlockRoot" : "0x0000000000000000000000000000000000000000000000000000000000000000",
                    "parentHash" : "0x4e71d2f6b77375d7a38189e898b2f79d12afb676e9c81dfcf90bb2711b715b2f",
                    "receiptTrie" : "0x519698b6d7bf651575602756f0eca7bce1772ca28cfe0d5a71d365053c0bbefd",
                    "stateRoot" : "0x4bd48a6e55beeb3869a2a5ba21773b9159dde6dfcdc6011663b0b026f99ce67f",
                    "timestamp" : "0x03e8",
                    "transactionsTrie" : "0xaee86bdc9f4cdcab98bcbd2bf7778c96fa0ece00fcbd5e3676d7b8df9a90feba",
                    "uncleHash" : "0x1dcc4de8dec75d7aab85b567b6ccd41ad312451b948a7413f0a142fd40d49347",
                    "withdrawalsRoot" : "0x56e81f171bcc55a6ff8345e692c0f86e5b48e01b996cadc001622fb5e363b421"
                },
                "rlp" : "0xf902b6f9023fa04e71d2f6b77375d7a38189e898b2f79d12afb676e9c81dfcf90bb2711b715b2fa01dcc4de8dec75d7aab85b567b6ccd41ad312451b948a7413f0a142fd40d49347942adc25665018aa1fe0e6bc666dac8fc2697ff9baa04bd48a6e55beeb3869a2a5ba21773b9159dde6dfcdc6011663b0b026f99ce67fa0aee86bdc9f4cdcab98bcbd2bf7778c96fa0ece00fcbd5e3676d7b8df9a90febaa0519698b6d7bf651575602756f0eca7bce1772ca28cfe0d5a71d365053c0bbefdb9010000000000000000000000000000000000000000000000000000000000000000000000000000000000000000000000000000000000000000000000000000000000000000000000000000000000000000000000000000000000000000000000000000000000000000000000000000000000000000000000000000000000000000000000000000000000000000000000000000000000000000000000000000000000000000000000000000000000000000000000000000000000000000000000000000000000000000000000000000000000000000000000000000000000000000000000000000000000000000000000000000000000000000000000000000000000800188016345785d8a000083038e498203e800a0000000000000000000000000000000000000000000000000000000000000000088000000000000000007a056e81f171bcc55a6ff8345e692c0f86e5b48e01b996cadc001622fb5e363b4218080a00000000000000000000000000000000000000000000000000000000000000000f870f86e800a8405f5e1008080a1600060006000600060007300000000000000000000000000000000deadbeef45f11ba04be9d4cb23e70d0bd36b18bedaa401fd9d2dc5bce6d37bae98777c094e8d6c46a046bb18ca04a74583befbf371e13a0190e72dcdb58e6da43d192008ddb9a6afb3c0c0",
                "transactions" : [
                    {
                        "chainId" : "0x00",
                        "data" : "0x600060006000600060007300000000000000000000000000000000deadbeef45f1",
                        "gasLimit" : "0x05f5e100",
                        "gasPrice" : "0x0a",
                        "nonce" : "0x00",
                        "r" : "0x4be9d4cb23e70d0bd36b18bedaa401fd9d2dc5bce6d37bae98777c094e8d6c46",
                        "s" : "0x46bb18ca04a74583befbf371e13a0190e72dcdb58e6da43d192008ddb9a6afb3",
                        "sender" : "0xa94f5374fce5edbc8e2a8697c15331677e6ebf0b",
                        "to" : "",
                        "type" : "0x00",
                        "v" : "0x1b",
                        "value" : "0x00"
                    }
                ],
                "uncleHeaders" : [
                ],
                "withdrawals" : [
                ]
            }
        ],
        "genesisBlockHeader" : {
            "baseFeePerGas" : "0x07",
            "blobGasUsed" : "0x00",
            "bloom" : "0x00000000000000000000000000000000000000000000000000000000000000000000000000000000000000000000000000000000000000000000000000000000000000000000000000000000000000000000000000000000000000000000000000000000000000000000000000000000000000000000000000000000000000000000000000000000000000000000000000000000000000000000000000000000000000000000000000000000000000000000000000000000000000000000000000000000000000000000000000000000000000000000000000000000000000000000000000000000000000000000000000000000000000000000000000000000",
            "coinbase" : "0x0000000000000000000000000000000000000000",
            "difficulty" : "0x00",
            "excessBlobGas" : "0x00",
            "extraData" : "0x00",
            "gasLimit" : "0x016345785d8a0000",
            "gasUsed" : "0x00",
            "hash" : "0x4e71d2f6b77375d7a38189e898b2f79d12afb676e9c81dfcf90bb2711b715b2f",
            "mixHash" : "0x0000000000000000000000000000000000000000000000000000000000000000",
            "nonce" : "0x0000000000000000",
            "number" : "0x00",
            "parentBeaconBlockRoot" : "0x0000000000000000000000000000000000000000000000000000000000000000",
            "parentHash" : "0x0000000000000000000000000000000000000000000000000000000000000000",
            "receiptTrie" : "0x56e81f171bcc55a6ff8345e692c0f86e5b48e01b996cadc001622fb5e363b421",
            "stateRoot" : "0xf5ca495f2c240f4e36d39d600e5d106bcdba27c180b93d0371d5abd0d19f3d79",
            "timestamp" : "0x00",
            "transactionsTrie" : "0x56e81f171bcc55a6ff8345e692c0f86e5b48e01b996cadc001622fb5e363b421",
            "uncleHash" : "0x1dcc4de8dec75d7aab85b567b6ccd41ad312451b948a7413f0a142fd40d49347",
            "withdrawalsRoot" : "0x56e81f171bcc55a6ff8345e692c0f86e5b48e01b996cadc001622fb5e363b421"
        },
        "genesisRLP" : "0xf90240f9023aa00000000000000000000000000000000000000000000000000000000000000000a01dcc4de8dec75d7aab85b567b6ccd41ad312451b948a7413f0a142fd40d49347940000000000000000000000000000000000000000a0f5ca495f2c240f4e36d39d600e5d106bcdba27c180b93d0371d5abd0d19f3d79a056e81f171bcc55a6ff8345e692c0f86e5b48e01b996cadc001622fb5e363b421a056e81f171bcc55a6ff8345e692c0f86e5b48e01b996cadc001622fb5e363b421b9010000000000000000000000000000000000000000000000000000000000000000000000000000000000000000000000000000000000000000000000000000000000000000000000000000000000000000000000000000000000000000000000000000000000000000000000000000000000000000000000000000000000000000000000000000000000000000000000000000000000000000000000000000000000000000000000000000000000000000000000000000000000000000000000000000000000000000000000000000000000000000000000000000000000000000000000000000000000000000000000000000000000000000000000000000000000808088016345785d8a0000808000a0000000000000000000000000000000000000000000000000000000000000000088000000000000000007a056e81f171bcc55a6ff8345e692c0f86e5b48e01b996cadc001622fb5e363b4218080a00000000000000000000000000000000000000000000000000000000000000000c0c0c0",
        "lastblockhash" : "0x7f51573a592f1c7e224a48d4a1e424fc72e22db8cc850bde30f8375ee97dc72d",
        "network" : "Cancun",
        "postState" : {
            "0x000000000000000000000000000000000000000b" : {
                "balance" : "0x00",
                "code" : "0x3373fffffffffffffffffffffffffffffffffffffffe14604457602036146024575f5ffd5b620180005f350680545f35146037575f5ffd5b6201800001545f5260205ff35b42620180004206555f3562018000420662018000015500",
                "nonce" : "0x01",
                "storage" : {
                    "0x03e8" : "0x03e8"
                }
            },
            "0x0000000000000000000000000000000000001234" : {
                "balance" : "0x02",
                "code" : "0x",
                "nonce" : "0x00",
                "storage" : {
                }
            },
            "0x00000000000000000000000000000000deadbeef" : {
                "balance" : "0x00",
                "code" : "0x5f355f6001825f811460145760018114608257005b5f80525f8060205f60017364e2ebd6405af8cb348aec519084d3fff42ebba645f150815f525f8060205f803045f1507364e2ebd6405af8cb348aec519084d3fff42ebba63160015560015f525f8060205f60017364e2ebd6405af8cb348aec519084d3fff42ebba645f15f80f35b60015f525f8060205f60017364e2ebd6405af8cb348aec519084d3fff42ebba645f15f80fd",
                "nonce" : "0x00",
                "storage" : {
                    "0x01" : "0x01"
                }
            },
            "0x2adc25665018aa1fe0e6bc666dac8fc2697ff9ba" : {
                "balance" : "0x0aaadb",
                "code" : "0x",
                "nonce" : "0x00",
                "storage" : {
                }
            },
            "0x6295ee1b4f6dd65047762f924ecd367c17eabf8f" : {
                "balance" : "0x00",
                "code" : "0x",
                "nonce" : "0x01",
                "storage" : {
                }
            },
            "0x64e2ebd6405af8cb348aec519084d3fff42ebba6" : {
                "balance" : "0x00",
                "code" : "0x5f35805f811460115760018114602057005b5f54600181019050805f555f80f35b60015460018101905080600155611234ff",
                "nonce" : "0x00",
                "storage" : {
                    "0x00" : "0x01",
                    "0x01" : "0x01"
                }
            },
            "0xa94f5374fce5edbc8e2a8697c15331677e6ebf0b" : {
                "balance" : "0x056bc75e2d62ec7126",
                "code" : "0x",
                "nonce" : "0x01",
                "storage" : {
                }
            }
        },
        "pre" : {
            "0x000000000000000000000000000000000000000b" : {
                "balance" : "0x00",
                "code" : "0x3373fffffffffffffffffffffffffffffffffffffffe14604457602036146024575f5ffd5b620180005f350680545f35146037575f5ffd5b6201800001545f5260205ff35b42620180004206555f3562018000420662018000015500",
                "nonce" : "0x01",
                "storage" : {
                }
            },
            "0x00000000000000000000000000000000deadbeef" : {
                "balance" : "0x02",
                "code" : "0x5f355f6001825f811460145760018114608257005b5f80525f8060205f60017364e2ebd6405af8cb348aec519084d3fff42ebba645f150815f525f8060205f803045f1507364e2ebd6405af8cb348aec519084d3fff42ebba63160015560015f525f8060205f60017364e2ebd6405af8cb348aec519084d3fff42ebba645f15f80f35b60015f525f8060205f60017364e2ebd6405af8cb348aec519084d3fff42ebba645f15f80fd",
                "nonce" : "0x00",
                "storage" : {
                }
            },
            "0x64e2ebd6405af8cb348aec519084d3fff42ebba6" : {
                "balance" : "0x00",
                "code" : "0x5f35805f811460115760018114602057005b5f54600181019050805f555f80f35b60015460018101905080600155611234ff",
                "nonce" : "0x00",
                "storage" : {
                }
            },
            "0xa94f5374fce5edbc8e2a8697c15331677e6ebf0b" : {
                "balance" : "0x056bc75e2d63100000",
                "code" : "0x",
                "nonce" : "0x00",
                "storage" : {
                }
            }
        },
        "sealEngine" : "NoProof"
    }
}