{
    "NonZeroValue_TransactionCALLwithData_ToEmpty_d0g0v0_ConstantinopleFix" : {
        "_info" : {
            "comment" : "",
            "filling-rpc-server" : "Geth-1.9.3-unstable-d5bd3838-20190830",
            "filling-tool-version" : "retesteth-0.0.1+commit.222e3073.Linux.g++",
            "lllcversion" : "Version: 0.5.0-develop.2019.8.22+commit.9709dfe0.Linux.g++",
            "source" : "src/GeneralStateTestsFiller/stNonZeroCallsTest/NonZeroValue_TransactionCALLwithData_ToEmptyFiller.json",
            "sourceHash" : "d5e04c46791c857d2ef845976e061c5659db7d960ac0ab08f8e44583f1881261"
        },
        "genesisBlockHeader" : {
            "bloom" : "0x00000000000000000000000000000000000000000000000000000000000000000000000000000000000000000000000000000000000000000000000000000000000000000000000000000000000000000000000000000000000000000000000000000000000000000000000000000000000000000000000000000000000000000000000000000000000000000000000000000000000000000000000000000000000000000000000000000000000000000000000000000000000000000000000000000000000000000000000000000000000000000000000000000000000000000000000000000000000000000000000000000000000000000000000000000000",
            "coinbase" : "0x2adc25665018aa1fe0e6bc666dac8fc2697ff9ba",
            "difficulty" : "0x20000",
            "extraData" : "0x00",
            "gasLimit" : "0x989680",
            "gasUsed" : "0x0",
            "hash" : "0x361403b60299d782722cd349801bfae3383dcd8340f3d6b955231236cdba3631",
            "mixHash" : "0x0000000000000000000000000000000000000000000000000000000000000000",
            "nonce" : "0x0000000000000000",
            "number" : "0x0",
            "parentHash" : "0x0000000000000000000000000000000000000000000000000000000000000000",
            "receiptTrie" : "0x56e81f171bcc55a6ff8345e692c0f86e5b48e01b996cadc001622fb5e363b421",
            "stateRoot" : "0x137accfabce83c4f192c91b88d6e5e5e6e58afa387137b16170fafd5114d8d45",
            "timestamp" : "0x0",
            "transactionsTrie" : "0x56e81f171bcc55a6ff8345e692c0f86e5b48e01b996cadc001622fb5e363b421",
            "uncleHash" : "0x1dcc4de8dec75d7aab85b567b6ccd41ad312451b948a7413f0a142fd40d49347"
        },
        "pre" : {
            "0xa94f5374fce5edbc8e2a8697c15331677e6ebf0b" : {
                "balance" : "0xe8d4a51000",
                "code" : "0x",
                "nonce" : "0x00",
                "storage" : {
                }
            },
            "0xb94f5374fce5edbc8e2a8697c15331677e6ebf0b" : {
                "balance" : "0x00",
                "code" : "0x",
                "nonce" : "0x00",
                "storage" : {
                }
            }
        },
        "postState" : {
            "0xa94f5374fce5edbc8e2a8697c15331677e6ebf0b" : {
                "code" : "0x",
                "nonce" : "0x01",
                "balance" : "0xe8d4a4b8a7",
                "storage" : {
                }
            },
            "0x2adc25665018aa1fe0e6bc666dac8fc2697ff9ba" : {
                "code" : "0x",
                "nonce" : "0x00",
                "balance" : "0x1bc16d674ec85758",
                "storage" : {
                }
            },
            "0xb94f5374fce5edbc8e2a8697c15331677e6ebf0b" : {
                "code" : "0x",
                "nonce" : "0x00",
                "balance" : "0x01",
                "storage" : {
                }
            }
        },
        "network" : "ConstantinopleFix",
        "sealEngine" : "NoProof",
        "lastblockhash" : "0x3e724d1adf3683c27b31e3dcf3e44a59f7de2f9411fa9f7691bc6e9e6248e393",
        "genesisRLP" : "0xf901f8f901f3a00000000000000000000000000000000000000000000000000000000000000000a01dcc4de8dec75d7aab85b567b6ccd41ad312451b948a7413f0a142fd40d49347942adc25665018aa1fe0e6bc666dac8fc2697ff9baa0137accfabce83c4f192c91b88d6e5e5e6e58afa387137b16170fafd5114d8d45a056e81f171bcc55a6ff8345e692c0f86e5b48e01b996cadc001622fb5e363b421a056e81f171bcc55a6ff8345e692c0f86e5b48e01b996cadc001622fb5e363b421b9010000000000000000000000000000000000000000000000000000000000000000000000000000000000000000000000000000000000000000000000000000000000000000000000000000000000000000000000000000000000000000000000000000000000000000000000000000000000000000000000000000000000000000000000000000000000000000000000000000000000000000000000000000000000000000000000000000000000000000000000000000000000000000000000000000000000000000000000000000000000000000000000000000000000000000000000000000000000000000000000000000000000000000000000000000000000830200008083989680808000a00000000000000000000000000000000000000000000000000000000000000000880000000000000000c0c0",
        "blocks" : [
            {
                "rlp" : "0xf90273f901f7a0361403b60299d782722cd349801bfae3383dcd8340f3d6b955231236cdba3631a01dcc4de8dec75d7aab85b567b6ccd41ad312451b948a7413f0a142fd40d49347942adc25665018aa1fe0e6bc666dac8fc2697ff9baa031c44cebda0e270096ec765ac3f85a1794bb6cc99a3113f39a80127e5e7f437da0f06b7865f9815b87966bf85f209ef033842530cacd70091c5b3eda09057a8bf9a0c118f32912dc1bd8f14a5689d0c96f8ee88adb36471e8f27ed7b7851be78c523b901000000000000000000000000000000000000000000000000000000000000000000000000000000000000000000000000000000000000000000000000000000000000000000000000000000000000000000000000000000000000000000000000000000000000000000000000000000000000000000000000000000000000000000000000000000000000000000000000000000000000000000000000000000000000000000000000000000000000000000000000000000000000000000000000000000000000000000000000000000000000000000000000000000000000000000000000000000000000000000000000000000000000000000000000000000000083020000018398bca48257588203e800a00000000000000000000000000000000000000000000000000000000000000000880000000000000000f876f8748001830927c094b94f5374fce5edbc8e2a8697c15331677e6ebf0b019411223344556677889910111213141516171819201ba0e7b071c0284506bf00b0d80a0513e6d32765d601a607a416200c9f460e8f8203a025ca64ca394548e13bc38b1a1723a151c10eccb5dac4117bf26faee663962d12c0",
                "blockHeader" : {
                    "bloom" : "0x00000000000000000000000000000000000000000000000000000000000000000000000000000000000000000000000000000000000000000000000000000000000000000000000000000000000000000000000000000000000000000000000000000000000000000000000000000000000000000000000000000000000000000000000000000000000000000000000000000000000000000000000000000000000000000000000000000000000000000000000000000000000000000000000000000000000000000000000000000000000000000000000000000000000000000000000000000000000000000000000000000000000000000000000000000000",
                    "coinbase" : "0x2adc25665018aa1fe0e6bc666dac8fc2697ff9ba",
                    "difficulty" : "0x20000",
                    "extraData" : "0x00",
                    "gasLimit" : "0x98bca4",
                    "gasUsed" : "0x5758",
                    "hash" : "0x3e724d1adf3683c27b31e3dcf3e44a59f7de2f9411fa9f7691bc6e9e6248e393",
                    "mixHash" : "0x0000000000000000000000000000000000000000000000000000000000000000",
                    "nonce" : "0x0000000000000000",
                    "number" : "0x1",
                    "parentHash" : "0x361403b60299d782722cd349801bfae3383dcd8340f3d6b955231236cdba3631",
                    "receiptTrie" : "0xc118f32912dc1bd8f14a5689d0c96f8ee88adb36471e8f27ed7b7851be78c523",
                    "stateRoot" : "0x31c44cebda0e270096ec765ac3f85a1794bb6cc99a3113f39a80127e5e7f437d",
                    "timestamp" : "0x3e8",
                    "transactionsTrie" : "0xf06b7865f9815b87966bf85f209ef033842530cacd70091c5b3eda09057a8bf9",
                    "uncleHash" : "0x1dcc4de8dec75d7aab85b567b6ccd41ad312451b948a7413f0a142fd40d49347"
                },
                "transactions" : [
                    {
                        "data" : "0x1122334455667788991011121314151617181920",
                        "gasLimit" : "0x0927c0",
                        "gasPrice" : "0x01",
                        "nonce" : "0x00",
                        "secretKey" : "0x45a915e4d060149eb4365960e6a7a45f334393093061116b197e3240065ff2d8",
                        "to" : "0xb94f5374fce5edbc8e2a8697c15331677e6ebf0b",
                        "value" : "0x01"
                    }
                ]
            }
        ]
    }
}