{
    "NonZeroValue_TransactionCALLwithData_ToNonNonZeroBalance_d0g0v0_EIP150" : {
        "blocks" : [
            {
                "blockHeader" : {
                    "bloom" : "00000000000000000000000000000000000000000000000000000000000000000000000000000000000000000000000000000000000000000000000000000000000000000000000000000000000000000000000000000000000000000000000000000000000000000000000000000000000000000000000000000000000000000000000000000000000000000000000000000000000000000000000000000000000000000000000000000000000000000000000000000000000000000000000000000000000000000000000000000000000000000000000000000000000000000000000000000000000000000000000000000000000000000000000000000000",
                    "coinbase" : "2adc25665018aa1fe0e6bc666dac8fc2697ff9ba",
                    "difficulty" : "0x020000",
                    "extraData" : "0x",
                    "gasLimit" : "0x989680",
                    "gasUsed" : "0x5758",
                    "hash" : "98bf3a13ff3991d560c51ef8a98787e463a3029c62fd398e8ab0446636a07dab",
                    "mixHash" : "21ae0c980bdfb4bd6952c3d66e505fc98674548ac8eac77a404691cb2a74e16c",
                    "nonce" : "b764bd26cec4f795",
                    "number" : "0x01",
                    "parentHash" : "e41b9215d33e0e0bc97fc59cd46d07f66216ac26879d8fba3e4449d9f032ec76",
                    "receiptTrie" : "ebda4b8f35a9b7992c5a661a9a6337ee0fd42f1ae559498fef64ac9433b3f8de",
                    "stateRoot" : "0a2c0aa4f7a67f8204cc71e0127de44e5c31115ccbb0591a89f71f064ce7aa10",
                    "timestamp" : "0x03e8",
                    "transactionsTrie" : "f06b7865f9815b87966bf85f209ef033842530cacd70091c5b3eda09057a8bf9",
                    "uncleHash" : "1dcc4de8dec75d7aab85b567b6ccd41ad312451b948a7413f0a142fd40d49347"
                },
                "rlp" : "0xf90273f901f7a0e41b9215d33e0e0bc97fc59cd46d07f66216ac26879d8fba3e4449d9f032ec76a01dcc4de8dec75d7aab85b567b6ccd41ad312451b948a7413f0a142fd40d49347942adc25665018aa1fe0e6bc666dac8fc2697ff9baa00a2c0aa4f7a67f8204cc71e0127de44e5c31115ccbb0591a89f71f064ce7aa10a0f06b7865f9815b87966bf85f209ef033842530cacd70091c5b3eda09057a8bf9a0ebda4b8f35a9b7992c5a661a9a6337ee0fd42f1ae559498fef64ac9433b3f8deb90100000000000000000000000000000000000000000000000000000000000000000000000000000000000000000000000000000000000000000000000000000000000000000000000000000000000000000000000000000000000000000000000000000000000000000000000000000000000000000000000000000000000000000000000000000000000000000000000000000000000000000000000000000000000000000000000000000000000000000000000000000000000000000000000000000000000000000000000000000000000000000000000000000000000000000000000000000000000000000000000000000000000000000000000000000000008302000001839896808257588203e880a021ae0c980bdfb4bd6952c3d66e505fc98674548ac8eac77a404691cb2a74e16c88b764bd26cec4f795f876f8748001830927c094b94f5374fce5edbc8e2a8697c15331677e6ebf0b019411223344556677889910111213141516171819201ba0e7b071c0284506bf00b0d80a0513e6d32765d601a607a416200c9f460e8f8203a025ca64ca394548e13bc38b1a1723a151c10eccb5dac4117bf26faee663962d12c0",
                "transactions" : [
                    {
                        "data" : "0x1122334455667788991011121314151617181920",
                        "gasLimit" : "0x0927c0",
                        "gasPrice" : "0x01",
                        "nonce" : "0x00",
                        "r" : "0xe7b071c0284506bf00b0d80a0513e6d32765d601a607a416200c9f460e8f8203",
                        "s" : "0x25ca64ca394548e13bc38b1a1723a151c10eccb5dac4117bf26faee663962d12",
                        "to" : "b94f5374fce5edbc8e2a8697c15331677e6ebf0b",
                        "v" : "0x1b",
                        "value" : "0x01"
                    }
                ],
                "uncleHeaders" : [
                ]
            }
        ],
        "genesisBlockHeader" : {
            "bloom" : "00000000000000000000000000000000000000000000000000000000000000000000000000000000000000000000000000000000000000000000000000000000000000000000000000000000000000000000000000000000000000000000000000000000000000000000000000000000000000000000000000000000000000000000000000000000000000000000000000000000000000000000000000000000000000000000000000000000000000000000000000000000000000000000000000000000000000000000000000000000000000000000000000000000000000000000000000000000000000000000000000000000000000000000000000000000",
            "coinbase" : "2adc25665018aa1fe0e6bc666dac8fc2697ff9ba",
            "difficulty" : "0x020000",
            "extraData" : "0x42",
            "gasLimit" : "0x989680",
            "gasUsed" : "0x00",
            "hash" : "e41b9215d33e0e0bc97fc59cd46d07f66216ac26879d8fba3e4449d9f032ec76",
            "mixHash" : "56e81f171bcc55a6ff8345e692c0f86e5b48e01b996cadc001622fb5e363b421",
            "nonce" : "0102030405060708",
            "number" : "0x00",
            "parentHash" : "0000000000000000000000000000000000000000000000000000000000000000",
            "receiptTrie" : "56e81f171bcc55a6ff8345e692c0f86e5b48e01b996cadc001622fb5e363b421",
            "stateRoot" : "4575ff9537549d145650ffcb340dfba8c6fe2b4b0a45169a126195ba47f15e29",
            "timestamp" : "0x03b6",
            "transactionsTrie" : "56e81f171bcc55a6ff8345e692c0f86e5b48e01b996cadc001622fb5e363b421",
            "uncleHash" : "1dcc4de8dec75d7aab85b567b6ccd41ad312451b948a7413f0a142fd40d49347"
        },
        "genesisRLP" : "0xf901faf901f5a00000000000000000000000000000000000000000000000000000000000000000a01dcc4de8dec75d7aab85b567b6ccd41ad312451b948a7413f0a142fd40d49347942adc25665018aa1fe0e6bc666dac8fc2697ff9baa04575ff9537549d145650ffcb340dfba8c6fe2b4b0a45169a126195ba47f15e29a056e81f171bcc55a6ff8345e692c0f86e5b48e01b996cadc001622fb5e363b421a056e81f171bcc55a6ff8345e692c0f86e5b48e01b996cadc001622fb5e363b421b9010000000000000000000000000000000000000000000000000000000000000000000000000000000000000000000000000000000000000000000000000000000000000000000000000000000000000000000000000000000000000000000000000000000000000000000000000000000000000000000000000000000000000000000000000000000000000000000000000000000000000000000000000000000000000000000000000000000000000000000000000000000000000000000000000000000000000000000000000000000000000000000000000000000000000000000000000000000000000000000000000000000000000000000000000000000000830200008083989680808203b642a056e81f171bcc55a6ff8345e692c0f86e5b48e01b996cadc001622fb5e363b421880102030405060708c0c0",
        "lastblockhash" : "98bf3a13ff3991d560c51ef8a98787e463a3029c62fd398e8ab0446636a07dab",
        "network" : "EIP150",
        "postState" : {
            "2adc25665018aa1fe0e6bc666dac8fc2697ff9ba" : {
                "balance" : "0x4563918244f45758",
                "code" : "0x",
                "nonce" : "0x00",
                "storage" : {
                }
            },
            "a94f5374fce5edbc8e2a8697c15331677e6ebf0b" : {
                "balance" : "0xe8d4a4b8a7",
                "code" : "0x",
                "nonce" : "0x01",
                "storage" : {
                }
            },
            "b94f5374fce5edbc8e2a8697c15331677e6ebf0b" : {
                "balance" : "0x65",
                "code" : "0x",
                "nonce" : "0x00",
                "storage" : {
                }
            }
        },
        "pre" : {
            "a94f5374fce5edbc8e2a8697c15331677e6ebf0b" : {
                "balance" : "0xe8d4a51000",
                "code" : "0x",
                "nonce" : "0x00",
                "storage" : {
                }
            },
            "b94f5374fce5edbc8e2a8697c15331677e6ebf0b" : {
                "balance" : "0x64",
                "code" : "0x",
                "nonce" : "0x00",
                "storage" : {
                }
            }
        }
    },
    "NonZeroValue_TransactionCALLwithData_ToNonNonZeroBalance_d0g0v0_EIP158" : {
        "blocks" : [
            {
                "blockHeader" : {
                    "bloom" : "00000000000000000000000000000000000000000000000000000000000000000000000000000000000000000000000000000000000000000000000000000000000000000000000000000000000000000000000000000000000000000000000000000000000000000000000000000000000000000000000000000000000000000000000000000000000000000000000000000000000000000000000000000000000000000000000000000000000000000000000000000000000000000000000000000000000000000000000000000000000000000000000000000000000000000000000000000000000000000000000000000000000000000000000000000000",
                    "coinbase" : "2adc25665018aa1fe0e6bc666dac8fc2697ff9ba",
                    "difficulty" : "0x020000",
                    "extraData" : "0x",
                    "gasLimit" : "0x989680",
                    "gasUsed" : "0x5758",
                    "hash" : "0683718220bef36504ebc8cbc57ab4921cef6aba78a4a4684892da8fed973f50",
                    "mixHash" : "ef8e7466cf5c761f56cf74df4f0402ed63d5230ba2ca7f4bfb35a6f8f7ab5957",
                    "nonce" : "a37089bbd05e3242",
                    "number" : "0x01",
                    "parentHash" : "e41b9215d33e0e0bc97fc59cd46d07f66216ac26879d8fba3e4449d9f032ec76",
                    "receiptTrie" : "ebda4b8f35a9b7992c5a661a9a6337ee0fd42f1ae559498fef64ac9433b3f8de",
                    "stateRoot" : "0a2c0aa4f7a67f8204cc71e0127de44e5c31115ccbb0591a89f71f064ce7aa10",
                    "timestamp" : "0x03e8",
                    "transactionsTrie" : "f06b7865f9815b87966bf85f209ef033842530cacd70091c5b3eda09057a8bf9",
                    "uncleHash" : "1dcc4de8dec75d7aab85b567b6ccd41ad312451b948a7413f0a142fd40d49347"
                },
                "rlp" : "0xf90273f901f7a0e41b9215d33e0e0bc97fc59cd46d07f66216ac26879d8fba3e4449d9f032ec76a01dcc4de8dec75d7aab85b567b6ccd41ad312451b948a7413f0a142fd40d49347942adc25665018aa1fe0e6bc666dac8fc2697ff9baa00a2c0aa4f7a67f8204cc71e0127de44e5c31115ccbb0591a89f71f064ce7aa10a0f06b7865f9815b87966bf85f209ef033842530cacd70091c5b3eda09057a8bf9a0ebda4b8f35a9b7992c5a661a9a6337ee0fd42f1ae559498fef64ac9433b3f8deb90100000000000000000000000000000000000000000000000000000000000000000000000000000000000000000000000000000000000000000000000000000000000000000000000000000000000000000000000000000000000000000000000000000000000000000000000000000000000000000000000000000000000000000000000000000000000000000000000000000000000000000000000000000000000000000000000000000000000000000000000000000000000000000000000000000000000000000000000000000000000000000000000000000000000000000000000000000000000000000000000000000000000000000000000000000000008302000001839896808257588203e880a0ef8e7466cf5c761f56cf74df4f0402ed63d5230ba2ca7f4bfb35a6f8f7ab595788a37089bbd05e3242f876f8748001830927c094b94f5374fce5edbc8e2a8697c15331677e6ebf0b019411223344556677889910111213141516171819201ba0e7b071c0284506bf00b0d80a0513e6d32765d601a607a416200c9f460e8f8203a025ca64ca394548e13bc38b1a1723a151c10eccb5dac4117bf26faee663962d12c0",
                "transactions" : [
                    {
                        "data" : "0x1122334455667788991011121314151617181920",
                        "gasLimit" : "0x0927c0",
                        "gasPrice" : "0x01",
                        "nonce" : "0x00",
                        "r" : "0xe7b071c0284506bf00b0d80a0513e6d32765d601a607a416200c9f460e8f8203",
                        "s" : "0x25ca64ca394548e13bc38b1a1723a151c10eccb5dac4117bf26faee663962d12",
                        "to" : "b94f5374fce5edbc8e2a8697c15331677e6ebf0b",
                        "v" : "0x1b",
                        "value" : "0x01"
                    }
                ],
                "uncleHeaders" : [
                ]
            }
        ],
        "genesisBlockHeader" : {
            "bloom" : "00000000000000000000000000000000000000000000000000000000000000000000000000000000000000000000000000000000000000000000000000000000000000000000000000000000000000000000000000000000000000000000000000000000000000000000000000000000000000000000000000000000000000000000000000000000000000000000000000000000000000000000000000000000000000000000000000000000000000000000000000000000000000000000000000000000000000000000000000000000000000000000000000000000000000000000000000000000000000000000000000000000000000000000000000000000",
            "coinbase" : "2adc25665018aa1fe0e6bc666dac8fc2697ff9ba",
            "difficulty" : "0x020000",
            "extraData" : "0x42",
            "gasLimit" : "0x989680",
            "gasUsed" : "0x00",
            "hash" : "e41b9215d33e0e0bc97fc59cd46d07f66216ac26879d8fba3e4449d9f032ec76",
            "mixHash" : "56e81f171bcc55a6ff8345e692c0f86e5b48e01b996cadc001622fb5e363b421",
            "nonce" : "0102030405060708",
            "number" : "0x00",
            "parentHash" : "0000000000000000000000000000000000000000000000000000000000000000",
            "receiptTrie" : "56e81f171bcc55a6ff8345e692c0f86e5b48e01b996cadc001622fb5e363b421",
            "stateRoot" : "4575ff9537549d145650ffcb340dfba8c6fe2b4b0a45169a126195ba47f15e29",
            "timestamp" : "0x03b6",
            "transactionsTrie" : "56e81f171bcc55a6ff8345e692c0f86e5b48e01b996cadc001622fb5e363b421",
            "uncleHash" : "1dcc4de8dec75d7aab85b567b6ccd41ad312451b948a7413f0a142fd40d49347"
        },
        "genesisRLP" : "0xf901faf901f5a00000000000000000000000000000000000000000000000000000000000000000a01dcc4de8dec75d7aab85b567b6ccd41ad312451b948a7413f0a142fd40d49347942adc25665018aa1fe0e6bc666dac8fc2697ff9baa04575ff9537549d145650ffcb340dfba8c6fe2b4b0a45169a126195ba47f15e29a056e81f171bcc55a6ff8345e692c0f86e5b48e01b996cadc001622fb5e363b421a056e81f171bcc55a6ff8345e692c0f86e5b48e01b996cadc001622fb5e363b421b9010000000000000000000000000000000000000000000000000000000000000000000000000000000000000000000000000000000000000000000000000000000000000000000000000000000000000000000000000000000000000000000000000000000000000000000000000000000000000000000000000000000000000000000000000000000000000000000000000000000000000000000000000000000000000000000000000000000000000000000000000000000000000000000000000000000000000000000000000000000000000000000000000000000000000000000000000000000000000000000000000000000000000000000000000000000000830200008083989680808203b642a056e81f171bcc55a6ff8345e692c0f86e5b48e01b996cadc001622fb5e363b421880102030405060708c0c0",
        "lastblockhash" : "0683718220bef36504ebc8cbc57ab4921cef6aba78a4a4684892da8fed973f50",
        "network" : "EIP158",
        "postState" : {
            "2adc25665018aa1fe0e6bc666dac8fc2697ff9ba" : {
                "balance" : "0x4563918244f45758",
                "code" : "0x",
                "nonce" : "0x00",
                "storage" : {
                }
            },
            "a94f5374fce5edbc8e2a8697c15331677e6ebf0b" : {
                "balance" : "0xe8d4a4b8a7",
                "code" : "0x",
                "nonce" : "0x01",
                "storage" : {
                }
            },
            "b94f5374fce5edbc8e2a8697c15331677e6ebf0b" : {
                "balance" : "0x65",
                "code" : "0x",
                "nonce" : "0x00",
                "storage" : {
                }
            }
        },
        "pre" : {
            "a94f5374fce5edbc8e2a8697c15331677e6ebf0b" : {
                "balance" : "0xe8d4a51000",
                "code" : "0x",
                "nonce" : "0x00",
                "storage" : {
                }
            },
            "b94f5374fce5edbc8e2a8697c15331677e6ebf0b" : {
                "balance" : "0x64",
                "code" : "0x",
                "nonce" : "0x00",
                "storage" : {
                }
            }
        }
    },
    "NonZeroValue_TransactionCALLwithData_ToNonNonZeroBalance_d0g0v0_Frontier" : {
        "blocks" : [
            {
                "blockHeader" : {
                    "bloom" : "00000000000000000000000000000000000000000000000000000000000000000000000000000000000000000000000000000000000000000000000000000000000000000000000000000000000000000000000000000000000000000000000000000000000000000000000000000000000000000000000000000000000000000000000000000000000000000000000000000000000000000000000000000000000000000000000000000000000000000000000000000000000000000000000000000000000000000000000000000000000000000000000000000000000000000000000000000000000000000000000000000000000000000000000000000000",
                    "coinbase" : "2adc25665018aa1fe0e6bc666dac8fc2697ff9ba",
                    "difficulty" : "0x020000",
                    "extraData" : "0x",
                    "gasLimit" : "0x989680",
                    "gasUsed" : "0x5758",
                    "hash" : "84017a1928a1ece1f38ffe538f9d81461f44a3350e270f2ac70c2a2c09edc132",
                    "mixHash" : "81f1bef64d4e4863ba17e89915767c8de2d985c320542868554b58790969a7e8",
                    "nonce" : "959c10fb8ac24148",
                    "number" : "0x01",
                    "parentHash" : "e41b9215d33e0e0bc97fc59cd46d07f66216ac26879d8fba3e4449d9f032ec76",
                    "receiptTrie" : "ebda4b8f35a9b7992c5a661a9a6337ee0fd42f1ae559498fef64ac9433b3f8de",
                    "stateRoot" : "0a2c0aa4f7a67f8204cc71e0127de44e5c31115ccbb0591a89f71f064ce7aa10",
                    "timestamp" : "0x03e8",
                    "transactionsTrie" : "f06b7865f9815b87966bf85f209ef033842530cacd70091c5b3eda09057a8bf9",
                    "uncleHash" : "1dcc4de8dec75d7aab85b567b6ccd41ad312451b948a7413f0a142fd40d49347"
                },
                "rlp" : "0xf90273f901f7a0e41b9215d33e0e0bc97fc59cd46d07f66216ac26879d8fba3e4449d9f032ec76a01dcc4de8dec75d7aab85b567b6ccd41ad312451b948a7413f0a142fd40d49347942adc25665018aa1fe0e6bc666dac8fc2697ff9baa00a2c0aa4f7a67f8204cc71e0127de44e5c31115ccbb0591a89f71f064ce7aa10a0f06b7865f9815b87966bf85f209ef033842530cacd70091c5b3eda09057a8bf9a0ebda4b8f35a9b7992c5a661a9a6337ee0fd42f1ae559498fef64ac9433b3f8deb90100000000000000000000000000000000000000000000000000000000000000000000000000000000000000000000000000000000000000000000000000000000000000000000000000000000000000000000000000000000000000000000000000000000000000000000000000000000000000000000000000000000000000000000000000000000000000000000000000000000000000000000000000000000000000000000000000000000000000000000000000000000000000000000000000000000000000000000000000000000000000000000000000000000000000000000000000000000000000000000000000000000000000000000000000000000008302000001839896808257588203e880a081f1bef64d4e4863ba17e89915767c8de2d985c320542868554b58790969a7e888959c10fb8ac24148f876f8748001830927c094b94f5374fce5edbc8e2a8697c15331677e6ebf0b019411223344556677889910111213141516171819201ba0e7b071c0284506bf00b0d80a0513e6d32765d601a607a416200c9f460e8f8203a025ca64ca394548e13bc38b1a1723a151c10eccb5dac4117bf26faee663962d12c0",
                "transactions" : [
                    {
                        "data" : "0x1122334455667788991011121314151617181920",
                        "gasLimit" : "0x0927c0",
                        "gasPrice" : "0x01",
                        "nonce" : "0x00",
                        "r" : "0xe7b071c0284506bf00b0d80a0513e6d32765d601a607a416200c9f460e8f8203",
                        "s" : "0x25ca64ca394548e13bc38b1a1723a151c10eccb5dac4117bf26faee663962d12",
                        "to" : "b94f5374fce5edbc8e2a8697c15331677e6ebf0b",
                        "v" : "0x1b",
                        "value" : "0x01"
                    }
                ],
                "uncleHeaders" : [
                ]
            }
        ],
        "genesisBlockHeader" : {
            "bloom" : "00000000000000000000000000000000000000000000000000000000000000000000000000000000000000000000000000000000000000000000000000000000000000000000000000000000000000000000000000000000000000000000000000000000000000000000000000000000000000000000000000000000000000000000000000000000000000000000000000000000000000000000000000000000000000000000000000000000000000000000000000000000000000000000000000000000000000000000000000000000000000000000000000000000000000000000000000000000000000000000000000000000000000000000000000000000",
            "coinbase" : "2adc25665018aa1fe0e6bc666dac8fc2697ff9ba",
            "difficulty" : "0x020000",
            "extraData" : "0x42",
            "gasLimit" : "0x989680",
            "gasUsed" : "0x00",
            "hash" : "e41b9215d33e0e0bc97fc59cd46d07f66216ac26879d8fba3e4449d9f032ec76",
            "mixHash" : "56e81f171bcc55a6ff8345e692c0f86e5b48e01b996cadc001622fb5e363b421",
            "nonce" : "0102030405060708",
            "number" : "0x00",
            "parentHash" : "0000000000000000000000000000000000000000000000000000000000000000",
            "receiptTrie" : "56e81f171bcc55a6ff8345e692c0f86e5b48e01b996cadc001622fb5e363b421",
            "stateRoot" : "4575ff9537549d145650ffcb340dfba8c6fe2b4b0a45169a126195ba47f15e29",
            "timestamp" : "0x03b6",
            "transactionsTrie" : "56e81f171bcc55a6ff8345e692c0f86e5b48e01b996cadc001622fb5e363b421",
            "uncleHash" : "1dcc4de8dec75d7aab85b567b6ccd41ad312451b948a7413f0a142fd40d49347"
        },
        "genesisRLP" : "0xf901faf901f5a00000000000000000000000000000000000000000000000000000000000000000a01dcc4de8dec75d7aab85b567b6ccd41ad312451b948a7413f0a142fd40d49347942adc25665018aa1fe0e6bc666dac8fc2697ff9baa04575ff9537549d145650ffcb340dfba8c6fe2b4b0a45169a126195ba47f15e29a056e81f171bcc55a6ff8345e692c0f86e5b48e01b996cadc001622fb5e363b421a056e81f171bcc55a6ff8345e692c0f86e5b48e01b996cadc001622fb5e363b421b9010000000000000000000000000000000000000000000000000000000000000000000000000000000000000000000000000000000000000000000000000000000000000000000000000000000000000000000000000000000000000000000000000000000000000000000000000000000000000000000000000000000000000000000000000000000000000000000000000000000000000000000000000000000000000000000000000000000000000000000000000000000000000000000000000000000000000000000000000000000000000000000000000000000000000000000000000000000000000000000000000000000000000000000000000000000000830200008083989680808203b642a056e81f171bcc55a6ff8345e692c0f86e5b48e01b996cadc001622fb5e363b421880102030405060708c0c0",
        "lastblockhash" : "84017a1928a1ece1f38ffe538f9d81461f44a3350e270f2ac70c2a2c09edc132",
        "network" : "Frontier",
        "postState" : {
            "2adc25665018aa1fe0e6bc666dac8fc2697ff9ba" : {
                "balance" : "0x4563918244f45758",
                "code" : "0x",
                "nonce" : "0x00",
                "storage" : {
                }
            },
            "a94f5374fce5edbc8e2a8697c15331677e6ebf0b" : {
                "balance" : "0xe8d4a4b8a7",
                "code" : "0x",
                "nonce" : "0x01",
                "storage" : {
                }
            },
            "b94f5374fce5edbc8e2a8697c15331677e6ebf0b" : {
                "balance" : "0x65",
                "code" : "0x",
                "nonce" : "0x00",
                "storage" : {
                }
            }
        },
        "pre" : {
            "a94f5374fce5edbc8e2a8697c15331677e6ebf0b" : {
                "balance" : "0xe8d4a51000",
                "code" : "0x",
                "nonce" : "0x00",
                "storage" : {
                }
            },
            "b94f5374fce5edbc8e2a8697c15331677e6ebf0b" : {
                "balance" : "0x64",
                "code" : "0x",
                "nonce" : "0x00",
                "storage" : {
                }
            }
        }
    },
    "NonZeroValue_TransactionCALLwithData_ToNonNonZeroBalance_d0g0v0_Homestead" : {
        "blocks" : [
            {
                "blockHeader" : {
                    "bloom" : "00000000000000000000000000000000000000000000000000000000000000000000000000000000000000000000000000000000000000000000000000000000000000000000000000000000000000000000000000000000000000000000000000000000000000000000000000000000000000000000000000000000000000000000000000000000000000000000000000000000000000000000000000000000000000000000000000000000000000000000000000000000000000000000000000000000000000000000000000000000000000000000000000000000000000000000000000000000000000000000000000000000000000000000000000000000",
                    "coinbase" : "2adc25665018aa1fe0e6bc666dac8fc2697ff9ba",
                    "difficulty" : "0x020000",
                    "extraData" : "0x",
                    "gasLimit" : "0x989680",
                    "gasUsed" : "0x5758",
                    "hash" : "b5b8067cb8a2f1f6c56c401d10db9084a033910dae2ac83a12fcdd8546aec1e8",
                    "mixHash" : "d466330252b2ab330ebb43b9e0dd9e694a73be6678b396327db451d99f6a1544",
                    "nonce" : "edd88d8119e03df0",
                    "number" : "0x01",
                    "parentHash" : "e41b9215d33e0e0bc97fc59cd46d07f66216ac26879d8fba3e4449d9f032ec76",
                    "receiptTrie" : "ebda4b8f35a9b7992c5a661a9a6337ee0fd42f1ae559498fef64ac9433b3f8de",
                    "stateRoot" : "0a2c0aa4f7a67f8204cc71e0127de44e5c31115ccbb0591a89f71f064ce7aa10",
                    "timestamp" : "0x03e8",
                    "transactionsTrie" : "f06b7865f9815b87966bf85f209ef033842530cacd70091c5b3eda09057a8bf9",
                    "uncleHash" : "1dcc4de8dec75d7aab85b567b6ccd41ad312451b948a7413f0a142fd40d49347"
                },
                "rlp" : "0xf90273f901f7a0e41b9215d33e0e0bc97fc59cd46d07f66216ac26879d8fba3e4449d9f032ec76a01dcc4de8dec75d7aab85b567b6ccd41ad312451b948a7413f0a142fd40d49347942adc25665018aa1fe0e6bc666dac8fc2697ff9baa00a2c0aa4f7a67f8204cc71e0127de44e5c31115ccbb0591a89f71f064ce7aa10a0f06b7865f9815b87966bf85f209ef033842530cacd70091c5b3eda09057a8bf9a0ebda4b8f35a9b7992c5a661a9a6337ee0fd42f1ae559498fef64ac9433b3f8deb90100000000000000000000000000000000000000000000000000000000000000000000000000000000000000000000000000000000000000000000000000000000000000000000000000000000000000000000000000000000000000000000000000000000000000000000000000000000000000000000000000000000000000000000000000000000000000000000000000000000000000000000000000000000000000000000000000000000000000000000000000000000000000000000000000000000000000000000000000000000000000000000000000000000000000000000000000000000000000000000000000000000000000000000000000000000008302000001839896808257588203e880a0d466330252b2ab330ebb43b9e0dd9e694a73be6678b396327db451d99f6a154488edd88d8119e03df0f876f8748001830927c094b94f5374fce5edbc8e2a8697c15331677e6ebf0b019411223344556677889910111213141516171819201ba0e7b071c0284506bf00b0d80a0513e6d32765d601a607a416200c9f460e8f8203a025ca64ca394548e13bc38b1a1723a151c10eccb5dac4117bf26faee663962d12c0",
                "transactions" : [
                    {
                        "data" : "0x1122334455667788991011121314151617181920",
                        "gasLimit" : "0x0927c0",
                        "gasPrice" : "0x01",
                        "nonce" : "0x00",
                        "r" : "0xe7b071c0284506bf00b0d80a0513e6d32765d601a607a416200c9f460e8f8203",
                        "s" : "0x25ca64ca394548e13bc38b1a1723a151c10eccb5dac4117bf26faee663962d12",
                        "to" : "b94f5374fce5edbc8e2a8697c15331677e6ebf0b",
                        "v" : "0x1b",
                        "value" : "0x01"
                    }
                ],
                "uncleHeaders" : [
                ]
            }
        ],
        "genesisBlockHeader" : {
            "bloom" : "00000000000000000000000000000000000000000000000000000000000000000000000000000000000000000000000000000000000000000000000000000000000000000000000000000000000000000000000000000000000000000000000000000000000000000000000000000000000000000000000000000000000000000000000000000000000000000000000000000000000000000000000000000000000000000000000000000000000000000000000000000000000000000000000000000000000000000000000000000000000000000000000000000000000000000000000000000000000000000000000000000000000000000000000000000000",
            "coinbase" : "2adc25665018aa1fe0e6bc666dac8fc2697ff9ba",
            "difficulty" : "0x020000",
            "extraData" : "0x42",
            "gasLimit" : "0x989680",
            "gasUsed" : "0x00",
            "hash" : "e41b9215d33e0e0bc97fc59cd46d07f66216ac26879d8fba3e4449d9f032ec76",
            "mixHash" : "56e81f171bcc55a6ff8345e692c0f86e5b48e01b996cadc001622fb5e363b421",
            "nonce" : "0102030405060708",
            "number" : "0x00",
            "parentHash" : "0000000000000000000000000000000000000000000000000000000000000000",
            "receiptTrie" : "56e81f171bcc55a6ff8345e692c0f86e5b48e01b996cadc001622fb5e363b421",
            "stateRoot" : "4575ff9537549d145650ffcb340dfba8c6fe2b4b0a45169a126195ba47f15e29",
            "timestamp" : "0x03b6",
            "transactionsTrie" : "56e81f171bcc55a6ff8345e692c0f86e5b48e01b996cadc001622fb5e363b421",
            "uncleHash" : "1dcc4de8dec75d7aab85b567b6ccd41ad312451b948a7413f0a142fd40d49347"
        },
        "genesisRLP" : "0xf901faf901f5a00000000000000000000000000000000000000000000000000000000000000000a01dcc4de8dec75d7aab85b567b6ccd41ad312451b948a7413f0a142fd40d49347942adc25665018aa1fe0e6bc666dac8fc2697ff9baa04575ff9537549d145650ffcb340dfba8c6fe2b4b0a45169a126195ba47f15e29a056e81f171bcc55a6ff8345e692c0f86e5b48e01b996cadc001622fb5e363b421a056e81f171bcc55a6ff8345e692c0f86e5b48e01b996cadc001622fb5e363b421b9010000000000000000000000000000000000000000000000000000000000000000000000000000000000000000000000000000000000000000000000000000000000000000000000000000000000000000000000000000000000000000000000000000000000000000000000000000000000000000000000000000000000000000000000000000000000000000000000000000000000000000000000000000000000000000000000000000000000000000000000000000000000000000000000000000000000000000000000000000000000000000000000000000000000000000000000000000000000000000000000000000000000000000000000000000000000830200008083989680808203b642a056e81f171bcc55a6ff8345e692c0f86e5b48e01b996cadc001622fb5e363b421880102030405060708c0c0",
        "lastblockhash" : "b5b8067cb8a2f1f6c56c401d10db9084a033910dae2ac83a12fcdd8546aec1e8",
        "network" : "Homestead",
        "postState" : {
            "2adc25665018aa1fe0e6bc666dac8fc2697ff9ba" : {
                "balance" : "0x4563918244f45758",
                "code" : "0x",
                "nonce" : "0x00",
                "storage" : {
                }
            },
            "a94f5374fce5edbc8e2a8697c15331677e6ebf0b" : {
                "balance" : "0xe8d4a4b8a7",
                "code" : "0x",
                "nonce" : "0x01",
                "storage" : {
                }
            },
            "b94f5374fce5edbc8e2a8697c15331677e6ebf0b" : {
                "balance" : "0x65",
                "code" : "0x",
                "nonce" : "0x00",
                "storage" : {
                }
            }
        },
        "pre" : {
            "a94f5374fce5edbc8e2a8697c15331677e6ebf0b" : {
                "balance" : "0xe8d4a51000",
                "code" : "0x",
                "nonce" : "0x00",
                "storage" : {
                }
            },
            "b94f5374fce5edbc8e2a8697c15331677e6ebf0b" : {
                "balance" : "0x64",
                "code" : "0x",
                "nonce" : "0x00",
                "storage" : {
                }
            }
        }
    }
}