{
    "callcodeEmptycontract_d0g0v0_EIP150" : {
        "_info" : {
            "comment" : "",
            "filledwith" : "cpp-1.3.0+commit.16292201.Linux.g++",
            "source" : "/src/GenStateTestAsBcTemp/stCallCodes/callcodeEmptycontract_d0g0v0Filler.json"
        },
        "blocks" : [
            {
                "blockHeader" : {
                    "bloom" : "0x00000000000000000000000000000000000000000000000000000000000000000000000000000000000000000000000000000000000000000000000000000000000000000000000000000000000000000000000000000000000000000000000000000000000000000000000000000000000000000000000000000000000000000000000000000000000000000000000000000000000000000000000000000000000000000000000000000000000000000000000000000000000000000000000000000000000000000000000000000000000000000000000000000000000000000000000000000000000000000000000000000000000000000000000000000000",
                    "coinbase" : "0x2adc25665018aa1fe0e6bc666dac8fc2697ff9ba",
                    "difficulty" : "0x020000",
                    "extraData" : "",
                    "gasLimit" : "0x0f4240",
                    "gasUsed" : "0xbd2e",
                    "hash" : "0xc268100e3becc9ea07612d353adbaf83cda7c64010c158559ef89168cdb101b3",
                    "mixHash" : "0x3352cc5a612a6273ffc0780e280b77388c65e3fef8e61e58d766c687a73d652a",
                    "nonce" : "0x7115a34e9162e37f",
                    "number" : "0x01",
                    "parentHash" : "0xf4f7c7972a867b0794f5d4447b80e81516afd83ee0ef45b85028833b4c6a31f3",
                    "receiptTrie" : "0xd0ba0fbb176416fe62e237acdd9c989a544aac0e18629e370ab70c75a21aee25",
                    "stateRoot" : "0x53e4bd0868f627961461bf3626fdcaa841589f2a8baab83cc8e54f00bbfc0942",
                    "timestamp" : "0x03e8",
                    "transactionsTrie" : "0x4622bcb7ed1149573f5fae98048764eee2b2b6261af0f0c68fbef56a3d82d10b",
                    "uncleHash" : "0x1dcc4de8dec75d7aab85b567b6ccd41ad312451b948a7413f0a142fd40d49347"
                },
                "rlp" : "0xf9025ff901f7a0f4f7c7972a867b0794f5d4447b80e81516afd83ee0ef45b85028833b4c6a31f3a01dcc4de8dec75d7aab85b567b6ccd41ad312451b948a7413f0a142fd40d49347942adc25665018aa1fe0e6bc666dac8fc2697ff9baa053e4bd0868f627961461bf3626fdcaa841589f2a8baab83cc8e54f00bbfc0942a04622bcb7ed1149573f5fae98048764eee2b2b6261af0f0c68fbef56a3d82d10ba0d0ba0fbb176416fe62e237acdd9c989a544aac0e18629e370ab70c75a21aee25b90100000000000000000000000000000000000000000000000000000000000000000000000000000000000000000000000000000000000000000000000000000000000000000000000000000000000000000000000000000000000000000000000000000000000000000000000000000000000000000000000000000000000000000000000000000000000000000000000000000000000000000000000000000000000000000000000000000000000000000000000000000000000000000000000000000000000000000000000000000000000000000000000000000000000000000000000000000000000000000000000000000000000000000000000000000000008302000001830f424082bd2e8203e880a03352cc5a612a6273ffc0780e280b77388c65e3fef8e61e58d766c687a73d652a887115a34e9162e37ff862f860800183019a5494100000000000000000000000000000000000000080801ba09b85ed929e27be6c4a0c284109265828d4a0dbc83102cbedb0bc7fce73d6bbd5a014381d5d756dbcbd0ea8b61be69fe8e59bdf0980019aa766ae46d5727c7b9b31c0",
                "transactions" : [
                    {
                        "data" : "",
                        "gasLimit" : "0x019a54",
                        "gasPrice" : "0x01",
                        "nonce" : "0x00",
                        "r" : "0x9b85ed929e27be6c4a0c284109265828d4a0dbc83102cbedb0bc7fce73d6bbd5",
                        "s" : "0x14381d5d756dbcbd0ea8b61be69fe8e59bdf0980019aa766ae46d5727c7b9b31",
                        "to" : "0x1000000000000000000000000000000000000000",
                        "v" : "0x1b",
                        "value" : "0x00"
                    }
                ],
                "uncleHeaders" : [
                ]
            }
        ],
        "genesisBlockHeader" : {
            "bloom" : "0x00000000000000000000000000000000000000000000000000000000000000000000000000000000000000000000000000000000000000000000000000000000000000000000000000000000000000000000000000000000000000000000000000000000000000000000000000000000000000000000000000000000000000000000000000000000000000000000000000000000000000000000000000000000000000000000000000000000000000000000000000000000000000000000000000000000000000000000000000000000000000000000000000000000000000000000000000000000000000000000000000000000000000000000000000000000",
            "coinbase" : "0x2adc25665018aa1fe0e6bc666dac8fc2697ff9ba",
            "difficulty" : "0x020000",
            "extraData" : "0x42",
            "gasLimit" : "0x0f4240",
            "gasUsed" : "0x00",
            "hash" : "0xf4f7c7972a867b0794f5d4447b80e81516afd83ee0ef45b85028833b4c6a31f3",
            "mixHash" : "0x56e81f171bcc55a6ff8345e692c0f86e5b48e01b996cadc001622fb5e363b421",
            "nonce" : "0x0102030405060708",
            "number" : "0x00",
            "parentHash" : "0x0000000000000000000000000000000000000000000000000000000000000000",
            "receiptTrie" : "0x56e81f171bcc55a6ff8345e692c0f86e5b48e01b996cadc001622fb5e363b421",
            "stateRoot" : "0xf93366e8c2941504a26d10518cea622642b9284c975a3a0ac19545d9ddf725e6",
            "timestamp" : "0x03b6",
            "transactionsTrie" : "0x56e81f171bcc55a6ff8345e692c0f86e5b48e01b996cadc001622fb5e363b421",
            "uncleHash" : "0x1dcc4de8dec75d7aab85b567b6ccd41ad312451b948a7413f0a142fd40d49347"
        },
        "genesisRLP" : "0xf901faf901f5a00000000000000000000000000000000000000000000000000000000000000000a01dcc4de8dec75d7aab85b567b6ccd41ad312451b948a7413f0a142fd40d49347942adc25665018aa1fe0e6bc666dac8fc2697ff9baa0f93366e8c2941504a26d10518cea622642b9284c975a3a0ac19545d9ddf725e6a056e81f171bcc55a6ff8345e692c0f86e5b48e01b996cadc001622fb5e363b421a056e81f171bcc55a6ff8345e692c0f86e5b48e01b996cadc001622fb5e363b421b90100000000000000000000000000000000000000000000000000000000000000000000000000000000000000000000000000000000000000000000000000000000000000000000000000000000000000000000000000000000000000000000000000000000000000000000000000000000000000000000000000000000000000000000000000000000000000000000000000000000000000000000000000000000000000000000000000000000000000000000000000000000000000000000000000000000000000000000000000000000000000000000000000000000000000000000000000000000000000000000000000000000000000000000000000000000008302000080830f4240808203b642a056e81f171bcc55a6ff8345e692c0f86e5b48e01b996cadc001622fb5e363b421880102030405060708c0c0",
        "lastblockhash" : "0xc268100e3becc9ea07612d353adbaf83cda7c64010c158559ef89168cdb101b3",
        "network" : "EIP150",
        "postState" : {
            "0x1000000000000000000000000000000000000000" : {
                "balance" : "0x03e8",
                "code" : "0x60406000604060006103e873945304eb96065b2a98b57a48a06ae28d285a71b561c350f2600055",
                "nonce" : "0x00",
                "storage" : {
                    "0x00" : "0x01"
                }
            },
            "0x2adc25665018aa1fe0e6bc666dac8fc2697ff9ba" : {
                "balance" : "0x4563918244f4bd2e",
                "code" : "",
                "nonce" : "0x00",
                "storage" : {
                }
            },
            "0xa94f5374fce5edbc8e2a8697c15331677e6ebf0b" : {
                "balance" : "0x0e8512",
                "code" : "",
                "nonce" : "0x01",
                "storage" : {
                }
            }
        },
        "pre" : {
            "0x1000000000000000000000000000000000000000" : {
                "balance" : "0x03e8",
                "code" : "0x60406000604060006103e873945304eb96065b2a98b57a48a06ae28d285a71b561c350f2600055",
                "nonce" : "0x00",
                "storage" : {
                }
            },
            "0xa94f5374fce5edbc8e2a8697c15331677e6ebf0b" : {
                "balance" : "0x0f4240",
                "code" : "",
                "nonce" : "0x00",
                "storage" : {
                }
            }
        }
    },
    "callcodeEmptycontract_d0g0v0_EIP158" : {
        "_info" : {
            "comment" : "",
            "filledwith" : "cpp-1.3.0+commit.16292201.Linux.g++",
            "source" : "/src/GenStateTestAsBcTemp/stCallCodes/callcodeEmptycontract_d0g0v0Filler.json"
        },
        "blocks" : [
            {
                "blockHeader" : {
                    "bloom" : "0x00000000000000000000000000000000000000000000000000000000000000000000000000000000000000000000000000000000000000000000000000000000000000000000000000000000000000000000000000000000000000000000000000000000000000000000000000000000000000000000000000000000000000000000000000000000000000000000000000000000000000000000000000000000000000000000000000000000000000000000000000000000000000000000000000000000000000000000000000000000000000000000000000000000000000000000000000000000000000000000000000000000000000000000000000000000",
                    "coinbase" : "0x2adc25665018aa1fe0e6bc666dac8fc2697ff9ba",
                    "difficulty" : "0x020000",
                    "extraData" : "",
                    "gasLimit" : "0x0f4240",
                    "gasUsed" : "0xbd2e",
                    "hash" : "0x180881212a9a3123b511415af0368fee8bdcddd91d95a9b8f07b4bcfa67aa633",
                    "mixHash" : "0xadaa6ba3037f336d2b177bb3c7eefcf224721b1ed033f32cd88da57a9428fe79",
                    "nonce" : "0xfec83f5bce725708",
                    "number" : "0x01",
                    "parentHash" : "0xf4f7c7972a867b0794f5d4447b80e81516afd83ee0ef45b85028833b4c6a31f3",
                    "receiptTrie" : "0xd0ba0fbb176416fe62e237acdd9c989a544aac0e18629e370ab70c75a21aee25",
                    "stateRoot" : "0x53e4bd0868f627961461bf3626fdcaa841589f2a8baab83cc8e54f00bbfc0942",
                    "timestamp" : "0x03e8",
                    "transactionsTrie" : "0x4622bcb7ed1149573f5fae98048764eee2b2b6261af0f0c68fbef56a3d82d10b",
                    "uncleHash" : "0x1dcc4de8dec75d7aab85b567b6ccd41ad312451b948a7413f0a142fd40d49347"
                },
                "rlp" : "0xf9025ff901f7a0f4f7c7972a867b0794f5d4447b80e81516afd83ee0ef45b85028833b4c6a31f3a01dcc4de8dec75d7aab85b567b6ccd41ad312451b948a7413f0a142fd40d49347942adc25665018aa1fe0e6bc666dac8fc2697ff9baa053e4bd0868f627961461bf3626fdcaa841589f2a8baab83cc8e54f00bbfc0942a04622bcb7ed1149573f5fae98048764eee2b2b6261af0f0c68fbef56a3d82d10ba0d0ba0fbb176416fe62e237acdd9c989a544aac0e18629e370ab70c75a21aee25b90100000000000000000000000000000000000000000000000000000000000000000000000000000000000000000000000000000000000000000000000000000000000000000000000000000000000000000000000000000000000000000000000000000000000000000000000000000000000000000000000000000000000000000000000000000000000000000000000000000000000000000000000000000000000000000000000000000000000000000000000000000000000000000000000000000000000000000000000000000000000000000000000000000000000000000000000000000000000000000000000000000000000000000000000000000000008302000001830f424082bd2e8203e880a0adaa6ba3037f336d2b177bb3c7eefcf224721b1ed033f32cd88da57a9428fe7988fec83f5bce725708f862f860800183019a5494100000000000000000000000000000000000000080801ba09b85ed929e27be6c4a0c284109265828d4a0dbc83102cbedb0bc7fce73d6bbd5a014381d5d756dbcbd0ea8b61be69fe8e59bdf0980019aa766ae46d5727c7b9b31c0",
                "transactions" : [
                    {
                        "data" : "",
                        "gasLimit" : "0x019a54",
                        "gasPrice" : "0x01",
                        "nonce" : "0x00",
                        "r" : "0x9b85ed929e27be6c4a0c284109265828d4a0dbc83102cbedb0bc7fce73d6bbd5",
                        "s" : "0x14381d5d756dbcbd0ea8b61be69fe8e59bdf0980019aa766ae46d5727c7b9b31",
                        "to" : "0x1000000000000000000000000000000000000000",
                        "v" : "0x1b",
                        "value" : "0x00"
                    }
                ],
                "uncleHeaders" : [
                ]
            }
        ],
        "genesisBlockHeader" : {
            "bloom" : "0x00000000000000000000000000000000000000000000000000000000000000000000000000000000000000000000000000000000000000000000000000000000000000000000000000000000000000000000000000000000000000000000000000000000000000000000000000000000000000000000000000000000000000000000000000000000000000000000000000000000000000000000000000000000000000000000000000000000000000000000000000000000000000000000000000000000000000000000000000000000000000000000000000000000000000000000000000000000000000000000000000000000000000000000000000000000",
            "coinbase" : "0x2adc25665018aa1fe0e6bc666dac8fc2697ff9ba",
            "difficulty" : "0x020000",
            "extraData" : "0x42",
            "gasLimit" : "0x0f4240",
            "gasUsed" : "0x00",
            "hash" : "0xf4f7c7972a867b0794f5d4447b80e81516afd83ee0ef45b85028833b4c6a31f3",
            "mixHash" : "0x56e81f171bcc55a6ff8345e692c0f86e5b48e01b996cadc001622fb5e363b421",
            "nonce" : "0x0102030405060708",
            "number" : "0x00",
            "parentHash" : "0x0000000000000000000000000000000000000000000000000000000000000000",
            "receiptTrie" : "0x56e81f171bcc55a6ff8345e692c0f86e5b48e01b996cadc001622fb5e363b421",
            "stateRoot" : "0xf93366e8c2941504a26d10518cea622642b9284c975a3a0ac19545d9ddf725e6",
            "timestamp" : "0x03b6",
            "transactionsTrie" : "0x56e81f171bcc55a6ff8345e692c0f86e5b48e01b996cadc001622fb5e363b421",
            "uncleHash" : "0x1dcc4de8dec75d7aab85b567b6ccd41ad312451b948a7413f0a142fd40d49347"
        },
        "genesisRLP" : "0xf901faf901f5a00000000000000000000000000000000000000000000000000000000000000000a01dcc4de8dec75d7aab85b567b6ccd41ad312451b948a7413f0a142fd40d49347942adc25665018aa1fe0e6bc666dac8fc2697ff9baa0f93366e8c2941504a26d10518cea622642b9284c975a3a0ac19545d9ddf725e6a056e81f171bcc55a6ff8345e692c0f86e5b48e01b996cadc001622fb5e363b421a056e81f171bcc55a6ff8345e692c0f86e5b48e01b996cadc001622fb5e363b421b90100000000000000000000000000000000000000000000000000000000000000000000000000000000000000000000000000000000000000000000000000000000000000000000000000000000000000000000000000000000000000000000000000000000000000000000000000000000000000000000000000000000000000000000000000000000000000000000000000000000000000000000000000000000000000000000000000000000000000000000000000000000000000000000000000000000000000000000000000000000000000000000000000000000000000000000000000000000000000000000000000000000000000000000000000000000008302000080830f4240808203b642a056e81f171bcc55a6ff8345e692c0f86e5b48e01b996cadc001622fb5e363b421880102030405060708c0c0",
        "lastblockhash" : "0x180881212a9a3123b511415af0368fee8bdcddd91d95a9b8f07b4bcfa67aa633",
        "network" : "EIP158",
        "postState" : {
            "0x1000000000000000000000000000000000000000" : {
                "balance" : "0x03e8",
                "code" : "0x60406000604060006103e873945304eb96065b2a98b57a48a06ae28d285a71b561c350f2600055",
                "nonce" : "0x00",
                "storage" : {
                    "0x00" : "0x01"
                }
            },
            "0x2adc25665018aa1fe0e6bc666dac8fc2697ff9ba" : {
                "balance" : "0x4563918244f4bd2e",
                "code" : "",
                "nonce" : "0x00",
                "storage" : {
                }
            },
            "0xa94f5374fce5edbc8e2a8697c15331677e6ebf0b" : {
                "balance" : "0x0e8512",
                "code" : "",
                "nonce" : "0x01",
                "storage" : {
                }
            }
        },
        "pre" : {
            "0x1000000000000000000000000000000000000000" : {
                "balance" : "0x03e8",
                "code" : "0x60406000604060006103e873945304eb96065b2a98b57a48a06ae28d285a71b561c350f2600055",
                "nonce" : "0x00",
                "storage" : {
                }
            },
            "0xa94f5374fce5edbc8e2a8697c15331677e6ebf0b" : {
                "balance" : "0x0f4240",
                "code" : "",
                "nonce" : "0x00",
                "storage" : {
                }
            }
        }
    },
    "callcodeEmptycontract_d0g0v0_Frontier" : {
        "_info" : {
            "comment" : "",
            "filledwith" : "cpp-1.3.0+commit.16292201.Linux.g++",
            "source" : "/src/GenStateTestAsBcTemp/stCallCodes/callcodeEmptycontract_d0g0v0Filler.json"
        },
        "blocks" : [
            {
                "blockHeader" : {
                    "bloom" : "0x00000000000000000000000000000000000000000000000000000000000000000000000000000000000000000000000000000000000000000000000000000000000000000000000000000000000000000000000000000000000000000000000000000000000000000000000000000000000000000000000000000000000000000000000000000000000000000000000000000000000000000000000000000000000000000000000000000000000000000000000000000000000000000000000000000000000000000000000000000000000000000000000000000000000000000000000000000000000000000000000000000000000000000000000000000000",
                    "coinbase" : "0x2adc25665018aa1fe0e6bc666dac8fc2697ff9ba",
                    "difficulty" : "0x020000",
                    "extraData" : "",
                    "gasLimit" : "0x0f4240",
                    "gasUsed" : "0xba9a",
                    "hash" : "0x620aac2a8f0d0873f1dffe656e996fe99e03732ab0934a3fb19e1675896dc9d7",
                    "mixHash" : "0xe4a4fd2937bc6c4b54ba7be7fae147a16a8b73fc7e50a07f146b544c35587b08",
                    "nonce" : "0x28711012a6ba8509",
                    "number" : "0x01",
                    "parentHash" : "0xf4f7c7972a867b0794f5d4447b80e81516afd83ee0ef45b85028833b4c6a31f3",
                    "receiptTrie" : "0x6f1d530bdcf0d33c293671c10fab49db556edfc39aaa30dbf40ba482501c3303",
                    "stateRoot" : "0x7f56584264200bdbb767599f69ff15aa247084977a26158506d5d0f7ff0fdaa0",
                    "timestamp" : "0x03e8",
                    "transactionsTrie" : "0x4622bcb7ed1149573f5fae98048764eee2b2b6261af0f0c68fbef56a3d82d10b",
                    "uncleHash" : "0x1dcc4de8dec75d7aab85b567b6ccd41ad312451b948a7413f0a142fd40d49347"
                },
                "rlp" : "0xf9025ff901f7a0f4f7c7972a867b0794f5d4447b80e81516afd83ee0ef45b85028833b4c6a31f3a01dcc4de8dec75d7aab85b567b6ccd41ad312451b948a7413f0a142fd40d49347942adc25665018aa1fe0e6bc666dac8fc2697ff9baa07f56584264200bdbb767599f69ff15aa247084977a26158506d5d0f7ff0fdaa0a04622bcb7ed1149573f5fae98048764eee2b2b6261af0f0c68fbef56a3d82d10ba06f1d530bdcf0d33c293671c10fab49db556edfc39aaa30dbf40ba482501c3303b90100000000000000000000000000000000000000000000000000000000000000000000000000000000000000000000000000000000000000000000000000000000000000000000000000000000000000000000000000000000000000000000000000000000000000000000000000000000000000000000000000000000000000000000000000000000000000000000000000000000000000000000000000000000000000000000000000000000000000000000000000000000000000000000000000000000000000000000000000000000000000000000000000000000000000000000000000000000000000000000000000000000000000000000000000000000008302000001830f424082ba9a8203e880a0e4a4fd2937bc6c4b54ba7be7fae147a16a8b73fc7e50a07f146b544c35587b088828711012a6ba8509f862f860800183019a5494100000000000000000000000000000000000000080801ba09b85ed929e27be6c4a0c284109265828d4a0dbc83102cbedb0bc7fce73d6bbd5a014381d5d756dbcbd0ea8b61be69fe8e59bdf0980019aa766ae46d5727c7b9b31c0",
                "transactions" : [
                    {
                        "data" : "",
                        "gasLimit" : "0x019a54",
                        "gasPrice" : "0x01",
                        "nonce" : "0x00",
                        "r" : "0x9b85ed929e27be6c4a0c284109265828d4a0dbc83102cbedb0bc7fce73d6bbd5",
                        "s" : "0x14381d5d756dbcbd0ea8b61be69fe8e59bdf0980019aa766ae46d5727c7b9b31",
                        "to" : "0x1000000000000000000000000000000000000000",
                        "v" : "0x1b",
                        "value" : "0x00"
                    }
                ],
                "uncleHeaders" : [
                ]
            }
        ],
        "genesisBlockHeader" : {
            "bloom" : "0x00000000000000000000000000000000000000000000000000000000000000000000000000000000000000000000000000000000000000000000000000000000000000000000000000000000000000000000000000000000000000000000000000000000000000000000000000000000000000000000000000000000000000000000000000000000000000000000000000000000000000000000000000000000000000000000000000000000000000000000000000000000000000000000000000000000000000000000000000000000000000000000000000000000000000000000000000000000000000000000000000000000000000000000000000000000",
            "coinbase" : "0x2adc25665018aa1fe0e6bc666dac8fc2697ff9ba",
            "difficulty" : "0x020000",
            "extraData" : "0x42",
            "gasLimit" : "0x0f4240",
            "gasUsed" : "0x00",
            "hash" : "0xf4f7c7972a867b0794f5d4447b80e81516afd83ee0ef45b85028833b4c6a31f3",
            "mixHash" : "0x56e81f171bcc55a6ff8345e692c0f86e5b48e01b996cadc001622fb5e363b421",
            "nonce" : "0x0102030405060708",
            "number" : "0x00",
            "parentHash" : "0x0000000000000000000000000000000000000000000000000000000000000000",
            "receiptTrie" : "0x56e81f171bcc55a6ff8345e692c0f86e5b48e01b996cadc001622fb5e363b421",
            "stateRoot" : "0xf93366e8c2941504a26d10518cea622642b9284c975a3a0ac19545d9ddf725e6",
            "timestamp" : "0x03b6",
            "transactionsTrie" : "0x56e81f171bcc55a6ff8345e692c0f86e5b48e01b996cadc001622fb5e363b421",
            "uncleHash" : "0x1dcc4de8dec75d7aab85b567b6ccd41ad312451b948a7413f0a142fd40d49347"
        },
        "genesisRLP" : "0xf901faf901f5a00000000000000000000000000000000000000000000000000000000000000000a01dcc4de8dec75d7aab85b567b6ccd41ad312451b948a7413f0a142fd40d49347942adc25665018aa1fe0e6bc666dac8fc2697ff9baa0f93366e8c2941504a26d10518cea622642b9284c975a3a0ac19545d9ddf725e6a056e81f171bcc55a6ff8345e692c0f86e5b48e01b996cadc001622fb5e363b421a056e81f171bcc55a6ff8345e692c0f86e5b48e01b996cadc001622fb5e363b421b90100000000000000000000000000000000000000000000000000000000000000000000000000000000000000000000000000000000000000000000000000000000000000000000000000000000000000000000000000000000000000000000000000000000000000000000000000000000000000000000000000000000000000000000000000000000000000000000000000000000000000000000000000000000000000000000000000000000000000000000000000000000000000000000000000000000000000000000000000000000000000000000000000000000000000000000000000000000000000000000000000000000000000000000000000000000008302000080830f4240808203b642a056e81f171bcc55a6ff8345e692c0f86e5b48e01b996cadc001622fb5e363b421880102030405060708c0c0",
        "lastblockhash" : "0x620aac2a8f0d0873f1dffe656e996fe99e03732ab0934a3fb19e1675896dc9d7",
        "network" : "Frontier",
        "postState" : {
            "0x1000000000000000000000000000000000000000" : {
                "balance" : "0x03e8",
                "code" : "0x60406000604060006103e873945304eb96065b2a98b57a48a06ae28d285a71b561c350f2600055",
                "nonce" : "0x00",
                "storage" : {
                    "0x00" : "0x01"
                }
            },
            "0x2adc25665018aa1fe0e6bc666dac8fc2697ff9ba" : {
                "balance" : "0x4563918244f4ba9a",
                "code" : "",
                "nonce" : "0x00",
                "storage" : {
                }
            },
            "0xa94f5374fce5edbc8e2a8697c15331677e6ebf0b" : {
                "balance" : "0x0e87a6",
                "code" : "",
                "nonce" : "0x01",
                "storage" : {
                }
            }
        },
        "pre" : {
            "0x1000000000000000000000000000000000000000" : {
                "balance" : "0x03e8",
                "code" : "0x60406000604060006103e873945304eb96065b2a98b57a48a06ae28d285a71b561c350f2600055",
                "nonce" : "0x00",
                "storage" : {
                }
            },
            "0xa94f5374fce5edbc8e2a8697c15331677e6ebf0b" : {
                "balance" : "0x0f4240",
                "code" : "",
                "nonce" : "0x00",
                "storage" : {
                }
            }
        }
    },
    "callcodeEmptycontract_d0g0v0_Homestead" : {
        "_info" : {
            "comment" : "",
            "filledwith" : "cpp-1.3.0+commit.16292201.Linux.g++",
            "source" : "/src/GenStateTestAsBcTemp/stCallCodes/callcodeEmptycontract_d0g0v0Filler.json"
        },
        "blocks" : [
            {
                "blockHeader" : {
                    "bloom" : "0x00000000000000000000000000000000000000000000000000000000000000000000000000000000000000000000000000000000000000000000000000000000000000000000000000000000000000000000000000000000000000000000000000000000000000000000000000000000000000000000000000000000000000000000000000000000000000000000000000000000000000000000000000000000000000000000000000000000000000000000000000000000000000000000000000000000000000000000000000000000000000000000000000000000000000000000000000000000000000000000000000000000000000000000000000000000",
                    "coinbase" : "0x2adc25665018aa1fe0e6bc666dac8fc2697ff9ba",
                    "difficulty" : "0x020000",
                    "extraData" : "",
                    "gasLimit" : "0x0f4240",
                    "gasUsed" : "0xba9a",
                    "hash" : "0xdc4f6d88e9ea5c14c31f578cac3c08bc610374d596071287944cf9675f0d85b6",
                    "mixHash" : "0x7046b23c3e9516dc41184c6ee55835deac63da4d02aff0b71e32d5d7b4692bf8",
                    "nonce" : "0xffdf32a1f1e12dde",
                    "number" : "0x01",
                    "parentHash" : "0xf4f7c7972a867b0794f5d4447b80e81516afd83ee0ef45b85028833b4c6a31f3",
                    "receiptTrie" : "0x6f1d530bdcf0d33c293671c10fab49db556edfc39aaa30dbf40ba482501c3303",
                    "stateRoot" : "0x7f56584264200bdbb767599f69ff15aa247084977a26158506d5d0f7ff0fdaa0",
                    "timestamp" : "0x03e8",
                    "transactionsTrie" : "0x4622bcb7ed1149573f5fae98048764eee2b2b6261af0f0c68fbef56a3d82d10b",
                    "uncleHash" : "0x1dcc4de8dec75d7aab85b567b6ccd41ad312451b948a7413f0a142fd40d49347"
                },
                "rlp" : "0xf9025ff901f7a0f4f7c7972a867b0794f5d4447b80e81516afd83ee0ef45b85028833b4c6a31f3a01dcc4de8dec75d7aab85b567b6ccd41ad312451b948a7413f0a142fd40d49347942adc25665018aa1fe0e6bc666dac8fc2697ff9baa07f56584264200bdbb767599f69ff15aa247084977a26158506d5d0f7ff0fdaa0a04622bcb7ed1149573f5fae98048764eee2b2b6261af0f0c68fbef56a3d82d10ba06f1d530bdcf0d33c293671c10fab49db556edfc39aaa30dbf40ba482501c3303b90100000000000000000000000000000000000000000000000000000000000000000000000000000000000000000000000000000000000000000000000000000000000000000000000000000000000000000000000000000000000000000000000000000000000000000000000000000000000000000000000000000000000000000000000000000000000000000000000000000000000000000000000000000000000000000000000000000000000000000000000000000000000000000000000000000000000000000000000000000000000000000000000000000000000000000000000000000000000000000000000000000000000000000000000000000000008302000001830f424082ba9a8203e880a07046b23c3e9516dc41184c6ee55835deac63da4d02aff0b71e32d5d7b4692bf888ffdf32a1f1e12ddef862f860800183019a5494100000000000000000000000000000000000000080801ba09b85ed929e27be6c4a0c284109265828d4a0dbc83102cbedb0bc7fce73d6bbd5a014381d5d756dbcbd0ea8b61be69fe8e59bdf0980019aa766ae46d5727c7b9b31c0",
                "transactions" : [
                    {
                        "data" : "",
                        "gasLimit" : "0x019a54",
                        "gasPrice" : "0x01",
                        "nonce" : "0x00",
                        "r" : "0x9b85ed929e27be6c4a0c284109265828d4a0dbc83102cbedb0bc7fce73d6bbd5",
                        "s" : "0x14381d5d756dbcbd0ea8b61be69fe8e59bdf0980019aa766ae46d5727c7b9b31",
                        "to" : "0x1000000000000000000000000000000000000000",
                        "v" : "0x1b",
                        "value" : "0x00"
                    }
                ],
                "uncleHeaders" : [
                ]
            }
        ],
        "genesisBlockHeader" : {
            "bloom" : "0x00000000000000000000000000000000000000000000000000000000000000000000000000000000000000000000000000000000000000000000000000000000000000000000000000000000000000000000000000000000000000000000000000000000000000000000000000000000000000000000000000000000000000000000000000000000000000000000000000000000000000000000000000000000000000000000000000000000000000000000000000000000000000000000000000000000000000000000000000000000000000000000000000000000000000000000000000000000000000000000000000000000000000000000000000000000",
            "coinbase" : "0x2adc25665018aa1fe0e6bc666dac8fc2697ff9ba",
            "difficulty" : "0x020000",
            "extraData" : "0x42",
            "gasLimit" : "0x0f4240",
            "gasUsed" : "0x00",
            "hash" : "0xf4f7c7972a867b0794f5d4447b80e81516afd83ee0ef45b85028833b4c6a31f3",
            "mixHash" : "0x56e81f171bcc55a6ff8345e692c0f86e5b48e01b996cadc001622fb5e363b421",
            "nonce" : "0x0102030405060708",
            "number" : "0x00",
            "parentHash" : "0x0000000000000000000000000000000000000000000000000000000000000000",
            "receiptTrie" : "0x56e81f171bcc55a6ff8345e692c0f86e5b48e01b996cadc001622fb5e363b421",
            "stateRoot" : "0xf93366e8c2941504a26d10518cea622642b9284c975a3a0ac19545d9ddf725e6",
            "timestamp" : "0x03b6",
            "transactionsTrie" : "0x56e81f171bcc55a6ff8345e692c0f86e5b48e01b996cadc001622fb5e363b421",
            "uncleHash" : "0x1dcc4de8dec75d7aab85b567b6ccd41ad312451b948a7413f0a142fd40d49347"
        },
        "genesisRLP" : "0xf901faf901f5a00000000000000000000000000000000000000000000000000000000000000000a01dcc4de8dec75d7aab85b567b6ccd41ad312451b948a7413f0a142fd40d49347942adc25665018aa1fe0e6bc666dac8fc2697ff9baa0f93366e8c2941504a26d10518cea622642b9284c975a3a0ac19545d9ddf725e6a056e81f171bcc55a6ff8345e692c0f86e5b48e01b996cadc001622fb5e363b421a056e81f171bcc55a6ff8345e692c0f86e5b48e01b996cadc001622fb5e363b421b90100000000000000000000000000000000000000000000000000000000000000000000000000000000000000000000000000000000000000000000000000000000000000000000000000000000000000000000000000000000000000000000000000000000000000000000000000000000000000000000000000000000000000000000000000000000000000000000000000000000000000000000000000000000000000000000000000000000000000000000000000000000000000000000000000000000000000000000000000000000000000000000000000000000000000000000000000000000000000000000000000000000000000000000000000000000008302000080830f4240808203b642a056e81f171bcc55a6ff8345e692c0f86e5b48e01b996cadc001622fb5e363b421880102030405060708c0c0",
        "lastblockhash" : "0xdc4f6d88e9ea5c14c31f578cac3c08bc610374d596071287944cf9675f0d85b6",
        "network" : "Homestead",
        "postState" : {
            "0x1000000000000000000000000000000000000000" : {
                "balance" : "0x03e8",
                "code" : "0x60406000604060006103e873945304eb96065b2a98b57a48a06ae28d285a71b561c350f2600055",
                "nonce" : "0x00",
                "storage" : {
                    "0x00" : "0x01"
                }
            },
            "0x2adc25665018aa1fe0e6bc666dac8fc2697ff9ba" : {
                "balance" : "0x4563918244f4ba9a",
                "code" : "",
                "nonce" : "0x00",
                "storage" : {
                }
            },
            "0xa94f5374fce5edbc8e2a8697c15331677e6ebf0b" : {
                "balance" : "0x0e87a6",
                "code" : "",
                "nonce" : "0x01",
                "storage" : {
                }
            }
        },
        "pre" : {
            "0x1000000000000000000000000000000000000000" : {
                "balance" : "0x03e8",
                "code" : "0x60406000604060006103e873945304eb96065b2a98b57a48a06ae28d285a71b561c350f2600055",
                "nonce" : "0x00",
                "storage" : {
                }
            },
            "0xa94f5374fce5edbc8e2a8697c15331677e6ebf0b" : {
                "balance" : "0x0f4240",
                "code" : "",
                "nonce" : "0x00",
                "storage" : {
                }
            }
        }
    },
    "callcodeEmptycontract_d0g0v0_Metropolis" : {
        "_info" : {
            "comment" : "",
            "filledwith" : "cpp-1.3.0+commit.16292201.Linux.g++",
            "source" : "/src/GenStateTestAsBcTemp/stCallCodes/callcodeEmptycontract_d0g0v0Filler.json"
        },
        "blocks" : [
            {
                "blockHeader" : {
                    "bloom" : "0x00000000000000000000000000000000000000000000000000000000000000000000000000000000000000000000000000000000000000000000000000000000000000000000000000000000000000000000000000000000000000000000000000000000000000000000000000000000000000000000000000000000000000000000000000000000000000000000000000000000000000000000000000000000000000000000000000000000000000000000000000000000000000000000000000000000000000000000000000000000000000000000000000000000000000000000000000000000000000000000000000000000000000000000000000000000",
                    "coinbase" : "0x2adc25665018aa1fe0e6bc666dac8fc2697ff9ba",
                    "difficulty" : "0x020000",
                    "extraData" : "",
                    "gasLimit" : "0x0f4240",
                    "gasUsed" : "0xbd2e",
                    "hash" : "0x392325b8d94fc75fa10731e819a74dc8a8c5df9d7142fea8ecf8a2f4532dd7e1",
                    "mixHash" : "0x6ea5db3def75c96cd72fa09ddfd0a7e454a9f3cc0e36575c8f139738552fe6c3",
                    "nonce" : "0x8da73581d97e53fe",
                    "number" : "0x01",
                    "parentHash" : "0xf4f7c7972a867b0794f5d4447b80e81516afd83ee0ef45b85028833b4c6a31f3",
                    "receiptTrie" : "0x5514828a83b891aaebed966927472b7ea110fc1f42c0b834b71fced9b76a9e97",
                    "stateRoot" : "0x6a29dfb5a6abfc4bb32fc91fd3aba3f8e3840a7f8881094dc2a4de82ce98a5d1",
                    "timestamp" : "0x03e8",
                    "transactionsTrie" : "0x4622bcb7ed1149573f5fae98048764eee2b2b6261af0f0c68fbef56a3d82d10b",
                    "uncleHash" : "0x1dcc4de8dec75d7aab85b567b6ccd41ad312451b948a7413f0a142fd40d49347"
                },
                "rlp" : "0xf9025ff901f7a0f4f7c7972a867b0794f5d4447b80e81516afd83ee0ef45b85028833b4c6a31f3a01dcc4de8dec75d7aab85b567b6ccd41ad312451b948a7413f0a142fd40d49347942adc25665018aa1fe0e6bc666dac8fc2697ff9baa06a29dfb5a6abfc4bb32fc91fd3aba3f8e3840a7f8881094dc2a4de82ce98a5d1a04622bcb7ed1149573f5fae98048764eee2b2b6261af0f0c68fbef56a3d82d10ba05514828a83b891aaebed966927472b7ea110fc1f42c0b834b71fced9b76a9e97b90100000000000000000000000000000000000000000000000000000000000000000000000000000000000000000000000000000000000000000000000000000000000000000000000000000000000000000000000000000000000000000000000000000000000000000000000000000000000000000000000000000000000000000000000000000000000000000000000000000000000000000000000000000000000000000000000000000000000000000000000000000000000000000000000000000000000000000000000000000000000000000000000000000000000000000000000000000000000000000000000000000000000000000000000000000000008302000001830f424082bd2e8203e880a06ea5db3def75c96cd72fa09ddfd0a7e454a9f3cc0e36575c8f139738552fe6c3888da73581d97e53fef862f860800183019a5494100000000000000000000000000000000000000080801ba09b85ed929e27be6c4a0c284109265828d4a0dbc83102cbedb0bc7fce73d6bbd5a014381d5d756dbcbd0ea8b61be69fe8e59bdf0980019aa766ae46d5727c7b9b31c0",
                "transactions" : [
                    {
                        "data" : "",
                        "gasLimit" : "0x019a54",
                        "gasPrice" : "0x01",
                        "nonce" : "0x00",
                        "r" : "0x9b85ed929e27be6c4a0c284109265828d4a0dbc83102cbedb0bc7fce73d6bbd5",
                        "s" : "0x14381d5d756dbcbd0ea8b61be69fe8e59bdf0980019aa766ae46d5727c7b9b31",
                        "to" : "0x1000000000000000000000000000000000000000",
                        "v" : "0x1b",
                        "value" : "0x00"
                    }
                ],
                "uncleHeaders" : [
                ]
            }
        ],
        "genesisBlockHeader" : {
            "bloom" : "0x00000000000000000000000000000000000000000000000000000000000000000000000000000000000000000000000000000000000000000000000000000000000000000000000000000000000000000000000000000000000000000000000000000000000000000000000000000000000000000000000000000000000000000000000000000000000000000000000000000000000000000000000000000000000000000000000000000000000000000000000000000000000000000000000000000000000000000000000000000000000000000000000000000000000000000000000000000000000000000000000000000000000000000000000000000000",
            "coinbase" : "0x2adc25665018aa1fe0e6bc666dac8fc2697ff9ba",
            "difficulty" : "0x020000",
            "extraData" : "0x42",
            "gasLimit" : "0x0f4240",
            "gasUsed" : "0x00",
            "hash" : "0xf4f7c7972a867b0794f5d4447b80e81516afd83ee0ef45b85028833b4c6a31f3",
            "mixHash" : "0x56e81f171bcc55a6ff8345e692c0f86e5b48e01b996cadc001622fb5e363b421",
            "nonce" : "0x0102030405060708",
            "number" : "0x00",
            "parentHash" : "0x0000000000000000000000000000000000000000000000000000000000000000",
            "receiptTrie" : "0x56e81f171bcc55a6ff8345e692c0f86e5b48e01b996cadc001622fb5e363b421",
            "stateRoot" : "0xf93366e8c2941504a26d10518cea622642b9284c975a3a0ac19545d9ddf725e6",
            "timestamp" : "0x03b6",
            "transactionsTrie" : "0x56e81f171bcc55a6ff8345e692c0f86e5b48e01b996cadc001622fb5e363b421",
            "uncleHash" : "0x1dcc4de8dec75d7aab85b567b6ccd41ad312451b948a7413f0a142fd40d49347"
        },
        "genesisRLP" : "0xf901faf901f5a00000000000000000000000000000000000000000000000000000000000000000a01dcc4de8dec75d7aab85b567b6ccd41ad312451b948a7413f0a142fd40d49347942adc25665018aa1fe0e6bc666dac8fc2697ff9baa0f93366e8c2941504a26d10518cea622642b9284c975a3a0ac19545d9ddf725e6a056e81f171bcc55a6ff8345e692c0f86e5b48e01b996cadc001622fb5e363b421a056e81f171bcc55a6ff8345e692c0f86e5b48e01b996cadc001622fb5e363b421b90100000000000000000000000000000000000000000000000000000000000000000000000000000000000000000000000000000000000000000000000000000000000000000000000000000000000000000000000000000000000000000000000000000000000000000000000000000000000000000000000000000000000000000000000000000000000000000000000000000000000000000000000000000000000000000000000000000000000000000000000000000000000000000000000000000000000000000000000000000000000000000000000000000000000000000000000000000000000000000000000000000000000000000000000000000000008302000080830f4240808203b642a056e81f171bcc55a6ff8345e692c0f86e5b48e01b996cadc001622fb5e363b421880102030405060708c0c0",
        "lastblockhash" : "0x392325b8d94fc75fa10731e819a74dc8a8c5df9d7142fea8ecf8a2f4532dd7e1",
        "network" : "Metropolis",
        "postState" : {
            "0x00000000000000000000000000000000000000f0" : {
                "balance" : "0x00",
                "code" : "",
                "nonce" : "0x00",
                "storage" : {
                }
            },
            "0x1000000000000000000000000000000000000000" : {
                "balance" : "0x03e8",
                "code" : "0x60406000604060006103e873945304eb96065b2a98b57a48a06ae28d285a71b561c350f2600055",
                "nonce" : "0x00",
                "storage" : {
                    "0x00" : "0x01"
                }
            },
            "0x2adc25665018aa1fe0e6bc666dac8fc2697ff9ba" : {
                "balance" : "0x4563918244f4bd2e",
                "code" : "",
                "nonce" : "0x00",
                "storage" : {
                }
            },
            "0xa94f5374fce5edbc8e2a8697c15331677e6ebf0b" : {
                "balance" : "0x0e8512",
                "code" : "",
                "nonce" : "0x01",
                "storage" : {
                }
            }
        },
        "pre" : {
            "0x1000000000000000000000000000000000000000" : {
                "balance" : "0x03e8",
                "code" : "0x60406000604060006103e873945304eb96065b2a98b57a48a06ae28d285a71b561c350f2600055",
                "nonce" : "0x00",
                "storage" : {
                }
            },
            "0xa94f5374fce5edbc8e2a8697c15331677e6ebf0b" : {
                "balance" : "0x0f4240",
                "code" : "",
                "nonce" : "0x00",
                "storage" : {
                }
            }
        }
    }
}