{
    "callcodecallcodecallcode_111_d0g0v0_EIP150" : {
        "blocks" : [
            {
                "blockHeader" : {
                    "bloom" : "00000000000000000000000000000000000000000000000000000000000000000000000000000000000000000000000000000000000000000000000000000000000000000000000000000000000000000000000000000000000000000000000000000000000000000000000000000000000000000000000000000000000000000000000000000000000000000000000000000000000000000000000000000000000000000000000000000000000000000000000000000000000000000000000000000000000000000000000000000000000000000000000000000000000000000000000000000000000000000000000000000000000000000000000000000000",
                    "coinbase" : "2adc25665018aa1fe0e6bc666dac8fc2697ff9ba",
                    "difficulty" : "0x020000",
                    "extraData" : "0x",
                    "gasLimit" : "0x01c95111",
                    "gasUsed" : "0x0404a3",
                    "hash" : "9f4851c4cd4c1227a2f1b06dbb5df7f51818e01fd12d7ed98f1e5bcf82a6494a",
                    "mixHash" : "f20aac5f44167a52cb4a757a19479e40c21a0f7c5472a74dbabf46227e5d870f",
                    "nonce" : "874208fac9b82d30",
                    "number" : "0x01",
                    "parentHash" : "60e34c8ba309205b358c712ef92fc65cffee4c62b0973f486eb142669f29a869",
                    "receiptTrie" : "f3ec3f5da2a1e8e0b58252deb945accf7dd7c50cd34ff74a927f15f322ea8352",
                    "stateRoot" : "e0bbe7bee0a1dfd3c46a3066aae3b76525ab8a93e71627281d1989f1e89d1150",
                    "timestamp" : "0x5891d4e0",
                    "transactionsTrie" : "5d88595a2b9f129f2901f79a207ca2d95f38ac387707e6cb1de43679d06079d4",
                    "uncleHash" : "1dcc4de8dec75d7aab85b567b6ccd41ad312451b948a7413f0a142fd40d49347"
                },
                "rlp" : "0xf90263f901fba060e34c8ba309205b358c712ef92fc65cffee4c62b0973f486eb142669f29a869a01dcc4de8dec75d7aab85b567b6ccd41ad312451b948a7413f0a142fd40d49347942adc25665018aa1fe0e6bc666dac8fc2697ff9baa0e0bbe7bee0a1dfd3c46a3066aae3b76525ab8a93e71627281d1989f1e89d1150a05d88595a2b9f129f2901f79a207ca2d95f38ac387707e6cb1de43679d06079d4a0f3ec3f5da2a1e8e0b58252deb945accf7dd7c50cd34ff74a927f15f322ea8352b901000000000000000000000000000000000000000000000000000000000000000000000000000000000000000000000000000000000000000000000000000000000000000000000000000000000000000000000000000000000000000000000000000000000000000000000000000000000000000000000000000000000000000000000000000000000000000000000000000000000000000000000000000000000000000000000000000000000000000000000000000000000000000000000000000000000000000000000000000000000000000000000000000000000000000000000000000000000000000000000000000000000000000000000000000000000083020000018401c95111830404a3845891d4e080a0f20aac5f44167a52cb4a757a19479e40c21a0f7c5472a74dbabf46227e5d870f88874208fac9b82d30f862f8608001832dc6c094100000000000000000000000000000000000000080801ba0bc3f717090c5b3d46550833ec05cc91a3c352bd18be2c0eed5ed3e54e8af58f9a03a7d01021289eca372726c91175e4f422da3147bd3961cd66ca95f1cf3619fb2c0",
                "transactions" : [
                    {
                        "data" : "0x",
                        "gasLimit" : "0x2dc6c0",
                        "gasPrice" : "0x01",
                        "nonce" : "0x00",
                        "r" : "0xbc3f717090c5b3d46550833ec05cc91a3c352bd18be2c0eed5ed3e54e8af58f9",
                        "s" : "0x3a7d01021289eca372726c91175e4f422da3147bd3961cd66ca95f1cf3619fb2",
                        "to" : "1000000000000000000000000000000000000000",
                        "v" : "0x1b",
                        "value" : "0x00"
                    }
                ],
                "uncleHeaders" : [
                ]
            }
        ],
        "genesisBlockHeader" : {
            "bloom" : "00000000000000000000000000000000000000000000000000000000000000000000000000000000000000000000000000000000000000000000000000000000000000000000000000000000000000000000000000000000000000000000000000000000000000000000000000000000000000000000000000000000000000000000000000000000000000000000000000000000000000000000000000000000000000000000000000000000000000000000000000000000000000000000000000000000000000000000000000000000000000000000000000000000000000000000000000000000000000000000000000000000000000000000000000000000",
            "coinbase" : "2adc25665018aa1fe0e6bc666dac8fc2697ff9ba",
            "difficulty" : "0x020000",
            "extraData" : "0x42",
            "gasLimit" : "0x01c9c380",
            "gasUsed" : "0x00",
            "hash" : "60e34c8ba309205b358c712ef92fc65cffee4c62b0973f486eb142669f29a869",
            "mixHash" : "56e81f171bcc55a6ff8345e692c0f86e5b48e01b996cadc001622fb5e363b421",
            "nonce" : "0102030405060708",
            "number" : "0x00",
            "parentHash" : "0000000000000000000000000000000000000000000000000000000000000000",
            "receiptTrie" : "56e81f171bcc55a6ff8345e692c0f86e5b48e01b996cadc001622fb5e363b421",
            "stateRoot" : "63c6978d3ab1a4f17965a6227d267e071753f752913e22b4a113e9af1bf64a15",
            "timestamp" : "0x54c98c81",
            "transactionsTrie" : "56e81f171bcc55a6ff8345e692c0f86e5b48e01b996cadc001622fb5e363b421",
            "uncleHash" : "1dcc4de8dec75d7aab85b567b6ccd41ad312451b948a7413f0a142fd40d49347"
        },
        "genesisRLP" : "0xf901fdf901f8a00000000000000000000000000000000000000000000000000000000000000000a01dcc4de8dec75d7aab85b567b6ccd41ad312451b948a7413f0a142fd40d49347942adc25665018aa1fe0e6bc666dac8fc2697ff9baa063c6978d3ab1a4f17965a6227d267e071753f752913e22b4a113e9af1bf64a15a056e81f171bcc55a6ff8345e692c0f86e5b48e01b996cadc001622fb5e363b421a056e81f171bcc55a6ff8345e692c0f86e5b48e01b996cadc001622fb5e363b421b901000000000000000000000000000000000000000000000000000000000000000000000000000000000000000000000000000000000000000000000000000000000000000000000000000000000000000000000000000000000000000000000000000000000000000000000000000000000000000000000000000000000000000000000000000000000000000000000000000000000000000000000000000000000000000000000000000000000000000000000000000000000000000000000000000000000000000000000000000000000000000000000000000000000000000000000000000000000000000000000000000000000000000000000000000000000083020000808401c9c380808454c98c8142a056e81f171bcc55a6ff8345e692c0f86e5b48e01b996cadc001622fb5e363b421880102030405060708c0c0",
        "lastblockhash" : "9f4851c4cd4c1227a2f1b06dbb5df7f51818e01fd12d7ed98f1e5bcf82a6494a",
        "network" : "EIP150",
        "postState" : {
            "1000000000000000000000000000000000000000" : {
                "balance" : "0x0de0b6b3a7640000",
                "code" : "0x6040600060406000600173100000000000000000000000000000000000000162055730f2600055",
                "nonce" : "0x00",
                "storage" : {
                    "0x00" : "0x01",
                    "0x01" : "0x01",
                    "0x014a" : "0x1000000000000000000000000000000000000000",
                    "0x014c" : "0xa94f5374fce5edbc8e2a8697c15331677e6ebf0b",
                    "0x0150" : "0x40",
                    "0x0152" : "0x26",
                    "0x0154" : "0x01",
                    "0x02" : "0x01",
                    "0x03" : "0x01",
                    "0x04" : "0x1000000000000000000000000000000000000000",
                    "0x07" : "0x03"
                }
            },
            "1000000000000000000000000000000000000001" : {
                "balance" : "0x0de0b6b3a7640000",
                "code" : "0x60406000604060006002731000000000000000000000000000000000000002620493e0f2600155",
                "nonce" : "0x00",
                "storage" : {
                }
            },
            "1000000000000000000000000000000000000002" : {
                "balance" : "0x0de0b6b3a7640000",
                "code" : "0x604060006040600060037310000000000000000000000000000000000000036203d090f2600255",
                "nonce" : "0x00",
                "storage" : {
                }
            },
            "1000000000000000000000000000000000000003" : {
                "balance" : "0x00",
                "code" : "0x600160035533600455346007553061014a553261014c55366101505538610152553a61015455",
                "nonce" : "0x00",
                "storage" : {
                }
            },
            "2adc25665018aa1fe0e6bc666dac8fc2697ff9ba" : {
                "balance" : "0x4563918244f804a3",
                "code" : "0x",
                "nonce" : "0x00",
                "storage" : {
                }
            },
            "a94f5374fce5edbc8e2a8697c15331677e6ebf0b" : {
                "balance" : "0x0de0b6b3a75ffb5d",
                "code" : "0x",
                "nonce" : "0x01",
                "storage" : {
                }
            }
        },
        "pre" : {
            "1000000000000000000000000000000000000000" : {
                "balance" : "0x0de0b6b3a7640000",
                "code" : "0x6040600060406000600173100000000000000000000000000000000000000162055730f2600055",
                "nonce" : "0x00",
                "storage" : {
                }
            },
            "1000000000000000000000000000000000000001" : {
                "balance" : "0x0de0b6b3a7640000",
                "code" : "0x60406000604060006002731000000000000000000000000000000000000002620493e0f2600155",
                "nonce" : "0x00",
                "storage" : {
                }
            },
            "1000000000000000000000000000000000000002" : {
                "balance" : "0x0de0b6b3a7640000",
                "code" : "0x604060006040600060037310000000000000000000000000000000000000036203d090f2600255",
                "nonce" : "0x00",
                "storage" : {
                }
            },
            "1000000000000000000000000000000000000003" : {
                "balance" : "0x00",
                "code" : "0x600160035533600455346007553061014a553261014c55366101505538610152553a61015455",
                "nonce" : "0x00",
                "storage" : {
                }
            },
            "a94f5374fce5edbc8e2a8697c15331677e6ebf0b" : {
                "balance" : "0x0de0b6b3a7640000",
                "code" : "0x",
                "nonce" : "0x00",
                "storage" : {
                }
            }
        }
    },
    "callcodecallcodecallcode_111_d0g0v0_EIP158" : {
        "blocks" : [
            {
                "blockHeader" : {
                    "bloom" : "00000000000000000000000000000000000000000000000000000000000000000000000000000000000000000000000000000000000000000000000000000000000000000000000000000000000000000000000000000000000000000000000000000000000000000000000000000000000000000000000000000000000000000000000000000000000000000000000000000000000000000000000000000000000000000000000000000000000000000000000000000000000000000000000000000000000000000000000000000000000000000000000000000000000000000000000000000000000000000000000000000000000000000000000000000000",
                    "coinbase" : "2adc25665018aa1fe0e6bc666dac8fc2697ff9ba",
                    "difficulty" : "0x020000",
                    "extraData" : "0x",
                    "gasLimit" : "0x01c95111",
                    "gasUsed" : "0x0404a3",
                    "hash" : "48568e84d1bd247e8b566e58d9d26f187da62782eb0d54b80b00ca7c7e0ee05b",
                    "mixHash" : "57add9a170c065d3e5a7aa00851a504df8b5ae8549c38075eb26179d3630468a",
                    "nonce" : "f4096cde8057c53b",
                    "number" : "0x01",
                    "parentHash" : "60e34c8ba309205b358c712ef92fc65cffee4c62b0973f486eb142669f29a869",
                    "receiptTrie" : "f3ec3f5da2a1e8e0b58252deb945accf7dd7c50cd34ff74a927f15f322ea8352",
                    "stateRoot" : "e0bbe7bee0a1dfd3c46a3066aae3b76525ab8a93e71627281d1989f1e89d1150",
                    "timestamp" : "0x5891d4e2",
                    "transactionsTrie" : "5d88595a2b9f129f2901f79a207ca2d95f38ac387707e6cb1de43679d06079d4",
                    "uncleHash" : "1dcc4de8dec75d7aab85b567b6ccd41ad312451b948a7413f0a142fd40d49347"
                },
                "rlp" : "0xf90263f901fba060e34c8ba309205b358c712ef92fc65cffee4c62b0973f486eb142669f29a869a01dcc4de8dec75d7aab85b567b6ccd41ad312451b948a7413f0a142fd40d49347942adc25665018aa1fe0e6bc666dac8fc2697ff9baa0e0bbe7bee0a1dfd3c46a3066aae3b76525ab8a93e71627281d1989f1e89d1150a05d88595a2b9f129f2901f79a207ca2d95f38ac387707e6cb1de43679d06079d4a0f3ec3f5da2a1e8e0b58252deb945accf7dd7c50cd34ff74a927f15f322ea8352b901000000000000000000000000000000000000000000000000000000000000000000000000000000000000000000000000000000000000000000000000000000000000000000000000000000000000000000000000000000000000000000000000000000000000000000000000000000000000000000000000000000000000000000000000000000000000000000000000000000000000000000000000000000000000000000000000000000000000000000000000000000000000000000000000000000000000000000000000000000000000000000000000000000000000000000000000000000000000000000000000000000000000000000000000000000000083020000018401c95111830404a3845891d4e280a057add9a170c065d3e5a7aa00851a504df8b5ae8549c38075eb26179d3630468a88f4096cde8057c53bf862f8608001832dc6c094100000000000000000000000000000000000000080801ba0bc3f717090c5b3d46550833ec05cc91a3c352bd18be2c0eed5ed3e54e8af58f9a03a7d01021289eca372726c91175e4f422da3147bd3961cd66ca95f1cf3619fb2c0",
                "transactions" : [
                    {
                        "data" : "0x",
                        "gasLimit" : "0x2dc6c0",
                        "gasPrice" : "0x01",
                        "nonce" : "0x00",
                        "r" : "0xbc3f717090c5b3d46550833ec05cc91a3c352bd18be2c0eed5ed3e54e8af58f9",
                        "s" : "0x3a7d01021289eca372726c91175e4f422da3147bd3961cd66ca95f1cf3619fb2",
                        "to" : "1000000000000000000000000000000000000000",
                        "v" : "0x1b",
                        "value" : "0x00"
                    }
                ],
                "uncleHeaders" : [
                ]
            }
        ],
        "genesisBlockHeader" : {
            "bloom" : "00000000000000000000000000000000000000000000000000000000000000000000000000000000000000000000000000000000000000000000000000000000000000000000000000000000000000000000000000000000000000000000000000000000000000000000000000000000000000000000000000000000000000000000000000000000000000000000000000000000000000000000000000000000000000000000000000000000000000000000000000000000000000000000000000000000000000000000000000000000000000000000000000000000000000000000000000000000000000000000000000000000000000000000000000000000",
            "coinbase" : "2adc25665018aa1fe0e6bc666dac8fc2697ff9ba",
            "difficulty" : "0x020000",
            "extraData" : "0x42",
            "gasLimit" : "0x01c9c380",
            "gasUsed" : "0x00",
            "hash" : "60e34c8ba309205b358c712ef92fc65cffee4c62b0973f486eb142669f29a869",
            "mixHash" : "56e81f171bcc55a6ff8345e692c0f86e5b48e01b996cadc001622fb5e363b421",
            "nonce" : "0102030405060708",
            "number" : "0x00",
            "parentHash" : "0000000000000000000000000000000000000000000000000000000000000000",
            "receiptTrie" : "56e81f171bcc55a6ff8345e692c0f86e5b48e01b996cadc001622fb5e363b421",
            "stateRoot" : "63c6978d3ab1a4f17965a6227d267e071753f752913e22b4a113e9af1bf64a15",
            "timestamp" : "0x54c98c81",
            "transactionsTrie" : "56e81f171bcc55a6ff8345e692c0f86e5b48e01b996cadc001622fb5e363b421",
            "uncleHash" : "1dcc4de8dec75d7aab85b567b6ccd41ad312451b948a7413f0a142fd40d49347"
        },
        "genesisRLP" : "0xf901fdf901f8a00000000000000000000000000000000000000000000000000000000000000000a01dcc4de8dec75d7aab85b567b6ccd41ad312451b948a7413f0a142fd40d49347942adc25665018aa1fe0e6bc666dac8fc2697ff9baa063c6978d3ab1a4f17965a6227d267e071753f752913e22b4a113e9af1bf64a15a056e81f171bcc55a6ff8345e692c0f86e5b48e01b996cadc001622fb5e363b421a056e81f171bcc55a6ff8345e692c0f86e5b48e01b996cadc001622fb5e363b421b901000000000000000000000000000000000000000000000000000000000000000000000000000000000000000000000000000000000000000000000000000000000000000000000000000000000000000000000000000000000000000000000000000000000000000000000000000000000000000000000000000000000000000000000000000000000000000000000000000000000000000000000000000000000000000000000000000000000000000000000000000000000000000000000000000000000000000000000000000000000000000000000000000000000000000000000000000000000000000000000000000000000000000000000000000000000083020000808401c9c380808454c98c8142a056e81f171bcc55a6ff8345e692c0f86e5b48e01b996cadc001622fb5e363b421880102030405060708c0c0",
        "lastblockhash" : "48568e84d1bd247e8b566e58d9d26f187da62782eb0d54b80b00ca7c7e0ee05b",
        "network" : "EIP158",
        "postState" : {
            "1000000000000000000000000000000000000000" : {
                "balance" : "0x0de0b6b3a7640000",
                "code" : "0x6040600060406000600173100000000000000000000000000000000000000162055730f2600055",
                "nonce" : "0x00",
                "storage" : {
                    "0x00" : "0x01",
                    "0x01" : "0x01",
                    "0x014a" : "0x1000000000000000000000000000000000000000",
                    "0x014c" : "0xa94f5374fce5edbc8e2a8697c15331677e6ebf0b",
                    "0x0150" : "0x40",
                    "0x0152" : "0x26",
                    "0x0154" : "0x01",
                    "0x02" : "0x01",
                    "0x03" : "0x01",
                    "0x04" : "0x1000000000000000000000000000000000000000",
                    "0x07" : "0x03"
                }
            },
            "1000000000000000000000000000000000000001" : {
                "balance" : "0x0de0b6b3a7640000",
                "code" : "0x60406000604060006002731000000000000000000000000000000000000002620493e0f2600155",
                "nonce" : "0x00",
                "storage" : {
                }
            },
            "1000000000000000000000000000000000000002" : {
                "balance" : "0x0de0b6b3a7640000",
                "code" : "0x604060006040600060037310000000000000000000000000000000000000036203d090f2600255",
                "nonce" : "0x00",
                "storage" : {
                }
            },
            "1000000000000000000000000000000000000003" : {
                "balance" : "0x00",
                "code" : "0x600160035533600455346007553061014a553261014c55366101505538610152553a61015455",
                "nonce" : "0x00",
                "storage" : {
                }
            },
            "2adc25665018aa1fe0e6bc666dac8fc2697ff9ba" : {
                "balance" : "0x4563918244f804a3",
                "code" : "0x",
                "nonce" : "0x00",
                "storage" : {
                }
            },
            "a94f5374fce5edbc8e2a8697c15331677e6ebf0b" : {
                "balance" : "0x0de0b6b3a75ffb5d",
                "code" : "0x",
                "nonce" : "0x01",
                "storage" : {
                }
            }
        },
        "pre" : {
            "1000000000000000000000000000000000000000" : {
                "balance" : "0x0de0b6b3a7640000",
                "code" : "0x6040600060406000600173100000000000000000000000000000000000000162055730f2600055",
                "nonce" : "0x00",
                "storage" : {
                }
            },
            "1000000000000000000000000000000000000001" : {
                "balance" : "0x0de0b6b3a7640000",
                "code" : "0x60406000604060006002731000000000000000000000000000000000000002620493e0f2600155",
                "nonce" : "0x00",
                "storage" : {
                }
            },
            "1000000000000000000000000000000000000002" : {
                "balance" : "0x0de0b6b3a7640000",
                "code" : "0x604060006040600060037310000000000000000000000000000000000000036203d090f2600255",
                "nonce" : "0x00",
                "storage" : {
                }
            },
            "1000000000000000000000000000000000000003" : {
                "balance" : "0x00",
                "code" : "0x600160035533600455346007553061014a553261014c55366101505538610152553a61015455",
                "nonce" : "0x00",
                "storage" : {
                }
            },
            "a94f5374fce5edbc8e2a8697c15331677e6ebf0b" : {
                "balance" : "0x0de0b6b3a7640000",
                "code" : "0x",
                "nonce" : "0x00",
                "storage" : {
                }
            }
        }
    },
    "callcodecallcodecallcode_111_d0g0v0_Frontier" : {
        "blocks" : [
            {
                "blockHeader" : {
                    "bloom" : "00000000000000000000000000000000000000000000000000000000000000000000000000000000000000000000000000000000000000000000000000000000000000000000000000000000000000000000000000000000000000000000000000000000000000000000000000000000000000000000000000000000000000000000000000000000000000000000000000000000000000000000000000000000000000000000000000000000000000000000000000000000000000000000000000000000000000000000000000000000000000000000000000000000000000000000000000000000000000000000000000000000000000000000000000000000",
                    "coinbase" : "2adc25665018aa1fe0e6bc666dac8fc2697ff9ba",
                    "difficulty" : "0x020000",
                    "extraData" : "0x",
                    "gasLimit" : "0x01c95111",
                    "gasUsed" : "0x03fce7",
                    "hash" : "83ace9bb8fe499587f36e08ad321c8501ec9622e079c35848a8c596e500a632a",
                    "mixHash" : "ef23c4699d4a7dc936d976f82f694891ef7ce0bc5991286ea4883109f6eb2df8",
                    "nonce" : "7251f2ac294a6c1e",
                    "number" : "0x01",
                    "parentHash" : "60e34c8ba309205b358c712ef92fc65cffee4c62b0973f486eb142669f29a869",
                    "receiptTrie" : "40117d8bcc0572f6af98ace01395dc51429170100ac1928a11866c0371f58eda",
                    "stateRoot" : "a492fac14f892ae18d8e7e41b7a804b324d58a53d92fa972be11b09b6374c0c4",
                    "timestamp" : "0x5891d4e4",
                    "transactionsTrie" : "5d88595a2b9f129f2901f79a207ca2d95f38ac387707e6cb1de43679d06079d4",
                    "uncleHash" : "1dcc4de8dec75d7aab85b567b6ccd41ad312451b948a7413f0a142fd40d49347"
                },
                "rlp" : "0xf90263f901fba060e34c8ba309205b358c712ef92fc65cffee4c62b0973f486eb142669f29a869a01dcc4de8dec75d7aab85b567b6ccd41ad312451b948a7413f0a142fd40d49347942adc25665018aa1fe0e6bc666dac8fc2697ff9baa0a492fac14f892ae18d8e7e41b7a804b324d58a53d92fa972be11b09b6374c0c4a05d88595a2b9f129f2901f79a207ca2d95f38ac387707e6cb1de43679d06079d4a040117d8bcc0572f6af98ace01395dc51429170100ac1928a11866c0371f58edab901000000000000000000000000000000000000000000000000000000000000000000000000000000000000000000000000000000000000000000000000000000000000000000000000000000000000000000000000000000000000000000000000000000000000000000000000000000000000000000000000000000000000000000000000000000000000000000000000000000000000000000000000000000000000000000000000000000000000000000000000000000000000000000000000000000000000000000000000000000000000000000000000000000000000000000000000000000000000000000000000000000000000000000000000000000000083020000018401c951118303fce7845891d4e480a0ef23c4699d4a7dc936d976f82f694891ef7ce0bc5991286ea4883109f6eb2df8887251f2ac294a6c1ef862f8608001832dc6c094100000000000000000000000000000000000000080801ba0bc3f717090c5b3d46550833ec05cc91a3c352bd18be2c0eed5ed3e54e8af58f9a03a7d01021289eca372726c91175e4f422da3147bd3961cd66ca95f1cf3619fb2c0",
                "transactions" : [
                    {
                        "data" : "0x",
                        "gasLimit" : "0x2dc6c0",
                        "gasPrice" : "0x01",
                        "nonce" : "0x00",
                        "r" : "0xbc3f717090c5b3d46550833ec05cc91a3c352bd18be2c0eed5ed3e54e8af58f9",
                        "s" : "0x3a7d01021289eca372726c91175e4f422da3147bd3961cd66ca95f1cf3619fb2",
                        "to" : "1000000000000000000000000000000000000000",
                        "v" : "0x1b",
                        "value" : "0x00"
                    }
                ],
                "uncleHeaders" : [
                ]
            }
        ],
        "genesisBlockHeader" : {
            "bloom" : "00000000000000000000000000000000000000000000000000000000000000000000000000000000000000000000000000000000000000000000000000000000000000000000000000000000000000000000000000000000000000000000000000000000000000000000000000000000000000000000000000000000000000000000000000000000000000000000000000000000000000000000000000000000000000000000000000000000000000000000000000000000000000000000000000000000000000000000000000000000000000000000000000000000000000000000000000000000000000000000000000000000000000000000000000000000",
            "coinbase" : "2adc25665018aa1fe0e6bc666dac8fc2697ff9ba",
            "difficulty" : "0x020000",
            "extraData" : "0x42",
            "gasLimit" : "0x01c9c380",
            "gasUsed" : "0x00",
            "hash" : "60e34c8ba309205b358c712ef92fc65cffee4c62b0973f486eb142669f29a869",
            "mixHash" : "56e81f171bcc55a6ff8345e692c0f86e5b48e01b996cadc001622fb5e363b421",
            "nonce" : "0102030405060708",
            "number" : "0x00",
            "parentHash" : "0000000000000000000000000000000000000000000000000000000000000000",
            "receiptTrie" : "56e81f171bcc55a6ff8345e692c0f86e5b48e01b996cadc001622fb5e363b421",
            "stateRoot" : "63c6978d3ab1a4f17965a6227d267e071753f752913e22b4a113e9af1bf64a15",
            "timestamp" : "0x54c98c81",
            "transactionsTrie" : "56e81f171bcc55a6ff8345e692c0f86e5b48e01b996cadc001622fb5e363b421",
            "uncleHash" : "1dcc4de8dec75d7aab85b567b6ccd41ad312451b948a7413f0a142fd40d49347"
        },
        "genesisRLP" : "0xf901fdf901f8a00000000000000000000000000000000000000000000000000000000000000000a01dcc4de8dec75d7aab85b567b6ccd41ad312451b948a7413f0a142fd40d49347942adc25665018aa1fe0e6bc666dac8fc2697ff9baa063c6978d3ab1a4f17965a6227d267e071753f752913e22b4a113e9af1bf64a15a056e81f171bcc55a6ff8345e692c0f86e5b48e01b996cadc001622fb5e363b421a056e81f171bcc55a6ff8345e692c0f86e5b48e01b996cadc001622fb5e363b421b901000000000000000000000000000000000000000000000000000000000000000000000000000000000000000000000000000000000000000000000000000000000000000000000000000000000000000000000000000000000000000000000000000000000000000000000000000000000000000000000000000000000000000000000000000000000000000000000000000000000000000000000000000000000000000000000000000000000000000000000000000000000000000000000000000000000000000000000000000000000000000000000000000000000000000000000000000000000000000000000000000000000000000000000000000000000083020000808401c9c380808454c98c8142a056e81f171bcc55a6ff8345e692c0f86e5b48e01b996cadc001622fb5e363b421880102030405060708c0c0",
        "lastblockhash" : "83ace9bb8fe499587f36e08ad321c8501ec9622e079c35848a8c596e500a632a",
        "network" : "Frontier",
        "postState" : {
            "1000000000000000000000000000000000000000" : {
                "balance" : "0x0de0b6b3a7640000",
                "code" : "0x6040600060406000600173100000000000000000000000000000000000000162055730f2600055",
                "nonce" : "0x00",
                "storage" : {
                    "0x00" : "0x01",
                    "0x01" : "0x01",
                    "0x014a" : "0x1000000000000000000000000000000000000000",
                    "0x014c" : "0xa94f5374fce5edbc8e2a8697c15331677e6ebf0b",
                    "0x0150" : "0x40",
                    "0x0152" : "0x26",
                    "0x0154" : "0x01",
                    "0x02" : "0x01",
                    "0x03" : "0x01",
                    "0x04" : "0x1000000000000000000000000000000000000000",
                    "0x07" : "0x03"
                }
            },
            "1000000000000000000000000000000000000001" : {
                "balance" : "0x0de0b6b3a7640000",
                "code" : "0x60406000604060006002731000000000000000000000000000000000000002620493e0f2600155",
                "nonce" : "0x00",
                "storage" : {
                }
            },
            "1000000000000000000000000000000000000002" : {
                "balance" : "0x0de0b6b3a7640000",
                "code" : "0x604060006040600060037310000000000000000000000000000000000000036203d090f2600255",
                "nonce" : "0x00",
                "storage" : {
                }
            },
            "1000000000000000000000000000000000000003" : {
                "balance" : "0x00",
                "code" : "0x600160035533600455346007553061014a553261014c55366101505538610152553a61015455",
                "nonce" : "0x00",
                "storage" : {
                }
            },
            "2adc25665018aa1fe0e6bc666dac8fc2697ff9ba" : {
                "balance" : "0x4563918244f7fce7",
                "code" : "0x",
                "nonce" : "0x00",
                "storage" : {
                }
            },
            "a94f5374fce5edbc8e2a8697c15331677e6ebf0b" : {
                "balance" : "0x0de0b6b3a7600319",
                "code" : "0x",
                "nonce" : "0x01",
                "storage" : {
                }
            }
        },
        "pre" : {
            "1000000000000000000000000000000000000000" : {
                "balance" : "0x0de0b6b3a7640000",
                "code" : "0x6040600060406000600173100000000000000000000000000000000000000162055730f2600055",
                "nonce" : "0x00",
                "storage" : {
                }
            },
            "1000000000000000000000000000000000000001" : {
                "balance" : "0x0de0b6b3a7640000",
                "code" : "0x60406000604060006002731000000000000000000000000000000000000002620493e0f2600155",
                "nonce" : "0x00",
                "storage" : {
                }
            },
            "1000000000000000000000000000000000000002" : {
                "balance" : "0x0de0b6b3a7640000",
                "code" : "0x604060006040600060037310000000000000000000000000000000000000036203d090f2600255",
                "nonce" : "0x00",
                "storage" : {
                }
            },
            "1000000000000000000000000000000000000003" : {
                "balance" : "0x00",
                "code" : "0x600160035533600455346007553061014a553261014c55366101505538610152553a61015455",
                "nonce" : "0x00",
                "storage" : {
                }
            },
            "a94f5374fce5edbc8e2a8697c15331677e6ebf0b" : {
                "balance" : "0x0de0b6b3a7640000",
                "code" : "0x",
                "nonce" : "0x00",
                "storage" : {
                }
            }
        }
    },
    "callcodecallcodecallcode_111_d0g0v0_Homestead" : {
        "blocks" : [
            {
                "blockHeader" : {
                    "bloom" : "00000000000000000000000000000000000000000000000000000000000000000000000000000000000000000000000000000000000000000000000000000000000000000000000000000000000000000000000000000000000000000000000000000000000000000000000000000000000000000000000000000000000000000000000000000000000000000000000000000000000000000000000000000000000000000000000000000000000000000000000000000000000000000000000000000000000000000000000000000000000000000000000000000000000000000000000000000000000000000000000000000000000000000000000000000000",
                    "coinbase" : "2adc25665018aa1fe0e6bc666dac8fc2697ff9ba",
                    "difficulty" : "0x020000",
                    "extraData" : "0x",
                    "gasLimit" : "0x01c95111",
                    "gasUsed" : "0x03fce7",
                    "hash" : "633ded88ad3e009480e06057cbacf41d614436f2e33bdf67691e4cbe41fbd95e",
                    "mixHash" : "be11bd51227c29765bdaa208b6ec43a0f368a6385f4dbc96ee6a5e9ada56d1df",
                    "nonce" : "d5ea939038169f33",
                    "number" : "0x01",
                    "parentHash" : "60e34c8ba309205b358c712ef92fc65cffee4c62b0973f486eb142669f29a869",
                    "receiptTrie" : "40117d8bcc0572f6af98ace01395dc51429170100ac1928a11866c0371f58eda",
                    "stateRoot" : "a492fac14f892ae18d8e7e41b7a804b324d58a53d92fa972be11b09b6374c0c4",
                    "timestamp" : "0x5891d4e6",
                    "transactionsTrie" : "5d88595a2b9f129f2901f79a207ca2d95f38ac387707e6cb1de43679d06079d4",
                    "uncleHash" : "1dcc4de8dec75d7aab85b567b6ccd41ad312451b948a7413f0a142fd40d49347"
                },
                "rlp" : "0xf90263f901fba060e34c8ba309205b358c712ef92fc65cffee4c62b0973f486eb142669f29a869a01dcc4de8dec75d7aab85b567b6ccd41ad312451b948a7413f0a142fd40d49347942adc25665018aa1fe0e6bc666dac8fc2697ff9baa0a492fac14f892ae18d8e7e41b7a804b324d58a53d92fa972be11b09b6374c0c4a05d88595a2b9f129f2901f79a207ca2d95f38ac387707e6cb1de43679d06079d4a040117d8bcc0572f6af98ace01395dc51429170100ac1928a11866c0371f58edab901000000000000000000000000000000000000000000000000000000000000000000000000000000000000000000000000000000000000000000000000000000000000000000000000000000000000000000000000000000000000000000000000000000000000000000000000000000000000000000000000000000000000000000000000000000000000000000000000000000000000000000000000000000000000000000000000000000000000000000000000000000000000000000000000000000000000000000000000000000000000000000000000000000000000000000000000000000000000000000000000000000000000000000000000000000000083020000018401c951118303fce7845891d4e680a0be11bd51227c29765bdaa208b6ec43a0f368a6385f4dbc96ee6a5e9ada56d1df88d5ea939038169f33f862f8608001832dc6c094100000000000000000000000000000000000000080801ba0bc3f717090c5b3d46550833ec05cc91a3c352bd18be2c0eed5ed3e54e8af58f9a03a7d01021289eca372726c91175e4f422da3147bd3961cd66ca95f1cf3619fb2c0",
                "transactions" : [
                    {
                        "data" : "0x",
                        "gasLimit" : "0x2dc6c0",
                        "gasPrice" : "0x01",
                        "nonce" : "0x00",
                        "r" : "0xbc3f717090c5b3d46550833ec05cc91a3c352bd18be2c0eed5ed3e54e8af58f9",
                        "s" : "0x3a7d01021289eca372726c91175e4f422da3147bd3961cd66ca95f1cf3619fb2",
                        "to" : "1000000000000000000000000000000000000000",
                        "v" : "0x1b",
                        "value" : "0x00"
                    }
                ],
                "uncleHeaders" : [
                ]
            }
        ],
        "genesisBlockHeader" : {
            "bloom" : "00000000000000000000000000000000000000000000000000000000000000000000000000000000000000000000000000000000000000000000000000000000000000000000000000000000000000000000000000000000000000000000000000000000000000000000000000000000000000000000000000000000000000000000000000000000000000000000000000000000000000000000000000000000000000000000000000000000000000000000000000000000000000000000000000000000000000000000000000000000000000000000000000000000000000000000000000000000000000000000000000000000000000000000000000000000",
            "coinbase" : "2adc25665018aa1fe0e6bc666dac8fc2697ff9ba",
            "difficulty" : "0x020000",
            "extraData" : "0x42",
            "gasLimit" : "0x01c9c380",
            "gasUsed" : "0x00",
            "hash" : "60e34c8ba309205b358c712ef92fc65cffee4c62b0973f486eb142669f29a869",
            "mixHash" : "56e81f171bcc55a6ff8345e692c0f86e5b48e01b996cadc001622fb5e363b421",
            "nonce" : "0102030405060708",
            "number" : "0x00",
            "parentHash" : "0000000000000000000000000000000000000000000000000000000000000000",
            "receiptTrie" : "56e81f171bcc55a6ff8345e692c0f86e5b48e01b996cadc001622fb5e363b421",
            "stateRoot" : "63c6978d3ab1a4f17965a6227d267e071753f752913e22b4a113e9af1bf64a15",
            "timestamp" : "0x54c98c81",
            "transactionsTrie" : "56e81f171bcc55a6ff8345e692c0f86e5b48e01b996cadc001622fb5e363b421",
            "uncleHash" : "1dcc4de8dec75d7aab85b567b6ccd41ad312451b948a7413f0a142fd40d49347"
        },
        "genesisRLP" : "0xf901fdf901f8a00000000000000000000000000000000000000000000000000000000000000000a01dcc4de8dec75d7aab85b567b6ccd41ad312451b948a7413f0a142fd40d49347942adc25665018aa1fe0e6bc666dac8fc2697ff9baa063c6978d3ab1a4f17965a6227d267e071753f752913e22b4a113e9af1bf64a15a056e81f171bcc55a6ff8345e692c0f86e5b48e01b996cadc001622fb5e363b421a056e81f171bcc55a6ff8345e692c0f86e5b48e01b996cadc001622fb5e363b421b901000000000000000000000000000000000000000000000000000000000000000000000000000000000000000000000000000000000000000000000000000000000000000000000000000000000000000000000000000000000000000000000000000000000000000000000000000000000000000000000000000000000000000000000000000000000000000000000000000000000000000000000000000000000000000000000000000000000000000000000000000000000000000000000000000000000000000000000000000000000000000000000000000000000000000000000000000000000000000000000000000000000000000000000000000000000083020000808401c9c380808454c98c8142a056e81f171bcc55a6ff8345e692c0f86e5b48e01b996cadc001622fb5e363b421880102030405060708c0c0",
        "lastblockhash" : "633ded88ad3e009480e06057cbacf41d614436f2e33bdf67691e4cbe41fbd95e",
        "network" : "Homestead",
        "postState" : {
            "1000000000000000000000000000000000000000" : {
                "balance" : "0x0de0b6b3a7640000",
                "code" : "0x6040600060406000600173100000000000000000000000000000000000000162055730f2600055",
                "nonce" : "0x00",
                "storage" : {
                    "0x00" : "0x01",
                    "0x01" : "0x01",
                    "0x014a" : "0x1000000000000000000000000000000000000000",
                    "0x014c" : "0xa94f5374fce5edbc8e2a8697c15331677e6ebf0b",
                    "0x0150" : "0x40",
                    "0x0152" : "0x26",
                    "0x0154" : "0x01",
                    "0x02" : "0x01",
                    "0x03" : "0x01",
                    "0x04" : "0x1000000000000000000000000000000000000000",
                    "0x07" : "0x03"
                }
            },
            "1000000000000000000000000000000000000001" : {
                "balance" : "0x0de0b6b3a7640000",
                "code" : "0x60406000604060006002731000000000000000000000000000000000000002620493e0f2600155",
                "nonce" : "0x00",
                "storage" : {
                }
            },
            "1000000000000000000000000000000000000002" : {
                "balance" : "0x0de0b6b3a7640000",
                "code" : "0x604060006040600060037310000000000000000000000000000000000000036203d090f2600255",
                "nonce" : "0x00",
                "storage" : {
                }
            },
            "1000000000000000000000000000000000000003" : {
                "balance" : "0x00",
                "code" : "0x600160035533600455346007553061014a553261014c55366101505538610152553a61015455",
                "nonce" : "0x00",
                "storage" : {
                }
            },
            "2adc25665018aa1fe0e6bc666dac8fc2697ff9ba" : {
                "balance" : "0x4563918244f7fce7",
                "code" : "0x",
                "nonce" : "0x00",
                "storage" : {
                }
            },
            "a94f5374fce5edbc8e2a8697c15331677e6ebf0b" : {
                "balance" : "0x0de0b6b3a7600319",
                "code" : "0x",
                "nonce" : "0x01",
                "storage" : {
                }
            }
        },
        "pre" : {
            "1000000000000000000000000000000000000000" : {
                "balance" : "0x0de0b6b3a7640000",
                "code" : "0x6040600060406000600173100000000000000000000000000000000000000162055730f2600055",
                "nonce" : "0x00",
                "storage" : {
                }
            },
            "1000000000000000000000000000000000000001" : {
                "balance" : "0x0de0b6b3a7640000",
                "code" : "0x60406000604060006002731000000000000000000000000000000000000002620493e0f2600155",
                "nonce" : "0x00",
                "storage" : {
                }
            },
            "1000000000000000000000000000000000000002" : {
                "balance" : "0x0de0b6b3a7640000",
                "code" : "0x604060006040600060037310000000000000000000000000000000000000036203d090f2600255",
                "nonce" : "0x00",
                "storage" : {
                }
            },
            "1000000000000000000000000000000000000003" : {
                "balance" : "0x00",
                "code" : "0x600160035533600455346007553061014a553261014c55366101505538610152553a61015455",
                "nonce" : "0x00",
                "storage" : {
                }
            },
            "a94f5374fce5edbc8e2a8697c15331677e6ebf0b" : {
                "balance" : "0x0de0b6b3a7640000",
                "code" : "0x",
                "nonce" : "0x00",
                "storage" : {
                }
            }
        }
    }
}