{
    "RJUMPV_MaxOffset_d0g0v0_Cancun" : {
        "_info" : {
            "comment" : "",
            "filling-rpc-server" : "evmone-t8n 0.10.0-dev",
            "filling-tool-version" : "retesteth-0.3.1-shanghai+commit.e3504804.Linux.g++",
            "generatedTestHash" : "a13316edd95f561806b03ed554da767752539b7afe7f6da7f576248b45de80f4",
            "lllcversion" : "Version: 0.5.14-develop.2022.4.6+commit.401d5358.Linux.g++",
            "solidity" : "Version: 0.8.18-develop.2023.1.16+commit.469d6d4d.Linux.g++",
            "source" : "src/EIPTestsFiller/StateTests/stEOF/stEIP4200/RJUMPV_MaxOffsetFiller.yml",
            "sourceHash" : "6db22c0dd8e64b3d506d284a7e4e18d320c072f83c89bd70b6b17c972e6e22c5"
        },
        "blocks" : [
            {
                "blockHeader" : {
                    "baseFeePerGas" : "0x0a",
                    "bloom" : "0x00000000000000000000000000000000000000000000000000000000000000000000000000000000000000000000000000000000000000000000000000000000000000000000000000000000000000000000000000000000000000000000000000000000000000000000000000000000000000000000000000000000000000000000000000000000000000000000000000000000000000000000000000000000000000000000000000000000000000000000000000000000000000000000000000000000000000000000000000000000000000000000000000000000000000000000000000000000000000000000000000000000000000000000000000000000",
                    "coinbase" : "0x2adc25665018aa1fe0e6bc666dac8fc2697ff9ba",
                    "difficulty" : "0x00",
                    "extraData" : "0x00",
                    "gasLimit" : "0x05500000",
                    "gasUsed" : "0x03180f",
                    "hash" : "0xe16e343e9c6371793e7c73cbb4056bdbabb1f308e3cf1b08a55169c8f8e700f0",
                    "mixHash" : "0x0000000000000000000000000000000000000000000000000000000000020000",
                    "nonce" : "0x0000000000000000",
                    "number" : "0x01",
                    "parentHash" : "0x915865b4be3827176c0140a8c040043b90c3879d1cef12d6cd61e94213c38a62",
                    "receiptTrie" : "0xe8365f35f5464b02128a65c3aaff6cf26a4099ca2620b0a148d24232ef4cef36",
                    "stateRoot" : "0x73bbca5478de485602d88a03c0d66b5fc1aa555c3d4a966387a02ae5f57d60d7",
                    "timestamp" : "0x03e8",
                    "transactionsTrie" : "0x9dd289e39c0f3c60bacc63eec0e84d263b70642c46c5733938be86ff9350b308",
                    "uncleHash" : "0x1dcc4de8dec75d7aab85b567b6ccd41ad312451b948a7413f0a142fd40d49347",
                    "withdrawalsRoot" : "0x56e81f171bcc55a6ff8345e692c0f86e5b48e01b996cadc001622fb5e363b421"
                },
                "rlp" : "0xf90281f90218a0915865b4be3827176c0140a8c040043b90c3879d1cef12d6cd61e94213c38a62a01dcc4de8dec75d7aab85b567b6ccd41ad312451b948a7413f0a142fd40d49347942adc25665018aa1fe0e6bc666dac8fc2697ff9baa073bbca5478de485602d88a03c0d66b5fc1aa555c3d4a966387a02ae5f57d60d7a09dd289e39c0f3c60bacc63eec0e84d263b70642c46c5733938be86ff9350b308a0e8365f35f5464b02128a65c3aaff6cf26a4099ca2620b0a148d24232ef4cef36b9010000000000000000000000000000000000000000000000000000000000000000000000000000000000000000000000000000000000000000000000000000000000000000000000000000000000000000000000000000000000000000000000000000000000000000000000000000000000000000000000000000000000000000000000000000000000000000000000000000000000000000000000000000000000000000000000000000000000000000000000000000000000000000000000000000000000000000000000000000000000000000000000000000000000000000000000000000000000000000000000000000000000000000000000000000000000800184055000008303180f8203e800a000000000000000000000000000000000000000000000000000000000000200008800000000000000000aa056e81f171bcc55a6ff8345e692c0f86e5b48e01b996cadc001622fb5e363b421f862f860800a83e4e1c094b94f5374fce5edbc8e2a8697c15331677e6ebf0b80801ba07c94e62687323becbaa8b3ceac9a4bac4eda2836456f8a4cc3965b597752eddaa05701b7e30347eb8405502fa12388189aa244a0671c959026f636b4d4e06dbd9fc0c0",
                "transactions" : [
                    {
                        "data" : "0x",
                        "gasLimit" : "0xe4e1c0",
                        "gasPrice" : "0x0a",
                        "nonce" : "0x00",
                        "r" : "0x7c94e62687323becbaa8b3ceac9a4bac4eda2836456f8a4cc3965b597752edda",
                        "s" : "0x5701b7e30347eb8405502fa12388189aa244a0671c959026f636b4d4e06dbd9f",
                        "sender" : "0xa94f5374fce5edbc8e2a8697c15331677e6ebf0b",
                        "to" : "0xb94f5374fce5edbc8e2a8697c15331677e6ebf0b",
                        "v" : "0x1b",
                        "value" : "0x00"
                    }
                ],
                "uncleHeaders" : [
                ],
                "withdrawals" : [
                ]
            }
        ],
        "genesisBlockHeader" : {
            "baseFeePerGas" : "0x0b",
            "bloom" : "0x00000000000000000000000000000000000000000000000000000000000000000000000000000000000000000000000000000000000000000000000000000000000000000000000000000000000000000000000000000000000000000000000000000000000000000000000000000000000000000000000000000000000000000000000000000000000000000000000000000000000000000000000000000000000000000000000000000000000000000000000000000000000000000000000000000000000000000000000000000000000000000000000000000000000000000000000000000000000000000000000000000000000000000000000000000000",
            "coinbase" : "0x2adc25665018aa1fe0e6bc666dac8fc2697ff9ba",
            "difficulty" : "0x00",
            "extraData" : "0x00",
            "gasLimit" : "0x05500000",
            "gasUsed" : "0x00",
            "hash" : "0x915865b4be3827176c0140a8c040043b90c3879d1cef12d6cd61e94213c38a62",
            "mixHash" : "0x0000000000000000000000000000000000000000000000000000000000020000",
            "nonce" : "0x0000000000000000",
            "number" : "0x00",
            "parentHash" : "0x0000000000000000000000000000000000000000000000000000000000000000",
            "receiptTrie" : "0x56e81f171bcc55a6ff8345e692c0f86e5b48e01b996cadc001622fb5e363b421",
            "stateRoot" : "0xb7ef9aa41d5b30a544fee0abeacb54be086a12d1b8b1ff44155ea1fa1de90b19",
            "timestamp" : "0x00",
            "transactionsTrie" : "0x56e81f171bcc55a6ff8345e692c0f86e5b48e01b996cadc001622fb5e363b421",
            "uncleHash" : "0x1dcc4de8dec75d7aab85b567b6ccd41ad312451b948a7413f0a142fd40d49347",
            "withdrawalsRoot" : "0x56e81f171bcc55a6ff8345e692c0f86e5b48e01b996cadc001622fb5e363b421"
        },
        "genesisRLP" : "0xf90219f90213a00000000000000000000000000000000000000000000000000000000000000000a01dcc4de8dec75d7aab85b567b6ccd41ad312451b948a7413f0a142fd40d49347942adc25665018aa1fe0e6bc666dac8fc2697ff9baa0b7ef9aa41d5b30a544fee0abeacb54be086a12d1b8b1ff44155ea1fa1de90b19a056e81f171bcc55a6ff8345e692c0f86e5b48e01b996cadc001622fb5e363b421a056e81f171bcc55a6ff8345e692c0f86e5b48e01b996cadc001622fb5e363b421b901000000000000000000000000000000000000000000000000000000000000000000000000000000000000000000000000000000000000000000000000000000000000000000000000000000000000000000000000000000000000000000000000000000000000000000000000000000000000000000000000000000000000000000000000000000000000000000000000000000000000000000000000000000000000000000000000000000000000000000000000000000000000000000000000000000000000000000000000000000000000000000000000000000000000000000000000000000000000000000000000000000000000000000000000000000000080808405500000808000a000000000000000000000000000000000000000000000000000000000000200008800000000000000000ba056e81f171bcc55a6ff8345e692c0f86e5b48e01b996cadc001622fb5e363b421c0c0c0",
        "lastblockhash" : "0xe16e343e9c6371793e7c73cbb4056bdbabb1f308e3cf1b08a55169c8f8e700f0",
        "network" : "Cancun",
        "postState" : {
            "0xa94f5374fce5edbc8e2a8697c15331677e6ebf0b" : {
                "balance" : "0x0bccd16a",
                "code" : "0x",
                "nonce" : "0x01",
                "storage" : {
                }
            },
            "0xb94f5374fce5edbc8e2a8697c15331677e6ebf0b" : {
                "balance" : "0x00",
                "code" : "0x7fef0001010004020001802f03000000000000020000000000000000000000000060005260137f60015e017fff0000000000000000000000000000000000000000000000000000815260068101905061800081015b808210156088577f5b5b5b5b5b5b5b5b5b5b5b5b5b5b5b5b5b5b5b5b5b5b5b5b5b5b5b5b5b5b5b5b82526020820191506054565b507f7fef000101000402000100010300000000000000fe000000000000000000000081526020810190507e60005260146000f30000000000000000000000000000000000000000000000815260098101905080600080f06000556001805550",
                "nonce" : "0x01",
                "storage" : {
                    "0x00" : "0xf1ecf98489fa9ed60a664fc4998db699cfa39d40",
                    "0x01" : "0x01"
                }
            },
            "0xf1ecf98489fa9ed60a664fc4998db699cfa39d40" : {
                "balance" : "0x00",
                "code" : "0xef000101000402000100010300000000000000fe",
                "nonce" : "0x01",
                "storage" : {
                }
            }
        },
        "pre" : {
            "0xa94f5374fce5edbc8e2a8697c15331677e6ebf0b" : {
                "balance" : "0x0bebc200",
                "code" : "0x",
                "nonce" : "0x00",
                "storage" : {
                }
            },
            "0xb94f5374fce5edbc8e2a8697c15331677e6ebf0b" : {
                "balance" : "0x00",
                "code" : "0x7fef0001010004020001802f03000000000000020000000000000000000000000060005260137f60015e017fff0000000000000000000000000000000000000000000000000000815260068101905061800081015b808210156088577f5b5b5b5b5b5b5b5b5b5b5b5b5b5b5b5b5b5b5b5b5b5b5b5b5b5b5b5b5b5b5b5b82526020820191506054565b507f7fef000101000402000100010300000000000000fe000000000000000000000081526020810190507e60005260146000f30000000000000000000000000000000000000000000000815260098101905080600080f06000556001805550",
                "nonce" : "0x00",
                "storage" : {
                }
            }
        },
        "sealEngine" : "NoProof"
    }
}