{
    "lowGasPriceOldTypes_d0g0v0_Cancun" : {
        "_info" : {
            "comment" : "Ori Pomerantz qbzzt1@gmail.com",
            "filling-rpc-server" : "evm version 1.14.4-unstable-3d8028a6-20240513",
            "filling-tool-version" : "retesteth-0.3.2-cancun+commit.cae6bc33.Linux.g++",
            "generatedTestHash" : "6232dc4327b4cc55da91c0a65067cf16e7e012d6fa079438e18f07c45cb23e5e",
            "lllcversion" : "Version: 0.5.14-develop.2023.7.11+commit.c58ab2c6.mod.Linux.g++",
            "solidity" : "Version: 0.8.21+commit.d9974bed.Linux.g++",
            "source" : "src/GeneralStateTestsFiller/stEIP1559/lowGasPriceOldTypesFiller.yml",
            "sourceHash" : "53519fae67a30b6f1b52228936bb21830ad06a3978a548020311575fb113927d"
        },
        "blocks" : [
            {
                "expectException" : "TransactionException.INSUFFICIENT_MAX_FEE_PER_GAS",
                "rlp" : "0xf902abf9023da083fb27c2bcb23b46cb26b278604e5fc81819a4192c7d0a7cadc864904f5230e5a01dcc4de8dec75d7aab85b567b6ccd41ad312451b948a7413f0a142fd40d49347942adc25665018aa1fe0e6bc666dac8fc2697ff9baa0580c94292d42b6eb500be91792f96075ed484c72bfe09fed10e64c505a0f1178a056e81f171bcc55a6ff8345e692c0f86e5b48e01b996cadc001622fb5e363b421a056e81f171bcc55a6ff8345e692c0f86e5b48e01b996cadc001622fb5e363b421b9010000000000000000000000000000000000000000000000000000000000000000000000000000000000000000000000000000000000000000000000000000000000000000000000000000000000000000000000000000000000000000000000000000000000000000000000000000000000000000000000000000000000000000000000000000000000000000000000000000000000000000000000000000000000000000000000000000000000000000000000000000000000000000000000000000000000000000000000000000000000000000000000000000000000000000000000000000000000000000000000000000000000000000000000000000000000800187ff112233445566808203e800a000000000000000000000000000000000000000000000000000000000000200008800000000000000008203e8a056e81f171bcc55a6ff8345e692c0f86e5b48e01b996cadc001622fb5e363b4218080a00000000000000000000000000000000000000000000000000000000000000000f867f865018203e783061a8094cccccccccccccccccccccccccccccccccccccccc830186a0001ca0d774d2b0990371752a5b348c246e7004a8561a924c5034e7c9d2fd32b4f2c39da00ef3f0e7e5b602fa987064056f13ed48f573cfbbe5128c7a54e51ab5f0c0f4c7c0c0",
                "rlp_decoded" : {
                    "blockHeader" : {
                        "baseFeePerGas" : "0x03e8",
                        "blobGasUsed" : "0x00",
                        "bloom" : "0x00000000000000000000000000000000000000000000000000000000000000000000000000000000000000000000000000000000000000000000000000000000000000000000000000000000000000000000000000000000000000000000000000000000000000000000000000000000000000000000000000000000000000000000000000000000000000000000000000000000000000000000000000000000000000000000000000000000000000000000000000000000000000000000000000000000000000000000000000000000000000000000000000000000000000000000000000000000000000000000000000000000000000000000000000000000",
                        "coinbase" : "0x2adc25665018aa1fe0e6bc666dac8fc2697ff9ba",
                        "difficulty" : "0x00",
                        "excessBlobGas" : "0x00",
                        "extraData" : "0x00",
                        "gasLimit" : "0xff112233445566",
                        "gasUsed" : "0x00",
                        "hash" : "0xe17bfbd2b61f54b4fd634824bcba28b31ea6c05aa389cc5c1ea7f7aefc9662a3",
                        "mixHash" : "0x0000000000000000000000000000000000000000000000000000000000020000",
                        "nonce" : "0x0000000000000000",
                        "number" : "0x01",
                        "parentBeaconBlockRoot" : "0x0000000000000000000000000000000000000000000000000000000000000000",
                        "parentHash" : "0x83fb27c2bcb23b46cb26b278604e5fc81819a4192c7d0a7cadc864904f5230e5",
                        "receiptTrie" : "0x56e81f171bcc55a6ff8345e692c0f86e5b48e01b996cadc001622fb5e363b421",
                        "stateRoot" : "0x580c94292d42b6eb500be91792f96075ed484c72bfe09fed10e64c505a0f1178",
                        "timestamp" : "0x03e8",
                        "transactionsTrie" : "0x56e81f171bcc55a6ff8345e692c0f86e5b48e01b996cadc001622fb5e363b421",
                        "uncleHash" : "0x1dcc4de8dec75d7aab85b567b6ccd41ad312451b948a7413f0a142fd40d49347",
                        "withdrawalsRoot" : "0x56e81f171bcc55a6ff8345e692c0f86e5b48e01b996cadc001622fb5e363b421"
                    },
                    "transactions" : [
                        {
                            "data" : "0x00",
                            "gasLimit" : "0x061a80",
                            "gasPrice" : "0x03e7",
                            "nonce" : "0x01",
                            "r" : "0xd774d2b0990371752a5b348c246e7004a8561a924c5034e7c9d2fd32b4f2c39d",
                            "s" : "0x0ef3f0e7e5b602fa987064056f13ed48f573cfbbe5128c7a54e51ab5f0c0f4c7",
                            "to" : "0xcccccccccccccccccccccccccccccccccccccccc",
                            "v" : "0x1c",
                            "value" : "0x0186a0"
                        }
                    ],
                    "uncleHeaders" : [
                    ],
                    "withdrawals" : [
                    ]
                },
                "transactionSequence" : [
                    {
                        "exception" : "TransactionException.INSUFFICIENT_MAX_FEE_PER_GAS",
                        "rawBytes" : "0xf865018203e783061a8094cccccccccccccccccccccccccccccccccccccccc830186a0001ca0d774d2b0990371752a5b348c246e7004a8561a924c5034e7c9d2fd32b4f2c39da00ef3f0e7e5b602fa987064056f13ed48f573cfbbe5128c7a54e51ab5f0c0f4c7",
                        "valid" : "false"
                    }
                ]
            }
        ],
        "genesisBlockHeader" : {
            "baseFeePerGas" : "0x0476",
            "blobGasUsed" : "0x00",
            "bloom" : "0x00000000000000000000000000000000000000000000000000000000000000000000000000000000000000000000000000000000000000000000000000000000000000000000000000000000000000000000000000000000000000000000000000000000000000000000000000000000000000000000000000000000000000000000000000000000000000000000000000000000000000000000000000000000000000000000000000000000000000000000000000000000000000000000000000000000000000000000000000000000000000000000000000000000000000000000000000000000000000000000000000000000000000000000000000000000",
            "coinbase" : "0x2adc25665018aa1fe0e6bc666dac8fc2697ff9ba",
            "difficulty" : "0x00",
            "excessBlobGas" : "0x060000",
            "extraData" : "0x00",
            "gasLimit" : "0xff112233445566",
            "gasUsed" : "0x00",
            "hash" : "0x83fb27c2bcb23b46cb26b278604e5fc81819a4192c7d0a7cadc864904f5230e5",
            "mixHash" : "0x0000000000000000000000000000000000000000000000000000000000020000",
            "nonce" : "0x0000000000000000",
            "number" : "0x00",
            "parentBeaconBlockRoot" : "0x0000000000000000000000000000000000000000000000000000000000000000",
            "parentHash" : "0x0000000000000000000000000000000000000000000000000000000000000000",
            "receiptTrie" : "0x56e81f171bcc55a6ff8345e692c0f86e5b48e01b996cadc001622fb5e363b421",
            "stateRoot" : "0xb7d1104782d1787ab40414a216f2166ded929a65ed4dd2da4993ea2a0a24b1d6",
            "timestamp" : "0x00",
            "transactionsTrie" : "0x56e81f171bcc55a6ff8345e692c0f86e5b48e01b996cadc001622fb5e363b421",
            "uncleHash" : "0x1dcc4de8dec75d7aab85b567b6ccd41ad312451b948a7413f0a142fd40d49347",
            "withdrawalsRoot" : "0x56e81f171bcc55a6ff8345e692c0f86e5b48e01b996cadc001622fb5e363b421"
        },
        "genesisRLP" : "0xf90244f9023ea00000000000000000000000000000000000000000000000000000000000000000a01dcc4de8dec75d7aab85b567b6ccd41ad312451b948a7413f0a142fd40d49347942adc25665018aa1fe0e6bc666dac8fc2697ff9baa0b7d1104782d1787ab40414a216f2166ded929a65ed4dd2da4993ea2a0a24b1d6a056e81f171bcc55a6ff8345e692c0f86e5b48e01b996cadc001622fb5e363b421a056e81f171bcc55a6ff8345e692c0f86e5b48e01b996cadc001622fb5e363b421b9010000000000000000000000000000000000000000000000000000000000000000000000000000000000000000000000000000000000000000000000000000000000000000000000000000000000000000000000000000000000000000000000000000000000000000000000000000000000000000000000000000000000000000000000000000000000000000000000000000000000000000000000000000000000000000000000000000000000000000000000000000000000000000000000000000000000000000000000000000000000000000000000000000000000000000000000000000000000000000000000000000000000000000000000000000000000808087ff112233445566808000a00000000000000000000000000000000000000000000000000000000000020000880000000000000000820476a056e81f171bcc55a6ff8345e692c0f86e5b48e01b996cadc001622fb5e363b4218083060000a00000000000000000000000000000000000000000000000000000000000000000c0c0c0",
        "lastblockhash" : "0x83fb27c2bcb23b46cb26b278604e5fc81819a4192c7d0a7cadc864904f5230e5",
        "network" : "Cancun",
        "postState" : {
            "0x000f3df6d732807ef1319fb7b8bb8522d0beac02" : {
                "balance" : "0x00",
                "code" : "0x3373fffffffffffffffffffffffffffffffffffffffe14604d57602036146024575f5ffd5b5f35801560495762001fff810690815414603c575f5ffd5b62001fff01545f5260205ff35b5f5ffd5b62001fff42064281555f359062001fff015500",
                "nonce" : "0x01",
                "storage" : {
                }
            },
            "0xa94f5374fce5edbc8e2a8697c15331677e6ebf0b" : {
                "balance" : "0x0de0b6b3a7640000",
                "code" : "0x",
                "nonce" : "0x01",
                "storage" : {
                }
            },
            "0xcccccccccccccccccccccccccccccccccccccccc" : {
                "balance" : "0x0de0b6b3a7640000",
                "code" : "0x600260005500",
                "nonce" : "0x00",
                "storage" : {
                }
            }
        },
        "pre" : {
            "0x000f3df6d732807ef1319fb7b8bb8522d0beac02" : {
                "balance" : "0x00",
                "code" : "0x3373fffffffffffffffffffffffffffffffffffffffe14604d57602036146024575f5ffd5b5f35801560495762001fff810690815414603c575f5ffd5b62001fff01545f5260205ff35b5f5ffd5b62001fff42064281555f359062001fff015500",
                "nonce" : "0x01",
                "storage" : {
                }
            },
            "0xa94f5374fce5edbc8e2a8697c15331677e6ebf0b" : {
                "balance" : "0x0de0b6b3a7640000",
                "code" : "0x",
                "nonce" : "0x01",
                "storage" : {
                }
            },
            "0xcccccccccccccccccccccccccccccccccccccccc" : {
                "balance" : "0x0de0b6b3a7640000",
                "code" : "0x600260005500",
                "nonce" : "0x00",
                "storage" : {
                }
            }
        },
        "sealEngine" : "NoProof"
    },
    "lowGasPriceOldTypes_d1g0v0_Cancun" : {
        "_info" : {
            "comment" : "Ori Pomerantz qbzzt1@gmail.com",
            "filling-rpc-server" : "evm version 1.14.4-unstable-3d8028a6-20240513",
            "filling-tool-version" : "retesteth-0.3.2-cancun+commit.cae6bc33.Linux.g++",
            "generatedTestHash" : "9550f38aec7437c1bf3b88631dd7908f8fe4f4c33b7cbe8f55082c3c603cee0a",
            "lllcversion" : "Version: 0.5.14-develop.2023.7.11+commit.c58ab2c6.mod.Linux.g++",
            "solidity" : "Version: 0.8.21+commit.d9974bed.Linux.g++",
            "source" : "src/GeneralStateTestsFiller/stEIP1559/lowGasPriceOldTypesFiller.yml",
            "sourceHash" : "53519fae67a30b6f1b52228936bb21830ad06a3978a548020311575fb113927d"
        },
        "blocks" : [
            {
                "expectException" : "TransactionException.INSUFFICIENT_MAX_FEE_PER_GAS",
                "rlp" : "0xf902b0f9023da083fb27c2bcb23b46cb26b278604e5fc81819a4192c7d0a7cadc864904f5230e5a01dcc4de8dec75d7aab85b567b6ccd41ad312451b948a7413f0a142fd40d49347942adc25665018aa1fe0e6bc666dac8fc2697ff9baa0580c94292d42b6eb500be91792f96075ed484c72bfe09fed10e64c505a0f1178a056e81f171bcc55a6ff8345e692c0f86e5b48e01b996cadc001622fb5e363b421a056e81f171bcc55a6ff8345e692c0f86e5b48e01b996cadc001622fb5e363b421b9010000000000000000000000000000000000000000000000000000000000000000000000000000000000000000000000000000000000000000000000000000000000000000000000000000000000000000000000000000000000000000000000000000000000000000000000000000000000000000000000000000000000000000000000000000000000000000000000000000000000000000000000000000000000000000000000000000000000000000000000000000000000000000000000000000000000000000000000000000000000000000000000000000000000000000000000000000000000000000000000000000000000000000000000000000000000800187ff112233445566808203e800a000000000000000000000000000000000000000000000000000000000000200008800000000000000008203e8a056e81f171bcc55a6ff8345e692c0f86e5b48e01b996cadc001622fb5e363b4218080a00000000000000000000000000000000000000000000000000000000000000000f86cb86a01f86701018203e783061a8094cccccccccccccccccccccccccccccccccccccccc830186a001c080a071d41e66f218b09ba0bf90491584fc8a63ec62078c5e86f964456146e5fc3b8ba06757f546fdd4d4505be1e5373174f7d5706f5f5fcf8e89ca8663767a16cd682cc0c0",
                "rlp_decoded" : {
                    "blockHeader" : {
                        "baseFeePerGas" : "0x03e8",
                        "blobGasUsed" : "0x00",
                        "bloom" : "0x00000000000000000000000000000000000000000000000000000000000000000000000000000000000000000000000000000000000000000000000000000000000000000000000000000000000000000000000000000000000000000000000000000000000000000000000000000000000000000000000000000000000000000000000000000000000000000000000000000000000000000000000000000000000000000000000000000000000000000000000000000000000000000000000000000000000000000000000000000000000000000000000000000000000000000000000000000000000000000000000000000000000000000000000000000000",
                        "coinbase" : "0x2adc25665018aa1fe0e6bc666dac8fc2697ff9ba",
                        "difficulty" : "0x00",
                        "excessBlobGas" : "0x00",
                        "extraData" : "0x00",
                        "gasLimit" : "0xff112233445566",
                        "gasUsed" : "0x00",
                        "hash" : "0xe17bfbd2b61f54b4fd634824bcba28b31ea6c05aa389cc5c1ea7f7aefc9662a3",
                        "mixHash" : "0x0000000000000000000000000000000000000000000000000000000000020000",
                        "nonce" : "0x0000000000000000",
                        "number" : "0x01",
                        "parentBeaconBlockRoot" : "0x0000000000000000000000000000000000000000000000000000000000000000",
                        "parentHash" : "0x83fb27c2bcb23b46cb26b278604e5fc81819a4192c7d0a7cadc864904f5230e5",
                        "receiptTrie" : "0x56e81f171bcc55a6ff8345e692c0f86e5b48e01b996cadc001622fb5e363b421",
                        "stateRoot" : "0x580c94292d42b6eb500be91792f96075ed484c72bfe09fed10e64c505a0f1178",
                        "timestamp" : "0x03e8",
                        "transactionsTrie" : "0x56e81f171bcc55a6ff8345e692c0f86e5b48e01b996cadc001622fb5e363b421",
                        "uncleHash" : "0x1dcc4de8dec75d7aab85b567b6ccd41ad312451b948a7413f0a142fd40d49347",
                        "withdrawalsRoot" : "0x56e81f171bcc55a6ff8345e692c0f86e5b48e01b996cadc001622fb5e363b421"
                    },
                    "transactions" : [
                        {
                            "accessList" : [
                            ],
                            "chainId" : "0x01",
                            "data" : "0x01",
                            "gasLimit" : "0x061a80",
                            "gasPrice" : "0x03e7",
                            "nonce" : "0x01",
                            "r" : "0x71d41e66f218b09ba0bf90491584fc8a63ec62078c5e86f964456146e5fc3b8b",
                            "s" : "0x6757f546fdd4d4505be1e5373174f7d5706f5f5fcf8e89ca8663767a16cd682c",
                            "to" : "0xcccccccccccccccccccccccccccccccccccccccc",
                            "type" : "0x01",
                            "v" : "0x00",
                            "value" : "0x0186a0"
                        }
                    ],
                    "uncleHeaders" : [
                    ],
                    "withdrawals" : [
                    ]
                },
                "transactionSequence" : [
                    {
                        "exception" : "TransactionException.INSUFFICIENT_MAX_FEE_PER_GAS",
                        "rawBytes" : "0x01f86701018203e783061a8094cccccccccccccccccccccccccccccccccccccccc830186a001c080a071d41e66f218b09ba0bf90491584fc8a63ec62078c5e86f964456146e5fc3b8ba06757f546fdd4d4505be1e5373174f7d5706f5f5fcf8e89ca8663767a16cd682c",
                        "valid" : "false"
                    }
                ]
            }
        ],
        "genesisBlockHeader" : {
            "baseFeePerGas" : "0x0476",
            "blobGasUsed" : "0x00",
            "bloom" : "0x00000000000000000000000000000000000000000000000000000000000000000000000000000000000000000000000000000000000000000000000000000000000000000000000000000000000000000000000000000000000000000000000000000000000000000000000000000000000000000000000000000000000000000000000000000000000000000000000000000000000000000000000000000000000000000000000000000000000000000000000000000000000000000000000000000000000000000000000000000000000000000000000000000000000000000000000000000000000000000000000000000000000000000000000000000000",
            "coinbase" : "0x2adc25665018aa1fe0e6bc666dac8fc2697ff9ba",
            "difficulty" : "0x00",
            "excessBlobGas" : "0x060000",
            "extraData" : "0x00",
            "gasLimit" : "0xff112233445566",
            "gasUsed" : "0x00",
            "hash" : "0x83fb27c2bcb23b46cb26b278604e5fc81819a4192c7d0a7cadc864904f5230e5",
            "mixHash" : "0x0000000000000000000000000000000000000000000000000000000000020000",
            "nonce" : "0x0000000000000000",
            "number" : "0x00",
            "parentBeaconBlockRoot" : "0x0000000000000000000000000000000000000000000000000000000000000000",
            "parentHash" : "0x0000000000000000000000000000000000000000000000000000000000000000",
            "receiptTrie" : "0x56e81f171bcc55a6ff8345e692c0f86e5b48e01b996cadc001622fb5e363b421",
            "stateRoot" : "0xb7d1104782d1787ab40414a216f2166ded929a65ed4dd2da4993ea2a0a24b1d6",
            "timestamp" : "0x00",
            "transactionsTrie" : "0x56e81f171bcc55a6ff8345e692c0f86e5b48e01b996cadc001622fb5e363b421",
            "uncleHash" : "0x1dcc4de8dec75d7aab85b567b6ccd41ad312451b948a7413f0a142fd40d49347",
            "withdrawalsRoot" : "0x56e81f171bcc55a6ff8345e692c0f86e5b48e01b996cadc001622fb5e363b421"
        },
        "genesisRLP" : "0xf90244f9023ea00000000000000000000000000000000000000000000000000000000000000000a01dcc4de8dec75d7aab85b567b6ccd41ad312451b948a7413f0a142fd40d49347942adc25665018aa1fe0e6bc666dac8fc2697ff9baa0b7d1104782d1787ab40414a216f2166ded929a65ed4dd2da4993ea2a0a24b1d6a056e81f171bcc55a6ff8345e692c0f86e5b48e01b996cadc001622fb5e363b421a056e81f171bcc55a6ff8345e692c0f86e5b48e01b996cadc001622fb5e363b421b9010000000000000000000000000000000000000000000000000000000000000000000000000000000000000000000000000000000000000000000000000000000000000000000000000000000000000000000000000000000000000000000000000000000000000000000000000000000000000000000000000000000000000000000000000000000000000000000000000000000000000000000000000000000000000000000000000000000000000000000000000000000000000000000000000000000000000000000000000000000000000000000000000000000000000000000000000000000000000000000000000000000000000000000000000000000000808087ff112233445566808000a00000000000000000000000000000000000000000000000000000000000020000880000000000000000820476a056e81f171bcc55a6ff8345e692c0f86e5b48e01b996cadc001622fb5e363b4218083060000a00000000000000000000000000000000000000000000000000000000000000000c0c0c0",
        "lastblockhash" : "0x83fb27c2bcb23b46cb26b278604e5fc81819a4192c7d0a7cadc864904f5230e5",
        "network" : "Cancun",
        "postState" : {
            "0x000f3df6d732807ef1319fb7b8bb8522d0beac02" : {
                "balance" : "0x00",
                "code" : "0x3373fffffffffffffffffffffffffffffffffffffffe14604d57602036146024575f5ffd5b5f35801560495762001fff810690815414603c575f5ffd5b62001fff01545f5260205ff35b5f5ffd5b62001fff42064281555f359062001fff015500",
                "nonce" : "0x01",
                "storage" : {
                }
            },
            "0xa94f5374fce5edbc8e2a8697c15331677e6ebf0b" : {
                "balance" : "0x0de0b6b3a7640000",
                "code" : "0x",
                "nonce" : "0x01",
                "storage" : {
                }
            },
            "0xcccccccccccccccccccccccccccccccccccccccc" : {
                "balance" : "0x0de0b6b3a7640000",
                "code" : "0x600260005500",
                "nonce" : "0x00",
                "storage" : {
                }
            }
        },
        "pre" : {
            "0x000f3df6d732807ef1319fb7b8bb8522d0beac02" : {
                "balance" : "0x00",
                "code" : "0x3373fffffffffffffffffffffffffffffffffffffffe14604d57602036146024575f5ffd5b5f35801560495762001fff810690815414603c575f5ffd5b62001fff01545f5260205ff35b5f5ffd5b62001fff42064281555f359062001fff015500",
                "nonce" : "0x01",
                "storage" : {
                }
            },
            "0xa94f5374fce5edbc8e2a8697c15331677e6ebf0b" : {
                "balance" : "0x0de0b6b3a7640000",
                "code" : "0x",
                "nonce" : "0x01",
                "storage" : {
                }
            },
            "0xcccccccccccccccccccccccccccccccccccccccc" : {
                "balance" : "0x0de0b6b3a7640000",
                "code" : "0x600260005500",
                "nonce" : "0x00",
                "storage" : {
                }
            }
        },
        "sealEngine" : "NoProof"
    }
}