{
    "typeTwoBerlin_d0g0v0_Berlin" : {
        "_info" : {
            "comment" : "Ori Pomerantz qbzzt1@gmail.com",
            "filling-rpc-server" : "evm version 1.10.4-unstable-7a00378e-20210609",
            "filling-tool-version" : "retesteth-0.1.1-eip1559+commit.4865e37d.Linux.g++",
            "lllcversion" : "Version: 0.5.14-develop.2021.6.9+commit.401d5358.Linux.g++",
            "source" : "src/GeneralStateTestsFiller/stEIP1559/typeTwoBerlinFiller.yml",
            "sourceHash" : "beead869b27f3a887eee3a90f8cfb2f31f8b9dfc7bfa4d87c0f7331084459138"
        },
        "genesisBlockHeader" : {
            "bloom" : "0x00000000000000000000000000000000000000000000000000000000000000000000000000000000000000000000000000000000000000000000000000000000000000000000000000000000000000000000000000000000000000000000000000000000000000000000000000000000000000000000000000000000000000000000000000000000000000000000000000000000000000000000000000000000000000000000000000000000000000000000000000000000000000000000000000000000000000000000000000000000000000000000000000000000000000000000000000000000000000000000000000000000000000000000000000000000",
            "coinbase" : "0x2adc25665018aa1fe0e6bc666dac8fc2697ff9ba",
            "difficulty" : "0x020000",
            "extraData" : "0x00",
            "gasLimit" : "0xff112233445566",
            "gasUsed" : "0x00",
            "hash" : "0x8b7347670086ccb88eed7d87565d582d71a859d28aa155fcd43bf224b8a27861",
            "mixHash" : "0x0000000000000000000000000000000000000000000000000000000000000000",
            "nonce" : "0x0000000000000000",
            "number" : "0x00",
            "parentHash" : "0x0000000000000000000000000000000000000000000000000000000000000000",
            "receiptTrie" : "0x56e81f171bcc55a6ff8345e692c0f86e5b48e01b996cadc001622fb5e363b421",
            "stateRoot" : "0x500ddcebbfe42e15e3d8b5a3344b569cc5820e13d432e69b346a416bb1817491",
            "timestamp" : "0x00",
            "transactionsTrie" : "0x56e81f171bcc55a6ff8345e692c0f86e5b48e01b996cadc001622fb5e363b421",
            "uncleHash" : "0x1dcc4de8dec75d7aab85b567b6ccd41ad312451b948a7413f0a142fd40d49347"
        },
        "pre" : {
            "0xa94f5374fce5edbc8e2a8697c15331677e6ebf0b" : {
                "balance" : "0x0de0b6b3a7640000",
                "code" : "0x",
                "nonce" : "0x01",
                "storage" : {
                }
            },
            "0xcccccccccccccccccccccccccccccccccccccccc" : {
                "balance" : "0x0de0b6b3a7640000",
                "code" : "0x6001600101600055",
                "nonce" : "0x00",
                "storage" : {
                }
            }
        },
        "postState" : {
            "0x2adc25665018aa1fe0e6bc666dac8fc2697ff9ba" : {
                "code" : "0x",
                "nonce" : "0x00",
                "balance" : "0x1bc16d674ec80000",
                "storage" : {
                }
            },
            "0xa94f5374fce5edbc8e2a8697c15331677e6ebf0b" : {
                "code" : "0x",
                "nonce" : "0x01",
                "balance" : "0x0de0b6b3a7640000",
                "storage" : {
                }
            },
            "0xcccccccccccccccccccccccccccccccccccccccc" : {
                "code" : "0x6001600101600055",
                "nonce" : "0x00",
                "balance" : "0x0de0b6b3a7640000",
                "storage" : {
                }
            }
        },
        "network" : "Berlin",
        "sealEngine" : "NoProof",
        "lastblockhash" : "0x19d02c8bec8351ebe7308908ddddeb42e47a02ab17e7ed76da38be6f70887b9f",
        "genesisRLP" : "0xf901fcf901f7a00000000000000000000000000000000000000000000000000000000000000000a01dcc4de8dec75d7aab85b567b6ccd41ad312451b948a7413f0a142fd40d49347942adc25665018aa1fe0e6bc666dac8fc2697ff9baa0500ddcebbfe42e15e3d8b5a3344b569cc5820e13d432e69b346a416bb1817491a056e81f171bcc55a6ff8345e692c0f86e5b48e01b996cadc001622fb5e363b421a056e81f171bcc55a6ff8345e692c0f86e5b48e01b996cadc001622fb5e363b421b9010000000000000000000000000000000000000000000000000000000000000000000000000000000000000000000000000000000000000000000000000000000000000000000000000000000000000000000000000000000000000000000000000000000000000000000000000000000000000000000000000000000000000000000000000000000000000000000000000000000000000000000000000000000000000000000000000000000000000000000000000000000000000000000000000000000000000000000000000000000000000000000000000000000000000000000000000000000000000000000000000000000000000000000000000000000000830200008087ff112233445566808000a00000000000000000000000000000000000000000000000000000000000000000880000000000000000c0c0",
        "blocks" : [
            {
                "rlp" : "0xf901fef901f9a08b7347670086ccb88eed7d87565d582d71a859d28aa155fcd43bf224b8a27861a01dcc4de8dec75d7aab85b567b6ccd41ad312451b948a7413f0a142fd40d49347942adc25665018aa1fe0e6bc666dac8fc2697ff9baa01cbba5f0e93c6cdbf87c6a4a9832f0b9df2e34e1ccd17052eed6f021fcbb4e1fa056e81f171bcc55a6ff8345e692c0f86e5b48e01b996cadc001622fb5e363b421a056e81f171bcc55a6ff8345e692c0f86e5b48e01b996cadc001622fb5e363b421b9010000000000000000000000000000000000000000000000000000000000000000000000000000000000000000000000000000000000000000000000000000000000000000000000000000000000000000000000000000000000000000000000000000000000000000000000000000000000000000000000000000000000000000000000000000000000000000000000000000000000000000000000000000000000000000000000000000000000000000000000000000000000000000000000000000000000000000000000000000000000000000000000000000000000000000000000000000000000000000000000000000000000000000000000000000000000830200000187ff112233445566808203e800a00000000000000000000000000000000000000000000000000000000000000000880000000000000000c0c0",
                "blockHeader" : {
                    "bloom" : "0x00000000000000000000000000000000000000000000000000000000000000000000000000000000000000000000000000000000000000000000000000000000000000000000000000000000000000000000000000000000000000000000000000000000000000000000000000000000000000000000000000000000000000000000000000000000000000000000000000000000000000000000000000000000000000000000000000000000000000000000000000000000000000000000000000000000000000000000000000000000000000000000000000000000000000000000000000000000000000000000000000000000000000000000000000000000",
                    "coinbase" : "0x2adc25665018aa1fe0e6bc666dac8fc2697ff9ba",
                    "difficulty" : "0x020000",
                    "extraData" : "0x00",
                    "gasLimit" : "0xff112233445566",
                    "gasUsed" : "0x00",
                    "hash" : "0x19d02c8bec8351ebe7308908ddddeb42e47a02ab17e7ed76da38be6f70887b9f",
                    "mixHash" : "0x0000000000000000000000000000000000000000000000000000000000000000",
                    "nonce" : "0x0000000000000000",
                    "number" : "0x01",
                    "parentHash" : "0x8b7347670086ccb88eed7d87565d582d71a859d28aa155fcd43bf224b8a27861",
                    "receiptTrie" : "0x56e81f171bcc55a6ff8345e692c0f86e5b48e01b996cadc001622fb5e363b421",
                    "stateRoot" : "0x1cbba5f0e93c6cdbf87c6a4a9832f0b9df2e34e1ccd17052eed6f021fcbb4e1f",
                    "timestamp" : "0x03e8",
                    "transactionsTrie" : "0x56e81f171bcc55a6ff8345e692c0f86e5b48e01b996cadc001622fb5e363b421",
                    "uncleHash" : "0x1dcc4de8dec75d7aab85b567b6ccd41ad312451b948a7413f0a142fd40d49347"
                },
                "transactions" : [
                ],
                "uncleHeaders" : [
                ],
                "transactionSequence" : [
                    {
                        "valid" : "false",
                        "rawBytes" : "0x02f86a01018203e88203e883061a8094cccccccccccccccccccccccccccccccccccccccc830186a000c001a031616d40ae792e8f02c4eb3a46a0b29f74c7025c0d95b14bed325c2e88e0aef8a010c151566d00f2050f75740f954d115c038e1a56a2b5bb459c3ef644145ca625",
                        "exception" : "TR_TypeNotSupported"
                    }
                ]
            }
        ]
    },
    "typeTwoBerlin_d0g0v0_London" : {
        "_info" : {
            "comment" : "Ori Pomerantz qbzzt1@gmail.com",
            "filling-rpc-server" : "evm version 1.10.4-unstable-7a00378e-20210609",
            "filling-tool-version" : "retesteth-0.1.1-eip1559+commit.4865e37d.Linux.g++",
            "lllcversion" : "Version: 0.5.14-develop.2021.6.9+commit.401d5358.Linux.g++",
            "source" : "src/GeneralStateTestsFiller/stEIP1559/typeTwoBerlinFiller.yml",
            "sourceHash" : "beead869b27f3a887eee3a90f8cfb2f31f8b9dfc7bfa4d87c0f7331084459138"
        },
        "genesisBlockHeader" : {
            "bloom" : "0x00000000000000000000000000000000000000000000000000000000000000000000000000000000000000000000000000000000000000000000000000000000000000000000000000000000000000000000000000000000000000000000000000000000000000000000000000000000000000000000000000000000000000000000000000000000000000000000000000000000000000000000000000000000000000000000000000000000000000000000000000000000000000000000000000000000000000000000000000000000000000000000000000000000000000000000000000000000000000000000000000000000000000000000000000000000",
            "coinbase" : "0x2adc25665018aa1fe0e6bc666dac8fc2697ff9ba",
            "difficulty" : "0x020000",
            "extraData" : "0x00",
            "gasLimit" : "0xff112233445566",
            "gasUsed" : "0x00",
            "hash" : "0xbc3974cd16e9127540a2229f7ce8938987c445f3414fc5d1e830cd662388d9ef",
            "mixHash" : "0x0000000000000000000000000000000000000000000000000000000000000000",
            "nonce" : "0x0000000000000000",
            "number" : "0x00",
            "parentHash" : "0x0000000000000000000000000000000000000000000000000000000000000000",
            "receiptTrie" : "0x56e81f171bcc55a6ff8345e692c0f86e5b48e01b996cadc001622fb5e363b421",
            "stateRoot" : "0x500ddcebbfe42e15e3d8b5a3344b569cc5820e13d432e69b346a416bb1817491",
            "timestamp" : "0x00",
            "transactionsTrie" : "0x56e81f171bcc55a6ff8345e692c0f86e5b48e01b996cadc001622fb5e363b421",
            "uncleHash" : "0x1dcc4de8dec75d7aab85b567b6ccd41ad312451b948a7413f0a142fd40d49347",
            "baseFeePerGas" : "0x0476"
        },
        "pre" : {
            "0xa94f5374fce5edbc8e2a8697c15331677e6ebf0b" : {
                "balance" : "0x0de0b6b3a7640000",
                "code" : "0x",
                "nonce" : "0x01",
                "storage" : {
                }
            },
            "0xcccccccccccccccccccccccccccccccccccccccc" : {
                "balance" : "0x0de0b6b3a7640000",
                "code" : "0x6001600101600055",
                "nonce" : "0x00",
                "storage" : {
                }
            }
        },
        "postState" : {
            "0x2adc25665018aa1fe0e6bc666dac8fc2697ff9ba" : {
                "code" : "0x",
                "nonce" : "0x00",
                "balance" : "0x1bc16d674ec80000",
                "storage" : {
                }
            },
            "0xa94f5374fce5edbc8e2a8697c15331677e6ebf0b" : {
                "code" : "0x",
                "nonce" : "0x02",
                "balance" : "0x0de0b6b3a4d09380",
                "storage" : {
                }
            },
            "0xcccccccccccccccccccccccccccccccccccccccc" : {
                "code" : "0x6001600101600055",
                "nonce" : "0x00",
                "balance" : "0x0de0b6b3a76586a0",
                "storage" : {
                    "0x00" : "0x02"
                }
            }
        },
        "network" : "London",
        "sealEngine" : "NoProof",
        "lastblockhash" : "0x85092c214ebc1e555415ce9e9d8abe4865b1f78fa2695c08dfaa6ff4bd6b2c3a",
        "genesisRLP" : "0xf901fff901faa00000000000000000000000000000000000000000000000000000000000000000a01dcc4de8dec75d7aab85b567b6ccd41ad312451b948a7413f0a142fd40d49347942adc25665018aa1fe0e6bc666dac8fc2697ff9baa0500ddcebbfe42e15e3d8b5a3344b569cc5820e13d432e69b346a416bb1817491a056e81f171bcc55a6ff8345e692c0f86e5b48e01b996cadc001622fb5e363b421a056e81f171bcc55a6ff8345e692c0f86e5b48e01b996cadc001622fb5e363b421b9010000000000000000000000000000000000000000000000000000000000000000000000000000000000000000000000000000000000000000000000000000000000000000000000000000000000000000000000000000000000000000000000000000000000000000000000000000000000000000000000000000000000000000000000000000000000000000000000000000000000000000000000000000000000000000000000000000000000000000000000000000000000000000000000000000000000000000000000000000000000000000000000000000000000000000000000000000000000000000000000000000000000000000000000000000000000830200008087ff112233445566808000a00000000000000000000000000000000000000000000000000000000000000000880000000000000000820476c0c0",
        "blocks" : [
            {
                "rlp" : "0xf90273f901fea0bc3974cd16e9127540a2229f7ce8938987c445f3414fc5d1e830cd662388d9efa01dcc4de8dec75d7aab85b567b6ccd41ad312451b948a7413f0a142fd40d49347942adc25665018aa1fe0e6bc666dac8fc2697ff9baa02671611ba78ee5510e86c8758880f553170e20eae0e575843cbfc67ef05b1871a035fb3cd0f13d62cc44ad0fc6d54416cff4a398863654c0df3bd844e1266c23a9a01b0691d3660afc275db5ddc6dd08e593baf063b697cd4c493c4d1cde7ffe192bb9010000000000000000000000000000000000000000000000000000000000000000000000000000000000000000000000000000000000000000000000000000000000000000000000000000000000000000000000000000000000000000000000000000000000000000000000000000000000000000000000000000000000000000000000000000000000000000000000000000000000000000000000000000000000000000000000000000000000000000000000000000000000000000000000000000000000000000000000000000000000000000000000000000000000000000000000000000000000000000000000000000000000000000000000000000000000830200000187ff11223344556682a86c8203e800a000000000000000000000000000000000000000000000000000000000000000008800000000000000008203e8f86fb86d02f86a01018203e88203e883061a8094cccccccccccccccccccccccccccccccccccccccc830186a000c001a031616d40ae792e8f02c4eb3a46a0b29f74c7025c0d95b14bed325c2e88e0aef8a010c151566d00f2050f75740f954d115c038e1a56a2b5bb459c3ef644145ca625c0",
                "blockHeader" : {
                    "bloom" : "0x00000000000000000000000000000000000000000000000000000000000000000000000000000000000000000000000000000000000000000000000000000000000000000000000000000000000000000000000000000000000000000000000000000000000000000000000000000000000000000000000000000000000000000000000000000000000000000000000000000000000000000000000000000000000000000000000000000000000000000000000000000000000000000000000000000000000000000000000000000000000000000000000000000000000000000000000000000000000000000000000000000000000000000000000000000000",
                    "coinbase" : "0x2adc25665018aa1fe0e6bc666dac8fc2697ff9ba",
                    "difficulty" : "0x020000",
                    "extraData" : "0x00",
                    "gasLimit" : "0xff112233445566",
                    "gasUsed" : "0xa86c",
                    "hash" : "0x85092c214ebc1e555415ce9e9d8abe4865b1f78fa2695c08dfaa6ff4bd6b2c3a",
                    "mixHash" : "0x0000000000000000000000000000000000000000000000000000000000000000",
                    "nonce" : "0x0000000000000000",
                    "number" : "0x01",
                    "parentHash" : "0xbc3974cd16e9127540a2229f7ce8938987c445f3414fc5d1e830cd662388d9ef",
                    "receiptTrie" : "0x1b0691d3660afc275db5ddc6dd08e593baf063b697cd4c493c4d1cde7ffe192b",
                    "stateRoot" : "0x2671611ba78ee5510e86c8758880f553170e20eae0e575843cbfc67ef05b1871",
                    "timestamp" : "0x03e8",
                    "transactionsTrie" : "0x35fb3cd0f13d62cc44ad0fc6d54416cff4a398863654c0df3bd844e1266c23a9",
                    "uncleHash" : "0x1dcc4de8dec75d7aab85b567b6ccd41ad312451b948a7413f0a142fd40d49347",
                    "baseFeePerGas" : "0x03e8"
                },
                "transactions" : [
                    {
                        "data" : "0x00",
                        "gasLimit" : "0x061a80",
                        "nonce" : "0x01",
                        "to" : "0xcccccccccccccccccccccccccccccccccccccccc",
                        "value" : "0x0186a0",
                        "v" : "0x01",
                        "r" : "0x31616d40ae792e8f02c4eb3a46a0b29f74c7025c0d95b14bed325c2e88e0aef8",
                        "s" : "0x10c151566d00f2050f75740f954d115c038e1a56a2b5bb459c3ef644145ca625",
                        "chainId" : "0x01",
                        "type" : "0x02",
                        "maxFeePerGas" : "0x03e8",
                        "maxPriorityFeePerGas" : "0x03e8",
                        "accessList" : [
                        ]
                    }
                ],
                "uncleHeaders" : [
                ]
            }
        ]
    }
}