{
    "pairingTest_d2g2v0_Byzantium" : {
        "_info" : {
            "comment" : "",
            "filledwith" : "cpp-1.3.0+commit.82b0643a.Linux.g++",
            "lllcversion" : "Version: 0.4.20-develop.2018.1.8+commit.2548228b.Linux.g++",
            "source" : "src/BlockchainTestsFiller/GeneralStateTests/stZeroKnowledge/pairingTest_d2g2v0Filler.json",
            "sourceHash" : "4907d0785cadf83438568ebdf775acb37560f12a7e3249344b4310e427dddfa0"
        },
        "blocks" : [
            {
                "blockHeader" : {
                    "bloom" : "0x00000000000000000000000000000000000000000000000000000000000000000000000000000000000000000000000000000000000000000000000000000000000000000000000000000000000000000000000000000000000000000000000000000000000000000000000000000000000000000000000000000000000000000000000000000000000000000000000000000000000000000000000000000000000000000000000000000000000000000000000000000000000000000000000000000000000000000000000000000000000000000000000000000000000000000000000000000000000000000000000000000000000000000000000000000000",
                    "coinbase" : "0x68795c4aa09d6f4ed3e5deddf8c2ad3049a601da",
                    "difficulty" : "0x020000",
                    "extraData" : "",
                    "gasLimit" : "0xd5ce6f",
                    "gasUsed" : "0x01adb0",
                    "hash" : "0x3772c22d644c864a3f2430112118d8bcf0a4475bc282dfb0158766e14ee6b4cc",
                    "mixHash" : "0xf97784b590a360c9f56d2552b36f4cc6e4c8268decf62079394651b610d525ff",
                    "nonce" : "0x2b852b9c88301aba",
                    "number" : "0x01",
                    "parentHash" : "0x92fdbb1579b834d62b5fd29f9770bbe616d7fb9ac28a27b7fa9524572b58f4cf",
                    "receiptTrie" : "0xfd21849a7839c2c75da6c5f2828e953f017b356f3e968aba1a97ac6f6c5b31f3",
                    "stateRoot" : "0x121699bf65d31af9e003c7c614bfabcae3104212d187119a3026a60cf945dd57",
                    "timestamp" : "0x03e8",
                    "transactionsTrie" : "0x131d59b3d1c4b5dd63eca4b1b7575cddc872d08e0fa69b4ed3cdcb29c6c63aa3",
                    "uncleHash" : "0x1dcc4de8dec75d7aab85b567b6ccd41ad312451b948a7413f0a142fd40d49347"
                },
                "rlp" : "0xf90404f901f8a092fdbb1579b834d62b5fd29f9770bbe616d7fb9ac28a27b7fa9524572b58f4cfa01dcc4de8dec75d7aab85b567b6ccd41ad312451b948a7413f0a142fd40d493479468795c4aa09d6f4ed3e5deddf8c2ad3049a601daa0121699bf65d31af9e003c7c614bfabcae3104212d187119a3026a60cf945dd57a0131d59b3d1c4b5dd63eca4b1b7575cddc872d08e0fa69b4ed3cdcb29c6c63aa3a0fd21849a7839c2c75da6c5f2828e953f017b356f3e968aba1a97ac6f6c5b31f3b9010000000000000000000000000000000000000000000000000000000000000000000000000000000000000000000000000000000000000000000000000000000000000000000000000000000000000000000000000000000000000000000000000000000000000000000000000000000000000000000000000000000000000000000000000000000000000000000000000000000000000000000000000000000000000000000000000000000000000000000000000000000000000000000000000000000000000000000000000000000000000000000000000000000000000000000000000000000000000000000000000000000000000000000000000000000000830200000183d5ce6f8301adb08203e880a0f97784b590a360c9f56d2552b36f4cc6e4c8268decf62079394651b610d525ff882b852b9c88301abaf90205f9020201018301adb094b94f5374fce5edbc8e2a8697c15331677e6ebf0b80b901a000000000000000000000000000000000000000000000000000000000000001800f25929bcb43d5a57391564615c9e70a992b10eafa4db109709649cf48c50dd216da2f5cb6be7a0aa72c440c53c9bbdfec6c36c7d515536431b3a865468acbba2e89718ad33c8bed92e210e81d1853435399a271913a6520736a4729cf0d51eb01a9e2ffa2e92599b68e44de5bcf354fa2642bd4f26b259daa6f7ce3ed57aeb314a9a87b789a58af499b314e13c3d65bede56c07ea2d418d6874857b70763713178fb49a2d6cd347dc58973ff49613a20757d0fcc22079f9abd10c3baee245901b9e027bd5cfc2cb5db82d4dc9677ac795ec500ecd47deee3b5da006d6d049b811d7511c78158de484232fc68daf8a45cf217d1c2fae693ff5871e8752d73b21198e9393920d483a7260bfb731fb5d25f1aa493335a9e71297e485b7aef312c21800deef121f1e76426a00665e5c4479674322d4f75edadd46debd5cd992f6ed090689d0585ff075ec9e99ad690c3395bc4b313370b38ef355acdadcd122975b12c85ea5db8c6deb4aab71808dcb408fe3d1e7690c43d37b4ce6cc0166fa7daa1ca0d8d9b58bb6e4b0e6e14a6ac309b50f7c19f658bef477f24b0ee5b2f012e3a52aa00c9f3483535f216dc0a391398e4c6b266537f48b93f8c2619007127f76d1edfac0",
                "transactions" : [
                    {
                        "data" : "0x00000000000000000000000000000000000000000000000000000000000001800f25929bcb43d5a57391564615c9e70a992b10eafa4db109709649cf48c50dd216da2f5cb6be7a0aa72c440c53c9bbdfec6c36c7d515536431b3a865468acbba2e89718ad33c8bed92e210e81d1853435399a271913a6520736a4729cf0d51eb01a9e2ffa2e92599b68e44de5bcf354fa2642bd4f26b259daa6f7ce3ed57aeb314a9a87b789a58af499b314e13c3d65bede56c07ea2d418d6874857b70763713178fb49a2d6cd347dc58973ff49613a20757d0fcc22079f9abd10c3baee245901b9e027bd5cfc2cb5db82d4dc9677ac795ec500ecd47deee3b5da006d6d049b811d7511c78158de484232fc68daf8a45cf217d1c2fae693ff5871e8752d73b21198e9393920d483a7260bfb731fb5d25f1aa493335a9e71297e485b7aef312c21800deef121f1e76426a00665e5c4479674322d4f75edadd46debd5cd992f6ed090689d0585ff075ec9e99ad690c3395bc4b313370b38ef355acdadcd122975b12c85ea5db8c6deb4aab71808dcb408fe3d1e7690c43d37b4ce6cc0166fa7daa",
                        "gasLimit" : "0x01adb0",
                        "gasPrice" : "0x01",
                        "nonce" : "0x01",
                        "r" : "0xd8d9b58bb6e4b0e6e14a6ac309b50f7c19f658bef477f24b0ee5b2f012e3a52a",
                        "s" : "0x0c9f3483535f216dc0a391398e4c6b266537f48b93f8c2619007127f76d1edfa",
                        "to" : "0xb94f5374fce5edbc8e2a8697c15331677e6ebf0b",
                        "v" : "0x1c",
                        "value" : "0x00"
                    }
                ],
                "uncleHeaders" : [
                ]
            }
        ],
        "genesisBlockHeader" : {
            "bloom" : "0x00000000000000000000000000000000000000000000000000000000000000000000000000000000000000000000000000000000000000000000000000000000000000000000000000000000000000000000000000000000000000000000000000000000000000000000000000000000000000000000000000000000000000000000000000000000000000000000000000000000000000000000000000000000000000000000000000000000000000000000000000000000000000000000000000000000000000000000000000000000000000000000000000000000000000000000000000000000000000000000000000000000000000000000000000000000",
            "coinbase" : "0x68795c4aa09d6f4ed3e5deddf8c2ad3049a601da",
            "difficulty" : "0x020000",
            "extraData" : "0x42",
            "gasLimit" : "0xd5ce6f",
            "gasUsed" : "0x00",
            "hash" : "0x92fdbb1579b834d62b5fd29f9770bbe616d7fb9ac28a27b7fa9524572b58f4cf",
            "mixHash" : "0x56e81f171bcc55a6ff8345e692c0f86e5b48e01b996cadc001622fb5e363b421",
            "nonce" : "0x0102030405060708",
            "number" : "0x00",
            "parentHash" : "0x0000000000000000000000000000000000000000000000000000000000000000",
            "receiptTrie" : "0x56e81f171bcc55a6ff8345e692c0f86e5b48e01b996cadc001622fb5e363b421",
            "stateRoot" : "0xa58f7365e4f5906e2945541429243a587e9d55bc47a4ea9e4757e58a78d45ac9",
            "timestamp" : "0x03b6",
            "transactionsTrie" : "0x56e81f171bcc55a6ff8345e692c0f86e5b48e01b996cadc001622fb5e363b421",
            "uncleHash" : "0x1dcc4de8dec75d7aab85b567b6ccd41ad312451b948a7413f0a142fd40d49347"
        },
        "genesisRLP" : "0xf901faf901f5a00000000000000000000000000000000000000000000000000000000000000000a01dcc4de8dec75d7aab85b567b6ccd41ad312451b948a7413f0a142fd40d493479468795c4aa09d6f4ed3e5deddf8c2ad3049a601daa0a58f7365e4f5906e2945541429243a587e9d55bc47a4ea9e4757e58a78d45ac9a056e81f171bcc55a6ff8345e692c0f86e5b48e01b996cadc001622fb5e363b421a056e81f171bcc55a6ff8345e692c0f86e5b48e01b996cadc001622fb5e363b421b9010000000000000000000000000000000000000000000000000000000000000000000000000000000000000000000000000000000000000000000000000000000000000000000000000000000000000000000000000000000000000000000000000000000000000000000000000000000000000000000000000000000000000000000000000000000000000000000000000000000000000000000000000000000000000000000000000000000000000000000000000000000000000000000000000000000000000000000000000000000000000000000000000000000000000000000000000000000000000000000000000000000000000000000000000000000000830200008083d5ce6f808203b642a056e81f171bcc55a6ff8345e692c0f86e5b48e01b996cadc001622fb5e363b421880102030405060708c0c0",
        "lastblockhash" : "0x3772c22d644c864a3f2430112118d8bcf0a4475bc282dfb0158766e14ee6b4cc",
        "network" : "Byzantium",
        "postState" : {
            "0x68795c4aa09d6f4ed3e5deddf8c2ad3049a601da" : {
                "balance" : "0x29a2241af62dadb0",
                "code" : "",
                "nonce" : "0x00",
                "storage" : {
                }
            },
            "0xa94f5374fce5edbc8e2a8697c15331677e6ebf0b" : {
                "balance" : "0x0de0b6b3a7625250",
                "code" : "",
                "nonce" : "0x02",
                "storage" : {
                }
            },
            "0xb94f5374fce5edbc8e2a8697c15331677e6ebf0b" : {
                "balance" : "0x00",
                "code" : "0x60203560205260403560405260603560605260803560805260a03560a05260c03560c05260e03560e052610100356101005261012035610120526101403561014052610160356101605261018035610180526101a0356101a0526101c0356101c0526101e0356101e052610200356102005261022035610220526102403561024052610260356102605261028035610280526102a0356102a0526102c0356102c0526102e0356102e05260206103e86000356020600060086207a120f26000556103e851600155",
                "nonce" : "0x00",
                "storage" : {
                }
            },
            "0xc94f5374fce5edbc8e2a8697c15331677e6ebf0b" : {
                "balance" : "0x00",
                "code" : "0x6000356000526020356020527f30644e72e131a029b85045b68181585d2833e84879b9709143e1f593f000000060405260406103e86060600060006007624c4b40f26000556103e85160015561040851600255",
                "nonce" : "0x00",
                "storage" : {
                }
            },
            "0xd94f5374fce5edbc8e2a8697c15331677e6ebf0b" : {
                "balance" : "0x00",
                "code" : "0x60003560005260203560205260403560405260603560605260406103e86080600060006006624c4b40f26000556103e85160015561040851600255",
                "nonce" : "0x00",
                "storage" : {
                }
            }
        },
        "pre" : {
            "0xa94f5374fce5edbc8e2a8697c15331677e6ebf0b" : {
                "balance" : "0x0de0b6b3a7640000",
                "code" : "",
                "nonce" : "0x01",
                "storage" : {
                }
            },
            "0xb94f5374fce5edbc8e2a8697c15331677e6ebf0b" : {
                "balance" : "0x00",
                "code" : "0x60203560205260403560405260603560605260803560805260a03560a05260c03560c05260e03560e052610100356101005261012035610120526101403561014052610160356101605261018035610180526101a0356101a0526101c0356101c0526101e0356101e052610200356102005261022035610220526102403561024052610260356102605261028035610280526102a0356102a0526102c0356102c0526102e0356102e05260206103e86000356020600060086207a120f26000556103e851600155",
                "nonce" : "0x00",
                "storage" : {
                }
            },
            "0xc94f5374fce5edbc8e2a8697c15331677e6ebf0b" : {
                "balance" : "0x00",
                "code" : "0x6000356000526020356020527f30644e72e131a029b85045b68181585d2833e84879b9709143e1f593f000000060405260406103e86060600060006007624c4b40f26000556103e85160015561040851600255",
                "nonce" : "0x00",
                "storage" : {
                }
            },
            "0xd94f5374fce5edbc8e2a8697c15331677e6ebf0b" : {
                "balance" : "0x00",
                "code" : "0x60003560005260203560205260403560405260603560605260406103e86080600060006006624c4b40f26000556103e85160015561040851600255",
                "nonce" : "0x00",
                "storage" : {
                }
            }
        }
    },
    "pairingTest_d2g2v0_Homestead" : {
        "_info" : {
            "comment" : "",
            "filledwith" : "cpp-1.3.0+commit.82b0643a.Linux.g++",
            "lllcversion" : "Version: 0.4.20-develop.2018.1.8+commit.2548228b.Linux.g++",
            "source" : "src/BlockchainTestsFiller/GeneralStateTests/stZeroKnowledge/pairingTest_d2g2v0Filler.json",
            "sourceHash" : "4907d0785cadf83438568ebdf775acb37560f12a7e3249344b4310e427dddfa0"
        },
        "blocks" : [
            {
                "blockHeader" : {
                    "bloom" : "0x00000000000000000000000000000000000000000000000000000000000000000000000000000000000000000000000000000000000000000000000000000000000000000000000000000000000000000000000000000000000000000000000000000000000000000000000000000000000000000000000000000000000000000000000000000000000000000000000000000000000000000000000000000000000000000000000000000000000000000000000000000000000000000000000000000000000000000000000000000000000000000000000000000000000000000000000000000000000000000000000000000000000000000000000000000000",
                    "coinbase" : "0x68795c4aa09d6f4ed3e5deddf8c2ad3049a601da",
                    "difficulty" : "0x020000",
                    "extraData" : "",
                    "gasLimit" : "0xd5ce6f",
                    "gasUsed" : "0x01adb0",
                    "hash" : "0x598b4ba87e17172d26184dd2794033cac6f6b3b49fd69783f5f3f3bf549e2cb8",
                    "mixHash" : "0x913b3d6ac4c559ed22863c3766506714e226ed3e9ffc4485a07cabbc73cc4c37",
                    "nonce" : "0x3cb5869566efe617",
                    "number" : "0x01",
                    "parentHash" : "0x92fdbb1579b834d62b5fd29f9770bbe616d7fb9ac28a27b7fa9524572b58f4cf",
                    "receiptTrie" : "0x0e0058bb6d17253bb009ff5c635cae0e902c73d5425fc59d241955663338d2ea",
                    "stateRoot" : "0x40595f3ab478c43f98e5d4a690b42b55983359fce12448bddf8872d4a06021db",
                    "timestamp" : "0x03e8",
                    "transactionsTrie" : "0x131d59b3d1c4b5dd63eca4b1b7575cddc872d08e0fa69b4ed3cdcb29c6c63aa3",
                    "uncleHash" : "0x1dcc4de8dec75d7aab85b567b6ccd41ad312451b948a7413f0a142fd40d49347"
                },
                "rlp" : "0xf90404f901f8a092fdbb1579b834d62b5fd29f9770bbe616d7fb9ac28a27b7fa9524572b58f4cfa01dcc4de8dec75d7aab85b567b6ccd41ad312451b948a7413f0a142fd40d493479468795c4aa09d6f4ed3e5deddf8c2ad3049a601daa040595f3ab478c43f98e5d4a690b42b55983359fce12448bddf8872d4a06021dba0131d59b3d1c4b5dd63eca4b1b7575cddc872d08e0fa69b4ed3cdcb29c6c63aa3a00e0058bb6d17253bb009ff5c635cae0e902c73d5425fc59d241955663338d2eab9010000000000000000000000000000000000000000000000000000000000000000000000000000000000000000000000000000000000000000000000000000000000000000000000000000000000000000000000000000000000000000000000000000000000000000000000000000000000000000000000000000000000000000000000000000000000000000000000000000000000000000000000000000000000000000000000000000000000000000000000000000000000000000000000000000000000000000000000000000000000000000000000000000000000000000000000000000000000000000000000000000000000000000000000000000000000830200000183d5ce6f8301adb08203e880a0913b3d6ac4c559ed22863c3766506714e226ed3e9ffc4485a07cabbc73cc4c37883cb5869566efe617f90205f9020201018301adb094b94f5374fce5edbc8e2a8697c15331677e6ebf0b80b901a000000000000000000000000000000000000000000000000000000000000001800f25929bcb43d5a57391564615c9e70a992b10eafa4db109709649cf48c50dd216da2f5cb6be7a0aa72c440c53c9bbdfec6c36c7d515536431b3a865468acbba2e89718ad33c8bed92e210e81d1853435399a271913a6520736a4729cf0d51eb01a9e2ffa2e92599b68e44de5bcf354fa2642bd4f26b259daa6f7ce3ed57aeb314a9a87b789a58af499b314e13c3d65bede56c07ea2d418d6874857b70763713178fb49a2d6cd347dc58973ff49613a20757d0fcc22079f9abd10c3baee245901b9e027bd5cfc2cb5db82d4dc9677ac795ec500ecd47deee3b5da006d6d049b811d7511c78158de484232fc68daf8a45cf217d1c2fae693ff5871e8752d73b21198e9393920d483a7260bfb731fb5d25f1aa493335a9e71297e485b7aef312c21800deef121f1e76426a00665e5c4479674322d4f75edadd46debd5cd992f6ed090689d0585ff075ec9e99ad690c3395bc4b313370b38ef355acdadcd122975b12c85ea5db8c6deb4aab71808dcb408fe3d1e7690c43d37b4ce6cc0166fa7daa1ca0d8d9b58bb6e4b0e6e14a6ac309b50f7c19f658bef477f24b0ee5b2f012e3a52aa00c9f3483535f216dc0a391398e4c6b266537f48b93f8c2619007127f76d1edfac0",
                "transactions" : [
                    {
                        "data" : "0x00000000000000000000000000000000000000000000000000000000000001800f25929bcb43d5a57391564615c9e70a992b10eafa4db109709649cf48c50dd216da2f5cb6be7a0aa72c440c53c9bbdfec6c36c7d515536431b3a865468acbba2e89718ad33c8bed92e210e81d1853435399a271913a6520736a4729cf0d51eb01a9e2ffa2e92599b68e44de5bcf354fa2642bd4f26b259daa6f7ce3ed57aeb314a9a87b789a58af499b314e13c3d65bede56c07ea2d418d6874857b70763713178fb49a2d6cd347dc58973ff49613a20757d0fcc22079f9abd10c3baee245901b9e027bd5cfc2cb5db82d4dc9677ac795ec500ecd47deee3b5da006d6d049b811d7511c78158de484232fc68daf8a45cf217d1c2fae693ff5871e8752d73b21198e9393920d483a7260bfb731fb5d25f1aa493335a9e71297e485b7aef312c21800deef121f1e76426a00665e5c4479674322d4f75edadd46debd5cd992f6ed090689d0585ff075ec9e99ad690c3395bc4b313370b38ef355acdadcd122975b12c85ea5db8c6deb4aab71808dcb408fe3d1e7690c43d37b4ce6cc0166fa7daa",
                        "gasLimit" : "0x01adb0",
                        "gasPrice" : "0x01",
                        "nonce" : "0x01",
                        "r" : "0xd8d9b58bb6e4b0e6e14a6ac309b50f7c19f658bef477f24b0ee5b2f012e3a52a",
                        "s" : "0x0c9f3483535f216dc0a391398e4c6b266537f48b93f8c2619007127f76d1edfa",
                        "to" : "0xb94f5374fce5edbc8e2a8697c15331677e6ebf0b",
                        "v" : "0x1c",
                        "value" : "0x00"
                    }
                ],
                "uncleHeaders" : [
                ]
            }
        ],
        "genesisBlockHeader" : {
            "bloom" : "0x00000000000000000000000000000000000000000000000000000000000000000000000000000000000000000000000000000000000000000000000000000000000000000000000000000000000000000000000000000000000000000000000000000000000000000000000000000000000000000000000000000000000000000000000000000000000000000000000000000000000000000000000000000000000000000000000000000000000000000000000000000000000000000000000000000000000000000000000000000000000000000000000000000000000000000000000000000000000000000000000000000000000000000000000000000000",
            "coinbase" : "0x68795c4aa09d6f4ed3e5deddf8c2ad3049a601da",
            "difficulty" : "0x020000",
            "extraData" : "0x42",
            "gasLimit" : "0xd5ce6f",
            "gasUsed" : "0x00",
            "hash" : "0x92fdbb1579b834d62b5fd29f9770bbe616d7fb9ac28a27b7fa9524572b58f4cf",
            "mixHash" : "0x56e81f171bcc55a6ff8345e692c0f86e5b48e01b996cadc001622fb5e363b421",
            "nonce" : "0x0102030405060708",
            "number" : "0x00",
            "parentHash" : "0x0000000000000000000000000000000000000000000000000000000000000000",
            "receiptTrie" : "0x56e81f171bcc55a6ff8345e692c0f86e5b48e01b996cadc001622fb5e363b421",
            "stateRoot" : "0xa58f7365e4f5906e2945541429243a587e9d55bc47a4ea9e4757e58a78d45ac9",
            "timestamp" : "0x03b6",
            "transactionsTrie" : "0x56e81f171bcc55a6ff8345e692c0f86e5b48e01b996cadc001622fb5e363b421",
            "uncleHash" : "0x1dcc4de8dec75d7aab85b567b6ccd41ad312451b948a7413f0a142fd40d49347"
        },
        "genesisRLP" : "0xf901faf901f5a00000000000000000000000000000000000000000000000000000000000000000a01dcc4de8dec75d7aab85b567b6ccd41ad312451b948a7413f0a142fd40d493479468795c4aa09d6f4ed3e5deddf8c2ad3049a601daa0a58f7365e4f5906e2945541429243a587e9d55bc47a4ea9e4757e58a78d45ac9a056e81f171bcc55a6ff8345e692c0f86e5b48e01b996cadc001622fb5e363b421a056e81f171bcc55a6ff8345e692c0f86e5b48e01b996cadc001622fb5e363b421b9010000000000000000000000000000000000000000000000000000000000000000000000000000000000000000000000000000000000000000000000000000000000000000000000000000000000000000000000000000000000000000000000000000000000000000000000000000000000000000000000000000000000000000000000000000000000000000000000000000000000000000000000000000000000000000000000000000000000000000000000000000000000000000000000000000000000000000000000000000000000000000000000000000000000000000000000000000000000000000000000000000000000000000000000000000000000830200008083d5ce6f808203b642a056e81f171bcc55a6ff8345e692c0f86e5b48e01b996cadc001622fb5e363b421880102030405060708c0c0",
        "lastblockhash" : "0x598b4ba87e17172d26184dd2794033cac6f6b3b49fd69783f5f3f3bf549e2cb8",
        "network" : "Homestead",
        "postState" : {
            "0x68795c4aa09d6f4ed3e5deddf8c2ad3049a601da" : {
                "balance" : "0x4563918244f5adb0",
                "code" : "",
                "nonce" : "0x00",
                "storage" : {
                }
            },
            "0xa94f5374fce5edbc8e2a8697c15331677e6ebf0b" : {
                "balance" : "0x0de0b6b3a7625250",
                "code" : "",
                "nonce" : "0x02",
                "storage" : {
                }
            },
            "0xb94f5374fce5edbc8e2a8697c15331677e6ebf0b" : {
                "balance" : "0x00",
                "code" : "0x60203560205260403560405260603560605260803560805260a03560a05260c03560c05260e03560e052610100356101005261012035610120526101403561014052610160356101605261018035610180526101a0356101a0526101c0356101c0526101e0356101e052610200356102005261022035610220526102403561024052610260356102605261028035610280526102a0356102a0526102c0356102c0526102e0356102e05260206103e86000356020600060086207a120f26000556103e851600155",
                "nonce" : "0x00",
                "storage" : {
                }
            },
            "0xc94f5374fce5edbc8e2a8697c15331677e6ebf0b" : {
                "balance" : "0x00",
                "code" : "0x6000356000526020356020527f30644e72e131a029b85045b68181585d2833e84879b9709143e1f593f000000060405260406103e86060600060006007624c4b40f26000556103e85160015561040851600255",
                "nonce" : "0x00",
                "storage" : {
                }
            },
            "0xd94f5374fce5edbc8e2a8697c15331677e6ebf0b" : {
                "balance" : "0x00",
                "code" : "0x60003560005260203560205260403560405260603560605260406103e86080600060006006624c4b40f26000556103e85160015561040851600255",
                "nonce" : "0x00",
                "storage" : {
                }
            }
        },
        "pre" : {
            "0xa94f5374fce5edbc8e2a8697c15331677e6ebf0b" : {
                "balance" : "0x0de0b6b3a7640000",
                "code" : "",
                "nonce" : "0x01",
                "storage" : {
                }
            },
            "0xb94f5374fce5edbc8e2a8697c15331677e6ebf0b" : {
                "balance" : "0x00",
                "code" : "0x60203560205260403560405260603560605260803560805260a03560a05260c03560c05260e03560e052610100356101005261012035610120526101403561014052610160356101605261018035610180526101a0356101a0526101c0356101c0526101e0356101e052610200356102005261022035610220526102403561024052610260356102605261028035610280526102a0356102a0526102c0356102c0526102e0356102e05260206103e86000356020600060086207a120f26000556103e851600155",
                "nonce" : "0x00",
                "storage" : {
                }
            },
            "0xc94f5374fce5edbc8e2a8697c15331677e6ebf0b" : {
                "balance" : "0x00",
                "code" : "0x6000356000526020356020527f30644e72e131a029b85045b68181585d2833e84879b9709143e1f593f000000060405260406103e86060600060006007624c4b40f26000556103e85160015561040851600255",
                "nonce" : "0x00",
                "storage" : {
                }
            },
            "0xd94f5374fce5edbc8e2a8697c15331677e6ebf0b" : {
                "balance" : "0x00",
                "code" : "0x60003560005260203560205260403560405260603560605260406103e86080600060006006624c4b40f26000556103e85160015561040851600255",
                "nonce" : "0x00",
                "storage" : {
                }
            }
        }
    }
}