{
    "pairingTest_d1g2v0_Byzantium" : {
        "_info" : {
            "comment" : "",
            "filledwith" : "cpp-1.3.0+commit.82b0643a.Linux.g++",
            "lllcversion" : "Version: 0.4.20-develop.2018.1.8+commit.2548228b.Linux.g++",
            "source" : "src/BlockchainTestsFiller/GeneralStateTests/stZeroKnowledge/pairingTest_d1g2v0Filler.json",
            "sourceHash" : "6258d2bffdf5225f9af5ee4f3a0b4a7104658af63add27dbc50ef17a182b41c9"
        },
        "blocks" : [
            {
                "blockHeader" : {
                    "bloom" : "0x00000000000000000000000000000000000000000000000000000000000000000000000000000000000000000000000000000000000000000000000000000000000000000000000000000000000000000000000000000000000000000000000000000000000000000000000000000000000000000000000000000000000000000000000000000000000000000000000000000000000000000000000000000000000000000000000000000000000000000000000000000000000000000000000000000000000000000000000000000000000000000000000000000000000000000000000000000000000000000000000000000000000000000000000000000000",
                    "coinbase" : "0x68795c4aa09d6f4ed3e5deddf8c2ad3049a601da",
                    "difficulty" : "0x020000",
                    "extraData" : "",
                    "gasLimit" : "0xd5ce6f",
                    "gasUsed" : "0x01adb0",
                    "hash" : "0x0b6404ce66ef2d58040c4d122e8d7efc0542613516f9099dbceb97ca8adeb45a",
                    "mixHash" : "0x5cd948230265333f19aef1bfb7497d38d42a809f720f9c74fe5c550ccb8077c5",
                    "nonce" : "0x5060f134d222b9d7",
                    "number" : "0x01",
                    "parentHash" : "0x92fdbb1579b834d62b5fd29f9770bbe616d7fb9ac28a27b7fa9524572b58f4cf",
                    "receiptTrie" : "0xfd21849a7839c2c75da6c5f2828e953f017b356f3e968aba1a97ac6f6c5b31f3",
                    "stateRoot" : "0x121699bf65d31af9e003c7c614bfabcae3104212d187119a3026a60cf945dd57",
                    "timestamp" : "0x03e8",
                    "transactionsTrie" : "0x1bbe0b769c79299ff535601eaa35858283e4a2465c192958a30074aa0a629299",
                    "uncleHash" : "0x1dcc4de8dec75d7aab85b567b6ccd41ad312451b948a7413f0a142fd40d49347"
                },
                "rlp" : "0xf90404f901f8a092fdbb1579b834d62b5fd29f9770bbe616d7fb9ac28a27b7fa9524572b58f4cfa01dcc4de8dec75d7aab85b567b6ccd41ad312451b948a7413f0a142fd40d493479468795c4aa09d6f4ed3e5deddf8c2ad3049a601daa0121699bf65d31af9e003c7c614bfabcae3104212d187119a3026a60cf945dd57a01bbe0b769c79299ff535601eaa35858283e4a2465c192958a30074aa0a629299a0fd21849a7839c2c75da6c5f2828e953f017b356f3e968aba1a97ac6f6c5b31f3b9010000000000000000000000000000000000000000000000000000000000000000000000000000000000000000000000000000000000000000000000000000000000000000000000000000000000000000000000000000000000000000000000000000000000000000000000000000000000000000000000000000000000000000000000000000000000000000000000000000000000000000000000000000000000000000000000000000000000000000000000000000000000000000000000000000000000000000000000000000000000000000000000000000000000000000000000000000000000000000000000000000000000000000000000000000000000830200000183d5ce6f8301adb08203e880a05cd948230265333f19aef1bfb7497d38d42a809f720f9c74fe5c550ccb8077c5885060f134d222b9d7f90205f9020201018301adb094b94f5374fce5edbc8e2a8697c15331677e6ebf0b80b901a000000000000000000000000000000000000000000000000000000000000001802eca0c7238bf16e83e7a1e6c5d49540685ff51380f309842a98561558019fc0203d3260361bb8451de5ff5ecd17f010ff22f5c31cdf184e9020b06fa5997db841213d2149b006137fcfb23036606f848d638d576a120ca981b5b1a5f9300b3ee2276cf730cf493cd95d64677bbb75fc42db72513a4c1e387b476d056f80aa75f21ee6226d31426322afcda621464d0611d226783262e21bb3bc86b537e986237096df1f82dff337dd5972e32a8ad43e28a78a96a823ef1cd4debe12b6552ea5f06967a1237ebfeca9aaae0d6d0bab8e28c198c5a339ef8a2407e31cdac516db922160fa257a5fd5b280642ff47b65eca77e626cb685c84fa6d3b6882a283ddd1198e9393920d483a7260bfb731fb5d25f1aa493335a9e71297e485b7aef312c21800deef121f1e76426a00665e5c4479674322d4f75edadd46debd5cd992f6ed090689d0585ff075ec9e99ad690c3395bc4b313370b38ef355acdadcd122975b12c85ea5db8c6deb4aab71808dcb408fe3d1e7690c43d37b4ce6cc0166fa7daa1ba0177e145cbac6da4ff7073635e57c700d1d0ed7c93db9ebbff0737862145ac928a060a56dabc5f72da17eb2e086c7af1e96ecee4a6faeff08b55d6af71d4d7b5082c0",
                "transactions" : [
                    {
                        "data" : "0x00000000000000000000000000000000000000000000000000000000000001802eca0c7238bf16e83e7a1e6c5d49540685ff51380f309842a98561558019fc0203d3260361bb8451de5ff5ecd17f010ff22f5c31cdf184e9020b06fa5997db841213d2149b006137fcfb23036606f848d638d576a120ca981b5b1a5f9300b3ee2276cf730cf493cd95d64677bbb75fc42db72513a4c1e387b476d056f80aa75f21ee6226d31426322afcda621464d0611d226783262e21bb3bc86b537e986237096df1f82dff337dd5972e32a8ad43e28a78a96a823ef1cd4debe12b6552ea5f06967a1237ebfeca9aaae0d6d0bab8e28c198c5a339ef8a2407e31cdac516db922160fa257a5fd5b280642ff47b65eca77e626cb685c84fa6d3b6882a283ddd1198e9393920d483a7260bfb731fb5d25f1aa493335a9e71297e485b7aef312c21800deef121f1e76426a00665e5c4479674322d4f75edadd46debd5cd992f6ed090689d0585ff075ec9e99ad690c3395bc4b313370b38ef355acdadcd122975b12c85ea5db8c6deb4aab71808dcb408fe3d1e7690c43d37b4ce6cc0166fa7daa",
                        "gasLimit" : "0x01adb0",
                        "gasPrice" : "0x01",
                        "nonce" : "0x01",
                        "r" : "0x177e145cbac6da4ff7073635e57c700d1d0ed7c93db9ebbff0737862145ac928",
                        "s" : "0x60a56dabc5f72da17eb2e086c7af1e96ecee4a6faeff08b55d6af71d4d7b5082",
                        "to" : "0xb94f5374fce5edbc8e2a8697c15331677e6ebf0b",
                        "v" : "0x1b",
                        "value" : "0x00"
                    }
                ],
                "uncleHeaders" : [
                ]
            }
        ],
        "genesisBlockHeader" : {
            "bloom" : "0x00000000000000000000000000000000000000000000000000000000000000000000000000000000000000000000000000000000000000000000000000000000000000000000000000000000000000000000000000000000000000000000000000000000000000000000000000000000000000000000000000000000000000000000000000000000000000000000000000000000000000000000000000000000000000000000000000000000000000000000000000000000000000000000000000000000000000000000000000000000000000000000000000000000000000000000000000000000000000000000000000000000000000000000000000000000",
            "coinbase" : "0x68795c4aa09d6f4ed3e5deddf8c2ad3049a601da",
            "difficulty" : "0x020000",
            "extraData" : "0x42",
            "gasLimit" : "0xd5ce6f",
            "gasUsed" : "0x00",
            "hash" : "0x92fdbb1579b834d62b5fd29f9770bbe616d7fb9ac28a27b7fa9524572b58f4cf",
            "mixHash" : "0x56e81f171bcc55a6ff8345e692c0f86e5b48e01b996cadc001622fb5e363b421",
            "nonce" : "0x0102030405060708",
            "number" : "0x00",
            "parentHash" : "0x0000000000000000000000000000000000000000000000000000000000000000",
            "receiptTrie" : "0x56e81f171bcc55a6ff8345e692c0f86e5b48e01b996cadc001622fb5e363b421",
            "stateRoot" : "0xa58f7365e4f5906e2945541429243a587e9d55bc47a4ea9e4757e58a78d45ac9",
            "timestamp" : "0x03b6",
            "transactionsTrie" : "0x56e81f171bcc55a6ff8345e692c0f86e5b48e01b996cadc001622fb5e363b421",
            "uncleHash" : "0x1dcc4de8dec75d7aab85b567b6ccd41ad312451b948a7413f0a142fd40d49347"
        },
        "genesisRLP" : "0xf901faf901f5a00000000000000000000000000000000000000000000000000000000000000000a01dcc4de8dec75d7aab85b567b6ccd41ad312451b948a7413f0a142fd40d493479468795c4aa09d6f4ed3e5deddf8c2ad3049a601daa0a58f7365e4f5906e2945541429243a587e9d55bc47a4ea9e4757e58a78d45ac9a056e81f171bcc55a6ff8345e692c0f86e5b48e01b996cadc001622fb5e363b421a056e81f171bcc55a6ff8345e692c0f86e5b48e01b996cadc001622fb5e363b421b9010000000000000000000000000000000000000000000000000000000000000000000000000000000000000000000000000000000000000000000000000000000000000000000000000000000000000000000000000000000000000000000000000000000000000000000000000000000000000000000000000000000000000000000000000000000000000000000000000000000000000000000000000000000000000000000000000000000000000000000000000000000000000000000000000000000000000000000000000000000000000000000000000000000000000000000000000000000000000000000000000000000000000000000000000000000000830200008083d5ce6f808203b642a056e81f171bcc55a6ff8345e692c0f86e5b48e01b996cadc001622fb5e363b421880102030405060708c0c0",
        "lastblockhash" : "0x0b6404ce66ef2d58040c4d122e8d7efc0542613516f9099dbceb97ca8adeb45a",
        "network" : "Byzantium",
        "postState" : {
            "0x68795c4aa09d6f4ed3e5deddf8c2ad3049a601da" : {
                "balance" : "0x29a2241af62dadb0",
                "code" : "",
                "nonce" : "0x00",
                "storage" : {
                }
            },
            "0xa94f5374fce5edbc8e2a8697c15331677e6ebf0b" : {
                "balance" : "0x0de0b6b3a7625250",
                "code" : "",
                "nonce" : "0x02",
                "storage" : {
                }
            },
            "0xb94f5374fce5edbc8e2a8697c15331677e6ebf0b" : {
                "balance" : "0x00",
                "code" : "0x60203560205260403560405260603560605260803560805260a03560a05260c03560c05260e03560e052610100356101005261012035610120526101403561014052610160356101605261018035610180526101a0356101a0526101c0356101c0526101e0356101e052610200356102005261022035610220526102403561024052610260356102605261028035610280526102a0356102a0526102c0356102c0526102e0356102e05260206103e86000356020600060086207a120f26000556103e851600155",
                "nonce" : "0x00",
                "storage" : {
                }
            },
            "0xc94f5374fce5edbc8e2a8697c15331677e6ebf0b" : {
                "balance" : "0x00",
                "code" : "0x6000356000526020356020527f30644e72e131a029b85045b68181585d2833e84879b9709143e1f593f000000060405260406103e86060600060006007624c4b40f26000556103e85160015561040851600255",
                "nonce" : "0x00",
                "storage" : {
                }
            },
            "0xd94f5374fce5edbc8e2a8697c15331677e6ebf0b" : {
                "balance" : "0x00",
                "code" : "0x60003560005260203560205260403560405260603560605260406103e86080600060006006624c4b40f26000556103e85160015561040851600255",
                "nonce" : "0x00",
                "storage" : {
                }
            }
        },
        "pre" : {
            "0xa94f5374fce5edbc8e2a8697c15331677e6ebf0b" : {
                "balance" : "0x0de0b6b3a7640000",
                "code" : "",
                "nonce" : "0x01",
                "storage" : {
                }
            },
            "0xb94f5374fce5edbc8e2a8697c15331677e6ebf0b" : {
                "balance" : "0x00",
                "code" : "0x60203560205260403560405260603560605260803560805260a03560a05260c03560c05260e03560e052610100356101005261012035610120526101403561014052610160356101605261018035610180526101a0356101a0526101c0356101c0526101e0356101e052610200356102005261022035610220526102403561024052610260356102605261028035610280526102a0356102a0526102c0356102c0526102e0356102e05260206103e86000356020600060086207a120f26000556103e851600155",
                "nonce" : "0x00",
                "storage" : {
                }
            },
            "0xc94f5374fce5edbc8e2a8697c15331677e6ebf0b" : {
                "balance" : "0x00",
                "code" : "0x6000356000526020356020527f30644e72e131a029b85045b68181585d2833e84879b9709143e1f593f000000060405260406103e86060600060006007624c4b40f26000556103e85160015561040851600255",
                "nonce" : "0x00",
                "storage" : {
                }
            },
            "0xd94f5374fce5edbc8e2a8697c15331677e6ebf0b" : {
                "balance" : "0x00",
                "code" : "0x60003560005260203560205260403560405260603560605260406103e86080600060006006624c4b40f26000556103e85160015561040851600255",
                "nonce" : "0x00",
                "storage" : {
                }
            }
        }
    },
    "pairingTest_d1g2v0_Homestead" : {
        "_info" : {
            "comment" : "",
            "filledwith" : "cpp-1.3.0+commit.82b0643a.Linux.g++",
            "lllcversion" : "Version: 0.4.20-develop.2018.1.8+commit.2548228b.Linux.g++",
            "source" : "src/BlockchainTestsFiller/GeneralStateTests/stZeroKnowledge/pairingTest_d1g2v0Filler.json",
            "sourceHash" : "6258d2bffdf5225f9af5ee4f3a0b4a7104658af63add27dbc50ef17a182b41c9"
        },
        "blocks" : [
            {
                "blockHeader" : {
                    "bloom" : "0x00000000000000000000000000000000000000000000000000000000000000000000000000000000000000000000000000000000000000000000000000000000000000000000000000000000000000000000000000000000000000000000000000000000000000000000000000000000000000000000000000000000000000000000000000000000000000000000000000000000000000000000000000000000000000000000000000000000000000000000000000000000000000000000000000000000000000000000000000000000000000000000000000000000000000000000000000000000000000000000000000000000000000000000000000000000",
                    "coinbase" : "0x68795c4aa09d6f4ed3e5deddf8c2ad3049a601da",
                    "difficulty" : "0x020000",
                    "extraData" : "",
                    "gasLimit" : "0xd5ce6f",
                    "gasUsed" : "0x01adb0",
                    "hash" : "0x55bf2117c7eb00c60af621bbd53399233bd084e82a7a961ff4eb77fd939ed176",
                    "mixHash" : "0x1f51b51a239a61bdc5f233551bf811430ec6ae8ef298cb6ead5b54bafd93fb98",
                    "nonce" : "0x3e66d4b17582560f",
                    "number" : "0x01",
                    "parentHash" : "0x92fdbb1579b834d62b5fd29f9770bbe616d7fb9ac28a27b7fa9524572b58f4cf",
                    "receiptTrie" : "0x0e0058bb6d17253bb009ff5c635cae0e902c73d5425fc59d241955663338d2ea",
                    "stateRoot" : "0x40595f3ab478c43f98e5d4a690b42b55983359fce12448bddf8872d4a06021db",
                    "timestamp" : "0x03e8",
                    "transactionsTrie" : "0x1bbe0b769c79299ff535601eaa35858283e4a2465c192958a30074aa0a629299",
                    "uncleHash" : "0x1dcc4de8dec75d7aab85b567b6ccd41ad312451b948a7413f0a142fd40d49347"
                },
                "rlp" : "0xf90404f901f8a092fdbb1579b834d62b5fd29f9770bbe616d7fb9ac28a27b7fa9524572b58f4cfa01dcc4de8dec75d7aab85b567b6ccd41ad312451b948a7413f0a142fd40d493479468795c4aa09d6f4ed3e5deddf8c2ad3049a601daa040595f3ab478c43f98e5d4a690b42b55983359fce12448bddf8872d4a06021dba01bbe0b769c79299ff535601eaa35858283e4a2465c192958a30074aa0a629299a00e0058bb6d17253bb009ff5c635cae0e902c73d5425fc59d241955663338d2eab9010000000000000000000000000000000000000000000000000000000000000000000000000000000000000000000000000000000000000000000000000000000000000000000000000000000000000000000000000000000000000000000000000000000000000000000000000000000000000000000000000000000000000000000000000000000000000000000000000000000000000000000000000000000000000000000000000000000000000000000000000000000000000000000000000000000000000000000000000000000000000000000000000000000000000000000000000000000000000000000000000000000000000000000000000000000000830200000183d5ce6f8301adb08203e880a01f51b51a239a61bdc5f233551bf811430ec6ae8ef298cb6ead5b54bafd93fb98883e66d4b17582560ff90205f9020201018301adb094b94f5374fce5edbc8e2a8697c15331677e6ebf0b80b901a000000000000000000000000000000000000000000000000000000000000001802eca0c7238bf16e83e7a1e6c5d49540685ff51380f309842a98561558019fc0203d3260361bb8451de5ff5ecd17f010ff22f5c31cdf184e9020b06fa5997db841213d2149b006137fcfb23036606f848d638d576a120ca981b5b1a5f9300b3ee2276cf730cf493cd95d64677bbb75fc42db72513a4c1e387b476d056f80aa75f21ee6226d31426322afcda621464d0611d226783262e21bb3bc86b537e986237096df1f82dff337dd5972e32a8ad43e28a78a96a823ef1cd4debe12b6552ea5f06967a1237ebfeca9aaae0d6d0bab8e28c198c5a339ef8a2407e31cdac516db922160fa257a5fd5b280642ff47b65eca77e626cb685c84fa6d3b6882a283ddd1198e9393920d483a7260bfb731fb5d25f1aa493335a9e71297e485b7aef312c21800deef121f1e76426a00665e5c4479674322d4f75edadd46debd5cd992f6ed090689d0585ff075ec9e99ad690c3395bc4b313370b38ef355acdadcd122975b12c85ea5db8c6deb4aab71808dcb408fe3d1e7690c43d37b4ce6cc0166fa7daa1ba0177e145cbac6da4ff7073635e57c700d1d0ed7c93db9ebbff0737862145ac928a060a56dabc5f72da17eb2e086c7af1e96ecee4a6faeff08b55d6af71d4d7b5082c0",
                "transactions" : [
                    {
                        "data" : "0x00000000000000000000000000000000000000000000000000000000000001802eca0c7238bf16e83e7a1e6c5d49540685ff51380f309842a98561558019fc0203d3260361bb8451de5ff5ecd17f010ff22f5c31cdf184e9020b06fa5997db841213d2149b006137fcfb23036606f848d638d576a120ca981b5b1a5f9300b3ee2276cf730cf493cd95d64677bbb75fc42db72513a4c1e387b476d056f80aa75f21ee6226d31426322afcda621464d0611d226783262e21bb3bc86b537e986237096df1f82dff337dd5972e32a8ad43e28a78a96a823ef1cd4debe12b6552ea5f06967a1237ebfeca9aaae0d6d0bab8e28c198c5a339ef8a2407e31cdac516db922160fa257a5fd5b280642ff47b65eca77e626cb685c84fa6d3b6882a283ddd1198e9393920d483a7260bfb731fb5d25f1aa493335a9e71297e485b7aef312c21800deef121f1e76426a00665e5c4479674322d4f75edadd46debd5cd992f6ed090689d0585ff075ec9e99ad690c3395bc4b313370b38ef355acdadcd122975b12c85ea5db8c6deb4aab71808dcb408fe3d1e7690c43d37b4ce6cc0166fa7daa",
                        "gasLimit" : "0x01adb0",
                        "gasPrice" : "0x01",
                        "nonce" : "0x01",
                        "r" : "0x177e145cbac6da4ff7073635e57c700d1d0ed7c93db9ebbff0737862145ac928",
                        "s" : "0x60a56dabc5f72da17eb2e086c7af1e96ecee4a6faeff08b55d6af71d4d7b5082",
                        "to" : "0xb94f5374fce5edbc8e2a8697c15331677e6ebf0b",
                        "v" : "0x1b",
                        "value" : "0x00"
                    }
                ],
                "uncleHeaders" : [
                ]
            }
        ],
        "genesisBlockHeader" : {
            "bloom" : "0x00000000000000000000000000000000000000000000000000000000000000000000000000000000000000000000000000000000000000000000000000000000000000000000000000000000000000000000000000000000000000000000000000000000000000000000000000000000000000000000000000000000000000000000000000000000000000000000000000000000000000000000000000000000000000000000000000000000000000000000000000000000000000000000000000000000000000000000000000000000000000000000000000000000000000000000000000000000000000000000000000000000000000000000000000000000",
            "coinbase" : "0x68795c4aa09d6f4ed3e5deddf8c2ad3049a601da",
            "difficulty" : "0x020000",
            "extraData" : "0x42",
            "gasLimit" : "0xd5ce6f",
            "gasUsed" : "0x00",
            "hash" : "0x92fdbb1579b834d62b5fd29f9770bbe616d7fb9ac28a27b7fa9524572b58f4cf",
            "mixHash" : "0x56e81f171bcc55a6ff8345e692c0f86e5b48e01b996cadc001622fb5e363b421",
            "nonce" : "0x0102030405060708",
            "number" : "0x00",
            "parentHash" : "0x0000000000000000000000000000000000000000000000000000000000000000",
            "receiptTrie" : "0x56e81f171bcc55a6ff8345e692c0f86e5b48e01b996cadc001622fb5e363b421",
            "stateRoot" : "0xa58f7365e4f5906e2945541429243a587e9d55bc47a4ea9e4757e58a78d45ac9",
            "timestamp" : "0x03b6",
            "transactionsTrie" : "0x56e81f171bcc55a6ff8345e692c0f86e5b48e01b996cadc001622fb5e363b421",
            "uncleHash" : "0x1dcc4de8dec75d7aab85b567b6ccd41ad312451b948a7413f0a142fd40d49347"
        },
        "genesisRLP" : "0xf901faf901f5a00000000000000000000000000000000000000000000000000000000000000000a01dcc4de8dec75d7aab85b567b6ccd41ad312451b948a7413f0a142fd40d493479468795c4aa09d6f4ed3e5deddf8c2ad3049a601daa0a58f7365e4f5906e2945541429243a587e9d55bc47a4ea9e4757e58a78d45ac9a056e81f171bcc55a6ff8345e692c0f86e5b48e01b996cadc001622fb5e363b421a056e81f171bcc55a6ff8345e692c0f86e5b48e01b996cadc001622fb5e363b421b9010000000000000000000000000000000000000000000000000000000000000000000000000000000000000000000000000000000000000000000000000000000000000000000000000000000000000000000000000000000000000000000000000000000000000000000000000000000000000000000000000000000000000000000000000000000000000000000000000000000000000000000000000000000000000000000000000000000000000000000000000000000000000000000000000000000000000000000000000000000000000000000000000000000000000000000000000000000000000000000000000000000000000000000000000000000000830200008083d5ce6f808203b642a056e81f171bcc55a6ff8345e692c0f86e5b48e01b996cadc001622fb5e363b421880102030405060708c0c0",
        "lastblockhash" : "0x55bf2117c7eb00c60af621bbd53399233bd084e82a7a961ff4eb77fd939ed176",
        "network" : "Homestead",
        "postState" : {
            "0x68795c4aa09d6f4ed3e5deddf8c2ad3049a601da" : {
                "balance" : "0x4563918244f5adb0",
                "code" : "",
                "nonce" : "0x00",
                "storage" : {
                }
            },
            "0xa94f5374fce5edbc8e2a8697c15331677e6ebf0b" : {
                "balance" : "0x0de0b6b3a7625250",
                "code" : "",
                "nonce" : "0x02",
                "storage" : {
                }
            },
            "0xb94f5374fce5edbc8e2a8697c15331677e6ebf0b" : {
                "balance" : "0x00",
                "code" : "0x60203560205260403560405260603560605260803560805260a03560a05260c03560c05260e03560e052610100356101005261012035610120526101403561014052610160356101605261018035610180526101a0356101a0526101c0356101c0526101e0356101e052610200356102005261022035610220526102403561024052610260356102605261028035610280526102a0356102a0526102c0356102c0526102e0356102e05260206103e86000356020600060086207a120f26000556103e851600155",
                "nonce" : "0x00",
                "storage" : {
                }
            },
            "0xc94f5374fce5edbc8e2a8697c15331677e6ebf0b" : {
                "balance" : "0x00",
                "code" : "0x6000356000526020356020527f30644e72e131a029b85045b68181585d2833e84879b9709143e1f593f000000060405260406103e86060600060006007624c4b40f26000556103e85160015561040851600255",
                "nonce" : "0x00",
                "storage" : {
                }
            },
            "0xd94f5374fce5edbc8e2a8697c15331677e6ebf0b" : {
                "balance" : "0x00",
                "code" : "0x60003560005260203560205260403560405260603560605260406103e86080600060006006624c4b40f26000556103e85160015561040851600255",
                "nonce" : "0x00",
                "storage" : {
                }
            }
        },
        "pre" : {
            "0xa94f5374fce5edbc8e2a8697c15331677e6ebf0b" : {
                "balance" : "0x0de0b6b3a7640000",
                "code" : "",
                "nonce" : "0x01",
                "storage" : {
                }
            },
            "0xb94f5374fce5edbc8e2a8697c15331677e6ebf0b" : {
                "balance" : "0x00",
                "code" : "0x60203560205260403560405260603560605260803560805260a03560a05260c03560c05260e03560e052610100356101005261012035610120526101403561014052610160356101605261018035610180526101a0356101a0526101c0356101c0526101e0356101e052610200356102005261022035610220526102403561024052610260356102605261028035610280526102a0356102a0526102c0356102c0526102e0356102e05260206103e86000356020600060086207a120f26000556103e851600155",
                "nonce" : "0x00",
                "storage" : {
                }
            },
            "0xc94f5374fce5edbc8e2a8697c15331677e6ebf0b" : {
                "balance" : "0x00",
                "code" : "0x6000356000526020356020527f30644e72e131a029b85045b68181585d2833e84879b9709143e1f593f000000060405260406103e86060600060006007624c4b40f26000556103e85160015561040851600255",
                "nonce" : "0x00",
                "storage" : {
                }
            },
            "0xd94f5374fce5edbc8e2a8697c15331677e6ebf0b" : {
                "balance" : "0x00",
                "code" : "0x60003560005260203560205260403560405260603560605260406103e86080600060006006624c4b40f26000556103e85160015561040851600255",
                "nonce" : "0x00",
                "storage" : {
                }
            }
        }
    }
}