{
    "pointAdd_d2g3v0_Byzantium" : {
        "_info" : {
            "comment" : "",
            "filledwith" : "cpp-1.3.0+commit.6e0ce939.Linux.g++",
            "lllcversion" : "Version: 0.4.18-develop.2017.9.25+commit.a72237f2.Linux.g++",
            "source" : "src/BlockchainTestsFiller/GeneralStateTests/stZeroKnowledge/pointAdd_d2g3v0Filler.json",
            "sourceHash" : "fc130199a02ec19edc9988ae18c3d0a1c9a381b989508f6acbf546a0ebdac156"
        },
        "blocks" : [
            {
                "blockHeader" : {
                    "bloom" : "0x00000000000000000000000000000000000000000000000000000000000000000000000000000000000000000000000000000000000000000000000000000000000000000000000000000000000000000000000000000000000000000000000000000000000000000000000000000000000000000000000000000000000000000000000000000000000000000000000000000000000000000000000000000000000000000000000000000000000000000000000000000000000000000000000000000000000000000000000000000000000000000000000000000000000000000000000000000000000000000000000000000000000000000000000000000000",
                    "coinbase" : "0x68795c4aa09d6f4ed3e5deddf8c2ad3049a601da",
                    "difficulty" : "0x020000",
                    "extraData" : "",
                    "gasLimit" : "0x3d37ef",
                    "gasUsed" : "0x030d40",
                    "hash" : "0x4b00abd3628d5d878008c4d5d8bb3bded361fb67ead6eb1b3fa19284c74431ea",
                    "mixHash" : "0x0285c427e5116fa8552d7273c6ba86fed08521bcd5aeb92ce9185e2b5a93c894",
                    "nonce" : "0xa8f17cdb13f12d69",
                    "number" : "0x01",
                    "parentHash" : "0x2118829a9759bb62ed2abe42ed2598a8e3d842cb41576be1c436b9f6dbd9cedc",
                    "receiptTrie" : "0xea5b87d12423d7570eb418dcdbb9f547f8fcc0577bd026d2189fd8fb550b85cf",
                    "stateRoot" : "0x636b77fb7d5e94f86a20d2dd159f64f2ec3f34a92f3b75b6d0eea625ab0f29d6",
                    "timestamp" : "0x03e8",
                    "transactionsTrie" : "0xb128faad49ed45066940ea64d9c9f88fc372abb912c3bf255b81c536ef95ccfb",
                    "uncleHash" : "0x1dcc4de8dec75d7aab85b567b6ccd41ad312451b948a7413f0a142fd40d49347"
                },
                "rlp" : "0xf902e1f901f8a02118829a9759bb62ed2abe42ed2598a8e3d842cb41576be1c436b9f6dbd9cedca01dcc4de8dec75d7aab85b567b6ccd41ad312451b948a7413f0a142fd40d493479468795c4aa09d6f4ed3e5deddf8c2ad3049a601daa0636b77fb7d5e94f86a20d2dd159f64f2ec3f34a92f3b75b6d0eea625ab0f29d6a0b128faad49ed45066940ea64d9c9f88fc372abb912c3bf255b81c536ef95ccfba0ea5b87d12423d7570eb418dcdbb9f547f8fcc0577bd026d2189fd8fb550b85cfb90100000000000000000000000000000000000000000000000000000000000000000000000000000000000000000000000000000000000000000000000000000000000000000000000000000000000000000000000000000000000000000000000000000000000000000000000000000000000000000000000000000000000000000000000000000000000000000000000000000000000000000000000000000000000000000000000000000000000000000000000000000000000000000000000000000000000000000000000000000000000000000000000000000000000000000000000000000000000000000000000000000000000000000000000000000000008302000001833d37ef83030d408203e880a00285c427e5116fa8552d7273c6ba86fed08521bcd5aeb92ce9185e2b5a93c89488a8f17cdb13f12d69f8e3f8e1010183030d4094b94f5374fce5edbc8e2a8697c15331677e6ebf0b80b8800f25929bcb43d5a57391564615c9e70a992b10eafa4db109709649cf48c50dd216da2f5cb6be7a0aa72c440c53c9bbdfec6c36c7d515536431b3a865468acbba0f25919bcb43d5a57391564615c9e70a992b10eafa4db109709649cf48c50dd216da2f5cb6be7a0aa72c440c53c9bbdfec6c36c7d515536431b3a865468acbba1ba0d7d39d3609726bf4538f008b1cdeae885086a032480cc97e88139755fa75037ca046ab723cf5bae346607f32cb4500ed1c2257b1befefdedb485d83b9094c2c4d0c0",
                "transactions" : [
                    {
                        "data" : "0x0f25929bcb43d5a57391564615c9e70a992b10eafa4db109709649cf48c50dd216da2f5cb6be7a0aa72c440c53c9bbdfec6c36c7d515536431b3a865468acbba0f25919bcb43d5a57391564615c9e70a992b10eafa4db109709649cf48c50dd216da2f5cb6be7a0aa72c440c53c9bbdfec6c36c7d515536431b3a865468acbba",
                        "gasLimit" : "0x030d40",
                        "gasPrice" : "0x01",
                        "nonce" : "0x01",
                        "r" : "0xd7d39d3609726bf4538f008b1cdeae885086a032480cc97e88139755fa75037c",
                        "s" : "0x46ab723cf5bae346607f32cb4500ed1c2257b1befefdedb485d83b9094c2c4d0",
                        "to" : "0xb94f5374fce5edbc8e2a8697c15331677e6ebf0b",
                        "v" : "0x1b",
                        "value" : "0x00"
                    }
                ],
                "uncleHeaders" : [
                ]
            }
        ],
        "genesisBlockHeader" : {
            "bloom" : "0x00000000000000000000000000000000000000000000000000000000000000000000000000000000000000000000000000000000000000000000000000000000000000000000000000000000000000000000000000000000000000000000000000000000000000000000000000000000000000000000000000000000000000000000000000000000000000000000000000000000000000000000000000000000000000000000000000000000000000000000000000000000000000000000000000000000000000000000000000000000000000000000000000000000000000000000000000000000000000000000000000000000000000000000000000000000",
            "coinbase" : "0x68795c4aa09d6f4ed3e5deddf8c2ad3049a601da",
            "difficulty" : "0x020000",
            "extraData" : "0x42",
            "gasLimit" : "0x3d37ef",
            "gasUsed" : "0x00",
            "hash" : "0x2118829a9759bb62ed2abe42ed2598a8e3d842cb41576be1c436b9f6dbd9cedc",
            "mixHash" : "0x56e81f171bcc55a6ff8345e692c0f86e5b48e01b996cadc001622fb5e363b421",
            "nonce" : "0x0102030405060708",
            "number" : "0x00",
            "parentHash" : "0x0000000000000000000000000000000000000000000000000000000000000000",
            "receiptTrie" : "0x56e81f171bcc55a6ff8345e692c0f86e5b48e01b996cadc001622fb5e363b421",
            "stateRoot" : "0x95a0fc3312fd9e68d98cef6cb2a346c69bc7f2cd87d6c9b2dffdf4b49262223f",
            "timestamp" : "0x03b6",
            "transactionsTrie" : "0x56e81f171bcc55a6ff8345e692c0f86e5b48e01b996cadc001622fb5e363b421",
            "uncleHash" : "0x1dcc4de8dec75d7aab85b567b6ccd41ad312451b948a7413f0a142fd40d49347"
        },
        "genesisRLP" : "0xf901faf901f5a00000000000000000000000000000000000000000000000000000000000000000a01dcc4de8dec75d7aab85b567b6ccd41ad312451b948a7413f0a142fd40d493479468795c4aa09d6f4ed3e5deddf8c2ad3049a601daa095a0fc3312fd9e68d98cef6cb2a346c69bc7f2cd87d6c9b2dffdf4b49262223fa056e81f171bcc55a6ff8345e692c0f86e5b48e01b996cadc001622fb5e363b421a056e81f171bcc55a6ff8345e692c0f86e5b48e01b996cadc001622fb5e363b421b90100000000000000000000000000000000000000000000000000000000000000000000000000000000000000000000000000000000000000000000000000000000000000000000000000000000000000000000000000000000000000000000000000000000000000000000000000000000000000000000000000000000000000000000000000000000000000000000000000000000000000000000000000000000000000000000000000000000000000000000000000000000000000000000000000000000000000000000000000000000000000000000000000000000000000000000000000000000000000000000000000000000000000000000000000000000008302000080833d37ef808203b642a056e81f171bcc55a6ff8345e692c0f86e5b48e01b996cadc001622fb5e363b421880102030405060708c0c0",
        "lastblockhash" : "0x4b00abd3628d5d878008c4d5d8bb3bded361fb67ead6eb1b3fa19284c74431ea",
        "network" : "Byzantium",
        "postState" : {
            "0x68795c4aa09d6f4ed3e5deddf8c2ad3049a601da" : {
                "balance" : "0x29a2241af62f0d40",
                "code" : "",
                "nonce" : "0x00",
                "storage" : {
                }
            },
            "0xa94f5374fce5edbc8e2a8697c15331677e6ebf0b" : {
                "balance" : "0x0de0b6b3a760f2c0",
                "code" : "",
                "nonce" : "0x02",
                "storage" : {
                }
            },
            "0xb94f5374fce5edbc8e2a8697c15331677e6ebf0b" : {
                "balance" : "0x00",
                "code" : "0x600035600052602035602052604035604052606035606052604060c860806000600060066207a120f260005560c85160015560e851600255",
                "nonce" : "0x00",
                "storage" : {
                }
            }
        },
        "pre" : {
            "0xa94f5374fce5edbc8e2a8697c15331677e6ebf0b" : {
                "balance" : "0x0de0b6b3a7640000",
                "code" : "",
                "nonce" : "0x01",
                "storage" : {
                }
            },
            "0xb94f5374fce5edbc8e2a8697c15331677e6ebf0b" : {
                "balance" : "0x00",
                "code" : "0x600035600052602035602052604035604052606035606052604060c860806000600060066207a120f260005560c85160015560e851600255",
                "nonce" : "0x00",
                "storage" : {
                }
            }
        }
    },
    "pointAdd_d2g3v0_EIP150" : {
        "_info" : {
            "comment" : "",
            "filledwith" : "cpp-1.3.0+commit.6e0ce939.Linux.g++",
            "lllcversion" : "Version: 0.4.18-develop.2017.9.25+commit.a72237f2.Linux.g++",
            "source" : "src/BlockchainTestsFiller/GeneralStateTests/stZeroKnowledge/pointAdd_d2g3v0Filler.json",
            "sourceHash" : "fc130199a02ec19edc9988ae18c3d0a1c9a381b989508f6acbf546a0ebdac156"
        },
        "blocks" : [
            {
                "blockHeader" : {
                    "bloom" : "0x00000000000000000000000000000000000000000000000000000000000000000000000000000000000000000000000000000000000000000000000000000000000000000000000000000000000000000000000000000000000000000000000000000000000000000000000000000000000000000000000000000000000000000000000000000000000000000000000000000000000000000000000000000000000000000000000000000000000000000000000000000000000000000000000000000000000000000000000000000000000000000000000000000000000000000000000000000000000000000000000000000000000000000000000000000000",
                    "coinbase" : "0x68795c4aa09d6f4ed3e5deddf8c2ad3049a601da",
                    "difficulty" : "0x020000",
                    "extraData" : "",
                    "gasLimit" : "0x3d37ef",
                    "gasUsed" : "0xec69",
                    "hash" : "0xcd7229ae69f47f9276633014b3413d768cb3d6d0b088fab319069dc9a73d3fe3",
                    "mixHash" : "0xa3fcab3020f4d75129e590f415364fcc152bddaf265d3e363f4187eb14b523dc",
                    "nonce" : "0x71668261b9e54a99",
                    "number" : "0x01",
                    "parentHash" : "0x2118829a9759bb62ed2abe42ed2598a8e3d842cb41576be1c436b9f6dbd9cedc",
                    "receiptTrie" : "0x59efbc259de4f2d4e3d53564cf205b41132362b869205a025e56ba96c74c8307",
                    "stateRoot" : "0x0c68d972cf7169d9895634b64de4f69644c4d1ac54bff7d93ac6f960a41d9acd",
                    "timestamp" : "0x03e8",
                    "transactionsTrie" : "0xb128faad49ed45066940ea64d9c9f88fc372abb912c3bf255b81c536ef95ccfb",
                    "uncleHash" : "0x1dcc4de8dec75d7aab85b567b6ccd41ad312451b948a7413f0a142fd40d49347"
                },
                "rlp" : "0xf902e0f901f7a02118829a9759bb62ed2abe42ed2598a8e3d842cb41576be1c436b9f6dbd9cedca01dcc4de8dec75d7aab85b567b6ccd41ad312451b948a7413f0a142fd40d493479468795c4aa09d6f4ed3e5deddf8c2ad3049a601daa00c68d972cf7169d9895634b64de4f69644c4d1ac54bff7d93ac6f960a41d9acda0b128faad49ed45066940ea64d9c9f88fc372abb912c3bf255b81c536ef95ccfba059efbc259de4f2d4e3d53564cf205b41132362b869205a025e56ba96c74c8307b90100000000000000000000000000000000000000000000000000000000000000000000000000000000000000000000000000000000000000000000000000000000000000000000000000000000000000000000000000000000000000000000000000000000000000000000000000000000000000000000000000000000000000000000000000000000000000000000000000000000000000000000000000000000000000000000000000000000000000000000000000000000000000000000000000000000000000000000000000000000000000000000000000000000000000000000000000000000000000000000000000000000000000000000000000000000008302000001833d37ef82ec698203e880a0a3fcab3020f4d75129e590f415364fcc152bddaf265d3e363f4187eb14b523dc8871668261b9e54a99f8e3f8e1010183030d4094b94f5374fce5edbc8e2a8697c15331677e6ebf0b80b8800f25929bcb43d5a57391564615c9e70a992b10eafa4db109709649cf48c50dd216da2f5cb6be7a0aa72c440c53c9bbdfec6c36c7d515536431b3a865468acbba0f25919bcb43d5a57391564615c9e70a992b10eafa4db109709649cf48c50dd216da2f5cb6be7a0aa72c440c53c9bbdfec6c36c7d515536431b3a865468acbba1ba0d7d39d3609726bf4538f008b1cdeae885086a032480cc97e88139755fa75037ca046ab723cf5bae346607f32cb4500ed1c2257b1befefdedb485d83b9094c2c4d0c0",
                "transactions" : [
                    {
                        "data" : "0x0f25929bcb43d5a57391564615c9e70a992b10eafa4db109709649cf48c50dd216da2f5cb6be7a0aa72c440c53c9bbdfec6c36c7d515536431b3a865468acbba0f25919bcb43d5a57391564615c9e70a992b10eafa4db109709649cf48c50dd216da2f5cb6be7a0aa72c440c53c9bbdfec6c36c7d515536431b3a865468acbba",
                        "gasLimit" : "0x030d40",
                        "gasPrice" : "0x01",
                        "nonce" : "0x01",
                        "r" : "0xd7d39d3609726bf4538f008b1cdeae885086a032480cc97e88139755fa75037c",
                        "s" : "0x46ab723cf5bae346607f32cb4500ed1c2257b1befefdedb485d83b9094c2c4d0",
                        "to" : "0xb94f5374fce5edbc8e2a8697c15331677e6ebf0b",
                        "v" : "0x1b",
                        "value" : "0x00"
                    }
                ],
                "uncleHeaders" : [
                ]
            }
        ],
        "genesisBlockHeader" : {
            "bloom" : "0x00000000000000000000000000000000000000000000000000000000000000000000000000000000000000000000000000000000000000000000000000000000000000000000000000000000000000000000000000000000000000000000000000000000000000000000000000000000000000000000000000000000000000000000000000000000000000000000000000000000000000000000000000000000000000000000000000000000000000000000000000000000000000000000000000000000000000000000000000000000000000000000000000000000000000000000000000000000000000000000000000000000000000000000000000000000",
            "coinbase" : "0x68795c4aa09d6f4ed3e5deddf8c2ad3049a601da",
            "difficulty" : "0x020000",
            "extraData" : "0x42",
            "gasLimit" : "0x3d37ef",
            "gasUsed" : "0x00",
            "hash" : "0x2118829a9759bb62ed2abe42ed2598a8e3d842cb41576be1c436b9f6dbd9cedc",
            "mixHash" : "0x56e81f171bcc55a6ff8345e692c0f86e5b48e01b996cadc001622fb5e363b421",
            "nonce" : "0x0102030405060708",
            "number" : "0x00",
            "parentHash" : "0x0000000000000000000000000000000000000000000000000000000000000000",
            "receiptTrie" : "0x56e81f171bcc55a6ff8345e692c0f86e5b48e01b996cadc001622fb5e363b421",
            "stateRoot" : "0x95a0fc3312fd9e68d98cef6cb2a346c69bc7f2cd87d6c9b2dffdf4b49262223f",
            "timestamp" : "0x03b6",
            "transactionsTrie" : "0x56e81f171bcc55a6ff8345e692c0f86e5b48e01b996cadc001622fb5e363b421",
            "uncleHash" : "0x1dcc4de8dec75d7aab85b567b6ccd41ad312451b948a7413f0a142fd40d49347"
        },
        "genesisRLP" : "0xf901faf901f5a00000000000000000000000000000000000000000000000000000000000000000a01dcc4de8dec75d7aab85b567b6ccd41ad312451b948a7413f0a142fd40d493479468795c4aa09d6f4ed3e5deddf8c2ad3049a601daa095a0fc3312fd9e68d98cef6cb2a346c69bc7f2cd87d6c9b2dffdf4b49262223fa056e81f171bcc55a6ff8345e692c0f86e5b48e01b996cadc001622fb5e363b421a056e81f171bcc55a6ff8345e692c0f86e5b48e01b996cadc001622fb5e363b421b90100000000000000000000000000000000000000000000000000000000000000000000000000000000000000000000000000000000000000000000000000000000000000000000000000000000000000000000000000000000000000000000000000000000000000000000000000000000000000000000000000000000000000000000000000000000000000000000000000000000000000000000000000000000000000000000000000000000000000000000000000000000000000000000000000000000000000000000000000000000000000000000000000000000000000000000000000000000000000000000000000000000000000000000000000000000008302000080833d37ef808203b642a056e81f171bcc55a6ff8345e692c0f86e5b48e01b996cadc001622fb5e363b421880102030405060708c0c0",
        "lastblockhash" : "0xcd7229ae69f47f9276633014b3413d768cb3d6d0b088fab319069dc9a73d3fe3",
        "network" : "EIP150",
        "postState" : {
            "0x68795c4aa09d6f4ed3e5deddf8c2ad3049a601da" : {
                "balance" : "0x4563918244f4ec69",
                "code" : "",
                "nonce" : "0x00",
                "storage" : {
                }
            },
            "0xa94f5374fce5edbc8e2a8697c15331677e6ebf0b" : {
                "balance" : "0x0de0b6b3a7631397",
                "code" : "",
                "nonce" : "0x02",
                "storage" : {
                }
            },
            "0xb94f5374fce5edbc8e2a8697c15331677e6ebf0b" : {
                "balance" : "0x00",
                "code" : "0x600035600052602035602052604035604052606035606052604060c860806000600060066207a120f260005560c85160015560e851600255",
                "nonce" : "0x00",
                "storage" : {
                    "0x00" : "0x01"
                }
            }
        },
        "pre" : {
            "0xa94f5374fce5edbc8e2a8697c15331677e6ebf0b" : {
                "balance" : "0x0de0b6b3a7640000",
                "code" : "",
                "nonce" : "0x01",
                "storage" : {
                }
            },
            "0xb94f5374fce5edbc8e2a8697c15331677e6ebf0b" : {
                "balance" : "0x00",
                "code" : "0x600035600052602035602052604035604052606035606052604060c860806000600060066207a120f260005560c85160015560e851600255",
                "nonce" : "0x00",
                "storage" : {
                }
            }
        }
    },
    "pointAdd_d2g3v0_EIP158" : {
        "_info" : {
            "comment" : "",
            "filledwith" : "cpp-1.3.0+commit.6e0ce939.Linux.g++",
            "lllcversion" : "Version: 0.4.18-develop.2017.9.25+commit.a72237f2.Linux.g++",
            "source" : "src/BlockchainTestsFiller/GeneralStateTests/stZeroKnowledge/pointAdd_d2g3v0Filler.json",
            "sourceHash" : "fc130199a02ec19edc9988ae18c3d0a1c9a381b989508f6acbf546a0ebdac156"
        },
        "blocks" : [
            {
                "blockHeader" : {
                    "bloom" : "0x00000000000000000000000000000000000000000000000000000000000000000000000000000000000000000000000000000000000000000000000000000000000000000000000000000000000000000000000000000000000000000000000000000000000000000000000000000000000000000000000000000000000000000000000000000000000000000000000000000000000000000000000000000000000000000000000000000000000000000000000000000000000000000000000000000000000000000000000000000000000000000000000000000000000000000000000000000000000000000000000000000000000000000000000000000000",
                    "coinbase" : "0x68795c4aa09d6f4ed3e5deddf8c2ad3049a601da",
                    "difficulty" : "0x020000",
                    "extraData" : "",
                    "gasLimit" : "0x3d37ef",
                    "gasUsed" : "0xec69",
                    "hash" : "0x7f82eb43a183c603ebc381d0469768af5c6dd177489813de5ba363de78d7f202",
                    "mixHash" : "0x534369ac879ceadc03699620843332c8bd1ebca1081e5ce7262620353e7d5466",
                    "nonce" : "0x6121012032f85ba5",
                    "number" : "0x01",
                    "parentHash" : "0x2118829a9759bb62ed2abe42ed2598a8e3d842cb41576be1c436b9f6dbd9cedc",
                    "receiptTrie" : "0x59efbc259de4f2d4e3d53564cf205b41132362b869205a025e56ba96c74c8307",
                    "stateRoot" : "0x0c68d972cf7169d9895634b64de4f69644c4d1ac54bff7d93ac6f960a41d9acd",
                    "timestamp" : "0x03e8",
                    "transactionsTrie" : "0xb128faad49ed45066940ea64d9c9f88fc372abb912c3bf255b81c536ef95ccfb",
                    "uncleHash" : "0x1dcc4de8dec75d7aab85b567b6ccd41ad312451b948a7413f0a142fd40d49347"
                },
                "rlp" : "0xf902e0f901f7a02118829a9759bb62ed2abe42ed2598a8e3d842cb41576be1c436b9f6dbd9cedca01dcc4de8dec75d7aab85b567b6ccd41ad312451b948a7413f0a142fd40d493479468795c4aa09d6f4ed3e5deddf8c2ad3049a601daa00c68d972cf7169d9895634b64de4f69644c4d1ac54bff7d93ac6f960a41d9acda0b128faad49ed45066940ea64d9c9f88fc372abb912c3bf255b81c536ef95ccfba059efbc259de4f2d4e3d53564cf205b41132362b869205a025e56ba96c74c8307b90100000000000000000000000000000000000000000000000000000000000000000000000000000000000000000000000000000000000000000000000000000000000000000000000000000000000000000000000000000000000000000000000000000000000000000000000000000000000000000000000000000000000000000000000000000000000000000000000000000000000000000000000000000000000000000000000000000000000000000000000000000000000000000000000000000000000000000000000000000000000000000000000000000000000000000000000000000000000000000000000000000000000000000000000000000000008302000001833d37ef82ec698203e880a0534369ac879ceadc03699620843332c8bd1ebca1081e5ce7262620353e7d5466886121012032f85ba5f8e3f8e1010183030d4094b94f5374fce5edbc8e2a8697c15331677e6ebf0b80b8800f25929bcb43d5a57391564615c9e70a992b10eafa4db109709649cf48c50dd216da2f5cb6be7a0aa72c440c53c9bbdfec6c36c7d515536431b3a865468acbba0f25919bcb43d5a57391564615c9e70a992b10eafa4db109709649cf48c50dd216da2f5cb6be7a0aa72c440c53c9bbdfec6c36c7d515536431b3a865468acbba1ba0d7d39d3609726bf4538f008b1cdeae885086a032480cc97e88139755fa75037ca046ab723cf5bae346607f32cb4500ed1c2257b1befefdedb485d83b9094c2c4d0c0",
                "transactions" : [
                    {
                        "data" : "0x0f25929bcb43d5a57391564615c9e70a992b10eafa4db109709649cf48c50dd216da2f5cb6be7a0aa72c440c53c9bbdfec6c36c7d515536431b3a865468acbba0f25919bcb43d5a57391564615c9e70a992b10eafa4db109709649cf48c50dd216da2f5cb6be7a0aa72c440c53c9bbdfec6c36c7d515536431b3a865468acbba",
                        "gasLimit" : "0x030d40",
                        "gasPrice" : "0x01",
                        "nonce" : "0x01",
                        "r" : "0xd7d39d3609726bf4538f008b1cdeae885086a032480cc97e88139755fa75037c",
                        "s" : "0x46ab723cf5bae346607f32cb4500ed1c2257b1befefdedb485d83b9094c2c4d0",
                        "to" : "0xb94f5374fce5edbc8e2a8697c15331677e6ebf0b",
                        "v" : "0x1b",
                        "value" : "0x00"
                    }
                ],
                "uncleHeaders" : [
                ]
            }
        ],
        "genesisBlockHeader" : {
            "bloom" : "0x00000000000000000000000000000000000000000000000000000000000000000000000000000000000000000000000000000000000000000000000000000000000000000000000000000000000000000000000000000000000000000000000000000000000000000000000000000000000000000000000000000000000000000000000000000000000000000000000000000000000000000000000000000000000000000000000000000000000000000000000000000000000000000000000000000000000000000000000000000000000000000000000000000000000000000000000000000000000000000000000000000000000000000000000000000000",
            "coinbase" : "0x68795c4aa09d6f4ed3e5deddf8c2ad3049a601da",
            "difficulty" : "0x020000",
            "extraData" : "0x42",
            "gasLimit" : "0x3d37ef",
            "gasUsed" : "0x00",
            "hash" : "0x2118829a9759bb62ed2abe42ed2598a8e3d842cb41576be1c436b9f6dbd9cedc",
            "mixHash" : "0x56e81f171bcc55a6ff8345e692c0f86e5b48e01b996cadc001622fb5e363b421",
            "nonce" : "0x0102030405060708",
            "number" : "0x00",
            "parentHash" : "0x0000000000000000000000000000000000000000000000000000000000000000",
            "receiptTrie" : "0x56e81f171bcc55a6ff8345e692c0f86e5b48e01b996cadc001622fb5e363b421",
            "stateRoot" : "0x95a0fc3312fd9e68d98cef6cb2a346c69bc7f2cd87d6c9b2dffdf4b49262223f",
            "timestamp" : "0x03b6",
            "transactionsTrie" : "0x56e81f171bcc55a6ff8345e692c0f86e5b48e01b996cadc001622fb5e363b421",
            "uncleHash" : "0x1dcc4de8dec75d7aab85b567b6ccd41ad312451b948a7413f0a142fd40d49347"
        },
        "genesisRLP" : "0xf901faf901f5a00000000000000000000000000000000000000000000000000000000000000000a01dcc4de8dec75d7aab85b567b6ccd41ad312451b948a7413f0a142fd40d493479468795c4aa09d6f4ed3e5deddf8c2ad3049a601daa095a0fc3312fd9e68d98cef6cb2a346c69bc7f2cd87d6c9b2dffdf4b49262223fa056e81f171bcc55a6ff8345e692c0f86e5b48e01b996cadc001622fb5e363b421a056e81f171bcc55a6ff8345e692c0f86e5b48e01b996cadc001622fb5e363b421b90100000000000000000000000000000000000000000000000000000000000000000000000000000000000000000000000000000000000000000000000000000000000000000000000000000000000000000000000000000000000000000000000000000000000000000000000000000000000000000000000000000000000000000000000000000000000000000000000000000000000000000000000000000000000000000000000000000000000000000000000000000000000000000000000000000000000000000000000000000000000000000000000000000000000000000000000000000000000000000000000000000000000000000000000000000000008302000080833d37ef808203b642a056e81f171bcc55a6ff8345e692c0f86e5b48e01b996cadc001622fb5e363b421880102030405060708c0c0",
        "lastblockhash" : "0x7f82eb43a183c603ebc381d0469768af5c6dd177489813de5ba363de78d7f202",
        "network" : "EIP158",
        "postState" : {
            "0x68795c4aa09d6f4ed3e5deddf8c2ad3049a601da" : {
                "balance" : "0x4563918244f4ec69",
                "code" : "",
                "nonce" : "0x00",
                "storage" : {
                }
            },
            "0xa94f5374fce5edbc8e2a8697c15331677e6ebf0b" : {
                "balance" : "0x0de0b6b3a7631397",
                "code" : "",
                "nonce" : "0x02",
                "storage" : {
                }
            },
            "0xb94f5374fce5edbc8e2a8697c15331677e6ebf0b" : {
                "balance" : "0x00",
                "code" : "0x600035600052602035602052604035604052606035606052604060c860806000600060066207a120f260005560c85160015560e851600255",
                "nonce" : "0x00",
                "storage" : {
                    "0x00" : "0x01"
                }
            }
        },
        "pre" : {
            "0xa94f5374fce5edbc8e2a8697c15331677e6ebf0b" : {
                "balance" : "0x0de0b6b3a7640000",
                "code" : "",
                "nonce" : "0x01",
                "storage" : {
                }
            },
            "0xb94f5374fce5edbc8e2a8697c15331677e6ebf0b" : {
                "balance" : "0x00",
                "code" : "0x600035600052602035602052604035604052606035606052604060c860806000600060066207a120f260005560c85160015560e851600255",
                "nonce" : "0x00",
                "storage" : {
                }
            }
        }
    },
    "pointAdd_d2g3v0_Frontier" : {
        "_info" : {
            "comment" : "",
            "filledwith" : "cpp-1.3.0+commit.6e0ce939.Linux.g++",
            "lllcversion" : "Version: 0.4.18-develop.2017.9.25+commit.a72237f2.Linux.g++",
            "source" : "src/BlockchainTestsFiller/GeneralStateTests/stZeroKnowledge/pointAdd_d2g3v0Filler.json",
            "sourceHash" : "fc130199a02ec19edc9988ae18c3d0a1c9a381b989508f6acbf546a0ebdac156"
        },
        "blocks" : [
            {
                "blockHeader" : {
                    "bloom" : "0x00000000000000000000000000000000000000000000000000000000000000000000000000000000000000000000000000000000000000000000000000000000000000000000000000000000000000000000000000000000000000000000000000000000000000000000000000000000000000000000000000000000000000000000000000000000000000000000000000000000000000000000000000000000000000000000000000000000000000000000000000000000000000000000000000000000000000000000000000000000000000000000000000000000000000000000000000000000000000000000000000000000000000000000000000000000",
                    "coinbase" : "0x68795c4aa09d6f4ed3e5deddf8c2ad3049a601da",
                    "difficulty" : "0x020000",
                    "extraData" : "",
                    "gasLimit" : "0x3d37ef",
                    "gasUsed" : "0x030d40",
                    "hash" : "0x1a748af64456beba08b4bdf12ec748f576b6dcc33e6a8a016d6deaa39a855444",
                    "mixHash" : "0x97b39c4343711a2b30d02ec9898b6eacfe36cb60ee4a6f4834092fd7b1a5dc37",
                    "nonce" : "0xa491b544cee1c999",
                    "number" : "0x01",
                    "parentHash" : "0x2118829a9759bb62ed2abe42ed2598a8e3d842cb41576be1c436b9f6dbd9cedc",
                    "receiptTrie" : "0xd4ec042b0861d5f82a8f2fb5eebee2af69f5c7f4acd2b81ecde07ea0d2deaf04",
                    "stateRoot" : "0x89f4dfa4c7380a9f6a30f4fa4172f3be2d14d0ce0943c1edb575213417a9ae5a",
                    "timestamp" : "0x03e8",
                    "transactionsTrie" : "0xb128faad49ed45066940ea64d9c9f88fc372abb912c3bf255b81c536ef95ccfb",
                    "uncleHash" : "0x1dcc4de8dec75d7aab85b567b6ccd41ad312451b948a7413f0a142fd40d49347"
                },
                "rlp" : "0xf902e1f901f8a02118829a9759bb62ed2abe42ed2598a8e3d842cb41576be1c436b9f6dbd9cedca01dcc4de8dec75d7aab85b567b6ccd41ad312451b948a7413f0a142fd40d493479468795c4aa09d6f4ed3e5deddf8c2ad3049a601daa089f4dfa4c7380a9f6a30f4fa4172f3be2d14d0ce0943c1edb575213417a9ae5aa0b128faad49ed45066940ea64d9c9f88fc372abb912c3bf255b81c536ef95ccfba0d4ec042b0861d5f82a8f2fb5eebee2af69f5c7f4acd2b81ecde07ea0d2deaf04b90100000000000000000000000000000000000000000000000000000000000000000000000000000000000000000000000000000000000000000000000000000000000000000000000000000000000000000000000000000000000000000000000000000000000000000000000000000000000000000000000000000000000000000000000000000000000000000000000000000000000000000000000000000000000000000000000000000000000000000000000000000000000000000000000000000000000000000000000000000000000000000000000000000000000000000000000000000000000000000000000000000000000000000000000000000000008302000001833d37ef83030d408203e880a097b39c4343711a2b30d02ec9898b6eacfe36cb60ee4a6f4834092fd7b1a5dc3788a491b544cee1c999f8e3f8e1010183030d4094b94f5374fce5edbc8e2a8697c15331677e6ebf0b80b8800f25929bcb43d5a57391564615c9e70a992b10eafa4db109709649cf48c50dd216da2f5cb6be7a0aa72c440c53c9bbdfec6c36c7d515536431b3a865468acbba0f25919bcb43d5a57391564615c9e70a992b10eafa4db109709649cf48c50dd216da2f5cb6be7a0aa72c440c53c9bbdfec6c36c7d515536431b3a865468acbba1ba0d7d39d3609726bf4538f008b1cdeae885086a032480cc97e88139755fa75037ca046ab723cf5bae346607f32cb4500ed1c2257b1befefdedb485d83b9094c2c4d0c0",
                "transactions" : [
                    {
                        "data" : "0x0f25929bcb43d5a57391564615c9e70a992b10eafa4db109709649cf48c50dd216da2f5cb6be7a0aa72c440c53c9bbdfec6c36c7d515536431b3a865468acbba0f25919bcb43d5a57391564615c9e70a992b10eafa4db109709649cf48c50dd216da2f5cb6be7a0aa72c440c53c9bbdfec6c36c7d515536431b3a865468acbba",
                        "gasLimit" : "0x030d40",
                        "gasPrice" : "0x01",
                        "nonce" : "0x01",
                        "r" : "0xd7d39d3609726bf4538f008b1cdeae885086a032480cc97e88139755fa75037c",
                        "s" : "0x46ab723cf5bae346607f32cb4500ed1c2257b1befefdedb485d83b9094c2c4d0",
                        "to" : "0xb94f5374fce5edbc8e2a8697c15331677e6ebf0b",
                        "v" : "0x1b",
                        "value" : "0x00"
                    }
                ],
                "uncleHeaders" : [
                ]
            }
        ],
        "genesisBlockHeader" : {
            "bloom" : "0x00000000000000000000000000000000000000000000000000000000000000000000000000000000000000000000000000000000000000000000000000000000000000000000000000000000000000000000000000000000000000000000000000000000000000000000000000000000000000000000000000000000000000000000000000000000000000000000000000000000000000000000000000000000000000000000000000000000000000000000000000000000000000000000000000000000000000000000000000000000000000000000000000000000000000000000000000000000000000000000000000000000000000000000000000000000",
            "coinbase" : "0x68795c4aa09d6f4ed3e5deddf8c2ad3049a601da",
            "difficulty" : "0x020000",
            "extraData" : "0x42",
            "gasLimit" : "0x3d37ef",
            "gasUsed" : "0x00",
            "hash" : "0x2118829a9759bb62ed2abe42ed2598a8e3d842cb41576be1c436b9f6dbd9cedc",
            "mixHash" : "0x56e81f171bcc55a6ff8345e692c0f86e5b48e01b996cadc001622fb5e363b421",
            "nonce" : "0x0102030405060708",
            "number" : "0x00",
            "parentHash" : "0x0000000000000000000000000000000000000000000000000000000000000000",
            "receiptTrie" : "0x56e81f171bcc55a6ff8345e692c0f86e5b48e01b996cadc001622fb5e363b421",
            "stateRoot" : "0x95a0fc3312fd9e68d98cef6cb2a346c69bc7f2cd87d6c9b2dffdf4b49262223f",
            "timestamp" : "0x03b6",
            "transactionsTrie" : "0x56e81f171bcc55a6ff8345e692c0f86e5b48e01b996cadc001622fb5e363b421",
            "uncleHash" : "0x1dcc4de8dec75d7aab85b567b6ccd41ad312451b948a7413f0a142fd40d49347"
        },
        "genesisRLP" : "0xf901faf901f5a00000000000000000000000000000000000000000000000000000000000000000a01dcc4de8dec75d7aab85b567b6ccd41ad312451b948a7413f0a142fd40d493479468795c4aa09d6f4ed3e5deddf8c2ad3049a601daa095a0fc3312fd9e68d98cef6cb2a346c69bc7f2cd87d6c9b2dffdf4b49262223fa056e81f171bcc55a6ff8345e692c0f86e5b48e01b996cadc001622fb5e363b421a056e81f171bcc55a6ff8345e692c0f86e5b48e01b996cadc001622fb5e363b421b90100000000000000000000000000000000000000000000000000000000000000000000000000000000000000000000000000000000000000000000000000000000000000000000000000000000000000000000000000000000000000000000000000000000000000000000000000000000000000000000000000000000000000000000000000000000000000000000000000000000000000000000000000000000000000000000000000000000000000000000000000000000000000000000000000000000000000000000000000000000000000000000000000000000000000000000000000000000000000000000000000000000000000000000000000000000008302000080833d37ef808203b642a056e81f171bcc55a6ff8345e692c0f86e5b48e01b996cadc001622fb5e363b421880102030405060708c0c0",
        "lastblockhash" : "0x1a748af64456beba08b4bdf12ec748f576b6dcc33e6a8a016d6deaa39a855444",
        "network" : "Frontier",
        "postState" : {
            "0x68795c4aa09d6f4ed3e5deddf8c2ad3049a601da" : {
                "balance" : "0x4563918244f70d40",
                "code" : "",
                "nonce" : "0x00",
                "storage" : {
                }
            },
            "0xa94f5374fce5edbc8e2a8697c15331677e6ebf0b" : {
                "balance" : "0x0de0b6b3a760f2c0",
                "code" : "",
                "nonce" : "0x02",
                "storage" : {
                }
            },
            "0xb94f5374fce5edbc8e2a8697c15331677e6ebf0b" : {
                "balance" : "0x00",
                "code" : "0x600035600052602035602052604035604052606035606052604060c860806000600060066207a120f260005560c85160015560e851600255",
                "nonce" : "0x00",
                "storage" : {
                }
            }
        },
        "pre" : {
            "0xa94f5374fce5edbc8e2a8697c15331677e6ebf0b" : {
                "balance" : "0x0de0b6b3a7640000",
                "code" : "",
                "nonce" : "0x01",
                "storage" : {
                }
            },
            "0xb94f5374fce5edbc8e2a8697c15331677e6ebf0b" : {
                "balance" : "0x00",
                "code" : "0x600035600052602035602052604035604052606035606052604060c860806000600060066207a120f260005560c85160015560e851600255",
                "nonce" : "0x00",
                "storage" : {
                }
            }
        }
    },
    "pointAdd_d2g3v0_Homestead" : {
        "_info" : {
            "comment" : "",
            "filledwith" : "cpp-1.3.0+commit.6e0ce939.Linux.g++",
            "lllcversion" : "Version: 0.4.18-develop.2017.9.25+commit.a72237f2.Linux.g++",
            "source" : "src/BlockchainTestsFiller/GeneralStateTests/stZeroKnowledge/pointAdd_d2g3v0Filler.json",
            "sourceHash" : "fc130199a02ec19edc9988ae18c3d0a1c9a381b989508f6acbf546a0ebdac156"
        },
        "blocks" : [
            {
                "blockHeader" : {
                    "bloom" : "0x00000000000000000000000000000000000000000000000000000000000000000000000000000000000000000000000000000000000000000000000000000000000000000000000000000000000000000000000000000000000000000000000000000000000000000000000000000000000000000000000000000000000000000000000000000000000000000000000000000000000000000000000000000000000000000000000000000000000000000000000000000000000000000000000000000000000000000000000000000000000000000000000000000000000000000000000000000000000000000000000000000000000000000000000000000000",
                    "coinbase" : "0x68795c4aa09d6f4ed3e5deddf8c2ad3049a601da",
                    "difficulty" : "0x020000",
                    "extraData" : "",
                    "gasLimit" : "0x3d37ef",
                    "gasUsed" : "0x030d40",
                    "hash" : "0xe73ccb8defe14f005d7deed0f65d950ae48e6b3afb8ea4898f7d943b67a665e0",
                    "mixHash" : "0xaae49fe80504344c170e73b12505926d2e435f38bbce68862201f8f61f1ed651",
                    "nonce" : "0xddc086fc34045d1c",
                    "number" : "0x01",
                    "parentHash" : "0x2118829a9759bb62ed2abe42ed2598a8e3d842cb41576be1c436b9f6dbd9cedc",
                    "receiptTrie" : "0xd4ec042b0861d5f82a8f2fb5eebee2af69f5c7f4acd2b81ecde07ea0d2deaf04",
                    "stateRoot" : "0x89f4dfa4c7380a9f6a30f4fa4172f3be2d14d0ce0943c1edb575213417a9ae5a",
                    "timestamp" : "0x03e8",
                    "transactionsTrie" : "0xb128faad49ed45066940ea64d9c9f88fc372abb912c3bf255b81c536ef95ccfb",
                    "uncleHash" : "0x1dcc4de8dec75d7aab85b567b6ccd41ad312451b948a7413f0a142fd40d49347"
                },
                "rlp" : "0xf902e1f901f8a02118829a9759bb62ed2abe42ed2598a8e3d842cb41576be1c436b9f6dbd9cedca01dcc4de8dec75d7aab85b567b6ccd41ad312451b948a7413f0a142fd40d493479468795c4aa09d6f4ed3e5deddf8c2ad3049a601daa089f4dfa4c7380a9f6a30f4fa4172f3be2d14d0ce0943c1edb575213417a9ae5aa0b128faad49ed45066940ea64d9c9f88fc372abb912c3bf255b81c536ef95ccfba0d4ec042b0861d5f82a8f2fb5eebee2af69f5c7f4acd2b81ecde07ea0d2deaf04b90100000000000000000000000000000000000000000000000000000000000000000000000000000000000000000000000000000000000000000000000000000000000000000000000000000000000000000000000000000000000000000000000000000000000000000000000000000000000000000000000000000000000000000000000000000000000000000000000000000000000000000000000000000000000000000000000000000000000000000000000000000000000000000000000000000000000000000000000000000000000000000000000000000000000000000000000000000000000000000000000000000000000000000000000000000000008302000001833d37ef83030d408203e880a0aae49fe80504344c170e73b12505926d2e435f38bbce68862201f8f61f1ed65188ddc086fc34045d1cf8e3f8e1010183030d4094b94f5374fce5edbc8e2a8697c15331677e6ebf0b80b8800f25929bcb43d5a57391564615c9e70a992b10eafa4db109709649cf48c50dd216da2f5cb6be7a0aa72c440c53c9bbdfec6c36c7d515536431b3a865468acbba0f25919bcb43d5a57391564615c9e70a992b10eafa4db109709649cf48c50dd216da2f5cb6be7a0aa72c440c53c9bbdfec6c36c7d515536431b3a865468acbba1ba0d7d39d3609726bf4538f008b1cdeae885086a032480cc97e88139755fa75037ca046ab723cf5bae346607f32cb4500ed1c2257b1befefdedb485d83b9094c2c4d0c0",
                "transactions" : [
                    {
                        "data" : "0x0f25929bcb43d5a57391564615c9e70a992b10eafa4db109709649cf48c50dd216da2f5cb6be7a0aa72c440c53c9bbdfec6c36c7d515536431b3a865468acbba0f25919bcb43d5a57391564615c9e70a992b10eafa4db109709649cf48c50dd216da2f5cb6be7a0aa72c440c53c9bbdfec6c36c7d515536431b3a865468acbba",
                        "gasLimit" : "0x030d40",
                        "gasPrice" : "0x01",
                        "nonce" : "0x01",
                        "r" : "0xd7d39d3609726bf4538f008b1cdeae885086a032480cc97e88139755fa75037c",
                        "s" : "0x46ab723cf5bae346607f32cb4500ed1c2257b1befefdedb485d83b9094c2c4d0",
                        "to" : "0xb94f5374fce5edbc8e2a8697c15331677e6ebf0b",
                        "v" : "0x1b",
                        "value" : "0x00"
                    }
                ],
                "uncleHeaders" : [
                ]
            }
        ],
        "genesisBlockHeader" : {
            "bloom" : "0x00000000000000000000000000000000000000000000000000000000000000000000000000000000000000000000000000000000000000000000000000000000000000000000000000000000000000000000000000000000000000000000000000000000000000000000000000000000000000000000000000000000000000000000000000000000000000000000000000000000000000000000000000000000000000000000000000000000000000000000000000000000000000000000000000000000000000000000000000000000000000000000000000000000000000000000000000000000000000000000000000000000000000000000000000000000",
            "coinbase" : "0x68795c4aa09d6f4ed3e5deddf8c2ad3049a601da",
            "difficulty" : "0x020000",
            "extraData" : "0x42",
            "gasLimit" : "0x3d37ef",
            "gasUsed" : "0x00",
            "hash" : "0x2118829a9759bb62ed2abe42ed2598a8e3d842cb41576be1c436b9f6dbd9cedc",
            "mixHash" : "0x56e81f171bcc55a6ff8345e692c0f86e5b48e01b996cadc001622fb5e363b421",
            "nonce" : "0x0102030405060708",
            "number" : "0x00",
            "parentHash" : "0x0000000000000000000000000000000000000000000000000000000000000000",
            "receiptTrie" : "0x56e81f171bcc55a6ff8345e692c0f86e5b48e01b996cadc001622fb5e363b421",
            "stateRoot" : "0x95a0fc3312fd9e68d98cef6cb2a346c69bc7f2cd87d6c9b2dffdf4b49262223f",
            "timestamp" : "0x03b6",
            "transactionsTrie" : "0x56e81f171bcc55a6ff8345e692c0f86e5b48e01b996cadc001622fb5e363b421",
            "uncleHash" : "0x1dcc4de8dec75d7aab85b567b6ccd41ad312451b948a7413f0a142fd40d49347"
        },
        "genesisRLP" : "0xf901faf901f5a00000000000000000000000000000000000000000000000000000000000000000a01dcc4de8dec75d7aab85b567b6ccd41ad312451b948a7413f0a142fd40d493479468795c4aa09d6f4ed3e5deddf8c2ad3049a601daa095a0fc3312fd9e68d98cef6cb2a346c69bc7f2cd87d6c9b2dffdf4b49262223fa056e81f171bcc55a6ff8345e692c0f86e5b48e01b996cadc001622fb5e363b421a056e81f171bcc55a6ff8345e692c0f86e5b48e01b996cadc001622fb5e363b421b90100000000000000000000000000000000000000000000000000000000000000000000000000000000000000000000000000000000000000000000000000000000000000000000000000000000000000000000000000000000000000000000000000000000000000000000000000000000000000000000000000000000000000000000000000000000000000000000000000000000000000000000000000000000000000000000000000000000000000000000000000000000000000000000000000000000000000000000000000000000000000000000000000000000000000000000000000000000000000000000000000000000000000000000000000000000008302000080833d37ef808203b642a056e81f171bcc55a6ff8345e692c0f86e5b48e01b996cadc001622fb5e363b421880102030405060708c0c0",
        "lastblockhash" : "0xe73ccb8defe14f005d7deed0f65d950ae48e6b3afb8ea4898f7d943b67a665e0",
        "network" : "Homestead",
        "postState" : {
            "0x68795c4aa09d6f4ed3e5deddf8c2ad3049a601da" : {
                "balance" : "0x4563918244f70d40",
                "code" : "",
                "nonce" : "0x00",
                "storage" : {
                }
            },
            "0xa94f5374fce5edbc8e2a8697c15331677e6ebf0b" : {
                "balance" : "0x0de0b6b3a760f2c0",
                "code" : "",
                "nonce" : "0x02",
                "storage" : {
                }
            },
            "0xb94f5374fce5edbc8e2a8697c15331677e6ebf0b" : {
                "balance" : "0x00",
                "code" : "0x600035600052602035602052604035604052606035606052604060c860806000600060066207a120f260005560c85160015560e851600255",
                "nonce" : "0x00",
                "storage" : {
                }
            }
        },
        "pre" : {
            "0xa94f5374fce5edbc8e2a8697c15331677e6ebf0b" : {
                "balance" : "0x0de0b6b3a7640000",
                "code" : "",
                "nonce" : "0x01",
                "storage" : {
                }
            },
            "0xb94f5374fce5edbc8e2a8697c15331677e6ebf0b" : {
                "balance" : "0x00",
                "code" : "0x600035600052602035602052604035604052606035606052604060c860806000600060066207a120f260005560c85160015560e851600255",
                "nonce" : "0x00",
                "storage" : {
                }
            }
        }
    }
}