{
    "pointMulAdd_d5g2v0_Byzantium" : {
        "_info" : {
            "comment" : "",
            "filledwith" : "cpp-1.3.0+commit.82b0643a.Linux.g++",
            "lllcversion" : "Version: 0.4.20-develop.2018.1.8+commit.2548228b.Linux.g++",
            "source" : "src/BlockchainTestsFiller/GeneralStateTests/stZeroKnowledge/pointMulAdd_d5g2v0Filler.json",
            "sourceHash" : "c9b651bb056f2f979d777cef9a10b19a6d60bc94ca92b78e105ed1ad09976dc4"
        },
        "blocks" : [
            {
                "blockHeader" : {
                    "bloom" : "0x00000000000000000000000000000000000000000000000000000000000000000000000000000000000000000000000000000000000000000000000000000000000000000000000000000000000000000000000000000000000000000000000000000000000000000000000000000000000000000000000000000000000000000000000000000000000000000000000000000000000000000000000000000000000000000000000000000000000000000000000000000000000000000000000000000000000000000000000000000000000000000000000000000000000000000000000000000000000000000000000000000000000000000000000000000000",
                    "coinbase" : "0x68795c4aa09d6f4ed3e5deddf8c2ad3049a601da",
                    "difficulty" : "0x020000",
                    "extraData" : "",
                    "gasLimit" : "0x3d37ef",
                    "gasUsed" : "0x01adb0",
                    "hash" : "0x65b2bad901e60de4ba57d40d125cc687e411bfbac0863ecbeffa224acc267820",
                    "mixHash" : "0x22da668b80d42296b207bfe058333110dd0bc64d44a4d4281d655ba4bcd92fae",
                    "nonce" : "0xe6bb0376d9fff2d1",
                    "number" : "0x01",
                    "parentHash" : "0x9b25016c45ce0e295a463681361471a29c00aea06cba17cbc22894ce6d2c1def",
                    "receiptTrie" : "0xfd21849a7839c2c75da6c5f2828e953f017b356f3e968aba1a97ac6f6c5b31f3",
                    "stateRoot" : "0x4eadb2351475b64993b4a793b3208877f4d487cb87a13159d0090169a5350009",
                    "timestamp" : "0x03e8",
                    "transactionsTrie" : "0xea5261537a817ca8b5bd03f2dc06dcf742f1b6cb2ebe1085e595fe82c6ff7361",
                    "uncleHash" : "0x1dcc4de8dec75d7aab85b567b6ccd41ad312451b948a7413f0a142fd40d49347"
                },
                "rlp" : "0xf90343f901f8a09b25016c45ce0e295a463681361471a29c00aea06cba17cbc22894ce6d2c1defa01dcc4de8dec75d7aab85b567b6ccd41ad312451b948a7413f0a142fd40d493479468795c4aa09d6f4ed3e5deddf8c2ad3049a601daa04eadb2351475b64993b4a793b3208877f4d487cb87a13159d0090169a5350009a0ea5261537a817ca8b5bd03f2dc06dcf742f1b6cb2ebe1085e595fe82c6ff7361a0fd21849a7839c2c75da6c5f2828e953f017b356f3e968aba1a97ac6f6c5b31f3b90100000000000000000000000000000000000000000000000000000000000000000000000000000000000000000000000000000000000000000000000000000000000000000000000000000000000000000000000000000000000000000000000000000000000000000000000000000000000000000000000000000000000000000000000000000000000000000000000000000000000000000000000000000000000000000000000000000000000000000000000000000000000000000000000000000000000000000000000000000000000000000000000000000000000000000000000000000000000000000000000000000000000000000000000000000000008302000001833d37ef8301adb08203e880a022da668b80d42296b207bfe058333110dd0bc64d44a4d4281d655ba4bcd92fae88e6bb0376d9fff2d1f90144f9014101018301adb094b94f5374fce5edbc8e2a8697c15331677e6ebf0b80b8e01f4d1d80177b1377743d1901f70d7389be7f7a35a35bfd234a8aaee615b88c492eddcb59a6517e86bfbe35c9691479fffc6e0580000ca2706c983ff7afcb1db81f4d1d80177b1377743d1901f70d7389be7f7a35a35bfd234a8aaee615b88c492eddcb59a6517e86bfbe35c9691479fffc6e0580000ca2706c983ff7afcb1db81f4d1d80177b1377743d1901f70d7389be7f7a35a35bfd234a8aaee615b88c49018683193ae021a2f8920fed186cde5d9b1365116865281ccf884c1f28b1df8f30644e72e131a029b85045b68181585d2833e84879b9709143e1f593efffffff1ca05368cdcd0e0018861df4a01365bc95f7623249ab676d63ac9ec5aab99e75c30ba035c35d76eaa2b4ae90ea2acfeed6ca83d4db3df2f290fbe88cd2f36e5c54ac7dc0",
                "transactions" : [
                    {
                        "data" : "0x1f4d1d80177b1377743d1901f70d7389be7f7a35a35bfd234a8aaee615b88c492eddcb59a6517e86bfbe35c9691479fffc6e0580000ca2706c983ff7afcb1db81f4d1d80177b1377743d1901f70d7389be7f7a35a35bfd234a8aaee615b88c492eddcb59a6517e86bfbe35c9691479fffc6e0580000ca2706c983ff7afcb1db81f4d1d80177b1377743d1901f70d7389be7f7a35a35bfd234a8aaee615b88c49018683193ae021a2f8920fed186cde5d9b1365116865281ccf884c1f28b1df8f30644e72e131a029b85045b68181585d2833e84879b9709143e1f593efffffff",
                        "gasLimit" : "0x01adb0",
                        "gasPrice" : "0x01",
                        "nonce" : "0x01",
                        "r" : "0x5368cdcd0e0018861df4a01365bc95f7623249ab676d63ac9ec5aab99e75c30b",
                        "s" : "0x35c35d76eaa2b4ae90ea2acfeed6ca83d4db3df2f290fbe88cd2f36e5c54ac7d",
                        "to" : "0xb94f5374fce5edbc8e2a8697c15331677e6ebf0b",
                        "v" : "0x1c",
                        "value" : "0x00"
                    }
                ],
                "uncleHeaders" : [
                ]
            }
        ],
        "genesisBlockHeader" : {
            "bloom" : "0x00000000000000000000000000000000000000000000000000000000000000000000000000000000000000000000000000000000000000000000000000000000000000000000000000000000000000000000000000000000000000000000000000000000000000000000000000000000000000000000000000000000000000000000000000000000000000000000000000000000000000000000000000000000000000000000000000000000000000000000000000000000000000000000000000000000000000000000000000000000000000000000000000000000000000000000000000000000000000000000000000000000000000000000000000000000",
            "coinbase" : "0x68795c4aa09d6f4ed3e5deddf8c2ad3049a601da",
            "difficulty" : "0x020000",
            "extraData" : "0x42",
            "gasLimit" : "0x3d37ef",
            "gasUsed" : "0x00",
            "hash" : "0x9b25016c45ce0e295a463681361471a29c00aea06cba17cbc22894ce6d2c1def",
            "mixHash" : "0x56e81f171bcc55a6ff8345e692c0f86e5b48e01b996cadc001622fb5e363b421",
            "nonce" : "0x0102030405060708",
            "number" : "0x00",
            "parentHash" : "0x0000000000000000000000000000000000000000000000000000000000000000",
            "receiptTrie" : "0x56e81f171bcc55a6ff8345e692c0f86e5b48e01b996cadc001622fb5e363b421",
            "stateRoot" : "0xa4db92ceb60668ffcb9642d55fa7fe34cc341b53029d31394d82f0c61462bd99",
            "timestamp" : "0x03b6",
            "transactionsTrie" : "0x56e81f171bcc55a6ff8345e692c0f86e5b48e01b996cadc001622fb5e363b421",
            "uncleHash" : "0x1dcc4de8dec75d7aab85b567b6ccd41ad312451b948a7413f0a142fd40d49347"
        },
        "genesisRLP" : "0xf901faf901f5a00000000000000000000000000000000000000000000000000000000000000000a01dcc4de8dec75d7aab85b567b6ccd41ad312451b948a7413f0a142fd40d493479468795c4aa09d6f4ed3e5deddf8c2ad3049a601daa0a4db92ceb60668ffcb9642d55fa7fe34cc341b53029d31394d82f0c61462bd99a056e81f171bcc55a6ff8345e692c0f86e5b48e01b996cadc001622fb5e363b421a056e81f171bcc55a6ff8345e692c0f86e5b48e01b996cadc001622fb5e363b421b90100000000000000000000000000000000000000000000000000000000000000000000000000000000000000000000000000000000000000000000000000000000000000000000000000000000000000000000000000000000000000000000000000000000000000000000000000000000000000000000000000000000000000000000000000000000000000000000000000000000000000000000000000000000000000000000000000000000000000000000000000000000000000000000000000000000000000000000000000000000000000000000000000000000000000000000000000000000000000000000000000000000000000000000000000000000008302000080833d37ef808203b642a056e81f171bcc55a6ff8345e692c0f86e5b48e01b996cadc001622fb5e363b421880102030405060708c0c0",
        "lastblockhash" : "0x65b2bad901e60de4ba57d40d125cc687e411bfbac0863ecbeffa224acc267820",
        "network" : "Byzantium",
        "postState" : {
            "0x68795c4aa09d6f4ed3e5deddf8c2ad3049a601da" : {
                "balance" : "0x29a2241af62dadb0",
                "code" : "",
                "nonce" : "0x00",
                "storage" : {
                }
            },
            "0xa94f5374fce5edbc8e2a8697c15331677e6ebf0b" : {
                "balance" : "0x0de0b6b3a7625250",
                "code" : "",
                "nonce" : "0x02",
                "storage" : {
                }
            },
            "0xb94f5374fce5edbc8e2a8697c15331677e6ebf0b" : {
                "balance" : "0x00",
                "code" : "0x60003560005260203560205260403560405260603560605260803560805260a03560a05260c03560c052604061012c60806000600060066207a120f2600055604061019060606080600060076207a120f260015561012c51600a5561014c51600b55610190516014556101b051601555601454600a5414600255601554600b5414600355",
                "nonce" : "0x00",
                "storage" : {
                }
            }
        },
        "pre" : {
            "0xa94f5374fce5edbc8e2a8697c15331677e6ebf0b" : {
                "balance" : "0x0de0b6b3a7640000",
                "code" : "",
                "nonce" : "0x01",
                "storage" : {
                }
            },
            "0xb94f5374fce5edbc8e2a8697c15331677e6ebf0b" : {
                "balance" : "0x00",
                "code" : "0x60003560005260203560205260403560405260603560605260803560805260a03560a05260c03560c052604061012c60806000600060066207a120f2600055604061019060606080600060076207a120f260015561012c51600a5561014c51600b55610190516014556101b051601555601454600a5414600255601554600b5414600355",
                "nonce" : "0x00",
                "storage" : {
                }
            }
        }
    },
    "pointMulAdd_d5g2v0_EIP150" : {
        "_info" : {
            "comment" : "",
            "filledwith" : "cpp-1.3.0+commit.82b0643a.Linux.g++",
            "lllcversion" : "Version: 0.4.20-develop.2018.1.8+commit.2548228b.Linux.g++",
            "source" : "src/BlockchainTestsFiller/GeneralStateTests/stZeroKnowledge/pointMulAdd_d5g2v0Filler.json",
            "sourceHash" : "c9b651bb056f2f979d777cef9a10b19a6d60bc94ca92b78e105ed1ad09976dc4"
        },
        "blocks" : [
            {
                "blockHeader" : {
                    "bloom" : "0x00000000000000000000000000000000000000000000000000000000000000000000000000000000000000000000000000000000000000000000000000000000000000000000000000000000000000000000000000000000000000000000000000000000000000000000000000000000000000000000000000000000000000000000000000000000000000000000000000000000000000000000000000000000000000000000000000000000000000000000000000000000000000000000000000000000000000000000000000000000000000000000000000000000000000000000000000000000000000000000000000000000000000000000000000000000",
                    "coinbase" : "0x68795c4aa09d6f4ed3e5deddf8c2ad3049a601da",
                    "difficulty" : "0x020000",
                    "extraData" : "",
                    "gasLimit" : "0x3d37ef",
                    "gasUsed" : "0x01adb0",
                    "hash" : "0x1e9fcc97a095ec5c42b9a8da103582518fd8397047c82f1c698bdac34f823ee9",
                    "mixHash" : "0x0f0562809c262ba59033c8364e6cc28900cc915f9de7958397ca1a0aa6fdf3e9",
                    "nonce" : "0x53631998c1502449",
                    "number" : "0x01",
                    "parentHash" : "0x9b25016c45ce0e295a463681361471a29c00aea06cba17cbc22894ce6d2c1def",
                    "receiptTrie" : "0x0c0528a910b50648e6ca29e49363bc6409f64e46af03049d6eeccd8613a69a41",
                    "stateRoot" : "0x523915750ed47108704d08b2a0bfc7af37131077403e24a49406235ad478cbe5",
                    "timestamp" : "0x03e8",
                    "transactionsTrie" : "0xea5261537a817ca8b5bd03f2dc06dcf742f1b6cb2ebe1085e595fe82c6ff7361",
                    "uncleHash" : "0x1dcc4de8dec75d7aab85b567b6ccd41ad312451b948a7413f0a142fd40d49347"
                },
                "rlp" : "0xf90343f901f8a09b25016c45ce0e295a463681361471a29c00aea06cba17cbc22894ce6d2c1defa01dcc4de8dec75d7aab85b567b6ccd41ad312451b948a7413f0a142fd40d493479468795c4aa09d6f4ed3e5deddf8c2ad3049a601daa0523915750ed47108704d08b2a0bfc7af37131077403e24a49406235ad478cbe5a0ea5261537a817ca8b5bd03f2dc06dcf742f1b6cb2ebe1085e595fe82c6ff7361a00c0528a910b50648e6ca29e49363bc6409f64e46af03049d6eeccd8613a69a41b90100000000000000000000000000000000000000000000000000000000000000000000000000000000000000000000000000000000000000000000000000000000000000000000000000000000000000000000000000000000000000000000000000000000000000000000000000000000000000000000000000000000000000000000000000000000000000000000000000000000000000000000000000000000000000000000000000000000000000000000000000000000000000000000000000000000000000000000000000000000000000000000000000000000000000000000000000000000000000000000000000000000000000000000000000000000008302000001833d37ef8301adb08203e880a00f0562809c262ba59033c8364e6cc28900cc915f9de7958397ca1a0aa6fdf3e98853631998c1502449f90144f9014101018301adb094b94f5374fce5edbc8e2a8697c15331677e6ebf0b80b8e01f4d1d80177b1377743d1901f70d7389be7f7a35a35bfd234a8aaee615b88c492eddcb59a6517e86bfbe35c9691479fffc6e0580000ca2706c983ff7afcb1db81f4d1d80177b1377743d1901f70d7389be7f7a35a35bfd234a8aaee615b88c492eddcb59a6517e86bfbe35c9691479fffc6e0580000ca2706c983ff7afcb1db81f4d1d80177b1377743d1901f70d7389be7f7a35a35bfd234a8aaee615b88c49018683193ae021a2f8920fed186cde5d9b1365116865281ccf884c1f28b1df8f30644e72e131a029b85045b68181585d2833e84879b9709143e1f593efffffff1ca05368cdcd0e0018861df4a01365bc95f7623249ab676d63ac9ec5aab99e75c30ba035c35d76eaa2b4ae90ea2acfeed6ca83d4db3df2f290fbe88cd2f36e5c54ac7dc0",
                "transactions" : [
                    {
                        "data" : "0x1f4d1d80177b1377743d1901f70d7389be7f7a35a35bfd234a8aaee615b88c492eddcb59a6517e86bfbe35c9691479fffc6e0580000ca2706c983ff7afcb1db81f4d1d80177b1377743d1901f70d7389be7f7a35a35bfd234a8aaee615b88c492eddcb59a6517e86bfbe35c9691479fffc6e0580000ca2706c983ff7afcb1db81f4d1d80177b1377743d1901f70d7389be7f7a35a35bfd234a8aaee615b88c49018683193ae021a2f8920fed186cde5d9b1365116865281ccf884c1f28b1df8f30644e72e131a029b85045b68181585d2833e84879b9709143e1f593efffffff",
                        "gasLimit" : "0x01adb0",
                        "gasPrice" : "0x01",
                        "nonce" : "0x01",
                        "r" : "0x5368cdcd0e0018861df4a01365bc95f7623249ab676d63ac9ec5aab99e75c30b",
                        "s" : "0x35c35d76eaa2b4ae90ea2acfeed6ca83d4db3df2f290fbe88cd2f36e5c54ac7d",
                        "to" : "0xb94f5374fce5edbc8e2a8697c15331677e6ebf0b",
                        "v" : "0x1c",
                        "value" : "0x00"
                    }
                ],
                "uncleHeaders" : [
                ]
            }
        ],
        "genesisBlockHeader" : {
            "bloom" : "0x00000000000000000000000000000000000000000000000000000000000000000000000000000000000000000000000000000000000000000000000000000000000000000000000000000000000000000000000000000000000000000000000000000000000000000000000000000000000000000000000000000000000000000000000000000000000000000000000000000000000000000000000000000000000000000000000000000000000000000000000000000000000000000000000000000000000000000000000000000000000000000000000000000000000000000000000000000000000000000000000000000000000000000000000000000000",
            "coinbase" : "0x68795c4aa09d6f4ed3e5deddf8c2ad3049a601da",
            "difficulty" : "0x020000",
            "extraData" : "0x42",
            "gasLimit" : "0x3d37ef",
            "gasUsed" : "0x00",
            "hash" : "0x9b25016c45ce0e295a463681361471a29c00aea06cba17cbc22894ce6d2c1def",
            "mixHash" : "0x56e81f171bcc55a6ff8345e692c0f86e5b48e01b996cadc001622fb5e363b421",
            "nonce" : "0x0102030405060708",
            "number" : "0x00",
            "parentHash" : "0x0000000000000000000000000000000000000000000000000000000000000000",
            "receiptTrie" : "0x56e81f171bcc55a6ff8345e692c0f86e5b48e01b996cadc001622fb5e363b421",
            "stateRoot" : "0xa4db92ceb60668ffcb9642d55fa7fe34cc341b53029d31394d82f0c61462bd99",
            "timestamp" : "0x03b6",
            "transactionsTrie" : "0x56e81f171bcc55a6ff8345e692c0f86e5b48e01b996cadc001622fb5e363b421",
            "uncleHash" : "0x1dcc4de8dec75d7aab85b567b6ccd41ad312451b948a7413f0a142fd40d49347"
        },
        "genesisRLP" : "0xf901faf901f5a00000000000000000000000000000000000000000000000000000000000000000a01dcc4de8dec75d7aab85b567b6ccd41ad312451b948a7413f0a142fd40d493479468795c4aa09d6f4ed3e5deddf8c2ad3049a601daa0a4db92ceb60668ffcb9642d55fa7fe34cc341b53029d31394d82f0c61462bd99a056e81f171bcc55a6ff8345e692c0f86e5b48e01b996cadc001622fb5e363b421a056e81f171bcc55a6ff8345e692c0f86e5b48e01b996cadc001622fb5e363b421b90100000000000000000000000000000000000000000000000000000000000000000000000000000000000000000000000000000000000000000000000000000000000000000000000000000000000000000000000000000000000000000000000000000000000000000000000000000000000000000000000000000000000000000000000000000000000000000000000000000000000000000000000000000000000000000000000000000000000000000000000000000000000000000000000000000000000000000000000000000000000000000000000000000000000000000000000000000000000000000000000000000000000000000000000000000000008302000080833d37ef808203b642a056e81f171bcc55a6ff8345e692c0f86e5b48e01b996cadc001622fb5e363b421880102030405060708c0c0",
        "lastblockhash" : "0x1e9fcc97a095ec5c42b9a8da103582518fd8397047c82f1c698bdac34f823ee9",
        "network" : "EIP150",
        "postState" : {
            "0x68795c4aa09d6f4ed3e5deddf8c2ad3049a601da" : {
                "balance" : "0x4563918244f5adb0",
                "code" : "",
                "nonce" : "0x00",
                "storage" : {
                }
            },
            "0xa94f5374fce5edbc8e2a8697c15331677e6ebf0b" : {
                "balance" : "0x0de0b6b3a7625250",
                "code" : "",
                "nonce" : "0x02",
                "storage" : {
                }
            },
            "0xb94f5374fce5edbc8e2a8697c15331677e6ebf0b" : {
                "balance" : "0x00",
                "code" : "0x60003560005260203560205260403560405260603560605260803560805260a03560a05260c03560c052604061012c60806000600060066207a120f2600055604061019060606080600060076207a120f260015561012c51600a5561014c51600b55610190516014556101b051601555601454600a5414600255601554600b5414600355",
                "nonce" : "0x00",
                "storage" : {
                }
            }
        },
        "pre" : {
            "0xa94f5374fce5edbc8e2a8697c15331677e6ebf0b" : {
                "balance" : "0x0de0b6b3a7640000",
                "code" : "",
                "nonce" : "0x01",
                "storage" : {
                }
            },
            "0xb94f5374fce5edbc8e2a8697c15331677e6ebf0b" : {
                "balance" : "0x00",
                "code" : "0x60003560005260203560205260403560405260603560605260803560805260a03560a05260c03560c052604061012c60806000600060066207a120f2600055604061019060606080600060076207a120f260015561012c51600a5561014c51600b55610190516014556101b051601555601454600a5414600255601554600b5414600355",
                "nonce" : "0x00",
                "storage" : {
                }
            }
        }
    },
    "pointMulAdd_d5g2v0_EIP158" : {
        "_info" : {
            "comment" : "",
            "filledwith" : "cpp-1.3.0+commit.82b0643a.Linux.g++",
            "lllcversion" : "Version: 0.4.20-develop.2018.1.8+commit.2548228b.Linux.g++",
            "source" : "src/BlockchainTestsFiller/GeneralStateTests/stZeroKnowledge/pointMulAdd_d5g2v0Filler.json",
            "sourceHash" : "c9b651bb056f2f979d777cef9a10b19a6d60bc94ca92b78e105ed1ad09976dc4"
        },
        "blocks" : [
            {
                "blockHeader" : {
                    "bloom" : "0x00000000000000000000000000000000000000000000000000000000000000000000000000000000000000000000000000000000000000000000000000000000000000000000000000000000000000000000000000000000000000000000000000000000000000000000000000000000000000000000000000000000000000000000000000000000000000000000000000000000000000000000000000000000000000000000000000000000000000000000000000000000000000000000000000000000000000000000000000000000000000000000000000000000000000000000000000000000000000000000000000000000000000000000000000000000",
                    "coinbase" : "0x68795c4aa09d6f4ed3e5deddf8c2ad3049a601da",
                    "difficulty" : "0x020000",
                    "extraData" : "",
                    "gasLimit" : "0x3d37ef",
                    "gasUsed" : "0x01adb0",
                    "hash" : "0xbff64253beecddf05de70467c68eb2de120d4a89a062260e0834a739c12f8533",
                    "mixHash" : "0x57793baa328ac97c2a5db223d37bd98e869167d1e7165f31301d84d2bc144bca",
                    "nonce" : "0xcca04a76a67877ed",
                    "number" : "0x01",
                    "parentHash" : "0x9b25016c45ce0e295a463681361471a29c00aea06cba17cbc22894ce6d2c1def",
                    "receiptTrie" : "0x0c0528a910b50648e6ca29e49363bc6409f64e46af03049d6eeccd8613a69a41",
                    "stateRoot" : "0x523915750ed47108704d08b2a0bfc7af37131077403e24a49406235ad478cbe5",
                    "timestamp" : "0x03e8",
                    "transactionsTrie" : "0xea5261537a817ca8b5bd03f2dc06dcf742f1b6cb2ebe1085e595fe82c6ff7361",
                    "uncleHash" : "0x1dcc4de8dec75d7aab85b567b6ccd41ad312451b948a7413f0a142fd40d49347"
                },
                "rlp" : "0xf90343f901f8a09b25016c45ce0e295a463681361471a29c00aea06cba17cbc22894ce6d2c1defa01dcc4de8dec75d7aab85b567b6ccd41ad312451b948a7413f0a142fd40d493479468795c4aa09d6f4ed3e5deddf8c2ad3049a601daa0523915750ed47108704d08b2a0bfc7af37131077403e24a49406235ad478cbe5a0ea5261537a817ca8b5bd03f2dc06dcf742f1b6cb2ebe1085e595fe82c6ff7361a00c0528a910b50648e6ca29e49363bc6409f64e46af03049d6eeccd8613a69a41b90100000000000000000000000000000000000000000000000000000000000000000000000000000000000000000000000000000000000000000000000000000000000000000000000000000000000000000000000000000000000000000000000000000000000000000000000000000000000000000000000000000000000000000000000000000000000000000000000000000000000000000000000000000000000000000000000000000000000000000000000000000000000000000000000000000000000000000000000000000000000000000000000000000000000000000000000000000000000000000000000000000000000000000000000000000000008302000001833d37ef8301adb08203e880a057793baa328ac97c2a5db223d37bd98e869167d1e7165f31301d84d2bc144bca88cca04a76a67877edf90144f9014101018301adb094b94f5374fce5edbc8e2a8697c15331677e6ebf0b80b8e01f4d1d80177b1377743d1901f70d7389be7f7a35a35bfd234a8aaee615b88c492eddcb59a6517e86bfbe35c9691479fffc6e0580000ca2706c983ff7afcb1db81f4d1d80177b1377743d1901f70d7389be7f7a35a35bfd234a8aaee615b88c492eddcb59a6517e86bfbe35c9691479fffc6e0580000ca2706c983ff7afcb1db81f4d1d80177b1377743d1901f70d7389be7f7a35a35bfd234a8aaee615b88c49018683193ae021a2f8920fed186cde5d9b1365116865281ccf884c1f28b1df8f30644e72e131a029b85045b68181585d2833e84879b9709143e1f593efffffff1ca05368cdcd0e0018861df4a01365bc95f7623249ab676d63ac9ec5aab99e75c30ba035c35d76eaa2b4ae90ea2acfeed6ca83d4db3df2f290fbe88cd2f36e5c54ac7dc0",
                "transactions" : [
                    {
                        "data" : "0x1f4d1d80177b1377743d1901f70d7389be7f7a35a35bfd234a8aaee615b88c492eddcb59a6517e86bfbe35c9691479fffc6e0580000ca2706c983ff7afcb1db81f4d1d80177b1377743d1901f70d7389be7f7a35a35bfd234a8aaee615b88c492eddcb59a6517e86bfbe35c9691479fffc6e0580000ca2706c983ff7afcb1db81f4d1d80177b1377743d1901f70d7389be7f7a35a35bfd234a8aaee615b88c49018683193ae021a2f8920fed186cde5d9b1365116865281ccf884c1f28b1df8f30644e72e131a029b85045b68181585d2833e84879b9709143e1f593efffffff",
                        "gasLimit" : "0x01adb0",
                        "gasPrice" : "0x01",
                        "nonce" : "0x01",
                        "r" : "0x5368cdcd0e0018861df4a01365bc95f7623249ab676d63ac9ec5aab99e75c30b",
                        "s" : "0x35c35d76eaa2b4ae90ea2acfeed6ca83d4db3df2f290fbe88cd2f36e5c54ac7d",
                        "to" : "0xb94f5374fce5edbc8e2a8697c15331677e6ebf0b",
                        "v" : "0x1c",
                        "value" : "0x00"
                    }
                ],
                "uncleHeaders" : [
                ]
            }
        ],
        "genesisBlockHeader" : {
            "bloom" : "0x00000000000000000000000000000000000000000000000000000000000000000000000000000000000000000000000000000000000000000000000000000000000000000000000000000000000000000000000000000000000000000000000000000000000000000000000000000000000000000000000000000000000000000000000000000000000000000000000000000000000000000000000000000000000000000000000000000000000000000000000000000000000000000000000000000000000000000000000000000000000000000000000000000000000000000000000000000000000000000000000000000000000000000000000000000000",
            "coinbase" : "0x68795c4aa09d6f4ed3e5deddf8c2ad3049a601da",
            "difficulty" : "0x020000",
            "extraData" : "0x42",
            "gasLimit" : "0x3d37ef",
            "gasUsed" : "0x00",
            "hash" : "0x9b25016c45ce0e295a463681361471a29c00aea06cba17cbc22894ce6d2c1def",
            "mixHash" : "0x56e81f171bcc55a6ff8345e692c0f86e5b48e01b996cadc001622fb5e363b421",
            "nonce" : "0x0102030405060708",
            "number" : "0x00",
            "parentHash" : "0x0000000000000000000000000000000000000000000000000000000000000000",
            "receiptTrie" : "0x56e81f171bcc55a6ff8345e692c0f86e5b48e01b996cadc001622fb5e363b421",
            "stateRoot" : "0xa4db92ceb60668ffcb9642d55fa7fe34cc341b53029d31394d82f0c61462bd99",
            "timestamp" : "0x03b6",
            "transactionsTrie" : "0x56e81f171bcc55a6ff8345e692c0f86e5b48e01b996cadc001622fb5e363b421",
            "uncleHash" : "0x1dcc4de8dec75d7aab85b567b6ccd41ad312451b948a7413f0a142fd40d49347"
        },
        "genesisRLP" : "0xf901faf901f5a00000000000000000000000000000000000000000000000000000000000000000a01dcc4de8dec75d7aab85b567b6ccd41ad312451b948a7413f0a142fd40d493479468795c4aa09d6f4ed3e5deddf8c2ad3049a601daa0a4db92ceb60668ffcb9642d55fa7fe34cc341b53029d31394d82f0c61462bd99a056e81f171bcc55a6ff8345e692c0f86e5b48e01b996cadc001622fb5e363b421a056e81f171bcc55a6ff8345e692c0f86e5b48e01b996cadc001622fb5e363b421b90100000000000000000000000000000000000000000000000000000000000000000000000000000000000000000000000000000000000000000000000000000000000000000000000000000000000000000000000000000000000000000000000000000000000000000000000000000000000000000000000000000000000000000000000000000000000000000000000000000000000000000000000000000000000000000000000000000000000000000000000000000000000000000000000000000000000000000000000000000000000000000000000000000000000000000000000000000000000000000000000000000000000000000000000000000000008302000080833d37ef808203b642a056e81f171bcc55a6ff8345e692c0f86e5b48e01b996cadc001622fb5e363b421880102030405060708c0c0",
        "lastblockhash" : "0xbff64253beecddf05de70467c68eb2de120d4a89a062260e0834a739c12f8533",
        "network" : "EIP158",
        "postState" : {
            "0x68795c4aa09d6f4ed3e5deddf8c2ad3049a601da" : {
                "balance" : "0x4563918244f5adb0",
                "code" : "",
                "nonce" : "0x00",
                "storage" : {
                }
            },
            "0xa94f5374fce5edbc8e2a8697c15331677e6ebf0b" : {
                "balance" : "0x0de0b6b3a7625250",
                "code" : "",
                "nonce" : "0x02",
                "storage" : {
                }
            },
            "0xb94f5374fce5edbc8e2a8697c15331677e6ebf0b" : {
                "balance" : "0x00",
                "code" : "0x60003560005260203560205260403560405260603560605260803560805260a03560a05260c03560c052604061012c60806000600060066207a120f2600055604061019060606080600060076207a120f260015561012c51600a5561014c51600b55610190516014556101b051601555601454600a5414600255601554600b5414600355",
                "nonce" : "0x00",
                "storage" : {
                }
            }
        },
        "pre" : {
            "0xa94f5374fce5edbc8e2a8697c15331677e6ebf0b" : {
                "balance" : "0x0de0b6b3a7640000",
                "code" : "",
                "nonce" : "0x01",
                "storage" : {
                }
            },
            "0xb94f5374fce5edbc8e2a8697c15331677e6ebf0b" : {
                "balance" : "0x00",
                "code" : "0x60003560005260203560205260403560405260603560605260803560805260a03560a05260c03560c052604061012c60806000600060066207a120f2600055604061019060606080600060076207a120f260015561012c51600a5561014c51600b55610190516014556101b051601555601454600a5414600255601554600b5414600355",
                "nonce" : "0x00",
                "storage" : {
                }
            }
        }
    },
    "pointMulAdd_d5g2v0_Frontier" : {
        "_info" : {
            "comment" : "",
            "filledwith" : "cpp-1.3.0+commit.82b0643a.Linux.g++",
            "lllcversion" : "Version: 0.4.20-develop.2018.1.8+commit.2548228b.Linux.g++",
            "source" : "src/BlockchainTestsFiller/GeneralStateTests/stZeroKnowledge/pointMulAdd_d5g2v0Filler.json",
            "sourceHash" : "c9b651bb056f2f979d777cef9a10b19a6d60bc94ca92b78e105ed1ad09976dc4"
        },
        "blocks" : [
            {
                "blockHeader" : {
                    "bloom" : "0x00000000000000000000000000000000000000000000000000000000000000000000000000000000000000000000000000000000000000000000000000000000000000000000000000000000000000000000000000000000000000000000000000000000000000000000000000000000000000000000000000000000000000000000000000000000000000000000000000000000000000000000000000000000000000000000000000000000000000000000000000000000000000000000000000000000000000000000000000000000000000000000000000000000000000000000000000000000000000000000000000000000000000000000000000000000",
                    "coinbase" : "0x68795c4aa09d6f4ed3e5deddf8c2ad3049a601da",
                    "difficulty" : "0x020000",
                    "extraData" : "",
                    "gasLimit" : "0x3d37ef",
                    "gasUsed" : "0x01adb0",
                    "hash" : "0x454cca822ffaa536985597d72821904e778622e7fe435dbff416ee534daa1f3e",
                    "mixHash" : "0x1d659405c2d3e66e0fa7ebd92be9eb70215f8920ff3d2d6305d7ecab6331d59a",
                    "nonce" : "0xffbd16dcd5014340",
                    "number" : "0x01",
                    "parentHash" : "0x9b25016c45ce0e295a463681361471a29c00aea06cba17cbc22894ce6d2c1def",
                    "receiptTrie" : "0x0c0528a910b50648e6ca29e49363bc6409f64e46af03049d6eeccd8613a69a41",
                    "stateRoot" : "0x523915750ed47108704d08b2a0bfc7af37131077403e24a49406235ad478cbe5",
                    "timestamp" : "0x03e8",
                    "transactionsTrie" : "0xea5261537a817ca8b5bd03f2dc06dcf742f1b6cb2ebe1085e595fe82c6ff7361",
                    "uncleHash" : "0x1dcc4de8dec75d7aab85b567b6ccd41ad312451b948a7413f0a142fd40d49347"
                },
                "rlp" : "0xf90343f901f8a09b25016c45ce0e295a463681361471a29c00aea06cba17cbc22894ce6d2c1defa01dcc4de8dec75d7aab85b567b6ccd41ad312451b948a7413f0a142fd40d493479468795c4aa09d6f4ed3e5deddf8c2ad3049a601daa0523915750ed47108704d08b2a0bfc7af37131077403e24a49406235ad478cbe5a0ea5261537a817ca8b5bd03f2dc06dcf742f1b6cb2ebe1085e595fe82c6ff7361a00c0528a910b50648e6ca29e49363bc6409f64e46af03049d6eeccd8613a69a41b90100000000000000000000000000000000000000000000000000000000000000000000000000000000000000000000000000000000000000000000000000000000000000000000000000000000000000000000000000000000000000000000000000000000000000000000000000000000000000000000000000000000000000000000000000000000000000000000000000000000000000000000000000000000000000000000000000000000000000000000000000000000000000000000000000000000000000000000000000000000000000000000000000000000000000000000000000000000000000000000000000000000000000000000000000000000008302000001833d37ef8301adb08203e880a01d659405c2d3e66e0fa7ebd92be9eb70215f8920ff3d2d6305d7ecab6331d59a88ffbd16dcd5014340f90144f9014101018301adb094b94f5374fce5edbc8e2a8697c15331677e6ebf0b80b8e01f4d1d80177b1377743d1901f70d7389be7f7a35a35bfd234a8aaee615b88c492eddcb59a6517e86bfbe35c9691479fffc6e0580000ca2706c983ff7afcb1db81f4d1d80177b1377743d1901f70d7389be7f7a35a35bfd234a8aaee615b88c492eddcb59a6517e86bfbe35c9691479fffc6e0580000ca2706c983ff7afcb1db81f4d1d80177b1377743d1901f70d7389be7f7a35a35bfd234a8aaee615b88c49018683193ae021a2f8920fed186cde5d9b1365116865281ccf884c1f28b1df8f30644e72e131a029b85045b68181585d2833e84879b9709143e1f593efffffff1ca05368cdcd0e0018861df4a01365bc95f7623249ab676d63ac9ec5aab99e75c30ba035c35d76eaa2b4ae90ea2acfeed6ca83d4db3df2f290fbe88cd2f36e5c54ac7dc0",
                "transactions" : [
                    {
                        "data" : "0x1f4d1d80177b1377743d1901f70d7389be7f7a35a35bfd234a8aaee615b88c492eddcb59a6517e86bfbe35c9691479fffc6e0580000ca2706c983ff7afcb1db81f4d1d80177b1377743d1901f70d7389be7f7a35a35bfd234a8aaee615b88c492eddcb59a6517e86bfbe35c9691479fffc6e0580000ca2706c983ff7afcb1db81f4d1d80177b1377743d1901f70d7389be7f7a35a35bfd234a8aaee615b88c49018683193ae021a2f8920fed186cde5d9b1365116865281ccf884c1f28b1df8f30644e72e131a029b85045b68181585d2833e84879b9709143e1f593efffffff",
                        "gasLimit" : "0x01adb0",
                        "gasPrice" : "0x01",
                        "nonce" : "0x01",
                        "r" : "0x5368cdcd0e0018861df4a01365bc95f7623249ab676d63ac9ec5aab99e75c30b",
                        "s" : "0x35c35d76eaa2b4ae90ea2acfeed6ca83d4db3df2f290fbe88cd2f36e5c54ac7d",
                        "to" : "0xb94f5374fce5edbc8e2a8697c15331677e6ebf0b",
                        "v" : "0x1c",
                        "value" : "0x00"
                    }
                ],
                "uncleHeaders" : [
                ]
            }
        ],
        "genesisBlockHeader" : {
            "bloom" : "0x00000000000000000000000000000000000000000000000000000000000000000000000000000000000000000000000000000000000000000000000000000000000000000000000000000000000000000000000000000000000000000000000000000000000000000000000000000000000000000000000000000000000000000000000000000000000000000000000000000000000000000000000000000000000000000000000000000000000000000000000000000000000000000000000000000000000000000000000000000000000000000000000000000000000000000000000000000000000000000000000000000000000000000000000000000000",
            "coinbase" : "0x68795c4aa09d6f4ed3e5deddf8c2ad3049a601da",
            "difficulty" : "0x020000",
            "extraData" : "0x42",
            "gasLimit" : "0x3d37ef",
            "gasUsed" : "0x00",
            "hash" : "0x9b25016c45ce0e295a463681361471a29c00aea06cba17cbc22894ce6d2c1def",
            "mixHash" : "0x56e81f171bcc55a6ff8345e692c0f86e5b48e01b996cadc001622fb5e363b421",
            "nonce" : "0x0102030405060708",
            "number" : "0x00",
            "parentHash" : "0x0000000000000000000000000000000000000000000000000000000000000000",
            "receiptTrie" : "0x56e81f171bcc55a6ff8345e692c0f86e5b48e01b996cadc001622fb5e363b421",
            "stateRoot" : "0xa4db92ceb60668ffcb9642d55fa7fe34cc341b53029d31394d82f0c61462bd99",
            "timestamp" : "0x03b6",
            "transactionsTrie" : "0x56e81f171bcc55a6ff8345e692c0f86e5b48e01b996cadc001622fb5e363b421",
            "uncleHash" : "0x1dcc4de8dec75d7aab85b567b6ccd41ad312451b948a7413f0a142fd40d49347"
        },
        "genesisRLP" : "0xf901faf901f5a00000000000000000000000000000000000000000000000000000000000000000a01dcc4de8dec75d7aab85b567b6ccd41ad312451b948a7413f0a142fd40d493479468795c4aa09d6f4ed3e5deddf8c2ad3049a601daa0a4db92ceb60668ffcb9642d55fa7fe34cc341b53029d31394d82f0c61462bd99a056e81f171bcc55a6ff8345e692c0f86e5b48e01b996cadc001622fb5e363b421a056e81f171bcc55a6ff8345e692c0f86e5b48e01b996cadc001622fb5e363b421b90100000000000000000000000000000000000000000000000000000000000000000000000000000000000000000000000000000000000000000000000000000000000000000000000000000000000000000000000000000000000000000000000000000000000000000000000000000000000000000000000000000000000000000000000000000000000000000000000000000000000000000000000000000000000000000000000000000000000000000000000000000000000000000000000000000000000000000000000000000000000000000000000000000000000000000000000000000000000000000000000000000000000000000000000000000000008302000080833d37ef808203b642a056e81f171bcc55a6ff8345e692c0f86e5b48e01b996cadc001622fb5e363b421880102030405060708c0c0",
        "lastblockhash" : "0x454cca822ffaa536985597d72821904e778622e7fe435dbff416ee534daa1f3e",
        "network" : "Frontier",
        "postState" : {
            "0x68795c4aa09d6f4ed3e5deddf8c2ad3049a601da" : {
                "balance" : "0x4563918244f5adb0",
                "code" : "",
                "nonce" : "0x00",
                "storage" : {
                }
            },
            "0xa94f5374fce5edbc8e2a8697c15331677e6ebf0b" : {
                "balance" : "0x0de0b6b3a7625250",
                "code" : "",
                "nonce" : "0x02",
                "storage" : {
                }
            },
            "0xb94f5374fce5edbc8e2a8697c15331677e6ebf0b" : {
                "balance" : "0x00",
                "code" : "0x60003560005260203560205260403560405260603560605260803560805260a03560a05260c03560c052604061012c60806000600060066207a120f2600055604061019060606080600060076207a120f260015561012c51600a5561014c51600b55610190516014556101b051601555601454600a5414600255601554600b5414600355",
                "nonce" : "0x00",
                "storage" : {
                }
            }
        },
        "pre" : {
            "0xa94f5374fce5edbc8e2a8697c15331677e6ebf0b" : {
                "balance" : "0x0de0b6b3a7640000",
                "code" : "",
                "nonce" : "0x01",
                "storage" : {
                }
            },
            "0xb94f5374fce5edbc8e2a8697c15331677e6ebf0b" : {
                "balance" : "0x00",
                "code" : "0x60003560005260203560205260403560405260603560605260803560805260a03560a05260c03560c052604061012c60806000600060066207a120f2600055604061019060606080600060076207a120f260015561012c51600a5561014c51600b55610190516014556101b051601555601454600a5414600255601554600b5414600355",
                "nonce" : "0x00",
                "storage" : {
                }
            }
        }
    },
    "pointMulAdd_d5g2v0_Homestead" : {
        "_info" : {
            "comment" : "",
            "filledwith" : "cpp-1.3.0+commit.82b0643a.Linux.g++",
            "lllcversion" : "Version: 0.4.20-develop.2018.1.8+commit.2548228b.Linux.g++",
            "source" : "src/BlockchainTestsFiller/GeneralStateTests/stZeroKnowledge/pointMulAdd_d5g2v0Filler.json",
            "sourceHash" : "c9b651bb056f2f979d777cef9a10b19a6d60bc94ca92b78e105ed1ad09976dc4"
        },
        "blocks" : [
            {
                "blockHeader" : {
                    "bloom" : "0x00000000000000000000000000000000000000000000000000000000000000000000000000000000000000000000000000000000000000000000000000000000000000000000000000000000000000000000000000000000000000000000000000000000000000000000000000000000000000000000000000000000000000000000000000000000000000000000000000000000000000000000000000000000000000000000000000000000000000000000000000000000000000000000000000000000000000000000000000000000000000000000000000000000000000000000000000000000000000000000000000000000000000000000000000000000",
                    "coinbase" : "0x68795c4aa09d6f4ed3e5deddf8c2ad3049a601da",
                    "difficulty" : "0x020000",
                    "extraData" : "",
                    "gasLimit" : "0x3d37ef",
                    "gasUsed" : "0x01adb0",
                    "hash" : "0x5008b2764ded4c91e91d1d86563fdec7385d260ea2c0c68bce6bd51b8d6cac9e",
                    "mixHash" : "0xe971918d349029725d7f85b2c99b4b71ec07115d4e7ae4e5029dbe1eea2c172a",
                    "nonce" : "0xec6685d8d85b017e",
                    "number" : "0x01",
                    "parentHash" : "0x9b25016c45ce0e295a463681361471a29c00aea06cba17cbc22894ce6d2c1def",
                    "receiptTrie" : "0x0c0528a910b50648e6ca29e49363bc6409f64e46af03049d6eeccd8613a69a41",
                    "stateRoot" : "0x523915750ed47108704d08b2a0bfc7af37131077403e24a49406235ad478cbe5",
                    "timestamp" : "0x03e8",
                    "transactionsTrie" : "0xea5261537a817ca8b5bd03f2dc06dcf742f1b6cb2ebe1085e595fe82c6ff7361",
                    "uncleHash" : "0x1dcc4de8dec75d7aab85b567b6ccd41ad312451b948a7413f0a142fd40d49347"
                },
                "rlp" : "0xf90343f901f8a09b25016c45ce0e295a463681361471a29c00aea06cba17cbc22894ce6d2c1defa01dcc4de8dec75d7aab85b567b6ccd41ad312451b948a7413f0a142fd40d493479468795c4aa09d6f4ed3e5deddf8c2ad3049a601daa0523915750ed47108704d08b2a0bfc7af37131077403e24a49406235ad478cbe5a0ea5261537a817ca8b5bd03f2dc06dcf742f1b6cb2ebe1085e595fe82c6ff7361a00c0528a910b50648e6ca29e49363bc6409f64e46af03049d6eeccd8613a69a41b90100000000000000000000000000000000000000000000000000000000000000000000000000000000000000000000000000000000000000000000000000000000000000000000000000000000000000000000000000000000000000000000000000000000000000000000000000000000000000000000000000000000000000000000000000000000000000000000000000000000000000000000000000000000000000000000000000000000000000000000000000000000000000000000000000000000000000000000000000000000000000000000000000000000000000000000000000000000000000000000000000000000000000000000000000000000008302000001833d37ef8301adb08203e880a0e971918d349029725d7f85b2c99b4b71ec07115d4e7ae4e5029dbe1eea2c172a88ec6685d8d85b017ef90144f9014101018301adb094b94f5374fce5edbc8e2a8697c15331677e6ebf0b80b8e01f4d1d80177b1377743d1901f70d7389be7f7a35a35bfd234a8aaee615b88c492eddcb59a6517e86bfbe35c9691479fffc6e0580000ca2706c983ff7afcb1db81f4d1d80177b1377743d1901f70d7389be7f7a35a35bfd234a8aaee615b88c492eddcb59a6517e86bfbe35c9691479fffc6e0580000ca2706c983ff7afcb1db81f4d1d80177b1377743d1901f70d7389be7f7a35a35bfd234a8aaee615b88c49018683193ae021a2f8920fed186cde5d9b1365116865281ccf884c1f28b1df8f30644e72e131a029b85045b68181585d2833e84879b9709143e1f593efffffff1ca05368cdcd0e0018861df4a01365bc95f7623249ab676d63ac9ec5aab99e75c30ba035c35d76eaa2b4ae90ea2acfeed6ca83d4db3df2f290fbe88cd2f36e5c54ac7dc0",
                "transactions" : [
                    {
                        "data" : "0x1f4d1d80177b1377743d1901f70d7389be7f7a35a35bfd234a8aaee615b88c492eddcb59a6517e86bfbe35c9691479fffc6e0580000ca2706c983ff7afcb1db81f4d1d80177b1377743d1901f70d7389be7f7a35a35bfd234a8aaee615b88c492eddcb59a6517e86bfbe35c9691479fffc6e0580000ca2706c983ff7afcb1db81f4d1d80177b1377743d1901f70d7389be7f7a35a35bfd234a8aaee615b88c49018683193ae021a2f8920fed186cde5d9b1365116865281ccf884c1f28b1df8f30644e72e131a029b85045b68181585d2833e84879b9709143e1f593efffffff",
                        "gasLimit" : "0x01adb0",
                        "gasPrice" : "0x01",
                        "nonce" : "0x01",
                        "r" : "0x5368cdcd0e0018861df4a01365bc95f7623249ab676d63ac9ec5aab99e75c30b",
                        "s" : "0x35c35d76eaa2b4ae90ea2acfeed6ca83d4db3df2f290fbe88cd2f36e5c54ac7d",
                        "to" : "0xb94f5374fce5edbc8e2a8697c15331677e6ebf0b",
                        "v" : "0x1c",
                        "value" : "0x00"
                    }
                ],
                "uncleHeaders" : [
                ]
            }
        ],
        "genesisBlockHeader" : {
            "bloom" : "0x00000000000000000000000000000000000000000000000000000000000000000000000000000000000000000000000000000000000000000000000000000000000000000000000000000000000000000000000000000000000000000000000000000000000000000000000000000000000000000000000000000000000000000000000000000000000000000000000000000000000000000000000000000000000000000000000000000000000000000000000000000000000000000000000000000000000000000000000000000000000000000000000000000000000000000000000000000000000000000000000000000000000000000000000000000000",
            "coinbase" : "0x68795c4aa09d6f4ed3e5deddf8c2ad3049a601da",
            "difficulty" : "0x020000",
            "extraData" : "0x42",
            "gasLimit" : "0x3d37ef",
            "gasUsed" : "0x00",
            "hash" : "0x9b25016c45ce0e295a463681361471a29c00aea06cba17cbc22894ce6d2c1def",
            "mixHash" : "0x56e81f171bcc55a6ff8345e692c0f86e5b48e01b996cadc001622fb5e363b421",
            "nonce" : "0x0102030405060708",
            "number" : "0x00",
            "parentHash" : "0x0000000000000000000000000000000000000000000000000000000000000000",
            "receiptTrie" : "0x56e81f171bcc55a6ff8345e692c0f86e5b48e01b996cadc001622fb5e363b421",
            "stateRoot" : "0xa4db92ceb60668ffcb9642d55fa7fe34cc341b53029d31394d82f0c61462bd99",
            "timestamp" : "0x03b6",
            "transactionsTrie" : "0x56e81f171bcc55a6ff8345e692c0f86e5b48e01b996cadc001622fb5e363b421",
            "uncleHash" : "0x1dcc4de8dec75d7aab85b567b6ccd41ad312451b948a7413f0a142fd40d49347"
        },
        "genesisRLP" : "0xf901faf901f5a00000000000000000000000000000000000000000000000000000000000000000a01dcc4de8dec75d7aab85b567b6ccd41ad312451b948a7413f0a142fd40d493479468795c4aa09d6f4ed3e5deddf8c2ad3049a601daa0a4db92ceb60668ffcb9642d55fa7fe34cc341b53029d31394d82f0c61462bd99a056e81f171bcc55a6ff8345e692c0f86e5b48e01b996cadc001622fb5e363b421a056e81f171bcc55a6ff8345e692c0f86e5b48e01b996cadc001622fb5e363b421b90100000000000000000000000000000000000000000000000000000000000000000000000000000000000000000000000000000000000000000000000000000000000000000000000000000000000000000000000000000000000000000000000000000000000000000000000000000000000000000000000000000000000000000000000000000000000000000000000000000000000000000000000000000000000000000000000000000000000000000000000000000000000000000000000000000000000000000000000000000000000000000000000000000000000000000000000000000000000000000000000000000000000000000000000000000000008302000080833d37ef808203b642a056e81f171bcc55a6ff8345e692c0f86e5b48e01b996cadc001622fb5e363b421880102030405060708c0c0",
        "lastblockhash" : "0x5008b2764ded4c91e91d1d86563fdec7385d260ea2c0c68bce6bd51b8d6cac9e",
        "network" : "Homestead",
        "postState" : {
            "0x68795c4aa09d6f4ed3e5deddf8c2ad3049a601da" : {
                "balance" : "0x4563918244f5adb0",
                "code" : "",
                "nonce" : "0x00",
                "storage" : {
                }
            },
            "0xa94f5374fce5edbc8e2a8697c15331677e6ebf0b" : {
                "balance" : "0x0de0b6b3a7625250",
                "code" : "",
                "nonce" : "0x02",
                "storage" : {
                }
            },
            "0xb94f5374fce5edbc8e2a8697c15331677e6ebf0b" : {
                "balance" : "0x00",
                "code" : "0x60003560005260203560205260403560405260603560605260803560805260a03560a05260c03560c052604061012c60806000600060066207a120f2600055604061019060606080600060076207a120f260015561012c51600a5561014c51600b55610190516014556101b051601555601454600a5414600255601554600b5414600355",
                "nonce" : "0x00",
                "storage" : {
                }
            }
        },
        "pre" : {
            "0xa94f5374fce5edbc8e2a8697c15331677e6ebf0b" : {
                "balance" : "0x0de0b6b3a7640000",
                "code" : "",
                "nonce" : "0x01",
                "storage" : {
                }
            },
            "0xb94f5374fce5edbc8e2a8697c15331677e6ebf0b" : {
                "balance" : "0x00",
                "code" : "0x60003560005260203560205260403560405260603560605260803560805260a03560a05260c03560c052604061012c60806000600060066207a120f2600055604061019060606080600060076207a120f260015561012c51600a5561014c51600b55610190516014556101b051601555601454600a5414600255601554600b5414600355",
                "nonce" : "0x00",
                "storage" : {
                }
            }
        }
    }
}