{
    "pointMulAdd2_d18g3v0_Byzantium" : {
        "_info" : {
            "comment" : "",
            "filledwith" : "cpp-1.3.0+commit.6e0ce939.Linux.g++",
            "lllcversion" : "Version: 0.4.18-develop.2017.9.25+commit.a72237f2.Linux.g++",
            "source" : "src/BlockchainTestsFiller/GeneralStateTests/stZeroKnowledge/pointMulAdd2_d18g3v0Filler.json",
            "sourceHash" : "065710958af75e5cd0bf4a138f5874043dc1792ec371e6eb7b5dfdd05c8b4d7b"
        },
        "blocks" : [
            {
                "blockHeader" : {
                    "bloom" : "0x00000000000000000000000000000000000000000000000000000000000000000000000000000000000000000000000000000000000000000000000000000000000000000000000000000000000000000000000000000000000000000000000000000000000000000000000000000000000000000000000000000000000000000000000000000000000000000000000000000000000000000000000000000000000000000000000000000000000000000000000000000000000000000000000000000000000000000000000000000000000000000000000000000000000000000000000000000000000000000000000000000000000000000000000000000000",
                    "coinbase" : "0x68795c4aa09d6f4ed3e5deddf8c2ad3049a601da",
                    "difficulty" : "0x020000",
                    "extraData" : "",
                    "gasLimit" : "0x3d37ef",
                    "gasUsed" : "0x030d40",
                    "hash" : "0x3a45aeabb8b3df994320ed65fd7fe155d634f84e2bb48605c4ee4bcfeefdea76",
                    "mixHash" : "0x9d44523f02c360a0ce58860e0af409b90b3cf097bfcdd889c604f1b2627dc1f4",
                    "nonce" : "0xfa5e051802cfb579",
                    "number" : "0x01",
                    "parentHash" : "0x9b25016c45ce0e295a463681361471a29c00aea06cba17cbc22894ce6d2c1def",
                    "receiptTrie" : "0xea5b87d12423d7570eb418dcdbb9f547f8fcc0577bd026d2189fd8fb550b85cf",
                    "stateRoot" : "0x29b87007b13728eb115d32f9d07f11d467d3d372a6c6005ace6b56b567a139af",
                    "timestamp" : "0x03e8",
                    "transactionsTrie" : "0x72d238ab915c056b58d90ac5f467877de3b1c719e0d97233edb38f4f39d025e8",
                    "uncleHash" : "0x1dcc4de8dec75d7aab85b567b6ccd41ad312451b948a7413f0a142fd40d49347"
                },
                "rlp" : "0xf90343f901f8a09b25016c45ce0e295a463681361471a29c00aea06cba17cbc22894ce6d2c1defa01dcc4de8dec75d7aab85b567b6ccd41ad312451b948a7413f0a142fd40d493479468795c4aa09d6f4ed3e5deddf8c2ad3049a601daa029b87007b13728eb115d32f9d07f11d467d3d372a6c6005ace6b56b567a139afa072d238ab915c056b58d90ac5f467877de3b1c719e0d97233edb38f4f39d025e8a0ea5b87d12423d7570eb418dcdbb9f547f8fcc0577bd026d2189fd8fb550b85cfb90100000000000000000000000000000000000000000000000000000000000000000000000000000000000000000000000000000000000000000000000000000000000000000000000000000000000000000000000000000000000000000000000000000000000000000000000000000000000000000000000000000000000000000000000000000000000000000000000000000000000000000000000000000000000000000000000000000000000000000000000000000000000000000000000000000000000000000000000000000000000000000000000000000000000000000000000000000000000000000000000000000000000000000000000000000000008302000001833d37ef83030d408203e880a09d44523f02c360a0ce58860e0af409b90b3cf097bfcdd889c604f1b2627dc1f488fa5e051802cfb579f90144f90141010183030d4094b94f5374fce5edbc8e2a8697c15331677e6ebf0b80b8e00ccbec17235f5b9cc5e42f3df6364a76ecdd0101ddda8fc5dc0ba0b59c0e5628069ef5e376c0a1ea82f9dfc2e0001a7f385d655eef9a6f976c7a5d2c493ea3ad0ccbec17235f5b9cc5e42f3df6364a76ecdd0101ddda8fc5dc0ba0b59c0e5628069ef5e376c0a1ea82f9dfc2e0001a7f385d655eef9a6f976c7a5d2c493ea3ad0ccbec17235f5b9cc5e42f3df6364a76ecdd0101ddda8fc5dc0ba0b59c0e5628069ef5e376c0a1ea82f9dfc2e0001a7f385d655eef9a6f976c7a5d2c493ea3ad00000000000000000000000000000000000000000000000000000000000000021ba0fb5bdd643289cc9f90f83a0684466e72caacb8c5f7f05134dc7113c0cb06f185a02c400f7c7da8f53e7196bb2357cc073d4c1f71aa0ed9fea5f191e774208c8d55c0",
                "transactions" : [
                    {
                        "data" : "0x0ccbec17235f5b9cc5e42f3df6364a76ecdd0101ddda8fc5dc0ba0b59c0e5628069ef5e376c0a1ea82f9dfc2e0001a7f385d655eef9a6f976c7a5d2c493ea3ad0ccbec17235f5b9cc5e42f3df6364a76ecdd0101ddda8fc5dc0ba0b59c0e5628069ef5e376c0a1ea82f9dfc2e0001a7f385d655eef9a6f976c7a5d2c493ea3ad0ccbec17235f5b9cc5e42f3df6364a76ecdd0101ddda8fc5dc0ba0b59c0e5628069ef5e376c0a1ea82f9dfc2e0001a7f385d655eef9a6f976c7a5d2c493ea3ad0000000000000000000000000000000000000000000000000000000000000002",
                        "gasLimit" : "0x030d40",
                        "gasPrice" : "0x01",
                        "nonce" : "0x01",
                        "r" : "0xfb5bdd643289cc9f90f83a0684466e72caacb8c5f7f05134dc7113c0cb06f185",
                        "s" : "0x2c400f7c7da8f53e7196bb2357cc073d4c1f71aa0ed9fea5f191e774208c8d55",
                        "to" : "0xb94f5374fce5edbc8e2a8697c15331677e6ebf0b",
                        "v" : "0x1b",
                        "value" : "0x00"
                    }
                ],
                "uncleHeaders" : [
                ]
            }
        ],
        "genesisBlockHeader" : {
            "bloom" : "0x00000000000000000000000000000000000000000000000000000000000000000000000000000000000000000000000000000000000000000000000000000000000000000000000000000000000000000000000000000000000000000000000000000000000000000000000000000000000000000000000000000000000000000000000000000000000000000000000000000000000000000000000000000000000000000000000000000000000000000000000000000000000000000000000000000000000000000000000000000000000000000000000000000000000000000000000000000000000000000000000000000000000000000000000000000000",
            "coinbase" : "0x68795c4aa09d6f4ed3e5deddf8c2ad3049a601da",
            "difficulty" : "0x020000",
            "extraData" : "0x42",
            "gasLimit" : "0x3d37ef",
            "gasUsed" : "0x00",
            "hash" : "0x9b25016c45ce0e295a463681361471a29c00aea06cba17cbc22894ce6d2c1def",
            "mixHash" : "0x56e81f171bcc55a6ff8345e692c0f86e5b48e01b996cadc001622fb5e363b421",
            "nonce" : "0x0102030405060708",
            "number" : "0x00",
            "parentHash" : "0x0000000000000000000000000000000000000000000000000000000000000000",
            "receiptTrie" : "0x56e81f171bcc55a6ff8345e692c0f86e5b48e01b996cadc001622fb5e363b421",
            "stateRoot" : "0xa4db92ceb60668ffcb9642d55fa7fe34cc341b53029d31394d82f0c61462bd99",
            "timestamp" : "0x03b6",
            "transactionsTrie" : "0x56e81f171bcc55a6ff8345e692c0f86e5b48e01b996cadc001622fb5e363b421",
            "uncleHash" : "0x1dcc4de8dec75d7aab85b567b6ccd41ad312451b948a7413f0a142fd40d49347"
        },
        "genesisRLP" : "0xf901faf901f5a00000000000000000000000000000000000000000000000000000000000000000a01dcc4de8dec75d7aab85b567b6ccd41ad312451b948a7413f0a142fd40d493479468795c4aa09d6f4ed3e5deddf8c2ad3049a601daa0a4db92ceb60668ffcb9642d55fa7fe34cc341b53029d31394d82f0c61462bd99a056e81f171bcc55a6ff8345e692c0f86e5b48e01b996cadc001622fb5e363b421a056e81f171bcc55a6ff8345e692c0f86e5b48e01b996cadc001622fb5e363b421b90100000000000000000000000000000000000000000000000000000000000000000000000000000000000000000000000000000000000000000000000000000000000000000000000000000000000000000000000000000000000000000000000000000000000000000000000000000000000000000000000000000000000000000000000000000000000000000000000000000000000000000000000000000000000000000000000000000000000000000000000000000000000000000000000000000000000000000000000000000000000000000000000000000000000000000000000000000000000000000000000000000000000000000000000000000000008302000080833d37ef808203b642a056e81f171bcc55a6ff8345e692c0f86e5b48e01b996cadc001622fb5e363b421880102030405060708c0c0",
        "lastblockhash" : "0x3a45aeabb8b3df994320ed65fd7fe155d634f84e2bb48605c4ee4bcfeefdea76",
        "network" : "Byzantium",
        "postState" : {
            "0x68795c4aa09d6f4ed3e5deddf8c2ad3049a601da" : {
                "balance" : "0x29a2241af62f0d40",
                "code" : "",
                "nonce" : "0x00",
                "storage" : {
                }
            },
            "0xa94f5374fce5edbc8e2a8697c15331677e6ebf0b" : {
                "balance" : "0x0de0b6b3a760f2c0",
                "code" : "",
                "nonce" : "0x02",
                "storage" : {
                }
            },
            "0xb94f5374fce5edbc8e2a8697c15331677e6ebf0b" : {
                "balance" : "0x00",
                "code" : "0x60003560005260203560205260403560405260603560605260803560805260a03560a05260c03560c052604061012c60806000600060066207a120f2600055604061019060606080600060076207a120f260015561012c51600a5561014c51600b55610190516014556101b051601555601454600a5414600255601554600b5414600355",
                "nonce" : "0x00",
                "storage" : {
                }
            }
        },
        "pre" : {
            "0xa94f5374fce5edbc8e2a8697c15331677e6ebf0b" : {
                "balance" : "0x0de0b6b3a7640000",
                "code" : "",
                "nonce" : "0x01",
                "storage" : {
                }
            },
            "0xb94f5374fce5edbc8e2a8697c15331677e6ebf0b" : {
                "balance" : "0x00",
                "code" : "0x60003560005260203560205260403560405260603560605260803560805260a03560a05260c03560c052604061012c60806000600060066207a120f2600055604061019060606080600060076207a120f260015561012c51600a5561014c51600b55610190516014556101b051601555601454600a5414600255601554600b5414600355",
                "nonce" : "0x00",
                "storage" : {
                }
            }
        }
    },
    "pointMulAdd2_d18g3v0_EIP150" : {
        "_info" : {
            "comment" : "",
            "filledwith" : "cpp-1.3.0+commit.6e0ce939.Linux.g++",
            "lllcversion" : "Version: 0.4.18-develop.2017.9.25+commit.a72237f2.Linux.g++",
            "source" : "src/BlockchainTestsFiller/GeneralStateTests/stZeroKnowledge/pointMulAdd2_d18g3v0Filler.json",
            "sourceHash" : "065710958af75e5cd0bf4a138f5874043dc1792ec371e6eb7b5dfdd05c8b4d7b"
        },
        "blocks" : [
            {
                "blockHeader" : {
                    "bloom" : "0x00000000000000000000000000000000000000000000000000000000000000000000000000000000000000000000000000000000000000000000000000000000000000000000000000000000000000000000000000000000000000000000000000000000000000000000000000000000000000000000000000000000000000000000000000000000000000000000000000000000000000000000000000000000000000000000000000000000000000000000000000000000000000000000000000000000000000000000000000000000000000000000000000000000000000000000000000000000000000000000000000000000000000000000000000000000",
                    "coinbase" : "0x68795c4aa09d6f4ed3e5deddf8c2ad3049a601da",
                    "difficulty" : "0x020000",
                    "extraData" : "",
                    "gasLimit" : "0x3d37ef",
                    "gasUsed" : "0x02152d",
                    "hash" : "0xf81994380c57ded5a0f67c3083790e27fc3648255764a0cd03b2d750be29f3c0",
                    "mixHash" : "0xff5f620bf0ab4dda78614347bbf85bdea0dbf9fd2c14c15a02d1be8db8bd50c3",
                    "nonce" : "0xa7baae87e9baf1bd",
                    "number" : "0x01",
                    "parentHash" : "0x9b25016c45ce0e295a463681361471a29c00aea06cba17cbc22894ce6d2c1def",
                    "receiptTrie" : "0xd606d901c7c8a37373778797b51c3c953f1927dafa127476751a491e6ce6829b",
                    "stateRoot" : "0x39e3b694e1193371842a49abb339b33013a0ae24a7c2149cb02bd81229515b60",
                    "timestamp" : "0x03e8",
                    "transactionsTrie" : "0x72d238ab915c056b58d90ac5f467877de3b1c719e0d97233edb38f4f39d025e8",
                    "uncleHash" : "0x1dcc4de8dec75d7aab85b567b6ccd41ad312451b948a7413f0a142fd40d49347"
                },
                "rlp" : "0xf90343f901f8a09b25016c45ce0e295a463681361471a29c00aea06cba17cbc22894ce6d2c1defa01dcc4de8dec75d7aab85b567b6ccd41ad312451b948a7413f0a142fd40d493479468795c4aa09d6f4ed3e5deddf8c2ad3049a601daa039e3b694e1193371842a49abb339b33013a0ae24a7c2149cb02bd81229515b60a072d238ab915c056b58d90ac5f467877de3b1c719e0d97233edb38f4f39d025e8a0d606d901c7c8a37373778797b51c3c953f1927dafa127476751a491e6ce6829bb90100000000000000000000000000000000000000000000000000000000000000000000000000000000000000000000000000000000000000000000000000000000000000000000000000000000000000000000000000000000000000000000000000000000000000000000000000000000000000000000000000000000000000000000000000000000000000000000000000000000000000000000000000000000000000000000000000000000000000000000000000000000000000000000000000000000000000000000000000000000000000000000000000000000000000000000000000000000000000000000000000000000000000000000000000000000008302000001833d37ef8302152d8203e880a0ff5f620bf0ab4dda78614347bbf85bdea0dbf9fd2c14c15a02d1be8db8bd50c388a7baae87e9baf1bdf90144f90141010183030d4094b94f5374fce5edbc8e2a8697c15331677e6ebf0b80b8e00ccbec17235f5b9cc5e42f3df6364a76ecdd0101ddda8fc5dc0ba0b59c0e5628069ef5e376c0a1ea82f9dfc2e0001a7f385d655eef9a6f976c7a5d2c493ea3ad0ccbec17235f5b9cc5e42f3df6364a76ecdd0101ddda8fc5dc0ba0b59c0e5628069ef5e376c0a1ea82f9dfc2e0001a7f385d655eef9a6f976c7a5d2c493ea3ad0ccbec17235f5b9cc5e42f3df6364a76ecdd0101ddda8fc5dc0ba0b59c0e5628069ef5e376c0a1ea82f9dfc2e0001a7f385d655eef9a6f976c7a5d2c493ea3ad00000000000000000000000000000000000000000000000000000000000000021ba0fb5bdd643289cc9f90f83a0684466e72caacb8c5f7f05134dc7113c0cb06f185a02c400f7c7da8f53e7196bb2357cc073d4c1f71aa0ed9fea5f191e774208c8d55c0",
                "transactions" : [
                    {
                        "data" : "0x0ccbec17235f5b9cc5e42f3df6364a76ecdd0101ddda8fc5dc0ba0b59c0e5628069ef5e376c0a1ea82f9dfc2e0001a7f385d655eef9a6f976c7a5d2c493ea3ad0ccbec17235f5b9cc5e42f3df6364a76ecdd0101ddda8fc5dc0ba0b59c0e5628069ef5e376c0a1ea82f9dfc2e0001a7f385d655eef9a6f976c7a5d2c493ea3ad0ccbec17235f5b9cc5e42f3df6364a76ecdd0101ddda8fc5dc0ba0b59c0e5628069ef5e376c0a1ea82f9dfc2e0001a7f385d655eef9a6f976c7a5d2c493ea3ad0000000000000000000000000000000000000000000000000000000000000002",
                        "gasLimit" : "0x030d40",
                        "gasPrice" : "0x01",
                        "nonce" : "0x01",
                        "r" : "0xfb5bdd643289cc9f90f83a0684466e72caacb8c5f7f05134dc7113c0cb06f185",
                        "s" : "0x2c400f7c7da8f53e7196bb2357cc073d4c1f71aa0ed9fea5f191e774208c8d55",
                        "to" : "0xb94f5374fce5edbc8e2a8697c15331677e6ebf0b",
                        "v" : "0x1b",
                        "value" : "0x00"
                    }
                ],
                "uncleHeaders" : [
                ]
            }
        ],
        "genesisBlockHeader" : {
            "bloom" : "0x00000000000000000000000000000000000000000000000000000000000000000000000000000000000000000000000000000000000000000000000000000000000000000000000000000000000000000000000000000000000000000000000000000000000000000000000000000000000000000000000000000000000000000000000000000000000000000000000000000000000000000000000000000000000000000000000000000000000000000000000000000000000000000000000000000000000000000000000000000000000000000000000000000000000000000000000000000000000000000000000000000000000000000000000000000000",
            "coinbase" : "0x68795c4aa09d6f4ed3e5deddf8c2ad3049a601da",
            "difficulty" : "0x020000",
            "extraData" : "0x42",
            "gasLimit" : "0x3d37ef",
            "gasUsed" : "0x00",
            "hash" : "0x9b25016c45ce0e295a463681361471a29c00aea06cba17cbc22894ce6d2c1def",
            "mixHash" : "0x56e81f171bcc55a6ff8345e692c0f86e5b48e01b996cadc001622fb5e363b421",
            "nonce" : "0x0102030405060708",
            "number" : "0x00",
            "parentHash" : "0x0000000000000000000000000000000000000000000000000000000000000000",
            "receiptTrie" : "0x56e81f171bcc55a6ff8345e692c0f86e5b48e01b996cadc001622fb5e363b421",
            "stateRoot" : "0xa4db92ceb60668ffcb9642d55fa7fe34cc341b53029d31394d82f0c61462bd99",
            "timestamp" : "0x03b6",
            "transactionsTrie" : "0x56e81f171bcc55a6ff8345e692c0f86e5b48e01b996cadc001622fb5e363b421",
            "uncleHash" : "0x1dcc4de8dec75d7aab85b567b6ccd41ad312451b948a7413f0a142fd40d49347"
        },
        "genesisRLP" : "0xf901faf901f5a00000000000000000000000000000000000000000000000000000000000000000a01dcc4de8dec75d7aab85b567b6ccd41ad312451b948a7413f0a142fd40d493479468795c4aa09d6f4ed3e5deddf8c2ad3049a601daa0a4db92ceb60668ffcb9642d55fa7fe34cc341b53029d31394d82f0c61462bd99a056e81f171bcc55a6ff8345e692c0f86e5b48e01b996cadc001622fb5e363b421a056e81f171bcc55a6ff8345e692c0f86e5b48e01b996cadc001622fb5e363b421b90100000000000000000000000000000000000000000000000000000000000000000000000000000000000000000000000000000000000000000000000000000000000000000000000000000000000000000000000000000000000000000000000000000000000000000000000000000000000000000000000000000000000000000000000000000000000000000000000000000000000000000000000000000000000000000000000000000000000000000000000000000000000000000000000000000000000000000000000000000000000000000000000000000000000000000000000000000000000000000000000000000000000000000000000000000000008302000080833d37ef808203b642a056e81f171bcc55a6ff8345e692c0f86e5b48e01b996cadc001622fb5e363b421880102030405060708c0c0",
        "lastblockhash" : "0xf81994380c57ded5a0f67c3083790e27fc3648255764a0cd03b2d750be29f3c0",
        "network" : "EIP150",
        "postState" : {
            "0x68795c4aa09d6f4ed3e5deddf8c2ad3049a601da" : {
                "balance" : "0x4563918244f6152d",
                "code" : "",
                "nonce" : "0x00",
                "storage" : {
                }
            },
            "0xa94f5374fce5edbc8e2a8697c15331677e6ebf0b" : {
                "balance" : "0x0de0b6b3a761ead3",
                "code" : "",
                "nonce" : "0x02",
                "storage" : {
                }
            },
            "0xb94f5374fce5edbc8e2a8697c15331677e6ebf0b" : {
                "balance" : "0x00",
                "code" : "0x60003560005260203560205260403560405260603560605260803560805260a03560a05260c03560c052604061012c60806000600060066207a120f2600055604061019060606080600060076207a120f260015561012c51600a5561014c51600b55610190516014556101b051601555601454600a5414600255601554600b5414600355",
                "nonce" : "0x00",
                "storage" : {
                    "0x00" : "0x01",
                    "0x01" : "0x01",
                    "0x02" : "0x01",
                    "0x03" : "0x01"
                }
            }
        },
        "pre" : {
            "0xa94f5374fce5edbc8e2a8697c15331677e6ebf0b" : {
                "balance" : "0x0de0b6b3a7640000",
                "code" : "",
                "nonce" : "0x01",
                "storage" : {
                }
            },
            "0xb94f5374fce5edbc8e2a8697c15331677e6ebf0b" : {
                "balance" : "0x00",
                "code" : "0x60003560005260203560205260403560405260603560605260803560805260a03560a05260c03560c052604061012c60806000600060066207a120f2600055604061019060606080600060076207a120f260015561012c51600a5561014c51600b55610190516014556101b051601555601454600a5414600255601554600b5414600355",
                "nonce" : "0x00",
                "storage" : {
                }
            }
        }
    },
    "pointMulAdd2_d18g3v0_EIP158" : {
        "_info" : {
            "comment" : "",
            "filledwith" : "cpp-1.3.0+commit.6e0ce939.Linux.g++",
            "lllcversion" : "Version: 0.4.18-develop.2017.9.25+commit.a72237f2.Linux.g++",
            "source" : "src/BlockchainTestsFiller/GeneralStateTests/stZeroKnowledge/pointMulAdd2_d18g3v0Filler.json",
            "sourceHash" : "065710958af75e5cd0bf4a138f5874043dc1792ec371e6eb7b5dfdd05c8b4d7b"
        },
        "blocks" : [
            {
                "blockHeader" : {
                    "bloom" : "0x00000000000000000000000000000000000000000000000000000000000000000000000000000000000000000000000000000000000000000000000000000000000000000000000000000000000000000000000000000000000000000000000000000000000000000000000000000000000000000000000000000000000000000000000000000000000000000000000000000000000000000000000000000000000000000000000000000000000000000000000000000000000000000000000000000000000000000000000000000000000000000000000000000000000000000000000000000000000000000000000000000000000000000000000000000000",
                    "coinbase" : "0x68795c4aa09d6f4ed3e5deddf8c2ad3049a601da",
                    "difficulty" : "0x020000",
                    "extraData" : "",
                    "gasLimit" : "0x3d37ef",
                    "gasUsed" : "0x02152d",
                    "hash" : "0xeecd10372066bd8b9edbfd909f1eccd8f2f060d929c93d88da1c889fe7ae7738",
                    "mixHash" : "0x8fa636b75d14c2b6f43c8e5f1825831a260d99024960a72c6657931b232225e9",
                    "nonce" : "0x4a49eb048f5777cc",
                    "number" : "0x01",
                    "parentHash" : "0x9b25016c45ce0e295a463681361471a29c00aea06cba17cbc22894ce6d2c1def",
                    "receiptTrie" : "0xd606d901c7c8a37373778797b51c3c953f1927dafa127476751a491e6ce6829b",
                    "stateRoot" : "0x39e3b694e1193371842a49abb339b33013a0ae24a7c2149cb02bd81229515b60",
                    "timestamp" : "0x03e8",
                    "transactionsTrie" : "0x72d238ab915c056b58d90ac5f467877de3b1c719e0d97233edb38f4f39d025e8",
                    "uncleHash" : "0x1dcc4de8dec75d7aab85b567b6ccd41ad312451b948a7413f0a142fd40d49347"
                },
                "rlp" : "0xf90343f901f8a09b25016c45ce0e295a463681361471a29c00aea06cba17cbc22894ce6d2c1defa01dcc4de8dec75d7aab85b567b6ccd41ad312451b948a7413f0a142fd40d493479468795c4aa09d6f4ed3e5deddf8c2ad3049a601daa039e3b694e1193371842a49abb339b33013a0ae24a7c2149cb02bd81229515b60a072d238ab915c056b58d90ac5f467877de3b1c719e0d97233edb38f4f39d025e8a0d606d901c7c8a37373778797b51c3c953f1927dafa127476751a491e6ce6829bb90100000000000000000000000000000000000000000000000000000000000000000000000000000000000000000000000000000000000000000000000000000000000000000000000000000000000000000000000000000000000000000000000000000000000000000000000000000000000000000000000000000000000000000000000000000000000000000000000000000000000000000000000000000000000000000000000000000000000000000000000000000000000000000000000000000000000000000000000000000000000000000000000000000000000000000000000000000000000000000000000000000000000000000000000000000000008302000001833d37ef8302152d8203e880a08fa636b75d14c2b6f43c8e5f1825831a260d99024960a72c6657931b232225e9884a49eb048f5777ccf90144f90141010183030d4094b94f5374fce5edbc8e2a8697c15331677e6ebf0b80b8e00ccbec17235f5b9cc5e42f3df6364a76ecdd0101ddda8fc5dc0ba0b59c0e5628069ef5e376c0a1ea82f9dfc2e0001a7f385d655eef9a6f976c7a5d2c493ea3ad0ccbec17235f5b9cc5e42f3df6364a76ecdd0101ddda8fc5dc0ba0b59c0e5628069ef5e376c0a1ea82f9dfc2e0001a7f385d655eef9a6f976c7a5d2c493ea3ad0ccbec17235f5b9cc5e42f3df6364a76ecdd0101ddda8fc5dc0ba0b59c0e5628069ef5e376c0a1ea82f9dfc2e0001a7f385d655eef9a6f976c7a5d2c493ea3ad00000000000000000000000000000000000000000000000000000000000000021ba0fb5bdd643289cc9f90f83a0684466e72caacb8c5f7f05134dc7113c0cb06f185a02c400f7c7da8f53e7196bb2357cc073d4c1f71aa0ed9fea5f191e774208c8d55c0",
                "transactions" : [
                    {
                        "data" : "0x0ccbec17235f5b9cc5e42f3df6364a76ecdd0101ddda8fc5dc0ba0b59c0e5628069ef5e376c0a1ea82f9dfc2e0001a7f385d655eef9a6f976c7a5d2c493ea3ad0ccbec17235f5b9cc5e42f3df6364a76ecdd0101ddda8fc5dc0ba0b59c0e5628069ef5e376c0a1ea82f9dfc2e0001a7f385d655eef9a6f976c7a5d2c493ea3ad0ccbec17235f5b9cc5e42f3df6364a76ecdd0101ddda8fc5dc0ba0b59c0e5628069ef5e376c0a1ea82f9dfc2e0001a7f385d655eef9a6f976c7a5d2c493ea3ad0000000000000000000000000000000000000000000000000000000000000002",
                        "gasLimit" : "0x030d40",
                        "gasPrice" : "0x01",
                        "nonce" : "0x01",
                        "r" : "0xfb5bdd643289cc9f90f83a0684466e72caacb8c5f7f05134dc7113c0cb06f185",
                        "s" : "0x2c400f7c7da8f53e7196bb2357cc073d4c1f71aa0ed9fea5f191e774208c8d55",
                        "to" : "0xb94f5374fce5edbc8e2a8697c15331677e6ebf0b",
                        "v" : "0x1b",
                        "value" : "0x00"
                    }
                ],
                "uncleHeaders" : [
                ]
            }
        ],
        "genesisBlockHeader" : {
            "bloom" : "0x00000000000000000000000000000000000000000000000000000000000000000000000000000000000000000000000000000000000000000000000000000000000000000000000000000000000000000000000000000000000000000000000000000000000000000000000000000000000000000000000000000000000000000000000000000000000000000000000000000000000000000000000000000000000000000000000000000000000000000000000000000000000000000000000000000000000000000000000000000000000000000000000000000000000000000000000000000000000000000000000000000000000000000000000000000000",
            "coinbase" : "0x68795c4aa09d6f4ed3e5deddf8c2ad3049a601da",
            "difficulty" : "0x020000",
            "extraData" : "0x42",
            "gasLimit" : "0x3d37ef",
            "gasUsed" : "0x00",
            "hash" : "0x9b25016c45ce0e295a463681361471a29c00aea06cba17cbc22894ce6d2c1def",
            "mixHash" : "0x56e81f171bcc55a6ff8345e692c0f86e5b48e01b996cadc001622fb5e363b421",
            "nonce" : "0x0102030405060708",
            "number" : "0x00",
            "parentHash" : "0x0000000000000000000000000000000000000000000000000000000000000000",
            "receiptTrie" : "0x56e81f171bcc55a6ff8345e692c0f86e5b48e01b996cadc001622fb5e363b421",
            "stateRoot" : "0xa4db92ceb60668ffcb9642d55fa7fe34cc341b53029d31394d82f0c61462bd99",
            "timestamp" : "0x03b6",
            "transactionsTrie" : "0x56e81f171bcc55a6ff8345e692c0f86e5b48e01b996cadc001622fb5e363b421",
            "uncleHash" : "0x1dcc4de8dec75d7aab85b567b6ccd41ad312451b948a7413f0a142fd40d49347"
        },
        "genesisRLP" : "0xf901faf901f5a00000000000000000000000000000000000000000000000000000000000000000a01dcc4de8dec75d7aab85b567b6ccd41ad312451b948a7413f0a142fd40d493479468795c4aa09d6f4ed3e5deddf8c2ad3049a601daa0a4db92ceb60668ffcb9642d55fa7fe34cc341b53029d31394d82f0c61462bd99a056e81f171bcc55a6ff8345e692c0f86e5b48e01b996cadc001622fb5e363b421a056e81f171bcc55a6ff8345e692c0f86e5b48e01b996cadc001622fb5e363b421b90100000000000000000000000000000000000000000000000000000000000000000000000000000000000000000000000000000000000000000000000000000000000000000000000000000000000000000000000000000000000000000000000000000000000000000000000000000000000000000000000000000000000000000000000000000000000000000000000000000000000000000000000000000000000000000000000000000000000000000000000000000000000000000000000000000000000000000000000000000000000000000000000000000000000000000000000000000000000000000000000000000000000000000000000000000000008302000080833d37ef808203b642a056e81f171bcc55a6ff8345e692c0f86e5b48e01b996cadc001622fb5e363b421880102030405060708c0c0",
        "lastblockhash" : "0xeecd10372066bd8b9edbfd909f1eccd8f2f060d929c93d88da1c889fe7ae7738",
        "network" : "EIP158",
        "postState" : {
            "0x68795c4aa09d6f4ed3e5deddf8c2ad3049a601da" : {
                "balance" : "0x4563918244f6152d",
                "code" : "",
                "nonce" : "0x00",
                "storage" : {
                }
            },
            "0xa94f5374fce5edbc8e2a8697c15331677e6ebf0b" : {
                "balance" : "0x0de0b6b3a761ead3",
                "code" : "",
                "nonce" : "0x02",
                "storage" : {
                }
            },
            "0xb94f5374fce5edbc8e2a8697c15331677e6ebf0b" : {
                "balance" : "0x00",
                "code" : "0x60003560005260203560205260403560405260603560605260803560805260a03560a05260c03560c052604061012c60806000600060066207a120f2600055604061019060606080600060076207a120f260015561012c51600a5561014c51600b55610190516014556101b051601555601454600a5414600255601554600b5414600355",
                "nonce" : "0x00",
                "storage" : {
                    "0x00" : "0x01",
                    "0x01" : "0x01",
                    "0x02" : "0x01",
                    "0x03" : "0x01"
                }
            }
        },
        "pre" : {
            "0xa94f5374fce5edbc8e2a8697c15331677e6ebf0b" : {
                "balance" : "0x0de0b6b3a7640000",
                "code" : "",
                "nonce" : "0x01",
                "storage" : {
                }
            },
            "0xb94f5374fce5edbc8e2a8697c15331677e6ebf0b" : {
                "balance" : "0x00",
                "code" : "0x60003560005260203560205260403560405260603560605260803560805260a03560a05260c03560c052604061012c60806000600060066207a120f2600055604061019060606080600060076207a120f260015561012c51600a5561014c51600b55610190516014556101b051601555601454600a5414600255601554600b5414600355",
                "nonce" : "0x00",
                "storage" : {
                }
            }
        }
    },
    "pointMulAdd2_d18g3v0_Frontier" : {
        "_info" : {
            "comment" : "",
            "filledwith" : "cpp-1.3.0+commit.6e0ce939.Linux.g++",
            "lllcversion" : "Version: 0.4.18-develop.2017.9.25+commit.a72237f2.Linux.g++",
            "source" : "src/BlockchainTestsFiller/GeneralStateTests/stZeroKnowledge/pointMulAdd2_d18g3v0Filler.json",
            "sourceHash" : "065710958af75e5cd0bf4a138f5874043dc1792ec371e6eb7b5dfdd05c8b4d7b"
        },
        "blocks" : [
            {
                "blockHeader" : {
                    "bloom" : "0x00000000000000000000000000000000000000000000000000000000000000000000000000000000000000000000000000000000000000000000000000000000000000000000000000000000000000000000000000000000000000000000000000000000000000000000000000000000000000000000000000000000000000000000000000000000000000000000000000000000000000000000000000000000000000000000000000000000000000000000000000000000000000000000000000000000000000000000000000000000000000000000000000000000000000000000000000000000000000000000000000000000000000000000000000000000",
                    "coinbase" : "0x68795c4aa09d6f4ed3e5deddf8c2ad3049a601da",
                    "difficulty" : "0x020000",
                    "extraData" : "",
                    "gasLimit" : "0x3d37ef",
                    "gasUsed" : "0x030d40",
                    "hash" : "0xc14c1140cb79abedc74c0d620bb6d6c2aa1c315e1fe4b6d5ff5ddef747f89697",
                    "mixHash" : "0x366de49ce28c098d7b0c53e0423107e24293c064028e90ca458714e03b5961ad",
                    "nonce" : "0xfd47f18a8bcc1e2e",
                    "number" : "0x01",
                    "parentHash" : "0x9b25016c45ce0e295a463681361471a29c00aea06cba17cbc22894ce6d2c1def",
                    "receiptTrie" : "0x94fc6ab23c723ae69c5e36d2f2a740b4137142e3e09b6d3e50de8ac0249fe70b",
                    "stateRoot" : "0x178b083b7260951307d4bd831d53e8eaa60e328eaaa29f499e76e71c9730ac62",
                    "timestamp" : "0x03e8",
                    "transactionsTrie" : "0x72d238ab915c056b58d90ac5f467877de3b1c719e0d97233edb38f4f39d025e8",
                    "uncleHash" : "0x1dcc4de8dec75d7aab85b567b6ccd41ad312451b948a7413f0a142fd40d49347"
                },
                "rlp" : "0xf90343f901f8a09b25016c45ce0e295a463681361471a29c00aea06cba17cbc22894ce6d2c1defa01dcc4de8dec75d7aab85b567b6ccd41ad312451b948a7413f0a142fd40d493479468795c4aa09d6f4ed3e5deddf8c2ad3049a601daa0178b083b7260951307d4bd831d53e8eaa60e328eaaa29f499e76e71c9730ac62a072d238ab915c056b58d90ac5f467877de3b1c719e0d97233edb38f4f39d025e8a094fc6ab23c723ae69c5e36d2f2a740b4137142e3e09b6d3e50de8ac0249fe70bb90100000000000000000000000000000000000000000000000000000000000000000000000000000000000000000000000000000000000000000000000000000000000000000000000000000000000000000000000000000000000000000000000000000000000000000000000000000000000000000000000000000000000000000000000000000000000000000000000000000000000000000000000000000000000000000000000000000000000000000000000000000000000000000000000000000000000000000000000000000000000000000000000000000000000000000000000000000000000000000000000000000000000000000000000000000000008302000001833d37ef83030d408203e880a0366de49ce28c098d7b0c53e0423107e24293c064028e90ca458714e03b5961ad88fd47f18a8bcc1e2ef90144f90141010183030d4094b94f5374fce5edbc8e2a8697c15331677e6ebf0b80b8e00ccbec17235f5b9cc5e42f3df6364a76ecdd0101ddda8fc5dc0ba0b59c0e5628069ef5e376c0a1ea82f9dfc2e0001a7f385d655eef9a6f976c7a5d2c493ea3ad0ccbec17235f5b9cc5e42f3df6364a76ecdd0101ddda8fc5dc0ba0b59c0e5628069ef5e376c0a1ea82f9dfc2e0001a7f385d655eef9a6f976c7a5d2c493ea3ad0ccbec17235f5b9cc5e42f3df6364a76ecdd0101ddda8fc5dc0ba0b59c0e5628069ef5e376c0a1ea82f9dfc2e0001a7f385d655eef9a6f976c7a5d2c493ea3ad00000000000000000000000000000000000000000000000000000000000000021ba0fb5bdd643289cc9f90f83a0684466e72caacb8c5f7f05134dc7113c0cb06f185a02c400f7c7da8f53e7196bb2357cc073d4c1f71aa0ed9fea5f191e774208c8d55c0",
                "transactions" : [
                    {
                        "data" : "0x0ccbec17235f5b9cc5e42f3df6364a76ecdd0101ddda8fc5dc0ba0b59c0e5628069ef5e376c0a1ea82f9dfc2e0001a7f385d655eef9a6f976c7a5d2c493ea3ad0ccbec17235f5b9cc5e42f3df6364a76ecdd0101ddda8fc5dc0ba0b59c0e5628069ef5e376c0a1ea82f9dfc2e0001a7f385d655eef9a6f976c7a5d2c493ea3ad0ccbec17235f5b9cc5e42f3df6364a76ecdd0101ddda8fc5dc0ba0b59c0e5628069ef5e376c0a1ea82f9dfc2e0001a7f385d655eef9a6f976c7a5d2c493ea3ad0000000000000000000000000000000000000000000000000000000000000002",
                        "gasLimit" : "0x030d40",
                        "gasPrice" : "0x01",
                        "nonce" : "0x01",
                        "r" : "0xfb5bdd643289cc9f90f83a0684466e72caacb8c5f7f05134dc7113c0cb06f185",
                        "s" : "0x2c400f7c7da8f53e7196bb2357cc073d4c1f71aa0ed9fea5f191e774208c8d55",
                        "to" : "0xb94f5374fce5edbc8e2a8697c15331677e6ebf0b",
                        "v" : "0x1b",
                        "value" : "0x00"
                    }
                ],
                "uncleHeaders" : [
                ]
            }
        ],
        "genesisBlockHeader" : {
            "bloom" : "0x00000000000000000000000000000000000000000000000000000000000000000000000000000000000000000000000000000000000000000000000000000000000000000000000000000000000000000000000000000000000000000000000000000000000000000000000000000000000000000000000000000000000000000000000000000000000000000000000000000000000000000000000000000000000000000000000000000000000000000000000000000000000000000000000000000000000000000000000000000000000000000000000000000000000000000000000000000000000000000000000000000000000000000000000000000000",
            "coinbase" : "0x68795c4aa09d6f4ed3e5deddf8c2ad3049a601da",
            "difficulty" : "0x020000",
            "extraData" : "0x42",
            "gasLimit" : "0x3d37ef",
            "gasUsed" : "0x00",
            "hash" : "0x9b25016c45ce0e295a463681361471a29c00aea06cba17cbc22894ce6d2c1def",
            "mixHash" : "0x56e81f171bcc55a6ff8345e692c0f86e5b48e01b996cadc001622fb5e363b421",
            "nonce" : "0x0102030405060708",
            "number" : "0x00",
            "parentHash" : "0x0000000000000000000000000000000000000000000000000000000000000000",
            "receiptTrie" : "0x56e81f171bcc55a6ff8345e692c0f86e5b48e01b996cadc001622fb5e363b421",
            "stateRoot" : "0xa4db92ceb60668ffcb9642d55fa7fe34cc341b53029d31394d82f0c61462bd99",
            "timestamp" : "0x03b6",
            "transactionsTrie" : "0x56e81f171bcc55a6ff8345e692c0f86e5b48e01b996cadc001622fb5e363b421",
            "uncleHash" : "0x1dcc4de8dec75d7aab85b567b6ccd41ad312451b948a7413f0a142fd40d49347"
        },
        "genesisRLP" : "0xf901faf901f5a00000000000000000000000000000000000000000000000000000000000000000a01dcc4de8dec75d7aab85b567b6ccd41ad312451b948a7413f0a142fd40d493479468795c4aa09d6f4ed3e5deddf8c2ad3049a601daa0a4db92ceb60668ffcb9642d55fa7fe34cc341b53029d31394d82f0c61462bd99a056e81f171bcc55a6ff8345e692c0f86e5b48e01b996cadc001622fb5e363b421a056e81f171bcc55a6ff8345e692c0f86e5b48e01b996cadc001622fb5e363b421b90100000000000000000000000000000000000000000000000000000000000000000000000000000000000000000000000000000000000000000000000000000000000000000000000000000000000000000000000000000000000000000000000000000000000000000000000000000000000000000000000000000000000000000000000000000000000000000000000000000000000000000000000000000000000000000000000000000000000000000000000000000000000000000000000000000000000000000000000000000000000000000000000000000000000000000000000000000000000000000000000000000000000000000000000000000000008302000080833d37ef808203b642a056e81f171bcc55a6ff8345e692c0f86e5b48e01b996cadc001622fb5e363b421880102030405060708c0c0",
        "lastblockhash" : "0xc14c1140cb79abedc74c0d620bb6d6c2aa1c315e1fe4b6d5ff5ddef747f89697",
        "network" : "Frontier",
        "postState" : {
            "0x68795c4aa09d6f4ed3e5deddf8c2ad3049a601da" : {
                "balance" : "0x4563918244f70d40",
                "code" : "",
                "nonce" : "0x00",
                "storage" : {
                }
            },
            "0xa94f5374fce5edbc8e2a8697c15331677e6ebf0b" : {
                "balance" : "0x0de0b6b3a760f2c0",
                "code" : "",
                "nonce" : "0x02",
                "storage" : {
                }
            },
            "0xb94f5374fce5edbc8e2a8697c15331677e6ebf0b" : {
                "balance" : "0x00",
                "code" : "0x60003560005260203560205260403560405260603560605260803560805260a03560a05260c03560c052604061012c60806000600060066207a120f2600055604061019060606080600060076207a120f260015561012c51600a5561014c51600b55610190516014556101b051601555601454600a5414600255601554600b5414600355",
                "nonce" : "0x00",
                "storage" : {
                }
            }
        },
        "pre" : {
            "0xa94f5374fce5edbc8e2a8697c15331677e6ebf0b" : {
                "balance" : "0x0de0b6b3a7640000",
                "code" : "",
                "nonce" : "0x01",
                "storage" : {
                }
            },
            "0xb94f5374fce5edbc8e2a8697c15331677e6ebf0b" : {
                "balance" : "0x00",
                "code" : "0x60003560005260203560205260403560405260603560605260803560805260a03560a05260c03560c052604061012c60806000600060066207a120f2600055604061019060606080600060076207a120f260015561012c51600a5561014c51600b55610190516014556101b051601555601454600a5414600255601554600b5414600355",
                "nonce" : "0x00",
                "storage" : {
                }
            }
        }
    },
    "pointMulAdd2_d18g3v0_Homestead" : {
        "_info" : {
            "comment" : "",
            "filledwith" : "cpp-1.3.0+commit.6e0ce939.Linux.g++",
            "lllcversion" : "Version: 0.4.18-develop.2017.9.25+commit.a72237f2.Linux.g++",
            "source" : "src/BlockchainTestsFiller/GeneralStateTests/stZeroKnowledge/pointMulAdd2_d18g3v0Filler.json",
            "sourceHash" : "065710958af75e5cd0bf4a138f5874043dc1792ec371e6eb7b5dfdd05c8b4d7b"
        },
        "blocks" : [
            {
                "blockHeader" : {
                    "bloom" : "0x00000000000000000000000000000000000000000000000000000000000000000000000000000000000000000000000000000000000000000000000000000000000000000000000000000000000000000000000000000000000000000000000000000000000000000000000000000000000000000000000000000000000000000000000000000000000000000000000000000000000000000000000000000000000000000000000000000000000000000000000000000000000000000000000000000000000000000000000000000000000000000000000000000000000000000000000000000000000000000000000000000000000000000000000000000000",
                    "coinbase" : "0x68795c4aa09d6f4ed3e5deddf8c2ad3049a601da",
                    "difficulty" : "0x020000",
                    "extraData" : "",
                    "gasLimit" : "0x3d37ef",
                    "gasUsed" : "0x030d40",
                    "hash" : "0xc87f80f190397b7c1a3f39fd8f0b6440d58c5e25d18ea97dc23ad22daa1532f1",
                    "mixHash" : "0xc396b101d10486093a042839e509ecb441d6719f654eaec060426ac4eca2d050",
                    "nonce" : "0xe4edbec4be06783d",
                    "number" : "0x01",
                    "parentHash" : "0x9b25016c45ce0e295a463681361471a29c00aea06cba17cbc22894ce6d2c1def",
                    "receiptTrie" : "0x94fc6ab23c723ae69c5e36d2f2a740b4137142e3e09b6d3e50de8ac0249fe70b",
                    "stateRoot" : "0x178b083b7260951307d4bd831d53e8eaa60e328eaaa29f499e76e71c9730ac62",
                    "timestamp" : "0x03e8",
                    "transactionsTrie" : "0x72d238ab915c056b58d90ac5f467877de3b1c719e0d97233edb38f4f39d025e8",
                    "uncleHash" : "0x1dcc4de8dec75d7aab85b567b6ccd41ad312451b948a7413f0a142fd40d49347"
                },
                "rlp" : "0xf90343f901f8a09b25016c45ce0e295a463681361471a29c00aea06cba17cbc22894ce6d2c1defa01dcc4de8dec75d7aab85b567b6ccd41ad312451b948a7413f0a142fd40d493479468795c4aa09d6f4ed3e5deddf8c2ad3049a601daa0178b083b7260951307d4bd831d53e8eaa60e328eaaa29f499e76e71c9730ac62a072d238ab915c056b58d90ac5f467877de3b1c719e0d97233edb38f4f39d025e8a094fc6ab23c723ae69c5e36d2f2a740b4137142e3e09b6d3e50de8ac0249fe70bb90100000000000000000000000000000000000000000000000000000000000000000000000000000000000000000000000000000000000000000000000000000000000000000000000000000000000000000000000000000000000000000000000000000000000000000000000000000000000000000000000000000000000000000000000000000000000000000000000000000000000000000000000000000000000000000000000000000000000000000000000000000000000000000000000000000000000000000000000000000000000000000000000000000000000000000000000000000000000000000000000000000000000000000000000000000000008302000001833d37ef83030d408203e880a0c396b101d10486093a042839e509ecb441d6719f654eaec060426ac4eca2d05088e4edbec4be06783df90144f90141010183030d4094b94f5374fce5edbc8e2a8697c15331677e6ebf0b80b8e00ccbec17235f5b9cc5e42f3df6364a76ecdd0101ddda8fc5dc0ba0b59c0e5628069ef5e376c0a1ea82f9dfc2e0001a7f385d655eef9a6f976c7a5d2c493ea3ad0ccbec17235f5b9cc5e42f3df6364a76ecdd0101ddda8fc5dc0ba0b59c0e5628069ef5e376c0a1ea82f9dfc2e0001a7f385d655eef9a6f976c7a5d2c493ea3ad0ccbec17235f5b9cc5e42f3df6364a76ecdd0101ddda8fc5dc0ba0b59c0e5628069ef5e376c0a1ea82f9dfc2e0001a7f385d655eef9a6f976c7a5d2c493ea3ad00000000000000000000000000000000000000000000000000000000000000021ba0fb5bdd643289cc9f90f83a0684466e72caacb8c5f7f05134dc7113c0cb06f185a02c400f7c7da8f53e7196bb2357cc073d4c1f71aa0ed9fea5f191e774208c8d55c0",
                "transactions" : [
                    {
                        "data" : "0x0ccbec17235f5b9cc5e42f3df6364a76ecdd0101ddda8fc5dc0ba0b59c0e5628069ef5e376c0a1ea82f9dfc2e0001a7f385d655eef9a6f976c7a5d2c493ea3ad0ccbec17235f5b9cc5e42f3df6364a76ecdd0101ddda8fc5dc0ba0b59c0e5628069ef5e376c0a1ea82f9dfc2e0001a7f385d655eef9a6f976c7a5d2c493ea3ad0ccbec17235f5b9cc5e42f3df6364a76ecdd0101ddda8fc5dc0ba0b59c0e5628069ef5e376c0a1ea82f9dfc2e0001a7f385d655eef9a6f976c7a5d2c493ea3ad0000000000000000000000000000000000000000000000000000000000000002",
                        "gasLimit" : "0x030d40",
                        "gasPrice" : "0x01",
                        "nonce" : "0x01",
                        "r" : "0xfb5bdd643289cc9f90f83a0684466e72caacb8c5f7f05134dc7113c0cb06f185",
                        "s" : "0x2c400f7c7da8f53e7196bb2357cc073d4c1f71aa0ed9fea5f191e774208c8d55",
                        "to" : "0xb94f5374fce5edbc8e2a8697c15331677e6ebf0b",
                        "v" : "0x1b",
                        "value" : "0x00"
                    }
                ],
                "uncleHeaders" : [
                ]
            }
        ],
        "genesisBlockHeader" : {
            "bloom" : "0x00000000000000000000000000000000000000000000000000000000000000000000000000000000000000000000000000000000000000000000000000000000000000000000000000000000000000000000000000000000000000000000000000000000000000000000000000000000000000000000000000000000000000000000000000000000000000000000000000000000000000000000000000000000000000000000000000000000000000000000000000000000000000000000000000000000000000000000000000000000000000000000000000000000000000000000000000000000000000000000000000000000000000000000000000000000",
            "coinbase" : "0x68795c4aa09d6f4ed3e5deddf8c2ad3049a601da",
            "difficulty" : "0x020000",
            "extraData" : "0x42",
            "gasLimit" : "0x3d37ef",
            "gasUsed" : "0x00",
            "hash" : "0x9b25016c45ce0e295a463681361471a29c00aea06cba17cbc22894ce6d2c1def",
            "mixHash" : "0x56e81f171bcc55a6ff8345e692c0f86e5b48e01b996cadc001622fb5e363b421",
            "nonce" : "0x0102030405060708",
            "number" : "0x00",
            "parentHash" : "0x0000000000000000000000000000000000000000000000000000000000000000",
            "receiptTrie" : "0x56e81f171bcc55a6ff8345e692c0f86e5b48e01b996cadc001622fb5e363b421",
            "stateRoot" : "0xa4db92ceb60668ffcb9642d55fa7fe34cc341b53029d31394d82f0c61462bd99",
            "timestamp" : "0x03b6",
            "transactionsTrie" : "0x56e81f171bcc55a6ff8345e692c0f86e5b48e01b996cadc001622fb5e363b421",
            "uncleHash" : "0x1dcc4de8dec75d7aab85b567b6ccd41ad312451b948a7413f0a142fd40d49347"
        },
        "genesisRLP" : "0xf901faf901f5a00000000000000000000000000000000000000000000000000000000000000000a01dcc4de8dec75d7aab85b567b6ccd41ad312451b948a7413f0a142fd40d493479468795c4aa09d6f4ed3e5deddf8c2ad3049a601daa0a4db92ceb60668ffcb9642d55fa7fe34cc341b53029d31394d82f0c61462bd99a056e81f171bcc55a6ff8345e692c0f86e5b48e01b996cadc001622fb5e363b421a056e81f171bcc55a6ff8345e692c0f86e5b48e01b996cadc001622fb5e363b421b90100000000000000000000000000000000000000000000000000000000000000000000000000000000000000000000000000000000000000000000000000000000000000000000000000000000000000000000000000000000000000000000000000000000000000000000000000000000000000000000000000000000000000000000000000000000000000000000000000000000000000000000000000000000000000000000000000000000000000000000000000000000000000000000000000000000000000000000000000000000000000000000000000000000000000000000000000000000000000000000000000000000000000000000000000000000008302000080833d37ef808203b642a056e81f171bcc55a6ff8345e692c0f86e5b48e01b996cadc001622fb5e363b421880102030405060708c0c0",
        "lastblockhash" : "0xc87f80f190397b7c1a3f39fd8f0b6440d58c5e25d18ea97dc23ad22daa1532f1",
        "network" : "Homestead",
        "postState" : {
            "0x68795c4aa09d6f4ed3e5deddf8c2ad3049a601da" : {
                "balance" : "0x4563918244f70d40",
                "code" : "",
                "nonce" : "0x00",
                "storage" : {
                }
            },
            "0xa94f5374fce5edbc8e2a8697c15331677e6ebf0b" : {
                "balance" : "0x0de0b6b3a760f2c0",
                "code" : "",
                "nonce" : "0x02",
                "storage" : {
                }
            },
            "0xb94f5374fce5edbc8e2a8697c15331677e6ebf0b" : {
                "balance" : "0x00",
                "code" : "0x60003560005260203560205260403560405260603560605260803560805260a03560a05260c03560c052604061012c60806000600060066207a120f2600055604061019060606080600060076207a120f260015561012c51600a5561014c51600b55610190516014556101b051601555601454600a5414600255601554600b5414600355",
                "nonce" : "0x00",
                "storage" : {
                }
            }
        },
        "pre" : {
            "0xa94f5374fce5edbc8e2a8697c15331677e6ebf0b" : {
                "balance" : "0x0de0b6b3a7640000",
                "code" : "",
                "nonce" : "0x01",
                "storage" : {
                }
            },
            "0xb94f5374fce5edbc8e2a8697c15331677e6ebf0b" : {
                "balance" : "0x00",
                "code" : "0x60003560005260203560205260403560405260603560605260803560805260a03560a05260c03560c052604061012c60806000600060066207a120f2600055604061019060606080600060076207a120f260015561012c51600a5561014c51600b55610190516014556101b051601555601454600a5414600255601554600b5414600355",
                "nonce" : "0x00",
                "storage" : {
                }
            }
        }
    }
}