{
    "randomStatetest302_d0g0v0_Byzantium" : {
        "_info" : {
            "comment" : "",
            "filledwith" : "cpp-1.3.0+commit.8fb57c56.Linux.g++",
            "lllcversion" : "Version: 0.4.20-develop.2018.1.8+commit.2548228b.Linux.g++",
            "source" : "src/BlockchainTestsFiller/GeneralStateTests/stRandom/randomStatetest302_d0g0v0Filler.json",
            "sourceHash" : "31358aa7553296312538d317a32828923081c610b3a8d8d158e5978229f366c2"
        },
        "blocks" : [
            {
                "blockHeader" : {
                    "bloom" : "0x00000000000000000000000000000000000000000000000000000000000000000000000000000000000000000000000000000000000000000000000000000000000000000000000000000000000000000000000000000000000000000000000000000000000000000000000000000000000000000000000000000000000000000000000000000000000000000000000000000000000000000000000000000000000000000000000000000000000000000000000000000000000000000000000000000000000000000000000000000000000000000000000000000000000000000000000000000000000000000000000000000000000000000000000000000000",
                    "coinbase" : "0x945304eb96065b2a98b57a48a06ae28d285a71b5",
                    "difficulty" : "0x020000",
                    "extraData" : "",
                    "gasLimit" : "0x7fffffffffffffff",
                    "gasUsed" : "0x10412a73",
                    "hash" : "0x1e92ce6d09cd819797be0de50ef34e875b8dd9bd39c6944e8c265264ef914dae",
                    "mixHash" : "0x983ff67820c4446c37b7f4fb0065faae79460a7b85149e9a7eddb97742dc2208",
                    "nonce" : "0x0a3dff43f0685dde",
                    "number" : "0x01",
                    "parentHash" : "0xf113f1bf362b695b9e46f703f00c0b44b3d2a58074628b40990a4617b0ed174c",
                    "receiptTrie" : "0x01f201674d603c9ad919c56a330b0e346ab079f806e3dbb1ba92052930b6c84a",
                    "stateRoot" : "0xac9b2cb0dadbfccaf9171576351ea07c7f54d7cfede0e621d09d9cb2a78fd0e3",
                    "timestamp" : "0x03e8",
                    "transactionsTrie" : "0xb65e9445bdfdbf0eb20552ea074e1a0e64b530376b2cf6ee6dc576f3c395799e",
                    "uncleHash" : "0x1dcc4de8dec75d7aab85b567b6ccd41ad312451b948a7413f0a142fd40d49347"
                },
                "rlp" : "0xf90320f901fea0f113f1bf362b695b9e46f703f00c0b44b3d2a58074628b40990a4617b0ed174ca01dcc4de8dec75d7aab85b567b6ccd41ad312451b948a7413f0a142fd40d4934794945304eb96065b2a98b57a48a06ae28d285a71b5a0ac9b2cb0dadbfccaf9171576351ea07c7f54d7cfede0e621d09d9cb2a78fd0e3a0b65e9445bdfdbf0eb20552ea074e1a0e64b530376b2cf6ee6dc576f3c395799ea001f201674d603c9ad919c56a330b0e346ab079f806e3dbb1ba92052930b6c84ab90100000000000000000000000000000000000000000000000000000000000000000000000000000000000000000000000000000000000000000000000000000000000000000000000000000000000000000000000000000000000000000000000000000000000000000000000000000000000000000000000000000000000000000000000000000000000000000000000000000000000000000000000000000000000000000000000000000000000000000000000000000000000000000000000000000000000000000000000000000000000000000000000000000000000000000000000000000000000000000000000000000000000000000000000000000000008302000001887fffffffffffffff8410412a738203e880a0983ff67820c4446c37b7f4fb0065faae79460a7b85149e9a7eddb97742dc2208880a3dff43f0685ddef9011bf9011880018410412a7394095e7baea6a6c7c4c2dfeb977efac326af552d8784774e407cb8b27f000000000000000000000000945304eb96065b2a98b57a48a06ae28d285a71b57fffffffffffffffffffffffffffffffffffffffffffffffffffffffffffffffff7f0000000000000000000000010000000000000000000000000000000000000000971a7f000000000000000000000000ffffffffffffffffffffffffffffffffffffffff447f00000000000000000000000000000000000000000000000000000000000000006989206c0b8a01867bf11ba0b0afb87d94256577967b3402b05f2ac432aa94c358275398cc75b9be1dff98cca078b4be60d4dcfba1d0368528015f8382a9f2b41f74122b9140717a7cb23e1c2fc0",
                "transactions" : [
                    {
                        "data" : "0x7f000000000000000000000000945304eb96065b2a98b57a48a06ae28d285a71b57fffffffffffffffffffffffffffffffffffffffffffffffffffffffffffffffff7f0000000000000000000000010000000000000000000000000000000000000000971a7f000000000000000000000000ffffffffffffffffffffffffffffffffffffffff447f00000000000000000000000000000000000000000000000000000000000000006989206c0b8a01867bf1",
                        "gasLimit" : "0x10412a73",
                        "gasPrice" : "0x01",
                        "nonce" : "0x00",
                        "r" : "0xb0afb87d94256577967b3402b05f2ac432aa94c358275398cc75b9be1dff98cc",
                        "s" : "0x78b4be60d4dcfba1d0368528015f8382a9f2b41f74122b9140717a7cb23e1c2f",
                        "to" : "0x095e7baea6a6c7c4c2dfeb977efac326af552d87",
                        "v" : "0x1b",
                        "value" : "0x774e407c"
                    }
                ],
                "uncleHeaders" : [
                ]
            }
        ],
        "genesisBlockHeader" : {
            "bloom" : "0x00000000000000000000000000000000000000000000000000000000000000000000000000000000000000000000000000000000000000000000000000000000000000000000000000000000000000000000000000000000000000000000000000000000000000000000000000000000000000000000000000000000000000000000000000000000000000000000000000000000000000000000000000000000000000000000000000000000000000000000000000000000000000000000000000000000000000000000000000000000000000000000000000000000000000000000000000000000000000000000000000000000000000000000000000000000",
            "coinbase" : "0x945304eb96065b2a98b57a48a06ae28d285a71b5",
            "difficulty" : "0x020000",
            "extraData" : "0x42",
            "gasLimit" : "0x7fffffffffffffff",
            "gasUsed" : "0x00",
            "hash" : "0xf113f1bf362b695b9e46f703f00c0b44b3d2a58074628b40990a4617b0ed174c",
            "mixHash" : "0x56e81f171bcc55a6ff8345e692c0f86e5b48e01b996cadc001622fb5e363b421",
            "nonce" : "0x0102030405060708",
            "number" : "0x00",
            "parentHash" : "0x0000000000000000000000000000000000000000000000000000000000000000",
            "receiptTrie" : "0x56e81f171bcc55a6ff8345e692c0f86e5b48e01b996cadc001622fb5e363b421",
            "stateRoot" : "0xa90b34ebacf338caeab8cf441cabd3307e7cd7c8c9154646930e0715cf84c20c",
            "timestamp" : "0x03b6",
            "transactionsTrie" : "0x56e81f171bcc55a6ff8345e692c0f86e5b48e01b996cadc001622fb5e363b421",
            "uncleHash" : "0x1dcc4de8dec75d7aab85b567b6ccd41ad312451b948a7413f0a142fd40d49347"
        },
        "genesisRLP" : "0xf901fff901faa00000000000000000000000000000000000000000000000000000000000000000a01dcc4de8dec75d7aab85b567b6ccd41ad312451b948a7413f0a142fd40d4934794945304eb96065b2a98b57a48a06ae28d285a71b5a0a90b34ebacf338caeab8cf441cabd3307e7cd7c8c9154646930e0715cf84c20ca056e81f171bcc55a6ff8345e692c0f86e5b48e01b996cadc001622fb5e363b421a056e81f171bcc55a6ff8345e692c0f86e5b48e01b996cadc001622fb5e363b421b90100000000000000000000000000000000000000000000000000000000000000000000000000000000000000000000000000000000000000000000000000000000000000000000000000000000000000000000000000000000000000000000000000000000000000000000000000000000000000000000000000000000000000000000000000000000000000000000000000000000000000000000000000000000000000000000000000000000000000000000000000000000000000000000000000000000000000000000000000000000000000000000000000000000000000000000000000000000000000000000000000000000000000000000000000000000008302000080887fffffffffffffff808203b642a056e81f171bcc55a6ff8345e692c0f86e5b48e01b996cadc001622fb5e363b421880102030405060708c0c0",
        "lastblockhash" : "0x1e92ce6d09cd819797be0de50ef34e875b8dd9bd39c6944e8c265264ef914dae",
        "network" : "Byzantium",
        "postState" : {
            "0x095e7baea6a6c7c4c2dfeb977efac326af552d87" : {
                "balance" : "0x00",
                "code" : "0x7f000000000000000000000000945304eb96065b2a98b57a48a06ae28d285a71b57fffffffffffffffffffffffffffffffffffffffffffffffffffffffffffffffff7f0000000000000000000000010000000000000000000000000000000000000000971a7f000000000000000000000000ffffffffffffffffffffffffffffffffffffffff447f00000000000000000000000000000000000000000000000000000000000000006989206c0b8a01867bf155",
                "nonce" : "0x00",
                "storage" : {
                }
            },
            "0x945304eb96065b2a98b57a48a06ae28d285a71b5" : {
                "balance" : "0x29a2241b066d2aa1",
                "code" : "0x6000355415600957005b60203560003555",
                "nonce" : "0x00",
                "storage" : {
                }
            },
            "0xa94f5374fce5edbc8e2a8697c15331677e6ebf0b" : {
                "balance" : "0x0de0b6b39722d58d",
                "code" : "",
                "nonce" : "0x01",
                "storage" : {
                }
            }
        },
        "pre" : {
            "0x095e7baea6a6c7c4c2dfeb977efac326af552d87" : {
                "balance" : "0x00",
                "code" : "0x7f000000000000000000000000945304eb96065b2a98b57a48a06ae28d285a71b57fffffffffffffffffffffffffffffffffffffffffffffffffffffffffffffffff7f0000000000000000000000010000000000000000000000000000000000000000971a7f000000000000000000000000ffffffffffffffffffffffffffffffffffffffff447f00000000000000000000000000000000000000000000000000000000000000006989206c0b8a01867bf155",
                "nonce" : "0x00",
                "storage" : {
                }
            },
            "0x945304eb96065b2a98b57a48a06ae28d285a71b5" : {
                "balance" : "0x2e",
                "code" : "0x6000355415600957005b60203560003555",
                "nonce" : "0x00",
                "storage" : {
                }
            },
            "0xa94f5374fce5edbc8e2a8697c15331677e6ebf0b" : {
                "balance" : "0x0de0b6b3a7640000",
                "code" : "",
                "nonce" : "0x00",
                "storage" : {
                }
            }
        }
    },
    "randomStatetest302_d0g0v0_Homestead" : {
        "_info" : {
            "comment" : "",
            "filledwith" : "cpp-1.3.0+commit.8fb57c56.Linux.g++",
            "lllcversion" : "Version: 0.4.20-develop.2018.1.8+commit.2548228b.Linux.g++",
            "source" : "src/BlockchainTestsFiller/GeneralStateTests/stRandom/randomStatetest302_d0g0v0Filler.json",
            "sourceHash" : "31358aa7553296312538d317a32828923081c610b3a8d8d158e5978229f366c2"
        },
        "blocks" : [
            {
                "blockHeader" : {
                    "bloom" : "0x00000000000000000000000000000000000000000000000000000000000000000000000000000000000000000000000000000000000000000000000000000000000000000000000000000000000000000000000000000000000000000000000000000000000000000000000000000000000000000000000000000000000000000000000000000000000000000000000000000000000000000000000000000000000000000000000000000000000000000000000000000000000000000000000000000000000000000000000000000000000000000000000000000000000000000000000000000000000000000000000000000000000000000000000000000000",
                    "coinbase" : "0x945304eb96065b2a98b57a48a06ae28d285a71b5",
                    "difficulty" : "0x020000",
                    "extraData" : "",
                    "gasLimit" : "0x7fffffffffffffff",
                    "gasUsed" : "0x10412a73",
                    "hash" : "0x735a2c0be7a0c6bfab1fa844e00a42deab636341452343e0900e389b46221835",
                    "mixHash" : "0x8932b585c7f2f74b8ff5a99296cef52e4e2939c33dad3fbca6fc11c0fbeebca4",
                    "nonce" : "0xbc85aeb558355680",
                    "number" : "0x01",
                    "parentHash" : "0xf113f1bf362b695b9e46f703f00c0b44b3d2a58074628b40990a4617b0ed174c",
                    "receiptTrie" : "0xa1712a9706a9394ca1a012358c7451f79614e6087b9b990778924f32c9a201e4",
                    "stateRoot" : "0xc501656ea426ac6b589fe867c1d5547d2b8876c4fceefe2ee9d6ae98e6fa5efa",
                    "timestamp" : "0x03e8",
                    "transactionsTrie" : "0xb65e9445bdfdbf0eb20552ea074e1a0e64b530376b2cf6ee6dc576f3c395799e",
                    "uncleHash" : "0x1dcc4de8dec75d7aab85b567b6ccd41ad312451b948a7413f0a142fd40d49347"
                },
                "rlp" : "0xf90320f901fea0f113f1bf362b695b9e46f703f00c0b44b3d2a58074628b40990a4617b0ed174ca01dcc4de8dec75d7aab85b567b6ccd41ad312451b948a7413f0a142fd40d4934794945304eb96065b2a98b57a48a06ae28d285a71b5a0c501656ea426ac6b589fe867c1d5547d2b8876c4fceefe2ee9d6ae98e6fa5efaa0b65e9445bdfdbf0eb20552ea074e1a0e64b530376b2cf6ee6dc576f3c395799ea0a1712a9706a9394ca1a012358c7451f79614e6087b9b990778924f32c9a201e4b90100000000000000000000000000000000000000000000000000000000000000000000000000000000000000000000000000000000000000000000000000000000000000000000000000000000000000000000000000000000000000000000000000000000000000000000000000000000000000000000000000000000000000000000000000000000000000000000000000000000000000000000000000000000000000000000000000000000000000000000000000000000000000000000000000000000000000000000000000000000000000000000000000000000000000000000000000000000000000000000000000000000000000000000000000000000008302000001887fffffffffffffff8410412a738203e880a08932b585c7f2f74b8ff5a99296cef52e4e2939c33dad3fbca6fc11c0fbeebca488bc85aeb558355680f9011bf9011880018410412a7394095e7baea6a6c7c4c2dfeb977efac326af552d8784774e407cb8b27f000000000000000000000000945304eb96065b2a98b57a48a06ae28d285a71b57fffffffffffffffffffffffffffffffffffffffffffffffffffffffffffffffff7f0000000000000000000000010000000000000000000000000000000000000000971a7f000000000000000000000000ffffffffffffffffffffffffffffffffffffffff447f00000000000000000000000000000000000000000000000000000000000000006989206c0b8a01867bf11ba0b0afb87d94256577967b3402b05f2ac432aa94c358275398cc75b9be1dff98cca078b4be60d4dcfba1d0368528015f8382a9f2b41f74122b9140717a7cb23e1c2fc0",
                "transactions" : [
                    {
                        "data" : "0x7f000000000000000000000000945304eb96065b2a98b57a48a06ae28d285a71b57fffffffffffffffffffffffffffffffffffffffffffffffffffffffffffffffff7f0000000000000000000000010000000000000000000000000000000000000000971a7f000000000000000000000000ffffffffffffffffffffffffffffffffffffffff447f00000000000000000000000000000000000000000000000000000000000000006989206c0b8a01867bf1",
                        "gasLimit" : "0x10412a73",
                        "gasPrice" : "0x01",
                        "nonce" : "0x00",
                        "r" : "0xb0afb87d94256577967b3402b05f2ac432aa94c358275398cc75b9be1dff98cc",
                        "s" : "0x78b4be60d4dcfba1d0368528015f8382a9f2b41f74122b9140717a7cb23e1c2f",
                        "to" : "0x095e7baea6a6c7c4c2dfeb977efac326af552d87",
                        "v" : "0x1b",
                        "value" : "0x774e407c"
                    }
                ],
                "uncleHeaders" : [
                ]
            }
        ],
        "genesisBlockHeader" : {
            "bloom" : "0x00000000000000000000000000000000000000000000000000000000000000000000000000000000000000000000000000000000000000000000000000000000000000000000000000000000000000000000000000000000000000000000000000000000000000000000000000000000000000000000000000000000000000000000000000000000000000000000000000000000000000000000000000000000000000000000000000000000000000000000000000000000000000000000000000000000000000000000000000000000000000000000000000000000000000000000000000000000000000000000000000000000000000000000000000000000",
            "coinbase" : "0x945304eb96065b2a98b57a48a06ae28d285a71b5",
            "difficulty" : "0x020000",
            "extraData" : "0x42",
            "gasLimit" : "0x7fffffffffffffff",
            "gasUsed" : "0x00",
            "hash" : "0xf113f1bf362b695b9e46f703f00c0b44b3d2a58074628b40990a4617b0ed174c",
            "mixHash" : "0x56e81f171bcc55a6ff8345e692c0f86e5b48e01b996cadc001622fb5e363b421",
            "nonce" : "0x0102030405060708",
            "number" : "0x00",
            "parentHash" : "0x0000000000000000000000000000000000000000000000000000000000000000",
            "receiptTrie" : "0x56e81f171bcc55a6ff8345e692c0f86e5b48e01b996cadc001622fb5e363b421",
            "stateRoot" : "0xa90b34ebacf338caeab8cf441cabd3307e7cd7c8c9154646930e0715cf84c20c",
            "timestamp" : "0x03b6",
            "transactionsTrie" : "0x56e81f171bcc55a6ff8345e692c0f86e5b48e01b996cadc001622fb5e363b421",
            "uncleHash" : "0x1dcc4de8dec75d7aab85b567b6ccd41ad312451b948a7413f0a142fd40d49347"
        },
        "genesisRLP" : "0xf901fff901faa00000000000000000000000000000000000000000000000000000000000000000a01dcc4de8dec75d7aab85b567b6ccd41ad312451b948a7413f0a142fd40d4934794945304eb96065b2a98b57a48a06ae28d285a71b5a0a90b34ebacf338caeab8cf441cabd3307e7cd7c8c9154646930e0715cf84c20ca056e81f171bcc55a6ff8345e692c0f86e5b48e01b996cadc001622fb5e363b421a056e81f171bcc55a6ff8345e692c0f86e5b48e01b996cadc001622fb5e363b421b90100000000000000000000000000000000000000000000000000000000000000000000000000000000000000000000000000000000000000000000000000000000000000000000000000000000000000000000000000000000000000000000000000000000000000000000000000000000000000000000000000000000000000000000000000000000000000000000000000000000000000000000000000000000000000000000000000000000000000000000000000000000000000000000000000000000000000000000000000000000000000000000000000000000000000000000000000000000000000000000000000000000000000000000000000000000008302000080887fffffffffffffff808203b642a056e81f171bcc55a6ff8345e692c0f86e5b48e01b996cadc001622fb5e363b421880102030405060708c0c0",
        "lastblockhash" : "0x735a2c0be7a0c6bfab1fa844e00a42deab636341452343e0900e389b46221835",
        "network" : "Homestead",
        "postState" : {
            "0x095e7baea6a6c7c4c2dfeb977efac326af552d87" : {
                "balance" : "0x00",
                "code" : "0x7f000000000000000000000000945304eb96065b2a98b57a48a06ae28d285a71b57fffffffffffffffffffffffffffffffffffffffffffffffffffffffffffffffff7f0000000000000000000000010000000000000000000000000000000000000000971a7f000000000000000000000000ffffffffffffffffffffffffffffffffffffffff447f00000000000000000000000000000000000000000000000000000000000000006989206c0b8a01867bf155",
                "nonce" : "0x00",
                "storage" : {
                }
            },
            "0x945304eb96065b2a98b57a48a06ae28d285a71b5" : {
                "balance" : "0x4563918255352aa1",
                "code" : "0x6000355415600957005b60203560003555",
                "nonce" : "0x00",
                "storage" : {
                }
            },
            "0xa94f5374fce5edbc8e2a8697c15331677e6ebf0b" : {
                "balance" : "0x0de0b6b39722d58d",
                "code" : "",
                "nonce" : "0x01",
                "storage" : {
                }
            }
        },
        "pre" : {
            "0x095e7baea6a6c7c4c2dfeb977efac326af552d87" : {
                "balance" : "0x00",
                "code" : "0x7f000000000000000000000000945304eb96065b2a98b57a48a06ae28d285a71b57fffffffffffffffffffffffffffffffffffffffffffffffffffffffffffffffff7f0000000000000000000000010000000000000000000000000000000000000000971a7f000000000000000000000000ffffffffffffffffffffffffffffffffffffffff447f00000000000000000000000000000000000000000000000000000000000000006989206c0b8a01867bf155",
                "nonce" : "0x00",
                "storage" : {
                }
            },
            "0x945304eb96065b2a98b57a48a06ae28d285a71b5" : {
                "balance" : "0x2e",
                "code" : "0x6000355415600957005b60203560003555",
                "nonce" : "0x00",
                "storage" : {
                }
            },
            "0xa94f5374fce5edbc8e2a8697c15331677e6ebf0b" : {
                "balance" : "0x0de0b6b3a7640000",
                "code" : "",
                "nonce" : "0x00",
                "storage" : {
                }
            }
        }
    }
}