{
    "randomStatetest154_d0g0v0_Byzantium" : {
        "_info" : {
            "comment" : "",
            "filledwith" : "cpp-1.3.0+commit.8fb57c56.Linux.g++",
            "lllcversion" : "Version: 0.4.20-develop.2018.1.8+commit.2548228b.Linux.g++",
            "source" : "src/BlockchainTestsFiller/GeneralStateTests/stRandom/randomStatetest154_d0g0v0Filler.json",
            "sourceHash" : "1229b03fb3b7dd8988fa022f927d870564d6d165a2d050e0ca3bc4cba00d84c0"
        },
        "blocks" : [
            {
                "blockHeader" : {
                    "bloom" : "0x00000000000000001000000000000000000000000000000000000000000000000000000000000000000000000000000000000000000000000000000000102000000000000000000000000000000000000100000000000000000000000000000000000000000000000000000000000000000004000000000000000000000000000000000000000000000000000000000000000000000000000000000000000000000000000000000004000000000000000000000000000000000000000000000000000000000000000000000000000000000000000000000000000000000000000018000040000000000000000000000000000000000000000000000000000000",
                    "coinbase" : "0x945304eb96065b2a98b57a48a06ae28d285a71b5",
                    "difficulty" : "0x020000",
                    "extraData" : "",
                    "gasLimit" : "0x7fffffffffffffff",
                    "gasUsed" : "0x507f5d",
                    "hash" : "0x24ea8d0f753bb94460426a8a73f96bfc0dce5855047f31c358a56bbce14270b2",
                    "mixHash" : "0xddc6b06329f768efe978e8170d58b39c7bd41efd4e74cb201672395725e50e45",
                    "nonce" : "0x9548b42e32ae1598",
                    "number" : "0x01",
                    "parentHash" : "0x241387fd07328de8f5c35d0a844d1507fe02cc14208cb6aaee74f5708bc4c495",
                    "receiptTrie" : "0x0ff52f269dbabf6c51852b284d4057678853c4101baaa8db350b6460e592dc75",
                    "stateRoot" : "0x5968e303320966c11443c49e7c611e730ea05b6f3bdf9cc3bfc557d62559c3a7",
                    "timestamp" : "0x03e8",
                    "transactionsTrie" : "0x2ce305cb063fd5f3937c72d4c8b16b979528275e852e1d2ec6b544ea0ef3d938",
                    "uncleHash" : "0x1dcc4de8dec75d7aab85b567b6ccd41ad312451b948a7413f0a142fd40d49347"
                },
                "rlp" : "0xf90424f901fda0241387fd07328de8f5c35d0a844d1507fe02cc14208cb6aaee74f5708bc4c495a01dcc4de8dec75d7aab85b567b6ccd41ad312451b948a7413f0a142fd40d4934794945304eb96065b2a98b57a48a06ae28d285a71b5a05968e303320966c11443c49e7c611e730ea05b6f3bdf9cc3bfc557d62559c3a7a02ce305cb063fd5f3937c72d4c8b16b979528275e852e1d2ec6b544ea0ef3d938a00ff52f269dbabf6c51852b284d4057678853c4101baaa8db350b6460e592dc75b90100000000000000000010000000000000000000000000000000000000000000000000000000000000000000000000000000000000000000000000000000001020000000000000000000000000000000000001000000000000000000000000000000000000000000000000000000000000000000040000000000000000000000000000000000000000000000000000000000000000000000000000000000000000000000000000000000040000000000000000000000000000000000000000000000000000000000000000000000000000000000000000000000000000000000000000180000400000000000000000000000000000000000000000000000000000008302000001887fffffffffffffff83507f5d8203e880a0ddc6b06329f768efe978e8170d58b39c7bd41efd4e74cb201672395725e50e45889548b42e32ae1598f90220f9021d8001846065bf3a94095e7baea6a6c7c4c2dfeb977efac326af552d8784651c295bb901b67767cc78eeac8d9db5297bde12b635c487b138a0dd4601a9236656945997db45a668500a3ba6eac5489fca6a1a60998fdd14d1f8b6df2f71d56852c0f085c7c3ba826a746e9dce4335b97488b092df3db7c8097366963ffc1f51e7f4740935567fc404dab22917cbb1e5cf6252d6e99952a889ec687e6bcdb9b3358f2b287d5d38793a6e6105063e96947760c35c317e5798e9a5f3cfef9030ea32917ec50268953856b1eae69744b4815f4808e2bcceaa482030b32689f51807af6e6840942dae7592985e688975e0ee12dbdc39eedbf43aabc2563df850d6781ed002fe78bd48083bb42742ee243eea1ecd201eef18f00f330fee8836df1234700f5824b76290232dd1863a69ca84d2786e74eed98d42b740cc037b156dd261441220cfaf15857c6e8b6f5e1eb9aee8d63ad473477df11660ac765fa5eebfccfed05bacf2809818d01db511686cde018f146e78fee9bff3ffe90a1b54cdc57ec52b6fda22f7f81fc1d9724b375ce206d29176797f9e42c2ec1ef6b468f7f8fbdb5011c4ddcddd72a6adde7d3d077cf96f9d13893a46aaaf5acc241eabd8712b6a2deea63f6f91cf162e2d6d65579257a17d7c66e07570d11280dc991ba01d0f9180163b10ad030e705fa1e7235a14db5dc2fa72a30b15761b78647a07d9a0414dc1c6e0c773a22034f901e92104de24a6c4b1316231e2fe1ee1f16e274d47c0",
                "transactions" : [
                    {
                        "data" : "0x7767cc78eeac8d9db5297bde12b635c487b138a0dd4601a9236656945997db45a668500a3ba6eac5489fca6a1a60998fdd14d1f8b6df2f71d56852c0f085c7c3ba826a746e9dce4335b97488b092df3db7c8097366963ffc1f51e7f4740935567fc404dab22917cbb1e5cf6252d6e99952a889ec687e6bcdb9b3358f2b287d5d38793a6e6105063e96947760c35c317e5798e9a5f3cfef9030ea32917ec50268953856b1eae69744b4815f4808e2bcceaa482030b32689f51807af6e6840942dae7592985e688975e0ee12dbdc39eedbf43aabc2563df850d6781ed002fe78bd48083bb42742ee243eea1ecd201eef18f00f330fee8836df1234700f5824b76290232dd1863a69ca84d2786e74eed98d42b740cc037b156dd261441220cfaf15857c6e8b6f5e1eb9aee8d63ad473477df11660ac765fa5eebfccfed05bacf2809818d01db511686cde018f146e78fee9bff3ffe90a1b54cdc57ec52b6fda22f7f81fc1d9724b375ce206d29176797f9e42c2ec1ef6b468f7f8fbdb5011c4ddcddd72a6adde7d3d077cf96f9d13893a46aaaf5acc241eabd8712b6a2deea63f6f91cf162e2d6d65579257a17d7c66e07570d11280dc99",
                        "gasLimit" : "0x6065bf3a",
                        "gasPrice" : "0x01",
                        "nonce" : "0x00",
                        "r" : "0x1d0f9180163b10ad030e705fa1e7235a14db5dc2fa72a30b15761b78647a07d9",
                        "s" : "0x414dc1c6e0c773a22034f901e92104de24a6c4b1316231e2fe1ee1f16e274d47",
                        "to" : "0x095e7baea6a6c7c4c2dfeb977efac326af552d87",
                        "v" : "0x1b",
                        "value" : "0x651c295b"
                    }
                ],
                "uncleHeaders" : [
                ]
            }
        ],
        "genesisBlockHeader" : {
            "bloom" : "0x00000000000000000000000000000000000000000000000000000000000000000000000000000000000000000000000000000000000000000000000000000000000000000000000000000000000000000000000000000000000000000000000000000000000000000000000000000000000000000000000000000000000000000000000000000000000000000000000000000000000000000000000000000000000000000000000000000000000000000000000000000000000000000000000000000000000000000000000000000000000000000000000000000000000000000000000000000000000000000000000000000000000000000000000000000000",
            "coinbase" : "0x945304eb96065b2a98b57a48a06ae28d285a71b5",
            "difficulty" : "0x020000",
            "extraData" : "0x42",
            "gasLimit" : "0x7fffffffffffffff",
            "gasUsed" : "0x00",
            "hash" : "0x241387fd07328de8f5c35d0a844d1507fe02cc14208cb6aaee74f5708bc4c495",
            "mixHash" : "0x56e81f171bcc55a6ff8345e692c0f86e5b48e01b996cadc001622fb5e363b421",
            "nonce" : "0x0102030405060708",
            "number" : "0x00",
            "parentHash" : "0x0000000000000000000000000000000000000000000000000000000000000000",
            "receiptTrie" : "0x56e81f171bcc55a6ff8345e692c0f86e5b48e01b996cadc001622fb5e363b421",
            "stateRoot" : "0xb6c7e03032e80e6711063db6007b730b0affb5530db4940a277d2df36360b341",
            "timestamp" : "0x03b6",
            "transactionsTrie" : "0x56e81f171bcc55a6ff8345e692c0f86e5b48e01b996cadc001622fb5e363b421",
            "uncleHash" : "0x1dcc4de8dec75d7aab85b567b6ccd41ad312451b948a7413f0a142fd40d49347"
        },
        "genesisRLP" : "0xf901fff901faa00000000000000000000000000000000000000000000000000000000000000000a01dcc4de8dec75d7aab85b567b6ccd41ad312451b948a7413f0a142fd40d4934794945304eb96065b2a98b57a48a06ae28d285a71b5a0b6c7e03032e80e6711063db6007b730b0affb5530db4940a277d2df36360b341a056e81f171bcc55a6ff8345e692c0f86e5b48e01b996cadc001622fb5e363b421a056e81f171bcc55a6ff8345e692c0f86e5b48e01b996cadc001622fb5e363b421b90100000000000000000000000000000000000000000000000000000000000000000000000000000000000000000000000000000000000000000000000000000000000000000000000000000000000000000000000000000000000000000000000000000000000000000000000000000000000000000000000000000000000000000000000000000000000000000000000000000000000000000000000000000000000000000000000000000000000000000000000000000000000000000000000000000000000000000000000000000000000000000000000000000000000000000000000000000000000000000000000000000000000000000000000000000000008302000080887fffffffffffffff808203b642a056e81f171bcc55a6ff8345e692c0f86e5b48e01b996cadc001622fb5e363b421880102030405060708c0c0",
        "lastblockhash" : "0x24ea8d0f753bb94460426a8a73f96bfc0dce5855047f31c358a56bbce14270b2",
        "network" : "Byzantium",
        "postState" : {
            "0x095e7baea6a6c7c4c2dfeb977efac326af552d87" : {
                "balance" : "0x651c295b",
                "code" : "0x7db1267c8bba268d1408f7b3e269afee3fea86c5bc8aec8108fd6aaa954f5173b7d0e2328333e94698e0d570db9b316cba0adbae609d611ba1a2326004600d6005600f632de40a2773095e7baea6a6c7c4c2dfeb977efac326af552d87635c2491eef1",
                "nonce" : "0x00",
                "storage" : {
                }
            },
            "0x945304eb96065b2a98b57a48a06ae28d285a71b5" : {
                "balance" : "0x29a2241af67c7f8b",
                "code" : "0x6000355415600957005b60203560003555",
                "nonce" : "0x00",
                "storage" : {
                }
            },
            "0xa94f5374fce5edbc8e2a8697c15331677e6ebf0b" : {
                "balance" : "0x0de0b6b341f75748",
                "code" : "",
                "nonce" : "0x01",
                "storage" : {
                }
            }
        },
        "pre" : {
            "0x095e7baea6a6c7c4c2dfeb977efac326af552d87" : {
                "balance" : "0x00",
                "code" : "0x7db1267c8bba268d1408f7b3e269afee3fea86c5bc8aec8108fd6aaa954f5173b7d0e2328333e94698e0d570db9b316cba0adbae609d611ba1a2326004600d6005600f632de40a2773095e7baea6a6c7c4c2dfeb977efac326af552d87635c2491eef1",
                "nonce" : "0x00",
                "storage" : {
                }
            },
            "0x945304eb96065b2a98b57a48a06ae28d285a71b5" : {
                "balance" : "0x2e",
                "code" : "0x6000355415600957005b60203560003555",
                "nonce" : "0x00",
                "storage" : {
                }
            },
            "0xa94f5374fce5edbc8e2a8697c15331677e6ebf0b" : {
                "balance" : "0x0de0b6b3a7640000",
                "code" : "",
                "nonce" : "0x00",
                "storage" : {
                }
            }
        }
    },
    "randomStatetest154_d0g0v0_Homestead" : {
        "_info" : {
            "comment" : "",
            "filledwith" : "cpp-1.3.0+commit.8fb57c56.Linux.g++",
            "lllcversion" : "Version: 0.4.20-develop.2018.1.8+commit.2548228b.Linux.g++",
            "source" : "src/BlockchainTestsFiller/GeneralStateTests/stRandom/randomStatetest154_d0g0v0Filler.json",
            "sourceHash" : "1229b03fb3b7dd8988fa022f927d870564d6d165a2d050e0ca3bc4cba00d84c0"
        },
        "blocks" : [
            {
                "blockHeader" : {
                    "bloom" : "0x00000000000000001000000000000000000000000000000000000000000000000000000000000000000000000000000000000000000000000000000000102000000000000000000000000000000000000100000000000000000000000000000000000000000000000000000000000000000004000000000000000000000000000000000000000000000000000000000000000000000000000000000000000000000000000000000004000000000000000000000000000000000000000000000000000000000000000000000000000000000000000000000000000000000000000018000040000000000000000000000000000000000000000000000000000000",
                    "coinbase" : "0x945304eb96065b2a98b57a48a06ae28d285a71b5",
                    "difficulty" : "0x020000",
                    "extraData" : "",
                    "gasLimit" : "0x7fffffffffffffff",
                    "gasUsed" : "0x5c258817",
                    "hash" : "0xb74c41a20c2e6ed0b714d814d40237fb5fb56269f82c05d21b1d78afe10e53be",
                    "mixHash" : "0x2b0657a7f06e964adafcb69192402da8ad67268adca5ede624100ef06accd46a",
                    "nonce" : "0x00d5f3624a7b503e",
                    "number" : "0x01",
                    "parentHash" : "0x241387fd07328de8f5c35d0a844d1507fe02cc14208cb6aaee74f5708bc4c495",
                    "receiptTrie" : "0x86f4a8a923306475c19566f780d28d088e573f32d83c669829918284ea8957ab",
                    "stateRoot" : "0x35753193c1e162f3dc6116f13a9138f62a17f7ab0ce3f0dae16c70eb176ee449",
                    "timestamp" : "0x03e8",
                    "transactionsTrie" : "0x2ce305cb063fd5f3937c72d4c8b16b979528275e852e1d2ec6b544ea0ef3d938",
                    "uncleHash" : "0x1dcc4de8dec75d7aab85b567b6ccd41ad312451b948a7413f0a142fd40d49347"
                },
                "rlp" : "0xf90425f901fea0241387fd07328de8f5c35d0a844d1507fe02cc14208cb6aaee74f5708bc4c495a01dcc4de8dec75d7aab85b567b6ccd41ad312451b948a7413f0a142fd40d4934794945304eb96065b2a98b57a48a06ae28d285a71b5a035753193c1e162f3dc6116f13a9138f62a17f7ab0ce3f0dae16c70eb176ee449a02ce305cb063fd5f3937c72d4c8b16b979528275e852e1d2ec6b544ea0ef3d938a086f4a8a923306475c19566f780d28d088e573f32d83c669829918284ea8957abb90100000000000000000010000000000000000000000000000000000000000000000000000000000000000000000000000000000000000000000000000000001020000000000000000000000000000000000001000000000000000000000000000000000000000000000000000000000000000000040000000000000000000000000000000000000000000000000000000000000000000000000000000000000000000000000000000000040000000000000000000000000000000000000000000000000000000000000000000000000000000000000000000000000000000000000000180000400000000000000000000000000000000000000000000000000000008302000001887fffffffffffffff845c2588178203e880a02b0657a7f06e964adafcb69192402da8ad67268adca5ede624100ef06accd46a8800d5f3624a7b503ef90220f9021d8001846065bf3a94095e7baea6a6c7c4c2dfeb977efac326af552d8784651c295bb901b67767cc78eeac8d9db5297bde12b635c487b138a0dd4601a9236656945997db45a668500a3ba6eac5489fca6a1a60998fdd14d1f8b6df2f71d56852c0f085c7c3ba826a746e9dce4335b97488b092df3db7c8097366963ffc1f51e7f4740935567fc404dab22917cbb1e5cf6252d6e99952a889ec687e6bcdb9b3358f2b287d5d38793a6e6105063e96947760c35c317e5798e9a5f3cfef9030ea32917ec50268953856b1eae69744b4815f4808e2bcceaa482030b32689f51807af6e6840942dae7592985e688975e0ee12dbdc39eedbf43aabc2563df850d6781ed002fe78bd48083bb42742ee243eea1ecd201eef18f00f330fee8836df1234700f5824b76290232dd1863a69ca84d2786e74eed98d42b740cc037b156dd261441220cfaf15857c6e8b6f5e1eb9aee8d63ad473477df11660ac765fa5eebfccfed05bacf2809818d01db511686cde018f146e78fee9bff3ffe90a1b54cdc57ec52b6fda22f7f81fc1d9724b375ce206d29176797f9e42c2ec1ef6b468f7f8fbdb5011c4ddcddd72a6adde7d3d077cf96f9d13893a46aaaf5acc241eabd8712b6a2deea63f6f91cf162e2d6d65579257a17d7c66e07570d11280dc991ba01d0f9180163b10ad030e705fa1e7235a14db5dc2fa72a30b15761b78647a07d9a0414dc1c6e0c773a22034f901e92104de24a6c4b1316231e2fe1ee1f16e274d47c0",
                "transactions" : [
                    {
                        "data" : "0x7767cc78eeac8d9db5297bde12b635c487b138a0dd4601a9236656945997db45a668500a3ba6eac5489fca6a1a60998fdd14d1f8b6df2f71d56852c0f085c7c3ba826a746e9dce4335b97488b092df3db7c8097366963ffc1f51e7f4740935567fc404dab22917cbb1e5cf6252d6e99952a889ec687e6bcdb9b3358f2b287d5d38793a6e6105063e96947760c35c317e5798e9a5f3cfef9030ea32917ec50268953856b1eae69744b4815f4808e2bcceaa482030b32689f51807af6e6840942dae7592985e688975e0ee12dbdc39eedbf43aabc2563df850d6781ed002fe78bd48083bb42742ee243eea1ecd201eef18f00f330fee8836df1234700f5824b76290232dd1863a69ca84d2786e74eed98d42b740cc037b156dd261441220cfaf15857c6e8b6f5e1eb9aee8d63ad473477df11660ac765fa5eebfccfed05bacf2809818d01db511686cde018f146e78fee9bff3ffe90a1b54cdc57ec52b6fda22f7f81fc1d9724b375ce206d29176797f9e42c2ec1ef6b468f7f8fbdb5011c4ddcddd72a6adde7d3d077cf96f9d13893a46aaaf5acc241eabd8712b6a2deea63f6f91cf162e2d6d65579257a17d7c66e07570d11280dc99",
                        "gasLimit" : "0x6065bf3a",
                        "gasPrice" : "0x01",
                        "nonce" : "0x00",
                        "r" : "0x1d0f9180163b10ad030e705fa1e7235a14db5dc2fa72a30b15761b78647a07d9",
                        "s" : "0x414dc1c6e0c773a22034f901e92104de24a6c4b1316231e2fe1ee1f16e274d47",
                        "to" : "0x095e7baea6a6c7c4c2dfeb977efac326af552d87",
                        "v" : "0x1b",
                        "value" : "0x651c295b"
                    }
                ],
                "uncleHeaders" : [
                ]
            }
        ],
        "genesisBlockHeader" : {
            "bloom" : "0x00000000000000000000000000000000000000000000000000000000000000000000000000000000000000000000000000000000000000000000000000000000000000000000000000000000000000000000000000000000000000000000000000000000000000000000000000000000000000000000000000000000000000000000000000000000000000000000000000000000000000000000000000000000000000000000000000000000000000000000000000000000000000000000000000000000000000000000000000000000000000000000000000000000000000000000000000000000000000000000000000000000000000000000000000000000",
            "coinbase" : "0x945304eb96065b2a98b57a48a06ae28d285a71b5",
            "difficulty" : "0x020000",
            "extraData" : "0x42",
            "gasLimit" : "0x7fffffffffffffff",
            "gasUsed" : "0x00",
            "hash" : "0x241387fd07328de8f5c35d0a844d1507fe02cc14208cb6aaee74f5708bc4c495",
            "mixHash" : "0x56e81f171bcc55a6ff8345e692c0f86e5b48e01b996cadc001622fb5e363b421",
            "nonce" : "0x0102030405060708",
            "number" : "0x00",
            "parentHash" : "0x0000000000000000000000000000000000000000000000000000000000000000",
            "receiptTrie" : "0x56e81f171bcc55a6ff8345e692c0f86e5b48e01b996cadc001622fb5e363b421",
            "stateRoot" : "0xb6c7e03032e80e6711063db6007b730b0affb5530db4940a277d2df36360b341",
            "timestamp" : "0x03b6",
            "transactionsTrie" : "0x56e81f171bcc55a6ff8345e692c0f86e5b48e01b996cadc001622fb5e363b421",
            "uncleHash" : "0x1dcc4de8dec75d7aab85b567b6ccd41ad312451b948a7413f0a142fd40d49347"
        },
        "genesisRLP" : "0xf901fff901faa00000000000000000000000000000000000000000000000000000000000000000a01dcc4de8dec75d7aab85b567b6ccd41ad312451b948a7413f0a142fd40d4934794945304eb96065b2a98b57a48a06ae28d285a71b5a0b6c7e03032e80e6711063db6007b730b0affb5530db4940a277d2df36360b341a056e81f171bcc55a6ff8345e692c0f86e5b48e01b996cadc001622fb5e363b421a056e81f171bcc55a6ff8345e692c0f86e5b48e01b996cadc001622fb5e363b421b90100000000000000000000000000000000000000000000000000000000000000000000000000000000000000000000000000000000000000000000000000000000000000000000000000000000000000000000000000000000000000000000000000000000000000000000000000000000000000000000000000000000000000000000000000000000000000000000000000000000000000000000000000000000000000000000000000000000000000000000000000000000000000000000000000000000000000000000000000000000000000000000000000000000000000000000000000000000000000000000000000000000000000000000000000000000008302000080887fffffffffffffff808203b642a056e81f171bcc55a6ff8345e692c0f86e5b48e01b996cadc001622fb5e363b421880102030405060708c0c0",
        "lastblockhash" : "0xb74c41a20c2e6ed0b714d814d40237fb5fb56269f82c05d21b1d78afe10e53be",
        "network" : "Homestead",
        "postState" : {
            "0x095e7baea6a6c7c4c2dfeb977efac326af552d87" : {
                "balance" : "0x651c295b",
                "code" : "0x7db1267c8bba268d1408f7b3e269afee3fea86c5bc8aec8108fd6aaa954f5173b7d0e2328333e94698e0d570db9b316cba0adbae609d611ba1a2326004600d6005600f632de40a2773095e7baea6a6c7c4c2dfeb977efac326af552d87635c2491eef1",
                "nonce" : "0x00",
                "storage" : {
                }
            },
            "0x945304eb96065b2a98b57a48a06ae28d285a71b5" : {
                "balance" : "0x45639182a1198845",
                "code" : "0x6000355415600957005b60203560003555",
                "nonce" : "0x00",
                "storage" : {
                }
            },
            "0xa94f5374fce5edbc8e2a8697c15331677e6ebf0b" : {
                "balance" : "0x0de0b6b2e6224e8e",
                "code" : "",
                "nonce" : "0x01",
                "storage" : {
                }
            }
        },
        "pre" : {
            "0x095e7baea6a6c7c4c2dfeb977efac326af552d87" : {
                "balance" : "0x00",
                "code" : "0x7db1267c8bba268d1408f7b3e269afee3fea86c5bc8aec8108fd6aaa954f5173b7d0e2328333e94698e0d570db9b316cba0adbae609d611ba1a2326004600d6005600f632de40a2773095e7baea6a6c7c4c2dfeb977efac326af552d87635c2491eef1",
                "nonce" : "0x00",
                "storage" : {
                }
            },
            "0x945304eb96065b2a98b57a48a06ae28d285a71b5" : {
                "balance" : "0x2e",
                "code" : "0x6000355415600957005b60203560003555",
                "nonce" : "0x00",
                "storage" : {
                }
            },
            "0xa94f5374fce5edbc8e2a8697c15331677e6ebf0b" : {
                "balance" : "0x0de0b6b3a7640000",
                "code" : "",
                "nonce" : "0x00",
                "storage" : {
                }
            }
        }
    }
}