{
    "randomStatetest313_d0g0v0_EIP150" : {
        "blocks" : [
            {
                "blockHeader" : {
                    "bloom" : "0x00000000000000000000000000000000000000000000000000000000000000000000000000000000000000000000000000000000000000000000000000000000000000000000000000000000000000000000000000000000000000000000000000000000000000000000000000000000000000000000000000000000000000000000000000000000000000000000000000000000000000000000000000000000000000000000000000000000000000000000000000000000000000000000000000000000000000000000000000000000000000000000000000000000000000000000000000000000000000000000000000000000000000000000000000000000",
                    "coinbase" : "0x945304eb96065b2a98b57a48a06ae28d285a71b5",
                    "difficulty" : "0x020000",
                    "extraData" : "",
                    "gasLimit" : "0x7fffffffffffffff",
                    "gasUsed" : "0x48597866",
                    "hash" : "0xed12907e207dc50bb70b8a6df70f448af442770458a512c502f6be5e7ffecc50",
                    "mixHash" : "0x82e088ac5de0fc5575d43b0915efaf8daf4270dc5698f2528cd37785714fff33",
                    "nonce" : "0x7b3be678dde5efb2",
                    "number" : "0x01",
                    "parentHash" : "0x18987bd5ee16e33b36b9541818f9e742079bab0e362508ff3582de8d3ccfd218",
                    "receiptTrie" : "0x2b0538d18a1111930e07f5ed922dfe2c0259dd14577d66022b6529620a9ddedc",
                    "stateRoot" : "0x790bbc92419f44bbf9bdfb001f193f5b6f1288336150bd438ac89213c79f971c",
                    "timestamp" : "0x03e8",
                    "transactionsTrie" : "0xf7440d30d9021eedc1b9964b6a9d342a5eee70a7c4889fe33672ce84b3ff8e25",
                    "uncleHash" : "0x1dcc4de8dec75d7aab85b567b6ccd41ad312451b948a7413f0a142fd40d49347"
                },
                "rlp" : "0xf902dbf901fea018987bd5ee16e33b36b9541818f9e742079bab0e362508ff3582de8d3ccfd218a01dcc4de8dec75d7aab85b567b6ccd41ad312451b948a7413f0a142fd40d4934794945304eb96065b2a98b57a48a06ae28d285a71b5a0790bbc92419f44bbf9bdfb001f193f5b6f1288336150bd438ac89213c79f971ca0f7440d30d9021eedc1b9964b6a9d342a5eee70a7c4889fe33672ce84b3ff8e25a02b0538d18a1111930e07f5ed922dfe2c0259dd14577d66022b6529620a9ddedcb90100000000000000000000000000000000000000000000000000000000000000000000000000000000000000000000000000000000000000000000000000000000000000000000000000000000000000000000000000000000000000000000000000000000000000000000000000000000000000000000000000000000000000000000000000000000000000000000000000000000000000000000000000000000000000000000000000000000000000000000000000000000000000000000000000000000000000000000000000000000000000000000000000000000000000000000000000000000000000000000000000000000000000000000000000000000008302000001887fffffffffffffff84485978668203e880a082e088ac5de0fc5575d43b0915efaf8daf4270dc5698f2528cd37785714fff33887b3be678dde5efb2f8d7f8d58001844859786694095e7baea6a6c7c4c2dfeb977efac326af552d87843159e0f9b86f0b7f00000000000000000000000000000000000000000000000000000000000000013c7f000000000000000000000000000000000000000000000000000000000000c350a345457fffffffffffffffffffffffffffffffffffffffffffffffffffffffffffffffff8287a3208c8c5a1ba038dd8c018c66dfd6961db708bf3790e352976144e258fd6bcf398fa73f7c7476a044316351f356944f40f93b0f6337b0f5c7abaf24a6a8c865ba2a476f90899185c0",
                "transactions" : [
                    {
                        "data" : "0x0b7f00000000000000000000000000000000000000000000000000000000000000013c7f000000000000000000000000000000000000000000000000000000000000c350a345457fffffffffffffffffffffffffffffffffffffffffffffffffffffffffffffffff8287a3208c8c5a",
                        "gasLimit" : "0x48597866",
                        "gasPrice" : "0x01",
                        "nonce" : "0x00",
                        "r" : "0x38dd8c018c66dfd6961db708bf3790e352976144e258fd6bcf398fa73f7c7476",
                        "s" : "0x44316351f356944f40f93b0f6337b0f5c7abaf24a6a8c865ba2a476f90899185",
                        "to" : "0x095e7baea6a6c7c4c2dfeb977efac326af552d87",
                        "v" : "0x1b",
                        "value" : "0x3159e0f9"
                    }
                ],
                "uncleHeaders" : [
                ]
            }
        ],
        "genesisBlockHeader" : {
            "bloom" : "0x00000000000000000000000000000000000000000000000000000000000000000000000000000000000000000000000000000000000000000000000000000000000000000000000000000000000000000000000000000000000000000000000000000000000000000000000000000000000000000000000000000000000000000000000000000000000000000000000000000000000000000000000000000000000000000000000000000000000000000000000000000000000000000000000000000000000000000000000000000000000000000000000000000000000000000000000000000000000000000000000000000000000000000000000000000000",
            "coinbase" : "0x945304eb96065b2a98b57a48a06ae28d285a71b5",
            "difficulty" : "0x020000",
            "extraData" : "0x42",
            "gasLimit" : "0x7fffffffffffffff",
            "gasUsed" : "0x00",
            "hash" : "0x18987bd5ee16e33b36b9541818f9e742079bab0e362508ff3582de8d3ccfd218",
            "mixHash" : "0x56e81f171bcc55a6ff8345e692c0f86e5b48e01b996cadc001622fb5e363b421",
            "nonce" : "0x0102030405060708",
            "number" : "0x00",
            "parentHash" : "0x0000000000000000000000000000000000000000000000000000000000000000",
            "receiptTrie" : "0x56e81f171bcc55a6ff8345e692c0f86e5b48e01b996cadc001622fb5e363b421",
            "stateRoot" : "0x40d0e2b443823d4c29c8804f08785f838c18a41463c3359b37ad447f71a76cf1",
            "timestamp" : "0x03b6",
            "transactionsTrie" : "0x56e81f171bcc55a6ff8345e692c0f86e5b48e01b996cadc001622fb5e363b421",
            "uncleHash" : "0x1dcc4de8dec75d7aab85b567b6ccd41ad312451b948a7413f0a142fd40d49347"
        },
        "genesisRLP" : "0xf901fff901faa00000000000000000000000000000000000000000000000000000000000000000a01dcc4de8dec75d7aab85b567b6ccd41ad312451b948a7413f0a142fd40d4934794945304eb96065b2a98b57a48a06ae28d285a71b5a040d0e2b443823d4c29c8804f08785f838c18a41463c3359b37ad447f71a76cf1a056e81f171bcc55a6ff8345e692c0f86e5b48e01b996cadc001622fb5e363b421a056e81f171bcc55a6ff8345e692c0f86e5b48e01b996cadc001622fb5e363b421b90100000000000000000000000000000000000000000000000000000000000000000000000000000000000000000000000000000000000000000000000000000000000000000000000000000000000000000000000000000000000000000000000000000000000000000000000000000000000000000000000000000000000000000000000000000000000000000000000000000000000000000000000000000000000000000000000000000000000000000000000000000000000000000000000000000000000000000000000000000000000000000000000000000000000000000000000000000000000000000000000000000000000000000000000000000000008302000080887fffffffffffffff808203b642a056e81f171bcc55a6ff8345e692c0f86e5b48e01b996cadc001622fb5e363b421880102030405060708c0c0",
        "lastblockhash" : "0xed12907e207dc50bb70b8a6df70f448af442770458a512c502f6be5e7ffecc50",
        "network" : "EIP150",
        "postState" : {
            "0x095e7baea6a6c7c4c2dfeb977efac326af552d87" : {
                "balance" : "0x00",
                "code" : "0x0b7f00000000000000000000000000000000000000000000000000000000000000013c7f000000000000000000000000000000000000000000000000000000000000c350a345457fffffffffffffffffffffffffffffffffffffffffffffffffffffffffffffffff8287a3208c8c5a60005155",
                "nonce" : "0x00",
                "storage" : {
                }
            },
            "0x945304eb96065b2a98b57a48a06ae28d285a71b5" : {
                "balance" : "0x456391828d4d7894",
                "code" : "0x6000355415600957005b60203560003555",
                "nonce" : "0x00",
                "storage" : {
                }
            },
            "0xa94f5374fce5edbc8e2a8697c15331677e6ebf0b" : {
                "balance" : "0x0de0b6b35f0a879a",
                "code" : "",
                "nonce" : "0x01",
                "storage" : {
                }
            }
        },
        "pre" : {
            "0x095e7baea6a6c7c4c2dfeb977efac326af552d87" : {
                "balance" : "0x00",
                "code" : "0x0b7f00000000000000000000000000000000000000000000000000000000000000013c7f000000000000000000000000000000000000000000000000000000000000c350a345457fffffffffffffffffffffffffffffffffffffffffffffffffffffffffffffffff8287a3208c8c5a60005155",
                "nonce" : "0x00",
                "storage" : {
                }
            },
            "0x945304eb96065b2a98b57a48a06ae28d285a71b5" : {
                "balance" : "0x2e",
                "code" : "0x6000355415600957005b60203560003555",
                "nonce" : "0x00",
                "storage" : {
                }
            },
            "0xa94f5374fce5edbc8e2a8697c15331677e6ebf0b" : {
                "balance" : "0x0de0b6b3a7640000",
                "code" : "",
                "nonce" : "0x00",
                "storage" : {
                }
            }
        }
    },
    "randomStatetest313_d0g0v0_EIP158" : {
        "blocks" : [
            {
                "blockHeader" : {
                    "bloom" : "0x00000000000000000000000000000000000000000000000000000000000000000000000000000000000000000000000000000000000000000000000000000000000000000000000000000000000000000000000000000000000000000000000000000000000000000000000000000000000000000000000000000000000000000000000000000000000000000000000000000000000000000000000000000000000000000000000000000000000000000000000000000000000000000000000000000000000000000000000000000000000000000000000000000000000000000000000000000000000000000000000000000000000000000000000000000000",
                    "coinbase" : "0x945304eb96065b2a98b57a48a06ae28d285a71b5",
                    "difficulty" : "0x020000",
                    "extraData" : "",
                    "gasLimit" : "0x7fffffffffffffff",
                    "gasUsed" : "0x48597866",
                    "hash" : "0x2afd63bca7a8f10934aca2cb0e365d3e38a01a27068ae806c0fc9b5c00c8865d",
                    "mixHash" : "0x0c670c7358cd74e862503b1dc4b0804fd11626902eba891a0c52d4cc9d67b60f",
                    "nonce" : "0x9c272cf227f9aaa7",
                    "number" : "0x01",
                    "parentHash" : "0x18987bd5ee16e33b36b9541818f9e742079bab0e362508ff3582de8d3ccfd218",
                    "receiptTrie" : "0x2b0538d18a1111930e07f5ed922dfe2c0259dd14577d66022b6529620a9ddedc",
                    "stateRoot" : "0x790bbc92419f44bbf9bdfb001f193f5b6f1288336150bd438ac89213c79f971c",
                    "timestamp" : "0x03e8",
                    "transactionsTrie" : "0xf7440d30d9021eedc1b9964b6a9d342a5eee70a7c4889fe33672ce84b3ff8e25",
                    "uncleHash" : "0x1dcc4de8dec75d7aab85b567b6ccd41ad312451b948a7413f0a142fd40d49347"
                },
                "rlp" : "0xf902dbf901fea018987bd5ee16e33b36b9541818f9e742079bab0e362508ff3582de8d3ccfd218a01dcc4de8dec75d7aab85b567b6ccd41ad312451b948a7413f0a142fd40d4934794945304eb96065b2a98b57a48a06ae28d285a71b5a0790bbc92419f44bbf9bdfb001f193f5b6f1288336150bd438ac89213c79f971ca0f7440d30d9021eedc1b9964b6a9d342a5eee70a7c4889fe33672ce84b3ff8e25a02b0538d18a1111930e07f5ed922dfe2c0259dd14577d66022b6529620a9ddedcb90100000000000000000000000000000000000000000000000000000000000000000000000000000000000000000000000000000000000000000000000000000000000000000000000000000000000000000000000000000000000000000000000000000000000000000000000000000000000000000000000000000000000000000000000000000000000000000000000000000000000000000000000000000000000000000000000000000000000000000000000000000000000000000000000000000000000000000000000000000000000000000000000000000000000000000000000000000000000000000000000000000000000000000000000000000000008302000001887fffffffffffffff84485978668203e880a00c670c7358cd74e862503b1dc4b0804fd11626902eba891a0c52d4cc9d67b60f889c272cf227f9aaa7f8d7f8d58001844859786694095e7baea6a6c7c4c2dfeb977efac326af552d87843159e0f9b86f0b7f00000000000000000000000000000000000000000000000000000000000000013c7f000000000000000000000000000000000000000000000000000000000000c350a345457fffffffffffffffffffffffffffffffffffffffffffffffffffffffffffffffff8287a3208c8c5a1ba038dd8c018c66dfd6961db708bf3790e352976144e258fd6bcf398fa73f7c7476a044316351f356944f40f93b0f6337b0f5c7abaf24a6a8c865ba2a476f90899185c0",
                "transactions" : [
                    {
                        "data" : "0x0b7f00000000000000000000000000000000000000000000000000000000000000013c7f000000000000000000000000000000000000000000000000000000000000c350a345457fffffffffffffffffffffffffffffffffffffffffffffffffffffffffffffffff8287a3208c8c5a",
                        "gasLimit" : "0x48597866",
                        "gasPrice" : "0x01",
                        "nonce" : "0x00",
                        "r" : "0x38dd8c018c66dfd6961db708bf3790e352976144e258fd6bcf398fa73f7c7476",
                        "s" : "0x44316351f356944f40f93b0f6337b0f5c7abaf24a6a8c865ba2a476f90899185",
                        "to" : "0x095e7baea6a6c7c4c2dfeb977efac326af552d87",
                        "v" : "0x1b",
                        "value" : "0x3159e0f9"
                    }
                ],
                "uncleHeaders" : [
                ]
            }
        ],
        "genesisBlockHeader" : {
            "bloom" : "0x00000000000000000000000000000000000000000000000000000000000000000000000000000000000000000000000000000000000000000000000000000000000000000000000000000000000000000000000000000000000000000000000000000000000000000000000000000000000000000000000000000000000000000000000000000000000000000000000000000000000000000000000000000000000000000000000000000000000000000000000000000000000000000000000000000000000000000000000000000000000000000000000000000000000000000000000000000000000000000000000000000000000000000000000000000000",
            "coinbase" : "0x945304eb96065b2a98b57a48a06ae28d285a71b5",
            "difficulty" : "0x020000",
            "extraData" : "0x42",
            "gasLimit" : "0x7fffffffffffffff",
            "gasUsed" : "0x00",
            "hash" : "0x18987bd5ee16e33b36b9541818f9e742079bab0e362508ff3582de8d3ccfd218",
            "mixHash" : "0x56e81f171bcc55a6ff8345e692c0f86e5b48e01b996cadc001622fb5e363b421",
            "nonce" : "0x0102030405060708",
            "number" : "0x00",
            "parentHash" : "0x0000000000000000000000000000000000000000000000000000000000000000",
            "receiptTrie" : "0x56e81f171bcc55a6ff8345e692c0f86e5b48e01b996cadc001622fb5e363b421",
            "stateRoot" : "0x40d0e2b443823d4c29c8804f08785f838c18a41463c3359b37ad447f71a76cf1",
            "timestamp" : "0x03b6",
            "transactionsTrie" : "0x56e81f171bcc55a6ff8345e692c0f86e5b48e01b996cadc001622fb5e363b421",
            "uncleHash" : "0x1dcc4de8dec75d7aab85b567b6ccd41ad312451b948a7413f0a142fd40d49347"
        },
        "genesisRLP" : "0xf901fff901faa00000000000000000000000000000000000000000000000000000000000000000a01dcc4de8dec75d7aab85b567b6ccd41ad312451b948a7413f0a142fd40d4934794945304eb96065b2a98b57a48a06ae28d285a71b5a040d0e2b443823d4c29c8804f08785f838c18a41463c3359b37ad447f71a76cf1a056e81f171bcc55a6ff8345e692c0f86e5b48e01b996cadc001622fb5e363b421a056e81f171bcc55a6ff8345e692c0f86e5b48e01b996cadc001622fb5e363b421b90100000000000000000000000000000000000000000000000000000000000000000000000000000000000000000000000000000000000000000000000000000000000000000000000000000000000000000000000000000000000000000000000000000000000000000000000000000000000000000000000000000000000000000000000000000000000000000000000000000000000000000000000000000000000000000000000000000000000000000000000000000000000000000000000000000000000000000000000000000000000000000000000000000000000000000000000000000000000000000000000000000000000000000000000000000000008302000080887fffffffffffffff808203b642a056e81f171bcc55a6ff8345e692c0f86e5b48e01b996cadc001622fb5e363b421880102030405060708c0c0",
        "lastblockhash" : "0x2afd63bca7a8f10934aca2cb0e365d3e38a01a27068ae806c0fc9b5c00c8865d",
        "network" : "EIP158",
        "postState" : {
            "0x095e7baea6a6c7c4c2dfeb977efac326af552d87" : {
                "balance" : "0x00",
                "code" : "0x0b7f00000000000000000000000000000000000000000000000000000000000000013c7f000000000000000000000000000000000000000000000000000000000000c350a345457fffffffffffffffffffffffffffffffffffffffffffffffffffffffffffffffff8287a3208c8c5a60005155",
                "nonce" : "0x00",
                "storage" : {
                }
            },
            "0x945304eb96065b2a98b57a48a06ae28d285a71b5" : {
                "balance" : "0x456391828d4d7894",
                "code" : "0x6000355415600957005b60203560003555",
                "nonce" : "0x00",
                "storage" : {
                }
            },
            "0xa94f5374fce5edbc8e2a8697c15331677e6ebf0b" : {
                "balance" : "0x0de0b6b35f0a879a",
                "code" : "",
                "nonce" : "0x01",
                "storage" : {
                }
            }
        },
        "pre" : {
            "0x095e7baea6a6c7c4c2dfeb977efac326af552d87" : {
                "balance" : "0x00",
                "code" : "0x0b7f00000000000000000000000000000000000000000000000000000000000000013c7f000000000000000000000000000000000000000000000000000000000000c350a345457fffffffffffffffffffffffffffffffffffffffffffffffffffffffffffffffff8287a3208c8c5a60005155",
                "nonce" : "0x00",
                "storage" : {
                }
            },
            "0x945304eb96065b2a98b57a48a06ae28d285a71b5" : {
                "balance" : "0x2e",
                "code" : "0x6000355415600957005b60203560003555",
                "nonce" : "0x00",
                "storage" : {
                }
            },
            "0xa94f5374fce5edbc8e2a8697c15331677e6ebf0b" : {
                "balance" : "0x0de0b6b3a7640000",
                "code" : "",
                "nonce" : "0x00",
                "storage" : {
                }
            }
        }
    },
    "randomStatetest313_d0g0v0_Frontier" : {
        "blocks" : [
            {
                "blockHeader" : {
                    "bloom" : "0x00000000000000000000000000000000000000000000000000000000000000000000000000000000000000000000000000000000000000000000000000000000000000000000000000000000000000000000000000000000000000000000000000000000000000000000000000000000000000000000000000000000000000000000000000000000000000000000000000000000000000000000000000000000000000000000000000000000000000000000000000000000000000000000000000000000000000000000000000000000000000000000000000000000000000000000000000000000000000000000000000000000000000000000000000000000",
                    "coinbase" : "0x945304eb96065b2a98b57a48a06ae28d285a71b5",
                    "difficulty" : "0x020000",
                    "extraData" : "",
                    "gasLimit" : "0x7fffffffffffffff",
                    "gasUsed" : "0x48597866",
                    "hash" : "0x35a489967c3de4a8a504e68db0f9a7f7102fb4b93aae9f49fbefd6dada68cb42",
                    "mixHash" : "0xd0aabd700fc912af7c24ca43d7143ce7a694101fd68a12c75fc24f40293d10fb",
                    "nonce" : "0xd6e797b87571f7f5",
                    "number" : "0x01",
                    "parentHash" : "0x18987bd5ee16e33b36b9541818f9e742079bab0e362508ff3582de8d3ccfd218",
                    "receiptTrie" : "0x2b0538d18a1111930e07f5ed922dfe2c0259dd14577d66022b6529620a9ddedc",
                    "stateRoot" : "0x790bbc92419f44bbf9bdfb001f193f5b6f1288336150bd438ac89213c79f971c",
                    "timestamp" : "0x03e8",
                    "transactionsTrie" : "0xf7440d30d9021eedc1b9964b6a9d342a5eee70a7c4889fe33672ce84b3ff8e25",
                    "uncleHash" : "0x1dcc4de8dec75d7aab85b567b6ccd41ad312451b948a7413f0a142fd40d49347"
                },
                "rlp" : "0xf902dbf901fea018987bd5ee16e33b36b9541818f9e742079bab0e362508ff3582de8d3ccfd218a01dcc4de8dec75d7aab85b567b6ccd41ad312451b948a7413f0a142fd40d4934794945304eb96065b2a98b57a48a06ae28d285a71b5a0790bbc92419f44bbf9bdfb001f193f5b6f1288336150bd438ac89213c79f971ca0f7440d30d9021eedc1b9964b6a9d342a5eee70a7c4889fe33672ce84b3ff8e25a02b0538d18a1111930e07f5ed922dfe2c0259dd14577d66022b6529620a9ddedcb90100000000000000000000000000000000000000000000000000000000000000000000000000000000000000000000000000000000000000000000000000000000000000000000000000000000000000000000000000000000000000000000000000000000000000000000000000000000000000000000000000000000000000000000000000000000000000000000000000000000000000000000000000000000000000000000000000000000000000000000000000000000000000000000000000000000000000000000000000000000000000000000000000000000000000000000000000000000000000000000000000000000000000000000000000000000008302000001887fffffffffffffff84485978668203e880a0d0aabd700fc912af7c24ca43d7143ce7a694101fd68a12c75fc24f40293d10fb88d6e797b87571f7f5f8d7f8d58001844859786694095e7baea6a6c7c4c2dfeb977efac326af552d87843159e0f9b86f0b7f00000000000000000000000000000000000000000000000000000000000000013c7f000000000000000000000000000000000000000000000000000000000000c350a345457fffffffffffffffffffffffffffffffffffffffffffffffffffffffffffffffff8287a3208c8c5a1ba038dd8c018c66dfd6961db708bf3790e352976144e258fd6bcf398fa73f7c7476a044316351f356944f40f93b0f6337b0f5c7abaf24a6a8c865ba2a476f90899185c0",
                "transactions" : [
                    {
                        "data" : "0x0b7f00000000000000000000000000000000000000000000000000000000000000013c7f000000000000000000000000000000000000000000000000000000000000c350a345457fffffffffffffffffffffffffffffffffffffffffffffffffffffffffffffffff8287a3208c8c5a",
                        "gasLimit" : "0x48597866",
                        "gasPrice" : "0x01",
                        "nonce" : "0x00",
                        "r" : "0x38dd8c018c66dfd6961db708bf3790e352976144e258fd6bcf398fa73f7c7476",
                        "s" : "0x44316351f356944f40f93b0f6337b0f5c7abaf24a6a8c865ba2a476f90899185",
                        "to" : "0x095e7baea6a6c7c4c2dfeb977efac326af552d87",
                        "v" : "0x1b",
                        "value" : "0x3159e0f9"
                    }
                ],
                "uncleHeaders" : [
                ]
            }
        ],
        "genesisBlockHeader" : {
            "bloom" : "0x00000000000000000000000000000000000000000000000000000000000000000000000000000000000000000000000000000000000000000000000000000000000000000000000000000000000000000000000000000000000000000000000000000000000000000000000000000000000000000000000000000000000000000000000000000000000000000000000000000000000000000000000000000000000000000000000000000000000000000000000000000000000000000000000000000000000000000000000000000000000000000000000000000000000000000000000000000000000000000000000000000000000000000000000000000000",
            "coinbase" : "0x945304eb96065b2a98b57a48a06ae28d285a71b5",
            "difficulty" : "0x020000",
            "extraData" : "0x42",
            "gasLimit" : "0x7fffffffffffffff",
            "gasUsed" : "0x00",
            "hash" : "0x18987bd5ee16e33b36b9541818f9e742079bab0e362508ff3582de8d3ccfd218",
            "mixHash" : "0x56e81f171bcc55a6ff8345e692c0f86e5b48e01b996cadc001622fb5e363b421",
            "nonce" : "0x0102030405060708",
            "number" : "0x00",
            "parentHash" : "0x0000000000000000000000000000000000000000000000000000000000000000",
            "receiptTrie" : "0x56e81f171bcc55a6ff8345e692c0f86e5b48e01b996cadc001622fb5e363b421",
            "stateRoot" : "0x40d0e2b443823d4c29c8804f08785f838c18a41463c3359b37ad447f71a76cf1",
            "timestamp" : "0x03b6",
            "transactionsTrie" : "0x56e81f171bcc55a6ff8345e692c0f86e5b48e01b996cadc001622fb5e363b421",
            "uncleHash" : "0x1dcc4de8dec75d7aab85b567b6ccd41ad312451b948a7413f0a142fd40d49347"
        },
        "genesisRLP" : "0xf901fff901faa00000000000000000000000000000000000000000000000000000000000000000a01dcc4de8dec75d7aab85b567b6ccd41ad312451b948a7413f0a142fd40d4934794945304eb96065b2a98b57a48a06ae28d285a71b5a040d0e2b443823d4c29c8804f08785f838c18a41463c3359b37ad447f71a76cf1a056e81f171bcc55a6ff8345e692c0f86e5b48e01b996cadc001622fb5e363b421a056e81f171bcc55a6ff8345e692c0f86e5b48e01b996cadc001622fb5e363b421b90100000000000000000000000000000000000000000000000000000000000000000000000000000000000000000000000000000000000000000000000000000000000000000000000000000000000000000000000000000000000000000000000000000000000000000000000000000000000000000000000000000000000000000000000000000000000000000000000000000000000000000000000000000000000000000000000000000000000000000000000000000000000000000000000000000000000000000000000000000000000000000000000000000000000000000000000000000000000000000000000000000000000000000000000000000000008302000080887fffffffffffffff808203b642a056e81f171bcc55a6ff8345e692c0f86e5b48e01b996cadc001622fb5e363b421880102030405060708c0c0",
        "lastblockhash" : "0x35a489967c3de4a8a504e68db0f9a7f7102fb4b93aae9f49fbefd6dada68cb42",
        "network" : "Frontier",
        "postState" : {
            "0x095e7baea6a6c7c4c2dfeb977efac326af552d87" : {
                "balance" : "0x00",
                "code" : "0x0b7f00000000000000000000000000000000000000000000000000000000000000013c7f000000000000000000000000000000000000000000000000000000000000c350a345457fffffffffffffffffffffffffffffffffffffffffffffffffffffffffffffffff8287a3208c8c5a60005155",
                "nonce" : "0x00",
                "storage" : {
                }
            },
            "0x945304eb96065b2a98b57a48a06ae28d285a71b5" : {
                "balance" : "0x456391828d4d7894",
                "code" : "0x6000355415600957005b60203560003555",
                "nonce" : "0x00",
                "storage" : {
                }
            },
            "0xa94f5374fce5edbc8e2a8697c15331677e6ebf0b" : {
                "balance" : "0x0de0b6b35f0a879a",
                "code" : "",
                "nonce" : "0x01",
                "storage" : {
                }
            }
        },
        "pre" : {
            "0x095e7baea6a6c7c4c2dfeb977efac326af552d87" : {
                "balance" : "0x00",
                "code" : "0x0b7f00000000000000000000000000000000000000000000000000000000000000013c7f000000000000000000000000000000000000000000000000000000000000c350a345457fffffffffffffffffffffffffffffffffffffffffffffffffffffffffffffffff8287a3208c8c5a60005155",
                "nonce" : "0x00",
                "storage" : {
                }
            },
            "0x945304eb96065b2a98b57a48a06ae28d285a71b5" : {
                "balance" : "0x2e",
                "code" : "0x6000355415600957005b60203560003555",
                "nonce" : "0x00",
                "storage" : {
                }
            },
            "0xa94f5374fce5edbc8e2a8697c15331677e6ebf0b" : {
                "balance" : "0x0de0b6b3a7640000",
                "code" : "",
                "nonce" : "0x00",
                "storage" : {
                }
            }
        }
    },
    "randomStatetest313_d0g0v0_Homestead" : {
        "blocks" : [
            {
                "blockHeader" : {
                    "bloom" : "0x00000000000000000000000000000000000000000000000000000000000000000000000000000000000000000000000000000000000000000000000000000000000000000000000000000000000000000000000000000000000000000000000000000000000000000000000000000000000000000000000000000000000000000000000000000000000000000000000000000000000000000000000000000000000000000000000000000000000000000000000000000000000000000000000000000000000000000000000000000000000000000000000000000000000000000000000000000000000000000000000000000000000000000000000000000000",
                    "coinbase" : "0x945304eb96065b2a98b57a48a06ae28d285a71b5",
                    "difficulty" : "0x020000",
                    "extraData" : "",
                    "gasLimit" : "0x7fffffffffffffff",
                    "gasUsed" : "0x48597866",
                    "hash" : "0x2241eb6ad4ae5510404db7a874156b6fd5e65a8f763790ed3b715f320d2eff3f",
                    "mixHash" : "0xa4a9efa140daf827feb9731b154c24211024a496da849f54b1d837d1d6dd5c22",
                    "nonce" : "0xd11f63b44d2cfab7",
                    "number" : "0x01",
                    "parentHash" : "0x18987bd5ee16e33b36b9541818f9e742079bab0e362508ff3582de8d3ccfd218",
                    "receiptTrie" : "0x2b0538d18a1111930e07f5ed922dfe2c0259dd14577d66022b6529620a9ddedc",
                    "stateRoot" : "0x790bbc92419f44bbf9bdfb001f193f5b6f1288336150bd438ac89213c79f971c",
                    "timestamp" : "0x03e8",
                    "transactionsTrie" : "0xf7440d30d9021eedc1b9964b6a9d342a5eee70a7c4889fe33672ce84b3ff8e25",
                    "uncleHash" : "0x1dcc4de8dec75d7aab85b567b6ccd41ad312451b948a7413f0a142fd40d49347"
                },
                "rlp" : "0xf902dbf901fea018987bd5ee16e33b36b9541818f9e742079bab0e362508ff3582de8d3ccfd218a01dcc4de8dec75d7aab85b567b6ccd41ad312451b948a7413f0a142fd40d4934794945304eb96065b2a98b57a48a06ae28d285a71b5a0790bbc92419f44bbf9bdfb001f193f5b6f1288336150bd438ac89213c79f971ca0f7440d30d9021eedc1b9964b6a9d342a5eee70a7c4889fe33672ce84b3ff8e25a02b0538d18a1111930e07f5ed922dfe2c0259dd14577d66022b6529620a9ddedcb90100000000000000000000000000000000000000000000000000000000000000000000000000000000000000000000000000000000000000000000000000000000000000000000000000000000000000000000000000000000000000000000000000000000000000000000000000000000000000000000000000000000000000000000000000000000000000000000000000000000000000000000000000000000000000000000000000000000000000000000000000000000000000000000000000000000000000000000000000000000000000000000000000000000000000000000000000000000000000000000000000000000000000000000000000000000008302000001887fffffffffffffff84485978668203e880a0a4a9efa140daf827feb9731b154c24211024a496da849f54b1d837d1d6dd5c2288d11f63b44d2cfab7f8d7f8d58001844859786694095e7baea6a6c7c4c2dfeb977efac326af552d87843159e0f9b86f0b7f00000000000000000000000000000000000000000000000000000000000000013c7f000000000000000000000000000000000000000000000000000000000000c350a345457fffffffffffffffffffffffffffffffffffffffffffffffffffffffffffffffff8287a3208c8c5a1ba038dd8c018c66dfd6961db708bf3790e352976144e258fd6bcf398fa73f7c7476a044316351f356944f40f93b0f6337b0f5c7abaf24a6a8c865ba2a476f90899185c0",
                "transactions" : [
                    {
                        "data" : "0x0b7f00000000000000000000000000000000000000000000000000000000000000013c7f000000000000000000000000000000000000000000000000000000000000c350a345457fffffffffffffffffffffffffffffffffffffffffffffffffffffffffffffffff8287a3208c8c5a",
                        "gasLimit" : "0x48597866",
                        "gasPrice" : "0x01",
                        "nonce" : "0x00",
                        "r" : "0x38dd8c018c66dfd6961db708bf3790e352976144e258fd6bcf398fa73f7c7476",
                        "s" : "0x44316351f356944f40f93b0f6337b0f5c7abaf24a6a8c865ba2a476f90899185",
                        "to" : "0x095e7baea6a6c7c4c2dfeb977efac326af552d87",
                        "v" : "0x1b",
                        "value" : "0x3159e0f9"
                    }
                ],
                "uncleHeaders" : [
                ]
            }
        ],
        "genesisBlockHeader" : {
            "bloom" : "0x00000000000000000000000000000000000000000000000000000000000000000000000000000000000000000000000000000000000000000000000000000000000000000000000000000000000000000000000000000000000000000000000000000000000000000000000000000000000000000000000000000000000000000000000000000000000000000000000000000000000000000000000000000000000000000000000000000000000000000000000000000000000000000000000000000000000000000000000000000000000000000000000000000000000000000000000000000000000000000000000000000000000000000000000000000000",
            "coinbase" : "0x945304eb96065b2a98b57a48a06ae28d285a71b5",
            "difficulty" : "0x020000",
            "extraData" : "0x42",
            "gasLimit" : "0x7fffffffffffffff",
            "gasUsed" : "0x00",
            "hash" : "0x18987bd5ee16e33b36b9541818f9e742079bab0e362508ff3582de8d3ccfd218",
            "mixHash" : "0x56e81f171bcc55a6ff8345e692c0f86e5b48e01b996cadc001622fb5e363b421",
            "nonce" : "0x0102030405060708",
            "number" : "0x00",
            "parentHash" : "0x0000000000000000000000000000000000000000000000000000000000000000",
            "receiptTrie" : "0x56e81f171bcc55a6ff8345e692c0f86e5b48e01b996cadc001622fb5e363b421",
            "stateRoot" : "0x40d0e2b443823d4c29c8804f08785f838c18a41463c3359b37ad447f71a76cf1",
            "timestamp" : "0x03b6",
            "transactionsTrie" : "0x56e81f171bcc55a6ff8345e692c0f86e5b48e01b996cadc001622fb5e363b421",
            "uncleHash" : "0x1dcc4de8dec75d7aab85b567b6ccd41ad312451b948a7413f0a142fd40d49347"
        },
        "genesisRLP" : "0xf901fff901faa00000000000000000000000000000000000000000000000000000000000000000a01dcc4de8dec75d7aab85b567b6ccd41ad312451b948a7413f0a142fd40d4934794945304eb96065b2a98b57a48a06ae28d285a71b5a040d0e2b443823d4c29c8804f08785f838c18a41463c3359b37ad447f71a76cf1a056e81f171bcc55a6ff8345e692c0f86e5b48e01b996cadc001622fb5e363b421a056e81f171bcc55a6ff8345e692c0f86e5b48e01b996cadc001622fb5e363b421b90100000000000000000000000000000000000000000000000000000000000000000000000000000000000000000000000000000000000000000000000000000000000000000000000000000000000000000000000000000000000000000000000000000000000000000000000000000000000000000000000000000000000000000000000000000000000000000000000000000000000000000000000000000000000000000000000000000000000000000000000000000000000000000000000000000000000000000000000000000000000000000000000000000000000000000000000000000000000000000000000000000000000000000000000000000000008302000080887fffffffffffffff808203b642a056e81f171bcc55a6ff8345e692c0f86e5b48e01b996cadc001622fb5e363b421880102030405060708c0c0",
        "lastblockhash" : "0x2241eb6ad4ae5510404db7a874156b6fd5e65a8f763790ed3b715f320d2eff3f",
        "network" : "Homestead",
        "postState" : {
            "0x095e7baea6a6c7c4c2dfeb977efac326af552d87" : {
                "balance" : "0x00",
                "code" : "0x0b7f00000000000000000000000000000000000000000000000000000000000000013c7f000000000000000000000000000000000000000000000000000000000000c350a345457fffffffffffffffffffffffffffffffffffffffffffffffffffffffffffffffff8287a3208c8c5a60005155",
                "nonce" : "0x00",
                "storage" : {
                }
            },
            "0x945304eb96065b2a98b57a48a06ae28d285a71b5" : {
                "balance" : "0x456391828d4d7894",
                "code" : "0x6000355415600957005b60203560003555",
                "nonce" : "0x00",
                "storage" : {
                }
            },
            "0xa94f5374fce5edbc8e2a8697c15331677e6ebf0b" : {
                "balance" : "0x0de0b6b35f0a879a",
                "code" : "",
                "nonce" : "0x01",
                "storage" : {
                }
            }
        },
        "pre" : {
            "0x095e7baea6a6c7c4c2dfeb977efac326af552d87" : {
                "balance" : "0x00",
                "code" : "0x0b7f00000000000000000000000000000000000000000000000000000000000000013c7f000000000000000000000000000000000000000000000000000000000000c350a345457fffffffffffffffffffffffffffffffffffffffffffffffffffffffffffffffff8287a3208c8c5a60005155",
                "nonce" : "0x00",
                "storage" : {
                }
            },
            "0x945304eb96065b2a98b57a48a06ae28d285a71b5" : {
                "balance" : "0x2e",
                "code" : "0x6000355415600957005b60203560003555",
                "nonce" : "0x00",
                "storage" : {
                }
            },
            "0xa94f5374fce5edbc8e2a8697c15331677e6ebf0b" : {
                "balance" : "0x0de0b6b3a7640000",
                "code" : "",
                "nonce" : "0x00",
                "storage" : {
                }
            }
        }
    },
    "randomStatetest313_d0g0v0_Metropolis" : {
        "blocks" : [
            {
                "blockHeader" : {
                    "bloom" : "0x00000000000000000000000000000000000000000000000000000000000000000000000000000000000000000000000000000000000000000000000000000000000000000000000000000000000000000000000000000000000000000000000000000000000000000000000000000000000000000000000000000000000000000000000000000000000000000000000000000000000000000000000000000000000000000000000000000000000000000000000000000000000000000000000000000000000000000000000000000000000000000000000000000000000000000000000000000000000000000000000000000000000000000000000000000000",
                    "coinbase" : "0x945304eb96065b2a98b57a48a06ae28d285a71b5",
                    "difficulty" : "0x020000",
                    "extraData" : "",
                    "gasLimit" : "0x7fffffffffffffff",
                    "gasUsed" : "0x48597866",
                    "hash" : "0xb08986214db7c9dd7e0b7bfa08811496c5c73e78bda00666c5841f45e6da88f4",
                    "mixHash" : "0xe059f4e4aef21e7d727b8f541da17ec93b8c6991c4b780e59e7f2075c66a3b2d",
                    "nonce" : "0xb0852456439aae23",
                    "number" : "0x01",
                    "parentHash" : "0x18987bd5ee16e33b36b9541818f9e742079bab0e362508ff3582de8d3ccfd218",
                    "receiptTrie" : "0x645ec9fe1e1bfc45b8f3d62f434e944750f397455ed345fd04e5c18d800d50ea",
                    "stateRoot" : "0x76dab3b4381b7c04bfb4457d00c9d4d1342815272d0c1b9b869e386267b8d966",
                    "timestamp" : "0x03e8",
                    "transactionsTrie" : "0xf7440d30d9021eedc1b9964b6a9d342a5eee70a7c4889fe33672ce84b3ff8e25",
                    "uncleHash" : "0x1dcc4de8dec75d7aab85b567b6ccd41ad312451b948a7413f0a142fd40d49347"
                },
                "rlp" : "0xf902dbf901fea018987bd5ee16e33b36b9541818f9e742079bab0e362508ff3582de8d3ccfd218a01dcc4de8dec75d7aab85b567b6ccd41ad312451b948a7413f0a142fd40d4934794945304eb96065b2a98b57a48a06ae28d285a71b5a076dab3b4381b7c04bfb4457d00c9d4d1342815272d0c1b9b869e386267b8d966a0f7440d30d9021eedc1b9964b6a9d342a5eee70a7c4889fe33672ce84b3ff8e25a0645ec9fe1e1bfc45b8f3d62f434e944750f397455ed345fd04e5c18d800d50eab90100000000000000000000000000000000000000000000000000000000000000000000000000000000000000000000000000000000000000000000000000000000000000000000000000000000000000000000000000000000000000000000000000000000000000000000000000000000000000000000000000000000000000000000000000000000000000000000000000000000000000000000000000000000000000000000000000000000000000000000000000000000000000000000000000000000000000000000000000000000000000000000000000000000000000000000000000000000000000000000000000000000000000000000000000000000008302000001887fffffffffffffff84485978668203e880a0e059f4e4aef21e7d727b8f541da17ec93b8c6991c4b780e59e7f2075c66a3b2d88b0852456439aae23f8d7f8d58001844859786694095e7baea6a6c7c4c2dfeb977efac326af552d87843159e0f9b86f0b7f00000000000000000000000000000000000000000000000000000000000000013c7f000000000000000000000000000000000000000000000000000000000000c350a345457fffffffffffffffffffffffffffffffffffffffffffffffffffffffffffffffff8287a3208c8c5a1ba038dd8c018c66dfd6961db708bf3790e352976144e258fd6bcf398fa73f7c7476a044316351f356944f40f93b0f6337b0f5c7abaf24a6a8c865ba2a476f90899185c0",
                "transactions" : [
                    {
                        "data" : "0x0b7f00000000000000000000000000000000000000000000000000000000000000013c7f000000000000000000000000000000000000000000000000000000000000c350a345457fffffffffffffffffffffffffffffffffffffffffffffffffffffffffffffffff8287a3208c8c5a",
                        "gasLimit" : "0x48597866",
                        "gasPrice" : "0x01",
                        "nonce" : "0x00",
                        "r" : "0x38dd8c018c66dfd6961db708bf3790e352976144e258fd6bcf398fa73f7c7476",
                        "s" : "0x44316351f356944f40f93b0f6337b0f5c7abaf24a6a8c865ba2a476f90899185",
                        "to" : "0x095e7baea6a6c7c4c2dfeb977efac326af552d87",
                        "v" : "0x1b",
                        "value" : "0x3159e0f9"
                    }
                ],
                "uncleHeaders" : [
                ]
            }
        ],
        "genesisBlockHeader" : {
            "bloom" : "0x00000000000000000000000000000000000000000000000000000000000000000000000000000000000000000000000000000000000000000000000000000000000000000000000000000000000000000000000000000000000000000000000000000000000000000000000000000000000000000000000000000000000000000000000000000000000000000000000000000000000000000000000000000000000000000000000000000000000000000000000000000000000000000000000000000000000000000000000000000000000000000000000000000000000000000000000000000000000000000000000000000000000000000000000000000000",
            "coinbase" : "0x945304eb96065b2a98b57a48a06ae28d285a71b5",
            "difficulty" : "0x020000",
            "extraData" : "0x42",
            "gasLimit" : "0x7fffffffffffffff",
            "gasUsed" : "0x00",
            "hash" : "0x18987bd5ee16e33b36b9541818f9e742079bab0e362508ff3582de8d3ccfd218",
            "mixHash" : "0x56e81f171bcc55a6ff8345e692c0f86e5b48e01b996cadc001622fb5e363b421",
            "nonce" : "0x0102030405060708",
            "number" : "0x00",
            "parentHash" : "0x0000000000000000000000000000000000000000000000000000000000000000",
            "receiptTrie" : "0x56e81f171bcc55a6ff8345e692c0f86e5b48e01b996cadc001622fb5e363b421",
            "stateRoot" : "0x40d0e2b443823d4c29c8804f08785f838c18a41463c3359b37ad447f71a76cf1",
            "timestamp" : "0x03b6",
            "transactionsTrie" : "0x56e81f171bcc55a6ff8345e692c0f86e5b48e01b996cadc001622fb5e363b421",
            "uncleHash" : "0x1dcc4de8dec75d7aab85b567b6ccd41ad312451b948a7413f0a142fd40d49347"
        },
        "genesisRLP" : "0xf901fff901faa00000000000000000000000000000000000000000000000000000000000000000a01dcc4de8dec75d7aab85b567b6ccd41ad312451b948a7413f0a142fd40d4934794945304eb96065b2a98b57a48a06ae28d285a71b5a040d0e2b443823d4c29c8804f08785f838c18a41463c3359b37ad447f71a76cf1a056e81f171bcc55a6ff8345e692c0f86e5b48e01b996cadc001622fb5e363b421a056e81f171bcc55a6ff8345e692c0f86e5b48e01b996cadc001622fb5e363b421b90100000000000000000000000000000000000000000000000000000000000000000000000000000000000000000000000000000000000000000000000000000000000000000000000000000000000000000000000000000000000000000000000000000000000000000000000000000000000000000000000000000000000000000000000000000000000000000000000000000000000000000000000000000000000000000000000000000000000000000000000000000000000000000000000000000000000000000000000000000000000000000000000000000000000000000000000000000000000000000000000000000000000000000000000000000000008302000080887fffffffffffffff808203b642a056e81f171bcc55a6ff8345e692c0f86e5b48e01b996cadc001622fb5e363b421880102030405060708c0c0",
        "lastblockhash" : "0xb08986214db7c9dd7e0b7bfa08811496c5c73e78bda00666c5841f45e6da88f4",
        "network" : "Metropolis",
        "postState" : {
            "0x00000000000000000000000000000000000000f0" : {
                "balance" : "0x00",
                "code" : "",
                "nonce" : "0x00",
                "storage" : {
                }
            },
            "0x095e7baea6a6c7c4c2dfeb977efac326af552d87" : {
                "balance" : "0x00",
                "code" : "0x0b7f00000000000000000000000000000000000000000000000000000000000000013c7f000000000000000000000000000000000000000000000000000000000000c350a345457fffffffffffffffffffffffffffffffffffffffffffffffffffffffffffffffff8287a3208c8c5a60005155",
                "nonce" : "0x00",
                "storage" : {
                }
            },
            "0x945304eb96065b2a98b57a48a06ae28d285a71b5" : {
                "balance" : "0x456391828d4d7894",
                "code" : "0x6000355415600957005b60203560003555",
                "nonce" : "0x00",
                "storage" : {
                }
            },
            "0xa94f5374fce5edbc8e2a8697c15331677e6ebf0b" : {
                "balance" : "0x0de0b6b35f0a879a",
                "code" : "",
                "nonce" : "0x01",
                "storage" : {
                }
            }
        },
        "pre" : {
            "0x095e7baea6a6c7c4c2dfeb977efac326af552d87" : {
                "balance" : "0x00",
                "code" : "0x0b7f00000000000000000000000000000000000000000000000000000000000000013c7f000000000000000000000000000000000000000000000000000000000000c350a345457fffffffffffffffffffffffffffffffffffffffffffffffffffffffffffffffff8287a3208c8c5a60005155",
                "nonce" : "0x00",
                "storage" : {
                }
            },
            "0x945304eb96065b2a98b57a48a06ae28d285a71b5" : {
                "balance" : "0x2e",
                "code" : "0x6000355415600957005b60203560003555",
                "nonce" : "0x00",
                "storage" : {
                }
            },
            "0xa94f5374fce5edbc8e2a8697c15331677e6ebf0b" : {
                "balance" : "0x0de0b6b3a7640000",
                "code" : "",
                "nonce" : "0x00",
                "storage" : {
                }
            }
        }
    }
}