{
    "randomStatetest103_d0g0v0_Byzantium" : {
        "_info" : {
            "comment" : "",
            "filledwith" : "cpp-1.3.0+commit.6e0ce939.Linux.g++",
            "lllcversion" : "Version: 0.4.18-develop.2017.9.25+commit.a72237f2.Linux.g++",
            "source" : "src/BlockchainTestsFiller/GeneralStateTests/stRandom/randomStatetest103_d0g0v0Filler.json",
            "sourceHash" : "7abcec1abf12820576c87c442700ac968fb037e1d79bd3201a570b011399bf3f"
        },
        "blocks" : [
            {
                "blockHeader" : {
                    "bloom" : "0x00000000000000000000000000000000000000000000000000000000000000000000000000000000000000000000000000000000000000000000000000000000000000000000000000000000000000000000000000000000000000000000000000000000000000000000000000000000000000000000000000000000000000000000000000000000000000000000000000000000000000000000000000000000000000000000000000000000000000000000000000000000000000000000000000000000000000000000000000000000000000000000000000000000000000000000000000000000000000000000000000000000000000000000000000000000",
                    "coinbase" : "0x945304eb96065b2a98b57a48a06ae28d285a71b5",
                    "difficulty" : "0x020000",
                    "extraData" : "",
                    "gasLimit" : "0x7fffffffffffffff",
                    "gasUsed" : "0x0623e53b",
                    "hash" : "0xcaff94ca42c17696bd3479865d4a78df9e22a37aec0400bd113c100e657cb6f2",
                    "mixHash" : "0x3bf1d815f9a24141d7241f4e3c363d8803e6a1e0bb206f7641d298c369f139e5",
                    "nonce" : "0xd6a6ba71bc9d714a",
                    "number" : "0x01",
                    "parentHash" : "0x3f03741238a94a0df8c4b3b9391505b5c1835d33311716139325c561f1757ce6",
                    "receiptTrie" : "0xce9ec75dc5968b983b94842442fa6f23e529aa2aa6437a400897b724151f5af9",
                    "stateRoot" : "0x1eda7f4f7d2c07a088678774e633ef78e2c4d7f61d479a38e9efc5e1619eddeb",
                    "timestamp" : "0x03e8",
                    "transactionsTrie" : "0x93db1e2b03c84493a37b94d8a3bd57004fccff5258c4a6815bff6ac6c1629221",
                    "uncleHash" : "0x1dcc4de8dec75d7aab85b567b6ccd41ad312451b948a7413f0a142fd40d49347"
                },
                "rlp" : "0xf90325f901fea03f03741238a94a0df8c4b3b9391505b5c1835d33311716139325c561f1757ce6a01dcc4de8dec75d7aab85b567b6ccd41ad312451b948a7413f0a142fd40d4934794945304eb96065b2a98b57a48a06ae28d285a71b5a01eda7f4f7d2c07a088678774e633ef78e2c4d7f61d479a38e9efc5e1619eddeba093db1e2b03c84493a37b94d8a3bd57004fccff5258c4a6815bff6ac6c1629221a0ce9ec75dc5968b983b94842442fa6f23e529aa2aa6437a400897b724151f5af9b90100000000000000000000000000000000000000000000000000000000000000000000000000000000000000000000000000000000000000000000000000000000000000000000000000000000000000000000000000000000000000000000000000000000000000000000000000000000000000000000000000000000000000000000000000000000000000000000000000000000000000000000000000000000000000000000000000000000000000000000000000000000000000000000000000000000000000000000000000000000000000000000000000000000000000000000000000000000000000000000000000000000000000000000000000000000008302000001887fffffffffffffff840623e53b8203e880a03bf1d815f9a24141d7241f4e3c363d8803e6a1e0bb206f7641d298c369f139e588d6a6ba71bc9d714af90120f9011d8001840623e53b94095e7baea6a6c7c4c2dfeb977efac326af552d87845ef1042eb8b77fffffffffffffffffffffffffffffffffffffffffffffffffffffffffffffffff7f000000000000000000000000945304eb96065b2a98b57a48a06ae28d285a71b57ffffffffffffffffffffffffffffffffffffffffffffffffffffffffffffffffe92357fffffffffffffffffffffffffffffffffffffffffffffffffffffffffffffffff597f00000000000000000000000000000000000000000000000000000000000000019385a39988160a205a93196d3364281ba0a7991d5d65cf926b9d2eba7f378df974cdb3f233d337cbcc0012d5e50bf106b8a014406d761b4d5c2881432bbf4e7d542bced2fdc79532bd6ebc4f652a57e40acac0",
                "transactions" : [
                    {
                        "data" : "0x7fffffffffffffffffffffffffffffffffffffffffffffffffffffffffffffffff7f000000000000000000000000945304eb96065b2a98b57a48a06ae28d285a71b57ffffffffffffffffffffffffffffffffffffffffffffffffffffffffffffffffe92357fffffffffffffffffffffffffffffffffffffffffffffffffffffffffffffffff597f00000000000000000000000000000000000000000000000000000000000000019385a39988160a205a93196d336428",
                        "gasLimit" : "0x0623e53b",
                        "gasPrice" : "0x01",
                        "nonce" : "0x00",
                        "r" : "0xa7991d5d65cf926b9d2eba7f378df974cdb3f233d337cbcc0012d5e50bf106b8",
                        "s" : "0x14406d761b4d5c2881432bbf4e7d542bced2fdc79532bd6ebc4f652a57e40aca",
                        "to" : "0x095e7baea6a6c7c4c2dfeb977efac326af552d87",
                        "v" : "0x1b",
                        "value" : "0x5ef1042e"
                    }
                ],
                "uncleHeaders" : [
                ]
            }
        ],
        "genesisBlockHeader" : {
            "bloom" : "0x00000000000000000000000000000000000000000000000000000000000000000000000000000000000000000000000000000000000000000000000000000000000000000000000000000000000000000000000000000000000000000000000000000000000000000000000000000000000000000000000000000000000000000000000000000000000000000000000000000000000000000000000000000000000000000000000000000000000000000000000000000000000000000000000000000000000000000000000000000000000000000000000000000000000000000000000000000000000000000000000000000000000000000000000000000000",
            "coinbase" : "0x945304eb96065b2a98b57a48a06ae28d285a71b5",
            "difficulty" : "0x020000",
            "extraData" : "0x42",
            "gasLimit" : "0x7fffffffffffffff",
            "gasUsed" : "0x00",
            "hash" : "0x3f03741238a94a0df8c4b3b9391505b5c1835d33311716139325c561f1757ce6",
            "mixHash" : "0x56e81f171bcc55a6ff8345e692c0f86e5b48e01b996cadc001622fb5e363b421",
            "nonce" : "0x0102030405060708",
            "number" : "0x00",
            "parentHash" : "0x0000000000000000000000000000000000000000000000000000000000000000",
            "receiptTrie" : "0x56e81f171bcc55a6ff8345e692c0f86e5b48e01b996cadc001622fb5e363b421",
            "stateRoot" : "0x141b2346c7a6d2916916655780c6dd1dcbca58ca4df0e1807b30ca343f43c75c",
            "timestamp" : "0x03b6",
            "transactionsTrie" : "0x56e81f171bcc55a6ff8345e692c0f86e5b48e01b996cadc001622fb5e363b421",
            "uncleHash" : "0x1dcc4de8dec75d7aab85b567b6ccd41ad312451b948a7413f0a142fd40d49347"
        },
        "genesisRLP" : "0xf901fff901faa00000000000000000000000000000000000000000000000000000000000000000a01dcc4de8dec75d7aab85b567b6ccd41ad312451b948a7413f0a142fd40d4934794945304eb96065b2a98b57a48a06ae28d285a71b5a0141b2346c7a6d2916916655780c6dd1dcbca58ca4df0e1807b30ca343f43c75ca056e81f171bcc55a6ff8345e692c0f86e5b48e01b996cadc001622fb5e363b421a056e81f171bcc55a6ff8345e692c0f86e5b48e01b996cadc001622fb5e363b421b90100000000000000000000000000000000000000000000000000000000000000000000000000000000000000000000000000000000000000000000000000000000000000000000000000000000000000000000000000000000000000000000000000000000000000000000000000000000000000000000000000000000000000000000000000000000000000000000000000000000000000000000000000000000000000000000000000000000000000000000000000000000000000000000000000000000000000000000000000000000000000000000000000000000000000000000000000000000000000000000000000000000000000000000000000000000008302000080887fffffffffffffff808203b642a056e81f171bcc55a6ff8345e692c0f86e5b48e01b996cadc001622fb5e363b421880102030405060708c0c0",
        "lastblockhash" : "0xcaff94ca42c17696bd3479865d4a78df9e22a37aec0400bd113c100e657cb6f2",
        "network" : "Byzantium",
        "postState" : {
            "0x095e7baea6a6c7c4c2dfeb977efac326af552d87" : {
                "balance" : "0x00",
                "code" : "0x7fffffffffffffffffffffffffffffffffffffffffffffffffffffffffffffffff7f000000000000000000000000945304eb96065b2a98b57a48a06ae28d285a71b57ffffffffffffffffffffffffffffffffffffffffffffffffffffffffffffffffe92357fffffffffffffffffffffffffffffffffffffffffffffffffffffffffffffffff597f00000000000000000000000000000000000000000000000000000000000000019385a39988160a205a93196d336428",
                "nonce" : "0x00",
                "storage" : {
                }
            },
            "0x945304eb96065b2a98b57a48a06ae28d285a71b5" : {
                "balance" : "0x29a2241afc4fe569",
                "code" : "0x6000355415600957005b60203560003555",
                "nonce" : "0x00",
                "storage" : {
                }
            },
            "0xa94f5374fce5edbc8e2a8697c15331677e6ebf0b" : {
                "balance" : "0x0de0b6b3a1401ac5",
                "code" : "",
                "nonce" : "0x01",
                "storage" : {
                }
            }
        },
        "pre" : {
            "0x095e7baea6a6c7c4c2dfeb977efac326af552d87" : {
                "balance" : "0x00",
                "code" : "0x7fffffffffffffffffffffffffffffffffffffffffffffffffffffffffffffffff7f000000000000000000000000945304eb96065b2a98b57a48a06ae28d285a71b57ffffffffffffffffffffffffffffffffffffffffffffffffffffffffffffffffe92357fffffffffffffffffffffffffffffffffffffffffffffffffffffffffffffffff597f00000000000000000000000000000000000000000000000000000000000000019385a39988160a205a93196d336428",
                "nonce" : "0x00",
                "storage" : {
                }
            },
            "0x945304eb96065b2a98b57a48a06ae28d285a71b5" : {
                "balance" : "0x2e",
                "code" : "0x6000355415600957005b60203560003555",
                "nonce" : "0x00",
                "storage" : {
                }
            },
            "0xa94f5374fce5edbc8e2a8697c15331677e6ebf0b" : {
                "balance" : "0x0de0b6b3a7640000",
                "code" : "",
                "nonce" : "0x00",
                "storage" : {
                }
            }
        }
    },
    "randomStatetest103_d0g0v0_EIP150" : {
        "_info" : {
            "comment" : "",
            "filledwith" : "cpp-1.3.0+commit.6e0ce939.Linux.g++",
            "lllcversion" : "Version: 0.4.18-develop.2017.9.25+commit.a72237f2.Linux.g++",
            "source" : "src/BlockchainTestsFiller/GeneralStateTests/stRandom/randomStatetest103_d0g0v0Filler.json",
            "sourceHash" : "7abcec1abf12820576c87c442700ac968fb037e1d79bd3201a570b011399bf3f"
        },
        "blocks" : [
            {
                "blockHeader" : {
                    "bloom" : "0x00000000000000000000000000000000000000000000000000000000000000000000000000000000000000000000000000000000000000000000000000000000000000000000000000000000000000000000000000000000000000000000000000000000000000000000000000000000000000000000000000000000000000000000000000000000000000000000000000000000000000000000000000000000000000000000000000000000000000000000000000000000000000000000000000000000000000000000000000000000000000000000000000000000000000000000000000000000000000000000000000000000000000000000000000000000",
                    "coinbase" : "0x945304eb96065b2a98b57a48a06ae28d285a71b5",
                    "difficulty" : "0x020000",
                    "extraData" : "",
                    "gasLimit" : "0x7fffffffffffffff",
                    "gasUsed" : "0x0623e53b",
                    "hash" : "0x19653a860dcd693f46d722e691334d5ced0edafd119ae9e9b817babcc86246ac",
                    "mixHash" : "0x27d708aa5ef5102c25a4870150a55d10291ed03508f2869ad9fff725be301255",
                    "nonce" : "0xf05d662a78dfde66",
                    "number" : "0x01",
                    "parentHash" : "0x3f03741238a94a0df8c4b3b9391505b5c1835d33311716139325c561f1757ce6",
                    "receiptTrie" : "0xd3da6234f111967dfd33a0075cb5678d1c80d04650d180cab4409273f73fa50f",
                    "stateRoot" : "0xa32abc3dd369643f5199133552b3e7ce60d4bac4833679635d74f5b9c97080e9",
                    "timestamp" : "0x03e8",
                    "transactionsTrie" : "0x93db1e2b03c84493a37b94d8a3bd57004fccff5258c4a6815bff6ac6c1629221",
                    "uncleHash" : "0x1dcc4de8dec75d7aab85b567b6ccd41ad312451b948a7413f0a142fd40d49347"
                },
                "rlp" : "0xf90325f901fea03f03741238a94a0df8c4b3b9391505b5c1835d33311716139325c561f1757ce6a01dcc4de8dec75d7aab85b567b6ccd41ad312451b948a7413f0a142fd40d4934794945304eb96065b2a98b57a48a06ae28d285a71b5a0a32abc3dd369643f5199133552b3e7ce60d4bac4833679635d74f5b9c97080e9a093db1e2b03c84493a37b94d8a3bd57004fccff5258c4a6815bff6ac6c1629221a0d3da6234f111967dfd33a0075cb5678d1c80d04650d180cab4409273f73fa50fb90100000000000000000000000000000000000000000000000000000000000000000000000000000000000000000000000000000000000000000000000000000000000000000000000000000000000000000000000000000000000000000000000000000000000000000000000000000000000000000000000000000000000000000000000000000000000000000000000000000000000000000000000000000000000000000000000000000000000000000000000000000000000000000000000000000000000000000000000000000000000000000000000000000000000000000000000000000000000000000000000000000000000000000000000000000000008302000001887fffffffffffffff840623e53b8203e880a027d708aa5ef5102c25a4870150a55d10291ed03508f2869ad9fff725be30125588f05d662a78dfde66f90120f9011d8001840623e53b94095e7baea6a6c7c4c2dfeb977efac326af552d87845ef1042eb8b77fffffffffffffffffffffffffffffffffffffffffffffffffffffffffffffffff7f000000000000000000000000945304eb96065b2a98b57a48a06ae28d285a71b57ffffffffffffffffffffffffffffffffffffffffffffffffffffffffffffffffe92357fffffffffffffffffffffffffffffffffffffffffffffffffffffffffffffffff597f00000000000000000000000000000000000000000000000000000000000000019385a39988160a205a93196d3364281ba0a7991d5d65cf926b9d2eba7f378df974cdb3f233d337cbcc0012d5e50bf106b8a014406d761b4d5c2881432bbf4e7d542bced2fdc79532bd6ebc4f652a57e40acac0",
                "transactions" : [
                    {
                        "data" : "0x7fffffffffffffffffffffffffffffffffffffffffffffffffffffffffffffffff7f000000000000000000000000945304eb96065b2a98b57a48a06ae28d285a71b57ffffffffffffffffffffffffffffffffffffffffffffffffffffffffffffffffe92357fffffffffffffffffffffffffffffffffffffffffffffffffffffffffffffffff597f00000000000000000000000000000000000000000000000000000000000000019385a39988160a205a93196d336428",
                        "gasLimit" : "0x0623e53b",
                        "gasPrice" : "0x01",
                        "nonce" : "0x00",
                        "r" : "0xa7991d5d65cf926b9d2eba7f378df974cdb3f233d337cbcc0012d5e50bf106b8",
                        "s" : "0x14406d761b4d5c2881432bbf4e7d542bced2fdc79532bd6ebc4f652a57e40aca",
                        "to" : "0x095e7baea6a6c7c4c2dfeb977efac326af552d87",
                        "v" : "0x1b",
                        "value" : "0x5ef1042e"
                    }
                ],
                "uncleHeaders" : [
                ]
            }
        ],
        "genesisBlockHeader" : {
            "bloom" : "0x00000000000000000000000000000000000000000000000000000000000000000000000000000000000000000000000000000000000000000000000000000000000000000000000000000000000000000000000000000000000000000000000000000000000000000000000000000000000000000000000000000000000000000000000000000000000000000000000000000000000000000000000000000000000000000000000000000000000000000000000000000000000000000000000000000000000000000000000000000000000000000000000000000000000000000000000000000000000000000000000000000000000000000000000000000000",
            "coinbase" : "0x945304eb96065b2a98b57a48a06ae28d285a71b5",
            "difficulty" : "0x020000",
            "extraData" : "0x42",
            "gasLimit" : "0x7fffffffffffffff",
            "gasUsed" : "0x00",
            "hash" : "0x3f03741238a94a0df8c4b3b9391505b5c1835d33311716139325c561f1757ce6",
            "mixHash" : "0x56e81f171bcc55a6ff8345e692c0f86e5b48e01b996cadc001622fb5e363b421",
            "nonce" : "0x0102030405060708",
            "number" : "0x00",
            "parentHash" : "0x0000000000000000000000000000000000000000000000000000000000000000",
            "receiptTrie" : "0x56e81f171bcc55a6ff8345e692c0f86e5b48e01b996cadc001622fb5e363b421",
            "stateRoot" : "0x141b2346c7a6d2916916655780c6dd1dcbca58ca4df0e1807b30ca343f43c75c",
            "timestamp" : "0x03b6",
            "transactionsTrie" : "0x56e81f171bcc55a6ff8345e692c0f86e5b48e01b996cadc001622fb5e363b421",
            "uncleHash" : "0x1dcc4de8dec75d7aab85b567b6ccd41ad312451b948a7413f0a142fd40d49347"
        },
        "genesisRLP" : "0xf901fff901faa00000000000000000000000000000000000000000000000000000000000000000a01dcc4de8dec75d7aab85b567b6ccd41ad312451b948a7413f0a142fd40d4934794945304eb96065b2a98b57a48a06ae28d285a71b5a0141b2346c7a6d2916916655780c6dd1dcbca58ca4df0e1807b30ca343f43c75ca056e81f171bcc55a6ff8345e692c0f86e5b48e01b996cadc001622fb5e363b421a056e81f171bcc55a6ff8345e692c0f86e5b48e01b996cadc001622fb5e363b421b90100000000000000000000000000000000000000000000000000000000000000000000000000000000000000000000000000000000000000000000000000000000000000000000000000000000000000000000000000000000000000000000000000000000000000000000000000000000000000000000000000000000000000000000000000000000000000000000000000000000000000000000000000000000000000000000000000000000000000000000000000000000000000000000000000000000000000000000000000000000000000000000000000000000000000000000000000000000000000000000000000000000000000000000000000000000008302000080887fffffffffffffff808203b642a056e81f171bcc55a6ff8345e692c0f86e5b48e01b996cadc001622fb5e363b421880102030405060708c0c0",
        "lastblockhash" : "0x19653a860dcd693f46d722e691334d5ced0edafd119ae9e9b817babcc86246ac",
        "network" : "EIP150",
        "postState" : {
            "0x095e7baea6a6c7c4c2dfeb977efac326af552d87" : {
                "balance" : "0x00",
                "code" : "0x7fffffffffffffffffffffffffffffffffffffffffffffffffffffffffffffffff7f000000000000000000000000945304eb96065b2a98b57a48a06ae28d285a71b57ffffffffffffffffffffffffffffffffffffffffffffffffffffffffffffffffe92357fffffffffffffffffffffffffffffffffffffffffffffffffffffffffffffffff597f00000000000000000000000000000000000000000000000000000000000000019385a39988160a205a93196d336428",
                "nonce" : "0x00",
                "storage" : {
                }
            },
            "0x945304eb96065b2a98b57a48a06ae28d285a71b5" : {
                "balance" : "0x456391824b17e569",
                "code" : "0x6000355415600957005b60203560003555",
                "nonce" : "0x00",
                "storage" : {
                }
            },
            "0xa94f5374fce5edbc8e2a8697c15331677e6ebf0b" : {
                "balance" : "0x0de0b6b3a1401ac5",
                "code" : "",
                "nonce" : "0x01",
                "storage" : {
                }
            }
        },
        "pre" : {
            "0x095e7baea6a6c7c4c2dfeb977efac326af552d87" : {
                "balance" : "0x00",
                "code" : "0x7fffffffffffffffffffffffffffffffffffffffffffffffffffffffffffffffff7f000000000000000000000000945304eb96065b2a98b57a48a06ae28d285a71b57ffffffffffffffffffffffffffffffffffffffffffffffffffffffffffffffffe92357fffffffffffffffffffffffffffffffffffffffffffffffffffffffffffffffff597f00000000000000000000000000000000000000000000000000000000000000019385a39988160a205a93196d336428",
                "nonce" : "0x00",
                "storage" : {
                }
            },
            "0x945304eb96065b2a98b57a48a06ae28d285a71b5" : {
                "balance" : "0x2e",
                "code" : "0x6000355415600957005b60203560003555",
                "nonce" : "0x00",
                "storage" : {
                }
            },
            "0xa94f5374fce5edbc8e2a8697c15331677e6ebf0b" : {
                "balance" : "0x0de0b6b3a7640000",
                "code" : "",
                "nonce" : "0x00",
                "storage" : {
                }
            }
        }
    },
    "randomStatetest103_d0g0v0_EIP158" : {
        "_info" : {
            "comment" : "",
            "filledwith" : "cpp-1.3.0+commit.6e0ce939.Linux.g++",
            "lllcversion" : "Version: 0.4.18-develop.2017.9.25+commit.a72237f2.Linux.g++",
            "source" : "src/BlockchainTestsFiller/GeneralStateTests/stRandom/randomStatetest103_d0g0v0Filler.json",
            "sourceHash" : "7abcec1abf12820576c87c442700ac968fb037e1d79bd3201a570b011399bf3f"
        },
        "blocks" : [
            {
                "blockHeader" : {
                    "bloom" : "0x00000000000000000000000000000000000000000000000000000000000000000000000000000000000000000000000000000000000000000000000000000000000000000000000000000000000000000000000000000000000000000000000000000000000000000000000000000000000000000000000000000000000000000000000000000000000000000000000000000000000000000000000000000000000000000000000000000000000000000000000000000000000000000000000000000000000000000000000000000000000000000000000000000000000000000000000000000000000000000000000000000000000000000000000000000000",
                    "coinbase" : "0x945304eb96065b2a98b57a48a06ae28d285a71b5",
                    "difficulty" : "0x020000",
                    "extraData" : "",
                    "gasLimit" : "0x7fffffffffffffff",
                    "gasUsed" : "0x0623e53b",
                    "hash" : "0xf4d55d67ca5b0dbf9108bb23c2b4004c300356212fd2870868bc6922b26eea3f",
                    "mixHash" : "0xa04c148135b5ec5c8532ab04961e2cc6976f5e4f36e8ce0741dfa4f0f2c60d26",
                    "nonce" : "0x30ebc40befbdb587",
                    "number" : "0x01",
                    "parentHash" : "0x3f03741238a94a0df8c4b3b9391505b5c1835d33311716139325c561f1757ce6",
                    "receiptTrie" : "0xd3da6234f111967dfd33a0075cb5678d1c80d04650d180cab4409273f73fa50f",
                    "stateRoot" : "0xa32abc3dd369643f5199133552b3e7ce60d4bac4833679635d74f5b9c97080e9",
                    "timestamp" : "0x03e8",
                    "transactionsTrie" : "0x93db1e2b03c84493a37b94d8a3bd57004fccff5258c4a6815bff6ac6c1629221",
                    "uncleHash" : "0x1dcc4de8dec75d7aab85b567b6ccd41ad312451b948a7413f0a142fd40d49347"
                },
                "rlp" : "0xf90325f901fea03f03741238a94a0df8c4b3b9391505b5c1835d33311716139325c561f1757ce6a01dcc4de8dec75d7aab85b567b6ccd41ad312451b948a7413f0a142fd40d4934794945304eb96065b2a98b57a48a06ae28d285a71b5a0a32abc3dd369643f5199133552b3e7ce60d4bac4833679635d74f5b9c97080e9a093db1e2b03c84493a37b94d8a3bd57004fccff5258c4a6815bff6ac6c1629221a0d3da6234f111967dfd33a0075cb5678d1c80d04650d180cab4409273f73fa50fb90100000000000000000000000000000000000000000000000000000000000000000000000000000000000000000000000000000000000000000000000000000000000000000000000000000000000000000000000000000000000000000000000000000000000000000000000000000000000000000000000000000000000000000000000000000000000000000000000000000000000000000000000000000000000000000000000000000000000000000000000000000000000000000000000000000000000000000000000000000000000000000000000000000000000000000000000000000000000000000000000000000000000000000000000000000000008302000001887fffffffffffffff840623e53b8203e880a0a04c148135b5ec5c8532ab04961e2cc6976f5e4f36e8ce0741dfa4f0f2c60d268830ebc40befbdb587f90120f9011d8001840623e53b94095e7baea6a6c7c4c2dfeb977efac326af552d87845ef1042eb8b77fffffffffffffffffffffffffffffffffffffffffffffffffffffffffffffffff7f000000000000000000000000945304eb96065b2a98b57a48a06ae28d285a71b57ffffffffffffffffffffffffffffffffffffffffffffffffffffffffffffffffe92357fffffffffffffffffffffffffffffffffffffffffffffffffffffffffffffffff597f00000000000000000000000000000000000000000000000000000000000000019385a39988160a205a93196d3364281ba0a7991d5d65cf926b9d2eba7f378df974cdb3f233d337cbcc0012d5e50bf106b8a014406d761b4d5c2881432bbf4e7d542bced2fdc79532bd6ebc4f652a57e40acac0",
                "transactions" : [
                    {
                        "data" : "0x7fffffffffffffffffffffffffffffffffffffffffffffffffffffffffffffffff7f000000000000000000000000945304eb96065b2a98b57a48a06ae28d285a71b57ffffffffffffffffffffffffffffffffffffffffffffffffffffffffffffffffe92357fffffffffffffffffffffffffffffffffffffffffffffffffffffffffffffffff597f00000000000000000000000000000000000000000000000000000000000000019385a39988160a205a93196d336428",
                        "gasLimit" : "0x0623e53b",
                        "gasPrice" : "0x01",
                        "nonce" : "0x00",
                        "r" : "0xa7991d5d65cf926b9d2eba7f378df974cdb3f233d337cbcc0012d5e50bf106b8",
                        "s" : "0x14406d761b4d5c2881432bbf4e7d542bced2fdc79532bd6ebc4f652a57e40aca",
                        "to" : "0x095e7baea6a6c7c4c2dfeb977efac326af552d87",
                        "v" : "0x1b",
                        "value" : "0x5ef1042e"
                    }
                ],
                "uncleHeaders" : [
                ]
            }
        ],
        "genesisBlockHeader" : {
            "bloom" : "0x00000000000000000000000000000000000000000000000000000000000000000000000000000000000000000000000000000000000000000000000000000000000000000000000000000000000000000000000000000000000000000000000000000000000000000000000000000000000000000000000000000000000000000000000000000000000000000000000000000000000000000000000000000000000000000000000000000000000000000000000000000000000000000000000000000000000000000000000000000000000000000000000000000000000000000000000000000000000000000000000000000000000000000000000000000000",
            "coinbase" : "0x945304eb96065b2a98b57a48a06ae28d285a71b5",
            "difficulty" : "0x020000",
            "extraData" : "0x42",
            "gasLimit" : "0x7fffffffffffffff",
            "gasUsed" : "0x00",
            "hash" : "0x3f03741238a94a0df8c4b3b9391505b5c1835d33311716139325c561f1757ce6",
            "mixHash" : "0x56e81f171bcc55a6ff8345e692c0f86e5b48e01b996cadc001622fb5e363b421",
            "nonce" : "0x0102030405060708",
            "number" : "0x00",
            "parentHash" : "0x0000000000000000000000000000000000000000000000000000000000000000",
            "receiptTrie" : "0x56e81f171bcc55a6ff8345e692c0f86e5b48e01b996cadc001622fb5e363b421",
            "stateRoot" : "0x141b2346c7a6d2916916655780c6dd1dcbca58ca4df0e1807b30ca343f43c75c",
            "timestamp" : "0x03b6",
            "transactionsTrie" : "0x56e81f171bcc55a6ff8345e692c0f86e5b48e01b996cadc001622fb5e363b421",
            "uncleHash" : "0x1dcc4de8dec75d7aab85b567b6ccd41ad312451b948a7413f0a142fd40d49347"
        },
        "genesisRLP" : "0xf901fff901faa00000000000000000000000000000000000000000000000000000000000000000a01dcc4de8dec75d7aab85b567b6ccd41ad312451b948a7413f0a142fd40d4934794945304eb96065b2a98b57a48a06ae28d285a71b5a0141b2346c7a6d2916916655780c6dd1dcbca58ca4df0e1807b30ca343f43c75ca056e81f171bcc55a6ff8345e692c0f86e5b48e01b996cadc001622fb5e363b421a056e81f171bcc55a6ff8345e692c0f86e5b48e01b996cadc001622fb5e363b421b90100000000000000000000000000000000000000000000000000000000000000000000000000000000000000000000000000000000000000000000000000000000000000000000000000000000000000000000000000000000000000000000000000000000000000000000000000000000000000000000000000000000000000000000000000000000000000000000000000000000000000000000000000000000000000000000000000000000000000000000000000000000000000000000000000000000000000000000000000000000000000000000000000000000000000000000000000000000000000000000000000000000000000000000000000000000008302000080887fffffffffffffff808203b642a056e81f171bcc55a6ff8345e692c0f86e5b48e01b996cadc001622fb5e363b421880102030405060708c0c0",
        "lastblockhash" : "0xf4d55d67ca5b0dbf9108bb23c2b4004c300356212fd2870868bc6922b26eea3f",
        "network" : "EIP158",
        "postState" : {
            "0x095e7baea6a6c7c4c2dfeb977efac326af552d87" : {
                "balance" : "0x00",
                "code" : "0x7fffffffffffffffffffffffffffffffffffffffffffffffffffffffffffffffff7f000000000000000000000000945304eb96065b2a98b57a48a06ae28d285a71b57ffffffffffffffffffffffffffffffffffffffffffffffffffffffffffffffffe92357fffffffffffffffffffffffffffffffffffffffffffffffffffffffffffffffff597f00000000000000000000000000000000000000000000000000000000000000019385a39988160a205a93196d336428",
                "nonce" : "0x00",
                "storage" : {
                }
            },
            "0x945304eb96065b2a98b57a48a06ae28d285a71b5" : {
                "balance" : "0x456391824b17e569",
                "code" : "0x6000355415600957005b60203560003555",
                "nonce" : "0x00",
                "storage" : {
                }
            },
            "0xa94f5374fce5edbc8e2a8697c15331677e6ebf0b" : {
                "balance" : "0x0de0b6b3a1401ac5",
                "code" : "",
                "nonce" : "0x01",
                "storage" : {
                }
            }
        },
        "pre" : {
            "0x095e7baea6a6c7c4c2dfeb977efac326af552d87" : {
                "balance" : "0x00",
                "code" : "0x7fffffffffffffffffffffffffffffffffffffffffffffffffffffffffffffffff7f000000000000000000000000945304eb96065b2a98b57a48a06ae28d285a71b57ffffffffffffffffffffffffffffffffffffffffffffffffffffffffffffffffe92357fffffffffffffffffffffffffffffffffffffffffffffffffffffffffffffffff597f00000000000000000000000000000000000000000000000000000000000000019385a39988160a205a93196d336428",
                "nonce" : "0x00",
                "storage" : {
                }
            },
            "0x945304eb96065b2a98b57a48a06ae28d285a71b5" : {
                "balance" : "0x2e",
                "code" : "0x6000355415600957005b60203560003555",
                "nonce" : "0x00",
                "storage" : {
                }
            },
            "0xa94f5374fce5edbc8e2a8697c15331677e6ebf0b" : {
                "balance" : "0x0de0b6b3a7640000",
                "code" : "",
                "nonce" : "0x00",
                "storage" : {
                }
            }
        }
    },
    "randomStatetest103_d0g0v0_Frontier" : {
        "_info" : {
            "comment" : "",
            "filledwith" : "cpp-1.3.0+commit.6e0ce939.Linux.g++",
            "lllcversion" : "Version: 0.4.18-develop.2017.9.25+commit.a72237f2.Linux.g++",
            "source" : "src/BlockchainTestsFiller/GeneralStateTests/stRandom/randomStatetest103_d0g0v0Filler.json",
            "sourceHash" : "7abcec1abf12820576c87c442700ac968fb037e1d79bd3201a570b011399bf3f"
        },
        "blocks" : [
            {
                "blockHeader" : {
                    "bloom" : "0x00000000000000000000000000000000000000000000000000000000000000000000000000000000000000000000000000000000000000000000000000000000000000000000000000000000000000000000000000000000000000000000000000000000000000000000000000000000000000000000000000000000000000000000000000000000000000000000000000000000000000000000000000000000000000000000000000000000000000000000000000000000000000000000000000000000000000000000000000000000000000000000000000000000000000000000000000000000000000000000000000000000000000000000000000000000",
                    "coinbase" : "0x945304eb96065b2a98b57a48a06ae28d285a71b5",
                    "difficulty" : "0x020000",
                    "extraData" : "",
                    "gasLimit" : "0x7fffffffffffffff",
                    "gasUsed" : "0x0623e53b",
                    "hash" : "0xafc722f7ad7792b77a738e6889d91b9e15f1bbf5f241107d6c434e92991beece",
                    "mixHash" : "0x66cb87ac85e3e577f9b3c7cae71946a69e11b5c0e64666e31ac253d767eab4b1",
                    "nonce" : "0x3131ea8ff96e1bea",
                    "number" : "0x01",
                    "parentHash" : "0x3f03741238a94a0df8c4b3b9391505b5c1835d33311716139325c561f1757ce6",
                    "receiptTrie" : "0xd3da6234f111967dfd33a0075cb5678d1c80d04650d180cab4409273f73fa50f",
                    "stateRoot" : "0xa32abc3dd369643f5199133552b3e7ce60d4bac4833679635d74f5b9c97080e9",
                    "timestamp" : "0x03e8",
                    "transactionsTrie" : "0x93db1e2b03c84493a37b94d8a3bd57004fccff5258c4a6815bff6ac6c1629221",
                    "uncleHash" : "0x1dcc4de8dec75d7aab85b567b6ccd41ad312451b948a7413f0a142fd40d49347"
                },
                "rlp" : "0xf90325f901fea03f03741238a94a0df8c4b3b9391505b5c1835d33311716139325c561f1757ce6a01dcc4de8dec75d7aab85b567b6ccd41ad312451b948a7413f0a142fd40d4934794945304eb96065b2a98b57a48a06ae28d285a71b5a0a32abc3dd369643f5199133552b3e7ce60d4bac4833679635d74f5b9c97080e9a093db1e2b03c84493a37b94d8a3bd57004fccff5258c4a6815bff6ac6c1629221a0d3da6234f111967dfd33a0075cb5678d1c80d04650d180cab4409273f73fa50fb90100000000000000000000000000000000000000000000000000000000000000000000000000000000000000000000000000000000000000000000000000000000000000000000000000000000000000000000000000000000000000000000000000000000000000000000000000000000000000000000000000000000000000000000000000000000000000000000000000000000000000000000000000000000000000000000000000000000000000000000000000000000000000000000000000000000000000000000000000000000000000000000000000000000000000000000000000000000000000000000000000000000000000000000000000000000008302000001887fffffffffffffff840623e53b8203e880a066cb87ac85e3e577f9b3c7cae71946a69e11b5c0e64666e31ac253d767eab4b1883131ea8ff96e1beaf90120f9011d8001840623e53b94095e7baea6a6c7c4c2dfeb977efac326af552d87845ef1042eb8b77fffffffffffffffffffffffffffffffffffffffffffffffffffffffffffffffff7f000000000000000000000000945304eb96065b2a98b57a48a06ae28d285a71b57ffffffffffffffffffffffffffffffffffffffffffffffffffffffffffffffffe92357fffffffffffffffffffffffffffffffffffffffffffffffffffffffffffffffff597f00000000000000000000000000000000000000000000000000000000000000019385a39988160a205a93196d3364281ba0a7991d5d65cf926b9d2eba7f378df974cdb3f233d337cbcc0012d5e50bf106b8a014406d761b4d5c2881432bbf4e7d542bced2fdc79532bd6ebc4f652a57e40acac0",
                "transactions" : [
                    {
                        "data" : "0x7fffffffffffffffffffffffffffffffffffffffffffffffffffffffffffffffff7f000000000000000000000000945304eb96065b2a98b57a48a06ae28d285a71b57ffffffffffffffffffffffffffffffffffffffffffffffffffffffffffffffffe92357fffffffffffffffffffffffffffffffffffffffffffffffffffffffffffffffff597f00000000000000000000000000000000000000000000000000000000000000019385a39988160a205a93196d336428",
                        "gasLimit" : "0x0623e53b",
                        "gasPrice" : "0x01",
                        "nonce" : "0x00",
                        "r" : "0xa7991d5d65cf926b9d2eba7f378df974cdb3f233d337cbcc0012d5e50bf106b8",
                        "s" : "0x14406d761b4d5c2881432bbf4e7d542bced2fdc79532bd6ebc4f652a57e40aca",
                        "to" : "0x095e7baea6a6c7c4c2dfeb977efac326af552d87",
                        "v" : "0x1b",
                        "value" : "0x5ef1042e"
                    }
                ],
                "uncleHeaders" : [
                ]
            }
        ],
        "genesisBlockHeader" : {
            "bloom" : "0x00000000000000000000000000000000000000000000000000000000000000000000000000000000000000000000000000000000000000000000000000000000000000000000000000000000000000000000000000000000000000000000000000000000000000000000000000000000000000000000000000000000000000000000000000000000000000000000000000000000000000000000000000000000000000000000000000000000000000000000000000000000000000000000000000000000000000000000000000000000000000000000000000000000000000000000000000000000000000000000000000000000000000000000000000000000",
            "coinbase" : "0x945304eb96065b2a98b57a48a06ae28d285a71b5",
            "difficulty" : "0x020000",
            "extraData" : "0x42",
            "gasLimit" : "0x7fffffffffffffff",
            "gasUsed" : "0x00",
            "hash" : "0x3f03741238a94a0df8c4b3b9391505b5c1835d33311716139325c561f1757ce6",
            "mixHash" : "0x56e81f171bcc55a6ff8345e692c0f86e5b48e01b996cadc001622fb5e363b421",
            "nonce" : "0x0102030405060708",
            "number" : "0x00",
            "parentHash" : "0x0000000000000000000000000000000000000000000000000000000000000000",
            "receiptTrie" : "0x56e81f171bcc55a6ff8345e692c0f86e5b48e01b996cadc001622fb5e363b421",
            "stateRoot" : "0x141b2346c7a6d2916916655780c6dd1dcbca58ca4df0e1807b30ca343f43c75c",
            "timestamp" : "0x03b6",
            "transactionsTrie" : "0x56e81f171bcc55a6ff8345e692c0f86e5b48e01b996cadc001622fb5e363b421",
            "uncleHash" : "0x1dcc4de8dec75d7aab85b567b6ccd41ad312451b948a7413f0a142fd40d49347"
        },
        "genesisRLP" : "0xf901fff901faa00000000000000000000000000000000000000000000000000000000000000000a01dcc4de8dec75d7aab85b567b6ccd41ad312451b948a7413f0a142fd40d4934794945304eb96065b2a98b57a48a06ae28d285a71b5a0141b2346c7a6d2916916655780c6dd1dcbca58ca4df0e1807b30ca343f43c75ca056e81f171bcc55a6ff8345e692c0f86e5b48e01b996cadc001622fb5e363b421a056e81f171bcc55a6ff8345e692c0f86e5b48e01b996cadc001622fb5e363b421b90100000000000000000000000000000000000000000000000000000000000000000000000000000000000000000000000000000000000000000000000000000000000000000000000000000000000000000000000000000000000000000000000000000000000000000000000000000000000000000000000000000000000000000000000000000000000000000000000000000000000000000000000000000000000000000000000000000000000000000000000000000000000000000000000000000000000000000000000000000000000000000000000000000000000000000000000000000000000000000000000000000000000000000000000000000000008302000080887fffffffffffffff808203b642a056e81f171bcc55a6ff8345e692c0f86e5b48e01b996cadc001622fb5e363b421880102030405060708c0c0",
        "lastblockhash" : "0xafc722f7ad7792b77a738e6889d91b9e15f1bbf5f241107d6c434e92991beece",
        "network" : "Frontier",
        "postState" : {
            "0x095e7baea6a6c7c4c2dfeb977efac326af552d87" : {
                "balance" : "0x00",
                "code" : "0x7fffffffffffffffffffffffffffffffffffffffffffffffffffffffffffffffff7f000000000000000000000000945304eb96065b2a98b57a48a06ae28d285a71b57ffffffffffffffffffffffffffffffffffffffffffffffffffffffffffffffffe92357fffffffffffffffffffffffffffffffffffffffffffffffffffffffffffffffff597f00000000000000000000000000000000000000000000000000000000000000019385a39988160a205a93196d336428",
                "nonce" : "0x00",
                "storage" : {
                }
            },
            "0x945304eb96065b2a98b57a48a06ae28d285a71b5" : {
                "balance" : "0x456391824b17e569",
                "code" : "0x6000355415600957005b60203560003555",
                "nonce" : "0x00",
                "storage" : {
                }
            },
            "0xa94f5374fce5edbc8e2a8697c15331677e6ebf0b" : {
                "balance" : "0x0de0b6b3a1401ac5",
                "code" : "",
                "nonce" : "0x01",
                "storage" : {
                }
            }
        },
        "pre" : {
            "0x095e7baea6a6c7c4c2dfeb977efac326af552d87" : {
                "balance" : "0x00",
                "code" : "0x7fffffffffffffffffffffffffffffffffffffffffffffffffffffffffffffffff7f000000000000000000000000945304eb96065b2a98b57a48a06ae28d285a71b57ffffffffffffffffffffffffffffffffffffffffffffffffffffffffffffffffe92357fffffffffffffffffffffffffffffffffffffffffffffffffffffffffffffffff597f00000000000000000000000000000000000000000000000000000000000000019385a39988160a205a93196d336428",
                "nonce" : "0x00",
                "storage" : {
                }
            },
            "0x945304eb96065b2a98b57a48a06ae28d285a71b5" : {
                "balance" : "0x2e",
                "code" : "0x6000355415600957005b60203560003555",
                "nonce" : "0x00",
                "storage" : {
                }
            },
            "0xa94f5374fce5edbc8e2a8697c15331677e6ebf0b" : {
                "balance" : "0x0de0b6b3a7640000",
                "code" : "",
                "nonce" : "0x00",
                "storage" : {
                }
            }
        }
    },
    "randomStatetest103_d0g0v0_Homestead" : {
        "_info" : {
            "comment" : "",
            "filledwith" : "cpp-1.3.0+commit.6e0ce939.Linux.g++",
            "lllcversion" : "Version: 0.4.18-develop.2017.9.25+commit.a72237f2.Linux.g++",
            "source" : "src/BlockchainTestsFiller/GeneralStateTests/stRandom/randomStatetest103_d0g0v0Filler.json",
            "sourceHash" : "7abcec1abf12820576c87c442700ac968fb037e1d79bd3201a570b011399bf3f"
        },
        "blocks" : [
            {
                "blockHeader" : {
                    "bloom" : "0x00000000000000000000000000000000000000000000000000000000000000000000000000000000000000000000000000000000000000000000000000000000000000000000000000000000000000000000000000000000000000000000000000000000000000000000000000000000000000000000000000000000000000000000000000000000000000000000000000000000000000000000000000000000000000000000000000000000000000000000000000000000000000000000000000000000000000000000000000000000000000000000000000000000000000000000000000000000000000000000000000000000000000000000000000000000",
                    "coinbase" : "0x945304eb96065b2a98b57a48a06ae28d285a71b5",
                    "difficulty" : "0x020000",
                    "extraData" : "",
                    "gasLimit" : "0x7fffffffffffffff",
                    "gasUsed" : "0x0623e53b",
                    "hash" : "0x6302c3e666d40a323f25001e02a5a5d9da6044c8990248bf5d3170c74c1ec27a",
                    "mixHash" : "0x92dc4e73822886cc02a3418e2750d685da7fa36c752ecee9e596e172f36df0ad",
                    "nonce" : "0x7cdbe571ad9c21bc",
                    "number" : "0x01",
                    "parentHash" : "0x3f03741238a94a0df8c4b3b9391505b5c1835d33311716139325c561f1757ce6",
                    "receiptTrie" : "0xd3da6234f111967dfd33a0075cb5678d1c80d04650d180cab4409273f73fa50f",
                    "stateRoot" : "0xa32abc3dd369643f5199133552b3e7ce60d4bac4833679635d74f5b9c97080e9",
                    "timestamp" : "0x03e8",
                    "transactionsTrie" : "0x93db1e2b03c84493a37b94d8a3bd57004fccff5258c4a6815bff6ac6c1629221",
                    "uncleHash" : "0x1dcc4de8dec75d7aab85b567b6ccd41ad312451b948a7413f0a142fd40d49347"
                },
                "rlp" : "0xf90325f901fea03f03741238a94a0df8c4b3b9391505b5c1835d33311716139325c561f1757ce6a01dcc4de8dec75d7aab85b567b6ccd41ad312451b948a7413f0a142fd40d4934794945304eb96065b2a98b57a48a06ae28d285a71b5a0a32abc3dd369643f5199133552b3e7ce60d4bac4833679635d74f5b9c97080e9a093db1e2b03c84493a37b94d8a3bd57004fccff5258c4a6815bff6ac6c1629221a0d3da6234f111967dfd33a0075cb5678d1c80d04650d180cab4409273f73fa50fb90100000000000000000000000000000000000000000000000000000000000000000000000000000000000000000000000000000000000000000000000000000000000000000000000000000000000000000000000000000000000000000000000000000000000000000000000000000000000000000000000000000000000000000000000000000000000000000000000000000000000000000000000000000000000000000000000000000000000000000000000000000000000000000000000000000000000000000000000000000000000000000000000000000000000000000000000000000000000000000000000000000000000000000000000000000000008302000001887fffffffffffffff840623e53b8203e880a092dc4e73822886cc02a3418e2750d685da7fa36c752ecee9e596e172f36df0ad887cdbe571ad9c21bcf90120f9011d8001840623e53b94095e7baea6a6c7c4c2dfeb977efac326af552d87845ef1042eb8b77fffffffffffffffffffffffffffffffffffffffffffffffffffffffffffffffff7f000000000000000000000000945304eb96065b2a98b57a48a06ae28d285a71b57ffffffffffffffffffffffffffffffffffffffffffffffffffffffffffffffffe92357fffffffffffffffffffffffffffffffffffffffffffffffffffffffffffffffff597f00000000000000000000000000000000000000000000000000000000000000019385a39988160a205a93196d3364281ba0a7991d5d65cf926b9d2eba7f378df974cdb3f233d337cbcc0012d5e50bf106b8a014406d761b4d5c2881432bbf4e7d542bced2fdc79532bd6ebc4f652a57e40acac0",
                "transactions" : [
                    {
                        "data" : "0x7fffffffffffffffffffffffffffffffffffffffffffffffffffffffffffffffff7f000000000000000000000000945304eb96065b2a98b57a48a06ae28d285a71b57ffffffffffffffffffffffffffffffffffffffffffffffffffffffffffffffffe92357fffffffffffffffffffffffffffffffffffffffffffffffffffffffffffffffff597f00000000000000000000000000000000000000000000000000000000000000019385a39988160a205a93196d336428",
                        "gasLimit" : "0x0623e53b",
                        "gasPrice" : "0x01",
                        "nonce" : "0x00",
                        "r" : "0xa7991d5d65cf926b9d2eba7f378df974cdb3f233d337cbcc0012d5e50bf106b8",
                        "s" : "0x14406d761b4d5c2881432bbf4e7d542bced2fdc79532bd6ebc4f652a57e40aca",
                        "to" : "0x095e7baea6a6c7c4c2dfeb977efac326af552d87",
                        "v" : "0x1b",
                        "value" : "0x5ef1042e"
                    }
                ],
                "uncleHeaders" : [
                ]
            }
        ],
        "genesisBlockHeader" : {
            "bloom" : "0x00000000000000000000000000000000000000000000000000000000000000000000000000000000000000000000000000000000000000000000000000000000000000000000000000000000000000000000000000000000000000000000000000000000000000000000000000000000000000000000000000000000000000000000000000000000000000000000000000000000000000000000000000000000000000000000000000000000000000000000000000000000000000000000000000000000000000000000000000000000000000000000000000000000000000000000000000000000000000000000000000000000000000000000000000000000",
            "coinbase" : "0x945304eb96065b2a98b57a48a06ae28d285a71b5",
            "difficulty" : "0x020000",
            "extraData" : "0x42",
            "gasLimit" : "0x7fffffffffffffff",
            "gasUsed" : "0x00",
            "hash" : "0x3f03741238a94a0df8c4b3b9391505b5c1835d33311716139325c561f1757ce6",
            "mixHash" : "0x56e81f171bcc55a6ff8345e692c0f86e5b48e01b996cadc001622fb5e363b421",
            "nonce" : "0x0102030405060708",
            "number" : "0x00",
            "parentHash" : "0x0000000000000000000000000000000000000000000000000000000000000000",
            "receiptTrie" : "0x56e81f171bcc55a6ff8345e692c0f86e5b48e01b996cadc001622fb5e363b421",
            "stateRoot" : "0x141b2346c7a6d2916916655780c6dd1dcbca58ca4df0e1807b30ca343f43c75c",
            "timestamp" : "0x03b6",
            "transactionsTrie" : "0x56e81f171bcc55a6ff8345e692c0f86e5b48e01b996cadc001622fb5e363b421",
            "uncleHash" : "0x1dcc4de8dec75d7aab85b567b6ccd41ad312451b948a7413f0a142fd40d49347"
        },
        "genesisRLP" : "0xf901fff901faa00000000000000000000000000000000000000000000000000000000000000000a01dcc4de8dec75d7aab85b567b6ccd41ad312451b948a7413f0a142fd40d4934794945304eb96065b2a98b57a48a06ae28d285a71b5a0141b2346c7a6d2916916655780c6dd1dcbca58ca4df0e1807b30ca343f43c75ca056e81f171bcc55a6ff8345e692c0f86e5b48e01b996cadc001622fb5e363b421a056e81f171bcc55a6ff8345e692c0f86e5b48e01b996cadc001622fb5e363b421b90100000000000000000000000000000000000000000000000000000000000000000000000000000000000000000000000000000000000000000000000000000000000000000000000000000000000000000000000000000000000000000000000000000000000000000000000000000000000000000000000000000000000000000000000000000000000000000000000000000000000000000000000000000000000000000000000000000000000000000000000000000000000000000000000000000000000000000000000000000000000000000000000000000000000000000000000000000000000000000000000000000000000000000000000000000000008302000080887fffffffffffffff808203b642a056e81f171bcc55a6ff8345e692c0f86e5b48e01b996cadc001622fb5e363b421880102030405060708c0c0",
        "lastblockhash" : "0x6302c3e666d40a323f25001e02a5a5d9da6044c8990248bf5d3170c74c1ec27a",
        "network" : "Homestead",
        "postState" : {
            "0x095e7baea6a6c7c4c2dfeb977efac326af552d87" : {
                "balance" : "0x00",
                "code" : "0x7fffffffffffffffffffffffffffffffffffffffffffffffffffffffffffffffff7f000000000000000000000000945304eb96065b2a98b57a48a06ae28d285a71b57ffffffffffffffffffffffffffffffffffffffffffffffffffffffffffffffffe92357fffffffffffffffffffffffffffffffffffffffffffffffffffffffffffffffff597f00000000000000000000000000000000000000000000000000000000000000019385a39988160a205a93196d336428",
                "nonce" : "0x00",
                "storage" : {
                }
            },
            "0x945304eb96065b2a98b57a48a06ae28d285a71b5" : {
                "balance" : "0x456391824b17e569",
                "code" : "0x6000355415600957005b60203560003555",
                "nonce" : "0x00",
                "storage" : {
                }
            },
            "0xa94f5374fce5edbc8e2a8697c15331677e6ebf0b" : {
                "balance" : "0x0de0b6b3a1401ac5",
                "code" : "",
                "nonce" : "0x01",
                "storage" : {
                }
            }
        },
        "pre" : {
            "0x095e7baea6a6c7c4c2dfeb977efac326af552d87" : {
                "balance" : "0x00",
                "code" : "0x7fffffffffffffffffffffffffffffffffffffffffffffffffffffffffffffffff7f000000000000000000000000945304eb96065b2a98b57a48a06ae28d285a71b57ffffffffffffffffffffffffffffffffffffffffffffffffffffffffffffffffe92357fffffffffffffffffffffffffffffffffffffffffffffffffffffffffffffffff597f00000000000000000000000000000000000000000000000000000000000000019385a39988160a205a93196d336428",
                "nonce" : "0x00",
                "storage" : {
                }
            },
            "0x945304eb96065b2a98b57a48a06ae28d285a71b5" : {
                "balance" : "0x2e",
                "code" : "0x6000355415600957005b60203560003555",
                "nonce" : "0x00",
                "storage" : {
                }
            },
            "0xa94f5374fce5edbc8e2a8697c15331677e6ebf0b" : {
                "balance" : "0x0de0b6b3a7640000",
                "code" : "",
                "nonce" : "0x00",
                "storage" : {
                }
            }
        }
    }
}