{
    "randomStatetest480_d0g0v0_EIP150" : {
        "_info" : {
            "comment" : "",
            "filledwith" : "cpp-1.3.0+commit.16292201.Linux.g++",
            "source" : "/src/GenStateTestAsBcTemp/stRandom/randomStatetest480_d0g0v0Filler.json"
        },
        "blocks" : [
            {
                "blockHeader" : {
                    "bloom" : "0x00000000000000000000000000000000000000000000000000000000000000000000000000000000000000000000000000000000000000000000000000000000000000000000000000000000000000000000000000000000000000000000000000000000000000000000000000000000000000000000000000000000000000000000000000000000000000000000000000000000000000000000000000000000000000000000000000000000000000000000000000000000000000000000000000000000000000000000000000000000000000000000000000000000000000000000000000000000000000000000000000000000000000000000000000000000",
                    "coinbase" : "0x945304eb96065b2a98b57a48a06ae28d285a71b5",
                    "difficulty" : "0x020000",
                    "extraData" : "",
                    "gasLimit" : "0x7fffffffffffffff",
                    "gasUsed" : "0xc5e4",
                    "hash" : "0x19c6f1465f034914ded59ef4f96486a31317aa9c8c3bc641dbcd7673904abc5b",
                    "mixHash" : "0x1c234ad70e6d318d833f241244c841694822d19b6d19e13a26d6e8510171c2b5",
                    "nonce" : "0x896e2f36942eb68a",
                    "number" : "0x01",
                    "parentHash" : "0xe682b96ca10a033441e090f14269aa81e753a0a35127811d883b724e79ad5b0d",
                    "receiptTrie" : "0x7b0d461da0e02a3b6a155bbb25959c2b8ec3b854d972be4c3f1d155a7ff5a446",
                    "stateRoot" : "0xed84628e8469cac96d97c4fc986afd0b8786512d13b01cb924788d6c7aa913bb",
                    "timestamp" : "0x03e8",
                    "transactionsTrie" : "0x6da51f94d71d89b288ae11133636d8f97acc968f28a89d65f34019028ebf0cf4",
                    "uncleHash" : "0x1dcc4de8dec75d7aab85b567b6ccd41ad312451b948a7413f0a142fd40d49347"
                },
                "rlp" : "0xf90323f901fca0e682b96ca10a033441e090f14269aa81e753a0a35127811d883b724e79ad5b0da01dcc4de8dec75d7aab85b567b6ccd41ad312451b948a7413f0a142fd40d4934794945304eb96065b2a98b57a48a06ae28d285a71b5a0ed84628e8469cac96d97c4fc986afd0b8786512d13b01cb924788d6c7aa913bba06da51f94d71d89b288ae11133636d8f97acc968f28a89d65f34019028ebf0cf4a07b0d461da0e02a3b6a155bbb25959c2b8ec3b854d972be4c3f1d155a7ff5a446b90100000000000000000000000000000000000000000000000000000000000000000000000000000000000000000000000000000000000000000000000000000000000000000000000000000000000000000000000000000000000000000000000000000000000000000000000000000000000000000000000000000000000000000000000000000000000000000000000000000000000000000000000000000000000000000000000000000000000000000000000000000000000000000000000000000000000000000000000000000000000000000000000000000000000000000000000000000000000000000000000000000000000000000000000000000000008302000001887fffffffffffffff82c5e48203e880a01c234ad70e6d318d833f241244c841694822d19b6d19e13a26d6e8510171c2b588896e2f36942eb68af90120f9011d8001847db624ae94095e7baea6a6c7c4c2dfeb977efac326af552d87842c6942fbb8b77ffffffffffffffffffffffffffffffffffffffffffffffffffffffffffffffffe7fffffffffffffffffffffffffffffffffffffffffffffffffffffffffffffffff7f000000000000000000000000ffffffffffffffffffffffffffffffffffffffff037f0000000000000000000000000000000000000000000000000000000000000000427ffffffffffffffffffffffffffffffffffffffffffffffffffffffffffffffffe6f5af3a474ff64f3a37d51f36a6a607f1ca022fea59a2ce339b747346f16bf48cffdaca81b3a20d31d7aa7de716223c9c92da00656f7fe30e786cab6154dc38c7a41be4761a316a055a11c9a7db32c57595e37c0",
                "transactions" : [
                    {
                        "data" : "0x7ffffffffffffffffffffffffffffffffffffffffffffffffffffffffffffffffe7fffffffffffffffffffffffffffffffffffffffffffffffffffffffffffffffff7f000000000000000000000000ffffffffffffffffffffffffffffffffffffffff037f0000000000000000000000000000000000000000000000000000000000000000427ffffffffffffffffffffffffffffffffffffffffffffffffffffffffffffffffe6f5af3a474ff64f3a37d51f36a6a607f",
                        "gasLimit" : "0x7db624ae",
                        "gasPrice" : "0x01",
                        "nonce" : "0x00",
                        "r" : "0x22fea59a2ce339b747346f16bf48cffdaca81b3a20d31d7aa7de716223c9c92d",
                        "s" : "0x0656f7fe30e786cab6154dc38c7a41be4761a316a055a11c9a7db32c57595e37",
                        "to" : "0x095e7baea6a6c7c4c2dfeb977efac326af552d87",
                        "v" : "0x1c",
                        "value" : "0x2c6942fb"
                    }
                ],
                "uncleHeaders" : [
                ]
            }
        ],
        "genesisBlockHeader" : {
            "bloom" : "0x00000000000000000000000000000000000000000000000000000000000000000000000000000000000000000000000000000000000000000000000000000000000000000000000000000000000000000000000000000000000000000000000000000000000000000000000000000000000000000000000000000000000000000000000000000000000000000000000000000000000000000000000000000000000000000000000000000000000000000000000000000000000000000000000000000000000000000000000000000000000000000000000000000000000000000000000000000000000000000000000000000000000000000000000000000000",
            "coinbase" : "0x945304eb96065b2a98b57a48a06ae28d285a71b5",
            "difficulty" : "0x020000",
            "extraData" : "0x42",
            "gasLimit" : "0x7fffffffffffffff",
            "gasUsed" : "0x00",
            "hash" : "0xe682b96ca10a033441e090f14269aa81e753a0a35127811d883b724e79ad5b0d",
            "mixHash" : "0x56e81f171bcc55a6ff8345e692c0f86e5b48e01b996cadc001622fb5e363b421",
            "nonce" : "0x0102030405060708",
            "number" : "0x00",
            "parentHash" : "0x0000000000000000000000000000000000000000000000000000000000000000",
            "receiptTrie" : "0x56e81f171bcc55a6ff8345e692c0f86e5b48e01b996cadc001622fb5e363b421",
            "stateRoot" : "0x6548470f845b64f1c07bf1bfa6e78b1edd05d585ae582ffec06cd0ecd39a3e19",
            "timestamp" : "0x03b6",
            "transactionsTrie" : "0x56e81f171bcc55a6ff8345e692c0f86e5b48e01b996cadc001622fb5e363b421",
            "uncleHash" : "0x1dcc4de8dec75d7aab85b567b6ccd41ad312451b948a7413f0a142fd40d49347"
        },
        "genesisRLP" : "0xf901fff901faa00000000000000000000000000000000000000000000000000000000000000000a01dcc4de8dec75d7aab85b567b6ccd41ad312451b948a7413f0a142fd40d4934794945304eb96065b2a98b57a48a06ae28d285a71b5a06548470f845b64f1c07bf1bfa6e78b1edd05d585ae582ffec06cd0ecd39a3e19a056e81f171bcc55a6ff8345e692c0f86e5b48e01b996cadc001622fb5e363b421a056e81f171bcc55a6ff8345e692c0f86e5b48e01b996cadc001622fb5e363b421b90100000000000000000000000000000000000000000000000000000000000000000000000000000000000000000000000000000000000000000000000000000000000000000000000000000000000000000000000000000000000000000000000000000000000000000000000000000000000000000000000000000000000000000000000000000000000000000000000000000000000000000000000000000000000000000000000000000000000000000000000000000000000000000000000000000000000000000000000000000000000000000000000000000000000000000000000000000000000000000000000000000000000000000000000000000000008302000080887fffffffffffffff808203b642a056e81f171bcc55a6ff8345e692c0f86e5b48e01b996cadc001622fb5e363b421880102030405060708c0c0",
        "lastblockhash" : "0x19c6f1465f034914ded59ef4f96486a31317aa9c8c3bc641dbcd7673904abc5b",
        "network" : "EIP150",
        "postState" : {
            "0x095e7baea6a6c7c4c2dfeb977efac326af552d87" : {
                "balance" : "0x2c6942fb",
                "code" : "0x7ffffffffffffffffffffffffffffffffffffffffffffffffffffffffffffffffe7fffffffffffffffffffffffffffffffffffffffffffffffffffffffffffffffff7f000000000000000000000000ffffffffffffffffffffffffffffffffffffffff037f0000000000000000000000000000000000000000000000000000000000000000427ffffffffffffffffffffffffffffffffffffffffffffffffffffffffffffffffe6f5af3a474ff64f3a37d51f36a6a607f5560005155",
                "nonce" : "0x00",
                "storage" : {
                    "0x00" : "0x5af3a474ff64f3a37d51f36a6a607f55"
                }
            },
            "0x945304eb96065b2a98b57a48a06ae28d285a71b5" : {
                "balance" : "0x4563918244f4c612",
                "code" : "0x6000355415600957005b60203560003555",
                "nonce" : "0x00",
                "storage" : {
                }
            },
            "0xa94f5374fce5edbc8e2a8697c15331677e6ebf0b" : {
                "balance" : "0x0de0b6b37af9f721",
                "code" : "",
                "nonce" : "0x01",
                "storage" : {
                }
            }
        },
        "pre" : {
            "0x095e7baea6a6c7c4c2dfeb977efac326af552d87" : {
                "balance" : "0x00",
                "code" : "0x7ffffffffffffffffffffffffffffffffffffffffffffffffffffffffffffffffe7fffffffffffffffffffffffffffffffffffffffffffffffffffffffffffffffff7f000000000000000000000000ffffffffffffffffffffffffffffffffffffffff037f0000000000000000000000000000000000000000000000000000000000000000427ffffffffffffffffffffffffffffffffffffffffffffffffffffffffffffffffe6f5af3a474ff64f3a37d51f36a6a607f5560005155",
                "nonce" : "0x00",
                "storage" : {
                }
            },
            "0x945304eb96065b2a98b57a48a06ae28d285a71b5" : {
                "balance" : "0x2e",
                "code" : "0x6000355415600957005b60203560003555",
                "nonce" : "0x00",
                "storage" : {
                }
            },
            "0xa94f5374fce5edbc8e2a8697c15331677e6ebf0b" : {
                "balance" : "0x0de0b6b3a7640000",
                "code" : "",
                "nonce" : "0x00",
                "storage" : {
                }
            }
        }
    },
    "randomStatetest480_d0g0v0_EIP158" : {
        "_info" : {
            "comment" : "",
            "filledwith" : "cpp-1.3.0+commit.16292201.Linux.g++",
            "source" : "/src/GenStateTestAsBcTemp/stRandom/randomStatetest480_d0g0v0Filler.json"
        },
        "blocks" : [
            {
                "blockHeader" : {
                    "bloom" : "0x00000000000000000000000000000000000000000000000000000000000000000000000000000000000000000000000000000000000000000000000000000000000000000000000000000000000000000000000000000000000000000000000000000000000000000000000000000000000000000000000000000000000000000000000000000000000000000000000000000000000000000000000000000000000000000000000000000000000000000000000000000000000000000000000000000000000000000000000000000000000000000000000000000000000000000000000000000000000000000000000000000000000000000000000000000000",
                    "coinbase" : "0x945304eb96065b2a98b57a48a06ae28d285a71b5",
                    "difficulty" : "0x020000",
                    "extraData" : "",
                    "gasLimit" : "0x7fffffffffffffff",
                    "gasUsed" : "0xc5e4",
                    "hash" : "0x7b221057232cf7eb8d9fbf0fd791bba9d355953eabe8eafd76e5901f8af9961b",
                    "mixHash" : "0x670087afe6c2b9aa2bc01c784cc934e920954912094b560852481c790deadd00",
                    "nonce" : "0xfe3ce9074a913652",
                    "number" : "0x01",
                    "parentHash" : "0xe682b96ca10a033441e090f14269aa81e753a0a35127811d883b724e79ad5b0d",
                    "receiptTrie" : "0x7b0d461da0e02a3b6a155bbb25959c2b8ec3b854d972be4c3f1d155a7ff5a446",
                    "stateRoot" : "0xed84628e8469cac96d97c4fc986afd0b8786512d13b01cb924788d6c7aa913bb",
                    "timestamp" : "0x03e8",
                    "transactionsTrie" : "0x6da51f94d71d89b288ae11133636d8f97acc968f28a89d65f34019028ebf0cf4",
                    "uncleHash" : "0x1dcc4de8dec75d7aab85b567b6ccd41ad312451b948a7413f0a142fd40d49347"
                },
                "rlp" : "0xf90323f901fca0e682b96ca10a033441e090f14269aa81e753a0a35127811d883b724e79ad5b0da01dcc4de8dec75d7aab85b567b6ccd41ad312451b948a7413f0a142fd40d4934794945304eb96065b2a98b57a48a06ae28d285a71b5a0ed84628e8469cac96d97c4fc986afd0b8786512d13b01cb924788d6c7aa913bba06da51f94d71d89b288ae11133636d8f97acc968f28a89d65f34019028ebf0cf4a07b0d461da0e02a3b6a155bbb25959c2b8ec3b854d972be4c3f1d155a7ff5a446b90100000000000000000000000000000000000000000000000000000000000000000000000000000000000000000000000000000000000000000000000000000000000000000000000000000000000000000000000000000000000000000000000000000000000000000000000000000000000000000000000000000000000000000000000000000000000000000000000000000000000000000000000000000000000000000000000000000000000000000000000000000000000000000000000000000000000000000000000000000000000000000000000000000000000000000000000000000000000000000000000000000000000000000000000000000000008302000001887fffffffffffffff82c5e48203e880a0670087afe6c2b9aa2bc01c784cc934e920954912094b560852481c790deadd0088fe3ce9074a913652f90120f9011d8001847db624ae94095e7baea6a6c7c4c2dfeb977efac326af552d87842c6942fbb8b77ffffffffffffffffffffffffffffffffffffffffffffffffffffffffffffffffe7fffffffffffffffffffffffffffffffffffffffffffffffffffffffffffffffff7f000000000000000000000000ffffffffffffffffffffffffffffffffffffffff037f0000000000000000000000000000000000000000000000000000000000000000427ffffffffffffffffffffffffffffffffffffffffffffffffffffffffffffffffe6f5af3a474ff64f3a37d51f36a6a607f1ca022fea59a2ce339b747346f16bf48cffdaca81b3a20d31d7aa7de716223c9c92da00656f7fe30e786cab6154dc38c7a41be4761a316a055a11c9a7db32c57595e37c0",
                "transactions" : [
                    {
                        "data" : "0x7ffffffffffffffffffffffffffffffffffffffffffffffffffffffffffffffffe7fffffffffffffffffffffffffffffffffffffffffffffffffffffffffffffffff7f000000000000000000000000ffffffffffffffffffffffffffffffffffffffff037f0000000000000000000000000000000000000000000000000000000000000000427ffffffffffffffffffffffffffffffffffffffffffffffffffffffffffffffffe6f5af3a474ff64f3a37d51f36a6a607f",
                        "gasLimit" : "0x7db624ae",
                        "gasPrice" : "0x01",
                        "nonce" : "0x00",
                        "r" : "0x22fea59a2ce339b747346f16bf48cffdaca81b3a20d31d7aa7de716223c9c92d",
                        "s" : "0x0656f7fe30e786cab6154dc38c7a41be4761a316a055a11c9a7db32c57595e37",
                        "to" : "0x095e7baea6a6c7c4c2dfeb977efac326af552d87",
                        "v" : "0x1c",
                        "value" : "0x2c6942fb"
                    }
                ],
                "uncleHeaders" : [
                ]
            }
        ],
        "genesisBlockHeader" : {
            "bloom" : "0x00000000000000000000000000000000000000000000000000000000000000000000000000000000000000000000000000000000000000000000000000000000000000000000000000000000000000000000000000000000000000000000000000000000000000000000000000000000000000000000000000000000000000000000000000000000000000000000000000000000000000000000000000000000000000000000000000000000000000000000000000000000000000000000000000000000000000000000000000000000000000000000000000000000000000000000000000000000000000000000000000000000000000000000000000000000",
            "coinbase" : "0x945304eb96065b2a98b57a48a06ae28d285a71b5",
            "difficulty" : "0x020000",
            "extraData" : "0x42",
            "gasLimit" : "0x7fffffffffffffff",
            "gasUsed" : "0x00",
            "hash" : "0xe682b96ca10a033441e090f14269aa81e753a0a35127811d883b724e79ad5b0d",
            "mixHash" : "0x56e81f171bcc55a6ff8345e692c0f86e5b48e01b996cadc001622fb5e363b421",
            "nonce" : "0x0102030405060708",
            "number" : "0x00",
            "parentHash" : "0x0000000000000000000000000000000000000000000000000000000000000000",
            "receiptTrie" : "0x56e81f171bcc55a6ff8345e692c0f86e5b48e01b996cadc001622fb5e363b421",
            "stateRoot" : "0x6548470f845b64f1c07bf1bfa6e78b1edd05d585ae582ffec06cd0ecd39a3e19",
            "timestamp" : "0x03b6",
            "transactionsTrie" : "0x56e81f171bcc55a6ff8345e692c0f86e5b48e01b996cadc001622fb5e363b421",
            "uncleHash" : "0x1dcc4de8dec75d7aab85b567b6ccd41ad312451b948a7413f0a142fd40d49347"
        },
        "genesisRLP" : "0xf901fff901faa00000000000000000000000000000000000000000000000000000000000000000a01dcc4de8dec75d7aab85b567b6ccd41ad312451b948a7413f0a142fd40d4934794945304eb96065b2a98b57a48a06ae28d285a71b5a06548470f845b64f1c07bf1bfa6e78b1edd05d585ae582ffec06cd0ecd39a3e19a056e81f171bcc55a6ff8345e692c0f86e5b48e01b996cadc001622fb5e363b421a056e81f171bcc55a6ff8345e692c0f86e5b48e01b996cadc001622fb5e363b421b90100000000000000000000000000000000000000000000000000000000000000000000000000000000000000000000000000000000000000000000000000000000000000000000000000000000000000000000000000000000000000000000000000000000000000000000000000000000000000000000000000000000000000000000000000000000000000000000000000000000000000000000000000000000000000000000000000000000000000000000000000000000000000000000000000000000000000000000000000000000000000000000000000000000000000000000000000000000000000000000000000000000000000000000000000000000008302000080887fffffffffffffff808203b642a056e81f171bcc55a6ff8345e692c0f86e5b48e01b996cadc001622fb5e363b421880102030405060708c0c0",
        "lastblockhash" : "0x7b221057232cf7eb8d9fbf0fd791bba9d355953eabe8eafd76e5901f8af9961b",
        "network" : "EIP158",
        "postState" : {
            "0x095e7baea6a6c7c4c2dfeb977efac326af552d87" : {
                "balance" : "0x2c6942fb",
                "code" : "0x7ffffffffffffffffffffffffffffffffffffffffffffffffffffffffffffffffe7fffffffffffffffffffffffffffffffffffffffffffffffffffffffffffffffff7f000000000000000000000000ffffffffffffffffffffffffffffffffffffffff037f0000000000000000000000000000000000000000000000000000000000000000427ffffffffffffffffffffffffffffffffffffffffffffffffffffffffffffffffe6f5af3a474ff64f3a37d51f36a6a607f5560005155",
                "nonce" : "0x00",
                "storage" : {
                    "0x00" : "0x5af3a474ff64f3a37d51f36a6a607f55"
                }
            },
            "0x945304eb96065b2a98b57a48a06ae28d285a71b5" : {
                "balance" : "0x4563918244f4c612",
                "code" : "0x6000355415600957005b60203560003555",
                "nonce" : "0x00",
                "storage" : {
                }
            },
            "0xa94f5374fce5edbc8e2a8697c15331677e6ebf0b" : {
                "balance" : "0x0de0b6b37af9f721",
                "code" : "",
                "nonce" : "0x01",
                "storage" : {
                }
            }
        },
        "pre" : {
            "0x095e7baea6a6c7c4c2dfeb977efac326af552d87" : {
                "balance" : "0x00",
                "code" : "0x7ffffffffffffffffffffffffffffffffffffffffffffffffffffffffffffffffe7fffffffffffffffffffffffffffffffffffffffffffffffffffffffffffffffff7f000000000000000000000000ffffffffffffffffffffffffffffffffffffffff037f0000000000000000000000000000000000000000000000000000000000000000427ffffffffffffffffffffffffffffffffffffffffffffffffffffffffffffffffe6f5af3a474ff64f3a37d51f36a6a607f5560005155",
                "nonce" : "0x00",
                "storage" : {
                }
            },
            "0x945304eb96065b2a98b57a48a06ae28d285a71b5" : {
                "balance" : "0x2e",
                "code" : "0x6000355415600957005b60203560003555",
                "nonce" : "0x00",
                "storage" : {
                }
            },
            "0xa94f5374fce5edbc8e2a8697c15331677e6ebf0b" : {
                "balance" : "0x0de0b6b3a7640000",
                "code" : "",
                "nonce" : "0x00",
                "storage" : {
                }
            }
        }
    },
    "randomStatetest480_d0g0v0_Frontier" : {
        "_info" : {
            "comment" : "",
            "filledwith" : "cpp-1.3.0+commit.16292201.Linux.g++",
            "source" : "/src/GenStateTestAsBcTemp/stRandom/randomStatetest480_d0g0v0Filler.json"
        },
        "blocks" : [
            {
                "blockHeader" : {
                    "bloom" : "0x00000000000000000000000000000000000000000000000000000000000000000000000000000000000000000000000000000000000000000000000000000000000000000000000000000000000000000000000000000000000000000000000000000000000000000000000000000000000000000000000000000000000000000000000000000000000000000000000000000000000000000000000000000000000000000000000000000000000000000000000000000000000000000000000000000000000000000000000000000000000000000000000000000000000000000000000000000000000000000000000000000000000000000000000000000000",
                    "coinbase" : "0x945304eb96065b2a98b57a48a06ae28d285a71b5",
                    "difficulty" : "0x020000",
                    "extraData" : "",
                    "gasLimit" : "0x7fffffffffffffff",
                    "gasUsed" : "0xc5e4",
                    "hash" : "0x1f9bf9c25a8debf6685ea97ec81b2f2f8196cb8fc8b4b661ae23bd5616ada44b",
                    "mixHash" : "0xada27fb13da77112079223b29766f23ff9f15ef45cdd300099a6a97560a5f4c9",
                    "nonce" : "0xf2dff90cf9020ad9",
                    "number" : "0x01",
                    "parentHash" : "0xe682b96ca10a033441e090f14269aa81e753a0a35127811d883b724e79ad5b0d",
                    "receiptTrie" : "0x7b0d461da0e02a3b6a155bbb25959c2b8ec3b854d972be4c3f1d155a7ff5a446",
                    "stateRoot" : "0xed84628e8469cac96d97c4fc986afd0b8786512d13b01cb924788d6c7aa913bb",
                    "timestamp" : "0x03e8",
                    "transactionsTrie" : "0x6da51f94d71d89b288ae11133636d8f97acc968f28a89d65f34019028ebf0cf4",
                    "uncleHash" : "0x1dcc4de8dec75d7aab85b567b6ccd41ad312451b948a7413f0a142fd40d49347"
                },
                "rlp" : "0xf90323f901fca0e682b96ca10a033441e090f14269aa81e753a0a35127811d883b724e79ad5b0da01dcc4de8dec75d7aab85b567b6ccd41ad312451b948a7413f0a142fd40d4934794945304eb96065b2a98b57a48a06ae28d285a71b5a0ed84628e8469cac96d97c4fc986afd0b8786512d13b01cb924788d6c7aa913bba06da51f94d71d89b288ae11133636d8f97acc968f28a89d65f34019028ebf0cf4a07b0d461da0e02a3b6a155bbb25959c2b8ec3b854d972be4c3f1d155a7ff5a446b90100000000000000000000000000000000000000000000000000000000000000000000000000000000000000000000000000000000000000000000000000000000000000000000000000000000000000000000000000000000000000000000000000000000000000000000000000000000000000000000000000000000000000000000000000000000000000000000000000000000000000000000000000000000000000000000000000000000000000000000000000000000000000000000000000000000000000000000000000000000000000000000000000000000000000000000000000000000000000000000000000000000000000000000000000000000008302000001887fffffffffffffff82c5e48203e880a0ada27fb13da77112079223b29766f23ff9f15ef45cdd300099a6a97560a5f4c988f2dff90cf9020ad9f90120f9011d8001847db624ae94095e7baea6a6c7c4c2dfeb977efac326af552d87842c6942fbb8b77ffffffffffffffffffffffffffffffffffffffffffffffffffffffffffffffffe7fffffffffffffffffffffffffffffffffffffffffffffffffffffffffffffffff7f000000000000000000000000ffffffffffffffffffffffffffffffffffffffff037f0000000000000000000000000000000000000000000000000000000000000000427ffffffffffffffffffffffffffffffffffffffffffffffffffffffffffffffffe6f5af3a474ff64f3a37d51f36a6a607f1ca022fea59a2ce339b747346f16bf48cffdaca81b3a20d31d7aa7de716223c9c92da00656f7fe30e786cab6154dc38c7a41be4761a316a055a11c9a7db32c57595e37c0",
                "transactions" : [
                    {
                        "data" : "0x7ffffffffffffffffffffffffffffffffffffffffffffffffffffffffffffffffe7fffffffffffffffffffffffffffffffffffffffffffffffffffffffffffffffff7f000000000000000000000000ffffffffffffffffffffffffffffffffffffffff037f0000000000000000000000000000000000000000000000000000000000000000427ffffffffffffffffffffffffffffffffffffffffffffffffffffffffffffffffe6f5af3a474ff64f3a37d51f36a6a607f",
                        "gasLimit" : "0x7db624ae",
                        "gasPrice" : "0x01",
                        "nonce" : "0x00",
                        "r" : "0x22fea59a2ce339b747346f16bf48cffdaca81b3a20d31d7aa7de716223c9c92d",
                        "s" : "0x0656f7fe30e786cab6154dc38c7a41be4761a316a055a11c9a7db32c57595e37",
                        "to" : "0x095e7baea6a6c7c4c2dfeb977efac326af552d87",
                        "v" : "0x1c",
                        "value" : "0x2c6942fb"
                    }
                ],
                "uncleHeaders" : [
                ]
            }
        ],
        "genesisBlockHeader" : {
            "bloom" : "0x00000000000000000000000000000000000000000000000000000000000000000000000000000000000000000000000000000000000000000000000000000000000000000000000000000000000000000000000000000000000000000000000000000000000000000000000000000000000000000000000000000000000000000000000000000000000000000000000000000000000000000000000000000000000000000000000000000000000000000000000000000000000000000000000000000000000000000000000000000000000000000000000000000000000000000000000000000000000000000000000000000000000000000000000000000000",
            "coinbase" : "0x945304eb96065b2a98b57a48a06ae28d285a71b5",
            "difficulty" : "0x020000",
            "extraData" : "0x42",
            "gasLimit" : "0x7fffffffffffffff",
            "gasUsed" : "0x00",
            "hash" : "0xe682b96ca10a033441e090f14269aa81e753a0a35127811d883b724e79ad5b0d",
            "mixHash" : "0x56e81f171bcc55a6ff8345e692c0f86e5b48e01b996cadc001622fb5e363b421",
            "nonce" : "0x0102030405060708",
            "number" : "0x00",
            "parentHash" : "0x0000000000000000000000000000000000000000000000000000000000000000",
            "receiptTrie" : "0x56e81f171bcc55a6ff8345e692c0f86e5b48e01b996cadc001622fb5e363b421",
            "stateRoot" : "0x6548470f845b64f1c07bf1bfa6e78b1edd05d585ae582ffec06cd0ecd39a3e19",
            "timestamp" : "0x03b6",
            "transactionsTrie" : "0x56e81f171bcc55a6ff8345e692c0f86e5b48e01b996cadc001622fb5e363b421",
            "uncleHash" : "0x1dcc4de8dec75d7aab85b567b6ccd41ad312451b948a7413f0a142fd40d49347"
        },
        "genesisRLP" : "0xf901fff901faa00000000000000000000000000000000000000000000000000000000000000000a01dcc4de8dec75d7aab85b567b6ccd41ad312451b948a7413f0a142fd40d4934794945304eb96065b2a98b57a48a06ae28d285a71b5a06548470f845b64f1c07bf1bfa6e78b1edd05d585ae582ffec06cd0ecd39a3e19a056e81f171bcc55a6ff8345e692c0f86e5b48e01b996cadc001622fb5e363b421a056e81f171bcc55a6ff8345e692c0f86e5b48e01b996cadc001622fb5e363b421b90100000000000000000000000000000000000000000000000000000000000000000000000000000000000000000000000000000000000000000000000000000000000000000000000000000000000000000000000000000000000000000000000000000000000000000000000000000000000000000000000000000000000000000000000000000000000000000000000000000000000000000000000000000000000000000000000000000000000000000000000000000000000000000000000000000000000000000000000000000000000000000000000000000000000000000000000000000000000000000000000000000000000000000000000000000000008302000080887fffffffffffffff808203b642a056e81f171bcc55a6ff8345e692c0f86e5b48e01b996cadc001622fb5e363b421880102030405060708c0c0",
        "lastblockhash" : "0x1f9bf9c25a8debf6685ea97ec81b2f2f8196cb8fc8b4b661ae23bd5616ada44b",
        "network" : "Frontier",
        "postState" : {
            "0x095e7baea6a6c7c4c2dfeb977efac326af552d87" : {
                "balance" : "0x2c6942fb",
                "code" : "0x7ffffffffffffffffffffffffffffffffffffffffffffffffffffffffffffffffe7fffffffffffffffffffffffffffffffffffffffffffffffffffffffffffffffff7f000000000000000000000000ffffffffffffffffffffffffffffffffffffffff037f0000000000000000000000000000000000000000000000000000000000000000427ffffffffffffffffffffffffffffffffffffffffffffffffffffffffffffffffe6f5af3a474ff64f3a37d51f36a6a607f5560005155",
                "nonce" : "0x00",
                "storage" : {
                    "0x00" : "0x5af3a474ff64f3a37d51f36a6a607f55"
                }
            },
            "0x945304eb96065b2a98b57a48a06ae28d285a71b5" : {
                "balance" : "0x4563918244f4c612",
                "code" : "0x6000355415600957005b60203560003555",
                "nonce" : "0x00",
                "storage" : {
                }
            },
            "0xa94f5374fce5edbc8e2a8697c15331677e6ebf0b" : {
                "balance" : "0x0de0b6b37af9f721",
                "code" : "",
                "nonce" : "0x01",
                "storage" : {
                }
            }
        },
        "pre" : {
            "0x095e7baea6a6c7c4c2dfeb977efac326af552d87" : {
                "balance" : "0x00",
                "code" : "0x7ffffffffffffffffffffffffffffffffffffffffffffffffffffffffffffffffe7fffffffffffffffffffffffffffffffffffffffffffffffffffffffffffffffff7f000000000000000000000000ffffffffffffffffffffffffffffffffffffffff037f0000000000000000000000000000000000000000000000000000000000000000427ffffffffffffffffffffffffffffffffffffffffffffffffffffffffffffffffe6f5af3a474ff64f3a37d51f36a6a607f5560005155",
                "nonce" : "0x00",
                "storage" : {
                }
            },
            "0x945304eb96065b2a98b57a48a06ae28d285a71b5" : {
                "balance" : "0x2e",
                "code" : "0x6000355415600957005b60203560003555",
                "nonce" : "0x00",
                "storage" : {
                }
            },
            "0xa94f5374fce5edbc8e2a8697c15331677e6ebf0b" : {
                "balance" : "0x0de0b6b3a7640000",
                "code" : "",
                "nonce" : "0x00",
                "storage" : {
                }
            }
        }
    },
    "randomStatetest480_d0g0v0_Homestead" : {
        "_info" : {
            "comment" : "",
            "filledwith" : "cpp-1.3.0+commit.16292201.Linux.g++",
            "source" : "/src/GenStateTestAsBcTemp/stRandom/randomStatetest480_d0g0v0Filler.json"
        },
        "blocks" : [
            {
                "blockHeader" : {
                    "bloom" : "0x00000000000000000000000000000000000000000000000000000000000000000000000000000000000000000000000000000000000000000000000000000000000000000000000000000000000000000000000000000000000000000000000000000000000000000000000000000000000000000000000000000000000000000000000000000000000000000000000000000000000000000000000000000000000000000000000000000000000000000000000000000000000000000000000000000000000000000000000000000000000000000000000000000000000000000000000000000000000000000000000000000000000000000000000000000000",
                    "coinbase" : "0x945304eb96065b2a98b57a48a06ae28d285a71b5",
                    "difficulty" : "0x020000",
                    "extraData" : "",
                    "gasLimit" : "0x7fffffffffffffff",
                    "gasUsed" : "0xc5e4",
                    "hash" : "0x1e05a0053de272ed01b65c4f414e36e6653675ee13ab228e8fc7edd3dca89765",
                    "mixHash" : "0x2f32ae4258286379828834791176e17adb46adef610e8b06f9f8668bb51fd801",
                    "nonce" : "0xf2066dc67be32580",
                    "number" : "0x01",
                    "parentHash" : "0xe682b96ca10a033441e090f14269aa81e753a0a35127811d883b724e79ad5b0d",
                    "receiptTrie" : "0x7b0d461da0e02a3b6a155bbb25959c2b8ec3b854d972be4c3f1d155a7ff5a446",
                    "stateRoot" : "0xed84628e8469cac96d97c4fc986afd0b8786512d13b01cb924788d6c7aa913bb",
                    "timestamp" : "0x03e8",
                    "transactionsTrie" : "0x6da51f94d71d89b288ae11133636d8f97acc968f28a89d65f34019028ebf0cf4",
                    "uncleHash" : "0x1dcc4de8dec75d7aab85b567b6ccd41ad312451b948a7413f0a142fd40d49347"
                },
                "rlp" : "0xf90323f901fca0e682b96ca10a033441e090f14269aa81e753a0a35127811d883b724e79ad5b0da01dcc4de8dec75d7aab85b567b6ccd41ad312451b948a7413f0a142fd40d4934794945304eb96065b2a98b57a48a06ae28d285a71b5a0ed84628e8469cac96d97c4fc986afd0b8786512d13b01cb924788d6c7aa913bba06da51f94d71d89b288ae11133636d8f97acc968f28a89d65f34019028ebf0cf4a07b0d461da0e02a3b6a155bbb25959c2b8ec3b854d972be4c3f1d155a7ff5a446b90100000000000000000000000000000000000000000000000000000000000000000000000000000000000000000000000000000000000000000000000000000000000000000000000000000000000000000000000000000000000000000000000000000000000000000000000000000000000000000000000000000000000000000000000000000000000000000000000000000000000000000000000000000000000000000000000000000000000000000000000000000000000000000000000000000000000000000000000000000000000000000000000000000000000000000000000000000000000000000000000000000000000000000000000000000000008302000001887fffffffffffffff82c5e48203e880a02f32ae4258286379828834791176e17adb46adef610e8b06f9f8668bb51fd80188f2066dc67be32580f90120f9011d8001847db624ae94095e7baea6a6c7c4c2dfeb977efac326af552d87842c6942fbb8b77ffffffffffffffffffffffffffffffffffffffffffffffffffffffffffffffffe7fffffffffffffffffffffffffffffffffffffffffffffffffffffffffffffffff7f000000000000000000000000ffffffffffffffffffffffffffffffffffffffff037f0000000000000000000000000000000000000000000000000000000000000000427ffffffffffffffffffffffffffffffffffffffffffffffffffffffffffffffffe6f5af3a474ff64f3a37d51f36a6a607f1ca022fea59a2ce339b747346f16bf48cffdaca81b3a20d31d7aa7de716223c9c92da00656f7fe30e786cab6154dc38c7a41be4761a316a055a11c9a7db32c57595e37c0",
                "transactions" : [
                    {
                        "data" : "0x7ffffffffffffffffffffffffffffffffffffffffffffffffffffffffffffffffe7fffffffffffffffffffffffffffffffffffffffffffffffffffffffffffffffff7f000000000000000000000000ffffffffffffffffffffffffffffffffffffffff037f0000000000000000000000000000000000000000000000000000000000000000427ffffffffffffffffffffffffffffffffffffffffffffffffffffffffffffffffe6f5af3a474ff64f3a37d51f36a6a607f",
                        "gasLimit" : "0x7db624ae",
                        "gasPrice" : "0x01",
                        "nonce" : "0x00",
                        "r" : "0x22fea59a2ce339b747346f16bf48cffdaca81b3a20d31d7aa7de716223c9c92d",
                        "s" : "0x0656f7fe30e786cab6154dc38c7a41be4761a316a055a11c9a7db32c57595e37",
                        "to" : "0x095e7baea6a6c7c4c2dfeb977efac326af552d87",
                        "v" : "0x1c",
                        "value" : "0x2c6942fb"
                    }
                ],
                "uncleHeaders" : [
                ]
            }
        ],
        "genesisBlockHeader" : {
            "bloom" : "0x00000000000000000000000000000000000000000000000000000000000000000000000000000000000000000000000000000000000000000000000000000000000000000000000000000000000000000000000000000000000000000000000000000000000000000000000000000000000000000000000000000000000000000000000000000000000000000000000000000000000000000000000000000000000000000000000000000000000000000000000000000000000000000000000000000000000000000000000000000000000000000000000000000000000000000000000000000000000000000000000000000000000000000000000000000000",
            "coinbase" : "0x945304eb96065b2a98b57a48a06ae28d285a71b5",
            "difficulty" : "0x020000",
            "extraData" : "0x42",
            "gasLimit" : "0x7fffffffffffffff",
            "gasUsed" : "0x00",
            "hash" : "0xe682b96ca10a033441e090f14269aa81e753a0a35127811d883b724e79ad5b0d",
            "mixHash" : "0x56e81f171bcc55a6ff8345e692c0f86e5b48e01b996cadc001622fb5e363b421",
            "nonce" : "0x0102030405060708",
            "number" : "0x00",
            "parentHash" : "0x0000000000000000000000000000000000000000000000000000000000000000",
            "receiptTrie" : "0x56e81f171bcc55a6ff8345e692c0f86e5b48e01b996cadc001622fb5e363b421",
            "stateRoot" : "0x6548470f845b64f1c07bf1bfa6e78b1edd05d585ae582ffec06cd0ecd39a3e19",
            "timestamp" : "0x03b6",
            "transactionsTrie" : "0x56e81f171bcc55a6ff8345e692c0f86e5b48e01b996cadc001622fb5e363b421",
            "uncleHash" : "0x1dcc4de8dec75d7aab85b567b6ccd41ad312451b948a7413f0a142fd40d49347"
        },
        "genesisRLP" : "0xf901fff901faa00000000000000000000000000000000000000000000000000000000000000000a01dcc4de8dec75d7aab85b567b6ccd41ad312451b948a7413f0a142fd40d4934794945304eb96065b2a98b57a48a06ae28d285a71b5a06548470f845b64f1c07bf1bfa6e78b1edd05d585ae582ffec06cd0ecd39a3e19a056e81f171bcc55a6ff8345e692c0f86e5b48e01b996cadc001622fb5e363b421a056e81f171bcc55a6ff8345e692c0f86e5b48e01b996cadc001622fb5e363b421b90100000000000000000000000000000000000000000000000000000000000000000000000000000000000000000000000000000000000000000000000000000000000000000000000000000000000000000000000000000000000000000000000000000000000000000000000000000000000000000000000000000000000000000000000000000000000000000000000000000000000000000000000000000000000000000000000000000000000000000000000000000000000000000000000000000000000000000000000000000000000000000000000000000000000000000000000000000000000000000000000000000000000000000000000000000000008302000080887fffffffffffffff808203b642a056e81f171bcc55a6ff8345e692c0f86e5b48e01b996cadc001622fb5e363b421880102030405060708c0c0",
        "lastblockhash" : "0x1e05a0053de272ed01b65c4f414e36e6653675ee13ab228e8fc7edd3dca89765",
        "network" : "Homestead",
        "postState" : {
            "0x095e7baea6a6c7c4c2dfeb977efac326af552d87" : {
                "balance" : "0x2c6942fb",
                "code" : "0x7ffffffffffffffffffffffffffffffffffffffffffffffffffffffffffffffffe7fffffffffffffffffffffffffffffffffffffffffffffffffffffffffffffffff7f000000000000000000000000ffffffffffffffffffffffffffffffffffffffff037f0000000000000000000000000000000000000000000000000000000000000000427ffffffffffffffffffffffffffffffffffffffffffffffffffffffffffffffffe6f5af3a474ff64f3a37d51f36a6a607f5560005155",
                "nonce" : "0x00",
                "storage" : {
                    "0x00" : "0x5af3a474ff64f3a37d51f36a6a607f55"
                }
            },
            "0x945304eb96065b2a98b57a48a06ae28d285a71b5" : {
                "balance" : "0x4563918244f4c612",
                "code" : "0x6000355415600957005b60203560003555",
                "nonce" : "0x00",
                "storage" : {
                }
            },
            "0xa94f5374fce5edbc8e2a8697c15331677e6ebf0b" : {
                "balance" : "0x0de0b6b37af9f721",
                "code" : "",
                "nonce" : "0x01",
                "storage" : {
                }
            }
        },
        "pre" : {
            "0x095e7baea6a6c7c4c2dfeb977efac326af552d87" : {
                "balance" : "0x00",
                "code" : "0x7ffffffffffffffffffffffffffffffffffffffffffffffffffffffffffffffffe7fffffffffffffffffffffffffffffffffffffffffffffffffffffffffffffffff7f000000000000000000000000ffffffffffffffffffffffffffffffffffffffff037f0000000000000000000000000000000000000000000000000000000000000000427ffffffffffffffffffffffffffffffffffffffffffffffffffffffffffffffffe6f5af3a474ff64f3a37d51f36a6a607f5560005155",
                "nonce" : "0x00",
                "storage" : {
                }
            },
            "0x945304eb96065b2a98b57a48a06ae28d285a71b5" : {
                "balance" : "0x2e",
                "code" : "0x6000355415600957005b60203560003555",
                "nonce" : "0x00",
                "storage" : {
                }
            },
            "0xa94f5374fce5edbc8e2a8697c15331677e6ebf0b" : {
                "balance" : "0x0de0b6b3a7640000",
                "code" : "",
                "nonce" : "0x00",
                "storage" : {
                }
            }
        }
    },
    "randomStatetest480_d0g0v0_Metropolis" : {
        "_info" : {
            "comment" : "",
            "filledwith" : "cpp-1.3.0+commit.16292201.Linux.g++",
            "source" : "/src/GenStateTestAsBcTemp/stRandom/randomStatetest480_d0g0v0Filler.json"
        },
        "blocks" : [
            {
                "blockHeader" : {
                    "bloom" : "0x00000000000000000000000000000000000000000000000000000000000000000000000000000000000000000000000000000000000000000000000000000000000000000000000000000000000000000000000000000000000000000000000000000000000000000000000000000000000000000000000000000000000000000000000000000000000000000000000000000000000000000000000000000000000000000000000000000000000000000000000000000000000000000000000000000000000000000000000000000000000000000000000000000000000000000000000000000000000000000000000000000000000000000000000000000000",
                    "coinbase" : "0x945304eb96065b2a98b57a48a06ae28d285a71b5",
                    "difficulty" : "0x020000",
                    "extraData" : "",
                    "gasLimit" : "0x7fffffffffffffff",
                    "gasUsed" : "0xc5e4",
                    "hash" : "0x72ee2f7029a60330946a4eafdaa7ebacfe7777e5954dd6f9d0880dc48f340eb0",
                    "mixHash" : "0x19fca57746552dc852591392a554110cb039180c905c119447fe967fa6073254",
                    "nonce" : "0x8741dde4c7d6295a",
                    "number" : "0x01",
                    "parentHash" : "0xe682b96ca10a033441e090f14269aa81e753a0a35127811d883b724e79ad5b0d",
                    "receiptTrie" : "0x10ff79f35e31826074aa20d3b9e480f3c6aa5884142832309da393632b8b928b",
                    "stateRoot" : "0xab470a593bd66c5494ecca30dc65c7cb73039da6ae48d4b5dd41e634987487a1",
                    "timestamp" : "0x03e8",
                    "transactionsTrie" : "0x6da51f94d71d89b288ae11133636d8f97acc968f28a89d65f34019028ebf0cf4",
                    "uncleHash" : "0x1dcc4de8dec75d7aab85b567b6ccd41ad312451b948a7413f0a142fd40d49347"
                },
                "rlp" : "0xf90323f901fca0e682b96ca10a033441e090f14269aa81e753a0a35127811d883b724e79ad5b0da01dcc4de8dec75d7aab85b567b6ccd41ad312451b948a7413f0a142fd40d4934794945304eb96065b2a98b57a48a06ae28d285a71b5a0ab470a593bd66c5494ecca30dc65c7cb73039da6ae48d4b5dd41e634987487a1a06da51f94d71d89b288ae11133636d8f97acc968f28a89d65f34019028ebf0cf4a010ff79f35e31826074aa20d3b9e480f3c6aa5884142832309da393632b8b928bb90100000000000000000000000000000000000000000000000000000000000000000000000000000000000000000000000000000000000000000000000000000000000000000000000000000000000000000000000000000000000000000000000000000000000000000000000000000000000000000000000000000000000000000000000000000000000000000000000000000000000000000000000000000000000000000000000000000000000000000000000000000000000000000000000000000000000000000000000000000000000000000000000000000000000000000000000000000000000000000000000000000000000000000000000000000000008302000001887fffffffffffffff82c5e48203e880a019fca57746552dc852591392a554110cb039180c905c119447fe967fa6073254888741dde4c7d6295af90120f9011d8001847db624ae94095e7baea6a6c7c4c2dfeb977efac326af552d87842c6942fbb8b77ffffffffffffffffffffffffffffffffffffffffffffffffffffffffffffffffe7fffffffffffffffffffffffffffffffffffffffffffffffffffffffffffffffff7f000000000000000000000000ffffffffffffffffffffffffffffffffffffffff037f0000000000000000000000000000000000000000000000000000000000000000427ffffffffffffffffffffffffffffffffffffffffffffffffffffffffffffffffe6f5af3a474ff64f3a37d51f36a6a607f1ca022fea59a2ce339b747346f16bf48cffdaca81b3a20d31d7aa7de716223c9c92da00656f7fe30e786cab6154dc38c7a41be4761a316a055a11c9a7db32c57595e37c0",
                "transactions" : [
                    {
                        "data" : "0x7ffffffffffffffffffffffffffffffffffffffffffffffffffffffffffffffffe7fffffffffffffffffffffffffffffffffffffffffffffffffffffffffffffffff7f000000000000000000000000ffffffffffffffffffffffffffffffffffffffff037f0000000000000000000000000000000000000000000000000000000000000000427ffffffffffffffffffffffffffffffffffffffffffffffffffffffffffffffffe6f5af3a474ff64f3a37d51f36a6a607f",
                        "gasLimit" : "0x7db624ae",
                        "gasPrice" : "0x01",
                        "nonce" : "0x00",
                        "r" : "0x22fea59a2ce339b747346f16bf48cffdaca81b3a20d31d7aa7de716223c9c92d",
                        "s" : "0x0656f7fe30e786cab6154dc38c7a41be4761a316a055a11c9a7db32c57595e37",
                        "to" : "0x095e7baea6a6c7c4c2dfeb977efac326af552d87",
                        "v" : "0x1c",
                        "value" : "0x2c6942fb"
                    }
                ],
                "uncleHeaders" : [
                ]
            }
        ],
        "genesisBlockHeader" : {
            "bloom" : "0x00000000000000000000000000000000000000000000000000000000000000000000000000000000000000000000000000000000000000000000000000000000000000000000000000000000000000000000000000000000000000000000000000000000000000000000000000000000000000000000000000000000000000000000000000000000000000000000000000000000000000000000000000000000000000000000000000000000000000000000000000000000000000000000000000000000000000000000000000000000000000000000000000000000000000000000000000000000000000000000000000000000000000000000000000000000",
            "coinbase" : "0x945304eb96065b2a98b57a48a06ae28d285a71b5",
            "difficulty" : "0x020000",
            "extraData" : "0x42",
            "gasLimit" : "0x7fffffffffffffff",
            "gasUsed" : "0x00",
            "hash" : "0xe682b96ca10a033441e090f14269aa81e753a0a35127811d883b724e79ad5b0d",
            "mixHash" : "0x56e81f171bcc55a6ff8345e692c0f86e5b48e01b996cadc001622fb5e363b421",
            "nonce" : "0x0102030405060708",
            "number" : "0x00",
            "parentHash" : "0x0000000000000000000000000000000000000000000000000000000000000000",
            "receiptTrie" : "0x56e81f171bcc55a6ff8345e692c0f86e5b48e01b996cadc001622fb5e363b421",
            "stateRoot" : "0x6548470f845b64f1c07bf1bfa6e78b1edd05d585ae582ffec06cd0ecd39a3e19",
            "timestamp" : "0x03b6",
            "transactionsTrie" : "0x56e81f171bcc55a6ff8345e692c0f86e5b48e01b996cadc001622fb5e363b421",
            "uncleHash" : "0x1dcc4de8dec75d7aab85b567b6ccd41ad312451b948a7413f0a142fd40d49347"
        },
        "genesisRLP" : "0xf901fff901faa00000000000000000000000000000000000000000000000000000000000000000a01dcc4de8dec75d7aab85b567b6ccd41ad312451b948a7413f0a142fd40d4934794945304eb96065b2a98b57a48a06ae28d285a71b5a06548470f845b64f1c07bf1bfa6e78b1edd05d585ae582ffec06cd0ecd39a3e19a056e81f171bcc55a6ff8345e692c0f86e5b48e01b996cadc001622fb5e363b421a056e81f171bcc55a6ff8345e692c0f86e5b48e01b996cadc001622fb5e363b421b90100000000000000000000000000000000000000000000000000000000000000000000000000000000000000000000000000000000000000000000000000000000000000000000000000000000000000000000000000000000000000000000000000000000000000000000000000000000000000000000000000000000000000000000000000000000000000000000000000000000000000000000000000000000000000000000000000000000000000000000000000000000000000000000000000000000000000000000000000000000000000000000000000000000000000000000000000000000000000000000000000000000000000000000000000000000008302000080887fffffffffffffff808203b642a056e81f171bcc55a6ff8345e692c0f86e5b48e01b996cadc001622fb5e363b421880102030405060708c0c0",
        "lastblockhash" : "0x72ee2f7029a60330946a4eafdaa7ebacfe7777e5954dd6f9d0880dc48f340eb0",
        "network" : "Metropolis",
        "postState" : {
            "0x00000000000000000000000000000000000000f0" : {
                "balance" : "0x00",
                "code" : "",
                "nonce" : "0x00",
                "storage" : {
                }
            },
            "0x095e7baea6a6c7c4c2dfeb977efac326af552d87" : {
                "balance" : "0x2c6942fb",
                "code" : "0x7ffffffffffffffffffffffffffffffffffffffffffffffffffffffffffffffffe7fffffffffffffffffffffffffffffffffffffffffffffffffffffffffffffffff7f000000000000000000000000ffffffffffffffffffffffffffffffffffffffff037f0000000000000000000000000000000000000000000000000000000000000000427ffffffffffffffffffffffffffffffffffffffffffffffffffffffffffffffffe6f5af3a474ff64f3a37d51f36a6a607f5560005155",
                "nonce" : "0x00",
                "storage" : {
                    "0x00" : "0x5af3a474ff64f3a37d51f36a6a607f55"
                }
            },
            "0x945304eb96065b2a98b57a48a06ae28d285a71b5" : {
                "balance" : "0x4563918244f4c612",
                "code" : "0x6000355415600957005b60203560003555",
                "nonce" : "0x00",
                "storage" : {
                }
            },
            "0xa94f5374fce5edbc8e2a8697c15331677e6ebf0b" : {
                "balance" : "0x0de0b6b37af9f721",
                "code" : "",
                "nonce" : "0x01",
                "storage" : {
                }
            }
        },
        "pre" : {
            "0x095e7baea6a6c7c4c2dfeb977efac326af552d87" : {
                "balance" : "0x00",
                "code" : "0x7ffffffffffffffffffffffffffffffffffffffffffffffffffffffffffffffffe7fffffffffffffffffffffffffffffffffffffffffffffffffffffffffffffffff7f000000000000000000000000ffffffffffffffffffffffffffffffffffffffff037f0000000000000000000000000000000000000000000000000000000000000000427ffffffffffffffffffffffffffffffffffffffffffffffffffffffffffffffffe6f5af3a474ff64f3a37d51f36a6a607f5560005155",
                "nonce" : "0x00",
                "storage" : {
                }
            },
            "0x945304eb96065b2a98b57a48a06ae28d285a71b5" : {
                "balance" : "0x2e",
                "code" : "0x6000355415600957005b60203560003555",
                "nonce" : "0x00",
                "storage" : {
                }
            },
            "0xa94f5374fce5edbc8e2a8697c15331677e6ebf0b" : {
                "balance" : "0x0de0b6b3a7640000",
                "code" : "",
                "nonce" : "0x00",
                "storage" : {
                }
            }
        }
    }
}