{
    "randomStatetest166_d0g0v0_Berlin" : {
        "_info" : {
            "comment" : "",
            "filling-rpc-server" : "evm version 1.10.16-unstable-0f893109-20220105",
            "filling-tool-version" : "retesteth-0.2.2-testinfo+commit.01c6aac2.Linux.g++",
            "generatedTestHash" : "a4c2f33ecb8c0ccea3b2e650f4def260277199654bbc781b5d6062045f195f17",
            "lllcversion" : "Version: 0.5.14-develop.2021.11.27+commit.401d5358.Linux.g++",
            "solidity" : "Version: 0.8.5+commit.a4f2e591.Linux.g++",
            "source" : "src/GeneralStateTestsFiller/stRandom/randomStatetest166Filler.json",
            "sourceHash" : "82559e625b5dd0dd606d114b284f2e7cc765b4558c99557dc2731555cdc09901"
        },
        "blocks" : [
            {
                "blockHeader" : {
                    "bloom" : "0x00000000000000000000000000000000000000000000000000000000000000000000000000000000000000000000000000000000000000000000000000000000000000000000000000000000000000000000000000000000000000000000000000000000000000000000000000000000000000000000000000000000000000000000000000000000000000000000000000000000000000000000000000000000000000000000000000000000000000000000000000000000000000000000000000000000000000000000000000000000000000000000000000000000000000000000000000000000000000000000000000000000000000000000000000000000",
                    "coinbase" : "0x945304eb96065b2a98b57a48a06ae28d285a71b5",
                    "difficulty" : "0x020000",
                    "extraData" : "0x00",
                    "gasLimit" : "0x7fffffffffffffff",
                    "gasUsed" : "0xadaa",
                    "hash" : "0xde863580a36f58b40ffbb081355cbc1f3c302b05e73fe9dcef16377d72976660",
                    "mixHash" : "0x0000000000000000000000000000000000000000000000000000000000000000",
                    "nonce" : "0x0000000000000000",
                    "number" : "0x01",
                    "parentHash" : "0x1cbff030d2186b063c8e48897fcfef9298b00de2371d1fe39a9c8c57c9e0c31b",
                    "receiptTrie" : "0x86882cd1467501203b02e60aafafd09de4d2d3f2c10a4bd7ff961a2fa195d2a8",
                    "stateRoot" : "0x1a30d567aecda2aec0be43764ea9baf30cc135dbe961144e127af3241335ec94",
                    "timestamp" : "0x03e8",
                    "transactionsTrie" : "0x324423525285fe1d5e80c8b6d339bb546474246a3263643dcd3707d1463235fe",
                    "uncleHash" : "0x1dcc4de8dec75d7aab85b567b6ccd41ad312451b948a7413f0a142fd40d49347"
                },
                "rlp" : "0xf90324f901fca01cbff030d2186b063c8e48897fcfef9298b00de2371d1fe39a9c8c57c9e0c31ba01dcc4de8dec75d7aab85b567b6ccd41ad312451b948a7413f0a142fd40d4934794945304eb96065b2a98b57a48a06ae28d285a71b5a01a30d567aecda2aec0be43764ea9baf30cc135dbe961144e127af3241335ec94a0324423525285fe1d5e80c8b6d339bb546474246a3263643dcd3707d1463235fea086882cd1467501203b02e60aafafd09de4d2d3f2c10a4bd7ff961a2fa195d2a8b90100000000000000000000000000000000000000000000000000000000000000000000000000000000000000000000000000000000000000000000000000000000000000000000000000000000000000000000000000000000000000000000000000000000000000000000000000000000000000000000000000000000000000000000000000000000000000000000000000000000000000000000000000000000000000000000000000000000000000000000000000000000000000000000000000000000000000000000000000000000000000000000000000000000000000000000000000000000000000000000000000000000000000000000000000000000008302000001887fffffffffffffff82adaa8203e800a00000000000000000000000000000000000000000000000000000000000000000880000000000000000f90121f9011e800a846327115994095e7baea6a6c7c4c2dfeb977efac326af552d8784603d8563b8b87f00000000000000000000000100000000000000000000000000000000000000007f000000000000000000000000ffffffffffffffffffffffffffffffffffffffff817f0000000000000000000000010000000000000000000000000000000000000000417f00000000000000000000000000000000000000000000000000000000000000017f000000000000000000000000000000000000000000000000000000000000c350456f8eb7099d9f160532785143c5937e181ca08c0d96519ef632ac24d580d5b1ff57fbfc19606080c37ad2cd085ceecc20a02aa034289575774f5bc7b03714669347c604e34a4a9ec163a96940624f718b131f48c0",
                "transactions" : [
                    {
                        "data" : "0x7f00000000000000000000000100000000000000000000000000000000000000007f000000000000000000000000ffffffffffffffffffffffffffffffffffffffff817f0000000000000000000000010000000000000000000000000000000000000000417f00000000000000000000000000000000000000000000000000000000000000017f000000000000000000000000000000000000000000000000000000000000c350456f8eb7099d9f160532785143c5937e18",
                        "gasLimit" : "0x63271159",
                        "gasPrice" : "0x0a",
                        "nonce" : "0x00",
                        "r" : "0x8c0d96519ef632ac24d580d5b1ff57fbfc19606080c37ad2cd085ceecc20a02a",
                        "s" : "0x34289575774f5bc7b03714669347c604e34a4a9ec163a96940624f718b131f48",
                        "sender" : "0xa94f5374fce5edbc8e2a8697c15331677e6ebf0b",
                        "to" : "0x095e7baea6a6c7c4c2dfeb977efac326af552d87",
                        "v" : "0x1c",
                        "value" : "0x603d8563"
                    }
                ],
                "uncleHeaders" : [
                ]
            }
        ],
        "genesisBlockHeader" : {
            "bloom" : "0x00000000000000000000000000000000000000000000000000000000000000000000000000000000000000000000000000000000000000000000000000000000000000000000000000000000000000000000000000000000000000000000000000000000000000000000000000000000000000000000000000000000000000000000000000000000000000000000000000000000000000000000000000000000000000000000000000000000000000000000000000000000000000000000000000000000000000000000000000000000000000000000000000000000000000000000000000000000000000000000000000000000000000000000000000000000",
            "coinbase" : "0x945304eb96065b2a98b57a48a06ae28d285a71b5",
            "difficulty" : "0x020000",
            "extraData" : "0x00",
            "gasLimit" : "0x7fffffffffffffff",
            "gasUsed" : "0x00",
            "hash" : "0x1cbff030d2186b063c8e48897fcfef9298b00de2371d1fe39a9c8c57c9e0c31b",
            "mixHash" : "0x0000000000000000000000000000000000000000000000000000000000000000",
            "nonce" : "0x0000000000000000",
            "number" : "0x00",
            "parentHash" : "0x0000000000000000000000000000000000000000000000000000000000000000",
            "receiptTrie" : "0x56e81f171bcc55a6ff8345e692c0f86e5b48e01b996cadc001622fb5e363b421",
            "stateRoot" : "0x2230574910c5fc27e33e08fb803522ec9dd96e589a2674b1b9ab3c58ef5493aa",
            "timestamp" : "0x00",
            "transactionsTrie" : "0x56e81f171bcc55a6ff8345e692c0f86e5b48e01b996cadc001622fb5e363b421",
            "uncleHash" : "0x1dcc4de8dec75d7aab85b567b6ccd41ad312451b948a7413f0a142fd40d49347"
        },
        "genesisRLP" : "0xf901fdf901f8a00000000000000000000000000000000000000000000000000000000000000000a01dcc4de8dec75d7aab85b567b6ccd41ad312451b948a7413f0a142fd40d4934794945304eb96065b2a98b57a48a06ae28d285a71b5a02230574910c5fc27e33e08fb803522ec9dd96e589a2674b1b9ab3c58ef5493aaa056e81f171bcc55a6ff8345e692c0f86e5b48e01b996cadc001622fb5e363b421a056e81f171bcc55a6ff8345e692c0f86e5b48e01b996cadc001622fb5e363b421b90100000000000000000000000000000000000000000000000000000000000000000000000000000000000000000000000000000000000000000000000000000000000000000000000000000000000000000000000000000000000000000000000000000000000000000000000000000000000000000000000000000000000000000000000000000000000000000000000000000000000000000000000000000000000000000000000000000000000000000000000000000000000000000000000000000000000000000000000000000000000000000000000000000000000000000000000000000000000000000000000000000000000000000000000000000000008302000080887fffffffffffffff808000a00000000000000000000000000000000000000000000000000000000000000000880000000000000000c0c0",
        "lastblockhash" : "0xde863580a36f58b40ffbb081355cbc1f3c302b05e73fe9dcef16377d72976660",
        "network" : "Berlin",
        "postState" : {
            "0x095e7baea6a6c7c4c2dfeb977efac326af552d87" : {
                "balance" : "0x603d8563",
                "code" : "0x7f00000000000000000000000100000000000000000000000000000000000000007f000000000000000000000000ffffffffffffffffffffffffffffffffffffffff817f0000000000000000000000010000000000000000000000000000000000000000417f00000000000000000000000000000000000000000000000000000000000000017f000000000000000000000000000000000000000000000000000000000000c350456f8eb7099d9f160532785143c5937e185560005155",
                "nonce" : "0x00",
                "storage" : {
                    "0x00" : "0x8eb7099d9f160532785143c5937e1855"
                }
            },
            "0x945304eb96065b2a98b57a48a06ae28d285a71b5" : {
                "balance" : "0x1bc16d674ecec8d2",
                "code" : "0x6000355415600957005b60203560003555",
                "nonce" : "0x00",
                "storage" : {
                }
            },
            "0xa94f5374fce5edbc8e2a8697c15331677e6ebf0b" : {
                "balance" : "0x0de0b6b3471fb1f9",
                "code" : "0x",
                "nonce" : "0x01",
                "storage" : {
                }
            }
        },
        "pre" : {
            "0x095e7baea6a6c7c4c2dfeb977efac326af552d87" : {
                "balance" : "0x00",
                "code" : "0x7f00000000000000000000000100000000000000000000000000000000000000007f000000000000000000000000ffffffffffffffffffffffffffffffffffffffff817f0000000000000000000000010000000000000000000000000000000000000000417f00000000000000000000000000000000000000000000000000000000000000017f000000000000000000000000000000000000000000000000000000000000c350456f8eb7099d9f160532785143c5937e185560005155",
                "nonce" : "0x00",
                "storage" : {
                }
            },
            "0x945304eb96065b2a98b57a48a06ae28d285a71b5" : {
                "balance" : "0x2e",
                "code" : "0x6000355415600957005b60203560003555",
                "nonce" : "0x00",
                "storage" : {
                }
            },
            "0xa94f5374fce5edbc8e2a8697c15331677e6ebf0b" : {
                "balance" : "0x0de0b6b3a7640000",
                "code" : "0x",
                "nonce" : "0x00",
                "storage" : {
                }
            }
        },
        "sealEngine" : "NoProof"
    },
    "randomStatetest166_d0g0v0_Istanbul" : {
        "_info" : {
            "comment" : "",
            "filling-rpc-server" : "evm version 1.10.16-unstable-0f893109-20220105",
            "filling-tool-version" : "retesteth-0.2.2-testinfo+commit.01c6aac2.Linux.g++",
            "generatedTestHash" : "dc8563f110396128fa25bcc049378130c9584d04979e6d5bebac9ec7f7931914",
            "lllcversion" : "Version: 0.5.14-develop.2021.11.27+commit.401d5358.Linux.g++",
            "solidity" : "Version: 0.8.5+commit.a4f2e591.Linux.g++",
            "source" : "src/GeneralStateTestsFiller/stRandom/randomStatetest166Filler.json",
            "sourceHash" : "82559e625b5dd0dd606d114b284f2e7cc765b4558c99557dc2731555cdc09901"
        },
        "blocks" : [
            {
                "blockHeader" : {
                    "bloom" : "0x00000000000000000000000000000000000000000000000000000000000000000000000000000000000000000000000000000000000000000000000000000000000000000000000000000000000000000000000000000000000000000000000000000000000000000000000000000000000000000000000000000000000000000000000000000000000000000000000000000000000000000000000000000000000000000000000000000000000000000000000000000000000000000000000000000000000000000000000000000000000000000000000000000000000000000000000000000000000000000000000000000000000000000000000000000000",
                    "coinbase" : "0x945304eb96065b2a98b57a48a06ae28d285a71b5",
                    "difficulty" : "0x020000",
                    "extraData" : "0x00",
                    "gasLimit" : "0x7fffffffffffffff",
                    "gasUsed" : "0xa576",
                    "hash" : "0xb3bc11530f4733a7d966784f6fa30a29dd37f350096b5ecb9db80045c7738f08",
                    "mixHash" : "0x0000000000000000000000000000000000000000000000000000000000000000",
                    "nonce" : "0x0000000000000000",
                    "number" : "0x01",
                    "parentHash" : "0x1cbff030d2186b063c8e48897fcfef9298b00de2371d1fe39a9c8c57c9e0c31b",
                    "receiptTrie" : "0x70c46bad352f16836a02f10600034277e6f431697acbb2f713048d2a6da12529",
                    "stateRoot" : "0xc69204f804ecc1501768294e4bed1fcecb46633887bf50c36ea1a121c728ba15",
                    "timestamp" : "0x03e8",
                    "transactionsTrie" : "0x324423525285fe1d5e80c8b6d339bb546474246a3263643dcd3707d1463235fe",
                    "uncleHash" : "0x1dcc4de8dec75d7aab85b567b6ccd41ad312451b948a7413f0a142fd40d49347"
                },
                "rlp" : "0xf90324f901fca01cbff030d2186b063c8e48897fcfef9298b00de2371d1fe39a9c8c57c9e0c31ba01dcc4de8dec75d7aab85b567b6ccd41ad312451b948a7413f0a142fd40d4934794945304eb96065b2a98b57a48a06ae28d285a71b5a0c69204f804ecc1501768294e4bed1fcecb46633887bf50c36ea1a121c728ba15a0324423525285fe1d5e80c8b6d339bb546474246a3263643dcd3707d1463235fea070c46bad352f16836a02f10600034277e6f431697acbb2f713048d2a6da12529b90100000000000000000000000000000000000000000000000000000000000000000000000000000000000000000000000000000000000000000000000000000000000000000000000000000000000000000000000000000000000000000000000000000000000000000000000000000000000000000000000000000000000000000000000000000000000000000000000000000000000000000000000000000000000000000000000000000000000000000000000000000000000000000000000000000000000000000000000000000000000000000000000000000000000000000000000000000000000000000000000000000000000000000000000000000000008302000001887fffffffffffffff82a5768203e800a00000000000000000000000000000000000000000000000000000000000000000880000000000000000f90121f9011e800a846327115994095e7baea6a6c7c4c2dfeb977efac326af552d8784603d8563b8b87f00000000000000000000000100000000000000000000000000000000000000007f000000000000000000000000ffffffffffffffffffffffffffffffffffffffff817f0000000000000000000000010000000000000000000000000000000000000000417f00000000000000000000000000000000000000000000000000000000000000017f000000000000000000000000000000000000000000000000000000000000c350456f8eb7099d9f160532785143c5937e181ca08c0d96519ef632ac24d580d5b1ff57fbfc19606080c37ad2cd085ceecc20a02aa034289575774f5bc7b03714669347c604e34a4a9ec163a96940624f718b131f48c0",
                "transactions" : [
                    {
                        "data" : "0x7f00000000000000000000000100000000000000000000000000000000000000007f000000000000000000000000ffffffffffffffffffffffffffffffffffffffff817f0000000000000000000000010000000000000000000000000000000000000000417f00000000000000000000000000000000000000000000000000000000000000017f000000000000000000000000000000000000000000000000000000000000c350456f8eb7099d9f160532785143c5937e18",
                        "gasLimit" : "0x63271159",
                        "gasPrice" : "0x0a",
                        "nonce" : "0x00",
                        "r" : "0x8c0d96519ef632ac24d580d5b1ff57fbfc19606080c37ad2cd085ceecc20a02a",
                        "s" : "0x34289575774f5bc7b03714669347c604e34a4a9ec163a96940624f718b131f48",
                        "sender" : "0xa94f5374fce5edbc8e2a8697c15331677e6ebf0b",
                        "to" : "0x095e7baea6a6c7c4c2dfeb977efac326af552d87",
                        "v" : "0x1c",
                        "value" : "0x603d8563"
                    }
                ],
                "uncleHeaders" : [
                ]
            }
        ],
        "genesisBlockHeader" : {
            "bloom" : "0x00000000000000000000000000000000000000000000000000000000000000000000000000000000000000000000000000000000000000000000000000000000000000000000000000000000000000000000000000000000000000000000000000000000000000000000000000000000000000000000000000000000000000000000000000000000000000000000000000000000000000000000000000000000000000000000000000000000000000000000000000000000000000000000000000000000000000000000000000000000000000000000000000000000000000000000000000000000000000000000000000000000000000000000000000000000",
            "coinbase" : "0x945304eb96065b2a98b57a48a06ae28d285a71b5",
            "difficulty" : "0x020000",
            "extraData" : "0x00",
            "gasLimit" : "0x7fffffffffffffff",
            "gasUsed" : "0x00",
            "hash" : "0x1cbff030d2186b063c8e48897fcfef9298b00de2371d1fe39a9c8c57c9e0c31b",
            "mixHash" : "0x0000000000000000000000000000000000000000000000000000000000000000",
            "nonce" : "0x0000000000000000",
            "number" : "0x00",
            "parentHash" : "0x0000000000000000000000000000000000000000000000000000000000000000",
            "receiptTrie" : "0x56e81f171bcc55a6ff8345e692c0f86e5b48e01b996cadc001622fb5e363b421",
            "stateRoot" : "0x2230574910c5fc27e33e08fb803522ec9dd96e589a2674b1b9ab3c58ef5493aa",
            "timestamp" : "0x00",
            "transactionsTrie" : "0x56e81f171bcc55a6ff8345e692c0f86e5b48e01b996cadc001622fb5e363b421",
            "uncleHash" : "0x1dcc4de8dec75d7aab85b567b6ccd41ad312451b948a7413f0a142fd40d49347"
        },
        "genesisRLP" : "0xf901fdf901f8a00000000000000000000000000000000000000000000000000000000000000000a01dcc4de8dec75d7aab85b567b6ccd41ad312451b948a7413f0a142fd40d4934794945304eb96065b2a98b57a48a06ae28d285a71b5a02230574910c5fc27e33e08fb803522ec9dd96e589a2674b1b9ab3c58ef5493aaa056e81f171bcc55a6ff8345e692c0f86e5b48e01b996cadc001622fb5e363b421a056e81f171bcc55a6ff8345e692c0f86e5b48e01b996cadc001622fb5e363b421b90100000000000000000000000000000000000000000000000000000000000000000000000000000000000000000000000000000000000000000000000000000000000000000000000000000000000000000000000000000000000000000000000000000000000000000000000000000000000000000000000000000000000000000000000000000000000000000000000000000000000000000000000000000000000000000000000000000000000000000000000000000000000000000000000000000000000000000000000000000000000000000000000000000000000000000000000000000000000000000000000000000000000000000000000000000000008302000080887fffffffffffffff808000a00000000000000000000000000000000000000000000000000000000000000000880000000000000000c0c0",
        "lastblockhash" : "0xb3bc11530f4733a7d966784f6fa30a29dd37f350096b5ecb9db80045c7738f08",
        "network" : "Istanbul",
        "postState" : {
            "0x095e7baea6a6c7c4c2dfeb977efac326af552d87" : {
                "balance" : "0x603d8563",
                "code" : "0x7f00000000000000000000000100000000000000000000000000000000000000007f000000000000000000000000ffffffffffffffffffffffffffffffffffffffff817f0000000000000000000000010000000000000000000000000000000000000000417f00000000000000000000000000000000000000000000000000000000000000017f000000000000000000000000000000000000000000000000000000000000c350456f8eb7099d9f160532785143c5937e185560005155",
                "nonce" : "0x00",
                "storage" : {
                    "0x00" : "0x8eb7099d9f160532785143c5937e1855"
                }
            },
            "0x945304eb96065b2a98b57a48a06ae28d285a71b5" : {
                "balance" : "0x1bc16d674ece76ca",
                "code" : "0x6000355415600957005b60203560003555",
                "nonce" : "0x00",
                "storage" : {
                }
            },
            "0xa94f5374fce5edbc8e2a8697c15331677e6ebf0b" : {
                "balance" : "0x0de0b6b347200401",
                "code" : "0x",
                "nonce" : "0x01",
                "storage" : {
                }
            }
        },
        "pre" : {
            "0x095e7baea6a6c7c4c2dfeb977efac326af552d87" : {
                "balance" : "0x00",
                "code" : "0x7f00000000000000000000000100000000000000000000000000000000000000007f000000000000000000000000ffffffffffffffffffffffffffffffffffffffff817f0000000000000000000000010000000000000000000000000000000000000000417f00000000000000000000000000000000000000000000000000000000000000017f000000000000000000000000000000000000000000000000000000000000c350456f8eb7099d9f160532785143c5937e185560005155",
                "nonce" : "0x00",
                "storage" : {
                }
            },
            "0x945304eb96065b2a98b57a48a06ae28d285a71b5" : {
                "balance" : "0x2e",
                "code" : "0x6000355415600957005b60203560003555",
                "nonce" : "0x00",
                "storage" : {
                }
            },
            "0xa94f5374fce5edbc8e2a8697c15331677e6ebf0b" : {
                "balance" : "0x0de0b6b3a7640000",
                "code" : "0x",
                "nonce" : "0x00",
                "storage" : {
                }
            }
        },
        "sealEngine" : "NoProof"
    },
    "randomStatetest166_d0g0v0_London" : {
        "_info" : {
            "comment" : "",
            "filling-rpc-server" : "evm version 1.10.16-unstable-0f893109-20220105",
            "filling-tool-version" : "retesteth-0.2.2-testinfo+commit.01c6aac2.Linux.g++",
            "generatedTestHash" : "8258dce942ca0f3e6c08b68cc9c8c599dab8c19d5aa2353f33588828149ad981",
            "lllcversion" : "Version: 0.5.14-develop.2021.11.27+commit.401d5358.Linux.g++",
            "solidity" : "Version: 0.8.5+commit.a4f2e591.Linux.g++",
            "source" : "src/GeneralStateTestsFiller/stRandom/randomStatetest166Filler.json",
            "sourceHash" : "82559e625b5dd0dd606d114b284f2e7cc765b4558c99557dc2731555cdc09901"
        },
        "blocks" : [
            {
                "blockHeader" : {
                    "baseFeePerGas" : "0x0a",
                    "bloom" : "0x00000000000000000000000000000000000000000000000000000000000000000000000000000000000000000000000000000000000000000000000000000000000000000000000000000000000000000000000000000000000000000000000000000000000000000000000000000000000000000000000000000000000000000000000000000000000000000000000000000000000000000000000000000000000000000000000000000000000000000000000000000000000000000000000000000000000000000000000000000000000000000000000000000000000000000000000000000000000000000000000000000000000000000000000000000000",
                    "coinbase" : "0x945304eb96065b2a98b57a48a06ae28d285a71b5",
                    "difficulty" : "0x020000",
                    "extraData" : "0x00",
                    "gasLimit" : "0x7fffffffffffffff",
                    "gasUsed" : "0xadaa",
                    "hash" : "0x3ff10a5d2131bcfb3a458d37890d20220bfab97073daeaa773266f33f288a35b",
                    "mixHash" : "0x0000000000000000000000000000000000000000000000000000000000000000",
                    "nonce" : "0x0000000000000000",
                    "number" : "0x01",
                    "parentHash" : "0x330dc42b635b37de939763815ceb1691d045a81da983a91a6ed7e08b6049bffb",
                    "receiptTrie" : "0x86882cd1467501203b02e60aafafd09de4d2d3f2c10a4bd7ff961a2fa195d2a8",
                    "stateRoot" : "0xa9c920776c5d3773b00e8b0c6470323c295d515b082b58595e34e6933eb852c2",
                    "timestamp" : "0x03e8",
                    "transactionsTrie" : "0x324423525285fe1d5e80c8b6d339bb546474246a3263643dcd3707d1463235fe",
                    "uncleHash" : "0x1dcc4de8dec75d7aab85b567b6ccd41ad312451b948a7413f0a142fd40d49347"
                },
                "rlp" : "0xf90325f901fda0330dc42b635b37de939763815ceb1691d045a81da983a91a6ed7e08b6049bffba01dcc4de8dec75d7aab85b567b6ccd41ad312451b948a7413f0a142fd40d4934794945304eb96065b2a98b57a48a06ae28d285a71b5a0a9c920776c5d3773b00e8b0c6470323c295d515b082b58595e34e6933eb852c2a0324423525285fe1d5e80c8b6d339bb546474246a3263643dcd3707d1463235fea086882cd1467501203b02e60aafafd09de4d2d3f2c10a4bd7ff961a2fa195d2a8b90100000000000000000000000000000000000000000000000000000000000000000000000000000000000000000000000000000000000000000000000000000000000000000000000000000000000000000000000000000000000000000000000000000000000000000000000000000000000000000000000000000000000000000000000000000000000000000000000000000000000000000000000000000000000000000000000000000000000000000000000000000000000000000000000000000000000000000000000000000000000000000000000000000000000000000000000000000000000000000000000000000000000000000000000000000000008302000001887fffffffffffffff82adaa8203e800a000000000000000000000000000000000000000000000000000000000000000008800000000000000000af90121f9011e800a846327115994095e7baea6a6c7c4c2dfeb977efac326af552d8784603d8563b8b87f00000000000000000000000100000000000000000000000000000000000000007f000000000000000000000000ffffffffffffffffffffffffffffffffffffffff817f0000000000000000000000010000000000000000000000000000000000000000417f00000000000000000000000000000000000000000000000000000000000000017f000000000000000000000000000000000000000000000000000000000000c350456f8eb7099d9f160532785143c5937e181ca08c0d96519ef632ac24d580d5b1ff57fbfc19606080c37ad2cd085ceecc20a02aa034289575774f5bc7b03714669347c604e34a4a9ec163a96940624f718b131f48c0",
                "transactions" : [
                    {
                        "data" : "0x7f00000000000000000000000100000000000000000000000000000000000000007f000000000000000000000000ffffffffffffffffffffffffffffffffffffffff817f0000000000000000000000010000000000000000000000000000000000000000417f00000000000000000000000000000000000000000000000000000000000000017f000000000000000000000000000000000000000000000000000000000000c350456f8eb7099d9f160532785143c5937e18",
                        "gasLimit" : "0x63271159",
                        "gasPrice" : "0x0a",
                        "nonce" : "0x00",
                        "r" : "0x8c0d96519ef632ac24d580d5b1ff57fbfc19606080c37ad2cd085ceecc20a02a",
                        "s" : "0x34289575774f5bc7b03714669347c604e34a4a9ec163a96940624f718b131f48",
                        "sender" : "0xa94f5374fce5edbc8e2a8697c15331677e6ebf0b",
                        "to" : "0x095e7baea6a6c7c4c2dfeb977efac326af552d87",
                        "v" : "0x1c",
                        "value" : "0x603d8563"
                    }
                ],
                "uncleHeaders" : [
                ]
            }
        ],
        "genesisBlockHeader" : {
            "baseFeePerGas" : "0x0b",
            "bloom" : "0x00000000000000000000000000000000000000000000000000000000000000000000000000000000000000000000000000000000000000000000000000000000000000000000000000000000000000000000000000000000000000000000000000000000000000000000000000000000000000000000000000000000000000000000000000000000000000000000000000000000000000000000000000000000000000000000000000000000000000000000000000000000000000000000000000000000000000000000000000000000000000000000000000000000000000000000000000000000000000000000000000000000000000000000000000000000",
            "coinbase" : "0x945304eb96065b2a98b57a48a06ae28d285a71b5",
            "difficulty" : "0x020000",
            "extraData" : "0x00",
            "gasLimit" : "0x7fffffffffffffff",
            "gasUsed" : "0x00",
            "hash" : "0x330dc42b635b37de939763815ceb1691d045a81da983a91a6ed7e08b6049bffb",
            "mixHash" : "0x0000000000000000000000000000000000000000000000000000000000000000",
            "nonce" : "0x0000000000000000",
            "number" : "0x00",
            "parentHash" : "0x0000000000000000000000000000000000000000000000000000000000000000",
            "receiptTrie" : "0x56e81f171bcc55a6ff8345e692c0f86e5b48e01b996cadc001622fb5e363b421",
            "stateRoot" : "0x2230574910c5fc27e33e08fb803522ec9dd96e589a2674b1b9ab3c58ef5493aa",
            "timestamp" : "0x00",
            "transactionsTrie" : "0x56e81f171bcc55a6ff8345e692c0f86e5b48e01b996cadc001622fb5e363b421",
            "uncleHash" : "0x1dcc4de8dec75d7aab85b567b6ccd41ad312451b948a7413f0a142fd40d49347"
        },
        "genesisRLP" : "0xf901fef901f9a00000000000000000000000000000000000000000000000000000000000000000a01dcc4de8dec75d7aab85b567b6ccd41ad312451b948a7413f0a142fd40d4934794945304eb96065b2a98b57a48a06ae28d285a71b5a02230574910c5fc27e33e08fb803522ec9dd96e589a2674b1b9ab3c58ef5493aaa056e81f171bcc55a6ff8345e692c0f86e5b48e01b996cadc001622fb5e363b421a056e81f171bcc55a6ff8345e692c0f86e5b48e01b996cadc001622fb5e363b421b90100000000000000000000000000000000000000000000000000000000000000000000000000000000000000000000000000000000000000000000000000000000000000000000000000000000000000000000000000000000000000000000000000000000000000000000000000000000000000000000000000000000000000000000000000000000000000000000000000000000000000000000000000000000000000000000000000000000000000000000000000000000000000000000000000000000000000000000000000000000000000000000000000000000000000000000000000000000000000000000000000000000000000000000000000000000008302000080887fffffffffffffff808000a000000000000000000000000000000000000000000000000000000000000000008800000000000000000bc0c0",
        "lastblockhash" : "0x3ff10a5d2131bcfb3a458d37890d20220bfab97073daeaa773266f33f288a35b",
        "network" : "London",
        "postState" : {
            "0x095e7baea6a6c7c4c2dfeb977efac326af552d87" : {
                "balance" : "0x603d8563",
                "code" : "0x7f00000000000000000000000100000000000000000000000000000000000000007f000000000000000000000000ffffffffffffffffffffffffffffffffffffffff817f0000000000000000000000010000000000000000000000000000000000000000417f00000000000000000000000000000000000000000000000000000000000000017f000000000000000000000000000000000000000000000000000000000000c350456f8eb7099d9f160532785143c5937e185560005155",
                "nonce" : "0x00",
                "storage" : {
                    "0x00" : "0x8eb7099d9f160532785143c5937e1855"
                }
            },
            "0x945304eb96065b2a98b57a48a06ae28d285a71b5" : {
                "balance" : "0x1bc16d674ec8002e",
                "code" : "0x6000355415600957005b60203560003555",
                "nonce" : "0x00",
                "storage" : {
                }
            },
            "0xa94f5374fce5edbc8e2a8697c15331677e6ebf0b" : {
                "balance" : "0x0de0b6b3471fb1f9",
                "code" : "0x",
                "nonce" : "0x01",
                "storage" : {
                }
            }
        },
        "pre" : {
            "0x095e7baea6a6c7c4c2dfeb977efac326af552d87" : {
                "balance" : "0x00",
                "code" : "0x7f00000000000000000000000100000000000000000000000000000000000000007f000000000000000000000000ffffffffffffffffffffffffffffffffffffffff817f0000000000000000000000010000000000000000000000000000000000000000417f00000000000000000000000000000000000000000000000000000000000000017f000000000000000000000000000000000000000000000000000000000000c350456f8eb7099d9f160532785143c5937e185560005155",
                "nonce" : "0x00",
                "storage" : {
                }
            },
            "0x945304eb96065b2a98b57a48a06ae28d285a71b5" : {
                "balance" : "0x2e",
                "code" : "0x6000355415600957005b60203560003555",
                "nonce" : "0x00",
                "storage" : {
                }
            },
            "0xa94f5374fce5edbc8e2a8697c15331677e6ebf0b" : {
                "balance" : "0x0de0b6b3a7640000",
                "code" : "0x",
                "nonce" : "0x00",
                "storage" : {
                }
            }
        },
        "sealEngine" : "NoProof"
    }
}