{
    "randomStatetest414_d0g0v0_EIP150" : {
        "blocks" : [
            {
                "blockHeader" : {
                    "bloom" : "0x00000000000000000000000000000000000000000000000000000000000000000000000000000000000000000000000000000000000000000000000000000000000000000000000000000000000000000000000000000000000000000000000000000000000000000000000000000000000000000000000000000000000000000000000000000000000000000000000000000000000000000000000000000000000000000000000000000000000000000000000000000000000000000000000000000000000000000000000000000000000000000000000000000000000000000000000000000000000000000000000000000000000000000000000000000000",
                    "coinbase" : "0x945304eb96065b2a98b57a48a06ae28d285a71b5",
                    "difficulty" : "0x020000",
                    "extraData" : "",
                    "gasLimit" : "0x7fffffffffffffff",
                    "gasUsed" : "0x6332",
                    "hash" : "0x9b80337822aa68e21cdd9900b8081cb2f43fe41d808a00577fa5ab252fd7ffa2",
                    "mixHash" : "0x28211fd52a062dd6ec6c53d3baeefd8ada124e970aaebeda5fe02a0b91c9e614",
                    "nonce" : "0xd079c5588f493707",
                    "number" : "0x01",
                    "parentHash" : "0x4093b2e5094fa21c523e333175ac081d812482f914681dd2df0227cecd9c60d7",
                    "receiptTrie" : "0x2084d82ca476403abc550bca9cece3be585a0f498d21f5fac93a269778c67a75",
                    "stateRoot" : "0x710d7f48085160509bd3ed9855f3953c3bc16a80c5788b0a2188cf04826d8f52",
                    "timestamp" : "0x03e8",
                    "transactionsTrie" : "0x52011debc6ff8851f013ce864b580caf00171a9759ea9f838e9f81314f06ee07",
                    "uncleHash" : "0x1dcc4de8dec75d7aab85b567b6ccd41ad312451b948a7413f0a142fd40d49347"
                },
                "rlp" : "0xf902d3f901fca04093b2e5094fa21c523e333175ac081d812482f914681dd2df0227cecd9c60d7a01dcc4de8dec75d7aab85b567b6ccd41ad312451b948a7413f0a142fd40d4934794945304eb96065b2a98b57a48a06ae28d285a71b5a0710d7f48085160509bd3ed9855f3953c3bc16a80c5788b0a2188cf04826d8f52a052011debc6ff8851f013ce864b580caf00171a9759ea9f838e9f81314f06ee07a02084d82ca476403abc550bca9cece3be585a0f498d21f5fac93a269778c67a75b90100000000000000000000000000000000000000000000000000000000000000000000000000000000000000000000000000000000000000000000000000000000000000000000000000000000000000000000000000000000000000000000000000000000000000000000000000000000000000000000000000000000000000000000000000000000000000000000000000000000000000000000000000000000000000000000000000000000000000000000000000000000000000000000000000000000000000000000000000000000000000000000000000000000000000000000000000000000000000000000000000000000000000000000000000000000008302000001887fffffffffffffff8263328203e880a028211fd52a062dd6ec6c53d3baeefd8ada124e970aaebeda5fe02a0b91c9e61488d079c5588f493707f8d1f8cf800184487b0e6d94095e7baea6a6c7c4c2dfeb977efac326af552d878440e7cc29b8697fffffffffffffffffffffffffffffffffffffffffffffffffffffffffffffffff6251437f0000000000000000000000010000000000000000000000000000000000000000437f000000000000000000000000fffffffffffffffffffffffffffffffffffffffff1141ba08a24f7b36a4e5548cc0e56b7a78b148301ad27900c07439b3cae2ae5783cf368a03397e8c8aa0186e4aaf59e7c2f8189a171591af6e8b0dcc078843a736ca8fd52c0",
                "transactions" : [
                    {
                        "data" : "0x7fffffffffffffffffffffffffffffffffffffffffffffffffffffffffffffffff6251437f0000000000000000000000010000000000000000000000000000000000000000437f000000000000000000000000fffffffffffffffffffffffffffffffffffffffff114",
                        "gasLimit" : "0x487b0e6d",
                        "gasPrice" : "0x01",
                        "nonce" : "0x00",
                        "r" : "0x8a24f7b36a4e5548cc0e56b7a78b148301ad27900c07439b3cae2ae5783cf368",
                        "s" : "0x3397e8c8aa0186e4aaf59e7c2f8189a171591af6e8b0dcc078843a736ca8fd52",
                        "to" : "0x095e7baea6a6c7c4c2dfeb977efac326af552d87",
                        "v" : "0x1b",
                        "value" : "0x40e7cc29"
                    }
                ],
                "uncleHeaders" : [
                ]
            }
        ],
        "genesisBlockHeader" : {
            "bloom" : "0x00000000000000000000000000000000000000000000000000000000000000000000000000000000000000000000000000000000000000000000000000000000000000000000000000000000000000000000000000000000000000000000000000000000000000000000000000000000000000000000000000000000000000000000000000000000000000000000000000000000000000000000000000000000000000000000000000000000000000000000000000000000000000000000000000000000000000000000000000000000000000000000000000000000000000000000000000000000000000000000000000000000000000000000000000000000",
            "coinbase" : "0x945304eb96065b2a98b57a48a06ae28d285a71b5",
            "difficulty" : "0x020000",
            "extraData" : "0x42",
            "gasLimit" : "0x7fffffffffffffff",
            "gasUsed" : "0x00",
            "hash" : "0x4093b2e5094fa21c523e333175ac081d812482f914681dd2df0227cecd9c60d7",
            "mixHash" : "0x56e81f171bcc55a6ff8345e692c0f86e5b48e01b996cadc001622fb5e363b421",
            "nonce" : "0x0102030405060708",
            "number" : "0x00",
            "parentHash" : "0x0000000000000000000000000000000000000000000000000000000000000000",
            "receiptTrie" : "0x56e81f171bcc55a6ff8345e692c0f86e5b48e01b996cadc001622fb5e363b421",
            "stateRoot" : "0x2d93a00dba208cbd6892edfd3e8e1105f171712d9beb2021d2af61c7a273d383",
            "timestamp" : "0x03b6",
            "transactionsTrie" : "0x56e81f171bcc55a6ff8345e692c0f86e5b48e01b996cadc001622fb5e363b421",
            "uncleHash" : "0x1dcc4de8dec75d7aab85b567b6ccd41ad312451b948a7413f0a142fd40d49347"
        },
        "genesisRLP" : "0xf901fff901faa00000000000000000000000000000000000000000000000000000000000000000a01dcc4de8dec75d7aab85b567b6ccd41ad312451b948a7413f0a142fd40d4934794945304eb96065b2a98b57a48a06ae28d285a71b5a02d93a00dba208cbd6892edfd3e8e1105f171712d9beb2021d2af61c7a273d383a056e81f171bcc55a6ff8345e692c0f86e5b48e01b996cadc001622fb5e363b421a056e81f171bcc55a6ff8345e692c0f86e5b48e01b996cadc001622fb5e363b421b90100000000000000000000000000000000000000000000000000000000000000000000000000000000000000000000000000000000000000000000000000000000000000000000000000000000000000000000000000000000000000000000000000000000000000000000000000000000000000000000000000000000000000000000000000000000000000000000000000000000000000000000000000000000000000000000000000000000000000000000000000000000000000000000000000000000000000000000000000000000000000000000000000000000000000000000000000000000000000000000000000000000000000000000000000000000008302000080887fffffffffffffff808203b642a056e81f171bcc55a6ff8345e692c0f86e5b48e01b996cadc001622fb5e363b421880102030405060708c0c0",
        "lastblockhash" : "0x9b80337822aa68e21cdd9900b8081cb2f43fe41d808a00577fa5ab252fd7ffa2",
        "network" : "EIP150",
        "postState" : {
            "0x095e7baea6a6c7c4c2dfeb977efac326af552d87" : {
                "balance" : "0x40e7cc29",
                "code" : "0x7fffffffffffffffffffffffffffffffffffffffffffffffffffffffffffffffff6251437f0000000000000000000000010000000000000000000000000000000000000000437f000000000000000000000000fffffffffffffffffffffffffffffffffffffffff11460005155",
                "nonce" : "0x00",
                "storage" : {
                }
            },
            "0x945304eb96065b2a98b57a48a06ae28d285a71b5" : {
                "balance" : "0x4563918244f46360",
                "code" : "0x6000355415600957005b60203560003555",
                "nonce" : "0x00",
                "storage" : {
                }
            },
            "0xa94f5374fce5edbc8e2a8697c15331677e6ebf0b" : {
                "balance" : "0x0de0b6b3667bd0a5",
                "code" : "",
                "nonce" : "0x01",
                "storage" : {
                }
            }
        },
        "pre" : {
            "0x095e7baea6a6c7c4c2dfeb977efac326af552d87" : {
                "balance" : "0x00",
                "code" : "0x7fffffffffffffffffffffffffffffffffffffffffffffffffffffffffffffffff6251437f0000000000000000000000010000000000000000000000000000000000000000437f000000000000000000000000fffffffffffffffffffffffffffffffffffffffff11460005155",
                "nonce" : "0x00",
                "storage" : {
                }
            },
            "0x945304eb96065b2a98b57a48a06ae28d285a71b5" : {
                "balance" : "0x2e",
                "code" : "0x6000355415600957005b60203560003555",
                "nonce" : "0x00",
                "storage" : {
                }
            },
            "0xa94f5374fce5edbc8e2a8697c15331677e6ebf0b" : {
                "balance" : "0x0de0b6b3a7640000",
                "code" : "",
                "nonce" : "0x00",
                "storage" : {
                }
            }
        }
    },
    "randomStatetest414_d0g0v0_EIP158" : {
        "blocks" : [
            {
                "blockHeader" : {
                    "bloom" : "0x00000000000000000000000000000000000000000000000000000000000000000000000000000000000000000000000000000000000000000000000000000000000000000000000000000000000000000000000000000000000000000000000000000000000000000000000000000000000000000000000000000000000000000000000000000000000000000000000000000000000000000000000000000000000000000000000000000000000000000000000000000000000000000000000000000000000000000000000000000000000000000000000000000000000000000000000000000000000000000000000000000000000000000000000000000000",
                    "coinbase" : "0x945304eb96065b2a98b57a48a06ae28d285a71b5",
                    "difficulty" : "0x020000",
                    "extraData" : "",
                    "gasLimit" : "0x7fffffffffffffff",
                    "gasUsed" : "0x6332",
                    "hash" : "0xf834b12d63df7703c8fa028cc1fe2606c181ffc7bd773d488c9586b6539a935a",
                    "mixHash" : "0xb11662fee054bda26fc1d98a4ddd0cac2243b8b58a4074541d829e6c6fc52108",
                    "nonce" : "0x9a05373eedc90aa2",
                    "number" : "0x01",
                    "parentHash" : "0x4093b2e5094fa21c523e333175ac081d812482f914681dd2df0227cecd9c60d7",
                    "receiptTrie" : "0x2084d82ca476403abc550bca9cece3be585a0f498d21f5fac93a269778c67a75",
                    "stateRoot" : "0x710d7f48085160509bd3ed9855f3953c3bc16a80c5788b0a2188cf04826d8f52",
                    "timestamp" : "0x03e8",
                    "transactionsTrie" : "0x52011debc6ff8851f013ce864b580caf00171a9759ea9f838e9f81314f06ee07",
                    "uncleHash" : "0x1dcc4de8dec75d7aab85b567b6ccd41ad312451b948a7413f0a142fd40d49347"
                },
                "rlp" : "0xf902d3f901fca04093b2e5094fa21c523e333175ac081d812482f914681dd2df0227cecd9c60d7a01dcc4de8dec75d7aab85b567b6ccd41ad312451b948a7413f0a142fd40d4934794945304eb96065b2a98b57a48a06ae28d285a71b5a0710d7f48085160509bd3ed9855f3953c3bc16a80c5788b0a2188cf04826d8f52a052011debc6ff8851f013ce864b580caf00171a9759ea9f838e9f81314f06ee07a02084d82ca476403abc550bca9cece3be585a0f498d21f5fac93a269778c67a75b90100000000000000000000000000000000000000000000000000000000000000000000000000000000000000000000000000000000000000000000000000000000000000000000000000000000000000000000000000000000000000000000000000000000000000000000000000000000000000000000000000000000000000000000000000000000000000000000000000000000000000000000000000000000000000000000000000000000000000000000000000000000000000000000000000000000000000000000000000000000000000000000000000000000000000000000000000000000000000000000000000000000000000000000000000000000008302000001887fffffffffffffff8263328203e880a0b11662fee054bda26fc1d98a4ddd0cac2243b8b58a4074541d829e6c6fc52108889a05373eedc90aa2f8d1f8cf800184487b0e6d94095e7baea6a6c7c4c2dfeb977efac326af552d878440e7cc29b8697fffffffffffffffffffffffffffffffffffffffffffffffffffffffffffffffff6251437f0000000000000000000000010000000000000000000000000000000000000000437f000000000000000000000000fffffffffffffffffffffffffffffffffffffffff1141ba08a24f7b36a4e5548cc0e56b7a78b148301ad27900c07439b3cae2ae5783cf368a03397e8c8aa0186e4aaf59e7c2f8189a171591af6e8b0dcc078843a736ca8fd52c0",
                "transactions" : [
                    {
                        "data" : "0x7fffffffffffffffffffffffffffffffffffffffffffffffffffffffffffffffff6251437f0000000000000000000000010000000000000000000000000000000000000000437f000000000000000000000000fffffffffffffffffffffffffffffffffffffffff114",
                        "gasLimit" : "0x487b0e6d",
                        "gasPrice" : "0x01",
                        "nonce" : "0x00",
                        "r" : "0x8a24f7b36a4e5548cc0e56b7a78b148301ad27900c07439b3cae2ae5783cf368",
                        "s" : "0x3397e8c8aa0186e4aaf59e7c2f8189a171591af6e8b0dcc078843a736ca8fd52",
                        "to" : "0x095e7baea6a6c7c4c2dfeb977efac326af552d87",
                        "v" : "0x1b",
                        "value" : "0x40e7cc29"
                    }
                ],
                "uncleHeaders" : [
                ]
            }
        ],
        "genesisBlockHeader" : {
            "bloom" : "0x00000000000000000000000000000000000000000000000000000000000000000000000000000000000000000000000000000000000000000000000000000000000000000000000000000000000000000000000000000000000000000000000000000000000000000000000000000000000000000000000000000000000000000000000000000000000000000000000000000000000000000000000000000000000000000000000000000000000000000000000000000000000000000000000000000000000000000000000000000000000000000000000000000000000000000000000000000000000000000000000000000000000000000000000000000000",
            "coinbase" : "0x945304eb96065b2a98b57a48a06ae28d285a71b5",
            "difficulty" : "0x020000",
            "extraData" : "0x42",
            "gasLimit" : "0x7fffffffffffffff",
            "gasUsed" : "0x00",
            "hash" : "0x4093b2e5094fa21c523e333175ac081d812482f914681dd2df0227cecd9c60d7",
            "mixHash" : "0x56e81f171bcc55a6ff8345e692c0f86e5b48e01b996cadc001622fb5e363b421",
            "nonce" : "0x0102030405060708",
            "number" : "0x00",
            "parentHash" : "0x0000000000000000000000000000000000000000000000000000000000000000",
            "receiptTrie" : "0x56e81f171bcc55a6ff8345e692c0f86e5b48e01b996cadc001622fb5e363b421",
            "stateRoot" : "0x2d93a00dba208cbd6892edfd3e8e1105f171712d9beb2021d2af61c7a273d383",
            "timestamp" : "0x03b6",
            "transactionsTrie" : "0x56e81f171bcc55a6ff8345e692c0f86e5b48e01b996cadc001622fb5e363b421",
            "uncleHash" : "0x1dcc4de8dec75d7aab85b567b6ccd41ad312451b948a7413f0a142fd40d49347"
        },
        "genesisRLP" : "0xf901fff901faa00000000000000000000000000000000000000000000000000000000000000000a01dcc4de8dec75d7aab85b567b6ccd41ad312451b948a7413f0a142fd40d4934794945304eb96065b2a98b57a48a06ae28d285a71b5a02d93a00dba208cbd6892edfd3e8e1105f171712d9beb2021d2af61c7a273d383a056e81f171bcc55a6ff8345e692c0f86e5b48e01b996cadc001622fb5e363b421a056e81f171bcc55a6ff8345e692c0f86e5b48e01b996cadc001622fb5e363b421b90100000000000000000000000000000000000000000000000000000000000000000000000000000000000000000000000000000000000000000000000000000000000000000000000000000000000000000000000000000000000000000000000000000000000000000000000000000000000000000000000000000000000000000000000000000000000000000000000000000000000000000000000000000000000000000000000000000000000000000000000000000000000000000000000000000000000000000000000000000000000000000000000000000000000000000000000000000000000000000000000000000000000000000000000000000000008302000080887fffffffffffffff808203b642a056e81f171bcc55a6ff8345e692c0f86e5b48e01b996cadc001622fb5e363b421880102030405060708c0c0",
        "lastblockhash" : "0xf834b12d63df7703c8fa028cc1fe2606c181ffc7bd773d488c9586b6539a935a",
        "network" : "EIP158",
        "postState" : {
            "0x095e7baea6a6c7c4c2dfeb977efac326af552d87" : {
                "balance" : "0x40e7cc29",
                "code" : "0x7fffffffffffffffffffffffffffffffffffffffffffffffffffffffffffffffff6251437f0000000000000000000000010000000000000000000000000000000000000000437f000000000000000000000000fffffffffffffffffffffffffffffffffffffffff11460005155",
                "nonce" : "0x00",
                "storage" : {
                }
            },
            "0x945304eb96065b2a98b57a48a06ae28d285a71b5" : {
                "balance" : "0x4563918244f46360",
                "code" : "0x6000355415600957005b60203560003555",
                "nonce" : "0x00",
                "storage" : {
                }
            },
            "0xa94f5374fce5edbc8e2a8697c15331677e6ebf0b" : {
                "balance" : "0x0de0b6b3667bd0a5",
                "code" : "",
                "nonce" : "0x01",
                "storage" : {
                }
            }
        },
        "pre" : {
            "0x095e7baea6a6c7c4c2dfeb977efac326af552d87" : {
                "balance" : "0x00",
                "code" : "0x7fffffffffffffffffffffffffffffffffffffffffffffffffffffffffffffffff6251437f0000000000000000000000010000000000000000000000000000000000000000437f000000000000000000000000fffffffffffffffffffffffffffffffffffffffff11460005155",
                "nonce" : "0x00",
                "storage" : {
                }
            },
            "0x945304eb96065b2a98b57a48a06ae28d285a71b5" : {
                "balance" : "0x2e",
                "code" : "0x6000355415600957005b60203560003555",
                "nonce" : "0x00",
                "storage" : {
                }
            },
            "0xa94f5374fce5edbc8e2a8697c15331677e6ebf0b" : {
                "balance" : "0x0de0b6b3a7640000",
                "code" : "",
                "nonce" : "0x00",
                "storage" : {
                }
            }
        }
    },
    "randomStatetest414_d0g0v0_Frontier" : {
        "blocks" : [
            {
                "blockHeader" : {
                    "bloom" : "0x00000000000000000000000000000000000000000000000000000000000000000000000000000000000000000000000000000000000000000000000000000000000000000000000000000000000000000000000000000000000000000000000000000000000000000000000000000000000000000000000000000000000000000000000000000000000000000000000000000000000000000000000000000000000000000000000000000000000000000000000000000000000000000000000000000000000000000000000000000000000000000000000000000000000000000000000000000000000000000000000000000000000000000000000000000000",
                    "coinbase" : "0x945304eb96065b2a98b57a48a06ae28d285a71b5",
                    "difficulty" : "0x020000",
                    "extraData" : "",
                    "gasLimit" : "0x7fffffffffffffff",
                    "gasUsed" : "0x6332",
                    "hash" : "0x5dd38a2d8c653c3f0fef3d37a4340dd729d4efbc945d3e5c442e5ef0c39ad739",
                    "mixHash" : "0xc4addbb66ba20f3942671b7457a07aed68a4f88b51b3de9a7db66f3af8d05dea",
                    "nonce" : "0x9125bae3d992c12d",
                    "number" : "0x01",
                    "parentHash" : "0x4093b2e5094fa21c523e333175ac081d812482f914681dd2df0227cecd9c60d7",
                    "receiptTrie" : "0x2084d82ca476403abc550bca9cece3be585a0f498d21f5fac93a269778c67a75",
                    "stateRoot" : "0x710d7f48085160509bd3ed9855f3953c3bc16a80c5788b0a2188cf04826d8f52",
                    "timestamp" : "0x03e8",
                    "transactionsTrie" : "0x52011debc6ff8851f013ce864b580caf00171a9759ea9f838e9f81314f06ee07",
                    "uncleHash" : "0x1dcc4de8dec75d7aab85b567b6ccd41ad312451b948a7413f0a142fd40d49347"
                },
                "rlp" : "0xf902d3f901fca04093b2e5094fa21c523e333175ac081d812482f914681dd2df0227cecd9c60d7a01dcc4de8dec75d7aab85b567b6ccd41ad312451b948a7413f0a142fd40d4934794945304eb96065b2a98b57a48a06ae28d285a71b5a0710d7f48085160509bd3ed9855f3953c3bc16a80c5788b0a2188cf04826d8f52a052011debc6ff8851f013ce864b580caf00171a9759ea9f838e9f81314f06ee07a02084d82ca476403abc550bca9cece3be585a0f498d21f5fac93a269778c67a75b90100000000000000000000000000000000000000000000000000000000000000000000000000000000000000000000000000000000000000000000000000000000000000000000000000000000000000000000000000000000000000000000000000000000000000000000000000000000000000000000000000000000000000000000000000000000000000000000000000000000000000000000000000000000000000000000000000000000000000000000000000000000000000000000000000000000000000000000000000000000000000000000000000000000000000000000000000000000000000000000000000000000000000000000000000000000008302000001887fffffffffffffff8263328203e880a0c4addbb66ba20f3942671b7457a07aed68a4f88b51b3de9a7db66f3af8d05dea889125bae3d992c12df8d1f8cf800184487b0e6d94095e7baea6a6c7c4c2dfeb977efac326af552d878440e7cc29b8697fffffffffffffffffffffffffffffffffffffffffffffffffffffffffffffffff6251437f0000000000000000000000010000000000000000000000000000000000000000437f000000000000000000000000fffffffffffffffffffffffffffffffffffffffff1141ba08a24f7b36a4e5548cc0e56b7a78b148301ad27900c07439b3cae2ae5783cf368a03397e8c8aa0186e4aaf59e7c2f8189a171591af6e8b0dcc078843a736ca8fd52c0",
                "transactions" : [
                    {
                        "data" : "0x7fffffffffffffffffffffffffffffffffffffffffffffffffffffffffffffffff6251437f0000000000000000000000010000000000000000000000000000000000000000437f000000000000000000000000fffffffffffffffffffffffffffffffffffffffff114",
                        "gasLimit" : "0x487b0e6d",
                        "gasPrice" : "0x01",
                        "nonce" : "0x00",
                        "r" : "0x8a24f7b36a4e5548cc0e56b7a78b148301ad27900c07439b3cae2ae5783cf368",
                        "s" : "0x3397e8c8aa0186e4aaf59e7c2f8189a171591af6e8b0dcc078843a736ca8fd52",
                        "to" : "0x095e7baea6a6c7c4c2dfeb977efac326af552d87",
                        "v" : "0x1b",
                        "value" : "0x40e7cc29"
                    }
                ],
                "uncleHeaders" : [
                ]
            }
        ],
        "genesisBlockHeader" : {
            "bloom" : "0x00000000000000000000000000000000000000000000000000000000000000000000000000000000000000000000000000000000000000000000000000000000000000000000000000000000000000000000000000000000000000000000000000000000000000000000000000000000000000000000000000000000000000000000000000000000000000000000000000000000000000000000000000000000000000000000000000000000000000000000000000000000000000000000000000000000000000000000000000000000000000000000000000000000000000000000000000000000000000000000000000000000000000000000000000000000",
            "coinbase" : "0x945304eb96065b2a98b57a48a06ae28d285a71b5",
            "difficulty" : "0x020000",
            "extraData" : "0x42",
            "gasLimit" : "0x7fffffffffffffff",
            "gasUsed" : "0x00",
            "hash" : "0x4093b2e5094fa21c523e333175ac081d812482f914681dd2df0227cecd9c60d7",
            "mixHash" : "0x56e81f171bcc55a6ff8345e692c0f86e5b48e01b996cadc001622fb5e363b421",
            "nonce" : "0x0102030405060708",
            "number" : "0x00",
            "parentHash" : "0x0000000000000000000000000000000000000000000000000000000000000000",
            "receiptTrie" : "0x56e81f171bcc55a6ff8345e692c0f86e5b48e01b996cadc001622fb5e363b421",
            "stateRoot" : "0x2d93a00dba208cbd6892edfd3e8e1105f171712d9beb2021d2af61c7a273d383",
            "timestamp" : "0x03b6",
            "transactionsTrie" : "0x56e81f171bcc55a6ff8345e692c0f86e5b48e01b996cadc001622fb5e363b421",
            "uncleHash" : "0x1dcc4de8dec75d7aab85b567b6ccd41ad312451b948a7413f0a142fd40d49347"
        },
        "genesisRLP" : "0xf901fff901faa00000000000000000000000000000000000000000000000000000000000000000a01dcc4de8dec75d7aab85b567b6ccd41ad312451b948a7413f0a142fd40d4934794945304eb96065b2a98b57a48a06ae28d285a71b5a02d93a00dba208cbd6892edfd3e8e1105f171712d9beb2021d2af61c7a273d383a056e81f171bcc55a6ff8345e692c0f86e5b48e01b996cadc001622fb5e363b421a056e81f171bcc55a6ff8345e692c0f86e5b48e01b996cadc001622fb5e363b421b90100000000000000000000000000000000000000000000000000000000000000000000000000000000000000000000000000000000000000000000000000000000000000000000000000000000000000000000000000000000000000000000000000000000000000000000000000000000000000000000000000000000000000000000000000000000000000000000000000000000000000000000000000000000000000000000000000000000000000000000000000000000000000000000000000000000000000000000000000000000000000000000000000000000000000000000000000000000000000000000000000000000000000000000000000000000008302000080887fffffffffffffff808203b642a056e81f171bcc55a6ff8345e692c0f86e5b48e01b996cadc001622fb5e363b421880102030405060708c0c0",
        "lastblockhash" : "0x5dd38a2d8c653c3f0fef3d37a4340dd729d4efbc945d3e5c442e5ef0c39ad739",
        "network" : "Frontier",
        "postState" : {
            "0x095e7baea6a6c7c4c2dfeb977efac326af552d87" : {
                "balance" : "0x40e7cc29",
                "code" : "0x7fffffffffffffffffffffffffffffffffffffffffffffffffffffffffffffffff6251437f0000000000000000000000010000000000000000000000000000000000000000437f000000000000000000000000fffffffffffffffffffffffffffffffffffffffff11460005155",
                "nonce" : "0x00",
                "storage" : {
                }
            },
            "0x945304eb96065b2a98b57a48a06ae28d285a71b5" : {
                "balance" : "0x4563918244f46360",
                "code" : "0x6000355415600957005b60203560003555",
                "nonce" : "0x00",
                "storage" : {
                }
            },
            "0xa94f5374fce5edbc8e2a8697c15331677e6ebf0b" : {
                "balance" : "0x0de0b6b3667bd0a5",
                "code" : "",
                "nonce" : "0x01",
                "storage" : {
                }
            }
        },
        "pre" : {
            "0x095e7baea6a6c7c4c2dfeb977efac326af552d87" : {
                "balance" : "0x00",
                "code" : "0x7fffffffffffffffffffffffffffffffffffffffffffffffffffffffffffffffff6251437f0000000000000000000000010000000000000000000000000000000000000000437f000000000000000000000000fffffffffffffffffffffffffffffffffffffffff11460005155",
                "nonce" : "0x00",
                "storage" : {
                }
            },
            "0x945304eb96065b2a98b57a48a06ae28d285a71b5" : {
                "balance" : "0x2e",
                "code" : "0x6000355415600957005b60203560003555",
                "nonce" : "0x00",
                "storage" : {
                }
            },
            "0xa94f5374fce5edbc8e2a8697c15331677e6ebf0b" : {
                "balance" : "0x0de0b6b3a7640000",
                "code" : "",
                "nonce" : "0x00",
                "storage" : {
                }
            }
        }
    },
    "randomStatetest414_d0g0v0_Homestead" : {
        "blocks" : [
            {
                "blockHeader" : {
                    "bloom" : "0x00000000000000000000000000000000000000000000000000000000000000000000000000000000000000000000000000000000000000000000000000000000000000000000000000000000000000000000000000000000000000000000000000000000000000000000000000000000000000000000000000000000000000000000000000000000000000000000000000000000000000000000000000000000000000000000000000000000000000000000000000000000000000000000000000000000000000000000000000000000000000000000000000000000000000000000000000000000000000000000000000000000000000000000000000000000",
                    "coinbase" : "0x945304eb96065b2a98b57a48a06ae28d285a71b5",
                    "difficulty" : "0x020000",
                    "extraData" : "",
                    "gasLimit" : "0x7fffffffffffffff",
                    "gasUsed" : "0x6332",
                    "hash" : "0x37103086670a0a2a19e931dfc785ac63eeaa7e5f773cf38bca0c9eeb8076e30d",
                    "mixHash" : "0xd4ba8de267a474fbbb5c27c68a284a3448a84b914ffe8d116ff39d60605175dc",
                    "nonce" : "0xa40ea55a5b0768ce",
                    "number" : "0x01",
                    "parentHash" : "0x4093b2e5094fa21c523e333175ac081d812482f914681dd2df0227cecd9c60d7",
                    "receiptTrie" : "0x2084d82ca476403abc550bca9cece3be585a0f498d21f5fac93a269778c67a75",
                    "stateRoot" : "0x710d7f48085160509bd3ed9855f3953c3bc16a80c5788b0a2188cf04826d8f52",
                    "timestamp" : "0x03e8",
                    "transactionsTrie" : "0x52011debc6ff8851f013ce864b580caf00171a9759ea9f838e9f81314f06ee07",
                    "uncleHash" : "0x1dcc4de8dec75d7aab85b567b6ccd41ad312451b948a7413f0a142fd40d49347"
                },
                "rlp" : "0xf902d3f901fca04093b2e5094fa21c523e333175ac081d812482f914681dd2df0227cecd9c60d7a01dcc4de8dec75d7aab85b567b6ccd41ad312451b948a7413f0a142fd40d4934794945304eb96065b2a98b57a48a06ae28d285a71b5a0710d7f48085160509bd3ed9855f3953c3bc16a80c5788b0a2188cf04826d8f52a052011debc6ff8851f013ce864b580caf00171a9759ea9f838e9f81314f06ee07a02084d82ca476403abc550bca9cece3be585a0f498d21f5fac93a269778c67a75b90100000000000000000000000000000000000000000000000000000000000000000000000000000000000000000000000000000000000000000000000000000000000000000000000000000000000000000000000000000000000000000000000000000000000000000000000000000000000000000000000000000000000000000000000000000000000000000000000000000000000000000000000000000000000000000000000000000000000000000000000000000000000000000000000000000000000000000000000000000000000000000000000000000000000000000000000000000000000000000000000000000000000000000000000000000000008302000001887fffffffffffffff8263328203e880a0d4ba8de267a474fbbb5c27c68a284a3448a84b914ffe8d116ff39d60605175dc88a40ea55a5b0768cef8d1f8cf800184487b0e6d94095e7baea6a6c7c4c2dfeb977efac326af552d878440e7cc29b8697fffffffffffffffffffffffffffffffffffffffffffffffffffffffffffffffff6251437f0000000000000000000000010000000000000000000000000000000000000000437f000000000000000000000000fffffffffffffffffffffffffffffffffffffffff1141ba08a24f7b36a4e5548cc0e56b7a78b148301ad27900c07439b3cae2ae5783cf368a03397e8c8aa0186e4aaf59e7c2f8189a171591af6e8b0dcc078843a736ca8fd52c0",
                "transactions" : [
                    {
                        "data" : "0x7fffffffffffffffffffffffffffffffffffffffffffffffffffffffffffffffff6251437f0000000000000000000000010000000000000000000000000000000000000000437f000000000000000000000000fffffffffffffffffffffffffffffffffffffffff114",
                        "gasLimit" : "0x487b0e6d",
                        "gasPrice" : "0x01",
                        "nonce" : "0x00",
                        "r" : "0x8a24f7b36a4e5548cc0e56b7a78b148301ad27900c07439b3cae2ae5783cf368",
                        "s" : "0x3397e8c8aa0186e4aaf59e7c2f8189a171591af6e8b0dcc078843a736ca8fd52",
                        "to" : "0x095e7baea6a6c7c4c2dfeb977efac326af552d87",
                        "v" : "0x1b",
                        "value" : "0x40e7cc29"
                    }
                ],
                "uncleHeaders" : [
                ]
            }
        ],
        "genesisBlockHeader" : {
            "bloom" : "0x00000000000000000000000000000000000000000000000000000000000000000000000000000000000000000000000000000000000000000000000000000000000000000000000000000000000000000000000000000000000000000000000000000000000000000000000000000000000000000000000000000000000000000000000000000000000000000000000000000000000000000000000000000000000000000000000000000000000000000000000000000000000000000000000000000000000000000000000000000000000000000000000000000000000000000000000000000000000000000000000000000000000000000000000000000000",
            "coinbase" : "0x945304eb96065b2a98b57a48a06ae28d285a71b5",
            "difficulty" : "0x020000",
            "extraData" : "0x42",
            "gasLimit" : "0x7fffffffffffffff",
            "gasUsed" : "0x00",
            "hash" : "0x4093b2e5094fa21c523e333175ac081d812482f914681dd2df0227cecd9c60d7",
            "mixHash" : "0x56e81f171bcc55a6ff8345e692c0f86e5b48e01b996cadc001622fb5e363b421",
            "nonce" : "0x0102030405060708",
            "number" : "0x00",
            "parentHash" : "0x0000000000000000000000000000000000000000000000000000000000000000",
            "receiptTrie" : "0x56e81f171bcc55a6ff8345e692c0f86e5b48e01b996cadc001622fb5e363b421",
            "stateRoot" : "0x2d93a00dba208cbd6892edfd3e8e1105f171712d9beb2021d2af61c7a273d383",
            "timestamp" : "0x03b6",
            "transactionsTrie" : "0x56e81f171bcc55a6ff8345e692c0f86e5b48e01b996cadc001622fb5e363b421",
            "uncleHash" : "0x1dcc4de8dec75d7aab85b567b6ccd41ad312451b948a7413f0a142fd40d49347"
        },
        "genesisRLP" : "0xf901fff901faa00000000000000000000000000000000000000000000000000000000000000000a01dcc4de8dec75d7aab85b567b6ccd41ad312451b948a7413f0a142fd40d4934794945304eb96065b2a98b57a48a06ae28d285a71b5a02d93a00dba208cbd6892edfd3e8e1105f171712d9beb2021d2af61c7a273d383a056e81f171bcc55a6ff8345e692c0f86e5b48e01b996cadc001622fb5e363b421a056e81f171bcc55a6ff8345e692c0f86e5b48e01b996cadc001622fb5e363b421b90100000000000000000000000000000000000000000000000000000000000000000000000000000000000000000000000000000000000000000000000000000000000000000000000000000000000000000000000000000000000000000000000000000000000000000000000000000000000000000000000000000000000000000000000000000000000000000000000000000000000000000000000000000000000000000000000000000000000000000000000000000000000000000000000000000000000000000000000000000000000000000000000000000000000000000000000000000000000000000000000000000000000000000000000000000000008302000080887fffffffffffffff808203b642a056e81f171bcc55a6ff8345e692c0f86e5b48e01b996cadc001622fb5e363b421880102030405060708c0c0",
        "lastblockhash" : "0x37103086670a0a2a19e931dfc785ac63eeaa7e5f773cf38bca0c9eeb8076e30d",
        "network" : "Homestead",
        "postState" : {
            "0x095e7baea6a6c7c4c2dfeb977efac326af552d87" : {
                "balance" : "0x40e7cc29",
                "code" : "0x7fffffffffffffffffffffffffffffffffffffffffffffffffffffffffffffffff6251437f0000000000000000000000010000000000000000000000000000000000000000437f000000000000000000000000fffffffffffffffffffffffffffffffffffffffff11460005155",
                "nonce" : "0x00",
                "storage" : {
                }
            },
            "0x945304eb96065b2a98b57a48a06ae28d285a71b5" : {
                "balance" : "0x4563918244f46360",
                "code" : "0x6000355415600957005b60203560003555",
                "nonce" : "0x00",
                "storage" : {
                }
            },
            "0xa94f5374fce5edbc8e2a8697c15331677e6ebf0b" : {
                "balance" : "0x0de0b6b3667bd0a5",
                "code" : "",
                "nonce" : "0x01",
                "storage" : {
                }
            }
        },
        "pre" : {
            "0x095e7baea6a6c7c4c2dfeb977efac326af552d87" : {
                "balance" : "0x00",
                "code" : "0x7fffffffffffffffffffffffffffffffffffffffffffffffffffffffffffffffff6251437f0000000000000000000000010000000000000000000000000000000000000000437f000000000000000000000000fffffffffffffffffffffffffffffffffffffffff11460005155",
                "nonce" : "0x00",
                "storage" : {
                }
            },
            "0x945304eb96065b2a98b57a48a06ae28d285a71b5" : {
                "balance" : "0x2e",
                "code" : "0x6000355415600957005b60203560003555",
                "nonce" : "0x00",
                "storage" : {
                }
            },
            "0xa94f5374fce5edbc8e2a8697c15331677e6ebf0b" : {
                "balance" : "0x0de0b6b3a7640000",
                "code" : "",
                "nonce" : "0x00",
                "storage" : {
                }
            }
        }
    },
    "randomStatetest414_d0g0v0_Metropolis" : {
        "blocks" : [
            {
                "blockHeader" : {
                    "bloom" : "0x00000000000000000000000000000000000000000000000000000000000000000000000000000000000000000000000000000000000000000000000000000000000000000000000000000000000000000000000000000000000000000000000000000000000000000000000000000000000000000000000000000000000000000000000000000000000000000000000000000000000000000000000000000000000000000000000000000000000000000000000000000000000000000000000000000000000000000000000000000000000000000000000000000000000000000000000000000000000000000000000000000000000000000000000000000000",
                    "coinbase" : "0x945304eb96065b2a98b57a48a06ae28d285a71b5",
                    "difficulty" : "0x020000",
                    "extraData" : "",
                    "gasLimit" : "0x7fffffffffffffff",
                    "gasUsed" : "0x6332",
                    "hash" : "0x58dccbe2be6c323e2e2d5b98ed73d91073a3f84327e75af94856ce958e50e712",
                    "mixHash" : "0x6beb9576335a07704e2853bed396101667a5e298a0fdca4b749e093795b19a09",
                    "nonce" : "0xede9ceb72d3621ab",
                    "number" : "0x01",
                    "parentHash" : "0x4093b2e5094fa21c523e333175ac081d812482f914681dd2df0227cecd9c60d7",
                    "receiptTrie" : "0xbd5f4ebda1c5efb62729a18709e625656fa59581ff73b45b8c2ab4a409c338a2",
                    "stateRoot" : "0x9a3725a62625ffda18bc225edb0bb460efcf75b5bc62db81a29edf3b0379ebbd",
                    "timestamp" : "0x03e8",
                    "transactionsTrie" : "0x52011debc6ff8851f013ce864b580caf00171a9759ea9f838e9f81314f06ee07",
                    "uncleHash" : "0x1dcc4de8dec75d7aab85b567b6ccd41ad312451b948a7413f0a142fd40d49347"
                },
                "rlp" : "0xf902d3f901fca04093b2e5094fa21c523e333175ac081d812482f914681dd2df0227cecd9c60d7a01dcc4de8dec75d7aab85b567b6ccd41ad312451b948a7413f0a142fd40d4934794945304eb96065b2a98b57a48a06ae28d285a71b5a09a3725a62625ffda18bc225edb0bb460efcf75b5bc62db81a29edf3b0379ebbda052011debc6ff8851f013ce864b580caf00171a9759ea9f838e9f81314f06ee07a0bd5f4ebda1c5efb62729a18709e625656fa59581ff73b45b8c2ab4a409c338a2b90100000000000000000000000000000000000000000000000000000000000000000000000000000000000000000000000000000000000000000000000000000000000000000000000000000000000000000000000000000000000000000000000000000000000000000000000000000000000000000000000000000000000000000000000000000000000000000000000000000000000000000000000000000000000000000000000000000000000000000000000000000000000000000000000000000000000000000000000000000000000000000000000000000000000000000000000000000000000000000000000000000000000000000000000000000000008302000001887fffffffffffffff8263328203e880a06beb9576335a07704e2853bed396101667a5e298a0fdca4b749e093795b19a0988ede9ceb72d3621abf8d1f8cf800184487b0e6d94095e7baea6a6c7c4c2dfeb977efac326af552d878440e7cc29b8697fffffffffffffffffffffffffffffffffffffffffffffffffffffffffffffffff6251437f0000000000000000000000010000000000000000000000000000000000000000437f000000000000000000000000fffffffffffffffffffffffffffffffffffffffff1141ba08a24f7b36a4e5548cc0e56b7a78b148301ad27900c07439b3cae2ae5783cf368a03397e8c8aa0186e4aaf59e7c2f8189a171591af6e8b0dcc078843a736ca8fd52c0",
                "transactions" : [
                    {
                        "data" : "0x7fffffffffffffffffffffffffffffffffffffffffffffffffffffffffffffffff6251437f0000000000000000000000010000000000000000000000000000000000000000437f000000000000000000000000fffffffffffffffffffffffffffffffffffffffff114",
                        "gasLimit" : "0x487b0e6d",
                        "gasPrice" : "0x01",
                        "nonce" : "0x00",
                        "r" : "0x8a24f7b36a4e5548cc0e56b7a78b148301ad27900c07439b3cae2ae5783cf368",
                        "s" : "0x3397e8c8aa0186e4aaf59e7c2f8189a171591af6e8b0dcc078843a736ca8fd52",
                        "to" : "0x095e7baea6a6c7c4c2dfeb977efac326af552d87",
                        "v" : "0x1b",
                        "value" : "0x40e7cc29"
                    }
                ],
                "uncleHeaders" : [
                ]
            }
        ],
        "genesisBlockHeader" : {
            "bloom" : "0x00000000000000000000000000000000000000000000000000000000000000000000000000000000000000000000000000000000000000000000000000000000000000000000000000000000000000000000000000000000000000000000000000000000000000000000000000000000000000000000000000000000000000000000000000000000000000000000000000000000000000000000000000000000000000000000000000000000000000000000000000000000000000000000000000000000000000000000000000000000000000000000000000000000000000000000000000000000000000000000000000000000000000000000000000000000",
            "coinbase" : "0x945304eb96065b2a98b57a48a06ae28d285a71b5",
            "difficulty" : "0x020000",
            "extraData" : "0x42",
            "gasLimit" : "0x7fffffffffffffff",
            "gasUsed" : "0x00",
            "hash" : "0x4093b2e5094fa21c523e333175ac081d812482f914681dd2df0227cecd9c60d7",
            "mixHash" : "0x56e81f171bcc55a6ff8345e692c0f86e5b48e01b996cadc001622fb5e363b421",
            "nonce" : "0x0102030405060708",
            "number" : "0x00",
            "parentHash" : "0x0000000000000000000000000000000000000000000000000000000000000000",
            "receiptTrie" : "0x56e81f171bcc55a6ff8345e692c0f86e5b48e01b996cadc001622fb5e363b421",
            "stateRoot" : "0x2d93a00dba208cbd6892edfd3e8e1105f171712d9beb2021d2af61c7a273d383",
            "timestamp" : "0x03b6",
            "transactionsTrie" : "0x56e81f171bcc55a6ff8345e692c0f86e5b48e01b996cadc001622fb5e363b421",
            "uncleHash" : "0x1dcc4de8dec75d7aab85b567b6ccd41ad312451b948a7413f0a142fd40d49347"
        },
        "genesisRLP" : "0xf901fff901faa00000000000000000000000000000000000000000000000000000000000000000a01dcc4de8dec75d7aab85b567b6ccd41ad312451b948a7413f0a142fd40d4934794945304eb96065b2a98b57a48a06ae28d285a71b5a02d93a00dba208cbd6892edfd3e8e1105f171712d9beb2021d2af61c7a273d383a056e81f171bcc55a6ff8345e692c0f86e5b48e01b996cadc001622fb5e363b421a056e81f171bcc55a6ff8345e692c0f86e5b48e01b996cadc001622fb5e363b421b90100000000000000000000000000000000000000000000000000000000000000000000000000000000000000000000000000000000000000000000000000000000000000000000000000000000000000000000000000000000000000000000000000000000000000000000000000000000000000000000000000000000000000000000000000000000000000000000000000000000000000000000000000000000000000000000000000000000000000000000000000000000000000000000000000000000000000000000000000000000000000000000000000000000000000000000000000000000000000000000000000000000000000000000000000000000008302000080887fffffffffffffff808203b642a056e81f171bcc55a6ff8345e692c0f86e5b48e01b996cadc001622fb5e363b421880102030405060708c0c0",
        "lastblockhash" : "0x58dccbe2be6c323e2e2d5b98ed73d91073a3f84327e75af94856ce958e50e712",
        "network" : "Metropolis",
        "postState" : {
            "0x00000000000000000000000000000000000000f0" : {
                "balance" : "0x00",
                "code" : "",
                "nonce" : "0x00",
                "storage" : {
                }
            },
            "0x095e7baea6a6c7c4c2dfeb977efac326af552d87" : {
                "balance" : "0x40e7cc29",
                "code" : "0x7fffffffffffffffffffffffffffffffffffffffffffffffffffffffffffffffff6251437f0000000000000000000000010000000000000000000000000000000000000000437f000000000000000000000000fffffffffffffffffffffffffffffffffffffffff11460005155",
                "nonce" : "0x00",
                "storage" : {
                }
            },
            "0x945304eb96065b2a98b57a48a06ae28d285a71b5" : {
                "balance" : "0x4563918244f46360",
                "code" : "0x6000355415600957005b60203560003555",
                "nonce" : "0x00",
                "storage" : {
                }
            },
            "0xa94f5374fce5edbc8e2a8697c15331677e6ebf0b" : {
                "balance" : "0x0de0b6b3667bd0a5",
                "code" : "",
                "nonce" : "0x01",
                "storage" : {
                }
            }
        },
        "pre" : {
            "0x095e7baea6a6c7c4c2dfeb977efac326af552d87" : {
                "balance" : "0x00",
                "code" : "0x7fffffffffffffffffffffffffffffffffffffffffffffffffffffffffffffffff6251437f0000000000000000000000010000000000000000000000000000000000000000437f000000000000000000000000fffffffffffffffffffffffffffffffffffffffff11460005155",
                "nonce" : "0x00",
                "storage" : {
                }
            },
            "0x945304eb96065b2a98b57a48a06ae28d285a71b5" : {
                "balance" : "0x2e",
                "code" : "0x6000355415600957005b60203560003555",
                "nonce" : "0x00",
                "storage" : {
                }
            },
            "0xa94f5374fce5edbc8e2a8697c15331677e6ebf0b" : {
                "balance" : "0x0de0b6b3a7640000",
                "code" : "",
                "nonce" : "0x00",
                "storage" : {
                }
            }
        }
    }
}