{
    "randomStatetest421_d0g0v0_Byzantium" : {
        "_info" : {
            "comment" : "",
            "filledwith" : "cpp-1.3.0+commit.6e0ce939.Linux.g++",
            "lllcversion" : "Version: 0.4.18-develop.2017.9.25+commit.a72237f2.Linux.g++",
            "source" : "src/BlockchainTestsFiller/GeneralStateTests/stRandom/randomStatetest421_d0g0v0Filler.json",
            "sourceHash" : "243d632d469963efd81351c78a5daa951c20eb7f85513ab182790e8df905514c"
        },
        "blocks" : [
            {
                "blockHeader" : {
                    "bloom" : "0x00000000000000000000000000000000000000000000000000000000000000000000000000000000000000000000000000000000000000000000000000000000000000000000000000000000000000000000000000000000000000000000000000000000000000000000000000000000000000000000000000000000000000000000000000000000000000000000000000000000000000000000000000000000000000000000000000000000000000000000000000000000000000000000000000000000000000000000000000000000000000000000000000000000000000000000000000000000000000000000000000000000000000000000000000000000",
                    "coinbase" : "0x945304eb96065b2a98b57a48a06ae28d285a71b5",
                    "difficulty" : "0x020000",
                    "extraData" : "",
                    "gasLimit" : "0x7fffffffffffffff",
                    "gasUsed" : "0xb753",
                    "hash" : "0x127e97568739515fcf898e4b2a18e2ef3069d0eb98050c9accb42fec346d3329",
                    "mixHash" : "0xcb2c155b70a7a924359122a13d58639b2f7e84b69587027375d3f1716ba9dc25",
                    "nonce" : "0xb86d258747f4d4df",
                    "number" : "0x01",
                    "parentHash" : "0xf20f1b6becf80f4865619303fb05b260da256b007383f030ecd61db65ff8e418",
                    "receiptTrie" : "0x5c6a0f3c50ea4fa1dd68b495509d1fb580e00d8b6bd4c275c268a5cc6d2f2df3",
                    "stateRoot" : "0x0242c77b25f08c18f3065ded9f4879b1967ef26b1b926543da4c84b7d53471c4",
                    "timestamp" : "0x03e8",
                    "transactionsTrie" : "0xe2c26eb193c144fbf142d0fc0c8e9fd88dbaa1bc75d2c57b15e783277bfc7d7e",
                    "uncleHash" : "0x1dcc4de8dec75d7aab85b567b6ccd41ad312451b948a7413f0a142fd40d49347"
                },
                "rlp" : "0xf902dff901fca0f20f1b6becf80f4865619303fb05b260da256b007383f030ecd61db65ff8e418a01dcc4de8dec75d7aab85b567b6ccd41ad312451b948a7413f0a142fd40d4934794945304eb96065b2a98b57a48a06ae28d285a71b5a00242c77b25f08c18f3065ded9f4879b1967ef26b1b926543da4c84b7d53471c4a0e2c26eb193c144fbf142d0fc0c8e9fd88dbaa1bc75d2c57b15e783277bfc7d7ea05c6a0f3c50ea4fa1dd68b495509d1fb580e00d8b6bd4c275c268a5cc6d2f2df3b90100000000000000000000000000000000000000000000000000000000000000000000000000000000000000000000000000000000000000000000000000000000000000000000000000000000000000000000000000000000000000000000000000000000000000000000000000000000000000000000000000000000000000000000000000000000000000000000000000000000000000000000000000000000000000000000000000000000000000000000000000000000000000000000000000000000000000000000000000000000000000000000000000000000000000000000000000000000000000000000000000000000000000000000000000000000008302000001887fffffffffffffff82b7538203e880a0cb2c155b70a7a924359122a13d58639b2f7e84b69587027375d3f1716ba9dc2588b86d258747f4d4dff8ddf8db8001841418f81894095e7baea6a6c7c4c2dfeb977efac326af552d878452d1555fb875437f00000000000000000000000000000000000000000000000000000000000000007ffffffffffffffffffffffffffffffffffffffffffffffffffffffffffffffffe7fffffffffffffffffffffffffffffffffffffffffffffffffffffffffffffffff6f38454051968ff184a47d5009123197171ba0eb7ca29b17237e72bef53bbd68e65eaca6022382d42d4986a7383ce9edd30566a007e9b806fa66b42230544f480cfe8ed92c719b33bae0c253beb5e07d8a5b6af1c0",
                "transactions" : [
                    {
                        "data" : "0x437f00000000000000000000000000000000000000000000000000000000000000007ffffffffffffffffffffffffffffffffffffffffffffffffffffffffffffffffe7fffffffffffffffffffffffffffffffffffffffffffffffffffffffffffffffff6f38454051968ff184a47d500912319717",
                        "gasLimit" : "0x1418f818",
                        "gasPrice" : "0x01",
                        "nonce" : "0x00",
                        "r" : "0xeb7ca29b17237e72bef53bbd68e65eaca6022382d42d4986a7383ce9edd30566",
                        "s" : "0x07e9b806fa66b42230544f480cfe8ed92c719b33bae0c253beb5e07d8a5b6af1",
                        "to" : "0x095e7baea6a6c7c4c2dfeb977efac326af552d87",
                        "v" : "0x1b",
                        "value" : "0x52d1555f"
                    }
                ],
                "uncleHeaders" : [
                ]
            }
        ],
        "genesisBlockHeader" : {
            "bloom" : "0x00000000000000000000000000000000000000000000000000000000000000000000000000000000000000000000000000000000000000000000000000000000000000000000000000000000000000000000000000000000000000000000000000000000000000000000000000000000000000000000000000000000000000000000000000000000000000000000000000000000000000000000000000000000000000000000000000000000000000000000000000000000000000000000000000000000000000000000000000000000000000000000000000000000000000000000000000000000000000000000000000000000000000000000000000000000",
            "coinbase" : "0x945304eb96065b2a98b57a48a06ae28d285a71b5",
            "difficulty" : "0x020000",
            "extraData" : "0x42",
            "gasLimit" : "0x7fffffffffffffff",
            "gasUsed" : "0x00",
            "hash" : "0xf20f1b6becf80f4865619303fb05b260da256b007383f030ecd61db65ff8e418",
            "mixHash" : "0x56e81f171bcc55a6ff8345e692c0f86e5b48e01b996cadc001622fb5e363b421",
            "nonce" : "0x0102030405060708",
            "number" : "0x00",
            "parentHash" : "0x0000000000000000000000000000000000000000000000000000000000000000",
            "receiptTrie" : "0x56e81f171bcc55a6ff8345e692c0f86e5b48e01b996cadc001622fb5e363b421",
            "stateRoot" : "0xe7052bcef128689c98ee1eadf71ab5ab8628a9b9e21107a1ee8d8b4fe965a7f0",
            "timestamp" : "0x03b6",
            "transactionsTrie" : "0x56e81f171bcc55a6ff8345e692c0f86e5b48e01b996cadc001622fb5e363b421",
            "uncleHash" : "0x1dcc4de8dec75d7aab85b567b6ccd41ad312451b948a7413f0a142fd40d49347"
        },
        "genesisRLP" : "0xf901fff901faa00000000000000000000000000000000000000000000000000000000000000000a01dcc4de8dec75d7aab85b567b6ccd41ad312451b948a7413f0a142fd40d4934794945304eb96065b2a98b57a48a06ae28d285a71b5a0e7052bcef128689c98ee1eadf71ab5ab8628a9b9e21107a1ee8d8b4fe965a7f0a056e81f171bcc55a6ff8345e692c0f86e5b48e01b996cadc001622fb5e363b421a056e81f171bcc55a6ff8345e692c0f86e5b48e01b996cadc001622fb5e363b421b90100000000000000000000000000000000000000000000000000000000000000000000000000000000000000000000000000000000000000000000000000000000000000000000000000000000000000000000000000000000000000000000000000000000000000000000000000000000000000000000000000000000000000000000000000000000000000000000000000000000000000000000000000000000000000000000000000000000000000000000000000000000000000000000000000000000000000000000000000000000000000000000000000000000000000000000000000000000000000000000000000000000000000000000000000000000008302000080887fffffffffffffff808203b642a056e81f171bcc55a6ff8345e692c0f86e5b48e01b996cadc001622fb5e363b421880102030405060708c0c0",
        "lastblockhash" : "0x127e97568739515fcf898e4b2a18e2ef3069d0eb98050c9accb42fec346d3329",
        "network" : "Byzantium",
        "postState" : {
            "0x095e7baea6a6c7c4c2dfeb977efac326af552d87" : {
                "balance" : "0x52d1555f",
                "code" : "0x437f00000000000000000000000000000000000000000000000000000000000000007ffffffffffffffffffffffffffffffffffffffffffffffffffffffffffffffffe7fffffffffffffffffffffffffffffffffffffffffffffffffffffffffffffffff6f38454051968ff184a47d50091231971760005155",
                "nonce" : "0x00",
                "storage" : {
                    "0x00" : "0x38454051968ff184a47d500912319717"
                }
            },
            "0x945304eb96065b2a98b57a48a06ae28d285a71b5" : {
                "balance" : "0x29a2241af62cb781",
                "code" : "0x6000355415600957005b60203560003555",
                "nonce" : "0x00",
                "storage" : {
                }
            },
            "0xa94f5374fce5edbc8e2a8697c15331677e6ebf0b" : {
                "balance" : "0x0de0b6b35491f34e",
                "code" : "",
                "nonce" : "0x01",
                "storage" : {
                }
            }
        },
        "pre" : {
            "0x095e7baea6a6c7c4c2dfeb977efac326af552d87" : {
                "balance" : "0x00",
                "code" : "0x437f00000000000000000000000000000000000000000000000000000000000000007ffffffffffffffffffffffffffffffffffffffffffffffffffffffffffffffffe7fffffffffffffffffffffffffffffffffffffffffffffffffffffffffffffffff6f38454051968ff184a47d50091231971760005155",
                "nonce" : "0x00",
                "storage" : {
                }
            },
            "0x945304eb96065b2a98b57a48a06ae28d285a71b5" : {
                "balance" : "0x2e",
                "code" : "0x6000355415600957005b60203560003555",
                "nonce" : "0x00",
                "storage" : {
                }
            },
            "0xa94f5374fce5edbc8e2a8697c15331677e6ebf0b" : {
                "balance" : "0x0de0b6b3a7640000",
                "code" : "",
                "nonce" : "0x00",
                "storage" : {
                }
            }
        }
    },
    "randomStatetest421_d0g0v0_EIP150" : {
        "_info" : {
            "comment" : "",
            "filledwith" : "cpp-1.3.0+commit.6e0ce939.Linux.g++",
            "lllcversion" : "Version: 0.4.18-develop.2017.9.25+commit.a72237f2.Linux.g++",
            "source" : "src/BlockchainTestsFiller/GeneralStateTests/stRandom/randomStatetest421_d0g0v0Filler.json",
            "sourceHash" : "243d632d469963efd81351c78a5daa951c20eb7f85513ab182790e8df905514c"
        },
        "blocks" : [
            {
                "blockHeader" : {
                    "bloom" : "0x00000000000000000000000000000000000000000000000000000000000000000000000000000000000000000000000000000000000000000000000000000000000000000000000000000000000000000000000000000000000000000000000000000000000000000000000000000000000000000000000000000000000000000000000000000000000000000000000000000000000000000000000000000000000000000000000000000000000000000000000000000000000000000000000000000000000000000000000000000000000000000000000000000000000000000000000000000000000000000000000000000000000000000000000000000000",
                    "coinbase" : "0x945304eb96065b2a98b57a48a06ae28d285a71b5",
                    "difficulty" : "0x020000",
                    "extraData" : "",
                    "gasLimit" : "0x7fffffffffffffff",
                    "gasUsed" : "0xb753",
                    "hash" : "0xc73b9bd7269b8fae8be8b85db0972ec6d9a230448e30da901fe802277a5a4c4c",
                    "mixHash" : "0xb8e5fc5e8f6e9c69d2984ab48b63b7dc04ded7109fedd5527f4c5f5ac670cb8c",
                    "nonce" : "0x235b5bdd30d2da31",
                    "number" : "0x01",
                    "parentHash" : "0xf20f1b6becf80f4865619303fb05b260da256b007383f030ecd61db65ff8e418",
                    "receiptTrie" : "0x4305b2cf8d359ebfa3275eed57c1f65c6c9520f4ed859948f6469b275249e518",
                    "stateRoot" : "0x1407f8320b9ecb56da8fe206a6d1b041f50de4debe3c245b2d250a3bf6fabbe6",
                    "timestamp" : "0x03e8",
                    "transactionsTrie" : "0xe2c26eb193c144fbf142d0fc0c8e9fd88dbaa1bc75d2c57b15e783277bfc7d7e",
                    "uncleHash" : "0x1dcc4de8dec75d7aab85b567b6ccd41ad312451b948a7413f0a142fd40d49347"
                },
                "rlp" : "0xf902dff901fca0f20f1b6becf80f4865619303fb05b260da256b007383f030ecd61db65ff8e418a01dcc4de8dec75d7aab85b567b6ccd41ad312451b948a7413f0a142fd40d4934794945304eb96065b2a98b57a48a06ae28d285a71b5a01407f8320b9ecb56da8fe206a6d1b041f50de4debe3c245b2d250a3bf6fabbe6a0e2c26eb193c144fbf142d0fc0c8e9fd88dbaa1bc75d2c57b15e783277bfc7d7ea04305b2cf8d359ebfa3275eed57c1f65c6c9520f4ed859948f6469b275249e518b90100000000000000000000000000000000000000000000000000000000000000000000000000000000000000000000000000000000000000000000000000000000000000000000000000000000000000000000000000000000000000000000000000000000000000000000000000000000000000000000000000000000000000000000000000000000000000000000000000000000000000000000000000000000000000000000000000000000000000000000000000000000000000000000000000000000000000000000000000000000000000000000000000000000000000000000000000000000000000000000000000000000000000000000000000000000008302000001887fffffffffffffff82b7538203e880a0b8e5fc5e8f6e9c69d2984ab48b63b7dc04ded7109fedd5527f4c5f5ac670cb8c88235b5bdd30d2da31f8ddf8db8001841418f81894095e7baea6a6c7c4c2dfeb977efac326af552d878452d1555fb875437f00000000000000000000000000000000000000000000000000000000000000007ffffffffffffffffffffffffffffffffffffffffffffffffffffffffffffffffe7fffffffffffffffffffffffffffffffffffffffffffffffffffffffffffffffff6f38454051968ff184a47d5009123197171ba0eb7ca29b17237e72bef53bbd68e65eaca6022382d42d4986a7383ce9edd30566a007e9b806fa66b42230544f480cfe8ed92c719b33bae0c253beb5e07d8a5b6af1c0",
                "transactions" : [
                    {
                        "data" : "0x437f00000000000000000000000000000000000000000000000000000000000000007ffffffffffffffffffffffffffffffffffffffffffffffffffffffffffffffffe7fffffffffffffffffffffffffffffffffffffffffffffffffffffffffffffffff6f38454051968ff184a47d500912319717",
                        "gasLimit" : "0x1418f818",
                        "gasPrice" : "0x01",
                        "nonce" : "0x00",
                        "r" : "0xeb7ca29b17237e72bef53bbd68e65eaca6022382d42d4986a7383ce9edd30566",
                        "s" : "0x07e9b806fa66b42230544f480cfe8ed92c719b33bae0c253beb5e07d8a5b6af1",
                        "to" : "0x095e7baea6a6c7c4c2dfeb977efac326af552d87",
                        "v" : "0x1b",
                        "value" : "0x52d1555f"
                    }
                ],
                "uncleHeaders" : [
                ]
            }
        ],
        "genesisBlockHeader" : {
            "bloom" : "0x00000000000000000000000000000000000000000000000000000000000000000000000000000000000000000000000000000000000000000000000000000000000000000000000000000000000000000000000000000000000000000000000000000000000000000000000000000000000000000000000000000000000000000000000000000000000000000000000000000000000000000000000000000000000000000000000000000000000000000000000000000000000000000000000000000000000000000000000000000000000000000000000000000000000000000000000000000000000000000000000000000000000000000000000000000000",
            "coinbase" : "0x945304eb96065b2a98b57a48a06ae28d285a71b5",
            "difficulty" : "0x020000",
            "extraData" : "0x42",
            "gasLimit" : "0x7fffffffffffffff",
            "gasUsed" : "0x00",
            "hash" : "0xf20f1b6becf80f4865619303fb05b260da256b007383f030ecd61db65ff8e418",
            "mixHash" : "0x56e81f171bcc55a6ff8345e692c0f86e5b48e01b996cadc001622fb5e363b421",
            "nonce" : "0x0102030405060708",
            "number" : "0x00",
            "parentHash" : "0x0000000000000000000000000000000000000000000000000000000000000000",
            "receiptTrie" : "0x56e81f171bcc55a6ff8345e692c0f86e5b48e01b996cadc001622fb5e363b421",
            "stateRoot" : "0xe7052bcef128689c98ee1eadf71ab5ab8628a9b9e21107a1ee8d8b4fe965a7f0",
            "timestamp" : "0x03b6",
            "transactionsTrie" : "0x56e81f171bcc55a6ff8345e692c0f86e5b48e01b996cadc001622fb5e363b421",
            "uncleHash" : "0x1dcc4de8dec75d7aab85b567b6ccd41ad312451b948a7413f0a142fd40d49347"
        },
        "genesisRLP" : "0xf901fff901faa00000000000000000000000000000000000000000000000000000000000000000a01dcc4de8dec75d7aab85b567b6ccd41ad312451b948a7413f0a142fd40d4934794945304eb96065b2a98b57a48a06ae28d285a71b5a0e7052bcef128689c98ee1eadf71ab5ab8628a9b9e21107a1ee8d8b4fe965a7f0a056e81f171bcc55a6ff8345e692c0f86e5b48e01b996cadc001622fb5e363b421a056e81f171bcc55a6ff8345e692c0f86e5b48e01b996cadc001622fb5e363b421b90100000000000000000000000000000000000000000000000000000000000000000000000000000000000000000000000000000000000000000000000000000000000000000000000000000000000000000000000000000000000000000000000000000000000000000000000000000000000000000000000000000000000000000000000000000000000000000000000000000000000000000000000000000000000000000000000000000000000000000000000000000000000000000000000000000000000000000000000000000000000000000000000000000000000000000000000000000000000000000000000000000000000000000000000000000000008302000080887fffffffffffffff808203b642a056e81f171bcc55a6ff8345e692c0f86e5b48e01b996cadc001622fb5e363b421880102030405060708c0c0",
        "lastblockhash" : "0xc73b9bd7269b8fae8be8b85db0972ec6d9a230448e30da901fe802277a5a4c4c",
        "network" : "EIP150",
        "postState" : {
            "0x095e7baea6a6c7c4c2dfeb977efac326af552d87" : {
                "balance" : "0x52d1555f",
                "code" : "0x437f00000000000000000000000000000000000000000000000000000000000000007ffffffffffffffffffffffffffffffffffffffffffffffffffffffffffffffffe7fffffffffffffffffffffffffffffffffffffffffffffffffffffffffffffffff6f38454051968ff184a47d50091231971760005155",
                "nonce" : "0x00",
                "storage" : {
                    "0x00" : "0x38454051968ff184a47d500912319717"
                }
            },
            "0x945304eb96065b2a98b57a48a06ae28d285a71b5" : {
                "balance" : "0x4563918244f4b781",
                "code" : "0x6000355415600957005b60203560003555",
                "nonce" : "0x00",
                "storage" : {
                }
            },
            "0xa94f5374fce5edbc8e2a8697c15331677e6ebf0b" : {
                "balance" : "0x0de0b6b35491f34e",
                "code" : "",
                "nonce" : "0x01",
                "storage" : {
                }
            }
        },
        "pre" : {
            "0x095e7baea6a6c7c4c2dfeb977efac326af552d87" : {
                "balance" : "0x00",
                "code" : "0x437f00000000000000000000000000000000000000000000000000000000000000007ffffffffffffffffffffffffffffffffffffffffffffffffffffffffffffffffe7fffffffffffffffffffffffffffffffffffffffffffffffffffffffffffffffff6f38454051968ff184a47d50091231971760005155",
                "nonce" : "0x00",
                "storage" : {
                }
            },
            "0x945304eb96065b2a98b57a48a06ae28d285a71b5" : {
                "balance" : "0x2e",
                "code" : "0x6000355415600957005b60203560003555",
                "nonce" : "0x00",
                "storage" : {
                }
            },
            "0xa94f5374fce5edbc8e2a8697c15331677e6ebf0b" : {
                "balance" : "0x0de0b6b3a7640000",
                "code" : "",
                "nonce" : "0x00",
                "storage" : {
                }
            }
        }
    },
    "randomStatetest421_d0g0v0_EIP158" : {
        "_info" : {
            "comment" : "",
            "filledwith" : "cpp-1.3.0+commit.6e0ce939.Linux.g++",
            "lllcversion" : "Version: 0.4.18-develop.2017.9.25+commit.a72237f2.Linux.g++",
            "source" : "src/BlockchainTestsFiller/GeneralStateTests/stRandom/randomStatetest421_d0g0v0Filler.json",
            "sourceHash" : "243d632d469963efd81351c78a5daa951c20eb7f85513ab182790e8df905514c"
        },
        "blocks" : [
            {
                "blockHeader" : {
                    "bloom" : "0x00000000000000000000000000000000000000000000000000000000000000000000000000000000000000000000000000000000000000000000000000000000000000000000000000000000000000000000000000000000000000000000000000000000000000000000000000000000000000000000000000000000000000000000000000000000000000000000000000000000000000000000000000000000000000000000000000000000000000000000000000000000000000000000000000000000000000000000000000000000000000000000000000000000000000000000000000000000000000000000000000000000000000000000000000000000",
                    "coinbase" : "0x945304eb96065b2a98b57a48a06ae28d285a71b5",
                    "difficulty" : "0x020000",
                    "extraData" : "",
                    "gasLimit" : "0x7fffffffffffffff",
                    "gasUsed" : "0xb753",
                    "hash" : "0x4dfcb0490a642b2bed813acc3d02754abbe37bdac373f65c6190654a374a175f",
                    "mixHash" : "0xf2a5a6744ccf06e52c3b3b1cd4a09ea9a590760727d51d36e8e4b8fc241493ca",
                    "nonce" : "0x7b0ff0dfa0b1b54f",
                    "number" : "0x01",
                    "parentHash" : "0xf20f1b6becf80f4865619303fb05b260da256b007383f030ecd61db65ff8e418",
                    "receiptTrie" : "0x4305b2cf8d359ebfa3275eed57c1f65c6c9520f4ed859948f6469b275249e518",
                    "stateRoot" : "0x1407f8320b9ecb56da8fe206a6d1b041f50de4debe3c245b2d250a3bf6fabbe6",
                    "timestamp" : "0x03e8",
                    "transactionsTrie" : "0xe2c26eb193c144fbf142d0fc0c8e9fd88dbaa1bc75d2c57b15e783277bfc7d7e",
                    "uncleHash" : "0x1dcc4de8dec75d7aab85b567b6ccd41ad312451b948a7413f0a142fd40d49347"
                },
                "rlp" : "0xf902dff901fca0f20f1b6becf80f4865619303fb05b260da256b007383f030ecd61db65ff8e418a01dcc4de8dec75d7aab85b567b6ccd41ad312451b948a7413f0a142fd40d4934794945304eb96065b2a98b57a48a06ae28d285a71b5a01407f8320b9ecb56da8fe206a6d1b041f50de4debe3c245b2d250a3bf6fabbe6a0e2c26eb193c144fbf142d0fc0c8e9fd88dbaa1bc75d2c57b15e783277bfc7d7ea04305b2cf8d359ebfa3275eed57c1f65c6c9520f4ed859948f6469b275249e518b90100000000000000000000000000000000000000000000000000000000000000000000000000000000000000000000000000000000000000000000000000000000000000000000000000000000000000000000000000000000000000000000000000000000000000000000000000000000000000000000000000000000000000000000000000000000000000000000000000000000000000000000000000000000000000000000000000000000000000000000000000000000000000000000000000000000000000000000000000000000000000000000000000000000000000000000000000000000000000000000000000000000000000000000000000000000008302000001887fffffffffffffff82b7538203e880a0f2a5a6744ccf06e52c3b3b1cd4a09ea9a590760727d51d36e8e4b8fc241493ca887b0ff0dfa0b1b54ff8ddf8db8001841418f81894095e7baea6a6c7c4c2dfeb977efac326af552d878452d1555fb875437f00000000000000000000000000000000000000000000000000000000000000007ffffffffffffffffffffffffffffffffffffffffffffffffffffffffffffffffe7fffffffffffffffffffffffffffffffffffffffffffffffffffffffffffffffff6f38454051968ff184a47d5009123197171ba0eb7ca29b17237e72bef53bbd68e65eaca6022382d42d4986a7383ce9edd30566a007e9b806fa66b42230544f480cfe8ed92c719b33bae0c253beb5e07d8a5b6af1c0",
                "transactions" : [
                    {
                        "data" : "0x437f00000000000000000000000000000000000000000000000000000000000000007ffffffffffffffffffffffffffffffffffffffffffffffffffffffffffffffffe7fffffffffffffffffffffffffffffffffffffffffffffffffffffffffffffffff6f38454051968ff184a47d500912319717",
                        "gasLimit" : "0x1418f818",
                        "gasPrice" : "0x01",
                        "nonce" : "0x00",
                        "r" : "0xeb7ca29b17237e72bef53bbd68e65eaca6022382d42d4986a7383ce9edd30566",
                        "s" : "0x07e9b806fa66b42230544f480cfe8ed92c719b33bae0c253beb5e07d8a5b6af1",
                        "to" : "0x095e7baea6a6c7c4c2dfeb977efac326af552d87",
                        "v" : "0x1b",
                        "value" : "0x52d1555f"
                    }
                ],
                "uncleHeaders" : [
                ]
            }
        ],
        "genesisBlockHeader" : {
            "bloom" : "0x00000000000000000000000000000000000000000000000000000000000000000000000000000000000000000000000000000000000000000000000000000000000000000000000000000000000000000000000000000000000000000000000000000000000000000000000000000000000000000000000000000000000000000000000000000000000000000000000000000000000000000000000000000000000000000000000000000000000000000000000000000000000000000000000000000000000000000000000000000000000000000000000000000000000000000000000000000000000000000000000000000000000000000000000000000000",
            "coinbase" : "0x945304eb96065b2a98b57a48a06ae28d285a71b5",
            "difficulty" : "0x020000",
            "extraData" : "0x42",
            "gasLimit" : "0x7fffffffffffffff",
            "gasUsed" : "0x00",
            "hash" : "0xf20f1b6becf80f4865619303fb05b260da256b007383f030ecd61db65ff8e418",
            "mixHash" : "0x56e81f171bcc55a6ff8345e692c0f86e5b48e01b996cadc001622fb5e363b421",
            "nonce" : "0x0102030405060708",
            "number" : "0x00",
            "parentHash" : "0x0000000000000000000000000000000000000000000000000000000000000000",
            "receiptTrie" : "0x56e81f171bcc55a6ff8345e692c0f86e5b48e01b996cadc001622fb5e363b421",
            "stateRoot" : "0xe7052bcef128689c98ee1eadf71ab5ab8628a9b9e21107a1ee8d8b4fe965a7f0",
            "timestamp" : "0x03b6",
            "transactionsTrie" : "0x56e81f171bcc55a6ff8345e692c0f86e5b48e01b996cadc001622fb5e363b421",
            "uncleHash" : "0x1dcc4de8dec75d7aab85b567b6ccd41ad312451b948a7413f0a142fd40d49347"
        },
        "genesisRLP" : "0xf901fff901faa00000000000000000000000000000000000000000000000000000000000000000a01dcc4de8dec75d7aab85b567b6ccd41ad312451b948a7413f0a142fd40d4934794945304eb96065b2a98b57a48a06ae28d285a71b5a0e7052bcef128689c98ee1eadf71ab5ab8628a9b9e21107a1ee8d8b4fe965a7f0a056e81f171bcc55a6ff8345e692c0f86e5b48e01b996cadc001622fb5e363b421a056e81f171bcc55a6ff8345e692c0f86e5b48e01b996cadc001622fb5e363b421b90100000000000000000000000000000000000000000000000000000000000000000000000000000000000000000000000000000000000000000000000000000000000000000000000000000000000000000000000000000000000000000000000000000000000000000000000000000000000000000000000000000000000000000000000000000000000000000000000000000000000000000000000000000000000000000000000000000000000000000000000000000000000000000000000000000000000000000000000000000000000000000000000000000000000000000000000000000000000000000000000000000000000000000000000000000000008302000080887fffffffffffffff808203b642a056e81f171bcc55a6ff8345e692c0f86e5b48e01b996cadc001622fb5e363b421880102030405060708c0c0",
        "lastblockhash" : "0x4dfcb0490a642b2bed813acc3d02754abbe37bdac373f65c6190654a374a175f",
        "network" : "EIP158",
        "postState" : {
            "0x095e7baea6a6c7c4c2dfeb977efac326af552d87" : {
                "balance" : "0x52d1555f",
                "code" : "0x437f00000000000000000000000000000000000000000000000000000000000000007ffffffffffffffffffffffffffffffffffffffffffffffffffffffffffffffffe7fffffffffffffffffffffffffffffffffffffffffffffffffffffffffffffffff6f38454051968ff184a47d50091231971760005155",
                "nonce" : "0x00",
                "storage" : {
                    "0x00" : "0x38454051968ff184a47d500912319717"
                }
            },
            "0x945304eb96065b2a98b57a48a06ae28d285a71b5" : {
                "balance" : "0x4563918244f4b781",
                "code" : "0x6000355415600957005b60203560003555",
                "nonce" : "0x00",
                "storage" : {
                }
            },
            "0xa94f5374fce5edbc8e2a8697c15331677e6ebf0b" : {
                "balance" : "0x0de0b6b35491f34e",
                "code" : "",
                "nonce" : "0x01",
                "storage" : {
                }
            }
        },
        "pre" : {
            "0x095e7baea6a6c7c4c2dfeb977efac326af552d87" : {
                "balance" : "0x00",
                "code" : "0x437f00000000000000000000000000000000000000000000000000000000000000007ffffffffffffffffffffffffffffffffffffffffffffffffffffffffffffffffe7fffffffffffffffffffffffffffffffffffffffffffffffffffffffffffffffff6f38454051968ff184a47d50091231971760005155",
                "nonce" : "0x00",
                "storage" : {
                }
            },
            "0x945304eb96065b2a98b57a48a06ae28d285a71b5" : {
                "balance" : "0x2e",
                "code" : "0x6000355415600957005b60203560003555",
                "nonce" : "0x00",
                "storage" : {
                }
            },
            "0xa94f5374fce5edbc8e2a8697c15331677e6ebf0b" : {
                "balance" : "0x0de0b6b3a7640000",
                "code" : "",
                "nonce" : "0x00",
                "storage" : {
                }
            }
        }
    },
    "randomStatetest421_d0g0v0_Frontier" : {
        "_info" : {
            "comment" : "",
            "filledwith" : "cpp-1.3.0+commit.6e0ce939.Linux.g++",
            "lllcversion" : "Version: 0.4.18-develop.2017.9.25+commit.a72237f2.Linux.g++",
            "source" : "src/BlockchainTestsFiller/GeneralStateTests/stRandom/randomStatetest421_d0g0v0Filler.json",
            "sourceHash" : "243d632d469963efd81351c78a5daa951c20eb7f85513ab182790e8df905514c"
        },
        "blocks" : [
            {
                "blockHeader" : {
                    "bloom" : "0x00000000000000000000000000000000000000000000000000000000000000000000000000000000000000000000000000000000000000000000000000000000000000000000000000000000000000000000000000000000000000000000000000000000000000000000000000000000000000000000000000000000000000000000000000000000000000000000000000000000000000000000000000000000000000000000000000000000000000000000000000000000000000000000000000000000000000000000000000000000000000000000000000000000000000000000000000000000000000000000000000000000000000000000000000000000",
                    "coinbase" : "0x945304eb96065b2a98b57a48a06ae28d285a71b5",
                    "difficulty" : "0x020000",
                    "extraData" : "",
                    "gasLimit" : "0x7fffffffffffffff",
                    "gasUsed" : "0xb753",
                    "hash" : "0xe3bfa88e400368f79909505136080f1ff6038842a94e747603dd7634acd68261",
                    "mixHash" : "0xc85ed589e6d9ec224817cfc4a6f3397347b58715c1b93f62d6856cb9af735e89",
                    "nonce" : "0xa1f587e93092dc55",
                    "number" : "0x01",
                    "parentHash" : "0xf20f1b6becf80f4865619303fb05b260da256b007383f030ecd61db65ff8e418",
                    "receiptTrie" : "0x4305b2cf8d359ebfa3275eed57c1f65c6c9520f4ed859948f6469b275249e518",
                    "stateRoot" : "0x1407f8320b9ecb56da8fe206a6d1b041f50de4debe3c245b2d250a3bf6fabbe6",
                    "timestamp" : "0x03e8",
                    "transactionsTrie" : "0xe2c26eb193c144fbf142d0fc0c8e9fd88dbaa1bc75d2c57b15e783277bfc7d7e",
                    "uncleHash" : "0x1dcc4de8dec75d7aab85b567b6ccd41ad312451b948a7413f0a142fd40d49347"
                },
                "rlp" : "0xf902dff901fca0f20f1b6becf80f4865619303fb05b260da256b007383f030ecd61db65ff8e418a01dcc4de8dec75d7aab85b567b6ccd41ad312451b948a7413f0a142fd40d4934794945304eb96065b2a98b57a48a06ae28d285a71b5a01407f8320b9ecb56da8fe206a6d1b041f50de4debe3c245b2d250a3bf6fabbe6a0e2c26eb193c144fbf142d0fc0c8e9fd88dbaa1bc75d2c57b15e783277bfc7d7ea04305b2cf8d359ebfa3275eed57c1f65c6c9520f4ed859948f6469b275249e518b90100000000000000000000000000000000000000000000000000000000000000000000000000000000000000000000000000000000000000000000000000000000000000000000000000000000000000000000000000000000000000000000000000000000000000000000000000000000000000000000000000000000000000000000000000000000000000000000000000000000000000000000000000000000000000000000000000000000000000000000000000000000000000000000000000000000000000000000000000000000000000000000000000000000000000000000000000000000000000000000000000000000000000000000000000000000008302000001887fffffffffffffff82b7538203e880a0c85ed589e6d9ec224817cfc4a6f3397347b58715c1b93f62d6856cb9af735e8988a1f587e93092dc55f8ddf8db8001841418f81894095e7baea6a6c7c4c2dfeb977efac326af552d878452d1555fb875437f00000000000000000000000000000000000000000000000000000000000000007ffffffffffffffffffffffffffffffffffffffffffffffffffffffffffffffffe7fffffffffffffffffffffffffffffffffffffffffffffffffffffffffffffffff6f38454051968ff184a47d5009123197171ba0eb7ca29b17237e72bef53bbd68e65eaca6022382d42d4986a7383ce9edd30566a007e9b806fa66b42230544f480cfe8ed92c719b33bae0c253beb5e07d8a5b6af1c0",
                "transactions" : [
                    {
                        "data" : "0x437f00000000000000000000000000000000000000000000000000000000000000007ffffffffffffffffffffffffffffffffffffffffffffffffffffffffffffffffe7fffffffffffffffffffffffffffffffffffffffffffffffffffffffffffffffff6f38454051968ff184a47d500912319717",
                        "gasLimit" : "0x1418f818",
                        "gasPrice" : "0x01",
                        "nonce" : "0x00",
                        "r" : "0xeb7ca29b17237e72bef53bbd68e65eaca6022382d42d4986a7383ce9edd30566",
                        "s" : "0x07e9b806fa66b42230544f480cfe8ed92c719b33bae0c253beb5e07d8a5b6af1",
                        "to" : "0x095e7baea6a6c7c4c2dfeb977efac326af552d87",
                        "v" : "0x1b",
                        "value" : "0x52d1555f"
                    }
                ],
                "uncleHeaders" : [
                ]
            }
        ],
        "genesisBlockHeader" : {
            "bloom" : "0x00000000000000000000000000000000000000000000000000000000000000000000000000000000000000000000000000000000000000000000000000000000000000000000000000000000000000000000000000000000000000000000000000000000000000000000000000000000000000000000000000000000000000000000000000000000000000000000000000000000000000000000000000000000000000000000000000000000000000000000000000000000000000000000000000000000000000000000000000000000000000000000000000000000000000000000000000000000000000000000000000000000000000000000000000000000",
            "coinbase" : "0x945304eb96065b2a98b57a48a06ae28d285a71b5",
            "difficulty" : "0x020000",
            "extraData" : "0x42",
            "gasLimit" : "0x7fffffffffffffff",
            "gasUsed" : "0x00",
            "hash" : "0xf20f1b6becf80f4865619303fb05b260da256b007383f030ecd61db65ff8e418",
            "mixHash" : "0x56e81f171bcc55a6ff8345e692c0f86e5b48e01b996cadc001622fb5e363b421",
            "nonce" : "0x0102030405060708",
            "number" : "0x00",
            "parentHash" : "0x0000000000000000000000000000000000000000000000000000000000000000",
            "receiptTrie" : "0x56e81f171bcc55a6ff8345e692c0f86e5b48e01b996cadc001622fb5e363b421",
            "stateRoot" : "0xe7052bcef128689c98ee1eadf71ab5ab8628a9b9e21107a1ee8d8b4fe965a7f0",
            "timestamp" : "0x03b6",
            "transactionsTrie" : "0x56e81f171bcc55a6ff8345e692c0f86e5b48e01b996cadc001622fb5e363b421",
            "uncleHash" : "0x1dcc4de8dec75d7aab85b567b6ccd41ad312451b948a7413f0a142fd40d49347"
        },
        "genesisRLP" : "0xf901fff901faa00000000000000000000000000000000000000000000000000000000000000000a01dcc4de8dec75d7aab85b567b6ccd41ad312451b948a7413f0a142fd40d4934794945304eb96065b2a98b57a48a06ae28d285a71b5a0e7052bcef128689c98ee1eadf71ab5ab8628a9b9e21107a1ee8d8b4fe965a7f0a056e81f171bcc55a6ff8345e692c0f86e5b48e01b996cadc001622fb5e363b421a056e81f171bcc55a6ff8345e692c0f86e5b48e01b996cadc001622fb5e363b421b90100000000000000000000000000000000000000000000000000000000000000000000000000000000000000000000000000000000000000000000000000000000000000000000000000000000000000000000000000000000000000000000000000000000000000000000000000000000000000000000000000000000000000000000000000000000000000000000000000000000000000000000000000000000000000000000000000000000000000000000000000000000000000000000000000000000000000000000000000000000000000000000000000000000000000000000000000000000000000000000000000000000000000000000000000000000008302000080887fffffffffffffff808203b642a056e81f171bcc55a6ff8345e692c0f86e5b48e01b996cadc001622fb5e363b421880102030405060708c0c0",
        "lastblockhash" : "0xe3bfa88e400368f79909505136080f1ff6038842a94e747603dd7634acd68261",
        "network" : "Frontier",
        "postState" : {
            "0x095e7baea6a6c7c4c2dfeb977efac326af552d87" : {
                "balance" : "0x52d1555f",
                "code" : "0x437f00000000000000000000000000000000000000000000000000000000000000007ffffffffffffffffffffffffffffffffffffffffffffffffffffffffffffffffe7fffffffffffffffffffffffffffffffffffffffffffffffffffffffffffffffff6f38454051968ff184a47d50091231971760005155",
                "nonce" : "0x00",
                "storage" : {
                    "0x00" : "0x38454051968ff184a47d500912319717"
                }
            },
            "0x945304eb96065b2a98b57a48a06ae28d285a71b5" : {
                "balance" : "0x4563918244f4b781",
                "code" : "0x6000355415600957005b60203560003555",
                "nonce" : "0x00",
                "storage" : {
                }
            },
            "0xa94f5374fce5edbc8e2a8697c15331677e6ebf0b" : {
                "balance" : "0x0de0b6b35491f34e",
                "code" : "",
                "nonce" : "0x01",
                "storage" : {
                }
            }
        },
        "pre" : {
            "0x095e7baea6a6c7c4c2dfeb977efac326af552d87" : {
                "balance" : "0x00",
                "code" : "0x437f00000000000000000000000000000000000000000000000000000000000000007ffffffffffffffffffffffffffffffffffffffffffffffffffffffffffffffffe7fffffffffffffffffffffffffffffffffffffffffffffffffffffffffffffffff6f38454051968ff184a47d50091231971760005155",
                "nonce" : "0x00",
                "storage" : {
                }
            },
            "0x945304eb96065b2a98b57a48a06ae28d285a71b5" : {
                "balance" : "0x2e",
                "code" : "0x6000355415600957005b60203560003555",
                "nonce" : "0x00",
                "storage" : {
                }
            },
            "0xa94f5374fce5edbc8e2a8697c15331677e6ebf0b" : {
                "balance" : "0x0de0b6b3a7640000",
                "code" : "",
                "nonce" : "0x00",
                "storage" : {
                }
            }
        }
    },
    "randomStatetest421_d0g0v0_Homestead" : {
        "_info" : {
            "comment" : "",
            "filledwith" : "cpp-1.3.0+commit.6e0ce939.Linux.g++",
            "lllcversion" : "Version: 0.4.18-develop.2017.9.25+commit.a72237f2.Linux.g++",
            "source" : "src/BlockchainTestsFiller/GeneralStateTests/stRandom/randomStatetest421_d0g0v0Filler.json",
            "sourceHash" : "243d632d469963efd81351c78a5daa951c20eb7f85513ab182790e8df905514c"
        },
        "blocks" : [
            {
                "blockHeader" : {
                    "bloom" : "0x00000000000000000000000000000000000000000000000000000000000000000000000000000000000000000000000000000000000000000000000000000000000000000000000000000000000000000000000000000000000000000000000000000000000000000000000000000000000000000000000000000000000000000000000000000000000000000000000000000000000000000000000000000000000000000000000000000000000000000000000000000000000000000000000000000000000000000000000000000000000000000000000000000000000000000000000000000000000000000000000000000000000000000000000000000000",
                    "coinbase" : "0x945304eb96065b2a98b57a48a06ae28d285a71b5",
                    "difficulty" : "0x020000",
                    "extraData" : "",
                    "gasLimit" : "0x7fffffffffffffff",
                    "gasUsed" : "0xb753",
                    "hash" : "0x4ef396137570b5ff5fca35b1d4acae3b67ca8f186004ac85dbbab6125e398c5b",
                    "mixHash" : "0x22f6148b04a0cf849064903427e95cb095b81a015a27d6b4e7896e4b4553eaa6",
                    "nonce" : "0x956f6229f30447b6",
                    "number" : "0x01",
                    "parentHash" : "0xf20f1b6becf80f4865619303fb05b260da256b007383f030ecd61db65ff8e418",
                    "receiptTrie" : "0x4305b2cf8d359ebfa3275eed57c1f65c6c9520f4ed859948f6469b275249e518",
                    "stateRoot" : "0x1407f8320b9ecb56da8fe206a6d1b041f50de4debe3c245b2d250a3bf6fabbe6",
                    "timestamp" : "0x03e8",
                    "transactionsTrie" : "0xe2c26eb193c144fbf142d0fc0c8e9fd88dbaa1bc75d2c57b15e783277bfc7d7e",
                    "uncleHash" : "0x1dcc4de8dec75d7aab85b567b6ccd41ad312451b948a7413f0a142fd40d49347"
                },
                "rlp" : "0xf902dff901fca0f20f1b6becf80f4865619303fb05b260da256b007383f030ecd61db65ff8e418a01dcc4de8dec75d7aab85b567b6ccd41ad312451b948a7413f0a142fd40d4934794945304eb96065b2a98b57a48a06ae28d285a71b5a01407f8320b9ecb56da8fe206a6d1b041f50de4debe3c245b2d250a3bf6fabbe6a0e2c26eb193c144fbf142d0fc0c8e9fd88dbaa1bc75d2c57b15e783277bfc7d7ea04305b2cf8d359ebfa3275eed57c1f65c6c9520f4ed859948f6469b275249e518b90100000000000000000000000000000000000000000000000000000000000000000000000000000000000000000000000000000000000000000000000000000000000000000000000000000000000000000000000000000000000000000000000000000000000000000000000000000000000000000000000000000000000000000000000000000000000000000000000000000000000000000000000000000000000000000000000000000000000000000000000000000000000000000000000000000000000000000000000000000000000000000000000000000000000000000000000000000000000000000000000000000000000000000000000000000000008302000001887fffffffffffffff82b7538203e880a022f6148b04a0cf849064903427e95cb095b81a015a27d6b4e7896e4b4553eaa688956f6229f30447b6f8ddf8db8001841418f81894095e7baea6a6c7c4c2dfeb977efac326af552d878452d1555fb875437f00000000000000000000000000000000000000000000000000000000000000007ffffffffffffffffffffffffffffffffffffffffffffffffffffffffffffffffe7fffffffffffffffffffffffffffffffffffffffffffffffffffffffffffffffff6f38454051968ff184a47d5009123197171ba0eb7ca29b17237e72bef53bbd68e65eaca6022382d42d4986a7383ce9edd30566a007e9b806fa66b42230544f480cfe8ed92c719b33bae0c253beb5e07d8a5b6af1c0",
                "transactions" : [
                    {
                        "data" : "0x437f00000000000000000000000000000000000000000000000000000000000000007ffffffffffffffffffffffffffffffffffffffffffffffffffffffffffffffffe7fffffffffffffffffffffffffffffffffffffffffffffffffffffffffffffffff6f38454051968ff184a47d500912319717",
                        "gasLimit" : "0x1418f818",
                        "gasPrice" : "0x01",
                        "nonce" : "0x00",
                        "r" : "0xeb7ca29b17237e72bef53bbd68e65eaca6022382d42d4986a7383ce9edd30566",
                        "s" : "0x07e9b806fa66b42230544f480cfe8ed92c719b33bae0c253beb5e07d8a5b6af1",
                        "to" : "0x095e7baea6a6c7c4c2dfeb977efac326af552d87",
                        "v" : "0x1b",
                        "value" : "0x52d1555f"
                    }
                ],
                "uncleHeaders" : [
                ]
            }
        ],
        "genesisBlockHeader" : {
            "bloom" : "0x00000000000000000000000000000000000000000000000000000000000000000000000000000000000000000000000000000000000000000000000000000000000000000000000000000000000000000000000000000000000000000000000000000000000000000000000000000000000000000000000000000000000000000000000000000000000000000000000000000000000000000000000000000000000000000000000000000000000000000000000000000000000000000000000000000000000000000000000000000000000000000000000000000000000000000000000000000000000000000000000000000000000000000000000000000000",
            "coinbase" : "0x945304eb96065b2a98b57a48a06ae28d285a71b5",
            "difficulty" : "0x020000",
            "extraData" : "0x42",
            "gasLimit" : "0x7fffffffffffffff",
            "gasUsed" : "0x00",
            "hash" : "0xf20f1b6becf80f4865619303fb05b260da256b007383f030ecd61db65ff8e418",
            "mixHash" : "0x56e81f171bcc55a6ff8345e692c0f86e5b48e01b996cadc001622fb5e363b421",
            "nonce" : "0x0102030405060708",
            "number" : "0x00",
            "parentHash" : "0x0000000000000000000000000000000000000000000000000000000000000000",
            "receiptTrie" : "0x56e81f171bcc55a6ff8345e692c0f86e5b48e01b996cadc001622fb5e363b421",
            "stateRoot" : "0xe7052bcef128689c98ee1eadf71ab5ab8628a9b9e21107a1ee8d8b4fe965a7f0",
            "timestamp" : "0x03b6",
            "transactionsTrie" : "0x56e81f171bcc55a6ff8345e692c0f86e5b48e01b996cadc001622fb5e363b421",
            "uncleHash" : "0x1dcc4de8dec75d7aab85b567b6ccd41ad312451b948a7413f0a142fd40d49347"
        },
        "genesisRLP" : "0xf901fff901faa00000000000000000000000000000000000000000000000000000000000000000a01dcc4de8dec75d7aab85b567b6ccd41ad312451b948a7413f0a142fd40d4934794945304eb96065b2a98b57a48a06ae28d285a71b5a0e7052bcef128689c98ee1eadf71ab5ab8628a9b9e21107a1ee8d8b4fe965a7f0a056e81f171bcc55a6ff8345e692c0f86e5b48e01b996cadc001622fb5e363b421a056e81f171bcc55a6ff8345e692c0f86e5b48e01b996cadc001622fb5e363b421b90100000000000000000000000000000000000000000000000000000000000000000000000000000000000000000000000000000000000000000000000000000000000000000000000000000000000000000000000000000000000000000000000000000000000000000000000000000000000000000000000000000000000000000000000000000000000000000000000000000000000000000000000000000000000000000000000000000000000000000000000000000000000000000000000000000000000000000000000000000000000000000000000000000000000000000000000000000000000000000000000000000000000000000000000000000000008302000080887fffffffffffffff808203b642a056e81f171bcc55a6ff8345e692c0f86e5b48e01b996cadc001622fb5e363b421880102030405060708c0c0",
        "lastblockhash" : "0x4ef396137570b5ff5fca35b1d4acae3b67ca8f186004ac85dbbab6125e398c5b",
        "network" : "Homestead",
        "postState" : {
            "0x095e7baea6a6c7c4c2dfeb977efac326af552d87" : {
                "balance" : "0x52d1555f",
                "code" : "0x437f00000000000000000000000000000000000000000000000000000000000000007ffffffffffffffffffffffffffffffffffffffffffffffffffffffffffffffffe7fffffffffffffffffffffffffffffffffffffffffffffffffffffffffffffffff6f38454051968ff184a47d50091231971760005155",
                "nonce" : "0x00",
                "storage" : {
                    "0x00" : "0x38454051968ff184a47d500912319717"
                }
            },
            "0x945304eb96065b2a98b57a48a06ae28d285a71b5" : {
                "balance" : "0x4563918244f4b781",
                "code" : "0x6000355415600957005b60203560003555",
                "nonce" : "0x00",
                "storage" : {
                }
            },
            "0xa94f5374fce5edbc8e2a8697c15331677e6ebf0b" : {
                "balance" : "0x0de0b6b35491f34e",
                "code" : "",
                "nonce" : "0x01",
                "storage" : {
                }
            }
        },
        "pre" : {
            "0x095e7baea6a6c7c4c2dfeb977efac326af552d87" : {
                "balance" : "0x00",
                "code" : "0x437f00000000000000000000000000000000000000000000000000000000000000007ffffffffffffffffffffffffffffffffffffffffffffffffffffffffffffffffe7fffffffffffffffffffffffffffffffffffffffffffffffffffffffffffffffff6f38454051968ff184a47d50091231971760005155",
                "nonce" : "0x00",
                "storage" : {
                }
            },
            "0x945304eb96065b2a98b57a48a06ae28d285a71b5" : {
                "balance" : "0x2e",
                "code" : "0x6000355415600957005b60203560003555",
                "nonce" : "0x00",
                "storage" : {
                }
            },
            "0xa94f5374fce5edbc8e2a8697c15331677e6ebf0b" : {
                "balance" : "0x0de0b6b3a7640000",
                "code" : "",
                "nonce" : "0x00",
                "storage" : {
                }
            }
        }
    }
}