{
    "randomStatetest413_d0g0v0_EIP150" : {
        "blocks" : [
            {
                "blockHeader" : {
                    "bloom" : "0x00000000000000000000000000000000000000000000000000000000000000000000000000000000000000000000000000000000000000000000000000000000000000000000000000000000000000000000000000000000000000000000000000000000000000000000000000000000000000000000000000000000000000000000000000000000000000000000000000000000000000000000000000000000000000000000000000000000000000000000000000000000000000000000000000000000000000000000000000000000000000000000000000000000000000000000000000000000000000000000000000000000000000000000000000000000",
                    "coinbase" : "0x945304eb96065b2a98b57a48a06ae28d285a71b5",
                    "difficulty" : "0x020000",
                    "extraData" : "",
                    "gasLimit" : "0x7fffffffffffffff",
                    "gasUsed" : "0xb9e5",
                    "hash" : "0xc663f2fcb6f38594c8edef8a3d84326f37b7ad8b63c971cb2a69cef00a3f3647",
                    "mixHash" : "0x2eff18dc03019928a4043cedacae71eac2d967ff570bca222161531102857129",
                    "nonce" : "0x173afa13a3aa8507",
                    "number" : "0x01",
                    "parentHash" : "0xc5ef6d878cf80e6e72d4daa0d4c6bd891e088f11165fe9e3d005bb72bc48d747",
                    "receiptTrie" : "0x73e74a42c4338d484b8f277cc82589b79319c7961752a62c2945201b8167809f",
                    "stateRoot" : "0xc10a6d71f152802eaa8cb565988ab97dbaba824240d276910ff0e077030ebd40",
                    "timestamp" : "0x03e8",
                    "transactionsTrie" : "0x85adab1b695bd8e624dd2ed7ba2c3a4dcd2a5389a2f5d2233466b2e74949c1ab",
                    "uncleHash" : "0x1dcc4de8dec75d7aab85b567b6ccd41ad312451b948a7413f0a142fd40d49347"
                },
                "rlp" : "0xf90323f901fca0c5ef6d878cf80e6e72d4daa0d4c6bd891e088f11165fe9e3d005bb72bc48d747a01dcc4de8dec75d7aab85b567b6ccd41ad312451b948a7413f0a142fd40d4934794945304eb96065b2a98b57a48a06ae28d285a71b5a0c10a6d71f152802eaa8cb565988ab97dbaba824240d276910ff0e077030ebd40a085adab1b695bd8e624dd2ed7ba2c3a4dcd2a5389a2f5d2233466b2e74949c1aba073e74a42c4338d484b8f277cc82589b79319c7961752a62c2945201b8167809fb90100000000000000000000000000000000000000000000000000000000000000000000000000000000000000000000000000000000000000000000000000000000000000000000000000000000000000000000000000000000000000000000000000000000000000000000000000000000000000000000000000000000000000000000000000000000000000000000000000000000000000000000000000000000000000000000000000000000000000000000000000000000000000000000000000000000000000000000000000000000000000000000000000000000000000000000000000000000000000000000000000000000000000000000000000000000008302000001887fffffffffffffff82b9e58203e880a02eff18dc03019928a4043cedacae71eac2d967ff570bca22216153110285712988173afa13a3aa8507f90120f9011d80018463aead2694095e7baea6a6c7c4c2dfeb977efac326af552d878447e29c11b8b77ffffffffffffffffffffffffffffffffffffffffffffffffffffffffffffffffe7f000000000000000000000000000000000000000000000000000000000000c3507f0000000000000000000000010000000000000000000000000000000000000000817ffffffffffffffffffffffffffffffffffffffffffffffffffffffffffffffffe037f00000000000000000000000000000000000000000000000000000000000000016f086e2055149345ad1a018b063708141ca0f5efe2e13816d0e5bcc34be8e93519b87054b7b36511d24ad7f8ab1200121093a012c1fa789705a3778dea41af790467c39bef37682b1baffc49a9a0015c1ea7ecc0",
                "transactions" : [
                    {
                        "data" : "0x7ffffffffffffffffffffffffffffffffffffffffffffffffffffffffffffffffe7f000000000000000000000000000000000000000000000000000000000000c3507f0000000000000000000000010000000000000000000000000000000000000000817ffffffffffffffffffffffffffffffffffffffffffffffffffffffffffffffffe037f00000000000000000000000000000000000000000000000000000000000000016f086e2055149345ad1a018b06370814",
                        "gasLimit" : "0x63aead26",
                        "gasPrice" : "0x01",
                        "nonce" : "0x00",
                        "r" : "0xf5efe2e13816d0e5bcc34be8e93519b87054b7b36511d24ad7f8ab1200121093",
                        "s" : "0x12c1fa789705a3778dea41af790467c39bef37682b1baffc49a9a0015c1ea7ec",
                        "to" : "0x095e7baea6a6c7c4c2dfeb977efac326af552d87",
                        "v" : "0x1c",
                        "value" : "0x47e29c11"
                    }
                ],
                "uncleHeaders" : [
                ]
            }
        ],
        "genesisBlockHeader" : {
            "bloom" : "0x00000000000000000000000000000000000000000000000000000000000000000000000000000000000000000000000000000000000000000000000000000000000000000000000000000000000000000000000000000000000000000000000000000000000000000000000000000000000000000000000000000000000000000000000000000000000000000000000000000000000000000000000000000000000000000000000000000000000000000000000000000000000000000000000000000000000000000000000000000000000000000000000000000000000000000000000000000000000000000000000000000000000000000000000000000000",
            "coinbase" : "0x945304eb96065b2a98b57a48a06ae28d285a71b5",
            "difficulty" : "0x020000",
            "extraData" : "0x42",
            "gasLimit" : "0x7fffffffffffffff",
            "gasUsed" : "0x00",
            "hash" : "0xc5ef6d878cf80e6e72d4daa0d4c6bd891e088f11165fe9e3d005bb72bc48d747",
            "mixHash" : "0x56e81f171bcc55a6ff8345e692c0f86e5b48e01b996cadc001622fb5e363b421",
            "nonce" : "0x0102030405060708",
            "number" : "0x00",
            "parentHash" : "0x0000000000000000000000000000000000000000000000000000000000000000",
            "receiptTrie" : "0x56e81f171bcc55a6ff8345e692c0f86e5b48e01b996cadc001622fb5e363b421",
            "stateRoot" : "0x39d2a70b08692c395b7718025c87a04fbbaa6b3656302a2821c06969faa39cf5",
            "timestamp" : "0x03b6",
            "transactionsTrie" : "0x56e81f171bcc55a6ff8345e692c0f86e5b48e01b996cadc001622fb5e363b421",
            "uncleHash" : "0x1dcc4de8dec75d7aab85b567b6ccd41ad312451b948a7413f0a142fd40d49347"
        },
        "genesisRLP" : "0xf901fff901faa00000000000000000000000000000000000000000000000000000000000000000a01dcc4de8dec75d7aab85b567b6ccd41ad312451b948a7413f0a142fd40d4934794945304eb96065b2a98b57a48a06ae28d285a71b5a039d2a70b08692c395b7718025c87a04fbbaa6b3656302a2821c06969faa39cf5a056e81f171bcc55a6ff8345e692c0f86e5b48e01b996cadc001622fb5e363b421a056e81f171bcc55a6ff8345e692c0f86e5b48e01b996cadc001622fb5e363b421b90100000000000000000000000000000000000000000000000000000000000000000000000000000000000000000000000000000000000000000000000000000000000000000000000000000000000000000000000000000000000000000000000000000000000000000000000000000000000000000000000000000000000000000000000000000000000000000000000000000000000000000000000000000000000000000000000000000000000000000000000000000000000000000000000000000000000000000000000000000000000000000000000000000000000000000000000000000000000000000000000000000000000000000000000000000000008302000080887fffffffffffffff808203b642a056e81f171bcc55a6ff8345e692c0f86e5b48e01b996cadc001622fb5e363b421880102030405060708c0c0",
        "lastblockhash" : "0xc663f2fcb6f38594c8edef8a3d84326f37b7ad8b63c971cb2a69cef00a3f3647",
        "network" : "EIP150",
        "postState" : {
            "0x095e7baea6a6c7c4c2dfeb977efac326af552d87" : {
                "balance" : "0x47e29c11",
                "code" : "0x7ffffffffffffffffffffffffffffffffffffffffffffffffffffffffffffffffe7f000000000000000000000000000000000000000000000000000000000000c3507f0000000000000000000000010000000000000000000000000000000000000000817ffffffffffffffffffffffffffffffffffffffffffffffffffffffffffffffffe037f00000000000000000000000000000000000000000000000000000000000000016f086e2055149345ad1a018b063708145560005155",
                "nonce" : "0x00",
                "storage" : {
                    "0x00" : "0x086e2055149345ad1a018b0637081455"
                }
            },
            "0x945304eb96065b2a98b57a48a06ae28d285a71b5" : {
                "balance" : "0x4563918244f4ba13",
                "code" : "0x6000355415600957005b60203560003555",
                "nonce" : "0x00",
                "storage" : {
                }
            },
            "0xa94f5374fce5edbc8e2a8697c15331677e6ebf0b" : {
                "balance" : "0x0de0b6b35f80aa0a",
                "code" : "",
                "nonce" : "0x01",
                "storage" : {
                }
            }
        },
        "pre" : {
            "0x095e7baea6a6c7c4c2dfeb977efac326af552d87" : {
                "balance" : "0x00",
                "code" : "0x7ffffffffffffffffffffffffffffffffffffffffffffffffffffffffffffffffe7f000000000000000000000000000000000000000000000000000000000000c3507f0000000000000000000000010000000000000000000000000000000000000000817ffffffffffffffffffffffffffffffffffffffffffffffffffffffffffffffffe037f00000000000000000000000000000000000000000000000000000000000000016f086e2055149345ad1a018b063708145560005155",
                "nonce" : "0x00",
                "storage" : {
                }
            },
            "0x945304eb96065b2a98b57a48a06ae28d285a71b5" : {
                "balance" : "0x2e",
                "code" : "0x6000355415600957005b60203560003555",
                "nonce" : "0x00",
                "storage" : {
                }
            },
            "0xa94f5374fce5edbc8e2a8697c15331677e6ebf0b" : {
                "balance" : "0x0de0b6b3a7640000",
                "code" : "",
                "nonce" : "0x00",
                "storage" : {
                }
            }
        }
    },
    "randomStatetest413_d0g0v0_EIP158" : {
        "blocks" : [
            {
                "blockHeader" : {
                    "bloom" : "0x00000000000000000000000000000000000000000000000000000000000000000000000000000000000000000000000000000000000000000000000000000000000000000000000000000000000000000000000000000000000000000000000000000000000000000000000000000000000000000000000000000000000000000000000000000000000000000000000000000000000000000000000000000000000000000000000000000000000000000000000000000000000000000000000000000000000000000000000000000000000000000000000000000000000000000000000000000000000000000000000000000000000000000000000000000000",
                    "coinbase" : "0x945304eb96065b2a98b57a48a06ae28d285a71b5",
                    "difficulty" : "0x020000",
                    "extraData" : "",
                    "gasLimit" : "0x7fffffffffffffff",
                    "gasUsed" : "0xb9e5",
                    "hash" : "0xfcd2a70a42bf1f921c7462735dcfcaaa551e48c1eb80c7af99c6f25a8f2400a2",
                    "mixHash" : "0xc4b9c618b5166956044c2456111673ab08f62c7a3a1b0329a2bdc7c098475f2b",
                    "nonce" : "0x6e68eea699bfe3b6",
                    "number" : "0x01",
                    "parentHash" : "0xc5ef6d878cf80e6e72d4daa0d4c6bd891e088f11165fe9e3d005bb72bc48d747",
                    "receiptTrie" : "0x73e74a42c4338d484b8f277cc82589b79319c7961752a62c2945201b8167809f",
                    "stateRoot" : "0xc10a6d71f152802eaa8cb565988ab97dbaba824240d276910ff0e077030ebd40",
                    "timestamp" : "0x03e8",
                    "transactionsTrie" : "0x85adab1b695bd8e624dd2ed7ba2c3a4dcd2a5389a2f5d2233466b2e74949c1ab",
                    "uncleHash" : "0x1dcc4de8dec75d7aab85b567b6ccd41ad312451b948a7413f0a142fd40d49347"
                },
                "rlp" : "0xf90323f901fca0c5ef6d878cf80e6e72d4daa0d4c6bd891e088f11165fe9e3d005bb72bc48d747a01dcc4de8dec75d7aab85b567b6ccd41ad312451b948a7413f0a142fd40d4934794945304eb96065b2a98b57a48a06ae28d285a71b5a0c10a6d71f152802eaa8cb565988ab97dbaba824240d276910ff0e077030ebd40a085adab1b695bd8e624dd2ed7ba2c3a4dcd2a5389a2f5d2233466b2e74949c1aba073e74a42c4338d484b8f277cc82589b79319c7961752a62c2945201b8167809fb90100000000000000000000000000000000000000000000000000000000000000000000000000000000000000000000000000000000000000000000000000000000000000000000000000000000000000000000000000000000000000000000000000000000000000000000000000000000000000000000000000000000000000000000000000000000000000000000000000000000000000000000000000000000000000000000000000000000000000000000000000000000000000000000000000000000000000000000000000000000000000000000000000000000000000000000000000000000000000000000000000000000000000000000000000000000008302000001887fffffffffffffff82b9e58203e880a0c4b9c618b5166956044c2456111673ab08f62c7a3a1b0329a2bdc7c098475f2b886e68eea699bfe3b6f90120f9011d80018463aead2694095e7baea6a6c7c4c2dfeb977efac326af552d878447e29c11b8b77ffffffffffffffffffffffffffffffffffffffffffffffffffffffffffffffffe7f000000000000000000000000000000000000000000000000000000000000c3507f0000000000000000000000010000000000000000000000000000000000000000817ffffffffffffffffffffffffffffffffffffffffffffffffffffffffffffffffe037f00000000000000000000000000000000000000000000000000000000000000016f086e2055149345ad1a018b063708141ca0f5efe2e13816d0e5bcc34be8e93519b87054b7b36511d24ad7f8ab1200121093a012c1fa789705a3778dea41af790467c39bef37682b1baffc49a9a0015c1ea7ecc0",
                "transactions" : [
                    {
                        "data" : "0x7ffffffffffffffffffffffffffffffffffffffffffffffffffffffffffffffffe7f000000000000000000000000000000000000000000000000000000000000c3507f0000000000000000000000010000000000000000000000000000000000000000817ffffffffffffffffffffffffffffffffffffffffffffffffffffffffffffffffe037f00000000000000000000000000000000000000000000000000000000000000016f086e2055149345ad1a018b06370814",
                        "gasLimit" : "0x63aead26",
                        "gasPrice" : "0x01",
                        "nonce" : "0x00",
                        "r" : "0xf5efe2e13816d0e5bcc34be8e93519b87054b7b36511d24ad7f8ab1200121093",
                        "s" : "0x12c1fa789705a3778dea41af790467c39bef37682b1baffc49a9a0015c1ea7ec",
                        "to" : "0x095e7baea6a6c7c4c2dfeb977efac326af552d87",
                        "v" : "0x1c",
                        "value" : "0x47e29c11"
                    }
                ],
                "uncleHeaders" : [
                ]
            }
        ],
        "genesisBlockHeader" : {
            "bloom" : "0x00000000000000000000000000000000000000000000000000000000000000000000000000000000000000000000000000000000000000000000000000000000000000000000000000000000000000000000000000000000000000000000000000000000000000000000000000000000000000000000000000000000000000000000000000000000000000000000000000000000000000000000000000000000000000000000000000000000000000000000000000000000000000000000000000000000000000000000000000000000000000000000000000000000000000000000000000000000000000000000000000000000000000000000000000000000",
            "coinbase" : "0x945304eb96065b2a98b57a48a06ae28d285a71b5",
            "difficulty" : "0x020000",
            "extraData" : "0x42",
            "gasLimit" : "0x7fffffffffffffff",
            "gasUsed" : "0x00",
            "hash" : "0xc5ef6d878cf80e6e72d4daa0d4c6bd891e088f11165fe9e3d005bb72bc48d747",
            "mixHash" : "0x56e81f171bcc55a6ff8345e692c0f86e5b48e01b996cadc001622fb5e363b421",
            "nonce" : "0x0102030405060708",
            "number" : "0x00",
            "parentHash" : "0x0000000000000000000000000000000000000000000000000000000000000000",
            "receiptTrie" : "0x56e81f171bcc55a6ff8345e692c0f86e5b48e01b996cadc001622fb5e363b421",
            "stateRoot" : "0x39d2a70b08692c395b7718025c87a04fbbaa6b3656302a2821c06969faa39cf5",
            "timestamp" : "0x03b6",
            "transactionsTrie" : "0x56e81f171bcc55a6ff8345e692c0f86e5b48e01b996cadc001622fb5e363b421",
            "uncleHash" : "0x1dcc4de8dec75d7aab85b567b6ccd41ad312451b948a7413f0a142fd40d49347"
        },
        "genesisRLP" : "0xf901fff901faa00000000000000000000000000000000000000000000000000000000000000000a01dcc4de8dec75d7aab85b567b6ccd41ad312451b948a7413f0a142fd40d4934794945304eb96065b2a98b57a48a06ae28d285a71b5a039d2a70b08692c395b7718025c87a04fbbaa6b3656302a2821c06969faa39cf5a056e81f171bcc55a6ff8345e692c0f86e5b48e01b996cadc001622fb5e363b421a056e81f171bcc55a6ff8345e692c0f86e5b48e01b996cadc001622fb5e363b421b90100000000000000000000000000000000000000000000000000000000000000000000000000000000000000000000000000000000000000000000000000000000000000000000000000000000000000000000000000000000000000000000000000000000000000000000000000000000000000000000000000000000000000000000000000000000000000000000000000000000000000000000000000000000000000000000000000000000000000000000000000000000000000000000000000000000000000000000000000000000000000000000000000000000000000000000000000000000000000000000000000000000000000000000000000000000008302000080887fffffffffffffff808203b642a056e81f171bcc55a6ff8345e692c0f86e5b48e01b996cadc001622fb5e363b421880102030405060708c0c0",
        "lastblockhash" : "0xfcd2a70a42bf1f921c7462735dcfcaaa551e48c1eb80c7af99c6f25a8f2400a2",
        "network" : "EIP158",
        "postState" : {
            "0x095e7baea6a6c7c4c2dfeb977efac326af552d87" : {
                "balance" : "0x47e29c11",
                "code" : "0x7ffffffffffffffffffffffffffffffffffffffffffffffffffffffffffffffffe7f000000000000000000000000000000000000000000000000000000000000c3507f0000000000000000000000010000000000000000000000000000000000000000817ffffffffffffffffffffffffffffffffffffffffffffffffffffffffffffffffe037f00000000000000000000000000000000000000000000000000000000000000016f086e2055149345ad1a018b063708145560005155",
                "nonce" : "0x00",
                "storage" : {
                    "0x00" : "0x086e2055149345ad1a018b0637081455"
                }
            },
            "0x945304eb96065b2a98b57a48a06ae28d285a71b5" : {
                "balance" : "0x4563918244f4ba13",
                "code" : "0x6000355415600957005b60203560003555",
                "nonce" : "0x00",
                "storage" : {
                }
            },
            "0xa94f5374fce5edbc8e2a8697c15331677e6ebf0b" : {
                "balance" : "0x0de0b6b35f80aa0a",
                "code" : "",
                "nonce" : "0x01",
                "storage" : {
                }
            }
        },
        "pre" : {
            "0x095e7baea6a6c7c4c2dfeb977efac326af552d87" : {
                "balance" : "0x00",
                "code" : "0x7ffffffffffffffffffffffffffffffffffffffffffffffffffffffffffffffffe7f000000000000000000000000000000000000000000000000000000000000c3507f0000000000000000000000010000000000000000000000000000000000000000817ffffffffffffffffffffffffffffffffffffffffffffffffffffffffffffffffe037f00000000000000000000000000000000000000000000000000000000000000016f086e2055149345ad1a018b063708145560005155",
                "nonce" : "0x00",
                "storage" : {
                }
            },
            "0x945304eb96065b2a98b57a48a06ae28d285a71b5" : {
                "balance" : "0x2e",
                "code" : "0x6000355415600957005b60203560003555",
                "nonce" : "0x00",
                "storage" : {
                }
            },
            "0xa94f5374fce5edbc8e2a8697c15331677e6ebf0b" : {
                "balance" : "0x0de0b6b3a7640000",
                "code" : "",
                "nonce" : "0x00",
                "storage" : {
                }
            }
        }
    },
    "randomStatetest413_d0g0v0_Frontier" : {
        "blocks" : [
            {
                "blockHeader" : {
                    "bloom" : "0x00000000000000000000000000000000000000000000000000000000000000000000000000000000000000000000000000000000000000000000000000000000000000000000000000000000000000000000000000000000000000000000000000000000000000000000000000000000000000000000000000000000000000000000000000000000000000000000000000000000000000000000000000000000000000000000000000000000000000000000000000000000000000000000000000000000000000000000000000000000000000000000000000000000000000000000000000000000000000000000000000000000000000000000000000000000",
                    "coinbase" : "0x945304eb96065b2a98b57a48a06ae28d285a71b5",
                    "difficulty" : "0x020000",
                    "extraData" : "",
                    "gasLimit" : "0x7fffffffffffffff",
                    "gasUsed" : "0xb9e5",
                    "hash" : "0xf79e4abd21f33dd971b3baabe3048934d377c4ab4452ab9d1efee64d730f24cf",
                    "mixHash" : "0xc688522d4e94b57c939ea8a5276bc96066b2995862f6acccfd0f7bdb4de92f80",
                    "nonce" : "0xacefd8403cf54dd8",
                    "number" : "0x01",
                    "parentHash" : "0xc5ef6d878cf80e6e72d4daa0d4c6bd891e088f11165fe9e3d005bb72bc48d747",
                    "receiptTrie" : "0x73e74a42c4338d484b8f277cc82589b79319c7961752a62c2945201b8167809f",
                    "stateRoot" : "0xc10a6d71f152802eaa8cb565988ab97dbaba824240d276910ff0e077030ebd40",
                    "timestamp" : "0x03e8",
                    "transactionsTrie" : "0x85adab1b695bd8e624dd2ed7ba2c3a4dcd2a5389a2f5d2233466b2e74949c1ab",
                    "uncleHash" : "0x1dcc4de8dec75d7aab85b567b6ccd41ad312451b948a7413f0a142fd40d49347"
                },
                "rlp" : "0xf90323f901fca0c5ef6d878cf80e6e72d4daa0d4c6bd891e088f11165fe9e3d005bb72bc48d747a01dcc4de8dec75d7aab85b567b6ccd41ad312451b948a7413f0a142fd40d4934794945304eb96065b2a98b57a48a06ae28d285a71b5a0c10a6d71f152802eaa8cb565988ab97dbaba824240d276910ff0e077030ebd40a085adab1b695bd8e624dd2ed7ba2c3a4dcd2a5389a2f5d2233466b2e74949c1aba073e74a42c4338d484b8f277cc82589b79319c7961752a62c2945201b8167809fb90100000000000000000000000000000000000000000000000000000000000000000000000000000000000000000000000000000000000000000000000000000000000000000000000000000000000000000000000000000000000000000000000000000000000000000000000000000000000000000000000000000000000000000000000000000000000000000000000000000000000000000000000000000000000000000000000000000000000000000000000000000000000000000000000000000000000000000000000000000000000000000000000000000000000000000000000000000000000000000000000000000000000000000000000000000000008302000001887fffffffffffffff82b9e58203e880a0c688522d4e94b57c939ea8a5276bc96066b2995862f6acccfd0f7bdb4de92f8088acefd8403cf54dd8f90120f9011d80018463aead2694095e7baea6a6c7c4c2dfeb977efac326af552d878447e29c11b8b77ffffffffffffffffffffffffffffffffffffffffffffffffffffffffffffffffe7f000000000000000000000000000000000000000000000000000000000000c3507f0000000000000000000000010000000000000000000000000000000000000000817ffffffffffffffffffffffffffffffffffffffffffffffffffffffffffffffffe037f00000000000000000000000000000000000000000000000000000000000000016f086e2055149345ad1a018b063708141ca0f5efe2e13816d0e5bcc34be8e93519b87054b7b36511d24ad7f8ab1200121093a012c1fa789705a3778dea41af790467c39bef37682b1baffc49a9a0015c1ea7ecc0",
                "transactions" : [
                    {
                        "data" : "0x7ffffffffffffffffffffffffffffffffffffffffffffffffffffffffffffffffe7f000000000000000000000000000000000000000000000000000000000000c3507f0000000000000000000000010000000000000000000000000000000000000000817ffffffffffffffffffffffffffffffffffffffffffffffffffffffffffffffffe037f00000000000000000000000000000000000000000000000000000000000000016f086e2055149345ad1a018b06370814",
                        "gasLimit" : "0x63aead26",
                        "gasPrice" : "0x01",
                        "nonce" : "0x00",
                        "r" : "0xf5efe2e13816d0e5bcc34be8e93519b87054b7b36511d24ad7f8ab1200121093",
                        "s" : "0x12c1fa789705a3778dea41af790467c39bef37682b1baffc49a9a0015c1ea7ec",
                        "to" : "0x095e7baea6a6c7c4c2dfeb977efac326af552d87",
                        "v" : "0x1c",
                        "value" : "0x47e29c11"
                    }
                ],
                "uncleHeaders" : [
                ]
            }
        ],
        "genesisBlockHeader" : {
            "bloom" : "0x00000000000000000000000000000000000000000000000000000000000000000000000000000000000000000000000000000000000000000000000000000000000000000000000000000000000000000000000000000000000000000000000000000000000000000000000000000000000000000000000000000000000000000000000000000000000000000000000000000000000000000000000000000000000000000000000000000000000000000000000000000000000000000000000000000000000000000000000000000000000000000000000000000000000000000000000000000000000000000000000000000000000000000000000000000000",
            "coinbase" : "0x945304eb96065b2a98b57a48a06ae28d285a71b5",
            "difficulty" : "0x020000",
            "extraData" : "0x42",
            "gasLimit" : "0x7fffffffffffffff",
            "gasUsed" : "0x00",
            "hash" : "0xc5ef6d878cf80e6e72d4daa0d4c6bd891e088f11165fe9e3d005bb72bc48d747",
            "mixHash" : "0x56e81f171bcc55a6ff8345e692c0f86e5b48e01b996cadc001622fb5e363b421",
            "nonce" : "0x0102030405060708",
            "number" : "0x00",
            "parentHash" : "0x0000000000000000000000000000000000000000000000000000000000000000",
            "receiptTrie" : "0x56e81f171bcc55a6ff8345e692c0f86e5b48e01b996cadc001622fb5e363b421",
            "stateRoot" : "0x39d2a70b08692c395b7718025c87a04fbbaa6b3656302a2821c06969faa39cf5",
            "timestamp" : "0x03b6",
            "transactionsTrie" : "0x56e81f171bcc55a6ff8345e692c0f86e5b48e01b996cadc001622fb5e363b421",
            "uncleHash" : "0x1dcc4de8dec75d7aab85b567b6ccd41ad312451b948a7413f0a142fd40d49347"
        },
        "genesisRLP" : "0xf901fff901faa00000000000000000000000000000000000000000000000000000000000000000a01dcc4de8dec75d7aab85b567b6ccd41ad312451b948a7413f0a142fd40d4934794945304eb96065b2a98b57a48a06ae28d285a71b5a039d2a70b08692c395b7718025c87a04fbbaa6b3656302a2821c06969faa39cf5a056e81f171bcc55a6ff8345e692c0f86e5b48e01b996cadc001622fb5e363b421a056e81f171bcc55a6ff8345e692c0f86e5b48e01b996cadc001622fb5e363b421b90100000000000000000000000000000000000000000000000000000000000000000000000000000000000000000000000000000000000000000000000000000000000000000000000000000000000000000000000000000000000000000000000000000000000000000000000000000000000000000000000000000000000000000000000000000000000000000000000000000000000000000000000000000000000000000000000000000000000000000000000000000000000000000000000000000000000000000000000000000000000000000000000000000000000000000000000000000000000000000000000000000000000000000000000000000000008302000080887fffffffffffffff808203b642a056e81f171bcc55a6ff8345e692c0f86e5b48e01b996cadc001622fb5e363b421880102030405060708c0c0",
        "lastblockhash" : "0xf79e4abd21f33dd971b3baabe3048934d377c4ab4452ab9d1efee64d730f24cf",
        "network" : "Frontier",
        "postState" : {
            "0x095e7baea6a6c7c4c2dfeb977efac326af552d87" : {
                "balance" : "0x47e29c11",
                "code" : "0x7ffffffffffffffffffffffffffffffffffffffffffffffffffffffffffffffffe7f000000000000000000000000000000000000000000000000000000000000c3507f0000000000000000000000010000000000000000000000000000000000000000817ffffffffffffffffffffffffffffffffffffffffffffffffffffffffffffffffe037f00000000000000000000000000000000000000000000000000000000000000016f086e2055149345ad1a018b063708145560005155",
                "nonce" : "0x00",
                "storage" : {
                    "0x00" : "0x086e2055149345ad1a018b0637081455"
                }
            },
            "0x945304eb96065b2a98b57a48a06ae28d285a71b5" : {
                "balance" : "0x4563918244f4ba13",
                "code" : "0x6000355415600957005b60203560003555",
                "nonce" : "0x00",
                "storage" : {
                }
            },
            "0xa94f5374fce5edbc8e2a8697c15331677e6ebf0b" : {
                "balance" : "0x0de0b6b35f80aa0a",
                "code" : "",
                "nonce" : "0x01",
                "storage" : {
                }
            }
        },
        "pre" : {
            "0x095e7baea6a6c7c4c2dfeb977efac326af552d87" : {
                "balance" : "0x00",
                "code" : "0x7ffffffffffffffffffffffffffffffffffffffffffffffffffffffffffffffffe7f000000000000000000000000000000000000000000000000000000000000c3507f0000000000000000000000010000000000000000000000000000000000000000817ffffffffffffffffffffffffffffffffffffffffffffffffffffffffffffffffe037f00000000000000000000000000000000000000000000000000000000000000016f086e2055149345ad1a018b063708145560005155",
                "nonce" : "0x00",
                "storage" : {
                }
            },
            "0x945304eb96065b2a98b57a48a06ae28d285a71b5" : {
                "balance" : "0x2e",
                "code" : "0x6000355415600957005b60203560003555",
                "nonce" : "0x00",
                "storage" : {
                }
            },
            "0xa94f5374fce5edbc8e2a8697c15331677e6ebf0b" : {
                "balance" : "0x0de0b6b3a7640000",
                "code" : "",
                "nonce" : "0x00",
                "storage" : {
                }
            }
        }
    },
    "randomStatetest413_d0g0v0_Homestead" : {
        "blocks" : [
            {
                "blockHeader" : {
                    "bloom" : "0x00000000000000000000000000000000000000000000000000000000000000000000000000000000000000000000000000000000000000000000000000000000000000000000000000000000000000000000000000000000000000000000000000000000000000000000000000000000000000000000000000000000000000000000000000000000000000000000000000000000000000000000000000000000000000000000000000000000000000000000000000000000000000000000000000000000000000000000000000000000000000000000000000000000000000000000000000000000000000000000000000000000000000000000000000000000",
                    "coinbase" : "0x945304eb96065b2a98b57a48a06ae28d285a71b5",
                    "difficulty" : "0x020000",
                    "extraData" : "",
                    "gasLimit" : "0x7fffffffffffffff",
                    "gasUsed" : "0xb9e5",
                    "hash" : "0xc07f152231c60d648a609830d852929864a9734acda363e0824fa9ff0fdbd06a",
                    "mixHash" : "0xfc73bbfb5e89d15aab5ce7335168797f9322f2294d51c50d6be81aef853f05b2",
                    "nonce" : "0x8d8fecd5ad14a6e3",
                    "number" : "0x01",
                    "parentHash" : "0xc5ef6d878cf80e6e72d4daa0d4c6bd891e088f11165fe9e3d005bb72bc48d747",
                    "receiptTrie" : "0x73e74a42c4338d484b8f277cc82589b79319c7961752a62c2945201b8167809f",
                    "stateRoot" : "0xc10a6d71f152802eaa8cb565988ab97dbaba824240d276910ff0e077030ebd40",
                    "timestamp" : "0x03e8",
                    "transactionsTrie" : "0x85adab1b695bd8e624dd2ed7ba2c3a4dcd2a5389a2f5d2233466b2e74949c1ab",
                    "uncleHash" : "0x1dcc4de8dec75d7aab85b567b6ccd41ad312451b948a7413f0a142fd40d49347"
                },
                "rlp" : "0xf90323f901fca0c5ef6d878cf80e6e72d4daa0d4c6bd891e088f11165fe9e3d005bb72bc48d747a01dcc4de8dec75d7aab85b567b6ccd41ad312451b948a7413f0a142fd40d4934794945304eb96065b2a98b57a48a06ae28d285a71b5a0c10a6d71f152802eaa8cb565988ab97dbaba824240d276910ff0e077030ebd40a085adab1b695bd8e624dd2ed7ba2c3a4dcd2a5389a2f5d2233466b2e74949c1aba073e74a42c4338d484b8f277cc82589b79319c7961752a62c2945201b8167809fb90100000000000000000000000000000000000000000000000000000000000000000000000000000000000000000000000000000000000000000000000000000000000000000000000000000000000000000000000000000000000000000000000000000000000000000000000000000000000000000000000000000000000000000000000000000000000000000000000000000000000000000000000000000000000000000000000000000000000000000000000000000000000000000000000000000000000000000000000000000000000000000000000000000000000000000000000000000000000000000000000000000000000000000000000000000000008302000001887fffffffffffffff82b9e58203e880a0fc73bbfb5e89d15aab5ce7335168797f9322f2294d51c50d6be81aef853f05b2888d8fecd5ad14a6e3f90120f9011d80018463aead2694095e7baea6a6c7c4c2dfeb977efac326af552d878447e29c11b8b77ffffffffffffffffffffffffffffffffffffffffffffffffffffffffffffffffe7f000000000000000000000000000000000000000000000000000000000000c3507f0000000000000000000000010000000000000000000000000000000000000000817ffffffffffffffffffffffffffffffffffffffffffffffffffffffffffffffffe037f00000000000000000000000000000000000000000000000000000000000000016f086e2055149345ad1a018b063708141ca0f5efe2e13816d0e5bcc34be8e93519b87054b7b36511d24ad7f8ab1200121093a012c1fa789705a3778dea41af790467c39bef37682b1baffc49a9a0015c1ea7ecc0",
                "transactions" : [
                    {
                        "data" : "0x7ffffffffffffffffffffffffffffffffffffffffffffffffffffffffffffffffe7f000000000000000000000000000000000000000000000000000000000000c3507f0000000000000000000000010000000000000000000000000000000000000000817ffffffffffffffffffffffffffffffffffffffffffffffffffffffffffffffffe037f00000000000000000000000000000000000000000000000000000000000000016f086e2055149345ad1a018b06370814",
                        "gasLimit" : "0x63aead26",
                        "gasPrice" : "0x01",
                        "nonce" : "0x00",
                        "r" : "0xf5efe2e13816d0e5bcc34be8e93519b87054b7b36511d24ad7f8ab1200121093",
                        "s" : "0x12c1fa789705a3778dea41af790467c39bef37682b1baffc49a9a0015c1ea7ec",
                        "to" : "0x095e7baea6a6c7c4c2dfeb977efac326af552d87",
                        "v" : "0x1c",
                        "value" : "0x47e29c11"
                    }
                ],
                "uncleHeaders" : [
                ]
            }
        ],
        "genesisBlockHeader" : {
            "bloom" : "0x00000000000000000000000000000000000000000000000000000000000000000000000000000000000000000000000000000000000000000000000000000000000000000000000000000000000000000000000000000000000000000000000000000000000000000000000000000000000000000000000000000000000000000000000000000000000000000000000000000000000000000000000000000000000000000000000000000000000000000000000000000000000000000000000000000000000000000000000000000000000000000000000000000000000000000000000000000000000000000000000000000000000000000000000000000000",
            "coinbase" : "0x945304eb96065b2a98b57a48a06ae28d285a71b5",
            "difficulty" : "0x020000",
            "extraData" : "0x42",
            "gasLimit" : "0x7fffffffffffffff",
            "gasUsed" : "0x00",
            "hash" : "0xc5ef6d878cf80e6e72d4daa0d4c6bd891e088f11165fe9e3d005bb72bc48d747",
            "mixHash" : "0x56e81f171bcc55a6ff8345e692c0f86e5b48e01b996cadc001622fb5e363b421",
            "nonce" : "0x0102030405060708",
            "number" : "0x00",
            "parentHash" : "0x0000000000000000000000000000000000000000000000000000000000000000",
            "receiptTrie" : "0x56e81f171bcc55a6ff8345e692c0f86e5b48e01b996cadc001622fb5e363b421",
            "stateRoot" : "0x39d2a70b08692c395b7718025c87a04fbbaa6b3656302a2821c06969faa39cf5",
            "timestamp" : "0x03b6",
            "transactionsTrie" : "0x56e81f171bcc55a6ff8345e692c0f86e5b48e01b996cadc001622fb5e363b421",
            "uncleHash" : "0x1dcc4de8dec75d7aab85b567b6ccd41ad312451b948a7413f0a142fd40d49347"
        },
        "genesisRLP" : "0xf901fff901faa00000000000000000000000000000000000000000000000000000000000000000a01dcc4de8dec75d7aab85b567b6ccd41ad312451b948a7413f0a142fd40d4934794945304eb96065b2a98b57a48a06ae28d285a71b5a039d2a70b08692c395b7718025c87a04fbbaa6b3656302a2821c06969faa39cf5a056e81f171bcc55a6ff8345e692c0f86e5b48e01b996cadc001622fb5e363b421a056e81f171bcc55a6ff8345e692c0f86e5b48e01b996cadc001622fb5e363b421b90100000000000000000000000000000000000000000000000000000000000000000000000000000000000000000000000000000000000000000000000000000000000000000000000000000000000000000000000000000000000000000000000000000000000000000000000000000000000000000000000000000000000000000000000000000000000000000000000000000000000000000000000000000000000000000000000000000000000000000000000000000000000000000000000000000000000000000000000000000000000000000000000000000000000000000000000000000000000000000000000000000000000000000000000000000000008302000080887fffffffffffffff808203b642a056e81f171bcc55a6ff8345e692c0f86e5b48e01b996cadc001622fb5e363b421880102030405060708c0c0",
        "lastblockhash" : "0xc07f152231c60d648a609830d852929864a9734acda363e0824fa9ff0fdbd06a",
        "network" : "Homestead",
        "postState" : {
            "0x095e7baea6a6c7c4c2dfeb977efac326af552d87" : {
                "balance" : "0x47e29c11",
                "code" : "0x7ffffffffffffffffffffffffffffffffffffffffffffffffffffffffffffffffe7f000000000000000000000000000000000000000000000000000000000000c3507f0000000000000000000000010000000000000000000000000000000000000000817ffffffffffffffffffffffffffffffffffffffffffffffffffffffffffffffffe037f00000000000000000000000000000000000000000000000000000000000000016f086e2055149345ad1a018b063708145560005155",
                "nonce" : "0x00",
                "storage" : {
                    "0x00" : "0x086e2055149345ad1a018b0637081455"
                }
            },
            "0x945304eb96065b2a98b57a48a06ae28d285a71b5" : {
                "balance" : "0x4563918244f4ba13",
                "code" : "0x6000355415600957005b60203560003555",
                "nonce" : "0x00",
                "storage" : {
                }
            },
            "0xa94f5374fce5edbc8e2a8697c15331677e6ebf0b" : {
                "balance" : "0x0de0b6b35f80aa0a",
                "code" : "",
                "nonce" : "0x01",
                "storage" : {
                }
            }
        },
        "pre" : {
            "0x095e7baea6a6c7c4c2dfeb977efac326af552d87" : {
                "balance" : "0x00",
                "code" : "0x7ffffffffffffffffffffffffffffffffffffffffffffffffffffffffffffffffe7f000000000000000000000000000000000000000000000000000000000000c3507f0000000000000000000000010000000000000000000000000000000000000000817ffffffffffffffffffffffffffffffffffffffffffffffffffffffffffffffffe037f00000000000000000000000000000000000000000000000000000000000000016f086e2055149345ad1a018b063708145560005155",
                "nonce" : "0x00",
                "storage" : {
                }
            },
            "0x945304eb96065b2a98b57a48a06ae28d285a71b5" : {
                "balance" : "0x2e",
                "code" : "0x6000355415600957005b60203560003555",
                "nonce" : "0x00",
                "storage" : {
                }
            },
            "0xa94f5374fce5edbc8e2a8697c15331677e6ebf0b" : {
                "balance" : "0x0de0b6b3a7640000",
                "code" : "",
                "nonce" : "0x00",
                "storage" : {
                }
            }
        }
    },
    "randomStatetest413_d0g0v0_Metropolis" : {
        "blocks" : [
            {
                "blockHeader" : {
                    "bloom" : "0x00000000000000000000000000000000000000000000000000000000000000000000000000000000000000000000000000000000000000000000000000000000000000000000000000000000000000000000000000000000000000000000000000000000000000000000000000000000000000000000000000000000000000000000000000000000000000000000000000000000000000000000000000000000000000000000000000000000000000000000000000000000000000000000000000000000000000000000000000000000000000000000000000000000000000000000000000000000000000000000000000000000000000000000000000000000",
                    "coinbase" : "0x945304eb96065b2a98b57a48a06ae28d285a71b5",
                    "difficulty" : "0x020000",
                    "extraData" : "",
                    "gasLimit" : "0x7fffffffffffffff",
                    "gasUsed" : "0xb9e5",
                    "hash" : "0x2e6289163d289d97c417e4452faee2333e14d0ad9a1d653522043f2454d27ebf",
                    "mixHash" : "0xc2f947ff7ff3da94ef8c835581d06d7e78746c501eaa3d992181fc77f9be8642",
                    "nonce" : "0xd8e4aac877045569",
                    "number" : "0x01",
                    "parentHash" : "0xc5ef6d878cf80e6e72d4daa0d4c6bd891e088f11165fe9e3d005bb72bc48d747",
                    "receiptTrie" : "0xf2b98ac1a159fa9b82d7f7606deafa1880851a7e9869dc938be0be0c6aa85ecb",
                    "stateRoot" : "0xf940b559e073cf135f7a836b573c2a3889af42fcb12fb12e8571da4f76568056",
                    "timestamp" : "0x03e8",
                    "transactionsTrie" : "0x85adab1b695bd8e624dd2ed7ba2c3a4dcd2a5389a2f5d2233466b2e74949c1ab",
                    "uncleHash" : "0x1dcc4de8dec75d7aab85b567b6ccd41ad312451b948a7413f0a142fd40d49347"
                },
                "rlp" : "0xf90323f901fca0c5ef6d878cf80e6e72d4daa0d4c6bd891e088f11165fe9e3d005bb72bc48d747a01dcc4de8dec75d7aab85b567b6ccd41ad312451b948a7413f0a142fd40d4934794945304eb96065b2a98b57a48a06ae28d285a71b5a0f940b559e073cf135f7a836b573c2a3889af42fcb12fb12e8571da4f76568056a085adab1b695bd8e624dd2ed7ba2c3a4dcd2a5389a2f5d2233466b2e74949c1aba0f2b98ac1a159fa9b82d7f7606deafa1880851a7e9869dc938be0be0c6aa85ecbb90100000000000000000000000000000000000000000000000000000000000000000000000000000000000000000000000000000000000000000000000000000000000000000000000000000000000000000000000000000000000000000000000000000000000000000000000000000000000000000000000000000000000000000000000000000000000000000000000000000000000000000000000000000000000000000000000000000000000000000000000000000000000000000000000000000000000000000000000000000000000000000000000000000000000000000000000000000000000000000000000000000000000000000000000000000000008302000001887fffffffffffffff82b9e58203e880a0c2f947ff7ff3da94ef8c835581d06d7e78746c501eaa3d992181fc77f9be864288d8e4aac877045569f90120f9011d80018463aead2694095e7baea6a6c7c4c2dfeb977efac326af552d878447e29c11b8b77ffffffffffffffffffffffffffffffffffffffffffffffffffffffffffffffffe7f000000000000000000000000000000000000000000000000000000000000c3507f0000000000000000000000010000000000000000000000000000000000000000817ffffffffffffffffffffffffffffffffffffffffffffffffffffffffffffffffe037f00000000000000000000000000000000000000000000000000000000000000016f086e2055149345ad1a018b063708141ca0f5efe2e13816d0e5bcc34be8e93519b87054b7b36511d24ad7f8ab1200121093a012c1fa789705a3778dea41af790467c39bef37682b1baffc49a9a0015c1ea7ecc0",
                "transactions" : [
                    {
                        "data" : "0x7ffffffffffffffffffffffffffffffffffffffffffffffffffffffffffffffffe7f000000000000000000000000000000000000000000000000000000000000c3507f0000000000000000000000010000000000000000000000000000000000000000817ffffffffffffffffffffffffffffffffffffffffffffffffffffffffffffffffe037f00000000000000000000000000000000000000000000000000000000000000016f086e2055149345ad1a018b06370814",
                        "gasLimit" : "0x63aead26",
                        "gasPrice" : "0x01",
                        "nonce" : "0x00",
                        "r" : "0xf5efe2e13816d0e5bcc34be8e93519b87054b7b36511d24ad7f8ab1200121093",
                        "s" : "0x12c1fa789705a3778dea41af790467c39bef37682b1baffc49a9a0015c1ea7ec",
                        "to" : "0x095e7baea6a6c7c4c2dfeb977efac326af552d87",
                        "v" : "0x1c",
                        "value" : "0x47e29c11"
                    }
                ],
                "uncleHeaders" : [
                ]
            }
        ],
        "genesisBlockHeader" : {
            "bloom" : "0x00000000000000000000000000000000000000000000000000000000000000000000000000000000000000000000000000000000000000000000000000000000000000000000000000000000000000000000000000000000000000000000000000000000000000000000000000000000000000000000000000000000000000000000000000000000000000000000000000000000000000000000000000000000000000000000000000000000000000000000000000000000000000000000000000000000000000000000000000000000000000000000000000000000000000000000000000000000000000000000000000000000000000000000000000000000",
            "coinbase" : "0x945304eb96065b2a98b57a48a06ae28d285a71b5",
            "difficulty" : "0x020000",
            "extraData" : "0x42",
            "gasLimit" : "0x7fffffffffffffff",
            "gasUsed" : "0x00",
            "hash" : "0xc5ef6d878cf80e6e72d4daa0d4c6bd891e088f11165fe9e3d005bb72bc48d747",
            "mixHash" : "0x56e81f171bcc55a6ff8345e692c0f86e5b48e01b996cadc001622fb5e363b421",
            "nonce" : "0x0102030405060708",
            "number" : "0x00",
            "parentHash" : "0x0000000000000000000000000000000000000000000000000000000000000000",
            "receiptTrie" : "0x56e81f171bcc55a6ff8345e692c0f86e5b48e01b996cadc001622fb5e363b421",
            "stateRoot" : "0x39d2a70b08692c395b7718025c87a04fbbaa6b3656302a2821c06969faa39cf5",
            "timestamp" : "0x03b6",
            "transactionsTrie" : "0x56e81f171bcc55a6ff8345e692c0f86e5b48e01b996cadc001622fb5e363b421",
            "uncleHash" : "0x1dcc4de8dec75d7aab85b567b6ccd41ad312451b948a7413f0a142fd40d49347"
        },
        "genesisRLP" : "0xf901fff901faa00000000000000000000000000000000000000000000000000000000000000000a01dcc4de8dec75d7aab85b567b6ccd41ad312451b948a7413f0a142fd40d4934794945304eb96065b2a98b57a48a06ae28d285a71b5a039d2a70b08692c395b7718025c87a04fbbaa6b3656302a2821c06969faa39cf5a056e81f171bcc55a6ff8345e692c0f86e5b48e01b996cadc001622fb5e363b421a056e81f171bcc55a6ff8345e692c0f86e5b48e01b996cadc001622fb5e363b421b90100000000000000000000000000000000000000000000000000000000000000000000000000000000000000000000000000000000000000000000000000000000000000000000000000000000000000000000000000000000000000000000000000000000000000000000000000000000000000000000000000000000000000000000000000000000000000000000000000000000000000000000000000000000000000000000000000000000000000000000000000000000000000000000000000000000000000000000000000000000000000000000000000000000000000000000000000000000000000000000000000000000000000000000000000000000008302000080887fffffffffffffff808203b642a056e81f171bcc55a6ff8345e692c0f86e5b48e01b996cadc001622fb5e363b421880102030405060708c0c0",
        "lastblockhash" : "0x2e6289163d289d97c417e4452faee2333e14d0ad9a1d653522043f2454d27ebf",
        "network" : "Metropolis",
        "postState" : {
            "0x00000000000000000000000000000000000000f0" : {
                "balance" : "0x00",
                "code" : "",
                "nonce" : "0x00",
                "storage" : {
                }
            },
            "0x095e7baea6a6c7c4c2dfeb977efac326af552d87" : {
                "balance" : "0x47e29c11",
                "code" : "0x7ffffffffffffffffffffffffffffffffffffffffffffffffffffffffffffffffe7f000000000000000000000000000000000000000000000000000000000000c3507f0000000000000000000000010000000000000000000000000000000000000000817ffffffffffffffffffffffffffffffffffffffffffffffffffffffffffffffffe037f00000000000000000000000000000000000000000000000000000000000000016f086e2055149345ad1a018b063708145560005155",
                "nonce" : "0x00",
                "storage" : {
                    "0x00" : "0x086e2055149345ad1a018b0637081455"
                }
            },
            "0x945304eb96065b2a98b57a48a06ae28d285a71b5" : {
                "balance" : "0x4563918244f4ba13",
                "code" : "0x6000355415600957005b60203560003555",
                "nonce" : "0x00",
                "storage" : {
                }
            },
            "0xa94f5374fce5edbc8e2a8697c15331677e6ebf0b" : {
                "balance" : "0x0de0b6b35f80aa0a",
                "code" : "",
                "nonce" : "0x01",
                "storage" : {
                }
            }
        },
        "pre" : {
            "0x095e7baea6a6c7c4c2dfeb977efac326af552d87" : {
                "balance" : "0x00",
                "code" : "0x7ffffffffffffffffffffffffffffffffffffffffffffffffffffffffffffffffe7f000000000000000000000000000000000000000000000000000000000000c3507f0000000000000000000000010000000000000000000000000000000000000000817ffffffffffffffffffffffffffffffffffffffffffffffffffffffffffffffffe037f00000000000000000000000000000000000000000000000000000000000000016f086e2055149345ad1a018b063708145560005155",
                "nonce" : "0x00",
                "storage" : {
                }
            },
            "0x945304eb96065b2a98b57a48a06ae28d285a71b5" : {
                "balance" : "0x2e",
                "code" : "0x6000355415600957005b60203560003555",
                "nonce" : "0x00",
                "storage" : {
                }
            },
            "0xa94f5374fce5edbc8e2a8697c15331677e6ebf0b" : {
                "balance" : "0x0de0b6b3a7640000",
                "code" : "",
                "nonce" : "0x00",
                "storage" : {
                }
            }
        }
    }
}