{
    "randomStatetest187_d0g0v0_EIP150" : {
        "blocks" : [
            {
                "blockHeader" : {
                    "bloom" : "0x00000000000000000000000000000000000000000000000000000000000000000000000000000000000000000000000000000000000000000000000000000000000000000000000000000000000000000000000000000000000000000000000000000000000000000000000000000000000000000000000000000000000000000000000000000000000000000000000000000000000000000000000000000000000000000000000000000000000000000000000000000000000000000000000000000000000000000000000000000000000000000000000000000000000000000000000000000000000000000000000000000000000000000000000000000000",
                    "coinbase" : "0x945304eb96065b2a98b57a48a06ae28d285a71b5",
                    "difficulty" : "0x020000",
                    "extraData" : "",
                    "gasLimit" : "0x7fffffffffffffff",
                    "gasUsed" : "0xaea1",
                    "hash" : "0xe59f62115a6e4113f21991a2e87373ade03a834ed133c79192d1879226d847c7",
                    "mixHash" : "0xc436cbbf6beafb58ef9266a815e0017318027b0c172cda26780e59c9e41c4f70",
                    "nonce" : "0xec6cddb706021ec1",
                    "number" : "0x01",
                    "parentHash" : "0x5e82e51ac6fccc9f840623fb7cdfd752a7b8965e4192e400b5c955e018601db3",
                    "receiptTrie" : "0x351afbbbf5c19c718f23df4010603ddb6d4caf777a2fa5a7fd36d6320084154f",
                    "stateRoot" : "0x31e4e8072a5e949c56c66457ce7e317afe37f73ba251441b9e7b2fa9cf151a3b",
                    "timestamp" : "0x03e8",
                    "transactionsTrie" : "0x2364d25d826df75c5a6dbe1b0226e819673e1942bdb76c7ac54b49cc303b2d72",
                    "uncleHash" : "0x1dcc4de8dec75d7aab85b567b6ccd41ad312451b948a7413f0a142fd40d49347"
                },
                "rlp" : "0xf90323f901fca05e82e51ac6fccc9f840623fb7cdfd752a7b8965e4192e400b5c955e018601db3a01dcc4de8dec75d7aab85b567b6ccd41ad312451b948a7413f0a142fd40d4934794945304eb96065b2a98b57a48a06ae28d285a71b5a031e4e8072a5e949c56c66457ce7e317afe37f73ba251441b9e7b2fa9cf151a3ba02364d25d826df75c5a6dbe1b0226e819673e1942bdb76c7ac54b49cc303b2d72a0351afbbbf5c19c718f23df4010603ddb6d4caf777a2fa5a7fd36d6320084154fb90100000000000000000000000000000000000000000000000000000000000000000000000000000000000000000000000000000000000000000000000000000000000000000000000000000000000000000000000000000000000000000000000000000000000000000000000000000000000000000000000000000000000000000000000000000000000000000000000000000000000000000000000000000000000000000000000000000000000000000000000000000000000000000000000000000000000000000000000000000000000000000000000000000000000000000000000000000000000000000000000000000000000000000000000000000000008302000001887fffffffffffffff82aea18203e880a0c436cbbf6beafb58ef9266a815e0017318027b0c172cda26780e59c9e41c4f7088ec6cddb706021ec1f90120f9011d800184316eeeb194095e7baea6a6c7c4c2dfeb977efac326af552d8784372e4882b8b77f000000000000000000000000ffffffffffffffffffffffffffffffffffffffff457f00000000000000000000000000000000000000000000000000000000000000007f00000000000000000000000000000000000000000000000000000000000000017f000000000000000000000000000000000000000000000000000000000000c3507f00000000000000000000000000000000000000000000000000000000000000006f75988036a0562096036b04518877199d1ba016a610b5a121ec44e776b5076432fd20fe891dca58701b5b71531997722f40e1a054a220b1ce5685fb9b189be21f5e32b02c062e7d8d060b83157adcaf78121758c0",
                "transactions" : [
                    {
                        "data" : "0x7f000000000000000000000000ffffffffffffffffffffffffffffffffffffffff457f00000000000000000000000000000000000000000000000000000000000000007f00000000000000000000000000000000000000000000000000000000000000017f000000000000000000000000000000000000000000000000000000000000c3507f00000000000000000000000000000000000000000000000000000000000000006f75988036a0562096036b04518877199d",
                        "gasLimit" : "0x316eeeb1",
                        "gasPrice" : "0x01",
                        "nonce" : "0x00",
                        "r" : "0x16a610b5a121ec44e776b5076432fd20fe891dca58701b5b71531997722f40e1",
                        "s" : "0x54a220b1ce5685fb9b189be21f5e32b02c062e7d8d060b83157adcaf78121758",
                        "to" : "0x095e7baea6a6c7c4c2dfeb977efac326af552d87",
                        "v" : "0x1b",
                        "value" : "0x372e4882"
                    }
                ],
                "uncleHeaders" : [
                ]
            }
        ],
        "genesisBlockHeader" : {
            "bloom" : "0x00000000000000000000000000000000000000000000000000000000000000000000000000000000000000000000000000000000000000000000000000000000000000000000000000000000000000000000000000000000000000000000000000000000000000000000000000000000000000000000000000000000000000000000000000000000000000000000000000000000000000000000000000000000000000000000000000000000000000000000000000000000000000000000000000000000000000000000000000000000000000000000000000000000000000000000000000000000000000000000000000000000000000000000000000000000",
            "coinbase" : "0x945304eb96065b2a98b57a48a06ae28d285a71b5",
            "difficulty" : "0x020000",
            "extraData" : "0x42",
            "gasLimit" : "0x7fffffffffffffff",
            "gasUsed" : "0x00",
            "hash" : "0x5e82e51ac6fccc9f840623fb7cdfd752a7b8965e4192e400b5c955e018601db3",
            "mixHash" : "0x56e81f171bcc55a6ff8345e692c0f86e5b48e01b996cadc001622fb5e363b421",
            "nonce" : "0x0102030405060708",
            "number" : "0x00",
            "parentHash" : "0x0000000000000000000000000000000000000000000000000000000000000000",
            "receiptTrie" : "0x56e81f171bcc55a6ff8345e692c0f86e5b48e01b996cadc001622fb5e363b421",
            "stateRoot" : "0x900c615a72390cc0407fcdb01401f312940de63655646c888a32dcfaf22bd97b",
            "timestamp" : "0x03b6",
            "transactionsTrie" : "0x56e81f171bcc55a6ff8345e692c0f86e5b48e01b996cadc001622fb5e363b421",
            "uncleHash" : "0x1dcc4de8dec75d7aab85b567b6ccd41ad312451b948a7413f0a142fd40d49347"
        },
        "genesisRLP" : "0xf901fff901faa00000000000000000000000000000000000000000000000000000000000000000a01dcc4de8dec75d7aab85b567b6ccd41ad312451b948a7413f0a142fd40d4934794945304eb96065b2a98b57a48a06ae28d285a71b5a0900c615a72390cc0407fcdb01401f312940de63655646c888a32dcfaf22bd97ba056e81f171bcc55a6ff8345e692c0f86e5b48e01b996cadc001622fb5e363b421a056e81f171bcc55a6ff8345e692c0f86e5b48e01b996cadc001622fb5e363b421b90100000000000000000000000000000000000000000000000000000000000000000000000000000000000000000000000000000000000000000000000000000000000000000000000000000000000000000000000000000000000000000000000000000000000000000000000000000000000000000000000000000000000000000000000000000000000000000000000000000000000000000000000000000000000000000000000000000000000000000000000000000000000000000000000000000000000000000000000000000000000000000000000000000000000000000000000000000000000000000000000000000000000000000000000000000000008302000080887fffffffffffffff808203b642a056e81f171bcc55a6ff8345e692c0f86e5b48e01b996cadc001622fb5e363b421880102030405060708c0c0",
        "lastblockhash" : "0xe59f62115a6e4113f21991a2e87373ade03a834ed133c79192d1879226d847c7",
        "network" : "EIP150",
        "postState" : {
            "0x095e7baea6a6c7c4c2dfeb977efac326af552d87" : {
                "balance" : "0x372e4882",
                "code" : "0x7f000000000000000000000000ffffffffffffffffffffffffffffffffffffffff457f00000000000000000000000000000000000000000000000000000000000000007f00000000000000000000000000000000000000000000000000000000000000017f000000000000000000000000000000000000000000000000000000000000c3507f00000000000000000000000000000000000000000000000000000000000000006f75988036a0562096036b04518877199d60005155",
                "nonce" : "0x00",
                "storage" : {
                    "0x00" : "0x75988036a0562096036b04518877199d"
                }
            },
            "0x945304eb96065b2a98b57a48a06ae28d285a71b5" : {
                "balance" : "0x4563918244f4aecf",
                "code" : "0x6000355415600957005b60203560003555",
                "nonce" : "0x00",
                "storage" : {
                }
            },
            "0xa94f5374fce5edbc8e2a8697c15331677e6ebf0b" : {
                "balance" : "0x0de0b6b3703508dd",
                "code" : "",
                "nonce" : "0x01",
                "storage" : {
                }
            }
        },
        "pre" : {
            "0x095e7baea6a6c7c4c2dfeb977efac326af552d87" : {
                "balance" : "0x00",
                "code" : "0x7f000000000000000000000000ffffffffffffffffffffffffffffffffffffffff457f00000000000000000000000000000000000000000000000000000000000000007f00000000000000000000000000000000000000000000000000000000000000017f000000000000000000000000000000000000000000000000000000000000c3507f00000000000000000000000000000000000000000000000000000000000000006f75988036a0562096036b04518877199d60005155",
                "nonce" : "0x00",
                "storage" : {
                }
            },
            "0x945304eb96065b2a98b57a48a06ae28d285a71b5" : {
                "balance" : "0x2e",
                "code" : "0x6000355415600957005b60203560003555",
                "nonce" : "0x00",
                "storage" : {
                }
            },
            "0xa94f5374fce5edbc8e2a8697c15331677e6ebf0b" : {
                "balance" : "0x0de0b6b3a7640000",
                "code" : "",
                "nonce" : "0x00",
                "storage" : {
                }
            }
        }
    },
    "randomStatetest187_d0g0v0_EIP158" : {
        "blocks" : [
            {
                "blockHeader" : {
                    "bloom" : "0x00000000000000000000000000000000000000000000000000000000000000000000000000000000000000000000000000000000000000000000000000000000000000000000000000000000000000000000000000000000000000000000000000000000000000000000000000000000000000000000000000000000000000000000000000000000000000000000000000000000000000000000000000000000000000000000000000000000000000000000000000000000000000000000000000000000000000000000000000000000000000000000000000000000000000000000000000000000000000000000000000000000000000000000000000000000",
                    "coinbase" : "0x945304eb96065b2a98b57a48a06ae28d285a71b5",
                    "difficulty" : "0x020000",
                    "extraData" : "",
                    "gasLimit" : "0x7fffffffffffffff",
                    "gasUsed" : "0xaea1",
                    "hash" : "0xa4650c1f22bcb733373ef146a78d6110a7562a8ac0330042a5710ee230f3ccb5",
                    "mixHash" : "0xe749f87c0659ef25fca45a1314b00896ab7f9a9d651c375c6354c36abe51fbf3",
                    "nonce" : "0xd0ab7e5c807c9bdf",
                    "number" : "0x01",
                    "parentHash" : "0x5e82e51ac6fccc9f840623fb7cdfd752a7b8965e4192e400b5c955e018601db3",
                    "receiptTrie" : "0x351afbbbf5c19c718f23df4010603ddb6d4caf777a2fa5a7fd36d6320084154f",
                    "stateRoot" : "0x31e4e8072a5e949c56c66457ce7e317afe37f73ba251441b9e7b2fa9cf151a3b",
                    "timestamp" : "0x03e8",
                    "transactionsTrie" : "0x2364d25d826df75c5a6dbe1b0226e819673e1942bdb76c7ac54b49cc303b2d72",
                    "uncleHash" : "0x1dcc4de8dec75d7aab85b567b6ccd41ad312451b948a7413f0a142fd40d49347"
                },
                "rlp" : "0xf90323f901fca05e82e51ac6fccc9f840623fb7cdfd752a7b8965e4192e400b5c955e018601db3a01dcc4de8dec75d7aab85b567b6ccd41ad312451b948a7413f0a142fd40d4934794945304eb96065b2a98b57a48a06ae28d285a71b5a031e4e8072a5e949c56c66457ce7e317afe37f73ba251441b9e7b2fa9cf151a3ba02364d25d826df75c5a6dbe1b0226e819673e1942bdb76c7ac54b49cc303b2d72a0351afbbbf5c19c718f23df4010603ddb6d4caf777a2fa5a7fd36d6320084154fb90100000000000000000000000000000000000000000000000000000000000000000000000000000000000000000000000000000000000000000000000000000000000000000000000000000000000000000000000000000000000000000000000000000000000000000000000000000000000000000000000000000000000000000000000000000000000000000000000000000000000000000000000000000000000000000000000000000000000000000000000000000000000000000000000000000000000000000000000000000000000000000000000000000000000000000000000000000000000000000000000000000000000000000000000000000000008302000001887fffffffffffffff82aea18203e880a0e749f87c0659ef25fca45a1314b00896ab7f9a9d651c375c6354c36abe51fbf388d0ab7e5c807c9bdff90120f9011d800184316eeeb194095e7baea6a6c7c4c2dfeb977efac326af552d8784372e4882b8b77f000000000000000000000000ffffffffffffffffffffffffffffffffffffffff457f00000000000000000000000000000000000000000000000000000000000000007f00000000000000000000000000000000000000000000000000000000000000017f000000000000000000000000000000000000000000000000000000000000c3507f00000000000000000000000000000000000000000000000000000000000000006f75988036a0562096036b04518877199d1ba016a610b5a121ec44e776b5076432fd20fe891dca58701b5b71531997722f40e1a054a220b1ce5685fb9b189be21f5e32b02c062e7d8d060b83157adcaf78121758c0",
                "transactions" : [
                    {
                        "data" : "0x7f000000000000000000000000ffffffffffffffffffffffffffffffffffffffff457f00000000000000000000000000000000000000000000000000000000000000007f00000000000000000000000000000000000000000000000000000000000000017f000000000000000000000000000000000000000000000000000000000000c3507f00000000000000000000000000000000000000000000000000000000000000006f75988036a0562096036b04518877199d",
                        "gasLimit" : "0x316eeeb1",
                        "gasPrice" : "0x01",
                        "nonce" : "0x00",
                        "r" : "0x16a610b5a121ec44e776b5076432fd20fe891dca58701b5b71531997722f40e1",
                        "s" : "0x54a220b1ce5685fb9b189be21f5e32b02c062e7d8d060b83157adcaf78121758",
                        "to" : "0x095e7baea6a6c7c4c2dfeb977efac326af552d87",
                        "v" : "0x1b",
                        "value" : "0x372e4882"
                    }
                ],
                "uncleHeaders" : [
                ]
            }
        ],
        "genesisBlockHeader" : {
            "bloom" : "0x00000000000000000000000000000000000000000000000000000000000000000000000000000000000000000000000000000000000000000000000000000000000000000000000000000000000000000000000000000000000000000000000000000000000000000000000000000000000000000000000000000000000000000000000000000000000000000000000000000000000000000000000000000000000000000000000000000000000000000000000000000000000000000000000000000000000000000000000000000000000000000000000000000000000000000000000000000000000000000000000000000000000000000000000000000000",
            "coinbase" : "0x945304eb96065b2a98b57a48a06ae28d285a71b5",
            "difficulty" : "0x020000",
            "extraData" : "0x42",
            "gasLimit" : "0x7fffffffffffffff",
            "gasUsed" : "0x00",
            "hash" : "0x5e82e51ac6fccc9f840623fb7cdfd752a7b8965e4192e400b5c955e018601db3",
            "mixHash" : "0x56e81f171bcc55a6ff8345e692c0f86e5b48e01b996cadc001622fb5e363b421",
            "nonce" : "0x0102030405060708",
            "number" : "0x00",
            "parentHash" : "0x0000000000000000000000000000000000000000000000000000000000000000",
            "receiptTrie" : "0x56e81f171bcc55a6ff8345e692c0f86e5b48e01b996cadc001622fb5e363b421",
            "stateRoot" : "0x900c615a72390cc0407fcdb01401f312940de63655646c888a32dcfaf22bd97b",
            "timestamp" : "0x03b6",
            "transactionsTrie" : "0x56e81f171bcc55a6ff8345e692c0f86e5b48e01b996cadc001622fb5e363b421",
            "uncleHash" : "0x1dcc4de8dec75d7aab85b567b6ccd41ad312451b948a7413f0a142fd40d49347"
        },
        "genesisRLP" : "0xf901fff901faa00000000000000000000000000000000000000000000000000000000000000000a01dcc4de8dec75d7aab85b567b6ccd41ad312451b948a7413f0a142fd40d4934794945304eb96065b2a98b57a48a06ae28d285a71b5a0900c615a72390cc0407fcdb01401f312940de63655646c888a32dcfaf22bd97ba056e81f171bcc55a6ff8345e692c0f86e5b48e01b996cadc001622fb5e363b421a056e81f171bcc55a6ff8345e692c0f86e5b48e01b996cadc001622fb5e363b421b90100000000000000000000000000000000000000000000000000000000000000000000000000000000000000000000000000000000000000000000000000000000000000000000000000000000000000000000000000000000000000000000000000000000000000000000000000000000000000000000000000000000000000000000000000000000000000000000000000000000000000000000000000000000000000000000000000000000000000000000000000000000000000000000000000000000000000000000000000000000000000000000000000000000000000000000000000000000000000000000000000000000000000000000000000000000008302000080887fffffffffffffff808203b642a056e81f171bcc55a6ff8345e692c0f86e5b48e01b996cadc001622fb5e363b421880102030405060708c0c0",
        "lastblockhash" : "0xa4650c1f22bcb733373ef146a78d6110a7562a8ac0330042a5710ee230f3ccb5",
        "network" : "EIP158",
        "postState" : {
            "0x095e7baea6a6c7c4c2dfeb977efac326af552d87" : {
                "balance" : "0x372e4882",
                "code" : "0x7f000000000000000000000000ffffffffffffffffffffffffffffffffffffffff457f00000000000000000000000000000000000000000000000000000000000000007f00000000000000000000000000000000000000000000000000000000000000017f000000000000000000000000000000000000000000000000000000000000c3507f00000000000000000000000000000000000000000000000000000000000000006f75988036a0562096036b04518877199d60005155",
                "nonce" : "0x00",
                "storage" : {
                    "0x00" : "0x75988036a0562096036b04518877199d"
                }
            },
            "0x945304eb96065b2a98b57a48a06ae28d285a71b5" : {
                "balance" : "0x4563918244f4aecf",
                "code" : "0x6000355415600957005b60203560003555",
                "nonce" : "0x00",
                "storage" : {
                }
            },
            "0xa94f5374fce5edbc8e2a8697c15331677e6ebf0b" : {
                "balance" : "0x0de0b6b3703508dd",
                "code" : "",
                "nonce" : "0x01",
                "storage" : {
                }
            }
        },
        "pre" : {
            "0x095e7baea6a6c7c4c2dfeb977efac326af552d87" : {
                "balance" : "0x00",
                "code" : "0x7f000000000000000000000000ffffffffffffffffffffffffffffffffffffffff457f00000000000000000000000000000000000000000000000000000000000000007f00000000000000000000000000000000000000000000000000000000000000017f000000000000000000000000000000000000000000000000000000000000c3507f00000000000000000000000000000000000000000000000000000000000000006f75988036a0562096036b04518877199d60005155",
                "nonce" : "0x00",
                "storage" : {
                }
            },
            "0x945304eb96065b2a98b57a48a06ae28d285a71b5" : {
                "balance" : "0x2e",
                "code" : "0x6000355415600957005b60203560003555",
                "nonce" : "0x00",
                "storage" : {
                }
            },
            "0xa94f5374fce5edbc8e2a8697c15331677e6ebf0b" : {
                "balance" : "0x0de0b6b3a7640000",
                "code" : "",
                "nonce" : "0x00",
                "storage" : {
                }
            }
        }
    },
    "randomStatetest187_d0g0v0_Frontier" : {
        "blocks" : [
            {
                "blockHeader" : {
                    "bloom" : "0x00000000000000000000000000000000000000000000000000000000000000000000000000000000000000000000000000000000000000000000000000000000000000000000000000000000000000000000000000000000000000000000000000000000000000000000000000000000000000000000000000000000000000000000000000000000000000000000000000000000000000000000000000000000000000000000000000000000000000000000000000000000000000000000000000000000000000000000000000000000000000000000000000000000000000000000000000000000000000000000000000000000000000000000000000000000",
                    "coinbase" : "0x945304eb96065b2a98b57a48a06ae28d285a71b5",
                    "difficulty" : "0x020000",
                    "extraData" : "",
                    "gasLimit" : "0x7fffffffffffffff",
                    "gasUsed" : "0xaea1",
                    "hash" : "0x5a16a3b815419860e2004555d53a424b1ba2d0613c92cff17fec2d7b3bf88fdc",
                    "mixHash" : "0xd217e146b3e0aed30bc2fcb8410ec2920fae1d5d9704efb531bdf56f1d92989d",
                    "nonce" : "0xde2ce80febc4147f",
                    "number" : "0x01",
                    "parentHash" : "0x5e82e51ac6fccc9f840623fb7cdfd752a7b8965e4192e400b5c955e018601db3",
                    "receiptTrie" : "0x351afbbbf5c19c718f23df4010603ddb6d4caf777a2fa5a7fd36d6320084154f",
                    "stateRoot" : "0x31e4e8072a5e949c56c66457ce7e317afe37f73ba251441b9e7b2fa9cf151a3b",
                    "timestamp" : "0x03e8",
                    "transactionsTrie" : "0x2364d25d826df75c5a6dbe1b0226e819673e1942bdb76c7ac54b49cc303b2d72",
                    "uncleHash" : "0x1dcc4de8dec75d7aab85b567b6ccd41ad312451b948a7413f0a142fd40d49347"
                },
                "rlp" : "0xf90323f901fca05e82e51ac6fccc9f840623fb7cdfd752a7b8965e4192e400b5c955e018601db3a01dcc4de8dec75d7aab85b567b6ccd41ad312451b948a7413f0a142fd40d4934794945304eb96065b2a98b57a48a06ae28d285a71b5a031e4e8072a5e949c56c66457ce7e317afe37f73ba251441b9e7b2fa9cf151a3ba02364d25d826df75c5a6dbe1b0226e819673e1942bdb76c7ac54b49cc303b2d72a0351afbbbf5c19c718f23df4010603ddb6d4caf777a2fa5a7fd36d6320084154fb90100000000000000000000000000000000000000000000000000000000000000000000000000000000000000000000000000000000000000000000000000000000000000000000000000000000000000000000000000000000000000000000000000000000000000000000000000000000000000000000000000000000000000000000000000000000000000000000000000000000000000000000000000000000000000000000000000000000000000000000000000000000000000000000000000000000000000000000000000000000000000000000000000000000000000000000000000000000000000000000000000000000000000000000000000000000008302000001887fffffffffffffff82aea18203e880a0d217e146b3e0aed30bc2fcb8410ec2920fae1d5d9704efb531bdf56f1d92989d88de2ce80febc4147ff90120f9011d800184316eeeb194095e7baea6a6c7c4c2dfeb977efac326af552d8784372e4882b8b77f000000000000000000000000ffffffffffffffffffffffffffffffffffffffff457f00000000000000000000000000000000000000000000000000000000000000007f00000000000000000000000000000000000000000000000000000000000000017f000000000000000000000000000000000000000000000000000000000000c3507f00000000000000000000000000000000000000000000000000000000000000006f75988036a0562096036b04518877199d1ba016a610b5a121ec44e776b5076432fd20fe891dca58701b5b71531997722f40e1a054a220b1ce5685fb9b189be21f5e32b02c062e7d8d060b83157adcaf78121758c0",
                "transactions" : [
                    {
                        "data" : "0x7f000000000000000000000000ffffffffffffffffffffffffffffffffffffffff457f00000000000000000000000000000000000000000000000000000000000000007f00000000000000000000000000000000000000000000000000000000000000017f000000000000000000000000000000000000000000000000000000000000c3507f00000000000000000000000000000000000000000000000000000000000000006f75988036a0562096036b04518877199d",
                        "gasLimit" : "0x316eeeb1",
                        "gasPrice" : "0x01",
                        "nonce" : "0x00",
                        "r" : "0x16a610b5a121ec44e776b5076432fd20fe891dca58701b5b71531997722f40e1",
                        "s" : "0x54a220b1ce5685fb9b189be21f5e32b02c062e7d8d060b83157adcaf78121758",
                        "to" : "0x095e7baea6a6c7c4c2dfeb977efac326af552d87",
                        "v" : "0x1b",
                        "value" : "0x372e4882"
                    }
                ],
                "uncleHeaders" : [
                ]
            }
        ],
        "genesisBlockHeader" : {
            "bloom" : "0x00000000000000000000000000000000000000000000000000000000000000000000000000000000000000000000000000000000000000000000000000000000000000000000000000000000000000000000000000000000000000000000000000000000000000000000000000000000000000000000000000000000000000000000000000000000000000000000000000000000000000000000000000000000000000000000000000000000000000000000000000000000000000000000000000000000000000000000000000000000000000000000000000000000000000000000000000000000000000000000000000000000000000000000000000000000",
            "coinbase" : "0x945304eb96065b2a98b57a48a06ae28d285a71b5",
            "difficulty" : "0x020000",
            "extraData" : "0x42",
            "gasLimit" : "0x7fffffffffffffff",
            "gasUsed" : "0x00",
            "hash" : "0x5e82e51ac6fccc9f840623fb7cdfd752a7b8965e4192e400b5c955e018601db3",
            "mixHash" : "0x56e81f171bcc55a6ff8345e692c0f86e5b48e01b996cadc001622fb5e363b421",
            "nonce" : "0x0102030405060708",
            "number" : "0x00",
            "parentHash" : "0x0000000000000000000000000000000000000000000000000000000000000000",
            "receiptTrie" : "0x56e81f171bcc55a6ff8345e692c0f86e5b48e01b996cadc001622fb5e363b421",
            "stateRoot" : "0x900c615a72390cc0407fcdb01401f312940de63655646c888a32dcfaf22bd97b",
            "timestamp" : "0x03b6",
            "transactionsTrie" : "0x56e81f171bcc55a6ff8345e692c0f86e5b48e01b996cadc001622fb5e363b421",
            "uncleHash" : "0x1dcc4de8dec75d7aab85b567b6ccd41ad312451b948a7413f0a142fd40d49347"
        },
        "genesisRLP" : "0xf901fff901faa00000000000000000000000000000000000000000000000000000000000000000a01dcc4de8dec75d7aab85b567b6ccd41ad312451b948a7413f0a142fd40d4934794945304eb96065b2a98b57a48a06ae28d285a71b5a0900c615a72390cc0407fcdb01401f312940de63655646c888a32dcfaf22bd97ba056e81f171bcc55a6ff8345e692c0f86e5b48e01b996cadc001622fb5e363b421a056e81f171bcc55a6ff8345e692c0f86e5b48e01b996cadc001622fb5e363b421b90100000000000000000000000000000000000000000000000000000000000000000000000000000000000000000000000000000000000000000000000000000000000000000000000000000000000000000000000000000000000000000000000000000000000000000000000000000000000000000000000000000000000000000000000000000000000000000000000000000000000000000000000000000000000000000000000000000000000000000000000000000000000000000000000000000000000000000000000000000000000000000000000000000000000000000000000000000000000000000000000000000000000000000000000000000000008302000080887fffffffffffffff808203b642a056e81f171bcc55a6ff8345e692c0f86e5b48e01b996cadc001622fb5e363b421880102030405060708c0c0",
        "lastblockhash" : "0x5a16a3b815419860e2004555d53a424b1ba2d0613c92cff17fec2d7b3bf88fdc",
        "network" : "Frontier",
        "postState" : {
            "0x095e7baea6a6c7c4c2dfeb977efac326af552d87" : {
                "balance" : "0x372e4882",
                "code" : "0x7f000000000000000000000000ffffffffffffffffffffffffffffffffffffffff457f00000000000000000000000000000000000000000000000000000000000000007f00000000000000000000000000000000000000000000000000000000000000017f000000000000000000000000000000000000000000000000000000000000c3507f00000000000000000000000000000000000000000000000000000000000000006f75988036a0562096036b04518877199d60005155",
                "nonce" : "0x00",
                "storage" : {
                    "0x00" : "0x75988036a0562096036b04518877199d"
                }
            },
            "0x945304eb96065b2a98b57a48a06ae28d285a71b5" : {
                "balance" : "0x4563918244f4aecf",
                "code" : "0x6000355415600957005b60203560003555",
                "nonce" : "0x00",
                "storage" : {
                }
            },
            "0xa94f5374fce5edbc8e2a8697c15331677e6ebf0b" : {
                "balance" : "0x0de0b6b3703508dd",
                "code" : "",
                "nonce" : "0x01",
                "storage" : {
                }
            }
        },
        "pre" : {
            "0x095e7baea6a6c7c4c2dfeb977efac326af552d87" : {
                "balance" : "0x00",
                "code" : "0x7f000000000000000000000000ffffffffffffffffffffffffffffffffffffffff457f00000000000000000000000000000000000000000000000000000000000000007f00000000000000000000000000000000000000000000000000000000000000017f000000000000000000000000000000000000000000000000000000000000c3507f00000000000000000000000000000000000000000000000000000000000000006f75988036a0562096036b04518877199d60005155",
                "nonce" : "0x00",
                "storage" : {
                }
            },
            "0x945304eb96065b2a98b57a48a06ae28d285a71b5" : {
                "balance" : "0x2e",
                "code" : "0x6000355415600957005b60203560003555",
                "nonce" : "0x00",
                "storage" : {
                }
            },
            "0xa94f5374fce5edbc8e2a8697c15331677e6ebf0b" : {
                "balance" : "0x0de0b6b3a7640000",
                "code" : "",
                "nonce" : "0x00",
                "storage" : {
                }
            }
        }
    },
    "randomStatetest187_d0g0v0_Homestead" : {
        "blocks" : [
            {
                "blockHeader" : {
                    "bloom" : "0x00000000000000000000000000000000000000000000000000000000000000000000000000000000000000000000000000000000000000000000000000000000000000000000000000000000000000000000000000000000000000000000000000000000000000000000000000000000000000000000000000000000000000000000000000000000000000000000000000000000000000000000000000000000000000000000000000000000000000000000000000000000000000000000000000000000000000000000000000000000000000000000000000000000000000000000000000000000000000000000000000000000000000000000000000000000",
                    "coinbase" : "0x945304eb96065b2a98b57a48a06ae28d285a71b5",
                    "difficulty" : "0x020000",
                    "extraData" : "",
                    "gasLimit" : "0x7fffffffffffffff",
                    "gasUsed" : "0xaea1",
                    "hash" : "0x306bbcfbacb98a758d370afa79abefbb9676940e3da4aa847d959fa965b27efe",
                    "mixHash" : "0x391749f82dec4ed851a0779e449d2556ee5b3b4cc3ba79ca3b27fa41ab1fbd79",
                    "nonce" : "0x34dc255b0b3cef44",
                    "number" : "0x01",
                    "parentHash" : "0x5e82e51ac6fccc9f840623fb7cdfd752a7b8965e4192e400b5c955e018601db3",
                    "receiptTrie" : "0x351afbbbf5c19c718f23df4010603ddb6d4caf777a2fa5a7fd36d6320084154f",
                    "stateRoot" : "0x31e4e8072a5e949c56c66457ce7e317afe37f73ba251441b9e7b2fa9cf151a3b",
                    "timestamp" : "0x03e8",
                    "transactionsTrie" : "0x2364d25d826df75c5a6dbe1b0226e819673e1942bdb76c7ac54b49cc303b2d72",
                    "uncleHash" : "0x1dcc4de8dec75d7aab85b567b6ccd41ad312451b948a7413f0a142fd40d49347"
                },
                "rlp" : "0xf90323f901fca05e82e51ac6fccc9f840623fb7cdfd752a7b8965e4192e400b5c955e018601db3a01dcc4de8dec75d7aab85b567b6ccd41ad312451b948a7413f0a142fd40d4934794945304eb96065b2a98b57a48a06ae28d285a71b5a031e4e8072a5e949c56c66457ce7e317afe37f73ba251441b9e7b2fa9cf151a3ba02364d25d826df75c5a6dbe1b0226e819673e1942bdb76c7ac54b49cc303b2d72a0351afbbbf5c19c718f23df4010603ddb6d4caf777a2fa5a7fd36d6320084154fb90100000000000000000000000000000000000000000000000000000000000000000000000000000000000000000000000000000000000000000000000000000000000000000000000000000000000000000000000000000000000000000000000000000000000000000000000000000000000000000000000000000000000000000000000000000000000000000000000000000000000000000000000000000000000000000000000000000000000000000000000000000000000000000000000000000000000000000000000000000000000000000000000000000000000000000000000000000000000000000000000000000000000000000000000000000000008302000001887fffffffffffffff82aea18203e880a0391749f82dec4ed851a0779e449d2556ee5b3b4cc3ba79ca3b27fa41ab1fbd798834dc255b0b3cef44f90120f9011d800184316eeeb194095e7baea6a6c7c4c2dfeb977efac326af552d8784372e4882b8b77f000000000000000000000000ffffffffffffffffffffffffffffffffffffffff457f00000000000000000000000000000000000000000000000000000000000000007f00000000000000000000000000000000000000000000000000000000000000017f000000000000000000000000000000000000000000000000000000000000c3507f00000000000000000000000000000000000000000000000000000000000000006f75988036a0562096036b04518877199d1ba016a610b5a121ec44e776b5076432fd20fe891dca58701b5b71531997722f40e1a054a220b1ce5685fb9b189be21f5e32b02c062e7d8d060b83157adcaf78121758c0",
                "transactions" : [
                    {
                        "data" : "0x7f000000000000000000000000ffffffffffffffffffffffffffffffffffffffff457f00000000000000000000000000000000000000000000000000000000000000007f00000000000000000000000000000000000000000000000000000000000000017f000000000000000000000000000000000000000000000000000000000000c3507f00000000000000000000000000000000000000000000000000000000000000006f75988036a0562096036b04518877199d",
                        "gasLimit" : "0x316eeeb1",
                        "gasPrice" : "0x01",
                        "nonce" : "0x00",
                        "r" : "0x16a610b5a121ec44e776b5076432fd20fe891dca58701b5b71531997722f40e1",
                        "s" : "0x54a220b1ce5685fb9b189be21f5e32b02c062e7d8d060b83157adcaf78121758",
                        "to" : "0x095e7baea6a6c7c4c2dfeb977efac326af552d87",
                        "v" : "0x1b",
                        "value" : "0x372e4882"
                    }
                ],
                "uncleHeaders" : [
                ]
            }
        ],
        "genesisBlockHeader" : {
            "bloom" : "0x00000000000000000000000000000000000000000000000000000000000000000000000000000000000000000000000000000000000000000000000000000000000000000000000000000000000000000000000000000000000000000000000000000000000000000000000000000000000000000000000000000000000000000000000000000000000000000000000000000000000000000000000000000000000000000000000000000000000000000000000000000000000000000000000000000000000000000000000000000000000000000000000000000000000000000000000000000000000000000000000000000000000000000000000000000000",
            "coinbase" : "0x945304eb96065b2a98b57a48a06ae28d285a71b5",
            "difficulty" : "0x020000",
            "extraData" : "0x42",
            "gasLimit" : "0x7fffffffffffffff",
            "gasUsed" : "0x00",
            "hash" : "0x5e82e51ac6fccc9f840623fb7cdfd752a7b8965e4192e400b5c955e018601db3",
            "mixHash" : "0x56e81f171bcc55a6ff8345e692c0f86e5b48e01b996cadc001622fb5e363b421",
            "nonce" : "0x0102030405060708",
            "number" : "0x00",
            "parentHash" : "0x0000000000000000000000000000000000000000000000000000000000000000",
            "receiptTrie" : "0x56e81f171bcc55a6ff8345e692c0f86e5b48e01b996cadc001622fb5e363b421",
            "stateRoot" : "0x900c615a72390cc0407fcdb01401f312940de63655646c888a32dcfaf22bd97b",
            "timestamp" : "0x03b6",
            "transactionsTrie" : "0x56e81f171bcc55a6ff8345e692c0f86e5b48e01b996cadc001622fb5e363b421",
            "uncleHash" : "0x1dcc4de8dec75d7aab85b567b6ccd41ad312451b948a7413f0a142fd40d49347"
        },
        "genesisRLP" : "0xf901fff901faa00000000000000000000000000000000000000000000000000000000000000000a01dcc4de8dec75d7aab85b567b6ccd41ad312451b948a7413f0a142fd40d4934794945304eb96065b2a98b57a48a06ae28d285a71b5a0900c615a72390cc0407fcdb01401f312940de63655646c888a32dcfaf22bd97ba056e81f171bcc55a6ff8345e692c0f86e5b48e01b996cadc001622fb5e363b421a056e81f171bcc55a6ff8345e692c0f86e5b48e01b996cadc001622fb5e363b421b90100000000000000000000000000000000000000000000000000000000000000000000000000000000000000000000000000000000000000000000000000000000000000000000000000000000000000000000000000000000000000000000000000000000000000000000000000000000000000000000000000000000000000000000000000000000000000000000000000000000000000000000000000000000000000000000000000000000000000000000000000000000000000000000000000000000000000000000000000000000000000000000000000000000000000000000000000000000000000000000000000000000000000000000000000000000008302000080887fffffffffffffff808203b642a056e81f171bcc55a6ff8345e692c0f86e5b48e01b996cadc001622fb5e363b421880102030405060708c0c0",
        "lastblockhash" : "0x306bbcfbacb98a758d370afa79abefbb9676940e3da4aa847d959fa965b27efe",
        "network" : "Homestead",
        "postState" : {
            "0x095e7baea6a6c7c4c2dfeb977efac326af552d87" : {
                "balance" : "0x372e4882",
                "code" : "0x7f000000000000000000000000ffffffffffffffffffffffffffffffffffffffff457f00000000000000000000000000000000000000000000000000000000000000007f00000000000000000000000000000000000000000000000000000000000000017f000000000000000000000000000000000000000000000000000000000000c3507f00000000000000000000000000000000000000000000000000000000000000006f75988036a0562096036b04518877199d60005155",
                "nonce" : "0x00",
                "storage" : {
                    "0x00" : "0x75988036a0562096036b04518877199d"
                }
            },
            "0x945304eb96065b2a98b57a48a06ae28d285a71b5" : {
                "balance" : "0x4563918244f4aecf",
                "code" : "0x6000355415600957005b60203560003555",
                "nonce" : "0x00",
                "storage" : {
                }
            },
            "0xa94f5374fce5edbc8e2a8697c15331677e6ebf0b" : {
                "balance" : "0x0de0b6b3703508dd",
                "code" : "",
                "nonce" : "0x01",
                "storage" : {
                }
            }
        },
        "pre" : {
            "0x095e7baea6a6c7c4c2dfeb977efac326af552d87" : {
                "balance" : "0x00",
                "code" : "0x7f000000000000000000000000ffffffffffffffffffffffffffffffffffffffff457f00000000000000000000000000000000000000000000000000000000000000007f00000000000000000000000000000000000000000000000000000000000000017f000000000000000000000000000000000000000000000000000000000000c3507f00000000000000000000000000000000000000000000000000000000000000006f75988036a0562096036b04518877199d60005155",
                "nonce" : "0x00",
                "storage" : {
                }
            },
            "0x945304eb96065b2a98b57a48a06ae28d285a71b5" : {
                "balance" : "0x2e",
                "code" : "0x6000355415600957005b60203560003555",
                "nonce" : "0x00",
                "storage" : {
                }
            },
            "0xa94f5374fce5edbc8e2a8697c15331677e6ebf0b" : {
                "balance" : "0x0de0b6b3a7640000",
                "code" : "",
                "nonce" : "0x00",
                "storage" : {
                }
            }
        }
    },
    "randomStatetest187_d0g0v0_Metropolis" : {
        "blocks" : [
            {
                "blockHeader" : {
                    "bloom" : "0x00000000000000000000000000000000000000000000000000000000000000000000000000000000000000000000000000000000000000000000000000000000000000000000000000000000000000000000000000000000000000000000000000000000000000000000000000000000000000000000000000000000000000000000000000000000000000000000000000000000000000000000000000000000000000000000000000000000000000000000000000000000000000000000000000000000000000000000000000000000000000000000000000000000000000000000000000000000000000000000000000000000000000000000000000000000",
                    "coinbase" : "0x945304eb96065b2a98b57a48a06ae28d285a71b5",
                    "difficulty" : "0x020000",
                    "extraData" : "",
                    "gasLimit" : "0x7fffffffffffffff",
                    "gasUsed" : "0xaea1",
                    "hash" : "0xcd0f4a10cbe0f5df347e38bb37c45c72c438133bd50b894f8e9447781c3b0200",
                    "mixHash" : "0x8f8d5313f830a5bd0f28291d42dd2f68c3d1deb8ef38f8da8e1927acdbb2178d",
                    "nonce" : "0x8d9caa5475463a54",
                    "number" : "0x01",
                    "parentHash" : "0x5e82e51ac6fccc9f840623fb7cdfd752a7b8965e4192e400b5c955e018601db3",
                    "receiptTrie" : "0x08caddb31a91e36d064b38f5cd978d68c76b85b77a003db0f066e14001fea2f6",
                    "stateRoot" : "0x1c85cbd7fc1eacfe6c65367c07e3bfc17c322efc0c237e7bc9fcf7a406db33e4",
                    "timestamp" : "0x03e8",
                    "transactionsTrie" : "0x2364d25d826df75c5a6dbe1b0226e819673e1942bdb76c7ac54b49cc303b2d72",
                    "uncleHash" : "0x1dcc4de8dec75d7aab85b567b6ccd41ad312451b948a7413f0a142fd40d49347"
                },
                "rlp" : "0xf90323f901fca05e82e51ac6fccc9f840623fb7cdfd752a7b8965e4192e400b5c955e018601db3a01dcc4de8dec75d7aab85b567b6ccd41ad312451b948a7413f0a142fd40d4934794945304eb96065b2a98b57a48a06ae28d285a71b5a01c85cbd7fc1eacfe6c65367c07e3bfc17c322efc0c237e7bc9fcf7a406db33e4a02364d25d826df75c5a6dbe1b0226e819673e1942bdb76c7ac54b49cc303b2d72a008caddb31a91e36d064b38f5cd978d68c76b85b77a003db0f066e14001fea2f6b90100000000000000000000000000000000000000000000000000000000000000000000000000000000000000000000000000000000000000000000000000000000000000000000000000000000000000000000000000000000000000000000000000000000000000000000000000000000000000000000000000000000000000000000000000000000000000000000000000000000000000000000000000000000000000000000000000000000000000000000000000000000000000000000000000000000000000000000000000000000000000000000000000000000000000000000000000000000000000000000000000000000000000000000000000000000008302000001887fffffffffffffff82aea18203e880a08f8d5313f830a5bd0f28291d42dd2f68c3d1deb8ef38f8da8e1927acdbb2178d888d9caa5475463a54f90120f9011d800184316eeeb194095e7baea6a6c7c4c2dfeb977efac326af552d8784372e4882b8b77f000000000000000000000000ffffffffffffffffffffffffffffffffffffffff457f00000000000000000000000000000000000000000000000000000000000000007f00000000000000000000000000000000000000000000000000000000000000017f000000000000000000000000000000000000000000000000000000000000c3507f00000000000000000000000000000000000000000000000000000000000000006f75988036a0562096036b04518877199d1ba016a610b5a121ec44e776b5076432fd20fe891dca58701b5b71531997722f40e1a054a220b1ce5685fb9b189be21f5e32b02c062e7d8d060b83157adcaf78121758c0",
                "transactions" : [
                    {
                        "data" : "0x7f000000000000000000000000ffffffffffffffffffffffffffffffffffffffff457f00000000000000000000000000000000000000000000000000000000000000007f00000000000000000000000000000000000000000000000000000000000000017f000000000000000000000000000000000000000000000000000000000000c3507f00000000000000000000000000000000000000000000000000000000000000006f75988036a0562096036b04518877199d",
                        "gasLimit" : "0x316eeeb1",
                        "gasPrice" : "0x01",
                        "nonce" : "0x00",
                        "r" : "0x16a610b5a121ec44e776b5076432fd20fe891dca58701b5b71531997722f40e1",
                        "s" : "0x54a220b1ce5685fb9b189be21f5e32b02c062e7d8d060b83157adcaf78121758",
                        "to" : "0x095e7baea6a6c7c4c2dfeb977efac326af552d87",
                        "v" : "0x1b",
                        "value" : "0x372e4882"
                    }
                ],
                "uncleHeaders" : [
                ]
            }
        ],
        "genesisBlockHeader" : {
            "bloom" : "0x00000000000000000000000000000000000000000000000000000000000000000000000000000000000000000000000000000000000000000000000000000000000000000000000000000000000000000000000000000000000000000000000000000000000000000000000000000000000000000000000000000000000000000000000000000000000000000000000000000000000000000000000000000000000000000000000000000000000000000000000000000000000000000000000000000000000000000000000000000000000000000000000000000000000000000000000000000000000000000000000000000000000000000000000000000000",
            "coinbase" : "0x945304eb96065b2a98b57a48a06ae28d285a71b5",
            "difficulty" : "0x020000",
            "extraData" : "0x42",
            "gasLimit" : "0x7fffffffffffffff",
            "gasUsed" : "0x00",
            "hash" : "0x5e82e51ac6fccc9f840623fb7cdfd752a7b8965e4192e400b5c955e018601db3",
            "mixHash" : "0x56e81f171bcc55a6ff8345e692c0f86e5b48e01b996cadc001622fb5e363b421",
            "nonce" : "0x0102030405060708",
            "number" : "0x00",
            "parentHash" : "0x0000000000000000000000000000000000000000000000000000000000000000",
            "receiptTrie" : "0x56e81f171bcc55a6ff8345e692c0f86e5b48e01b996cadc001622fb5e363b421",
            "stateRoot" : "0x900c615a72390cc0407fcdb01401f312940de63655646c888a32dcfaf22bd97b",
            "timestamp" : "0x03b6",
            "transactionsTrie" : "0x56e81f171bcc55a6ff8345e692c0f86e5b48e01b996cadc001622fb5e363b421",
            "uncleHash" : "0x1dcc4de8dec75d7aab85b567b6ccd41ad312451b948a7413f0a142fd40d49347"
        },
        "genesisRLP" : "0xf901fff901faa00000000000000000000000000000000000000000000000000000000000000000a01dcc4de8dec75d7aab85b567b6ccd41ad312451b948a7413f0a142fd40d4934794945304eb96065b2a98b57a48a06ae28d285a71b5a0900c615a72390cc0407fcdb01401f312940de63655646c888a32dcfaf22bd97ba056e81f171bcc55a6ff8345e692c0f86e5b48e01b996cadc001622fb5e363b421a056e81f171bcc55a6ff8345e692c0f86e5b48e01b996cadc001622fb5e363b421b90100000000000000000000000000000000000000000000000000000000000000000000000000000000000000000000000000000000000000000000000000000000000000000000000000000000000000000000000000000000000000000000000000000000000000000000000000000000000000000000000000000000000000000000000000000000000000000000000000000000000000000000000000000000000000000000000000000000000000000000000000000000000000000000000000000000000000000000000000000000000000000000000000000000000000000000000000000000000000000000000000000000000000000000000000000000008302000080887fffffffffffffff808203b642a056e81f171bcc55a6ff8345e692c0f86e5b48e01b996cadc001622fb5e363b421880102030405060708c0c0",
        "lastblockhash" : "0xcd0f4a10cbe0f5df347e38bb37c45c72c438133bd50b894f8e9447781c3b0200",
        "network" : "Metropolis",
        "postState" : {
            "0x00000000000000000000000000000000000000f0" : {
                "balance" : "0x00",
                "code" : "",
                "nonce" : "0x00",
                "storage" : {
                }
            },
            "0x095e7baea6a6c7c4c2dfeb977efac326af552d87" : {
                "balance" : "0x372e4882",
                "code" : "0x7f000000000000000000000000ffffffffffffffffffffffffffffffffffffffff457f00000000000000000000000000000000000000000000000000000000000000007f00000000000000000000000000000000000000000000000000000000000000017f000000000000000000000000000000000000000000000000000000000000c3507f00000000000000000000000000000000000000000000000000000000000000006f75988036a0562096036b04518877199d60005155",
                "nonce" : "0x00",
                "storage" : {
                    "0x00" : "0x75988036a0562096036b04518877199d"
                }
            },
            "0x945304eb96065b2a98b57a48a06ae28d285a71b5" : {
                "balance" : "0x4563918244f4aecf",
                "code" : "0x6000355415600957005b60203560003555",
                "nonce" : "0x00",
                "storage" : {
                }
            },
            "0xa94f5374fce5edbc8e2a8697c15331677e6ebf0b" : {
                "balance" : "0x0de0b6b3703508dd",
                "code" : "",
                "nonce" : "0x01",
                "storage" : {
                }
            }
        },
        "pre" : {
            "0x095e7baea6a6c7c4c2dfeb977efac326af552d87" : {
                "balance" : "0x00",
                "code" : "0x7f000000000000000000000000ffffffffffffffffffffffffffffffffffffffff457f00000000000000000000000000000000000000000000000000000000000000007f00000000000000000000000000000000000000000000000000000000000000017f000000000000000000000000000000000000000000000000000000000000c3507f00000000000000000000000000000000000000000000000000000000000000006f75988036a0562096036b04518877199d60005155",
                "nonce" : "0x00",
                "storage" : {
                }
            },
            "0x945304eb96065b2a98b57a48a06ae28d285a71b5" : {
                "balance" : "0x2e",
                "code" : "0x6000355415600957005b60203560003555",
                "nonce" : "0x00",
                "storage" : {
                }
            },
            "0xa94f5374fce5edbc8e2a8697c15331677e6ebf0b" : {
                "balance" : "0x0de0b6b3a7640000",
                "code" : "",
                "nonce" : "0x00",
                "storage" : {
                }
            }
        }
    }
}