{
    "randomStatetest147_d0g0v0_EIP150" : {
        "blocks" : [
            {
                "blockHeader" : {
                    "bloom" : "0x00000000000000000000000000000000000000000000000000000000000000000000000000000000000000000000000000000000000000000000000000000000000000000000000000000000000000000000000000000000000000000000000000000000000000000000000000000000000000000000000000000000000000000000000000000000000000000000000000000000000000000000000000000000000000000000000000000000000000000000000000000000000000000000000000000000000000000000000000000000000000000000000000000000000000000000000000000000000000000000000000000000000000000000000000000000",
                    "coinbase" : "0x945304eb96065b2a98b57a48a06ae28d285a71b5",
                    "difficulty" : "0x020000",
                    "extraData" : "",
                    "gasLimit" : "0x7fffffffffffffff",
                    "gasUsed" : "0x8def",
                    "hash" : "0xf5f8c2d47f4ecbe30b62943877ca108cba542fff2c6bd10ed461bbd358f42a27",
                    "mixHash" : "0xfc3503d1fd18dbc57a906cda7d6a8a19a726b4364471cd2a583aa5b5c880f91f",
                    "nonce" : "0x2e0b1d3ea0ad535c",
                    "number" : "0x01",
                    "parentHash" : "0x3ed02d2f8681fd1bb7011088c6a12d645db0932f44e299a486e67c796184bf6c",
                    "receiptTrie" : "0x61121bbd1c60eb1d37db03634dea7191ccacdb8be7eea4d2a400075674c3b11d",
                    "stateRoot" : "0x5c557ec15746e95047fb8815a474f576edc537dd07bf55ce11f2c9d27969b771",
                    "timestamp" : "0x03e8",
                    "transactionsTrie" : "0xaf6b1feb004eab49e38e3e643f8f4318354c57286f0b2862dc61371ce20e86c4",
                    "uncleHash" : "0x1dcc4de8dec75d7aab85b567b6ccd41ad312451b948a7413f0a142fd40d49347"
                },
                "rlp" : "0xf90359f901fca03ed02d2f8681fd1bb7011088c6a12d645db0932f44e299a486e67c796184bf6ca01dcc4de8dec75d7aab85b567b6ccd41ad312451b948a7413f0a142fd40d4934794945304eb96065b2a98b57a48a06ae28d285a71b5a05c557ec15746e95047fb8815a474f576edc537dd07bf55ce11f2c9d27969b771a0af6b1feb004eab49e38e3e643f8f4318354c57286f0b2862dc61371ce20e86c4a061121bbd1c60eb1d37db03634dea7191ccacdb8be7eea4d2a400075674c3b11db90100000000000000000000000000000000000000000000000000000000000000000000000000000000000000000000000000000000000000000000000000000000000000000000000000000000000000000000000000000000000000000000000000000000000000000000000000000000000000000000000000000000000000000000000000000000000000000000000000000000000000000000000000000000000000000000000000000000000000000000000000000000000000000000000000000000000000000000000000000000000000000000000000000000000000000000000000000000000000000000000000000000000000000000000000000000008302000001887fffffffffffffff828def8203e880a0fc3503d1fd18dbc57a906cda7d6a8a19a726b4364471cd2a583aa5b5c880f91f882e0b1d3ea0ad535cf90156f9015380018440e55a5494095e7baea6a6c7c4c2dfeb977efac326af552d878440fd556ab8ed657ffffffffffffffffffffffffffffffffffffffffffffffffffffffffffffffffe7f000000000000000000000000ffffffffffffffffffffffffffffffffffffffff7ffffffffffffffffffffffffffffffffffffffffffffffffffffffffffffffffe7f00000000000000000000000000000000000000000000000000000000000000007f00000000000000000000000100000000000000000000000000000000000000007f00000000000000000000000000000000000000000000000000000000000000017ffffffffffffffffffffffffffffffffffffffffffffffffffffffffffffffffe43659a93601ba087c2d01abba5e39807ebe41766b3e392e8fed70b484255098b224e87464d6137a02b741714d18a1a7004944b30e549209905bbba97c82fa5163439919a236f7941c0",
                "transactions" : [
                    {
                        "data" : "0x657ffffffffffffffffffffffffffffffffffffffffffffffffffffffffffffffffe7f000000000000000000000000ffffffffffffffffffffffffffffffffffffffff7ffffffffffffffffffffffffffffffffffffffffffffffffffffffffffffffffe7f00000000000000000000000000000000000000000000000000000000000000007f00000000000000000000000100000000000000000000000000000000000000007f00000000000000000000000000000000000000000000000000000000000000017ffffffffffffffffffffffffffffffffffffffffffffffffffffffffffffffffe43659a9360",
                        "gasLimit" : "0x40e55a54",
                        "gasPrice" : "0x01",
                        "nonce" : "0x00",
                        "r" : "0x87c2d01abba5e39807ebe41766b3e392e8fed70b484255098b224e87464d6137",
                        "s" : "0x2b741714d18a1a7004944b30e549209905bbba97c82fa5163439919a236f7941",
                        "to" : "0x095e7baea6a6c7c4c2dfeb977efac326af552d87",
                        "v" : "0x1b",
                        "value" : "0x40fd556a"
                    }
                ],
                "uncleHeaders" : [
                ]
            }
        ],
        "genesisBlockHeader" : {
            "bloom" : "0x00000000000000000000000000000000000000000000000000000000000000000000000000000000000000000000000000000000000000000000000000000000000000000000000000000000000000000000000000000000000000000000000000000000000000000000000000000000000000000000000000000000000000000000000000000000000000000000000000000000000000000000000000000000000000000000000000000000000000000000000000000000000000000000000000000000000000000000000000000000000000000000000000000000000000000000000000000000000000000000000000000000000000000000000000000000",
            "coinbase" : "0x945304eb96065b2a98b57a48a06ae28d285a71b5",
            "difficulty" : "0x020000",
            "extraData" : "0x42",
            "gasLimit" : "0x7fffffffffffffff",
            "gasUsed" : "0x00",
            "hash" : "0x3ed02d2f8681fd1bb7011088c6a12d645db0932f44e299a486e67c796184bf6c",
            "mixHash" : "0x56e81f171bcc55a6ff8345e692c0f86e5b48e01b996cadc001622fb5e363b421",
            "nonce" : "0x0102030405060708",
            "number" : "0x00",
            "parentHash" : "0x0000000000000000000000000000000000000000000000000000000000000000",
            "receiptTrie" : "0x56e81f171bcc55a6ff8345e692c0f86e5b48e01b996cadc001622fb5e363b421",
            "stateRoot" : "0x5df4aea543746503abc9c6fde384a27da8f3d0a15dc11d0fb8ae8147b321b4f2",
            "timestamp" : "0x03b6",
            "transactionsTrie" : "0x56e81f171bcc55a6ff8345e692c0f86e5b48e01b996cadc001622fb5e363b421",
            "uncleHash" : "0x1dcc4de8dec75d7aab85b567b6ccd41ad312451b948a7413f0a142fd40d49347"
        },
        "genesisRLP" : "0xf901fff901faa00000000000000000000000000000000000000000000000000000000000000000a01dcc4de8dec75d7aab85b567b6ccd41ad312451b948a7413f0a142fd40d4934794945304eb96065b2a98b57a48a06ae28d285a71b5a05df4aea543746503abc9c6fde384a27da8f3d0a15dc11d0fb8ae8147b321b4f2a056e81f171bcc55a6ff8345e692c0f86e5b48e01b996cadc001622fb5e363b421a056e81f171bcc55a6ff8345e692c0f86e5b48e01b996cadc001622fb5e363b421b90100000000000000000000000000000000000000000000000000000000000000000000000000000000000000000000000000000000000000000000000000000000000000000000000000000000000000000000000000000000000000000000000000000000000000000000000000000000000000000000000000000000000000000000000000000000000000000000000000000000000000000000000000000000000000000000000000000000000000000000000000000000000000000000000000000000000000000000000000000000000000000000000000000000000000000000000000000000000000000000000000000000000000000000000000000000008302000080887fffffffffffffff808203b642a056e81f171bcc55a6ff8345e692c0f86e5b48e01b996cadc001622fb5e363b421880102030405060708c0c0",
        "lastblockhash" : "0xf5f8c2d47f4ecbe30b62943877ca108cba542fff2c6bd10ed461bbd358f42a27",
        "network" : "EIP150",
        "postState" : {
            "0x00000000000000000000000000007fffffffffff" : {
                "balance" : "0x40fd556a",
                "code" : "",
                "nonce" : "0x00",
                "storage" : {
                }
            },
            "0x945304eb96065b2a98b57a48a06ae28d285a71b5" : {
                "balance" : "0x4563918244f48e1d",
                "code" : "0x6000355415600957005b60203560003555",
                "nonce" : "0x00",
                "storage" : {
                }
            },
            "0xa94f5374fce5edbc8e2a8697c15331677e6ebf0b" : {
                "balance" : "0x0de0b6b366661ca7",
                "code" : "",
                "nonce" : "0x01",
                "storage" : {
                }
            }
        },
        "pre" : {
            "0x095e7baea6a6c7c4c2dfeb977efac326af552d87" : {
                "balance" : "0x00",
                "code" : "0x657ffffffffffffffffffffffffffffffffffffffffffffffffffffffffffffffffe7f000000000000000000000000ffffffffffffffffffffffffffffffffffffffff7ffffffffffffffffffffffffffffffffffffffffffffffffffffffffffffffffe7f00000000000000000000000000000000000000000000000000000000000000007f00000000000000000000000100000000000000000000000000000000000000007f00000000000000000000000000000000000000000000000000000000000000017ffffffffffffffffffffffffffffffffffffffffffffffffffffffffffffffffe43659a936055",
                "nonce" : "0x00",
                "storage" : {
                }
            },
            "0x945304eb96065b2a98b57a48a06ae28d285a71b5" : {
                "balance" : "0x2e",
                "code" : "0x6000355415600957005b60203560003555",
                "nonce" : "0x00",
                "storage" : {
                }
            },
            "0xa94f5374fce5edbc8e2a8697c15331677e6ebf0b" : {
                "balance" : "0x0de0b6b3a7640000",
                "code" : "",
                "nonce" : "0x00",
                "storage" : {
                }
            }
        }
    },
    "randomStatetest147_d0g0v0_EIP158" : {
        "blocks" : [
            {
                "blockHeader" : {
                    "bloom" : "0x00000000000000000000000000000000000000000000000000000000000000000000000000000000000000000000000000000000000000000000000000000000000000000000000000000000000000000000000000000000000000000000000000000000000000000000000000000000000000000000000000000000000000000000000000000000000000000000000000000000000000000000000000000000000000000000000000000000000000000000000000000000000000000000000000000000000000000000000000000000000000000000000000000000000000000000000000000000000000000000000000000000000000000000000000000000",
                    "coinbase" : "0x945304eb96065b2a98b57a48a06ae28d285a71b5",
                    "difficulty" : "0x020000",
                    "extraData" : "",
                    "gasLimit" : "0x7fffffffffffffff",
                    "gasUsed" : "0x8def",
                    "hash" : "0xc7d3e6f796723a9abd322a0ea51082e2b4a7234639ffe499387f61729deb39f9",
                    "mixHash" : "0xb7ff69906475375813f5ec98e2289795b7e8b2a9d895f6b675ebf2f48dd91fb7",
                    "nonce" : "0x57ac587b4fe2e2e6",
                    "number" : "0x01",
                    "parentHash" : "0x3ed02d2f8681fd1bb7011088c6a12d645db0932f44e299a486e67c796184bf6c",
                    "receiptTrie" : "0x61121bbd1c60eb1d37db03634dea7191ccacdb8be7eea4d2a400075674c3b11d",
                    "stateRoot" : "0x5c557ec15746e95047fb8815a474f576edc537dd07bf55ce11f2c9d27969b771",
                    "timestamp" : "0x03e8",
                    "transactionsTrie" : "0xaf6b1feb004eab49e38e3e643f8f4318354c57286f0b2862dc61371ce20e86c4",
                    "uncleHash" : "0x1dcc4de8dec75d7aab85b567b6ccd41ad312451b948a7413f0a142fd40d49347"
                },
                "rlp" : "0xf90359f901fca03ed02d2f8681fd1bb7011088c6a12d645db0932f44e299a486e67c796184bf6ca01dcc4de8dec75d7aab85b567b6ccd41ad312451b948a7413f0a142fd40d4934794945304eb96065b2a98b57a48a06ae28d285a71b5a05c557ec15746e95047fb8815a474f576edc537dd07bf55ce11f2c9d27969b771a0af6b1feb004eab49e38e3e643f8f4318354c57286f0b2862dc61371ce20e86c4a061121bbd1c60eb1d37db03634dea7191ccacdb8be7eea4d2a400075674c3b11db90100000000000000000000000000000000000000000000000000000000000000000000000000000000000000000000000000000000000000000000000000000000000000000000000000000000000000000000000000000000000000000000000000000000000000000000000000000000000000000000000000000000000000000000000000000000000000000000000000000000000000000000000000000000000000000000000000000000000000000000000000000000000000000000000000000000000000000000000000000000000000000000000000000000000000000000000000000000000000000000000000000000000000000000000000000000008302000001887fffffffffffffff828def8203e880a0b7ff69906475375813f5ec98e2289795b7e8b2a9d895f6b675ebf2f48dd91fb78857ac587b4fe2e2e6f90156f9015380018440e55a5494095e7baea6a6c7c4c2dfeb977efac326af552d878440fd556ab8ed657ffffffffffffffffffffffffffffffffffffffffffffffffffffffffffffffffe7f000000000000000000000000ffffffffffffffffffffffffffffffffffffffff7ffffffffffffffffffffffffffffffffffffffffffffffffffffffffffffffffe7f00000000000000000000000000000000000000000000000000000000000000007f00000000000000000000000100000000000000000000000000000000000000007f00000000000000000000000000000000000000000000000000000000000000017ffffffffffffffffffffffffffffffffffffffffffffffffffffffffffffffffe43659a93601ba087c2d01abba5e39807ebe41766b3e392e8fed70b484255098b224e87464d6137a02b741714d18a1a7004944b30e549209905bbba97c82fa5163439919a236f7941c0",
                "transactions" : [
                    {
                        "data" : "0x657ffffffffffffffffffffffffffffffffffffffffffffffffffffffffffffffffe7f000000000000000000000000ffffffffffffffffffffffffffffffffffffffff7ffffffffffffffffffffffffffffffffffffffffffffffffffffffffffffffffe7f00000000000000000000000000000000000000000000000000000000000000007f00000000000000000000000100000000000000000000000000000000000000007f00000000000000000000000000000000000000000000000000000000000000017ffffffffffffffffffffffffffffffffffffffffffffffffffffffffffffffffe43659a9360",
                        "gasLimit" : "0x40e55a54",
                        "gasPrice" : "0x01",
                        "nonce" : "0x00",
                        "r" : "0x87c2d01abba5e39807ebe41766b3e392e8fed70b484255098b224e87464d6137",
                        "s" : "0x2b741714d18a1a7004944b30e549209905bbba97c82fa5163439919a236f7941",
                        "to" : "0x095e7baea6a6c7c4c2dfeb977efac326af552d87",
                        "v" : "0x1b",
                        "value" : "0x40fd556a"
                    }
                ],
                "uncleHeaders" : [
                ]
            }
        ],
        "genesisBlockHeader" : {
            "bloom" : "0x00000000000000000000000000000000000000000000000000000000000000000000000000000000000000000000000000000000000000000000000000000000000000000000000000000000000000000000000000000000000000000000000000000000000000000000000000000000000000000000000000000000000000000000000000000000000000000000000000000000000000000000000000000000000000000000000000000000000000000000000000000000000000000000000000000000000000000000000000000000000000000000000000000000000000000000000000000000000000000000000000000000000000000000000000000000",
            "coinbase" : "0x945304eb96065b2a98b57a48a06ae28d285a71b5",
            "difficulty" : "0x020000",
            "extraData" : "0x42",
            "gasLimit" : "0x7fffffffffffffff",
            "gasUsed" : "0x00",
            "hash" : "0x3ed02d2f8681fd1bb7011088c6a12d645db0932f44e299a486e67c796184bf6c",
            "mixHash" : "0x56e81f171bcc55a6ff8345e692c0f86e5b48e01b996cadc001622fb5e363b421",
            "nonce" : "0x0102030405060708",
            "number" : "0x00",
            "parentHash" : "0x0000000000000000000000000000000000000000000000000000000000000000",
            "receiptTrie" : "0x56e81f171bcc55a6ff8345e692c0f86e5b48e01b996cadc001622fb5e363b421",
            "stateRoot" : "0x5df4aea543746503abc9c6fde384a27da8f3d0a15dc11d0fb8ae8147b321b4f2",
            "timestamp" : "0x03b6",
            "transactionsTrie" : "0x56e81f171bcc55a6ff8345e692c0f86e5b48e01b996cadc001622fb5e363b421",
            "uncleHash" : "0x1dcc4de8dec75d7aab85b567b6ccd41ad312451b948a7413f0a142fd40d49347"
        },
        "genesisRLP" : "0xf901fff901faa00000000000000000000000000000000000000000000000000000000000000000a01dcc4de8dec75d7aab85b567b6ccd41ad312451b948a7413f0a142fd40d4934794945304eb96065b2a98b57a48a06ae28d285a71b5a05df4aea543746503abc9c6fde384a27da8f3d0a15dc11d0fb8ae8147b321b4f2a056e81f171bcc55a6ff8345e692c0f86e5b48e01b996cadc001622fb5e363b421a056e81f171bcc55a6ff8345e692c0f86e5b48e01b996cadc001622fb5e363b421b90100000000000000000000000000000000000000000000000000000000000000000000000000000000000000000000000000000000000000000000000000000000000000000000000000000000000000000000000000000000000000000000000000000000000000000000000000000000000000000000000000000000000000000000000000000000000000000000000000000000000000000000000000000000000000000000000000000000000000000000000000000000000000000000000000000000000000000000000000000000000000000000000000000000000000000000000000000000000000000000000000000000000000000000000000000000008302000080887fffffffffffffff808203b642a056e81f171bcc55a6ff8345e692c0f86e5b48e01b996cadc001622fb5e363b421880102030405060708c0c0",
        "lastblockhash" : "0xc7d3e6f796723a9abd322a0ea51082e2b4a7234639ffe499387f61729deb39f9",
        "network" : "EIP158",
        "postState" : {
            "0x00000000000000000000000000007fffffffffff" : {
                "balance" : "0x40fd556a",
                "code" : "",
                "nonce" : "0x00",
                "storage" : {
                }
            },
            "0x945304eb96065b2a98b57a48a06ae28d285a71b5" : {
                "balance" : "0x4563918244f48e1d",
                "code" : "0x6000355415600957005b60203560003555",
                "nonce" : "0x00",
                "storage" : {
                }
            },
            "0xa94f5374fce5edbc8e2a8697c15331677e6ebf0b" : {
                "balance" : "0x0de0b6b366661ca7",
                "code" : "",
                "nonce" : "0x01",
                "storage" : {
                }
            }
        },
        "pre" : {
            "0x095e7baea6a6c7c4c2dfeb977efac326af552d87" : {
                "balance" : "0x00",
                "code" : "0x657ffffffffffffffffffffffffffffffffffffffffffffffffffffffffffffffffe7f000000000000000000000000ffffffffffffffffffffffffffffffffffffffff7ffffffffffffffffffffffffffffffffffffffffffffffffffffffffffffffffe7f00000000000000000000000000000000000000000000000000000000000000007f00000000000000000000000100000000000000000000000000000000000000007f00000000000000000000000000000000000000000000000000000000000000017ffffffffffffffffffffffffffffffffffffffffffffffffffffffffffffffffe43659a936055",
                "nonce" : "0x00",
                "storage" : {
                }
            },
            "0x945304eb96065b2a98b57a48a06ae28d285a71b5" : {
                "balance" : "0x2e",
                "code" : "0x6000355415600957005b60203560003555",
                "nonce" : "0x00",
                "storage" : {
                }
            },
            "0xa94f5374fce5edbc8e2a8697c15331677e6ebf0b" : {
                "balance" : "0x0de0b6b3a7640000",
                "code" : "",
                "nonce" : "0x00",
                "storage" : {
                }
            }
        }
    },
    "randomStatetest147_d0g0v0_Frontier" : {
        "blocks" : [
            {
                "blockHeader" : {
                    "bloom" : "0x00000000000000000000000000000000000000000000000000000000000000000000000000000000000000000000000000000000000000000000000000000000000000000000000000000000000000000000000000000000000000000000000000000000000000000000000000000000000000000000000000000000000000000000000000000000000000000000000000000000000000000000000000000000000000000000000000000000000000000000000000000000000000000000000000000000000000000000000000000000000000000000000000000000000000000000000000000000000000000000000000000000000000000000000000000000",
                    "coinbase" : "0x945304eb96065b2a98b57a48a06ae28d285a71b5",
                    "difficulty" : "0x020000",
                    "extraData" : "",
                    "gasLimit" : "0x7fffffffffffffff",
                    "gasUsed" : "0x3b40",
                    "hash" : "0x998d9e73ba76fb313666b1510f36e07c9668e906288036ee08241db0156120b5",
                    "mixHash" : "0xb967af149b0da2efa94c6ff3d5f7b09bc14689d05271f0405c923fb6bb292cd5",
                    "nonce" : "0x5e0d9247a639ce74",
                    "number" : "0x01",
                    "parentHash" : "0x3ed02d2f8681fd1bb7011088c6a12d645db0932f44e299a486e67c796184bf6c",
                    "receiptTrie" : "0x5aa27541fb65a85098eb8bbc6baa175b7da6c2eec40b38d0a9e97c8e33ed0138",
                    "stateRoot" : "0xdee1b9461024c8e6bf5f65748074b29c840ff06ecd233b19e2c2f7af8c243a36",
                    "timestamp" : "0x03e8",
                    "transactionsTrie" : "0xaf6b1feb004eab49e38e3e643f8f4318354c57286f0b2862dc61371ce20e86c4",
                    "uncleHash" : "0x1dcc4de8dec75d7aab85b567b6ccd41ad312451b948a7413f0a142fd40d49347"
                },
                "rlp" : "0xf90359f901fca03ed02d2f8681fd1bb7011088c6a12d645db0932f44e299a486e67c796184bf6ca01dcc4de8dec75d7aab85b567b6ccd41ad312451b948a7413f0a142fd40d4934794945304eb96065b2a98b57a48a06ae28d285a71b5a0dee1b9461024c8e6bf5f65748074b29c840ff06ecd233b19e2c2f7af8c243a36a0af6b1feb004eab49e38e3e643f8f4318354c57286f0b2862dc61371ce20e86c4a05aa27541fb65a85098eb8bbc6baa175b7da6c2eec40b38d0a9e97c8e33ed0138b90100000000000000000000000000000000000000000000000000000000000000000000000000000000000000000000000000000000000000000000000000000000000000000000000000000000000000000000000000000000000000000000000000000000000000000000000000000000000000000000000000000000000000000000000000000000000000000000000000000000000000000000000000000000000000000000000000000000000000000000000000000000000000000000000000000000000000000000000000000000000000000000000000000000000000000000000000000000000000000000000000000000000000000000000000000000008302000001887fffffffffffffff823b408203e880a0b967af149b0da2efa94c6ff3d5f7b09bc14689d05271f0405c923fb6bb292cd5885e0d9247a639ce74f90156f9015380018440e55a5494095e7baea6a6c7c4c2dfeb977efac326af552d878440fd556ab8ed657ffffffffffffffffffffffffffffffffffffffffffffffffffffffffffffffffe7f000000000000000000000000ffffffffffffffffffffffffffffffffffffffff7ffffffffffffffffffffffffffffffffffffffffffffffffffffffffffffffffe7f00000000000000000000000000000000000000000000000000000000000000007f00000000000000000000000100000000000000000000000000000000000000007f00000000000000000000000000000000000000000000000000000000000000017ffffffffffffffffffffffffffffffffffffffffffffffffffffffffffffffffe43659a93601ba087c2d01abba5e39807ebe41766b3e392e8fed70b484255098b224e87464d6137a02b741714d18a1a7004944b30e549209905bbba97c82fa5163439919a236f7941c0",
                "transactions" : [
                    {
                        "data" : "0x657ffffffffffffffffffffffffffffffffffffffffffffffffffffffffffffffffe7f000000000000000000000000ffffffffffffffffffffffffffffffffffffffff7ffffffffffffffffffffffffffffffffffffffffffffffffffffffffffffffffe7f00000000000000000000000000000000000000000000000000000000000000007f00000000000000000000000100000000000000000000000000000000000000007f00000000000000000000000000000000000000000000000000000000000000017ffffffffffffffffffffffffffffffffffffffffffffffffffffffffffffffffe43659a9360",
                        "gasLimit" : "0x40e55a54",
                        "gasPrice" : "0x01",
                        "nonce" : "0x00",
                        "r" : "0x87c2d01abba5e39807ebe41766b3e392e8fed70b484255098b224e87464d6137",
                        "s" : "0x2b741714d18a1a7004944b30e549209905bbba97c82fa5163439919a236f7941",
                        "to" : "0x095e7baea6a6c7c4c2dfeb977efac326af552d87",
                        "v" : "0x1b",
                        "value" : "0x40fd556a"
                    }
                ],
                "uncleHeaders" : [
                ]
            }
        ],
        "genesisBlockHeader" : {
            "bloom" : "0x00000000000000000000000000000000000000000000000000000000000000000000000000000000000000000000000000000000000000000000000000000000000000000000000000000000000000000000000000000000000000000000000000000000000000000000000000000000000000000000000000000000000000000000000000000000000000000000000000000000000000000000000000000000000000000000000000000000000000000000000000000000000000000000000000000000000000000000000000000000000000000000000000000000000000000000000000000000000000000000000000000000000000000000000000000000",
            "coinbase" : "0x945304eb96065b2a98b57a48a06ae28d285a71b5",
            "difficulty" : "0x020000",
            "extraData" : "0x42",
            "gasLimit" : "0x7fffffffffffffff",
            "gasUsed" : "0x00",
            "hash" : "0x3ed02d2f8681fd1bb7011088c6a12d645db0932f44e299a486e67c796184bf6c",
            "mixHash" : "0x56e81f171bcc55a6ff8345e692c0f86e5b48e01b996cadc001622fb5e363b421",
            "nonce" : "0x0102030405060708",
            "number" : "0x00",
            "parentHash" : "0x0000000000000000000000000000000000000000000000000000000000000000",
            "receiptTrie" : "0x56e81f171bcc55a6ff8345e692c0f86e5b48e01b996cadc001622fb5e363b421",
            "stateRoot" : "0x5df4aea543746503abc9c6fde384a27da8f3d0a15dc11d0fb8ae8147b321b4f2",
            "timestamp" : "0x03b6",
            "transactionsTrie" : "0x56e81f171bcc55a6ff8345e692c0f86e5b48e01b996cadc001622fb5e363b421",
            "uncleHash" : "0x1dcc4de8dec75d7aab85b567b6ccd41ad312451b948a7413f0a142fd40d49347"
        },
        "genesisRLP" : "0xf901fff901faa00000000000000000000000000000000000000000000000000000000000000000a01dcc4de8dec75d7aab85b567b6ccd41ad312451b948a7413f0a142fd40d4934794945304eb96065b2a98b57a48a06ae28d285a71b5a05df4aea543746503abc9c6fde384a27da8f3d0a15dc11d0fb8ae8147b321b4f2a056e81f171bcc55a6ff8345e692c0f86e5b48e01b996cadc001622fb5e363b421a056e81f171bcc55a6ff8345e692c0f86e5b48e01b996cadc001622fb5e363b421b90100000000000000000000000000000000000000000000000000000000000000000000000000000000000000000000000000000000000000000000000000000000000000000000000000000000000000000000000000000000000000000000000000000000000000000000000000000000000000000000000000000000000000000000000000000000000000000000000000000000000000000000000000000000000000000000000000000000000000000000000000000000000000000000000000000000000000000000000000000000000000000000000000000000000000000000000000000000000000000000000000000000000000000000000000000000008302000080887fffffffffffffff808203b642a056e81f171bcc55a6ff8345e692c0f86e5b48e01b996cadc001622fb5e363b421880102030405060708c0c0",
        "lastblockhash" : "0x998d9e73ba76fb313666b1510f36e07c9668e906288036ee08241db0156120b5",
        "network" : "Frontier",
        "postState" : {
            "0x00000000000000000000000000007fffffffffff" : {
                "balance" : "0x40fd556a",
                "code" : "",
                "nonce" : "0x00",
                "storage" : {
                }
            },
            "0x945304eb96065b2a98b57a48a06ae28d285a71b5" : {
                "balance" : "0x4563918244f43b6e",
                "code" : "0x6000355415600957005b60203560003555",
                "nonce" : "0x00",
                "storage" : {
                }
            },
            "0xa94f5374fce5edbc8e2a8697c15331677e6ebf0b" : {
                "balance" : "0x0de0b6b366666f56",
                "code" : "",
                "nonce" : "0x01",
                "storage" : {
                }
            }
        },
        "pre" : {
            "0x095e7baea6a6c7c4c2dfeb977efac326af552d87" : {
                "balance" : "0x00",
                "code" : "0x657ffffffffffffffffffffffffffffffffffffffffffffffffffffffffffffffffe7f000000000000000000000000ffffffffffffffffffffffffffffffffffffffff7ffffffffffffffffffffffffffffffffffffffffffffffffffffffffffffffffe7f00000000000000000000000000000000000000000000000000000000000000007f00000000000000000000000100000000000000000000000000000000000000007f00000000000000000000000000000000000000000000000000000000000000017ffffffffffffffffffffffffffffffffffffffffffffffffffffffffffffffffe43659a936055",
                "nonce" : "0x00",
                "storage" : {
                }
            },
            "0x945304eb96065b2a98b57a48a06ae28d285a71b5" : {
                "balance" : "0x2e",
                "code" : "0x6000355415600957005b60203560003555",
                "nonce" : "0x00",
                "storage" : {
                }
            },
            "0xa94f5374fce5edbc8e2a8697c15331677e6ebf0b" : {
                "balance" : "0x0de0b6b3a7640000",
                "code" : "",
                "nonce" : "0x00",
                "storage" : {
                }
            }
        }
    },
    "randomStatetest147_d0g0v0_Homestead" : {
        "blocks" : [
            {
                "blockHeader" : {
                    "bloom" : "0x00000000000000000000000000000000000000000000000000000000000000000000000000000000000000000000000000000000000000000000000000000000000000000000000000000000000000000000000000000000000000000000000000000000000000000000000000000000000000000000000000000000000000000000000000000000000000000000000000000000000000000000000000000000000000000000000000000000000000000000000000000000000000000000000000000000000000000000000000000000000000000000000000000000000000000000000000000000000000000000000000000000000000000000000000000000",
                    "coinbase" : "0x945304eb96065b2a98b57a48a06ae28d285a71b5",
                    "difficulty" : "0x020000",
                    "extraData" : "",
                    "gasLimit" : "0x7fffffffffffffff",
                    "gasUsed" : "0x3b40",
                    "hash" : "0x22156c6876de09ebf4d4083f3a813f9d8439fe3901423fb0f63b9f76105ade70",
                    "mixHash" : "0x868331af0bd29f138f8afd78231524872b05247930220e645dd33560e2f79a31",
                    "nonce" : "0x648af3c18c71c060",
                    "number" : "0x01",
                    "parentHash" : "0x3ed02d2f8681fd1bb7011088c6a12d645db0932f44e299a486e67c796184bf6c",
                    "receiptTrie" : "0x5aa27541fb65a85098eb8bbc6baa175b7da6c2eec40b38d0a9e97c8e33ed0138",
                    "stateRoot" : "0xdee1b9461024c8e6bf5f65748074b29c840ff06ecd233b19e2c2f7af8c243a36",
                    "timestamp" : "0x03e8",
                    "transactionsTrie" : "0xaf6b1feb004eab49e38e3e643f8f4318354c57286f0b2862dc61371ce20e86c4",
                    "uncleHash" : "0x1dcc4de8dec75d7aab85b567b6ccd41ad312451b948a7413f0a142fd40d49347"
                },
                "rlp" : "0xf90359f901fca03ed02d2f8681fd1bb7011088c6a12d645db0932f44e299a486e67c796184bf6ca01dcc4de8dec75d7aab85b567b6ccd41ad312451b948a7413f0a142fd40d4934794945304eb96065b2a98b57a48a06ae28d285a71b5a0dee1b9461024c8e6bf5f65748074b29c840ff06ecd233b19e2c2f7af8c243a36a0af6b1feb004eab49e38e3e643f8f4318354c57286f0b2862dc61371ce20e86c4a05aa27541fb65a85098eb8bbc6baa175b7da6c2eec40b38d0a9e97c8e33ed0138b90100000000000000000000000000000000000000000000000000000000000000000000000000000000000000000000000000000000000000000000000000000000000000000000000000000000000000000000000000000000000000000000000000000000000000000000000000000000000000000000000000000000000000000000000000000000000000000000000000000000000000000000000000000000000000000000000000000000000000000000000000000000000000000000000000000000000000000000000000000000000000000000000000000000000000000000000000000000000000000000000000000000000000000000000000000000008302000001887fffffffffffffff823b408203e880a0868331af0bd29f138f8afd78231524872b05247930220e645dd33560e2f79a3188648af3c18c71c060f90156f9015380018440e55a5494095e7baea6a6c7c4c2dfeb977efac326af552d878440fd556ab8ed657ffffffffffffffffffffffffffffffffffffffffffffffffffffffffffffffffe7f000000000000000000000000ffffffffffffffffffffffffffffffffffffffff7ffffffffffffffffffffffffffffffffffffffffffffffffffffffffffffffffe7f00000000000000000000000000000000000000000000000000000000000000007f00000000000000000000000100000000000000000000000000000000000000007f00000000000000000000000000000000000000000000000000000000000000017ffffffffffffffffffffffffffffffffffffffffffffffffffffffffffffffffe43659a93601ba087c2d01abba5e39807ebe41766b3e392e8fed70b484255098b224e87464d6137a02b741714d18a1a7004944b30e549209905bbba97c82fa5163439919a236f7941c0",
                "transactions" : [
                    {
                        "data" : "0x657ffffffffffffffffffffffffffffffffffffffffffffffffffffffffffffffffe7f000000000000000000000000ffffffffffffffffffffffffffffffffffffffff7ffffffffffffffffffffffffffffffffffffffffffffffffffffffffffffffffe7f00000000000000000000000000000000000000000000000000000000000000007f00000000000000000000000100000000000000000000000000000000000000007f00000000000000000000000000000000000000000000000000000000000000017ffffffffffffffffffffffffffffffffffffffffffffffffffffffffffffffffe43659a9360",
                        "gasLimit" : "0x40e55a54",
                        "gasPrice" : "0x01",
                        "nonce" : "0x00",
                        "r" : "0x87c2d01abba5e39807ebe41766b3e392e8fed70b484255098b224e87464d6137",
                        "s" : "0x2b741714d18a1a7004944b30e549209905bbba97c82fa5163439919a236f7941",
                        "to" : "0x095e7baea6a6c7c4c2dfeb977efac326af552d87",
                        "v" : "0x1b",
                        "value" : "0x40fd556a"
                    }
                ],
                "uncleHeaders" : [
                ]
            }
        ],
        "genesisBlockHeader" : {
            "bloom" : "0x00000000000000000000000000000000000000000000000000000000000000000000000000000000000000000000000000000000000000000000000000000000000000000000000000000000000000000000000000000000000000000000000000000000000000000000000000000000000000000000000000000000000000000000000000000000000000000000000000000000000000000000000000000000000000000000000000000000000000000000000000000000000000000000000000000000000000000000000000000000000000000000000000000000000000000000000000000000000000000000000000000000000000000000000000000000",
            "coinbase" : "0x945304eb96065b2a98b57a48a06ae28d285a71b5",
            "difficulty" : "0x020000",
            "extraData" : "0x42",
            "gasLimit" : "0x7fffffffffffffff",
            "gasUsed" : "0x00",
            "hash" : "0x3ed02d2f8681fd1bb7011088c6a12d645db0932f44e299a486e67c796184bf6c",
            "mixHash" : "0x56e81f171bcc55a6ff8345e692c0f86e5b48e01b996cadc001622fb5e363b421",
            "nonce" : "0x0102030405060708",
            "number" : "0x00",
            "parentHash" : "0x0000000000000000000000000000000000000000000000000000000000000000",
            "receiptTrie" : "0x56e81f171bcc55a6ff8345e692c0f86e5b48e01b996cadc001622fb5e363b421",
            "stateRoot" : "0x5df4aea543746503abc9c6fde384a27da8f3d0a15dc11d0fb8ae8147b321b4f2",
            "timestamp" : "0x03b6",
            "transactionsTrie" : "0x56e81f171bcc55a6ff8345e692c0f86e5b48e01b996cadc001622fb5e363b421",
            "uncleHash" : "0x1dcc4de8dec75d7aab85b567b6ccd41ad312451b948a7413f0a142fd40d49347"
        },
        "genesisRLP" : "0xf901fff901faa00000000000000000000000000000000000000000000000000000000000000000a01dcc4de8dec75d7aab85b567b6ccd41ad312451b948a7413f0a142fd40d4934794945304eb96065b2a98b57a48a06ae28d285a71b5a05df4aea543746503abc9c6fde384a27da8f3d0a15dc11d0fb8ae8147b321b4f2a056e81f171bcc55a6ff8345e692c0f86e5b48e01b996cadc001622fb5e363b421a056e81f171bcc55a6ff8345e692c0f86e5b48e01b996cadc001622fb5e363b421b90100000000000000000000000000000000000000000000000000000000000000000000000000000000000000000000000000000000000000000000000000000000000000000000000000000000000000000000000000000000000000000000000000000000000000000000000000000000000000000000000000000000000000000000000000000000000000000000000000000000000000000000000000000000000000000000000000000000000000000000000000000000000000000000000000000000000000000000000000000000000000000000000000000000000000000000000000000000000000000000000000000000000000000000000000000000008302000080887fffffffffffffff808203b642a056e81f171bcc55a6ff8345e692c0f86e5b48e01b996cadc001622fb5e363b421880102030405060708c0c0",
        "lastblockhash" : "0x22156c6876de09ebf4d4083f3a813f9d8439fe3901423fb0f63b9f76105ade70",
        "network" : "Homestead",
        "postState" : {
            "0x00000000000000000000000000007fffffffffff" : {
                "balance" : "0x40fd556a",
                "code" : "",
                "nonce" : "0x00",
                "storage" : {
                }
            },
            "0x945304eb96065b2a98b57a48a06ae28d285a71b5" : {
                "balance" : "0x4563918244f43b6e",
                "code" : "0x6000355415600957005b60203560003555",
                "nonce" : "0x00",
                "storage" : {
                }
            },
            "0xa94f5374fce5edbc8e2a8697c15331677e6ebf0b" : {
                "balance" : "0x0de0b6b366666f56",
                "code" : "",
                "nonce" : "0x01",
                "storage" : {
                }
            }
        },
        "pre" : {
            "0x095e7baea6a6c7c4c2dfeb977efac326af552d87" : {
                "balance" : "0x00",
                "code" : "0x657ffffffffffffffffffffffffffffffffffffffffffffffffffffffffffffffffe7f000000000000000000000000ffffffffffffffffffffffffffffffffffffffff7ffffffffffffffffffffffffffffffffffffffffffffffffffffffffffffffffe7f00000000000000000000000000000000000000000000000000000000000000007f00000000000000000000000100000000000000000000000000000000000000007f00000000000000000000000000000000000000000000000000000000000000017ffffffffffffffffffffffffffffffffffffffffffffffffffffffffffffffffe43659a936055",
                "nonce" : "0x00",
                "storage" : {
                }
            },
            "0x945304eb96065b2a98b57a48a06ae28d285a71b5" : {
                "balance" : "0x2e",
                "code" : "0x6000355415600957005b60203560003555",
                "nonce" : "0x00",
                "storage" : {
                }
            },
            "0xa94f5374fce5edbc8e2a8697c15331677e6ebf0b" : {
                "balance" : "0x0de0b6b3a7640000",
                "code" : "",
                "nonce" : "0x00",
                "storage" : {
                }
            }
        }
    },
    "randomStatetest147_d0g0v0_Metropolis" : {
        "blocks" : [
            {
                "blockHeader" : {
                    "bloom" : "0x00000000000000000000000000000000000000000000000000000000000000000000000000000000000000000000000000000000000000000000000000000000000000000000000000000000000000000000000000000000000000000000000000000000000000000000000000000000000000000000000000000000000000000000000000000000000000000000000000000000000000000000000000000000000000000000000000000000000000000000000000000000000000000000000000000000000000000000000000000000000000000000000000000000000000000000000000000000000000000000000000000000000000000000000000000000",
                    "coinbase" : "0x945304eb96065b2a98b57a48a06ae28d285a71b5",
                    "difficulty" : "0x020000",
                    "extraData" : "",
                    "gasLimit" : "0x7fffffffffffffff",
                    "gasUsed" : "0x8def",
                    "hash" : "0x93be68626420e3f8d428567b1f23dd31c85fe1542773f571cf6686873f33ed9f",
                    "mixHash" : "0x578431a562d1bdcfbdd476d9eda0f63151452fef57b051c3ae17280722f3b96f",
                    "nonce" : "0xaa7938689f41936d",
                    "number" : "0x01",
                    "parentHash" : "0x3ed02d2f8681fd1bb7011088c6a12d645db0932f44e299a486e67c796184bf6c",
                    "receiptTrie" : "0x4974fa34cde9d9ef013933555e9090dcff9bee5f5f06277f18a9fce31d9583e5",
                    "stateRoot" : "0x44a6c1c866c1250fb269026a6a9d26f99f2f0c7fc86d9084afce2fa1aa09eea2",
                    "timestamp" : "0x03e8",
                    "transactionsTrie" : "0xaf6b1feb004eab49e38e3e643f8f4318354c57286f0b2862dc61371ce20e86c4",
                    "uncleHash" : "0x1dcc4de8dec75d7aab85b567b6ccd41ad312451b948a7413f0a142fd40d49347"
                },
                "rlp" : "0xf90359f901fca03ed02d2f8681fd1bb7011088c6a12d645db0932f44e299a486e67c796184bf6ca01dcc4de8dec75d7aab85b567b6ccd41ad312451b948a7413f0a142fd40d4934794945304eb96065b2a98b57a48a06ae28d285a71b5a044a6c1c866c1250fb269026a6a9d26f99f2f0c7fc86d9084afce2fa1aa09eea2a0af6b1feb004eab49e38e3e643f8f4318354c57286f0b2862dc61371ce20e86c4a04974fa34cde9d9ef013933555e9090dcff9bee5f5f06277f18a9fce31d9583e5b90100000000000000000000000000000000000000000000000000000000000000000000000000000000000000000000000000000000000000000000000000000000000000000000000000000000000000000000000000000000000000000000000000000000000000000000000000000000000000000000000000000000000000000000000000000000000000000000000000000000000000000000000000000000000000000000000000000000000000000000000000000000000000000000000000000000000000000000000000000000000000000000000000000000000000000000000000000000000000000000000000000000000000000000000000000000008302000001887fffffffffffffff828def8203e880a0578431a562d1bdcfbdd476d9eda0f63151452fef57b051c3ae17280722f3b96f88aa7938689f41936df90156f9015380018440e55a5494095e7baea6a6c7c4c2dfeb977efac326af552d878440fd556ab8ed657ffffffffffffffffffffffffffffffffffffffffffffffffffffffffffffffffe7f000000000000000000000000ffffffffffffffffffffffffffffffffffffffff7ffffffffffffffffffffffffffffffffffffffffffffffffffffffffffffffffe7f00000000000000000000000000000000000000000000000000000000000000007f00000000000000000000000100000000000000000000000000000000000000007f00000000000000000000000000000000000000000000000000000000000000017ffffffffffffffffffffffffffffffffffffffffffffffffffffffffffffffffe43659a93601ba087c2d01abba5e39807ebe41766b3e392e8fed70b484255098b224e87464d6137a02b741714d18a1a7004944b30e549209905bbba97c82fa5163439919a236f7941c0",
                "transactions" : [
                    {
                        "data" : "0x657ffffffffffffffffffffffffffffffffffffffffffffffffffffffffffffffffe7f000000000000000000000000ffffffffffffffffffffffffffffffffffffffff7ffffffffffffffffffffffffffffffffffffffffffffffffffffffffffffffffe7f00000000000000000000000000000000000000000000000000000000000000007f00000000000000000000000100000000000000000000000000000000000000007f00000000000000000000000000000000000000000000000000000000000000017ffffffffffffffffffffffffffffffffffffffffffffffffffffffffffffffffe43659a9360",
                        "gasLimit" : "0x40e55a54",
                        "gasPrice" : "0x01",
                        "nonce" : "0x00",
                        "r" : "0x87c2d01abba5e39807ebe41766b3e392e8fed70b484255098b224e87464d6137",
                        "s" : "0x2b741714d18a1a7004944b30e549209905bbba97c82fa5163439919a236f7941",
                        "to" : "0x095e7baea6a6c7c4c2dfeb977efac326af552d87",
                        "v" : "0x1b",
                        "value" : "0x40fd556a"
                    }
                ],
                "uncleHeaders" : [
                ]
            }
        ],
        "genesisBlockHeader" : {
            "bloom" : "0x00000000000000000000000000000000000000000000000000000000000000000000000000000000000000000000000000000000000000000000000000000000000000000000000000000000000000000000000000000000000000000000000000000000000000000000000000000000000000000000000000000000000000000000000000000000000000000000000000000000000000000000000000000000000000000000000000000000000000000000000000000000000000000000000000000000000000000000000000000000000000000000000000000000000000000000000000000000000000000000000000000000000000000000000000000000",
            "coinbase" : "0x945304eb96065b2a98b57a48a06ae28d285a71b5",
            "difficulty" : "0x020000",
            "extraData" : "0x42",
            "gasLimit" : "0x7fffffffffffffff",
            "gasUsed" : "0x00",
            "hash" : "0x3ed02d2f8681fd1bb7011088c6a12d645db0932f44e299a486e67c796184bf6c",
            "mixHash" : "0x56e81f171bcc55a6ff8345e692c0f86e5b48e01b996cadc001622fb5e363b421",
            "nonce" : "0x0102030405060708",
            "number" : "0x00",
            "parentHash" : "0x0000000000000000000000000000000000000000000000000000000000000000",
            "receiptTrie" : "0x56e81f171bcc55a6ff8345e692c0f86e5b48e01b996cadc001622fb5e363b421",
            "stateRoot" : "0x5df4aea543746503abc9c6fde384a27da8f3d0a15dc11d0fb8ae8147b321b4f2",
            "timestamp" : "0x03b6",
            "transactionsTrie" : "0x56e81f171bcc55a6ff8345e692c0f86e5b48e01b996cadc001622fb5e363b421",
            "uncleHash" : "0x1dcc4de8dec75d7aab85b567b6ccd41ad312451b948a7413f0a142fd40d49347"
        },
        "genesisRLP" : "0xf901fff901faa00000000000000000000000000000000000000000000000000000000000000000a01dcc4de8dec75d7aab85b567b6ccd41ad312451b948a7413f0a142fd40d4934794945304eb96065b2a98b57a48a06ae28d285a71b5a05df4aea543746503abc9c6fde384a27da8f3d0a15dc11d0fb8ae8147b321b4f2a056e81f171bcc55a6ff8345e692c0f86e5b48e01b996cadc001622fb5e363b421a056e81f171bcc55a6ff8345e692c0f86e5b48e01b996cadc001622fb5e363b421b90100000000000000000000000000000000000000000000000000000000000000000000000000000000000000000000000000000000000000000000000000000000000000000000000000000000000000000000000000000000000000000000000000000000000000000000000000000000000000000000000000000000000000000000000000000000000000000000000000000000000000000000000000000000000000000000000000000000000000000000000000000000000000000000000000000000000000000000000000000000000000000000000000000000000000000000000000000000000000000000000000000000000000000000000000000000008302000080887fffffffffffffff808203b642a056e81f171bcc55a6ff8345e692c0f86e5b48e01b996cadc001622fb5e363b421880102030405060708c0c0",
        "lastblockhash" : "0x93be68626420e3f8d428567b1f23dd31c85fe1542773f571cf6686873f33ed9f",
        "network" : "Metropolis",
        "postState" : {
            "0x00000000000000000000000000000000000000f0" : {
                "balance" : "0x00",
                "code" : "",
                "nonce" : "0x00",
                "storage" : {
                }
            },
            "0x00000000000000000000000000007fffffffffff" : {
                "balance" : "0x40fd556a",
                "code" : "",
                "nonce" : "0x00",
                "storage" : {
                }
            },
            "0x945304eb96065b2a98b57a48a06ae28d285a71b5" : {
                "balance" : "0x4563918244f48e1d",
                "code" : "0x6000355415600957005b60203560003555",
                "nonce" : "0x00",
                "storage" : {
                }
            },
            "0xa94f5374fce5edbc8e2a8697c15331677e6ebf0b" : {
                "balance" : "0x0de0b6b366661ca7",
                "code" : "",
                "nonce" : "0x01",
                "storage" : {
                }
            }
        },
        "pre" : {
            "0x095e7baea6a6c7c4c2dfeb977efac326af552d87" : {
                "balance" : "0x00",
                "code" : "0x657ffffffffffffffffffffffffffffffffffffffffffffffffffffffffffffffffe7f000000000000000000000000ffffffffffffffffffffffffffffffffffffffff7ffffffffffffffffffffffffffffffffffffffffffffffffffffffffffffffffe7f00000000000000000000000000000000000000000000000000000000000000007f00000000000000000000000100000000000000000000000000000000000000007f00000000000000000000000000000000000000000000000000000000000000017ffffffffffffffffffffffffffffffffffffffffffffffffffffffffffffffffe43659a936055",
                "nonce" : "0x00",
                "storage" : {
                }
            },
            "0x945304eb96065b2a98b57a48a06ae28d285a71b5" : {
                "balance" : "0x2e",
                "code" : "0x6000355415600957005b60203560003555",
                "nonce" : "0x00",
                "storage" : {
                }
            },
            "0xa94f5374fce5edbc8e2a8697c15331677e6ebf0b" : {
                "balance" : "0x0de0b6b3a7640000",
                "code" : "",
                "nonce" : "0x00",
                "storage" : {
                }
            }
        }
    }
}