{
    "randomStatetest88_d0g0v0_Byzantium" : {
        "_info" : {
            "comment" : "",
            "filledwith" : "cpp-1.3.0+commit.6e0ce939.Linux.g++",
            "lllcversion" : "Version: 0.4.18-develop.2017.9.25+commit.a72237f2.Linux.g++",
            "source" : "src/BlockchainTestsFiller/GeneralStateTests/stRandom/randomStatetest88_d0g0v0Filler.json",
            "sourceHash" : "68448bf6ac14fb58edb355841260872020fd1e793c3594ad3d5a339689e1f85e"
        },
        "blocks" : [
            {
                "blockHeader" : {
                    "bloom" : "0x00000000000000000000000000000000000000000000000000000000000000000000000000000000000000000000000000000000000000000000000000000000000000000000000000000000000000000000000000000000000000000000000000000000000000000000000000000000000000000000000000000000000000000000000000000000000000000000000000000000000000000000000000000000000000000000000000000000000000000000000000000000000000000000000000000000000000000000000000000000000000000000000000000000000000000000000000000000000000000000000000000000000000000000000000000000",
                    "coinbase" : "0x945304eb96065b2a98b57a48a06ae28d285a71b5",
                    "difficulty" : "0x020000",
                    "extraData" : "",
                    "gasLimit" : "0x7fffffffffffffff",
                    "gasUsed" : "0xb66a",
                    "hash" : "0x3323451ef9a528163488edbbf0d22cc7712ac8b62827c1fc651056ae3e173574",
                    "mixHash" : "0x5fdce483a0f0e60e03052e22fd6ca1a1e12c2ee6bc50e3e23f75638314e2780f",
                    "nonce" : "0x66d974bade9af4a4",
                    "number" : "0x01",
                    "parentHash" : "0x6928120c49af27d0bf94bb3bc8882d877c84db53be732717ad327a15f3770796",
                    "receiptTrie" : "0x4b99641513cb2493fb75b63d066928eedf8d18e576b40c6ced5b01e0924e2be6",
                    "stateRoot" : "0x7bc0e154a450cce82de00c99ee2f35038ef52f80f4a106f22ee251fbc31ae412",
                    "timestamp" : "0x03e8",
                    "transactionsTrie" : "0xf99b8be9b61a0c8269836ad7a9f3e478e48dee3ca9d0f04a24508c3f5e6cebcb",
                    "uncleHash" : "0x1dcc4de8dec75d7aab85b567b6ccd41ad312451b948a7413f0a142fd40d49347"
                },
                "rlp" : "0xf90303f901fca06928120c49af27d0bf94bb3bc8882d877c84db53be732717ad327a15f3770796a01dcc4de8dec75d7aab85b567b6ccd41ad312451b948a7413f0a142fd40d4934794945304eb96065b2a98b57a48a06ae28d285a71b5a07bc0e154a450cce82de00c99ee2f35038ef52f80f4a106f22ee251fbc31ae412a0f99b8be9b61a0c8269836ad7a9f3e478e48dee3ca9d0f04a24508c3f5e6cebcba04b99641513cb2493fb75b63d066928eedf8d18e576b40c6ced5b01e0924e2be6b90100000000000000000000000000000000000000000000000000000000000000000000000000000000000000000000000000000000000000000000000000000000000000000000000000000000000000000000000000000000000000000000000000000000000000000000000000000000000000000000000000000000000000000000000000000000000000000000000000000000000000000000000000000000000000000000000000000000000000000000000000000000000000000000000000000000000000000000000000000000000000000000000000000000000000000000000000000000000000000000000000000000000000000000000000000000008302000001887fffffffffffffff82b66a8203e880a05fdce483a0f0e60e03052e22fd6ca1a1e12c2ee6bc50e3e23f75638314e2780f8866d974bade9af4a4f90100f8fe8001843274418994095e7baea6a6c7c4c2dfeb977efac326af552d87843e996cb5b8987f000000000000000000000000945304eb96065b2a98b57a48a06ae28d285a71b54343537f000000000000000000000000000000000000000000000000000000000000c350117fffffffffffffffffffffffffffffffffffffffffffffffffffffffffffffffff7f00000000000000000000000000000000000000000000000000000000000000016f34f06a7014541167033909103620f31ca018651186fc7d800271ac9f5fcef5af949674f04946cb77f247d30e5e2695e013a04fe2ffe71ed08880d15d803a03d413079fa76d5a2c6a401d4c067f76d100cf82c0",
                "transactions" : [
                    {
                        "data" : "0x7f000000000000000000000000945304eb96065b2a98b57a48a06ae28d285a71b54343537f000000000000000000000000000000000000000000000000000000000000c350117fffffffffffffffffffffffffffffffffffffffffffffffffffffffffffffffff7f00000000000000000000000000000000000000000000000000000000000000016f34f06a7014541167033909103620f3",
                        "gasLimit" : "0x32744189",
                        "gasPrice" : "0x01",
                        "nonce" : "0x00",
                        "r" : "0x18651186fc7d800271ac9f5fcef5af949674f04946cb77f247d30e5e2695e013",
                        "s" : "0x4fe2ffe71ed08880d15d803a03d413079fa76d5a2c6a401d4c067f76d100cf82",
                        "to" : "0x095e7baea6a6c7c4c2dfeb977efac326af552d87",
                        "v" : "0x1c",
                        "value" : "0x3e996cb5"
                    }
                ],
                "uncleHeaders" : [
                ]
            }
        ],
        "genesisBlockHeader" : {
            "bloom" : "0x00000000000000000000000000000000000000000000000000000000000000000000000000000000000000000000000000000000000000000000000000000000000000000000000000000000000000000000000000000000000000000000000000000000000000000000000000000000000000000000000000000000000000000000000000000000000000000000000000000000000000000000000000000000000000000000000000000000000000000000000000000000000000000000000000000000000000000000000000000000000000000000000000000000000000000000000000000000000000000000000000000000000000000000000000000000",
            "coinbase" : "0x945304eb96065b2a98b57a48a06ae28d285a71b5",
            "difficulty" : "0x020000",
            "extraData" : "0x42",
            "gasLimit" : "0x7fffffffffffffff",
            "gasUsed" : "0x00",
            "hash" : "0x6928120c49af27d0bf94bb3bc8882d877c84db53be732717ad327a15f3770796",
            "mixHash" : "0x56e81f171bcc55a6ff8345e692c0f86e5b48e01b996cadc001622fb5e363b421",
            "nonce" : "0x0102030405060708",
            "number" : "0x00",
            "parentHash" : "0x0000000000000000000000000000000000000000000000000000000000000000",
            "receiptTrie" : "0x56e81f171bcc55a6ff8345e692c0f86e5b48e01b996cadc001622fb5e363b421",
            "stateRoot" : "0xba3937c6cd1c26dcd8269d97aca8327573aeb8780ca67bcaba06dc70a6f21314",
            "timestamp" : "0x03b6",
            "transactionsTrie" : "0x56e81f171bcc55a6ff8345e692c0f86e5b48e01b996cadc001622fb5e363b421",
            "uncleHash" : "0x1dcc4de8dec75d7aab85b567b6ccd41ad312451b948a7413f0a142fd40d49347"
        },
        "genesisRLP" : "0xf901fff901faa00000000000000000000000000000000000000000000000000000000000000000a01dcc4de8dec75d7aab85b567b6ccd41ad312451b948a7413f0a142fd40d4934794945304eb96065b2a98b57a48a06ae28d285a71b5a0ba3937c6cd1c26dcd8269d97aca8327573aeb8780ca67bcaba06dc70a6f21314a056e81f171bcc55a6ff8345e692c0f86e5b48e01b996cadc001622fb5e363b421a056e81f171bcc55a6ff8345e692c0f86e5b48e01b996cadc001622fb5e363b421b90100000000000000000000000000000000000000000000000000000000000000000000000000000000000000000000000000000000000000000000000000000000000000000000000000000000000000000000000000000000000000000000000000000000000000000000000000000000000000000000000000000000000000000000000000000000000000000000000000000000000000000000000000000000000000000000000000000000000000000000000000000000000000000000000000000000000000000000000000000000000000000000000000000000000000000000000000000000000000000000000000000000000000000000000000000000008302000080887fffffffffffffff808203b642a056e81f171bcc55a6ff8345e692c0f86e5b48e01b996cadc001622fb5e363b421880102030405060708c0c0",
        "lastblockhash" : "0x3323451ef9a528163488edbbf0d22cc7712ac8b62827c1fc651056ae3e173574",
        "network" : "Byzantium",
        "postState" : {
            "0x095e7baea6a6c7c4c2dfeb977efac326af552d87" : {
                "balance" : "0x3e996cb5",
                "code" : "0x7f000000000000000000000000945304eb96065b2a98b57a48a06ae28d285a71b54343537f000000000000000000000000000000000000000000000000000000000000c350117fffffffffffffffffffffffffffffffffffffffffffffffffffffffffffffffff7f00000000000000000000000000000000000000000000000000000000000000016f34f06a7014541167033909103620f35560005155",
                "nonce" : "0x00",
                "storage" : {
                    "0x01000000000000000000000000000000000000000000000000000000000000" : "0x34f06a7014541167033909103620f355"
                }
            },
            "0x945304eb96065b2a98b57a48a06ae28d285a71b5" : {
                "balance" : "0x29a2241af62cb698",
                "code" : "0x6000355415600957005b60203560003555",
                "nonce" : "0x00",
                "storage" : {
                }
            },
            "0xa94f5374fce5edbc8e2a8697c15331677e6ebf0b" : {
                "balance" : "0x0de0b6b368c9dce1",
                "code" : "",
                "nonce" : "0x01",
                "storage" : {
                }
            }
        },
        "pre" : {
            "0x095e7baea6a6c7c4c2dfeb977efac326af552d87" : {
                "balance" : "0x00",
                "code" : "0x7f000000000000000000000000945304eb96065b2a98b57a48a06ae28d285a71b54343537f000000000000000000000000000000000000000000000000000000000000c350117fffffffffffffffffffffffffffffffffffffffffffffffffffffffffffffffff7f00000000000000000000000000000000000000000000000000000000000000016f34f06a7014541167033909103620f35560005155",
                "nonce" : "0x00",
                "storage" : {
                }
            },
            "0x945304eb96065b2a98b57a48a06ae28d285a71b5" : {
                "balance" : "0x2e",
                "code" : "0x6000355415600957005b60203560003555",
                "nonce" : "0x00",
                "storage" : {
                }
            },
            "0xa94f5374fce5edbc8e2a8697c15331677e6ebf0b" : {
                "balance" : "0x0de0b6b3a7640000",
                "code" : "",
                "nonce" : "0x00",
                "storage" : {
                }
            }
        }
    },
    "randomStatetest88_d0g0v0_EIP150" : {
        "_info" : {
            "comment" : "",
            "filledwith" : "cpp-1.3.0+commit.6e0ce939.Linux.g++",
            "lllcversion" : "Version: 0.4.18-develop.2017.9.25+commit.a72237f2.Linux.g++",
            "source" : "src/BlockchainTestsFiller/GeneralStateTests/stRandom/randomStatetest88_d0g0v0Filler.json",
            "sourceHash" : "68448bf6ac14fb58edb355841260872020fd1e793c3594ad3d5a339689e1f85e"
        },
        "blocks" : [
            {
                "blockHeader" : {
                    "bloom" : "0x00000000000000000000000000000000000000000000000000000000000000000000000000000000000000000000000000000000000000000000000000000000000000000000000000000000000000000000000000000000000000000000000000000000000000000000000000000000000000000000000000000000000000000000000000000000000000000000000000000000000000000000000000000000000000000000000000000000000000000000000000000000000000000000000000000000000000000000000000000000000000000000000000000000000000000000000000000000000000000000000000000000000000000000000000000000",
                    "coinbase" : "0x945304eb96065b2a98b57a48a06ae28d285a71b5",
                    "difficulty" : "0x020000",
                    "extraData" : "",
                    "gasLimit" : "0x7fffffffffffffff",
                    "gasUsed" : "0xb66a",
                    "hash" : "0xba6b10927a84f7e6e40ef0d8ed42c4305cf782126922cb7789419f2b0859b804",
                    "mixHash" : "0x713f39aaf03c5312e99a4ccea7ec50163101e9f3049ad2fe4d8c6b3aa57e576b",
                    "nonce" : "0x55f0208d0da6183d",
                    "number" : "0x01",
                    "parentHash" : "0x6928120c49af27d0bf94bb3bc8882d877c84db53be732717ad327a15f3770796",
                    "receiptTrie" : "0xebd823693b5b4e6fc36be041a79725b7c48fc4778e525f14769784cb6b969f92",
                    "stateRoot" : "0xea31b2f6ee4b12189bb874a50821c22631612f5d4258af9571fd6e677c8407f0",
                    "timestamp" : "0x03e8",
                    "transactionsTrie" : "0xf99b8be9b61a0c8269836ad7a9f3e478e48dee3ca9d0f04a24508c3f5e6cebcb",
                    "uncleHash" : "0x1dcc4de8dec75d7aab85b567b6ccd41ad312451b948a7413f0a142fd40d49347"
                },
                "rlp" : "0xf90303f901fca06928120c49af27d0bf94bb3bc8882d877c84db53be732717ad327a15f3770796a01dcc4de8dec75d7aab85b567b6ccd41ad312451b948a7413f0a142fd40d4934794945304eb96065b2a98b57a48a06ae28d285a71b5a0ea31b2f6ee4b12189bb874a50821c22631612f5d4258af9571fd6e677c8407f0a0f99b8be9b61a0c8269836ad7a9f3e478e48dee3ca9d0f04a24508c3f5e6cebcba0ebd823693b5b4e6fc36be041a79725b7c48fc4778e525f14769784cb6b969f92b90100000000000000000000000000000000000000000000000000000000000000000000000000000000000000000000000000000000000000000000000000000000000000000000000000000000000000000000000000000000000000000000000000000000000000000000000000000000000000000000000000000000000000000000000000000000000000000000000000000000000000000000000000000000000000000000000000000000000000000000000000000000000000000000000000000000000000000000000000000000000000000000000000000000000000000000000000000000000000000000000000000000000000000000000000000000008302000001887fffffffffffffff82b66a8203e880a0713f39aaf03c5312e99a4ccea7ec50163101e9f3049ad2fe4d8c6b3aa57e576b8855f0208d0da6183df90100f8fe8001843274418994095e7baea6a6c7c4c2dfeb977efac326af552d87843e996cb5b8987f000000000000000000000000945304eb96065b2a98b57a48a06ae28d285a71b54343537f000000000000000000000000000000000000000000000000000000000000c350117fffffffffffffffffffffffffffffffffffffffffffffffffffffffffffffffff7f00000000000000000000000000000000000000000000000000000000000000016f34f06a7014541167033909103620f31ca018651186fc7d800271ac9f5fcef5af949674f04946cb77f247d30e5e2695e013a04fe2ffe71ed08880d15d803a03d413079fa76d5a2c6a401d4c067f76d100cf82c0",
                "transactions" : [
                    {
                        "data" : "0x7f000000000000000000000000945304eb96065b2a98b57a48a06ae28d285a71b54343537f000000000000000000000000000000000000000000000000000000000000c350117fffffffffffffffffffffffffffffffffffffffffffffffffffffffffffffffff7f00000000000000000000000000000000000000000000000000000000000000016f34f06a7014541167033909103620f3",
                        "gasLimit" : "0x32744189",
                        "gasPrice" : "0x01",
                        "nonce" : "0x00",
                        "r" : "0x18651186fc7d800271ac9f5fcef5af949674f04946cb77f247d30e5e2695e013",
                        "s" : "0x4fe2ffe71ed08880d15d803a03d413079fa76d5a2c6a401d4c067f76d100cf82",
                        "to" : "0x095e7baea6a6c7c4c2dfeb977efac326af552d87",
                        "v" : "0x1c",
                        "value" : "0x3e996cb5"
                    }
                ],
                "uncleHeaders" : [
                ]
            }
        ],
        "genesisBlockHeader" : {
            "bloom" : "0x00000000000000000000000000000000000000000000000000000000000000000000000000000000000000000000000000000000000000000000000000000000000000000000000000000000000000000000000000000000000000000000000000000000000000000000000000000000000000000000000000000000000000000000000000000000000000000000000000000000000000000000000000000000000000000000000000000000000000000000000000000000000000000000000000000000000000000000000000000000000000000000000000000000000000000000000000000000000000000000000000000000000000000000000000000000",
            "coinbase" : "0x945304eb96065b2a98b57a48a06ae28d285a71b5",
            "difficulty" : "0x020000",
            "extraData" : "0x42",
            "gasLimit" : "0x7fffffffffffffff",
            "gasUsed" : "0x00",
            "hash" : "0x6928120c49af27d0bf94bb3bc8882d877c84db53be732717ad327a15f3770796",
            "mixHash" : "0x56e81f171bcc55a6ff8345e692c0f86e5b48e01b996cadc001622fb5e363b421",
            "nonce" : "0x0102030405060708",
            "number" : "0x00",
            "parentHash" : "0x0000000000000000000000000000000000000000000000000000000000000000",
            "receiptTrie" : "0x56e81f171bcc55a6ff8345e692c0f86e5b48e01b996cadc001622fb5e363b421",
            "stateRoot" : "0xba3937c6cd1c26dcd8269d97aca8327573aeb8780ca67bcaba06dc70a6f21314",
            "timestamp" : "0x03b6",
            "transactionsTrie" : "0x56e81f171bcc55a6ff8345e692c0f86e5b48e01b996cadc001622fb5e363b421",
            "uncleHash" : "0x1dcc4de8dec75d7aab85b567b6ccd41ad312451b948a7413f0a142fd40d49347"
        },
        "genesisRLP" : "0xf901fff901faa00000000000000000000000000000000000000000000000000000000000000000a01dcc4de8dec75d7aab85b567b6ccd41ad312451b948a7413f0a142fd40d4934794945304eb96065b2a98b57a48a06ae28d285a71b5a0ba3937c6cd1c26dcd8269d97aca8327573aeb8780ca67bcaba06dc70a6f21314a056e81f171bcc55a6ff8345e692c0f86e5b48e01b996cadc001622fb5e363b421a056e81f171bcc55a6ff8345e692c0f86e5b48e01b996cadc001622fb5e363b421b90100000000000000000000000000000000000000000000000000000000000000000000000000000000000000000000000000000000000000000000000000000000000000000000000000000000000000000000000000000000000000000000000000000000000000000000000000000000000000000000000000000000000000000000000000000000000000000000000000000000000000000000000000000000000000000000000000000000000000000000000000000000000000000000000000000000000000000000000000000000000000000000000000000000000000000000000000000000000000000000000000000000000000000000000000000000008302000080887fffffffffffffff808203b642a056e81f171bcc55a6ff8345e692c0f86e5b48e01b996cadc001622fb5e363b421880102030405060708c0c0",
        "lastblockhash" : "0xba6b10927a84f7e6e40ef0d8ed42c4305cf782126922cb7789419f2b0859b804",
        "network" : "EIP150",
        "postState" : {
            "0x095e7baea6a6c7c4c2dfeb977efac326af552d87" : {
                "balance" : "0x3e996cb5",
                "code" : "0x7f000000000000000000000000945304eb96065b2a98b57a48a06ae28d285a71b54343537f000000000000000000000000000000000000000000000000000000000000c350117fffffffffffffffffffffffffffffffffffffffffffffffffffffffffffffffff7f00000000000000000000000000000000000000000000000000000000000000016f34f06a7014541167033909103620f35560005155",
                "nonce" : "0x00",
                "storage" : {
                    "0x01000000000000000000000000000000000000000000000000000000000000" : "0x34f06a7014541167033909103620f355"
                }
            },
            "0x945304eb96065b2a98b57a48a06ae28d285a71b5" : {
                "balance" : "0x4563918244f4b698",
                "code" : "0x6000355415600957005b60203560003555",
                "nonce" : "0x00",
                "storage" : {
                }
            },
            "0xa94f5374fce5edbc8e2a8697c15331677e6ebf0b" : {
                "balance" : "0x0de0b6b368c9dce1",
                "code" : "",
                "nonce" : "0x01",
                "storage" : {
                }
            }
        },
        "pre" : {
            "0x095e7baea6a6c7c4c2dfeb977efac326af552d87" : {
                "balance" : "0x00",
                "code" : "0x7f000000000000000000000000945304eb96065b2a98b57a48a06ae28d285a71b54343537f000000000000000000000000000000000000000000000000000000000000c350117fffffffffffffffffffffffffffffffffffffffffffffffffffffffffffffffff7f00000000000000000000000000000000000000000000000000000000000000016f34f06a7014541167033909103620f35560005155",
                "nonce" : "0x00",
                "storage" : {
                }
            },
            "0x945304eb96065b2a98b57a48a06ae28d285a71b5" : {
                "balance" : "0x2e",
                "code" : "0x6000355415600957005b60203560003555",
                "nonce" : "0x00",
                "storage" : {
                }
            },
            "0xa94f5374fce5edbc8e2a8697c15331677e6ebf0b" : {
                "balance" : "0x0de0b6b3a7640000",
                "code" : "",
                "nonce" : "0x00",
                "storage" : {
                }
            }
        }
    },
    "randomStatetest88_d0g0v0_EIP158" : {
        "_info" : {
            "comment" : "",
            "filledwith" : "cpp-1.3.0+commit.6e0ce939.Linux.g++",
            "lllcversion" : "Version: 0.4.18-develop.2017.9.25+commit.a72237f2.Linux.g++",
            "source" : "src/BlockchainTestsFiller/GeneralStateTests/stRandom/randomStatetest88_d0g0v0Filler.json",
            "sourceHash" : "68448bf6ac14fb58edb355841260872020fd1e793c3594ad3d5a339689e1f85e"
        },
        "blocks" : [
            {
                "blockHeader" : {
                    "bloom" : "0x00000000000000000000000000000000000000000000000000000000000000000000000000000000000000000000000000000000000000000000000000000000000000000000000000000000000000000000000000000000000000000000000000000000000000000000000000000000000000000000000000000000000000000000000000000000000000000000000000000000000000000000000000000000000000000000000000000000000000000000000000000000000000000000000000000000000000000000000000000000000000000000000000000000000000000000000000000000000000000000000000000000000000000000000000000000",
                    "coinbase" : "0x945304eb96065b2a98b57a48a06ae28d285a71b5",
                    "difficulty" : "0x020000",
                    "extraData" : "",
                    "gasLimit" : "0x7fffffffffffffff",
                    "gasUsed" : "0xb66a",
                    "hash" : "0x8aa7351286add143e7894467fb2dd2d6955e5d4649f9e41ba7c3a624c39721ed",
                    "mixHash" : "0x86028d91113a96f63367eac3d861047cdf0dced2d095c5dc1793db0dafc566a0",
                    "nonce" : "0x8738a1d5864edeeb",
                    "number" : "0x01",
                    "parentHash" : "0x6928120c49af27d0bf94bb3bc8882d877c84db53be732717ad327a15f3770796",
                    "receiptTrie" : "0xebd823693b5b4e6fc36be041a79725b7c48fc4778e525f14769784cb6b969f92",
                    "stateRoot" : "0xea31b2f6ee4b12189bb874a50821c22631612f5d4258af9571fd6e677c8407f0",
                    "timestamp" : "0x03e8",
                    "transactionsTrie" : "0xf99b8be9b61a0c8269836ad7a9f3e478e48dee3ca9d0f04a24508c3f5e6cebcb",
                    "uncleHash" : "0x1dcc4de8dec75d7aab85b567b6ccd41ad312451b948a7413f0a142fd40d49347"
                },
                "rlp" : "0xf90303f901fca06928120c49af27d0bf94bb3bc8882d877c84db53be732717ad327a15f3770796a01dcc4de8dec75d7aab85b567b6ccd41ad312451b948a7413f0a142fd40d4934794945304eb96065b2a98b57a48a06ae28d285a71b5a0ea31b2f6ee4b12189bb874a50821c22631612f5d4258af9571fd6e677c8407f0a0f99b8be9b61a0c8269836ad7a9f3e478e48dee3ca9d0f04a24508c3f5e6cebcba0ebd823693b5b4e6fc36be041a79725b7c48fc4778e525f14769784cb6b969f92b90100000000000000000000000000000000000000000000000000000000000000000000000000000000000000000000000000000000000000000000000000000000000000000000000000000000000000000000000000000000000000000000000000000000000000000000000000000000000000000000000000000000000000000000000000000000000000000000000000000000000000000000000000000000000000000000000000000000000000000000000000000000000000000000000000000000000000000000000000000000000000000000000000000000000000000000000000000000000000000000000000000000000000000000000000000000008302000001887fffffffffffffff82b66a8203e880a086028d91113a96f63367eac3d861047cdf0dced2d095c5dc1793db0dafc566a0888738a1d5864edeebf90100f8fe8001843274418994095e7baea6a6c7c4c2dfeb977efac326af552d87843e996cb5b8987f000000000000000000000000945304eb96065b2a98b57a48a06ae28d285a71b54343537f000000000000000000000000000000000000000000000000000000000000c350117fffffffffffffffffffffffffffffffffffffffffffffffffffffffffffffffff7f00000000000000000000000000000000000000000000000000000000000000016f34f06a7014541167033909103620f31ca018651186fc7d800271ac9f5fcef5af949674f04946cb77f247d30e5e2695e013a04fe2ffe71ed08880d15d803a03d413079fa76d5a2c6a401d4c067f76d100cf82c0",
                "transactions" : [
                    {
                        "data" : "0x7f000000000000000000000000945304eb96065b2a98b57a48a06ae28d285a71b54343537f000000000000000000000000000000000000000000000000000000000000c350117fffffffffffffffffffffffffffffffffffffffffffffffffffffffffffffffff7f00000000000000000000000000000000000000000000000000000000000000016f34f06a7014541167033909103620f3",
                        "gasLimit" : "0x32744189",
                        "gasPrice" : "0x01",
                        "nonce" : "0x00",
                        "r" : "0x18651186fc7d800271ac9f5fcef5af949674f04946cb77f247d30e5e2695e013",
                        "s" : "0x4fe2ffe71ed08880d15d803a03d413079fa76d5a2c6a401d4c067f76d100cf82",
                        "to" : "0x095e7baea6a6c7c4c2dfeb977efac326af552d87",
                        "v" : "0x1c",
                        "value" : "0x3e996cb5"
                    }
                ],
                "uncleHeaders" : [
                ]
            }
        ],
        "genesisBlockHeader" : {
            "bloom" : "0x00000000000000000000000000000000000000000000000000000000000000000000000000000000000000000000000000000000000000000000000000000000000000000000000000000000000000000000000000000000000000000000000000000000000000000000000000000000000000000000000000000000000000000000000000000000000000000000000000000000000000000000000000000000000000000000000000000000000000000000000000000000000000000000000000000000000000000000000000000000000000000000000000000000000000000000000000000000000000000000000000000000000000000000000000000000",
            "coinbase" : "0x945304eb96065b2a98b57a48a06ae28d285a71b5",
            "difficulty" : "0x020000",
            "extraData" : "0x42",
            "gasLimit" : "0x7fffffffffffffff",
            "gasUsed" : "0x00",
            "hash" : "0x6928120c49af27d0bf94bb3bc8882d877c84db53be732717ad327a15f3770796",
            "mixHash" : "0x56e81f171bcc55a6ff8345e692c0f86e5b48e01b996cadc001622fb5e363b421",
            "nonce" : "0x0102030405060708",
            "number" : "0x00",
            "parentHash" : "0x0000000000000000000000000000000000000000000000000000000000000000",
            "receiptTrie" : "0x56e81f171bcc55a6ff8345e692c0f86e5b48e01b996cadc001622fb5e363b421",
            "stateRoot" : "0xba3937c6cd1c26dcd8269d97aca8327573aeb8780ca67bcaba06dc70a6f21314",
            "timestamp" : "0x03b6",
            "transactionsTrie" : "0x56e81f171bcc55a6ff8345e692c0f86e5b48e01b996cadc001622fb5e363b421",
            "uncleHash" : "0x1dcc4de8dec75d7aab85b567b6ccd41ad312451b948a7413f0a142fd40d49347"
        },
        "genesisRLP" : "0xf901fff901faa00000000000000000000000000000000000000000000000000000000000000000a01dcc4de8dec75d7aab85b567b6ccd41ad312451b948a7413f0a142fd40d4934794945304eb96065b2a98b57a48a06ae28d285a71b5a0ba3937c6cd1c26dcd8269d97aca8327573aeb8780ca67bcaba06dc70a6f21314a056e81f171bcc55a6ff8345e692c0f86e5b48e01b996cadc001622fb5e363b421a056e81f171bcc55a6ff8345e692c0f86e5b48e01b996cadc001622fb5e363b421b90100000000000000000000000000000000000000000000000000000000000000000000000000000000000000000000000000000000000000000000000000000000000000000000000000000000000000000000000000000000000000000000000000000000000000000000000000000000000000000000000000000000000000000000000000000000000000000000000000000000000000000000000000000000000000000000000000000000000000000000000000000000000000000000000000000000000000000000000000000000000000000000000000000000000000000000000000000000000000000000000000000000000000000000000000000000008302000080887fffffffffffffff808203b642a056e81f171bcc55a6ff8345e692c0f86e5b48e01b996cadc001622fb5e363b421880102030405060708c0c0",
        "lastblockhash" : "0x8aa7351286add143e7894467fb2dd2d6955e5d4649f9e41ba7c3a624c39721ed",
        "network" : "EIP158",
        "postState" : {
            "0x095e7baea6a6c7c4c2dfeb977efac326af552d87" : {
                "balance" : "0x3e996cb5",
                "code" : "0x7f000000000000000000000000945304eb96065b2a98b57a48a06ae28d285a71b54343537f000000000000000000000000000000000000000000000000000000000000c350117fffffffffffffffffffffffffffffffffffffffffffffffffffffffffffffffff7f00000000000000000000000000000000000000000000000000000000000000016f34f06a7014541167033909103620f35560005155",
                "nonce" : "0x00",
                "storage" : {
                    "0x01000000000000000000000000000000000000000000000000000000000000" : "0x34f06a7014541167033909103620f355"
                }
            },
            "0x945304eb96065b2a98b57a48a06ae28d285a71b5" : {
                "balance" : "0x4563918244f4b698",
                "code" : "0x6000355415600957005b60203560003555",
                "nonce" : "0x00",
                "storage" : {
                }
            },
            "0xa94f5374fce5edbc8e2a8697c15331677e6ebf0b" : {
                "balance" : "0x0de0b6b368c9dce1",
                "code" : "",
                "nonce" : "0x01",
                "storage" : {
                }
            }
        },
        "pre" : {
            "0x095e7baea6a6c7c4c2dfeb977efac326af552d87" : {
                "balance" : "0x00",
                "code" : "0x7f000000000000000000000000945304eb96065b2a98b57a48a06ae28d285a71b54343537f000000000000000000000000000000000000000000000000000000000000c350117fffffffffffffffffffffffffffffffffffffffffffffffffffffffffffffffff7f00000000000000000000000000000000000000000000000000000000000000016f34f06a7014541167033909103620f35560005155",
                "nonce" : "0x00",
                "storage" : {
                }
            },
            "0x945304eb96065b2a98b57a48a06ae28d285a71b5" : {
                "balance" : "0x2e",
                "code" : "0x6000355415600957005b60203560003555",
                "nonce" : "0x00",
                "storage" : {
                }
            },
            "0xa94f5374fce5edbc8e2a8697c15331677e6ebf0b" : {
                "balance" : "0x0de0b6b3a7640000",
                "code" : "",
                "nonce" : "0x00",
                "storage" : {
                }
            }
        }
    },
    "randomStatetest88_d0g0v0_Frontier" : {
        "_info" : {
            "comment" : "",
            "filledwith" : "cpp-1.3.0+commit.6e0ce939.Linux.g++",
            "lllcversion" : "Version: 0.4.18-develop.2017.9.25+commit.a72237f2.Linux.g++",
            "source" : "src/BlockchainTestsFiller/GeneralStateTests/stRandom/randomStatetest88_d0g0v0Filler.json",
            "sourceHash" : "68448bf6ac14fb58edb355841260872020fd1e793c3594ad3d5a339689e1f85e"
        },
        "blocks" : [
            {
                "blockHeader" : {
                    "bloom" : "0x00000000000000000000000000000000000000000000000000000000000000000000000000000000000000000000000000000000000000000000000000000000000000000000000000000000000000000000000000000000000000000000000000000000000000000000000000000000000000000000000000000000000000000000000000000000000000000000000000000000000000000000000000000000000000000000000000000000000000000000000000000000000000000000000000000000000000000000000000000000000000000000000000000000000000000000000000000000000000000000000000000000000000000000000000000000",
                    "coinbase" : "0x945304eb96065b2a98b57a48a06ae28d285a71b5",
                    "difficulty" : "0x020000",
                    "extraData" : "",
                    "gasLimit" : "0x7fffffffffffffff",
                    "gasUsed" : "0xb66a",
                    "hash" : "0xbde07315efa9157e3352ce94a71ecfc74f65e473a4e5dd21c8bdd8ae93cd85de",
                    "mixHash" : "0xed9ee38b02040310670209f22bdedc2af9820e13f191f6714890de92625f36e5",
                    "nonce" : "0x07a9620cb737e5bf",
                    "number" : "0x01",
                    "parentHash" : "0x6928120c49af27d0bf94bb3bc8882d877c84db53be732717ad327a15f3770796",
                    "receiptTrie" : "0xebd823693b5b4e6fc36be041a79725b7c48fc4778e525f14769784cb6b969f92",
                    "stateRoot" : "0xea31b2f6ee4b12189bb874a50821c22631612f5d4258af9571fd6e677c8407f0",
                    "timestamp" : "0x03e8",
                    "transactionsTrie" : "0xf99b8be9b61a0c8269836ad7a9f3e478e48dee3ca9d0f04a24508c3f5e6cebcb",
                    "uncleHash" : "0x1dcc4de8dec75d7aab85b567b6ccd41ad312451b948a7413f0a142fd40d49347"
                },
                "rlp" : "0xf90303f901fca06928120c49af27d0bf94bb3bc8882d877c84db53be732717ad327a15f3770796a01dcc4de8dec75d7aab85b567b6ccd41ad312451b948a7413f0a142fd40d4934794945304eb96065b2a98b57a48a06ae28d285a71b5a0ea31b2f6ee4b12189bb874a50821c22631612f5d4258af9571fd6e677c8407f0a0f99b8be9b61a0c8269836ad7a9f3e478e48dee3ca9d0f04a24508c3f5e6cebcba0ebd823693b5b4e6fc36be041a79725b7c48fc4778e525f14769784cb6b969f92b90100000000000000000000000000000000000000000000000000000000000000000000000000000000000000000000000000000000000000000000000000000000000000000000000000000000000000000000000000000000000000000000000000000000000000000000000000000000000000000000000000000000000000000000000000000000000000000000000000000000000000000000000000000000000000000000000000000000000000000000000000000000000000000000000000000000000000000000000000000000000000000000000000000000000000000000000000000000000000000000000000000000000000000000000000000000008302000001887fffffffffffffff82b66a8203e880a0ed9ee38b02040310670209f22bdedc2af9820e13f191f6714890de92625f36e58807a9620cb737e5bff90100f8fe8001843274418994095e7baea6a6c7c4c2dfeb977efac326af552d87843e996cb5b8987f000000000000000000000000945304eb96065b2a98b57a48a06ae28d285a71b54343537f000000000000000000000000000000000000000000000000000000000000c350117fffffffffffffffffffffffffffffffffffffffffffffffffffffffffffffffff7f00000000000000000000000000000000000000000000000000000000000000016f34f06a7014541167033909103620f31ca018651186fc7d800271ac9f5fcef5af949674f04946cb77f247d30e5e2695e013a04fe2ffe71ed08880d15d803a03d413079fa76d5a2c6a401d4c067f76d100cf82c0",
                "transactions" : [
                    {
                        "data" : "0x7f000000000000000000000000945304eb96065b2a98b57a48a06ae28d285a71b54343537f000000000000000000000000000000000000000000000000000000000000c350117fffffffffffffffffffffffffffffffffffffffffffffffffffffffffffffffff7f00000000000000000000000000000000000000000000000000000000000000016f34f06a7014541167033909103620f3",
                        "gasLimit" : "0x32744189",
                        "gasPrice" : "0x01",
                        "nonce" : "0x00",
                        "r" : "0x18651186fc7d800271ac9f5fcef5af949674f04946cb77f247d30e5e2695e013",
                        "s" : "0x4fe2ffe71ed08880d15d803a03d413079fa76d5a2c6a401d4c067f76d100cf82",
                        "to" : "0x095e7baea6a6c7c4c2dfeb977efac326af552d87",
                        "v" : "0x1c",
                        "value" : "0x3e996cb5"
                    }
                ],
                "uncleHeaders" : [
                ]
            }
        ],
        "genesisBlockHeader" : {
            "bloom" : "0x00000000000000000000000000000000000000000000000000000000000000000000000000000000000000000000000000000000000000000000000000000000000000000000000000000000000000000000000000000000000000000000000000000000000000000000000000000000000000000000000000000000000000000000000000000000000000000000000000000000000000000000000000000000000000000000000000000000000000000000000000000000000000000000000000000000000000000000000000000000000000000000000000000000000000000000000000000000000000000000000000000000000000000000000000000000",
            "coinbase" : "0x945304eb96065b2a98b57a48a06ae28d285a71b5",
            "difficulty" : "0x020000",
            "extraData" : "0x42",
            "gasLimit" : "0x7fffffffffffffff",
            "gasUsed" : "0x00",
            "hash" : "0x6928120c49af27d0bf94bb3bc8882d877c84db53be732717ad327a15f3770796",
            "mixHash" : "0x56e81f171bcc55a6ff8345e692c0f86e5b48e01b996cadc001622fb5e363b421",
            "nonce" : "0x0102030405060708",
            "number" : "0x00",
            "parentHash" : "0x0000000000000000000000000000000000000000000000000000000000000000",
            "receiptTrie" : "0x56e81f171bcc55a6ff8345e692c0f86e5b48e01b996cadc001622fb5e363b421",
            "stateRoot" : "0xba3937c6cd1c26dcd8269d97aca8327573aeb8780ca67bcaba06dc70a6f21314",
            "timestamp" : "0x03b6",
            "transactionsTrie" : "0x56e81f171bcc55a6ff8345e692c0f86e5b48e01b996cadc001622fb5e363b421",
            "uncleHash" : "0x1dcc4de8dec75d7aab85b567b6ccd41ad312451b948a7413f0a142fd40d49347"
        },
        "genesisRLP" : "0xf901fff901faa00000000000000000000000000000000000000000000000000000000000000000a01dcc4de8dec75d7aab85b567b6ccd41ad312451b948a7413f0a142fd40d4934794945304eb96065b2a98b57a48a06ae28d285a71b5a0ba3937c6cd1c26dcd8269d97aca8327573aeb8780ca67bcaba06dc70a6f21314a056e81f171bcc55a6ff8345e692c0f86e5b48e01b996cadc001622fb5e363b421a056e81f171bcc55a6ff8345e692c0f86e5b48e01b996cadc001622fb5e363b421b90100000000000000000000000000000000000000000000000000000000000000000000000000000000000000000000000000000000000000000000000000000000000000000000000000000000000000000000000000000000000000000000000000000000000000000000000000000000000000000000000000000000000000000000000000000000000000000000000000000000000000000000000000000000000000000000000000000000000000000000000000000000000000000000000000000000000000000000000000000000000000000000000000000000000000000000000000000000000000000000000000000000000000000000000000000000008302000080887fffffffffffffff808203b642a056e81f171bcc55a6ff8345e692c0f86e5b48e01b996cadc001622fb5e363b421880102030405060708c0c0",
        "lastblockhash" : "0xbde07315efa9157e3352ce94a71ecfc74f65e473a4e5dd21c8bdd8ae93cd85de",
        "network" : "Frontier",
        "postState" : {
            "0x095e7baea6a6c7c4c2dfeb977efac326af552d87" : {
                "balance" : "0x3e996cb5",
                "code" : "0x7f000000000000000000000000945304eb96065b2a98b57a48a06ae28d285a71b54343537f000000000000000000000000000000000000000000000000000000000000c350117fffffffffffffffffffffffffffffffffffffffffffffffffffffffffffffffff7f00000000000000000000000000000000000000000000000000000000000000016f34f06a7014541167033909103620f35560005155",
                "nonce" : "0x00",
                "storage" : {
                    "0x01000000000000000000000000000000000000000000000000000000000000" : "0x34f06a7014541167033909103620f355"
                }
            },
            "0x945304eb96065b2a98b57a48a06ae28d285a71b5" : {
                "balance" : "0x4563918244f4b698",
                "code" : "0x6000355415600957005b60203560003555",
                "nonce" : "0x00",
                "storage" : {
                }
            },
            "0xa94f5374fce5edbc8e2a8697c15331677e6ebf0b" : {
                "balance" : "0x0de0b6b368c9dce1",
                "code" : "",
                "nonce" : "0x01",
                "storage" : {
                }
            }
        },
        "pre" : {
            "0x095e7baea6a6c7c4c2dfeb977efac326af552d87" : {
                "balance" : "0x00",
                "code" : "0x7f000000000000000000000000945304eb96065b2a98b57a48a06ae28d285a71b54343537f000000000000000000000000000000000000000000000000000000000000c350117fffffffffffffffffffffffffffffffffffffffffffffffffffffffffffffffff7f00000000000000000000000000000000000000000000000000000000000000016f34f06a7014541167033909103620f35560005155",
                "nonce" : "0x00",
                "storage" : {
                }
            },
            "0x945304eb96065b2a98b57a48a06ae28d285a71b5" : {
                "balance" : "0x2e",
                "code" : "0x6000355415600957005b60203560003555",
                "nonce" : "0x00",
                "storage" : {
                }
            },
            "0xa94f5374fce5edbc8e2a8697c15331677e6ebf0b" : {
                "balance" : "0x0de0b6b3a7640000",
                "code" : "",
                "nonce" : "0x00",
                "storage" : {
                }
            }
        }
    },
    "randomStatetest88_d0g0v0_Homestead" : {
        "_info" : {
            "comment" : "",
            "filledwith" : "cpp-1.3.0+commit.6e0ce939.Linux.g++",
            "lllcversion" : "Version: 0.4.18-develop.2017.9.25+commit.a72237f2.Linux.g++",
            "source" : "src/BlockchainTestsFiller/GeneralStateTests/stRandom/randomStatetest88_d0g0v0Filler.json",
            "sourceHash" : "68448bf6ac14fb58edb355841260872020fd1e793c3594ad3d5a339689e1f85e"
        },
        "blocks" : [
            {
                "blockHeader" : {
                    "bloom" : "0x00000000000000000000000000000000000000000000000000000000000000000000000000000000000000000000000000000000000000000000000000000000000000000000000000000000000000000000000000000000000000000000000000000000000000000000000000000000000000000000000000000000000000000000000000000000000000000000000000000000000000000000000000000000000000000000000000000000000000000000000000000000000000000000000000000000000000000000000000000000000000000000000000000000000000000000000000000000000000000000000000000000000000000000000000000000",
                    "coinbase" : "0x945304eb96065b2a98b57a48a06ae28d285a71b5",
                    "difficulty" : "0x020000",
                    "extraData" : "",
                    "gasLimit" : "0x7fffffffffffffff",
                    "gasUsed" : "0xb66a",
                    "hash" : "0xe8fa601caeed3b255933e5c81d29534da3f6bc806b8e4f17d6b9eece0007253b",
                    "mixHash" : "0x2b34c3c99754c9b4c45106c4c892543b0f284a763f1cf6ffaf437a30429bdae4",
                    "nonce" : "0xf1da442c00f8fdba",
                    "number" : "0x01",
                    "parentHash" : "0x6928120c49af27d0bf94bb3bc8882d877c84db53be732717ad327a15f3770796",
                    "receiptTrie" : "0xebd823693b5b4e6fc36be041a79725b7c48fc4778e525f14769784cb6b969f92",
                    "stateRoot" : "0xea31b2f6ee4b12189bb874a50821c22631612f5d4258af9571fd6e677c8407f0",
                    "timestamp" : "0x03e8",
                    "transactionsTrie" : "0xf99b8be9b61a0c8269836ad7a9f3e478e48dee3ca9d0f04a24508c3f5e6cebcb",
                    "uncleHash" : "0x1dcc4de8dec75d7aab85b567b6ccd41ad312451b948a7413f0a142fd40d49347"
                },
                "rlp" : "0xf90303f901fca06928120c49af27d0bf94bb3bc8882d877c84db53be732717ad327a15f3770796a01dcc4de8dec75d7aab85b567b6ccd41ad312451b948a7413f0a142fd40d4934794945304eb96065b2a98b57a48a06ae28d285a71b5a0ea31b2f6ee4b12189bb874a50821c22631612f5d4258af9571fd6e677c8407f0a0f99b8be9b61a0c8269836ad7a9f3e478e48dee3ca9d0f04a24508c3f5e6cebcba0ebd823693b5b4e6fc36be041a79725b7c48fc4778e525f14769784cb6b969f92b90100000000000000000000000000000000000000000000000000000000000000000000000000000000000000000000000000000000000000000000000000000000000000000000000000000000000000000000000000000000000000000000000000000000000000000000000000000000000000000000000000000000000000000000000000000000000000000000000000000000000000000000000000000000000000000000000000000000000000000000000000000000000000000000000000000000000000000000000000000000000000000000000000000000000000000000000000000000000000000000000000000000000000000000000000000000008302000001887fffffffffffffff82b66a8203e880a02b34c3c99754c9b4c45106c4c892543b0f284a763f1cf6ffaf437a30429bdae488f1da442c00f8fdbaf90100f8fe8001843274418994095e7baea6a6c7c4c2dfeb977efac326af552d87843e996cb5b8987f000000000000000000000000945304eb96065b2a98b57a48a06ae28d285a71b54343537f000000000000000000000000000000000000000000000000000000000000c350117fffffffffffffffffffffffffffffffffffffffffffffffffffffffffffffffff7f00000000000000000000000000000000000000000000000000000000000000016f34f06a7014541167033909103620f31ca018651186fc7d800271ac9f5fcef5af949674f04946cb77f247d30e5e2695e013a04fe2ffe71ed08880d15d803a03d413079fa76d5a2c6a401d4c067f76d100cf82c0",
                "transactions" : [
                    {
                        "data" : "0x7f000000000000000000000000945304eb96065b2a98b57a48a06ae28d285a71b54343537f000000000000000000000000000000000000000000000000000000000000c350117fffffffffffffffffffffffffffffffffffffffffffffffffffffffffffffffff7f00000000000000000000000000000000000000000000000000000000000000016f34f06a7014541167033909103620f3",
                        "gasLimit" : "0x32744189",
                        "gasPrice" : "0x01",
                        "nonce" : "0x00",
                        "r" : "0x18651186fc7d800271ac9f5fcef5af949674f04946cb77f247d30e5e2695e013",
                        "s" : "0x4fe2ffe71ed08880d15d803a03d413079fa76d5a2c6a401d4c067f76d100cf82",
                        "to" : "0x095e7baea6a6c7c4c2dfeb977efac326af552d87",
                        "v" : "0x1c",
                        "value" : "0x3e996cb5"
                    }
                ],
                "uncleHeaders" : [
                ]
            }
        ],
        "genesisBlockHeader" : {
            "bloom" : "0x00000000000000000000000000000000000000000000000000000000000000000000000000000000000000000000000000000000000000000000000000000000000000000000000000000000000000000000000000000000000000000000000000000000000000000000000000000000000000000000000000000000000000000000000000000000000000000000000000000000000000000000000000000000000000000000000000000000000000000000000000000000000000000000000000000000000000000000000000000000000000000000000000000000000000000000000000000000000000000000000000000000000000000000000000000000",
            "coinbase" : "0x945304eb96065b2a98b57a48a06ae28d285a71b5",
            "difficulty" : "0x020000",
            "extraData" : "0x42",
            "gasLimit" : "0x7fffffffffffffff",
            "gasUsed" : "0x00",
            "hash" : "0x6928120c49af27d0bf94bb3bc8882d877c84db53be732717ad327a15f3770796",
            "mixHash" : "0x56e81f171bcc55a6ff8345e692c0f86e5b48e01b996cadc001622fb5e363b421",
            "nonce" : "0x0102030405060708",
            "number" : "0x00",
            "parentHash" : "0x0000000000000000000000000000000000000000000000000000000000000000",
            "receiptTrie" : "0x56e81f171bcc55a6ff8345e692c0f86e5b48e01b996cadc001622fb5e363b421",
            "stateRoot" : "0xba3937c6cd1c26dcd8269d97aca8327573aeb8780ca67bcaba06dc70a6f21314",
            "timestamp" : "0x03b6",
            "transactionsTrie" : "0x56e81f171bcc55a6ff8345e692c0f86e5b48e01b996cadc001622fb5e363b421",
            "uncleHash" : "0x1dcc4de8dec75d7aab85b567b6ccd41ad312451b948a7413f0a142fd40d49347"
        },
        "genesisRLP" : "0xf901fff901faa00000000000000000000000000000000000000000000000000000000000000000a01dcc4de8dec75d7aab85b567b6ccd41ad312451b948a7413f0a142fd40d4934794945304eb96065b2a98b57a48a06ae28d285a71b5a0ba3937c6cd1c26dcd8269d97aca8327573aeb8780ca67bcaba06dc70a6f21314a056e81f171bcc55a6ff8345e692c0f86e5b48e01b996cadc001622fb5e363b421a056e81f171bcc55a6ff8345e692c0f86e5b48e01b996cadc001622fb5e363b421b90100000000000000000000000000000000000000000000000000000000000000000000000000000000000000000000000000000000000000000000000000000000000000000000000000000000000000000000000000000000000000000000000000000000000000000000000000000000000000000000000000000000000000000000000000000000000000000000000000000000000000000000000000000000000000000000000000000000000000000000000000000000000000000000000000000000000000000000000000000000000000000000000000000000000000000000000000000000000000000000000000000000000000000000000000000000008302000080887fffffffffffffff808203b642a056e81f171bcc55a6ff8345e692c0f86e5b48e01b996cadc001622fb5e363b421880102030405060708c0c0",
        "lastblockhash" : "0xe8fa601caeed3b255933e5c81d29534da3f6bc806b8e4f17d6b9eece0007253b",
        "network" : "Homestead",
        "postState" : {
            "0x095e7baea6a6c7c4c2dfeb977efac326af552d87" : {
                "balance" : "0x3e996cb5",
                "code" : "0x7f000000000000000000000000945304eb96065b2a98b57a48a06ae28d285a71b54343537f000000000000000000000000000000000000000000000000000000000000c350117fffffffffffffffffffffffffffffffffffffffffffffffffffffffffffffffff7f00000000000000000000000000000000000000000000000000000000000000016f34f06a7014541167033909103620f35560005155",
                "nonce" : "0x00",
                "storage" : {
                    "0x01000000000000000000000000000000000000000000000000000000000000" : "0x34f06a7014541167033909103620f355"
                }
            },
            "0x945304eb96065b2a98b57a48a06ae28d285a71b5" : {
                "balance" : "0x4563918244f4b698",
                "code" : "0x6000355415600957005b60203560003555",
                "nonce" : "0x00",
                "storage" : {
                }
            },
            "0xa94f5374fce5edbc8e2a8697c15331677e6ebf0b" : {
                "balance" : "0x0de0b6b368c9dce1",
                "code" : "",
                "nonce" : "0x01",
                "storage" : {
                }
            }
        },
        "pre" : {
            "0x095e7baea6a6c7c4c2dfeb977efac326af552d87" : {
                "balance" : "0x00",
                "code" : "0x7f000000000000000000000000945304eb96065b2a98b57a48a06ae28d285a71b54343537f000000000000000000000000000000000000000000000000000000000000c350117fffffffffffffffffffffffffffffffffffffffffffffffffffffffffffffffff7f00000000000000000000000000000000000000000000000000000000000000016f34f06a7014541167033909103620f35560005155",
                "nonce" : "0x00",
                "storage" : {
                }
            },
            "0x945304eb96065b2a98b57a48a06ae28d285a71b5" : {
                "balance" : "0x2e",
                "code" : "0x6000355415600957005b60203560003555",
                "nonce" : "0x00",
                "storage" : {
                }
            },
            "0xa94f5374fce5edbc8e2a8697c15331677e6ebf0b" : {
                "balance" : "0x0de0b6b3a7640000",
                "code" : "",
                "nonce" : "0x00",
                "storage" : {
                }
            }
        }
    }
}