{
    "randomStatetest425_d0g0v0_EIP150" : {
        "blocks" : [
            {
                "blockHeader" : {
                    "bloom" : "0x00000000000000000000000000000000000000000000000000000000000000000000000000000000000000000000000000000000000000000000000000000000000000000000000000000000000000000000000000000000000000000000000000000000000000000000000000000000000000000000000000000000000000000000000000000000000000000000000000000000000000000000000000000000000000000000000000000000000000000000000000000000000000000000000000000000000000000000000000000000000000000000000000000000000000000000000000000000000000000000000000000000000000000000000000000000",
                    "coinbase" : "0x945304eb96065b2a98b57a48a06ae28d285a71b5",
                    "difficulty" : "0x020000",
                    "extraData" : "",
                    "gasLimit" : "0x7fffffffffffffff",
                    "gasUsed" : "0xadd6",
                    "hash" : "0x14816d40b82e5135d50ffe59645893bf67a11d3988a9bdd4a742386395c21ee3",
                    "mixHash" : "0x6b4fb49e4ea154437fc5644ff175a699e783b823d667fe391e0386c1d6900302",
                    "nonce" : "0x57ccdaef0a45eb89",
                    "number" : "0x01",
                    "parentHash" : "0x6fa797ffff4e3c9c3041561d8de386c5eb17699911fc4d6488de37b6c2160d39",
                    "receiptTrie" : "0xab0b93ac3ed275eb9b033f0ec55bc43c1c6cf17f06c503cc8b6d085d31f821ee",
                    "stateRoot" : "0xb1e428953144338c986d81b58c6cc0c2c788ce6670dd66f202b0be112afafe02",
                    "timestamp" : "0x03e8",
                    "transactionsTrie" : "0x81254926b46348eb4974f173beedc36d6f7f6ee90ce9437ca04ca338b66f70c8",
                    "uncleHash" : "0x1dcc4de8dec75d7aab85b567b6ccd41ad312451b948a7413f0a142fd40d49347"
                },
                "rlp" : "0xf902fff901fca06fa797ffff4e3c9c3041561d8de386c5eb17699911fc4d6488de37b6c2160d39a01dcc4de8dec75d7aab85b567b6ccd41ad312451b948a7413f0a142fd40d4934794945304eb96065b2a98b57a48a06ae28d285a71b5a0b1e428953144338c986d81b58c6cc0c2c788ce6670dd66f202b0be112afafe02a081254926b46348eb4974f173beedc36d6f7f6ee90ce9437ca04ca338b66f70c8a0ab0b93ac3ed275eb9b033f0ec55bc43c1c6cf17f06c503cc8b6d085d31f821eeb90100000000000000000000000000000000000000000000000000000000000000000000000000000000000000000000000000000000000000000000000000000000000000000000000000000000000000000000000000000000000000000000000000000000000000000000000000000000000000000000000000000000000000000000000000000000000000000000000000000000000000000000000000000000000000000000000000000000000000000000000000000000000000000000000000000000000000000000000000000000000000000000000000000000000000000000000000000000000000000000000000000000000000000000000000000000008302000001887fffffffffffffff82add68203e880a06b4fb49e4ea154437fc5644ff175a699e783b823d667fe391e0386c1d69003028857ccdaef0a45eb89f8fdf8fb8001847a57380394095e7baea6a6c7c4c2dfeb977efac326af552d878422371a75b8957f0000000000000000000000010000000000000000000000000000000000000000417f00000000000000000000000000000000000000000000000000000000000000017f000000000000000000000000000000000000000000000000000000000000c3507f000000000000000000000000ffffffffffffffffffffffffffffffffffffffff6f885707818b889a89975552f01284421ba0055933230adbd0765a3a0e40dbb85a663d6ce50fe833c37711702825b33475c1a0139a4a19ee187bef62494f9448e8415e57abd75b88104f33154415b0c47063c0c0",
                "transactions" : [
                    {
                        "data" : "0x7f0000000000000000000000010000000000000000000000000000000000000000417f00000000000000000000000000000000000000000000000000000000000000017f000000000000000000000000000000000000000000000000000000000000c3507f000000000000000000000000ffffffffffffffffffffffffffffffffffffffff6f885707818b889a89975552f0128442",
                        "gasLimit" : "0x7a573803",
                        "gasPrice" : "0x01",
                        "nonce" : "0x00",
                        "r" : "0x055933230adbd0765a3a0e40dbb85a663d6ce50fe833c37711702825b33475c1",
                        "s" : "0x139a4a19ee187bef62494f9448e8415e57abd75b88104f33154415b0c47063c0",
                        "to" : "0x095e7baea6a6c7c4c2dfeb977efac326af552d87",
                        "v" : "0x1b",
                        "value" : "0x22371a75"
                    }
                ],
                "uncleHeaders" : [
                ]
            }
        ],
        "genesisBlockHeader" : {
            "bloom" : "0x00000000000000000000000000000000000000000000000000000000000000000000000000000000000000000000000000000000000000000000000000000000000000000000000000000000000000000000000000000000000000000000000000000000000000000000000000000000000000000000000000000000000000000000000000000000000000000000000000000000000000000000000000000000000000000000000000000000000000000000000000000000000000000000000000000000000000000000000000000000000000000000000000000000000000000000000000000000000000000000000000000000000000000000000000000000",
            "coinbase" : "0x945304eb96065b2a98b57a48a06ae28d285a71b5",
            "difficulty" : "0x020000",
            "extraData" : "0x42",
            "gasLimit" : "0x7fffffffffffffff",
            "gasUsed" : "0x00",
            "hash" : "0x6fa797ffff4e3c9c3041561d8de386c5eb17699911fc4d6488de37b6c2160d39",
            "mixHash" : "0x56e81f171bcc55a6ff8345e692c0f86e5b48e01b996cadc001622fb5e363b421",
            "nonce" : "0x0102030405060708",
            "number" : "0x00",
            "parentHash" : "0x0000000000000000000000000000000000000000000000000000000000000000",
            "receiptTrie" : "0x56e81f171bcc55a6ff8345e692c0f86e5b48e01b996cadc001622fb5e363b421",
            "stateRoot" : "0x9752033d780dec771304e025f4373a8276a9cf5fb9db2bef5c41553e37b71b73",
            "timestamp" : "0x03b6",
            "transactionsTrie" : "0x56e81f171bcc55a6ff8345e692c0f86e5b48e01b996cadc001622fb5e363b421",
            "uncleHash" : "0x1dcc4de8dec75d7aab85b567b6ccd41ad312451b948a7413f0a142fd40d49347"
        },
        "genesisRLP" : "0xf901fff901faa00000000000000000000000000000000000000000000000000000000000000000a01dcc4de8dec75d7aab85b567b6ccd41ad312451b948a7413f0a142fd40d4934794945304eb96065b2a98b57a48a06ae28d285a71b5a09752033d780dec771304e025f4373a8276a9cf5fb9db2bef5c41553e37b71b73a056e81f171bcc55a6ff8345e692c0f86e5b48e01b996cadc001622fb5e363b421a056e81f171bcc55a6ff8345e692c0f86e5b48e01b996cadc001622fb5e363b421b90100000000000000000000000000000000000000000000000000000000000000000000000000000000000000000000000000000000000000000000000000000000000000000000000000000000000000000000000000000000000000000000000000000000000000000000000000000000000000000000000000000000000000000000000000000000000000000000000000000000000000000000000000000000000000000000000000000000000000000000000000000000000000000000000000000000000000000000000000000000000000000000000000000000000000000000000000000000000000000000000000000000000000000000000000000000008302000080887fffffffffffffff808203b642a056e81f171bcc55a6ff8345e692c0f86e5b48e01b996cadc001622fb5e363b421880102030405060708c0c0",
        "lastblockhash" : "0x14816d40b82e5135d50ffe59645893bf67a11d3988a9bdd4a742386395c21ee3",
        "network" : "EIP150",
        "postState" : {
            "0x095e7baea6a6c7c4c2dfeb977efac326af552d87" : {
                "balance" : "0x22371a75",
                "code" : "0x7f0000000000000000000000010000000000000000000000000000000000000000417f00000000000000000000000000000000000000000000000000000000000000017f000000000000000000000000000000000000000000000000000000000000c3507f000000000000000000000000ffffffffffffffffffffffffffffffffffffffff6f885707818b889a89975552f01284425560005155",
                "nonce" : "0x00",
                "storage" : {
                    "0x00" : "0x885707818b889a89975552f012844255"
                }
            },
            "0x945304eb96065b2a98b57a48a06ae28d285a71b5" : {
                "balance" : "0x4563918244f4ae04",
                "code" : "0x6000355415600957005b60203560003555",
                "nonce" : "0x00",
                "storage" : {
                }
            },
            "0xa94f5374fce5edbc8e2a8697c15331677e6ebf0b" : {
                "balance" : "0x0de0b6b3852c37b5",
                "code" : "",
                "nonce" : "0x01",
                "storage" : {
                }
            }
        },
        "pre" : {
            "0x095e7baea6a6c7c4c2dfeb977efac326af552d87" : {
                "balance" : "0x00",
                "code" : "0x7f0000000000000000000000010000000000000000000000000000000000000000417f00000000000000000000000000000000000000000000000000000000000000017f000000000000000000000000000000000000000000000000000000000000c3507f000000000000000000000000ffffffffffffffffffffffffffffffffffffffff6f885707818b889a89975552f01284425560005155",
                "nonce" : "0x00",
                "storage" : {
                }
            },
            "0x945304eb96065b2a98b57a48a06ae28d285a71b5" : {
                "balance" : "0x2e",
                "code" : "0x6000355415600957005b60203560003555",
                "nonce" : "0x00",
                "storage" : {
                }
            },
            "0xa94f5374fce5edbc8e2a8697c15331677e6ebf0b" : {
                "balance" : "0x0de0b6b3a7640000",
                "code" : "",
                "nonce" : "0x00",
                "storage" : {
                }
            }
        }
    },
    "randomStatetest425_d0g0v0_EIP158" : {
        "blocks" : [
            {
                "blockHeader" : {
                    "bloom" : "0x00000000000000000000000000000000000000000000000000000000000000000000000000000000000000000000000000000000000000000000000000000000000000000000000000000000000000000000000000000000000000000000000000000000000000000000000000000000000000000000000000000000000000000000000000000000000000000000000000000000000000000000000000000000000000000000000000000000000000000000000000000000000000000000000000000000000000000000000000000000000000000000000000000000000000000000000000000000000000000000000000000000000000000000000000000000",
                    "coinbase" : "0x945304eb96065b2a98b57a48a06ae28d285a71b5",
                    "difficulty" : "0x020000",
                    "extraData" : "",
                    "gasLimit" : "0x7fffffffffffffff",
                    "gasUsed" : "0xadd6",
                    "hash" : "0x0e023c15f6d00d7f8be6c906011033f1e82644591a12fb9ebe2bedcdf3d768fa",
                    "mixHash" : "0x0891e6ca8c8da30734dfc04ef04c110bb715415c43f488767fa65bf32e561f70",
                    "nonce" : "0xec9b3e03f835aa32",
                    "number" : "0x01",
                    "parentHash" : "0x6fa797ffff4e3c9c3041561d8de386c5eb17699911fc4d6488de37b6c2160d39",
                    "receiptTrie" : "0xab0b93ac3ed275eb9b033f0ec55bc43c1c6cf17f06c503cc8b6d085d31f821ee",
                    "stateRoot" : "0xb1e428953144338c986d81b58c6cc0c2c788ce6670dd66f202b0be112afafe02",
                    "timestamp" : "0x03e8",
                    "transactionsTrie" : "0x81254926b46348eb4974f173beedc36d6f7f6ee90ce9437ca04ca338b66f70c8",
                    "uncleHash" : "0x1dcc4de8dec75d7aab85b567b6ccd41ad312451b948a7413f0a142fd40d49347"
                },
                "rlp" : "0xf902fff901fca06fa797ffff4e3c9c3041561d8de386c5eb17699911fc4d6488de37b6c2160d39a01dcc4de8dec75d7aab85b567b6ccd41ad312451b948a7413f0a142fd40d4934794945304eb96065b2a98b57a48a06ae28d285a71b5a0b1e428953144338c986d81b58c6cc0c2c788ce6670dd66f202b0be112afafe02a081254926b46348eb4974f173beedc36d6f7f6ee90ce9437ca04ca338b66f70c8a0ab0b93ac3ed275eb9b033f0ec55bc43c1c6cf17f06c503cc8b6d085d31f821eeb90100000000000000000000000000000000000000000000000000000000000000000000000000000000000000000000000000000000000000000000000000000000000000000000000000000000000000000000000000000000000000000000000000000000000000000000000000000000000000000000000000000000000000000000000000000000000000000000000000000000000000000000000000000000000000000000000000000000000000000000000000000000000000000000000000000000000000000000000000000000000000000000000000000000000000000000000000000000000000000000000000000000000000000000000000000000008302000001887fffffffffffffff82add68203e880a00891e6ca8c8da30734dfc04ef04c110bb715415c43f488767fa65bf32e561f7088ec9b3e03f835aa32f8fdf8fb8001847a57380394095e7baea6a6c7c4c2dfeb977efac326af552d878422371a75b8957f0000000000000000000000010000000000000000000000000000000000000000417f00000000000000000000000000000000000000000000000000000000000000017f000000000000000000000000000000000000000000000000000000000000c3507f000000000000000000000000ffffffffffffffffffffffffffffffffffffffff6f885707818b889a89975552f01284421ba0055933230adbd0765a3a0e40dbb85a663d6ce50fe833c37711702825b33475c1a0139a4a19ee187bef62494f9448e8415e57abd75b88104f33154415b0c47063c0c0",
                "transactions" : [
                    {
                        "data" : "0x7f0000000000000000000000010000000000000000000000000000000000000000417f00000000000000000000000000000000000000000000000000000000000000017f000000000000000000000000000000000000000000000000000000000000c3507f000000000000000000000000ffffffffffffffffffffffffffffffffffffffff6f885707818b889a89975552f0128442",
                        "gasLimit" : "0x7a573803",
                        "gasPrice" : "0x01",
                        "nonce" : "0x00",
                        "r" : "0x055933230adbd0765a3a0e40dbb85a663d6ce50fe833c37711702825b33475c1",
                        "s" : "0x139a4a19ee187bef62494f9448e8415e57abd75b88104f33154415b0c47063c0",
                        "to" : "0x095e7baea6a6c7c4c2dfeb977efac326af552d87",
                        "v" : "0x1b",
                        "value" : "0x22371a75"
                    }
                ],
                "uncleHeaders" : [
                ]
            }
        ],
        "genesisBlockHeader" : {
            "bloom" : "0x00000000000000000000000000000000000000000000000000000000000000000000000000000000000000000000000000000000000000000000000000000000000000000000000000000000000000000000000000000000000000000000000000000000000000000000000000000000000000000000000000000000000000000000000000000000000000000000000000000000000000000000000000000000000000000000000000000000000000000000000000000000000000000000000000000000000000000000000000000000000000000000000000000000000000000000000000000000000000000000000000000000000000000000000000000000",
            "coinbase" : "0x945304eb96065b2a98b57a48a06ae28d285a71b5",
            "difficulty" : "0x020000",
            "extraData" : "0x42",
            "gasLimit" : "0x7fffffffffffffff",
            "gasUsed" : "0x00",
            "hash" : "0x6fa797ffff4e3c9c3041561d8de386c5eb17699911fc4d6488de37b6c2160d39",
            "mixHash" : "0x56e81f171bcc55a6ff8345e692c0f86e5b48e01b996cadc001622fb5e363b421",
            "nonce" : "0x0102030405060708",
            "number" : "0x00",
            "parentHash" : "0x0000000000000000000000000000000000000000000000000000000000000000",
            "receiptTrie" : "0x56e81f171bcc55a6ff8345e692c0f86e5b48e01b996cadc001622fb5e363b421",
            "stateRoot" : "0x9752033d780dec771304e025f4373a8276a9cf5fb9db2bef5c41553e37b71b73",
            "timestamp" : "0x03b6",
            "transactionsTrie" : "0x56e81f171bcc55a6ff8345e692c0f86e5b48e01b996cadc001622fb5e363b421",
            "uncleHash" : "0x1dcc4de8dec75d7aab85b567b6ccd41ad312451b948a7413f0a142fd40d49347"
        },
        "genesisRLP" : "0xf901fff901faa00000000000000000000000000000000000000000000000000000000000000000a01dcc4de8dec75d7aab85b567b6ccd41ad312451b948a7413f0a142fd40d4934794945304eb96065b2a98b57a48a06ae28d285a71b5a09752033d780dec771304e025f4373a8276a9cf5fb9db2bef5c41553e37b71b73a056e81f171bcc55a6ff8345e692c0f86e5b48e01b996cadc001622fb5e363b421a056e81f171bcc55a6ff8345e692c0f86e5b48e01b996cadc001622fb5e363b421b90100000000000000000000000000000000000000000000000000000000000000000000000000000000000000000000000000000000000000000000000000000000000000000000000000000000000000000000000000000000000000000000000000000000000000000000000000000000000000000000000000000000000000000000000000000000000000000000000000000000000000000000000000000000000000000000000000000000000000000000000000000000000000000000000000000000000000000000000000000000000000000000000000000000000000000000000000000000000000000000000000000000000000000000000000000000008302000080887fffffffffffffff808203b642a056e81f171bcc55a6ff8345e692c0f86e5b48e01b996cadc001622fb5e363b421880102030405060708c0c0",
        "lastblockhash" : "0x0e023c15f6d00d7f8be6c906011033f1e82644591a12fb9ebe2bedcdf3d768fa",
        "network" : "EIP158",
        "postState" : {
            "0x095e7baea6a6c7c4c2dfeb977efac326af552d87" : {
                "balance" : "0x22371a75",
                "code" : "0x7f0000000000000000000000010000000000000000000000000000000000000000417f00000000000000000000000000000000000000000000000000000000000000017f000000000000000000000000000000000000000000000000000000000000c3507f000000000000000000000000ffffffffffffffffffffffffffffffffffffffff6f885707818b889a89975552f01284425560005155",
                "nonce" : "0x00",
                "storage" : {
                    "0x00" : "0x885707818b889a89975552f012844255"
                }
            },
            "0x945304eb96065b2a98b57a48a06ae28d285a71b5" : {
                "balance" : "0x4563918244f4ae04",
                "code" : "0x6000355415600957005b60203560003555",
                "nonce" : "0x00",
                "storage" : {
                }
            },
            "0xa94f5374fce5edbc8e2a8697c15331677e6ebf0b" : {
                "balance" : "0x0de0b6b3852c37b5",
                "code" : "",
                "nonce" : "0x01",
                "storage" : {
                }
            }
        },
        "pre" : {
            "0x095e7baea6a6c7c4c2dfeb977efac326af552d87" : {
                "balance" : "0x00",
                "code" : "0x7f0000000000000000000000010000000000000000000000000000000000000000417f00000000000000000000000000000000000000000000000000000000000000017f000000000000000000000000000000000000000000000000000000000000c3507f000000000000000000000000ffffffffffffffffffffffffffffffffffffffff6f885707818b889a89975552f01284425560005155",
                "nonce" : "0x00",
                "storage" : {
                }
            },
            "0x945304eb96065b2a98b57a48a06ae28d285a71b5" : {
                "balance" : "0x2e",
                "code" : "0x6000355415600957005b60203560003555",
                "nonce" : "0x00",
                "storage" : {
                }
            },
            "0xa94f5374fce5edbc8e2a8697c15331677e6ebf0b" : {
                "balance" : "0x0de0b6b3a7640000",
                "code" : "",
                "nonce" : "0x00",
                "storage" : {
                }
            }
        }
    },
    "randomStatetest425_d0g0v0_Frontier" : {
        "blocks" : [
            {
                "blockHeader" : {
                    "bloom" : "0x00000000000000000000000000000000000000000000000000000000000000000000000000000000000000000000000000000000000000000000000000000000000000000000000000000000000000000000000000000000000000000000000000000000000000000000000000000000000000000000000000000000000000000000000000000000000000000000000000000000000000000000000000000000000000000000000000000000000000000000000000000000000000000000000000000000000000000000000000000000000000000000000000000000000000000000000000000000000000000000000000000000000000000000000000000000",
                    "coinbase" : "0x945304eb96065b2a98b57a48a06ae28d285a71b5",
                    "difficulty" : "0x020000",
                    "extraData" : "",
                    "gasLimit" : "0x7fffffffffffffff",
                    "gasUsed" : "0xadd6",
                    "hash" : "0xfa8674f27e37572e1a6d007ef6dae527fb51f5604cb5b65f05f5bcb5bf015e47",
                    "mixHash" : "0x51c6bc55139297d15a420278fd04fc92d511ad2b15768eddb6a8af4447252f5f",
                    "nonce" : "0x118929f4450982ce",
                    "number" : "0x01",
                    "parentHash" : "0x6fa797ffff4e3c9c3041561d8de386c5eb17699911fc4d6488de37b6c2160d39",
                    "receiptTrie" : "0xab0b93ac3ed275eb9b033f0ec55bc43c1c6cf17f06c503cc8b6d085d31f821ee",
                    "stateRoot" : "0xb1e428953144338c986d81b58c6cc0c2c788ce6670dd66f202b0be112afafe02",
                    "timestamp" : "0x03e8",
                    "transactionsTrie" : "0x81254926b46348eb4974f173beedc36d6f7f6ee90ce9437ca04ca338b66f70c8",
                    "uncleHash" : "0x1dcc4de8dec75d7aab85b567b6ccd41ad312451b948a7413f0a142fd40d49347"
                },
                "rlp" : "0xf902fff901fca06fa797ffff4e3c9c3041561d8de386c5eb17699911fc4d6488de37b6c2160d39a01dcc4de8dec75d7aab85b567b6ccd41ad312451b948a7413f0a142fd40d4934794945304eb96065b2a98b57a48a06ae28d285a71b5a0b1e428953144338c986d81b58c6cc0c2c788ce6670dd66f202b0be112afafe02a081254926b46348eb4974f173beedc36d6f7f6ee90ce9437ca04ca338b66f70c8a0ab0b93ac3ed275eb9b033f0ec55bc43c1c6cf17f06c503cc8b6d085d31f821eeb90100000000000000000000000000000000000000000000000000000000000000000000000000000000000000000000000000000000000000000000000000000000000000000000000000000000000000000000000000000000000000000000000000000000000000000000000000000000000000000000000000000000000000000000000000000000000000000000000000000000000000000000000000000000000000000000000000000000000000000000000000000000000000000000000000000000000000000000000000000000000000000000000000000000000000000000000000000000000000000000000000000000000000000000000000000000008302000001887fffffffffffffff82add68203e880a051c6bc55139297d15a420278fd04fc92d511ad2b15768eddb6a8af4447252f5f88118929f4450982cef8fdf8fb8001847a57380394095e7baea6a6c7c4c2dfeb977efac326af552d878422371a75b8957f0000000000000000000000010000000000000000000000000000000000000000417f00000000000000000000000000000000000000000000000000000000000000017f000000000000000000000000000000000000000000000000000000000000c3507f000000000000000000000000ffffffffffffffffffffffffffffffffffffffff6f885707818b889a89975552f01284421ba0055933230adbd0765a3a0e40dbb85a663d6ce50fe833c37711702825b33475c1a0139a4a19ee187bef62494f9448e8415e57abd75b88104f33154415b0c47063c0c0",
                "transactions" : [
                    {
                        "data" : "0x7f0000000000000000000000010000000000000000000000000000000000000000417f00000000000000000000000000000000000000000000000000000000000000017f000000000000000000000000000000000000000000000000000000000000c3507f000000000000000000000000ffffffffffffffffffffffffffffffffffffffff6f885707818b889a89975552f0128442",
                        "gasLimit" : "0x7a573803",
                        "gasPrice" : "0x01",
                        "nonce" : "0x00",
                        "r" : "0x055933230adbd0765a3a0e40dbb85a663d6ce50fe833c37711702825b33475c1",
                        "s" : "0x139a4a19ee187bef62494f9448e8415e57abd75b88104f33154415b0c47063c0",
                        "to" : "0x095e7baea6a6c7c4c2dfeb977efac326af552d87",
                        "v" : "0x1b",
                        "value" : "0x22371a75"
                    }
                ],
                "uncleHeaders" : [
                ]
            }
        ],
        "genesisBlockHeader" : {
            "bloom" : "0x00000000000000000000000000000000000000000000000000000000000000000000000000000000000000000000000000000000000000000000000000000000000000000000000000000000000000000000000000000000000000000000000000000000000000000000000000000000000000000000000000000000000000000000000000000000000000000000000000000000000000000000000000000000000000000000000000000000000000000000000000000000000000000000000000000000000000000000000000000000000000000000000000000000000000000000000000000000000000000000000000000000000000000000000000000000",
            "coinbase" : "0x945304eb96065b2a98b57a48a06ae28d285a71b5",
            "difficulty" : "0x020000",
            "extraData" : "0x42",
            "gasLimit" : "0x7fffffffffffffff",
            "gasUsed" : "0x00",
            "hash" : "0x6fa797ffff4e3c9c3041561d8de386c5eb17699911fc4d6488de37b6c2160d39",
            "mixHash" : "0x56e81f171bcc55a6ff8345e692c0f86e5b48e01b996cadc001622fb5e363b421",
            "nonce" : "0x0102030405060708",
            "number" : "0x00",
            "parentHash" : "0x0000000000000000000000000000000000000000000000000000000000000000",
            "receiptTrie" : "0x56e81f171bcc55a6ff8345e692c0f86e5b48e01b996cadc001622fb5e363b421",
            "stateRoot" : "0x9752033d780dec771304e025f4373a8276a9cf5fb9db2bef5c41553e37b71b73",
            "timestamp" : "0x03b6",
            "transactionsTrie" : "0x56e81f171bcc55a6ff8345e692c0f86e5b48e01b996cadc001622fb5e363b421",
            "uncleHash" : "0x1dcc4de8dec75d7aab85b567b6ccd41ad312451b948a7413f0a142fd40d49347"
        },
        "genesisRLP" : "0xf901fff901faa00000000000000000000000000000000000000000000000000000000000000000a01dcc4de8dec75d7aab85b567b6ccd41ad312451b948a7413f0a142fd40d4934794945304eb96065b2a98b57a48a06ae28d285a71b5a09752033d780dec771304e025f4373a8276a9cf5fb9db2bef5c41553e37b71b73a056e81f171bcc55a6ff8345e692c0f86e5b48e01b996cadc001622fb5e363b421a056e81f171bcc55a6ff8345e692c0f86e5b48e01b996cadc001622fb5e363b421b90100000000000000000000000000000000000000000000000000000000000000000000000000000000000000000000000000000000000000000000000000000000000000000000000000000000000000000000000000000000000000000000000000000000000000000000000000000000000000000000000000000000000000000000000000000000000000000000000000000000000000000000000000000000000000000000000000000000000000000000000000000000000000000000000000000000000000000000000000000000000000000000000000000000000000000000000000000000000000000000000000000000000000000000000000000000008302000080887fffffffffffffff808203b642a056e81f171bcc55a6ff8345e692c0f86e5b48e01b996cadc001622fb5e363b421880102030405060708c0c0",
        "lastblockhash" : "0xfa8674f27e37572e1a6d007ef6dae527fb51f5604cb5b65f05f5bcb5bf015e47",
        "network" : "Frontier",
        "postState" : {
            "0x095e7baea6a6c7c4c2dfeb977efac326af552d87" : {
                "balance" : "0x22371a75",
                "code" : "0x7f0000000000000000000000010000000000000000000000000000000000000000417f00000000000000000000000000000000000000000000000000000000000000017f000000000000000000000000000000000000000000000000000000000000c3507f000000000000000000000000ffffffffffffffffffffffffffffffffffffffff6f885707818b889a89975552f01284425560005155",
                "nonce" : "0x00",
                "storage" : {
                    "0x00" : "0x885707818b889a89975552f012844255"
                }
            },
            "0x945304eb96065b2a98b57a48a06ae28d285a71b5" : {
                "balance" : "0x4563918244f4ae04",
                "code" : "0x6000355415600957005b60203560003555",
                "nonce" : "0x00",
                "storage" : {
                }
            },
            "0xa94f5374fce5edbc8e2a8697c15331677e6ebf0b" : {
                "balance" : "0x0de0b6b3852c37b5",
                "code" : "",
                "nonce" : "0x01",
                "storage" : {
                }
            }
        },
        "pre" : {
            "0x095e7baea6a6c7c4c2dfeb977efac326af552d87" : {
                "balance" : "0x00",
                "code" : "0x7f0000000000000000000000010000000000000000000000000000000000000000417f00000000000000000000000000000000000000000000000000000000000000017f000000000000000000000000000000000000000000000000000000000000c3507f000000000000000000000000ffffffffffffffffffffffffffffffffffffffff6f885707818b889a89975552f01284425560005155",
                "nonce" : "0x00",
                "storage" : {
                }
            },
            "0x945304eb96065b2a98b57a48a06ae28d285a71b5" : {
                "balance" : "0x2e",
                "code" : "0x6000355415600957005b60203560003555",
                "nonce" : "0x00",
                "storage" : {
                }
            },
            "0xa94f5374fce5edbc8e2a8697c15331677e6ebf0b" : {
                "balance" : "0x0de0b6b3a7640000",
                "code" : "",
                "nonce" : "0x00",
                "storage" : {
                }
            }
        }
    },
    "randomStatetest425_d0g0v0_Homestead" : {
        "blocks" : [
            {
                "blockHeader" : {
                    "bloom" : "0x00000000000000000000000000000000000000000000000000000000000000000000000000000000000000000000000000000000000000000000000000000000000000000000000000000000000000000000000000000000000000000000000000000000000000000000000000000000000000000000000000000000000000000000000000000000000000000000000000000000000000000000000000000000000000000000000000000000000000000000000000000000000000000000000000000000000000000000000000000000000000000000000000000000000000000000000000000000000000000000000000000000000000000000000000000000",
                    "coinbase" : "0x945304eb96065b2a98b57a48a06ae28d285a71b5",
                    "difficulty" : "0x020000",
                    "extraData" : "",
                    "gasLimit" : "0x7fffffffffffffff",
                    "gasUsed" : "0xadd6",
                    "hash" : "0xe0c26bbe55334d6e7bad5a1011055cb8e9d5e3cd714bb6cd5fceaef458e27c7f",
                    "mixHash" : "0x4a88135681c45bd45d946a6fa86ccf37cd38b40c72817ff3a53d03ac741b8891",
                    "nonce" : "0x20a1c4d6592931fc",
                    "number" : "0x01",
                    "parentHash" : "0x6fa797ffff4e3c9c3041561d8de386c5eb17699911fc4d6488de37b6c2160d39",
                    "receiptTrie" : "0xab0b93ac3ed275eb9b033f0ec55bc43c1c6cf17f06c503cc8b6d085d31f821ee",
                    "stateRoot" : "0xb1e428953144338c986d81b58c6cc0c2c788ce6670dd66f202b0be112afafe02",
                    "timestamp" : "0x03e8",
                    "transactionsTrie" : "0x81254926b46348eb4974f173beedc36d6f7f6ee90ce9437ca04ca338b66f70c8",
                    "uncleHash" : "0x1dcc4de8dec75d7aab85b567b6ccd41ad312451b948a7413f0a142fd40d49347"
                },
                "rlp" : "0xf902fff901fca06fa797ffff4e3c9c3041561d8de386c5eb17699911fc4d6488de37b6c2160d39a01dcc4de8dec75d7aab85b567b6ccd41ad312451b948a7413f0a142fd40d4934794945304eb96065b2a98b57a48a06ae28d285a71b5a0b1e428953144338c986d81b58c6cc0c2c788ce6670dd66f202b0be112afafe02a081254926b46348eb4974f173beedc36d6f7f6ee90ce9437ca04ca338b66f70c8a0ab0b93ac3ed275eb9b033f0ec55bc43c1c6cf17f06c503cc8b6d085d31f821eeb90100000000000000000000000000000000000000000000000000000000000000000000000000000000000000000000000000000000000000000000000000000000000000000000000000000000000000000000000000000000000000000000000000000000000000000000000000000000000000000000000000000000000000000000000000000000000000000000000000000000000000000000000000000000000000000000000000000000000000000000000000000000000000000000000000000000000000000000000000000000000000000000000000000000000000000000000000000000000000000000000000000000000000000000000000000000008302000001887fffffffffffffff82add68203e880a04a88135681c45bd45d946a6fa86ccf37cd38b40c72817ff3a53d03ac741b88918820a1c4d6592931fcf8fdf8fb8001847a57380394095e7baea6a6c7c4c2dfeb977efac326af552d878422371a75b8957f0000000000000000000000010000000000000000000000000000000000000000417f00000000000000000000000000000000000000000000000000000000000000017f000000000000000000000000000000000000000000000000000000000000c3507f000000000000000000000000ffffffffffffffffffffffffffffffffffffffff6f885707818b889a89975552f01284421ba0055933230adbd0765a3a0e40dbb85a663d6ce50fe833c37711702825b33475c1a0139a4a19ee187bef62494f9448e8415e57abd75b88104f33154415b0c47063c0c0",
                "transactions" : [
                    {
                        "data" : "0x7f0000000000000000000000010000000000000000000000000000000000000000417f00000000000000000000000000000000000000000000000000000000000000017f000000000000000000000000000000000000000000000000000000000000c3507f000000000000000000000000ffffffffffffffffffffffffffffffffffffffff6f885707818b889a89975552f0128442",
                        "gasLimit" : "0x7a573803",
                        "gasPrice" : "0x01",
                        "nonce" : "0x00",
                        "r" : "0x055933230adbd0765a3a0e40dbb85a663d6ce50fe833c37711702825b33475c1",
                        "s" : "0x139a4a19ee187bef62494f9448e8415e57abd75b88104f33154415b0c47063c0",
                        "to" : "0x095e7baea6a6c7c4c2dfeb977efac326af552d87",
                        "v" : "0x1b",
                        "value" : "0x22371a75"
                    }
                ],
                "uncleHeaders" : [
                ]
            }
        ],
        "genesisBlockHeader" : {
            "bloom" : "0x00000000000000000000000000000000000000000000000000000000000000000000000000000000000000000000000000000000000000000000000000000000000000000000000000000000000000000000000000000000000000000000000000000000000000000000000000000000000000000000000000000000000000000000000000000000000000000000000000000000000000000000000000000000000000000000000000000000000000000000000000000000000000000000000000000000000000000000000000000000000000000000000000000000000000000000000000000000000000000000000000000000000000000000000000000000",
            "coinbase" : "0x945304eb96065b2a98b57a48a06ae28d285a71b5",
            "difficulty" : "0x020000",
            "extraData" : "0x42",
            "gasLimit" : "0x7fffffffffffffff",
            "gasUsed" : "0x00",
            "hash" : "0x6fa797ffff4e3c9c3041561d8de386c5eb17699911fc4d6488de37b6c2160d39",
            "mixHash" : "0x56e81f171bcc55a6ff8345e692c0f86e5b48e01b996cadc001622fb5e363b421",
            "nonce" : "0x0102030405060708",
            "number" : "0x00",
            "parentHash" : "0x0000000000000000000000000000000000000000000000000000000000000000",
            "receiptTrie" : "0x56e81f171bcc55a6ff8345e692c0f86e5b48e01b996cadc001622fb5e363b421",
            "stateRoot" : "0x9752033d780dec771304e025f4373a8276a9cf5fb9db2bef5c41553e37b71b73",
            "timestamp" : "0x03b6",
            "transactionsTrie" : "0x56e81f171bcc55a6ff8345e692c0f86e5b48e01b996cadc001622fb5e363b421",
            "uncleHash" : "0x1dcc4de8dec75d7aab85b567b6ccd41ad312451b948a7413f0a142fd40d49347"
        },
        "genesisRLP" : "0xf901fff901faa00000000000000000000000000000000000000000000000000000000000000000a01dcc4de8dec75d7aab85b567b6ccd41ad312451b948a7413f0a142fd40d4934794945304eb96065b2a98b57a48a06ae28d285a71b5a09752033d780dec771304e025f4373a8276a9cf5fb9db2bef5c41553e37b71b73a056e81f171bcc55a6ff8345e692c0f86e5b48e01b996cadc001622fb5e363b421a056e81f171bcc55a6ff8345e692c0f86e5b48e01b996cadc001622fb5e363b421b90100000000000000000000000000000000000000000000000000000000000000000000000000000000000000000000000000000000000000000000000000000000000000000000000000000000000000000000000000000000000000000000000000000000000000000000000000000000000000000000000000000000000000000000000000000000000000000000000000000000000000000000000000000000000000000000000000000000000000000000000000000000000000000000000000000000000000000000000000000000000000000000000000000000000000000000000000000000000000000000000000000000000000000000000000000000008302000080887fffffffffffffff808203b642a056e81f171bcc55a6ff8345e692c0f86e5b48e01b996cadc001622fb5e363b421880102030405060708c0c0",
        "lastblockhash" : "0xe0c26bbe55334d6e7bad5a1011055cb8e9d5e3cd714bb6cd5fceaef458e27c7f",
        "network" : "Homestead",
        "postState" : {
            "0x095e7baea6a6c7c4c2dfeb977efac326af552d87" : {
                "balance" : "0x22371a75",
                "code" : "0x7f0000000000000000000000010000000000000000000000000000000000000000417f00000000000000000000000000000000000000000000000000000000000000017f000000000000000000000000000000000000000000000000000000000000c3507f000000000000000000000000ffffffffffffffffffffffffffffffffffffffff6f885707818b889a89975552f01284425560005155",
                "nonce" : "0x00",
                "storage" : {
                    "0x00" : "0x885707818b889a89975552f012844255"
                }
            },
            "0x945304eb96065b2a98b57a48a06ae28d285a71b5" : {
                "balance" : "0x4563918244f4ae04",
                "code" : "0x6000355415600957005b60203560003555",
                "nonce" : "0x00",
                "storage" : {
                }
            },
            "0xa94f5374fce5edbc8e2a8697c15331677e6ebf0b" : {
                "balance" : "0x0de0b6b3852c37b5",
                "code" : "",
                "nonce" : "0x01",
                "storage" : {
                }
            }
        },
        "pre" : {
            "0x095e7baea6a6c7c4c2dfeb977efac326af552d87" : {
                "balance" : "0x00",
                "code" : "0x7f0000000000000000000000010000000000000000000000000000000000000000417f00000000000000000000000000000000000000000000000000000000000000017f000000000000000000000000000000000000000000000000000000000000c3507f000000000000000000000000ffffffffffffffffffffffffffffffffffffffff6f885707818b889a89975552f01284425560005155",
                "nonce" : "0x00",
                "storage" : {
                }
            },
            "0x945304eb96065b2a98b57a48a06ae28d285a71b5" : {
                "balance" : "0x2e",
                "code" : "0x6000355415600957005b60203560003555",
                "nonce" : "0x00",
                "storage" : {
                }
            },
            "0xa94f5374fce5edbc8e2a8697c15331677e6ebf0b" : {
                "balance" : "0x0de0b6b3a7640000",
                "code" : "",
                "nonce" : "0x00",
                "storage" : {
                }
            }
        }
    },
    "randomStatetest425_d0g0v0_Metropolis" : {
        "blocks" : [
            {
                "blockHeader" : {
                    "bloom" : "0x00000000000000000000000000000000000000000000000000000000000000000000000000000000000000000000000000000000000000000000000000000000000000000000000000000000000000000000000000000000000000000000000000000000000000000000000000000000000000000000000000000000000000000000000000000000000000000000000000000000000000000000000000000000000000000000000000000000000000000000000000000000000000000000000000000000000000000000000000000000000000000000000000000000000000000000000000000000000000000000000000000000000000000000000000000000",
                    "coinbase" : "0x945304eb96065b2a98b57a48a06ae28d285a71b5",
                    "difficulty" : "0x020000",
                    "extraData" : "",
                    "gasLimit" : "0x7fffffffffffffff",
                    "gasUsed" : "0xadd6",
                    "hash" : "0xd0a253fa4b3a202473d686279a202852a8062d68477abd18ac611c02306a1c6d",
                    "mixHash" : "0x6085671d6a4649a51519a1a20e5c22f4ba689c17d59e6603a0f77995de5ba93a",
                    "nonce" : "0x86b476135f491f03",
                    "number" : "0x01",
                    "parentHash" : "0x6fa797ffff4e3c9c3041561d8de386c5eb17699911fc4d6488de37b6c2160d39",
                    "receiptTrie" : "0x8ea27dfbb0d8de03892f507c485ddf39c0d5c111b2af6bf6e76ea2df27b5cea5",
                    "stateRoot" : "0x010be46a2a7d5261084acae2ba06f4d5634924362dfdb0ea7f399140a2b3e493",
                    "timestamp" : "0x03e8",
                    "transactionsTrie" : "0x81254926b46348eb4974f173beedc36d6f7f6ee90ce9437ca04ca338b66f70c8",
                    "uncleHash" : "0x1dcc4de8dec75d7aab85b567b6ccd41ad312451b948a7413f0a142fd40d49347"
                },
                "rlp" : "0xf902fff901fca06fa797ffff4e3c9c3041561d8de386c5eb17699911fc4d6488de37b6c2160d39a01dcc4de8dec75d7aab85b567b6ccd41ad312451b948a7413f0a142fd40d4934794945304eb96065b2a98b57a48a06ae28d285a71b5a0010be46a2a7d5261084acae2ba06f4d5634924362dfdb0ea7f399140a2b3e493a081254926b46348eb4974f173beedc36d6f7f6ee90ce9437ca04ca338b66f70c8a08ea27dfbb0d8de03892f507c485ddf39c0d5c111b2af6bf6e76ea2df27b5cea5b90100000000000000000000000000000000000000000000000000000000000000000000000000000000000000000000000000000000000000000000000000000000000000000000000000000000000000000000000000000000000000000000000000000000000000000000000000000000000000000000000000000000000000000000000000000000000000000000000000000000000000000000000000000000000000000000000000000000000000000000000000000000000000000000000000000000000000000000000000000000000000000000000000000000000000000000000000000000000000000000000000000000000000000000000000000000008302000001887fffffffffffffff82add68203e880a06085671d6a4649a51519a1a20e5c22f4ba689c17d59e6603a0f77995de5ba93a8886b476135f491f03f8fdf8fb8001847a57380394095e7baea6a6c7c4c2dfeb977efac326af552d878422371a75b8957f0000000000000000000000010000000000000000000000000000000000000000417f00000000000000000000000000000000000000000000000000000000000000017f000000000000000000000000000000000000000000000000000000000000c3507f000000000000000000000000ffffffffffffffffffffffffffffffffffffffff6f885707818b889a89975552f01284421ba0055933230adbd0765a3a0e40dbb85a663d6ce50fe833c37711702825b33475c1a0139a4a19ee187bef62494f9448e8415e57abd75b88104f33154415b0c47063c0c0",
                "transactions" : [
                    {
                        "data" : "0x7f0000000000000000000000010000000000000000000000000000000000000000417f00000000000000000000000000000000000000000000000000000000000000017f000000000000000000000000000000000000000000000000000000000000c3507f000000000000000000000000ffffffffffffffffffffffffffffffffffffffff6f885707818b889a89975552f0128442",
                        "gasLimit" : "0x7a573803",
                        "gasPrice" : "0x01",
                        "nonce" : "0x00",
                        "r" : "0x055933230adbd0765a3a0e40dbb85a663d6ce50fe833c37711702825b33475c1",
                        "s" : "0x139a4a19ee187bef62494f9448e8415e57abd75b88104f33154415b0c47063c0",
                        "to" : "0x095e7baea6a6c7c4c2dfeb977efac326af552d87",
                        "v" : "0x1b",
                        "value" : "0x22371a75"
                    }
                ],
                "uncleHeaders" : [
                ]
            }
        ],
        "genesisBlockHeader" : {
            "bloom" : "0x00000000000000000000000000000000000000000000000000000000000000000000000000000000000000000000000000000000000000000000000000000000000000000000000000000000000000000000000000000000000000000000000000000000000000000000000000000000000000000000000000000000000000000000000000000000000000000000000000000000000000000000000000000000000000000000000000000000000000000000000000000000000000000000000000000000000000000000000000000000000000000000000000000000000000000000000000000000000000000000000000000000000000000000000000000000",
            "coinbase" : "0x945304eb96065b2a98b57a48a06ae28d285a71b5",
            "difficulty" : "0x020000",
            "extraData" : "0x42",
            "gasLimit" : "0x7fffffffffffffff",
            "gasUsed" : "0x00",
            "hash" : "0x6fa797ffff4e3c9c3041561d8de386c5eb17699911fc4d6488de37b6c2160d39",
            "mixHash" : "0x56e81f171bcc55a6ff8345e692c0f86e5b48e01b996cadc001622fb5e363b421",
            "nonce" : "0x0102030405060708",
            "number" : "0x00",
            "parentHash" : "0x0000000000000000000000000000000000000000000000000000000000000000",
            "receiptTrie" : "0x56e81f171bcc55a6ff8345e692c0f86e5b48e01b996cadc001622fb5e363b421",
            "stateRoot" : "0x9752033d780dec771304e025f4373a8276a9cf5fb9db2bef5c41553e37b71b73",
            "timestamp" : "0x03b6",
            "transactionsTrie" : "0x56e81f171bcc55a6ff8345e692c0f86e5b48e01b996cadc001622fb5e363b421",
            "uncleHash" : "0x1dcc4de8dec75d7aab85b567b6ccd41ad312451b948a7413f0a142fd40d49347"
        },
        "genesisRLP" : "0xf901fff901faa00000000000000000000000000000000000000000000000000000000000000000a01dcc4de8dec75d7aab85b567b6ccd41ad312451b948a7413f0a142fd40d4934794945304eb96065b2a98b57a48a06ae28d285a71b5a09752033d780dec771304e025f4373a8276a9cf5fb9db2bef5c41553e37b71b73a056e81f171bcc55a6ff8345e692c0f86e5b48e01b996cadc001622fb5e363b421a056e81f171bcc55a6ff8345e692c0f86e5b48e01b996cadc001622fb5e363b421b90100000000000000000000000000000000000000000000000000000000000000000000000000000000000000000000000000000000000000000000000000000000000000000000000000000000000000000000000000000000000000000000000000000000000000000000000000000000000000000000000000000000000000000000000000000000000000000000000000000000000000000000000000000000000000000000000000000000000000000000000000000000000000000000000000000000000000000000000000000000000000000000000000000000000000000000000000000000000000000000000000000000000000000000000000000000008302000080887fffffffffffffff808203b642a056e81f171bcc55a6ff8345e692c0f86e5b48e01b996cadc001622fb5e363b421880102030405060708c0c0",
        "lastblockhash" : "0xd0a253fa4b3a202473d686279a202852a8062d68477abd18ac611c02306a1c6d",
        "network" : "Metropolis",
        "postState" : {
            "0x00000000000000000000000000000000000000f0" : {
                "balance" : "0x00",
                "code" : "",
                "nonce" : "0x00",
                "storage" : {
                }
            },
            "0x095e7baea6a6c7c4c2dfeb977efac326af552d87" : {
                "balance" : "0x22371a75",
                "code" : "0x7f0000000000000000000000010000000000000000000000000000000000000000417f00000000000000000000000000000000000000000000000000000000000000017f000000000000000000000000000000000000000000000000000000000000c3507f000000000000000000000000ffffffffffffffffffffffffffffffffffffffff6f885707818b889a89975552f01284425560005155",
                "nonce" : "0x00",
                "storage" : {
                    "0x00" : "0x885707818b889a89975552f012844255"
                }
            },
            "0x945304eb96065b2a98b57a48a06ae28d285a71b5" : {
                "balance" : "0x4563918244f4ae04",
                "code" : "0x6000355415600957005b60203560003555",
                "nonce" : "0x00",
                "storage" : {
                }
            },
            "0xa94f5374fce5edbc8e2a8697c15331677e6ebf0b" : {
                "balance" : "0x0de0b6b3852c37b5",
                "code" : "",
                "nonce" : "0x01",
                "storage" : {
                }
            }
        },
        "pre" : {
            "0x095e7baea6a6c7c4c2dfeb977efac326af552d87" : {
                "balance" : "0x00",
                "code" : "0x7f0000000000000000000000010000000000000000000000000000000000000000417f00000000000000000000000000000000000000000000000000000000000000017f000000000000000000000000000000000000000000000000000000000000c3507f000000000000000000000000ffffffffffffffffffffffffffffffffffffffff6f885707818b889a89975552f01284425560005155",
                "nonce" : "0x00",
                "storage" : {
                }
            },
            "0x945304eb96065b2a98b57a48a06ae28d285a71b5" : {
                "balance" : "0x2e",
                "code" : "0x6000355415600957005b60203560003555",
                "nonce" : "0x00",
                "storage" : {
                }
            },
            "0xa94f5374fce5edbc8e2a8697c15331677e6ebf0b" : {
                "balance" : "0x0de0b6b3a7640000",
                "code" : "",
                "nonce" : "0x00",
                "storage" : {
                }
            }
        }
    }
}