{
    "randomStatetest313_d0g0v0_EIP150" : {
        "blocks" : [
            {
                "blockHeader" : {
                    "bloom" : "0x00000000000000000000000000000000000000000000000000000000000000000000000000000000000000000000000000000000000000000000000000000000000000000000000000000000000000000000000000000000000000000000000000000000000000000000000000000000000000000000000000000000000000000000000000000000000000000000000000000000000000000000000000000000000000000000000000000000000000000000000000000000000000000000000000000000000000000000000000000000000000000000000000000000000000000000000000000000000000000000000000000000000000000000000000000000",
                    "coinbase" : "0x945304eb96065b2a98b57a48a06ae28d285a71b5",
                    "difficulty" : "0x020000",
                    "extraData" : "",
                    "gasLimit" : "0x7fffffffffffffff",
                    "gasUsed" : "0x48597866",
                    "hash" : "0xe3cec56d63efccbb065e1188d0d1f67ce7247d9a682ac89e326824d33646ff3a",
                    "mixHash" : "0x38ac2d9f31465dbb2df6dd0d9099cf872e43cc783f76d1e2e0742a27fd89a082",
                    "nonce" : "0xf8af6fdc23f222eb",
                    "number" : "0x01",
                    "parentHash" : "0x18987bd5ee16e33b36b9541818f9e742079bab0e362508ff3582de8d3ccfd218",
                    "receiptTrie" : "0x2b0538d18a1111930e07f5ed922dfe2c0259dd14577d66022b6529620a9ddedc",
                    "stateRoot" : "0x790bbc92419f44bbf9bdfb001f193f5b6f1288336150bd438ac89213c79f971c",
                    "timestamp" : "0x03e8",
                    "transactionsTrie" : "0xf7440d30d9021eedc1b9964b6a9d342a5eee70a7c4889fe33672ce84b3ff8e25",
                    "uncleHash" : "0x1dcc4de8dec75d7aab85b567b6ccd41ad312451b948a7413f0a142fd40d49347"
                },
                "rlp" : "0xf902dbf901fea018987bd5ee16e33b36b9541818f9e742079bab0e362508ff3582de8d3ccfd218a01dcc4de8dec75d7aab85b567b6ccd41ad312451b948a7413f0a142fd40d4934794945304eb96065b2a98b57a48a06ae28d285a71b5a0790bbc92419f44bbf9bdfb001f193f5b6f1288336150bd438ac89213c79f971ca0f7440d30d9021eedc1b9964b6a9d342a5eee70a7c4889fe33672ce84b3ff8e25a02b0538d18a1111930e07f5ed922dfe2c0259dd14577d66022b6529620a9ddedcb90100000000000000000000000000000000000000000000000000000000000000000000000000000000000000000000000000000000000000000000000000000000000000000000000000000000000000000000000000000000000000000000000000000000000000000000000000000000000000000000000000000000000000000000000000000000000000000000000000000000000000000000000000000000000000000000000000000000000000000000000000000000000000000000000000000000000000000000000000000000000000000000000000000000000000000000000000000000000000000000000000000000000000000000000000000000008302000001887fffffffffffffff84485978668203e880a038ac2d9f31465dbb2df6dd0d9099cf872e43cc783f76d1e2e0742a27fd89a08288f8af6fdc23f222ebf8d7f8d58001844859786694095e7baea6a6c7c4c2dfeb977efac326af552d87843159e0f9b86f0b7f00000000000000000000000000000000000000000000000000000000000000013c7f000000000000000000000000000000000000000000000000000000000000c350a345457fffffffffffffffffffffffffffffffffffffffffffffffffffffffffffffffff8287a3208c8c5a1ba038dd8c018c66dfd6961db708bf3790e352976144e258fd6bcf398fa73f7c7476a044316351f356944f40f93b0f6337b0f5c7abaf24a6a8c865ba2a476f90899185c0",
                "transactions" : [
                    {
                        "data" : "0x0b7f00000000000000000000000000000000000000000000000000000000000000013c7f000000000000000000000000000000000000000000000000000000000000c350a345457fffffffffffffffffffffffffffffffffffffffffffffffffffffffffffffffff8287a3208c8c5a",
                        "gasLimit" : "0x48597866",
                        "gasPrice" : "0x01",
                        "nonce" : "0x00",
                        "r" : "0x38dd8c018c66dfd6961db708bf3790e352976144e258fd6bcf398fa73f7c7476",
                        "s" : "0x44316351f356944f40f93b0f6337b0f5c7abaf24a6a8c865ba2a476f90899185",
                        "to" : "0x095e7baea6a6c7c4c2dfeb977efac326af552d87",
                        "v" : "0x1b",
                        "value" : "0x3159e0f9"
                    }
                ],
                "uncleHeaders" : [
                ]
            }
        ],
        "genesisBlockHeader" : {
            "bloom" : "0x00000000000000000000000000000000000000000000000000000000000000000000000000000000000000000000000000000000000000000000000000000000000000000000000000000000000000000000000000000000000000000000000000000000000000000000000000000000000000000000000000000000000000000000000000000000000000000000000000000000000000000000000000000000000000000000000000000000000000000000000000000000000000000000000000000000000000000000000000000000000000000000000000000000000000000000000000000000000000000000000000000000000000000000000000000000",
            "coinbase" : "0x945304eb96065b2a98b57a48a06ae28d285a71b5",
            "difficulty" : "0x020000",
            "extraData" : "0x42",
            "gasLimit" : "0x7fffffffffffffff",
            "gasUsed" : "0x00",
            "hash" : "0x18987bd5ee16e33b36b9541818f9e742079bab0e362508ff3582de8d3ccfd218",
            "mixHash" : "0x56e81f171bcc55a6ff8345e692c0f86e5b48e01b996cadc001622fb5e363b421",
            "nonce" : "0x0102030405060708",
            "number" : "0x00",
            "parentHash" : "0x0000000000000000000000000000000000000000000000000000000000000000",
            "receiptTrie" : "0x56e81f171bcc55a6ff8345e692c0f86e5b48e01b996cadc001622fb5e363b421",
            "stateRoot" : "0x40d0e2b443823d4c29c8804f08785f838c18a41463c3359b37ad447f71a76cf1",
            "timestamp" : "0x03b6",
            "transactionsTrie" : "0x56e81f171bcc55a6ff8345e692c0f86e5b48e01b996cadc001622fb5e363b421",
            "uncleHash" : "0x1dcc4de8dec75d7aab85b567b6ccd41ad312451b948a7413f0a142fd40d49347"
        },
        "genesisRLP" : "0xf901fff901faa00000000000000000000000000000000000000000000000000000000000000000a01dcc4de8dec75d7aab85b567b6ccd41ad312451b948a7413f0a142fd40d4934794945304eb96065b2a98b57a48a06ae28d285a71b5a040d0e2b443823d4c29c8804f08785f838c18a41463c3359b37ad447f71a76cf1a056e81f171bcc55a6ff8345e692c0f86e5b48e01b996cadc001622fb5e363b421a056e81f171bcc55a6ff8345e692c0f86e5b48e01b996cadc001622fb5e363b421b90100000000000000000000000000000000000000000000000000000000000000000000000000000000000000000000000000000000000000000000000000000000000000000000000000000000000000000000000000000000000000000000000000000000000000000000000000000000000000000000000000000000000000000000000000000000000000000000000000000000000000000000000000000000000000000000000000000000000000000000000000000000000000000000000000000000000000000000000000000000000000000000000000000000000000000000000000000000000000000000000000000000000000000000000000000000008302000080887fffffffffffffff808203b642a056e81f171bcc55a6ff8345e692c0f86e5b48e01b996cadc001622fb5e363b421880102030405060708c0c0",
        "lastblockhash" : "0xe3cec56d63efccbb065e1188d0d1f67ce7247d9a682ac89e326824d33646ff3a",
        "network" : "EIP150",
        "postState" : {
            "0x095e7baea6a6c7c4c2dfeb977efac326af552d87" : {
                "balance" : "0x00",
                "code" : "0x0b7f00000000000000000000000000000000000000000000000000000000000000013c7f000000000000000000000000000000000000000000000000000000000000c350a345457fffffffffffffffffffffffffffffffffffffffffffffffffffffffffffffffff8287a3208c8c5a60005155",
                "nonce" : "0x00",
                "storage" : {
                }
            },
            "0x945304eb96065b2a98b57a48a06ae28d285a71b5" : {
                "balance" : "0x456391828d4d7894",
                "code" : "0x6000355415600957005b60203560003555",
                "nonce" : "0x00",
                "storage" : {
                }
            },
            "0xa94f5374fce5edbc8e2a8697c15331677e6ebf0b" : {
                "balance" : "0x0de0b6b35f0a879a",
                "code" : "",
                "nonce" : "0x01",
                "storage" : {
                }
            }
        },
        "pre" : {
            "0x095e7baea6a6c7c4c2dfeb977efac326af552d87" : {
                "balance" : "0x00",
                "code" : "0x0b7f00000000000000000000000000000000000000000000000000000000000000013c7f000000000000000000000000000000000000000000000000000000000000c350a345457fffffffffffffffffffffffffffffffffffffffffffffffffffffffffffffffff8287a3208c8c5a60005155",
                "nonce" : "0x00",
                "storage" : {
                }
            },
            "0x945304eb96065b2a98b57a48a06ae28d285a71b5" : {
                "balance" : "0x2e",
                "code" : "0x6000355415600957005b60203560003555",
                "nonce" : "0x00",
                "storage" : {
                }
            },
            "0xa94f5374fce5edbc8e2a8697c15331677e6ebf0b" : {
                "balance" : "0x0de0b6b3a7640000",
                "code" : "",
                "nonce" : "0x00",
                "storage" : {
                }
            }
        }
    },
    "randomStatetest313_d0g0v0_EIP158" : {
        "blocks" : [
            {
                "blockHeader" : {
                    "bloom" : "0x00000000000000000000000000000000000000000000000000000000000000000000000000000000000000000000000000000000000000000000000000000000000000000000000000000000000000000000000000000000000000000000000000000000000000000000000000000000000000000000000000000000000000000000000000000000000000000000000000000000000000000000000000000000000000000000000000000000000000000000000000000000000000000000000000000000000000000000000000000000000000000000000000000000000000000000000000000000000000000000000000000000000000000000000000000000",
                    "coinbase" : "0x945304eb96065b2a98b57a48a06ae28d285a71b5",
                    "difficulty" : "0x020000",
                    "extraData" : "",
                    "gasLimit" : "0x7fffffffffffffff",
                    "gasUsed" : "0x48597866",
                    "hash" : "0x40d8eb6e598e957041506d8c27593cfea8eb3a376b4b1deefc908232204c02af",
                    "mixHash" : "0x192888290bbe348652121c6b33ecb63cb17d20839b3ca16e1f99831f76b93c2e",
                    "nonce" : "0x7e9303b103e38857",
                    "number" : "0x01",
                    "parentHash" : "0x18987bd5ee16e33b36b9541818f9e742079bab0e362508ff3582de8d3ccfd218",
                    "receiptTrie" : "0x2b0538d18a1111930e07f5ed922dfe2c0259dd14577d66022b6529620a9ddedc",
                    "stateRoot" : "0x790bbc92419f44bbf9bdfb001f193f5b6f1288336150bd438ac89213c79f971c",
                    "timestamp" : "0x03e8",
                    "transactionsTrie" : "0xf7440d30d9021eedc1b9964b6a9d342a5eee70a7c4889fe33672ce84b3ff8e25",
                    "uncleHash" : "0x1dcc4de8dec75d7aab85b567b6ccd41ad312451b948a7413f0a142fd40d49347"
                },
                "rlp" : "0xf902dbf901fea018987bd5ee16e33b36b9541818f9e742079bab0e362508ff3582de8d3ccfd218a01dcc4de8dec75d7aab85b567b6ccd41ad312451b948a7413f0a142fd40d4934794945304eb96065b2a98b57a48a06ae28d285a71b5a0790bbc92419f44bbf9bdfb001f193f5b6f1288336150bd438ac89213c79f971ca0f7440d30d9021eedc1b9964b6a9d342a5eee70a7c4889fe33672ce84b3ff8e25a02b0538d18a1111930e07f5ed922dfe2c0259dd14577d66022b6529620a9ddedcb90100000000000000000000000000000000000000000000000000000000000000000000000000000000000000000000000000000000000000000000000000000000000000000000000000000000000000000000000000000000000000000000000000000000000000000000000000000000000000000000000000000000000000000000000000000000000000000000000000000000000000000000000000000000000000000000000000000000000000000000000000000000000000000000000000000000000000000000000000000000000000000000000000000000000000000000000000000000000000000000000000000000000000000000000000000000008302000001887fffffffffffffff84485978668203e880a0192888290bbe348652121c6b33ecb63cb17d20839b3ca16e1f99831f76b93c2e887e9303b103e38857f8d7f8d58001844859786694095e7baea6a6c7c4c2dfeb977efac326af552d87843159e0f9b86f0b7f00000000000000000000000000000000000000000000000000000000000000013c7f000000000000000000000000000000000000000000000000000000000000c350a345457fffffffffffffffffffffffffffffffffffffffffffffffffffffffffffffffff8287a3208c8c5a1ba038dd8c018c66dfd6961db708bf3790e352976144e258fd6bcf398fa73f7c7476a044316351f356944f40f93b0f6337b0f5c7abaf24a6a8c865ba2a476f90899185c0",
                "transactions" : [
                    {
                        "data" : "0x0b7f00000000000000000000000000000000000000000000000000000000000000013c7f000000000000000000000000000000000000000000000000000000000000c350a345457fffffffffffffffffffffffffffffffffffffffffffffffffffffffffffffffff8287a3208c8c5a",
                        "gasLimit" : "0x48597866",
                        "gasPrice" : "0x01",
                        "nonce" : "0x00",
                        "r" : "0x38dd8c018c66dfd6961db708bf3790e352976144e258fd6bcf398fa73f7c7476",
                        "s" : "0x44316351f356944f40f93b0f6337b0f5c7abaf24a6a8c865ba2a476f90899185",
                        "to" : "0x095e7baea6a6c7c4c2dfeb977efac326af552d87",
                        "v" : "0x1b",
                        "value" : "0x3159e0f9"
                    }
                ],
                "uncleHeaders" : [
                ]
            }
        ],
        "genesisBlockHeader" : {
            "bloom" : "0x00000000000000000000000000000000000000000000000000000000000000000000000000000000000000000000000000000000000000000000000000000000000000000000000000000000000000000000000000000000000000000000000000000000000000000000000000000000000000000000000000000000000000000000000000000000000000000000000000000000000000000000000000000000000000000000000000000000000000000000000000000000000000000000000000000000000000000000000000000000000000000000000000000000000000000000000000000000000000000000000000000000000000000000000000000000",
            "coinbase" : "0x945304eb96065b2a98b57a48a06ae28d285a71b5",
            "difficulty" : "0x020000",
            "extraData" : "0x42",
            "gasLimit" : "0x7fffffffffffffff",
            "gasUsed" : "0x00",
            "hash" : "0x18987bd5ee16e33b36b9541818f9e742079bab0e362508ff3582de8d3ccfd218",
            "mixHash" : "0x56e81f171bcc55a6ff8345e692c0f86e5b48e01b996cadc001622fb5e363b421",
            "nonce" : "0x0102030405060708",
            "number" : "0x00",
            "parentHash" : "0x0000000000000000000000000000000000000000000000000000000000000000",
            "receiptTrie" : "0x56e81f171bcc55a6ff8345e692c0f86e5b48e01b996cadc001622fb5e363b421",
            "stateRoot" : "0x40d0e2b443823d4c29c8804f08785f838c18a41463c3359b37ad447f71a76cf1",
            "timestamp" : "0x03b6",
            "transactionsTrie" : "0x56e81f171bcc55a6ff8345e692c0f86e5b48e01b996cadc001622fb5e363b421",
            "uncleHash" : "0x1dcc4de8dec75d7aab85b567b6ccd41ad312451b948a7413f0a142fd40d49347"
        },
        "genesisRLP" : "0xf901fff901faa00000000000000000000000000000000000000000000000000000000000000000a01dcc4de8dec75d7aab85b567b6ccd41ad312451b948a7413f0a142fd40d4934794945304eb96065b2a98b57a48a06ae28d285a71b5a040d0e2b443823d4c29c8804f08785f838c18a41463c3359b37ad447f71a76cf1a056e81f171bcc55a6ff8345e692c0f86e5b48e01b996cadc001622fb5e363b421a056e81f171bcc55a6ff8345e692c0f86e5b48e01b996cadc001622fb5e363b421b90100000000000000000000000000000000000000000000000000000000000000000000000000000000000000000000000000000000000000000000000000000000000000000000000000000000000000000000000000000000000000000000000000000000000000000000000000000000000000000000000000000000000000000000000000000000000000000000000000000000000000000000000000000000000000000000000000000000000000000000000000000000000000000000000000000000000000000000000000000000000000000000000000000000000000000000000000000000000000000000000000000000000000000000000000000000008302000080887fffffffffffffff808203b642a056e81f171bcc55a6ff8345e692c0f86e5b48e01b996cadc001622fb5e363b421880102030405060708c0c0",
        "lastblockhash" : "0x40d8eb6e598e957041506d8c27593cfea8eb3a376b4b1deefc908232204c02af",
        "network" : "EIP158",
        "postState" : {
            "0x095e7baea6a6c7c4c2dfeb977efac326af552d87" : {
                "balance" : "0x00",
                "code" : "0x0b7f00000000000000000000000000000000000000000000000000000000000000013c7f000000000000000000000000000000000000000000000000000000000000c350a345457fffffffffffffffffffffffffffffffffffffffffffffffffffffffffffffffff8287a3208c8c5a60005155",
                "nonce" : "0x00",
                "storage" : {
                }
            },
            "0x945304eb96065b2a98b57a48a06ae28d285a71b5" : {
                "balance" : "0x456391828d4d7894",
                "code" : "0x6000355415600957005b60203560003555",
                "nonce" : "0x00",
                "storage" : {
                }
            },
            "0xa94f5374fce5edbc8e2a8697c15331677e6ebf0b" : {
                "balance" : "0x0de0b6b35f0a879a",
                "code" : "",
                "nonce" : "0x01",
                "storage" : {
                }
            }
        },
        "pre" : {
            "0x095e7baea6a6c7c4c2dfeb977efac326af552d87" : {
                "balance" : "0x00",
                "code" : "0x0b7f00000000000000000000000000000000000000000000000000000000000000013c7f000000000000000000000000000000000000000000000000000000000000c350a345457fffffffffffffffffffffffffffffffffffffffffffffffffffffffffffffffff8287a3208c8c5a60005155",
                "nonce" : "0x00",
                "storage" : {
                }
            },
            "0x945304eb96065b2a98b57a48a06ae28d285a71b5" : {
                "balance" : "0x2e",
                "code" : "0x6000355415600957005b60203560003555",
                "nonce" : "0x00",
                "storage" : {
                }
            },
            "0xa94f5374fce5edbc8e2a8697c15331677e6ebf0b" : {
                "balance" : "0x0de0b6b3a7640000",
                "code" : "",
                "nonce" : "0x00",
                "storage" : {
                }
            }
        }
    },
    "randomStatetest313_d0g0v0_Frontier" : {
        "blocks" : [
            {
                "blockHeader" : {
                    "bloom" : "0x00000000000000000000000000000000000000000000000000000000000000000000000000000000000000000000000000000000000000000000000000000000000000000000000000000000000000000000000000000000000000000000000000000000000000000000000000000000000000000000000000000000000000000000000000000000000000000000000000000000000000000000000000000000000000000000000000000000000000000000000000000000000000000000000000000000000000000000000000000000000000000000000000000000000000000000000000000000000000000000000000000000000000000000000000000000",
                    "coinbase" : "0x945304eb96065b2a98b57a48a06ae28d285a71b5",
                    "difficulty" : "0x020000",
                    "extraData" : "",
                    "gasLimit" : "0x7fffffffffffffff",
                    "gasUsed" : "0x48597866",
                    "hash" : "0x5ad14dfc556fb3337d73a883e5c4839a9a6c8c8d9c774a96c38a97cb79b1d8dd",
                    "mixHash" : "0x6769b9e381c1e22ca5391a45176e2e8f1ffc047c9ed31d9fcdd9b26f0d191395",
                    "nonce" : "0xf9657ce1c4581338",
                    "number" : "0x01",
                    "parentHash" : "0x18987bd5ee16e33b36b9541818f9e742079bab0e362508ff3582de8d3ccfd218",
                    "receiptTrie" : "0x2b0538d18a1111930e07f5ed922dfe2c0259dd14577d66022b6529620a9ddedc",
                    "stateRoot" : "0x790bbc92419f44bbf9bdfb001f193f5b6f1288336150bd438ac89213c79f971c",
                    "timestamp" : "0x03e8",
                    "transactionsTrie" : "0xf7440d30d9021eedc1b9964b6a9d342a5eee70a7c4889fe33672ce84b3ff8e25",
                    "uncleHash" : "0x1dcc4de8dec75d7aab85b567b6ccd41ad312451b948a7413f0a142fd40d49347"
                },
                "rlp" : "0xf902dbf901fea018987bd5ee16e33b36b9541818f9e742079bab0e362508ff3582de8d3ccfd218a01dcc4de8dec75d7aab85b567b6ccd41ad312451b948a7413f0a142fd40d4934794945304eb96065b2a98b57a48a06ae28d285a71b5a0790bbc92419f44bbf9bdfb001f193f5b6f1288336150bd438ac89213c79f971ca0f7440d30d9021eedc1b9964b6a9d342a5eee70a7c4889fe33672ce84b3ff8e25a02b0538d18a1111930e07f5ed922dfe2c0259dd14577d66022b6529620a9ddedcb90100000000000000000000000000000000000000000000000000000000000000000000000000000000000000000000000000000000000000000000000000000000000000000000000000000000000000000000000000000000000000000000000000000000000000000000000000000000000000000000000000000000000000000000000000000000000000000000000000000000000000000000000000000000000000000000000000000000000000000000000000000000000000000000000000000000000000000000000000000000000000000000000000000000000000000000000000000000000000000000000000000000000000000000000000000000008302000001887fffffffffffffff84485978668203e880a06769b9e381c1e22ca5391a45176e2e8f1ffc047c9ed31d9fcdd9b26f0d19139588f9657ce1c4581338f8d7f8d58001844859786694095e7baea6a6c7c4c2dfeb977efac326af552d87843159e0f9b86f0b7f00000000000000000000000000000000000000000000000000000000000000013c7f000000000000000000000000000000000000000000000000000000000000c350a345457fffffffffffffffffffffffffffffffffffffffffffffffffffffffffffffffff8287a3208c8c5a1ba038dd8c018c66dfd6961db708bf3790e352976144e258fd6bcf398fa73f7c7476a044316351f356944f40f93b0f6337b0f5c7abaf24a6a8c865ba2a476f90899185c0",
                "transactions" : [
                    {
                        "data" : "0x0b7f00000000000000000000000000000000000000000000000000000000000000013c7f000000000000000000000000000000000000000000000000000000000000c350a345457fffffffffffffffffffffffffffffffffffffffffffffffffffffffffffffffff8287a3208c8c5a",
                        "gasLimit" : "0x48597866",
                        "gasPrice" : "0x01",
                        "nonce" : "0x00",
                        "r" : "0x38dd8c018c66dfd6961db708bf3790e352976144e258fd6bcf398fa73f7c7476",
                        "s" : "0x44316351f356944f40f93b0f6337b0f5c7abaf24a6a8c865ba2a476f90899185",
                        "to" : "0x095e7baea6a6c7c4c2dfeb977efac326af552d87",
                        "v" : "0x1b",
                        "value" : "0x3159e0f9"
                    }
                ],
                "uncleHeaders" : [
                ]
            }
        ],
        "genesisBlockHeader" : {
            "bloom" : "0x00000000000000000000000000000000000000000000000000000000000000000000000000000000000000000000000000000000000000000000000000000000000000000000000000000000000000000000000000000000000000000000000000000000000000000000000000000000000000000000000000000000000000000000000000000000000000000000000000000000000000000000000000000000000000000000000000000000000000000000000000000000000000000000000000000000000000000000000000000000000000000000000000000000000000000000000000000000000000000000000000000000000000000000000000000000",
            "coinbase" : "0x945304eb96065b2a98b57a48a06ae28d285a71b5",
            "difficulty" : "0x020000",
            "extraData" : "0x42",
            "gasLimit" : "0x7fffffffffffffff",
            "gasUsed" : "0x00",
            "hash" : "0x18987bd5ee16e33b36b9541818f9e742079bab0e362508ff3582de8d3ccfd218",
            "mixHash" : "0x56e81f171bcc55a6ff8345e692c0f86e5b48e01b996cadc001622fb5e363b421",
            "nonce" : "0x0102030405060708",
            "number" : "0x00",
            "parentHash" : "0x0000000000000000000000000000000000000000000000000000000000000000",
            "receiptTrie" : "0x56e81f171bcc55a6ff8345e692c0f86e5b48e01b996cadc001622fb5e363b421",
            "stateRoot" : "0x40d0e2b443823d4c29c8804f08785f838c18a41463c3359b37ad447f71a76cf1",
            "timestamp" : "0x03b6",
            "transactionsTrie" : "0x56e81f171bcc55a6ff8345e692c0f86e5b48e01b996cadc001622fb5e363b421",
            "uncleHash" : "0x1dcc4de8dec75d7aab85b567b6ccd41ad312451b948a7413f0a142fd40d49347"
        },
        "genesisRLP" : "0xf901fff901faa00000000000000000000000000000000000000000000000000000000000000000a01dcc4de8dec75d7aab85b567b6ccd41ad312451b948a7413f0a142fd40d4934794945304eb96065b2a98b57a48a06ae28d285a71b5a040d0e2b443823d4c29c8804f08785f838c18a41463c3359b37ad447f71a76cf1a056e81f171bcc55a6ff8345e692c0f86e5b48e01b996cadc001622fb5e363b421a056e81f171bcc55a6ff8345e692c0f86e5b48e01b996cadc001622fb5e363b421b90100000000000000000000000000000000000000000000000000000000000000000000000000000000000000000000000000000000000000000000000000000000000000000000000000000000000000000000000000000000000000000000000000000000000000000000000000000000000000000000000000000000000000000000000000000000000000000000000000000000000000000000000000000000000000000000000000000000000000000000000000000000000000000000000000000000000000000000000000000000000000000000000000000000000000000000000000000000000000000000000000000000000000000000000000000000008302000080887fffffffffffffff808203b642a056e81f171bcc55a6ff8345e692c0f86e5b48e01b996cadc001622fb5e363b421880102030405060708c0c0",
        "lastblockhash" : "0x5ad14dfc556fb3337d73a883e5c4839a9a6c8c8d9c774a96c38a97cb79b1d8dd",
        "network" : "Frontier",
        "postState" : {
            "0x095e7baea6a6c7c4c2dfeb977efac326af552d87" : {
                "balance" : "0x00",
                "code" : "0x0b7f00000000000000000000000000000000000000000000000000000000000000013c7f000000000000000000000000000000000000000000000000000000000000c350a345457fffffffffffffffffffffffffffffffffffffffffffffffffffffffffffffffff8287a3208c8c5a60005155",
                "nonce" : "0x00",
                "storage" : {
                }
            },
            "0x945304eb96065b2a98b57a48a06ae28d285a71b5" : {
                "balance" : "0x456391828d4d7894",
                "code" : "0x6000355415600957005b60203560003555",
                "nonce" : "0x00",
                "storage" : {
                }
            },
            "0xa94f5374fce5edbc8e2a8697c15331677e6ebf0b" : {
                "balance" : "0x0de0b6b35f0a879a",
                "code" : "",
                "nonce" : "0x01",
                "storage" : {
                }
            }
        },
        "pre" : {
            "0x095e7baea6a6c7c4c2dfeb977efac326af552d87" : {
                "balance" : "0x00",
                "code" : "0x0b7f00000000000000000000000000000000000000000000000000000000000000013c7f000000000000000000000000000000000000000000000000000000000000c350a345457fffffffffffffffffffffffffffffffffffffffffffffffffffffffffffffffff8287a3208c8c5a60005155",
                "nonce" : "0x00",
                "storage" : {
                }
            },
            "0x945304eb96065b2a98b57a48a06ae28d285a71b5" : {
                "balance" : "0x2e",
                "code" : "0x6000355415600957005b60203560003555",
                "nonce" : "0x00",
                "storage" : {
                }
            },
            "0xa94f5374fce5edbc8e2a8697c15331677e6ebf0b" : {
                "balance" : "0x0de0b6b3a7640000",
                "code" : "",
                "nonce" : "0x00",
                "storage" : {
                }
            }
        }
    },
    "randomStatetest313_d0g0v0_Homestead" : {
        "blocks" : [
            {
                "blockHeader" : {
                    "bloom" : "0x00000000000000000000000000000000000000000000000000000000000000000000000000000000000000000000000000000000000000000000000000000000000000000000000000000000000000000000000000000000000000000000000000000000000000000000000000000000000000000000000000000000000000000000000000000000000000000000000000000000000000000000000000000000000000000000000000000000000000000000000000000000000000000000000000000000000000000000000000000000000000000000000000000000000000000000000000000000000000000000000000000000000000000000000000000000",
                    "coinbase" : "0x945304eb96065b2a98b57a48a06ae28d285a71b5",
                    "difficulty" : "0x020000",
                    "extraData" : "",
                    "gasLimit" : "0x7fffffffffffffff",
                    "gasUsed" : "0x48597866",
                    "hash" : "0x7eed22e946f8c0875efd5293c79cac7c05f4cae3b5593b76d90d06bd2145ffd8",
                    "mixHash" : "0x7ce0b73a8a7ebe3b9628cdfa368683a091e15d29e399d82004f6f9c7c04b64f3",
                    "nonce" : "0xc9c25e8d81101fa0",
                    "number" : "0x01",
                    "parentHash" : "0x18987bd5ee16e33b36b9541818f9e742079bab0e362508ff3582de8d3ccfd218",
                    "receiptTrie" : "0x2b0538d18a1111930e07f5ed922dfe2c0259dd14577d66022b6529620a9ddedc",
                    "stateRoot" : "0x790bbc92419f44bbf9bdfb001f193f5b6f1288336150bd438ac89213c79f971c",
                    "timestamp" : "0x03e8",
                    "transactionsTrie" : "0xf7440d30d9021eedc1b9964b6a9d342a5eee70a7c4889fe33672ce84b3ff8e25",
                    "uncleHash" : "0x1dcc4de8dec75d7aab85b567b6ccd41ad312451b948a7413f0a142fd40d49347"
                },
                "rlp" : "0xf902dbf901fea018987bd5ee16e33b36b9541818f9e742079bab0e362508ff3582de8d3ccfd218a01dcc4de8dec75d7aab85b567b6ccd41ad312451b948a7413f0a142fd40d4934794945304eb96065b2a98b57a48a06ae28d285a71b5a0790bbc92419f44bbf9bdfb001f193f5b6f1288336150bd438ac89213c79f971ca0f7440d30d9021eedc1b9964b6a9d342a5eee70a7c4889fe33672ce84b3ff8e25a02b0538d18a1111930e07f5ed922dfe2c0259dd14577d66022b6529620a9ddedcb90100000000000000000000000000000000000000000000000000000000000000000000000000000000000000000000000000000000000000000000000000000000000000000000000000000000000000000000000000000000000000000000000000000000000000000000000000000000000000000000000000000000000000000000000000000000000000000000000000000000000000000000000000000000000000000000000000000000000000000000000000000000000000000000000000000000000000000000000000000000000000000000000000000000000000000000000000000000000000000000000000000000000000000000000000000000008302000001887fffffffffffffff84485978668203e880a07ce0b73a8a7ebe3b9628cdfa368683a091e15d29e399d82004f6f9c7c04b64f388c9c25e8d81101fa0f8d7f8d58001844859786694095e7baea6a6c7c4c2dfeb977efac326af552d87843159e0f9b86f0b7f00000000000000000000000000000000000000000000000000000000000000013c7f000000000000000000000000000000000000000000000000000000000000c350a345457fffffffffffffffffffffffffffffffffffffffffffffffffffffffffffffffff8287a3208c8c5a1ba038dd8c018c66dfd6961db708bf3790e352976144e258fd6bcf398fa73f7c7476a044316351f356944f40f93b0f6337b0f5c7abaf24a6a8c865ba2a476f90899185c0",
                "transactions" : [
                    {
                        "data" : "0x0b7f00000000000000000000000000000000000000000000000000000000000000013c7f000000000000000000000000000000000000000000000000000000000000c350a345457fffffffffffffffffffffffffffffffffffffffffffffffffffffffffffffffff8287a3208c8c5a",
                        "gasLimit" : "0x48597866",
                        "gasPrice" : "0x01",
                        "nonce" : "0x00",
                        "r" : "0x38dd8c018c66dfd6961db708bf3790e352976144e258fd6bcf398fa73f7c7476",
                        "s" : "0x44316351f356944f40f93b0f6337b0f5c7abaf24a6a8c865ba2a476f90899185",
                        "to" : "0x095e7baea6a6c7c4c2dfeb977efac326af552d87",
                        "v" : "0x1b",
                        "value" : "0x3159e0f9"
                    }
                ],
                "uncleHeaders" : [
                ]
            }
        ],
        "genesisBlockHeader" : {
            "bloom" : "0x00000000000000000000000000000000000000000000000000000000000000000000000000000000000000000000000000000000000000000000000000000000000000000000000000000000000000000000000000000000000000000000000000000000000000000000000000000000000000000000000000000000000000000000000000000000000000000000000000000000000000000000000000000000000000000000000000000000000000000000000000000000000000000000000000000000000000000000000000000000000000000000000000000000000000000000000000000000000000000000000000000000000000000000000000000000",
            "coinbase" : "0x945304eb96065b2a98b57a48a06ae28d285a71b5",
            "difficulty" : "0x020000",
            "extraData" : "0x42",
            "gasLimit" : "0x7fffffffffffffff",
            "gasUsed" : "0x00",
            "hash" : "0x18987bd5ee16e33b36b9541818f9e742079bab0e362508ff3582de8d3ccfd218",
            "mixHash" : "0x56e81f171bcc55a6ff8345e692c0f86e5b48e01b996cadc001622fb5e363b421",
            "nonce" : "0x0102030405060708",
            "number" : "0x00",
            "parentHash" : "0x0000000000000000000000000000000000000000000000000000000000000000",
            "receiptTrie" : "0x56e81f171bcc55a6ff8345e692c0f86e5b48e01b996cadc001622fb5e363b421",
            "stateRoot" : "0x40d0e2b443823d4c29c8804f08785f838c18a41463c3359b37ad447f71a76cf1",
            "timestamp" : "0x03b6",
            "transactionsTrie" : "0x56e81f171bcc55a6ff8345e692c0f86e5b48e01b996cadc001622fb5e363b421",
            "uncleHash" : "0x1dcc4de8dec75d7aab85b567b6ccd41ad312451b948a7413f0a142fd40d49347"
        },
        "genesisRLP" : "0xf901fff901faa00000000000000000000000000000000000000000000000000000000000000000a01dcc4de8dec75d7aab85b567b6ccd41ad312451b948a7413f0a142fd40d4934794945304eb96065b2a98b57a48a06ae28d285a71b5a040d0e2b443823d4c29c8804f08785f838c18a41463c3359b37ad447f71a76cf1a056e81f171bcc55a6ff8345e692c0f86e5b48e01b996cadc001622fb5e363b421a056e81f171bcc55a6ff8345e692c0f86e5b48e01b996cadc001622fb5e363b421b90100000000000000000000000000000000000000000000000000000000000000000000000000000000000000000000000000000000000000000000000000000000000000000000000000000000000000000000000000000000000000000000000000000000000000000000000000000000000000000000000000000000000000000000000000000000000000000000000000000000000000000000000000000000000000000000000000000000000000000000000000000000000000000000000000000000000000000000000000000000000000000000000000000000000000000000000000000000000000000000000000000000000000000000000000000000008302000080887fffffffffffffff808203b642a056e81f171bcc55a6ff8345e692c0f86e5b48e01b996cadc001622fb5e363b421880102030405060708c0c0",
        "lastblockhash" : "0x7eed22e946f8c0875efd5293c79cac7c05f4cae3b5593b76d90d06bd2145ffd8",
        "network" : "Homestead",
        "postState" : {
            "0x095e7baea6a6c7c4c2dfeb977efac326af552d87" : {
                "balance" : "0x00",
                "code" : "0x0b7f00000000000000000000000000000000000000000000000000000000000000013c7f000000000000000000000000000000000000000000000000000000000000c350a345457fffffffffffffffffffffffffffffffffffffffffffffffffffffffffffffffff8287a3208c8c5a60005155",
                "nonce" : "0x00",
                "storage" : {
                }
            },
            "0x945304eb96065b2a98b57a48a06ae28d285a71b5" : {
                "balance" : "0x456391828d4d7894",
                "code" : "0x6000355415600957005b60203560003555",
                "nonce" : "0x00",
                "storage" : {
                }
            },
            "0xa94f5374fce5edbc8e2a8697c15331677e6ebf0b" : {
                "balance" : "0x0de0b6b35f0a879a",
                "code" : "",
                "nonce" : "0x01",
                "storage" : {
                }
            }
        },
        "pre" : {
            "0x095e7baea6a6c7c4c2dfeb977efac326af552d87" : {
                "balance" : "0x00",
                "code" : "0x0b7f00000000000000000000000000000000000000000000000000000000000000013c7f000000000000000000000000000000000000000000000000000000000000c350a345457fffffffffffffffffffffffffffffffffffffffffffffffffffffffffffffffff8287a3208c8c5a60005155",
                "nonce" : "0x00",
                "storage" : {
                }
            },
            "0x945304eb96065b2a98b57a48a06ae28d285a71b5" : {
                "balance" : "0x2e",
                "code" : "0x6000355415600957005b60203560003555",
                "nonce" : "0x00",
                "storage" : {
                }
            },
            "0xa94f5374fce5edbc8e2a8697c15331677e6ebf0b" : {
                "balance" : "0x0de0b6b3a7640000",
                "code" : "",
                "nonce" : "0x00",
                "storage" : {
                }
            }
        }
    },
    "randomStatetest313_d0g0v0_Metropolis" : {
        "blocks" : [
            {
                "blockHeader" : {
                    "bloom" : "0x00000000000000000000000000000000000000000000000000000000000000000000000000000000000000000000000000000000000000000000000000000000000000000000000000000000000000000000000000000000000000000000000000000000000000000000000000000000000000000000000000000000000000000000000000000000000000000000000000000000000000000000000000000000000000000000000000000000000000000000000000000000000000000000000000000000000000000000000000000000000000000000000000000000000000000000000000000000000000000000000000000000000000000000000000000000",
                    "coinbase" : "0x945304eb96065b2a98b57a48a06ae28d285a71b5",
                    "difficulty" : "0x020000",
                    "extraData" : "",
                    "gasLimit" : "0x7fffffffffffffff",
                    "gasUsed" : "0x48597866",
                    "hash" : "0x7b985a02b0c3e7e0f0282456fc892f1bd584c169daead1a83503c5e6640cca24",
                    "mixHash" : "0x35814045dc9ea25f43a26de495c4d0bbb512fdf5a96732f413259d65190b7f0f",
                    "nonce" : "0x9c524334be80b004",
                    "number" : "0x01",
                    "parentHash" : "0x18987bd5ee16e33b36b9541818f9e742079bab0e362508ff3582de8d3ccfd218",
                    "receiptTrie" : "0x645ec9fe1e1bfc45b8f3d62f434e944750f397455ed345fd04e5c18d800d50ea",
                    "stateRoot" : "0x76dab3b4381b7c04bfb4457d00c9d4d1342815272d0c1b9b869e386267b8d966",
                    "timestamp" : "0x03e8",
                    "transactionsTrie" : "0xf7440d30d9021eedc1b9964b6a9d342a5eee70a7c4889fe33672ce84b3ff8e25",
                    "uncleHash" : "0x1dcc4de8dec75d7aab85b567b6ccd41ad312451b948a7413f0a142fd40d49347"
                },
                "rlp" : "0xf902dbf901fea018987bd5ee16e33b36b9541818f9e742079bab0e362508ff3582de8d3ccfd218a01dcc4de8dec75d7aab85b567b6ccd41ad312451b948a7413f0a142fd40d4934794945304eb96065b2a98b57a48a06ae28d285a71b5a076dab3b4381b7c04bfb4457d00c9d4d1342815272d0c1b9b869e386267b8d966a0f7440d30d9021eedc1b9964b6a9d342a5eee70a7c4889fe33672ce84b3ff8e25a0645ec9fe1e1bfc45b8f3d62f434e944750f397455ed345fd04e5c18d800d50eab90100000000000000000000000000000000000000000000000000000000000000000000000000000000000000000000000000000000000000000000000000000000000000000000000000000000000000000000000000000000000000000000000000000000000000000000000000000000000000000000000000000000000000000000000000000000000000000000000000000000000000000000000000000000000000000000000000000000000000000000000000000000000000000000000000000000000000000000000000000000000000000000000000000000000000000000000000000000000000000000000000000000000000000000000000000000008302000001887fffffffffffffff84485978668203e880a035814045dc9ea25f43a26de495c4d0bbb512fdf5a96732f413259d65190b7f0f889c524334be80b004f8d7f8d58001844859786694095e7baea6a6c7c4c2dfeb977efac326af552d87843159e0f9b86f0b7f00000000000000000000000000000000000000000000000000000000000000013c7f000000000000000000000000000000000000000000000000000000000000c350a345457fffffffffffffffffffffffffffffffffffffffffffffffffffffffffffffffff8287a3208c8c5a1ba038dd8c018c66dfd6961db708bf3790e352976144e258fd6bcf398fa73f7c7476a044316351f356944f40f93b0f6337b0f5c7abaf24a6a8c865ba2a476f90899185c0",
                "transactions" : [
                    {
                        "data" : "0x0b7f00000000000000000000000000000000000000000000000000000000000000013c7f000000000000000000000000000000000000000000000000000000000000c350a345457fffffffffffffffffffffffffffffffffffffffffffffffffffffffffffffffff8287a3208c8c5a",
                        "gasLimit" : "0x48597866",
                        "gasPrice" : "0x01",
                        "nonce" : "0x00",
                        "r" : "0x38dd8c018c66dfd6961db708bf3790e352976144e258fd6bcf398fa73f7c7476",
                        "s" : "0x44316351f356944f40f93b0f6337b0f5c7abaf24a6a8c865ba2a476f90899185",
                        "to" : "0x095e7baea6a6c7c4c2dfeb977efac326af552d87",
                        "v" : "0x1b",
                        "value" : "0x3159e0f9"
                    }
                ],
                "uncleHeaders" : [
                ]
            }
        ],
        "genesisBlockHeader" : {
            "bloom" : "0x00000000000000000000000000000000000000000000000000000000000000000000000000000000000000000000000000000000000000000000000000000000000000000000000000000000000000000000000000000000000000000000000000000000000000000000000000000000000000000000000000000000000000000000000000000000000000000000000000000000000000000000000000000000000000000000000000000000000000000000000000000000000000000000000000000000000000000000000000000000000000000000000000000000000000000000000000000000000000000000000000000000000000000000000000000000",
            "coinbase" : "0x945304eb96065b2a98b57a48a06ae28d285a71b5",
            "difficulty" : "0x020000",
            "extraData" : "0x42",
            "gasLimit" : "0x7fffffffffffffff",
            "gasUsed" : "0x00",
            "hash" : "0x18987bd5ee16e33b36b9541818f9e742079bab0e362508ff3582de8d3ccfd218",
            "mixHash" : "0x56e81f171bcc55a6ff8345e692c0f86e5b48e01b996cadc001622fb5e363b421",
            "nonce" : "0x0102030405060708",
            "number" : "0x00",
            "parentHash" : "0x0000000000000000000000000000000000000000000000000000000000000000",
            "receiptTrie" : "0x56e81f171bcc55a6ff8345e692c0f86e5b48e01b996cadc001622fb5e363b421",
            "stateRoot" : "0x40d0e2b443823d4c29c8804f08785f838c18a41463c3359b37ad447f71a76cf1",
            "timestamp" : "0x03b6",
            "transactionsTrie" : "0x56e81f171bcc55a6ff8345e692c0f86e5b48e01b996cadc001622fb5e363b421",
            "uncleHash" : "0x1dcc4de8dec75d7aab85b567b6ccd41ad312451b948a7413f0a142fd40d49347"
        },
        "genesisRLP" : "0xf901fff901faa00000000000000000000000000000000000000000000000000000000000000000a01dcc4de8dec75d7aab85b567b6ccd41ad312451b948a7413f0a142fd40d4934794945304eb96065b2a98b57a48a06ae28d285a71b5a040d0e2b443823d4c29c8804f08785f838c18a41463c3359b37ad447f71a76cf1a056e81f171bcc55a6ff8345e692c0f86e5b48e01b996cadc001622fb5e363b421a056e81f171bcc55a6ff8345e692c0f86e5b48e01b996cadc001622fb5e363b421b90100000000000000000000000000000000000000000000000000000000000000000000000000000000000000000000000000000000000000000000000000000000000000000000000000000000000000000000000000000000000000000000000000000000000000000000000000000000000000000000000000000000000000000000000000000000000000000000000000000000000000000000000000000000000000000000000000000000000000000000000000000000000000000000000000000000000000000000000000000000000000000000000000000000000000000000000000000000000000000000000000000000000000000000000000000000008302000080887fffffffffffffff808203b642a056e81f171bcc55a6ff8345e692c0f86e5b48e01b996cadc001622fb5e363b421880102030405060708c0c0",
        "lastblockhash" : "0x7b985a02b0c3e7e0f0282456fc892f1bd584c169daead1a83503c5e6640cca24",
        "network" : "Metropolis",
        "postState" : {
            "0x00000000000000000000000000000000000000f0" : {
                "balance" : "0x00",
                "code" : "",
                "nonce" : "0x00",
                "storage" : {
                }
            },
            "0x095e7baea6a6c7c4c2dfeb977efac326af552d87" : {
                "balance" : "0x00",
                "code" : "0x0b7f00000000000000000000000000000000000000000000000000000000000000013c7f000000000000000000000000000000000000000000000000000000000000c350a345457fffffffffffffffffffffffffffffffffffffffffffffffffffffffffffffffff8287a3208c8c5a60005155",
                "nonce" : "0x00",
                "storage" : {
                }
            },
            "0x945304eb96065b2a98b57a48a06ae28d285a71b5" : {
                "balance" : "0x456391828d4d7894",
                "code" : "0x6000355415600957005b60203560003555",
                "nonce" : "0x00",
                "storage" : {
                }
            },
            "0xa94f5374fce5edbc8e2a8697c15331677e6ebf0b" : {
                "balance" : "0x0de0b6b35f0a879a",
                "code" : "",
                "nonce" : "0x01",
                "storage" : {
                }
            }
        },
        "pre" : {
            "0x095e7baea6a6c7c4c2dfeb977efac326af552d87" : {
                "balance" : "0x00",
                "code" : "0x0b7f00000000000000000000000000000000000000000000000000000000000000013c7f000000000000000000000000000000000000000000000000000000000000c350a345457fffffffffffffffffffffffffffffffffffffffffffffffffffffffffffffffff8287a3208c8c5a60005155",
                "nonce" : "0x00",
                "storage" : {
                }
            },
            "0x945304eb96065b2a98b57a48a06ae28d285a71b5" : {
                "balance" : "0x2e",
                "code" : "0x6000355415600957005b60203560003555",
                "nonce" : "0x00",
                "storage" : {
                }
            },
            "0xa94f5374fce5edbc8e2a8697c15331677e6ebf0b" : {
                "balance" : "0x0de0b6b3a7640000",
                "code" : "",
                "nonce" : "0x00",
                "storage" : {
                }
            }
        }
    }
}