{
    "randomStatetest136_d0g0v0_EIP150" : {
        "blocks" : [
            {
                "blockHeader" : {
                    "bloom" : "0x00000000000000001000000000000000000000000000000000000000000000000000000000000000000000000000000000000000000000000000000000000000000000000000000000000000000000000000000000000000800000000000000000000000000000000000000000000000000000000000000000000000000000000002000000000000000000000000000000000000000000000000000000000000000000000000000004000000000000000008000000000000000000000000000000000000000000000010000000000000000000000040000000000000000000000000000040000000000000000000000000000000000000400000000000000000",
                    "coinbase" : "0x945304eb96065b2a98b57a48a06ae28d285a71b5",
                    "difficulty" : "0x020000",
                    "extraData" : "",
                    "gasLimit" : "0x7fffffffffffffff",
                    "gasUsed" : "0xc251",
                    "hash" : "0x0cdeb65b3a2415e1d4a3e440211c17673176e381d79c22cfd908e91864b5fa32",
                    "mixHash" : "0x690a1d2e5d59c99c9e5b1a2214d33d97b4915e4d89260ffc83bdda10ebee44d4",
                    "nonce" : "0xf3ecff4472ce9ae8",
                    "number" : "0x01",
                    "parentHash" : "0xd5855ed8f7e3401e8707bf827664fec58d4383065e3b054b6e6f2f36fa61823a",
                    "receiptTrie" : "0xeb731980f5c2db5d354dd77284736a61d2c4dddb61c00bd4c1f6c98ab1593bc6",
                    "stateRoot" : "0x215c0ad6b6155805b3f5edd047b43aea8991bc0d4265e0732673d27738a2e2a2",
                    "timestamp" : "0x03e8",
                    "transactionsTrie" : "0x2e483c07d65a44180a691cf0864a8d7fd6d7155e91a60c6a77f010419c18c18b",
                    "uncleHash" : "0x1dcc4de8dec75d7aab85b567b6ccd41ad312451b948a7413f0a142fd40d49347"
                },
                "rlp" : "0xf90303f901fca0d5855ed8f7e3401e8707bf827664fec58d4383065e3b054b6e6f2f36fa61823aa01dcc4de8dec75d7aab85b567b6ccd41ad312451b948a7413f0a142fd40d4934794945304eb96065b2a98b57a48a06ae28d285a71b5a0215c0ad6b6155805b3f5edd047b43aea8991bc0d4265e0732673d27738a2e2a2a02e483c07d65a44180a691cf0864a8d7fd6d7155e91a60c6a77f010419c18c18ba0eb731980f5c2db5d354dd77284736a61d2c4dddb61c00bd4c1f6c98ab1593bc6b90100000000000000000010000000000000000000000000000000000000000000000000000000000000000000000000000000000000000000000000000000000000000000000000000000000000000000000000000000000000008000000000000000000000000000000000000000000000000000000000000000000000000000000000020000000000000000000000000000000000000000000000000000000000000000000000000000040000000000000000080000000000000000000000000000000000000000000000100000000000000000000000400000000000000000000000000000400000000000000000000000000000000000004000000000000000008302000001887fffffffffffffff82c2518203e880a0690a1d2e5d59c99c9e5b1a2214d33d97b4915e4d89260ffc83bdda10ebee44d488f3ecff4472ce9ae8f90100f8fe8001847f504af894095e7baea6a6c7c4c2dfeb977efac326af552d878435126cddb8987f000000000000000000000000945304eb96065b2a98b57a48a06ae28d285a71b57ffffffffffffffffffffffffffffffffffffffffffffffffffffffffffffffffe7ffffffffffffffffffffffffffffffffffffffffffffffffffffffffffffffffe45437f0000000000000000000000000000000000000000000000000000000000000001a26f5a6e9570705019164232776c738c8d871ba07799b9e0afe03b5797002aefc29140d05d6f0e911c0128330ae25733ef8b63d3a06f65bac28371733698f76a6cb7bca344a487b46cbdf0eede214f45af03cfd2cbc0",
                "transactions" : [
                    {
                        "data" : "0x7f000000000000000000000000945304eb96065b2a98b57a48a06ae28d285a71b57ffffffffffffffffffffffffffffffffffffffffffffffffffffffffffffffffe7ffffffffffffffffffffffffffffffffffffffffffffffffffffffffffffffffe45437f0000000000000000000000000000000000000000000000000000000000000001a26f5a6e9570705019164232776c738c8d87",
                        "gasLimit" : "0x7f504af8",
                        "gasPrice" : "0x01",
                        "nonce" : "0x00",
                        "r" : "0x7799b9e0afe03b5797002aefc29140d05d6f0e911c0128330ae25733ef8b63d3",
                        "s" : "0x6f65bac28371733698f76a6cb7bca344a487b46cbdf0eede214f45af03cfd2cb",
                        "to" : "0x095e7baea6a6c7c4c2dfeb977efac326af552d87",
                        "v" : "0x1b",
                        "value" : "0x35126cdd"
                    }
                ],
                "uncleHeaders" : [
                ]
            }
        ],
        "genesisBlockHeader" : {
            "bloom" : "0x00000000000000000000000000000000000000000000000000000000000000000000000000000000000000000000000000000000000000000000000000000000000000000000000000000000000000000000000000000000000000000000000000000000000000000000000000000000000000000000000000000000000000000000000000000000000000000000000000000000000000000000000000000000000000000000000000000000000000000000000000000000000000000000000000000000000000000000000000000000000000000000000000000000000000000000000000000000000000000000000000000000000000000000000000000000",
            "coinbase" : "0x945304eb96065b2a98b57a48a06ae28d285a71b5",
            "difficulty" : "0x020000",
            "extraData" : "0x42",
            "gasLimit" : "0x7fffffffffffffff",
            "gasUsed" : "0x00",
            "hash" : "0xd5855ed8f7e3401e8707bf827664fec58d4383065e3b054b6e6f2f36fa61823a",
            "mixHash" : "0x56e81f171bcc55a6ff8345e692c0f86e5b48e01b996cadc001622fb5e363b421",
            "nonce" : "0x0102030405060708",
            "number" : "0x00",
            "parentHash" : "0x0000000000000000000000000000000000000000000000000000000000000000",
            "receiptTrie" : "0x56e81f171bcc55a6ff8345e692c0f86e5b48e01b996cadc001622fb5e363b421",
            "stateRoot" : "0xf8d634ea250104845e4d0641491cf99eb833df829762b76513fef17f3b2f7551",
            "timestamp" : "0x03b6",
            "transactionsTrie" : "0x56e81f171bcc55a6ff8345e692c0f86e5b48e01b996cadc001622fb5e363b421",
            "uncleHash" : "0x1dcc4de8dec75d7aab85b567b6ccd41ad312451b948a7413f0a142fd40d49347"
        },
        "genesisRLP" : "0xf901fff901faa00000000000000000000000000000000000000000000000000000000000000000a01dcc4de8dec75d7aab85b567b6ccd41ad312451b948a7413f0a142fd40d4934794945304eb96065b2a98b57a48a06ae28d285a71b5a0f8d634ea250104845e4d0641491cf99eb833df829762b76513fef17f3b2f7551a056e81f171bcc55a6ff8345e692c0f86e5b48e01b996cadc001622fb5e363b421a056e81f171bcc55a6ff8345e692c0f86e5b48e01b996cadc001622fb5e363b421b90100000000000000000000000000000000000000000000000000000000000000000000000000000000000000000000000000000000000000000000000000000000000000000000000000000000000000000000000000000000000000000000000000000000000000000000000000000000000000000000000000000000000000000000000000000000000000000000000000000000000000000000000000000000000000000000000000000000000000000000000000000000000000000000000000000000000000000000000000000000000000000000000000000000000000000000000000000000000000000000000000000000000000000000000000000000008302000080887fffffffffffffff808203b642a056e81f171bcc55a6ff8345e692c0f86e5b48e01b996cadc001622fb5e363b421880102030405060708c0c0",
        "lastblockhash" : "0x0cdeb65b3a2415e1d4a3e440211c17673176e381d79c22cfd908e91864b5fa32",
        "network" : "EIP150",
        "postState" : {
            "0x095e7baea6a6c7c4c2dfeb977efac326af552d87" : {
                "balance" : "0x35126cdd",
                "code" : "0x7f000000000000000000000000945304eb96065b2a98b57a48a06ae28d285a71b57ffffffffffffffffffffffffffffffffffffffffffffffffffffffffffffffffe7ffffffffffffffffffffffffffffffffffffffffffffffffffffffffffffffffe45437f0000000000000000000000000000000000000000000000000000000000000001a26f5a6e9570705019164232776c738c8d8760005155",
                "nonce" : "0x00",
                "storage" : {
                    "0x00" : "0x5a6e9570705019164232776c738c8d87"
                }
            },
            "0x945304eb96065b2a98b57a48a06ae28d285a71b5" : {
                "balance" : "0x4563918244f4c27f",
                "code" : "0x6000355415600957005b60203560003555",
                "nonce" : "0x00",
                "storage" : {
                }
            },
            "0xa94f5374fce5edbc8e2a8697c15331677e6ebf0b" : {
                "balance" : "0x0de0b6b37250d0d2",
                "code" : "",
                "nonce" : "0x01",
                "storage" : {
                }
            }
        },
        "pre" : {
            "0x095e7baea6a6c7c4c2dfeb977efac326af552d87" : {
                "balance" : "0x00",
                "code" : "0x7f000000000000000000000000945304eb96065b2a98b57a48a06ae28d285a71b57ffffffffffffffffffffffffffffffffffffffffffffffffffffffffffffffffe7ffffffffffffffffffffffffffffffffffffffffffffffffffffffffffffffffe45437f0000000000000000000000000000000000000000000000000000000000000001a26f5a6e9570705019164232776c738c8d8760005155",
                "nonce" : "0x00",
                "storage" : {
                }
            },
            "0x945304eb96065b2a98b57a48a06ae28d285a71b5" : {
                "balance" : "0x2e",
                "code" : "0x6000355415600957005b60203560003555",
                "nonce" : "0x00",
                "storage" : {
                }
            },
            "0xa94f5374fce5edbc8e2a8697c15331677e6ebf0b" : {
                "balance" : "0x0de0b6b3a7640000",
                "code" : "",
                "nonce" : "0x00",
                "storage" : {
                }
            }
        }
    },
    "randomStatetest136_d0g0v0_EIP158" : {
        "blocks" : [
            {
                "blockHeader" : {
                    "bloom" : "0x00000000000000001000000000000000000000000000000000000000000000000000000000000000000000000000000000000000000000000000000000000000000000000000000000000000000000000000000000000000800000000000000000000000000000000000000000000000000000000000000000000000000000000002000000000000000000000000000000000000000000000000000000000000000000000000000004000000000000000008000000000000000000000000000000000000000000000010000000000000000000000040000000000000000000000000000040000000000000000000000000000000000000400000000000000000",
                    "coinbase" : "0x945304eb96065b2a98b57a48a06ae28d285a71b5",
                    "difficulty" : "0x020000",
                    "extraData" : "",
                    "gasLimit" : "0x7fffffffffffffff",
                    "gasUsed" : "0xc251",
                    "hash" : "0x6a0fb9d875580ece4034bdee99ca6520ab7d53392a98f5408d5975bfa4d72483",
                    "mixHash" : "0x73257e97e448de037b2d3fbb0c6d5e66e0d4575a4d9ac0288fc9b73bbb5a2ee0",
                    "nonce" : "0xb0fe0b8a89cb7952",
                    "number" : "0x01",
                    "parentHash" : "0xd5855ed8f7e3401e8707bf827664fec58d4383065e3b054b6e6f2f36fa61823a",
                    "receiptTrie" : "0xeb731980f5c2db5d354dd77284736a61d2c4dddb61c00bd4c1f6c98ab1593bc6",
                    "stateRoot" : "0x215c0ad6b6155805b3f5edd047b43aea8991bc0d4265e0732673d27738a2e2a2",
                    "timestamp" : "0x03e8",
                    "transactionsTrie" : "0x2e483c07d65a44180a691cf0864a8d7fd6d7155e91a60c6a77f010419c18c18b",
                    "uncleHash" : "0x1dcc4de8dec75d7aab85b567b6ccd41ad312451b948a7413f0a142fd40d49347"
                },
                "rlp" : "0xf90303f901fca0d5855ed8f7e3401e8707bf827664fec58d4383065e3b054b6e6f2f36fa61823aa01dcc4de8dec75d7aab85b567b6ccd41ad312451b948a7413f0a142fd40d4934794945304eb96065b2a98b57a48a06ae28d285a71b5a0215c0ad6b6155805b3f5edd047b43aea8991bc0d4265e0732673d27738a2e2a2a02e483c07d65a44180a691cf0864a8d7fd6d7155e91a60c6a77f010419c18c18ba0eb731980f5c2db5d354dd77284736a61d2c4dddb61c00bd4c1f6c98ab1593bc6b90100000000000000000010000000000000000000000000000000000000000000000000000000000000000000000000000000000000000000000000000000000000000000000000000000000000000000000000000000000000008000000000000000000000000000000000000000000000000000000000000000000000000000000000020000000000000000000000000000000000000000000000000000000000000000000000000000040000000000000000080000000000000000000000000000000000000000000000100000000000000000000000400000000000000000000000000000400000000000000000000000000000000000004000000000000000008302000001887fffffffffffffff82c2518203e880a073257e97e448de037b2d3fbb0c6d5e66e0d4575a4d9ac0288fc9b73bbb5a2ee088b0fe0b8a89cb7952f90100f8fe8001847f504af894095e7baea6a6c7c4c2dfeb977efac326af552d878435126cddb8987f000000000000000000000000945304eb96065b2a98b57a48a06ae28d285a71b57ffffffffffffffffffffffffffffffffffffffffffffffffffffffffffffffffe7ffffffffffffffffffffffffffffffffffffffffffffffffffffffffffffffffe45437f0000000000000000000000000000000000000000000000000000000000000001a26f5a6e9570705019164232776c738c8d871ba07799b9e0afe03b5797002aefc29140d05d6f0e911c0128330ae25733ef8b63d3a06f65bac28371733698f76a6cb7bca344a487b46cbdf0eede214f45af03cfd2cbc0",
                "transactions" : [
                    {
                        "data" : "0x7f000000000000000000000000945304eb96065b2a98b57a48a06ae28d285a71b57ffffffffffffffffffffffffffffffffffffffffffffffffffffffffffffffffe7ffffffffffffffffffffffffffffffffffffffffffffffffffffffffffffffffe45437f0000000000000000000000000000000000000000000000000000000000000001a26f5a6e9570705019164232776c738c8d87",
                        "gasLimit" : "0x7f504af8",
                        "gasPrice" : "0x01",
                        "nonce" : "0x00",
                        "r" : "0x7799b9e0afe03b5797002aefc29140d05d6f0e911c0128330ae25733ef8b63d3",
                        "s" : "0x6f65bac28371733698f76a6cb7bca344a487b46cbdf0eede214f45af03cfd2cb",
                        "to" : "0x095e7baea6a6c7c4c2dfeb977efac326af552d87",
                        "v" : "0x1b",
                        "value" : "0x35126cdd"
                    }
                ],
                "uncleHeaders" : [
                ]
            }
        ],
        "genesisBlockHeader" : {
            "bloom" : "0x00000000000000000000000000000000000000000000000000000000000000000000000000000000000000000000000000000000000000000000000000000000000000000000000000000000000000000000000000000000000000000000000000000000000000000000000000000000000000000000000000000000000000000000000000000000000000000000000000000000000000000000000000000000000000000000000000000000000000000000000000000000000000000000000000000000000000000000000000000000000000000000000000000000000000000000000000000000000000000000000000000000000000000000000000000000",
            "coinbase" : "0x945304eb96065b2a98b57a48a06ae28d285a71b5",
            "difficulty" : "0x020000",
            "extraData" : "0x42",
            "gasLimit" : "0x7fffffffffffffff",
            "gasUsed" : "0x00",
            "hash" : "0xd5855ed8f7e3401e8707bf827664fec58d4383065e3b054b6e6f2f36fa61823a",
            "mixHash" : "0x56e81f171bcc55a6ff8345e692c0f86e5b48e01b996cadc001622fb5e363b421",
            "nonce" : "0x0102030405060708",
            "number" : "0x00",
            "parentHash" : "0x0000000000000000000000000000000000000000000000000000000000000000",
            "receiptTrie" : "0x56e81f171bcc55a6ff8345e692c0f86e5b48e01b996cadc001622fb5e363b421",
            "stateRoot" : "0xf8d634ea250104845e4d0641491cf99eb833df829762b76513fef17f3b2f7551",
            "timestamp" : "0x03b6",
            "transactionsTrie" : "0x56e81f171bcc55a6ff8345e692c0f86e5b48e01b996cadc001622fb5e363b421",
            "uncleHash" : "0x1dcc4de8dec75d7aab85b567b6ccd41ad312451b948a7413f0a142fd40d49347"
        },
        "genesisRLP" : "0xf901fff901faa00000000000000000000000000000000000000000000000000000000000000000a01dcc4de8dec75d7aab85b567b6ccd41ad312451b948a7413f0a142fd40d4934794945304eb96065b2a98b57a48a06ae28d285a71b5a0f8d634ea250104845e4d0641491cf99eb833df829762b76513fef17f3b2f7551a056e81f171bcc55a6ff8345e692c0f86e5b48e01b996cadc001622fb5e363b421a056e81f171bcc55a6ff8345e692c0f86e5b48e01b996cadc001622fb5e363b421b90100000000000000000000000000000000000000000000000000000000000000000000000000000000000000000000000000000000000000000000000000000000000000000000000000000000000000000000000000000000000000000000000000000000000000000000000000000000000000000000000000000000000000000000000000000000000000000000000000000000000000000000000000000000000000000000000000000000000000000000000000000000000000000000000000000000000000000000000000000000000000000000000000000000000000000000000000000000000000000000000000000000000000000000000000000000008302000080887fffffffffffffff808203b642a056e81f171bcc55a6ff8345e692c0f86e5b48e01b996cadc001622fb5e363b421880102030405060708c0c0",
        "lastblockhash" : "0x6a0fb9d875580ece4034bdee99ca6520ab7d53392a98f5408d5975bfa4d72483",
        "network" : "EIP158",
        "postState" : {
            "0x095e7baea6a6c7c4c2dfeb977efac326af552d87" : {
                "balance" : "0x35126cdd",
                "code" : "0x7f000000000000000000000000945304eb96065b2a98b57a48a06ae28d285a71b57ffffffffffffffffffffffffffffffffffffffffffffffffffffffffffffffffe7ffffffffffffffffffffffffffffffffffffffffffffffffffffffffffffffffe45437f0000000000000000000000000000000000000000000000000000000000000001a26f5a6e9570705019164232776c738c8d8760005155",
                "nonce" : "0x00",
                "storage" : {
                    "0x00" : "0x5a6e9570705019164232776c738c8d87"
                }
            },
            "0x945304eb96065b2a98b57a48a06ae28d285a71b5" : {
                "balance" : "0x4563918244f4c27f",
                "code" : "0x6000355415600957005b60203560003555",
                "nonce" : "0x00",
                "storage" : {
                }
            },
            "0xa94f5374fce5edbc8e2a8697c15331677e6ebf0b" : {
                "balance" : "0x0de0b6b37250d0d2",
                "code" : "",
                "nonce" : "0x01",
                "storage" : {
                }
            }
        },
        "pre" : {
            "0x095e7baea6a6c7c4c2dfeb977efac326af552d87" : {
                "balance" : "0x00",
                "code" : "0x7f000000000000000000000000945304eb96065b2a98b57a48a06ae28d285a71b57ffffffffffffffffffffffffffffffffffffffffffffffffffffffffffffffffe7ffffffffffffffffffffffffffffffffffffffffffffffffffffffffffffffffe45437f0000000000000000000000000000000000000000000000000000000000000001a26f5a6e9570705019164232776c738c8d8760005155",
                "nonce" : "0x00",
                "storage" : {
                }
            },
            "0x945304eb96065b2a98b57a48a06ae28d285a71b5" : {
                "balance" : "0x2e",
                "code" : "0x6000355415600957005b60203560003555",
                "nonce" : "0x00",
                "storage" : {
                }
            },
            "0xa94f5374fce5edbc8e2a8697c15331677e6ebf0b" : {
                "balance" : "0x0de0b6b3a7640000",
                "code" : "",
                "nonce" : "0x00",
                "storage" : {
                }
            }
        }
    },
    "randomStatetest136_d0g0v0_Frontier" : {
        "blocks" : [
            {
                "blockHeader" : {
                    "bloom" : "0x00000000000000001000000000000000000000000000000000000000000000000000000000000000000000000000000000000000000000000000000000000000000000000000000000000000000000000000000000000000800000000000000000000000000000000000000000000000000000000000000000000000000000000002000000000000000000000000000000000000000000000000000000000000000000000000000004000000000000000008000000000000000000000000000000000000000000000010000000000000000000000040000000000000000000000000000040000000000000000000000000000000000000400000000000000000",
                    "coinbase" : "0x945304eb96065b2a98b57a48a06ae28d285a71b5",
                    "difficulty" : "0x020000",
                    "extraData" : "",
                    "gasLimit" : "0x7fffffffffffffff",
                    "gasUsed" : "0xc251",
                    "hash" : "0xe0d6e5a6e14ba6b32a481ee4b41d6f65fb8a67f442e2c0a96132000bd8390e60",
                    "mixHash" : "0x4f3481974a006dfb3612ee566d200f2ea62e5d10b9d521ea8812dd179527db08",
                    "nonce" : "0x4a056dcfb9122c75",
                    "number" : "0x01",
                    "parentHash" : "0xd5855ed8f7e3401e8707bf827664fec58d4383065e3b054b6e6f2f36fa61823a",
                    "receiptTrie" : "0xeb731980f5c2db5d354dd77284736a61d2c4dddb61c00bd4c1f6c98ab1593bc6",
                    "stateRoot" : "0x215c0ad6b6155805b3f5edd047b43aea8991bc0d4265e0732673d27738a2e2a2",
                    "timestamp" : "0x03e8",
                    "transactionsTrie" : "0x2e483c07d65a44180a691cf0864a8d7fd6d7155e91a60c6a77f010419c18c18b",
                    "uncleHash" : "0x1dcc4de8dec75d7aab85b567b6ccd41ad312451b948a7413f0a142fd40d49347"
                },
                "rlp" : "0xf90303f901fca0d5855ed8f7e3401e8707bf827664fec58d4383065e3b054b6e6f2f36fa61823aa01dcc4de8dec75d7aab85b567b6ccd41ad312451b948a7413f0a142fd40d4934794945304eb96065b2a98b57a48a06ae28d285a71b5a0215c0ad6b6155805b3f5edd047b43aea8991bc0d4265e0732673d27738a2e2a2a02e483c07d65a44180a691cf0864a8d7fd6d7155e91a60c6a77f010419c18c18ba0eb731980f5c2db5d354dd77284736a61d2c4dddb61c00bd4c1f6c98ab1593bc6b90100000000000000000010000000000000000000000000000000000000000000000000000000000000000000000000000000000000000000000000000000000000000000000000000000000000000000000000000000000000008000000000000000000000000000000000000000000000000000000000000000000000000000000000020000000000000000000000000000000000000000000000000000000000000000000000000000040000000000000000080000000000000000000000000000000000000000000000100000000000000000000000400000000000000000000000000000400000000000000000000000000000000000004000000000000000008302000001887fffffffffffffff82c2518203e880a04f3481974a006dfb3612ee566d200f2ea62e5d10b9d521ea8812dd179527db08884a056dcfb9122c75f90100f8fe8001847f504af894095e7baea6a6c7c4c2dfeb977efac326af552d878435126cddb8987f000000000000000000000000945304eb96065b2a98b57a48a06ae28d285a71b57ffffffffffffffffffffffffffffffffffffffffffffffffffffffffffffffffe7ffffffffffffffffffffffffffffffffffffffffffffffffffffffffffffffffe45437f0000000000000000000000000000000000000000000000000000000000000001a26f5a6e9570705019164232776c738c8d871ba07799b9e0afe03b5797002aefc29140d05d6f0e911c0128330ae25733ef8b63d3a06f65bac28371733698f76a6cb7bca344a487b46cbdf0eede214f45af03cfd2cbc0",
                "transactions" : [
                    {
                        "data" : "0x7f000000000000000000000000945304eb96065b2a98b57a48a06ae28d285a71b57ffffffffffffffffffffffffffffffffffffffffffffffffffffffffffffffffe7ffffffffffffffffffffffffffffffffffffffffffffffffffffffffffffffffe45437f0000000000000000000000000000000000000000000000000000000000000001a26f5a6e9570705019164232776c738c8d87",
                        "gasLimit" : "0x7f504af8",
                        "gasPrice" : "0x01",
                        "nonce" : "0x00",
                        "r" : "0x7799b9e0afe03b5797002aefc29140d05d6f0e911c0128330ae25733ef8b63d3",
                        "s" : "0x6f65bac28371733698f76a6cb7bca344a487b46cbdf0eede214f45af03cfd2cb",
                        "to" : "0x095e7baea6a6c7c4c2dfeb977efac326af552d87",
                        "v" : "0x1b",
                        "value" : "0x35126cdd"
                    }
                ],
                "uncleHeaders" : [
                ]
            }
        ],
        "genesisBlockHeader" : {
            "bloom" : "0x00000000000000000000000000000000000000000000000000000000000000000000000000000000000000000000000000000000000000000000000000000000000000000000000000000000000000000000000000000000000000000000000000000000000000000000000000000000000000000000000000000000000000000000000000000000000000000000000000000000000000000000000000000000000000000000000000000000000000000000000000000000000000000000000000000000000000000000000000000000000000000000000000000000000000000000000000000000000000000000000000000000000000000000000000000000",
            "coinbase" : "0x945304eb96065b2a98b57a48a06ae28d285a71b5",
            "difficulty" : "0x020000",
            "extraData" : "0x42",
            "gasLimit" : "0x7fffffffffffffff",
            "gasUsed" : "0x00",
            "hash" : "0xd5855ed8f7e3401e8707bf827664fec58d4383065e3b054b6e6f2f36fa61823a",
            "mixHash" : "0x56e81f171bcc55a6ff8345e692c0f86e5b48e01b996cadc001622fb5e363b421",
            "nonce" : "0x0102030405060708",
            "number" : "0x00",
            "parentHash" : "0x0000000000000000000000000000000000000000000000000000000000000000",
            "receiptTrie" : "0x56e81f171bcc55a6ff8345e692c0f86e5b48e01b996cadc001622fb5e363b421",
            "stateRoot" : "0xf8d634ea250104845e4d0641491cf99eb833df829762b76513fef17f3b2f7551",
            "timestamp" : "0x03b6",
            "transactionsTrie" : "0x56e81f171bcc55a6ff8345e692c0f86e5b48e01b996cadc001622fb5e363b421",
            "uncleHash" : "0x1dcc4de8dec75d7aab85b567b6ccd41ad312451b948a7413f0a142fd40d49347"
        },
        "genesisRLP" : "0xf901fff901faa00000000000000000000000000000000000000000000000000000000000000000a01dcc4de8dec75d7aab85b567b6ccd41ad312451b948a7413f0a142fd40d4934794945304eb96065b2a98b57a48a06ae28d285a71b5a0f8d634ea250104845e4d0641491cf99eb833df829762b76513fef17f3b2f7551a056e81f171bcc55a6ff8345e692c0f86e5b48e01b996cadc001622fb5e363b421a056e81f171bcc55a6ff8345e692c0f86e5b48e01b996cadc001622fb5e363b421b90100000000000000000000000000000000000000000000000000000000000000000000000000000000000000000000000000000000000000000000000000000000000000000000000000000000000000000000000000000000000000000000000000000000000000000000000000000000000000000000000000000000000000000000000000000000000000000000000000000000000000000000000000000000000000000000000000000000000000000000000000000000000000000000000000000000000000000000000000000000000000000000000000000000000000000000000000000000000000000000000000000000000000000000000000000000008302000080887fffffffffffffff808203b642a056e81f171bcc55a6ff8345e692c0f86e5b48e01b996cadc001622fb5e363b421880102030405060708c0c0",
        "lastblockhash" : "0xe0d6e5a6e14ba6b32a481ee4b41d6f65fb8a67f442e2c0a96132000bd8390e60",
        "network" : "Frontier",
        "postState" : {
            "0x095e7baea6a6c7c4c2dfeb977efac326af552d87" : {
                "balance" : "0x35126cdd",
                "code" : "0x7f000000000000000000000000945304eb96065b2a98b57a48a06ae28d285a71b57ffffffffffffffffffffffffffffffffffffffffffffffffffffffffffffffffe7ffffffffffffffffffffffffffffffffffffffffffffffffffffffffffffffffe45437f0000000000000000000000000000000000000000000000000000000000000001a26f5a6e9570705019164232776c738c8d8760005155",
                "nonce" : "0x00",
                "storage" : {
                    "0x00" : "0x5a6e9570705019164232776c738c8d87"
                }
            },
            "0x945304eb96065b2a98b57a48a06ae28d285a71b5" : {
                "balance" : "0x4563918244f4c27f",
                "code" : "0x6000355415600957005b60203560003555",
                "nonce" : "0x00",
                "storage" : {
                }
            },
            "0xa94f5374fce5edbc8e2a8697c15331677e6ebf0b" : {
                "balance" : "0x0de0b6b37250d0d2",
                "code" : "",
                "nonce" : "0x01",
                "storage" : {
                }
            }
        },
        "pre" : {
            "0x095e7baea6a6c7c4c2dfeb977efac326af552d87" : {
                "balance" : "0x00",
                "code" : "0x7f000000000000000000000000945304eb96065b2a98b57a48a06ae28d285a71b57ffffffffffffffffffffffffffffffffffffffffffffffffffffffffffffffffe7ffffffffffffffffffffffffffffffffffffffffffffffffffffffffffffffffe45437f0000000000000000000000000000000000000000000000000000000000000001a26f5a6e9570705019164232776c738c8d8760005155",
                "nonce" : "0x00",
                "storage" : {
                }
            },
            "0x945304eb96065b2a98b57a48a06ae28d285a71b5" : {
                "balance" : "0x2e",
                "code" : "0x6000355415600957005b60203560003555",
                "nonce" : "0x00",
                "storage" : {
                }
            },
            "0xa94f5374fce5edbc8e2a8697c15331677e6ebf0b" : {
                "balance" : "0x0de0b6b3a7640000",
                "code" : "",
                "nonce" : "0x00",
                "storage" : {
                }
            }
        }
    },
    "randomStatetest136_d0g0v0_Homestead" : {
        "blocks" : [
            {
                "blockHeader" : {
                    "bloom" : "0x00000000000000001000000000000000000000000000000000000000000000000000000000000000000000000000000000000000000000000000000000000000000000000000000000000000000000000000000000000000800000000000000000000000000000000000000000000000000000000000000000000000000000000002000000000000000000000000000000000000000000000000000000000000000000000000000004000000000000000008000000000000000000000000000000000000000000000010000000000000000000000040000000000000000000000000000040000000000000000000000000000000000000400000000000000000",
                    "coinbase" : "0x945304eb96065b2a98b57a48a06ae28d285a71b5",
                    "difficulty" : "0x020000",
                    "extraData" : "",
                    "gasLimit" : "0x7fffffffffffffff",
                    "gasUsed" : "0xc251",
                    "hash" : "0x2dcd2c9a1d67900d504f1755bdc157960ddb98ce4b4d72c17900c1959352af0c",
                    "mixHash" : "0x537c72d94da83cf5a8e787a85d9316b3aabc73d778986a663685075393ddc5f0",
                    "nonce" : "0x44e062b299650831",
                    "number" : "0x01",
                    "parentHash" : "0xd5855ed8f7e3401e8707bf827664fec58d4383065e3b054b6e6f2f36fa61823a",
                    "receiptTrie" : "0xeb731980f5c2db5d354dd77284736a61d2c4dddb61c00bd4c1f6c98ab1593bc6",
                    "stateRoot" : "0x215c0ad6b6155805b3f5edd047b43aea8991bc0d4265e0732673d27738a2e2a2",
                    "timestamp" : "0x03e8",
                    "transactionsTrie" : "0x2e483c07d65a44180a691cf0864a8d7fd6d7155e91a60c6a77f010419c18c18b",
                    "uncleHash" : "0x1dcc4de8dec75d7aab85b567b6ccd41ad312451b948a7413f0a142fd40d49347"
                },
                "rlp" : "0xf90303f901fca0d5855ed8f7e3401e8707bf827664fec58d4383065e3b054b6e6f2f36fa61823aa01dcc4de8dec75d7aab85b567b6ccd41ad312451b948a7413f0a142fd40d4934794945304eb96065b2a98b57a48a06ae28d285a71b5a0215c0ad6b6155805b3f5edd047b43aea8991bc0d4265e0732673d27738a2e2a2a02e483c07d65a44180a691cf0864a8d7fd6d7155e91a60c6a77f010419c18c18ba0eb731980f5c2db5d354dd77284736a61d2c4dddb61c00bd4c1f6c98ab1593bc6b90100000000000000000010000000000000000000000000000000000000000000000000000000000000000000000000000000000000000000000000000000000000000000000000000000000000000000000000000000000000008000000000000000000000000000000000000000000000000000000000000000000000000000000000020000000000000000000000000000000000000000000000000000000000000000000000000000040000000000000000080000000000000000000000000000000000000000000000100000000000000000000000400000000000000000000000000000400000000000000000000000000000000000004000000000000000008302000001887fffffffffffffff82c2518203e880a0537c72d94da83cf5a8e787a85d9316b3aabc73d778986a663685075393ddc5f08844e062b299650831f90100f8fe8001847f504af894095e7baea6a6c7c4c2dfeb977efac326af552d878435126cddb8987f000000000000000000000000945304eb96065b2a98b57a48a06ae28d285a71b57ffffffffffffffffffffffffffffffffffffffffffffffffffffffffffffffffe7ffffffffffffffffffffffffffffffffffffffffffffffffffffffffffffffffe45437f0000000000000000000000000000000000000000000000000000000000000001a26f5a6e9570705019164232776c738c8d871ba07799b9e0afe03b5797002aefc29140d05d6f0e911c0128330ae25733ef8b63d3a06f65bac28371733698f76a6cb7bca344a487b46cbdf0eede214f45af03cfd2cbc0",
                "transactions" : [
                    {
                        "data" : "0x7f000000000000000000000000945304eb96065b2a98b57a48a06ae28d285a71b57ffffffffffffffffffffffffffffffffffffffffffffffffffffffffffffffffe7ffffffffffffffffffffffffffffffffffffffffffffffffffffffffffffffffe45437f0000000000000000000000000000000000000000000000000000000000000001a26f5a6e9570705019164232776c738c8d87",
                        "gasLimit" : "0x7f504af8",
                        "gasPrice" : "0x01",
                        "nonce" : "0x00",
                        "r" : "0x7799b9e0afe03b5797002aefc29140d05d6f0e911c0128330ae25733ef8b63d3",
                        "s" : "0x6f65bac28371733698f76a6cb7bca344a487b46cbdf0eede214f45af03cfd2cb",
                        "to" : "0x095e7baea6a6c7c4c2dfeb977efac326af552d87",
                        "v" : "0x1b",
                        "value" : "0x35126cdd"
                    }
                ],
                "uncleHeaders" : [
                ]
            }
        ],
        "genesisBlockHeader" : {
            "bloom" : "0x00000000000000000000000000000000000000000000000000000000000000000000000000000000000000000000000000000000000000000000000000000000000000000000000000000000000000000000000000000000000000000000000000000000000000000000000000000000000000000000000000000000000000000000000000000000000000000000000000000000000000000000000000000000000000000000000000000000000000000000000000000000000000000000000000000000000000000000000000000000000000000000000000000000000000000000000000000000000000000000000000000000000000000000000000000000",
            "coinbase" : "0x945304eb96065b2a98b57a48a06ae28d285a71b5",
            "difficulty" : "0x020000",
            "extraData" : "0x42",
            "gasLimit" : "0x7fffffffffffffff",
            "gasUsed" : "0x00",
            "hash" : "0xd5855ed8f7e3401e8707bf827664fec58d4383065e3b054b6e6f2f36fa61823a",
            "mixHash" : "0x56e81f171bcc55a6ff8345e692c0f86e5b48e01b996cadc001622fb5e363b421",
            "nonce" : "0x0102030405060708",
            "number" : "0x00",
            "parentHash" : "0x0000000000000000000000000000000000000000000000000000000000000000",
            "receiptTrie" : "0x56e81f171bcc55a6ff8345e692c0f86e5b48e01b996cadc001622fb5e363b421",
            "stateRoot" : "0xf8d634ea250104845e4d0641491cf99eb833df829762b76513fef17f3b2f7551",
            "timestamp" : "0x03b6",
            "transactionsTrie" : "0x56e81f171bcc55a6ff8345e692c0f86e5b48e01b996cadc001622fb5e363b421",
            "uncleHash" : "0x1dcc4de8dec75d7aab85b567b6ccd41ad312451b948a7413f0a142fd40d49347"
        },
        "genesisRLP" : "0xf901fff901faa00000000000000000000000000000000000000000000000000000000000000000a01dcc4de8dec75d7aab85b567b6ccd41ad312451b948a7413f0a142fd40d4934794945304eb96065b2a98b57a48a06ae28d285a71b5a0f8d634ea250104845e4d0641491cf99eb833df829762b76513fef17f3b2f7551a056e81f171bcc55a6ff8345e692c0f86e5b48e01b996cadc001622fb5e363b421a056e81f171bcc55a6ff8345e692c0f86e5b48e01b996cadc001622fb5e363b421b90100000000000000000000000000000000000000000000000000000000000000000000000000000000000000000000000000000000000000000000000000000000000000000000000000000000000000000000000000000000000000000000000000000000000000000000000000000000000000000000000000000000000000000000000000000000000000000000000000000000000000000000000000000000000000000000000000000000000000000000000000000000000000000000000000000000000000000000000000000000000000000000000000000000000000000000000000000000000000000000000000000000000000000000000000000000008302000080887fffffffffffffff808203b642a056e81f171bcc55a6ff8345e692c0f86e5b48e01b996cadc001622fb5e363b421880102030405060708c0c0",
        "lastblockhash" : "0x2dcd2c9a1d67900d504f1755bdc157960ddb98ce4b4d72c17900c1959352af0c",
        "network" : "Homestead",
        "postState" : {
            "0x095e7baea6a6c7c4c2dfeb977efac326af552d87" : {
                "balance" : "0x35126cdd",
                "code" : "0x7f000000000000000000000000945304eb96065b2a98b57a48a06ae28d285a71b57ffffffffffffffffffffffffffffffffffffffffffffffffffffffffffffffffe7ffffffffffffffffffffffffffffffffffffffffffffffffffffffffffffffffe45437f0000000000000000000000000000000000000000000000000000000000000001a26f5a6e9570705019164232776c738c8d8760005155",
                "nonce" : "0x00",
                "storage" : {
                    "0x00" : "0x5a6e9570705019164232776c738c8d87"
                }
            },
            "0x945304eb96065b2a98b57a48a06ae28d285a71b5" : {
                "balance" : "0x4563918244f4c27f",
                "code" : "0x6000355415600957005b60203560003555",
                "nonce" : "0x00",
                "storage" : {
                }
            },
            "0xa94f5374fce5edbc8e2a8697c15331677e6ebf0b" : {
                "balance" : "0x0de0b6b37250d0d2",
                "code" : "",
                "nonce" : "0x01",
                "storage" : {
                }
            }
        },
        "pre" : {
            "0x095e7baea6a6c7c4c2dfeb977efac326af552d87" : {
                "balance" : "0x00",
                "code" : "0x7f000000000000000000000000945304eb96065b2a98b57a48a06ae28d285a71b57ffffffffffffffffffffffffffffffffffffffffffffffffffffffffffffffffe7ffffffffffffffffffffffffffffffffffffffffffffffffffffffffffffffffe45437f0000000000000000000000000000000000000000000000000000000000000001a26f5a6e9570705019164232776c738c8d8760005155",
                "nonce" : "0x00",
                "storage" : {
                }
            },
            "0x945304eb96065b2a98b57a48a06ae28d285a71b5" : {
                "balance" : "0x2e",
                "code" : "0x6000355415600957005b60203560003555",
                "nonce" : "0x00",
                "storage" : {
                }
            },
            "0xa94f5374fce5edbc8e2a8697c15331677e6ebf0b" : {
                "balance" : "0x0de0b6b3a7640000",
                "code" : "",
                "nonce" : "0x00",
                "storage" : {
                }
            }
        }
    },
    "randomStatetest136_d0g0v0_Metropolis" : {
        "blocks" : [
            {
                "blockHeader" : {
                    "bloom" : "0x00000000000000001000000000000000000000000000000000000000000000000000000000000000000000000000000000000000000000000000000000000000000000000000000000000000000000000000000000000000800000000000000000000000000000000000000000000000000000000000000000000000000000000002000000000000000000000000000000000000000000000000000000000000000000000000000004000000000000000008000000000000000000000000000000000000000000000010000000000000000000000040000000000000000000000000000040000000000000000000000000000000000000400000000000000000",
                    "coinbase" : "0x945304eb96065b2a98b57a48a06ae28d285a71b5",
                    "difficulty" : "0x020000",
                    "extraData" : "",
                    "gasLimit" : "0x7fffffffffffffff",
                    "gasUsed" : "0xc251",
                    "hash" : "0x55c206a14edbffa8e1acf6d142d649060bc0c6ac6d342d5623b7074eb9c7d52b",
                    "mixHash" : "0x788d283d0ff6bb1ed3781611029e71694f266f9c1188d36a79b7c6e19fb569cc",
                    "nonce" : "0x256f29f08d9e4138",
                    "number" : "0x01",
                    "parentHash" : "0xd5855ed8f7e3401e8707bf827664fec58d4383065e3b054b6e6f2f36fa61823a",
                    "receiptTrie" : "0x96b7863232c008e925afddca45f4b7577b66e3bf69dd12322fc20058dfb1c446",
                    "stateRoot" : "0xeb162007c75422c458060a463766a887fd0c157d902aa590025f15d9b963e307",
                    "timestamp" : "0x03e8",
                    "transactionsTrie" : "0x2e483c07d65a44180a691cf0864a8d7fd6d7155e91a60c6a77f010419c18c18b",
                    "uncleHash" : "0x1dcc4de8dec75d7aab85b567b6ccd41ad312451b948a7413f0a142fd40d49347"
                },
                "rlp" : "0xf90303f901fca0d5855ed8f7e3401e8707bf827664fec58d4383065e3b054b6e6f2f36fa61823aa01dcc4de8dec75d7aab85b567b6ccd41ad312451b948a7413f0a142fd40d4934794945304eb96065b2a98b57a48a06ae28d285a71b5a0eb162007c75422c458060a463766a887fd0c157d902aa590025f15d9b963e307a02e483c07d65a44180a691cf0864a8d7fd6d7155e91a60c6a77f010419c18c18ba096b7863232c008e925afddca45f4b7577b66e3bf69dd12322fc20058dfb1c446b90100000000000000000010000000000000000000000000000000000000000000000000000000000000000000000000000000000000000000000000000000000000000000000000000000000000000000000000000000000000008000000000000000000000000000000000000000000000000000000000000000000000000000000000020000000000000000000000000000000000000000000000000000000000000000000000000000040000000000000000080000000000000000000000000000000000000000000000100000000000000000000000400000000000000000000000000000400000000000000000000000000000000000004000000000000000008302000001887fffffffffffffff82c2518203e880a0788d283d0ff6bb1ed3781611029e71694f266f9c1188d36a79b7c6e19fb569cc88256f29f08d9e4138f90100f8fe8001847f504af894095e7baea6a6c7c4c2dfeb977efac326af552d878435126cddb8987f000000000000000000000000945304eb96065b2a98b57a48a06ae28d285a71b57ffffffffffffffffffffffffffffffffffffffffffffffffffffffffffffffffe7ffffffffffffffffffffffffffffffffffffffffffffffffffffffffffffffffe45437f0000000000000000000000000000000000000000000000000000000000000001a26f5a6e9570705019164232776c738c8d871ba07799b9e0afe03b5797002aefc29140d05d6f0e911c0128330ae25733ef8b63d3a06f65bac28371733698f76a6cb7bca344a487b46cbdf0eede214f45af03cfd2cbc0",
                "transactions" : [
                    {
                        "data" : "0x7f000000000000000000000000945304eb96065b2a98b57a48a06ae28d285a71b57ffffffffffffffffffffffffffffffffffffffffffffffffffffffffffffffffe7ffffffffffffffffffffffffffffffffffffffffffffffffffffffffffffffffe45437f0000000000000000000000000000000000000000000000000000000000000001a26f5a6e9570705019164232776c738c8d87",
                        "gasLimit" : "0x7f504af8",
                        "gasPrice" : "0x01",
                        "nonce" : "0x00",
                        "r" : "0x7799b9e0afe03b5797002aefc29140d05d6f0e911c0128330ae25733ef8b63d3",
                        "s" : "0x6f65bac28371733698f76a6cb7bca344a487b46cbdf0eede214f45af03cfd2cb",
                        "to" : "0x095e7baea6a6c7c4c2dfeb977efac326af552d87",
                        "v" : "0x1b",
                        "value" : "0x35126cdd"
                    }
                ],
                "uncleHeaders" : [
                ]
            }
        ],
        "genesisBlockHeader" : {
            "bloom" : "0x00000000000000000000000000000000000000000000000000000000000000000000000000000000000000000000000000000000000000000000000000000000000000000000000000000000000000000000000000000000000000000000000000000000000000000000000000000000000000000000000000000000000000000000000000000000000000000000000000000000000000000000000000000000000000000000000000000000000000000000000000000000000000000000000000000000000000000000000000000000000000000000000000000000000000000000000000000000000000000000000000000000000000000000000000000000",
            "coinbase" : "0x945304eb96065b2a98b57a48a06ae28d285a71b5",
            "difficulty" : "0x020000",
            "extraData" : "0x42",
            "gasLimit" : "0x7fffffffffffffff",
            "gasUsed" : "0x00",
            "hash" : "0xd5855ed8f7e3401e8707bf827664fec58d4383065e3b054b6e6f2f36fa61823a",
            "mixHash" : "0x56e81f171bcc55a6ff8345e692c0f86e5b48e01b996cadc001622fb5e363b421",
            "nonce" : "0x0102030405060708",
            "number" : "0x00",
            "parentHash" : "0x0000000000000000000000000000000000000000000000000000000000000000",
            "receiptTrie" : "0x56e81f171bcc55a6ff8345e692c0f86e5b48e01b996cadc001622fb5e363b421",
            "stateRoot" : "0xf8d634ea250104845e4d0641491cf99eb833df829762b76513fef17f3b2f7551",
            "timestamp" : "0x03b6",
            "transactionsTrie" : "0x56e81f171bcc55a6ff8345e692c0f86e5b48e01b996cadc001622fb5e363b421",
            "uncleHash" : "0x1dcc4de8dec75d7aab85b567b6ccd41ad312451b948a7413f0a142fd40d49347"
        },
        "genesisRLP" : "0xf901fff901faa00000000000000000000000000000000000000000000000000000000000000000a01dcc4de8dec75d7aab85b567b6ccd41ad312451b948a7413f0a142fd40d4934794945304eb96065b2a98b57a48a06ae28d285a71b5a0f8d634ea250104845e4d0641491cf99eb833df829762b76513fef17f3b2f7551a056e81f171bcc55a6ff8345e692c0f86e5b48e01b996cadc001622fb5e363b421a056e81f171bcc55a6ff8345e692c0f86e5b48e01b996cadc001622fb5e363b421b90100000000000000000000000000000000000000000000000000000000000000000000000000000000000000000000000000000000000000000000000000000000000000000000000000000000000000000000000000000000000000000000000000000000000000000000000000000000000000000000000000000000000000000000000000000000000000000000000000000000000000000000000000000000000000000000000000000000000000000000000000000000000000000000000000000000000000000000000000000000000000000000000000000000000000000000000000000000000000000000000000000000000000000000000000000000008302000080887fffffffffffffff808203b642a056e81f171bcc55a6ff8345e692c0f86e5b48e01b996cadc001622fb5e363b421880102030405060708c0c0",
        "lastblockhash" : "0x55c206a14edbffa8e1acf6d142d649060bc0c6ac6d342d5623b7074eb9c7d52b",
        "network" : "Metropolis",
        "postState" : {
            "0x00000000000000000000000000000000000000f0" : {
                "balance" : "0x00",
                "code" : "",
                "nonce" : "0x00",
                "storage" : {
                }
            },
            "0x095e7baea6a6c7c4c2dfeb977efac326af552d87" : {
                "balance" : "0x35126cdd",
                "code" : "0x7f000000000000000000000000945304eb96065b2a98b57a48a06ae28d285a71b57ffffffffffffffffffffffffffffffffffffffffffffffffffffffffffffffffe7ffffffffffffffffffffffffffffffffffffffffffffffffffffffffffffffffe45437f0000000000000000000000000000000000000000000000000000000000000001a26f5a6e9570705019164232776c738c8d8760005155",
                "nonce" : "0x00",
                "storage" : {
                    "0x00" : "0x5a6e9570705019164232776c738c8d87"
                }
            },
            "0x945304eb96065b2a98b57a48a06ae28d285a71b5" : {
                "balance" : "0x4563918244f4c27f",
                "code" : "0x6000355415600957005b60203560003555",
                "nonce" : "0x00",
                "storage" : {
                }
            },
            "0xa94f5374fce5edbc8e2a8697c15331677e6ebf0b" : {
                "balance" : "0x0de0b6b37250d0d2",
                "code" : "",
                "nonce" : "0x01",
                "storage" : {
                }
            }
        },
        "pre" : {
            "0x095e7baea6a6c7c4c2dfeb977efac326af552d87" : {
                "balance" : "0x00",
                "code" : "0x7f000000000000000000000000945304eb96065b2a98b57a48a06ae28d285a71b57ffffffffffffffffffffffffffffffffffffffffffffffffffffffffffffffffe7ffffffffffffffffffffffffffffffffffffffffffffffffffffffffffffffffe45437f0000000000000000000000000000000000000000000000000000000000000001a26f5a6e9570705019164232776c738c8d8760005155",
                "nonce" : "0x00",
                "storage" : {
                }
            },
            "0x945304eb96065b2a98b57a48a06ae28d285a71b5" : {
                "balance" : "0x2e",
                "code" : "0x6000355415600957005b60203560003555",
                "nonce" : "0x00",
                "storage" : {
                }
            },
            "0xa94f5374fce5edbc8e2a8697c15331677e6ebf0b" : {
                "balance" : "0x0de0b6b3a7640000",
                "code" : "",
                "nonce" : "0x00",
                "storage" : {
                }
            }
        }
    }
}