{
    "randomStatetest111_d0g0v0_EIP150" : {
        "_info" : {
            "comment" : "",
            "filledwith" : "cpp-1.3.0+commit.16292201.Linux.g++",
            "source" : "/src/GenStateTestAsBcTemp/stRandom/randomStatetest111_d0g0v0Filler.json"
        },
        "blocks" : [
            {
                "blockHeader" : {
                    "bloom" : "0x00000000000000001000000000000000000000000000000000000000000000000000000000000000000000000000000000000000000000000000000000000000000000000000000000000000000000000000000000000000000000000000000000000010000000000000000000000000000000000000000000000000000000000000000000000000000000002000000000000000000000000000000000000000000000000000000004000000000000000000000000000000000000000000000000000000000000000000000000000000000000000000000000000000000000000000000040080000000000000000000000000000000000000000000000000000",
                    "coinbase" : "0x945304eb96065b2a98b57a48a06ae28d285a71b5",
                    "difficulty" : "0x020000",
                    "extraData" : "",
                    "gasLimit" : "0x7fffffffffffffff",
                    "gasUsed" : "0x06a827",
                    "hash" : "0x09fec9f07b4f2ee81cd55bd920423c6b13fec2fff00e30f54f56e2846d9537b0",
                    "mixHash" : "0x80d09dcc74cfedc17ba72546f3089b4e14f950c2f998ff8f68e3d35723b0166a",
                    "nonce" : "0x8683f0ec1d3b7534",
                    "number" : "0x01",
                    "parentHash" : "0xf086904645e059c4e0f54ee8a7775bffc8903d786d0f84d0c6b69b33da587d0b",
                    "receiptTrie" : "0xab8db1f739e35a84b743aa1d1a7f898af92ec984701fc2e9a3d320f8bc3f122c",
                    "stateRoot" : "0xc7f04409da11f22c1a959cf0fcb301d3253f9e4cb47dc72d4c76df4df6b79541",
                    "timestamp" : "0x03e8",
                    "transactionsTrie" : "0xd5b6fc7075bb88ebdb94a9fadf671c1fd6d8b61362769c2692c16eeaad163730",
                    "uncleHash" : "0x1dcc4de8dec75d7aab85b567b6ccd41ad312451b948a7413f0a142fd40d49347"
                },
                "rlp" : "0xf90318f901fda0f086904645e059c4e0f54ee8a7775bffc8903d786d0f84d0c6b69b33da587d0ba01dcc4de8dec75d7aab85b567b6ccd41ad312451b948a7413f0a142fd40d4934794945304eb96065b2a98b57a48a06ae28d285a71b5a0c7f04409da11f22c1a959cf0fcb301d3253f9e4cb47dc72d4c76df4df6b79541a0d5b6fc7075bb88ebdb94a9fadf671c1fd6d8b61362769c2692c16eeaad163730a0ab8db1f739e35a84b743aa1d1a7f898af92ec984701fc2e9a3d320f8bc3f122cb90100000000000000000010000000000000000000000000000000000000000000000000000000000000000000000000000000000000000000000000000000000000000000000000000000000000000000000000000000000000000000000000000000000000100000000000000000000000000000000000000000000000000000000000000000000000000000000020000000000000000000000000000000000000000000000000000000040000000000000000000000000000000000000000000000000000000000000000000000000000000000000000000000000000000000000000000000400800000000000000000000000000000000000000000000000000008302000001887fffffffffffffff8306a8278203e880a080d09dcc74cfedc17ba72546f3089b4e14f950c2f998ff8f68e3d35723b0166a888683f0ec1d3b7534f90114f901118001845a11064f94095e7baea6a6c7c4c2dfeb977efac326af552d8784030247dcb8ab7fffffffffffffffffffffffffffffffffffffffffffffffffffffffffffffffff7f000000000000000000000000000000000000000000000000000000000000c3507f000000000000000000000000ffffffffffffffffffffffffffffffffffffffff7f000000000000000000000000000000000000000000000000000000000000c35059a17f0000000000000000000000000000000000000000000000000000000000000001f38f07bf1ca08b7b51b0f38ddbe8b1ead1636389b3fb3a112c97017857a2f8f0d3170559d471a011edfec390d93132d51acf7527d8413d1d67cd08b30c77e49c0db8bc93655bbac0",
                "transactions" : [
                    {
                        "data" : "0x7fffffffffffffffffffffffffffffffffffffffffffffffffffffffffffffffff7f000000000000000000000000000000000000000000000000000000000000c3507f000000000000000000000000ffffffffffffffffffffffffffffffffffffffff7f000000000000000000000000000000000000000000000000000000000000c35059a17f0000000000000000000000000000000000000000000000000000000000000001f38f07bf",
                        "gasLimit" : "0x5a11064f",
                        "gasPrice" : "0x01",
                        "nonce" : "0x00",
                        "r" : "0x8b7b51b0f38ddbe8b1ead1636389b3fb3a112c97017857a2f8f0d3170559d471",
                        "s" : "0x11edfec390d93132d51acf7527d8413d1d67cd08b30c77e49c0db8bc93655bba",
                        "to" : "0x095e7baea6a6c7c4c2dfeb977efac326af552d87",
                        "v" : "0x1c",
                        "value" : "0x030247dc"
                    }
                ],
                "uncleHeaders" : [
                ]
            }
        ],
        "genesisBlockHeader" : {
            "bloom" : "0x00000000000000000000000000000000000000000000000000000000000000000000000000000000000000000000000000000000000000000000000000000000000000000000000000000000000000000000000000000000000000000000000000000000000000000000000000000000000000000000000000000000000000000000000000000000000000000000000000000000000000000000000000000000000000000000000000000000000000000000000000000000000000000000000000000000000000000000000000000000000000000000000000000000000000000000000000000000000000000000000000000000000000000000000000000000",
            "coinbase" : "0x945304eb96065b2a98b57a48a06ae28d285a71b5",
            "difficulty" : "0x020000",
            "extraData" : "0x42",
            "gasLimit" : "0x7fffffffffffffff",
            "gasUsed" : "0x00",
            "hash" : "0xf086904645e059c4e0f54ee8a7775bffc8903d786d0f84d0c6b69b33da587d0b",
            "mixHash" : "0x56e81f171bcc55a6ff8345e692c0f86e5b48e01b996cadc001622fb5e363b421",
            "nonce" : "0x0102030405060708",
            "number" : "0x00",
            "parentHash" : "0x0000000000000000000000000000000000000000000000000000000000000000",
            "receiptTrie" : "0x56e81f171bcc55a6ff8345e692c0f86e5b48e01b996cadc001622fb5e363b421",
            "stateRoot" : "0x2b1d4bc40ac0178331301cdc61aff5577414aeb868d0875c49d84c397f2ea192",
            "timestamp" : "0x03b6",
            "transactionsTrie" : "0x56e81f171bcc55a6ff8345e692c0f86e5b48e01b996cadc001622fb5e363b421",
            "uncleHash" : "0x1dcc4de8dec75d7aab85b567b6ccd41ad312451b948a7413f0a142fd40d49347"
        },
        "genesisRLP" : "0xf901fff901faa00000000000000000000000000000000000000000000000000000000000000000a01dcc4de8dec75d7aab85b567b6ccd41ad312451b948a7413f0a142fd40d4934794945304eb96065b2a98b57a48a06ae28d285a71b5a02b1d4bc40ac0178331301cdc61aff5577414aeb868d0875c49d84c397f2ea192a056e81f171bcc55a6ff8345e692c0f86e5b48e01b996cadc001622fb5e363b421a056e81f171bcc55a6ff8345e692c0f86e5b48e01b996cadc001622fb5e363b421b90100000000000000000000000000000000000000000000000000000000000000000000000000000000000000000000000000000000000000000000000000000000000000000000000000000000000000000000000000000000000000000000000000000000000000000000000000000000000000000000000000000000000000000000000000000000000000000000000000000000000000000000000000000000000000000000000000000000000000000000000000000000000000000000000000000000000000000000000000000000000000000000000000000000000000000000000000000000000000000000000000000000000000000000000000000000008302000080887fffffffffffffff808203b642a056e81f171bcc55a6ff8345e692c0f86e5b48e01b996cadc001622fb5e363b421880102030405060708c0c0",
        "lastblockhash" : "0x09fec9f07b4f2ee81cd55bd920423c6b13fec2fff00e30f54f56e2846d9537b0",
        "network" : "EIP150",
        "postState" : {
            "0x095e7baea6a6c7c4c2dfeb977efac326af552d87" : {
                "balance" : "0x030247dc",
                "code" : "0x7fffffffffffffffffffffffffffffffffffffffffffffffffffffffffffffffff7f000000000000000000000000000000000000000000000000000000000000c3507f000000000000000000000000ffffffffffffffffffffffffffffffffffffffff7f000000000000000000000000000000000000000000000000000000000000c35059a17f0000000000000000000000000000000000000000000000000000000000000001f38f07bf60005155",
                "nonce" : "0x00",
                "storage" : {
                }
            },
            "0x945304eb96065b2a98b57a48a06ae28d285a71b5" : {
                "balance" : "0x4563918244faa855",
                "code" : "0x6000355415600957005b60203560003555",
                "nonce" : "0x00",
                "storage" : {
                }
            },
            "0xa94f5374fce5edbc8e2a8697c15331677e6ebf0b" : {
                "balance" : "0x0de0b6b3a45b0ffd",
                "code" : "",
                "nonce" : "0x01",
                "storage" : {
                }
            }
        },
        "pre" : {
            "0x095e7baea6a6c7c4c2dfeb977efac326af552d87" : {
                "balance" : "0x00",
                "code" : "0x7fffffffffffffffffffffffffffffffffffffffffffffffffffffffffffffffff7f000000000000000000000000000000000000000000000000000000000000c3507f000000000000000000000000ffffffffffffffffffffffffffffffffffffffff7f000000000000000000000000000000000000000000000000000000000000c35059a17f0000000000000000000000000000000000000000000000000000000000000001f38f07bf60005155",
                "nonce" : "0x00",
                "storage" : {
                }
            },
            "0x945304eb96065b2a98b57a48a06ae28d285a71b5" : {
                "balance" : "0x2e",
                "code" : "0x6000355415600957005b60203560003555",
                "nonce" : "0x00",
                "storage" : {
                }
            },
            "0xa94f5374fce5edbc8e2a8697c15331677e6ebf0b" : {
                "balance" : "0x0de0b6b3a7640000",
                "code" : "",
                "nonce" : "0x00",
                "storage" : {
                }
            }
        }
    },
    "randomStatetest111_d0g0v0_EIP158" : {
        "_info" : {
            "comment" : "",
            "filledwith" : "cpp-1.3.0+commit.16292201.Linux.g++",
            "source" : "/src/GenStateTestAsBcTemp/stRandom/randomStatetest111_d0g0v0Filler.json"
        },
        "blocks" : [
            {
                "blockHeader" : {
                    "bloom" : "0x00000000000000001000000000000000000000000000000000000000000000000000000000000000000000000000000000000000000000000000000000000000000000000000000000000000000000000000000000000000000000000000000000000010000000000000000000000000000000000000000000000000000000000000000000000000000000002000000000000000000000000000000000000000000000000000000004000000000000000000000000000000000000000000000000000000000000000000000000000000000000000000000000000000000000000000000040080000000000000000000000000000000000000000000000000000",
                    "coinbase" : "0x945304eb96065b2a98b57a48a06ae28d285a71b5",
                    "difficulty" : "0x020000",
                    "extraData" : "",
                    "gasLimit" : "0x7fffffffffffffff",
                    "gasUsed" : "0x06a827",
                    "hash" : "0x549783cfcbbcdfb3f5412c55c307c914f3cd4f27f70c765b0191c782e4dc34ea",
                    "mixHash" : "0x08bd271e7afdf5b74a4b4da35908e282c8bb9091e10994e7af057945287d0d21",
                    "nonce" : "0x0c31c2211a38f329",
                    "number" : "0x01",
                    "parentHash" : "0xf086904645e059c4e0f54ee8a7775bffc8903d786d0f84d0c6b69b33da587d0b",
                    "receiptTrie" : "0xab8db1f739e35a84b743aa1d1a7f898af92ec984701fc2e9a3d320f8bc3f122c",
                    "stateRoot" : "0xc7f04409da11f22c1a959cf0fcb301d3253f9e4cb47dc72d4c76df4df6b79541",
                    "timestamp" : "0x03e8",
                    "transactionsTrie" : "0xd5b6fc7075bb88ebdb94a9fadf671c1fd6d8b61362769c2692c16eeaad163730",
                    "uncleHash" : "0x1dcc4de8dec75d7aab85b567b6ccd41ad312451b948a7413f0a142fd40d49347"
                },
                "rlp" : "0xf90318f901fda0f086904645e059c4e0f54ee8a7775bffc8903d786d0f84d0c6b69b33da587d0ba01dcc4de8dec75d7aab85b567b6ccd41ad312451b948a7413f0a142fd40d4934794945304eb96065b2a98b57a48a06ae28d285a71b5a0c7f04409da11f22c1a959cf0fcb301d3253f9e4cb47dc72d4c76df4df6b79541a0d5b6fc7075bb88ebdb94a9fadf671c1fd6d8b61362769c2692c16eeaad163730a0ab8db1f739e35a84b743aa1d1a7f898af92ec984701fc2e9a3d320f8bc3f122cb90100000000000000000010000000000000000000000000000000000000000000000000000000000000000000000000000000000000000000000000000000000000000000000000000000000000000000000000000000000000000000000000000000000000100000000000000000000000000000000000000000000000000000000000000000000000000000000020000000000000000000000000000000000000000000000000000000040000000000000000000000000000000000000000000000000000000000000000000000000000000000000000000000000000000000000000000000400800000000000000000000000000000000000000000000000000008302000001887fffffffffffffff8306a8278203e880a008bd271e7afdf5b74a4b4da35908e282c8bb9091e10994e7af057945287d0d21880c31c2211a38f329f90114f901118001845a11064f94095e7baea6a6c7c4c2dfeb977efac326af552d8784030247dcb8ab7fffffffffffffffffffffffffffffffffffffffffffffffffffffffffffffffff7f000000000000000000000000000000000000000000000000000000000000c3507f000000000000000000000000ffffffffffffffffffffffffffffffffffffffff7f000000000000000000000000000000000000000000000000000000000000c35059a17f0000000000000000000000000000000000000000000000000000000000000001f38f07bf1ca08b7b51b0f38ddbe8b1ead1636389b3fb3a112c97017857a2f8f0d3170559d471a011edfec390d93132d51acf7527d8413d1d67cd08b30c77e49c0db8bc93655bbac0",
                "transactions" : [
                    {
                        "data" : "0x7fffffffffffffffffffffffffffffffffffffffffffffffffffffffffffffffff7f000000000000000000000000000000000000000000000000000000000000c3507f000000000000000000000000ffffffffffffffffffffffffffffffffffffffff7f000000000000000000000000000000000000000000000000000000000000c35059a17f0000000000000000000000000000000000000000000000000000000000000001f38f07bf",
                        "gasLimit" : "0x5a11064f",
                        "gasPrice" : "0x01",
                        "nonce" : "0x00",
                        "r" : "0x8b7b51b0f38ddbe8b1ead1636389b3fb3a112c97017857a2f8f0d3170559d471",
                        "s" : "0x11edfec390d93132d51acf7527d8413d1d67cd08b30c77e49c0db8bc93655bba",
                        "to" : "0x095e7baea6a6c7c4c2dfeb977efac326af552d87",
                        "v" : "0x1c",
                        "value" : "0x030247dc"
                    }
                ],
                "uncleHeaders" : [
                ]
            }
        ],
        "genesisBlockHeader" : {
            "bloom" : "0x00000000000000000000000000000000000000000000000000000000000000000000000000000000000000000000000000000000000000000000000000000000000000000000000000000000000000000000000000000000000000000000000000000000000000000000000000000000000000000000000000000000000000000000000000000000000000000000000000000000000000000000000000000000000000000000000000000000000000000000000000000000000000000000000000000000000000000000000000000000000000000000000000000000000000000000000000000000000000000000000000000000000000000000000000000000",
            "coinbase" : "0x945304eb96065b2a98b57a48a06ae28d285a71b5",
            "difficulty" : "0x020000",
            "extraData" : "0x42",
            "gasLimit" : "0x7fffffffffffffff",
            "gasUsed" : "0x00",
            "hash" : "0xf086904645e059c4e0f54ee8a7775bffc8903d786d0f84d0c6b69b33da587d0b",
            "mixHash" : "0x56e81f171bcc55a6ff8345e692c0f86e5b48e01b996cadc001622fb5e363b421",
            "nonce" : "0x0102030405060708",
            "number" : "0x00",
            "parentHash" : "0x0000000000000000000000000000000000000000000000000000000000000000",
            "receiptTrie" : "0x56e81f171bcc55a6ff8345e692c0f86e5b48e01b996cadc001622fb5e363b421",
            "stateRoot" : "0x2b1d4bc40ac0178331301cdc61aff5577414aeb868d0875c49d84c397f2ea192",
            "timestamp" : "0x03b6",
            "transactionsTrie" : "0x56e81f171bcc55a6ff8345e692c0f86e5b48e01b996cadc001622fb5e363b421",
            "uncleHash" : "0x1dcc4de8dec75d7aab85b567b6ccd41ad312451b948a7413f0a142fd40d49347"
        },
        "genesisRLP" : "0xf901fff901faa00000000000000000000000000000000000000000000000000000000000000000a01dcc4de8dec75d7aab85b567b6ccd41ad312451b948a7413f0a142fd40d4934794945304eb96065b2a98b57a48a06ae28d285a71b5a02b1d4bc40ac0178331301cdc61aff5577414aeb868d0875c49d84c397f2ea192a056e81f171bcc55a6ff8345e692c0f86e5b48e01b996cadc001622fb5e363b421a056e81f171bcc55a6ff8345e692c0f86e5b48e01b996cadc001622fb5e363b421b90100000000000000000000000000000000000000000000000000000000000000000000000000000000000000000000000000000000000000000000000000000000000000000000000000000000000000000000000000000000000000000000000000000000000000000000000000000000000000000000000000000000000000000000000000000000000000000000000000000000000000000000000000000000000000000000000000000000000000000000000000000000000000000000000000000000000000000000000000000000000000000000000000000000000000000000000000000000000000000000000000000000000000000000000000000000008302000080887fffffffffffffff808203b642a056e81f171bcc55a6ff8345e692c0f86e5b48e01b996cadc001622fb5e363b421880102030405060708c0c0",
        "lastblockhash" : "0x549783cfcbbcdfb3f5412c55c307c914f3cd4f27f70c765b0191c782e4dc34ea",
        "network" : "EIP158",
        "postState" : {
            "0x095e7baea6a6c7c4c2dfeb977efac326af552d87" : {
                "balance" : "0x030247dc",
                "code" : "0x7fffffffffffffffffffffffffffffffffffffffffffffffffffffffffffffffff7f000000000000000000000000000000000000000000000000000000000000c3507f000000000000000000000000ffffffffffffffffffffffffffffffffffffffff7f000000000000000000000000000000000000000000000000000000000000c35059a17f0000000000000000000000000000000000000000000000000000000000000001f38f07bf60005155",
                "nonce" : "0x00",
                "storage" : {
                }
            },
            "0x945304eb96065b2a98b57a48a06ae28d285a71b5" : {
                "balance" : "0x4563918244faa855",
                "code" : "0x6000355415600957005b60203560003555",
                "nonce" : "0x00",
                "storage" : {
                }
            },
            "0xa94f5374fce5edbc8e2a8697c15331677e6ebf0b" : {
                "balance" : "0x0de0b6b3a45b0ffd",
                "code" : "",
                "nonce" : "0x01",
                "storage" : {
                }
            }
        },
        "pre" : {
            "0x095e7baea6a6c7c4c2dfeb977efac326af552d87" : {
                "balance" : "0x00",
                "code" : "0x7fffffffffffffffffffffffffffffffffffffffffffffffffffffffffffffffff7f000000000000000000000000000000000000000000000000000000000000c3507f000000000000000000000000ffffffffffffffffffffffffffffffffffffffff7f000000000000000000000000000000000000000000000000000000000000c35059a17f0000000000000000000000000000000000000000000000000000000000000001f38f07bf60005155",
                "nonce" : "0x00",
                "storage" : {
                }
            },
            "0x945304eb96065b2a98b57a48a06ae28d285a71b5" : {
                "balance" : "0x2e",
                "code" : "0x6000355415600957005b60203560003555",
                "nonce" : "0x00",
                "storage" : {
                }
            },
            "0xa94f5374fce5edbc8e2a8697c15331677e6ebf0b" : {
                "balance" : "0x0de0b6b3a7640000",
                "code" : "",
                "nonce" : "0x00",
                "storage" : {
                }
            }
        }
    },
    "randomStatetest111_d0g0v0_Frontier" : {
        "_info" : {
            "comment" : "",
            "filledwith" : "cpp-1.3.0+commit.16292201.Linux.g++",
            "source" : "/src/GenStateTestAsBcTemp/stRandom/randomStatetest111_d0g0v0Filler.json"
        },
        "blocks" : [
            {
                "blockHeader" : {
                    "bloom" : "0x00000000000000001000000000000000000000000000000000000000000000000000000000000000000000000000000000000000000000000000000000000000000000000000000000000000000000000000000000000000000000000000000000000010000000000000000000000000000000000000000000000000000000000000000000000000000000002000000000000000000000000000000000000000000000000000000004000000000000000000000000000000000000000000000000000000000000000000000000000000000000000000000000000000000000000000000040080000000000000000000000000000000000000000000000000000",
                    "coinbase" : "0x945304eb96065b2a98b57a48a06ae28d285a71b5",
                    "difficulty" : "0x020000",
                    "extraData" : "",
                    "gasLimit" : "0x7fffffffffffffff",
                    "gasUsed" : "0x06a827",
                    "hash" : "0x32ef3c2730629294630f2eb8c2554821b228d40376becf32a5c49eb28fd50d4e",
                    "mixHash" : "0x63c6a754df20390e085b62a06b04f035db04fcdfce01eb75c01886e9aabf5328",
                    "nonce" : "0xa7f8ec5ffb76abbe",
                    "number" : "0x01",
                    "parentHash" : "0xf086904645e059c4e0f54ee8a7775bffc8903d786d0f84d0c6b69b33da587d0b",
                    "receiptTrie" : "0xab8db1f739e35a84b743aa1d1a7f898af92ec984701fc2e9a3d320f8bc3f122c",
                    "stateRoot" : "0xc7f04409da11f22c1a959cf0fcb301d3253f9e4cb47dc72d4c76df4df6b79541",
                    "timestamp" : "0x03e8",
                    "transactionsTrie" : "0xd5b6fc7075bb88ebdb94a9fadf671c1fd6d8b61362769c2692c16eeaad163730",
                    "uncleHash" : "0x1dcc4de8dec75d7aab85b567b6ccd41ad312451b948a7413f0a142fd40d49347"
                },
                "rlp" : "0xf90318f901fda0f086904645e059c4e0f54ee8a7775bffc8903d786d0f84d0c6b69b33da587d0ba01dcc4de8dec75d7aab85b567b6ccd41ad312451b948a7413f0a142fd40d4934794945304eb96065b2a98b57a48a06ae28d285a71b5a0c7f04409da11f22c1a959cf0fcb301d3253f9e4cb47dc72d4c76df4df6b79541a0d5b6fc7075bb88ebdb94a9fadf671c1fd6d8b61362769c2692c16eeaad163730a0ab8db1f739e35a84b743aa1d1a7f898af92ec984701fc2e9a3d320f8bc3f122cb90100000000000000000010000000000000000000000000000000000000000000000000000000000000000000000000000000000000000000000000000000000000000000000000000000000000000000000000000000000000000000000000000000000000100000000000000000000000000000000000000000000000000000000000000000000000000000000020000000000000000000000000000000000000000000000000000000040000000000000000000000000000000000000000000000000000000000000000000000000000000000000000000000000000000000000000000000400800000000000000000000000000000000000000000000000000008302000001887fffffffffffffff8306a8278203e880a063c6a754df20390e085b62a06b04f035db04fcdfce01eb75c01886e9aabf532888a7f8ec5ffb76abbef90114f901118001845a11064f94095e7baea6a6c7c4c2dfeb977efac326af552d8784030247dcb8ab7fffffffffffffffffffffffffffffffffffffffffffffffffffffffffffffffff7f000000000000000000000000000000000000000000000000000000000000c3507f000000000000000000000000ffffffffffffffffffffffffffffffffffffffff7f000000000000000000000000000000000000000000000000000000000000c35059a17f0000000000000000000000000000000000000000000000000000000000000001f38f07bf1ca08b7b51b0f38ddbe8b1ead1636389b3fb3a112c97017857a2f8f0d3170559d471a011edfec390d93132d51acf7527d8413d1d67cd08b30c77e49c0db8bc93655bbac0",
                "transactions" : [
                    {
                        "data" : "0x7fffffffffffffffffffffffffffffffffffffffffffffffffffffffffffffffff7f000000000000000000000000000000000000000000000000000000000000c3507f000000000000000000000000ffffffffffffffffffffffffffffffffffffffff7f000000000000000000000000000000000000000000000000000000000000c35059a17f0000000000000000000000000000000000000000000000000000000000000001f38f07bf",
                        "gasLimit" : "0x5a11064f",
                        "gasPrice" : "0x01",
                        "nonce" : "0x00",
                        "r" : "0x8b7b51b0f38ddbe8b1ead1636389b3fb3a112c97017857a2f8f0d3170559d471",
                        "s" : "0x11edfec390d93132d51acf7527d8413d1d67cd08b30c77e49c0db8bc93655bba",
                        "to" : "0x095e7baea6a6c7c4c2dfeb977efac326af552d87",
                        "v" : "0x1c",
                        "value" : "0x030247dc"
                    }
                ],
                "uncleHeaders" : [
                ]
            }
        ],
        "genesisBlockHeader" : {
            "bloom" : "0x00000000000000000000000000000000000000000000000000000000000000000000000000000000000000000000000000000000000000000000000000000000000000000000000000000000000000000000000000000000000000000000000000000000000000000000000000000000000000000000000000000000000000000000000000000000000000000000000000000000000000000000000000000000000000000000000000000000000000000000000000000000000000000000000000000000000000000000000000000000000000000000000000000000000000000000000000000000000000000000000000000000000000000000000000000000",
            "coinbase" : "0x945304eb96065b2a98b57a48a06ae28d285a71b5",
            "difficulty" : "0x020000",
            "extraData" : "0x42",
            "gasLimit" : "0x7fffffffffffffff",
            "gasUsed" : "0x00",
            "hash" : "0xf086904645e059c4e0f54ee8a7775bffc8903d786d0f84d0c6b69b33da587d0b",
            "mixHash" : "0x56e81f171bcc55a6ff8345e692c0f86e5b48e01b996cadc001622fb5e363b421",
            "nonce" : "0x0102030405060708",
            "number" : "0x00",
            "parentHash" : "0x0000000000000000000000000000000000000000000000000000000000000000",
            "receiptTrie" : "0x56e81f171bcc55a6ff8345e692c0f86e5b48e01b996cadc001622fb5e363b421",
            "stateRoot" : "0x2b1d4bc40ac0178331301cdc61aff5577414aeb868d0875c49d84c397f2ea192",
            "timestamp" : "0x03b6",
            "transactionsTrie" : "0x56e81f171bcc55a6ff8345e692c0f86e5b48e01b996cadc001622fb5e363b421",
            "uncleHash" : "0x1dcc4de8dec75d7aab85b567b6ccd41ad312451b948a7413f0a142fd40d49347"
        },
        "genesisRLP" : "0xf901fff901faa00000000000000000000000000000000000000000000000000000000000000000a01dcc4de8dec75d7aab85b567b6ccd41ad312451b948a7413f0a142fd40d4934794945304eb96065b2a98b57a48a06ae28d285a71b5a02b1d4bc40ac0178331301cdc61aff5577414aeb868d0875c49d84c397f2ea192a056e81f171bcc55a6ff8345e692c0f86e5b48e01b996cadc001622fb5e363b421a056e81f171bcc55a6ff8345e692c0f86e5b48e01b996cadc001622fb5e363b421b90100000000000000000000000000000000000000000000000000000000000000000000000000000000000000000000000000000000000000000000000000000000000000000000000000000000000000000000000000000000000000000000000000000000000000000000000000000000000000000000000000000000000000000000000000000000000000000000000000000000000000000000000000000000000000000000000000000000000000000000000000000000000000000000000000000000000000000000000000000000000000000000000000000000000000000000000000000000000000000000000000000000000000000000000000000000008302000080887fffffffffffffff808203b642a056e81f171bcc55a6ff8345e692c0f86e5b48e01b996cadc001622fb5e363b421880102030405060708c0c0",
        "lastblockhash" : "0x32ef3c2730629294630f2eb8c2554821b228d40376becf32a5c49eb28fd50d4e",
        "network" : "Frontier",
        "postState" : {
            "0x095e7baea6a6c7c4c2dfeb977efac326af552d87" : {
                "balance" : "0x030247dc",
                "code" : "0x7fffffffffffffffffffffffffffffffffffffffffffffffffffffffffffffffff7f000000000000000000000000000000000000000000000000000000000000c3507f000000000000000000000000ffffffffffffffffffffffffffffffffffffffff7f000000000000000000000000000000000000000000000000000000000000c35059a17f0000000000000000000000000000000000000000000000000000000000000001f38f07bf60005155",
                "nonce" : "0x00",
                "storage" : {
                }
            },
            "0x945304eb96065b2a98b57a48a06ae28d285a71b5" : {
                "balance" : "0x4563918244faa855",
                "code" : "0x6000355415600957005b60203560003555",
                "nonce" : "0x00",
                "storage" : {
                }
            },
            "0xa94f5374fce5edbc8e2a8697c15331677e6ebf0b" : {
                "balance" : "0x0de0b6b3a45b0ffd",
                "code" : "",
                "nonce" : "0x01",
                "storage" : {
                }
            }
        },
        "pre" : {
            "0x095e7baea6a6c7c4c2dfeb977efac326af552d87" : {
                "balance" : "0x00",
                "code" : "0x7fffffffffffffffffffffffffffffffffffffffffffffffffffffffffffffffff7f000000000000000000000000000000000000000000000000000000000000c3507f000000000000000000000000ffffffffffffffffffffffffffffffffffffffff7f000000000000000000000000000000000000000000000000000000000000c35059a17f0000000000000000000000000000000000000000000000000000000000000001f38f07bf60005155",
                "nonce" : "0x00",
                "storage" : {
                }
            },
            "0x945304eb96065b2a98b57a48a06ae28d285a71b5" : {
                "balance" : "0x2e",
                "code" : "0x6000355415600957005b60203560003555",
                "nonce" : "0x00",
                "storage" : {
                }
            },
            "0xa94f5374fce5edbc8e2a8697c15331677e6ebf0b" : {
                "balance" : "0x0de0b6b3a7640000",
                "code" : "",
                "nonce" : "0x00",
                "storage" : {
                }
            }
        }
    },
    "randomStatetest111_d0g0v0_Homestead" : {
        "_info" : {
            "comment" : "",
            "filledwith" : "cpp-1.3.0+commit.16292201.Linux.g++",
            "source" : "/src/GenStateTestAsBcTemp/stRandom/randomStatetest111_d0g0v0Filler.json"
        },
        "blocks" : [
            {
                "blockHeader" : {
                    "bloom" : "0x00000000000000001000000000000000000000000000000000000000000000000000000000000000000000000000000000000000000000000000000000000000000000000000000000000000000000000000000000000000000000000000000000000010000000000000000000000000000000000000000000000000000000000000000000000000000000002000000000000000000000000000000000000000000000000000000004000000000000000000000000000000000000000000000000000000000000000000000000000000000000000000000000000000000000000000000040080000000000000000000000000000000000000000000000000000",
                    "coinbase" : "0x945304eb96065b2a98b57a48a06ae28d285a71b5",
                    "difficulty" : "0x020000",
                    "extraData" : "",
                    "gasLimit" : "0x7fffffffffffffff",
                    "gasUsed" : "0x06a827",
                    "hash" : "0xa8f81db7b08e7a87c7dcdad53327c228dc298a58e06dea53f0bcbb98b8d5b665",
                    "mixHash" : "0xf0a7986e34b373e44c8756e0cc734258f51acacde6d313545f205bb3ec1d3259",
                    "nonce" : "0xc9c69ca8cfd7522b",
                    "number" : "0x01",
                    "parentHash" : "0xf086904645e059c4e0f54ee8a7775bffc8903d786d0f84d0c6b69b33da587d0b",
                    "receiptTrie" : "0xab8db1f739e35a84b743aa1d1a7f898af92ec984701fc2e9a3d320f8bc3f122c",
                    "stateRoot" : "0xc7f04409da11f22c1a959cf0fcb301d3253f9e4cb47dc72d4c76df4df6b79541",
                    "timestamp" : "0x03e8",
                    "transactionsTrie" : "0xd5b6fc7075bb88ebdb94a9fadf671c1fd6d8b61362769c2692c16eeaad163730",
                    "uncleHash" : "0x1dcc4de8dec75d7aab85b567b6ccd41ad312451b948a7413f0a142fd40d49347"
                },
                "rlp" : "0xf90318f901fda0f086904645e059c4e0f54ee8a7775bffc8903d786d0f84d0c6b69b33da587d0ba01dcc4de8dec75d7aab85b567b6ccd41ad312451b948a7413f0a142fd40d4934794945304eb96065b2a98b57a48a06ae28d285a71b5a0c7f04409da11f22c1a959cf0fcb301d3253f9e4cb47dc72d4c76df4df6b79541a0d5b6fc7075bb88ebdb94a9fadf671c1fd6d8b61362769c2692c16eeaad163730a0ab8db1f739e35a84b743aa1d1a7f898af92ec984701fc2e9a3d320f8bc3f122cb90100000000000000000010000000000000000000000000000000000000000000000000000000000000000000000000000000000000000000000000000000000000000000000000000000000000000000000000000000000000000000000000000000000000100000000000000000000000000000000000000000000000000000000000000000000000000000000020000000000000000000000000000000000000000000000000000000040000000000000000000000000000000000000000000000000000000000000000000000000000000000000000000000000000000000000000000000400800000000000000000000000000000000000000000000000000008302000001887fffffffffffffff8306a8278203e880a0f0a7986e34b373e44c8756e0cc734258f51acacde6d313545f205bb3ec1d325988c9c69ca8cfd7522bf90114f901118001845a11064f94095e7baea6a6c7c4c2dfeb977efac326af552d8784030247dcb8ab7fffffffffffffffffffffffffffffffffffffffffffffffffffffffffffffffff7f000000000000000000000000000000000000000000000000000000000000c3507f000000000000000000000000ffffffffffffffffffffffffffffffffffffffff7f000000000000000000000000000000000000000000000000000000000000c35059a17f0000000000000000000000000000000000000000000000000000000000000001f38f07bf1ca08b7b51b0f38ddbe8b1ead1636389b3fb3a112c97017857a2f8f0d3170559d471a011edfec390d93132d51acf7527d8413d1d67cd08b30c77e49c0db8bc93655bbac0",
                "transactions" : [
                    {
                        "data" : "0x7fffffffffffffffffffffffffffffffffffffffffffffffffffffffffffffffff7f000000000000000000000000000000000000000000000000000000000000c3507f000000000000000000000000ffffffffffffffffffffffffffffffffffffffff7f000000000000000000000000000000000000000000000000000000000000c35059a17f0000000000000000000000000000000000000000000000000000000000000001f38f07bf",
                        "gasLimit" : "0x5a11064f",
                        "gasPrice" : "0x01",
                        "nonce" : "0x00",
                        "r" : "0x8b7b51b0f38ddbe8b1ead1636389b3fb3a112c97017857a2f8f0d3170559d471",
                        "s" : "0x11edfec390d93132d51acf7527d8413d1d67cd08b30c77e49c0db8bc93655bba",
                        "to" : "0x095e7baea6a6c7c4c2dfeb977efac326af552d87",
                        "v" : "0x1c",
                        "value" : "0x030247dc"
                    }
                ],
                "uncleHeaders" : [
                ]
            }
        ],
        "genesisBlockHeader" : {
            "bloom" : "0x00000000000000000000000000000000000000000000000000000000000000000000000000000000000000000000000000000000000000000000000000000000000000000000000000000000000000000000000000000000000000000000000000000000000000000000000000000000000000000000000000000000000000000000000000000000000000000000000000000000000000000000000000000000000000000000000000000000000000000000000000000000000000000000000000000000000000000000000000000000000000000000000000000000000000000000000000000000000000000000000000000000000000000000000000000000",
            "coinbase" : "0x945304eb96065b2a98b57a48a06ae28d285a71b5",
            "difficulty" : "0x020000",
            "extraData" : "0x42",
            "gasLimit" : "0x7fffffffffffffff",
            "gasUsed" : "0x00",
            "hash" : "0xf086904645e059c4e0f54ee8a7775bffc8903d786d0f84d0c6b69b33da587d0b",
            "mixHash" : "0x56e81f171bcc55a6ff8345e692c0f86e5b48e01b996cadc001622fb5e363b421",
            "nonce" : "0x0102030405060708",
            "number" : "0x00",
            "parentHash" : "0x0000000000000000000000000000000000000000000000000000000000000000",
            "receiptTrie" : "0x56e81f171bcc55a6ff8345e692c0f86e5b48e01b996cadc001622fb5e363b421",
            "stateRoot" : "0x2b1d4bc40ac0178331301cdc61aff5577414aeb868d0875c49d84c397f2ea192",
            "timestamp" : "0x03b6",
            "transactionsTrie" : "0x56e81f171bcc55a6ff8345e692c0f86e5b48e01b996cadc001622fb5e363b421",
            "uncleHash" : "0x1dcc4de8dec75d7aab85b567b6ccd41ad312451b948a7413f0a142fd40d49347"
        },
        "genesisRLP" : "0xf901fff901faa00000000000000000000000000000000000000000000000000000000000000000a01dcc4de8dec75d7aab85b567b6ccd41ad312451b948a7413f0a142fd40d4934794945304eb96065b2a98b57a48a06ae28d285a71b5a02b1d4bc40ac0178331301cdc61aff5577414aeb868d0875c49d84c397f2ea192a056e81f171bcc55a6ff8345e692c0f86e5b48e01b996cadc001622fb5e363b421a056e81f171bcc55a6ff8345e692c0f86e5b48e01b996cadc001622fb5e363b421b90100000000000000000000000000000000000000000000000000000000000000000000000000000000000000000000000000000000000000000000000000000000000000000000000000000000000000000000000000000000000000000000000000000000000000000000000000000000000000000000000000000000000000000000000000000000000000000000000000000000000000000000000000000000000000000000000000000000000000000000000000000000000000000000000000000000000000000000000000000000000000000000000000000000000000000000000000000000000000000000000000000000000000000000000000000000008302000080887fffffffffffffff808203b642a056e81f171bcc55a6ff8345e692c0f86e5b48e01b996cadc001622fb5e363b421880102030405060708c0c0",
        "lastblockhash" : "0xa8f81db7b08e7a87c7dcdad53327c228dc298a58e06dea53f0bcbb98b8d5b665",
        "network" : "Homestead",
        "postState" : {
            "0x095e7baea6a6c7c4c2dfeb977efac326af552d87" : {
                "balance" : "0x030247dc",
                "code" : "0x7fffffffffffffffffffffffffffffffffffffffffffffffffffffffffffffffff7f000000000000000000000000000000000000000000000000000000000000c3507f000000000000000000000000ffffffffffffffffffffffffffffffffffffffff7f000000000000000000000000000000000000000000000000000000000000c35059a17f0000000000000000000000000000000000000000000000000000000000000001f38f07bf60005155",
                "nonce" : "0x00",
                "storage" : {
                }
            },
            "0x945304eb96065b2a98b57a48a06ae28d285a71b5" : {
                "balance" : "0x4563918244faa855",
                "code" : "0x6000355415600957005b60203560003555",
                "nonce" : "0x00",
                "storage" : {
                }
            },
            "0xa94f5374fce5edbc8e2a8697c15331677e6ebf0b" : {
                "balance" : "0x0de0b6b3a45b0ffd",
                "code" : "",
                "nonce" : "0x01",
                "storage" : {
                }
            }
        },
        "pre" : {
            "0x095e7baea6a6c7c4c2dfeb977efac326af552d87" : {
                "balance" : "0x00",
                "code" : "0x7fffffffffffffffffffffffffffffffffffffffffffffffffffffffffffffffff7f000000000000000000000000000000000000000000000000000000000000c3507f000000000000000000000000ffffffffffffffffffffffffffffffffffffffff7f000000000000000000000000000000000000000000000000000000000000c35059a17f0000000000000000000000000000000000000000000000000000000000000001f38f07bf60005155",
                "nonce" : "0x00",
                "storage" : {
                }
            },
            "0x945304eb96065b2a98b57a48a06ae28d285a71b5" : {
                "balance" : "0x2e",
                "code" : "0x6000355415600957005b60203560003555",
                "nonce" : "0x00",
                "storage" : {
                }
            },
            "0xa94f5374fce5edbc8e2a8697c15331677e6ebf0b" : {
                "balance" : "0x0de0b6b3a7640000",
                "code" : "",
                "nonce" : "0x00",
                "storage" : {
                }
            }
        }
    },
    "randomStatetest111_d0g0v0_Metropolis" : {
        "_info" : {
            "comment" : "",
            "filledwith" : "cpp-1.3.0+commit.16292201.Linux.g++",
            "source" : "/src/GenStateTestAsBcTemp/stRandom/randomStatetest111_d0g0v0Filler.json"
        },
        "blocks" : [
            {
                "blockHeader" : {
                    "bloom" : "0x00000000000000001000000000000000000000000000000000000000000000000000000000000000000000000000000000000000000000000000000000000000000000000000000000000000000000000000000000000000000000000000000000000010000000000000000000000000000000000000000000000000000000000000000000000000000000002000000000000000000000000000000000000000000000000000000004000000000000000000000000000000000000000000000000000000000000000000000000000000000000000000000000000000000000000000000040080000000000000000000000000000000000000000000000000000",
                    "coinbase" : "0x945304eb96065b2a98b57a48a06ae28d285a71b5",
                    "difficulty" : "0x020000",
                    "extraData" : "",
                    "gasLimit" : "0x7fffffffffffffff",
                    "gasUsed" : "0x06a827",
                    "hash" : "0xb4e79fdb3652b3a869411631422bb4a3a1953d4b5d559a21fc24178b77e3fa60",
                    "mixHash" : "0x9ab72cbb22ff9764cdf9dd205a39d93f6c53fb36f421031801eeaea8613bc20e",
                    "nonce" : "0xbb1687d93978d1c7",
                    "number" : "0x01",
                    "parentHash" : "0xf086904645e059c4e0f54ee8a7775bffc8903d786d0f84d0c6b69b33da587d0b",
                    "receiptTrie" : "0xb02c90332d8518e596591bdc69150f5433e4427933286b82d443465100b56703",
                    "stateRoot" : "0x7beb44ccc87eab14e5e05094748c025d96da1767bac4f00aacfae74e5f6e98a5",
                    "timestamp" : "0x03e8",
                    "transactionsTrie" : "0xd5b6fc7075bb88ebdb94a9fadf671c1fd6d8b61362769c2692c16eeaad163730",
                    "uncleHash" : "0x1dcc4de8dec75d7aab85b567b6ccd41ad312451b948a7413f0a142fd40d49347"
                },
                "rlp" : "0xf90318f901fda0f086904645e059c4e0f54ee8a7775bffc8903d786d0f84d0c6b69b33da587d0ba01dcc4de8dec75d7aab85b567b6ccd41ad312451b948a7413f0a142fd40d4934794945304eb96065b2a98b57a48a06ae28d285a71b5a07beb44ccc87eab14e5e05094748c025d96da1767bac4f00aacfae74e5f6e98a5a0d5b6fc7075bb88ebdb94a9fadf671c1fd6d8b61362769c2692c16eeaad163730a0b02c90332d8518e596591bdc69150f5433e4427933286b82d443465100b56703b90100000000000000000010000000000000000000000000000000000000000000000000000000000000000000000000000000000000000000000000000000000000000000000000000000000000000000000000000000000000000000000000000000000000100000000000000000000000000000000000000000000000000000000000000000000000000000000020000000000000000000000000000000000000000000000000000000040000000000000000000000000000000000000000000000000000000000000000000000000000000000000000000000000000000000000000000000400800000000000000000000000000000000000000000000000000008302000001887fffffffffffffff8306a8278203e880a09ab72cbb22ff9764cdf9dd205a39d93f6c53fb36f421031801eeaea8613bc20e88bb1687d93978d1c7f90114f901118001845a11064f94095e7baea6a6c7c4c2dfeb977efac326af552d8784030247dcb8ab7fffffffffffffffffffffffffffffffffffffffffffffffffffffffffffffffff7f000000000000000000000000000000000000000000000000000000000000c3507f000000000000000000000000ffffffffffffffffffffffffffffffffffffffff7f000000000000000000000000000000000000000000000000000000000000c35059a17f0000000000000000000000000000000000000000000000000000000000000001f38f07bf1ca08b7b51b0f38ddbe8b1ead1636389b3fb3a112c97017857a2f8f0d3170559d471a011edfec390d93132d51acf7527d8413d1d67cd08b30c77e49c0db8bc93655bbac0",
                "transactions" : [
                    {
                        "data" : "0x7fffffffffffffffffffffffffffffffffffffffffffffffffffffffffffffffff7f000000000000000000000000000000000000000000000000000000000000c3507f000000000000000000000000ffffffffffffffffffffffffffffffffffffffff7f000000000000000000000000000000000000000000000000000000000000c35059a17f0000000000000000000000000000000000000000000000000000000000000001f38f07bf",
                        "gasLimit" : "0x5a11064f",
                        "gasPrice" : "0x01",
                        "nonce" : "0x00",
                        "r" : "0x8b7b51b0f38ddbe8b1ead1636389b3fb3a112c97017857a2f8f0d3170559d471",
                        "s" : "0x11edfec390d93132d51acf7527d8413d1d67cd08b30c77e49c0db8bc93655bba",
                        "to" : "0x095e7baea6a6c7c4c2dfeb977efac326af552d87",
                        "v" : "0x1c",
                        "value" : "0x030247dc"
                    }
                ],
                "uncleHeaders" : [
                ]
            }
        ],
        "genesisBlockHeader" : {
            "bloom" : "0x00000000000000000000000000000000000000000000000000000000000000000000000000000000000000000000000000000000000000000000000000000000000000000000000000000000000000000000000000000000000000000000000000000000000000000000000000000000000000000000000000000000000000000000000000000000000000000000000000000000000000000000000000000000000000000000000000000000000000000000000000000000000000000000000000000000000000000000000000000000000000000000000000000000000000000000000000000000000000000000000000000000000000000000000000000000",
            "coinbase" : "0x945304eb96065b2a98b57a48a06ae28d285a71b5",
            "difficulty" : "0x020000",
            "extraData" : "0x42",
            "gasLimit" : "0x7fffffffffffffff",
            "gasUsed" : "0x00",
            "hash" : "0xf086904645e059c4e0f54ee8a7775bffc8903d786d0f84d0c6b69b33da587d0b",
            "mixHash" : "0x56e81f171bcc55a6ff8345e692c0f86e5b48e01b996cadc001622fb5e363b421",
            "nonce" : "0x0102030405060708",
            "number" : "0x00",
            "parentHash" : "0x0000000000000000000000000000000000000000000000000000000000000000",
            "receiptTrie" : "0x56e81f171bcc55a6ff8345e692c0f86e5b48e01b996cadc001622fb5e363b421",
            "stateRoot" : "0x2b1d4bc40ac0178331301cdc61aff5577414aeb868d0875c49d84c397f2ea192",
            "timestamp" : "0x03b6",
            "transactionsTrie" : "0x56e81f171bcc55a6ff8345e692c0f86e5b48e01b996cadc001622fb5e363b421",
            "uncleHash" : "0x1dcc4de8dec75d7aab85b567b6ccd41ad312451b948a7413f0a142fd40d49347"
        },
        "genesisRLP" : "0xf901fff901faa00000000000000000000000000000000000000000000000000000000000000000a01dcc4de8dec75d7aab85b567b6ccd41ad312451b948a7413f0a142fd40d4934794945304eb96065b2a98b57a48a06ae28d285a71b5a02b1d4bc40ac0178331301cdc61aff5577414aeb868d0875c49d84c397f2ea192a056e81f171bcc55a6ff8345e692c0f86e5b48e01b996cadc001622fb5e363b421a056e81f171bcc55a6ff8345e692c0f86e5b48e01b996cadc001622fb5e363b421b90100000000000000000000000000000000000000000000000000000000000000000000000000000000000000000000000000000000000000000000000000000000000000000000000000000000000000000000000000000000000000000000000000000000000000000000000000000000000000000000000000000000000000000000000000000000000000000000000000000000000000000000000000000000000000000000000000000000000000000000000000000000000000000000000000000000000000000000000000000000000000000000000000000000000000000000000000000000000000000000000000000000000000000000000000000000008302000080887fffffffffffffff808203b642a056e81f171bcc55a6ff8345e692c0f86e5b48e01b996cadc001622fb5e363b421880102030405060708c0c0",
        "lastblockhash" : "0xb4e79fdb3652b3a869411631422bb4a3a1953d4b5d559a21fc24178b77e3fa60",
        "network" : "Metropolis",
        "postState" : {
            "0x00000000000000000000000000000000000000f0" : {
                "balance" : "0x00",
                "code" : "",
                "nonce" : "0x00",
                "storage" : {
                }
            },
            "0x095e7baea6a6c7c4c2dfeb977efac326af552d87" : {
                "balance" : "0x030247dc",
                "code" : "0x7fffffffffffffffffffffffffffffffffffffffffffffffffffffffffffffffff7f000000000000000000000000000000000000000000000000000000000000c3507f000000000000000000000000ffffffffffffffffffffffffffffffffffffffff7f000000000000000000000000000000000000000000000000000000000000c35059a17f0000000000000000000000000000000000000000000000000000000000000001f38f07bf60005155",
                "nonce" : "0x00",
                "storage" : {
                }
            },
            "0x945304eb96065b2a98b57a48a06ae28d285a71b5" : {
                "balance" : "0x4563918244faa855",
                "code" : "0x6000355415600957005b60203560003555",
                "nonce" : "0x00",
                "storage" : {
                }
            },
            "0xa94f5374fce5edbc8e2a8697c15331677e6ebf0b" : {
                "balance" : "0x0de0b6b3a45b0ffd",
                "code" : "",
                "nonce" : "0x01",
                "storage" : {
                }
            }
        },
        "pre" : {
            "0x095e7baea6a6c7c4c2dfeb977efac326af552d87" : {
                "balance" : "0x00",
                "code" : "0x7fffffffffffffffffffffffffffffffffffffffffffffffffffffffffffffffff7f000000000000000000000000000000000000000000000000000000000000c3507f000000000000000000000000ffffffffffffffffffffffffffffffffffffffff7f000000000000000000000000000000000000000000000000000000000000c35059a17f0000000000000000000000000000000000000000000000000000000000000001f38f07bf60005155",
                "nonce" : "0x00",
                "storage" : {
                }
            },
            "0x945304eb96065b2a98b57a48a06ae28d285a71b5" : {
                "balance" : "0x2e",
                "code" : "0x6000355415600957005b60203560003555",
                "nonce" : "0x00",
                "storage" : {
                }
            },
            "0xa94f5374fce5edbc8e2a8697c15331677e6ebf0b" : {
                "balance" : "0x0de0b6b3a7640000",
                "code" : "",
                "nonce" : "0x00",
                "storage" : {
                }
            }
        }
    }
}