{
    "randomStatetest243_d0g0v0_Byzantium" : {
        "_info" : {
            "comment" : "",
            "filledwith" : "cpp-1.3.0+commit.6e0ce939.Linux.g++",
            "lllcversion" : "Version: 0.4.18-develop.2017.9.25+commit.a72237f2.Linux.g++",
            "source" : "src/BlockchainTestsFiller/GeneralStateTests/stRandom/randomStatetest243_d0g0v0Filler.json",
            "sourceHash" : "834ec6dcddcab2b6118e248f0fffbc9eaeb23267508bb1a37365573c658ff3b3"
        },
        "blocks" : [
            {
                "blockHeader" : {
                    "bloom" : "0x00000000000000000000000000000000000000000000000000000000000000000000000000000000000000000000000000000000000000000000000000000000000000000000000000000000000000000000000000000000000000000000000000000000000000000000000000000000000000000000000000000000000000000000000000000000000000000000000000000000000000000000000000000000000000000000000000000000000000000000000000000000000000000000000000000000000000000000000000000000000000000000000000000000000000000000000000000000000000000000000000000000000000000000000000000000",
                    "coinbase" : "0x945304eb96065b2a98b57a48a06ae28d285a71b5",
                    "difficulty" : "0x020000",
                    "extraData" : "",
                    "gasLimit" : "0x7fffffffffffffff",
                    "gasUsed" : "0xa6c2",
                    "hash" : "0x08aac91a1e5d3bc22be57d42bda9496812b8b15929a6ef6c8282861a3f649a70",
                    "mixHash" : "0x3c8018f115cab738e2b41a91f6798b67002ef62dd2c5d1538311d37bc9533366",
                    "nonce" : "0xef2145823949d2fd",
                    "number" : "0x01",
                    "parentHash" : "0x67e7785873a94505148d255a67c9d81b742621c567dfc9c77a97b5f7e19df11c",
                    "receiptTrie" : "0x1d65b984467ae01f9ad6b907edc5a34dd7a599bbf5b46eef3c3cf285103a9ce6",
                    "stateRoot" : "0x1f046c83bf3f837c4263366eb421daa387a7d1b057b6a4a8cb9a9031c74ac6f8",
                    "timestamp" : "0x03e8",
                    "transactionsTrie" : "0x4ebd21c98333ea40219c7a9f117c7f97a59cf89f372ec7f8ebe2265c878d1296",
                    "uncleHash" : "0x1dcc4de8dec75d7aab85b567b6ccd41ad312451b948a7413f0a142fd40d49347"
                },
                "rlp" : "0xf902bcf901fca067e7785873a94505148d255a67c9d81b742621c567dfc9c77a97b5f7e19df11ca01dcc4de8dec75d7aab85b567b6ccd41ad312451b948a7413f0a142fd40d4934794945304eb96065b2a98b57a48a06ae28d285a71b5a01f046c83bf3f837c4263366eb421daa387a7d1b057b6a4a8cb9a9031c74ac6f8a04ebd21c98333ea40219c7a9f117c7f97a59cf89f372ec7f8ebe2265c878d1296a01d65b984467ae01f9ad6b907edc5a34dd7a599bbf5b46eef3c3cf285103a9ce6b90100000000000000000000000000000000000000000000000000000000000000000000000000000000000000000000000000000000000000000000000000000000000000000000000000000000000000000000000000000000000000000000000000000000000000000000000000000000000000000000000000000000000000000000000000000000000000000000000000000000000000000000000000000000000000000000000000000000000000000000000000000000000000000000000000000000000000000000000000000000000000000000000000000000000000000000000000000000000000000000000000000000000000000000000000000000008302000001887fffffffffffffff82a6c28203e880a03c8018f115cab738e2b41a91f6798b67002ef62dd2c5d1538311d37bc953336688ef2145823949d2fdf8baf8b88001841103635494095e7baea6a6c7c4c2dfeb977efac326af552d8784049903acb8527f00000000000000000000000100000000000000000000000000000000000000007f000000000000000000000000000000000000000000000000000000000000c3506f4245446640764068625545586684901ca09ef11a1a4a55024230774b78babf9e46af90ef04c852c183020b821642cc3583a0117bb2daf9ec4242dd6ab8a9162fa869eda9de0f177e09831fa9f3a066827d09c0",
                "transactions" : [
                    {
                        "data" : "0x7f00000000000000000000000100000000000000000000000000000000000000007f000000000000000000000000000000000000000000000000000000000000c3506f424544664076406862554558668490",
                        "gasLimit" : "0x11036354",
                        "gasPrice" : "0x01",
                        "nonce" : "0x00",
                        "r" : "0x9ef11a1a4a55024230774b78babf9e46af90ef04c852c183020b821642cc3583",
                        "s" : "0x117bb2daf9ec4242dd6ab8a9162fa869eda9de0f177e09831fa9f3a066827d09",
                        "to" : "0x095e7baea6a6c7c4c2dfeb977efac326af552d87",
                        "v" : "0x1c",
                        "value" : "0x049903ac"
                    }
                ],
                "uncleHeaders" : [
                ]
            }
        ],
        "genesisBlockHeader" : {
            "bloom" : "0x00000000000000000000000000000000000000000000000000000000000000000000000000000000000000000000000000000000000000000000000000000000000000000000000000000000000000000000000000000000000000000000000000000000000000000000000000000000000000000000000000000000000000000000000000000000000000000000000000000000000000000000000000000000000000000000000000000000000000000000000000000000000000000000000000000000000000000000000000000000000000000000000000000000000000000000000000000000000000000000000000000000000000000000000000000000",
            "coinbase" : "0x945304eb96065b2a98b57a48a06ae28d285a71b5",
            "difficulty" : "0x020000",
            "extraData" : "0x42",
            "gasLimit" : "0x7fffffffffffffff",
            "gasUsed" : "0x00",
            "hash" : "0x67e7785873a94505148d255a67c9d81b742621c567dfc9c77a97b5f7e19df11c",
            "mixHash" : "0x56e81f171bcc55a6ff8345e692c0f86e5b48e01b996cadc001622fb5e363b421",
            "nonce" : "0x0102030405060708",
            "number" : "0x00",
            "parentHash" : "0x0000000000000000000000000000000000000000000000000000000000000000",
            "receiptTrie" : "0x56e81f171bcc55a6ff8345e692c0f86e5b48e01b996cadc001622fb5e363b421",
            "stateRoot" : "0xfec453d4bccf784fc2595ad5cd17b38f67e64b4d6a744122668fcbed5a76c8c4",
            "timestamp" : "0x03b6",
            "transactionsTrie" : "0x56e81f171bcc55a6ff8345e692c0f86e5b48e01b996cadc001622fb5e363b421",
            "uncleHash" : "0x1dcc4de8dec75d7aab85b567b6ccd41ad312451b948a7413f0a142fd40d49347"
        },
        "genesisRLP" : "0xf901fff901faa00000000000000000000000000000000000000000000000000000000000000000a01dcc4de8dec75d7aab85b567b6ccd41ad312451b948a7413f0a142fd40d4934794945304eb96065b2a98b57a48a06ae28d285a71b5a0fec453d4bccf784fc2595ad5cd17b38f67e64b4d6a744122668fcbed5a76c8c4a056e81f171bcc55a6ff8345e692c0f86e5b48e01b996cadc001622fb5e363b421a056e81f171bcc55a6ff8345e692c0f86e5b48e01b996cadc001622fb5e363b421b90100000000000000000000000000000000000000000000000000000000000000000000000000000000000000000000000000000000000000000000000000000000000000000000000000000000000000000000000000000000000000000000000000000000000000000000000000000000000000000000000000000000000000000000000000000000000000000000000000000000000000000000000000000000000000000000000000000000000000000000000000000000000000000000000000000000000000000000000000000000000000000000000000000000000000000000000000000000000000000000000000000000000000000000000000000000008302000080887fffffffffffffff808203b642a056e81f171bcc55a6ff8345e692c0f86e5b48e01b996cadc001622fb5e363b421880102030405060708c0c0",
        "lastblockhash" : "0x08aac91a1e5d3bc22be57d42bda9496812b8b15929a6ef6c8282861a3f649a70",
        "network" : "Byzantium",
        "postState" : {
            "0x095e7baea6a6c7c4c2dfeb977efac326af552d87" : {
                "balance" : "0x049903ac",
                "code" : "0x7f00000000000000000000000100000000000000000000000000000000000000007f000000000000000000000000000000000000000000000000000000000000c3506f4245446640764068625545586684905560005155",
                "nonce" : "0x00",
                "storage" : {
                    "0x00" : "0x42454466407640686255455866849055"
                }
            },
            "0x945304eb96065b2a98b57a48a06ae28d285a71b5" : {
                "balance" : "0x29a2241af62ca6f0",
                "code" : "0x6000355415600957005b60203560003555",
                "nonce" : "0x00",
                "storage" : {
                }
            },
            "0xa94f5374fce5edbc8e2a8697c15331677e6ebf0b" : {
                "balance" : "0x0de0b6b3a2ca5592",
                "code" : "",
                "nonce" : "0x01",
                "storage" : {
                }
            }
        },
        "pre" : {
            "0x095e7baea6a6c7c4c2dfeb977efac326af552d87" : {
                "balance" : "0x00",
                "code" : "0x7f00000000000000000000000100000000000000000000000000000000000000007f000000000000000000000000000000000000000000000000000000000000c3506f4245446640764068625545586684905560005155",
                "nonce" : "0x00",
                "storage" : {
                }
            },
            "0x945304eb96065b2a98b57a48a06ae28d285a71b5" : {
                "balance" : "0x2e",
                "code" : "0x6000355415600957005b60203560003555",
                "nonce" : "0x00",
                "storage" : {
                }
            },
            "0xa94f5374fce5edbc8e2a8697c15331677e6ebf0b" : {
                "balance" : "0x0de0b6b3a7640000",
                "code" : "",
                "nonce" : "0x00",
                "storage" : {
                }
            }
        }
    },
    "randomStatetest243_d0g0v0_EIP150" : {
        "_info" : {
            "comment" : "",
            "filledwith" : "cpp-1.3.0+commit.6e0ce939.Linux.g++",
            "lllcversion" : "Version: 0.4.18-develop.2017.9.25+commit.a72237f2.Linux.g++",
            "source" : "src/BlockchainTestsFiller/GeneralStateTests/stRandom/randomStatetest243_d0g0v0Filler.json",
            "sourceHash" : "834ec6dcddcab2b6118e248f0fffbc9eaeb23267508bb1a37365573c658ff3b3"
        },
        "blocks" : [
            {
                "blockHeader" : {
                    "bloom" : "0x00000000000000000000000000000000000000000000000000000000000000000000000000000000000000000000000000000000000000000000000000000000000000000000000000000000000000000000000000000000000000000000000000000000000000000000000000000000000000000000000000000000000000000000000000000000000000000000000000000000000000000000000000000000000000000000000000000000000000000000000000000000000000000000000000000000000000000000000000000000000000000000000000000000000000000000000000000000000000000000000000000000000000000000000000000000",
                    "coinbase" : "0x945304eb96065b2a98b57a48a06ae28d285a71b5",
                    "difficulty" : "0x020000",
                    "extraData" : "",
                    "gasLimit" : "0x7fffffffffffffff",
                    "gasUsed" : "0xa6c2",
                    "hash" : "0x9250346eb6b5b020f411a2d63c4c8b6c414b91690a33af5def104c2dcd620eee",
                    "mixHash" : "0x7d4b1f150f77a2d74f37a31852c0e53ede131b9ef4d3e9ca4f857b50abe47436",
                    "nonce" : "0xa1da793e39c87789",
                    "number" : "0x01",
                    "parentHash" : "0x67e7785873a94505148d255a67c9d81b742621c567dfc9c77a97b5f7e19df11c",
                    "receiptTrie" : "0x3b67de84809547da9e3d16274914439391c0a081f9bf009ddb8cd55b0bae65a1",
                    "stateRoot" : "0x48f33e5fc66cbc329ff6501af0697256895f60757c8f9253544f86b0d56d688d",
                    "timestamp" : "0x03e8",
                    "transactionsTrie" : "0x4ebd21c98333ea40219c7a9f117c7f97a59cf89f372ec7f8ebe2265c878d1296",
                    "uncleHash" : "0x1dcc4de8dec75d7aab85b567b6ccd41ad312451b948a7413f0a142fd40d49347"
                },
                "rlp" : "0xf902bcf901fca067e7785873a94505148d255a67c9d81b742621c567dfc9c77a97b5f7e19df11ca01dcc4de8dec75d7aab85b567b6ccd41ad312451b948a7413f0a142fd40d4934794945304eb96065b2a98b57a48a06ae28d285a71b5a048f33e5fc66cbc329ff6501af0697256895f60757c8f9253544f86b0d56d688da04ebd21c98333ea40219c7a9f117c7f97a59cf89f372ec7f8ebe2265c878d1296a03b67de84809547da9e3d16274914439391c0a081f9bf009ddb8cd55b0bae65a1b90100000000000000000000000000000000000000000000000000000000000000000000000000000000000000000000000000000000000000000000000000000000000000000000000000000000000000000000000000000000000000000000000000000000000000000000000000000000000000000000000000000000000000000000000000000000000000000000000000000000000000000000000000000000000000000000000000000000000000000000000000000000000000000000000000000000000000000000000000000000000000000000000000000000000000000000000000000000000000000000000000000000000000000000000000000000008302000001887fffffffffffffff82a6c28203e880a07d4b1f150f77a2d74f37a31852c0e53ede131b9ef4d3e9ca4f857b50abe4743688a1da793e39c87789f8baf8b88001841103635494095e7baea6a6c7c4c2dfeb977efac326af552d8784049903acb8527f00000000000000000000000100000000000000000000000000000000000000007f000000000000000000000000000000000000000000000000000000000000c3506f4245446640764068625545586684901ca09ef11a1a4a55024230774b78babf9e46af90ef04c852c183020b821642cc3583a0117bb2daf9ec4242dd6ab8a9162fa869eda9de0f177e09831fa9f3a066827d09c0",
                "transactions" : [
                    {
                        "data" : "0x7f00000000000000000000000100000000000000000000000000000000000000007f000000000000000000000000000000000000000000000000000000000000c3506f424544664076406862554558668490",
                        "gasLimit" : "0x11036354",
                        "gasPrice" : "0x01",
                        "nonce" : "0x00",
                        "r" : "0x9ef11a1a4a55024230774b78babf9e46af90ef04c852c183020b821642cc3583",
                        "s" : "0x117bb2daf9ec4242dd6ab8a9162fa869eda9de0f177e09831fa9f3a066827d09",
                        "to" : "0x095e7baea6a6c7c4c2dfeb977efac326af552d87",
                        "v" : "0x1c",
                        "value" : "0x049903ac"
                    }
                ],
                "uncleHeaders" : [
                ]
            }
        ],
        "genesisBlockHeader" : {
            "bloom" : "0x00000000000000000000000000000000000000000000000000000000000000000000000000000000000000000000000000000000000000000000000000000000000000000000000000000000000000000000000000000000000000000000000000000000000000000000000000000000000000000000000000000000000000000000000000000000000000000000000000000000000000000000000000000000000000000000000000000000000000000000000000000000000000000000000000000000000000000000000000000000000000000000000000000000000000000000000000000000000000000000000000000000000000000000000000000000",
            "coinbase" : "0x945304eb96065b2a98b57a48a06ae28d285a71b5",
            "difficulty" : "0x020000",
            "extraData" : "0x42",
            "gasLimit" : "0x7fffffffffffffff",
            "gasUsed" : "0x00",
            "hash" : "0x67e7785873a94505148d255a67c9d81b742621c567dfc9c77a97b5f7e19df11c",
            "mixHash" : "0x56e81f171bcc55a6ff8345e692c0f86e5b48e01b996cadc001622fb5e363b421",
            "nonce" : "0x0102030405060708",
            "number" : "0x00",
            "parentHash" : "0x0000000000000000000000000000000000000000000000000000000000000000",
            "receiptTrie" : "0x56e81f171bcc55a6ff8345e692c0f86e5b48e01b996cadc001622fb5e363b421",
            "stateRoot" : "0xfec453d4bccf784fc2595ad5cd17b38f67e64b4d6a744122668fcbed5a76c8c4",
            "timestamp" : "0x03b6",
            "transactionsTrie" : "0x56e81f171bcc55a6ff8345e692c0f86e5b48e01b996cadc001622fb5e363b421",
            "uncleHash" : "0x1dcc4de8dec75d7aab85b567b6ccd41ad312451b948a7413f0a142fd40d49347"
        },
        "genesisRLP" : "0xf901fff901faa00000000000000000000000000000000000000000000000000000000000000000a01dcc4de8dec75d7aab85b567b6ccd41ad312451b948a7413f0a142fd40d4934794945304eb96065b2a98b57a48a06ae28d285a71b5a0fec453d4bccf784fc2595ad5cd17b38f67e64b4d6a744122668fcbed5a76c8c4a056e81f171bcc55a6ff8345e692c0f86e5b48e01b996cadc001622fb5e363b421a056e81f171bcc55a6ff8345e692c0f86e5b48e01b996cadc001622fb5e363b421b90100000000000000000000000000000000000000000000000000000000000000000000000000000000000000000000000000000000000000000000000000000000000000000000000000000000000000000000000000000000000000000000000000000000000000000000000000000000000000000000000000000000000000000000000000000000000000000000000000000000000000000000000000000000000000000000000000000000000000000000000000000000000000000000000000000000000000000000000000000000000000000000000000000000000000000000000000000000000000000000000000000000000000000000000000000000008302000080887fffffffffffffff808203b642a056e81f171bcc55a6ff8345e692c0f86e5b48e01b996cadc001622fb5e363b421880102030405060708c0c0",
        "lastblockhash" : "0x9250346eb6b5b020f411a2d63c4c8b6c414b91690a33af5def104c2dcd620eee",
        "network" : "EIP150",
        "postState" : {
            "0x095e7baea6a6c7c4c2dfeb977efac326af552d87" : {
                "balance" : "0x049903ac",
                "code" : "0x7f00000000000000000000000100000000000000000000000000000000000000007f000000000000000000000000000000000000000000000000000000000000c3506f4245446640764068625545586684905560005155",
                "nonce" : "0x00",
                "storage" : {
                    "0x00" : "0x42454466407640686255455866849055"
                }
            },
            "0x945304eb96065b2a98b57a48a06ae28d285a71b5" : {
                "balance" : "0x4563918244f4a6f0",
                "code" : "0x6000355415600957005b60203560003555",
                "nonce" : "0x00",
                "storage" : {
                }
            },
            "0xa94f5374fce5edbc8e2a8697c15331677e6ebf0b" : {
                "balance" : "0x0de0b6b3a2ca5592",
                "code" : "",
                "nonce" : "0x01",
                "storage" : {
                }
            }
        },
        "pre" : {
            "0x095e7baea6a6c7c4c2dfeb977efac326af552d87" : {
                "balance" : "0x00",
                "code" : "0x7f00000000000000000000000100000000000000000000000000000000000000007f000000000000000000000000000000000000000000000000000000000000c3506f4245446640764068625545586684905560005155",
                "nonce" : "0x00",
                "storage" : {
                }
            },
            "0x945304eb96065b2a98b57a48a06ae28d285a71b5" : {
                "balance" : "0x2e",
                "code" : "0x6000355415600957005b60203560003555",
                "nonce" : "0x00",
                "storage" : {
                }
            },
            "0xa94f5374fce5edbc8e2a8697c15331677e6ebf0b" : {
                "balance" : "0x0de0b6b3a7640000",
                "code" : "",
                "nonce" : "0x00",
                "storage" : {
                }
            }
        }
    },
    "randomStatetest243_d0g0v0_EIP158" : {
        "_info" : {
            "comment" : "",
            "filledwith" : "cpp-1.3.0+commit.6e0ce939.Linux.g++",
            "lllcversion" : "Version: 0.4.18-develop.2017.9.25+commit.a72237f2.Linux.g++",
            "source" : "src/BlockchainTestsFiller/GeneralStateTests/stRandom/randomStatetest243_d0g0v0Filler.json",
            "sourceHash" : "834ec6dcddcab2b6118e248f0fffbc9eaeb23267508bb1a37365573c658ff3b3"
        },
        "blocks" : [
            {
                "blockHeader" : {
                    "bloom" : "0x00000000000000000000000000000000000000000000000000000000000000000000000000000000000000000000000000000000000000000000000000000000000000000000000000000000000000000000000000000000000000000000000000000000000000000000000000000000000000000000000000000000000000000000000000000000000000000000000000000000000000000000000000000000000000000000000000000000000000000000000000000000000000000000000000000000000000000000000000000000000000000000000000000000000000000000000000000000000000000000000000000000000000000000000000000000",
                    "coinbase" : "0x945304eb96065b2a98b57a48a06ae28d285a71b5",
                    "difficulty" : "0x020000",
                    "extraData" : "",
                    "gasLimit" : "0x7fffffffffffffff",
                    "gasUsed" : "0xa6c2",
                    "hash" : "0xd28538a9908afb2e066b0a7e77797002560c1ed572649ca1a90353a7b4cc21eb",
                    "mixHash" : "0x3d04eed474d80ea372e1834bab32fd73476852cbb3b34e7db14a132a0bcf0c4f",
                    "nonce" : "0xabdea80d20f055a9",
                    "number" : "0x01",
                    "parentHash" : "0x67e7785873a94505148d255a67c9d81b742621c567dfc9c77a97b5f7e19df11c",
                    "receiptTrie" : "0x3b67de84809547da9e3d16274914439391c0a081f9bf009ddb8cd55b0bae65a1",
                    "stateRoot" : "0x48f33e5fc66cbc329ff6501af0697256895f60757c8f9253544f86b0d56d688d",
                    "timestamp" : "0x03e8",
                    "transactionsTrie" : "0x4ebd21c98333ea40219c7a9f117c7f97a59cf89f372ec7f8ebe2265c878d1296",
                    "uncleHash" : "0x1dcc4de8dec75d7aab85b567b6ccd41ad312451b948a7413f0a142fd40d49347"
                },
                "rlp" : "0xf902bcf901fca067e7785873a94505148d255a67c9d81b742621c567dfc9c77a97b5f7e19df11ca01dcc4de8dec75d7aab85b567b6ccd41ad312451b948a7413f0a142fd40d4934794945304eb96065b2a98b57a48a06ae28d285a71b5a048f33e5fc66cbc329ff6501af0697256895f60757c8f9253544f86b0d56d688da04ebd21c98333ea40219c7a9f117c7f97a59cf89f372ec7f8ebe2265c878d1296a03b67de84809547da9e3d16274914439391c0a081f9bf009ddb8cd55b0bae65a1b90100000000000000000000000000000000000000000000000000000000000000000000000000000000000000000000000000000000000000000000000000000000000000000000000000000000000000000000000000000000000000000000000000000000000000000000000000000000000000000000000000000000000000000000000000000000000000000000000000000000000000000000000000000000000000000000000000000000000000000000000000000000000000000000000000000000000000000000000000000000000000000000000000000000000000000000000000000000000000000000000000000000000000000000000000000000008302000001887fffffffffffffff82a6c28203e880a03d04eed474d80ea372e1834bab32fd73476852cbb3b34e7db14a132a0bcf0c4f88abdea80d20f055a9f8baf8b88001841103635494095e7baea6a6c7c4c2dfeb977efac326af552d8784049903acb8527f00000000000000000000000100000000000000000000000000000000000000007f000000000000000000000000000000000000000000000000000000000000c3506f4245446640764068625545586684901ca09ef11a1a4a55024230774b78babf9e46af90ef04c852c183020b821642cc3583a0117bb2daf9ec4242dd6ab8a9162fa869eda9de0f177e09831fa9f3a066827d09c0",
                "transactions" : [
                    {
                        "data" : "0x7f00000000000000000000000100000000000000000000000000000000000000007f000000000000000000000000000000000000000000000000000000000000c3506f424544664076406862554558668490",
                        "gasLimit" : "0x11036354",
                        "gasPrice" : "0x01",
                        "nonce" : "0x00",
                        "r" : "0x9ef11a1a4a55024230774b78babf9e46af90ef04c852c183020b821642cc3583",
                        "s" : "0x117bb2daf9ec4242dd6ab8a9162fa869eda9de0f177e09831fa9f3a066827d09",
                        "to" : "0x095e7baea6a6c7c4c2dfeb977efac326af552d87",
                        "v" : "0x1c",
                        "value" : "0x049903ac"
                    }
                ],
                "uncleHeaders" : [
                ]
            }
        ],
        "genesisBlockHeader" : {
            "bloom" : "0x00000000000000000000000000000000000000000000000000000000000000000000000000000000000000000000000000000000000000000000000000000000000000000000000000000000000000000000000000000000000000000000000000000000000000000000000000000000000000000000000000000000000000000000000000000000000000000000000000000000000000000000000000000000000000000000000000000000000000000000000000000000000000000000000000000000000000000000000000000000000000000000000000000000000000000000000000000000000000000000000000000000000000000000000000000000",
            "coinbase" : "0x945304eb96065b2a98b57a48a06ae28d285a71b5",
            "difficulty" : "0x020000",
            "extraData" : "0x42",
            "gasLimit" : "0x7fffffffffffffff",
            "gasUsed" : "0x00",
            "hash" : "0x67e7785873a94505148d255a67c9d81b742621c567dfc9c77a97b5f7e19df11c",
            "mixHash" : "0x56e81f171bcc55a6ff8345e692c0f86e5b48e01b996cadc001622fb5e363b421",
            "nonce" : "0x0102030405060708",
            "number" : "0x00",
            "parentHash" : "0x0000000000000000000000000000000000000000000000000000000000000000",
            "receiptTrie" : "0x56e81f171bcc55a6ff8345e692c0f86e5b48e01b996cadc001622fb5e363b421",
            "stateRoot" : "0xfec453d4bccf784fc2595ad5cd17b38f67e64b4d6a744122668fcbed5a76c8c4",
            "timestamp" : "0x03b6",
            "transactionsTrie" : "0x56e81f171bcc55a6ff8345e692c0f86e5b48e01b996cadc001622fb5e363b421",
            "uncleHash" : "0x1dcc4de8dec75d7aab85b567b6ccd41ad312451b948a7413f0a142fd40d49347"
        },
        "genesisRLP" : "0xf901fff901faa00000000000000000000000000000000000000000000000000000000000000000a01dcc4de8dec75d7aab85b567b6ccd41ad312451b948a7413f0a142fd40d4934794945304eb96065b2a98b57a48a06ae28d285a71b5a0fec453d4bccf784fc2595ad5cd17b38f67e64b4d6a744122668fcbed5a76c8c4a056e81f171bcc55a6ff8345e692c0f86e5b48e01b996cadc001622fb5e363b421a056e81f171bcc55a6ff8345e692c0f86e5b48e01b996cadc001622fb5e363b421b90100000000000000000000000000000000000000000000000000000000000000000000000000000000000000000000000000000000000000000000000000000000000000000000000000000000000000000000000000000000000000000000000000000000000000000000000000000000000000000000000000000000000000000000000000000000000000000000000000000000000000000000000000000000000000000000000000000000000000000000000000000000000000000000000000000000000000000000000000000000000000000000000000000000000000000000000000000000000000000000000000000000000000000000000000000000008302000080887fffffffffffffff808203b642a056e81f171bcc55a6ff8345e692c0f86e5b48e01b996cadc001622fb5e363b421880102030405060708c0c0",
        "lastblockhash" : "0xd28538a9908afb2e066b0a7e77797002560c1ed572649ca1a90353a7b4cc21eb",
        "network" : "EIP158",
        "postState" : {
            "0x095e7baea6a6c7c4c2dfeb977efac326af552d87" : {
                "balance" : "0x049903ac",
                "code" : "0x7f00000000000000000000000100000000000000000000000000000000000000007f000000000000000000000000000000000000000000000000000000000000c3506f4245446640764068625545586684905560005155",
                "nonce" : "0x00",
                "storage" : {
                    "0x00" : "0x42454466407640686255455866849055"
                }
            },
            "0x945304eb96065b2a98b57a48a06ae28d285a71b5" : {
                "balance" : "0x4563918244f4a6f0",
                "code" : "0x6000355415600957005b60203560003555",
                "nonce" : "0x00",
                "storage" : {
                }
            },
            "0xa94f5374fce5edbc8e2a8697c15331677e6ebf0b" : {
                "balance" : "0x0de0b6b3a2ca5592",
                "code" : "",
                "nonce" : "0x01",
                "storage" : {
                }
            }
        },
        "pre" : {
            "0x095e7baea6a6c7c4c2dfeb977efac326af552d87" : {
                "balance" : "0x00",
                "code" : "0x7f00000000000000000000000100000000000000000000000000000000000000007f000000000000000000000000000000000000000000000000000000000000c3506f4245446640764068625545586684905560005155",
                "nonce" : "0x00",
                "storage" : {
                }
            },
            "0x945304eb96065b2a98b57a48a06ae28d285a71b5" : {
                "balance" : "0x2e",
                "code" : "0x6000355415600957005b60203560003555",
                "nonce" : "0x00",
                "storage" : {
                }
            },
            "0xa94f5374fce5edbc8e2a8697c15331677e6ebf0b" : {
                "balance" : "0x0de0b6b3a7640000",
                "code" : "",
                "nonce" : "0x00",
                "storage" : {
                }
            }
        }
    },
    "randomStatetest243_d0g0v0_Frontier" : {
        "_info" : {
            "comment" : "",
            "filledwith" : "cpp-1.3.0+commit.6e0ce939.Linux.g++",
            "lllcversion" : "Version: 0.4.18-develop.2017.9.25+commit.a72237f2.Linux.g++",
            "source" : "src/BlockchainTestsFiller/GeneralStateTests/stRandom/randomStatetest243_d0g0v0Filler.json",
            "sourceHash" : "834ec6dcddcab2b6118e248f0fffbc9eaeb23267508bb1a37365573c658ff3b3"
        },
        "blocks" : [
            {
                "blockHeader" : {
                    "bloom" : "0x00000000000000000000000000000000000000000000000000000000000000000000000000000000000000000000000000000000000000000000000000000000000000000000000000000000000000000000000000000000000000000000000000000000000000000000000000000000000000000000000000000000000000000000000000000000000000000000000000000000000000000000000000000000000000000000000000000000000000000000000000000000000000000000000000000000000000000000000000000000000000000000000000000000000000000000000000000000000000000000000000000000000000000000000000000000",
                    "coinbase" : "0x945304eb96065b2a98b57a48a06ae28d285a71b5",
                    "difficulty" : "0x020000",
                    "extraData" : "",
                    "gasLimit" : "0x7fffffffffffffff",
                    "gasUsed" : "0xa6c2",
                    "hash" : "0xe884d5372a30425c25cc74e64285816425a38fd1e9c1ae4d3e4ad238d24dff77",
                    "mixHash" : "0x18de3a1bcd4f5e9fc5e1717ed3c94c2a587d3d0600db8ab164386641cb67f6c4",
                    "nonce" : "0xb130e9b587cf7818",
                    "number" : "0x01",
                    "parentHash" : "0x67e7785873a94505148d255a67c9d81b742621c567dfc9c77a97b5f7e19df11c",
                    "receiptTrie" : "0x3b67de84809547da9e3d16274914439391c0a081f9bf009ddb8cd55b0bae65a1",
                    "stateRoot" : "0x48f33e5fc66cbc329ff6501af0697256895f60757c8f9253544f86b0d56d688d",
                    "timestamp" : "0x03e8",
                    "transactionsTrie" : "0x4ebd21c98333ea40219c7a9f117c7f97a59cf89f372ec7f8ebe2265c878d1296",
                    "uncleHash" : "0x1dcc4de8dec75d7aab85b567b6ccd41ad312451b948a7413f0a142fd40d49347"
                },
                "rlp" : "0xf902bcf901fca067e7785873a94505148d255a67c9d81b742621c567dfc9c77a97b5f7e19df11ca01dcc4de8dec75d7aab85b567b6ccd41ad312451b948a7413f0a142fd40d4934794945304eb96065b2a98b57a48a06ae28d285a71b5a048f33e5fc66cbc329ff6501af0697256895f60757c8f9253544f86b0d56d688da04ebd21c98333ea40219c7a9f117c7f97a59cf89f372ec7f8ebe2265c878d1296a03b67de84809547da9e3d16274914439391c0a081f9bf009ddb8cd55b0bae65a1b90100000000000000000000000000000000000000000000000000000000000000000000000000000000000000000000000000000000000000000000000000000000000000000000000000000000000000000000000000000000000000000000000000000000000000000000000000000000000000000000000000000000000000000000000000000000000000000000000000000000000000000000000000000000000000000000000000000000000000000000000000000000000000000000000000000000000000000000000000000000000000000000000000000000000000000000000000000000000000000000000000000000000000000000000000000000008302000001887fffffffffffffff82a6c28203e880a018de3a1bcd4f5e9fc5e1717ed3c94c2a587d3d0600db8ab164386641cb67f6c488b130e9b587cf7818f8baf8b88001841103635494095e7baea6a6c7c4c2dfeb977efac326af552d8784049903acb8527f00000000000000000000000100000000000000000000000000000000000000007f000000000000000000000000000000000000000000000000000000000000c3506f4245446640764068625545586684901ca09ef11a1a4a55024230774b78babf9e46af90ef04c852c183020b821642cc3583a0117bb2daf9ec4242dd6ab8a9162fa869eda9de0f177e09831fa9f3a066827d09c0",
                "transactions" : [
                    {
                        "data" : "0x7f00000000000000000000000100000000000000000000000000000000000000007f000000000000000000000000000000000000000000000000000000000000c3506f424544664076406862554558668490",
                        "gasLimit" : "0x11036354",
                        "gasPrice" : "0x01",
                        "nonce" : "0x00",
                        "r" : "0x9ef11a1a4a55024230774b78babf9e46af90ef04c852c183020b821642cc3583",
                        "s" : "0x117bb2daf9ec4242dd6ab8a9162fa869eda9de0f177e09831fa9f3a066827d09",
                        "to" : "0x095e7baea6a6c7c4c2dfeb977efac326af552d87",
                        "v" : "0x1c",
                        "value" : "0x049903ac"
                    }
                ],
                "uncleHeaders" : [
                ]
            }
        ],
        "genesisBlockHeader" : {
            "bloom" : "0x00000000000000000000000000000000000000000000000000000000000000000000000000000000000000000000000000000000000000000000000000000000000000000000000000000000000000000000000000000000000000000000000000000000000000000000000000000000000000000000000000000000000000000000000000000000000000000000000000000000000000000000000000000000000000000000000000000000000000000000000000000000000000000000000000000000000000000000000000000000000000000000000000000000000000000000000000000000000000000000000000000000000000000000000000000000",
            "coinbase" : "0x945304eb96065b2a98b57a48a06ae28d285a71b5",
            "difficulty" : "0x020000",
            "extraData" : "0x42",
            "gasLimit" : "0x7fffffffffffffff",
            "gasUsed" : "0x00",
            "hash" : "0x67e7785873a94505148d255a67c9d81b742621c567dfc9c77a97b5f7e19df11c",
            "mixHash" : "0x56e81f171bcc55a6ff8345e692c0f86e5b48e01b996cadc001622fb5e363b421",
            "nonce" : "0x0102030405060708",
            "number" : "0x00",
            "parentHash" : "0x0000000000000000000000000000000000000000000000000000000000000000",
            "receiptTrie" : "0x56e81f171bcc55a6ff8345e692c0f86e5b48e01b996cadc001622fb5e363b421",
            "stateRoot" : "0xfec453d4bccf784fc2595ad5cd17b38f67e64b4d6a744122668fcbed5a76c8c4",
            "timestamp" : "0x03b6",
            "transactionsTrie" : "0x56e81f171bcc55a6ff8345e692c0f86e5b48e01b996cadc001622fb5e363b421",
            "uncleHash" : "0x1dcc4de8dec75d7aab85b567b6ccd41ad312451b948a7413f0a142fd40d49347"
        },
        "genesisRLP" : "0xf901fff901faa00000000000000000000000000000000000000000000000000000000000000000a01dcc4de8dec75d7aab85b567b6ccd41ad312451b948a7413f0a142fd40d4934794945304eb96065b2a98b57a48a06ae28d285a71b5a0fec453d4bccf784fc2595ad5cd17b38f67e64b4d6a744122668fcbed5a76c8c4a056e81f171bcc55a6ff8345e692c0f86e5b48e01b996cadc001622fb5e363b421a056e81f171bcc55a6ff8345e692c0f86e5b48e01b996cadc001622fb5e363b421b90100000000000000000000000000000000000000000000000000000000000000000000000000000000000000000000000000000000000000000000000000000000000000000000000000000000000000000000000000000000000000000000000000000000000000000000000000000000000000000000000000000000000000000000000000000000000000000000000000000000000000000000000000000000000000000000000000000000000000000000000000000000000000000000000000000000000000000000000000000000000000000000000000000000000000000000000000000000000000000000000000000000000000000000000000000000008302000080887fffffffffffffff808203b642a056e81f171bcc55a6ff8345e692c0f86e5b48e01b996cadc001622fb5e363b421880102030405060708c0c0",
        "lastblockhash" : "0xe884d5372a30425c25cc74e64285816425a38fd1e9c1ae4d3e4ad238d24dff77",
        "network" : "Frontier",
        "postState" : {
            "0x095e7baea6a6c7c4c2dfeb977efac326af552d87" : {
                "balance" : "0x049903ac",
                "code" : "0x7f00000000000000000000000100000000000000000000000000000000000000007f000000000000000000000000000000000000000000000000000000000000c3506f4245446640764068625545586684905560005155",
                "nonce" : "0x00",
                "storage" : {
                    "0x00" : "0x42454466407640686255455866849055"
                }
            },
            "0x945304eb96065b2a98b57a48a06ae28d285a71b5" : {
                "balance" : "0x4563918244f4a6f0",
                "code" : "0x6000355415600957005b60203560003555",
                "nonce" : "0x00",
                "storage" : {
                }
            },
            "0xa94f5374fce5edbc8e2a8697c15331677e6ebf0b" : {
                "balance" : "0x0de0b6b3a2ca5592",
                "code" : "",
                "nonce" : "0x01",
                "storage" : {
                }
            }
        },
        "pre" : {
            "0x095e7baea6a6c7c4c2dfeb977efac326af552d87" : {
                "balance" : "0x00",
                "code" : "0x7f00000000000000000000000100000000000000000000000000000000000000007f000000000000000000000000000000000000000000000000000000000000c3506f4245446640764068625545586684905560005155",
                "nonce" : "0x00",
                "storage" : {
                }
            },
            "0x945304eb96065b2a98b57a48a06ae28d285a71b5" : {
                "balance" : "0x2e",
                "code" : "0x6000355415600957005b60203560003555",
                "nonce" : "0x00",
                "storage" : {
                }
            },
            "0xa94f5374fce5edbc8e2a8697c15331677e6ebf0b" : {
                "balance" : "0x0de0b6b3a7640000",
                "code" : "",
                "nonce" : "0x00",
                "storage" : {
                }
            }
        }
    },
    "randomStatetest243_d0g0v0_Homestead" : {
        "_info" : {
            "comment" : "",
            "filledwith" : "cpp-1.3.0+commit.6e0ce939.Linux.g++",
            "lllcversion" : "Version: 0.4.18-develop.2017.9.25+commit.a72237f2.Linux.g++",
            "source" : "src/BlockchainTestsFiller/GeneralStateTests/stRandom/randomStatetest243_d0g0v0Filler.json",
            "sourceHash" : "834ec6dcddcab2b6118e248f0fffbc9eaeb23267508bb1a37365573c658ff3b3"
        },
        "blocks" : [
            {
                "blockHeader" : {
                    "bloom" : "0x00000000000000000000000000000000000000000000000000000000000000000000000000000000000000000000000000000000000000000000000000000000000000000000000000000000000000000000000000000000000000000000000000000000000000000000000000000000000000000000000000000000000000000000000000000000000000000000000000000000000000000000000000000000000000000000000000000000000000000000000000000000000000000000000000000000000000000000000000000000000000000000000000000000000000000000000000000000000000000000000000000000000000000000000000000000",
                    "coinbase" : "0x945304eb96065b2a98b57a48a06ae28d285a71b5",
                    "difficulty" : "0x020000",
                    "extraData" : "",
                    "gasLimit" : "0x7fffffffffffffff",
                    "gasUsed" : "0xa6c2",
                    "hash" : "0xe117540aa262f995d5d92ccc3cf3c7fde1b15ebe60ab7293358f776783a6c81f",
                    "mixHash" : "0xfc6c2d6ceb8bf058627f926538715377b9dc97cabcd20dd2f2c8ec2ae0fdc760",
                    "nonce" : "0x0840f248f0498a61",
                    "number" : "0x01",
                    "parentHash" : "0x67e7785873a94505148d255a67c9d81b742621c567dfc9c77a97b5f7e19df11c",
                    "receiptTrie" : "0x3b67de84809547da9e3d16274914439391c0a081f9bf009ddb8cd55b0bae65a1",
                    "stateRoot" : "0x48f33e5fc66cbc329ff6501af0697256895f60757c8f9253544f86b0d56d688d",
                    "timestamp" : "0x03e8",
                    "transactionsTrie" : "0x4ebd21c98333ea40219c7a9f117c7f97a59cf89f372ec7f8ebe2265c878d1296",
                    "uncleHash" : "0x1dcc4de8dec75d7aab85b567b6ccd41ad312451b948a7413f0a142fd40d49347"
                },
                "rlp" : "0xf902bcf901fca067e7785873a94505148d255a67c9d81b742621c567dfc9c77a97b5f7e19df11ca01dcc4de8dec75d7aab85b567b6ccd41ad312451b948a7413f0a142fd40d4934794945304eb96065b2a98b57a48a06ae28d285a71b5a048f33e5fc66cbc329ff6501af0697256895f60757c8f9253544f86b0d56d688da04ebd21c98333ea40219c7a9f117c7f97a59cf89f372ec7f8ebe2265c878d1296a03b67de84809547da9e3d16274914439391c0a081f9bf009ddb8cd55b0bae65a1b90100000000000000000000000000000000000000000000000000000000000000000000000000000000000000000000000000000000000000000000000000000000000000000000000000000000000000000000000000000000000000000000000000000000000000000000000000000000000000000000000000000000000000000000000000000000000000000000000000000000000000000000000000000000000000000000000000000000000000000000000000000000000000000000000000000000000000000000000000000000000000000000000000000000000000000000000000000000000000000000000000000000000000000000000000000000008302000001887fffffffffffffff82a6c28203e880a0fc6c2d6ceb8bf058627f926538715377b9dc97cabcd20dd2f2c8ec2ae0fdc760880840f248f0498a61f8baf8b88001841103635494095e7baea6a6c7c4c2dfeb977efac326af552d8784049903acb8527f00000000000000000000000100000000000000000000000000000000000000007f000000000000000000000000000000000000000000000000000000000000c3506f4245446640764068625545586684901ca09ef11a1a4a55024230774b78babf9e46af90ef04c852c183020b821642cc3583a0117bb2daf9ec4242dd6ab8a9162fa869eda9de0f177e09831fa9f3a066827d09c0",
                "transactions" : [
                    {
                        "data" : "0x7f00000000000000000000000100000000000000000000000000000000000000007f000000000000000000000000000000000000000000000000000000000000c3506f424544664076406862554558668490",
                        "gasLimit" : "0x11036354",
                        "gasPrice" : "0x01",
                        "nonce" : "0x00",
                        "r" : "0x9ef11a1a4a55024230774b78babf9e46af90ef04c852c183020b821642cc3583",
                        "s" : "0x117bb2daf9ec4242dd6ab8a9162fa869eda9de0f177e09831fa9f3a066827d09",
                        "to" : "0x095e7baea6a6c7c4c2dfeb977efac326af552d87",
                        "v" : "0x1c",
                        "value" : "0x049903ac"
                    }
                ],
                "uncleHeaders" : [
                ]
            }
        ],
        "genesisBlockHeader" : {
            "bloom" : "0x00000000000000000000000000000000000000000000000000000000000000000000000000000000000000000000000000000000000000000000000000000000000000000000000000000000000000000000000000000000000000000000000000000000000000000000000000000000000000000000000000000000000000000000000000000000000000000000000000000000000000000000000000000000000000000000000000000000000000000000000000000000000000000000000000000000000000000000000000000000000000000000000000000000000000000000000000000000000000000000000000000000000000000000000000000000",
            "coinbase" : "0x945304eb96065b2a98b57a48a06ae28d285a71b5",
            "difficulty" : "0x020000",
            "extraData" : "0x42",
            "gasLimit" : "0x7fffffffffffffff",
            "gasUsed" : "0x00",
            "hash" : "0x67e7785873a94505148d255a67c9d81b742621c567dfc9c77a97b5f7e19df11c",
            "mixHash" : "0x56e81f171bcc55a6ff8345e692c0f86e5b48e01b996cadc001622fb5e363b421",
            "nonce" : "0x0102030405060708",
            "number" : "0x00",
            "parentHash" : "0x0000000000000000000000000000000000000000000000000000000000000000",
            "receiptTrie" : "0x56e81f171bcc55a6ff8345e692c0f86e5b48e01b996cadc001622fb5e363b421",
            "stateRoot" : "0xfec453d4bccf784fc2595ad5cd17b38f67e64b4d6a744122668fcbed5a76c8c4",
            "timestamp" : "0x03b6",
            "transactionsTrie" : "0x56e81f171bcc55a6ff8345e692c0f86e5b48e01b996cadc001622fb5e363b421",
            "uncleHash" : "0x1dcc4de8dec75d7aab85b567b6ccd41ad312451b948a7413f0a142fd40d49347"
        },
        "genesisRLP" : "0xf901fff901faa00000000000000000000000000000000000000000000000000000000000000000a01dcc4de8dec75d7aab85b567b6ccd41ad312451b948a7413f0a142fd40d4934794945304eb96065b2a98b57a48a06ae28d285a71b5a0fec453d4bccf784fc2595ad5cd17b38f67e64b4d6a744122668fcbed5a76c8c4a056e81f171bcc55a6ff8345e692c0f86e5b48e01b996cadc001622fb5e363b421a056e81f171bcc55a6ff8345e692c0f86e5b48e01b996cadc001622fb5e363b421b90100000000000000000000000000000000000000000000000000000000000000000000000000000000000000000000000000000000000000000000000000000000000000000000000000000000000000000000000000000000000000000000000000000000000000000000000000000000000000000000000000000000000000000000000000000000000000000000000000000000000000000000000000000000000000000000000000000000000000000000000000000000000000000000000000000000000000000000000000000000000000000000000000000000000000000000000000000000000000000000000000000000000000000000000000000000008302000080887fffffffffffffff808203b642a056e81f171bcc55a6ff8345e692c0f86e5b48e01b996cadc001622fb5e363b421880102030405060708c0c0",
        "lastblockhash" : "0xe117540aa262f995d5d92ccc3cf3c7fde1b15ebe60ab7293358f776783a6c81f",
        "network" : "Homestead",
        "postState" : {
            "0x095e7baea6a6c7c4c2dfeb977efac326af552d87" : {
                "balance" : "0x049903ac",
                "code" : "0x7f00000000000000000000000100000000000000000000000000000000000000007f000000000000000000000000000000000000000000000000000000000000c3506f4245446640764068625545586684905560005155",
                "nonce" : "0x00",
                "storage" : {
                    "0x00" : "0x42454466407640686255455866849055"
                }
            },
            "0x945304eb96065b2a98b57a48a06ae28d285a71b5" : {
                "balance" : "0x4563918244f4a6f0",
                "code" : "0x6000355415600957005b60203560003555",
                "nonce" : "0x00",
                "storage" : {
                }
            },
            "0xa94f5374fce5edbc8e2a8697c15331677e6ebf0b" : {
                "balance" : "0x0de0b6b3a2ca5592",
                "code" : "",
                "nonce" : "0x01",
                "storage" : {
                }
            }
        },
        "pre" : {
            "0x095e7baea6a6c7c4c2dfeb977efac326af552d87" : {
                "balance" : "0x00",
                "code" : "0x7f00000000000000000000000100000000000000000000000000000000000000007f000000000000000000000000000000000000000000000000000000000000c3506f4245446640764068625545586684905560005155",
                "nonce" : "0x00",
                "storage" : {
                }
            },
            "0x945304eb96065b2a98b57a48a06ae28d285a71b5" : {
                "balance" : "0x2e",
                "code" : "0x6000355415600957005b60203560003555",
                "nonce" : "0x00",
                "storage" : {
                }
            },
            "0xa94f5374fce5edbc8e2a8697c15331677e6ebf0b" : {
                "balance" : "0x0de0b6b3a7640000",
                "code" : "",
                "nonce" : "0x00",
                "storage" : {
                }
            }
        }
    }
}