{
    "randomStatetest413_d0g0v0_EIP150" : {
        "blocks" : [
            {
                "blockHeader" : {
                    "bloom" : "0x00000000000000000000000000000000000000000000000000000000000000000000000000000000000000000000000000000000000000000000000000000000000000000000000000000000000000000000000000000000000000000000000000000000000000000000000000000000000000000000000000000000000000000000000000000000000000000000000000000000000000000000000000000000000000000000000000000000000000000000000000000000000000000000000000000000000000000000000000000000000000000000000000000000000000000000000000000000000000000000000000000000000000000000000000000000",
                    "coinbase" : "0x945304eb96065b2a98b57a48a06ae28d285a71b5",
                    "difficulty" : "0x020000",
                    "extraData" : "",
                    "gasLimit" : "0x7fffffffffffffff",
                    "gasUsed" : "0xb9e5",
                    "hash" : "0xf3f8ca62a52fda4a94d4f1a66239b59ec259b13697dd99560b8996f819820730",
                    "mixHash" : "0xfd83f481ef5a3b199357f65fec1b91a4fc333511c5e5748b880ebc6d02b35aaa",
                    "nonce" : "0x1f7df5c97ff3bc4c",
                    "number" : "0x01",
                    "parentHash" : "0xc5ef6d878cf80e6e72d4daa0d4c6bd891e088f11165fe9e3d005bb72bc48d747",
                    "receiptTrie" : "0x73e74a42c4338d484b8f277cc82589b79319c7961752a62c2945201b8167809f",
                    "stateRoot" : "0xc10a6d71f152802eaa8cb565988ab97dbaba824240d276910ff0e077030ebd40",
                    "timestamp" : "0x03e8",
                    "transactionsTrie" : "0x85adab1b695bd8e624dd2ed7ba2c3a4dcd2a5389a2f5d2233466b2e74949c1ab",
                    "uncleHash" : "0x1dcc4de8dec75d7aab85b567b6ccd41ad312451b948a7413f0a142fd40d49347"
                },
                "rlp" : "0xf90323f901fca0c5ef6d878cf80e6e72d4daa0d4c6bd891e088f11165fe9e3d005bb72bc48d747a01dcc4de8dec75d7aab85b567b6ccd41ad312451b948a7413f0a142fd40d4934794945304eb96065b2a98b57a48a06ae28d285a71b5a0c10a6d71f152802eaa8cb565988ab97dbaba824240d276910ff0e077030ebd40a085adab1b695bd8e624dd2ed7ba2c3a4dcd2a5389a2f5d2233466b2e74949c1aba073e74a42c4338d484b8f277cc82589b79319c7961752a62c2945201b8167809fb90100000000000000000000000000000000000000000000000000000000000000000000000000000000000000000000000000000000000000000000000000000000000000000000000000000000000000000000000000000000000000000000000000000000000000000000000000000000000000000000000000000000000000000000000000000000000000000000000000000000000000000000000000000000000000000000000000000000000000000000000000000000000000000000000000000000000000000000000000000000000000000000000000000000000000000000000000000000000000000000000000000000000000000000000000000000008302000001887fffffffffffffff82b9e58203e880a0fd83f481ef5a3b199357f65fec1b91a4fc333511c5e5748b880ebc6d02b35aaa881f7df5c97ff3bc4cf90120f9011d80018463aead2694095e7baea6a6c7c4c2dfeb977efac326af552d878447e29c11b8b77ffffffffffffffffffffffffffffffffffffffffffffffffffffffffffffffffe7f000000000000000000000000000000000000000000000000000000000000c3507f0000000000000000000000010000000000000000000000000000000000000000817ffffffffffffffffffffffffffffffffffffffffffffffffffffffffffffffffe037f00000000000000000000000000000000000000000000000000000000000000016f086e2055149345ad1a018b063708141ca0f5efe2e13816d0e5bcc34be8e93519b87054b7b36511d24ad7f8ab1200121093a012c1fa789705a3778dea41af790467c39bef37682b1baffc49a9a0015c1ea7ecc0",
                "transactions" : [
                    {
                        "data" : "0x7ffffffffffffffffffffffffffffffffffffffffffffffffffffffffffffffffe7f000000000000000000000000000000000000000000000000000000000000c3507f0000000000000000000000010000000000000000000000000000000000000000817ffffffffffffffffffffffffffffffffffffffffffffffffffffffffffffffffe037f00000000000000000000000000000000000000000000000000000000000000016f086e2055149345ad1a018b06370814",
                        "gasLimit" : "0x63aead26",
                        "gasPrice" : "0x01",
                        "nonce" : "0x00",
                        "r" : "0xf5efe2e13816d0e5bcc34be8e93519b87054b7b36511d24ad7f8ab1200121093",
                        "s" : "0x12c1fa789705a3778dea41af790467c39bef37682b1baffc49a9a0015c1ea7ec",
                        "to" : "0x095e7baea6a6c7c4c2dfeb977efac326af552d87",
                        "v" : "0x1c",
                        "value" : "0x47e29c11"
                    }
                ],
                "uncleHeaders" : [
                ]
            }
        ],
        "genesisBlockHeader" : {
            "bloom" : "0x00000000000000000000000000000000000000000000000000000000000000000000000000000000000000000000000000000000000000000000000000000000000000000000000000000000000000000000000000000000000000000000000000000000000000000000000000000000000000000000000000000000000000000000000000000000000000000000000000000000000000000000000000000000000000000000000000000000000000000000000000000000000000000000000000000000000000000000000000000000000000000000000000000000000000000000000000000000000000000000000000000000000000000000000000000000",
            "coinbase" : "0x945304eb96065b2a98b57a48a06ae28d285a71b5",
            "difficulty" : "0x020000",
            "extraData" : "0x42",
            "gasLimit" : "0x7fffffffffffffff",
            "gasUsed" : "0x00",
            "hash" : "0xc5ef6d878cf80e6e72d4daa0d4c6bd891e088f11165fe9e3d005bb72bc48d747",
            "mixHash" : "0x56e81f171bcc55a6ff8345e692c0f86e5b48e01b996cadc001622fb5e363b421",
            "nonce" : "0x0102030405060708",
            "number" : "0x00",
            "parentHash" : "0x0000000000000000000000000000000000000000000000000000000000000000",
            "receiptTrie" : "0x56e81f171bcc55a6ff8345e692c0f86e5b48e01b996cadc001622fb5e363b421",
            "stateRoot" : "0x39d2a70b08692c395b7718025c87a04fbbaa6b3656302a2821c06969faa39cf5",
            "timestamp" : "0x03b6",
            "transactionsTrie" : "0x56e81f171bcc55a6ff8345e692c0f86e5b48e01b996cadc001622fb5e363b421",
            "uncleHash" : "0x1dcc4de8dec75d7aab85b567b6ccd41ad312451b948a7413f0a142fd40d49347"
        },
        "genesisRLP" : "0xf901fff901faa00000000000000000000000000000000000000000000000000000000000000000a01dcc4de8dec75d7aab85b567b6ccd41ad312451b948a7413f0a142fd40d4934794945304eb96065b2a98b57a48a06ae28d285a71b5a039d2a70b08692c395b7718025c87a04fbbaa6b3656302a2821c06969faa39cf5a056e81f171bcc55a6ff8345e692c0f86e5b48e01b996cadc001622fb5e363b421a056e81f171bcc55a6ff8345e692c0f86e5b48e01b996cadc001622fb5e363b421b90100000000000000000000000000000000000000000000000000000000000000000000000000000000000000000000000000000000000000000000000000000000000000000000000000000000000000000000000000000000000000000000000000000000000000000000000000000000000000000000000000000000000000000000000000000000000000000000000000000000000000000000000000000000000000000000000000000000000000000000000000000000000000000000000000000000000000000000000000000000000000000000000000000000000000000000000000000000000000000000000000000000000000000000000000000000008302000080887fffffffffffffff808203b642a056e81f171bcc55a6ff8345e692c0f86e5b48e01b996cadc001622fb5e363b421880102030405060708c0c0",
        "lastblockhash" : "0xf3f8ca62a52fda4a94d4f1a66239b59ec259b13697dd99560b8996f819820730",
        "network" : "EIP150",
        "postState" : {
            "0x095e7baea6a6c7c4c2dfeb977efac326af552d87" : {
                "balance" : "0x47e29c11",
                "code" : "0x7ffffffffffffffffffffffffffffffffffffffffffffffffffffffffffffffffe7f000000000000000000000000000000000000000000000000000000000000c3507f0000000000000000000000010000000000000000000000000000000000000000817ffffffffffffffffffffffffffffffffffffffffffffffffffffffffffffffffe037f00000000000000000000000000000000000000000000000000000000000000016f086e2055149345ad1a018b063708145560005155",
                "nonce" : "0x00",
                "storage" : {
                    "0x00" : "0x086e2055149345ad1a018b0637081455"
                }
            },
            "0x945304eb96065b2a98b57a48a06ae28d285a71b5" : {
                "balance" : "0x4563918244f4ba13",
                "code" : "0x6000355415600957005b60203560003555",
                "nonce" : "0x00",
                "storage" : {
                }
            },
            "0xa94f5374fce5edbc8e2a8697c15331677e6ebf0b" : {
                "balance" : "0x0de0b6b35f80aa0a",
                "code" : "",
                "nonce" : "0x01",
                "storage" : {
                }
            }
        },
        "pre" : {
            "0x095e7baea6a6c7c4c2dfeb977efac326af552d87" : {
                "balance" : "0x00",
                "code" : "0x7ffffffffffffffffffffffffffffffffffffffffffffffffffffffffffffffffe7f000000000000000000000000000000000000000000000000000000000000c3507f0000000000000000000000010000000000000000000000000000000000000000817ffffffffffffffffffffffffffffffffffffffffffffffffffffffffffffffffe037f00000000000000000000000000000000000000000000000000000000000000016f086e2055149345ad1a018b063708145560005155",
                "nonce" : "0x00",
                "storage" : {
                }
            },
            "0x945304eb96065b2a98b57a48a06ae28d285a71b5" : {
                "balance" : "0x2e",
                "code" : "0x6000355415600957005b60203560003555",
                "nonce" : "0x00",
                "storage" : {
                }
            },
            "0xa94f5374fce5edbc8e2a8697c15331677e6ebf0b" : {
                "balance" : "0x0de0b6b3a7640000",
                "code" : "",
                "nonce" : "0x00",
                "storage" : {
                }
            }
        }
    },
    "randomStatetest413_d0g0v0_EIP158" : {
        "blocks" : [
            {
                "blockHeader" : {
                    "bloom" : "0x00000000000000000000000000000000000000000000000000000000000000000000000000000000000000000000000000000000000000000000000000000000000000000000000000000000000000000000000000000000000000000000000000000000000000000000000000000000000000000000000000000000000000000000000000000000000000000000000000000000000000000000000000000000000000000000000000000000000000000000000000000000000000000000000000000000000000000000000000000000000000000000000000000000000000000000000000000000000000000000000000000000000000000000000000000000",
                    "coinbase" : "0x945304eb96065b2a98b57a48a06ae28d285a71b5",
                    "difficulty" : "0x020000",
                    "extraData" : "",
                    "gasLimit" : "0x7fffffffffffffff",
                    "gasUsed" : "0xb9e5",
                    "hash" : "0x60368923209bb59996554ecac878399aca6306d40556c35dd698a42d4ba893c6",
                    "mixHash" : "0x2a0e407fc94fae7f554a72d42b0ed5789e6bc671baf9e9f2298f7ee1eb79c20e",
                    "nonce" : "0x94a0b3f0f85d6a8e",
                    "number" : "0x01",
                    "parentHash" : "0xc5ef6d878cf80e6e72d4daa0d4c6bd891e088f11165fe9e3d005bb72bc48d747",
                    "receiptTrie" : "0x73e74a42c4338d484b8f277cc82589b79319c7961752a62c2945201b8167809f",
                    "stateRoot" : "0xc10a6d71f152802eaa8cb565988ab97dbaba824240d276910ff0e077030ebd40",
                    "timestamp" : "0x03e8",
                    "transactionsTrie" : "0x85adab1b695bd8e624dd2ed7ba2c3a4dcd2a5389a2f5d2233466b2e74949c1ab",
                    "uncleHash" : "0x1dcc4de8dec75d7aab85b567b6ccd41ad312451b948a7413f0a142fd40d49347"
                },
                "rlp" : "0xf90323f901fca0c5ef6d878cf80e6e72d4daa0d4c6bd891e088f11165fe9e3d005bb72bc48d747a01dcc4de8dec75d7aab85b567b6ccd41ad312451b948a7413f0a142fd40d4934794945304eb96065b2a98b57a48a06ae28d285a71b5a0c10a6d71f152802eaa8cb565988ab97dbaba824240d276910ff0e077030ebd40a085adab1b695bd8e624dd2ed7ba2c3a4dcd2a5389a2f5d2233466b2e74949c1aba073e74a42c4338d484b8f277cc82589b79319c7961752a62c2945201b8167809fb90100000000000000000000000000000000000000000000000000000000000000000000000000000000000000000000000000000000000000000000000000000000000000000000000000000000000000000000000000000000000000000000000000000000000000000000000000000000000000000000000000000000000000000000000000000000000000000000000000000000000000000000000000000000000000000000000000000000000000000000000000000000000000000000000000000000000000000000000000000000000000000000000000000000000000000000000000000000000000000000000000000000000000000000000000000000008302000001887fffffffffffffff82b9e58203e880a02a0e407fc94fae7f554a72d42b0ed5789e6bc671baf9e9f2298f7ee1eb79c20e8894a0b3f0f85d6a8ef90120f9011d80018463aead2694095e7baea6a6c7c4c2dfeb977efac326af552d878447e29c11b8b77ffffffffffffffffffffffffffffffffffffffffffffffffffffffffffffffffe7f000000000000000000000000000000000000000000000000000000000000c3507f0000000000000000000000010000000000000000000000000000000000000000817ffffffffffffffffffffffffffffffffffffffffffffffffffffffffffffffffe037f00000000000000000000000000000000000000000000000000000000000000016f086e2055149345ad1a018b063708141ca0f5efe2e13816d0e5bcc34be8e93519b87054b7b36511d24ad7f8ab1200121093a012c1fa789705a3778dea41af790467c39bef37682b1baffc49a9a0015c1ea7ecc0",
                "transactions" : [
                    {
                        "data" : "0x7ffffffffffffffffffffffffffffffffffffffffffffffffffffffffffffffffe7f000000000000000000000000000000000000000000000000000000000000c3507f0000000000000000000000010000000000000000000000000000000000000000817ffffffffffffffffffffffffffffffffffffffffffffffffffffffffffffffffe037f00000000000000000000000000000000000000000000000000000000000000016f086e2055149345ad1a018b06370814",
                        "gasLimit" : "0x63aead26",
                        "gasPrice" : "0x01",
                        "nonce" : "0x00",
                        "r" : "0xf5efe2e13816d0e5bcc34be8e93519b87054b7b36511d24ad7f8ab1200121093",
                        "s" : "0x12c1fa789705a3778dea41af790467c39bef37682b1baffc49a9a0015c1ea7ec",
                        "to" : "0x095e7baea6a6c7c4c2dfeb977efac326af552d87",
                        "v" : "0x1c",
                        "value" : "0x47e29c11"
                    }
                ],
                "uncleHeaders" : [
                ]
            }
        ],
        "genesisBlockHeader" : {
            "bloom" : "0x00000000000000000000000000000000000000000000000000000000000000000000000000000000000000000000000000000000000000000000000000000000000000000000000000000000000000000000000000000000000000000000000000000000000000000000000000000000000000000000000000000000000000000000000000000000000000000000000000000000000000000000000000000000000000000000000000000000000000000000000000000000000000000000000000000000000000000000000000000000000000000000000000000000000000000000000000000000000000000000000000000000000000000000000000000000",
            "coinbase" : "0x945304eb96065b2a98b57a48a06ae28d285a71b5",
            "difficulty" : "0x020000",
            "extraData" : "0x42",
            "gasLimit" : "0x7fffffffffffffff",
            "gasUsed" : "0x00",
            "hash" : "0xc5ef6d878cf80e6e72d4daa0d4c6bd891e088f11165fe9e3d005bb72bc48d747",
            "mixHash" : "0x56e81f171bcc55a6ff8345e692c0f86e5b48e01b996cadc001622fb5e363b421",
            "nonce" : "0x0102030405060708",
            "number" : "0x00",
            "parentHash" : "0x0000000000000000000000000000000000000000000000000000000000000000",
            "receiptTrie" : "0x56e81f171bcc55a6ff8345e692c0f86e5b48e01b996cadc001622fb5e363b421",
            "stateRoot" : "0x39d2a70b08692c395b7718025c87a04fbbaa6b3656302a2821c06969faa39cf5",
            "timestamp" : "0x03b6",
            "transactionsTrie" : "0x56e81f171bcc55a6ff8345e692c0f86e5b48e01b996cadc001622fb5e363b421",
            "uncleHash" : "0x1dcc4de8dec75d7aab85b567b6ccd41ad312451b948a7413f0a142fd40d49347"
        },
        "genesisRLP" : "0xf901fff901faa00000000000000000000000000000000000000000000000000000000000000000a01dcc4de8dec75d7aab85b567b6ccd41ad312451b948a7413f0a142fd40d4934794945304eb96065b2a98b57a48a06ae28d285a71b5a039d2a70b08692c395b7718025c87a04fbbaa6b3656302a2821c06969faa39cf5a056e81f171bcc55a6ff8345e692c0f86e5b48e01b996cadc001622fb5e363b421a056e81f171bcc55a6ff8345e692c0f86e5b48e01b996cadc001622fb5e363b421b90100000000000000000000000000000000000000000000000000000000000000000000000000000000000000000000000000000000000000000000000000000000000000000000000000000000000000000000000000000000000000000000000000000000000000000000000000000000000000000000000000000000000000000000000000000000000000000000000000000000000000000000000000000000000000000000000000000000000000000000000000000000000000000000000000000000000000000000000000000000000000000000000000000000000000000000000000000000000000000000000000000000000000000000000000000000008302000080887fffffffffffffff808203b642a056e81f171bcc55a6ff8345e692c0f86e5b48e01b996cadc001622fb5e363b421880102030405060708c0c0",
        "lastblockhash" : "0x60368923209bb59996554ecac878399aca6306d40556c35dd698a42d4ba893c6",
        "network" : "EIP158",
        "postState" : {
            "0x095e7baea6a6c7c4c2dfeb977efac326af552d87" : {
                "balance" : "0x47e29c11",
                "code" : "0x7ffffffffffffffffffffffffffffffffffffffffffffffffffffffffffffffffe7f000000000000000000000000000000000000000000000000000000000000c3507f0000000000000000000000010000000000000000000000000000000000000000817ffffffffffffffffffffffffffffffffffffffffffffffffffffffffffffffffe037f00000000000000000000000000000000000000000000000000000000000000016f086e2055149345ad1a018b063708145560005155",
                "nonce" : "0x00",
                "storage" : {
                    "0x00" : "0x086e2055149345ad1a018b0637081455"
                }
            },
            "0x945304eb96065b2a98b57a48a06ae28d285a71b5" : {
                "balance" : "0x4563918244f4ba13",
                "code" : "0x6000355415600957005b60203560003555",
                "nonce" : "0x00",
                "storage" : {
                }
            },
            "0xa94f5374fce5edbc8e2a8697c15331677e6ebf0b" : {
                "balance" : "0x0de0b6b35f80aa0a",
                "code" : "",
                "nonce" : "0x01",
                "storage" : {
                }
            }
        },
        "pre" : {
            "0x095e7baea6a6c7c4c2dfeb977efac326af552d87" : {
                "balance" : "0x00",
                "code" : "0x7ffffffffffffffffffffffffffffffffffffffffffffffffffffffffffffffffe7f000000000000000000000000000000000000000000000000000000000000c3507f0000000000000000000000010000000000000000000000000000000000000000817ffffffffffffffffffffffffffffffffffffffffffffffffffffffffffffffffe037f00000000000000000000000000000000000000000000000000000000000000016f086e2055149345ad1a018b063708145560005155",
                "nonce" : "0x00",
                "storage" : {
                }
            },
            "0x945304eb96065b2a98b57a48a06ae28d285a71b5" : {
                "balance" : "0x2e",
                "code" : "0x6000355415600957005b60203560003555",
                "nonce" : "0x00",
                "storage" : {
                }
            },
            "0xa94f5374fce5edbc8e2a8697c15331677e6ebf0b" : {
                "balance" : "0x0de0b6b3a7640000",
                "code" : "",
                "nonce" : "0x00",
                "storage" : {
                }
            }
        }
    },
    "randomStatetest413_d0g0v0_Frontier" : {
        "blocks" : [
            {
                "blockHeader" : {
                    "bloom" : "0x00000000000000000000000000000000000000000000000000000000000000000000000000000000000000000000000000000000000000000000000000000000000000000000000000000000000000000000000000000000000000000000000000000000000000000000000000000000000000000000000000000000000000000000000000000000000000000000000000000000000000000000000000000000000000000000000000000000000000000000000000000000000000000000000000000000000000000000000000000000000000000000000000000000000000000000000000000000000000000000000000000000000000000000000000000000",
                    "coinbase" : "0x945304eb96065b2a98b57a48a06ae28d285a71b5",
                    "difficulty" : "0x020000",
                    "extraData" : "",
                    "gasLimit" : "0x7fffffffffffffff",
                    "gasUsed" : "0xb9e5",
                    "hash" : "0xf86b25147e3ad328b4f3c58c8b3a7f11d6d65e9881044a67dbb0102f4369686d",
                    "mixHash" : "0x3e365665b6b465fe952e3fa64aab6c1d2d4325b19df498699246cf1caa7ff605",
                    "nonce" : "0x05530fad328637e1",
                    "number" : "0x01",
                    "parentHash" : "0xc5ef6d878cf80e6e72d4daa0d4c6bd891e088f11165fe9e3d005bb72bc48d747",
                    "receiptTrie" : "0x73e74a42c4338d484b8f277cc82589b79319c7961752a62c2945201b8167809f",
                    "stateRoot" : "0xc10a6d71f152802eaa8cb565988ab97dbaba824240d276910ff0e077030ebd40",
                    "timestamp" : "0x03e8",
                    "transactionsTrie" : "0x85adab1b695bd8e624dd2ed7ba2c3a4dcd2a5389a2f5d2233466b2e74949c1ab",
                    "uncleHash" : "0x1dcc4de8dec75d7aab85b567b6ccd41ad312451b948a7413f0a142fd40d49347"
                },
                "rlp" : "0xf90323f901fca0c5ef6d878cf80e6e72d4daa0d4c6bd891e088f11165fe9e3d005bb72bc48d747a01dcc4de8dec75d7aab85b567b6ccd41ad312451b948a7413f0a142fd40d4934794945304eb96065b2a98b57a48a06ae28d285a71b5a0c10a6d71f152802eaa8cb565988ab97dbaba824240d276910ff0e077030ebd40a085adab1b695bd8e624dd2ed7ba2c3a4dcd2a5389a2f5d2233466b2e74949c1aba073e74a42c4338d484b8f277cc82589b79319c7961752a62c2945201b8167809fb90100000000000000000000000000000000000000000000000000000000000000000000000000000000000000000000000000000000000000000000000000000000000000000000000000000000000000000000000000000000000000000000000000000000000000000000000000000000000000000000000000000000000000000000000000000000000000000000000000000000000000000000000000000000000000000000000000000000000000000000000000000000000000000000000000000000000000000000000000000000000000000000000000000000000000000000000000000000000000000000000000000000000000000000000000000000008302000001887fffffffffffffff82b9e58203e880a03e365665b6b465fe952e3fa64aab6c1d2d4325b19df498699246cf1caa7ff6058805530fad328637e1f90120f9011d80018463aead2694095e7baea6a6c7c4c2dfeb977efac326af552d878447e29c11b8b77ffffffffffffffffffffffffffffffffffffffffffffffffffffffffffffffffe7f000000000000000000000000000000000000000000000000000000000000c3507f0000000000000000000000010000000000000000000000000000000000000000817ffffffffffffffffffffffffffffffffffffffffffffffffffffffffffffffffe037f00000000000000000000000000000000000000000000000000000000000000016f086e2055149345ad1a018b063708141ca0f5efe2e13816d0e5bcc34be8e93519b87054b7b36511d24ad7f8ab1200121093a012c1fa789705a3778dea41af790467c39bef37682b1baffc49a9a0015c1ea7ecc0",
                "transactions" : [
                    {
                        "data" : "0x7ffffffffffffffffffffffffffffffffffffffffffffffffffffffffffffffffe7f000000000000000000000000000000000000000000000000000000000000c3507f0000000000000000000000010000000000000000000000000000000000000000817ffffffffffffffffffffffffffffffffffffffffffffffffffffffffffffffffe037f00000000000000000000000000000000000000000000000000000000000000016f086e2055149345ad1a018b06370814",
                        "gasLimit" : "0x63aead26",
                        "gasPrice" : "0x01",
                        "nonce" : "0x00",
                        "r" : "0xf5efe2e13816d0e5bcc34be8e93519b87054b7b36511d24ad7f8ab1200121093",
                        "s" : "0x12c1fa789705a3778dea41af790467c39bef37682b1baffc49a9a0015c1ea7ec",
                        "to" : "0x095e7baea6a6c7c4c2dfeb977efac326af552d87",
                        "v" : "0x1c",
                        "value" : "0x47e29c11"
                    }
                ],
                "uncleHeaders" : [
                ]
            }
        ],
        "genesisBlockHeader" : {
            "bloom" : "0x00000000000000000000000000000000000000000000000000000000000000000000000000000000000000000000000000000000000000000000000000000000000000000000000000000000000000000000000000000000000000000000000000000000000000000000000000000000000000000000000000000000000000000000000000000000000000000000000000000000000000000000000000000000000000000000000000000000000000000000000000000000000000000000000000000000000000000000000000000000000000000000000000000000000000000000000000000000000000000000000000000000000000000000000000000000",
            "coinbase" : "0x945304eb96065b2a98b57a48a06ae28d285a71b5",
            "difficulty" : "0x020000",
            "extraData" : "0x42",
            "gasLimit" : "0x7fffffffffffffff",
            "gasUsed" : "0x00",
            "hash" : "0xc5ef6d878cf80e6e72d4daa0d4c6bd891e088f11165fe9e3d005bb72bc48d747",
            "mixHash" : "0x56e81f171bcc55a6ff8345e692c0f86e5b48e01b996cadc001622fb5e363b421",
            "nonce" : "0x0102030405060708",
            "number" : "0x00",
            "parentHash" : "0x0000000000000000000000000000000000000000000000000000000000000000",
            "receiptTrie" : "0x56e81f171bcc55a6ff8345e692c0f86e5b48e01b996cadc001622fb5e363b421",
            "stateRoot" : "0x39d2a70b08692c395b7718025c87a04fbbaa6b3656302a2821c06969faa39cf5",
            "timestamp" : "0x03b6",
            "transactionsTrie" : "0x56e81f171bcc55a6ff8345e692c0f86e5b48e01b996cadc001622fb5e363b421",
            "uncleHash" : "0x1dcc4de8dec75d7aab85b567b6ccd41ad312451b948a7413f0a142fd40d49347"
        },
        "genesisRLP" : "0xf901fff901faa00000000000000000000000000000000000000000000000000000000000000000a01dcc4de8dec75d7aab85b567b6ccd41ad312451b948a7413f0a142fd40d4934794945304eb96065b2a98b57a48a06ae28d285a71b5a039d2a70b08692c395b7718025c87a04fbbaa6b3656302a2821c06969faa39cf5a056e81f171bcc55a6ff8345e692c0f86e5b48e01b996cadc001622fb5e363b421a056e81f171bcc55a6ff8345e692c0f86e5b48e01b996cadc001622fb5e363b421b90100000000000000000000000000000000000000000000000000000000000000000000000000000000000000000000000000000000000000000000000000000000000000000000000000000000000000000000000000000000000000000000000000000000000000000000000000000000000000000000000000000000000000000000000000000000000000000000000000000000000000000000000000000000000000000000000000000000000000000000000000000000000000000000000000000000000000000000000000000000000000000000000000000000000000000000000000000000000000000000000000000000000000000000000000000000008302000080887fffffffffffffff808203b642a056e81f171bcc55a6ff8345e692c0f86e5b48e01b996cadc001622fb5e363b421880102030405060708c0c0",
        "lastblockhash" : "0xf86b25147e3ad328b4f3c58c8b3a7f11d6d65e9881044a67dbb0102f4369686d",
        "network" : "Frontier",
        "postState" : {
            "0x095e7baea6a6c7c4c2dfeb977efac326af552d87" : {
                "balance" : "0x47e29c11",
                "code" : "0x7ffffffffffffffffffffffffffffffffffffffffffffffffffffffffffffffffe7f000000000000000000000000000000000000000000000000000000000000c3507f0000000000000000000000010000000000000000000000000000000000000000817ffffffffffffffffffffffffffffffffffffffffffffffffffffffffffffffffe037f00000000000000000000000000000000000000000000000000000000000000016f086e2055149345ad1a018b063708145560005155",
                "nonce" : "0x00",
                "storage" : {
                    "0x00" : "0x086e2055149345ad1a018b0637081455"
                }
            },
            "0x945304eb96065b2a98b57a48a06ae28d285a71b5" : {
                "balance" : "0x4563918244f4ba13",
                "code" : "0x6000355415600957005b60203560003555",
                "nonce" : "0x00",
                "storage" : {
                }
            },
            "0xa94f5374fce5edbc8e2a8697c15331677e6ebf0b" : {
                "balance" : "0x0de0b6b35f80aa0a",
                "code" : "",
                "nonce" : "0x01",
                "storage" : {
                }
            }
        },
        "pre" : {
            "0x095e7baea6a6c7c4c2dfeb977efac326af552d87" : {
                "balance" : "0x00",
                "code" : "0x7ffffffffffffffffffffffffffffffffffffffffffffffffffffffffffffffffe7f000000000000000000000000000000000000000000000000000000000000c3507f0000000000000000000000010000000000000000000000000000000000000000817ffffffffffffffffffffffffffffffffffffffffffffffffffffffffffffffffe037f00000000000000000000000000000000000000000000000000000000000000016f086e2055149345ad1a018b063708145560005155",
                "nonce" : "0x00",
                "storage" : {
                }
            },
            "0x945304eb96065b2a98b57a48a06ae28d285a71b5" : {
                "balance" : "0x2e",
                "code" : "0x6000355415600957005b60203560003555",
                "nonce" : "0x00",
                "storage" : {
                }
            },
            "0xa94f5374fce5edbc8e2a8697c15331677e6ebf0b" : {
                "balance" : "0x0de0b6b3a7640000",
                "code" : "",
                "nonce" : "0x00",
                "storage" : {
                }
            }
        }
    },
    "randomStatetest413_d0g0v0_Homestead" : {
        "blocks" : [
            {
                "blockHeader" : {
                    "bloom" : "0x00000000000000000000000000000000000000000000000000000000000000000000000000000000000000000000000000000000000000000000000000000000000000000000000000000000000000000000000000000000000000000000000000000000000000000000000000000000000000000000000000000000000000000000000000000000000000000000000000000000000000000000000000000000000000000000000000000000000000000000000000000000000000000000000000000000000000000000000000000000000000000000000000000000000000000000000000000000000000000000000000000000000000000000000000000000",
                    "coinbase" : "0x945304eb96065b2a98b57a48a06ae28d285a71b5",
                    "difficulty" : "0x020000",
                    "extraData" : "",
                    "gasLimit" : "0x7fffffffffffffff",
                    "gasUsed" : "0xb9e5",
                    "hash" : "0x08c3b0544b3a2e5065f14e085c93f8432eed735bcb3c6dee79b8318199475abe",
                    "mixHash" : "0x6b42932b4d414c32831d5c8bbc7d35bf67057afcf38392107a299ad08f9f13e8",
                    "nonce" : "0x0a18559545b3504f",
                    "number" : "0x01",
                    "parentHash" : "0xc5ef6d878cf80e6e72d4daa0d4c6bd891e088f11165fe9e3d005bb72bc48d747",
                    "receiptTrie" : "0x73e74a42c4338d484b8f277cc82589b79319c7961752a62c2945201b8167809f",
                    "stateRoot" : "0xc10a6d71f152802eaa8cb565988ab97dbaba824240d276910ff0e077030ebd40",
                    "timestamp" : "0x03e8",
                    "transactionsTrie" : "0x85adab1b695bd8e624dd2ed7ba2c3a4dcd2a5389a2f5d2233466b2e74949c1ab",
                    "uncleHash" : "0x1dcc4de8dec75d7aab85b567b6ccd41ad312451b948a7413f0a142fd40d49347"
                },
                "rlp" : "0xf90323f901fca0c5ef6d878cf80e6e72d4daa0d4c6bd891e088f11165fe9e3d005bb72bc48d747a01dcc4de8dec75d7aab85b567b6ccd41ad312451b948a7413f0a142fd40d4934794945304eb96065b2a98b57a48a06ae28d285a71b5a0c10a6d71f152802eaa8cb565988ab97dbaba824240d276910ff0e077030ebd40a085adab1b695bd8e624dd2ed7ba2c3a4dcd2a5389a2f5d2233466b2e74949c1aba073e74a42c4338d484b8f277cc82589b79319c7961752a62c2945201b8167809fb90100000000000000000000000000000000000000000000000000000000000000000000000000000000000000000000000000000000000000000000000000000000000000000000000000000000000000000000000000000000000000000000000000000000000000000000000000000000000000000000000000000000000000000000000000000000000000000000000000000000000000000000000000000000000000000000000000000000000000000000000000000000000000000000000000000000000000000000000000000000000000000000000000000000000000000000000000000000000000000000000000000000000000000000000000000000008302000001887fffffffffffffff82b9e58203e880a06b42932b4d414c32831d5c8bbc7d35bf67057afcf38392107a299ad08f9f13e8880a18559545b3504ff90120f9011d80018463aead2694095e7baea6a6c7c4c2dfeb977efac326af552d878447e29c11b8b77ffffffffffffffffffffffffffffffffffffffffffffffffffffffffffffffffe7f000000000000000000000000000000000000000000000000000000000000c3507f0000000000000000000000010000000000000000000000000000000000000000817ffffffffffffffffffffffffffffffffffffffffffffffffffffffffffffffffe037f00000000000000000000000000000000000000000000000000000000000000016f086e2055149345ad1a018b063708141ca0f5efe2e13816d0e5bcc34be8e93519b87054b7b36511d24ad7f8ab1200121093a012c1fa789705a3778dea41af790467c39bef37682b1baffc49a9a0015c1ea7ecc0",
                "transactions" : [
                    {
                        "data" : "0x7ffffffffffffffffffffffffffffffffffffffffffffffffffffffffffffffffe7f000000000000000000000000000000000000000000000000000000000000c3507f0000000000000000000000010000000000000000000000000000000000000000817ffffffffffffffffffffffffffffffffffffffffffffffffffffffffffffffffe037f00000000000000000000000000000000000000000000000000000000000000016f086e2055149345ad1a018b06370814",
                        "gasLimit" : "0x63aead26",
                        "gasPrice" : "0x01",
                        "nonce" : "0x00",
                        "r" : "0xf5efe2e13816d0e5bcc34be8e93519b87054b7b36511d24ad7f8ab1200121093",
                        "s" : "0x12c1fa789705a3778dea41af790467c39bef37682b1baffc49a9a0015c1ea7ec",
                        "to" : "0x095e7baea6a6c7c4c2dfeb977efac326af552d87",
                        "v" : "0x1c",
                        "value" : "0x47e29c11"
                    }
                ],
                "uncleHeaders" : [
                ]
            }
        ],
        "genesisBlockHeader" : {
            "bloom" : "0x00000000000000000000000000000000000000000000000000000000000000000000000000000000000000000000000000000000000000000000000000000000000000000000000000000000000000000000000000000000000000000000000000000000000000000000000000000000000000000000000000000000000000000000000000000000000000000000000000000000000000000000000000000000000000000000000000000000000000000000000000000000000000000000000000000000000000000000000000000000000000000000000000000000000000000000000000000000000000000000000000000000000000000000000000000000",
            "coinbase" : "0x945304eb96065b2a98b57a48a06ae28d285a71b5",
            "difficulty" : "0x020000",
            "extraData" : "0x42",
            "gasLimit" : "0x7fffffffffffffff",
            "gasUsed" : "0x00",
            "hash" : "0xc5ef6d878cf80e6e72d4daa0d4c6bd891e088f11165fe9e3d005bb72bc48d747",
            "mixHash" : "0x56e81f171bcc55a6ff8345e692c0f86e5b48e01b996cadc001622fb5e363b421",
            "nonce" : "0x0102030405060708",
            "number" : "0x00",
            "parentHash" : "0x0000000000000000000000000000000000000000000000000000000000000000",
            "receiptTrie" : "0x56e81f171bcc55a6ff8345e692c0f86e5b48e01b996cadc001622fb5e363b421",
            "stateRoot" : "0x39d2a70b08692c395b7718025c87a04fbbaa6b3656302a2821c06969faa39cf5",
            "timestamp" : "0x03b6",
            "transactionsTrie" : "0x56e81f171bcc55a6ff8345e692c0f86e5b48e01b996cadc001622fb5e363b421",
            "uncleHash" : "0x1dcc4de8dec75d7aab85b567b6ccd41ad312451b948a7413f0a142fd40d49347"
        },
        "genesisRLP" : "0xf901fff901faa00000000000000000000000000000000000000000000000000000000000000000a01dcc4de8dec75d7aab85b567b6ccd41ad312451b948a7413f0a142fd40d4934794945304eb96065b2a98b57a48a06ae28d285a71b5a039d2a70b08692c395b7718025c87a04fbbaa6b3656302a2821c06969faa39cf5a056e81f171bcc55a6ff8345e692c0f86e5b48e01b996cadc001622fb5e363b421a056e81f171bcc55a6ff8345e692c0f86e5b48e01b996cadc001622fb5e363b421b90100000000000000000000000000000000000000000000000000000000000000000000000000000000000000000000000000000000000000000000000000000000000000000000000000000000000000000000000000000000000000000000000000000000000000000000000000000000000000000000000000000000000000000000000000000000000000000000000000000000000000000000000000000000000000000000000000000000000000000000000000000000000000000000000000000000000000000000000000000000000000000000000000000000000000000000000000000000000000000000000000000000000000000000000000000000008302000080887fffffffffffffff808203b642a056e81f171bcc55a6ff8345e692c0f86e5b48e01b996cadc001622fb5e363b421880102030405060708c0c0",
        "lastblockhash" : "0x08c3b0544b3a2e5065f14e085c93f8432eed735bcb3c6dee79b8318199475abe",
        "network" : "Homestead",
        "postState" : {
            "0x095e7baea6a6c7c4c2dfeb977efac326af552d87" : {
                "balance" : "0x47e29c11",
                "code" : "0x7ffffffffffffffffffffffffffffffffffffffffffffffffffffffffffffffffe7f000000000000000000000000000000000000000000000000000000000000c3507f0000000000000000000000010000000000000000000000000000000000000000817ffffffffffffffffffffffffffffffffffffffffffffffffffffffffffffffffe037f00000000000000000000000000000000000000000000000000000000000000016f086e2055149345ad1a018b063708145560005155",
                "nonce" : "0x00",
                "storage" : {
                    "0x00" : "0x086e2055149345ad1a018b0637081455"
                }
            },
            "0x945304eb96065b2a98b57a48a06ae28d285a71b5" : {
                "balance" : "0x4563918244f4ba13",
                "code" : "0x6000355415600957005b60203560003555",
                "nonce" : "0x00",
                "storage" : {
                }
            },
            "0xa94f5374fce5edbc8e2a8697c15331677e6ebf0b" : {
                "balance" : "0x0de0b6b35f80aa0a",
                "code" : "",
                "nonce" : "0x01",
                "storage" : {
                }
            }
        },
        "pre" : {
            "0x095e7baea6a6c7c4c2dfeb977efac326af552d87" : {
                "balance" : "0x00",
                "code" : "0x7ffffffffffffffffffffffffffffffffffffffffffffffffffffffffffffffffe7f000000000000000000000000000000000000000000000000000000000000c3507f0000000000000000000000010000000000000000000000000000000000000000817ffffffffffffffffffffffffffffffffffffffffffffffffffffffffffffffffe037f00000000000000000000000000000000000000000000000000000000000000016f086e2055149345ad1a018b063708145560005155",
                "nonce" : "0x00",
                "storage" : {
                }
            },
            "0x945304eb96065b2a98b57a48a06ae28d285a71b5" : {
                "balance" : "0x2e",
                "code" : "0x6000355415600957005b60203560003555",
                "nonce" : "0x00",
                "storage" : {
                }
            },
            "0xa94f5374fce5edbc8e2a8697c15331677e6ebf0b" : {
                "balance" : "0x0de0b6b3a7640000",
                "code" : "",
                "nonce" : "0x00",
                "storage" : {
                }
            }
        }
    },
    "randomStatetest413_d0g0v0_Metropolis" : {
        "blocks" : [
            {
                "blockHeader" : {
                    "bloom" : "0x00000000000000000000000000000000000000000000000000000000000000000000000000000000000000000000000000000000000000000000000000000000000000000000000000000000000000000000000000000000000000000000000000000000000000000000000000000000000000000000000000000000000000000000000000000000000000000000000000000000000000000000000000000000000000000000000000000000000000000000000000000000000000000000000000000000000000000000000000000000000000000000000000000000000000000000000000000000000000000000000000000000000000000000000000000000",
                    "coinbase" : "0x945304eb96065b2a98b57a48a06ae28d285a71b5",
                    "difficulty" : "0x020000",
                    "extraData" : "",
                    "gasLimit" : "0x7fffffffffffffff",
                    "gasUsed" : "0xb9e5",
                    "hash" : "0x8a55184113661f6938ad577a966e6519efc4f88da48d7d69b0dd6783b134e130",
                    "mixHash" : "0xb15ef09dfec9e80bc17dbf71f1b3f9a8f0273728e14758e05b1d636d96c16eb7",
                    "nonce" : "0xc7ea341ca94e2894",
                    "number" : "0x01",
                    "parentHash" : "0xc5ef6d878cf80e6e72d4daa0d4c6bd891e088f11165fe9e3d005bb72bc48d747",
                    "receiptTrie" : "0xf2b98ac1a159fa9b82d7f7606deafa1880851a7e9869dc938be0be0c6aa85ecb",
                    "stateRoot" : "0xf940b559e073cf135f7a836b573c2a3889af42fcb12fb12e8571da4f76568056",
                    "timestamp" : "0x03e8",
                    "transactionsTrie" : "0x85adab1b695bd8e624dd2ed7ba2c3a4dcd2a5389a2f5d2233466b2e74949c1ab",
                    "uncleHash" : "0x1dcc4de8dec75d7aab85b567b6ccd41ad312451b948a7413f0a142fd40d49347"
                },
                "rlp" : "0xf90323f901fca0c5ef6d878cf80e6e72d4daa0d4c6bd891e088f11165fe9e3d005bb72bc48d747a01dcc4de8dec75d7aab85b567b6ccd41ad312451b948a7413f0a142fd40d4934794945304eb96065b2a98b57a48a06ae28d285a71b5a0f940b559e073cf135f7a836b573c2a3889af42fcb12fb12e8571da4f76568056a085adab1b695bd8e624dd2ed7ba2c3a4dcd2a5389a2f5d2233466b2e74949c1aba0f2b98ac1a159fa9b82d7f7606deafa1880851a7e9869dc938be0be0c6aa85ecbb90100000000000000000000000000000000000000000000000000000000000000000000000000000000000000000000000000000000000000000000000000000000000000000000000000000000000000000000000000000000000000000000000000000000000000000000000000000000000000000000000000000000000000000000000000000000000000000000000000000000000000000000000000000000000000000000000000000000000000000000000000000000000000000000000000000000000000000000000000000000000000000000000000000000000000000000000000000000000000000000000000000000000000000000000000000000008302000001887fffffffffffffff82b9e58203e880a0b15ef09dfec9e80bc17dbf71f1b3f9a8f0273728e14758e05b1d636d96c16eb788c7ea341ca94e2894f90120f9011d80018463aead2694095e7baea6a6c7c4c2dfeb977efac326af552d878447e29c11b8b77ffffffffffffffffffffffffffffffffffffffffffffffffffffffffffffffffe7f000000000000000000000000000000000000000000000000000000000000c3507f0000000000000000000000010000000000000000000000000000000000000000817ffffffffffffffffffffffffffffffffffffffffffffffffffffffffffffffffe037f00000000000000000000000000000000000000000000000000000000000000016f086e2055149345ad1a018b063708141ca0f5efe2e13816d0e5bcc34be8e93519b87054b7b36511d24ad7f8ab1200121093a012c1fa789705a3778dea41af790467c39bef37682b1baffc49a9a0015c1ea7ecc0",
                "transactions" : [
                    {
                        "data" : "0x7ffffffffffffffffffffffffffffffffffffffffffffffffffffffffffffffffe7f000000000000000000000000000000000000000000000000000000000000c3507f0000000000000000000000010000000000000000000000000000000000000000817ffffffffffffffffffffffffffffffffffffffffffffffffffffffffffffffffe037f00000000000000000000000000000000000000000000000000000000000000016f086e2055149345ad1a018b06370814",
                        "gasLimit" : "0x63aead26",
                        "gasPrice" : "0x01",
                        "nonce" : "0x00",
                        "r" : "0xf5efe2e13816d0e5bcc34be8e93519b87054b7b36511d24ad7f8ab1200121093",
                        "s" : "0x12c1fa789705a3778dea41af790467c39bef37682b1baffc49a9a0015c1ea7ec",
                        "to" : "0x095e7baea6a6c7c4c2dfeb977efac326af552d87",
                        "v" : "0x1c",
                        "value" : "0x47e29c11"
                    }
                ],
                "uncleHeaders" : [
                ]
            }
        ],
        "genesisBlockHeader" : {
            "bloom" : "0x00000000000000000000000000000000000000000000000000000000000000000000000000000000000000000000000000000000000000000000000000000000000000000000000000000000000000000000000000000000000000000000000000000000000000000000000000000000000000000000000000000000000000000000000000000000000000000000000000000000000000000000000000000000000000000000000000000000000000000000000000000000000000000000000000000000000000000000000000000000000000000000000000000000000000000000000000000000000000000000000000000000000000000000000000000000",
            "coinbase" : "0x945304eb96065b2a98b57a48a06ae28d285a71b5",
            "difficulty" : "0x020000",
            "extraData" : "0x42",
            "gasLimit" : "0x7fffffffffffffff",
            "gasUsed" : "0x00",
            "hash" : "0xc5ef6d878cf80e6e72d4daa0d4c6bd891e088f11165fe9e3d005bb72bc48d747",
            "mixHash" : "0x56e81f171bcc55a6ff8345e692c0f86e5b48e01b996cadc001622fb5e363b421",
            "nonce" : "0x0102030405060708",
            "number" : "0x00",
            "parentHash" : "0x0000000000000000000000000000000000000000000000000000000000000000",
            "receiptTrie" : "0x56e81f171bcc55a6ff8345e692c0f86e5b48e01b996cadc001622fb5e363b421",
            "stateRoot" : "0x39d2a70b08692c395b7718025c87a04fbbaa6b3656302a2821c06969faa39cf5",
            "timestamp" : "0x03b6",
            "transactionsTrie" : "0x56e81f171bcc55a6ff8345e692c0f86e5b48e01b996cadc001622fb5e363b421",
            "uncleHash" : "0x1dcc4de8dec75d7aab85b567b6ccd41ad312451b948a7413f0a142fd40d49347"
        },
        "genesisRLP" : "0xf901fff901faa00000000000000000000000000000000000000000000000000000000000000000a01dcc4de8dec75d7aab85b567b6ccd41ad312451b948a7413f0a142fd40d4934794945304eb96065b2a98b57a48a06ae28d285a71b5a039d2a70b08692c395b7718025c87a04fbbaa6b3656302a2821c06969faa39cf5a056e81f171bcc55a6ff8345e692c0f86e5b48e01b996cadc001622fb5e363b421a056e81f171bcc55a6ff8345e692c0f86e5b48e01b996cadc001622fb5e363b421b90100000000000000000000000000000000000000000000000000000000000000000000000000000000000000000000000000000000000000000000000000000000000000000000000000000000000000000000000000000000000000000000000000000000000000000000000000000000000000000000000000000000000000000000000000000000000000000000000000000000000000000000000000000000000000000000000000000000000000000000000000000000000000000000000000000000000000000000000000000000000000000000000000000000000000000000000000000000000000000000000000000000000000000000000000000000008302000080887fffffffffffffff808203b642a056e81f171bcc55a6ff8345e692c0f86e5b48e01b996cadc001622fb5e363b421880102030405060708c0c0",
        "lastblockhash" : "0x8a55184113661f6938ad577a966e6519efc4f88da48d7d69b0dd6783b134e130",
        "network" : "Metropolis",
        "postState" : {
            "0x00000000000000000000000000000000000000f0" : {
                "balance" : "0x00",
                "code" : "",
                "nonce" : "0x00",
                "storage" : {
                }
            },
            "0x095e7baea6a6c7c4c2dfeb977efac326af552d87" : {
                "balance" : "0x47e29c11",
                "code" : "0x7ffffffffffffffffffffffffffffffffffffffffffffffffffffffffffffffffe7f000000000000000000000000000000000000000000000000000000000000c3507f0000000000000000000000010000000000000000000000000000000000000000817ffffffffffffffffffffffffffffffffffffffffffffffffffffffffffffffffe037f00000000000000000000000000000000000000000000000000000000000000016f086e2055149345ad1a018b063708145560005155",
                "nonce" : "0x00",
                "storage" : {
                    "0x00" : "0x086e2055149345ad1a018b0637081455"
                }
            },
            "0x945304eb96065b2a98b57a48a06ae28d285a71b5" : {
                "balance" : "0x4563918244f4ba13",
                "code" : "0x6000355415600957005b60203560003555",
                "nonce" : "0x00",
                "storage" : {
                }
            },
            "0xa94f5374fce5edbc8e2a8697c15331677e6ebf0b" : {
                "balance" : "0x0de0b6b35f80aa0a",
                "code" : "",
                "nonce" : "0x01",
                "storage" : {
                }
            }
        },
        "pre" : {
            "0x095e7baea6a6c7c4c2dfeb977efac326af552d87" : {
                "balance" : "0x00",
                "code" : "0x7ffffffffffffffffffffffffffffffffffffffffffffffffffffffffffffffffe7f000000000000000000000000000000000000000000000000000000000000c3507f0000000000000000000000010000000000000000000000000000000000000000817ffffffffffffffffffffffffffffffffffffffffffffffffffffffffffffffffe037f00000000000000000000000000000000000000000000000000000000000000016f086e2055149345ad1a018b063708145560005155",
                "nonce" : "0x00",
                "storage" : {
                }
            },
            "0x945304eb96065b2a98b57a48a06ae28d285a71b5" : {
                "balance" : "0x2e",
                "code" : "0x6000355415600957005b60203560003555",
                "nonce" : "0x00",
                "storage" : {
                }
            },
            "0xa94f5374fce5edbc8e2a8697c15331677e6ebf0b" : {
                "balance" : "0x0de0b6b3a7640000",
                "code" : "",
                "nonce" : "0x00",
                "storage" : {
                }
            }
        }
    }
}