{
    "randomStatetest365_d0g0v0_EIP150" : {
        "blocks" : [
            {
                "blockHeader" : {
                    "bloom" : "00000000000000000000000000000000000000000000000000000000000000000000000000000000000000000000000000000000000000000000000000000000000000000000000000000000000000000000000000000000000000000000000000000000000000000000000000000000000000000000000000000000000000000000000000000000000000000000000000000000000000000000000000000000000000000000000000000000000000000000000000000000000000000000000000000000000000000000000000000000000000000000000000000000000000000000000000000000000000000000000000000000000000000000000000000000",
                    "coinbase" : "945304eb96065b2a98b57a48a06ae28d285a71b5",
                    "difficulty" : "0x020000",
                    "extraData" : "0x",
                    "gasLimit" : "0x7fffffffffffffff",
                    "gasUsed" : "0x010b31",
                    "hash" : "77821ec8348d190a970a792d97fc2b8cdb1710395be5310e3512bf8c9f0a9c2a",
                    "mixHash" : "70616611f318875eeaaaf906642d3f5f97e0a671fa2156e515d2b28a3d5e3138",
                    "nonce" : "865035df374fe510",
                    "number" : "0x01",
                    "parentHash" : "d6cd8214885f19ce2e702717e5f97a833ee33f5480adda63cfe232dfd750914c",
                    "receiptTrie" : "a24b76b8dcd3b1082a9d540648cf187a241330a9ec95849f682e157115056fce",
                    "stateRoot" : "acae07523afdd0c6ae0a4bc703e459680a7fd6cb6c7499d37077cf2fbee7243b",
                    "timestamp" : "0x03e8",
                    "transactionsTrie" : "2117eebafb58fa957519bf3f50d8758eff3f518c8ec590c6561834ab78390704",
                    "uncleHash" : "1dcc4de8dec75d7aab85b567b6ccd41ad312451b948a7413f0a142fd40d49347"
                },
                "rlp" : "0xf9033bf901fda0d6cd8214885f19ce2e702717e5f97a833ee33f5480adda63cfe232dfd750914ca01dcc4de8dec75d7aab85b567b6ccd41ad312451b948a7413f0a142fd40d4934794945304eb96065b2a98b57a48a06ae28d285a71b5a0acae07523afdd0c6ae0a4bc703e459680a7fd6cb6c7499d37077cf2fbee7243ba02117eebafb58fa957519bf3f50d8758eff3f518c8ec590c6561834ab78390704a0a24b76b8dcd3b1082a9d540648cf187a241330a9ec95849f682e157115056fceb90100000000000000000000000000000000000000000000000000000000000000000000000000000000000000000000000000000000000000000000000000000000000000000000000000000000000000000000000000000000000000000000000000000000000000000000000000000000000000000000000000000000000000000000000000000000000000000000000000000000000000000000000000000000000000000000000000000000000000000000000000000000000000000000000000000000000000000000000000000000000000000000000000000000000000000000000000000000000000000000000000000000000000000000000000000000008302000001887fffffffffffffff83010b318203e880a070616611f318875eeaaaf906642d3f5f97e0a671fa2156e515d2b28a3d5e313888865035df374fe510f90137f901348001843786f58e94095e7baea6a6c7c4c2dfeb977efac326af552d878448acb162b8ce7fffffffffffffffffffffffffffffffffffffffffffffffffffffffffffffffff42417f000000000000000000000000ffffffffffffffffffffffffffffffffffffffff7f00000000000000000000000000000000000000000000000000000000000000007f000000000000000000000000000000000000000000000000000000000000c3507ffffffffffffffffffffffffffffffffffffffffffffffffffffffffffffffffe7f0000000000000000000000000000000000000000000000000000000000000000143b420785371ba02d6a6f7530bc181f440f02320f44abc1674f3593eef239932aa9cb051ee01dd9a01ea671cc5c11844ca15e4dd97c63bfb483b77d0e8930fd522d59d575d43f9b04c0",
                "transactions" : [
                    {
                        "data" : "0x7fffffffffffffffffffffffffffffffffffffffffffffffffffffffffffffffff42417f000000000000000000000000ffffffffffffffffffffffffffffffffffffffff7f00000000000000000000000000000000000000000000000000000000000000007f000000000000000000000000000000000000000000000000000000000000c3507ffffffffffffffffffffffffffffffffffffffffffffffffffffffffffffffffe7f0000000000000000000000000000000000000000000000000000000000000000143b42078537",
                        "gasLimit" : "0x3786f58e",
                        "gasPrice" : "0x01",
                        "nonce" : "0x00",
                        "r" : "0x2d6a6f7530bc181f440f02320f44abc1674f3593eef239932aa9cb051ee01dd9",
                        "s" : "0x1ea671cc5c11844ca15e4dd97c63bfb483b77d0e8930fd522d59d575d43f9b04",
                        "to" : "095e7baea6a6c7c4c2dfeb977efac326af552d87",
                        "v" : "0x1b",
                        "value" : "0x48acb162"
                    }
                ],
                "uncleHeaders" : [
                ]
            }
        ],
        "genesisBlockHeader" : {
            "bloom" : "00000000000000000000000000000000000000000000000000000000000000000000000000000000000000000000000000000000000000000000000000000000000000000000000000000000000000000000000000000000000000000000000000000000000000000000000000000000000000000000000000000000000000000000000000000000000000000000000000000000000000000000000000000000000000000000000000000000000000000000000000000000000000000000000000000000000000000000000000000000000000000000000000000000000000000000000000000000000000000000000000000000000000000000000000000000",
            "coinbase" : "945304eb96065b2a98b57a48a06ae28d285a71b5",
            "difficulty" : "0x020000",
            "extraData" : "0x42",
            "gasLimit" : "0x7fffffffffffffff",
            "gasUsed" : "0x00",
            "hash" : "d6cd8214885f19ce2e702717e5f97a833ee33f5480adda63cfe232dfd750914c",
            "mixHash" : "56e81f171bcc55a6ff8345e692c0f86e5b48e01b996cadc001622fb5e363b421",
            "nonce" : "0102030405060708",
            "number" : "0x00",
            "parentHash" : "0000000000000000000000000000000000000000000000000000000000000000",
            "receiptTrie" : "56e81f171bcc55a6ff8345e692c0f86e5b48e01b996cadc001622fb5e363b421",
            "stateRoot" : "8caa55da5cf2fd2853388aa04f21dbf11f90857a98f30d782afbf5d44af11945",
            "timestamp" : "0x03b6",
            "transactionsTrie" : "56e81f171bcc55a6ff8345e692c0f86e5b48e01b996cadc001622fb5e363b421",
            "uncleHash" : "1dcc4de8dec75d7aab85b567b6ccd41ad312451b948a7413f0a142fd40d49347"
        },
        "genesisRLP" : "0xf901fff901faa00000000000000000000000000000000000000000000000000000000000000000a01dcc4de8dec75d7aab85b567b6ccd41ad312451b948a7413f0a142fd40d4934794945304eb96065b2a98b57a48a06ae28d285a71b5a08caa55da5cf2fd2853388aa04f21dbf11f90857a98f30d782afbf5d44af11945a056e81f171bcc55a6ff8345e692c0f86e5b48e01b996cadc001622fb5e363b421a056e81f171bcc55a6ff8345e692c0f86e5b48e01b996cadc001622fb5e363b421b90100000000000000000000000000000000000000000000000000000000000000000000000000000000000000000000000000000000000000000000000000000000000000000000000000000000000000000000000000000000000000000000000000000000000000000000000000000000000000000000000000000000000000000000000000000000000000000000000000000000000000000000000000000000000000000000000000000000000000000000000000000000000000000000000000000000000000000000000000000000000000000000000000000000000000000000000000000000000000000000000000000000000000000000000000000000008302000080887fffffffffffffff808203b642a056e81f171bcc55a6ff8345e692c0f86e5b48e01b996cadc001622fb5e363b421880102030405060708c0c0",
        "lastblockhash" : "77821ec8348d190a970a792d97fc2b8cdb1710395be5310e3512bf8c9f0a9c2a",
        "network" : "EIP150",
        "postState" : {
            "095e7baea6a6c7c4c2dfeb977efac326af552d87" : {
                "balance" : "0x48acb162",
                "code" : "0x7fffffffffffffffffffffffffffffffffffffffffffffffffffffffffffffffff42417f000000000000000000000000ffffffffffffffffffffffffffffffffffffffff7f00000000000000000000000000000000000000000000000000000000000000007f000000000000000000000000000000000000000000000000000000000000c3507ffffffffffffffffffffffffffffffffffffffffffffffffffffffffffffffffe7f0000000000000000000000000000000000000000000000000000000000000000143b420785375560005155",
                "nonce" : "0x00",
                "storage" : {
                    "0x00" : "0x945304eb96065b2a98b57a48a06ae28d285a71b5"
                }
            },
            "945304eb96065b2a98b57a48a06ae28d285a71b5" : {
                "balance" : "0x4563918244f50b5f",
                "code" : "0x6000355415600957005b60203560003555",
                "nonce" : "0x00",
                "storage" : {
                }
            },
            "a94f5374fce5edbc8e2a8697c15331677e6ebf0b" : {
                "balance" : "0x0de0b6b35eb6436d",
                "code" : "0x",
                "nonce" : "0x01",
                "storage" : {
                }
            }
        },
        "pre" : {
            "095e7baea6a6c7c4c2dfeb977efac326af552d87" : {
                "balance" : "0x00",
                "code" : "0x7fffffffffffffffffffffffffffffffffffffffffffffffffffffffffffffffff42417f000000000000000000000000ffffffffffffffffffffffffffffffffffffffff7f00000000000000000000000000000000000000000000000000000000000000007f000000000000000000000000000000000000000000000000000000000000c3507ffffffffffffffffffffffffffffffffffffffffffffffffffffffffffffffffe7f0000000000000000000000000000000000000000000000000000000000000000143b420785375560005155",
                "nonce" : "0x00",
                "storage" : {
                }
            },
            "945304eb96065b2a98b57a48a06ae28d285a71b5" : {
                "balance" : "0x2e",
                "code" : "0x6000355415600957005b60203560003555",
                "nonce" : "0x00",
                "storage" : {
                }
            },
            "a94f5374fce5edbc8e2a8697c15331677e6ebf0b" : {
                "balance" : "0x0de0b6b3a7640000",
                "code" : "0x",
                "nonce" : "0x00",
                "storage" : {
                }
            }
        }
    },
    "randomStatetest365_d0g0v0_EIP158" : {
        "blocks" : [
            {
                "blockHeader" : {
                    "bloom" : "00000000000000000000000000000000000000000000000000000000000000000000000000000000000000000000000000000000000000000000000000000000000000000000000000000000000000000000000000000000000000000000000000000000000000000000000000000000000000000000000000000000000000000000000000000000000000000000000000000000000000000000000000000000000000000000000000000000000000000000000000000000000000000000000000000000000000000000000000000000000000000000000000000000000000000000000000000000000000000000000000000000000000000000000000000000",
                    "coinbase" : "945304eb96065b2a98b57a48a06ae28d285a71b5",
                    "difficulty" : "0x020000",
                    "extraData" : "0x",
                    "gasLimit" : "0x7fffffffffffffff",
                    "gasUsed" : "0x010b31",
                    "hash" : "db1d075de9f9253f7d07c01fc7cc2c9a89cdd81823bc4ceb858b642859009475",
                    "mixHash" : "7bb469d924ff57b1669a4d91396a758b91ecd2dc14d4e14b778d83d76a2b36ca",
                    "nonce" : "8068b4fa2642081a",
                    "number" : "0x01",
                    "parentHash" : "d6cd8214885f19ce2e702717e5f97a833ee33f5480adda63cfe232dfd750914c",
                    "receiptTrie" : "a24b76b8dcd3b1082a9d540648cf187a241330a9ec95849f682e157115056fce",
                    "stateRoot" : "acae07523afdd0c6ae0a4bc703e459680a7fd6cb6c7499d37077cf2fbee7243b",
                    "timestamp" : "0x03e8",
                    "transactionsTrie" : "2117eebafb58fa957519bf3f50d8758eff3f518c8ec590c6561834ab78390704",
                    "uncleHash" : "1dcc4de8dec75d7aab85b567b6ccd41ad312451b948a7413f0a142fd40d49347"
                },
                "rlp" : "0xf9033bf901fda0d6cd8214885f19ce2e702717e5f97a833ee33f5480adda63cfe232dfd750914ca01dcc4de8dec75d7aab85b567b6ccd41ad312451b948a7413f0a142fd40d4934794945304eb96065b2a98b57a48a06ae28d285a71b5a0acae07523afdd0c6ae0a4bc703e459680a7fd6cb6c7499d37077cf2fbee7243ba02117eebafb58fa957519bf3f50d8758eff3f518c8ec590c6561834ab78390704a0a24b76b8dcd3b1082a9d540648cf187a241330a9ec95849f682e157115056fceb90100000000000000000000000000000000000000000000000000000000000000000000000000000000000000000000000000000000000000000000000000000000000000000000000000000000000000000000000000000000000000000000000000000000000000000000000000000000000000000000000000000000000000000000000000000000000000000000000000000000000000000000000000000000000000000000000000000000000000000000000000000000000000000000000000000000000000000000000000000000000000000000000000000000000000000000000000000000000000000000000000000000000000000000000000000000008302000001887fffffffffffffff83010b318203e880a07bb469d924ff57b1669a4d91396a758b91ecd2dc14d4e14b778d83d76a2b36ca888068b4fa2642081af90137f901348001843786f58e94095e7baea6a6c7c4c2dfeb977efac326af552d878448acb162b8ce7fffffffffffffffffffffffffffffffffffffffffffffffffffffffffffffffff42417f000000000000000000000000ffffffffffffffffffffffffffffffffffffffff7f00000000000000000000000000000000000000000000000000000000000000007f000000000000000000000000000000000000000000000000000000000000c3507ffffffffffffffffffffffffffffffffffffffffffffffffffffffffffffffffe7f0000000000000000000000000000000000000000000000000000000000000000143b420785371ba02d6a6f7530bc181f440f02320f44abc1674f3593eef239932aa9cb051ee01dd9a01ea671cc5c11844ca15e4dd97c63bfb483b77d0e8930fd522d59d575d43f9b04c0",
                "transactions" : [
                    {
                        "data" : "0x7fffffffffffffffffffffffffffffffffffffffffffffffffffffffffffffffff42417f000000000000000000000000ffffffffffffffffffffffffffffffffffffffff7f00000000000000000000000000000000000000000000000000000000000000007f000000000000000000000000000000000000000000000000000000000000c3507ffffffffffffffffffffffffffffffffffffffffffffffffffffffffffffffffe7f0000000000000000000000000000000000000000000000000000000000000000143b42078537",
                        "gasLimit" : "0x3786f58e",
                        "gasPrice" : "0x01",
                        "nonce" : "0x00",
                        "r" : "0x2d6a6f7530bc181f440f02320f44abc1674f3593eef239932aa9cb051ee01dd9",
                        "s" : "0x1ea671cc5c11844ca15e4dd97c63bfb483b77d0e8930fd522d59d575d43f9b04",
                        "to" : "095e7baea6a6c7c4c2dfeb977efac326af552d87",
                        "v" : "0x1b",
                        "value" : "0x48acb162"
                    }
                ],
                "uncleHeaders" : [
                ]
            }
        ],
        "genesisBlockHeader" : {
            "bloom" : "00000000000000000000000000000000000000000000000000000000000000000000000000000000000000000000000000000000000000000000000000000000000000000000000000000000000000000000000000000000000000000000000000000000000000000000000000000000000000000000000000000000000000000000000000000000000000000000000000000000000000000000000000000000000000000000000000000000000000000000000000000000000000000000000000000000000000000000000000000000000000000000000000000000000000000000000000000000000000000000000000000000000000000000000000000000",
            "coinbase" : "945304eb96065b2a98b57a48a06ae28d285a71b5",
            "difficulty" : "0x020000",
            "extraData" : "0x42",
            "gasLimit" : "0x7fffffffffffffff",
            "gasUsed" : "0x00",
            "hash" : "d6cd8214885f19ce2e702717e5f97a833ee33f5480adda63cfe232dfd750914c",
            "mixHash" : "56e81f171bcc55a6ff8345e692c0f86e5b48e01b996cadc001622fb5e363b421",
            "nonce" : "0102030405060708",
            "number" : "0x00",
            "parentHash" : "0000000000000000000000000000000000000000000000000000000000000000",
            "receiptTrie" : "56e81f171bcc55a6ff8345e692c0f86e5b48e01b996cadc001622fb5e363b421",
            "stateRoot" : "8caa55da5cf2fd2853388aa04f21dbf11f90857a98f30d782afbf5d44af11945",
            "timestamp" : "0x03b6",
            "transactionsTrie" : "56e81f171bcc55a6ff8345e692c0f86e5b48e01b996cadc001622fb5e363b421",
            "uncleHash" : "1dcc4de8dec75d7aab85b567b6ccd41ad312451b948a7413f0a142fd40d49347"
        },
        "genesisRLP" : "0xf901fff901faa00000000000000000000000000000000000000000000000000000000000000000a01dcc4de8dec75d7aab85b567b6ccd41ad312451b948a7413f0a142fd40d4934794945304eb96065b2a98b57a48a06ae28d285a71b5a08caa55da5cf2fd2853388aa04f21dbf11f90857a98f30d782afbf5d44af11945a056e81f171bcc55a6ff8345e692c0f86e5b48e01b996cadc001622fb5e363b421a056e81f171bcc55a6ff8345e692c0f86e5b48e01b996cadc001622fb5e363b421b90100000000000000000000000000000000000000000000000000000000000000000000000000000000000000000000000000000000000000000000000000000000000000000000000000000000000000000000000000000000000000000000000000000000000000000000000000000000000000000000000000000000000000000000000000000000000000000000000000000000000000000000000000000000000000000000000000000000000000000000000000000000000000000000000000000000000000000000000000000000000000000000000000000000000000000000000000000000000000000000000000000000000000000000000000000000008302000080887fffffffffffffff808203b642a056e81f171bcc55a6ff8345e692c0f86e5b48e01b996cadc001622fb5e363b421880102030405060708c0c0",
        "lastblockhash" : "db1d075de9f9253f7d07c01fc7cc2c9a89cdd81823bc4ceb858b642859009475",
        "network" : "EIP158",
        "postState" : {
            "095e7baea6a6c7c4c2dfeb977efac326af552d87" : {
                "balance" : "0x48acb162",
                "code" : "0x7fffffffffffffffffffffffffffffffffffffffffffffffffffffffffffffffff42417f000000000000000000000000ffffffffffffffffffffffffffffffffffffffff7f00000000000000000000000000000000000000000000000000000000000000007f000000000000000000000000000000000000000000000000000000000000c3507ffffffffffffffffffffffffffffffffffffffffffffffffffffffffffffffffe7f0000000000000000000000000000000000000000000000000000000000000000143b420785375560005155",
                "nonce" : "0x00",
                "storage" : {
                    "0x00" : "0x945304eb96065b2a98b57a48a06ae28d285a71b5"
                }
            },
            "945304eb96065b2a98b57a48a06ae28d285a71b5" : {
                "balance" : "0x4563918244f50b5f",
                "code" : "0x6000355415600957005b60203560003555",
                "nonce" : "0x00",
                "storage" : {
                }
            },
            "a94f5374fce5edbc8e2a8697c15331677e6ebf0b" : {
                "balance" : "0x0de0b6b35eb6436d",
                "code" : "0x",
                "nonce" : "0x01",
                "storage" : {
                }
            }
        },
        "pre" : {
            "095e7baea6a6c7c4c2dfeb977efac326af552d87" : {
                "balance" : "0x00",
                "code" : "0x7fffffffffffffffffffffffffffffffffffffffffffffffffffffffffffffffff42417f000000000000000000000000ffffffffffffffffffffffffffffffffffffffff7f00000000000000000000000000000000000000000000000000000000000000007f000000000000000000000000000000000000000000000000000000000000c3507ffffffffffffffffffffffffffffffffffffffffffffffffffffffffffffffffe7f0000000000000000000000000000000000000000000000000000000000000000143b420785375560005155",
                "nonce" : "0x00",
                "storage" : {
                }
            },
            "945304eb96065b2a98b57a48a06ae28d285a71b5" : {
                "balance" : "0x2e",
                "code" : "0x6000355415600957005b60203560003555",
                "nonce" : "0x00",
                "storage" : {
                }
            },
            "a94f5374fce5edbc8e2a8697c15331677e6ebf0b" : {
                "balance" : "0x0de0b6b3a7640000",
                "code" : "0x",
                "nonce" : "0x00",
                "storage" : {
                }
            }
        }
    },
    "randomStatetest365_d0g0v0_Frontier" : {
        "blocks" : [
            {
                "blockHeader" : {
                    "bloom" : "00000000000000000000000000000000000000000000000000000000000000000000000000000000000000000000000000000000000000000000000000000000000000000000000000000000000000000000000000000000000000000000000000000000000000000000000000000000000000000000000000000000000000000000000000000000000000000000000000000000000000000000000000000000000000000000000000000000000000000000000000000000000000000000000000000000000000000000000000000000000000000000000000000000000000000000000000000000000000000000000000000000000000000000000000000000",
                    "coinbase" : "945304eb96065b2a98b57a48a06ae28d285a71b5",
                    "difficulty" : "0x020000",
                    "extraData" : "0x",
                    "gasLimit" : "0x7fffffffffffffff",
                    "gasUsed" : "0x010889",
                    "hash" : "9839c0bb9710e755f445372548261fe03cb542d3728ab70bc8125318d97016c6",
                    "mixHash" : "9f6212dbed44ef5fa2e2d16328749941105aa0db69dde7c4bc62bfe8f9508822",
                    "nonce" : "704974699d305241",
                    "number" : "0x01",
                    "parentHash" : "d6cd8214885f19ce2e702717e5f97a833ee33f5480adda63cfe232dfd750914c",
                    "receiptTrie" : "0f5db0ce29d8aa370ac5b11bd1fa131111907188c45c45c16434cdb55af227e7",
                    "stateRoot" : "8f774be0322b0b9270001c017f3e55c920905de110349dc9d0162017a7420775",
                    "timestamp" : "0x03e8",
                    "transactionsTrie" : "2117eebafb58fa957519bf3f50d8758eff3f518c8ec590c6561834ab78390704",
                    "uncleHash" : "1dcc4de8dec75d7aab85b567b6ccd41ad312451b948a7413f0a142fd40d49347"
                },
                "rlp" : "0xf9033bf901fda0d6cd8214885f19ce2e702717e5f97a833ee33f5480adda63cfe232dfd750914ca01dcc4de8dec75d7aab85b567b6ccd41ad312451b948a7413f0a142fd40d4934794945304eb96065b2a98b57a48a06ae28d285a71b5a08f774be0322b0b9270001c017f3e55c920905de110349dc9d0162017a7420775a02117eebafb58fa957519bf3f50d8758eff3f518c8ec590c6561834ab78390704a00f5db0ce29d8aa370ac5b11bd1fa131111907188c45c45c16434cdb55af227e7b90100000000000000000000000000000000000000000000000000000000000000000000000000000000000000000000000000000000000000000000000000000000000000000000000000000000000000000000000000000000000000000000000000000000000000000000000000000000000000000000000000000000000000000000000000000000000000000000000000000000000000000000000000000000000000000000000000000000000000000000000000000000000000000000000000000000000000000000000000000000000000000000000000000000000000000000000000000000000000000000000000000000000000000000000000000000008302000001887fffffffffffffff830108898203e880a09f6212dbed44ef5fa2e2d16328749941105aa0db69dde7c4bc62bfe8f950882288704974699d305241f90137f901348001843786f58e94095e7baea6a6c7c4c2dfeb977efac326af552d878448acb162b8ce7fffffffffffffffffffffffffffffffffffffffffffffffffffffffffffffffff42417f000000000000000000000000ffffffffffffffffffffffffffffffffffffffff7f00000000000000000000000000000000000000000000000000000000000000007f000000000000000000000000000000000000000000000000000000000000c3507ffffffffffffffffffffffffffffffffffffffffffffffffffffffffffffffffe7f0000000000000000000000000000000000000000000000000000000000000000143b420785371ba02d6a6f7530bc181f440f02320f44abc1674f3593eef239932aa9cb051ee01dd9a01ea671cc5c11844ca15e4dd97c63bfb483b77d0e8930fd522d59d575d43f9b04c0",
                "transactions" : [
                    {
                        "data" : "0x7fffffffffffffffffffffffffffffffffffffffffffffffffffffffffffffffff42417f000000000000000000000000ffffffffffffffffffffffffffffffffffffffff7f00000000000000000000000000000000000000000000000000000000000000007f000000000000000000000000000000000000000000000000000000000000c3507ffffffffffffffffffffffffffffffffffffffffffffffffffffffffffffffffe7f0000000000000000000000000000000000000000000000000000000000000000143b42078537",
                        "gasLimit" : "0x3786f58e",
                        "gasPrice" : "0x01",
                        "nonce" : "0x00",
                        "r" : "0x2d6a6f7530bc181f440f02320f44abc1674f3593eef239932aa9cb051ee01dd9",
                        "s" : "0x1ea671cc5c11844ca15e4dd97c63bfb483b77d0e8930fd522d59d575d43f9b04",
                        "to" : "095e7baea6a6c7c4c2dfeb977efac326af552d87",
                        "v" : "0x1b",
                        "value" : "0x48acb162"
                    }
                ],
                "uncleHeaders" : [
                ]
            }
        ],
        "genesisBlockHeader" : {
            "bloom" : "00000000000000000000000000000000000000000000000000000000000000000000000000000000000000000000000000000000000000000000000000000000000000000000000000000000000000000000000000000000000000000000000000000000000000000000000000000000000000000000000000000000000000000000000000000000000000000000000000000000000000000000000000000000000000000000000000000000000000000000000000000000000000000000000000000000000000000000000000000000000000000000000000000000000000000000000000000000000000000000000000000000000000000000000000000000",
            "coinbase" : "945304eb96065b2a98b57a48a06ae28d285a71b5",
            "difficulty" : "0x020000",
            "extraData" : "0x42",
            "gasLimit" : "0x7fffffffffffffff",
            "gasUsed" : "0x00",
            "hash" : "d6cd8214885f19ce2e702717e5f97a833ee33f5480adda63cfe232dfd750914c",
            "mixHash" : "56e81f171bcc55a6ff8345e692c0f86e5b48e01b996cadc001622fb5e363b421",
            "nonce" : "0102030405060708",
            "number" : "0x00",
            "parentHash" : "0000000000000000000000000000000000000000000000000000000000000000",
            "receiptTrie" : "56e81f171bcc55a6ff8345e692c0f86e5b48e01b996cadc001622fb5e363b421",
            "stateRoot" : "8caa55da5cf2fd2853388aa04f21dbf11f90857a98f30d782afbf5d44af11945",
            "timestamp" : "0x03b6",
            "transactionsTrie" : "56e81f171bcc55a6ff8345e692c0f86e5b48e01b996cadc001622fb5e363b421",
            "uncleHash" : "1dcc4de8dec75d7aab85b567b6ccd41ad312451b948a7413f0a142fd40d49347"
        },
        "genesisRLP" : "0xf901fff901faa00000000000000000000000000000000000000000000000000000000000000000a01dcc4de8dec75d7aab85b567b6ccd41ad312451b948a7413f0a142fd40d4934794945304eb96065b2a98b57a48a06ae28d285a71b5a08caa55da5cf2fd2853388aa04f21dbf11f90857a98f30d782afbf5d44af11945a056e81f171bcc55a6ff8345e692c0f86e5b48e01b996cadc001622fb5e363b421a056e81f171bcc55a6ff8345e692c0f86e5b48e01b996cadc001622fb5e363b421b90100000000000000000000000000000000000000000000000000000000000000000000000000000000000000000000000000000000000000000000000000000000000000000000000000000000000000000000000000000000000000000000000000000000000000000000000000000000000000000000000000000000000000000000000000000000000000000000000000000000000000000000000000000000000000000000000000000000000000000000000000000000000000000000000000000000000000000000000000000000000000000000000000000000000000000000000000000000000000000000000000000000000000000000000000000000008302000080887fffffffffffffff808203b642a056e81f171bcc55a6ff8345e692c0f86e5b48e01b996cadc001622fb5e363b421880102030405060708c0c0",
        "lastblockhash" : "9839c0bb9710e755f445372548261fe03cb542d3728ab70bc8125318d97016c6",
        "network" : "Frontier",
        "postState" : {
            "095e7baea6a6c7c4c2dfeb977efac326af552d87" : {
                "balance" : "0x48acb162",
                "code" : "0x7fffffffffffffffffffffffffffffffffffffffffffffffffffffffffffffffff42417f000000000000000000000000ffffffffffffffffffffffffffffffffffffffff7f00000000000000000000000000000000000000000000000000000000000000007f000000000000000000000000000000000000000000000000000000000000c3507ffffffffffffffffffffffffffffffffffffffffffffffffffffffffffffffffe7f0000000000000000000000000000000000000000000000000000000000000000143b420785375560005155",
                "nonce" : "0x00",
                "storage" : {
                    "0x00" : "0x945304eb96065b2a98b57a48a06ae28d285a71b5"
                }
            },
            "945304eb96065b2a98b57a48a06ae28d285a71b5" : {
                "balance" : "0x4563918244f508b7",
                "code" : "0x6000355415600957005b60203560003555",
                "nonce" : "0x00",
                "storage" : {
                }
            },
            "a94f5374fce5edbc8e2a8697c15331677e6ebf0b" : {
                "balance" : "0x0de0b6b35eb64615",
                "code" : "0x",
                "nonce" : "0x01",
                "storage" : {
                }
            }
        },
        "pre" : {
            "095e7baea6a6c7c4c2dfeb977efac326af552d87" : {
                "balance" : "0x00",
                "code" : "0x7fffffffffffffffffffffffffffffffffffffffffffffffffffffffffffffffff42417f000000000000000000000000ffffffffffffffffffffffffffffffffffffffff7f00000000000000000000000000000000000000000000000000000000000000007f000000000000000000000000000000000000000000000000000000000000c3507ffffffffffffffffffffffffffffffffffffffffffffffffffffffffffffffffe7f0000000000000000000000000000000000000000000000000000000000000000143b420785375560005155",
                "nonce" : "0x00",
                "storage" : {
                }
            },
            "945304eb96065b2a98b57a48a06ae28d285a71b5" : {
                "balance" : "0x2e",
                "code" : "0x6000355415600957005b60203560003555",
                "nonce" : "0x00",
                "storage" : {
                }
            },
            "a94f5374fce5edbc8e2a8697c15331677e6ebf0b" : {
                "balance" : "0x0de0b6b3a7640000",
                "code" : "0x",
                "nonce" : "0x00",
                "storage" : {
                }
            }
        }
    },
    "randomStatetest365_d0g0v0_Homestead" : {
        "blocks" : [
            {
                "blockHeader" : {
                    "bloom" : "00000000000000000000000000000000000000000000000000000000000000000000000000000000000000000000000000000000000000000000000000000000000000000000000000000000000000000000000000000000000000000000000000000000000000000000000000000000000000000000000000000000000000000000000000000000000000000000000000000000000000000000000000000000000000000000000000000000000000000000000000000000000000000000000000000000000000000000000000000000000000000000000000000000000000000000000000000000000000000000000000000000000000000000000000000000",
                    "coinbase" : "945304eb96065b2a98b57a48a06ae28d285a71b5",
                    "difficulty" : "0x020000",
                    "extraData" : "0x",
                    "gasLimit" : "0x7fffffffffffffff",
                    "gasUsed" : "0x010889",
                    "hash" : "0cc6545359856584ef914871ea1a274fd929c2e946645a6261862f6f7659f447",
                    "mixHash" : "ee251dab65e407aaad6e3e8913b876b17416d13344211b61081ca5fb5acbabe8",
                    "nonce" : "c57c4491d1e00e04",
                    "number" : "0x01",
                    "parentHash" : "d6cd8214885f19ce2e702717e5f97a833ee33f5480adda63cfe232dfd750914c",
                    "receiptTrie" : "0f5db0ce29d8aa370ac5b11bd1fa131111907188c45c45c16434cdb55af227e7",
                    "stateRoot" : "8f774be0322b0b9270001c017f3e55c920905de110349dc9d0162017a7420775",
                    "timestamp" : "0x03e8",
                    "transactionsTrie" : "2117eebafb58fa957519bf3f50d8758eff3f518c8ec590c6561834ab78390704",
                    "uncleHash" : "1dcc4de8dec75d7aab85b567b6ccd41ad312451b948a7413f0a142fd40d49347"
                },
                "rlp" : "0xf9033bf901fda0d6cd8214885f19ce2e702717e5f97a833ee33f5480adda63cfe232dfd750914ca01dcc4de8dec75d7aab85b567b6ccd41ad312451b948a7413f0a142fd40d4934794945304eb96065b2a98b57a48a06ae28d285a71b5a08f774be0322b0b9270001c017f3e55c920905de110349dc9d0162017a7420775a02117eebafb58fa957519bf3f50d8758eff3f518c8ec590c6561834ab78390704a00f5db0ce29d8aa370ac5b11bd1fa131111907188c45c45c16434cdb55af227e7b90100000000000000000000000000000000000000000000000000000000000000000000000000000000000000000000000000000000000000000000000000000000000000000000000000000000000000000000000000000000000000000000000000000000000000000000000000000000000000000000000000000000000000000000000000000000000000000000000000000000000000000000000000000000000000000000000000000000000000000000000000000000000000000000000000000000000000000000000000000000000000000000000000000000000000000000000000000000000000000000000000000000000000000000000000000000008302000001887fffffffffffffff830108898203e880a0ee251dab65e407aaad6e3e8913b876b17416d13344211b61081ca5fb5acbabe888c57c4491d1e00e04f90137f901348001843786f58e94095e7baea6a6c7c4c2dfeb977efac326af552d878448acb162b8ce7fffffffffffffffffffffffffffffffffffffffffffffffffffffffffffffffff42417f000000000000000000000000ffffffffffffffffffffffffffffffffffffffff7f00000000000000000000000000000000000000000000000000000000000000007f000000000000000000000000000000000000000000000000000000000000c3507ffffffffffffffffffffffffffffffffffffffffffffffffffffffffffffffffe7f0000000000000000000000000000000000000000000000000000000000000000143b420785371ba02d6a6f7530bc181f440f02320f44abc1674f3593eef239932aa9cb051ee01dd9a01ea671cc5c11844ca15e4dd97c63bfb483b77d0e8930fd522d59d575d43f9b04c0",
                "transactions" : [
                    {
                        "data" : "0x7fffffffffffffffffffffffffffffffffffffffffffffffffffffffffffffffff42417f000000000000000000000000ffffffffffffffffffffffffffffffffffffffff7f00000000000000000000000000000000000000000000000000000000000000007f000000000000000000000000000000000000000000000000000000000000c3507ffffffffffffffffffffffffffffffffffffffffffffffffffffffffffffffffe7f0000000000000000000000000000000000000000000000000000000000000000143b42078537",
                        "gasLimit" : "0x3786f58e",
                        "gasPrice" : "0x01",
                        "nonce" : "0x00",
                        "r" : "0x2d6a6f7530bc181f440f02320f44abc1674f3593eef239932aa9cb051ee01dd9",
                        "s" : "0x1ea671cc5c11844ca15e4dd97c63bfb483b77d0e8930fd522d59d575d43f9b04",
                        "to" : "095e7baea6a6c7c4c2dfeb977efac326af552d87",
                        "v" : "0x1b",
                        "value" : "0x48acb162"
                    }
                ],
                "uncleHeaders" : [
                ]
            }
        ],
        "genesisBlockHeader" : {
            "bloom" : "00000000000000000000000000000000000000000000000000000000000000000000000000000000000000000000000000000000000000000000000000000000000000000000000000000000000000000000000000000000000000000000000000000000000000000000000000000000000000000000000000000000000000000000000000000000000000000000000000000000000000000000000000000000000000000000000000000000000000000000000000000000000000000000000000000000000000000000000000000000000000000000000000000000000000000000000000000000000000000000000000000000000000000000000000000000",
            "coinbase" : "945304eb96065b2a98b57a48a06ae28d285a71b5",
            "difficulty" : "0x020000",
            "extraData" : "0x42",
            "gasLimit" : "0x7fffffffffffffff",
            "gasUsed" : "0x00",
            "hash" : "d6cd8214885f19ce2e702717e5f97a833ee33f5480adda63cfe232dfd750914c",
            "mixHash" : "56e81f171bcc55a6ff8345e692c0f86e5b48e01b996cadc001622fb5e363b421",
            "nonce" : "0102030405060708",
            "number" : "0x00",
            "parentHash" : "0000000000000000000000000000000000000000000000000000000000000000",
            "receiptTrie" : "56e81f171bcc55a6ff8345e692c0f86e5b48e01b996cadc001622fb5e363b421",
            "stateRoot" : "8caa55da5cf2fd2853388aa04f21dbf11f90857a98f30d782afbf5d44af11945",
            "timestamp" : "0x03b6",
            "transactionsTrie" : "56e81f171bcc55a6ff8345e692c0f86e5b48e01b996cadc001622fb5e363b421",
            "uncleHash" : "1dcc4de8dec75d7aab85b567b6ccd41ad312451b948a7413f0a142fd40d49347"
        },
        "genesisRLP" : "0xf901fff901faa00000000000000000000000000000000000000000000000000000000000000000a01dcc4de8dec75d7aab85b567b6ccd41ad312451b948a7413f0a142fd40d4934794945304eb96065b2a98b57a48a06ae28d285a71b5a08caa55da5cf2fd2853388aa04f21dbf11f90857a98f30d782afbf5d44af11945a056e81f171bcc55a6ff8345e692c0f86e5b48e01b996cadc001622fb5e363b421a056e81f171bcc55a6ff8345e692c0f86e5b48e01b996cadc001622fb5e363b421b90100000000000000000000000000000000000000000000000000000000000000000000000000000000000000000000000000000000000000000000000000000000000000000000000000000000000000000000000000000000000000000000000000000000000000000000000000000000000000000000000000000000000000000000000000000000000000000000000000000000000000000000000000000000000000000000000000000000000000000000000000000000000000000000000000000000000000000000000000000000000000000000000000000000000000000000000000000000000000000000000000000000000000000000000000000000008302000080887fffffffffffffff808203b642a056e81f171bcc55a6ff8345e692c0f86e5b48e01b996cadc001622fb5e363b421880102030405060708c0c0",
        "lastblockhash" : "0cc6545359856584ef914871ea1a274fd929c2e946645a6261862f6f7659f447",
        "network" : "Homestead",
        "postState" : {
            "095e7baea6a6c7c4c2dfeb977efac326af552d87" : {
                "balance" : "0x48acb162",
                "code" : "0x7fffffffffffffffffffffffffffffffffffffffffffffffffffffffffffffffff42417f000000000000000000000000ffffffffffffffffffffffffffffffffffffffff7f00000000000000000000000000000000000000000000000000000000000000007f000000000000000000000000000000000000000000000000000000000000c3507ffffffffffffffffffffffffffffffffffffffffffffffffffffffffffffffffe7f0000000000000000000000000000000000000000000000000000000000000000143b420785375560005155",
                "nonce" : "0x00",
                "storage" : {
                    "0x00" : "0x945304eb96065b2a98b57a48a06ae28d285a71b5"
                }
            },
            "945304eb96065b2a98b57a48a06ae28d285a71b5" : {
                "balance" : "0x4563918244f508b7",
                "code" : "0x6000355415600957005b60203560003555",
                "nonce" : "0x00",
                "storage" : {
                }
            },
            "a94f5374fce5edbc8e2a8697c15331677e6ebf0b" : {
                "balance" : "0x0de0b6b35eb64615",
                "code" : "0x",
                "nonce" : "0x01",
                "storage" : {
                }
            }
        },
        "pre" : {
            "095e7baea6a6c7c4c2dfeb977efac326af552d87" : {
                "balance" : "0x00",
                "code" : "0x7fffffffffffffffffffffffffffffffffffffffffffffffffffffffffffffffff42417f000000000000000000000000ffffffffffffffffffffffffffffffffffffffff7f00000000000000000000000000000000000000000000000000000000000000007f000000000000000000000000000000000000000000000000000000000000c3507ffffffffffffffffffffffffffffffffffffffffffffffffffffffffffffffffe7f0000000000000000000000000000000000000000000000000000000000000000143b420785375560005155",
                "nonce" : "0x00",
                "storage" : {
                }
            },
            "945304eb96065b2a98b57a48a06ae28d285a71b5" : {
                "balance" : "0x2e",
                "code" : "0x6000355415600957005b60203560003555",
                "nonce" : "0x00",
                "storage" : {
                }
            },
            "a94f5374fce5edbc8e2a8697c15331677e6ebf0b" : {
                "balance" : "0x0de0b6b3a7640000",
                "code" : "0x",
                "nonce" : "0x00",
                "storage" : {
                }
            }
        }
    }
}