{
    "randomStatetest581_d0g0v0_Byzantium" : {
        "_info" : {
            "comment" : "",
            "filledwith" : "cpp-1.3.0+commit.6e0ce939.Linux.g++",
            "lllcversion" : "Version: 0.4.18-develop.2017.9.25+commit.a72237f2.Linux.g++",
            "source" : "src/BlockchainTestsFiller/GeneralStateTests/stRandom/randomStatetest581_d0g0v0Filler.json",
            "sourceHash" : "76e0c3ba39f47ada3ce0e25f0d5a5dbe719685389172c64a40ea7793cf38d47d"
        },
        "blocks" : [
            {
                "blockHeader" : {
                    "bloom" : "0x00000000000000000000000000000000000000000000000000000000000000000000000000000000000000000000000000000000000000000000000000000000000000000000000000000000000000000000000000000000000000000000000000000000000000000000000000000000000000000000000000000000000000000000000000000000000000000000000000000000000000000000000000000000000000000000000000000000000000000000000000000000000000000000000000000000000000000000000000000000000000000000000000000000000000000000000000000000000000000000000000000000000000000000000000000000",
                    "coinbase" : "0x945304eb96065b2a98b57a48a06ae28d285a71b5",
                    "difficulty" : "0x020000",
                    "extraData" : "",
                    "gasLimit" : "0x7fffffffffffffff",
                    "gasUsed" : "0x835f",
                    "hash" : "0x96fdb1e47b1dd2b523ab148ab4212b57921f2d852cf23024865d1ddbff91b6fc",
                    "mixHash" : "0x0f1a5d9ad2d207b174f62a2735ca9a258d1b8e89e386377bb062cd00694e812d",
                    "nonce" : "0x76d7d586bf733882",
                    "number" : "0x01",
                    "parentHash" : "0x1f64dc5bd503d52a72f8f58ae9319454cf23dcdeb16d4d40ab9aeddd79df14b1",
                    "receiptTrie" : "0xb6c0a29b14007f91e8304878fe5d385e8160fa4e25ce73136a814b9beea1cb02",
                    "stateRoot" : "0x8bd59ce9bced927ca3f3fa6de85c781651882c9824bf9df54d7b542a33c9ff74",
                    "timestamp" : "0x03e8",
                    "transactionsTrie" : "0x6aae4dc0acd7d630cb4001c767753dff4a2b8c5bf25e17bb20e727fd1bcb1356",
                    "uncleHash" : "0x1dcc4de8dec75d7aab85b567b6ccd41ad312451b948a7413f0a142fd40d49347"
                },
                "rlp" : "0xf9033cf901fca01f64dc5bd503d52a72f8f58ae9319454cf23dcdeb16d4d40ab9aeddd79df14b1a01dcc4de8dec75d7aab85b567b6ccd41ad312451b948a7413f0a142fd40d4934794945304eb96065b2a98b57a48a06ae28d285a71b5a08bd59ce9bced927ca3f3fa6de85c781651882c9824bf9df54d7b542a33c9ff74a06aae4dc0acd7d630cb4001c767753dff4a2b8c5bf25e17bb20e727fd1bcb1356a0b6c0a29b14007f91e8304878fe5d385e8160fa4e25ce73136a814b9beea1cb02b90100000000000000000000000000000000000000000000000000000000000000000000000000000000000000000000000000000000000000000000000000000000000000000000000000000000000000000000000000000000000000000000000000000000000000000000000000000000000000000000000000000000000000000000000000000000000000000000000000000000000000000000000000000000000000000000000000000000000000000000000000000000000000000000000000000000000000000000000000000000000000000000000000000000000000000000000000000000000000000000000000000000000000000000000000000000008302000001887fffffffffffffff82835f8203e880a00f1a5d9ad2d207b174f62a2735ca9a258d1b8e89e386377bb062cd00694e812d8876d7d586bf733882f90139f9013680018412fe8a6894095e7baea6a6c7c4c2dfeb977efac326af552d87845d315a13b8d07f00000000000000000000000000000000000000000000000000000000000000017f0000000000000000000000000000000000000000000000000000000000000001037f00000000000000000000000000000000000000000000000000000000000000007f000000000000000000000000ffffffffffffffffffffffffffffffffffffffff7ffffffffffffffffffffffffffffffffffffffffffffffffffffffffffffffffe7f000000000000000000000000ffffffffffffffffffffffffffffffffffffffff44920907ff7e7d70121ba02486ff8fc18b1f22e67c260ffdb8964e0089705dbbd1c953fe8fc633b4c22553a07c8cff54133c792cdf5eb368a80ecfd93e1800c58d7c082c9e192a03ee04c81fc0",
                "transactions" : [
                    {
                        "data" : "0x7f00000000000000000000000000000000000000000000000000000000000000017f0000000000000000000000000000000000000000000000000000000000000001037f00000000000000000000000000000000000000000000000000000000000000007f000000000000000000000000ffffffffffffffffffffffffffffffffffffffff7ffffffffffffffffffffffffffffffffffffffffffffffffffffffffffffffffe7f000000000000000000000000ffffffffffffffffffffffffffffffffffffffff44920907ff7e7d7012",
                        "gasLimit" : "0x12fe8a68",
                        "gasPrice" : "0x01",
                        "nonce" : "0x00",
                        "r" : "0x2486ff8fc18b1f22e67c260ffdb8964e0089705dbbd1c953fe8fc633b4c22553",
                        "s" : "0x7c8cff54133c792cdf5eb368a80ecfd93e1800c58d7c082c9e192a03ee04c81f",
                        "to" : "0x095e7baea6a6c7c4c2dfeb977efac326af552d87",
                        "v" : "0x1b",
                        "value" : "0x5d315a13"
                    }
                ],
                "uncleHeaders" : [
                ]
            }
        ],
        "genesisBlockHeader" : {
            "bloom" : "0x00000000000000000000000000000000000000000000000000000000000000000000000000000000000000000000000000000000000000000000000000000000000000000000000000000000000000000000000000000000000000000000000000000000000000000000000000000000000000000000000000000000000000000000000000000000000000000000000000000000000000000000000000000000000000000000000000000000000000000000000000000000000000000000000000000000000000000000000000000000000000000000000000000000000000000000000000000000000000000000000000000000000000000000000000000000",
            "coinbase" : "0x945304eb96065b2a98b57a48a06ae28d285a71b5",
            "difficulty" : "0x020000",
            "extraData" : "0x42",
            "gasLimit" : "0x7fffffffffffffff",
            "gasUsed" : "0x00",
            "hash" : "0x1f64dc5bd503d52a72f8f58ae9319454cf23dcdeb16d4d40ab9aeddd79df14b1",
            "mixHash" : "0x56e81f171bcc55a6ff8345e692c0f86e5b48e01b996cadc001622fb5e363b421",
            "nonce" : "0x0102030405060708",
            "number" : "0x00",
            "parentHash" : "0x0000000000000000000000000000000000000000000000000000000000000000",
            "receiptTrie" : "0x56e81f171bcc55a6ff8345e692c0f86e5b48e01b996cadc001622fb5e363b421",
            "stateRoot" : "0x5fb759132b285057eb2671099acea11c7bc97c0c4a80e0898f6a75b5b8f01e07",
            "timestamp" : "0x03b6",
            "transactionsTrie" : "0x56e81f171bcc55a6ff8345e692c0f86e5b48e01b996cadc001622fb5e363b421",
            "uncleHash" : "0x1dcc4de8dec75d7aab85b567b6ccd41ad312451b948a7413f0a142fd40d49347"
        },
        "genesisRLP" : "0xf901fff901faa00000000000000000000000000000000000000000000000000000000000000000a01dcc4de8dec75d7aab85b567b6ccd41ad312451b948a7413f0a142fd40d4934794945304eb96065b2a98b57a48a06ae28d285a71b5a05fb759132b285057eb2671099acea11c7bc97c0c4a80e0898f6a75b5b8f01e07a056e81f171bcc55a6ff8345e692c0f86e5b48e01b996cadc001622fb5e363b421a056e81f171bcc55a6ff8345e692c0f86e5b48e01b996cadc001622fb5e363b421b90100000000000000000000000000000000000000000000000000000000000000000000000000000000000000000000000000000000000000000000000000000000000000000000000000000000000000000000000000000000000000000000000000000000000000000000000000000000000000000000000000000000000000000000000000000000000000000000000000000000000000000000000000000000000000000000000000000000000000000000000000000000000000000000000000000000000000000000000000000000000000000000000000000000000000000000000000000000000000000000000000000000000000000000000000000000008302000080887fffffffffffffff808203b642a056e81f171bcc55a6ff8345e692c0f86e5b48e01b996cadc001622fb5e363b421880102030405060708c0c0",
        "lastblockhash" : "0x96fdb1e47b1dd2b523ab148ab4212b57921f2d852cf23024865d1ddbff91b6fc",
        "network" : "Byzantium",
        "postState" : {
            "0x945304eb96065b2a98b57a48a06ae28d285a71b5" : {
                "balance" : "0x29a2241af62c838d",
                "code" : "0x6000355415600957005b60203560003555",
                "nonce" : "0x00",
                "storage" : {
                }
            },
            "0xa94f5374fce5edbc8e2a8697c15331677e6ebf0b" : {
                "balance" : "0x0de0b6b34a32228e",
                "code" : "",
                "nonce" : "0x01",
                "storage" : {
                }
            },
            "0xffffffffffffffffffffffffffffffffffffffff" : {
                "balance" : "0x5d315a13",
                "code" : "",
                "nonce" : "0x00",
                "storage" : {
                }
            }
        },
        "pre" : {
            "0x095e7baea6a6c7c4c2dfeb977efac326af552d87" : {
                "balance" : "0x00",
                "code" : "0x7f00000000000000000000000000000000000000000000000000000000000000017f0000000000000000000000000000000000000000000000000000000000000001037f00000000000000000000000000000000000000000000000000000000000000007f000000000000000000000000ffffffffffffffffffffffffffffffffffffffff7ffffffffffffffffffffffffffffffffffffffffffffffffffffffffffffffffe7f000000000000000000000000ffffffffffffffffffffffffffffffffffffffff44920907ff7e7d701260005155",
                "nonce" : "0x00",
                "storage" : {
                }
            },
            "0x945304eb96065b2a98b57a48a06ae28d285a71b5" : {
                "balance" : "0x2e",
                "code" : "0x6000355415600957005b60203560003555",
                "nonce" : "0x00",
                "storage" : {
                }
            },
            "0xa94f5374fce5edbc8e2a8697c15331677e6ebf0b" : {
                "balance" : "0x0de0b6b3a7640000",
                "code" : "",
                "nonce" : "0x00",
                "storage" : {
                }
            }
        }
    },
    "randomStatetest581_d0g0v0_EIP150" : {
        "_info" : {
            "comment" : "",
            "filledwith" : "cpp-1.3.0+commit.6e0ce939.Linux.g++",
            "lllcversion" : "Version: 0.4.18-develop.2017.9.25+commit.a72237f2.Linux.g++",
            "source" : "src/BlockchainTestsFiller/GeneralStateTests/stRandom/randomStatetest581_d0g0v0Filler.json",
            "sourceHash" : "76e0c3ba39f47ada3ce0e25f0d5a5dbe719685389172c64a40ea7793cf38d47d"
        },
        "blocks" : [
            {
                "blockHeader" : {
                    "bloom" : "0x00000000000000000000000000000000000000000000000000000000000000000000000000000000000000000000000000000000000000000000000000000000000000000000000000000000000000000000000000000000000000000000000000000000000000000000000000000000000000000000000000000000000000000000000000000000000000000000000000000000000000000000000000000000000000000000000000000000000000000000000000000000000000000000000000000000000000000000000000000000000000000000000000000000000000000000000000000000000000000000000000000000000000000000000000000000",
                    "coinbase" : "0x945304eb96065b2a98b57a48a06ae28d285a71b5",
                    "difficulty" : "0x020000",
                    "extraData" : "",
                    "gasLimit" : "0x7fffffffffffffff",
                    "gasUsed" : "0x835f",
                    "hash" : "0x570cba4ff55f7bd379ba10fec26e0a9c7649ee90101e7f6e9955d5791b2331f3",
                    "mixHash" : "0x3879571609d9eb4f594a0ba4242e9e3c98712985b27e65d21dfba45ed98c690b",
                    "nonce" : "0xa49e0ca9a5f72260",
                    "number" : "0x01",
                    "parentHash" : "0x1f64dc5bd503d52a72f8f58ae9319454cf23dcdeb16d4d40ab9aeddd79df14b1",
                    "receiptTrie" : "0x5379cddc2d21ead0ed14f8a89d5e1e6e37cfb6b6b78c57ff84444f0a92a39755",
                    "stateRoot" : "0xc8518da2f5c275f802f8795dc339b757d32819f0e999927f799c77fbc58ebb3e",
                    "timestamp" : "0x03e8",
                    "transactionsTrie" : "0x6aae4dc0acd7d630cb4001c767753dff4a2b8c5bf25e17bb20e727fd1bcb1356",
                    "uncleHash" : "0x1dcc4de8dec75d7aab85b567b6ccd41ad312451b948a7413f0a142fd40d49347"
                },
                "rlp" : "0xf9033cf901fca01f64dc5bd503d52a72f8f58ae9319454cf23dcdeb16d4d40ab9aeddd79df14b1a01dcc4de8dec75d7aab85b567b6ccd41ad312451b948a7413f0a142fd40d4934794945304eb96065b2a98b57a48a06ae28d285a71b5a0c8518da2f5c275f802f8795dc339b757d32819f0e999927f799c77fbc58ebb3ea06aae4dc0acd7d630cb4001c767753dff4a2b8c5bf25e17bb20e727fd1bcb1356a05379cddc2d21ead0ed14f8a89d5e1e6e37cfb6b6b78c57ff84444f0a92a39755b90100000000000000000000000000000000000000000000000000000000000000000000000000000000000000000000000000000000000000000000000000000000000000000000000000000000000000000000000000000000000000000000000000000000000000000000000000000000000000000000000000000000000000000000000000000000000000000000000000000000000000000000000000000000000000000000000000000000000000000000000000000000000000000000000000000000000000000000000000000000000000000000000000000000000000000000000000000000000000000000000000000000000000000000000000000000008302000001887fffffffffffffff82835f8203e880a03879571609d9eb4f594a0ba4242e9e3c98712985b27e65d21dfba45ed98c690b88a49e0ca9a5f72260f90139f9013680018412fe8a6894095e7baea6a6c7c4c2dfeb977efac326af552d87845d315a13b8d07f00000000000000000000000000000000000000000000000000000000000000017f0000000000000000000000000000000000000000000000000000000000000001037f00000000000000000000000000000000000000000000000000000000000000007f000000000000000000000000ffffffffffffffffffffffffffffffffffffffff7ffffffffffffffffffffffffffffffffffffffffffffffffffffffffffffffffe7f000000000000000000000000ffffffffffffffffffffffffffffffffffffffff44920907ff7e7d70121ba02486ff8fc18b1f22e67c260ffdb8964e0089705dbbd1c953fe8fc633b4c22553a07c8cff54133c792cdf5eb368a80ecfd93e1800c58d7c082c9e192a03ee04c81fc0",
                "transactions" : [
                    {
                        "data" : "0x7f00000000000000000000000000000000000000000000000000000000000000017f0000000000000000000000000000000000000000000000000000000000000001037f00000000000000000000000000000000000000000000000000000000000000007f000000000000000000000000ffffffffffffffffffffffffffffffffffffffff7ffffffffffffffffffffffffffffffffffffffffffffffffffffffffffffffffe7f000000000000000000000000ffffffffffffffffffffffffffffffffffffffff44920907ff7e7d7012",
                        "gasLimit" : "0x12fe8a68",
                        "gasPrice" : "0x01",
                        "nonce" : "0x00",
                        "r" : "0x2486ff8fc18b1f22e67c260ffdb8964e0089705dbbd1c953fe8fc633b4c22553",
                        "s" : "0x7c8cff54133c792cdf5eb368a80ecfd93e1800c58d7c082c9e192a03ee04c81f",
                        "to" : "0x095e7baea6a6c7c4c2dfeb977efac326af552d87",
                        "v" : "0x1b",
                        "value" : "0x5d315a13"
                    }
                ],
                "uncleHeaders" : [
                ]
            }
        ],
        "genesisBlockHeader" : {
            "bloom" : "0x00000000000000000000000000000000000000000000000000000000000000000000000000000000000000000000000000000000000000000000000000000000000000000000000000000000000000000000000000000000000000000000000000000000000000000000000000000000000000000000000000000000000000000000000000000000000000000000000000000000000000000000000000000000000000000000000000000000000000000000000000000000000000000000000000000000000000000000000000000000000000000000000000000000000000000000000000000000000000000000000000000000000000000000000000000000",
            "coinbase" : "0x945304eb96065b2a98b57a48a06ae28d285a71b5",
            "difficulty" : "0x020000",
            "extraData" : "0x42",
            "gasLimit" : "0x7fffffffffffffff",
            "gasUsed" : "0x00",
            "hash" : "0x1f64dc5bd503d52a72f8f58ae9319454cf23dcdeb16d4d40ab9aeddd79df14b1",
            "mixHash" : "0x56e81f171bcc55a6ff8345e692c0f86e5b48e01b996cadc001622fb5e363b421",
            "nonce" : "0x0102030405060708",
            "number" : "0x00",
            "parentHash" : "0x0000000000000000000000000000000000000000000000000000000000000000",
            "receiptTrie" : "0x56e81f171bcc55a6ff8345e692c0f86e5b48e01b996cadc001622fb5e363b421",
            "stateRoot" : "0x5fb759132b285057eb2671099acea11c7bc97c0c4a80e0898f6a75b5b8f01e07",
            "timestamp" : "0x03b6",
            "transactionsTrie" : "0x56e81f171bcc55a6ff8345e692c0f86e5b48e01b996cadc001622fb5e363b421",
            "uncleHash" : "0x1dcc4de8dec75d7aab85b567b6ccd41ad312451b948a7413f0a142fd40d49347"
        },
        "genesisRLP" : "0xf901fff901faa00000000000000000000000000000000000000000000000000000000000000000a01dcc4de8dec75d7aab85b567b6ccd41ad312451b948a7413f0a142fd40d4934794945304eb96065b2a98b57a48a06ae28d285a71b5a05fb759132b285057eb2671099acea11c7bc97c0c4a80e0898f6a75b5b8f01e07a056e81f171bcc55a6ff8345e692c0f86e5b48e01b996cadc001622fb5e363b421a056e81f171bcc55a6ff8345e692c0f86e5b48e01b996cadc001622fb5e363b421b90100000000000000000000000000000000000000000000000000000000000000000000000000000000000000000000000000000000000000000000000000000000000000000000000000000000000000000000000000000000000000000000000000000000000000000000000000000000000000000000000000000000000000000000000000000000000000000000000000000000000000000000000000000000000000000000000000000000000000000000000000000000000000000000000000000000000000000000000000000000000000000000000000000000000000000000000000000000000000000000000000000000000000000000000000000000008302000080887fffffffffffffff808203b642a056e81f171bcc55a6ff8345e692c0f86e5b48e01b996cadc001622fb5e363b421880102030405060708c0c0",
        "lastblockhash" : "0x570cba4ff55f7bd379ba10fec26e0a9c7649ee90101e7f6e9955d5791b2331f3",
        "network" : "EIP150",
        "postState" : {
            "0x945304eb96065b2a98b57a48a06ae28d285a71b5" : {
                "balance" : "0x4563918244f4838d",
                "code" : "0x6000355415600957005b60203560003555",
                "nonce" : "0x00",
                "storage" : {
                }
            },
            "0xa94f5374fce5edbc8e2a8697c15331677e6ebf0b" : {
                "balance" : "0x0de0b6b34a32228e",
                "code" : "",
                "nonce" : "0x01",
                "storage" : {
                }
            },
            "0xffffffffffffffffffffffffffffffffffffffff" : {
                "balance" : "0x5d315a13",
                "code" : "",
                "nonce" : "0x00",
                "storage" : {
                }
            }
        },
        "pre" : {
            "0x095e7baea6a6c7c4c2dfeb977efac326af552d87" : {
                "balance" : "0x00",
                "code" : "0x7f00000000000000000000000000000000000000000000000000000000000000017f0000000000000000000000000000000000000000000000000000000000000001037f00000000000000000000000000000000000000000000000000000000000000007f000000000000000000000000ffffffffffffffffffffffffffffffffffffffff7ffffffffffffffffffffffffffffffffffffffffffffffffffffffffffffffffe7f000000000000000000000000ffffffffffffffffffffffffffffffffffffffff44920907ff7e7d701260005155",
                "nonce" : "0x00",
                "storage" : {
                }
            },
            "0x945304eb96065b2a98b57a48a06ae28d285a71b5" : {
                "balance" : "0x2e",
                "code" : "0x6000355415600957005b60203560003555",
                "nonce" : "0x00",
                "storage" : {
                }
            },
            "0xa94f5374fce5edbc8e2a8697c15331677e6ebf0b" : {
                "balance" : "0x0de0b6b3a7640000",
                "code" : "",
                "nonce" : "0x00",
                "storage" : {
                }
            }
        }
    },
    "randomStatetest581_d0g0v0_EIP158" : {
        "_info" : {
            "comment" : "",
            "filledwith" : "cpp-1.3.0+commit.6e0ce939.Linux.g++",
            "lllcversion" : "Version: 0.4.18-develop.2017.9.25+commit.a72237f2.Linux.g++",
            "source" : "src/BlockchainTestsFiller/GeneralStateTests/stRandom/randomStatetest581_d0g0v0Filler.json",
            "sourceHash" : "76e0c3ba39f47ada3ce0e25f0d5a5dbe719685389172c64a40ea7793cf38d47d"
        },
        "blocks" : [
            {
                "blockHeader" : {
                    "bloom" : "0x00000000000000000000000000000000000000000000000000000000000000000000000000000000000000000000000000000000000000000000000000000000000000000000000000000000000000000000000000000000000000000000000000000000000000000000000000000000000000000000000000000000000000000000000000000000000000000000000000000000000000000000000000000000000000000000000000000000000000000000000000000000000000000000000000000000000000000000000000000000000000000000000000000000000000000000000000000000000000000000000000000000000000000000000000000000",
                    "coinbase" : "0x945304eb96065b2a98b57a48a06ae28d285a71b5",
                    "difficulty" : "0x020000",
                    "extraData" : "",
                    "gasLimit" : "0x7fffffffffffffff",
                    "gasUsed" : "0x835f",
                    "hash" : "0xe0182811f37e026d37ebe64982707fd31eb60ce35f1957103e4f09fd8f9dcafa",
                    "mixHash" : "0xc8e2ec682b32d49c4961a001ae10aa5ecdc36d599483f2cedac135d16273de4b",
                    "nonce" : "0x1d75b581e6609757",
                    "number" : "0x01",
                    "parentHash" : "0x1f64dc5bd503d52a72f8f58ae9319454cf23dcdeb16d4d40ab9aeddd79df14b1",
                    "receiptTrie" : "0x5379cddc2d21ead0ed14f8a89d5e1e6e37cfb6b6b78c57ff84444f0a92a39755",
                    "stateRoot" : "0xc8518da2f5c275f802f8795dc339b757d32819f0e999927f799c77fbc58ebb3e",
                    "timestamp" : "0x03e8",
                    "transactionsTrie" : "0x6aae4dc0acd7d630cb4001c767753dff4a2b8c5bf25e17bb20e727fd1bcb1356",
                    "uncleHash" : "0x1dcc4de8dec75d7aab85b567b6ccd41ad312451b948a7413f0a142fd40d49347"
                },
                "rlp" : "0xf9033cf901fca01f64dc5bd503d52a72f8f58ae9319454cf23dcdeb16d4d40ab9aeddd79df14b1a01dcc4de8dec75d7aab85b567b6ccd41ad312451b948a7413f0a142fd40d4934794945304eb96065b2a98b57a48a06ae28d285a71b5a0c8518da2f5c275f802f8795dc339b757d32819f0e999927f799c77fbc58ebb3ea06aae4dc0acd7d630cb4001c767753dff4a2b8c5bf25e17bb20e727fd1bcb1356a05379cddc2d21ead0ed14f8a89d5e1e6e37cfb6b6b78c57ff84444f0a92a39755b90100000000000000000000000000000000000000000000000000000000000000000000000000000000000000000000000000000000000000000000000000000000000000000000000000000000000000000000000000000000000000000000000000000000000000000000000000000000000000000000000000000000000000000000000000000000000000000000000000000000000000000000000000000000000000000000000000000000000000000000000000000000000000000000000000000000000000000000000000000000000000000000000000000000000000000000000000000000000000000000000000000000000000000000000000000000008302000001887fffffffffffffff82835f8203e880a0c8e2ec682b32d49c4961a001ae10aa5ecdc36d599483f2cedac135d16273de4b881d75b581e6609757f90139f9013680018412fe8a6894095e7baea6a6c7c4c2dfeb977efac326af552d87845d315a13b8d07f00000000000000000000000000000000000000000000000000000000000000017f0000000000000000000000000000000000000000000000000000000000000001037f00000000000000000000000000000000000000000000000000000000000000007f000000000000000000000000ffffffffffffffffffffffffffffffffffffffff7ffffffffffffffffffffffffffffffffffffffffffffffffffffffffffffffffe7f000000000000000000000000ffffffffffffffffffffffffffffffffffffffff44920907ff7e7d70121ba02486ff8fc18b1f22e67c260ffdb8964e0089705dbbd1c953fe8fc633b4c22553a07c8cff54133c792cdf5eb368a80ecfd93e1800c58d7c082c9e192a03ee04c81fc0",
                "transactions" : [
                    {
                        "data" : "0x7f00000000000000000000000000000000000000000000000000000000000000017f0000000000000000000000000000000000000000000000000000000000000001037f00000000000000000000000000000000000000000000000000000000000000007f000000000000000000000000ffffffffffffffffffffffffffffffffffffffff7ffffffffffffffffffffffffffffffffffffffffffffffffffffffffffffffffe7f000000000000000000000000ffffffffffffffffffffffffffffffffffffffff44920907ff7e7d7012",
                        "gasLimit" : "0x12fe8a68",
                        "gasPrice" : "0x01",
                        "nonce" : "0x00",
                        "r" : "0x2486ff8fc18b1f22e67c260ffdb8964e0089705dbbd1c953fe8fc633b4c22553",
                        "s" : "0x7c8cff54133c792cdf5eb368a80ecfd93e1800c58d7c082c9e192a03ee04c81f",
                        "to" : "0x095e7baea6a6c7c4c2dfeb977efac326af552d87",
                        "v" : "0x1b",
                        "value" : "0x5d315a13"
                    }
                ],
                "uncleHeaders" : [
                ]
            }
        ],
        "genesisBlockHeader" : {
            "bloom" : "0x00000000000000000000000000000000000000000000000000000000000000000000000000000000000000000000000000000000000000000000000000000000000000000000000000000000000000000000000000000000000000000000000000000000000000000000000000000000000000000000000000000000000000000000000000000000000000000000000000000000000000000000000000000000000000000000000000000000000000000000000000000000000000000000000000000000000000000000000000000000000000000000000000000000000000000000000000000000000000000000000000000000000000000000000000000000",
            "coinbase" : "0x945304eb96065b2a98b57a48a06ae28d285a71b5",
            "difficulty" : "0x020000",
            "extraData" : "0x42",
            "gasLimit" : "0x7fffffffffffffff",
            "gasUsed" : "0x00",
            "hash" : "0x1f64dc5bd503d52a72f8f58ae9319454cf23dcdeb16d4d40ab9aeddd79df14b1",
            "mixHash" : "0x56e81f171bcc55a6ff8345e692c0f86e5b48e01b996cadc001622fb5e363b421",
            "nonce" : "0x0102030405060708",
            "number" : "0x00",
            "parentHash" : "0x0000000000000000000000000000000000000000000000000000000000000000",
            "receiptTrie" : "0x56e81f171bcc55a6ff8345e692c0f86e5b48e01b996cadc001622fb5e363b421",
            "stateRoot" : "0x5fb759132b285057eb2671099acea11c7bc97c0c4a80e0898f6a75b5b8f01e07",
            "timestamp" : "0x03b6",
            "transactionsTrie" : "0x56e81f171bcc55a6ff8345e692c0f86e5b48e01b996cadc001622fb5e363b421",
            "uncleHash" : "0x1dcc4de8dec75d7aab85b567b6ccd41ad312451b948a7413f0a142fd40d49347"
        },
        "genesisRLP" : "0xf901fff901faa00000000000000000000000000000000000000000000000000000000000000000a01dcc4de8dec75d7aab85b567b6ccd41ad312451b948a7413f0a142fd40d4934794945304eb96065b2a98b57a48a06ae28d285a71b5a05fb759132b285057eb2671099acea11c7bc97c0c4a80e0898f6a75b5b8f01e07a056e81f171bcc55a6ff8345e692c0f86e5b48e01b996cadc001622fb5e363b421a056e81f171bcc55a6ff8345e692c0f86e5b48e01b996cadc001622fb5e363b421b90100000000000000000000000000000000000000000000000000000000000000000000000000000000000000000000000000000000000000000000000000000000000000000000000000000000000000000000000000000000000000000000000000000000000000000000000000000000000000000000000000000000000000000000000000000000000000000000000000000000000000000000000000000000000000000000000000000000000000000000000000000000000000000000000000000000000000000000000000000000000000000000000000000000000000000000000000000000000000000000000000000000000000000000000000000000008302000080887fffffffffffffff808203b642a056e81f171bcc55a6ff8345e692c0f86e5b48e01b996cadc001622fb5e363b421880102030405060708c0c0",
        "lastblockhash" : "0xe0182811f37e026d37ebe64982707fd31eb60ce35f1957103e4f09fd8f9dcafa",
        "network" : "EIP158",
        "postState" : {
            "0x945304eb96065b2a98b57a48a06ae28d285a71b5" : {
                "balance" : "0x4563918244f4838d",
                "code" : "0x6000355415600957005b60203560003555",
                "nonce" : "0x00",
                "storage" : {
                }
            },
            "0xa94f5374fce5edbc8e2a8697c15331677e6ebf0b" : {
                "balance" : "0x0de0b6b34a32228e",
                "code" : "",
                "nonce" : "0x01",
                "storage" : {
                }
            },
            "0xffffffffffffffffffffffffffffffffffffffff" : {
                "balance" : "0x5d315a13",
                "code" : "",
                "nonce" : "0x00",
                "storage" : {
                }
            }
        },
        "pre" : {
            "0x095e7baea6a6c7c4c2dfeb977efac326af552d87" : {
                "balance" : "0x00",
                "code" : "0x7f00000000000000000000000000000000000000000000000000000000000000017f0000000000000000000000000000000000000000000000000000000000000001037f00000000000000000000000000000000000000000000000000000000000000007f000000000000000000000000ffffffffffffffffffffffffffffffffffffffff7ffffffffffffffffffffffffffffffffffffffffffffffffffffffffffffffffe7f000000000000000000000000ffffffffffffffffffffffffffffffffffffffff44920907ff7e7d701260005155",
                "nonce" : "0x00",
                "storage" : {
                }
            },
            "0x945304eb96065b2a98b57a48a06ae28d285a71b5" : {
                "balance" : "0x2e",
                "code" : "0x6000355415600957005b60203560003555",
                "nonce" : "0x00",
                "storage" : {
                }
            },
            "0xa94f5374fce5edbc8e2a8697c15331677e6ebf0b" : {
                "balance" : "0x0de0b6b3a7640000",
                "code" : "",
                "nonce" : "0x00",
                "storage" : {
                }
            }
        }
    },
    "randomStatetest581_d0g0v0_Frontier" : {
        "_info" : {
            "comment" : "",
            "filledwith" : "cpp-1.3.0+commit.6e0ce939.Linux.g++",
            "lllcversion" : "Version: 0.4.18-develop.2017.9.25+commit.a72237f2.Linux.g++",
            "source" : "src/BlockchainTestsFiller/GeneralStateTests/stRandom/randomStatetest581_d0g0v0Filler.json",
            "sourceHash" : "76e0c3ba39f47ada3ce0e25f0d5a5dbe719685389172c64a40ea7793cf38d47d"
        },
        "blocks" : [
            {
                "blockHeader" : {
                    "bloom" : "0x00000000000000000000000000000000000000000000000000000000000000000000000000000000000000000000000000000000000000000000000000000000000000000000000000000000000000000000000000000000000000000000000000000000000000000000000000000000000000000000000000000000000000000000000000000000000000000000000000000000000000000000000000000000000000000000000000000000000000000000000000000000000000000000000000000000000000000000000000000000000000000000000000000000000000000000000000000000000000000000000000000000000000000000000000000000",
                    "coinbase" : "0x945304eb96065b2a98b57a48a06ae28d285a71b5",
                    "difficulty" : "0x020000",
                    "extraData" : "",
                    "gasLimit" : "0x7fffffffffffffff",
                    "gasUsed" : "0x35f8",
                    "hash" : "0x8dd50ea8a3ba4d160cecf2620e63b002abe1d16f3cff71f27a10390b7902c7f2",
                    "mixHash" : "0xa7eebc8869846cf5707cd7b3c6be88f69f5c09a52550082cb6a52106c166cefe",
                    "nonce" : "0x1ddba0d9012ac54a",
                    "number" : "0x01",
                    "parentHash" : "0x1f64dc5bd503d52a72f8f58ae9319454cf23dcdeb16d4d40ab9aeddd79df14b1",
                    "receiptTrie" : "0xb722d9f55522200d5ff401c7376d270511964f3f46711b84bdf1a1a0f144496a",
                    "stateRoot" : "0xffb05a61197faef666ca25910aaf6a0dcc3518846199d886025674e83751cd6b",
                    "timestamp" : "0x03e8",
                    "transactionsTrie" : "0x6aae4dc0acd7d630cb4001c767753dff4a2b8c5bf25e17bb20e727fd1bcb1356",
                    "uncleHash" : "0x1dcc4de8dec75d7aab85b567b6ccd41ad312451b948a7413f0a142fd40d49347"
                },
                "rlp" : "0xf9033cf901fca01f64dc5bd503d52a72f8f58ae9319454cf23dcdeb16d4d40ab9aeddd79df14b1a01dcc4de8dec75d7aab85b567b6ccd41ad312451b948a7413f0a142fd40d4934794945304eb96065b2a98b57a48a06ae28d285a71b5a0ffb05a61197faef666ca25910aaf6a0dcc3518846199d886025674e83751cd6ba06aae4dc0acd7d630cb4001c767753dff4a2b8c5bf25e17bb20e727fd1bcb1356a0b722d9f55522200d5ff401c7376d270511964f3f46711b84bdf1a1a0f144496ab90100000000000000000000000000000000000000000000000000000000000000000000000000000000000000000000000000000000000000000000000000000000000000000000000000000000000000000000000000000000000000000000000000000000000000000000000000000000000000000000000000000000000000000000000000000000000000000000000000000000000000000000000000000000000000000000000000000000000000000000000000000000000000000000000000000000000000000000000000000000000000000000000000000000000000000000000000000000000000000000000000000000000000000000000000000000008302000001887fffffffffffffff8235f88203e880a0a7eebc8869846cf5707cd7b3c6be88f69f5c09a52550082cb6a52106c166cefe881ddba0d9012ac54af90139f9013680018412fe8a6894095e7baea6a6c7c4c2dfeb977efac326af552d87845d315a13b8d07f00000000000000000000000000000000000000000000000000000000000000017f0000000000000000000000000000000000000000000000000000000000000001037f00000000000000000000000000000000000000000000000000000000000000007f000000000000000000000000ffffffffffffffffffffffffffffffffffffffff7ffffffffffffffffffffffffffffffffffffffffffffffffffffffffffffffffe7f000000000000000000000000ffffffffffffffffffffffffffffffffffffffff44920907ff7e7d70121ba02486ff8fc18b1f22e67c260ffdb8964e0089705dbbd1c953fe8fc633b4c22553a07c8cff54133c792cdf5eb368a80ecfd93e1800c58d7c082c9e192a03ee04c81fc0",
                "transactions" : [
                    {
                        "data" : "0x7f00000000000000000000000000000000000000000000000000000000000000017f0000000000000000000000000000000000000000000000000000000000000001037f00000000000000000000000000000000000000000000000000000000000000007f000000000000000000000000ffffffffffffffffffffffffffffffffffffffff7ffffffffffffffffffffffffffffffffffffffffffffffffffffffffffffffffe7f000000000000000000000000ffffffffffffffffffffffffffffffffffffffff44920907ff7e7d7012",
                        "gasLimit" : "0x12fe8a68",
                        "gasPrice" : "0x01",
                        "nonce" : "0x00",
                        "r" : "0x2486ff8fc18b1f22e67c260ffdb8964e0089705dbbd1c953fe8fc633b4c22553",
                        "s" : "0x7c8cff54133c792cdf5eb368a80ecfd93e1800c58d7c082c9e192a03ee04c81f",
                        "to" : "0x095e7baea6a6c7c4c2dfeb977efac326af552d87",
                        "v" : "0x1b",
                        "value" : "0x5d315a13"
                    }
                ],
                "uncleHeaders" : [
                ]
            }
        ],
        "genesisBlockHeader" : {
            "bloom" : "0x00000000000000000000000000000000000000000000000000000000000000000000000000000000000000000000000000000000000000000000000000000000000000000000000000000000000000000000000000000000000000000000000000000000000000000000000000000000000000000000000000000000000000000000000000000000000000000000000000000000000000000000000000000000000000000000000000000000000000000000000000000000000000000000000000000000000000000000000000000000000000000000000000000000000000000000000000000000000000000000000000000000000000000000000000000000",
            "coinbase" : "0x945304eb96065b2a98b57a48a06ae28d285a71b5",
            "difficulty" : "0x020000",
            "extraData" : "0x42",
            "gasLimit" : "0x7fffffffffffffff",
            "gasUsed" : "0x00",
            "hash" : "0x1f64dc5bd503d52a72f8f58ae9319454cf23dcdeb16d4d40ab9aeddd79df14b1",
            "mixHash" : "0x56e81f171bcc55a6ff8345e692c0f86e5b48e01b996cadc001622fb5e363b421",
            "nonce" : "0x0102030405060708",
            "number" : "0x00",
            "parentHash" : "0x0000000000000000000000000000000000000000000000000000000000000000",
            "receiptTrie" : "0x56e81f171bcc55a6ff8345e692c0f86e5b48e01b996cadc001622fb5e363b421",
            "stateRoot" : "0x5fb759132b285057eb2671099acea11c7bc97c0c4a80e0898f6a75b5b8f01e07",
            "timestamp" : "0x03b6",
            "transactionsTrie" : "0x56e81f171bcc55a6ff8345e692c0f86e5b48e01b996cadc001622fb5e363b421",
            "uncleHash" : "0x1dcc4de8dec75d7aab85b567b6ccd41ad312451b948a7413f0a142fd40d49347"
        },
        "genesisRLP" : "0xf901fff901faa00000000000000000000000000000000000000000000000000000000000000000a01dcc4de8dec75d7aab85b567b6ccd41ad312451b948a7413f0a142fd40d4934794945304eb96065b2a98b57a48a06ae28d285a71b5a05fb759132b285057eb2671099acea11c7bc97c0c4a80e0898f6a75b5b8f01e07a056e81f171bcc55a6ff8345e692c0f86e5b48e01b996cadc001622fb5e363b421a056e81f171bcc55a6ff8345e692c0f86e5b48e01b996cadc001622fb5e363b421b90100000000000000000000000000000000000000000000000000000000000000000000000000000000000000000000000000000000000000000000000000000000000000000000000000000000000000000000000000000000000000000000000000000000000000000000000000000000000000000000000000000000000000000000000000000000000000000000000000000000000000000000000000000000000000000000000000000000000000000000000000000000000000000000000000000000000000000000000000000000000000000000000000000000000000000000000000000000000000000000000000000000000000000000000000000000008302000080887fffffffffffffff808203b642a056e81f171bcc55a6ff8345e692c0f86e5b48e01b996cadc001622fb5e363b421880102030405060708c0c0",
        "lastblockhash" : "0x8dd50ea8a3ba4d160cecf2620e63b002abe1d16f3cff71f27a10390b7902c7f2",
        "network" : "Frontier",
        "postState" : {
            "0x945304eb96065b2a98b57a48a06ae28d285a71b5" : {
                "balance" : "0x4563918244f43626",
                "code" : "0x6000355415600957005b60203560003555",
                "nonce" : "0x00",
                "storage" : {
                }
            },
            "0xa94f5374fce5edbc8e2a8697c15331677e6ebf0b" : {
                "balance" : "0x0de0b6b34a326ff5",
                "code" : "",
                "nonce" : "0x01",
                "storage" : {
                }
            },
            "0xffffffffffffffffffffffffffffffffffffffff" : {
                "balance" : "0x5d315a13",
                "code" : "",
                "nonce" : "0x00",
                "storage" : {
                }
            }
        },
        "pre" : {
            "0x095e7baea6a6c7c4c2dfeb977efac326af552d87" : {
                "balance" : "0x00",
                "code" : "0x7f00000000000000000000000000000000000000000000000000000000000000017f0000000000000000000000000000000000000000000000000000000000000001037f00000000000000000000000000000000000000000000000000000000000000007f000000000000000000000000ffffffffffffffffffffffffffffffffffffffff7ffffffffffffffffffffffffffffffffffffffffffffffffffffffffffffffffe7f000000000000000000000000ffffffffffffffffffffffffffffffffffffffff44920907ff7e7d701260005155",
                "nonce" : "0x00",
                "storage" : {
                }
            },
            "0x945304eb96065b2a98b57a48a06ae28d285a71b5" : {
                "balance" : "0x2e",
                "code" : "0x6000355415600957005b60203560003555",
                "nonce" : "0x00",
                "storage" : {
                }
            },
            "0xa94f5374fce5edbc8e2a8697c15331677e6ebf0b" : {
                "balance" : "0x0de0b6b3a7640000",
                "code" : "",
                "nonce" : "0x00",
                "storage" : {
                }
            }
        }
    },
    "randomStatetest581_d0g0v0_Homestead" : {
        "_info" : {
            "comment" : "",
            "filledwith" : "cpp-1.3.0+commit.6e0ce939.Linux.g++",
            "lllcversion" : "Version: 0.4.18-develop.2017.9.25+commit.a72237f2.Linux.g++",
            "source" : "src/BlockchainTestsFiller/GeneralStateTests/stRandom/randomStatetest581_d0g0v0Filler.json",
            "sourceHash" : "76e0c3ba39f47ada3ce0e25f0d5a5dbe719685389172c64a40ea7793cf38d47d"
        },
        "blocks" : [
            {
                "blockHeader" : {
                    "bloom" : "0x00000000000000000000000000000000000000000000000000000000000000000000000000000000000000000000000000000000000000000000000000000000000000000000000000000000000000000000000000000000000000000000000000000000000000000000000000000000000000000000000000000000000000000000000000000000000000000000000000000000000000000000000000000000000000000000000000000000000000000000000000000000000000000000000000000000000000000000000000000000000000000000000000000000000000000000000000000000000000000000000000000000000000000000000000000000",
                    "coinbase" : "0x945304eb96065b2a98b57a48a06ae28d285a71b5",
                    "difficulty" : "0x020000",
                    "extraData" : "",
                    "gasLimit" : "0x7fffffffffffffff",
                    "gasUsed" : "0x35f8",
                    "hash" : "0x91c40178619c0ebc0704e0cf296a126f33e7602db06bec9e2f004cfb00d23cf5",
                    "mixHash" : "0x9f544b1157086d927c0e3712c0d4ba6475b96a37eb58219db8e5c8e2ed8fc331",
                    "nonce" : "0x8679842da7cd3327",
                    "number" : "0x01",
                    "parentHash" : "0x1f64dc5bd503d52a72f8f58ae9319454cf23dcdeb16d4d40ab9aeddd79df14b1",
                    "receiptTrie" : "0xb722d9f55522200d5ff401c7376d270511964f3f46711b84bdf1a1a0f144496a",
                    "stateRoot" : "0xffb05a61197faef666ca25910aaf6a0dcc3518846199d886025674e83751cd6b",
                    "timestamp" : "0x03e8",
                    "transactionsTrie" : "0x6aae4dc0acd7d630cb4001c767753dff4a2b8c5bf25e17bb20e727fd1bcb1356",
                    "uncleHash" : "0x1dcc4de8dec75d7aab85b567b6ccd41ad312451b948a7413f0a142fd40d49347"
                },
                "rlp" : "0xf9033cf901fca01f64dc5bd503d52a72f8f58ae9319454cf23dcdeb16d4d40ab9aeddd79df14b1a01dcc4de8dec75d7aab85b567b6ccd41ad312451b948a7413f0a142fd40d4934794945304eb96065b2a98b57a48a06ae28d285a71b5a0ffb05a61197faef666ca25910aaf6a0dcc3518846199d886025674e83751cd6ba06aae4dc0acd7d630cb4001c767753dff4a2b8c5bf25e17bb20e727fd1bcb1356a0b722d9f55522200d5ff401c7376d270511964f3f46711b84bdf1a1a0f144496ab90100000000000000000000000000000000000000000000000000000000000000000000000000000000000000000000000000000000000000000000000000000000000000000000000000000000000000000000000000000000000000000000000000000000000000000000000000000000000000000000000000000000000000000000000000000000000000000000000000000000000000000000000000000000000000000000000000000000000000000000000000000000000000000000000000000000000000000000000000000000000000000000000000000000000000000000000000000000000000000000000000000000000000000000000000000000008302000001887fffffffffffffff8235f88203e880a09f544b1157086d927c0e3712c0d4ba6475b96a37eb58219db8e5c8e2ed8fc331888679842da7cd3327f90139f9013680018412fe8a6894095e7baea6a6c7c4c2dfeb977efac326af552d87845d315a13b8d07f00000000000000000000000000000000000000000000000000000000000000017f0000000000000000000000000000000000000000000000000000000000000001037f00000000000000000000000000000000000000000000000000000000000000007f000000000000000000000000ffffffffffffffffffffffffffffffffffffffff7ffffffffffffffffffffffffffffffffffffffffffffffffffffffffffffffffe7f000000000000000000000000ffffffffffffffffffffffffffffffffffffffff44920907ff7e7d70121ba02486ff8fc18b1f22e67c260ffdb8964e0089705dbbd1c953fe8fc633b4c22553a07c8cff54133c792cdf5eb368a80ecfd93e1800c58d7c082c9e192a03ee04c81fc0",
                "transactions" : [
                    {
                        "data" : "0x7f00000000000000000000000000000000000000000000000000000000000000017f0000000000000000000000000000000000000000000000000000000000000001037f00000000000000000000000000000000000000000000000000000000000000007f000000000000000000000000ffffffffffffffffffffffffffffffffffffffff7ffffffffffffffffffffffffffffffffffffffffffffffffffffffffffffffffe7f000000000000000000000000ffffffffffffffffffffffffffffffffffffffff44920907ff7e7d7012",
                        "gasLimit" : "0x12fe8a68",
                        "gasPrice" : "0x01",
                        "nonce" : "0x00",
                        "r" : "0x2486ff8fc18b1f22e67c260ffdb8964e0089705dbbd1c953fe8fc633b4c22553",
                        "s" : "0x7c8cff54133c792cdf5eb368a80ecfd93e1800c58d7c082c9e192a03ee04c81f",
                        "to" : "0x095e7baea6a6c7c4c2dfeb977efac326af552d87",
                        "v" : "0x1b",
                        "value" : "0x5d315a13"
                    }
                ],
                "uncleHeaders" : [
                ]
            }
        ],
        "genesisBlockHeader" : {
            "bloom" : "0x00000000000000000000000000000000000000000000000000000000000000000000000000000000000000000000000000000000000000000000000000000000000000000000000000000000000000000000000000000000000000000000000000000000000000000000000000000000000000000000000000000000000000000000000000000000000000000000000000000000000000000000000000000000000000000000000000000000000000000000000000000000000000000000000000000000000000000000000000000000000000000000000000000000000000000000000000000000000000000000000000000000000000000000000000000000",
            "coinbase" : "0x945304eb96065b2a98b57a48a06ae28d285a71b5",
            "difficulty" : "0x020000",
            "extraData" : "0x42",
            "gasLimit" : "0x7fffffffffffffff",
            "gasUsed" : "0x00",
            "hash" : "0x1f64dc5bd503d52a72f8f58ae9319454cf23dcdeb16d4d40ab9aeddd79df14b1",
            "mixHash" : "0x56e81f171bcc55a6ff8345e692c0f86e5b48e01b996cadc001622fb5e363b421",
            "nonce" : "0x0102030405060708",
            "number" : "0x00",
            "parentHash" : "0x0000000000000000000000000000000000000000000000000000000000000000",
            "receiptTrie" : "0x56e81f171bcc55a6ff8345e692c0f86e5b48e01b996cadc001622fb5e363b421",
            "stateRoot" : "0x5fb759132b285057eb2671099acea11c7bc97c0c4a80e0898f6a75b5b8f01e07",
            "timestamp" : "0x03b6",
            "transactionsTrie" : "0x56e81f171bcc55a6ff8345e692c0f86e5b48e01b996cadc001622fb5e363b421",
            "uncleHash" : "0x1dcc4de8dec75d7aab85b567b6ccd41ad312451b948a7413f0a142fd40d49347"
        },
        "genesisRLP" : "0xf901fff901faa00000000000000000000000000000000000000000000000000000000000000000a01dcc4de8dec75d7aab85b567b6ccd41ad312451b948a7413f0a142fd40d4934794945304eb96065b2a98b57a48a06ae28d285a71b5a05fb759132b285057eb2671099acea11c7bc97c0c4a80e0898f6a75b5b8f01e07a056e81f171bcc55a6ff8345e692c0f86e5b48e01b996cadc001622fb5e363b421a056e81f171bcc55a6ff8345e692c0f86e5b48e01b996cadc001622fb5e363b421b90100000000000000000000000000000000000000000000000000000000000000000000000000000000000000000000000000000000000000000000000000000000000000000000000000000000000000000000000000000000000000000000000000000000000000000000000000000000000000000000000000000000000000000000000000000000000000000000000000000000000000000000000000000000000000000000000000000000000000000000000000000000000000000000000000000000000000000000000000000000000000000000000000000000000000000000000000000000000000000000000000000000000000000000000000000000008302000080887fffffffffffffff808203b642a056e81f171bcc55a6ff8345e692c0f86e5b48e01b996cadc001622fb5e363b421880102030405060708c0c0",
        "lastblockhash" : "0x91c40178619c0ebc0704e0cf296a126f33e7602db06bec9e2f004cfb00d23cf5",
        "network" : "Homestead",
        "postState" : {
            "0x945304eb96065b2a98b57a48a06ae28d285a71b5" : {
                "balance" : "0x4563918244f43626",
                "code" : "0x6000355415600957005b60203560003555",
                "nonce" : "0x00",
                "storage" : {
                }
            },
            "0xa94f5374fce5edbc8e2a8697c15331677e6ebf0b" : {
                "balance" : "0x0de0b6b34a326ff5",
                "code" : "",
                "nonce" : "0x01",
                "storage" : {
                }
            },
            "0xffffffffffffffffffffffffffffffffffffffff" : {
                "balance" : "0x5d315a13",
                "code" : "",
                "nonce" : "0x00",
                "storage" : {
                }
            }
        },
        "pre" : {
            "0x095e7baea6a6c7c4c2dfeb977efac326af552d87" : {
                "balance" : "0x00",
                "code" : "0x7f00000000000000000000000000000000000000000000000000000000000000017f0000000000000000000000000000000000000000000000000000000000000001037f00000000000000000000000000000000000000000000000000000000000000007f000000000000000000000000ffffffffffffffffffffffffffffffffffffffff7ffffffffffffffffffffffffffffffffffffffffffffffffffffffffffffffffe7f000000000000000000000000ffffffffffffffffffffffffffffffffffffffff44920907ff7e7d701260005155",
                "nonce" : "0x00",
                "storage" : {
                }
            },
            "0x945304eb96065b2a98b57a48a06ae28d285a71b5" : {
                "balance" : "0x2e",
                "code" : "0x6000355415600957005b60203560003555",
                "nonce" : "0x00",
                "storage" : {
                }
            },
            "0xa94f5374fce5edbc8e2a8697c15331677e6ebf0b" : {
                "balance" : "0x0de0b6b3a7640000",
                "code" : "",
                "nonce" : "0x00",
                "storage" : {
                }
            }
        }
    }
}