{
    "randomStatetest454_d0g0v0_EIP150" : {
        "blocks" : [
            {
                "blockHeader" : {
                    "bloom" : "0x00000000000000000000000000000000000000000000000000000000000000000000000000000000000000000000000000000000000000000000000000000000000000000000000000000000000000000000000000000000000000000000000000000000000000000000000000000000000000000000000000000000000000000000000000000000000000000000000000000000000000000000000000000000000000000000000000000000000000000000000000000000000000000000000000000000000000000000000000000000000000000000000000000000000000000000000000000000000000000000000000000000000000000000000000000000",
                    "coinbase" : "0x945304eb96065b2a98b57a48a06ae28d285a71b5",
                    "difficulty" : "0x020000",
                    "extraData" : "",
                    "gasLimit" : "0x7fffffffffffffff",
                    "gasUsed" : "0x2fc0c45a",
                    "hash" : "0xdd3d7faa513d1aaa68f7f40c9a0f69afdf88bd5bf087cb70c054b7d56a7eab62",
                    "mixHash" : "0x7daabb9d86c5e36e63c9241df0216b8a2e8086bd392ce5053c0d10da934e91ef",
                    "nonce" : "0x3106a0a7fcc78bc6",
                    "number" : "0x01",
                    "parentHash" : "0x02e9bc7e810de85cc5a46c86719ed17788226baa33f8990db91935b41cd37860",
                    "receiptTrie" : "0x00f7bb48be150ca342c52fb90585cdb6a3ee5c462fc7b1e0db5fcc520c60f8a0",
                    "stateRoot" : "0xcc6d427f2fc8e246cfe42a5c3f3445e6c7c68c40e16f8cf61e4caf3bc8bd30f0",
                    "timestamp" : "0x03e8",
                    "transactionsTrie" : "0x485235848937767e88e3d0e3cfb350168c1cb7174d47e618db6e9d0bea104361",
                    "uncleHash" : "0x1dcc4de8dec75d7aab85b567b6ccd41ad312451b948a7413f0a142fd40d49347"
                },
                "rlp" : "0xf90323f901fea002e9bc7e810de85cc5a46c86719ed17788226baa33f8990db91935b41cd37860a01dcc4de8dec75d7aab85b567b6ccd41ad312451b948a7413f0a142fd40d4934794945304eb96065b2a98b57a48a06ae28d285a71b5a0cc6d427f2fc8e246cfe42a5c3f3445e6c7c68c40e16f8cf61e4caf3bc8bd30f0a0485235848937767e88e3d0e3cfb350168c1cb7174d47e618db6e9d0bea104361a000f7bb48be150ca342c52fb90585cdb6a3ee5c462fc7b1e0db5fcc520c60f8a0b90100000000000000000000000000000000000000000000000000000000000000000000000000000000000000000000000000000000000000000000000000000000000000000000000000000000000000000000000000000000000000000000000000000000000000000000000000000000000000000000000000000000000000000000000000000000000000000000000000000000000000000000000000000000000000000000000000000000000000000000000000000000000000000000000000000000000000000000000000000000000000000000000000000000000000000000000000000000000000000000000000000000000000000000000000000000008302000001887fffffffffffffff842fc0c45a8203e880a07daabb9d86c5e36e63c9241df0216b8a2e8086bd392ce5053c0d10da934e91ef883106a0a7fcc78bc6f9011ef9011b8001842fc0c45a94095e7baea6a6c7c4c2dfeb977efac326af552d878455500ee3b8b57ffffffffffffffffffffffffffffffffffffffffffffffffffffffffffffffffe7f0000000000000000000000000000000000000000000000000000000000000000557f00000000000000000000000000000000000000000000000000000000000000007f0000000000000000000000000000000000000000000000000000000000000000557f000000000000000000000000945304eb96065b2a98b57a48a06ae28d285a71b50a84339188646595668352a061851ca0e88cdb515d40a067fa1c905ecd0d1734d3b954bc4c506c070f7982456bcfe029a059a0507018dac72953baffdad53d4c43c053470efd41abb292a9e4c748d078b0c0",
                "transactions" : [
                    {
                        "data" : "0x7ffffffffffffffffffffffffffffffffffffffffffffffffffffffffffffffffe7f0000000000000000000000000000000000000000000000000000000000000000557f00000000000000000000000000000000000000000000000000000000000000007f0000000000000000000000000000000000000000000000000000000000000000557f000000000000000000000000945304eb96065b2a98b57a48a06ae28d285a71b50a84339188646595668352a06185",
                        "gasLimit" : "0x2fc0c45a",
                        "gasPrice" : "0x01",
                        "nonce" : "0x00",
                        "r" : "0xe88cdb515d40a067fa1c905ecd0d1734d3b954bc4c506c070f7982456bcfe029",
                        "s" : "0x59a0507018dac72953baffdad53d4c43c053470efd41abb292a9e4c748d078b0",
                        "to" : "0x095e7baea6a6c7c4c2dfeb977efac326af552d87",
                        "v" : "0x1c",
                        "value" : "0x55500ee3"
                    }
                ],
                "uncleHeaders" : [
                ]
            }
        ],
        "genesisBlockHeader" : {
            "bloom" : "0x00000000000000000000000000000000000000000000000000000000000000000000000000000000000000000000000000000000000000000000000000000000000000000000000000000000000000000000000000000000000000000000000000000000000000000000000000000000000000000000000000000000000000000000000000000000000000000000000000000000000000000000000000000000000000000000000000000000000000000000000000000000000000000000000000000000000000000000000000000000000000000000000000000000000000000000000000000000000000000000000000000000000000000000000000000000",
            "coinbase" : "0x945304eb96065b2a98b57a48a06ae28d285a71b5",
            "difficulty" : "0x020000",
            "extraData" : "0x42",
            "gasLimit" : "0x7fffffffffffffff",
            "gasUsed" : "0x00",
            "hash" : "0x02e9bc7e810de85cc5a46c86719ed17788226baa33f8990db91935b41cd37860",
            "mixHash" : "0x56e81f171bcc55a6ff8345e692c0f86e5b48e01b996cadc001622fb5e363b421",
            "nonce" : "0x0102030405060708",
            "number" : "0x00",
            "parentHash" : "0x0000000000000000000000000000000000000000000000000000000000000000",
            "receiptTrie" : "0x56e81f171bcc55a6ff8345e692c0f86e5b48e01b996cadc001622fb5e363b421",
            "stateRoot" : "0x511c18576c7472f78982a01f10b7932a393b33468b718a22203034b79f732afa",
            "timestamp" : "0x03b6",
            "transactionsTrie" : "0x56e81f171bcc55a6ff8345e692c0f86e5b48e01b996cadc001622fb5e363b421",
            "uncleHash" : "0x1dcc4de8dec75d7aab85b567b6ccd41ad312451b948a7413f0a142fd40d49347"
        },
        "genesisRLP" : "0xf901fff901faa00000000000000000000000000000000000000000000000000000000000000000a01dcc4de8dec75d7aab85b567b6ccd41ad312451b948a7413f0a142fd40d4934794945304eb96065b2a98b57a48a06ae28d285a71b5a0511c18576c7472f78982a01f10b7932a393b33468b718a22203034b79f732afaa056e81f171bcc55a6ff8345e692c0f86e5b48e01b996cadc001622fb5e363b421a056e81f171bcc55a6ff8345e692c0f86e5b48e01b996cadc001622fb5e363b421b90100000000000000000000000000000000000000000000000000000000000000000000000000000000000000000000000000000000000000000000000000000000000000000000000000000000000000000000000000000000000000000000000000000000000000000000000000000000000000000000000000000000000000000000000000000000000000000000000000000000000000000000000000000000000000000000000000000000000000000000000000000000000000000000000000000000000000000000000000000000000000000000000000000000000000000000000000000000000000000000000000000000000000000000000000000000008302000080887fffffffffffffff808203b642a056e81f171bcc55a6ff8345e692c0f86e5b48e01b996cadc001622fb5e363b421880102030405060708c0c0",
        "lastblockhash" : "0xdd3d7faa513d1aaa68f7f40c9a0f69afdf88bd5bf087cb70c054b7d56a7eab62",
        "network" : "EIP150",
        "postState" : {
            "0x095e7baea6a6c7c4c2dfeb977efac326af552d87" : {
                "balance" : "0x00",
                "code" : "0x7ffffffffffffffffffffffffffffffffffffffffffffffffffffffffffffffffe7f0000000000000000000000000000000000000000000000000000000000000000557f00000000000000000000000000000000000000000000000000000000000000007f0000000000000000000000000000000000000000000000000000000000000000557f000000000000000000000000945304eb96065b2a98b57a48a06ae28d285a71b50a84339188646595668352a061855560005155",
                "nonce" : "0x00",
                "storage" : {
                }
            },
            "0x945304eb96065b2a98b57a48a06ae28d285a71b5" : {
                "balance" : "0x4563918274b4c488",
                "code" : "0x6000355415600957005b60203560003555",
                "nonce" : "0x00",
                "storage" : {
                }
            },
            "0xa94f5374fce5edbc8e2a8697c15331677e6ebf0b" : {
                "balance" : "0x0de0b6b377a33ba6",
                "code" : "",
                "nonce" : "0x01",
                "storage" : {
                }
            }
        },
        "pre" : {
            "0x095e7baea6a6c7c4c2dfeb977efac326af552d87" : {
                "balance" : "0x00",
                "code" : "0x7ffffffffffffffffffffffffffffffffffffffffffffffffffffffffffffffffe7f0000000000000000000000000000000000000000000000000000000000000000557f00000000000000000000000000000000000000000000000000000000000000007f0000000000000000000000000000000000000000000000000000000000000000557f000000000000000000000000945304eb96065b2a98b57a48a06ae28d285a71b50a84339188646595668352a061855560005155",
                "nonce" : "0x00",
                "storage" : {
                }
            },
            "0x945304eb96065b2a98b57a48a06ae28d285a71b5" : {
                "balance" : "0x2e",
                "code" : "0x6000355415600957005b60203560003555",
                "nonce" : "0x00",
                "storage" : {
                }
            },
            "0xa94f5374fce5edbc8e2a8697c15331677e6ebf0b" : {
                "balance" : "0x0de0b6b3a7640000",
                "code" : "",
                "nonce" : "0x00",
                "storage" : {
                }
            }
        }
    },
    "randomStatetest454_d0g0v0_EIP158" : {
        "blocks" : [
            {
                "blockHeader" : {
                    "bloom" : "0x00000000000000000000000000000000000000000000000000000000000000000000000000000000000000000000000000000000000000000000000000000000000000000000000000000000000000000000000000000000000000000000000000000000000000000000000000000000000000000000000000000000000000000000000000000000000000000000000000000000000000000000000000000000000000000000000000000000000000000000000000000000000000000000000000000000000000000000000000000000000000000000000000000000000000000000000000000000000000000000000000000000000000000000000000000000",
                    "coinbase" : "0x945304eb96065b2a98b57a48a06ae28d285a71b5",
                    "difficulty" : "0x020000",
                    "extraData" : "",
                    "gasLimit" : "0x7fffffffffffffff",
                    "gasUsed" : "0x2fc0c45a",
                    "hash" : "0x002712dd4c3552f0d4d40cfe0a7b9b07d9c5b26dc60b69de4d9f2ef78ad57eaa",
                    "mixHash" : "0xa91cfbc0a0ce9a7a6b378b8960311ecdb3b135eaceced56428111fe370993ee5",
                    "nonce" : "0x8f86b446015d7431",
                    "number" : "0x01",
                    "parentHash" : "0x02e9bc7e810de85cc5a46c86719ed17788226baa33f8990db91935b41cd37860",
                    "receiptTrie" : "0x00f7bb48be150ca342c52fb90585cdb6a3ee5c462fc7b1e0db5fcc520c60f8a0",
                    "stateRoot" : "0xcc6d427f2fc8e246cfe42a5c3f3445e6c7c68c40e16f8cf61e4caf3bc8bd30f0",
                    "timestamp" : "0x03e8",
                    "transactionsTrie" : "0x485235848937767e88e3d0e3cfb350168c1cb7174d47e618db6e9d0bea104361",
                    "uncleHash" : "0x1dcc4de8dec75d7aab85b567b6ccd41ad312451b948a7413f0a142fd40d49347"
                },
                "rlp" : "0xf90323f901fea002e9bc7e810de85cc5a46c86719ed17788226baa33f8990db91935b41cd37860a01dcc4de8dec75d7aab85b567b6ccd41ad312451b948a7413f0a142fd40d4934794945304eb96065b2a98b57a48a06ae28d285a71b5a0cc6d427f2fc8e246cfe42a5c3f3445e6c7c68c40e16f8cf61e4caf3bc8bd30f0a0485235848937767e88e3d0e3cfb350168c1cb7174d47e618db6e9d0bea104361a000f7bb48be150ca342c52fb90585cdb6a3ee5c462fc7b1e0db5fcc520c60f8a0b90100000000000000000000000000000000000000000000000000000000000000000000000000000000000000000000000000000000000000000000000000000000000000000000000000000000000000000000000000000000000000000000000000000000000000000000000000000000000000000000000000000000000000000000000000000000000000000000000000000000000000000000000000000000000000000000000000000000000000000000000000000000000000000000000000000000000000000000000000000000000000000000000000000000000000000000000000000000000000000000000000000000000000000000000000000000008302000001887fffffffffffffff842fc0c45a8203e880a0a91cfbc0a0ce9a7a6b378b8960311ecdb3b135eaceced56428111fe370993ee5888f86b446015d7431f9011ef9011b8001842fc0c45a94095e7baea6a6c7c4c2dfeb977efac326af552d878455500ee3b8b57ffffffffffffffffffffffffffffffffffffffffffffffffffffffffffffffffe7f0000000000000000000000000000000000000000000000000000000000000000557f00000000000000000000000000000000000000000000000000000000000000007f0000000000000000000000000000000000000000000000000000000000000000557f000000000000000000000000945304eb96065b2a98b57a48a06ae28d285a71b50a84339188646595668352a061851ca0e88cdb515d40a067fa1c905ecd0d1734d3b954bc4c506c070f7982456bcfe029a059a0507018dac72953baffdad53d4c43c053470efd41abb292a9e4c748d078b0c0",
                "transactions" : [
                    {
                        "data" : "0x7ffffffffffffffffffffffffffffffffffffffffffffffffffffffffffffffffe7f0000000000000000000000000000000000000000000000000000000000000000557f00000000000000000000000000000000000000000000000000000000000000007f0000000000000000000000000000000000000000000000000000000000000000557f000000000000000000000000945304eb96065b2a98b57a48a06ae28d285a71b50a84339188646595668352a06185",
                        "gasLimit" : "0x2fc0c45a",
                        "gasPrice" : "0x01",
                        "nonce" : "0x00",
                        "r" : "0xe88cdb515d40a067fa1c905ecd0d1734d3b954bc4c506c070f7982456bcfe029",
                        "s" : "0x59a0507018dac72953baffdad53d4c43c053470efd41abb292a9e4c748d078b0",
                        "to" : "0x095e7baea6a6c7c4c2dfeb977efac326af552d87",
                        "v" : "0x1c",
                        "value" : "0x55500ee3"
                    }
                ],
                "uncleHeaders" : [
                ]
            }
        ],
        "genesisBlockHeader" : {
            "bloom" : "0x00000000000000000000000000000000000000000000000000000000000000000000000000000000000000000000000000000000000000000000000000000000000000000000000000000000000000000000000000000000000000000000000000000000000000000000000000000000000000000000000000000000000000000000000000000000000000000000000000000000000000000000000000000000000000000000000000000000000000000000000000000000000000000000000000000000000000000000000000000000000000000000000000000000000000000000000000000000000000000000000000000000000000000000000000000000",
            "coinbase" : "0x945304eb96065b2a98b57a48a06ae28d285a71b5",
            "difficulty" : "0x020000",
            "extraData" : "0x42",
            "gasLimit" : "0x7fffffffffffffff",
            "gasUsed" : "0x00",
            "hash" : "0x02e9bc7e810de85cc5a46c86719ed17788226baa33f8990db91935b41cd37860",
            "mixHash" : "0x56e81f171bcc55a6ff8345e692c0f86e5b48e01b996cadc001622fb5e363b421",
            "nonce" : "0x0102030405060708",
            "number" : "0x00",
            "parentHash" : "0x0000000000000000000000000000000000000000000000000000000000000000",
            "receiptTrie" : "0x56e81f171bcc55a6ff8345e692c0f86e5b48e01b996cadc001622fb5e363b421",
            "stateRoot" : "0x511c18576c7472f78982a01f10b7932a393b33468b718a22203034b79f732afa",
            "timestamp" : "0x03b6",
            "transactionsTrie" : "0x56e81f171bcc55a6ff8345e692c0f86e5b48e01b996cadc001622fb5e363b421",
            "uncleHash" : "0x1dcc4de8dec75d7aab85b567b6ccd41ad312451b948a7413f0a142fd40d49347"
        },
        "genesisRLP" : "0xf901fff901faa00000000000000000000000000000000000000000000000000000000000000000a01dcc4de8dec75d7aab85b567b6ccd41ad312451b948a7413f0a142fd40d4934794945304eb96065b2a98b57a48a06ae28d285a71b5a0511c18576c7472f78982a01f10b7932a393b33468b718a22203034b79f732afaa056e81f171bcc55a6ff8345e692c0f86e5b48e01b996cadc001622fb5e363b421a056e81f171bcc55a6ff8345e692c0f86e5b48e01b996cadc001622fb5e363b421b90100000000000000000000000000000000000000000000000000000000000000000000000000000000000000000000000000000000000000000000000000000000000000000000000000000000000000000000000000000000000000000000000000000000000000000000000000000000000000000000000000000000000000000000000000000000000000000000000000000000000000000000000000000000000000000000000000000000000000000000000000000000000000000000000000000000000000000000000000000000000000000000000000000000000000000000000000000000000000000000000000000000000000000000000000000000008302000080887fffffffffffffff808203b642a056e81f171bcc55a6ff8345e692c0f86e5b48e01b996cadc001622fb5e363b421880102030405060708c0c0",
        "lastblockhash" : "0x002712dd4c3552f0d4d40cfe0a7b9b07d9c5b26dc60b69de4d9f2ef78ad57eaa",
        "network" : "EIP158",
        "postState" : {
            "0x095e7baea6a6c7c4c2dfeb977efac326af552d87" : {
                "balance" : "0x00",
                "code" : "0x7ffffffffffffffffffffffffffffffffffffffffffffffffffffffffffffffffe7f0000000000000000000000000000000000000000000000000000000000000000557f00000000000000000000000000000000000000000000000000000000000000007f0000000000000000000000000000000000000000000000000000000000000000557f000000000000000000000000945304eb96065b2a98b57a48a06ae28d285a71b50a84339188646595668352a061855560005155",
                "nonce" : "0x00",
                "storage" : {
                }
            },
            "0x945304eb96065b2a98b57a48a06ae28d285a71b5" : {
                "balance" : "0x4563918274b4c488",
                "code" : "0x6000355415600957005b60203560003555",
                "nonce" : "0x00",
                "storage" : {
                }
            },
            "0xa94f5374fce5edbc8e2a8697c15331677e6ebf0b" : {
                "balance" : "0x0de0b6b377a33ba6",
                "code" : "",
                "nonce" : "0x01",
                "storage" : {
                }
            }
        },
        "pre" : {
            "0x095e7baea6a6c7c4c2dfeb977efac326af552d87" : {
                "balance" : "0x00",
                "code" : "0x7ffffffffffffffffffffffffffffffffffffffffffffffffffffffffffffffffe7f0000000000000000000000000000000000000000000000000000000000000000557f00000000000000000000000000000000000000000000000000000000000000007f0000000000000000000000000000000000000000000000000000000000000000557f000000000000000000000000945304eb96065b2a98b57a48a06ae28d285a71b50a84339188646595668352a061855560005155",
                "nonce" : "0x00",
                "storage" : {
                }
            },
            "0x945304eb96065b2a98b57a48a06ae28d285a71b5" : {
                "balance" : "0x2e",
                "code" : "0x6000355415600957005b60203560003555",
                "nonce" : "0x00",
                "storage" : {
                }
            },
            "0xa94f5374fce5edbc8e2a8697c15331677e6ebf0b" : {
                "balance" : "0x0de0b6b3a7640000",
                "code" : "",
                "nonce" : "0x00",
                "storage" : {
                }
            }
        }
    },
    "randomStatetest454_d0g0v0_Frontier" : {
        "blocks" : [
            {
                "blockHeader" : {
                    "bloom" : "0x00000000000000000000000000000000000000000000000000000000000000000000000000000000000000000000000000000000000000000000000000000000000000000000000000000000000000000000000000000000000000000000000000000000000000000000000000000000000000000000000000000000000000000000000000000000000000000000000000000000000000000000000000000000000000000000000000000000000000000000000000000000000000000000000000000000000000000000000000000000000000000000000000000000000000000000000000000000000000000000000000000000000000000000000000000000",
                    "coinbase" : "0x945304eb96065b2a98b57a48a06ae28d285a71b5",
                    "difficulty" : "0x020000",
                    "extraData" : "",
                    "gasLimit" : "0x7fffffffffffffff",
                    "gasUsed" : "0x2fc0c45a",
                    "hash" : "0xa9565903b8257d7fe721eb155961ce0f0a370c915e541d3fe7356e5cd0372e9d",
                    "mixHash" : "0x5fb1442833c03eb3da1cdf1dccb357ddb49b8d26fa71cffb9cf51df93416cc29",
                    "nonce" : "0x8270bd250c8fb54a",
                    "number" : "0x01",
                    "parentHash" : "0x02e9bc7e810de85cc5a46c86719ed17788226baa33f8990db91935b41cd37860",
                    "receiptTrie" : "0x00f7bb48be150ca342c52fb90585cdb6a3ee5c462fc7b1e0db5fcc520c60f8a0",
                    "stateRoot" : "0xcc6d427f2fc8e246cfe42a5c3f3445e6c7c68c40e16f8cf61e4caf3bc8bd30f0",
                    "timestamp" : "0x03e8",
                    "transactionsTrie" : "0x485235848937767e88e3d0e3cfb350168c1cb7174d47e618db6e9d0bea104361",
                    "uncleHash" : "0x1dcc4de8dec75d7aab85b567b6ccd41ad312451b948a7413f0a142fd40d49347"
                },
                "rlp" : "0xf90323f901fea002e9bc7e810de85cc5a46c86719ed17788226baa33f8990db91935b41cd37860a01dcc4de8dec75d7aab85b567b6ccd41ad312451b948a7413f0a142fd40d4934794945304eb96065b2a98b57a48a06ae28d285a71b5a0cc6d427f2fc8e246cfe42a5c3f3445e6c7c68c40e16f8cf61e4caf3bc8bd30f0a0485235848937767e88e3d0e3cfb350168c1cb7174d47e618db6e9d0bea104361a000f7bb48be150ca342c52fb90585cdb6a3ee5c462fc7b1e0db5fcc520c60f8a0b90100000000000000000000000000000000000000000000000000000000000000000000000000000000000000000000000000000000000000000000000000000000000000000000000000000000000000000000000000000000000000000000000000000000000000000000000000000000000000000000000000000000000000000000000000000000000000000000000000000000000000000000000000000000000000000000000000000000000000000000000000000000000000000000000000000000000000000000000000000000000000000000000000000000000000000000000000000000000000000000000000000000000000000000000000000000008302000001887fffffffffffffff842fc0c45a8203e880a05fb1442833c03eb3da1cdf1dccb357ddb49b8d26fa71cffb9cf51df93416cc29888270bd250c8fb54af9011ef9011b8001842fc0c45a94095e7baea6a6c7c4c2dfeb977efac326af552d878455500ee3b8b57ffffffffffffffffffffffffffffffffffffffffffffffffffffffffffffffffe7f0000000000000000000000000000000000000000000000000000000000000000557f00000000000000000000000000000000000000000000000000000000000000007f0000000000000000000000000000000000000000000000000000000000000000557f000000000000000000000000945304eb96065b2a98b57a48a06ae28d285a71b50a84339188646595668352a061851ca0e88cdb515d40a067fa1c905ecd0d1734d3b954bc4c506c070f7982456bcfe029a059a0507018dac72953baffdad53d4c43c053470efd41abb292a9e4c748d078b0c0",
                "transactions" : [
                    {
                        "data" : "0x7ffffffffffffffffffffffffffffffffffffffffffffffffffffffffffffffffe7f0000000000000000000000000000000000000000000000000000000000000000557f00000000000000000000000000000000000000000000000000000000000000007f0000000000000000000000000000000000000000000000000000000000000000557f000000000000000000000000945304eb96065b2a98b57a48a06ae28d285a71b50a84339188646595668352a06185",
                        "gasLimit" : "0x2fc0c45a",
                        "gasPrice" : "0x01",
                        "nonce" : "0x00",
                        "r" : "0xe88cdb515d40a067fa1c905ecd0d1734d3b954bc4c506c070f7982456bcfe029",
                        "s" : "0x59a0507018dac72953baffdad53d4c43c053470efd41abb292a9e4c748d078b0",
                        "to" : "0x095e7baea6a6c7c4c2dfeb977efac326af552d87",
                        "v" : "0x1c",
                        "value" : "0x55500ee3"
                    }
                ],
                "uncleHeaders" : [
                ]
            }
        ],
        "genesisBlockHeader" : {
            "bloom" : "0x00000000000000000000000000000000000000000000000000000000000000000000000000000000000000000000000000000000000000000000000000000000000000000000000000000000000000000000000000000000000000000000000000000000000000000000000000000000000000000000000000000000000000000000000000000000000000000000000000000000000000000000000000000000000000000000000000000000000000000000000000000000000000000000000000000000000000000000000000000000000000000000000000000000000000000000000000000000000000000000000000000000000000000000000000000000",
            "coinbase" : "0x945304eb96065b2a98b57a48a06ae28d285a71b5",
            "difficulty" : "0x020000",
            "extraData" : "0x42",
            "gasLimit" : "0x7fffffffffffffff",
            "gasUsed" : "0x00",
            "hash" : "0x02e9bc7e810de85cc5a46c86719ed17788226baa33f8990db91935b41cd37860",
            "mixHash" : "0x56e81f171bcc55a6ff8345e692c0f86e5b48e01b996cadc001622fb5e363b421",
            "nonce" : "0x0102030405060708",
            "number" : "0x00",
            "parentHash" : "0x0000000000000000000000000000000000000000000000000000000000000000",
            "receiptTrie" : "0x56e81f171bcc55a6ff8345e692c0f86e5b48e01b996cadc001622fb5e363b421",
            "stateRoot" : "0x511c18576c7472f78982a01f10b7932a393b33468b718a22203034b79f732afa",
            "timestamp" : "0x03b6",
            "transactionsTrie" : "0x56e81f171bcc55a6ff8345e692c0f86e5b48e01b996cadc001622fb5e363b421",
            "uncleHash" : "0x1dcc4de8dec75d7aab85b567b6ccd41ad312451b948a7413f0a142fd40d49347"
        },
        "genesisRLP" : "0xf901fff901faa00000000000000000000000000000000000000000000000000000000000000000a01dcc4de8dec75d7aab85b567b6ccd41ad312451b948a7413f0a142fd40d4934794945304eb96065b2a98b57a48a06ae28d285a71b5a0511c18576c7472f78982a01f10b7932a393b33468b718a22203034b79f732afaa056e81f171bcc55a6ff8345e692c0f86e5b48e01b996cadc001622fb5e363b421a056e81f171bcc55a6ff8345e692c0f86e5b48e01b996cadc001622fb5e363b421b90100000000000000000000000000000000000000000000000000000000000000000000000000000000000000000000000000000000000000000000000000000000000000000000000000000000000000000000000000000000000000000000000000000000000000000000000000000000000000000000000000000000000000000000000000000000000000000000000000000000000000000000000000000000000000000000000000000000000000000000000000000000000000000000000000000000000000000000000000000000000000000000000000000000000000000000000000000000000000000000000000000000000000000000000000000000008302000080887fffffffffffffff808203b642a056e81f171bcc55a6ff8345e692c0f86e5b48e01b996cadc001622fb5e363b421880102030405060708c0c0",
        "lastblockhash" : "0xa9565903b8257d7fe721eb155961ce0f0a370c915e541d3fe7356e5cd0372e9d",
        "network" : "Frontier",
        "postState" : {
            "0x095e7baea6a6c7c4c2dfeb977efac326af552d87" : {
                "balance" : "0x00",
                "code" : "0x7ffffffffffffffffffffffffffffffffffffffffffffffffffffffffffffffffe7f0000000000000000000000000000000000000000000000000000000000000000557f00000000000000000000000000000000000000000000000000000000000000007f0000000000000000000000000000000000000000000000000000000000000000557f000000000000000000000000945304eb96065b2a98b57a48a06ae28d285a71b50a84339188646595668352a061855560005155",
                "nonce" : "0x00",
                "storage" : {
                }
            },
            "0x945304eb96065b2a98b57a48a06ae28d285a71b5" : {
                "balance" : "0x4563918274b4c488",
                "code" : "0x6000355415600957005b60203560003555",
                "nonce" : "0x00",
                "storage" : {
                }
            },
            "0xa94f5374fce5edbc8e2a8697c15331677e6ebf0b" : {
                "balance" : "0x0de0b6b377a33ba6",
                "code" : "",
                "nonce" : "0x01",
                "storage" : {
                }
            }
        },
        "pre" : {
            "0x095e7baea6a6c7c4c2dfeb977efac326af552d87" : {
                "balance" : "0x00",
                "code" : "0x7ffffffffffffffffffffffffffffffffffffffffffffffffffffffffffffffffe7f0000000000000000000000000000000000000000000000000000000000000000557f00000000000000000000000000000000000000000000000000000000000000007f0000000000000000000000000000000000000000000000000000000000000000557f000000000000000000000000945304eb96065b2a98b57a48a06ae28d285a71b50a84339188646595668352a061855560005155",
                "nonce" : "0x00",
                "storage" : {
                }
            },
            "0x945304eb96065b2a98b57a48a06ae28d285a71b5" : {
                "balance" : "0x2e",
                "code" : "0x6000355415600957005b60203560003555",
                "nonce" : "0x00",
                "storage" : {
                }
            },
            "0xa94f5374fce5edbc8e2a8697c15331677e6ebf0b" : {
                "balance" : "0x0de0b6b3a7640000",
                "code" : "",
                "nonce" : "0x00",
                "storage" : {
                }
            }
        }
    },
    "randomStatetest454_d0g0v0_Homestead" : {
        "blocks" : [
            {
                "blockHeader" : {
                    "bloom" : "0x00000000000000000000000000000000000000000000000000000000000000000000000000000000000000000000000000000000000000000000000000000000000000000000000000000000000000000000000000000000000000000000000000000000000000000000000000000000000000000000000000000000000000000000000000000000000000000000000000000000000000000000000000000000000000000000000000000000000000000000000000000000000000000000000000000000000000000000000000000000000000000000000000000000000000000000000000000000000000000000000000000000000000000000000000000000",
                    "coinbase" : "0x945304eb96065b2a98b57a48a06ae28d285a71b5",
                    "difficulty" : "0x020000",
                    "extraData" : "",
                    "gasLimit" : "0x7fffffffffffffff",
                    "gasUsed" : "0x2fc0c45a",
                    "hash" : "0xe25d5ec98dabcc04dfae8bf05e05375932ab777b07ae3d4addc693c7bfa863c4",
                    "mixHash" : "0xa82a315e7996ff369a0be8825e9c336168a0d5fa92d7184e6da3f7dbc0806b57",
                    "nonce" : "0x5bfa4365ed695fdd",
                    "number" : "0x01",
                    "parentHash" : "0x02e9bc7e810de85cc5a46c86719ed17788226baa33f8990db91935b41cd37860",
                    "receiptTrie" : "0x00f7bb48be150ca342c52fb90585cdb6a3ee5c462fc7b1e0db5fcc520c60f8a0",
                    "stateRoot" : "0xcc6d427f2fc8e246cfe42a5c3f3445e6c7c68c40e16f8cf61e4caf3bc8bd30f0",
                    "timestamp" : "0x03e8",
                    "transactionsTrie" : "0x485235848937767e88e3d0e3cfb350168c1cb7174d47e618db6e9d0bea104361",
                    "uncleHash" : "0x1dcc4de8dec75d7aab85b567b6ccd41ad312451b948a7413f0a142fd40d49347"
                },
                "rlp" : "0xf90323f901fea002e9bc7e810de85cc5a46c86719ed17788226baa33f8990db91935b41cd37860a01dcc4de8dec75d7aab85b567b6ccd41ad312451b948a7413f0a142fd40d4934794945304eb96065b2a98b57a48a06ae28d285a71b5a0cc6d427f2fc8e246cfe42a5c3f3445e6c7c68c40e16f8cf61e4caf3bc8bd30f0a0485235848937767e88e3d0e3cfb350168c1cb7174d47e618db6e9d0bea104361a000f7bb48be150ca342c52fb90585cdb6a3ee5c462fc7b1e0db5fcc520c60f8a0b90100000000000000000000000000000000000000000000000000000000000000000000000000000000000000000000000000000000000000000000000000000000000000000000000000000000000000000000000000000000000000000000000000000000000000000000000000000000000000000000000000000000000000000000000000000000000000000000000000000000000000000000000000000000000000000000000000000000000000000000000000000000000000000000000000000000000000000000000000000000000000000000000000000000000000000000000000000000000000000000000000000000000000000000000000000000008302000001887fffffffffffffff842fc0c45a8203e880a0a82a315e7996ff369a0be8825e9c336168a0d5fa92d7184e6da3f7dbc0806b57885bfa4365ed695fddf9011ef9011b8001842fc0c45a94095e7baea6a6c7c4c2dfeb977efac326af552d878455500ee3b8b57ffffffffffffffffffffffffffffffffffffffffffffffffffffffffffffffffe7f0000000000000000000000000000000000000000000000000000000000000000557f00000000000000000000000000000000000000000000000000000000000000007f0000000000000000000000000000000000000000000000000000000000000000557f000000000000000000000000945304eb96065b2a98b57a48a06ae28d285a71b50a84339188646595668352a061851ca0e88cdb515d40a067fa1c905ecd0d1734d3b954bc4c506c070f7982456bcfe029a059a0507018dac72953baffdad53d4c43c053470efd41abb292a9e4c748d078b0c0",
                "transactions" : [
                    {
                        "data" : "0x7ffffffffffffffffffffffffffffffffffffffffffffffffffffffffffffffffe7f0000000000000000000000000000000000000000000000000000000000000000557f00000000000000000000000000000000000000000000000000000000000000007f0000000000000000000000000000000000000000000000000000000000000000557f000000000000000000000000945304eb96065b2a98b57a48a06ae28d285a71b50a84339188646595668352a06185",
                        "gasLimit" : "0x2fc0c45a",
                        "gasPrice" : "0x01",
                        "nonce" : "0x00",
                        "r" : "0xe88cdb515d40a067fa1c905ecd0d1734d3b954bc4c506c070f7982456bcfe029",
                        "s" : "0x59a0507018dac72953baffdad53d4c43c053470efd41abb292a9e4c748d078b0",
                        "to" : "0x095e7baea6a6c7c4c2dfeb977efac326af552d87",
                        "v" : "0x1c",
                        "value" : "0x55500ee3"
                    }
                ],
                "uncleHeaders" : [
                ]
            }
        ],
        "genesisBlockHeader" : {
            "bloom" : "0x00000000000000000000000000000000000000000000000000000000000000000000000000000000000000000000000000000000000000000000000000000000000000000000000000000000000000000000000000000000000000000000000000000000000000000000000000000000000000000000000000000000000000000000000000000000000000000000000000000000000000000000000000000000000000000000000000000000000000000000000000000000000000000000000000000000000000000000000000000000000000000000000000000000000000000000000000000000000000000000000000000000000000000000000000000000",
            "coinbase" : "0x945304eb96065b2a98b57a48a06ae28d285a71b5",
            "difficulty" : "0x020000",
            "extraData" : "0x42",
            "gasLimit" : "0x7fffffffffffffff",
            "gasUsed" : "0x00",
            "hash" : "0x02e9bc7e810de85cc5a46c86719ed17788226baa33f8990db91935b41cd37860",
            "mixHash" : "0x56e81f171bcc55a6ff8345e692c0f86e5b48e01b996cadc001622fb5e363b421",
            "nonce" : "0x0102030405060708",
            "number" : "0x00",
            "parentHash" : "0x0000000000000000000000000000000000000000000000000000000000000000",
            "receiptTrie" : "0x56e81f171bcc55a6ff8345e692c0f86e5b48e01b996cadc001622fb5e363b421",
            "stateRoot" : "0x511c18576c7472f78982a01f10b7932a393b33468b718a22203034b79f732afa",
            "timestamp" : "0x03b6",
            "transactionsTrie" : "0x56e81f171bcc55a6ff8345e692c0f86e5b48e01b996cadc001622fb5e363b421",
            "uncleHash" : "0x1dcc4de8dec75d7aab85b567b6ccd41ad312451b948a7413f0a142fd40d49347"
        },
        "genesisRLP" : "0xf901fff901faa00000000000000000000000000000000000000000000000000000000000000000a01dcc4de8dec75d7aab85b567b6ccd41ad312451b948a7413f0a142fd40d4934794945304eb96065b2a98b57a48a06ae28d285a71b5a0511c18576c7472f78982a01f10b7932a393b33468b718a22203034b79f732afaa056e81f171bcc55a6ff8345e692c0f86e5b48e01b996cadc001622fb5e363b421a056e81f171bcc55a6ff8345e692c0f86e5b48e01b996cadc001622fb5e363b421b90100000000000000000000000000000000000000000000000000000000000000000000000000000000000000000000000000000000000000000000000000000000000000000000000000000000000000000000000000000000000000000000000000000000000000000000000000000000000000000000000000000000000000000000000000000000000000000000000000000000000000000000000000000000000000000000000000000000000000000000000000000000000000000000000000000000000000000000000000000000000000000000000000000000000000000000000000000000000000000000000000000000000000000000000000000000008302000080887fffffffffffffff808203b642a056e81f171bcc55a6ff8345e692c0f86e5b48e01b996cadc001622fb5e363b421880102030405060708c0c0",
        "lastblockhash" : "0xe25d5ec98dabcc04dfae8bf05e05375932ab777b07ae3d4addc693c7bfa863c4",
        "network" : "Homestead",
        "postState" : {
            "0x095e7baea6a6c7c4c2dfeb977efac326af552d87" : {
                "balance" : "0x00",
                "code" : "0x7ffffffffffffffffffffffffffffffffffffffffffffffffffffffffffffffffe7f0000000000000000000000000000000000000000000000000000000000000000557f00000000000000000000000000000000000000000000000000000000000000007f0000000000000000000000000000000000000000000000000000000000000000557f000000000000000000000000945304eb96065b2a98b57a48a06ae28d285a71b50a84339188646595668352a061855560005155",
                "nonce" : "0x00",
                "storage" : {
                }
            },
            "0x945304eb96065b2a98b57a48a06ae28d285a71b5" : {
                "balance" : "0x4563918274b4c488",
                "code" : "0x6000355415600957005b60203560003555",
                "nonce" : "0x00",
                "storage" : {
                }
            },
            "0xa94f5374fce5edbc8e2a8697c15331677e6ebf0b" : {
                "balance" : "0x0de0b6b377a33ba6",
                "code" : "",
                "nonce" : "0x01",
                "storage" : {
                }
            }
        },
        "pre" : {
            "0x095e7baea6a6c7c4c2dfeb977efac326af552d87" : {
                "balance" : "0x00",
                "code" : "0x7ffffffffffffffffffffffffffffffffffffffffffffffffffffffffffffffffe7f0000000000000000000000000000000000000000000000000000000000000000557f00000000000000000000000000000000000000000000000000000000000000007f0000000000000000000000000000000000000000000000000000000000000000557f000000000000000000000000945304eb96065b2a98b57a48a06ae28d285a71b50a84339188646595668352a061855560005155",
                "nonce" : "0x00",
                "storage" : {
                }
            },
            "0x945304eb96065b2a98b57a48a06ae28d285a71b5" : {
                "balance" : "0x2e",
                "code" : "0x6000355415600957005b60203560003555",
                "nonce" : "0x00",
                "storage" : {
                }
            },
            "0xa94f5374fce5edbc8e2a8697c15331677e6ebf0b" : {
                "balance" : "0x0de0b6b3a7640000",
                "code" : "",
                "nonce" : "0x00",
                "storage" : {
                }
            }
        }
    },
    "randomStatetest454_d0g0v0_Metropolis" : {
        "blocks" : [
            {
                "blockHeader" : {
                    "bloom" : "0x00000000000000000000000000000000000000000000000000000000000000000000000000000000000000000000000000000000000000000000000000000000000000000000000000000000000000000000000000000000000000000000000000000000000000000000000000000000000000000000000000000000000000000000000000000000000000000000000000000000000000000000000000000000000000000000000000000000000000000000000000000000000000000000000000000000000000000000000000000000000000000000000000000000000000000000000000000000000000000000000000000000000000000000000000000000",
                    "coinbase" : "0x945304eb96065b2a98b57a48a06ae28d285a71b5",
                    "difficulty" : "0x020000",
                    "extraData" : "",
                    "gasLimit" : "0x7fffffffffffffff",
                    "gasUsed" : "0x2fc0c45a",
                    "hash" : "0xb8cafacb89dca676bbeb485834d71a64a31939ea6a8c5e5fa088281cba44a551",
                    "mixHash" : "0xeb3c57c6a096e892cd813c34aa506224ad1ce2063c8107cc7c489adaaaeeeaa8",
                    "nonce" : "0x890a16164685d264",
                    "number" : "0x01",
                    "parentHash" : "0x02e9bc7e810de85cc5a46c86719ed17788226baa33f8990db91935b41cd37860",
                    "receiptTrie" : "0x41cd443e49af8322231fc9da16b63799d30f540a7050c8275208d6b7fad0217a",
                    "stateRoot" : "0xb23323f9ee89474a82e6319b6083c758c6580480c8f0a05d4ec1884a478e5e16",
                    "timestamp" : "0x03e8",
                    "transactionsTrie" : "0x485235848937767e88e3d0e3cfb350168c1cb7174d47e618db6e9d0bea104361",
                    "uncleHash" : "0x1dcc4de8dec75d7aab85b567b6ccd41ad312451b948a7413f0a142fd40d49347"
                },
                "rlp" : "0xf90323f901fea002e9bc7e810de85cc5a46c86719ed17788226baa33f8990db91935b41cd37860a01dcc4de8dec75d7aab85b567b6ccd41ad312451b948a7413f0a142fd40d4934794945304eb96065b2a98b57a48a06ae28d285a71b5a0b23323f9ee89474a82e6319b6083c758c6580480c8f0a05d4ec1884a478e5e16a0485235848937767e88e3d0e3cfb350168c1cb7174d47e618db6e9d0bea104361a041cd443e49af8322231fc9da16b63799d30f540a7050c8275208d6b7fad0217ab90100000000000000000000000000000000000000000000000000000000000000000000000000000000000000000000000000000000000000000000000000000000000000000000000000000000000000000000000000000000000000000000000000000000000000000000000000000000000000000000000000000000000000000000000000000000000000000000000000000000000000000000000000000000000000000000000000000000000000000000000000000000000000000000000000000000000000000000000000000000000000000000000000000000000000000000000000000000000000000000000000000000000000000000000000000000008302000001887fffffffffffffff842fc0c45a8203e880a0eb3c57c6a096e892cd813c34aa506224ad1ce2063c8107cc7c489adaaaeeeaa888890a16164685d264f9011ef9011b8001842fc0c45a94095e7baea6a6c7c4c2dfeb977efac326af552d878455500ee3b8b57ffffffffffffffffffffffffffffffffffffffffffffffffffffffffffffffffe7f0000000000000000000000000000000000000000000000000000000000000000557f00000000000000000000000000000000000000000000000000000000000000007f0000000000000000000000000000000000000000000000000000000000000000557f000000000000000000000000945304eb96065b2a98b57a48a06ae28d285a71b50a84339188646595668352a061851ca0e88cdb515d40a067fa1c905ecd0d1734d3b954bc4c506c070f7982456bcfe029a059a0507018dac72953baffdad53d4c43c053470efd41abb292a9e4c748d078b0c0",
                "transactions" : [
                    {
                        "data" : "0x7ffffffffffffffffffffffffffffffffffffffffffffffffffffffffffffffffe7f0000000000000000000000000000000000000000000000000000000000000000557f00000000000000000000000000000000000000000000000000000000000000007f0000000000000000000000000000000000000000000000000000000000000000557f000000000000000000000000945304eb96065b2a98b57a48a06ae28d285a71b50a84339188646595668352a06185",
                        "gasLimit" : "0x2fc0c45a",
                        "gasPrice" : "0x01",
                        "nonce" : "0x00",
                        "r" : "0xe88cdb515d40a067fa1c905ecd0d1734d3b954bc4c506c070f7982456bcfe029",
                        "s" : "0x59a0507018dac72953baffdad53d4c43c053470efd41abb292a9e4c748d078b0",
                        "to" : "0x095e7baea6a6c7c4c2dfeb977efac326af552d87",
                        "v" : "0x1c",
                        "value" : "0x55500ee3"
                    }
                ],
                "uncleHeaders" : [
                ]
            }
        ],
        "genesisBlockHeader" : {
            "bloom" : "0x00000000000000000000000000000000000000000000000000000000000000000000000000000000000000000000000000000000000000000000000000000000000000000000000000000000000000000000000000000000000000000000000000000000000000000000000000000000000000000000000000000000000000000000000000000000000000000000000000000000000000000000000000000000000000000000000000000000000000000000000000000000000000000000000000000000000000000000000000000000000000000000000000000000000000000000000000000000000000000000000000000000000000000000000000000000",
            "coinbase" : "0x945304eb96065b2a98b57a48a06ae28d285a71b5",
            "difficulty" : "0x020000",
            "extraData" : "0x42",
            "gasLimit" : "0x7fffffffffffffff",
            "gasUsed" : "0x00",
            "hash" : "0x02e9bc7e810de85cc5a46c86719ed17788226baa33f8990db91935b41cd37860",
            "mixHash" : "0x56e81f171bcc55a6ff8345e692c0f86e5b48e01b996cadc001622fb5e363b421",
            "nonce" : "0x0102030405060708",
            "number" : "0x00",
            "parentHash" : "0x0000000000000000000000000000000000000000000000000000000000000000",
            "receiptTrie" : "0x56e81f171bcc55a6ff8345e692c0f86e5b48e01b996cadc001622fb5e363b421",
            "stateRoot" : "0x511c18576c7472f78982a01f10b7932a393b33468b718a22203034b79f732afa",
            "timestamp" : "0x03b6",
            "transactionsTrie" : "0x56e81f171bcc55a6ff8345e692c0f86e5b48e01b996cadc001622fb5e363b421",
            "uncleHash" : "0x1dcc4de8dec75d7aab85b567b6ccd41ad312451b948a7413f0a142fd40d49347"
        },
        "genesisRLP" : "0xf901fff901faa00000000000000000000000000000000000000000000000000000000000000000a01dcc4de8dec75d7aab85b567b6ccd41ad312451b948a7413f0a142fd40d4934794945304eb96065b2a98b57a48a06ae28d285a71b5a0511c18576c7472f78982a01f10b7932a393b33468b718a22203034b79f732afaa056e81f171bcc55a6ff8345e692c0f86e5b48e01b996cadc001622fb5e363b421a056e81f171bcc55a6ff8345e692c0f86e5b48e01b996cadc001622fb5e363b421b90100000000000000000000000000000000000000000000000000000000000000000000000000000000000000000000000000000000000000000000000000000000000000000000000000000000000000000000000000000000000000000000000000000000000000000000000000000000000000000000000000000000000000000000000000000000000000000000000000000000000000000000000000000000000000000000000000000000000000000000000000000000000000000000000000000000000000000000000000000000000000000000000000000000000000000000000000000000000000000000000000000000000000000000000000000000008302000080887fffffffffffffff808203b642a056e81f171bcc55a6ff8345e692c0f86e5b48e01b996cadc001622fb5e363b421880102030405060708c0c0",
        "lastblockhash" : "0xb8cafacb89dca676bbeb485834d71a64a31939ea6a8c5e5fa088281cba44a551",
        "network" : "Metropolis",
        "postState" : {
            "0x00000000000000000000000000000000000000f0" : {
                "balance" : "0x00",
                "code" : "",
                "nonce" : "0x00",
                "storage" : {
                }
            },
            "0x095e7baea6a6c7c4c2dfeb977efac326af552d87" : {
                "balance" : "0x00",
                "code" : "0x7ffffffffffffffffffffffffffffffffffffffffffffffffffffffffffffffffe7f0000000000000000000000000000000000000000000000000000000000000000557f00000000000000000000000000000000000000000000000000000000000000007f0000000000000000000000000000000000000000000000000000000000000000557f000000000000000000000000945304eb96065b2a98b57a48a06ae28d285a71b50a84339188646595668352a061855560005155",
                "nonce" : "0x00",
                "storage" : {
                }
            },
            "0x945304eb96065b2a98b57a48a06ae28d285a71b5" : {
                "balance" : "0x4563918274b4c488",
                "code" : "0x6000355415600957005b60203560003555",
                "nonce" : "0x00",
                "storage" : {
                }
            },
            "0xa94f5374fce5edbc8e2a8697c15331677e6ebf0b" : {
                "balance" : "0x0de0b6b377a33ba6",
                "code" : "",
                "nonce" : "0x01",
                "storage" : {
                }
            }
        },
        "pre" : {
            "0x095e7baea6a6c7c4c2dfeb977efac326af552d87" : {
                "balance" : "0x00",
                "code" : "0x7ffffffffffffffffffffffffffffffffffffffffffffffffffffffffffffffffe7f0000000000000000000000000000000000000000000000000000000000000000557f00000000000000000000000000000000000000000000000000000000000000007f0000000000000000000000000000000000000000000000000000000000000000557f000000000000000000000000945304eb96065b2a98b57a48a06ae28d285a71b50a84339188646595668352a061855560005155",
                "nonce" : "0x00",
                "storage" : {
                }
            },
            "0x945304eb96065b2a98b57a48a06ae28d285a71b5" : {
                "balance" : "0x2e",
                "code" : "0x6000355415600957005b60203560003555",
                "nonce" : "0x00",
                "storage" : {
                }
            },
            "0xa94f5374fce5edbc8e2a8697c15331677e6ebf0b" : {
                "balance" : "0x0de0b6b3a7640000",
                "code" : "",
                "nonce" : "0x00",
                "storage" : {
                }
            }
        }
    }
}