{
    "randomStatetest87_d0g0v0_ConstantinopleFix" : {
        "_info" : {
            "comment" : "",
            "filling-rpc-server" : "Geth-1.9.3-unstable-d5bd3838-20190830",
            "filling-tool-version" : "retesteth-0.0.1+commit.222e3073.Linux.g++",
            "lllcversion" : "Version: 0.5.0-develop.2019.8.22+commit.9709dfe0.Linux.g++",
            "source" : "src/GeneralStateTestsFiller/stRandom/randomStatetest87Filler.json",
            "sourceHash" : "ba81f1e4cda84f5f85a6bb069b31f24db0ea16e2f9199d74422f890a2a85920f"
        },
        "genesisBlockHeader" : {
            "bloom" : "0x00000000000000000000000000000000000000000000000000000000000000000000000000000000000000000000000000000000000000000000000000000000000000000000000000000000000000000000000000000000000000000000000000000000000000000000000000000000000000000000000000000000000000000000000000000000000000000000000000000000000000000000000000000000000000000000000000000000000000000000000000000000000000000000000000000000000000000000000000000000000000000000000000000000000000000000000000000000000000000000000000000000000000000000000000000000",
            "coinbase" : "0x945304eb96065b2a98b57a48a06ae28d285a71b5",
            "difficulty" : "0x20000",
            "extraData" : "0x00",
            "gasLimit" : "0x7fffffffffffffff",
            "gasUsed" : "0x0",
            "hash" : "0x07f737e6800550e9d1a5afc10273945e231915f9549aa7066fc8bad3975b9b0b",
            "mixHash" : "0x0000000000000000000000000000000000000000000000000000000000000000",
            "nonce" : "0x0000000000000000",
            "number" : "0x0",
            "parentHash" : "0x0000000000000000000000000000000000000000000000000000000000000000",
            "receiptTrie" : "0x56e81f171bcc55a6ff8345e692c0f86e5b48e01b996cadc001622fb5e363b421",
            "stateRoot" : "0xd82ba09f8434e12d006960c77b084c4210e966ab0f262a4cf2f19965d81f82bf",
            "timestamp" : "0x0",
            "transactionsTrie" : "0x56e81f171bcc55a6ff8345e692c0f86e5b48e01b996cadc001622fb5e363b421",
            "uncleHash" : "0x1dcc4de8dec75d7aab85b567b6ccd41ad312451b948a7413f0a142fd40d49347"
        },
        "pre" : {
            "0x095e7baea6a6c7c4c2dfeb977efac326af552d87" : {
                "balance" : "0x00",
                "code" : "0x7fffffffffffffffffffffffffffffffffffffffffffffffffffffffffffffffff7f00000000000000000000000000000000000000000000000000000000000000007f00000000000000000000000000000000000000000000000000000000000000007f00000000000000000000000100000000000000000000000000000000000000007f00000000000000000000000100000000000000000000000000000000000000005b7ffffffffffffffffffffffffffffffffffffffffffffffffffffffffffffffffe6f446e638e7e16736c030393727d74817460005155",
                "nonce" : "0x00",
                "storage" : {
                }
            },
            "0x945304eb96065b2a98b57a48a06ae28d285a71b5" : {
                "balance" : "0x2e",
                "code" : "0x6000355415600957005b60203560003555",
                "nonce" : "0x00",
                "storage" : {
                }
            },
            "0xa94f5374fce5edbc8e2a8697c15331677e6ebf0b" : {
                "balance" : "0x0de0b6b3a7640000",
                "code" : "0x",
                "nonce" : "0x00",
                "storage" : {
                }
            }
        },
        "postState" : {
            "0xa94f5374fce5edbc8e2a8697c15331677e6ebf0b" : {
                "code" : "0x",
                "nonce" : "0x01",
                "balance" : "0x0de0b6b32c44e810",
                "storage" : {
                }
            },
            "0x095e7baea6a6c7c4c2dfeb977efac326af552d87" : {
                "code" : "0x7fffffffffffffffffffffffffffffffffffffffffffffffffffffffffffffffff7f00000000000000000000000000000000000000000000000000000000000000007f00000000000000000000000000000000000000000000000000000000000000007f00000000000000000000000100000000000000000000000000000000000000007f00000000000000000000000100000000000000000000000000000000000000005b7ffffffffffffffffffffffffffffffffffffffffffffffffffffffffffffffffe6f446e638e7e16736c030393727d74817460005155",
                "nonce" : "0x00",
                "balance" : "0x7b1e5dc9",
                "storage" : {
                    "0x00" : "0x446e638e7e16736c030393727d748174"
                }
            },
            "0x945304eb96065b2a98b57a48a06ae28d285a71b5" : {
                "code" : "0x6000355415600957005b60203560003555",
                "nonce" : "0x00",
                "balance" : "0x1bc16d674ec8ba55",
                "storage" : {
                }
            }
        },
        "network" : "ConstantinopleFix",
        "sealEngine" : "NoProof",
        "lastblockhash" : "0x1f2920f941bdaa1d80ec9ff8dc2955e569edf95339382dc485da0ad9880655d7",
        "genesisRLP" : "0xf901fdf901f8a00000000000000000000000000000000000000000000000000000000000000000a01dcc4de8dec75d7aab85b567b6ccd41ad312451b948a7413f0a142fd40d4934794945304eb96065b2a98b57a48a06ae28d285a71b5a0d82ba09f8434e12d006960c77b084c4210e966ab0f262a4cf2f19965d81f82bfa056e81f171bcc55a6ff8345e692c0f86e5b48e01b996cadc001622fb5e363b421a056e81f171bcc55a6ff8345e692c0f86e5b48e01b996cadc001622fb5e363b421b90100000000000000000000000000000000000000000000000000000000000000000000000000000000000000000000000000000000000000000000000000000000000000000000000000000000000000000000000000000000000000000000000000000000000000000000000000000000000000000000000000000000000000000000000000000000000000000000000000000000000000000000000000000000000000000000000000000000000000000000000000000000000000000000000000000000000000000000000000000000000000000000000000000000000000000000000000000000000000000000000000000000000000000000000000000000008302000080887fffffffffffffff808000a00000000000000000000000000000000000000000000000000000000000000000880000000000000000c0c0",
        "blocks" : [
            {
                "rlp" : "0xf90344f901fca007f737e6800550e9d1a5afc10273945e231915f9549aa7066fc8bad3975b9b0ba01dcc4de8dec75d7aab85b567b6ccd41ad312451b948a7413f0a142fd40d4934794945304eb96065b2a98b57a48a06ae28d285a71b5a0f5898a2138e703e17cf9b88c6e0393de05be115793dccd9b136e1bfde804df38a078d9f414d40cb8f5a07adc6bb22d85b960a8b121d5b31da314ee1deb7ce9d768a0d5b1c3f5e604d570cbd39888004a4a5d4ee2f1320f33d3184730e1b91d0e127cb90100000000000000000000000000000000000000000000000000000000000000000000000000000000000000000000000000000000000000000000000000000000000000000000000000000000000000000000000000000000000000000000000000000000000000000000000000000000000000000000000000000000000000000000000000000000000000000000000000000000000000000000000000000000000000000000000000000000000000000000000000000000000000000000000000000000000000000000000000000000000000000000000000000000000000000000000000000000000000000000000000000000000000000000000000000000008302000001887fffffffffffffff82ba278203e800a00000000000000000000000000000000000000000000000000000000000000000880000000000000000f90141f9013e800184366ad29e94095e7baea6a6c7c4c2dfeb977efac326af552d87847b1e5dc9b8d87fffffffffffffffffffffffffffffffffffffffffffffffffffffffffffffffff7f00000000000000000000000000000000000000000000000000000000000000007f00000000000000000000000000000000000000000000000000000000000000007f00000000000000000000000100000000000000000000000000000000000000007f00000000000000000000000100000000000000000000000000000000000000005b7ffffffffffffffffffffffffffffffffffffffffffffffffffffffffffffffffe6f446e638e7e16736c030393727d7481741ba0cfa0743c95da5ca8d23c810303ac51d15210d8e2f96a6533645c9ad89e80ce2fa077905c3665458a6aafea6c641b483363dd7e403019d42d94f7329506f6769cf8c0",
                "blockHeader" : {
                    "bloom" : "0x00000000000000000000000000000000000000000000000000000000000000000000000000000000000000000000000000000000000000000000000000000000000000000000000000000000000000000000000000000000000000000000000000000000000000000000000000000000000000000000000000000000000000000000000000000000000000000000000000000000000000000000000000000000000000000000000000000000000000000000000000000000000000000000000000000000000000000000000000000000000000000000000000000000000000000000000000000000000000000000000000000000000000000000000000000000",
                    "coinbase" : "0x945304eb96065b2a98b57a48a06ae28d285a71b5",
                    "difficulty" : "0x20000",
                    "extraData" : "0x00",
                    "gasLimit" : "0x7fffffffffffffff",
                    "gasUsed" : "0xba27",
                    "hash" : "0x1f2920f941bdaa1d80ec9ff8dc2955e569edf95339382dc485da0ad9880655d7",
                    "mixHash" : "0x0000000000000000000000000000000000000000000000000000000000000000",
                    "nonce" : "0x0000000000000000",
                    "number" : "0x1",
                    "parentHash" : "0x07f737e6800550e9d1a5afc10273945e231915f9549aa7066fc8bad3975b9b0b",
                    "receiptTrie" : "0xd5b1c3f5e604d570cbd39888004a4a5d4ee2f1320f33d3184730e1b91d0e127c",
                    "stateRoot" : "0xf5898a2138e703e17cf9b88c6e0393de05be115793dccd9b136e1bfde804df38",
                    "timestamp" : "0x3e8",
                    "transactionsTrie" : "0x78d9f414d40cb8f5a07adc6bb22d85b960a8b121d5b31da314ee1deb7ce9d768",
                    "uncleHash" : "0x1dcc4de8dec75d7aab85b567b6ccd41ad312451b948a7413f0a142fd40d49347"
                },
                "transactions" : [
                    {
                        "data" : "0x7fffffffffffffffffffffffffffffffffffffffffffffffffffffffffffffffff7f00000000000000000000000000000000000000000000000000000000000000007f00000000000000000000000000000000000000000000000000000000000000007f00000000000000000000000100000000000000000000000000000000000000007f00000000000000000000000100000000000000000000000000000000000000005b7ffffffffffffffffffffffffffffffffffffffffffffffffffffffffffffffffe6f446e638e7e16736c030393727d748174",
                        "gasLimit" : "0x366ad29e",
                        "gasPrice" : "0x01",
                        "nonce" : "0x00",
                        "secretKey" : "0x45a915e4d060149eb4365960e6a7a45f334393093061116b197e3240065ff2d8",
                        "to" : "0x095e7baea6a6c7c4c2dfeb977efac326af552d87",
                        "value" : "0x7b1e5dc9"
                    }
                ]
            }
        ]
    }
}