{
    "randomStatetest566_d0g0v0_EIP150" : {
        "blocks" : [
            {
                "blockHeader" : {
                    "bloom" : "0x00000000000000000000000000000000000000000000000000000000000000000000000000000000000000000000000000000000000000000000000000000000000000000000000000000000000000000000000000000000000000000000000000000000000000000000000000000000000000000000000000000000000000000000000000000000000000000000000000000000000000000000000000000000000000000000000000000000000000000000000000000000000000000000000000000000000000000000000000000000000000000000000000000000000000000000000000000000000000000000000000000000000000000000000000000000",
                    "coinbase" : "0x945304eb96065b2a98b57a48a06ae28d285a71b5",
                    "difficulty" : "0x020000",
                    "extraData" : "",
                    "gasLimit" : "0x7fffffffffffffff",
                    "gasUsed" : "0x122017a8",
                    "hash" : "0xacfe1fd513f45ec03c471934e07017d44472d7a5aca5b56b693118c9bd54fbb5",
                    "mixHash" : "0xa0d928e410142c76f70c6e489475ebdb34969b82b2b450027013ad2e0bd7b510",
                    "nonce" : "0x7d773a7b3b4bfa66",
                    "number" : "0x01",
                    "parentHash" : "0x6a44da12bd6723980786396c276adf565cfb85e3fd3fc54f4bf34a291205ac4a",
                    "receiptTrie" : "0xee3250f0e5ee025295de68d447e4987624feea94b8a1f3464b9eba5fcb354d2c",
                    "stateRoot" : "0x7cfc02af15dc587781d06216b56d827d66a3f29d39eb5d1a71eef462c617ebf1",
                    "timestamp" : "0x03e8",
                    "transactionsTrie" : "0x854690477d27a662b692c3520081744fa8acb39afd8f694dbc5ea803aa0b5c68",
                    "uncleHash" : "0x1dcc4de8dec75d7aab85b567b6ccd41ad312451b948a7413f0a142fd40d49347"
                },
                "rlp" : "0xf9031ff901fea06a44da12bd6723980786396c276adf565cfb85e3fd3fc54f4bf34a291205ac4aa01dcc4de8dec75d7aab85b567b6ccd41ad312451b948a7413f0a142fd40d4934794945304eb96065b2a98b57a48a06ae28d285a71b5a07cfc02af15dc587781d06216b56d827d66a3f29d39eb5d1a71eef462c617ebf1a0854690477d27a662b692c3520081744fa8acb39afd8f694dbc5ea803aa0b5c68a0ee3250f0e5ee025295de68d447e4987624feea94b8a1f3464b9eba5fcb354d2cb90100000000000000000000000000000000000000000000000000000000000000000000000000000000000000000000000000000000000000000000000000000000000000000000000000000000000000000000000000000000000000000000000000000000000000000000000000000000000000000000000000000000000000000000000000000000000000000000000000000000000000000000000000000000000000000000000000000000000000000000000000000000000000000000000000000000000000000000000000000000000000000000000000000000000000000000000000000000000000000000000000000000000000000000000000000000008302000001887fffffffffffffff84122017a88203e880a0a0d928e410142c76f70c6e489475ebdb34969b82b2b450027013ad2e0bd7b510887d773a7b3b4bfa66f9011af90117800184122017a894095e7baea6a6c7c4c2dfeb977efac326af552d878421b918f0b8b19a7f000000000000000000000000000000000000000000000000000000000000c3507f0000000000000000000000000000000000000000000000000000000000000000117f00000000000000000000000100000000000000000000000000000000000000007fffffffffffffffffffffffffffffffffffffffffffffffffffffffffffffffff427f000000000000000000000000945304eb96065b2a98b57a48a06ae28d285a71b59396333257866573431ba0d2d75e3e7fa6f5da68e99b2a3239f7c620de0b1e4788bc4c0e615671f99eb446a010c3fa177f6a80a333ff85c5156fdb525dcda99da9005d01d0fcda72b525cb40c0",
                "transactions" : [
                    {
                        "data" : "0x9a7f000000000000000000000000000000000000000000000000000000000000c3507f0000000000000000000000000000000000000000000000000000000000000000117f00000000000000000000000100000000000000000000000000000000000000007fffffffffffffffffffffffffffffffffffffffffffffffffffffffffffffffff427f000000000000000000000000945304eb96065b2a98b57a48a06ae28d285a71b5939633325786657343",
                        "gasLimit" : "0x122017a8",
                        "gasPrice" : "0x01",
                        "nonce" : "0x00",
                        "r" : "0xd2d75e3e7fa6f5da68e99b2a3239f7c620de0b1e4788bc4c0e615671f99eb446",
                        "s" : "0x10c3fa177f6a80a333ff85c5156fdb525dcda99da9005d01d0fcda72b525cb40",
                        "to" : "0x095e7baea6a6c7c4c2dfeb977efac326af552d87",
                        "v" : "0x1b",
                        "value" : "0x21b918f0"
                    }
                ],
                "uncleHeaders" : [
                ]
            }
        ],
        "genesisBlockHeader" : {
            "bloom" : "0x00000000000000000000000000000000000000000000000000000000000000000000000000000000000000000000000000000000000000000000000000000000000000000000000000000000000000000000000000000000000000000000000000000000000000000000000000000000000000000000000000000000000000000000000000000000000000000000000000000000000000000000000000000000000000000000000000000000000000000000000000000000000000000000000000000000000000000000000000000000000000000000000000000000000000000000000000000000000000000000000000000000000000000000000000000000",
            "coinbase" : "0x945304eb96065b2a98b57a48a06ae28d285a71b5",
            "difficulty" : "0x020000",
            "extraData" : "0x42",
            "gasLimit" : "0x7fffffffffffffff",
            "gasUsed" : "0x00",
            "hash" : "0x6a44da12bd6723980786396c276adf565cfb85e3fd3fc54f4bf34a291205ac4a",
            "mixHash" : "0x56e81f171bcc55a6ff8345e692c0f86e5b48e01b996cadc001622fb5e363b421",
            "nonce" : "0x0102030405060708",
            "number" : "0x00",
            "parentHash" : "0x0000000000000000000000000000000000000000000000000000000000000000",
            "receiptTrie" : "0x56e81f171bcc55a6ff8345e692c0f86e5b48e01b996cadc001622fb5e363b421",
            "stateRoot" : "0xd342182c2ff7fddc290acfd8d90cba28f8851ddc51353d9a2a767844d7549129",
            "timestamp" : "0x03b6",
            "transactionsTrie" : "0x56e81f171bcc55a6ff8345e692c0f86e5b48e01b996cadc001622fb5e363b421",
            "uncleHash" : "0x1dcc4de8dec75d7aab85b567b6ccd41ad312451b948a7413f0a142fd40d49347"
        },
        "genesisRLP" : "0xf901fff901faa00000000000000000000000000000000000000000000000000000000000000000a01dcc4de8dec75d7aab85b567b6ccd41ad312451b948a7413f0a142fd40d4934794945304eb96065b2a98b57a48a06ae28d285a71b5a0d342182c2ff7fddc290acfd8d90cba28f8851ddc51353d9a2a767844d7549129a056e81f171bcc55a6ff8345e692c0f86e5b48e01b996cadc001622fb5e363b421a056e81f171bcc55a6ff8345e692c0f86e5b48e01b996cadc001622fb5e363b421b90100000000000000000000000000000000000000000000000000000000000000000000000000000000000000000000000000000000000000000000000000000000000000000000000000000000000000000000000000000000000000000000000000000000000000000000000000000000000000000000000000000000000000000000000000000000000000000000000000000000000000000000000000000000000000000000000000000000000000000000000000000000000000000000000000000000000000000000000000000000000000000000000000000000000000000000000000000000000000000000000000000000000000000000000000000000008302000080887fffffffffffffff808203b642a056e81f171bcc55a6ff8345e692c0f86e5b48e01b996cadc001622fb5e363b421880102030405060708c0c0",
        "lastblockhash" : "0xacfe1fd513f45ec03c471934e07017d44472d7a5aca5b56b693118c9bd54fbb5",
        "network" : "EIP150",
        "postState" : {
            "0x095e7baea6a6c7c4c2dfeb977efac326af552d87" : {
                "balance" : "0x00",
                "code" : "0x9a7f000000000000000000000000000000000000000000000000000000000000c3507f0000000000000000000000000000000000000000000000000000000000000000117f00000000000000000000000100000000000000000000000000000000000000007fffffffffffffffffffffffffffffffffffffffffffffffffffffffffffffffff427f000000000000000000000000945304eb96065b2a98b57a48a06ae28d285a71b593963332578665734360005155",
                "nonce" : "0x00",
                "storage" : {
                }
            },
            "0x945304eb96065b2a98b57a48a06ae28d285a71b5" : {
                "balance" : "0x45639182571417d6",
                "code" : "0x6000355415600957005b60203560003555",
                "nonce" : "0x00",
                "storage" : {
                }
            },
            "0xa94f5374fce5edbc8e2a8697c15331677e6ebf0b" : {
                "balance" : "0x0de0b6b39543e858",
                "code" : "",
                "nonce" : "0x01",
                "storage" : {
                }
            }
        },
        "pre" : {
            "0x095e7baea6a6c7c4c2dfeb977efac326af552d87" : {
                "balance" : "0x00",
                "code" : "0x9a7f000000000000000000000000000000000000000000000000000000000000c3507f0000000000000000000000000000000000000000000000000000000000000000117f00000000000000000000000100000000000000000000000000000000000000007fffffffffffffffffffffffffffffffffffffffffffffffffffffffffffffffff427f000000000000000000000000945304eb96065b2a98b57a48a06ae28d285a71b593963332578665734360005155",
                "nonce" : "0x00",
                "storage" : {
                }
            },
            "0x945304eb96065b2a98b57a48a06ae28d285a71b5" : {
                "balance" : "0x2e",
                "code" : "0x6000355415600957005b60203560003555",
                "nonce" : "0x00",
                "storage" : {
                }
            },
            "0xa94f5374fce5edbc8e2a8697c15331677e6ebf0b" : {
                "balance" : "0x0de0b6b3a7640000",
                "code" : "",
                "nonce" : "0x00",
                "storage" : {
                }
            }
        }
    },
    "randomStatetest566_d0g0v0_EIP158" : {
        "blocks" : [
            {
                "blockHeader" : {
                    "bloom" : "0x00000000000000000000000000000000000000000000000000000000000000000000000000000000000000000000000000000000000000000000000000000000000000000000000000000000000000000000000000000000000000000000000000000000000000000000000000000000000000000000000000000000000000000000000000000000000000000000000000000000000000000000000000000000000000000000000000000000000000000000000000000000000000000000000000000000000000000000000000000000000000000000000000000000000000000000000000000000000000000000000000000000000000000000000000000000",
                    "coinbase" : "0x945304eb96065b2a98b57a48a06ae28d285a71b5",
                    "difficulty" : "0x020000",
                    "extraData" : "",
                    "gasLimit" : "0x7fffffffffffffff",
                    "gasUsed" : "0x122017a8",
                    "hash" : "0xf6b6222d21aaeba5ff29ab7bae368e153f0f48bac5b425557a920cf2dfd93343",
                    "mixHash" : "0xe431a480f62d25c00f01f26beb55d83d3175a1b0ec9afb395999130cb4f2f739",
                    "nonce" : "0x4d5a9d8a30f63862",
                    "number" : "0x01",
                    "parentHash" : "0x6a44da12bd6723980786396c276adf565cfb85e3fd3fc54f4bf34a291205ac4a",
                    "receiptTrie" : "0xee3250f0e5ee025295de68d447e4987624feea94b8a1f3464b9eba5fcb354d2c",
                    "stateRoot" : "0x7cfc02af15dc587781d06216b56d827d66a3f29d39eb5d1a71eef462c617ebf1",
                    "timestamp" : "0x03e8",
                    "transactionsTrie" : "0x854690477d27a662b692c3520081744fa8acb39afd8f694dbc5ea803aa0b5c68",
                    "uncleHash" : "0x1dcc4de8dec75d7aab85b567b6ccd41ad312451b948a7413f0a142fd40d49347"
                },
                "rlp" : "0xf9031ff901fea06a44da12bd6723980786396c276adf565cfb85e3fd3fc54f4bf34a291205ac4aa01dcc4de8dec75d7aab85b567b6ccd41ad312451b948a7413f0a142fd40d4934794945304eb96065b2a98b57a48a06ae28d285a71b5a07cfc02af15dc587781d06216b56d827d66a3f29d39eb5d1a71eef462c617ebf1a0854690477d27a662b692c3520081744fa8acb39afd8f694dbc5ea803aa0b5c68a0ee3250f0e5ee025295de68d447e4987624feea94b8a1f3464b9eba5fcb354d2cb90100000000000000000000000000000000000000000000000000000000000000000000000000000000000000000000000000000000000000000000000000000000000000000000000000000000000000000000000000000000000000000000000000000000000000000000000000000000000000000000000000000000000000000000000000000000000000000000000000000000000000000000000000000000000000000000000000000000000000000000000000000000000000000000000000000000000000000000000000000000000000000000000000000000000000000000000000000000000000000000000000000000000000000000000000000000008302000001887fffffffffffffff84122017a88203e880a0e431a480f62d25c00f01f26beb55d83d3175a1b0ec9afb395999130cb4f2f739884d5a9d8a30f63862f9011af90117800184122017a894095e7baea6a6c7c4c2dfeb977efac326af552d878421b918f0b8b19a7f000000000000000000000000000000000000000000000000000000000000c3507f0000000000000000000000000000000000000000000000000000000000000000117f00000000000000000000000100000000000000000000000000000000000000007fffffffffffffffffffffffffffffffffffffffffffffffffffffffffffffffff427f000000000000000000000000945304eb96065b2a98b57a48a06ae28d285a71b59396333257866573431ba0d2d75e3e7fa6f5da68e99b2a3239f7c620de0b1e4788bc4c0e615671f99eb446a010c3fa177f6a80a333ff85c5156fdb525dcda99da9005d01d0fcda72b525cb40c0",
                "transactions" : [
                    {
                        "data" : "0x9a7f000000000000000000000000000000000000000000000000000000000000c3507f0000000000000000000000000000000000000000000000000000000000000000117f00000000000000000000000100000000000000000000000000000000000000007fffffffffffffffffffffffffffffffffffffffffffffffffffffffffffffffff427f000000000000000000000000945304eb96065b2a98b57a48a06ae28d285a71b5939633325786657343",
                        "gasLimit" : "0x122017a8",
                        "gasPrice" : "0x01",
                        "nonce" : "0x00",
                        "r" : "0xd2d75e3e7fa6f5da68e99b2a3239f7c620de0b1e4788bc4c0e615671f99eb446",
                        "s" : "0x10c3fa177f6a80a333ff85c5156fdb525dcda99da9005d01d0fcda72b525cb40",
                        "to" : "0x095e7baea6a6c7c4c2dfeb977efac326af552d87",
                        "v" : "0x1b",
                        "value" : "0x21b918f0"
                    }
                ],
                "uncleHeaders" : [
                ]
            }
        ],
        "genesisBlockHeader" : {
            "bloom" : "0x00000000000000000000000000000000000000000000000000000000000000000000000000000000000000000000000000000000000000000000000000000000000000000000000000000000000000000000000000000000000000000000000000000000000000000000000000000000000000000000000000000000000000000000000000000000000000000000000000000000000000000000000000000000000000000000000000000000000000000000000000000000000000000000000000000000000000000000000000000000000000000000000000000000000000000000000000000000000000000000000000000000000000000000000000000000",
            "coinbase" : "0x945304eb96065b2a98b57a48a06ae28d285a71b5",
            "difficulty" : "0x020000",
            "extraData" : "0x42",
            "gasLimit" : "0x7fffffffffffffff",
            "gasUsed" : "0x00",
            "hash" : "0x6a44da12bd6723980786396c276adf565cfb85e3fd3fc54f4bf34a291205ac4a",
            "mixHash" : "0x56e81f171bcc55a6ff8345e692c0f86e5b48e01b996cadc001622fb5e363b421",
            "nonce" : "0x0102030405060708",
            "number" : "0x00",
            "parentHash" : "0x0000000000000000000000000000000000000000000000000000000000000000",
            "receiptTrie" : "0x56e81f171bcc55a6ff8345e692c0f86e5b48e01b996cadc001622fb5e363b421",
            "stateRoot" : "0xd342182c2ff7fddc290acfd8d90cba28f8851ddc51353d9a2a767844d7549129",
            "timestamp" : "0x03b6",
            "transactionsTrie" : "0x56e81f171bcc55a6ff8345e692c0f86e5b48e01b996cadc001622fb5e363b421",
            "uncleHash" : "0x1dcc4de8dec75d7aab85b567b6ccd41ad312451b948a7413f0a142fd40d49347"
        },
        "genesisRLP" : "0xf901fff901faa00000000000000000000000000000000000000000000000000000000000000000a01dcc4de8dec75d7aab85b567b6ccd41ad312451b948a7413f0a142fd40d4934794945304eb96065b2a98b57a48a06ae28d285a71b5a0d342182c2ff7fddc290acfd8d90cba28f8851ddc51353d9a2a767844d7549129a056e81f171bcc55a6ff8345e692c0f86e5b48e01b996cadc001622fb5e363b421a056e81f171bcc55a6ff8345e692c0f86e5b48e01b996cadc001622fb5e363b421b90100000000000000000000000000000000000000000000000000000000000000000000000000000000000000000000000000000000000000000000000000000000000000000000000000000000000000000000000000000000000000000000000000000000000000000000000000000000000000000000000000000000000000000000000000000000000000000000000000000000000000000000000000000000000000000000000000000000000000000000000000000000000000000000000000000000000000000000000000000000000000000000000000000000000000000000000000000000000000000000000000000000000000000000000000000000008302000080887fffffffffffffff808203b642a056e81f171bcc55a6ff8345e692c0f86e5b48e01b996cadc001622fb5e363b421880102030405060708c0c0",
        "lastblockhash" : "0xf6b6222d21aaeba5ff29ab7bae368e153f0f48bac5b425557a920cf2dfd93343",
        "network" : "EIP158",
        "postState" : {
            "0x095e7baea6a6c7c4c2dfeb977efac326af552d87" : {
                "balance" : "0x00",
                "code" : "0x9a7f000000000000000000000000000000000000000000000000000000000000c3507f0000000000000000000000000000000000000000000000000000000000000000117f00000000000000000000000100000000000000000000000000000000000000007fffffffffffffffffffffffffffffffffffffffffffffffffffffffffffffffff427f000000000000000000000000945304eb96065b2a98b57a48a06ae28d285a71b593963332578665734360005155",
                "nonce" : "0x00",
                "storage" : {
                }
            },
            "0x945304eb96065b2a98b57a48a06ae28d285a71b5" : {
                "balance" : "0x45639182571417d6",
                "code" : "0x6000355415600957005b60203560003555",
                "nonce" : "0x00",
                "storage" : {
                }
            },
            "0xa94f5374fce5edbc8e2a8697c15331677e6ebf0b" : {
                "balance" : "0x0de0b6b39543e858",
                "code" : "",
                "nonce" : "0x01",
                "storage" : {
                }
            }
        },
        "pre" : {
            "0x095e7baea6a6c7c4c2dfeb977efac326af552d87" : {
                "balance" : "0x00",
                "code" : "0x9a7f000000000000000000000000000000000000000000000000000000000000c3507f0000000000000000000000000000000000000000000000000000000000000000117f00000000000000000000000100000000000000000000000000000000000000007fffffffffffffffffffffffffffffffffffffffffffffffffffffffffffffffff427f000000000000000000000000945304eb96065b2a98b57a48a06ae28d285a71b593963332578665734360005155",
                "nonce" : "0x00",
                "storage" : {
                }
            },
            "0x945304eb96065b2a98b57a48a06ae28d285a71b5" : {
                "balance" : "0x2e",
                "code" : "0x6000355415600957005b60203560003555",
                "nonce" : "0x00",
                "storage" : {
                }
            },
            "0xa94f5374fce5edbc8e2a8697c15331677e6ebf0b" : {
                "balance" : "0x0de0b6b3a7640000",
                "code" : "",
                "nonce" : "0x00",
                "storage" : {
                }
            }
        }
    },
    "randomStatetest566_d0g0v0_Frontier" : {
        "blocks" : [
            {
                "blockHeader" : {
                    "bloom" : "0x00000000000000000000000000000000000000000000000000000000000000000000000000000000000000000000000000000000000000000000000000000000000000000000000000000000000000000000000000000000000000000000000000000000000000000000000000000000000000000000000000000000000000000000000000000000000000000000000000000000000000000000000000000000000000000000000000000000000000000000000000000000000000000000000000000000000000000000000000000000000000000000000000000000000000000000000000000000000000000000000000000000000000000000000000000000",
                    "coinbase" : "0x945304eb96065b2a98b57a48a06ae28d285a71b5",
                    "difficulty" : "0x020000",
                    "extraData" : "",
                    "gasLimit" : "0x7fffffffffffffff",
                    "gasUsed" : "0x122017a8",
                    "hash" : "0xca7b8238beb8aacaab0ad7ee80780598650ef5cb8e87a8728873880cc7ab0ebc",
                    "mixHash" : "0x0306935d541137961c66518bab56bc7e66e6e4e61105187052838c72fd412007",
                    "nonce" : "0xde8ddd2b4914ed41",
                    "number" : "0x01",
                    "parentHash" : "0x6a44da12bd6723980786396c276adf565cfb85e3fd3fc54f4bf34a291205ac4a",
                    "receiptTrie" : "0xee3250f0e5ee025295de68d447e4987624feea94b8a1f3464b9eba5fcb354d2c",
                    "stateRoot" : "0x7cfc02af15dc587781d06216b56d827d66a3f29d39eb5d1a71eef462c617ebf1",
                    "timestamp" : "0x03e8",
                    "transactionsTrie" : "0x854690477d27a662b692c3520081744fa8acb39afd8f694dbc5ea803aa0b5c68",
                    "uncleHash" : "0x1dcc4de8dec75d7aab85b567b6ccd41ad312451b948a7413f0a142fd40d49347"
                },
                "rlp" : "0xf9031ff901fea06a44da12bd6723980786396c276adf565cfb85e3fd3fc54f4bf34a291205ac4aa01dcc4de8dec75d7aab85b567b6ccd41ad312451b948a7413f0a142fd40d4934794945304eb96065b2a98b57a48a06ae28d285a71b5a07cfc02af15dc587781d06216b56d827d66a3f29d39eb5d1a71eef462c617ebf1a0854690477d27a662b692c3520081744fa8acb39afd8f694dbc5ea803aa0b5c68a0ee3250f0e5ee025295de68d447e4987624feea94b8a1f3464b9eba5fcb354d2cb90100000000000000000000000000000000000000000000000000000000000000000000000000000000000000000000000000000000000000000000000000000000000000000000000000000000000000000000000000000000000000000000000000000000000000000000000000000000000000000000000000000000000000000000000000000000000000000000000000000000000000000000000000000000000000000000000000000000000000000000000000000000000000000000000000000000000000000000000000000000000000000000000000000000000000000000000000000000000000000000000000000000000000000000000000000000008302000001887fffffffffffffff84122017a88203e880a00306935d541137961c66518bab56bc7e66e6e4e61105187052838c72fd41200788de8ddd2b4914ed41f9011af90117800184122017a894095e7baea6a6c7c4c2dfeb977efac326af552d878421b918f0b8b19a7f000000000000000000000000000000000000000000000000000000000000c3507f0000000000000000000000000000000000000000000000000000000000000000117f00000000000000000000000100000000000000000000000000000000000000007fffffffffffffffffffffffffffffffffffffffffffffffffffffffffffffffff427f000000000000000000000000945304eb96065b2a98b57a48a06ae28d285a71b59396333257866573431ba0d2d75e3e7fa6f5da68e99b2a3239f7c620de0b1e4788bc4c0e615671f99eb446a010c3fa177f6a80a333ff85c5156fdb525dcda99da9005d01d0fcda72b525cb40c0",
                "transactions" : [
                    {
                        "data" : "0x9a7f000000000000000000000000000000000000000000000000000000000000c3507f0000000000000000000000000000000000000000000000000000000000000000117f00000000000000000000000100000000000000000000000000000000000000007fffffffffffffffffffffffffffffffffffffffffffffffffffffffffffffffff427f000000000000000000000000945304eb96065b2a98b57a48a06ae28d285a71b5939633325786657343",
                        "gasLimit" : "0x122017a8",
                        "gasPrice" : "0x01",
                        "nonce" : "0x00",
                        "r" : "0xd2d75e3e7fa6f5da68e99b2a3239f7c620de0b1e4788bc4c0e615671f99eb446",
                        "s" : "0x10c3fa177f6a80a333ff85c5156fdb525dcda99da9005d01d0fcda72b525cb40",
                        "to" : "0x095e7baea6a6c7c4c2dfeb977efac326af552d87",
                        "v" : "0x1b",
                        "value" : "0x21b918f0"
                    }
                ],
                "uncleHeaders" : [
                ]
            }
        ],
        "genesisBlockHeader" : {
            "bloom" : "0x00000000000000000000000000000000000000000000000000000000000000000000000000000000000000000000000000000000000000000000000000000000000000000000000000000000000000000000000000000000000000000000000000000000000000000000000000000000000000000000000000000000000000000000000000000000000000000000000000000000000000000000000000000000000000000000000000000000000000000000000000000000000000000000000000000000000000000000000000000000000000000000000000000000000000000000000000000000000000000000000000000000000000000000000000000000",
            "coinbase" : "0x945304eb96065b2a98b57a48a06ae28d285a71b5",
            "difficulty" : "0x020000",
            "extraData" : "0x42",
            "gasLimit" : "0x7fffffffffffffff",
            "gasUsed" : "0x00",
            "hash" : "0x6a44da12bd6723980786396c276adf565cfb85e3fd3fc54f4bf34a291205ac4a",
            "mixHash" : "0x56e81f171bcc55a6ff8345e692c0f86e5b48e01b996cadc001622fb5e363b421",
            "nonce" : "0x0102030405060708",
            "number" : "0x00",
            "parentHash" : "0x0000000000000000000000000000000000000000000000000000000000000000",
            "receiptTrie" : "0x56e81f171bcc55a6ff8345e692c0f86e5b48e01b996cadc001622fb5e363b421",
            "stateRoot" : "0xd342182c2ff7fddc290acfd8d90cba28f8851ddc51353d9a2a767844d7549129",
            "timestamp" : "0x03b6",
            "transactionsTrie" : "0x56e81f171bcc55a6ff8345e692c0f86e5b48e01b996cadc001622fb5e363b421",
            "uncleHash" : "0x1dcc4de8dec75d7aab85b567b6ccd41ad312451b948a7413f0a142fd40d49347"
        },
        "genesisRLP" : "0xf901fff901faa00000000000000000000000000000000000000000000000000000000000000000a01dcc4de8dec75d7aab85b567b6ccd41ad312451b948a7413f0a142fd40d4934794945304eb96065b2a98b57a48a06ae28d285a71b5a0d342182c2ff7fddc290acfd8d90cba28f8851ddc51353d9a2a767844d7549129a056e81f171bcc55a6ff8345e692c0f86e5b48e01b996cadc001622fb5e363b421a056e81f171bcc55a6ff8345e692c0f86e5b48e01b996cadc001622fb5e363b421b90100000000000000000000000000000000000000000000000000000000000000000000000000000000000000000000000000000000000000000000000000000000000000000000000000000000000000000000000000000000000000000000000000000000000000000000000000000000000000000000000000000000000000000000000000000000000000000000000000000000000000000000000000000000000000000000000000000000000000000000000000000000000000000000000000000000000000000000000000000000000000000000000000000000000000000000000000000000000000000000000000000000000000000000000000000000008302000080887fffffffffffffff808203b642a056e81f171bcc55a6ff8345e692c0f86e5b48e01b996cadc001622fb5e363b421880102030405060708c0c0",
        "lastblockhash" : "0xca7b8238beb8aacaab0ad7ee80780598650ef5cb8e87a8728873880cc7ab0ebc",
        "network" : "Frontier",
        "postState" : {
            "0x095e7baea6a6c7c4c2dfeb977efac326af552d87" : {
                "balance" : "0x00",
                "code" : "0x9a7f000000000000000000000000000000000000000000000000000000000000c3507f0000000000000000000000000000000000000000000000000000000000000000117f00000000000000000000000100000000000000000000000000000000000000007fffffffffffffffffffffffffffffffffffffffffffffffffffffffffffffffff427f000000000000000000000000945304eb96065b2a98b57a48a06ae28d285a71b593963332578665734360005155",
                "nonce" : "0x00",
                "storage" : {
                }
            },
            "0x945304eb96065b2a98b57a48a06ae28d285a71b5" : {
                "balance" : "0x45639182571417d6",
                "code" : "0x6000355415600957005b60203560003555",
                "nonce" : "0x00",
                "storage" : {
                }
            },
            "0xa94f5374fce5edbc8e2a8697c15331677e6ebf0b" : {
                "balance" : "0x0de0b6b39543e858",
                "code" : "",
                "nonce" : "0x01",
                "storage" : {
                }
            }
        },
        "pre" : {
            "0x095e7baea6a6c7c4c2dfeb977efac326af552d87" : {
                "balance" : "0x00",
                "code" : "0x9a7f000000000000000000000000000000000000000000000000000000000000c3507f0000000000000000000000000000000000000000000000000000000000000000117f00000000000000000000000100000000000000000000000000000000000000007fffffffffffffffffffffffffffffffffffffffffffffffffffffffffffffffff427f000000000000000000000000945304eb96065b2a98b57a48a06ae28d285a71b593963332578665734360005155",
                "nonce" : "0x00",
                "storage" : {
                }
            },
            "0x945304eb96065b2a98b57a48a06ae28d285a71b5" : {
                "balance" : "0x2e",
                "code" : "0x6000355415600957005b60203560003555",
                "nonce" : "0x00",
                "storage" : {
                }
            },
            "0xa94f5374fce5edbc8e2a8697c15331677e6ebf0b" : {
                "balance" : "0x0de0b6b3a7640000",
                "code" : "",
                "nonce" : "0x00",
                "storage" : {
                }
            }
        }
    },
    "randomStatetest566_d0g0v0_Homestead" : {
        "blocks" : [
            {
                "blockHeader" : {
                    "bloom" : "0x00000000000000000000000000000000000000000000000000000000000000000000000000000000000000000000000000000000000000000000000000000000000000000000000000000000000000000000000000000000000000000000000000000000000000000000000000000000000000000000000000000000000000000000000000000000000000000000000000000000000000000000000000000000000000000000000000000000000000000000000000000000000000000000000000000000000000000000000000000000000000000000000000000000000000000000000000000000000000000000000000000000000000000000000000000000",
                    "coinbase" : "0x945304eb96065b2a98b57a48a06ae28d285a71b5",
                    "difficulty" : "0x020000",
                    "extraData" : "",
                    "gasLimit" : "0x7fffffffffffffff",
                    "gasUsed" : "0x122017a8",
                    "hash" : "0x6668e16e003491e9ed594e9ed7bfe0a70ceeaf969a4d60f4e7956b4504327e9a",
                    "mixHash" : "0xc7625b975529aece279cd8c3cb6647d5f88c3a2b920d527ec655b9c5e94a9759",
                    "nonce" : "0xb69416fc53d0a759",
                    "number" : "0x01",
                    "parentHash" : "0x6a44da12bd6723980786396c276adf565cfb85e3fd3fc54f4bf34a291205ac4a",
                    "receiptTrie" : "0xee3250f0e5ee025295de68d447e4987624feea94b8a1f3464b9eba5fcb354d2c",
                    "stateRoot" : "0x7cfc02af15dc587781d06216b56d827d66a3f29d39eb5d1a71eef462c617ebf1",
                    "timestamp" : "0x03e8",
                    "transactionsTrie" : "0x854690477d27a662b692c3520081744fa8acb39afd8f694dbc5ea803aa0b5c68",
                    "uncleHash" : "0x1dcc4de8dec75d7aab85b567b6ccd41ad312451b948a7413f0a142fd40d49347"
                },
                "rlp" : "0xf9031ff901fea06a44da12bd6723980786396c276adf565cfb85e3fd3fc54f4bf34a291205ac4aa01dcc4de8dec75d7aab85b567b6ccd41ad312451b948a7413f0a142fd40d4934794945304eb96065b2a98b57a48a06ae28d285a71b5a07cfc02af15dc587781d06216b56d827d66a3f29d39eb5d1a71eef462c617ebf1a0854690477d27a662b692c3520081744fa8acb39afd8f694dbc5ea803aa0b5c68a0ee3250f0e5ee025295de68d447e4987624feea94b8a1f3464b9eba5fcb354d2cb90100000000000000000000000000000000000000000000000000000000000000000000000000000000000000000000000000000000000000000000000000000000000000000000000000000000000000000000000000000000000000000000000000000000000000000000000000000000000000000000000000000000000000000000000000000000000000000000000000000000000000000000000000000000000000000000000000000000000000000000000000000000000000000000000000000000000000000000000000000000000000000000000000000000000000000000000000000000000000000000000000000000000000000000000000000000008302000001887fffffffffffffff84122017a88203e880a0c7625b975529aece279cd8c3cb6647d5f88c3a2b920d527ec655b9c5e94a975988b69416fc53d0a759f9011af90117800184122017a894095e7baea6a6c7c4c2dfeb977efac326af552d878421b918f0b8b19a7f000000000000000000000000000000000000000000000000000000000000c3507f0000000000000000000000000000000000000000000000000000000000000000117f00000000000000000000000100000000000000000000000000000000000000007fffffffffffffffffffffffffffffffffffffffffffffffffffffffffffffffff427f000000000000000000000000945304eb96065b2a98b57a48a06ae28d285a71b59396333257866573431ba0d2d75e3e7fa6f5da68e99b2a3239f7c620de0b1e4788bc4c0e615671f99eb446a010c3fa177f6a80a333ff85c5156fdb525dcda99da9005d01d0fcda72b525cb40c0",
                "transactions" : [
                    {
                        "data" : "0x9a7f000000000000000000000000000000000000000000000000000000000000c3507f0000000000000000000000000000000000000000000000000000000000000000117f00000000000000000000000100000000000000000000000000000000000000007fffffffffffffffffffffffffffffffffffffffffffffffffffffffffffffffff427f000000000000000000000000945304eb96065b2a98b57a48a06ae28d285a71b5939633325786657343",
                        "gasLimit" : "0x122017a8",
                        "gasPrice" : "0x01",
                        "nonce" : "0x00",
                        "r" : "0xd2d75e3e7fa6f5da68e99b2a3239f7c620de0b1e4788bc4c0e615671f99eb446",
                        "s" : "0x10c3fa177f6a80a333ff85c5156fdb525dcda99da9005d01d0fcda72b525cb40",
                        "to" : "0x095e7baea6a6c7c4c2dfeb977efac326af552d87",
                        "v" : "0x1b",
                        "value" : "0x21b918f0"
                    }
                ],
                "uncleHeaders" : [
                ]
            }
        ],
        "genesisBlockHeader" : {
            "bloom" : "0x00000000000000000000000000000000000000000000000000000000000000000000000000000000000000000000000000000000000000000000000000000000000000000000000000000000000000000000000000000000000000000000000000000000000000000000000000000000000000000000000000000000000000000000000000000000000000000000000000000000000000000000000000000000000000000000000000000000000000000000000000000000000000000000000000000000000000000000000000000000000000000000000000000000000000000000000000000000000000000000000000000000000000000000000000000000",
            "coinbase" : "0x945304eb96065b2a98b57a48a06ae28d285a71b5",
            "difficulty" : "0x020000",
            "extraData" : "0x42",
            "gasLimit" : "0x7fffffffffffffff",
            "gasUsed" : "0x00",
            "hash" : "0x6a44da12bd6723980786396c276adf565cfb85e3fd3fc54f4bf34a291205ac4a",
            "mixHash" : "0x56e81f171bcc55a6ff8345e692c0f86e5b48e01b996cadc001622fb5e363b421",
            "nonce" : "0x0102030405060708",
            "number" : "0x00",
            "parentHash" : "0x0000000000000000000000000000000000000000000000000000000000000000",
            "receiptTrie" : "0x56e81f171bcc55a6ff8345e692c0f86e5b48e01b996cadc001622fb5e363b421",
            "stateRoot" : "0xd342182c2ff7fddc290acfd8d90cba28f8851ddc51353d9a2a767844d7549129",
            "timestamp" : "0x03b6",
            "transactionsTrie" : "0x56e81f171bcc55a6ff8345e692c0f86e5b48e01b996cadc001622fb5e363b421",
            "uncleHash" : "0x1dcc4de8dec75d7aab85b567b6ccd41ad312451b948a7413f0a142fd40d49347"
        },
        "genesisRLP" : "0xf901fff901faa00000000000000000000000000000000000000000000000000000000000000000a01dcc4de8dec75d7aab85b567b6ccd41ad312451b948a7413f0a142fd40d4934794945304eb96065b2a98b57a48a06ae28d285a71b5a0d342182c2ff7fddc290acfd8d90cba28f8851ddc51353d9a2a767844d7549129a056e81f171bcc55a6ff8345e692c0f86e5b48e01b996cadc001622fb5e363b421a056e81f171bcc55a6ff8345e692c0f86e5b48e01b996cadc001622fb5e363b421b90100000000000000000000000000000000000000000000000000000000000000000000000000000000000000000000000000000000000000000000000000000000000000000000000000000000000000000000000000000000000000000000000000000000000000000000000000000000000000000000000000000000000000000000000000000000000000000000000000000000000000000000000000000000000000000000000000000000000000000000000000000000000000000000000000000000000000000000000000000000000000000000000000000000000000000000000000000000000000000000000000000000000000000000000000000000008302000080887fffffffffffffff808203b642a056e81f171bcc55a6ff8345e692c0f86e5b48e01b996cadc001622fb5e363b421880102030405060708c0c0",
        "lastblockhash" : "0x6668e16e003491e9ed594e9ed7bfe0a70ceeaf969a4d60f4e7956b4504327e9a",
        "network" : "Homestead",
        "postState" : {
            "0x095e7baea6a6c7c4c2dfeb977efac326af552d87" : {
                "balance" : "0x00",
                "code" : "0x9a7f000000000000000000000000000000000000000000000000000000000000c3507f0000000000000000000000000000000000000000000000000000000000000000117f00000000000000000000000100000000000000000000000000000000000000007fffffffffffffffffffffffffffffffffffffffffffffffffffffffffffffffff427f000000000000000000000000945304eb96065b2a98b57a48a06ae28d285a71b593963332578665734360005155",
                "nonce" : "0x00",
                "storage" : {
                }
            },
            "0x945304eb96065b2a98b57a48a06ae28d285a71b5" : {
                "balance" : "0x45639182571417d6",
                "code" : "0x6000355415600957005b60203560003555",
                "nonce" : "0x00",
                "storage" : {
                }
            },
            "0xa94f5374fce5edbc8e2a8697c15331677e6ebf0b" : {
                "balance" : "0x0de0b6b39543e858",
                "code" : "",
                "nonce" : "0x01",
                "storage" : {
                }
            }
        },
        "pre" : {
            "0x095e7baea6a6c7c4c2dfeb977efac326af552d87" : {
                "balance" : "0x00",
                "code" : "0x9a7f000000000000000000000000000000000000000000000000000000000000c3507f0000000000000000000000000000000000000000000000000000000000000000117f00000000000000000000000100000000000000000000000000000000000000007fffffffffffffffffffffffffffffffffffffffffffffffffffffffffffffffff427f000000000000000000000000945304eb96065b2a98b57a48a06ae28d285a71b593963332578665734360005155",
                "nonce" : "0x00",
                "storage" : {
                }
            },
            "0x945304eb96065b2a98b57a48a06ae28d285a71b5" : {
                "balance" : "0x2e",
                "code" : "0x6000355415600957005b60203560003555",
                "nonce" : "0x00",
                "storage" : {
                }
            },
            "0xa94f5374fce5edbc8e2a8697c15331677e6ebf0b" : {
                "balance" : "0x0de0b6b3a7640000",
                "code" : "",
                "nonce" : "0x00",
                "storage" : {
                }
            }
        }
    },
    "randomStatetest566_d0g0v0_Metropolis" : {
        "blocks" : [
            {
                "blockHeader" : {
                    "bloom" : "0x00000000000000000000000000000000000000000000000000000000000000000000000000000000000000000000000000000000000000000000000000000000000000000000000000000000000000000000000000000000000000000000000000000000000000000000000000000000000000000000000000000000000000000000000000000000000000000000000000000000000000000000000000000000000000000000000000000000000000000000000000000000000000000000000000000000000000000000000000000000000000000000000000000000000000000000000000000000000000000000000000000000000000000000000000000000",
                    "coinbase" : "0x945304eb96065b2a98b57a48a06ae28d285a71b5",
                    "difficulty" : "0x020000",
                    "extraData" : "",
                    "gasLimit" : "0x7fffffffffffffff",
                    "gasUsed" : "0x122017a8",
                    "hash" : "0x3ab687fc5c1913dfcedcb090cb9f8a096a1479559f12d1b93c334bb3d2881abb",
                    "mixHash" : "0x4c3559a9e90369e2701e36d8206c7ff8f7fbcd5f2f1d6fa7065274b3f77850d4",
                    "nonce" : "0x3526e3a8a31a3464",
                    "number" : "0x01",
                    "parentHash" : "0x6a44da12bd6723980786396c276adf565cfb85e3fd3fc54f4bf34a291205ac4a",
                    "receiptTrie" : "0xce6afd1111f45a6dc790bf2d8213d3e7f7be83728ebf1815b62dd88dc22d4348",
                    "stateRoot" : "0x5eaec577c16a1d4a7327ef29fe95dd3881be715f86d280393f235efe523c6d96",
                    "timestamp" : "0x03e8",
                    "transactionsTrie" : "0x854690477d27a662b692c3520081744fa8acb39afd8f694dbc5ea803aa0b5c68",
                    "uncleHash" : "0x1dcc4de8dec75d7aab85b567b6ccd41ad312451b948a7413f0a142fd40d49347"
                },
                "rlp" : "0xf9031ff901fea06a44da12bd6723980786396c276adf565cfb85e3fd3fc54f4bf34a291205ac4aa01dcc4de8dec75d7aab85b567b6ccd41ad312451b948a7413f0a142fd40d4934794945304eb96065b2a98b57a48a06ae28d285a71b5a05eaec577c16a1d4a7327ef29fe95dd3881be715f86d280393f235efe523c6d96a0854690477d27a662b692c3520081744fa8acb39afd8f694dbc5ea803aa0b5c68a0ce6afd1111f45a6dc790bf2d8213d3e7f7be83728ebf1815b62dd88dc22d4348b90100000000000000000000000000000000000000000000000000000000000000000000000000000000000000000000000000000000000000000000000000000000000000000000000000000000000000000000000000000000000000000000000000000000000000000000000000000000000000000000000000000000000000000000000000000000000000000000000000000000000000000000000000000000000000000000000000000000000000000000000000000000000000000000000000000000000000000000000000000000000000000000000000000000000000000000000000000000000000000000000000000000000000000000000000000000008302000001887fffffffffffffff84122017a88203e880a04c3559a9e90369e2701e36d8206c7ff8f7fbcd5f2f1d6fa7065274b3f77850d4883526e3a8a31a3464f9011af90117800184122017a894095e7baea6a6c7c4c2dfeb977efac326af552d878421b918f0b8b19a7f000000000000000000000000000000000000000000000000000000000000c3507f0000000000000000000000000000000000000000000000000000000000000000117f00000000000000000000000100000000000000000000000000000000000000007fffffffffffffffffffffffffffffffffffffffffffffffffffffffffffffffff427f000000000000000000000000945304eb96065b2a98b57a48a06ae28d285a71b59396333257866573431ba0d2d75e3e7fa6f5da68e99b2a3239f7c620de0b1e4788bc4c0e615671f99eb446a010c3fa177f6a80a333ff85c5156fdb525dcda99da9005d01d0fcda72b525cb40c0",
                "transactions" : [
                    {
                        "data" : "0x9a7f000000000000000000000000000000000000000000000000000000000000c3507f0000000000000000000000000000000000000000000000000000000000000000117f00000000000000000000000100000000000000000000000000000000000000007fffffffffffffffffffffffffffffffffffffffffffffffffffffffffffffffff427f000000000000000000000000945304eb96065b2a98b57a48a06ae28d285a71b5939633325786657343",
                        "gasLimit" : "0x122017a8",
                        "gasPrice" : "0x01",
                        "nonce" : "0x00",
                        "r" : "0xd2d75e3e7fa6f5da68e99b2a3239f7c620de0b1e4788bc4c0e615671f99eb446",
                        "s" : "0x10c3fa177f6a80a333ff85c5156fdb525dcda99da9005d01d0fcda72b525cb40",
                        "to" : "0x095e7baea6a6c7c4c2dfeb977efac326af552d87",
                        "v" : "0x1b",
                        "value" : "0x21b918f0"
                    }
                ],
                "uncleHeaders" : [
                ]
            }
        ],
        "genesisBlockHeader" : {
            "bloom" : "0x00000000000000000000000000000000000000000000000000000000000000000000000000000000000000000000000000000000000000000000000000000000000000000000000000000000000000000000000000000000000000000000000000000000000000000000000000000000000000000000000000000000000000000000000000000000000000000000000000000000000000000000000000000000000000000000000000000000000000000000000000000000000000000000000000000000000000000000000000000000000000000000000000000000000000000000000000000000000000000000000000000000000000000000000000000000",
            "coinbase" : "0x945304eb96065b2a98b57a48a06ae28d285a71b5",
            "difficulty" : "0x020000",
            "extraData" : "0x42",
            "gasLimit" : "0x7fffffffffffffff",
            "gasUsed" : "0x00",
            "hash" : "0x6a44da12bd6723980786396c276adf565cfb85e3fd3fc54f4bf34a291205ac4a",
            "mixHash" : "0x56e81f171bcc55a6ff8345e692c0f86e5b48e01b996cadc001622fb5e363b421",
            "nonce" : "0x0102030405060708",
            "number" : "0x00",
            "parentHash" : "0x0000000000000000000000000000000000000000000000000000000000000000",
            "receiptTrie" : "0x56e81f171bcc55a6ff8345e692c0f86e5b48e01b996cadc001622fb5e363b421",
            "stateRoot" : "0xd342182c2ff7fddc290acfd8d90cba28f8851ddc51353d9a2a767844d7549129",
            "timestamp" : "0x03b6",
            "transactionsTrie" : "0x56e81f171bcc55a6ff8345e692c0f86e5b48e01b996cadc001622fb5e363b421",
            "uncleHash" : "0x1dcc4de8dec75d7aab85b567b6ccd41ad312451b948a7413f0a142fd40d49347"
        },
        "genesisRLP" : "0xf901fff901faa00000000000000000000000000000000000000000000000000000000000000000a01dcc4de8dec75d7aab85b567b6ccd41ad312451b948a7413f0a142fd40d4934794945304eb96065b2a98b57a48a06ae28d285a71b5a0d342182c2ff7fddc290acfd8d90cba28f8851ddc51353d9a2a767844d7549129a056e81f171bcc55a6ff8345e692c0f86e5b48e01b996cadc001622fb5e363b421a056e81f171bcc55a6ff8345e692c0f86e5b48e01b996cadc001622fb5e363b421b90100000000000000000000000000000000000000000000000000000000000000000000000000000000000000000000000000000000000000000000000000000000000000000000000000000000000000000000000000000000000000000000000000000000000000000000000000000000000000000000000000000000000000000000000000000000000000000000000000000000000000000000000000000000000000000000000000000000000000000000000000000000000000000000000000000000000000000000000000000000000000000000000000000000000000000000000000000000000000000000000000000000000000000000000000000000008302000080887fffffffffffffff808203b642a056e81f171bcc55a6ff8345e692c0f86e5b48e01b996cadc001622fb5e363b421880102030405060708c0c0",
        "lastblockhash" : "0x3ab687fc5c1913dfcedcb090cb9f8a096a1479559f12d1b93c334bb3d2881abb",
        "network" : "Metropolis",
        "postState" : {
            "0x00000000000000000000000000000000000000f0" : {
                "balance" : "0x00",
                "code" : "",
                "nonce" : "0x00",
                "storage" : {
                }
            },
            "0x095e7baea6a6c7c4c2dfeb977efac326af552d87" : {
                "balance" : "0x00",
                "code" : "0x9a7f000000000000000000000000000000000000000000000000000000000000c3507f0000000000000000000000000000000000000000000000000000000000000000117f00000000000000000000000100000000000000000000000000000000000000007fffffffffffffffffffffffffffffffffffffffffffffffffffffffffffffffff427f000000000000000000000000945304eb96065b2a98b57a48a06ae28d285a71b593963332578665734360005155",
                "nonce" : "0x00",
                "storage" : {
                }
            },
            "0x945304eb96065b2a98b57a48a06ae28d285a71b5" : {
                "balance" : "0x45639182571417d6",
                "code" : "0x6000355415600957005b60203560003555",
                "nonce" : "0x00",
                "storage" : {
                }
            },
            "0xa94f5374fce5edbc8e2a8697c15331677e6ebf0b" : {
                "balance" : "0x0de0b6b39543e858",
                "code" : "",
                "nonce" : "0x01",
                "storage" : {
                }
            }
        },
        "pre" : {
            "0x095e7baea6a6c7c4c2dfeb977efac326af552d87" : {
                "balance" : "0x00",
                "code" : "0x9a7f000000000000000000000000000000000000000000000000000000000000c3507f0000000000000000000000000000000000000000000000000000000000000000117f00000000000000000000000100000000000000000000000000000000000000007fffffffffffffffffffffffffffffffffffffffffffffffffffffffffffffffff427f000000000000000000000000945304eb96065b2a98b57a48a06ae28d285a71b593963332578665734360005155",
                "nonce" : "0x00",
                "storage" : {
                }
            },
            "0x945304eb96065b2a98b57a48a06ae28d285a71b5" : {
                "balance" : "0x2e",
                "code" : "0x6000355415600957005b60203560003555",
                "nonce" : "0x00",
                "storage" : {
                }
            },
            "0xa94f5374fce5edbc8e2a8697c15331677e6ebf0b" : {
                "balance" : "0x0de0b6b3a7640000",
                "code" : "",
                "nonce" : "0x00",
                "storage" : {
                }
            }
        }
    }
}