{
    "randomStatetest14_d0g0v0_EIP150" : {
        "blocks" : [
            {
                "blockHeader" : {
                    "bloom" : "0x00000000000000000000000000000000000000000000000000000000000000000000000000000000000000000000000000000000000000000000000000000000000000000000000000000000000000000000000000000000000000000000000000000000000000000000000000000000000000000000000000000000000000000000000000000000000000000000000000000000000000000000000000000000000000000000000000000000000000000000000000000000000000000000000000000000000000000000000000000000000000000000000000000000000000000000000000000000000000000000000000000000000000000000000000000000",
                    "coinbase" : "0x945304eb96065b2a98b57a48a06ae28d285a71b5",
                    "difficulty" : "0x020000",
                    "extraData" : "",
                    "gasLimit" : "0x7fffffffffffffff",
                    "gasUsed" : "0x8d40",
                    "hash" : "0xe1e630262280fb932d85b7425b5b6f89e63cf1e559304d13056134fa1b5eadcc",
                    "mixHash" : "0xa2fd335f264999920c7a375e33706411a366c5118a1c2b7484f9dc2146f0fbdf",
                    "nonce" : "0x7d9f51970a7ca8b7",
                    "number" : "0x01",
                    "parentHash" : "0xe1b2061a0a3988d4051bcb04ef160750ba87b6070834087da5ba38b571df533c",
                    "receiptTrie" : "0xa37521f213e95d9474c71ea7972d91d8478177d224fcbb6dceb97150508ea2f3",
                    "stateRoot" : "0x45b5c092b4441153e01976a1d4725b1ffd78980e02641200242b885cc1bf81d5",
                    "timestamp" : "0x03e8",
                    "transactionsTrie" : "0x5f17b22756fafa41f92333ea3b0560bd174e5954d009ad53fb277fc79c1022b4",
                    "uncleHash" : "0x1dcc4de8dec75d7aab85b567b6ccd41ad312451b948a7413f0a142fd40d49347"
                },
                "rlp" : "0xf90340f901fca0e1b2061a0a3988d4051bcb04ef160750ba87b6070834087da5ba38b571df533ca01dcc4de8dec75d7aab85b567b6ccd41ad312451b948a7413f0a142fd40d4934794945304eb96065b2a98b57a48a06ae28d285a71b5a045b5c092b4441153e01976a1d4725b1ffd78980e02641200242b885cc1bf81d5a05f17b22756fafa41f92333ea3b0560bd174e5954d009ad53fb277fc79c1022b4a0a37521f213e95d9474c71ea7972d91d8478177d224fcbb6dceb97150508ea2f3b90100000000000000000000000000000000000000000000000000000000000000000000000000000000000000000000000000000000000000000000000000000000000000000000000000000000000000000000000000000000000000000000000000000000000000000000000000000000000000000000000000000000000000000000000000000000000000000000000000000000000000000000000000000000000000000000000000000000000000000000000000000000000000000000000000000000000000000000000000000000000000000000000000000000000000000000000000000000000000000000000000000000000000000000000000000000008302000001887fffffffffffffff828d408203e880a0a2fd335f264999920c7a375e33706411a366c5118a1c2b7484f9dc2146f0fbdf887d9f51970a7ca8b7f9013df9013a80018454d3ff4594095e7baea6a6c7c4c2dfeb977efac326af552d878412681417b8d47fffffffffffffffffffffffffffffffffffffffffffffffffffffffffffffffff7f00000000000000000000000000000000000000000000000000000000000000007f000000000000000000000000ffffffffffffffffffffffffffffffffffffffff20547f000000000000000000000000ffffffffffffffffffffffffffffffffffffffff7f000000000000000000000000000000000000000000000000000000000000c3507ffffffffffffffffffffffffffffffffffffffffffffffffffffffffffffffffeff61853634f06b907f899d741ba04f9d49c9178cedd552809bd7ae9b15405d9563423b85c27f4b3dfd1024dc7600a061e150da395d3082a934ca0c61092b68ca9597aea90e5f3a65b2ed4a8dc6bae9c0",
                "transactions" : [
                    {
                        "data" : "0x7fffffffffffffffffffffffffffffffffffffffffffffffffffffffffffffffff7f00000000000000000000000000000000000000000000000000000000000000007f000000000000000000000000ffffffffffffffffffffffffffffffffffffffff20547f000000000000000000000000ffffffffffffffffffffffffffffffffffffffff7f000000000000000000000000000000000000000000000000000000000000c3507ffffffffffffffffffffffffffffffffffffffffffffffffffffffffffffffffeff61853634f06b907f899d74",
                        "gasLimit" : "0x54d3ff45",
                        "gasPrice" : "0x01",
                        "nonce" : "0x00",
                        "r" : "0x4f9d49c9178cedd552809bd7ae9b15405d9563423b85c27f4b3dfd1024dc7600",
                        "s" : "0x61e150da395d3082a934ca0c61092b68ca9597aea90e5f3a65b2ed4a8dc6bae9",
                        "to" : "0x095e7baea6a6c7c4c2dfeb977efac326af552d87",
                        "v" : "0x1b",
                        "value" : "0x12681417"
                    }
                ],
                "uncleHeaders" : [
                ]
            }
        ],
        "genesisBlockHeader" : {
            "bloom" : "0x00000000000000000000000000000000000000000000000000000000000000000000000000000000000000000000000000000000000000000000000000000000000000000000000000000000000000000000000000000000000000000000000000000000000000000000000000000000000000000000000000000000000000000000000000000000000000000000000000000000000000000000000000000000000000000000000000000000000000000000000000000000000000000000000000000000000000000000000000000000000000000000000000000000000000000000000000000000000000000000000000000000000000000000000000000000",
            "coinbase" : "0x945304eb96065b2a98b57a48a06ae28d285a71b5",
            "difficulty" : "0x020000",
            "extraData" : "0x42",
            "gasLimit" : "0x7fffffffffffffff",
            "gasUsed" : "0x00",
            "hash" : "0xe1b2061a0a3988d4051bcb04ef160750ba87b6070834087da5ba38b571df533c",
            "mixHash" : "0x56e81f171bcc55a6ff8345e692c0f86e5b48e01b996cadc001622fb5e363b421",
            "nonce" : "0x0102030405060708",
            "number" : "0x00",
            "parentHash" : "0x0000000000000000000000000000000000000000000000000000000000000000",
            "receiptTrie" : "0x56e81f171bcc55a6ff8345e692c0f86e5b48e01b996cadc001622fb5e363b421",
            "stateRoot" : "0x310c41fab615ca127f4f9efd8c445f0cd9dff1c6f3fb65fb7dbe396ac7cc8396",
            "timestamp" : "0x03b6",
            "transactionsTrie" : "0x56e81f171bcc55a6ff8345e692c0f86e5b48e01b996cadc001622fb5e363b421",
            "uncleHash" : "0x1dcc4de8dec75d7aab85b567b6ccd41ad312451b948a7413f0a142fd40d49347"
        },
        "genesisRLP" : "0xf901fff901faa00000000000000000000000000000000000000000000000000000000000000000a01dcc4de8dec75d7aab85b567b6ccd41ad312451b948a7413f0a142fd40d4934794945304eb96065b2a98b57a48a06ae28d285a71b5a0310c41fab615ca127f4f9efd8c445f0cd9dff1c6f3fb65fb7dbe396ac7cc8396a056e81f171bcc55a6ff8345e692c0f86e5b48e01b996cadc001622fb5e363b421a056e81f171bcc55a6ff8345e692c0f86e5b48e01b996cadc001622fb5e363b421b90100000000000000000000000000000000000000000000000000000000000000000000000000000000000000000000000000000000000000000000000000000000000000000000000000000000000000000000000000000000000000000000000000000000000000000000000000000000000000000000000000000000000000000000000000000000000000000000000000000000000000000000000000000000000000000000000000000000000000000000000000000000000000000000000000000000000000000000000000000000000000000000000000000000000000000000000000000000000000000000000000000000000000000000000000000000008302000080887fffffffffffffff808203b642a056e81f171bcc55a6ff8345e692c0f86e5b48e01b996cadc001622fb5e363b421880102030405060708c0c0",
        "lastblockhash" : "0xe1e630262280fb932d85b7425b5b6f89e63cf1e559304d13056134fa1b5eadcc",
        "network" : "EIP150",
        "postState" : {
            "0x945304eb96065b2a98b57a48a06ae28d285a71b5" : {
                "balance" : "0x4563918244f48d6e",
                "code" : "0x6000355415600957005b60203560003555",
                "nonce" : "0x00",
                "storage" : {
                }
            },
            "0xa94f5374fce5edbc8e2a8697c15331677e6ebf0b" : {
                "balance" : "0x0de0b6b394fb5ea9",
                "code" : "",
                "nonce" : "0x01",
                "storage" : {
                }
            },
            "0xfffffffffffffffffffffffffffffffffffffffe" : {
                "balance" : "0x12681417",
                "code" : "",
                "nonce" : "0x00",
                "storage" : {
                }
            }
        },
        "pre" : {
            "0x095e7baea6a6c7c4c2dfeb977efac326af552d87" : {
                "balance" : "0x00",
                "code" : "0x7fffffffffffffffffffffffffffffffffffffffffffffffffffffffffffffffff7f00000000000000000000000000000000000000000000000000000000000000007f000000000000000000000000ffffffffffffffffffffffffffffffffffffffff20547f000000000000000000000000ffffffffffffffffffffffffffffffffffffffff7f000000000000000000000000000000000000000000000000000000000000c3507ffffffffffffffffffffffffffffffffffffffffffffffffffffffffffffffffeff61853634f06b907f899d7455",
                "nonce" : "0x00",
                "storage" : {
                }
            },
            "0x945304eb96065b2a98b57a48a06ae28d285a71b5" : {
                "balance" : "0x2e",
                "code" : "0x6000355415600957005b60203560003555",
                "nonce" : "0x00",
                "storage" : {
                }
            },
            "0xa94f5374fce5edbc8e2a8697c15331677e6ebf0b" : {
                "balance" : "0x0de0b6b3a7640000",
                "code" : "",
                "nonce" : "0x00",
                "storage" : {
                }
            }
        }
    },
    "randomStatetest14_d0g0v0_EIP158" : {
        "blocks" : [
            {
                "blockHeader" : {
                    "bloom" : "0x00000000000000000000000000000000000000000000000000000000000000000000000000000000000000000000000000000000000000000000000000000000000000000000000000000000000000000000000000000000000000000000000000000000000000000000000000000000000000000000000000000000000000000000000000000000000000000000000000000000000000000000000000000000000000000000000000000000000000000000000000000000000000000000000000000000000000000000000000000000000000000000000000000000000000000000000000000000000000000000000000000000000000000000000000000000",
                    "coinbase" : "0x945304eb96065b2a98b57a48a06ae28d285a71b5",
                    "difficulty" : "0x020000",
                    "extraData" : "",
                    "gasLimit" : "0x7fffffffffffffff",
                    "gasUsed" : "0x8d40",
                    "hash" : "0x3c34e41ab30ffe9ccd1bc99e25aebda2fb53fb33b5e7d0f1b84101a042a0ebc6",
                    "mixHash" : "0xba0e5f21b3ca201782083c24f43328878a73d03a53640df80e1fafbca2d89c89",
                    "nonce" : "0xabaca3cd1378675e",
                    "number" : "0x01",
                    "parentHash" : "0xe1b2061a0a3988d4051bcb04ef160750ba87b6070834087da5ba38b571df533c",
                    "receiptTrie" : "0xa37521f213e95d9474c71ea7972d91d8478177d224fcbb6dceb97150508ea2f3",
                    "stateRoot" : "0x45b5c092b4441153e01976a1d4725b1ffd78980e02641200242b885cc1bf81d5",
                    "timestamp" : "0x03e8",
                    "transactionsTrie" : "0x5f17b22756fafa41f92333ea3b0560bd174e5954d009ad53fb277fc79c1022b4",
                    "uncleHash" : "0x1dcc4de8dec75d7aab85b567b6ccd41ad312451b948a7413f0a142fd40d49347"
                },
                "rlp" : "0xf90340f901fca0e1b2061a0a3988d4051bcb04ef160750ba87b6070834087da5ba38b571df533ca01dcc4de8dec75d7aab85b567b6ccd41ad312451b948a7413f0a142fd40d4934794945304eb96065b2a98b57a48a06ae28d285a71b5a045b5c092b4441153e01976a1d4725b1ffd78980e02641200242b885cc1bf81d5a05f17b22756fafa41f92333ea3b0560bd174e5954d009ad53fb277fc79c1022b4a0a37521f213e95d9474c71ea7972d91d8478177d224fcbb6dceb97150508ea2f3b90100000000000000000000000000000000000000000000000000000000000000000000000000000000000000000000000000000000000000000000000000000000000000000000000000000000000000000000000000000000000000000000000000000000000000000000000000000000000000000000000000000000000000000000000000000000000000000000000000000000000000000000000000000000000000000000000000000000000000000000000000000000000000000000000000000000000000000000000000000000000000000000000000000000000000000000000000000000000000000000000000000000000000000000000000000000008302000001887fffffffffffffff828d408203e880a0ba0e5f21b3ca201782083c24f43328878a73d03a53640df80e1fafbca2d89c8988abaca3cd1378675ef9013df9013a80018454d3ff4594095e7baea6a6c7c4c2dfeb977efac326af552d878412681417b8d47fffffffffffffffffffffffffffffffffffffffffffffffffffffffffffffffff7f00000000000000000000000000000000000000000000000000000000000000007f000000000000000000000000ffffffffffffffffffffffffffffffffffffffff20547f000000000000000000000000ffffffffffffffffffffffffffffffffffffffff7f000000000000000000000000000000000000000000000000000000000000c3507ffffffffffffffffffffffffffffffffffffffffffffffffffffffffffffffffeff61853634f06b907f899d741ba04f9d49c9178cedd552809bd7ae9b15405d9563423b85c27f4b3dfd1024dc7600a061e150da395d3082a934ca0c61092b68ca9597aea90e5f3a65b2ed4a8dc6bae9c0",
                "transactions" : [
                    {
                        "data" : "0x7fffffffffffffffffffffffffffffffffffffffffffffffffffffffffffffffff7f00000000000000000000000000000000000000000000000000000000000000007f000000000000000000000000ffffffffffffffffffffffffffffffffffffffff20547f000000000000000000000000ffffffffffffffffffffffffffffffffffffffff7f000000000000000000000000000000000000000000000000000000000000c3507ffffffffffffffffffffffffffffffffffffffffffffffffffffffffffffffffeff61853634f06b907f899d74",
                        "gasLimit" : "0x54d3ff45",
                        "gasPrice" : "0x01",
                        "nonce" : "0x00",
                        "r" : "0x4f9d49c9178cedd552809bd7ae9b15405d9563423b85c27f4b3dfd1024dc7600",
                        "s" : "0x61e150da395d3082a934ca0c61092b68ca9597aea90e5f3a65b2ed4a8dc6bae9",
                        "to" : "0x095e7baea6a6c7c4c2dfeb977efac326af552d87",
                        "v" : "0x1b",
                        "value" : "0x12681417"
                    }
                ],
                "uncleHeaders" : [
                ]
            }
        ],
        "genesisBlockHeader" : {
            "bloom" : "0x00000000000000000000000000000000000000000000000000000000000000000000000000000000000000000000000000000000000000000000000000000000000000000000000000000000000000000000000000000000000000000000000000000000000000000000000000000000000000000000000000000000000000000000000000000000000000000000000000000000000000000000000000000000000000000000000000000000000000000000000000000000000000000000000000000000000000000000000000000000000000000000000000000000000000000000000000000000000000000000000000000000000000000000000000000000",
            "coinbase" : "0x945304eb96065b2a98b57a48a06ae28d285a71b5",
            "difficulty" : "0x020000",
            "extraData" : "0x42",
            "gasLimit" : "0x7fffffffffffffff",
            "gasUsed" : "0x00",
            "hash" : "0xe1b2061a0a3988d4051bcb04ef160750ba87b6070834087da5ba38b571df533c",
            "mixHash" : "0x56e81f171bcc55a6ff8345e692c0f86e5b48e01b996cadc001622fb5e363b421",
            "nonce" : "0x0102030405060708",
            "number" : "0x00",
            "parentHash" : "0x0000000000000000000000000000000000000000000000000000000000000000",
            "receiptTrie" : "0x56e81f171bcc55a6ff8345e692c0f86e5b48e01b996cadc001622fb5e363b421",
            "stateRoot" : "0x310c41fab615ca127f4f9efd8c445f0cd9dff1c6f3fb65fb7dbe396ac7cc8396",
            "timestamp" : "0x03b6",
            "transactionsTrie" : "0x56e81f171bcc55a6ff8345e692c0f86e5b48e01b996cadc001622fb5e363b421",
            "uncleHash" : "0x1dcc4de8dec75d7aab85b567b6ccd41ad312451b948a7413f0a142fd40d49347"
        },
        "genesisRLP" : "0xf901fff901faa00000000000000000000000000000000000000000000000000000000000000000a01dcc4de8dec75d7aab85b567b6ccd41ad312451b948a7413f0a142fd40d4934794945304eb96065b2a98b57a48a06ae28d285a71b5a0310c41fab615ca127f4f9efd8c445f0cd9dff1c6f3fb65fb7dbe396ac7cc8396a056e81f171bcc55a6ff8345e692c0f86e5b48e01b996cadc001622fb5e363b421a056e81f171bcc55a6ff8345e692c0f86e5b48e01b996cadc001622fb5e363b421b90100000000000000000000000000000000000000000000000000000000000000000000000000000000000000000000000000000000000000000000000000000000000000000000000000000000000000000000000000000000000000000000000000000000000000000000000000000000000000000000000000000000000000000000000000000000000000000000000000000000000000000000000000000000000000000000000000000000000000000000000000000000000000000000000000000000000000000000000000000000000000000000000000000000000000000000000000000000000000000000000000000000000000000000000000000000008302000080887fffffffffffffff808203b642a056e81f171bcc55a6ff8345e692c0f86e5b48e01b996cadc001622fb5e363b421880102030405060708c0c0",
        "lastblockhash" : "0x3c34e41ab30ffe9ccd1bc99e25aebda2fb53fb33b5e7d0f1b84101a042a0ebc6",
        "network" : "EIP158",
        "postState" : {
            "0x945304eb96065b2a98b57a48a06ae28d285a71b5" : {
                "balance" : "0x4563918244f48d6e",
                "code" : "0x6000355415600957005b60203560003555",
                "nonce" : "0x00",
                "storage" : {
                }
            },
            "0xa94f5374fce5edbc8e2a8697c15331677e6ebf0b" : {
                "balance" : "0x0de0b6b394fb5ea9",
                "code" : "",
                "nonce" : "0x01",
                "storage" : {
                }
            },
            "0xfffffffffffffffffffffffffffffffffffffffe" : {
                "balance" : "0x12681417",
                "code" : "",
                "nonce" : "0x00",
                "storage" : {
                }
            }
        },
        "pre" : {
            "0x095e7baea6a6c7c4c2dfeb977efac326af552d87" : {
                "balance" : "0x00",
                "code" : "0x7fffffffffffffffffffffffffffffffffffffffffffffffffffffffffffffffff7f00000000000000000000000000000000000000000000000000000000000000007f000000000000000000000000ffffffffffffffffffffffffffffffffffffffff20547f000000000000000000000000ffffffffffffffffffffffffffffffffffffffff7f000000000000000000000000000000000000000000000000000000000000c3507ffffffffffffffffffffffffffffffffffffffffffffffffffffffffffffffffeff61853634f06b907f899d7455",
                "nonce" : "0x00",
                "storage" : {
                }
            },
            "0x945304eb96065b2a98b57a48a06ae28d285a71b5" : {
                "balance" : "0x2e",
                "code" : "0x6000355415600957005b60203560003555",
                "nonce" : "0x00",
                "storage" : {
                }
            },
            "0xa94f5374fce5edbc8e2a8697c15331677e6ebf0b" : {
                "balance" : "0x0de0b6b3a7640000",
                "code" : "",
                "nonce" : "0x00",
                "storage" : {
                }
            }
        }
    },
    "randomStatetest14_d0g0v0_Frontier" : {
        "blocks" : [
            {
                "blockHeader" : {
                    "bloom" : "0x00000000000000000000000000000000000000000000000000000000000000000000000000000000000000000000000000000000000000000000000000000000000000000000000000000000000000000000000000000000000000000000000000000000000000000000000000000000000000000000000000000000000000000000000000000000000000000000000000000000000000000000000000000000000000000000000000000000000000000000000000000000000000000000000000000000000000000000000000000000000000000000000000000000000000000000000000000000000000000000000000000000000000000000000000000000",
                    "coinbase" : "0x945304eb96065b2a98b57a48a06ae28d285a71b5",
                    "difficulty" : "0x020000",
                    "extraData" : "",
                    "gasLimit" : "0x7fffffffffffffff",
                    "gasUsed" : "0x3a9d",
                    "hash" : "0x8eef322550fe213080034c5fea0055089844cb20e4365a9e66af488c02625d13",
                    "mixHash" : "0x4819499e292ba6f5664b8e4f770c57591d42b62f7de7efccb7d8c071103a15fc",
                    "nonce" : "0xf271802a60bf685f",
                    "number" : "0x01",
                    "parentHash" : "0xe1b2061a0a3988d4051bcb04ef160750ba87b6070834087da5ba38b571df533c",
                    "receiptTrie" : "0x6eb6268c8cdb0ad346dbd609384686dbc3a3fcff58327f460e264eeacc4096ee",
                    "stateRoot" : "0xd51d55daa7f7ff29fbc1ce911a8b933a1babbd22b7db427531b06d0efaf5cc6d",
                    "timestamp" : "0x03e8",
                    "transactionsTrie" : "0x5f17b22756fafa41f92333ea3b0560bd174e5954d009ad53fb277fc79c1022b4",
                    "uncleHash" : "0x1dcc4de8dec75d7aab85b567b6ccd41ad312451b948a7413f0a142fd40d49347"
                },
                "rlp" : "0xf90340f901fca0e1b2061a0a3988d4051bcb04ef160750ba87b6070834087da5ba38b571df533ca01dcc4de8dec75d7aab85b567b6ccd41ad312451b948a7413f0a142fd40d4934794945304eb96065b2a98b57a48a06ae28d285a71b5a0d51d55daa7f7ff29fbc1ce911a8b933a1babbd22b7db427531b06d0efaf5cc6da05f17b22756fafa41f92333ea3b0560bd174e5954d009ad53fb277fc79c1022b4a06eb6268c8cdb0ad346dbd609384686dbc3a3fcff58327f460e264eeacc4096eeb90100000000000000000000000000000000000000000000000000000000000000000000000000000000000000000000000000000000000000000000000000000000000000000000000000000000000000000000000000000000000000000000000000000000000000000000000000000000000000000000000000000000000000000000000000000000000000000000000000000000000000000000000000000000000000000000000000000000000000000000000000000000000000000000000000000000000000000000000000000000000000000000000000000000000000000000000000000000000000000000000000000000000000000000000000000000008302000001887fffffffffffffff823a9d8203e880a04819499e292ba6f5664b8e4f770c57591d42b62f7de7efccb7d8c071103a15fc88f271802a60bf685ff9013df9013a80018454d3ff4594095e7baea6a6c7c4c2dfeb977efac326af552d878412681417b8d47fffffffffffffffffffffffffffffffffffffffffffffffffffffffffffffffff7f00000000000000000000000000000000000000000000000000000000000000007f000000000000000000000000ffffffffffffffffffffffffffffffffffffffff20547f000000000000000000000000ffffffffffffffffffffffffffffffffffffffff7f000000000000000000000000000000000000000000000000000000000000c3507ffffffffffffffffffffffffffffffffffffffffffffffffffffffffffffffffeff61853634f06b907f899d741ba04f9d49c9178cedd552809bd7ae9b15405d9563423b85c27f4b3dfd1024dc7600a061e150da395d3082a934ca0c61092b68ca9597aea90e5f3a65b2ed4a8dc6bae9c0",
                "transactions" : [
                    {
                        "data" : "0x7fffffffffffffffffffffffffffffffffffffffffffffffffffffffffffffffff7f00000000000000000000000000000000000000000000000000000000000000007f000000000000000000000000ffffffffffffffffffffffffffffffffffffffff20547f000000000000000000000000ffffffffffffffffffffffffffffffffffffffff7f000000000000000000000000000000000000000000000000000000000000c3507ffffffffffffffffffffffffffffffffffffffffffffffffffffffffffffffffeff61853634f06b907f899d74",
                        "gasLimit" : "0x54d3ff45",
                        "gasPrice" : "0x01",
                        "nonce" : "0x00",
                        "r" : "0x4f9d49c9178cedd552809bd7ae9b15405d9563423b85c27f4b3dfd1024dc7600",
                        "s" : "0x61e150da395d3082a934ca0c61092b68ca9597aea90e5f3a65b2ed4a8dc6bae9",
                        "to" : "0x095e7baea6a6c7c4c2dfeb977efac326af552d87",
                        "v" : "0x1b",
                        "value" : "0x12681417"
                    }
                ],
                "uncleHeaders" : [
                ]
            }
        ],
        "genesisBlockHeader" : {
            "bloom" : "0x00000000000000000000000000000000000000000000000000000000000000000000000000000000000000000000000000000000000000000000000000000000000000000000000000000000000000000000000000000000000000000000000000000000000000000000000000000000000000000000000000000000000000000000000000000000000000000000000000000000000000000000000000000000000000000000000000000000000000000000000000000000000000000000000000000000000000000000000000000000000000000000000000000000000000000000000000000000000000000000000000000000000000000000000000000000",
            "coinbase" : "0x945304eb96065b2a98b57a48a06ae28d285a71b5",
            "difficulty" : "0x020000",
            "extraData" : "0x42",
            "gasLimit" : "0x7fffffffffffffff",
            "gasUsed" : "0x00",
            "hash" : "0xe1b2061a0a3988d4051bcb04ef160750ba87b6070834087da5ba38b571df533c",
            "mixHash" : "0x56e81f171bcc55a6ff8345e692c0f86e5b48e01b996cadc001622fb5e363b421",
            "nonce" : "0x0102030405060708",
            "number" : "0x00",
            "parentHash" : "0x0000000000000000000000000000000000000000000000000000000000000000",
            "receiptTrie" : "0x56e81f171bcc55a6ff8345e692c0f86e5b48e01b996cadc001622fb5e363b421",
            "stateRoot" : "0x310c41fab615ca127f4f9efd8c445f0cd9dff1c6f3fb65fb7dbe396ac7cc8396",
            "timestamp" : "0x03b6",
            "transactionsTrie" : "0x56e81f171bcc55a6ff8345e692c0f86e5b48e01b996cadc001622fb5e363b421",
            "uncleHash" : "0x1dcc4de8dec75d7aab85b567b6ccd41ad312451b948a7413f0a142fd40d49347"
        },
        "genesisRLP" : "0xf901fff901faa00000000000000000000000000000000000000000000000000000000000000000a01dcc4de8dec75d7aab85b567b6ccd41ad312451b948a7413f0a142fd40d4934794945304eb96065b2a98b57a48a06ae28d285a71b5a0310c41fab615ca127f4f9efd8c445f0cd9dff1c6f3fb65fb7dbe396ac7cc8396a056e81f171bcc55a6ff8345e692c0f86e5b48e01b996cadc001622fb5e363b421a056e81f171bcc55a6ff8345e692c0f86e5b48e01b996cadc001622fb5e363b421b90100000000000000000000000000000000000000000000000000000000000000000000000000000000000000000000000000000000000000000000000000000000000000000000000000000000000000000000000000000000000000000000000000000000000000000000000000000000000000000000000000000000000000000000000000000000000000000000000000000000000000000000000000000000000000000000000000000000000000000000000000000000000000000000000000000000000000000000000000000000000000000000000000000000000000000000000000000000000000000000000000000000000000000000000000000000008302000080887fffffffffffffff808203b642a056e81f171bcc55a6ff8345e692c0f86e5b48e01b996cadc001622fb5e363b421880102030405060708c0c0",
        "lastblockhash" : "0x8eef322550fe213080034c5fea0055089844cb20e4365a9e66af488c02625d13",
        "network" : "Frontier",
        "postState" : {
            "0x945304eb96065b2a98b57a48a06ae28d285a71b5" : {
                "balance" : "0x4563918244f43acb",
                "code" : "0x6000355415600957005b60203560003555",
                "nonce" : "0x00",
                "storage" : {
                }
            },
            "0xa94f5374fce5edbc8e2a8697c15331677e6ebf0b" : {
                "balance" : "0x0de0b6b394fbb14c",
                "code" : "",
                "nonce" : "0x01",
                "storage" : {
                }
            },
            "0xfffffffffffffffffffffffffffffffffffffffe" : {
                "balance" : "0x12681417",
                "code" : "",
                "nonce" : "0x00",
                "storage" : {
                }
            }
        },
        "pre" : {
            "0x095e7baea6a6c7c4c2dfeb977efac326af552d87" : {
                "balance" : "0x00",
                "code" : "0x7fffffffffffffffffffffffffffffffffffffffffffffffffffffffffffffffff7f00000000000000000000000000000000000000000000000000000000000000007f000000000000000000000000ffffffffffffffffffffffffffffffffffffffff20547f000000000000000000000000ffffffffffffffffffffffffffffffffffffffff7f000000000000000000000000000000000000000000000000000000000000c3507ffffffffffffffffffffffffffffffffffffffffffffffffffffffffffffffffeff61853634f06b907f899d7455",
                "nonce" : "0x00",
                "storage" : {
                }
            },
            "0x945304eb96065b2a98b57a48a06ae28d285a71b5" : {
                "balance" : "0x2e",
                "code" : "0x6000355415600957005b60203560003555",
                "nonce" : "0x00",
                "storage" : {
                }
            },
            "0xa94f5374fce5edbc8e2a8697c15331677e6ebf0b" : {
                "balance" : "0x0de0b6b3a7640000",
                "code" : "",
                "nonce" : "0x00",
                "storage" : {
                }
            }
        }
    },
    "randomStatetest14_d0g0v0_Homestead" : {
        "blocks" : [
            {
                "blockHeader" : {
                    "bloom" : "0x00000000000000000000000000000000000000000000000000000000000000000000000000000000000000000000000000000000000000000000000000000000000000000000000000000000000000000000000000000000000000000000000000000000000000000000000000000000000000000000000000000000000000000000000000000000000000000000000000000000000000000000000000000000000000000000000000000000000000000000000000000000000000000000000000000000000000000000000000000000000000000000000000000000000000000000000000000000000000000000000000000000000000000000000000000000",
                    "coinbase" : "0x945304eb96065b2a98b57a48a06ae28d285a71b5",
                    "difficulty" : "0x020000",
                    "extraData" : "",
                    "gasLimit" : "0x7fffffffffffffff",
                    "gasUsed" : "0x3a9d",
                    "hash" : "0x1c9f87d57ffc5183d801947ba3246633a3bc83bfe03ac116d90bca1dd3e807df",
                    "mixHash" : "0x0c06613411e754d414fd85994910c45e2b5312e18f93a2bed7719ba7272db5b6",
                    "nonce" : "0x1891dd48ef78b7ff",
                    "number" : "0x01",
                    "parentHash" : "0xe1b2061a0a3988d4051bcb04ef160750ba87b6070834087da5ba38b571df533c",
                    "receiptTrie" : "0x6eb6268c8cdb0ad346dbd609384686dbc3a3fcff58327f460e264eeacc4096ee",
                    "stateRoot" : "0xd51d55daa7f7ff29fbc1ce911a8b933a1babbd22b7db427531b06d0efaf5cc6d",
                    "timestamp" : "0x03e8",
                    "transactionsTrie" : "0x5f17b22756fafa41f92333ea3b0560bd174e5954d009ad53fb277fc79c1022b4",
                    "uncleHash" : "0x1dcc4de8dec75d7aab85b567b6ccd41ad312451b948a7413f0a142fd40d49347"
                },
                "rlp" : "0xf90340f901fca0e1b2061a0a3988d4051bcb04ef160750ba87b6070834087da5ba38b571df533ca01dcc4de8dec75d7aab85b567b6ccd41ad312451b948a7413f0a142fd40d4934794945304eb96065b2a98b57a48a06ae28d285a71b5a0d51d55daa7f7ff29fbc1ce911a8b933a1babbd22b7db427531b06d0efaf5cc6da05f17b22756fafa41f92333ea3b0560bd174e5954d009ad53fb277fc79c1022b4a06eb6268c8cdb0ad346dbd609384686dbc3a3fcff58327f460e264eeacc4096eeb90100000000000000000000000000000000000000000000000000000000000000000000000000000000000000000000000000000000000000000000000000000000000000000000000000000000000000000000000000000000000000000000000000000000000000000000000000000000000000000000000000000000000000000000000000000000000000000000000000000000000000000000000000000000000000000000000000000000000000000000000000000000000000000000000000000000000000000000000000000000000000000000000000000000000000000000000000000000000000000000000000000000000000000000000000000000008302000001887fffffffffffffff823a9d8203e880a00c06613411e754d414fd85994910c45e2b5312e18f93a2bed7719ba7272db5b6881891dd48ef78b7fff9013df9013a80018454d3ff4594095e7baea6a6c7c4c2dfeb977efac326af552d878412681417b8d47fffffffffffffffffffffffffffffffffffffffffffffffffffffffffffffffff7f00000000000000000000000000000000000000000000000000000000000000007f000000000000000000000000ffffffffffffffffffffffffffffffffffffffff20547f000000000000000000000000ffffffffffffffffffffffffffffffffffffffff7f000000000000000000000000000000000000000000000000000000000000c3507ffffffffffffffffffffffffffffffffffffffffffffffffffffffffffffffffeff61853634f06b907f899d741ba04f9d49c9178cedd552809bd7ae9b15405d9563423b85c27f4b3dfd1024dc7600a061e150da395d3082a934ca0c61092b68ca9597aea90e5f3a65b2ed4a8dc6bae9c0",
                "transactions" : [
                    {
                        "data" : "0x7fffffffffffffffffffffffffffffffffffffffffffffffffffffffffffffffff7f00000000000000000000000000000000000000000000000000000000000000007f000000000000000000000000ffffffffffffffffffffffffffffffffffffffff20547f000000000000000000000000ffffffffffffffffffffffffffffffffffffffff7f000000000000000000000000000000000000000000000000000000000000c3507ffffffffffffffffffffffffffffffffffffffffffffffffffffffffffffffffeff61853634f06b907f899d74",
                        "gasLimit" : "0x54d3ff45",
                        "gasPrice" : "0x01",
                        "nonce" : "0x00",
                        "r" : "0x4f9d49c9178cedd552809bd7ae9b15405d9563423b85c27f4b3dfd1024dc7600",
                        "s" : "0x61e150da395d3082a934ca0c61092b68ca9597aea90e5f3a65b2ed4a8dc6bae9",
                        "to" : "0x095e7baea6a6c7c4c2dfeb977efac326af552d87",
                        "v" : "0x1b",
                        "value" : "0x12681417"
                    }
                ],
                "uncleHeaders" : [
                ]
            }
        ],
        "genesisBlockHeader" : {
            "bloom" : "0x00000000000000000000000000000000000000000000000000000000000000000000000000000000000000000000000000000000000000000000000000000000000000000000000000000000000000000000000000000000000000000000000000000000000000000000000000000000000000000000000000000000000000000000000000000000000000000000000000000000000000000000000000000000000000000000000000000000000000000000000000000000000000000000000000000000000000000000000000000000000000000000000000000000000000000000000000000000000000000000000000000000000000000000000000000000",
            "coinbase" : "0x945304eb96065b2a98b57a48a06ae28d285a71b5",
            "difficulty" : "0x020000",
            "extraData" : "0x42",
            "gasLimit" : "0x7fffffffffffffff",
            "gasUsed" : "0x00",
            "hash" : "0xe1b2061a0a3988d4051bcb04ef160750ba87b6070834087da5ba38b571df533c",
            "mixHash" : "0x56e81f171bcc55a6ff8345e692c0f86e5b48e01b996cadc001622fb5e363b421",
            "nonce" : "0x0102030405060708",
            "number" : "0x00",
            "parentHash" : "0x0000000000000000000000000000000000000000000000000000000000000000",
            "receiptTrie" : "0x56e81f171bcc55a6ff8345e692c0f86e5b48e01b996cadc001622fb5e363b421",
            "stateRoot" : "0x310c41fab615ca127f4f9efd8c445f0cd9dff1c6f3fb65fb7dbe396ac7cc8396",
            "timestamp" : "0x03b6",
            "transactionsTrie" : "0x56e81f171bcc55a6ff8345e692c0f86e5b48e01b996cadc001622fb5e363b421",
            "uncleHash" : "0x1dcc4de8dec75d7aab85b567b6ccd41ad312451b948a7413f0a142fd40d49347"
        },
        "genesisRLP" : "0xf901fff901faa00000000000000000000000000000000000000000000000000000000000000000a01dcc4de8dec75d7aab85b567b6ccd41ad312451b948a7413f0a142fd40d4934794945304eb96065b2a98b57a48a06ae28d285a71b5a0310c41fab615ca127f4f9efd8c445f0cd9dff1c6f3fb65fb7dbe396ac7cc8396a056e81f171bcc55a6ff8345e692c0f86e5b48e01b996cadc001622fb5e363b421a056e81f171bcc55a6ff8345e692c0f86e5b48e01b996cadc001622fb5e363b421b90100000000000000000000000000000000000000000000000000000000000000000000000000000000000000000000000000000000000000000000000000000000000000000000000000000000000000000000000000000000000000000000000000000000000000000000000000000000000000000000000000000000000000000000000000000000000000000000000000000000000000000000000000000000000000000000000000000000000000000000000000000000000000000000000000000000000000000000000000000000000000000000000000000000000000000000000000000000000000000000000000000000000000000000000000000000008302000080887fffffffffffffff808203b642a056e81f171bcc55a6ff8345e692c0f86e5b48e01b996cadc001622fb5e363b421880102030405060708c0c0",
        "lastblockhash" : "0x1c9f87d57ffc5183d801947ba3246633a3bc83bfe03ac116d90bca1dd3e807df",
        "network" : "Homestead",
        "postState" : {
            "0x945304eb96065b2a98b57a48a06ae28d285a71b5" : {
                "balance" : "0x4563918244f43acb",
                "code" : "0x6000355415600957005b60203560003555",
                "nonce" : "0x00",
                "storage" : {
                }
            },
            "0xa94f5374fce5edbc8e2a8697c15331677e6ebf0b" : {
                "balance" : "0x0de0b6b394fbb14c",
                "code" : "",
                "nonce" : "0x01",
                "storage" : {
                }
            },
            "0xfffffffffffffffffffffffffffffffffffffffe" : {
                "balance" : "0x12681417",
                "code" : "",
                "nonce" : "0x00",
                "storage" : {
                }
            }
        },
        "pre" : {
            "0x095e7baea6a6c7c4c2dfeb977efac326af552d87" : {
                "balance" : "0x00",
                "code" : "0x7fffffffffffffffffffffffffffffffffffffffffffffffffffffffffffffffff7f00000000000000000000000000000000000000000000000000000000000000007f000000000000000000000000ffffffffffffffffffffffffffffffffffffffff20547f000000000000000000000000ffffffffffffffffffffffffffffffffffffffff7f000000000000000000000000000000000000000000000000000000000000c3507ffffffffffffffffffffffffffffffffffffffffffffffffffffffffffffffffeff61853634f06b907f899d7455",
                "nonce" : "0x00",
                "storage" : {
                }
            },
            "0x945304eb96065b2a98b57a48a06ae28d285a71b5" : {
                "balance" : "0x2e",
                "code" : "0x6000355415600957005b60203560003555",
                "nonce" : "0x00",
                "storage" : {
                }
            },
            "0xa94f5374fce5edbc8e2a8697c15331677e6ebf0b" : {
                "balance" : "0x0de0b6b3a7640000",
                "code" : "",
                "nonce" : "0x00",
                "storage" : {
                }
            }
        }
    },
    "randomStatetest14_d0g0v0_Metropolis" : {
        "blocks" : [
            {
                "blockHeader" : {
                    "bloom" : "0x00000000000000000000000000000000000000000000000000000000000000000000000000000000000000000000000000000000000000000000000000000000000000000000000000000000000000000000000000000000000000000000000000000000000000000000000000000000000000000000000000000000000000000000000000000000000000000000000000000000000000000000000000000000000000000000000000000000000000000000000000000000000000000000000000000000000000000000000000000000000000000000000000000000000000000000000000000000000000000000000000000000000000000000000000000000",
                    "coinbase" : "0x945304eb96065b2a98b57a48a06ae28d285a71b5",
                    "difficulty" : "0x020000",
                    "extraData" : "",
                    "gasLimit" : "0x7fffffffffffffff",
                    "gasUsed" : "0x8d40",
                    "hash" : "0x60a345fc23e713e1ebfe7b8ff44496a5c5080efae0b1a4ee51a33b8c79d79fd6",
                    "mixHash" : "0x2d2e13e6ad751184d00cdf038c8f6622f5b55aa8602e2956a67241f4106498f1",
                    "nonce" : "0x87e40e21de8070c1",
                    "number" : "0x01",
                    "parentHash" : "0xe1b2061a0a3988d4051bcb04ef160750ba87b6070834087da5ba38b571df533c",
                    "receiptTrie" : "0x03fbf3b3cf46f1f5f7d2208e0146edcbe167e96b8236af698a2d709f020d29a8",
                    "stateRoot" : "0xa334c28cbe497e586967a1163570e475289e58f77404d405b0a79fdc4b6fe81d",
                    "timestamp" : "0x03e8",
                    "transactionsTrie" : "0x5f17b22756fafa41f92333ea3b0560bd174e5954d009ad53fb277fc79c1022b4",
                    "uncleHash" : "0x1dcc4de8dec75d7aab85b567b6ccd41ad312451b948a7413f0a142fd40d49347"
                },
                "rlp" : "0xf90340f901fca0e1b2061a0a3988d4051bcb04ef160750ba87b6070834087da5ba38b571df533ca01dcc4de8dec75d7aab85b567b6ccd41ad312451b948a7413f0a142fd40d4934794945304eb96065b2a98b57a48a06ae28d285a71b5a0a334c28cbe497e586967a1163570e475289e58f77404d405b0a79fdc4b6fe81da05f17b22756fafa41f92333ea3b0560bd174e5954d009ad53fb277fc79c1022b4a003fbf3b3cf46f1f5f7d2208e0146edcbe167e96b8236af698a2d709f020d29a8b90100000000000000000000000000000000000000000000000000000000000000000000000000000000000000000000000000000000000000000000000000000000000000000000000000000000000000000000000000000000000000000000000000000000000000000000000000000000000000000000000000000000000000000000000000000000000000000000000000000000000000000000000000000000000000000000000000000000000000000000000000000000000000000000000000000000000000000000000000000000000000000000000000000000000000000000000000000000000000000000000000000000000000000000000000000000008302000001887fffffffffffffff828d408203e880a02d2e13e6ad751184d00cdf038c8f6622f5b55aa8602e2956a67241f4106498f18887e40e21de8070c1f9013df9013a80018454d3ff4594095e7baea6a6c7c4c2dfeb977efac326af552d878412681417b8d47fffffffffffffffffffffffffffffffffffffffffffffffffffffffffffffffff7f00000000000000000000000000000000000000000000000000000000000000007f000000000000000000000000ffffffffffffffffffffffffffffffffffffffff20547f000000000000000000000000ffffffffffffffffffffffffffffffffffffffff7f000000000000000000000000000000000000000000000000000000000000c3507ffffffffffffffffffffffffffffffffffffffffffffffffffffffffffffffffeff61853634f06b907f899d741ba04f9d49c9178cedd552809bd7ae9b15405d9563423b85c27f4b3dfd1024dc7600a061e150da395d3082a934ca0c61092b68ca9597aea90e5f3a65b2ed4a8dc6bae9c0",
                "transactions" : [
                    {
                        "data" : "0x7fffffffffffffffffffffffffffffffffffffffffffffffffffffffffffffffff7f00000000000000000000000000000000000000000000000000000000000000007f000000000000000000000000ffffffffffffffffffffffffffffffffffffffff20547f000000000000000000000000ffffffffffffffffffffffffffffffffffffffff7f000000000000000000000000000000000000000000000000000000000000c3507ffffffffffffffffffffffffffffffffffffffffffffffffffffffffffffffffeff61853634f06b907f899d74",
                        "gasLimit" : "0x54d3ff45",
                        "gasPrice" : "0x01",
                        "nonce" : "0x00",
                        "r" : "0x4f9d49c9178cedd552809bd7ae9b15405d9563423b85c27f4b3dfd1024dc7600",
                        "s" : "0x61e150da395d3082a934ca0c61092b68ca9597aea90e5f3a65b2ed4a8dc6bae9",
                        "to" : "0x095e7baea6a6c7c4c2dfeb977efac326af552d87",
                        "v" : "0x1b",
                        "value" : "0x12681417"
                    }
                ],
                "uncleHeaders" : [
                ]
            }
        ],
        "genesisBlockHeader" : {
            "bloom" : "0x00000000000000000000000000000000000000000000000000000000000000000000000000000000000000000000000000000000000000000000000000000000000000000000000000000000000000000000000000000000000000000000000000000000000000000000000000000000000000000000000000000000000000000000000000000000000000000000000000000000000000000000000000000000000000000000000000000000000000000000000000000000000000000000000000000000000000000000000000000000000000000000000000000000000000000000000000000000000000000000000000000000000000000000000000000000",
            "coinbase" : "0x945304eb96065b2a98b57a48a06ae28d285a71b5",
            "difficulty" : "0x020000",
            "extraData" : "0x42",
            "gasLimit" : "0x7fffffffffffffff",
            "gasUsed" : "0x00",
            "hash" : "0xe1b2061a0a3988d4051bcb04ef160750ba87b6070834087da5ba38b571df533c",
            "mixHash" : "0x56e81f171bcc55a6ff8345e692c0f86e5b48e01b996cadc001622fb5e363b421",
            "nonce" : "0x0102030405060708",
            "number" : "0x00",
            "parentHash" : "0x0000000000000000000000000000000000000000000000000000000000000000",
            "receiptTrie" : "0x56e81f171bcc55a6ff8345e692c0f86e5b48e01b996cadc001622fb5e363b421",
            "stateRoot" : "0x310c41fab615ca127f4f9efd8c445f0cd9dff1c6f3fb65fb7dbe396ac7cc8396",
            "timestamp" : "0x03b6",
            "transactionsTrie" : "0x56e81f171bcc55a6ff8345e692c0f86e5b48e01b996cadc001622fb5e363b421",
            "uncleHash" : "0x1dcc4de8dec75d7aab85b567b6ccd41ad312451b948a7413f0a142fd40d49347"
        },
        "genesisRLP" : "0xf901fff901faa00000000000000000000000000000000000000000000000000000000000000000a01dcc4de8dec75d7aab85b567b6ccd41ad312451b948a7413f0a142fd40d4934794945304eb96065b2a98b57a48a06ae28d285a71b5a0310c41fab615ca127f4f9efd8c445f0cd9dff1c6f3fb65fb7dbe396ac7cc8396a056e81f171bcc55a6ff8345e692c0f86e5b48e01b996cadc001622fb5e363b421a056e81f171bcc55a6ff8345e692c0f86e5b48e01b996cadc001622fb5e363b421b90100000000000000000000000000000000000000000000000000000000000000000000000000000000000000000000000000000000000000000000000000000000000000000000000000000000000000000000000000000000000000000000000000000000000000000000000000000000000000000000000000000000000000000000000000000000000000000000000000000000000000000000000000000000000000000000000000000000000000000000000000000000000000000000000000000000000000000000000000000000000000000000000000000000000000000000000000000000000000000000000000000000000000000000000000000000008302000080887fffffffffffffff808203b642a056e81f171bcc55a6ff8345e692c0f86e5b48e01b996cadc001622fb5e363b421880102030405060708c0c0",
        "lastblockhash" : "0x60a345fc23e713e1ebfe7b8ff44496a5c5080efae0b1a4ee51a33b8c79d79fd6",
        "network" : "Metropolis",
        "postState" : {
            "0x00000000000000000000000000000000000000f0" : {
                "balance" : "0x00",
                "code" : "",
                "nonce" : "0x00",
                "storage" : {
                }
            },
            "0x945304eb96065b2a98b57a48a06ae28d285a71b5" : {
                "balance" : "0x4563918244f48d6e",
                "code" : "0x6000355415600957005b60203560003555",
                "nonce" : "0x00",
                "storage" : {
                }
            },
            "0xa94f5374fce5edbc8e2a8697c15331677e6ebf0b" : {
                "balance" : "0x0de0b6b394fb5ea9",
                "code" : "",
                "nonce" : "0x01",
                "storage" : {
                }
            },
            "0xfffffffffffffffffffffffffffffffffffffffe" : {
                "balance" : "0x12681417",
                "code" : "",
                "nonce" : "0x00",
                "storage" : {
                }
            }
        },
        "pre" : {
            "0x095e7baea6a6c7c4c2dfeb977efac326af552d87" : {
                "balance" : "0x00",
                "code" : "0x7fffffffffffffffffffffffffffffffffffffffffffffffffffffffffffffffff7f00000000000000000000000000000000000000000000000000000000000000007f000000000000000000000000ffffffffffffffffffffffffffffffffffffffff20547f000000000000000000000000ffffffffffffffffffffffffffffffffffffffff7f000000000000000000000000000000000000000000000000000000000000c3507ffffffffffffffffffffffffffffffffffffffffffffffffffffffffffffffffeff61853634f06b907f899d7455",
                "nonce" : "0x00",
                "storage" : {
                }
            },
            "0x945304eb96065b2a98b57a48a06ae28d285a71b5" : {
                "balance" : "0x2e",
                "code" : "0x6000355415600957005b60203560003555",
                "nonce" : "0x00",
                "storage" : {
                }
            },
            "0xa94f5374fce5edbc8e2a8697c15331677e6ebf0b" : {
                "balance" : "0x0de0b6b3a7640000",
                "code" : "",
                "nonce" : "0x00",
                "storage" : {
                }
            }
        }
    }
}