{
    "blobhashListBounds3" : {
        "_info" : {
            "comment" : "BLOB006",
            "filling-rpc-server" : "Nimbus-t8n 0.1.2",
            "filling-tool-version" : "retesteth-0.3.1-cancun+commit.09bf8dba.Linux.g++",
            "generatedTestHash" : "01ba1cf5fddc05ff5bab3274a00163a085099f848e79b0efc51573cd774adc1e",
            "lllcversion" : "Version: 0.5.14-develop.2023.7.11+commit.c58ab2c6.mod.Linux.g++",
            "solidity" : "Version: 0.8.20+commit.a1b79de6.Linux.g++",
            "source" : "src/EIPTestsFiller/StateTests/stEIP4844-blobtransactions/blobhashListBounds3Filler.yml",
            "sourceHash" : "2b9ca4ba344e669e2af510e4e202708207b501d7771413c5c60e23a6a327cbb3"
        },
        "env" : {
            "currentBaseFee" : "0x07",
            "currentCoinbase" : "0x2adc25665018aa1fe0e6bc666dac8fc2697ff9ba",
            "currentDifficulty" : "0x020000",
            "currentGasLimit" : "0x1000000000",
            "currentNumber" : "0x01",
            "currentRandom" : "0x0000000000000000000000000000000000000000000000000000000000020000",
            "currentTimestamp" : "0x03e8",
            "parentDataGasUsed" : "0x2000",
            "parentExcessDataGas" : "0x1000",
            "previousHash" : "0x5e20a0453cecd065ea59c37ac63e079ee08998b6045136a8ce6635c7912ec0b6"
        },
        "post" : {
            "Cancun" : [
                {
                    "hash" : "0xe2a215ff049e785e1235eae0908cc53e1dd4248a810c196907cf4c468a5c71d4",
                    "indexes" : {
                        "data" : 0,
                        "gas" : 0,
                        "value" : 0
                    },
                    "logs" : "0x1dcc4de8dec75d7aab85b567b6ccd41ad312451b948a7413f0a142fd40d49347",
                    "txbytes" : "0x03f9035f01800285012a05f200833d090094095e7baea6a6c7c4c2dfeb977efac326af552d87830186a000f85bf85994095e7baea6a6c7c4c2dfeb977efac326af552d87f842a00000000000000000000000000000000000000000000000000000000000000000a000000000000000000000000000000000000000000000000000000000000000010af90294a001a915e4d060149eb4365960e6a7a45f334393093061116b197e3240065f0001a001a915e4d060149eb4365960e6a7a45f334393093061116b197e3240065f0002a001a915e4d060149eb4365960e6a7a45f334393093061116b197e3240065f0003a001a915e4d060149eb4365960e6a7a45f334393093061116b197e3240065f0004a001a915e4d060149eb4365960e6a7a45f334393093061116b197e3240065f0005a001a915e4d060149eb4365960e6a7a45f334393093061116b197e3240065f0006a001a915e4d060149eb4365960e6a7a45f334393093061116b197e3240065f0007a001a915e4d060149eb4365960e6a7a45f334393093061116b197e3240065f0008a001a915e4d060149eb4365960e6a7a45f334393093061116b197e3240065f0009a001a915e4d060149eb4365960e6a7a45f334393093061116b197e3240065f0010a001a915e4d060149eb4365960e6a7a45f334393093061116b197e3240065f0011a001a915e4d060149eb4365960e6a7a45f334393093061116b197e3240065f0012a001a915e4d060149eb4365960e6a7a45f334393093061116b197e3240065f0013a001a915e4d060149eb4365960e6a7a45f334393093061116b197e3240065f0014a001a915e4d060149eb4365960e6a7a45f334393093061116b197e3240065f0015a001a915e4d060149eb4365960e6a7a45f334393093061116b197e3240065f0016a001a915e4d060149eb4365960e6a7a45f334393093061116b197e3240065f0017a001a915e4d060149eb4365960e6a7a45f334393093061116b197e3240065f0018a001a915e4d060149eb4365960e6a7a45f334393093061116b197e3240065f0019a001a915e4d060149eb4365960e6a7a45f334393093061116b197e3240065f002080a07b67348718a49b5e7c6f882030873feb198315051ae4b257fbd99bcc14777f53a0375219ba48b2694622d8aab97d44fc7eb2902678e51369bcc74fae65c4bab628"
                }
            ]
        },
        "pre" : {
            "0x095e7baea6a6c7c4c2dfeb977efac326af552d87" : {
                "balance" : "0x0de0b6b3a7640000",
                "code" : "0x600a4960005500",
                "nonce" : "0x00",
                "storage" : {
                }
            },
            "0xa94f5374fce5edbc8e2a8697c15331677e6ebf0b" : {
                "balance" : "0x0de0b6b3a7640000",
                "code" : "0x",
                "nonce" : "0x00",
                "storage" : {
                }
            }
        },
        "transaction" : {
            "accessLists" : [
                [
                    {
                        "address" : "0x095e7baea6a6c7c4c2dfeb977efac326af552d87",
                        "storageKeys" : [
                            "0x0000000000000000000000000000000000000000000000000000000000000000",
                            "0x0000000000000000000000000000000000000000000000000000000000000001"
                        ]
                    }
                ]
            ],
            "blobVersionedHashes" : [
                "0x01a915e4d060149eb4365960e6a7a45f334393093061116b197e3240065f0001",
                "0x01a915e4d060149eb4365960e6a7a45f334393093061116b197e3240065f0002",
                "0x01a915e4d060149eb4365960e6a7a45f334393093061116b197e3240065f0003",
                "0x01a915e4d060149eb4365960e6a7a45f334393093061116b197e3240065f0004",
                "0x01a915e4d060149eb4365960e6a7a45f334393093061116b197e3240065f0005",
                "0x01a915e4d060149eb4365960e6a7a45f334393093061116b197e3240065f0006",
                "0x01a915e4d060149eb4365960e6a7a45f334393093061116b197e3240065f0007",
                "0x01a915e4d060149eb4365960e6a7a45f334393093061116b197e3240065f0008",
                "0x01a915e4d060149eb4365960e6a7a45f334393093061116b197e3240065f0009",
                "0x01a915e4d060149eb4365960e6a7a45f334393093061116b197e3240065f0010",
                "0x01a915e4d060149eb4365960e6a7a45f334393093061116b197e3240065f0011",
                "0x01a915e4d060149eb4365960e6a7a45f334393093061116b197e3240065f0012",
                "0x01a915e4d060149eb4365960e6a7a45f334393093061116b197e3240065f0013",
                "0x01a915e4d060149eb4365960e6a7a45f334393093061116b197e3240065f0014",
                "0x01a915e4d060149eb4365960e6a7a45f334393093061116b197e3240065f0015",
                "0x01a915e4d060149eb4365960e6a7a45f334393093061116b197e3240065f0016",
                "0x01a915e4d060149eb4365960e6a7a45f334393093061116b197e3240065f0017",
                "0x01a915e4d060149eb4365960e6a7a45f334393093061116b197e3240065f0018",
                "0x01a915e4d060149eb4365960e6a7a45f334393093061116b197e3240065f0019",
                "0x01a915e4d060149eb4365960e6a7a45f334393093061116b197e3240065f0020"
            ],
            "data" : [
                "0x00"
            ],
            "gasLimit" : [
                "0x3d0900"
            ],
            "maxFeePerDataGas" : "0x0a",
            "maxFeePerGas" : "0x012a05f200",
            "maxPriorityFeePerGas" : "0x02",
            "nonce" : "0x00",
            "secretKey" : "0x45a915e4d060149eb4365960e6a7a45f334393093061116b197e3240065ff2d8",
            "sender" : "0xa94f5374fce5edbc8e2a8697c15331677e6ebf0b",
            "to" : "0x095e7baea6a6c7c4c2dfeb977efac326af552d87",
            "value" : [
                "0x0186a0"
            ]
        }
    }
}