{
    "opcodeBlobhashOutOfRange" : {
        "_info" : {
            "comment" : "BLOB003, BLOB004",
            "filling-rpc-server" : "Nimbus-t8n 0.1.2",
            "filling-tool-version" : "retesteth-0.3.1-shanghai+commit.9de66016.Linux.g++",
            "generatedTestHash" : "396dfe4ea0c2560078ca06f3c2e8d4e0f5e2782a51699c96e044b09ae4e243dc",
            "lllcversion" : "Version: 0.5.14-develop.2023.5.21+commit.a096d7a9.mod.Linux.g++",
            "solidity" : "Version: 0.8.17+commit.8df45f5f.Linux.g++",
            "source" : "src/EIPTestsFiller/StateTests/stEIP4844-blobtransactions/opcodeBlobhashOutOfRangeFiller.yml",
            "sourceHash" : "f5a2b20cc243a1b9f396f35368f657c5166c0d7bf095887c118c04bd0883b1e0"
        },
        "env" : {
            "currentBaseFee" : "0x07",
            "currentCoinbase" : "0x2adc25665018aa1fe0e6bc666dac8fc2697ff9ba",
            "currentDifficulty" : "0x020000",
            "currentGasLimit" : "0x1000000000",
            "currentNumber" : "0x01",
            "currentRandom" : "0x0000000000000000000000000000000000000000000000000000000000020000",
            "currentTimestamp" : "0x03e8",
            "parentDataGasUsed" : "0x2000",
            "parentExcessDataGas" : "0x1000",
            "previousHash" : "0x5e20a0453cecd065ea59c37ac63e079ee08998b6045136a8ce6635c7912ec0b6"
        },
        "post" : {
            "Cancun" : [
                {
                    "hash" : "0x9deeea534f5391503ba1116a4970f4a9264d5c2038426eb8a5092eea4146fc9d",
                    "indexes" : {
                        "data" : 0,
                        "gas" : 0,
                        "value" : 0
                    },
                    "logs" : "0x1dcc4de8dec75d7aab85b567b6ccd41ad312451b948a7413f0a142fd40d49347",
                    "txbytes" : "0x03f9010c01800285012a05f200833d090094095e7baea6a6c7c4c2dfeb977efac326af552d87830186a000f85bf85994095e7baea6a6c7c4c2dfeb977efac326af552d87f842a00000000000000000000000000000000000000000000000000000000000000000a000000000000000000000000000000000000000000000000000000000000000010af842a001a915e4d060149eb4365960e6a7a45f334393093061116b197e3240065ff2d8a001a915e4d060149eb4365960e6a7a45f334393093061116b197e3240065ff2d880a0bf751ed5c37bd65d3ace5b73a1c62f7388b203a82ce366392e7b76fd2de12cb1a06f2b5344e5b997d35b3a0768006196a65c4eff8ed3acad5201a105c2b59b4e8c"
                }
            ]
        },
        "pre" : {
            "0x095e7baea6a6c7c4c2dfeb977efac326af552d87" : {
                "balance" : "0x0de0b6b3a7640000",
                "code" : "0x600049600055600a4960015500",
                "nonce" : "0x00",
                "storage" : {
                    "0x00" : "0x01",
                    "0x01" : "0x01"
                }
            },
            "0xa94f5374fce5edbc8e2a8697c15331677e6ebf0b" : {
                "balance" : "0x0de0b6b3a7640000",
                "code" : "0x",
                "nonce" : "0x00",
                "storage" : {
                }
            }
        },
        "transaction" : {
            "accessLists" : [
                [
                    {
                        "address" : "0x095e7baea6a6c7c4c2dfeb977efac326af552d87",
                        "storageKeys" : [
                            "0x0000000000000000000000000000000000000000000000000000000000000000",
                            "0x0000000000000000000000000000000000000000000000000000000000000001"
                        ]
                    }
                ]
            ],
            "blobVersionedHashes" : [
                "0x01a915e4d060149eb4365960e6a7a45f334393093061116b197e3240065ff2d8",
                "0x01a915e4d060149eb4365960e6a7a45f334393093061116b197e3240065ff2d8"
            ],
            "data" : [
                "0x00"
            ],
            "gasLimit" : [
                "0x3d0900"
            ],
            "maxFeePerDataGas" : "0x0a",
            "maxFeePerGas" : "0x012a05f200",
            "maxPriorityFeePerGas" : "0x02",
            "nonce" : "0x00",
            "secretKey" : "0x45a915e4d060149eb4365960e6a7a45f334393093061116b197e3240065ff2d8",
            "sender" : "0xa94f5374fce5edbc8e2a8697c15331677e6ebf0b",
            "to" : "0x095e7baea6a6c7c4c2dfeb977efac326af552d87",
            "value" : [
                "0x0186a0"
            ]
        }
    }
}