{
    "Call1024OOG" : {
        "_info" : {
            "comment" : "calldepth with oog",
            "filling-rpc-server" : "evm version 1.13.13-unstable-034bc466-20240219",
            "filling-tool-version" : "retesteth-0.3.2-cancun+commit.014a68a5.Linux.g++",
            "generatedTestHash" : "bb447d24777b965ba09576d83a9b7358a2673cf2e067fc8f535d6b40461c0f60",
            "lllcversion" : "Version: 0.5.14-develop.2023.7.11+commit.c58ab2c6.mod.Linux.g++",
            "solidity" : "Version: 0.8.21+commit.d9974bed.Linux.g++",
            "source" : "src/GeneralStateTestsFiller/stCallCreateCallCodeTest/Call1024OOGFiller.json",
            "sourceHash" : "bbb79b0574f0865c80c5121c6ca75764530c01de073c598a148067dba94db438"
        },
        "env" : {
            "currentBaseFee" : "0x0a",
            "currentCoinbase" : "0xb94f5374fce5edbc8e2a8697c15331677e6ebf0b",
            "currentDifficulty" : "0x020000",
            "currentExcessBlobGas" : "0x00",
            "currentGasLimit" : "0x7fffffffffffffff",
            "currentNumber" : "0x01",
            "currentRandom" : "0x0000000000000000000000000000000000000000000000000000000000020000",
            "currentTimestamp" : "0x03e8"
        },
        "post" : {
            "Berlin" : [
                {
                    "hash" : "0xb74ff96f8f67ab1f59cab2e040564ad25bac758274111a5a0c0bb1ac45dd6c23",
                    "indexes" : {
                        "data" : 0,
                        "gas" : 0,
                        "value" : 0
                    },
                    "logs" : "0x1dcc4de8dec75d7aab85b567b6ccd41ad312451b948a7413f0a142fd40d49347",
                    "txbytes" : "0xf860800a83c8353a94bbbf5374fce5edbc8e2a8697c15331677e6ebf0b0a801ca014c4ac8efa19723d893b27c12947bb1cc54d3fb255456bde809d5eeacc8097c8a04214b1cf469a2dcb91dc815d900653e74c7ab9116f8b862243f2e526ee7445c5"
                },
                {
                    "hash" : "0xcac658e1ff1a16f9708b27616c9ae48e46c62dfd46ad248454d51b67d0584b6c",
                    "indexes" : {
                        "data" : 0,
                        "gas" : 1,
                        "value" : 0
                    },
                    "logs" : "0x1dcc4de8dec75d7aab85b567b6ccd41ad312451b948a7413f0a142fd40d49347",
                    "txbytes" : "0xf860800a838e397a94bbbf5374fce5edbc8e2a8697c15331677e6ebf0b0a801ba0081452c602115545e59870b3ca78afca1c2ba544e0a4b90384ab1bce3a2914fca04ca6924f74805e5e73fa054312be5b677f4fd12362c9bde45262a1e264137da0"
                },
                {
                    "hash" : "0x453023c570b9266c2b4ceb7a119340d67e04b8dac8d986170643bb72e46a769e",
                    "indexes" : {
                        "data" : 0,
                        "gas" : 2,
                        "value" : 0
                    },
                    "logs" : "0x1dcc4de8dec75d7aab85b567b6ccd41ad312451b948a7413f0a142fd40d49347",
                    "txbytes" : "0xf860800a83efe17a94bbbf5374fce5edbc8e2a8697c15331677e6ebf0b0a801ca02ba8393604eee5a91085dcc638a570907c65d83112b9d041fc9b096903510ba6a03436ebb8869c02355de0405ca29f940bdbf821b9ea2e7ea883abdb701114bcd4"
                },
                {
                    "hash" : "0xf8c22efe6ac74ca8b049dc1aed2086bc9a47b43860dd94337227123deebbe1a1",
                    "indexes" : {
                        "data" : 0,
                        "gas" : 3,
                        "value" : 0
                    },
                    "logs" : "0x1dcc4de8dec75d7aab85b567b6ccd41ad312451b948a7413f0a142fd40d49347",
                    "txbytes" : "0xf860800a83ab375a94bbbf5374fce5edbc8e2a8697c15331677e6ebf0b0a801ba0af6ac1bf646711d91dfec006b563af0c7b2193683c3dec895abfd2c42aa5ad68a02dfab9c8bf9ff3b86a37c837dfcce3bc56c5243d109b31bbc30d13183243f6bf"
                }
            ],
            "Cancun" : [
                {
                    "hash" : "0x0a7fd5bd578131649c5aa86eeeb6f44b1af198064fca901f4f6daaed844e3738",
                    "indexes" : {
                        "data" : 0,
                        "gas" : 0,
                        "value" : 0
                    },
                    "logs" : "0x1dcc4de8dec75d7aab85b567b6ccd41ad312451b948a7413f0a142fd40d49347",
                    "txbytes" : "0xf860800a83c8353a94bbbf5374fce5edbc8e2a8697c15331677e6ebf0b0a801ca014c4ac8efa19723d893b27c12947bb1cc54d3fb255456bde809d5eeacc8097c8a04214b1cf469a2dcb91dc815d900653e74c7ab9116f8b862243f2e526ee7445c5"
                },
                {
                    "hash" : "0x6dd7fef3f6782ba2e0d8ef790f04ee7410f353431fbaedd910598bc3889b9a8e",
                    "indexes" : {
                        "data" : 0,
                        "gas" : 1,
                        "value" : 0
                    },
                    "logs" : "0x1dcc4de8dec75d7aab85b567b6ccd41ad312451b948a7413f0a142fd40d49347",
                    "txbytes" : "0xf860800a838e397a94bbbf5374fce5edbc8e2a8697c15331677e6ebf0b0a801ba0081452c602115545e59870b3ca78afca1c2ba544e0a4b90384ab1bce3a2914fca04ca6924f74805e5e73fa054312be5b677f4fd12362c9bde45262a1e264137da0"
                },
                {
                    "hash" : "0x6f96e18c9701def48235442bef92d3a16779fc55ffe8f45c1d73705115f6e10f",
                    "indexes" : {
                        "data" : 0,
                        "gas" : 2,
                        "value" : 0
                    },
                    "logs" : "0x1dcc4de8dec75d7aab85b567b6ccd41ad312451b948a7413f0a142fd40d49347",
                    "txbytes" : "0xf860800a83efe17a94bbbf5374fce5edbc8e2a8697c15331677e6ebf0b0a801ca02ba8393604eee5a91085dcc638a570907c65d83112b9d041fc9b096903510ba6a03436ebb8869c02355de0405ca29f940bdbf821b9ea2e7ea883abdb701114bcd4"
                },
                {
                    "hash" : "0xa78e371f0a312d2bb4ff63e7b930e88952acec18764f2ac3b03ed0d3a1b8d52d",
                    "indexes" : {
                        "data" : 0,
                        "gas" : 3,
                        "value" : 0
                    },
                    "logs" : "0x1dcc4de8dec75d7aab85b567b6ccd41ad312451b948a7413f0a142fd40d49347",
                    "txbytes" : "0xf860800a83ab375a94bbbf5374fce5edbc8e2a8697c15331677e6ebf0b0a801ba0af6ac1bf646711d91dfec006b563af0c7b2193683c3dec895abfd2c42aa5ad68a02dfab9c8bf9ff3b86a37c837dfcce3bc56c5243d109b31bbc30d13183243f6bf"
                }
            ],
            "Istanbul" : [
                {
                    "hash" : "0x16f7bbc0cc8de724cc571cffa414a1218ea913182cf04cfda339cc5864c90469",
                    "indexes" : {
                        "data" : 0,
                        "gas" : 0,
                        "value" : 0
                    },
                    "logs" : "0x1dcc4de8dec75d7aab85b567b6ccd41ad312451b948a7413f0a142fd40d49347",
                    "txbytes" : "0xf860800a83c8353a94bbbf5374fce5edbc8e2a8697c15331677e6ebf0b0a801ca014c4ac8efa19723d893b27c12947bb1cc54d3fb255456bde809d5eeacc8097c8a04214b1cf469a2dcb91dc815d900653e74c7ab9116f8b862243f2e526ee7445c5"
                },
                {
                    "hash" : "0xb01b00d023b68458c764ba0aa783313f4829c6e957d5ade33fe59c87c86d5852",
                    "indexes" : {
                        "data" : 0,
                        "gas" : 1,
                        "value" : 0
                    },
                    "logs" : "0x1dcc4de8dec75d7aab85b567b6ccd41ad312451b948a7413f0a142fd40d49347",
                    "txbytes" : "0xf860800a838e397a94bbbf5374fce5edbc8e2a8697c15331677e6ebf0b0a801ba0081452c602115545e59870b3ca78afca1c2ba544e0a4b90384ab1bce3a2914fca04ca6924f74805e5e73fa054312be5b677f4fd12362c9bde45262a1e264137da0"
                },
                {
                    "hash" : "0xa458ba35391dddb50747ebb2b19938b589dc3717d056cb50b583540f351d2992",
                    "indexes" : {
                        "data" : 0,
                        "gas" : 2,
                        "value" : 0
                    },
                    "logs" : "0x1dcc4de8dec75d7aab85b567b6ccd41ad312451b948a7413f0a142fd40d49347",
                    "txbytes" : "0xf860800a83efe17a94bbbf5374fce5edbc8e2a8697c15331677e6ebf0b0a801ca02ba8393604eee5a91085dcc638a570907c65d83112b9d041fc9b096903510ba6a03436ebb8869c02355de0405ca29f940bdbf821b9ea2e7ea883abdb701114bcd4"
                },
                {
                    "hash" : "0xae1726e690e689e35359bf1dcf0c472bb4fc52fbd80c32c090056895fc126710",
                    "indexes" : {
                        "data" : 0,
                        "gas" : 3,
                        "value" : 0
                    },
                    "logs" : "0x1dcc4de8dec75d7aab85b567b6ccd41ad312451b948a7413f0a142fd40d49347",
                    "txbytes" : "0xf860800a83ab375a94bbbf5374fce5edbc8e2a8697c15331677e6ebf0b0a801ba0af6ac1bf646711d91dfec006b563af0c7b2193683c3dec895abfd2c42aa5ad68a02dfab9c8bf9ff3b86a37c837dfcce3bc56c5243d109b31bbc30d13183243f6bf"
                }
            ],
            "London" : [
                {
                    "hash" : "0xf2f0837d7beb4362a01c76ab7a1aefba25b506f7aa4f7d24f061901c52bf2046",
                    "indexes" : {
                        "data" : 0,
                        "gas" : 0,
                        "value" : 0
                    },
                    "logs" : "0x1dcc4de8dec75d7aab85b567b6ccd41ad312451b948a7413f0a142fd40d49347",
                    "txbytes" : "0xf860800a83c8353a94bbbf5374fce5edbc8e2a8697c15331677e6ebf0b0a801ca014c4ac8efa19723d893b27c12947bb1cc54d3fb255456bde809d5eeacc8097c8a04214b1cf469a2dcb91dc815d900653e74c7ab9116f8b862243f2e526ee7445c5"
                },
                {
                    "hash" : "0x26b0d119e122a22b17cb53e509a91682bb7967e535a5cc04152479ade8efffb3",
                    "indexes" : {
                        "data" : 0,
                        "gas" : 1,
                        "value" : 0
                    },
                    "logs" : "0x1dcc4de8dec75d7aab85b567b6ccd41ad312451b948a7413f0a142fd40d49347",
                    "txbytes" : "0xf860800a838e397a94bbbf5374fce5edbc8e2a8697c15331677e6ebf0b0a801ba0081452c602115545e59870b3ca78afca1c2ba544e0a4b90384ab1bce3a2914fca04ca6924f74805e5e73fa054312be5b677f4fd12362c9bde45262a1e264137da0"
                },
                {
                    "hash" : "0xcd9abbbc812d9fd3f1bfd9dd5f4b142048f9e60cd24d608cd9f3ecc82437b30b",
                    "indexes" : {
                        "data" : 0,
                        "gas" : 2,
                        "value" : 0
                    },
                    "logs" : "0x1dcc4de8dec75d7aab85b567b6ccd41ad312451b948a7413f0a142fd40d49347",
                    "txbytes" : "0xf860800a83efe17a94bbbf5374fce5edbc8e2a8697c15331677e6ebf0b0a801ca02ba8393604eee5a91085dcc638a570907c65d83112b9d041fc9b096903510ba6a03436ebb8869c02355de0405ca29f940bdbf821b9ea2e7ea883abdb701114bcd4"
                },
                {
                    "hash" : "0x46d71d2ae05b2553f1f1533a852a333d7579cbf0c0b2b49190d881aebdd58d02",
                    "indexes" : {
                        "data" : 0,
                        "gas" : 3,
                        "value" : 0
                    },
                    "logs" : "0x1dcc4de8dec75d7aab85b567b6ccd41ad312451b948a7413f0a142fd40d49347",
                    "txbytes" : "0xf860800a83ab375a94bbbf5374fce5edbc8e2a8697c15331677e6ebf0b0a801ba0af6ac1bf646711d91dfec006b563af0c7b2193683c3dec895abfd2c42aa5ad68a02dfab9c8bf9ff3b86a37c837dfcce3bc56c5243d109b31bbc30d13183243f6bf"
                }
            ],
            "Paris" : [
                {
                    "hash" : "0xf2f0837d7beb4362a01c76ab7a1aefba25b506f7aa4f7d24f061901c52bf2046",
                    "indexes" : {
                        "data" : 0,
                        "gas" : 0,
                        "value" : 0
                    },
                    "logs" : "0x1dcc4de8dec75d7aab85b567b6ccd41ad312451b948a7413f0a142fd40d49347",
                    "txbytes" : "0xf860800a83c8353a94bbbf5374fce5edbc8e2a8697c15331677e6ebf0b0a801ca014c4ac8efa19723d893b27c12947bb1cc54d3fb255456bde809d5eeacc8097c8a04214b1cf469a2dcb91dc815d900653e74c7ab9116f8b862243f2e526ee7445c5"
                },
                {
                    "hash" : "0x26b0d119e122a22b17cb53e509a91682bb7967e535a5cc04152479ade8efffb3",
                    "indexes" : {
                        "data" : 0,
                        "gas" : 1,
                        "value" : 0
                    },
                    "logs" : "0x1dcc4de8dec75d7aab85b567b6ccd41ad312451b948a7413f0a142fd40d49347",
                    "txbytes" : "0xf860800a838e397a94bbbf5374fce5edbc8e2a8697c15331677e6ebf0b0a801ba0081452c602115545e59870b3ca78afca1c2ba544e0a4b90384ab1bce3a2914fca04ca6924f74805e5e73fa054312be5b677f4fd12362c9bde45262a1e264137da0"
                },
                {
                    "hash" : "0xcd9abbbc812d9fd3f1bfd9dd5f4b142048f9e60cd24d608cd9f3ecc82437b30b",
                    "indexes" : {
                        "data" : 0,
                        "gas" : 2,
                        "value" : 0
                    },
                    "logs" : "0x1dcc4de8dec75d7aab85b567b6ccd41ad312451b948a7413f0a142fd40d49347",
                    "txbytes" : "0xf860800a83efe17a94bbbf5374fce5edbc8e2a8697c15331677e6ebf0b0a801ca02ba8393604eee5a91085dcc638a570907c65d83112b9d041fc9b096903510ba6a03436ebb8869c02355de0405ca29f940bdbf821b9ea2e7ea883abdb701114bcd4"
                },
                {
                    "hash" : "0x46d71d2ae05b2553f1f1533a852a333d7579cbf0c0b2b49190d881aebdd58d02",
                    "indexes" : {
                        "data" : 0,
                        "gas" : 3,
                        "value" : 0
                    },
                    "logs" : "0x1dcc4de8dec75d7aab85b567b6ccd41ad312451b948a7413f0a142fd40d49347",
                    "txbytes" : "0xf860800a83ab375a94bbbf5374fce5edbc8e2a8697c15331677e6ebf0b0a801ba0af6ac1bf646711d91dfec006b563af0c7b2193683c3dec895abfd2c42aa5ad68a02dfab9c8bf9ff3b86a37c837dfcce3bc56c5243d109b31bbc30d13183243f6bf"
                }
            ],
            "Shanghai" : [
                {
                    "hash" : "0xf2f0837d7beb4362a01c76ab7a1aefba25b506f7aa4f7d24f061901c52bf2046",
                    "indexes" : {
                        "data" : 0,
                        "gas" : 0,
                        "value" : 0
                    },
                    "logs" : "0x1dcc4de8dec75d7aab85b567b6ccd41ad312451b948a7413f0a142fd40d49347",
                    "txbytes" : "0xf860800a83c8353a94bbbf5374fce5edbc8e2a8697c15331677e6ebf0b0a801ca014c4ac8efa19723d893b27c12947bb1cc54d3fb255456bde809d5eeacc8097c8a04214b1cf469a2dcb91dc815d900653e74c7ab9116f8b862243f2e526ee7445c5"
                },
                {
                    "hash" : "0x26b0d119e122a22b17cb53e509a91682bb7967e535a5cc04152479ade8efffb3",
                    "indexes" : {
                        "data" : 0,
                        "gas" : 1,
                        "value" : 0
                    },
                    "logs" : "0x1dcc4de8dec75d7aab85b567b6ccd41ad312451b948a7413f0a142fd40d49347",
                    "txbytes" : "0xf860800a838e397a94bbbf5374fce5edbc8e2a8697c15331677e6ebf0b0a801ba0081452c602115545e59870b3ca78afca1c2ba544e0a4b90384ab1bce3a2914fca04ca6924f74805e5e73fa054312be5b677f4fd12362c9bde45262a1e264137da0"
                },
                {
                    "hash" : "0xcd9abbbc812d9fd3f1bfd9dd5f4b142048f9e60cd24d608cd9f3ecc82437b30b",
                    "indexes" : {
                        "data" : 0,
                        "gas" : 2,
                        "value" : 0
                    },
                    "logs" : "0x1dcc4de8dec75d7aab85b567b6ccd41ad312451b948a7413f0a142fd40d49347",
                    "txbytes" : "0xf860800a83efe17a94bbbf5374fce5edbc8e2a8697c15331677e6ebf0b0a801ca02ba8393604eee5a91085dcc638a570907c65d83112b9d041fc9b096903510ba6a03436ebb8869c02355de0405ca29f940bdbf821b9ea2e7ea883abdb701114bcd4"
                },
                {
                    "hash" : "0x46d71d2ae05b2553f1f1533a852a333d7579cbf0c0b2b49190d881aebdd58d02",
                    "indexes" : {
                        "data" : 0,
                        "gas" : 3,
                        "value" : 0
                    },
                    "logs" : "0x1dcc4de8dec75d7aab85b567b6ccd41ad312451b948a7413f0a142fd40d49347",
                    "txbytes" : "0xf860800a83ab375a94bbbf5374fce5edbc8e2a8697c15331677e6ebf0b0a801ba0af6ac1bf646711d91dfec006b563af0c7b2193683c3dec895abfd2c42aa5ad68a02dfab9c8bf9ff3b86a37c837dfcce3bc56c5243d109b31bbc30d13183243f6bf"
                }
            ]
        },
        "pre" : {
            "0x000f3df6d732807ef1319fb7b8bb8522d0beac02" : {
                "balance" : "0x00",
                "code" : "0x3373fffffffffffffffffffffffffffffffffffffffe14604d57602036146024575f5ffd5b5f35801560495762001fff810690815414603c575f5ffd5b62001fff01545f5260205ff35b5f5ffd5b62001fff42064281555f359062001fff015500",
                "nonce" : "0x01",
                "storage" : {
                }
            },
            "0xa94f5374fce5edbc8e2a8697c15331677e6ebf0b" : {
                "balance" : "0xffffffffffffffffffffffffffffffff",
                "code" : "0x",
                "nonce" : "0x00",
                "storage" : {
                }
            },
            "0xaaaf5374fce5edbc8e2a8697c15331677e6ebf0b" : {
                "balance" : "0x1b58",
                "code" : "0x",
                "nonce" : "0x00",
                "storage" : {
                }
            },
            "0xbbbf5374fce5edbc8e2a8697c15331677e6ebf0b" : {
                "balance" : "0x0400",
                "code" : "0x6001600054016000556000600060006000600073bbbf5374fce5edbc8e2a8697c15331677e6ebf0b610401600054046001036127105a0302f16001556103e86000540260010160025500",
                "nonce" : "0x00",
                "storage" : {
                }
            }
        },
        "transaction" : {
            "data" : [
                "0x"
            ],
            "gasLimit" : [
                "0xc8353a",
                "0x8e397a",
                "0xefe17a",
                "0xab375a"
            ],
            "gasPrice" : "0x0a",
            "nonce" : "0x00",
            "secretKey" : "0x45a915e4d060149eb4365960e6a7a45f334393093061116b197e3240065ff2d8",
            "sender" : "0xa94f5374fce5edbc8e2a8697c15331677e6ebf0b",
            "to" : "0xbbbf5374fce5edbc8e2a8697c15331677e6ebf0b",
            "value" : [
                "0x0a"
            ]
        }
    }
}