{
    "Call1024PreCalls" : {
        "_info" : {
            "comment" : "calldepth with subcall",
            "filling-rpc-server" : "evm version 1.10.2-unstable-22082f9e-20210309",
            "filling-tool-version" : "retesteth-0.1.0-accesslist+commit.47c69eb3.Linux.g++",
            "lllcversion" : "Version: 0.5.14-develop.2020.6.22+commit.9189ad7a.Linux.g++",
            "source" : "src/GeneralStateTestsFiller/stCallCreateCallCodeTest/Call1024PreCallsFiller.json",
            "sourceHash" : "99a44d1c62c2d5b7dd86a9a4defe7b329407a844d0489913cf4a837fcf4ef328"
        },
        "env" : {
            "currentCoinbase" : "0xb94f5374fce5edbc8e2a8697c15331677e6ebf0b",
            "currentDifficulty" : "0x020000",
            "currentGasLimit" : "0x7fffffffffffffff",
            "currentNumber" : "0x01",
            "currentTimestamp" : "0x03e8",
            "previousHash" : "0x5e20a0453cecd065ea59c37ac63e079ee08998b6045136a8ce6635c7912ec0b6"
        },
        "post" : {
            "Berlin" : [
                {
                    "indexes" : {
                        "data" : 0,
                        "gas" : 0,
                        "value" : 0
                    },
                    "hash" : "0x88ca74132076c366525ffad7e57098f17c77bd91e3f064936327e6fe065dceb9",
                    "txbytes" : "0xf8658001887fe000000000000194bbbf5374fce5edbc8e2a8697c15331677e6ebf0b0a801ca04c50c7d11e58e5c6f40fa1a630ffcb3a017453e7f9d0ec8ccb01033fcf9f2210a05c46375b6b333983077e152d1b6ca101d0586a6565fa75750deb1b07154bbdca",
                    "logs" : "0x1dcc4de8dec75d7aab85b567b6ccd41ad312451b948a7413f0a142fd40d49347"
                },
                {
                    "indexes" : {
                        "data" : 0,
                        "gas" : 1,
                        "value" : 0
                    },
                    "hash" : "0x88ca74132076c366525ffad7e57098f17c77bd91e3f064936327e6fe065dceb9",
                    "txbytes" : "0xf8638001860ac427f1f00194bbbf5374fce5edbc8e2a8697c15331677e6ebf0b0a801ca0cb12987c261914f0f61dd87b4839295e96bd95878d49c762930b4ff7b22988b4a05597f5154b6093743b43f825ff65a287c9999b4a7017a5c67630543da7ef3fb0",
                    "logs" : "0x1dcc4de8dec75d7aab85b567b6ccd41ad312451b948a7413f0a142fd40d49347"
                }
            ],
            "Istanbul" : [
                {
                    "indexes" : {
                        "data" : 0,
                        "gas" : 0,
                        "value" : 0
                    },
                    "hash" : "0x32b068581089c9e59bf03646e57e2c678f3149139eeb15a3fe2e4fce7342402a",
                    "txbytes" : "0xf8658001887fe000000000000194bbbf5374fce5edbc8e2a8697c15331677e6ebf0b0a801ca04c50c7d11e58e5c6f40fa1a630ffcb3a017453e7f9d0ec8ccb01033fcf9f2210a05c46375b6b333983077e152d1b6ca101d0586a6565fa75750deb1b07154bbdca",
                    "logs" : "0x1dcc4de8dec75d7aab85b567b6ccd41ad312451b948a7413f0a142fd40d49347"
                },
                {
                    "indexes" : {
                        "data" : 0,
                        "gas" : 1,
                        "value" : 0
                    },
                    "hash" : "0xbdabd3d5afcf039a5fa5a4aae0f6575be07dccbe4ff6ab894a8c01bd0028d8ad",
                    "txbytes" : "0xf8638001860ac427f1f00194bbbf5374fce5edbc8e2a8697c15331677e6ebf0b0a801ca0cb12987c261914f0f61dd87b4839295e96bd95878d49c762930b4ff7b22988b4a05597f5154b6093743b43f825ff65a287c9999b4a7017a5c67630543da7ef3fb0",
                    "logs" : "0x1dcc4de8dec75d7aab85b567b6ccd41ad312451b948a7413f0a142fd40d49347"
                }
            ]
        },
        "pre" : {
            "0xa94f5374fce5edbc8e2a8697c15331677e6ebf0b" : {
                "balance" : "0x0fffffffffffffffffffffffffffffffff",
                "code" : "0x",
                "nonce" : "0x00",
                "storage" : {
                }
            },
            "0xaaaf5374fce5edbc8e2a8697c15331677e6ebf0b" : {
                "balance" : "0x1b58",
                "code" : "0x",
                "nonce" : "0x00",
                "storage" : {
                }
            },
            "0xbbbf5374fce5edbc8e2a8697c15331677e6ebf0b" : {
                "balance" : "0x07e8",
                "code" : "0x6000600060006000600173aaaf5374fce5edbc8e2a8697c15331677e6ebf0b61fffff16002556000600060006000600173aaaf5374fce5edbc8e2a8697c15331677e6ebf0b61fffff16003556001600054016000556000600060006000600073bbbf5374fce5edbc8e2a8697c15331677e6ebf0b650ffffffffffff160015500",
                "nonce" : "0x00",
                "storage" : {
                }
            }
        },
        "transaction" : {
            "data" : [
                "0x"
            ],
            "gasLimit" : [
                "0x7fe0000000000001",
                "0x0ac427f1f001"
            ],
            "gasPrice" : "0x01",
            "nonce" : "0x00",
            "secretKey" : "0x45a915e4d060149eb4365960e6a7a45f334393093061116b197e3240065ff2d8",
            "to" : "0xbbbf5374fce5edbc8e2a8697c15331677e6ebf0b",
            "value" : [
                "0x0a"
            ]
        }
    }
}