{
    "createInitFailUndefinedInstruction" : {
        "_info" : {
            "comment" : "create fails because init code has undefined opcode, trying to suicide to it",
            "filling-rpc-server" : "evm version 1.10.2-unstable-22082f9e-20210309",
            "filling-tool-version" : "retesteth-0.1.0-accesslist+commit.47c69eb3.Linux.g++",
            "lllcversion" : "Version: 0.5.14-develop.2020.6.22+commit.9189ad7a.Linux.g++",
            "source" : "src/GeneralStateTestsFiller/stCallCreateCallCodeTest/createInitFailUndefinedInstructionFiller.json",
            "sourceHash" : "43e1597d3445951d2f8f59db868188eecd6f582097df123991b67a241fdaf147"
        },
        "env" : {
            "currentCoinbase" : "0x2adc25665018aa1fe0e6bc666dac8fc2697ff9ba",
            "currentDifficulty" : "0x020000",
            "currentGasLimit" : "0x3b9aca00",
            "currentNumber" : "0x01",
            "currentTimestamp" : "0x03e8",
            "previousHash" : "0x5e20a0453cecd065ea59c37ac63e079ee08998b6045136a8ce6635c7912ec0b6"
        },
        "post" : {
            "Berlin" : [
                {
                    "indexes" : {
                        "data" : 0,
                        "gas" : 0,
                        "value" : 0
                    },
                    "hash" : "0x373989275faa91981f122d98d1feaa20446484df5d283744f33b17b22d80a4f5",
                    "txbytes" : "0xf86480018405f5e10094095e7baea6a6c7c4c2dfeb977efac326af552d87830186a0801ba088544c93a564b4c28d2ffac2074a0c55fdd4658fe0d215596ed2e32e3ef7f56ba07fb4075d54190f825d7c47bb820284757b34fd6293904a93cddb1d3aa961ac28",
                    "logs" : "0x1dcc4de8dec75d7aab85b567b6ccd41ad312451b948a7413f0a142fd40d49347"
                }
            ],
            "Istanbul" : [
                {
                    "indexes" : {
                        "data" : 0,
                        "gas" : 0,
                        "value" : 0
                    },
                    "hash" : "0x12008b0e6d1fca3ce51f49cb74456dcbdb946a85adeb8309f689906517f3978a",
                    "txbytes" : "0xf86480018405f5e10094095e7baea6a6c7c4c2dfeb977efac326af552d87830186a0801ba088544c93a564b4c28d2ffac2074a0c55fdd4658fe0d215596ed2e32e3ef7f56ba07fb4075d54190f825d7c47bb820284757b34fd6293904a93cddb1d3aa961ac28",
                    "logs" : "0x1dcc4de8dec75d7aab85b567b6ccd41ad312451b948a7413f0a142fd40d49347"
                }
            ]
        },
        "pre" : {
            "0x095e7baea6a6c7c4c2dfeb977efac326af552d87" : {
                "balance" : "0x0de0b6b3a7640000",
                "code" : "0x6000600060006000600073100000000000000000000000000000000000000062061a80f16000556000600060006000600073200000000000000000000000000000000000000062061a80f1600155600160025500",
                "nonce" : "0x00",
                "storage" : {
                }
            },
            "0x1000000000000000000000000000000000000000" : {
                "balance" : "0x0de0b6b3a7640000",
                "code" : "0x60f9600053600160006001f0ff00",
                "nonce" : "0x00",
                "storage" : {
                }
            },
            "0x2000000000000000000000000000000000000000" : {
                "balance" : "0x0de0b6b3a7640000",
                "code" : "0x60f96000536000600160006001f5ff00",
                "nonce" : "0x00",
                "storage" : {
                }
            },
            "0xa94f5374fce5edbc8e2a8697c15331677e6ebf0b" : {
                "balance" : "0x0de0b6b3a7640000",
                "code" : "0x",
                "nonce" : "0x00",
                "storage" : {
                }
            }
        },
        "transaction" : {
            "data" : [
                "0x"
            ],
            "gasLimit" : [
                "0x05f5e100"
            ],
            "gasPrice" : "0x01",
            "nonce" : "0x00",
            "secretKey" : "0x45a915e4d060149eb4365960e6a7a45f334393093061116b197e3240065ff2d8",
            "to" : "0x095e7baea6a6c7c4c2dfeb977efac326af552d87",
            "value" : [
                "0x0186a0"
            ]
        }
    }
}