{
    "createInitFailStackSizeLargerThan1024" : {
        "_info" : {
            "comment" : "create fails because init code has stack size >1024",
            "filling-rpc-server" : "evm version 1.13.5-unstable-cd295356-20231019",
            "filling-tool-version" : "retesteth-0.3.1-cancun+commit.1e18e0b3.Linux.g++",
            "generatedTestHash" : "75e47b53a977c75099cd530347c8f39e39bbd0749eb6a0b3576193d9b1b15e95",
            "lllcversion" : "Version: 0.5.14-develop.2023.7.11+commit.c58ab2c6.mod.Linux.g++",
            "solidity" : "Version: 0.8.21+commit.d9974bed.Linux.g++",
            "source" : "src/GeneralStateTestsFiller/stCallCreateCallCodeTest/createInitFailStackSizeLargerThan1024Filler.json",
            "sourceHash" : "43b53a22180de1ad5c75e0d07b09ede90c7a4559ad570d7cfeefdac5b336bf75"
        },
        "env" : {
            "currentBaseFee" : "0x0a",
            "currentBeaconRoot" : "0x0000000000000000000000000000000000000000000000000000000000000000",
            "currentCoinbase" : "0x2adc25665018aa1fe0e6bc666dac8fc2697ff9ba",
            "currentDifficulty" : "0x020000",
            "currentGasLimit" : "0x3b9aca00",
            "currentNumber" : "0x01",
            "currentRandom" : "0x0000000000000000000000000000000000000000000000000000000000020000",
            "currentTimestamp" : "0x03e8",
            "currentWithdrawalsRoot" : "0x56e81f171bcc55a6ff8345e692c0f86e5b48e01b996cadc001622fb5e363b421",
            "previousHash" : "0x5e20a0453cecd065ea59c37ac63e079ee08998b6045136a8ce6635c7912ec0b6"
        },
        "post" : {
            "Berlin" : [
                {
                    "hash" : "0x434a5c4e65f10c6fcfc2fea79444504b7458cc1ba01a0ac18c9fb29f46b6f246",
                    "indexes" : {
                        "data" : 0,
                        "gas" : 0,
                        "value" : 0
                    },
                    "logs" : "0x1dcc4de8dec75d7aab85b567b6ccd41ad312451b948a7413f0a142fd40d49347",
                    "txbytes" : "0xf864800a8405f5e10094095e7baea6a6c7c4c2dfeb977efac326af552d87830186a0801ba08b2abe6f44d5ee4dfa6c9a76e87184930cac7185339c1506343ebfe4b6e32c71a078474f81ddbb08664594bff4afa50f9086a2385ff922a84e76549abd3e43543c"
                }
            ],
            "Cancun" : [
                {
                    "hash" : "0xaa4b86eb9c193587687429f6bd94da54348722ffa62716844251f3d2f7a16842",
                    "indexes" : {
                        "data" : 0,
                        "gas" : 0,
                        "value" : 0
                    },
                    "logs" : "0x1dcc4de8dec75d7aab85b567b6ccd41ad312451b948a7413f0a142fd40d49347",
                    "txbytes" : "0xf864800a8405f5e10094095e7baea6a6c7c4c2dfeb977efac326af552d87830186a0801ba08b2abe6f44d5ee4dfa6c9a76e87184930cac7185339c1506343ebfe4b6e32c71a078474f81ddbb08664594bff4afa50f9086a2385ff922a84e76549abd3e43543c"
                }
            ],
            "Istanbul" : [
                {
                    "hash" : "0xb042b239b5ab82926cbb4074823ac41d99f7f170b42d50ff28f2ac972f899a89",
                    "indexes" : {
                        "data" : 0,
                        "gas" : 0,
                        "value" : 0
                    },
                    "logs" : "0x1dcc4de8dec75d7aab85b567b6ccd41ad312451b948a7413f0a142fd40d49347",
                    "txbytes" : "0xf864800a8405f5e10094095e7baea6a6c7c4c2dfeb977efac326af552d87830186a0801ba08b2abe6f44d5ee4dfa6c9a76e87184930cac7185339c1506343ebfe4b6e32c71a078474f81ddbb08664594bff4afa50f9086a2385ff922a84e76549abd3e43543c"
                }
            ],
            "London" : [
                {
                    "hash" : "0x1b90f0de1b6b98b1d7377c38be83094f3ae8b5aacf52e178bed5b61135910d9f",
                    "indexes" : {
                        "data" : 0,
                        "gas" : 0,
                        "value" : 0
                    },
                    "logs" : "0x1dcc4de8dec75d7aab85b567b6ccd41ad312451b948a7413f0a142fd40d49347",
                    "txbytes" : "0xf864800a8405f5e10094095e7baea6a6c7c4c2dfeb977efac326af552d87830186a0801ba08b2abe6f44d5ee4dfa6c9a76e87184930cac7185339c1506343ebfe4b6e32c71a078474f81ddbb08664594bff4afa50f9086a2385ff922a84e76549abd3e43543c"
                }
            ],
            "Merge" : [
                {
                    "hash" : "0x1b90f0de1b6b98b1d7377c38be83094f3ae8b5aacf52e178bed5b61135910d9f",
                    "indexes" : {
                        "data" : 0,
                        "gas" : 0,
                        "value" : 0
                    },
                    "logs" : "0x1dcc4de8dec75d7aab85b567b6ccd41ad312451b948a7413f0a142fd40d49347",
                    "txbytes" : "0xf864800a8405f5e10094095e7baea6a6c7c4c2dfeb977efac326af552d87830186a0801ba08b2abe6f44d5ee4dfa6c9a76e87184930cac7185339c1506343ebfe4b6e32c71a078474f81ddbb08664594bff4afa50f9086a2385ff922a84e76549abd3e43543c"
                }
            ],
            "Shanghai" : [
                {
                    "hash" : "0x1b90f0de1b6b98b1d7377c38be83094f3ae8b5aacf52e178bed5b61135910d9f",
                    "indexes" : {
                        "data" : 0,
                        "gas" : 0,
                        "value" : 0
                    },
                    "logs" : "0x1dcc4de8dec75d7aab85b567b6ccd41ad312451b948a7413f0a142fd40d49347",
                    "txbytes" : "0xf864800a8405f5e10094095e7baea6a6c7c4c2dfeb977efac326af552d87830186a0801ba08b2abe6f44d5ee4dfa6c9a76e87184930cac7185339c1506343ebfe4b6e32c71a078474f81ddbb08664594bff4afa50f9086a2385ff922a84e76549abd3e43543c"
                }
            ]
        },
        "pre" : {
            "0x095e7baea6a6c7c4c2dfeb977efac326af552d87" : {
                "balance" : "0x0de0b6b3a7640000",
                "code" : "0x7f6103ff6000525b7f0102030405060708090a0102030405060708090a010203046000527f05060708090a0102600160005103600052600051600657000000000000000000602052604060006001f0ff00",
                "nonce" : "0x00",
                "storage" : {
                }
            },
            "0xa94f5374fce5edbc8e2a8697c15331677e6ebf0b" : {
                "balance" : "0x0de0b6b3a7640000",
                "code" : "0x",
                "nonce" : "0x00",
                "storage" : {
                }
            }
        },
        "transaction" : {
            "data" : [
                "0x"
            ],
            "gasLimit" : [
                "0x05f5e100"
            ],
            "gasPrice" : "0x0a",
            "nonce" : "0x00",
            "secretKey" : "0x45a915e4d060149eb4365960e6a7a45f334393093061116b197e3240065ff2d8",
            "sender" : "0xa94f5374fce5edbc8e2a8697c15331677e6ebf0b",
            "to" : "0x095e7baea6a6c7c4c2dfeb977efac326af552d87",
            "value" : [
                "0x0186a0"
            ]
        }
    }
}