{
    "createNameRegistratorPreStore1NotEnoughGas" : {
        "_info" : {
            "comment" : "Legacy Test from Christoph. J",
            "filling-rpc-server" : "evm version 1.13.11-unstable-765f2904-20240124",
            "filling-tool-version" : "retesteth-0.3.2-cancun+commit.ea13235b.Linux.g++",
            "generatedTestHash" : "6f2ceb837010c0805be6c6d1913d36ff237174f89b4d1503936eaf8ceb8e6e6e",
            "lllcversion" : "Version: 0.5.14-develop.2023.7.11+commit.c58ab2c6.mod.Linux.g++",
            "solidity" : "Version: 0.8.21+commit.d9974bed.Linux.g++",
            "source" : "src/GeneralStateTestsFiller/stCallCreateCallCodeTest/createNameRegistratorPreStore1NotEnoughGasFiller.json",
            "sourceHash" : "d33ca50078393888d39017e30b66f6fea4c0a40ec203a2976ad1e7d462dbfa94"
        },
        "env" : {
            "currentBaseFee" : "0x0a",
            "currentCoinbase" : "0x2adc25665018aa1fe0e6bc666dac8fc2697ff9ba",
            "currentDifficulty" : "0x020000",
            "currentExcessBlobGas" : "0x00",
            "currentGasLimit" : "0x05f5e100",
            "currentNumber" : "0x01",
            "currentRandom" : "0x0000000000000000000000000000000000000000000000000000000000020000",
            "currentTimestamp" : "0x03e8"
        },
        "post" : {
            "Berlin" : [
                {
                    "hash" : "0x8b1b3ef437450e5e41b020c9b94ad1d8430cfadfac920f284ad8ee0927443825",
                    "indexes" : {
                        "data" : 0,
                        "gas" : 0,
                        "value" : 0
                    },
                    "logs" : "0x1dcc4de8dec75d7aab85b567b6ccd41ad312451b948a7413f0a142fd40d49347",
                    "txbytes" : "0xf863800a83011d6f94095e7baea6a6c7c4c2dfeb977efac326af552d87830186a0801ba0d0d76b4882999b2669e26891044e28889f4b4c21b73f5888801fb7fb316ddc3fa060a8bcce33803093f72c6c2b3d08bdc822719a217794d2fbcc9b235574044657"
                }
            ],
            "Cancun" : [
                {
                    "hash" : "0x4f096adb2567aa63f1a4e61b42691d71f56d612b5c56ac07ed926a075477e450",
                    "indexes" : {
                        "data" : 0,
                        "gas" : 0,
                        "value" : 0
                    },
                    "logs" : "0x1dcc4de8dec75d7aab85b567b6ccd41ad312451b948a7413f0a142fd40d49347",
                    "txbytes" : "0xf863800a83011d6f94095e7baea6a6c7c4c2dfeb977efac326af552d87830186a0801ba0d0d76b4882999b2669e26891044e28889f4b4c21b73f5888801fb7fb316ddc3fa060a8bcce33803093f72c6c2b3d08bdc822719a217794d2fbcc9b235574044657"
                }
            ],
            "Istanbul" : [
                {
                    "hash" : "0x8b1b3ef437450e5e41b020c9b94ad1d8430cfadfac920f284ad8ee0927443825",
                    "indexes" : {
                        "data" : 0,
                        "gas" : 0,
                        "value" : 0
                    },
                    "logs" : "0x1dcc4de8dec75d7aab85b567b6ccd41ad312451b948a7413f0a142fd40d49347",
                    "txbytes" : "0xf863800a83011d6f94095e7baea6a6c7c4c2dfeb977efac326af552d87830186a0801ba0d0d76b4882999b2669e26891044e28889f4b4c21b73f5888801fb7fb316ddc3fa060a8bcce33803093f72c6c2b3d08bdc822719a217794d2fbcc9b235574044657"
                }
            ],
            "London" : [
                {
                    "hash" : "0x4f096adb2567aa63f1a4e61b42691d71f56d612b5c56ac07ed926a075477e450",
                    "indexes" : {
                        "data" : 0,
                        "gas" : 0,
                        "value" : 0
                    },
                    "logs" : "0x1dcc4de8dec75d7aab85b567b6ccd41ad312451b948a7413f0a142fd40d49347",
                    "txbytes" : "0xf863800a83011d6f94095e7baea6a6c7c4c2dfeb977efac326af552d87830186a0801ba0d0d76b4882999b2669e26891044e28889f4b4c21b73f5888801fb7fb316ddc3fa060a8bcce33803093f72c6c2b3d08bdc822719a217794d2fbcc9b235574044657"
                }
            ],
            "Paris" : [
                {
                    "hash" : "0x4f096adb2567aa63f1a4e61b42691d71f56d612b5c56ac07ed926a075477e450",
                    "indexes" : {
                        "data" : 0,
                        "gas" : 0,
                        "value" : 0
                    },
                    "logs" : "0x1dcc4de8dec75d7aab85b567b6ccd41ad312451b948a7413f0a142fd40d49347",
                    "txbytes" : "0xf863800a83011d6f94095e7baea6a6c7c4c2dfeb977efac326af552d87830186a0801ba0d0d76b4882999b2669e26891044e28889f4b4c21b73f5888801fb7fb316ddc3fa060a8bcce33803093f72c6c2b3d08bdc822719a217794d2fbcc9b235574044657"
                }
            ],
            "Shanghai" : [
                {
                    "hash" : "0x4f096adb2567aa63f1a4e61b42691d71f56d612b5c56ac07ed926a075477e450",
                    "indexes" : {
                        "data" : 0,
                        "gas" : 0,
                        "value" : 0
                    },
                    "logs" : "0x1dcc4de8dec75d7aab85b567b6ccd41ad312451b948a7413f0a142fd40d49347",
                    "txbytes" : "0xf863800a83011d6f94095e7baea6a6c7c4c2dfeb977efac326af552d87830186a0801ba0d0d76b4882999b2669e26891044e28889f4b4c21b73f5888801fb7fb316ddc3fa060a8bcce33803093f72c6c2b3d08bdc822719a217794d2fbcc9b235574044657"
                }
            ]
        },
        "pre" : {
            "0x095e7baea6a6c7c4c2dfeb977efac326af552d87" : {
                "balance" : "0x0de0b6b3a7640000",
                "code" : "0x7f6001600155601080600c6000396000f3006000355415600957005b602035600060005260356020536055602153602260006017f000",
                "nonce" : "0x00",
                "storage" : {
                }
            },
            "0xa94f5374fce5edbc8e2a8697c15331677e6ebf0b" : {
                "balance" : "0x0de0b6b3a7640000",
                "code" : "0x",
                "nonce" : "0x00",
                "storage" : {
                }
            }
        },
        "transaction" : {
            "data" : [
                "0x"
            ],
            "gasLimit" : [
                "0x011d6f"
            ],
            "gasPrice" : "0x0a",
            "nonce" : "0x00",
            "secretKey" : "0x45a915e4d060149eb4365960e6a7a45f334393093061116b197e3240065ff2d8",
            "sender" : "0xa94f5374fce5edbc8e2a8697c15331677e6ebf0b",
            "to" : "0x095e7baea6a6c7c4c2dfeb977efac326af552d87",
            "value" : [
                "0x0186a0"
            ]
        }
    }
}