{
    "createNameRegistratorendowmentTooHigh" : {
        "_info" : {
            "comment" : "Legacy Test from Christoph. J",
            "filling-rpc-server" : "evm version 1.13.13-unstable-034bc466-20240219",
            "filling-tool-version" : "retesteth-0.3.2-cancun+commit.014a68a5.Linux.g++",
            "generatedTestHash" : "d78507186e8824b0816f9fc75fee083955cfe290823eabf0f43e7faee2768e62",
            "lllcversion" : "Version: 0.5.14-develop.2023.7.11+commit.c58ab2c6.mod.Linux.g++",
            "solidity" : "Version: 0.8.21+commit.d9974bed.Linux.g++",
            "source" : "src/GeneralStateTestsFiller/stCallCreateCallCodeTest/createNameRegistratorendowmentTooHighFiller.json",
            "sourceHash" : "b9a874986025ac7c9478875347525c9c68bcbccf794a8d4036165a4fc5bc3e83"
        },
        "env" : {
            "currentBaseFee" : "0x0a",
            "currentCoinbase" : "0x2adc25665018aa1fe0e6bc666dac8fc2697ff9ba",
            "currentDifficulty" : "0x020000",
            "currentExcessBlobGas" : "0x00",
            "currentGasLimit" : "0x0f4240",
            "currentNumber" : "0x01",
            "currentRandom" : "0x0000000000000000000000000000000000000000000000000000000000020000",
            "currentTimestamp" : "0x03e8"
        },
        "post" : {
            "Berlin" : [
                {
                    "hash" : "0x3aa3112a9e61406d090701854e6d64f5cbed5709372fc1e2dc492416c963073d",
                    "indexes" : {
                        "data" : 0,
                        "gas" : 0,
                        "value" : 0
                    },
                    "logs" : "0x1dcc4de8dec75d7aab85b567b6ccd41ad312451b948a7413f0a142fd40d49347",
                    "txbytes" : "0xf860800a830493e094095e7baea6a6c7c4c2dfeb977efac326af552d8780801ba07dac90ad76be184dd90393b97a7f5b12f65c841791c7462aac2d55bef38051aba0071a9c5cb6781a525949e167c2850acdd1fb05d02b11ae3838219c60c18cd448"
                }
            ],
            "Cancun" : [
                {
                    "hash" : "0x6b34e9bcf39d16a415bd10d9f0777b1bdc21fb82d097d24107ad7c634d37bd06",
                    "indexes" : {
                        "data" : 0,
                        "gas" : 0,
                        "value" : 0
                    },
                    "logs" : "0x1dcc4de8dec75d7aab85b567b6ccd41ad312451b948a7413f0a142fd40d49347",
                    "txbytes" : "0xf860800a830493e094095e7baea6a6c7c4c2dfeb977efac326af552d8780801ba07dac90ad76be184dd90393b97a7f5b12f65c841791c7462aac2d55bef38051aba0071a9c5cb6781a525949e167c2850acdd1fb05d02b11ae3838219c60c18cd448"
                }
            ],
            "Istanbul" : [
                {
                    "hash" : "0xed4c600d6e7e2967f4acb64441b2750653a3b16edcaf1d26be33c026c6cc76f2",
                    "indexes" : {
                        "data" : 0,
                        "gas" : 0,
                        "value" : 0
                    },
                    "logs" : "0x1dcc4de8dec75d7aab85b567b6ccd41ad312451b948a7413f0a142fd40d49347",
                    "txbytes" : "0xf860800a830493e094095e7baea6a6c7c4c2dfeb977efac326af552d8780801ba07dac90ad76be184dd90393b97a7f5b12f65c841791c7462aac2d55bef38051aba0071a9c5cb6781a525949e167c2850acdd1fb05d02b11ae3838219c60c18cd448"
                }
            ],
            "London" : [
                {
                    "hash" : "0x651d0e65f81db74a36d3b0d21462b6a8f79a8ad52d9db287e6b95d54869daa9a",
                    "indexes" : {
                        "data" : 0,
                        "gas" : 0,
                        "value" : 0
                    },
                    "logs" : "0x1dcc4de8dec75d7aab85b567b6ccd41ad312451b948a7413f0a142fd40d49347",
                    "txbytes" : "0xf860800a830493e094095e7baea6a6c7c4c2dfeb977efac326af552d8780801ba07dac90ad76be184dd90393b97a7f5b12f65c841791c7462aac2d55bef38051aba0071a9c5cb6781a525949e167c2850acdd1fb05d02b11ae3838219c60c18cd448"
                }
            ],
            "Paris" : [
                {
                    "hash" : "0x651d0e65f81db74a36d3b0d21462b6a8f79a8ad52d9db287e6b95d54869daa9a",
                    "indexes" : {
                        "data" : 0,
                        "gas" : 0,
                        "value" : 0
                    },
                    "logs" : "0x1dcc4de8dec75d7aab85b567b6ccd41ad312451b948a7413f0a142fd40d49347",
                    "txbytes" : "0xf860800a830493e094095e7baea6a6c7c4c2dfeb977efac326af552d8780801ba07dac90ad76be184dd90393b97a7f5b12f65c841791c7462aac2d55bef38051aba0071a9c5cb6781a525949e167c2850acdd1fb05d02b11ae3838219c60c18cd448"
                }
            ],
            "Shanghai" : [
                {
                    "hash" : "0x1e12a5a78a1c584b60c3343a0feae456ccff792f4e38b71ba5f848d214e723c4",
                    "indexes" : {
                        "data" : 0,
                        "gas" : 0,
                        "value" : 0
                    },
                    "logs" : "0x1dcc4de8dec75d7aab85b567b6ccd41ad312451b948a7413f0a142fd40d49347",
                    "txbytes" : "0xf860800a830493e094095e7baea6a6c7c4c2dfeb977efac326af552d8780801ba07dac90ad76be184dd90393b97a7f5b12f65c841791c7462aac2d55bef38051aba0071a9c5cb6781a525949e167c2850acdd1fb05d02b11ae3838219c60c18cd448"
                }
            ]
        },
        "pre" : {
            "0x000f3df6d732807ef1319fb7b8bb8522d0beac02" : {
                "balance" : "0x00",
                "code" : "0x3373fffffffffffffffffffffffffffffffffffffffe14604d57602036146024575f5ffd5b5f35801560495762001fff810690815414603c575f5ffd5b62001fff01545f5260205ff35b5f5ffd5b62001fff42064281555f359062001fff015500",
                "nonce" : "0x01",
                "storage" : {
                }
            },
            "0x095e7baea6a6c7c4c2dfeb977efac326af552d87" : {
                "balance" : "0x0de0b6b3a7640000",
                "code" : "0x7c601080600c6000396000f3006000355415600957005b60203560003555600052601d6003670de0b6b3a7640001f060005500",
                "nonce" : "0x00",
                "storage" : {
                }
            },
            "0xa94f5374fce5edbc8e2a8697c15331677e6ebf0b" : {
                "balance" : "0x0de0b6b3a7640000",
                "code" : "0x",
                "nonce" : "0x00",
                "storage" : {
                }
            }
        },
        "transaction" : {
            "data" : [
                "0x"
            ],
            "gasLimit" : [
                "0x0493e0"
            ],
            "gasPrice" : "0x0a",
            "nonce" : "0x00",
            "secretKey" : "0x45a915e4d060149eb4365960e6a7a45f334393093061116b197e3240065ff2d8",
            "sender" : "0xa94f5374fce5edbc8e2a8697c15331677e6ebf0b",
            "to" : "0x095e7baea6a6c7c4c2dfeb977efac326af552d87",
            "value" : [
                "0x00"
            ]
        }
    }
}