{
    "createInitFailBadJumpDestination2" : {
        "_info" : {
            "comment" : "create fails because init code has bad jump dest",
            "filling-rpc-server" : "evm version 1.13.11-unstable-765f2904-20240124",
            "filling-tool-version" : "retesteth-0.3.2-cancun+commit.ea13235b.Linux.g++",
            "generatedTestHash" : "d96898ef9e0fa18acea50776d96d33f80e89de04ced02fdf7e9db6495f5c1a4d",
            "lllcversion" : "Version: 0.5.14-develop.2023.7.11+commit.c58ab2c6.mod.Linux.g++",
            "solidity" : "Version: 0.8.21+commit.d9974bed.Linux.g++",
            "source" : "src/GeneralStateTestsFiller/stCallCreateCallCodeTest/createInitFailBadJumpDestination2Filler.json",
            "sourceHash" : "76b1d5d9c1acc7aa70685b7981303d51ccf337235bb2c75120a6bdbb35d76965"
        },
        "env" : {
            "currentBaseFee" : "0x0a",
            "currentCoinbase" : "0x2adc25665018aa1fe0e6bc666dac8fc2697ff9ba",
            "currentDifficulty" : "0x020000",
            "currentExcessBlobGas" : "0x00",
            "currentGasLimit" : "0x3b9aca00",
            "currentNumber" : "0x01",
            "currentRandom" : "0x0000000000000000000000000000000000000000000000000000000000020000",
            "currentTimestamp" : "0x03e8"
        },
        "post" : {
            "Berlin" : [
                {
                    "hash" : "0x434a5c4e65f10c6fcfc2fea79444504b7458cc1ba01a0ac18c9fb29f46b6f246",
                    "indexes" : {
                        "data" : 0,
                        "gas" : 0,
                        "value" : 0
                    },
                    "logs" : "0x1dcc4de8dec75d7aab85b567b6ccd41ad312451b948a7413f0a142fd40d49347",
                    "txbytes" : "0xf864800a8405f5e10094095e7baea6a6c7c4c2dfeb977efac326af552d87830186a0801ba08b2abe6f44d5ee4dfa6c9a76e87184930cac7185339c1506343ebfe4b6e32c71a078474f81ddbb08664594bff4afa50f9086a2385ff922a84e76549abd3e43543c"
                }
            ],
            "Cancun" : [
                {
                    "hash" : "0x32a41c652e7348b7cd9819eb0f2fc1588f885fca939f269c2f8b68f9e8122ebf",
                    "indexes" : {
                        "data" : 0,
                        "gas" : 0,
                        "value" : 0
                    },
                    "logs" : "0x1dcc4de8dec75d7aab85b567b6ccd41ad312451b948a7413f0a142fd40d49347",
                    "txbytes" : "0xf864800a8405f5e10094095e7baea6a6c7c4c2dfeb977efac326af552d87830186a0801ba08b2abe6f44d5ee4dfa6c9a76e87184930cac7185339c1506343ebfe4b6e32c71a078474f81ddbb08664594bff4afa50f9086a2385ff922a84e76549abd3e43543c"
                }
            ],
            "Istanbul" : [
                {
                    "hash" : "0xb042b239b5ab82926cbb4074823ac41d99f7f170b42d50ff28f2ac972f899a89",
                    "indexes" : {
                        "data" : 0,
                        "gas" : 0,
                        "value" : 0
                    },
                    "logs" : "0x1dcc4de8dec75d7aab85b567b6ccd41ad312451b948a7413f0a142fd40d49347",
                    "txbytes" : "0xf864800a8405f5e10094095e7baea6a6c7c4c2dfeb977efac326af552d87830186a0801ba08b2abe6f44d5ee4dfa6c9a76e87184930cac7185339c1506343ebfe4b6e32c71a078474f81ddbb08664594bff4afa50f9086a2385ff922a84e76549abd3e43543c"
                }
            ],
            "London" : [
                {
                    "hash" : "0x1b90f0de1b6b98b1d7377c38be83094f3ae8b5aacf52e178bed5b61135910d9f",
                    "indexes" : {
                        "data" : 0,
                        "gas" : 0,
                        "value" : 0
                    },
                    "logs" : "0x1dcc4de8dec75d7aab85b567b6ccd41ad312451b948a7413f0a142fd40d49347",
                    "txbytes" : "0xf864800a8405f5e10094095e7baea6a6c7c4c2dfeb977efac326af552d87830186a0801ba08b2abe6f44d5ee4dfa6c9a76e87184930cac7185339c1506343ebfe4b6e32c71a078474f81ddbb08664594bff4afa50f9086a2385ff922a84e76549abd3e43543c"
                }
            ],
            "Paris" : [
                {
                    "hash" : "0x1b90f0de1b6b98b1d7377c38be83094f3ae8b5aacf52e178bed5b61135910d9f",
                    "indexes" : {
                        "data" : 0,
                        "gas" : 0,
                        "value" : 0
                    },
                    "logs" : "0x1dcc4de8dec75d7aab85b567b6ccd41ad312451b948a7413f0a142fd40d49347",
                    "txbytes" : "0xf864800a8405f5e10094095e7baea6a6c7c4c2dfeb977efac326af552d87830186a0801ba08b2abe6f44d5ee4dfa6c9a76e87184930cac7185339c1506343ebfe4b6e32c71a078474f81ddbb08664594bff4afa50f9086a2385ff922a84e76549abd3e43543c"
                }
            ],
            "Shanghai" : [
                {
                    "hash" : "0x1b90f0de1b6b98b1d7377c38be83094f3ae8b5aacf52e178bed5b61135910d9f",
                    "indexes" : {
                        "data" : 0,
                        "gas" : 0,
                        "value" : 0
                    },
                    "logs" : "0x1dcc4de8dec75d7aab85b567b6ccd41ad312451b948a7413f0a142fd40d49347",
                    "txbytes" : "0xf864800a8405f5e10094095e7baea6a6c7c4c2dfeb977efac326af552d87830186a0801ba08b2abe6f44d5ee4dfa6c9a76e87184930cac7185339c1506343ebfe4b6e32c71a078474f81ddbb08664594bff4afa50f9086a2385ff922a84e76549abd3e43543c"
                }
            ]
        },
        "pre" : {
            "0x095e7baea6a6c7c4c2dfeb977efac326af552d87" : {
                "balance" : "0x0de0b6b3a7640000",
                "code" : "0x6361ffff566000526004601c6001f0ff00",
                "nonce" : "0x00",
                "storage" : {
                }
            },
            "0xa94f5374fce5edbc8e2a8697c15331677e6ebf0b" : {
                "balance" : "0x0de0b6b3a7640000",
                "code" : "0x",
                "nonce" : "0x00",
                "storage" : {
                }
            }
        },
        "transaction" : {
            "data" : [
                "0x"
            ],
            "gasLimit" : [
                "0x05f5e100"
            ],
            "gasPrice" : "0x0a",
            "nonce" : "0x00",
            "secretKey" : "0x45a915e4d060149eb4365960e6a7a45f334393093061116b197e3240065ff2d8",
            "sender" : "0xa94f5374fce5edbc8e2a8697c15331677e6ebf0b",
            "to" : "0x095e7baea6a6c7c4c2dfeb977efac326af552d87",
            "value" : [
                "0x0186a0"
            ]
        }
    }
}