{
    "sha3_bigSize_Istanbul" : {
        "_info" : {
            "comment" : "Converted from VMTest source. ",
            "filling-rpc-server" : "Geth-1.9.13-unstable-5d7e5b00-20200327",
            "filling-tool-version" : "retesteth-0.0.2+commit.2bebcc98.Linux.g++",
            "lllcversion" : "Version: 0.5.14-develop.2020.3.30+commit.8f259595.Linux.g++",
            "source" : "src/VMTestsFiller/vmSha3Test/sha3_bigSizeFiller.json",
            "sourceHash" : "e140749a85369fcc3c6177951bc816b073deb941cf910b5927acb2ee8adfb059"
        },
        "sealEngine" : "NoProof",
        "network" : "Istanbul",
        "pre" : {
            "0x0f572e5295c57f15886f9b263e2f6d2d6c7b5ec6" : {
                "balance" : "0xffffffffffffffffffffffffffffffffffffffffffffffffffffffffffffffff",
                "code" : "0x7effffffffffffffffffffffffffffffffffffffffffffffffffffffffffffff7effffffffffffffffffffffffffffffffffffffffffffffffffffffffffffff2060005500",
                "nonce" : "0x00",
                "storage" : {
                }
            },
            "0xa94f5374fce5edbc8e2a8697c15331677e6ebf0b" : {
                "balance" : "0x7ffffffffffffff0",
                "code" : "0x",
                "nonce" : "0x00",
                "storage" : {
                }
            }
        },
        "genesisBlockHeader" : {
            "bloom" : "0x00000000000000000000000000000000000000000000000000000000000000000000000000000000000000000000000000000000000000000000000000000000000000000000000000000000000000000000000000000000000000000000000000000000000000000000000000000000000000000000000000000000000000000000000000000000000000000000000000000000000000000000000000000000000000000000000000000000000000000000000000000000000000000000000000000000000000000000000000000000000000000000000000000000000000000000000000000000000000000000000000000000000000000000000000000000",
            "coinbase" : "0x2adc25665018aa1fe0e6bc666dac8fc2697ff9ba",
            "difficulty" : "0x020000",
            "extraData" : "0x42",
            "gasLimit" : "0x7fffffffffffffff",
            "gasUsed" : "0x00",
            "hash" : "0xeaf951e39adc6d032816aac5d5b2b2e355ce667a1ac2adb7f49dc160d811ded2",
            "mixHash" : "0x0000000000000000000000000000000000000000000000000000000000000000",
            "nonce" : "0x0000000000000000",
            "number" : "0x00",
            "parentHash" : "0x0000000000000000000000000000000000000000000000000000000000000000",
            "receiptTrie" : "0x56e81f171bcc55a6ff8345e692c0f86e5b48e01b996cadc001622fb5e363b421",
            "stateRoot" : "0xf1a906ab5004af33ab1752a9d2463e7dd5e4411abbb66121d1e68ae9cdad7d8d",
            "timestamp" : "0x00",
            "transactionsTrie" : "0x56e81f171bcc55a6ff8345e692c0f86e5b48e01b996cadc001622fb5e363b421",
            "uncleHash" : "0x1dcc4de8dec75d7aab85b567b6ccd41ad312451b948a7413f0a142fd40d49347"
        },
        "genesisRLP" : "0xf901fdf901f8a00000000000000000000000000000000000000000000000000000000000000000a01dcc4de8dec75d7aab85b567b6ccd41ad312451b948a7413f0a142fd40d49347942adc25665018aa1fe0e6bc666dac8fc2697ff9baa0f1a906ab5004af33ab1752a9d2463e7dd5e4411abbb66121d1e68ae9cdad7d8da056e81f171bcc55a6ff8345e692c0f86e5b48e01b996cadc001622fb5e363b421a056e81f171bcc55a6ff8345e692c0f86e5b48e01b996cadc001622fb5e363b421b90100000000000000000000000000000000000000000000000000000000000000000000000000000000000000000000000000000000000000000000000000000000000000000000000000000000000000000000000000000000000000000000000000000000000000000000000000000000000000000000000000000000000000000000000000000000000000000000000000000000000000000000000000000000000000000000000000000000000000000000000000000000000000000000000000000000000000000000000000000000000000000000000000000000000000000000000000000000000000000000000000000000000000000000000000000000008302000080887fffffffffffffff808042a00000000000000000000000000000000000000000000000000000000000000000880000000000000000c0c0",
        "blocks" : [
            {
                "chainname" : "default",
                "blocknumber" : "1",
                "uncleHeaders" : [
                ],
                "blockHeader" : {
                    "bloom" : "0x00000000000000000000000000000000000000000000000000000000000000000000000000000000000000000000000000000000000000000000000000000000000000000000000000000000000000000000000000000000000000000000000000000000000000000000000000000000000000000000000000000000000000000000000000000000000000000000000000000000000000000000000000000000000000000000000000000000000000000000000000000000000000000000000000000000000000000000000000000000000000000000000000000000000000000000000000000000000000000000000000000000000000000000000000000000",
                    "coinbase" : "0x2adc25665018aa1fe0e6bc666dac8fc2697ff9ba",
                    "difficulty" : "0x020000",
                    "extraData" : "0x42",
                    "gasLimit" : "0x7fffffffffffffff",
                    "gasUsed" : "0x010000000000",
                    "hash" : "0x2f57ac5e78bc9207c88621ecf6b8b2b1244199d66d24ad314cd2e9419aa0a39a",
                    "mixHash" : "0x0000000000000000000000000000000000000000000000000000000000000000",
                    "nonce" : "0x0000000000000000",
                    "number" : "0x01",
                    "parentHash" : "0xeaf951e39adc6d032816aac5d5b2b2e355ce667a1ac2adb7f49dc160d811ded2",
                    "receiptTrie" : "0x3d489356c9d5a5e02edf8c361dbe0364eb983a2e78610fe1469e018ad91325ca",
                    "stateRoot" : "0xe8d1dc27a641b1bc41d48cd96e6a372d3518ef96059b944710fd2bf54e601eca",
                    "timestamp" : "0x03e8",
                    "transactionsTrie" : "0x76d0c09fe61db2d7a575fcf1754bdc6b47bee1365a1f77591097c017400b16d1",
                    "uncleHash" : "0x1dcc4de8dec75d7aab85b567b6ccd41ad312451b948a7413f0a142fd40d49347"
                },
                "transactions" : [
                    {
                        "data" : "0x",
                        "gasLimit" : "0x010000000000",
                        "gasPrice" : "0x01",
                        "nonce" : "0x00",
                        "to" : "0x0f572e5295c57f15886f9b263e2f6d2d6c7b5ec6",
                        "value" : "0x7c",
                        "v" : "0x1b",
                        "r" : "0x1a717d6261a891fbeb302414e78daa065a1185519ed70aa38874f0c6178f2abc",
                        "s" : "0x65e0244e848e32163ef7d8c7e6bb8e6cf5d82b5c632841baac3b3223d6375ea2"
                    }
                ],
                "rlp" : "0xf9026bf90200a0eaf951e39adc6d032816aac5d5b2b2e355ce667a1ac2adb7f49dc160d811ded2a01dcc4de8dec75d7aab85b567b6ccd41ad312451b948a7413f0a142fd40d49347942adc25665018aa1fe0e6bc666dac8fc2697ff9baa0e8d1dc27a641b1bc41d48cd96e6a372d3518ef96059b944710fd2bf54e601ecaa076d0c09fe61db2d7a575fcf1754bdc6b47bee1365a1f77591097c017400b16d1a03d489356c9d5a5e02edf8c361dbe0364eb983a2e78610fe1469e018ad91325cab90100000000000000000000000000000000000000000000000000000000000000000000000000000000000000000000000000000000000000000000000000000000000000000000000000000000000000000000000000000000000000000000000000000000000000000000000000000000000000000000000000000000000000000000000000000000000000000000000000000000000000000000000000000000000000000000000000000000000000000000000000000000000000000000000000000000000000000000000000000000000000000000000000000000000000000000000000000000000000000000000000000000000000000000000000000000008302000001887fffffffffffffff860100000000008203e842a00000000000000000000000000000000000000000000000000000000000000000880000000000000000f865f863800186010000000000940f572e5295c57f15886f9b263e2f6d2d6c7b5ec67c801ba01a717d6261a891fbeb302414e78daa065a1185519ed70aa38874f0c6178f2abca065e0244e848e32163ef7d8c7e6bb8e6cf5d82b5c632841baac3b3223d6375ea2c0"
            }
        ],
        "postState" : {
            "0xa94f5374fce5edbc8e2a8697c15331677e6ebf0b" : {
                "code" : "0x",
                "nonce" : "0x01",
                "balance" : "0x7ffffefffffffff0",
                "storage" : {
                }
            },
            "0x2adc25665018aa1fe0e6bc666dac8fc2697ff9ba" : {
                "code" : "0x",
                "nonce" : "0x00",
                "balance" : "0x1bc16e674ec80000",
                "storage" : {
                }
            },
            "0x0f572e5295c57f15886f9b263e2f6d2d6c7b5ec6" : {
                "code" : "0x7effffffffffffffffffffffffffffffffffffffffffffffffffffffffffffff7effffffffffffffffffffffffffffffffffffffffffffffffffffffffffffff2060005500",
                "nonce" : "0x00",
                "balance" : "0xffffffffffffffffffffffffffffffffffffffffffffffffffffffffffffffff",
                "storage" : {
                }
            }
        },
        "lastblockhash" : "0x2f57ac5e78bc9207c88621ecf6b8b2b1244199d66d24ad314cd2e9419aa0a39a"
    }
}