{
    "sha3_memSizeQuadraticCost33_Istanbul" : {
        "_info" : {
            "comment" : "Converted from VMTest source. ",
            "filling-rpc-server" : "Geth-1.9.14-unstable-8cf83419-20200512",
            "filling-tool-version" : "retesteth-0.0.3+commit.672a84dd.Linux.g++",
            "lllcversion" : "Version: 0.5.14-develop.2019.11.27+commit.8f259595.Linux.g++",
            "source" : "src/VMTestsFiller/vmSha3Test/sha3_memSizeQuadraticCost33Filler.json",
            "sourceHash" : "5c6fc76781259d4cc60f66cde70b7d87d5927387b298fcb1d8ef492f7033beca"
        },
        "sealEngine" : "NoProof",
        "network" : "Istanbul",
        "pre" : {
            "0x0f572e5295c57f15886f9b263e2f6d2d6c7b5ec6" : {
                "balance" : "0xffffffffffffffffffffffffffffffffffffffffffffffffffffffffffffffff",
                "code" : "0x60016104002060005500",
                "nonce" : "0x00",
                "storage" : {
                }
            },
            "0xa94f5374fce5edbc8e2a8697c15331677e6ebf0b" : {
                "balance" : "0x7ffffffffffffff0",
                "code" : "0x",
                "nonce" : "0x00",
                "storage" : {
                }
            }
        },
        "genesisBlockHeader" : {
            "bloom" : "0x00000000000000000000000000000000000000000000000000000000000000000000000000000000000000000000000000000000000000000000000000000000000000000000000000000000000000000000000000000000000000000000000000000000000000000000000000000000000000000000000000000000000000000000000000000000000000000000000000000000000000000000000000000000000000000000000000000000000000000000000000000000000000000000000000000000000000000000000000000000000000000000000000000000000000000000000000000000000000000000000000000000000000000000000000000000",
            "coinbase" : "0x2adc25665018aa1fe0e6bc666dac8fc2697ff9ba",
            "difficulty" : "0x020000",
            "extraData" : "0x42",
            "gasLimit" : "0x7fffffffffffffff",
            "gasUsed" : "0x00",
            "hash" : "0xc2ad12eb1bbd9c5870ceb1a15c2ea5c7d49040d30d11c9a741908394742a72c2",
            "mixHash" : "0x0000000000000000000000000000000000000000000000000000000000000000",
            "nonce" : "0x0000000000000000",
            "number" : "0x00",
            "parentHash" : "0x0000000000000000000000000000000000000000000000000000000000000000",
            "receiptTrie" : "0x56e81f171bcc55a6ff8345e692c0f86e5b48e01b996cadc001622fb5e363b421",
            "stateRoot" : "0x4b3e6bfd4a5d90f659154ef7efa7758abad4926cac2043a80e62a17af69602f7",
            "timestamp" : "0x00",
            "transactionsTrie" : "0x56e81f171bcc55a6ff8345e692c0f86e5b48e01b996cadc001622fb5e363b421",
            "uncleHash" : "0x1dcc4de8dec75d7aab85b567b6ccd41ad312451b948a7413f0a142fd40d49347"
        },
        "genesisRLP" : "0xf901fdf901f8a00000000000000000000000000000000000000000000000000000000000000000a01dcc4de8dec75d7aab85b567b6ccd41ad312451b948a7413f0a142fd40d49347942adc25665018aa1fe0e6bc666dac8fc2697ff9baa04b3e6bfd4a5d90f659154ef7efa7758abad4926cac2043a80e62a17af69602f7a056e81f171bcc55a6ff8345e692c0f86e5b48e01b996cadc001622fb5e363b421a056e81f171bcc55a6ff8345e692c0f86e5b48e01b996cadc001622fb5e363b421b90100000000000000000000000000000000000000000000000000000000000000000000000000000000000000000000000000000000000000000000000000000000000000000000000000000000000000000000000000000000000000000000000000000000000000000000000000000000000000000000000000000000000000000000000000000000000000000000000000000000000000000000000000000000000000000000000000000000000000000000000000000000000000000000000000000000000000000000000000000000000000000000000000000000000000000000000000000000000000000000000000000000000000000000000000000000008302000080887fffffffffffffff808042a00000000000000000000000000000000000000000000000000000000000000000880000000000000000c0c0",
        "blocks" : [
            {
                "chainname" : "default",
                "blocknumber" : "1",
                "uncleHeaders" : [
                ],
                "blockHeader" : {
                    "bloom" : "0x00000000000000000000000000000000000000000000000000000000000000000000000000000000000000000000000000000000000000000000000000000000000000000000000000000000000000000000000000000000000000000000000000000000000000000000000000000000000000000000000000000000000000000000000000000000000000000000000000000000000000000000000000000000000000000000000000000000000000000000000000000000000000000000000000000000000000000000000000000000000000000000000000000000000000000000000000000000000000000000000000000000000000000000000000000000",
                    "coinbase" : "0x2adc25665018aa1fe0e6bc666dac8fc2697ff9ba",
                    "difficulty" : "0x020000",
                    "extraData" : "0x42",
                    "gasLimit" : "0x7fffffffffffffff",
                    "gasUsed" : "0xa0ba",
                    "hash" : "0x54c826c51b941eabbb50238a51908a5ee0a69f4ec0fd4bbb75c217130e136728",
                    "mixHash" : "0x0000000000000000000000000000000000000000000000000000000000000000",
                    "nonce" : "0x0000000000000000",
                    "number" : "0x01",
                    "parentHash" : "0xc2ad12eb1bbd9c5870ceb1a15c2ea5c7d49040d30d11c9a741908394742a72c2",
                    "receiptTrie" : "0x6c6262822a1bb6a01e2c6c8879d662c6717bba19bd54f236e9af1aafe23c9e33",
                    "stateRoot" : "0xeaa6c0a48d5e2b436bd1a766a3ea5ef29ce77b770b95a9980ba1c53b81d5d08d",
                    "timestamp" : "0x03e8",
                    "transactionsTrie" : "0x2029ea6e39eee65fa44444a319b6852765e86973fd6e94ccb74abb043834b8fd",
                    "uncleHash" : "0x1dcc4de8dec75d7aab85b567b6ccd41ad312451b948a7413f0a142fd40d49347"
                },
                "transactions" : [
                    {
                        "data" : "0x",
                        "gasLimit" : "0x0100000000",
                        "gasPrice" : "0x01",
                        "nonce" : "0x00",
                        "to" : "0x0f572e5295c57f15886f9b263e2f6d2d6c7b5ec6",
                        "value" : "0x7c",
                        "v" : "0x1c",
                        "r" : "0xde9403b1a38f94775b4700b515046e6aeb98bdafde7f63dc4923a243b5048986",
                        "s" : "0x7d3a6473de8bc6879068fdfbfaa43ed811fa3573c578e23e08dac1bd860b9c65"
                    }
                ],
                "rlp" : "0xf90266f901fca0c2ad12eb1bbd9c5870ceb1a15c2ea5c7d49040d30d11c9a741908394742a72c2a01dcc4de8dec75d7aab85b567b6ccd41ad312451b948a7413f0a142fd40d49347942adc25665018aa1fe0e6bc666dac8fc2697ff9baa0eaa6c0a48d5e2b436bd1a766a3ea5ef29ce77b770b95a9980ba1c53b81d5d08da02029ea6e39eee65fa44444a319b6852765e86973fd6e94ccb74abb043834b8fda06c6262822a1bb6a01e2c6c8879d662c6717bba19bd54f236e9af1aafe23c9e33b90100000000000000000000000000000000000000000000000000000000000000000000000000000000000000000000000000000000000000000000000000000000000000000000000000000000000000000000000000000000000000000000000000000000000000000000000000000000000000000000000000000000000000000000000000000000000000000000000000000000000000000000000000000000000000000000000000000000000000000000000000000000000000000000000000000000000000000000000000000000000000000000000000000000000000000000000000000000000000000000000000000000000000000000000000000000008302000001887fffffffffffffff82a0ba8203e842a00000000000000000000000000000000000000000000000000000000000000000880000000000000000f864f8628001850100000000940f572e5295c57f15886f9b263e2f6d2d6c7b5ec67c801ca0de9403b1a38f94775b4700b515046e6aeb98bdafde7f63dc4923a243b5048986a07d3a6473de8bc6879068fdfbfaa43ed811fa3573c578e23e08dac1bd860b9c65c0"
            }
        ],
        "postState" : {
            "0xa94f5374fce5edbc8e2a8697c15331677e6ebf0b" : {
                "code" : "0x",
                "nonce" : "0x01",
                "balance" : "0x7fffffffffff5eba",
                "storage" : {
                }
            },
            "0x2adc25665018aa1fe0e6bc666dac8fc2697ff9ba" : {
                "code" : "0x",
                "nonce" : "0x00",
                "balance" : "0x1bc16d674ec8a0ba",
                "storage" : {
                }
            },
            "0x0f572e5295c57f15886f9b263e2f6d2d6c7b5ec6" : {
                "code" : "0x60016104002060005500",
                "nonce" : "0x00",
                "balance" : "0x7b",
                "storage" : {
                    "0x00" : "0xbc36789e7a1e281436464229828f817d6612f7b477d66591ff96a9e064bcc98a"
                }
            }
        },
        "lastblockhash" : "0x54c826c51b941eabbb50238a51908a5ee0a69f4ec0fd4bbb75c217130e136728"
    }
}