{
    "sha3_bigOffset2_Istanbul" : {
        "_info" : {
            "comment" : "Converted from VMTest source. ",
            "filling-rpc-server" : "Geth-1.9.13-unstable-5d7e5b00-20200327",
            "filling-tool-version" : "retesteth-0.0.2+commit.f0417457.Linux.g++",
            "lllcversion" : "Version: 0.5.14-develop.2020.3.30+commit.8f259595.Linux.g++",
            "source" : "src/VMTestsFiller/vmSha3Test/sha3_bigOffset2Filler.json",
            "sourceHash" : "2a72ad916044fc2fa16f2490b7a25216d042d81ab073964ead1e3231692b9b05"
        },
        "sealEngine" : "NoProof",
        "network" : "Istanbul",
        "pre" : {
            "0x0f572e5295c57f15886f9b263e2f6d2d6c7b5ec6" : {
                "balance" : "0xffffffffffffffffffffffffffffffffffffffffffffffffffffffffffffffff",
                "code" : "0x600263010000002060005500",
                "nonce" : "0x00",
                "storage" : {
                }
            },
            "0xa94f5374fce5edbc8e2a8697c15331677e6ebf0b" : {
                "balance" : "0x7ffffffffffffff0",
                "code" : "0x",
                "nonce" : "0x00",
                "storage" : {
                }
            }
        },
        "genesisBlockHeader" : {
            "bloom" : "0x00000000000000000000000000000000000000000000000000000000000000000000000000000000000000000000000000000000000000000000000000000000000000000000000000000000000000000000000000000000000000000000000000000000000000000000000000000000000000000000000000000000000000000000000000000000000000000000000000000000000000000000000000000000000000000000000000000000000000000000000000000000000000000000000000000000000000000000000000000000000000000000000000000000000000000000000000000000000000000000000000000000000000000000000000000000",
            "coinbase" : "0x2adc25665018aa1fe0e6bc666dac8fc2697ff9ba",
            "difficulty" : "0x020000",
            "extraData" : "0x42",
            "gasLimit" : "0x7fffffffffffffff",
            "gasUsed" : "0x00",
            "hash" : "0x18b44c8fadfa120acec48da3c58c21377068ef4c91b968b09ab8424129894dc6",
            "mixHash" : "0x0000000000000000000000000000000000000000000000000000000000000000",
            "nonce" : "0x0000000000000000",
            "number" : "0x00",
            "parentHash" : "0x0000000000000000000000000000000000000000000000000000000000000000",
            "receiptTrie" : "0x56e81f171bcc55a6ff8345e692c0f86e5b48e01b996cadc001622fb5e363b421",
            "stateRoot" : "0x4eda87dc1388ebe08b25f54c9f18afb81140862b0eb704ef08f272e50fc7664b",
            "timestamp" : "0x00",
            "transactionsTrie" : "0x56e81f171bcc55a6ff8345e692c0f86e5b48e01b996cadc001622fb5e363b421",
            "uncleHash" : "0x1dcc4de8dec75d7aab85b567b6ccd41ad312451b948a7413f0a142fd40d49347"
        },
        "genesisRLP" : "0xf901fdf901f8a00000000000000000000000000000000000000000000000000000000000000000a01dcc4de8dec75d7aab85b567b6ccd41ad312451b948a7413f0a142fd40d49347942adc25665018aa1fe0e6bc666dac8fc2697ff9baa04eda87dc1388ebe08b25f54c9f18afb81140862b0eb704ef08f272e50fc7664ba056e81f171bcc55a6ff8345e692c0f86e5b48e01b996cadc001622fb5e363b421a056e81f171bcc55a6ff8345e692c0f86e5b48e01b996cadc001622fb5e363b421b90100000000000000000000000000000000000000000000000000000000000000000000000000000000000000000000000000000000000000000000000000000000000000000000000000000000000000000000000000000000000000000000000000000000000000000000000000000000000000000000000000000000000000000000000000000000000000000000000000000000000000000000000000000000000000000000000000000000000000000000000000000000000000000000000000000000000000000000000000000000000000000000000000000000000000000000000000000000000000000000000000000000000000000000000000000000008302000080887fffffffffffffff808042a00000000000000000000000000000000000000000000000000000000000000000880000000000000000c0c0",
        "blocks" : [
            {
                "chainname" : "default",
                "blocknumber" : "1",
                "uncleHeaders" : [
                ],
                "blockHeader" : {
                    "bloom" : "0x00000000000000000000000000000000000000000000000000000000000000000000000000000000000000000000000000000000000000000000000000000000000000000000000000000000000000000000000000000000000000000000000000000000000000000000000000000000000000000000000000000000000000000000000000000000000000000000000000000000000000000000000000000000000000000000000000000000000000000000000000000000000000000000000000000000000000000000000000000000000000000000000000000000000000000000000000000000000000000000000000000000000000000000000000000000",
                    "coinbase" : "0x2adc25665018aa1fe0e6bc666dac8fc2697ff9ba",
                    "difficulty" : "0x020000",
                    "extraData" : "0x42",
                    "gasLimit" : "0x7fffffffffffffff",
                    "gasUsed" : "0x2018a858",
                    "hash" : "0x32de6827429a9208bbc1af45b78eb9ef3ff13cb6c9572681aab5462a76b273fe",
                    "mixHash" : "0x0000000000000000000000000000000000000000000000000000000000000000",
                    "nonce" : "0x0000000000000000",
                    "number" : "0x01",
                    "parentHash" : "0x18b44c8fadfa120acec48da3c58c21377068ef4c91b968b09ab8424129894dc6",
                    "receiptTrie" : "0xff8ac3f7d1a94d7ddb8df30bf5f96172805a9a7983de2ea2ca56a28c422f964a",
                    "stateRoot" : "0x6bb039dd188c75d5929fdd96e64b3807ddd5031c89287e696f784662369bdd87",
                    "timestamp" : "0x03e8",
                    "transactionsTrie" : "0x3ca426c8bce552c66cf71873ee74dd78961b43cb8fd51c5d221ed149e55ba14c",
                    "uncleHash" : "0x1dcc4de8dec75d7aab85b567b6ccd41ad312451b948a7413f0a142fd40d49347"
                },
                "transactions" : [
                    {
                        "data" : "0x",
                        "gasLimit" : "0x1000000000",
                        "gasPrice" : "0x01",
                        "nonce" : "0x00",
                        "to" : "0x0f572e5295c57f15886f9b263e2f6d2d6c7b5ec6",
                        "value" : "0x00",
                        "v" : "0x1b",
                        "r" : "0x1e680cbda47cf1187fc2bd73f2f0dceed2a1168c04264ff990b8993d5b2354e1",
                        "s" : "0x6a00a09adef0185322ef7d4f7233ee8ab90da881faa34720dc8c7da7282ca5c6"
                    }
                ],
                "rlp" : "0xf90268f901fea018b44c8fadfa120acec48da3c58c21377068ef4c91b968b09ab8424129894dc6a01dcc4de8dec75d7aab85b567b6ccd41ad312451b948a7413f0a142fd40d49347942adc25665018aa1fe0e6bc666dac8fc2697ff9baa06bb039dd188c75d5929fdd96e64b3807ddd5031c89287e696f784662369bdd87a03ca426c8bce552c66cf71873ee74dd78961b43cb8fd51c5d221ed149e55ba14ca0ff8ac3f7d1a94d7ddb8df30bf5f96172805a9a7983de2ea2ca56a28c422f964ab90100000000000000000000000000000000000000000000000000000000000000000000000000000000000000000000000000000000000000000000000000000000000000000000000000000000000000000000000000000000000000000000000000000000000000000000000000000000000000000000000000000000000000000000000000000000000000000000000000000000000000000000000000000000000000000000000000000000000000000000000000000000000000000000000000000000000000000000000000000000000000000000000000000000000000000000000000000000000000000000000000000000000000000000000000000000008302000001887fffffffffffffff842018a8588203e842a00000000000000000000000000000000000000000000000000000000000000000880000000000000000f864f8628001851000000000940f572e5295c57f15886f9b263e2f6d2d6c7b5ec680801ba01e680cbda47cf1187fc2bd73f2f0dceed2a1168c04264ff990b8993d5b2354e1a06a00a09adef0185322ef7d4f7233ee8ab90da881faa34720dc8c7da7282ca5c6c0"
            }
        ],
        "postState" : {
            "0xa94f5374fce5edbc8e2a8697c15331677e6ebf0b" : {
                "code" : "0x",
                "nonce" : "0x01",
                "balance" : "0x7fffffffdfe75798",
                "storage" : {
                }
            },
            "0x2adc25665018aa1fe0e6bc666dac8fc2697ff9ba" : {
                "code" : "0x",
                "nonce" : "0x00",
                "balance" : "0x1bc16d676ee0a858",
                "storage" : {
                }
            },
            "0x0f572e5295c57f15886f9b263e2f6d2d6c7b5ec6" : {
                "code" : "0x600263010000002060005500",
                "nonce" : "0x00",
                "balance" : "0xffffffffffffffffffffffffffffffffffffffffffffffffffffffffffffffff",
                "storage" : {
                    "0x00" : "0x54a8c0ab653c15bfb48b47fd011ba2b9617af01cb45cab344acd57c924d56798"
                }
            }
        },
        "lastblockhash" : "0x32de6827429a9208bbc1af45b78eb9ef3ff13cb6c9572681aab5462a76b273fe"
    }
}