{
    "g1_add_64" : {
        "_info" : {
            "comment" : "A test for g1_add_64",
            "filling-rpc-server" : "evm version 1.14.0-unstable-a208e725-20240416",
            "filling-tool-version" : "retesteth-0.3.2-cancun+commit.353b2b37.Linux.g++",
            "generatedTestHash" : "549b70d2838b0a4cc1a8da7b42665561cc5a66510bcdc3e4aa360a5f142a1f80",
            "lllcversion" : "Version: 0.5.14-develop.2023.7.11+commit.c58ab2c6.mod.Linux.g++",
            "solidity" : "Version: 0.8.21+commit.d9974bed.Linux.g++",
            "source" : "src/EIPTestsFiller/StateTests/stEIP2537/g1_add_64Filler.json",
            "sourceHash" : "01c70809e26b12ca57692dd618d23aa66e79d4fe12c00213e5966b0b594db5cf"
        },
        "env" : {
            "currentBaseFee" : "0x0a",
            "currentCoinbase" : "0x2adc25665018aa1fe0e6bc666dac8fc2697ff9ba",
            "currentDifficulty" : "0x020000",
            "currentExcessBlobGas" : "0x00",
            "currentGasLimit" : "0xff112233445566",
            "currentNumber" : "0x01",
            "currentRandom" : "0x0000000000000000000000000000000000000000000000000000000000020000",
            "currentTimestamp" : "0x03e8"
        },
        "post" : {
            "Prague" : [
                {
                    "hash" : "0x2de57755f2d32b56255534ada4eedab8702f2f97881769e8f09b2ac713a3762c",
                    "indexes" : {
                        "data" : 0,
                        "gas" : 0,
                        "value" : 0
                    },
                    "logs" : "0x1dcc4de8dec75d7aab85b567b6ccd41ad312451b948a7413f0a142fd40d49347",
                    "txbytes" : "0xf901c8800a836acfc094095e7baea6a6c7c4c2dfeb977efac326af552d878203e8b9016412bd4299000000000000000000000000000000000000000000000000000000000000000b00000000000000000000000000000000000000000000000000000000000000400000000000000000000000000000000000000000000000000000000000000100000000000000000000000000000000001465358836eb5c6e173e425f675aa231f9c62e9b122584078f2ab9af7440a4ce4ac2cd21ce35a0017b01e4913b40f73d00000000000000000000000000000000170e2da3bca3d0a8659e31df4d8a3a73e681c22beb21577bea6bbc3de1cabff8a1db28b51fdd46ba906767b69db2f679000000000000000000000000000000001461afe277bf0e1754c12a8aabbe60262758941281f23496c2eeb714f8c01fd3793faf15139ae173be6c3ff5d534d2bc00000000000000000000000000000000148ad14901be55baa302fa166e5d81cc741d67a98a7052618d77294c12aea56e2d04b7e497662debc714096c433e844e1ba0a73d446bc0327994dfe9671e517b00c568bb28a3fe0ec588f87e29601d9a3da8a02b37ae15f295c6e4becc6490b0e6c60112f3adf104521cdaf286a1e23657af97"
                }
            ]
        },
        "pre" : {
            "0x095e7baea6a6c7c4c2dfeb977efac326af552d87" : {
                "balance" : "0x00",
                "code" : "0x60806040526004361061001e5760003560e01c806312bd429914610023575b600080fd5b6100fc6004803603604081101561003957600080fd5b81019080803573ffffffffffffffffffffffffffffffffffffffff1690602001909291908035906020019064010000000081111561007657600080fd5b82018360208201111561008857600080fd5b803590602001918460018302840111640100000000831117156100aa57600080fd5b91908080601f016020809104026020016040519081016040528093929190818152602001838380828437600081840152601f19601f820116905080830192505050505050509192919290505050610182565b604051808315151515815260200180602001828103825283818151815260200191508051906020019080838360005b8381101561014657808201518184015260208101905061012b565b50505050905090810190601f1680156101735780820380516001836020036101000a031916815260200191505b50935050505060405180910390f35b600060608373ffffffffffffffffffffffffffffffffffffffff16836040518082805190602001908083835b602083106101d157805182526020820191506020810190506020830392506101ae565b6001836020036101000a038019825116818451168082178552505050505050905001915050600060405180830381855afa9150503d8060008114610231576040519150601f19603f3d011682016040523d82523d6000602084013e610236565b606091505b508092508193505050600060405180807f6572726f72000000000000000000000000000000000000000000000000000000815250600501905060405180910390209050821561028a57818051906020012090505b8060025582829250925050925092905056fea2646970667358221220db58d80e8530eed625d9b4250a6055c2eb1d7c117a7ca267e6f8a059bdd2f39e64736f6c634300060a0033",
                "nonce" : "0x01",
                "storage" : {
                }
            },
            "0xa94f5374fce5edbc8e2a8697c15331677e6ebf0b" : {
                "balance" : "0x0de0b6b3a7640000",
                "code" : "0x",
                "nonce" : "0x00",
                "storage" : {
                }
            }
        },
        "transaction" : {
            "data" : [
                "0x12bd4299000000000000000000000000000000000000000000000000000000000000000b00000000000000000000000000000000000000000000000000000000000000400000000000000000000000000000000000000000000000000000000000000100000000000000000000000000000000001465358836eb5c6e173e425f675aa231f9c62e9b122584078f2ab9af7440a4ce4ac2cd21ce35a0017b01e4913b40f73d00000000000000000000000000000000170e2da3bca3d0a8659e31df4d8a3a73e681c22beb21577bea6bbc3de1cabff8a1db28b51fdd46ba906767b69db2f679000000000000000000000000000000001461afe277bf0e1754c12a8aabbe60262758941281f23496c2eeb714f8c01fd3793faf15139ae173be6c3ff5d534d2bc00000000000000000000000000000000148ad14901be55baa302fa166e5d81cc741d67a98a7052618d77294c12aea56e2d04b7e497662debc714096c433e844e"
            ],
            "gasLimit" : [
                "0x6acfc0"
            ],
            "gasPrice" : "0x0a",
            "nonce" : "0x00",
            "secretKey" : "0x45a915e4d060149eb4365960e6a7a45f334393093061116b197e3240065ff2d8",
            "sender" : "0xa94f5374fce5edbc8e2a8697c15331677e6ebf0b",
            "to" : "0x095e7baea6a6c7c4c2dfeb977efac326af552d87",
            "value" : [
                "0x03e8"
            ]
        }
    }
}