{
    "g1_add_99" : {
        "_info" : {
            "comment" : "A test for g1_add_99",
            "filling-rpc-server" : "evm version 1.14.0-unstable-a208e725-20240416",
            "filling-tool-version" : "retesteth-0.3.2-cancun+commit.353b2b37.Linux.g++",
            "generatedTestHash" : "b615ba338229769269bb3a616bf848d35f6ac98fed6d3b6fd3a9fed84839f7dd",
            "lllcversion" : "Version: 0.5.14-develop.2023.7.11+commit.c58ab2c6.mod.Linux.g++",
            "solidity" : "Version: 0.8.21+commit.d9974bed.Linux.g++",
            "source" : "src/EIPTestsFiller/StateTests/stEIP2537/g1_add_99Filler.json",
            "sourceHash" : "a64d97d6f1b24297b89b894cd082263fed0fa8d71797e409b58284b2836728f5"
        },
        "env" : {
            "currentBaseFee" : "0x0a",
            "currentCoinbase" : "0x2adc25665018aa1fe0e6bc666dac8fc2697ff9ba",
            "currentDifficulty" : "0x020000",
            "currentExcessBlobGas" : "0x00",
            "currentGasLimit" : "0xff112233445566",
            "currentNumber" : "0x01",
            "currentRandom" : "0x0000000000000000000000000000000000000000000000000000000000020000",
            "currentTimestamp" : "0x03e8"
        },
        "post" : {
            "Prague" : [
                {
                    "hash" : "0xaff1e86ee93adc96ba864186b6191a1d060cdf3dc36d64510c5447c263c8695b",
                    "indexes" : {
                        "data" : 0,
                        "gas" : 0,
                        "value" : 0
                    },
                    "logs" : "0x1dcc4de8dec75d7aab85b567b6ccd41ad312451b948a7413f0a142fd40d49347",
                    "txbytes" : "0xf901c8800a836acfc094095e7baea6a6c7c4c2dfeb977efac326af552d878203e8b9016412bd4299000000000000000000000000000000000000000000000000000000000000000b00000000000000000000000000000000000000000000000000000000000000400000000000000000000000000000000000000000000000000000000000000100000000000000000000000000000000000106df8eba767e90cce0eabdaacc24d8e226c6865012ef8cb1460de5a319d443fdc6b4f4e58fb668943e0528b1809da10000000000000000000000000000000019789f464c95c179af18704c0b67b881991880f75ee7b03b9feafa3eafcd0f7d30a17fdd9cf439ff7fe683adca2083b50000000000000000000000000000000017a81b957a12adf474a2913e8636f169ea9cd10be62c16b88f95f5caf661f158a032a9f7d249fdf2765caa1564bed0570000000000000000000000000000000017fbf2abc62dc2678b65d509e19c9c9c5d961c72565649a078da8dff98be6236ef314e9ff8022f639ff565353345c2301ba0155ecf1b3db14d933e719c5fcf5af218db474e27bdb8b9152d5c80c57abfb671a01399a498443a24834d3150f1397abd26dcce74a626717228c18367e85776a06c"
                }
            ]
        },
        "pre" : {
            "0x095e7baea6a6c7c4c2dfeb977efac326af552d87" : {
                "balance" : "0x00",
                "code" : "0x60806040526004361061001e5760003560e01c806312bd429914610023575b600080fd5b6100fc6004803603604081101561003957600080fd5b81019080803573ffffffffffffffffffffffffffffffffffffffff1690602001909291908035906020019064010000000081111561007657600080fd5b82018360208201111561008857600080fd5b803590602001918460018302840111640100000000831117156100aa57600080fd5b91908080601f016020809104026020016040519081016040528093929190818152602001838380828437600081840152601f19601f820116905080830192505050505050509192919290505050610182565b604051808315151515815260200180602001828103825283818151815260200191508051906020019080838360005b8381101561014657808201518184015260208101905061012b565b50505050905090810190601f1680156101735780820380516001836020036101000a031916815260200191505b50935050505060405180910390f35b600060608373ffffffffffffffffffffffffffffffffffffffff16836040518082805190602001908083835b602083106101d157805182526020820191506020810190506020830392506101ae565b6001836020036101000a038019825116818451168082178552505050505050905001915050600060405180830381855afa9150503d8060008114610231576040519150601f19603f3d011682016040523d82523d6000602084013e610236565b606091505b508092508193505050600060405180807f6572726f72000000000000000000000000000000000000000000000000000000815250600501905060405180910390209050821561028a57818051906020012090505b8060025582829250925050925092905056fea2646970667358221220db58d80e8530eed625d9b4250a6055c2eb1d7c117a7ca267e6f8a059bdd2f39e64736f6c634300060a0033",
                "nonce" : "0x01",
                "storage" : {
                }
            },
            "0xa94f5374fce5edbc8e2a8697c15331677e6ebf0b" : {
                "balance" : "0x0de0b6b3a7640000",
                "code" : "0x",
                "nonce" : "0x00",
                "storage" : {
                }
            }
        },
        "transaction" : {
            "data" : [
                "0x12bd4299000000000000000000000000000000000000000000000000000000000000000b00000000000000000000000000000000000000000000000000000000000000400000000000000000000000000000000000000000000000000000000000000100000000000000000000000000000000000106df8eba767e90cce0eabdaacc24d8e226c6865012ef8cb1460de5a319d443fdc6b4f4e58fb668943e0528b1809da10000000000000000000000000000000019789f464c95c179af18704c0b67b881991880f75ee7b03b9feafa3eafcd0f7d30a17fdd9cf439ff7fe683adca2083b50000000000000000000000000000000017a81b957a12adf474a2913e8636f169ea9cd10be62c16b88f95f5caf661f158a032a9f7d249fdf2765caa1564bed0570000000000000000000000000000000017fbf2abc62dc2678b65d509e19c9c9c5d961c72565649a078da8dff98be6236ef314e9ff8022f639ff565353345c230"
            ],
            "gasLimit" : [
                "0x6acfc0"
            ],
            "gasPrice" : "0x0a",
            "nonce" : "0x00",
            "secretKey" : "0x45a915e4d060149eb4365960e6a7a45f334393093061116b197e3240065ff2d8",
            "sender" : "0xa94f5374fce5edbc8e2a8697c15331677e6ebf0b",
            "to" : "0x095e7baea6a6c7c4c2dfeb977efac326af552d87",
            "value" : [
                "0x03e8"
            ]
        }
    }
}