{
    "g1_multiexp_90" : {
        "_info" : {
            "comment" : "A test for g1_multiexp_90",
            "filling-rpc-server" : "evm version 1.14.0-unstable-a208e725-20240416",
            "filling-tool-version" : "retesteth-0.3.2-cancun+commit.353b2b37.Linux.g++",
            "generatedTestHash" : "19a2a3445e2e603c7364cafe83b4a04df62b4acc5421eb2e19ef4f52adb1ff23",
            "lllcversion" : "Version: 0.5.14-develop.2023.7.11+commit.c58ab2c6.mod.Linux.g++",
            "solidity" : "Version: 0.8.21+commit.d9974bed.Linux.g++",
            "source" : "src/EIPTestsFiller/StateTests/stEIP2537/g1_multiexp_90Filler.json",
            "sourceHash" : "4e657b6328d7f066193189a5497f7e5e2f149add6288b32f143177c00c6239b8"
        },
        "env" : {
            "currentBaseFee" : "0x0a",
            "currentCoinbase" : "0x2adc25665018aa1fe0e6bc666dac8fc2697ff9ba",
            "currentDifficulty" : "0x020000",
            "currentExcessBlobGas" : "0x00",
            "currentGasLimit" : "0xff112233445566",
            "currentNumber" : "0x01",
            "currentRandom" : "0x0000000000000000000000000000000000000000000000000000000000020000",
            "currentTimestamp" : "0x03e8"
        },
        "post" : {
            "Prague" : [
                {
                    "hash" : "0xab23477cd5e8c6a689f0130017baa58a2f411226f236e7cf82c938281704a0db",
                    "indexes" : {
                        "data" : 0,
                        "gas" : 0,
                        "value" : 0
                    },
                    "logs" : "0x1dcc4de8dec75d7aab85b567b6ccd41ad312451b948a7413f0a142fd40d49347",
                    "txbytes" : "0xf90ac8800a836acfc094095e7baea6a6c7c4c2dfeb977efac326af552d878203e8b90a6412bd4299000000000000000000000000000000000000000000000000000000000000000d00000000000000000000000000000000000000000000000000000000000000400000000000000000000000000000000000000000000000000000000000000a00000000000000000000000000000000000688d6eaa2964e33cebae16623e228256937ce9a7721c4fbc85233ffb3edad5d6349d9c8a00c16faa0efd9c54827f46a0000000000000000000000000000000019fa249ce7be07208cdac9f9927163bb1b79b40b320623fc1a08a299d5500cacdc55386ce451173f683a9ce3f006c1e4aaea75e63204e177d404898aa51555767f813c3f3ed283405ed1ee829b04c85c00000000000000000000000000000000078eef7d7951f257b17c579fec05f3efe332534b2f56a953a701a8b92664b9a0b37959f7c3dbd77ac18a5e72d174b9f20000000000000000000000000000000017cb59169aee6caa1dbc3c47c29f977a44a81d33f1cd298d5df3e9469c8543d919b985e1b588a96a9268cef03876effbdb48a90ddcd791e6a9debfabcb1c71c88e7ad98f9e739ee752b381b28d7656f200000000000000000000000000000000025bae0252e5d83a3b76f2a861ebb1312bd344e3eaaed5e7169de248137a929ab94156be11e9b16ff312180d856d93900000000000000000000000000000000013c207c57a4876f6bd6e8e87eed0021d5e6b2aa3b2a323572fc2ad521e807c366fe31ec285c8412f89328cdf09dcbc99ad1795823d3834496b0a1c2c07431f9d76071db77834005fa1228393ad4ce3f4000000000000000000000000000000000ea93e5fe055ed1ce77de5d298fafdc4201418489b64d10c447de3973c1b98c184c0cae1d95831742f3d50613c5cd8c40000000000000000000000000000000004f2f3d0a5caac826632ee95dd1aafe181976552abdcc7db737f5693f3d08d3c4a85365e05e369365a37ef1b3df5cbca36d56e38fe63e573b02203be04ef9e1a044e1754eb2db50c6f9804abc4a40f460000000000000000000000000000000004c8b69c09f67ad17e8fb9fea4b7532c7c5bf3edb7669e26eea4f9c8f0bc10b0b1895acdee731da5999318d83095ef5900000000000000000000000000000000054f950a1ae65dfcd40eca15e5fbae984e7672a23ec030eea0cbc0424cc8073186b8442e0d71d6a4a77cee37c1108f941a6b36f4674ab19202037d59fd8e14369e5d3d71acc3c76985b813d81ca6e24a000000000000000000000000000000000b69b6b7b6cb1569ccbcea029dc71560d54b8bb88bd33af1c12a09d867fbeada2e58585385f1fe508a0dcdf8d2143f71000000000000000000000000000000000277561e6ac810ddf4c46288a065e5441ae0fe2d7ee79ebd6cea8712281a36f812c0bf49c21beb63a1f5cb670dd37d03ad85286877fa7e5a9a61dba9df5ce35083beca7c2f5ecad13d226fa32b9720e9000000000000000000000000000000000c0f4206d4cd564be1efcbdf57f99ce43b97d3e170017fe352ed3ec60862f87730d4d9d9d56ea0aac4f586d2f1786df900000000000000000000000000000000073202e8c73d14469d15a392589db79f3897b72bdb2b788da9012c7aaa167a157f85f3431161d35f45bdfe0f2255b6378fa5387c5712832b52c9c72e10c6f69e9c1c5b278aa379140e75e404c4f50a2c00000000000000000000000000000000191cae6012ca07ddf511ed586ef19e9f0d913d081cd752f033c9f74c334c6f5d075b4f6ec85467caea7836f51d0159af0000000000000000000000000000000016e65314e34e1c7ad577a36eff992abe6f26fc5349d12db12394bac648cbc1452cc366aff69e8cc4e2e5bc85db237a863023298162ebe7f4ae6aee45a8a6ba602c3942a8bd6b35636fc6b85596a582e0000000000000000000000000000000000bf583ae5e3a7827610d91c0d2433c8d358fbc12c016c59be8454c039197971f90191737993bfd08aa96d7838b7ce6dc00000000000000000000000000000000046fc386c5b456bafe03fc84b4f98939f9c736ac74cac507ea036d2443066090118138547766f637537425f64be9691b8ff2430d2f82c6d5e7424836ecea15af0ba2d0bd6498e65c65b6cd281a7b8f28000000000000000000000000000000000f08b3868ea056ff8e82fb7e22a6522985e92df1df9db77f787bcb3ed701bf8c90badcfd94e9d3e3b3b68ec497b9fcc700000000000000000000000000000000002e6f5e9eb44fcc7aa96a43856a707f5a82cb4c14c99b21df09e666d4802d15fb50d535184b63ae246d4ad77b6c4851415eea22058493dbf6ac248fd2ad8b4734ebe33761f2177089a3feda396001c000000000000000000000000000000000167e13cc54e9e9866bddff0c37e942ef8393a588ed3c2e90da12d0a8360edd6c3980bde808ff16588a57100d1a8898fd0000000000000000000000000000000014b21a7a106640b55cfeb19d3c23aabcf1c0be78fa554613e68404978b78e5d34b6b6378c2e87d0b8bf1cf3444d0db31ff79e3ef5d32a751b713180be37d44ae55c59c5a8121c132c5098ff972d8a9740000000000000000000000000000000002e8053215ae6894e8df09394353fe98b38fe4b17b9f20c7b48c4baad91519587f63b863e4de79be71672e1fb00d337a000000000000000000000000000000000c2ef9251a148f1ba8cd75a60ee18ba6328e1c3a6780c790cba3bc91a2145f44cb8bda5257c03890d5c5674e4d09296d039bc7274a3ab172285d853d368da0950203a48ef61b3c7564644762279c1ff3000000000000000000000000000000000aa7fdd550eabb1b734db00400304be9663c008d322d67fc771a85991bca6413ec07ab3adc3cb40d390fd41021434b97000000000000000000000000000000001994d9be11443f0a95a2ba4f7240a9dbaaffbc70256aebc0f10c322fc5b120feb2cd8492d02c60578f8becd7a8e589c92c47d0b1fd24c1c66a3cb0deb7d51ea19f0fc492f637ed5d4d03e102cbdd05550000000000000000000000000000000012b3574c35288c63930be8024afcc91194b30d2b486edae832dcb34778886af5816f7478df166f0a7e4752d8c12423e30000000000000000000000000000000012cd382d17ea10ad3fbfb40fdf4f3814a19384e302542a0f5731920443e4498a1f8f4d89086764beff079583a672b93bab4aca860ae4bc20d33808533c9a70108b153bc4b2256003ad4bbc11dc92898500000000000000000000000000000000117294ca9961249be6570ea760bb1e562cbd587f78be482263e4228171d9ee3d970b234455912299933689096f4afbd000000000000000000000000000000000029f88a99c750a388eca5dc6939082280ddefbf7d23997cca3653aaaa03a3ee4677fa8291641ad1f46fee0f8f1268140297500a2747f9a68b2d8d9ca5b0390369d919897c53d422cb76c5a283c38669e000000000000000000000000000000001006f64c279f074bf036897ded9deaf9b4ca380a9a7542490be675355c3979b2925be09ac4613fd6b7a4a8bb9e357f70000000000000000000000000000000001537e170e8dd88a92a6bfedcef69bb370f7bc1f32c36d203f5b6859be9b60fcb4d1e3948687ac7791d867e7c200967eea87ca4cf226c212c80f3db5e4e781ad7391fb73b1124d01cf893169d1c50ca991ca0f8c2efd1cd22a1308bd4033b7a273f2f3aa562f7cc1be7f4e75928df7eed0e40a034d0a14a1cec03a68e43a9e20d95f363e3a4b0ea20f2492bbbde657ec69dd89a"
                }
            ]
        },
        "pre" : {
            "0x095e7baea6a6c7c4c2dfeb977efac326af552d87" : {
                "balance" : "0x00",
                "code" : "0x60806040526004361061001e5760003560e01c806312bd429914610023575b600080fd5b6100fc6004803603604081101561003957600080fd5b81019080803573ffffffffffffffffffffffffffffffffffffffff1690602001909291908035906020019064010000000081111561007657600080fd5b82018360208201111561008857600080fd5b803590602001918460018302840111640100000000831117156100aa57600080fd5b91908080601f016020809104026020016040519081016040528093929190818152602001838380828437600081840152601f19601f820116905080830192505050505050509192919290505050610182565b604051808315151515815260200180602001828103825283818151815260200191508051906020019080838360005b8381101561014657808201518184015260208101905061012b565b50505050905090810190601f1680156101735780820380516001836020036101000a031916815260200191505b50935050505060405180910390f35b600060608373ffffffffffffffffffffffffffffffffffffffff16836040518082805190602001908083835b602083106101d157805182526020820191506020810190506020830392506101ae565b6001836020036101000a038019825116818451168082178552505050505050905001915050600060405180830381855afa9150503d8060008114610231576040519150601f19603f3d011682016040523d82523d6000602084013e610236565b606091505b508092508193505050600060405180807f6572726f72000000000000000000000000000000000000000000000000000000815250600501905060405180910390209050821561028a57818051906020012090505b8060025582829250925050925092905056fea2646970667358221220db58d80e8530eed625d9b4250a6055c2eb1d7c117a7ca267e6f8a059bdd2f39e64736f6c634300060a0033",
                "nonce" : "0x01",
                "storage" : {
                }
            },
            "0xa94f5374fce5edbc8e2a8697c15331677e6ebf0b" : {
                "balance" : "0x0de0b6b3a7640000",
                "code" : "0x",
                "nonce" : "0x00",
                "storage" : {
                }
            }
        },
        "transaction" : {
            "data" : [
                "0x12bd4299000000000000000000000000000000000000000000000000000000000000000d00000000000000000000000000000000000000000000000000000000000000400000000000000000000000000000000000000000000000000000000000000a00000000000000000000000000000000000688d6eaa2964e33cebae16623e228256937ce9a7721c4fbc85233ffb3edad5d6349d9c8a00c16faa0efd9c54827f46a0000000000000000000000000000000019fa249ce7be07208cdac9f9927163bb1b79b40b320623fc1a08a299d5500cacdc55386ce451173f683a9ce3f006c1e4aaea75e63204e177d404898aa51555767f813c3f3ed283405ed1ee829b04c85c00000000000000000000000000000000078eef7d7951f257b17c579fec05f3efe332534b2f56a953a701a8b92664b9a0b37959f7c3dbd77ac18a5e72d174b9f20000000000000000000000000000000017cb59169aee6caa1dbc3c47c29f977a44a81d33f1cd298d5df3e9469c8543d919b985e1b588a96a9268cef03876effbdb48a90ddcd791e6a9debfabcb1c71c88e7ad98f9e739ee752b381b28d7656f200000000000000000000000000000000025bae0252e5d83a3b76f2a861ebb1312bd344e3eaaed5e7169de248137a929ab94156be11e9b16ff312180d856d93900000000000000000000000000000000013c207c57a4876f6bd6e8e87eed0021d5e6b2aa3b2a323572fc2ad521e807c366fe31ec285c8412f89328cdf09dcbc99ad1795823d3834496b0a1c2c07431f9d76071db77834005fa1228393ad4ce3f4000000000000000000000000000000000ea93e5fe055ed1ce77de5d298fafdc4201418489b64d10c447de3973c1b98c184c0cae1d95831742f3d50613c5cd8c40000000000000000000000000000000004f2f3d0a5caac826632ee95dd1aafe181976552abdcc7db737f5693f3d08d3c4a85365e05e369365a37ef1b3df5cbca36d56e38fe63e573b02203be04ef9e1a044e1754eb2db50c6f9804abc4a40f460000000000000000000000000000000004c8b69c09f67ad17e8fb9fea4b7532c7c5bf3edb7669e26eea4f9c8f0bc10b0b1895acdee731da5999318d83095ef5900000000000000000000000000000000054f950a1ae65dfcd40eca15e5fbae984e7672a23ec030eea0cbc0424cc8073186b8442e0d71d6a4a77cee37c1108f941a6b36f4674ab19202037d59fd8e14369e5d3d71acc3c76985b813d81ca6e24a000000000000000000000000000000000b69b6b7b6cb1569ccbcea029dc71560d54b8bb88bd33af1c12a09d867fbeada2e58585385f1fe508a0dcdf8d2143f71000000000000000000000000000000000277561e6ac810ddf4c46288a065e5441ae0fe2d7ee79ebd6cea8712281a36f812c0bf49c21beb63a1f5cb670dd37d03ad85286877fa7e5a9a61dba9df5ce35083beca7c2f5ecad13d226fa32b9720e9000000000000000000000000000000000c0f4206d4cd564be1efcbdf57f99ce43b97d3e170017fe352ed3ec60862f87730d4d9d9d56ea0aac4f586d2f1786df900000000000000000000000000000000073202e8c73d14469d15a392589db79f3897b72bdb2b788da9012c7aaa167a157f85f3431161d35f45bdfe0f2255b6378fa5387c5712832b52c9c72e10c6f69e9c1c5b278aa379140e75e404c4f50a2c00000000000000000000000000000000191cae6012ca07ddf511ed586ef19e9f0d913d081cd752f033c9f74c334c6f5d075b4f6ec85467caea7836f51d0159af0000000000000000000000000000000016e65314e34e1c7ad577a36eff992abe6f26fc5349d12db12394bac648cbc1452cc366aff69e8cc4e2e5bc85db237a863023298162ebe7f4ae6aee45a8a6ba602c3942a8bd6b35636fc6b85596a582e0000000000000000000000000000000000bf583ae5e3a7827610d91c0d2433c8d358fbc12c016c59be8454c039197971f90191737993bfd08aa96d7838b7ce6dc00000000000000000000000000000000046fc386c5b456bafe03fc84b4f98939f9c736ac74cac507ea036d2443066090118138547766f637537425f64be9691b8ff2430d2f82c6d5e7424836ecea15af0ba2d0bd6498e65c65b6cd281a7b8f28000000000000000000000000000000000f08b3868ea056ff8e82fb7e22a6522985e92df1df9db77f787bcb3ed701bf8c90badcfd94e9d3e3b3b68ec497b9fcc700000000000000000000000000000000002e6f5e9eb44fcc7aa96a43856a707f5a82cb4c14c99b21df09e666d4802d15fb50d535184b63ae246d4ad77b6c4851415eea22058493dbf6ac248fd2ad8b4734ebe33761f2177089a3feda396001c000000000000000000000000000000000167e13cc54e9e9866bddff0c37e942ef8393a588ed3c2e90da12d0a8360edd6c3980bde808ff16588a57100d1a8898fd0000000000000000000000000000000014b21a7a106640b55cfeb19d3c23aabcf1c0be78fa554613e68404978b78e5d34b6b6378c2e87d0b8bf1cf3444d0db31ff79e3ef5d32a751b713180be37d44ae55c59c5a8121c132c5098ff972d8a9740000000000000000000000000000000002e8053215ae6894e8df09394353fe98b38fe4b17b9f20c7b48c4baad91519587f63b863e4de79be71672e1fb00d337a000000000000000000000000000000000c2ef9251a148f1ba8cd75a60ee18ba6328e1c3a6780c790cba3bc91a2145f44cb8bda5257c03890d5c5674e4d09296d039bc7274a3ab172285d853d368da0950203a48ef61b3c7564644762279c1ff3000000000000000000000000000000000aa7fdd550eabb1b734db00400304be9663c008d322d67fc771a85991bca6413ec07ab3adc3cb40d390fd41021434b97000000000000000000000000000000001994d9be11443f0a95a2ba4f7240a9dbaaffbc70256aebc0f10c322fc5b120feb2cd8492d02c60578f8becd7a8e589c92c47d0b1fd24c1c66a3cb0deb7d51ea19f0fc492f637ed5d4d03e102cbdd05550000000000000000000000000000000012b3574c35288c63930be8024afcc91194b30d2b486edae832dcb34778886af5816f7478df166f0a7e4752d8c12423e30000000000000000000000000000000012cd382d17ea10ad3fbfb40fdf4f3814a19384e302542a0f5731920443e4498a1f8f4d89086764beff079583a672b93bab4aca860ae4bc20d33808533c9a70108b153bc4b2256003ad4bbc11dc92898500000000000000000000000000000000117294ca9961249be6570ea760bb1e562cbd587f78be482263e4228171d9ee3d970b234455912299933689096f4afbd000000000000000000000000000000000029f88a99c750a388eca5dc6939082280ddefbf7d23997cca3653aaaa03a3ee4677fa8291641ad1f46fee0f8f1268140297500a2747f9a68b2d8d9ca5b0390369d919897c53d422cb76c5a283c38669e000000000000000000000000000000001006f64c279f074bf036897ded9deaf9b4ca380a9a7542490be675355c3979b2925be09ac4613fd6b7a4a8bb9e357f70000000000000000000000000000000001537e170e8dd88a92a6bfedcef69bb370f7bc1f32c36d203f5b6859be9b60fcb4d1e3948687ac7791d867e7c200967eea87ca4cf226c212c80f3db5e4e781ad7391fb73b1124d01cf893169d1c50ca99"
            ],
            "gasLimit" : [
                "0x6acfc0"
            ],
            "gasPrice" : "0x0a",
            "nonce" : "0x00",
            "secretKey" : "0x45a915e4d060149eb4365960e6a7a45f334393093061116b197e3240065ff2d8",
            "sender" : "0xa94f5374fce5edbc8e2a8697c15331677e6ebf0b",
            "to" : "0x095e7baea6a6c7c4c2dfeb977efac326af552d87",
            "value" : [
                "0x03e8"
            ]
        }
    }
}