{
    "g2_add_93" : {
        "_info" : {
            "comment" : "A test for g2_add_93",
            "filling-rpc-server" : "evm version 1.14.0-unstable-a208e725-20240416",
            "filling-tool-version" : "retesteth-0.3.2-cancun+commit.353b2b37.Linux.g++",
            "generatedTestHash" : "8aad5444839f37e86d2c4cf2805d1174afcef746a17f11d69cfa854a9b70c627",
            "lllcversion" : "Version: 0.5.14-develop.2023.7.11+commit.c58ab2c6.mod.Linux.g++",
            "solidity" : "Version: 0.8.21+commit.d9974bed.Linux.g++",
            "source" : "src/EIPTestsFiller/StateTests/stEIP2537/g2_add_93Filler.json",
            "sourceHash" : "97f9cd18aca0cde168976e203f33dad3eeb8c89cfea60d10edeb5d0fb36e4cd9"
        },
        "env" : {
            "currentBaseFee" : "0x0a",
            "currentCoinbase" : "0x2adc25665018aa1fe0e6bc666dac8fc2697ff9ba",
            "currentDifficulty" : "0x020000",
            "currentExcessBlobGas" : "0x00",
            "currentGasLimit" : "0xff112233445566",
            "currentNumber" : "0x01",
            "currentRandom" : "0x0000000000000000000000000000000000000000000000000000000000020000",
            "currentTimestamp" : "0x03e8"
        },
        "post" : {
            "Prague" : [
                {
                    "hash" : "0xe731826e56f442590ed5e2f90ab033c00a60695f9c4411ca1336449d29820c15",
                    "indexes" : {
                        "data" : 0,
                        "gas" : 0,
                        "value" : 0
                    },
                    "logs" : "0x1dcc4de8dec75d7aab85b567b6ccd41ad312451b948a7413f0a142fd40d49347",
                    "txbytes" : "0xf902c8800a836acfc094095e7baea6a6c7c4c2dfeb977efac326af552d878203e8b9026412bd4299000000000000000000000000000000000000000000000000000000000000000e0000000000000000000000000000000000000000000000000000000000000040000000000000000000000000000000000000000000000000000000000000020000000000000000000000000000000000042f1c8b9fe81cdcabea047d0998a1354ce09d62a14f1d0e9d188e2f35f2e1845c2b090c5e157595b33108c67e6c184c0000000000000000000000000000000018e69d3564d4ccc0306e1e6b227b0f961aa9afcad59d4ee1737f980dc876609c59a4c6a3506f987467beba0764b857000000000000000000000000000000000012ce5883156588cfe0f4838f819f985b09f1eab40a5ea8e30fc5d70d029a01a4537641248f4c21dd203909e0170737c80000000000000000000000000000000002888eb9778a4045feb5899dda258657b9f41345731ba630fbbf186b3be4b58ffc7f48abb65b693b573a73f85440a7a70000000000000000000000000000000001cdfae9234096578b9413f926ef8c6831f2c0f700e25d7553a746aef44238e493f8032e09f67f2fed9676c9611f60e70000000000000000000000000000000019c8bae08d3926997146f7827f00cde863684dd4050ea5da64f6798e7a930d3c1f34046bea0f44232594f5469db566280000000000000000000000000000000013574b997ee8988aa81db0e2ddb98be2e7005603076fac5cb246f65c869aa7bb3f148c8dde970e34e5e5efce023e633c000000000000000000000000000000000998bc9d41c5d527360fc4e68ba067d3778cf5cf00e5959b5ec52c1595aabe6e2e92d40cb34faa84513d150568c8cfc01ca00f089ecf6293dbdfa95058f087c9810e00c1b04536e9e522135ef635a88ef84ca03051762c7243e84e011c632b80b9aad7638802489311420ff728d6e1c951f95e"
                }
            ]
        },
        "pre" : {
            "0x095e7baea6a6c7c4c2dfeb977efac326af552d87" : {
                "balance" : "0x00",
                "code" : "0x60806040526004361061001e5760003560e01c806312bd429914610023575b600080fd5b6100fc6004803603604081101561003957600080fd5b81019080803573ffffffffffffffffffffffffffffffffffffffff1690602001909291908035906020019064010000000081111561007657600080fd5b82018360208201111561008857600080fd5b803590602001918460018302840111640100000000831117156100aa57600080fd5b91908080601f016020809104026020016040519081016040528093929190818152602001838380828437600081840152601f19601f820116905080830192505050505050509192919290505050610182565b604051808315151515815260200180602001828103825283818151815260200191508051906020019080838360005b8381101561014657808201518184015260208101905061012b565b50505050905090810190601f1680156101735780820380516001836020036101000a031916815260200191505b50935050505060405180910390f35b600060608373ffffffffffffffffffffffffffffffffffffffff16836040518082805190602001908083835b602083106101d157805182526020820191506020810190506020830392506101ae565b6001836020036101000a038019825116818451168082178552505050505050905001915050600060405180830381855afa9150503d8060008114610231576040519150601f19603f3d011682016040523d82523d6000602084013e610236565b606091505b508092508193505050600060405180807f6572726f72000000000000000000000000000000000000000000000000000000815250600501905060405180910390209050821561028a57818051906020012090505b8060025582829250925050925092905056fea2646970667358221220db58d80e8530eed625d9b4250a6055c2eb1d7c117a7ca267e6f8a059bdd2f39e64736f6c634300060a0033",
                "nonce" : "0x01",
                "storage" : {
                }
            },
            "0xa94f5374fce5edbc8e2a8697c15331677e6ebf0b" : {
                "balance" : "0x0de0b6b3a7640000",
                "code" : "0x",
                "nonce" : "0x00",
                "storage" : {
                }
            }
        },
        "transaction" : {
            "data" : [
                "0x12bd4299000000000000000000000000000000000000000000000000000000000000000e0000000000000000000000000000000000000000000000000000000000000040000000000000000000000000000000000000000000000000000000000000020000000000000000000000000000000000042f1c8b9fe81cdcabea047d0998a1354ce09d62a14f1d0e9d188e2f35f2e1845c2b090c5e157595b33108c67e6c184c0000000000000000000000000000000018e69d3564d4ccc0306e1e6b227b0f961aa9afcad59d4ee1737f980dc876609c59a4c6a3506f987467beba0764b857000000000000000000000000000000000012ce5883156588cfe0f4838f819f985b09f1eab40a5ea8e30fc5d70d029a01a4537641248f4c21dd203909e0170737c80000000000000000000000000000000002888eb9778a4045feb5899dda258657b9f41345731ba630fbbf186b3be4b58ffc7f48abb65b693b573a73f85440a7a70000000000000000000000000000000001cdfae9234096578b9413f926ef8c6831f2c0f700e25d7553a746aef44238e493f8032e09f67f2fed9676c9611f60e70000000000000000000000000000000019c8bae08d3926997146f7827f00cde863684dd4050ea5da64f6798e7a930d3c1f34046bea0f44232594f5469db566280000000000000000000000000000000013574b997ee8988aa81db0e2ddb98be2e7005603076fac5cb246f65c869aa7bb3f148c8dde970e34e5e5efce023e633c000000000000000000000000000000000998bc9d41c5d527360fc4e68ba067d3778cf5cf00e5959b5ec52c1595aabe6e2e92d40cb34faa84513d150568c8cfc0"
            ],
            "gasLimit" : [
                "0x6acfc0"
            ],
            "gasPrice" : "0x0a",
            "nonce" : "0x00",
            "secretKey" : "0x45a915e4d060149eb4365960e6a7a45f334393093061116b197e3240065ff2d8",
            "sender" : "0xa94f5374fce5edbc8e2a8697c15331677e6ebf0b",
            "to" : "0x095e7baea6a6c7c4c2dfeb977efac326af552d87",
            "value" : [
                "0x03e8"
            ]
        }
    }
}