{
    "g2_add_40" : {
        "_info" : {
            "comment" : "A test for g2_add_40",
            "filling-rpc-server" : "evm version 1.14.0-unstable-a208e725-20240416",
            "filling-tool-version" : "retesteth-0.3.2-cancun+commit.353b2b37.Linux.g++",
            "generatedTestHash" : "8099884ebccd132a73c2361e7d5e7b326171df00f6b4eb84946e33e007d36773",
            "lllcversion" : "Version: 0.5.14-develop.2023.7.11+commit.c58ab2c6.mod.Linux.g++",
            "solidity" : "Version: 0.8.21+commit.d9974bed.Linux.g++",
            "source" : "src/EIPTestsFiller/StateTests/stEIP2537/g2_add_40Filler.json",
            "sourceHash" : "aa82902be35e750cc75c7607ab2705bc87a61596077b7204cf5655fde7d03039"
        },
        "env" : {
            "currentBaseFee" : "0x0a",
            "currentCoinbase" : "0x2adc25665018aa1fe0e6bc666dac8fc2697ff9ba",
            "currentDifficulty" : "0x020000",
            "currentExcessBlobGas" : "0x00",
            "currentGasLimit" : "0xff112233445566",
            "currentNumber" : "0x01",
            "currentRandom" : "0x0000000000000000000000000000000000000000000000000000000000020000",
            "currentTimestamp" : "0x03e8"
        },
        "post" : {
            "Prague" : [
                {
                    "hash" : "0x16b200470e1f334c87575ca2bf747632d2971b8dbff296c9cc59853369d72938",
                    "indexes" : {
                        "data" : 0,
                        "gas" : 0,
                        "value" : 0
                    },
                    "logs" : "0x1dcc4de8dec75d7aab85b567b6ccd41ad312451b948a7413f0a142fd40d49347",
                    "txbytes" : "0xf902c8800a836acfc094095e7baea6a6c7c4c2dfeb977efac326af552d878203e8b9026412bd4299000000000000000000000000000000000000000000000000000000000000000e000000000000000000000000000000000000000000000000000000000000004000000000000000000000000000000000000000000000000000000000000002000000000000000000000000000000000006fcd2c4fe848e9462ba1112baad39031c210952adbdd06293a622ffe2d1c6e4fcc8773ec8913717018b97bcb9a554fd00000000000000000000000000000000130a97442f3273b7b35464545e7351faf71ead9b8996c63889a45945ed82bba29bff5014776c6185219a5234d8475c92000000000000000000000000000000000491d571bac5487b866022a0714be11b38bfb296233845cc434a50be1d35f516b8c6b046fe3d0a8f4f95ac20eddea01b0000000000000000000000000000000017e34b04e6fdf152c848f2432b7bd84b3dba3915f06eb77efb8035750aca9d89e92e1d1bc4871105c440d639e8d8b05500000000000000000000000000000000057f975064a29ba6ad20d6e6d97a15bd314d6cd419948d974a16923d52b38b9203f95937a0a0493a693099e4fa17ea540000000000000000000000000000000014396ce4abfc32945a6b2b0eb4896a6b19a041d4eae320ba18507ec3828964e56719fffaa47e57ea4a2e3bd1a149b6b600000000000000000000000000000000048b3e4ba3e2d1e0dbf5955101cf038dc22e87b0855a57b631ef119d1bd19d56c38a1d72376284c8598e866b6dba37530000000000000000000000000000000007c0b98cda33be53cf4ef29d0500ff5e7a3c2df6f83dfc1c36211d7f9c696b77dfa6571169cf7935d2fb5a6463cceac61ca0ae6542f26c845ee6e4d881466f899104afe5ef220218441a9e8dad89c02709eda04ec81a459bd9962b4e2a4a154cf1adbeb4ca2ac099bdb2842abb7cff65e648d9"
                }
            ]
        },
        "pre" : {
            "0x095e7baea6a6c7c4c2dfeb977efac326af552d87" : {
                "balance" : "0x00",
                "code" : "0x60806040526004361061001e5760003560e01c806312bd429914610023575b600080fd5b6100fc6004803603604081101561003957600080fd5b81019080803573ffffffffffffffffffffffffffffffffffffffff1690602001909291908035906020019064010000000081111561007657600080fd5b82018360208201111561008857600080fd5b803590602001918460018302840111640100000000831117156100aa57600080fd5b91908080601f016020809104026020016040519081016040528093929190818152602001838380828437600081840152601f19601f820116905080830192505050505050509192919290505050610182565b604051808315151515815260200180602001828103825283818151815260200191508051906020019080838360005b8381101561014657808201518184015260208101905061012b565b50505050905090810190601f1680156101735780820380516001836020036101000a031916815260200191505b50935050505060405180910390f35b600060608373ffffffffffffffffffffffffffffffffffffffff16836040518082805190602001908083835b602083106101d157805182526020820191506020810190506020830392506101ae565b6001836020036101000a038019825116818451168082178552505050505050905001915050600060405180830381855afa9150503d8060008114610231576040519150601f19603f3d011682016040523d82523d6000602084013e610236565b606091505b508092508193505050600060405180807f6572726f72000000000000000000000000000000000000000000000000000000815250600501905060405180910390209050821561028a57818051906020012090505b8060025582829250925050925092905056fea2646970667358221220db58d80e8530eed625d9b4250a6055c2eb1d7c117a7ca267e6f8a059bdd2f39e64736f6c634300060a0033",
                "nonce" : "0x01",
                "storage" : {
                }
            },
            "0xa94f5374fce5edbc8e2a8697c15331677e6ebf0b" : {
                "balance" : "0x0de0b6b3a7640000",
                "code" : "0x",
                "nonce" : "0x00",
                "storage" : {
                }
            }
        },
        "transaction" : {
            "data" : [
                "0x12bd4299000000000000000000000000000000000000000000000000000000000000000e000000000000000000000000000000000000000000000000000000000000004000000000000000000000000000000000000000000000000000000000000002000000000000000000000000000000000006fcd2c4fe848e9462ba1112baad39031c210952adbdd06293a622ffe2d1c6e4fcc8773ec8913717018b97bcb9a554fd00000000000000000000000000000000130a97442f3273b7b35464545e7351faf71ead9b8996c63889a45945ed82bba29bff5014776c6185219a5234d8475c92000000000000000000000000000000000491d571bac5487b866022a0714be11b38bfb296233845cc434a50be1d35f516b8c6b046fe3d0a8f4f95ac20eddea01b0000000000000000000000000000000017e34b04e6fdf152c848f2432b7bd84b3dba3915f06eb77efb8035750aca9d89e92e1d1bc4871105c440d639e8d8b05500000000000000000000000000000000057f975064a29ba6ad20d6e6d97a15bd314d6cd419948d974a16923d52b38b9203f95937a0a0493a693099e4fa17ea540000000000000000000000000000000014396ce4abfc32945a6b2b0eb4896a6b19a041d4eae320ba18507ec3828964e56719fffaa47e57ea4a2e3bd1a149b6b600000000000000000000000000000000048b3e4ba3e2d1e0dbf5955101cf038dc22e87b0855a57b631ef119d1bd19d56c38a1d72376284c8598e866b6dba37530000000000000000000000000000000007c0b98cda33be53cf4ef29d0500ff5e7a3c2df6f83dfc1c36211d7f9c696b77dfa6571169cf7935d2fb5a6463cceac6"
            ],
            "gasLimit" : [
                "0x6acfc0"
            ],
            "gasPrice" : "0x0a",
            "nonce" : "0x00",
            "secretKey" : "0x45a915e4d060149eb4365960e6a7a45f334393093061116b197e3240065ff2d8",
            "sender" : "0xa94f5374fce5edbc8e2a8697c15331677e6ebf0b",
            "to" : "0x095e7baea6a6c7c4c2dfeb977efac326af552d87",
            "value" : [
                "0x03e8"
            ]
        }
    }
}