{
    "g2_add_70" : {
        "_info" : {
            "comment" : "A test for g2_add_70",
            "filling-rpc-server" : "evm version 1.14.0-unstable-a208e725-20240416",
            "filling-tool-version" : "retesteth-0.3.2-cancun+commit.353b2b37.Linux.g++",
            "generatedTestHash" : "74ede8902d35151c51a82103f4b4cbab85c4cdfc099cab44da7309c9ca1c42c2",
            "lllcversion" : "Version: 0.5.14-develop.2023.7.11+commit.c58ab2c6.mod.Linux.g++",
            "solidity" : "Version: 0.8.21+commit.d9974bed.Linux.g++",
            "source" : "src/EIPTestsFiller/StateTests/stEIP2537/g2_add_70Filler.json",
            "sourceHash" : "c1a4ed418d64450f98f75345a816375216276005efe9f97e98ba131b774ba65e"
        },
        "env" : {
            "currentBaseFee" : "0x0a",
            "currentCoinbase" : "0x2adc25665018aa1fe0e6bc666dac8fc2697ff9ba",
            "currentDifficulty" : "0x020000",
            "currentExcessBlobGas" : "0x00",
            "currentGasLimit" : "0xff112233445566",
            "currentNumber" : "0x01",
            "currentRandom" : "0x0000000000000000000000000000000000000000000000000000000000020000",
            "currentTimestamp" : "0x03e8"
        },
        "post" : {
            "Prague" : [
                {
                    "hash" : "0x79fd80104726bc8e7e261e1f5d00293b6929b56a4d385e0f24d16e4455e63841",
                    "indexes" : {
                        "data" : 0,
                        "gas" : 0,
                        "value" : 0
                    },
                    "logs" : "0x1dcc4de8dec75d7aab85b567b6ccd41ad312451b948a7413f0a142fd40d49347",
                    "txbytes" : "0xf902c8800a836acfc094095e7baea6a6c7c4c2dfeb977efac326af552d878203e8b9026412bd4299000000000000000000000000000000000000000000000000000000000000000e000000000000000000000000000000000000000000000000000000000000004000000000000000000000000000000000000000000000000000000000000002000000000000000000000000000000000007d2aae9794b7a7de97f7146c0ee8415e09e56fd42535bce6773cadd6f7ac09c4eafe2e926cb7014377e54c703eaa9dd00000000000000000000000000000000172a4a33ccf99eb0473b2c44d30bd53159afae0c7706ad128bccf6258974d5e5761f9be43e618cdbd96027aede7fd5860000000000000000000000000000000012601bce2171c6e4c2968a3efdf1491285f9e4ab37cf973ab5c8e224ad5b40e1b6459ac89090c73deb8fc79fec7fb8e200000000000000000000000000000000112a6443116e6f98ab348e57daa3971b5fa506e40515e1611fbed3e7dd64c5c1e991e0d2539a70eb93e3da0f573d6b22000000000000000000000000000000000caecf650a12bb629ebd3b978ef9c2d4486f8ce21d515451ecdf01d27740f41b719d5a952e737c83641953a8c8b3a1bb000000000000000000000000000000001641ca29ff6016af335499dfc7167b3d961a25b7f61008c27b3cb13d3cb28fb5096413b1c7f1ca18e5d3b5017d6fed1b00000000000000000000000000000000197ed996d62fc0628d8ea4adee487df31c794e05e7c327aaa140c6be0109031bb763c5f84bc35a0597dc61e93d23a9bf000000000000000000000000000000001056c1f3c6ae36be26430d142d34b0e807685c79935496414e004cb85900d85a18454bde9c0f2650f19db35eb3dd468d1ca05b0cc63bcb3a841a8cc92407f513b2a4663cff14f09e9b10529306f55f832f22a0528756a389c9031d32eb0d6fe8b959f8cc314f8d903fab9d39a245b3702d1c10"
                }
            ]
        },
        "pre" : {
            "0x095e7baea6a6c7c4c2dfeb977efac326af552d87" : {
                "balance" : "0x00",
                "code" : "0x60806040526004361061001e5760003560e01c806312bd429914610023575b600080fd5b6100fc6004803603604081101561003957600080fd5b81019080803573ffffffffffffffffffffffffffffffffffffffff1690602001909291908035906020019064010000000081111561007657600080fd5b82018360208201111561008857600080fd5b803590602001918460018302840111640100000000831117156100aa57600080fd5b91908080601f016020809104026020016040519081016040528093929190818152602001838380828437600081840152601f19601f820116905080830192505050505050509192919290505050610182565b604051808315151515815260200180602001828103825283818151815260200191508051906020019080838360005b8381101561014657808201518184015260208101905061012b565b50505050905090810190601f1680156101735780820380516001836020036101000a031916815260200191505b50935050505060405180910390f35b600060608373ffffffffffffffffffffffffffffffffffffffff16836040518082805190602001908083835b602083106101d157805182526020820191506020810190506020830392506101ae565b6001836020036101000a038019825116818451168082178552505050505050905001915050600060405180830381855afa9150503d8060008114610231576040519150601f19603f3d011682016040523d82523d6000602084013e610236565b606091505b508092508193505050600060405180807f6572726f72000000000000000000000000000000000000000000000000000000815250600501905060405180910390209050821561028a57818051906020012090505b8060025582829250925050925092905056fea2646970667358221220db58d80e8530eed625d9b4250a6055c2eb1d7c117a7ca267e6f8a059bdd2f39e64736f6c634300060a0033",
                "nonce" : "0x01",
                "storage" : {
                }
            },
            "0xa94f5374fce5edbc8e2a8697c15331677e6ebf0b" : {
                "balance" : "0x0de0b6b3a7640000",
                "code" : "0x",
                "nonce" : "0x00",
                "storage" : {
                }
            }
        },
        "transaction" : {
            "data" : [
                "0x12bd4299000000000000000000000000000000000000000000000000000000000000000e000000000000000000000000000000000000000000000000000000000000004000000000000000000000000000000000000000000000000000000000000002000000000000000000000000000000000007d2aae9794b7a7de97f7146c0ee8415e09e56fd42535bce6773cadd6f7ac09c4eafe2e926cb7014377e54c703eaa9dd00000000000000000000000000000000172a4a33ccf99eb0473b2c44d30bd53159afae0c7706ad128bccf6258974d5e5761f9be43e618cdbd96027aede7fd5860000000000000000000000000000000012601bce2171c6e4c2968a3efdf1491285f9e4ab37cf973ab5c8e224ad5b40e1b6459ac89090c73deb8fc79fec7fb8e200000000000000000000000000000000112a6443116e6f98ab348e57daa3971b5fa506e40515e1611fbed3e7dd64c5c1e991e0d2539a70eb93e3da0f573d6b22000000000000000000000000000000000caecf650a12bb629ebd3b978ef9c2d4486f8ce21d515451ecdf01d27740f41b719d5a952e737c83641953a8c8b3a1bb000000000000000000000000000000001641ca29ff6016af335499dfc7167b3d961a25b7f61008c27b3cb13d3cb28fb5096413b1c7f1ca18e5d3b5017d6fed1b00000000000000000000000000000000197ed996d62fc0628d8ea4adee487df31c794e05e7c327aaa140c6be0109031bb763c5f84bc35a0597dc61e93d23a9bf000000000000000000000000000000001056c1f3c6ae36be26430d142d34b0e807685c79935496414e004cb85900d85a18454bde9c0f2650f19db35eb3dd468d"
            ],
            "gasLimit" : [
                "0x6acfc0"
            ],
            "gasPrice" : "0x0a",
            "nonce" : "0x00",
            "secretKey" : "0x45a915e4d060149eb4365960e6a7a45f334393093061116b197e3240065ff2d8",
            "sender" : "0xa94f5374fce5edbc8e2a8697c15331677e6ebf0b",
            "to" : "0x095e7baea6a6c7c4c2dfeb977efac326af552d87",
            "value" : [
                "0x03e8"
            ]
        }
    }
}