{
    "g2_add_63" : {
        "_info" : {
            "comment" : "A test for g2_add_63",
            "filling-rpc-server" : "evm version 1.14.0-unstable-a208e725-20240416",
            "filling-tool-version" : "retesteth-0.3.2-cancun+commit.353b2b37.Linux.g++",
            "generatedTestHash" : "1f9d60e8d624547164573598f37fc2ba66210ba284e03c283811b59c980261fb",
            "lllcversion" : "Version: 0.5.14-develop.2023.7.11+commit.c58ab2c6.mod.Linux.g++",
            "solidity" : "Version: 0.8.21+commit.d9974bed.Linux.g++",
            "source" : "src/EIPTestsFiller/StateTests/stEIP2537/g2_add_63Filler.json",
            "sourceHash" : "96ae10e53af6d7295a2365d5fd8b67f1e711e931aaf466fae5c4687b50375b29"
        },
        "env" : {
            "currentBaseFee" : "0x0a",
            "currentCoinbase" : "0x2adc25665018aa1fe0e6bc666dac8fc2697ff9ba",
            "currentDifficulty" : "0x020000",
            "currentExcessBlobGas" : "0x00",
            "currentGasLimit" : "0xff112233445566",
            "currentNumber" : "0x01",
            "currentRandom" : "0x0000000000000000000000000000000000000000000000000000000000020000",
            "currentTimestamp" : "0x03e8"
        },
        "post" : {
            "Prague" : [
                {
                    "hash" : "0xbe9696ac10edff3fbf68afda1bc3770442d98a70aa174455f191dd01f7193afd",
                    "indexes" : {
                        "data" : 0,
                        "gas" : 0,
                        "value" : 0
                    },
                    "logs" : "0x1dcc4de8dec75d7aab85b567b6ccd41ad312451b948a7413f0a142fd40d49347",
                    "txbytes" : "0xf902c8800a836acfc094095e7baea6a6c7c4c2dfeb977efac326af552d878203e8b9026412bd4299000000000000000000000000000000000000000000000000000000000000000e00000000000000000000000000000000000000000000000000000000000000400000000000000000000000000000000000000000000000000000000000000200000000000000000000000000000000001472caba61c2f1fe4b1d0912b114c25de103ef4351668f22f3a158d7a347539a7b6656044bd490f036ca3e29dbdded370000000000000000000000000000000015f8cdf7786410b409f218164063c99e77d8f72f03882a6c9430ec725ae574547d3ea3cf30c3ad2c9c3febe6c30b1272000000000000000000000000000000000ccbbed85c2809433fbcf22d6490457dab800b21cb4de414c7dd1804a0bdeb7142f8ffbb2de921c2c9eabee6a6351026000000000000000000000000000000000a404f42c48e3ca408d3f92079b99805004da928f128206d8904ecd7fcb14121c7d9a9e7fb69accaff921315ef3d5372000000000000000000000000000000001310a8cebed1491bb6399abe3a08fb25ad6ca00feb5db62069bc5bd45a57c167aaf06a628a3f18aa990bb389173855b100000000000000000000000000000000134655489380a9ae9cfbc3f4c6a1aa5b6dbe0a994e681915602c1d197c54bf3da6fb2df54eec3634ea87bf3fa92a69740000000000000000000000000000000000e7e532ee4b892af39f8a3db7a05cc77a6eb0b3d977c17076bac4a52d5ba003a0ac1f902a4257791a45370eb88426a70000000000000000000000000000000016a556050e4905fa74b5061e3874f05cc7a6c5b049bd3bb7c34adef5a77c393239a600542a4401c3e61978ee6515a30e1ca07aae6a692437799879ca3fd5c8d3b794e489505a07fd1e81bf873ca10ed6e72aa01e07861cca1d9facb0b26a5d0176739db44b61a4f070367a5ee077f1da8654ef"
                }
            ]
        },
        "pre" : {
            "0x095e7baea6a6c7c4c2dfeb977efac326af552d87" : {
                "balance" : "0x00",
                "code" : "0x60806040526004361061001e5760003560e01c806312bd429914610023575b600080fd5b6100fc6004803603604081101561003957600080fd5b81019080803573ffffffffffffffffffffffffffffffffffffffff1690602001909291908035906020019064010000000081111561007657600080fd5b82018360208201111561008857600080fd5b803590602001918460018302840111640100000000831117156100aa57600080fd5b91908080601f016020809104026020016040519081016040528093929190818152602001838380828437600081840152601f19601f820116905080830192505050505050509192919290505050610182565b604051808315151515815260200180602001828103825283818151815260200191508051906020019080838360005b8381101561014657808201518184015260208101905061012b565b50505050905090810190601f1680156101735780820380516001836020036101000a031916815260200191505b50935050505060405180910390f35b600060608373ffffffffffffffffffffffffffffffffffffffff16836040518082805190602001908083835b602083106101d157805182526020820191506020810190506020830392506101ae565b6001836020036101000a038019825116818451168082178552505050505050905001915050600060405180830381855afa9150503d8060008114610231576040519150601f19603f3d011682016040523d82523d6000602084013e610236565b606091505b508092508193505050600060405180807f6572726f72000000000000000000000000000000000000000000000000000000815250600501905060405180910390209050821561028a57818051906020012090505b8060025582829250925050925092905056fea2646970667358221220db58d80e8530eed625d9b4250a6055c2eb1d7c117a7ca267e6f8a059bdd2f39e64736f6c634300060a0033",
                "nonce" : "0x01",
                "storage" : {
                }
            },
            "0xa94f5374fce5edbc8e2a8697c15331677e6ebf0b" : {
                "balance" : "0x0de0b6b3a7640000",
                "code" : "0x",
                "nonce" : "0x00",
                "storage" : {
                }
            }
        },
        "transaction" : {
            "data" : [
                "0x12bd4299000000000000000000000000000000000000000000000000000000000000000e00000000000000000000000000000000000000000000000000000000000000400000000000000000000000000000000000000000000000000000000000000200000000000000000000000000000000001472caba61c2f1fe4b1d0912b114c25de103ef4351668f22f3a158d7a347539a7b6656044bd490f036ca3e29dbdded370000000000000000000000000000000015f8cdf7786410b409f218164063c99e77d8f72f03882a6c9430ec725ae574547d3ea3cf30c3ad2c9c3febe6c30b1272000000000000000000000000000000000ccbbed85c2809433fbcf22d6490457dab800b21cb4de414c7dd1804a0bdeb7142f8ffbb2de921c2c9eabee6a6351026000000000000000000000000000000000a404f42c48e3ca408d3f92079b99805004da928f128206d8904ecd7fcb14121c7d9a9e7fb69accaff921315ef3d5372000000000000000000000000000000001310a8cebed1491bb6399abe3a08fb25ad6ca00feb5db62069bc5bd45a57c167aaf06a628a3f18aa990bb389173855b100000000000000000000000000000000134655489380a9ae9cfbc3f4c6a1aa5b6dbe0a994e681915602c1d197c54bf3da6fb2df54eec3634ea87bf3fa92a69740000000000000000000000000000000000e7e532ee4b892af39f8a3db7a05cc77a6eb0b3d977c17076bac4a52d5ba003a0ac1f902a4257791a45370eb88426a70000000000000000000000000000000016a556050e4905fa74b5061e3874f05cc7a6c5b049bd3bb7c34adef5a77c393239a600542a4401c3e61978ee6515a30e"
            ],
            "gasLimit" : [
                "0x6acfc0"
            ],
            "gasPrice" : "0x0a",
            "nonce" : "0x00",
            "secretKey" : "0x45a915e4d060149eb4365960e6a7a45f334393093061116b197e3240065ff2d8",
            "sender" : "0xa94f5374fce5edbc8e2a8697c15331677e6ebf0b",
            "to" : "0x095e7baea6a6c7c4c2dfeb977efac326af552d87",
            "value" : [
                "0x03e8"
            ]
        }
    }
}