{
    "g2_add_96" : {
        "_info" : {
            "comment" : "A test for g2_add_96",
            "filling-rpc-server" : "evm version 1.14.0-unstable-a208e725-20240416",
            "filling-tool-version" : "retesteth-0.3.2-cancun+commit.353b2b37.Linux.g++",
            "generatedTestHash" : "a729a5bda53df0a9da9e0306939326024d1131a46072cb3c1b0055369751e28c",
            "lllcversion" : "Version: 0.5.14-develop.2023.7.11+commit.c58ab2c6.mod.Linux.g++",
            "solidity" : "Version: 0.8.21+commit.d9974bed.Linux.g++",
            "source" : "src/EIPTestsFiller/StateTests/stEIP2537/g2_add_96Filler.json",
            "sourceHash" : "e46649e5ac0feee4af54e1a3be802e7df5d3b2ee59f472bc5bac42ebe1226667"
        },
        "env" : {
            "currentBaseFee" : "0x0a",
            "currentCoinbase" : "0x2adc25665018aa1fe0e6bc666dac8fc2697ff9ba",
            "currentDifficulty" : "0x020000",
            "currentExcessBlobGas" : "0x00",
            "currentGasLimit" : "0xff112233445566",
            "currentNumber" : "0x01",
            "currentRandom" : "0x0000000000000000000000000000000000000000000000000000000000020000",
            "currentTimestamp" : "0x03e8"
        },
        "post" : {
            "Prague" : [
                {
                    "hash" : "0x02f97a7a8dc3cc89823c4539954ea11f2e879f707e09b192b463795ab8b196bb",
                    "indexes" : {
                        "data" : 0,
                        "gas" : 0,
                        "value" : 0
                    },
                    "logs" : "0x1dcc4de8dec75d7aab85b567b6ccd41ad312451b948a7413f0a142fd40d49347",
                    "txbytes" : "0xf902c8800a836acfc094095e7baea6a6c7c4c2dfeb977efac326af552d878203e8b9026412bd4299000000000000000000000000000000000000000000000000000000000000000e000000000000000000000000000000000000000000000000000000000000004000000000000000000000000000000000000000000000000000000000000002000000000000000000000000000000000010d48bf523f3909cf90aa58a9517ef5421f1212accd5e8a0f830aeb15a587e215ca9c340bb846b1d0474e43840b2af79000000000000000000000000000000000cc1a3976caf97b9d59f448f6d9f413eef8904f360c0cf912fe942b38d7fcc637a17038973a133608ae769d3e389b18a00000000000000000000000000000000069a6122c6f0ec68834b7617c755a7eb33a80a25acf95859da5ff03316447182f122d20d993b04e79b6fe859b7adf5a8000000000000000000000000000000000058c6f8c297524319bae6722e0a957d1ba0f75ee3a8aaf06148641c67925d15780e419a38ed7e07410e82769da74f2d00000000000000000000000000000000030dfbb89bbe5c14a7a55e68edc4fc38eaee9fb539a6b2f941264c7dc295da5712b0af0f2bbcdb74f785dc9ba038b0aa00000000000000000000000000000000132b4e02fda605a69251a4a6289c47536f9735dd90908ed1fb619b3ab808b3a1f1ca3fcc8f4b35c9864ae311c15747f80000000000000000000000000000000005858ece0bb09e55e012450551025ad2a6d93a15d29619433742851a62d987e7f8bfa6c6faed76493a27060ef5f51805000000000000000000000000000000000dd6b393e6d1b8d546e3f5ce69bc1737399e6ababc628f25734030e10d82b5e9370edfb5da15566d80e23d2fbf8aad5f1ca02694441c85682c93a32b9bfc569bddeef83cefea4e833dd5cd466106422ac583a036305bb04e4b04f2401eb91d4777f4c26bc9d1ef121930c97afb8e4cc5eb3fd7"
                }
            ]
        },
        "pre" : {
            "0x095e7baea6a6c7c4c2dfeb977efac326af552d87" : {
                "balance" : "0x00",
                "code" : "0x60806040526004361061001e5760003560e01c806312bd429914610023575b600080fd5b6100fc6004803603604081101561003957600080fd5b81019080803573ffffffffffffffffffffffffffffffffffffffff1690602001909291908035906020019064010000000081111561007657600080fd5b82018360208201111561008857600080fd5b803590602001918460018302840111640100000000831117156100aa57600080fd5b91908080601f016020809104026020016040519081016040528093929190818152602001838380828437600081840152601f19601f820116905080830192505050505050509192919290505050610182565b604051808315151515815260200180602001828103825283818151815260200191508051906020019080838360005b8381101561014657808201518184015260208101905061012b565b50505050905090810190601f1680156101735780820380516001836020036101000a031916815260200191505b50935050505060405180910390f35b600060608373ffffffffffffffffffffffffffffffffffffffff16836040518082805190602001908083835b602083106101d157805182526020820191506020810190506020830392506101ae565b6001836020036101000a038019825116818451168082178552505050505050905001915050600060405180830381855afa9150503d8060008114610231576040519150601f19603f3d011682016040523d82523d6000602084013e610236565b606091505b508092508193505050600060405180807f6572726f72000000000000000000000000000000000000000000000000000000815250600501905060405180910390209050821561028a57818051906020012090505b8060025582829250925050925092905056fea2646970667358221220db58d80e8530eed625d9b4250a6055c2eb1d7c117a7ca267e6f8a059bdd2f39e64736f6c634300060a0033",
                "nonce" : "0x01",
                "storage" : {
                }
            },
            "0xa94f5374fce5edbc8e2a8697c15331677e6ebf0b" : {
                "balance" : "0x0de0b6b3a7640000",
                "code" : "0x",
                "nonce" : "0x00",
                "storage" : {
                }
            }
        },
        "transaction" : {
            "data" : [
                "0x12bd4299000000000000000000000000000000000000000000000000000000000000000e000000000000000000000000000000000000000000000000000000000000004000000000000000000000000000000000000000000000000000000000000002000000000000000000000000000000000010d48bf523f3909cf90aa58a9517ef5421f1212accd5e8a0f830aeb15a587e215ca9c340bb846b1d0474e43840b2af79000000000000000000000000000000000cc1a3976caf97b9d59f448f6d9f413eef8904f360c0cf912fe942b38d7fcc637a17038973a133608ae769d3e389b18a00000000000000000000000000000000069a6122c6f0ec68834b7617c755a7eb33a80a25acf95859da5ff03316447182f122d20d993b04e79b6fe859b7adf5a8000000000000000000000000000000000058c6f8c297524319bae6722e0a957d1ba0f75ee3a8aaf06148641c67925d15780e419a38ed7e07410e82769da74f2d00000000000000000000000000000000030dfbb89bbe5c14a7a55e68edc4fc38eaee9fb539a6b2f941264c7dc295da5712b0af0f2bbcdb74f785dc9ba038b0aa00000000000000000000000000000000132b4e02fda605a69251a4a6289c47536f9735dd90908ed1fb619b3ab808b3a1f1ca3fcc8f4b35c9864ae311c15747f80000000000000000000000000000000005858ece0bb09e55e012450551025ad2a6d93a15d29619433742851a62d987e7f8bfa6c6faed76493a27060ef5f51805000000000000000000000000000000000dd6b393e6d1b8d546e3f5ce69bc1737399e6ababc628f25734030e10d82b5e9370edfb5da15566d80e23d2fbf8aad5f"
            ],
            "gasLimit" : [
                "0x6acfc0"
            ],
            "gasPrice" : "0x0a",
            "nonce" : "0x00",
            "secretKey" : "0x45a915e4d060149eb4365960e6a7a45f334393093061116b197e3240065ff2d8",
            "sender" : "0xa94f5374fce5edbc8e2a8697c15331677e6ebf0b",
            "to" : "0x095e7baea6a6c7c4c2dfeb977efac326af552d87",
            "value" : [
                "0x03e8"
            ]
        }
    }
}