{
    "g2_add_11" : {
        "_info" : {
            "comment" : "A test for g2_add_11",
            "filling-rpc-server" : "evm version 1.14.0-unstable-a208e725-20240416",
            "filling-tool-version" : "retesteth-0.3.2-cancun+commit.353b2b37.Linux.g++",
            "generatedTestHash" : "1fccd23830e86679debba8e786f096cddaf737a70a15ec71368f48e3ecb22105",
            "lllcversion" : "Version: 0.5.14-develop.2023.7.11+commit.c58ab2c6.mod.Linux.g++",
            "solidity" : "Version: 0.8.21+commit.d9974bed.Linux.g++",
            "source" : "src/EIPTestsFiller/StateTests/stEIP2537/g2_add_11Filler.json",
            "sourceHash" : "a375f6918ab05020be54f9184a22d147a2b7ab85879418bb8f37eed44371db64"
        },
        "env" : {
            "currentBaseFee" : "0x0a",
            "currentCoinbase" : "0x2adc25665018aa1fe0e6bc666dac8fc2697ff9ba",
            "currentDifficulty" : "0x020000",
            "currentExcessBlobGas" : "0x00",
            "currentGasLimit" : "0xff112233445566",
            "currentNumber" : "0x01",
            "currentRandom" : "0x0000000000000000000000000000000000000000000000000000000000020000",
            "currentTimestamp" : "0x03e8"
        },
        "post" : {
            "Prague" : [
                {
                    "hash" : "0xd2992b0c5b9dff45d02b4858f3ea3de5346e47cd7e0e8ff26e4eb5d14ffaf6ed",
                    "indexes" : {
                        "data" : 0,
                        "gas" : 0,
                        "value" : 0
                    },
                    "logs" : "0x1dcc4de8dec75d7aab85b567b6ccd41ad312451b948a7413f0a142fd40d49347",
                    "txbytes" : "0xf902c8800a836acfc094095e7baea6a6c7c4c2dfeb977efac326af552d878203e8b9026412bd4299000000000000000000000000000000000000000000000000000000000000000e00000000000000000000000000000000000000000000000000000000000000400000000000000000000000000000000000000000000000000000000000000200000000000000000000000000000000000f29b0d2b6e3466668e1328048e8dbc782c1111ab8cbe718c85d58ded992d97ca8ba20b9d048feb6ed0aa1b4139d02d3000000000000000000000000000000000d1f0dae940b99fbfc6e4a58480cac8c4e6b2fe33ce6f39c7ac1671046ce94d9e16cba2bb62c6749ef73d45bea21501a000000000000000000000000000000001902ccece1c0c763fd06934a76d1f2f056563ae6d8592bafd589cfebd6f057726fd908614ccd6518a21c66ecc2f78b660000000000000000000000000000000017f6b113f8872c3187d20b0c765d73b850b54244a719cf461fb318796c0b8f310b5490959f9d9187f99c8ed3e25e42a90000000000000000000000000000000002b94534aa0ba923bda34cbe92b3cd7a3e263741b120240ff5bdb8b718f094d3867e3fcabeab4a7be39c8f8c4fdd10d900000000000000000000000000000000048711cf6a82534d64d072355cb8fe647808e7e8b2d9ac9ed52eb7fe121647a721dd1234c71ecd163d91701eb7331cac00000000000000000000000000000000141ef2e23a1ecc7ef2ed3ea915492e79cfffe60b5e0de8441e878bd0653843d79c724e3c5ebe2321361df99f8932ddc200000000000000000000000000000000085513b4009f29b3e00a91c2c4be418368560802ba4194cbd2f4fa3d72a55fcae547014434514a8b2a8fe3e0b28d27731ca0807825a10ef1e228333a349b0ab49bfb79cfdf16e64f687a6aaea997410861c8a02c7f13a529d0809b3d95a4a921babdef666cd4edd67f57dbd29aa773965ed4c8"
                }
            ]
        },
        "pre" : {
            "0x095e7baea6a6c7c4c2dfeb977efac326af552d87" : {
                "balance" : "0x00",
                "code" : "0x60806040526004361061001e5760003560e01c806312bd429914610023575b600080fd5b6100fc6004803603604081101561003957600080fd5b81019080803573ffffffffffffffffffffffffffffffffffffffff1690602001909291908035906020019064010000000081111561007657600080fd5b82018360208201111561008857600080fd5b803590602001918460018302840111640100000000831117156100aa57600080fd5b91908080601f016020809104026020016040519081016040528093929190818152602001838380828437600081840152601f19601f820116905080830192505050505050509192919290505050610182565b604051808315151515815260200180602001828103825283818151815260200191508051906020019080838360005b8381101561014657808201518184015260208101905061012b565b50505050905090810190601f1680156101735780820380516001836020036101000a031916815260200191505b50935050505060405180910390f35b600060608373ffffffffffffffffffffffffffffffffffffffff16836040518082805190602001908083835b602083106101d157805182526020820191506020810190506020830392506101ae565b6001836020036101000a038019825116818451168082178552505050505050905001915050600060405180830381855afa9150503d8060008114610231576040519150601f19603f3d011682016040523d82523d6000602084013e610236565b606091505b508092508193505050600060405180807f6572726f72000000000000000000000000000000000000000000000000000000815250600501905060405180910390209050821561028a57818051906020012090505b8060025582829250925050925092905056fea2646970667358221220db58d80e8530eed625d9b4250a6055c2eb1d7c117a7ca267e6f8a059bdd2f39e64736f6c634300060a0033",
                "nonce" : "0x01",
                "storage" : {
                }
            },
            "0xa94f5374fce5edbc8e2a8697c15331677e6ebf0b" : {
                "balance" : "0x0de0b6b3a7640000",
                "code" : "0x",
                "nonce" : "0x00",
                "storage" : {
                }
            }
        },
        "transaction" : {
            "data" : [
                "0x12bd4299000000000000000000000000000000000000000000000000000000000000000e00000000000000000000000000000000000000000000000000000000000000400000000000000000000000000000000000000000000000000000000000000200000000000000000000000000000000000f29b0d2b6e3466668e1328048e8dbc782c1111ab8cbe718c85d58ded992d97ca8ba20b9d048feb6ed0aa1b4139d02d3000000000000000000000000000000000d1f0dae940b99fbfc6e4a58480cac8c4e6b2fe33ce6f39c7ac1671046ce94d9e16cba2bb62c6749ef73d45bea21501a000000000000000000000000000000001902ccece1c0c763fd06934a76d1f2f056563ae6d8592bafd589cfebd6f057726fd908614ccd6518a21c66ecc2f78b660000000000000000000000000000000017f6b113f8872c3187d20b0c765d73b850b54244a719cf461fb318796c0b8f310b5490959f9d9187f99c8ed3e25e42a90000000000000000000000000000000002b94534aa0ba923bda34cbe92b3cd7a3e263741b120240ff5bdb8b718f094d3867e3fcabeab4a7be39c8f8c4fdd10d900000000000000000000000000000000048711cf6a82534d64d072355cb8fe647808e7e8b2d9ac9ed52eb7fe121647a721dd1234c71ecd163d91701eb7331cac00000000000000000000000000000000141ef2e23a1ecc7ef2ed3ea915492e79cfffe60b5e0de8441e878bd0653843d79c724e3c5ebe2321361df99f8932ddc200000000000000000000000000000000085513b4009f29b3e00a91c2c4be418368560802ba4194cbd2f4fa3d72a55fcae547014434514a8b2a8fe3e0b28d2773"
            ],
            "gasLimit" : [
                "0x6acfc0"
            ],
            "gasPrice" : "0x0a",
            "nonce" : "0x00",
            "secretKey" : "0x45a915e4d060149eb4365960e6a7a45f334393093061116b197e3240065ff2d8",
            "sender" : "0xa94f5374fce5edbc8e2a8697c15331677e6ebf0b",
            "to" : "0x095e7baea6a6c7c4c2dfeb977efac326af552d87",
            "value" : [
                "0x03e8"
            ]
        }
    }
}