{
    "g2_multiexp_33" : {
        "_info" : {
            "comment" : "A test for g2_multiexp_33",
            "filling-rpc-server" : "evm version 1.14.0-unstable-a208e725-20240416",
            "filling-tool-version" : "retesteth-0.3.2-cancun+commit.353b2b37.Linux.g++",
            "generatedTestHash" : "ff2f6d0abc8299f4d4753b4b1a70bed90454d94c3598e96175ea62c2ddfa50c4",
            "lllcversion" : "Version: 0.5.14-develop.2023.7.11+commit.c58ab2c6.mod.Linux.g++",
            "solidity" : "Version: 0.8.21+commit.d9974bed.Linux.g++",
            "source" : "src/EIPTestsFiller/StateTests/stEIP2537/g2_multiexp_33Filler.json",
            "sourceHash" : "23c8b5a54b9315671f4946d30a9fd35fffe6d09964e2ffa6bc15abecae5cdb69"
        },
        "env" : {
            "currentBaseFee" : "0x0a",
            "currentCoinbase" : "0x2adc25665018aa1fe0e6bc666dac8fc2697ff9ba",
            "currentDifficulty" : "0x020000",
            "currentExcessBlobGas" : "0x00",
            "currentGasLimit" : "0xff112233445566",
            "currentNumber" : "0x01",
            "currentRandom" : "0x0000000000000000000000000000000000000000000000000000000000020000",
            "currentTimestamp" : "0x03e8"
        },
        "post" : {
            "Prague" : [
                {
                    "hash" : "0xdfcd13643b6345c3b64bcc15d50800942de1304359aabab146b2b9c2a0f5daec",
                    "indexes" : {
                        "data" : 0,
                        "gas" : 0,
                        "value" : 0
                    },
                    "logs" : "0x1dcc4de8dec75d7aab85b567b6ccd41ad312451b948a7413f0a142fd40d49347",
                    "txbytes" : "0xf912c8800a836acfc094095e7baea6a6c7c4c2dfeb977efac326af552d878203e8b9126412bd429900000000000000000000000000000000000000000000000000000000000000100000000000000000000000000000000000000000000000000000000000000040000000000000000000000000000000000000000000000000000000000000120000000000000000000000000000000000052acff88605f33a0cf1201e8101c95ca0befd443c087265821a7d954917a026d41ab24d29bdfd972bb52ff4ad6de14c000000000000000000000000000000000e134b2aac3f6270e43afd994302426796b1e362031638fe0263c0ec212b828a30d8321af34ef7bf260652150cf2293b000000000000000000000000000000000d6628f675008099e9a75e1294803e86417ab22670d36316798680289ae61a26821693f2f9efc8468721a1097c3bceb20000000000000000000000000000000006d66ffad1a2e0f39488fd3f6e0214c9407528c8bfb8d1ebe6d75596a3e3cc844d00fdf46ce7ff6cd6d67732874a24a484adc8cfd2e42abc2f0e0d7e9c4b378f73731905760bfeeef01c94f8d5c3cacd000000000000000000000000000000001160bf0f7f2915cfc64e12a5a91b7e2aac78d4c2ce362e7677dd0e9c0172b37fd1b52222a13c65819b87593ee32a9ba6000000000000000000000000000000000c8be2cbbd302b31b1ab6dcbeb57b4ad428447bca9159fdfd007f5375218d121673a010f2c7fdf83fb45883458fb068e000000000000000000000000000000000363d3d492e6e6901756bac13b5c32d55aabbedde878115aa41b57d27b49a0f017a61fc90b13a20e009989374b82f5dd0000000000000000000000000000000009302fc26e6d750ff9441d7471903cc296b320128de71f86c4eacc80ce0725e8eea6acd2af056abde2f61e0a349f9bb5bbd5d4a15998d733326ce23cced86ec5d5b410c29ee98a4de19f2662c3933dd1000000000000000000000000000000000b12aca17efc103cad500b3d773e43cb24df6be651963c0f30bca489f1dd7911ffc7204fcaa4511e161c6f75da4a5ff600000000000000000000000000000000179a36e9292d3f78a5fecbec1175f001bd4ac0ff3610f596aacdba29a12ea4844885a7c465e66d3883c7fc99d4a7e06a0000000000000000000000000000000016bfd0758b31f54f90eb8562bb693c45a92a297a3d302279c9e3cb8263efc0f31579a3af8e8f5a091d9a6a36776f445d00000000000000000000000000000000020f6c66fa554a5cb610ab05d194e7583e6798a113b8fff336c986f7358bb9fa6a7aab0b04be9b5c44a6fcfdd21999e83717aadf16301a9c8741d65c86ad7f849101e30b7b1a344643b100a8582a6ad10000000000000000000000000000000004bf40c1d2d3574ad7fe128ee376364591b6f647f939b0b556ac3fdb5a92873f17c007e926b8a39a97c814728f355bfa000000000000000000000000000000000b8669e10e0a538a421b717287455620b82574b96ed09f64db444ec73a67a3227503e1b4fd6869314214071399eeae0b0000000000000000000000000000000006ddea4adb703d7205b6d2af436b41b4bde3a8c5dbed9dd161c9b3b466ebf06beced64fca25c3bbb97f232315daa5565000000000000000000000000000000000d97248a25ddf0ebd0200c6abbcac9ecd9775cfc5ec8da91634e77488bb592e5ff277a9607fe721990f403dd73f746e622788b3597da7b9b106203dd0ea97527aa8f5149754bbb0c10bb6eca8a46d94000000000000000000000000000000000135bc4f28663a6d7d995f6b876ffb8e6ef1d2d0f232388aa5f390c57e8c48cb84d370ebc4bc267eae4466a019c9ed56e0000000000000000000000000000000008b6a9d13dd9d7014df6acb59f80b335a751fa2ba4dce63467aed18f68358f5cb743718112b3cb2d0b5add34bb6989000000000000000000000000000000000013a5389dba4da195f34fbe798b254403f0bc5632ed98bd6017ef24fff33640ae493c1bb7a77a0d3c97649230e455eb51000000000000000000000000000000000a69803a4cc237ddfebc51df2d90fa1ad03359f9635ac1646bc942546575d1558f5f2c3010f6e2207849ee697be41d093c21276fc1371060c226424eb9886de6897b15b075fc5a51aab4710e9dddd384000000000000000000000000000000001939c2431f8ac4ab19d2735f122c0424af2ef18c0028e155611237e86648bf1d74fcba3008f5c6aa30feb5d4a14a3f3f00000000000000000000000000000000174473eedb54aafc522973244ec2feb3f7e95e50a1e996d1100c8da4fa59428c280f76e9e7364906662c4d2802235aa5000000000000000000000000000000001021d15f8ae2f62dfd3862944bf3be88d86d8113f4be22544ae5e925d450044279c5bfa1bfca44cd5934b42a27096b510000000000000000000000000000000015e0f20efae92e1fe8dea2222ce808a7de9e9e861c333db139f8ac11d7c4fa9ae6e49f51095f6e16bc738dc6d094b4cfccbce4e92cf377f67244995badc72db0b80fe37c9b7d443595156fa41abea17a0000000000000000000000000000000012d70691721f5787ea2e2a652f9c65edaf763637f95c285a62d32dded18579b7257493e01eda19631d00ecdd4e27a9ff0000000000000000000000000000000014da9ef6076e646e7d5b52d1803d3a6d897664851c6de2a9b330e48695737e05f0369224c3eb357bf557625bb94e6ea2000000000000000000000000000000001554f68124a91be5b9f325394db23ed5db8f6c46eb46cb50e57947bae00819b151afbf4ab4949290ad41625499f42dc00000000000000000000000000000000009fc0d459e28cd1239d227e1d2f7d530b9d14ce5638cd308569300a791c997a51dd5a98aad703239a23cfe7cef7f47f6ff79345f31c107841ae388f6cf116d10bc696aec4933de56bb9affe7e20c649f000000000000000000000000000000000452580d6a37a07038ce3564a12c1c7391fdb002cf27a6df7e194b38f3c12a3026f2a8acfe5e634cf89140da256d0a420000000000000000000000000000000004b73c9a4f9d41b8b84e53de538e4b15198f50247e75c274c14f136d7d91dce4a62c5346bf11a105f035e29ccac3dbb70000000000000000000000000000000008a8a3b2705a82b551f8913853f682253e7f1f68c8e42f349337f4f1eaa5103f59430af0c4a124b6a739bf88298c5f6f0000000000000000000000000000000012f4220609899e8610809bb3a4da46e0688c285ba2e8750b4bf44a849cf15fbf5c016e8e8f9372239bb562e7f38916e921cf773387d5351aeab99971eaa3b207fa6a318ad60f1c3e16b7f68251f9c910000000000000000000000000000000001884558e709635c046bd6ea8872bda936ba4d5ebcf7a0208cd0a4ee08b69f36dd2e136ce655ddfd89a5b1cf8e48f5ef7000000000000000000000000000000001357e2dd9fb603e5190d7b7ee105668bca2ed23ec6a248aa71aa430c2b2755747b8dfa3b147eb51ea644bf0354a61ba000000000000000000000000000000000009b0b0a76c6980e62e4893157b85f59345e1ac81e1aad1e48acec44c4803e2a9080f0d193fb799e0277ae6f1058839e0000000000000000000000000000000014c984ae4ef5d9d319fc89895f34a7db02747f57b206b0b30e8c9757d4b47419e6c0c8378fdec5aba364936a3b1922ca2d69cfed6bb2d33fedcbd215dd4e9632a3cf86a4b2716406305f6a85e6090a050000000000000000000000000000000003e1bbb872db172a1fa615155f81aa75ee9760f8602e4135ef9f1640b7f9d54bda911a220d211dc4bb767bc2b5e6e23e0000000000000000000000000000000008464f23cf693b1d4545b6ce4aecdc8fd182cfb288c5ddb1f78ca578e9b16342c8178d886cbb6b8086c0fd1318c4ae09000000000000000000000000000000000af574c4d0fd86087e23daf6d9ce98765e1e445ef9152dbd68152fa4833ada0be440de4abfe7c07dbd4ee67f1a4aec9a000000000000000000000000000000000a8227b982f9286b03c4d49766687622206213d88cde007360df9b4ca5916c44ce44dbe6443577998b4b0d527d22593379cabae288f8a9a8cd54523c20825b8fb07886bbf0ba0c5c807956f268af4fa10000000000000000000000000000000012e31070a501a7df7be43dc23e23dafa32ebfbc10ffb4c53f5d36bab2af69db5a05ad64b9ed116560e40b71f9217189b0000000000000000000000000000000011cbcd38ec3c6a6d49df6a8d6e1029a0412b42bd3fe8b42ed625adeb5a2f631e97bfad302de82ae34f715962b5ba0289000000000000000000000000000000001019b1b619fde9fb885d3c5f03a4373358107af7509754ce1ab2deb67df536d05e07ca7d60d927c15b549502750054f90000000000000000000000000000000018f1768b7140484105cf3ad2daa7c565e18eaba834db3f6bdfc9ee37445f2d6f7dc2b4c986b7efd5373224d2c92aa5a81973977d8e8c592f9063c5a14a658990f9c3405643089eb58324cd3f05b5b5e4000000000000000000000000000000001847b14146cfa2e1700f368f414b6a66ccaa02ca2a90b40a8e2be2ee4eb66af77ba563d7507de63362fb18426b6149610000000000000000000000000000000005c028d2b344ccb6400b53134bd179028b8774000ace89369bc655bb9dcd1643aaeec830407ee941df5432ba27987e8f000000000000000000000000000000000c4a680e2157dbdb53ae761209d505b4cf6b18fef5aff1c5009ab41295e0ce2ca23bd7a4f983fb9d085e1d0dbc75ffe40000000000000000000000000000000013c0cc77a5d771f1df99d1530e65ba782604c1ecf67d08572609de9f18405b9b817c2643226cdc7c9ad35beebf87dab0a610bfd375a7b8d0b034c17c8fa27d4366b06c681131fa7daaeeeb08e25c2ca60000000000000000000000000000000009f32f2f83c21875963818872d243cc8c70b75234f53490eccffbf060cb3b9c53545c1c32025b271514f500b20b00ec10000000000000000000000000000000002491b571087a9e89dbdd039ccd2c37d5d8d25587495b2d7b0066e9dcca02d44b2c134b0128a9a1527396729f069df83000000000000000000000000000000000264e9c47f72b639597de8f26a42ca7d77324f8c0db705986fc3b40dfb46f47764b69c70037a68d76a5de49a278779a100000000000000000000000000000000090614b3bb302ed9fb78b8756524fb78d54a4390b27136087181342571f994b1a93faee28256d765a8ff4f448cc357c199ffe1dc2d7526338462860501d75380a5ed9d53e675125342afb6652a97437b0000000000000000000000000000000012c716ddf17fca0d974e8d6003d99aa90f06b201fd141c74d8fdf1167030d14dc732917d3c6f736c68fbde9df50c098a0000000000000000000000000000000000261ef2b47de8e1576aecc6e19ececf80ddc1f4e28b2ff27953a65199f65a6211db7326632cfe04d543895c727ef8b600000000000000000000000000000000044fd6b9b4a1bacb8b7d4c53c106b025ae78f17c3baebbccca4e18cfbdbcbf8b3ef88ed5bd9bb36d9aea9e24f4117e760000000000000000000000000000000007721612515fd075811ee804314acec9d389900c7ef883e866f71fba00c49d5c4dcc7a2b8e2366f5a93f4577926ed171fdd97465982b58e69993711a6a64134bc4e76b88ba1948af91ba3339e9b9d3e900000000000000000000000000000000122581659ab1712afc23c23c2986394de8e155bcf722e944ec05e7e42e05acc366d9a7abf2136b5dc68a8dcfd4a640bf000000000000000000000000000000000188842cf4ef54cf77c145acb685d3187cd9c842ba6705bfed846ace83dc4400c45120fc1d6a633ea879840d3d0c902f0000000000000000000000000000000005c8966862ed4458a753155ffe2c64655779860149641ee5511a46ec576798fdb5cd9521528df77bfebcdaae2f94b865000000000000000000000000000000000cc10d888d2b7a97666de99ac14a501b7e2171f074d30d947efd67d85226c312a7977cf923ddbc88c533f08a99f2045f786a2a3974c84752b32f29707805c71992d5d473f4b7bc1f0757d126607a1c07000000000000000000000000000000000e5af1420546c1a5a0e0c2bd9241bb7c7a26dd52f4f358fc868bea457a60bd4f6bc5b60b27069fb4f6760813a91ada740000000000000000000000000000000017426a65d239b1d9505bef2b476799c394fcc7bfdca36a1ee5a600351334dadc238b64cf8a667a25d4880a31b73c53a9000000000000000000000000000000000f151587944aad17429b51b1c16193c1e1c93cb412538d1475473666c997e012ce618eb841c4e9e064a08ab83d7fa60e0000000000000000000000000000000015c2e049c532db585807319c23ec077a51f288fcffb2cb6528d3697221e8542e3fc85d18b079ea1b217fae30858a36f285d33a7fbe6ac6eb42eb932dfbbca2f771ffad5e80fde686e5df9d34e9f83ad61ba08efa9a315d6b56c0f4440e8bd79eeac68590d7902e22e8ece0e956dd8dc4c835a03d80380a705da0e83d08089089d46c3b5a2c5a4fc85f6b9188def03b8b8ac579"
                }
            ]
        },
        "pre" : {
            "0x095e7baea6a6c7c4c2dfeb977efac326af552d87" : {
                "balance" : "0x00",
                "code" : "0x60806040526004361061001e5760003560e01c806312bd429914610023575b600080fd5b6100fc6004803603604081101561003957600080fd5b81019080803573ffffffffffffffffffffffffffffffffffffffff1690602001909291908035906020019064010000000081111561007657600080fd5b82018360208201111561008857600080fd5b803590602001918460018302840111640100000000831117156100aa57600080fd5b91908080601f016020809104026020016040519081016040528093929190818152602001838380828437600081840152601f19601f820116905080830192505050505050509192919290505050610182565b604051808315151515815260200180602001828103825283818151815260200191508051906020019080838360005b8381101561014657808201518184015260208101905061012b565b50505050905090810190601f1680156101735780820380516001836020036101000a031916815260200191505b50935050505060405180910390f35b600060608373ffffffffffffffffffffffffffffffffffffffff16836040518082805190602001908083835b602083106101d157805182526020820191506020810190506020830392506101ae565b6001836020036101000a038019825116818451168082178552505050505050905001915050600060405180830381855afa9150503d8060008114610231576040519150601f19603f3d011682016040523d82523d6000602084013e610236565b606091505b508092508193505050600060405180807f6572726f72000000000000000000000000000000000000000000000000000000815250600501905060405180910390209050821561028a57818051906020012090505b8060025582829250925050925092905056fea2646970667358221220db58d80e8530eed625d9b4250a6055c2eb1d7c117a7ca267e6f8a059bdd2f39e64736f6c634300060a0033",
                "nonce" : "0x01",
                "storage" : {
                }
            },
            "0xa94f5374fce5edbc8e2a8697c15331677e6ebf0b" : {
                "balance" : "0x0de0b6b3a7640000",
                "code" : "0x",
                "nonce" : "0x00",
                "storage" : {
                }
            }
        },
        "transaction" : {
            "data" : [
                "0x12bd429900000000000000000000000000000000000000000000000000000000000000100000000000000000000000000000000000000000000000000000000000000040000000000000000000000000000000000000000000000000000000000000120000000000000000000000000000000000052acff88605f33a0cf1201e8101c95ca0befd443c087265821a7d954917a026d41ab24d29bdfd972bb52ff4ad6de14c000000000000000000000000000000000e134b2aac3f6270e43afd994302426796b1e362031638fe0263c0ec212b828a30d8321af34ef7bf260652150cf2293b000000000000000000000000000000000d6628f675008099e9a75e1294803e86417ab22670d36316798680289ae61a26821693f2f9efc8468721a1097c3bceb20000000000000000000000000000000006d66ffad1a2e0f39488fd3f6e0214c9407528c8bfb8d1ebe6d75596a3e3cc844d00fdf46ce7ff6cd6d67732874a24a484adc8cfd2e42abc2f0e0d7e9c4b378f73731905760bfeeef01c94f8d5c3cacd000000000000000000000000000000001160bf0f7f2915cfc64e12a5a91b7e2aac78d4c2ce362e7677dd0e9c0172b37fd1b52222a13c65819b87593ee32a9ba6000000000000000000000000000000000c8be2cbbd302b31b1ab6dcbeb57b4ad428447bca9159fdfd007f5375218d121673a010f2c7fdf83fb45883458fb068e000000000000000000000000000000000363d3d492e6e6901756bac13b5c32d55aabbedde878115aa41b57d27b49a0f017a61fc90b13a20e009989374b82f5dd0000000000000000000000000000000009302fc26e6d750ff9441d7471903cc296b320128de71f86c4eacc80ce0725e8eea6acd2af056abde2f61e0a349f9bb5bbd5d4a15998d733326ce23cced86ec5d5b410c29ee98a4de19f2662c3933dd1000000000000000000000000000000000b12aca17efc103cad500b3d773e43cb24df6be651963c0f30bca489f1dd7911ffc7204fcaa4511e161c6f75da4a5ff600000000000000000000000000000000179a36e9292d3f78a5fecbec1175f001bd4ac0ff3610f596aacdba29a12ea4844885a7c465e66d3883c7fc99d4a7e06a0000000000000000000000000000000016bfd0758b31f54f90eb8562bb693c45a92a297a3d302279c9e3cb8263efc0f31579a3af8e8f5a091d9a6a36776f445d00000000000000000000000000000000020f6c66fa554a5cb610ab05d194e7583e6798a113b8fff336c986f7358bb9fa6a7aab0b04be9b5c44a6fcfdd21999e83717aadf16301a9c8741d65c86ad7f849101e30b7b1a344643b100a8582a6ad10000000000000000000000000000000004bf40c1d2d3574ad7fe128ee376364591b6f647f939b0b556ac3fdb5a92873f17c007e926b8a39a97c814728f355bfa000000000000000000000000000000000b8669e10e0a538a421b717287455620b82574b96ed09f64db444ec73a67a3227503e1b4fd6869314214071399eeae0b0000000000000000000000000000000006ddea4adb703d7205b6d2af436b41b4bde3a8c5dbed9dd161c9b3b466ebf06beced64fca25c3bbb97f232315daa5565000000000000000000000000000000000d97248a25ddf0ebd0200c6abbcac9ecd9775cfc5ec8da91634e77488bb592e5ff277a9607fe721990f403dd73f746e622788b3597da7b9b106203dd0ea97527aa8f5149754bbb0c10bb6eca8a46d94000000000000000000000000000000000135bc4f28663a6d7d995f6b876ffb8e6ef1d2d0f232388aa5f390c57e8c48cb84d370ebc4bc267eae4466a019c9ed56e0000000000000000000000000000000008b6a9d13dd9d7014df6acb59f80b335a751fa2ba4dce63467aed18f68358f5cb743718112b3cb2d0b5add34bb6989000000000000000000000000000000000013a5389dba4da195f34fbe798b254403f0bc5632ed98bd6017ef24fff33640ae493c1bb7a77a0d3c97649230e455eb51000000000000000000000000000000000a69803a4cc237ddfebc51df2d90fa1ad03359f9635ac1646bc942546575d1558f5f2c3010f6e2207849ee697be41d093c21276fc1371060c226424eb9886de6897b15b075fc5a51aab4710e9dddd384000000000000000000000000000000001939c2431f8ac4ab19d2735f122c0424af2ef18c0028e155611237e86648bf1d74fcba3008f5c6aa30feb5d4a14a3f3f00000000000000000000000000000000174473eedb54aafc522973244ec2feb3f7e95e50a1e996d1100c8da4fa59428c280f76e9e7364906662c4d2802235aa5000000000000000000000000000000001021d15f8ae2f62dfd3862944bf3be88d86d8113f4be22544ae5e925d450044279c5bfa1bfca44cd5934b42a27096b510000000000000000000000000000000015e0f20efae92e1fe8dea2222ce808a7de9e9e861c333db139f8ac11d7c4fa9ae6e49f51095f6e16bc738dc6d094b4cfccbce4e92cf377f67244995badc72db0b80fe37c9b7d443595156fa41abea17a0000000000000000000000000000000012d70691721f5787ea2e2a652f9c65edaf763637f95c285a62d32dded18579b7257493e01eda19631d00ecdd4e27a9ff0000000000000000000000000000000014da9ef6076e646e7d5b52d1803d3a6d897664851c6de2a9b330e48695737e05f0369224c3eb357bf557625bb94e6ea2000000000000000000000000000000001554f68124a91be5b9f325394db23ed5db8f6c46eb46cb50e57947bae00819b151afbf4ab4949290ad41625499f42dc00000000000000000000000000000000009fc0d459e28cd1239d227e1d2f7d530b9d14ce5638cd308569300a791c997a51dd5a98aad703239a23cfe7cef7f47f6ff79345f31c107841ae388f6cf116d10bc696aec4933de56bb9affe7e20c649f000000000000000000000000000000000452580d6a37a07038ce3564a12c1c7391fdb002cf27a6df7e194b38f3c12a3026f2a8acfe5e634cf89140da256d0a420000000000000000000000000000000004b73c9a4f9d41b8b84e53de538e4b15198f50247e75c274c14f136d7d91dce4a62c5346bf11a105f035e29ccac3dbb70000000000000000000000000000000008a8a3b2705a82b551f8913853f682253e7f1f68c8e42f349337f4f1eaa5103f59430af0c4a124b6a739bf88298c5f6f0000000000000000000000000000000012f4220609899e8610809bb3a4da46e0688c285ba2e8750b4bf44a849cf15fbf5c016e8e8f9372239bb562e7f38916e921cf773387d5351aeab99971eaa3b207fa6a318ad60f1c3e16b7f68251f9c910000000000000000000000000000000001884558e709635c046bd6ea8872bda936ba4d5ebcf7a0208cd0a4ee08b69f36dd2e136ce655ddfd89a5b1cf8e48f5ef7000000000000000000000000000000001357e2dd9fb603e5190d7b7ee105668bca2ed23ec6a248aa71aa430c2b2755747b8dfa3b147eb51ea644bf0354a61ba000000000000000000000000000000000009b0b0a76c6980e62e4893157b85f59345e1ac81e1aad1e48acec44c4803e2a9080f0d193fb799e0277ae6f1058839e0000000000000000000000000000000014c984ae4ef5d9d319fc89895f34a7db02747f57b206b0b30e8c9757d4b47419e6c0c8378fdec5aba364936a3b1922ca2d69cfed6bb2d33fedcbd215dd4e9632a3cf86a4b2716406305f6a85e6090a050000000000000000000000000000000003e1bbb872db172a1fa615155f81aa75ee9760f8602e4135ef9f1640b7f9d54bda911a220d211dc4bb767bc2b5e6e23e0000000000000000000000000000000008464f23cf693b1d4545b6ce4aecdc8fd182cfb288c5ddb1f78ca578e9b16342c8178d886cbb6b8086c0fd1318c4ae09000000000000000000000000000000000af574c4d0fd86087e23daf6d9ce98765e1e445ef9152dbd68152fa4833ada0be440de4abfe7c07dbd4ee67f1a4aec9a000000000000000000000000000000000a8227b982f9286b03c4d49766687622206213d88cde007360df9b4ca5916c44ce44dbe6443577998b4b0d527d22593379cabae288f8a9a8cd54523c20825b8fb07886bbf0ba0c5c807956f268af4fa10000000000000000000000000000000012e31070a501a7df7be43dc23e23dafa32ebfbc10ffb4c53f5d36bab2af69db5a05ad64b9ed116560e40b71f9217189b0000000000000000000000000000000011cbcd38ec3c6a6d49df6a8d6e1029a0412b42bd3fe8b42ed625adeb5a2f631e97bfad302de82ae34f715962b5ba0289000000000000000000000000000000001019b1b619fde9fb885d3c5f03a4373358107af7509754ce1ab2deb67df536d05e07ca7d60d927c15b549502750054f90000000000000000000000000000000018f1768b7140484105cf3ad2daa7c565e18eaba834db3f6bdfc9ee37445f2d6f7dc2b4c986b7efd5373224d2c92aa5a81973977d8e8c592f9063c5a14a658990f9c3405643089eb58324cd3f05b5b5e4000000000000000000000000000000001847b14146cfa2e1700f368f414b6a66ccaa02ca2a90b40a8e2be2ee4eb66af77ba563d7507de63362fb18426b6149610000000000000000000000000000000005c028d2b344ccb6400b53134bd179028b8774000ace89369bc655bb9dcd1643aaeec830407ee941df5432ba27987e8f000000000000000000000000000000000c4a680e2157dbdb53ae761209d505b4cf6b18fef5aff1c5009ab41295e0ce2ca23bd7a4f983fb9d085e1d0dbc75ffe40000000000000000000000000000000013c0cc77a5d771f1df99d1530e65ba782604c1ecf67d08572609de9f18405b9b817c2643226cdc7c9ad35beebf87dab0a610bfd375a7b8d0b034c17c8fa27d4366b06c681131fa7daaeeeb08e25c2ca60000000000000000000000000000000009f32f2f83c21875963818872d243cc8c70b75234f53490eccffbf060cb3b9c53545c1c32025b271514f500b20b00ec10000000000000000000000000000000002491b571087a9e89dbdd039ccd2c37d5d8d25587495b2d7b0066e9dcca02d44b2c134b0128a9a1527396729f069df83000000000000000000000000000000000264e9c47f72b639597de8f26a42ca7d77324f8c0db705986fc3b40dfb46f47764b69c70037a68d76a5de49a278779a100000000000000000000000000000000090614b3bb302ed9fb78b8756524fb78d54a4390b27136087181342571f994b1a93faee28256d765a8ff4f448cc357c199ffe1dc2d7526338462860501d75380a5ed9d53e675125342afb6652a97437b0000000000000000000000000000000012c716ddf17fca0d974e8d6003d99aa90f06b201fd141c74d8fdf1167030d14dc732917d3c6f736c68fbde9df50c098a0000000000000000000000000000000000261ef2b47de8e1576aecc6e19ececf80ddc1f4e28b2ff27953a65199f65a6211db7326632cfe04d543895c727ef8b600000000000000000000000000000000044fd6b9b4a1bacb8b7d4c53c106b025ae78f17c3baebbccca4e18cfbdbcbf8b3ef88ed5bd9bb36d9aea9e24f4117e760000000000000000000000000000000007721612515fd075811ee804314acec9d389900c7ef883e866f71fba00c49d5c4dcc7a2b8e2366f5a93f4577926ed171fdd97465982b58e69993711a6a64134bc4e76b88ba1948af91ba3339e9b9d3e900000000000000000000000000000000122581659ab1712afc23c23c2986394de8e155bcf722e944ec05e7e42e05acc366d9a7abf2136b5dc68a8dcfd4a640bf000000000000000000000000000000000188842cf4ef54cf77c145acb685d3187cd9c842ba6705bfed846ace83dc4400c45120fc1d6a633ea879840d3d0c902f0000000000000000000000000000000005c8966862ed4458a753155ffe2c64655779860149641ee5511a46ec576798fdb5cd9521528df77bfebcdaae2f94b865000000000000000000000000000000000cc10d888d2b7a97666de99ac14a501b7e2171f074d30d947efd67d85226c312a7977cf923ddbc88c533f08a99f2045f786a2a3974c84752b32f29707805c71992d5d473f4b7bc1f0757d126607a1c07000000000000000000000000000000000e5af1420546c1a5a0e0c2bd9241bb7c7a26dd52f4f358fc868bea457a60bd4f6bc5b60b27069fb4f6760813a91ada740000000000000000000000000000000017426a65d239b1d9505bef2b476799c394fcc7bfdca36a1ee5a600351334dadc238b64cf8a667a25d4880a31b73c53a9000000000000000000000000000000000f151587944aad17429b51b1c16193c1e1c93cb412538d1475473666c997e012ce618eb841c4e9e064a08ab83d7fa60e0000000000000000000000000000000015c2e049c532db585807319c23ec077a51f288fcffb2cb6528d3697221e8542e3fc85d18b079ea1b217fae30858a36f285d33a7fbe6ac6eb42eb932dfbbca2f771ffad5e80fde686e5df9d34e9f83ad6"
            ],
            "gasLimit" : [
                "0x6acfc0"
            ],
            "gasPrice" : "0x0a",
            "nonce" : "0x00",
            "secretKey" : "0x45a915e4d060149eb4365960e6a7a45f334393093061116b197e3240065ff2d8",
            "sender" : "0xa94f5374fce5edbc8e2a8697c15331677e6ebf0b",
            "to" : "0x095e7baea6a6c7c4c2dfeb977efac326af552d87",
            "value" : [
                "0x03e8"
            ]
        }
    }
}