{
    "g2_multiexp_83" : {
        "_info" : {
            "comment" : "A test for g2_multiexp_83",
            "filling-rpc-server" : "evm version 1.14.0-unstable-a208e725-20240416",
            "filling-tool-version" : "retesteth-0.3.2-cancun+commit.353b2b37.Linux.g++",
            "generatedTestHash" : "45ad939d9593206262c67e1c205e8c6c9673da612abfde9463176a5fff6922b7",
            "lllcversion" : "Version: 0.5.14-develop.2023.7.11+commit.c58ab2c6.mod.Linux.g++",
            "solidity" : "Version: 0.8.21+commit.d9974bed.Linux.g++",
            "source" : "src/EIPTestsFiller/StateTests/stEIP2537/g2_multiexp_83Filler.json",
            "sourceHash" : "12f41e4dfbdb732d57d9c60ff6cc3c793329a985fe4f9f526d623533408e00e0"
        },
        "env" : {
            "currentBaseFee" : "0x0a",
            "currentCoinbase" : "0x2adc25665018aa1fe0e6bc666dac8fc2697ff9ba",
            "currentDifficulty" : "0x020000",
            "currentExcessBlobGas" : "0x00",
            "currentGasLimit" : "0xff112233445566",
            "currentNumber" : "0x01",
            "currentRandom" : "0x0000000000000000000000000000000000000000000000000000000000020000",
            "currentTimestamp" : "0x03e8"
        },
        "post" : {
            "Prague" : [
                {
                    "hash" : "0xb0bca9ff282be53129155448400961d05b1baf4fdca5c8cc421cc196a2a68e23",
                    "indexes" : {
                        "data" : 0,
                        "gas" : 0,
                        "value" : 0
                    },
                    "logs" : "0x1dcc4de8dec75d7aab85b567b6ccd41ad312451b948a7413f0a142fd40d49347",
                    "txbytes" : "0xf912c8800a836acfc094095e7baea6a6c7c4c2dfeb977efac326af552d878203e8b9126412bd42990000000000000000000000000000000000000000000000000000000000000010000000000000000000000000000000000000000000000000000000000000004000000000000000000000000000000000000000000000000000000000000012000000000000000000000000000000000016ac5146ffc26d1f0c33645931bddfb84756e1c7b03f4838467d1b6701ee9478ae03c910b6b4f5c14135487bd2c14bf8000000000000000000000000000000000e1d082f16e4d5c5f0b6fbe5178aef6f781a6fb165f775cf0cd4dd55f2b498a79edf373007113dcdf6b977a87e1fded2000000000000000000000000000000000bb94be280df1aed761651c0292f88037d172b675bae1933ec12323b947023b437d080aac9e196fe5e06e5c4137284d200000000000000000000000000000000064190f9725bfd5d56c31aef7fd1590c975e2ce549fa6d5c71b254851149e0a0dab0b9de3acfc2d64231c79bc0ebaa37ebb3c942d3a1a15cee806fdb0fc3635483743a5b0ee9c40a48700bad5da53ae70000000000000000000000000000000012199d02d3f1bd8c4005878c3302e6a731ea69d69accdd690b4667e847b079563d32e18eb7a440b8005ca936da5e73cf00000000000000000000000000000000125b0dbdb0058639513b007a84d3a3e6302f5d846f22f99a55181f097e200981d9013c00d688a11eb976120f1a5da64200000000000000000000000000000000081e723506635433528fe4a40fe4ecb8a9c3d8cd701c043c0418d149951651e21632cd85f03db33b89efadd69e009ebe000000000000000000000000000000000956af2e67f8ae676abc783c4ec9f85c50ea130410cee8216fe036cd0521b8ea38966288afe7d35c28b30f7ca5c6edc0c193d751c4f24f4808621979f07f03b2eabba75f08bb49682b9df2da7a85a7730000000000000000000000000000000003e11a4e9dfe82cb495e9e698b16c257ea3f4ecb24749751e7334e0f31fbd6677545e4bf9ff78a82853560f7e7ba2ae2000000000000000000000000000000000caea2c527cb3aeae427e92fc364365b1f55e7128a544009be2ff7a5236d1cf8ffd5a5cefc87820bff5bdf1c6bfa165d00000000000000000000000000000000064a3186774da8bb5d013debf46ccb0d894592c414f32de6f77da47f4d42b0c8a13a2ba4f14b9883d564fd8ff6a4c90200000000000000000000000000000000072f6c48b6a05039e3a4dfc6b73501d6d4ca7e840b119da9c074bd4cd2adf4f2c6e9e6325ebf6f97c3f0b00e6b9bfac6dee4eef524f133183b4af95e4445f3ee5084b96c32e284ebebc5b87f3d76150b0000000000000000000000000000000019ddf708ab31f6f6f725f0e4f65d11248d3a79af30927a6f2673901fef9819b189502cb952bd4742d2b8e84acebb5196000000000000000000000000000000000d928535c47eafa5da4ce4f91467fc31aff8b86b850e4582a597b334491b14da71763f9aedb15ed32856382069c094ce0000000000000000000000000000000004d6b3545d067aa0768cda9dc3cca0f58eb546345b96f7d6b9355d47770e00286d962a6b3a64ca2ce22fdb4834a4bb6e000000000000000000000000000000000f4ef9366d342b309076299816c1ed9b424b68886a5c69e21e785f97cb0f99ae3a99ff6b5244dab817094449048a7552da514f21c8eab0edb2405e673297bb595edc21027890ad680f1663fd960ce478000000000000000000000000000000000236c5b4c57ee4facec5d4ff37a478c505217af66e029c3382613442c58875c75cb423789f6703ff3c1c0d80991c9e3a0000000000000000000000000000000016c052de3336002f362d9b0cb386b800860527e0fe81a1a6df0ccde31f3265e6246191b3febd1ea48e9391c44593ab0700000000000000000000000000000000078dcb04ca93c676a9a924e59f924d9d3af872849bc30ca633d4025aecd981ba12e626337635ea77886a45f4da84104f00000000000000000000000000000000027df6394b195222bb8357bd684088e3e2a398f0fb0cb812ca5dcdcd1fa1279cfd03db62e0f8b2800d4b8b48238931656aeac9a669c962817c01069cffbd948d9d8ce764e92859f31fdaf85f5aefab77000000000000000000000000000000000485ce58b387083172102145fdb3e26c6ffca8b35af0e1d84ce9cbd89055be083bddd3da56443924049a056fdb2ef092000000000000000000000000000000000d998b234a69d584c78ed054b1322ceb33f73cafb5b23c1703a9fd609edcabd44f1a642802b9c0b6fde6a6828b50c1200000000000000000000000000000000019235ff13567bd007d77e4dfab139cd57dbb309a3cf6a6198a548c4e6915778094ddf2b05a91f5478169757bf5a56cb300000000000000000000000000000000110f6ea19a7f62bc3e78f4c5c1c6d3efdf1a7f563576e758218b2c363fff8ad8fab0e72431619e4ebc93d2d739fc786c40273bda92c9b1b677edd905d76d75875e5b77841befb2bcaf1fca7674dffd5a0000000000000000000000000000000001d45da76e3016c00fe65bb50f7067e4f06364ad8348184831c4932ea0e0f3a170ab5147e4670ee1b16924105b6fdb6f000000000000000000000000000000000b3468206db0613369b2b0750c98da65b660fc07c30cab4e459c311dab683b6b313b99ec0fbe92ba07f8aab43a12a2c9000000000000000000000000000000000f58a57c449a41105837d5e2419a34201cc921ec77408d6c0c7a2eb227be98ec1f6f6eb9fc088daa0d4c78928a1eacda000000000000000000000000000000000ba53b872dcb9fcabf35e673b467523ea77accfc1b38a5f92d7b9d269c28aa00d00b08d70eae6ed4d2e82bdb06008f9ab77e16276f9464fa2063230d6c1a4152553536c610062f18565c030e80b5cb540000000000000000000000000000000002b82e2b582b247271543117b939fd17ba8bdd617a223873296f7bd75de4790f0d5d8fe523792bc7fb4764d3739669d80000000000000000000000000000000006eb554347efc5f2ee79949bafc012e6d9964ce19459b3867865709d903fe3d11bc617f30f6279a9e62ea104565953600000000000000000000000000000000006a543fe5cfbae629fd3256575e3eb4e0b65864aad6c7f359e169038bf090ed9bd92fef32fe1ac20b2a8c90fbb6081690000000000000000000000000000000013ee42b0693b2f3b9b977fbae5c856e9e4c5e70120b5c29e0a9f898f6d04b7fe351e17b02716a44febcf0a00a9cdd9220be15b654ce22ae4e32987babc4863ffe2bd8a459d0f01f68fe84a75326889900000000000000000000000000000000001ae7368f84e354e5758554aa9c72ab4b00a644cfb9a4ecba38dc72227d297749bbc98c8f5d6149143b31442359d8013000000000000000000000000000000000abf087f77c79cb8c69e4289fae87b2ed483442daec3851a5ba32c43e342be29433b2deac6dbfa7a787547a7361ed0a00000000000000000000000000000000000fa01cff7aea64b649951a8d85fef0bd475f31e47c706b96ee2753df9987508b5e5456cc49e88ec3aad720a2535f6940000000000000000000000000000000018874d020e2eec0e286dce324b91f15b2a4f293d32956b27524f478983f0e0c5b43df802b60f4f001753f12d449cd821c8f1fe94bce21966427380b6d357a3599e9db03a7694159335ffba26fe29e4650000000000000000000000000000000018f7d19362e2cba91023455e115cd90f02aeafcb026349393ca4105e270ab1cf589621b40965fdc9795f66ea0f6a053100000000000000000000000000000000170ce0eb304e0e1047617b709c834b67a8989212e5bf1cbd5a33242be94bb141d5366e636c01a229943bead9a7baf43900000000000000000000000000000000077a17356b3b31faf90f709042938b9e901817f7379b7bd486d18e47d22b0430ba70fb3006e9afa67d7dac71ffaf152400000000000000000000000000000000064aca92c41561e195fa8239800c97d5242ff0f8ce76b0d119063e2ffa09c26e01d23d5728765a59bb9587e885450ad1c6d34471ed00035a484f97f4e8123d40ca23b017b94df65540a5551b905e57b3000000000000000000000000000000000876a57dc24ad58416f910ee3ce220630a1297e6bc691c908e6cc16f975b146872d71661bbb869361623c61670627eb0000000000000000000000000000000000760fc65097d215ab9aeb3d5a5153977e1e399e2cc0b0cb9befb0266d98ac13512a0eadaba4e051bf56794621c551ec60000000000000000000000000000000003c8e205e53075a96c14ec26345c75881a0d67c7ce0d62d73c83dc353cd7b555cde52ffc5659ab0db2179a899f0fd694000000000000000000000000000000000d7e8a7fe6b751f7f478698f4f0d30cd0a435a2295a958cabedf4668769819b4cbd4e8b7721eeb5ced3f913156abcaaff3abd467168bf5e57f71017b5779bdd400dbf416f34f105fe747ea2f8cf4a21000000000000000000000000000000000180546f697349adb2918129f4d0a979bb114d1b58e5baa6cc221a09d7083469bfaa61f80f1e3a6ccde0da54b24d59db70000000000000000000000000000000004074338380e3d7c0facbbc71d83e78b53191af9ba13ba0cba6015bf4f28e4b0b52ffb34c7867a335848f57b5ce5ef5200000000000000000000000000000000148a800ec38cfc2386497d9aacb4327d5953a6612cd4067ac13fb977046688e80032125d4b0e7cb49913e489796a50ea00000000000000000000000000000000132438d18d942e6dd3f69d117abf83c2fa18418e5145cc43b3cb8d18c873935e41279a9e13596f2863be7aeae9b73d172809801eb18d38a61ef8a80f13086d6b1f85ba751cdb8d17fbb9ad5f8d0f835c0000000000000000000000000000000018b3102ce91af86cd10162d3a43e488a0d7b7807dfb9624c3cae76f342e86f8ef1200444a57e2ed7f819828357a6dfe80000000000000000000000000000000017137b470f3c8d1a03e7252e18f4466c9ff809408cbb2043d6b226ae2746d890b267ce3255114b2e073eb66e93c55eb200000000000000000000000000000000054dc1c981c9166d0bd3a54064c33f15ab856b240770ed44adaf9f32d4429babcd0baf2c5b8a1ff80728e9c63e806cd3000000000000000000000000000000001897595f836342ab54bc2e1b72f433bfe3b5bc989727de48575abe89386aaad9b1549af3ca55f39feec14355b29dc9e33521c9cf035b094d754db994fce3161842a9509ec8288699680c0ac7761eac68000000000000000000000000000000000467f1a3093c72aba4c2d9e8171057cf88146eb32f38db0761a5ab2027f2213c89e12c67a338b4b342a73384109988d2000000000000000000000000000000000ab26c871d140c9c4e0512afe9fb576409ffdcb95417f8c6cdc0d964011dfb1e745045766bbbc08ff7dbd6935934bba300000000000000000000000000000000183488902b886200e63465098be87a905810b2e8ebe0364316da798e423dbb267743a0d2e3d93303623fb17df0e74ce30000000000000000000000000000000012c7e79f9ba36cc47762139d191e6625c850a03d5b6e0648032d1669575704c91e48a9ae432bb3553ec66e86e082de689c8c2998d141b9cd3a82507b6dd97e8d32e9e759169c575eb484e9a1559427da0000000000000000000000000000000012ef4988956e026a79e5e904ad3d7ca56793321d62cad46de3cbde8570be5f0ac86d386216152b37053741fe342de7c60000000000000000000000000000000014ff7804312754d23b251a42aea65207695d4df65cac4f87fc96cb920843c022f24cd27731224db751cfb621886249540000000000000000000000000000000006ea693105a1b2afc79dbf75504c256c519f927ea0d79ddd1997a49638a67151dc81b84473208e8078cf71d456f2de0c00000000000000000000000000000000122d367c147c91517679432d3c7b56f2d529d70040109f803b89a04fd8540a6c565354ae420e1bd4ad4ff61427332629dc83c1ea9e4f4fc12a7190e6c71c4f35d1a676d39e30fe688a05820dd989664000000000000000000000000000000000156e7f8f1412cec315eb76f10c92143157313b8eda0677a6c0236de5fd27e5660ec3eb7369f1604082c59e1aa5f94dd900000000000000000000000000000000018ca9f505a88ed2bf595fa9b55d2356748770af16b35bd5db448990b7d41c3aac53aa490791f7ac09d2f5a087f938f70000000000000000000000000000000017c76ca9ddfcc26b028928364ee35829c6e57fda40773a6bc0c259a1b3cdea715c664d7bd0340192aaf7dec7ad20a2ed00000000000000000000000000000000082a255966c4f9d0ad6bd3d88b136cb2cfca09ed6ae378c914c28ff3338a2cd466cafd839f3fff4a30b33ee56e684f4e00be1b9098f1873ce155a66899877c7b48ddda363ae1d2353cb3816f1ab15ef01ca04c13da6cac26ee202174dd32dc9979ba684bc9ff44e344d5e83bfb716281d9f9a01bae58ecd5c9e34b6ca28b68fec06f05179b3c64514ed23703abd326428a360e"
                }
            ]
        },
        "pre" : {
            "0x095e7baea6a6c7c4c2dfeb977efac326af552d87" : {
                "balance" : "0x00",
                "code" : "0x60806040526004361061001e5760003560e01c806312bd429914610023575b600080fd5b6100fc6004803603604081101561003957600080fd5b81019080803573ffffffffffffffffffffffffffffffffffffffff1690602001909291908035906020019064010000000081111561007657600080fd5b82018360208201111561008857600080fd5b803590602001918460018302840111640100000000831117156100aa57600080fd5b91908080601f016020809104026020016040519081016040528093929190818152602001838380828437600081840152601f19601f820116905080830192505050505050509192919290505050610182565b604051808315151515815260200180602001828103825283818151815260200191508051906020019080838360005b8381101561014657808201518184015260208101905061012b565b50505050905090810190601f1680156101735780820380516001836020036101000a031916815260200191505b50935050505060405180910390f35b600060608373ffffffffffffffffffffffffffffffffffffffff16836040518082805190602001908083835b602083106101d157805182526020820191506020810190506020830392506101ae565b6001836020036101000a038019825116818451168082178552505050505050905001915050600060405180830381855afa9150503d8060008114610231576040519150601f19603f3d011682016040523d82523d6000602084013e610236565b606091505b508092508193505050600060405180807f6572726f72000000000000000000000000000000000000000000000000000000815250600501905060405180910390209050821561028a57818051906020012090505b8060025582829250925050925092905056fea2646970667358221220db58d80e8530eed625d9b4250a6055c2eb1d7c117a7ca267e6f8a059bdd2f39e64736f6c634300060a0033",
                "nonce" : "0x01",
                "storage" : {
                }
            },
            "0xa94f5374fce5edbc8e2a8697c15331677e6ebf0b" : {
                "balance" : "0x0de0b6b3a7640000",
                "code" : "0x",
                "nonce" : "0x00",
                "storage" : {
                }
            }
        },
        "transaction" : {
            "data" : [
                "0x12bd42990000000000000000000000000000000000000000000000000000000000000010000000000000000000000000000000000000000000000000000000000000004000000000000000000000000000000000000000000000000000000000000012000000000000000000000000000000000016ac5146ffc26d1f0c33645931bddfb84756e1c7b03f4838467d1b6701ee9478ae03c910b6b4f5c14135487bd2c14bf8000000000000000000000000000000000e1d082f16e4d5c5f0b6fbe5178aef6f781a6fb165f775cf0cd4dd55f2b498a79edf373007113dcdf6b977a87e1fded2000000000000000000000000000000000bb94be280df1aed761651c0292f88037d172b675bae1933ec12323b947023b437d080aac9e196fe5e06e5c4137284d200000000000000000000000000000000064190f9725bfd5d56c31aef7fd1590c975e2ce549fa6d5c71b254851149e0a0dab0b9de3acfc2d64231c79bc0ebaa37ebb3c942d3a1a15cee806fdb0fc3635483743a5b0ee9c40a48700bad5da53ae70000000000000000000000000000000012199d02d3f1bd8c4005878c3302e6a731ea69d69accdd690b4667e847b079563d32e18eb7a440b8005ca936da5e73cf00000000000000000000000000000000125b0dbdb0058639513b007a84d3a3e6302f5d846f22f99a55181f097e200981d9013c00d688a11eb976120f1a5da64200000000000000000000000000000000081e723506635433528fe4a40fe4ecb8a9c3d8cd701c043c0418d149951651e21632cd85f03db33b89efadd69e009ebe000000000000000000000000000000000956af2e67f8ae676abc783c4ec9f85c50ea130410cee8216fe036cd0521b8ea38966288afe7d35c28b30f7ca5c6edc0c193d751c4f24f4808621979f07f03b2eabba75f08bb49682b9df2da7a85a7730000000000000000000000000000000003e11a4e9dfe82cb495e9e698b16c257ea3f4ecb24749751e7334e0f31fbd6677545e4bf9ff78a82853560f7e7ba2ae2000000000000000000000000000000000caea2c527cb3aeae427e92fc364365b1f55e7128a544009be2ff7a5236d1cf8ffd5a5cefc87820bff5bdf1c6bfa165d00000000000000000000000000000000064a3186774da8bb5d013debf46ccb0d894592c414f32de6f77da47f4d42b0c8a13a2ba4f14b9883d564fd8ff6a4c90200000000000000000000000000000000072f6c48b6a05039e3a4dfc6b73501d6d4ca7e840b119da9c074bd4cd2adf4f2c6e9e6325ebf6f97c3f0b00e6b9bfac6dee4eef524f133183b4af95e4445f3ee5084b96c32e284ebebc5b87f3d76150b0000000000000000000000000000000019ddf708ab31f6f6f725f0e4f65d11248d3a79af30927a6f2673901fef9819b189502cb952bd4742d2b8e84acebb5196000000000000000000000000000000000d928535c47eafa5da4ce4f91467fc31aff8b86b850e4582a597b334491b14da71763f9aedb15ed32856382069c094ce0000000000000000000000000000000004d6b3545d067aa0768cda9dc3cca0f58eb546345b96f7d6b9355d47770e00286d962a6b3a64ca2ce22fdb4834a4bb6e000000000000000000000000000000000f4ef9366d342b309076299816c1ed9b424b68886a5c69e21e785f97cb0f99ae3a99ff6b5244dab817094449048a7552da514f21c8eab0edb2405e673297bb595edc21027890ad680f1663fd960ce478000000000000000000000000000000000236c5b4c57ee4facec5d4ff37a478c505217af66e029c3382613442c58875c75cb423789f6703ff3c1c0d80991c9e3a0000000000000000000000000000000016c052de3336002f362d9b0cb386b800860527e0fe81a1a6df0ccde31f3265e6246191b3febd1ea48e9391c44593ab0700000000000000000000000000000000078dcb04ca93c676a9a924e59f924d9d3af872849bc30ca633d4025aecd981ba12e626337635ea77886a45f4da84104f00000000000000000000000000000000027df6394b195222bb8357bd684088e3e2a398f0fb0cb812ca5dcdcd1fa1279cfd03db62e0f8b2800d4b8b48238931656aeac9a669c962817c01069cffbd948d9d8ce764e92859f31fdaf85f5aefab77000000000000000000000000000000000485ce58b387083172102145fdb3e26c6ffca8b35af0e1d84ce9cbd89055be083bddd3da56443924049a056fdb2ef092000000000000000000000000000000000d998b234a69d584c78ed054b1322ceb33f73cafb5b23c1703a9fd609edcabd44f1a642802b9c0b6fde6a6828b50c1200000000000000000000000000000000019235ff13567bd007d77e4dfab139cd57dbb309a3cf6a6198a548c4e6915778094ddf2b05a91f5478169757bf5a56cb300000000000000000000000000000000110f6ea19a7f62bc3e78f4c5c1c6d3efdf1a7f563576e758218b2c363fff8ad8fab0e72431619e4ebc93d2d739fc786c40273bda92c9b1b677edd905d76d75875e5b77841befb2bcaf1fca7674dffd5a0000000000000000000000000000000001d45da76e3016c00fe65bb50f7067e4f06364ad8348184831c4932ea0e0f3a170ab5147e4670ee1b16924105b6fdb6f000000000000000000000000000000000b3468206db0613369b2b0750c98da65b660fc07c30cab4e459c311dab683b6b313b99ec0fbe92ba07f8aab43a12a2c9000000000000000000000000000000000f58a57c449a41105837d5e2419a34201cc921ec77408d6c0c7a2eb227be98ec1f6f6eb9fc088daa0d4c78928a1eacda000000000000000000000000000000000ba53b872dcb9fcabf35e673b467523ea77accfc1b38a5f92d7b9d269c28aa00d00b08d70eae6ed4d2e82bdb06008f9ab77e16276f9464fa2063230d6c1a4152553536c610062f18565c030e80b5cb540000000000000000000000000000000002b82e2b582b247271543117b939fd17ba8bdd617a223873296f7bd75de4790f0d5d8fe523792bc7fb4764d3739669d80000000000000000000000000000000006eb554347efc5f2ee79949bafc012e6d9964ce19459b3867865709d903fe3d11bc617f30f6279a9e62ea104565953600000000000000000000000000000000006a543fe5cfbae629fd3256575e3eb4e0b65864aad6c7f359e169038bf090ed9bd92fef32fe1ac20b2a8c90fbb6081690000000000000000000000000000000013ee42b0693b2f3b9b977fbae5c856e9e4c5e70120b5c29e0a9f898f6d04b7fe351e17b02716a44febcf0a00a9cdd9220be15b654ce22ae4e32987babc4863ffe2bd8a459d0f01f68fe84a75326889900000000000000000000000000000000001ae7368f84e354e5758554aa9c72ab4b00a644cfb9a4ecba38dc72227d297749bbc98c8f5d6149143b31442359d8013000000000000000000000000000000000abf087f77c79cb8c69e4289fae87b2ed483442daec3851a5ba32c43e342be29433b2deac6dbfa7a787547a7361ed0a00000000000000000000000000000000000fa01cff7aea64b649951a8d85fef0bd475f31e47c706b96ee2753df9987508b5e5456cc49e88ec3aad720a2535f6940000000000000000000000000000000018874d020e2eec0e286dce324b91f15b2a4f293d32956b27524f478983f0e0c5b43df802b60f4f001753f12d449cd821c8f1fe94bce21966427380b6d357a3599e9db03a7694159335ffba26fe29e4650000000000000000000000000000000018f7d19362e2cba91023455e115cd90f02aeafcb026349393ca4105e270ab1cf589621b40965fdc9795f66ea0f6a053100000000000000000000000000000000170ce0eb304e0e1047617b709c834b67a8989212e5bf1cbd5a33242be94bb141d5366e636c01a229943bead9a7baf43900000000000000000000000000000000077a17356b3b31faf90f709042938b9e901817f7379b7bd486d18e47d22b0430ba70fb3006e9afa67d7dac71ffaf152400000000000000000000000000000000064aca92c41561e195fa8239800c97d5242ff0f8ce76b0d119063e2ffa09c26e01d23d5728765a59bb9587e885450ad1c6d34471ed00035a484f97f4e8123d40ca23b017b94df65540a5551b905e57b3000000000000000000000000000000000876a57dc24ad58416f910ee3ce220630a1297e6bc691c908e6cc16f975b146872d71661bbb869361623c61670627eb0000000000000000000000000000000000760fc65097d215ab9aeb3d5a5153977e1e399e2cc0b0cb9befb0266d98ac13512a0eadaba4e051bf56794621c551ec60000000000000000000000000000000003c8e205e53075a96c14ec26345c75881a0d67c7ce0d62d73c83dc353cd7b555cde52ffc5659ab0db2179a899f0fd694000000000000000000000000000000000d7e8a7fe6b751f7f478698f4f0d30cd0a435a2295a958cabedf4668769819b4cbd4e8b7721eeb5ced3f913156abcaaff3abd467168bf5e57f71017b5779bdd400dbf416f34f105fe747ea2f8cf4a21000000000000000000000000000000000180546f697349adb2918129f4d0a979bb114d1b58e5baa6cc221a09d7083469bfaa61f80f1e3a6ccde0da54b24d59db70000000000000000000000000000000004074338380e3d7c0facbbc71d83e78b53191af9ba13ba0cba6015bf4f28e4b0b52ffb34c7867a335848f57b5ce5ef5200000000000000000000000000000000148a800ec38cfc2386497d9aacb4327d5953a6612cd4067ac13fb977046688e80032125d4b0e7cb49913e489796a50ea00000000000000000000000000000000132438d18d942e6dd3f69d117abf83c2fa18418e5145cc43b3cb8d18c873935e41279a9e13596f2863be7aeae9b73d172809801eb18d38a61ef8a80f13086d6b1f85ba751cdb8d17fbb9ad5f8d0f835c0000000000000000000000000000000018b3102ce91af86cd10162d3a43e488a0d7b7807dfb9624c3cae76f342e86f8ef1200444a57e2ed7f819828357a6dfe80000000000000000000000000000000017137b470f3c8d1a03e7252e18f4466c9ff809408cbb2043d6b226ae2746d890b267ce3255114b2e073eb66e93c55eb200000000000000000000000000000000054dc1c981c9166d0bd3a54064c33f15ab856b240770ed44adaf9f32d4429babcd0baf2c5b8a1ff80728e9c63e806cd3000000000000000000000000000000001897595f836342ab54bc2e1b72f433bfe3b5bc989727de48575abe89386aaad9b1549af3ca55f39feec14355b29dc9e33521c9cf035b094d754db994fce3161842a9509ec8288699680c0ac7761eac68000000000000000000000000000000000467f1a3093c72aba4c2d9e8171057cf88146eb32f38db0761a5ab2027f2213c89e12c67a338b4b342a73384109988d2000000000000000000000000000000000ab26c871d140c9c4e0512afe9fb576409ffdcb95417f8c6cdc0d964011dfb1e745045766bbbc08ff7dbd6935934bba300000000000000000000000000000000183488902b886200e63465098be87a905810b2e8ebe0364316da798e423dbb267743a0d2e3d93303623fb17df0e74ce30000000000000000000000000000000012c7e79f9ba36cc47762139d191e6625c850a03d5b6e0648032d1669575704c91e48a9ae432bb3553ec66e86e082de689c8c2998d141b9cd3a82507b6dd97e8d32e9e759169c575eb484e9a1559427da0000000000000000000000000000000012ef4988956e026a79e5e904ad3d7ca56793321d62cad46de3cbde8570be5f0ac86d386216152b37053741fe342de7c60000000000000000000000000000000014ff7804312754d23b251a42aea65207695d4df65cac4f87fc96cb920843c022f24cd27731224db751cfb621886249540000000000000000000000000000000006ea693105a1b2afc79dbf75504c256c519f927ea0d79ddd1997a49638a67151dc81b84473208e8078cf71d456f2de0c00000000000000000000000000000000122d367c147c91517679432d3c7b56f2d529d70040109f803b89a04fd8540a6c565354ae420e1bd4ad4ff61427332629dc83c1ea9e4f4fc12a7190e6c71c4f35d1a676d39e30fe688a05820dd989664000000000000000000000000000000000156e7f8f1412cec315eb76f10c92143157313b8eda0677a6c0236de5fd27e5660ec3eb7369f1604082c59e1aa5f94dd900000000000000000000000000000000018ca9f505a88ed2bf595fa9b55d2356748770af16b35bd5db448990b7d41c3aac53aa490791f7ac09d2f5a087f938f70000000000000000000000000000000017c76ca9ddfcc26b028928364ee35829c6e57fda40773a6bc0c259a1b3cdea715c664d7bd0340192aaf7dec7ad20a2ed00000000000000000000000000000000082a255966c4f9d0ad6bd3d88b136cb2cfca09ed6ae378c914c28ff3338a2cd466cafd839f3fff4a30b33ee56e684f4e00be1b9098f1873ce155a66899877c7b48ddda363ae1d2353cb3816f1ab15ef0"
            ],
            "gasLimit" : [
                "0x6acfc0"
            ],
            "gasPrice" : "0x0a",
            "nonce" : "0x00",
            "secretKey" : "0x45a915e4d060149eb4365960e6a7a45f334393093061116b197e3240065ff2d8",
            "sender" : "0xa94f5374fce5edbc8e2a8697c15331677e6ebf0b",
            "to" : "0x095e7baea6a6c7c4c2dfeb977efac326af552d87",
            "value" : [
                "0x03e8"
            ]
        }
    }
}