{
    "g2_multiexp_2" : {
        "_info" : {
            "comment" : "A test for g2_multiexp_2",
            "filling-rpc-server" : "evm version 1.14.0-unstable-a208e725-20240416",
            "filling-tool-version" : "retesteth-0.3.2-cancun+commit.353b2b37.Linux.g++",
            "generatedTestHash" : "d7e2560fb6956f71d8bffd3f7a672a6b05675f7d022d357017d228f055c77eaf",
            "lllcversion" : "Version: 0.5.14-develop.2023.7.11+commit.c58ab2c6.mod.Linux.g++",
            "solidity" : "Version: 0.8.21+commit.d9974bed.Linux.g++",
            "source" : "src/EIPTestsFiller/StateTests/stEIP2537/g2_multiexp_2Filler.json",
            "sourceHash" : "a9a045cdd7f9338e73f067aa4f1d3d138eb7fbba9cc97a252fdb8520fd238333"
        },
        "env" : {
            "currentBaseFee" : "0x0a",
            "currentCoinbase" : "0x2adc25665018aa1fe0e6bc666dac8fc2697ff9ba",
            "currentDifficulty" : "0x020000",
            "currentExcessBlobGas" : "0x00",
            "currentGasLimit" : "0xff112233445566",
            "currentNumber" : "0x01",
            "currentRandom" : "0x0000000000000000000000000000000000000000000000000000000000020000",
            "currentTimestamp" : "0x03e8"
        },
        "post" : {
            "Prague" : [
                {
                    "hash" : "0x5c75b736c666d8fc2cf90c0a7f7e58eabe5a74a9689a4c2767e4491c0048a603",
                    "indexes" : {
                        "data" : 0,
                        "gas" : 0,
                        "value" : 0
                    },
                    "logs" : "0x1dcc4de8dec75d7aab85b567b6ccd41ad312451b948a7413f0a142fd40d49347",
                    "txbytes" : "0xf912c8800a836acfc094095e7baea6a6c7c4c2dfeb977efac326af552d878203e8b9126412bd42990000000000000000000000000000000000000000000000000000000000000010000000000000000000000000000000000000000000000000000000000000004000000000000000000000000000000000000000000000000000000000000012000000000000000000000000000000000017b32e613cb38b41dcdf3c8bb9187d731546977fbffd79fa7f66e3d6aaf9e1af6eca2fcdc260c8f90818d7148ba2f4960000000000000000000000000000000007e4d26606a47c874c20e8480a9f5815e5b577bccd783b775d10309eeb3d2102c7a0abc3324679e44362f09e7a4ada67000000000000000000000000000000000cb6f12ac8b49cfa36b957591293c87b21af0a949c55a28a90ab0fce88fb5cb7645e20ab2edd284f0ad1377dd95ac10e0000000000000000000000000000000014c96b5dcbd3150eeaea5c2bc27750cf88b30a91933a3233a4d1d9b357a80cc20d135e43a344e718dff5c79045c31f86d5c1c9fa11c36b86430cbb1f3ec10ebbe3787d0f5641d6d7fb96c810eda202dd0000000000000000000000000000000001ca1141ba9542c56de8991b313c6ae42fcecb6751b0b81b8cb21ed70d5008f7ffe831766b89880a7fa6dfdb09a2cda3000000000000000000000000000000000e6766b17db165bba564ac63ab88d3f8f5eded07a40b48644e60d3223d30458e7dabe404cab8d6f9fe135712ef0b1a43000000000000000000000000000000000dda3e6c87382fa762510e5cac721fd2b654f002f5b9a3767a8c6d651ccc582e80e3f68d6913cda30f9f51ebcfc7c98600000000000000000000000000000000059a7dac5bb6b504f2bd603d486700fe22c14f25254537b2c9079c2b45d36c7ce56854c5699cc7649b533194f51a9045c00eb20fe7c292f3ad820a074d8b3d8d24506612752d8677c2d6ca24f556cc4500000000000000000000000000000000090f4b85961ce97cf7f99c342d3627105d790f611e19721a43d8a0febd67ae393d77a02b999108efb56f0397dac22703000000000000000000000000000000001112f23595d1613c47486eadc37f9b1ac3b3c3973b3fe964d3b67c3996fe2eacd9df5c287b0cea8e9475d146fabcf9e70000000000000000000000000000000018f46f7ba3c9af34c1025c2d460f0be966e68944928dbd55cc7fe00e5def598d80b0e3801e48a74963c974ab4727a52100000000000000000000000000000000096845338d5cd2ac44e097607d6a1a05c241eda1941991ae9edbba965d9029032c46da7218b5b2338e6c58898bc4a820f661d7b30fb11bef70e15b257d7073885468a380862202b2d705a84827644b5b000000000000000000000000000000000aafe45ea7cb8b450a51263eebc28c1ded662972bee512e24fddaf64f43b74b66032523b3b104a4e9f6b62394436c6710000000000000000000000000000000015cb27e1fedfba2d1679f78a388f90b22bbf3e7d090f0ba972fa8e72f6e31c446f628fff929953712ef6e425d16eba5c000000000000000000000000000000000df9931893cae713042bf722db6ce394b6f346587278a154c271d8511e690417eb6dc47efbcebb7c2fb9e77f1de9fde800000000000000000000000000000000106ffa395ef170c99bb5742428ae88fa4fd7a94476985c099e3b700b7403d083281fb71a19640c6bc2321e27bcb33fe2346ce87c847376c8967cc18297e6007dcfacb6424e1d273930f38bb0e88fc5ca0000000000000000000000000000000010b1f8b1c492a56936da905b8738affba6bd29ae5fffd40ba6b31325181d3b489a81b23dcb69f6e71bd29bfb388e5a8f00000000000000000000000000000000116a115303b4774da59844e457844232d088062d920db67b2a8450a194be7e5340ebd4d106454fd9a03c8f50dbb1e119000000000000000000000000000000000eb521edd61b38006cffc43ab72d395d669dec196846fa4d6d43521da6c2fc3bf0994ce7556a3cffec7751b3bc5703ff00000000000000000000000000000000073cea36eccaa1c78deefb6029903c2b6598301bdefa9759719c3b590fcc5a6a4d3d4d19f552b33f4a3126a6e6a8448639a142c443a666499a880aa1cb9f523411bbc8e5554de099ab485b6c2c2e57cc000000000000000000000000000000000e3925fa085db73c1e67b29ae90f8773f83be5ec684402e8e2360ffee8a8368911e584843e42b0d470de78591df6ea6300000000000000000000000000000000075c7efdeeb16609b4a47ea442af4d75238fb7534fd96cb236a7886809d6adc2b62c8ff72bdb041bc51c1a71b68219e300000000000000000000000000000000088b4eb0dd185e51b737d797334590e982b7b0a5f109fc7d0524b2465c2c0457964eba5a6d2d4d99fb628f21f15a776c000000000000000000000000000000000fc79f6b38f3356972669290eeadcd992a22bc1191606b663a1e148aa58db3938f0fc65e536bc5811c50d9c7f03d3e372c01b7795c2d16b5bbbb1e107be36cc91b25130888956b0cdd344de9b4659447000000000000000000000000000000000b87c47605fc060a8e3677e84ce9d14b9309360a13c80d040c625fbf0108f829300cc1fca409a0f9c96311cd4a9a21e60000000000000000000000000000000014c4088f1e7935cf6a1d2475b84497ce6a250ee2c0c991fe51a2f2836388a354824b02d9cf215328dfce3f546713e21100000000000000000000000000000000120e59be3ecf35674eac6cdc559599b273f13f28a529770fa156f8e519734c451eefb35023639f32049cd19ea0d945a3000000000000000000000000000000000f97755b62a8cb8f861ea02c77819f0b58181aecf612d92180ba9b475f0b4888b922c57f6a1c619dd5514620a1cfd9e2c712943d8795a6104f024b9701c70b09cdee9494755bbab0576e2c7f7c9d48280000000000000000000000000000000005860cfb6be6720118623d2d8ba05e686df22744b948421dd3cc1b1691e00d9b5d00d00195b4acf7a7b043f764f3f1c70000000000000000000000000000000012632a3313dd611e8d969bddd556c2d79ff387603462ac78ded3a842981697bdac34ee6f1f4744ed2ff16100874ac24000000000000000000000000000000000112b94c317586e343acadeca611c485c3ea172bc10dd39158c1e678007130062a921b53826d7be6286963ff822f1066c00000000000000000000000000000000040de8c0dadd2a6c2a7ea0fa43e1a5f2f5a6be3fcb0de6875d8cef1ee2daad87125d12f6869c4dd3d931b296f1df2fb3d4d77f6246c57d398c57848db8d3f986c475a41a23d424cd3cc2b362c1b99f2a0000000000000000000000000000000006fcd2c4fe848e9462ba1112baad39031c210952adbdd06293a622ffe2d1c6e4fcc8773ec8913717018b97bcb9a554fd00000000000000000000000000000000130a97442f3273b7b35464545e7351faf71ead9b8996c63889a45945ed82bba29bff5014776c6185219a5234d8475c92000000000000000000000000000000000491d571bac5487b866022a0714be11b38bfb296233845cc434a50be1d35f516b8c6b046fe3d0a8f4f95ac20eddea01b0000000000000000000000000000000017e34b04e6fdf152c848f2432b7bd84b3dba3915f06eb77efb8035750aca9d89e92e1d1bc4871105c440d639e8d8b05541776ed9d1029918af4c5113a6110139b8bd7f938caa204373a28ddaa51430eb000000000000000000000000000000000f1b8df4e8fdfe32eaf227f5af9f2befc85073468f10b81d32d0e126fe2b0cc8e8adb8afcac73213b6ed95e8e843b97c00000000000000000000000000000000004e3fb435ae0fb2d8bd091f250aefe5922b353a64e16abd75627737f3bc56639f8b40652cae69c73ff1969925b0afdf000000000000000000000000000000001003aed7cfb00efce49d6b1a8eba27df87479a4d37bd7fda6121549483b669a1a761204b0dd28262bf27e5c8e180540f00000000000000000000000000000000114fbca7caf782b3296d0b26b4c362bf50acaecb8bc5726b2c99f904ec3d092d5d40991d0d30c8e79fddaa45f04a75d3fa64411438542922a7bac10806efaa633d31d37c0b223314a8b6221155b9c4250000000000000000000000000000000017faf481fd4cb0c373d21d7caad40e93d9a86e62d26136892fbcc6f6e48205543aff00c45e82fdd1d3e0e733de91e7000000000000000000000000000000000012e14fcb9ad4d9d15347cf004745ed4bd92097eeeb41c4cbcb728a234616363589d8f5ad4cbb61d31a8aa27627723c7e000000000000000000000000000000001513dad1ff27e053902e779e35d04cab648939317830144ea775c435a4b55e13fa2fef03a1256abf5c187487c25a774f00000000000000000000000000000000139da29de8587c7d0ca9237c37a116387385e9cea453b9e2003a37ede7aa0a3f4c1df55255897f5975b662be33622dbce7002f41c6acab677a0ad023bad2a61b11c1b7221d944018b5ce60bb61e87e96000000000000000000000000000000000c118b147ee3489f30c6ecc0256a314ab674110588e8b69ca6d265fc270c3e5b767817f861140cca5d7c6be4012d1ffe0000000000000000000000000000000014800790654726959fd876b035bade0da744fb36ee5b304f228663a531345120267c55ac19fd66022752010e5bea7cb30000000000000000000000000000000000193ab7ac2f151750356b6e178557460c9c2672b1736d19a20e3fa28082479ca60021aa68edf2524f1aa826ee70b65a0000000000000000000000000000000015cee9ac55ab45abbc57d0ea6ec9ee49f6c59f6b94f99589dbc08ee877d3a261ad77f5473fedd72ed7206647eeafb6eac26e55f09b787c0542878e4d720027d9ea465f829a4e0164cf618c5d9cde49bc000000000000000000000000000000000ef203fab794a0ef29eb2ebf00076134e5932e27c99d6d445695b9df2afe7563602e318caf5d44724a21790ca0ab0d180000000000000000000000000000000013b9b1b1d3e98b61b0f1a0ef3a1a4ceed57b6c01849a4ad66a86332b3d27022cfccadd3567e6709d2de5b23b23dba43f000000000000000000000000000000000c1fbace49684f4be32ef6178ac3a95ea3f50b11494340fb73dc5391d50bcacafb3bf0f2631fea9c4ec47327d644489500000000000000000000000000000000040f82812855aa3e3aaba826d5810c1049cf44e86e44e23cc6da437971b529d2f2676c73e1fb9da52640c981fbd710bebba67cc47e38a129ab1140fbcf0386ddba2feefc919aacdce6059a27a1e2efca00000000000000000000000000000000060d7a718dd02b147c265f71eb136d1f31781b12a41866b4f86d7374b93dd10058c192cc0fba928373b1526e1a5d7d7f000000000000000000000000000000000cf29275373c0573ef22bf87919faf5444847203c7dc6d2e18986152cc294be04a5b1a4b0536797158113a15276c4fc6000000000000000000000000000000001016d5b9d4d200d7b4b7cc3836b85d6697fe14db350badba9978c7b56983dd1a7e572640ee0372b0a4e2079ff4c1abf2000000000000000000000000000000000f2768d104d895473ddf8c6b3cd0e7c22458d0037eca6365c766879a07c95037ee0de00d32c974d767080935abbe0be1705fb566367d9fc142c4194b0525c16672b843aac1160f9056ebb115e80d377a0000000000000000000000000000000017b9ca4349fecaa43ce911c0b256680edb8a0906ef5460fc4d2004579336df1e19560fe960a7a7cd74bb6e8272e08960000000000000000000000000000000000d5b96dae738db59cc67a51c61bec6deaeefaaa51e3259243fa4b142ef59676231229ae386ce699fbe18c4c00bf9d49400000000000000000000000000000000111b79f4b68dad16550a13334d09dc38336a75a5da23a17b5064e2d591aa3dab4c2e982a9f730a7633070504663a24610000000000000000000000000000000018f6d3616a7eaf17c805a88c9710039644d01b61aefebf76717ddcda6f4bb34aa15702de1e92bdb27b27f3409638da90f7bfd990cc4dac62a0d730f56b4eb1c1ad77ca9cd58b089c23c2f6efa00b7fa4000000000000000000000000000000000aeb5c087644595d0912879f61959d2731ff55260c682ed2bc5fc55c13964ef7c1f70aeb55876d2264d558c31371ca69000000000000000000000000000000000e173848f4570525b03a2b2c86f4dcdb8b28dd6d18c1354cad31028eb1b8b44432c2346edaace093e3954c7fa6d338a4000000000000000000000000000000001949b0902506d111ef6318edcd7a58ca4d69f5804a028aee73c3786cb2db168c6a73b77194f7a021ae6ae43ac78ade340000000000000000000000000000000017c5e28ba6103d97e2f3d3611c0c78f06406e0da8a49ae29c7d460b52f75136920784cd500aa3593858b877697eb8424807c5a41ae2baa1e10ebee15363d1d4569f731d77a418998108f5dfae0e905561ca09f8ba68a5f3e580315adbdedaf6a900d1f628d63115eed227ca7099e58cf3167a05293e5041666074646ce08d6c0110655bc2ca90a01b81027370442643dd4fd3a"
                }
            ]
        },
        "pre" : {
            "0x095e7baea6a6c7c4c2dfeb977efac326af552d87" : {
                "balance" : "0x00",
                "code" : "0x60806040526004361061001e5760003560e01c806312bd429914610023575b600080fd5b6100fc6004803603604081101561003957600080fd5b81019080803573ffffffffffffffffffffffffffffffffffffffff1690602001909291908035906020019064010000000081111561007657600080fd5b82018360208201111561008857600080fd5b803590602001918460018302840111640100000000831117156100aa57600080fd5b91908080601f016020809104026020016040519081016040528093929190818152602001838380828437600081840152601f19601f820116905080830192505050505050509192919290505050610182565b604051808315151515815260200180602001828103825283818151815260200191508051906020019080838360005b8381101561014657808201518184015260208101905061012b565b50505050905090810190601f1680156101735780820380516001836020036101000a031916815260200191505b50935050505060405180910390f35b600060608373ffffffffffffffffffffffffffffffffffffffff16836040518082805190602001908083835b602083106101d157805182526020820191506020810190506020830392506101ae565b6001836020036101000a038019825116818451168082178552505050505050905001915050600060405180830381855afa9150503d8060008114610231576040519150601f19603f3d011682016040523d82523d6000602084013e610236565b606091505b508092508193505050600060405180807f6572726f72000000000000000000000000000000000000000000000000000000815250600501905060405180910390209050821561028a57818051906020012090505b8060025582829250925050925092905056fea2646970667358221220db58d80e8530eed625d9b4250a6055c2eb1d7c117a7ca267e6f8a059bdd2f39e64736f6c634300060a0033",
                "nonce" : "0x01",
                "storage" : {
                }
            },
            "0xa94f5374fce5edbc8e2a8697c15331677e6ebf0b" : {
                "balance" : "0x0de0b6b3a7640000",
                "code" : "0x",
                "nonce" : "0x00",
                "storage" : {
                }
            }
        },
        "transaction" : {
            "data" : [
                "0x12bd42990000000000000000000000000000000000000000000000000000000000000010000000000000000000000000000000000000000000000000000000000000004000000000000000000000000000000000000000000000000000000000000012000000000000000000000000000000000017b32e613cb38b41dcdf3c8bb9187d731546977fbffd79fa7f66e3d6aaf9e1af6eca2fcdc260c8f90818d7148ba2f4960000000000000000000000000000000007e4d26606a47c874c20e8480a9f5815e5b577bccd783b775d10309eeb3d2102c7a0abc3324679e44362f09e7a4ada67000000000000000000000000000000000cb6f12ac8b49cfa36b957591293c87b21af0a949c55a28a90ab0fce88fb5cb7645e20ab2edd284f0ad1377dd95ac10e0000000000000000000000000000000014c96b5dcbd3150eeaea5c2bc27750cf88b30a91933a3233a4d1d9b357a80cc20d135e43a344e718dff5c79045c31f86d5c1c9fa11c36b86430cbb1f3ec10ebbe3787d0f5641d6d7fb96c810eda202dd0000000000000000000000000000000001ca1141ba9542c56de8991b313c6ae42fcecb6751b0b81b8cb21ed70d5008f7ffe831766b89880a7fa6dfdb09a2cda3000000000000000000000000000000000e6766b17db165bba564ac63ab88d3f8f5eded07a40b48644e60d3223d30458e7dabe404cab8d6f9fe135712ef0b1a43000000000000000000000000000000000dda3e6c87382fa762510e5cac721fd2b654f002f5b9a3767a8c6d651ccc582e80e3f68d6913cda30f9f51ebcfc7c98600000000000000000000000000000000059a7dac5bb6b504f2bd603d486700fe22c14f25254537b2c9079c2b45d36c7ce56854c5699cc7649b533194f51a9045c00eb20fe7c292f3ad820a074d8b3d8d24506612752d8677c2d6ca24f556cc4500000000000000000000000000000000090f4b85961ce97cf7f99c342d3627105d790f611e19721a43d8a0febd67ae393d77a02b999108efb56f0397dac22703000000000000000000000000000000001112f23595d1613c47486eadc37f9b1ac3b3c3973b3fe964d3b67c3996fe2eacd9df5c287b0cea8e9475d146fabcf9e70000000000000000000000000000000018f46f7ba3c9af34c1025c2d460f0be966e68944928dbd55cc7fe00e5def598d80b0e3801e48a74963c974ab4727a52100000000000000000000000000000000096845338d5cd2ac44e097607d6a1a05c241eda1941991ae9edbba965d9029032c46da7218b5b2338e6c58898bc4a820f661d7b30fb11bef70e15b257d7073885468a380862202b2d705a84827644b5b000000000000000000000000000000000aafe45ea7cb8b450a51263eebc28c1ded662972bee512e24fddaf64f43b74b66032523b3b104a4e9f6b62394436c6710000000000000000000000000000000015cb27e1fedfba2d1679f78a388f90b22bbf3e7d090f0ba972fa8e72f6e31c446f628fff929953712ef6e425d16eba5c000000000000000000000000000000000df9931893cae713042bf722db6ce394b6f346587278a154c271d8511e690417eb6dc47efbcebb7c2fb9e77f1de9fde800000000000000000000000000000000106ffa395ef170c99bb5742428ae88fa4fd7a94476985c099e3b700b7403d083281fb71a19640c6bc2321e27bcb33fe2346ce87c847376c8967cc18297e6007dcfacb6424e1d273930f38bb0e88fc5ca0000000000000000000000000000000010b1f8b1c492a56936da905b8738affba6bd29ae5fffd40ba6b31325181d3b489a81b23dcb69f6e71bd29bfb388e5a8f00000000000000000000000000000000116a115303b4774da59844e457844232d088062d920db67b2a8450a194be7e5340ebd4d106454fd9a03c8f50dbb1e119000000000000000000000000000000000eb521edd61b38006cffc43ab72d395d669dec196846fa4d6d43521da6c2fc3bf0994ce7556a3cffec7751b3bc5703ff00000000000000000000000000000000073cea36eccaa1c78deefb6029903c2b6598301bdefa9759719c3b590fcc5a6a4d3d4d19f552b33f4a3126a6e6a8448639a142c443a666499a880aa1cb9f523411bbc8e5554de099ab485b6c2c2e57cc000000000000000000000000000000000e3925fa085db73c1e67b29ae90f8773f83be5ec684402e8e2360ffee8a8368911e584843e42b0d470de78591df6ea6300000000000000000000000000000000075c7efdeeb16609b4a47ea442af4d75238fb7534fd96cb236a7886809d6adc2b62c8ff72bdb041bc51c1a71b68219e300000000000000000000000000000000088b4eb0dd185e51b737d797334590e982b7b0a5f109fc7d0524b2465c2c0457964eba5a6d2d4d99fb628f21f15a776c000000000000000000000000000000000fc79f6b38f3356972669290eeadcd992a22bc1191606b663a1e148aa58db3938f0fc65e536bc5811c50d9c7f03d3e372c01b7795c2d16b5bbbb1e107be36cc91b25130888956b0cdd344de9b4659447000000000000000000000000000000000b87c47605fc060a8e3677e84ce9d14b9309360a13c80d040c625fbf0108f829300cc1fca409a0f9c96311cd4a9a21e60000000000000000000000000000000014c4088f1e7935cf6a1d2475b84497ce6a250ee2c0c991fe51a2f2836388a354824b02d9cf215328dfce3f546713e21100000000000000000000000000000000120e59be3ecf35674eac6cdc559599b273f13f28a529770fa156f8e519734c451eefb35023639f32049cd19ea0d945a3000000000000000000000000000000000f97755b62a8cb8f861ea02c77819f0b58181aecf612d92180ba9b475f0b4888b922c57f6a1c619dd5514620a1cfd9e2c712943d8795a6104f024b9701c70b09cdee9494755bbab0576e2c7f7c9d48280000000000000000000000000000000005860cfb6be6720118623d2d8ba05e686df22744b948421dd3cc1b1691e00d9b5d00d00195b4acf7a7b043f764f3f1c70000000000000000000000000000000012632a3313dd611e8d969bddd556c2d79ff387603462ac78ded3a842981697bdac34ee6f1f4744ed2ff16100874ac24000000000000000000000000000000000112b94c317586e343acadeca611c485c3ea172bc10dd39158c1e678007130062a921b53826d7be6286963ff822f1066c00000000000000000000000000000000040de8c0dadd2a6c2a7ea0fa43e1a5f2f5a6be3fcb0de6875d8cef1ee2daad87125d12f6869c4dd3d931b296f1df2fb3d4d77f6246c57d398c57848db8d3f986c475a41a23d424cd3cc2b362c1b99f2a0000000000000000000000000000000006fcd2c4fe848e9462ba1112baad39031c210952adbdd06293a622ffe2d1c6e4fcc8773ec8913717018b97bcb9a554fd00000000000000000000000000000000130a97442f3273b7b35464545e7351faf71ead9b8996c63889a45945ed82bba29bff5014776c6185219a5234d8475c92000000000000000000000000000000000491d571bac5487b866022a0714be11b38bfb296233845cc434a50be1d35f516b8c6b046fe3d0a8f4f95ac20eddea01b0000000000000000000000000000000017e34b04e6fdf152c848f2432b7bd84b3dba3915f06eb77efb8035750aca9d89e92e1d1bc4871105c440d639e8d8b05541776ed9d1029918af4c5113a6110139b8bd7f938caa204373a28ddaa51430eb000000000000000000000000000000000f1b8df4e8fdfe32eaf227f5af9f2befc85073468f10b81d32d0e126fe2b0cc8e8adb8afcac73213b6ed95e8e843b97c00000000000000000000000000000000004e3fb435ae0fb2d8bd091f250aefe5922b353a64e16abd75627737f3bc56639f8b40652cae69c73ff1969925b0afdf000000000000000000000000000000001003aed7cfb00efce49d6b1a8eba27df87479a4d37bd7fda6121549483b669a1a761204b0dd28262bf27e5c8e180540f00000000000000000000000000000000114fbca7caf782b3296d0b26b4c362bf50acaecb8bc5726b2c99f904ec3d092d5d40991d0d30c8e79fddaa45f04a75d3fa64411438542922a7bac10806efaa633d31d37c0b223314a8b6221155b9c4250000000000000000000000000000000017faf481fd4cb0c373d21d7caad40e93d9a86e62d26136892fbcc6f6e48205543aff00c45e82fdd1d3e0e733de91e7000000000000000000000000000000000012e14fcb9ad4d9d15347cf004745ed4bd92097eeeb41c4cbcb728a234616363589d8f5ad4cbb61d31a8aa27627723c7e000000000000000000000000000000001513dad1ff27e053902e779e35d04cab648939317830144ea775c435a4b55e13fa2fef03a1256abf5c187487c25a774f00000000000000000000000000000000139da29de8587c7d0ca9237c37a116387385e9cea453b9e2003a37ede7aa0a3f4c1df55255897f5975b662be33622dbce7002f41c6acab677a0ad023bad2a61b11c1b7221d944018b5ce60bb61e87e96000000000000000000000000000000000c118b147ee3489f30c6ecc0256a314ab674110588e8b69ca6d265fc270c3e5b767817f861140cca5d7c6be4012d1ffe0000000000000000000000000000000014800790654726959fd876b035bade0da744fb36ee5b304f228663a531345120267c55ac19fd66022752010e5bea7cb30000000000000000000000000000000000193ab7ac2f151750356b6e178557460c9c2672b1736d19a20e3fa28082479ca60021aa68edf2524f1aa826ee70b65a0000000000000000000000000000000015cee9ac55ab45abbc57d0ea6ec9ee49f6c59f6b94f99589dbc08ee877d3a261ad77f5473fedd72ed7206647eeafb6eac26e55f09b787c0542878e4d720027d9ea465f829a4e0164cf618c5d9cde49bc000000000000000000000000000000000ef203fab794a0ef29eb2ebf00076134e5932e27c99d6d445695b9df2afe7563602e318caf5d44724a21790ca0ab0d180000000000000000000000000000000013b9b1b1d3e98b61b0f1a0ef3a1a4ceed57b6c01849a4ad66a86332b3d27022cfccadd3567e6709d2de5b23b23dba43f000000000000000000000000000000000c1fbace49684f4be32ef6178ac3a95ea3f50b11494340fb73dc5391d50bcacafb3bf0f2631fea9c4ec47327d644489500000000000000000000000000000000040f82812855aa3e3aaba826d5810c1049cf44e86e44e23cc6da437971b529d2f2676c73e1fb9da52640c981fbd710bebba67cc47e38a129ab1140fbcf0386ddba2feefc919aacdce6059a27a1e2efca00000000000000000000000000000000060d7a718dd02b147c265f71eb136d1f31781b12a41866b4f86d7374b93dd10058c192cc0fba928373b1526e1a5d7d7f000000000000000000000000000000000cf29275373c0573ef22bf87919faf5444847203c7dc6d2e18986152cc294be04a5b1a4b0536797158113a15276c4fc6000000000000000000000000000000001016d5b9d4d200d7b4b7cc3836b85d6697fe14db350badba9978c7b56983dd1a7e572640ee0372b0a4e2079ff4c1abf2000000000000000000000000000000000f2768d104d895473ddf8c6b3cd0e7c22458d0037eca6365c766879a07c95037ee0de00d32c974d767080935abbe0be1705fb566367d9fc142c4194b0525c16672b843aac1160f9056ebb115e80d377a0000000000000000000000000000000017b9ca4349fecaa43ce911c0b256680edb8a0906ef5460fc4d2004579336df1e19560fe960a7a7cd74bb6e8272e08960000000000000000000000000000000000d5b96dae738db59cc67a51c61bec6deaeefaaa51e3259243fa4b142ef59676231229ae386ce699fbe18c4c00bf9d49400000000000000000000000000000000111b79f4b68dad16550a13334d09dc38336a75a5da23a17b5064e2d591aa3dab4c2e982a9f730a7633070504663a24610000000000000000000000000000000018f6d3616a7eaf17c805a88c9710039644d01b61aefebf76717ddcda6f4bb34aa15702de1e92bdb27b27f3409638da90f7bfd990cc4dac62a0d730f56b4eb1c1ad77ca9cd58b089c23c2f6efa00b7fa4000000000000000000000000000000000aeb5c087644595d0912879f61959d2731ff55260c682ed2bc5fc55c13964ef7c1f70aeb55876d2264d558c31371ca69000000000000000000000000000000000e173848f4570525b03a2b2c86f4dcdb8b28dd6d18c1354cad31028eb1b8b44432c2346edaace093e3954c7fa6d338a4000000000000000000000000000000001949b0902506d111ef6318edcd7a58ca4d69f5804a028aee73c3786cb2db168c6a73b77194f7a021ae6ae43ac78ade340000000000000000000000000000000017c5e28ba6103d97e2f3d3611c0c78f06406e0da8a49ae29c7d460b52f75136920784cd500aa3593858b877697eb8424807c5a41ae2baa1e10ebee15363d1d4569f731d77a418998108f5dfae0e90556"
            ],
            "gasLimit" : [
                "0x6acfc0"
            ],
            "gasPrice" : "0x0a",
            "nonce" : "0x00",
            "secretKey" : "0x45a915e4d060149eb4365960e6a7a45f334393093061116b197e3240065ff2d8",
            "sender" : "0xa94f5374fce5edbc8e2a8697c15331677e6ebf0b",
            "to" : "0x095e7baea6a6c7c4c2dfeb977efac326af552d87",
            "value" : [
                "0x03e8"
            ]
        }
    }
}