{
    "g2_multiexp_32" : {
        "_info" : {
            "comment" : "A test for g2_multiexp_32",
            "filling-rpc-server" : "evm version 1.14.0-unstable-a208e725-20240416",
            "filling-tool-version" : "retesteth-0.3.2-cancun+commit.353b2b37.Linux.g++",
            "generatedTestHash" : "3806734e46be74e96f8148ac232ba3db3208c4231b3241d276d0966b98726439",
            "lllcversion" : "Version: 0.5.14-develop.2023.7.11+commit.c58ab2c6.mod.Linux.g++",
            "solidity" : "Version: 0.8.21+commit.d9974bed.Linux.g++",
            "source" : "src/EIPTestsFiller/StateTests/stEIP2537/g2_multiexp_32Filler.json",
            "sourceHash" : "ddb261dc46539282de7f1203813af146f692644b820022a173f2b075972400fa"
        },
        "env" : {
            "currentBaseFee" : "0x0a",
            "currentCoinbase" : "0x2adc25665018aa1fe0e6bc666dac8fc2697ff9ba",
            "currentDifficulty" : "0x020000",
            "currentExcessBlobGas" : "0x00",
            "currentGasLimit" : "0xff112233445566",
            "currentNumber" : "0x01",
            "currentRandom" : "0x0000000000000000000000000000000000000000000000000000000000020000",
            "currentTimestamp" : "0x03e8"
        },
        "post" : {
            "Prague" : [
                {
                    "hash" : "0x252817286990c5e267797ad64dfb799c291a33f950acf69ce444c9032ef9d51e",
                    "indexes" : {
                        "data" : 0,
                        "gas" : 0,
                        "value" : 0
                    },
                    "logs" : "0x1dcc4de8dec75d7aab85b567b6ccd41ad312451b948a7413f0a142fd40d49347",
                    "txbytes" : "0xf912c8800a836acfc094095e7baea6a6c7c4c2dfeb977efac326af552d878203e8b9126412bd42990000000000000000000000000000000000000000000000000000000000000010000000000000000000000000000000000000000000000000000000000000004000000000000000000000000000000000000000000000000000000000000012000000000000000000000000000000000003e06e2dcfbd695e9bda0baee1276ceab637fd1fbe2d2d6458c923c35b00edc7edf4f9e797aea59ff8cfceada0615a02000000000000000000000000000000000a04a2ed5e42fac7f064b43d64151a6c517ecf22dbc7563a3e9f35f555a9992fe45cf6a728ba94607df7c96f7e0a334b00000000000000000000000000000000090fac97f9f524168bc930d26ea1627ceaf187398d6bfc5a019c8467d75cd31a41c7eb9fda35fc85bd92b4cfca92dbff000000000000000000000000000000000f37b91dc935c28668c27d38328a511148c1739b65f2816dc53e42a8f059c9b2be7417a6f97c9a2597b1a0f06b7afc65bcfdf0495e49dbb8a8f9a0dc517351f39a6d823dcd42715f329dc78400bd74fc00000000000000000000000000000000090b834a587521729426d5b134c6058bf7999f4d4bcc0812e8d8b3ebb050961321b5e93356e87171a6f12160749394ee000000000000000000000000000000000cd5148c7eeac4aaea4288b38a02b5a901a6e2805e2b1695ed98ed86cfa0d259d87b65bf3cc9d00b8548100a60a371d200000000000000000000000000000000026db1079b85411dea0b9fca383956af50b938a465f35347605c01f3b72b297630ee2fb5252da20ee0d8ba5071974ed70000000000000000000000000000000012ae26c193e02d7ae4a7a01181551085dec9fbcac811c45d5cef19abf736ca2514e1259811970af5913891abe22a75ecf095238bcee61ec1317c0f98ad4f8f9b39c5940cf37a8a3a676787d9dda99438000000000000000000000000000000000ed5d8a609aa4f3c65a89b8dbc9334bd3cec6c7763bff298acd6c260e4d3bec0088e15c5d82618571d13b74a2031eff1000000000000000000000000000000000c28f92f018e6f822912b6eccfab37432ab0ab9acab751f848401791bd2f16e32ac6d97948bd8a0bed2ddc1917f0db3b0000000000000000000000000000000014083be2539d914883172cdc70950512dfe7be8893b1ecf085d837c2e9ba7f03656c5a0e15373e04d300869620eb66d00000000000000000000000000000000002561b77cc2658c54d29f8d1988dd7448f59c80c02ee9256404d8ef5536ee50104cbc11b6ee1ab9ccbf0ca55e53c52aae45a6d64cac817cd479a501c77b6720c6777c6026dbee471b490fee9f242a6700000000000000000000000000000000000fff05aea33a9d1e8f7b227c80ae87c9e7589ba2804904b7d8386b24b0e5324e718f29531251969a972870a30c310630000000000000000000000000000000016ecb8f27a369df13e122c981e7ae37882b36d5492fccbc86d606aa1198f3e4ee7bb7ad0555e11949e6c1783d8f4cda100000000000000000000000000000000187f425b675cb12719a01ee3b78ea73d88f70805f72d6cabef6372ccb9d99008bdd7da54f155454c4c59f041deec86f800000000000000000000000000000000151c272d5cb67b3f801e103ee901deb4b3d3bef76ee4e1b2ce1b5e663ed292845ba012c732d38f9209f82e77f1f73cf354868215022673de608cb43a3cb74ef2073ffff34c54fbb43f19b22a02bcc2ad000000000000000000000000000000001791bd59815309f2aeb7b07df8afd89a288eb6f19c7e613f394353ac5398267e1388c97b17d83104446e57f94581a79c00000000000000000000000000000000154cc72ada5a9c99dea06ebec143a14271cf332b57c631725ab30e2d308d6b688ca08a79efb6fce632cb1216ac3d077e0000000000000000000000000000000012b4c6fe8c17274ef57539563a736c2f83c4cb473e9d075a976e18e193255057340f45de373c7d6e3fe5e08ad0dd97d20000000000000000000000000000000005aef16e11bd4e7787bd5ab4427276ecdf9c6c134b9fdb2ec39e87ae4a5b3b674b5ceee29bcdf804ebd7e83960d8d7ef7068c3ba82e52fce0223a9f28c1d42681c7863c94797d1786c1adbc3e6d10dbb0000000000000000000000000000000008e57f905fa202c7640500746b590791cf9d0f160a77e5eaa5a30280e513e8e801c4b6b04cc3f80d9403388571d180ba000000000000000000000000000000000da3c128ae234bc27824062832ac10aa9cd4978f37855a8b4cde3822f5b485fddb9a475a9805e795519d7f138a8199cf0000000000000000000000000000000000ec11b7e07710161fc557a56e04337f71aaa1a0f070cd84525965e53a1fe445c91ac07c618ec349997890ae893c165d000000000000000000000000000000000406b0eafbb8782d11f5dae2f6214282252af9ae9ebc5c17a81d4ddded40f05d0b534d14019bcb6cf4e49c4c182b90f00042b8005283c7b91ef4b3ff7e20a91349c8c3d1301c9b54b901e8348a7d186e000000000000000000000000000000000b1d456e66671dfa72ef3a56523eb939146226111fdbbeb697983928aebd5f50b0518db841a3d48912a7a780785c1f180000000000000000000000000000000007a15b2253496b78d270dd55b80bff90583a95283a89d40f6df71fadce56d103f0d365fe79256fa4f93b2d2bf4c06a2e0000000000000000000000000000000010829223166d38fd2c3041dd5643c9784da366a2ea8cbb3abdffb5fe43e975318c86de0ac9ec77c0126ee75bd209f7300000000000000000000000000000000004b124018e83e1e5e77bad42eb831798d450f8ff4a79c9b14f67f080047c491fbba45db79b2cf6015188f9fa6329e8be0a3eb64ce8fe140d94956b0685f91a5462dba1a90093e803dc617559a66d20da0000000000000000000000000000000011119be42b90c7857079a51695dd5be08e59374b0d1c7e12d0ffe870202e1f0c62bff84c9691679a82e610e788b7b5e1000000000000000000000000000000000c7a64524c5dd1bf10d16da7f15b39d05c9ee1620d4dcae79c60316a1f522b238e7934d1be897a441d0c8e621b67d44c0000000000000000000000000000000013045613a090d05d07310865d977c8e0bb1caa713b2249d6676e7cfd6f4e3ba8e667deabf9fdf7fd527685f7d251b178000000000000000000000000000000000dfee7f8259701b5726b6439a7ce77b92245499906502c7dfb384e29cafea61f3b1f21fcd7888231569ebf29d3035a61ec88ed0eac8d0f2f618530e91cdb9ea36b8d56c1001a6792a09e11ff65fc02aa0000000000000000000000000000000006d77669207bb2d064824cb56fc786c631936d30db630be3c08e18d7e95b1c26e2d4e7b2eddc2f946fba6e99acb2198a00000000000000000000000000000000168bd8f291f8bcdf8b5e9fa915f7f24856a62803bbbeb9bc38384149008d4e3129338035061631f1fbaceeccfaeef4a700000000000000000000000000000000146bf2dedc262557dec2b4545c94a37434e20e4900b1693e8fa9bda9a94dbd07e0a3bee5f3bedfa42148791f4951db7500000000000000000000000000000000138467700fd5088c76af2f77fea4b746f98701fc0578571997b0ac2fc343354ddc8b2dc57d5298dd4daf767573d8bd3d5f03e53ff983fe4886a3dfc03a353fb77927d7a0d1998a1c55ca7421a4bdac6f000000000000000000000000000000001536da0df7c91687339fc93608eb404c5f46adf4b9122b99b1e5cee0012e27ddf30934d8f669bd39091f8673aa3b3c490000000000000000000000000000000002deaa8f9349e7c551e39751b1454a00f8f7896d63110e8e42607e8023ae3070c4abc9885ed54ee37a82f6e5c68451e900000000000000000000000000000000079a62eb17f7b07d4117956d3dab5d16a7f90e98948d5c3caa124fcf755c73f060a90d002cf880f5246a87342717b4dd0000000000000000000000000000000001246f0f3ec2af7c0250ae14cc67b5a1d42309f06c6f47b89178ff7534c47e8413a26a43f27454c0f946c66634563d41cc1b04dc356bd348211ccc4c50d12cb382660a4f9526539c2a0c52b021ed216500000000000000000000000000000000046e4a08785de985c66c7417f9262d363b9acee07e250999a4a7124f101ec4d82e3e4b2b0d9736471329fd61d0cff13b0000000000000000000000000000000017bf1e20ac181780ced62a18c78b378fc0dad157cf30d6026680560b681f5755183bd30b4e454764c08edb93297590b5000000000000000000000000000000000a57cbe93254bb0796eafc0a57330e38bfca37f8b94c4d21ba656e5616239e1e18ba6d632c0129d30291736fe37a4ac90000000000000000000000000000000007f31df7dbe9abe15f4024d8f6bed93c92ff5bfbd7835e08e870eb1bc4a6f62b3809b922c6d5a7350e2e5a978c80a67397b584ee05c27d45390aba36772ed49d571837567e95f1fd3ba3fc1ba5916727000000000000000000000000000000001577abdf6e915c9c3b3fa50a4601709cd629397f2f91784528e4cdbb140065fc2a6ee3830983dcfd49a928e78cf530aa000000000000000000000000000000000d6f98df9e41009837cbb05bc3e3340d38e56a448fe396bd48acf03f061e7489d1402b36a84b3c56eb859437e9c406f1000000000000000000000000000000001912afae5361c3d8c6141755deeef26d1fadf6b0036b9d05b2e0c4d50f42328741f0423ac772fc66dbc922bd4a837ac40000000000000000000000000000000000616661f049b5c784ba05334b2931509e1e033bd203fe17f04cfe12e80e73eb7075beac9d379fc1c457bea1b6adf365752542cd551cafc5d50852526ba0a23d274317e1e4a6e75c0d19319e5853b8b6000000000000000000000000000000000f98fed7e4d67a513c746d2fb188597a605165d5d299072aad6d621e077845f93804d575a5796bfa726f529dbd90e014000000000000000000000000000000000adb2d0b6c02e4e8fcab11c7c8819e87f73aab673ff9dbc5c50fee751bc7a6a8d386c8f9fa830b5545f94a73ce6e1f1f000000000000000000000000000000000f08e05ac40655cf59ee3ea9f10fc900315c6f06ffd3b80853560559f580ecdd65aba5ba660c729e0bb9576eee3703710000000000000000000000000000000009da46469f4b8fcd8d2b016e96f6e6582fb01c75407c36c7f87b4a1cd8f08ad06e962a0ec2138ed6fabaa1cb0115f97e2f76a0fa585828f79553fbf3baac6a2776b782de66dedd6b734f9342e734ee3000000000000000000000000000000000047b45ad2ad4f7b5b72194f98b98b2150b5d73a9df2aeb2377beed9a1275a882fa2d849037ddb56af632489f892a48a7000000000000000000000000000000000e1b0d9b52c0c5324067857ba4701f5f20eec165be418871fc0f0adbc3a0bbdce5a33277a33b79013109b81e006c621400000000000000000000000000000000179c471e01e340d8e6fc0f737ec09f0180bd2dd2a86d0817f753d1e9a9f8cb18178e9de68c596dc6a824e6c3c151d8b80000000000000000000000000000000019405c1e571a9b200ff2949aa74647dae59d92a8669d4876ba23f1b4a12a1f9412412503c68acbd619cae3ff056bd346f638e6a70917c89811851109296a7225f9c7c5b3d7fe6d6ba6c7d1ee77db4458000000000000000000000000000000000ca8566b9bd088c471fd33fb7b1bf760ee12cc8b0cfa9ad92b45012cafef5c0772d9bd3bd9b266d6c3e3890c8f00057300000000000000000000000000000000055789839e786ecee7fb7d10f3876359fcc1bd6f2c5cf25c8337aff7fdeec9b43ffbe932cc4936bb708571a59e4339990000000000000000000000000000000013cf827bd57d8179d105f34c147665a072714ccbc114aa4e878d04ce66ca78bdabdc4867b3968c75dead147257197c6a0000000000000000000000000000000014a8dc5ac1858442ca627eaa194e1ba64091b5f9ace551338d770c92fb49ee12449dc200c8c35d70f9e0652b4d9b90da1c4ac944341dc68fee586d221db2a8167e833f18f012afa7c3844def6dfb26bc000000000000000000000000000000001124ea2b97a6d73c81387a51e814b9bdc951a773db2a32d50691be60f1d397cd4aadd9b06e4f49c32b12254e9f824fe80000000000000000000000000000000014cb365e9780feeeff3548f34a56548302ae0dc73402c40317fc819969ee9c4ea2a181381b94f82dd97a236671b456a000000000000000000000000000000000064b769c4b785d45472038aeeebd3ba9b28b3132d72023640ab2d7512cc6e31296c5330be5653ad6902e4e15e57e2c3e0000000000000000000000000000000014c7bfb1f142d69c17f73e23011aee0063a97a99d982d25ff72791a65c7a68941a80fc216cea8a49f3df2d0748b1f95db0eedaee9347b10ab7b346fbc16c10cc9db486f561f88b756c269ebbba23a7f41ba0b7863c2c73447d0e567ba079f44786e0651af44096caa6fef060f0a121a53ccda06d8b53a1912208c423fd37681adea7d8eadc71594f24194905ebcb15cef0e6f2"
                }
            ]
        },
        "pre" : {
            "0x095e7baea6a6c7c4c2dfeb977efac326af552d87" : {
                "balance" : "0x00",
                "code" : "0x60806040526004361061001e5760003560e01c806312bd429914610023575b600080fd5b6100fc6004803603604081101561003957600080fd5b81019080803573ffffffffffffffffffffffffffffffffffffffff1690602001909291908035906020019064010000000081111561007657600080fd5b82018360208201111561008857600080fd5b803590602001918460018302840111640100000000831117156100aa57600080fd5b91908080601f016020809104026020016040519081016040528093929190818152602001838380828437600081840152601f19601f820116905080830192505050505050509192919290505050610182565b604051808315151515815260200180602001828103825283818151815260200191508051906020019080838360005b8381101561014657808201518184015260208101905061012b565b50505050905090810190601f1680156101735780820380516001836020036101000a031916815260200191505b50935050505060405180910390f35b600060608373ffffffffffffffffffffffffffffffffffffffff16836040518082805190602001908083835b602083106101d157805182526020820191506020810190506020830392506101ae565b6001836020036101000a038019825116818451168082178552505050505050905001915050600060405180830381855afa9150503d8060008114610231576040519150601f19603f3d011682016040523d82523d6000602084013e610236565b606091505b508092508193505050600060405180807f6572726f72000000000000000000000000000000000000000000000000000000815250600501905060405180910390209050821561028a57818051906020012090505b8060025582829250925050925092905056fea2646970667358221220db58d80e8530eed625d9b4250a6055c2eb1d7c117a7ca267e6f8a059bdd2f39e64736f6c634300060a0033",
                "nonce" : "0x01",
                "storage" : {
                }
            },
            "0xa94f5374fce5edbc8e2a8697c15331677e6ebf0b" : {
                "balance" : "0x0de0b6b3a7640000",
                "code" : "0x",
                "nonce" : "0x00",
                "storage" : {
                }
            }
        },
        "transaction" : {
            "data" : [
                "0x12bd42990000000000000000000000000000000000000000000000000000000000000010000000000000000000000000000000000000000000000000000000000000004000000000000000000000000000000000000000000000000000000000000012000000000000000000000000000000000003e06e2dcfbd695e9bda0baee1276ceab637fd1fbe2d2d6458c923c35b00edc7edf4f9e797aea59ff8cfceada0615a02000000000000000000000000000000000a04a2ed5e42fac7f064b43d64151a6c517ecf22dbc7563a3e9f35f555a9992fe45cf6a728ba94607df7c96f7e0a334b00000000000000000000000000000000090fac97f9f524168bc930d26ea1627ceaf187398d6bfc5a019c8467d75cd31a41c7eb9fda35fc85bd92b4cfca92dbff000000000000000000000000000000000f37b91dc935c28668c27d38328a511148c1739b65f2816dc53e42a8f059c9b2be7417a6f97c9a2597b1a0f06b7afc65bcfdf0495e49dbb8a8f9a0dc517351f39a6d823dcd42715f329dc78400bd74fc00000000000000000000000000000000090b834a587521729426d5b134c6058bf7999f4d4bcc0812e8d8b3ebb050961321b5e93356e87171a6f12160749394ee000000000000000000000000000000000cd5148c7eeac4aaea4288b38a02b5a901a6e2805e2b1695ed98ed86cfa0d259d87b65bf3cc9d00b8548100a60a371d200000000000000000000000000000000026db1079b85411dea0b9fca383956af50b938a465f35347605c01f3b72b297630ee2fb5252da20ee0d8ba5071974ed70000000000000000000000000000000012ae26c193e02d7ae4a7a01181551085dec9fbcac811c45d5cef19abf736ca2514e1259811970af5913891abe22a75ecf095238bcee61ec1317c0f98ad4f8f9b39c5940cf37a8a3a676787d9dda99438000000000000000000000000000000000ed5d8a609aa4f3c65a89b8dbc9334bd3cec6c7763bff298acd6c260e4d3bec0088e15c5d82618571d13b74a2031eff1000000000000000000000000000000000c28f92f018e6f822912b6eccfab37432ab0ab9acab751f848401791bd2f16e32ac6d97948bd8a0bed2ddc1917f0db3b0000000000000000000000000000000014083be2539d914883172cdc70950512dfe7be8893b1ecf085d837c2e9ba7f03656c5a0e15373e04d300869620eb66d00000000000000000000000000000000002561b77cc2658c54d29f8d1988dd7448f59c80c02ee9256404d8ef5536ee50104cbc11b6ee1ab9ccbf0ca55e53c52aae45a6d64cac817cd479a501c77b6720c6777c6026dbee471b490fee9f242a6700000000000000000000000000000000000fff05aea33a9d1e8f7b227c80ae87c9e7589ba2804904b7d8386b24b0e5324e718f29531251969a972870a30c310630000000000000000000000000000000016ecb8f27a369df13e122c981e7ae37882b36d5492fccbc86d606aa1198f3e4ee7bb7ad0555e11949e6c1783d8f4cda100000000000000000000000000000000187f425b675cb12719a01ee3b78ea73d88f70805f72d6cabef6372ccb9d99008bdd7da54f155454c4c59f041deec86f800000000000000000000000000000000151c272d5cb67b3f801e103ee901deb4b3d3bef76ee4e1b2ce1b5e663ed292845ba012c732d38f9209f82e77f1f73cf354868215022673de608cb43a3cb74ef2073ffff34c54fbb43f19b22a02bcc2ad000000000000000000000000000000001791bd59815309f2aeb7b07df8afd89a288eb6f19c7e613f394353ac5398267e1388c97b17d83104446e57f94581a79c00000000000000000000000000000000154cc72ada5a9c99dea06ebec143a14271cf332b57c631725ab30e2d308d6b688ca08a79efb6fce632cb1216ac3d077e0000000000000000000000000000000012b4c6fe8c17274ef57539563a736c2f83c4cb473e9d075a976e18e193255057340f45de373c7d6e3fe5e08ad0dd97d20000000000000000000000000000000005aef16e11bd4e7787bd5ab4427276ecdf9c6c134b9fdb2ec39e87ae4a5b3b674b5ceee29bcdf804ebd7e83960d8d7ef7068c3ba82e52fce0223a9f28c1d42681c7863c94797d1786c1adbc3e6d10dbb0000000000000000000000000000000008e57f905fa202c7640500746b590791cf9d0f160a77e5eaa5a30280e513e8e801c4b6b04cc3f80d9403388571d180ba000000000000000000000000000000000da3c128ae234bc27824062832ac10aa9cd4978f37855a8b4cde3822f5b485fddb9a475a9805e795519d7f138a8199cf0000000000000000000000000000000000ec11b7e07710161fc557a56e04337f71aaa1a0f070cd84525965e53a1fe445c91ac07c618ec349997890ae893c165d000000000000000000000000000000000406b0eafbb8782d11f5dae2f6214282252af9ae9ebc5c17a81d4ddded40f05d0b534d14019bcb6cf4e49c4c182b90f00042b8005283c7b91ef4b3ff7e20a91349c8c3d1301c9b54b901e8348a7d186e000000000000000000000000000000000b1d456e66671dfa72ef3a56523eb939146226111fdbbeb697983928aebd5f50b0518db841a3d48912a7a780785c1f180000000000000000000000000000000007a15b2253496b78d270dd55b80bff90583a95283a89d40f6df71fadce56d103f0d365fe79256fa4f93b2d2bf4c06a2e0000000000000000000000000000000010829223166d38fd2c3041dd5643c9784da366a2ea8cbb3abdffb5fe43e975318c86de0ac9ec77c0126ee75bd209f7300000000000000000000000000000000004b124018e83e1e5e77bad42eb831798d450f8ff4a79c9b14f67f080047c491fbba45db79b2cf6015188f9fa6329e8be0a3eb64ce8fe140d94956b0685f91a5462dba1a90093e803dc617559a66d20da0000000000000000000000000000000011119be42b90c7857079a51695dd5be08e59374b0d1c7e12d0ffe870202e1f0c62bff84c9691679a82e610e788b7b5e1000000000000000000000000000000000c7a64524c5dd1bf10d16da7f15b39d05c9ee1620d4dcae79c60316a1f522b238e7934d1be897a441d0c8e621b67d44c0000000000000000000000000000000013045613a090d05d07310865d977c8e0bb1caa713b2249d6676e7cfd6f4e3ba8e667deabf9fdf7fd527685f7d251b178000000000000000000000000000000000dfee7f8259701b5726b6439a7ce77b92245499906502c7dfb384e29cafea61f3b1f21fcd7888231569ebf29d3035a61ec88ed0eac8d0f2f618530e91cdb9ea36b8d56c1001a6792a09e11ff65fc02aa0000000000000000000000000000000006d77669207bb2d064824cb56fc786c631936d30db630be3c08e18d7e95b1c26e2d4e7b2eddc2f946fba6e99acb2198a00000000000000000000000000000000168bd8f291f8bcdf8b5e9fa915f7f24856a62803bbbeb9bc38384149008d4e3129338035061631f1fbaceeccfaeef4a700000000000000000000000000000000146bf2dedc262557dec2b4545c94a37434e20e4900b1693e8fa9bda9a94dbd07e0a3bee5f3bedfa42148791f4951db7500000000000000000000000000000000138467700fd5088c76af2f77fea4b746f98701fc0578571997b0ac2fc343354ddc8b2dc57d5298dd4daf767573d8bd3d5f03e53ff983fe4886a3dfc03a353fb77927d7a0d1998a1c55ca7421a4bdac6f000000000000000000000000000000001536da0df7c91687339fc93608eb404c5f46adf4b9122b99b1e5cee0012e27ddf30934d8f669bd39091f8673aa3b3c490000000000000000000000000000000002deaa8f9349e7c551e39751b1454a00f8f7896d63110e8e42607e8023ae3070c4abc9885ed54ee37a82f6e5c68451e900000000000000000000000000000000079a62eb17f7b07d4117956d3dab5d16a7f90e98948d5c3caa124fcf755c73f060a90d002cf880f5246a87342717b4dd0000000000000000000000000000000001246f0f3ec2af7c0250ae14cc67b5a1d42309f06c6f47b89178ff7534c47e8413a26a43f27454c0f946c66634563d41cc1b04dc356bd348211ccc4c50d12cb382660a4f9526539c2a0c52b021ed216500000000000000000000000000000000046e4a08785de985c66c7417f9262d363b9acee07e250999a4a7124f101ec4d82e3e4b2b0d9736471329fd61d0cff13b0000000000000000000000000000000017bf1e20ac181780ced62a18c78b378fc0dad157cf30d6026680560b681f5755183bd30b4e454764c08edb93297590b5000000000000000000000000000000000a57cbe93254bb0796eafc0a57330e38bfca37f8b94c4d21ba656e5616239e1e18ba6d632c0129d30291736fe37a4ac90000000000000000000000000000000007f31df7dbe9abe15f4024d8f6bed93c92ff5bfbd7835e08e870eb1bc4a6f62b3809b922c6d5a7350e2e5a978c80a67397b584ee05c27d45390aba36772ed49d571837567e95f1fd3ba3fc1ba5916727000000000000000000000000000000001577abdf6e915c9c3b3fa50a4601709cd629397f2f91784528e4cdbb140065fc2a6ee3830983dcfd49a928e78cf530aa000000000000000000000000000000000d6f98df9e41009837cbb05bc3e3340d38e56a448fe396bd48acf03f061e7489d1402b36a84b3c56eb859437e9c406f1000000000000000000000000000000001912afae5361c3d8c6141755deeef26d1fadf6b0036b9d05b2e0c4d50f42328741f0423ac772fc66dbc922bd4a837ac40000000000000000000000000000000000616661f049b5c784ba05334b2931509e1e033bd203fe17f04cfe12e80e73eb7075beac9d379fc1c457bea1b6adf365752542cd551cafc5d50852526ba0a23d274317e1e4a6e75c0d19319e5853b8b6000000000000000000000000000000000f98fed7e4d67a513c746d2fb188597a605165d5d299072aad6d621e077845f93804d575a5796bfa726f529dbd90e014000000000000000000000000000000000adb2d0b6c02e4e8fcab11c7c8819e87f73aab673ff9dbc5c50fee751bc7a6a8d386c8f9fa830b5545f94a73ce6e1f1f000000000000000000000000000000000f08e05ac40655cf59ee3ea9f10fc900315c6f06ffd3b80853560559f580ecdd65aba5ba660c729e0bb9576eee3703710000000000000000000000000000000009da46469f4b8fcd8d2b016e96f6e6582fb01c75407c36c7f87b4a1cd8f08ad06e962a0ec2138ed6fabaa1cb0115f97e2f76a0fa585828f79553fbf3baac6a2776b782de66dedd6b734f9342e734ee3000000000000000000000000000000000047b45ad2ad4f7b5b72194f98b98b2150b5d73a9df2aeb2377beed9a1275a882fa2d849037ddb56af632489f892a48a7000000000000000000000000000000000e1b0d9b52c0c5324067857ba4701f5f20eec165be418871fc0f0adbc3a0bbdce5a33277a33b79013109b81e006c621400000000000000000000000000000000179c471e01e340d8e6fc0f737ec09f0180bd2dd2a86d0817f753d1e9a9f8cb18178e9de68c596dc6a824e6c3c151d8b80000000000000000000000000000000019405c1e571a9b200ff2949aa74647dae59d92a8669d4876ba23f1b4a12a1f9412412503c68acbd619cae3ff056bd346f638e6a70917c89811851109296a7225f9c7c5b3d7fe6d6ba6c7d1ee77db4458000000000000000000000000000000000ca8566b9bd088c471fd33fb7b1bf760ee12cc8b0cfa9ad92b45012cafef5c0772d9bd3bd9b266d6c3e3890c8f00057300000000000000000000000000000000055789839e786ecee7fb7d10f3876359fcc1bd6f2c5cf25c8337aff7fdeec9b43ffbe932cc4936bb708571a59e4339990000000000000000000000000000000013cf827bd57d8179d105f34c147665a072714ccbc114aa4e878d04ce66ca78bdabdc4867b3968c75dead147257197c6a0000000000000000000000000000000014a8dc5ac1858442ca627eaa194e1ba64091b5f9ace551338d770c92fb49ee12449dc200c8c35d70f9e0652b4d9b90da1c4ac944341dc68fee586d221db2a8167e833f18f012afa7c3844def6dfb26bc000000000000000000000000000000001124ea2b97a6d73c81387a51e814b9bdc951a773db2a32d50691be60f1d397cd4aadd9b06e4f49c32b12254e9f824fe80000000000000000000000000000000014cb365e9780feeeff3548f34a56548302ae0dc73402c40317fc819969ee9c4ea2a181381b94f82dd97a236671b456a000000000000000000000000000000000064b769c4b785d45472038aeeebd3ba9b28b3132d72023640ab2d7512cc6e31296c5330be5653ad6902e4e15e57e2c3e0000000000000000000000000000000014c7bfb1f142d69c17f73e23011aee0063a97a99d982d25ff72791a65c7a68941a80fc216cea8a49f3df2d0748b1f95db0eedaee9347b10ab7b346fbc16c10cc9db486f561f88b756c269ebbba23a7f4"
            ],
            "gasLimit" : [
                "0x6acfc0"
            ],
            "gasPrice" : "0x0a",
            "nonce" : "0x00",
            "secretKey" : "0x45a915e4d060149eb4365960e6a7a45f334393093061116b197e3240065ff2d8",
            "sender" : "0xa94f5374fce5edbc8e2a8697c15331677e6ebf0b",
            "to" : "0x095e7baea6a6c7c4c2dfeb977efac326af552d87",
            "value" : [
                "0x03e8"
            ]
        }
    }
}