{
    "g2_mul_49" : {
        "_info" : {
            "comment" : "A test for g2_mul_49",
            "filling-rpc-server" : "evm version 1.14.0-unstable-a208e725-20240416",
            "filling-tool-version" : "retesteth-0.3.2-cancun+commit.353b2b37.Linux.g++",
            "generatedTestHash" : "ed191f605bab737aecbd4469310aaf320162fb6a53e4f43c56c0dd7bab2894df",
            "lllcversion" : "Version: 0.5.14-develop.2023.7.11+commit.c58ab2c6.mod.Linux.g++",
            "solidity" : "Version: 0.8.21+commit.d9974bed.Linux.g++",
            "source" : "src/EIPTestsFiller/StateTests/stEIP2537/g2_mul_49Filler.json",
            "sourceHash" : "5fca5e1d50b5c718f4c8ff05fb779a744d08ed3a8f09cfb53e20f467c6097f20"
        },
        "env" : {
            "currentBaseFee" : "0x0a",
            "currentCoinbase" : "0x2adc25665018aa1fe0e6bc666dac8fc2697ff9ba",
            "currentDifficulty" : "0x020000",
            "currentExcessBlobGas" : "0x00",
            "currentGasLimit" : "0xff112233445566",
            "currentNumber" : "0x01",
            "currentRandom" : "0x0000000000000000000000000000000000000000000000000000000000020000",
            "currentTimestamp" : "0x03e8"
        },
        "post" : {
            "Prague" : [
                {
                    "hash" : "0x4d45354c79b0f86f6888ffbbb3cd0a7d17f3890940062b24c4e89aabd44e9c5c",
                    "indexes" : {
                        "data" : 0,
                        "gas" : 0,
                        "value" : 0
                    },
                    "logs" : "0x1dcc4de8dec75d7aab85b567b6ccd41ad312451b948a7413f0a142fd40d49347",
                    "txbytes" : "0xf901e8800a836acfc094095e7baea6a6c7c4c2dfeb977efac326af552d878203e8b9018412bd4299000000000000000000000000000000000000000000000000000000000000000f00000000000000000000000000000000000000000000000000000000000000400000000000000000000000000000000000000000000000000000000000000120000000000000000000000000000000000f20a07526a082e88630a0256d134a8a5e8ada07b1cead39ee838dcbb30904e9016107fcbdf1f8ba182308dbe0b043d20000000000000000000000000000000014fb7732f67abf60c03ac902577532d0acadb5f3db0d6397a42ba693526ad74f2c61a0195bdc9704aaaf12e65aa6d88b000000000000000000000000000000000018cec4fb81c85d304588d11f8b9c51f5a053df11463e5812a1b2e6c7144522ba36bb91adf219892d0007cee470032e000000000000000000000000000000000b8e52d958a12a9037e8be9bc0d5045cade2d6ea05c6e68462b3a30b5d4ea34e5fbad173761e4e216b2e6958c8983b28b473df5e282565a0783d23e65e283a103ebbddb5c884183cceb62fc32d0e96021ca017e87813d5ee059b1bac41423e4be0e89f6e3fed6707ca32a25e7febad3e1d7ba0057956e939872ff5fc3e1cf329818acadeab2710a9b8908e2200ac6b5a64049b"
                }
            ]
        },
        "pre" : {
            "0x095e7baea6a6c7c4c2dfeb977efac326af552d87" : {
                "balance" : "0x00",
                "code" : "0x60806040526004361061001e5760003560e01c806312bd429914610023575b600080fd5b6100fc6004803603604081101561003957600080fd5b81019080803573ffffffffffffffffffffffffffffffffffffffff1690602001909291908035906020019064010000000081111561007657600080fd5b82018360208201111561008857600080fd5b803590602001918460018302840111640100000000831117156100aa57600080fd5b91908080601f016020809104026020016040519081016040528093929190818152602001838380828437600081840152601f19601f820116905080830192505050505050509192919290505050610182565b604051808315151515815260200180602001828103825283818151815260200191508051906020019080838360005b8381101561014657808201518184015260208101905061012b565b50505050905090810190601f1680156101735780820380516001836020036101000a031916815260200191505b50935050505060405180910390f35b600060608373ffffffffffffffffffffffffffffffffffffffff16836040518082805190602001908083835b602083106101d157805182526020820191506020810190506020830392506101ae565b6001836020036101000a038019825116818451168082178552505050505050905001915050600060405180830381855afa9150503d8060008114610231576040519150601f19603f3d011682016040523d82523d6000602084013e610236565b606091505b508092508193505050600060405180807f6572726f72000000000000000000000000000000000000000000000000000000815250600501905060405180910390209050821561028a57818051906020012090505b8060025582829250925050925092905056fea2646970667358221220db58d80e8530eed625d9b4250a6055c2eb1d7c117a7ca267e6f8a059bdd2f39e64736f6c634300060a0033",
                "nonce" : "0x01",
                "storage" : {
                }
            },
            "0xa94f5374fce5edbc8e2a8697c15331677e6ebf0b" : {
                "balance" : "0x0de0b6b3a7640000",
                "code" : "0x",
                "nonce" : "0x00",
                "storage" : {
                }
            }
        },
        "transaction" : {
            "data" : [
                "0x12bd4299000000000000000000000000000000000000000000000000000000000000000f00000000000000000000000000000000000000000000000000000000000000400000000000000000000000000000000000000000000000000000000000000120000000000000000000000000000000000f20a07526a082e88630a0256d134a8a5e8ada07b1cead39ee838dcbb30904e9016107fcbdf1f8ba182308dbe0b043d20000000000000000000000000000000014fb7732f67abf60c03ac902577532d0acadb5f3db0d6397a42ba693526ad74f2c61a0195bdc9704aaaf12e65aa6d88b000000000000000000000000000000000018cec4fb81c85d304588d11f8b9c51f5a053df11463e5812a1b2e6c7144522ba36bb91adf219892d0007cee470032e000000000000000000000000000000000b8e52d958a12a9037e8be9bc0d5045cade2d6ea05c6e68462b3a30b5d4ea34e5fbad173761e4e216b2e6958c8983b28b473df5e282565a0783d23e65e283a103ebbddb5c884183cceb62fc32d0e9602"
            ],
            "gasLimit" : [
                "0x6acfc0"
            ],
            "gasPrice" : "0x0a",
            "nonce" : "0x00",
            "secretKey" : "0x45a915e4d060149eb4365960e6a7a45f334393093061116b197e3240065ff2d8",
            "sender" : "0xa94f5374fce5edbc8e2a8697c15331677e6ebf0b",
            "to" : "0x095e7baea6a6c7c4c2dfeb977efac326af552d87",
            "value" : [
                "0x03e8"
            ]
        }
    }
}