{
    "g2_multiexp_51" : {
        "_info" : {
            "comment" : "A test for g2_multiexp_51",
            "filling-rpc-server" : "evm version 1.14.0-unstable-a208e725-20240416",
            "filling-tool-version" : "retesteth-0.3.2-cancun+commit.353b2b37.Linux.g++",
            "generatedTestHash" : "bec1773fc1c6bc6fef6b5a272a80cf9506edc6959a0c47497045f54ea1c7d015",
            "lllcversion" : "Version: 0.5.14-develop.2023.7.11+commit.c58ab2c6.mod.Linux.g++",
            "solidity" : "Version: 0.8.21+commit.d9974bed.Linux.g++",
            "source" : "src/EIPTestsFiller/StateTests/stEIP2537/g2_multiexp_51Filler.json",
            "sourceHash" : "48912edb9c28d630b8ff4a13a6afeb54fd13719971d72402a46b28173470d59e"
        },
        "env" : {
            "currentBaseFee" : "0x0a",
            "currentCoinbase" : "0x2adc25665018aa1fe0e6bc666dac8fc2697ff9ba",
            "currentDifficulty" : "0x020000",
            "currentExcessBlobGas" : "0x00",
            "currentGasLimit" : "0xff112233445566",
            "currentNumber" : "0x01",
            "currentRandom" : "0x0000000000000000000000000000000000000000000000000000000000020000",
            "currentTimestamp" : "0x03e8"
        },
        "post" : {
            "Prague" : [
                {
                    "hash" : "0x733773303df1dc01841dcbcad36859f7a2fc593f7187f0e453b2d34cf09e63eb",
                    "indexes" : {
                        "data" : 0,
                        "gas" : 0,
                        "value" : 0
                    },
                    "logs" : "0x1dcc4de8dec75d7aab85b567b6ccd41ad312451b948a7413f0a142fd40d49347",
                    "txbytes" : "0xf912c8800a836acfc094095e7baea6a6c7c4c2dfeb977efac326af552d878203e8b9126412bd429900000000000000000000000000000000000000000000000000000000000000100000000000000000000000000000000000000000000000000000000000000040000000000000000000000000000000000000000000000000000000000000120000000000000000000000000000000000129cc9cf82aa30671e969148f058a0b8d275bcbb1c8da66e52998d9555dfaa075e2fcf39fc18f305940fbc972cc5c0c0000000000000000000000000000000001252482c1419ad72229a00d90f1c09d464e896f47db91e9680efe36822e99e1ca7a2b5ba8b17b5929fdbeff8993bb18e000000000000000000000000000000001287d5054bf5db038ec2f7b7a3b79848fcc8ca42f9e19d5e21d36d2256f97e0edc2608d19c17d3714024e1e9e86ae264000000000000000000000000000000000f6262669e30a5db67550cdce8a4611b9501d02cd4e950aeedd1c87c4f0f63c74f35c802dafcf91c988a154dd690103c67c44f7c8513472b51f96d526422bac628aad4c40c521cd7cf9e86eaf92838fd0000000000000000000000000000000019cccd010df3e668b1c3ec053e76c46e45d01a4fe02eb074e296df2a48e0e4eb647b06c40cf64a0048a8fcc2b0cfa6100000000000000000000000000000000018e07bc50657f3bbf736c38518933e91af29e3bafd776243296cca3a1d975116e8b428b050045a61069adb23baa22d3800000000000000000000000000000000154f51badda1b828346986264b01fb1be4c7e9b570ab63a5eb15cabe9412a2f9bbc6d5111c638ff5118a4f6d08ed055200000000000000000000000000000000064d4e607a8994c0bb65770a14a14ed1b68c766ac2aed45a44c0f7c7cd4c3ecdfa077206812cf9b24e35021060a3668d2d6f95d4b6216e4226f78e4fa5011c9becf98fe45a17dfd740fdd0ef36d8ba94000000000000000000000000000000000b9bae5f720d9bd3271a71d751e4c35c39ad30fa8a67846107ff769c455e42465b2a39dfa32861634d5e323878f56f4f000000000000000000000000000000000a1077046cf5c7a66452cec2193ee21c1ace50dfd79f707c9297737f13806dc05e9e1cc5d1fb4c87b250ebea5a4ca6c40000000000000000000000000000000013e1fbe1a9b5f2ccff51120590ac0cb00cab502726b43a6fc12459e27bad4aa41537d6f3cc94a81a170998768f6a0fc6000000000000000000000000000000000a02c551ecec1c7a415256caaec1b5485a42f9ca8d897cf26546ace1f2bc8c2d10a353b8b84495b8dab5e3c60881185a58c25d36216b811ee42d0ba629ab7a0f9ce7edd7234620c28e37bb3df3f042e700000000000000000000000000000000021b9ab3ad614816d7006efe688e1ae8cd99b0c4437d4363e557642a7cfda2000db6503b32db36b6d1ffe40d967c5efd000000000000000000000000000000000b7fb0ddd9eb2be9cdffaf8f8c593a9296c4c7deeb1c714c11863d71dab1e6fd309b75c41e25de3cb6089726b43427f0000000000000000000000000000000001277065ea9d208777d0fb7a6726e11c8330f0b3ed3c6716acd559aab19b2fdafceca8126c9facc43b9d80534c07035a20000000000000000000000000000000015e8c12065d601dd5ede75bcfceb7300bf6f9fbcdf68d2f093b7654d80d3e565135d64137dc401d691a45fe052f58a6850a5c6bb6b87fbe5ebfb0d182d425ee173973c6f2085c556b0fe60219b9f3c32000000000000000000000000000000000484c4f9652427d0649c33e93d666dcb15bc56669c00980c53357ecee874bcdbaa016236df65a4339dfbd44e4eb0823c0000000000000000000000000000000013836a7275c29c989891c94e756cee9d6c54a8f634fa570655ee44b7c1e34137edc33323dc0d1f3a0218039fd6f7013d0000000000000000000000000000000002e88c7d5fd87e97a0de1be95021821942a8004115fb4fdd9ad26b7e0fd171f9c7e6f962eb179bdb95ef960cf9396372000000000000000000000000000000001636e351a0ed1a260ffe0d1355e6da288792fc97a7310b040cb9fcd5c550d85d90572154d58a9847dd5a8a06456bb2e43b4bdeaf6643ed159f4a3e23c33ac486b33e1edbc5a097a47a6c2c753e5299d20000000000000000000000000000000007579785c14fa012cb5d6c116d34dcc15dfc908a29e90de3bbfb8c9b44e0b4258644440d7c78d751a007c10f98053bd10000000000000000000000000000000009f023538822ceba0883a0e3454121dafe8e5e61d4754b54e6417c989efa998334641d458591b3076b615937de065cfd00000000000000000000000000000000130fe7f2d5e0ffefa67ad3378690c53a6e68de5504f3691de0df3a24c309619bd3a345bc2bec4dcfb4b77255cbfe09980000000000000000000000000000000015bf85ed997eef4d97a81f1d75825bb4409cf86b8c8e5f4368cf1e4c803f9e1e23a2a96f7b0a08e5cff55a78761ebce21d18596bc392dd0b71e1216bbb20a0e5e2559a46789c36a146cb78c5aa8e3921000000000000000000000000000000000a95597e4402bbd17c20dda088f0134d42f14443bd519b3511b28fd8d395a0e50758386498388ea6ad0e7634587336c1000000000000000000000000000000000079f348d3de505875c5192f795cd77e2f7385ed447b06f2dbee18e85c832386b201cb3eeb21aac3f258d2c4b0434d48000000000000000000000000000000001895b1891a08ea42eb1f68698abc20394ffd66bf0c32979668950bfec5cfc8425314eec2ac17ba25f29133a8becc9f5e00000000000000000000000000000000146160336d881b24c6258a3a86c08d346900680324632b6d5d4582ee0865a7e5f2d01677e5e49c5a4179f8382e49d1566fb3669c0789ba6a5b00f14c14fe2edd15d37a742c9e36cae9ac010e632d75a40000000000000000000000000000000013cadc6c394efb2f93e00f3976dde34efe75adff34bfb6f5e1a150b79bb5baf6bf29fa149581fda48faa68653cb61e300000000000000000000000000000000005fd25362d87f9581a202b186d2786d2859faa9966a1ceae747dd7a48749abd424eb9813e44caada0e456ee8bd12e99c0000000000000000000000000000000018e6b279e2b545acf1da29dc0504caa5982522546f83d4d3389e1fd6cb5328d4a167926a00ccaca402b3a3cdc67d757400000000000000000000000000000000089a9992a36b476fee21abd50977dfee01d7c91b24b3e26d7c15b2301352069dad920f0ea93a3e477a48029eef35605f06c2988dd6b8e9aa116eea4e1f63dacf100019844d37d163c047567e8e1188620000000000000000000000000000000005200b78dba7e423bc23e87c5937b464e97405f6461d05bd9d1d0fbf8f3c8e64a39081f9e43b4ec416198dc44db897e7000000000000000000000000000000000bdba1ed07c4a570359863a1098a73830818b3fa5b222316a3e0692a4ec65e59ca6b4bf5f72f8c1384e73e807d272d6e00000000000000000000000000000000073fa3eef473707b6aff37fb6f829f0fdb7ae808e85ebba4d4924a185c3656eb2856896307b671080347cebc32e958bf00000000000000000000000000000000076b56330f07cfc0ab34e98e2fa0ce4702b296a00f6ffee07c3ab523fadc048a047ccea7a9003c090951e4ef698d14e5fbf8322f706b1972f73fe4e22a3dad29c4ede09163561b2810cfc3eb2ffbc7ab0000000000000000000000000000000007252747c8275f87b21bbac4071c1826d166d14e6205095e5299315d6b6a85aed995f9ba59a2163ce2c51a8e60eaaeeb000000000000000000000000000000000460a000fe29cca24dec469ba5fb729edf3e443bb032d488cc99102a614a5251915267db003dbf395132d815ba78f262000000000000000000000000000000000161c01cb4d0942faf2303c108604babbd4cabf5d3d30c13d7db9428a445c7f72d96a7405e22e4e451058a94e20068720000000000000000000000000000000010ccf8a8ec4e6515b20e07057fb8cbecc5defb87480f3e32a1bcd0cfe239e00daf6a390c4815ef6b85be1f07a4c4bfbc4a46618381ba6b991b2edfdeafa67aef1cfea066fbffdba24db25385963326bf000000000000000000000000000000000e6cf781162502d2a758d0f96946bab887591b7c9ec9f67a1b0b962e74ee514e84c14bf67ae3c0a9ea2a3e472b7ef59c0000000000000000000000000000000001542b4e97f1e8a64ffd51ca43137b0660f897f6b3d5c6fee598fc4dd03932c3658ea55e1e9e73376e51df278ddd3a3f0000000000000000000000000000000016dae882ba240343e752eac68122424320d1acb1fbc4bd26c3983dd91325f25e1b1f06213e0e06c142997a13fbeca597000000000000000000000000000000001138b71c95d4de320f02e68dae9bb0de3e5b317cb596532c5cc18ca588cc8566c21551d7d55d685591126b9d9e466455cd05fce871e4ff11e7a4e834061c65a0aab7bfa8a0128d460a493337c6e63ebf000000000000000000000000000000000904f6a09f3a5f5baac902c702b059835737c06f62c2ffe9101bac32f854e4d72f74031f5410a5941612b1aaacbb50920000000000000000000000000000000012f39e7022150b2be12cdd621ae23525581405021b21cb9e55972724a22b1aeb2e15b135ceade132d3310e050e607f65000000000000000000000000000000000a92b1daaf23524904d74c3f149fcd2c98e3a4c257113533e7cc59c4656b785aacbf0ba6b9df0dc17cf7c25f1ca698c5000000000000000000000000000000000a20a5d7c0aeb16ff498f46bf05e512784d120b9c3c8b2877411852d7da3abde9e83a6d00213bf69ed88bcbb051a486daba9e37ae0dbb733af820743d8e307fc02a3ce9b40032b16d0e9466903de9caa00000000000000000000000000000000153918807d7da07ec7014154f00a558ebe0d5fb48fba4c16488d61a826a1eec28e3828d6744300c04207e8ff1cb61211000000000000000000000000000000000a755480457896c5a3fde35658e73fae821151c43fb92e9ffedcb05fabad37cb68aa24e029fc33a2518398d723c4859100000000000000000000000000000000148798bdc5b14b90aefc38946db93be1754f15d78762f38971b1e64a53fda92b96b0a70ca2548baec882887ae7f636910000000000000000000000000000000012299fc413dbaa77cf8867e331bc0602c4fb32fe44a150217de9e6391374a9ed83781034e5775c4933e13cdfffd25a9e6ef151662cba4952416eaadebfe5e0fa0ca1d31380e1540c2d5e0181af9e317c000000000000000000000000000000000fdfcbcce1603198fa344487d2d4838b3ff23fc0a73a76222707d9f8623f0b87dfc816be8717b0b12667bee460ef40f70000000000000000000000000000000015036dff68139419db619912e2d19b7d2a2d637fbb8bffcd941aefe2eb4d24c1f7dc32f4f53d4cfce67785e7c328d6c4000000000000000000000000000000000fd575be9bf54128a9a1cbd366339c993ced315a840d60f8b77e035352bf705c01a9def713e8cae3001dc1062cc0723b0000000000000000000000000000000004015ed456125cf0f46fe0093b81ff9315d955d470ad756a9303f548819f339e137305c58e6f4d8db3c8bbfab90718d4f0a3851bd52ca52919dfd21efa6efc56f6dd5060ad969360b1a731e8f38f0f5d0000000000000000000000000000000016d31e68cfdc5823970c8c2ebc53c3d4517792c44e90c10f920a819e72e4a6966c59a691b905c8b0b612065c56d86ca40000000000000000000000000000000005096d516e416fdc0df552c2688c74f1c067a3e5e7fd782479bfa468096e6ee3e601bc23d2e38ae7500325765483250600000000000000000000000000000000092c994e9dae287bb6450607a4263bcf6267f0f66ba3e63436292af7f6bc8e4ba794a12792b6af49ef59b5fe50ff6d3400000000000000000000000000000000175a645988f33612e969e1d91b2c30e47ec655ad655d89cd8dac151c3bd194cd5a8c28b498b1cc2f2966b7fc37cfc8c532b41960417047a2258b6e9e228f3cc1130b296cafbb75f58731a81fcfe8c83a0000000000000000000000000000000008d09ee15c80facf7e32b15418fefbf7e80400acf37f2a1bc6ced88b1591bcb8f86b45b544646c5fafa71b5b103b927400000000000000000000000000000000060865ba68ed8fb3d0a05779c278352b22d4244edb7add23d985a2836d2772dbffc3c82c3134916e9b0900c9db6ead8f000000000000000000000000000000000dce53bf8aca1ed44bee47096dd988689c1e32e1e65a5f8dbabab7c4edba866132ee2c036aba5648d0dafa9a26405fe30000000000000000000000000000000003319995785be720860bbf48692d1507185d898187993865648ded74d3aaca45df939c6dd986db42a51bd13579a55b8f71a6f7f091a6a21dbfffcec2eecaa22d05252b60bf91b56811a833dde3fcfde61ba01eb49d35f370cdf9a7118330e6eee3ba01f2459143cb053e18fd6a32efa0c709a01cd519378fe95799f617377f51418e5b26957958f269baf1ca8c9b99d5f126e3"
                }
            ]
        },
        "pre" : {
            "0x095e7baea6a6c7c4c2dfeb977efac326af552d87" : {
                "balance" : "0x00",
                "code" : "0x60806040526004361061001e5760003560e01c806312bd429914610023575b600080fd5b6100fc6004803603604081101561003957600080fd5b81019080803573ffffffffffffffffffffffffffffffffffffffff1690602001909291908035906020019064010000000081111561007657600080fd5b82018360208201111561008857600080fd5b803590602001918460018302840111640100000000831117156100aa57600080fd5b91908080601f016020809104026020016040519081016040528093929190818152602001838380828437600081840152601f19601f820116905080830192505050505050509192919290505050610182565b604051808315151515815260200180602001828103825283818151815260200191508051906020019080838360005b8381101561014657808201518184015260208101905061012b565b50505050905090810190601f1680156101735780820380516001836020036101000a031916815260200191505b50935050505060405180910390f35b600060608373ffffffffffffffffffffffffffffffffffffffff16836040518082805190602001908083835b602083106101d157805182526020820191506020810190506020830392506101ae565b6001836020036101000a038019825116818451168082178552505050505050905001915050600060405180830381855afa9150503d8060008114610231576040519150601f19603f3d011682016040523d82523d6000602084013e610236565b606091505b508092508193505050600060405180807f6572726f72000000000000000000000000000000000000000000000000000000815250600501905060405180910390209050821561028a57818051906020012090505b8060025582829250925050925092905056fea2646970667358221220db58d80e8530eed625d9b4250a6055c2eb1d7c117a7ca267e6f8a059bdd2f39e64736f6c634300060a0033",
                "nonce" : "0x01",
                "storage" : {
                }
            },
            "0xa94f5374fce5edbc8e2a8697c15331677e6ebf0b" : {
                "balance" : "0x0de0b6b3a7640000",
                "code" : "0x",
                "nonce" : "0x00",
                "storage" : {
                }
            }
        },
        "transaction" : {
            "data" : [
                "0x12bd429900000000000000000000000000000000000000000000000000000000000000100000000000000000000000000000000000000000000000000000000000000040000000000000000000000000000000000000000000000000000000000000120000000000000000000000000000000000129cc9cf82aa30671e969148f058a0b8d275bcbb1c8da66e52998d9555dfaa075e2fcf39fc18f305940fbc972cc5c0c0000000000000000000000000000000001252482c1419ad72229a00d90f1c09d464e896f47db91e9680efe36822e99e1ca7a2b5ba8b17b5929fdbeff8993bb18e000000000000000000000000000000001287d5054bf5db038ec2f7b7a3b79848fcc8ca42f9e19d5e21d36d2256f97e0edc2608d19c17d3714024e1e9e86ae264000000000000000000000000000000000f6262669e30a5db67550cdce8a4611b9501d02cd4e950aeedd1c87c4f0f63c74f35c802dafcf91c988a154dd690103c67c44f7c8513472b51f96d526422bac628aad4c40c521cd7cf9e86eaf92838fd0000000000000000000000000000000019cccd010df3e668b1c3ec053e76c46e45d01a4fe02eb074e296df2a48e0e4eb647b06c40cf64a0048a8fcc2b0cfa6100000000000000000000000000000000018e07bc50657f3bbf736c38518933e91af29e3bafd776243296cca3a1d975116e8b428b050045a61069adb23baa22d3800000000000000000000000000000000154f51badda1b828346986264b01fb1be4c7e9b570ab63a5eb15cabe9412a2f9bbc6d5111c638ff5118a4f6d08ed055200000000000000000000000000000000064d4e607a8994c0bb65770a14a14ed1b68c766ac2aed45a44c0f7c7cd4c3ecdfa077206812cf9b24e35021060a3668d2d6f95d4b6216e4226f78e4fa5011c9becf98fe45a17dfd740fdd0ef36d8ba94000000000000000000000000000000000b9bae5f720d9bd3271a71d751e4c35c39ad30fa8a67846107ff769c455e42465b2a39dfa32861634d5e323878f56f4f000000000000000000000000000000000a1077046cf5c7a66452cec2193ee21c1ace50dfd79f707c9297737f13806dc05e9e1cc5d1fb4c87b250ebea5a4ca6c40000000000000000000000000000000013e1fbe1a9b5f2ccff51120590ac0cb00cab502726b43a6fc12459e27bad4aa41537d6f3cc94a81a170998768f6a0fc6000000000000000000000000000000000a02c551ecec1c7a415256caaec1b5485a42f9ca8d897cf26546ace1f2bc8c2d10a353b8b84495b8dab5e3c60881185a58c25d36216b811ee42d0ba629ab7a0f9ce7edd7234620c28e37bb3df3f042e700000000000000000000000000000000021b9ab3ad614816d7006efe688e1ae8cd99b0c4437d4363e557642a7cfda2000db6503b32db36b6d1ffe40d967c5efd000000000000000000000000000000000b7fb0ddd9eb2be9cdffaf8f8c593a9296c4c7deeb1c714c11863d71dab1e6fd309b75c41e25de3cb6089726b43427f0000000000000000000000000000000001277065ea9d208777d0fb7a6726e11c8330f0b3ed3c6716acd559aab19b2fdafceca8126c9facc43b9d80534c07035a20000000000000000000000000000000015e8c12065d601dd5ede75bcfceb7300bf6f9fbcdf68d2f093b7654d80d3e565135d64137dc401d691a45fe052f58a6850a5c6bb6b87fbe5ebfb0d182d425ee173973c6f2085c556b0fe60219b9f3c32000000000000000000000000000000000484c4f9652427d0649c33e93d666dcb15bc56669c00980c53357ecee874bcdbaa016236df65a4339dfbd44e4eb0823c0000000000000000000000000000000013836a7275c29c989891c94e756cee9d6c54a8f634fa570655ee44b7c1e34137edc33323dc0d1f3a0218039fd6f7013d0000000000000000000000000000000002e88c7d5fd87e97a0de1be95021821942a8004115fb4fdd9ad26b7e0fd171f9c7e6f962eb179bdb95ef960cf9396372000000000000000000000000000000001636e351a0ed1a260ffe0d1355e6da288792fc97a7310b040cb9fcd5c550d85d90572154d58a9847dd5a8a06456bb2e43b4bdeaf6643ed159f4a3e23c33ac486b33e1edbc5a097a47a6c2c753e5299d20000000000000000000000000000000007579785c14fa012cb5d6c116d34dcc15dfc908a29e90de3bbfb8c9b44e0b4258644440d7c78d751a007c10f98053bd10000000000000000000000000000000009f023538822ceba0883a0e3454121dafe8e5e61d4754b54e6417c989efa998334641d458591b3076b615937de065cfd00000000000000000000000000000000130fe7f2d5e0ffefa67ad3378690c53a6e68de5504f3691de0df3a24c309619bd3a345bc2bec4dcfb4b77255cbfe09980000000000000000000000000000000015bf85ed997eef4d97a81f1d75825bb4409cf86b8c8e5f4368cf1e4c803f9e1e23a2a96f7b0a08e5cff55a78761ebce21d18596bc392dd0b71e1216bbb20a0e5e2559a46789c36a146cb78c5aa8e3921000000000000000000000000000000000a95597e4402bbd17c20dda088f0134d42f14443bd519b3511b28fd8d395a0e50758386498388ea6ad0e7634587336c1000000000000000000000000000000000079f348d3de505875c5192f795cd77e2f7385ed447b06f2dbee18e85c832386b201cb3eeb21aac3f258d2c4b0434d48000000000000000000000000000000001895b1891a08ea42eb1f68698abc20394ffd66bf0c32979668950bfec5cfc8425314eec2ac17ba25f29133a8becc9f5e00000000000000000000000000000000146160336d881b24c6258a3a86c08d346900680324632b6d5d4582ee0865a7e5f2d01677e5e49c5a4179f8382e49d1566fb3669c0789ba6a5b00f14c14fe2edd15d37a742c9e36cae9ac010e632d75a40000000000000000000000000000000013cadc6c394efb2f93e00f3976dde34efe75adff34bfb6f5e1a150b79bb5baf6bf29fa149581fda48faa68653cb61e300000000000000000000000000000000005fd25362d87f9581a202b186d2786d2859faa9966a1ceae747dd7a48749abd424eb9813e44caada0e456ee8bd12e99c0000000000000000000000000000000018e6b279e2b545acf1da29dc0504caa5982522546f83d4d3389e1fd6cb5328d4a167926a00ccaca402b3a3cdc67d757400000000000000000000000000000000089a9992a36b476fee21abd50977dfee01d7c91b24b3e26d7c15b2301352069dad920f0ea93a3e477a48029eef35605f06c2988dd6b8e9aa116eea4e1f63dacf100019844d37d163c047567e8e1188620000000000000000000000000000000005200b78dba7e423bc23e87c5937b464e97405f6461d05bd9d1d0fbf8f3c8e64a39081f9e43b4ec416198dc44db897e7000000000000000000000000000000000bdba1ed07c4a570359863a1098a73830818b3fa5b222316a3e0692a4ec65e59ca6b4bf5f72f8c1384e73e807d272d6e00000000000000000000000000000000073fa3eef473707b6aff37fb6f829f0fdb7ae808e85ebba4d4924a185c3656eb2856896307b671080347cebc32e958bf00000000000000000000000000000000076b56330f07cfc0ab34e98e2fa0ce4702b296a00f6ffee07c3ab523fadc048a047ccea7a9003c090951e4ef698d14e5fbf8322f706b1972f73fe4e22a3dad29c4ede09163561b2810cfc3eb2ffbc7ab0000000000000000000000000000000007252747c8275f87b21bbac4071c1826d166d14e6205095e5299315d6b6a85aed995f9ba59a2163ce2c51a8e60eaaeeb000000000000000000000000000000000460a000fe29cca24dec469ba5fb729edf3e443bb032d488cc99102a614a5251915267db003dbf395132d815ba78f262000000000000000000000000000000000161c01cb4d0942faf2303c108604babbd4cabf5d3d30c13d7db9428a445c7f72d96a7405e22e4e451058a94e20068720000000000000000000000000000000010ccf8a8ec4e6515b20e07057fb8cbecc5defb87480f3e32a1bcd0cfe239e00daf6a390c4815ef6b85be1f07a4c4bfbc4a46618381ba6b991b2edfdeafa67aef1cfea066fbffdba24db25385963326bf000000000000000000000000000000000e6cf781162502d2a758d0f96946bab887591b7c9ec9f67a1b0b962e74ee514e84c14bf67ae3c0a9ea2a3e472b7ef59c0000000000000000000000000000000001542b4e97f1e8a64ffd51ca43137b0660f897f6b3d5c6fee598fc4dd03932c3658ea55e1e9e73376e51df278ddd3a3f0000000000000000000000000000000016dae882ba240343e752eac68122424320d1acb1fbc4bd26c3983dd91325f25e1b1f06213e0e06c142997a13fbeca597000000000000000000000000000000001138b71c95d4de320f02e68dae9bb0de3e5b317cb596532c5cc18ca588cc8566c21551d7d55d685591126b9d9e466455cd05fce871e4ff11e7a4e834061c65a0aab7bfa8a0128d460a493337c6e63ebf000000000000000000000000000000000904f6a09f3a5f5baac902c702b059835737c06f62c2ffe9101bac32f854e4d72f74031f5410a5941612b1aaacbb50920000000000000000000000000000000012f39e7022150b2be12cdd621ae23525581405021b21cb9e55972724a22b1aeb2e15b135ceade132d3310e050e607f65000000000000000000000000000000000a92b1daaf23524904d74c3f149fcd2c98e3a4c257113533e7cc59c4656b785aacbf0ba6b9df0dc17cf7c25f1ca698c5000000000000000000000000000000000a20a5d7c0aeb16ff498f46bf05e512784d120b9c3c8b2877411852d7da3abde9e83a6d00213bf69ed88bcbb051a486daba9e37ae0dbb733af820743d8e307fc02a3ce9b40032b16d0e9466903de9caa00000000000000000000000000000000153918807d7da07ec7014154f00a558ebe0d5fb48fba4c16488d61a826a1eec28e3828d6744300c04207e8ff1cb61211000000000000000000000000000000000a755480457896c5a3fde35658e73fae821151c43fb92e9ffedcb05fabad37cb68aa24e029fc33a2518398d723c4859100000000000000000000000000000000148798bdc5b14b90aefc38946db93be1754f15d78762f38971b1e64a53fda92b96b0a70ca2548baec882887ae7f636910000000000000000000000000000000012299fc413dbaa77cf8867e331bc0602c4fb32fe44a150217de9e6391374a9ed83781034e5775c4933e13cdfffd25a9e6ef151662cba4952416eaadebfe5e0fa0ca1d31380e1540c2d5e0181af9e317c000000000000000000000000000000000fdfcbcce1603198fa344487d2d4838b3ff23fc0a73a76222707d9f8623f0b87dfc816be8717b0b12667bee460ef40f70000000000000000000000000000000015036dff68139419db619912e2d19b7d2a2d637fbb8bffcd941aefe2eb4d24c1f7dc32f4f53d4cfce67785e7c328d6c4000000000000000000000000000000000fd575be9bf54128a9a1cbd366339c993ced315a840d60f8b77e035352bf705c01a9def713e8cae3001dc1062cc0723b0000000000000000000000000000000004015ed456125cf0f46fe0093b81ff9315d955d470ad756a9303f548819f339e137305c58e6f4d8db3c8bbfab90718d4f0a3851bd52ca52919dfd21efa6efc56f6dd5060ad969360b1a731e8f38f0f5d0000000000000000000000000000000016d31e68cfdc5823970c8c2ebc53c3d4517792c44e90c10f920a819e72e4a6966c59a691b905c8b0b612065c56d86ca40000000000000000000000000000000005096d516e416fdc0df552c2688c74f1c067a3e5e7fd782479bfa468096e6ee3e601bc23d2e38ae7500325765483250600000000000000000000000000000000092c994e9dae287bb6450607a4263bcf6267f0f66ba3e63436292af7f6bc8e4ba794a12792b6af49ef59b5fe50ff6d3400000000000000000000000000000000175a645988f33612e969e1d91b2c30e47ec655ad655d89cd8dac151c3bd194cd5a8c28b498b1cc2f2966b7fc37cfc8c532b41960417047a2258b6e9e228f3cc1130b296cafbb75f58731a81fcfe8c83a0000000000000000000000000000000008d09ee15c80facf7e32b15418fefbf7e80400acf37f2a1bc6ced88b1591bcb8f86b45b544646c5fafa71b5b103b927400000000000000000000000000000000060865ba68ed8fb3d0a05779c278352b22d4244edb7add23d985a2836d2772dbffc3c82c3134916e9b0900c9db6ead8f000000000000000000000000000000000dce53bf8aca1ed44bee47096dd988689c1e32e1e65a5f8dbabab7c4edba866132ee2c036aba5648d0dafa9a26405fe30000000000000000000000000000000003319995785be720860bbf48692d1507185d898187993865648ded74d3aaca45df939c6dd986db42a51bd13579a55b8f71a6f7f091a6a21dbfffcec2eecaa22d05252b60bf91b56811a833dde3fcfde6"
            ],
            "gasLimit" : [
                "0x6acfc0"
            ],
            "gasPrice" : "0x0a",
            "nonce" : "0x00",
            "secretKey" : "0x45a915e4d060149eb4365960e6a7a45f334393093061116b197e3240065ff2d8",
            "sender" : "0xa94f5374fce5edbc8e2a8697c15331677e6ebf0b",
            "to" : "0x095e7baea6a6c7c4c2dfeb977efac326af552d87",
            "value" : [
                "0x03e8"
            ]
        }
    }
}