{
    "g2_multiexp_66" : {
        "_info" : {
            "comment" : "A test for g2_multiexp_66",
            "filling-rpc-server" : "evm version 1.14.0-unstable-a208e725-20240416",
            "filling-tool-version" : "retesteth-0.3.2-cancun+commit.353b2b37.Linux.g++",
            "generatedTestHash" : "fe8eac47dc05f10c970884396e6a88ec54df96aa659343c6932624d8c951994b",
            "lllcversion" : "Version: 0.5.14-develop.2023.7.11+commit.c58ab2c6.mod.Linux.g++",
            "solidity" : "Version: 0.8.21+commit.d9974bed.Linux.g++",
            "source" : "src/EIPTestsFiller/StateTests/stEIP2537/g2_multiexp_66Filler.json",
            "sourceHash" : "cb46419043311fad1f32d9ba7de114e31176361578be4b4315b52b591a4ac34d"
        },
        "env" : {
            "currentBaseFee" : "0x0a",
            "currentCoinbase" : "0x2adc25665018aa1fe0e6bc666dac8fc2697ff9ba",
            "currentDifficulty" : "0x020000",
            "currentExcessBlobGas" : "0x00",
            "currentGasLimit" : "0xff112233445566",
            "currentNumber" : "0x01",
            "currentRandom" : "0x0000000000000000000000000000000000000000000000000000000000020000",
            "currentTimestamp" : "0x03e8"
        },
        "post" : {
            "Prague" : [
                {
                    "hash" : "0xf75792415686dd334fac39a4a4034d85006a242c5eb925eb05db514b1556f230",
                    "indexes" : {
                        "data" : 0,
                        "gas" : 0,
                        "value" : 0
                    },
                    "logs" : "0x1dcc4de8dec75d7aab85b567b6ccd41ad312451b948a7413f0a142fd40d49347",
                    "txbytes" : "0xf912c8800a836acfc094095e7baea6a6c7c4c2dfeb977efac326af552d878203e8b9126412bd42990000000000000000000000000000000000000000000000000000000000000010000000000000000000000000000000000000000000000000000000000000004000000000000000000000000000000000000000000000000000000000000012000000000000000000000000000000000003113ba8b216d933fe0c81f23f75942c0065d21d8f009d73b1f698281408874e33dd2750fd4298367b81827cf6fdad34000000000000000000000000000000000b8a921e840fc665a786d826f83ca5a9c8f00e7c802bce5473a7d1ebf63e8bb6cf5c4b426153508d874064d1f1dade09000000000000000000000000000000001492ab584088d23d3b0d1283904f9a8f29f9efe47950c6e9ffb9db2123f3f9820b906d672fc7f97f0bd38b8fc0ef44520000000000000000000000000000000010d321c2538f92aad4631af44ae39e63dc06becd2460f0cee0e526328d167fd6cfbcf4edfaafe32d13b5fe66c009533bb16c1bc60e1a9be9a82c93b7e0311e7516a57d687d8907599918df77b3b6caf3000000000000000000000000000000000ae75d01481a51294003041afc4802326ab878a3a75eafcda43cf873cc65e300d28aa986fb82a2d1d649e5be00f956820000000000000000000000000000000017640eeef8982250f88a4d187dcabfcc9adc3ee9194dbc3c04c741690fce5bc7cb07cd0b7c3497191d9ed8558fd0d24c0000000000000000000000000000000007527fd8dacb81b8d1abc746688db6a47211fa71556155d38361921c4bdb2a9e9921a3a540bcf55c6dd751b84c04a1040000000000000000000000000000000008de9109ba354d7426a5313d66cd747a54df347f0f86a3c0f99e9e4b68fc79641fcf98ab39fa23ef6f1a781c48f53f76cf301dfca76a83c70552c9cbc9c80cb20f0d82a70a9d887b04b150fa0764ce2e0000000000000000000000000000000017331b8367f07756e789f7edce4d22f6886656fed78ddacef6987a2751dd3d5d49011a050e7b2a3e11fc8d90266c9d710000000000000000000000000000000016959c303e11f23392f95c1402d1d1ad7f38343c711e96f18d03f832f76e3e81de789a6eaff797ae51079b13571334d40000000000000000000000000000000004266fd13db1ca80196a91263c79d1583b717fb61fd9ce5113e4cd94c59e605152b244e10e364b468c5a561c6fa9715800000000000000000000000000000000026f67cb263be83f3163856f091e9346651c29d4634e242da53b22eb6e66018d235b0f30f8833310dff9f3020e5bd3811cfb94c4e029a2126a9cf5561c677687f52059e4b7f8b7e7e73e5b1dd7f42129000000000000000000000000000000000114d8babd11c81ca2b8a7e193afbe0a8fce426b83996bae6f77201870e51c9355c319dd86b985272f73e0804c0f53700000000000000000000000000000000016f5ea7610891d0e72975816c08e6e25a75c7c42500655f26efdfb384241bbc825358a21caff347d00c8b2391501d15400000000000000000000000000000000199c8c74a79ee90c3606906bbb8cc163c214259e4d0127cee3283bcd9c1ebe4090ca7d7b180201910d3f6f51566d3bdc00000000000000000000000000000000032c785165ad4c1a2846e15318bd7cf5b42ce8b675cb18fcc4232e28701f225f1ea384b276e7a38b2c9e2e8b112f1911d8386fe6f4303959e58165b422e98c4813b1bad7808594473e4e66df09698cf0000000000000000000000000000000000842c65006caed9b53add048a2eea89e1b4584e1deb4365e3dcf8b9ecb02f337bccbe5d6929ef8c20461847f171fd4d600000000000000000000000000000000100dc23e6c1c6f6756419a9bad3133bba052f408a424c5239b8528ad4429a2bce64b72f1463625f7599ce43865581e9600000000000000000000000000000000125b4d71333274a16e52829ad5eaaecdda5c206063473dedec5a8ff4424def70e6f650926948dd2158b403f985a3421b0000000000000000000000000000000006a031e3c002702837e4ad28250b85cd94d42cf7b0d765b980fab95edded7636d13bdef1be63e66682c4e297d0cb2b0302e1c432f3b55ae87ab815647f196be3e138b2f6e9fe7acb9459650246187eb90000000000000000000000000000000003f7091a25da7d5afe6fa6b254604a1abe7a0c6ea11cc1a4167f5f648aa973d888383bc7e987b620d23e688868d318360000000000000000000000000000000016637f888efc3e057227cbefecb3037aebf8e330c3a794e51d691e3bc064237b98351beb746868aef977a83d1fe163ac00000000000000000000000000000000126d2884487984f851d1bd7d61bdb803321f263918e88e0677831563bacc9f5207358d1e9c76a5a25a66f0294f459e3900000000000000000000000000000000125c61b387a4462fa3bb2f06a4cfbd7df082d20cb23ee974aece2ec9a3b0c084d13a7ea83725a05d9f31b8033d2888ef9b0cc0ac499dffd627f5d19b87817dcd67e87561d5244a4b5698265f8c5b767e0000000000000000000000000000000006cf2bc7c691c4f8a64d0aa1ca3760d715b3188a2dd299ab09c723315acba8b0b4bbee819ba06cc564f0c875a63a415b000000000000000000000000000000000bded3d695e471f30f9d723f55826eda112eb0e3fbfb9a377cfa07d6233ed84108b92a79bb491a2971e9afdf83db8e9a0000000000000000000000000000000009b0e9928cb267508d4f9444c6ac3dc6f64f49a70c82c0bcaf4022e97854e5d9ec2612a2cd4d67642dc0451583bcb24d00000000000000000000000000000000009347dcfebe93a2f7674ad02ac48794e7cbffb04dd85b0c8c192fc85cfb9cef40fd11def6f63ae9a923960424eac6a02f3875f81fd39c9b3ec74eb269903dba4173d8eb0e41a196d3131252207ffa040000000000000000000000000000000013e8215c7bbdca445555c9fa0ae44e1905703334bade3294fc047ec262b9e4903880d52851967339eeadd666200b25ae0000000000000000000000000000000003b0bf4498103ac03601a8594b154b59a2a93d663f98ff8dbd2c85a1902e572a9456c629a12651aa87a1262102e1c770000000000000000000000000000000000e8bfd7d3fa0f773e6bcfd0d43a5c436862d1cb6a4ed715093c6782cd94699090c4bde597f65768e963fd0f8644e09b300000000000000000000000000000000064dab4d0d0c6b94c58b067337f2fac7d0d922cc822562b6bc941a794d96aac5ddb83d1d5844440d21d0a72a69303b8b2d8d4341822dba68c6fd58cfebd07b134c1d0c4e32ff63f7d59addff4df1ec3200000000000000000000000000000000098dd9a20f84fc26e78993a9de4d519aa2f8d343fbee501af945e5943e88425d29beb7ae54481b04175a07bf69b260a30000000000000000000000000000000007ef43e7a56e4e7d532420e152ce566d9055eadb4ef13d5698c49da905a4977fa8a7d3f51c8f5275582e1647984be61e0000000000000000000000000000000003755ee4432ea90f2197c7cc2e191dbbf7950c52a2c1b723f26d2aaf7a38c1b97efa29a312fed599f1199cf186400adc00000000000000000000000000000000150edc463f0a55fc70c2ffdd1f73a3abbdae459eb16adf79e96d18849ca638e6f41c6805b73755968be5cb110d81faa4efa3dab1d7cdf949bd938ca6ac371f953b3bbef1aec7ae76bda37db4c940b3d8000000000000000000000000000000000f7149602cbb3e5f2c5f8edfe59fc0fb8e1f03f89ea192bfe3990d87ccd28d4a80d7cd3003a8cfd669e1b6ff7e3cc5890000000000000000000000000000000006ffbc965bd06de07d8c0a9db8db5ab82d5f11afa1ad8eb92ed4453489f5899cc8c46ff02743956bed81229f64cf6efc00000000000000000000000000000000164cd3271ace4809eadeb1c0f769094272f3b66968690339bdb5da92e920cdc80c9d577ae4fa5b6426a5a6f46fba80bd00000000000000000000000000000000098f0a14a511ff424847d2b4d1b80a049b1f05ecd40af96b7a81def54486e4969011c122ca7dca3444029daeae2ecfc79848d3c53632dc461619c8c522013b83550ef3dc7fda197ba37c9cfe4340f5a50000000000000000000000000000000018409c0d0f37f4932cca87e24eb4d55e75dc98f938420ce036d43689fbdbbd839dc608b21d12a8af1d0a780aeac6617400000000000000000000000000000000109f2294669422a4946f926b1f106c2887893a042e3bf900559429c7fa484da4909216c8dcf826871534981021256741000000000000000000000000000000000a1ded19846e603b958d0bdcc9b554beca784b017d2a35ba117890fd0dbf729428bcd9823c7a378706220377c82a215c0000000000000000000000000000000000eafc89e30e4fc0544497e27674ec5b37ec0849fb382e608e09d0c1c94cb78bcb96ef4ea48e374aad1038881706fbcfcbfd192e917f2e0c4d6253c4e4755f30812149d1ce1ee4ae5540faf1dbfbc13a000000000000000000000000000000000e02cb3e099792ae7508321ce7afa323fd499de90c4006621ef5ce1054d0c934ae058a97ff8aeae0c88709c4d8ed0adf000000000000000000000000000000000e19318f5890320f17d5243adb4683a97e3e9763102c4fc93e3c3e3d24f4f61e0500be916c249dab00094b4ab048fe99000000000000000000000000000000000989faafcf6156472368b282313e076613cfe7ff135eb131b49e58932cbfafecf6585009d1f17ff8941d7f871be23e9e000000000000000000000000000000001167419d097ae8b96993b2e67da79b658adde1e12e43c71f27835845c7077f385612158d3e59fe2cb32b9418463e672679eaf11b3a30c7771ce63cec214416d798de20432670280d997b2f0631007d63000000000000000000000000000000001579b7d03d3d2c8a280e8ca113bcc98afa6a2705a5d228d92807a85cd5a1ee97510f632293a478c3fe0bd383f4b69cdd00000000000000000000000000000000107cc2e6bd02251bfd565b4b848adaa84babe9d4f083e827ceae6bacd9c9c221f0dbbef53278175bf27ebfe5949fcf8c00000000000000000000000000000000018d187c566690e4edd8d8abe5e0a448e352f622c96680378051228b6d081a4914aa51383326aedf45e351612ad6c5d000000000000000000000000000000000197427117a52f82aa6e931ecb0c5ffeec7f73ee8f44c5816935d26c06cc8285200ff9240d98cc244708e00669460f98b43077447b67f65e16a8aeb3564b2d13822e478dfb4a82a15a1c8fb7cc8170cc90000000000000000000000000000000019bd947df5a437a7f1ca2340bec628f2783cc1760dbc4a97ae10093aedd9f64e25ba79d9f4ce678f4fec91a3b1eef2d7000000000000000000000000000000000770e0c39988c9d8eca076464a3e10e274b06b1d2f6230e6dbd8dd59dd9c062f8958c6870c44ff196341bb9f65b8db38000000000000000000000000000000000a1833ef19e2b8e31577e5cd26e0a7fa46a5d25355d8b3dc0605f53714a60423556f3bcf17649745695f68f26570de0b000000000000000000000000000000000f449aed4120f3bef05506f2463f4546c7ea67b9e9110d3942dc256400d063dcc571305b1d4cd2bc3f18cf25319286e8eb64479b496c17d0587f6f26c62752881b6a9228643e8c43f21c441eeb643107000000000000000000000000000000000c1f9688ea64165f894e85b21761a9b2bfce891070103119ae71ff7acd164a57b0e054319631180c22f19eab8607f5b40000000000000000000000000000000005ba18dafcd3552af464acd469b133896e90c9ccd7e3bfc6e05db883f3c6aa1cc4610ec47f6354f6a7cff4385c56d2b3000000000000000000000000000000000fefbd9d78f48683b378d2d6311bf7ffaccaf7aa73a0bb4ce019a0c1d2e1673e52c724bf3a782729ec23d258043efff5000000000000000000000000000000000ea47ebbe3e858c5fcbf5b0cc9017d6ea23bda36e235d2aecbec827fdd2e4b042d1108d5f645b6dcdd786304e6bbf81b52b42f75aebdad1bf433917c025800c4f4e985cc077db3ba36f7484f95764e89000000000000000000000000000000000a313e1bf72d9a176bbad609631192c779e94c293463507edcd1c38bee8f33cfe6104d7169457ad5ffd9f045fce1cadf000000000000000000000000000000000af8db18938c51742b351fffddd74bf1137092ecb50a7e749391bacc9c1a19c7b9cf235b52ed577e7855d4ec1fadd940000000000000000000000000000000000febaa128de79274ef11d3e6378809d5b319796c653604723693c335eda175014b645604271429e3d449e756c85bcf6f0000000000000000000000000000000006adb29cc4ba053fea56d07225d2f7735651c0046f5cbe4a350dcc20431ed9457651d46a5d23d946959cadfc5500b7eae83106e9ea63791eb192e7a035bee27bd049b3a37f080076146eeeea6a7693841ba0045ec6c9e2b077d28f414de0a218e9e995fd7871b0f2f9a6e0d685f3527ebafda0618ec5e6b2beed1dc3ec5cad6609c76910779571270236c58fbbd51463a42f7a"
                }
            ]
        },
        "pre" : {
            "0x095e7baea6a6c7c4c2dfeb977efac326af552d87" : {
                "balance" : "0x00",
                "code" : "0x60806040526004361061001e5760003560e01c806312bd429914610023575b600080fd5b6100fc6004803603604081101561003957600080fd5b81019080803573ffffffffffffffffffffffffffffffffffffffff1690602001909291908035906020019064010000000081111561007657600080fd5b82018360208201111561008857600080fd5b803590602001918460018302840111640100000000831117156100aa57600080fd5b91908080601f016020809104026020016040519081016040528093929190818152602001838380828437600081840152601f19601f820116905080830192505050505050509192919290505050610182565b604051808315151515815260200180602001828103825283818151815260200191508051906020019080838360005b8381101561014657808201518184015260208101905061012b565b50505050905090810190601f1680156101735780820380516001836020036101000a031916815260200191505b50935050505060405180910390f35b600060608373ffffffffffffffffffffffffffffffffffffffff16836040518082805190602001908083835b602083106101d157805182526020820191506020810190506020830392506101ae565b6001836020036101000a038019825116818451168082178552505050505050905001915050600060405180830381855afa9150503d8060008114610231576040519150601f19603f3d011682016040523d82523d6000602084013e610236565b606091505b508092508193505050600060405180807f6572726f72000000000000000000000000000000000000000000000000000000815250600501905060405180910390209050821561028a57818051906020012090505b8060025582829250925050925092905056fea2646970667358221220db58d80e8530eed625d9b4250a6055c2eb1d7c117a7ca267e6f8a059bdd2f39e64736f6c634300060a0033",
                "nonce" : "0x01",
                "storage" : {
                }
            },
            "0xa94f5374fce5edbc8e2a8697c15331677e6ebf0b" : {
                "balance" : "0x0de0b6b3a7640000",
                "code" : "0x",
                "nonce" : "0x00",
                "storage" : {
                }
            }
        },
        "transaction" : {
            "data" : [
                "0x12bd42990000000000000000000000000000000000000000000000000000000000000010000000000000000000000000000000000000000000000000000000000000004000000000000000000000000000000000000000000000000000000000000012000000000000000000000000000000000003113ba8b216d933fe0c81f23f75942c0065d21d8f009d73b1f698281408874e33dd2750fd4298367b81827cf6fdad34000000000000000000000000000000000b8a921e840fc665a786d826f83ca5a9c8f00e7c802bce5473a7d1ebf63e8bb6cf5c4b426153508d874064d1f1dade09000000000000000000000000000000001492ab584088d23d3b0d1283904f9a8f29f9efe47950c6e9ffb9db2123f3f9820b906d672fc7f97f0bd38b8fc0ef44520000000000000000000000000000000010d321c2538f92aad4631af44ae39e63dc06becd2460f0cee0e526328d167fd6cfbcf4edfaafe32d13b5fe66c009533bb16c1bc60e1a9be9a82c93b7e0311e7516a57d687d8907599918df77b3b6caf3000000000000000000000000000000000ae75d01481a51294003041afc4802326ab878a3a75eafcda43cf873cc65e300d28aa986fb82a2d1d649e5be00f956820000000000000000000000000000000017640eeef8982250f88a4d187dcabfcc9adc3ee9194dbc3c04c741690fce5bc7cb07cd0b7c3497191d9ed8558fd0d24c0000000000000000000000000000000007527fd8dacb81b8d1abc746688db6a47211fa71556155d38361921c4bdb2a9e9921a3a540bcf55c6dd751b84c04a1040000000000000000000000000000000008de9109ba354d7426a5313d66cd747a54df347f0f86a3c0f99e9e4b68fc79641fcf98ab39fa23ef6f1a781c48f53f76cf301dfca76a83c70552c9cbc9c80cb20f0d82a70a9d887b04b150fa0764ce2e0000000000000000000000000000000017331b8367f07756e789f7edce4d22f6886656fed78ddacef6987a2751dd3d5d49011a050e7b2a3e11fc8d90266c9d710000000000000000000000000000000016959c303e11f23392f95c1402d1d1ad7f38343c711e96f18d03f832f76e3e81de789a6eaff797ae51079b13571334d40000000000000000000000000000000004266fd13db1ca80196a91263c79d1583b717fb61fd9ce5113e4cd94c59e605152b244e10e364b468c5a561c6fa9715800000000000000000000000000000000026f67cb263be83f3163856f091e9346651c29d4634e242da53b22eb6e66018d235b0f30f8833310dff9f3020e5bd3811cfb94c4e029a2126a9cf5561c677687f52059e4b7f8b7e7e73e5b1dd7f42129000000000000000000000000000000000114d8babd11c81ca2b8a7e193afbe0a8fce426b83996bae6f77201870e51c9355c319dd86b985272f73e0804c0f53700000000000000000000000000000000016f5ea7610891d0e72975816c08e6e25a75c7c42500655f26efdfb384241bbc825358a21caff347d00c8b2391501d15400000000000000000000000000000000199c8c74a79ee90c3606906bbb8cc163c214259e4d0127cee3283bcd9c1ebe4090ca7d7b180201910d3f6f51566d3bdc00000000000000000000000000000000032c785165ad4c1a2846e15318bd7cf5b42ce8b675cb18fcc4232e28701f225f1ea384b276e7a38b2c9e2e8b112f1911d8386fe6f4303959e58165b422e98c4813b1bad7808594473e4e66df09698cf0000000000000000000000000000000000842c65006caed9b53add048a2eea89e1b4584e1deb4365e3dcf8b9ecb02f337bccbe5d6929ef8c20461847f171fd4d600000000000000000000000000000000100dc23e6c1c6f6756419a9bad3133bba052f408a424c5239b8528ad4429a2bce64b72f1463625f7599ce43865581e9600000000000000000000000000000000125b4d71333274a16e52829ad5eaaecdda5c206063473dedec5a8ff4424def70e6f650926948dd2158b403f985a3421b0000000000000000000000000000000006a031e3c002702837e4ad28250b85cd94d42cf7b0d765b980fab95edded7636d13bdef1be63e66682c4e297d0cb2b0302e1c432f3b55ae87ab815647f196be3e138b2f6e9fe7acb9459650246187eb90000000000000000000000000000000003f7091a25da7d5afe6fa6b254604a1abe7a0c6ea11cc1a4167f5f648aa973d888383bc7e987b620d23e688868d318360000000000000000000000000000000016637f888efc3e057227cbefecb3037aebf8e330c3a794e51d691e3bc064237b98351beb746868aef977a83d1fe163ac00000000000000000000000000000000126d2884487984f851d1bd7d61bdb803321f263918e88e0677831563bacc9f5207358d1e9c76a5a25a66f0294f459e3900000000000000000000000000000000125c61b387a4462fa3bb2f06a4cfbd7df082d20cb23ee974aece2ec9a3b0c084d13a7ea83725a05d9f31b8033d2888ef9b0cc0ac499dffd627f5d19b87817dcd67e87561d5244a4b5698265f8c5b767e0000000000000000000000000000000006cf2bc7c691c4f8a64d0aa1ca3760d715b3188a2dd299ab09c723315acba8b0b4bbee819ba06cc564f0c875a63a415b000000000000000000000000000000000bded3d695e471f30f9d723f55826eda112eb0e3fbfb9a377cfa07d6233ed84108b92a79bb491a2971e9afdf83db8e9a0000000000000000000000000000000009b0e9928cb267508d4f9444c6ac3dc6f64f49a70c82c0bcaf4022e97854e5d9ec2612a2cd4d67642dc0451583bcb24d00000000000000000000000000000000009347dcfebe93a2f7674ad02ac48794e7cbffb04dd85b0c8c192fc85cfb9cef40fd11def6f63ae9a923960424eac6a02f3875f81fd39c9b3ec74eb269903dba4173d8eb0e41a196d3131252207ffa040000000000000000000000000000000013e8215c7bbdca445555c9fa0ae44e1905703334bade3294fc047ec262b9e4903880d52851967339eeadd666200b25ae0000000000000000000000000000000003b0bf4498103ac03601a8594b154b59a2a93d663f98ff8dbd2c85a1902e572a9456c629a12651aa87a1262102e1c770000000000000000000000000000000000e8bfd7d3fa0f773e6bcfd0d43a5c436862d1cb6a4ed715093c6782cd94699090c4bde597f65768e963fd0f8644e09b300000000000000000000000000000000064dab4d0d0c6b94c58b067337f2fac7d0d922cc822562b6bc941a794d96aac5ddb83d1d5844440d21d0a72a69303b8b2d8d4341822dba68c6fd58cfebd07b134c1d0c4e32ff63f7d59addff4df1ec3200000000000000000000000000000000098dd9a20f84fc26e78993a9de4d519aa2f8d343fbee501af945e5943e88425d29beb7ae54481b04175a07bf69b260a30000000000000000000000000000000007ef43e7a56e4e7d532420e152ce566d9055eadb4ef13d5698c49da905a4977fa8a7d3f51c8f5275582e1647984be61e0000000000000000000000000000000003755ee4432ea90f2197c7cc2e191dbbf7950c52a2c1b723f26d2aaf7a38c1b97efa29a312fed599f1199cf186400adc00000000000000000000000000000000150edc463f0a55fc70c2ffdd1f73a3abbdae459eb16adf79e96d18849ca638e6f41c6805b73755968be5cb110d81faa4efa3dab1d7cdf949bd938ca6ac371f953b3bbef1aec7ae76bda37db4c940b3d8000000000000000000000000000000000f7149602cbb3e5f2c5f8edfe59fc0fb8e1f03f89ea192bfe3990d87ccd28d4a80d7cd3003a8cfd669e1b6ff7e3cc5890000000000000000000000000000000006ffbc965bd06de07d8c0a9db8db5ab82d5f11afa1ad8eb92ed4453489f5899cc8c46ff02743956bed81229f64cf6efc00000000000000000000000000000000164cd3271ace4809eadeb1c0f769094272f3b66968690339bdb5da92e920cdc80c9d577ae4fa5b6426a5a6f46fba80bd00000000000000000000000000000000098f0a14a511ff424847d2b4d1b80a049b1f05ecd40af96b7a81def54486e4969011c122ca7dca3444029daeae2ecfc79848d3c53632dc461619c8c522013b83550ef3dc7fda197ba37c9cfe4340f5a50000000000000000000000000000000018409c0d0f37f4932cca87e24eb4d55e75dc98f938420ce036d43689fbdbbd839dc608b21d12a8af1d0a780aeac6617400000000000000000000000000000000109f2294669422a4946f926b1f106c2887893a042e3bf900559429c7fa484da4909216c8dcf826871534981021256741000000000000000000000000000000000a1ded19846e603b958d0bdcc9b554beca784b017d2a35ba117890fd0dbf729428bcd9823c7a378706220377c82a215c0000000000000000000000000000000000eafc89e30e4fc0544497e27674ec5b37ec0849fb382e608e09d0c1c94cb78bcb96ef4ea48e374aad1038881706fbcfcbfd192e917f2e0c4d6253c4e4755f30812149d1ce1ee4ae5540faf1dbfbc13a000000000000000000000000000000000e02cb3e099792ae7508321ce7afa323fd499de90c4006621ef5ce1054d0c934ae058a97ff8aeae0c88709c4d8ed0adf000000000000000000000000000000000e19318f5890320f17d5243adb4683a97e3e9763102c4fc93e3c3e3d24f4f61e0500be916c249dab00094b4ab048fe99000000000000000000000000000000000989faafcf6156472368b282313e076613cfe7ff135eb131b49e58932cbfafecf6585009d1f17ff8941d7f871be23e9e000000000000000000000000000000001167419d097ae8b96993b2e67da79b658adde1e12e43c71f27835845c7077f385612158d3e59fe2cb32b9418463e672679eaf11b3a30c7771ce63cec214416d798de20432670280d997b2f0631007d63000000000000000000000000000000001579b7d03d3d2c8a280e8ca113bcc98afa6a2705a5d228d92807a85cd5a1ee97510f632293a478c3fe0bd383f4b69cdd00000000000000000000000000000000107cc2e6bd02251bfd565b4b848adaa84babe9d4f083e827ceae6bacd9c9c221f0dbbef53278175bf27ebfe5949fcf8c00000000000000000000000000000000018d187c566690e4edd8d8abe5e0a448e352f622c96680378051228b6d081a4914aa51383326aedf45e351612ad6c5d000000000000000000000000000000000197427117a52f82aa6e931ecb0c5ffeec7f73ee8f44c5816935d26c06cc8285200ff9240d98cc244708e00669460f98b43077447b67f65e16a8aeb3564b2d13822e478dfb4a82a15a1c8fb7cc8170cc90000000000000000000000000000000019bd947df5a437a7f1ca2340bec628f2783cc1760dbc4a97ae10093aedd9f64e25ba79d9f4ce678f4fec91a3b1eef2d7000000000000000000000000000000000770e0c39988c9d8eca076464a3e10e274b06b1d2f6230e6dbd8dd59dd9c062f8958c6870c44ff196341bb9f65b8db38000000000000000000000000000000000a1833ef19e2b8e31577e5cd26e0a7fa46a5d25355d8b3dc0605f53714a60423556f3bcf17649745695f68f26570de0b000000000000000000000000000000000f449aed4120f3bef05506f2463f4546c7ea67b9e9110d3942dc256400d063dcc571305b1d4cd2bc3f18cf25319286e8eb64479b496c17d0587f6f26c62752881b6a9228643e8c43f21c441eeb643107000000000000000000000000000000000c1f9688ea64165f894e85b21761a9b2bfce891070103119ae71ff7acd164a57b0e054319631180c22f19eab8607f5b40000000000000000000000000000000005ba18dafcd3552af464acd469b133896e90c9ccd7e3bfc6e05db883f3c6aa1cc4610ec47f6354f6a7cff4385c56d2b3000000000000000000000000000000000fefbd9d78f48683b378d2d6311bf7ffaccaf7aa73a0bb4ce019a0c1d2e1673e52c724bf3a782729ec23d258043efff5000000000000000000000000000000000ea47ebbe3e858c5fcbf5b0cc9017d6ea23bda36e235d2aecbec827fdd2e4b042d1108d5f645b6dcdd786304e6bbf81b52b42f75aebdad1bf433917c025800c4f4e985cc077db3ba36f7484f95764e89000000000000000000000000000000000a313e1bf72d9a176bbad609631192c779e94c293463507edcd1c38bee8f33cfe6104d7169457ad5ffd9f045fce1cadf000000000000000000000000000000000af8db18938c51742b351fffddd74bf1137092ecb50a7e749391bacc9c1a19c7b9cf235b52ed577e7855d4ec1fadd940000000000000000000000000000000000febaa128de79274ef11d3e6378809d5b319796c653604723693c335eda175014b645604271429e3d449e756c85bcf6f0000000000000000000000000000000006adb29cc4ba053fea56d07225d2f7735651c0046f5cbe4a350dcc20431ed9457651d46a5d23d946959cadfc5500b7eae83106e9ea63791eb192e7a035bee27bd049b3a37f080076146eeeea6a769384"
            ],
            "gasLimit" : [
                "0x6acfc0"
            ],
            "gasPrice" : "0x0a",
            "nonce" : "0x00",
            "secretKey" : "0x45a915e4d060149eb4365960e6a7a45f334393093061116b197e3240065ff2d8",
            "sender" : "0xa94f5374fce5edbc8e2a8697c15331677e6ebf0b",
            "to" : "0x095e7baea6a6c7c4c2dfeb977efac326af552d87",
            "value" : [
                "0x03e8"
            ]
        }
    }
}