{
    "g2_mul_86" : {
        "_info" : {
            "comment" : "A test for g2_mul_86",
            "filling-rpc-server" : "evm version 1.14.0-unstable-a208e725-20240416",
            "filling-tool-version" : "retesteth-0.3.2-cancun+commit.353b2b37.Linux.g++",
            "generatedTestHash" : "07e9960cb4d501d36c8d3c95ac42338e293899fa0ca3617861a507544c03bcbc",
            "lllcversion" : "Version: 0.5.14-develop.2023.7.11+commit.c58ab2c6.mod.Linux.g++",
            "solidity" : "Version: 0.8.21+commit.d9974bed.Linux.g++",
            "source" : "src/EIPTestsFiller/StateTests/stEIP2537/g2_mul_86Filler.json",
            "sourceHash" : "4a463b92b969a3af86c024a5053b1afea8fddd6f9325048a8177eb6cb7cf0cc6"
        },
        "env" : {
            "currentBaseFee" : "0x0a",
            "currentCoinbase" : "0x2adc25665018aa1fe0e6bc666dac8fc2697ff9ba",
            "currentDifficulty" : "0x020000",
            "currentExcessBlobGas" : "0x00",
            "currentGasLimit" : "0xff112233445566",
            "currentNumber" : "0x01",
            "currentRandom" : "0x0000000000000000000000000000000000000000000000000000000000020000",
            "currentTimestamp" : "0x03e8"
        },
        "post" : {
            "Prague" : [
                {
                    "hash" : "0x41814057abb654ed56934eb76edd1ca92aef95abe380ff21375618132c63c7e5",
                    "indexes" : {
                        "data" : 0,
                        "gas" : 0,
                        "value" : 0
                    },
                    "logs" : "0x1dcc4de8dec75d7aab85b567b6ccd41ad312451b948a7413f0a142fd40d49347",
                    "txbytes" : "0xf901e8800a836acfc094095e7baea6a6c7c4c2dfeb977efac326af552d878203e8b9018412bd4299000000000000000000000000000000000000000000000000000000000000000f0000000000000000000000000000000000000000000000000000000000000040000000000000000000000000000000000000000000000000000000000000012000000000000000000000000000000000180569ce03e4a0155285e733adb18fbca71225507a7adf01cb8e8648891525305e92087f58378f4fd8455d5632ad660e0000000000000000000000000000000011ab84e42f10154e306a568d7cf7bc381000f0add0500cb508f695a3b283ea69d140aa0ad48fce2d2d6fcafe60761078000000000000000000000000000000001136c3016474d6f475609606e8d0269fcdab9fd3188a512681cbc41eedeadfa3b3d9355e5b4503e8b5c3665e49fdf3ab0000000000000000000000000000000003f56cba1b9cb4302099b16b09c2602dfab80d1151685ef78e5054cd454b319adf8b5998053a5b9fddcffa020595e3bfc48b98edd9c229037751d02e58f3d4234d9a3b0ad9ae4947ae14beebb274746f1ca0181fcdc3b3fa1f16e6da88a98ccc4db46f800f6f39c9a82b8ba2ad4db61bd429a03d024bc6b133b003fae1d4aaef212e610d1db8e264ad2c0b378c271dc39154b2"
                }
            ]
        },
        "pre" : {
            "0x095e7baea6a6c7c4c2dfeb977efac326af552d87" : {
                "balance" : "0x00",
                "code" : "0x60806040526004361061001e5760003560e01c806312bd429914610023575b600080fd5b6100fc6004803603604081101561003957600080fd5b81019080803573ffffffffffffffffffffffffffffffffffffffff1690602001909291908035906020019064010000000081111561007657600080fd5b82018360208201111561008857600080fd5b803590602001918460018302840111640100000000831117156100aa57600080fd5b91908080601f016020809104026020016040519081016040528093929190818152602001838380828437600081840152601f19601f820116905080830192505050505050509192919290505050610182565b604051808315151515815260200180602001828103825283818151815260200191508051906020019080838360005b8381101561014657808201518184015260208101905061012b565b50505050905090810190601f1680156101735780820380516001836020036101000a031916815260200191505b50935050505060405180910390f35b600060608373ffffffffffffffffffffffffffffffffffffffff16836040518082805190602001908083835b602083106101d157805182526020820191506020810190506020830392506101ae565b6001836020036101000a038019825116818451168082178552505050505050905001915050600060405180830381855afa9150503d8060008114610231576040519150601f19603f3d011682016040523d82523d6000602084013e610236565b606091505b508092508193505050600060405180807f6572726f72000000000000000000000000000000000000000000000000000000815250600501905060405180910390209050821561028a57818051906020012090505b8060025582829250925050925092905056fea2646970667358221220db58d80e8530eed625d9b4250a6055c2eb1d7c117a7ca267e6f8a059bdd2f39e64736f6c634300060a0033",
                "nonce" : "0x01",
                "storage" : {
                }
            },
            "0xa94f5374fce5edbc8e2a8697c15331677e6ebf0b" : {
                "balance" : "0x0de0b6b3a7640000",
                "code" : "0x",
                "nonce" : "0x00",
                "storage" : {
                }
            }
        },
        "transaction" : {
            "data" : [
                "0x12bd4299000000000000000000000000000000000000000000000000000000000000000f0000000000000000000000000000000000000000000000000000000000000040000000000000000000000000000000000000000000000000000000000000012000000000000000000000000000000000180569ce03e4a0155285e733adb18fbca71225507a7adf01cb8e8648891525305e92087f58378f4fd8455d5632ad660e0000000000000000000000000000000011ab84e42f10154e306a568d7cf7bc381000f0add0500cb508f695a3b283ea69d140aa0ad48fce2d2d6fcafe60761078000000000000000000000000000000001136c3016474d6f475609606e8d0269fcdab9fd3188a512681cbc41eedeadfa3b3d9355e5b4503e8b5c3665e49fdf3ab0000000000000000000000000000000003f56cba1b9cb4302099b16b09c2602dfab80d1151685ef78e5054cd454b319adf8b5998053a5b9fddcffa020595e3bfc48b98edd9c229037751d02e58f3d4234d9a3b0ad9ae4947ae14beebb274746f"
            ],
            "gasLimit" : [
                "0x6acfc0"
            ],
            "gasPrice" : "0x0a",
            "nonce" : "0x00",
            "secretKey" : "0x45a915e4d060149eb4365960e6a7a45f334393093061116b197e3240065ff2d8",
            "sender" : "0xa94f5374fce5edbc8e2a8697c15331677e6ebf0b",
            "to" : "0x095e7baea6a6c7c4c2dfeb977efac326af552d87",
            "value" : [
                "0x03e8"
            ]
        }
    }
}