{
    "g2_not_on_curve_71" : {
        "_info" : {
            "comment" : "A test for g2_not_on_curve_71",
            "filling-rpc-server" : "evm version 1.14.0-unstable-a208e725-20240416",
            "filling-tool-version" : "retesteth-0.3.2-cancun+commit.353b2b37.Linux.g++",
            "generatedTestHash" : "0093796e741142e89c4955dd923d4aaacbb6b4d235ed2d889fafb42fcc4de9c6",
            "lllcversion" : "Version: 0.5.14-develop.2023.7.11+commit.c58ab2c6.mod.Linux.g++",
            "solidity" : "Version: 0.8.21+commit.d9974bed.Linux.g++",
            "source" : "src/EIPTestsFiller/StateTests/stEIP2537/g2_not_on_curve_71Filler.json",
            "sourceHash" : "79a7c63794c4c1b66455624b167871b43a3f348542e6f8482dd24d85fdb6c738"
        },
        "env" : {
            "currentBaseFee" : "0x0a",
            "currentCoinbase" : "0x2adc25665018aa1fe0e6bc666dac8fc2697ff9ba",
            "currentDifficulty" : "0x020000",
            "currentExcessBlobGas" : "0x00",
            "currentGasLimit" : "0xff112233445566",
            "currentNumber" : "0x01",
            "currentRandom" : "0x0000000000000000000000000000000000000000000000000000000000020000",
            "currentTimestamp" : "0x03e8"
        },
        "post" : {
            "Prague" : [
                {
                    "hash" : "0xa25633d33c2de5546cbd100d75ca94eda8be7a152b01259259dc4652e40b9bb5",
                    "indexes" : {
                        "data" : 0,
                        "gas" : 0,
                        "value" : 0
                    },
                    "logs" : "0x1dcc4de8dec75d7aab85b567b6ccd41ad312451b948a7413f0a142fd40d49347",
                    "txbytes" : "0xf901e8800a836acfc094095e7baea6a6c7c4c2dfeb977efac326af552d878203e8b9018412bd4299000000000000000000000000000000000000000000000000000000000000000e00000000000000000000000000000000000000000000000000000000000000400000000000000000000000000000000000000000000000000000000000000120000000000000000000000000000000000030372914b83644fa4db1958831e9335c72ab7a811fb337696221a3290e4c54bc10c2225f8fdc3a9f62632ba2f1594500000000000000000000000000000000114205926609470b6022d24046a1997c048e6d2cf6043397892c967692161c0ceedf409bf5e1199a64eabb1ff8de23640000000000000000000000000000000017cdecbe73779855b7b94920d4bc8ad057ce51c5481a5579650df8a5bbc421030d2ac44568217c4dbb13d7c639760237000000000000000000000000000000000f194fa814bfa7396697bd812d9449d06fc61b580d7a86429fdd1ad376e21ceca139356d7d13964c3c684563675711c67a02c61a7a75342ee7f0745886c0ea2a73c21500aef8078d21d20b7216c2990e1ba057e38882b9b21cb9605bf96cd14ac88aed24f1da4d652a9e5a52e97117c32148a07e055a7c329bf832349fd3c7479caea79f2c12bac9eb6533bd2b832a1c4bb3f0"
                }
            ]
        },
        "pre" : {
            "0x095e7baea6a6c7c4c2dfeb977efac326af552d87" : {
                "balance" : "0x00",
                "code" : "0x60806040526004361061001e5760003560e01c806312bd429914610023575b600080fd5b6100fc6004803603604081101561003957600080fd5b81019080803573ffffffffffffffffffffffffffffffffffffffff1690602001909291908035906020019064010000000081111561007657600080fd5b82018360208201111561008857600080fd5b803590602001918460018302840111640100000000831117156100aa57600080fd5b91908080601f016020809104026020016040519081016040528093929190818152602001838380828437600081840152601f19601f820116905080830192505050505050509192919290505050610182565b604051808315151515815260200180602001828103825283818151815260200191508051906020019080838360005b8381101561014657808201518184015260208101905061012b565b50505050905090810190601f1680156101735780820380516001836020036101000a031916815260200191505b50935050505060405180910390f35b600060608373ffffffffffffffffffffffffffffffffffffffff16836040518082805190602001908083835b602083106101d157805182526020820191506020810190506020830392506101ae565b6001836020036101000a038019825116818451168082178552505050505050905001915050600060405180830381855afa9150503d8060008114610231576040519150601f19603f3d011682016040523d82523d6000602084013e610236565b606091505b508092508193505050600060405180807f6572726f72000000000000000000000000000000000000000000000000000000815250600501905060405180910390209050821561028a57818051906020012090505b8060025582829250925050925092905056fea2646970667358221220db58d80e8530eed625d9b4250a6055c2eb1d7c117a7ca267e6f8a059bdd2f39e64736f6c634300060a0033",
                "nonce" : "0x01",
                "storage" : {
                }
            },
            "0xa94f5374fce5edbc8e2a8697c15331677e6ebf0b" : {
                "balance" : "0x0de0b6b3a7640000",
                "code" : "0x",
                "nonce" : "0x00",
                "storage" : {
                }
            }
        },
        "transaction" : {
            "data" : [
                "0x12bd4299000000000000000000000000000000000000000000000000000000000000000e00000000000000000000000000000000000000000000000000000000000000400000000000000000000000000000000000000000000000000000000000000120000000000000000000000000000000000030372914b83644fa4db1958831e9335c72ab7a811fb337696221a3290e4c54bc10c2225f8fdc3a9f62632ba2f1594500000000000000000000000000000000114205926609470b6022d24046a1997c048e6d2cf6043397892c967692161c0ceedf409bf5e1199a64eabb1ff8de23640000000000000000000000000000000017cdecbe73779855b7b94920d4bc8ad057ce51c5481a5579650df8a5bbc421030d2ac44568217c4dbb13d7c639760237000000000000000000000000000000000f194fa814bfa7396697bd812d9449d06fc61b580d7a86429fdd1ad376e21ceca139356d7d13964c3c684563675711c67a02c61a7a75342ee7f0745886c0ea2a73c21500aef8078d21d20b7216c2990e"
            ],
            "gasLimit" : [
                "0x6acfc0"
            ],
            "gasPrice" : "0x0a",
            "nonce" : "0x00",
            "secretKey" : "0x45a915e4d060149eb4365960e6a7a45f334393093061116b197e3240065ff2d8",
            "sender" : "0xa94f5374fce5edbc8e2a8697c15331677e6ebf0b",
            "to" : "0x095e7baea6a6c7c4c2dfeb977efac326af552d87",
            "value" : [
                "0x03e8"
            ]
        }
    }
}