{
    "invalid_subgroup_for_pairing_52" : {
        "_info" : {
            "comment" : "A test for invalid_subgroup_for_pairing_52",
            "filling-rpc-server" : "evm version 1.14.0-unstable-a208e725-20240416",
            "filling-tool-version" : "retesteth-0.3.2-cancun+commit.353b2b37.Linux.g++",
            "generatedTestHash" : "6b6b85c603a10f2813e1576173ea063c991d9d034989f367c06068bead4163ac",
            "lllcversion" : "Version: 0.5.14-develop.2023.7.11+commit.c58ab2c6.mod.Linux.g++",
            "solidity" : "Version: 0.8.21+commit.d9974bed.Linux.g++",
            "source" : "src/EIPTestsFiller/StateTests/stEIP2537/invalid_subgroup_for_pairing_52Filler.json",
            "sourceHash" : "86dc4b9a5424b31cbbc3e3fa8cc17958269851f425b16a2c6b9c56a0b039059e"
        },
        "env" : {
            "currentBaseFee" : "0x0a",
            "currentCoinbase" : "0x2adc25665018aa1fe0e6bc666dac8fc2697ff9ba",
            "currentDifficulty" : "0x020000",
            "currentExcessBlobGas" : "0x00",
            "currentGasLimit" : "0xff112233445566",
            "currentNumber" : "0x01",
            "currentRandom" : "0x0000000000000000000000000000000000000000000000000000000000020000",
            "currentTimestamp" : "0x03e8"
        },
        "post" : {
            "Prague" : [
                {
                    "hash" : "0xe4bcd4990d65bb6ab7230d0ffe238e670129011029d80f76ddd958c345a93985",
                    "indexes" : {
                        "data" : 0,
                        "gas" : 0,
                        "value" : 0
                    },
                    "logs" : "0x1dcc4de8dec75d7aab85b567b6ccd41ad312451b948a7413f0a142fd40d49347",
                    "txbytes" : "0xf903c8800a836acfc094095e7baea6a6c7c4c2dfeb977efac326af552d878203e8b9036412bd429900000000000000000000000000000000000000000000000000000000000000110000000000000000000000000000000000000000000000000000000000000040000000000000000000000000000000000000000000000000000000000000030000000000000000000000000000000000054dce4bc0b703b8957539c594d8d443fec161c3cb2f806f8eaa8158a665d84cfd551c0b7c0a08bede0cbeb780a6ca5b000000000000000000000000000000000cb3d3f9bbda28f8fe597907a76a8250567f4e481b6e9409e03ead60eab77153cf8f25ffcebb243a310094740cc2e2a9000000000000000000000000000000000a71dc159647864abd64655bf5ef956f21ad55529bdb49ac910ef628cc62a3d43b2b9ee26180232fa29f4b0e8371286b000000000000000000000000000000000c72d0fbe0a7604c9fab394b285ebf1c322c95013651bd21f88865e269eafa65e135ff90f5b249a794cef4e6cfcb56270000000000000000000000000000000019ac0043071372ba077bc8d91a4ac80fb5b8c8131981c4dfc698ba9ae50b506f93149eb73e4bc4f4ded94d6824473817000000000000000000000000000000000113368be2a531d2958d887c046fc26155436fc6a1ef44fdf16447163b7bc48fbb499506d8d5c8041d21116c4f22e685000000000000000000000000000000000b7244995b7819857f716288dc59eee9ba5ac7bfe010937ea0b67ee71388a3792e5b7feb6890a436db4f1b26df18b38c0000000000000000000000000000000009a0b73360bc0ca3b632c0116f21ffdaecf37e4d6c904c98d6225a08d7caadf5024ad6b457cf31b924118ea147ff10fb000000000000000000000000000000000a71dc159647864abd64655bf5ef956f21ad55529bdb49ac910ef628cc62a3d43b2b9ee26180232fa29f4b0e8371286b000000000000000000000000000000000c72d0fbe0a7604c9fab394b285ebf1c322c95013651bd21f88865e269eafa65e135ff90f5b249a794cef4e6cfcb56270000000000000000000000000000000019ac0043071372ba077bc8d91a4ac80fb5b8c8131981c4dfc698ba9ae50b506f93149eb73e4bc4f4ded94d6824473817000000000000000000000000000000000113368be2a531d2958d887c046fc26155436fc6a1ef44fdf16447163b7bc48fbb499506d8d5c8041d21116c4f22e6851ba0af733801caef5423389e84378d519cafb0af9a27aa0894438301c4cea3da9d8ca0473c63446a5f664515fea67c1dc0a6fc560ad886518d4158f2e902c9b99cbc26"
                }
            ]
        },
        "pre" : {
            "0x095e7baea6a6c7c4c2dfeb977efac326af552d87" : {
                "balance" : "0x00",
                "code" : "0x60806040526004361061001e5760003560e01c806312bd429914610023575b600080fd5b6100fc6004803603604081101561003957600080fd5b81019080803573ffffffffffffffffffffffffffffffffffffffff1690602001909291908035906020019064010000000081111561007657600080fd5b82018360208201111561008857600080fd5b803590602001918460018302840111640100000000831117156100aa57600080fd5b91908080601f016020809104026020016040519081016040528093929190818152602001838380828437600081840152601f19601f820116905080830192505050505050509192919290505050610182565b604051808315151515815260200180602001828103825283818151815260200191508051906020019080838360005b8381101561014657808201518184015260208101905061012b565b50505050905090810190601f1680156101735780820380516001836020036101000a031916815260200191505b50935050505060405180910390f35b600060608373ffffffffffffffffffffffffffffffffffffffff16836040518082805190602001908083835b602083106101d157805182526020820191506020810190506020830392506101ae565b6001836020036101000a038019825116818451168082178552505050505050905001915050600060405180830381855afa9150503d8060008114610231576040519150601f19603f3d011682016040523d82523d6000602084013e610236565b606091505b508092508193505050600060405180807f6572726f72000000000000000000000000000000000000000000000000000000815250600501905060405180910390209050821561028a57818051906020012090505b8060025582829250925050925092905056fea2646970667358221220db58d80e8530eed625d9b4250a6055c2eb1d7c117a7ca267e6f8a059bdd2f39e64736f6c634300060a0033",
                "nonce" : "0x01",
                "storage" : {
                }
            },
            "0xa94f5374fce5edbc8e2a8697c15331677e6ebf0b" : {
                "balance" : "0x0de0b6b3a7640000",
                "code" : "0x",
                "nonce" : "0x00",
                "storage" : {
                }
            }
        },
        "transaction" : {
            "data" : [
                "0x12bd429900000000000000000000000000000000000000000000000000000000000000110000000000000000000000000000000000000000000000000000000000000040000000000000000000000000000000000000000000000000000000000000030000000000000000000000000000000000054dce4bc0b703b8957539c594d8d443fec161c3cb2f806f8eaa8158a665d84cfd551c0b7c0a08bede0cbeb780a6ca5b000000000000000000000000000000000cb3d3f9bbda28f8fe597907a76a8250567f4e481b6e9409e03ead60eab77153cf8f25ffcebb243a310094740cc2e2a9000000000000000000000000000000000a71dc159647864abd64655bf5ef956f21ad55529bdb49ac910ef628cc62a3d43b2b9ee26180232fa29f4b0e8371286b000000000000000000000000000000000c72d0fbe0a7604c9fab394b285ebf1c322c95013651bd21f88865e269eafa65e135ff90f5b249a794cef4e6cfcb56270000000000000000000000000000000019ac0043071372ba077bc8d91a4ac80fb5b8c8131981c4dfc698ba9ae50b506f93149eb73e4bc4f4ded94d6824473817000000000000000000000000000000000113368be2a531d2958d887c046fc26155436fc6a1ef44fdf16447163b7bc48fbb499506d8d5c8041d21116c4f22e685000000000000000000000000000000000b7244995b7819857f716288dc59eee9ba5ac7bfe010937ea0b67ee71388a3792e5b7feb6890a436db4f1b26df18b38c0000000000000000000000000000000009a0b73360bc0ca3b632c0116f21ffdaecf37e4d6c904c98d6225a08d7caadf5024ad6b457cf31b924118ea147ff10fb000000000000000000000000000000000a71dc159647864abd64655bf5ef956f21ad55529bdb49ac910ef628cc62a3d43b2b9ee26180232fa29f4b0e8371286b000000000000000000000000000000000c72d0fbe0a7604c9fab394b285ebf1c322c95013651bd21f88865e269eafa65e135ff90f5b249a794cef4e6cfcb56270000000000000000000000000000000019ac0043071372ba077bc8d91a4ac80fb5b8c8131981c4dfc698ba9ae50b506f93149eb73e4bc4f4ded94d6824473817000000000000000000000000000000000113368be2a531d2958d887c046fc26155436fc6a1ef44fdf16447163b7bc48fbb499506d8d5c8041d21116c4f22e685"
            ],
            "gasLimit" : [
                "0x6acfc0"
            ],
            "gasPrice" : "0x0a",
            "nonce" : "0x00",
            "secretKey" : "0x45a915e4d060149eb4365960e6a7a45f334393093061116b197e3240065ff2d8",
            "sender" : "0xa94f5374fce5edbc8e2a8697c15331677e6ebf0b",
            "to" : "0x095e7baea6a6c7c4c2dfeb977efac326af552d87",
            "value" : [
                "0x03e8"
            ]
        }
    }
}