{
    "invalid_subgroup_for_pairing_53" : {
        "_info" : {
            "comment" : "A test for invalid_subgroup_for_pairing_53",
            "filling-rpc-server" : "evm version 1.14.0-unstable-a208e725-20240416",
            "filling-tool-version" : "retesteth-0.3.2-cancun+commit.353b2b37.Linux.g++",
            "generatedTestHash" : "e67df5d4b6ecaa15e35479b25e5ea03787960c0d49d05103a9ac703f0a6d6756",
            "lllcversion" : "Version: 0.5.14-develop.2023.7.11+commit.c58ab2c6.mod.Linux.g++",
            "solidity" : "Version: 0.8.21+commit.d9974bed.Linux.g++",
            "source" : "src/EIPTestsFiller/StateTests/stEIP2537/invalid_subgroup_for_pairing_53Filler.json",
            "sourceHash" : "605a7c4da52b6c05f454e1dc98da4bc9b7b52a65a9dfde0d8bccce22809d2ccc"
        },
        "env" : {
            "currentBaseFee" : "0x0a",
            "currentCoinbase" : "0x2adc25665018aa1fe0e6bc666dac8fc2697ff9ba",
            "currentDifficulty" : "0x020000",
            "currentExcessBlobGas" : "0x00",
            "currentGasLimit" : "0xff112233445566",
            "currentNumber" : "0x01",
            "currentRandom" : "0x0000000000000000000000000000000000000000000000000000000000020000",
            "currentTimestamp" : "0x03e8"
        },
        "post" : {
            "Prague" : [
                {
                    "hash" : "0xe4bcd4990d65bb6ab7230d0ffe238e670129011029d80f76ddd958c345a93985",
                    "indexes" : {
                        "data" : 0,
                        "gas" : 0,
                        "value" : 0
                    },
                    "logs" : "0x1dcc4de8dec75d7aab85b567b6ccd41ad312451b948a7413f0a142fd40d49347",
                    "txbytes" : "0xf903c8800a836acfc094095e7baea6a6c7c4c2dfeb977efac326af552d878203e8b9036412bd4299000000000000000000000000000000000000000000000000000000000000001100000000000000000000000000000000000000000000000000000000000000400000000000000000000000000000000000000000000000000000000000000300000000000000000000000000000000000cc6bbb9914ae46b57eaaa8d3d22274a355bd7488e5b537169c995ef2bee187ab66497423f14fdcd01373a609981b3ea000000000000000000000000000000000037d9461da369d186cd812a9ade7690b2b8b54ae386b7342a69af832ff4f51e5db9baa3c6b4a65d798a1aeb41d8787d0000000000000000000000000000000013a6e129d4dd4aa93cff5489ee879763e2a2231939e609d2d72f07e630b37d09f3057a36fd5cdfc9c81675c996f8ba0f000000000000000000000000000000000e8d7ad082e8f9a718fc2ea712853ed9ab4e8b1a8ca9988f77c70fc759f1fe2d4bd73696e539f130be13b2862efbdf770000000000000000000000000000000009897223b041568c9ef2884baa28477241e525de05f2c2f15441854a0e8660786a0c7b85a6d9d1074fed2b44d75efedb0000000000000000000000000000000007b52401891bd8003af4b07b04b15b79bd05fcb54739491352d295b5545ddba34da0b0aff36a3e7e4b433011be580174000000000000000000000000000000000cc6bbb9914ae46b57eaaa8d3d22274a355bd7488e5b537169c995ef2bee187ab66497423f14fdcd01373a609981b3ea000000000000000000000000000000000037d9461da369d186cd812a9ade7690b2b8b54ae386b7342a69af832ff4f51e5db9baa3c6b4a65d798a1aeb41d8787d000000000000000000000000000000000cca0d111237ec521889baa4987714c6bb539399b058b6635fd043821377fd6cfdb74923610c8235afe2be99188cbe820000000000000000000000000000000007fa2b99221675b38204c2eea94b2378b1d711ea5ba4f41d35c37f77ee2466f22c88725da9fcdabb6153292b7cd9aa1e000000000000000000000000000000001069adc30f99e0ddfd39775cee5ddd786fcc077cbaa8737f7031745d02f06168fd5d3c4936704d15955bcfa08b0925180000000000000000000000000000000003b388a8d9baabf0bf708e2fe28eacd7f704bc588185adbcea8e0a2bb8f9bc9b045918d97bb27b2033c6722b6e6692de1ca0b473edc620b21251fb480c356e376d768406de93a80de5e3c2308b26f163ab0ba0102cf8e4a346f2871f35def0bbed534041db783b4602611bfe30b89d545289c2"
                }
            ]
        },
        "pre" : {
            "0x095e7baea6a6c7c4c2dfeb977efac326af552d87" : {
                "balance" : "0x00",
                "code" : "0x60806040526004361061001e5760003560e01c806312bd429914610023575b600080fd5b6100fc6004803603604081101561003957600080fd5b81019080803573ffffffffffffffffffffffffffffffffffffffff1690602001909291908035906020019064010000000081111561007657600080fd5b82018360208201111561008857600080fd5b803590602001918460018302840111640100000000831117156100aa57600080fd5b91908080601f016020809104026020016040519081016040528093929190818152602001838380828437600081840152601f19601f820116905080830192505050505050509192919290505050610182565b604051808315151515815260200180602001828103825283818151815260200191508051906020019080838360005b8381101561014657808201518184015260208101905061012b565b50505050905090810190601f1680156101735780820380516001836020036101000a031916815260200191505b50935050505060405180910390f35b600060608373ffffffffffffffffffffffffffffffffffffffff16836040518082805190602001908083835b602083106101d157805182526020820191506020810190506020830392506101ae565b6001836020036101000a038019825116818451168082178552505050505050905001915050600060405180830381855afa9150503d8060008114610231576040519150601f19603f3d011682016040523d82523d6000602084013e610236565b606091505b508092508193505050600060405180807f6572726f72000000000000000000000000000000000000000000000000000000815250600501905060405180910390209050821561028a57818051906020012090505b8060025582829250925050925092905056fea2646970667358221220db58d80e8530eed625d9b4250a6055c2eb1d7c117a7ca267e6f8a059bdd2f39e64736f6c634300060a0033",
                "nonce" : "0x01",
                "storage" : {
                }
            },
            "0xa94f5374fce5edbc8e2a8697c15331677e6ebf0b" : {
                "balance" : "0x0de0b6b3a7640000",
                "code" : "0x",
                "nonce" : "0x00",
                "storage" : {
                }
            }
        },
        "transaction" : {
            "data" : [
                "0x12bd4299000000000000000000000000000000000000000000000000000000000000001100000000000000000000000000000000000000000000000000000000000000400000000000000000000000000000000000000000000000000000000000000300000000000000000000000000000000000cc6bbb9914ae46b57eaaa8d3d22274a355bd7488e5b537169c995ef2bee187ab66497423f14fdcd01373a609981b3ea000000000000000000000000000000000037d9461da369d186cd812a9ade7690b2b8b54ae386b7342a69af832ff4f51e5db9baa3c6b4a65d798a1aeb41d8787d0000000000000000000000000000000013a6e129d4dd4aa93cff5489ee879763e2a2231939e609d2d72f07e630b37d09f3057a36fd5cdfc9c81675c996f8ba0f000000000000000000000000000000000e8d7ad082e8f9a718fc2ea712853ed9ab4e8b1a8ca9988f77c70fc759f1fe2d4bd73696e539f130be13b2862efbdf770000000000000000000000000000000009897223b041568c9ef2884baa28477241e525de05f2c2f15441854a0e8660786a0c7b85a6d9d1074fed2b44d75efedb0000000000000000000000000000000007b52401891bd8003af4b07b04b15b79bd05fcb54739491352d295b5545ddba34da0b0aff36a3e7e4b433011be580174000000000000000000000000000000000cc6bbb9914ae46b57eaaa8d3d22274a355bd7488e5b537169c995ef2bee187ab66497423f14fdcd01373a609981b3ea000000000000000000000000000000000037d9461da369d186cd812a9ade7690b2b8b54ae386b7342a69af832ff4f51e5db9baa3c6b4a65d798a1aeb41d8787d000000000000000000000000000000000cca0d111237ec521889baa4987714c6bb539399b058b6635fd043821377fd6cfdb74923610c8235afe2be99188cbe820000000000000000000000000000000007fa2b99221675b38204c2eea94b2378b1d711ea5ba4f41d35c37f77ee2466f22c88725da9fcdabb6153292b7cd9aa1e000000000000000000000000000000001069adc30f99e0ddfd39775cee5ddd786fcc077cbaa8737f7031745d02f06168fd5d3c4936704d15955bcfa08b0925180000000000000000000000000000000003b388a8d9baabf0bf708e2fe28eacd7f704bc588185adbcea8e0a2bb8f9bc9b045918d97bb27b2033c6722b6e6692de"
            ],
            "gasLimit" : [
                "0x6acfc0"
            ],
            "gasPrice" : "0x0a",
            "nonce" : "0x00",
            "secretKey" : "0x45a915e4d060149eb4365960e6a7a45f334393093061116b197e3240065ff2d8",
            "sender" : "0xa94f5374fce5edbc8e2a8697c15331677e6ebf0b",
            "to" : "0x095e7baea6a6c7c4c2dfeb977efac326af552d87",
            "value" : [
                "0x03e8"
            ]
        }
    }
}