{
    "invalid_subgroup_for_pairing_32" : {
        "_info" : {
            "comment" : "A test for invalid_subgroup_for_pairing_32",
            "filling-rpc-server" : "evm version 1.14.0-unstable-a208e725-20240416",
            "filling-tool-version" : "retesteth-0.3.2-cancun+commit.353b2b37.Linux.g++",
            "generatedTestHash" : "fcd406baa20ed96e22f3e9a525e6c03460653adac678f9ec38ed8aa100aa048b",
            "lllcversion" : "Version: 0.5.14-develop.2023.7.11+commit.c58ab2c6.mod.Linux.g++",
            "solidity" : "Version: 0.8.21+commit.d9974bed.Linux.g++",
            "source" : "src/EIPTestsFiller/StateTests/stEIP2537/invalid_subgroup_for_pairing_32Filler.json",
            "sourceHash" : "94a41af51e657da3fc729f6fbe5d8adec8f1fd9f06aebba951dfc936bb6097c9"
        },
        "env" : {
            "currentBaseFee" : "0x0a",
            "currentCoinbase" : "0x2adc25665018aa1fe0e6bc666dac8fc2697ff9ba",
            "currentDifficulty" : "0x020000",
            "currentExcessBlobGas" : "0x00",
            "currentGasLimit" : "0xff112233445566",
            "currentNumber" : "0x01",
            "currentRandom" : "0x0000000000000000000000000000000000000000000000000000000000020000",
            "currentTimestamp" : "0x03e8"
        },
        "post" : {
            "Prague" : [
                {
                    "hash" : "0x2a1c4d6b456a534658f2a114fd2b286b7aabea2d115eebd72c69ff69476d43c4",
                    "indexes" : {
                        "data" : 0,
                        "gas" : 0,
                        "value" : 0
                    },
                    "logs" : "0x1dcc4de8dec75d7aab85b567b6ccd41ad312451b948a7413f0a142fd40d49347",
                    "txbytes" : "0xf903c8800a836acfc094095e7baea6a6c7c4c2dfeb977efac326af552d878203e8b9036412bd42990000000000000000000000000000000000000000000000000000000000000011000000000000000000000000000000000000000000000000000000000000004000000000000000000000000000000000000000000000000000000000000003000000000000000000000000000000000009f71faeb58c4d442272ea0116a03f106008ed68030bce1bc53a3964ec4f9758f508735c8c17017645ccb77124b46cb40000000000000000000000000000000016a2ea9e548342538ccfdae6806ec9ce0b7b892875155f898017929d7105001e8de041bfcab7398cccd060dcee3b6e84000000000000000000000000000000000579462f03502615d26d76e05c758a7f835e4e70f1adfdec8c7ef26580544326d66ba4e23be3c078e1f187ab498ab9dc0000000000000000000000000000000000d386d0af32f630bdf6c13ee82fd35e42961ec4b11ee8fa196d69bed775b8ecfe74409693c531631aa716957e5fe6d7000000000000000000000000000000000ce8a020608c1e7d70d7a03d11b84f48d6b3b77c5836b7c914627f3a84d3d0b3de513029c1379b20ee38a19928e57f44000000000000000000000000000000000dd10882001be7fa52ff21f1a0adab02e688539f098901fe515b61fbdbca02c4146f6c17f7ad7cf59f5e8acd85da60b000000000000000000000000000000000128e019ff92e7171d3c791bd4cf75b0f47c2a9d8722b4a8279f1178db6dddf8a4c00083a935168518a1c26a56b23624f0000000000000000000000000000000008d0c5f3300e73682f4756e6ff1d6722dde576beb587301ded34427d6935e59e76cc8a8cb0ea5f659db9ad5435851e53000000000000000000000000000000000579462f03502615d26d76e05c758a7f835e4e70f1adfdec8c7ef26580544326d66ba4e23be3c078e1f187ab498ab9dc0000000000000000000000000000000000d386d0af32f630bdf6c13ee82fd35e42961ec4b11ee8fa196d69bed775b8ecfe74409693c531631aa716957e5fe6d7000000000000000000000000000000000ce8a020608c1e7d70d7a03d11b84f48d6b3b77c5836b7c914627f3a84d3d0b3de513029c1379b20ee38a19928e57f44000000000000000000000000000000000dd10882001be7fa52ff21f1a0adab02e688539f098901fe515b61fbdbca02c4146f6c17f7ad7cf59f5e8acd85da60b01ba0bd0c73f9ba9fe413db9510bc83655c69f2879028214e099dea54947c5231fb21a05111f9602aa76b1efd8cf11f7aa08dc8a1e33ea104c2179616ebf1f22c05ed62"
                }
            ]
        },
        "pre" : {
            "0x095e7baea6a6c7c4c2dfeb977efac326af552d87" : {
                "balance" : "0x00",
                "code" : "0x60806040526004361061001e5760003560e01c806312bd429914610023575b600080fd5b6100fc6004803603604081101561003957600080fd5b81019080803573ffffffffffffffffffffffffffffffffffffffff1690602001909291908035906020019064010000000081111561007657600080fd5b82018360208201111561008857600080fd5b803590602001918460018302840111640100000000831117156100aa57600080fd5b91908080601f016020809104026020016040519081016040528093929190818152602001838380828437600081840152601f19601f820116905080830192505050505050509192919290505050610182565b604051808315151515815260200180602001828103825283818151815260200191508051906020019080838360005b8381101561014657808201518184015260208101905061012b565b50505050905090810190601f1680156101735780820380516001836020036101000a031916815260200191505b50935050505060405180910390f35b600060608373ffffffffffffffffffffffffffffffffffffffff16836040518082805190602001908083835b602083106101d157805182526020820191506020810190506020830392506101ae565b6001836020036101000a038019825116818451168082178552505050505050905001915050600060405180830381855afa9150503d8060008114610231576040519150601f19603f3d011682016040523d82523d6000602084013e610236565b606091505b508092508193505050600060405180807f6572726f72000000000000000000000000000000000000000000000000000000815250600501905060405180910390209050821561028a57818051906020012090505b8060025582829250925050925092905056fea2646970667358221220db58d80e8530eed625d9b4250a6055c2eb1d7c117a7ca267e6f8a059bdd2f39e64736f6c634300060a0033",
                "nonce" : "0x01",
                "storage" : {
                }
            },
            "0xa94f5374fce5edbc8e2a8697c15331677e6ebf0b" : {
                "balance" : "0x0de0b6b3a7640000",
                "code" : "0x",
                "nonce" : "0x00",
                "storage" : {
                }
            }
        },
        "transaction" : {
            "data" : [
                "0x12bd42990000000000000000000000000000000000000000000000000000000000000011000000000000000000000000000000000000000000000000000000000000004000000000000000000000000000000000000000000000000000000000000003000000000000000000000000000000000009f71faeb58c4d442272ea0116a03f106008ed68030bce1bc53a3964ec4f9758f508735c8c17017645ccb77124b46cb40000000000000000000000000000000016a2ea9e548342538ccfdae6806ec9ce0b7b892875155f898017929d7105001e8de041bfcab7398cccd060dcee3b6e84000000000000000000000000000000000579462f03502615d26d76e05c758a7f835e4e70f1adfdec8c7ef26580544326d66ba4e23be3c078e1f187ab498ab9dc0000000000000000000000000000000000d386d0af32f630bdf6c13ee82fd35e42961ec4b11ee8fa196d69bed775b8ecfe74409693c531631aa716957e5fe6d7000000000000000000000000000000000ce8a020608c1e7d70d7a03d11b84f48d6b3b77c5836b7c914627f3a84d3d0b3de513029c1379b20ee38a19928e57f44000000000000000000000000000000000dd10882001be7fa52ff21f1a0adab02e688539f098901fe515b61fbdbca02c4146f6c17f7ad7cf59f5e8acd85da60b000000000000000000000000000000000128e019ff92e7171d3c791bd4cf75b0f47c2a9d8722b4a8279f1178db6dddf8a4c00083a935168518a1c26a56b23624f0000000000000000000000000000000008d0c5f3300e73682f4756e6ff1d6722dde576beb587301ded34427d6935e59e76cc8a8cb0ea5f659db9ad5435851e53000000000000000000000000000000000579462f03502615d26d76e05c758a7f835e4e70f1adfdec8c7ef26580544326d66ba4e23be3c078e1f187ab498ab9dc0000000000000000000000000000000000d386d0af32f630bdf6c13ee82fd35e42961ec4b11ee8fa196d69bed775b8ecfe74409693c531631aa716957e5fe6d7000000000000000000000000000000000ce8a020608c1e7d70d7a03d11b84f48d6b3b77c5836b7c914627f3a84d3d0b3de513029c1379b20ee38a19928e57f44000000000000000000000000000000000dd10882001be7fa52ff21f1a0adab02e688539f098901fe515b61fbdbca02c4146f6c17f7ad7cf59f5e8acd85da60b0"
            ],
            "gasLimit" : [
                "0x6acfc0"
            ],
            "gasPrice" : "0x0a",
            "nonce" : "0x00",
            "secretKey" : "0x45a915e4d060149eb4365960e6a7a45f334393093061116b197e3240065ff2d8",
            "sender" : "0xa94f5374fce5edbc8e2a8697c15331677e6ebf0b",
            "to" : "0x095e7baea6a6c7c4c2dfeb977efac326af552d87",
            "value" : [
                "0x03e8"
            ]
        }
    }
}