{
    "invalid_subgroup_for_pairing_63" : {
        "_info" : {
            "comment" : "A test for invalid_subgroup_for_pairing_63",
            "filling-rpc-server" : "evm version 1.14.0-unstable-a208e725-20240416",
            "filling-tool-version" : "retesteth-0.3.2-cancun+commit.353b2b37.Linux.g++",
            "generatedTestHash" : "0f4d0b2174bb07d79d30fef12904720442f642081f20977dbc49f62e0f9403f3",
            "lllcversion" : "Version: 0.5.14-develop.2023.7.11+commit.c58ab2c6.mod.Linux.g++",
            "solidity" : "Version: 0.8.21+commit.d9974bed.Linux.g++",
            "source" : "src/EIPTestsFiller/StateTests/stEIP2537/invalid_subgroup_for_pairing_63Filler.json",
            "sourceHash" : "2d7c657a7d1d162064121c504746778a896f1d924532bca9b5f3ffbdd02eb4ed"
        },
        "env" : {
            "currentBaseFee" : "0x0a",
            "currentCoinbase" : "0x2adc25665018aa1fe0e6bc666dac8fc2697ff9ba",
            "currentDifficulty" : "0x020000",
            "currentExcessBlobGas" : "0x00",
            "currentGasLimit" : "0xff112233445566",
            "currentNumber" : "0x01",
            "currentRandom" : "0x0000000000000000000000000000000000000000000000000000000000020000",
            "currentTimestamp" : "0x03e8"
        },
        "post" : {
            "Prague" : [
                {
                    "hash" : "0xe4bcd4990d65bb6ab7230d0ffe238e670129011029d80f76ddd958c345a93985",
                    "indexes" : {
                        "data" : 0,
                        "gas" : 0,
                        "value" : 0
                    },
                    "logs" : "0x1dcc4de8dec75d7aab85b567b6ccd41ad312451b948a7413f0a142fd40d49347",
                    "txbytes" : "0xf903c8800a836acfc094095e7baea6a6c7c4c2dfeb977efac326af552d878203e8b9036412bd42990000000000000000000000000000000000000000000000000000000000000011000000000000000000000000000000000000000000000000000000000000004000000000000000000000000000000000000000000000000000000000000003000000000000000000000000000000000015827c619b2a73a750f6469160ff323c15adaf55e893933a5c2e5c2f0df8bc426421408773a3e8cb8b1695973f7c0b760000000000000000000000000000000000af4a7d29f10cd080d9989b341fc030a5dd51512f776fb1da7a46d542c2a6a2ad7c1309af30423b717825fd5dc0356300000000000000000000000000000000198d09947dc088c1d33d776d64765766b508764f12a28fe0119277d6e171af7c9ff83f6823558e8b1a4284857663afb700000000000000000000000000000000130d5e5315f8df8d0142d06bad7a51b08e5b3c2d49b84c9d6b177b9bb628a852ff65c1a93982dcb1b31a2dc0941904750000000000000000000000000000000018cb011868591c6b44b7ce49f82470aa6461a737173e1d88d249c0e83fc6e4e6a15f8397e515efe7dc7302ccc2e369ae0000000000000000000000000000000004de1c5539b2ef536a66c8f3d7cd49ed948c081c08cba8826d2ccdf9d159b931ea10eeb8b3f465dce0143b179059169f0000000000000000000000000000000015827c619b2a73a750f6469160ff323c15adaf55e893933a5c2e5c2f0df8bc426421408773a3e8cb8b1695973f7c0b760000000000000000000000000000000000af4a7d29f10cd080d9989b341fc030a5dd51512f776fb1da7a46d542c2a6a2ad7c1309af30423b717825fd5dc035630000000000000000000000000000000004286a9efe902158cc624080ebc5fd9b5e0e6e31554c745d5f0c34ef1de2a487f77d405577559dac59babc731ca779110000000000000000000000000000000009c09c9c9e2c75bc6a81357c03b339668c7d8cc8a3f65790ad53b62f4c21acbf64fa66fdd75dc24c05214b712ad7fdb60000000000000000000000000000000018bf7e4fe271fe195377639c5743c1ef3eccb09c86d64d2a4dad2d7d4ff0feb46252d749f82a27141dc0007649b032bb0000000000000000000000000000000018113c4584b81eb814a9f1ebd041062d0db8bec46c2c1ffb7f863bdd2fc3fac470b01c32b6f2453ab048eefe362aa1b81ba00d49e82aa2f5facc200e6a8c48346c30dd8d03c14f4a285a6ee057f20b0078c8a048cee4c92ab750a88d03f7c664f7c0ac2995d95fed893f99e27f44ad9ebdeb8d"
                }
            ]
        },
        "pre" : {
            "0x095e7baea6a6c7c4c2dfeb977efac326af552d87" : {
                "balance" : "0x00",
                "code" : "0x60806040526004361061001e5760003560e01c806312bd429914610023575b600080fd5b6100fc6004803603604081101561003957600080fd5b81019080803573ffffffffffffffffffffffffffffffffffffffff1690602001909291908035906020019064010000000081111561007657600080fd5b82018360208201111561008857600080fd5b803590602001918460018302840111640100000000831117156100aa57600080fd5b91908080601f016020809104026020016040519081016040528093929190818152602001838380828437600081840152601f19601f820116905080830192505050505050509192919290505050610182565b604051808315151515815260200180602001828103825283818151815260200191508051906020019080838360005b8381101561014657808201518184015260208101905061012b565b50505050905090810190601f1680156101735780820380516001836020036101000a031916815260200191505b50935050505060405180910390f35b600060608373ffffffffffffffffffffffffffffffffffffffff16836040518082805190602001908083835b602083106101d157805182526020820191506020810190506020830392506101ae565b6001836020036101000a038019825116818451168082178552505050505050905001915050600060405180830381855afa9150503d8060008114610231576040519150601f19603f3d011682016040523d82523d6000602084013e610236565b606091505b508092508193505050600060405180807f6572726f72000000000000000000000000000000000000000000000000000000815250600501905060405180910390209050821561028a57818051906020012090505b8060025582829250925050925092905056fea2646970667358221220db58d80e8530eed625d9b4250a6055c2eb1d7c117a7ca267e6f8a059bdd2f39e64736f6c634300060a0033",
                "nonce" : "0x01",
                "storage" : {
                }
            },
            "0xa94f5374fce5edbc8e2a8697c15331677e6ebf0b" : {
                "balance" : "0x0de0b6b3a7640000",
                "code" : "0x",
                "nonce" : "0x00",
                "storage" : {
                }
            }
        },
        "transaction" : {
            "data" : [
                "0x12bd42990000000000000000000000000000000000000000000000000000000000000011000000000000000000000000000000000000000000000000000000000000004000000000000000000000000000000000000000000000000000000000000003000000000000000000000000000000000015827c619b2a73a750f6469160ff323c15adaf55e893933a5c2e5c2f0df8bc426421408773a3e8cb8b1695973f7c0b760000000000000000000000000000000000af4a7d29f10cd080d9989b341fc030a5dd51512f776fb1da7a46d542c2a6a2ad7c1309af30423b717825fd5dc0356300000000000000000000000000000000198d09947dc088c1d33d776d64765766b508764f12a28fe0119277d6e171af7c9ff83f6823558e8b1a4284857663afb700000000000000000000000000000000130d5e5315f8df8d0142d06bad7a51b08e5b3c2d49b84c9d6b177b9bb628a852ff65c1a93982dcb1b31a2dc0941904750000000000000000000000000000000018cb011868591c6b44b7ce49f82470aa6461a737173e1d88d249c0e83fc6e4e6a15f8397e515efe7dc7302ccc2e369ae0000000000000000000000000000000004de1c5539b2ef536a66c8f3d7cd49ed948c081c08cba8826d2ccdf9d159b931ea10eeb8b3f465dce0143b179059169f0000000000000000000000000000000015827c619b2a73a750f6469160ff323c15adaf55e893933a5c2e5c2f0df8bc426421408773a3e8cb8b1695973f7c0b760000000000000000000000000000000000af4a7d29f10cd080d9989b341fc030a5dd51512f776fb1da7a46d542c2a6a2ad7c1309af30423b717825fd5dc035630000000000000000000000000000000004286a9efe902158cc624080ebc5fd9b5e0e6e31554c745d5f0c34ef1de2a487f77d405577559dac59babc731ca779110000000000000000000000000000000009c09c9c9e2c75bc6a81357c03b339668c7d8cc8a3f65790ad53b62f4c21acbf64fa66fdd75dc24c05214b712ad7fdb60000000000000000000000000000000018bf7e4fe271fe195377639c5743c1ef3eccb09c86d64d2a4dad2d7d4ff0feb46252d749f82a27141dc0007649b032bb0000000000000000000000000000000018113c4584b81eb814a9f1ebd041062d0db8bec46c2c1ffb7f863bdd2fc3fac470b01c32b6f2453ab048eefe362aa1b8"
            ],
            "gasLimit" : [
                "0x6acfc0"
            ],
            "gasPrice" : "0x0a",
            "nonce" : "0x00",
            "secretKey" : "0x45a915e4d060149eb4365960e6a7a45f334393093061116b197e3240065ff2d8",
            "sender" : "0xa94f5374fce5edbc8e2a8697c15331677e6ebf0b",
            "to" : "0x095e7baea6a6c7c4c2dfeb977efac326af552d87",
            "value" : [
                "0x03e8"
            ]
        }
    }
}