{
    "invalid_fp2_encoding_43" : {
        "_info" : {
            "comment" : "A test for invalid_fp2_encoding_43",
            "filling-rpc-server" : "evm version 1.14.0-unstable-a208e725-20240416",
            "filling-tool-version" : "retesteth-0.3.2-cancun+commit.353b2b37.Linux.g++",
            "generatedTestHash" : "85adc3e298a27bf29ef5b4ce6c5ee6e5d8f03a3e73a6845d69710e5db97bd110",
            "lllcversion" : "Version: 0.5.14-develop.2023.7.11+commit.c58ab2c6.mod.Linux.g++",
            "solidity" : "Version: 0.8.21+commit.d9974bed.Linux.g++",
            "source" : "src/EIPTestsFiller/StateTests/stEIP2537/invalid_fp2_encoding_43Filler.json",
            "sourceHash" : "5d10a44a996700f38b851e9652f2e141d93e8049493b8eee1617f7ef0ff5153a"
        },
        "env" : {
            "currentBaseFee" : "0x0a",
            "currentCoinbase" : "0x2adc25665018aa1fe0e6bc666dac8fc2697ff9ba",
            "currentDifficulty" : "0x020000",
            "currentExcessBlobGas" : "0x00",
            "currentGasLimit" : "0xff112233445566",
            "currentNumber" : "0x01",
            "currentRandom" : "0x0000000000000000000000000000000000000000000000000000000000020000",
            "currentTimestamp" : "0x03e8"
        },
        "post" : {
            "Prague" : [
                {
                    "hash" : "0xd2f3861f295389192e711c77aac7447d08b94e9000857fa304a78a20e1e0e3ff",
                    "indexes" : {
                        "data" : 0,
                        "gas" : 0,
                        "value" : 0
                    },
                    "logs" : "0x1dcc4de8dec75d7aab85b567b6ccd41ad312451b948a7413f0a142fd40d49347",
                    "txbytes" : "0xf90147800a836acfc094095e7baea6a6c7c4c2dfeb977efac326af552d878203e8b8e412bd4299000000000000000000000000000000000000000000000000000000000000001300000000000000000000000000000000000000000000000000000000000000400000000000000000000000000000000000000000000000000000000000000080f56f4b1ec8d34603c718651715ab786b1346c13f096bb94d5c16adc1df00730c2206e4f414fb68ea0dce5d2089372090a11f73b04daacf32773349186ae78abad41bfdc6d97a35cb94c29c552ca3656908b431b820bddd77921275918d56bb7f9ad758999be853f6768b1a84b2b09d1b6bea121540482098d6bb6c34a1d0e50e1ba0cc310ea54e9f41892d942f577ba1f94899a0a11700572878a11c062c664754aba004de318d2315de74d97c7d596e48a11c3b64258b2c51b2931f76bf62a52f86bc"
                }
            ]
        },
        "pre" : {
            "0x095e7baea6a6c7c4c2dfeb977efac326af552d87" : {
                "balance" : "0x00",
                "code" : "0x60806040526004361061001e5760003560e01c806312bd429914610023575b600080fd5b6100fc6004803603604081101561003957600080fd5b81019080803573ffffffffffffffffffffffffffffffffffffffff1690602001909291908035906020019064010000000081111561007657600080fd5b82018360208201111561008857600080fd5b803590602001918460018302840111640100000000831117156100aa57600080fd5b91908080601f016020809104026020016040519081016040528093929190818152602001838380828437600081840152601f19601f820116905080830192505050505050509192919290505050610182565b604051808315151515815260200180602001828103825283818151815260200191508051906020019080838360005b8381101561014657808201518184015260208101905061012b565b50505050905090810190601f1680156101735780820380516001836020036101000a031916815260200191505b50935050505060405180910390f35b600060608373ffffffffffffffffffffffffffffffffffffffff16836040518082805190602001908083835b602083106101d157805182526020820191506020810190506020830392506101ae565b6001836020036101000a038019825116818451168082178552505050505050905001915050600060405180830381855afa9150503d8060008114610231576040519150601f19603f3d011682016040523d82523d6000602084013e610236565b606091505b508092508193505050600060405180807f6572726f72000000000000000000000000000000000000000000000000000000815250600501905060405180910390209050821561028a57818051906020012090505b8060025582829250925050925092905056fea2646970667358221220db58d80e8530eed625d9b4250a6055c2eb1d7c117a7ca267e6f8a059bdd2f39e64736f6c634300060a0033",
                "nonce" : "0x01",
                "storage" : {
                }
            },
            "0xa94f5374fce5edbc8e2a8697c15331677e6ebf0b" : {
                "balance" : "0x0de0b6b3a7640000",
                "code" : "0x",
                "nonce" : "0x00",
                "storage" : {
                }
            }
        },
        "transaction" : {
            "data" : [
                "0x12bd4299000000000000000000000000000000000000000000000000000000000000001300000000000000000000000000000000000000000000000000000000000000400000000000000000000000000000000000000000000000000000000000000080f56f4b1ec8d34603c718651715ab786b1346c13f096bb94d5c16adc1df00730c2206e4f414fb68ea0dce5d2089372090a11f73b04daacf32773349186ae78abad41bfdc6d97a35cb94c29c552ca3656908b431b820bddd77921275918d56bb7f9ad758999be853f6768b1a84b2b09d1b6bea121540482098d6bb6c34a1d0e50e"
            ],
            "gasLimit" : [
                "0x6acfc0"
            ],
            "gasPrice" : "0x0a",
            "nonce" : "0x00",
            "secretKey" : "0x45a915e4d060149eb4365960e6a7a45f334393093061116b197e3240065ff2d8",
            "sender" : "0xa94f5374fce5edbc8e2a8697c15331677e6ebf0b",
            "to" : "0x095e7baea6a6c7c4c2dfeb977efac326af552d87",
            "value" : [
                "0x03e8"
            ]
        }
    }
}