{
    "invalid_subgroup_for_pairing_46" : {
        "_info" : {
            "comment" : "A test for invalid_subgroup_for_pairing_46",
            "filling-rpc-server" : "evm version 1.14.0-unstable-a208e725-20240416",
            "filling-tool-version" : "retesteth-0.3.2-cancun+commit.353b2b37.Linux.g++",
            "generatedTestHash" : "a61066e8fe5151e60ffd15cba0d4ff23f48c9c630996cbd47852fde598c02488",
            "lllcversion" : "Version: 0.5.14-develop.2023.7.11+commit.c58ab2c6.mod.Linux.g++",
            "solidity" : "Version: 0.8.21+commit.d9974bed.Linux.g++",
            "source" : "src/EIPTestsFiller/StateTests/stEIP2537/invalid_subgroup_for_pairing_46Filler.json",
            "sourceHash" : "2817e5daaebb7a1c4984ae30cbb3c8f95ba96472ceb461eec04847f5e0e0cd98"
        },
        "env" : {
            "currentBaseFee" : "0x0a",
            "currentCoinbase" : "0x2adc25665018aa1fe0e6bc666dac8fc2697ff9ba",
            "currentDifficulty" : "0x020000",
            "currentExcessBlobGas" : "0x00",
            "currentGasLimit" : "0xff112233445566",
            "currentNumber" : "0x01",
            "currentRandom" : "0x0000000000000000000000000000000000000000000000000000000000020000",
            "currentTimestamp" : "0x03e8"
        },
        "post" : {
            "Prague" : [
                {
                    "hash" : "0xe4bcd4990d65bb6ab7230d0ffe238e670129011029d80f76ddd958c345a93985",
                    "indexes" : {
                        "data" : 0,
                        "gas" : 0,
                        "value" : 0
                    },
                    "logs" : "0x1dcc4de8dec75d7aab85b567b6ccd41ad312451b948a7413f0a142fd40d49347",
                    "txbytes" : "0xf903c8800a836acfc094095e7baea6a6c7c4c2dfeb977efac326af552d878203e8b9036412bd4299000000000000000000000000000000000000000000000000000000000000001100000000000000000000000000000000000000000000000000000000000000400000000000000000000000000000000000000000000000000000000000000300000000000000000000000000000000001639642196e9d6d720e17ace198232d1c0a7c05660c2766b9d28147504308ee48d949755ffcd1c95e024fa299657c8d10000000000000000000000000000000017a5975410b3a80e339b200ec63d7b7d550514653726e3ae6a97a383545118bd4221bba3e27922a826057b244ad025f30000000000000000000000000000000017aa7a3f1ebbdec6abe12abea12ef50a3daabbf96a5f2ebfb517885f0b7aba1e927c682b15521529cb9e1f87c59be99e0000000000000000000000000000000016e23f7effbb9dd34ec1f6974115e7f0d23cc4553d86e6d61a0c98f47d09510e06b3f987c5bcf4bc30e20ae9684da74e000000000000000000000000000000000f3905dd4f99cfcfa6152db53106b4d1f6e24518a822da9388d8ca1dd654a4b8315697328571691f105d1abe9aad3dae0000000000000000000000000000000006bfd10d33df9326a55b35aa6d2bc3e831d4c3b5959aaa35613156e5e19343b74e34ed2670c43ba1a45cd3d91f055c9a000000000000000000000000000000000024c53fb66f77329f70394626073ae298c6aaba115aa6af7bdaf3d2fb74a07441d46eeb398feec036727e86891db2030000000000000000000000000000000016b96c27d4342c47caafa584ec9847c79870eaebcce158535d8da95d7a847ecdc5057425fb3dd862303d1ac03162317e0000000000000000000000000000000017aa7a3f1ebbdec6abe12abea12ef50a3daabbf96a5f2ebfb517885f0b7aba1e927c682b15521529cb9e1f87c59be99e0000000000000000000000000000000016e23f7effbb9dd34ec1f6974115e7f0d23cc4553d86e6d61a0c98f47d09510e06b3f987c5bcf4bc30e20ae9684da74e000000000000000000000000000000000f3905dd4f99cfcfa6152db53106b4d1f6e24518a822da9388d8ca1dd654a4b8315697328571691f105d1abe9aad3dae0000000000000000000000000000000006bfd10d33df9326a55b35aa6d2bc3e831d4c3b5959aaa35613156e5e19343b74e34ed2670c43ba1a45cd3d91f055c9a1ba0082b1ef33d3c6afa9557a1a1a029e1e5bf81e0927b6c5ff7552d4730cff042eba066737b198b281ef7b707f713a374b15c056f0709d4a20f1d4801ab7d3e7ce1c0"
                }
            ]
        },
        "pre" : {
            "0x095e7baea6a6c7c4c2dfeb977efac326af552d87" : {
                "balance" : "0x00",
                "code" : "0x60806040526004361061001e5760003560e01c806312bd429914610023575b600080fd5b6100fc6004803603604081101561003957600080fd5b81019080803573ffffffffffffffffffffffffffffffffffffffff1690602001909291908035906020019064010000000081111561007657600080fd5b82018360208201111561008857600080fd5b803590602001918460018302840111640100000000831117156100aa57600080fd5b91908080601f016020809104026020016040519081016040528093929190818152602001838380828437600081840152601f19601f820116905080830192505050505050509192919290505050610182565b604051808315151515815260200180602001828103825283818151815260200191508051906020019080838360005b8381101561014657808201518184015260208101905061012b565b50505050905090810190601f1680156101735780820380516001836020036101000a031916815260200191505b50935050505060405180910390f35b600060608373ffffffffffffffffffffffffffffffffffffffff16836040518082805190602001908083835b602083106101d157805182526020820191506020810190506020830392506101ae565b6001836020036101000a038019825116818451168082178552505050505050905001915050600060405180830381855afa9150503d8060008114610231576040519150601f19603f3d011682016040523d82523d6000602084013e610236565b606091505b508092508193505050600060405180807f6572726f72000000000000000000000000000000000000000000000000000000815250600501905060405180910390209050821561028a57818051906020012090505b8060025582829250925050925092905056fea2646970667358221220db58d80e8530eed625d9b4250a6055c2eb1d7c117a7ca267e6f8a059bdd2f39e64736f6c634300060a0033",
                "nonce" : "0x01",
                "storage" : {
                }
            },
            "0xa94f5374fce5edbc8e2a8697c15331677e6ebf0b" : {
                "balance" : "0x0de0b6b3a7640000",
                "code" : "0x",
                "nonce" : "0x00",
                "storage" : {
                }
            }
        },
        "transaction" : {
            "data" : [
                "0x12bd4299000000000000000000000000000000000000000000000000000000000000001100000000000000000000000000000000000000000000000000000000000000400000000000000000000000000000000000000000000000000000000000000300000000000000000000000000000000001639642196e9d6d720e17ace198232d1c0a7c05660c2766b9d28147504308ee48d949755ffcd1c95e024fa299657c8d10000000000000000000000000000000017a5975410b3a80e339b200ec63d7b7d550514653726e3ae6a97a383545118bd4221bba3e27922a826057b244ad025f30000000000000000000000000000000017aa7a3f1ebbdec6abe12abea12ef50a3daabbf96a5f2ebfb517885f0b7aba1e927c682b15521529cb9e1f87c59be99e0000000000000000000000000000000016e23f7effbb9dd34ec1f6974115e7f0d23cc4553d86e6d61a0c98f47d09510e06b3f987c5bcf4bc30e20ae9684da74e000000000000000000000000000000000f3905dd4f99cfcfa6152db53106b4d1f6e24518a822da9388d8ca1dd654a4b8315697328571691f105d1abe9aad3dae0000000000000000000000000000000006bfd10d33df9326a55b35aa6d2bc3e831d4c3b5959aaa35613156e5e19343b74e34ed2670c43ba1a45cd3d91f055c9a000000000000000000000000000000000024c53fb66f77329f70394626073ae298c6aaba115aa6af7bdaf3d2fb74a07441d46eeb398feec036727e86891db2030000000000000000000000000000000016b96c27d4342c47caafa584ec9847c79870eaebcce158535d8da95d7a847ecdc5057425fb3dd862303d1ac03162317e0000000000000000000000000000000017aa7a3f1ebbdec6abe12abea12ef50a3daabbf96a5f2ebfb517885f0b7aba1e927c682b15521529cb9e1f87c59be99e0000000000000000000000000000000016e23f7effbb9dd34ec1f6974115e7f0d23cc4553d86e6d61a0c98f47d09510e06b3f987c5bcf4bc30e20ae9684da74e000000000000000000000000000000000f3905dd4f99cfcfa6152db53106b4d1f6e24518a822da9388d8ca1dd654a4b8315697328571691f105d1abe9aad3dae0000000000000000000000000000000006bfd10d33df9326a55b35aa6d2bc3e831d4c3b5959aaa35613156e5e19343b74e34ed2670c43ba1a45cd3d91f055c9a"
            ],
            "gasLimit" : [
                "0x6acfc0"
            ],
            "gasPrice" : "0x0a",
            "nonce" : "0x00",
            "secretKey" : "0x45a915e4d060149eb4365960e6a7a45f334393093061116b197e3240065ff2d8",
            "sender" : "0xa94f5374fce5edbc8e2a8697c15331677e6ebf0b",
            "to" : "0x095e7baea6a6c7c4c2dfeb977efac326af552d87",
            "value" : [
                "0x03e8"
            ]
        }
    }
}