{
    "invalid_subgroup_for_pairing_19" : {
        "_info" : {
            "comment" : "A test for invalid_subgroup_for_pairing_19",
            "filling-rpc-server" : "evm version 1.14.0-unstable-a208e725-20240416",
            "filling-tool-version" : "retesteth-0.3.2-cancun+commit.353b2b37.Linux.g++",
            "generatedTestHash" : "f90dd32c527bdb74a76cc80b7cc7eb093fa96a30647a0b9d8e072d21a27cab62",
            "lllcversion" : "Version: 0.5.14-develop.2023.7.11+commit.c58ab2c6.mod.Linux.g++",
            "solidity" : "Version: 0.8.21+commit.d9974bed.Linux.g++",
            "source" : "src/EIPTestsFiller/StateTests/stEIP2537/invalid_subgroup_for_pairing_19Filler.json",
            "sourceHash" : "0dc4c09be8ce31ef05de8dd9dd479b71a85904247fcaaf7517c5f8265c534b0b"
        },
        "env" : {
            "currentBaseFee" : "0x0a",
            "currentCoinbase" : "0x2adc25665018aa1fe0e6bc666dac8fc2697ff9ba",
            "currentDifficulty" : "0x020000",
            "currentExcessBlobGas" : "0x00",
            "currentGasLimit" : "0xff112233445566",
            "currentNumber" : "0x01",
            "currentRandom" : "0x0000000000000000000000000000000000000000000000000000000000020000",
            "currentTimestamp" : "0x03e8"
        },
        "post" : {
            "Prague" : [
                {
                    "hash" : "0xe4bcd4990d65bb6ab7230d0ffe238e670129011029d80f76ddd958c345a93985",
                    "indexes" : {
                        "data" : 0,
                        "gas" : 0,
                        "value" : 0
                    },
                    "logs" : "0x1dcc4de8dec75d7aab85b567b6ccd41ad312451b948a7413f0a142fd40d49347",
                    "txbytes" : "0xf903c8800a836acfc094095e7baea6a6c7c4c2dfeb977efac326af552d878203e8b9036412bd4299000000000000000000000000000000000000000000000000000000000000001100000000000000000000000000000000000000000000000000000000000000400000000000000000000000000000000000000000000000000000000000000300000000000000000000000000000000000ee60801e3aaacf27167207a03b42594cdca4cdfe3a1f8e5f87b0e423ad36c56725dc79a26c157f41699e89884d27c1b0000000000000000000000000000000017c92b0beee470e126830843170bf0a89d13856ff6b0209e23bbf2a68e0668bd81db29de726ec7593124bea89771da97000000000000000000000000000000000a1beec4d223edbf1d09c448ea27038327bd8621842d3c7851779286060abd8130e4a641100627057498a421b59e90a600000000000000000000000000000000076a9559f5e33a2d5bdff6a89037c12e58ef920a3d8b9b4ca2a78299dca5dbf07c80d51014ee9288af8725e6c4312225000000000000000000000000000000000755036dd19c7d703343bc29238ae9332823514aeb4779b3378e8f7a3463a4089eef3fe79608db22b703b5d88c65bd80000000000000000000000000000000000ee3d82959dc04b5d59428142411e48e7a2fcfcff91e5554b725868c62d139bfd763720c9e2727c1b1fdc0bfd60f7297000000000000000000000000000000000ee60801e3aaacf27167207a03b42594cdca4cdfe3a1f8e5f87b0e423ad36c56725dc79a26c157f41699e89884d27c1b0000000000000000000000000000000017c92b0beee470e126830843170bf0a89d13856ff6b0209e23bbf2a68e0668bd81db29de726ec7593124bea89771da97000000000000000000000000000000000360e8bf07554b56d6f27de6a4b1f9184adb7980311e8f4128f619d9c8e64e98bcfca8eb3cab93e183882827fce2d06800000000000000000000000000000000010b0b114b55b17531576f782b6bee122cb5fb1e40d5af37ebaa1d4dad55a0f5d130c9a58cf27b1594eebd0b1492c0400000000000000000000000000000000018b70f0c047aaf7e17cb96015642e0d32f3135999de6dd8bded2c600866485ea75ab3a3e37581ae7dcfa1f54381f542300000000000000000000000000000000028cbef4b476a9cfb8daa35b1321a486b8c94f8b8df2352a0c8d509325706eee328b8dc3657122afb81be1fa2e60aafe1ba0d926d679d7191c08866db39f96e3cee4724b373b265e708444ea3793f3455a12a0752eeedf6a2fed445849a8f1813f273095fc5c6769418e980b068246ddc221c7"
                }
            ]
        },
        "pre" : {
            "0x095e7baea6a6c7c4c2dfeb977efac326af552d87" : {
                "balance" : "0x00",
                "code" : "0x60806040526004361061001e5760003560e01c806312bd429914610023575b600080fd5b6100fc6004803603604081101561003957600080fd5b81019080803573ffffffffffffffffffffffffffffffffffffffff1690602001909291908035906020019064010000000081111561007657600080fd5b82018360208201111561008857600080fd5b803590602001918460018302840111640100000000831117156100aa57600080fd5b91908080601f016020809104026020016040519081016040528093929190818152602001838380828437600081840152601f19601f820116905080830192505050505050509192919290505050610182565b604051808315151515815260200180602001828103825283818151815260200191508051906020019080838360005b8381101561014657808201518184015260208101905061012b565b50505050905090810190601f1680156101735780820380516001836020036101000a031916815260200191505b50935050505060405180910390f35b600060608373ffffffffffffffffffffffffffffffffffffffff16836040518082805190602001908083835b602083106101d157805182526020820191506020810190506020830392506101ae565b6001836020036101000a038019825116818451168082178552505050505050905001915050600060405180830381855afa9150503d8060008114610231576040519150601f19603f3d011682016040523d82523d6000602084013e610236565b606091505b508092508193505050600060405180807f6572726f72000000000000000000000000000000000000000000000000000000815250600501905060405180910390209050821561028a57818051906020012090505b8060025582829250925050925092905056fea2646970667358221220db58d80e8530eed625d9b4250a6055c2eb1d7c117a7ca267e6f8a059bdd2f39e64736f6c634300060a0033",
                "nonce" : "0x01",
                "storage" : {
                }
            },
            "0xa94f5374fce5edbc8e2a8697c15331677e6ebf0b" : {
                "balance" : "0x0de0b6b3a7640000",
                "code" : "0x",
                "nonce" : "0x00",
                "storage" : {
                }
            }
        },
        "transaction" : {
            "data" : [
                "0x12bd4299000000000000000000000000000000000000000000000000000000000000001100000000000000000000000000000000000000000000000000000000000000400000000000000000000000000000000000000000000000000000000000000300000000000000000000000000000000000ee60801e3aaacf27167207a03b42594cdca4cdfe3a1f8e5f87b0e423ad36c56725dc79a26c157f41699e89884d27c1b0000000000000000000000000000000017c92b0beee470e126830843170bf0a89d13856ff6b0209e23bbf2a68e0668bd81db29de726ec7593124bea89771da97000000000000000000000000000000000a1beec4d223edbf1d09c448ea27038327bd8621842d3c7851779286060abd8130e4a641100627057498a421b59e90a600000000000000000000000000000000076a9559f5e33a2d5bdff6a89037c12e58ef920a3d8b9b4ca2a78299dca5dbf07c80d51014ee9288af8725e6c4312225000000000000000000000000000000000755036dd19c7d703343bc29238ae9332823514aeb4779b3378e8f7a3463a4089eef3fe79608db22b703b5d88c65bd80000000000000000000000000000000000ee3d82959dc04b5d59428142411e48e7a2fcfcff91e5554b725868c62d139bfd763720c9e2727c1b1fdc0bfd60f7297000000000000000000000000000000000ee60801e3aaacf27167207a03b42594cdca4cdfe3a1f8e5f87b0e423ad36c56725dc79a26c157f41699e89884d27c1b0000000000000000000000000000000017c92b0beee470e126830843170bf0a89d13856ff6b0209e23bbf2a68e0668bd81db29de726ec7593124bea89771da97000000000000000000000000000000000360e8bf07554b56d6f27de6a4b1f9184adb7980311e8f4128f619d9c8e64e98bcfca8eb3cab93e183882827fce2d06800000000000000000000000000000000010b0b114b55b17531576f782b6bee122cb5fb1e40d5af37ebaa1d4dad55a0f5d130c9a58cf27b1594eebd0b1492c0400000000000000000000000000000000018b70f0c047aaf7e17cb96015642e0d32f3135999de6dd8bded2c600866485ea75ab3a3e37581ae7dcfa1f54381f542300000000000000000000000000000000028cbef4b476a9cfb8daa35b1321a486b8c94f8b8df2352a0c8d509325706eee328b8dc3657122afb81be1fa2e60aafe"
            ],
            "gasLimit" : [
                "0x6acfc0"
            ],
            "gasPrice" : "0x0a",
            "nonce" : "0x00",
            "secretKey" : "0x45a915e4d060149eb4365960e6a7a45f334393093061116b197e3240065ff2d8",
            "sender" : "0xa94f5374fce5edbc8e2a8697c15331677e6ebf0b",
            "to" : "0x095e7baea6a6c7c4c2dfeb977efac326af552d87",
            "value" : [
                "0x03e8"
            ]
        }
    }
}