{
    "invalid_subgroup_for_pairing_43" : {
        "_info" : {
            "comment" : "A test for invalid_subgroup_for_pairing_43",
            "filling-rpc-server" : "evm version 1.14.0-unstable-a208e725-20240416",
            "filling-tool-version" : "retesteth-0.3.2-cancun+commit.353b2b37.Linux.g++",
            "generatedTestHash" : "360ec3e952703d416745f3b1958ef2eb8f3899a5b7a052dea8787f2582b38b0c",
            "lllcversion" : "Version: 0.5.14-develop.2023.7.11+commit.c58ab2c6.mod.Linux.g++",
            "solidity" : "Version: 0.8.21+commit.d9974bed.Linux.g++",
            "source" : "src/EIPTestsFiller/StateTests/stEIP2537/invalid_subgroup_for_pairing_43Filler.json",
            "sourceHash" : "be9172e3bb3fcf034a2f756ef72e736caf2077ab8267bd8f61b871b5e054dadb"
        },
        "env" : {
            "currentBaseFee" : "0x0a",
            "currentCoinbase" : "0x2adc25665018aa1fe0e6bc666dac8fc2697ff9ba",
            "currentDifficulty" : "0x020000",
            "currentExcessBlobGas" : "0x00",
            "currentGasLimit" : "0xff112233445566",
            "currentNumber" : "0x01",
            "currentRandom" : "0x0000000000000000000000000000000000000000000000000000000000020000",
            "currentTimestamp" : "0x03e8"
        },
        "post" : {
            "Prague" : [
                {
                    "hash" : "0xe4bcd4990d65bb6ab7230d0ffe238e670129011029d80f76ddd958c345a93985",
                    "indexes" : {
                        "data" : 0,
                        "gas" : 0,
                        "value" : 0
                    },
                    "logs" : "0x1dcc4de8dec75d7aab85b567b6ccd41ad312451b948a7413f0a142fd40d49347",
                    "txbytes" : "0xf903c8800a836acfc094095e7baea6a6c7c4c2dfeb977efac326af552d878203e8b9036412bd42990000000000000000000000000000000000000000000000000000000000000011000000000000000000000000000000000000000000000000000000000000004000000000000000000000000000000000000000000000000000000000000003000000000000000000000000000000000003455a16c1cf9a408bf17cbb0b8ec2a5f24ba41d5b8a06a10750797f3371bcf361d3b6902d73949df3a24f5a8b9977c10000000000000000000000000000000016480e13653604d05f025b8264fb35a2cf06dc6a90ec7751ed80ee81cd064864655d133ce398e293c289a572dd98605e0000000000000000000000000000000015015aeb1965917cb5b55092d7eeb54915e21fbd5b9a62530b3dd5b8ae07d6f491df46e1987f565223a83cbc90f91735000000000000000000000000000000000658266a6bb01958b791b288ea9f5e138316724398218be522bf816ee5b5b34ef4acc83b82959f52792af6940816bb41000000000000000000000000000000000bf8d18b55a57e67c76882f1a1ad845480196f28556ef569a6a6054426bfa39459ac030b594201be76968cc33c301dd4000000000000000000000000000000000fd8b264f9bd71e00e3987cd221d2e9fbbee34ddcc5c563f02dd150451050bd20b3bd3a6ce1284fb0ebff0c6c1318fa10000000000000000000000000000000003455a16c1cf9a408bf17cbb0b8ec2a5f24ba41d5b8a06a10750797f3371bcf361d3b6902d73949df3a24f5a8b9977c10000000000000000000000000000000016480e13653604d05f025b8264fb35a2cf06dc6a90ec7751ed80ee81cd064864655d133ce398e293c289a572dd98605e000000000000000000000000000000000c5c8e759f71292c8b25dca51bfd40daec58d2d2befe991b27993ae32489b3ef70c0c3f873b3f47ffb013fd31732f763000000000000000000000000000000000a78f4e402668544cada859953182f14421c54446c264312daa5f27cb18a3955a277e5620b0f28f4f9bf233c49f3341f000000000000000000000000000000000e27d9b1bf12c01ab05fa5ed5b2e70444c0582aa5b430d0e10feb69dcddddadeec88c024ec87e23737ec1385461edaad00000000000000000000000000000000065984e81590e368aa6de051129761e94ca218df58ec0132ec22aa7d4128b9ace20e7da35c56a674ed1031d202e9f3131ca0eefda5115c85eddd136da4f048b07dc8c7e0cf61336db0c4124e30ef0240db2fa00fc8a3ad04199340782d59586e33083db97f6031ec35c7bea9ef74a40128f9ba"
                }
            ]
        },
        "pre" : {
            "0x095e7baea6a6c7c4c2dfeb977efac326af552d87" : {
                "balance" : "0x00",
                "code" : "0x60806040526004361061001e5760003560e01c806312bd429914610023575b600080fd5b6100fc6004803603604081101561003957600080fd5b81019080803573ffffffffffffffffffffffffffffffffffffffff1690602001909291908035906020019064010000000081111561007657600080fd5b82018360208201111561008857600080fd5b803590602001918460018302840111640100000000831117156100aa57600080fd5b91908080601f016020809104026020016040519081016040528093929190818152602001838380828437600081840152601f19601f820116905080830192505050505050509192919290505050610182565b604051808315151515815260200180602001828103825283818151815260200191508051906020019080838360005b8381101561014657808201518184015260208101905061012b565b50505050905090810190601f1680156101735780820380516001836020036101000a031916815260200191505b50935050505060405180910390f35b600060608373ffffffffffffffffffffffffffffffffffffffff16836040518082805190602001908083835b602083106101d157805182526020820191506020810190506020830392506101ae565b6001836020036101000a038019825116818451168082178552505050505050905001915050600060405180830381855afa9150503d8060008114610231576040519150601f19603f3d011682016040523d82523d6000602084013e610236565b606091505b508092508193505050600060405180807f6572726f72000000000000000000000000000000000000000000000000000000815250600501905060405180910390209050821561028a57818051906020012090505b8060025582829250925050925092905056fea2646970667358221220db58d80e8530eed625d9b4250a6055c2eb1d7c117a7ca267e6f8a059bdd2f39e64736f6c634300060a0033",
                "nonce" : "0x01",
                "storage" : {
                }
            },
            "0xa94f5374fce5edbc8e2a8697c15331677e6ebf0b" : {
                "balance" : "0x0de0b6b3a7640000",
                "code" : "0x",
                "nonce" : "0x00",
                "storage" : {
                }
            }
        },
        "transaction" : {
            "data" : [
                "0x12bd42990000000000000000000000000000000000000000000000000000000000000011000000000000000000000000000000000000000000000000000000000000004000000000000000000000000000000000000000000000000000000000000003000000000000000000000000000000000003455a16c1cf9a408bf17cbb0b8ec2a5f24ba41d5b8a06a10750797f3371bcf361d3b6902d73949df3a24f5a8b9977c10000000000000000000000000000000016480e13653604d05f025b8264fb35a2cf06dc6a90ec7751ed80ee81cd064864655d133ce398e293c289a572dd98605e0000000000000000000000000000000015015aeb1965917cb5b55092d7eeb54915e21fbd5b9a62530b3dd5b8ae07d6f491df46e1987f565223a83cbc90f91735000000000000000000000000000000000658266a6bb01958b791b288ea9f5e138316724398218be522bf816ee5b5b34ef4acc83b82959f52792af6940816bb41000000000000000000000000000000000bf8d18b55a57e67c76882f1a1ad845480196f28556ef569a6a6054426bfa39459ac030b594201be76968cc33c301dd4000000000000000000000000000000000fd8b264f9bd71e00e3987cd221d2e9fbbee34ddcc5c563f02dd150451050bd20b3bd3a6ce1284fb0ebff0c6c1318fa10000000000000000000000000000000003455a16c1cf9a408bf17cbb0b8ec2a5f24ba41d5b8a06a10750797f3371bcf361d3b6902d73949df3a24f5a8b9977c10000000000000000000000000000000016480e13653604d05f025b8264fb35a2cf06dc6a90ec7751ed80ee81cd064864655d133ce398e293c289a572dd98605e000000000000000000000000000000000c5c8e759f71292c8b25dca51bfd40daec58d2d2befe991b27993ae32489b3ef70c0c3f873b3f47ffb013fd31732f763000000000000000000000000000000000a78f4e402668544cada859953182f14421c54446c264312daa5f27cb18a3955a277e5620b0f28f4f9bf233c49f3341f000000000000000000000000000000000e27d9b1bf12c01ab05fa5ed5b2e70444c0582aa5b430d0e10feb69dcddddadeec88c024ec87e23737ec1385461edaad00000000000000000000000000000000065984e81590e368aa6de051129761e94ca218df58ec0132ec22aa7d4128b9ace20e7da35c56a674ed1031d202e9f313"
            ],
            "gasLimit" : [
                "0x6acfc0"
            ],
            "gasPrice" : "0x0a",
            "nonce" : "0x00",
            "secretKey" : "0x45a915e4d060149eb4365960e6a7a45f334393093061116b197e3240065ff2d8",
            "sender" : "0xa94f5374fce5edbc8e2a8697c15331677e6ebf0b",
            "to" : "0x095e7baea6a6c7c4c2dfeb977efac326af552d87",
            "value" : [
                "0x03e8"
            ]
        }
    }
}