{
    "invalid_subgroup_for_pairing_13" : {
        "_info" : {
            "comment" : "A test for invalid_subgroup_for_pairing_13",
            "filling-rpc-server" : "evm version 1.14.0-unstable-a208e725-20240416",
            "filling-tool-version" : "retesteth-0.3.2-cancun+commit.353b2b37.Linux.g++",
            "generatedTestHash" : "ffbfd2e5e86a7d671fdb3185326861cccdf680c186f443626b8483641ad18af7",
            "lllcversion" : "Version: 0.5.14-develop.2023.7.11+commit.c58ab2c6.mod.Linux.g++",
            "solidity" : "Version: 0.8.21+commit.d9974bed.Linux.g++",
            "source" : "src/EIPTestsFiller/StateTests/stEIP2537/invalid_subgroup_for_pairing_13Filler.json",
            "sourceHash" : "81e9598d91ae9d7ec51c13e2c08a721c1e8fb8a2623f2ceabc918ac66d701e31"
        },
        "env" : {
            "currentBaseFee" : "0x0a",
            "currentCoinbase" : "0x2adc25665018aa1fe0e6bc666dac8fc2697ff9ba",
            "currentDifficulty" : "0x020000",
            "currentExcessBlobGas" : "0x00",
            "currentGasLimit" : "0xff112233445566",
            "currentNumber" : "0x01",
            "currentRandom" : "0x0000000000000000000000000000000000000000000000000000000000020000",
            "currentTimestamp" : "0x03e8"
        },
        "post" : {
            "Prague" : [
                {
                    "hash" : "0x2a1c4d6b456a534658f2a114fd2b286b7aabea2d115eebd72c69ff69476d43c4",
                    "indexes" : {
                        "data" : 0,
                        "gas" : 0,
                        "value" : 0
                    },
                    "logs" : "0x1dcc4de8dec75d7aab85b567b6ccd41ad312451b948a7413f0a142fd40d49347",
                    "txbytes" : "0xf903c8800a836acfc094095e7baea6a6c7c4c2dfeb977efac326af552d878203e8b9036412bd42990000000000000000000000000000000000000000000000000000000000000011000000000000000000000000000000000000000000000000000000000000004000000000000000000000000000000000000000000000000000000000000003000000000000000000000000000000000018de31d75ba31dc1441bee38f5fb9e9d347e0243e6c3220de664e04a0af17c776fbb483f63ebeac48c7811adc0fff6bc000000000000000000000000000000001053f5c7a65dfb41b7631a22e60337769beabd663fa76eaa1e01f0c0e3c901f40a22b34adfb13b38e298eb83f08d7b1400000000000000000000000000000000079daf601b5fdd1c00552382a819e1924a517226864aa3565d384dc399e6e124c3ad61b236e19321078eab585579572d0000000000000000000000000000000008ff51b4d60d9fb1718c5622b1a3353675ca0144e12e68875481394755107b7f3364d1320283ce34737d5ea0b7d9b40f0000000000000000000000000000000000f430d35de439bf8ef82df4dc61459cf9783d66531e8075f323dbf102035032972a4830ba6bf391b568e6b691723ea600000000000000000000000000000000042df3a5c7b534c48c9af9f48e5cb296e2e514e3322630989c3da9696485797fe2ae036e13484e26cb59b48a479d3f520000000000000000000000000000000018de31d75ba31dc1441bee38f5fb9e9d347e0243e6c3220de664e04a0af17c776fbb483f63ebeac48c7811adc0fff6bc000000000000000000000000000000001053f5c7a65dfb41b7631a22e60337769beabd663fa76eaa1e01f0c0e3c901f40a22b34adfb13b38e298eb83f08d7b1400000000000000000000000000000000180168b2c9a59a9bedcf002336a6ce5d5ff36937948f5d3aa9fc1ef1912d9fed526edcaa00b5ede76906c40994937da00000000000000000000000000000000018d47a4f6e4320a230b8a4e5f5eea7807fb5b0dccc72af182e8bb811f2470dfd485f291b8197899af84332e3674d56950000000000000000000000000000000000dbfed96298ad2f57fe7b1eff4791abdae5fd0ca3573e66270f8c9f6adcbf6e54a746789a496714f5cc06eb2b8190070000000000000000000000000000000002939de2a2f7ec3d44dc5ae679967a5d7efcf80df8a21d9708c036c602a5050487f80a39cc36c7e587f0f2610fed86b21ba082c19e624426e32273a177c3c5bc52be4c192d753f5179265f9c7b9022dfc73da03224ceff84197f298b070608990575e5089bb68ea4f9689a474b504e04a5ff56"
                }
            ]
        },
        "pre" : {
            "0x095e7baea6a6c7c4c2dfeb977efac326af552d87" : {
                "balance" : "0x00",
                "code" : "0x60806040526004361061001e5760003560e01c806312bd429914610023575b600080fd5b6100fc6004803603604081101561003957600080fd5b81019080803573ffffffffffffffffffffffffffffffffffffffff1690602001909291908035906020019064010000000081111561007657600080fd5b82018360208201111561008857600080fd5b803590602001918460018302840111640100000000831117156100aa57600080fd5b91908080601f016020809104026020016040519081016040528093929190818152602001838380828437600081840152601f19601f820116905080830192505050505050509192919290505050610182565b604051808315151515815260200180602001828103825283818151815260200191508051906020019080838360005b8381101561014657808201518184015260208101905061012b565b50505050905090810190601f1680156101735780820380516001836020036101000a031916815260200191505b50935050505060405180910390f35b600060608373ffffffffffffffffffffffffffffffffffffffff16836040518082805190602001908083835b602083106101d157805182526020820191506020810190506020830392506101ae565b6001836020036101000a038019825116818451168082178552505050505050905001915050600060405180830381855afa9150503d8060008114610231576040519150601f19603f3d011682016040523d82523d6000602084013e610236565b606091505b508092508193505050600060405180807f6572726f72000000000000000000000000000000000000000000000000000000815250600501905060405180910390209050821561028a57818051906020012090505b8060025582829250925050925092905056fea2646970667358221220db58d80e8530eed625d9b4250a6055c2eb1d7c117a7ca267e6f8a059bdd2f39e64736f6c634300060a0033",
                "nonce" : "0x01",
                "storage" : {
                }
            },
            "0xa94f5374fce5edbc8e2a8697c15331677e6ebf0b" : {
                "balance" : "0x0de0b6b3a7640000",
                "code" : "0x",
                "nonce" : "0x00",
                "storage" : {
                }
            }
        },
        "transaction" : {
            "data" : [
                "0x12bd42990000000000000000000000000000000000000000000000000000000000000011000000000000000000000000000000000000000000000000000000000000004000000000000000000000000000000000000000000000000000000000000003000000000000000000000000000000000018de31d75ba31dc1441bee38f5fb9e9d347e0243e6c3220de664e04a0af17c776fbb483f63ebeac48c7811adc0fff6bc000000000000000000000000000000001053f5c7a65dfb41b7631a22e60337769beabd663fa76eaa1e01f0c0e3c901f40a22b34adfb13b38e298eb83f08d7b1400000000000000000000000000000000079daf601b5fdd1c00552382a819e1924a517226864aa3565d384dc399e6e124c3ad61b236e19321078eab585579572d0000000000000000000000000000000008ff51b4d60d9fb1718c5622b1a3353675ca0144e12e68875481394755107b7f3364d1320283ce34737d5ea0b7d9b40f0000000000000000000000000000000000f430d35de439bf8ef82df4dc61459cf9783d66531e8075f323dbf102035032972a4830ba6bf391b568e6b691723ea600000000000000000000000000000000042df3a5c7b534c48c9af9f48e5cb296e2e514e3322630989c3da9696485797fe2ae036e13484e26cb59b48a479d3f520000000000000000000000000000000018de31d75ba31dc1441bee38f5fb9e9d347e0243e6c3220de664e04a0af17c776fbb483f63ebeac48c7811adc0fff6bc000000000000000000000000000000001053f5c7a65dfb41b7631a22e60337769beabd663fa76eaa1e01f0c0e3c901f40a22b34adfb13b38e298eb83f08d7b1400000000000000000000000000000000180168b2c9a59a9bedcf002336a6ce5d5ff36937948f5d3aa9fc1ef1912d9fed526edcaa00b5ede76906c40994937da00000000000000000000000000000000018d47a4f6e4320a230b8a4e5f5eea7807fb5b0dccc72af182e8bb811f2470dfd485f291b8197899af84332e3674d56950000000000000000000000000000000000dbfed96298ad2f57fe7b1eff4791abdae5fd0ca3573e66270f8c9f6adcbf6e54a746789a496714f5cc06eb2b8190070000000000000000000000000000000002939de2a2f7ec3d44dc5ae679967a5d7efcf80df8a21d9708c036c602a5050487f80a39cc36c7e587f0f2610fed86b2"
            ],
            "gasLimit" : [
                "0x6acfc0"
            ],
            "gasPrice" : "0x0a",
            "nonce" : "0x00",
            "secretKey" : "0x45a915e4d060149eb4365960e6a7a45f334393093061116b197e3240065ff2d8",
            "sender" : "0xa94f5374fce5edbc8e2a8697c15331677e6ebf0b",
            "to" : "0x095e7baea6a6c7c4c2dfeb977efac326af552d87",
            "value" : [
                "0x03e8"
            ]
        }
    }
}