{
    "invalid_subgroup_for_pairing_61" : {
        "_info" : {
            "comment" : "A test for invalid_subgroup_for_pairing_61",
            "filling-rpc-server" : "evm version 1.14.0-unstable-a208e725-20240416",
            "filling-tool-version" : "retesteth-0.3.2-cancun+commit.353b2b37.Linux.g++",
            "generatedTestHash" : "c9894ae2a88f41158e3ec3e76ff7564838c9b7466110d4812c62c74a0fde8203",
            "lllcversion" : "Version: 0.5.14-develop.2023.7.11+commit.c58ab2c6.mod.Linux.g++",
            "solidity" : "Version: 0.8.21+commit.d9974bed.Linux.g++",
            "source" : "src/EIPTestsFiller/StateTests/stEIP2537/invalid_subgroup_for_pairing_61Filler.json",
            "sourceHash" : "10cc1759e54ca3e8eddc55a52f168396990cd47758b286827a482b0cfe0f605e"
        },
        "env" : {
            "currentBaseFee" : "0x0a",
            "currentCoinbase" : "0x2adc25665018aa1fe0e6bc666dac8fc2697ff9ba",
            "currentDifficulty" : "0x020000",
            "currentExcessBlobGas" : "0x00",
            "currentGasLimit" : "0xff112233445566",
            "currentNumber" : "0x01",
            "currentRandom" : "0x0000000000000000000000000000000000000000000000000000000000020000",
            "currentTimestamp" : "0x03e8"
        },
        "post" : {
            "Prague" : [
                {
                    "hash" : "0x2a1c4d6b456a534658f2a114fd2b286b7aabea2d115eebd72c69ff69476d43c4",
                    "indexes" : {
                        "data" : 0,
                        "gas" : 0,
                        "value" : 0
                    },
                    "logs" : "0x1dcc4de8dec75d7aab85b567b6ccd41ad312451b948a7413f0a142fd40d49347",
                    "txbytes" : "0xf903c8800a836acfc094095e7baea6a6c7c4c2dfeb977efac326af552d878203e8b9036412bd429900000000000000000000000000000000000000000000000000000000000000110000000000000000000000000000000000000000000000000000000000000040000000000000000000000000000000000000000000000000000000000000030000000000000000000000000000000000119c7c85e5efaf08b91dc496758b962098cc0eb60f4a770bfafa91809ae4a95b43f96b69c8ddc897701487f22d2e049c0000000000000000000000000000000007467ac896ae9f7d2cfdfbab082c89d3c17a6dfdf1f69b4b38fe6d5ede6848a45e8b0d728eb8c68752ec59c8e0504dcd000000000000000000000000000000001047ce33c70d58e3191a558ce2fd95c20bb62abae7d924cec8a4067fb33e8dacd796d65c049be7bacdb969f61db5b26500000000000000000000000000000000096e7081a7b2377331f86d8418bd577cd5cc1d45e60d39b519ff2b3a50ddb2d5f6dccc0066167f42498a3d29ef5ce2e30000000000000000000000000000000011159939a04c129b007f2aa2d59ae006e8d89c41dd465cba551737d06d3fb2c1161aee98e86cb8c0321f42e514316030000000000000000000000000000000000c25d9cdc8dbeec82c47d5ef12f21a7e58a8eddc1e738e635ba04f2ebe12440090f432c0d1518217a5531266441f1c2500000000000000000000000000000000119c7c85e5efaf08b91dc496758b962098cc0eb60f4a770bfafa91809ae4a95b43f96b69c8ddc897701487f22d2e049c0000000000000000000000000000000007467ac896ae9f7d2cfdfbab082c89d3c17a6dfdf1f69b4b38fe6d5ede6848a45e8b0d728eb8c68752ec59c8e0504dcd0000000000000000000000000000000013a11383f2d3a3c28e3ea750fece5790e37f66b306ecca417c83840bed70c034e4b82b0850f719fb0b3b203a25dffae40000000000000000000000000000000017d067d9cfbbcf605c5da3532b2eda5900d71340508f08c05d0051772e65b0f85b9efe5b6d63a7b64b25ede8df7f25c9000000000000000000000000000000000e44847884ee8eacd5417e042e8299af8313ce177ecdd034a91d3bdd441437510808d44e328e810c46bd851ceb6085dc0000000000000000000000000000000013288506fd52bf37aaa975b533f1182a824b79d2d876ad6ff705efeec7f732bed99d2da8f31c00a2db4d97c4118bcb881ba0b537add3fa64d698b67693252f07fe9871b3b410626e3f9e74bd03f002ef9f5ba00c4874cf0eaaa48ae6b347c3c2818c3168e167d869b9f1b971ee30ab9fa8dd1d"
                }
            ]
        },
        "pre" : {
            "0x095e7baea6a6c7c4c2dfeb977efac326af552d87" : {
                "balance" : "0x00",
                "code" : "0x60806040526004361061001e5760003560e01c806312bd429914610023575b600080fd5b6100fc6004803603604081101561003957600080fd5b81019080803573ffffffffffffffffffffffffffffffffffffffff1690602001909291908035906020019064010000000081111561007657600080fd5b82018360208201111561008857600080fd5b803590602001918460018302840111640100000000831117156100aa57600080fd5b91908080601f016020809104026020016040519081016040528093929190818152602001838380828437600081840152601f19601f820116905080830192505050505050509192919290505050610182565b604051808315151515815260200180602001828103825283818151815260200191508051906020019080838360005b8381101561014657808201518184015260208101905061012b565b50505050905090810190601f1680156101735780820380516001836020036101000a031916815260200191505b50935050505060405180910390f35b600060608373ffffffffffffffffffffffffffffffffffffffff16836040518082805190602001908083835b602083106101d157805182526020820191506020810190506020830392506101ae565b6001836020036101000a038019825116818451168082178552505050505050905001915050600060405180830381855afa9150503d8060008114610231576040519150601f19603f3d011682016040523d82523d6000602084013e610236565b606091505b508092508193505050600060405180807f6572726f72000000000000000000000000000000000000000000000000000000815250600501905060405180910390209050821561028a57818051906020012090505b8060025582829250925050925092905056fea2646970667358221220db58d80e8530eed625d9b4250a6055c2eb1d7c117a7ca267e6f8a059bdd2f39e64736f6c634300060a0033",
                "nonce" : "0x01",
                "storage" : {
                }
            },
            "0xa94f5374fce5edbc8e2a8697c15331677e6ebf0b" : {
                "balance" : "0x0de0b6b3a7640000",
                "code" : "0x",
                "nonce" : "0x00",
                "storage" : {
                }
            }
        },
        "transaction" : {
            "data" : [
                "0x12bd429900000000000000000000000000000000000000000000000000000000000000110000000000000000000000000000000000000000000000000000000000000040000000000000000000000000000000000000000000000000000000000000030000000000000000000000000000000000119c7c85e5efaf08b91dc496758b962098cc0eb60f4a770bfafa91809ae4a95b43f96b69c8ddc897701487f22d2e049c0000000000000000000000000000000007467ac896ae9f7d2cfdfbab082c89d3c17a6dfdf1f69b4b38fe6d5ede6848a45e8b0d728eb8c68752ec59c8e0504dcd000000000000000000000000000000001047ce33c70d58e3191a558ce2fd95c20bb62abae7d924cec8a4067fb33e8dacd796d65c049be7bacdb969f61db5b26500000000000000000000000000000000096e7081a7b2377331f86d8418bd577cd5cc1d45e60d39b519ff2b3a50ddb2d5f6dccc0066167f42498a3d29ef5ce2e30000000000000000000000000000000011159939a04c129b007f2aa2d59ae006e8d89c41dd465cba551737d06d3fb2c1161aee98e86cb8c0321f42e514316030000000000000000000000000000000000c25d9cdc8dbeec82c47d5ef12f21a7e58a8eddc1e738e635ba04f2ebe12440090f432c0d1518217a5531266441f1c2500000000000000000000000000000000119c7c85e5efaf08b91dc496758b962098cc0eb60f4a770bfafa91809ae4a95b43f96b69c8ddc897701487f22d2e049c0000000000000000000000000000000007467ac896ae9f7d2cfdfbab082c89d3c17a6dfdf1f69b4b38fe6d5ede6848a45e8b0d728eb8c68752ec59c8e0504dcd0000000000000000000000000000000013a11383f2d3a3c28e3ea750fece5790e37f66b306ecca417c83840bed70c034e4b82b0850f719fb0b3b203a25dffae40000000000000000000000000000000017d067d9cfbbcf605c5da3532b2eda5900d71340508f08c05d0051772e65b0f85b9efe5b6d63a7b64b25ede8df7f25c9000000000000000000000000000000000e44847884ee8eacd5417e042e8299af8313ce177ecdd034a91d3bdd441437510808d44e328e810c46bd851ceb6085dc0000000000000000000000000000000013288506fd52bf37aaa975b533f1182a824b79d2d876ad6ff705efeec7f732bed99d2da8f31c00a2db4d97c4118bcb88"
            ],
            "gasLimit" : [
                "0x6acfc0"
            ],
            "gasPrice" : "0x0a",
            "nonce" : "0x00",
            "secretKey" : "0x45a915e4d060149eb4365960e6a7a45f334393093061116b197e3240065ff2d8",
            "sender" : "0xa94f5374fce5edbc8e2a8697c15331677e6ebf0b",
            "to" : "0x095e7baea6a6c7c4c2dfeb977efac326af552d87",
            "value" : [
                "0x03e8"
            ]
        }
    }
}