{
    "pairing_93" : {
        "_info" : {
            "comment" : "A test for pairing_93",
            "filling-rpc-server" : "evm version 1.14.0-unstable-a208e725-20240416",
            "filling-tool-version" : "retesteth-0.3.2-cancun+commit.353b2b37.Linux.g++",
            "generatedTestHash" : "26ad8dfb1353c7ba22a1bb97afabd97e08a93e285fae587f95d2cc0667872f29",
            "lllcversion" : "Version: 0.5.14-develop.2023.7.11+commit.c58ab2c6.mod.Linux.g++",
            "solidity" : "Version: 0.8.21+commit.d9974bed.Linux.g++",
            "source" : "src/EIPTestsFiller/StateTests/stEIP2537/pairing_93Filler.json",
            "sourceHash" : "4e0c2c9be1f61a4dce50367ba6480a468ae6f29bf29d579d9248fcdee5f5d56d"
        },
        "env" : {
            "currentBaseFee" : "0x0a",
            "currentCoinbase" : "0x2adc25665018aa1fe0e6bc666dac8fc2697ff9ba",
            "currentDifficulty" : "0x020000",
            "currentExcessBlobGas" : "0x00",
            "currentGasLimit" : "0xff112233445566",
            "currentNumber" : "0x01",
            "currentRandom" : "0x0000000000000000000000000000000000000000000000000000000000020000",
            "currentTimestamp" : "0x03e8"
        },
        "post" : {
            "Prague" : [
                {
                    "hash" : "0xf54e3e57b101f144f2a6fe8309fb03ae2feeb523c1f16ef8c1bb06d95748d550",
                    "indexes" : {
                        "data" : 0,
                        "gas" : 0,
                        "value" : 0
                    },
                    "logs" : "0x1dcc4de8dec75d7aab85b567b6ccd41ad312451b948a7413f0a142fd40d49347",
                    "txbytes" : "0xf90cc8800a836acfc094095e7baea6a6c7c4c2dfeb977efac326af552d878203e8b90c6412bd4299000000000000000000000000000000000000000000000000000000000000001100000000000000000000000000000000000000000000000000000000000000400000000000000000000000000000000000000000000000000000000000000c000000000000000000000000000000000009ec00ea2da59d937d3154d86dbed2957667253401bce9de80e0ffe6df32f36b06404b9e3af08e912a0b4ef091f93efb000000000000000000000000000000000dd8d1bd66f4accbc9d0c7dabef7af72f51c67a0d61384647533ad92bba44a312f0be0fa52163176f1aff4e64c00aefb0000000000000000000000000000000001cdfae9234096578b9413f926ef8c6831f2c0f700e25d7553a746aef44238e493f8032e09f67f2fed9676c9611f60e70000000000000000000000000000000019c8bae08d3926997146f7827f00cde863684dd4050ea5da64f6798e7a930d3c1f34046bea0f44232594f5469db566280000000000000000000000000000000013574b997ee8988aa81db0e2ddb98be2e7005603076fac5cb246f65c869aa7bb3f148c8dde970e34e5e5efce023e633c000000000000000000000000000000000998bc9d41c5d527360fc4e68ba067d3778cf5cf00e5959b5ec52c1595aabe6e2e92d40cb34faa84513d150568c8cfc00000000000000000000000000000000009ec00ea2da59d937d3154d86dbed2957667253401bce9de80e0ffe6df32f36b06404b9e3af08e912a0b4ef091f93efb000000000000000000000000000000000c28402cd28b39ce814adfdb8453fd646f5ae3e41d718e5af1fd250e3b0cabf2efa01f045f3dce88c84f0b19b3fefbb00000000000000000000000000000000001cdfae9234096578b9413f926ef8c6831f2c0f700e25d7553a746aef44238e493f8032e09f67f2fed9676c9611f60e70000000000000000000000000000000019c8bae08d3926997146f7827f00cde863684dd4050ea5da64f6798e7a930d3c1f34046bea0f44232594f5469db566280000000000000000000000000000000013574b997ee8988aa81db0e2ddb98be2e7005603076fac5cb246f65c869aa7bb3f148c8dde970e34e5e5efce023e633c000000000000000000000000000000000998bc9d41c5d527360fc4e68ba067d3778cf5cf00e5959b5ec52c1595aabe6e2e92d40cb34faa84513d150568c8cfc00000000000000000000000000000000009ec00ea2da59d937d3154d86dbed2957667253401bce9de80e0ffe6df32f36b06404b9e3af08e912a0b4ef091f93efb000000000000000000000000000000000dd8d1bd66f4accbc9d0c7dabef7af72f51c67a0d61384647533ad92bba44a312f0be0fa52163176f1aff4e64c00aefb0000000000000000000000000000000001cdfae9234096578b9413f926ef8c6831f2c0f700e25d7553a746aef44238e493f8032e09f67f2fed9676c9611f60e70000000000000000000000000000000019c8bae08d3926997146f7827f00cde863684dd4050ea5da64f6798e7a930d3c1f34046bea0f44232594f5469db566280000000000000000000000000000000006a9c650ba974e0fa2fdf6d3659220f47d76f581ec156662b4e9dc4470164e68df977370d2bcf1cad4191031fdc1476f000000000000000000000000000000001068554cf7ba1173150be2cfb7ab4503ecea55b5f29f7d24086ba68b610637b5f0192bf1fe04557b68c1eafa9736daeb0000000000000000000000000000000009ec00ea2da59d937d3154d86dbed2957667253401bce9de80e0ffe6df32f36b06404b9e3af08e912a0b4ef091f93efb000000000000000000000000000000000c28402cd28b39ce814adfdb8453fd646f5ae3e41d718e5af1fd250e3b0cabf2efa01f045f3dce88c84f0b19b3fefbb00000000000000000000000000000000001cdfae9234096578b9413f926ef8c6831f2c0f700e25d7553a746aef44238e493f8032e09f67f2fed9676c9611f60e70000000000000000000000000000000019c8bae08d3926997146f7827f00cde863684dd4050ea5da64f6798e7a930d3c1f34046bea0f44232594f5469db566280000000000000000000000000000000006a9c650ba974e0fa2fdf6d3659220f47d76f581ec156662b4e9dc4470164e68df977370d2bcf1cad4191031fdc1476f000000000000000000000000000000001068554cf7ba1173150be2cfb7ab4503ecea55b5f29f7d24086ba68b610637b5f0192bf1fe04557b68c1eafa9736daeb0000000000000000000000000000000009ec00ea2da59d937d3154d86dbed2957667253401bce9de80e0ffe6df32f36b06404b9e3af08e912a0b4ef091f93efb000000000000000000000000000000000dd8d1bd66f4accbc9d0c7dabef7af72f51c67a0d61384647533ad92bba44a312f0be0fa52163176f1aff4e64c00aefb0000000000000000000000000000000001cdfae9234096578b9413f926ef8c6831f2c0f700e25d7553a746aef44238e493f8032e09f67f2fed9676c9611f60e70000000000000000000000000000000019c8bae08d3926997146f7827f00cde863684dd4050ea5da64f6798e7a930d3c1f34046bea0f44232594f5469db566280000000000000000000000000000000013574b997ee8988aa81db0e2ddb98be2e7005603076fac5cb246f65c869aa7bb3f148c8dde970e34e5e5efce023e633c000000000000000000000000000000000998bc9d41c5d527360fc4e68ba067d3778cf5cf00e5959b5ec52c1595aabe6e2e92d40cb34faa84513d150568c8cfc00000000000000000000000000000000009ec00ea2da59d937d3154d86dbed2957667253401bce9de80e0ffe6df32f36b06404b9e3af08e912a0b4ef091f93efb000000000000000000000000000000000c28402cd28b39ce814adfdb8453fd646f5ae3e41d718e5af1fd250e3b0cabf2efa01f045f3dce88c84f0b19b3fefbb00000000000000000000000000000000001cdfae9234096578b9413f926ef8c6831f2c0f700e25d7553a746aef44238e493f8032e09f67f2fed9676c9611f60e70000000000000000000000000000000019c8bae08d3926997146f7827f00cde863684dd4050ea5da64f6798e7a930d3c1f34046bea0f44232594f5469db566280000000000000000000000000000000013574b997ee8988aa81db0e2ddb98be2e7005603076fac5cb246f65c869aa7bb3f148c8dde970e34e5e5efce023e633c000000000000000000000000000000000998bc9d41c5d527360fc4e68ba067d3778cf5cf00e5959b5ec52c1595aabe6e2e92d40cb34faa84513d150568c8cfc00000000000000000000000000000000009ec00ea2da59d937d3154d86dbed2957667253401bce9de80e0ffe6df32f36b06404b9e3af08e912a0b4ef091f93efb000000000000000000000000000000000dd8d1bd66f4accbc9d0c7dabef7af72f51c67a0d61384647533ad92bba44a312f0be0fa52163176f1aff4e64c00aefb0000000000000000000000000000000001cdfae9234096578b9413f926ef8c6831f2c0f700e25d7553a746aef44238e493f8032e09f67f2fed9676c9611f60e70000000000000000000000000000000019c8bae08d3926997146f7827f00cde863684dd4050ea5da64f6798e7a930d3c1f34046bea0f44232594f5469db566280000000000000000000000000000000006a9c650ba974e0fa2fdf6d3659220f47d76f581ec156662b4e9dc4470164e68df977370d2bcf1cad4191031fdc1476f000000000000000000000000000000001068554cf7ba1173150be2cfb7ab4503ecea55b5f29f7d24086ba68b610637b5f0192bf1fe04557b68c1eafa9736daeb0000000000000000000000000000000009ec00ea2da59d937d3154d86dbed2957667253401bce9de80e0ffe6df32f36b06404b9e3af08e912a0b4ef091f93efb000000000000000000000000000000000c28402cd28b39ce814adfdb8453fd646f5ae3e41d718e5af1fd250e3b0cabf2efa01f045f3dce88c84f0b19b3fefbb00000000000000000000000000000000001cdfae9234096578b9413f926ef8c6831f2c0f700e25d7553a746aef44238e493f8032e09f67f2fed9676c9611f60e70000000000000000000000000000000019c8bae08d3926997146f7827f00cde863684dd4050ea5da64f6798e7a930d3c1f34046bea0f44232594f5469db566280000000000000000000000000000000006a9c650ba974e0fa2fdf6d3659220f47d76f581ec156662b4e9dc4470164e68df977370d2bcf1cad4191031fdc1476f000000000000000000000000000000001068554cf7ba1173150be2cfb7ab4503ecea55b5f29f7d24086ba68b610637b5f0192bf1fe04557b68c1eafa9736daeb1ba0c80f2d5817b2a8fda264ebbd41c8216158d3e142d55842808788a7a0b34dd7d2a0551f7454da9c163615b1534cbe7d644c4fb37667e6086a737d02234b1a24f808"
                }
            ]
        },
        "pre" : {
            "0x095e7baea6a6c7c4c2dfeb977efac326af552d87" : {
                "balance" : "0x00",
                "code" : "0x60806040526004361061001e5760003560e01c806312bd429914610023575b600080fd5b6100fc6004803603604081101561003957600080fd5b81019080803573ffffffffffffffffffffffffffffffffffffffff1690602001909291908035906020019064010000000081111561007657600080fd5b82018360208201111561008857600080fd5b803590602001918460018302840111640100000000831117156100aa57600080fd5b91908080601f016020809104026020016040519081016040528093929190818152602001838380828437600081840152601f19601f820116905080830192505050505050509192919290505050610182565b604051808315151515815260200180602001828103825283818151815260200191508051906020019080838360005b8381101561014657808201518184015260208101905061012b565b50505050905090810190601f1680156101735780820380516001836020036101000a031916815260200191505b50935050505060405180910390f35b600060608373ffffffffffffffffffffffffffffffffffffffff16836040518082805190602001908083835b602083106101d157805182526020820191506020810190506020830392506101ae565b6001836020036101000a038019825116818451168082178552505050505050905001915050600060405180830381855afa9150503d8060008114610231576040519150601f19603f3d011682016040523d82523d6000602084013e610236565b606091505b508092508193505050600060405180807f6572726f72000000000000000000000000000000000000000000000000000000815250600501905060405180910390209050821561028a57818051906020012090505b8060025582829250925050925092905056fea2646970667358221220db58d80e8530eed625d9b4250a6055c2eb1d7c117a7ca267e6f8a059bdd2f39e64736f6c634300060a0033",
                "nonce" : "0x01",
                "storage" : {
                }
            },
            "0xa94f5374fce5edbc8e2a8697c15331677e6ebf0b" : {
                "balance" : "0x0de0b6b3a7640000",
                "code" : "0x",
                "nonce" : "0x00",
                "storage" : {
                }
            }
        },
        "transaction" : {
            "data" : [
                "0x12bd4299000000000000000000000000000000000000000000000000000000000000001100000000000000000000000000000000000000000000000000000000000000400000000000000000000000000000000000000000000000000000000000000c000000000000000000000000000000000009ec00ea2da59d937d3154d86dbed2957667253401bce9de80e0ffe6df32f36b06404b9e3af08e912a0b4ef091f93efb000000000000000000000000000000000dd8d1bd66f4accbc9d0c7dabef7af72f51c67a0d61384647533ad92bba44a312f0be0fa52163176f1aff4e64c00aefb0000000000000000000000000000000001cdfae9234096578b9413f926ef8c6831f2c0f700e25d7553a746aef44238e493f8032e09f67f2fed9676c9611f60e70000000000000000000000000000000019c8bae08d3926997146f7827f00cde863684dd4050ea5da64f6798e7a930d3c1f34046bea0f44232594f5469db566280000000000000000000000000000000013574b997ee8988aa81db0e2ddb98be2e7005603076fac5cb246f65c869aa7bb3f148c8dde970e34e5e5efce023e633c000000000000000000000000000000000998bc9d41c5d527360fc4e68ba067d3778cf5cf00e5959b5ec52c1595aabe6e2e92d40cb34faa84513d150568c8cfc00000000000000000000000000000000009ec00ea2da59d937d3154d86dbed2957667253401bce9de80e0ffe6df32f36b06404b9e3af08e912a0b4ef091f93efb000000000000000000000000000000000c28402cd28b39ce814adfdb8453fd646f5ae3e41d718e5af1fd250e3b0cabf2efa01f045f3dce88c84f0b19b3fefbb00000000000000000000000000000000001cdfae9234096578b9413f926ef8c6831f2c0f700e25d7553a746aef44238e493f8032e09f67f2fed9676c9611f60e70000000000000000000000000000000019c8bae08d3926997146f7827f00cde863684dd4050ea5da64f6798e7a930d3c1f34046bea0f44232594f5469db566280000000000000000000000000000000013574b997ee8988aa81db0e2ddb98be2e7005603076fac5cb246f65c869aa7bb3f148c8dde970e34e5e5efce023e633c000000000000000000000000000000000998bc9d41c5d527360fc4e68ba067d3778cf5cf00e5959b5ec52c1595aabe6e2e92d40cb34faa84513d150568c8cfc00000000000000000000000000000000009ec00ea2da59d937d3154d86dbed2957667253401bce9de80e0ffe6df32f36b06404b9e3af08e912a0b4ef091f93efb000000000000000000000000000000000dd8d1bd66f4accbc9d0c7dabef7af72f51c67a0d61384647533ad92bba44a312f0be0fa52163176f1aff4e64c00aefb0000000000000000000000000000000001cdfae9234096578b9413f926ef8c6831f2c0f700e25d7553a746aef44238e493f8032e09f67f2fed9676c9611f60e70000000000000000000000000000000019c8bae08d3926997146f7827f00cde863684dd4050ea5da64f6798e7a930d3c1f34046bea0f44232594f5469db566280000000000000000000000000000000006a9c650ba974e0fa2fdf6d3659220f47d76f581ec156662b4e9dc4470164e68df977370d2bcf1cad4191031fdc1476f000000000000000000000000000000001068554cf7ba1173150be2cfb7ab4503ecea55b5f29f7d24086ba68b610637b5f0192bf1fe04557b68c1eafa9736daeb0000000000000000000000000000000009ec00ea2da59d937d3154d86dbed2957667253401bce9de80e0ffe6df32f36b06404b9e3af08e912a0b4ef091f93efb000000000000000000000000000000000c28402cd28b39ce814adfdb8453fd646f5ae3e41d718e5af1fd250e3b0cabf2efa01f045f3dce88c84f0b19b3fefbb00000000000000000000000000000000001cdfae9234096578b9413f926ef8c6831f2c0f700e25d7553a746aef44238e493f8032e09f67f2fed9676c9611f60e70000000000000000000000000000000019c8bae08d3926997146f7827f00cde863684dd4050ea5da64f6798e7a930d3c1f34046bea0f44232594f5469db566280000000000000000000000000000000006a9c650ba974e0fa2fdf6d3659220f47d76f581ec156662b4e9dc4470164e68df977370d2bcf1cad4191031fdc1476f000000000000000000000000000000001068554cf7ba1173150be2cfb7ab4503ecea55b5f29f7d24086ba68b610637b5f0192bf1fe04557b68c1eafa9736daeb0000000000000000000000000000000009ec00ea2da59d937d3154d86dbed2957667253401bce9de80e0ffe6df32f36b06404b9e3af08e912a0b4ef091f93efb000000000000000000000000000000000dd8d1bd66f4accbc9d0c7dabef7af72f51c67a0d61384647533ad92bba44a312f0be0fa52163176f1aff4e64c00aefb0000000000000000000000000000000001cdfae9234096578b9413f926ef8c6831f2c0f700e25d7553a746aef44238e493f8032e09f67f2fed9676c9611f60e70000000000000000000000000000000019c8bae08d3926997146f7827f00cde863684dd4050ea5da64f6798e7a930d3c1f34046bea0f44232594f5469db566280000000000000000000000000000000013574b997ee8988aa81db0e2ddb98be2e7005603076fac5cb246f65c869aa7bb3f148c8dde970e34e5e5efce023e633c000000000000000000000000000000000998bc9d41c5d527360fc4e68ba067d3778cf5cf00e5959b5ec52c1595aabe6e2e92d40cb34faa84513d150568c8cfc00000000000000000000000000000000009ec00ea2da59d937d3154d86dbed2957667253401bce9de80e0ffe6df32f36b06404b9e3af08e912a0b4ef091f93efb000000000000000000000000000000000c28402cd28b39ce814adfdb8453fd646f5ae3e41d718e5af1fd250e3b0cabf2efa01f045f3dce88c84f0b19b3fefbb00000000000000000000000000000000001cdfae9234096578b9413f926ef8c6831f2c0f700e25d7553a746aef44238e493f8032e09f67f2fed9676c9611f60e70000000000000000000000000000000019c8bae08d3926997146f7827f00cde863684dd4050ea5da64f6798e7a930d3c1f34046bea0f44232594f5469db566280000000000000000000000000000000013574b997ee8988aa81db0e2ddb98be2e7005603076fac5cb246f65c869aa7bb3f148c8dde970e34e5e5efce023e633c000000000000000000000000000000000998bc9d41c5d527360fc4e68ba067d3778cf5cf00e5959b5ec52c1595aabe6e2e92d40cb34faa84513d150568c8cfc00000000000000000000000000000000009ec00ea2da59d937d3154d86dbed2957667253401bce9de80e0ffe6df32f36b06404b9e3af08e912a0b4ef091f93efb000000000000000000000000000000000dd8d1bd66f4accbc9d0c7dabef7af72f51c67a0d61384647533ad92bba44a312f0be0fa52163176f1aff4e64c00aefb0000000000000000000000000000000001cdfae9234096578b9413f926ef8c6831f2c0f700e25d7553a746aef44238e493f8032e09f67f2fed9676c9611f60e70000000000000000000000000000000019c8bae08d3926997146f7827f00cde863684dd4050ea5da64f6798e7a930d3c1f34046bea0f44232594f5469db566280000000000000000000000000000000006a9c650ba974e0fa2fdf6d3659220f47d76f581ec156662b4e9dc4470164e68df977370d2bcf1cad4191031fdc1476f000000000000000000000000000000001068554cf7ba1173150be2cfb7ab4503ecea55b5f29f7d24086ba68b610637b5f0192bf1fe04557b68c1eafa9736daeb0000000000000000000000000000000009ec00ea2da59d937d3154d86dbed2957667253401bce9de80e0ffe6df32f36b06404b9e3af08e912a0b4ef091f93efb000000000000000000000000000000000c28402cd28b39ce814adfdb8453fd646f5ae3e41d718e5af1fd250e3b0cabf2efa01f045f3dce88c84f0b19b3fefbb00000000000000000000000000000000001cdfae9234096578b9413f926ef8c6831f2c0f700e25d7553a746aef44238e493f8032e09f67f2fed9676c9611f60e70000000000000000000000000000000019c8bae08d3926997146f7827f00cde863684dd4050ea5da64f6798e7a930d3c1f34046bea0f44232594f5469db566280000000000000000000000000000000006a9c650ba974e0fa2fdf6d3659220f47d76f581ec156662b4e9dc4470164e68df977370d2bcf1cad4191031fdc1476f000000000000000000000000000000001068554cf7ba1173150be2cfb7ab4503ecea55b5f29f7d24086ba68b610637b5f0192bf1fe04557b68c1eafa9736daeb"
            ],
            "gasLimit" : [
                "0x6acfc0"
            ],
            "gasPrice" : "0x0a",
            "nonce" : "0x00",
            "secretKey" : "0x45a915e4d060149eb4365960e6a7a45f334393093061116b197e3240065ff2d8",
            "sender" : "0xa94f5374fce5edbc8e2a8697c15331677e6ebf0b",
            "to" : "0x095e7baea6a6c7c4c2dfeb977efac326af552d87",
            "value" : [
                "0x03e8"
            ]
        }
    }
}