{
    "pairing_26" : {
        "_info" : {
            "comment" : "A test for pairing_26",
            "filling-rpc-server" : "evm version 1.14.0-unstable-a208e725-20240416",
            "filling-tool-version" : "retesteth-0.3.2-cancun+commit.353b2b37.Linux.g++",
            "generatedTestHash" : "bfd7536e23857dae51d0bd2e2540a931061d2f27d74b949c5eea4ad5b006e606",
            "lllcversion" : "Version: 0.5.14-develop.2023.7.11+commit.c58ab2c6.mod.Linux.g++",
            "solidity" : "Version: 0.8.21+commit.d9974bed.Linux.g++",
            "source" : "src/EIPTestsFiller/StateTests/stEIP2537/pairing_26Filler.json",
            "sourceHash" : "45d46fd2e700632f7e1c129bfdbc1b52480399efe829b9e8df6f0f9bf7d7e4e2"
        },
        "env" : {
            "currentBaseFee" : "0x0a",
            "currentCoinbase" : "0x2adc25665018aa1fe0e6bc666dac8fc2697ff9ba",
            "currentDifficulty" : "0x020000",
            "currentExcessBlobGas" : "0x00",
            "currentGasLimit" : "0xff112233445566",
            "currentNumber" : "0x01",
            "currentRandom" : "0x0000000000000000000000000000000000000000000000000000000000020000",
            "currentTimestamp" : "0x03e8"
        },
        "post" : {
            "Prague" : [
                {
                    "hash" : "0x88bac3ef021975058cf1513654a111975175605689c43879c5623c087314cb1e",
                    "indexes" : {
                        "data" : 0,
                        "gas" : 0,
                        "value" : 0
                    },
                    "logs" : "0x1dcc4de8dec75d7aab85b567b6ccd41ad312451b948a7413f0a142fd40d49347",
                    "txbytes" : "0xf903c8800a836acfc094095e7baea6a6c7c4c2dfeb977efac326af552d878203e8b9036412bd429900000000000000000000000000000000000000000000000000000000000000110000000000000000000000000000000000000000000000000000000000000040000000000000000000000000000000000000000000000000000000000000030000000000000000000000000000000000150d43c64cb1dbb7b981f455e90b740918e2d63453ca17d8eeecb68e662d2581f8aa1aea5b095cd8fc2a941d6e2728390000000000000000000000000000000006dc2ccb10213d3f6c3f10856888cb2bf6f1c7fcb2a17d6e63596c29281682cafd4c72696ecd6af3cce31c440144ebd10000000000000000000000000000000005d8edbabf37a47a539d84393bb2747d0a35a52b80a7c99616c910479306e204e5db1f0fa3fe69f35af3164c7e5726b50000000000000000000000000000000005015082d6975649fbc172035da04f8aeb6d0dd88fdfac3fbd68ec925dc199413ed670488dc6588f9bd34c4ff527f149000000000000000000000000000000001312d53088ca58dfc325772b8dc0e1b20cebf7b2d5b6b4c560759987b44060bf4a59a68d1a5623bbb3cc5b0bc3986b810000000000000000000000000000000012110cd462c6fabf04f67d652639d19640c46f51aadd6c4f9a6dd7806cffb6192d95c198f4c8284151feaa2e2a0dbc1f00000000000000000000000000000000150d43c64cb1dbb7b981f455e90b740918e2d63453ca17d8eeecb68e662d2581f8aa1aea5b095cd8fc2a941d6e272839000000000000000000000000000000001324e51f295ea95adedc9730dac2e1ab6d85838840e3955103d76677ce9a7359215f8d954286950bed1be3bbfebabeda0000000000000000000000000000000005d8edbabf37a47a539d84393bb2747d0a35a52b80a7c99616c910479306e204e5db1f0fa3fe69f35af3164c7e5726b50000000000000000000000000000000005015082d6975649fbc172035da04f8aeb6d0dd88fdfac3fbd68ec925dc199413ed670488dc6588f9bd34c4ff527f149000000000000000000000000000000001312d53088ca58dfc325772b8dc0e1b20cebf7b2d5b6b4c560759987b44060bf4a59a68d1a5623bbb3cc5b0bc3986b810000000000000000000000000000000012110cd462c6fabf04f67d652639d19640c46f51aadd6c4f9a6dd7806cffb6192d95c198f4c8284151feaa2e2a0dbc1f1ca0f2d5e3f83b0f4fb7f5c6e37b6fd552bac047871a47e459e69560badf2d3a5eeea049d1d223ae247cbf8aacd59627c9610ad4ce5cdffcedf89546768eba29d867ef"
                }
            ]
        },
        "pre" : {
            "0x095e7baea6a6c7c4c2dfeb977efac326af552d87" : {
                "balance" : "0x00",
                "code" : "0x60806040526004361061001e5760003560e01c806312bd429914610023575b600080fd5b6100fc6004803603604081101561003957600080fd5b81019080803573ffffffffffffffffffffffffffffffffffffffff1690602001909291908035906020019064010000000081111561007657600080fd5b82018360208201111561008857600080fd5b803590602001918460018302840111640100000000831117156100aa57600080fd5b91908080601f016020809104026020016040519081016040528093929190818152602001838380828437600081840152601f19601f820116905080830192505050505050509192919290505050610182565b604051808315151515815260200180602001828103825283818151815260200191508051906020019080838360005b8381101561014657808201518184015260208101905061012b565b50505050905090810190601f1680156101735780820380516001836020036101000a031916815260200191505b50935050505060405180910390f35b600060608373ffffffffffffffffffffffffffffffffffffffff16836040518082805190602001908083835b602083106101d157805182526020820191506020810190506020830392506101ae565b6001836020036101000a038019825116818451168082178552505050505050905001915050600060405180830381855afa9150503d8060008114610231576040519150601f19603f3d011682016040523d82523d6000602084013e610236565b606091505b508092508193505050600060405180807f6572726f72000000000000000000000000000000000000000000000000000000815250600501905060405180910390209050821561028a57818051906020012090505b8060025582829250925050925092905056fea2646970667358221220db58d80e8530eed625d9b4250a6055c2eb1d7c117a7ca267e6f8a059bdd2f39e64736f6c634300060a0033",
                "nonce" : "0x01",
                "storage" : {
                }
            },
            "0xa94f5374fce5edbc8e2a8697c15331677e6ebf0b" : {
                "balance" : "0x0de0b6b3a7640000",
                "code" : "0x",
                "nonce" : "0x00",
                "storage" : {
                }
            }
        },
        "transaction" : {
            "data" : [
                "0x12bd429900000000000000000000000000000000000000000000000000000000000000110000000000000000000000000000000000000000000000000000000000000040000000000000000000000000000000000000000000000000000000000000030000000000000000000000000000000000150d43c64cb1dbb7b981f455e90b740918e2d63453ca17d8eeecb68e662d2581f8aa1aea5b095cd8fc2a941d6e2728390000000000000000000000000000000006dc2ccb10213d3f6c3f10856888cb2bf6f1c7fcb2a17d6e63596c29281682cafd4c72696ecd6af3cce31c440144ebd10000000000000000000000000000000005d8edbabf37a47a539d84393bb2747d0a35a52b80a7c99616c910479306e204e5db1f0fa3fe69f35af3164c7e5726b50000000000000000000000000000000005015082d6975649fbc172035da04f8aeb6d0dd88fdfac3fbd68ec925dc199413ed670488dc6588f9bd34c4ff527f149000000000000000000000000000000001312d53088ca58dfc325772b8dc0e1b20cebf7b2d5b6b4c560759987b44060bf4a59a68d1a5623bbb3cc5b0bc3986b810000000000000000000000000000000012110cd462c6fabf04f67d652639d19640c46f51aadd6c4f9a6dd7806cffb6192d95c198f4c8284151feaa2e2a0dbc1f00000000000000000000000000000000150d43c64cb1dbb7b981f455e90b740918e2d63453ca17d8eeecb68e662d2581f8aa1aea5b095cd8fc2a941d6e272839000000000000000000000000000000001324e51f295ea95adedc9730dac2e1ab6d85838840e3955103d76677ce9a7359215f8d954286950bed1be3bbfebabeda0000000000000000000000000000000005d8edbabf37a47a539d84393bb2747d0a35a52b80a7c99616c910479306e204e5db1f0fa3fe69f35af3164c7e5726b50000000000000000000000000000000005015082d6975649fbc172035da04f8aeb6d0dd88fdfac3fbd68ec925dc199413ed670488dc6588f9bd34c4ff527f149000000000000000000000000000000001312d53088ca58dfc325772b8dc0e1b20cebf7b2d5b6b4c560759987b44060bf4a59a68d1a5623bbb3cc5b0bc3986b810000000000000000000000000000000012110cd462c6fabf04f67d652639d19640c46f51aadd6c4f9a6dd7806cffb6192d95c198f4c8284151feaa2e2a0dbc1f"
            ],
            "gasLimit" : [
                "0x6acfc0"
            ],
            "gasPrice" : "0x0a",
            "nonce" : "0x00",
            "secretKey" : "0x45a915e4d060149eb4365960e6a7a45f334393093061116b197e3240065ff2d8",
            "sender" : "0xa94f5374fce5edbc8e2a8697c15331677e6ebf0b",
            "to" : "0x095e7baea6a6c7c4c2dfeb977efac326af552d87",
            "value" : [
                "0x03e8"
            ]
        }
    }
}