{
    "pairing_3" : {
        "_info" : {
            "comment" : "A test for pairing_3",
            "filling-rpc-server" : "evm version 1.14.0-unstable-a208e725-20240416",
            "filling-tool-version" : "retesteth-0.3.2-cancun+commit.353b2b37.Linux.g++",
            "generatedTestHash" : "eb4b4db8f42945867269028d82ed637f01bbf17373c8bb60530850de30eaace4",
            "lllcversion" : "Version: 0.5.14-develop.2023.7.11+commit.c58ab2c6.mod.Linux.g++",
            "solidity" : "Version: 0.8.21+commit.d9974bed.Linux.g++",
            "source" : "src/EIPTestsFiller/StateTests/stEIP2537/pairing_3Filler.json",
            "sourceHash" : "a184f92f61690f182f5faf57939da1043ab767f8de7c9a9503d28e00b9df6a60"
        },
        "env" : {
            "currentBaseFee" : "0x0a",
            "currentCoinbase" : "0x2adc25665018aa1fe0e6bc666dac8fc2697ff9ba",
            "currentDifficulty" : "0x020000",
            "currentExcessBlobGas" : "0x00",
            "currentGasLimit" : "0xff112233445566",
            "currentNumber" : "0x01",
            "currentRandom" : "0x0000000000000000000000000000000000000000000000000000000000020000",
            "currentTimestamp" : "0x03e8"
        },
        "post" : {
            "Prague" : [
                {
                    "hash" : "0x7c76f4712842d39a1aaa63e163fdac81c70c8f484152f097f5261df6fdb050e4",
                    "indexes" : {
                        "data" : 0,
                        "gas" : 0,
                        "value" : 0
                    },
                    "logs" : "0x1dcc4de8dec75d7aab85b567b6ccd41ad312451b948a7413f0a142fd40d49347",
                    "txbytes" : "0xf90248800a836acfc094095e7baea6a6c7c4c2dfeb977efac326af552d878203e8b901e412bd42990000000000000000000000000000000000000000000000000000000000000011000000000000000000000000000000000000000000000000000000000000004000000000000000000000000000000000000000000000000000000000000001800000000000000000000000000000000015ff9a232d9b5a8020a85d5fe08a1dcfb73ece434258fe0e2fddf10ddef0906c42dcb5f5d62fc97f934ba900f17beb330000000000000000000000000000000009cfe4ee2241d9413c616462d7bac035a6766aeaab69c81e094d75b840df45d7e0dfac0265608b93efefb9a8728b98e4000000000000000000000000000000000286f09f931c07507ba4aafb7d43befe0b1d25b27ecc9199b19a9dc20bc7ec0329479ef224e00dece67ec0d61f1ca5ae0000000000000000000000000000000014e6ed154b5552be5c463b730b2134f83e0071dcdadfaa68e6c7c7f6e17dabb7daf06e409177bc4b38cfdb8248157618000000000000000000000000000000000f145e998dc6eb0c2b2be87db62949c7bfa63e8b01c8634248010fd623cfaec5d6c6c193331440957d333bf0c988b7b10000000000000000000000000000000002a1ab3eea343cfdea5779f64b3bddbf0769aded60e54a7507338f044310ba239430663394f110e560594d6042a99f1c1ca03445bed6ba17d365d758b92b294d7353ce5ce7b1b2fc532906c6c666c86671b2a0063fd0c3f8c2ad191ec2cf8d78f62753ca2bf4f5c0f982efaf10bdb2474cf550"
                }
            ]
        },
        "pre" : {
            "0x095e7baea6a6c7c4c2dfeb977efac326af552d87" : {
                "balance" : "0x00",
                "code" : "0x60806040526004361061001e5760003560e01c806312bd429914610023575b600080fd5b6100fc6004803603604081101561003957600080fd5b81019080803573ffffffffffffffffffffffffffffffffffffffff1690602001909291908035906020019064010000000081111561007657600080fd5b82018360208201111561008857600080fd5b803590602001918460018302840111640100000000831117156100aa57600080fd5b91908080601f016020809104026020016040519081016040528093929190818152602001838380828437600081840152601f19601f820116905080830192505050505050509192919290505050610182565b604051808315151515815260200180602001828103825283818151815260200191508051906020019080838360005b8381101561014657808201518184015260208101905061012b565b50505050905090810190601f1680156101735780820380516001836020036101000a031916815260200191505b50935050505060405180910390f35b600060608373ffffffffffffffffffffffffffffffffffffffff16836040518082805190602001908083835b602083106101d157805182526020820191506020810190506020830392506101ae565b6001836020036101000a038019825116818451168082178552505050505050905001915050600060405180830381855afa9150503d8060008114610231576040519150601f19603f3d011682016040523d82523d6000602084013e610236565b606091505b508092508193505050600060405180807f6572726f72000000000000000000000000000000000000000000000000000000815250600501905060405180910390209050821561028a57818051906020012090505b8060025582829250925050925092905056fea2646970667358221220db58d80e8530eed625d9b4250a6055c2eb1d7c117a7ca267e6f8a059bdd2f39e64736f6c634300060a0033",
                "nonce" : "0x01",
                "storage" : {
                }
            },
            "0xa94f5374fce5edbc8e2a8697c15331677e6ebf0b" : {
                "balance" : "0x0de0b6b3a7640000",
                "code" : "0x",
                "nonce" : "0x00",
                "storage" : {
                }
            }
        },
        "transaction" : {
            "data" : [
                "0x12bd42990000000000000000000000000000000000000000000000000000000000000011000000000000000000000000000000000000000000000000000000000000004000000000000000000000000000000000000000000000000000000000000001800000000000000000000000000000000015ff9a232d9b5a8020a85d5fe08a1dcfb73ece434258fe0e2fddf10ddef0906c42dcb5f5d62fc97f934ba900f17beb330000000000000000000000000000000009cfe4ee2241d9413c616462d7bac035a6766aeaab69c81e094d75b840df45d7e0dfac0265608b93efefb9a8728b98e4000000000000000000000000000000000286f09f931c07507ba4aafb7d43befe0b1d25b27ecc9199b19a9dc20bc7ec0329479ef224e00dece67ec0d61f1ca5ae0000000000000000000000000000000014e6ed154b5552be5c463b730b2134f83e0071dcdadfaa68e6c7c7f6e17dabb7daf06e409177bc4b38cfdb8248157618000000000000000000000000000000000f145e998dc6eb0c2b2be87db62949c7bfa63e8b01c8634248010fd623cfaec5d6c6c193331440957d333bf0c988b7b10000000000000000000000000000000002a1ab3eea343cfdea5779f64b3bddbf0769aded60e54a7507338f044310ba239430663394f110e560594d6042a99f1c"
            ],
            "gasLimit" : [
                "0x6acfc0"
            ],
            "gasPrice" : "0x0a",
            "nonce" : "0x00",
            "secretKey" : "0x45a915e4d060149eb4365960e6a7a45f334393093061116b197e3240065ff2d8",
            "sender" : "0xa94f5374fce5edbc8e2a8697c15331677e6ebf0b",
            "to" : "0x095e7baea6a6c7c4c2dfeb977efac326af552d87",
            "value" : [
                "0x03e8"
            ]
        }
    }
}