{
    "pairing_51" : {
        "_info" : {
            "comment" : "A test for pairing_51",
            "filling-rpc-server" : "evm version 1.14.0-unstable-a208e725-20240416",
            "filling-tool-version" : "retesteth-0.3.2-cancun+commit.353b2b37.Linux.g++",
            "generatedTestHash" : "44906aca76d46ba1f7c07aa221c4c20e4ce64b761ea620d21c63f9b44fabcf0c",
            "lllcversion" : "Version: 0.5.14-develop.2023.7.11+commit.c58ab2c6.mod.Linux.g++",
            "solidity" : "Version: 0.8.21+commit.d9974bed.Linux.g++",
            "source" : "src/EIPTestsFiller/StateTests/stEIP2537/pairing_51Filler.json",
            "sourceHash" : "21ffeac515712d7d3c1bde68016fc0d24f7a9769ea93b1565c01c9a838e936b4"
        },
        "env" : {
            "currentBaseFee" : "0x0a",
            "currentCoinbase" : "0x2adc25665018aa1fe0e6bc666dac8fc2697ff9ba",
            "currentDifficulty" : "0x020000",
            "currentExcessBlobGas" : "0x00",
            "currentGasLimit" : "0xff112233445566",
            "currentNumber" : "0x01",
            "currentRandom" : "0x0000000000000000000000000000000000000000000000000000000000020000",
            "currentTimestamp" : "0x03e8"
        },
        "post" : {
            "Prague" : [
                {
                    "hash" : "0x4861993d6b5fc90d3d764b36136dc4f107d9b744633b8c94c40056698424b3d4",
                    "indexes" : {
                        "data" : 0,
                        "gas" : 0,
                        "value" : 0
                    },
                    "logs" : "0x1dcc4de8dec75d7aab85b567b6ccd41ad312451b948a7413f0a142fd40d49347",
                    "txbytes" : "0xf906c8800a836acfc094095e7baea6a6c7c4c2dfeb977efac326af552d878203e8b9066412bd42990000000000000000000000000000000000000000000000000000000000000011000000000000000000000000000000000000000000000000000000000000004000000000000000000000000000000000000000000000000000000000000006000000000000000000000000000000000001bc359baeac07a93aca770174ea6444aac9f04affdaa77c8a47b30c60ee2b527c061a4344139264e541d4134f42bfd0000000000000000000000000000000000cbf7a31e6fef4f4664bca4bc87ec7c0b12ced7224300aa4e1a6a7cbdedfcef07482b5d20fa607e3f03fdd6dd03fd10c000000000000000000000000000000000bcec23e092111b38a2f7dc957cf455312ffd33528d084204314492440d29248cb5719346a4f7a490d17ba149e30de5200000000000000000000000000000000194605e5680cc80bd2685949efa3cce90d345b9151ba72f3adf226dd299c23464c4344a42b8834131a51a4156038585f000000000000000000000000000000000477b55bd7fff14e0d1807bfc21edb9481be01c12abb1460d78b1aafe42953730167e32e694c2ddfb0d442e8cea57d460000000000000000000000000000000004b884c6ea36f189dbc3c0e9cf88f08baf5d868579998f63b752e61fcce3cf2c901bb9b51959d3597c4ef53cff41fc260000000000000000000000000000000001bc359baeac07a93aca770174ea6444aac9f04affdaa77c8a47b30c60ee2b527c061a4344139264e541d4134f42bfd0000000000000000000000000000000000d4197b85280f1a5e4cfdd6a7acce516b34a5e12cf55081a858a2ad517d12733aa294a2ca1adf81bc9bf22922fbfd99f000000000000000000000000000000000bcec23e092111b38a2f7dc957cf455312ffd33528d084204314492440d29248cb5719346a4f7a490d17ba149e30de5200000000000000000000000000000000194605e5680cc80bd2685949efa3cce90d345b9151ba72f3adf226dd299c23464c4344a42b8834131a51a4156038585f000000000000000000000000000000000477b55bd7fff14e0d1807bfc21edb9481be01c12abb1460d78b1aafe42953730167e32e694c2ddfb0d442e8cea57d460000000000000000000000000000000004b884c6ea36f189dbc3c0e9cf88f08baf5d868579998f63b752e61fcce3cf2c901bb9b51959d3597c4ef53cff41fc260000000000000000000000000000000001bc359baeac07a93aca770174ea6444aac9f04affdaa77c8a47b30c60ee2b527c061a4344139264e541d4134f42bfd0000000000000000000000000000000000cbf7a31e6fef4f4664bca4bc87ec7c0b12ced7224300aa4e1a6a7cbdedfcef07482b5d20fa607e3f03fdd6dd03fd10c000000000000000000000000000000000bcec23e092111b38a2f7dc957cf455312ffd33528d084204314492440d29248cb5719346a4f7a490d17ba149e30de5200000000000000000000000000000000194605e5680cc80bd2685949efa3cce90d345b9151ba72f3adf226dd299c23464c4344a42b8834131a51a4156038585f0000000000000000000000000000000015895c8e617ff54c3e039ff6812cd142e2b949c3c8c9fe5e8fa5b7f11287a2b11d441cd04807d220092abd17315a2d650000000000000000000000000000000015488d234f48f5106f57e6cc73c2bc4bb519c4ff79eb835bafddec8129cd26f78e90464997fa2ca63db00ac300bdae850000000000000000000000000000000001bc359baeac07a93aca770174ea6444aac9f04affdaa77c8a47b30c60ee2b527c061a4344139264e541d4134f42bfd0000000000000000000000000000000000d4197b85280f1a5e4cfdd6a7acce516b34a5e12cf55081a858a2ad517d12733aa294a2ca1adf81bc9bf22922fbfd99f000000000000000000000000000000000bcec23e092111b38a2f7dc957cf455312ffd33528d084204314492440d29248cb5719346a4f7a490d17ba149e30de5200000000000000000000000000000000194605e5680cc80bd2685949efa3cce90d345b9151ba72f3adf226dd299c23464c4344a42b8834131a51a4156038585f0000000000000000000000000000000015895c8e617ff54c3e039ff6812cd142e2b949c3c8c9fe5e8fa5b7f11287a2b11d441cd04807d220092abd17315a2d650000000000000000000000000000000015488d234f48f5106f57e6cc73c2bc4bb519c4ff79eb835bafddec8129cd26f78e90464997fa2ca63db00ac300bdae851ba0e102ffbc4fa6180188d1eb2719b5cce60d21194b4ff05e68c2a77f8a653e55f7a019c4e589055a775356e4a56a925bd687e5016ea025c9a9cf73bf06ff93406c49"
                }
            ]
        },
        "pre" : {
            "0x095e7baea6a6c7c4c2dfeb977efac326af552d87" : {
                "balance" : "0x00",
                "code" : "0x60806040526004361061001e5760003560e01c806312bd429914610023575b600080fd5b6100fc6004803603604081101561003957600080fd5b81019080803573ffffffffffffffffffffffffffffffffffffffff1690602001909291908035906020019064010000000081111561007657600080fd5b82018360208201111561008857600080fd5b803590602001918460018302840111640100000000831117156100aa57600080fd5b91908080601f016020809104026020016040519081016040528093929190818152602001838380828437600081840152601f19601f820116905080830192505050505050509192919290505050610182565b604051808315151515815260200180602001828103825283818151815260200191508051906020019080838360005b8381101561014657808201518184015260208101905061012b565b50505050905090810190601f1680156101735780820380516001836020036101000a031916815260200191505b50935050505060405180910390f35b600060608373ffffffffffffffffffffffffffffffffffffffff16836040518082805190602001908083835b602083106101d157805182526020820191506020810190506020830392506101ae565b6001836020036101000a038019825116818451168082178552505050505050905001915050600060405180830381855afa9150503d8060008114610231576040519150601f19603f3d011682016040523d82523d6000602084013e610236565b606091505b508092508193505050600060405180807f6572726f72000000000000000000000000000000000000000000000000000000815250600501905060405180910390209050821561028a57818051906020012090505b8060025582829250925050925092905056fea2646970667358221220db58d80e8530eed625d9b4250a6055c2eb1d7c117a7ca267e6f8a059bdd2f39e64736f6c634300060a0033",
                "nonce" : "0x01",
                "storage" : {
                }
            },
            "0xa94f5374fce5edbc8e2a8697c15331677e6ebf0b" : {
                "balance" : "0x0de0b6b3a7640000",
                "code" : "0x",
                "nonce" : "0x00",
                "storage" : {
                }
            }
        },
        "transaction" : {
            "data" : [
                "0x12bd42990000000000000000000000000000000000000000000000000000000000000011000000000000000000000000000000000000000000000000000000000000004000000000000000000000000000000000000000000000000000000000000006000000000000000000000000000000000001bc359baeac07a93aca770174ea6444aac9f04affdaa77c8a47b30c60ee2b527c061a4344139264e541d4134f42bfd0000000000000000000000000000000000cbf7a31e6fef4f4664bca4bc87ec7c0b12ced7224300aa4e1a6a7cbdedfcef07482b5d20fa607e3f03fdd6dd03fd10c000000000000000000000000000000000bcec23e092111b38a2f7dc957cf455312ffd33528d084204314492440d29248cb5719346a4f7a490d17ba149e30de5200000000000000000000000000000000194605e5680cc80bd2685949efa3cce90d345b9151ba72f3adf226dd299c23464c4344a42b8834131a51a4156038585f000000000000000000000000000000000477b55bd7fff14e0d1807bfc21edb9481be01c12abb1460d78b1aafe42953730167e32e694c2ddfb0d442e8cea57d460000000000000000000000000000000004b884c6ea36f189dbc3c0e9cf88f08baf5d868579998f63b752e61fcce3cf2c901bb9b51959d3597c4ef53cff41fc260000000000000000000000000000000001bc359baeac07a93aca770174ea6444aac9f04affdaa77c8a47b30c60ee2b527c061a4344139264e541d4134f42bfd0000000000000000000000000000000000d4197b85280f1a5e4cfdd6a7acce516b34a5e12cf55081a858a2ad517d12733aa294a2ca1adf81bc9bf22922fbfd99f000000000000000000000000000000000bcec23e092111b38a2f7dc957cf455312ffd33528d084204314492440d29248cb5719346a4f7a490d17ba149e30de5200000000000000000000000000000000194605e5680cc80bd2685949efa3cce90d345b9151ba72f3adf226dd299c23464c4344a42b8834131a51a4156038585f000000000000000000000000000000000477b55bd7fff14e0d1807bfc21edb9481be01c12abb1460d78b1aafe42953730167e32e694c2ddfb0d442e8cea57d460000000000000000000000000000000004b884c6ea36f189dbc3c0e9cf88f08baf5d868579998f63b752e61fcce3cf2c901bb9b51959d3597c4ef53cff41fc260000000000000000000000000000000001bc359baeac07a93aca770174ea6444aac9f04affdaa77c8a47b30c60ee2b527c061a4344139264e541d4134f42bfd0000000000000000000000000000000000cbf7a31e6fef4f4664bca4bc87ec7c0b12ced7224300aa4e1a6a7cbdedfcef07482b5d20fa607e3f03fdd6dd03fd10c000000000000000000000000000000000bcec23e092111b38a2f7dc957cf455312ffd33528d084204314492440d29248cb5719346a4f7a490d17ba149e30de5200000000000000000000000000000000194605e5680cc80bd2685949efa3cce90d345b9151ba72f3adf226dd299c23464c4344a42b8834131a51a4156038585f0000000000000000000000000000000015895c8e617ff54c3e039ff6812cd142e2b949c3c8c9fe5e8fa5b7f11287a2b11d441cd04807d220092abd17315a2d650000000000000000000000000000000015488d234f48f5106f57e6cc73c2bc4bb519c4ff79eb835bafddec8129cd26f78e90464997fa2ca63db00ac300bdae850000000000000000000000000000000001bc359baeac07a93aca770174ea6444aac9f04affdaa77c8a47b30c60ee2b527c061a4344139264e541d4134f42bfd0000000000000000000000000000000000d4197b85280f1a5e4cfdd6a7acce516b34a5e12cf55081a858a2ad517d12733aa294a2ca1adf81bc9bf22922fbfd99f000000000000000000000000000000000bcec23e092111b38a2f7dc957cf455312ffd33528d084204314492440d29248cb5719346a4f7a490d17ba149e30de5200000000000000000000000000000000194605e5680cc80bd2685949efa3cce90d345b9151ba72f3adf226dd299c23464c4344a42b8834131a51a4156038585f0000000000000000000000000000000015895c8e617ff54c3e039ff6812cd142e2b949c3c8c9fe5e8fa5b7f11287a2b11d441cd04807d220092abd17315a2d650000000000000000000000000000000015488d234f48f5106f57e6cc73c2bc4bb519c4ff79eb835bafddec8129cd26f78e90464997fa2ca63db00ac300bdae85"
            ],
            "gasLimit" : [
                "0x6acfc0"
            ],
            "gasPrice" : "0x0a",
            "nonce" : "0x00",
            "secretKey" : "0x45a915e4d060149eb4365960e6a7a45f334393093061116b197e3240065ff2d8",
            "sender" : "0xa94f5374fce5edbc8e2a8697c15331677e6ebf0b",
            "to" : "0x095e7baea6a6c7c4c2dfeb977efac326af552d87",
            "value" : [
                "0x03e8"
            ]
        }
    }
}