{
    "pairing_42" : {
        "_info" : {
            "comment" : "A test for pairing_42",
            "filling-rpc-server" : "evm version 1.14.0-unstable-a208e725-20240416",
            "filling-tool-version" : "retesteth-0.3.2-cancun+commit.353b2b37.Linux.g++",
            "generatedTestHash" : "fff3896b92ace91bc71e9bc90f99d063285fa602512425b8c327950a516665cf",
            "lllcversion" : "Version: 0.5.14-develop.2023.7.11+commit.c58ab2c6.mod.Linux.g++",
            "solidity" : "Version: 0.8.21+commit.d9974bed.Linux.g++",
            "source" : "src/EIPTestsFiller/StateTests/stEIP2537/pairing_42Filler.json",
            "sourceHash" : "5f7476f0f88f1ff10186b68a738f2203cc2c32228157c781bdbe2d698951a91f"
        },
        "env" : {
            "currentBaseFee" : "0x0a",
            "currentCoinbase" : "0x2adc25665018aa1fe0e6bc666dac8fc2697ff9ba",
            "currentDifficulty" : "0x020000",
            "currentExcessBlobGas" : "0x00",
            "currentGasLimit" : "0xff112233445566",
            "currentNumber" : "0x01",
            "currentRandom" : "0x0000000000000000000000000000000000000000000000000000000000020000",
            "currentTimestamp" : "0x03e8"
        },
        "post" : {
            "Prague" : [
                {
                    "hash" : "0xc58da4b51aca3972b037533ad5589ea5ac35cfed45b8d39812e5c485957ca5d8",
                    "indexes" : {
                        "data" : 0,
                        "gas" : 0,
                        "value" : 0
                    },
                    "logs" : "0x1dcc4de8dec75d7aab85b567b6ccd41ad312451b948a7413f0a142fd40d49347",
                    "txbytes" : "0xf90548800a836acfc094095e7baea6a6c7c4c2dfeb977efac326af552d878203e8b904e412bd4299000000000000000000000000000000000000000000000000000000000000001100000000000000000000000000000000000000000000000000000000000000400000000000000000000000000000000000000000000000000000000000000480000000000000000000000000000000001329a75975b714c861064d743092866d61c4467e0c0316b78142e6db7e74538a376a09487cb09ee89583d547c187229000000000000000000000000000000000096713619bf088bd9e12752cab83e9cdd58296ada8d338c86a749f00ba014087a3836ce10adaaf2e815f431235bff4f000000000000000000000000000000000161b70d0f384e589d8117938602f3d696f941c24e3c1ca5a9be090b670456c9df315d6fde52daed55c9d8335928a7a3c00000000000000000000000000000000186bb9e6f5ba70dd2c66a641d3b711844977939904c59946d4e9f49ac2d8c00890a43ccb20d4a62bfff63ce4a0a44e8e000000000000000000000000000000001995b9d697bded656236430e78726f0f6ef963db9a5a24d455c12db38aeab0f8629e5dc2d04920156f2a057d69613096000000000000000000000000000000001119b13caf82c18fadcb65c9c166914bfd822534bb9def3feae6c9e572c97c84e97fab3b345cf59358436a404075493d000000000000000000000000000000001329a75975b714c861064d743092866d61c4467e0c0316b78142e6db7e74538a376a09487cb09ee89583d547c1872290000000000000000000000000000000001099fe889d8f5ddcad09328997c7c3098ef4b4d74ab1d9f6fcbc33a03cafb59c7b28931da67950d1389fbcedca3fb5bb00000000000000000000000000000000161b70d0f384e589d8117938602f3d696f941c24e3c1ca5a9be090b670456c9df315d6fde52daed55c9d8335928a7a3c00000000000000000000000000000000186bb9e6f5ba70dd2c66a641d3b711844977939904c59946d4e9f49ac2d8c00890a43ccb20d4a62bfff63ce4a0a44e8e000000000000000000000000000000001995b9d697bded656236430e78726f0f6ef963db9a5a24d455c12db38aeab0f8629e5dc2d04920156f2a057d69613096000000000000000000000000000000001119b13caf82c18fadcb65c9c166914bfd822534bb9def3feae6c9e572c97c84e97fab3b345cf59358436a404075493d000000000000000000000000000000001329a75975b714c861064d743092866d61c4467e0c0316b78142e6db7e74538a376a09487cb09ee89583d547c187229000000000000000000000000000000000096713619bf088bd9e12752cab83e9cdd58296ada8d338c86a749f00ba014087a3836ce10adaaf2e815f431235bff4f000000000000000000000000000000000161b70d0f384e589d8117938602f3d696f941c24e3c1ca5a9be090b670456c9df315d6fde52daed55c9d8335928a7a3c00000000000000000000000000000000186bb9e6f5ba70dd2c66a641d3b711844977939904c59946d4e9f49ac2d8c00890a43ccb20d4a62bfff63ce4a0a44e8e00000000000000000000000000000000006b5813a1c1f934e8e564a7cad93dc7f57de7a9592aedeb116fa4ed6bc6452bbc0da23be10adfea4ad4fa82969e7a150000000000000000000000000000000008e760ad89fd250a9d5041ec81e51b8b66f5265037e7237f7c4a08bb83e7799f352c54c37cf70a6c61bb95bfbf8a616e1ba002819e1d22529afbd8774a969cf4d10d41dcf276ab00323dd6bbca06535064e4a0473516e76eecf04b9f05a07a0963edb07531396e164bd6c9d9deeea672d500e9"
                }
            ]
        },
        "pre" : {
            "0x095e7baea6a6c7c4c2dfeb977efac326af552d87" : {
                "balance" : "0x00",
                "code" : "0x60806040526004361061001e5760003560e01c806312bd429914610023575b600080fd5b6100fc6004803603604081101561003957600080fd5b81019080803573ffffffffffffffffffffffffffffffffffffffff1690602001909291908035906020019064010000000081111561007657600080fd5b82018360208201111561008857600080fd5b803590602001918460018302840111640100000000831117156100aa57600080fd5b91908080601f016020809104026020016040519081016040528093929190818152602001838380828437600081840152601f19601f820116905080830192505050505050509192919290505050610182565b604051808315151515815260200180602001828103825283818151815260200191508051906020019080838360005b8381101561014657808201518184015260208101905061012b565b50505050905090810190601f1680156101735780820380516001836020036101000a031916815260200191505b50935050505060405180910390f35b600060608373ffffffffffffffffffffffffffffffffffffffff16836040518082805190602001908083835b602083106101d157805182526020820191506020810190506020830392506101ae565b6001836020036101000a038019825116818451168082178552505050505050905001915050600060405180830381855afa9150503d8060008114610231576040519150601f19603f3d011682016040523d82523d6000602084013e610236565b606091505b508092508193505050600060405180807f6572726f72000000000000000000000000000000000000000000000000000000815250600501905060405180910390209050821561028a57818051906020012090505b8060025582829250925050925092905056fea2646970667358221220db58d80e8530eed625d9b4250a6055c2eb1d7c117a7ca267e6f8a059bdd2f39e64736f6c634300060a0033",
                "nonce" : "0x01",
                "storage" : {
                }
            },
            "0xa94f5374fce5edbc8e2a8697c15331677e6ebf0b" : {
                "balance" : "0x0de0b6b3a7640000",
                "code" : "0x",
                "nonce" : "0x00",
                "storage" : {
                }
            }
        },
        "transaction" : {
            "data" : [
                "0x12bd4299000000000000000000000000000000000000000000000000000000000000001100000000000000000000000000000000000000000000000000000000000000400000000000000000000000000000000000000000000000000000000000000480000000000000000000000000000000001329a75975b714c861064d743092866d61c4467e0c0316b78142e6db7e74538a376a09487cb09ee89583d547c187229000000000000000000000000000000000096713619bf088bd9e12752cab83e9cdd58296ada8d338c86a749f00ba014087a3836ce10adaaf2e815f431235bff4f000000000000000000000000000000000161b70d0f384e589d8117938602f3d696f941c24e3c1ca5a9be090b670456c9df315d6fde52daed55c9d8335928a7a3c00000000000000000000000000000000186bb9e6f5ba70dd2c66a641d3b711844977939904c59946d4e9f49ac2d8c00890a43ccb20d4a62bfff63ce4a0a44e8e000000000000000000000000000000001995b9d697bded656236430e78726f0f6ef963db9a5a24d455c12db38aeab0f8629e5dc2d04920156f2a057d69613096000000000000000000000000000000001119b13caf82c18fadcb65c9c166914bfd822534bb9def3feae6c9e572c97c84e97fab3b345cf59358436a404075493d000000000000000000000000000000001329a75975b714c861064d743092866d61c4467e0c0316b78142e6db7e74538a376a09487cb09ee89583d547c1872290000000000000000000000000000000001099fe889d8f5ddcad09328997c7c3098ef4b4d74ab1d9f6fcbc33a03cafb59c7b28931da67950d1389fbcedca3fb5bb00000000000000000000000000000000161b70d0f384e589d8117938602f3d696f941c24e3c1ca5a9be090b670456c9df315d6fde52daed55c9d8335928a7a3c00000000000000000000000000000000186bb9e6f5ba70dd2c66a641d3b711844977939904c59946d4e9f49ac2d8c00890a43ccb20d4a62bfff63ce4a0a44e8e000000000000000000000000000000001995b9d697bded656236430e78726f0f6ef963db9a5a24d455c12db38aeab0f8629e5dc2d04920156f2a057d69613096000000000000000000000000000000001119b13caf82c18fadcb65c9c166914bfd822534bb9def3feae6c9e572c97c84e97fab3b345cf59358436a404075493d000000000000000000000000000000001329a75975b714c861064d743092866d61c4467e0c0316b78142e6db7e74538a376a09487cb09ee89583d547c187229000000000000000000000000000000000096713619bf088bd9e12752cab83e9cdd58296ada8d338c86a749f00ba014087a3836ce10adaaf2e815f431235bff4f000000000000000000000000000000000161b70d0f384e589d8117938602f3d696f941c24e3c1ca5a9be090b670456c9df315d6fde52daed55c9d8335928a7a3c00000000000000000000000000000000186bb9e6f5ba70dd2c66a641d3b711844977939904c59946d4e9f49ac2d8c00890a43ccb20d4a62bfff63ce4a0a44e8e00000000000000000000000000000000006b5813a1c1f934e8e564a7cad93dc7f57de7a9592aedeb116fa4ed6bc6452bbc0da23be10adfea4ad4fa82969e7a150000000000000000000000000000000008e760ad89fd250a9d5041ec81e51b8b66f5265037e7237f7c4a08bb83e7799f352c54c37cf70a6c61bb95bfbf8a616e"
            ],
            "gasLimit" : [
                "0x6acfc0"
            ],
            "gasPrice" : "0x0a",
            "nonce" : "0x00",
            "secretKey" : "0x45a915e4d060149eb4365960e6a7a45f334393093061116b197e3240065ff2d8",
            "sender" : "0xa94f5374fce5edbc8e2a8697c15331677e6ebf0b",
            "to" : "0x095e7baea6a6c7c4c2dfeb977efac326af552d87",
            "value" : [
                "0x03e8"
            ]
        }
    }
}