{
    "pairing_87" : {
        "_info" : {
            "comment" : "A test for pairing_87",
            "filling-rpc-server" : "evm version 1.14.0-unstable-a208e725-20240416",
            "filling-tool-version" : "retesteth-0.3.2-cancun+commit.353b2b37.Linux.g++",
            "generatedTestHash" : "693d574c233739e67c7c43365c5d6f8452a29f6a4c26114b12f32770f692138d",
            "lllcversion" : "Version: 0.5.14-develop.2023.7.11+commit.c58ab2c6.mod.Linux.g++",
            "solidity" : "Version: 0.8.21+commit.d9974bed.Linux.g++",
            "source" : "src/EIPTestsFiller/StateTests/stEIP2537/pairing_87Filler.json",
            "sourceHash" : "c7ef8531fb24da8674b34594226f4dac6a87e808d8e6b413eab5cbe4e02ff86b"
        },
        "env" : {
            "currentBaseFee" : "0x0a",
            "currentCoinbase" : "0x2adc25665018aa1fe0e6bc666dac8fc2697ff9ba",
            "currentDifficulty" : "0x020000",
            "currentExcessBlobGas" : "0x00",
            "currentGasLimit" : "0xff112233445566",
            "currentNumber" : "0x01",
            "currentRandom" : "0x0000000000000000000000000000000000000000000000000000000000020000",
            "currentTimestamp" : "0x03e8"
        },
        "post" : {
            "Prague" : [
                {
                    "hash" : "0x23007547cffa849ef205eadd5131867553af400f8dab0a5199ff034652172705",
                    "indexes" : {
                        "data" : 0,
                        "gas" : 0,
                        "value" : 0
                    },
                    "logs" : "0x1dcc4de8dec75d7aab85b567b6ccd41ad312451b948a7413f0a142fd40d49347",
                    "txbytes" : "0xf90cc8800a836acfc094095e7baea6a6c7c4c2dfeb977efac326af552d878203e8b90c6412bd4299000000000000000000000000000000000000000000000000000000000000001100000000000000000000000000000000000000000000000000000000000000400000000000000000000000000000000000000000000000000000000000000c000000000000000000000000000000000013fe38343072af8ef1d8247c3d46b4fd190086ceddfeb767787031368da6a6a6ae849cfc26a24ead499338e37fa337e30000000000000000000000000000000009f7d7b21882455e9f1f24ea120f3eb69f739c1320c37eb2b17e0a271cb03ac6e2b0c55d3518548a005f28b5748b7f59000000000000000000000000000000000ba48cbd776dd03a5b69aed3a31b7d151a8d98cd9adc3b9987cf2ac94644a364ebf3d30cf31742e2152aeba0eebc9ceb0000000000000000000000000000000008793a44c730949a9e50e9439d579ff0991dfc49a67a29b1701989ab065e6e937b14ac1bbca5a3dbf79a61837ad18394000000000000000000000000000000000d81a0809479694fde24e5a3ee7d32deacc25e77f241024666bc3372e80379a722863ea8105f345f1d09e462fc5a8c6c0000000000000000000000000000000001a5be923f1ca5ee876d660fbca5896f1634ef6a83ff8c64dca4ed76d1db2ba4875099fa5a39a09f839731278b307fb10000000000000000000000000000000013fe38343072af8ef1d8247c3d46b4fd190086ceddfeb767787031368da6a6a6ae849cfc26a24ead499338e37fa337e30000000000000000000000000000000010093a3820fda13babfc82cc313c6e20c503af71d2c1940cb5b2c879da00bb5d3bfb3aa17c3bab75b99fd74a8b742b52000000000000000000000000000000000ba48cbd776dd03a5b69aed3a31b7d151a8d98cd9adc3b9987cf2ac94644a364ebf3d30cf31742e2152aeba0eebc9ceb0000000000000000000000000000000008793a44c730949a9e50e9439d579ff0991dfc49a67a29b1701989ab065e6e937b14ac1bbca5a3dbf79a61837ad18394000000000000000000000000000000000d81a0809479694fde24e5a3ee7d32deacc25e77f241024666bc3372e80379a722863ea8105f345f1d09e462fc5a8c6c0000000000000000000000000000000001a5be923f1ca5ee876d660fbca5896f1634ef6a83ff8c64dca4ed76d1db2ba4875099fa5a39a09f839731278b307fb10000000000000000000000000000000013fe38343072af8ef1d8247c3d46b4fd190086ceddfeb767787031368da6a6a6ae849cfc26a24ead499338e37fa337e30000000000000000000000000000000009f7d7b21882455e9f1f24ea120f3eb69f739c1320c37eb2b17e0a271cb03ac6e2b0c55d3518548a005f28b5748b7f59000000000000000000000000000000000ba48cbd776dd03a5b69aed3a31b7d151a8d98cd9adc3b9987cf2ac94644a364ebf3d30cf31742e2152aeba0eebc9ceb0000000000000000000000000000000008793a44c730949a9e50e9439d579ff0991dfc49a67a29b1701989ab065e6e937b14ac1bbca5a3dbf79a61837ad18394000000000000000000000000000000000c7f7169a5067d4a6cf6c21254ce79f8b7b4ed0d0144107900749f2e0ead7c7cfc25c156a0f4cba09cf51b9d03a51e3f00000000000000000000000000000000185b5357fa6340abc3ae41a686a623684e425c1a6f85865a8a8be52a24d5ca7f975b6604571a5f603667ced874cf2afa0000000000000000000000000000000013fe38343072af8ef1d8247c3d46b4fd190086ceddfeb767787031368da6a6a6ae849cfc26a24ead499338e37fa337e30000000000000000000000000000000010093a3820fda13babfc82cc313c6e20c503af71d2c1940cb5b2c879da00bb5d3bfb3aa17c3bab75b99fd74a8b742b52000000000000000000000000000000000ba48cbd776dd03a5b69aed3a31b7d151a8d98cd9adc3b9987cf2ac94644a364ebf3d30cf31742e2152aeba0eebc9ceb0000000000000000000000000000000008793a44c730949a9e50e9439d579ff0991dfc49a67a29b1701989ab065e6e937b14ac1bbca5a3dbf79a61837ad18394000000000000000000000000000000000c7f7169a5067d4a6cf6c21254ce79f8b7b4ed0d0144107900749f2e0ead7c7cfc25c156a0f4cba09cf51b9d03a51e3f00000000000000000000000000000000185b5357fa6340abc3ae41a686a623684e425c1a6f85865a8a8be52a24d5ca7f975b6604571a5f603667ced874cf2afa0000000000000000000000000000000013fe38343072af8ef1d8247c3d46b4fd190086ceddfeb767787031368da6a6a6ae849cfc26a24ead499338e37fa337e30000000000000000000000000000000009f7d7b21882455e9f1f24ea120f3eb69f739c1320c37eb2b17e0a271cb03ac6e2b0c55d3518548a005f28b5748b7f59000000000000000000000000000000000ba48cbd776dd03a5b69aed3a31b7d151a8d98cd9adc3b9987cf2ac94644a364ebf3d30cf31742e2152aeba0eebc9ceb0000000000000000000000000000000008793a44c730949a9e50e9439d579ff0991dfc49a67a29b1701989ab065e6e937b14ac1bbca5a3dbf79a61837ad18394000000000000000000000000000000000d81a0809479694fde24e5a3ee7d32deacc25e77f241024666bc3372e80379a722863ea8105f345f1d09e462fc5a8c6c0000000000000000000000000000000001a5be923f1ca5ee876d660fbca5896f1634ef6a83ff8c64dca4ed76d1db2ba4875099fa5a39a09f839731278b307fb10000000000000000000000000000000013fe38343072af8ef1d8247c3d46b4fd190086ceddfeb767787031368da6a6a6ae849cfc26a24ead499338e37fa337e30000000000000000000000000000000010093a3820fda13babfc82cc313c6e20c503af71d2c1940cb5b2c879da00bb5d3bfb3aa17c3bab75b99fd74a8b742b52000000000000000000000000000000000ba48cbd776dd03a5b69aed3a31b7d151a8d98cd9adc3b9987cf2ac94644a364ebf3d30cf31742e2152aeba0eebc9ceb0000000000000000000000000000000008793a44c730949a9e50e9439d579ff0991dfc49a67a29b1701989ab065e6e937b14ac1bbca5a3dbf79a61837ad18394000000000000000000000000000000000d81a0809479694fde24e5a3ee7d32deacc25e77f241024666bc3372e80379a722863ea8105f345f1d09e462fc5a8c6c0000000000000000000000000000000001a5be923f1ca5ee876d660fbca5896f1634ef6a83ff8c64dca4ed76d1db2ba4875099fa5a39a09f839731278b307fb10000000000000000000000000000000013fe38343072af8ef1d8247c3d46b4fd190086ceddfeb767787031368da6a6a6ae849cfc26a24ead499338e37fa337e30000000000000000000000000000000009f7d7b21882455e9f1f24ea120f3eb69f739c1320c37eb2b17e0a271cb03ac6e2b0c55d3518548a005f28b5748b7f59000000000000000000000000000000000ba48cbd776dd03a5b69aed3a31b7d151a8d98cd9adc3b9987cf2ac94644a364ebf3d30cf31742e2152aeba0eebc9ceb0000000000000000000000000000000008793a44c730949a9e50e9439d579ff0991dfc49a67a29b1701989ab065e6e937b14ac1bbca5a3dbf79a61837ad18394000000000000000000000000000000000c7f7169a5067d4a6cf6c21254ce79f8b7b4ed0d0144107900749f2e0ead7c7cfc25c156a0f4cba09cf51b9d03a51e3f00000000000000000000000000000000185b5357fa6340abc3ae41a686a623684e425c1a6f85865a8a8be52a24d5ca7f975b6604571a5f603667ced874cf2afa0000000000000000000000000000000013fe38343072af8ef1d8247c3d46b4fd190086ceddfeb767787031368da6a6a6ae849cfc26a24ead499338e37fa337e30000000000000000000000000000000010093a3820fda13babfc82cc313c6e20c503af71d2c1940cb5b2c879da00bb5d3bfb3aa17c3bab75b99fd74a8b742b52000000000000000000000000000000000ba48cbd776dd03a5b69aed3a31b7d151a8d98cd9adc3b9987cf2ac94644a364ebf3d30cf31742e2152aeba0eebc9ceb0000000000000000000000000000000008793a44c730949a9e50e9439d579ff0991dfc49a67a29b1701989ab065e6e937b14ac1bbca5a3dbf79a61837ad18394000000000000000000000000000000000c7f7169a5067d4a6cf6c21254ce79f8b7b4ed0d0144107900749f2e0ead7c7cfc25c156a0f4cba09cf51b9d03a51e3f00000000000000000000000000000000185b5357fa6340abc3ae41a686a623684e425c1a6f85865a8a8be52a24d5ca7f975b6604571a5f603667ced874cf2afa1ca0319047bf5b34c2db03c4296cccf17d4b6bffebb018e5b7ba18fd5a0057b41ebba04b88061b1e334e435e0b451c2083ce8bb84b953ca2dbbe5836f75c9af9c26f14"
                }
            ]
        },
        "pre" : {
            "0x095e7baea6a6c7c4c2dfeb977efac326af552d87" : {
                "balance" : "0x00",
                "code" : "0x60806040526004361061001e5760003560e01c806312bd429914610023575b600080fd5b6100fc6004803603604081101561003957600080fd5b81019080803573ffffffffffffffffffffffffffffffffffffffff1690602001909291908035906020019064010000000081111561007657600080fd5b82018360208201111561008857600080fd5b803590602001918460018302840111640100000000831117156100aa57600080fd5b91908080601f016020809104026020016040519081016040528093929190818152602001838380828437600081840152601f19601f820116905080830192505050505050509192919290505050610182565b604051808315151515815260200180602001828103825283818151815260200191508051906020019080838360005b8381101561014657808201518184015260208101905061012b565b50505050905090810190601f1680156101735780820380516001836020036101000a031916815260200191505b50935050505060405180910390f35b600060608373ffffffffffffffffffffffffffffffffffffffff16836040518082805190602001908083835b602083106101d157805182526020820191506020810190506020830392506101ae565b6001836020036101000a038019825116818451168082178552505050505050905001915050600060405180830381855afa9150503d8060008114610231576040519150601f19603f3d011682016040523d82523d6000602084013e610236565b606091505b508092508193505050600060405180807f6572726f72000000000000000000000000000000000000000000000000000000815250600501905060405180910390209050821561028a57818051906020012090505b8060025582829250925050925092905056fea2646970667358221220db58d80e8530eed625d9b4250a6055c2eb1d7c117a7ca267e6f8a059bdd2f39e64736f6c634300060a0033",
                "nonce" : "0x01",
                "storage" : {
                }
            },
            "0xa94f5374fce5edbc8e2a8697c15331677e6ebf0b" : {
                "balance" : "0x0de0b6b3a7640000",
                "code" : "0x",
                "nonce" : "0x00",
                "storage" : {
                }
            }
        },
        "transaction" : {
            "data" : [
                "0x12bd4299000000000000000000000000000000000000000000000000000000000000001100000000000000000000000000000000000000000000000000000000000000400000000000000000000000000000000000000000000000000000000000000c000000000000000000000000000000000013fe38343072af8ef1d8247c3d46b4fd190086ceddfeb767787031368da6a6a6ae849cfc26a24ead499338e37fa337e30000000000000000000000000000000009f7d7b21882455e9f1f24ea120f3eb69f739c1320c37eb2b17e0a271cb03ac6e2b0c55d3518548a005f28b5748b7f59000000000000000000000000000000000ba48cbd776dd03a5b69aed3a31b7d151a8d98cd9adc3b9987cf2ac94644a364ebf3d30cf31742e2152aeba0eebc9ceb0000000000000000000000000000000008793a44c730949a9e50e9439d579ff0991dfc49a67a29b1701989ab065e6e937b14ac1bbca5a3dbf79a61837ad18394000000000000000000000000000000000d81a0809479694fde24e5a3ee7d32deacc25e77f241024666bc3372e80379a722863ea8105f345f1d09e462fc5a8c6c0000000000000000000000000000000001a5be923f1ca5ee876d660fbca5896f1634ef6a83ff8c64dca4ed76d1db2ba4875099fa5a39a09f839731278b307fb10000000000000000000000000000000013fe38343072af8ef1d8247c3d46b4fd190086ceddfeb767787031368da6a6a6ae849cfc26a24ead499338e37fa337e30000000000000000000000000000000010093a3820fda13babfc82cc313c6e20c503af71d2c1940cb5b2c879da00bb5d3bfb3aa17c3bab75b99fd74a8b742b52000000000000000000000000000000000ba48cbd776dd03a5b69aed3a31b7d151a8d98cd9adc3b9987cf2ac94644a364ebf3d30cf31742e2152aeba0eebc9ceb0000000000000000000000000000000008793a44c730949a9e50e9439d579ff0991dfc49a67a29b1701989ab065e6e937b14ac1bbca5a3dbf79a61837ad18394000000000000000000000000000000000d81a0809479694fde24e5a3ee7d32deacc25e77f241024666bc3372e80379a722863ea8105f345f1d09e462fc5a8c6c0000000000000000000000000000000001a5be923f1ca5ee876d660fbca5896f1634ef6a83ff8c64dca4ed76d1db2ba4875099fa5a39a09f839731278b307fb10000000000000000000000000000000013fe38343072af8ef1d8247c3d46b4fd190086ceddfeb767787031368da6a6a6ae849cfc26a24ead499338e37fa337e30000000000000000000000000000000009f7d7b21882455e9f1f24ea120f3eb69f739c1320c37eb2b17e0a271cb03ac6e2b0c55d3518548a005f28b5748b7f59000000000000000000000000000000000ba48cbd776dd03a5b69aed3a31b7d151a8d98cd9adc3b9987cf2ac94644a364ebf3d30cf31742e2152aeba0eebc9ceb0000000000000000000000000000000008793a44c730949a9e50e9439d579ff0991dfc49a67a29b1701989ab065e6e937b14ac1bbca5a3dbf79a61837ad18394000000000000000000000000000000000c7f7169a5067d4a6cf6c21254ce79f8b7b4ed0d0144107900749f2e0ead7c7cfc25c156a0f4cba09cf51b9d03a51e3f00000000000000000000000000000000185b5357fa6340abc3ae41a686a623684e425c1a6f85865a8a8be52a24d5ca7f975b6604571a5f603667ced874cf2afa0000000000000000000000000000000013fe38343072af8ef1d8247c3d46b4fd190086ceddfeb767787031368da6a6a6ae849cfc26a24ead499338e37fa337e30000000000000000000000000000000010093a3820fda13babfc82cc313c6e20c503af71d2c1940cb5b2c879da00bb5d3bfb3aa17c3bab75b99fd74a8b742b52000000000000000000000000000000000ba48cbd776dd03a5b69aed3a31b7d151a8d98cd9adc3b9987cf2ac94644a364ebf3d30cf31742e2152aeba0eebc9ceb0000000000000000000000000000000008793a44c730949a9e50e9439d579ff0991dfc49a67a29b1701989ab065e6e937b14ac1bbca5a3dbf79a61837ad18394000000000000000000000000000000000c7f7169a5067d4a6cf6c21254ce79f8b7b4ed0d0144107900749f2e0ead7c7cfc25c156a0f4cba09cf51b9d03a51e3f00000000000000000000000000000000185b5357fa6340abc3ae41a686a623684e425c1a6f85865a8a8be52a24d5ca7f975b6604571a5f603667ced874cf2afa0000000000000000000000000000000013fe38343072af8ef1d8247c3d46b4fd190086ceddfeb767787031368da6a6a6ae849cfc26a24ead499338e37fa337e30000000000000000000000000000000009f7d7b21882455e9f1f24ea120f3eb69f739c1320c37eb2b17e0a271cb03ac6e2b0c55d3518548a005f28b5748b7f59000000000000000000000000000000000ba48cbd776dd03a5b69aed3a31b7d151a8d98cd9adc3b9987cf2ac94644a364ebf3d30cf31742e2152aeba0eebc9ceb0000000000000000000000000000000008793a44c730949a9e50e9439d579ff0991dfc49a67a29b1701989ab065e6e937b14ac1bbca5a3dbf79a61837ad18394000000000000000000000000000000000d81a0809479694fde24e5a3ee7d32deacc25e77f241024666bc3372e80379a722863ea8105f345f1d09e462fc5a8c6c0000000000000000000000000000000001a5be923f1ca5ee876d660fbca5896f1634ef6a83ff8c64dca4ed76d1db2ba4875099fa5a39a09f839731278b307fb10000000000000000000000000000000013fe38343072af8ef1d8247c3d46b4fd190086ceddfeb767787031368da6a6a6ae849cfc26a24ead499338e37fa337e30000000000000000000000000000000010093a3820fda13babfc82cc313c6e20c503af71d2c1940cb5b2c879da00bb5d3bfb3aa17c3bab75b99fd74a8b742b52000000000000000000000000000000000ba48cbd776dd03a5b69aed3a31b7d151a8d98cd9adc3b9987cf2ac94644a364ebf3d30cf31742e2152aeba0eebc9ceb0000000000000000000000000000000008793a44c730949a9e50e9439d579ff0991dfc49a67a29b1701989ab065e6e937b14ac1bbca5a3dbf79a61837ad18394000000000000000000000000000000000d81a0809479694fde24e5a3ee7d32deacc25e77f241024666bc3372e80379a722863ea8105f345f1d09e462fc5a8c6c0000000000000000000000000000000001a5be923f1ca5ee876d660fbca5896f1634ef6a83ff8c64dca4ed76d1db2ba4875099fa5a39a09f839731278b307fb10000000000000000000000000000000013fe38343072af8ef1d8247c3d46b4fd190086ceddfeb767787031368da6a6a6ae849cfc26a24ead499338e37fa337e30000000000000000000000000000000009f7d7b21882455e9f1f24ea120f3eb69f739c1320c37eb2b17e0a271cb03ac6e2b0c55d3518548a005f28b5748b7f59000000000000000000000000000000000ba48cbd776dd03a5b69aed3a31b7d151a8d98cd9adc3b9987cf2ac94644a364ebf3d30cf31742e2152aeba0eebc9ceb0000000000000000000000000000000008793a44c730949a9e50e9439d579ff0991dfc49a67a29b1701989ab065e6e937b14ac1bbca5a3dbf79a61837ad18394000000000000000000000000000000000c7f7169a5067d4a6cf6c21254ce79f8b7b4ed0d0144107900749f2e0ead7c7cfc25c156a0f4cba09cf51b9d03a51e3f00000000000000000000000000000000185b5357fa6340abc3ae41a686a623684e425c1a6f85865a8a8be52a24d5ca7f975b6604571a5f603667ced874cf2afa0000000000000000000000000000000013fe38343072af8ef1d8247c3d46b4fd190086ceddfeb767787031368da6a6a6ae849cfc26a24ead499338e37fa337e30000000000000000000000000000000010093a3820fda13babfc82cc313c6e20c503af71d2c1940cb5b2c879da00bb5d3bfb3aa17c3bab75b99fd74a8b742b52000000000000000000000000000000000ba48cbd776dd03a5b69aed3a31b7d151a8d98cd9adc3b9987cf2ac94644a364ebf3d30cf31742e2152aeba0eebc9ceb0000000000000000000000000000000008793a44c730949a9e50e9439d579ff0991dfc49a67a29b1701989ab065e6e937b14ac1bbca5a3dbf79a61837ad18394000000000000000000000000000000000c7f7169a5067d4a6cf6c21254ce79f8b7b4ed0d0144107900749f2e0ead7c7cfc25c156a0f4cba09cf51b9d03a51e3f00000000000000000000000000000000185b5357fa6340abc3ae41a686a623684e425c1a6f85865a8a8be52a24d5ca7f975b6604571a5f603667ced874cf2afa"
            ],
            "gasLimit" : [
                "0x6acfc0"
            ],
            "gasPrice" : "0x0a",
            "nonce" : "0x00",
            "secretKey" : "0x45a915e4d060149eb4365960e6a7a45f334393093061116b197e3240065ff2d8",
            "sender" : "0xa94f5374fce5edbc8e2a8697c15331677e6ebf0b",
            "to" : "0x095e7baea6a6c7c4c2dfeb977efac326af552d87",
            "value" : [
                "0x03e8"
            ]
        }
    }
}