{
    "pairing_91" : {
        "_info" : {
            "comment" : "A test for pairing_91",
            "filling-rpc-server" : "evm version 1.14.0-unstable-a208e725-20240416",
            "filling-tool-version" : "retesteth-0.3.2-cancun+commit.353b2b37.Linux.g++",
            "generatedTestHash" : "305468f90b90bc5eab4c9fd95f5ee371ab8d817d90ad6eb2ad34a4a4b171807f",
            "lllcversion" : "Version: 0.5.14-develop.2023.7.11+commit.c58ab2c6.mod.Linux.g++",
            "solidity" : "Version: 0.8.21+commit.d9974bed.Linux.g++",
            "source" : "src/EIPTestsFiller/StateTests/stEIP2537/pairing_91Filler.json",
            "sourceHash" : "a159ad42afc2fdfffabab1f9d6f318a38a52af7d5b0070e7f36822e4a18c9259"
        },
        "env" : {
            "currentBaseFee" : "0x0a",
            "currentCoinbase" : "0x2adc25665018aa1fe0e6bc666dac8fc2697ff9ba",
            "currentDifficulty" : "0x020000",
            "currentExcessBlobGas" : "0x00",
            "currentGasLimit" : "0xff112233445566",
            "currentNumber" : "0x01",
            "currentRandom" : "0x0000000000000000000000000000000000000000000000000000000000020000",
            "currentTimestamp" : "0x03e8"
        },
        "post" : {
            "Prague" : [
                {
                    "hash" : "0xb2501d73ed553eec7807ac4ac846e45058552a37051261d52f0d76bdcc6c8661",
                    "indexes" : {
                        "data" : 0,
                        "gas" : 0,
                        "value" : 0
                    },
                    "logs" : "0x1dcc4de8dec75d7aab85b567b6ccd41ad312451b948a7413f0a142fd40d49347",
                    "txbytes" : "0xf90cc8800a836acfc094095e7baea6a6c7c4c2dfeb977efac326af552d878203e8b90c6412bd4299000000000000000000000000000000000000000000000000000000000000001100000000000000000000000000000000000000000000000000000000000000400000000000000000000000000000000000000000000000000000000000000c00000000000000000000000000000000001667fdc9b89d12fb0704fdec910cab1b51ac04219ef6e50f996688b2ceb26dca0e9e8594c5b81fca2e8fc2c8d8fa9a4700000000000000000000000000000000193118d1f237c68a8a0961fb220c0fd6a08853908a039dd57f8ed334063e5316bf83e8c3c3f44420734abbd7ddda31a600000000000000000000000000000000156901359e5b399168e90ccad27a054d147aa9c4a731294180e395e8e2d458f5537fdac591cdc82fd8bffa4c9fa126ed00000000000000000000000000000000143872757c0a25d85e95a86c5e09175fdbeaf59bae3d1e8a367902d59c662cc3a293ae252443b3201671ad1dbaed8ca20000000000000000000000000000000017f93d49ec5c34cdc31931cbe2d5b3ad7a6dcd3ea864862aa7b41d5b2f4618c9c92da01e246ff8f34240bcf1de4c1c450000000000000000000000000000000002180a95dbe57c43171e2607593dd3b54344bdbf409dcd0c5706a9a72ad0e26ed60b9e4cb17ea4e7b460adc5a6f6d2de000000000000000000000000000000001667fdc9b89d12fb0704fdec910cab1b51ac04219ef6e50f996688b2ceb26dca0e9e8594c5b81fca2e8fc2c8d8fa9a470000000000000000000000000000000000cff9184748200fc11245bb213f9d00c3eef7f4698174e9e7a1ff6cf072a30d5f28173aed5fbbdf46b444282225790500000000000000000000000000000000156901359e5b399168e90ccad27a054d147aa9c4a731294180e395e8e2d458f5537fdac591cdc82fd8bffa4c9fa126ed00000000000000000000000000000000143872757c0a25d85e95a86c5e09175fdbeaf59bae3d1e8a367902d59c662cc3a293ae252443b3201671ad1dbaed8ca20000000000000000000000000000000017f93d49ec5c34cdc31931cbe2d5b3ad7a6dcd3ea864862aa7b41d5b2f4618c9c92da01e246ff8f34240bcf1de4c1c450000000000000000000000000000000002180a95dbe57c43171e2607593dd3b54344bdbf409dcd0c5706a9a72ad0e26ed60b9e4cb17ea4e7b460adc5a6f6d2de000000000000000000000000000000001667fdc9b89d12fb0704fdec910cab1b51ac04219ef6e50f996688b2ceb26dca0e9e8594c5b81fca2e8fc2c8d8fa9a4700000000000000000000000000000000193118d1f237c68a8a0961fb220c0fd6a08853908a039dd57f8ed334063e5316bf83e8c3c3f44420734abbd7ddda31a600000000000000000000000000000000156901359e5b399168e90ccad27a054d147aa9c4a731294180e395e8e2d458f5537fdac591cdc82fd8bffa4c9fa126ed00000000000000000000000000000000143872757c0a25d85e95a86c5e09175fdbeaf59bae3d1e8a367902d59c662cc3a293ae252443b3201671ad1dbaed8ca2000000000000000000000000000000000207d4a04d23b1cc880275ea6075f929ea097e464b208c94bf7cb545c76add5a557e5fe08ce4070c77be430e21b38e660000000000000000000000000000000017e907545d9a6a5733fd81aeea0dd92221328dc5b2e745b3102a28f9cbe013b548a061b1ffd55b18059e523a5908d7cd000000000000000000000000000000001667fdc9b89d12fb0704fdec910cab1b51ac04219ef6e50f996688b2ceb26dca0e9e8594c5b81fca2e8fc2c8d8fa9a470000000000000000000000000000000000cff9184748200fc11245bb213f9d00c3eef7f4698174e9e7a1ff6cf072a30d5f28173aed5fbbdf46b444282225790500000000000000000000000000000000156901359e5b399168e90ccad27a054d147aa9c4a731294180e395e8e2d458f5537fdac591cdc82fd8bffa4c9fa126ed00000000000000000000000000000000143872757c0a25d85e95a86c5e09175fdbeaf59bae3d1e8a367902d59c662cc3a293ae252443b3201671ad1dbaed8ca2000000000000000000000000000000000207d4a04d23b1cc880275ea6075f929ea097e464b208c94bf7cb545c76add5a557e5fe08ce4070c77be430e21b38e660000000000000000000000000000000017e907545d9a6a5733fd81aeea0dd92221328dc5b2e745b3102a28f9cbe013b548a061b1ffd55b18059e523a5908d7cd000000000000000000000000000000001667fdc9b89d12fb0704fdec910cab1b51ac04219ef6e50f996688b2ceb26dca0e9e8594c5b81fca2e8fc2c8d8fa9a4700000000000000000000000000000000193118d1f237c68a8a0961fb220c0fd6a08853908a039dd57f8ed334063e5316bf83e8c3c3f44420734abbd7ddda31a600000000000000000000000000000000156901359e5b399168e90ccad27a054d147aa9c4a731294180e395e8e2d458f5537fdac591cdc82fd8bffa4c9fa126ed00000000000000000000000000000000143872757c0a25d85e95a86c5e09175fdbeaf59bae3d1e8a367902d59c662cc3a293ae252443b3201671ad1dbaed8ca20000000000000000000000000000000017f93d49ec5c34cdc31931cbe2d5b3ad7a6dcd3ea864862aa7b41d5b2f4618c9c92da01e246ff8f34240bcf1de4c1c450000000000000000000000000000000002180a95dbe57c43171e2607593dd3b54344bdbf409dcd0c5706a9a72ad0e26ed60b9e4cb17ea4e7b460adc5a6f6d2de000000000000000000000000000000001667fdc9b89d12fb0704fdec910cab1b51ac04219ef6e50f996688b2ceb26dca0e9e8594c5b81fca2e8fc2c8d8fa9a470000000000000000000000000000000000cff9184748200fc11245bb213f9d00c3eef7f4698174e9e7a1ff6cf072a30d5f28173aed5fbbdf46b444282225790500000000000000000000000000000000156901359e5b399168e90ccad27a054d147aa9c4a731294180e395e8e2d458f5537fdac591cdc82fd8bffa4c9fa126ed00000000000000000000000000000000143872757c0a25d85e95a86c5e09175fdbeaf59bae3d1e8a367902d59c662cc3a293ae252443b3201671ad1dbaed8ca20000000000000000000000000000000017f93d49ec5c34cdc31931cbe2d5b3ad7a6dcd3ea864862aa7b41d5b2f4618c9c92da01e246ff8f34240bcf1de4c1c450000000000000000000000000000000002180a95dbe57c43171e2607593dd3b54344bdbf409dcd0c5706a9a72ad0e26ed60b9e4cb17ea4e7b460adc5a6f6d2de000000000000000000000000000000001667fdc9b89d12fb0704fdec910cab1b51ac04219ef6e50f996688b2ceb26dca0e9e8594c5b81fca2e8fc2c8d8fa9a4700000000000000000000000000000000193118d1f237c68a8a0961fb220c0fd6a08853908a039dd57f8ed334063e5316bf83e8c3c3f44420734abbd7ddda31a600000000000000000000000000000000156901359e5b399168e90ccad27a054d147aa9c4a731294180e395e8e2d458f5537fdac591cdc82fd8bffa4c9fa126ed00000000000000000000000000000000143872757c0a25d85e95a86c5e09175fdbeaf59bae3d1e8a367902d59c662cc3a293ae252443b3201671ad1dbaed8ca2000000000000000000000000000000000207d4a04d23b1cc880275ea6075f929ea097e464b208c94bf7cb545c76add5a557e5fe08ce4070c77be430e21b38e660000000000000000000000000000000017e907545d9a6a5733fd81aeea0dd92221328dc5b2e745b3102a28f9cbe013b548a061b1ffd55b18059e523a5908d7cd000000000000000000000000000000001667fdc9b89d12fb0704fdec910cab1b51ac04219ef6e50f996688b2ceb26dca0e9e8594c5b81fca2e8fc2c8d8fa9a470000000000000000000000000000000000cff9184748200fc11245bb213f9d00c3eef7f4698174e9e7a1ff6cf072a30d5f28173aed5fbbdf46b444282225790500000000000000000000000000000000156901359e5b399168e90ccad27a054d147aa9c4a731294180e395e8e2d458f5537fdac591cdc82fd8bffa4c9fa126ed00000000000000000000000000000000143872757c0a25d85e95a86c5e09175fdbeaf59bae3d1e8a367902d59c662cc3a293ae252443b3201671ad1dbaed8ca2000000000000000000000000000000000207d4a04d23b1cc880275ea6075f929ea097e464b208c94bf7cb545c76add5a557e5fe08ce4070c77be430e21b38e660000000000000000000000000000000017e907545d9a6a5733fd81aeea0dd92221328dc5b2e745b3102a28f9cbe013b548a061b1ffd55b18059e523a5908d7cd1ca060b8ccbc46e3e7d99376fc3077dbf2056c51480a4c6e10b7314ba538aecfc53ba04dc7be0b40e1462c57f1cf79bb051bc21d77ac98bd9ac388661e5fcbf793f1b5"
                }
            ]
        },
        "pre" : {
            "0x095e7baea6a6c7c4c2dfeb977efac326af552d87" : {
                "balance" : "0x00",
                "code" : "0x60806040526004361061001e5760003560e01c806312bd429914610023575b600080fd5b6100fc6004803603604081101561003957600080fd5b81019080803573ffffffffffffffffffffffffffffffffffffffff1690602001909291908035906020019064010000000081111561007657600080fd5b82018360208201111561008857600080fd5b803590602001918460018302840111640100000000831117156100aa57600080fd5b91908080601f016020809104026020016040519081016040528093929190818152602001838380828437600081840152601f19601f820116905080830192505050505050509192919290505050610182565b604051808315151515815260200180602001828103825283818151815260200191508051906020019080838360005b8381101561014657808201518184015260208101905061012b565b50505050905090810190601f1680156101735780820380516001836020036101000a031916815260200191505b50935050505060405180910390f35b600060608373ffffffffffffffffffffffffffffffffffffffff16836040518082805190602001908083835b602083106101d157805182526020820191506020810190506020830392506101ae565b6001836020036101000a038019825116818451168082178552505050505050905001915050600060405180830381855afa9150503d8060008114610231576040519150601f19603f3d011682016040523d82523d6000602084013e610236565b606091505b508092508193505050600060405180807f6572726f72000000000000000000000000000000000000000000000000000000815250600501905060405180910390209050821561028a57818051906020012090505b8060025582829250925050925092905056fea2646970667358221220db58d80e8530eed625d9b4250a6055c2eb1d7c117a7ca267e6f8a059bdd2f39e64736f6c634300060a0033",
                "nonce" : "0x01",
                "storage" : {
                }
            },
            "0xa94f5374fce5edbc8e2a8697c15331677e6ebf0b" : {
                "balance" : "0x0de0b6b3a7640000",
                "code" : "0x",
                "nonce" : "0x00",
                "storage" : {
                }
            }
        },
        "transaction" : {
            "data" : [
                "0x12bd4299000000000000000000000000000000000000000000000000000000000000001100000000000000000000000000000000000000000000000000000000000000400000000000000000000000000000000000000000000000000000000000000c00000000000000000000000000000000001667fdc9b89d12fb0704fdec910cab1b51ac04219ef6e50f996688b2ceb26dca0e9e8594c5b81fca2e8fc2c8d8fa9a4700000000000000000000000000000000193118d1f237c68a8a0961fb220c0fd6a08853908a039dd57f8ed334063e5316bf83e8c3c3f44420734abbd7ddda31a600000000000000000000000000000000156901359e5b399168e90ccad27a054d147aa9c4a731294180e395e8e2d458f5537fdac591cdc82fd8bffa4c9fa126ed00000000000000000000000000000000143872757c0a25d85e95a86c5e09175fdbeaf59bae3d1e8a367902d59c662cc3a293ae252443b3201671ad1dbaed8ca20000000000000000000000000000000017f93d49ec5c34cdc31931cbe2d5b3ad7a6dcd3ea864862aa7b41d5b2f4618c9c92da01e246ff8f34240bcf1de4c1c450000000000000000000000000000000002180a95dbe57c43171e2607593dd3b54344bdbf409dcd0c5706a9a72ad0e26ed60b9e4cb17ea4e7b460adc5a6f6d2de000000000000000000000000000000001667fdc9b89d12fb0704fdec910cab1b51ac04219ef6e50f996688b2ceb26dca0e9e8594c5b81fca2e8fc2c8d8fa9a470000000000000000000000000000000000cff9184748200fc11245bb213f9d00c3eef7f4698174e9e7a1ff6cf072a30d5f28173aed5fbbdf46b444282225790500000000000000000000000000000000156901359e5b399168e90ccad27a054d147aa9c4a731294180e395e8e2d458f5537fdac591cdc82fd8bffa4c9fa126ed00000000000000000000000000000000143872757c0a25d85e95a86c5e09175fdbeaf59bae3d1e8a367902d59c662cc3a293ae252443b3201671ad1dbaed8ca20000000000000000000000000000000017f93d49ec5c34cdc31931cbe2d5b3ad7a6dcd3ea864862aa7b41d5b2f4618c9c92da01e246ff8f34240bcf1de4c1c450000000000000000000000000000000002180a95dbe57c43171e2607593dd3b54344bdbf409dcd0c5706a9a72ad0e26ed60b9e4cb17ea4e7b460adc5a6f6d2de000000000000000000000000000000001667fdc9b89d12fb0704fdec910cab1b51ac04219ef6e50f996688b2ceb26dca0e9e8594c5b81fca2e8fc2c8d8fa9a4700000000000000000000000000000000193118d1f237c68a8a0961fb220c0fd6a08853908a039dd57f8ed334063e5316bf83e8c3c3f44420734abbd7ddda31a600000000000000000000000000000000156901359e5b399168e90ccad27a054d147aa9c4a731294180e395e8e2d458f5537fdac591cdc82fd8bffa4c9fa126ed00000000000000000000000000000000143872757c0a25d85e95a86c5e09175fdbeaf59bae3d1e8a367902d59c662cc3a293ae252443b3201671ad1dbaed8ca2000000000000000000000000000000000207d4a04d23b1cc880275ea6075f929ea097e464b208c94bf7cb545c76add5a557e5fe08ce4070c77be430e21b38e660000000000000000000000000000000017e907545d9a6a5733fd81aeea0dd92221328dc5b2e745b3102a28f9cbe013b548a061b1ffd55b18059e523a5908d7cd000000000000000000000000000000001667fdc9b89d12fb0704fdec910cab1b51ac04219ef6e50f996688b2ceb26dca0e9e8594c5b81fca2e8fc2c8d8fa9a470000000000000000000000000000000000cff9184748200fc11245bb213f9d00c3eef7f4698174e9e7a1ff6cf072a30d5f28173aed5fbbdf46b444282225790500000000000000000000000000000000156901359e5b399168e90ccad27a054d147aa9c4a731294180e395e8e2d458f5537fdac591cdc82fd8bffa4c9fa126ed00000000000000000000000000000000143872757c0a25d85e95a86c5e09175fdbeaf59bae3d1e8a367902d59c662cc3a293ae252443b3201671ad1dbaed8ca2000000000000000000000000000000000207d4a04d23b1cc880275ea6075f929ea097e464b208c94bf7cb545c76add5a557e5fe08ce4070c77be430e21b38e660000000000000000000000000000000017e907545d9a6a5733fd81aeea0dd92221328dc5b2e745b3102a28f9cbe013b548a061b1ffd55b18059e523a5908d7cd000000000000000000000000000000001667fdc9b89d12fb0704fdec910cab1b51ac04219ef6e50f996688b2ceb26dca0e9e8594c5b81fca2e8fc2c8d8fa9a4700000000000000000000000000000000193118d1f237c68a8a0961fb220c0fd6a08853908a039dd57f8ed334063e5316bf83e8c3c3f44420734abbd7ddda31a600000000000000000000000000000000156901359e5b399168e90ccad27a054d147aa9c4a731294180e395e8e2d458f5537fdac591cdc82fd8bffa4c9fa126ed00000000000000000000000000000000143872757c0a25d85e95a86c5e09175fdbeaf59bae3d1e8a367902d59c662cc3a293ae252443b3201671ad1dbaed8ca20000000000000000000000000000000017f93d49ec5c34cdc31931cbe2d5b3ad7a6dcd3ea864862aa7b41d5b2f4618c9c92da01e246ff8f34240bcf1de4c1c450000000000000000000000000000000002180a95dbe57c43171e2607593dd3b54344bdbf409dcd0c5706a9a72ad0e26ed60b9e4cb17ea4e7b460adc5a6f6d2de000000000000000000000000000000001667fdc9b89d12fb0704fdec910cab1b51ac04219ef6e50f996688b2ceb26dca0e9e8594c5b81fca2e8fc2c8d8fa9a470000000000000000000000000000000000cff9184748200fc11245bb213f9d00c3eef7f4698174e9e7a1ff6cf072a30d5f28173aed5fbbdf46b444282225790500000000000000000000000000000000156901359e5b399168e90ccad27a054d147aa9c4a731294180e395e8e2d458f5537fdac591cdc82fd8bffa4c9fa126ed00000000000000000000000000000000143872757c0a25d85e95a86c5e09175fdbeaf59bae3d1e8a367902d59c662cc3a293ae252443b3201671ad1dbaed8ca20000000000000000000000000000000017f93d49ec5c34cdc31931cbe2d5b3ad7a6dcd3ea864862aa7b41d5b2f4618c9c92da01e246ff8f34240bcf1de4c1c450000000000000000000000000000000002180a95dbe57c43171e2607593dd3b54344bdbf409dcd0c5706a9a72ad0e26ed60b9e4cb17ea4e7b460adc5a6f6d2de000000000000000000000000000000001667fdc9b89d12fb0704fdec910cab1b51ac04219ef6e50f996688b2ceb26dca0e9e8594c5b81fca2e8fc2c8d8fa9a4700000000000000000000000000000000193118d1f237c68a8a0961fb220c0fd6a08853908a039dd57f8ed334063e5316bf83e8c3c3f44420734abbd7ddda31a600000000000000000000000000000000156901359e5b399168e90ccad27a054d147aa9c4a731294180e395e8e2d458f5537fdac591cdc82fd8bffa4c9fa126ed00000000000000000000000000000000143872757c0a25d85e95a86c5e09175fdbeaf59bae3d1e8a367902d59c662cc3a293ae252443b3201671ad1dbaed8ca2000000000000000000000000000000000207d4a04d23b1cc880275ea6075f929ea097e464b208c94bf7cb545c76add5a557e5fe08ce4070c77be430e21b38e660000000000000000000000000000000017e907545d9a6a5733fd81aeea0dd92221328dc5b2e745b3102a28f9cbe013b548a061b1ffd55b18059e523a5908d7cd000000000000000000000000000000001667fdc9b89d12fb0704fdec910cab1b51ac04219ef6e50f996688b2ceb26dca0e9e8594c5b81fca2e8fc2c8d8fa9a470000000000000000000000000000000000cff9184748200fc11245bb213f9d00c3eef7f4698174e9e7a1ff6cf072a30d5f28173aed5fbbdf46b444282225790500000000000000000000000000000000156901359e5b399168e90ccad27a054d147aa9c4a731294180e395e8e2d458f5537fdac591cdc82fd8bffa4c9fa126ed00000000000000000000000000000000143872757c0a25d85e95a86c5e09175fdbeaf59bae3d1e8a367902d59c662cc3a293ae252443b3201671ad1dbaed8ca2000000000000000000000000000000000207d4a04d23b1cc880275ea6075f929ea097e464b208c94bf7cb545c76add5a557e5fe08ce4070c77be430e21b38e660000000000000000000000000000000017e907545d9a6a5733fd81aeea0dd92221328dc5b2e745b3102a28f9cbe013b548a061b1ffd55b18059e523a5908d7cd"
            ],
            "gasLimit" : [
                "0x6acfc0"
            ],
            "gasPrice" : "0x0a",
            "nonce" : "0x00",
            "secretKey" : "0x45a915e4d060149eb4365960e6a7a45f334393093061116b197e3240065ff2d8",
            "sender" : "0xa94f5374fce5edbc8e2a8697c15331677e6ebf0b",
            "to" : "0x095e7baea6a6c7c4c2dfeb977efac326af552d87",
            "value" : [
                "0x03e8"
            ]
        }
    }
}