{
    "pairing_73" : {
        "_info" : {
            "comment" : "A test for pairing_73",
            "filling-rpc-server" : "evm version 1.14.0-unstable-a208e725-20240416",
            "filling-tool-version" : "retesteth-0.3.2-cancun+commit.353b2b37.Linux.g++",
            "generatedTestHash" : "8326b27bbd88c2c3b9712528b0ef98cd1060bc4d9afcb105753a2ad6c46295b6",
            "lllcversion" : "Version: 0.5.14-develop.2023.7.11+commit.c58ab2c6.mod.Linux.g++",
            "solidity" : "Version: 0.8.21+commit.d9974bed.Linux.g++",
            "source" : "src/EIPTestsFiller/StateTests/stEIP2537/pairing_73Filler.json",
            "sourceHash" : "15890cf00d218dc61f1f06b86d6cfed763c396f3e1c36ef0212d2ab7f88be2ac"
        },
        "env" : {
            "currentBaseFee" : "0x0a",
            "currentCoinbase" : "0x2adc25665018aa1fe0e6bc666dac8fc2697ff9ba",
            "currentDifficulty" : "0x020000",
            "currentExcessBlobGas" : "0x00",
            "currentGasLimit" : "0xff112233445566",
            "currentNumber" : "0x01",
            "currentRandom" : "0x0000000000000000000000000000000000000000000000000000000000020000",
            "currentTimestamp" : "0x03e8"
        },
        "post" : {
            "Prague" : [
                {
                    "hash" : "0x93c79f4b8c587e5db5f6abaa4b531c199a2d69a1babd52f257e423a37f3e3223",
                    "indexes" : {
                        "data" : 0,
                        "gas" : 0,
                        "value" : 0
                    },
                    "logs" : "0x1dcc4de8dec75d7aab85b567b6ccd41ad312451b948a7413f0a142fd40d49347",
                    "txbytes" : "0xf90848800a836acfc094095e7baea6a6c7c4c2dfeb977efac326af552d878203e8b907e412bd4299000000000000000000000000000000000000000000000000000000000000001100000000000000000000000000000000000000000000000000000000000000400000000000000000000000000000000000000000000000000000000000000780000000000000000000000000000000000bb6f731b345bb1319b9acab09c186449a51dad8b6526251bc58e958cfd933137067e6f778b019f131cc7b23e08a0706000000000000000000000000000000001979a4f3e444c5950d0e2d71f97e99578b3058a6e414dfca313b898c4e02787e6eed89a2d1b05f31cff4af1e12bbedc300000000000000000000000000000000039d8e90425810a0b2fb5c915905863eb2da363ad4188e42cedce678bdd0f51eca0a96b78ab9e082d59dcd10e3c3c97a000000000000000000000000000000001973250dc31d16f658323d021dddc5439ef4396b6ed735f108cd7b27feb1b508daf863ab6431a77ec0b10cf7e001244f000000000000000000000000000000000f05a111b41a54e0ca78c3a1fff3b80bee7c1505a06b9a4faf36a73b87121d2952cc4f4c4e0dcb6633cad12b0caffc620000000000000000000000000000000018daa0f9a2bb347517eee63463b9d6a5e850446e8a94d0986f2921bf81a9f7541e8fee9d7bbb6d9181021af945fce3e3000000000000000000000000000000000bb6f731b345bb1319b9acab09c186449a51dad8b6526251bc58e958cfd933137067e6f778b019f131cc7b23e08a07060000000000000000000000000000000000876cf6553b21053e0d7a4449cd137fd946f2de0f7032f535f54914a8ae7da5afbe765bdfa3a0cdea0a50e1ed43bce800000000000000000000000000000000039d8e90425810a0b2fb5c915905863eb2da363ad4188e42cedce678bdd0f51eca0a96b78ab9e082d59dcd10e3c3c97a000000000000000000000000000000001973250dc31d16f658323d021dddc5439ef4396b6ed735f108cd7b27feb1b508daf863ab6431a77ec0b10cf7e001244f000000000000000000000000000000000f05a111b41a54e0ca78c3a1fff3b80bee7c1505a06b9a4faf36a73b87121d2952cc4f4c4e0dcb6633cad12b0caffc620000000000000000000000000000000018daa0f9a2bb347517eee63463b9d6a5e850446e8a94d0986f2921bf81a9f7541e8fee9d7bbb6d9181021af945fce3e3000000000000000000000000000000000bb6f731b345bb1319b9acab09c186449a51dad8b6526251bc58e958cfd933137067e6f778b019f131cc7b23e08a0706000000000000000000000000000000001979a4f3e444c5950d0e2d71f97e99578b3058a6e414dfca313b898c4e02787e6eed89a2d1b05f31cff4af1e12bbedc300000000000000000000000000000000039d8e90425810a0b2fb5c915905863eb2da363ad4188e42cedce678bdd0f51eca0a96b78ab9e082d59dcd10e3c3c97a000000000000000000000000000000001973250dc31d16f658323d021dddc5439ef4396b6ed735f108cd7b27feb1b508daf863ab6431a77ec0b10cf7e001244f000000000000000000000000000000000afb70d8856591b980a2e4144357f4cb75fb367f5319786fb7fa2b656f9ed8facbdfb0b26346349986342ed4f34fae4900000000000000000000000000000000012670f096c4b225332cc181df91d6317c27071668f04226f807b0e17506fed0001c11613598926e38fce506ba02c6c8000000000000000000000000000000000bb6f731b345bb1319b9acab09c186449a51dad8b6526251bc58e958cfd933137067e6f778b019f131cc7b23e08a07060000000000000000000000000000000000876cf6553b21053e0d7a4449cd137fd946f2de0f7032f535f54914a8ae7da5afbe765bdfa3a0cdea0a50e1ed43bce800000000000000000000000000000000039d8e90425810a0b2fb5c915905863eb2da363ad4188e42cedce678bdd0f51eca0a96b78ab9e082d59dcd10e3c3c97a000000000000000000000000000000001973250dc31d16f658323d021dddc5439ef4396b6ed735f108cd7b27feb1b508daf863ab6431a77ec0b10cf7e001244f000000000000000000000000000000000afb70d8856591b980a2e4144357f4cb75fb367f5319786fb7fa2b656f9ed8facbdfb0b26346349986342ed4f34fae4900000000000000000000000000000000012670f096c4b225332cc181df91d6317c27071668f04226f807b0e17506fed0001c11613598926e38fce506ba02c6c8000000000000000000000000000000000bb6f731b345bb1319b9acab09c186449a51dad8b6526251bc58e958cfd933137067e6f778b019f131cc7b23e08a0706000000000000000000000000000000001979a4f3e444c5950d0e2d71f97e99578b3058a6e414dfca313b898c4e02787e6eed89a2d1b05f31cff4af1e12bbedc300000000000000000000000000000000039d8e90425810a0b2fb5c915905863eb2da363ad4188e42cedce678bdd0f51eca0a96b78ab9e082d59dcd10e3c3c97a000000000000000000000000000000001973250dc31d16f658323d021dddc5439ef4396b6ed735f108cd7b27feb1b508daf863ab6431a77ec0b10cf7e001244f000000000000000000000000000000000f05a111b41a54e0ca78c3a1fff3b80bee7c1505a06b9a4faf36a73b87121d2952cc4f4c4e0dcb6633cad12b0caffc620000000000000000000000000000000018daa0f9a2bb347517eee63463b9d6a5e850446e8a94d0986f2921bf81a9f7541e8fee9d7bbb6d9181021af945fce3e31ca0b35a3f35fdff11901b8130725e2e61f73da597e46289b8e40ac954ed2deef7c4a020e913c95056f5e956c6b3a34a8958f2424608dc16275cc88a74d90d39b1ac01"
                }
            ]
        },
        "pre" : {
            "0x095e7baea6a6c7c4c2dfeb977efac326af552d87" : {
                "balance" : "0x00",
                "code" : "0x60806040526004361061001e5760003560e01c806312bd429914610023575b600080fd5b6100fc6004803603604081101561003957600080fd5b81019080803573ffffffffffffffffffffffffffffffffffffffff1690602001909291908035906020019064010000000081111561007657600080fd5b82018360208201111561008857600080fd5b803590602001918460018302840111640100000000831117156100aa57600080fd5b91908080601f016020809104026020016040519081016040528093929190818152602001838380828437600081840152601f19601f820116905080830192505050505050509192919290505050610182565b604051808315151515815260200180602001828103825283818151815260200191508051906020019080838360005b8381101561014657808201518184015260208101905061012b565b50505050905090810190601f1680156101735780820380516001836020036101000a031916815260200191505b50935050505060405180910390f35b600060608373ffffffffffffffffffffffffffffffffffffffff16836040518082805190602001908083835b602083106101d157805182526020820191506020810190506020830392506101ae565b6001836020036101000a038019825116818451168082178552505050505050905001915050600060405180830381855afa9150503d8060008114610231576040519150601f19603f3d011682016040523d82523d6000602084013e610236565b606091505b508092508193505050600060405180807f6572726f72000000000000000000000000000000000000000000000000000000815250600501905060405180910390209050821561028a57818051906020012090505b8060025582829250925050925092905056fea2646970667358221220db58d80e8530eed625d9b4250a6055c2eb1d7c117a7ca267e6f8a059bdd2f39e64736f6c634300060a0033",
                "nonce" : "0x01",
                "storage" : {
                }
            },
            "0xa94f5374fce5edbc8e2a8697c15331677e6ebf0b" : {
                "balance" : "0x0de0b6b3a7640000",
                "code" : "0x",
                "nonce" : "0x00",
                "storage" : {
                }
            }
        },
        "transaction" : {
            "data" : [
                "0x12bd4299000000000000000000000000000000000000000000000000000000000000001100000000000000000000000000000000000000000000000000000000000000400000000000000000000000000000000000000000000000000000000000000780000000000000000000000000000000000bb6f731b345bb1319b9acab09c186449a51dad8b6526251bc58e958cfd933137067e6f778b019f131cc7b23e08a0706000000000000000000000000000000001979a4f3e444c5950d0e2d71f97e99578b3058a6e414dfca313b898c4e02787e6eed89a2d1b05f31cff4af1e12bbedc300000000000000000000000000000000039d8e90425810a0b2fb5c915905863eb2da363ad4188e42cedce678bdd0f51eca0a96b78ab9e082d59dcd10e3c3c97a000000000000000000000000000000001973250dc31d16f658323d021dddc5439ef4396b6ed735f108cd7b27feb1b508daf863ab6431a77ec0b10cf7e001244f000000000000000000000000000000000f05a111b41a54e0ca78c3a1fff3b80bee7c1505a06b9a4faf36a73b87121d2952cc4f4c4e0dcb6633cad12b0caffc620000000000000000000000000000000018daa0f9a2bb347517eee63463b9d6a5e850446e8a94d0986f2921bf81a9f7541e8fee9d7bbb6d9181021af945fce3e3000000000000000000000000000000000bb6f731b345bb1319b9acab09c186449a51dad8b6526251bc58e958cfd933137067e6f778b019f131cc7b23e08a07060000000000000000000000000000000000876cf6553b21053e0d7a4449cd137fd946f2de0f7032f535f54914a8ae7da5afbe765bdfa3a0cdea0a50e1ed43bce800000000000000000000000000000000039d8e90425810a0b2fb5c915905863eb2da363ad4188e42cedce678bdd0f51eca0a96b78ab9e082d59dcd10e3c3c97a000000000000000000000000000000001973250dc31d16f658323d021dddc5439ef4396b6ed735f108cd7b27feb1b508daf863ab6431a77ec0b10cf7e001244f000000000000000000000000000000000f05a111b41a54e0ca78c3a1fff3b80bee7c1505a06b9a4faf36a73b87121d2952cc4f4c4e0dcb6633cad12b0caffc620000000000000000000000000000000018daa0f9a2bb347517eee63463b9d6a5e850446e8a94d0986f2921bf81a9f7541e8fee9d7bbb6d9181021af945fce3e3000000000000000000000000000000000bb6f731b345bb1319b9acab09c186449a51dad8b6526251bc58e958cfd933137067e6f778b019f131cc7b23e08a0706000000000000000000000000000000001979a4f3e444c5950d0e2d71f97e99578b3058a6e414dfca313b898c4e02787e6eed89a2d1b05f31cff4af1e12bbedc300000000000000000000000000000000039d8e90425810a0b2fb5c915905863eb2da363ad4188e42cedce678bdd0f51eca0a96b78ab9e082d59dcd10e3c3c97a000000000000000000000000000000001973250dc31d16f658323d021dddc5439ef4396b6ed735f108cd7b27feb1b508daf863ab6431a77ec0b10cf7e001244f000000000000000000000000000000000afb70d8856591b980a2e4144357f4cb75fb367f5319786fb7fa2b656f9ed8facbdfb0b26346349986342ed4f34fae4900000000000000000000000000000000012670f096c4b225332cc181df91d6317c27071668f04226f807b0e17506fed0001c11613598926e38fce506ba02c6c8000000000000000000000000000000000bb6f731b345bb1319b9acab09c186449a51dad8b6526251bc58e958cfd933137067e6f778b019f131cc7b23e08a07060000000000000000000000000000000000876cf6553b21053e0d7a4449cd137fd946f2de0f7032f535f54914a8ae7da5afbe765bdfa3a0cdea0a50e1ed43bce800000000000000000000000000000000039d8e90425810a0b2fb5c915905863eb2da363ad4188e42cedce678bdd0f51eca0a96b78ab9e082d59dcd10e3c3c97a000000000000000000000000000000001973250dc31d16f658323d021dddc5439ef4396b6ed735f108cd7b27feb1b508daf863ab6431a77ec0b10cf7e001244f000000000000000000000000000000000afb70d8856591b980a2e4144357f4cb75fb367f5319786fb7fa2b656f9ed8facbdfb0b26346349986342ed4f34fae4900000000000000000000000000000000012670f096c4b225332cc181df91d6317c27071668f04226f807b0e17506fed0001c11613598926e38fce506ba02c6c8000000000000000000000000000000000bb6f731b345bb1319b9acab09c186449a51dad8b6526251bc58e958cfd933137067e6f778b019f131cc7b23e08a0706000000000000000000000000000000001979a4f3e444c5950d0e2d71f97e99578b3058a6e414dfca313b898c4e02787e6eed89a2d1b05f31cff4af1e12bbedc300000000000000000000000000000000039d8e90425810a0b2fb5c915905863eb2da363ad4188e42cedce678bdd0f51eca0a96b78ab9e082d59dcd10e3c3c97a000000000000000000000000000000001973250dc31d16f658323d021dddc5439ef4396b6ed735f108cd7b27feb1b508daf863ab6431a77ec0b10cf7e001244f000000000000000000000000000000000f05a111b41a54e0ca78c3a1fff3b80bee7c1505a06b9a4faf36a73b87121d2952cc4f4c4e0dcb6633cad12b0caffc620000000000000000000000000000000018daa0f9a2bb347517eee63463b9d6a5e850446e8a94d0986f2921bf81a9f7541e8fee9d7bbb6d9181021af945fce3e3"
            ],
            "gasLimit" : [
                "0x6acfc0"
            ],
            "gasPrice" : "0x0a",
            "nonce" : "0x00",
            "secretKey" : "0x45a915e4d060149eb4365960e6a7a45f334393093061116b197e3240065ff2d8",
            "sender" : "0xa94f5374fce5edbc8e2a8697c15331677e6ebf0b",
            "to" : "0x095e7baea6a6c7c4c2dfeb977efac326af552d87",
            "value" : [
                "0x03e8"
            ]
        }
    }
}