{
    "suicide0_Berlin" : {
        "_info" : {
            "comment" : "Converted from VMTest source. ",
            "filling-rpc-server" : "evm version 1.9.24-unstable-b63e3c37-20201029",
            "filling-tool-version" : "retesteth-0.0.9-berlin+commit.60bef1d7.Linux.g++",
            "lllcversion" : "Version: 0.5.14-develop.2020.6.22+commit.9189ad7a.Linux.g++",
            "source" : "src/VMTestsFiller/vmSystemOperations/suicide0Filler.json",
            "sourceHash" : "396c95d0a5f8fc291a06478275dacda60b00696d86b51a06383ecfc99e19a3af"
        },
        "sealEngine" : "NoProof",
        "network" : "Berlin",
        "pre" : {
            "0x0f572e5295c57f15886f9b263e2f6d2d6c7b5ec6" : {
                "balance" : "0x152d02c7e14af6800000",
                "code" : "0x33ff00",
                "nonce" : "0x00",
                "storage" : {
                }
            },
            "0xa94f5374fce5edbc8e2a8697c15331677e6ebf0b" : {
                "balance" : "0x0ba43b7417",
                "code" : "0x6000355415600957005b60203560003555",
                "nonce" : "0x00",
                "storage" : {
                }
            }
        },
        "genesisBlockHeader" : {
            "bloom" : "0x00000000000000000000000000000000000000000000000000000000000000000000000000000000000000000000000000000000000000000000000000000000000000000000000000000000000000000000000000000000000000000000000000000000000000000000000000000000000000000000000000000000000000000000000000000000000000000000000000000000000000000000000000000000000000000000000000000000000000000000000000000000000000000000000000000000000000000000000000000000000000000000000000000000000000000000000000000000000000000000000000000000000000000000000000000000",
            "coinbase" : "0x2adc25665018aa1fe0e6bc666dac8fc2697ff9ba",
            "difficulty" : "0x020000",
            "extraData" : "0x42",
            "gasLimit" : "0x7fffffffffffffff",
            "gasUsed" : "0x00",
            "hash" : "0xc1faf6ce1442d840de990268f7b91789187b42fb524d55ac61fdc81d41b3781d",
            "mixHash" : "0x0000000000000000000000000000000000000000000000000000000000000000",
            "nonce" : "0x0000000000000000",
            "number" : "0x00",
            "parentHash" : "0x0000000000000000000000000000000000000000000000000000000000000000",
            "receiptTrie" : "0x56e81f171bcc55a6ff8345e692c0f86e5b48e01b996cadc001622fb5e363b421",
            "stateRoot" : "0x929697f6ae772e1dc6480333e94a8a8f01b000b16b543a42886b06f85c87e298",
            "timestamp" : "0x00",
            "transactionsTrie" : "0x56e81f171bcc55a6ff8345e692c0f86e5b48e01b996cadc001622fb5e363b421",
            "uncleHash" : "0x1dcc4de8dec75d7aab85b567b6ccd41ad312451b948a7413f0a142fd40d49347"
        },
        "genesisRLP" : "0xf901fdf901f8a00000000000000000000000000000000000000000000000000000000000000000a01dcc4de8dec75d7aab85b567b6ccd41ad312451b948a7413f0a142fd40d49347942adc25665018aa1fe0e6bc666dac8fc2697ff9baa0929697f6ae772e1dc6480333e94a8a8f01b000b16b543a42886b06f85c87e298a056e81f171bcc55a6ff8345e692c0f86e5b48e01b996cadc001622fb5e363b421a056e81f171bcc55a6ff8345e692c0f86e5b48e01b996cadc001622fb5e363b421b90100000000000000000000000000000000000000000000000000000000000000000000000000000000000000000000000000000000000000000000000000000000000000000000000000000000000000000000000000000000000000000000000000000000000000000000000000000000000000000000000000000000000000000000000000000000000000000000000000000000000000000000000000000000000000000000000000000000000000000000000000000000000000000000000000000000000000000000000000000000000000000000000000000000000000000000000000000000000000000000000000000000000000000000000000000000008302000080887fffffffffffffff808042a00000000000000000000000000000000000000000000000000000000000000000880000000000000000c0c0",
        "blocks" : [
            {
                "chainname" : "default",
                "blocknumber" : "1",
                "uncleHeaders" : [
                ],
                "blockHeader" : {
                    "bloom" : "0x00000000000000000000000000000000000000000000000000000000000000000000000000000000000000000000000000000000000000000000000000000000000000000000000000000000000000000000000000000000000000000000000000000000000000000000000000000000000000000000000000000000000000000000000000000000000000000000000000000000000000000000000000000000000000000000000000000000000000000000000000000000000000000000000000000000000000000000000000000000000000000000000000000000000000000000000000000000000000000000000000000000000000000000000000000000",
                    "coinbase" : "0x2adc25665018aa1fe0e6bc666dac8fc2697ff9ba",
                    "difficulty" : "0x020000",
                    "extraData" : "0x42",
                    "gasLimit" : "0x7fffffffffffffff",
                    "gasUsed" : "0x32c9",
                    "hash" : "0xff8a8b918ae61bb142dd812fccb4c24e84b0fb238c3f4a4d05de657934653d04",
                    "mixHash" : "0x0000000000000000000000000000000000000000000000000000000000000000",
                    "nonce" : "0x0000000000000000",
                    "number" : "0x01",
                    "parentHash" : "0xc1faf6ce1442d840de990268f7b91789187b42fb524d55ac61fdc81d41b3781d",
                    "receiptTrie" : "0x2b45ed9a604e7be0845b2b2e8db393eeecfc9c13758c9da8b749ffcc71ada9a7",
                    "stateRoot" : "0xf86150aa5cec8f10e2e2c71eb319352382782ef94213b1a27fe09793f43e1a71",
                    "timestamp" : "0x03e8",
                    "transactionsTrie" : "0xc82fbf9fd158fd15d8eb7b16df10c21ae3b9e26f3912c3e4c685c52ce5867bd5",
                    "uncleHash" : "0x1dcc4de8dec75d7aab85b567b6ccd41ad312451b948a7413f0a142fd40d49347"
                },
                "transactions" : [
                    {
                        "data" : "0x",
                        "gasLimit" : "0x989680",
                        "gasPrice" : "0x0c",
                        "nonce" : "0x00",
                        "r" : "0x4adb104d44bc9f98e4d211ec5aec75980c8399d6440fb241d780654d2fb8a93b",
                        "s" : "0x0239ca08b414b1ce29c821fc1ea2a0ad8239841994dc983b88b919837b3bfeaf",
                        "to" : "0x0f572e5295c57f15886f9b263e2f6d2d6c7b5ec6",
                        "v" : "0x1b",
                        "value" : "0x00"
                    }
                ],
                "rlp" : "0xf90264f901fca0c1faf6ce1442d840de990268f7b91789187b42fb524d55ac61fdc81d41b3781da01dcc4de8dec75d7aab85b567b6ccd41ad312451b948a7413f0a142fd40d49347942adc25665018aa1fe0e6bc666dac8fc2697ff9baa0f86150aa5cec8f10e2e2c71eb319352382782ef94213b1a27fe09793f43e1a71a0c82fbf9fd158fd15d8eb7b16df10c21ae3b9e26f3912c3e4c685c52ce5867bd5a02b45ed9a604e7be0845b2b2e8db393eeecfc9c13758c9da8b749ffcc71ada9a7b90100000000000000000000000000000000000000000000000000000000000000000000000000000000000000000000000000000000000000000000000000000000000000000000000000000000000000000000000000000000000000000000000000000000000000000000000000000000000000000000000000000000000000000000000000000000000000000000000000000000000000000000000000000000000000000000000000000000000000000000000000000000000000000000000000000000000000000000000000000000000000000000000000000000000000000000000000000000000000000000000000000000000000000000000000000000008302000001887fffffffffffffff8232c98203e842a00000000000000000000000000000000000000000000000000000000000000000880000000000000000f862f860800c83989680940f572e5295c57f15886f9b263e2f6d2d6c7b5ec680801ba04adb104d44bc9f98e4d211ec5aec75980c8399d6440fb241d780654d2fb8a93ba00239ca08b414b1ce29c821fc1ea2a0ad8239841994dc983b88b919837b3bfeafc0"
            }
        ],
        "postState" : {
            "0x2adc25665018aa1fe0e6bc666dac8fc2697ff9ba" : {
                "code" : "0x",
                "nonce" : "0x00",
                "balance" : "0x1bc16d674eca616c",
                "storage" : {
                }
            },
            "0xa94f5374fce5edbc8e2a8697c15331677e6ebf0b" : {
                "code" : "0x6000355415600957005b60203560003555",
                "nonce" : "0x01",
                "balance" : "0x152d02c7e1569ab912ab",
                "storage" : {
                }
            }
        },
        "lastblockhash" : "0xff8a8b918ae61bb142dd812fccb4c24e84b0fb238c3f4a4d05de657934653d04"
    },
    "suicide0_Istanbul" : {
        "_info" : {
            "comment" : "Converted from VMTest source. ",
            "filling-rpc-server" : "evm version 1.9.24-unstable-b63e3c37-20201029",
            "filling-tool-version" : "retesteth-0.0.9-berlin+commit.60bef1d7.Linux.g++",
            "lllcversion" : "Version: 0.5.14-develop.2020.6.22+commit.9189ad7a.Linux.g++",
            "source" : "src/VMTestsFiller/vmSystemOperations/suicide0Filler.json",
            "sourceHash" : "396c95d0a5f8fc291a06478275dacda60b00696d86b51a06383ecfc99e19a3af"
        },
        "sealEngine" : "NoProof",
        "network" : "Istanbul",
        "pre" : {
            "0x0f572e5295c57f15886f9b263e2f6d2d6c7b5ec6" : {
                "balance" : "0x152d02c7e14af6800000",
                "code" : "0x33ff00",
                "nonce" : "0x00",
                "storage" : {
                }
            },
            "0xa94f5374fce5edbc8e2a8697c15331677e6ebf0b" : {
                "balance" : "0x0ba43b7417",
                "code" : "0x6000355415600957005b60203560003555",
                "nonce" : "0x00",
                "storage" : {
                }
            }
        },
        "genesisBlockHeader" : {
            "bloom" : "0x00000000000000000000000000000000000000000000000000000000000000000000000000000000000000000000000000000000000000000000000000000000000000000000000000000000000000000000000000000000000000000000000000000000000000000000000000000000000000000000000000000000000000000000000000000000000000000000000000000000000000000000000000000000000000000000000000000000000000000000000000000000000000000000000000000000000000000000000000000000000000000000000000000000000000000000000000000000000000000000000000000000000000000000000000000000",
            "coinbase" : "0x2adc25665018aa1fe0e6bc666dac8fc2697ff9ba",
            "difficulty" : "0x020000",
            "extraData" : "0x42",
            "gasLimit" : "0x7fffffffffffffff",
            "gasUsed" : "0x00",
            "hash" : "0xc1faf6ce1442d840de990268f7b91789187b42fb524d55ac61fdc81d41b3781d",
            "mixHash" : "0x0000000000000000000000000000000000000000000000000000000000000000",
            "nonce" : "0x0000000000000000",
            "number" : "0x00",
            "parentHash" : "0x0000000000000000000000000000000000000000000000000000000000000000",
            "receiptTrie" : "0x56e81f171bcc55a6ff8345e692c0f86e5b48e01b996cadc001622fb5e363b421",
            "stateRoot" : "0x929697f6ae772e1dc6480333e94a8a8f01b000b16b543a42886b06f85c87e298",
            "timestamp" : "0x00",
            "transactionsTrie" : "0x56e81f171bcc55a6ff8345e692c0f86e5b48e01b996cadc001622fb5e363b421",
            "uncleHash" : "0x1dcc4de8dec75d7aab85b567b6ccd41ad312451b948a7413f0a142fd40d49347"
        },
        "genesisRLP" : "0xf901fdf901f8a00000000000000000000000000000000000000000000000000000000000000000a01dcc4de8dec75d7aab85b567b6ccd41ad312451b948a7413f0a142fd40d49347942adc25665018aa1fe0e6bc666dac8fc2697ff9baa0929697f6ae772e1dc6480333e94a8a8f01b000b16b543a42886b06f85c87e298a056e81f171bcc55a6ff8345e692c0f86e5b48e01b996cadc001622fb5e363b421a056e81f171bcc55a6ff8345e692c0f86e5b48e01b996cadc001622fb5e363b421b90100000000000000000000000000000000000000000000000000000000000000000000000000000000000000000000000000000000000000000000000000000000000000000000000000000000000000000000000000000000000000000000000000000000000000000000000000000000000000000000000000000000000000000000000000000000000000000000000000000000000000000000000000000000000000000000000000000000000000000000000000000000000000000000000000000000000000000000000000000000000000000000000000000000000000000000000000000000000000000000000000000000000000000000000000000000008302000080887fffffffffffffff808042a00000000000000000000000000000000000000000000000000000000000000000880000000000000000c0c0",
        "blocks" : [
            {
                "chainname" : "default",
                "blocknumber" : "1",
                "uncleHeaders" : [
                ],
                "blockHeader" : {
                    "bloom" : "0x00000000000000000000000000000000000000000000000000000000000000000000000000000000000000000000000000000000000000000000000000000000000000000000000000000000000000000000000000000000000000000000000000000000000000000000000000000000000000000000000000000000000000000000000000000000000000000000000000000000000000000000000000000000000000000000000000000000000000000000000000000000000000000000000000000000000000000000000000000000000000000000000000000000000000000000000000000000000000000000000000000000000000000000000000000000",
                    "coinbase" : "0x2adc25665018aa1fe0e6bc666dac8fc2697ff9ba",
                    "difficulty" : "0x020000",
                    "extraData" : "0x42",
                    "gasLimit" : "0x7fffffffffffffff",
                    "gasUsed" : "0x32c9",
                    "hash" : "0xff8a8b918ae61bb142dd812fccb4c24e84b0fb238c3f4a4d05de657934653d04",
                    "mixHash" : "0x0000000000000000000000000000000000000000000000000000000000000000",
                    "nonce" : "0x0000000000000000",
                    "number" : "0x01",
                    "parentHash" : "0xc1faf6ce1442d840de990268f7b91789187b42fb524d55ac61fdc81d41b3781d",
                    "receiptTrie" : "0x2b45ed9a604e7be0845b2b2e8db393eeecfc9c13758c9da8b749ffcc71ada9a7",
                    "stateRoot" : "0xf86150aa5cec8f10e2e2c71eb319352382782ef94213b1a27fe09793f43e1a71",
                    "timestamp" : "0x03e8",
                    "transactionsTrie" : "0xc82fbf9fd158fd15d8eb7b16df10c21ae3b9e26f3912c3e4c685c52ce5867bd5",
                    "uncleHash" : "0x1dcc4de8dec75d7aab85b567b6ccd41ad312451b948a7413f0a142fd40d49347"
                },
                "transactions" : [
                    {
                        "data" : "0x",
                        "gasLimit" : "0x989680",
                        "gasPrice" : "0x0c",
                        "nonce" : "0x00",
                        "r" : "0x4adb104d44bc9f98e4d211ec5aec75980c8399d6440fb241d780654d2fb8a93b",
                        "s" : "0x0239ca08b414b1ce29c821fc1ea2a0ad8239841994dc983b88b919837b3bfeaf",
                        "to" : "0x0f572e5295c57f15886f9b263e2f6d2d6c7b5ec6",
                        "v" : "0x1b",
                        "value" : "0x00"
                    }
                ],
                "rlp" : "0xf90264f901fca0c1faf6ce1442d840de990268f7b91789187b42fb524d55ac61fdc81d41b3781da01dcc4de8dec75d7aab85b567b6ccd41ad312451b948a7413f0a142fd40d49347942adc25665018aa1fe0e6bc666dac8fc2697ff9baa0f86150aa5cec8f10e2e2c71eb319352382782ef94213b1a27fe09793f43e1a71a0c82fbf9fd158fd15d8eb7b16df10c21ae3b9e26f3912c3e4c685c52ce5867bd5a02b45ed9a604e7be0845b2b2e8db393eeecfc9c13758c9da8b749ffcc71ada9a7b90100000000000000000000000000000000000000000000000000000000000000000000000000000000000000000000000000000000000000000000000000000000000000000000000000000000000000000000000000000000000000000000000000000000000000000000000000000000000000000000000000000000000000000000000000000000000000000000000000000000000000000000000000000000000000000000000000000000000000000000000000000000000000000000000000000000000000000000000000000000000000000000000000000000000000000000000000000000000000000000000000000000000000000000000000000000008302000001887fffffffffffffff8232c98203e842a00000000000000000000000000000000000000000000000000000000000000000880000000000000000f862f860800c83989680940f572e5295c57f15886f9b263e2f6d2d6c7b5ec680801ba04adb104d44bc9f98e4d211ec5aec75980c8399d6440fb241d780654d2fb8a93ba00239ca08b414b1ce29c821fc1ea2a0ad8239841994dc983b88b919837b3bfeafc0"
            }
        ],
        "postState" : {
            "0x2adc25665018aa1fe0e6bc666dac8fc2697ff9ba" : {
                "code" : "0x",
                "nonce" : "0x00",
                "balance" : "0x1bc16d674eca616c",
                "storage" : {
                }
            },
            "0xa94f5374fce5edbc8e2a8697c15331677e6ebf0b" : {
                "code" : "0x6000355415600957005b60203560003555",
                "nonce" : "0x01",
                "balance" : "0x152d02c7e1569ab912ab",
                "storage" : {
                }
            }
        },
        "lastblockhash" : "0xff8a8b918ae61bb142dd812fccb4c24e84b0fb238c3f4a4d05de657934653d04"
    }
}