{
    "refund_OOG_d0g0v0_Byzantium" : {
        "_info" : {
            "comment" : "",
            "filledwith" : "cpp-1.3.0+commit.7b8143d3.Linux.g++",
            "source" : "/src/GenStateTestAsBcTemp/stRefundTest/refund_OOG_d0g0v0Filler.json"
        },
        "blocks" : [
            {
                "blockHeader" : {
                    "bloom" : "0x00000000000000000000000000000000000000000000000000000000000000000000000000000000000000000000000000000000000000000000000000000000000000000000000000000000000000000000000000000000000000000000000000000000000000000000000000000000000000000000000000000000000000000000000000000000000000000000000000000000000000000000000000000000000000000000000000000000000000000000000000000000000000000000000000000000000000000000000000000000000000000000000000000000000000000000000000000000000000000000000000000000000000000000000000000000",
                    "coinbase" : "0x2adc25665018aa1fe0e6bc666dac8fc2697ff9ba",
                    "difficulty" : "0x020000",
                    "extraData" : "",
                    "gasLimit" : "0x0f4240",
                    "gasUsed" : "0x6595",
                    "hash" : "0xa7e25f71821178e7dcab96ce586cf22ce51cae6d12f80da56ee852d60e859d7a",
                    "mixHash" : "0x44c9dc58cf8765d968850cead85cbe273e665a124e4840af1ca3707c2da08910",
                    "nonce" : "0x80e75d2021979b0e",
                    "number" : "0x01",
                    "parentHash" : "0x9760fdae6dbbf00b41c834a76de2f63a12c6d5d26df707ffed7119f79e14fd1b",
                    "receiptTrie" : "0x2ccae62a76d2f9dafaaeabd1d1be41f894b18afa5b5ec55d302acc1688a2aaaa",
                    "stateRoot" : "0xa4a30949b20cd617a271e82a49279aa0598c45d4f926a809d079180947b1d531",
                    "timestamp" : "0x03e8",
                    "transactionsTrie" : "0xe6b56fcfd91b26595e7f5f808680b9134b5d4500e9876d845b3a5dcbd0fb089d",
                    "uncleHash" : "0x1dcc4de8dec75d7aab85b567b6ccd41ad312451b948a7413f0a142fd40d49347"
                },
                "rlp" : "0xf9025ef901f7a09760fdae6dbbf00b41c834a76de2f63a12c6d5d26df707ffed7119f79e14fd1ba01dcc4de8dec75d7aab85b567b6ccd41ad312451b948a7413f0a142fd40d49347942adc25665018aa1fe0e6bc666dac8fc2697ff9baa0a4a30949b20cd617a271e82a49279aa0598c45d4f926a809d079180947b1d531a0e6b56fcfd91b26595e7f5f808680b9134b5d4500e9876d845b3a5dcbd0fb089da02ccae62a76d2f9dafaaeabd1d1be41f894b18afa5b5ec55d302acc1688a2aaaab90100000000000000000000000000000000000000000000000000000000000000000000000000000000000000000000000000000000000000000000000000000000000000000000000000000000000000000000000000000000000000000000000000000000000000000000000000000000000000000000000000000000000000000000000000000000000000000000000000000000000000000000000000000000000000000000000000000000000000000000000000000000000000000000000000000000000000000000000000000000000000000000000000000000000000000000000000000000000000000000000000000000000000000000000000000000008302000001830f42408265958203e880a044c9dc58cf8765d968850cead85cbe273e665a124e4840af1ca3707c2da089108880e75d2021979b0ef861f85f800182659594095e7baea6a6c7c4c2dfeb977efac326af552d870a801ba09d7b7423aa187cf696e6b7ebea70f0bc3e3373a7b9494f662fe6050dd6bba82da016dc9e01d65fcba0460d3ad3ee26b2aca2ae6958fb747b0a68f447476e3a1dd5c0",
                "transactions" : [
                    {
                        "data" : "",
                        "gasLimit" : "0x6595",
                        "gasPrice" : "0x01",
                        "nonce" : "0x00",
                        "r" : "0x9d7b7423aa187cf696e6b7ebea70f0bc3e3373a7b9494f662fe6050dd6bba82d",
                        "s" : "0x16dc9e01d65fcba0460d3ad3ee26b2aca2ae6958fb747b0a68f447476e3a1dd5",
                        "to" : "0x095e7baea6a6c7c4c2dfeb977efac326af552d87",
                        "v" : "0x1b",
                        "value" : "0x0a"
                    }
                ],
                "uncleHeaders" : [
                ]
            }
        ],
        "genesisBlockHeader" : {
            "bloom" : "0x00000000000000000000000000000000000000000000000000000000000000000000000000000000000000000000000000000000000000000000000000000000000000000000000000000000000000000000000000000000000000000000000000000000000000000000000000000000000000000000000000000000000000000000000000000000000000000000000000000000000000000000000000000000000000000000000000000000000000000000000000000000000000000000000000000000000000000000000000000000000000000000000000000000000000000000000000000000000000000000000000000000000000000000000000000000",
            "coinbase" : "0x2adc25665018aa1fe0e6bc666dac8fc2697ff9ba",
            "difficulty" : "0x020000",
            "extraData" : "0x42",
            "gasLimit" : "0x0f4240",
            "gasUsed" : "0x00",
            "hash" : "0x9760fdae6dbbf00b41c834a76de2f63a12c6d5d26df707ffed7119f79e14fd1b",
            "mixHash" : "0x56e81f171bcc55a6ff8345e692c0f86e5b48e01b996cadc001622fb5e363b421",
            "nonce" : "0x0102030405060708",
            "number" : "0x00",
            "parentHash" : "0x0000000000000000000000000000000000000000000000000000000000000000",
            "receiptTrie" : "0x56e81f171bcc55a6ff8345e692c0f86e5b48e01b996cadc001622fb5e363b421",
            "stateRoot" : "0xffe1435521fde24b7bdf5b873bbfdaf2db33a9df4f39e3a0021fdebdab0c1612",
            "timestamp" : "0x03b6",
            "transactionsTrie" : "0x56e81f171bcc55a6ff8345e692c0f86e5b48e01b996cadc001622fb5e363b421",
            "uncleHash" : "0x1dcc4de8dec75d7aab85b567b6ccd41ad312451b948a7413f0a142fd40d49347"
        },
        "genesisRLP" : "0xf901faf901f5a00000000000000000000000000000000000000000000000000000000000000000a01dcc4de8dec75d7aab85b567b6ccd41ad312451b948a7413f0a142fd40d49347942adc25665018aa1fe0e6bc666dac8fc2697ff9baa0ffe1435521fde24b7bdf5b873bbfdaf2db33a9df4f39e3a0021fdebdab0c1612a056e81f171bcc55a6ff8345e692c0f86e5b48e01b996cadc001622fb5e363b421a056e81f171bcc55a6ff8345e692c0f86e5b48e01b996cadc001622fb5e363b421b90100000000000000000000000000000000000000000000000000000000000000000000000000000000000000000000000000000000000000000000000000000000000000000000000000000000000000000000000000000000000000000000000000000000000000000000000000000000000000000000000000000000000000000000000000000000000000000000000000000000000000000000000000000000000000000000000000000000000000000000000000000000000000000000000000000000000000000000000000000000000000000000000000000000000000000000000000000000000000000000000000000000000000000000000000000000008302000080830f4240808203b642a056e81f171bcc55a6ff8345e692c0f86e5b48e01b996cadc001622fb5e363b421880102030405060708c0c0",
        "lastblockhash" : "0xa7e25f71821178e7dcab96ce586cf22ce51cae6d12f80da56ee852d60e859d7a",
        "network" : "Byzantium",
        "postState" : {
            "0x095e7baea6a6c7c4c2dfeb977efac326af552d87" : {
                "balance" : "0x0de0b6b3a7640000",
                "code" : "0x6000600155",
                "nonce" : "0x00",
                "storage" : {
                    "0x01" : "0x01"
                }
            },
            "0x2adc25665018aa1fe0e6bc666dac8fc2697ff9ba" : {
                "balance" : "0x29a2241af62c6595",
                "code" : "",
                "nonce" : "0x00",
                "storage" : {
                }
            },
            "0xa94f5374fce5edbc8e2a8697c15331677e6ebf0b" : {
                "balance" : "0x073b8b",
                "code" : "",
                "nonce" : "0x01",
                "storage" : {
                }
            }
        },
        "pre" : {
            "0x095e7baea6a6c7c4c2dfeb977efac326af552d87" : {
                "balance" : "0x0de0b6b3a7640000",
                "code" : "0x6000600155",
                "nonce" : "0x00",
                "storage" : {
                    "0x01" : "0x01"
                }
            },
            "0xa94f5374fce5edbc8e2a8697c15331677e6ebf0b" : {
                "balance" : "0x07a120",
                "code" : "",
                "nonce" : "0x00",
                "storage" : {
                }
            }
        }
    },
    "refund_OOG_d0g0v0_Constantinople" : {
        "_info" : {
            "comment" : "",
            "filledwith" : "cpp-1.3.0+commit.7b8143d3.Linux.g++",
            "source" : "/src/GenStateTestAsBcTemp/stRefundTest/refund_OOG_d0g0v0Filler.json"
        },
        "blocks" : [
            {
                "blockHeader" : {
                    "bloom" : "0x00000000000000000000000000000000000000000000000000000000000000000000000000000000000000000000000000000000000000000000000000000000000000000000000000000000000000000000000000000000000000000000000000000000000000000000000000000000000000000000000000000000000000000000000000000000000000000000000000000000000000000000000000000000000000000000000000000000000000000000000000000000000000000000000000000000000000000000000000000000000000000000000000000000000000000000000000000000000000000000000000000000000000000000000000000000",
                    "coinbase" : "0x2adc25665018aa1fe0e6bc666dac8fc2697ff9ba",
                    "difficulty" : "0x020000",
                    "extraData" : "",
                    "gasLimit" : "0x0f4240",
                    "gasUsed" : "0x6595",
                    "hash" : "0x3ffaa4b93392d9a03d04e825389ddcbbf9cf086466fc6bef5d8a4365bbf48e2e",
                    "mixHash" : "0x19ed7f32fb28a7e756226b3412e597fb6e08476b778beae86daea86436d0fa58",
                    "nonce" : "0x4bd4a6f491d9c10a",
                    "number" : "0x01",
                    "parentHash" : "0x9760fdae6dbbf00b41c834a76de2f63a12c6d5d26df707ffed7119f79e14fd1b",
                    "receiptTrie" : "0x2ccae62a76d2f9dafaaeabd1d1be41f894b18afa5b5ec55d302acc1688a2aaaa",
                    "stateRoot" : "0xd6ad504a71e7203910e90da44ea7aa83ddfab30f6742535830bc9d8f978e8c12",
                    "timestamp" : "0x03e8",
                    "transactionsTrie" : "0xe6b56fcfd91b26595e7f5f808680b9134b5d4500e9876d845b3a5dcbd0fb089d",
                    "uncleHash" : "0x1dcc4de8dec75d7aab85b567b6ccd41ad312451b948a7413f0a142fd40d49347"
                },
                "rlp" : "0xf9025ef901f7a09760fdae6dbbf00b41c834a76de2f63a12c6d5d26df707ffed7119f79e14fd1ba01dcc4de8dec75d7aab85b567b6ccd41ad312451b948a7413f0a142fd40d49347942adc25665018aa1fe0e6bc666dac8fc2697ff9baa0d6ad504a71e7203910e90da44ea7aa83ddfab30f6742535830bc9d8f978e8c12a0e6b56fcfd91b26595e7f5f808680b9134b5d4500e9876d845b3a5dcbd0fb089da02ccae62a76d2f9dafaaeabd1d1be41f894b18afa5b5ec55d302acc1688a2aaaab90100000000000000000000000000000000000000000000000000000000000000000000000000000000000000000000000000000000000000000000000000000000000000000000000000000000000000000000000000000000000000000000000000000000000000000000000000000000000000000000000000000000000000000000000000000000000000000000000000000000000000000000000000000000000000000000000000000000000000000000000000000000000000000000000000000000000000000000000000000000000000000000000000000000000000000000000000000000000000000000000000000000000000000000000000000000008302000001830f42408265958203e880a019ed7f32fb28a7e756226b3412e597fb6e08476b778beae86daea86436d0fa58884bd4a6f491d9c10af861f85f800182659594095e7baea6a6c7c4c2dfeb977efac326af552d870a801ba09d7b7423aa187cf696e6b7ebea70f0bc3e3373a7b9494f662fe6050dd6bba82da016dc9e01d65fcba0460d3ad3ee26b2aca2ae6958fb747b0a68f447476e3a1dd5c0",
                "transactions" : [
                    {
                        "data" : "",
                        "gasLimit" : "0x6595",
                        "gasPrice" : "0x01",
                        "nonce" : "0x00",
                        "r" : "0x9d7b7423aa187cf696e6b7ebea70f0bc3e3373a7b9494f662fe6050dd6bba82d",
                        "s" : "0x16dc9e01d65fcba0460d3ad3ee26b2aca2ae6958fb747b0a68f447476e3a1dd5",
                        "to" : "0x095e7baea6a6c7c4c2dfeb977efac326af552d87",
                        "v" : "0x1b",
                        "value" : "0x0a"
                    }
                ],
                "uncleHeaders" : [
                ]
            }
        ],
        "genesisBlockHeader" : {
            "bloom" : "0x00000000000000000000000000000000000000000000000000000000000000000000000000000000000000000000000000000000000000000000000000000000000000000000000000000000000000000000000000000000000000000000000000000000000000000000000000000000000000000000000000000000000000000000000000000000000000000000000000000000000000000000000000000000000000000000000000000000000000000000000000000000000000000000000000000000000000000000000000000000000000000000000000000000000000000000000000000000000000000000000000000000000000000000000000000000",
            "coinbase" : "0x2adc25665018aa1fe0e6bc666dac8fc2697ff9ba",
            "difficulty" : "0x020000",
            "extraData" : "0x42",
            "gasLimit" : "0x0f4240",
            "gasUsed" : "0x00",
            "hash" : "0x9760fdae6dbbf00b41c834a76de2f63a12c6d5d26df707ffed7119f79e14fd1b",
            "mixHash" : "0x56e81f171bcc55a6ff8345e692c0f86e5b48e01b996cadc001622fb5e363b421",
            "nonce" : "0x0102030405060708",
            "number" : "0x00",
            "parentHash" : "0x0000000000000000000000000000000000000000000000000000000000000000",
            "receiptTrie" : "0x56e81f171bcc55a6ff8345e692c0f86e5b48e01b996cadc001622fb5e363b421",
            "stateRoot" : "0xffe1435521fde24b7bdf5b873bbfdaf2db33a9df4f39e3a0021fdebdab0c1612",
            "timestamp" : "0x03b6",
            "transactionsTrie" : "0x56e81f171bcc55a6ff8345e692c0f86e5b48e01b996cadc001622fb5e363b421",
            "uncleHash" : "0x1dcc4de8dec75d7aab85b567b6ccd41ad312451b948a7413f0a142fd40d49347"
        },
        "genesisRLP" : "0xf901faf901f5a00000000000000000000000000000000000000000000000000000000000000000a01dcc4de8dec75d7aab85b567b6ccd41ad312451b948a7413f0a142fd40d49347942adc25665018aa1fe0e6bc666dac8fc2697ff9baa0ffe1435521fde24b7bdf5b873bbfdaf2db33a9df4f39e3a0021fdebdab0c1612a056e81f171bcc55a6ff8345e692c0f86e5b48e01b996cadc001622fb5e363b421a056e81f171bcc55a6ff8345e692c0f86e5b48e01b996cadc001622fb5e363b421b90100000000000000000000000000000000000000000000000000000000000000000000000000000000000000000000000000000000000000000000000000000000000000000000000000000000000000000000000000000000000000000000000000000000000000000000000000000000000000000000000000000000000000000000000000000000000000000000000000000000000000000000000000000000000000000000000000000000000000000000000000000000000000000000000000000000000000000000000000000000000000000000000000000000000000000000000000000000000000000000000000000000000000000000000000000000008302000080830f4240808203b642a056e81f171bcc55a6ff8345e692c0f86e5b48e01b996cadc001622fb5e363b421880102030405060708c0c0",
        "lastblockhash" : "0x3ffaa4b93392d9a03d04e825389ddcbbf9cf086466fc6bef5d8a4365bbf48e2e",
        "network" : "Constantinople",
        "postState" : {
            "0x00000000000000000000000000000000000000f0" : {
                "balance" : "0x00",
                "code" : "",
                "nonce" : "0x00",
                "storage" : {
                }
            },
            "0x095e7baea6a6c7c4c2dfeb977efac326af552d87" : {
                "balance" : "0x0de0b6b3a7640000",
                "code" : "0x6000600155",
                "nonce" : "0x00",
                "storage" : {
                    "0x01" : "0x01"
                }
            },
            "0x2adc25665018aa1fe0e6bc666dac8fc2697ff9ba" : {
                "balance" : "0x29a2241af62c6595",
                "code" : "",
                "nonce" : "0x00",
                "storage" : {
                }
            },
            "0xa94f5374fce5edbc8e2a8697c15331677e6ebf0b" : {
                "balance" : "0x073b8b",
                "code" : "",
                "nonce" : "0x01",
                "storage" : {
                }
            }
        },
        "pre" : {
            "0x095e7baea6a6c7c4c2dfeb977efac326af552d87" : {
                "balance" : "0x0de0b6b3a7640000",
                "code" : "0x6000600155",
                "nonce" : "0x00",
                "storage" : {
                    "0x01" : "0x01"
                }
            },
            "0xa94f5374fce5edbc8e2a8697c15331677e6ebf0b" : {
                "balance" : "0x07a120",
                "code" : "",
                "nonce" : "0x00",
                "storage" : {
                }
            }
        }
    },
    "refund_OOG_d0g0v0_EIP150" : {
        "_info" : {
            "comment" : "",
            "filledwith" : "cpp-1.3.0+commit.7b8143d3.Linux.g++",
            "source" : "/src/GenStateTestAsBcTemp/stRefundTest/refund_OOG_d0g0v0Filler.json"
        },
        "blocks" : [
            {
                "blockHeader" : {
                    "bloom" : "0x00000000000000000000000000000000000000000000000000000000000000000000000000000000000000000000000000000000000000000000000000000000000000000000000000000000000000000000000000000000000000000000000000000000000000000000000000000000000000000000000000000000000000000000000000000000000000000000000000000000000000000000000000000000000000000000000000000000000000000000000000000000000000000000000000000000000000000000000000000000000000000000000000000000000000000000000000000000000000000000000000000000000000000000000000000000",
                    "coinbase" : "0x2adc25665018aa1fe0e6bc666dac8fc2697ff9ba",
                    "difficulty" : "0x020000",
                    "extraData" : "",
                    "gasLimit" : "0x0f4240",
                    "gasUsed" : "0x6595",
                    "hash" : "0x922c2a2e5a78930e17be67fa89e928cc23f6321cb5da335b30890b693d7fd0f2",
                    "mixHash" : "0x80aba8fffa78f19c06751649d57515b32aefaadf5c1bc83766829db7ab6d2702",
                    "nonce" : "0xb7c64b0fe33f3ea9",
                    "number" : "0x01",
                    "parentHash" : "0x9760fdae6dbbf00b41c834a76de2f63a12c6d5d26df707ffed7119f79e14fd1b",
                    "receiptTrie" : "0xc4c10fc35a174b35e68750553db3e1a1f8283f97608a9da88b7a4bf43b7352c1",
                    "stateRoot" : "0x88312360ef0b77fe3586e4006873e4fa6ebfc9d77b215a0c3b2cde5995144de2",
                    "timestamp" : "0x03e8",
                    "transactionsTrie" : "0xe6b56fcfd91b26595e7f5f808680b9134b5d4500e9876d845b3a5dcbd0fb089d",
                    "uncleHash" : "0x1dcc4de8dec75d7aab85b567b6ccd41ad312451b948a7413f0a142fd40d49347"
                },
                "rlp" : "0xf9025ef901f7a09760fdae6dbbf00b41c834a76de2f63a12c6d5d26df707ffed7119f79e14fd1ba01dcc4de8dec75d7aab85b567b6ccd41ad312451b948a7413f0a142fd40d49347942adc25665018aa1fe0e6bc666dac8fc2697ff9baa088312360ef0b77fe3586e4006873e4fa6ebfc9d77b215a0c3b2cde5995144de2a0e6b56fcfd91b26595e7f5f808680b9134b5d4500e9876d845b3a5dcbd0fb089da0c4c10fc35a174b35e68750553db3e1a1f8283f97608a9da88b7a4bf43b7352c1b90100000000000000000000000000000000000000000000000000000000000000000000000000000000000000000000000000000000000000000000000000000000000000000000000000000000000000000000000000000000000000000000000000000000000000000000000000000000000000000000000000000000000000000000000000000000000000000000000000000000000000000000000000000000000000000000000000000000000000000000000000000000000000000000000000000000000000000000000000000000000000000000000000000000000000000000000000000000000000000000000000000000000000000000000000000000008302000001830f42408265958203e880a080aba8fffa78f19c06751649d57515b32aefaadf5c1bc83766829db7ab6d270288b7c64b0fe33f3ea9f861f85f800182659594095e7baea6a6c7c4c2dfeb977efac326af552d870a801ba09d7b7423aa187cf696e6b7ebea70f0bc3e3373a7b9494f662fe6050dd6bba82da016dc9e01d65fcba0460d3ad3ee26b2aca2ae6958fb747b0a68f447476e3a1dd5c0",
                "transactions" : [
                    {
                        "data" : "",
                        "gasLimit" : "0x6595",
                        "gasPrice" : "0x01",
                        "nonce" : "0x00",
                        "r" : "0x9d7b7423aa187cf696e6b7ebea70f0bc3e3373a7b9494f662fe6050dd6bba82d",
                        "s" : "0x16dc9e01d65fcba0460d3ad3ee26b2aca2ae6958fb747b0a68f447476e3a1dd5",
                        "to" : "0x095e7baea6a6c7c4c2dfeb977efac326af552d87",
                        "v" : "0x1b",
                        "value" : "0x0a"
                    }
                ],
                "uncleHeaders" : [
                ]
            }
        ],
        "genesisBlockHeader" : {
            "bloom" : "0x00000000000000000000000000000000000000000000000000000000000000000000000000000000000000000000000000000000000000000000000000000000000000000000000000000000000000000000000000000000000000000000000000000000000000000000000000000000000000000000000000000000000000000000000000000000000000000000000000000000000000000000000000000000000000000000000000000000000000000000000000000000000000000000000000000000000000000000000000000000000000000000000000000000000000000000000000000000000000000000000000000000000000000000000000000000",
            "coinbase" : "0x2adc25665018aa1fe0e6bc666dac8fc2697ff9ba",
            "difficulty" : "0x020000",
            "extraData" : "0x42",
            "gasLimit" : "0x0f4240",
            "gasUsed" : "0x00",
            "hash" : "0x9760fdae6dbbf00b41c834a76de2f63a12c6d5d26df707ffed7119f79e14fd1b",
            "mixHash" : "0x56e81f171bcc55a6ff8345e692c0f86e5b48e01b996cadc001622fb5e363b421",
            "nonce" : "0x0102030405060708",
            "number" : "0x00",
            "parentHash" : "0x0000000000000000000000000000000000000000000000000000000000000000",
            "receiptTrie" : "0x56e81f171bcc55a6ff8345e692c0f86e5b48e01b996cadc001622fb5e363b421",
            "stateRoot" : "0xffe1435521fde24b7bdf5b873bbfdaf2db33a9df4f39e3a0021fdebdab0c1612",
            "timestamp" : "0x03b6",
            "transactionsTrie" : "0x56e81f171bcc55a6ff8345e692c0f86e5b48e01b996cadc001622fb5e363b421",
            "uncleHash" : "0x1dcc4de8dec75d7aab85b567b6ccd41ad312451b948a7413f0a142fd40d49347"
        },
        "genesisRLP" : "0xf901faf901f5a00000000000000000000000000000000000000000000000000000000000000000a01dcc4de8dec75d7aab85b567b6ccd41ad312451b948a7413f0a142fd40d49347942adc25665018aa1fe0e6bc666dac8fc2697ff9baa0ffe1435521fde24b7bdf5b873bbfdaf2db33a9df4f39e3a0021fdebdab0c1612a056e81f171bcc55a6ff8345e692c0f86e5b48e01b996cadc001622fb5e363b421a056e81f171bcc55a6ff8345e692c0f86e5b48e01b996cadc001622fb5e363b421b90100000000000000000000000000000000000000000000000000000000000000000000000000000000000000000000000000000000000000000000000000000000000000000000000000000000000000000000000000000000000000000000000000000000000000000000000000000000000000000000000000000000000000000000000000000000000000000000000000000000000000000000000000000000000000000000000000000000000000000000000000000000000000000000000000000000000000000000000000000000000000000000000000000000000000000000000000000000000000000000000000000000000000000000000000000000008302000080830f4240808203b642a056e81f171bcc55a6ff8345e692c0f86e5b48e01b996cadc001622fb5e363b421880102030405060708c0c0",
        "lastblockhash" : "0x922c2a2e5a78930e17be67fa89e928cc23f6321cb5da335b30890b693d7fd0f2",
        "network" : "EIP150",
        "postState" : {
            "0x095e7baea6a6c7c4c2dfeb977efac326af552d87" : {
                "balance" : "0x0de0b6b3a7640000",
                "code" : "0x6000600155",
                "nonce" : "0x00",
                "storage" : {
                    "0x01" : "0x01"
                }
            },
            "0x2adc25665018aa1fe0e6bc666dac8fc2697ff9ba" : {
                "balance" : "0x4563918244f46595",
                "code" : "",
                "nonce" : "0x00",
                "storage" : {
                }
            },
            "0xa94f5374fce5edbc8e2a8697c15331677e6ebf0b" : {
                "balance" : "0x073b8b",
                "code" : "",
                "nonce" : "0x01",
                "storage" : {
                }
            }
        },
        "pre" : {
            "0x095e7baea6a6c7c4c2dfeb977efac326af552d87" : {
                "balance" : "0x0de0b6b3a7640000",
                "code" : "0x6000600155",
                "nonce" : "0x00",
                "storage" : {
                    "0x01" : "0x01"
                }
            },
            "0xa94f5374fce5edbc8e2a8697c15331677e6ebf0b" : {
                "balance" : "0x07a120",
                "code" : "",
                "nonce" : "0x00",
                "storage" : {
                }
            }
        }
    },
    "refund_OOG_d0g0v0_EIP158" : {
        "_info" : {
            "comment" : "",
            "filledwith" : "cpp-1.3.0+commit.7b8143d3.Linux.g++",
            "source" : "/src/GenStateTestAsBcTemp/stRefundTest/refund_OOG_d0g0v0Filler.json"
        },
        "blocks" : [
            {
                "blockHeader" : {
                    "bloom" : "0x00000000000000000000000000000000000000000000000000000000000000000000000000000000000000000000000000000000000000000000000000000000000000000000000000000000000000000000000000000000000000000000000000000000000000000000000000000000000000000000000000000000000000000000000000000000000000000000000000000000000000000000000000000000000000000000000000000000000000000000000000000000000000000000000000000000000000000000000000000000000000000000000000000000000000000000000000000000000000000000000000000000000000000000000000000000",
                    "coinbase" : "0x2adc25665018aa1fe0e6bc666dac8fc2697ff9ba",
                    "difficulty" : "0x020000",
                    "extraData" : "",
                    "gasLimit" : "0x0f4240",
                    "gasUsed" : "0x6595",
                    "hash" : "0x9e8daa377e4e334e42f696fcf0bab547647e0d381f331d06c9042ccc8d73c585",
                    "mixHash" : "0x2fa14875985338fef1d3fe45dc2f53f9f2bc3fbdd3ea63bb0f142d4f71700f02",
                    "nonce" : "0x0218e35d1dc3aff8",
                    "number" : "0x01",
                    "parentHash" : "0x9760fdae6dbbf00b41c834a76de2f63a12c6d5d26df707ffed7119f79e14fd1b",
                    "receiptTrie" : "0xc4c10fc35a174b35e68750553db3e1a1f8283f97608a9da88b7a4bf43b7352c1",
                    "stateRoot" : "0x88312360ef0b77fe3586e4006873e4fa6ebfc9d77b215a0c3b2cde5995144de2",
                    "timestamp" : "0x03e8",
                    "transactionsTrie" : "0xe6b56fcfd91b26595e7f5f808680b9134b5d4500e9876d845b3a5dcbd0fb089d",
                    "uncleHash" : "0x1dcc4de8dec75d7aab85b567b6ccd41ad312451b948a7413f0a142fd40d49347"
                },
                "rlp" : "0xf9025ef901f7a09760fdae6dbbf00b41c834a76de2f63a12c6d5d26df707ffed7119f79e14fd1ba01dcc4de8dec75d7aab85b567b6ccd41ad312451b948a7413f0a142fd40d49347942adc25665018aa1fe0e6bc666dac8fc2697ff9baa088312360ef0b77fe3586e4006873e4fa6ebfc9d77b215a0c3b2cde5995144de2a0e6b56fcfd91b26595e7f5f808680b9134b5d4500e9876d845b3a5dcbd0fb089da0c4c10fc35a174b35e68750553db3e1a1f8283f97608a9da88b7a4bf43b7352c1b90100000000000000000000000000000000000000000000000000000000000000000000000000000000000000000000000000000000000000000000000000000000000000000000000000000000000000000000000000000000000000000000000000000000000000000000000000000000000000000000000000000000000000000000000000000000000000000000000000000000000000000000000000000000000000000000000000000000000000000000000000000000000000000000000000000000000000000000000000000000000000000000000000000000000000000000000000000000000000000000000000000000000000000000000000000000008302000001830f42408265958203e880a02fa14875985338fef1d3fe45dc2f53f9f2bc3fbdd3ea63bb0f142d4f71700f02880218e35d1dc3aff8f861f85f800182659594095e7baea6a6c7c4c2dfeb977efac326af552d870a801ba09d7b7423aa187cf696e6b7ebea70f0bc3e3373a7b9494f662fe6050dd6bba82da016dc9e01d65fcba0460d3ad3ee26b2aca2ae6958fb747b0a68f447476e3a1dd5c0",
                "transactions" : [
                    {
                        "data" : "",
                        "gasLimit" : "0x6595",
                        "gasPrice" : "0x01",
                        "nonce" : "0x00",
                        "r" : "0x9d7b7423aa187cf696e6b7ebea70f0bc3e3373a7b9494f662fe6050dd6bba82d",
                        "s" : "0x16dc9e01d65fcba0460d3ad3ee26b2aca2ae6958fb747b0a68f447476e3a1dd5",
                        "to" : "0x095e7baea6a6c7c4c2dfeb977efac326af552d87",
                        "v" : "0x1b",
                        "value" : "0x0a"
                    }
                ],
                "uncleHeaders" : [
                ]
            }
        ],
        "genesisBlockHeader" : {
            "bloom" : "0x00000000000000000000000000000000000000000000000000000000000000000000000000000000000000000000000000000000000000000000000000000000000000000000000000000000000000000000000000000000000000000000000000000000000000000000000000000000000000000000000000000000000000000000000000000000000000000000000000000000000000000000000000000000000000000000000000000000000000000000000000000000000000000000000000000000000000000000000000000000000000000000000000000000000000000000000000000000000000000000000000000000000000000000000000000000",
            "coinbase" : "0x2adc25665018aa1fe0e6bc666dac8fc2697ff9ba",
            "difficulty" : "0x020000",
            "extraData" : "0x42",
            "gasLimit" : "0x0f4240",
            "gasUsed" : "0x00",
            "hash" : "0x9760fdae6dbbf00b41c834a76de2f63a12c6d5d26df707ffed7119f79e14fd1b",
            "mixHash" : "0x56e81f171bcc55a6ff8345e692c0f86e5b48e01b996cadc001622fb5e363b421",
            "nonce" : "0x0102030405060708",
            "number" : "0x00",
            "parentHash" : "0x0000000000000000000000000000000000000000000000000000000000000000",
            "receiptTrie" : "0x56e81f171bcc55a6ff8345e692c0f86e5b48e01b996cadc001622fb5e363b421",
            "stateRoot" : "0xffe1435521fde24b7bdf5b873bbfdaf2db33a9df4f39e3a0021fdebdab0c1612",
            "timestamp" : "0x03b6",
            "transactionsTrie" : "0x56e81f171bcc55a6ff8345e692c0f86e5b48e01b996cadc001622fb5e363b421",
            "uncleHash" : "0x1dcc4de8dec75d7aab85b567b6ccd41ad312451b948a7413f0a142fd40d49347"
        },
        "genesisRLP" : "0xf901faf901f5a00000000000000000000000000000000000000000000000000000000000000000a01dcc4de8dec75d7aab85b567b6ccd41ad312451b948a7413f0a142fd40d49347942adc25665018aa1fe0e6bc666dac8fc2697ff9baa0ffe1435521fde24b7bdf5b873bbfdaf2db33a9df4f39e3a0021fdebdab0c1612a056e81f171bcc55a6ff8345e692c0f86e5b48e01b996cadc001622fb5e363b421a056e81f171bcc55a6ff8345e692c0f86e5b48e01b996cadc001622fb5e363b421b90100000000000000000000000000000000000000000000000000000000000000000000000000000000000000000000000000000000000000000000000000000000000000000000000000000000000000000000000000000000000000000000000000000000000000000000000000000000000000000000000000000000000000000000000000000000000000000000000000000000000000000000000000000000000000000000000000000000000000000000000000000000000000000000000000000000000000000000000000000000000000000000000000000000000000000000000000000000000000000000000000000000000000000000000000000000008302000080830f4240808203b642a056e81f171bcc55a6ff8345e692c0f86e5b48e01b996cadc001622fb5e363b421880102030405060708c0c0",
        "lastblockhash" : "0x9e8daa377e4e334e42f696fcf0bab547647e0d381f331d06c9042ccc8d73c585",
        "network" : "EIP158",
        "postState" : {
            "0x095e7baea6a6c7c4c2dfeb977efac326af552d87" : {
                "balance" : "0x0de0b6b3a7640000",
                "code" : "0x6000600155",
                "nonce" : "0x00",
                "storage" : {
                    "0x01" : "0x01"
                }
            },
            "0x2adc25665018aa1fe0e6bc666dac8fc2697ff9ba" : {
                "balance" : "0x4563918244f46595",
                "code" : "",
                "nonce" : "0x00",
                "storage" : {
                }
            },
            "0xa94f5374fce5edbc8e2a8697c15331677e6ebf0b" : {
                "balance" : "0x073b8b",
                "code" : "",
                "nonce" : "0x01",
                "storage" : {
                }
            }
        },
        "pre" : {
            "0x095e7baea6a6c7c4c2dfeb977efac326af552d87" : {
                "balance" : "0x0de0b6b3a7640000",
                "code" : "0x6000600155",
                "nonce" : "0x00",
                "storage" : {
                    "0x01" : "0x01"
                }
            },
            "0xa94f5374fce5edbc8e2a8697c15331677e6ebf0b" : {
                "balance" : "0x07a120",
                "code" : "",
                "nonce" : "0x00",
                "storage" : {
                }
            }
        }
    },
    "refund_OOG_d0g0v0_Frontier" : {
        "_info" : {
            "comment" : "",
            "filledwith" : "cpp-1.3.0+commit.7b8143d3.Linux.g++",
            "source" : "/src/GenStateTestAsBcTemp/stRefundTest/refund_OOG_d0g0v0Filler.json"
        },
        "blocks" : [
            {
                "blockHeader" : {
                    "bloom" : "0x00000000000000000000000000000000000000000000000000000000000000000000000000000000000000000000000000000000000000000000000000000000000000000000000000000000000000000000000000000000000000000000000000000000000000000000000000000000000000000000000000000000000000000000000000000000000000000000000000000000000000000000000000000000000000000000000000000000000000000000000000000000000000000000000000000000000000000000000000000000000000000000000000000000000000000000000000000000000000000000000000000000000000000000000000000000",
                    "coinbase" : "0x2adc25665018aa1fe0e6bc666dac8fc2697ff9ba",
                    "difficulty" : "0x020000",
                    "extraData" : "",
                    "gasLimit" : "0x0f4240",
                    "gasUsed" : "0x6595",
                    "hash" : "0x9c8bdea3e0622750ddc14497ed8a311725187559d76c6857115687f6da7ff569",
                    "mixHash" : "0x12be67c14715b035e0cc20700338116ed8c8b953575c1aed418994ee1682d738",
                    "nonce" : "0xec30cd70b25c799e",
                    "number" : "0x01",
                    "parentHash" : "0x9760fdae6dbbf00b41c834a76de2f63a12c6d5d26df707ffed7119f79e14fd1b",
                    "receiptTrie" : "0xc4c10fc35a174b35e68750553db3e1a1f8283f97608a9da88b7a4bf43b7352c1",
                    "stateRoot" : "0x88312360ef0b77fe3586e4006873e4fa6ebfc9d77b215a0c3b2cde5995144de2",
                    "timestamp" : "0x03e8",
                    "transactionsTrie" : "0xe6b56fcfd91b26595e7f5f808680b9134b5d4500e9876d845b3a5dcbd0fb089d",
                    "uncleHash" : "0x1dcc4de8dec75d7aab85b567b6ccd41ad312451b948a7413f0a142fd40d49347"
                },
                "rlp" : "0xf9025ef901f7a09760fdae6dbbf00b41c834a76de2f63a12c6d5d26df707ffed7119f79e14fd1ba01dcc4de8dec75d7aab85b567b6ccd41ad312451b948a7413f0a142fd40d49347942adc25665018aa1fe0e6bc666dac8fc2697ff9baa088312360ef0b77fe3586e4006873e4fa6ebfc9d77b215a0c3b2cde5995144de2a0e6b56fcfd91b26595e7f5f808680b9134b5d4500e9876d845b3a5dcbd0fb089da0c4c10fc35a174b35e68750553db3e1a1f8283f97608a9da88b7a4bf43b7352c1b90100000000000000000000000000000000000000000000000000000000000000000000000000000000000000000000000000000000000000000000000000000000000000000000000000000000000000000000000000000000000000000000000000000000000000000000000000000000000000000000000000000000000000000000000000000000000000000000000000000000000000000000000000000000000000000000000000000000000000000000000000000000000000000000000000000000000000000000000000000000000000000000000000000000000000000000000000000000000000000000000000000000000000000000000000000000008302000001830f42408265958203e880a012be67c14715b035e0cc20700338116ed8c8b953575c1aed418994ee1682d73888ec30cd70b25c799ef861f85f800182659594095e7baea6a6c7c4c2dfeb977efac326af552d870a801ba09d7b7423aa187cf696e6b7ebea70f0bc3e3373a7b9494f662fe6050dd6bba82da016dc9e01d65fcba0460d3ad3ee26b2aca2ae6958fb747b0a68f447476e3a1dd5c0",
                "transactions" : [
                    {
                        "data" : "",
                        "gasLimit" : "0x6595",
                        "gasPrice" : "0x01",
                        "nonce" : "0x00",
                        "r" : "0x9d7b7423aa187cf696e6b7ebea70f0bc3e3373a7b9494f662fe6050dd6bba82d",
                        "s" : "0x16dc9e01d65fcba0460d3ad3ee26b2aca2ae6958fb747b0a68f447476e3a1dd5",
                        "to" : "0x095e7baea6a6c7c4c2dfeb977efac326af552d87",
                        "v" : "0x1b",
                        "value" : "0x0a"
                    }
                ],
                "uncleHeaders" : [
                ]
            }
        ],
        "genesisBlockHeader" : {
            "bloom" : "0x00000000000000000000000000000000000000000000000000000000000000000000000000000000000000000000000000000000000000000000000000000000000000000000000000000000000000000000000000000000000000000000000000000000000000000000000000000000000000000000000000000000000000000000000000000000000000000000000000000000000000000000000000000000000000000000000000000000000000000000000000000000000000000000000000000000000000000000000000000000000000000000000000000000000000000000000000000000000000000000000000000000000000000000000000000000",
            "coinbase" : "0x2adc25665018aa1fe0e6bc666dac8fc2697ff9ba",
            "difficulty" : "0x020000",
            "extraData" : "0x42",
            "gasLimit" : "0x0f4240",
            "gasUsed" : "0x00",
            "hash" : "0x9760fdae6dbbf00b41c834a76de2f63a12c6d5d26df707ffed7119f79e14fd1b",
            "mixHash" : "0x56e81f171bcc55a6ff8345e692c0f86e5b48e01b996cadc001622fb5e363b421",
            "nonce" : "0x0102030405060708",
            "number" : "0x00",
            "parentHash" : "0x0000000000000000000000000000000000000000000000000000000000000000",
            "receiptTrie" : "0x56e81f171bcc55a6ff8345e692c0f86e5b48e01b996cadc001622fb5e363b421",
            "stateRoot" : "0xffe1435521fde24b7bdf5b873bbfdaf2db33a9df4f39e3a0021fdebdab0c1612",
            "timestamp" : "0x03b6",
            "transactionsTrie" : "0x56e81f171bcc55a6ff8345e692c0f86e5b48e01b996cadc001622fb5e363b421",
            "uncleHash" : "0x1dcc4de8dec75d7aab85b567b6ccd41ad312451b948a7413f0a142fd40d49347"
        },
        "genesisRLP" : "0xf901faf901f5a00000000000000000000000000000000000000000000000000000000000000000a01dcc4de8dec75d7aab85b567b6ccd41ad312451b948a7413f0a142fd40d49347942adc25665018aa1fe0e6bc666dac8fc2697ff9baa0ffe1435521fde24b7bdf5b873bbfdaf2db33a9df4f39e3a0021fdebdab0c1612a056e81f171bcc55a6ff8345e692c0f86e5b48e01b996cadc001622fb5e363b421a056e81f171bcc55a6ff8345e692c0f86e5b48e01b996cadc001622fb5e363b421b90100000000000000000000000000000000000000000000000000000000000000000000000000000000000000000000000000000000000000000000000000000000000000000000000000000000000000000000000000000000000000000000000000000000000000000000000000000000000000000000000000000000000000000000000000000000000000000000000000000000000000000000000000000000000000000000000000000000000000000000000000000000000000000000000000000000000000000000000000000000000000000000000000000000000000000000000000000000000000000000000000000000000000000000000000000000008302000080830f4240808203b642a056e81f171bcc55a6ff8345e692c0f86e5b48e01b996cadc001622fb5e363b421880102030405060708c0c0",
        "lastblockhash" : "0x9c8bdea3e0622750ddc14497ed8a311725187559d76c6857115687f6da7ff569",
        "network" : "Frontier",
        "postState" : {
            "0x095e7baea6a6c7c4c2dfeb977efac326af552d87" : {
                "balance" : "0x0de0b6b3a7640000",
                "code" : "0x6000600155",
                "nonce" : "0x00",
                "storage" : {
                    "0x01" : "0x01"
                }
            },
            "0x2adc25665018aa1fe0e6bc666dac8fc2697ff9ba" : {
                "balance" : "0x4563918244f46595",
                "code" : "",
                "nonce" : "0x00",
                "storage" : {
                }
            },
            "0xa94f5374fce5edbc8e2a8697c15331677e6ebf0b" : {
                "balance" : "0x073b8b",
                "code" : "",
                "nonce" : "0x01",
                "storage" : {
                }
            }
        },
        "pre" : {
            "0x095e7baea6a6c7c4c2dfeb977efac326af552d87" : {
                "balance" : "0x0de0b6b3a7640000",
                "code" : "0x6000600155",
                "nonce" : "0x00",
                "storage" : {
                    "0x01" : "0x01"
                }
            },
            "0xa94f5374fce5edbc8e2a8697c15331677e6ebf0b" : {
                "balance" : "0x07a120",
                "code" : "",
                "nonce" : "0x00",
                "storage" : {
                }
            }
        }
    },
    "refund_OOG_d0g0v0_Homestead" : {
        "_info" : {
            "comment" : "",
            "filledwith" : "cpp-1.3.0+commit.7b8143d3.Linux.g++",
            "source" : "/src/GenStateTestAsBcTemp/stRefundTest/refund_OOG_d0g0v0Filler.json"
        },
        "blocks" : [
            {
                "blockHeader" : {
                    "bloom" : "0x00000000000000000000000000000000000000000000000000000000000000000000000000000000000000000000000000000000000000000000000000000000000000000000000000000000000000000000000000000000000000000000000000000000000000000000000000000000000000000000000000000000000000000000000000000000000000000000000000000000000000000000000000000000000000000000000000000000000000000000000000000000000000000000000000000000000000000000000000000000000000000000000000000000000000000000000000000000000000000000000000000000000000000000000000000000",
                    "coinbase" : "0x2adc25665018aa1fe0e6bc666dac8fc2697ff9ba",
                    "difficulty" : "0x020000",
                    "extraData" : "",
                    "gasLimit" : "0x0f4240",
                    "gasUsed" : "0x6595",
                    "hash" : "0xf38360409f4d6faa1d0bfdc0fb73e473e959c383f25fc55ec024a442d9af4f8d",
                    "mixHash" : "0x64d66c9350f1262353de9d8dabebb33560487d488493d2f6d0bdc9db090c2811",
                    "nonce" : "0x5e020a5898e1841a",
                    "number" : "0x01",
                    "parentHash" : "0x9760fdae6dbbf00b41c834a76de2f63a12c6d5d26df707ffed7119f79e14fd1b",
                    "receiptTrie" : "0xc4c10fc35a174b35e68750553db3e1a1f8283f97608a9da88b7a4bf43b7352c1",
                    "stateRoot" : "0x88312360ef0b77fe3586e4006873e4fa6ebfc9d77b215a0c3b2cde5995144de2",
                    "timestamp" : "0x03e8",
                    "transactionsTrie" : "0xe6b56fcfd91b26595e7f5f808680b9134b5d4500e9876d845b3a5dcbd0fb089d",
                    "uncleHash" : "0x1dcc4de8dec75d7aab85b567b6ccd41ad312451b948a7413f0a142fd40d49347"
                },
                "rlp" : "0xf9025ef901f7a09760fdae6dbbf00b41c834a76de2f63a12c6d5d26df707ffed7119f79e14fd1ba01dcc4de8dec75d7aab85b567b6ccd41ad312451b948a7413f0a142fd40d49347942adc25665018aa1fe0e6bc666dac8fc2697ff9baa088312360ef0b77fe3586e4006873e4fa6ebfc9d77b215a0c3b2cde5995144de2a0e6b56fcfd91b26595e7f5f808680b9134b5d4500e9876d845b3a5dcbd0fb089da0c4c10fc35a174b35e68750553db3e1a1f8283f97608a9da88b7a4bf43b7352c1b90100000000000000000000000000000000000000000000000000000000000000000000000000000000000000000000000000000000000000000000000000000000000000000000000000000000000000000000000000000000000000000000000000000000000000000000000000000000000000000000000000000000000000000000000000000000000000000000000000000000000000000000000000000000000000000000000000000000000000000000000000000000000000000000000000000000000000000000000000000000000000000000000000000000000000000000000000000000000000000000000000000000000000000000000000000000008302000001830f42408265958203e880a064d66c9350f1262353de9d8dabebb33560487d488493d2f6d0bdc9db090c2811885e020a5898e1841af861f85f800182659594095e7baea6a6c7c4c2dfeb977efac326af552d870a801ba09d7b7423aa187cf696e6b7ebea70f0bc3e3373a7b9494f662fe6050dd6bba82da016dc9e01d65fcba0460d3ad3ee26b2aca2ae6958fb747b0a68f447476e3a1dd5c0",
                "transactions" : [
                    {
                        "data" : "",
                        "gasLimit" : "0x6595",
                        "gasPrice" : "0x01",
                        "nonce" : "0x00",
                        "r" : "0x9d7b7423aa187cf696e6b7ebea70f0bc3e3373a7b9494f662fe6050dd6bba82d",
                        "s" : "0x16dc9e01d65fcba0460d3ad3ee26b2aca2ae6958fb747b0a68f447476e3a1dd5",
                        "to" : "0x095e7baea6a6c7c4c2dfeb977efac326af552d87",
                        "v" : "0x1b",
                        "value" : "0x0a"
                    }
                ],
                "uncleHeaders" : [
                ]
            }
        ],
        "genesisBlockHeader" : {
            "bloom" : "0x00000000000000000000000000000000000000000000000000000000000000000000000000000000000000000000000000000000000000000000000000000000000000000000000000000000000000000000000000000000000000000000000000000000000000000000000000000000000000000000000000000000000000000000000000000000000000000000000000000000000000000000000000000000000000000000000000000000000000000000000000000000000000000000000000000000000000000000000000000000000000000000000000000000000000000000000000000000000000000000000000000000000000000000000000000000",
            "coinbase" : "0x2adc25665018aa1fe0e6bc666dac8fc2697ff9ba",
            "difficulty" : "0x020000",
            "extraData" : "0x42",
            "gasLimit" : "0x0f4240",
            "gasUsed" : "0x00",
            "hash" : "0x9760fdae6dbbf00b41c834a76de2f63a12c6d5d26df707ffed7119f79e14fd1b",
            "mixHash" : "0x56e81f171bcc55a6ff8345e692c0f86e5b48e01b996cadc001622fb5e363b421",
            "nonce" : "0x0102030405060708",
            "number" : "0x00",
            "parentHash" : "0x0000000000000000000000000000000000000000000000000000000000000000",
            "receiptTrie" : "0x56e81f171bcc55a6ff8345e692c0f86e5b48e01b996cadc001622fb5e363b421",
            "stateRoot" : "0xffe1435521fde24b7bdf5b873bbfdaf2db33a9df4f39e3a0021fdebdab0c1612",
            "timestamp" : "0x03b6",
            "transactionsTrie" : "0x56e81f171bcc55a6ff8345e692c0f86e5b48e01b996cadc001622fb5e363b421",
            "uncleHash" : "0x1dcc4de8dec75d7aab85b567b6ccd41ad312451b948a7413f0a142fd40d49347"
        },
        "genesisRLP" : "0xf901faf901f5a00000000000000000000000000000000000000000000000000000000000000000a01dcc4de8dec75d7aab85b567b6ccd41ad312451b948a7413f0a142fd40d49347942adc25665018aa1fe0e6bc666dac8fc2697ff9baa0ffe1435521fde24b7bdf5b873bbfdaf2db33a9df4f39e3a0021fdebdab0c1612a056e81f171bcc55a6ff8345e692c0f86e5b48e01b996cadc001622fb5e363b421a056e81f171bcc55a6ff8345e692c0f86e5b48e01b996cadc001622fb5e363b421b90100000000000000000000000000000000000000000000000000000000000000000000000000000000000000000000000000000000000000000000000000000000000000000000000000000000000000000000000000000000000000000000000000000000000000000000000000000000000000000000000000000000000000000000000000000000000000000000000000000000000000000000000000000000000000000000000000000000000000000000000000000000000000000000000000000000000000000000000000000000000000000000000000000000000000000000000000000000000000000000000000000000000000000000000000000000008302000080830f4240808203b642a056e81f171bcc55a6ff8345e692c0f86e5b48e01b996cadc001622fb5e363b421880102030405060708c0c0",
        "lastblockhash" : "0xf38360409f4d6faa1d0bfdc0fb73e473e959c383f25fc55ec024a442d9af4f8d",
        "network" : "Homestead",
        "postState" : {
            "0x095e7baea6a6c7c4c2dfeb977efac326af552d87" : {
                "balance" : "0x0de0b6b3a7640000",
                "code" : "0x6000600155",
                "nonce" : "0x00",
                "storage" : {
                    "0x01" : "0x01"
                }
            },
            "0x2adc25665018aa1fe0e6bc666dac8fc2697ff9ba" : {
                "balance" : "0x4563918244f46595",
                "code" : "",
                "nonce" : "0x00",
                "storage" : {
                }
            },
            "0xa94f5374fce5edbc8e2a8697c15331677e6ebf0b" : {
                "balance" : "0x073b8b",
                "code" : "",
                "nonce" : "0x01",
                "storage" : {
                }
            }
        },
        "pre" : {
            "0x095e7baea6a6c7c4c2dfeb977efac326af552d87" : {
                "balance" : "0x0de0b6b3a7640000",
                "code" : "0x6000600155",
                "nonce" : "0x00",
                "storage" : {
                    "0x01" : "0x01"
                }
            },
            "0xa94f5374fce5edbc8e2a8697c15331677e6ebf0b" : {
                "balance" : "0x07a120",
                "code" : "",
                "nonce" : "0x00",
                "storage" : {
                }
            }
        }
    }
}