{
    "refundMax_d0g0v0_Berlin" : {
        "_info" : {
            "comment" : "Ori Pomerantz   qbzzt1@gmail.com",
            "filling-rpc-server" : "evm version 1.13.5-unstable-cd295356-20231019",
            "filling-tool-version" : "retesteth-0.3.1-cancun+commit.1e18e0b3.Linux.g++",
            "generatedTestHash" : "0c1636e02409bc64526973858f7a8d45e946472bbca54eab7689274dfa6534d3",
            "lllcversion" : "Version: 0.5.14-develop.2023.7.11+commit.c58ab2c6.mod.Linux.g++",
            "solidity" : "Version: 0.8.21+commit.d9974bed.Linux.g++",
            "source" : "src/GeneralStateTestsFiller/stRefundTest/refundMaxFiller.yml",
            "sourceHash" : "66b5877294022ab465184ae9d7c6f7550e979e128acf999757b7b509f63b3060"
        },
        "blocks" : [
            {
                "blockHeader" : {
                    "bloom" : "0x00000000000000000000000000000000000000000000000000000000000000000000000000000000000000000000000000000000000000000000000000000000000000000000000000000000000000000000000000000000000000000000000000000000000000000000000000000000000000000000000000000000000000000000000000000000000000000000000000000000000000000000000000000000000000000000000000000000000000000000000000000000000000000000000000000000000000000000000000000000000000000000000000000000000000000000000000000000000000000000000000000000000000000000000000000000",
                    "coinbase" : "0x2adc25665018aa1fe0e6bc666dac8fc2697ff9ba",
                    "difficulty" : "0x020000",
                    "extraData" : "0x00",
                    "gasLimit" : "0x01000000",
                    "gasUsed" : "0x773e",
                    "hash" : "0xf951789780a7ef0536102f69ae0c641668ddc67a67a59355ec2319abb5b2cef6",
                    "mixHash" : "0x0000000000000000000000000000000000000000000000000000000000000000",
                    "nonce" : "0x0000000000000000",
                    "number" : "0x01",
                    "parentHash" : "0x38ba64d66f5d783918fb92ba2d8fd03420d356cc037777397f51015848f44a9b",
                    "receiptTrie" : "0x2e26dcdd07813f70c1b405e20ba93b1a8b0fbc17f7c720eab6c95836f04a1d5b",
                    "stateRoot" : "0x18e9c43dc1eed8be2a4782bb4fb8060ea7b6cf1386ecc7b75dd3f67a50dcd5d9",
                    "timestamp" : "0x03e8",
                    "transactionsTrie" : "0x62b3433319d52e2ba1c77a1290d0416ea21b71ec7668c5af1a2e3e2020291de4",
                    "uncleHash" : "0x1dcc4de8dec75d7aab85b567b6ccd41ad312451b948a7413f0a142fd40d49347"
                },
                "rlp" : "0xf90267f901f8a038ba64d66f5d783918fb92ba2d8fd03420d356cc037777397f51015848f44a9ba01dcc4de8dec75d7aab85b567b6ccd41ad312451b948a7413f0a142fd40d49347942adc25665018aa1fe0e6bc666dac8fc2697ff9baa018e9c43dc1eed8be2a4782bb4fb8060ea7b6cf1386ecc7b75dd3f67a50dcd5d9a062b3433319d52e2ba1c77a1290d0416ea21b71ec7668c5af1a2e3e2020291de4a02e26dcdd07813f70c1b405e20ba93b1a8b0fbc17f7c720eab6c95836f04a1d5bb90100000000000000000000000000000000000000000000000000000000000000000000000000000000000000000000000000000000000000000000000000000000000000000000000000000000000000000000000000000000000000000000000000000000000000000000000000000000000000000000000000000000000000000000000000000000000000000000000000000000000000000000000000000000000000000000000000000000000000000000000000000000000000000000000000000000000000000000000000000000000000000000000000000000000000000000000000000000000000000000000000000000000000000000000000000000008302000001840100000082773e8203e800a00000000000000000000000000000000000000000000000000000000000000000880000000000000000f869b86701f86401018203e88327b02894cccccccccccccccccccccccccccccccccccccccc8000c080a039a0a692787fa83274937107332a154b786bf2cb1f80d1f20fe49d20da6ba324a0103bb80408321d84a1db211dfc777a640db593e889d6ec52f94d8718db3935c6c0",
                "transactions" : [
                    {
                        "accessList" : [
                        ],
                        "chainId" : "0x01",
                        "data" : "0x00",
                        "gasLimit" : "0x27b028",
                        "gasPrice" : "0x03e8",
                        "nonce" : "0x01",
                        "r" : "0x39a0a692787fa83274937107332a154b786bf2cb1f80d1f20fe49d20da6ba324",
                        "s" : "0x103bb80408321d84a1db211dfc777a640db593e889d6ec52f94d8718db3935c6",
                        "sender" : "0xa94f5374fce5edbc8e2a8697c15331677e6ebf0b",
                        "to" : "0xcccccccccccccccccccccccccccccccccccccccc",
                        "type" : "0x01",
                        "v" : "0x00",
                        "value" : "0x00"
                    }
                ],
                "uncleHeaders" : [
                ]
            }
        ],
        "genesisBlockHeader" : {
            "bloom" : "0x00000000000000000000000000000000000000000000000000000000000000000000000000000000000000000000000000000000000000000000000000000000000000000000000000000000000000000000000000000000000000000000000000000000000000000000000000000000000000000000000000000000000000000000000000000000000000000000000000000000000000000000000000000000000000000000000000000000000000000000000000000000000000000000000000000000000000000000000000000000000000000000000000000000000000000000000000000000000000000000000000000000000000000000000000000000",
            "coinbase" : "0x2adc25665018aa1fe0e6bc666dac8fc2697ff9ba",
            "difficulty" : "0x020000",
            "extraData" : "0x00",
            "gasLimit" : "0x01000000",
            "gasUsed" : "0x00",
            "hash" : "0x38ba64d66f5d783918fb92ba2d8fd03420d356cc037777397f51015848f44a9b",
            "mixHash" : "0x0000000000000000000000000000000000000000000000000000000000000000",
            "nonce" : "0x0000000000000000",
            "number" : "0x00",
            "parentHash" : "0x0000000000000000000000000000000000000000000000000000000000000000",
            "receiptTrie" : "0x56e81f171bcc55a6ff8345e692c0f86e5b48e01b996cadc001622fb5e363b421",
            "stateRoot" : "0x61ac97af0195ed389dfe8d74879a281d8e62336a05c741674afe094a8cd219de",
            "timestamp" : "0x00",
            "transactionsTrie" : "0x56e81f171bcc55a6ff8345e692c0f86e5b48e01b996cadc001622fb5e363b421",
            "uncleHash" : "0x1dcc4de8dec75d7aab85b567b6ccd41ad312451b948a7413f0a142fd40d49347"
        },
        "genesisRLP" : "0xf901f9f901f4a00000000000000000000000000000000000000000000000000000000000000000a01dcc4de8dec75d7aab85b567b6ccd41ad312451b948a7413f0a142fd40d49347942adc25665018aa1fe0e6bc666dac8fc2697ff9baa061ac97af0195ed389dfe8d74879a281d8e62336a05c741674afe094a8cd219dea056e81f171bcc55a6ff8345e692c0f86e5b48e01b996cadc001622fb5e363b421a056e81f171bcc55a6ff8345e692c0f86e5b48e01b996cadc001622fb5e363b421b901000000000000000000000000000000000000000000000000000000000000000000000000000000000000000000000000000000000000000000000000000000000000000000000000000000000000000000000000000000000000000000000000000000000000000000000000000000000000000000000000000000000000000000000000000000000000000000000000000000000000000000000000000000000000000000000000000000000000000000000000000000000000000000000000000000000000000000000000000000000000000000000000000000000000000000000000000000000000000000000000000000000000000000000000000000000083020000808401000000808000a00000000000000000000000000000000000000000000000000000000000000000880000000000000000c0c0",
        "lastblockhash" : "0xf951789780a7ef0536102f69ae0c641668ddc67a67a59355ec2319abb5b2cef6",
        "network" : "Berlin",
        "postState" : {
            "0x2adc25665018aa1fe0e6bc666dac8fc2697ff9ba" : {
                "balance" : "0x1bc16d675099ca30",
                "code" : "0x",
                "nonce" : "0x00",
                "storage" : {
                }
            },
            "0xa94f5374fce5edbc8e2a8697c15331677e6ebf0b" : {
                "balance" : "0xe8d676f970",
                "code" : "0x",
                "nonce" : "0x02",
                "storage" : {
                }
            },
            "0xcccccccccccccccccccccccccccccccccccccccc" : {
                "balance" : "0x0de0b6b3a7640000",
                "code" : "0x60008060005580600155806002558060035580600455806005558060065560075500",
                "nonce" : "0x01",
                "storage" : {
                }
            }
        },
        "pre" : {
            "0xa94f5374fce5edbc8e2a8697c15331677e6ebf0b" : {
                "balance" : "0xe8d848c3a0",
                "code" : "0x",
                "nonce" : "0x01",
                "storage" : {
                }
            },
            "0xcccccccccccccccccccccccccccccccccccccccc" : {
                "balance" : "0x0de0b6b3a7640000",
                "code" : "0x60008060005580600155806002558060035580600455806005558060065560075500",
                "nonce" : "0x01",
                "storage" : {
                    "0x00" : "0x60a7",
                    "0x01" : "0x60a7",
                    "0x02" : "0x60a7",
                    "0x03" : "0x60a7",
                    "0x04" : "0x60a7",
                    "0x05" : "0x60a7",
                    "0x06" : "0x60a7",
                    "0x07" : "0x60a7"
                }
            }
        },
        "sealEngine" : "NoProof"
    },
    "refundMax_d0g0v0_Cancun" : {
        "_info" : {
            "comment" : "Ori Pomerantz   qbzzt1@gmail.com",
            "filling-rpc-server" : "evm version 1.13.5-unstable-cd295356-20231019",
            "filling-tool-version" : "retesteth-0.3.1-cancun+commit.1e18e0b3.Linux.g++",
            "generatedTestHash" : "20030aa2ea4cfd61e79338a9c3bb41620b12bdcdd177645a7cc2be77eaf69c2a",
            "lllcversion" : "Version: 0.5.14-develop.2023.7.11+commit.c58ab2c6.mod.Linux.g++",
            "solidity" : "Version: 0.8.21+commit.d9974bed.Linux.g++",
            "source" : "src/GeneralStateTestsFiller/stRefundTest/refundMaxFiller.yml",
            "sourceHash" : "66b5877294022ab465184ae9d7c6f7550e979e128acf999757b7b509f63b3060"
        },
        "blocks" : [
            {
                "blockHeader" : {
                    "baseFeePerGas" : "0x03e8",
                    "blobGasUsed" : "0x00",
                    "bloom" : "0x00000000000000000000000000000000000000000000000000000000000000000000000000000000000000000000000000000000000000000000000000000000000000000000000000000000000000000000000000000000000000000000000000000000000000000000000000000000000000000000000000000000000000000000000000000000000000000000000000000000000000000000000000000000000000000000000000000000000000000000000000000000000000000000000000000000000000000000000000000000000000000000000000000000000000000000000000000000000000000000000000000000000000000000000000000000",
                    "coinbase" : "0x2adc25665018aa1fe0e6bc666dac8fc2697ff9ba",
                    "difficulty" : "0x00",
                    "excessBlobGas" : "0x00",
                    "extraData" : "0x00",
                    "gasLimit" : "0x01000000",
                    "gasUsed" : "0xbeca",
                    "hash" : "0x6a0f5c6eae576191d22d22bfa0b56c320794dfbe0d91358afa655c8ded5ff1d7",
                    "mixHash" : "0x0000000000000000000000000000000000000000000000000000000000020000",
                    "nonce" : "0x0000000000000000",
                    "number" : "0x01",
                    "parentBeaconBlockRoot" : "0x0000000000000000000000000000000000000000000000000000000000000000",
                    "parentHash" : "0x04b140185a888dc5d71f7c8421430ca2ab437af010aee59ebfb082b53e1cd00a",
                    "receiptTrie" : "0xa1267dc8cb9b1eb6a801b3b02fcf24df7b3a62b8a094bdfd43a49546ee4164b8",
                    "stateRoot" : "0xe0e9302d0053856708ae59a3f52293cb4a5f6127bb325abee3395434be22d121",
                    "timestamp" : "0x03e8",
                    "transactionsTrie" : "0x62b3433319d52e2ba1c77a1290d0416ea21b71ec7668c5af1a2e3e2020291de4",
                    "uncleHash" : "0x1dcc4de8dec75d7aab85b567b6ccd41ad312451b948a7413f0a142fd40d49347",
                    "withdrawalsRoot" : "0x56e81f171bcc55a6ff8345e692c0f86e5b48e01b996cadc001622fb5e363b421"
                },
                "rlp" : "0xf902acf9023ca004b140185a888dc5d71f7c8421430ca2ab437af010aee59ebfb082b53e1cd00aa01dcc4de8dec75d7aab85b567b6ccd41ad312451b948a7413f0a142fd40d49347942adc25665018aa1fe0e6bc666dac8fc2697ff9baa0e0e9302d0053856708ae59a3f52293cb4a5f6127bb325abee3395434be22d121a062b3433319d52e2ba1c77a1290d0416ea21b71ec7668c5af1a2e3e2020291de4a0a1267dc8cb9b1eb6a801b3b02fcf24df7b3a62b8a094bdfd43a49546ee4164b8b90100000000000000000000000000000000000000000000000000000000000000000000000000000000000000000000000000000000000000000000000000000000000000000000000000000000000000000000000000000000000000000000000000000000000000000000000000000000000000000000000000000000000000000000000000000000000000000000000000000000000000000000000000000000000000000000000000000000000000000000000000000000000000000000000000000000000000000000000000000000000000000000000000000000000000000000000000000000000000000000000000000000000000000000000000000000008001840100000082beca8203e800a000000000000000000000000000000000000000000000000000000000000200008800000000000000008203e8a056e81f171bcc55a6ff8345e692c0f86e5b48e01b996cadc001622fb5e363b4218080a00000000000000000000000000000000000000000000000000000000000000000f869b86701f86401018203e88327b02894cccccccccccccccccccccccccccccccccccccccc8000c080a039a0a692787fa83274937107332a154b786bf2cb1f80d1f20fe49d20da6ba324a0103bb80408321d84a1db211dfc777a640db593e889d6ec52f94d8718db3935c6c0c0",
                "transactions" : [
                    {
                        "accessList" : [
                        ],
                        "chainId" : "0x01",
                        "data" : "0x00",
                        "gasLimit" : "0x27b028",
                        "gasPrice" : "0x03e8",
                        "nonce" : "0x01",
                        "r" : "0x39a0a692787fa83274937107332a154b786bf2cb1f80d1f20fe49d20da6ba324",
                        "s" : "0x103bb80408321d84a1db211dfc777a640db593e889d6ec52f94d8718db3935c6",
                        "sender" : "0xa94f5374fce5edbc8e2a8697c15331677e6ebf0b",
                        "to" : "0xcccccccccccccccccccccccccccccccccccccccc",
                        "type" : "0x01",
                        "v" : "0x00",
                        "value" : "0x00"
                    }
                ],
                "uncleHeaders" : [
                ],
                "withdrawals" : [
                ]
            }
        ],
        "genesisBlockHeader" : {
            "baseFeePerGas" : "0x0476",
            "blobGasUsed" : "0x00",
            "bloom" : "0x00000000000000000000000000000000000000000000000000000000000000000000000000000000000000000000000000000000000000000000000000000000000000000000000000000000000000000000000000000000000000000000000000000000000000000000000000000000000000000000000000000000000000000000000000000000000000000000000000000000000000000000000000000000000000000000000000000000000000000000000000000000000000000000000000000000000000000000000000000000000000000000000000000000000000000000000000000000000000000000000000000000000000000000000000000000",
            "coinbase" : "0x2adc25665018aa1fe0e6bc666dac8fc2697ff9ba",
            "difficulty" : "0x00",
            "excessBlobGas" : "0x00",
            "extraData" : "0x00",
            "gasLimit" : "0x01000000",
            "gasUsed" : "0x00",
            "hash" : "0x04b140185a888dc5d71f7c8421430ca2ab437af010aee59ebfb082b53e1cd00a",
            "mixHash" : "0x0000000000000000000000000000000000000000000000000000000000020000",
            "nonce" : "0x0000000000000000",
            "number" : "0x00",
            "parentBeaconBlockRoot" : "0x0000000000000000000000000000000000000000000000000000000000000000",
            "parentHash" : "0x0000000000000000000000000000000000000000000000000000000000000000",
            "receiptTrie" : "0x56e81f171bcc55a6ff8345e692c0f86e5b48e01b996cadc001622fb5e363b421",
            "stateRoot" : "0x61ac97af0195ed389dfe8d74879a281d8e62336a05c741674afe094a8cd219de",
            "timestamp" : "0x00",
            "transactionsTrie" : "0x56e81f171bcc55a6ff8345e692c0f86e5b48e01b996cadc001622fb5e363b421",
            "uncleHash" : "0x1dcc4de8dec75d7aab85b567b6ccd41ad312451b948a7413f0a142fd40d49347",
            "withdrawalsRoot" : "0x56e81f171bcc55a6ff8345e692c0f86e5b48e01b996cadc001622fb5e363b421"
        },
        "genesisRLP" : "0xf9023ef90238a00000000000000000000000000000000000000000000000000000000000000000a01dcc4de8dec75d7aab85b567b6ccd41ad312451b948a7413f0a142fd40d49347942adc25665018aa1fe0e6bc666dac8fc2697ff9baa061ac97af0195ed389dfe8d74879a281d8e62336a05c741674afe094a8cd219dea056e81f171bcc55a6ff8345e692c0f86e5b48e01b996cadc001622fb5e363b421a056e81f171bcc55a6ff8345e692c0f86e5b48e01b996cadc001622fb5e363b421b901000000000000000000000000000000000000000000000000000000000000000000000000000000000000000000000000000000000000000000000000000000000000000000000000000000000000000000000000000000000000000000000000000000000000000000000000000000000000000000000000000000000000000000000000000000000000000000000000000000000000000000000000000000000000000000000000000000000000000000000000000000000000000000000000000000000000000000000000000000000000000000000000000000000000000000000000000000000000000000000000000000000000000000000000000000000080808401000000808000a00000000000000000000000000000000000000000000000000000000000020000880000000000000000820476a056e81f171bcc55a6ff8345e692c0f86e5b48e01b996cadc001622fb5e363b4218080a00000000000000000000000000000000000000000000000000000000000000000c0c0c0",
        "lastblockhash" : "0x6a0f5c6eae576191d22d22bfa0b56c320794dfbe0d91358afa655c8ded5ff1d7",
        "network" : "Cancun",
        "postState" : {
            "0xa94f5374fce5edbc8e2a8697c15331677e6ebf0b" : {
                "balance" : "0xe8d55f7e90",
                "code" : "0x",
                "nonce" : "0x02",
                "storage" : {
                }
            },
            "0xcccccccccccccccccccccccccccccccccccccccc" : {
                "balance" : "0x0de0b6b3a7640000",
                "code" : "0x60008060005580600155806002558060035580600455806005558060065560075500",
                "nonce" : "0x01",
                "storage" : {
                }
            }
        },
        "pre" : {
            "0xa94f5374fce5edbc8e2a8697c15331677e6ebf0b" : {
                "balance" : "0xe8d848c3a0",
                "code" : "0x",
                "nonce" : "0x01",
                "storage" : {
                }
            },
            "0xcccccccccccccccccccccccccccccccccccccccc" : {
                "balance" : "0x0de0b6b3a7640000",
                "code" : "0x60008060005580600155806002558060035580600455806005558060065560075500",
                "nonce" : "0x01",
                "storage" : {
                    "0x00" : "0x60a7",
                    "0x01" : "0x60a7",
                    "0x02" : "0x60a7",
                    "0x03" : "0x60a7",
                    "0x04" : "0x60a7",
                    "0x05" : "0x60a7",
                    "0x06" : "0x60a7",
                    "0x07" : "0x60a7"
                }
            }
        },
        "sealEngine" : "NoProof"
    },
    "refundMax_d0g0v0_London" : {
        "_info" : {
            "comment" : "Ori Pomerantz   qbzzt1@gmail.com",
            "filling-rpc-server" : "evm version 1.13.5-unstable-cd295356-20231019",
            "filling-tool-version" : "retesteth-0.3.1-cancun+commit.1e18e0b3.Linux.g++",
            "generatedTestHash" : "779ae81572833b4d7e5033307829cb0b65a604967a5be610df92af13d53b3856",
            "lllcversion" : "Version: 0.5.14-develop.2023.7.11+commit.c58ab2c6.mod.Linux.g++",
            "solidity" : "Version: 0.8.21+commit.d9974bed.Linux.g++",
            "source" : "src/GeneralStateTestsFiller/stRefundTest/refundMaxFiller.yml",
            "sourceHash" : "66b5877294022ab465184ae9d7c6f7550e979e128acf999757b7b509f63b3060"
        },
        "blocks" : [
            {
                "blockHeader" : {
                    "baseFeePerGas" : "0x03e8",
                    "bloom" : "0x00000000000000000000000000000000000000000000000000000000000000000000000000000000000000000000000000000000000000000000000000000000000000000000000000000000000000000000000000000000000000000000000000000000000000000000000000000000000000000000000000000000000000000000000000000000000000000000000000000000000000000000000000000000000000000000000000000000000000000000000000000000000000000000000000000000000000000000000000000000000000000000000000000000000000000000000000000000000000000000000000000000000000000000000000000000",
                    "coinbase" : "0x2adc25665018aa1fe0e6bc666dac8fc2697ff9ba",
                    "difficulty" : "0x020000",
                    "extraData" : "0x00",
                    "gasLimit" : "0x01000000",
                    "gasUsed" : "0xbeca",
                    "hash" : "0x630d4c20f16a77a907446968b9f6df668d2d36f755d380ed16ffcb6b375ea496",
                    "mixHash" : "0x0000000000000000000000000000000000000000000000000000000000000000",
                    "nonce" : "0x0000000000000000",
                    "number" : "0x01",
                    "parentHash" : "0xc16261f0e7f03616eabdc6a64d008a96361602598c230ed6bfd717b74bad28ee",
                    "receiptTrie" : "0xa1267dc8cb9b1eb6a801b3b02fcf24df7b3a62b8a094bdfd43a49546ee4164b8",
                    "stateRoot" : "0x1a0095e8ed30c0576fa8109caec525d4570a70a7bdc06c706e157edadff50553",
                    "timestamp" : "0x03e8",
                    "transactionsTrie" : "0x62b3433319d52e2ba1c77a1290d0416ea21b71ec7668c5af1a2e3e2020291de4",
                    "uncleHash" : "0x1dcc4de8dec75d7aab85b567b6ccd41ad312451b948a7413f0a142fd40d49347"
                },
                "rlp" : "0xf9026af901fba0c16261f0e7f03616eabdc6a64d008a96361602598c230ed6bfd717b74bad28eea01dcc4de8dec75d7aab85b567b6ccd41ad312451b948a7413f0a142fd40d49347942adc25665018aa1fe0e6bc666dac8fc2697ff9baa01a0095e8ed30c0576fa8109caec525d4570a70a7bdc06c706e157edadff50553a062b3433319d52e2ba1c77a1290d0416ea21b71ec7668c5af1a2e3e2020291de4a0a1267dc8cb9b1eb6a801b3b02fcf24df7b3a62b8a094bdfd43a49546ee4164b8b90100000000000000000000000000000000000000000000000000000000000000000000000000000000000000000000000000000000000000000000000000000000000000000000000000000000000000000000000000000000000000000000000000000000000000000000000000000000000000000000000000000000000000000000000000000000000000000000000000000000000000000000000000000000000000000000000000000000000000000000000000000000000000000000000000000000000000000000000000000000000000000000000000000000000000000000000000000000000000000000000000000000000000000000000000000000008302000001840100000082beca8203e800a000000000000000000000000000000000000000000000000000000000000000008800000000000000008203e8f869b86701f86401018203e88327b02894cccccccccccccccccccccccccccccccccccccccc8000c080a039a0a692787fa83274937107332a154b786bf2cb1f80d1f20fe49d20da6ba324a0103bb80408321d84a1db211dfc777a640db593e889d6ec52f94d8718db3935c6c0",
                "transactions" : [
                    {
                        "accessList" : [
                        ],
                        "chainId" : "0x01",
                        "data" : "0x00",
                        "gasLimit" : "0x27b028",
                        "gasPrice" : "0x03e8",
                        "nonce" : "0x01",
                        "r" : "0x39a0a692787fa83274937107332a154b786bf2cb1f80d1f20fe49d20da6ba324",
                        "s" : "0x103bb80408321d84a1db211dfc777a640db593e889d6ec52f94d8718db3935c6",
                        "sender" : "0xa94f5374fce5edbc8e2a8697c15331677e6ebf0b",
                        "to" : "0xcccccccccccccccccccccccccccccccccccccccc",
                        "type" : "0x01",
                        "v" : "0x00",
                        "value" : "0x00"
                    }
                ],
                "uncleHeaders" : [
                ]
            }
        ],
        "genesisBlockHeader" : {
            "baseFeePerGas" : "0x0476",
            "bloom" : "0x00000000000000000000000000000000000000000000000000000000000000000000000000000000000000000000000000000000000000000000000000000000000000000000000000000000000000000000000000000000000000000000000000000000000000000000000000000000000000000000000000000000000000000000000000000000000000000000000000000000000000000000000000000000000000000000000000000000000000000000000000000000000000000000000000000000000000000000000000000000000000000000000000000000000000000000000000000000000000000000000000000000000000000000000000000000",
            "coinbase" : "0x2adc25665018aa1fe0e6bc666dac8fc2697ff9ba",
            "difficulty" : "0x020000",
            "extraData" : "0x00",
            "gasLimit" : "0x01000000",
            "gasUsed" : "0x00",
            "hash" : "0xc16261f0e7f03616eabdc6a64d008a96361602598c230ed6bfd717b74bad28ee",
            "mixHash" : "0x0000000000000000000000000000000000000000000000000000000000000000",
            "nonce" : "0x0000000000000000",
            "number" : "0x00",
            "parentHash" : "0x0000000000000000000000000000000000000000000000000000000000000000",
            "receiptTrie" : "0x56e81f171bcc55a6ff8345e692c0f86e5b48e01b996cadc001622fb5e363b421",
            "stateRoot" : "0x61ac97af0195ed389dfe8d74879a281d8e62336a05c741674afe094a8cd219de",
            "timestamp" : "0x00",
            "transactionsTrie" : "0x56e81f171bcc55a6ff8345e692c0f86e5b48e01b996cadc001622fb5e363b421",
            "uncleHash" : "0x1dcc4de8dec75d7aab85b567b6ccd41ad312451b948a7413f0a142fd40d49347"
        },
        "genesisRLP" : "0xf901fcf901f7a00000000000000000000000000000000000000000000000000000000000000000a01dcc4de8dec75d7aab85b567b6ccd41ad312451b948a7413f0a142fd40d49347942adc25665018aa1fe0e6bc666dac8fc2697ff9baa061ac97af0195ed389dfe8d74879a281d8e62336a05c741674afe094a8cd219dea056e81f171bcc55a6ff8345e692c0f86e5b48e01b996cadc001622fb5e363b421a056e81f171bcc55a6ff8345e692c0f86e5b48e01b996cadc001622fb5e363b421b901000000000000000000000000000000000000000000000000000000000000000000000000000000000000000000000000000000000000000000000000000000000000000000000000000000000000000000000000000000000000000000000000000000000000000000000000000000000000000000000000000000000000000000000000000000000000000000000000000000000000000000000000000000000000000000000000000000000000000000000000000000000000000000000000000000000000000000000000000000000000000000000000000000000000000000000000000000000000000000000000000000000000000000000000000000000083020000808401000000808000a00000000000000000000000000000000000000000000000000000000000000000880000000000000000820476c0c0",
        "lastblockhash" : "0x630d4c20f16a77a907446968b9f6df668d2d36f755d380ed16ffcb6b375ea496",
        "network" : "London",
        "postState" : {
            "0x2adc25665018aa1fe0e6bc666dac8fc2697ff9ba" : {
                "balance" : "0x1bc16d674ec80000",
                "code" : "0x",
                "nonce" : "0x00",
                "storage" : {
                }
            },
            "0xa94f5374fce5edbc8e2a8697c15331677e6ebf0b" : {
                "balance" : "0xe8d55f7e90",
                "code" : "0x",
                "nonce" : "0x02",
                "storage" : {
                }
            },
            "0xcccccccccccccccccccccccccccccccccccccccc" : {
                "balance" : "0x0de0b6b3a7640000",
                "code" : "0x60008060005580600155806002558060035580600455806005558060065560075500",
                "nonce" : "0x01",
                "storage" : {
                }
            }
        },
        "pre" : {
            "0xa94f5374fce5edbc8e2a8697c15331677e6ebf0b" : {
                "balance" : "0xe8d848c3a0",
                "code" : "0x",
                "nonce" : "0x01",
                "storage" : {
                }
            },
            "0xcccccccccccccccccccccccccccccccccccccccc" : {
                "balance" : "0x0de0b6b3a7640000",
                "code" : "0x60008060005580600155806002558060035580600455806005558060065560075500",
                "nonce" : "0x01",
                "storage" : {
                    "0x00" : "0x60a7",
                    "0x01" : "0x60a7",
                    "0x02" : "0x60a7",
                    "0x03" : "0x60a7",
                    "0x04" : "0x60a7",
                    "0x05" : "0x60a7",
                    "0x06" : "0x60a7",
                    "0x07" : "0x60a7"
                }
            }
        },
        "sealEngine" : "NoProof"
    },
    "refundMax_d0g0v0_Merge" : {
        "_info" : {
            "comment" : "Ori Pomerantz   qbzzt1@gmail.com",
            "filling-rpc-server" : "evm version 1.13.5-unstable-cd295356-20231019",
            "filling-tool-version" : "retesteth-0.3.1-cancun+commit.1e18e0b3.Linux.g++",
            "generatedTestHash" : "151825d649a96594e30cea2161bf02267bc270db97e1885d953cbc8087d731ed",
            "lllcversion" : "Version: 0.5.14-develop.2023.7.11+commit.c58ab2c6.mod.Linux.g++",
            "solidity" : "Version: 0.8.21+commit.d9974bed.Linux.g++",
            "source" : "src/GeneralStateTestsFiller/stRefundTest/refundMaxFiller.yml",
            "sourceHash" : "66b5877294022ab465184ae9d7c6f7550e979e128acf999757b7b509f63b3060"
        },
        "blocks" : [
            {
                "blockHeader" : {
                    "baseFeePerGas" : "0x03e8",
                    "bloom" : "0x00000000000000000000000000000000000000000000000000000000000000000000000000000000000000000000000000000000000000000000000000000000000000000000000000000000000000000000000000000000000000000000000000000000000000000000000000000000000000000000000000000000000000000000000000000000000000000000000000000000000000000000000000000000000000000000000000000000000000000000000000000000000000000000000000000000000000000000000000000000000000000000000000000000000000000000000000000000000000000000000000000000000000000000000000000000",
                    "coinbase" : "0x2adc25665018aa1fe0e6bc666dac8fc2697ff9ba",
                    "difficulty" : "0x00",
                    "extraData" : "0x00",
                    "gasLimit" : "0x01000000",
                    "gasUsed" : "0xbeca",
                    "hash" : "0x0396a8049cbcad69f691495e4080a39e1ac9a1dc15f351ccdd093e00b0bf425a",
                    "mixHash" : "0x0000000000000000000000000000000000000000000000000000000000020000",
                    "nonce" : "0x0000000000000000",
                    "number" : "0x01",
                    "parentHash" : "0x11106a7df2a1861c9233db241c214151142217822055bc0adedd82a2224e6e25",
                    "receiptTrie" : "0xa1267dc8cb9b1eb6a801b3b02fcf24df7b3a62b8a094bdfd43a49546ee4164b8",
                    "stateRoot" : "0xe0e9302d0053856708ae59a3f52293cb4a5f6127bb325abee3395434be22d121",
                    "timestamp" : "0x03e8",
                    "transactionsTrie" : "0x62b3433319d52e2ba1c77a1290d0416ea21b71ec7668c5af1a2e3e2020291de4",
                    "uncleHash" : "0x1dcc4de8dec75d7aab85b567b6ccd41ad312451b948a7413f0a142fd40d49347"
                },
                "rlp" : "0xf90267f901f8a011106a7df2a1861c9233db241c214151142217822055bc0adedd82a2224e6e25a01dcc4de8dec75d7aab85b567b6ccd41ad312451b948a7413f0a142fd40d49347942adc25665018aa1fe0e6bc666dac8fc2697ff9baa0e0e9302d0053856708ae59a3f52293cb4a5f6127bb325abee3395434be22d121a062b3433319d52e2ba1c77a1290d0416ea21b71ec7668c5af1a2e3e2020291de4a0a1267dc8cb9b1eb6a801b3b02fcf24df7b3a62b8a094bdfd43a49546ee4164b8b90100000000000000000000000000000000000000000000000000000000000000000000000000000000000000000000000000000000000000000000000000000000000000000000000000000000000000000000000000000000000000000000000000000000000000000000000000000000000000000000000000000000000000000000000000000000000000000000000000000000000000000000000000000000000000000000000000000000000000000000000000000000000000000000000000000000000000000000000000000000000000000000000000000000000000000000000000000000000000000000000000000000000000000000000000000000008001840100000082beca8203e800a000000000000000000000000000000000000000000000000000000000000200008800000000000000008203e8f869b86701f86401018203e88327b02894cccccccccccccccccccccccccccccccccccccccc8000c080a039a0a692787fa83274937107332a154b786bf2cb1f80d1f20fe49d20da6ba324a0103bb80408321d84a1db211dfc777a640db593e889d6ec52f94d8718db3935c6c0",
                "transactions" : [
                    {
                        "accessList" : [
                        ],
                        "chainId" : "0x01",
                        "data" : "0x00",
                        "gasLimit" : "0x27b028",
                        "gasPrice" : "0x03e8",
                        "nonce" : "0x01",
                        "r" : "0x39a0a692787fa83274937107332a154b786bf2cb1f80d1f20fe49d20da6ba324",
                        "s" : "0x103bb80408321d84a1db211dfc777a640db593e889d6ec52f94d8718db3935c6",
                        "sender" : "0xa94f5374fce5edbc8e2a8697c15331677e6ebf0b",
                        "to" : "0xcccccccccccccccccccccccccccccccccccccccc",
                        "type" : "0x01",
                        "v" : "0x00",
                        "value" : "0x00"
                    }
                ],
                "uncleHeaders" : [
                ]
            }
        ],
        "genesisBlockHeader" : {
            "baseFeePerGas" : "0x0476",
            "bloom" : "0x00000000000000000000000000000000000000000000000000000000000000000000000000000000000000000000000000000000000000000000000000000000000000000000000000000000000000000000000000000000000000000000000000000000000000000000000000000000000000000000000000000000000000000000000000000000000000000000000000000000000000000000000000000000000000000000000000000000000000000000000000000000000000000000000000000000000000000000000000000000000000000000000000000000000000000000000000000000000000000000000000000000000000000000000000000000",
            "coinbase" : "0x2adc25665018aa1fe0e6bc666dac8fc2697ff9ba",
            "difficulty" : "0x00",
            "extraData" : "0x00",
            "gasLimit" : "0x01000000",
            "gasUsed" : "0x00",
            "hash" : "0x11106a7df2a1861c9233db241c214151142217822055bc0adedd82a2224e6e25",
            "mixHash" : "0x0000000000000000000000000000000000000000000000000000000000020000",
            "nonce" : "0x0000000000000000",
            "number" : "0x00",
            "parentHash" : "0x0000000000000000000000000000000000000000000000000000000000000000",
            "receiptTrie" : "0x56e81f171bcc55a6ff8345e692c0f86e5b48e01b996cadc001622fb5e363b421",
            "stateRoot" : "0x61ac97af0195ed389dfe8d74879a281d8e62336a05c741674afe094a8cd219de",
            "timestamp" : "0x00",
            "transactionsTrie" : "0x56e81f171bcc55a6ff8345e692c0f86e5b48e01b996cadc001622fb5e363b421",
            "uncleHash" : "0x1dcc4de8dec75d7aab85b567b6ccd41ad312451b948a7413f0a142fd40d49347"
        },
        "genesisRLP" : "0xf901f9f901f4a00000000000000000000000000000000000000000000000000000000000000000a01dcc4de8dec75d7aab85b567b6ccd41ad312451b948a7413f0a142fd40d49347942adc25665018aa1fe0e6bc666dac8fc2697ff9baa061ac97af0195ed389dfe8d74879a281d8e62336a05c741674afe094a8cd219dea056e81f171bcc55a6ff8345e692c0f86e5b48e01b996cadc001622fb5e363b421a056e81f171bcc55a6ff8345e692c0f86e5b48e01b996cadc001622fb5e363b421b901000000000000000000000000000000000000000000000000000000000000000000000000000000000000000000000000000000000000000000000000000000000000000000000000000000000000000000000000000000000000000000000000000000000000000000000000000000000000000000000000000000000000000000000000000000000000000000000000000000000000000000000000000000000000000000000000000000000000000000000000000000000000000000000000000000000000000000000000000000000000000000000000000000000000000000000000000000000000000000000000000000000000000000000000000000000080808401000000808000a00000000000000000000000000000000000000000000000000000000000020000880000000000000000820476c0c0",
        "lastblockhash" : "0x0396a8049cbcad69f691495e4080a39e1ac9a1dc15f351ccdd093e00b0bf425a",
        "network" : "Merge",
        "postState" : {
            "0xa94f5374fce5edbc8e2a8697c15331677e6ebf0b" : {
                "balance" : "0xe8d55f7e90",
                "code" : "0x",
                "nonce" : "0x02",
                "storage" : {
                }
            },
            "0xcccccccccccccccccccccccccccccccccccccccc" : {
                "balance" : "0x0de0b6b3a7640000",
                "code" : "0x60008060005580600155806002558060035580600455806005558060065560075500",
                "nonce" : "0x01",
                "storage" : {
                }
            }
        },
        "pre" : {
            "0xa94f5374fce5edbc8e2a8697c15331677e6ebf0b" : {
                "balance" : "0xe8d848c3a0",
                "code" : "0x",
                "nonce" : "0x01",
                "storage" : {
                }
            },
            "0xcccccccccccccccccccccccccccccccccccccccc" : {
                "balance" : "0x0de0b6b3a7640000",
                "code" : "0x60008060005580600155806002558060035580600455806005558060065560075500",
                "nonce" : "0x01",
                "storage" : {
                    "0x00" : "0x60a7",
                    "0x01" : "0x60a7",
                    "0x02" : "0x60a7",
                    "0x03" : "0x60a7",
                    "0x04" : "0x60a7",
                    "0x05" : "0x60a7",
                    "0x06" : "0x60a7",
                    "0x07" : "0x60a7"
                }
            }
        },
        "sealEngine" : "NoProof"
    },
    "refundMax_d0g0v0_Shanghai" : {
        "_info" : {
            "comment" : "Ori Pomerantz   qbzzt1@gmail.com",
            "filling-rpc-server" : "evm version 1.13.5-unstable-cd295356-20231019",
            "filling-tool-version" : "retesteth-0.3.1-cancun+commit.1e18e0b3.Linux.g++",
            "generatedTestHash" : "4e45df988828c3c398f3e7b99f10afdbf25ae85bd40f83838c09569865e27757",
            "lllcversion" : "Version: 0.5.14-develop.2023.7.11+commit.c58ab2c6.mod.Linux.g++",
            "solidity" : "Version: 0.8.21+commit.d9974bed.Linux.g++",
            "source" : "src/GeneralStateTestsFiller/stRefundTest/refundMaxFiller.yml",
            "sourceHash" : "66b5877294022ab465184ae9d7c6f7550e979e128acf999757b7b509f63b3060"
        },
        "blocks" : [
            {
                "blockHeader" : {
                    "baseFeePerGas" : "0x03e8",
                    "bloom" : "0x00000000000000000000000000000000000000000000000000000000000000000000000000000000000000000000000000000000000000000000000000000000000000000000000000000000000000000000000000000000000000000000000000000000000000000000000000000000000000000000000000000000000000000000000000000000000000000000000000000000000000000000000000000000000000000000000000000000000000000000000000000000000000000000000000000000000000000000000000000000000000000000000000000000000000000000000000000000000000000000000000000000000000000000000000000000",
                    "coinbase" : "0x2adc25665018aa1fe0e6bc666dac8fc2697ff9ba",
                    "difficulty" : "0x00",
                    "extraData" : "0x00",
                    "gasLimit" : "0x01000000",
                    "gasUsed" : "0xbeca",
                    "hash" : "0x7e4d06d30d70e30e49e7038e8d087aef6a48ff29b76590dd6754b30634f6f35f",
                    "mixHash" : "0x0000000000000000000000000000000000000000000000000000000000020000",
                    "nonce" : "0x0000000000000000",
                    "number" : "0x01",
                    "parentHash" : "0xa1953d9becb4129bfa353911f1c6bce369959418219679d6bfee39020d6c05ce",
                    "receiptTrie" : "0xa1267dc8cb9b1eb6a801b3b02fcf24df7b3a62b8a094bdfd43a49546ee4164b8",
                    "stateRoot" : "0xe0e9302d0053856708ae59a3f52293cb4a5f6127bb325abee3395434be22d121",
                    "timestamp" : "0x03e8",
                    "transactionsTrie" : "0x62b3433319d52e2ba1c77a1290d0416ea21b71ec7668c5af1a2e3e2020291de4",
                    "uncleHash" : "0x1dcc4de8dec75d7aab85b567b6ccd41ad312451b948a7413f0a142fd40d49347",
                    "withdrawalsRoot" : "0x56e81f171bcc55a6ff8345e692c0f86e5b48e01b996cadc001622fb5e363b421"
                },
                "rlp" : "0xf90289f90219a0a1953d9becb4129bfa353911f1c6bce369959418219679d6bfee39020d6c05cea01dcc4de8dec75d7aab85b567b6ccd41ad312451b948a7413f0a142fd40d49347942adc25665018aa1fe0e6bc666dac8fc2697ff9baa0e0e9302d0053856708ae59a3f52293cb4a5f6127bb325abee3395434be22d121a062b3433319d52e2ba1c77a1290d0416ea21b71ec7668c5af1a2e3e2020291de4a0a1267dc8cb9b1eb6a801b3b02fcf24df7b3a62b8a094bdfd43a49546ee4164b8b90100000000000000000000000000000000000000000000000000000000000000000000000000000000000000000000000000000000000000000000000000000000000000000000000000000000000000000000000000000000000000000000000000000000000000000000000000000000000000000000000000000000000000000000000000000000000000000000000000000000000000000000000000000000000000000000000000000000000000000000000000000000000000000000000000000000000000000000000000000000000000000000000000000000000000000000000000000000000000000000000000000000000000000000000000000000008001840100000082beca8203e800a000000000000000000000000000000000000000000000000000000000000200008800000000000000008203e8a056e81f171bcc55a6ff8345e692c0f86e5b48e01b996cadc001622fb5e363b421f869b86701f86401018203e88327b02894cccccccccccccccccccccccccccccccccccccccc8000c080a039a0a692787fa83274937107332a154b786bf2cb1f80d1f20fe49d20da6ba324a0103bb80408321d84a1db211dfc777a640db593e889d6ec52f94d8718db3935c6c0c0",
                "transactions" : [
                    {
                        "accessList" : [
                        ],
                        "chainId" : "0x01",
                        "data" : "0x00",
                        "gasLimit" : "0x27b028",
                        "gasPrice" : "0x03e8",
                        "nonce" : "0x01",
                        "r" : "0x39a0a692787fa83274937107332a154b786bf2cb1f80d1f20fe49d20da6ba324",
                        "s" : "0x103bb80408321d84a1db211dfc777a640db593e889d6ec52f94d8718db3935c6",
                        "sender" : "0xa94f5374fce5edbc8e2a8697c15331677e6ebf0b",
                        "to" : "0xcccccccccccccccccccccccccccccccccccccccc",
                        "type" : "0x01",
                        "v" : "0x00",
                        "value" : "0x00"
                    }
                ],
                "uncleHeaders" : [
                ],
                "withdrawals" : [
                ]
            }
        ],
        "genesisBlockHeader" : {
            "baseFeePerGas" : "0x0476",
            "bloom" : "0x00000000000000000000000000000000000000000000000000000000000000000000000000000000000000000000000000000000000000000000000000000000000000000000000000000000000000000000000000000000000000000000000000000000000000000000000000000000000000000000000000000000000000000000000000000000000000000000000000000000000000000000000000000000000000000000000000000000000000000000000000000000000000000000000000000000000000000000000000000000000000000000000000000000000000000000000000000000000000000000000000000000000000000000000000000000",
            "coinbase" : "0x2adc25665018aa1fe0e6bc666dac8fc2697ff9ba",
            "difficulty" : "0x00",
            "extraData" : "0x00",
            "gasLimit" : "0x01000000",
            "gasUsed" : "0x00",
            "hash" : "0xa1953d9becb4129bfa353911f1c6bce369959418219679d6bfee39020d6c05ce",
            "mixHash" : "0x0000000000000000000000000000000000000000000000000000000000020000",
            "nonce" : "0x0000000000000000",
            "number" : "0x00",
            "parentHash" : "0x0000000000000000000000000000000000000000000000000000000000000000",
            "receiptTrie" : "0x56e81f171bcc55a6ff8345e692c0f86e5b48e01b996cadc001622fb5e363b421",
            "stateRoot" : "0x61ac97af0195ed389dfe8d74879a281d8e62336a05c741674afe094a8cd219de",
            "timestamp" : "0x00",
            "transactionsTrie" : "0x56e81f171bcc55a6ff8345e692c0f86e5b48e01b996cadc001622fb5e363b421",
            "uncleHash" : "0x1dcc4de8dec75d7aab85b567b6ccd41ad312451b948a7413f0a142fd40d49347",
            "withdrawalsRoot" : "0x56e81f171bcc55a6ff8345e692c0f86e5b48e01b996cadc001622fb5e363b421"
        },
        "genesisRLP" : "0xf9021bf90215a00000000000000000000000000000000000000000000000000000000000000000a01dcc4de8dec75d7aab85b567b6ccd41ad312451b948a7413f0a142fd40d49347942adc25665018aa1fe0e6bc666dac8fc2697ff9baa061ac97af0195ed389dfe8d74879a281d8e62336a05c741674afe094a8cd219dea056e81f171bcc55a6ff8345e692c0f86e5b48e01b996cadc001622fb5e363b421a056e81f171bcc55a6ff8345e692c0f86e5b48e01b996cadc001622fb5e363b421b901000000000000000000000000000000000000000000000000000000000000000000000000000000000000000000000000000000000000000000000000000000000000000000000000000000000000000000000000000000000000000000000000000000000000000000000000000000000000000000000000000000000000000000000000000000000000000000000000000000000000000000000000000000000000000000000000000000000000000000000000000000000000000000000000000000000000000000000000000000000000000000000000000000000000000000000000000000000000000000000000000000000000000000000000000000000080808401000000808000a00000000000000000000000000000000000000000000000000000000000020000880000000000000000820476a056e81f171bcc55a6ff8345e692c0f86e5b48e01b996cadc001622fb5e363b421c0c0c0",
        "lastblockhash" : "0x7e4d06d30d70e30e49e7038e8d087aef6a48ff29b76590dd6754b30634f6f35f",
        "network" : "Shanghai",
        "postState" : {
            "0xa94f5374fce5edbc8e2a8697c15331677e6ebf0b" : {
                "balance" : "0xe8d55f7e90",
                "code" : "0x",
                "nonce" : "0x02",
                "storage" : {
                }
            },
            "0xcccccccccccccccccccccccccccccccccccccccc" : {
                "balance" : "0x0de0b6b3a7640000",
                "code" : "0x60008060005580600155806002558060035580600455806005558060065560075500",
                "nonce" : "0x01",
                "storage" : {
                }
            }
        },
        "pre" : {
            "0xa94f5374fce5edbc8e2a8697c15331677e6ebf0b" : {
                "balance" : "0xe8d848c3a0",
                "code" : "0x",
                "nonce" : "0x01",
                "storage" : {
                }
            },
            "0xcccccccccccccccccccccccccccccccccccccccc" : {
                "balance" : "0x0de0b6b3a7640000",
                "code" : "0x60008060005580600155806002558060035580600455806005558060065560075500",
                "nonce" : "0x01",
                "storage" : {
                    "0x00" : "0x60a7",
                    "0x01" : "0x60a7",
                    "0x02" : "0x60a7",
                    "0x03" : "0x60a7",
                    "0x04" : "0x60a7",
                    "0x05" : "0x60a7",
                    "0x06" : "0x60a7",
                    "0x07" : "0x60a7"
                }
            }
        },
        "sealEngine" : "NoProof"
    }
}