{
    "createContractViaContractOOGInitCode" : {
        "_info" : {
            "comment" : "",
            "filling-rpc-server" : "evm version 1.11.4-unstable-e14043db-20230308",
            "filling-tool-version" : "retesteth-0.3.0-shanghai+commit.fd2c0a83.Linux.g++",
            "generatedTestHash" : "304a8b5961d897eef71471f54e1efb61226aa05afe2dcb8c84f47eb2c366c30a",
            "lllcversion" : "Version: 0.5.14-develop.2022.7.30+commit.a096d7a9.Linux.g++",
            "solidity" : "Version: 0.8.17+commit.8df45f5f.Linux.g++",
            "source" : "src/GeneralStateTestsFiller/stHomesteadSpecific/createContractViaContractOOGInitCodeFiller.json",
            "sourceHash" : "cabc31f7abf0c74525da181596325cc465fd678d2f35016d54483d4a55fa5f19"
        },
        "env" : {
            "currentBaseFee" : "0x0a",
            "currentCoinbase" : "0x2adc25665018aa1fe0e6bc666dac8fc2697ff9ba",
            "currentDifficulty" : "0x020000",
            "currentGasLimit" : "0x0f4240",
            "currentNumber" : "0x01",
            "currentRandom" : "0x0000000000000000000000000000000000000000000000000000000000020000",
            "currentTimestamp" : "0x03e8",
            "previousHash" : "0x5e20a0453cecd065ea59c37ac63e079ee08998b6045136a8ce6635c7912ec0b6"
        },
        "post" : {
            "Berlin" : [
                {
                    "hash" : "0x79a730a1bc61d0f78b19cf551ef82b6005145670629002d8763a4b9cb3cb9608",
                    "indexes" : {
                        "data" : 0,
                        "gas" : 0,
                        "value" : 0
                    },
                    "logs" : "0x1dcc4de8dec75d7aab85b567b6ccd41ad312451b948a7413f0a142fd40d49347",
                    "txbytes" : "0xf860800a83019a5494100000000000000000000000000000000000000180801ca0396b3fa38957d7ca6948fd8a05a73a402588cee2fc9591e85fe94c8198108a62a0506129aae98dcc2bf75a47be6a860a2814bc0064591796d2cb33fdf87ceae542"
                }
            ],
            "Istanbul" : [
                {
                    "hash" : "0x79a730a1bc61d0f78b19cf551ef82b6005145670629002d8763a4b9cb3cb9608",
                    "indexes" : {
                        "data" : 0,
                        "gas" : 0,
                        "value" : 0
                    },
                    "logs" : "0x1dcc4de8dec75d7aab85b567b6ccd41ad312451b948a7413f0a142fd40d49347",
                    "txbytes" : "0xf860800a83019a5494100000000000000000000000000000000000000180801ca0396b3fa38957d7ca6948fd8a05a73a402588cee2fc9591e85fe94c8198108a62a0506129aae98dcc2bf75a47be6a860a2814bc0064591796d2cb33fdf87ceae542"
                }
            ],
            "London" : [
                {
                    "hash" : "0x94955366c9351a55fe120aad4cb3f18a5c797edae49608544e49e3c410f1cd41",
                    "indexes" : {
                        "data" : 0,
                        "gas" : 0,
                        "value" : 0
                    },
                    "logs" : "0x1dcc4de8dec75d7aab85b567b6ccd41ad312451b948a7413f0a142fd40d49347",
                    "txbytes" : "0xf860800a83019a5494100000000000000000000000000000000000000180801ca0396b3fa38957d7ca6948fd8a05a73a402588cee2fc9591e85fe94c8198108a62a0506129aae98dcc2bf75a47be6a860a2814bc0064591796d2cb33fdf87ceae542"
                }
            ],
            "Merge" : [
                {
                    "hash" : "0x94955366c9351a55fe120aad4cb3f18a5c797edae49608544e49e3c410f1cd41",
                    "indexes" : {
                        "data" : 0,
                        "gas" : 0,
                        "value" : 0
                    },
                    "logs" : "0x1dcc4de8dec75d7aab85b567b6ccd41ad312451b948a7413f0a142fd40d49347",
                    "txbytes" : "0xf860800a83019a5494100000000000000000000000000000000000000180801ca0396b3fa38957d7ca6948fd8a05a73a402588cee2fc9591e85fe94c8198108a62a0506129aae98dcc2bf75a47be6a860a2814bc0064591796d2cb33fdf87ceae542"
                }
            ],
            "Shanghai" : [
                {
                    "hash" : "0x94955366c9351a55fe120aad4cb3f18a5c797edae49608544e49e3c410f1cd41",
                    "indexes" : {
                        "data" : 0,
                        "gas" : 0,
                        "value" : 0
                    },
                    "logs" : "0x1dcc4de8dec75d7aab85b567b6ccd41ad312451b948a7413f0a142fd40d49347",
                    "txbytes" : "0xf860800a83019a5494100000000000000000000000000000000000000180801ca0396b3fa38957d7ca6948fd8a05a73a402588cee2fc9591e85fe94c8198108a62a0506129aae98dcc2bf75a47be6a860a2814bc0064591796d2cb33fdf87ceae542"
                }
            ]
        },
        "pre" : {
            "0x1000000000000000000000000000000000000001" : {
                "balance" : "0x00",
                "code" : "0x6b602060406000f0600c600055600052600c60146000f000",
                "nonce" : "0x00",
                "storage" : {
                }
            },
            "0xa94f5374fce5edbc8e2a8697c15331677e6ebf0b" : {
                "balance" : "0x10c8e0",
                "code" : "0x",
                "nonce" : "0x00",
                "storage" : {
                }
            }
        },
        "transaction" : {
            "data" : [
                "0x"
            ],
            "gasLimit" : [
                "0x019a54"
            ],
            "gasPrice" : "0x0a",
            "nonce" : "0x00",
            "secretKey" : "0x45a915e4d060149eb4365960e6a7a45f334393093061116b197e3240065ff2d8",
            "sender" : "0xa94f5374fce5edbc8e2a8697c15331677e6ebf0b",
            "to" : "0x1000000000000000000000000000000000000001",
            "value" : [
                "0x00"
            ]
        }
    }
}