{
    "shouldErrorWhenExecuteBeginSub_d0g0v0_Berlin" : {
        "_info" : {
            "comment" : "",
            "filling-rpc-server" : "besu/v1.4.6/osx-x86_64/adoptopenjdk-java-13",
            "filling-tool-version" : "retesteth-0.0.2+commit.e8018889.Darwin.appleclang",
            "lllcversion" : "Version: 0.5.14-develop.2020.5.29+commit.dc43d470.mod.Darwin.appleclang",
            "source" : "src/GeneralStateTestsFiller/stSubroutine/shouldErrorWhenExecuteBeginSubFiller.json",
            "sourceHash" : "3498302de4badab4be5a7a873ad9a4e78f8752a78b4d2efa9a16108e726b71ef"
        },
        "genesisBlockHeader" : {
            "bloom" : "0x00000000000000000000000000000000000000000000000000000000000000000000000000000000000000000000000000000000000000000000000000000000000000000000000000000000000000000000000000000000000000000000000000000000000000000000000000000000000000000000000000000000000000000000000000000000000000000000000000000000000000000000000000000000000000000000000000000000000000000000000000000000000000000000000000000000000000000000000000000000000000000000000000000000000000000000000000000000000000000000000000000000000000000000000000000000",
            "coinbase" : "0x2adc25665018aa1fe0e6bc666dac8fc2697ff9ba",
            "difficulty" : "0x020000",
            "extraData" : "0x00",
            "gasLimit" : "0x7fffffffffffffff",
            "gasUsed" : "0x00",
            "hash" : "0x6ad157e88d5dd66a0b4de0800b02049957c40695e0fc05c3c368274fae2b3133",
            "mixHash" : "0x0000000000000000000000000000000000000000000000000000000000000000",
            "nonce" : "0x0000000000000000",
            "number" : "0x00",
            "parentHash" : "0x0000000000000000000000000000000000000000000000000000000000000000",
            "receiptTrie" : "0x56e81f171bcc55a6ff8345e692c0f86e5b48e01b996cadc001622fb5e363b421",
            "stateRoot" : "0x4e9b297c1e1559de8926b26584176186a257aa385053b7cbd78f679c9b02a45a",
            "timestamp" : "0x00",
            "transactionsTrie" : "0x56e81f171bcc55a6ff8345e692c0f86e5b48e01b996cadc001622fb5e363b421",
            "uncleHash" : "0x1dcc4de8dec75d7aab85b567b6ccd41ad312451b948a7413f0a142fd40d49347"
        },
        "pre" : {
            "0x1000000000000000000000000000000000000000" : {
                "balance" : "0x0de0b6b3a7640000",
                "code" : "0x6104005c",
                "nonce" : "0x00",
                "storage" : {
                }
            },
            "0xa94f5374fce5edbc8e2a8697c15331677e6ebf0b" : {
                "balance" : "0x0fffffffffffffffffffffffffffffffffffffffff",
                "code" : "0x",
                "nonce" : "0x00",
                "storage" : {
                }
            }
        },
        "postState" : {
            "0xa94f5374fce5edbc8e2a8697c15331677e6ebf0b" : {
                "code" : "0x",
                "nonce" : "0x01",
                "balance" : "0x0fffffffffffffffffffffffffffffffffff00000d",
                "storage" : {
                }
            },
            "0x2adc25665018aa1fe0e6bc666dac8fc2697ff9ba" : {
                "code" : "0x",
                "nonce" : "0x00",
                "balance" : "0x1bc16d674fc7fff2",
                "storage" : {
                }
            },
            "0x1000000000000000000000000000000000000000" : {
                "code" : "0x6104005c",
                "nonce" : "0x00",
                "balance" : "0x0de0b6b3a7640000",
                "storage" : {
                }
            }
        },
        "network" : "Berlin",
        "sealEngine" : "NoProof",
        "lastblockhash" : "0xb7e0609891d2a7440f9daad59d059ddebd96ab76f5ba4806685f7b6b72ffce34",
        "genesisRLP" : "0xf901fdf901f8a00000000000000000000000000000000000000000000000000000000000000000a01dcc4de8dec75d7aab85b567b6ccd41ad312451b948a7413f0a142fd40d49347942adc25665018aa1fe0e6bc666dac8fc2697ff9baa04e9b297c1e1559de8926b26584176186a257aa385053b7cbd78f679c9b02a45aa056e81f171bcc55a6ff8345e692c0f86e5b48e01b996cadc001622fb5e363b421a056e81f171bcc55a6ff8345e692c0f86e5b48e01b996cadc001622fb5e363b421b90100000000000000000000000000000000000000000000000000000000000000000000000000000000000000000000000000000000000000000000000000000000000000000000000000000000000000000000000000000000000000000000000000000000000000000000000000000000000000000000000000000000000000000000000000000000000000000000000000000000000000000000000000000000000000000000000000000000000000000000000000000000000000000000000000000000000000000000000000000000000000000000000000000000000000000000000000000000000000000000000000000000000000000000000000000000008302000080887fffffffffffffff808000a00000000000000000000000000000000000000000000000000000000000000000880000000000000000c0c0",
        "blocks" : [
            {
                "rlp" : "0xf90265f901fda06ad157e88d5dd66a0b4de0800b02049957c40695e0fc05c3c368274fae2b3133a01dcc4de8dec75d7aab85b567b6ccd41ad312451b948a7413f0a142fd40d49347942adc25665018aa1fe0e6bc666dac8fc2697ff9baa02717ec20f816fa3dbc586b6a424c7c840e0dbb636c6d955b068100b558926ba3a0b86351ce31ef677b4e79e136df7c70b112a57f716ad14a0fd1b1b8bfa7642a52a0eea6e11081825ff91d5fa1bc7ba4cb4bbde803f37d907064ee0e3d93bb7fabb2b90100000000000000000000000000000000000000000000000000000000000000000000000000000000000000000000000000000000000000000000000000000000000000000000000000000000000000000000000000000000000000000000000000000000000000000000000000000000000000000000000000000000000000000000000000000000000000000000000000000000000000000000000000000000000000000000000000000000000000000000000000000000000000000000000000000000000000000000000000000000000000000000000000000000000000000000000000000000000000000000000000000000000000000000000000000000008302000001887fffffffffffffff83fffff28203e800a00000000000000000000000000000000000000000000000000000000000000000880000000000000000f862f860800183fffff294100000000000000000000000000000000000000080801ba00b21a9ad27313b9653967f1c6c9efc9a6d5d593005799cacbb1c0c3c841cbd01a02d9710b98d8d298b7c66bf0cb06190a6c0ecc9bce13a2c4d832495e60d1dfd4dc0",
                "blockHeader" : {
                    "bloom" : "0x00000000000000000000000000000000000000000000000000000000000000000000000000000000000000000000000000000000000000000000000000000000000000000000000000000000000000000000000000000000000000000000000000000000000000000000000000000000000000000000000000000000000000000000000000000000000000000000000000000000000000000000000000000000000000000000000000000000000000000000000000000000000000000000000000000000000000000000000000000000000000000000000000000000000000000000000000000000000000000000000000000000000000000000000000000000",
                    "coinbase" : "0x2adc25665018aa1fe0e6bc666dac8fc2697ff9ba",
                    "difficulty" : "0x020000",
                    "extraData" : "0x00",
                    "gasLimit" : "0x7fffffffffffffff",
                    "gasUsed" : "0xfffff2",
                    "hash" : "0xb7e0609891d2a7440f9daad59d059ddebd96ab76f5ba4806685f7b6b72ffce34",
                    "mixHash" : "0x0000000000000000000000000000000000000000000000000000000000000000",
                    "nonce" : "0x0000000000000000",
                    "number" : "0x01",
                    "parentHash" : "0x6ad157e88d5dd66a0b4de0800b02049957c40695e0fc05c3c368274fae2b3133",
                    "receiptTrie" : "0xeea6e11081825ff91d5fa1bc7ba4cb4bbde803f37d907064ee0e3d93bb7fabb2",
                    "stateRoot" : "0x2717ec20f816fa3dbc586b6a424c7c840e0dbb636c6d955b068100b558926ba3",
                    "timestamp" : "0x03e8",
                    "transactionsTrie" : "0xb86351ce31ef677b4e79e136df7c70b112a57f716ad14a0fd1b1b8bfa7642a52",
                    "uncleHash" : "0x1dcc4de8dec75d7aab85b567b6ccd41ad312451b948a7413f0a142fd40d49347"
                },
                "transactions" : [
                    {
                        "data" : "0x",
                        "gasLimit" : "0xfffff2",
                        "gasPrice" : "0x01",
                        "nonce" : "0x00",
                        "to" : "0x1000000000000000000000000000000000000000",
                        "value" : "0x00",
                        "v" : "0x1b",
                        "r" : "0x0b21a9ad27313b9653967f1c6c9efc9a6d5d593005799cacbb1c0c3c841cbd01",
                        "s" : "0x2d9710b98d8d298b7c66bf0cb06190a6c0ecc9bce13a2c4d832495e60d1dfd4d"
                    }
                ]
            }
        ]
    }
}