{
    "shouldSucceedWhenReturnStackGrowsUntil1023_d0g0v0_Berlin" : {
        "_info" : {
            "comment" : "",
            "filling-rpc-server" : "besu/v1.4.5/osx-x86_64/adoptopenjdk-java-13",
            "filling-tool-version" : "retesteth-0.0.2+commit.e8018889.Darwin.appleclang",
            "lllcversion" : "Version: 0.5.14-develop.2020.4.27+commit.8f259595.Darwin.appleclang",
            "source" : "src/GeneralStateTestsFiller/stSubroutine/shouldSucceedWhenReturnStackGrowsUntil1023Filler.json",
            "sourceHash" : "eee72171f7979b566533346f71f1b2bc267126cfbe359a0f113cbe12ca76325b"
        },
        "genesisBlockHeader" : {
            "bloom" : "0x00000000000000000000000000000000000000000000000000000000000000000000000000000000000000000000000000000000000000000000000000000000000000000000000000000000000000000000000000000000000000000000000000000000000000000000000000000000000000000000000000000000000000000000000000000000000000000000000000000000000000000000000000000000000000000000000000000000000000000000000000000000000000000000000000000000000000000000000000000000000000000000000000000000000000000000000000000000000000000000000000000000000000000000000000000000",
            "coinbase" : "0x2adc25665018aa1fe0e6bc666dac8fc2697ff9ba",
            "difficulty" : "0x020000",
            "extraData" : "0x00",
            "gasLimit" : "0x7fffffffffffffff",
            "gasUsed" : "0x00",
            "hash" : "0x391bce61b13c2ca28bb56b0753533b4a6339b3f9e6b09b59c1ed6a6af2ca3a99",
            "mixHash" : "0x0000000000000000000000000000000000000000000000000000000000000000",
            "nonce" : "0x0000000000000000",
            "number" : "0x00",
            "parentHash" : "0x0000000000000000000000000000000000000000000000000000000000000000",
            "receiptTrie" : "0x56e81f171bcc55a6ff8345e692c0f86e5b48e01b996cadc001622fb5e363b421",
            "stateRoot" : "0xb21773db6d9334cc65884c2df045de05dc05dbd3bb3fe7f33be657e64343a942",
            "timestamp" : "0x00",
            "transactionsTrie" : "0x56e81f171bcc55a6ff8345e692c0f86e5b48e01b996cadc001622fb5e363b421",
            "uncleHash" : "0x1dcc4de8dec75d7aab85b567b6ccd41ad312451b948a7413f0a142fd40d49347"
        },
        "pre" : {
            "0x1000000000000000000000000000000000000000" : {
                "balance" : "0x0de0b6b3a7640000",
                "code" : "0x6003b3b2600160315403603155603154601457005B6003b3",
                "nonce" : "0x00",
                "storage" : {
                    "0x31" : "0x03ff"
                }
            },
            "0xa94f5374fce5edbc8e2a8697c15331677e6ebf0b" : {
                "balance" : "0x0fffffffffffffffffffffffffffffffffffffffff",
                "code" : "0x",
                "nonce" : "0x00",
                "storage" : {
                }
            }
        },
        "postState" : {
            "0xa94f5374fce5edbc8e2a8697c15331677e6ebf0b" : {
                "code" : "0x",
                "nonce" : "0x01",
                "balance" : "0x0fffffffffffffffffffffffffffffffffffd9bdb1",
                "storage" : {
                }
            },
            "0x2adc25665018aa1fe0e6bc666dac8fc2697ff9ba" : {
                "code" : "0x",
                "nonce" : "0x00",
                "balance" : "0x1bc16d674eee424e",
                "storage" : {
                }
            },
            "0x1000000000000000000000000000000000000000" : {
                "code" : "0x6003b3b2600160315403603155603154601457005b6003b3",
                "nonce" : "0x00",
                "balance" : "0x0de0b6b3a7640000",
                "storage" : {
                }
            }
        },
        "network" : "Berlin",
        "sealEngine" : "NoProof",
        "lastblockhash" : "0x7d27c60f457a484f44c1929b7f37d5ad993e8a9dfad0afd5b4d726e9aca7b64e",
        "genesisRLP" : "0xf901fdf901f8a00000000000000000000000000000000000000000000000000000000000000000a01dcc4de8dec75d7aab85b567b6ccd41ad312451b948a7413f0a142fd40d49347942adc25665018aa1fe0e6bc666dac8fc2697ff9baa0b21773db6d9334cc65884c2df045de05dc05dbd3bb3fe7f33be657e64343a942a056e81f171bcc55a6ff8345e692c0f86e5b48e01b996cadc001622fb5e363b421a056e81f171bcc55a6ff8345e692c0f86e5b48e01b996cadc001622fb5e363b421b90100000000000000000000000000000000000000000000000000000000000000000000000000000000000000000000000000000000000000000000000000000000000000000000000000000000000000000000000000000000000000000000000000000000000000000000000000000000000000000000000000000000000000000000000000000000000000000000000000000000000000000000000000000000000000000000000000000000000000000000000000000000000000000000000000000000000000000000000000000000000000000000000000000000000000000000000000000000000000000000000000000000000000000000000000000000008302000080887fffffffffffffff808000a00000000000000000000000000000000000000000000000000000000000000000880000000000000000c0c0",
        "blocks" : [
            {
                "rlp" : "0xf90265f901fda0391bce61b13c2ca28bb56b0753533b4a6339b3f9e6b09b59c1ed6a6af2ca3a99a01dcc4de8dec75d7aab85b567b6ccd41ad312451b948a7413f0a142fd40d49347942adc25665018aa1fe0e6bc666dac8fc2697ff9baa08f288d0bc9a111d95bf40395d5e9f79e49e359499c9ee8a55132fdb5b66a8b36a0b86351ce31ef677b4e79e136df7c70b112a57f716ad14a0fd1b1b8bfa7642a52a0761fda4bed8b6a44dd775b04dd00c729d187666e171dfa28dca6ecba2fa91aadb90100000000000000000000000000000000000000000000000000000000000000000000000000000000000000000000000000000000000000000000000000000000000000000000000000000000000000000000000000000000000000000000000000000000000000000000000000000000000000000000000000000000000000000000000000000000000000000000000000000000000000000000000000000000000000000000000000000000000000000000000000000000000000000000000000000000000000000000000000000000000000000000000000000000000000000000000000000000000000000000000000000000000000000000000000000000008302000001887fffffffffffffff8326424e8203e880a00000000000000000000000000000000000000000000000000000000000000000880000000000000000f862f860800183fffff294100000000000000000000000000000000000000080801ba00b21a9ad27313b9653967f1c6c9efc9a6d5d593005799cacbb1c0c3c841cbd01a02d9710b98d8d298b7c66bf0cb06190a6c0ecc9bce13a2c4d832495e60d1dfd4dc0",
                "blockHeader" : {
                    "bloom" : "0x00000000000000000000000000000000000000000000000000000000000000000000000000000000000000000000000000000000000000000000000000000000000000000000000000000000000000000000000000000000000000000000000000000000000000000000000000000000000000000000000000000000000000000000000000000000000000000000000000000000000000000000000000000000000000000000000000000000000000000000000000000000000000000000000000000000000000000000000000000000000000000000000000000000000000000000000000000000000000000000000000000000000000000000000000000000",
                    "coinbase" : "0x2adc25665018aa1fe0e6bc666dac8fc2697ff9ba",
                    "difficulty" : "0x020000",
                    "extraData" : "0x",
                    "gasLimit" : "0x7fffffffffffffff",
                    "gasUsed" : "0x26424e",
                    "hash" : "0x7d27c60f457a484f44c1929b7f37d5ad993e8a9dfad0afd5b4d726e9aca7b64e",
                    "mixHash" : "0x0000000000000000000000000000000000000000000000000000000000000000",
                    "nonce" : "0x0000000000000000",
                    "number" : "0x01",
                    "parentHash" : "0x391bce61b13c2ca28bb56b0753533b4a6339b3f9e6b09b59c1ed6a6af2ca3a99",
                    "receiptTrie" : "0x761fda4bed8b6a44dd775b04dd00c729d187666e171dfa28dca6ecba2fa91aad",
                    "stateRoot" : "0x8f288d0bc9a111d95bf40395d5e9f79e49e359499c9ee8a55132fdb5b66a8b36",
                    "timestamp" : "0x03e8",
                    "transactionsTrie" : "0xb86351ce31ef677b4e79e136df7c70b112a57f716ad14a0fd1b1b8bfa7642a52",
                    "uncleHash" : "0x1dcc4de8dec75d7aab85b567b6ccd41ad312451b948a7413f0a142fd40d49347"
                },
                "transactions" : [
                    {
                        "data" : "0x",
                        "gasLimit" : "0xFFFFF2",
                        "gasPrice" : "0x01",
                        "nonce" : "0x00",
                        "to" : "0x1000000000000000000000000000000000000000",
                        "value" : "0x00",
                        "v" : "0x1b",
                        "r" : "0x0b21a9ad27313b9653967f1c6c9efc9a6d5d593005799cacbb1c0c3c841cbd01",
                        "s" : "0x2d9710b98d8d298b7c66bf0cb06190a6c0ecc9bce13a2c4d832495e60d1dfd4d"
                    }
                ]
            }
        ]
    }
}
