{
    "subroutineAtEndOfCode_d0g0v0_Berlin" : {
        "_info" : {
            "comment" : "",
            "filling-rpc-server" : "besu/v1.4.5/osx-x86_64/adoptopenjdk-java-13",
            "filling-tool-version" : "retesteth-0.0.2+commit.e8018889.Darwin.appleclang",
            "lllcversion" : "Version: 0.5.14-develop.2020.4.27+commit.8f259595.Darwin.appleclang",
            "source" : "src/GeneralStateTestsFiller/stSubroutine/subroutineAtEndOfCodeFiller.json",
            "sourceHash" : "b31d61eeeb38a45d84af6ec64bb194cd43562ca20641c320e1876dbc3a83033c"
        },
        "genesisBlockHeader" : {
            "bloom" : "0x00000000000000000000000000000000000000000000000000000000000000000000000000000000000000000000000000000000000000000000000000000000000000000000000000000000000000000000000000000000000000000000000000000000000000000000000000000000000000000000000000000000000000000000000000000000000000000000000000000000000000000000000000000000000000000000000000000000000000000000000000000000000000000000000000000000000000000000000000000000000000000000000000000000000000000000000000000000000000000000000000000000000000000000000000000000",
            "coinbase" : "0x2adc25665018aa1fe0e6bc666dac8fc2697ff9ba",
            "difficulty" : "0x020000",
            "extraData" : "0x00",
            "gasLimit" : "0x7fffffffffffffff",
            "gasUsed" : "0x00",
            "hash" : "0x93fb8119bc644519b546c5385e5e24b7adf8184256cb034b10b2a5b41966af2e",
            "mixHash" : "0x0000000000000000000000000000000000000000000000000000000000000000",
            "nonce" : "0x0000000000000000",
            "number" : "0x00",
            "parentHash" : "0x0000000000000000000000000000000000000000000000000000000000000000",
            "receiptTrie" : "0x56e81f171bcc55a6ff8345e692c0f86e5b48e01b996cadc001622fb5e363b421",
            "stateRoot" : "0xe989783d027d15a0ecb77ce4529bb70444206287db328e7b524d2cd3d771ec03",
            "timestamp" : "0x00",
            "transactionsTrie" : "0x56e81f171bcc55a6ff8345e692c0f86e5b48e01b996cadc001622fb5e363b421",
            "uncleHash" : "0x1dcc4de8dec75d7aab85b567b6ccd41ad312451b948a7413f0a142fd40d49347"
        },
        "pre" : {
            "0x1000000000000000000000000000000000000000" : {
                "balance" : "0x0de0b6b3a7640000",
                "code" : "0x600556b2b75b6003b3",
                "nonce" : "0x00",
                "storage" : {
                }
            },
            "0xa94f5374fce5edbc8e2a8697c15331677e6ebf0b" : {
                "balance" : "0x7fffffffffffffff",
                "code" : "0x",
                "nonce" : "0x00",
                "storage" : {
                }
            }
        },
        "postState" : {
            "0xa94f5374fce5edbc8e2a8697c15331677e6ebf0b" : {
                "code" : "0x",
                "nonce" : "0x01",
                "balance" : "0x7fffffffffffaddd",
                "storage" : {
                }
            },
            "0x2adc25665018aa1fe0e6bc666dac8fc2697ff9ba" : {
                "code" : "0x",
                "nonce" : "0x00",
                "balance" : "0x1bc16d674ec85222",
                "storage" : {
                }
            },
            "0x1000000000000000000000000000000000000000" : {
                "code" : "0x600556b2b75b6003b3",
                "nonce" : "0x00",
                "balance" : "0x0de0b6b3a7640000",
                "storage" : {
                }
            }
        },
        "network" : "Berlin",
        "sealEngine" : "NoProof",
        "lastblockhash" : "0x0b2e79025b5ef0fe98cab0b8864d72ec88f3023dac402134fa59a204c0ed953e",
        "genesisRLP" : "0xf901fdf901f8a00000000000000000000000000000000000000000000000000000000000000000a01dcc4de8dec75d7aab85b567b6ccd41ad312451b948a7413f0a142fd40d49347942adc25665018aa1fe0e6bc666dac8fc2697ff9baa0e989783d027d15a0ecb77ce4529bb70444206287db328e7b524d2cd3d771ec03a056e81f171bcc55a6ff8345e692c0f86e5b48e01b996cadc001622fb5e363b421a056e81f171bcc55a6ff8345e692c0f86e5b48e01b996cadc001622fb5e363b421b90100000000000000000000000000000000000000000000000000000000000000000000000000000000000000000000000000000000000000000000000000000000000000000000000000000000000000000000000000000000000000000000000000000000000000000000000000000000000000000000000000000000000000000000000000000000000000000000000000000000000000000000000000000000000000000000000000000000000000000000000000000000000000000000000000000000000000000000000000000000000000000000000000000000000000000000000000000000000000000000000000000000000000000000000000000000008302000080887fffffffffffffff808000a00000000000000000000000000000000000000000000000000000000000000000880000000000000000c0c0",
        "blocks" : [
            {
                "rlp" : "0xf90264f901fca093fb8119bc644519b546c5385e5e24b7adf8184256cb034b10b2a5b41966af2ea01dcc4de8dec75d7aab85b567b6ccd41ad312451b948a7413f0a142fd40d49347942adc25665018aa1fe0e6bc666dac8fc2697ff9baa0e8b559bbcbbbced810edb9c0369acb9ffbeb90f438721cf92d31db8bfee2d776a07bbad74a5b4f94ab79f9c09a33e7bc62ee345c027b337fdc7365ad8a7b4d4881a08ba76ce9b2d823eca3590058dc06297e8ecfa2944bdfa060a706027df832e1b1b90100000000000000000000000000000000000000000000000000000000000000000000000000000000000000000000000000000000000000000000000000000000000000000000000000000000000000000000000000000000000000000000000000000000000000000000000000000000000000000000000000000000000000000000000000000000000000000000000000000000000000000000000000000000000000000000000000000000000000000000000000000000000000000000000000000000000000000000000000000000000000000000000000000000000000000000000000000000000000000000000000000000000000000000000000000000008302000001887fffffffffffffff8252228203e880a00000000000000000000000000000000000000000000000000000000000000000880000000000000000f862f860800183061a8094100000000000000000000000000000000000000080801ca0436c8420915217ae867d043179d78b4a8abc7a66f7658df0a06d4aa1f60475f3a017eab00aa21e61a07156519a1639a46bf5fb97e3fb07ea39ca885e9bb9145360c0",
                "blockHeader" : {
                    "bloom" : "0x00000000000000000000000000000000000000000000000000000000000000000000000000000000000000000000000000000000000000000000000000000000000000000000000000000000000000000000000000000000000000000000000000000000000000000000000000000000000000000000000000000000000000000000000000000000000000000000000000000000000000000000000000000000000000000000000000000000000000000000000000000000000000000000000000000000000000000000000000000000000000000000000000000000000000000000000000000000000000000000000000000000000000000000000000000000",
                    "coinbase" : "0x2adc25665018aa1fe0e6bc666dac8fc2697ff9ba",
                    "difficulty" : "0x020000",
                    "extraData" : "0x",
                    "gasLimit" : "0x7fffffffffffffff",
                    "gasUsed" : "0x5222",
                    "hash" : "0x0b2e79025b5ef0fe98cab0b8864d72ec88f3023dac402134fa59a204c0ed953e",
                    "mixHash" : "0x0000000000000000000000000000000000000000000000000000000000000000",
                    "nonce" : "0x0000000000000000",
                    "number" : "0x01",
                    "parentHash" : "0x93fb8119bc644519b546c5385e5e24b7adf8184256cb034b10b2a5b41966af2e",
                    "receiptTrie" : "0x8ba76ce9b2d823eca3590058dc06297e8ecfa2944bdfa060a706027df832e1b1",
                    "stateRoot" : "0xe8b559bbcbbbced810edb9c0369acb9ffbeb90f438721cf92d31db8bfee2d776",
                    "timestamp" : "0x03e8",
                    "transactionsTrie" : "0x7bbad74a5b4f94ab79f9c09a33e7bc62ee345c027b337fdc7365ad8a7b4d4881",
                    "uncleHash" : "0x1dcc4de8dec75d7aab85b567b6ccd41ad312451b948a7413f0a142fd40d49347"
                },
                "transactions" : [
                    {
                        "data" : "0x",
                        "gasLimit" : "0x061a80",
                        "gasPrice" : "0x01",
                        "nonce" : "0x00",
                        "to" : "0x1000000000000000000000000000000000000000",
                        "value" : "0x00",
                        "v" : "0x1c",
                        "r" : "0x436c8420915217ae867d043179d78b4a8abc7a66f7658df0a06d4aa1f60475f3",
                        "s" : "0x17eab00aa21e61a07156519a1639a46bf5fb97e3fb07ea39ca885e9bb9145360"
                    }
                ]
            }
        ]
    }
}