{
    "CallEcrecoverCheckLengthWrongV_d0g0v0_Byzantium" : {
        "_info" : {
            "comment" : "",
            "filledwith" : "cpp-1.3.0+commit.4e336c9e.Linux.g++",
            "source" : "src/GenStateTestAsBcTemp/stPreCompiledContracts/CallEcrecoverCheckLengthWrongV_d0g0v0Filler.json"
        },
        "blocks" : [
            {
                "blockHeader" : {
                    "bloom" : "0x00000000000000000000000000000000000000000000000000000000000000000000000000000000000000000000000000000000000000000000000000000000000000000000000000000000000000000000000000000000000000000000000000000000000000000000000000000000000000000000000000000000000000000000000000000000000000000000000000000000000000000000000000000000000000000000000000000000000000000000000000000000000000000000000000000000000000000000000000000000000000000000000000000000000000000000000000000000000000000000000000000000000000000000000000000000",
                    "coinbase" : "0x2adc25665018aa1fe0e6bc666dac8fc2697ff9ba",
                    "difficulty" : "0x020000",
                    "extraData" : "",
                    "gasLimit" : "0x989680",
                    "gasUsed" : "0x014b3e",
                    "hash" : "0xda91bf6ac6835f336a4637092fad46e1508fa584729fc432e4e68ec1265d9e0a",
                    "mixHash" : "0xd33a33a38bdc1c5849d22d49edcf0a07b62060a4d8e20e7362a082265ace6f54",
                    "nonce" : "0xb58c92bdc86d266b",
                    "number" : "0x01",
                    "parentHash" : "0xf0167cb0e746dcc02d64172c559703e5fb730f9acc018fee1b5b0ca6b630b7cc",
                    "receiptTrie" : "0x132bb7966c5e1dc7231d68309a52e2c7f0348cd1c04f5a07a8c377679da2ec54",
                    "stateRoot" : "0x9bbc9bc8a2e5540fd0533f253f4c2600e724044fe9d9a825414a0eeff533343b",
                    "timestamp" : "0x03e8",
                    "transactionsTrie" : "0xd37192728eefe1f2e2362558635fa7ccf7265c44872f2a269cd9c945bcb9ecb5",
                    "uncleHash" : "0x1dcc4de8dec75d7aab85b567b6ccd41ad312451b948a7413f0a142fd40d49347"
                },
                "rlp" : "0xf90263f901f8a0f0167cb0e746dcc02d64172c559703e5fb730f9acc018fee1b5b0ca6b630b7cca01dcc4de8dec75d7aab85b567b6ccd41ad312451b948a7413f0a142fd40d49347942adc25665018aa1fe0e6bc666dac8fc2697ff9baa09bbc9bc8a2e5540fd0533f253f4c2600e724044fe9d9a825414a0eeff533343ba0d37192728eefe1f2e2362558635fa7ccf7265c44872f2a269cd9c945bcb9ecb5a0132bb7966c5e1dc7231d68309a52e2c7f0348cd1c04f5a07a8c377679da2ec54b901000000000000000000000000000000000000000000000000000000000000000000000000000000000000000000000000000000000000000000000000000000000000000000000000000000000000000000000000000000000000000000000000000000000000000000000000000000000000000000000000000000000000000000000000000000000000000000000000000000000000000000000000000000000000000000000000000000000000000000000000000000000000000000000000000000000000000000000000000000000000000000000000000000000000000000000000000000000000000000000000000000000000000000000000000000000083020000018398968083014b3e8203e880a0d33a33a38bdc1c5849d22d49edcf0a07b62060a4d8e20e7362a082265ace6f5488b58c92bdc86d266bf865f86380018337ba9094095e7baea6a6c7c4c2dfeb977efac326af552d87830186a0801ba03fcfff9e4085fc94af03ad71daa986e585e5b354c2b414a134e0624796a30d8ea072000b0edcceb7d4c1c5b6fed5bd5fcb74789702f3f171f1cd75c617bbb379cdc0",
                "transactions" : [
                    {
                        "data" : "",
                        "gasLimit" : "0x37ba90",
                        "gasPrice" : "0x01",
                        "nonce" : "0x00",
                        "r" : "0x3fcfff9e4085fc94af03ad71daa986e585e5b354c2b414a134e0624796a30d8e",
                        "s" : "0x72000b0edcceb7d4c1c5b6fed5bd5fcb74789702f3f171f1cd75c617bbb379cd",
                        "to" : "0x095e7baea6a6c7c4c2dfeb977efac326af552d87",
                        "v" : "0x1b",
                        "value" : "0x0186a0"
                    }
                ],
                "uncleHeaders" : [
                ]
            }
        ],
        "genesisBlockHeader" : {
            "bloom" : "0x00000000000000000000000000000000000000000000000000000000000000000000000000000000000000000000000000000000000000000000000000000000000000000000000000000000000000000000000000000000000000000000000000000000000000000000000000000000000000000000000000000000000000000000000000000000000000000000000000000000000000000000000000000000000000000000000000000000000000000000000000000000000000000000000000000000000000000000000000000000000000000000000000000000000000000000000000000000000000000000000000000000000000000000000000000000",
            "coinbase" : "0x2adc25665018aa1fe0e6bc666dac8fc2697ff9ba",
            "difficulty" : "0x020000",
            "extraData" : "0x42",
            "gasLimit" : "0x989680",
            "gasUsed" : "0x00",
            "hash" : "0xf0167cb0e746dcc02d64172c559703e5fb730f9acc018fee1b5b0ca6b630b7cc",
            "mixHash" : "0x56e81f171bcc55a6ff8345e692c0f86e5b48e01b996cadc001622fb5e363b421",
            "nonce" : "0x0102030405060708",
            "number" : "0x00",
            "parentHash" : "0x0000000000000000000000000000000000000000000000000000000000000000",
            "receiptTrie" : "0x56e81f171bcc55a6ff8345e692c0f86e5b48e01b996cadc001622fb5e363b421",
            "stateRoot" : "0x97cfd663abf93b3dba3920ab6e04510ca186a3c49116dbe7806d317fe5e288a9",
            "timestamp" : "0x03b6",
            "transactionsTrie" : "0x56e81f171bcc55a6ff8345e692c0f86e5b48e01b996cadc001622fb5e363b421",
            "uncleHash" : "0x1dcc4de8dec75d7aab85b567b6ccd41ad312451b948a7413f0a142fd40d49347"
        },
        "genesisRLP" : "0xf901faf901f5a00000000000000000000000000000000000000000000000000000000000000000a01dcc4de8dec75d7aab85b567b6ccd41ad312451b948a7413f0a142fd40d49347942adc25665018aa1fe0e6bc666dac8fc2697ff9baa097cfd663abf93b3dba3920ab6e04510ca186a3c49116dbe7806d317fe5e288a9a056e81f171bcc55a6ff8345e692c0f86e5b48e01b996cadc001622fb5e363b421a056e81f171bcc55a6ff8345e692c0f86e5b48e01b996cadc001622fb5e363b421b9010000000000000000000000000000000000000000000000000000000000000000000000000000000000000000000000000000000000000000000000000000000000000000000000000000000000000000000000000000000000000000000000000000000000000000000000000000000000000000000000000000000000000000000000000000000000000000000000000000000000000000000000000000000000000000000000000000000000000000000000000000000000000000000000000000000000000000000000000000000000000000000000000000000000000000000000000000000000000000000000000000000000000000000000000000000000830200008083989680808203b642a056e81f171bcc55a6ff8345e692c0f86e5b48e01b996cadc001622fb5e363b421880102030405060708c0c0",
        "lastblockhash" : "0xda91bf6ac6835f336a4637092fad46e1508fa584729fc432e4e68ec1265d9e0a",
        "network" : "Byzantium",
        "postState" : {
            "0x095e7baea6a6c7c4c2dfeb977efac326af552d87" : {
                "balance" : "0x0132b3a0",
                "code" : "0x7f11223344556677889900112233445566778899001122334455667788990011226080527f18c547e4f7b0f325ad1e56f57e26c745b09a3e503d86e00e5255ff7f715d3d1c600052601d6020527f73b1693892219d736caba55bdb67216e485557ea6b6af75f37096c9aa6a5a75f6040527feeb940b1d03b21e36b0e47e79769f095fe2ab855bd91e3a38756b7d75a9c4549606052602060806080600060006001620493e0f160025560805160005559600155",
                "nonce" : "0x00",
                "storage" : {
                    "0x00" : "0x1122334455667788990011223344556677889900112233445566778899001122",
                    "0x01" : "0xa0",
                    "0x02" : "0x01"
                }
            },
            "0x2adc25665018aa1fe0e6bc666dac8fc2697ff9ba" : {
                "balance" : "0x29a2241af62d4b3e",
                "code" : "",
                "nonce" : "0x00",
                "storage" : {
                }
            },
            "0xa94f5374fce5edbc8e2a8697c15331677e6ebf0b" : {
                "balance" : "0x0de0b6b3a7612e22",
                "code" : "",
                "nonce" : "0x01",
                "storage" : {
                }
            }
        },
        "pre" : {
            "0x095e7baea6a6c7c4c2dfeb977efac326af552d87" : {
                "balance" : "0x01312d00",
                "code" : "0x7f11223344556677889900112233445566778899001122334455667788990011226080527f18c547e4f7b0f325ad1e56f57e26c745b09a3e503d86e00e5255ff7f715d3d1c600052601d6020527f73b1693892219d736caba55bdb67216e485557ea6b6af75f37096c9aa6a5a75f6040527feeb940b1d03b21e36b0e47e79769f095fe2ab855bd91e3a38756b7d75a9c4549606052602060806080600060006001620493e0f160025560805160005559600155",
                "nonce" : "0x00",
                "storage" : {
                }
            },
            "0xa94f5374fce5edbc8e2a8697c15331677e6ebf0b" : {
                "balance" : "0x0de0b6b3a7640000",
                "code" : "",
                "nonce" : "0x00",
                "storage" : {
                }
            }
        }
    },
    "CallEcrecoverCheckLengthWrongV_d0g0v0_EIP150" : {
        "_info" : {
            "comment" : "",
            "filledwith" : "cpp-1.3.0+commit.4e336c9e.Linux.g++",
            "source" : "src/GenStateTestAsBcTemp/stPreCompiledContracts/CallEcrecoverCheckLengthWrongV_d0g0v0Filler.json"
        },
        "blocks" : [
            {
                "blockHeader" : {
                    "bloom" : "0x00000000000000000000000000000000000000000000000000000000000000000000000000000000000000000000000000000000000000000000000000000000000000000000000000000000000000000000000000000000000000000000000000000000000000000000000000000000000000000000000000000000000000000000000000000000000000000000000000000000000000000000000000000000000000000000000000000000000000000000000000000000000000000000000000000000000000000000000000000000000000000000000000000000000000000000000000000000000000000000000000000000000000000000000000000000",
                    "coinbase" : "0x2adc25665018aa1fe0e6bc666dac8fc2697ff9ba",
                    "difficulty" : "0x020000",
                    "extraData" : "",
                    "gasLimit" : "0x989680",
                    "gasUsed" : "0x01ace6",
                    "hash" : "0xb04be6179bdfb2b85edbae886d77ba649a04ffcbbe1d101c0f0bcfa2db4bfff0",
                    "mixHash" : "0x845bae7f59b1549e601b0d02d3053bc54182479a473df9139e0ec693828c6afd",
                    "nonce" : "0x6262b97471ae3e01",
                    "number" : "0x01",
                    "parentHash" : "0xf0167cb0e746dcc02d64172c559703e5fb730f9acc018fee1b5b0ca6b630b7cc",
                    "receiptTrie" : "0xa14e506f0be4410b8f5529fdaa95a7f73421ce12bce6c6b0ae308cbcec7bcaee",
                    "stateRoot" : "0x80bf97efd5f22fe2c2e56534f28ac540c1555965b97459aca5fb5816df1bb207",
                    "timestamp" : "0x03e8",
                    "transactionsTrie" : "0xd37192728eefe1f2e2362558635fa7ccf7265c44872f2a269cd9c945bcb9ecb5",
                    "uncleHash" : "0x1dcc4de8dec75d7aab85b567b6ccd41ad312451b948a7413f0a142fd40d49347"
                },
                "rlp" : "0xf90263f901f8a0f0167cb0e746dcc02d64172c559703e5fb730f9acc018fee1b5b0ca6b630b7cca01dcc4de8dec75d7aab85b567b6ccd41ad312451b948a7413f0a142fd40d49347942adc25665018aa1fe0e6bc666dac8fc2697ff9baa080bf97efd5f22fe2c2e56534f28ac540c1555965b97459aca5fb5816df1bb207a0d37192728eefe1f2e2362558635fa7ccf7265c44872f2a269cd9c945bcb9ecb5a0a14e506f0be4410b8f5529fdaa95a7f73421ce12bce6c6b0ae308cbcec7bcaeeb90100000000000000000000000000000000000000000000000000000000000000000000000000000000000000000000000000000000000000000000000000000000000000000000000000000000000000000000000000000000000000000000000000000000000000000000000000000000000000000000000000000000000000000000000000000000000000000000000000000000000000000000000000000000000000000000000000000000000000000000000000000000000000000000000000000000000000000000000000000000000000000000000000000000000000000000000000000000000000000000000000000000000000000000000000000000008302000001839896808301ace68203e880a0845bae7f59b1549e601b0d02d3053bc54182479a473df9139e0ec693828c6afd886262b97471ae3e01f865f86380018337ba9094095e7baea6a6c7c4c2dfeb977efac326af552d87830186a0801ba03fcfff9e4085fc94af03ad71daa986e585e5b354c2b414a134e0624796a30d8ea072000b0edcceb7d4c1c5b6fed5bd5fcb74789702f3f171f1cd75c617bbb379cdc0",
                "transactions" : [
                    {
                        "data" : "",
                        "gasLimit" : "0x37ba90",
                        "gasPrice" : "0x01",
                        "nonce" : "0x00",
                        "r" : "0x3fcfff9e4085fc94af03ad71daa986e585e5b354c2b414a134e0624796a30d8e",
                        "s" : "0x72000b0edcceb7d4c1c5b6fed5bd5fcb74789702f3f171f1cd75c617bbb379cd",
                        "to" : "0x095e7baea6a6c7c4c2dfeb977efac326af552d87",
                        "v" : "0x1b",
                        "value" : "0x0186a0"
                    }
                ],
                "uncleHeaders" : [
                ]
            }
        ],
        "genesisBlockHeader" : {
            "bloom" : "0x00000000000000000000000000000000000000000000000000000000000000000000000000000000000000000000000000000000000000000000000000000000000000000000000000000000000000000000000000000000000000000000000000000000000000000000000000000000000000000000000000000000000000000000000000000000000000000000000000000000000000000000000000000000000000000000000000000000000000000000000000000000000000000000000000000000000000000000000000000000000000000000000000000000000000000000000000000000000000000000000000000000000000000000000000000000",
            "coinbase" : "0x2adc25665018aa1fe0e6bc666dac8fc2697ff9ba",
            "difficulty" : "0x020000",
            "extraData" : "0x42",
            "gasLimit" : "0x989680",
            "gasUsed" : "0x00",
            "hash" : "0xf0167cb0e746dcc02d64172c559703e5fb730f9acc018fee1b5b0ca6b630b7cc",
            "mixHash" : "0x56e81f171bcc55a6ff8345e692c0f86e5b48e01b996cadc001622fb5e363b421",
            "nonce" : "0x0102030405060708",
            "number" : "0x00",
            "parentHash" : "0x0000000000000000000000000000000000000000000000000000000000000000",
            "receiptTrie" : "0x56e81f171bcc55a6ff8345e692c0f86e5b48e01b996cadc001622fb5e363b421",
            "stateRoot" : "0x97cfd663abf93b3dba3920ab6e04510ca186a3c49116dbe7806d317fe5e288a9",
            "timestamp" : "0x03b6",
            "transactionsTrie" : "0x56e81f171bcc55a6ff8345e692c0f86e5b48e01b996cadc001622fb5e363b421",
            "uncleHash" : "0x1dcc4de8dec75d7aab85b567b6ccd41ad312451b948a7413f0a142fd40d49347"
        },
        "genesisRLP" : "0xf901faf901f5a00000000000000000000000000000000000000000000000000000000000000000a01dcc4de8dec75d7aab85b567b6ccd41ad312451b948a7413f0a142fd40d49347942adc25665018aa1fe0e6bc666dac8fc2697ff9baa097cfd663abf93b3dba3920ab6e04510ca186a3c49116dbe7806d317fe5e288a9a056e81f171bcc55a6ff8345e692c0f86e5b48e01b996cadc001622fb5e363b421a056e81f171bcc55a6ff8345e692c0f86e5b48e01b996cadc001622fb5e363b421b9010000000000000000000000000000000000000000000000000000000000000000000000000000000000000000000000000000000000000000000000000000000000000000000000000000000000000000000000000000000000000000000000000000000000000000000000000000000000000000000000000000000000000000000000000000000000000000000000000000000000000000000000000000000000000000000000000000000000000000000000000000000000000000000000000000000000000000000000000000000000000000000000000000000000000000000000000000000000000000000000000000000000000000000000000000000000830200008083989680808203b642a056e81f171bcc55a6ff8345e692c0f86e5b48e01b996cadc001622fb5e363b421880102030405060708c0c0",
        "lastblockhash" : "0xb04be6179bdfb2b85edbae886d77ba649a04ffcbbe1d101c0f0bcfa2db4bfff0",
        "network" : "EIP150",
        "postState" : {
            "0x0000000000000000000000000000000000000001" : {
                "balance" : "0x00",
                "code" : "",
                "nonce" : "0x00",
                "storage" : {
                }
            },
            "0x095e7baea6a6c7c4c2dfeb977efac326af552d87" : {
                "balance" : "0x0132b3a0",
                "code" : "0x7f11223344556677889900112233445566778899001122334455667788990011226080527f18c547e4f7b0f325ad1e56f57e26c745b09a3e503d86e00e5255ff7f715d3d1c600052601d6020527f73b1693892219d736caba55bdb67216e485557ea6b6af75f37096c9aa6a5a75f6040527feeb940b1d03b21e36b0e47e79769f095fe2ab855bd91e3a38756b7d75a9c4549606052602060806080600060006001620493e0f160025560805160005559600155",
                "nonce" : "0x00",
                "storage" : {
                    "0x00" : "0x1122334455667788990011223344556677889900112233445566778899001122",
                    "0x01" : "0xa0",
                    "0x02" : "0x01"
                }
            },
            "0x2adc25665018aa1fe0e6bc666dac8fc2697ff9ba" : {
                "balance" : "0x4563918244f5ace6",
                "code" : "",
                "nonce" : "0x00",
                "storage" : {
                }
            },
            "0xa94f5374fce5edbc8e2a8697c15331677e6ebf0b" : {
                "balance" : "0x0de0b6b3a760cc7a",
                "code" : "",
                "nonce" : "0x01",
                "storage" : {
                }
            }
        },
        "pre" : {
            "0x095e7baea6a6c7c4c2dfeb977efac326af552d87" : {
                "balance" : "0x01312d00",
                "code" : "0x7f11223344556677889900112233445566778899001122334455667788990011226080527f18c547e4f7b0f325ad1e56f57e26c745b09a3e503d86e00e5255ff7f715d3d1c600052601d6020527f73b1693892219d736caba55bdb67216e485557ea6b6af75f37096c9aa6a5a75f6040527feeb940b1d03b21e36b0e47e79769f095fe2ab855bd91e3a38756b7d75a9c4549606052602060806080600060006001620493e0f160025560805160005559600155",
                "nonce" : "0x00",
                "storage" : {
                }
            },
            "0xa94f5374fce5edbc8e2a8697c15331677e6ebf0b" : {
                "balance" : "0x0de0b6b3a7640000",
                "code" : "",
                "nonce" : "0x00",
                "storage" : {
                }
            }
        }
    },
    "CallEcrecoverCheckLengthWrongV_d0g0v0_EIP158" : {
        "_info" : {
            "comment" : "",
            "filledwith" : "cpp-1.3.0+commit.4e336c9e.Linux.g++",
            "source" : "src/GenStateTestAsBcTemp/stPreCompiledContracts/CallEcrecoverCheckLengthWrongV_d0g0v0Filler.json"
        },
        "blocks" : [
            {
                "blockHeader" : {
                    "bloom" : "0x00000000000000000000000000000000000000000000000000000000000000000000000000000000000000000000000000000000000000000000000000000000000000000000000000000000000000000000000000000000000000000000000000000000000000000000000000000000000000000000000000000000000000000000000000000000000000000000000000000000000000000000000000000000000000000000000000000000000000000000000000000000000000000000000000000000000000000000000000000000000000000000000000000000000000000000000000000000000000000000000000000000000000000000000000000000",
                    "coinbase" : "0x2adc25665018aa1fe0e6bc666dac8fc2697ff9ba",
                    "difficulty" : "0x020000",
                    "extraData" : "",
                    "gasLimit" : "0x989680",
                    "gasUsed" : "0x014b3e",
                    "hash" : "0x38ba03866be4e315aaa8773b36f004dfa16bfec5c92e0f8c66a2cdcc8a771fd8",
                    "mixHash" : "0x11f0bd59274646fa5dad50530fab30c14186658aadfbe2ca7ae487a0e033e202",
                    "nonce" : "0x47cd5e1d0b1e0abd",
                    "number" : "0x01",
                    "parentHash" : "0xf0167cb0e746dcc02d64172c559703e5fb730f9acc018fee1b5b0ca6b630b7cc",
                    "receiptTrie" : "0x617a9a9fb7020a9f3b5f03bfe30b4d83b802699dc62e8d2af8761383f4f63cbb",
                    "stateRoot" : "0x00f8f4c18fdecdf890706ca91f949e6c7b6f1808783c5142825d9be0690a46aa",
                    "timestamp" : "0x03e8",
                    "transactionsTrie" : "0xd37192728eefe1f2e2362558635fa7ccf7265c44872f2a269cd9c945bcb9ecb5",
                    "uncleHash" : "0x1dcc4de8dec75d7aab85b567b6ccd41ad312451b948a7413f0a142fd40d49347"
                },
                "rlp" : "0xf90263f901f8a0f0167cb0e746dcc02d64172c559703e5fb730f9acc018fee1b5b0ca6b630b7cca01dcc4de8dec75d7aab85b567b6ccd41ad312451b948a7413f0a142fd40d49347942adc25665018aa1fe0e6bc666dac8fc2697ff9baa000f8f4c18fdecdf890706ca91f949e6c7b6f1808783c5142825d9be0690a46aaa0d37192728eefe1f2e2362558635fa7ccf7265c44872f2a269cd9c945bcb9ecb5a0617a9a9fb7020a9f3b5f03bfe30b4d83b802699dc62e8d2af8761383f4f63cbbb901000000000000000000000000000000000000000000000000000000000000000000000000000000000000000000000000000000000000000000000000000000000000000000000000000000000000000000000000000000000000000000000000000000000000000000000000000000000000000000000000000000000000000000000000000000000000000000000000000000000000000000000000000000000000000000000000000000000000000000000000000000000000000000000000000000000000000000000000000000000000000000000000000000000000000000000000000000000000000000000000000000000000000000000000000000000083020000018398968083014b3e8203e880a011f0bd59274646fa5dad50530fab30c14186658aadfbe2ca7ae487a0e033e2028847cd5e1d0b1e0abdf865f86380018337ba9094095e7baea6a6c7c4c2dfeb977efac326af552d87830186a0801ba03fcfff9e4085fc94af03ad71daa986e585e5b354c2b414a134e0624796a30d8ea072000b0edcceb7d4c1c5b6fed5bd5fcb74789702f3f171f1cd75c617bbb379cdc0",
                "transactions" : [
                    {
                        "data" : "",
                        "gasLimit" : "0x37ba90",
                        "gasPrice" : "0x01",
                        "nonce" : "0x00",
                        "r" : "0x3fcfff9e4085fc94af03ad71daa986e585e5b354c2b414a134e0624796a30d8e",
                        "s" : "0x72000b0edcceb7d4c1c5b6fed5bd5fcb74789702f3f171f1cd75c617bbb379cd",
                        "to" : "0x095e7baea6a6c7c4c2dfeb977efac326af552d87",
                        "v" : "0x1b",
                        "value" : "0x0186a0"
                    }
                ],
                "uncleHeaders" : [
                ]
            }
        ],
        "genesisBlockHeader" : {
            "bloom" : "0x00000000000000000000000000000000000000000000000000000000000000000000000000000000000000000000000000000000000000000000000000000000000000000000000000000000000000000000000000000000000000000000000000000000000000000000000000000000000000000000000000000000000000000000000000000000000000000000000000000000000000000000000000000000000000000000000000000000000000000000000000000000000000000000000000000000000000000000000000000000000000000000000000000000000000000000000000000000000000000000000000000000000000000000000000000000",
            "coinbase" : "0x2adc25665018aa1fe0e6bc666dac8fc2697ff9ba",
            "difficulty" : "0x020000",
            "extraData" : "0x42",
            "gasLimit" : "0x989680",
            "gasUsed" : "0x00",
            "hash" : "0xf0167cb0e746dcc02d64172c559703e5fb730f9acc018fee1b5b0ca6b630b7cc",
            "mixHash" : "0x56e81f171bcc55a6ff8345e692c0f86e5b48e01b996cadc001622fb5e363b421",
            "nonce" : "0x0102030405060708",
            "number" : "0x00",
            "parentHash" : "0x0000000000000000000000000000000000000000000000000000000000000000",
            "receiptTrie" : "0x56e81f171bcc55a6ff8345e692c0f86e5b48e01b996cadc001622fb5e363b421",
            "stateRoot" : "0x97cfd663abf93b3dba3920ab6e04510ca186a3c49116dbe7806d317fe5e288a9",
            "timestamp" : "0x03b6",
            "transactionsTrie" : "0x56e81f171bcc55a6ff8345e692c0f86e5b48e01b996cadc001622fb5e363b421",
            "uncleHash" : "0x1dcc4de8dec75d7aab85b567b6ccd41ad312451b948a7413f0a142fd40d49347"
        },
        "genesisRLP" : "0xf901faf901f5a00000000000000000000000000000000000000000000000000000000000000000a01dcc4de8dec75d7aab85b567b6ccd41ad312451b948a7413f0a142fd40d49347942adc25665018aa1fe0e6bc666dac8fc2697ff9baa097cfd663abf93b3dba3920ab6e04510ca186a3c49116dbe7806d317fe5e288a9a056e81f171bcc55a6ff8345e692c0f86e5b48e01b996cadc001622fb5e363b421a056e81f171bcc55a6ff8345e692c0f86e5b48e01b996cadc001622fb5e363b421b9010000000000000000000000000000000000000000000000000000000000000000000000000000000000000000000000000000000000000000000000000000000000000000000000000000000000000000000000000000000000000000000000000000000000000000000000000000000000000000000000000000000000000000000000000000000000000000000000000000000000000000000000000000000000000000000000000000000000000000000000000000000000000000000000000000000000000000000000000000000000000000000000000000000000000000000000000000000000000000000000000000000000000000000000000000000000830200008083989680808203b642a056e81f171bcc55a6ff8345e692c0f86e5b48e01b996cadc001622fb5e363b421880102030405060708c0c0",
        "lastblockhash" : "0x38ba03866be4e315aaa8773b36f004dfa16bfec5c92e0f8c66a2cdcc8a771fd8",
        "network" : "EIP158",
        "postState" : {
            "0x095e7baea6a6c7c4c2dfeb977efac326af552d87" : {
                "balance" : "0x0132b3a0",
                "code" : "0x7f11223344556677889900112233445566778899001122334455667788990011226080527f18c547e4f7b0f325ad1e56f57e26c745b09a3e503d86e00e5255ff7f715d3d1c600052601d6020527f73b1693892219d736caba55bdb67216e485557ea6b6af75f37096c9aa6a5a75f6040527feeb940b1d03b21e36b0e47e79769f095fe2ab855bd91e3a38756b7d75a9c4549606052602060806080600060006001620493e0f160025560805160005559600155",
                "nonce" : "0x00",
                "storage" : {
                    "0x00" : "0x1122334455667788990011223344556677889900112233445566778899001122",
                    "0x01" : "0xa0",
                    "0x02" : "0x01"
                }
            },
            "0x2adc25665018aa1fe0e6bc666dac8fc2697ff9ba" : {
                "balance" : "0x4563918244f54b3e",
                "code" : "",
                "nonce" : "0x00",
                "storage" : {
                }
            },
            "0xa94f5374fce5edbc8e2a8697c15331677e6ebf0b" : {
                "balance" : "0x0de0b6b3a7612e22",
                "code" : "",
                "nonce" : "0x01",
                "storage" : {
                }
            }
        },
        "pre" : {
            "0x095e7baea6a6c7c4c2dfeb977efac326af552d87" : {
                "balance" : "0x01312d00",
                "code" : "0x7f11223344556677889900112233445566778899001122334455667788990011226080527f18c547e4f7b0f325ad1e56f57e26c745b09a3e503d86e00e5255ff7f715d3d1c600052601d6020527f73b1693892219d736caba55bdb67216e485557ea6b6af75f37096c9aa6a5a75f6040527feeb940b1d03b21e36b0e47e79769f095fe2ab855bd91e3a38756b7d75a9c4549606052602060806080600060006001620493e0f160025560805160005559600155",
                "nonce" : "0x00",
                "storage" : {
                }
            },
            "0xa94f5374fce5edbc8e2a8697c15331677e6ebf0b" : {
                "balance" : "0x0de0b6b3a7640000",
                "code" : "",
                "nonce" : "0x00",
                "storage" : {
                }
            }
        }
    },
    "CallEcrecoverCheckLengthWrongV_d0g0v0_Frontier" : {
        "_info" : {
            "comment" : "",
            "filledwith" : "cpp-1.3.0+commit.4e336c9e.Linux.g++",
            "source" : "src/GenStateTestAsBcTemp/stPreCompiledContracts/CallEcrecoverCheckLengthWrongV_d0g0v0Filler.json"
        },
        "blocks" : [
            {
                "blockHeader" : {
                    "bloom" : "0x00000000000000000000000000000000000000000000000000000000000000000000000000000000000000000000000000000000000000000000000000000000000000000000000000000000000000000000000000000000000000000000000000000000000000000000000000000000000000000000000000000000000000000000000000000000000000000000000000000000000000000000000000000000000000000000000000000000000000000000000000000000000000000000000000000000000000000000000000000000000000000000000000000000000000000000000000000000000000000000000000000000000000000000000000000000",
                    "coinbase" : "0x2adc25665018aa1fe0e6bc666dac8fc2697ff9ba",
                    "difficulty" : "0x020000",
                    "extraData" : "",
                    "gasLimit" : "0x989680",
                    "gasUsed" : "0x01aa52",
                    "hash" : "0x14f419b5aca7b10a60bd6eda72e501426cb4e7a33ff52ee88ff9430094a6f2a8",
                    "mixHash" : "0xf72edddfc0dbfec091e8c1e1aa3745a1787613a92e3d826c98cfc2bdfd7da200",
                    "nonce" : "0xe802f44348ee4ff8",
                    "number" : "0x01",
                    "parentHash" : "0xf0167cb0e746dcc02d64172c559703e5fb730f9acc018fee1b5b0ca6b630b7cc",
                    "receiptTrie" : "0xc88b1d5790df639709c6790c8d43817b461118bc5537079f22488881946d218a",
                    "stateRoot" : "0xe3a9f6ada69c2161a0660c0b9c798321cc44608d3e6034d7ba662c6a259f6778",
                    "timestamp" : "0x03e8",
                    "transactionsTrie" : "0xd37192728eefe1f2e2362558635fa7ccf7265c44872f2a269cd9c945bcb9ecb5",
                    "uncleHash" : "0x1dcc4de8dec75d7aab85b567b6ccd41ad312451b948a7413f0a142fd40d49347"
                },
                "rlp" : "0xf90263f901f8a0f0167cb0e746dcc02d64172c559703e5fb730f9acc018fee1b5b0ca6b630b7cca01dcc4de8dec75d7aab85b567b6ccd41ad312451b948a7413f0a142fd40d49347942adc25665018aa1fe0e6bc666dac8fc2697ff9baa0e3a9f6ada69c2161a0660c0b9c798321cc44608d3e6034d7ba662c6a259f6778a0d37192728eefe1f2e2362558635fa7ccf7265c44872f2a269cd9c945bcb9ecb5a0c88b1d5790df639709c6790c8d43817b461118bc5537079f22488881946d218ab90100000000000000000000000000000000000000000000000000000000000000000000000000000000000000000000000000000000000000000000000000000000000000000000000000000000000000000000000000000000000000000000000000000000000000000000000000000000000000000000000000000000000000000000000000000000000000000000000000000000000000000000000000000000000000000000000000000000000000000000000000000000000000000000000000000000000000000000000000000000000000000000000000000000000000000000000000000000000000000000000000000000000000000000000000000000008302000001839896808301aa528203e880a0f72edddfc0dbfec091e8c1e1aa3745a1787613a92e3d826c98cfc2bdfd7da20088e802f44348ee4ff8f865f86380018337ba9094095e7baea6a6c7c4c2dfeb977efac326af552d87830186a0801ba03fcfff9e4085fc94af03ad71daa986e585e5b354c2b414a134e0624796a30d8ea072000b0edcceb7d4c1c5b6fed5bd5fcb74789702f3f171f1cd75c617bbb379cdc0",
                "transactions" : [
                    {
                        "data" : "",
                        "gasLimit" : "0x37ba90",
                        "gasPrice" : "0x01",
                        "nonce" : "0x00",
                        "r" : "0x3fcfff9e4085fc94af03ad71daa986e585e5b354c2b414a134e0624796a30d8e",
                        "s" : "0x72000b0edcceb7d4c1c5b6fed5bd5fcb74789702f3f171f1cd75c617bbb379cd",
                        "to" : "0x095e7baea6a6c7c4c2dfeb977efac326af552d87",
                        "v" : "0x1b",
                        "value" : "0x0186a0"
                    }
                ],
                "uncleHeaders" : [
                ]
            }
        ],
        "genesisBlockHeader" : {
            "bloom" : "0x00000000000000000000000000000000000000000000000000000000000000000000000000000000000000000000000000000000000000000000000000000000000000000000000000000000000000000000000000000000000000000000000000000000000000000000000000000000000000000000000000000000000000000000000000000000000000000000000000000000000000000000000000000000000000000000000000000000000000000000000000000000000000000000000000000000000000000000000000000000000000000000000000000000000000000000000000000000000000000000000000000000000000000000000000000000",
            "coinbase" : "0x2adc25665018aa1fe0e6bc666dac8fc2697ff9ba",
            "difficulty" : "0x020000",
            "extraData" : "0x42",
            "gasLimit" : "0x989680",
            "gasUsed" : "0x00",
            "hash" : "0xf0167cb0e746dcc02d64172c559703e5fb730f9acc018fee1b5b0ca6b630b7cc",
            "mixHash" : "0x56e81f171bcc55a6ff8345e692c0f86e5b48e01b996cadc001622fb5e363b421",
            "nonce" : "0x0102030405060708",
            "number" : "0x00",
            "parentHash" : "0x0000000000000000000000000000000000000000000000000000000000000000",
            "receiptTrie" : "0x56e81f171bcc55a6ff8345e692c0f86e5b48e01b996cadc001622fb5e363b421",
            "stateRoot" : "0x97cfd663abf93b3dba3920ab6e04510ca186a3c49116dbe7806d317fe5e288a9",
            "timestamp" : "0x03b6",
            "transactionsTrie" : "0x56e81f171bcc55a6ff8345e692c0f86e5b48e01b996cadc001622fb5e363b421",
            "uncleHash" : "0x1dcc4de8dec75d7aab85b567b6ccd41ad312451b948a7413f0a142fd40d49347"
        },
        "genesisRLP" : "0xf901faf901f5a00000000000000000000000000000000000000000000000000000000000000000a01dcc4de8dec75d7aab85b567b6ccd41ad312451b948a7413f0a142fd40d49347942adc25665018aa1fe0e6bc666dac8fc2697ff9baa097cfd663abf93b3dba3920ab6e04510ca186a3c49116dbe7806d317fe5e288a9a056e81f171bcc55a6ff8345e692c0f86e5b48e01b996cadc001622fb5e363b421a056e81f171bcc55a6ff8345e692c0f86e5b48e01b996cadc001622fb5e363b421b9010000000000000000000000000000000000000000000000000000000000000000000000000000000000000000000000000000000000000000000000000000000000000000000000000000000000000000000000000000000000000000000000000000000000000000000000000000000000000000000000000000000000000000000000000000000000000000000000000000000000000000000000000000000000000000000000000000000000000000000000000000000000000000000000000000000000000000000000000000000000000000000000000000000000000000000000000000000000000000000000000000000000000000000000000000000000830200008083989680808203b642a056e81f171bcc55a6ff8345e692c0f86e5b48e01b996cadc001622fb5e363b421880102030405060708c0c0",
        "lastblockhash" : "0x14f419b5aca7b10a60bd6eda72e501426cb4e7a33ff52ee88ff9430094a6f2a8",
        "network" : "Frontier",
        "postState" : {
            "0x0000000000000000000000000000000000000001" : {
                "balance" : "0x00",
                "code" : "",
                "nonce" : "0x00",
                "storage" : {
                }
            },
            "0x095e7baea6a6c7c4c2dfeb977efac326af552d87" : {
                "balance" : "0x0132b3a0",
                "code" : "0x7f11223344556677889900112233445566778899001122334455667788990011226080527f18c547e4f7b0f325ad1e56f57e26c745b09a3e503d86e00e5255ff7f715d3d1c600052601d6020527f73b1693892219d736caba55bdb67216e485557ea6b6af75f37096c9aa6a5a75f6040527feeb940b1d03b21e36b0e47e79769f095fe2ab855bd91e3a38756b7d75a9c4549606052602060806080600060006001620493e0f160025560805160005559600155",
                "nonce" : "0x00",
                "storage" : {
                    "0x00" : "0x1122334455667788990011223344556677889900112233445566778899001122",
                    "0x01" : "0xa0",
                    "0x02" : "0x01"
                }
            },
            "0x2adc25665018aa1fe0e6bc666dac8fc2697ff9ba" : {
                "balance" : "0x4563918244f5aa52",
                "code" : "",
                "nonce" : "0x00",
                "storage" : {
                }
            },
            "0xa94f5374fce5edbc8e2a8697c15331677e6ebf0b" : {
                "balance" : "0x0de0b6b3a760cf0e",
                "code" : "",
                "nonce" : "0x01",
                "storage" : {
                }
            }
        },
        "pre" : {
            "0x095e7baea6a6c7c4c2dfeb977efac326af552d87" : {
                "balance" : "0x01312d00",
                "code" : "0x7f11223344556677889900112233445566778899001122334455667788990011226080527f18c547e4f7b0f325ad1e56f57e26c745b09a3e503d86e00e5255ff7f715d3d1c600052601d6020527f73b1693892219d736caba55bdb67216e485557ea6b6af75f37096c9aa6a5a75f6040527feeb940b1d03b21e36b0e47e79769f095fe2ab855bd91e3a38756b7d75a9c4549606052602060806080600060006001620493e0f160025560805160005559600155",
                "nonce" : "0x00",
                "storage" : {
                }
            },
            "0xa94f5374fce5edbc8e2a8697c15331677e6ebf0b" : {
                "balance" : "0x0de0b6b3a7640000",
                "code" : "",
                "nonce" : "0x00",
                "storage" : {
                }
            }
        }
    },
    "CallEcrecoverCheckLengthWrongV_d0g0v0_Homestead" : {
        "_info" : {
            "comment" : "",
            "filledwith" : "cpp-1.3.0+commit.4e336c9e.Linux.g++",
            "source" : "src/GenStateTestAsBcTemp/stPreCompiledContracts/CallEcrecoverCheckLengthWrongV_d0g0v0Filler.json"
        },
        "blocks" : [
            {
                "blockHeader" : {
                    "bloom" : "0x00000000000000000000000000000000000000000000000000000000000000000000000000000000000000000000000000000000000000000000000000000000000000000000000000000000000000000000000000000000000000000000000000000000000000000000000000000000000000000000000000000000000000000000000000000000000000000000000000000000000000000000000000000000000000000000000000000000000000000000000000000000000000000000000000000000000000000000000000000000000000000000000000000000000000000000000000000000000000000000000000000000000000000000000000000000",
                    "coinbase" : "0x2adc25665018aa1fe0e6bc666dac8fc2697ff9ba",
                    "difficulty" : "0x020000",
                    "extraData" : "",
                    "gasLimit" : "0x989680",
                    "gasUsed" : "0x01aa52",
                    "hash" : "0xecb8c340efd45bf2ea4e6a133d0a28f863b6e0219251aa19e28b5cd3874306bf",
                    "mixHash" : "0x2f8673d3e2322e16ee5bdd6c0c2f95f1a0b84c091a90bc97984d0ffb23f47f1a",
                    "nonce" : "0xc24e9e2f55dc2a4e",
                    "number" : "0x01",
                    "parentHash" : "0xf0167cb0e746dcc02d64172c559703e5fb730f9acc018fee1b5b0ca6b630b7cc",
                    "receiptTrie" : "0xc88b1d5790df639709c6790c8d43817b461118bc5537079f22488881946d218a",
                    "stateRoot" : "0xe3a9f6ada69c2161a0660c0b9c798321cc44608d3e6034d7ba662c6a259f6778",
                    "timestamp" : "0x03e8",
                    "transactionsTrie" : "0xd37192728eefe1f2e2362558635fa7ccf7265c44872f2a269cd9c945bcb9ecb5",
                    "uncleHash" : "0x1dcc4de8dec75d7aab85b567b6ccd41ad312451b948a7413f0a142fd40d49347"
                },
                "rlp" : "0xf90263f901f8a0f0167cb0e746dcc02d64172c559703e5fb730f9acc018fee1b5b0ca6b630b7cca01dcc4de8dec75d7aab85b567b6ccd41ad312451b948a7413f0a142fd40d49347942adc25665018aa1fe0e6bc666dac8fc2697ff9baa0e3a9f6ada69c2161a0660c0b9c798321cc44608d3e6034d7ba662c6a259f6778a0d37192728eefe1f2e2362558635fa7ccf7265c44872f2a269cd9c945bcb9ecb5a0c88b1d5790df639709c6790c8d43817b461118bc5537079f22488881946d218ab90100000000000000000000000000000000000000000000000000000000000000000000000000000000000000000000000000000000000000000000000000000000000000000000000000000000000000000000000000000000000000000000000000000000000000000000000000000000000000000000000000000000000000000000000000000000000000000000000000000000000000000000000000000000000000000000000000000000000000000000000000000000000000000000000000000000000000000000000000000000000000000000000000000000000000000000000000000000000000000000000000000000000000000000000000000000008302000001839896808301aa528203e880a02f8673d3e2322e16ee5bdd6c0c2f95f1a0b84c091a90bc97984d0ffb23f47f1a88c24e9e2f55dc2a4ef865f86380018337ba9094095e7baea6a6c7c4c2dfeb977efac326af552d87830186a0801ba03fcfff9e4085fc94af03ad71daa986e585e5b354c2b414a134e0624796a30d8ea072000b0edcceb7d4c1c5b6fed5bd5fcb74789702f3f171f1cd75c617bbb379cdc0",
                "transactions" : [
                    {
                        "data" : "",
                        "gasLimit" : "0x37ba90",
                        "gasPrice" : "0x01",
                        "nonce" : "0x00",
                        "r" : "0x3fcfff9e4085fc94af03ad71daa986e585e5b354c2b414a134e0624796a30d8e",
                        "s" : "0x72000b0edcceb7d4c1c5b6fed5bd5fcb74789702f3f171f1cd75c617bbb379cd",
                        "to" : "0x095e7baea6a6c7c4c2dfeb977efac326af552d87",
                        "v" : "0x1b",
                        "value" : "0x0186a0"
                    }
                ],
                "uncleHeaders" : [
                ]
            }
        ],
        "genesisBlockHeader" : {
            "bloom" : "0x00000000000000000000000000000000000000000000000000000000000000000000000000000000000000000000000000000000000000000000000000000000000000000000000000000000000000000000000000000000000000000000000000000000000000000000000000000000000000000000000000000000000000000000000000000000000000000000000000000000000000000000000000000000000000000000000000000000000000000000000000000000000000000000000000000000000000000000000000000000000000000000000000000000000000000000000000000000000000000000000000000000000000000000000000000000",
            "coinbase" : "0x2adc25665018aa1fe0e6bc666dac8fc2697ff9ba",
            "difficulty" : "0x020000",
            "extraData" : "0x42",
            "gasLimit" : "0x989680",
            "gasUsed" : "0x00",
            "hash" : "0xf0167cb0e746dcc02d64172c559703e5fb730f9acc018fee1b5b0ca6b630b7cc",
            "mixHash" : "0x56e81f171bcc55a6ff8345e692c0f86e5b48e01b996cadc001622fb5e363b421",
            "nonce" : "0x0102030405060708",
            "number" : "0x00",
            "parentHash" : "0x0000000000000000000000000000000000000000000000000000000000000000",
            "receiptTrie" : "0x56e81f171bcc55a6ff8345e692c0f86e5b48e01b996cadc001622fb5e363b421",
            "stateRoot" : "0x97cfd663abf93b3dba3920ab6e04510ca186a3c49116dbe7806d317fe5e288a9",
            "timestamp" : "0x03b6",
            "transactionsTrie" : "0x56e81f171bcc55a6ff8345e692c0f86e5b48e01b996cadc001622fb5e363b421",
            "uncleHash" : "0x1dcc4de8dec75d7aab85b567b6ccd41ad312451b948a7413f0a142fd40d49347"
        },
        "genesisRLP" : "0xf901faf901f5a00000000000000000000000000000000000000000000000000000000000000000a01dcc4de8dec75d7aab85b567b6ccd41ad312451b948a7413f0a142fd40d49347942adc25665018aa1fe0e6bc666dac8fc2697ff9baa097cfd663abf93b3dba3920ab6e04510ca186a3c49116dbe7806d317fe5e288a9a056e81f171bcc55a6ff8345e692c0f86e5b48e01b996cadc001622fb5e363b421a056e81f171bcc55a6ff8345e692c0f86e5b48e01b996cadc001622fb5e363b421b9010000000000000000000000000000000000000000000000000000000000000000000000000000000000000000000000000000000000000000000000000000000000000000000000000000000000000000000000000000000000000000000000000000000000000000000000000000000000000000000000000000000000000000000000000000000000000000000000000000000000000000000000000000000000000000000000000000000000000000000000000000000000000000000000000000000000000000000000000000000000000000000000000000000000000000000000000000000000000000000000000000000000000000000000000000000000830200008083989680808203b642a056e81f171bcc55a6ff8345e692c0f86e5b48e01b996cadc001622fb5e363b421880102030405060708c0c0",
        "lastblockhash" : "0xecb8c340efd45bf2ea4e6a133d0a28f863b6e0219251aa19e28b5cd3874306bf",
        "network" : "Homestead",
        "postState" : {
            "0x0000000000000000000000000000000000000001" : {
                "balance" : "0x00",
                "code" : "",
                "nonce" : "0x00",
                "storage" : {
                }
            },
            "0x095e7baea6a6c7c4c2dfeb977efac326af552d87" : {
                "balance" : "0x0132b3a0",
                "code" : "0x7f11223344556677889900112233445566778899001122334455667788990011226080527f18c547e4f7b0f325ad1e56f57e26c745b09a3e503d86e00e5255ff7f715d3d1c600052601d6020527f73b1693892219d736caba55bdb67216e485557ea6b6af75f37096c9aa6a5a75f6040527feeb940b1d03b21e36b0e47e79769f095fe2ab855bd91e3a38756b7d75a9c4549606052602060806080600060006001620493e0f160025560805160005559600155",
                "nonce" : "0x00",
                "storage" : {
                    "0x00" : "0x1122334455667788990011223344556677889900112233445566778899001122",
                    "0x01" : "0xa0",
                    "0x02" : "0x01"
                }
            },
            "0x2adc25665018aa1fe0e6bc666dac8fc2697ff9ba" : {
                "balance" : "0x4563918244f5aa52",
                "code" : "",
                "nonce" : "0x00",
                "storage" : {
                }
            },
            "0xa94f5374fce5edbc8e2a8697c15331677e6ebf0b" : {
                "balance" : "0x0de0b6b3a760cf0e",
                "code" : "",
                "nonce" : "0x01",
                "storage" : {
                }
            }
        },
        "pre" : {
            "0x095e7baea6a6c7c4c2dfeb977efac326af552d87" : {
                "balance" : "0x01312d00",
                "code" : "0x7f11223344556677889900112233445566778899001122334455667788990011226080527f18c547e4f7b0f325ad1e56f57e26c745b09a3e503d86e00e5255ff7f715d3d1c600052601d6020527f73b1693892219d736caba55bdb67216e485557ea6b6af75f37096c9aa6a5a75f6040527feeb940b1d03b21e36b0e47e79769f095fe2ab855bd91e3a38756b7d75a9c4549606052602060806080600060006001620493e0f160025560805160005559600155",
                "nonce" : "0x00",
                "storage" : {
                }
            },
            "0xa94f5374fce5edbc8e2a8697c15331677e6ebf0b" : {
                "balance" : "0x0de0b6b3a7640000",
                "code" : "",
                "nonce" : "0x00",
                "storage" : {
                }
            }
        }
    }
}