{
    "identity_to_smaller_d0g0v0_ConstantinopleFix" : {
        "_info" : {
            "comment" : "have a call to e.g. identity built-in that specifies output size less than input size. Check that the long input is totally available with RETURNDATA.  CALL is with 100000 as gas, address 4 as destination, 0 as value, 0 as in-offset, 32 as in-size, 16 as out-offset, 16 as out-size.  The returndatasize should see 32.",
            "filling-rpc-server" : "Geth-1.9.3-unstable-d5bd3838-20190830",
            "filling-tool-version" : "retesteth-0.0.1+commit.222e3073.Linux.g++",
            "lllcversion" : "Version: 0.5.0-develop.2019.8.22+commit.9709dfe0.Linux.g++",
            "source" : "src/GeneralStateTestsFiller/stPreCompiledContracts/identity_to_smallerFiller.json",
            "sourceHash" : "90a0e599317c8b1e5111e6882eec924c77194ce3530f15a6f3f8326e52967834"
        },
        "genesisBlockHeader" : {
            "bloom" : "0x00000000000000000000000000000000000000000000000000000000000000000000000000000000000000000000000000000000000000000000000000000000000000000000000000000000000000000000000000000000000000000000000000000000000000000000000000000000000000000000000000000000000000000000000000000000000000000000000000000000000000000000000000000000000000000000000000000000000000000000000000000000000000000000000000000000000000000000000000000000000000000000000000000000000000000000000000000000000000000000000000000000000000000000000000000000",
            "coinbase" : "0x3535353535353535353535353535353535353535",
            "difficulty" : "0x20000",
            "extraData" : "0x00",
            "gasLimit" : "0x5f5e100",
            "gasUsed" : "0x0",
            "hash" : "0xe44053943f96219a72f257e1639db2c69678eece7f7898bd7530311647ed34e3",
            "mixHash" : "0x0000000000000000000000000000000000000000000000000000000000000000",
            "nonce" : "0x0000000000000000",
            "number" : "0x0",
            "parentHash" : "0x0000000000000000000000000000000000000000000000000000000000000000",
            "receiptTrie" : "0x56e81f171bcc55a6ff8345e692c0f86e5b48e01b996cadc001622fb5e363b421",
            "stateRoot" : "0x83be8bdd9283db5f309a04f78428218e500d43dc40a4619c2e78ca362f405381",
            "timestamp" : "0x0",
            "transactionsTrie" : "0x56e81f171bcc55a6ff8345e692c0f86e5b48e01b996cadc001622fb5e363b421",
            "uncleHash" : "0x1dcc4de8dec75d7aab85b567b6ccd41ad312451b948a7413f0a142fd40d49347"
        },
        "pre" : {
            "0x82a978b3f5962a5b0957d9ee9eef472ee55b42f1" : {
                "balance" : "0x0de0b6b3a761fe12",
                "code" : "0x",
                "nonce" : "0x01",
                "storage" : {
                }
            },
            "0xc305c901078781c232a2a521c2af7980f8385ee9" : {
                "balance" : "0x00",
                "code" : "0x7f112233445566778899aabbccddeeff00112233445566778899aabbccddeeff00600052601060106020600060006004620186a0f1503d600055",
                "nonce" : "0x21",
                "storage" : {
                }
            }
        },
        "postState" : {
            "0xc305c901078781c232a2a521c2af7980f8385ee9" : {
                "code" : "0x7f112233445566778899aabbccddeeff00112233445566778899aabbccddeeff00600052601060106020600060006004620186a0f1503d600055",
                "nonce" : "0x21",
                "balance" : "0x00",
                "storage" : {
                    "0x00" : "0x20"
                }
            },
            "0x82a978b3f5962a5b0957d9ee9eef472ee55b42f1" : {
                "code" : "0x",
                "nonce" : "0x02",
                "balance" : "0x0de0b6b3a7615af4",
                "storage" : {
                }
            },
            "0x3535353535353535353535353535353535353535" : {
                "code" : "0x",
                "nonce" : "0x00",
                "balance" : "0x1bc16d674ec8a31e",
                "storage" : {
                }
            }
        },
        "network" : "ConstantinopleFix",
        "sealEngine" : "NoProof",
        "lastblockhash" : "0x852092a6d61a2599b28c46c24a34b2592f63ab09e7c944b5a54284da6a2ff1e7",
        "genesisRLP" : "0xf901f9f901f4a00000000000000000000000000000000000000000000000000000000000000000a01dcc4de8dec75d7aab85b567b6ccd41ad312451b948a7413f0a142fd40d49347943535353535353535353535353535353535353535a083be8bdd9283db5f309a04f78428218e500d43dc40a4619c2e78ca362f405381a056e81f171bcc55a6ff8345e692c0f86e5b48e01b996cadc001622fb5e363b421a056e81f171bcc55a6ff8345e692c0f86e5b48e01b996cadc001622fb5e363b421b901000000000000000000000000000000000000000000000000000000000000000000000000000000000000000000000000000000000000000000000000000000000000000000000000000000000000000000000000000000000000000000000000000000000000000000000000000000000000000000000000000000000000000000000000000000000000000000000000000000000000000000000000000000000000000000000000000000000000000000000000000000000000000000000000000000000000000000000000000000000000000000000000000000000000000000000000000000000000000000000000000000000000000000000000000000000083020000808405f5e100808000a00000000000000000000000000000000000000000000000000000000000000000880000000000000000c0c0",
        "blocks" : [
            {
                "rlp" : "0xf90260f901f8a0e44053943f96219a72f257e1639db2c69678eece7f7898bd7530311647ed34e3a01dcc4de8dec75d7aab85b567b6ccd41ad312451b948a7413f0a142fd40d49347943535353535353535353535353535353535353535a085b7f1548fa0aa477b8232ed6ada1e6361fab8f6a734a07efd6a8410453c191ea0ec6a57e4973f6e046d48544dbdefff8286397777cc2c8660adcdb38c6b0ddabda053c33d7d99b96b6b47f84a58febb0b1696996df22c970f9232c83453ad76d8d1b901000000000000000000000000000000000000000000000000000000000000000000000000000000000000000000000000000000000000000000000000000000000000000000000000000000000000000000000000000000000000000000000000000000000000000000000000000000000000000000000000000000000000000000000000000000000000000000000000000000000000000000000000000000000000000000000000000000000000000000000000000000000000000000000000000000000000000000000000000000000000000000000000000000000000000000000000000000000000000000000000000000000000000000000000000000000083020000018405f75e7782a31e8203e800a00000000000000000000000000000000000000000000000000000000000000000880000000000000000f862f860010183030d4094c305c901078781c232a2a521c2af7980f8385ee980801ba05082ac608c80290af68a18d44edf0526a3abc6ea3652ab46f63e8953eb813b57a06b1bc1f0b9eb8de1e19d159c9efb8607c2f24643982b112c98ade3e28af22722c0",
                "blockHeader" : {
                    "bloom" : "0x00000000000000000000000000000000000000000000000000000000000000000000000000000000000000000000000000000000000000000000000000000000000000000000000000000000000000000000000000000000000000000000000000000000000000000000000000000000000000000000000000000000000000000000000000000000000000000000000000000000000000000000000000000000000000000000000000000000000000000000000000000000000000000000000000000000000000000000000000000000000000000000000000000000000000000000000000000000000000000000000000000000000000000000000000000000",
                    "coinbase" : "0x3535353535353535353535353535353535353535",
                    "difficulty" : "0x20000",
                    "extraData" : "0x00",
                    "gasLimit" : "0x5f75e77",
                    "gasUsed" : "0xa31e",
                    "hash" : "0x852092a6d61a2599b28c46c24a34b2592f63ab09e7c944b5a54284da6a2ff1e7",
                    "mixHash" : "0x0000000000000000000000000000000000000000000000000000000000000000",
                    "nonce" : "0x0000000000000000",
                    "number" : "0x1",
                    "parentHash" : "0xe44053943f96219a72f257e1639db2c69678eece7f7898bd7530311647ed34e3",
                    "receiptTrie" : "0x53c33d7d99b96b6b47f84a58febb0b1696996df22c970f9232c83453ad76d8d1",
                    "stateRoot" : "0x85b7f1548fa0aa477b8232ed6ada1e6361fab8f6a734a07efd6a8410453c191e",
                    "timestamp" : "0x3e8",
                    "transactionsTrie" : "0xec6a57e4973f6e046d48544dbdefff8286397777cc2c8660adcdb38c6b0ddabd",
                    "uncleHash" : "0x1dcc4de8dec75d7aab85b567b6ccd41ad312451b948a7413f0a142fd40d49347"
                },
                "transactions" : [
                    {
                        "data" : "0x",
                        "gasLimit" : "0x030d40",
                        "gasPrice" : "0x01",
                        "nonce" : "0x01",
                        "secretKey" : "0x044852b2a670ade5407e78fb2863c51de9fcb96542a07186fe3aeda6bb8a116d",
                        "to" : "0xc305c901078781c232a2a521c2af7980f8385ee9",
                        "value" : "0x"
                    }
                ]
            }
        ]
    }
}