{
    "modexp_37120_37111_97_35000_d0g0v0_Byzantium" : {
        "_info" : {
            "comment" : "",
            "filledwith" : "cpp-1.3.0+commit.82b0643a.Linux.g++",
            "lllcversion" : "Version: 0.4.20-develop.2018.1.8+commit.2548228b.Linux.g++",
            "source" : "src/BlockchainTestsFiller/GeneralStateTests/stPreCompiledContracts/modexp_37120_37111_97_35000_d0g0v0Filler.json",
            "sourceHash" : "445801b74f517ea35bda15fe36f489ddc966ece470c7a6a74604833ea426a68f"
        },
        "blocks" : [
            {
                "blockHeader" : {
                    "bloom" : "0x00000000000000000000000000000000000000000000000000000000000000000000000000000000000000000000000000000000000000000000000000000000000000000000000000000000000000000000000000000000000000000000000000000000000000000000000000000000000000000000000000000000000000000000000000000000000000000000000000000000000000000000000000000000000000000000000000000000000000000000000000000000000000000000000000000000000000000000000000000000000000000000000000000000000000000000000000000000000000000000000000000000000000000000000000000000",
                    "coinbase" : "0x3535353535353535353535353535353535353535",
                    "difficulty" : "0x020000",
                    "extraData" : "",
                    "gasLimit" : "0x05f5e100",
                    "gasUsed" : "0x012490",
                    "hash" : "0xee84c596b6b9228ffaf1e2a81fa06af109cf3547f4cf513cf4f6e73bf38ea365",
                    "mixHash" : "0x6bd8d0dd062f5be03b7719557dd38ddc0ef87cf448eb4bdde0a6caab972e3ce6",
                    "nonce" : "0xcd53be103de40a14",
                    "number" : "0x01",
                    "parentHash" : "0x386d22561f5943f7fbeb0b470698495875c6ee00830b0463f88bcccbca717c89",
                    "receiptTrie" : "0xf1112e559b3c89ccad1c1f59bc7e8077f36657c23a72bc5f0f2ed46fe09593a1",
                    "stateRoot" : "0xd6669fd57ad43c870d14c3a8f0ae893dd0b6c5f14dda940b10e121e03fcc73d9",
                    "timestamp" : "0x03e8",
                    "transactionsTrie" : "0xc55631d3d8fdee455f9b762d06141dde84e8d2cbffeb3c370f98e517248f6ddb",
                    "uncleHash" : "0x1dcc4de8dec75d7aab85b567b6ccd41ad312451b948a7413f0a142fd40d49347"
                },
                "rlp" : "0xf90429f901f9a0386d22561f5943f7fbeb0b470698495875c6ee00830b0463f88bcccbca717c89a01dcc4de8dec75d7aab85b567b6ccd41ad312451b948a7413f0a142fd40d49347943535353535353535353535353535353535353535a0d6669fd57ad43c870d14c3a8f0ae893dd0b6c5f14dda940b10e121e03fcc73d9a0c55631d3d8fdee455f9b762d06141dde84e8d2cbffeb3c370f98e517248f6ddba0f1112e559b3c89ccad1c1f59bc7e8077f36657c23a72bc5f0f2ed46fe09593a1b901000000000000000000000000000000000000000000000000000000000000000000000000000000000000000000000000000000000000000000000000000000000000000000000000000000000000000000000000000000000000000000000000000000000000000000000000000000000000000000000000000000000000000000000000000000000000000000000000000000000000000000000000000000000000000000000000000000000000000000000000000000000000000000000000000000000000000000000000000000000000000000000000000000000000000000000000000000000000000000000000000000000000000000000000000000000083020000018405f5e100830124908203e880a06bd8d0dd062f5be03b7719557dd38ddc0ef87cf448eb4bdde0a6caab972e3ce688cd53be103de40a14f90229f9022601018301249094c305c901078781c232a2a521c2af7980f8385ee980b901c430c8d1da00000000000000000000000000000000000000000000000000000000000000200000000000000000000000000000000000000000000000000000000000000161000000000000000000000000000000000000000000000000000000000000008000000000000000000000000000000000000000000000000000000000000000800000000000000000000000000000000000000000000000000000000000000001ffffffffffffffffffffffffffffffffffffffffffffffffffffffffffffffffffffffffffffffffffffffffffffffffffffffffffffffffffffffffffffffffffffffffffffffffffffffffffffffffffffffffffffffffffffffffffffffffffffffffffffffffffffffffffffffffffffffffffffffffffffffffffffffa0ffffffffffffffffffffffffffffffffffffffffffffffffffffffffffffffffffffffffffffffffffffffffffffffffffffffffffffffffffffffffffffffffffffffffffffffffffffffffffffffffffffffffffffffffffffffffffffffffffffffffffffffffffffffffffffffffffffffffffffffffffffffffffffff9761000000000000000000000000000000000000000000000000000000000000001ca001497e8b88ef95cb72cdd7633cde1c763d8e38400db09b031801bfda3b4ee90ca05dca9501dfea84232562eb78ce08c799c35dfc7645644660d8956379e8277f6bc0",
                "transactions" : [
                    {
                        "data" : "0x30c8d1da00000000000000000000000000000000000000000000000000000000000000200000000000000000000000000000000000000000000000000000000000000161000000000000000000000000000000000000000000000000000000000000008000000000000000000000000000000000000000000000000000000000000000800000000000000000000000000000000000000000000000000000000000000001ffffffffffffffffffffffffffffffffffffffffffffffffffffffffffffffffffffffffffffffffffffffffffffffffffffffffffffffffffffffffffffffffffffffffffffffffffffffffffffffffffffffffffffffffffffffffffffffffffffffffffffffffffffffffffffffffffffffffffffffffffffffffffffffa0ffffffffffffffffffffffffffffffffffffffffffffffffffffffffffffffffffffffffffffffffffffffffffffffffffffffffffffffffffffffffffffffffffffffffffffffffffffffffffffffffffffffffffffffffffffffffffffffffffffffffffffffffffffffffffffffffffffffffffffffffffffffffffffff976100000000000000000000000000000000000000000000000000000000000000",
                        "gasLimit" : "0x012490",
                        "gasPrice" : "0x01",
                        "nonce" : "0x01",
                        "r" : "0x01497e8b88ef95cb72cdd7633cde1c763d8e38400db09b031801bfda3b4ee90c",
                        "s" : "0x5dca9501dfea84232562eb78ce08c799c35dfc7645644660d8956379e8277f6b",
                        "to" : "0xc305c901078781c232a2a521c2af7980f8385ee9",
                        "v" : "0x1c",
                        "value" : "0x00"
                    }
                ],
                "uncleHeaders" : [
                ]
            }
        ],
        "genesisBlockHeader" : {
            "bloom" : "0x00000000000000000000000000000000000000000000000000000000000000000000000000000000000000000000000000000000000000000000000000000000000000000000000000000000000000000000000000000000000000000000000000000000000000000000000000000000000000000000000000000000000000000000000000000000000000000000000000000000000000000000000000000000000000000000000000000000000000000000000000000000000000000000000000000000000000000000000000000000000000000000000000000000000000000000000000000000000000000000000000000000000000000000000000000000",
            "coinbase" : "0x3535353535353535353535353535353535353535",
            "difficulty" : "0x020000",
            "extraData" : "0x42",
            "gasLimit" : "0x05f5e100",
            "gasUsed" : "0x00",
            "hash" : "0x386d22561f5943f7fbeb0b470698495875c6ee00830b0463f88bcccbca717c89",
            "mixHash" : "0x56e81f171bcc55a6ff8345e692c0f86e5b48e01b996cadc001622fb5e363b421",
            "nonce" : "0x0102030405060708",
            "number" : "0x00",
            "parentHash" : "0x0000000000000000000000000000000000000000000000000000000000000000",
            "receiptTrie" : "0x56e81f171bcc55a6ff8345e692c0f86e5b48e01b996cadc001622fb5e363b421",
            "stateRoot" : "0xcef8f431270393de1dead56a74b2fb6c7ce4299c18ca642c9bcf9496bcd5401e",
            "timestamp" : "0x03b6",
            "transactionsTrie" : "0x56e81f171bcc55a6ff8345e692c0f86e5b48e01b996cadc001622fb5e363b421",
            "uncleHash" : "0x1dcc4de8dec75d7aab85b567b6ccd41ad312451b948a7413f0a142fd40d49347"
        },
        "genesisRLP" : "0xf901fbf901f6a00000000000000000000000000000000000000000000000000000000000000000a01dcc4de8dec75d7aab85b567b6ccd41ad312451b948a7413f0a142fd40d49347943535353535353535353535353535353535353535a0cef8f431270393de1dead56a74b2fb6c7ce4299c18ca642c9bcf9496bcd5401ea056e81f171bcc55a6ff8345e692c0f86e5b48e01b996cadc001622fb5e363b421a056e81f171bcc55a6ff8345e692c0f86e5b48e01b996cadc001622fb5e363b421b901000000000000000000000000000000000000000000000000000000000000000000000000000000000000000000000000000000000000000000000000000000000000000000000000000000000000000000000000000000000000000000000000000000000000000000000000000000000000000000000000000000000000000000000000000000000000000000000000000000000000000000000000000000000000000000000000000000000000000000000000000000000000000000000000000000000000000000000000000000000000000000000000000000000000000000000000000000000000000000000000000000000000000000000000000000000083020000808405f5e100808203b642a056e81f171bcc55a6ff8345e692c0f86e5b48e01b996cadc001622fb5e363b421880102030405060708c0c0",
        "lastblockhash" : "0xee84c596b6b9228ffaf1e2a81fa06af109cf3547f4cf513cf4f6e73bf38ea365",
        "network" : "Byzantium",
        "postState" : {
            "0x0000000000000000000000000000000000000001" : {
                "balance" : "0x01",
                "code" : "",
                "nonce" : "0x00",
                "storage" : {
                }
            },
            "0x0000000000000000000000000000000000000002" : {
                "balance" : "0x01",
                "code" : "",
                "nonce" : "0x00",
                "storage" : {
                }
            },
            "0x0000000000000000000000000000000000000003" : {
                "balance" : "0x01",
                "code" : "",
                "nonce" : "0x00",
                "storage" : {
                }
            },
            "0x0000000000000000000000000000000000000004" : {
                "balance" : "0x01",
                "code" : "",
                "nonce" : "0x00",
                "storage" : {
                }
            },
            "0x0000000000000000000000000000000000000005" : {
                "balance" : "0x01",
                "code" : "",
                "nonce" : "0x00",
                "storage" : {
                }
            },
            "0x0000000000000000000000000000000000000006" : {
                "balance" : "0x01",
                "code" : "",
                "nonce" : "0x00",
                "storage" : {
                }
            },
            "0x0000000000000000000000000000000000000007" : {
                "balance" : "0x01",
                "code" : "",
                "nonce" : "0x00",
                "storage" : {
                }
            },
            "0x0000000000000000000000000000000000000008" : {
                "balance" : "0x01",
                "code" : "",
                "nonce" : "0x00",
                "storage" : {
                }
            },
            "0x3535353535353535353535353535353535353535" : {
                "balance" : "0x29a2241af62f278a",
                "code" : "",
                "nonce" : "0x00",
                "storage" : {
                }
            },
            "0x82a978b3f5962a5b0957d9ee9eef472ee55b42f1" : {
                "balance" : "0x0de0b6b3a760d876",
                "code" : "",
                "nonce" : "0x02",
                "storage" : {
                }
            },
            "0xc305c901078781c232a2a521c2af7980f8385ee9" : {
                "balance" : "0x00",
                "code" : "0x600035601c52740100000000000000000000000000000000000000006020526fffffffffffffffffffffffffffffffff6040527fffffffffffffffffffffffffffffffff000000000000000000000000000000016060527402540be3fffffffffffffffffffffffffdabf41c006080527ffffffffffffffffffffffffdabf41c00000000000000000000000002540be40060a0526330c8d1da600051141561012c576101856004356004013511151558576004356004013560200160043560040161014037600161034061014051610160600060056305f5e0fff11558576001610320526103206021806103808284600060046015f150505061038080516020820120905060005561038060206020820352604081510160206001820306601f820103905060208203f350005b",
                "nonce" : "0x01",
                "storage" : {
                }
            }
        },
        "pre" : {
            "0x0000000000000000000000000000000000000001" : {
                "balance" : "0x01",
                "code" : "",
                "nonce" : "0x00",
                "storage" : {
                }
            },
            "0x0000000000000000000000000000000000000002" : {
                "balance" : "0x01",
                "code" : "",
                "nonce" : "0x00",
                "storage" : {
                }
            },
            "0x0000000000000000000000000000000000000003" : {
                "balance" : "0x01",
                "code" : "",
                "nonce" : "0x00",
                "storage" : {
                }
            },
            "0x0000000000000000000000000000000000000004" : {
                "balance" : "0x01",
                "code" : "",
                "nonce" : "0x00",
                "storage" : {
                }
            },
            "0x0000000000000000000000000000000000000005" : {
                "balance" : "0x01",
                "code" : "",
                "nonce" : "0x00",
                "storage" : {
                }
            },
            "0x0000000000000000000000000000000000000006" : {
                "balance" : "0x01",
                "code" : "",
                "nonce" : "0x00",
                "storage" : {
                }
            },
            "0x0000000000000000000000000000000000000007" : {
                "balance" : "0x01",
                "code" : "",
                "nonce" : "0x00",
                "storage" : {
                }
            },
            "0x0000000000000000000000000000000000000008" : {
                "balance" : "0x01",
                "code" : "",
                "nonce" : "0x00",
                "storage" : {
                }
            },
            "0x3535353535353535353535353535353535353535" : {
                "balance" : "0x0202fa",
                "code" : "",
                "nonce" : "0x00",
                "storage" : {
                }
            },
            "0x82a978b3f5962a5b0957d9ee9eef472ee55b42f1" : {
                "balance" : "0x0de0b6b3a761fd06",
                "code" : "",
                "nonce" : "0x01",
                "storage" : {
                }
            },
            "0xc305c901078781c232a2a521c2af7980f8385ee9" : {
                "balance" : "0x00",
                "code" : "0x600035601c52740100000000000000000000000000000000000000006020526fffffffffffffffffffffffffffffffff6040527fffffffffffffffffffffffffffffffff000000000000000000000000000000016060527402540be3fffffffffffffffffffffffffdabf41c006080527ffffffffffffffffffffffffdabf41c00000000000000000000000002540be40060a0526330c8d1da600051141561012c576101856004356004013511151558576004356004013560200160043560040161014037600161034061014051610160600060056305f5e0fff11558576001610320526103206021806103808284600060046015f150505061038080516020820120905060005561038060206020820352604081510160206001820306601f820103905060208203f350005b",
                "nonce" : "0x01",
                "storage" : {
                }
            }
        }
    }
}