{
    "modexp_d29g2v0_Byzantium" : {
        "_info" : {
            "comment" : "",
            "filledwith" : "cpp-1.3.0+commit.e5cf5910.Linux.g++",
            "lllcversion" : "Version: 0.4.18-develop.2017.9.25+commit.a72237f2.Linux.g++",
            "source" : "src/BlockchainTestsFiller/GeneralStateTests/stPreCompiledContracts/modexp_d29g2v0Filler.json"
        },
        "blocks" : [
            {
                "blockHeader" : {
                    "bloom" : "0x00000000000000000000000000000000000000000000000000000000000000000000000000000000000000000000000000000000000000000000000000000000000000000000000000000000000000000000000000000000000000000000000000000000000000000000000000000000000000000000000000000000000000000000000000000000000000000000000000000000000000000000000000000000000000000000000000000000000000000000000000000000000000000000000000000000000000000000000000000000000000000000000000000000000000000000000000000000000000000000000000000000000000000000000000000000",
                    "coinbase" : "0x2adc25665018aa1fe0e6bc666dac8fc2697ff9ba",
                    "difficulty" : "0x020000",
                    "extraData" : "",
                    "gasLimit" : "0x02540be400",
                    "gasUsed" : "0xb841",
                    "hash" : "0x3e29274c714b17a7c833f5784b40920b23557ca30cb4dbd2803b1280c222d278",
                    "mixHash" : "0x2a2d17d00bdd4b5b90dfc05e6486843b56ecc5d7a677e7a8c4427a726be40ffe",
                    "nonce" : "0xdb4aa3928d185b37",
                    "number" : "0x01",
                    "parentHash" : "0x70fd8962467cac8e2412f97cc4f775613ccc23d5340252ee5cca67b868639273",
                    "receiptTrie" : "0x62203b0f5618301b94309d80d02bedb1332969699aaa022cbd0957db899b3055",
                    "stateRoot" : "0x1fb1510c4db53ccef9a660c59fee78c5ecd2e3c02b10baa89fb8208515529d39",
                    "timestamp" : "0x03e8",
                    "transactionsTrie" : "0xe717dfd6edc49c72276facf2c2a09de0cdb85a81e192ef4a53836e77df7f44ec",
                    "uncleHash" : "0x1dcc4de8dec75d7aab85b567b6ccd41ad312451b948a7413f0a142fd40d49347"
                },
                "rlp" : "0xf902a2f901f9a070fd8962467cac8e2412f97cc4f775613ccc23d5340252ee5cca67b868639273a01dcc4de8dec75d7aab85b567b6ccd41ad312451b948a7413f0a142fd40d49347942adc25665018aa1fe0e6bc666dac8fc2697ff9baa01fb1510c4db53ccef9a660c59fee78c5ecd2e3c02b10baa89fb8208515529d39a0e717dfd6edc49c72276facf2c2a09de0cdb85a81e192ef4a53836e77df7f44eca062203b0f5618301b94309d80d02bedb1332969699aaa022cbd0957db899b3055b901000000000000000000000000000000000000000000000000000000000000000000000000000000000000000000000000000000000000000000000000000000000000000000000000000000000000000000000000000000000000000000000000000000000000000000000000000000000000000000000000000000000000000000000000000000000000000000000000000000000000000000000000000000000000000000000000000000000000000000000000000000000000000000000000000000000000000000000000000000000000000000000000000000000000000000000000000000000000000000000000000000000000000000000000000000000083020000018502540be40082b8418203e880a02a2d17d00bdd4b5b90dfc05e6486843b56ecc5d7a677e7a8c4427a726be40ffe88db4aa3928d185b37f8a3f8a180018301adb094100000000000000000000000000000000000000080b840000000000000000000000000000000000000000000000000000000000000000000000000000000000000000000000000000000000000000000000400000000001ba0187a02b824360c77dc66dd1dbf132a83a1baccabbda5ab914e9bf113c5c54654a048658c8a659a250cb110c9175f2994de25ccffd3960dc301fa3c285892377058c0",
                "transactions" : [
                    {
                        "data" : "0x00000000000000000000000000000000000000000000000000000000000000000000000000000000000000000000000000000000000000000000040000000000",
                        "gasLimit" : "0x01adb0",
                        "gasPrice" : "0x01",
                        "nonce" : "0x00",
                        "r" : "0x187a02b824360c77dc66dd1dbf132a83a1baccabbda5ab914e9bf113c5c54654",
                        "s" : "0x48658c8a659a250cb110c9175f2994de25ccffd3960dc301fa3c285892377058",
                        "to" : "0x1000000000000000000000000000000000000000",
                        "v" : "0x1b",
                        "value" : "0x00"
                    }
                ],
                "uncleHeaders" : [
                ]
            }
        ],
        "genesisBlockHeader" : {
            "bloom" : "0x00000000000000000000000000000000000000000000000000000000000000000000000000000000000000000000000000000000000000000000000000000000000000000000000000000000000000000000000000000000000000000000000000000000000000000000000000000000000000000000000000000000000000000000000000000000000000000000000000000000000000000000000000000000000000000000000000000000000000000000000000000000000000000000000000000000000000000000000000000000000000000000000000000000000000000000000000000000000000000000000000000000000000000000000000000000",
            "coinbase" : "0x2adc25665018aa1fe0e6bc666dac8fc2697ff9ba",
            "difficulty" : "0x020000",
            "extraData" : "0x42",
            "gasLimit" : "0x02540be400",
            "gasUsed" : "0x00",
            "hash" : "0x70fd8962467cac8e2412f97cc4f775613ccc23d5340252ee5cca67b868639273",
            "mixHash" : "0x56e81f171bcc55a6ff8345e692c0f86e5b48e01b996cadc001622fb5e363b421",
            "nonce" : "0x0102030405060708",
            "number" : "0x00",
            "parentHash" : "0x0000000000000000000000000000000000000000000000000000000000000000",
            "receiptTrie" : "0x56e81f171bcc55a6ff8345e692c0f86e5b48e01b996cadc001622fb5e363b421",
            "stateRoot" : "0xb0afba507e6fef0e690450e0c590ea05c53f4d93ea93a7b92449c437591484ca",
            "timestamp" : "0x03b6",
            "transactionsTrie" : "0x56e81f171bcc55a6ff8345e692c0f86e5b48e01b996cadc001622fb5e363b421",
            "uncleHash" : "0x1dcc4de8dec75d7aab85b567b6ccd41ad312451b948a7413f0a142fd40d49347"
        },
        "genesisRLP" : "0xf901fcf901f7a00000000000000000000000000000000000000000000000000000000000000000a01dcc4de8dec75d7aab85b567b6ccd41ad312451b948a7413f0a142fd40d49347942adc25665018aa1fe0e6bc666dac8fc2697ff9baa0b0afba507e6fef0e690450e0c590ea05c53f4d93ea93a7b92449c437591484caa056e81f171bcc55a6ff8345e692c0f86e5b48e01b996cadc001622fb5e363b421a056e81f171bcc55a6ff8345e692c0f86e5b48e01b996cadc001622fb5e363b421b901000000000000000000000000000000000000000000000000000000000000000000000000000000000000000000000000000000000000000000000000000000000000000000000000000000000000000000000000000000000000000000000000000000000000000000000000000000000000000000000000000000000000000000000000000000000000000000000000000000000000000000000000000000000000000000000000000000000000000000000000000000000000000000000000000000000000000000000000000000000000000000000000000000000000000000000000000000000000000000000000000000000000000000000000000000000083020000808502540be400808203b642a056e81f171bcc55a6ff8345e692c0f86e5b48e01b996cadc001622fb5e363b421880102030405060708c0c0",
        "lastblockhash" : "0x3e29274c714b17a7c833f5784b40920b23557ca30cb4dbd2803b1280c222d278",
        "network" : "Byzantium",
        "postState" : {
            "0x1000000000000000000000000000000000000000" : {
                "balance" : "0x00",
                "code" : "0x36600060003760206103e8366000600060055af26001556103e851600255",
                "nonce" : "0x00",
                "storage" : {
                    "0x01" : "0x01"
                }
            },
            "0x2adc25665018aa1fe0e6bc666dac8fc2697ff9ba" : {
                "balance" : "0x29a2241af62cb841",
                "code" : "",
                "nonce" : "0x00",
                "storage" : {
                }
            },
            "0xa94f5374fce5edbc8e2a8697c15331677e6ebf0b" : {
                "balance" : "0x3635c9adc5de9f47bf",
                "code" : "",
                "nonce" : "0x01",
                "storage" : {
                }
            }
        },
        "pre" : {
            "0x1000000000000000000000000000000000000000" : {
                "balance" : "0x00",
                "code" : "0x36600060003760206103e8366000600060055af26001556103e851600255",
                "nonce" : "0x00",
                "storage" : {
                }
            },
            "0xa94f5374fce5edbc8e2a8697c15331677e6ebf0b" : {
                "balance" : "0x3635c9adc5dea00000",
                "code" : "",
                "nonce" : "0x00",
                "storage" : {
                }
            }
        }
    },
    "modexp_d29g2v0_EIP150" : {
        "_info" : {
            "comment" : "",
            "filledwith" : "cpp-1.3.0+commit.e5cf5910.Linux.g++",
            "lllcversion" : "Version: 0.4.18-develop.2017.9.25+commit.a72237f2.Linux.g++",
            "source" : "src/BlockchainTestsFiller/GeneralStateTests/stPreCompiledContracts/modexp_d29g2v0Filler.json"
        },
        "blocks" : [
            {
                "blockHeader" : {
                    "bloom" : "0x00000000000000000000000000000000000000000000000000000000000000000000000000000000000000000000000000000000000000000000000000000000000000000000000000000000000000000000000000000000000000000000000000000000000000000000000000000000000000000000000000000000000000000000000000000000000000000000000000000000000000000000000000000000000000000000000000000000000000000000000000000000000000000000000000000000000000000000000000000000000000000000000000000000000000000000000000000000000000000000000000000000000000000000000000000000",
                    "coinbase" : "0x2adc25665018aa1fe0e6bc666dac8fc2697ff9ba",
                    "difficulty" : "0x020000",
                    "extraData" : "",
                    "gasLimit" : "0x02540be400",
                    "gasUsed" : "0xb841",
                    "hash" : "0x93946d19152d01fd73c7e0fe053eaff3dacdfccec205c8aa91a9b96c0bc7d5aa",
                    "mixHash" : "0x9c3ec2d60c10cdde24ed8ffc5e1dad62e15e5366ad3a8b7506e3a0c03bae0be1",
                    "nonce" : "0x80cb94fb5ca307e5",
                    "number" : "0x01",
                    "parentHash" : "0x70fd8962467cac8e2412f97cc4f775613ccc23d5340252ee5cca67b868639273",
                    "receiptTrie" : "0x3a4426a01220b01801cab4dec10092b025798cb1b5f506ea310fe387f4dfcc85",
                    "stateRoot" : "0x41214e18c1e664353bc4e8e38c1abd74e4cea876afc4d894bcaae34adeac40af",
                    "timestamp" : "0x03e8",
                    "transactionsTrie" : "0xe717dfd6edc49c72276facf2c2a09de0cdb85a81e192ef4a53836e77df7f44ec",
                    "uncleHash" : "0x1dcc4de8dec75d7aab85b567b6ccd41ad312451b948a7413f0a142fd40d49347"
                },
                "rlp" : "0xf902a2f901f9a070fd8962467cac8e2412f97cc4f775613ccc23d5340252ee5cca67b868639273a01dcc4de8dec75d7aab85b567b6ccd41ad312451b948a7413f0a142fd40d49347942adc25665018aa1fe0e6bc666dac8fc2697ff9baa041214e18c1e664353bc4e8e38c1abd74e4cea876afc4d894bcaae34adeac40afa0e717dfd6edc49c72276facf2c2a09de0cdb85a81e192ef4a53836e77df7f44eca03a4426a01220b01801cab4dec10092b025798cb1b5f506ea310fe387f4dfcc85b901000000000000000000000000000000000000000000000000000000000000000000000000000000000000000000000000000000000000000000000000000000000000000000000000000000000000000000000000000000000000000000000000000000000000000000000000000000000000000000000000000000000000000000000000000000000000000000000000000000000000000000000000000000000000000000000000000000000000000000000000000000000000000000000000000000000000000000000000000000000000000000000000000000000000000000000000000000000000000000000000000000000000000000000000000000000083020000018502540be40082b8418203e880a09c3ec2d60c10cdde24ed8ffc5e1dad62e15e5366ad3a8b7506e3a0c03bae0be18880cb94fb5ca307e5f8a3f8a180018301adb094100000000000000000000000000000000000000080b840000000000000000000000000000000000000000000000000000000000000000000000000000000000000000000000000000000000000000000000400000000001ba0187a02b824360c77dc66dd1dbf132a83a1baccabbda5ab914e9bf113c5c54654a048658c8a659a250cb110c9175f2994de25ccffd3960dc301fa3c285892377058c0",
                "transactions" : [
                    {
                        "data" : "0x00000000000000000000000000000000000000000000000000000000000000000000000000000000000000000000000000000000000000000000040000000000",
                        "gasLimit" : "0x01adb0",
                        "gasPrice" : "0x01",
                        "nonce" : "0x00",
                        "r" : "0x187a02b824360c77dc66dd1dbf132a83a1baccabbda5ab914e9bf113c5c54654",
                        "s" : "0x48658c8a659a250cb110c9175f2994de25ccffd3960dc301fa3c285892377058",
                        "to" : "0x1000000000000000000000000000000000000000",
                        "v" : "0x1b",
                        "value" : "0x00"
                    }
                ],
                "uncleHeaders" : [
                ]
            }
        ],
        "genesisBlockHeader" : {
            "bloom" : "0x00000000000000000000000000000000000000000000000000000000000000000000000000000000000000000000000000000000000000000000000000000000000000000000000000000000000000000000000000000000000000000000000000000000000000000000000000000000000000000000000000000000000000000000000000000000000000000000000000000000000000000000000000000000000000000000000000000000000000000000000000000000000000000000000000000000000000000000000000000000000000000000000000000000000000000000000000000000000000000000000000000000000000000000000000000000",
            "coinbase" : "0x2adc25665018aa1fe0e6bc666dac8fc2697ff9ba",
            "difficulty" : "0x020000",
            "extraData" : "0x42",
            "gasLimit" : "0x02540be400",
            "gasUsed" : "0x00",
            "hash" : "0x70fd8962467cac8e2412f97cc4f775613ccc23d5340252ee5cca67b868639273",
            "mixHash" : "0x56e81f171bcc55a6ff8345e692c0f86e5b48e01b996cadc001622fb5e363b421",
            "nonce" : "0x0102030405060708",
            "number" : "0x00",
            "parentHash" : "0x0000000000000000000000000000000000000000000000000000000000000000",
            "receiptTrie" : "0x56e81f171bcc55a6ff8345e692c0f86e5b48e01b996cadc001622fb5e363b421",
            "stateRoot" : "0xb0afba507e6fef0e690450e0c590ea05c53f4d93ea93a7b92449c437591484ca",
            "timestamp" : "0x03b6",
            "transactionsTrie" : "0x56e81f171bcc55a6ff8345e692c0f86e5b48e01b996cadc001622fb5e363b421",
            "uncleHash" : "0x1dcc4de8dec75d7aab85b567b6ccd41ad312451b948a7413f0a142fd40d49347"
        },
        "genesisRLP" : "0xf901fcf901f7a00000000000000000000000000000000000000000000000000000000000000000a01dcc4de8dec75d7aab85b567b6ccd41ad312451b948a7413f0a142fd40d49347942adc25665018aa1fe0e6bc666dac8fc2697ff9baa0b0afba507e6fef0e690450e0c590ea05c53f4d93ea93a7b92449c437591484caa056e81f171bcc55a6ff8345e692c0f86e5b48e01b996cadc001622fb5e363b421a056e81f171bcc55a6ff8345e692c0f86e5b48e01b996cadc001622fb5e363b421b901000000000000000000000000000000000000000000000000000000000000000000000000000000000000000000000000000000000000000000000000000000000000000000000000000000000000000000000000000000000000000000000000000000000000000000000000000000000000000000000000000000000000000000000000000000000000000000000000000000000000000000000000000000000000000000000000000000000000000000000000000000000000000000000000000000000000000000000000000000000000000000000000000000000000000000000000000000000000000000000000000000000000000000000000000000000083020000808502540be400808203b642a056e81f171bcc55a6ff8345e692c0f86e5b48e01b996cadc001622fb5e363b421880102030405060708c0c0",
        "lastblockhash" : "0x93946d19152d01fd73c7e0fe053eaff3dacdfccec205c8aa91a9b96c0bc7d5aa",
        "network" : "EIP150",
        "postState" : {
            "0x1000000000000000000000000000000000000000" : {
                "balance" : "0x00",
                "code" : "0x36600060003760206103e8366000600060055af26001556103e851600255",
                "nonce" : "0x00",
                "storage" : {
                    "0x01" : "0x01"
                }
            },
            "0x2adc25665018aa1fe0e6bc666dac8fc2697ff9ba" : {
                "balance" : "0x4563918244f4b841",
                "code" : "",
                "nonce" : "0x00",
                "storage" : {
                }
            },
            "0xa94f5374fce5edbc8e2a8697c15331677e6ebf0b" : {
                "balance" : "0x3635c9adc5de9f47bf",
                "code" : "",
                "nonce" : "0x01",
                "storage" : {
                }
            }
        },
        "pre" : {
            "0x1000000000000000000000000000000000000000" : {
                "balance" : "0x00",
                "code" : "0x36600060003760206103e8366000600060055af26001556103e851600255",
                "nonce" : "0x00",
                "storage" : {
                }
            },
            "0xa94f5374fce5edbc8e2a8697c15331677e6ebf0b" : {
                "balance" : "0x3635c9adc5dea00000",
                "code" : "",
                "nonce" : "0x00",
                "storage" : {
                }
            }
        }
    },
    "modexp_d29g2v0_EIP158" : {
        "_info" : {
            "comment" : "",
            "filledwith" : "cpp-1.3.0+commit.e5cf5910.Linux.g++",
            "lllcversion" : "Version: 0.4.18-develop.2017.9.25+commit.a72237f2.Linux.g++",
            "source" : "src/BlockchainTestsFiller/GeneralStateTests/stPreCompiledContracts/modexp_d29g2v0Filler.json"
        },
        "blocks" : [
            {
                "blockHeader" : {
                    "bloom" : "0x00000000000000000000000000000000000000000000000000000000000000000000000000000000000000000000000000000000000000000000000000000000000000000000000000000000000000000000000000000000000000000000000000000000000000000000000000000000000000000000000000000000000000000000000000000000000000000000000000000000000000000000000000000000000000000000000000000000000000000000000000000000000000000000000000000000000000000000000000000000000000000000000000000000000000000000000000000000000000000000000000000000000000000000000000000000",
                    "coinbase" : "0x2adc25665018aa1fe0e6bc666dac8fc2697ff9ba",
                    "difficulty" : "0x020000",
                    "extraData" : "",
                    "gasLimit" : "0x02540be400",
                    "gasUsed" : "0xb841",
                    "hash" : "0x996cdd2883352c01089a5a108374ab55aabece5552834ef4bd21697b56c50ff3",
                    "mixHash" : "0xf7dd6612915dcaaf8cbdb23eee1535cc52ed77a07b2fba8ea82233907a1f324f",
                    "nonce" : "0x7b7635e27c0ece43",
                    "number" : "0x01",
                    "parentHash" : "0x70fd8962467cac8e2412f97cc4f775613ccc23d5340252ee5cca67b868639273",
                    "receiptTrie" : "0x3a4426a01220b01801cab4dec10092b025798cb1b5f506ea310fe387f4dfcc85",
                    "stateRoot" : "0x41214e18c1e664353bc4e8e38c1abd74e4cea876afc4d894bcaae34adeac40af",
                    "timestamp" : "0x03e8",
                    "transactionsTrie" : "0xe717dfd6edc49c72276facf2c2a09de0cdb85a81e192ef4a53836e77df7f44ec",
                    "uncleHash" : "0x1dcc4de8dec75d7aab85b567b6ccd41ad312451b948a7413f0a142fd40d49347"
                },
                "rlp" : "0xf902a2f901f9a070fd8962467cac8e2412f97cc4f775613ccc23d5340252ee5cca67b868639273a01dcc4de8dec75d7aab85b567b6ccd41ad312451b948a7413f0a142fd40d49347942adc25665018aa1fe0e6bc666dac8fc2697ff9baa041214e18c1e664353bc4e8e38c1abd74e4cea876afc4d894bcaae34adeac40afa0e717dfd6edc49c72276facf2c2a09de0cdb85a81e192ef4a53836e77df7f44eca03a4426a01220b01801cab4dec10092b025798cb1b5f506ea310fe387f4dfcc85b901000000000000000000000000000000000000000000000000000000000000000000000000000000000000000000000000000000000000000000000000000000000000000000000000000000000000000000000000000000000000000000000000000000000000000000000000000000000000000000000000000000000000000000000000000000000000000000000000000000000000000000000000000000000000000000000000000000000000000000000000000000000000000000000000000000000000000000000000000000000000000000000000000000000000000000000000000000000000000000000000000000000000000000000000000000000083020000018502540be40082b8418203e880a0f7dd6612915dcaaf8cbdb23eee1535cc52ed77a07b2fba8ea82233907a1f324f887b7635e27c0ece43f8a3f8a180018301adb094100000000000000000000000000000000000000080b840000000000000000000000000000000000000000000000000000000000000000000000000000000000000000000000000000000000000000000000400000000001ba0187a02b824360c77dc66dd1dbf132a83a1baccabbda5ab914e9bf113c5c54654a048658c8a659a250cb110c9175f2994de25ccffd3960dc301fa3c285892377058c0",
                "transactions" : [
                    {
                        "data" : "0x00000000000000000000000000000000000000000000000000000000000000000000000000000000000000000000000000000000000000000000040000000000",
                        "gasLimit" : "0x01adb0",
                        "gasPrice" : "0x01",
                        "nonce" : "0x00",
                        "r" : "0x187a02b824360c77dc66dd1dbf132a83a1baccabbda5ab914e9bf113c5c54654",
                        "s" : "0x48658c8a659a250cb110c9175f2994de25ccffd3960dc301fa3c285892377058",
                        "to" : "0x1000000000000000000000000000000000000000",
                        "v" : "0x1b",
                        "value" : "0x00"
                    }
                ],
                "uncleHeaders" : [
                ]
            }
        ],
        "genesisBlockHeader" : {
            "bloom" : "0x00000000000000000000000000000000000000000000000000000000000000000000000000000000000000000000000000000000000000000000000000000000000000000000000000000000000000000000000000000000000000000000000000000000000000000000000000000000000000000000000000000000000000000000000000000000000000000000000000000000000000000000000000000000000000000000000000000000000000000000000000000000000000000000000000000000000000000000000000000000000000000000000000000000000000000000000000000000000000000000000000000000000000000000000000000000",
            "coinbase" : "0x2adc25665018aa1fe0e6bc666dac8fc2697ff9ba",
            "difficulty" : "0x020000",
            "extraData" : "0x42",
            "gasLimit" : "0x02540be400",
            "gasUsed" : "0x00",
            "hash" : "0x70fd8962467cac8e2412f97cc4f775613ccc23d5340252ee5cca67b868639273",
            "mixHash" : "0x56e81f171bcc55a6ff8345e692c0f86e5b48e01b996cadc001622fb5e363b421",
            "nonce" : "0x0102030405060708",
            "number" : "0x00",
            "parentHash" : "0x0000000000000000000000000000000000000000000000000000000000000000",
            "receiptTrie" : "0x56e81f171bcc55a6ff8345e692c0f86e5b48e01b996cadc001622fb5e363b421",
            "stateRoot" : "0xb0afba507e6fef0e690450e0c590ea05c53f4d93ea93a7b92449c437591484ca",
            "timestamp" : "0x03b6",
            "transactionsTrie" : "0x56e81f171bcc55a6ff8345e692c0f86e5b48e01b996cadc001622fb5e363b421",
            "uncleHash" : "0x1dcc4de8dec75d7aab85b567b6ccd41ad312451b948a7413f0a142fd40d49347"
        },
        "genesisRLP" : "0xf901fcf901f7a00000000000000000000000000000000000000000000000000000000000000000a01dcc4de8dec75d7aab85b567b6ccd41ad312451b948a7413f0a142fd40d49347942adc25665018aa1fe0e6bc666dac8fc2697ff9baa0b0afba507e6fef0e690450e0c590ea05c53f4d93ea93a7b92449c437591484caa056e81f171bcc55a6ff8345e692c0f86e5b48e01b996cadc001622fb5e363b421a056e81f171bcc55a6ff8345e692c0f86e5b48e01b996cadc001622fb5e363b421b901000000000000000000000000000000000000000000000000000000000000000000000000000000000000000000000000000000000000000000000000000000000000000000000000000000000000000000000000000000000000000000000000000000000000000000000000000000000000000000000000000000000000000000000000000000000000000000000000000000000000000000000000000000000000000000000000000000000000000000000000000000000000000000000000000000000000000000000000000000000000000000000000000000000000000000000000000000000000000000000000000000000000000000000000000000000083020000808502540be400808203b642a056e81f171bcc55a6ff8345e692c0f86e5b48e01b996cadc001622fb5e363b421880102030405060708c0c0",
        "lastblockhash" : "0x996cdd2883352c01089a5a108374ab55aabece5552834ef4bd21697b56c50ff3",
        "network" : "EIP158",
        "postState" : {
            "0x1000000000000000000000000000000000000000" : {
                "balance" : "0x00",
                "code" : "0x36600060003760206103e8366000600060055af26001556103e851600255",
                "nonce" : "0x00",
                "storage" : {
                    "0x01" : "0x01"
                }
            },
            "0x2adc25665018aa1fe0e6bc666dac8fc2697ff9ba" : {
                "balance" : "0x4563918244f4b841",
                "code" : "",
                "nonce" : "0x00",
                "storage" : {
                }
            },
            "0xa94f5374fce5edbc8e2a8697c15331677e6ebf0b" : {
                "balance" : "0x3635c9adc5de9f47bf",
                "code" : "",
                "nonce" : "0x01",
                "storage" : {
                }
            }
        },
        "pre" : {
            "0x1000000000000000000000000000000000000000" : {
                "balance" : "0x00",
                "code" : "0x36600060003760206103e8366000600060055af26001556103e851600255",
                "nonce" : "0x00",
                "storage" : {
                }
            },
            "0xa94f5374fce5edbc8e2a8697c15331677e6ebf0b" : {
                "balance" : "0x3635c9adc5dea00000",
                "code" : "",
                "nonce" : "0x00",
                "storage" : {
                }
            }
        }
    },
    "modexp_d29g2v0_Frontier" : {
        "_info" : {
            "comment" : "",
            "filledwith" : "cpp-1.3.0+commit.e5cf5910.Linux.g++",
            "lllcversion" : "Version: 0.4.18-develop.2017.9.25+commit.a72237f2.Linux.g++",
            "source" : "src/BlockchainTestsFiller/GeneralStateTests/stPreCompiledContracts/modexp_d29g2v0Filler.json"
        },
        "blocks" : [
            {
                "blockHeader" : {
                    "bloom" : "0x00000000000000000000000000000000000000000000000000000000000000000000000000000000000000000000000000000000000000000000000000000000000000000000000000000000000000000000000000000000000000000000000000000000000000000000000000000000000000000000000000000000000000000000000000000000000000000000000000000000000000000000000000000000000000000000000000000000000000000000000000000000000000000000000000000000000000000000000000000000000000000000000000000000000000000000000000000000000000000000000000000000000000000000000000000000",
                    "coinbase" : "0x2adc25665018aa1fe0e6bc666dac8fc2697ff9ba",
                    "difficulty" : "0x020000",
                    "extraData" : "",
                    "gasLimit" : "0x02540be400",
                    "gasUsed" : "0x01adb0",
                    "hash" : "0xeb92a8ec1ebd75a9b2b40444e27fa4c05ef487a48a12b0e2594f0e75e1d58fa9",
                    "mixHash" : "0x75e2ae5344ba6d1dbbfd75a22b086cdefae77f847563bf4de72edf47afce9d78",
                    "nonce" : "0x26f7e5450aa80f40",
                    "number" : "0x01",
                    "parentHash" : "0x70fd8962467cac8e2412f97cc4f775613ccc23d5340252ee5cca67b868639273",
                    "receiptTrie" : "0xa3cbb19555128c0db81d7b70a389d7d521bace44627f10a6fbb1010d0449ba28",
                    "stateRoot" : "0xfa8085ce88446f5b463f18175bb2aba993c5fd16a450699e40cc4f9c7a78db9c",
                    "timestamp" : "0x03e8",
                    "transactionsTrie" : "0xe717dfd6edc49c72276facf2c2a09de0cdb85a81e192ef4a53836e77df7f44ec",
                    "uncleHash" : "0x1dcc4de8dec75d7aab85b567b6ccd41ad312451b948a7413f0a142fd40d49347"
                },
                "rlp" : "0xf902a3f901faa070fd8962467cac8e2412f97cc4f775613ccc23d5340252ee5cca67b868639273a01dcc4de8dec75d7aab85b567b6ccd41ad312451b948a7413f0a142fd40d49347942adc25665018aa1fe0e6bc666dac8fc2697ff9baa0fa8085ce88446f5b463f18175bb2aba993c5fd16a450699e40cc4f9c7a78db9ca0e717dfd6edc49c72276facf2c2a09de0cdb85a81e192ef4a53836e77df7f44eca0a3cbb19555128c0db81d7b70a389d7d521bace44627f10a6fbb1010d0449ba28b901000000000000000000000000000000000000000000000000000000000000000000000000000000000000000000000000000000000000000000000000000000000000000000000000000000000000000000000000000000000000000000000000000000000000000000000000000000000000000000000000000000000000000000000000000000000000000000000000000000000000000000000000000000000000000000000000000000000000000000000000000000000000000000000000000000000000000000000000000000000000000000000000000000000000000000000000000000000000000000000000000000000000000000000000000000000083020000018502540be4008301adb08203e880a075e2ae5344ba6d1dbbfd75a22b086cdefae77f847563bf4de72edf47afce9d788826f7e5450aa80f40f8a3f8a180018301adb094100000000000000000000000000000000000000080b840000000000000000000000000000000000000000000000000000000000000000000000000000000000000000000000000000000000000000000000400000000001ba0187a02b824360c77dc66dd1dbf132a83a1baccabbda5ab914e9bf113c5c54654a048658c8a659a250cb110c9175f2994de25ccffd3960dc301fa3c285892377058c0",
                "transactions" : [
                    {
                        "data" : "0x00000000000000000000000000000000000000000000000000000000000000000000000000000000000000000000000000000000000000000000040000000000",
                        "gasLimit" : "0x01adb0",
                        "gasPrice" : "0x01",
                        "nonce" : "0x00",
                        "r" : "0x187a02b824360c77dc66dd1dbf132a83a1baccabbda5ab914e9bf113c5c54654",
                        "s" : "0x48658c8a659a250cb110c9175f2994de25ccffd3960dc301fa3c285892377058",
                        "to" : "0x1000000000000000000000000000000000000000",
                        "v" : "0x1b",
                        "value" : "0x00"
                    }
                ],
                "uncleHeaders" : [
                ]
            }
        ],
        "genesisBlockHeader" : {
            "bloom" : "0x00000000000000000000000000000000000000000000000000000000000000000000000000000000000000000000000000000000000000000000000000000000000000000000000000000000000000000000000000000000000000000000000000000000000000000000000000000000000000000000000000000000000000000000000000000000000000000000000000000000000000000000000000000000000000000000000000000000000000000000000000000000000000000000000000000000000000000000000000000000000000000000000000000000000000000000000000000000000000000000000000000000000000000000000000000000",
            "coinbase" : "0x2adc25665018aa1fe0e6bc666dac8fc2697ff9ba",
            "difficulty" : "0x020000",
            "extraData" : "0x42",
            "gasLimit" : "0x02540be400",
            "gasUsed" : "0x00",
            "hash" : "0x70fd8962467cac8e2412f97cc4f775613ccc23d5340252ee5cca67b868639273",
            "mixHash" : "0x56e81f171bcc55a6ff8345e692c0f86e5b48e01b996cadc001622fb5e363b421",
            "nonce" : "0x0102030405060708",
            "number" : "0x00",
            "parentHash" : "0x0000000000000000000000000000000000000000000000000000000000000000",
            "receiptTrie" : "0x56e81f171bcc55a6ff8345e692c0f86e5b48e01b996cadc001622fb5e363b421",
            "stateRoot" : "0xb0afba507e6fef0e690450e0c590ea05c53f4d93ea93a7b92449c437591484ca",
            "timestamp" : "0x03b6",
            "transactionsTrie" : "0x56e81f171bcc55a6ff8345e692c0f86e5b48e01b996cadc001622fb5e363b421",
            "uncleHash" : "0x1dcc4de8dec75d7aab85b567b6ccd41ad312451b948a7413f0a142fd40d49347"
        },
        "genesisRLP" : "0xf901fcf901f7a00000000000000000000000000000000000000000000000000000000000000000a01dcc4de8dec75d7aab85b567b6ccd41ad312451b948a7413f0a142fd40d49347942adc25665018aa1fe0e6bc666dac8fc2697ff9baa0b0afba507e6fef0e690450e0c590ea05c53f4d93ea93a7b92449c437591484caa056e81f171bcc55a6ff8345e692c0f86e5b48e01b996cadc001622fb5e363b421a056e81f171bcc55a6ff8345e692c0f86e5b48e01b996cadc001622fb5e363b421b901000000000000000000000000000000000000000000000000000000000000000000000000000000000000000000000000000000000000000000000000000000000000000000000000000000000000000000000000000000000000000000000000000000000000000000000000000000000000000000000000000000000000000000000000000000000000000000000000000000000000000000000000000000000000000000000000000000000000000000000000000000000000000000000000000000000000000000000000000000000000000000000000000000000000000000000000000000000000000000000000000000000000000000000000000000000083020000808502540be400808203b642a056e81f171bcc55a6ff8345e692c0f86e5b48e01b996cadc001622fb5e363b421880102030405060708c0c0",
        "lastblockhash" : "0xeb92a8ec1ebd75a9b2b40444e27fa4c05ef487a48a12b0e2594f0e75e1d58fa9",
        "network" : "Frontier",
        "postState" : {
            "0x1000000000000000000000000000000000000000" : {
                "balance" : "0x00",
                "code" : "0x36600060003760206103e8366000600060055af26001556103e851600255",
                "nonce" : "0x00",
                "storage" : {
                }
            },
            "0x2adc25665018aa1fe0e6bc666dac8fc2697ff9ba" : {
                "balance" : "0x4563918244f5adb0",
                "code" : "",
                "nonce" : "0x00",
                "storage" : {
                }
            },
            "0xa94f5374fce5edbc8e2a8697c15331677e6ebf0b" : {
                "balance" : "0x3635c9adc5de9e5250",
                "code" : "",
                "nonce" : "0x01",
                "storage" : {
                }
            }
        },
        "pre" : {
            "0x1000000000000000000000000000000000000000" : {
                "balance" : "0x00",
                "code" : "0x36600060003760206103e8366000600060055af26001556103e851600255",
                "nonce" : "0x00",
                "storage" : {
                }
            },
            "0xa94f5374fce5edbc8e2a8697c15331677e6ebf0b" : {
                "balance" : "0x3635c9adc5dea00000",
                "code" : "",
                "nonce" : "0x00",
                "storage" : {
                }
            }
        }
    },
    "modexp_d29g2v0_Homestead" : {
        "_info" : {
            "comment" : "",
            "filledwith" : "cpp-1.3.0+commit.e5cf5910.Linux.g++",
            "lllcversion" : "Version: 0.4.18-develop.2017.9.25+commit.a72237f2.Linux.g++",
            "source" : "src/BlockchainTestsFiller/GeneralStateTests/stPreCompiledContracts/modexp_d29g2v0Filler.json"
        },
        "blocks" : [
            {
                "blockHeader" : {
                    "bloom" : "0x00000000000000000000000000000000000000000000000000000000000000000000000000000000000000000000000000000000000000000000000000000000000000000000000000000000000000000000000000000000000000000000000000000000000000000000000000000000000000000000000000000000000000000000000000000000000000000000000000000000000000000000000000000000000000000000000000000000000000000000000000000000000000000000000000000000000000000000000000000000000000000000000000000000000000000000000000000000000000000000000000000000000000000000000000000000",
                    "coinbase" : "0x2adc25665018aa1fe0e6bc666dac8fc2697ff9ba",
                    "difficulty" : "0x020000",
                    "extraData" : "",
                    "gasLimit" : "0x02540be400",
                    "gasUsed" : "0x01adb0",
                    "hash" : "0xdce0760f9e0153731710662d77bd726b6d7f155bac5e799755d2218c4977b95b",
                    "mixHash" : "0x5d58eb66c60fa3a499c037c3b11f9ebf24f8c200d403b85b717720f6c9b9a6b4",
                    "nonce" : "0x56e62110a0f3b692",
                    "number" : "0x01",
                    "parentHash" : "0x70fd8962467cac8e2412f97cc4f775613ccc23d5340252ee5cca67b868639273",
                    "receiptTrie" : "0xa3cbb19555128c0db81d7b70a389d7d521bace44627f10a6fbb1010d0449ba28",
                    "stateRoot" : "0xfa8085ce88446f5b463f18175bb2aba993c5fd16a450699e40cc4f9c7a78db9c",
                    "timestamp" : "0x03e8",
                    "transactionsTrie" : "0xe717dfd6edc49c72276facf2c2a09de0cdb85a81e192ef4a53836e77df7f44ec",
                    "uncleHash" : "0x1dcc4de8dec75d7aab85b567b6ccd41ad312451b948a7413f0a142fd40d49347"
                },
                "rlp" : "0xf902a3f901faa070fd8962467cac8e2412f97cc4f775613ccc23d5340252ee5cca67b868639273a01dcc4de8dec75d7aab85b567b6ccd41ad312451b948a7413f0a142fd40d49347942adc25665018aa1fe0e6bc666dac8fc2697ff9baa0fa8085ce88446f5b463f18175bb2aba993c5fd16a450699e40cc4f9c7a78db9ca0e717dfd6edc49c72276facf2c2a09de0cdb85a81e192ef4a53836e77df7f44eca0a3cbb19555128c0db81d7b70a389d7d521bace44627f10a6fbb1010d0449ba28b901000000000000000000000000000000000000000000000000000000000000000000000000000000000000000000000000000000000000000000000000000000000000000000000000000000000000000000000000000000000000000000000000000000000000000000000000000000000000000000000000000000000000000000000000000000000000000000000000000000000000000000000000000000000000000000000000000000000000000000000000000000000000000000000000000000000000000000000000000000000000000000000000000000000000000000000000000000000000000000000000000000000000000000000000000000000083020000018502540be4008301adb08203e880a05d58eb66c60fa3a499c037c3b11f9ebf24f8c200d403b85b717720f6c9b9a6b48856e62110a0f3b692f8a3f8a180018301adb094100000000000000000000000000000000000000080b840000000000000000000000000000000000000000000000000000000000000000000000000000000000000000000000000000000000000000000000400000000001ba0187a02b824360c77dc66dd1dbf132a83a1baccabbda5ab914e9bf113c5c54654a048658c8a659a250cb110c9175f2994de25ccffd3960dc301fa3c285892377058c0",
                "transactions" : [
                    {
                        "data" : "0x00000000000000000000000000000000000000000000000000000000000000000000000000000000000000000000000000000000000000000000040000000000",
                        "gasLimit" : "0x01adb0",
                        "gasPrice" : "0x01",
                        "nonce" : "0x00",
                        "r" : "0x187a02b824360c77dc66dd1dbf132a83a1baccabbda5ab914e9bf113c5c54654",
                        "s" : "0x48658c8a659a250cb110c9175f2994de25ccffd3960dc301fa3c285892377058",
                        "to" : "0x1000000000000000000000000000000000000000",
                        "v" : "0x1b",
                        "value" : "0x00"
                    }
                ],
                "uncleHeaders" : [
                ]
            }
        ],
        "genesisBlockHeader" : {
            "bloom" : "0x00000000000000000000000000000000000000000000000000000000000000000000000000000000000000000000000000000000000000000000000000000000000000000000000000000000000000000000000000000000000000000000000000000000000000000000000000000000000000000000000000000000000000000000000000000000000000000000000000000000000000000000000000000000000000000000000000000000000000000000000000000000000000000000000000000000000000000000000000000000000000000000000000000000000000000000000000000000000000000000000000000000000000000000000000000000",
            "coinbase" : "0x2adc25665018aa1fe0e6bc666dac8fc2697ff9ba",
            "difficulty" : "0x020000",
            "extraData" : "0x42",
            "gasLimit" : "0x02540be400",
            "gasUsed" : "0x00",
            "hash" : "0x70fd8962467cac8e2412f97cc4f775613ccc23d5340252ee5cca67b868639273",
            "mixHash" : "0x56e81f171bcc55a6ff8345e692c0f86e5b48e01b996cadc001622fb5e363b421",
            "nonce" : "0x0102030405060708",
            "number" : "0x00",
            "parentHash" : "0x0000000000000000000000000000000000000000000000000000000000000000",
            "receiptTrie" : "0x56e81f171bcc55a6ff8345e692c0f86e5b48e01b996cadc001622fb5e363b421",
            "stateRoot" : "0xb0afba507e6fef0e690450e0c590ea05c53f4d93ea93a7b92449c437591484ca",
            "timestamp" : "0x03b6",
            "transactionsTrie" : "0x56e81f171bcc55a6ff8345e692c0f86e5b48e01b996cadc001622fb5e363b421",
            "uncleHash" : "0x1dcc4de8dec75d7aab85b567b6ccd41ad312451b948a7413f0a142fd40d49347"
        },
        "genesisRLP" : "0xf901fcf901f7a00000000000000000000000000000000000000000000000000000000000000000a01dcc4de8dec75d7aab85b567b6ccd41ad312451b948a7413f0a142fd40d49347942adc25665018aa1fe0e6bc666dac8fc2697ff9baa0b0afba507e6fef0e690450e0c590ea05c53f4d93ea93a7b92449c437591484caa056e81f171bcc55a6ff8345e692c0f86e5b48e01b996cadc001622fb5e363b421a056e81f171bcc55a6ff8345e692c0f86e5b48e01b996cadc001622fb5e363b421b901000000000000000000000000000000000000000000000000000000000000000000000000000000000000000000000000000000000000000000000000000000000000000000000000000000000000000000000000000000000000000000000000000000000000000000000000000000000000000000000000000000000000000000000000000000000000000000000000000000000000000000000000000000000000000000000000000000000000000000000000000000000000000000000000000000000000000000000000000000000000000000000000000000000000000000000000000000000000000000000000000000000000000000000000000000000083020000808502540be400808203b642a056e81f171bcc55a6ff8345e692c0f86e5b48e01b996cadc001622fb5e363b421880102030405060708c0c0",
        "lastblockhash" : "0xdce0760f9e0153731710662d77bd726b6d7f155bac5e799755d2218c4977b95b",
        "network" : "Homestead",
        "postState" : {
            "0x1000000000000000000000000000000000000000" : {
                "balance" : "0x00",
                "code" : "0x36600060003760206103e8366000600060055af26001556103e851600255",
                "nonce" : "0x00",
                "storage" : {
                }
            },
            "0x2adc25665018aa1fe0e6bc666dac8fc2697ff9ba" : {
                "balance" : "0x4563918244f5adb0",
                "code" : "",
                "nonce" : "0x00",
                "storage" : {
                }
            },
            "0xa94f5374fce5edbc8e2a8697c15331677e6ebf0b" : {
                "balance" : "0x3635c9adc5de9e5250",
                "code" : "",
                "nonce" : "0x01",
                "storage" : {
                }
            }
        },
        "pre" : {
            "0x1000000000000000000000000000000000000000" : {
                "balance" : "0x00",
                "code" : "0x36600060003760206103e8366000600060055af26001556103e851600255",
                "nonce" : "0x00",
                "storage" : {
                }
            },
            "0xa94f5374fce5edbc8e2a8697c15331677e6ebf0b" : {
                "balance" : "0x3635c9adc5dea00000",
                "code" : "",
                "nonce" : "0x00",
                "storage" : {
                }
            }
        }
    }
}