{
    "000-fork=Cancun-success=True-in_bounds_z" : {
        "_info" : {
            "comment" : "",
            "filling-rpc-server" : "evm version 1.13.0-unstable-b1a1675c-20230912",
            "filling-tool-version" : "retesteth-0.3.1-cancun+commit.cffe14c5.Linux.g++",
            "filling-transition-tool" : "evm version 1.13.0-unstable-b1a1675c-20230912",
            "generatedTestHash" : "c35ae38150a125dd38b0659e6eea50cecd24c107a50d7396351fc81d11fb4dde",
            "lllcversion" : "Version: 0.5.14-develop.2023.7.11+commit.c58ab2c6.mod.Linux.g++",
            "solidity" : "Version: 0.8.20+commit.a1b79de6.Linux.g++",
            "source" : "src/EIPTestsFiller/Pyspecs/cancun/eip4844_blobs/test_point_evaluation_precompile.py",
            "sourceHash" : "99f30d40e3a89874542a915a593c10c7d28e02914aaa4ee6322658614aef1b20"
        },
        "blocks" : [
            {
                "blockHeader" : {
                    "baseFeePerGas" : "0x07",
                    "blobGasUsed" : "0x00",
                    "bloom" : "0x00000000000000000000000000000000000000000000000000000000000000000000000000000000000000000000000000000000000000000000000000000000000000000000000000000000000000000000000000000000000000000000000000000000000000000000000000000000000000000000000000000000000000000000000000000000000000000000000000000000000000000000000000000000000000000000000000000000000000000000000000000000000000000000000000000000000000000000000000000000000000000000000000000000000000000000000000000000000000000000000000000000000000000000000000000000",
                    "coinbase" : "0x2adc25665018aa1fe0e6bc666dac8fc2697ff9ba",
                    "difficulty" : "0x00",
                    "excessBlobGas" : "0x00",
                    "extraData" : "0x",
                    "gasLimit" : "0x016345785d8a0000",
                    "gasUsed" : "0x03221c",
                    "hash" : "0xf77a63273d56c26848b58ba0b8e1216b53f96ae1a23425623ff45a1165e1a5e8",
                    "mixHash" : "0x0000000000000000000000000000000000000000000000000000000000000000",
                    "nonce" : "0x0000000000000000",
                    "number" : "0x01",
                    "parentBeaconBlockRoot" : "0x0000000000000000000000000000000000000000000000000000000000000000",
                    "parentHash" : "0xf558591bb1ee12cd3111ba92f528e59db081a85bb6f226290431c7a02cadfc79",
                    "receiptTrie" : "0x07194d446d05e8c42fac0ab572a81e5572a2dbd57e309129ed37cfff436b5aff",
                    "stateRoot" : "0x3357cc4590c1f1c21e4eb167894d13fdcbf422e757ef95067cf4a9e0af6b4509",
                    "timestamp" : "0x0c",
                    "transactionsTrie" : "0x23c2e283739049651d077fdfc364eb7d4e6f26c0eb394e58898f13fd4823519c",
                    "uncleHash" : "0x1dcc4de8dec75d7aab85b567b6ccd41ad312451b948a7413f0a142fd40d49347",
                    "withdrawalsRoot" : "0x56e81f171bcc55a6ff8345e692c0f86e5b48e01b996cadc001622fb5e363b421"
                },
                "blocknumber" : "1",
                "rlp" : "0xf90370f9023da0f558591bb1ee12cd3111ba92f528e59db081a85bb6f226290431c7a02cadfc79a01dcc4de8dec75d7aab85b567b6ccd41ad312451b948a7413f0a142fd40d49347942adc25665018aa1fe0e6bc666dac8fc2697ff9baa03357cc4590c1f1c21e4eb167894d13fdcbf422e757ef95067cf4a9e0af6b4509a023c2e283739049651d077fdfc364eb7d4e6f26c0eb394e58898f13fd4823519ca007194d446d05e8c42fac0ab572a81e5572a2dbd57e309129ed37cfff436b5affb9010000000000000000000000000000000000000000000000000000000000000000000000000000000000000000000000000000000000000000000000000000000000000000000000000000000000000000000000000000000000000000000000000000000000000000000000000000000000000000000000000000000000000000000000000000000000000000000000000000000000000000000000000000000000000000000000000000000000000000000000000000000000000000000000000000000000000000000000000000000000000000000000000000000000000000000000000000000000000000000000000000000000000000000000000000000000800188016345785d8a00008303221c0c80a0000000000000000000000000000000000000000000000000000000000000000088000000000000000007a056e81f171bcc55a6ff8345e692c0f86e5b48e01b996cadc001622fb5e363b4218080a00000000000000000000000000000000000000000000000000000000000000000f9012bb9012802f9012401808007830f424094000000000000000000000000000000000000010080b8c0010657f37554c781402a22917dee2f75def7ab966d7b770905398eba3c44401473eda753299d7d483339d80809a1d80553bda402fffe5bfeffffffff000000000000000000000000000000000000000000000000000000000000000000000000c00000000000000000000000000000000000000000000000000000000000000000000000000000000000000000000000c00000000000000000000000000000000000000000000000000000000000000000000000000000000000000000000000c080a0cdcb82e08bcb8bb0eb6de7c1e142a910aa413891c9deeccd0c650737f5407307a06df091d7bdd64b38d24910e969040afa2f65abd8b0ddf8c42ce5e582edfcf4fec0c0",
                "transactions" : [
                    {
                        "accessList" : [
                        ],
                        "chainId" : "0x01",
                        "data" : "0x010657f37554c781402a22917dee2f75def7ab966d7b770905398eba3c44401473eda753299d7d483339d80809a1d80553bda402fffe5bfeffffffff000000000000000000000000000000000000000000000000000000000000000000000000c00000000000000000000000000000000000000000000000000000000000000000000000000000000000000000000000c00000000000000000000000000000000000000000000000000000000000000000000000000000000000000000000000",
                        "gasLimit" : "0x0f4240",
                        "maxFeePerGas" : "0x07",
                        "maxPriorityFeePerGas" : "0x00",
                        "nonce" : "0x00",
                        "r" : "0xcdcb82e08bcb8bb0eb6de7c1e142a910aa413891c9deeccd0c650737f5407307",
                        "s" : "0x6df091d7bdd64b38d24910e969040afa2f65abd8b0ddf8c42ce5e582edfcf4fe",
                        "sender" : "0xa94f5374fce5edbc8e2a8697c15331677e6ebf0b",
                        "to" : "0x0000000000000000000000000000000000000100",
                        "type" : "0x02",
                        "v" : "0x00",
                        "value" : "0x00"
                    }
                ],
                "uncleHeaders" : [
                ],
                "withdrawals" : [
                ]
            }
        ],
        "genesisBlockHeader" : {
            "baseFeePerGas" : "0x07",
            "blobGasUsed" : "0x00",
            "bloom" : "0x00000000000000000000000000000000000000000000000000000000000000000000000000000000000000000000000000000000000000000000000000000000000000000000000000000000000000000000000000000000000000000000000000000000000000000000000000000000000000000000000000000000000000000000000000000000000000000000000000000000000000000000000000000000000000000000000000000000000000000000000000000000000000000000000000000000000000000000000000000000000000000000000000000000000000000000000000000000000000000000000000000000000000000000000000000000",
            "coinbase" : "0x0000000000000000000000000000000000000000",
            "difficulty" : "0x00",
            "excessBlobGas" : "0x00",
            "extraData" : "0x00",
            "gasLimit" : "0x016345785d8a0000",
            "gasUsed" : "0x00",
            "hash" : "0xf558591bb1ee12cd3111ba92f528e59db081a85bb6f226290431c7a02cadfc79",
            "mixHash" : "0x0000000000000000000000000000000000000000000000000000000000000000",
            "nonce" : "0x0000000000000000",
            "number" : "0x00",
            "parentBeaconBlockRoot" : "0x0000000000000000000000000000000000000000000000000000000000000000",
            "parentHash" : "0x0000000000000000000000000000000000000000000000000000000000000000",
            "receiptTrie" : "0x56e81f171bcc55a6ff8345e692c0f86e5b48e01b996cadc001622fb5e363b421",
            "stateRoot" : "0x8aeec77112956e68281a817d458eec70ba4a7fa909c21d01eb573bfe66d3eddf",
            "timestamp" : "0x00",
            "transactionsTrie" : "0x56e81f171bcc55a6ff8345e692c0f86e5b48e01b996cadc001622fb5e363b421",
            "uncleHash" : "0x1dcc4de8dec75d7aab85b567b6ccd41ad312451b948a7413f0a142fd40d49347",
            "withdrawalsRoot" : "0x56e81f171bcc55a6ff8345e692c0f86e5b48e01b996cadc001622fb5e363b421"
        },
        "genesisRLP" : "0xf90240f9023aa00000000000000000000000000000000000000000000000000000000000000000a01dcc4de8dec75d7aab85b567b6ccd41ad312451b948a7413f0a142fd40d49347940000000000000000000000000000000000000000a08aeec77112956e68281a817d458eec70ba4a7fa909c21d01eb573bfe66d3eddfa056e81f171bcc55a6ff8345e692c0f86e5b48e01b996cadc001622fb5e363b421a056e81f171bcc55a6ff8345e692c0f86e5b48e01b996cadc001622fb5e363b421b9010000000000000000000000000000000000000000000000000000000000000000000000000000000000000000000000000000000000000000000000000000000000000000000000000000000000000000000000000000000000000000000000000000000000000000000000000000000000000000000000000000000000000000000000000000000000000000000000000000000000000000000000000000000000000000000000000000000000000000000000000000000000000000000000000000000000000000000000000000000000000000000000000000000000000000000000000000000000000000000000000000000000000000000000000000000000808088016345785d8a0000808000a0000000000000000000000000000000000000000000000000000000000000000088000000000000000007a056e81f171bcc55a6ff8345e692c0f86e5b48e01b996cadc001622fb5e363b4218080a00000000000000000000000000000000000000000000000000000000000000000c0c0c0",
        "lastblockhash" : "0xf77a63273d56c26848b58ba0b8e1216b53f96ae1a23425623ff45a1165e1a5e8",
        "network" : "Cancun",
        "postState" : {
            "0x0000000000000000000000000000000000000100" : {
                "balance" : "0x01000000000000000000",
                "code" : "0x366000600037604060003660006000600a61c350f16000556000516001556020516002553d6003553d600060003e600051600455602051600555",
                "nonce" : "0x00",
                "storage" : {
                    "0x00" : "0x01",
                    "0x01" : "0x1000",
                    "0x02" : "0x73eda753299d7d483339d80809a1d80553bda402fffe5bfeffffffff00000001",
                    "0x03" : "0x40",
                    "0x04" : "0x1000",
                    "0x05" : "0x73eda753299d7d483339d80809a1d80553bda402fffe5bfeffffffff00000001"
                }
            },
            "0xa94f5374fce5edbc8e2a8697c15331677e6ebf0b" : {
                "balance" : "0xffffffffffffea113c",
                "code" : "0x",
                "nonce" : "0x01",
                "storage" : {
                }
            },
            "0xbeac00ddb15f3b6d645c48263dc93862413a222d" : {
                "balance" : "0x00",
                "code" : "0x3373fffffffffffffffffffffffffffffffffffffffe14604457602036146024575f5ffd5b620180005f350680545f35146037575f5ffd5b6201800001545f5260205ff35b6201800042064281555f359062018000015500",
                "nonce" : "0x01",
                "storage" : {
                    "0x0c" : "0x0c"
                }
            }
        },
        "pre" : {
            "0x0000000000000000000000000000000000000100" : {
                "balance" : "0x01000000000000000000",
                "code" : "0x366000600037604060003660006000600a61c350f16000556000516001556020516002553d6003553d600060003e600051600455602051600555",
                "nonce" : "0x00",
                "storage" : {
                }
            },
            "0xa94f5374fce5edbc8e2a8697c15331677e6ebf0b" : {
                "balance" : "0x01000000000000000000",
                "code" : "0x",
                "nonce" : "0x00",
                "storage" : {
                }
            },
            "0xbeac00ddb15f3b6d645c48263dc93862413a222d" : {
                "balance" : "0x00",
                "code" : "0x3373fffffffffffffffffffffffffffffffffffffffe14604457602036146024575f5ffd5b620180005f350680545f35146037575f5ffd5b6201800001545f5260205ff35b6201800042064281555f359062018000015500",
                "nonce" : "0x01",
                "storage" : {
                }
            }
        },
        "sealEngine" : "NoProof"
    }
}