{
    "CREATE_EOF1_FromEOF" : {
        "_info" : {
            "comment" : "",
            "filling-rpc-server" : "evm version 1.11.0-unstable-c686236b-20230317",
            "filling-tool-version" : "retesteth-0.3.0-shanghai+commit.ffa35995.Linux.g++",
            "generatedTestHash" : "0ec7e426128e14b18779b1428234cd274695a7123c1622feed98605eb4aac694",
            "lllcversion" : "Version: 0.5.14-develop.2022.4.6+commit.401d5358.Linux.g++",
            "solidity" : "Version: 0.8.18-develop.2023.1.16+commit.469d6d4d.Linux.g++",
            "source" : "src/EIPTestsFiller/StateTests/stEOF/stEIP4200/CREATE_EOF1_FromEOFFiller.yml",
            "sourceHash" : "4532e4481ad78f8b03276d50c8f85ce8b322f9820d5513ca1a5937d1c37253cf"
        },
        "env" : {
            "currentBaseFee" : "0x0a",
            "currentCoinbase" : "0x2adc25665018aa1fe0e6bc666dac8fc2697ff9ba",
            "currentDifficulty" : "0x020000",
            "currentGasLimit" : "0x05500000",
            "currentNumber" : "0x01",
            "currentRandom" : "0x0000000000000000000000000000000000000000000000000000000000020000",
            "currentTimestamp" : "0x03e8",
            "previousHash" : "0x5e20a0453cecd065ea59c37ac63e079ee08998b6045136a8ce6635c7912ec0b6"
        },
        "post" : {
            "Cancun" : [
                {
                    "hash" : "0x6b0ffc1f88d459abdf3c106908d4a29f0b94996bb56fa7d0918d752a362593d5",
                    "indexes" : {
                        "data" : 0,
                        "gas" : 0,
                        "value" : 0
                    },
                    "logs" : "0x1dcc4de8dec75d7aab85b567b6ccd41ad312451b948a7413f0a142fd40d49347",
                    "txbytes" : "0xf89c800a83e4e1c094b94f5374fce5edbc8e2a8697c15331677e6ebf0b80b83bef0001010004020001001403001400000000035c00035b5bf360146027600039601460005cffefef000101000402000100010300000000000000fe1ba0491ca5c92f03348fe2022dddc6f94171bbe65ceeed69e27166ee12de077cee80a0132ea35575e7d90dfd00987ec7b97f4a54d4d9687f8828c70bbd24039e577e33"
                },
                {
                    "hash" : "0x238a70a219be4456445f894219a670317ed660dfbc82830da9cd07222fe9b207",
                    "indexes" : {
                        "data" : 1,
                        "gas" : 0,
                        "value" : 0
                    },
                    "logs" : "0x1dcc4de8dec75d7aab85b567b6ccd41ad312451b948a7413f0a142fd40d49347",
                    "txbytes" : "0xf896800a83e4e1c094b94f5374fce5edbc8e2a8697c15331677e6ebf0b80b6ef0001010004020001000f03001400000000035c00006014602260003960146000f3ef000101000402000100010300000000000000fe1ba0f51861689bc794f4a7b00853bfda07806fb49547421050b22e51995d355b1765a02dfaccdba079cd3591be92634f0ad9bc4496fc2525ce599ed1d6b6cda6ccdc12"
                },
                {
                    "hash" : "0x796119288193421753973ba25303fcbaed613f70f4b06efa5c10741b961a474a",
                    "indexes" : {
                        "data" : 2,
                        "gas" : 0,
                        "value" : 0
                    },
                    "logs" : "0x1dcc4de8dec75d7aab85b567b6ccd41ad312451b948a7413f0a142fd40d49347",
                    "txbytes" : "0xf89c800a83e4e1c094b94f5374fce5edbc8e2a8697c15331677e6ebf0b80b83bef00010100040200010014030014000000000360015d00035b5b006014602760003960146000f3ef000101000402000100010300000000000000fe1ba014d6de29617bae6751c51322ba2b37c048b787d3278a712c372968743996eaeaa0348d20b44fe741d750c75180c02cb25d3f95ca9bdeb845308446d32ed384af17"
                },
                {
                    "hash" : "0x62d4fb6e55a29973a5a4978f1eb011ed2d23b3e323e574e5285b373f587b3e27",
                    "indexes" : {
                        "data" : 3,
                        "gas" : 0,
                        "value" : 0
                    },
                    "logs" : "0x1dcc4de8dec75d7aab85b567b6ccd41ad312451b948a7413f0a142fd40d49347",
                    "txbytes" : "0xf89d800a83e4e1c094b94f5374fce5edbc8e2a8697c15331677e6ebf0b80b83cef0001010004020001001503001400000000035c000c6014602860003960146000f360015dffef00ef000101000402000100010300000000000000fe1ba0f5f22f250cb9066c6107c1b10b691f4258a70d43cbd1b191dbc1534fa1a74005a0066812af22dd709e53fadd74fa562f90cd95c7c4dd04fd86b93dac7800ea8b90"
                },
                {
                    "hash" : "0xef8ef69661bc4ca1f24d52f954666c8f90d38aae672f800f9b62da33716d677b",
                    "indexes" : {
                        "data" : 4,
                        "gas" : 0,
                        "value" : 0
                    },
                    "logs" : "0x1dcc4de8dec75d7aab85b567b6ccd41ad312451b948a7413f0a142fd40d49347",
                    "txbytes" : "0xf899800a83e4e1c094b94f5374fce5edbc8e2a8697c15331677e6ebf0b80b838ef00010100040200010011030014000000000360015d00006014602460003960146000f3ef000101000402000100010300000000000000fe1ba0147aed6048240b6508adadb730ebeff92ef3ecd0ea8784126f6191517e81292fa002b4eb2d270be331118ea40fcd0a987ef7631e760fa0183af4cc0a292b412d6e"
                },
                {
                    "hash" : "0x79c9f9a8db3a98a705950a15785602ae483272bd0d5b7453043d9edf74051f24",
                    "indexes" : {
                        "data" : 5,
                        "gas" : 0,
                        "value" : 0
                    },
                    "logs" : "0x1dcc4de8dec75d7aab85b567b6ccd41ad312451b948a7413f0a142fd40d49347",
                    "txbytes" : "0xf89d800a83e4e1c094b94f5374fce5edbc8e2a8697c15331677e6ebf0b80b83cef00010100040200010015030014000000000360005e0100035b5b006014602860003960146000f3ef000101000402000100010300000000000000fe1ba0aa88239d24949783aa7029758bf5061876e81f5fddb05db43a601df2b4731d15a070eb38bc30d6ffc94ca349ce0f2e1b483ee6dbf79efdaa82e8b4bfd364704a8f"
                },
                {
                    "hash" : "0xda77bda594306cf016bcb3fa3fb04ef6237d05a72c3e51878035388c7c59e368",
                    "indexes" : {
                        "data" : 6,
                        "gas" : 0,
                        "value" : 0
                    },
                    "logs" : "0x1dcc4de8dec75d7aab85b567b6ccd41ad312451b948a7413f0a142fd40d49347",
                    "txbytes" : "0xf89e800a83e4e1c094b94f5374fce5edbc8e2a8697c15331677e6ebf0b80b83def0001010004020001001603001400000000035c000c6014602960003960146000f360005e01ffee00ef000101000402000100010300000000000000fe1ca06ee5061fb0296fcba7b8d97f5a1350b009a587e24b17c055a8fc952bc415fe66a075329b2579d168f262a1d3f5a4a45cdc77f024449e755eacf98166cff1e734fc"
                },
                {
                    "hash" : "0xe1e2e16059e174e0cbd21c6543087860ef45f03de306ae8790303830c621d566",
                    "indexes" : {
                        "data" : 7,
                        "gas" : 0,
                        "value" : 0
                    },
                    "logs" : "0x1dcc4de8dec75d7aab85b567b6ccd41ad312451b948a7413f0a142fd40d49347",
                    "txbytes" : "0xf89a800a83e4e1c094b94f5374fce5edbc8e2a8697c15331677e6ebf0b80b839ef00010100040200010012030014000000000360005e0100006014602560003960146000f3ef000101000402000100010300000000000000fe1ca079eac28f678a2d85711589d0bd5244cdb4bb73cb4aa6c7ca227b759482043beea02bf8ee3f9c980808c33b764bc50b479dfd4796db9052bfd5823d8a5b226413e2"
                },
                {
                    "hash" : "0x2ce5565db8bec698b5171ed0f6549a62856128a19299da2b96d936b4b2844feb",
                    "indexes" : {
                        "data" : 8,
                        "gas" : 0,
                        "value" : 0
                    },
                    "logs" : "0x1dcc4de8dec75d7aab85b567b6ccd41ad312451b948a7413f0a142fd40d49347",
                    "txbytes" : "0xf8a1800a83e4e1c094b94f5374fce5edbc8e2a8697c15331677e6ebf0b80b840ef00010100040200010019030014000000000360005e0300030000fff65b5b006014602c60003960146000f3ef000101000402000100010300000000000000fe1ba078069fa469d3e752fa69cb5e261fb95202fa7a1d365854a7cc0fe33040f9ba9ba00e7a8daf7ff801c7ee3e2e9abac4b41cf0d1e4523799c33e6a76ed8c4271e71d"
                },
                {
                    "hash" : "0x1414f9e6f92788a0dd7d49a84ae5ce785744253f55d561d26d6acea204967b5f",
                    "indexes" : {
                        "data" : 9,
                        "gas" : 0,
                        "value" : 0
                    },
                    "logs" : "0x1dcc4de8dec75d7aab85b567b6ccd41ad312451b948a7413f0a142fd40d49347",
                    "txbytes" : "0xf90397800a83e4e1c094b94f5374fce5edbc8e2a8697c15331677e6ebf0b80b90335ef0001010004020001030e030014000000000360005eff006700c600690073005100ff004a00ec002900cd00ba00ab00f200fb00e30046007c00c2005400f8001b00e800e7008d0076005a002e00630033009f00c9009a00660032000d00b70031005800a3005a0025005d00050017005800e9005e00d400ab00b200cd00c6009b00b400540011000e0082007400410021003d00dc0087007000e9003e00a1004100e100fc0067003e0001007e009700ea00dc006b0096008f0038005c002a00ec00b0003b00fb003200af003c005400ec001800db005c0002001a00fe004300fb00fa00aa003a00fb002900d100e60005003c007c0094007500d800be0061008900f9005c00bb00a80099000f009500b100eb00f100b3000500ef00f7000000e900a1003a00e500ca000b00cb00d000480047006400bd001f0023001e00a8001c007b006400c500140073005a00c5005e004b00790063003b0070006400240011009e000900dc00aa00d400ac00f2001b001000af003b003300cd00e30050004800470015005c00bb006f0022001900ba009b007d00f5000b00e1001a001c007f002300f8002900f800a4001b001300b500ca004e00e800980032003800e00079004d003d003400bc005f004e007700fa00cb006c000500ac00860021002b00aa001a005500a200be007000b50073003b0004005c00d30036009400b300af00e200f000e4009e004f00320015004900fd008200ff5b5b5b5b5b5b5b5b5b5b5b5b5b5b5b5b5b5b5b5b5b5b5b5b5b5b5b5b5b5b5b5b5b5b5b5b5b5b5b5b5b5b5b5b5b5b5b5b5b5b5b5b5b5b5b5b5b5b5b5b5b5b5b5b5b5b5b5b5b5b5b5b5b5b5b5b5b5b5b5b5b5b5b5b5b5b5b5b5b5b5b5b5b5b5b5b5b5b5b5b5b5b5b5b5b5b5b5b5b5b5b5b5b5b5b5b5b5b5b5b5b5b5b5b5b5b5b5b5b5b5b5b5b5b5b5b5b5b5b5b5b5b5b5b5b5b5b5b5b5b5b5b5b5b5b5b5b5b5b5b5b5b5b5b5b5b5b5b5b5b5b5b5b5b5b5b5b5b5b5b5b5b5b5b5b5b5b5b5b5b5b5b5b5b5b5b5b5b5b5b5b5b5b5b5b5b5b5b5b5b5b5b5b5b5b5b5b5b5b5b5b5b5b5b5b5b5b5b5b5b5b5b5b5b5b5b5b5b5b5b5b5b5b5b5b5b5b5b5b5b5b5b5b5b5b601461032160003960146000f3ef000101000402000100010300000000000000fe1ba065a6bf08d7d630362e7469707563ba96d2206127b698af4d663a286a05ef1667a03bf8d451c28254cefceea8f9a3421609823c9dca52f14eb853c46d0e66f8855b"
                },
                {
                    "hash" : "0xbbe5d024ba6749cee3d34c96a37a6a062dfd8400f8a367eca51d9ba318d33b9d",
                    "indexes" : {
                        "data" : 10,
                        "gas" : 0,
                        "value" : 0
                    },
                    "logs" : "0x1dcc4de8dec75d7aab85b567b6ccd41ad312451b948a7413f0a142fd40d49347",
                    "txbytes" : "0xf90397800a83e4e1c094b94f5374fce5edbc8e2a8697c15331677e6ebf0b80b90335ef0001010004020001030e030014000000000360645eff006700c600690073005100ff004a00ec002900cd00ba00ab00f200fb00e30046007c00c2005400f8001b00e800e7008d0076005a002e00630033009f00c9009a00660032000d00b70031005800a3005a0025005d00050017005800e9005e00d400ab00b200cd00c6009b00b400540011000e0082007400410021003d00dc0087007000e9003e00a1004100e100fc0067003e0001007e009700ea00dc006b0096008f0038005c002a00ec00b0003b00fb003200af003c005400ec001800db005c0002001a00fe004300fb00fa00aa003a00fb002900d100e60005003c007c0094007500d800be0061008900f9005c00bb00a80099000f009500b100eb00f100b3000500ef00f7000000e900a1003a00e500ca000b00cb00d000480047006400bd001f0023001e00a8001c007b006400c500140073005a00c5005e004b00790063003b0070006400240011009e000900dc00aa00d400ac00f2001b001000af003b003300cd00e30050004800470015005c00bb006f0022001900ba009b007d00f5000b00e1001a001c007f002300f8002900f800a4001b001300b500ca004e00e800980032003800e00079004d003d003400bc005f004e007700fa00cb006c000500ac00860021002b00aa001a005500a200be007000b50073003b0004005c00d30036009400b300af00e200f000e4009e004f00320015004900fd008200ff5b5b5b5b5b5b5b5b5b5b5b5b5b5b5b5b5b5b5b5b5b5b5b5b5b5b5b5b5b5b5b5b5b5b5b5b5b5b5b5b5b5b5b5b5b5b5b5b5b5b5b5b5b5b5b5b5b5b5b5b5b5b5b5b5b5b5b5b5b5b5b5b5b5b5b5b5b5b5b5b5b5b5b5b5b5b5b5b5b5b5b5b5b5b5b5b5b5b5b5b5b5b5b5b5b5b5b5b5b5b5b5b5b5b5b5b5b5b5b5b5b5b5b5b5b5b5b5b5b5b5b5b5b5b5b5b5b5b5b5b5b5b5b5b5b5b5b5b5b5b5b5b5b5b5b5b5b5b5b5b5b5b5b5b5b5b5b5b5b5b5b5b5b5b5b5b5b5b5b5b5b5b5b5b5b5b5b5b5b5b5b5b5b5b5b5b5b5b5b5b5b5b5b5b5b5b5b5b5b5b5b5b5b5b5b5b5b5b5b5b5b5b5b5b5b5b5b5b5b5b5b5b5b5b5b5b5b5b5b5b5b5b5b5b5b5b5b5b5b5b5b5b5b5b5b601461032160003960146000f3ef000101000402000100010300000000000000fe1ca07e2a97b8ff7a2a6210990a4995b1b85a7209f799ab9a1ae01e263a34778ac6b2a076349d9ae72930c64a01974e2451a58465018a398e20dc566687d5b0596d8a01"
                },
                {
                    "hash" : "0xbbe5d024ba6749cee3d34c96a37a6a062dfd8400f8a367eca51d9ba318d33b9d",
                    "indexes" : {
                        "data" : 11,
                        "gas" : 0,
                        "value" : 0
                    },
                    "logs" : "0x1dcc4de8dec75d7aab85b567b6ccd41ad312451b948a7413f0a142fd40d49347",
                    "txbytes" : "0xf90398800a83e4e1c094b94f5374fce5edbc8e2a8697c15331677e6ebf0b80b90336ef0001010004020001030f030014000000000360fe5eff006700c600690073005100ff004a00ec002900cd00ba00ab00f200fb00e30046007c00c2005400f8001b00e800e7008d0076005a002e00630033009f00c9009a00660032000d00b70031005800a3005a0025005d00050017005800e9005e00d400ab00b200cd00c6009b00b400540011000e0082007400410021003d00dc0087007000e9003e00a1004100e100fc0067003e0001007e009700ea00dc006b0096008f0038005c002a00ec00b0003b00fb003200af003c005400ec001800db005c0002001a00fe004300fb00fa00aa003a00fb002900d100e60005003c007c0094007500d800be0061008900f9005c00bb00a80099000f009500b100eb00f100b3000500ef00f7000000e900a1003a00e500ca000b00cb00d000480047006400bd001f0023001e00a8001c007b006400c500140073005a00c5005e004b00790063003b0070006400240011009e000900dc00aa00d400ac00f2001b001000af003b003300cd00e30050004800470015005c00bb006f0022001900ba009b007d00f5000b00e1001a001c007f002300f8002900f800a4001b001300b500ca004e00e800980032003800e00079004d003d003400bc005f004e007700fa00cb006c000500ac00860021002b00aa001a005500a200be007000b50073003b0004005c00d30036009400b300af00e200f000e4009e004f00320015004900fd008201005b5b5b5b5b5b5b5b5b5b5b5b5b5b5b5b5b5b5b5b5b5b5b5b5b5b5b5b5b5b5b5b5b5b5b5b5b5b5b5b5b5b5b5b5b5b5b5b5b5b5b5b5b5b5b5b5b5b5b5b5b5b5b5b5b5b5b5b5b5b5b5b5b5b5b5b5b5b5b5b5b5b5b5b5b5b5b5b5b5b5b5b5b5b5b5b5b5b5b5b5b5b5b5b5b5b5b5b5b5b5b5b5b5b5b5b5b5b5b5b5b5b5b5b5b5b5b5b5b5b5b5b5b5b5b5b5b5b5b5b5b5b5b5b5b5b5b5b5b5b5b5b5b5b5b5b5b5b5b5b5b5b5b5b5b5b5b5b5b5b5b5b5b5b5b5b5b5b5b5b5b5b5b5b5b5b5b5b5b5b5b5b5b5b5b5b5b5b5b5b5b5b5b5b5b5b5b5b5b5b5b5b5b5b5b5b5b5b5b5b5b5b5b5b5b5b5b5b5b5b5b5b5b5b5b5b5b5b5b5b5b5b5b5b5b5b5b5b5b5b5b5b5b5b5b00601461032260003960146000f3ef000101000402000100010300000000000000fe1ba054258965fcf00c17cc7527719cca7e28a2711e4d49aa2422c7d33be57a152e8aa06d0b684a889ae71700f1ca9cf7246cb54735d668604d1aaa28def685580b56a2"
                },
                {
                    "hash" : "0x7743c64f8e5bf9418ec14e85f48b164258505788a905b0fbba82ab3af7044fca",
                    "indexes" : {
                        "data" : 12,
                        "gas" : 0,
                        "value" : 0
                    },
                    "logs" : "0x1dcc4de8dec75d7aab85b567b6ccd41ad312451b948a7413f0a142fd40d49347",
                    "txbytes" : "0xf90398800a83e4e1c094b94f5374fce5edbc8e2a8697c15331677e6ebf0b80b90336ef0001010004020001030f03001400000000036101005eff006700c600690073005100ff004a00ec002900cd00ba00ab00f200fb00e30046007c00c2005400f8001b00e800e7008d0076005a002e00630033009f00c9009a00660032000d00b70031005800a3005a0025005d00050017005800e9005e00d400ab00b200cd00c6009b00b400540011000e0082007400410021003d00dc0087007000e9003e00a1004100e100fc0067003e0001007e009700ea00dc006b0096008f0038005c002a00ec00b0003b00fb003200af003c005400ec001800db005c0002001a00fe004300fb00fa00aa003a00fb002900d100e60005003c007c0094007500d800be0061008900f9005c00bb00a80099000f009500b100eb00f100b3000500ef00f7000000e900a1003a00e500ca000b00cb00d000480047006400bd001f0023001e00a8001c007b006400c500140073005a00c5005e004b00790063003b0070006400240011009e000900dc00aa00d400ac00f2001b001000af003b003300cd00e30050004800470015005c00bb006f0022001900ba009b007d00f5000b00e1001a001c007f002300f8002900f800a4001b001300b500ca004e00e800980032003800e00079004d003d003400bc005f004e007700fa00cb006c000500ac00860021002b00aa001a005500a200be007000b50073003b0004005c00d30036009400b300af00e200f000e4009e004f00320015004900fd008200ff5b5b5b5b5b5b5b5b5b5b5b5b5b5b5b5b5b5b5b5b5b5b5b5b5b5b5b5b5b5b5b5b5b5b5b5b5b5b5b5b5b5b5b5b5b5b5b5b5b5b5b5b5b5b5b5b5b5b5b5b5b5b5b5b5b5b5b5b5b5b5b5b5b5b5b5b5b5b5b5b5b5b5b5b5b5b5b5b5b5b5b5b5b5b5b5b5b5b5b5b5b5b5b5b5b5b5b5b5b5b5b5b5b5b5b5b5b5b5b5b5b5b5b5b5b5b5b5b5b5b5b5b5b5b5b5b5b5b5b5b5b5b5b5b5b5b5b5b5b5b5b5b5b5b5b5b5b5b5b5b5b5b5b5b5b5b5b5b5b5b5b5b5b5b5b5b5b5b5b5b5b5b5b5b5b5b5b5b5b5b5b5b5b5b5b5b5b5b5b5b5b5b5b5b5b5b5b5b5b5b5b5b5b5b5b5b5b5b5b5b5b5b5b5b5b5b5b5b5b5b5b5b5b5b5b5b5b5b5b5b5b5b5b5b5b5b5b5b5b5b5b5b5b5b5b601461032260003960146000f3ef000101000402000100010300000000000000fe1ca0462e9643a2a4c0e5175ed10388f6b58ca4faa8e7c292bd018becc4c26ac3a0e3a047ce9a35f352dd8a17c15925fddc7d4df13ba27dbd34570f39bb892b2b1d6f6f"
                }
            ]
        },
        "pre" : {
            "0xa94f5374fce5edbc8e2a8697c15331677e6ebf0b" : {
                "balance" : "0x0bebc200",
                "code" : "0x",
                "nonce" : "0x00",
                "storage" : {
                }
            },
            "0xb94f5374fce5edbc8e2a8697c15331677e6ebf0b" : {
                "balance" : "0x00",
                "code" : "0xef000101000402000100120300000000000003366000803736600080f06000556001805500",
                "nonce" : "0x00",
                "storage" : {
                }
            }
        },
        "transaction" : {
            "data" : [
                "0xef0001010004020001001403001400000000035c00035b5bf360146027600039601460005cffefef000101000402000100010300000000000000fe",
                "0xef0001010004020001000f03001400000000035c00006014602260003960146000f3ef000101000402000100010300000000000000fe",
                "0xef00010100040200010014030014000000000360015d00035b5b006014602760003960146000f3ef000101000402000100010300000000000000fe",
                "0xef0001010004020001001503001400000000035c000c6014602860003960146000f360015dffef00ef000101000402000100010300000000000000fe",
                "0xef00010100040200010011030014000000000360015d00006014602460003960146000f3ef000101000402000100010300000000000000fe",
                "0xef00010100040200010015030014000000000360005e0100035b5b006014602860003960146000f3ef000101000402000100010300000000000000fe",
                "0xef0001010004020001001603001400000000035c000c6014602960003960146000f360005e01ffee00ef000101000402000100010300000000000000fe",
                "0xef00010100040200010012030014000000000360005e0100006014602560003960146000f3ef000101000402000100010300000000000000fe",
                "0xef00010100040200010019030014000000000360005e0300030000fff65b5b006014602c60003960146000f3ef000101000402000100010300000000000000fe",
                "0xef0001010004020001030e030014000000000360005eff006700c600690073005100ff004a00ec002900cd00ba00ab00f200fb00e30046007c00c2005400f8001b00e800e7008d0076005a002e00630033009f00c9009a00660032000d00b70031005800a3005a0025005d00050017005800e9005e00d400ab00b200cd00c6009b00b400540011000e0082007400410021003d00dc0087007000e9003e00a1004100e100fc0067003e0001007e009700ea00dc006b0096008f0038005c002a00ec00b0003b00fb003200af003c005400ec001800db005c0002001a00fe004300fb00fa00aa003a00fb002900d100e60005003c007c0094007500d800be0061008900f9005c00bb00a80099000f009500b100eb00f100b3000500ef00f7000000e900a1003a00e500ca000b00cb00d000480047006400bd001f0023001e00a8001c007b006400c500140073005a00c5005e004b00790063003b0070006400240011009e000900dc00aa00d400ac00f2001b001000af003b003300cd00e30050004800470015005c00bb006f0022001900ba009b007d00f5000b00e1001a001c007f002300f8002900f800a4001b001300b500ca004e00e800980032003800e00079004d003d003400bc005f004e007700fa00cb006c000500ac00860021002b00aa001a005500a200be007000b50073003b0004005c00d30036009400b300af00e200f000e4009e004f00320015004900fd008200ff5b5b5b5b5b5b5b5b5b5b5b5b5b5b5b5b5b5b5b5b5b5b5b5b5b5b5b5b5b5b5b5b5b5b5b5b5b5b5b5b5b5b5b5b5b5b5b5b5b5b5b5b5b5b5b5b5b5b5b5b5b5b5b5b5b5b5b5b5b5b5b5b5b5b5b5b5b5b5b5b5b5b5b5b5b5b5b5b5b5b5b5b5b5b5b5b5b5b5b5b5b5b5b5b5b5b5b5b5b5b5b5b5b5b5b5b5b5b5b5b5b5b5b5b5b5b5b5b5b5b5b5b5b5b5b5b5b5b5b5b5b5b5b5b5b5b5b5b5b5b5b5b5b5b5b5b5b5b5b5b5b5b5b5b5b5b5b5b5b5b5b5b5b5b5b5b5b5b5b5b5b5b5b5b5b5b5b5b5b5b5b5b5b5b5b5b5b5b5b5b5b5b5b5b5b5b5b5b5b5b5b5b5b5b5b5b5b5b5b5b5b5b5b5b5b5b5b5b5b5b5b5b5b5b5b5b5b5b5b5b5b5b5b5b5b5b5b5b5b5b5b5b5b5b5b601461032160003960146000f3ef000101000402000100010300000000000000fe",
                "0xef0001010004020001030e030014000000000360645eff006700c600690073005100ff004a00ec002900cd00ba00ab00f200fb00e30046007c00c2005400f8001b00e800e7008d0076005a002e00630033009f00c9009a00660032000d00b70031005800a3005a0025005d00050017005800e9005e00d400ab00b200cd00c6009b00b400540011000e0082007400410021003d00dc0087007000e9003e00a1004100e100fc0067003e0001007e009700ea00dc006b0096008f0038005c002a00ec00b0003b00fb003200af003c005400ec001800db005c0002001a00fe004300fb00fa00aa003a00fb002900d100e60005003c007c0094007500d800be0061008900f9005c00bb00a80099000f009500b100eb00f100b3000500ef00f7000000e900a1003a00e500ca000b00cb00d000480047006400bd001f0023001e00a8001c007b006400c500140073005a00c5005e004b00790063003b0070006400240011009e000900dc00aa00d400ac00f2001b001000af003b003300cd00e30050004800470015005c00bb006f0022001900ba009b007d00f5000b00e1001a001c007f002300f8002900f800a4001b001300b500ca004e00e800980032003800e00079004d003d003400bc005f004e007700fa00cb006c000500ac00860021002b00aa001a005500a200be007000b50073003b0004005c00d30036009400b300af00e200f000e4009e004f00320015004900fd008200ff5b5b5b5b5b5b5b5b5b5b5b5b5b5b5b5b5b5b5b5b5b5b5b5b5b5b5b5b5b5b5b5b5b5b5b5b5b5b5b5b5b5b5b5b5b5b5b5b5b5b5b5b5b5b5b5b5b5b5b5b5b5b5b5b5b5b5b5b5b5b5b5b5b5b5b5b5b5b5b5b5b5b5b5b5b5b5b5b5b5b5b5b5b5b5b5b5b5b5b5b5b5b5b5b5b5b5b5b5b5b5b5b5b5b5b5b5b5b5b5b5b5b5b5b5b5b5b5b5b5b5b5b5b5b5b5b5b5b5b5b5b5b5b5b5b5b5b5b5b5b5b5b5b5b5b5b5b5b5b5b5b5b5b5b5b5b5b5b5b5b5b5b5b5b5b5b5b5b5b5b5b5b5b5b5b5b5b5b5b5b5b5b5b5b5b5b5b5b5b5b5b5b5b5b5b5b5b5b5b5b5b5b5b5b5b5b5b5b5b5b5b5b5b5b5b5b5b5b5b5b5b5b5b5b5b5b5b5b5b5b5b5b5b5b5b5b5b5b5b5b5b5b5b5b5b601461032160003960146000f3ef000101000402000100010300000000000000fe",
                "0xef0001010004020001030f030014000000000360fe5eff006700c600690073005100ff004a00ec002900cd00ba00ab00f200fb00e30046007c00c2005400f8001b00e800e7008d0076005a002e00630033009f00c9009a00660032000d00b70031005800a3005a0025005d00050017005800e9005e00d400ab00b200cd00c6009b00b400540011000e0082007400410021003d00dc0087007000e9003e00a1004100e100fc0067003e0001007e009700ea00dc006b0096008f0038005c002a00ec00b0003b00fb003200af003c005400ec001800db005c0002001a00fe004300fb00fa00aa003a00fb002900d100e60005003c007c0094007500d800be0061008900f9005c00bb00a80099000f009500b100eb00f100b3000500ef00f7000000e900a1003a00e500ca000b00cb00d000480047006400bd001f0023001e00a8001c007b006400c500140073005a00c5005e004b00790063003b0070006400240011009e000900dc00aa00d400ac00f2001b001000af003b003300cd00e30050004800470015005c00bb006f0022001900ba009b007d00f5000b00e1001a001c007f002300f8002900f800a4001b001300b500ca004e00e800980032003800e00079004d003d003400bc005f004e007700fa00cb006c000500ac00860021002b00aa001a005500a200be007000b50073003b0004005c00d30036009400b300af00e200f000e4009e004f00320015004900fd008201005b5b5b5b5b5b5b5b5b5b5b5b5b5b5b5b5b5b5b5b5b5b5b5b5b5b5b5b5b5b5b5b5b5b5b5b5b5b5b5b5b5b5b5b5b5b5b5b5b5b5b5b5b5b5b5b5b5b5b5b5b5b5b5b5b5b5b5b5b5b5b5b5b5b5b5b5b5b5b5b5b5b5b5b5b5b5b5b5b5b5b5b5b5b5b5b5b5b5b5b5b5b5b5b5b5b5b5b5b5b5b5b5b5b5b5b5b5b5b5b5b5b5b5b5b5b5b5b5b5b5b5b5b5b5b5b5b5b5b5b5b5b5b5b5b5b5b5b5b5b5b5b5b5b5b5b5b5b5b5b5b5b5b5b5b5b5b5b5b5b5b5b5b5b5b5b5b5b5b5b5b5b5b5b5b5b5b5b5b5b5b5b5b5b5b5b5b5b5b5b5b5b5b5b5b5b5b5b5b5b5b5b5b5b5b5b5b5b5b5b5b5b5b5b5b5b5b5b5b5b5b5b5b5b5b5b5b5b5b5b5b5b5b5b5b5b5b5b5b5b5b5b5b5b5b00601461032260003960146000f3ef000101000402000100010300000000000000fe",
                "0xef0001010004020001030f03001400000000036101005eff006700c600690073005100ff004a00ec002900cd00ba00ab00f200fb00e30046007c00c2005400f8001b00e800e7008d0076005a002e00630033009f00c9009a00660032000d00b70031005800a3005a0025005d00050017005800e9005e00d400ab00b200cd00c6009b00b400540011000e0082007400410021003d00dc0087007000e9003e00a1004100e100fc0067003e0001007e009700ea00dc006b0096008f0038005c002a00ec00b0003b00fb003200af003c005400ec001800db005c0002001a00fe004300fb00fa00aa003a00fb002900d100e60005003c007c0094007500d800be0061008900f9005c00bb00a80099000f009500b100eb00f100b3000500ef00f7000000e900a1003a00e500ca000b00cb00d000480047006400bd001f0023001e00a8001c007b006400c500140073005a00c5005e004b00790063003b0070006400240011009e000900dc00aa00d400ac00f2001b001000af003b003300cd00e30050004800470015005c00bb006f0022001900ba009b007d00f5000b00e1001a001c007f002300f8002900f800a4001b001300b500ca004e00e800980032003800e00079004d003d003400bc005f004e007700fa00cb006c000500ac00860021002b00aa001a005500a200be007000b50073003b0004005c00d30036009400b300af00e200f000e4009e004f00320015004900fd008200ff5b5b5b5b5b5b5b5b5b5b5b5b5b5b5b5b5b5b5b5b5b5b5b5b5b5b5b5b5b5b5b5b5b5b5b5b5b5b5b5b5b5b5b5b5b5b5b5b5b5b5b5b5b5b5b5b5b5b5b5b5b5b5b5b5b5b5b5b5b5b5b5b5b5b5b5b5b5b5b5b5b5b5b5b5b5b5b5b5b5b5b5b5b5b5b5b5b5b5b5b5b5b5b5b5b5b5b5b5b5b5b5b5b5b5b5b5b5b5b5b5b5b5b5b5b5b5b5b5b5b5b5b5b5b5b5b5b5b5b5b5b5b5b5b5b5b5b5b5b5b5b5b5b5b5b5b5b5b5b5b5b5b5b5b5b5b5b5b5b5b5b5b5b5b5b5b5b5b5b5b5b5b5b5b5b5b5b5b5b5b5b5b5b5b5b5b5b5b5b5b5b5b5b5b5b5b5b5b5b5b5b5b5b5b5b5b5b5b5b5b5b5b5b5b5b5b5b5b5b5b5b5b5b5b5b5b5b5b5b5b5b5b5b5b5b5b5b5b5b5b5b5b5b5b5b601461032260003960146000f3ef000101000402000100010300000000000000fe"
            ],
            "gasLimit" : [
                "0xe4e1c0"
            ],
            "gasPrice" : "0x0a",
            "nonce" : "0x00",
            "secretKey" : "0x45a915e4d060149eb4365960e6a7a45f334393093061116b197e3240065ff2d8",
            "sender" : "0xa94f5374fce5edbc8e2a8697c15331677e6ebf0b",
            "to" : "0xb94f5374fce5edbc8e2a8697c15331677e6ebf0b",
            "value" : [
                "0x00"
            ]
        }
    }
}