{
    "RJUMPI_MaxOffset" : {
        "_info" : {
            "comment" : "",
            "filling-rpc-server" : "evmone-t8n 0.11.0-dev+commit.3bc4010f",
            "filling-tool-version" : "retesteth-0.3.1-cancun+commit.372a5939.Linux.g++",
            "generatedTestHash" : "7842800a671b088556f45a3de67f42a6406473b3c8a2eb7466c15630d109e0e2",
            "lllcversion" : "Version: 0.5.14-develop.2022.4.6+commit.401d5358.Linux.g++",
            "solidity" : "Version: 0.8.18-develop.2023.1.16+commit.469d6d4d.Linux.g++",
            "source" : "src/EIPTestsFiller/StateTests/stEOF/stEIP4200/RJUMPI_MaxOffsetFiller.yml",
            "sourceHash" : "cd7466c8aa58877f140efe0e742bc11488f0f2d0c1ecc193781d7d0d1da2b1c9"
        },
        "env" : {
            "currentBaseFee" : "0x0a",
            "currentBeaconRoot" : "0x0000000000000000000000000000000000000000000000000000000000000000",
            "currentCoinbase" : "0x2adc25665018aa1fe0e6bc666dac8fc2697ff9ba",
            "currentDifficulty" : "0x020000",
            "currentGasLimit" : "0x05500000",
            "currentNumber" : "0x01",
            "currentRandom" : "0x0000000000000000000000000000000000000000000000000000000000020000",
            "currentTimestamp" : "0x03e8",
            "currentWithdrawalsRoot" : "0x56e81f171bcc55a6ff8345e692c0f86e5b48e01b996cadc001622fb5e363b421",
            "previousHash" : "0x5e20a0453cecd065ea59c37ac63e079ee08998b6045136a8ce6635c7912ec0b6"
        },
        "post" : {
            "Prague" : [
                {
                    "hash" : "0xd03012e6c04fd26ce295dd534f10c86f011d84efb8e667ce30666cc1b8c3d9cc",
                    "indexes" : {
                        "data" : 0,
                        "gas" : 0,
                        "value" : 0
                    },
                    "logs" : "0x1dcc4de8dec75d7aab85b567b6ccd41ad312451b948a7413f0a142fd40d49347",
                    "txbytes" : "0xf860800a83e4e1c094b94f5374fce5edbc8e2a8697c15331677e6ebf0b80801ba07c94e62687323becbaa8b3ceac9a4bac4eda2836456f8a4cc3965b597752eddaa05701b7e30347eb8405502fa12388189aa244a0671c959026f636b4d4e06dbd9f"
                }
            ]
        },
        "pre" : {
            "0xa94f5374fce5edbc8e2a8697c15331677e6ebf0b" : {
                "balance" : "0x0bebc200",
                "code" : "0x",
                "nonce" : "0x00",
                "storage" : {
                }
            },
            "0xb94f5374fce5edbc8e2a8697c15331677e6ebf0b" : {
                "balance" : "0x00",
                "code" : "0x7fef0001010004020001802e04000000008000020000000000000000000000000060005260137f6001e17fff000000000000000000000000000000000000000000000000000000815260058101905061800081015b808210156088577f5b5b5b5b5b5b5b5b5b5b5b5b5b5b5b5b5b5b5b5b5b5b5b5b5b5b5b5b5b5b5b5b82526020820191506054565b507f7fef000101000402000100010400000000800000fe000000000000000000000081526020810190507e60005260146000f30000000000000000000000000000000000000000000000815260098101905080600080f06000556001805550",
                "nonce" : "0x00",
                "storage" : {
                }
            }
        },
        "transaction" : {
            "data" : [
                "0x"
            ],
            "gasLimit" : [
                "0xe4e1c0"
            ],
            "gasPrice" : "0x0a",
            "nonce" : "0x00",
            "secretKey" : "0x45a915e4d060149eb4365960e6a7a45f334393093061116b197e3240065ff2d8",
            "sender" : "0xa94f5374fce5edbc8e2a8697c15331677e6ebf0b",
            "to" : "0xb94f5374fce5edbc8e2a8697c15331677e6ebf0b",
            "value" : [
                "0x00"
            ]
        }
    }
}