{
    "02_tloadAfterStore" : {
        "_info" : {
            "comment" : "load after storing returns correct value",
            "filling-rpc-server" : "evm version 1.10.17-unstable-4db7599c-20220620",
            "filling-tool-version" : "retesteth-0.2.2-testinfo+commit.21f6071c.Linux.g++",
            "generatedTestHash" : "f9d52c77e7cfdba8d40afa2579d591016b07ccce837750e24ba9b637122945c8",
            "lllcversion" : "Version: 0.5.14-develop.2022.6.8+commit.401d5358.Linux.g++",
            "solidity" : "Version: 0.8.5+commit.a4f2e591.Linux.g++",
            "source" : "src/GeneralStateTestsFiller/stExample/02_tloadAfterStoreFiller.yml",
            "sourceHash" : "85cc4da4e4c95ab2549af5d12838097bc7039736696ca49adfe0b6dd616e1fdb"
        },
        "env" : {
            "currentBaseFee" : "0x0a",
            "currentCoinbase" : "0x2adc25665018aa1fe0e6bc666dac8fc2697ff9ba",
            "currentDifficulty" : "0x020000",
            "currentGasLimit" : "0x10000000000000",
            "currentNumber" : "0x01",
            "currentRandom" : "0x0000000000000000000000000000000000000000000000000000000000020000",
            "currentTimestamp" : "0x03e8",
            "previousHash" : "0x5e20a0453cecd065ea59c37ac63e079ee08998b6045136a8ce6635c7912ec0b6"
        },
        "post" : {
            "London" : [
                {
                    "hash" : "0xe2b2388de256ec2cc82b7c93909c1e99bd4f637e5c02dc31c4fb524e6eb030fc",
                    "indexes" : {
                        "data" : 0,
                        "gas" : 0,
                        "value" : 0
                    },
                    "logs" : "0x1dcc4de8dec75d7aab85b567b6ccd41ad312451b948a7413f0a142fd40d49347",
                    "txbytes" : "0x02f869018080820fa0871000000000000094000000000000000000000000000000000000000a8080c001a0265982b28582156178323a10f893819c0198e299d3563732d1ab953071309fa1a00e5e9711949eb422c3d73b15f1a7cdbb1ae105002f6b6b792607803576577e91"
                }
            ]
        },
        "pre" : {
            "0x000000000000000000000000000000000000000a" : {
                "balance" : "0x0de0b6b3a7640000",
                "code" : "0x60586000b46000b38060015550",
                "nonce" : "0x00",
                "storage" : {
                }
            },
            "0xa94f5374fce5edbc8e2a8697c15331677e6ebf0b" : {
                "balance" : "0x3635c9adc5dea00000",
                "code" : "0x",
                "nonce" : "0x00",
                "storage" : {
                }
            }
        },
        "transaction" : {
            "accessLists" : [
                [
                ]
            ],
            "data" : [
                "0x"
            ],
            "gasLimit" : [
                "0x10000000000000"
            ],
            "maxFeePerGas" : "0x0fa0",
            "maxPriorityFeePerGas" : "0x00",
            "nonce" : "0x00",
            "secretKey" : "0x45a915e4d060149eb4365960e6a7a45f334393093061116b197e3240065ff2d8",
            "sender" : "0xa94f5374fce5edbc8e2a8697c15331677e6ebf0b",
            "to" : "0x000000000000000000000000000000000000000a",
            "value" : [
                "0x00"
            ]
        }
    }
}