{
    "03_tloadAfterStoreIs0" : {
        "_info" : {
            "comment" : "Loading any other slot after storing to a slot returns 0.",
            "filling-rpc-server" : "evm version 1.10.17-unstable-c89e983e-20220222",
            "filling-tool-version" : "retesteth-0.2.2-testinfo+commit.21f6071c.Linux.g++",
            "generatedTestHash" : "7931e5ad42ab02d3566337cdff9840e586f68de508e37afdc12fa339ce759dc6",
            "lllcversion" : "Version: 0.5.14-develop.2022.6.8+commit.401d5358.Linux.g++",
            "solidity" : "Version: 0.8.5+commit.a4f2e591.Linux.g++",
            "source" : "src/GeneralStateTestsFiller/stExample/03_tloadAfterStoreIs0Filler.yml",
            "sourceHash" : "8cfb6796d6cbc32f6aa0955081c63045c8d6107902ca4021c6d2fba4ffb39d19"
        },
        "env" : {
            "currentBaseFee" : "0x0a",
            "currentCoinbase" : "0x2adc25665018aa1fe0e6bc666dac8fc2697ff9ba",
            "currentDifficulty" : "0x020000",
            "currentGasLimit" : "0x10000000000000",
            "currentNumber" : "0x01",
            "currentRandom" : "0x0000000000000000000000000000000000000000000000000000000000020000",
            "currentTimestamp" : "0x03e8",
            "previousHash" : "0x5e20a0453cecd065ea59c37ac63e079ee08998b6045136a8ce6635c7912ec0b6"
        },
        "post" : {
            "London" : [
                {
                    "hash" : "0xa7d850d1cc240ece4cb0976e866e10c11c84f622f3d94de5aa41c9ea290378aa",
                    "indexes" : {
                        "data" : 0,
                        "gas" : 0,
                        "value" : 0
                    },
                    "logs" : "0x1dcc4de8dec75d7aab85b567b6ccd41ad312451b948a7413f0a142fd40d49347",
                    "txbytes" : "0x02f8650180808207d083061a8094000000000000000000000000000000000000000a8080c080a0dcca8dea0417d776a28e5cfbd257941015eef912b4f2ca5dac03d7293f57fa9aa0140ab4cd143ff0b5bcb85f0a862b73139668b5c59c703b1e0cdfae0c95146e09"
                }
            ]
        },
        "pre" : {
            "0x000000000000000000000000000000000000000a" : {
                "balance" : "0x0de0b6b3a7640000",
                "code" : "0x601e6000b46001b3600055",
                "nonce" : "0x00",
                "storage" : {
                }
            },
            "0xa94f5374fce5edbc8e2a8697c15331677e6ebf0b" : {
                "balance" : "0x3635c9adc5dea00000",
                "code" : "0x",
                "nonce" : "0x00",
                "storage" : {
                }
            }
        },
        "transaction" : {
            "accessLists" : [
                [
                ]
            ],
            "data" : [
                "0x"
            ],
            "gasLimit" : [
                "0x061a80"
            ],
            "maxFeePerGas" : "0x07d0",
            "maxPriorityFeePerGas" : "0x00",
            "nonce" : "0x00",
            "secretKey" : "0x45a915e4d060149eb4365960e6a7a45f334393093061116b197e3240065ff2d8",
            "sender" : "0xa94f5374fce5edbc8e2a8697c15331677e6ebf0b",
            "to" : "0x000000000000000000000000000000000000000a",
            "value" : [
                "0x00"
            ]
        }
    }
}