{
    "12_tloadDelegateCall" : {
        "_info" : {
            "comment" : "delegatecall reads transient storage in the context of the current address",
            "filling-rpc-server" : "evm version 1.10.17-unstable-4045ed9e-20220620",
            "filling-tool-version" : "retesteth-0.2.1-difficulty+commit.1ee81863.Linux.g++",
            "generatedTestHash" : "167a8cba1e4fa492c0c26e5cf3a55f19887f062c1a34d8670741081e8a91bb1d",
            "lllcversion" : "Version: 0.5.14-develop.2022.6.23+commit.401d5358.Linux.g++",
            "source" : "src/GeneralStateTestsFiller/stExample/12_tloadDelegateCallFiller.yml",
            "sourceHash" : "cada66c9783f3e4a2bb4211d6a9d6ab44c8880c2057343489dfbb796d888e6ea"
        },
        "env" : {
            "currentBaseFee" : "0x0a",
            "currentCoinbase" : "0x2adc25665018aa1fe0e6bc666dac8fc2697ff9ba",
            "currentDifficulty" : "0x020000",
            "currentGasLimit" : "0x10000000000000",
            "currentNumber" : "0x01",
            "currentTimestamp" : "0x03e8",
            "previousHash" : "0x5e20a0453cecd065ea59c37ac63e079ee08998b6045136a8ce6635c7912ec0b6"
        },
        "post" : {
            "London" : [
                {
                    "hash" : "0x04a21983615fd856a6b8c588fb09d0ff639cd9b6fa0f0512f5ab325baf8b526a",
                    "indexes" : {
                        "data" : 0,
                        "gas" : 0,
                        "value" : 0
                    },
                    "logs" : "0x1dcc4de8dec75d7aab85b567b6ccd41ad312451b948a7413f0a142fd40d49347",
                    "txbytes" : "0x02f8650180808207d083061a8094000000000000000000000000000000000000000a8080c080a0dcca8dea0417d776a28e5cfbd257941015eef912b4f2ca5dac03d7293f57fa9aa0140ab4cd143ff0b5bcb85f0a862b73139668b5c59c703b1e0cdfae0c95146e09"
                }
            ]
        },
        "pre" : {
            "0x000000000000000000000000000000000000000a" : {
                "balance" : "0x0de0b6b3a7640000",
                "code" : "0x60026000b46000600060206000600b61fffff48060005550",
                "nonce" : "0x00",
                "storage" : {
                }
            },
            "0x000000000000000000000000000000000000000b" : {
                "balance" : "0x0de0b6b3a7640000",
                "code" : "0x6000b38060015550",
                "nonce" : "0x00",
                "storage" : {
                }
            },
            "0xa94f5374fce5edbc8e2a8697c15331677e6ebf0b" : {
                "balance" : "0x3635c9adc5dea00000",
                "code" : "0x",
                "nonce" : "0x00",
                "storage" : {
                }
            }
        },
        "transaction" : {
            "accessLists" : [
                [
                ]
            ],
            "data" : [
                "0x"
            ],
            "gasLimit" : [
                "0x061a80"
            ],
            "maxFeePerGas" : "0x07d0",
            "maxPriorityFeePerGas" : "0x00",
            "nonce" : "0x00",
            "secretKey" : "0x45a915e4d060149eb4365960e6a7a45f334393093061116b197e3240065ff2d8",
            "to" : "0x000000000000000000000000000000000000000a",
            "value" : [
                "0x00"
            ]
        }
    }
}