{
    "eip1559" : {
        "_info" : {
            "comment" : "Ori Pomerantz   qbzzt1@gmail.com",
            "filling-rpc-server" : "evm version 1.13.13-unstable-034bc466-20240219",
            "filling-tool-version" : "retesteth-0.3.2-cancun+commit.014a68a5.Linux.g++",
            "generatedTestHash" : "adb9177ef8c64d804ae532441941d9a15b1d9df3336284a996c011cd15733a30",
            "lllcversion" : "Version: 0.5.14-develop.2023.7.11+commit.c58ab2c6.mod.Linux.g++",
            "solidity" : "Version: 0.8.21+commit.d9974bed.Linux.g++",
            "source" : "src/GeneralStateTestsFiller/stExample/eip1559Filler.yml",
            "sourceHash" : "e7d6ec7fe861c09d3f2044ce51cebc267574ab0addc3622a0d868d6f07c27130"
        },
        "env" : {
            "currentBaseFee" : "0x03e8",
            "currentCoinbase" : "0x2adc25665018aa1fe0e6bc666dac8fc2697ff9ba",
            "currentDifficulty" : "0x020000",
            "currentExcessBlobGas" : "0x00",
            "currentGasLimit" : "0x01000000",
            "currentNumber" : "0x01",
            "currentRandom" : "0x0000000000000000000000000000000000000000000000000000000000020000",
            "currentTimestamp" : "0x03e8"
        },
        "post" : {
            "Berlin" : [
                {
                    "expectException" : "TR_TypeNotSupported",
                    "hash" : "0xf15ded6d6f0300d712c84648e5cff045bae18d4c508c379c5404aed1e6227088",
                    "indexes" : {
                        "data" : 0,
                        "gas" : 0,
                        "value" : 0
                    },
                    "logs" : "0x1dcc4de8dec75d7aab85b567b6ccd41ad312451b948a7413f0a142fd40d49347",
                    "txbytes" : "0x02f8c101010a8207d0833d090094cccccccccccccccccccccccccccccccccccccccc8000f85bf85994ccccccccccccccccccccccccccccccccccccccccf842a00000000000000000000000000000000000000000000000000000000000000000a0000000000000000000000000000000000000000000000000000000000000000180a0d671815898b8dd34321adbba4cb6a57baa7017323c26946f3719b00e70c755c2a03528b9efe3be57ea65a933d1e6bbf3b7d0c78830138883c1201e0c641fee6464"
                }
            ],
            "Byzantium" : [
                {
                    "expectException" : "TR_TypeNotSupported",
                    "hash" : "0xf15ded6d6f0300d712c84648e5cff045bae18d4c508c379c5404aed1e6227088",
                    "indexes" : {
                        "data" : 0,
                        "gas" : 0,
                        "value" : 0
                    },
                    "logs" : "0x1dcc4de8dec75d7aab85b567b6ccd41ad312451b948a7413f0a142fd40d49347",
                    "txbytes" : "0x02f8c101010a8207d0833d090094cccccccccccccccccccccccccccccccccccccccc8000f85bf85994ccccccccccccccccccccccccccccccccccccccccf842a00000000000000000000000000000000000000000000000000000000000000000a0000000000000000000000000000000000000000000000000000000000000000180a0d671815898b8dd34321adbba4cb6a57baa7017323c26946f3719b00e70c755c2a03528b9efe3be57ea65a933d1e6bbf3b7d0c78830138883c1201e0c641fee6464"
                }
            ],
            "Cancun" : [
                {
                    "hash" : "0x2258e4c7f8bf2fa4530c72018987368c99fb53f9a0b6c617114ce175740d2313",
                    "indexes" : {
                        "data" : 0,
                        "gas" : 0,
                        "value" : 0
                    },
                    "logs" : "0x1dcc4de8dec75d7aab85b567b6ccd41ad312451b948a7413f0a142fd40d49347",
                    "txbytes" : "0x02f8c101010a8207d0833d090094cccccccccccccccccccccccccccccccccccccccc8000f85bf85994ccccccccccccccccccccccccccccccccccccccccf842a00000000000000000000000000000000000000000000000000000000000000000a0000000000000000000000000000000000000000000000000000000000000000180a0d671815898b8dd34321adbba4cb6a57baa7017323c26946f3719b00e70c755c2a03528b9efe3be57ea65a933d1e6bbf3b7d0c78830138883c1201e0c641fee6464"
                }
            ],
            "Constantinople" : [
                {
                    "expectException" : "TR_TypeNotSupported",
                    "hash" : "0xf15ded6d6f0300d712c84648e5cff045bae18d4c508c379c5404aed1e6227088",
                    "indexes" : {
                        "data" : 0,
                        "gas" : 0,
                        "value" : 0
                    },
                    "logs" : "0x1dcc4de8dec75d7aab85b567b6ccd41ad312451b948a7413f0a142fd40d49347",
                    "txbytes" : "0x02f8c101010a8207d0833d090094cccccccccccccccccccccccccccccccccccccccc8000f85bf85994ccccccccccccccccccccccccccccccccccccccccf842a00000000000000000000000000000000000000000000000000000000000000000a0000000000000000000000000000000000000000000000000000000000000000180a0d671815898b8dd34321adbba4cb6a57baa7017323c26946f3719b00e70c755c2a03528b9efe3be57ea65a933d1e6bbf3b7d0c78830138883c1201e0c641fee6464"
                }
            ],
            "ConstantinopleFix" : [
                {
                    "expectException" : "TR_TypeNotSupported",
                    "hash" : "0xf15ded6d6f0300d712c84648e5cff045bae18d4c508c379c5404aed1e6227088",
                    "indexes" : {
                        "data" : 0,
                        "gas" : 0,
                        "value" : 0
                    },
                    "logs" : "0x1dcc4de8dec75d7aab85b567b6ccd41ad312451b948a7413f0a142fd40d49347",
                    "txbytes" : "0x02f8c101010a8207d0833d090094cccccccccccccccccccccccccccccccccccccccc8000f85bf85994ccccccccccccccccccccccccccccccccccccccccf842a00000000000000000000000000000000000000000000000000000000000000000a0000000000000000000000000000000000000000000000000000000000000000180a0d671815898b8dd34321adbba4cb6a57baa7017323c26946f3719b00e70c755c2a03528b9efe3be57ea65a933d1e6bbf3b7d0c78830138883c1201e0c641fee6464"
                }
            ],
            "EIP150" : [
                {
                    "expectException" : "TR_TypeNotSupported",
                    "hash" : "0x6216b604a66371432376e6b2818199c7961eb7f454645ed3ebba89608478022a",
                    "indexes" : {
                        "data" : 0,
                        "gas" : 0,
                        "value" : 0
                    },
                    "logs" : "0x1dcc4de8dec75d7aab85b567b6ccd41ad312451b948a7413f0a142fd40d49347",
                    "txbytes" : "0x02f8c101010a8207d0833d090094cccccccccccccccccccccccccccccccccccccccc8000f85bf85994ccccccccccccccccccccccccccccccccccccccccf842a00000000000000000000000000000000000000000000000000000000000000000a0000000000000000000000000000000000000000000000000000000000000000180a0d671815898b8dd34321adbba4cb6a57baa7017323c26946f3719b00e70c755c2a03528b9efe3be57ea65a933d1e6bbf3b7d0c78830138883c1201e0c641fee6464"
                }
            ],
            "EIP158" : [
                {
                    "expectException" : "TR_TypeNotSupported",
                    "hash" : "0xf15ded6d6f0300d712c84648e5cff045bae18d4c508c379c5404aed1e6227088",
                    "indexes" : {
                        "data" : 0,
                        "gas" : 0,
                        "value" : 0
                    },
                    "logs" : "0x1dcc4de8dec75d7aab85b567b6ccd41ad312451b948a7413f0a142fd40d49347",
                    "txbytes" : "0x02f8c101010a8207d0833d090094cccccccccccccccccccccccccccccccccccccccc8000f85bf85994ccccccccccccccccccccccccccccccccccccccccf842a00000000000000000000000000000000000000000000000000000000000000000a0000000000000000000000000000000000000000000000000000000000000000180a0d671815898b8dd34321adbba4cb6a57baa7017323c26946f3719b00e70c755c2a03528b9efe3be57ea65a933d1e6bbf3b7d0c78830138883c1201e0c641fee6464"
                }
            ],
            "Frontier" : [
                {
                    "expectException" : "TR_TypeNotSupported",
                    "hash" : "0x6216b604a66371432376e6b2818199c7961eb7f454645ed3ebba89608478022a",
                    "indexes" : {
                        "data" : 0,
                        "gas" : 0,
                        "value" : 0
                    },
                    "logs" : "0x1dcc4de8dec75d7aab85b567b6ccd41ad312451b948a7413f0a142fd40d49347",
                    "txbytes" : "0x02f8c101010a8207d0833d090094cccccccccccccccccccccccccccccccccccccccc8000f85bf85994ccccccccccccccccccccccccccccccccccccccccf842a00000000000000000000000000000000000000000000000000000000000000000a0000000000000000000000000000000000000000000000000000000000000000180a0d671815898b8dd34321adbba4cb6a57baa7017323c26946f3719b00e70c755c2a03528b9efe3be57ea65a933d1e6bbf3b7d0c78830138883c1201e0c641fee6464"
                }
            ],
            "Homestead" : [
                {
                    "expectException" : "TR_TypeNotSupported",
                    "hash" : "0x6216b604a66371432376e6b2818199c7961eb7f454645ed3ebba89608478022a",
                    "indexes" : {
                        "data" : 0,
                        "gas" : 0,
                        "value" : 0
                    },
                    "logs" : "0x1dcc4de8dec75d7aab85b567b6ccd41ad312451b948a7413f0a142fd40d49347",
                    "txbytes" : "0x02f8c101010a8207d0833d090094cccccccccccccccccccccccccccccccccccccccc8000f85bf85994ccccccccccccccccccccccccccccccccccccccccf842a00000000000000000000000000000000000000000000000000000000000000000a0000000000000000000000000000000000000000000000000000000000000000180a0d671815898b8dd34321adbba4cb6a57baa7017323c26946f3719b00e70c755c2a03528b9efe3be57ea65a933d1e6bbf3b7d0c78830138883c1201e0c641fee6464"
                }
            ],
            "Istanbul" : [
                {
                    "expectException" : "TR_TypeNotSupported",
                    "hash" : "0xf15ded6d6f0300d712c84648e5cff045bae18d4c508c379c5404aed1e6227088",
                    "indexes" : {
                        "data" : 0,
                        "gas" : 0,
                        "value" : 0
                    },
                    "logs" : "0x1dcc4de8dec75d7aab85b567b6ccd41ad312451b948a7413f0a142fd40d49347",
                    "txbytes" : "0x02f8c101010a8207d0833d090094cccccccccccccccccccccccccccccccccccccccc8000f85bf85994ccccccccccccccccccccccccccccccccccccccccf842a00000000000000000000000000000000000000000000000000000000000000000a0000000000000000000000000000000000000000000000000000000000000000180a0d671815898b8dd34321adbba4cb6a57baa7017323c26946f3719b00e70c755c2a03528b9efe3be57ea65a933d1e6bbf3b7d0c78830138883c1201e0c641fee6464"
                }
            ],
            "London" : [
                {
                    "hash" : "0xfb1d2623b226371dec4a95cf8bfc27f21c23ca507e879a4e23cae0e5c71cd60a",
                    "indexes" : {
                        "data" : 0,
                        "gas" : 0,
                        "value" : 0
                    },
                    "logs" : "0x1dcc4de8dec75d7aab85b567b6ccd41ad312451b948a7413f0a142fd40d49347",
                    "txbytes" : "0x02f8c101010a8207d0833d090094cccccccccccccccccccccccccccccccccccccccc8000f85bf85994ccccccccccccccccccccccccccccccccccccccccf842a00000000000000000000000000000000000000000000000000000000000000000a0000000000000000000000000000000000000000000000000000000000000000180a0d671815898b8dd34321adbba4cb6a57baa7017323c26946f3719b00e70c755c2a03528b9efe3be57ea65a933d1e6bbf3b7d0c78830138883c1201e0c641fee6464"
                }
            ],
            "Paris" : [
                {
                    "hash" : "0xfb1d2623b226371dec4a95cf8bfc27f21c23ca507e879a4e23cae0e5c71cd60a",
                    "indexes" : {
                        "data" : 0,
                        "gas" : 0,
                        "value" : 0
                    },
                    "logs" : "0x1dcc4de8dec75d7aab85b567b6ccd41ad312451b948a7413f0a142fd40d49347",
                    "txbytes" : "0x02f8c101010a8207d0833d090094cccccccccccccccccccccccccccccccccccccccc8000f85bf85994ccccccccccccccccccccccccccccccccccccccccf842a00000000000000000000000000000000000000000000000000000000000000000a0000000000000000000000000000000000000000000000000000000000000000180a0d671815898b8dd34321adbba4cb6a57baa7017323c26946f3719b00e70c755c2a03528b9efe3be57ea65a933d1e6bbf3b7d0c78830138883c1201e0c641fee6464"
                }
            ],
            "Shanghai" : [
                {
                    "hash" : "0xfb1d2623b226371dec4a95cf8bfc27f21c23ca507e879a4e23cae0e5c71cd60a",
                    "indexes" : {
                        "data" : 0,
                        "gas" : 0,
                        "value" : 0
                    },
                    "logs" : "0x1dcc4de8dec75d7aab85b567b6ccd41ad312451b948a7413f0a142fd40d49347",
                    "txbytes" : "0x02f8c101010a8207d0833d090094cccccccccccccccccccccccccccccccccccccccc8000f85bf85994ccccccccccccccccccccccccccccccccccccccccf842a00000000000000000000000000000000000000000000000000000000000000000a0000000000000000000000000000000000000000000000000000000000000000180a0d671815898b8dd34321adbba4cb6a57baa7017323c26946f3719b00e70c755c2a03528b9efe3be57ea65a933d1e6bbf3b7d0c78830138883c1201e0c641fee6464"
                }
            ]
        },
        "pre" : {
            "0x000f3df6d732807ef1319fb7b8bb8522d0beac02" : {
                "balance" : "0x00",
                "code" : "0x3373fffffffffffffffffffffffffffffffffffffffe14604d57602036146024575f5ffd5b5f35801560495762001fff810690815414603c575f5ffd5b62001fff01545f5260205ff35b5f5ffd5b62001fff42064281555f359062001fff015500",
                "nonce" : "0x01",
                "storage" : {
                }
            },
            "0xa94f5374fce5edbc8e2a8697c15331677e6ebf0b" : {
                "balance" : "0x0de0b6b3a7640000",
                "code" : "0x",
                "nonce" : "0x01",
                "storage" : {
                }
            },
            "0xcccccccccccccccccccccccccccccccccccccccc" : {
                "balance" : "0x0de0b6b3a7640000",
                "code" : "0x3a6000554860015500",
                "nonce" : "0x01",
                "storage" : {
                }
            }
        },
        "transaction" : {
            "accessLists" : [
                [
                    {
                        "address" : "0xcccccccccccccccccccccccccccccccccccccccc",
                        "storageKeys" : [
                            "0x0000000000000000000000000000000000000000000000000000000000000000",
                            "0x0000000000000000000000000000000000000000000000000000000000000001"
                        ]
                    }
                ]
            ],
            "data" : [
                "0x00"
            ],
            "gasLimit" : [
                "0x3d0900"
            ],
            "maxFeePerGas" : "0x07d0",
            "maxPriorityFeePerGas" : "0x0a",
            "nonce" : "0x01",
            "secretKey" : "0x45a915e4d060149eb4365960e6a7a45f334393093061116b197e3240065ff2d8",
            "sender" : "0xa94f5374fce5edbc8e2a8697c15331677e6ebf0b",
            "to" : "0xcccccccccccccccccccccccccccccccccccccccc",
            "value" : [
                "0x00"
            ]
        }
    }
}