{
    "invalidTr" : {
        "_info" : {
            "comment" : "A state test with invalid transaction example filler",
            "filling-rpc-server" : "evm version 1.10.4-unstable-950d99c2-20210602",
            "filling-tool-version" : "retesteth-0.1.1-eip1559+commit.458b2c9b.Linux.g++",
            "lllcversion" : "Version: 0.5.14-develop.2021.5.18+commit.14c9d5de.mod.Linux.g++",
            "source" : "src/GeneralStateTestsFiller/stExample/invalidTrFiller.json",
            "sourceHash" : "9146b5df0e426cde490b76d331640507fe1038ff69ba0ade8921dbedfbe7253e"
        },
        "env" : {
            "currentCoinbase" : "0x2adc25665018aa1fe0e6bc666dac8fc2697ff9ba",
            "currentDifficulty" : "0x020000",
            "currentNumber" : "0x01",
            "currentTimestamp" : "0x03e8",
            "previousHash" : "0x5e20a0453cecd065ea59c37ac63e079ee08998b6045136a8ce6635c7912ec0b6",
            "currentGasLimit" : "0xff112233445566",
            "currentBaseFee" : "0x0a"
        },
        "post" : {
            "Berlin" : [
                {
                    "indexes" : {
                        "data" : 0,
                        "gas" : 0,
                        "value" : 0
                    },
                    "hash" : "0x4c9c6cf002e6a88a5444662ca9ceb6a116b7b69ced38c470bf6e4a12a6313967",
                    "txbytes" : "0xf862800a8203e894095e7baea6a6c7c4c2dfeb977efac326af552d87830186a0801ba0bb6249049eb38732aa28ef23385945e51c9582c7fab78bd33f6086bd4181615da035118c5432cd6a3bdd6f989d4eee3d43d11736e640bc249d9a2c37e01db3d4b5",
                    "expectException" : "TR_IntrinsicGas",
                    "logs" : "0x1dcc4de8dec75d7aab85b567b6ccd41ad312451b948a7413f0a142fd40d49347"
                }
            ],
            "London" : [
                {
                    "indexes" : {
                        "data" : 0,
                        "gas" : 0,
                        "value" : 0
                    },
                    "hash" : "0x4c9c6cf002e6a88a5444662ca9ceb6a116b7b69ced38c470bf6e4a12a6313967",
                    "txbytes" : "0xf862800a8203e894095e7baea6a6c7c4c2dfeb977efac326af552d87830186a0801ba0bb6249049eb38732aa28ef23385945e51c9582c7fab78bd33f6086bd4181615da035118c5432cd6a3bdd6f989d4eee3d43d11736e640bc249d9a2c37e01db3d4b5",
                    "expectException" : "TR_IntrinsicGas",
                    "logs" : "0x1dcc4de8dec75d7aab85b567b6ccd41ad312451b948a7413f0a142fd40d49347"
                }
            ]
        },
        "pre" : {
            "0x095e7baea6a6c7c4c2dfeb977efac326af552d87" : {
                "balance" : "0x0de0b6b3a7640000",
                "code" : "0x600160010160005500",
                "nonce" : "0x00",
                "storage" : {
                }
            },
            "0x2adc25665018aa1fe0e6bc666dac8fc2697ff9ba" : {
                "balance" : "0x00",
                "code" : "0x",
                "nonce" : "0x01",
                "storage" : {
                }
            },
            "0xa94f5374fce5edbc8e2a8697c15331677e6ebf0b" : {
                "balance" : "0x0de0b6b3a7640000",
                "code" : "0x",
                "nonce" : "0x00",
                "storage" : {
                }
            }
        },
        "transaction" : {
            "data" : [
                "0x"
            ],
            "gasPrice" : "0x0a",
            "gasLimit" : [
                "0x03e8"
            ],
            "nonce" : "0x00",
            "secretKey" : "0x45a915e4d060149eb4365960e6a7a45f334393093061116b197e3240065ff2d8",
            "to" : "0x095e7baea6a6c7c4c2dfeb977efac326af552d87",
            "value" : [
                "0x0186a0"
            ]
        }
    }
}