{
    "labelsExample" : {
        "_info" : {
            "comment" : "An example how to use labels in expect section",
            "filling-rpc-server" : "evm version 1.13.11-unstable-765f2904-20240124",
            "filling-tool-version" : "retesteth-0.3.2-cancun+commit.ea13235b.Linux.g++",
            "generatedTestHash" : "6ea3d781c2d9d9c6d81704c73fb82313bbe7488443629d62d05153d6b720a19e",
            "labels" : {
                "0" : "transaction1",
                "1" : "transaction2",
                "2" : "transaction3",
                "3" : "transaction3"
            },
            "lllcversion" : "Version: 0.5.14-develop.2023.7.11+commit.c58ab2c6.mod.Linux.g++",
            "solidity" : "Version: 0.8.21+commit.d9974bed.Linux.g++",
            "source" : "src/GeneralStateTestsFiller/stExample/labelsExampleFiller.yml",
            "sourceHash" : "4ff3071fcff2e640a544d761746d2c8254c4d49cf9bb30b1c3b428b67658f194"
        },
        "env" : {
            "currentBaseFee" : "0x0a",
            "currentCoinbase" : "0x2adc25665018aa1fe0e6bc666dac8fc2697ff9ba",
            "currentDifficulty" : "0x020000",
            "currentExcessBlobGas" : "0x00",
            "currentGasLimit" : "0xff112233445566",
            "currentNumber" : "0x01",
            "currentRandom" : "0x0000000000000000000000000000000000000000000000000000000000020000",
            "currentTimestamp" : "0x03e8"
        },
        "post" : {
            "Berlin" : [
                {
                    "hash" : "0x14feeb642a0bdf3088f54103212c4d6c442b36da7a1c51bf88204db33b5e95e4",
                    "indexes" : {
                        "data" : 0,
                        "gas" : 0,
                        "value" : 0
                    },
                    "logs" : "0x1dcc4de8dec75d7aab85b567b6ccd41ad312451b948a7413f0a142fd40d49347",
                    "txbytes" : "0xf863800a83061a8094095e7baea6a6c7c4c2dfeb977efac326af552d87830186a0011ca064f084caf7c68cc95d8d2681b780c9743198f0d751564bd2b6d090c140375e86a07d65260b3168acbdbf8d9bd3eea906fffe193e75d5a0ea6edd0689dafb2f3846"
                },
                {
                    "hash" : "0x65af8ce194077a635de5e77a658858df2bad8923b1e3b6506081b5b389419b82",
                    "indexes" : {
                        "data" : 1,
                        "gas" : 0,
                        "value" : 0
                    },
                    "logs" : "0x1dcc4de8dec75d7aab85b567b6ccd41ad312451b948a7413f0a142fd40d49347",
                    "txbytes" : "0xf863800a83061a8094095e7baea6a6c7c4c2dfeb977efac326af552d87830186a0021ca04661c5bf586a5d6b957d0a5d7d0cf0f497d346173fc3e9bc242739372aee19a4a00e8711b7c66f394f0e02d812f6977a0854588de8136cd4d6463d61e8906c6d89"
                },
                {
                    "hash" : "0xbf0e9502795f5bebb3397b13b20e1d8f4486e8071d658eeaf19834c251a9a4de",
                    "indexes" : {
                        "data" : 2,
                        "gas" : 0,
                        "value" : 0
                    },
                    "logs" : "0x1dcc4de8dec75d7aab85b567b6ccd41ad312451b948a7413f0a142fd40d49347",
                    "txbytes" : "0xf863800a83061a8094095e7baea6a6c7c4c2dfeb977efac326af552d87830186a0031ba027a71db0ff4b0ef161071519ca4bf60678520a77dc01700bfa8423487feea5cba00249081f34c0d69ee540dd6d3d1f716a9c5ec4216fae20842edda248af0a9e5e"
                },
                {
                    "hash" : "0xbf0e9502795f5bebb3397b13b20e1d8f4486e8071d658eeaf19834c251a9a4de",
                    "indexes" : {
                        "data" : 3,
                        "gas" : 0,
                        "value" : 0
                    },
                    "logs" : "0x1dcc4de8dec75d7aab85b567b6ccd41ad312451b948a7413f0a142fd40d49347",
                    "txbytes" : "0xf863800a83061a8094095e7baea6a6c7c4c2dfeb977efac326af552d87830186a0031ba027a71db0ff4b0ef161071519ca4bf60678520a77dc01700bfa8423487feea5cba00249081f34c0d69ee540dd6d3d1f716a9c5ec4216fae20842edda248af0a9e5e"
                }
            ],
            "Cancun" : [
                {
                    "hash" : "0xa1c2caee359ec5f81503a1031aec977685ebb79dcf3a20d9ee79118956c9fd40",
                    "indexes" : {
                        "data" : 0,
                        "gas" : 0,
                        "value" : 0
                    },
                    "logs" : "0x1dcc4de8dec75d7aab85b567b6ccd41ad312451b948a7413f0a142fd40d49347",
                    "txbytes" : "0xf863800a83061a8094095e7baea6a6c7c4c2dfeb977efac326af552d87830186a0011ca064f084caf7c68cc95d8d2681b780c9743198f0d751564bd2b6d090c140375e86a07d65260b3168acbdbf8d9bd3eea906fffe193e75d5a0ea6edd0689dafb2f3846"
                },
                {
                    "hash" : "0xc3bd572df3e139a406d679fc5fd6cb5fbe36ab8795059ec8be2ccd0ad2b3b32c",
                    "indexes" : {
                        "data" : 1,
                        "gas" : 0,
                        "value" : 0
                    },
                    "logs" : "0x1dcc4de8dec75d7aab85b567b6ccd41ad312451b948a7413f0a142fd40d49347",
                    "txbytes" : "0xf863800a83061a8094095e7baea6a6c7c4c2dfeb977efac326af552d87830186a0021ca04661c5bf586a5d6b957d0a5d7d0cf0f497d346173fc3e9bc242739372aee19a4a00e8711b7c66f394f0e02d812f6977a0854588de8136cd4d6463d61e8906c6d89"
                },
                {
                    "hash" : "0x85a181437d45eb531523ea73c1e48faed31930484beb4fad8ecbb88081a9e119",
                    "indexes" : {
                        "data" : 2,
                        "gas" : 0,
                        "value" : 0
                    },
                    "logs" : "0x1dcc4de8dec75d7aab85b567b6ccd41ad312451b948a7413f0a142fd40d49347",
                    "txbytes" : "0xf863800a83061a8094095e7baea6a6c7c4c2dfeb977efac326af552d87830186a0031ba027a71db0ff4b0ef161071519ca4bf60678520a77dc01700bfa8423487feea5cba00249081f34c0d69ee540dd6d3d1f716a9c5ec4216fae20842edda248af0a9e5e"
                },
                {
                    "hash" : "0x85a181437d45eb531523ea73c1e48faed31930484beb4fad8ecbb88081a9e119",
                    "indexes" : {
                        "data" : 3,
                        "gas" : 0,
                        "value" : 0
                    },
                    "logs" : "0x1dcc4de8dec75d7aab85b567b6ccd41ad312451b948a7413f0a142fd40d49347",
                    "txbytes" : "0xf863800a83061a8094095e7baea6a6c7c4c2dfeb977efac326af552d87830186a0031ba027a71db0ff4b0ef161071519ca4bf60678520a77dc01700bfa8423487feea5cba00249081f34c0d69ee540dd6d3d1f716a9c5ec4216fae20842edda248af0a9e5e"
                }
            ],
            "London" : [
                {
                    "hash" : "0xa1c2caee359ec5f81503a1031aec977685ebb79dcf3a20d9ee79118956c9fd40",
                    "indexes" : {
                        "data" : 0,
                        "gas" : 0,
                        "value" : 0
                    },
                    "logs" : "0x1dcc4de8dec75d7aab85b567b6ccd41ad312451b948a7413f0a142fd40d49347",
                    "txbytes" : "0xf863800a83061a8094095e7baea6a6c7c4c2dfeb977efac326af552d87830186a0011ca064f084caf7c68cc95d8d2681b780c9743198f0d751564bd2b6d090c140375e86a07d65260b3168acbdbf8d9bd3eea906fffe193e75d5a0ea6edd0689dafb2f3846"
                },
                {
                    "hash" : "0xc3bd572df3e139a406d679fc5fd6cb5fbe36ab8795059ec8be2ccd0ad2b3b32c",
                    "indexes" : {
                        "data" : 1,
                        "gas" : 0,
                        "value" : 0
                    },
                    "logs" : "0x1dcc4de8dec75d7aab85b567b6ccd41ad312451b948a7413f0a142fd40d49347",
                    "txbytes" : "0xf863800a83061a8094095e7baea6a6c7c4c2dfeb977efac326af552d87830186a0021ca04661c5bf586a5d6b957d0a5d7d0cf0f497d346173fc3e9bc242739372aee19a4a00e8711b7c66f394f0e02d812f6977a0854588de8136cd4d6463d61e8906c6d89"
                },
                {
                    "hash" : "0x85a181437d45eb531523ea73c1e48faed31930484beb4fad8ecbb88081a9e119",
                    "indexes" : {
                        "data" : 2,
                        "gas" : 0,
                        "value" : 0
                    },
                    "logs" : "0x1dcc4de8dec75d7aab85b567b6ccd41ad312451b948a7413f0a142fd40d49347",
                    "txbytes" : "0xf863800a83061a8094095e7baea6a6c7c4c2dfeb977efac326af552d87830186a0031ba027a71db0ff4b0ef161071519ca4bf60678520a77dc01700bfa8423487feea5cba00249081f34c0d69ee540dd6d3d1f716a9c5ec4216fae20842edda248af0a9e5e"
                },
                {
                    "hash" : "0x85a181437d45eb531523ea73c1e48faed31930484beb4fad8ecbb88081a9e119",
                    "indexes" : {
                        "data" : 3,
                        "gas" : 0,
                        "value" : 0
                    },
                    "logs" : "0x1dcc4de8dec75d7aab85b567b6ccd41ad312451b948a7413f0a142fd40d49347",
                    "txbytes" : "0xf863800a83061a8094095e7baea6a6c7c4c2dfeb977efac326af552d87830186a0031ba027a71db0ff4b0ef161071519ca4bf60678520a77dc01700bfa8423487feea5cba00249081f34c0d69ee540dd6d3d1f716a9c5ec4216fae20842edda248af0a9e5e"
                }
            ],
            "Paris" : [
                {
                    "hash" : "0xa1c2caee359ec5f81503a1031aec977685ebb79dcf3a20d9ee79118956c9fd40",
                    "indexes" : {
                        "data" : 0,
                        "gas" : 0,
                        "value" : 0
                    },
                    "logs" : "0x1dcc4de8dec75d7aab85b567b6ccd41ad312451b948a7413f0a142fd40d49347",
                    "txbytes" : "0xf863800a83061a8094095e7baea6a6c7c4c2dfeb977efac326af552d87830186a0011ca064f084caf7c68cc95d8d2681b780c9743198f0d751564bd2b6d090c140375e86a07d65260b3168acbdbf8d9bd3eea906fffe193e75d5a0ea6edd0689dafb2f3846"
                },
                {
                    "hash" : "0xc3bd572df3e139a406d679fc5fd6cb5fbe36ab8795059ec8be2ccd0ad2b3b32c",
                    "indexes" : {
                        "data" : 1,
                        "gas" : 0,
                        "value" : 0
                    },
                    "logs" : "0x1dcc4de8dec75d7aab85b567b6ccd41ad312451b948a7413f0a142fd40d49347",
                    "txbytes" : "0xf863800a83061a8094095e7baea6a6c7c4c2dfeb977efac326af552d87830186a0021ca04661c5bf586a5d6b957d0a5d7d0cf0f497d346173fc3e9bc242739372aee19a4a00e8711b7c66f394f0e02d812f6977a0854588de8136cd4d6463d61e8906c6d89"
                },
                {
                    "hash" : "0x85a181437d45eb531523ea73c1e48faed31930484beb4fad8ecbb88081a9e119",
                    "indexes" : {
                        "data" : 2,
                        "gas" : 0,
                        "value" : 0
                    },
                    "logs" : "0x1dcc4de8dec75d7aab85b567b6ccd41ad312451b948a7413f0a142fd40d49347",
                    "txbytes" : "0xf863800a83061a8094095e7baea6a6c7c4c2dfeb977efac326af552d87830186a0031ba027a71db0ff4b0ef161071519ca4bf60678520a77dc01700bfa8423487feea5cba00249081f34c0d69ee540dd6d3d1f716a9c5ec4216fae20842edda248af0a9e5e"
                },
                {
                    "hash" : "0x85a181437d45eb531523ea73c1e48faed31930484beb4fad8ecbb88081a9e119",
                    "indexes" : {
                        "data" : 3,
                        "gas" : 0,
                        "value" : 0
                    },
                    "logs" : "0x1dcc4de8dec75d7aab85b567b6ccd41ad312451b948a7413f0a142fd40d49347",
                    "txbytes" : "0xf863800a83061a8094095e7baea6a6c7c4c2dfeb977efac326af552d87830186a0031ba027a71db0ff4b0ef161071519ca4bf60678520a77dc01700bfa8423487feea5cba00249081f34c0d69ee540dd6d3d1f716a9c5ec4216fae20842edda248af0a9e5e"
                }
            ],
            "Shanghai" : [
                {
                    "hash" : "0xa1c2caee359ec5f81503a1031aec977685ebb79dcf3a20d9ee79118956c9fd40",
                    "indexes" : {
                        "data" : 0,
                        "gas" : 0,
                        "value" : 0
                    },
                    "logs" : "0x1dcc4de8dec75d7aab85b567b6ccd41ad312451b948a7413f0a142fd40d49347",
                    "txbytes" : "0xf863800a83061a8094095e7baea6a6c7c4c2dfeb977efac326af552d87830186a0011ca064f084caf7c68cc95d8d2681b780c9743198f0d751564bd2b6d090c140375e86a07d65260b3168acbdbf8d9bd3eea906fffe193e75d5a0ea6edd0689dafb2f3846"
                },
                {
                    "hash" : "0xc3bd572df3e139a406d679fc5fd6cb5fbe36ab8795059ec8be2ccd0ad2b3b32c",
                    "indexes" : {
                        "data" : 1,
                        "gas" : 0,
                        "value" : 0
                    },
                    "logs" : "0x1dcc4de8dec75d7aab85b567b6ccd41ad312451b948a7413f0a142fd40d49347",
                    "txbytes" : "0xf863800a83061a8094095e7baea6a6c7c4c2dfeb977efac326af552d87830186a0021ca04661c5bf586a5d6b957d0a5d7d0cf0f497d346173fc3e9bc242739372aee19a4a00e8711b7c66f394f0e02d812f6977a0854588de8136cd4d6463d61e8906c6d89"
                },
                {
                    "hash" : "0x85a181437d45eb531523ea73c1e48faed31930484beb4fad8ecbb88081a9e119",
                    "indexes" : {
                        "data" : 2,
                        "gas" : 0,
                        "value" : 0
                    },
                    "logs" : "0x1dcc4de8dec75d7aab85b567b6ccd41ad312451b948a7413f0a142fd40d49347",
                    "txbytes" : "0xf863800a83061a8094095e7baea6a6c7c4c2dfeb977efac326af552d87830186a0031ba027a71db0ff4b0ef161071519ca4bf60678520a77dc01700bfa8423487feea5cba00249081f34c0d69ee540dd6d3d1f716a9c5ec4216fae20842edda248af0a9e5e"
                },
                {
                    "hash" : "0x85a181437d45eb531523ea73c1e48faed31930484beb4fad8ecbb88081a9e119",
                    "indexes" : {
                        "data" : 3,
                        "gas" : 0,
                        "value" : 0
                    },
                    "logs" : "0x1dcc4de8dec75d7aab85b567b6ccd41ad312451b948a7413f0a142fd40d49347",
                    "txbytes" : "0xf863800a83061a8094095e7baea6a6c7c4c2dfeb977efac326af552d87830186a0031ba027a71db0ff4b0ef161071519ca4bf60678520a77dc01700bfa8423487feea5cba00249081f34c0d69ee540dd6d3d1f716a9c5ec4216fae20842edda248af0a9e5e"
                }
            ]
        },
        "pre" : {
            "0x095e7baea6a6c7c4c2dfeb977efac326af552d87" : {
                "balance" : "0x0de0b6b3a7640000",
                "code" : "0x60003560005500",
                "nonce" : "0x00",
                "storage" : {
                }
            },
            "0xa94f5374fce5edbc8e2a8697c15331677e6ebf0b" : {
                "balance" : "0x0de0b6b3a7640000",
                "code" : "0x",
                "nonce" : "0x00",
                "storage" : {
                }
            }
        },
        "transaction" : {
            "data" : [
                "0x01",
                "0x02",
                "0x03",
                "0x03"
            ],
            "gasLimit" : [
                "0x061a80"
            ],
            "gasPrice" : "0x0a",
            "nonce" : "0x00",
            "secretKey" : "0x45a915e4d060149eb4365960e6a7a45f334393093061116b197e3240065ff2d8",
            "sender" : "0xa94f5374fce5edbc8e2a8697c15331677e6ebf0b",
            "to" : "0x095e7baea6a6c7c4c2dfeb977efac326af552d87",
            "value" : [
                "0x0186a0"
            ]
        }
    }
}