{
    "selfBalanceEqualsBalance" : {
        "_info" : {
            "comment" : "",
            "filling-rpc-server" : "evm version 1.13.11-unstable-765f2904-20240124",
            "filling-tool-version" : "retesteth-0.3.2-cancun+commit.ea13235b.Linux.g++",
            "generatedTestHash" : "33e1aa34a52d906a7e47843bcf179a0892ddd74632a5e3b5e5e1939f8b2de78b",
            "lllcversion" : "Version: 0.5.14-develop.2023.7.11+commit.c58ab2c6.mod.Linux.g++",
            "solidity" : "Version: 0.8.21+commit.d9974bed.Linux.g++",
            "source" : "src/GeneralStateTestsFiller/stSelfBalance/selfBalanceEqualsBalanceFiller.json",
            "sourceHash" : "1d83c1c97ca6e113a887021f59db0094637534e34e88a9d03b4149827a561a54"
        },
        "env" : {
            "currentBaseFee" : "0x0a",
            "currentCoinbase" : "0x2adc25665018aa1fe0e6bc666dac8fc2697ff9ba",
            "currentDifficulty" : "0x020000",
            "currentExcessBlobGas" : "0x00",
            "currentGasLimit" : "0x02540be400",
            "currentNumber" : "0x01",
            "currentRandom" : "0x0000000000000000000000000000000000000000000000000000000000020000",
            "currentTimestamp" : "0x03e8"
        },
        "post" : {
            "Berlin" : [
                {
                    "hash" : "0x06a0703d7c7d28089c114c0fb520b8c6df2fbecb2d696eac60aad4123e97c12e",
                    "indexes" : {
                        "data" : 0,
                        "gas" : 0,
                        "value" : 0
                    },
                    "logs" : "0x1dcc4de8dec75d7aab85b567b6ccd41ad312451b948a7413f0a142fd40d49347",
                    "txbytes" : "0xf861800a8405f5e10094100000000000000000000000000000000000000080801ba07e09e26678ed4fac08a249ebe8ed680bf9051a5e14ad223e4b2b9d26e0208f37a05f6e3f188e3e6eab7d7d3b6568f5eac7d687b08d307d3154ccd8c87b4630509b"
                }
            ],
            "Cancun" : [
                {
                    "hash" : "0xef1348ed423eafa726f1a861290bf3a66bad76422b3c65db19a14cda49d3956b",
                    "indexes" : {
                        "data" : 0,
                        "gas" : 0,
                        "value" : 0
                    },
                    "logs" : "0x1dcc4de8dec75d7aab85b567b6ccd41ad312451b948a7413f0a142fd40d49347",
                    "txbytes" : "0xf861800a8405f5e10094100000000000000000000000000000000000000080801ba07e09e26678ed4fac08a249ebe8ed680bf9051a5e14ad223e4b2b9d26e0208f37a05f6e3f188e3e6eab7d7d3b6568f5eac7d687b08d307d3154ccd8c87b4630509b"
                }
            ],
            "Istanbul" : [
                {
                    "hash" : "0x83909c4b574d1400505b8ef596c56ef051fc54ed16afc3be74e2c8a2d38ebadb",
                    "indexes" : {
                        "data" : 0,
                        "gas" : 0,
                        "value" : 0
                    },
                    "logs" : "0x1dcc4de8dec75d7aab85b567b6ccd41ad312451b948a7413f0a142fd40d49347",
                    "txbytes" : "0xf861800a8405f5e10094100000000000000000000000000000000000000080801ba07e09e26678ed4fac08a249ebe8ed680bf9051a5e14ad223e4b2b9d26e0208f37a05f6e3f188e3e6eab7d7d3b6568f5eac7d687b08d307d3154ccd8c87b4630509b"
                }
            ],
            "London" : [
                {
                    "hash" : "0xef1348ed423eafa726f1a861290bf3a66bad76422b3c65db19a14cda49d3956b",
                    "indexes" : {
                        "data" : 0,
                        "gas" : 0,
                        "value" : 0
                    },
                    "logs" : "0x1dcc4de8dec75d7aab85b567b6ccd41ad312451b948a7413f0a142fd40d49347",
                    "txbytes" : "0xf861800a8405f5e10094100000000000000000000000000000000000000080801ba07e09e26678ed4fac08a249ebe8ed680bf9051a5e14ad223e4b2b9d26e0208f37a05f6e3f188e3e6eab7d7d3b6568f5eac7d687b08d307d3154ccd8c87b4630509b"
                }
            ],
            "Paris" : [
                {
                    "hash" : "0xef1348ed423eafa726f1a861290bf3a66bad76422b3c65db19a14cda49d3956b",
                    "indexes" : {
                        "data" : 0,
                        "gas" : 0,
                        "value" : 0
                    },
                    "logs" : "0x1dcc4de8dec75d7aab85b567b6ccd41ad312451b948a7413f0a142fd40d49347",
                    "txbytes" : "0xf861800a8405f5e10094100000000000000000000000000000000000000080801ba07e09e26678ed4fac08a249ebe8ed680bf9051a5e14ad223e4b2b9d26e0208f37a05f6e3f188e3e6eab7d7d3b6568f5eac7d687b08d307d3154ccd8c87b4630509b"
                }
            ],
            "Shanghai" : [
                {
                    "hash" : "0xef1348ed423eafa726f1a861290bf3a66bad76422b3c65db19a14cda49d3956b",
                    "indexes" : {
                        "data" : 0,
                        "gas" : 0,
                        "value" : 0
                    },
                    "logs" : "0x1dcc4de8dec75d7aab85b567b6ccd41ad312451b948a7413f0a142fd40d49347",
                    "txbytes" : "0xf861800a8405f5e10094100000000000000000000000000000000000000080801ba07e09e26678ed4fac08a249ebe8ed680bf9051a5e14ad223e4b2b9d26e0208f37a05f6e3f188e3e6eab7d7d3b6568f5eac7d687b08d307d3154ccd8c87b4630509b"
                }
            ]
        },
        "pre" : {
            "0x1000000000000000000000000000000000000000" : {
                "balance" : "0x01f4",
                "code" : "0x3031471460015500",
                "nonce" : "0x00",
                "storage" : {
                }
            },
            "0xa94f5374fce5edbc8e2a8697c15331677e6ebf0b" : {
                "balance" : "0x3635c9adc5dea00000",
                "code" : "0x",
                "nonce" : "0x00",
                "storage" : {
                }
            }
        },
        "transaction" : {
            "data" : [
                "0x"
            ],
            "gasLimit" : [
                "0x05f5e100"
            ],
            "gasPrice" : "0x0a",
            "nonce" : "0x00",
            "secretKey" : "0x45a915e4d060149eb4365960e6a7a45f334393093061116b197e3240065ff2d8",
            "sender" : "0xa94f5374fce5edbc8e2a8697c15331677e6ebf0b",
            "to" : "0x1000000000000000000000000000000000000000",
            "value" : [
                "0x00"
            ]
        }
    }
}