{
    "Vitalik_13" : {
        "_info" : {
            "comment" : "",
            "filledwith" : "cpp-1.3.0+commit.eb08f023.Linux.g++",
            "lllcversion" : "Version: 0.4.18-develop.2017.9.25+commit.a72237f2.Linux.g++",
            "source" : "src/TransactionTestsFiller/ttEip155VitaliksEip158/Vitalik_13Filler.json"
        },
        "blocknumber" : "2675000",
        "hash" : "278608eba8465230d0552c8df9fbcc6fc35d2350f4feb0e49a399b2adab37e39",
        "rlp" : "0xf8660f80830493e09400000000000000000000000000000000000000c08086646f6e6b65791ba09f00c6da4f2e4b5f3316e70c7669f9df71fa21d533afa63450065731132ba7b6a03886c27a8b3515ab9e2e04492f8214718621421e92d3b6954d9e3fb409ead788",
        "sender" : "874b54a8bd152966d63f706bae1ffeb0411921e5",
        "transaction" : {
            "data" : "0x646f6e6b6579",
            "gasLimit" : "0x0493e0",
            "gasPrice" : "0x00",
            "nonce" : "0x0f",
            "r" : "0x9f00c6da4f2e4b5f3316e70c7669f9df71fa21d533afa63450065731132ba7b6",
            "s" : "0x3886c27a8b3515ab9e2e04492f8214718621421e92d3b6954d9e3fb409ead788",
            "to" : "0x00000000000000000000000000000000000000c0",
            "v" : "0x1b",
            "value" : "0x00"
        }
    }
}