{
    "Vitalik_3" : {
        "_info" : {
            "comment" : "",
            "filledwith" : "cpp-1.3.0+commit.6e0ce939.Linux.g++",
            "lllcversion" : "Version: 0.4.18-develop.2017.10.6+commit.6c09e32c.Linux.g++",
            "source" : "src/TransactionTestsFiller/ttEip155VitaliksEip158/Vitalik_3Filler.json",
            "sourceHash" : "b684a6f51c1ac3d712ebe65914f8eb0d732ddcf3e6c9fb87ccdd308f22d18f0a"
        },
        "blocknumber" : "2675000",
        "hash" : "1f621d7d8804723ab6fec606e504cc893ad4fe4a545d45f499caaf16a61d86dd",
        "rlp" : "0xf864028504a817c80282f618943535353535353535353535353535353535353535088025a02d7c5bef027816a800da1736444fb58a807ef4c9603b7848673f7e3a68eb14a5a02d7c5bef027816a800da1736444fb58a807ef4c9603b7848673f7e3a68eb14a5",
        "sender" : "2e485e0c23b4c3c542628a5f672eeab0ad4888be",
        "transaction" : {
            "data" : "",
            "gasLimit" : "0xf618",
            "gasPrice" : "0x04a817c802",
            "nonce" : "0x02",
            "r" : "0x2d7c5bef027816a800da1736444fb58a807ef4c9603b7848673f7e3a68eb14a5",
            "s" : "0x2d7c5bef027816a800da1736444fb58a807ef4c9603b7848673f7e3a68eb14a5",
            "to" : "0x3535353535353535353535353535353535353535",
            "v" : "0x25",
            "value" : "0x08"
        }
    }
}