{
    "Vitalik_1" : {
        "_info" : {
            "comment" : "",
            "filledwith" : "cpp-1.3.0+commit.eb08f023.Linux.g++",
            "lllcversion" : "Version: 0.4.18-develop.2017.9.25+commit.a72237f2.Linux.g++",
            "source" : "src/TransactionTestsFiller/ttEip155VitaliksEip158/Vitalik_1Filler.json"
        },
        "blocknumber" : "2675000",
        "hash" : "b1e2188bc490908a78184e4818dca53684167507417fdb4c09c2d64d32a9896a",
        "rlp" : "0xf864808504a817c800825208943535353535353535353535353535353535353535808025a0044852b2a670ade5407e78fb2863c51de9fcb96542a07186fe3aeda6bb8a116da0044852b2a670ade5407e78fb2863c51de9fcb96542a07186fe3aeda6bb8a116d",
        "sender" : "f0f6f18bca1b28cd68e4357452947e021241e9ce",
        "transaction" : {
            "data" : "",
            "gasLimit" : "0x5208",
            "gasPrice" : "0x04a817c800",
            "nonce" : "0x00",
            "r" : "0x044852b2a670ade5407e78fb2863c51de9fcb96542a07186fe3aeda6bb8a116d",
            "s" : "0x044852b2a670ade5407e78fb2863c51de9fcb96542a07186fe3aeda6bb8a116d",
            "to" : "0x3535353535353535353535353535353535353535",
            "v" : "0x25",
            "value" : "0x00"
        }
    }
}