{
    "Call1MB1024Calldepth_d0g0v0_Byzantium" : {
        "_info" : {
            "comment" : "",
            "filledwith" : "cpp-1.3.0+commit.82b0643a.Linux.g++",
            "lllcversion" : "Version: 0.4.20-develop.2018.1.8+commit.2548228b.Linux.g++",
            "source" : "src/BlockchainTestsFiller/GeneralStateTests/stQuadraticComplexityTest/Call1MB1024Calldepth_d0g0v0Filler.json",
            "sourceHash" : "2467fda801a2aee6efccd8515dd25e3051b52537d19b4cac9e9ccd327ac0ea86"
        },
        "blocks" : [
            {
                "blockHeader" : {
                    "bloom" : "0x00000000000000000000000000000000000000000000000000000000000000000000000000000000000000000000000000000000000000000000000000000000000000000000000000000000000000000000000000000000000000000000000000000000000000000000000000000000000000000000000000000000000000000000000000000000000000000000000000000000000000000000000000000000000000000000000000000000000000000000000000000000000000000000000000000000000000000000000000000000000000000000000000000000000000000000000000000000000000000000000000000000000000000000000000000000",
                    "coinbase" : "0xb94f5374fce5edbc8e2a8697c15331677e6ebf0b",
                    "difficulty" : "0x020000",
                    "extraData" : "",
                    "gasLimit" : "0xcd79195900",
                    "gasUsed" : "0x0249f0",
                    "hash" : "0xad05f8e018e591a747c9012c2bee8edaf234ed9fd6eb0ec962c76fbafd3ce822",
                    "mixHash" : "0x391bfe9e27fd4a92af7ab15f5945699867e34ab7d419016346430e00878942fe",
                    "nonce" : "0xe411c12949c26636",
                    "number" : "0x01",
                    "parentHash" : "0xe88f50bbfea8ef498b187da93acfe955781b195bce08457b56212bcdca58564b",
                    "receiptTrie" : "0xa0e10907f175886de9bd8cd4ac2c21d1db4109a3a9fecf60f54015ee102803fd",
                    "stateRoot" : "0xeca50bb9974fe99b3855af115cf6ffa29e641815d061daddefb7e6214b30a57f",
                    "timestamp" : "0x03e8",
                    "transactionsTrie" : "0xa0ec2fa38ce491778e1b6da60eba5927ecd92ad8cde4a3d964deef99110e1b29",
                    "uncleHash" : "0x1dcc4de8dec75d7aab85b567b6ccd41ad312451b948a7413f0a142fd40d49347"
                },
                "rlp" : "0xf90262f901faa0e88f50bbfea8ef498b187da93acfe955781b195bce08457b56212bcdca58564ba01dcc4de8dec75d7aab85b567b6ccd41ad312451b948a7413f0a142fd40d4934794b94f5374fce5edbc8e2a8697c15331677e6ebf0ba0eca50bb9974fe99b3855af115cf6ffa29e641815d061daddefb7e6214b30a57fa0a0ec2fa38ce491778e1b6da60eba5927ecd92ad8cde4a3d964deef99110e1b29a0a0e10907f175886de9bd8cd4ac2c21d1db4109a3a9fecf60f54015ee102803fdb9010000000000000000000000000000000000000000000000000000000000000000000000000000000000000000000000000000000000000000000000000000000000000000000000000000000000000000000000000000000000000000000000000000000000000000000000000000000000000000000000000000000000000000000000000000000000000000000000000000000000000000000000000000000000000000000000000000000000000000000000000000000000000000000000000000000000000000000000000000000000000000000000000000000000000000000000000000000000000000000000000000000000000000000000000000000000830200000185cd79195900830249f08203e880a0391bfe9e27fd4a92af7ab15f5945699867e34ab7d419016346430e00878942fe88e411c12949c26636f862f8608001830249f094bbbf5374fce5edbc8e2a8697c15331677e6ebf0b0a801ba020bc21bc6aadd85fed142b7b980799d44c5d6f1ec8f3e1e2cb97dc68880e4795a0603fbf089643eb78e7e7ad708eded071087c93a23dba3c56c9704465d2a69207c0",
                "transactions" : [
                    {
                        "data" : "0x",
                        "gasLimit" : "0x0249f0",
                        "gasPrice" : "0x01",
                        "nonce" : "0x00",
                        "r" : "0x20bc21bc6aadd85fed142b7b980799d44c5d6f1ec8f3e1e2cb97dc68880e4795",
                        "s" : "0x603fbf089643eb78e7e7ad708eded071087c93a23dba3c56c9704465d2a69207",
                        "to" : "0xbbbf5374fce5edbc8e2a8697c15331677e6ebf0b",
                        "v" : "0x1b",
                        "value" : "0x0a"
                    }
                ],
                "uncleHeaders" : [
                ]
            }
        ],
        "genesisBlockHeader" : {
            "bloom" : "0x00000000000000000000000000000000000000000000000000000000000000000000000000000000000000000000000000000000000000000000000000000000000000000000000000000000000000000000000000000000000000000000000000000000000000000000000000000000000000000000000000000000000000000000000000000000000000000000000000000000000000000000000000000000000000000000000000000000000000000000000000000000000000000000000000000000000000000000000000000000000000000000000000000000000000000000000000000000000000000000000000000000000000000000000000000000",
            "coinbase" : "0xb94f5374fce5edbc8e2a8697c15331677e6ebf0b",
            "difficulty" : "0x020000",
            "extraData" : "0x42",
            "gasLimit" : "0xcd79195900",
            "gasUsed" : "0x00",
            "hash" : "0xe88f50bbfea8ef498b187da93acfe955781b195bce08457b56212bcdca58564b",
            "mixHash" : "0x56e81f171bcc55a6ff8345e692c0f86e5b48e01b996cadc001622fb5e363b421",
            "nonce" : "0x0102030405060708",
            "number" : "0x00",
            "parentHash" : "0x0000000000000000000000000000000000000000000000000000000000000000",
            "receiptTrie" : "0x56e81f171bcc55a6ff8345e692c0f86e5b48e01b996cadc001622fb5e363b421",
            "stateRoot" : "0xe3af3fc4bbb93e0c83ba853eb95614d16b8b09bb32c03cbde010cb3c1143ab4e",
            "timestamp" : "0x03b6",
            "transactionsTrie" : "0x56e81f171bcc55a6ff8345e692c0f86e5b48e01b996cadc001622fb5e363b421",
            "uncleHash" : "0x1dcc4de8dec75d7aab85b567b6ccd41ad312451b948a7413f0a142fd40d49347"
        },
        "genesisRLP" : "0xf901fcf901f7a00000000000000000000000000000000000000000000000000000000000000000a01dcc4de8dec75d7aab85b567b6ccd41ad312451b948a7413f0a142fd40d4934794b94f5374fce5edbc8e2a8697c15331677e6ebf0ba0e3af3fc4bbb93e0c83ba853eb95614d16b8b09bb32c03cbde010cb3c1143ab4ea056e81f171bcc55a6ff8345e692c0f86e5b48e01b996cadc001622fb5e363b421a056e81f171bcc55a6ff8345e692c0f86e5b48e01b996cadc001622fb5e363b421b9010000000000000000000000000000000000000000000000000000000000000000000000000000000000000000000000000000000000000000000000000000000000000000000000000000000000000000000000000000000000000000000000000000000000000000000000000000000000000000000000000000000000000000000000000000000000000000000000000000000000000000000000000000000000000000000000000000000000000000000000000000000000000000000000000000000000000000000000000000000000000000000000000000000000000000000000000000000000000000000000000000000000000000000000000000000000830200008085cd79195900808203b642a056e81f171bcc55a6ff8345e692c0f86e5b48e01b996cadc001622fb5e363b421880102030405060708c0c0",
        "lastblockhash" : "0xad05f8e018e591a747c9012c2bee8edaf234ed9fd6eb0ec962c76fbafd3ce822",
        "network" : "Byzantium",
        "postState" : {
            "0xa94f5374fce5edbc8e2a8697c15331677e6ebf0b" : {
                "balance" : "0xfffffffffffffffffffffffffffdb60f",
                "code" : "",
                "nonce" : "0x01",
                "storage" : {
                }
            },
            "0xaaa50000fce5edbc8e2a8697c15331677e6ebf0b" : {
                "balance" : "0x0fffffffffffff",
                "code" : "",
                "nonce" : "0x00",
                "storage" : {
                }
            },
            "0xb94f5374fce5edbc8e2a8697c15331677e6ebf0b" : {
                "balance" : "0x29a2241af62e49f0",
                "code" : "",
                "nonce" : "0x00",
                "storage" : {
                }
            },
            "0xbbbf5374fce5edbc8e2a8697c15331677e6ebf0b" : {
                "balance" : "0x0fffffffffffff",
                "code" : "0x60016000540160005561040060005410601b5760016002556047565b60006000620f42406000600073bbbf5374fce5edbc8e2a8697c15331677e6ebf0b620f55c85a03f16001555b",
                "nonce" : "0x00",
                "storage" : {
                }
            }
        },
        "pre" : {
            "0xa94f5374fce5edbc8e2a8697c15331677e6ebf0b" : {
                "balance" : "0xffffffffffffffffffffffffffffffff",
                "code" : "",
                "nonce" : "0x00",
                "storage" : {
                }
            },
            "0xaaa50000fce5edbc8e2a8697c15331677e6ebf0b" : {
                "balance" : "0x0fffffffffffff",
                "code" : "",
                "nonce" : "0x00",
                "storage" : {
                }
            },
            "0xbbbf5374fce5edbc8e2a8697c15331677e6ebf0b" : {
                "balance" : "0x0fffffffffffff",
                "code" : "0x60016000540160005561040060005410601b5760016002556047565b60006000620f42406000600073bbbf5374fce5edbc8e2a8697c15331677e6ebf0b620f55c85a03f16001555b",
                "nonce" : "0x00",
                "storage" : {
                }
            }
        }
    },
    "Call1MB1024Calldepth_d0g0v0_Homestead" : {
        "_info" : {
            "comment" : "",
            "filledwith" : "cpp-1.3.0+commit.82b0643a.Linux.g++",
            "lllcversion" : "Version: 0.4.20-develop.2018.1.8+commit.2548228b.Linux.g++",
            "source" : "src/BlockchainTestsFiller/GeneralStateTests/stQuadraticComplexityTest/Call1MB1024Calldepth_d0g0v0Filler.json",
            "sourceHash" : "2467fda801a2aee6efccd8515dd25e3051b52537d19b4cac9e9ccd327ac0ea86"
        },
        "blocks" : [
            {
                "blockHeader" : {
                    "bloom" : "0x00000000000000000000000000000000000000000000000000000000000000000000000000000000000000000000000000000000000000000000000000000000000000000000000000000000000000000000000000000000000000000000000000000000000000000000000000000000000000000000000000000000000000000000000000000000000000000000000000000000000000000000000000000000000000000000000000000000000000000000000000000000000000000000000000000000000000000000000000000000000000000000000000000000000000000000000000000000000000000000000000000000000000000000000000000000",
                    "coinbase" : "0xb94f5374fce5edbc8e2a8697c15331677e6ebf0b",
                    "difficulty" : "0x020000",
                    "extraData" : "",
                    "gasLimit" : "0xcd79195900",
                    "gasUsed" : "0x0249f0",
                    "hash" : "0x106c566a394302f2aac200b08e62433e7b0304645c1c26b9c12dadebaa31fe95",
                    "mixHash" : "0x4163433e4142336b09ee0bb547e7c98fe68bf15fb1edce0e8738421a3acd2ff3",
                    "nonce" : "0x1d526912bf2731ea",
                    "number" : "0x01",
                    "parentHash" : "0xe88f50bbfea8ef498b187da93acfe955781b195bce08457b56212bcdca58564b",
                    "receiptTrie" : "0x1a701998f8009e90fbf1564730782ba7563bd22818850aad05385e33c89582b7",
                    "stateRoot" : "0xd89a3d539c87346abb1a6e4f058a4ce4c84cde71172e2344e08af47f31763531",
                    "timestamp" : "0x03e8",
                    "transactionsTrie" : "0xa0ec2fa38ce491778e1b6da60eba5927ecd92ad8cde4a3d964deef99110e1b29",
                    "uncleHash" : "0x1dcc4de8dec75d7aab85b567b6ccd41ad312451b948a7413f0a142fd40d49347"
                },
                "rlp" : "0xf90262f901faa0e88f50bbfea8ef498b187da93acfe955781b195bce08457b56212bcdca58564ba01dcc4de8dec75d7aab85b567b6ccd41ad312451b948a7413f0a142fd40d4934794b94f5374fce5edbc8e2a8697c15331677e6ebf0ba0d89a3d539c87346abb1a6e4f058a4ce4c84cde71172e2344e08af47f31763531a0a0ec2fa38ce491778e1b6da60eba5927ecd92ad8cde4a3d964deef99110e1b29a01a701998f8009e90fbf1564730782ba7563bd22818850aad05385e33c89582b7b9010000000000000000000000000000000000000000000000000000000000000000000000000000000000000000000000000000000000000000000000000000000000000000000000000000000000000000000000000000000000000000000000000000000000000000000000000000000000000000000000000000000000000000000000000000000000000000000000000000000000000000000000000000000000000000000000000000000000000000000000000000000000000000000000000000000000000000000000000000000000000000000000000000000000000000000000000000000000000000000000000000000000000000000000000000000000830200000185cd79195900830249f08203e880a04163433e4142336b09ee0bb547e7c98fe68bf15fb1edce0e8738421a3acd2ff3881d526912bf2731eaf862f8608001830249f094bbbf5374fce5edbc8e2a8697c15331677e6ebf0b0a801ba020bc21bc6aadd85fed142b7b980799d44c5d6f1ec8f3e1e2cb97dc68880e4795a0603fbf089643eb78e7e7ad708eded071087c93a23dba3c56c9704465d2a69207c0",
                "transactions" : [
                    {
                        "data" : "0x",
                        "gasLimit" : "0x0249f0",
                        "gasPrice" : "0x01",
                        "nonce" : "0x00",
                        "r" : "0x20bc21bc6aadd85fed142b7b980799d44c5d6f1ec8f3e1e2cb97dc68880e4795",
                        "s" : "0x603fbf089643eb78e7e7ad708eded071087c93a23dba3c56c9704465d2a69207",
                        "to" : "0xbbbf5374fce5edbc8e2a8697c15331677e6ebf0b",
                        "v" : "0x1b",
                        "value" : "0x0a"
                    }
                ],
                "uncleHeaders" : [
                ]
            }
        ],
        "genesisBlockHeader" : {
            "bloom" : "0x00000000000000000000000000000000000000000000000000000000000000000000000000000000000000000000000000000000000000000000000000000000000000000000000000000000000000000000000000000000000000000000000000000000000000000000000000000000000000000000000000000000000000000000000000000000000000000000000000000000000000000000000000000000000000000000000000000000000000000000000000000000000000000000000000000000000000000000000000000000000000000000000000000000000000000000000000000000000000000000000000000000000000000000000000000000",
            "coinbase" : "0xb94f5374fce5edbc8e2a8697c15331677e6ebf0b",
            "difficulty" : "0x020000",
            "extraData" : "0x42",
            "gasLimit" : "0xcd79195900",
            "gasUsed" : "0x00",
            "hash" : "0xe88f50bbfea8ef498b187da93acfe955781b195bce08457b56212bcdca58564b",
            "mixHash" : "0x56e81f171bcc55a6ff8345e692c0f86e5b48e01b996cadc001622fb5e363b421",
            "nonce" : "0x0102030405060708",
            "number" : "0x00",
            "parentHash" : "0x0000000000000000000000000000000000000000000000000000000000000000",
            "receiptTrie" : "0x56e81f171bcc55a6ff8345e692c0f86e5b48e01b996cadc001622fb5e363b421",
            "stateRoot" : "0xe3af3fc4bbb93e0c83ba853eb95614d16b8b09bb32c03cbde010cb3c1143ab4e",
            "timestamp" : "0x03b6",
            "transactionsTrie" : "0x56e81f171bcc55a6ff8345e692c0f86e5b48e01b996cadc001622fb5e363b421",
            "uncleHash" : "0x1dcc4de8dec75d7aab85b567b6ccd41ad312451b948a7413f0a142fd40d49347"
        },
        "genesisRLP" : "0xf901fcf901f7a00000000000000000000000000000000000000000000000000000000000000000a01dcc4de8dec75d7aab85b567b6ccd41ad312451b948a7413f0a142fd40d4934794b94f5374fce5edbc8e2a8697c15331677e6ebf0ba0e3af3fc4bbb93e0c83ba853eb95614d16b8b09bb32c03cbde010cb3c1143ab4ea056e81f171bcc55a6ff8345e692c0f86e5b48e01b996cadc001622fb5e363b421a056e81f171bcc55a6ff8345e692c0f86e5b48e01b996cadc001622fb5e363b421b9010000000000000000000000000000000000000000000000000000000000000000000000000000000000000000000000000000000000000000000000000000000000000000000000000000000000000000000000000000000000000000000000000000000000000000000000000000000000000000000000000000000000000000000000000000000000000000000000000000000000000000000000000000000000000000000000000000000000000000000000000000000000000000000000000000000000000000000000000000000000000000000000000000000000000000000000000000000000000000000000000000000000000000000000000000000000830200008085cd79195900808203b642a056e81f171bcc55a6ff8345e692c0f86e5b48e01b996cadc001622fb5e363b421880102030405060708c0c0",
        "lastblockhash" : "0x106c566a394302f2aac200b08e62433e7b0304645c1c26b9c12dadebaa31fe95",
        "network" : "Homestead",
        "postState" : {
            "0xa94f5374fce5edbc8e2a8697c15331677e6ebf0b" : {
                "balance" : "0xfffffffffffffffffffffffffffdb60f",
                "code" : "",
                "nonce" : "0x01",
                "storage" : {
                }
            },
            "0xaaa50000fce5edbc8e2a8697c15331677e6ebf0b" : {
                "balance" : "0x0fffffffffffff",
                "code" : "",
                "nonce" : "0x00",
                "storage" : {
                }
            },
            "0xb94f5374fce5edbc8e2a8697c15331677e6ebf0b" : {
                "balance" : "0x4563918244f649f0",
                "code" : "",
                "nonce" : "0x00",
                "storage" : {
                }
            },
            "0xbbbf5374fce5edbc8e2a8697c15331677e6ebf0b" : {
                "balance" : "0x0fffffffffffff",
                "code" : "0x60016000540160005561040060005410601b5760016002556047565b60006000620f42406000600073bbbf5374fce5edbc8e2a8697c15331677e6ebf0b620f55c85a03f16001555b",
                "nonce" : "0x00",
                "storage" : {
                }
            }
        },
        "pre" : {
            "0xa94f5374fce5edbc8e2a8697c15331677e6ebf0b" : {
                "balance" : "0xffffffffffffffffffffffffffffffff",
                "code" : "",
                "nonce" : "0x00",
                "storage" : {
                }
            },
            "0xaaa50000fce5edbc8e2a8697c15331677e6ebf0b" : {
                "balance" : "0x0fffffffffffff",
                "code" : "",
                "nonce" : "0x00",
                "storage" : {
                }
            },
            "0xbbbf5374fce5edbc8e2a8697c15331677e6ebf0b" : {
                "balance" : "0x0fffffffffffff",
                "code" : "0x60016000540160005561040060005410601b5760016002556047565b60006000620f42406000600073bbbf5374fce5edbc8e2a8697c15331677e6ebf0b620f55c85a03f16001555b",
                "nonce" : "0x00",
                "storage" : {
                }
            }
        }
    }
}