{
    "refund_changeNonZeroStorage" : {
        "_info" : {
            "comment" : "",
            "filling-rpc-server" : "evm version 1.10.2-unstable-22082f9e-20210309",
            "filling-tool-version" : "retesteth-0.1.0-accesslist+commit.47c69eb3.Linux.g++",
            "lllcversion" : "Version: 0.5.14-develop.2020.6.22+commit.9189ad7a.Linux.g++",
            "source" : "src/GeneralStateTestsFiller/stRefundTest/refund_changeNonZeroStorageFiller.json",
            "sourceHash" : "667169fdcf7d7dd3a388813fba5264bbb76496ac0a1426a9a6a6a42609d96b0f"
        },
        "env" : {
            "currentCoinbase" : "0x2adc25665018aa1fe0e6bc666dac8fc2697ff9ba",
            "currentDifficulty" : "0x020000",
            "currentGasLimit" : "0x0f4240",
            "currentNumber" : "0x01",
            "currentTimestamp" : "0x03e8",
            "previousHash" : "0x5e20a0453cecd065ea59c37ac63e079ee08998b6045136a8ce6635c7912ec0b6"
        },
        "post" : {
            "Berlin" : [
                {
                    "indexes" : {
                        "data" : 0,
                        "gas" : 0,
                        "value" : 0
                    },
                    "hash" : "0x777f451be4aa298e5c7394f8bab1fa66d2b4c343a6acf599756edfbc0b426749",
                    "txbytes" : "0xf860800183037c9494095e7baea6a6c7c4c2dfeb977efac326af552d870a801ba0101438d10b20f52fc58d35ed7158388765cf9fd61744b25bb7bd9de3332e14d3a05a8a9e5fbcda8f3e48da6a2cb00105fcfe3a5d7285dd6daf7de6ebc63451e6ba",
                    "logs" : "0x1dcc4de8dec75d7aab85b567b6ccd41ad312451b948a7413f0a142fd40d49347"
                }
            ],
            "Istanbul" : [
                {
                    "indexes" : {
                        "data" : 0,
                        "gas" : 0,
                        "value" : 0
                    },
                    "hash" : "0x777f451be4aa298e5c7394f8bab1fa66d2b4c343a6acf599756edfbc0b426749",
                    "txbytes" : "0xf860800183037c9494095e7baea6a6c7c4c2dfeb977efac326af552d870a801ba0101438d10b20f52fc58d35ed7158388765cf9fd61744b25bb7bd9de3332e14d3a05a8a9e5fbcda8f3e48da6a2cb00105fcfe3a5d7285dd6daf7de6ebc63451e6ba",
                    "logs" : "0x1dcc4de8dec75d7aab85b567b6ccd41ad312451b948a7413f0a142fd40d49347"
                }
            ]
        },
        "pre" : {
            "0x095e7baea6a6c7c4c2dfeb977efac326af552d87" : {
                "balance" : "0x0de0b6b3a7640000",
                "code" : "0x601760015500",
                "nonce" : "0x00",
                "storage" : {
                    "0x01" : "0x01"
                }
            },
            "0xa94f5374fce5edbc8e2a8697c15331677e6ebf0b" : {
                "balance" : "0x0f4240",
                "code" : "0x",
                "nonce" : "0x00",
                "storage" : {
                }
            }
        },
        "transaction" : {
            "data" : [
                "0x"
            ],
            "gasLimit" : [
                "0x037c94"
            ],
            "gasPrice" : "0x01",
            "nonce" : "0x00",
            "secretKey" : "0x45a915e4d060149eb4365960e6a7a45f334393093061116b197e3240065ff2d8",
            "to" : "0x095e7baea6a6c7c4c2dfeb977efac326af552d87",
            "value" : [
                "0x0a"
            ]
        }
    }
}