{
    "refund_CallA_notEnoughGasInCall" : {
        "_info" : {
            "comment" : "",
            "filling-rpc-server" : "evm version 1.13.13-unstable-034bc466-20240219",
            "filling-tool-version" : "retesteth-0.3.2-cancun+commit.014a68a5.Linux.g++",
            "generatedTestHash" : "037f3f7f67365600a84d5d0945104cf6482933927bc6c71e37f2df1244e0b67a",
            "lllcversion" : "Version: 0.5.14-develop.2023.7.11+commit.c58ab2c6.mod.Linux.g++",
            "solidity" : "Version: 0.8.21+commit.d9974bed.Linux.g++",
            "source" : "src/GeneralStateTestsFiller/stRefundTest/refund_CallA_notEnoughGasInCallFiller.json",
            "sourceHash" : "e9f16721506cf6a98db849e820fd0db3bdafd3d366defbe90ea9fe0f766b21ec"
        },
        "env" : {
            "currentBaseFee" : "0x0a",
            "currentCoinbase" : "0x2adc25665018aa1fe0e6bc666dac8fc2697ff9ba",
            "currentDifficulty" : "0x020000",
            "currentExcessBlobGas" : "0x00",
            "currentGasLimit" : "0x0f4240",
            "currentNumber" : "0x01",
            "currentRandom" : "0x0000000000000000000000000000000000000000000000000000000000020000",
            "currentTimestamp" : "0x03e8"
        },
        "post" : {
            "Berlin" : [
                {
                    "hash" : "0x3eb99ec8c91073be3330cca7991cc00540445f35081483966c4a83c62adedbe0",
                    "indexes" : {
                        "data" : 0,
                        "gas" : 0,
                        "value" : 0
                    },
                    "logs" : "0x1dcc4de8dec75d7aab85b567b6ccd41ad312451b948a7413f0a142fd40d49347",
                    "txbytes" : "0xf860800a83014c0894095e7baea6a6c7c4c2dfeb977efac326af552d870a801ca06e69a74c8f83716ebaad719bb1fc3e0c44fe02e6ab6cb3eb58ef31b27c357b81a0763f6738a4dfc5893de28c5bff77242138ba4cc72743afc87c4bd7ad3f3a1653"
                }
            ],
            "Cancun" : [
                {
                    "hash" : "0x06b11b11c1497ebd07e743f874ff02bb006cd80040b5886ba5c24f1269e53048",
                    "indexes" : {
                        "data" : 0,
                        "gas" : 0,
                        "value" : 0
                    },
                    "logs" : "0x1dcc4de8dec75d7aab85b567b6ccd41ad312451b948a7413f0a142fd40d49347",
                    "txbytes" : "0xf860800a83014c0894095e7baea6a6c7c4c2dfeb977efac326af552d870a801ca06e69a74c8f83716ebaad719bb1fc3e0c44fe02e6ab6cb3eb58ef31b27c357b81a0763f6738a4dfc5893de28c5bff77242138ba4cc72743afc87c4bd7ad3f3a1653"
                }
            ],
            "Istanbul" : [
                {
                    "hash" : "0x17cc816ad1040fd5ad67fd7f68fe3b37eb86550e796fbea43521751b4993bebb",
                    "indexes" : {
                        "data" : 0,
                        "gas" : 0,
                        "value" : 0
                    },
                    "logs" : "0x1dcc4de8dec75d7aab85b567b6ccd41ad312451b948a7413f0a142fd40d49347",
                    "txbytes" : "0xf860800a83014c0894095e7baea6a6c7c4c2dfeb977efac326af552d870a801ca06e69a74c8f83716ebaad719bb1fc3e0c44fe02e6ab6cb3eb58ef31b27c357b81a0763f6738a4dfc5893de28c5bff77242138ba4cc72743afc87c4bd7ad3f3a1653"
                }
            ],
            "London" : [
                {
                    "hash" : "0x38f3b6df7e618914e929aa7a387fcfe2b8f03ebeebbc4d10943b53aed478ca70",
                    "indexes" : {
                        "data" : 0,
                        "gas" : 0,
                        "value" : 0
                    },
                    "logs" : "0x1dcc4de8dec75d7aab85b567b6ccd41ad312451b948a7413f0a142fd40d49347",
                    "txbytes" : "0xf860800a83014c0894095e7baea6a6c7c4c2dfeb977efac326af552d870a801ca06e69a74c8f83716ebaad719bb1fc3e0c44fe02e6ab6cb3eb58ef31b27c357b81a0763f6738a4dfc5893de28c5bff77242138ba4cc72743afc87c4bd7ad3f3a1653"
                }
            ],
            "Paris" : [
                {
                    "hash" : "0x38f3b6df7e618914e929aa7a387fcfe2b8f03ebeebbc4d10943b53aed478ca70",
                    "indexes" : {
                        "data" : 0,
                        "gas" : 0,
                        "value" : 0
                    },
                    "logs" : "0x1dcc4de8dec75d7aab85b567b6ccd41ad312451b948a7413f0a142fd40d49347",
                    "txbytes" : "0xf860800a83014c0894095e7baea6a6c7c4c2dfeb977efac326af552d870a801ca06e69a74c8f83716ebaad719bb1fc3e0c44fe02e6ab6cb3eb58ef31b27c357b81a0763f6738a4dfc5893de28c5bff77242138ba4cc72743afc87c4bd7ad3f3a1653"
                }
            ],
            "Shanghai" : [
                {
                    "hash" : "0x38f3b6df7e618914e929aa7a387fcfe2b8f03ebeebbc4d10943b53aed478ca70",
                    "indexes" : {
                        "data" : 0,
                        "gas" : 0,
                        "value" : 0
                    },
                    "logs" : "0x1dcc4de8dec75d7aab85b567b6ccd41ad312451b948a7413f0a142fd40d49347",
                    "txbytes" : "0xf860800a83014c0894095e7baea6a6c7c4c2dfeb977efac326af552d870a801ca06e69a74c8f83716ebaad719bb1fc3e0c44fe02e6ab6cb3eb58ef31b27c357b81a0763f6738a4dfc5893de28c5bff77242138ba4cc72743afc87c4bd7ad3f3a1653"
                }
            ]
        },
        "pre" : {
            "0x000f3df6d732807ef1319fb7b8bb8522d0beac02" : {
                "balance" : "0x00",
                "code" : "0x3373fffffffffffffffffffffffffffffffffffffffe14604d57602036146024575f5ffd5b5f35801560495762001fff810690815414603c575f5ffd5b62001fff01545f5260205ff35b5f5ffd5b62001fff42064281555f359062001fff015500",
                "nonce" : "0x01",
                "storage" : {
                }
            },
            "0x095e7baea6a6c7c4c2dfeb977efac326af552d87" : {
                "balance" : "0x0de0b6b3a7640000",
                "code" : "0x6000600060006000600073aaae7baea6a6c7c4c2dfeb977efac326af552aaa61138df160005500",
                "nonce" : "0x00",
                "storage" : {
                    "0x01" : "0x01"
                }
            },
            "0x2adc25665018aa1fe0e6bc666dac8fc2697ff9ba" : {
                "balance" : "0x00",
                "code" : "0x",
                "nonce" : "0x01",
                "storage" : {
                }
            },
            "0xa94f5374fce5edbc8e2a8697c15331677e6ebf0b" : {
                "balance" : "0x0f4240",
                "code" : "0x",
                "nonce" : "0x00",
                "storage" : {
                }
            },
            "0xaaae7baea6a6c7c4c2dfeb977efac326af552aaa" : {
                "balance" : "0x0de0b6b3a7640000",
                "code" : "0x600060015500",
                "nonce" : "0x00",
                "storage" : {
                    "0x01" : "0x01"
                }
            }
        },
        "transaction" : {
            "data" : [
                "0x"
            ],
            "gasLimit" : [
                "0x014c08"
            ],
            "gasPrice" : "0x0a",
            "nonce" : "0x00",
            "secretKey" : "0x45a915e4d060149eb4365960e6a7a45f334393093061116b197e3240065ff2d8",
            "sender" : "0xa94f5374fce5edbc8e2a8697c15331677e6ebf0b",
            "to" : "0x095e7baea6a6c7c4c2dfeb977efac326af552d87",
            "value" : [
                "0x0a"
            ]
        }
    }
}