{
    "fp_to_g1_56_d0g0v0_Prague" : {
        "_info" : {
            "comment" : "A test for fp_to_g1_56",
            "filling-rpc-server" : "evm version 1.14.0-unstable-a208e725-20240416",
            "filling-tool-version" : "retesteth-0.3.2-cancun+commit.353b2b37.Linux.g++",
            "generatedTestHash" : "2f100f8e92094029b17f8b29db7b4afa0167931e56786bbd4501e70817e654b7",
            "lllcversion" : "Version: 0.5.14-develop.2023.7.11+commit.c58ab2c6.mod.Linux.g++",
            "solidity" : "Version: 0.8.21+commit.d9974bed.Linux.g++",
            "source" : "src/EIPTestsFiller/StateTests/stEIP2537/fp_to_g1_56Filler.json",
            "sourceHash" : "22cbc526ad2d3d78d17473532b19efa680ccee0ffa5d9bda4db9cd1e820f2063"
        },
        "blocks" : [
            {
                "blockHeader" : {
                    "baseFeePerGas" : "0x0a",
                    "blobGasUsed" : "0x00",
                    "bloom" : "0x00000000000000000000000000000000000000000000000000000000000000000000000000000000000000000000000000000000000000000000000000000000000000000000000000000000000000000000000000000000000000000000000000000000000000000000000000000000000000000000000000000000000000000000000000000000000000000000000000000000000000000000000000000000000000000000000000000000000000000000000000000000000000000000000000000000000000000000000000000000000000000000000000000000000000000000000000000000000000000000000000000000000000000000000000000000",
                    "coinbase" : "0x2adc25665018aa1fe0e6bc666dac8fc2697ff9ba",
                    "difficulty" : "0x00",
                    "excessBlobGas" : "0x00",
                    "extraData" : "0x00",
                    "gasLimit" : "0xff112233445566",
                    "gasUsed" : "0xcadc",
                    "hash" : "0x37c63536855961011aabe6ffa6fec25899ac02c0c6f8ef008e68be7188041884",
                    "mixHash" : "0x0000000000000000000000000000000000000000000000000000000000020000",
                    "nonce" : "0x0000000000000000",
                    "number" : "0x01",
                    "parentBeaconBlockRoot" : "0x0000000000000000000000000000000000000000000000000000000000000000",
                    "parentHash" : "0xc9cb4ed0dc693e89844b5a27d709ebd577e6a8380102855ef905d3d2d81ac0e5",
                    "receiptTrie" : "0x60b10a09c2fcb1438d31c351078b2b703a393665b82d4ab4ed0a5971fc1b13c0",
                    "stateRoot" : "0x502e2e4b6793c3d53a6824d4a921c4467c6b66d911d902a8b0d8858391c8f818",
                    "timestamp" : "0x03e8",
                    "transactionsTrie" : "0xc2a4a8494393c3152145057456c09aca563d3124debda14b122f7d191f8eaf1d",
                    "uncleHash" : "0x1dcc4de8dec75d7aab85b567b6ccd41ad312451b948a7413f0a142fd40d49347",
                    "withdrawalsRoot" : "0x56e81f171bcc55a6ff8345e692c0f86e5b48e01b996cadc001622fb5e363b421"
                },
                "rlp" : "0xf9034ff9023da0c9cb4ed0dc693e89844b5a27d709ebd577e6a8380102855ef905d3d2d81ac0e5a01dcc4de8dec75d7aab85b567b6ccd41ad312451b948a7413f0a142fd40d49347942adc25665018aa1fe0e6bc666dac8fc2697ff9baa0502e2e4b6793c3d53a6824d4a921c4467c6b66d911d902a8b0d8858391c8f818a0c2a4a8494393c3152145057456c09aca563d3124debda14b122f7d191f8eaf1da060b10a09c2fcb1438d31c351078b2b703a393665b82d4ab4ed0a5971fc1b13c0b9010000000000000000000000000000000000000000000000000000000000000000000000000000000000000000000000000000000000000000000000000000000000000000000000000000000000000000000000000000000000000000000000000000000000000000000000000000000000000000000000000000000000000000000000000000000000000000000000000000000000000000000000000000000000000000000000000000000000000000000000000000000000000000000000000000000000000000000000000000000000000000000000000000000000000000000000000000000000000000000000000000000000000000000000000000000000800187ff11223344556682cadc8203e800a000000000000000000000000000000000000000000000000000000000000200008800000000000000000aa056e81f171bcc55a6ff8345e692c0f86e5b48e01b996cadc001622fb5e363b4218080a00000000000000000000000000000000000000000000000000000000000000000f9010af90107800a836acfc094095e7baea6a6c7c4c2dfeb977efac326af552d878203e8b8a412bd42990000000000000000000000000000000000000000000000000000000000000012000000000000000000000000000000000000000000000000000000000000004000000000000000000000000000000000000000000000000000000000000000400000000000000000000000000000000010ca243fcabbdb219c5b30092d9d4595a4b8ad1cbed267229eb79a99aef9c5df03d8f24b71db77a5a76917c2fd960ffe1ca06406ce3b310a5a69f777e02b55962b0d3182c5f9e653c027fe80372587c22da0a02d4b176aa14c401004b0b28a812a5b71a598f0615220f31987d4264804baa5c1c0c0",
                "transactions" : [
                    {
                        "data" : "0x12bd42990000000000000000000000000000000000000000000000000000000000000012000000000000000000000000000000000000000000000000000000000000004000000000000000000000000000000000000000000000000000000000000000400000000000000000000000000000000010ca243fcabbdb219c5b30092d9d4595a4b8ad1cbed267229eb79a99aef9c5df03d8f24b71db77a5a76917c2fd960ffe",
                        "gasLimit" : "0x6acfc0",
                        "gasPrice" : "0x0a",
                        "nonce" : "0x00",
                        "r" : "0x6406ce3b310a5a69f777e02b55962b0d3182c5f9e653c027fe80372587c22da0",
                        "s" : "0x2d4b176aa14c401004b0b28a812a5b71a598f0615220f31987d4264804baa5c1",
                        "sender" : "0xa94f5374fce5edbc8e2a8697c15331677e6ebf0b",
                        "to" : "0x095e7baea6a6c7c4c2dfeb977efac326af552d87",
                        "v" : "0x1c",
                        "value" : "0x03e8"
                    }
                ],
                "uncleHeaders" : [
                ],
                "withdrawals" : [
                ]
            }
        ],
        "genesisBlockHeader" : {
            "baseFeePerGas" : "0x0b",
            "blobGasUsed" : "0x00",
            "bloom" : "0x00000000000000000000000000000000000000000000000000000000000000000000000000000000000000000000000000000000000000000000000000000000000000000000000000000000000000000000000000000000000000000000000000000000000000000000000000000000000000000000000000000000000000000000000000000000000000000000000000000000000000000000000000000000000000000000000000000000000000000000000000000000000000000000000000000000000000000000000000000000000000000000000000000000000000000000000000000000000000000000000000000000000000000000000000000000",
            "coinbase" : "0x2adc25665018aa1fe0e6bc666dac8fc2697ff9ba",
            "difficulty" : "0x00",
            "excessBlobGas" : "0x060000",
            "extraData" : "0x00",
            "gasLimit" : "0xff112233445566",
            "gasUsed" : "0x00",
            "hash" : "0xc9cb4ed0dc693e89844b5a27d709ebd577e6a8380102855ef905d3d2d81ac0e5",
            "mixHash" : "0x0000000000000000000000000000000000000000000000000000000000020000",
            "nonce" : "0x0000000000000000",
            "number" : "0x00",
            "parentBeaconBlockRoot" : "0x0000000000000000000000000000000000000000000000000000000000000000",
            "parentHash" : "0x0000000000000000000000000000000000000000000000000000000000000000",
            "receiptTrie" : "0x56e81f171bcc55a6ff8345e692c0f86e5b48e01b996cadc001622fb5e363b421",
            "stateRoot" : "0x00059c610e858a345663eede1b974d037c154e4b4bb16a01ea2fd48a4d67bf65",
            "timestamp" : "0x00",
            "transactionsTrie" : "0x56e81f171bcc55a6ff8345e692c0f86e5b48e01b996cadc001622fb5e363b421",
            "uncleHash" : "0x1dcc4de8dec75d7aab85b567b6ccd41ad312451b948a7413f0a142fd40d49347",
            "withdrawalsRoot" : "0x56e81f171bcc55a6ff8345e692c0f86e5b48e01b996cadc001622fb5e363b421"
        },
        "genesisRLP" : "0xf90242f9023ca00000000000000000000000000000000000000000000000000000000000000000a01dcc4de8dec75d7aab85b567b6ccd41ad312451b948a7413f0a142fd40d49347942adc25665018aa1fe0e6bc666dac8fc2697ff9baa000059c610e858a345663eede1b974d037c154e4b4bb16a01ea2fd48a4d67bf65a056e81f171bcc55a6ff8345e692c0f86e5b48e01b996cadc001622fb5e363b421a056e81f171bcc55a6ff8345e692c0f86e5b48e01b996cadc001622fb5e363b421b9010000000000000000000000000000000000000000000000000000000000000000000000000000000000000000000000000000000000000000000000000000000000000000000000000000000000000000000000000000000000000000000000000000000000000000000000000000000000000000000000000000000000000000000000000000000000000000000000000000000000000000000000000000000000000000000000000000000000000000000000000000000000000000000000000000000000000000000000000000000000000000000000000000000000000000000000000000000000000000000000000000000000000000000000000000000000808087ff112233445566808000a000000000000000000000000000000000000000000000000000000000000200008800000000000000000ba056e81f171bcc55a6ff8345e692c0f86e5b48e01b996cadc001622fb5e363b4218083060000a00000000000000000000000000000000000000000000000000000000000000000c0c0c0",
        "lastblockhash" : "0x37c63536855961011aabe6ffa6fec25899ac02c0c6f8ef008e68be7188041884",
        "network" : "Prague",
        "postState" : {
            "0x000f3df6d732807ef1319fb7b8bb8522d0beac02" : {
                "balance" : "0x00",
                "code" : "0x3373fffffffffffffffffffffffffffffffffffffffe14604d57602036146024575f5ffd5b5f35801560495762001fff810690815414603c575f5ffd5b62001fff01545f5260205ff35b5f5ffd5b62001fff42064281555f359062001fff015500",
                "nonce" : "0x01",
                "storage" : {
                    "0x03e8" : "0x03e8"
                }
            },
            "0x095e7baea6a6c7c4c2dfeb977efac326af552d87" : {
                "balance" : "0x03e8",
                "code" : "0x60806040526004361061001e5760003560e01c806312bd429914610023575b600080fd5b6100fc6004803603604081101561003957600080fd5b81019080803573ffffffffffffffffffffffffffffffffffffffff1690602001909291908035906020019064010000000081111561007657600080fd5b82018360208201111561008857600080fd5b803590602001918460018302840111640100000000831117156100aa57600080fd5b91908080601f016020809104026020016040519081016040528093929190818152602001838380828437600081840152601f19601f820116905080830192505050505050509192919290505050610182565b604051808315151515815260200180602001828103825283818151815260200191508051906020019080838360005b8381101561014657808201518184015260208101905061012b565b50505050905090810190601f1680156101735780820380516001836020036101000a031916815260200191505b50935050505060405180910390f35b600060608373ffffffffffffffffffffffffffffffffffffffff16836040518082805190602001908083835b602083106101d157805182526020820191506020810190506020830392506101ae565b6001836020036101000a038019825116818451168082178552505050505050905001915050600060405180830381855afa9150503d8060008114610231576040519150601f19603f3d011682016040523d82523d6000602084013e610236565b606091505b508092508193505050600060405180807f6572726f72000000000000000000000000000000000000000000000000000000815250600501905060405180910390209050821561028a57818051906020012090505b8060025582829250925050925092905056fea2646970667358221220db58d80e8530eed625d9b4250a6055c2eb1d7c117a7ca267e6f8a059bdd2f39e64736f6c634300060a0033",
                "nonce" : "0x01",
                "storage" : {
                    "0x02" : "0x2bc7d8a2d2d34b945ac2c4e673d99205654026795fd93ce3c36df94f10c223cc"
                }
            },
            "0xa94f5374fce5edbc8e2a8697c15331677e6ebf0b" : {
                "balance" : "0x0de0b6b3a75c0f80",
                "code" : "0x",
                "nonce" : "0x01",
                "storage" : {
                }
            }
        },
        "pre" : {
            "0x000f3df6d732807ef1319fb7b8bb8522d0beac02" : {
                "balance" : "0x00",
                "code" : "0x3373fffffffffffffffffffffffffffffffffffffffe14604d57602036146024575f5ffd5b5f35801560495762001fff810690815414603c575f5ffd5b62001fff01545f5260205ff35b5f5ffd5b62001fff42064281555f359062001fff015500",
                "nonce" : "0x01",
                "storage" : {
                }
            },
            "0x095e7baea6a6c7c4c2dfeb977efac326af552d87" : {
                "balance" : "0x00",
                "code" : "0x60806040526004361061001e5760003560e01c806312bd429914610023575b600080fd5b6100fc6004803603604081101561003957600080fd5b81019080803573ffffffffffffffffffffffffffffffffffffffff1690602001909291908035906020019064010000000081111561007657600080fd5b82018360208201111561008857600080fd5b803590602001918460018302840111640100000000831117156100aa57600080fd5b91908080601f016020809104026020016040519081016040528093929190818152602001838380828437600081840152601f19601f820116905080830192505050505050509192919290505050610182565b604051808315151515815260200180602001828103825283818151815260200191508051906020019080838360005b8381101561014657808201518184015260208101905061012b565b50505050905090810190601f1680156101735780820380516001836020036101000a031916815260200191505b50935050505060405180910390f35b600060608373ffffffffffffffffffffffffffffffffffffffff16836040518082805190602001908083835b602083106101d157805182526020820191506020810190506020830392506101ae565b6001836020036101000a038019825116818451168082178552505050505050905001915050600060405180830381855afa9150503d8060008114610231576040519150601f19603f3d011682016040523d82523d6000602084013e610236565b606091505b508092508193505050600060405180807f6572726f72000000000000000000000000000000000000000000000000000000815250600501905060405180910390209050821561028a57818051906020012090505b8060025582829250925050925092905056fea2646970667358221220db58d80e8530eed625d9b4250a6055c2eb1d7c117a7ca267e6f8a059bdd2f39e64736f6c634300060a0033",
                "nonce" : "0x01",
                "storage" : {
                }
            },
            "0xa94f5374fce5edbc8e2a8697c15331677e6ebf0b" : {
                "balance" : "0x0de0b6b3a7640000",
                "code" : "0x",
                "nonce" : "0x00",
                "storage" : {
                }
            }
        },
        "sealEngine" : "NoProof"
    }
}