{
    "g1_multiexp_10_d0g0v0_Prague" : {
        "_info" : {
            "comment" : "A test for g1_multiexp_10",
            "filling-rpc-server" : "evm version 1.14.0-unstable-a208e725-20240416",
            "filling-tool-version" : "retesteth-0.3.2-cancun+commit.353b2b37.Linux.g++",
            "generatedTestHash" : "c3f40cc88180bf00a8c95922f58ba4dd9629275ace4b855a58d2e9b8a548a62b",
            "lllcversion" : "Version: 0.5.14-develop.2023.7.11+commit.c58ab2c6.mod.Linux.g++",
            "solidity" : "Version: 0.8.21+commit.d9974bed.Linux.g++",
            "source" : "src/EIPTestsFiller/StateTests/stEIP2537/g1_multiexp_10Filler.json",
            "sourceHash" : "3421491fbb68c9624dd21c12db55ac2fd623183add1c57c3334880edadbd5e53"
        },
        "blocks" : [
            {
                "blockHeader" : {
                    "baseFeePerGas" : "0x0a",
                    "blobGasUsed" : "0x00",
                    "bloom" : "0x00000000000000000000000000000000000000000000000000000000000000000000000000000000000000000000000000000000000000000000000000000000000000000000000000000000000000000000000000000000000000000000000000000000000000000000000000000000000000000000000000000000000000000000000000000000000000000000000000000000000000000000000000000000000000000000000000000000000000000000000000000000000000000000000000000000000000000000000000000000000000000000000000000000000000000000000000000000000000000000000000000000000000000000000000000000",
                    "coinbase" : "0x2adc25665018aa1fe0e6bc666dac8fc2697ff9ba",
                    "difficulty" : "0x00",
                    "excessBlobGas" : "0x00",
                    "extraData" : "0x00",
                    "gasLimit" : "0xff112233445566",
                    "gasUsed" : "0x0251d0",
                    "hash" : "0x0010008d798540534499bd40882aa8cb0ab5b2b802e792c9f41f346d8a7123bd",
                    "mixHash" : "0x0000000000000000000000000000000000000000000000000000000000020000",
                    "nonce" : "0x0000000000000000",
                    "number" : "0x01",
                    "parentBeaconBlockRoot" : "0x0000000000000000000000000000000000000000000000000000000000000000",
                    "parentHash" : "0xc9cb4ed0dc693e89844b5a27d709ebd577e6a8380102855ef905d3d2d81ac0e5",
                    "receiptTrie" : "0xb4a503a2d4a3ed8e5c024d6c32478bdfd281a64c086969f7f8e0cee4cc3ca52f",
                    "stateRoot" : "0x95b1f5da9ffde5853e567de2fa128dda110bc84369fe90658b722f828237c727",
                    "timestamp" : "0x03e8",
                    "transactionsTrie" : "0x9cf2f66c052b6feaeacceb61cbf64817b3367fcba6524a1077fffc5ce7765083",
                    "uncleHash" : "0x1dcc4de8dec75d7aab85b567b6ccd41ad312451b948a7413f0a142fd40d49347",
                    "withdrawalsRoot" : "0x56e81f171bcc55a6ff8345e692c0f86e5b48e01b996cadc001622fb5e363b421"
                },
                "rlp" : "0xf90d11f9023ea0c9cb4ed0dc693e89844b5a27d709ebd577e6a8380102855ef905d3d2d81ac0e5a01dcc4de8dec75d7aab85b567b6ccd41ad312451b948a7413f0a142fd40d49347942adc25665018aa1fe0e6bc666dac8fc2697ff9baa095b1f5da9ffde5853e567de2fa128dda110bc84369fe90658b722f828237c727a09cf2f66c052b6feaeacceb61cbf64817b3367fcba6524a1077fffc5ce7765083a0b4a503a2d4a3ed8e5c024d6c32478bdfd281a64c086969f7f8e0cee4cc3ca52fb9010000000000000000000000000000000000000000000000000000000000000000000000000000000000000000000000000000000000000000000000000000000000000000000000000000000000000000000000000000000000000000000000000000000000000000000000000000000000000000000000000000000000000000000000000000000000000000000000000000000000000000000000000000000000000000000000000000000000000000000000000000000000000000000000000000000000000000000000000000000000000000000000000000000000000000000000000000000000000000000000000000000000000000000000000000000000800187ff112233445566830251d08203e800a000000000000000000000000000000000000000000000000000000000000200008800000000000000000aa056e81f171bcc55a6ff8345e692c0f86e5b48e01b996cadc001622fb5e363b4218080a00000000000000000000000000000000000000000000000000000000000000000f90acbf90ac8800a836acfc094095e7baea6a6c7c4c2dfeb977efac326af552d878203e8b90a6412bd4299000000000000000000000000000000000000000000000000000000000000000d00000000000000000000000000000000000000000000000000000000000000400000000000000000000000000000000000000000000000000000000000000a0000000000000000000000000000000000038e60d2dae22dee4dad0d9e0658741c13d165d3718c763270292602852625ac83c5ebc1a6d86c181686cd01a1891b520000000000000000000000000000000007299913b59e2d245fa489d92873b7d2bc8921191a34a0d7f6c5774757ea4eb3d667ff8f3e9293f0d2354ef03cb6592b68ce22e379ddb8352d12eb597c179c7089c6388542909876c69ee377b14054e7000000000000000000000000000000000b07454ff91e3f9707880c1713c69f8a44d70040b44d96ac74d196853c62f264ccbe6d9c8945905092d9bef665e45bf9000000000000000000000000000000000405c965e2e8cb5e85ef9e18927c7e86e63e7aeb49f45b3428089010f34eef9ff37eb005e6b86e20236dc870661dd68c61529338195b665f1b80c4b95b7c3a26a7229884be1f4be9d49e1274a9ec3f81000000000000000000000000000000000557c7f55246759b901e4e8478aac7b80d37edd5d6be057e5aeafe3d8da008e48c96c17ab1093a6a4fb39cbe9364fdff00000000000000000000000000000000158908f112d7cdcf867f1a5b05062b92972c2947be213ede3a7fed7a477fd57e69e1de82164f7cbd53a3f4f4bad551d744d740a72e6c8b5632314408022093618321c8c0a8cf2fcd9ebacbe43505a01c0000000000000000000000000000000001701edcc472ffbbf157b1f239968924bb91825754bd4fda9f13450162e82932b8f5f39e54ec5975dbe7dc744d6d676a0000000000000000000000000000000017d13c1f6d64af2a808c3ba20792af9ee9c626235ceb9ced3c7acb4bc864ba47e55e0945a430da47da1e87f015dc024724872a78e340ccb077259aae65d6c448fe6bfb64daf4e2b6ecce2cc9525e35a700000000000000000000000000000000011231262d0fcf5a4b92cc1ed62aa66a55be739eab1316219ed2bb8d3e939e25b840b75f914cdd3f07b3f57bbc07c23e0000000000000000000000000000000001eabe4a5782244ceaa57ea0b58ed1334dcb94e449b7fb905805cefb786e83af66ded006cadc651a7b2cb07c3e3fceb401a1d84826bf78f493417a06a800d58dba688800026638316fcf9ae534436fc000000000000000000000000000000000045bb823151b691e26b0e706b8abb248ecd87107a88c728e7a627a962aca7f85d4c88df949b3c53e2d32ef18f60675350000000000000000000000000000000003342b2d1a75300ae9ffbae66326936b19c7e59fc6f597ff09f2e5d50c1942f161dcbcbba00e4a46d87ab51074320132c5a3268a8ab5a12214b266aaa4eb562aa05dd19575a7f3ba2d549a25f1900cb800000000000000000000000000000000043d72d26ee669ae8e47eaa74199feb37d51f5c99151a8f854362469e5acb2c5f6d2c208e7d674efa189fb90275b835e0000000000000000000000000000000019e6f1b3137bdb49c534902abbf42893fd576a211b93c831dee90723c7daeecdceccd3eb981537d4fe729d6e48d70d6ae62a7b00d2be967df04ef56121c95c8736efa95e1faa0196e1f4485da82b3c3c000000000000000000000000000000000837b6a981e486865dc4d6d0c123230ced707e2518277cbfd0be747a8c9c76be6aff8b06df76f7c801fa34d11141354900000000000000000000000000000000011d745300b20c5ff1e607ef3a42ac31cc55e8be979b091aac0396748e607f00f30ff579321f2e660e90e8e5f9efd4f77a883bf845d1ed04e0664d814cf0b49cf8c3e8b8594ae5d2834c753851ed7803000000000000000000000000000000000740837b02d2923815914ee9cfad663eb7246ec8c56e632cdc2dce25b6e475dbb6a75ed2ca6790f5f83fd1a274832e8d00000000000000000000000000000000188034daa9801ea182b712da519f7524cbb9f641146bc0fbf77e72ecd066bd577672c1ccf28a2c4d3cb9854cb2b9e7c80f474e8f4051c4e91124c14895fe9e2516b315d805b79013caf830524fce888000000000000000000000000000000000014ddfffbffd0317ba7e248f648cbc98fac2be9f0cc31d6476f41527c25fe8d078207965eb2382ee1e0f08a38fbff7c10000000000000000000000000000000003e492f3667da69d44b35899f425af2ba51130aa6341bcc0d4d9646cc96b090061acece81ed16c7e75fa452818748b119b3a5790750825ab75ab7422f833c671b95c6c58619189db66a6215ce907381c0000000000000000000000000000000005107fd2b5b483173992b0f2f51dc24bdba94b5174c063b52c33a8cf84ce3adefe0efe08e6bf4de3e68189e495b39c6d000000000000000000000000000000000605e8540f1c7f5790c306643a68606581a16a60d33607064dad5572947c93f3846f66afae10a66cd33621c6a2dae30c6607a48ba3fa5c033a1ef90260ada14ee50c95e5167bf801ddbd3acb77c3b3880000000000000000000000000000000012eb811b231a07e27e997900be274f73720afe3b0626104a9d5aed39a3931595f2ad57cf6e8f12d5110cf38fc8e7f244000000000000000000000000000000000abf1b8abe848b91333b4bb226b81a33aff5b8f7af70108538a3c706da182476a42e0e5c2fcdf694c8a12f62a996c86c030db724eadd2f487d31dd4354b5c0321a7983aead21759807bd893217c4d4050000000000000000000000000000000009d2b5044a8fe22a957b6d1eb20454db2cff51e7ebb6357b3c6b95387b1fd810b94eab4aef4f0a0aec4e6a693903dab60000000000000000000000000000000012ccb794eb1174735b5f7700ef95ccb67691cd3673d601dbf6b2e2469521f1b2ed283f2f98a9cd601867de4640c9517988e71d0be8fd050f6dbb8b2fb3ae2a9e593bef7a5163255aabeb07282e8793e30000000000000000000000000000000003eb6e7ab6dbf66614ff5b55ed36243e1d9baa317f01aacbd7f3a015bddfd818c6764c0802e97a42063a18edd9dd091d0000000000000000000000000000000018571d50a947e56f63b26a4377678c838de7b315e655104eeee48b7d5e6f5ee5d876b3ebdebcbde4080e022cc88c995326989184bb87a586b8752733f9ce9ea06422c6a898f0f402cbcf760a7a21c95c000000000000000000000000000000000906d5a1691dcb7dfd5d78f0688e95de2e2f06cdc70f8760e43a562365939d3fa23ddaaddfd1ddfbd3bc9777783a7ab600000000000000000000000000000000168422a6171f5ae44b645b6b6e73011494dc75e98793db2424bab311990eb7730a9a45234afb78aeff7778503cf4e5a03d1dd9cc44b30a4623a4d14861688cb678bbb8b2f8ae3ba140f60e64c05514b10000000000000000000000000000000011c20d0c6140e0e11d3ffb8c28c6bd80ec495d057775f6dc331c98b0b0aba17568e1ba773771c703068dcc6747187767000000000000000000000000000000000f88fde780460bd75f46f593cf6fd0aa25ad14cccc061d9ae2cd8c20398f24e76ef614008efc9ffe1d1884df1122111b5639d80f55e24e05e3d943340e324f6738a593a915a6bddb40f01bf12f73daef1ba00af8745e5e8889ce0e287f930c39d0c70c5fa91fc22194245673080c560d1710a0494e40c4427a5552f08dcde615a795646cdf93f598dc5574f6d636687be17931c0c0",
                "transactions" : [
                    {
                        "data" : "0x12bd4299000000000000000000000000000000000000000000000000000000000000000d00000000000000000000000000000000000000000000000000000000000000400000000000000000000000000000000000000000000000000000000000000a0000000000000000000000000000000000038e60d2dae22dee4dad0d9e0658741c13d165d3718c763270292602852625ac83c5ebc1a6d86c181686cd01a1891b520000000000000000000000000000000007299913b59e2d245fa489d92873b7d2bc8921191a34a0d7f6c5774757ea4eb3d667ff8f3e9293f0d2354ef03cb6592b68ce22e379ddb8352d12eb597c179c7089c6388542909876c69ee377b14054e7000000000000000000000000000000000b07454ff91e3f9707880c1713c69f8a44d70040b44d96ac74d196853c62f264ccbe6d9c8945905092d9bef665e45bf9000000000000000000000000000000000405c965e2e8cb5e85ef9e18927c7e86e63e7aeb49f45b3428089010f34eef9ff37eb005e6b86e20236dc870661dd68c61529338195b665f1b80c4b95b7c3a26a7229884be1f4be9d49e1274a9ec3f81000000000000000000000000000000000557c7f55246759b901e4e8478aac7b80d37edd5d6be057e5aeafe3d8da008e48c96c17ab1093a6a4fb39cbe9364fdff00000000000000000000000000000000158908f112d7cdcf867f1a5b05062b92972c2947be213ede3a7fed7a477fd57e69e1de82164f7cbd53a3f4f4bad551d744d740a72e6c8b5632314408022093618321c8c0a8cf2fcd9ebacbe43505a01c0000000000000000000000000000000001701edcc472ffbbf157b1f239968924bb91825754bd4fda9f13450162e82932b8f5f39e54ec5975dbe7dc744d6d676a0000000000000000000000000000000017d13c1f6d64af2a808c3ba20792af9ee9c626235ceb9ced3c7acb4bc864ba47e55e0945a430da47da1e87f015dc024724872a78e340ccb077259aae65d6c448fe6bfb64daf4e2b6ecce2cc9525e35a700000000000000000000000000000000011231262d0fcf5a4b92cc1ed62aa66a55be739eab1316219ed2bb8d3e939e25b840b75f914cdd3f07b3f57bbc07c23e0000000000000000000000000000000001eabe4a5782244ceaa57ea0b58ed1334dcb94e449b7fb905805cefb786e83af66ded006cadc651a7b2cb07c3e3fceb401a1d84826bf78f493417a06a800d58dba688800026638316fcf9ae534436fc000000000000000000000000000000000045bb823151b691e26b0e706b8abb248ecd87107a88c728e7a627a962aca7f85d4c88df949b3c53e2d32ef18f60675350000000000000000000000000000000003342b2d1a75300ae9ffbae66326936b19c7e59fc6f597ff09f2e5d50c1942f161dcbcbba00e4a46d87ab51074320132c5a3268a8ab5a12214b266aaa4eb562aa05dd19575a7f3ba2d549a25f1900cb800000000000000000000000000000000043d72d26ee669ae8e47eaa74199feb37d51f5c99151a8f854362469e5acb2c5f6d2c208e7d674efa189fb90275b835e0000000000000000000000000000000019e6f1b3137bdb49c534902abbf42893fd576a211b93c831dee90723c7daeecdceccd3eb981537d4fe729d6e48d70d6ae62a7b00d2be967df04ef56121c95c8736efa95e1faa0196e1f4485da82b3c3c000000000000000000000000000000000837b6a981e486865dc4d6d0c123230ced707e2518277cbfd0be747a8c9c76be6aff8b06df76f7c801fa34d11141354900000000000000000000000000000000011d745300b20c5ff1e607ef3a42ac31cc55e8be979b091aac0396748e607f00f30ff579321f2e660e90e8e5f9efd4f77a883bf845d1ed04e0664d814cf0b49cf8c3e8b8594ae5d2834c753851ed7803000000000000000000000000000000000740837b02d2923815914ee9cfad663eb7246ec8c56e632cdc2dce25b6e475dbb6a75ed2ca6790f5f83fd1a274832e8d00000000000000000000000000000000188034daa9801ea182b712da519f7524cbb9f641146bc0fbf77e72ecd066bd577672c1ccf28a2c4d3cb9854cb2b9e7c80f474e8f4051c4e91124c14895fe9e2516b315d805b79013caf830524fce888000000000000000000000000000000000014ddfffbffd0317ba7e248f648cbc98fac2be9f0cc31d6476f41527c25fe8d078207965eb2382ee1e0f08a38fbff7c10000000000000000000000000000000003e492f3667da69d44b35899f425af2ba51130aa6341bcc0d4d9646cc96b090061acece81ed16c7e75fa452818748b119b3a5790750825ab75ab7422f833c671b95c6c58619189db66a6215ce907381c0000000000000000000000000000000005107fd2b5b483173992b0f2f51dc24bdba94b5174c063b52c33a8cf84ce3adefe0efe08e6bf4de3e68189e495b39c6d000000000000000000000000000000000605e8540f1c7f5790c306643a68606581a16a60d33607064dad5572947c93f3846f66afae10a66cd33621c6a2dae30c6607a48ba3fa5c033a1ef90260ada14ee50c95e5167bf801ddbd3acb77c3b3880000000000000000000000000000000012eb811b231a07e27e997900be274f73720afe3b0626104a9d5aed39a3931595f2ad57cf6e8f12d5110cf38fc8e7f244000000000000000000000000000000000abf1b8abe848b91333b4bb226b81a33aff5b8f7af70108538a3c706da182476a42e0e5c2fcdf694c8a12f62a996c86c030db724eadd2f487d31dd4354b5c0321a7983aead21759807bd893217c4d4050000000000000000000000000000000009d2b5044a8fe22a957b6d1eb20454db2cff51e7ebb6357b3c6b95387b1fd810b94eab4aef4f0a0aec4e6a693903dab60000000000000000000000000000000012ccb794eb1174735b5f7700ef95ccb67691cd3673d601dbf6b2e2469521f1b2ed283f2f98a9cd601867de4640c9517988e71d0be8fd050f6dbb8b2fb3ae2a9e593bef7a5163255aabeb07282e8793e30000000000000000000000000000000003eb6e7ab6dbf66614ff5b55ed36243e1d9baa317f01aacbd7f3a015bddfd818c6764c0802e97a42063a18edd9dd091d0000000000000000000000000000000018571d50a947e56f63b26a4377678c838de7b315e655104eeee48b7d5e6f5ee5d876b3ebdebcbde4080e022cc88c995326989184bb87a586b8752733f9ce9ea06422c6a898f0f402cbcf760a7a21c95c000000000000000000000000000000000906d5a1691dcb7dfd5d78f0688e95de2e2f06cdc70f8760e43a562365939d3fa23ddaaddfd1ddfbd3bc9777783a7ab600000000000000000000000000000000168422a6171f5ae44b645b6b6e73011494dc75e98793db2424bab311990eb7730a9a45234afb78aeff7778503cf4e5a03d1dd9cc44b30a4623a4d14861688cb678bbb8b2f8ae3ba140f60e64c05514b10000000000000000000000000000000011c20d0c6140e0e11d3ffb8c28c6bd80ec495d057775f6dc331c98b0b0aba17568e1ba773771c703068dcc6747187767000000000000000000000000000000000f88fde780460bd75f46f593cf6fd0aa25ad14cccc061d9ae2cd8c20398f24e76ef614008efc9ffe1d1884df1122111b5639d80f55e24e05e3d943340e324f6738a593a915a6bddb40f01bf12f73daef",
                        "gasLimit" : "0x6acfc0",
                        "gasPrice" : "0x0a",
                        "nonce" : "0x00",
                        "r" : "0x0af8745e5e8889ce0e287f930c39d0c70c5fa91fc22194245673080c560d1710",
                        "s" : "0x494e40c4427a5552f08dcde615a795646cdf93f598dc5574f6d636687be17931",
                        "sender" : "0xa94f5374fce5edbc8e2a8697c15331677e6ebf0b",
                        "to" : "0x095e7baea6a6c7c4c2dfeb977efac326af552d87",
                        "v" : "0x1b",
                        "value" : "0x03e8"
                    }
                ],
                "uncleHeaders" : [
                ],
                "withdrawals" : [
                ]
            }
        ],
        "genesisBlockHeader" : {
            "baseFeePerGas" : "0x0b",
            "blobGasUsed" : "0x00",
            "bloom" : "0x00000000000000000000000000000000000000000000000000000000000000000000000000000000000000000000000000000000000000000000000000000000000000000000000000000000000000000000000000000000000000000000000000000000000000000000000000000000000000000000000000000000000000000000000000000000000000000000000000000000000000000000000000000000000000000000000000000000000000000000000000000000000000000000000000000000000000000000000000000000000000000000000000000000000000000000000000000000000000000000000000000000000000000000000000000000",
            "coinbase" : "0x2adc25665018aa1fe0e6bc666dac8fc2697ff9ba",
            "difficulty" : "0x00",
            "excessBlobGas" : "0x060000",
            "extraData" : "0x00",
            "gasLimit" : "0xff112233445566",
            "gasUsed" : "0x00",
            "hash" : "0xc9cb4ed0dc693e89844b5a27d709ebd577e6a8380102855ef905d3d2d81ac0e5",
            "mixHash" : "0x0000000000000000000000000000000000000000000000000000000000020000",
            "nonce" : "0x0000000000000000",
            "number" : "0x00",
            "parentBeaconBlockRoot" : "0x0000000000000000000000000000000000000000000000000000000000000000",
            "parentHash" : "0x0000000000000000000000000000000000000000000000000000000000000000",
            "receiptTrie" : "0x56e81f171bcc55a6ff8345e692c0f86e5b48e01b996cadc001622fb5e363b421",
            "stateRoot" : "0x00059c610e858a345663eede1b974d037c154e4b4bb16a01ea2fd48a4d67bf65",
            "timestamp" : "0x00",
            "transactionsTrie" : "0x56e81f171bcc55a6ff8345e692c0f86e5b48e01b996cadc001622fb5e363b421",
            "uncleHash" : "0x1dcc4de8dec75d7aab85b567b6ccd41ad312451b948a7413f0a142fd40d49347",
            "withdrawalsRoot" : "0x56e81f171bcc55a6ff8345e692c0f86e5b48e01b996cadc001622fb5e363b421"
        },
        "genesisRLP" : "0xf90242f9023ca00000000000000000000000000000000000000000000000000000000000000000a01dcc4de8dec75d7aab85b567b6ccd41ad312451b948a7413f0a142fd40d49347942adc25665018aa1fe0e6bc666dac8fc2697ff9baa000059c610e858a345663eede1b974d037c154e4b4bb16a01ea2fd48a4d67bf65a056e81f171bcc55a6ff8345e692c0f86e5b48e01b996cadc001622fb5e363b421a056e81f171bcc55a6ff8345e692c0f86e5b48e01b996cadc001622fb5e363b421b9010000000000000000000000000000000000000000000000000000000000000000000000000000000000000000000000000000000000000000000000000000000000000000000000000000000000000000000000000000000000000000000000000000000000000000000000000000000000000000000000000000000000000000000000000000000000000000000000000000000000000000000000000000000000000000000000000000000000000000000000000000000000000000000000000000000000000000000000000000000000000000000000000000000000000000000000000000000000000000000000000000000000000000000000000000000000808087ff112233445566808000a000000000000000000000000000000000000000000000000000000000000200008800000000000000000ba056e81f171bcc55a6ff8345e692c0f86e5b48e01b996cadc001622fb5e363b4218083060000a00000000000000000000000000000000000000000000000000000000000000000c0c0c0",
        "lastblockhash" : "0x0010008d798540534499bd40882aa8cb0ab5b2b802e792c9f41f346d8a7123bd",
        "network" : "Prague",
        "postState" : {
            "0x000f3df6d732807ef1319fb7b8bb8522d0beac02" : {
                "balance" : "0x00",
                "code" : "0x3373fffffffffffffffffffffffffffffffffffffffe14604d57602036146024575f5ffd5b5f35801560495762001fff810690815414603c575f5ffd5b62001fff01545f5260205ff35b5f5ffd5b62001fff42064281555f359062001fff015500",
                "nonce" : "0x01",
                "storage" : {
                    "0x03e8" : "0x03e8"
                }
            },
            "0x095e7baea6a6c7c4c2dfeb977efac326af552d87" : {
                "balance" : "0x03e8",
                "code" : "0x60806040526004361061001e5760003560e01c806312bd429914610023575b600080fd5b6100fc6004803603604081101561003957600080fd5b81019080803573ffffffffffffffffffffffffffffffffffffffff1690602001909291908035906020019064010000000081111561007657600080fd5b82018360208201111561008857600080fd5b803590602001918460018302840111640100000000831117156100aa57600080fd5b91908080601f016020809104026020016040519081016040528093929190818152602001838380828437600081840152601f19601f820116905080830192505050505050509192919290505050610182565b604051808315151515815260200180602001828103825283818151815260200191508051906020019080838360005b8381101561014657808201518184015260208101905061012b565b50505050905090810190601f1680156101735780820380516001836020036101000a031916815260200191505b50935050505060405180910390f35b600060608373ffffffffffffffffffffffffffffffffffffffff16836040518082805190602001908083835b602083106101d157805182526020820191506020810190506020830392506101ae565b6001836020036101000a038019825116818451168082178552505050505050905001915050600060405180830381855afa9150503d8060008114610231576040519150601f19603f3d011682016040523d82523d6000602084013e610236565b606091505b508092508193505050600060405180807f6572726f72000000000000000000000000000000000000000000000000000000815250600501905060405180910390209050821561028a57818051906020012090505b8060025582829250925050925092905056fea2646970667358221220db58d80e8530eed625d9b4250a6055c2eb1d7c117a7ca267e6f8a059bdd2f39e64736f6c634300060a0033",
                "nonce" : "0x01",
                "storage" : {
                    "0x02" : "0x4513cd528820bd4067e4c73bebe8fd1e264b72322a8cda8e44db42406758da01"
                }
            },
            "0xa94f5374fce5edbc8e2a8697c15331677e6ebf0b" : {
                "balance" : "0x0de0b6b3a74cc9f8",
                "code" : "0x",
                "nonce" : "0x01",
                "storage" : {
                }
            }
        },
        "pre" : {
            "0x000f3df6d732807ef1319fb7b8bb8522d0beac02" : {
                "balance" : "0x00",
                "code" : "0x3373fffffffffffffffffffffffffffffffffffffffe14604d57602036146024575f5ffd5b5f35801560495762001fff810690815414603c575f5ffd5b62001fff01545f5260205ff35b5f5ffd5b62001fff42064281555f359062001fff015500",
                "nonce" : "0x01",
                "storage" : {
                }
            },
            "0x095e7baea6a6c7c4c2dfeb977efac326af552d87" : {
                "balance" : "0x00",
                "code" : "0x60806040526004361061001e5760003560e01c806312bd429914610023575b600080fd5b6100fc6004803603604081101561003957600080fd5b81019080803573ffffffffffffffffffffffffffffffffffffffff1690602001909291908035906020019064010000000081111561007657600080fd5b82018360208201111561008857600080fd5b803590602001918460018302840111640100000000831117156100aa57600080fd5b91908080601f016020809104026020016040519081016040528093929190818152602001838380828437600081840152601f19601f820116905080830192505050505050509192919290505050610182565b604051808315151515815260200180602001828103825283818151815260200191508051906020019080838360005b8381101561014657808201518184015260208101905061012b565b50505050905090810190601f1680156101735780820380516001836020036101000a031916815260200191505b50935050505060405180910390f35b600060608373ffffffffffffffffffffffffffffffffffffffff16836040518082805190602001908083835b602083106101d157805182526020820191506020810190506020830392506101ae565b6001836020036101000a038019825116818451168082178552505050505050905001915050600060405180830381855afa9150503d8060008114610231576040519150601f19603f3d011682016040523d82523d6000602084013e610236565b606091505b508092508193505050600060405180807f6572726f72000000000000000000000000000000000000000000000000000000815250600501905060405180910390209050821561028a57818051906020012090505b8060025582829250925050925092905056fea2646970667358221220db58d80e8530eed625d9b4250a6055c2eb1d7c117a7ca267e6f8a059bdd2f39e64736f6c634300060a0033",
                "nonce" : "0x01",
                "storage" : {
                }
            },
            "0xa94f5374fce5edbc8e2a8697c15331677e6ebf0b" : {
                "balance" : "0x0de0b6b3a7640000",
                "code" : "0x",
                "nonce" : "0x00",
                "storage" : {
                }
            }
        },
        "sealEngine" : "NoProof"
    }
}