{
    "g1_multiexp_79_d0g0v0_Prague" : {
        "_info" : {
            "comment" : "A test for g1_multiexp_79",
            "filling-rpc-server" : "evm version 1.14.0-unstable-a208e725-20240416",
            "filling-tool-version" : "retesteth-0.3.2-cancun+commit.353b2b37.Linux.g++",
            "generatedTestHash" : "0c9011b6db0c86c4acc4b4f161a69e137ea61b4d6218167884decfe2331b9aae",
            "lllcversion" : "Version: 0.5.14-develop.2023.7.11+commit.c58ab2c6.mod.Linux.g++",
            "solidity" : "Version: 0.8.21+commit.d9974bed.Linux.g++",
            "source" : "src/EIPTestsFiller/StateTests/stEIP2537/g1_multiexp_79Filler.json",
            "sourceHash" : "91d94b69f95def6e64464e57f2817ecdc062a2561dcedcb51fd69160c3ede21a"
        },
        "blocks" : [
            {
                "blockHeader" : {
                    "baseFeePerGas" : "0x0a",
                    "blobGasUsed" : "0x00",
                    "bloom" : "0x00000000000000000000000000000000000000000000000000000000000000000000000000000000000000000000000000000000000000000000000000000000000000000000000000000000000000000000000000000000000000000000000000000000000000000000000000000000000000000000000000000000000000000000000000000000000000000000000000000000000000000000000000000000000000000000000000000000000000000000000000000000000000000000000000000000000000000000000000000000000000000000000000000000000000000000000000000000000000000000000000000000000000000000000000000000",
                    "coinbase" : "0x2adc25665018aa1fe0e6bc666dac8fc2697ff9ba",
                    "difficulty" : "0x00",
                    "excessBlobGas" : "0x00",
                    "extraData" : "0x00",
                    "gasLimit" : "0xff112233445566",
                    "gasUsed" : "0x025230",
                    "hash" : "0x23e21e397c1b0c8b427a5a265a28a018f35eddbebdcac7cea6d743e3987c6630",
                    "mixHash" : "0x0000000000000000000000000000000000000000000000000000000000020000",
                    "nonce" : "0x0000000000000000",
                    "number" : "0x01",
                    "parentBeaconBlockRoot" : "0x0000000000000000000000000000000000000000000000000000000000000000",
                    "parentHash" : "0xc9cb4ed0dc693e89844b5a27d709ebd577e6a8380102855ef905d3d2d81ac0e5",
                    "receiptTrie" : "0xbe1f68b971240d402e730ab190da345e3c330647193ce3c977525a76915fcfd8",
                    "stateRoot" : "0xb4c4b42680971b078112da1d64ce478732692ec14277600bdb3e61c48ef42bc3",
                    "timestamp" : "0x03e8",
                    "transactionsTrie" : "0x1bcc5ba0af1b315ae1bd2d22900c95bba287ae5656bccfe04134fbaed16ea128",
                    "uncleHash" : "0x1dcc4de8dec75d7aab85b567b6ccd41ad312451b948a7413f0a142fd40d49347",
                    "withdrawalsRoot" : "0x56e81f171bcc55a6ff8345e692c0f86e5b48e01b996cadc001622fb5e363b421"
                },
                "rlp" : "0xf90d11f9023ea0c9cb4ed0dc693e89844b5a27d709ebd577e6a8380102855ef905d3d2d81ac0e5a01dcc4de8dec75d7aab85b567b6ccd41ad312451b948a7413f0a142fd40d49347942adc25665018aa1fe0e6bc666dac8fc2697ff9baa0b4c4b42680971b078112da1d64ce478732692ec14277600bdb3e61c48ef42bc3a01bcc5ba0af1b315ae1bd2d22900c95bba287ae5656bccfe04134fbaed16ea128a0be1f68b971240d402e730ab190da345e3c330647193ce3c977525a76915fcfd8b9010000000000000000000000000000000000000000000000000000000000000000000000000000000000000000000000000000000000000000000000000000000000000000000000000000000000000000000000000000000000000000000000000000000000000000000000000000000000000000000000000000000000000000000000000000000000000000000000000000000000000000000000000000000000000000000000000000000000000000000000000000000000000000000000000000000000000000000000000000000000000000000000000000000000000000000000000000000000000000000000000000000000000000000000000000000000800187ff112233445566830252308203e800a000000000000000000000000000000000000000000000000000000000000200008800000000000000000aa056e81f171bcc55a6ff8345e692c0f86e5b48e01b996cadc001622fb5e363b4218080a00000000000000000000000000000000000000000000000000000000000000000f90acbf90ac8800a836acfc094095e7baea6a6c7c4c2dfeb977efac326af552d878203e8b90a6412bd4299000000000000000000000000000000000000000000000000000000000000000d00000000000000000000000000000000000000000000000000000000000000400000000000000000000000000000000000000000000000000000000000000a00000000000000000000000000000000000cd7cca90c8742e7f541981a13b177a4e639195af5f15cee2ce37b01d50fb8478a3f0d0abe4312a4d92a201b4dbb030e0000000000000000000000000000000018e2a69bd1cd9bb7ea75ceedf28ac9c9514e8d28223af69dc991e46a03d8d272d267842f30552583a1f08a07188058ce13ca0cfc742607bee58988df361d7cd5d809ba4fddb209c898cd555369fff5660000000000000000000000000000000011cbbf1ee7e9cf8deae286ba67ab0eeddabd2471d2ea15e86c77c4f2f23ce38e17ac3f3e3c2a40a1640bb3485be4e59600000000000000000000000000000000108e9f887f86f03dcbd515501f69a5983b4a6d707c26b69cb9ea7a387c5a914612ef645cbe81bf29ba91d209e839c72abcca8ab454fbc576a2b910f140b23c23b14301c19e1f47989d78eeecf279862a0000000000000000000000000000000015c1856c661396f8e3a477932e1eea7e124b2e9ae0dfb1df67c4b3928c462cfbb3220c4c2fbd755fb6435e144a2b937e0000000000000000000000000000000011b114659fa71c3ac2412d5c2cc1e184f05a45871e5ab08fbe5eff68ef9e457c4f3e2bb4f16d10e91f7ee2231bc3266359f82ceeb6160d3256228d7a41fb3caa6f305b23142ab979e728356a13309e27000000000000000000000000000000000b693c93d4f06be5bc8a84157c6f407c3db14175c56310e7d041118ec869f3992f75809b209f6dd01085991deaae2a96000000000000000000000000000000000ee21d90cc3825b401e6d452e27814672d849386eccec7be992581b1fb9f4ff4f3892d63e124bd669603e6269f099452995f7d2038ad02deddca34399e5b5653fa471d998c52bd52241840cdb9202b2c00000000000000000000000000000000013b40cfe91492dc53089325be73b5d404288e8056e30cfe4bf3feb6b854eb7d0efa3ac4afa822162ac16608555ccc92000000000000000000000000000000000576146711dfa2ee08bf08121c30fe63ef0ca4448b28076eaba9298ab925c615a56d497044be803f73e9586763aad52497b67e68bfe2d7fc256e6aa610dd91dc1b02c64186d24702ad8fa9f715b582a50000000000000000000000000000000009d66d52069b0d23faa33818a8c9bfc812ae6938dd02604e98a422f50c085a5641a46272dc9c8801a9c76cdfc2020a0c0000000000000000000000000000000004dba0f971336c813933bc6386e55044f5e3d3e5cf38ede5811b4e775fb41cd09d7f136d9de6fc36f2f435b8cdfdc26198115b9f84e3ed6947bd6f0e3c65361cf360a65bc059515da852a72ec5cd17810000000000000000000000000000000005ae8fd5c52fff0b80a2c5c4fca4bccad28f580c94edb7e28ca2ce2390cc2fe476a2b11f63c3c8759847e647d5fe5d1f000000000000000000000000000000000edbff5012f6efde3a9bcad65c805b1c4ac0899fbba5fd760513c673ce8ad18d3baf28acb3344f511fd4d9785afea33c27370e1037b709015e0bf178a41ac55774a813368e11ef7a764eb48abe75dbf50000000000000000000000000000000009d003d4213a46812ea1565bd9a6f0f3da1e69e289f026e619911354cd7444dfbfff1d842e3d9c61c305b2154851b29500000000000000000000000000000000070a1387dd16f9d8b4306ecfe0e9ba7aaa5959ec917e06da4ddf90c992fc569a56c61f6372bd26e21f5cbe7d720b68c66bf5fb297948e0ddc60ba26e49ef2892ca008e64a22ff2bb21ff70c56112f7100000000000000000000000000000000008fccb033a3e10a0015b11ffe2ed5f4c96ea2262d06ca4b0eabbc15c9b299a5220444345c65e7092501b56599980bd0d00000000000000000000000000000000127583566286e52f2f2c7809cea1170a49993f171c1c217b82c17983e02b7e69cb8c948725c7a613c41f96e80c3f1aa96b488b6b63cb8bf34efeedd9f95dff4d3d8c067c0d807bd1e20bd267748275d000000000000000000000000000000000084501b09915fa13908466d6bd50a7e0d8b39893bfcec9c6876b7ed8effd100b8f0a459d754efb6b110af2becd882cfd000000000000000000000000000000000373669b2a03d3da4e907da24c61f5e7928c5fcef4e6c9ad4303fc4cc2cb641212680f7c33605212de8914caa58732f44f661845e91de1c09f581c7612a25bfa0889f77c2add31b493b37d20bcce110700000000000000000000000000000000010608a9f87f46e528d782ef81493625f9a47134832eecca6471d2113060703750b679e64179e7a1c1c81311c38c493400000000000000000000000000000000032a0c82e42be6203415638e6cca4dc1621f87f030a9d742bc77862f4f10ceb44f1ecd377acec6587be0fdc33d8c17c98b3bf8d5e529912b1b6e445f592a6d151c6f5d01d3b021a31a2669df4ce02aa300000000000000000000000000000000126f62cc3033b7235be5778289fc568a1c474b70cba2d35a0b9fdab5cf239a2d4fb03f0bedfa84425b142c04284da058000000000000000000000000000000000dc1f91754d582f57b413fde9b837cbfe3430582b0964620b02bf854c6f666914157d44a165f16ca1d7204f35caa7b0630e1c8f222019b877e66df0b6201b5bfc5b6c10aae340c55e74410a536ffb9b20000000000000000000000000000000016d277ee7864b3af3102190cc99db1cff9fd1b1d6e7fc039040149c5944e7837895532ae41b4db50e29a5d6bad7ceb630000000000000000000000000000000016c3f6e29114782c84734cb927d1a89b7755c3a8fbc99076ce3ae17f7f1d088e5fb9757237773fd4e14c2855ec12b93723a258d66f2296fa1c71065cf23c994eb8c6c35d35120d16790fec791ad215fe000000000000000000000000000000000dc8f59e410ef7145d636d2c7d43fc4b1c903d6c8c0efc3ae162293c7c65c48182f9a25c4e5f111635881533cc558cf7000000000000000000000000000000000082dcb0872d815465131953c69e260e3a9ae44d16975f361b5effe13ab1d61c18f050108e73f50871221faf28fd79771ef4055b85f37b548dac2b64608d99ca293548bebe1e24355393520c34eda60a0000000000000000000000000000000002536653a945e03329279f382937d72bddd71ff8f19053e1fb19ef83d9751eaf101676249ac65fc61a0cbacbfca3cfac000000000000000000000000000000000806ebe4d62e62904ead05f814dfa6e8a392b887bab4aee61552c6f93ea5ffec6593e9078a33f4cefc96393a667c934c212529248c51c95b5b26961f27e6d44ef1c2b9233bb2ed32c3eee79ca6c6eb750000000000000000000000000000000018fe7f7093e0313737b8e0c6ba2fb0c93afe1e8241bc769f14cebbfdb4c73aa578fe3d37ce1221f21aca8af9ab99201c000000000000000000000000000000000ea0f2ff4c8ed0a51fc8fedaa056a369c5e97e347c6883b215d0f7e019960c0178a7962415c220766c16f4596d4b9d8ce9888dd839d9b8c236394c44d358f452a4588ae65d24ffe2bd345fc745de9d371ca004506f5596b941ffee205ed4f3bfc1655d12e54950345e3083dc68f109b5f896a01c19ef91d53569ac42d8ae12bf3dee7c62760d99a2079caa6a1c52b5554598f7c0c0",
                "transactions" : [
                    {
                        "data" : "0x12bd4299000000000000000000000000000000000000000000000000000000000000000d00000000000000000000000000000000000000000000000000000000000000400000000000000000000000000000000000000000000000000000000000000a00000000000000000000000000000000000cd7cca90c8742e7f541981a13b177a4e639195af5f15cee2ce37b01d50fb8478a3f0d0abe4312a4d92a201b4dbb030e0000000000000000000000000000000018e2a69bd1cd9bb7ea75ceedf28ac9c9514e8d28223af69dc991e46a03d8d272d267842f30552583a1f08a07188058ce13ca0cfc742607bee58988df361d7cd5d809ba4fddb209c898cd555369fff5660000000000000000000000000000000011cbbf1ee7e9cf8deae286ba67ab0eeddabd2471d2ea15e86c77c4f2f23ce38e17ac3f3e3c2a40a1640bb3485be4e59600000000000000000000000000000000108e9f887f86f03dcbd515501f69a5983b4a6d707c26b69cb9ea7a387c5a914612ef645cbe81bf29ba91d209e839c72abcca8ab454fbc576a2b910f140b23c23b14301c19e1f47989d78eeecf279862a0000000000000000000000000000000015c1856c661396f8e3a477932e1eea7e124b2e9ae0dfb1df67c4b3928c462cfbb3220c4c2fbd755fb6435e144a2b937e0000000000000000000000000000000011b114659fa71c3ac2412d5c2cc1e184f05a45871e5ab08fbe5eff68ef9e457c4f3e2bb4f16d10e91f7ee2231bc3266359f82ceeb6160d3256228d7a41fb3caa6f305b23142ab979e728356a13309e27000000000000000000000000000000000b693c93d4f06be5bc8a84157c6f407c3db14175c56310e7d041118ec869f3992f75809b209f6dd01085991deaae2a96000000000000000000000000000000000ee21d90cc3825b401e6d452e27814672d849386eccec7be992581b1fb9f4ff4f3892d63e124bd669603e6269f099452995f7d2038ad02deddca34399e5b5653fa471d998c52bd52241840cdb9202b2c00000000000000000000000000000000013b40cfe91492dc53089325be73b5d404288e8056e30cfe4bf3feb6b854eb7d0efa3ac4afa822162ac16608555ccc92000000000000000000000000000000000576146711dfa2ee08bf08121c30fe63ef0ca4448b28076eaba9298ab925c615a56d497044be803f73e9586763aad52497b67e68bfe2d7fc256e6aa610dd91dc1b02c64186d24702ad8fa9f715b582a50000000000000000000000000000000009d66d52069b0d23faa33818a8c9bfc812ae6938dd02604e98a422f50c085a5641a46272dc9c8801a9c76cdfc2020a0c0000000000000000000000000000000004dba0f971336c813933bc6386e55044f5e3d3e5cf38ede5811b4e775fb41cd09d7f136d9de6fc36f2f435b8cdfdc26198115b9f84e3ed6947bd6f0e3c65361cf360a65bc059515da852a72ec5cd17810000000000000000000000000000000005ae8fd5c52fff0b80a2c5c4fca4bccad28f580c94edb7e28ca2ce2390cc2fe476a2b11f63c3c8759847e647d5fe5d1f000000000000000000000000000000000edbff5012f6efde3a9bcad65c805b1c4ac0899fbba5fd760513c673ce8ad18d3baf28acb3344f511fd4d9785afea33c27370e1037b709015e0bf178a41ac55774a813368e11ef7a764eb48abe75dbf50000000000000000000000000000000009d003d4213a46812ea1565bd9a6f0f3da1e69e289f026e619911354cd7444dfbfff1d842e3d9c61c305b2154851b29500000000000000000000000000000000070a1387dd16f9d8b4306ecfe0e9ba7aaa5959ec917e06da4ddf90c992fc569a56c61f6372bd26e21f5cbe7d720b68c66bf5fb297948e0ddc60ba26e49ef2892ca008e64a22ff2bb21ff70c56112f7100000000000000000000000000000000008fccb033a3e10a0015b11ffe2ed5f4c96ea2262d06ca4b0eabbc15c9b299a5220444345c65e7092501b56599980bd0d00000000000000000000000000000000127583566286e52f2f2c7809cea1170a49993f171c1c217b82c17983e02b7e69cb8c948725c7a613c41f96e80c3f1aa96b488b6b63cb8bf34efeedd9f95dff4d3d8c067c0d807bd1e20bd267748275d000000000000000000000000000000000084501b09915fa13908466d6bd50a7e0d8b39893bfcec9c6876b7ed8effd100b8f0a459d754efb6b110af2becd882cfd000000000000000000000000000000000373669b2a03d3da4e907da24c61f5e7928c5fcef4e6c9ad4303fc4cc2cb641212680f7c33605212de8914caa58732f44f661845e91de1c09f581c7612a25bfa0889f77c2add31b493b37d20bcce110700000000000000000000000000000000010608a9f87f46e528d782ef81493625f9a47134832eecca6471d2113060703750b679e64179e7a1c1c81311c38c493400000000000000000000000000000000032a0c82e42be6203415638e6cca4dc1621f87f030a9d742bc77862f4f10ceb44f1ecd377acec6587be0fdc33d8c17c98b3bf8d5e529912b1b6e445f592a6d151c6f5d01d3b021a31a2669df4ce02aa300000000000000000000000000000000126f62cc3033b7235be5778289fc568a1c474b70cba2d35a0b9fdab5cf239a2d4fb03f0bedfa84425b142c04284da058000000000000000000000000000000000dc1f91754d582f57b413fde9b837cbfe3430582b0964620b02bf854c6f666914157d44a165f16ca1d7204f35caa7b0630e1c8f222019b877e66df0b6201b5bfc5b6c10aae340c55e74410a536ffb9b20000000000000000000000000000000016d277ee7864b3af3102190cc99db1cff9fd1b1d6e7fc039040149c5944e7837895532ae41b4db50e29a5d6bad7ceb630000000000000000000000000000000016c3f6e29114782c84734cb927d1a89b7755c3a8fbc99076ce3ae17f7f1d088e5fb9757237773fd4e14c2855ec12b93723a258d66f2296fa1c71065cf23c994eb8c6c35d35120d16790fec791ad215fe000000000000000000000000000000000dc8f59e410ef7145d636d2c7d43fc4b1c903d6c8c0efc3ae162293c7c65c48182f9a25c4e5f111635881533cc558cf7000000000000000000000000000000000082dcb0872d815465131953c69e260e3a9ae44d16975f361b5effe13ab1d61c18f050108e73f50871221faf28fd79771ef4055b85f37b548dac2b64608d99ca293548bebe1e24355393520c34eda60a0000000000000000000000000000000002536653a945e03329279f382937d72bddd71ff8f19053e1fb19ef83d9751eaf101676249ac65fc61a0cbacbfca3cfac000000000000000000000000000000000806ebe4d62e62904ead05f814dfa6e8a392b887bab4aee61552c6f93ea5ffec6593e9078a33f4cefc96393a667c934c212529248c51c95b5b26961f27e6d44ef1c2b9233bb2ed32c3eee79ca6c6eb750000000000000000000000000000000018fe7f7093e0313737b8e0c6ba2fb0c93afe1e8241bc769f14cebbfdb4c73aa578fe3d37ce1221f21aca8af9ab99201c000000000000000000000000000000000ea0f2ff4c8ed0a51fc8fedaa056a369c5e97e347c6883b215d0f7e019960c0178a7962415c220766c16f4596d4b9d8ce9888dd839d9b8c236394c44d358f452a4588ae65d24ffe2bd345fc745de9d37",
                        "gasLimit" : "0x6acfc0",
                        "gasPrice" : "0x0a",
                        "nonce" : "0x00",
                        "r" : "0x04506f5596b941ffee205ed4f3bfc1655d12e54950345e3083dc68f109b5f896",
                        "s" : "0x1c19ef91d53569ac42d8ae12bf3dee7c62760d99a2079caa6a1c52b5554598f7",
                        "sender" : "0xa94f5374fce5edbc8e2a8697c15331677e6ebf0b",
                        "to" : "0x095e7baea6a6c7c4c2dfeb977efac326af552d87",
                        "v" : "0x1c",
                        "value" : "0x03e8"
                    }
                ],
                "uncleHeaders" : [
                ],
                "withdrawals" : [
                ]
            }
        ],
        "genesisBlockHeader" : {
            "baseFeePerGas" : "0x0b",
            "blobGasUsed" : "0x00",
            "bloom" : "0x00000000000000000000000000000000000000000000000000000000000000000000000000000000000000000000000000000000000000000000000000000000000000000000000000000000000000000000000000000000000000000000000000000000000000000000000000000000000000000000000000000000000000000000000000000000000000000000000000000000000000000000000000000000000000000000000000000000000000000000000000000000000000000000000000000000000000000000000000000000000000000000000000000000000000000000000000000000000000000000000000000000000000000000000000000000",
            "coinbase" : "0x2adc25665018aa1fe0e6bc666dac8fc2697ff9ba",
            "difficulty" : "0x00",
            "excessBlobGas" : "0x060000",
            "extraData" : "0x00",
            "gasLimit" : "0xff112233445566",
            "gasUsed" : "0x00",
            "hash" : "0xc9cb4ed0dc693e89844b5a27d709ebd577e6a8380102855ef905d3d2d81ac0e5",
            "mixHash" : "0x0000000000000000000000000000000000000000000000000000000000020000",
            "nonce" : "0x0000000000000000",
            "number" : "0x00",
            "parentBeaconBlockRoot" : "0x0000000000000000000000000000000000000000000000000000000000000000",
            "parentHash" : "0x0000000000000000000000000000000000000000000000000000000000000000",
            "receiptTrie" : "0x56e81f171bcc55a6ff8345e692c0f86e5b48e01b996cadc001622fb5e363b421",
            "stateRoot" : "0x00059c610e858a345663eede1b974d037c154e4b4bb16a01ea2fd48a4d67bf65",
            "timestamp" : "0x00",
            "transactionsTrie" : "0x56e81f171bcc55a6ff8345e692c0f86e5b48e01b996cadc001622fb5e363b421",
            "uncleHash" : "0x1dcc4de8dec75d7aab85b567b6ccd41ad312451b948a7413f0a142fd40d49347",
            "withdrawalsRoot" : "0x56e81f171bcc55a6ff8345e692c0f86e5b48e01b996cadc001622fb5e363b421"
        },
        "genesisRLP" : "0xf90242f9023ca00000000000000000000000000000000000000000000000000000000000000000a01dcc4de8dec75d7aab85b567b6ccd41ad312451b948a7413f0a142fd40d49347942adc25665018aa1fe0e6bc666dac8fc2697ff9baa000059c610e858a345663eede1b974d037c154e4b4bb16a01ea2fd48a4d67bf65a056e81f171bcc55a6ff8345e692c0f86e5b48e01b996cadc001622fb5e363b421a056e81f171bcc55a6ff8345e692c0f86e5b48e01b996cadc001622fb5e363b421b9010000000000000000000000000000000000000000000000000000000000000000000000000000000000000000000000000000000000000000000000000000000000000000000000000000000000000000000000000000000000000000000000000000000000000000000000000000000000000000000000000000000000000000000000000000000000000000000000000000000000000000000000000000000000000000000000000000000000000000000000000000000000000000000000000000000000000000000000000000000000000000000000000000000000000000000000000000000000000000000000000000000000000000000000000000000000808087ff112233445566808000a000000000000000000000000000000000000000000000000000000000000200008800000000000000000ba056e81f171bcc55a6ff8345e692c0f86e5b48e01b996cadc001622fb5e363b4218083060000a00000000000000000000000000000000000000000000000000000000000000000c0c0c0",
        "lastblockhash" : "0x23e21e397c1b0c8b427a5a265a28a018f35eddbebdcac7cea6d743e3987c6630",
        "network" : "Prague",
        "postState" : {
            "0x000f3df6d732807ef1319fb7b8bb8522d0beac02" : {
                "balance" : "0x00",
                "code" : "0x3373fffffffffffffffffffffffffffffffffffffffe14604d57602036146024575f5ffd5b5f35801560495762001fff810690815414603c575f5ffd5b62001fff01545f5260205ff35b5f5ffd5b62001fff42064281555f359062001fff015500",
                "nonce" : "0x01",
                "storage" : {
                    "0x03e8" : "0x03e8"
                }
            },
            "0x095e7baea6a6c7c4c2dfeb977efac326af552d87" : {
                "balance" : "0x03e8",
                "code" : "0x60806040526004361061001e5760003560e01c806312bd429914610023575b600080fd5b6100fc6004803603604081101561003957600080fd5b81019080803573ffffffffffffffffffffffffffffffffffffffff1690602001909291908035906020019064010000000081111561007657600080fd5b82018360208201111561008857600080fd5b803590602001918460018302840111640100000000831117156100aa57600080fd5b91908080601f016020809104026020016040519081016040528093929190818152602001838380828437600081840152601f19601f820116905080830192505050505050509192919290505050610182565b604051808315151515815260200180602001828103825283818151815260200191508051906020019080838360005b8381101561014657808201518184015260208101905061012b565b50505050905090810190601f1680156101735780820380516001836020036101000a031916815260200191505b50935050505060405180910390f35b600060608373ffffffffffffffffffffffffffffffffffffffff16836040518082805190602001908083835b602083106101d157805182526020820191506020810190506020830392506101ae565b6001836020036101000a038019825116818451168082178552505050505050905001915050600060405180830381855afa9150503d8060008114610231576040519150601f19603f3d011682016040523d82523d6000602084013e610236565b606091505b508092508193505050600060405180807f6572726f72000000000000000000000000000000000000000000000000000000815250600501905060405180910390209050821561028a57818051906020012090505b8060025582829250925050925092905056fea2646970667358221220db58d80e8530eed625d9b4250a6055c2eb1d7c117a7ca267e6f8a059bdd2f39e64736f6c634300060a0033",
                "nonce" : "0x01",
                "storage" : {
                    "0x02" : "0xc826c79266d5058841ba3c933e0d885033c4d4eb569280ab08b3e0a41e21734d"
                }
            },
            "0xa94f5374fce5edbc8e2a8697c15331677e6ebf0b" : {
                "balance" : "0x0de0b6b3a74cc638",
                "code" : "0x",
                "nonce" : "0x01",
                "storage" : {
                }
            }
        },
        "pre" : {
            "0x000f3df6d732807ef1319fb7b8bb8522d0beac02" : {
                "balance" : "0x00",
                "code" : "0x3373fffffffffffffffffffffffffffffffffffffffe14604d57602036146024575f5ffd5b5f35801560495762001fff810690815414603c575f5ffd5b62001fff01545f5260205ff35b5f5ffd5b62001fff42064281555f359062001fff015500",
                "nonce" : "0x01",
                "storage" : {
                }
            },
            "0x095e7baea6a6c7c4c2dfeb977efac326af552d87" : {
                "balance" : "0x00",
                "code" : "0x60806040526004361061001e5760003560e01c806312bd429914610023575b600080fd5b6100fc6004803603604081101561003957600080fd5b81019080803573ffffffffffffffffffffffffffffffffffffffff1690602001909291908035906020019064010000000081111561007657600080fd5b82018360208201111561008857600080fd5b803590602001918460018302840111640100000000831117156100aa57600080fd5b91908080601f016020809104026020016040519081016040528093929190818152602001838380828437600081840152601f19601f820116905080830192505050505050509192919290505050610182565b604051808315151515815260200180602001828103825283818151815260200191508051906020019080838360005b8381101561014657808201518184015260208101905061012b565b50505050905090810190601f1680156101735780820380516001836020036101000a031916815260200191505b50935050505060405180910390f35b600060608373ffffffffffffffffffffffffffffffffffffffff16836040518082805190602001908083835b602083106101d157805182526020820191506020810190506020830392506101ae565b6001836020036101000a038019825116818451168082178552505050505050905001915050600060405180830381855afa9150503d8060008114610231576040519150601f19603f3d011682016040523d82523d6000602084013e610236565b606091505b508092508193505050600060405180807f6572726f72000000000000000000000000000000000000000000000000000000815250600501905060405180910390209050821561028a57818051906020012090505b8060025582829250925050925092905056fea2646970667358221220db58d80e8530eed625d9b4250a6055c2eb1d7c117a7ca267e6f8a059bdd2f39e64736f6c634300060a0033",
                "nonce" : "0x01",
                "storage" : {
                }
            },
            "0xa94f5374fce5edbc8e2a8697c15331677e6ebf0b" : {
                "balance" : "0x0de0b6b3a7640000",
                "code" : "0x",
                "nonce" : "0x00",
                "storage" : {
                }
            }
        },
        "sealEngine" : "NoProof"
    }
}