{
    "g1_multiexp_23_d0g0v0_Prague" : {
        "_info" : {
            "comment" : "A test for g1_multiexp_23",
            "filling-rpc-server" : "evm version 1.14.0-unstable-a208e725-20240416",
            "filling-tool-version" : "retesteth-0.3.2-cancun+commit.353b2b37.Linux.g++",
            "generatedTestHash" : "a22fe986f4480d84276f827db48425cc6341a4b769b11f751b0314b8cf22646d",
            "lllcversion" : "Version: 0.5.14-develop.2023.7.11+commit.c58ab2c6.mod.Linux.g++",
            "solidity" : "Version: 0.8.21+commit.d9974bed.Linux.g++",
            "source" : "src/EIPTestsFiller/StateTests/stEIP2537/g1_multiexp_23Filler.json",
            "sourceHash" : "2e06d91152b1fefceb88f197c55546a7ec723782a56621c33323e1c8fb08fff0"
        },
        "blocks" : [
            {
                "blockHeader" : {
                    "baseFeePerGas" : "0x0a",
                    "blobGasUsed" : "0x00",
                    "bloom" : "0x00000000000000000000000000000000000000000000000000000000000000000000000000000000000000000000000000000000000000000000000000000000000000000000000000000000000000000000000000000000000000000000000000000000000000000000000000000000000000000000000000000000000000000000000000000000000000000000000000000000000000000000000000000000000000000000000000000000000000000000000000000000000000000000000000000000000000000000000000000000000000000000000000000000000000000000000000000000000000000000000000000000000000000000000000000000",
                    "coinbase" : "0x2adc25665018aa1fe0e6bc666dac8fc2697ff9ba",
                    "difficulty" : "0x00",
                    "excessBlobGas" : "0x00",
                    "extraData" : "0x00",
                    "gasLimit" : "0xff112233445566",
                    "gasUsed" : "0x0251c4",
                    "hash" : "0x9615181cca3fefe24bcebc39caa3816f07c9c0c75f785d27ee999158ee6dfe79",
                    "mixHash" : "0x0000000000000000000000000000000000000000000000000000000000020000",
                    "nonce" : "0x0000000000000000",
                    "number" : "0x01",
                    "parentBeaconBlockRoot" : "0x0000000000000000000000000000000000000000000000000000000000000000",
                    "parentHash" : "0xc9cb4ed0dc693e89844b5a27d709ebd577e6a8380102855ef905d3d2d81ac0e5",
                    "receiptTrie" : "0x08e33a5b39ac734d91a01d81bfc50364e98ef7300914e33c0406339bdca8b1de",
                    "stateRoot" : "0xf3eb709c411252ad9eebb646edaefdcb802b7c49781d42de5cd116f748413560",
                    "timestamp" : "0x03e8",
                    "transactionsTrie" : "0xd5a8db6a8098609f7010c62c3bc1fb1cfab2a798ec7a92aba227fd133b1caa3d",
                    "uncleHash" : "0x1dcc4de8dec75d7aab85b567b6ccd41ad312451b948a7413f0a142fd40d49347",
                    "withdrawalsRoot" : "0x56e81f171bcc55a6ff8345e692c0f86e5b48e01b996cadc001622fb5e363b421"
                },
                "rlp" : "0xf90d11f9023ea0c9cb4ed0dc693e89844b5a27d709ebd577e6a8380102855ef905d3d2d81ac0e5a01dcc4de8dec75d7aab85b567b6ccd41ad312451b948a7413f0a142fd40d49347942adc25665018aa1fe0e6bc666dac8fc2697ff9baa0f3eb709c411252ad9eebb646edaefdcb802b7c49781d42de5cd116f748413560a0d5a8db6a8098609f7010c62c3bc1fb1cfab2a798ec7a92aba227fd133b1caa3da008e33a5b39ac734d91a01d81bfc50364e98ef7300914e33c0406339bdca8b1deb9010000000000000000000000000000000000000000000000000000000000000000000000000000000000000000000000000000000000000000000000000000000000000000000000000000000000000000000000000000000000000000000000000000000000000000000000000000000000000000000000000000000000000000000000000000000000000000000000000000000000000000000000000000000000000000000000000000000000000000000000000000000000000000000000000000000000000000000000000000000000000000000000000000000000000000000000000000000000000000000000000000000000000000000000000000000000800187ff112233445566830251c48203e800a000000000000000000000000000000000000000000000000000000000000200008800000000000000000aa056e81f171bcc55a6ff8345e692c0f86e5b48e01b996cadc001622fb5e363b4218080a00000000000000000000000000000000000000000000000000000000000000000f90acbf90ac8800a836acfc094095e7baea6a6c7c4c2dfeb977efac326af552d878203e8b90a6412bd4299000000000000000000000000000000000000000000000000000000000000000d00000000000000000000000000000000000000000000000000000000000000400000000000000000000000000000000000000000000000000000000000000a0000000000000000000000000000000000023a2a3e6e1c1cc57b2295c664ac26abd0f5bbecc0ed8e9850f90b04484c0cf048a76477ddde84e90cc452429e28b78e00000000000000000000000000000000194aa1d8332fd8120ed518f27fd827e3c955c2cbb2cae8d5e677f55963565dfdd232c83a38826621e8e66565f8e200b39f2e54f21b7f2116c30d6e444ca82fe800435cbbd72a98a6d22bac92039c540700000000000000000000000000000000124adb0352af8f18a631cb0078ec7daf00c2186e04d3ee47882d557b0e9e7fda0e0d258393ded20288789085583a97dd00000000000000000000000000000000053f94d0889a5122b6dfb1da2d7f13a836b9be039f127a011991c360c941e5dab8cb3c7ff3d7e128e52dfeb776aeedafc8cecea241dd6a924c9b9cc3d390fbf40ab897208ce9d3e4a148b2c30c25e7eb0000000000000000000000000000000009dee1a168c00632903b93fcf330b28ec7dcb8d6fba65f369237ef873ecaddd60a2d1af6e5b087f07a103f096aeb5e600000000000000000000000000000000006f90048b72dc28cf4cb40585925e62275d44df95fcbf1206e2bc762a455dea5fc6b830420d49b2415d259f8d5ed3ab7e428fab2c596f23bc3c9e9855b74295f52caf73cb7371c93c65370583f7fef4c000000000000000000000000000000001750fc7241cee9d71d95f0023dbc4b1f41ce794e9e7822a29a84c93b9374ccf0f11f931795fb824bb5c9fdb4f9e7bd9c000000000000000000000000000000000a0e6e6c76088200a345531f589ed883203e35c8ad8413575bf961b1e8d6716829f632e72fe90947dfa46745c9ffdefdf7d3d755410f77a0e4b2fad0f184fa9312b559785fb04c6020432465799ebe2200000000000000000000000000000000141d878adfaa6a3982cd0de93b4d64ba840a07c026ca443d6d4c2b6c36cf882e109d80df63b1626c112f9a89809788080000000000000000000000000000000005a5888d22a2f654a58d9a03c68d59cde9ab5e5356b2288033ba58fe2dbacf533e59344bdf30eed07698261d6269fc70557b05efdd02ac9d8e1453c82a321d798f3106bd18764140faede610ae01fa80000000000000000000000000000000000afb5e198ea80997e7cace2d5b271e3907525b6383e9d45d8a7717317655a79bec3a48800149d6bbb11a838b1338079200000000000000000000000000000000060dee81112b7e0bde192c9d382b1eb695f3a1b0b9ef7ae33b1c5ef8ad9134c23b4f473103df15a97bd6de007b828fe63313884abc4d430c06ae843d263f2efc1bba35f6cc270de05551e1f86096bb75000000000000000000000000000000000a9327207fa94bdffaac0a8741955968ee2278dc0fd17e99c6f4717e8b0db2ce7915b1b028c81d48380cdef05ecd5a7e0000000000000000000000000000000006c24bd6aa5f9c41bd4551afaa6baf5bab1729b7012951fd0ddaf2c6dd03ddc2030d49dc92073540503718a44260fb028faea236e782a8fbe27ab15f051ed007a61e25247f1f259b9300974f521f30c800000000000000000000000000000000195d0a7f5a351dff02a805fa08b2a793d9e0c74ae95fbf2f42bfefae8aeb0deccadeb9a2dbad7285c015ce14724879ba000000000000000000000000000000000e177a86f6aebee8bad62d77703d1d34a1b708e84216437c02e0694fe722414f2ef2577c1d39a45b4cfe6c73f411b1b413994f5645c6ce83741e48ae472674921bb2d9b8abb7d04ddbbb85a3f2f7f090000000000000000000000000000000000bc7fbda14f76ed98e78eb84033b65f286527ef76ba56dae43a094a23067e10798065674daa14f912ee13dece4f36b17000000000000000000000000000000000f69104995530de05660aa048993c4e08576488deaa177520676c9cd53034ef101fa3911e40933975aa958efbb1b931f81eda24db328588e8c670ab70431ddeebb0749b431bc1bfbd992c91f35d59b180000000000000000000000000000000001c3bfedaa15025440c6cd32115555fbbec439a9a2fbf706ef21e06a534af3f43baf46897158e211ea8821a5e32f932e000000000000000000000000000000000fe08cc9ff0fc601e5609ca139ae0ebe58faf8d2e2f4f3d0a1231382a15ebdc8f67271b556cc24fc5408daf3c7f74f875bf25b5070829e3d5a66ad24ba9930f3ad64767c51e432b51bdbe2fab470688d00000000000000000000000000000000032c376b26551a064cace577ef53077cde48c284af5633152c89ee109e880b511c0b90db1b30d6d9700037489f6984af00000000000000000000000000000000059c013cde62f10f39175335b76adc5cf7330ffa75d770d908ac7e0fba6faa7b9453e8d0215f0589af872b2e648ec1d0a9535c082e11b366cda0000d8ed0f92ee30fd2c4364c163a718518321c5e85d20000000000000000000000000000000009cb943167f21d9399b184f0bc0c2aca58dcf8e702614ffaf5407644ffa9eda85efa12dd23e756c5ccb5bbb25abe57e9000000000000000000000000000000000d4f59115321181962452c6f3c1e086cbfbc155f2c3019e51e73fd193e9b11ec891b2dfbd95198b318e4513c62cd51bc2c4cb49adce0292e259e92b229bf7965864a945de86eda3ce0bc9f1a6dc8b7b2000000000000000000000000000000000637e1dae04d31282c2278e087eac9ba8506d3c1349c6b98485cf32805bcad002e37d55667f1cc8e5e11f35b4d228cba000000000000000000000000000000000778c3a40e79d6288d3a93580c8f8bef7591acfac2c734018d61aea5dac020360ad4c69b4422f7320b87ff22e30d9a6a5e927f57aa85b2df54b4bddaa041d43766c8929c8b9146d723806ee0cf04227500000000000000000000000000000000069a54448ac1c9ee754fc28c9b671e84a67e884492f8e84e09e49cbcbcaf07fffed42820b1de61cdd0bf6314a2f4a1e20000000000000000000000000000000008f5512a1a70d3a61ee7fd6750813a29c47410b7ddd62db0426b3caf9cd7c31029638499c2e27e5922810cb9bb130723606ee8a5fdd9890b8017f6c432a45517d65328f13f3a2bb42d7115c02929db7a00000000000000000000000000000000078356cf80bc64c0e03da2198da5971b01341024a620ef4a455291b7a694ac3d91fe6f19299d725cdf7506e0485485da0000000000000000000000000000000015af5f875422c1e3ec6bfc5e57ed793f368799c2e068669656294be0de25eb772aebbc61358b410fa9ef79c72f309c84c1a77ccb4b32a762d60b37827ad6c3448c33af6af861c131adb5920ba3c2b8510000000000000000000000000000000019699fb3c6af71eae16b8ee123870888d646ac71dd31d0bb3ca365f728a6687540851c8539dee5c34f16871ca244ac6b000000000000000000000000000000000e68a278bee81ea53d4a52e84c8f534a0fb8c065bbcad9f3727917402746b4d1f611ba5064f0c3cea6f4d7fe84948dfd47cde609c38eabf457cdbd1e0c5366bf523dd5801d66a0282bc187d80417f4551ba0271e9c5603ae895271b1806dd6e0fab070b6c5a22d5ea126b878d55b642804c8a043a71e070a07e23c149ecf9a6371036ed49c5298ab3ac2c649525714b86fe9c1c0c0",
                "transactions" : [
                    {
                        "data" : "0x12bd4299000000000000000000000000000000000000000000000000000000000000000d00000000000000000000000000000000000000000000000000000000000000400000000000000000000000000000000000000000000000000000000000000a0000000000000000000000000000000000023a2a3e6e1c1cc57b2295c664ac26abd0f5bbecc0ed8e9850f90b04484c0cf048a76477ddde84e90cc452429e28b78e00000000000000000000000000000000194aa1d8332fd8120ed518f27fd827e3c955c2cbb2cae8d5e677f55963565dfdd232c83a38826621e8e66565f8e200b39f2e54f21b7f2116c30d6e444ca82fe800435cbbd72a98a6d22bac92039c540700000000000000000000000000000000124adb0352af8f18a631cb0078ec7daf00c2186e04d3ee47882d557b0e9e7fda0e0d258393ded20288789085583a97dd00000000000000000000000000000000053f94d0889a5122b6dfb1da2d7f13a836b9be039f127a011991c360c941e5dab8cb3c7ff3d7e128e52dfeb776aeedafc8cecea241dd6a924c9b9cc3d390fbf40ab897208ce9d3e4a148b2c30c25e7eb0000000000000000000000000000000009dee1a168c00632903b93fcf330b28ec7dcb8d6fba65f369237ef873ecaddd60a2d1af6e5b087f07a103f096aeb5e600000000000000000000000000000000006f90048b72dc28cf4cb40585925e62275d44df95fcbf1206e2bc762a455dea5fc6b830420d49b2415d259f8d5ed3ab7e428fab2c596f23bc3c9e9855b74295f52caf73cb7371c93c65370583f7fef4c000000000000000000000000000000001750fc7241cee9d71d95f0023dbc4b1f41ce794e9e7822a29a84c93b9374ccf0f11f931795fb824bb5c9fdb4f9e7bd9c000000000000000000000000000000000a0e6e6c76088200a345531f589ed883203e35c8ad8413575bf961b1e8d6716829f632e72fe90947dfa46745c9ffdefdf7d3d755410f77a0e4b2fad0f184fa9312b559785fb04c6020432465799ebe2200000000000000000000000000000000141d878adfaa6a3982cd0de93b4d64ba840a07c026ca443d6d4c2b6c36cf882e109d80df63b1626c112f9a89809788080000000000000000000000000000000005a5888d22a2f654a58d9a03c68d59cde9ab5e5356b2288033ba58fe2dbacf533e59344bdf30eed07698261d6269fc70557b05efdd02ac9d8e1453c82a321d798f3106bd18764140faede610ae01fa80000000000000000000000000000000000afb5e198ea80997e7cace2d5b271e3907525b6383e9d45d8a7717317655a79bec3a48800149d6bbb11a838b1338079200000000000000000000000000000000060dee81112b7e0bde192c9d382b1eb695f3a1b0b9ef7ae33b1c5ef8ad9134c23b4f473103df15a97bd6de007b828fe63313884abc4d430c06ae843d263f2efc1bba35f6cc270de05551e1f86096bb75000000000000000000000000000000000a9327207fa94bdffaac0a8741955968ee2278dc0fd17e99c6f4717e8b0db2ce7915b1b028c81d48380cdef05ecd5a7e0000000000000000000000000000000006c24bd6aa5f9c41bd4551afaa6baf5bab1729b7012951fd0ddaf2c6dd03ddc2030d49dc92073540503718a44260fb028faea236e782a8fbe27ab15f051ed007a61e25247f1f259b9300974f521f30c800000000000000000000000000000000195d0a7f5a351dff02a805fa08b2a793d9e0c74ae95fbf2f42bfefae8aeb0deccadeb9a2dbad7285c015ce14724879ba000000000000000000000000000000000e177a86f6aebee8bad62d77703d1d34a1b708e84216437c02e0694fe722414f2ef2577c1d39a45b4cfe6c73f411b1b413994f5645c6ce83741e48ae472674921bb2d9b8abb7d04ddbbb85a3f2f7f090000000000000000000000000000000000bc7fbda14f76ed98e78eb84033b65f286527ef76ba56dae43a094a23067e10798065674daa14f912ee13dece4f36b17000000000000000000000000000000000f69104995530de05660aa048993c4e08576488deaa177520676c9cd53034ef101fa3911e40933975aa958efbb1b931f81eda24db328588e8c670ab70431ddeebb0749b431bc1bfbd992c91f35d59b180000000000000000000000000000000001c3bfedaa15025440c6cd32115555fbbec439a9a2fbf706ef21e06a534af3f43baf46897158e211ea8821a5e32f932e000000000000000000000000000000000fe08cc9ff0fc601e5609ca139ae0ebe58faf8d2e2f4f3d0a1231382a15ebdc8f67271b556cc24fc5408daf3c7f74f875bf25b5070829e3d5a66ad24ba9930f3ad64767c51e432b51bdbe2fab470688d00000000000000000000000000000000032c376b26551a064cace577ef53077cde48c284af5633152c89ee109e880b511c0b90db1b30d6d9700037489f6984af00000000000000000000000000000000059c013cde62f10f39175335b76adc5cf7330ffa75d770d908ac7e0fba6faa7b9453e8d0215f0589af872b2e648ec1d0a9535c082e11b366cda0000d8ed0f92ee30fd2c4364c163a718518321c5e85d20000000000000000000000000000000009cb943167f21d9399b184f0bc0c2aca58dcf8e702614ffaf5407644ffa9eda85efa12dd23e756c5ccb5bbb25abe57e9000000000000000000000000000000000d4f59115321181962452c6f3c1e086cbfbc155f2c3019e51e73fd193e9b11ec891b2dfbd95198b318e4513c62cd51bc2c4cb49adce0292e259e92b229bf7965864a945de86eda3ce0bc9f1a6dc8b7b2000000000000000000000000000000000637e1dae04d31282c2278e087eac9ba8506d3c1349c6b98485cf32805bcad002e37d55667f1cc8e5e11f35b4d228cba000000000000000000000000000000000778c3a40e79d6288d3a93580c8f8bef7591acfac2c734018d61aea5dac020360ad4c69b4422f7320b87ff22e30d9a6a5e927f57aa85b2df54b4bddaa041d43766c8929c8b9146d723806ee0cf04227500000000000000000000000000000000069a54448ac1c9ee754fc28c9b671e84a67e884492f8e84e09e49cbcbcaf07fffed42820b1de61cdd0bf6314a2f4a1e20000000000000000000000000000000008f5512a1a70d3a61ee7fd6750813a29c47410b7ddd62db0426b3caf9cd7c31029638499c2e27e5922810cb9bb130723606ee8a5fdd9890b8017f6c432a45517d65328f13f3a2bb42d7115c02929db7a00000000000000000000000000000000078356cf80bc64c0e03da2198da5971b01341024a620ef4a455291b7a694ac3d91fe6f19299d725cdf7506e0485485da0000000000000000000000000000000015af5f875422c1e3ec6bfc5e57ed793f368799c2e068669656294be0de25eb772aebbc61358b410fa9ef79c72f309c84c1a77ccb4b32a762d60b37827ad6c3448c33af6af861c131adb5920ba3c2b8510000000000000000000000000000000019699fb3c6af71eae16b8ee123870888d646ac71dd31d0bb3ca365f728a6687540851c8539dee5c34f16871ca244ac6b000000000000000000000000000000000e68a278bee81ea53d4a52e84c8f534a0fb8c065bbcad9f3727917402746b4d1f611ba5064f0c3cea6f4d7fe84948dfd47cde609c38eabf457cdbd1e0c5366bf523dd5801d66a0282bc187d80417f455",
                        "gasLimit" : "0x6acfc0",
                        "gasPrice" : "0x0a",
                        "nonce" : "0x00",
                        "r" : "0x271e9c5603ae895271b1806dd6e0fab070b6c5a22d5ea126b878d55b642804c8",
                        "s" : "0x43a71e070a07e23c149ecf9a6371036ed49c5298ab3ac2c649525714b86fe9c1",
                        "sender" : "0xa94f5374fce5edbc8e2a8697c15331677e6ebf0b",
                        "to" : "0x095e7baea6a6c7c4c2dfeb977efac326af552d87",
                        "v" : "0x1b",
                        "value" : "0x03e8"
                    }
                ],
                "uncleHeaders" : [
                ],
                "withdrawals" : [
                ]
            }
        ],
        "genesisBlockHeader" : {
            "baseFeePerGas" : "0x0b",
            "blobGasUsed" : "0x00",
            "bloom" : "0x00000000000000000000000000000000000000000000000000000000000000000000000000000000000000000000000000000000000000000000000000000000000000000000000000000000000000000000000000000000000000000000000000000000000000000000000000000000000000000000000000000000000000000000000000000000000000000000000000000000000000000000000000000000000000000000000000000000000000000000000000000000000000000000000000000000000000000000000000000000000000000000000000000000000000000000000000000000000000000000000000000000000000000000000000000000",
            "coinbase" : "0x2adc25665018aa1fe0e6bc666dac8fc2697ff9ba",
            "difficulty" : "0x00",
            "excessBlobGas" : "0x060000",
            "extraData" : "0x00",
            "gasLimit" : "0xff112233445566",
            "gasUsed" : "0x00",
            "hash" : "0xc9cb4ed0dc693e89844b5a27d709ebd577e6a8380102855ef905d3d2d81ac0e5",
            "mixHash" : "0x0000000000000000000000000000000000000000000000000000000000020000",
            "nonce" : "0x0000000000000000",
            "number" : "0x00",
            "parentBeaconBlockRoot" : "0x0000000000000000000000000000000000000000000000000000000000000000",
            "parentHash" : "0x0000000000000000000000000000000000000000000000000000000000000000",
            "receiptTrie" : "0x56e81f171bcc55a6ff8345e692c0f86e5b48e01b996cadc001622fb5e363b421",
            "stateRoot" : "0x00059c610e858a345663eede1b974d037c154e4b4bb16a01ea2fd48a4d67bf65",
            "timestamp" : "0x00",
            "transactionsTrie" : "0x56e81f171bcc55a6ff8345e692c0f86e5b48e01b996cadc001622fb5e363b421",
            "uncleHash" : "0x1dcc4de8dec75d7aab85b567b6ccd41ad312451b948a7413f0a142fd40d49347",
            "withdrawalsRoot" : "0x56e81f171bcc55a6ff8345e692c0f86e5b48e01b996cadc001622fb5e363b421"
        },
        "genesisRLP" : "0xf90242f9023ca00000000000000000000000000000000000000000000000000000000000000000a01dcc4de8dec75d7aab85b567b6ccd41ad312451b948a7413f0a142fd40d49347942adc25665018aa1fe0e6bc666dac8fc2697ff9baa000059c610e858a345663eede1b974d037c154e4b4bb16a01ea2fd48a4d67bf65a056e81f171bcc55a6ff8345e692c0f86e5b48e01b996cadc001622fb5e363b421a056e81f171bcc55a6ff8345e692c0f86e5b48e01b996cadc001622fb5e363b421b9010000000000000000000000000000000000000000000000000000000000000000000000000000000000000000000000000000000000000000000000000000000000000000000000000000000000000000000000000000000000000000000000000000000000000000000000000000000000000000000000000000000000000000000000000000000000000000000000000000000000000000000000000000000000000000000000000000000000000000000000000000000000000000000000000000000000000000000000000000000000000000000000000000000000000000000000000000000000000000000000000000000000000000000000000000000000808087ff112233445566808000a000000000000000000000000000000000000000000000000000000000000200008800000000000000000ba056e81f171bcc55a6ff8345e692c0f86e5b48e01b996cadc001622fb5e363b4218083060000a00000000000000000000000000000000000000000000000000000000000000000c0c0c0",
        "lastblockhash" : "0x9615181cca3fefe24bcebc39caa3816f07c9c0c75f785d27ee999158ee6dfe79",
        "network" : "Prague",
        "postState" : {
            "0x000f3df6d732807ef1319fb7b8bb8522d0beac02" : {
                "balance" : "0x00",
                "code" : "0x3373fffffffffffffffffffffffffffffffffffffffe14604d57602036146024575f5ffd5b5f35801560495762001fff810690815414603c575f5ffd5b62001fff01545f5260205ff35b5f5ffd5b62001fff42064281555f359062001fff015500",
                "nonce" : "0x01",
                "storage" : {
                    "0x03e8" : "0x03e8"
                }
            },
            "0x095e7baea6a6c7c4c2dfeb977efac326af552d87" : {
                "balance" : "0x03e8",
                "code" : "0x60806040526004361061001e5760003560e01c806312bd429914610023575b600080fd5b6100fc6004803603604081101561003957600080fd5b81019080803573ffffffffffffffffffffffffffffffffffffffff1690602001909291908035906020019064010000000081111561007657600080fd5b82018360208201111561008857600080fd5b803590602001918460018302840111640100000000831117156100aa57600080fd5b91908080601f016020809104026020016040519081016040528093929190818152602001838380828437600081840152601f19601f820116905080830192505050505050509192919290505050610182565b604051808315151515815260200180602001828103825283818151815260200191508051906020019080838360005b8381101561014657808201518184015260208101905061012b565b50505050905090810190601f1680156101735780820380516001836020036101000a031916815260200191505b50935050505060405180910390f35b600060608373ffffffffffffffffffffffffffffffffffffffff16836040518082805190602001908083835b602083106101d157805182526020820191506020810190506020830392506101ae565b6001836020036101000a038019825116818451168082178552505050505050905001915050600060405180830381855afa9150503d8060008114610231576040519150601f19603f3d011682016040523d82523d6000602084013e610236565b606091505b508092508193505050600060405180807f6572726f72000000000000000000000000000000000000000000000000000000815250600501905060405180910390209050821561028a57818051906020012090505b8060025582829250925050925092905056fea2646970667358221220db58d80e8530eed625d9b4250a6055c2eb1d7c117a7ca267e6f8a059bdd2f39e64736f6c634300060a0033",
                "nonce" : "0x01",
                "storage" : {
                    "0x02" : "0x4d44c35ede4693b61ba41e6b4117481e868dc0a8cc3accf3583a1c32d2cfff97"
                }
            },
            "0xa94f5374fce5edbc8e2a8697c15331677e6ebf0b" : {
                "balance" : "0x0de0b6b3a74cca70",
                "code" : "0x",
                "nonce" : "0x01",
                "storage" : {
                }
            }
        },
        "pre" : {
            "0x000f3df6d732807ef1319fb7b8bb8522d0beac02" : {
                "balance" : "0x00",
                "code" : "0x3373fffffffffffffffffffffffffffffffffffffffe14604d57602036146024575f5ffd5b5f35801560495762001fff810690815414603c575f5ffd5b62001fff01545f5260205ff35b5f5ffd5b62001fff42064281555f359062001fff015500",
                "nonce" : "0x01",
                "storage" : {
                }
            },
            "0x095e7baea6a6c7c4c2dfeb977efac326af552d87" : {
                "balance" : "0x00",
                "code" : "0x60806040526004361061001e5760003560e01c806312bd429914610023575b600080fd5b6100fc6004803603604081101561003957600080fd5b81019080803573ffffffffffffffffffffffffffffffffffffffff1690602001909291908035906020019064010000000081111561007657600080fd5b82018360208201111561008857600080fd5b803590602001918460018302840111640100000000831117156100aa57600080fd5b91908080601f016020809104026020016040519081016040528093929190818152602001838380828437600081840152601f19601f820116905080830192505050505050509192919290505050610182565b604051808315151515815260200180602001828103825283818151815260200191508051906020019080838360005b8381101561014657808201518184015260208101905061012b565b50505050905090810190601f1680156101735780820380516001836020036101000a031916815260200191505b50935050505060405180910390f35b600060608373ffffffffffffffffffffffffffffffffffffffff16836040518082805190602001908083835b602083106101d157805182526020820191506020810190506020830392506101ae565b6001836020036101000a038019825116818451168082178552505050505050905001915050600060405180830381855afa9150503d8060008114610231576040519150601f19603f3d011682016040523d82523d6000602084013e610236565b606091505b508092508193505050600060405180807f6572726f72000000000000000000000000000000000000000000000000000000815250600501905060405180910390209050821561028a57818051906020012090505b8060025582829250925050925092905056fea2646970667358221220db58d80e8530eed625d9b4250a6055c2eb1d7c117a7ca267e6f8a059bdd2f39e64736f6c634300060a0033",
                "nonce" : "0x01",
                "storage" : {
                }
            },
            "0xa94f5374fce5edbc8e2a8697c15331677e6ebf0b" : {
                "balance" : "0x0de0b6b3a7640000",
                "code" : "0x",
                "nonce" : "0x00",
                "storage" : {
                }
            }
        },
        "sealEngine" : "NoProof"
    }
}