{
    "g1_mul_47_d0g0v0_Berlin" : {
        "_info" : {
            "comment" : "A test for g1_mul_47",
            "filling-rpc-server" : "evm version 1.9.23-unstable-0efc69a9-20201022",
            "filling-tool-version" : "retesteth-0.0.9-berlin+commit.2f30f0ea.Linux.g++",
            "lllcversion" : "Version: 0.5.14-develop.2020.6.22+commit.9189ad7a.Linux.g++",
            "source" : "src/GeneralStateTestsFiller/stEIP2537/g1_mul_47Filler.json",
            "sourceHash" : "65eea4fa03267d6af6013d166c19907441f068a70f166c4ee59bc23d85e9f06a"
        },
        "genesisBlockHeader" : {
            "bloom" : "0x00000000000000000000000000000000000000000000000000000000000000000000000000000000000000000000000000000000000000000000000000000000000000000000000000000000000000000000000000000000000000000000000000000000000000000000000000000000000000000000000000000000000000000000000000000000000000000000000000000000000000000000000000000000000000000000000000000000000000000000000000000000000000000000000000000000000000000000000000000000000000000000000000000000000000000000000000000000000000000000000000000000000000000000000000000000",
            "coinbase" : "0x2adc25665018aa1fe0e6bc666dac8fc2697ff9ba",
            "difficulty" : "0x020000",
            "extraData" : "0x00",
            "gasLimit" : "0xff112233445566",
            "gasUsed" : "0x00",
            "hash" : "0xf227282805f439ca053613f53f119422bda960eea236c4b013eca3b95c6be464",
            "mixHash" : "0x0000000000000000000000000000000000000000000000000000000000000000",
            "nonce" : "0x0000000000000000",
            "number" : "0x00",
            "parentHash" : "0x0000000000000000000000000000000000000000000000000000000000000000",
            "receiptTrie" : "0x56e81f171bcc55a6ff8345e692c0f86e5b48e01b996cadc001622fb5e363b421",
            "stateRoot" : "0xbf61e00e2f1fbb3ea831c4ff3bbeff62f2737e7f0d88945ba62e0722eab6cd68",
            "timestamp" : "0x00",
            "transactionsTrie" : "0x56e81f171bcc55a6ff8345e692c0f86e5b48e01b996cadc001622fb5e363b421",
            "uncleHash" : "0x1dcc4de8dec75d7aab85b567b6ccd41ad312451b948a7413f0a142fd40d49347"
        },
        "pre" : {
            "0x095e7baea6a6c7c4c2dfeb977efac326af552d87" : {
                "balance" : "0x00",
                "code" : "0x60806040526004361061001e5760003560e01c806312bd429914610023575b600080fd5b6100fc6004803603604081101561003957600080fd5b81019080803573ffffffffffffffffffffffffffffffffffffffff1690602001909291908035906020019064010000000081111561007657600080fd5b82018360208201111561008857600080fd5b803590602001918460018302840111640100000000831117156100aa57600080fd5b91908080601f016020809104026020016040519081016040528093929190818152602001838380828437600081840152601f19601f820116905080830192505050505050509192919290505050610182565b604051808315151515815260200180602001828103825283818151815260200191508051906020019080838360005b8381101561014657808201518184015260208101905061012b565b50505050905090810190601f1680156101735780820380516001836020036101000a031916815260200191505b50935050505060405180910390f35b600060608373ffffffffffffffffffffffffffffffffffffffff16836040518082805190602001908083835b602083106101d157805182526020820191506020810190506020830392506101ae565b6001836020036101000a038019825116818451168082178552505050505050905001915050600060405180830381855afa9150503d8060008114610231576040519150601f19603f3d011682016040523d82523d6000602084013e610236565b606091505b508092508193505050600060405180807f6572726f72000000000000000000000000000000000000000000000000000000815250600501905060405180910390209050821561028a57818051906020012090505b8060025582829250925050925092905056fea2646970667358221220db58d80e8530eed625d9b4250a6055c2eb1d7c117a7ca267e6f8a059bdd2f39e64736f6c634300060a0033",
                "nonce" : "0x01",
                "storage" : {
                }
            },
            "0xa94f5374fce5edbc8e2a8697c15331677e6ebf0b" : {
                "balance" : "0x0de0b6b3a7640000",
                "code" : "0x",
                "nonce" : "0x00",
                "storage" : {
                }
            }
        },
        "postState" : {
            "0x095e7baea6a6c7c4c2dfeb977efac326af552d87" : {
                "code" : "0x60806040526004361061001e5760003560e01c806312bd429914610023575b600080fd5b6100fc6004803603604081101561003957600080fd5b81019080803573ffffffffffffffffffffffffffffffffffffffff1690602001909291908035906020019064010000000081111561007657600080fd5b82018360208201111561008857600080fd5b803590602001918460018302840111640100000000831117156100aa57600080fd5b91908080601f016020809104026020016040519081016040528093929190818152602001838380828437600081840152601f19601f820116905080830192505050505050509192919290505050610182565b604051808315151515815260200180602001828103825283818151815260200191508051906020019080838360005b8381101561014657808201518184015260208101905061012b565b50505050905090810190601f1680156101735780820380516001836020036101000a031916815260200191505b50935050505060405180910390f35b600060608373ffffffffffffffffffffffffffffffffffffffff16836040518082805190602001908083835b602083106101d157805182526020820191506020810190506020830392506101ae565b6001836020036101000a038019825116818451168082178552505050505050905001915050600060405180830381855afa9150503d8060008114610231576040519150601f19603f3d011682016040523d82523d6000602084013e610236565b606091505b508092508193505050600060405180807f6572726f72000000000000000000000000000000000000000000000000000000815250600501905060405180910390209050821561028a57818051906020012090505b8060025582829250925050925092905056fea2646970667358221220db58d80e8530eed625d9b4250a6055c2eb1d7c117a7ca267e6f8a059bdd2f39e64736f6c634300060a0033",
                "nonce" : "0x01",
                "balance" : "0x03e8",
                "storage" : {
                    "0x02" : "0xea52b218577168e8a22334d50634fef1db4ddcec1777ee2cf7a2fe119dc1431e"
                }
            },
            "0x2adc25665018aa1fe0e6bc666dac8fc2697ff9ba" : {
                "code" : "0x",
                "nonce" : "0x00",
                "balance" : "0x1bc16d674ec8ea9a",
                "storage" : {
                }
            },
            "0xa94f5374fce5edbc8e2a8697c15331677e6ebf0b" : {
                "code" : "0x",
                "nonce" : "0x01",
                "balance" : "0x0de0b6b3a763117e",
                "storage" : {
                }
            }
        },
        "network" : "Berlin",
        "sealEngine" : "NoProof",
        "lastblockhash" : "0xfb44284206e5dbac5053f972035d834d7bf6d356fa092362e1d47add51795bb6",
        "genesisRLP" : "0xf901fcf901f7a00000000000000000000000000000000000000000000000000000000000000000a01dcc4de8dec75d7aab85b567b6ccd41ad312451b948a7413f0a142fd40d49347942adc25665018aa1fe0e6bc666dac8fc2697ff9baa0bf61e00e2f1fbb3ea831c4ff3bbeff62f2737e7f0d88945ba62e0722eab6cd68a056e81f171bcc55a6ff8345e692c0f86e5b48e01b996cadc001622fb5e363b421a056e81f171bcc55a6ff8345e692c0f86e5b48e01b996cadc001622fb5e363b421b9010000000000000000000000000000000000000000000000000000000000000000000000000000000000000000000000000000000000000000000000000000000000000000000000000000000000000000000000000000000000000000000000000000000000000000000000000000000000000000000000000000000000000000000000000000000000000000000000000000000000000000000000000000000000000000000000000000000000000000000000000000000000000000000000000000000000000000000000000000000000000000000000000000000000000000000000000000000000000000000000000000000000000000000000000000000000830200008087ff112233445566808000a00000000000000000000000000000000000000000000000000000000000000000880000000000000000c0c0",
        "blocks" : [
            {
                "rlp" : "0xf9036df901fba0f227282805f439ca053613f53f119422bda960eea236c4b013eca3b95c6be464a01dcc4de8dec75d7aab85b567b6ccd41ad312451b948a7413f0a142fd40d49347942adc25665018aa1fe0e6bc666dac8fc2697ff9baa065b24de95ad22c3616d65a52137aa921388d5e63fa446593ade78014d05c57aaa07b50f43914935e9cefe686dc8fa6befdb8ebf2848688e7c5d0a56b0d40688fffa070a20824d403ff3c5601f460428636f8c3981cfacdb34ef14ce8445867279759b9010000000000000000000000000000000000000000000000000000000000000000000000000000000000000000000000000000000000000000000000000000000000000000000000000000000000000000000000000000000000000000000000000000000000000000000000000000000000000000000000000000000000000000000000000000000000000000000000000000000000000000000000000000000000000000000000000000000000000000000000000000000000000000000000000000000000000000000000000000000000000000000000000000000000000000000000000000000000000000000000000000000000000000000000000000000000830200000187ff11223344556682ea9a8203e800a00000000000000000000000000000000000000000000000000000000000000000880000000000000000f9016bf901688001836acfc094095e7baea6a6c7c4c2dfeb977efac326af552d878203e8b9010412bd4299000000000000000000000000000000000000000000000000000000000000000b000000000000000000000000000000000000000000000000000000000000004000000000000000000000000000000000000000000000000000000000000000a00000000000000000000000000000000001ea88d0f329135df49893406b4f9aee0abfd74b62e7eb5576d3ddb329fc4b1649b7c228ec39c6577a069c0811c952f100000000000000000000000000000000033f481fc62ab0a249561d180da39ff641a540c9c109cde41946a0e85d18c9d60b41dbcdec370c5c9f22a9ee9de00ccd807c5a41ae2baa1e10ebee15363d1d4569f731d77a418998108f5dfae0e905561ca0d09689c22d3fb7fc10c224cc5ebe6c724136a7cd2e1972131c3a0051f5846cd1a00963fae5ed8545de4ad2b3a54e0bf52d840d7bbd29c95ce75d39103b824d69c7c0",
                "blockHeader" : {
                    "bloom" : "0x00000000000000000000000000000000000000000000000000000000000000000000000000000000000000000000000000000000000000000000000000000000000000000000000000000000000000000000000000000000000000000000000000000000000000000000000000000000000000000000000000000000000000000000000000000000000000000000000000000000000000000000000000000000000000000000000000000000000000000000000000000000000000000000000000000000000000000000000000000000000000000000000000000000000000000000000000000000000000000000000000000000000000000000000000000000",
                    "coinbase" : "0x2adc25665018aa1fe0e6bc666dac8fc2697ff9ba",
                    "difficulty" : "0x020000",
                    "extraData" : "0x00",
                    "gasLimit" : "0xff112233445566",
                    "gasUsed" : "0xea9a",
                    "hash" : "0xfb44284206e5dbac5053f972035d834d7bf6d356fa092362e1d47add51795bb6",
                    "mixHash" : "0x0000000000000000000000000000000000000000000000000000000000000000",
                    "nonce" : "0x0000000000000000",
                    "number" : "0x01",
                    "parentHash" : "0xf227282805f439ca053613f53f119422bda960eea236c4b013eca3b95c6be464",
                    "receiptTrie" : "0x70a20824d403ff3c5601f460428636f8c3981cfacdb34ef14ce8445867279759",
                    "stateRoot" : "0x65b24de95ad22c3616d65a52137aa921388d5e63fa446593ade78014d05c57aa",
                    "timestamp" : "0x03e8",
                    "transactionsTrie" : "0x7b50f43914935e9cefe686dc8fa6befdb8ebf2848688e7c5d0a56b0d40688fff",
                    "uncleHash" : "0x1dcc4de8dec75d7aab85b567b6ccd41ad312451b948a7413f0a142fd40d49347"
                },
                "transactions" : [
                    {
                        "data" : "0x12bd4299000000000000000000000000000000000000000000000000000000000000000b000000000000000000000000000000000000000000000000000000000000004000000000000000000000000000000000000000000000000000000000000000a00000000000000000000000000000000001ea88d0f329135df49893406b4f9aee0abfd74b62e7eb5576d3ddb329fc4b1649b7c228ec39c6577a069c0811c952f100000000000000000000000000000000033f481fc62ab0a249561d180da39ff641a540c9c109cde41946a0e85d18c9d60b41dbcdec370c5c9f22a9ee9de00ccd807c5a41ae2baa1e10ebee15363d1d4569f731d77a418998108f5dfae0e90556",
                        "gasLimit" : "0x6acfc0",
                        "gasPrice" : "0x01",
                        "nonce" : "0x00",
                        "to" : "0x095e7baea6a6c7c4c2dfeb977efac326af552d87",
                        "value" : "0x03e8",
                        "v" : "0x1c",
                        "r" : "0xd09689c22d3fb7fc10c224cc5ebe6c724136a7cd2e1972131c3a0051f5846cd1",
                        "s" : "0x0963fae5ed8545de4ad2b3a54e0bf52d840d7bbd29c95ce75d39103b824d69c7"
                    }
                ],
                "uncleHeaders" : [
                ]
            }
        ]
    }
}