{
    "g1_multiexp_97_d0g0v0_Prague" : {
        "_info" : {
            "comment" : "A test for g1_multiexp_97",
            "filling-rpc-server" : "evm version 1.14.0-unstable-a208e725-20240416",
            "filling-tool-version" : "retesteth-0.3.2-cancun+commit.353b2b37.Linux.g++",
            "generatedTestHash" : "1c1cf00fae3c51b6c67e5b3ae355a633a23425933affb66772a60969154ddf24",
            "lllcversion" : "Version: 0.5.14-develop.2023.7.11+commit.c58ab2c6.mod.Linux.g++",
            "solidity" : "Version: 0.8.21+commit.d9974bed.Linux.g++",
            "source" : "src/EIPTestsFiller/StateTests/stEIP2537/g1_multiexp_97Filler.json",
            "sourceHash" : "62871e334d7b04d2092ad9cc8c02dee0c8faf2dc9cd5e0c70ac92a053235d106"
        },
        "blocks" : [
            {
                "blockHeader" : {
                    "baseFeePerGas" : "0x0a",
                    "blobGasUsed" : "0x00",
                    "bloom" : "0x00000000000000000000000000000000000000000000000000000000000000000000000000000000000000000000000000000000000000000000000000000000000000000000000000000000000000000000000000000000000000000000000000000000000000000000000000000000000000000000000000000000000000000000000000000000000000000000000000000000000000000000000000000000000000000000000000000000000000000000000000000000000000000000000000000000000000000000000000000000000000000000000000000000000000000000000000000000000000000000000000000000000000000000000000000000",
                    "coinbase" : "0x2adc25665018aa1fe0e6bc666dac8fc2697ff9ba",
                    "difficulty" : "0x00",
                    "excessBlobGas" : "0x00",
                    "extraData" : "0x00",
                    "gasLimit" : "0xff112233445566",
                    "gasUsed" : "0x025218",
                    "hash" : "0x86c49512dd1f61eab3dc0b612cca21b03eaafaac8e076ca4d6931756e88a653d",
                    "mixHash" : "0x0000000000000000000000000000000000000000000000000000000000020000",
                    "nonce" : "0x0000000000000000",
                    "number" : "0x01",
                    "parentBeaconBlockRoot" : "0x0000000000000000000000000000000000000000000000000000000000000000",
                    "parentHash" : "0xc9cb4ed0dc693e89844b5a27d709ebd577e6a8380102855ef905d3d2d81ac0e5",
                    "receiptTrie" : "0x9996d3f7118897432fab07044845a4a2427aa116bcf18130794dcfb4d12e3638",
                    "stateRoot" : "0x56adb624c6f7566b71d900a1b3fcd6068b8faac659f9a918b8b0e28a65b7618e",
                    "timestamp" : "0x03e8",
                    "transactionsTrie" : "0x80d62eb1ec115aedc0a5778a500308ffb5c3402fd62bdb1b7a42805c930831eb",
                    "uncleHash" : "0x1dcc4de8dec75d7aab85b567b6ccd41ad312451b948a7413f0a142fd40d49347",
                    "withdrawalsRoot" : "0x56e81f171bcc55a6ff8345e692c0f86e5b48e01b996cadc001622fb5e363b421"
                },
                "rlp" : "0xf90d11f9023ea0c9cb4ed0dc693e89844b5a27d709ebd577e6a8380102855ef905d3d2d81ac0e5a01dcc4de8dec75d7aab85b567b6ccd41ad312451b948a7413f0a142fd40d49347942adc25665018aa1fe0e6bc666dac8fc2697ff9baa056adb624c6f7566b71d900a1b3fcd6068b8faac659f9a918b8b0e28a65b7618ea080d62eb1ec115aedc0a5778a500308ffb5c3402fd62bdb1b7a42805c930831eba09996d3f7118897432fab07044845a4a2427aa116bcf18130794dcfb4d12e3638b9010000000000000000000000000000000000000000000000000000000000000000000000000000000000000000000000000000000000000000000000000000000000000000000000000000000000000000000000000000000000000000000000000000000000000000000000000000000000000000000000000000000000000000000000000000000000000000000000000000000000000000000000000000000000000000000000000000000000000000000000000000000000000000000000000000000000000000000000000000000000000000000000000000000000000000000000000000000000000000000000000000000000000000000000000000000000800187ff112233445566830252188203e800a000000000000000000000000000000000000000000000000000000000000200008800000000000000000aa056e81f171bcc55a6ff8345e692c0f86e5b48e01b996cadc001622fb5e363b4218080a00000000000000000000000000000000000000000000000000000000000000000f90acbf90ac8800a836acfc094095e7baea6a6c7c4c2dfeb977efac326af552d878203e8b90a6412bd4299000000000000000000000000000000000000000000000000000000000000000d00000000000000000000000000000000000000000000000000000000000000400000000000000000000000000000000000000000000000000000000000000a000000000000000000000000000000000008d9cb39df5b28781d33d996039da8c94cd810bb85aa5868008b4267ad2a8670924d4b3ad7898b33689aab2211bb9bdc00000000000000000000000000000000007a8a6f888722e4717acbfc42ef1907206db31603c403e0a8c1ac0af9b37e63124d4645a506265487e5f9eda09c8baf85431a1df7678e49ee049b75ea968ca255ef456dd58cce57b64edffac1ac223c000000000000000000000000000000000db6af04eccb3ceedc11378406a26613aebbbc2201a9ea2089848c7af3b34e46a3421d5704242c4b333f72180f6baa0200000000000000000000000000000000105f40c8b702f0989a9e20f72ff6a4f7310d81787e87638c33a61985f02116e106218d64976d50bcc61cf5bcbbff7c9eb6ccbc0b600f11f1b89061d94c6fbdc9b1d389244fb29a5d140dab8842d44eaa000000000000000000000000000000000a77e39abdc9d64d72ea4b321e3310a145feaa5d342bc1a5b16c0143dd01caeda4f18909acccb3cb5b43ad999a94f91b0000000000000000000000000000000016fc4a4f6b488fd1f45a158d941d7aeb5d431821589ee845c64eb198ff10931d586f8a0678237be2a394f5976d895bc854dfe31190469897c30ac3736ab166220dd3702df5bc897835347713d03a8d04000000000000000000000000000000000d0ddfc05bc9f89eed488752d64698bf00633c83cc37931d95a599d6be6e4c5d611a4151839133e86f74bb91aed1703b000000000000000000000000000000000be3dbea501c822730ab0176f64903931aa46b0179c59556ee7e1ba54605ed8da2eafed7eb2254a7ddc34e553a9b6d59eff1ceff9e5184dd9fea44da4f07529823dc9b100f776cef6f6881120f7de11a0000000000000000000000000000000004d6f288744016f15b21da736283af2ed1f45df12067a3a70391f66fff3ce3953a51169eba6288cabd84ffe7f597c9fc000000000000000000000000000000000f6556a63def531a940269b073ea98be79558d832123dd681bb4446d4c11e2fed59a2f97904797abb07ba53e0d48e923b273e4c6266c1f5cf022902fe1310d2191af91c47995486342bc61cd361eab850000000000000000000000000000000013e692a13e79c734f3758780fbdabff86fe5936bf6c60f2f155ec4d1c49cdefb97dc02c1f1e4280c5ebb055914d93f9d00000000000000000000000000000000060898a9365ae49697e5ac23e320261eda04d818c5f1153f647844b1910bb3430d3c06df9a64af8ff9dd25c18cbfa79d1342b5cd4ad3179f406941ef6ea15d0aecdf9f6d96dc334c39b7dca89d256d4f000000000000000000000000000000000a2a4d92ad63dade4d666ea949dd64d5886eaa3c7ce466677356ce9f65520591c1aab590b48e9fe1eaa0f0f3e306cefc0000000000000000000000000000000002a2bfc836409b33bbe078a5f89c5142411bde621e9117ddf9f81f37bd546c3e2ba94975ab4652fa0858d5a2361592715b36620f65ed84fc0bb344b4b73f4eba4b1680a47b28b47f6d10f9ee8239812500000000000000000000000000000000075d3ebb18437feb21f94ad5e2ce96cbaea2f6d68885483ed54ee67f2dbcf8cfa39f405afb46e45d08cb804a7aee3b8e000000000000000000000000000000000d42851366ed4694730b7c58450c3f9ebd365f15fa4dfa3fd226d180aaa921a0d897278506ede76b85decddc9580a365249ca9bcf879a770b0a054422a6ea97ae795118ae45532c1523c842696de6d17000000000000000000000000000000001722e05d33728260ebf5e4b48104cb2c89b4bc3073767e56fda373bc0e29261c9a5c53e5768b453b116494c1109cba2000000000000000000000000000000000030e4da8620007236b89103b215e54751ba2f2dce19b0304997f450791880ad34f3e43cc4e6852aa599fd65ef72dd9a5c014a0aa616e809b674390b4553bf2d9bf325e73d3a935eba94488dddee4e895000000000000000000000000000000000c4e7e44e8e0387bd99311343d2ff3a080ddad557c8639aad64c4f6e47d64f48b91f9de2e33b4b9c182a87efce5d4e0e000000000000000000000000000000000e7cb49fd7aca3daef3c0329c950c832e1d007f21a4f950f367eb37b5d7433f5d6f1ab1c206232b2ee32137b56b53967ab722a1c20f068b6955a44073914c418a082345796912ca634e79983a24ec4bb0000000000000000000000000000000014026b8dae20a1913ecb45359e9ceb317137244e16a036ac760b47363f2d389ef6cb12cd5f5fb9e8e31ccd39bf114f8b000000000000000000000000000000000f07f9e76789dd937b85e02a9c346f81e87637bd03bd5f98a9b18ad6d109100b540aaadf1fec048530bcfa35dbb5b8ae8b314f83cc3ad501caa44b4c3ca8cf68c70ff6920f445d3a7ada212b6a19ba3e000000000000000000000000000000000a0249c354052094cae5a3d77313360a8956839af614184696b5b7fbd2af6555c6ae14a150220f01d624484b9096eaa700000000000000000000000000000000043098df38ab37f42175cc9f9fa9ecbde75bb344776ed078632b3d8bbfbf04103adde27ef0d361177bb3814cbb8bc54994ffab83099c69845cc87727d459ae300a5725ec53176424ab0ec8bd3f80eaff0000000000000000000000000000000011e90effb7ae193b47afffe6fcaa0a28c358222cbb087ce479b7fe88d25386c5a9c9527899d7633eaaed9d982d3ed4e100000000000000000000000000000000174877f80e5e9daf2cc219545ce67b904319f75c0284e41552662512727c1e05b364364c4c8835c1c9c6fe028ae45895b1d80be637e2abd98d0433150e14b629d98fc0918c7dfc179204669ab465e90300000000000000000000000000000000170e754e54f64090c4c7520bfed82665b44728904092fe3a4fb2fd2d3667ccd4ecb796e5ed9fc4dafd315c0b6dc22b86000000000000000000000000000000001081e62ee7c502159f7a8e28c5ee45fb7fc5b301f3a081899bce10096c74d1bf7834d12cb7fb1301b986e9c6f7501d53e670a57ce4dcfa680e60ef33ba99c437e4fdb160ea1012de36f4b59613a6af85000000000000000000000000000000001434584d8d1cb34eb29fd1c95871f218f4dc46f8b2ddabafdc7049e88f54fa4b80c88960a76411e365aa65cbf77f01ce000000000000000000000000000000000e4e2e1318c5907a07a7ff154b07e959d681a69c066585ba046b8889d417d01c503b32a924500944d43e68d7da8da35d54a999fdf391d3944318c54680e69b58ce3778683b6f2c607d64450ed32c6d89000000000000000000000000000000000945a9d0603a3bd0278fce30f0cf97274319a760291fea5aee143c364cc0bc60e59dcd1093aca1a3ef64696ec47845e1000000000000000000000000000000000a77cc690d55763a94aa48c210610833427ed3176b6dca184598755f539359bc7302f8dc2cc941d447d9b5b68fa716b70563ae7b444cca7ebaba36b8d59aaa5c0e6c1454a4a2907866247e752e640a7d1ca0cff60c10b3fba1e3c6c10299db57e237d61ccec4b0d6c729da0d8d3d04e6dcf7a07f3e21a9285c75b8ea496a6f8ef1564b82dd80d7b607e26742a40b8a5ae2abcac0c0",
                "transactions" : [
                    {
                        "data" : "0x12bd4299000000000000000000000000000000000000000000000000000000000000000d00000000000000000000000000000000000000000000000000000000000000400000000000000000000000000000000000000000000000000000000000000a000000000000000000000000000000000008d9cb39df5b28781d33d996039da8c94cd810bb85aa5868008b4267ad2a8670924d4b3ad7898b33689aab2211bb9bdc00000000000000000000000000000000007a8a6f888722e4717acbfc42ef1907206db31603c403e0a8c1ac0af9b37e63124d4645a506265487e5f9eda09c8baf85431a1df7678e49ee049b75ea968ca255ef456dd58cce57b64edffac1ac223c000000000000000000000000000000000db6af04eccb3ceedc11378406a26613aebbbc2201a9ea2089848c7af3b34e46a3421d5704242c4b333f72180f6baa0200000000000000000000000000000000105f40c8b702f0989a9e20f72ff6a4f7310d81787e87638c33a61985f02116e106218d64976d50bcc61cf5bcbbff7c9eb6ccbc0b600f11f1b89061d94c6fbdc9b1d389244fb29a5d140dab8842d44eaa000000000000000000000000000000000a77e39abdc9d64d72ea4b321e3310a145feaa5d342bc1a5b16c0143dd01caeda4f18909acccb3cb5b43ad999a94f91b0000000000000000000000000000000016fc4a4f6b488fd1f45a158d941d7aeb5d431821589ee845c64eb198ff10931d586f8a0678237be2a394f5976d895bc854dfe31190469897c30ac3736ab166220dd3702df5bc897835347713d03a8d04000000000000000000000000000000000d0ddfc05bc9f89eed488752d64698bf00633c83cc37931d95a599d6be6e4c5d611a4151839133e86f74bb91aed1703b000000000000000000000000000000000be3dbea501c822730ab0176f64903931aa46b0179c59556ee7e1ba54605ed8da2eafed7eb2254a7ddc34e553a9b6d59eff1ceff9e5184dd9fea44da4f07529823dc9b100f776cef6f6881120f7de11a0000000000000000000000000000000004d6f288744016f15b21da736283af2ed1f45df12067a3a70391f66fff3ce3953a51169eba6288cabd84ffe7f597c9fc000000000000000000000000000000000f6556a63def531a940269b073ea98be79558d832123dd681bb4446d4c11e2fed59a2f97904797abb07ba53e0d48e923b273e4c6266c1f5cf022902fe1310d2191af91c47995486342bc61cd361eab850000000000000000000000000000000013e692a13e79c734f3758780fbdabff86fe5936bf6c60f2f155ec4d1c49cdefb97dc02c1f1e4280c5ebb055914d93f9d00000000000000000000000000000000060898a9365ae49697e5ac23e320261eda04d818c5f1153f647844b1910bb3430d3c06df9a64af8ff9dd25c18cbfa79d1342b5cd4ad3179f406941ef6ea15d0aecdf9f6d96dc334c39b7dca89d256d4f000000000000000000000000000000000a2a4d92ad63dade4d666ea949dd64d5886eaa3c7ce466677356ce9f65520591c1aab590b48e9fe1eaa0f0f3e306cefc0000000000000000000000000000000002a2bfc836409b33bbe078a5f89c5142411bde621e9117ddf9f81f37bd546c3e2ba94975ab4652fa0858d5a2361592715b36620f65ed84fc0bb344b4b73f4eba4b1680a47b28b47f6d10f9ee8239812500000000000000000000000000000000075d3ebb18437feb21f94ad5e2ce96cbaea2f6d68885483ed54ee67f2dbcf8cfa39f405afb46e45d08cb804a7aee3b8e000000000000000000000000000000000d42851366ed4694730b7c58450c3f9ebd365f15fa4dfa3fd226d180aaa921a0d897278506ede76b85decddc9580a365249ca9bcf879a770b0a054422a6ea97ae795118ae45532c1523c842696de6d17000000000000000000000000000000001722e05d33728260ebf5e4b48104cb2c89b4bc3073767e56fda373bc0e29261c9a5c53e5768b453b116494c1109cba2000000000000000000000000000000000030e4da8620007236b89103b215e54751ba2f2dce19b0304997f450791880ad34f3e43cc4e6852aa599fd65ef72dd9a5c014a0aa616e809b674390b4553bf2d9bf325e73d3a935eba94488dddee4e895000000000000000000000000000000000c4e7e44e8e0387bd99311343d2ff3a080ddad557c8639aad64c4f6e47d64f48b91f9de2e33b4b9c182a87efce5d4e0e000000000000000000000000000000000e7cb49fd7aca3daef3c0329c950c832e1d007f21a4f950f367eb37b5d7433f5d6f1ab1c206232b2ee32137b56b53967ab722a1c20f068b6955a44073914c418a082345796912ca634e79983a24ec4bb0000000000000000000000000000000014026b8dae20a1913ecb45359e9ceb317137244e16a036ac760b47363f2d389ef6cb12cd5f5fb9e8e31ccd39bf114f8b000000000000000000000000000000000f07f9e76789dd937b85e02a9c346f81e87637bd03bd5f98a9b18ad6d109100b540aaadf1fec048530bcfa35dbb5b8ae8b314f83cc3ad501caa44b4c3ca8cf68c70ff6920f445d3a7ada212b6a19ba3e000000000000000000000000000000000a0249c354052094cae5a3d77313360a8956839af614184696b5b7fbd2af6555c6ae14a150220f01d624484b9096eaa700000000000000000000000000000000043098df38ab37f42175cc9f9fa9ecbde75bb344776ed078632b3d8bbfbf04103adde27ef0d361177bb3814cbb8bc54994ffab83099c69845cc87727d459ae300a5725ec53176424ab0ec8bd3f80eaff0000000000000000000000000000000011e90effb7ae193b47afffe6fcaa0a28c358222cbb087ce479b7fe88d25386c5a9c9527899d7633eaaed9d982d3ed4e100000000000000000000000000000000174877f80e5e9daf2cc219545ce67b904319f75c0284e41552662512727c1e05b364364c4c8835c1c9c6fe028ae45895b1d80be637e2abd98d0433150e14b629d98fc0918c7dfc179204669ab465e90300000000000000000000000000000000170e754e54f64090c4c7520bfed82665b44728904092fe3a4fb2fd2d3667ccd4ecb796e5ed9fc4dafd315c0b6dc22b86000000000000000000000000000000001081e62ee7c502159f7a8e28c5ee45fb7fc5b301f3a081899bce10096c74d1bf7834d12cb7fb1301b986e9c6f7501d53e670a57ce4dcfa680e60ef33ba99c437e4fdb160ea1012de36f4b59613a6af85000000000000000000000000000000001434584d8d1cb34eb29fd1c95871f218f4dc46f8b2ddabafdc7049e88f54fa4b80c88960a76411e365aa65cbf77f01ce000000000000000000000000000000000e4e2e1318c5907a07a7ff154b07e959d681a69c066585ba046b8889d417d01c503b32a924500944d43e68d7da8da35d54a999fdf391d3944318c54680e69b58ce3778683b6f2c607d64450ed32c6d89000000000000000000000000000000000945a9d0603a3bd0278fce30f0cf97274319a760291fea5aee143c364cc0bc60e59dcd1093aca1a3ef64696ec47845e1000000000000000000000000000000000a77cc690d55763a94aa48c210610833427ed3176b6dca184598755f539359bc7302f8dc2cc941d447d9b5b68fa716b70563ae7b444cca7ebaba36b8d59aaa5c0e6c1454a4a2907866247e752e640a7d",
                        "gasLimit" : "0x6acfc0",
                        "gasPrice" : "0x0a",
                        "nonce" : "0x00",
                        "r" : "0xcff60c10b3fba1e3c6c10299db57e237d61ccec4b0d6c729da0d8d3d04e6dcf7",
                        "s" : "0x7f3e21a9285c75b8ea496a6f8ef1564b82dd80d7b607e26742a40b8a5ae2abca",
                        "sender" : "0xa94f5374fce5edbc8e2a8697c15331677e6ebf0b",
                        "to" : "0x095e7baea6a6c7c4c2dfeb977efac326af552d87",
                        "v" : "0x1c",
                        "value" : "0x03e8"
                    }
                ],
                "uncleHeaders" : [
                ],
                "withdrawals" : [
                ]
            }
        ],
        "genesisBlockHeader" : {
            "baseFeePerGas" : "0x0b",
            "blobGasUsed" : "0x00",
            "bloom" : "0x00000000000000000000000000000000000000000000000000000000000000000000000000000000000000000000000000000000000000000000000000000000000000000000000000000000000000000000000000000000000000000000000000000000000000000000000000000000000000000000000000000000000000000000000000000000000000000000000000000000000000000000000000000000000000000000000000000000000000000000000000000000000000000000000000000000000000000000000000000000000000000000000000000000000000000000000000000000000000000000000000000000000000000000000000000000",
            "coinbase" : "0x2adc25665018aa1fe0e6bc666dac8fc2697ff9ba",
            "difficulty" : "0x00",
            "excessBlobGas" : "0x060000",
            "extraData" : "0x00",
            "gasLimit" : "0xff112233445566",
            "gasUsed" : "0x00",
            "hash" : "0xc9cb4ed0dc693e89844b5a27d709ebd577e6a8380102855ef905d3d2d81ac0e5",
            "mixHash" : "0x0000000000000000000000000000000000000000000000000000000000020000",
            "nonce" : "0x0000000000000000",
            "number" : "0x00",
            "parentBeaconBlockRoot" : "0x0000000000000000000000000000000000000000000000000000000000000000",
            "parentHash" : "0x0000000000000000000000000000000000000000000000000000000000000000",
            "receiptTrie" : "0x56e81f171bcc55a6ff8345e692c0f86e5b48e01b996cadc001622fb5e363b421",
            "stateRoot" : "0x00059c610e858a345663eede1b974d037c154e4b4bb16a01ea2fd48a4d67bf65",
            "timestamp" : "0x00",
            "transactionsTrie" : "0x56e81f171bcc55a6ff8345e692c0f86e5b48e01b996cadc001622fb5e363b421",
            "uncleHash" : "0x1dcc4de8dec75d7aab85b567b6ccd41ad312451b948a7413f0a142fd40d49347",
            "withdrawalsRoot" : "0x56e81f171bcc55a6ff8345e692c0f86e5b48e01b996cadc001622fb5e363b421"
        },
        "genesisRLP" : "0xf90242f9023ca00000000000000000000000000000000000000000000000000000000000000000a01dcc4de8dec75d7aab85b567b6ccd41ad312451b948a7413f0a142fd40d49347942adc25665018aa1fe0e6bc666dac8fc2697ff9baa000059c610e858a345663eede1b974d037c154e4b4bb16a01ea2fd48a4d67bf65a056e81f171bcc55a6ff8345e692c0f86e5b48e01b996cadc001622fb5e363b421a056e81f171bcc55a6ff8345e692c0f86e5b48e01b996cadc001622fb5e363b421b9010000000000000000000000000000000000000000000000000000000000000000000000000000000000000000000000000000000000000000000000000000000000000000000000000000000000000000000000000000000000000000000000000000000000000000000000000000000000000000000000000000000000000000000000000000000000000000000000000000000000000000000000000000000000000000000000000000000000000000000000000000000000000000000000000000000000000000000000000000000000000000000000000000000000000000000000000000000000000000000000000000000000000000000000000000000000808087ff112233445566808000a000000000000000000000000000000000000000000000000000000000000200008800000000000000000ba056e81f171bcc55a6ff8345e692c0f86e5b48e01b996cadc001622fb5e363b4218083060000a00000000000000000000000000000000000000000000000000000000000000000c0c0c0",
        "lastblockhash" : "0x86c49512dd1f61eab3dc0b612cca21b03eaafaac8e076ca4d6931756e88a653d",
        "network" : "Prague",
        "postState" : {
            "0x000f3df6d732807ef1319fb7b8bb8522d0beac02" : {
                "balance" : "0x00",
                "code" : "0x3373fffffffffffffffffffffffffffffffffffffffe14604d57602036146024575f5ffd5b5f35801560495762001fff810690815414603c575f5ffd5b62001fff01545f5260205ff35b5f5ffd5b62001fff42064281555f359062001fff015500",
                "nonce" : "0x01",
                "storage" : {
                    "0x03e8" : "0x03e8"
                }
            },
            "0x095e7baea6a6c7c4c2dfeb977efac326af552d87" : {
                "balance" : "0x03e8",
                "code" : "0x60806040526004361061001e5760003560e01c806312bd429914610023575b600080fd5b6100fc6004803603604081101561003957600080fd5b81019080803573ffffffffffffffffffffffffffffffffffffffff1690602001909291908035906020019064010000000081111561007657600080fd5b82018360208201111561008857600080fd5b803590602001918460018302840111640100000000831117156100aa57600080fd5b91908080601f016020809104026020016040519081016040528093929190818152602001838380828437600081840152601f19601f820116905080830192505050505050509192919290505050610182565b604051808315151515815260200180602001828103825283818151815260200191508051906020019080838360005b8381101561014657808201518184015260208101905061012b565b50505050905090810190601f1680156101735780820380516001836020036101000a031916815260200191505b50935050505060405180910390f35b600060608373ffffffffffffffffffffffffffffffffffffffff16836040518082805190602001908083835b602083106101d157805182526020820191506020810190506020830392506101ae565b6001836020036101000a038019825116818451168082178552505050505050905001915050600060405180830381855afa9150503d8060008114610231576040519150601f19603f3d011682016040523d82523d6000602084013e610236565b606091505b508092508193505050600060405180807f6572726f72000000000000000000000000000000000000000000000000000000815250600501905060405180910390209050821561028a57818051906020012090505b8060025582829250925050925092905056fea2646970667358221220db58d80e8530eed625d9b4250a6055c2eb1d7c117a7ca267e6f8a059bdd2f39e64736f6c634300060a0033",
                "nonce" : "0x01",
                "storage" : {
                    "0x02" : "0xb2147559c4bff1e41fd101256ef02c69ac6e057d7bc24d0df90b76fa88db3f90"
                }
            },
            "0xa94f5374fce5edbc8e2a8697c15331677e6ebf0b" : {
                "balance" : "0x0de0b6b3a74cc728",
                "code" : "0x",
                "nonce" : "0x01",
                "storage" : {
                }
            }
        },
        "pre" : {
            "0x000f3df6d732807ef1319fb7b8bb8522d0beac02" : {
                "balance" : "0x00",
                "code" : "0x3373fffffffffffffffffffffffffffffffffffffffe14604d57602036146024575f5ffd5b5f35801560495762001fff810690815414603c575f5ffd5b62001fff01545f5260205ff35b5f5ffd5b62001fff42064281555f359062001fff015500",
                "nonce" : "0x01",
                "storage" : {
                }
            },
            "0x095e7baea6a6c7c4c2dfeb977efac326af552d87" : {
                "balance" : "0x00",
                "code" : "0x60806040526004361061001e5760003560e01c806312bd429914610023575b600080fd5b6100fc6004803603604081101561003957600080fd5b81019080803573ffffffffffffffffffffffffffffffffffffffff1690602001909291908035906020019064010000000081111561007657600080fd5b82018360208201111561008857600080fd5b803590602001918460018302840111640100000000831117156100aa57600080fd5b91908080601f016020809104026020016040519081016040528093929190818152602001838380828437600081840152601f19601f820116905080830192505050505050509192919290505050610182565b604051808315151515815260200180602001828103825283818151815260200191508051906020019080838360005b8381101561014657808201518184015260208101905061012b565b50505050905090810190601f1680156101735780820380516001836020036101000a031916815260200191505b50935050505060405180910390f35b600060608373ffffffffffffffffffffffffffffffffffffffff16836040518082805190602001908083835b602083106101d157805182526020820191506020810190506020830392506101ae565b6001836020036101000a038019825116818451168082178552505050505050905001915050600060405180830381855afa9150503d8060008114610231576040519150601f19603f3d011682016040523d82523d6000602084013e610236565b606091505b508092508193505050600060405180807f6572726f72000000000000000000000000000000000000000000000000000000815250600501905060405180910390209050821561028a57818051906020012090505b8060025582829250925050925092905056fea2646970667358221220db58d80e8530eed625d9b4250a6055c2eb1d7c117a7ca267e6f8a059bdd2f39e64736f6c634300060a0033",
                "nonce" : "0x01",
                "storage" : {
                }
            },
            "0xa94f5374fce5edbc8e2a8697c15331677e6ebf0b" : {
                "balance" : "0x0de0b6b3a7640000",
                "code" : "0x",
                "nonce" : "0x00",
                "storage" : {
                }
            }
        },
        "sealEngine" : "NoProof"
    }
}