{
    "g1_multiexp_68_d0g0v0_Prague" : {
        "_info" : {
            "comment" : "A test for g1_multiexp_68",
            "filling-rpc-server" : "evm version 1.14.0-unstable-a208e725-20240416",
            "filling-tool-version" : "retesteth-0.3.2-cancun+commit.353b2b37.Linux.g++",
            "generatedTestHash" : "f594093553631f8b51746daab82c541200f2bfefec0b1195f15d202f5f7b79a4",
            "lllcversion" : "Version: 0.5.14-develop.2023.7.11+commit.c58ab2c6.mod.Linux.g++",
            "solidity" : "Version: 0.8.21+commit.d9974bed.Linux.g++",
            "source" : "src/EIPTestsFiller/StateTests/stEIP2537/g1_multiexp_68Filler.json",
            "sourceHash" : "39a312647e7bad5dcec78bd27a548a4ac74b825cc21d0e4b334b2addcf9f2ccd"
        },
        "blocks" : [
            {
                "blockHeader" : {
                    "baseFeePerGas" : "0x0a",
                    "blobGasUsed" : "0x00",
                    "bloom" : "0x00000000000000000000000000000000000000000000000000000000000000000000000000000000000000000000000000000000000000000000000000000000000000000000000000000000000000000000000000000000000000000000000000000000000000000000000000000000000000000000000000000000000000000000000000000000000000000000000000000000000000000000000000000000000000000000000000000000000000000000000000000000000000000000000000000000000000000000000000000000000000000000000000000000000000000000000000000000000000000000000000000000000000000000000000000000",
                    "coinbase" : "0x2adc25665018aa1fe0e6bc666dac8fc2697ff9ba",
                    "difficulty" : "0x00",
                    "excessBlobGas" : "0x00",
                    "extraData" : "0x00",
                    "gasLimit" : "0xff112233445566",
                    "gasUsed" : "0x0251e8",
                    "hash" : "0xeac3e57dbed5649d3cd3c9cfcc25083453bc2601ff772f99f992a4e975a97708",
                    "mixHash" : "0x0000000000000000000000000000000000000000000000000000000000020000",
                    "nonce" : "0x0000000000000000",
                    "number" : "0x01",
                    "parentBeaconBlockRoot" : "0x0000000000000000000000000000000000000000000000000000000000000000",
                    "parentHash" : "0xc9cb4ed0dc693e89844b5a27d709ebd577e6a8380102855ef905d3d2d81ac0e5",
                    "receiptTrie" : "0xe45fc9c1d20e083d45aae13966b33e0308a6c3893df4852e9b7be60923dfcedb",
                    "stateRoot" : "0x4819eb2167f76eb91d58cecec655b28f8a275b48006202469d122c9eb0d54548",
                    "timestamp" : "0x03e8",
                    "transactionsTrie" : "0x247561883cd352aa422685394c59294a3414cb698405bee950dcc33fca3e8758",
                    "uncleHash" : "0x1dcc4de8dec75d7aab85b567b6ccd41ad312451b948a7413f0a142fd40d49347",
                    "withdrawalsRoot" : "0x56e81f171bcc55a6ff8345e692c0f86e5b48e01b996cadc001622fb5e363b421"
                },
                "rlp" : "0xf90d11f9023ea0c9cb4ed0dc693e89844b5a27d709ebd577e6a8380102855ef905d3d2d81ac0e5a01dcc4de8dec75d7aab85b567b6ccd41ad312451b948a7413f0a142fd40d49347942adc25665018aa1fe0e6bc666dac8fc2697ff9baa04819eb2167f76eb91d58cecec655b28f8a275b48006202469d122c9eb0d54548a0247561883cd352aa422685394c59294a3414cb698405bee950dcc33fca3e8758a0e45fc9c1d20e083d45aae13966b33e0308a6c3893df4852e9b7be60923dfcedbb9010000000000000000000000000000000000000000000000000000000000000000000000000000000000000000000000000000000000000000000000000000000000000000000000000000000000000000000000000000000000000000000000000000000000000000000000000000000000000000000000000000000000000000000000000000000000000000000000000000000000000000000000000000000000000000000000000000000000000000000000000000000000000000000000000000000000000000000000000000000000000000000000000000000000000000000000000000000000000000000000000000000000000000000000000000000000800187ff112233445566830251e88203e800a000000000000000000000000000000000000000000000000000000000000200008800000000000000000aa056e81f171bcc55a6ff8345e692c0f86e5b48e01b996cadc001622fb5e363b4218080a00000000000000000000000000000000000000000000000000000000000000000f90acbf90ac8800a836acfc094095e7baea6a6c7c4c2dfeb977efac326af552d878203e8b90a6412bd4299000000000000000000000000000000000000000000000000000000000000000d00000000000000000000000000000000000000000000000000000000000000400000000000000000000000000000000000000000000000000000000000000a00000000000000000000000000000000000f08b9765910d97ac42bc31d4b4c8bad5f3db3fe5374f11ae1c08af41ee226bbb4b0869b039fa81a935025de11b1d1fe000000000000000000000000000000000ea29999ba91652e2e6dfdf77595b44da8e5cddf2e3ae6c782dbf1f972717833d03478bb8651bc0cc7946d813371aaba2849fab097a4f71bdfcfaf435994a0c6ac3671a4a9ed0402010be83ff95228fd000000000000000000000000000000000997b39892bfe0c67c296135573975801ddb99d06de02d96853f44336fdaa25dcfe253708583f415d882115ec68dbaed000000000000000000000000000000000a88e2f75817ce91c7dbe365d67aca52186b5e94c735e5893bef6aabc61f015f854f9bd110d3201be6f35147f9f9b8fce6558521e301eabf09e80a509b46cf8ec118ee8586f4e46a7313a96dc37ba6990000000000000000000000000000000012a730eaf214a874448e654a06604c4b9218f163b979bd3700b7a7fa3856b814c380532afce59b6253344da5bffd684600000000000000000000000000000000182fb293f9a63c705501aa0ec7ca72698d7d4d50af3a0f68ee849cd3f82ac24aca2e2ee813f68e708991a97e58f2d03d8f2f7c525fc0f353700fa823a5d32a93189699206c5ba5ed271a158ebb47674b0000000000000000000000000000000015bbe08935721cc6199f9255379589a4512c178bbedf69c82a0d9cba22b285730d4f27a3629d92574b2c24dbe09300de0000000000000000000000000000000007aba01238f2c4ef0192fea78fbccf2e669f802a2822baf067632daadbc1d07e70095c14bae959a0f706092b0be10335c7e8adc0f0a042a32c733b5c3356cf4a7d648be51c1d78534ca65dd43a0c13e40000000000000000000000000000000011727d6d6cff667f5bdec92a3b502f9d9fbcded2ef12ac058ac51ccb4064443b7a2671e9ffa2fefd9b121d89bb4ded1e000000000000000000000000000000000960f8ac1e52246529fcc6f8f7cbaf42677297c00022d312e0deb5fc45d3685bb33fd68c193758258439864ba4a073e5650081a6720845a20164ef7c06ce1e73286a32dd64efbe57fe46765008dc9dd50000000000000000000000000000000014b3a9296c87b54f8f51b935a8d9ec0af44d711e3109e75fe34f07d0705e9ebf0ba5e81dd8b7e3c4b4f862570637a7f80000000000000000000000000000000005b834857b8629cdbf514e5ac2e0e2a45e4374c287bab5e4c163d669e7b1a36c72cec1ab7d857e28f2633a6e5f298f55c067d18b95591f7f14261f95513e1990f5a4f6908f94a015a93fe379726d5120000000000000000000000000000000000ad8c626ba39823a33d17a4f06cf17d29e9e0ae3f28db0b369fa0bb4b7343115fb3ded39862381822c3b2d74ab7f70e800000000000000000000000000000000117230d8da035f40c181b50c12370f159748955f63ee1eb61e8242e476575e9aaf16bd43b7e79a35ab4e2da20f43fd92b448bb01a1963bf74e0fbf99329005af8e932074358d855ff43c213e02bf26bd00000000000000000000000000000000027764a17af5328811b305c21b0fecc54a3f225eaaedbf453ea4c0724fdbd481873d84b1a7ffbdc7f1cb07c2d1efaf5c000000000000000000000000000000001090ec8d750ceecf682de76d4794f9a8bbbf3a3f4ab591fe882613c1b6db0912696974a1f2ce349bd8c79acb4891719d441fc4cb1ea8f86af8839aa40c35c0706f3a159b4bc902347009f744b73cee350000000000000000000000000000000015e707430eae84b75946f21e1fb0b6ede203b843671911923efd9674421a92ff13cd900bee1b27d70b8e8cbeccb165930000000000000000000000000000000001263ed28f531d8197606a038d7d7c3e1d732690cd69f52533470f6fbef193be5e63d5af0dee3aa8a73a23253533f8223020a1ab853ef2018976e43cce2724105a2526b28d23b0226c49ff3d4a03d40c0000000000000000000000000000000007fe70102db7df6529f732b5cc2b1caef0fe03af9824a5097922dc0b07e5ff32bc195fbdfd7b5e4b2bbcd75b1badc6ef0000000000000000000000000000000011b40afd78bb5e835227e5a08f94f7c70b06dc010f5a710a025f589521543eaff27d789d4de10fd4020879b45bc0a9dc82702398b8c95c3a8cd163a8a3cb2a7a04030ef99404c325115e9a9312e8c1bf000000000000000000000000000000000e4df86963d375710c681c5b3910fe79446e73e00613bd554ee20f47fa9e2b0cfb6c14a29ed6dab0a56c49708fc624d80000000000000000000000000000000010029bbd62162cbca140c56354ea070ae3f1028e438c70dce31e7bc8691541e59e9168e9b689c19d177d4fd68f8b1081338468a325384a9367c90bd0450816a22849b845aadaf187c27b3f09800e791b00000000000000000000000000000000097f3f61b164193da313d88429a4f34b0ef2f864ad8fdf7183c3e1da02dcbf0ddeba9bc04a7594516e6255ed59527e110000000000000000000000000000000008133f297b8da5dac5e1ac3db3073587b92a5d821949968c125e5c9c79a19b5945ab47fb0ce5d6f4269231596b157826d29136cbc4764346e7ae1af92fe64560f453821f96f32a42a2006b6edee7502100000000000000000000000000000000028cacc78001b805c3e43e92fb8c4477778ce81fca9068240e0088e344cc8201ed5bba52e7ee09d5ea6f982f30d6ea2e0000000000000000000000000000000012c5db0995324657574a27c48313674d2ad3aa931cee78ade96408c5e04e6f5f8eae88018511ff156bcc787970ec40ab675a59418f1462247d3bddda5937553e96d854b5df64a68145a193b2b1a7eb25000000000000000000000000000000001768f68b0ec15fdd37c3ad9445e53a582ab5546f9eeec590b84e11f5a72585eada71129d1b93a72b334bec4df57ea4c40000000000000000000000000000000004d6e137e66243b56bbaaac98717061b36545c1c3e24801e6e054bdaaa6d28d641821a51233175f5e5823b7d2b7b42cc544a345719b40f973398a6fdaa2044037cacd7f6c361921c62053cd51f2e5ff70000000000000000000000000000000008caba9658e420fa17950c995efd00447bd5074af9b57122240d4e709229d382e371d7de867005745a35a2a7d68fee8200000000000000000000000000000000072e0c25435616f157284b48fc8da4a3fdaefc4f6d484e071cbe648fedf30b5da4457852d7715741615317e21110d4c2bb38b4cd72eb18c3ac87860aa58b4b439712562f742f112b5d769415e9c19d0a0000000000000000000000000000000016c418a3b3f054188d6891ddadb19c00ec629a3ae0f49cb1b6801a9db0afb1b5e473c75cc8e9f352adf7ce8ac738ae0100000000000000000000000000000000110b8099a39e40541dab01e10314a0cc10fd2277c8766c7c73d32d7d0c6edd3ed3984c8bce249de4776920dfa28ee86994a849f6fb5a53bd5957e53ade1baee05702185b4d0fbb7c1cc0f46cb75614fc1ba0d8e24d8e6856d45e0aa1eb83ecfa416ad5db992c702478fa4a071afbbd41d369a048dc4d37e8cd08ef3b274e2ee9b8e42213a46677c937f7712d32d53c9d50fd81c0c0",
                "transactions" : [
                    {
                        "data" : "0x12bd4299000000000000000000000000000000000000000000000000000000000000000d00000000000000000000000000000000000000000000000000000000000000400000000000000000000000000000000000000000000000000000000000000a00000000000000000000000000000000000f08b9765910d97ac42bc31d4b4c8bad5f3db3fe5374f11ae1c08af41ee226bbb4b0869b039fa81a935025de11b1d1fe000000000000000000000000000000000ea29999ba91652e2e6dfdf77595b44da8e5cddf2e3ae6c782dbf1f972717833d03478bb8651bc0cc7946d813371aaba2849fab097a4f71bdfcfaf435994a0c6ac3671a4a9ed0402010be83ff95228fd000000000000000000000000000000000997b39892bfe0c67c296135573975801ddb99d06de02d96853f44336fdaa25dcfe253708583f415d882115ec68dbaed000000000000000000000000000000000a88e2f75817ce91c7dbe365d67aca52186b5e94c735e5893bef6aabc61f015f854f9bd110d3201be6f35147f9f9b8fce6558521e301eabf09e80a509b46cf8ec118ee8586f4e46a7313a96dc37ba6990000000000000000000000000000000012a730eaf214a874448e654a06604c4b9218f163b979bd3700b7a7fa3856b814c380532afce59b6253344da5bffd684600000000000000000000000000000000182fb293f9a63c705501aa0ec7ca72698d7d4d50af3a0f68ee849cd3f82ac24aca2e2ee813f68e708991a97e58f2d03d8f2f7c525fc0f353700fa823a5d32a93189699206c5ba5ed271a158ebb47674b0000000000000000000000000000000015bbe08935721cc6199f9255379589a4512c178bbedf69c82a0d9cba22b285730d4f27a3629d92574b2c24dbe09300de0000000000000000000000000000000007aba01238f2c4ef0192fea78fbccf2e669f802a2822baf067632daadbc1d07e70095c14bae959a0f706092b0be10335c7e8adc0f0a042a32c733b5c3356cf4a7d648be51c1d78534ca65dd43a0c13e40000000000000000000000000000000011727d6d6cff667f5bdec92a3b502f9d9fbcded2ef12ac058ac51ccb4064443b7a2671e9ffa2fefd9b121d89bb4ded1e000000000000000000000000000000000960f8ac1e52246529fcc6f8f7cbaf42677297c00022d312e0deb5fc45d3685bb33fd68c193758258439864ba4a073e5650081a6720845a20164ef7c06ce1e73286a32dd64efbe57fe46765008dc9dd50000000000000000000000000000000014b3a9296c87b54f8f51b935a8d9ec0af44d711e3109e75fe34f07d0705e9ebf0ba5e81dd8b7e3c4b4f862570637a7f80000000000000000000000000000000005b834857b8629cdbf514e5ac2e0e2a45e4374c287bab5e4c163d669e7b1a36c72cec1ab7d857e28f2633a6e5f298f55c067d18b95591f7f14261f95513e1990f5a4f6908f94a015a93fe379726d5120000000000000000000000000000000000ad8c626ba39823a33d17a4f06cf17d29e9e0ae3f28db0b369fa0bb4b7343115fb3ded39862381822c3b2d74ab7f70e800000000000000000000000000000000117230d8da035f40c181b50c12370f159748955f63ee1eb61e8242e476575e9aaf16bd43b7e79a35ab4e2da20f43fd92b448bb01a1963bf74e0fbf99329005af8e932074358d855ff43c213e02bf26bd00000000000000000000000000000000027764a17af5328811b305c21b0fecc54a3f225eaaedbf453ea4c0724fdbd481873d84b1a7ffbdc7f1cb07c2d1efaf5c000000000000000000000000000000001090ec8d750ceecf682de76d4794f9a8bbbf3a3f4ab591fe882613c1b6db0912696974a1f2ce349bd8c79acb4891719d441fc4cb1ea8f86af8839aa40c35c0706f3a159b4bc902347009f744b73cee350000000000000000000000000000000015e707430eae84b75946f21e1fb0b6ede203b843671911923efd9674421a92ff13cd900bee1b27d70b8e8cbeccb165930000000000000000000000000000000001263ed28f531d8197606a038d7d7c3e1d732690cd69f52533470f6fbef193be5e63d5af0dee3aa8a73a23253533f8223020a1ab853ef2018976e43cce2724105a2526b28d23b0226c49ff3d4a03d40c0000000000000000000000000000000007fe70102db7df6529f732b5cc2b1caef0fe03af9824a5097922dc0b07e5ff32bc195fbdfd7b5e4b2bbcd75b1badc6ef0000000000000000000000000000000011b40afd78bb5e835227e5a08f94f7c70b06dc010f5a710a025f589521543eaff27d789d4de10fd4020879b45bc0a9dc82702398b8c95c3a8cd163a8a3cb2a7a04030ef99404c325115e9a9312e8c1bf000000000000000000000000000000000e4df86963d375710c681c5b3910fe79446e73e00613bd554ee20f47fa9e2b0cfb6c14a29ed6dab0a56c49708fc624d80000000000000000000000000000000010029bbd62162cbca140c56354ea070ae3f1028e438c70dce31e7bc8691541e59e9168e9b689c19d177d4fd68f8b1081338468a325384a9367c90bd0450816a22849b845aadaf187c27b3f09800e791b00000000000000000000000000000000097f3f61b164193da313d88429a4f34b0ef2f864ad8fdf7183c3e1da02dcbf0ddeba9bc04a7594516e6255ed59527e110000000000000000000000000000000008133f297b8da5dac5e1ac3db3073587b92a5d821949968c125e5c9c79a19b5945ab47fb0ce5d6f4269231596b157826d29136cbc4764346e7ae1af92fe64560f453821f96f32a42a2006b6edee7502100000000000000000000000000000000028cacc78001b805c3e43e92fb8c4477778ce81fca9068240e0088e344cc8201ed5bba52e7ee09d5ea6f982f30d6ea2e0000000000000000000000000000000012c5db0995324657574a27c48313674d2ad3aa931cee78ade96408c5e04e6f5f8eae88018511ff156bcc787970ec40ab675a59418f1462247d3bddda5937553e96d854b5df64a68145a193b2b1a7eb25000000000000000000000000000000001768f68b0ec15fdd37c3ad9445e53a582ab5546f9eeec590b84e11f5a72585eada71129d1b93a72b334bec4df57ea4c40000000000000000000000000000000004d6e137e66243b56bbaaac98717061b36545c1c3e24801e6e054bdaaa6d28d641821a51233175f5e5823b7d2b7b42cc544a345719b40f973398a6fdaa2044037cacd7f6c361921c62053cd51f2e5ff70000000000000000000000000000000008caba9658e420fa17950c995efd00447bd5074af9b57122240d4e709229d382e371d7de867005745a35a2a7d68fee8200000000000000000000000000000000072e0c25435616f157284b48fc8da4a3fdaefc4f6d484e071cbe648fedf30b5da4457852d7715741615317e21110d4c2bb38b4cd72eb18c3ac87860aa58b4b439712562f742f112b5d769415e9c19d0a0000000000000000000000000000000016c418a3b3f054188d6891ddadb19c00ec629a3ae0f49cb1b6801a9db0afb1b5e473c75cc8e9f352adf7ce8ac738ae0100000000000000000000000000000000110b8099a39e40541dab01e10314a0cc10fd2277c8766c7c73d32d7d0c6edd3ed3984c8bce249de4776920dfa28ee86994a849f6fb5a53bd5957e53ade1baee05702185b4d0fbb7c1cc0f46cb75614fc",
                        "gasLimit" : "0x6acfc0",
                        "gasPrice" : "0x0a",
                        "nonce" : "0x00",
                        "r" : "0xd8e24d8e6856d45e0aa1eb83ecfa416ad5db992c702478fa4a071afbbd41d369",
                        "s" : "0x48dc4d37e8cd08ef3b274e2ee9b8e42213a46677c937f7712d32d53c9d50fd81",
                        "sender" : "0xa94f5374fce5edbc8e2a8697c15331677e6ebf0b",
                        "to" : "0x095e7baea6a6c7c4c2dfeb977efac326af552d87",
                        "v" : "0x1b",
                        "value" : "0x03e8"
                    }
                ],
                "uncleHeaders" : [
                ],
                "withdrawals" : [
                ]
            }
        ],
        "genesisBlockHeader" : {
            "baseFeePerGas" : "0x0b",
            "blobGasUsed" : "0x00",
            "bloom" : "0x00000000000000000000000000000000000000000000000000000000000000000000000000000000000000000000000000000000000000000000000000000000000000000000000000000000000000000000000000000000000000000000000000000000000000000000000000000000000000000000000000000000000000000000000000000000000000000000000000000000000000000000000000000000000000000000000000000000000000000000000000000000000000000000000000000000000000000000000000000000000000000000000000000000000000000000000000000000000000000000000000000000000000000000000000000000",
            "coinbase" : "0x2adc25665018aa1fe0e6bc666dac8fc2697ff9ba",
            "difficulty" : "0x00",
            "excessBlobGas" : "0x060000",
            "extraData" : "0x00",
            "gasLimit" : "0xff112233445566",
            "gasUsed" : "0x00",
            "hash" : "0xc9cb4ed0dc693e89844b5a27d709ebd577e6a8380102855ef905d3d2d81ac0e5",
            "mixHash" : "0x0000000000000000000000000000000000000000000000000000000000020000",
            "nonce" : "0x0000000000000000",
            "number" : "0x00",
            "parentBeaconBlockRoot" : "0x0000000000000000000000000000000000000000000000000000000000000000",
            "parentHash" : "0x0000000000000000000000000000000000000000000000000000000000000000",
            "receiptTrie" : "0x56e81f171bcc55a6ff8345e692c0f86e5b48e01b996cadc001622fb5e363b421",
            "stateRoot" : "0x00059c610e858a345663eede1b974d037c154e4b4bb16a01ea2fd48a4d67bf65",
            "timestamp" : "0x00",
            "transactionsTrie" : "0x56e81f171bcc55a6ff8345e692c0f86e5b48e01b996cadc001622fb5e363b421",
            "uncleHash" : "0x1dcc4de8dec75d7aab85b567b6ccd41ad312451b948a7413f0a142fd40d49347",
            "withdrawalsRoot" : "0x56e81f171bcc55a6ff8345e692c0f86e5b48e01b996cadc001622fb5e363b421"
        },
        "genesisRLP" : "0xf90242f9023ca00000000000000000000000000000000000000000000000000000000000000000a01dcc4de8dec75d7aab85b567b6ccd41ad312451b948a7413f0a142fd40d49347942adc25665018aa1fe0e6bc666dac8fc2697ff9baa000059c610e858a345663eede1b974d037c154e4b4bb16a01ea2fd48a4d67bf65a056e81f171bcc55a6ff8345e692c0f86e5b48e01b996cadc001622fb5e363b421a056e81f171bcc55a6ff8345e692c0f86e5b48e01b996cadc001622fb5e363b421b9010000000000000000000000000000000000000000000000000000000000000000000000000000000000000000000000000000000000000000000000000000000000000000000000000000000000000000000000000000000000000000000000000000000000000000000000000000000000000000000000000000000000000000000000000000000000000000000000000000000000000000000000000000000000000000000000000000000000000000000000000000000000000000000000000000000000000000000000000000000000000000000000000000000000000000000000000000000000000000000000000000000000000000000000000000000000808087ff112233445566808000a000000000000000000000000000000000000000000000000000000000000200008800000000000000000ba056e81f171bcc55a6ff8345e692c0f86e5b48e01b996cadc001622fb5e363b4218083060000a00000000000000000000000000000000000000000000000000000000000000000c0c0c0",
        "lastblockhash" : "0xeac3e57dbed5649d3cd3c9cfcc25083453bc2601ff772f99f992a4e975a97708",
        "network" : "Prague",
        "postState" : {
            "0x000f3df6d732807ef1319fb7b8bb8522d0beac02" : {
                "balance" : "0x00",
                "code" : "0x3373fffffffffffffffffffffffffffffffffffffffe14604d57602036146024575f5ffd5b5f35801560495762001fff810690815414603c575f5ffd5b62001fff01545f5260205ff35b5f5ffd5b62001fff42064281555f359062001fff015500",
                "nonce" : "0x01",
                "storage" : {
                    "0x03e8" : "0x03e8"
                }
            },
            "0x095e7baea6a6c7c4c2dfeb977efac326af552d87" : {
                "balance" : "0x03e8",
                "code" : "0x60806040526004361061001e5760003560e01c806312bd429914610023575b600080fd5b6100fc6004803603604081101561003957600080fd5b81019080803573ffffffffffffffffffffffffffffffffffffffff1690602001909291908035906020019064010000000081111561007657600080fd5b82018360208201111561008857600080fd5b803590602001918460018302840111640100000000831117156100aa57600080fd5b91908080601f016020809104026020016040519081016040528093929190818152602001838380828437600081840152601f19601f820116905080830192505050505050509192919290505050610182565b604051808315151515815260200180602001828103825283818151815260200191508051906020019080838360005b8381101561014657808201518184015260208101905061012b565b50505050905090810190601f1680156101735780820380516001836020036101000a031916815260200191505b50935050505060405180910390f35b600060608373ffffffffffffffffffffffffffffffffffffffff16836040518082805190602001908083835b602083106101d157805182526020820191506020810190506020830392506101ae565b6001836020036101000a038019825116818451168082178552505050505050905001915050600060405180830381855afa9150503d8060008114610231576040519150601f19603f3d011682016040523d82523d6000602084013e610236565b606091505b508092508193505050600060405180807f6572726f72000000000000000000000000000000000000000000000000000000815250600501905060405180910390209050821561028a57818051906020012090505b8060025582829250925050925092905056fea2646970667358221220db58d80e8530eed625d9b4250a6055c2eb1d7c117a7ca267e6f8a059bdd2f39e64736f6c634300060a0033",
                "nonce" : "0x01",
                "storage" : {
                    "0x02" : "0x43fba9451ad90a52439003bfe280fd3ed6558fef3f1e4f38612c631e424997b6"
                }
            },
            "0xa94f5374fce5edbc8e2a8697c15331677e6ebf0b" : {
                "balance" : "0x0de0b6b3a74cc908",
                "code" : "0x",
                "nonce" : "0x01",
                "storage" : {
                }
            }
        },
        "pre" : {
            "0x000f3df6d732807ef1319fb7b8bb8522d0beac02" : {
                "balance" : "0x00",
                "code" : "0x3373fffffffffffffffffffffffffffffffffffffffe14604d57602036146024575f5ffd5b5f35801560495762001fff810690815414603c575f5ffd5b62001fff01545f5260205ff35b5f5ffd5b62001fff42064281555f359062001fff015500",
                "nonce" : "0x01",
                "storage" : {
                }
            },
            "0x095e7baea6a6c7c4c2dfeb977efac326af552d87" : {
                "balance" : "0x00",
                "code" : "0x60806040526004361061001e5760003560e01c806312bd429914610023575b600080fd5b6100fc6004803603604081101561003957600080fd5b81019080803573ffffffffffffffffffffffffffffffffffffffff1690602001909291908035906020019064010000000081111561007657600080fd5b82018360208201111561008857600080fd5b803590602001918460018302840111640100000000831117156100aa57600080fd5b91908080601f016020809104026020016040519081016040528093929190818152602001838380828437600081840152601f19601f820116905080830192505050505050509192919290505050610182565b604051808315151515815260200180602001828103825283818151815260200191508051906020019080838360005b8381101561014657808201518184015260208101905061012b565b50505050905090810190601f1680156101735780820380516001836020036101000a031916815260200191505b50935050505060405180910390f35b600060608373ffffffffffffffffffffffffffffffffffffffff16836040518082805190602001908083835b602083106101d157805182526020820191506020810190506020830392506101ae565b6001836020036101000a038019825116818451168082178552505050505050905001915050600060405180830381855afa9150503d8060008114610231576040519150601f19603f3d011682016040523d82523d6000602084013e610236565b606091505b508092508193505050600060405180807f6572726f72000000000000000000000000000000000000000000000000000000815250600501905060405180910390209050821561028a57818051906020012090505b8060025582829250925050925092905056fea2646970667358221220db58d80e8530eed625d9b4250a6055c2eb1d7c117a7ca267e6f8a059bdd2f39e64736f6c634300060a0033",
                "nonce" : "0x01",
                "storage" : {
                }
            },
            "0xa94f5374fce5edbc8e2a8697c15331677e6ebf0b" : {
                "balance" : "0x0de0b6b3a7640000",
                "code" : "0x",
                "nonce" : "0x00",
                "storage" : {
                }
            }
        },
        "sealEngine" : "NoProof"
    }
}