{
    "g2_add_68_d0g0v0_Berlin" : {
        "_info" : {
            "comment" : "A test for g2_add_68",
            "filling-rpc-server" : "evm version 1.9.23-unstable-0efc69a9-20201022",
            "filling-tool-version" : "retesteth-0.0.9-berlin+commit.2f30f0ea.Linux.g++",
            "lllcversion" : "Version: 0.5.14-develop.2020.6.22+commit.9189ad7a.Linux.g++",
            "source" : "src/GeneralStateTestsFiller/stEIP2537/g2_add_68Filler.json",
            "sourceHash" : "6ed052009ee8dc4a9d6a4d147f3c5ef7981ecb3d6f95a1c351ae56540af3a6f3"
        },
        "genesisBlockHeader" : {
            "bloom" : "0x00000000000000000000000000000000000000000000000000000000000000000000000000000000000000000000000000000000000000000000000000000000000000000000000000000000000000000000000000000000000000000000000000000000000000000000000000000000000000000000000000000000000000000000000000000000000000000000000000000000000000000000000000000000000000000000000000000000000000000000000000000000000000000000000000000000000000000000000000000000000000000000000000000000000000000000000000000000000000000000000000000000000000000000000000000000",
            "coinbase" : "0x2adc25665018aa1fe0e6bc666dac8fc2697ff9ba",
            "difficulty" : "0x020000",
            "extraData" : "0x00",
            "gasLimit" : "0xff112233445566",
            "gasUsed" : "0x00",
            "hash" : "0xf227282805f439ca053613f53f119422bda960eea236c4b013eca3b95c6be464",
            "mixHash" : "0x0000000000000000000000000000000000000000000000000000000000000000",
            "nonce" : "0x0000000000000000",
            "number" : "0x00",
            "parentHash" : "0x0000000000000000000000000000000000000000000000000000000000000000",
            "receiptTrie" : "0x56e81f171bcc55a6ff8345e692c0f86e5b48e01b996cadc001622fb5e363b421",
            "stateRoot" : "0xbf61e00e2f1fbb3ea831c4ff3bbeff62f2737e7f0d88945ba62e0722eab6cd68",
            "timestamp" : "0x00",
            "transactionsTrie" : "0x56e81f171bcc55a6ff8345e692c0f86e5b48e01b996cadc001622fb5e363b421",
            "uncleHash" : "0x1dcc4de8dec75d7aab85b567b6ccd41ad312451b948a7413f0a142fd40d49347"
        },
        "pre" : {
            "0x095e7baea6a6c7c4c2dfeb977efac326af552d87" : {
                "balance" : "0x00",
                "code" : "0x60806040526004361061001e5760003560e01c806312bd429914610023575b600080fd5b6100fc6004803603604081101561003957600080fd5b81019080803573ffffffffffffffffffffffffffffffffffffffff1690602001909291908035906020019064010000000081111561007657600080fd5b82018360208201111561008857600080fd5b803590602001918460018302840111640100000000831117156100aa57600080fd5b91908080601f016020809104026020016040519081016040528093929190818152602001838380828437600081840152601f19601f820116905080830192505050505050509192919290505050610182565b604051808315151515815260200180602001828103825283818151815260200191508051906020019080838360005b8381101561014657808201518184015260208101905061012b565b50505050905090810190601f1680156101735780820380516001836020036101000a031916815260200191505b50935050505060405180910390f35b600060608373ffffffffffffffffffffffffffffffffffffffff16836040518082805190602001908083835b602083106101d157805182526020820191506020810190506020830392506101ae565b6001836020036101000a038019825116818451168082178552505050505050905001915050600060405180830381855afa9150503d8060008114610231576040519150601f19603f3d011682016040523d82523d6000602084013e610236565b606091505b508092508193505050600060405180807f6572726f72000000000000000000000000000000000000000000000000000000815250600501905060405180910390209050821561028a57818051906020012090505b8060025582829250925050925092905056fea2646970667358221220db58d80e8530eed625d9b4250a6055c2eb1d7c117a7ca267e6f8a059bdd2f39e64736f6c634300060a0033",
                "nonce" : "0x01",
                "storage" : {
                }
            },
            "0xa94f5374fce5edbc8e2a8697c15331677e6ebf0b" : {
                "balance" : "0x0de0b6b3a7640000",
                "code" : "0x",
                "nonce" : "0x00",
                "storage" : {
                }
            }
        },
        "postState" : {
            "0x095e7baea6a6c7c4c2dfeb977efac326af552d87" : {
                "code" : "0x60806040526004361061001e5760003560e01c806312bd429914610023575b600080fd5b6100fc6004803603604081101561003957600080fd5b81019080803573ffffffffffffffffffffffffffffffffffffffff1690602001909291908035906020019064010000000081111561007657600080fd5b82018360208201111561008857600080fd5b803590602001918460018302840111640100000000831117156100aa57600080fd5b91908080601f016020809104026020016040519081016040528093929190818152602001838380828437600081840152601f19601f820116905080830192505050505050509192919290505050610182565b604051808315151515815260200180602001828103825283818151815260200191508051906020019080838360005b8381101561014657808201518184015260208101905061012b565b50505050905090810190601f1680156101735780820380516001836020036101000a031916815260200191505b50935050505060405180910390f35b600060608373ffffffffffffffffffffffffffffffffffffffff16836040518082805190602001908083835b602083106101d157805182526020820191506020810190506020830392506101ae565b6001836020036101000a038019825116818451168082178552505050505050905001915050600060405180830381855afa9150503d8060008114610231576040519150601f19603f3d011682016040523d82523d6000602084013e610236565b606091505b508092508193505050600060405180807f6572726f72000000000000000000000000000000000000000000000000000000815250600501905060405180910390209050821561028a57818051906020012090505b8060025582829250925050925092905056fea2646970667358221220db58d80e8530eed625d9b4250a6055c2eb1d7c117a7ca267e6f8a059bdd2f39e64736f6c634300060a0033",
                "nonce" : "0x01",
                "balance" : "0x03e8",
                "storage" : {
                    "0x02" : "0xd05ad542b622c4598c6915e315544dae311e1191fc643d924be32d269e96c00b"
                }
            },
            "0x2adc25665018aa1fe0e6bc666dac8fc2697ff9ba" : {
                "code" : "0x",
                "nonce" : "0x00",
                "balance" : "0x1bc16d674ec8e437",
                "storage" : {
                }
            },
            "0xa94f5374fce5edbc8e2a8697c15331677e6ebf0b" : {
                "code" : "0x",
                "nonce" : "0x01",
                "balance" : "0x0de0b6b3a76317e1",
                "storage" : {
                }
            }
        },
        "network" : "Berlin",
        "sealEngine" : "NoProof",
        "lastblockhash" : "0xff8085bea6a598f50c67c6cc2e0a9f52dffef76915cff1d7178df379ceb9edb2",
        "genesisRLP" : "0xf901fcf901f7a00000000000000000000000000000000000000000000000000000000000000000a01dcc4de8dec75d7aab85b567b6ccd41ad312451b948a7413f0a142fd40d49347942adc25665018aa1fe0e6bc666dac8fc2697ff9baa0bf61e00e2f1fbb3ea831c4ff3bbeff62f2737e7f0d88945ba62e0722eab6cd68a056e81f171bcc55a6ff8345e692c0f86e5b48e01b996cadc001622fb5e363b421a056e81f171bcc55a6ff8345e692c0f86e5b48e01b996cadc001622fb5e363b421b9010000000000000000000000000000000000000000000000000000000000000000000000000000000000000000000000000000000000000000000000000000000000000000000000000000000000000000000000000000000000000000000000000000000000000000000000000000000000000000000000000000000000000000000000000000000000000000000000000000000000000000000000000000000000000000000000000000000000000000000000000000000000000000000000000000000000000000000000000000000000000000000000000000000000000000000000000000000000000000000000000000000000000000000000000000000000830200008087ff112233445566808000a00000000000000000000000000000000000000000000000000000000000000000880000000000000000c0c0",
        "blocks" : [
            {
                "rlp" : "0xf904cdf901fba0f227282805f439ca053613f53f119422bda960eea236c4b013eca3b95c6be464a01dcc4de8dec75d7aab85b567b6ccd41ad312451b948a7413f0a142fd40d49347942adc25665018aa1fe0e6bc666dac8fc2697ff9baa0623434dec05a7f8123de0a538dc58351dd728d5e8ad463ddc8681d4a87f7d6aba0d15b6b2e6befc60c8e6eadcce73352a47766d994a30b7ac5b07743c0e8378e85a00fb8d8ab4e0544965140be577909d001ccc6e2a6b9cd565f016e26201e80e3f3b9010000000000000000000000000000000000000000000000000000000000000000000000000000000000000000000000000000000000000000000000000000000000000000000000000000000000000000000000000000000000000000000000000000000000000000000000000000000000000000000000000000000000000000000000000000000000000000000000000000000000000000000000000000000000000000000000000000000000000000000000000000000000000000000000000000000000000000000000000000000000000000000000000000000000000000000000000000000000000000000000000000000000000000000000000000000000830200000187ff11223344556682e4378203e800a00000000000000000000000000000000000000000000000000000000000000000880000000000000000f902cbf902c88001836acfc094095e7baea6a6c7c4c2dfeb977efac326af552d878203e8b9026412bd4299000000000000000000000000000000000000000000000000000000000000000d00000000000000000000000000000000000000000000000000000000000000400000000000000000000000000000000000000000000000000000000000000200000000000000000000000000000000000f5d47911596c46c0c08cac5f5e7f6d0609874da4ac1bd4e0e59c393273a5fe31a756c7cfff2a01d19e79d209d7c6d3e000000000000000000000000000000001010f864eb6624132d4436d18db7f5b34727060dc426c109886be88031e3c155490cb3fb09e1fbccb7912875477c6d840000000000000000000000000000000005cfbf1c2ae1b80a8c7cfb2cefedd907b0552794f4fda101ca1a723b18de8cbce30eb54287e1847cee3f416cd8b45f2c00000000000000000000000000000000084fa63781f7eba9c7e911ae5866d485bc7e90603541c55d1ffad8b3cf7547fd57fb24b14002560e58410b828513e1090000000000000000000000000000000018b0cd0360c5d5bf8254725c19976345cd84d32d0d770286444fe29dfdbc495dd58407ee8d48ec1004971f249453b8460000000000000000000000000000000009a6ea13f5a5a279ec3bb86cc028a1685d84135ed5fe99cd6b6fb380a42c3af5497e3ba5ea558618487cf953172a376d0000000000000000000000000000000002a36d5efd3381c35ff4f361cd813a96c3e5185141c5985073b45d1319c5f392442b7aa6a253b7eb22d1b5052812be00000000000000000000000000000000000f745dd17966b6befa7f740ea360241162505d6269226ffda90546863d0fff124d8fea13c763cfb69c2f8f12b81d431f1ca051aaf98477d38bd50dd4166a4734bc5dc1779f0ae23d271290061c2549b45805a04be94696624bdbcb576fb0ad4852ca352436b04269fff8c960c9679ef048b8aac0",
                "blockHeader" : {
                    "bloom" : "0x00000000000000000000000000000000000000000000000000000000000000000000000000000000000000000000000000000000000000000000000000000000000000000000000000000000000000000000000000000000000000000000000000000000000000000000000000000000000000000000000000000000000000000000000000000000000000000000000000000000000000000000000000000000000000000000000000000000000000000000000000000000000000000000000000000000000000000000000000000000000000000000000000000000000000000000000000000000000000000000000000000000000000000000000000000000",
                    "coinbase" : "0x2adc25665018aa1fe0e6bc666dac8fc2697ff9ba",
                    "difficulty" : "0x020000",
                    "extraData" : "0x00",
                    "gasLimit" : "0xff112233445566",
                    "gasUsed" : "0xe437",
                    "hash" : "0xff8085bea6a598f50c67c6cc2e0a9f52dffef76915cff1d7178df379ceb9edb2",
                    "mixHash" : "0x0000000000000000000000000000000000000000000000000000000000000000",
                    "nonce" : "0x0000000000000000",
                    "number" : "0x01",
                    "parentHash" : "0xf227282805f439ca053613f53f119422bda960eea236c4b013eca3b95c6be464",
                    "receiptTrie" : "0x0fb8d8ab4e0544965140be577909d001ccc6e2a6b9cd565f016e26201e80e3f3",
                    "stateRoot" : "0x623434dec05a7f8123de0a538dc58351dd728d5e8ad463ddc8681d4a87f7d6ab",
                    "timestamp" : "0x03e8",
                    "transactionsTrie" : "0xd15b6b2e6befc60c8e6eadcce73352a47766d994a30b7ac5b07743c0e8378e85",
                    "uncleHash" : "0x1dcc4de8dec75d7aab85b567b6ccd41ad312451b948a7413f0a142fd40d49347"
                },
                "transactions" : [
                    {
                        "data" : "0x12bd4299000000000000000000000000000000000000000000000000000000000000000d00000000000000000000000000000000000000000000000000000000000000400000000000000000000000000000000000000000000000000000000000000200000000000000000000000000000000000f5d47911596c46c0c08cac5f5e7f6d0609874da4ac1bd4e0e59c393273a5fe31a756c7cfff2a01d19e79d209d7c6d3e000000000000000000000000000000001010f864eb6624132d4436d18db7f5b34727060dc426c109886be88031e3c155490cb3fb09e1fbccb7912875477c6d840000000000000000000000000000000005cfbf1c2ae1b80a8c7cfb2cefedd907b0552794f4fda101ca1a723b18de8cbce30eb54287e1847cee3f416cd8b45f2c00000000000000000000000000000000084fa63781f7eba9c7e911ae5866d485bc7e90603541c55d1ffad8b3cf7547fd57fb24b14002560e58410b828513e1090000000000000000000000000000000018b0cd0360c5d5bf8254725c19976345cd84d32d0d770286444fe29dfdbc495dd58407ee8d48ec1004971f249453b8460000000000000000000000000000000009a6ea13f5a5a279ec3bb86cc028a1685d84135ed5fe99cd6b6fb380a42c3af5497e3ba5ea558618487cf953172a376d0000000000000000000000000000000002a36d5efd3381c35ff4f361cd813a96c3e5185141c5985073b45d1319c5f392442b7aa6a253b7eb22d1b5052812be00000000000000000000000000000000000f745dd17966b6befa7f740ea360241162505d6269226ffda90546863d0fff124d8fea13c763cfb69c2f8f12b81d431f",
                        "gasLimit" : "0x6acfc0",
                        "gasPrice" : "0x01",
                        "nonce" : "0x00",
                        "to" : "0x095e7baea6a6c7c4c2dfeb977efac326af552d87",
                        "value" : "0x03e8",
                        "v" : "0x1c",
                        "r" : "0x51aaf98477d38bd50dd4166a4734bc5dc1779f0ae23d271290061c2549b45805",
                        "s" : "0x4be94696624bdbcb576fb0ad4852ca352436b04269fff8c960c9679ef048b8aa"
                    }
                ],
                "uncleHeaders" : [
                ]
            }
        ]
    }
}