{
    "g2_add_31_d0g0v0_Prague" : {
        "_info" : {
            "comment" : "A test for g2_add_31",
            "filling-rpc-server" : "evm version 1.14.0-unstable-a208e725-20240416",
            "filling-tool-version" : "retesteth-0.3.2-cancun+commit.353b2b37.Linux.g++",
            "generatedTestHash" : "e8f12b5d8d7056d70fedb433ff1ca249e54a3a9b3f7182cae12e3ae8babad82d",
            "lllcversion" : "Version: 0.5.14-develop.2023.7.11+commit.c58ab2c6.mod.Linux.g++",
            "solidity" : "Version: 0.8.21+commit.d9974bed.Linux.g++",
            "source" : "src/EIPTestsFiller/StateTests/stEIP2537/g2_add_31Filler.json",
            "sourceHash" : "ac766be11d84e1c2b757f4410f18d274c6d263b235f30634149d3da9bf049136"
        },
        "blocks" : [
            {
                "blockHeader" : {
                    "baseFeePerGas" : "0x0a",
                    "blobGasUsed" : "0x00",
                    "bloom" : "0x00000000000000000000000000000000000000000000000000000000000000000000000000000000000000000000000000000000000000000000000000000000000000000000000000000000000000000000000000000000000000000000000000000000000000000000000000000000000000000000000000000000000000000000000000000000000000000000000000000000000000000000000000000000000000000000000000000000000000000000000000000000000000000000000000000000000000000000000000000000000000000000000000000000000000000000000000000000000000000000000000000000000000000000000000000000",
                    "coinbase" : "0x2adc25665018aa1fe0e6bc666dac8fc2697ff9ba",
                    "difficulty" : "0x00",
                    "excessBlobGas" : "0x00",
                    "extraData" : "0x00",
                    "gasLimit" : "0xff112233445566",
                    "gasUsed" : "0xd59f",
                    "hash" : "0x95e24f4506f21757f557ec5fbe226c36ae92937f62e24c57af8bb925bc4de6a5",
                    "mixHash" : "0x0000000000000000000000000000000000000000000000000000000000020000",
                    "nonce" : "0x0000000000000000",
                    "number" : "0x01",
                    "parentBeaconBlockRoot" : "0x0000000000000000000000000000000000000000000000000000000000000000",
                    "parentHash" : "0xc9cb4ed0dc693e89844b5a27d709ebd577e6a8380102855ef905d3d2d81ac0e5",
                    "receiptTrie" : "0xa6f78f5df4f12b7cf70eb00651870b9f8a54c7c9f66edd4aa8f121b4ae45e419",
                    "stateRoot" : "0x29069907ace9c72e19a018acff9f75e3bb8979281873a335f819ba92c8119cd4",
                    "timestamp" : "0x03e8",
                    "transactionsTrie" : "0x3053fc07906322fc51b58e5aded68e98b18caa600b63777dcb2345206c4671cc",
                    "uncleHash" : "0x1dcc4de8dec75d7aab85b567b6ccd41ad312451b948a7413f0a142fd40d49347",
                    "withdrawalsRoot" : "0x56e81f171bcc55a6ff8345e692c0f86e5b48e01b996cadc001622fb5e363b421"
                },
                "rlp" : "0xf90510f9023da0c9cb4ed0dc693e89844b5a27d709ebd577e6a8380102855ef905d3d2d81ac0e5a01dcc4de8dec75d7aab85b567b6ccd41ad312451b948a7413f0a142fd40d49347942adc25665018aa1fe0e6bc666dac8fc2697ff9baa029069907ace9c72e19a018acff9f75e3bb8979281873a335f819ba92c8119cd4a03053fc07906322fc51b58e5aded68e98b18caa600b63777dcb2345206c4671cca0a6f78f5df4f12b7cf70eb00651870b9f8a54c7c9f66edd4aa8f121b4ae45e419b9010000000000000000000000000000000000000000000000000000000000000000000000000000000000000000000000000000000000000000000000000000000000000000000000000000000000000000000000000000000000000000000000000000000000000000000000000000000000000000000000000000000000000000000000000000000000000000000000000000000000000000000000000000000000000000000000000000000000000000000000000000000000000000000000000000000000000000000000000000000000000000000000000000000000000000000000000000000000000000000000000000000000000000000000000000000000800187ff11223344556682d59f8203e800a000000000000000000000000000000000000000000000000000000000000200008800000000000000000aa056e81f171bcc55a6ff8345e692c0f86e5b48e01b996cadc001622fb5e363b4218080a00000000000000000000000000000000000000000000000000000000000000000f902cbf902c8800a836acfc094095e7baea6a6c7c4c2dfeb977efac326af552d878203e8b9026412bd4299000000000000000000000000000000000000000000000000000000000000000e00000000000000000000000000000000000000000000000000000000000000400000000000000000000000000000000000000000000000000000000000000200000000000000000000000000000000000047f92d6306bed1cb840f58fd57b5b71a5df7f86dbfa55a36636cb495e08715cd57f2f3e7cd99a1efc28b1d684de1cb0000000000000000000000000000000000f4eb02d687a1a6105b4dbd740e2c7924689d558e6cbfee768dd303cc8dd0fd887f5eec24b54feccf00f473ca3f54ad000000000000000000000000000000000edad68c4d536912816cf6ef039c3dd0535dc52189583270b3b038e2c67b213d943bf384ce69c4a9dc526d7ef309f25a0000000000000000000000000000000006ff4a6b5129ef026d1d5704bf7fc0b474de92b5cf39722f165e73f4e7612d6d3bb40743e4b7b42d0dad5d5d6a2d4881000000000000000000000000000000000805892f21889cab3cfe62226eaff6a8d3586d4396692b379efc7e90b0eaad4c9afbdf0f56b30f0c07ae0bc4013343b30000000000000000000000000000000007853f0e75c8dee034c2444299da58c98f22de367a90550dbc635fb52c9a8f61ccc100f70f10208944e48d09507fdce100000000000000000000000000000000064afd6b3ef7ff7ec34f1fa330877b42958a46a7698c6d21adf73bfdfcab7793b312e21e5988652e655f2d42edb8a673000000000000000000000000000000000ea8a2217c3dbcc0f6e562de9cb2f334c896577d0b3a7108d96b1aba2d705dbf531e870d4023cec2c0533455013242331ba074b3da606542cd56d543539858fa0da78ad8302c3d5aecaf24ee8e48a92e6658a011c55d303b579dcd36bba99075a63be04e23878fe495e9bcf36e87edae604fbdc0c0",
                "transactions" : [
                    {
                        "data" : "0x12bd4299000000000000000000000000000000000000000000000000000000000000000e00000000000000000000000000000000000000000000000000000000000000400000000000000000000000000000000000000000000000000000000000000200000000000000000000000000000000000047f92d6306bed1cb840f58fd57b5b71a5df7f86dbfa55a36636cb495e08715cd57f2f3e7cd99a1efc28b1d684de1cb0000000000000000000000000000000000f4eb02d687a1a6105b4dbd740e2c7924689d558e6cbfee768dd303cc8dd0fd887f5eec24b54feccf00f473ca3f54ad000000000000000000000000000000000edad68c4d536912816cf6ef039c3dd0535dc52189583270b3b038e2c67b213d943bf384ce69c4a9dc526d7ef309f25a0000000000000000000000000000000006ff4a6b5129ef026d1d5704bf7fc0b474de92b5cf39722f165e73f4e7612d6d3bb40743e4b7b42d0dad5d5d6a2d4881000000000000000000000000000000000805892f21889cab3cfe62226eaff6a8d3586d4396692b379efc7e90b0eaad4c9afbdf0f56b30f0c07ae0bc4013343b30000000000000000000000000000000007853f0e75c8dee034c2444299da58c98f22de367a90550dbc635fb52c9a8f61ccc100f70f10208944e48d09507fdce100000000000000000000000000000000064afd6b3ef7ff7ec34f1fa330877b42958a46a7698c6d21adf73bfdfcab7793b312e21e5988652e655f2d42edb8a673000000000000000000000000000000000ea8a2217c3dbcc0f6e562de9cb2f334c896577d0b3a7108d96b1aba2d705dbf531e870d4023cec2c053345501324233",
                        "gasLimit" : "0x6acfc0",
                        "gasPrice" : "0x0a",
                        "nonce" : "0x00",
                        "r" : "0x74b3da606542cd56d543539858fa0da78ad8302c3d5aecaf24ee8e48a92e6658",
                        "s" : "0x11c55d303b579dcd36bba99075a63be04e23878fe495e9bcf36e87edae604fbd",
                        "sender" : "0xa94f5374fce5edbc8e2a8697c15331677e6ebf0b",
                        "to" : "0x095e7baea6a6c7c4c2dfeb977efac326af552d87",
                        "v" : "0x1b",
                        "value" : "0x03e8"
                    }
                ],
                "uncleHeaders" : [
                ],
                "withdrawals" : [
                ]
            }
        ],
        "genesisBlockHeader" : {
            "baseFeePerGas" : "0x0b",
            "blobGasUsed" : "0x00",
            "bloom" : "0x00000000000000000000000000000000000000000000000000000000000000000000000000000000000000000000000000000000000000000000000000000000000000000000000000000000000000000000000000000000000000000000000000000000000000000000000000000000000000000000000000000000000000000000000000000000000000000000000000000000000000000000000000000000000000000000000000000000000000000000000000000000000000000000000000000000000000000000000000000000000000000000000000000000000000000000000000000000000000000000000000000000000000000000000000000000",
            "coinbase" : "0x2adc25665018aa1fe0e6bc666dac8fc2697ff9ba",
            "difficulty" : "0x00",
            "excessBlobGas" : "0x060000",
            "extraData" : "0x00",
            "gasLimit" : "0xff112233445566",
            "gasUsed" : "0x00",
            "hash" : "0xc9cb4ed0dc693e89844b5a27d709ebd577e6a8380102855ef905d3d2d81ac0e5",
            "mixHash" : "0x0000000000000000000000000000000000000000000000000000000000020000",
            "nonce" : "0x0000000000000000",
            "number" : "0x00",
            "parentBeaconBlockRoot" : "0x0000000000000000000000000000000000000000000000000000000000000000",
            "parentHash" : "0x0000000000000000000000000000000000000000000000000000000000000000",
            "receiptTrie" : "0x56e81f171bcc55a6ff8345e692c0f86e5b48e01b996cadc001622fb5e363b421",
            "stateRoot" : "0x00059c610e858a345663eede1b974d037c154e4b4bb16a01ea2fd48a4d67bf65",
            "timestamp" : "0x00",
            "transactionsTrie" : "0x56e81f171bcc55a6ff8345e692c0f86e5b48e01b996cadc001622fb5e363b421",
            "uncleHash" : "0x1dcc4de8dec75d7aab85b567b6ccd41ad312451b948a7413f0a142fd40d49347",
            "withdrawalsRoot" : "0x56e81f171bcc55a6ff8345e692c0f86e5b48e01b996cadc001622fb5e363b421"
        },
        "genesisRLP" : "0xf90242f9023ca00000000000000000000000000000000000000000000000000000000000000000a01dcc4de8dec75d7aab85b567b6ccd41ad312451b948a7413f0a142fd40d49347942adc25665018aa1fe0e6bc666dac8fc2697ff9baa000059c610e858a345663eede1b974d037c154e4b4bb16a01ea2fd48a4d67bf65a056e81f171bcc55a6ff8345e692c0f86e5b48e01b996cadc001622fb5e363b421a056e81f171bcc55a6ff8345e692c0f86e5b48e01b996cadc001622fb5e363b421b9010000000000000000000000000000000000000000000000000000000000000000000000000000000000000000000000000000000000000000000000000000000000000000000000000000000000000000000000000000000000000000000000000000000000000000000000000000000000000000000000000000000000000000000000000000000000000000000000000000000000000000000000000000000000000000000000000000000000000000000000000000000000000000000000000000000000000000000000000000000000000000000000000000000000000000000000000000000000000000000000000000000000000000000000000000000000808087ff112233445566808000a000000000000000000000000000000000000000000000000000000000000200008800000000000000000ba056e81f171bcc55a6ff8345e692c0f86e5b48e01b996cadc001622fb5e363b4218083060000a00000000000000000000000000000000000000000000000000000000000000000c0c0c0",
        "lastblockhash" : "0x95e24f4506f21757f557ec5fbe226c36ae92937f62e24c57af8bb925bc4de6a5",
        "network" : "Prague",
        "postState" : {
            "0x000f3df6d732807ef1319fb7b8bb8522d0beac02" : {
                "balance" : "0x00",
                "code" : "0x3373fffffffffffffffffffffffffffffffffffffffe14604d57602036146024575f5ffd5b5f35801560495762001fff810690815414603c575f5ffd5b62001fff01545f5260205ff35b5f5ffd5b62001fff42064281555f359062001fff015500",
                "nonce" : "0x01",
                "storage" : {
                    "0x03e8" : "0x03e8"
                }
            },
            "0x095e7baea6a6c7c4c2dfeb977efac326af552d87" : {
                "balance" : "0x03e8",
                "code" : "0x60806040526004361061001e5760003560e01c806312bd429914610023575b600080fd5b6100fc6004803603604081101561003957600080fd5b81019080803573ffffffffffffffffffffffffffffffffffffffff1690602001909291908035906020019064010000000081111561007657600080fd5b82018360208201111561008857600080fd5b803590602001918460018302840111640100000000831117156100aa57600080fd5b91908080601f016020809104026020016040519081016040528093929190818152602001838380828437600081840152601f19601f820116905080830192505050505050509192919290505050610182565b604051808315151515815260200180602001828103825283818151815260200191508051906020019080838360005b8381101561014657808201518184015260208101905061012b565b50505050905090810190601f1680156101735780820380516001836020036101000a031916815260200191505b50935050505060405180910390f35b600060608373ffffffffffffffffffffffffffffffffffffffff16836040518082805190602001908083835b602083106101d157805182526020820191506020810190506020830392506101ae565b6001836020036101000a038019825116818451168082178552505050505050905001915050600060405180830381855afa9150503d8060008114610231576040519150601f19603f3d011682016040523d82523d6000602084013e610236565b606091505b508092508193505050600060405180807f6572726f72000000000000000000000000000000000000000000000000000000815250600501905060405180910390209050821561028a57818051906020012090505b8060025582829250925050925092905056fea2646970667358221220db58d80e8530eed625d9b4250a6055c2eb1d7c117a7ca267e6f8a059bdd2f39e64736f6c634300060a0033",
                "nonce" : "0x01",
                "storage" : {
                    "0x02" : "0x0e9c27b15e1cd088a9ac3efe7bf99146c322f2e0ac44bfb26d3a290eb7c7be9d"
                }
            },
            "0xa94f5374fce5edbc8e2a8697c15331677e6ebf0b" : {
                "balance" : "0x0de0b6b3a75ba3e2",
                "code" : "0x",
                "nonce" : "0x01",
                "storage" : {
                }
            }
        },
        "pre" : {
            "0x000f3df6d732807ef1319fb7b8bb8522d0beac02" : {
                "balance" : "0x00",
                "code" : "0x3373fffffffffffffffffffffffffffffffffffffffe14604d57602036146024575f5ffd5b5f35801560495762001fff810690815414603c575f5ffd5b62001fff01545f5260205ff35b5f5ffd5b62001fff42064281555f359062001fff015500",
                "nonce" : "0x01",
                "storage" : {
                }
            },
            "0x095e7baea6a6c7c4c2dfeb977efac326af552d87" : {
                "balance" : "0x00",
                "code" : "0x60806040526004361061001e5760003560e01c806312bd429914610023575b600080fd5b6100fc6004803603604081101561003957600080fd5b81019080803573ffffffffffffffffffffffffffffffffffffffff1690602001909291908035906020019064010000000081111561007657600080fd5b82018360208201111561008857600080fd5b803590602001918460018302840111640100000000831117156100aa57600080fd5b91908080601f016020809104026020016040519081016040528093929190818152602001838380828437600081840152601f19601f820116905080830192505050505050509192919290505050610182565b604051808315151515815260200180602001828103825283818151815260200191508051906020019080838360005b8381101561014657808201518184015260208101905061012b565b50505050905090810190601f1680156101735780820380516001836020036101000a031916815260200191505b50935050505060405180910390f35b600060608373ffffffffffffffffffffffffffffffffffffffff16836040518082805190602001908083835b602083106101d157805182526020820191506020810190506020830392506101ae565b6001836020036101000a038019825116818451168082178552505050505050905001915050600060405180830381855afa9150503d8060008114610231576040519150601f19603f3d011682016040523d82523d6000602084013e610236565b606091505b508092508193505050600060405180807f6572726f72000000000000000000000000000000000000000000000000000000815250600501905060405180910390209050821561028a57818051906020012090505b8060025582829250925050925092905056fea2646970667358221220db58d80e8530eed625d9b4250a6055c2eb1d7c117a7ca267e6f8a059bdd2f39e64736f6c634300060a0033",
                "nonce" : "0x01",
                "storage" : {
                }
            },
            "0xa94f5374fce5edbc8e2a8697c15331677e6ebf0b" : {
                "balance" : "0x0de0b6b3a7640000",
                "code" : "0x",
                "nonce" : "0x00",
                "storage" : {
                }
            }
        },
        "sealEngine" : "NoProof"
    }
}