{
    "g2_add_62_d0g0v0_Berlin" : {
        "_info" : {
            "comment" : "A test for g2_add_62",
            "filling-rpc-server" : "evm version 1.9.23-unstable-0efc69a9-20201022",
            "filling-tool-version" : "retesteth-0.0.9-berlin+commit.2f30f0ea.Linux.g++",
            "lllcversion" : "Version: 0.5.14-develop.2020.6.22+commit.9189ad7a.Linux.g++",
            "source" : "src/GeneralStateTestsFiller/stEIP2537/g2_add_62Filler.json",
            "sourceHash" : "6239b6f37cdb8adda4b5699399dd5a068674d6cb3968b1132e9d2b20d7f4fe89"
        },
        "genesisBlockHeader" : {
            "bloom" : "0x00000000000000000000000000000000000000000000000000000000000000000000000000000000000000000000000000000000000000000000000000000000000000000000000000000000000000000000000000000000000000000000000000000000000000000000000000000000000000000000000000000000000000000000000000000000000000000000000000000000000000000000000000000000000000000000000000000000000000000000000000000000000000000000000000000000000000000000000000000000000000000000000000000000000000000000000000000000000000000000000000000000000000000000000000000000",
            "coinbase" : "0x2adc25665018aa1fe0e6bc666dac8fc2697ff9ba",
            "difficulty" : "0x020000",
            "extraData" : "0x00",
            "gasLimit" : "0xff112233445566",
            "gasUsed" : "0x00",
            "hash" : "0xf227282805f439ca053613f53f119422bda960eea236c4b013eca3b95c6be464",
            "mixHash" : "0x0000000000000000000000000000000000000000000000000000000000000000",
            "nonce" : "0x0000000000000000",
            "number" : "0x00",
            "parentHash" : "0x0000000000000000000000000000000000000000000000000000000000000000",
            "receiptTrie" : "0x56e81f171bcc55a6ff8345e692c0f86e5b48e01b996cadc001622fb5e363b421",
            "stateRoot" : "0xbf61e00e2f1fbb3ea831c4ff3bbeff62f2737e7f0d88945ba62e0722eab6cd68",
            "timestamp" : "0x00",
            "transactionsTrie" : "0x56e81f171bcc55a6ff8345e692c0f86e5b48e01b996cadc001622fb5e363b421",
            "uncleHash" : "0x1dcc4de8dec75d7aab85b567b6ccd41ad312451b948a7413f0a142fd40d49347"
        },
        "pre" : {
            "0x095e7baea6a6c7c4c2dfeb977efac326af552d87" : {
                "balance" : "0x00",
                "code" : "0x60806040526004361061001e5760003560e01c806312bd429914610023575b600080fd5b6100fc6004803603604081101561003957600080fd5b81019080803573ffffffffffffffffffffffffffffffffffffffff1690602001909291908035906020019064010000000081111561007657600080fd5b82018360208201111561008857600080fd5b803590602001918460018302840111640100000000831117156100aa57600080fd5b91908080601f016020809104026020016040519081016040528093929190818152602001838380828437600081840152601f19601f820116905080830192505050505050509192919290505050610182565b604051808315151515815260200180602001828103825283818151815260200191508051906020019080838360005b8381101561014657808201518184015260208101905061012b565b50505050905090810190601f1680156101735780820380516001836020036101000a031916815260200191505b50935050505060405180910390f35b600060608373ffffffffffffffffffffffffffffffffffffffff16836040518082805190602001908083835b602083106101d157805182526020820191506020810190506020830392506101ae565b6001836020036101000a038019825116818451168082178552505050505050905001915050600060405180830381855afa9150503d8060008114610231576040519150601f19603f3d011682016040523d82523d6000602084013e610236565b606091505b508092508193505050600060405180807f6572726f72000000000000000000000000000000000000000000000000000000815250600501905060405180910390209050821561028a57818051906020012090505b8060025582829250925050925092905056fea2646970667358221220db58d80e8530eed625d9b4250a6055c2eb1d7c117a7ca267e6f8a059bdd2f39e64736f6c634300060a0033",
                "nonce" : "0x01",
                "storage" : {
                }
            },
            "0xa94f5374fce5edbc8e2a8697c15331677e6ebf0b" : {
                "balance" : "0x0de0b6b3a7640000",
                "code" : "0x",
                "nonce" : "0x00",
                "storage" : {
                }
            }
        },
        "postState" : {
            "0x095e7baea6a6c7c4c2dfeb977efac326af552d87" : {
                "code" : "0x60806040526004361061001e5760003560e01c806312bd429914610023575b600080fd5b6100fc6004803603604081101561003957600080fd5b81019080803573ffffffffffffffffffffffffffffffffffffffff1690602001909291908035906020019064010000000081111561007657600080fd5b82018360208201111561008857600080fd5b803590602001918460018302840111640100000000831117156100aa57600080fd5b91908080601f016020809104026020016040519081016040528093929190818152602001838380828437600081840152601f19601f820116905080830192505050505050509192919290505050610182565b604051808315151515815260200180602001828103825283818151815260200191508051906020019080838360005b8381101561014657808201518184015260208101905061012b565b50505050905090810190601f1680156101735780820380516001836020036101000a031916815260200191505b50935050505060405180910390f35b600060608373ffffffffffffffffffffffffffffffffffffffff16836040518082805190602001908083835b602083106101d157805182526020820191506020810190506020830392506101ae565b6001836020036101000a038019825116818451168082178552505050505050905001915050600060405180830381855afa9150503d8060008114610231576040519150601f19603f3d011682016040523d82523d6000602084013e610236565b606091505b508092508193505050600060405180807f6572726f72000000000000000000000000000000000000000000000000000000815250600501905060405180910390209050821561028a57818051906020012090505b8060025582829250925050925092905056fea2646970667358221220db58d80e8530eed625d9b4250a6055c2eb1d7c117a7ca267e6f8a059bdd2f39e64736f6c634300060a0033",
                "nonce" : "0x01",
                "balance" : "0x03e8",
                "storage" : {
                    "0x02" : "0xa23a72ac159fd85c4b10ce232677b6caf4217e02c4fc8c05928b1af2f881938f"
                }
            },
            "0x2adc25665018aa1fe0e6bc666dac8fc2697ff9ba" : {
                "code" : "0x",
                "nonce" : "0x00",
                "balance" : "0x1bc16d674ec8e437",
                "storage" : {
                }
            },
            "0xa94f5374fce5edbc8e2a8697c15331677e6ebf0b" : {
                "code" : "0x",
                "nonce" : "0x01",
                "balance" : "0x0de0b6b3a76317e1",
                "storage" : {
                }
            }
        },
        "network" : "Berlin",
        "sealEngine" : "NoProof",
        "lastblockhash" : "0xaca964d6d0c4f8ab12c49b8ff0c830c92d9be69c15d8cddc461bff998e5f35f1",
        "genesisRLP" : "0xf901fcf901f7a00000000000000000000000000000000000000000000000000000000000000000a01dcc4de8dec75d7aab85b567b6ccd41ad312451b948a7413f0a142fd40d49347942adc25665018aa1fe0e6bc666dac8fc2697ff9baa0bf61e00e2f1fbb3ea831c4ff3bbeff62f2737e7f0d88945ba62e0722eab6cd68a056e81f171bcc55a6ff8345e692c0f86e5b48e01b996cadc001622fb5e363b421a056e81f171bcc55a6ff8345e692c0f86e5b48e01b996cadc001622fb5e363b421b9010000000000000000000000000000000000000000000000000000000000000000000000000000000000000000000000000000000000000000000000000000000000000000000000000000000000000000000000000000000000000000000000000000000000000000000000000000000000000000000000000000000000000000000000000000000000000000000000000000000000000000000000000000000000000000000000000000000000000000000000000000000000000000000000000000000000000000000000000000000000000000000000000000000000000000000000000000000000000000000000000000000000000000000000000000000000830200008087ff112233445566808000a00000000000000000000000000000000000000000000000000000000000000000880000000000000000c0c0",
        "blocks" : [
            {
                "rlp" : "0xf904cdf901fba0f227282805f439ca053613f53f119422bda960eea236c4b013eca3b95c6be464a01dcc4de8dec75d7aab85b567b6ccd41ad312451b948a7413f0a142fd40d49347942adc25665018aa1fe0e6bc666dac8fc2697ff9baa0330c03e3593efc4999508f4c8575b0fbe13b0fb1c82e80a9fa7c336c7c32b2dda01b0652f03797796b005c7a605929de48963535133a31e147ac28c32ba16e1a2ca00fb8d8ab4e0544965140be577909d001ccc6e2a6b9cd565f016e26201e80e3f3b9010000000000000000000000000000000000000000000000000000000000000000000000000000000000000000000000000000000000000000000000000000000000000000000000000000000000000000000000000000000000000000000000000000000000000000000000000000000000000000000000000000000000000000000000000000000000000000000000000000000000000000000000000000000000000000000000000000000000000000000000000000000000000000000000000000000000000000000000000000000000000000000000000000000000000000000000000000000000000000000000000000000000000000000000000000000000830200000187ff11223344556682e4378203e800a00000000000000000000000000000000000000000000000000000000000000000880000000000000000f902cbf902c88001836acfc094095e7baea6a6c7c4c2dfeb977efac326af552d878203e8b9026412bd4299000000000000000000000000000000000000000000000000000000000000000d000000000000000000000000000000000000000000000000000000000000004000000000000000000000000000000000000000000000000000000000000002000000000000000000000000000000000011a960cf1978aa2ce1731b857fd91d2f59d4b8d7c6871ef6f4f85aeff549a2f397949d11a4793926fe7be37f3a83d11c0000000000000000000000000000000001954f056834d6e3b16043ef1acd0a47a353300257446e9a1db7e58bd0d7c4bc9ceb3db51ae01cfed9de99621e96934c0000000000000000000000000000000002e2fe460e71b65595ed93a0010e5ccd1a2c16fc4e0d345e7226c947f29720d2f3f54282f79cec086d3fb1999b9629b300000000000000000000000000000000060dd8a7ccb613f1521168a8a322aef9f84d9708a893f704f4fc9a19e2493f25620a47e0fff1bc1e212e65e92873b4f20000000000000000000000000000000006a90568fa25b401756e3f86b5300c4d3b626dc6274f4685e8a9f56ec5ca2afce36a1fdc6d3414edc8780c4e650f10dc0000000000000000000000000000000012e41e8e0dd10b3ee31fa866753aa5d9db7669153b141114cdb2ef7fa6df5db27aef0cc70e76a741eae504b038ecf2300000000000000000000000000000000005c35f3372f1ec9845bd04ea722fbed2be1388abf59e622dd3dafb4b3af49bc5fba9e20235e7e58973fedf4b8b720691000000000000000000000000000000001111d18d621070509805d306a31c109701288fd55d4c0644349deb080c6591b6e852b4f7e009b80019513de7f2fce17d1ba039000345d415bb0345b6d7416c4d3a4030f2f866baed22d9bf16fcaf1ba42ed7a037c82f35110d49fe709e86a05070afb17e45ee7e998942f35d809e78aef28538c0",
                "blockHeader" : {
                    "bloom" : "0x00000000000000000000000000000000000000000000000000000000000000000000000000000000000000000000000000000000000000000000000000000000000000000000000000000000000000000000000000000000000000000000000000000000000000000000000000000000000000000000000000000000000000000000000000000000000000000000000000000000000000000000000000000000000000000000000000000000000000000000000000000000000000000000000000000000000000000000000000000000000000000000000000000000000000000000000000000000000000000000000000000000000000000000000000000000",
                    "coinbase" : "0x2adc25665018aa1fe0e6bc666dac8fc2697ff9ba",
                    "difficulty" : "0x020000",
                    "extraData" : "0x00",
                    "gasLimit" : "0xff112233445566",
                    "gasUsed" : "0xe437",
                    "hash" : "0xaca964d6d0c4f8ab12c49b8ff0c830c92d9be69c15d8cddc461bff998e5f35f1",
                    "mixHash" : "0x0000000000000000000000000000000000000000000000000000000000000000",
                    "nonce" : "0x0000000000000000",
                    "number" : "0x01",
                    "parentHash" : "0xf227282805f439ca053613f53f119422bda960eea236c4b013eca3b95c6be464",
                    "receiptTrie" : "0x0fb8d8ab4e0544965140be577909d001ccc6e2a6b9cd565f016e26201e80e3f3",
                    "stateRoot" : "0x330c03e3593efc4999508f4c8575b0fbe13b0fb1c82e80a9fa7c336c7c32b2dd",
                    "timestamp" : "0x03e8",
                    "transactionsTrie" : "0x1b0652f03797796b005c7a605929de48963535133a31e147ac28c32ba16e1a2c",
                    "uncleHash" : "0x1dcc4de8dec75d7aab85b567b6ccd41ad312451b948a7413f0a142fd40d49347"
                },
                "transactions" : [
                    {
                        "data" : "0x12bd4299000000000000000000000000000000000000000000000000000000000000000d000000000000000000000000000000000000000000000000000000000000004000000000000000000000000000000000000000000000000000000000000002000000000000000000000000000000000011a960cf1978aa2ce1731b857fd91d2f59d4b8d7c6871ef6f4f85aeff549a2f397949d11a4793926fe7be37f3a83d11c0000000000000000000000000000000001954f056834d6e3b16043ef1acd0a47a353300257446e9a1db7e58bd0d7c4bc9ceb3db51ae01cfed9de99621e96934c0000000000000000000000000000000002e2fe460e71b65595ed93a0010e5ccd1a2c16fc4e0d345e7226c947f29720d2f3f54282f79cec086d3fb1999b9629b300000000000000000000000000000000060dd8a7ccb613f1521168a8a322aef9f84d9708a893f704f4fc9a19e2493f25620a47e0fff1bc1e212e65e92873b4f20000000000000000000000000000000006a90568fa25b401756e3f86b5300c4d3b626dc6274f4685e8a9f56ec5ca2afce36a1fdc6d3414edc8780c4e650f10dc0000000000000000000000000000000012e41e8e0dd10b3ee31fa866753aa5d9db7669153b141114cdb2ef7fa6df5db27aef0cc70e76a741eae504b038ecf2300000000000000000000000000000000005c35f3372f1ec9845bd04ea722fbed2be1388abf59e622dd3dafb4b3af49bc5fba9e20235e7e58973fedf4b8b720691000000000000000000000000000000001111d18d621070509805d306a31c109701288fd55d4c0644349deb080c6591b6e852b4f7e009b80019513de7f2fce17d",
                        "gasLimit" : "0x6acfc0",
                        "gasPrice" : "0x01",
                        "nonce" : "0x00",
                        "to" : "0x095e7baea6a6c7c4c2dfeb977efac326af552d87",
                        "value" : "0x03e8",
                        "v" : "0x1b",
                        "r" : "0x39000345d415bb0345b6d7416c4d3a4030f2f866baed22d9bf16fcaf1ba42ed7",
                        "s" : "0x37c82f35110d49fe709e86a05070afb17e45ee7e998942f35d809e78aef28538"
                    }
                ],
                "uncleHeaders" : [
                ]
            }
        ]
    }
}