{
    "g2_multiexp_25_d0g0v0_Prague" : {
        "_info" : {
            "comment" : "A test for g2_multiexp_25",
            "filling-rpc-server" : "evm version 1.14.0-unstable-a208e725-20240416",
            "filling-tool-version" : "retesteth-0.3.2-cancun+commit.353b2b37.Linux.g++",
            "generatedTestHash" : "53bd072798e91ff2518b7c06f7f56e994ba288108b5bbd34bb7096a94d6af70b",
            "lllcversion" : "Version: 0.5.14-develop.2023.7.11+commit.c58ab2c6.mod.Linux.g++",
            "solidity" : "Version: 0.8.21+commit.d9974bed.Linux.g++",
            "source" : "src/EIPTestsFiller/StateTests/stEIP2537/g2_multiexp_25Filler.json",
            "sourceHash" : "1721faed952a591c207f359a6e9d3d5d002b3608072d16b2d7c500feff571ba5"
        },
        "blocks" : [
            {
                "blockHeader" : {
                    "baseFeePerGas" : "0x0a",
                    "blobGasUsed" : "0x00",
                    "bloom" : "0x00000000000000000000000000000000000000000000000000000000000000000000000000000000000000000000000000000000000000000000000000000000000000000000000000000000000000000000000000000000000000000000000000000000000000000000000000000000000000000000000000000000000000000000000000000000000000000000000000000000000000000000000000000000000000000000000000000000000000000000000000000000000000000000000000000000000000000000000000000000000000000000000000000000000000000000000000000000000000000000000000000000000000000000000000000000",
                    "coinbase" : "0x2adc25665018aa1fe0e6bc666dac8fc2697ff9ba",
                    "difficulty" : "0x00",
                    "excessBlobGas" : "0x00",
                    "extraData" : "0x00",
                    "gasLimit" : "0xff112233445566",
                    "gasUsed" : "0x0584bf",
                    "hash" : "0x0d24f9d5170c8d64cb600aad0036e109572ed53bf9e05edcd83e011e3be8c3e7",
                    "mixHash" : "0x0000000000000000000000000000000000000000000000000000000000020000",
                    "nonce" : "0x0000000000000000",
                    "number" : "0x01",
                    "parentBeaconBlockRoot" : "0x0000000000000000000000000000000000000000000000000000000000000000",
                    "parentHash" : "0xc9cb4ed0dc693e89844b5a27d709ebd577e6a8380102855ef905d3d2d81ac0e5",
                    "receiptTrie" : "0x01fe0406dc497dafce0de7490653f40c1e2f46ca69887e48dd66a1d8daf498db",
                    "stateRoot" : "0xdba049a9f1f59f4adb422e0dce34ca88e728086a2c47aef301581434241fde43",
                    "timestamp" : "0x03e8",
                    "transactionsTrie" : "0x9d40bb3cb8ad318ff347c88b035e9f7c5af8e95101865d9584d35ca956b0613c",
                    "uncleHash" : "0x1dcc4de8dec75d7aab85b567b6ccd41ad312451b948a7413f0a142fd40d49347",
                    "withdrawalsRoot" : "0x56e81f171bcc55a6ff8345e692c0f86e5b48e01b996cadc001622fb5e363b421"
                },
                "rlp" : "0xf91511f9023ea0c9cb4ed0dc693e89844b5a27d709ebd577e6a8380102855ef905d3d2d81ac0e5a01dcc4de8dec75d7aab85b567b6ccd41ad312451b948a7413f0a142fd40d49347942adc25665018aa1fe0e6bc666dac8fc2697ff9baa0dba049a9f1f59f4adb422e0dce34ca88e728086a2c47aef301581434241fde43a09d40bb3cb8ad318ff347c88b035e9f7c5af8e95101865d9584d35ca956b0613ca001fe0406dc497dafce0de7490653f40c1e2f46ca69887e48dd66a1d8daf498dbb9010000000000000000000000000000000000000000000000000000000000000000000000000000000000000000000000000000000000000000000000000000000000000000000000000000000000000000000000000000000000000000000000000000000000000000000000000000000000000000000000000000000000000000000000000000000000000000000000000000000000000000000000000000000000000000000000000000000000000000000000000000000000000000000000000000000000000000000000000000000000000000000000000000000000000000000000000000000000000000000000000000000000000000000000000000000000800187ff112233445566830584bf8203e800a000000000000000000000000000000000000000000000000000000000000200008800000000000000000aa056e81f171bcc55a6ff8345e692c0f86e5b48e01b996cadc001622fb5e363b4218080a00000000000000000000000000000000000000000000000000000000000000000f912cbf912c8800a836acfc094095e7baea6a6c7c4c2dfeb977efac326af552d878203e8b9126412bd4299000000000000000000000000000000000000000000000000000000000000001000000000000000000000000000000000000000000000000000000000000000400000000000000000000000000000000000000000000000000000000000001200000000000000000000000000000000001304e0ce6a4baa6e0545fdb314523fc91f73eee157249b94f284ba7390b12b23b1c849c45a563ac82b62a2c48aec24e1000000000000000000000000000000000a2d0e9e222db70d49d1e85f587d35bdf5e8328aad14343d296f95b152a79c83a4858cafc350a5df1ad0194c49bb929400000000000000000000000000000000199efb09b34d0699eb4bc1c57fef9cc5d98453bf522c504fe7897e22bd0596a3a6c310eb351e15e3f6609b074b240f7d0000000000000000000000000000000016b69f12ce30ad1a65150094e29d4cd82fbce5dc343517ba9e5d89245ec083c44af9a3dad2169f713d3b01fdf70d20642576b42e0728db912a78eec2b7b4c96575e341e86a7592a07a660c11e0044839000000000000000000000000000000000b3ce4ac12861052c602e71906a7c9f3e2186bd2b6eaaf222d8e80b48baee537065ce78372ed936e6728b9642ba1fdb9000000000000000000000000000000000e8186561d23515bc58c77769c93db76dc9c62bb715b283cbfb71462451120a6ded736cd8a292a6799fbad7617d9aa84000000000000000000000000000000000368a6dbc7daaab0a786257c813b1a25c97468732c27cc759fb921cbc3c9a37a46d7dd0298771c447d36ef0a10579ff5000000000000000000000000000000001348d5e34cbe54e3a6b357c4e651acb82d2dc40ef9ed8bb89f0cdf0882ec6a737998f4e4dd61e296d101cbaabccdc3e779f9205ef0e3a85199c60ad9267349fdc7b6fba4cb765ab21750eb3dcfc48d8b0000000000000000000000000000000004ebb53c462239a78bf13f29856ddc4d78645c457a656f3cccec9d3c032ec19c26488f39e0f5bf0d38424f9e3a9bcc870000000000000000000000000000000002fe1949365831f7c38b1cd6cf2e22345c4ce40cd73def77889c214d1077d70e39578e8be4fe5998f59d47cca7917280000000000000000000000000000000001152f2df1512013a42ac056b75802bc35c1883efb345cefda8276c594b061a0b0f4a49d8bafa6fe251658ee76b2493cc00000000000000000000000000000000094f90cb386f7933b2ffcdba5e46e09cbd7d537c12bc223e76d3a88ce9063a7b3574d3306365d65dd4c6505f1dceea53300679b7be7c71224247e8034f5d30a63f8707d92d843a703f0fa93160f6571500000000000000000000000000000000169d9469c53e55768c9312680ee82ee581727e28cdb1d6fcdca25d0c03f3da2ad6572039f12c90b09cdb843bc506e07200000000000000000000000000000000174528257f6d3542f754ecbe97eeeea7d196ee4dd01852f6cbad87fbeb4dd7d3799588f17aad129a15549bb787468772000000000000000000000000000000000c9ab635bdaca1c488538c0830453ec6ab3b2b62447c03ff6ffd2712bf62e02a63c76c79d41644ea412e733128685c45000000000000000000000000000000000172ef0fda359bab149c8c04f583f4ace4d1b148426e993996d278f79ed2c6d3933d6cc5fb62ec4869aadc773d3084ca0454b01910548432a0f706818a98151e38ff9e854f1faa95ad41a7239b5cc4910000000000000000000000000000000017060fa73b58957d12b3996d67b7baa8b7f0943ad52e80e5c4f8830d33dc74c0a39e08594b647945b402299ca861f7b10000000000000000000000000000000001efdc7f783f9977392e2797a3e0bed222d5b661d056aa0c7e04a493bb9b18048bf72aded134941ece78d63df0a0868d0000000000000000000000000000000011355198320af05f2121939e6489f31e9e13b3cbb2cb30c9e675854cb8ec038f80aa2f4b6f995774b36f5f1b6a84298f00000000000000000000000000000000172e18c490d0cd5ba2449362c0ab296212dbe69ac25515d0f91941d300051320f067f946dcaf999554f55f1f616adc0f3685617371b27ba8898ce7f30776d817ff09ef68a9d6721d4a923ed244ae82060000000000000000000000000000000005854f4dba62d1dbbf3ae16f70792f1bb39f111309b454a6400d2916e619d4f70764ecfda7eae5c28cf1d178ad53fe6d000000000000000000000000000000000ed0bad1f5d69a0e621d137746a9ecc764931ab89f24ca827e0340ddc03571ed697f63e79cc58b946e8462099ce4b1d70000000000000000000000000000000011de76edd1cc2f9ba06b98593a24a7a011f2701b451ea3ccd04361ddb678e06d91a676e3f11b62c68cfc05242cb8a859000000000000000000000000000000000599726b5f5b93d414f9310383ed9414e4675d644f83ebaa63dceb2bddc7dcfcbc17c7aaaccd0ee32b0875952554b4e660cb5aa2a0cd1e8c3fdc06a3a1f6f9b6d52a8cc2e98c85b8e258f72d03efc25400000000000000000000000000000000031110347cbea2756b5fdd549d6c0b8f4036f5718d41dcd6c854a91c9df29bd464774be479d0efcb8a3f82cc7441a6c8000000000000000000000000000000000e24a52dccfdda3689c87395e45dbd46156676d9eb2cc09dab22ef7ff0acf5ea243ff117c82b147994d65aee8605b2fb000000000000000000000000000000000e0cd6ea0bffc591c13c48bca0782fecf8e128b0b842aecb06f803a223d32cc350db869b7a77f8e31b05f36bddd587ea00000000000000000000000000000000042ff4ab4596d610638ad23eea904a82701cdf61f9e2dc5832a70e11e717711a2d0e72f32f74706d385a9567426b4713addb1fe778c84242953db87d2307b40eeb776f17767c3a4311b5d2ffd738f151000000000000000000000000000000001517efd853800946aa37868b525e58fb488bb69755ccec806afca2d21bd3a30ba46c39cdf694ad0ca92841760437c3c1000000000000000000000000000000000e5591c339e88544660380d6362f4119c5596f910d4ceb96ccd4c4d9672efc50805b6fedffa0a48d126aae69b241d3640000000000000000000000000000000010ea5babb0de734641f63eed2eba6124377b5c55e429987917c0bd109d7904766a10b0d2dd123413816d0fbabe25050b0000000000000000000000000000000000efc89ee2ffa56193129062ca55a3350bf50e8fc7d586fae3636a70e3577987fb0f8674d383def4b41225e490d3d81528416b4b4e965a5f024723fbad6ef2f65a1381e70201e26ccb40188dc3d0fae8000000000000000000000000000000000dae4277d62e3f3dfffb80818a5ba5c371a48d73b92d69a168ebab897ae8be206fdf776e9f955136d7f7f7b2903040270000000000000000000000000000000010ca635ee2e49cd6c951d75ffddd11557432726d26564239c611b139329a28812afe21f094c0585675f4f233233743050000000000000000000000000000000012378b2ec31119e508fd9ae0ccc4c2603b6820283284a278fe16864e5a18cf7992d850c1d6ebd1253103c219bd95ca4c0000000000000000000000000000000018cac4f0660240045214034cfd8a7e40bf0aa12f97a23c4e27db0e05bb25f4d755276a91a4e882a0be63437a522943ab78077a51f88236dba6d16d7fd681c631510106b0eb7448df456eb9ce758e74cb0000000000000000000000000000000002fd5571c818322d207d58fe0a898a045a26c95c2490765dc9ac663a0de78ef5fbd05b20ea96dc5388d5b2ccf13a5e320000000000000000000000000000000006ff29ccb768da45061ba4e01c90459ededa5e79513917401e7e37151095ccd4656aeb9cb7c083cf27b69377295934cc000000000000000000000000000000000414d34eac47430495be735eb5c4b1a68372abeb43658f27613a9c8b78f17d9074174a8deeeebb1f9cda5d6198bdf89d0000000000000000000000000000000010b11bf63b8c39c1370e8fdbfdcd149fea88eaf1c0a94a51bdd061e4c41abc626a448030bf9ba880032e9f1642caabae871716e790e1a0120fd26d169b8ffe3fcc0d03683dcdba7d2f953f05444076ce00000000000000000000000000000000023eaa08a44eebae674434b013ae9992c75690a3d0de53e4b05d1c0dff249feb24a12432bcb5defe25ee4e44a56b27eb000000000000000000000000000000000f146ac27e685cca04afe8fc58fe853825f5b0009e8831eb0d0121decec23b25bf8521da2fab1508a3ad8254865fbee70000000000000000000000000000000004af1a525d3c33e0b1629cbdb90c56a88d70a28037c87db81c59bcbc811c8f0b98aa9dd574436c9f600c0e8e2d194c0400000000000000000000000000000000170efb5e0e69e46a21ec3b972265bc04b9d5ee926254f61c0e18fed013922e00f1897cf69889576bb5d54810486e7f2776ed0a27553db6ac6d3959ff4c9bc5807fb7d4f0a56095ed2bbe31dbfa41827700000000000000000000000000000000111c832a96329d6db203fc8b6bb5b7db01521529c91c74d9cd71dc78d067b36cb7eabf1af80129a7a3f44b719235927400000000000000000000000000000000097339c17816795238629d4ca6c243a14e9e227e9bfc30370dbb9e1475f6d03020dc35559675121792436bacdf9eac4a000000000000000000000000000000000805870a1efd1fc34c9b576b77418ee8c0d36aa9caf9994a051e1d55b49275f34cdb55edc74ffc267c5776c8d0e113ed0000000000000000000000000000000001513afdfc2f000e3b725fcd0428fe72ab2413ff2aa91b44458a5249c9a160ee27bca01d2fc2e230f4a80454769961af95ce72b30d989889c8779c4056e441bbcd93629efc2877d36d27f670711e21c4000000000000000000000000000000000485b3b1f812b4a28ac87d16f86d8d634e85d49d6dc460646e1224de662e906002c44a1a269c3bc011fd22afeb2d58df0000000000000000000000000000000013ba0752444a794cd00c99eceae51e61c382d0abb26e5e0e595d59321447400e8a8f7d97390bd217fb50bc22cef34b2300000000000000000000000000000000184515a36024d0bf71d9fa4cc5165363ff94ee9f8579bca653ebc0620a9d3146fba70a2f4a9f6bd3777101de0d32e327000000000000000000000000000000000e041422088c0343f7704e726d65ccc4216c4a1bde3668108983643663cf0249e992f9acde2dd8ff478dd26cd8d9434d06d220f64de05bdd6e1140c1e409fdc13f43bd31cd94e633be38ecf22ebd77db0000000000000000000000000000000005bbb0c55fdbc59992c83fc0ff03f677e58b6de6f8649141d88963ebfead9383d692015a7b765b727eacb6de250351ad00000000000000000000000000000000183057eca610b8e07fffb60d21bf2eb87981e6e881bba04ceff420ca38228fce2f94d40a993e2aef09e209f3990dd14a000000000000000000000000000000001231bc55242bea6b589cedd1d82621fb71c606ca9306b268379dbf83ddb1420dea228ffc05cd8b67c38206f3f006ef18000000000000000000000000000000000f2c943e7a8b0ee00fc4e4ba912b94f68f504d2783babb90a3781b666b31bd161af2f97a77813eab9ebba76040b04155257da8ac7d23c5ed965d8bfc76a642a36ea6ec4c45baf6882021372e8643f09800000000000000000000000000000000054bd97b9cc979006f734ec433e215a4e8afe468e69173384bc895e10ead3749d991ff8ff203abff30bf5cc0d2fc8c6c00000000000000000000000000000000066b73a98d5f5ae140a5784c5594892c849aa7f2db3b5798643f755743d401ca745d810fad5f4a33e5b3cf0fd7d96f7b00000000000000000000000000000000007caea93ff5cc6ffc033717220a215ac4ed7283945ae77e62320a0bde13f2153dc8dd401297cd124b4c67a4f3839dfc00000000000000000000000000000000094568035ffff439e3d3201466f3a1d43414e3f6455627c5479c8b7c55130ccaa5007ace7ef6a2b3e2e5a4c9543dad9163d017ba8c7ed138b1bc70141abc5cdc3afbccd8b1db5a6b5f775efa62b8dbc30000000000000000000000000000000015eeef8bcbfac04112931e186f6fd48b7a8ea891ab364ce8266c5fd15f072f08fb3655e324795df182a5ed1c917a5db000000000000000000000000000000000028916fcb3b30a7f95321a0998e544f9f4f578be7a9f866cf72d6b8baccd93f8935f105ed26aceebb3f9c96073a8be180000000000000000000000000000000012b11f356a7e32f3d9281a8999363aca0ae5c1a058724cefb51583e5f217257d47ca76d21e54ab62260796b95f9d3ad0000000000000000000000000000000000d83c75c36cc8dea4aab47823edd26b4492da39b93a15fa454aed4175f28a025ad2c576ef2d76a66e666bedae95cef1a7a16e23e37ecffd514d47199cff249415a6d366fdfaa82450f0744520258955c1ca0ef6f3e2855a80d6b5aec895a1ccfdd7e7af42c00a4bed0a5557c9f5f7c3c2bd5a00c95f5e73929e2633dd476b630bfa479a8c37968d0f13ad717b1fcb04799bc07c0c0",
                "transactions" : [
                    {
                        "data" : "0x12bd4299000000000000000000000000000000000000000000000000000000000000001000000000000000000000000000000000000000000000000000000000000000400000000000000000000000000000000000000000000000000000000000001200000000000000000000000000000000001304e0ce6a4baa6e0545fdb314523fc91f73eee157249b94f284ba7390b12b23b1c849c45a563ac82b62a2c48aec24e1000000000000000000000000000000000a2d0e9e222db70d49d1e85f587d35bdf5e8328aad14343d296f95b152a79c83a4858cafc350a5df1ad0194c49bb929400000000000000000000000000000000199efb09b34d0699eb4bc1c57fef9cc5d98453bf522c504fe7897e22bd0596a3a6c310eb351e15e3f6609b074b240f7d0000000000000000000000000000000016b69f12ce30ad1a65150094e29d4cd82fbce5dc343517ba9e5d89245ec083c44af9a3dad2169f713d3b01fdf70d20642576b42e0728db912a78eec2b7b4c96575e341e86a7592a07a660c11e0044839000000000000000000000000000000000b3ce4ac12861052c602e71906a7c9f3e2186bd2b6eaaf222d8e80b48baee537065ce78372ed936e6728b9642ba1fdb9000000000000000000000000000000000e8186561d23515bc58c77769c93db76dc9c62bb715b283cbfb71462451120a6ded736cd8a292a6799fbad7617d9aa84000000000000000000000000000000000368a6dbc7daaab0a786257c813b1a25c97468732c27cc759fb921cbc3c9a37a46d7dd0298771c447d36ef0a10579ff5000000000000000000000000000000001348d5e34cbe54e3a6b357c4e651acb82d2dc40ef9ed8bb89f0cdf0882ec6a737998f4e4dd61e296d101cbaabccdc3e779f9205ef0e3a85199c60ad9267349fdc7b6fba4cb765ab21750eb3dcfc48d8b0000000000000000000000000000000004ebb53c462239a78bf13f29856ddc4d78645c457a656f3cccec9d3c032ec19c26488f39e0f5bf0d38424f9e3a9bcc870000000000000000000000000000000002fe1949365831f7c38b1cd6cf2e22345c4ce40cd73def77889c214d1077d70e39578e8be4fe5998f59d47cca7917280000000000000000000000000000000001152f2df1512013a42ac056b75802bc35c1883efb345cefda8276c594b061a0b0f4a49d8bafa6fe251658ee76b2493cc00000000000000000000000000000000094f90cb386f7933b2ffcdba5e46e09cbd7d537c12bc223e76d3a88ce9063a7b3574d3306365d65dd4c6505f1dceea53300679b7be7c71224247e8034f5d30a63f8707d92d843a703f0fa93160f6571500000000000000000000000000000000169d9469c53e55768c9312680ee82ee581727e28cdb1d6fcdca25d0c03f3da2ad6572039f12c90b09cdb843bc506e07200000000000000000000000000000000174528257f6d3542f754ecbe97eeeea7d196ee4dd01852f6cbad87fbeb4dd7d3799588f17aad129a15549bb787468772000000000000000000000000000000000c9ab635bdaca1c488538c0830453ec6ab3b2b62447c03ff6ffd2712bf62e02a63c76c79d41644ea412e733128685c45000000000000000000000000000000000172ef0fda359bab149c8c04f583f4ace4d1b148426e993996d278f79ed2c6d3933d6cc5fb62ec4869aadc773d3084ca0454b01910548432a0f706818a98151e38ff9e854f1faa95ad41a7239b5cc4910000000000000000000000000000000017060fa73b58957d12b3996d67b7baa8b7f0943ad52e80e5c4f8830d33dc74c0a39e08594b647945b402299ca861f7b10000000000000000000000000000000001efdc7f783f9977392e2797a3e0bed222d5b661d056aa0c7e04a493bb9b18048bf72aded134941ece78d63df0a0868d0000000000000000000000000000000011355198320af05f2121939e6489f31e9e13b3cbb2cb30c9e675854cb8ec038f80aa2f4b6f995774b36f5f1b6a84298f00000000000000000000000000000000172e18c490d0cd5ba2449362c0ab296212dbe69ac25515d0f91941d300051320f067f946dcaf999554f55f1f616adc0f3685617371b27ba8898ce7f30776d817ff09ef68a9d6721d4a923ed244ae82060000000000000000000000000000000005854f4dba62d1dbbf3ae16f70792f1bb39f111309b454a6400d2916e619d4f70764ecfda7eae5c28cf1d178ad53fe6d000000000000000000000000000000000ed0bad1f5d69a0e621d137746a9ecc764931ab89f24ca827e0340ddc03571ed697f63e79cc58b946e8462099ce4b1d70000000000000000000000000000000011de76edd1cc2f9ba06b98593a24a7a011f2701b451ea3ccd04361ddb678e06d91a676e3f11b62c68cfc05242cb8a859000000000000000000000000000000000599726b5f5b93d414f9310383ed9414e4675d644f83ebaa63dceb2bddc7dcfcbc17c7aaaccd0ee32b0875952554b4e660cb5aa2a0cd1e8c3fdc06a3a1f6f9b6d52a8cc2e98c85b8e258f72d03efc25400000000000000000000000000000000031110347cbea2756b5fdd549d6c0b8f4036f5718d41dcd6c854a91c9df29bd464774be479d0efcb8a3f82cc7441a6c8000000000000000000000000000000000e24a52dccfdda3689c87395e45dbd46156676d9eb2cc09dab22ef7ff0acf5ea243ff117c82b147994d65aee8605b2fb000000000000000000000000000000000e0cd6ea0bffc591c13c48bca0782fecf8e128b0b842aecb06f803a223d32cc350db869b7a77f8e31b05f36bddd587ea00000000000000000000000000000000042ff4ab4596d610638ad23eea904a82701cdf61f9e2dc5832a70e11e717711a2d0e72f32f74706d385a9567426b4713addb1fe778c84242953db87d2307b40eeb776f17767c3a4311b5d2ffd738f151000000000000000000000000000000001517efd853800946aa37868b525e58fb488bb69755ccec806afca2d21bd3a30ba46c39cdf694ad0ca92841760437c3c1000000000000000000000000000000000e5591c339e88544660380d6362f4119c5596f910d4ceb96ccd4c4d9672efc50805b6fedffa0a48d126aae69b241d3640000000000000000000000000000000010ea5babb0de734641f63eed2eba6124377b5c55e429987917c0bd109d7904766a10b0d2dd123413816d0fbabe25050b0000000000000000000000000000000000efc89ee2ffa56193129062ca55a3350bf50e8fc7d586fae3636a70e3577987fb0f8674d383def4b41225e490d3d81528416b4b4e965a5f024723fbad6ef2f65a1381e70201e26ccb40188dc3d0fae8000000000000000000000000000000000dae4277d62e3f3dfffb80818a5ba5c371a48d73b92d69a168ebab897ae8be206fdf776e9f955136d7f7f7b2903040270000000000000000000000000000000010ca635ee2e49cd6c951d75ffddd11557432726d26564239c611b139329a28812afe21f094c0585675f4f233233743050000000000000000000000000000000012378b2ec31119e508fd9ae0ccc4c2603b6820283284a278fe16864e5a18cf7992d850c1d6ebd1253103c219bd95ca4c0000000000000000000000000000000018cac4f0660240045214034cfd8a7e40bf0aa12f97a23c4e27db0e05bb25f4d755276a91a4e882a0be63437a522943ab78077a51f88236dba6d16d7fd681c631510106b0eb7448df456eb9ce758e74cb0000000000000000000000000000000002fd5571c818322d207d58fe0a898a045a26c95c2490765dc9ac663a0de78ef5fbd05b20ea96dc5388d5b2ccf13a5e320000000000000000000000000000000006ff29ccb768da45061ba4e01c90459ededa5e79513917401e7e37151095ccd4656aeb9cb7c083cf27b69377295934cc000000000000000000000000000000000414d34eac47430495be735eb5c4b1a68372abeb43658f27613a9c8b78f17d9074174a8deeeebb1f9cda5d6198bdf89d0000000000000000000000000000000010b11bf63b8c39c1370e8fdbfdcd149fea88eaf1c0a94a51bdd061e4c41abc626a448030bf9ba880032e9f1642caabae871716e790e1a0120fd26d169b8ffe3fcc0d03683dcdba7d2f953f05444076ce00000000000000000000000000000000023eaa08a44eebae674434b013ae9992c75690a3d0de53e4b05d1c0dff249feb24a12432bcb5defe25ee4e44a56b27eb000000000000000000000000000000000f146ac27e685cca04afe8fc58fe853825f5b0009e8831eb0d0121decec23b25bf8521da2fab1508a3ad8254865fbee70000000000000000000000000000000004af1a525d3c33e0b1629cbdb90c56a88d70a28037c87db81c59bcbc811c8f0b98aa9dd574436c9f600c0e8e2d194c0400000000000000000000000000000000170efb5e0e69e46a21ec3b972265bc04b9d5ee926254f61c0e18fed013922e00f1897cf69889576bb5d54810486e7f2776ed0a27553db6ac6d3959ff4c9bc5807fb7d4f0a56095ed2bbe31dbfa41827700000000000000000000000000000000111c832a96329d6db203fc8b6bb5b7db01521529c91c74d9cd71dc78d067b36cb7eabf1af80129a7a3f44b719235927400000000000000000000000000000000097339c17816795238629d4ca6c243a14e9e227e9bfc30370dbb9e1475f6d03020dc35559675121792436bacdf9eac4a000000000000000000000000000000000805870a1efd1fc34c9b576b77418ee8c0d36aa9caf9994a051e1d55b49275f34cdb55edc74ffc267c5776c8d0e113ed0000000000000000000000000000000001513afdfc2f000e3b725fcd0428fe72ab2413ff2aa91b44458a5249c9a160ee27bca01d2fc2e230f4a80454769961af95ce72b30d989889c8779c4056e441bbcd93629efc2877d36d27f670711e21c4000000000000000000000000000000000485b3b1f812b4a28ac87d16f86d8d634e85d49d6dc460646e1224de662e906002c44a1a269c3bc011fd22afeb2d58df0000000000000000000000000000000013ba0752444a794cd00c99eceae51e61c382d0abb26e5e0e595d59321447400e8a8f7d97390bd217fb50bc22cef34b2300000000000000000000000000000000184515a36024d0bf71d9fa4cc5165363ff94ee9f8579bca653ebc0620a9d3146fba70a2f4a9f6bd3777101de0d32e327000000000000000000000000000000000e041422088c0343f7704e726d65ccc4216c4a1bde3668108983643663cf0249e992f9acde2dd8ff478dd26cd8d9434d06d220f64de05bdd6e1140c1e409fdc13f43bd31cd94e633be38ecf22ebd77db0000000000000000000000000000000005bbb0c55fdbc59992c83fc0ff03f677e58b6de6f8649141d88963ebfead9383d692015a7b765b727eacb6de250351ad00000000000000000000000000000000183057eca610b8e07fffb60d21bf2eb87981e6e881bba04ceff420ca38228fce2f94d40a993e2aef09e209f3990dd14a000000000000000000000000000000001231bc55242bea6b589cedd1d82621fb71c606ca9306b268379dbf83ddb1420dea228ffc05cd8b67c38206f3f006ef18000000000000000000000000000000000f2c943e7a8b0ee00fc4e4ba912b94f68f504d2783babb90a3781b666b31bd161af2f97a77813eab9ebba76040b04155257da8ac7d23c5ed965d8bfc76a642a36ea6ec4c45baf6882021372e8643f09800000000000000000000000000000000054bd97b9cc979006f734ec433e215a4e8afe468e69173384bc895e10ead3749d991ff8ff203abff30bf5cc0d2fc8c6c00000000000000000000000000000000066b73a98d5f5ae140a5784c5594892c849aa7f2db3b5798643f755743d401ca745d810fad5f4a33e5b3cf0fd7d96f7b00000000000000000000000000000000007caea93ff5cc6ffc033717220a215ac4ed7283945ae77e62320a0bde13f2153dc8dd401297cd124b4c67a4f3839dfc00000000000000000000000000000000094568035ffff439e3d3201466f3a1d43414e3f6455627c5479c8b7c55130ccaa5007ace7ef6a2b3e2e5a4c9543dad9163d017ba8c7ed138b1bc70141abc5cdc3afbccd8b1db5a6b5f775efa62b8dbc30000000000000000000000000000000015eeef8bcbfac04112931e186f6fd48b7a8ea891ab364ce8266c5fd15f072f08fb3655e324795df182a5ed1c917a5db000000000000000000000000000000000028916fcb3b30a7f95321a0998e544f9f4f578be7a9f866cf72d6b8baccd93f8935f105ed26aceebb3f9c96073a8be180000000000000000000000000000000012b11f356a7e32f3d9281a8999363aca0ae5c1a058724cefb51583e5f217257d47ca76d21e54ab62260796b95f9d3ad0000000000000000000000000000000000d83c75c36cc8dea4aab47823edd26b4492da39b93a15fa454aed4175f28a025ad2c576ef2d76a66e666bedae95cef1a7a16e23e37ecffd514d47199cff249415a6d366fdfaa82450f0744520258955c",
                        "gasLimit" : "0x6acfc0",
                        "gasPrice" : "0x0a",
                        "nonce" : "0x00",
                        "r" : "0xef6f3e2855a80d6b5aec895a1ccfdd7e7af42c00a4bed0a5557c9f5f7c3c2bd5",
                        "s" : "0x0c95f5e73929e2633dd476b630bfa479a8c37968d0f13ad717b1fcb04799bc07",
                        "sender" : "0xa94f5374fce5edbc8e2a8697c15331677e6ebf0b",
                        "to" : "0x095e7baea6a6c7c4c2dfeb977efac326af552d87",
                        "v" : "0x1c",
                        "value" : "0x03e8"
                    }
                ],
                "uncleHeaders" : [
                ],
                "withdrawals" : [
                ]
            }
        ],
        "genesisBlockHeader" : {
            "baseFeePerGas" : "0x0b",
            "blobGasUsed" : "0x00",
            "bloom" : "0x00000000000000000000000000000000000000000000000000000000000000000000000000000000000000000000000000000000000000000000000000000000000000000000000000000000000000000000000000000000000000000000000000000000000000000000000000000000000000000000000000000000000000000000000000000000000000000000000000000000000000000000000000000000000000000000000000000000000000000000000000000000000000000000000000000000000000000000000000000000000000000000000000000000000000000000000000000000000000000000000000000000000000000000000000000000",
            "coinbase" : "0x2adc25665018aa1fe0e6bc666dac8fc2697ff9ba",
            "difficulty" : "0x00",
            "excessBlobGas" : "0x060000",
            "extraData" : "0x00",
            "gasLimit" : "0xff112233445566",
            "gasUsed" : "0x00",
            "hash" : "0xc9cb4ed0dc693e89844b5a27d709ebd577e6a8380102855ef905d3d2d81ac0e5",
            "mixHash" : "0x0000000000000000000000000000000000000000000000000000000000020000",
            "nonce" : "0x0000000000000000",
            "number" : "0x00",
            "parentBeaconBlockRoot" : "0x0000000000000000000000000000000000000000000000000000000000000000",
            "parentHash" : "0x0000000000000000000000000000000000000000000000000000000000000000",
            "receiptTrie" : "0x56e81f171bcc55a6ff8345e692c0f86e5b48e01b996cadc001622fb5e363b421",
            "stateRoot" : "0x00059c610e858a345663eede1b974d037c154e4b4bb16a01ea2fd48a4d67bf65",
            "timestamp" : "0x00",
            "transactionsTrie" : "0x56e81f171bcc55a6ff8345e692c0f86e5b48e01b996cadc001622fb5e363b421",
            "uncleHash" : "0x1dcc4de8dec75d7aab85b567b6ccd41ad312451b948a7413f0a142fd40d49347",
            "withdrawalsRoot" : "0x56e81f171bcc55a6ff8345e692c0f86e5b48e01b996cadc001622fb5e363b421"
        },
        "genesisRLP" : "0xf90242f9023ca00000000000000000000000000000000000000000000000000000000000000000a01dcc4de8dec75d7aab85b567b6ccd41ad312451b948a7413f0a142fd40d49347942adc25665018aa1fe0e6bc666dac8fc2697ff9baa000059c610e858a345663eede1b974d037c154e4b4bb16a01ea2fd48a4d67bf65a056e81f171bcc55a6ff8345e692c0f86e5b48e01b996cadc001622fb5e363b421a056e81f171bcc55a6ff8345e692c0f86e5b48e01b996cadc001622fb5e363b421b9010000000000000000000000000000000000000000000000000000000000000000000000000000000000000000000000000000000000000000000000000000000000000000000000000000000000000000000000000000000000000000000000000000000000000000000000000000000000000000000000000000000000000000000000000000000000000000000000000000000000000000000000000000000000000000000000000000000000000000000000000000000000000000000000000000000000000000000000000000000000000000000000000000000000000000000000000000000000000000000000000000000000000000000000000000000000808087ff112233445566808000a000000000000000000000000000000000000000000000000000000000000200008800000000000000000ba056e81f171bcc55a6ff8345e692c0f86e5b48e01b996cadc001622fb5e363b4218083060000a00000000000000000000000000000000000000000000000000000000000000000c0c0c0",
        "lastblockhash" : "0x0d24f9d5170c8d64cb600aad0036e109572ed53bf9e05edcd83e011e3be8c3e7",
        "network" : "Prague",
        "postState" : {
            "0x000f3df6d732807ef1319fb7b8bb8522d0beac02" : {
                "balance" : "0x00",
                "code" : "0x3373fffffffffffffffffffffffffffffffffffffffe14604d57602036146024575f5ffd5b5f35801560495762001fff810690815414603c575f5ffd5b62001fff01545f5260205ff35b5f5ffd5b62001fff42064281555f359062001fff015500",
                "nonce" : "0x01",
                "storage" : {
                    "0x03e8" : "0x03e8"
                }
            },
            "0x095e7baea6a6c7c4c2dfeb977efac326af552d87" : {
                "balance" : "0x03e8",
                "code" : "0x60806040526004361061001e5760003560e01c806312bd429914610023575b600080fd5b6100fc6004803603604081101561003957600080fd5b81019080803573ffffffffffffffffffffffffffffffffffffffff1690602001909291908035906020019064010000000081111561007657600080fd5b82018360208201111561008857600080fd5b803590602001918460018302840111640100000000831117156100aa57600080fd5b91908080601f016020809104026020016040519081016040528093929190818152602001838380828437600081840152601f19601f820116905080830192505050505050509192919290505050610182565b604051808315151515815260200180602001828103825283818151815260200191508051906020019080838360005b8381101561014657808201518184015260208101905061012b565b50505050905090810190601f1680156101735780820380516001836020036101000a031916815260200191505b50935050505060405180910390f35b600060608373ffffffffffffffffffffffffffffffffffffffff16836040518082805190602001908083835b602083106101d157805182526020820191506020810190506020830392506101ae565b6001836020036101000a038019825116818451168082178552505050505050905001915050600060405180830381855afa9150503d8060008114610231576040519150601f19603f3d011682016040523d82523d6000602084013e610236565b606091505b508092508193505050600060405180807f6572726f72000000000000000000000000000000000000000000000000000000815250600501905060405180910390209050821561028a57818051906020012090505b8060025582829250925050925092905056fea2646970667358221220db58d80e8530eed625d9b4250a6055c2eb1d7c117a7ca267e6f8a059bdd2f39e64736f6c634300060a0033",
                "nonce" : "0x01",
                "storage" : {
                    "0x02" : "0x973188c7cb28c13f3091a237523eb7b06d52efe81fd177c6fb886706af2dfa4b"
                }
            },
            "0xa94f5374fce5edbc8e2a8697c15331677e6ebf0b" : {
                "balance" : "0x0de0b6b3a72ccca2",
                "code" : "0x",
                "nonce" : "0x01",
                "storage" : {
                }
            }
        },
        "pre" : {
            "0x000f3df6d732807ef1319fb7b8bb8522d0beac02" : {
                "balance" : "0x00",
                "code" : "0x3373fffffffffffffffffffffffffffffffffffffffe14604d57602036146024575f5ffd5b5f35801560495762001fff810690815414603c575f5ffd5b62001fff01545f5260205ff35b5f5ffd5b62001fff42064281555f359062001fff015500",
                "nonce" : "0x01",
                "storage" : {
                }
            },
            "0x095e7baea6a6c7c4c2dfeb977efac326af552d87" : {
                "balance" : "0x00",
                "code" : "0x60806040526004361061001e5760003560e01c806312bd429914610023575b600080fd5b6100fc6004803603604081101561003957600080fd5b81019080803573ffffffffffffffffffffffffffffffffffffffff1690602001909291908035906020019064010000000081111561007657600080fd5b82018360208201111561008857600080fd5b803590602001918460018302840111640100000000831117156100aa57600080fd5b91908080601f016020809104026020016040519081016040528093929190818152602001838380828437600081840152601f19601f820116905080830192505050505050509192919290505050610182565b604051808315151515815260200180602001828103825283818151815260200191508051906020019080838360005b8381101561014657808201518184015260208101905061012b565b50505050905090810190601f1680156101735780820380516001836020036101000a031916815260200191505b50935050505060405180910390f35b600060608373ffffffffffffffffffffffffffffffffffffffff16836040518082805190602001908083835b602083106101d157805182526020820191506020810190506020830392506101ae565b6001836020036101000a038019825116818451168082178552505050505050905001915050600060405180830381855afa9150503d8060008114610231576040519150601f19603f3d011682016040523d82523d6000602084013e610236565b606091505b508092508193505050600060405180807f6572726f72000000000000000000000000000000000000000000000000000000815250600501905060405180910390209050821561028a57818051906020012090505b8060025582829250925050925092905056fea2646970667358221220db58d80e8530eed625d9b4250a6055c2eb1d7c117a7ca267e6f8a059bdd2f39e64736f6c634300060a0033",
                "nonce" : "0x01",
                "storage" : {
                }
            },
            "0xa94f5374fce5edbc8e2a8697c15331677e6ebf0b" : {
                "balance" : "0x0de0b6b3a7640000",
                "code" : "0x",
                "nonce" : "0x00",
                "storage" : {
                }
            }
        },
        "sealEngine" : "NoProof"
    }
}