{
    "g2_multiexp_21_d0g0v0_Prague" : {
        "_info" : {
            "comment" : "A test for g2_multiexp_21",
            "filling-rpc-server" : "evm version 1.14.0-unstable-a208e725-20240416",
            "filling-tool-version" : "retesteth-0.3.2-cancun+commit.353b2b37.Linux.g++",
            "generatedTestHash" : "089e52ce163efedc53420a1303d2688b0adbe716df8e23fc50c367b7ab4fcbc5",
            "lllcversion" : "Version: 0.5.14-develop.2023.7.11+commit.c58ab2c6.mod.Linux.g++",
            "solidity" : "Version: 0.8.21+commit.d9974bed.Linux.g++",
            "source" : "src/EIPTestsFiller/StateTests/stEIP2537/g2_multiexp_21Filler.json",
            "sourceHash" : "aec20d7fe42261fadcf87c3d8858c6c27f19ab7aeed4bcfef8205a9f6b10357c"
        },
        "blocks" : [
            {
                "blockHeader" : {
                    "baseFeePerGas" : "0x0a",
                    "blobGasUsed" : "0x00",
                    "bloom" : "0x00000000000000000000000000000000000000000000000000000000000000000000000000000000000000000000000000000000000000000000000000000000000000000000000000000000000000000000000000000000000000000000000000000000000000000000000000000000000000000000000000000000000000000000000000000000000000000000000000000000000000000000000000000000000000000000000000000000000000000000000000000000000000000000000000000000000000000000000000000000000000000000000000000000000000000000000000000000000000000000000000000000000000000000000000000000",
                    "coinbase" : "0x2adc25665018aa1fe0e6bc666dac8fc2697ff9ba",
                    "difficulty" : "0x00",
                    "excessBlobGas" : "0x00",
                    "extraData" : "0x00",
                    "gasLimit" : "0xff112233445566",
                    "gasUsed" : "0x05849b",
                    "hash" : "0xa301651e538fda1672209d358cb9b8ccd70b70cd87dbcd8f2d828440982936ee",
                    "mixHash" : "0x0000000000000000000000000000000000000000000000000000000000020000",
                    "nonce" : "0x0000000000000000",
                    "number" : "0x01",
                    "parentBeaconBlockRoot" : "0x0000000000000000000000000000000000000000000000000000000000000000",
                    "parentHash" : "0xc9cb4ed0dc693e89844b5a27d709ebd577e6a8380102855ef905d3d2d81ac0e5",
                    "receiptTrie" : "0x2451b7f967339dba2a458a8320218531ddaad6f57213fbc771b9a69367deaa35",
                    "stateRoot" : "0x8fb40925cb2fee1b9f168d08463c0be8a70685706afe375f071dbb270a42f8d0",
                    "timestamp" : "0x03e8",
                    "transactionsTrie" : "0xf3334b7a48e02814c1d2b35870a67aea8ac9e47e6ed4d0b88ca8bdb43374ce1f",
                    "uncleHash" : "0x1dcc4de8dec75d7aab85b567b6ccd41ad312451b948a7413f0a142fd40d49347",
                    "withdrawalsRoot" : "0x56e81f171bcc55a6ff8345e692c0f86e5b48e01b996cadc001622fb5e363b421"
                },
                "rlp" : "0xf91511f9023ea0c9cb4ed0dc693e89844b5a27d709ebd577e6a8380102855ef905d3d2d81ac0e5a01dcc4de8dec75d7aab85b567b6ccd41ad312451b948a7413f0a142fd40d49347942adc25665018aa1fe0e6bc666dac8fc2697ff9baa08fb40925cb2fee1b9f168d08463c0be8a70685706afe375f071dbb270a42f8d0a0f3334b7a48e02814c1d2b35870a67aea8ac9e47e6ed4d0b88ca8bdb43374ce1fa02451b7f967339dba2a458a8320218531ddaad6f57213fbc771b9a69367deaa35b9010000000000000000000000000000000000000000000000000000000000000000000000000000000000000000000000000000000000000000000000000000000000000000000000000000000000000000000000000000000000000000000000000000000000000000000000000000000000000000000000000000000000000000000000000000000000000000000000000000000000000000000000000000000000000000000000000000000000000000000000000000000000000000000000000000000000000000000000000000000000000000000000000000000000000000000000000000000000000000000000000000000000000000000000000000000000800187ff1122334455668305849b8203e800a000000000000000000000000000000000000000000000000000000000000200008800000000000000000aa056e81f171bcc55a6ff8345e692c0f86e5b48e01b996cadc001622fb5e363b4218080a00000000000000000000000000000000000000000000000000000000000000000f912cbf912c8800a836acfc094095e7baea6a6c7c4c2dfeb977efac326af552d878203e8b9126412bd429900000000000000000000000000000000000000000000000000000000000000100000000000000000000000000000000000000000000000000000000000000040000000000000000000000000000000000000000000000000000000000000120000000000000000000000000000000000012a6984f0f8967c5ae6b13569a62095b5fe61ec607daff1845961bdd827c00fd56ef864802673dd21d90560fef6cbea00000000000000000000000000000000085ececa080d0f4c996d46c80a1fbad2ac9cff8b3e324aabb67182d79f941927050f025b633fd5119f30bb29b8e4b6f2000000000000000000000000000000000987518a5edfd5ae2616fc60000e117a4f1dd1db68195c3fb68d8cc639e4200945b2864d41ad86fb3e11c504fc1f9766000000000000000000000000000000000310939c7e11b93e5773cfd36fa70020c85396e525840742f994110e20019769abcd339db6881291639c193b987b68ae94b3c88e51af5822177b85978526036a426c9ca1077d594618ebb8fac4cdfc89000000000000000000000000000000000ec6922dfc74009c3750ce2540558c7c1e05cb45a5d651b96427c615d8fc563219215a0ee431c0a4827e40b26c4f8d3900000000000000000000000000000000040a4189d002a0e1ec600e71303575e82414e6400f06b9abf57151a28835d454f56421a6dc4049902bfb94dc0e9967ee000000000000000000000000000000000dfefc7c163c34cc004e9d97d812b2717d4736d0d1c722b6bf1a29676a32c8b46878d05a2d137cb7fff5fed8c0f02474000000000000000000000000000000000e3f0c9cbc778693c8ba88af8306d45477493ed6be1bdd9c81c65341239eb510fc948142cc30b73f570819b38f13e20f6e456b39f4efe6581657f5c701c696fde8acb59e856943f15cdd639c1fa68ed70000000000000000000000000000000013705ca4ecca16559713df65b376c7c5825b4f63d001ebbfce9cd1b592af5f2ddb38ac7c5ce3c5f7af4f39f909887e8b00000000000000000000000000000000179efff38ea1044e91ccad467cd2b49438079ccb4d0fc692e79e0bc374abe064fb9979c4a1f4b92c15cd1b042b501d5f000000000000000000000000000000000b6fda2dbf6339af225515681184843f1a9bcd72f7b1389f186f8d0e048ac16e20967c28e087cf09d7bcac597a85398d000000000000000000000000000000001946fca8c816e1e11187aabc40dd2436533d537ce4639eb2d08630ed2ce402c1806b6c2b3e04a960408fd4d2049849bae5d306f46a31c14de7b2940104d0a4424ebaff805a81f1c4a910566057c81604000000000000000000000000000000001802064095d029d3897725eeb93ed6e3b090390769026120aab6977d0de264a262aa312c5777ba322c9eac29e5396fc6000000000000000000000000000000001410f17820941e6a67b1b4993496cdcf0d4fa2d4fda3d43ee985f2606b1408aa9c9ce412c80c90a0c876cb5ecb76878c000000000000000000000000000000001514e9b2c65ca86713447f2d5bb8395fe8552e059829afc68bc43ba9267ef41ec6d69d06e7407a731bcca77ed5d9716f00000000000000000000000000000000025b5bb18cad46179fab15b2ccef17858f9259a90ea4548852b8c6fca69f0ecdf0b175669bacff1625a7143e762514194ff6d13bb0967945ff3b6fbbc104296805e4fedc3c25bb55b75cc997834de6b700000000000000000000000000000000146eaf5da57b6ac788f8caeb4b2ebf7c8999e03dd839977046ca834fffa7e57cd949e3fd44999a007b5dcf3c8621ba2f000000000000000000000000000000000d859632d3424ffe4227ae14856e05c4e750545cf276c97aa9ec03ebde334144eea670dc68e92b61fc775e477a2154040000000000000000000000000000000010b44279c0c80886e52fde5e71726422da2f9457ff86b21426d80356fad95d5ff3a7491002364d9de5ca99c2500f344d000000000000000000000000000000000851b769a691f0ebb53ee3693833881fed8dc6d9e5f1dfeaf4ab1aa7ad54e2fcac246b70d81110451ed78044a98d1547de4fb2dea292b76d8130e6aa8aff5edf0097de935b252d42a777d4d9b8615ef100000000000000000000000000000000131c9a76109929fc977a0a6eda0a7c71cfc744f5f3654e2221ce84c70787598e24c5d8049f92a7c4d78fdb869cbdd1ed00000000000000000000000000000000049872d2c7d472e090d2975daa64fd96f33e7f934e739633b1d7fcd5e771673ed8820752a0d5c8b0c6933318293a4f27000000000000000000000000000000000dd68fbb592a3957ef893180dd758f75978042add36c91b7bf87c4493b0baa875e1854fbc09e6856688cc241b76ab5a20000000000000000000000000000000006143699816cad8ab7583a72b6064fadb6caeb51c8625ddbf7b2911426cf438534da1bdd13e22cd545495c486c9733f7bac5c50a3a8a37111114c22839c88ce4072940c06f0d8b6d53fed155d0399ed70000000000000000000000000000000006c14301984607d569ad1bd774135e7c9e328be1fe54c3b543276bd06bc0bfff11f299a5eb43b5218c3605011d0ea6d80000000000000000000000000000000012f0a848022f95f4884380a5b8e3637a41e3c399a8d2765aada85dcf4b7c2b559122f792850430681a58ca153be2768a0000000000000000000000000000000016b4cb233e1bd59b7b362c64620eaaa5029c173a05e2278774ad6ed746c70a2f6e76c237182f5d9d790966ae69da5d44000000000000000000000000000000000c277d54a7a72c8528188f6cf29d934cc66471607e5e30d493cd11be6b203bdf734aaf37b686cd7101e8599b69446991c3f37387bad1af3a896a7e66a80dfce2df1709fa252b6fbe4334d02bdced432900000000000000000000000000000000169a3928266375dd5793b7504727f939ef0ed52d69e569b1b75a0e094698b37bc70472578beaeebfd0c3df4bce6177810000000000000000000000000000000008936d470dbb86db1567bb2fe7c09971c6d12b07208d9b1b403c20fbdc05ef8984dd576457fc6989470e40ebfe4ceed30000000000000000000000000000000009cdec9d80f2bf3ebfa9a3316e4250741d0d089245df2fd3c9bba4bac1c2dadfe212682166a0962f78c4bf25b618da900000000000000000000000000000000016521411286cabf3fa2c8f72ca62ca311738fbe63717fd12916a4c9e6af9b05d1f5d65cf60e84d9fc5f7b7645fe9bad570fbf5da3959a49fab7e97b3df3f2a38d16d714dd798a1f04ec2cbf84fce76910000000000000000000000000000000006a827f6149a320a74d9d8c1ae8861c1cb963b3eff899710eda642dae6ed4dbc247a22131758d9f843c62710ce083208000000000000000000000000000000000c83a9fd96bcfd4adcfc6d5a47e84108bd763366e91bf06a7431c6c3a107cbe5647da99ee6c1e57c376d366b21a923df000000000000000000000000000000001604d5c0364afb5503b0e1d52226988d7f7f043ce95e7c0a09d7f96e24a58f089156f0e6d19022138170c1b4b7dd33560000000000000000000000000000000019a11c86f78ce462f46e0462052cc3d342596b329fb62a282a59bbd64c345bd266922b1540e40aac147681754643c2e3e538bcefab5d8d0be5fc143e632e86fc065af3f2f621f293b914980abfd6a0c70000000000000000000000000000000015635de295c16841bf44c73639f047f735175e8906301746837838d124bf0d2a1ebaee142393ce9a0d58107c7cb036e90000000000000000000000000000000004fbbd4252fb901d0737d1bf4da62010c06d690a9584c7631ef5d36f1d8c37486a83f2a1e2db21f05c993fd117c662e8000000000000000000000000000000000f4cfcec1545a08e0e0298753ebcef5f61bfdb7c1b9af71cb4c2f783e4fa3948945d357e8302d99aca96df0cb0fc01a3000000000000000000000000000000000f543dad6d4b797f6fe0b00215a5f70f6340ac6bf7cb0bdfc5bc7698dbf0647e4098413dd19ca7af01685edaaa190c6e30b921d8cd2ca46aa6f3e0dc6ff08d77972fb0a248bd39e90a1e9f32be9e892a000000000000000000000000000000000ed552e94021d0912a0e7563462570cb572b189569eb847bd12ebf976d22343b9ad04d400ae98fa184b10ff36720f12700000000000000000000000000000000178727c3e6ff33be9894ef26347b104023ea0bcf79c1a33afc26ac0ee9879344964fada757118829214cfcdbbc0c5a30000000000000000000000000000000000b0a6a575afe5b0c1e287815612fdd3838ab39e8ee7795855837588614715f6687910c42217ad52c1b8721a9e1c908dd0000000000000000000000000000000018cdbf244c78cae1993400ae164b42c09dab4d8e3707a69e25ffa8d0b96b8270c022c0375f933f16f45c9274132a0a633a5ccd9436b15d4d04a8ee9894c116190062c4e7cfabb047b585f3aa1eeb460500000000000000000000000000000000070636611f903f55cc9499481bc3415a6de62d5e6bf8bfa82a8ce665f85bcf01690118441961ff46ff701e361db208500000000000000000000000000000000013d22dff8f6f86f659ad17ef91d90a70c180538f03e10de20c445d22e637015d51a311a3daaed90712d04c9a3d992d12000000000000000000000000000000000db3535057db95fc262f8adfd7f08f3237fde5f0e2aab589d4ddcd9c23aadc437e13644dd3b3534dcb17936a7c610cf200000000000000000000000000000000044c177d4484c07fb04d1dd477b188a2c157973cf26075001d14d2b07ebb9dbf8e495dc23b32a2419621e1c129b08c5ac7a5bf2cfedd7048be7ac7d2ff19d4f8bf0a94295ebdc5e792393e0e4bc27d56000000000000000000000000000000000e10fd069f2f5fddaa0112e70ae89d1ecf034defb24e2923731a7c0068780177c186fde92a3c254a1cbdd255111a4b7c0000000000000000000000000000000018363e01e86e2e922ba435651ad892bf9288be14b54dda821c397ae6167f9478c8132e92b1c2cb0c4037a4e020f08291000000000000000000000000000000000301b5ad2d5c35ebdcc7e7cd1ebf0405cf204d6f5e30ae6f46d20534eb6d7013682c5ae1bba76d2811124ebded0d2a590000000000000000000000000000000015fb3a8afad778031d04e094cbde5f02dcc89ad7b7d452c6c8f41be336a4c8b26e75cfc685b8776cbe5a487f09c304083563651d5f5729a0ffca6b383d884823aa3b0215fa057bffd8142199a16e4ffe000000000000000000000000000000000a7880b00f6a3e959ff1bd207fa503eff6e7279e701e37b40735e2bc8bf49e355e92edcaf23aa3654bb26fbfb07b5fb100000000000000000000000000000000113d9b792f4e3dcd958664a8778dc4b177c430d8db9da7805595e40293ef2c0a40f7a843bfa70ec134ed89a453f9da50000000000000000000000000000000000d7f92148dca4a9c96c47a0eb284f1834cf3d141be7c0d9a7a060af6e28e45620d8255e465e9a0d8f78b2ffe17d6b04e0000000000000000000000000000000004e7917a8f3070c656d324c9a816236842fbd6147d326652667e7bca0666d214233ed136dd9464c4ac619d46c28e2393833323c3a668541ceba18375531c3781dd98525b49dafce4c4b3188c90f3f4b500000000000000000000000000000000160cb05390b54151f6b154b396bb400a91fa83d77fabdf31fba349d1bf3b5dfb6476ad4d714af2a2963e41b077bffcb90000000000000000000000000000000012885f7ec8e780cbaa90a465b5706cf07d45bda7755ae3477c79adbd7956b926e0ef5303fc13f0b97349ff8b754dab500000000000000000000000000000000009ad7509e9e7f5018ae3d1280e881ec12129cbf825cb6606459211ed7b358a97cbe430e94dd9f5e4f6b74fb7287f862e0000000000000000000000000000000014d5d2ac2dbc3d5a061f4e52dbfa68e1eb1d3c818ba26686a3171e310c63cfeb188030b83407070019dc5c42dd079413d422e21fbffa7d55270eca9c96bbefa29dd915aca266071673e970daa0ca9c050000000000000000000000000000000008ee93fc610712411634079be0bd96c3969b48955fe5478b7a31c3ba7639c18291034167eb62e6b15c16b0dd5145edf500000000000000000000000000000000158cb1731b71905d7b958c5407f090a2c8a9319017719da143a3f4f3fb3982abb83b8dfe14facb014321b4f5edb5e41d000000000000000000000000000000000a9f98f775f06055ac1f137cbc1f95f4afa0d1c4935f536ba2e0569d874d9d76b7b86f71afcea07e2e785c7a6ee1c84400000000000000000000000000000000072f8988dd1ab0fa8037d3620068b34848c65e20dfc90612d123b6f9dbcf9d9d699d5ea73739d31ad54c22116365ab983ba7ea9ffda87131452b24a9efcdc91d1262d0d7550e5a6b787eace3577159b01ba04dbfe7a8a51391628111609d920d13f136ce55c6e84c3007d11825795766d7d4a05abf0fc647854b395abc13877402eded2f0e9110a84e34bf3831d4105c78bf11c0c0",
                "transactions" : [
                    {
                        "data" : "0x12bd429900000000000000000000000000000000000000000000000000000000000000100000000000000000000000000000000000000000000000000000000000000040000000000000000000000000000000000000000000000000000000000000120000000000000000000000000000000000012a6984f0f8967c5ae6b13569a62095b5fe61ec607daff1845961bdd827c00fd56ef864802673dd21d90560fef6cbea00000000000000000000000000000000085ececa080d0f4c996d46c80a1fbad2ac9cff8b3e324aabb67182d79f941927050f025b633fd5119f30bb29b8e4b6f2000000000000000000000000000000000987518a5edfd5ae2616fc60000e117a4f1dd1db68195c3fb68d8cc639e4200945b2864d41ad86fb3e11c504fc1f9766000000000000000000000000000000000310939c7e11b93e5773cfd36fa70020c85396e525840742f994110e20019769abcd339db6881291639c193b987b68ae94b3c88e51af5822177b85978526036a426c9ca1077d594618ebb8fac4cdfc89000000000000000000000000000000000ec6922dfc74009c3750ce2540558c7c1e05cb45a5d651b96427c615d8fc563219215a0ee431c0a4827e40b26c4f8d3900000000000000000000000000000000040a4189d002a0e1ec600e71303575e82414e6400f06b9abf57151a28835d454f56421a6dc4049902bfb94dc0e9967ee000000000000000000000000000000000dfefc7c163c34cc004e9d97d812b2717d4736d0d1c722b6bf1a29676a32c8b46878d05a2d137cb7fff5fed8c0f02474000000000000000000000000000000000e3f0c9cbc778693c8ba88af8306d45477493ed6be1bdd9c81c65341239eb510fc948142cc30b73f570819b38f13e20f6e456b39f4efe6581657f5c701c696fde8acb59e856943f15cdd639c1fa68ed70000000000000000000000000000000013705ca4ecca16559713df65b376c7c5825b4f63d001ebbfce9cd1b592af5f2ddb38ac7c5ce3c5f7af4f39f909887e8b00000000000000000000000000000000179efff38ea1044e91ccad467cd2b49438079ccb4d0fc692e79e0bc374abe064fb9979c4a1f4b92c15cd1b042b501d5f000000000000000000000000000000000b6fda2dbf6339af225515681184843f1a9bcd72f7b1389f186f8d0e048ac16e20967c28e087cf09d7bcac597a85398d000000000000000000000000000000001946fca8c816e1e11187aabc40dd2436533d537ce4639eb2d08630ed2ce402c1806b6c2b3e04a960408fd4d2049849bae5d306f46a31c14de7b2940104d0a4424ebaff805a81f1c4a910566057c81604000000000000000000000000000000001802064095d029d3897725eeb93ed6e3b090390769026120aab6977d0de264a262aa312c5777ba322c9eac29e5396fc6000000000000000000000000000000001410f17820941e6a67b1b4993496cdcf0d4fa2d4fda3d43ee985f2606b1408aa9c9ce412c80c90a0c876cb5ecb76878c000000000000000000000000000000001514e9b2c65ca86713447f2d5bb8395fe8552e059829afc68bc43ba9267ef41ec6d69d06e7407a731bcca77ed5d9716f00000000000000000000000000000000025b5bb18cad46179fab15b2ccef17858f9259a90ea4548852b8c6fca69f0ecdf0b175669bacff1625a7143e762514194ff6d13bb0967945ff3b6fbbc104296805e4fedc3c25bb55b75cc997834de6b700000000000000000000000000000000146eaf5da57b6ac788f8caeb4b2ebf7c8999e03dd839977046ca834fffa7e57cd949e3fd44999a007b5dcf3c8621ba2f000000000000000000000000000000000d859632d3424ffe4227ae14856e05c4e750545cf276c97aa9ec03ebde334144eea670dc68e92b61fc775e477a2154040000000000000000000000000000000010b44279c0c80886e52fde5e71726422da2f9457ff86b21426d80356fad95d5ff3a7491002364d9de5ca99c2500f344d000000000000000000000000000000000851b769a691f0ebb53ee3693833881fed8dc6d9e5f1dfeaf4ab1aa7ad54e2fcac246b70d81110451ed78044a98d1547de4fb2dea292b76d8130e6aa8aff5edf0097de935b252d42a777d4d9b8615ef100000000000000000000000000000000131c9a76109929fc977a0a6eda0a7c71cfc744f5f3654e2221ce84c70787598e24c5d8049f92a7c4d78fdb869cbdd1ed00000000000000000000000000000000049872d2c7d472e090d2975daa64fd96f33e7f934e739633b1d7fcd5e771673ed8820752a0d5c8b0c6933318293a4f27000000000000000000000000000000000dd68fbb592a3957ef893180dd758f75978042add36c91b7bf87c4493b0baa875e1854fbc09e6856688cc241b76ab5a20000000000000000000000000000000006143699816cad8ab7583a72b6064fadb6caeb51c8625ddbf7b2911426cf438534da1bdd13e22cd545495c486c9733f7bac5c50a3a8a37111114c22839c88ce4072940c06f0d8b6d53fed155d0399ed70000000000000000000000000000000006c14301984607d569ad1bd774135e7c9e328be1fe54c3b543276bd06bc0bfff11f299a5eb43b5218c3605011d0ea6d80000000000000000000000000000000012f0a848022f95f4884380a5b8e3637a41e3c399a8d2765aada85dcf4b7c2b559122f792850430681a58ca153be2768a0000000000000000000000000000000016b4cb233e1bd59b7b362c64620eaaa5029c173a05e2278774ad6ed746c70a2f6e76c237182f5d9d790966ae69da5d44000000000000000000000000000000000c277d54a7a72c8528188f6cf29d934cc66471607e5e30d493cd11be6b203bdf734aaf37b686cd7101e8599b69446991c3f37387bad1af3a896a7e66a80dfce2df1709fa252b6fbe4334d02bdced432900000000000000000000000000000000169a3928266375dd5793b7504727f939ef0ed52d69e569b1b75a0e094698b37bc70472578beaeebfd0c3df4bce6177810000000000000000000000000000000008936d470dbb86db1567bb2fe7c09971c6d12b07208d9b1b403c20fbdc05ef8984dd576457fc6989470e40ebfe4ceed30000000000000000000000000000000009cdec9d80f2bf3ebfa9a3316e4250741d0d089245df2fd3c9bba4bac1c2dadfe212682166a0962f78c4bf25b618da900000000000000000000000000000000016521411286cabf3fa2c8f72ca62ca311738fbe63717fd12916a4c9e6af9b05d1f5d65cf60e84d9fc5f7b7645fe9bad570fbf5da3959a49fab7e97b3df3f2a38d16d714dd798a1f04ec2cbf84fce76910000000000000000000000000000000006a827f6149a320a74d9d8c1ae8861c1cb963b3eff899710eda642dae6ed4dbc247a22131758d9f843c62710ce083208000000000000000000000000000000000c83a9fd96bcfd4adcfc6d5a47e84108bd763366e91bf06a7431c6c3a107cbe5647da99ee6c1e57c376d366b21a923df000000000000000000000000000000001604d5c0364afb5503b0e1d52226988d7f7f043ce95e7c0a09d7f96e24a58f089156f0e6d19022138170c1b4b7dd33560000000000000000000000000000000019a11c86f78ce462f46e0462052cc3d342596b329fb62a282a59bbd64c345bd266922b1540e40aac147681754643c2e3e538bcefab5d8d0be5fc143e632e86fc065af3f2f621f293b914980abfd6a0c70000000000000000000000000000000015635de295c16841bf44c73639f047f735175e8906301746837838d124bf0d2a1ebaee142393ce9a0d58107c7cb036e90000000000000000000000000000000004fbbd4252fb901d0737d1bf4da62010c06d690a9584c7631ef5d36f1d8c37486a83f2a1e2db21f05c993fd117c662e8000000000000000000000000000000000f4cfcec1545a08e0e0298753ebcef5f61bfdb7c1b9af71cb4c2f783e4fa3948945d357e8302d99aca96df0cb0fc01a3000000000000000000000000000000000f543dad6d4b797f6fe0b00215a5f70f6340ac6bf7cb0bdfc5bc7698dbf0647e4098413dd19ca7af01685edaaa190c6e30b921d8cd2ca46aa6f3e0dc6ff08d77972fb0a248bd39e90a1e9f32be9e892a000000000000000000000000000000000ed552e94021d0912a0e7563462570cb572b189569eb847bd12ebf976d22343b9ad04d400ae98fa184b10ff36720f12700000000000000000000000000000000178727c3e6ff33be9894ef26347b104023ea0bcf79c1a33afc26ac0ee9879344964fada757118829214cfcdbbc0c5a30000000000000000000000000000000000b0a6a575afe5b0c1e287815612fdd3838ab39e8ee7795855837588614715f6687910c42217ad52c1b8721a9e1c908dd0000000000000000000000000000000018cdbf244c78cae1993400ae164b42c09dab4d8e3707a69e25ffa8d0b96b8270c022c0375f933f16f45c9274132a0a633a5ccd9436b15d4d04a8ee9894c116190062c4e7cfabb047b585f3aa1eeb460500000000000000000000000000000000070636611f903f55cc9499481bc3415a6de62d5e6bf8bfa82a8ce665f85bcf01690118441961ff46ff701e361db208500000000000000000000000000000000013d22dff8f6f86f659ad17ef91d90a70c180538f03e10de20c445d22e637015d51a311a3daaed90712d04c9a3d992d12000000000000000000000000000000000db3535057db95fc262f8adfd7f08f3237fde5f0e2aab589d4ddcd9c23aadc437e13644dd3b3534dcb17936a7c610cf200000000000000000000000000000000044c177d4484c07fb04d1dd477b188a2c157973cf26075001d14d2b07ebb9dbf8e495dc23b32a2419621e1c129b08c5ac7a5bf2cfedd7048be7ac7d2ff19d4f8bf0a94295ebdc5e792393e0e4bc27d56000000000000000000000000000000000e10fd069f2f5fddaa0112e70ae89d1ecf034defb24e2923731a7c0068780177c186fde92a3c254a1cbdd255111a4b7c0000000000000000000000000000000018363e01e86e2e922ba435651ad892bf9288be14b54dda821c397ae6167f9478c8132e92b1c2cb0c4037a4e020f08291000000000000000000000000000000000301b5ad2d5c35ebdcc7e7cd1ebf0405cf204d6f5e30ae6f46d20534eb6d7013682c5ae1bba76d2811124ebded0d2a590000000000000000000000000000000015fb3a8afad778031d04e094cbde5f02dcc89ad7b7d452c6c8f41be336a4c8b26e75cfc685b8776cbe5a487f09c304083563651d5f5729a0ffca6b383d884823aa3b0215fa057bffd8142199a16e4ffe000000000000000000000000000000000a7880b00f6a3e959ff1bd207fa503eff6e7279e701e37b40735e2bc8bf49e355e92edcaf23aa3654bb26fbfb07b5fb100000000000000000000000000000000113d9b792f4e3dcd958664a8778dc4b177c430d8db9da7805595e40293ef2c0a40f7a843bfa70ec134ed89a453f9da50000000000000000000000000000000000d7f92148dca4a9c96c47a0eb284f1834cf3d141be7c0d9a7a060af6e28e45620d8255e465e9a0d8f78b2ffe17d6b04e0000000000000000000000000000000004e7917a8f3070c656d324c9a816236842fbd6147d326652667e7bca0666d214233ed136dd9464c4ac619d46c28e2393833323c3a668541ceba18375531c3781dd98525b49dafce4c4b3188c90f3f4b500000000000000000000000000000000160cb05390b54151f6b154b396bb400a91fa83d77fabdf31fba349d1bf3b5dfb6476ad4d714af2a2963e41b077bffcb90000000000000000000000000000000012885f7ec8e780cbaa90a465b5706cf07d45bda7755ae3477c79adbd7956b926e0ef5303fc13f0b97349ff8b754dab500000000000000000000000000000000009ad7509e9e7f5018ae3d1280e881ec12129cbf825cb6606459211ed7b358a97cbe430e94dd9f5e4f6b74fb7287f862e0000000000000000000000000000000014d5d2ac2dbc3d5a061f4e52dbfa68e1eb1d3c818ba26686a3171e310c63cfeb188030b83407070019dc5c42dd079413d422e21fbffa7d55270eca9c96bbefa29dd915aca266071673e970daa0ca9c050000000000000000000000000000000008ee93fc610712411634079be0bd96c3969b48955fe5478b7a31c3ba7639c18291034167eb62e6b15c16b0dd5145edf500000000000000000000000000000000158cb1731b71905d7b958c5407f090a2c8a9319017719da143a3f4f3fb3982abb83b8dfe14facb014321b4f5edb5e41d000000000000000000000000000000000a9f98f775f06055ac1f137cbc1f95f4afa0d1c4935f536ba2e0569d874d9d76b7b86f71afcea07e2e785c7a6ee1c84400000000000000000000000000000000072f8988dd1ab0fa8037d3620068b34848c65e20dfc90612d123b6f9dbcf9d9d699d5ea73739d31ad54c22116365ab983ba7ea9ffda87131452b24a9efcdc91d1262d0d7550e5a6b787eace3577159b0",
                        "gasLimit" : "0x6acfc0",
                        "gasPrice" : "0x0a",
                        "nonce" : "0x00",
                        "r" : "0x4dbfe7a8a51391628111609d920d13f136ce55c6e84c3007d11825795766d7d4",
                        "s" : "0x5abf0fc647854b395abc13877402eded2f0e9110a84e34bf3831d4105c78bf11",
                        "sender" : "0xa94f5374fce5edbc8e2a8697c15331677e6ebf0b",
                        "to" : "0x095e7baea6a6c7c4c2dfeb977efac326af552d87",
                        "v" : "0x1b",
                        "value" : "0x03e8"
                    }
                ],
                "uncleHeaders" : [
                ],
                "withdrawals" : [
                ]
            }
        ],
        "genesisBlockHeader" : {
            "baseFeePerGas" : "0x0b",
            "blobGasUsed" : "0x00",
            "bloom" : "0x00000000000000000000000000000000000000000000000000000000000000000000000000000000000000000000000000000000000000000000000000000000000000000000000000000000000000000000000000000000000000000000000000000000000000000000000000000000000000000000000000000000000000000000000000000000000000000000000000000000000000000000000000000000000000000000000000000000000000000000000000000000000000000000000000000000000000000000000000000000000000000000000000000000000000000000000000000000000000000000000000000000000000000000000000000000",
            "coinbase" : "0x2adc25665018aa1fe0e6bc666dac8fc2697ff9ba",
            "difficulty" : "0x00",
            "excessBlobGas" : "0x060000",
            "extraData" : "0x00",
            "gasLimit" : "0xff112233445566",
            "gasUsed" : "0x00",
            "hash" : "0xc9cb4ed0dc693e89844b5a27d709ebd577e6a8380102855ef905d3d2d81ac0e5",
            "mixHash" : "0x0000000000000000000000000000000000000000000000000000000000020000",
            "nonce" : "0x0000000000000000",
            "number" : "0x00",
            "parentBeaconBlockRoot" : "0x0000000000000000000000000000000000000000000000000000000000000000",
            "parentHash" : "0x0000000000000000000000000000000000000000000000000000000000000000",
            "receiptTrie" : "0x56e81f171bcc55a6ff8345e692c0f86e5b48e01b996cadc001622fb5e363b421",
            "stateRoot" : "0x00059c610e858a345663eede1b974d037c154e4b4bb16a01ea2fd48a4d67bf65",
            "timestamp" : "0x00",
            "transactionsTrie" : "0x56e81f171bcc55a6ff8345e692c0f86e5b48e01b996cadc001622fb5e363b421",
            "uncleHash" : "0x1dcc4de8dec75d7aab85b567b6ccd41ad312451b948a7413f0a142fd40d49347",
            "withdrawalsRoot" : "0x56e81f171bcc55a6ff8345e692c0f86e5b48e01b996cadc001622fb5e363b421"
        },
        "genesisRLP" : "0xf90242f9023ca00000000000000000000000000000000000000000000000000000000000000000a01dcc4de8dec75d7aab85b567b6ccd41ad312451b948a7413f0a142fd40d49347942adc25665018aa1fe0e6bc666dac8fc2697ff9baa000059c610e858a345663eede1b974d037c154e4b4bb16a01ea2fd48a4d67bf65a056e81f171bcc55a6ff8345e692c0f86e5b48e01b996cadc001622fb5e363b421a056e81f171bcc55a6ff8345e692c0f86e5b48e01b996cadc001622fb5e363b421b9010000000000000000000000000000000000000000000000000000000000000000000000000000000000000000000000000000000000000000000000000000000000000000000000000000000000000000000000000000000000000000000000000000000000000000000000000000000000000000000000000000000000000000000000000000000000000000000000000000000000000000000000000000000000000000000000000000000000000000000000000000000000000000000000000000000000000000000000000000000000000000000000000000000000000000000000000000000000000000000000000000000000000000000000000000000000808087ff112233445566808000a000000000000000000000000000000000000000000000000000000000000200008800000000000000000ba056e81f171bcc55a6ff8345e692c0f86e5b48e01b996cadc001622fb5e363b4218083060000a00000000000000000000000000000000000000000000000000000000000000000c0c0c0",
        "lastblockhash" : "0xa301651e538fda1672209d358cb9b8ccd70b70cd87dbcd8f2d828440982936ee",
        "network" : "Prague",
        "postState" : {
            "0x000f3df6d732807ef1319fb7b8bb8522d0beac02" : {
                "balance" : "0x00",
                "code" : "0x3373fffffffffffffffffffffffffffffffffffffffe14604d57602036146024575f5ffd5b5f35801560495762001fff810690815414603c575f5ffd5b62001fff01545f5260205ff35b5f5ffd5b62001fff42064281555f359062001fff015500",
                "nonce" : "0x01",
                "storage" : {
                    "0x03e8" : "0x03e8"
                }
            },
            "0x095e7baea6a6c7c4c2dfeb977efac326af552d87" : {
                "balance" : "0x03e8",
                "code" : "0x60806040526004361061001e5760003560e01c806312bd429914610023575b600080fd5b6100fc6004803603604081101561003957600080fd5b81019080803573ffffffffffffffffffffffffffffffffffffffff1690602001909291908035906020019064010000000081111561007657600080fd5b82018360208201111561008857600080fd5b803590602001918460018302840111640100000000831117156100aa57600080fd5b91908080601f016020809104026020016040519081016040528093929190818152602001838380828437600081840152601f19601f820116905080830192505050505050509192919290505050610182565b604051808315151515815260200180602001828103825283818151815260200191508051906020019080838360005b8381101561014657808201518184015260208101905061012b565b50505050905090810190601f1680156101735780820380516001836020036101000a031916815260200191505b50935050505060405180910390f35b600060608373ffffffffffffffffffffffffffffffffffffffff16836040518082805190602001908083835b602083106101d157805182526020820191506020810190506020830392506101ae565b6001836020036101000a038019825116818451168082178552505050505050905001915050600060405180830381855afa9150503d8060008114610231576040519150601f19603f3d011682016040523d82523d6000602084013e610236565b606091505b508092508193505050600060405180807f6572726f72000000000000000000000000000000000000000000000000000000815250600501905060405180910390209050821561028a57818051906020012090505b8060025582829250925050925092905056fea2646970667358221220db58d80e8530eed625d9b4250a6055c2eb1d7c117a7ca267e6f8a059bdd2f39e64736f6c634300060a0033",
                "nonce" : "0x01",
                "storage" : {
                    "0x02" : "0x7b7720507ffa97641bdd8ff0e4765a67b218b38f8bea9437cefafcaf4263ea55"
                }
            },
            "0xa94f5374fce5edbc8e2a8697c15331677e6ebf0b" : {
                "balance" : "0x0de0b6b3a72cce0a",
                "code" : "0x",
                "nonce" : "0x01",
                "storage" : {
                }
            }
        },
        "pre" : {
            "0x000f3df6d732807ef1319fb7b8bb8522d0beac02" : {
                "balance" : "0x00",
                "code" : "0x3373fffffffffffffffffffffffffffffffffffffffe14604d57602036146024575f5ffd5b5f35801560495762001fff810690815414603c575f5ffd5b62001fff01545f5260205ff35b5f5ffd5b62001fff42064281555f359062001fff015500",
                "nonce" : "0x01",
                "storage" : {
                }
            },
            "0x095e7baea6a6c7c4c2dfeb977efac326af552d87" : {
                "balance" : "0x00",
                "code" : "0x60806040526004361061001e5760003560e01c806312bd429914610023575b600080fd5b6100fc6004803603604081101561003957600080fd5b81019080803573ffffffffffffffffffffffffffffffffffffffff1690602001909291908035906020019064010000000081111561007657600080fd5b82018360208201111561008857600080fd5b803590602001918460018302840111640100000000831117156100aa57600080fd5b91908080601f016020809104026020016040519081016040528093929190818152602001838380828437600081840152601f19601f820116905080830192505050505050509192919290505050610182565b604051808315151515815260200180602001828103825283818151815260200191508051906020019080838360005b8381101561014657808201518184015260208101905061012b565b50505050905090810190601f1680156101735780820380516001836020036101000a031916815260200191505b50935050505060405180910390f35b600060608373ffffffffffffffffffffffffffffffffffffffff16836040518082805190602001908083835b602083106101d157805182526020820191506020810190506020830392506101ae565b6001836020036101000a038019825116818451168082178552505050505050905001915050600060405180830381855afa9150503d8060008114610231576040519150601f19603f3d011682016040523d82523d6000602084013e610236565b606091505b508092508193505050600060405180807f6572726f72000000000000000000000000000000000000000000000000000000815250600501905060405180910390209050821561028a57818051906020012090505b8060025582829250925050925092905056fea2646970667358221220db58d80e8530eed625d9b4250a6055c2eb1d7c117a7ca267e6f8a059bdd2f39e64736f6c634300060a0033",
                "nonce" : "0x01",
                "storage" : {
                }
            },
            "0xa94f5374fce5edbc8e2a8697c15331677e6ebf0b" : {
                "balance" : "0x0de0b6b3a7640000",
                "code" : "0x",
                "nonce" : "0x00",
                "storage" : {
                }
            }
        },
        "sealEngine" : "NoProof"
    }
}