{
    "invalid_subgroup_for_pairing_57_d0g0v0_Berlin" : {
        "_info" : {
            "comment" : "A test for invalid_subgroup_for_pairing_57",
            "filling-rpc-server" : "evm version 1.9.23-unstable-0efc69a9-20201022",
            "filling-tool-version" : "retesteth-0.0.9-berlin+commit.2f30f0ea.Linux.g++",
            "lllcversion" : "Version: 0.5.14-develop.2020.6.22+commit.9189ad7a.Linux.g++",
            "source" : "src/GeneralStateTestsFiller/stEIP2537/invalid_subgroup_for_pairing_57Filler.json",
            "sourceHash" : "4e4111e8e1e82afad9bdf93b19fe4cb4054a8e39819d982f06b8b7e6235f307a"
        },
        "genesisBlockHeader" : {
            "bloom" : "0x00000000000000000000000000000000000000000000000000000000000000000000000000000000000000000000000000000000000000000000000000000000000000000000000000000000000000000000000000000000000000000000000000000000000000000000000000000000000000000000000000000000000000000000000000000000000000000000000000000000000000000000000000000000000000000000000000000000000000000000000000000000000000000000000000000000000000000000000000000000000000000000000000000000000000000000000000000000000000000000000000000000000000000000000000000000",
            "coinbase" : "0x2adc25665018aa1fe0e6bc666dac8fc2697ff9ba",
            "difficulty" : "0x020000",
            "extraData" : "0x00",
            "gasLimit" : "0xff112233445566",
            "gasUsed" : "0x00",
            "hash" : "0xf227282805f439ca053613f53f119422bda960eea236c4b013eca3b95c6be464",
            "mixHash" : "0x0000000000000000000000000000000000000000000000000000000000000000",
            "nonce" : "0x0000000000000000",
            "number" : "0x00",
            "parentHash" : "0x0000000000000000000000000000000000000000000000000000000000000000",
            "receiptTrie" : "0x56e81f171bcc55a6ff8345e692c0f86e5b48e01b996cadc001622fb5e363b421",
            "stateRoot" : "0xbf61e00e2f1fbb3ea831c4ff3bbeff62f2737e7f0d88945ba62e0722eab6cd68",
            "timestamp" : "0x00",
            "transactionsTrie" : "0x56e81f171bcc55a6ff8345e692c0f86e5b48e01b996cadc001622fb5e363b421",
            "uncleHash" : "0x1dcc4de8dec75d7aab85b567b6ccd41ad312451b948a7413f0a142fd40d49347"
        },
        "pre" : {
            "0x095e7baea6a6c7c4c2dfeb977efac326af552d87" : {
                "balance" : "0x00",
                "code" : "0x60806040526004361061001e5760003560e01c806312bd429914610023575b600080fd5b6100fc6004803603604081101561003957600080fd5b81019080803573ffffffffffffffffffffffffffffffffffffffff1690602001909291908035906020019064010000000081111561007657600080fd5b82018360208201111561008857600080fd5b803590602001918460018302840111640100000000831117156100aa57600080fd5b91908080601f016020809104026020016040519081016040528093929190818152602001838380828437600081840152601f19601f820116905080830192505050505050509192919290505050610182565b604051808315151515815260200180602001828103825283818151815260200191508051906020019080838360005b8381101561014657808201518184015260208101905061012b565b50505050905090810190601f1680156101735780820380516001836020036101000a031916815260200191505b50935050505060405180910390f35b600060608373ffffffffffffffffffffffffffffffffffffffff16836040518082805190602001908083835b602083106101d157805182526020820191506020810190506020830392506101ae565b6001836020036101000a038019825116818451168082178552505050505050905001915050600060405180830381855afa9150503d8060008114610231576040519150601f19603f3d011682016040523d82523d6000602084013e610236565b606091505b508092508193505050600060405180807f6572726f72000000000000000000000000000000000000000000000000000000815250600501905060405180910390209050821561028a57818051906020012090505b8060025582829250925050925092905056fea2646970667358221220db58d80e8530eed625d9b4250a6055c2eb1d7c117a7ca267e6f8a059bdd2f39e64736f6c634300060a0033",
                "nonce" : "0x01",
                "storage" : {
                }
            },
            "0xa94f5374fce5edbc8e2a8697c15331677e6ebf0b" : {
                "balance" : "0x0de0b6b3a7640000",
                "code" : "0x",
                "nonce" : "0x00",
                "storage" : {
                }
            }
        },
        "postState" : {
            "0x095e7baea6a6c7c4c2dfeb977efac326af552d87" : {
                "code" : "0x60806040526004361061001e5760003560e01c806312bd429914610023575b600080fd5b6100fc6004803603604081101561003957600080fd5b81019080803573ffffffffffffffffffffffffffffffffffffffff1690602001909291908035906020019064010000000081111561007657600080fd5b82018360208201111561008857600080fd5b803590602001918460018302840111640100000000831117156100aa57600080fd5b91908080601f016020809104026020016040519081016040528093929190818152602001838380828437600081840152601f19601f820116905080830192505050505050509192919290505050610182565b604051808315151515815260200180602001828103825283818151815260200191508051906020019080838360005b8381101561014657808201518184015260208101905061012b565b50505050905090810190601f1680156101735780820380516001836020036101000a031916815260200191505b50935050505060405180910390f35b600060608373ffffffffffffffffffffffffffffffffffffffff16836040518082805190602001908083835b602083106101d157805182526020820191506020810190506020830392506101ae565b6001836020036101000a038019825116818451168082178552505050505050905001915050600060405180830381855afa9150503d8060008114610231576040519150601f19603f3d011682016040523d82523d6000602084013e610236565b606091505b508092508193505050600060405180807f6572726f72000000000000000000000000000000000000000000000000000000815250600501905060405180910390209050821561028a57818051906020012090505b8060025582829250925050925092905056fea2646970667358221220db58d80e8530eed625d9b4250a6055c2eb1d7c117a7ca267e6f8a059bdd2f39e64736f6c634300060a0033",
                "nonce" : "0x01",
                "balance" : "0x03e8",
                "storage" : {
                    "0x02" : "0x177f242d20ff7dc4598657e4355abd2b0df8f6351283a95d209db56ce73ef6e9"
                }
            },
            "0x2adc25665018aa1fe0e6bc666dac8fc2697ff9ba" : {
                "code" : "0x",
                "nonce" : "0x00",
                "balance" : "0x1bc16d674f317ebb",
                "storage" : {
                }
            },
            "0xa94f5374fce5edbc8e2a8697c15331677e6ebf0b" : {
                "code" : "0x",
                "nonce" : "0x01",
                "balance" : "0x0de0b6b3a6fa7d5d",
                "storage" : {
                }
            }
        },
        "network" : "Berlin",
        "sealEngine" : "NoProof",
        "lastblockhash" : "0x391294482479336a350cd84713d34a441412fc7a905bd93b950c6a01c55d213f",
        "genesisRLP" : "0xf901fcf901f7a00000000000000000000000000000000000000000000000000000000000000000a01dcc4de8dec75d7aab85b567b6ccd41ad312451b948a7413f0a142fd40d49347942adc25665018aa1fe0e6bc666dac8fc2697ff9baa0bf61e00e2f1fbb3ea831c4ff3bbeff62f2737e7f0d88945ba62e0722eab6cd68a056e81f171bcc55a6ff8345e692c0f86e5b48e01b996cadc001622fb5e363b421a056e81f171bcc55a6ff8345e692c0f86e5b48e01b996cadc001622fb5e363b421b9010000000000000000000000000000000000000000000000000000000000000000000000000000000000000000000000000000000000000000000000000000000000000000000000000000000000000000000000000000000000000000000000000000000000000000000000000000000000000000000000000000000000000000000000000000000000000000000000000000000000000000000000000000000000000000000000000000000000000000000000000000000000000000000000000000000000000000000000000000000000000000000000000000000000000000000000000000000000000000000000000000000000000000000000000000000000830200008087ff112233445566808000a00000000000000000000000000000000000000000000000000000000000000000880000000000000000c0c0",
        "blocks" : [
            {
                "rlp" : "0xf905cef901fca0f227282805f439ca053613f53f119422bda960eea236c4b013eca3b95c6be464a01dcc4de8dec75d7aab85b567b6ccd41ad312451b948a7413f0a142fd40d49347942adc25665018aa1fe0e6bc666dac8fc2697ff9baa09daead7e8ad69b2f791cf613858622518d69d9144b5552e1443aa2ab3287098da0aaa9024e438b963515ebda86c6565ad7cc54b2114d0e7110d233a9eab245592da01d94d3f584f3072e26685d45bae18b61fd733abe7d4e2a88b22ca4019d007a6eb9010000000000000000000000000000000000000000000000000000000000000000000000000000000000000000000000000000000000000000000000000000000000000000000000000000000000000000000000000000000000000000000000000000000000000000000000000000000000000000000000000000000000000000000000000000000000000000000000000000000000000000000000000000000000000000000000000000000000000000000000000000000000000000000000000000000000000000000000000000000000000000000000000000000000000000000000000000000000000000000000000000000000000000000000000000000000830200000187ff11223344556683697ebb8203e800a00000000000000000000000000000000000000000000000000000000000000000880000000000000000f903cbf903c88001836acfc094095e7baea6a6c7c4c2dfeb977efac326af552d878203e8b9036412bd429900000000000000000000000000000000000000000000000000000000000000100000000000000000000000000000000000000000000000000000000000000040000000000000000000000000000000000000000000000000000000000000030000000000000000000000000000000000104c749e3f7b40bf6df55f9414bd146ac306b46a6210ae4ceff6fe2a58220ddbc69208ada5f692120dcfce39b1e43fb5000000000000000000000000000000000663a0e62ea68ac23a6e27958baabbb5deca3905aa138a54d6198724e5fdf0abb9288cdb52cf1d44e93f06571a654f75000000000000000000000000000000001116ecf077865395ea40fa9cf05753b87ac29ccf9ecfebfa1031fef0defa1d77634c2177647f069532e00f7fb657577f0000000000000000000000000000000005c7960dd84874fc00ab199d00e8bf1ea035a7eec443328bf2bc28d0006979f5032763a4d33f031e698895e03b27314f0000000000000000000000000000000004e00e32a506bff708c51fcc4101c8ebe7f1695d6a4606b6648b04710fdae313b99219963921451d0fc78dd59970ea8b0000000000000000000000000000000019dc4b721ec4a4303809c47da68099fc10706eb08cd4f6f91641ac680661e93a91e2067a84c12f9f55f84e27ed76ae2700000000000000000000000000000000104c749e3f7b40bf6df55f9414bd146ac306b46a6210ae4ceff6fe2a58220ddbc69208ada5f692120dcfce39b1e43fb5000000000000000000000000000000000663a0e62ea68ac23a6e27958baabbb5deca3905aa138a54d6198724e5fdf0abb9288cdb52cf1d44e93f06571a654f75000000000000000000000000000000000da3982205a45000b16e1ec7a48effad4ae1affd4acd8bd13fcdf2bf05b6845ebda9be2df6d6325389d711111641aae500000000000000000000000000000000150c1bb67fe3d88dbfb452d5b4582d9a1c350ac01cc209740be70d63e266c926cc6b0171eaea913b7456daf595b83ce900000000000000000000000000000000138d0bbb52fb6248731c8fbb6818d1379fc5c2549a5a0d663a56c41b3b2e8c7c4fd77830c455a40e59aaa65124ebcee50000000000000000000000000000000015e6b4628b75f9786ee26e41cb8b86c6e6a97ac18aa7662b39e9c96e169a3192b64b863d7f9739237255fea6cab12fcb1ba02203662bb3a32ed4c3ec89e4d59ef9916641b848bca8e2df62b4199db834b2eba0177672e9568d2fd47382e12bdfa215268afea8c9f8dc16663a2d16cf24458e4ec0",
                "blockHeader" : {
                    "bloom" : "0x00000000000000000000000000000000000000000000000000000000000000000000000000000000000000000000000000000000000000000000000000000000000000000000000000000000000000000000000000000000000000000000000000000000000000000000000000000000000000000000000000000000000000000000000000000000000000000000000000000000000000000000000000000000000000000000000000000000000000000000000000000000000000000000000000000000000000000000000000000000000000000000000000000000000000000000000000000000000000000000000000000000000000000000000000000000",
                    "coinbase" : "0x2adc25665018aa1fe0e6bc666dac8fc2697ff9ba",
                    "difficulty" : "0x020000",
                    "extraData" : "0x00",
                    "gasLimit" : "0xff112233445566",
                    "gasUsed" : "0x697ebb",
                    "hash" : "0x391294482479336a350cd84713d34a441412fc7a905bd93b950c6a01c55d213f",
                    "mixHash" : "0x0000000000000000000000000000000000000000000000000000000000000000",
                    "nonce" : "0x0000000000000000",
                    "number" : "0x01",
                    "parentHash" : "0xf227282805f439ca053613f53f119422bda960eea236c4b013eca3b95c6be464",
                    "receiptTrie" : "0x1d94d3f584f3072e26685d45bae18b61fd733abe7d4e2a88b22ca4019d007a6e",
                    "stateRoot" : "0x9daead7e8ad69b2f791cf613858622518d69d9144b5552e1443aa2ab3287098d",
                    "timestamp" : "0x03e8",
                    "transactionsTrie" : "0xaaa9024e438b963515ebda86c6565ad7cc54b2114d0e7110d233a9eab245592d",
                    "uncleHash" : "0x1dcc4de8dec75d7aab85b567b6ccd41ad312451b948a7413f0a142fd40d49347"
                },
                "transactions" : [
                    {
                        "data" : "0x12bd429900000000000000000000000000000000000000000000000000000000000000100000000000000000000000000000000000000000000000000000000000000040000000000000000000000000000000000000000000000000000000000000030000000000000000000000000000000000104c749e3f7b40bf6df55f9414bd146ac306b46a6210ae4ceff6fe2a58220ddbc69208ada5f692120dcfce39b1e43fb5000000000000000000000000000000000663a0e62ea68ac23a6e27958baabbb5deca3905aa138a54d6198724e5fdf0abb9288cdb52cf1d44e93f06571a654f75000000000000000000000000000000001116ecf077865395ea40fa9cf05753b87ac29ccf9ecfebfa1031fef0defa1d77634c2177647f069532e00f7fb657577f0000000000000000000000000000000005c7960dd84874fc00ab199d00e8bf1ea035a7eec443328bf2bc28d0006979f5032763a4d33f031e698895e03b27314f0000000000000000000000000000000004e00e32a506bff708c51fcc4101c8ebe7f1695d6a4606b6648b04710fdae313b99219963921451d0fc78dd59970ea8b0000000000000000000000000000000019dc4b721ec4a4303809c47da68099fc10706eb08cd4f6f91641ac680661e93a91e2067a84c12f9f55f84e27ed76ae2700000000000000000000000000000000104c749e3f7b40bf6df55f9414bd146ac306b46a6210ae4ceff6fe2a58220ddbc69208ada5f692120dcfce39b1e43fb5000000000000000000000000000000000663a0e62ea68ac23a6e27958baabbb5deca3905aa138a54d6198724e5fdf0abb9288cdb52cf1d44e93f06571a654f75000000000000000000000000000000000da3982205a45000b16e1ec7a48effad4ae1affd4acd8bd13fcdf2bf05b6845ebda9be2df6d6325389d711111641aae500000000000000000000000000000000150c1bb67fe3d88dbfb452d5b4582d9a1c350ac01cc209740be70d63e266c926cc6b0171eaea913b7456daf595b83ce900000000000000000000000000000000138d0bbb52fb6248731c8fbb6818d1379fc5c2549a5a0d663a56c41b3b2e8c7c4fd77830c455a40e59aaa65124ebcee50000000000000000000000000000000015e6b4628b75f9786ee26e41cb8b86c6e6a97ac18aa7662b39e9c96e169a3192b64b863d7f9739237255fea6cab12fcb",
                        "gasLimit" : "0x6acfc0",
                        "gasPrice" : "0x01",
                        "nonce" : "0x00",
                        "to" : "0x095e7baea6a6c7c4c2dfeb977efac326af552d87",
                        "value" : "0x03e8",
                        "v" : "0x1b",
                        "r" : "0x2203662bb3a32ed4c3ec89e4d59ef9916641b848bca8e2df62b4199db834b2eb",
                        "s" : "0x177672e9568d2fd47382e12bdfa215268afea8c9f8dc16663a2d16cf24458e4e"
                    }
                ],
                "uncleHeaders" : [
                ]
            }
        ]
    }
}