{
    "invalid_subgroup_for_pairing_81_d0g0v0_Prague" : {
        "_info" : {
            "comment" : "A test for invalid_subgroup_for_pairing_81",
            "filling-rpc-server" : "evm version 1.14.0-unstable-a208e725-20240416",
            "filling-tool-version" : "retesteth-0.3.2-cancun+commit.353b2b37.Linux.g++",
            "generatedTestHash" : "03f8085ff185c20d51db3d2efa7cc819db7b65e4a5295f08838398338a15d011",
            "lllcversion" : "Version: 0.5.14-develop.2023.7.11+commit.c58ab2c6.mod.Linux.g++",
            "solidity" : "Version: 0.8.21+commit.d9974bed.Linux.g++",
            "source" : "src/EIPTestsFiller/StateTests/stEIP2537/invalid_subgroup_for_pairing_81Filler.json",
            "sourceHash" : "ddc746d0aa2da37e8635c1216f14c1fd81765b7cddf3f40386eb03aacc43267b"
        },
        "blocks" : [
            {
                "blockHeader" : {
                    "baseFeePerGas" : "0x0a",
                    "blobGasUsed" : "0x00",
                    "bloom" : "0x00000000000000000000000000000000000000000000000000000000000000000000000000000000000000000000000000000000000000000000000000000000000000000000000000000000000000000000000000000000000000000000000000000000000000000000000000000000000000000000000000000000000000000000000000000000000000000000000000000000000000000000000000000000000000000000000000000000000000000000000000000000000000000000000000000000000000000000000000000000000000000000000000000000000000000000000000000000000000000000000000000000000000000000000000000000",
                    "coinbase" : "0x2adc25665018aa1fe0e6bc666dac8fc2697ff9ba",
                    "difficulty" : "0x00",
                    "excessBlobGas" : "0x00",
                    "extraData" : "0x00",
                    "gasLimit" : "0xff112233445566",
                    "gasUsed" : "0x697ebb",
                    "hash" : "0x155bff06ac6a3e884fb5cd1c7e6005a7929cc9e614edd0256b5b139b511261df",
                    "mixHash" : "0x0000000000000000000000000000000000000000000000000000000000020000",
                    "nonce" : "0x0000000000000000",
                    "number" : "0x01",
                    "parentBeaconBlockRoot" : "0x0000000000000000000000000000000000000000000000000000000000000000",
                    "parentHash" : "0xc9cb4ed0dc693e89844b5a27d709ebd577e6a8380102855ef905d3d2d81ac0e5",
                    "receiptTrie" : "0x1d94d3f584f3072e26685d45bae18b61fd733abe7d4e2a88b22ca4019d007a6e",
                    "stateRoot" : "0x099b844b97a9d7cec70300e5628e5fa83a500d18867ece1fdc0ec17611fdb36c",
                    "timestamp" : "0x03e8",
                    "transactionsTrie" : "0xe7500ea615b1bad6ae3479d02f2a08ca5822455c202596b1b2d0ace1c827d375",
                    "uncleHash" : "0x1dcc4de8dec75d7aab85b567b6ccd41ad312451b948a7413f0a142fd40d49347",
                    "withdrawalsRoot" : "0x56e81f171bcc55a6ff8345e692c0f86e5b48e01b996cadc001622fb5e363b421"
                },
                "rlp" : "0xf90611f9023ea0c9cb4ed0dc693e89844b5a27d709ebd577e6a8380102855ef905d3d2d81ac0e5a01dcc4de8dec75d7aab85b567b6ccd41ad312451b948a7413f0a142fd40d49347942adc25665018aa1fe0e6bc666dac8fc2697ff9baa0099b844b97a9d7cec70300e5628e5fa83a500d18867ece1fdc0ec17611fdb36ca0e7500ea615b1bad6ae3479d02f2a08ca5822455c202596b1b2d0ace1c827d375a01d94d3f584f3072e26685d45bae18b61fd733abe7d4e2a88b22ca4019d007a6eb9010000000000000000000000000000000000000000000000000000000000000000000000000000000000000000000000000000000000000000000000000000000000000000000000000000000000000000000000000000000000000000000000000000000000000000000000000000000000000000000000000000000000000000000000000000000000000000000000000000000000000000000000000000000000000000000000000000000000000000000000000000000000000000000000000000000000000000000000000000000000000000000000000000000000000000000000000000000000000000000000000000000000000000000000000000000000800187ff11223344556683697ebb8203e800a000000000000000000000000000000000000000000000000000000000000200008800000000000000000aa056e81f171bcc55a6ff8345e692c0f86e5b48e01b996cadc001622fb5e363b4218080a00000000000000000000000000000000000000000000000000000000000000000f903cbf903c8800a836acfc094095e7baea6a6c7c4c2dfeb977efac326af552d878203e8b9036412bd429900000000000000000000000000000000000000000000000000000000000000110000000000000000000000000000000000000000000000000000000000000040000000000000000000000000000000000000000000000000000000000000030000000000000000000000000000000000065a0b9822a814adda6f22f58f0ce0d6db9b32dbb2766077b6fb9bdf084ba584dc749d746740804f826d17634509875f000000000000000000000000000000000d4284a951847bad1b602396a5d5193c3a794826f58122c9c16c6e8e18f6ec2d0e17d8ca3cda9c3bbc92c51794ec7fb600000000000000000000000000000000177f2a7306144321cec932fbc1a10d58073d6915bf9ca97a05b54fe05f525ed0c327dbdb1205b70bf7ef8cf35a61c4e400000000000000000000000000000000089dfb5d4a99380761f75a94deeb6a48854164687f1055b22328d45b9792cf884ae597db1d1a93f3f2633d14969bb260000000000000000000000000000000000b6598d4c8c590f2fbbea7c48899ff43d73087becda4974184eb3ebab605e8f90497caa2fce915f7214dfe244277a437000000000000000000000000000000000acbeeaa0ddf12bb717fd32ea32ef63d137e61b5294c162d3b67e02dcf1075838bd0208d7f8edaf15f023611b774c14a00000000000000000000000000000000065a0b9822a814adda6f22f58f0ce0d6db9b32dbb2766077b6fb9bdf084ba584dc749d746740804f826d17634509875f000000000000000000000000000000000d4284a951847bad1b602396a5d5193c3a794826f58122c9c16c6e8e18f6ec2d0e17d8ca3cda9c3bbc92c51794ec7fb6000000000000000000000000000000001a002703d6da9def84f6ce69f02ce952562a7bab2413e8d58631a3387a1f4556402fba6a39b37bda22d08a68b0230b17000000000000000000000000000000001366c2a752aad0e111adb716b75459c067e275c692bc440731510d56135c3238b410538dae3ec328bcd817384d8a6b6e0000000000000000000000000000000003321a09e7290272d75882b64d2c958d4434df3499c65fbbd1236add534db804081d29b0b34167e05f4de1d8065b5b530000000000000000000000000000000001b6e16cbfe9bd8a291dcadd4599f6edb147e261bb76caca726bc89b3fa1863922e202bd5fc9afa5bfec9923f43fb5261ca0a2cbd02035def637117636d351f1669f172ab39d4fea9155df0032fbcfcebd89a017ebd094d8b9e0783cfa4563984c1b345f679101b667e7596e2cc48f589821f3c0c0",
                "transactions" : [
                    {
                        "data" : "0x12bd429900000000000000000000000000000000000000000000000000000000000000110000000000000000000000000000000000000000000000000000000000000040000000000000000000000000000000000000000000000000000000000000030000000000000000000000000000000000065a0b9822a814adda6f22f58f0ce0d6db9b32dbb2766077b6fb9bdf084ba584dc749d746740804f826d17634509875f000000000000000000000000000000000d4284a951847bad1b602396a5d5193c3a794826f58122c9c16c6e8e18f6ec2d0e17d8ca3cda9c3bbc92c51794ec7fb600000000000000000000000000000000177f2a7306144321cec932fbc1a10d58073d6915bf9ca97a05b54fe05f525ed0c327dbdb1205b70bf7ef8cf35a61c4e400000000000000000000000000000000089dfb5d4a99380761f75a94deeb6a48854164687f1055b22328d45b9792cf884ae597db1d1a93f3f2633d14969bb260000000000000000000000000000000000b6598d4c8c590f2fbbea7c48899ff43d73087becda4974184eb3ebab605e8f90497caa2fce915f7214dfe244277a437000000000000000000000000000000000acbeeaa0ddf12bb717fd32ea32ef63d137e61b5294c162d3b67e02dcf1075838bd0208d7f8edaf15f023611b774c14a00000000000000000000000000000000065a0b9822a814adda6f22f58f0ce0d6db9b32dbb2766077b6fb9bdf084ba584dc749d746740804f826d17634509875f000000000000000000000000000000000d4284a951847bad1b602396a5d5193c3a794826f58122c9c16c6e8e18f6ec2d0e17d8ca3cda9c3bbc92c51794ec7fb6000000000000000000000000000000001a002703d6da9def84f6ce69f02ce952562a7bab2413e8d58631a3387a1f4556402fba6a39b37bda22d08a68b0230b17000000000000000000000000000000001366c2a752aad0e111adb716b75459c067e275c692bc440731510d56135c3238b410538dae3ec328bcd817384d8a6b6e0000000000000000000000000000000003321a09e7290272d75882b64d2c958d4434df3499c65fbbd1236add534db804081d29b0b34167e05f4de1d8065b5b530000000000000000000000000000000001b6e16cbfe9bd8a291dcadd4599f6edb147e261bb76caca726bc89b3fa1863922e202bd5fc9afa5bfec9923f43fb526",
                        "gasLimit" : "0x6acfc0",
                        "gasPrice" : "0x0a",
                        "nonce" : "0x00",
                        "r" : "0xa2cbd02035def637117636d351f1669f172ab39d4fea9155df0032fbcfcebd89",
                        "s" : "0x17ebd094d8b9e0783cfa4563984c1b345f679101b667e7596e2cc48f589821f3",
                        "sender" : "0xa94f5374fce5edbc8e2a8697c15331677e6ebf0b",
                        "to" : "0x095e7baea6a6c7c4c2dfeb977efac326af552d87",
                        "v" : "0x1c",
                        "value" : "0x03e8"
                    }
                ],
                "uncleHeaders" : [
                ],
                "withdrawals" : [
                ]
            }
        ],
        "genesisBlockHeader" : {
            "baseFeePerGas" : "0x0b",
            "blobGasUsed" : "0x00",
            "bloom" : "0x00000000000000000000000000000000000000000000000000000000000000000000000000000000000000000000000000000000000000000000000000000000000000000000000000000000000000000000000000000000000000000000000000000000000000000000000000000000000000000000000000000000000000000000000000000000000000000000000000000000000000000000000000000000000000000000000000000000000000000000000000000000000000000000000000000000000000000000000000000000000000000000000000000000000000000000000000000000000000000000000000000000000000000000000000000000",
            "coinbase" : "0x2adc25665018aa1fe0e6bc666dac8fc2697ff9ba",
            "difficulty" : "0x00",
            "excessBlobGas" : "0x060000",
            "extraData" : "0x00",
            "gasLimit" : "0xff112233445566",
            "gasUsed" : "0x00",
            "hash" : "0xc9cb4ed0dc693e89844b5a27d709ebd577e6a8380102855ef905d3d2d81ac0e5",
            "mixHash" : "0x0000000000000000000000000000000000000000000000000000000000020000",
            "nonce" : "0x0000000000000000",
            "number" : "0x00",
            "parentBeaconBlockRoot" : "0x0000000000000000000000000000000000000000000000000000000000000000",
            "parentHash" : "0x0000000000000000000000000000000000000000000000000000000000000000",
            "receiptTrie" : "0x56e81f171bcc55a6ff8345e692c0f86e5b48e01b996cadc001622fb5e363b421",
            "stateRoot" : "0x00059c610e858a345663eede1b974d037c154e4b4bb16a01ea2fd48a4d67bf65",
            "timestamp" : "0x00",
            "transactionsTrie" : "0x56e81f171bcc55a6ff8345e692c0f86e5b48e01b996cadc001622fb5e363b421",
            "uncleHash" : "0x1dcc4de8dec75d7aab85b567b6ccd41ad312451b948a7413f0a142fd40d49347",
            "withdrawalsRoot" : "0x56e81f171bcc55a6ff8345e692c0f86e5b48e01b996cadc001622fb5e363b421"
        },
        "genesisRLP" : "0xf90242f9023ca00000000000000000000000000000000000000000000000000000000000000000a01dcc4de8dec75d7aab85b567b6ccd41ad312451b948a7413f0a142fd40d49347942adc25665018aa1fe0e6bc666dac8fc2697ff9baa000059c610e858a345663eede1b974d037c154e4b4bb16a01ea2fd48a4d67bf65a056e81f171bcc55a6ff8345e692c0f86e5b48e01b996cadc001622fb5e363b421a056e81f171bcc55a6ff8345e692c0f86e5b48e01b996cadc001622fb5e363b421b9010000000000000000000000000000000000000000000000000000000000000000000000000000000000000000000000000000000000000000000000000000000000000000000000000000000000000000000000000000000000000000000000000000000000000000000000000000000000000000000000000000000000000000000000000000000000000000000000000000000000000000000000000000000000000000000000000000000000000000000000000000000000000000000000000000000000000000000000000000000000000000000000000000000000000000000000000000000000000000000000000000000000000000000000000000000000808087ff112233445566808000a000000000000000000000000000000000000000000000000000000000000200008800000000000000000ba056e81f171bcc55a6ff8345e692c0f86e5b48e01b996cadc001622fb5e363b4218083060000a00000000000000000000000000000000000000000000000000000000000000000c0c0c0",
        "lastblockhash" : "0x155bff06ac6a3e884fb5cd1c7e6005a7929cc9e614edd0256b5b139b511261df",
        "network" : "Prague",
        "postState" : {
            "0x000f3df6d732807ef1319fb7b8bb8522d0beac02" : {
                "balance" : "0x00",
                "code" : "0x3373fffffffffffffffffffffffffffffffffffffffe14604d57602036146024575f5ffd5b5f35801560495762001fff810690815414603c575f5ffd5b62001fff01545f5260205ff35b5f5ffd5b62001fff42064281555f359062001fff015500",
                "nonce" : "0x01",
                "storage" : {
                    "0x03e8" : "0x03e8"
                }
            },
            "0x095e7baea6a6c7c4c2dfeb977efac326af552d87" : {
                "balance" : "0x03e8",
                "code" : "0x60806040526004361061001e5760003560e01c806312bd429914610023575b600080fd5b6100fc6004803603604081101561003957600080fd5b81019080803573ffffffffffffffffffffffffffffffffffffffff1690602001909291908035906020019064010000000081111561007657600080fd5b82018360208201111561008857600080fd5b803590602001918460018302840111640100000000831117156100aa57600080fd5b91908080601f016020809104026020016040519081016040528093929190818152602001838380828437600081840152601f19601f820116905080830192505050505050509192919290505050610182565b604051808315151515815260200180602001828103825283818151815260200191508051906020019080838360005b8381101561014657808201518184015260208101905061012b565b50505050905090810190601f1680156101735780820380516001836020036101000a031916815260200191505b50935050505060405180910390f35b600060608373ffffffffffffffffffffffffffffffffffffffff16836040518082805190602001908083835b602083106101d157805182526020820191506020810190506020830392506101ae565b6001836020036101000a038019825116818451168082178552505050505050905001915050600060405180830381855afa9150503d8060008114610231576040519150601f19603f3d011682016040523d82523d6000602084013e610236565b606091505b508092508193505050600060405180807f6572726f72000000000000000000000000000000000000000000000000000000815250600501905060405180910390209050821561028a57818051906020012090505b8060025582829250925050925092905056fea2646970667358221220db58d80e8530eed625d9b4250a6055c2eb1d7c117a7ca267e6f8a059bdd2f39e64736f6c634300060a0033",
                "nonce" : "0x01",
                "storage" : {
                    "0x02" : "0x177f242d20ff7dc4598657e4355abd2b0df8f6351283a95d209db56ce73ef6e9"
                }
            },
            "0xa94f5374fce5edbc8e2a8697c15331677e6ebf0b" : {
                "balance" : "0x0de0b6b3a34508ca",
                "code" : "0x",
                "nonce" : "0x01",
                "storage" : {
                }
            }
        },
        "pre" : {
            "0x000f3df6d732807ef1319fb7b8bb8522d0beac02" : {
                "balance" : "0x00",
                "code" : "0x3373fffffffffffffffffffffffffffffffffffffffe14604d57602036146024575f5ffd5b5f35801560495762001fff810690815414603c575f5ffd5b62001fff01545f5260205ff35b5f5ffd5b62001fff42064281555f359062001fff015500",
                "nonce" : "0x01",
                "storage" : {
                }
            },
            "0x095e7baea6a6c7c4c2dfeb977efac326af552d87" : {
                "balance" : "0x00",
                "code" : "0x60806040526004361061001e5760003560e01c806312bd429914610023575b600080fd5b6100fc6004803603604081101561003957600080fd5b81019080803573ffffffffffffffffffffffffffffffffffffffff1690602001909291908035906020019064010000000081111561007657600080fd5b82018360208201111561008857600080fd5b803590602001918460018302840111640100000000831117156100aa57600080fd5b91908080601f016020809104026020016040519081016040528093929190818152602001838380828437600081840152601f19601f820116905080830192505050505050509192919290505050610182565b604051808315151515815260200180602001828103825283818151815260200191508051906020019080838360005b8381101561014657808201518184015260208101905061012b565b50505050905090810190601f1680156101735780820380516001836020036101000a031916815260200191505b50935050505060405180910390f35b600060608373ffffffffffffffffffffffffffffffffffffffff16836040518082805190602001908083835b602083106101d157805182526020820191506020810190506020830392506101ae565b6001836020036101000a038019825116818451168082178552505050505050905001915050600060405180830381855afa9150503d8060008114610231576040519150601f19603f3d011682016040523d82523d6000602084013e610236565b606091505b508092508193505050600060405180807f6572726f72000000000000000000000000000000000000000000000000000000815250600501905060405180910390209050821561028a57818051906020012090505b8060025582829250925050925092905056fea2646970667358221220db58d80e8530eed625d9b4250a6055c2eb1d7c117a7ca267e6f8a059bdd2f39e64736f6c634300060a0033",
                "nonce" : "0x01",
                "storage" : {
                }
            },
            "0xa94f5374fce5edbc8e2a8697c15331677e6ebf0b" : {
                "balance" : "0x0de0b6b3a7640000",
                "code" : "0x",
                "nonce" : "0x00",
                "storage" : {
                }
            }
        },
        "sealEngine" : "NoProof"
    }
}