{
    "invalid_subgroup_for_pairing_66_d0g0v0_Berlin" : {
        "_info" : {
            "comment" : "A test for invalid_subgroup_for_pairing_66",
            "filling-rpc-server" : "evm version 1.9.23-unstable-0efc69a9-20201022",
            "filling-tool-version" : "retesteth-0.0.9-berlin+commit.2f30f0ea.Linux.g++",
            "lllcversion" : "Version: 0.5.14-develop.2020.6.22+commit.9189ad7a.Linux.g++",
            "source" : "src/GeneralStateTestsFiller/stEIP2537/invalid_subgroup_for_pairing_66Filler.json",
            "sourceHash" : "67782ee9b9a330e10ae0013a2ad9903a955c30cf78ae01e6d1fb5fdfeb298af5"
        },
        "genesisBlockHeader" : {
            "bloom" : "0x00000000000000000000000000000000000000000000000000000000000000000000000000000000000000000000000000000000000000000000000000000000000000000000000000000000000000000000000000000000000000000000000000000000000000000000000000000000000000000000000000000000000000000000000000000000000000000000000000000000000000000000000000000000000000000000000000000000000000000000000000000000000000000000000000000000000000000000000000000000000000000000000000000000000000000000000000000000000000000000000000000000000000000000000000000000",
            "coinbase" : "0x2adc25665018aa1fe0e6bc666dac8fc2697ff9ba",
            "difficulty" : "0x020000",
            "extraData" : "0x00",
            "gasLimit" : "0xff112233445566",
            "gasUsed" : "0x00",
            "hash" : "0xf227282805f439ca053613f53f119422bda960eea236c4b013eca3b95c6be464",
            "mixHash" : "0x0000000000000000000000000000000000000000000000000000000000000000",
            "nonce" : "0x0000000000000000",
            "number" : "0x00",
            "parentHash" : "0x0000000000000000000000000000000000000000000000000000000000000000",
            "receiptTrie" : "0x56e81f171bcc55a6ff8345e692c0f86e5b48e01b996cadc001622fb5e363b421",
            "stateRoot" : "0xbf61e00e2f1fbb3ea831c4ff3bbeff62f2737e7f0d88945ba62e0722eab6cd68",
            "timestamp" : "0x00",
            "transactionsTrie" : "0x56e81f171bcc55a6ff8345e692c0f86e5b48e01b996cadc001622fb5e363b421",
            "uncleHash" : "0x1dcc4de8dec75d7aab85b567b6ccd41ad312451b948a7413f0a142fd40d49347"
        },
        "pre" : {
            "0x095e7baea6a6c7c4c2dfeb977efac326af552d87" : {
                "balance" : "0x00",
                "code" : "0x60806040526004361061001e5760003560e01c806312bd429914610023575b600080fd5b6100fc6004803603604081101561003957600080fd5b81019080803573ffffffffffffffffffffffffffffffffffffffff1690602001909291908035906020019064010000000081111561007657600080fd5b82018360208201111561008857600080fd5b803590602001918460018302840111640100000000831117156100aa57600080fd5b91908080601f016020809104026020016040519081016040528093929190818152602001838380828437600081840152601f19601f820116905080830192505050505050509192919290505050610182565b604051808315151515815260200180602001828103825283818151815260200191508051906020019080838360005b8381101561014657808201518184015260208101905061012b565b50505050905090810190601f1680156101735780820380516001836020036101000a031916815260200191505b50935050505060405180910390f35b600060608373ffffffffffffffffffffffffffffffffffffffff16836040518082805190602001908083835b602083106101d157805182526020820191506020810190506020830392506101ae565b6001836020036101000a038019825116818451168082178552505050505050905001915050600060405180830381855afa9150503d8060008114610231576040519150601f19603f3d011682016040523d82523d6000602084013e610236565b606091505b508092508193505050600060405180807f6572726f72000000000000000000000000000000000000000000000000000000815250600501905060405180910390209050821561028a57818051906020012090505b8060025582829250925050925092905056fea2646970667358221220db58d80e8530eed625d9b4250a6055c2eb1d7c117a7ca267e6f8a059bdd2f39e64736f6c634300060a0033",
                "nonce" : "0x01",
                "storage" : {
                }
            },
            "0xa94f5374fce5edbc8e2a8697c15331677e6ebf0b" : {
                "balance" : "0x0de0b6b3a7640000",
                "code" : "0x",
                "nonce" : "0x00",
                "storage" : {
                }
            }
        },
        "postState" : {
            "0x095e7baea6a6c7c4c2dfeb977efac326af552d87" : {
                "code" : "0x60806040526004361061001e5760003560e01c806312bd429914610023575b600080fd5b6100fc6004803603604081101561003957600080fd5b81019080803573ffffffffffffffffffffffffffffffffffffffff1690602001909291908035906020019064010000000081111561007657600080fd5b82018360208201111561008857600080fd5b803590602001918460018302840111640100000000831117156100aa57600080fd5b91908080601f016020809104026020016040519081016040528093929190818152602001838380828437600081840152601f19601f820116905080830192505050505050509192919290505050610182565b604051808315151515815260200180602001828103825283818151815260200191508051906020019080838360005b8381101561014657808201518184015260208101905061012b565b50505050905090810190601f1680156101735780820380516001836020036101000a031916815260200191505b50935050505060405180910390f35b600060608373ffffffffffffffffffffffffffffffffffffffff16836040518082805190602001908083835b602083106101d157805182526020820191506020810190506020830392506101ae565b6001836020036101000a038019825116818451168082178552505050505050905001915050600060405180830381855afa9150503d8060008114610231576040519150601f19603f3d011682016040523d82523d6000602084013e610236565b606091505b508092508193505050600060405180807f6572726f72000000000000000000000000000000000000000000000000000000815250600501905060405180910390209050821561028a57818051906020012090505b8060025582829250925050925092905056fea2646970667358221220db58d80e8530eed625d9b4250a6055c2eb1d7c117a7ca267e6f8a059bdd2f39e64736f6c634300060a0033",
                "nonce" : "0x01",
                "balance" : "0x03e8",
                "storage" : {
                    "0x02" : "0x177f242d20ff7dc4598657e4355abd2b0df8f6351283a95d209db56ce73ef6e9"
                }
            },
            "0x2adc25665018aa1fe0e6bc666dac8fc2697ff9ba" : {
                "code" : "0x",
                "nonce" : "0x00",
                "balance" : "0x1bc16d674f317ebb",
                "storage" : {
                }
            },
            "0xa94f5374fce5edbc8e2a8697c15331677e6ebf0b" : {
                "code" : "0x",
                "nonce" : "0x01",
                "balance" : "0x0de0b6b3a6fa7d5d",
                "storage" : {
                }
            }
        },
        "network" : "Berlin",
        "sealEngine" : "NoProof",
        "lastblockhash" : "0x08683c08ab5dc7507dcac4d249539e654425b4986aaec89bfbb97b09d74577fe",
        "genesisRLP" : "0xf901fcf901f7a00000000000000000000000000000000000000000000000000000000000000000a01dcc4de8dec75d7aab85b567b6ccd41ad312451b948a7413f0a142fd40d49347942adc25665018aa1fe0e6bc666dac8fc2697ff9baa0bf61e00e2f1fbb3ea831c4ff3bbeff62f2737e7f0d88945ba62e0722eab6cd68a056e81f171bcc55a6ff8345e692c0f86e5b48e01b996cadc001622fb5e363b421a056e81f171bcc55a6ff8345e692c0f86e5b48e01b996cadc001622fb5e363b421b9010000000000000000000000000000000000000000000000000000000000000000000000000000000000000000000000000000000000000000000000000000000000000000000000000000000000000000000000000000000000000000000000000000000000000000000000000000000000000000000000000000000000000000000000000000000000000000000000000000000000000000000000000000000000000000000000000000000000000000000000000000000000000000000000000000000000000000000000000000000000000000000000000000000000000000000000000000000000000000000000000000000000000000000000000000000000830200008087ff112233445566808000a00000000000000000000000000000000000000000000000000000000000000000880000000000000000c0c0",
        "blocks" : [
            {
                "rlp" : "0xf905cef901fca0f227282805f439ca053613f53f119422bda960eea236c4b013eca3b95c6be464a01dcc4de8dec75d7aab85b567b6ccd41ad312451b948a7413f0a142fd40d49347942adc25665018aa1fe0e6bc666dac8fc2697ff9baa09daead7e8ad69b2f791cf613858622518d69d9144b5552e1443aa2ab3287098da055e2b8e73e2b3b907d3d114f2dd652d7ea6c83d7ec30e3f8976fa065354e5a90a01d94d3f584f3072e26685d45bae18b61fd733abe7d4e2a88b22ca4019d007a6eb9010000000000000000000000000000000000000000000000000000000000000000000000000000000000000000000000000000000000000000000000000000000000000000000000000000000000000000000000000000000000000000000000000000000000000000000000000000000000000000000000000000000000000000000000000000000000000000000000000000000000000000000000000000000000000000000000000000000000000000000000000000000000000000000000000000000000000000000000000000000000000000000000000000000000000000000000000000000000000000000000000000000000000000000000000000000000830200000187ff11223344556683697ebb8203e800a00000000000000000000000000000000000000000000000000000000000000000880000000000000000f903cbf903c88001836acfc094095e7baea6a6c7c4c2dfeb977efac326af552d878203e8b9036412bd4299000000000000000000000000000000000000000000000000000000000000001000000000000000000000000000000000000000000000000000000000000000400000000000000000000000000000000000000000000000000000000000000300000000000000000000000000000000001902b8c58eae3ca8d2261a637902587c2c0e75d32abc894967b6837ea34252e4558966f931789ccd76c1bbe3e092b180000000000000000000000000000000000dd20f71f5054c79d5e357f69f8d7345b5a036241774a72743271f2dc8f6e8c29a3babc2b65ed8193cc0636fb2e86f740000000000000000000000000000000003e06e2dcfbd695e9bda0baee1276ceab637fd1fbe2d2d6458c923c35b00edc7edf4f9e797aea59ff8cfceada0615a02000000000000000000000000000000000a04a2ed5e42fac7f064b43d64151a6c517ecf22dbc7563a3e9f35f555a9992fe45cf6a728ba94607df7c96f7e0a334b00000000000000000000000000000000090fac97f9f524168bc930d26ea1627ceaf187398d6bfc5a019c8467d75cd31a41c7eb9fda35fc85bd92b4cfca92dbff000000000000000000000000000000000f37b91dc935c28668c27d38328a511148c1739b65f2816dc53e42a8f059c9b2be7417a6f97c9a2597b1a0f06b7afc65000000000000000000000000000000001687dbd36c7f96f8be47f08bb75bc72f91e63e26d0157a9a9c8f531f3e73bfbd9870fe9abd0a7a3fe73b997e48d0ffb8000000000000000000000000000000000183ba882bdaf1dc850cb4e98158895effda1734fa64810cb15640e6cc027bd006e5c1a088cc2c65e8af29b64fe41d4c0000000000000000000000000000000003e06e2dcfbd695e9bda0baee1276ceab637fd1fbe2d2d6458c923c35b00edc7edf4f9e797aea59ff8cfceada0615a02000000000000000000000000000000000a04a2ed5e42fac7f064b43d64151a6c517ecf22dbc7563a3e9f35f555a9992fe45cf6a728ba94607df7c96f7e0a334b00000000000000000000000000000000090fac97f9f524168bc930d26ea1627ceaf187398d6bfc5a019c8467d75cd31a41c7eb9fda35fc85bd92b4cfca92dbff000000000000000000000000000000000f37b91dc935c28668c27d38328a511148c1739b65f2816dc53e42a8f059c9b2be7417a6f97c9a2597b1a0f06b7afc651ca0691902057f9719121a03ad56f9e879a50b2c8009b21ed6eb9d11f09d58a3c599a03e550e67d4e78a8a7ee6c43abe56f1ae472e24f852133872e40aae8117ceb9bfc0",
                "blockHeader" : {
                    "bloom" : "0x00000000000000000000000000000000000000000000000000000000000000000000000000000000000000000000000000000000000000000000000000000000000000000000000000000000000000000000000000000000000000000000000000000000000000000000000000000000000000000000000000000000000000000000000000000000000000000000000000000000000000000000000000000000000000000000000000000000000000000000000000000000000000000000000000000000000000000000000000000000000000000000000000000000000000000000000000000000000000000000000000000000000000000000000000000000",
                    "coinbase" : "0x2adc25665018aa1fe0e6bc666dac8fc2697ff9ba",
                    "difficulty" : "0x020000",
                    "extraData" : "0x00",
                    "gasLimit" : "0xff112233445566",
                    "gasUsed" : "0x697ebb",
                    "hash" : "0x08683c08ab5dc7507dcac4d249539e654425b4986aaec89bfbb97b09d74577fe",
                    "mixHash" : "0x0000000000000000000000000000000000000000000000000000000000000000",
                    "nonce" : "0x0000000000000000",
                    "number" : "0x01",
                    "parentHash" : "0xf227282805f439ca053613f53f119422bda960eea236c4b013eca3b95c6be464",
                    "receiptTrie" : "0x1d94d3f584f3072e26685d45bae18b61fd733abe7d4e2a88b22ca4019d007a6e",
                    "stateRoot" : "0x9daead7e8ad69b2f791cf613858622518d69d9144b5552e1443aa2ab3287098d",
                    "timestamp" : "0x03e8",
                    "transactionsTrie" : "0x55e2b8e73e2b3b907d3d114f2dd652d7ea6c83d7ec30e3f8976fa065354e5a90",
                    "uncleHash" : "0x1dcc4de8dec75d7aab85b567b6ccd41ad312451b948a7413f0a142fd40d49347"
                },
                "transactions" : [
                    {
                        "data" : "0x12bd4299000000000000000000000000000000000000000000000000000000000000001000000000000000000000000000000000000000000000000000000000000000400000000000000000000000000000000000000000000000000000000000000300000000000000000000000000000000001902b8c58eae3ca8d2261a637902587c2c0e75d32abc894967b6837ea34252e4558966f931789ccd76c1bbe3e092b180000000000000000000000000000000000dd20f71f5054c79d5e357f69f8d7345b5a036241774a72743271f2dc8f6e8c29a3babc2b65ed8193cc0636fb2e86f740000000000000000000000000000000003e06e2dcfbd695e9bda0baee1276ceab637fd1fbe2d2d6458c923c35b00edc7edf4f9e797aea59ff8cfceada0615a02000000000000000000000000000000000a04a2ed5e42fac7f064b43d64151a6c517ecf22dbc7563a3e9f35f555a9992fe45cf6a728ba94607df7c96f7e0a334b00000000000000000000000000000000090fac97f9f524168bc930d26ea1627ceaf187398d6bfc5a019c8467d75cd31a41c7eb9fda35fc85bd92b4cfca92dbff000000000000000000000000000000000f37b91dc935c28668c27d38328a511148c1739b65f2816dc53e42a8f059c9b2be7417a6f97c9a2597b1a0f06b7afc65000000000000000000000000000000001687dbd36c7f96f8be47f08bb75bc72f91e63e26d0157a9a9c8f531f3e73bfbd9870fe9abd0a7a3fe73b997e48d0ffb8000000000000000000000000000000000183ba882bdaf1dc850cb4e98158895effda1734fa64810cb15640e6cc027bd006e5c1a088cc2c65e8af29b64fe41d4c0000000000000000000000000000000003e06e2dcfbd695e9bda0baee1276ceab637fd1fbe2d2d6458c923c35b00edc7edf4f9e797aea59ff8cfceada0615a02000000000000000000000000000000000a04a2ed5e42fac7f064b43d64151a6c517ecf22dbc7563a3e9f35f555a9992fe45cf6a728ba94607df7c96f7e0a334b00000000000000000000000000000000090fac97f9f524168bc930d26ea1627ceaf187398d6bfc5a019c8467d75cd31a41c7eb9fda35fc85bd92b4cfca92dbff000000000000000000000000000000000f37b91dc935c28668c27d38328a511148c1739b65f2816dc53e42a8f059c9b2be7417a6f97c9a2597b1a0f06b7afc65",
                        "gasLimit" : "0x6acfc0",
                        "gasPrice" : "0x01",
                        "nonce" : "0x00",
                        "to" : "0x095e7baea6a6c7c4c2dfeb977efac326af552d87",
                        "value" : "0x03e8",
                        "v" : "0x1c",
                        "r" : "0x691902057f9719121a03ad56f9e879a50b2c8009b21ed6eb9d11f09d58a3c599",
                        "s" : "0x3e550e67d4e78a8a7ee6c43abe56f1ae472e24f852133872e40aae8117ceb9bf"
                    }
                ],
                "uncleHeaders" : [
                ]
            }
        ]
    }
}