{
    "invalid_subgroup_for_pairing_95_d0g0v0_Berlin" : {
        "_info" : {
            "comment" : "A test for invalid_subgroup_for_pairing_95",
            "filling-rpc-server" : "evm version 1.9.23-unstable-0efc69a9-20201022",
            "filling-tool-version" : "retesteth-0.0.9-berlin+commit.2f30f0ea.Linux.g++",
            "lllcversion" : "Version: 0.5.14-develop.2020.6.22+commit.9189ad7a.Linux.g++",
            "source" : "src/GeneralStateTestsFiller/stEIP2537/invalid_subgroup_for_pairing_95Filler.json",
            "sourceHash" : "5cfe89701d4d06f92ab2f35f7e13a82e83542fd98ad3017eb5052b36967a9816"
        },
        "genesisBlockHeader" : {
            "bloom" : "0x00000000000000000000000000000000000000000000000000000000000000000000000000000000000000000000000000000000000000000000000000000000000000000000000000000000000000000000000000000000000000000000000000000000000000000000000000000000000000000000000000000000000000000000000000000000000000000000000000000000000000000000000000000000000000000000000000000000000000000000000000000000000000000000000000000000000000000000000000000000000000000000000000000000000000000000000000000000000000000000000000000000000000000000000000000000",
            "coinbase" : "0x2adc25665018aa1fe0e6bc666dac8fc2697ff9ba",
            "difficulty" : "0x020000",
            "extraData" : "0x00",
            "gasLimit" : "0xff112233445566",
            "gasUsed" : "0x00",
            "hash" : "0xf227282805f439ca053613f53f119422bda960eea236c4b013eca3b95c6be464",
            "mixHash" : "0x0000000000000000000000000000000000000000000000000000000000000000",
            "nonce" : "0x0000000000000000",
            "number" : "0x00",
            "parentHash" : "0x0000000000000000000000000000000000000000000000000000000000000000",
            "receiptTrie" : "0x56e81f171bcc55a6ff8345e692c0f86e5b48e01b996cadc001622fb5e363b421",
            "stateRoot" : "0xbf61e00e2f1fbb3ea831c4ff3bbeff62f2737e7f0d88945ba62e0722eab6cd68",
            "timestamp" : "0x00",
            "transactionsTrie" : "0x56e81f171bcc55a6ff8345e692c0f86e5b48e01b996cadc001622fb5e363b421",
            "uncleHash" : "0x1dcc4de8dec75d7aab85b567b6ccd41ad312451b948a7413f0a142fd40d49347"
        },
        "pre" : {
            "0x095e7baea6a6c7c4c2dfeb977efac326af552d87" : {
                "balance" : "0x00",
                "code" : "0x60806040526004361061001e5760003560e01c806312bd429914610023575b600080fd5b6100fc6004803603604081101561003957600080fd5b81019080803573ffffffffffffffffffffffffffffffffffffffff1690602001909291908035906020019064010000000081111561007657600080fd5b82018360208201111561008857600080fd5b803590602001918460018302840111640100000000831117156100aa57600080fd5b91908080601f016020809104026020016040519081016040528093929190818152602001838380828437600081840152601f19601f820116905080830192505050505050509192919290505050610182565b604051808315151515815260200180602001828103825283818151815260200191508051906020019080838360005b8381101561014657808201518184015260208101905061012b565b50505050905090810190601f1680156101735780820380516001836020036101000a031916815260200191505b50935050505060405180910390f35b600060608373ffffffffffffffffffffffffffffffffffffffff16836040518082805190602001908083835b602083106101d157805182526020820191506020810190506020830392506101ae565b6001836020036101000a038019825116818451168082178552505050505050905001915050600060405180830381855afa9150503d8060008114610231576040519150601f19603f3d011682016040523d82523d6000602084013e610236565b606091505b508092508193505050600060405180807f6572726f72000000000000000000000000000000000000000000000000000000815250600501905060405180910390209050821561028a57818051906020012090505b8060025582829250925050925092905056fea2646970667358221220db58d80e8530eed625d9b4250a6055c2eb1d7c117a7ca267e6f8a059bdd2f39e64736f6c634300060a0033",
                "nonce" : "0x01",
                "storage" : {
                }
            },
            "0xa94f5374fce5edbc8e2a8697c15331677e6ebf0b" : {
                "balance" : "0x0de0b6b3a7640000",
                "code" : "0x",
                "nonce" : "0x00",
                "storage" : {
                }
            }
        },
        "postState" : {
            "0x095e7baea6a6c7c4c2dfeb977efac326af552d87" : {
                "code" : "0x60806040526004361061001e5760003560e01c806312bd429914610023575b600080fd5b6100fc6004803603604081101561003957600080fd5b81019080803573ffffffffffffffffffffffffffffffffffffffff1690602001909291908035906020019064010000000081111561007657600080fd5b82018360208201111561008857600080fd5b803590602001918460018302840111640100000000831117156100aa57600080fd5b91908080601f016020809104026020016040519081016040528093929190818152602001838380828437600081840152601f19601f820116905080830192505050505050509192919290505050610182565b604051808315151515815260200180602001828103825283818151815260200191508051906020019080838360005b8381101561014657808201518184015260208101905061012b565b50505050905090810190601f1680156101735780820380516001836020036101000a031916815260200191505b50935050505060405180910390f35b600060608373ffffffffffffffffffffffffffffffffffffffff16836040518082805190602001908083835b602083106101d157805182526020820191506020810190506020830392506101ae565b6001836020036101000a038019825116818451168082178552505050505050905001915050600060405180830381855afa9150503d8060008114610231576040519150601f19603f3d011682016040523d82523d6000602084013e610236565b606091505b508092508193505050600060405180807f6572726f72000000000000000000000000000000000000000000000000000000815250600501905060405180910390209050821561028a57818051906020012090505b8060025582829250925050925092905056fea2646970667358221220db58d80e8530eed625d9b4250a6055c2eb1d7c117a7ca267e6f8a059bdd2f39e64736f6c634300060a0033",
                "nonce" : "0x01",
                "balance" : "0x03e8",
                "storage" : {
                    "0x02" : "0x177f242d20ff7dc4598657e4355abd2b0df8f6351283a95d209db56ce73ef6e9"
                }
            },
            "0x2adc25665018aa1fe0e6bc666dac8fc2697ff9ba" : {
                "code" : "0x",
                "nonce" : "0x00",
                "balance" : "0x1bc16d674f317ebb",
                "storage" : {
                }
            },
            "0xa94f5374fce5edbc8e2a8697c15331677e6ebf0b" : {
                "code" : "0x",
                "nonce" : "0x01",
                "balance" : "0x0de0b6b3a6fa7d5d",
                "storage" : {
                }
            }
        },
        "network" : "Berlin",
        "sealEngine" : "NoProof",
        "lastblockhash" : "0x6f50bdf384edcdeef4314a3ec4b53fa7f31060ea719f1e2d1c028005b5db48b0",
        "genesisRLP" : "0xf901fcf901f7a00000000000000000000000000000000000000000000000000000000000000000a01dcc4de8dec75d7aab85b567b6ccd41ad312451b948a7413f0a142fd40d49347942adc25665018aa1fe0e6bc666dac8fc2697ff9baa0bf61e00e2f1fbb3ea831c4ff3bbeff62f2737e7f0d88945ba62e0722eab6cd68a056e81f171bcc55a6ff8345e692c0f86e5b48e01b996cadc001622fb5e363b421a056e81f171bcc55a6ff8345e692c0f86e5b48e01b996cadc001622fb5e363b421b9010000000000000000000000000000000000000000000000000000000000000000000000000000000000000000000000000000000000000000000000000000000000000000000000000000000000000000000000000000000000000000000000000000000000000000000000000000000000000000000000000000000000000000000000000000000000000000000000000000000000000000000000000000000000000000000000000000000000000000000000000000000000000000000000000000000000000000000000000000000000000000000000000000000000000000000000000000000000000000000000000000000000000000000000000000000000830200008087ff112233445566808000a00000000000000000000000000000000000000000000000000000000000000000880000000000000000c0c0",
        "blocks" : [
            {
                "rlp" : "0xf905cef901fca0f227282805f439ca053613f53f119422bda960eea236c4b013eca3b95c6be464a01dcc4de8dec75d7aab85b567b6ccd41ad312451b948a7413f0a142fd40d49347942adc25665018aa1fe0e6bc666dac8fc2697ff9baa09daead7e8ad69b2f791cf613858622518d69d9144b5552e1443aa2ab3287098da09cd1babf4da2a9600f5eb1eabb0c9d9cdc4f5fa57b57aa6f33641d1ee5152d07a01d94d3f584f3072e26685d45bae18b61fd733abe7d4e2a88b22ca4019d007a6eb9010000000000000000000000000000000000000000000000000000000000000000000000000000000000000000000000000000000000000000000000000000000000000000000000000000000000000000000000000000000000000000000000000000000000000000000000000000000000000000000000000000000000000000000000000000000000000000000000000000000000000000000000000000000000000000000000000000000000000000000000000000000000000000000000000000000000000000000000000000000000000000000000000000000000000000000000000000000000000000000000000000000000000000000000000000000000830200000187ff11223344556683697ebb8203e800a00000000000000000000000000000000000000000000000000000000000000000880000000000000000f903cbf903c88001836acfc094095e7baea6a6c7c4c2dfeb977efac326af552d878203e8b9036412bd4299000000000000000000000000000000000000000000000000000000000000001000000000000000000000000000000000000000000000000000000000000000400000000000000000000000000000000000000000000000000000000000000300000000000000000000000000000000000a86f90fcd9b63a0cd5f53356c170699d78d03f180d59c38ff770560bda30bf412fdcf236b6720d94684ef1aab97bafc00000000000000000000000000000000030bcbb272ab20a2f27d45295875e3c29a8ad088bb8173feb6f6f4d2c81bbc91d673c23239e36bdafada8c7d50b54b440000000000000000000000000000000011e01c96294c726ed3ef22a5c6597d8202604c4fb14058bf44fa64ae6d342f6f77f151c8ecd99f793e79f0ad29c309f40000000000000000000000000000000000e186664d8c2a2e136ff1be2192573b94c083bf242b2c01c984a792e43a11a10599481a9a79f6a8d5b074bc16019725000000000000000000000000000000000fc48ade56f841489c4824411130fb5b7e0e83b613fa09099f318cef207ce035d5d6e7ecff5057c15ee764ec8a7fa20300000000000000000000000000000000003f1b261043887af57fab48b505ed7aa44132457d71a390646b70fcd073e677a7e275a89dd0a2bf32beae3b2bcbd6e9000000000000000000000000000000000a86f90fcd9b63a0cd5f53356c170699d78d03f180d59c38ff770560bda30bf412fdcf236b6720d94684ef1aab97bafc00000000000000000000000000000000030bcbb272ab20a2f27d45295875e3c29a8ad088bb8173feb6f6f4d2c81bbc91d673c23239e36bdafada8c7d50b54b44000000000000000000000000000000000781404020a416e2596ab361e02674e25cfb365420d35d5db7146f563a7675a942383da44ae4df49c45b38e371c82a2a0000000000000000000000000000000010c546bda090a13ccf0fec03bdcb87b41f5aed3b4e6740690afb9dadc57d773aae2d22a2d8323336c5b1dc5798725495000000000000000000000000000000000bea6aaaadbbe8102212279f1458c461d3a0d54e341c91b5e16e0ce5ba1517a13cd1d43e1d0b25a63b7cc57ece5369f3000000000000000000000000000000000b0b676e5cc2f6ac383f5dd42d379c552579f601de0cf4f34ac637383a31e393df40f5c0f95b5a8f57cd6fa4de01caeb1ba0f66a550f5f9dd73e4229bf60bf827138907e5af3953ac32354112027763e2251a04febb97a9d0474471751381cadea0a1d0f3e4c67715bf6a4d4287e9052697516c0",
                "blockHeader" : {
                    "bloom" : "0x00000000000000000000000000000000000000000000000000000000000000000000000000000000000000000000000000000000000000000000000000000000000000000000000000000000000000000000000000000000000000000000000000000000000000000000000000000000000000000000000000000000000000000000000000000000000000000000000000000000000000000000000000000000000000000000000000000000000000000000000000000000000000000000000000000000000000000000000000000000000000000000000000000000000000000000000000000000000000000000000000000000000000000000000000000000",
                    "coinbase" : "0x2adc25665018aa1fe0e6bc666dac8fc2697ff9ba",
                    "difficulty" : "0x020000",
                    "extraData" : "0x00",
                    "gasLimit" : "0xff112233445566",
                    "gasUsed" : "0x697ebb",
                    "hash" : "0x6f50bdf384edcdeef4314a3ec4b53fa7f31060ea719f1e2d1c028005b5db48b0",
                    "mixHash" : "0x0000000000000000000000000000000000000000000000000000000000000000",
                    "nonce" : "0x0000000000000000",
                    "number" : "0x01",
                    "parentHash" : "0xf227282805f439ca053613f53f119422bda960eea236c4b013eca3b95c6be464",
                    "receiptTrie" : "0x1d94d3f584f3072e26685d45bae18b61fd733abe7d4e2a88b22ca4019d007a6e",
                    "stateRoot" : "0x9daead7e8ad69b2f791cf613858622518d69d9144b5552e1443aa2ab3287098d",
                    "timestamp" : "0x03e8",
                    "transactionsTrie" : "0x9cd1babf4da2a9600f5eb1eabb0c9d9cdc4f5fa57b57aa6f33641d1ee5152d07",
                    "uncleHash" : "0x1dcc4de8dec75d7aab85b567b6ccd41ad312451b948a7413f0a142fd40d49347"
                },
                "transactions" : [
                    {
                        "data" : "0x12bd4299000000000000000000000000000000000000000000000000000000000000001000000000000000000000000000000000000000000000000000000000000000400000000000000000000000000000000000000000000000000000000000000300000000000000000000000000000000000a86f90fcd9b63a0cd5f53356c170699d78d03f180d59c38ff770560bda30bf412fdcf236b6720d94684ef1aab97bafc00000000000000000000000000000000030bcbb272ab20a2f27d45295875e3c29a8ad088bb8173feb6f6f4d2c81bbc91d673c23239e36bdafada8c7d50b54b440000000000000000000000000000000011e01c96294c726ed3ef22a5c6597d8202604c4fb14058bf44fa64ae6d342f6f77f151c8ecd99f793e79f0ad29c309f40000000000000000000000000000000000e186664d8c2a2e136ff1be2192573b94c083bf242b2c01c984a792e43a11a10599481a9a79f6a8d5b074bc16019725000000000000000000000000000000000fc48ade56f841489c4824411130fb5b7e0e83b613fa09099f318cef207ce035d5d6e7ecff5057c15ee764ec8a7fa20300000000000000000000000000000000003f1b261043887af57fab48b505ed7aa44132457d71a390646b70fcd073e677a7e275a89dd0a2bf32beae3b2bcbd6e9000000000000000000000000000000000a86f90fcd9b63a0cd5f53356c170699d78d03f180d59c38ff770560bda30bf412fdcf236b6720d94684ef1aab97bafc00000000000000000000000000000000030bcbb272ab20a2f27d45295875e3c29a8ad088bb8173feb6f6f4d2c81bbc91d673c23239e36bdafada8c7d50b54b44000000000000000000000000000000000781404020a416e2596ab361e02674e25cfb365420d35d5db7146f563a7675a942383da44ae4df49c45b38e371c82a2a0000000000000000000000000000000010c546bda090a13ccf0fec03bdcb87b41f5aed3b4e6740690afb9dadc57d773aae2d22a2d8323336c5b1dc5798725495000000000000000000000000000000000bea6aaaadbbe8102212279f1458c461d3a0d54e341c91b5e16e0ce5ba1517a13cd1d43e1d0b25a63b7cc57ece5369f3000000000000000000000000000000000b0b676e5cc2f6ac383f5dd42d379c552579f601de0cf4f34ac637383a31e393df40f5c0f95b5a8f57cd6fa4de01caeb",
                        "gasLimit" : "0x6acfc0",
                        "gasPrice" : "0x01",
                        "nonce" : "0x00",
                        "to" : "0x095e7baea6a6c7c4c2dfeb977efac326af552d87",
                        "value" : "0x03e8",
                        "v" : "0x1b",
                        "r" : "0xf66a550f5f9dd73e4229bf60bf827138907e5af3953ac32354112027763e2251",
                        "s" : "0x4febb97a9d0474471751381cadea0a1d0f3e4c67715bf6a4d4287e9052697516"
                    }
                ],
                "uncleHeaders" : [
                ]
            }
        ]
    }
}