{
    "invalid_subgroup_for_pairing_14_d0g0v0_Prague" : {
        "_info" : {
            "comment" : "A test for invalid_subgroup_for_pairing_14",
            "filling-rpc-server" : "evm version 1.14.0-unstable-a208e725-20240416",
            "filling-tool-version" : "retesteth-0.3.2-cancun+commit.353b2b37.Linux.g++",
            "generatedTestHash" : "cfb0e213eecfb20ff74b41d1f296c1540d9138b65a1b2d43c67c2fc187aec726",
            "lllcversion" : "Version: 0.5.14-develop.2023.7.11+commit.c58ab2c6.mod.Linux.g++",
            "solidity" : "Version: 0.8.21+commit.d9974bed.Linux.g++",
            "source" : "src/EIPTestsFiller/StateTests/stEIP2537/invalid_subgroup_for_pairing_14Filler.json",
            "sourceHash" : "9450241bfd6be9b5e5b0ecbb467cb4e89ed0ba9fb8e4964f6180a1d222a286df"
        },
        "blocks" : [
            {
                "blockHeader" : {
                    "baseFeePerGas" : "0x0a",
                    "blobGasUsed" : "0x00",
                    "bloom" : "0x00000000000000000000000000000000000000000000000000000000000000000000000000000000000000000000000000000000000000000000000000000000000000000000000000000000000000000000000000000000000000000000000000000000000000000000000000000000000000000000000000000000000000000000000000000000000000000000000000000000000000000000000000000000000000000000000000000000000000000000000000000000000000000000000000000000000000000000000000000000000000000000000000000000000000000000000000000000000000000000000000000000000000000000000000000000",
                    "coinbase" : "0x2adc25665018aa1fe0e6bc666dac8fc2697ff9ba",
                    "difficulty" : "0x00",
                    "excessBlobGas" : "0x00",
                    "extraData" : "0x00",
                    "gasLimit" : "0xff112233445566",
                    "gasUsed" : "0x697eba",
                    "hash" : "0xf7080d9c8c1507d5015768e18318ef502ec621369ab3016263d18cfe4eae275f",
                    "mixHash" : "0x0000000000000000000000000000000000000000000000000000000000020000",
                    "nonce" : "0x0000000000000000",
                    "number" : "0x01",
                    "parentBeaconBlockRoot" : "0x0000000000000000000000000000000000000000000000000000000000000000",
                    "parentHash" : "0xc9cb4ed0dc693e89844b5a27d709ebd577e6a8380102855ef905d3d2d81ac0e5",
                    "receiptTrie" : "0x0d1219b4002c41189572bf91f28b25ce52a74e600d9f36231314fc503f3ef31c",
                    "stateRoot" : "0xfad513067e41fa19140abc62c9471635f02192eb4e61ab11d9e37de7a6078ab5",
                    "timestamp" : "0x03e8",
                    "transactionsTrie" : "0x79a24484adc6bad04d42119f5e1f2bb728420240673b4658c46931c372d3e99a",
                    "uncleHash" : "0x1dcc4de8dec75d7aab85b567b6ccd41ad312451b948a7413f0a142fd40d49347",
                    "withdrawalsRoot" : "0x56e81f171bcc55a6ff8345e692c0f86e5b48e01b996cadc001622fb5e363b421"
                },
                "rlp" : "0xf90611f9023ea0c9cb4ed0dc693e89844b5a27d709ebd577e6a8380102855ef905d3d2d81ac0e5a01dcc4de8dec75d7aab85b567b6ccd41ad312451b948a7413f0a142fd40d49347942adc25665018aa1fe0e6bc666dac8fc2697ff9baa0fad513067e41fa19140abc62c9471635f02192eb4e61ab11d9e37de7a6078ab5a079a24484adc6bad04d42119f5e1f2bb728420240673b4658c46931c372d3e99aa00d1219b4002c41189572bf91f28b25ce52a74e600d9f36231314fc503f3ef31cb9010000000000000000000000000000000000000000000000000000000000000000000000000000000000000000000000000000000000000000000000000000000000000000000000000000000000000000000000000000000000000000000000000000000000000000000000000000000000000000000000000000000000000000000000000000000000000000000000000000000000000000000000000000000000000000000000000000000000000000000000000000000000000000000000000000000000000000000000000000000000000000000000000000000000000000000000000000000000000000000000000000000000000000000000000000000000800187ff11223344556683697eba8203e800a000000000000000000000000000000000000000000000000000000000000200008800000000000000000aa056e81f171bcc55a6ff8345e692c0f86e5b48e01b996cadc001622fb5e363b4218080a00000000000000000000000000000000000000000000000000000000000000000f903cbf903c8800a836acfc094095e7baea6a6c7c4c2dfeb977efac326af552d878203e8b9036412bd42990000000000000000000000000000000000000000000000000000000000000011000000000000000000000000000000000000000000000000000000000000004000000000000000000000000000000000000000000000000000000000000003000000000000000000000000000000000001ac9e5f4fdccfe8d2979ad5329b07b23b497c2b7f26283f8c79548387610580568bdd9dc040261d6c265aac581b4665000000000000000000000000000000000eaf31d6368bb9d762ea067eed73b008dcb4d84643471dc1d64104eaefaf500858d9a9323b7fa2ba3c22bf15e7db6b9d0000000000000000000000000000000007457f2601621a99050d8993244f026b9a62ff7055b325e6f1edd1cf54065785f003cf7c8a4bb1f7bdf14e220e490ada000000000000000000000000000000000928eb76b428dde37546a27f3d77605c293738f448fbdd6d618747b0de04004aa4419cc5601600419c6e1d470c15982e0000000000000000000000000000000008074e9f5473492dd2e536f7b305be4e5c564cfc9218934d03dde6dc5118064ebaa5c26fdd1123a9c31336c37c1234900000000000000000000000000000000002bba1f9b7da6abd2b322c8f11c749b2a284552eab25a77d21b38b028da477a3ffec1901a015e81fe2893576a41e4c0b00000000000000000000000000000000172447291285a20c3ffcdef805260f00fbd4c5d3a42ee5b17d5ec05a723aadf4c2acc49f839e222155f29d0c6384bb0a000000000000000000000000000000001490dae85f858ed057fdb61c22ebf3d45c3af02afa53f32b2542808bb4db5bb1b9603e377f0b6d214e03050379f8006c0000000000000000000000000000000007457f2601621a99050d8993244f026b9a62ff7055b325e6f1edd1cf54065785f003cf7c8a4bb1f7bdf14e220e490ada000000000000000000000000000000000928eb76b428dde37546a27f3d77605c293738f448fbdd6d618747b0de04004aa4419cc5601600419c6e1d470c15982e0000000000000000000000000000000008074e9f5473492dd2e536f7b305be4e5c564cfc9218934d03dde6dc5118064ebaa5c26fdd1123a9c31336c37c1234900000000000000000000000000000000002bba1f9b7da6abd2b322c8f11c749b2a284552eab25a77d21b38b028da477a3ffec1901a015e81fe2893576a41e4c0b1ca00d97e4d2c5394e5eb185268c0e0825b5e5674ff69a964f16b19165117641a4faa05200dc84ecfae1944bb77d3ff0bdce078aafe8a5acb8d0128b1eda1c4845cc4ec0c0",
                "transactions" : [
                    {
                        "data" : "0x12bd42990000000000000000000000000000000000000000000000000000000000000011000000000000000000000000000000000000000000000000000000000000004000000000000000000000000000000000000000000000000000000000000003000000000000000000000000000000000001ac9e5f4fdccfe8d2979ad5329b07b23b497c2b7f26283f8c79548387610580568bdd9dc040261d6c265aac581b4665000000000000000000000000000000000eaf31d6368bb9d762ea067eed73b008dcb4d84643471dc1d64104eaefaf500858d9a9323b7fa2ba3c22bf15e7db6b9d0000000000000000000000000000000007457f2601621a99050d8993244f026b9a62ff7055b325e6f1edd1cf54065785f003cf7c8a4bb1f7bdf14e220e490ada000000000000000000000000000000000928eb76b428dde37546a27f3d77605c293738f448fbdd6d618747b0de04004aa4419cc5601600419c6e1d470c15982e0000000000000000000000000000000008074e9f5473492dd2e536f7b305be4e5c564cfc9218934d03dde6dc5118064ebaa5c26fdd1123a9c31336c37c1234900000000000000000000000000000000002bba1f9b7da6abd2b322c8f11c749b2a284552eab25a77d21b38b028da477a3ffec1901a015e81fe2893576a41e4c0b00000000000000000000000000000000172447291285a20c3ffcdef805260f00fbd4c5d3a42ee5b17d5ec05a723aadf4c2acc49f839e222155f29d0c6384bb0a000000000000000000000000000000001490dae85f858ed057fdb61c22ebf3d45c3af02afa53f32b2542808bb4db5bb1b9603e377f0b6d214e03050379f8006c0000000000000000000000000000000007457f2601621a99050d8993244f026b9a62ff7055b325e6f1edd1cf54065785f003cf7c8a4bb1f7bdf14e220e490ada000000000000000000000000000000000928eb76b428dde37546a27f3d77605c293738f448fbdd6d618747b0de04004aa4419cc5601600419c6e1d470c15982e0000000000000000000000000000000008074e9f5473492dd2e536f7b305be4e5c564cfc9218934d03dde6dc5118064ebaa5c26fdd1123a9c31336c37c1234900000000000000000000000000000000002bba1f9b7da6abd2b322c8f11c749b2a284552eab25a77d21b38b028da477a3ffec1901a015e81fe2893576a41e4c0b",
                        "gasLimit" : "0x6acfc0",
                        "gasPrice" : "0x0a",
                        "nonce" : "0x00",
                        "r" : "0x0d97e4d2c5394e5eb185268c0e0825b5e5674ff69a964f16b19165117641a4fa",
                        "s" : "0x5200dc84ecfae1944bb77d3ff0bdce078aafe8a5acb8d0128b1eda1c4845cc4e",
                        "sender" : "0xa94f5374fce5edbc8e2a8697c15331677e6ebf0b",
                        "to" : "0x095e7baea6a6c7c4c2dfeb977efac326af552d87",
                        "v" : "0x1c",
                        "value" : "0x03e8"
                    }
                ],
                "uncleHeaders" : [
                ],
                "withdrawals" : [
                ]
            }
        ],
        "genesisBlockHeader" : {
            "baseFeePerGas" : "0x0b",
            "blobGasUsed" : "0x00",
            "bloom" : "0x00000000000000000000000000000000000000000000000000000000000000000000000000000000000000000000000000000000000000000000000000000000000000000000000000000000000000000000000000000000000000000000000000000000000000000000000000000000000000000000000000000000000000000000000000000000000000000000000000000000000000000000000000000000000000000000000000000000000000000000000000000000000000000000000000000000000000000000000000000000000000000000000000000000000000000000000000000000000000000000000000000000000000000000000000000000",
            "coinbase" : "0x2adc25665018aa1fe0e6bc666dac8fc2697ff9ba",
            "difficulty" : "0x00",
            "excessBlobGas" : "0x060000",
            "extraData" : "0x00",
            "gasLimit" : "0xff112233445566",
            "gasUsed" : "0x00",
            "hash" : "0xc9cb4ed0dc693e89844b5a27d709ebd577e6a8380102855ef905d3d2d81ac0e5",
            "mixHash" : "0x0000000000000000000000000000000000000000000000000000000000020000",
            "nonce" : "0x0000000000000000",
            "number" : "0x00",
            "parentBeaconBlockRoot" : "0x0000000000000000000000000000000000000000000000000000000000000000",
            "parentHash" : "0x0000000000000000000000000000000000000000000000000000000000000000",
            "receiptTrie" : "0x56e81f171bcc55a6ff8345e692c0f86e5b48e01b996cadc001622fb5e363b421",
            "stateRoot" : "0x00059c610e858a345663eede1b974d037c154e4b4bb16a01ea2fd48a4d67bf65",
            "timestamp" : "0x00",
            "transactionsTrie" : "0x56e81f171bcc55a6ff8345e692c0f86e5b48e01b996cadc001622fb5e363b421",
            "uncleHash" : "0x1dcc4de8dec75d7aab85b567b6ccd41ad312451b948a7413f0a142fd40d49347",
            "withdrawalsRoot" : "0x56e81f171bcc55a6ff8345e692c0f86e5b48e01b996cadc001622fb5e363b421"
        },
        "genesisRLP" : "0xf90242f9023ca00000000000000000000000000000000000000000000000000000000000000000a01dcc4de8dec75d7aab85b567b6ccd41ad312451b948a7413f0a142fd40d49347942adc25665018aa1fe0e6bc666dac8fc2697ff9baa000059c610e858a345663eede1b974d037c154e4b4bb16a01ea2fd48a4d67bf65a056e81f171bcc55a6ff8345e692c0f86e5b48e01b996cadc001622fb5e363b421a056e81f171bcc55a6ff8345e692c0f86e5b48e01b996cadc001622fb5e363b421b9010000000000000000000000000000000000000000000000000000000000000000000000000000000000000000000000000000000000000000000000000000000000000000000000000000000000000000000000000000000000000000000000000000000000000000000000000000000000000000000000000000000000000000000000000000000000000000000000000000000000000000000000000000000000000000000000000000000000000000000000000000000000000000000000000000000000000000000000000000000000000000000000000000000000000000000000000000000000000000000000000000000000000000000000000000000000808087ff112233445566808000a000000000000000000000000000000000000000000000000000000000000200008800000000000000000ba056e81f171bcc55a6ff8345e692c0f86e5b48e01b996cadc001622fb5e363b4218083060000a00000000000000000000000000000000000000000000000000000000000000000c0c0c0",
        "lastblockhash" : "0xf7080d9c8c1507d5015768e18318ef502ec621369ab3016263d18cfe4eae275f",
        "network" : "Prague",
        "postState" : {
            "0x000f3df6d732807ef1319fb7b8bb8522d0beac02" : {
                "balance" : "0x00",
                "code" : "0x3373fffffffffffffffffffffffffffffffffffffffe14604d57602036146024575f5ffd5b5f35801560495762001fff810690815414603c575f5ffd5b62001fff01545f5260205ff35b5f5ffd5b62001fff42064281555f359062001fff015500",
                "nonce" : "0x01",
                "storage" : {
                    "0x03e8" : "0x03e8"
                }
            },
            "0x095e7baea6a6c7c4c2dfeb977efac326af552d87" : {
                "balance" : "0x03e8",
                "code" : "0x60806040526004361061001e5760003560e01c806312bd429914610023575b600080fd5b6100fc6004803603604081101561003957600080fd5b81019080803573ffffffffffffffffffffffffffffffffffffffff1690602001909291908035906020019064010000000081111561007657600080fd5b82018360208201111561008857600080fd5b803590602001918460018302840111640100000000831117156100aa57600080fd5b91908080601f016020809104026020016040519081016040528093929190818152602001838380828437600081840152601f19601f820116905080830192505050505050509192919290505050610182565b604051808315151515815260200180602001828103825283818151815260200191508051906020019080838360005b8381101561014657808201518184015260208101905061012b565b50505050905090810190601f1680156101735780820380516001836020036101000a031916815260200191505b50935050505060405180910390f35b600060608373ffffffffffffffffffffffffffffffffffffffff16836040518082805190602001908083835b602083106101d157805182526020820191506020810190506020830392506101ae565b6001836020036101000a038019825116818451168082178552505050505050905001915050600060405180830381855afa9150503d8060008114610231576040519150601f19603f3d011682016040523d82523d6000602084013e610236565b606091505b508092508193505050600060405180807f6572726f72000000000000000000000000000000000000000000000000000000815250600501905060405180910390209050821561028a57818051906020012090505b8060025582829250925050925092905056fea2646970667358221220db58d80e8530eed625d9b4250a6055c2eb1d7c117a7ca267e6f8a059bdd2f39e64736f6c634300060a0033",
                "nonce" : "0x01",
                "storage" : {
                    "0x02" : "0x177f242d20ff7dc4598657e4355abd2b0df8f6351283a95d209db56ce73ef6e9"
                }
            },
            "0xa94f5374fce5edbc8e2a8697c15331677e6ebf0b" : {
                "balance" : "0x0de0b6b3a34508d4",
                "code" : "0x",
                "nonce" : "0x01",
                "storage" : {
                }
            }
        },
        "pre" : {
            "0x000f3df6d732807ef1319fb7b8bb8522d0beac02" : {
                "balance" : "0x00",
                "code" : "0x3373fffffffffffffffffffffffffffffffffffffffe14604d57602036146024575f5ffd5b5f35801560495762001fff810690815414603c575f5ffd5b62001fff01545f5260205ff35b5f5ffd5b62001fff42064281555f359062001fff015500",
                "nonce" : "0x01",
                "storage" : {
                }
            },
            "0x095e7baea6a6c7c4c2dfeb977efac326af552d87" : {
                "balance" : "0x00",
                "code" : "0x60806040526004361061001e5760003560e01c806312bd429914610023575b600080fd5b6100fc6004803603604081101561003957600080fd5b81019080803573ffffffffffffffffffffffffffffffffffffffff1690602001909291908035906020019064010000000081111561007657600080fd5b82018360208201111561008857600080fd5b803590602001918460018302840111640100000000831117156100aa57600080fd5b91908080601f016020809104026020016040519081016040528093929190818152602001838380828437600081840152601f19601f820116905080830192505050505050509192919290505050610182565b604051808315151515815260200180602001828103825283818151815260200191508051906020019080838360005b8381101561014657808201518184015260208101905061012b565b50505050905090810190601f1680156101735780820380516001836020036101000a031916815260200191505b50935050505060405180910390f35b600060608373ffffffffffffffffffffffffffffffffffffffff16836040518082805190602001908083835b602083106101d157805182526020820191506020810190506020830392506101ae565b6001836020036101000a038019825116818451168082178552505050505050905001915050600060405180830381855afa9150503d8060008114610231576040519150601f19603f3d011682016040523d82523d6000602084013e610236565b606091505b508092508193505050600060405180807f6572726f72000000000000000000000000000000000000000000000000000000815250600501905060405180910390209050821561028a57818051906020012090505b8060025582829250925050925092905056fea2646970667358221220db58d80e8530eed625d9b4250a6055c2eb1d7c117a7ca267e6f8a059bdd2f39e64736f6c634300060a0033",
                "nonce" : "0x01",
                "storage" : {
                }
            },
            "0xa94f5374fce5edbc8e2a8697c15331677e6ebf0b" : {
                "balance" : "0x0de0b6b3a7640000",
                "code" : "0x",
                "nonce" : "0x00",
                "storage" : {
                }
            }
        },
        "sealEngine" : "NoProof"
    }
}