{
    "invalid_subgroup_for_pairing_56_d0g0v0_Prague" : {
        "_info" : {
            "comment" : "A test for invalid_subgroup_for_pairing_56",
            "filling-rpc-server" : "evm version 1.14.0-unstable-a208e725-20240416",
            "filling-tool-version" : "retesteth-0.3.2-cancun+commit.353b2b37.Linux.g++",
            "generatedTestHash" : "bb1f962a18585d31a4de2c6f93e31ae1adee012fe4902075505439b9aaad2d67",
            "lllcversion" : "Version: 0.5.14-develop.2023.7.11+commit.c58ab2c6.mod.Linux.g++",
            "solidity" : "Version: 0.8.21+commit.d9974bed.Linux.g++",
            "source" : "src/EIPTestsFiller/StateTests/stEIP2537/invalid_subgroup_for_pairing_56Filler.json",
            "sourceHash" : "0c8ea94e83aa3c95fa650fd1b12d1dae4355e10564884506b4ee6f89c23d26d0"
        },
        "blocks" : [
            {
                "blockHeader" : {
                    "baseFeePerGas" : "0x0a",
                    "blobGasUsed" : "0x00",
                    "bloom" : "0x00000000000000000000000000000000000000000000000000000000000000000000000000000000000000000000000000000000000000000000000000000000000000000000000000000000000000000000000000000000000000000000000000000000000000000000000000000000000000000000000000000000000000000000000000000000000000000000000000000000000000000000000000000000000000000000000000000000000000000000000000000000000000000000000000000000000000000000000000000000000000000000000000000000000000000000000000000000000000000000000000000000000000000000000000000000",
                    "coinbase" : "0x2adc25665018aa1fe0e6bc666dac8fc2697ff9ba",
                    "difficulty" : "0x00",
                    "excessBlobGas" : "0x00",
                    "extraData" : "0x00",
                    "gasLimit" : "0xff112233445566",
                    "gasUsed" : "0x697ebb",
                    "hash" : "0xb95231fb722f022eab48aea82a8e59c041b7b52f784236282f3808925b8177e4",
                    "mixHash" : "0x0000000000000000000000000000000000000000000000000000000000020000",
                    "nonce" : "0x0000000000000000",
                    "number" : "0x01",
                    "parentBeaconBlockRoot" : "0x0000000000000000000000000000000000000000000000000000000000000000",
                    "parentHash" : "0xc9cb4ed0dc693e89844b5a27d709ebd577e6a8380102855ef905d3d2d81ac0e5",
                    "receiptTrie" : "0x1d94d3f584f3072e26685d45bae18b61fd733abe7d4e2a88b22ca4019d007a6e",
                    "stateRoot" : "0x099b844b97a9d7cec70300e5628e5fa83a500d18867ece1fdc0ec17611fdb36c",
                    "timestamp" : "0x03e8",
                    "transactionsTrie" : "0xc8da98cbc5ae8d982921972ceeb8c833eacfb8146ec6b1026055691e5ec0e3fb",
                    "uncleHash" : "0x1dcc4de8dec75d7aab85b567b6ccd41ad312451b948a7413f0a142fd40d49347",
                    "withdrawalsRoot" : "0x56e81f171bcc55a6ff8345e692c0f86e5b48e01b996cadc001622fb5e363b421"
                },
                "rlp" : "0xf90611f9023ea0c9cb4ed0dc693e89844b5a27d709ebd577e6a8380102855ef905d3d2d81ac0e5a01dcc4de8dec75d7aab85b567b6ccd41ad312451b948a7413f0a142fd40d49347942adc25665018aa1fe0e6bc666dac8fc2697ff9baa0099b844b97a9d7cec70300e5628e5fa83a500d18867ece1fdc0ec17611fdb36ca0c8da98cbc5ae8d982921972ceeb8c833eacfb8146ec6b1026055691e5ec0e3fba01d94d3f584f3072e26685d45bae18b61fd733abe7d4e2a88b22ca4019d007a6eb9010000000000000000000000000000000000000000000000000000000000000000000000000000000000000000000000000000000000000000000000000000000000000000000000000000000000000000000000000000000000000000000000000000000000000000000000000000000000000000000000000000000000000000000000000000000000000000000000000000000000000000000000000000000000000000000000000000000000000000000000000000000000000000000000000000000000000000000000000000000000000000000000000000000000000000000000000000000000000000000000000000000000000000000000000000000000800187ff11223344556683697ebb8203e800a000000000000000000000000000000000000000000000000000000000000200008800000000000000000aa056e81f171bcc55a6ff8345e692c0f86e5b48e01b996cadc001622fb5e363b4218080a00000000000000000000000000000000000000000000000000000000000000000f903cbf903c8800a836acfc094095e7baea6a6c7c4c2dfeb977efac326af552d878203e8b9036412bd42990000000000000000000000000000000000000000000000000000000000000011000000000000000000000000000000000000000000000000000000000000004000000000000000000000000000000000000000000000000000000000000003000000000000000000000000000000000019c9b755000f9f1b6ff22885f45bc1f5f65d080ecc129d29e1cd60aa14fd20646643be51d2fb3417cbbd39361bc72b62000000000000000000000000000000001741fd3c4a7e883094c0e84d851f45cc1b81af5bcace67dfddd3f19e8817697a386d1965a4e17c60b00ecbff84779b97000000000000000000000000000000000e87ea967f6c4dd7135efcd9a59368a2d19dd1385aefa34d7d9bd7f5094d779a7150667dcec463c9ab63d2ffc8ee4f6d000000000000000000000000000000000a3a010f176efe1a7bdb77dedf6b6271c845d662dca5062ebbac4e9c3b8946db0adfff37a6faa3196a99fb3ef05f09c5000000000000000000000000000000000350ad257d47f270c4340e3cb124ce961316573dea14c9584d20221d922a43c2e94324ec14bd1e4a1eb955861783a8f100000000000000000000000000000000070edff58ac1f8c13f62327cf0adbd748285fcd84ed7be23dfc82a0ae32f8c8f5f6b0679f795874cb0082718fb07a1ca000000000000000000000000000000000d5be6f99bb9a2379d1e542ece048164fa5d14e0c6c459180717b3da46e8446e9def576635ac1124e1390196fe97f39e000000000000000000000000000000001482d8339b402e3bffe61aaa298c8bae4286f1fbfc877a66e21cfe239bbee383d701d95a6c2b8193d67df5a551bb7aba000000000000000000000000000000000e87ea967f6c4dd7135efcd9a59368a2d19dd1385aefa34d7d9bd7f5094d779a7150667dcec463c9ab63d2ffc8ee4f6d000000000000000000000000000000000a3a010f176efe1a7bdb77dedf6b6271c845d662dca5062ebbac4e9c3b8946db0adfff37a6faa3196a99fb3ef05f09c5000000000000000000000000000000000350ad257d47f270c4340e3cb124ce961316573dea14c9584d20221d922a43c2e94324ec14bd1e4a1eb955861783a8f100000000000000000000000000000000070edff58ac1f8c13f62327cf0adbd748285fcd84ed7be23dfc82a0ae32f8c8f5f6b0679f795874cb0082718fb07a1ca1ba03663a4f400fa9a3191d91f8ac2e94e218d238de03e9930c1294c36c1efbc824ea014e9aa41a1a80ee3e1639a6cda6427634d3e692e6808a7ec5b4a528ad6d125d4c0c0",
                "transactions" : [
                    {
                        "data" : "0x12bd42990000000000000000000000000000000000000000000000000000000000000011000000000000000000000000000000000000000000000000000000000000004000000000000000000000000000000000000000000000000000000000000003000000000000000000000000000000000019c9b755000f9f1b6ff22885f45bc1f5f65d080ecc129d29e1cd60aa14fd20646643be51d2fb3417cbbd39361bc72b62000000000000000000000000000000001741fd3c4a7e883094c0e84d851f45cc1b81af5bcace67dfddd3f19e8817697a386d1965a4e17c60b00ecbff84779b97000000000000000000000000000000000e87ea967f6c4dd7135efcd9a59368a2d19dd1385aefa34d7d9bd7f5094d779a7150667dcec463c9ab63d2ffc8ee4f6d000000000000000000000000000000000a3a010f176efe1a7bdb77dedf6b6271c845d662dca5062ebbac4e9c3b8946db0adfff37a6faa3196a99fb3ef05f09c5000000000000000000000000000000000350ad257d47f270c4340e3cb124ce961316573dea14c9584d20221d922a43c2e94324ec14bd1e4a1eb955861783a8f100000000000000000000000000000000070edff58ac1f8c13f62327cf0adbd748285fcd84ed7be23dfc82a0ae32f8c8f5f6b0679f795874cb0082718fb07a1ca000000000000000000000000000000000d5be6f99bb9a2379d1e542ece048164fa5d14e0c6c459180717b3da46e8446e9def576635ac1124e1390196fe97f39e000000000000000000000000000000001482d8339b402e3bffe61aaa298c8bae4286f1fbfc877a66e21cfe239bbee383d701d95a6c2b8193d67df5a551bb7aba000000000000000000000000000000000e87ea967f6c4dd7135efcd9a59368a2d19dd1385aefa34d7d9bd7f5094d779a7150667dcec463c9ab63d2ffc8ee4f6d000000000000000000000000000000000a3a010f176efe1a7bdb77dedf6b6271c845d662dca5062ebbac4e9c3b8946db0adfff37a6faa3196a99fb3ef05f09c5000000000000000000000000000000000350ad257d47f270c4340e3cb124ce961316573dea14c9584d20221d922a43c2e94324ec14bd1e4a1eb955861783a8f100000000000000000000000000000000070edff58ac1f8c13f62327cf0adbd748285fcd84ed7be23dfc82a0ae32f8c8f5f6b0679f795874cb0082718fb07a1ca",
                        "gasLimit" : "0x6acfc0",
                        "gasPrice" : "0x0a",
                        "nonce" : "0x00",
                        "r" : "0x3663a4f400fa9a3191d91f8ac2e94e218d238de03e9930c1294c36c1efbc824e",
                        "s" : "0x14e9aa41a1a80ee3e1639a6cda6427634d3e692e6808a7ec5b4a528ad6d125d4",
                        "sender" : "0xa94f5374fce5edbc8e2a8697c15331677e6ebf0b",
                        "to" : "0x095e7baea6a6c7c4c2dfeb977efac326af552d87",
                        "v" : "0x1b",
                        "value" : "0x03e8"
                    }
                ],
                "uncleHeaders" : [
                ],
                "withdrawals" : [
                ]
            }
        ],
        "genesisBlockHeader" : {
            "baseFeePerGas" : "0x0b",
            "blobGasUsed" : "0x00",
            "bloom" : "0x00000000000000000000000000000000000000000000000000000000000000000000000000000000000000000000000000000000000000000000000000000000000000000000000000000000000000000000000000000000000000000000000000000000000000000000000000000000000000000000000000000000000000000000000000000000000000000000000000000000000000000000000000000000000000000000000000000000000000000000000000000000000000000000000000000000000000000000000000000000000000000000000000000000000000000000000000000000000000000000000000000000000000000000000000000000",
            "coinbase" : "0x2adc25665018aa1fe0e6bc666dac8fc2697ff9ba",
            "difficulty" : "0x00",
            "excessBlobGas" : "0x060000",
            "extraData" : "0x00",
            "gasLimit" : "0xff112233445566",
            "gasUsed" : "0x00",
            "hash" : "0xc9cb4ed0dc693e89844b5a27d709ebd577e6a8380102855ef905d3d2d81ac0e5",
            "mixHash" : "0x0000000000000000000000000000000000000000000000000000000000020000",
            "nonce" : "0x0000000000000000",
            "number" : "0x00",
            "parentBeaconBlockRoot" : "0x0000000000000000000000000000000000000000000000000000000000000000",
            "parentHash" : "0x0000000000000000000000000000000000000000000000000000000000000000",
            "receiptTrie" : "0x56e81f171bcc55a6ff8345e692c0f86e5b48e01b996cadc001622fb5e363b421",
            "stateRoot" : "0x00059c610e858a345663eede1b974d037c154e4b4bb16a01ea2fd48a4d67bf65",
            "timestamp" : "0x00",
            "transactionsTrie" : "0x56e81f171bcc55a6ff8345e692c0f86e5b48e01b996cadc001622fb5e363b421",
            "uncleHash" : "0x1dcc4de8dec75d7aab85b567b6ccd41ad312451b948a7413f0a142fd40d49347",
            "withdrawalsRoot" : "0x56e81f171bcc55a6ff8345e692c0f86e5b48e01b996cadc001622fb5e363b421"
        },
        "genesisRLP" : "0xf90242f9023ca00000000000000000000000000000000000000000000000000000000000000000a01dcc4de8dec75d7aab85b567b6ccd41ad312451b948a7413f0a142fd40d49347942adc25665018aa1fe0e6bc666dac8fc2697ff9baa000059c610e858a345663eede1b974d037c154e4b4bb16a01ea2fd48a4d67bf65a056e81f171bcc55a6ff8345e692c0f86e5b48e01b996cadc001622fb5e363b421a056e81f171bcc55a6ff8345e692c0f86e5b48e01b996cadc001622fb5e363b421b9010000000000000000000000000000000000000000000000000000000000000000000000000000000000000000000000000000000000000000000000000000000000000000000000000000000000000000000000000000000000000000000000000000000000000000000000000000000000000000000000000000000000000000000000000000000000000000000000000000000000000000000000000000000000000000000000000000000000000000000000000000000000000000000000000000000000000000000000000000000000000000000000000000000000000000000000000000000000000000000000000000000000000000000000000000000000808087ff112233445566808000a000000000000000000000000000000000000000000000000000000000000200008800000000000000000ba056e81f171bcc55a6ff8345e692c0f86e5b48e01b996cadc001622fb5e363b4218083060000a00000000000000000000000000000000000000000000000000000000000000000c0c0c0",
        "lastblockhash" : "0xb95231fb722f022eab48aea82a8e59c041b7b52f784236282f3808925b8177e4",
        "network" : "Prague",
        "postState" : {
            "0x000f3df6d732807ef1319fb7b8bb8522d0beac02" : {
                "balance" : "0x00",
                "code" : "0x3373fffffffffffffffffffffffffffffffffffffffe14604d57602036146024575f5ffd5b5f35801560495762001fff810690815414603c575f5ffd5b62001fff01545f5260205ff35b5f5ffd5b62001fff42064281555f359062001fff015500",
                "nonce" : "0x01",
                "storage" : {
                    "0x03e8" : "0x03e8"
                }
            },
            "0x095e7baea6a6c7c4c2dfeb977efac326af552d87" : {
                "balance" : "0x03e8",
                "code" : "0x60806040526004361061001e5760003560e01c806312bd429914610023575b600080fd5b6100fc6004803603604081101561003957600080fd5b81019080803573ffffffffffffffffffffffffffffffffffffffff1690602001909291908035906020019064010000000081111561007657600080fd5b82018360208201111561008857600080fd5b803590602001918460018302840111640100000000831117156100aa57600080fd5b91908080601f016020809104026020016040519081016040528093929190818152602001838380828437600081840152601f19601f820116905080830192505050505050509192919290505050610182565b604051808315151515815260200180602001828103825283818151815260200191508051906020019080838360005b8381101561014657808201518184015260208101905061012b565b50505050905090810190601f1680156101735780820380516001836020036101000a031916815260200191505b50935050505060405180910390f35b600060608373ffffffffffffffffffffffffffffffffffffffff16836040518082805190602001908083835b602083106101d157805182526020820191506020810190506020830392506101ae565b6001836020036101000a038019825116818451168082178552505050505050905001915050600060405180830381855afa9150503d8060008114610231576040519150601f19603f3d011682016040523d82523d6000602084013e610236565b606091505b508092508193505050600060405180807f6572726f72000000000000000000000000000000000000000000000000000000815250600501905060405180910390209050821561028a57818051906020012090505b8060025582829250925050925092905056fea2646970667358221220db58d80e8530eed625d9b4250a6055c2eb1d7c117a7ca267e6f8a059bdd2f39e64736f6c634300060a0033",
                "nonce" : "0x01",
                "storage" : {
                    "0x02" : "0x177f242d20ff7dc4598657e4355abd2b0df8f6351283a95d209db56ce73ef6e9"
                }
            },
            "0xa94f5374fce5edbc8e2a8697c15331677e6ebf0b" : {
                "balance" : "0x0de0b6b3a34508ca",
                "code" : "0x",
                "nonce" : "0x01",
                "storage" : {
                }
            }
        },
        "pre" : {
            "0x000f3df6d732807ef1319fb7b8bb8522d0beac02" : {
                "balance" : "0x00",
                "code" : "0x3373fffffffffffffffffffffffffffffffffffffffe14604d57602036146024575f5ffd5b5f35801560495762001fff810690815414603c575f5ffd5b62001fff01545f5260205ff35b5f5ffd5b62001fff42064281555f359062001fff015500",
                "nonce" : "0x01",
                "storage" : {
                }
            },
            "0x095e7baea6a6c7c4c2dfeb977efac326af552d87" : {
                "balance" : "0x00",
                "code" : "0x60806040526004361061001e5760003560e01c806312bd429914610023575b600080fd5b6100fc6004803603604081101561003957600080fd5b81019080803573ffffffffffffffffffffffffffffffffffffffff1690602001909291908035906020019064010000000081111561007657600080fd5b82018360208201111561008857600080fd5b803590602001918460018302840111640100000000831117156100aa57600080fd5b91908080601f016020809104026020016040519081016040528093929190818152602001838380828437600081840152601f19601f820116905080830192505050505050509192919290505050610182565b604051808315151515815260200180602001828103825283818151815260200191508051906020019080838360005b8381101561014657808201518184015260208101905061012b565b50505050905090810190601f1680156101735780820380516001836020036101000a031916815260200191505b50935050505060405180910390f35b600060608373ffffffffffffffffffffffffffffffffffffffff16836040518082805190602001908083835b602083106101d157805182526020820191506020810190506020830392506101ae565b6001836020036101000a038019825116818451168082178552505050505050905001915050600060405180830381855afa9150503d8060008114610231576040519150601f19603f3d011682016040523d82523d6000602084013e610236565b606091505b508092508193505050600060405180807f6572726f72000000000000000000000000000000000000000000000000000000815250600501905060405180910390209050821561028a57818051906020012090505b8060025582829250925050925092905056fea2646970667358221220db58d80e8530eed625d9b4250a6055c2eb1d7c117a7ca267e6f8a059bdd2f39e64736f6c634300060a0033",
                "nonce" : "0x01",
                "storage" : {
                }
            },
            "0xa94f5374fce5edbc8e2a8697c15331677e6ebf0b" : {
                "balance" : "0x0de0b6b3a7640000",
                "code" : "0x",
                "nonce" : "0x00",
                "storage" : {
                }
            }
        },
        "sealEngine" : "NoProof"
    }
}