{
    "invalid_subgroup_for_pairing_31_d0g0v0_Prague" : {
        "_info" : {
            "comment" : "A test for invalid_subgroup_for_pairing_31",
            "filling-rpc-server" : "evm version 1.14.0-unstable-a208e725-20240416",
            "filling-tool-version" : "retesteth-0.3.2-cancun+commit.353b2b37.Linux.g++",
            "generatedTestHash" : "ba7ed2789ce68dbce7171402e8c6f940663f262d13853a05ce39ea635d60ae4e",
            "lllcversion" : "Version: 0.5.14-develop.2023.7.11+commit.c58ab2c6.mod.Linux.g++",
            "solidity" : "Version: 0.8.21+commit.d9974bed.Linux.g++",
            "source" : "src/EIPTestsFiller/StateTests/stEIP2537/invalid_subgroup_for_pairing_31Filler.json",
            "sourceHash" : "0278d875fa5b8cdd3ba57b37dccfdcba12edc7697fe9c5e2100b89bfd4810e7e"
        },
        "blocks" : [
            {
                "blockHeader" : {
                    "baseFeePerGas" : "0x0a",
                    "blobGasUsed" : "0x00",
                    "bloom" : "0x00000000000000000000000000000000000000000000000000000000000000000000000000000000000000000000000000000000000000000000000000000000000000000000000000000000000000000000000000000000000000000000000000000000000000000000000000000000000000000000000000000000000000000000000000000000000000000000000000000000000000000000000000000000000000000000000000000000000000000000000000000000000000000000000000000000000000000000000000000000000000000000000000000000000000000000000000000000000000000000000000000000000000000000000000000000",
                    "coinbase" : "0x2adc25665018aa1fe0e6bc666dac8fc2697ff9ba",
                    "difficulty" : "0x00",
                    "excessBlobGas" : "0x00",
                    "extraData" : "0x00",
                    "gasLimit" : "0xff112233445566",
                    "gasUsed" : "0x697ebb",
                    "hash" : "0x52bea836e4ff3228ae165f5175afe70c372203012a77d234d69c088469e19405",
                    "mixHash" : "0x0000000000000000000000000000000000000000000000000000000000020000",
                    "nonce" : "0x0000000000000000",
                    "number" : "0x01",
                    "parentBeaconBlockRoot" : "0x0000000000000000000000000000000000000000000000000000000000000000",
                    "parentHash" : "0xc9cb4ed0dc693e89844b5a27d709ebd577e6a8380102855ef905d3d2d81ac0e5",
                    "receiptTrie" : "0x1d94d3f584f3072e26685d45bae18b61fd733abe7d4e2a88b22ca4019d007a6e",
                    "stateRoot" : "0x099b844b97a9d7cec70300e5628e5fa83a500d18867ece1fdc0ec17611fdb36c",
                    "timestamp" : "0x03e8",
                    "transactionsTrie" : "0x9edc9ff6a504ef4f0aad3582ee000cf6866e28f02553151f3594f579c1fa7c1d",
                    "uncleHash" : "0x1dcc4de8dec75d7aab85b567b6ccd41ad312451b948a7413f0a142fd40d49347",
                    "withdrawalsRoot" : "0x56e81f171bcc55a6ff8345e692c0f86e5b48e01b996cadc001622fb5e363b421"
                },
                "rlp" : "0xf90611f9023ea0c9cb4ed0dc693e89844b5a27d709ebd577e6a8380102855ef905d3d2d81ac0e5a01dcc4de8dec75d7aab85b567b6ccd41ad312451b948a7413f0a142fd40d49347942adc25665018aa1fe0e6bc666dac8fc2697ff9baa0099b844b97a9d7cec70300e5628e5fa83a500d18867ece1fdc0ec17611fdb36ca09edc9ff6a504ef4f0aad3582ee000cf6866e28f02553151f3594f579c1fa7c1da01d94d3f584f3072e26685d45bae18b61fd733abe7d4e2a88b22ca4019d007a6eb9010000000000000000000000000000000000000000000000000000000000000000000000000000000000000000000000000000000000000000000000000000000000000000000000000000000000000000000000000000000000000000000000000000000000000000000000000000000000000000000000000000000000000000000000000000000000000000000000000000000000000000000000000000000000000000000000000000000000000000000000000000000000000000000000000000000000000000000000000000000000000000000000000000000000000000000000000000000000000000000000000000000000000000000000000000000000800187ff11223344556683697ebb8203e800a000000000000000000000000000000000000000000000000000000000000200008800000000000000000aa056e81f171bcc55a6ff8345e692c0f86e5b48e01b996cadc001622fb5e363b4218080a00000000000000000000000000000000000000000000000000000000000000000f903cbf903c8800a836acfc094095e7baea6a6c7c4c2dfeb977efac326af552d878203e8b9036412bd4299000000000000000000000000000000000000000000000000000000000000001100000000000000000000000000000000000000000000000000000000000000400000000000000000000000000000000000000000000000000000000000000300000000000000000000000000000000000d6e0830ba9839db89621518e1ed86e9d035d7fb03b18d8a615acd58ff5c8c3dbdcf1acfcb8a910e8d3d0da770057cde0000000000000000000000000000000018c38d6e458e22cdd381010568606d26770b9eaaeb38e02a80cd0a0d584577fca7b391bbabe902825a3338682f7d3173000000000000000000000000000000000e5d5bfbe5ab3da8c033663cc457cf69062e1de6bcda6420826301d4e5fb4c47a5c90432f15608aa50678ad083f618c700000000000000000000000000000000146cd56ad5d977fa6471f7c12ee3fd66dfbe4b276b846cf4a74619cfae4a5101e85d01db615e0e6d28a5eca7a92cd05d0000000000000000000000000000000010fa99a243f1de85f40bf6a08e3e9ed3e478562468f0975bb79b1b80c9eef8c433c18ccf6e5149eb99c21f74494eed6e0000000000000000000000000000000018504d4687cf9f055c5cf8360fda2cb2123ea3a3e9c8f58853a68063e60a7ba24f2d1c153090ba2e77156cbb5ded79d7000000000000000000000000000000000d6e0830ba9839db89621518e1ed86e9d035d7fb03b18d8a615acd58ff5c8c3dbdcf1acfcb8a910e8d3d0da770057cde0000000000000000000000000000000018c38d6e458e22cdd381010568606d26770b9eaaeb38e02a80cd0a0d584577fca7b391bbabe902825a3338682f7d31730000000000000000000000000000000016267be431a654019b3f02389fb2f2f307f3bb56590c3ff1924554b2ee6fbbb68381b5ba4a8668fc541dd7e3fe9afc9a000000000000000000000000000000000c41d1daa258be71001babb484d98501c9ea015aad96e398aa6015b9ef618f6a56a45d45383dc34c70ca05242490ae18000000000000000000000000000000000dadc282d8cc0c066f28881cf440fb5a621449dc16488d02e34492fe8af53fd1749886fe6df2e377190e4043d6e3dd290000000000000000000000000000000018a30f1ae8927af27147ee5ea3c7aa848b0e303d16018fc2c3ca4bd088ec5ad3a808e7699ca009a4bf6f5b707edc1fd81ba0b7200e78d8a2b7e85089a1e245c92be97b5e4773e5c29cf218077156245e076ea00efe5879329e9521866ae93144177b89f78f2e86ff08d7ac4956fa1d7a2ddc97c0c0",
                "transactions" : [
                    {
                        "data" : "0x12bd4299000000000000000000000000000000000000000000000000000000000000001100000000000000000000000000000000000000000000000000000000000000400000000000000000000000000000000000000000000000000000000000000300000000000000000000000000000000000d6e0830ba9839db89621518e1ed86e9d035d7fb03b18d8a615acd58ff5c8c3dbdcf1acfcb8a910e8d3d0da770057cde0000000000000000000000000000000018c38d6e458e22cdd381010568606d26770b9eaaeb38e02a80cd0a0d584577fca7b391bbabe902825a3338682f7d3173000000000000000000000000000000000e5d5bfbe5ab3da8c033663cc457cf69062e1de6bcda6420826301d4e5fb4c47a5c90432f15608aa50678ad083f618c700000000000000000000000000000000146cd56ad5d977fa6471f7c12ee3fd66dfbe4b276b846cf4a74619cfae4a5101e85d01db615e0e6d28a5eca7a92cd05d0000000000000000000000000000000010fa99a243f1de85f40bf6a08e3e9ed3e478562468f0975bb79b1b80c9eef8c433c18ccf6e5149eb99c21f74494eed6e0000000000000000000000000000000018504d4687cf9f055c5cf8360fda2cb2123ea3a3e9c8f58853a68063e60a7ba24f2d1c153090ba2e77156cbb5ded79d7000000000000000000000000000000000d6e0830ba9839db89621518e1ed86e9d035d7fb03b18d8a615acd58ff5c8c3dbdcf1acfcb8a910e8d3d0da770057cde0000000000000000000000000000000018c38d6e458e22cdd381010568606d26770b9eaaeb38e02a80cd0a0d584577fca7b391bbabe902825a3338682f7d31730000000000000000000000000000000016267be431a654019b3f02389fb2f2f307f3bb56590c3ff1924554b2ee6fbbb68381b5ba4a8668fc541dd7e3fe9afc9a000000000000000000000000000000000c41d1daa258be71001babb484d98501c9ea015aad96e398aa6015b9ef618f6a56a45d45383dc34c70ca05242490ae18000000000000000000000000000000000dadc282d8cc0c066f28881cf440fb5a621449dc16488d02e34492fe8af53fd1749886fe6df2e377190e4043d6e3dd290000000000000000000000000000000018a30f1ae8927af27147ee5ea3c7aa848b0e303d16018fc2c3ca4bd088ec5ad3a808e7699ca009a4bf6f5b707edc1fd8",
                        "gasLimit" : "0x6acfc0",
                        "gasPrice" : "0x0a",
                        "nonce" : "0x00",
                        "r" : "0xb7200e78d8a2b7e85089a1e245c92be97b5e4773e5c29cf218077156245e076e",
                        "s" : "0x0efe5879329e9521866ae93144177b89f78f2e86ff08d7ac4956fa1d7a2ddc97",
                        "sender" : "0xa94f5374fce5edbc8e2a8697c15331677e6ebf0b",
                        "to" : "0x095e7baea6a6c7c4c2dfeb977efac326af552d87",
                        "v" : "0x1b",
                        "value" : "0x03e8"
                    }
                ],
                "uncleHeaders" : [
                ],
                "withdrawals" : [
                ]
            }
        ],
        "genesisBlockHeader" : {
            "baseFeePerGas" : "0x0b",
            "blobGasUsed" : "0x00",
            "bloom" : "0x00000000000000000000000000000000000000000000000000000000000000000000000000000000000000000000000000000000000000000000000000000000000000000000000000000000000000000000000000000000000000000000000000000000000000000000000000000000000000000000000000000000000000000000000000000000000000000000000000000000000000000000000000000000000000000000000000000000000000000000000000000000000000000000000000000000000000000000000000000000000000000000000000000000000000000000000000000000000000000000000000000000000000000000000000000000",
            "coinbase" : "0x2adc25665018aa1fe0e6bc666dac8fc2697ff9ba",
            "difficulty" : "0x00",
            "excessBlobGas" : "0x060000",
            "extraData" : "0x00",
            "gasLimit" : "0xff112233445566",
            "gasUsed" : "0x00",
            "hash" : "0xc9cb4ed0dc693e89844b5a27d709ebd577e6a8380102855ef905d3d2d81ac0e5",
            "mixHash" : "0x0000000000000000000000000000000000000000000000000000000000020000",
            "nonce" : "0x0000000000000000",
            "number" : "0x00",
            "parentBeaconBlockRoot" : "0x0000000000000000000000000000000000000000000000000000000000000000",
            "parentHash" : "0x0000000000000000000000000000000000000000000000000000000000000000",
            "receiptTrie" : "0x56e81f171bcc55a6ff8345e692c0f86e5b48e01b996cadc001622fb5e363b421",
            "stateRoot" : "0x00059c610e858a345663eede1b974d037c154e4b4bb16a01ea2fd48a4d67bf65",
            "timestamp" : "0x00",
            "transactionsTrie" : "0x56e81f171bcc55a6ff8345e692c0f86e5b48e01b996cadc001622fb5e363b421",
            "uncleHash" : "0x1dcc4de8dec75d7aab85b567b6ccd41ad312451b948a7413f0a142fd40d49347",
            "withdrawalsRoot" : "0x56e81f171bcc55a6ff8345e692c0f86e5b48e01b996cadc001622fb5e363b421"
        },
        "genesisRLP" : "0xf90242f9023ca00000000000000000000000000000000000000000000000000000000000000000a01dcc4de8dec75d7aab85b567b6ccd41ad312451b948a7413f0a142fd40d49347942adc25665018aa1fe0e6bc666dac8fc2697ff9baa000059c610e858a345663eede1b974d037c154e4b4bb16a01ea2fd48a4d67bf65a056e81f171bcc55a6ff8345e692c0f86e5b48e01b996cadc001622fb5e363b421a056e81f171bcc55a6ff8345e692c0f86e5b48e01b996cadc001622fb5e363b421b9010000000000000000000000000000000000000000000000000000000000000000000000000000000000000000000000000000000000000000000000000000000000000000000000000000000000000000000000000000000000000000000000000000000000000000000000000000000000000000000000000000000000000000000000000000000000000000000000000000000000000000000000000000000000000000000000000000000000000000000000000000000000000000000000000000000000000000000000000000000000000000000000000000000000000000000000000000000000000000000000000000000000000000000000000000000000808087ff112233445566808000a000000000000000000000000000000000000000000000000000000000000200008800000000000000000ba056e81f171bcc55a6ff8345e692c0f86e5b48e01b996cadc001622fb5e363b4218083060000a00000000000000000000000000000000000000000000000000000000000000000c0c0c0",
        "lastblockhash" : "0x52bea836e4ff3228ae165f5175afe70c372203012a77d234d69c088469e19405",
        "network" : "Prague",
        "postState" : {
            "0x000f3df6d732807ef1319fb7b8bb8522d0beac02" : {
                "balance" : "0x00",
                "code" : "0x3373fffffffffffffffffffffffffffffffffffffffe14604d57602036146024575f5ffd5b5f35801560495762001fff810690815414603c575f5ffd5b62001fff01545f5260205ff35b5f5ffd5b62001fff42064281555f359062001fff015500",
                "nonce" : "0x01",
                "storage" : {
                    "0x03e8" : "0x03e8"
                }
            },
            "0x095e7baea6a6c7c4c2dfeb977efac326af552d87" : {
                "balance" : "0x03e8",
                "code" : "0x60806040526004361061001e5760003560e01c806312bd429914610023575b600080fd5b6100fc6004803603604081101561003957600080fd5b81019080803573ffffffffffffffffffffffffffffffffffffffff1690602001909291908035906020019064010000000081111561007657600080fd5b82018360208201111561008857600080fd5b803590602001918460018302840111640100000000831117156100aa57600080fd5b91908080601f016020809104026020016040519081016040528093929190818152602001838380828437600081840152601f19601f820116905080830192505050505050509192919290505050610182565b604051808315151515815260200180602001828103825283818151815260200191508051906020019080838360005b8381101561014657808201518184015260208101905061012b565b50505050905090810190601f1680156101735780820380516001836020036101000a031916815260200191505b50935050505060405180910390f35b600060608373ffffffffffffffffffffffffffffffffffffffff16836040518082805190602001908083835b602083106101d157805182526020820191506020810190506020830392506101ae565b6001836020036101000a038019825116818451168082178552505050505050905001915050600060405180830381855afa9150503d8060008114610231576040519150601f19603f3d011682016040523d82523d6000602084013e610236565b606091505b508092508193505050600060405180807f6572726f72000000000000000000000000000000000000000000000000000000815250600501905060405180910390209050821561028a57818051906020012090505b8060025582829250925050925092905056fea2646970667358221220db58d80e8530eed625d9b4250a6055c2eb1d7c117a7ca267e6f8a059bdd2f39e64736f6c634300060a0033",
                "nonce" : "0x01",
                "storage" : {
                    "0x02" : "0x177f242d20ff7dc4598657e4355abd2b0df8f6351283a95d209db56ce73ef6e9"
                }
            },
            "0xa94f5374fce5edbc8e2a8697c15331677e6ebf0b" : {
                "balance" : "0x0de0b6b3a34508ca",
                "code" : "0x",
                "nonce" : "0x01",
                "storage" : {
                }
            }
        },
        "pre" : {
            "0x000f3df6d732807ef1319fb7b8bb8522d0beac02" : {
                "balance" : "0x00",
                "code" : "0x3373fffffffffffffffffffffffffffffffffffffffe14604d57602036146024575f5ffd5b5f35801560495762001fff810690815414603c575f5ffd5b62001fff01545f5260205ff35b5f5ffd5b62001fff42064281555f359062001fff015500",
                "nonce" : "0x01",
                "storage" : {
                }
            },
            "0x095e7baea6a6c7c4c2dfeb977efac326af552d87" : {
                "balance" : "0x00",
                "code" : "0x60806040526004361061001e5760003560e01c806312bd429914610023575b600080fd5b6100fc6004803603604081101561003957600080fd5b81019080803573ffffffffffffffffffffffffffffffffffffffff1690602001909291908035906020019064010000000081111561007657600080fd5b82018360208201111561008857600080fd5b803590602001918460018302840111640100000000831117156100aa57600080fd5b91908080601f016020809104026020016040519081016040528093929190818152602001838380828437600081840152601f19601f820116905080830192505050505050509192919290505050610182565b604051808315151515815260200180602001828103825283818151815260200191508051906020019080838360005b8381101561014657808201518184015260208101905061012b565b50505050905090810190601f1680156101735780820380516001836020036101000a031916815260200191505b50935050505060405180910390f35b600060608373ffffffffffffffffffffffffffffffffffffffff16836040518082805190602001908083835b602083106101d157805182526020820191506020810190506020830392506101ae565b6001836020036101000a038019825116818451168082178552505050505050905001915050600060405180830381855afa9150503d8060008114610231576040519150601f19603f3d011682016040523d82523d6000602084013e610236565b606091505b508092508193505050600060405180807f6572726f72000000000000000000000000000000000000000000000000000000815250600501905060405180910390209050821561028a57818051906020012090505b8060025582829250925050925092905056fea2646970667358221220db58d80e8530eed625d9b4250a6055c2eb1d7c117a7ca267e6f8a059bdd2f39e64736f6c634300060a0033",
                "nonce" : "0x01",
                "storage" : {
                }
            },
            "0xa94f5374fce5edbc8e2a8697c15331677e6ebf0b" : {
                "balance" : "0x0de0b6b3a7640000",
                "code" : "0x",
                "nonce" : "0x00",
                "storage" : {
                }
            }
        },
        "sealEngine" : "NoProof"
    }
}