{
    "invalid_subgroup_for_pairing_33_d0g0v0_Berlin" : {
        "_info" : {
            "comment" : "A test for invalid_subgroup_for_pairing_33",
            "filling-rpc-server" : "evm version 1.9.23-unstable-0efc69a9-20201022",
            "filling-tool-version" : "retesteth-0.0.9-berlin+commit.2f30f0ea.Linux.g++",
            "lllcversion" : "Version: 0.5.14-develop.2020.6.22+commit.9189ad7a.Linux.g++",
            "source" : "src/GeneralStateTestsFiller/stEIP2537/invalid_subgroup_for_pairing_33Filler.json",
            "sourceHash" : "edbc53def08ef31af51a2c0800cb54d47b3ff1217cf278f87c1de3bbe02dc7a0"
        },
        "genesisBlockHeader" : {
            "bloom" : "0x00000000000000000000000000000000000000000000000000000000000000000000000000000000000000000000000000000000000000000000000000000000000000000000000000000000000000000000000000000000000000000000000000000000000000000000000000000000000000000000000000000000000000000000000000000000000000000000000000000000000000000000000000000000000000000000000000000000000000000000000000000000000000000000000000000000000000000000000000000000000000000000000000000000000000000000000000000000000000000000000000000000000000000000000000000000",
            "coinbase" : "0x2adc25665018aa1fe0e6bc666dac8fc2697ff9ba",
            "difficulty" : "0x020000",
            "extraData" : "0x00",
            "gasLimit" : "0xff112233445566",
            "gasUsed" : "0x00",
            "hash" : "0xf227282805f439ca053613f53f119422bda960eea236c4b013eca3b95c6be464",
            "mixHash" : "0x0000000000000000000000000000000000000000000000000000000000000000",
            "nonce" : "0x0000000000000000",
            "number" : "0x00",
            "parentHash" : "0x0000000000000000000000000000000000000000000000000000000000000000",
            "receiptTrie" : "0x56e81f171bcc55a6ff8345e692c0f86e5b48e01b996cadc001622fb5e363b421",
            "stateRoot" : "0xbf61e00e2f1fbb3ea831c4ff3bbeff62f2737e7f0d88945ba62e0722eab6cd68",
            "timestamp" : "0x00",
            "transactionsTrie" : "0x56e81f171bcc55a6ff8345e692c0f86e5b48e01b996cadc001622fb5e363b421",
            "uncleHash" : "0x1dcc4de8dec75d7aab85b567b6ccd41ad312451b948a7413f0a142fd40d49347"
        },
        "pre" : {
            "0x095e7baea6a6c7c4c2dfeb977efac326af552d87" : {
                "balance" : "0x00",
                "code" : "0x60806040526004361061001e5760003560e01c806312bd429914610023575b600080fd5b6100fc6004803603604081101561003957600080fd5b81019080803573ffffffffffffffffffffffffffffffffffffffff1690602001909291908035906020019064010000000081111561007657600080fd5b82018360208201111561008857600080fd5b803590602001918460018302840111640100000000831117156100aa57600080fd5b91908080601f016020809104026020016040519081016040528093929190818152602001838380828437600081840152601f19601f820116905080830192505050505050509192919290505050610182565b604051808315151515815260200180602001828103825283818151815260200191508051906020019080838360005b8381101561014657808201518184015260208101905061012b565b50505050905090810190601f1680156101735780820380516001836020036101000a031916815260200191505b50935050505060405180910390f35b600060608373ffffffffffffffffffffffffffffffffffffffff16836040518082805190602001908083835b602083106101d157805182526020820191506020810190506020830392506101ae565b6001836020036101000a038019825116818451168082178552505050505050905001915050600060405180830381855afa9150503d8060008114610231576040519150601f19603f3d011682016040523d82523d6000602084013e610236565b606091505b508092508193505050600060405180807f6572726f72000000000000000000000000000000000000000000000000000000815250600501905060405180910390209050821561028a57818051906020012090505b8060025582829250925050925092905056fea2646970667358221220db58d80e8530eed625d9b4250a6055c2eb1d7c117a7ca267e6f8a059bdd2f39e64736f6c634300060a0033",
                "nonce" : "0x01",
                "storage" : {
                }
            },
            "0xa94f5374fce5edbc8e2a8697c15331677e6ebf0b" : {
                "balance" : "0x0de0b6b3a7640000",
                "code" : "0x",
                "nonce" : "0x00",
                "storage" : {
                }
            }
        },
        "postState" : {
            "0x095e7baea6a6c7c4c2dfeb977efac326af552d87" : {
                "code" : "0x60806040526004361061001e5760003560e01c806312bd429914610023575b600080fd5b6100fc6004803603604081101561003957600080fd5b81019080803573ffffffffffffffffffffffffffffffffffffffff1690602001909291908035906020019064010000000081111561007657600080fd5b82018360208201111561008857600080fd5b803590602001918460018302840111640100000000831117156100aa57600080fd5b91908080601f016020809104026020016040519081016040528093929190818152602001838380828437600081840152601f19601f820116905080830192505050505050509192919290505050610182565b604051808315151515815260200180602001828103825283818151815260200191508051906020019080838360005b8381101561014657808201518184015260208101905061012b565b50505050905090810190601f1680156101735780820380516001836020036101000a031916815260200191505b50935050505060405180910390f35b600060608373ffffffffffffffffffffffffffffffffffffffff16836040518082805190602001908083835b602083106101d157805182526020820191506020810190506020830392506101ae565b6001836020036101000a038019825116818451168082178552505050505050905001915050600060405180830381855afa9150503d8060008114610231576040519150601f19603f3d011682016040523d82523d6000602084013e610236565b606091505b508092508193505050600060405180807f6572726f72000000000000000000000000000000000000000000000000000000815250600501905060405180910390209050821561028a57818051906020012090505b8060025582829250925050925092905056fea2646970667358221220db58d80e8530eed625d9b4250a6055c2eb1d7c117a7ca267e6f8a059bdd2f39e64736f6c634300060a0033",
                "nonce" : "0x01",
                "balance" : "0x03e8",
                "storage" : {
                    "0x02" : "0x177f242d20ff7dc4598657e4355abd2b0df8f6351283a95d209db56ce73ef6e9"
                }
            },
            "0x2adc25665018aa1fe0e6bc666dac8fc2697ff9ba" : {
                "code" : "0x",
                "nonce" : "0x00",
                "balance" : "0x1bc16d674f317eba",
                "storage" : {
                }
            },
            "0xa94f5374fce5edbc8e2a8697c15331677e6ebf0b" : {
                "code" : "0x",
                "nonce" : "0x01",
                "balance" : "0x0de0b6b3a6fa7d5e",
                "storage" : {
                }
            }
        },
        "network" : "Berlin",
        "sealEngine" : "NoProof",
        "lastblockhash" : "0xb12844abb0fac549b5d53e0001979f730c0edb23fa24fa4585b669af9134dc9c",
        "genesisRLP" : "0xf901fcf901f7a00000000000000000000000000000000000000000000000000000000000000000a01dcc4de8dec75d7aab85b567b6ccd41ad312451b948a7413f0a142fd40d49347942adc25665018aa1fe0e6bc666dac8fc2697ff9baa0bf61e00e2f1fbb3ea831c4ff3bbeff62f2737e7f0d88945ba62e0722eab6cd68a056e81f171bcc55a6ff8345e692c0f86e5b48e01b996cadc001622fb5e363b421a056e81f171bcc55a6ff8345e692c0f86e5b48e01b996cadc001622fb5e363b421b9010000000000000000000000000000000000000000000000000000000000000000000000000000000000000000000000000000000000000000000000000000000000000000000000000000000000000000000000000000000000000000000000000000000000000000000000000000000000000000000000000000000000000000000000000000000000000000000000000000000000000000000000000000000000000000000000000000000000000000000000000000000000000000000000000000000000000000000000000000000000000000000000000000000000000000000000000000000000000000000000000000000000000000000000000000000000830200008087ff112233445566808000a00000000000000000000000000000000000000000000000000000000000000000880000000000000000c0c0",
        "blocks" : [
            {
                "rlp" : "0xf905cef901fca0f227282805f439ca053613f53f119422bda960eea236c4b013eca3b95c6be464a01dcc4de8dec75d7aab85b567b6ccd41ad312451b948a7413f0a142fd40d49347942adc25665018aa1fe0e6bc666dac8fc2697ff9baa05d2a05e10ec8d081a6b93f4d824c0162db13e9a06adb14cba19ce1f28a3b0e1fa03aefa4cdde60d7d1c8afe610e23502b0ffdcb078ebdf72d49a448f35e7b8e49ea00d1219b4002c41189572bf91f28b25ce52a74e600d9f36231314fc503f3ef31cb9010000000000000000000000000000000000000000000000000000000000000000000000000000000000000000000000000000000000000000000000000000000000000000000000000000000000000000000000000000000000000000000000000000000000000000000000000000000000000000000000000000000000000000000000000000000000000000000000000000000000000000000000000000000000000000000000000000000000000000000000000000000000000000000000000000000000000000000000000000000000000000000000000000000000000000000000000000000000000000000000000000000000000000000000000000000000830200000187ff11223344556683697eba8203e800a00000000000000000000000000000000000000000000000000000000000000000880000000000000000f903cbf903c88001836acfc094095e7baea6a6c7c4c2dfeb977efac326af552d878203e8b9036412bd429900000000000000000000000000000000000000000000000000000000000000100000000000000000000000000000000000000000000000000000000000000040000000000000000000000000000000000000000000000000000000000000030000000000000000000000000000000000167a40d69e2d2e5683ec69af7b226c5456d05241d9c9eb24e988ee2dba845eab361a956cdea64cf971dafea08f0056260000000000000000000000000000000014e5b8ae5032a924da081d3063f31889da110d00330903c6f988684b7d77b7b1bdcbefbf70941d0eb5a34bcb010a3bf200000000000000000000000000000000043a000741027fbd191e2399b7cb5fdb4db3728d81d8b9d25362e8a1d397ec99d1b2339a3a511d0969e7e727f98d4163000000000000000000000000000000000cbda70eab332bf962d123aaf08b8b96680055f1946dd5fdb8818fbb330b816d83062ffaa79e18f1f4f6d53deda53cf200000000000000000000000000000000160a7048e508da288270e8ac5793e9461eaa282b85ce5350b6a661209efa6699874aae71515dc4265125d490a5771ff900000000000000000000000000000000041aa7292f258125d729c1761a3a6f7979a7a92ff179be678ebe301de3ffe12e4a863becbfb2bd0067e42aefc5f5617200000000000000000000000000000000167a40d69e2d2e5683ec69af7b226c5456d05241d9c9eb24e988ee2dba845eab361a956cdea64cf971dafea08f0056260000000000000000000000000000000014e5b8ae5032a924da081d3063f31889da110d00330903c6f988684b7d77b7b1bdcbefbf70941d0eb5a34bcb010a3bf200000000000000000000000000000000158feb06ab69f5da37037c554aa8b4b511e9de7e13a08c2f9a8899f5a504b191195e4de1ab7d937913f60e24a1b3d3f8000000000000000000000000000000000beeea216d85a767af2facfa7fa0399c095a23b7a974ddc3d36b7e79822d7691e53f85c976b8cc948e155f196b7f168c0000000000000000000000000000000009802e94ad5cd6b071a0911cbbc1de29a79a5a4fc145cc79db03119c3c8dac88fa3740bdb35b0b0e6e34127ee1bb081c0000000000000000000000000000000004599d1e0bfe642ff275fbf1dc86bbf83b87c241de09570183faf4e2c1cefc6b8b2354aa2be4aa9f69d6d61546d3a6851ca05c10c64e5ebc43bcad85fe5dec03907ca0956fe5744a1b593fca145e5d77a4efa068123e0bffedbcf77299f4b3120f09b2ebda4181c0bd2a00c1e7dd4d78542cc6c0",
                "blockHeader" : {
                    "bloom" : "0x00000000000000000000000000000000000000000000000000000000000000000000000000000000000000000000000000000000000000000000000000000000000000000000000000000000000000000000000000000000000000000000000000000000000000000000000000000000000000000000000000000000000000000000000000000000000000000000000000000000000000000000000000000000000000000000000000000000000000000000000000000000000000000000000000000000000000000000000000000000000000000000000000000000000000000000000000000000000000000000000000000000000000000000000000000000",
                    "coinbase" : "0x2adc25665018aa1fe0e6bc666dac8fc2697ff9ba",
                    "difficulty" : "0x020000",
                    "extraData" : "0x00",
                    "gasLimit" : "0xff112233445566",
                    "gasUsed" : "0x697eba",
                    "hash" : "0xb12844abb0fac549b5d53e0001979f730c0edb23fa24fa4585b669af9134dc9c",
                    "mixHash" : "0x0000000000000000000000000000000000000000000000000000000000000000",
                    "nonce" : "0x0000000000000000",
                    "number" : "0x01",
                    "parentHash" : "0xf227282805f439ca053613f53f119422bda960eea236c4b013eca3b95c6be464",
                    "receiptTrie" : "0x0d1219b4002c41189572bf91f28b25ce52a74e600d9f36231314fc503f3ef31c",
                    "stateRoot" : "0x5d2a05e10ec8d081a6b93f4d824c0162db13e9a06adb14cba19ce1f28a3b0e1f",
                    "timestamp" : "0x03e8",
                    "transactionsTrie" : "0x3aefa4cdde60d7d1c8afe610e23502b0ffdcb078ebdf72d49a448f35e7b8e49e",
                    "uncleHash" : "0x1dcc4de8dec75d7aab85b567b6ccd41ad312451b948a7413f0a142fd40d49347"
                },
                "transactions" : [
                    {
                        "data" : "0x12bd429900000000000000000000000000000000000000000000000000000000000000100000000000000000000000000000000000000000000000000000000000000040000000000000000000000000000000000000000000000000000000000000030000000000000000000000000000000000167a40d69e2d2e5683ec69af7b226c5456d05241d9c9eb24e988ee2dba845eab361a956cdea64cf971dafea08f0056260000000000000000000000000000000014e5b8ae5032a924da081d3063f31889da110d00330903c6f988684b7d77b7b1bdcbefbf70941d0eb5a34bcb010a3bf200000000000000000000000000000000043a000741027fbd191e2399b7cb5fdb4db3728d81d8b9d25362e8a1d397ec99d1b2339a3a511d0969e7e727f98d4163000000000000000000000000000000000cbda70eab332bf962d123aaf08b8b96680055f1946dd5fdb8818fbb330b816d83062ffaa79e18f1f4f6d53deda53cf200000000000000000000000000000000160a7048e508da288270e8ac5793e9461eaa282b85ce5350b6a661209efa6699874aae71515dc4265125d490a5771ff900000000000000000000000000000000041aa7292f258125d729c1761a3a6f7979a7a92ff179be678ebe301de3ffe12e4a863becbfb2bd0067e42aefc5f5617200000000000000000000000000000000167a40d69e2d2e5683ec69af7b226c5456d05241d9c9eb24e988ee2dba845eab361a956cdea64cf971dafea08f0056260000000000000000000000000000000014e5b8ae5032a924da081d3063f31889da110d00330903c6f988684b7d77b7b1bdcbefbf70941d0eb5a34bcb010a3bf200000000000000000000000000000000158feb06ab69f5da37037c554aa8b4b511e9de7e13a08c2f9a8899f5a504b191195e4de1ab7d937913f60e24a1b3d3f8000000000000000000000000000000000beeea216d85a767af2facfa7fa0399c095a23b7a974ddc3d36b7e79822d7691e53f85c976b8cc948e155f196b7f168c0000000000000000000000000000000009802e94ad5cd6b071a0911cbbc1de29a79a5a4fc145cc79db03119c3c8dac88fa3740bdb35b0b0e6e34127ee1bb081c0000000000000000000000000000000004599d1e0bfe642ff275fbf1dc86bbf83b87c241de09570183faf4e2c1cefc6b8b2354aa2be4aa9f69d6d61546d3a685",
                        "gasLimit" : "0x6acfc0",
                        "gasPrice" : "0x01",
                        "nonce" : "0x00",
                        "to" : "0x095e7baea6a6c7c4c2dfeb977efac326af552d87",
                        "value" : "0x03e8",
                        "v" : "0x1c",
                        "r" : "0x5c10c64e5ebc43bcad85fe5dec03907ca0956fe5744a1b593fca145e5d77a4ef",
                        "s" : "0x68123e0bffedbcf77299f4b3120f09b2ebda4181c0bd2a00c1e7dd4d78542cc6"
                    }
                ],
                "uncleHeaders" : [
                ]
            }
        ]
    }
}