{
    "invalid_subgroup_for_pairing_87_d0g0v0_Berlin" : {
        "_info" : {
            "comment" : "A test for invalid_subgroup_for_pairing_87",
            "filling-rpc-server" : "evm version 1.9.23-unstable-0efc69a9-20201022",
            "filling-tool-version" : "retesteth-0.0.9-berlin+commit.2f30f0ea.Linux.g++",
            "lllcversion" : "Version: 0.5.14-develop.2020.6.22+commit.9189ad7a.Linux.g++",
            "source" : "src/GeneralStateTestsFiller/stEIP2537/invalid_subgroup_for_pairing_87Filler.json",
            "sourceHash" : "3837b62d603d7a7ef7774b223462a2e4559e49f7fde6ab563670a2f777e2cccb"
        },
        "genesisBlockHeader" : {
            "bloom" : "0x00000000000000000000000000000000000000000000000000000000000000000000000000000000000000000000000000000000000000000000000000000000000000000000000000000000000000000000000000000000000000000000000000000000000000000000000000000000000000000000000000000000000000000000000000000000000000000000000000000000000000000000000000000000000000000000000000000000000000000000000000000000000000000000000000000000000000000000000000000000000000000000000000000000000000000000000000000000000000000000000000000000000000000000000000000000",
            "coinbase" : "0x2adc25665018aa1fe0e6bc666dac8fc2697ff9ba",
            "difficulty" : "0x020000",
            "extraData" : "0x00",
            "gasLimit" : "0xff112233445566",
            "gasUsed" : "0x00",
            "hash" : "0xf227282805f439ca053613f53f119422bda960eea236c4b013eca3b95c6be464",
            "mixHash" : "0x0000000000000000000000000000000000000000000000000000000000000000",
            "nonce" : "0x0000000000000000",
            "number" : "0x00",
            "parentHash" : "0x0000000000000000000000000000000000000000000000000000000000000000",
            "receiptTrie" : "0x56e81f171bcc55a6ff8345e692c0f86e5b48e01b996cadc001622fb5e363b421",
            "stateRoot" : "0xbf61e00e2f1fbb3ea831c4ff3bbeff62f2737e7f0d88945ba62e0722eab6cd68",
            "timestamp" : "0x00",
            "transactionsTrie" : "0x56e81f171bcc55a6ff8345e692c0f86e5b48e01b996cadc001622fb5e363b421",
            "uncleHash" : "0x1dcc4de8dec75d7aab85b567b6ccd41ad312451b948a7413f0a142fd40d49347"
        },
        "pre" : {
            "0x095e7baea6a6c7c4c2dfeb977efac326af552d87" : {
                "balance" : "0x00",
                "code" : "0x60806040526004361061001e5760003560e01c806312bd429914610023575b600080fd5b6100fc6004803603604081101561003957600080fd5b81019080803573ffffffffffffffffffffffffffffffffffffffff1690602001909291908035906020019064010000000081111561007657600080fd5b82018360208201111561008857600080fd5b803590602001918460018302840111640100000000831117156100aa57600080fd5b91908080601f016020809104026020016040519081016040528093929190818152602001838380828437600081840152601f19601f820116905080830192505050505050509192919290505050610182565b604051808315151515815260200180602001828103825283818151815260200191508051906020019080838360005b8381101561014657808201518184015260208101905061012b565b50505050905090810190601f1680156101735780820380516001836020036101000a031916815260200191505b50935050505060405180910390f35b600060608373ffffffffffffffffffffffffffffffffffffffff16836040518082805190602001908083835b602083106101d157805182526020820191506020810190506020830392506101ae565b6001836020036101000a038019825116818451168082178552505050505050905001915050600060405180830381855afa9150503d8060008114610231576040519150601f19603f3d011682016040523d82523d6000602084013e610236565b606091505b508092508193505050600060405180807f6572726f72000000000000000000000000000000000000000000000000000000815250600501905060405180910390209050821561028a57818051906020012090505b8060025582829250925050925092905056fea2646970667358221220db58d80e8530eed625d9b4250a6055c2eb1d7c117a7ca267e6f8a059bdd2f39e64736f6c634300060a0033",
                "nonce" : "0x01",
                "storage" : {
                }
            },
            "0xa94f5374fce5edbc8e2a8697c15331677e6ebf0b" : {
                "balance" : "0x0de0b6b3a7640000",
                "code" : "0x",
                "nonce" : "0x00",
                "storage" : {
                }
            }
        },
        "postState" : {
            "0x095e7baea6a6c7c4c2dfeb977efac326af552d87" : {
                "code" : "0x60806040526004361061001e5760003560e01c806312bd429914610023575b600080fd5b6100fc6004803603604081101561003957600080fd5b81019080803573ffffffffffffffffffffffffffffffffffffffff1690602001909291908035906020019064010000000081111561007657600080fd5b82018360208201111561008857600080fd5b803590602001918460018302840111640100000000831117156100aa57600080fd5b91908080601f016020809104026020016040519081016040528093929190818152602001838380828437600081840152601f19601f820116905080830192505050505050509192919290505050610182565b604051808315151515815260200180602001828103825283818151815260200191508051906020019080838360005b8381101561014657808201518184015260208101905061012b565b50505050905090810190601f1680156101735780820380516001836020036101000a031916815260200191505b50935050505060405180910390f35b600060608373ffffffffffffffffffffffffffffffffffffffff16836040518082805190602001908083835b602083106101d157805182526020820191506020810190506020830392506101ae565b6001836020036101000a038019825116818451168082178552505050505050905001915050600060405180830381855afa9150503d8060008114610231576040519150601f19603f3d011682016040523d82523d6000602084013e610236565b606091505b508092508193505050600060405180807f6572726f72000000000000000000000000000000000000000000000000000000815250600501905060405180910390209050821561028a57818051906020012090505b8060025582829250925050925092905056fea2646970667358221220db58d80e8530eed625d9b4250a6055c2eb1d7c117a7ca267e6f8a059bdd2f39e64736f6c634300060a0033",
                "nonce" : "0x01",
                "balance" : "0x03e8",
                "storage" : {
                    "0x02" : "0x177f242d20ff7dc4598657e4355abd2b0df8f6351283a95d209db56ce73ef6e9"
                }
            },
            "0x2adc25665018aa1fe0e6bc666dac8fc2697ff9ba" : {
                "code" : "0x",
                "nonce" : "0x00",
                "balance" : "0x1bc16d674f317ebb",
                "storage" : {
                }
            },
            "0xa94f5374fce5edbc8e2a8697c15331677e6ebf0b" : {
                "code" : "0x",
                "nonce" : "0x01",
                "balance" : "0x0de0b6b3a6fa7d5d",
                "storage" : {
                }
            }
        },
        "network" : "Berlin",
        "sealEngine" : "NoProof",
        "lastblockhash" : "0x04c7a55f21cfc3a0f760bdc9a5c5fc3150e08079cf9520d31282d6a2e40a7e33",
        "genesisRLP" : "0xf901fcf901f7a00000000000000000000000000000000000000000000000000000000000000000a01dcc4de8dec75d7aab85b567b6ccd41ad312451b948a7413f0a142fd40d49347942adc25665018aa1fe0e6bc666dac8fc2697ff9baa0bf61e00e2f1fbb3ea831c4ff3bbeff62f2737e7f0d88945ba62e0722eab6cd68a056e81f171bcc55a6ff8345e692c0f86e5b48e01b996cadc001622fb5e363b421a056e81f171bcc55a6ff8345e692c0f86e5b48e01b996cadc001622fb5e363b421b9010000000000000000000000000000000000000000000000000000000000000000000000000000000000000000000000000000000000000000000000000000000000000000000000000000000000000000000000000000000000000000000000000000000000000000000000000000000000000000000000000000000000000000000000000000000000000000000000000000000000000000000000000000000000000000000000000000000000000000000000000000000000000000000000000000000000000000000000000000000000000000000000000000000000000000000000000000000000000000000000000000000000000000000000000000000000830200008087ff112233445566808000a00000000000000000000000000000000000000000000000000000000000000000880000000000000000c0c0",
        "blocks" : [
            {
                "rlp" : "0xf905cef901fca0f227282805f439ca053613f53f119422bda960eea236c4b013eca3b95c6be464a01dcc4de8dec75d7aab85b567b6ccd41ad312451b948a7413f0a142fd40d49347942adc25665018aa1fe0e6bc666dac8fc2697ff9baa09daead7e8ad69b2f791cf613858622518d69d9144b5552e1443aa2ab3287098da05eb5efb5e762acea6f942ce1fe118d469b9250f43942443843a430ee0f845d8ea01d94d3f584f3072e26685d45bae18b61fd733abe7d4e2a88b22ca4019d007a6eb9010000000000000000000000000000000000000000000000000000000000000000000000000000000000000000000000000000000000000000000000000000000000000000000000000000000000000000000000000000000000000000000000000000000000000000000000000000000000000000000000000000000000000000000000000000000000000000000000000000000000000000000000000000000000000000000000000000000000000000000000000000000000000000000000000000000000000000000000000000000000000000000000000000000000000000000000000000000000000000000000000000000000000000000000000000000000830200000187ff11223344556683697ebb8203e800a00000000000000000000000000000000000000000000000000000000000000000880000000000000000f903cbf903c88001836acfc094095e7baea6a6c7c4c2dfeb977efac326af552d878203e8b9036412bd42990000000000000000000000000000000000000000000000000000000000000010000000000000000000000000000000000000000000000000000000000000004000000000000000000000000000000000000000000000000000000000000003000000000000000000000000000000000001d70e0c28a776a0fef6d7d6a729f03d59c20a4c1f28bcb28645b996c307483837361d146b73fc808041893ac1738365000000000000000000000000000000000a68b5a13a6e5ffb88ad2618be4a197271d08e55781d21c367209c08fab2545b99f8e1e0b523854f075a915856f7483d0000000000000000000000000000000008c7569bb4e8d3b213dff2c132e5954e9622edc874dc82fcd674405cfda14dbeeb323d1605d06a92231f44339952333300000000000000000000000000000000092decf1271f8cb90a67c6cbf7eb0cca0c2d71c698470193ef495e494a8a1ac3b6bd78fa6e4367874ba18a00f6eca025000000000000000000000000000000000dfeff0f041a1868cd0ede471164f24dcac619c56515b8eec5c8aea870a79a2d03f0e1526eb1e8cbcba908969b5e952700000000000000000000000000000000109aa32bee0a83dae428e388a39ece51fd3f392ec841ffaa2554972528b7f55ca36b19ef6ae585e91995a50c0848cccf0000000000000000000000000000000001d70e0c28a776a0fef6d7d6a729f03d59c20a4c1f28bcb28645b996c307483837361d146b73fc808041893ac1738365000000000000000000000000000000000a68b5a13a6e5ffb88ad2618be4a197271d08e55781d21c367209c08fab2545b99f8e1e0b523854f075a915856f7483d00000000000000000000000000000000065860fd6efa478810b70e56ca788706bccb63191649d7b9e92941efe264bd4720b1f536d90a034b681ec9ee16f50b5c0000000000000000000000000000000014e4277fc0e4827510d55f27162d85d362f99ce57a7baf74f62567d42efd3afefb61782a6ba85d4d0e27184dc15b30ea0000000000000000000000000000000004a18f9b07e2c61210d7b00d54dd1e2895692b928adc0a4597d4ff7efbfd7215e764572275cb78f29d106aec578ed1a200000000000000000000000000000000025c5527f68d69ca8d86ffaaa3330784b9a9e32069cdc2e147c81d9a39eb181e39592a126d428e6f7963d34292f44e4c1ca0413603cecd068ee247bc66ff981b9399efa779bc6e93f8e1008d46b39c9449bda05572dfa656f96264160df2f227abef6d23eeb31eeb76e6bbe9ab8075879c53c4c0",
                "blockHeader" : {
                    "bloom" : "0x00000000000000000000000000000000000000000000000000000000000000000000000000000000000000000000000000000000000000000000000000000000000000000000000000000000000000000000000000000000000000000000000000000000000000000000000000000000000000000000000000000000000000000000000000000000000000000000000000000000000000000000000000000000000000000000000000000000000000000000000000000000000000000000000000000000000000000000000000000000000000000000000000000000000000000000000000000000000000000000000000000000000000000000000000000000",
                    "coinbase" : "0x2adc25665018aa1fe0e6bc666dac8fc2697ff9ba",
                    "difficulty" : "0x020000",
                    "extraData" : "0x00",
                    "gasLimit" : "0xff112233445566",
                    "gasUsed" : "0x697ebb",
                    "hash" : "0x04c7a55f21cfc3a0f760bdc9a5c5fc3150e08079cf9520d31282d6a2e40a7e33",
                    "mixHash" : "0x0000000000000000000000000000000000000000000000000000000000000000",
                    "nonce" : "0x0000000000000000",
                    "number" : "0x01",
                    "parentHash" : "0xf227282805f439ca053613f53f119422bda960eea236c4b013eca3b95c6be464",
                    "receiptTrie" : "0x1d94d3f584f3072e26685d45bae18b61fd733abe7d4e2a88b22ca4019d007a6e",
                    "stateRoot" : "0x9daead7e8ad69b2f791cf613858622518d69d9144b5552e1443aa2ab3287098d",
                    "timestamp" : "0x03e8",
                    "transactionsTrie" : "0x5eb5efb5e762acea6f942ce1fe118d469b9250f43942443843a430ee0f845d8e",
                    "uncleHash" : "0x1dcc4de8dec75d7aab85b567b6ccd41ad312451b948a7413f0a142fd40d49347"
                },
                "transactions" : [
                    {
                        "data" : "0x12bd42990000000000000000000000000000000000000000000000000000000000000010000000000000000000000000000000000000000000000000000000000000004000000000000000000000000000000000000000000000000000000000000003000000000000000000000000000000000001d70e0c28a776a0fef6d7d6a729f03d59c20a4c1f28bcb28645b996c307483837361d146b73fc808041893ac1738365000000000000000000000000000000000a68b5a13a6e5ffb88ad2618be4a197271d08e55781d21c367209c08fab2545b99f8e1e0b523854f075a915856f7483d0000000000000000000000000000000008c7569bb4e8d3b213dff2c132e5954e9622edc874dc82fcd674405cfda14dbeeb323d1605d06a92231f44339952333300000000000000000000000000000000092decf1271f8cb90a67c6cbf7eb0cca0c2d71c698470193ef495e494a8a1ac3b6bd78fa6e4367874ba18a00f6eca025000000000000000000000000000000000dfeff0f041a1868cd0ede471164f24dcac619c56515b8eec5c8aea870a79a2d03f0e1526eb1e8cbcba908969b5e952700000000000000000000000000000000109aa32bee0a83dae428e388a39ece51fd3f392ec841ffaa2554972528b7f55ca36b19ef6ae585e91995a50c0848cccf0000000000000000000000000000000001d70e0c28a776a0fef6d7d6a729f03d59c20a4c1f28bcb28645b996c307483837361d146b73fc808041893ac1738365000000000000000000000000000000000a68b5a13a6e5ffb88ad2618be4a197271d08e55781d21c367209c08fab2545b99f8e1e0b523854f075a915856f7483d00000000000000000000000000000000065860fd6efa478810b70e56ca788706bccb63191649d7b9e92941efe264bd4720b1f536d90a034b681ec9ee16f50b5c0000000000000000000000000000000014e4277fc0e4827510d55f27162d85d362f99ce57a7baf74f62567d42efd3afefb61782a6ba85d4d0e27184dc15b30ea0000000000000000000000000000000004a18f9b07e2c61210d7b00d54dd1e2895692b928adc0a4597d4ff7efbfd7215e764572275cb78f29d106aec578ed1a200000000000000000000000000000000025c5527f68d69ca8d86ffaaa3330784b9a9e32069cdc2e147c81d9a39eb181e39592a126d428e6f7963d34292f44e4c",
                        "gasLimit" : "0x6acfc0",
                        "gasPrice" : "0x01",
                        "nonce" : "0x00",
                        "to" : "0x095e7baea6a6c7c4c2dfeb977efac326af552d87",
                        "value" : "0x03e8",
                        "v" : "0x1c",
                        "r" : "0x413603cecd068ee247bc66ff981b9399efa779bc6e93f8e1008d46b39c9449bd",
                        "s" : "0x5572dfa656f96264160df2f227abef6d23eeb31eeb76e6bbe9ab8075879c53c4"
                    }
                ],
                "uncleHeaders" : [
                ]
            }
        ]
    }
}