{
    "pairing_79_d0g0v0_Prague" : {
        "_info" : {
            "comment" : "A test for pairing_79",
            "filling-rpc-server" : "evm version 1.14.0-unstable-a208e725-20240416",
            "filling-tool-version" : "retesteth-0.3.2-cancun+commit.353b2b37.Linux.g++",
            "generatedTestHash" : "5e20f8321dc3ed840fe2613593cd4d6ac09705a3877487c346d7d30ace49c21a",
            "lllcversion" : "Version: 0.5.14-develop.2023.7.11+commit.c58ab2c6.mod.Linux.g++",
            "solidity" : "Version: 0.8.21+commit.d9974bed.Linux.g++",
            "source" : "src/EIPTestsFiller/StateTests/stEIP2537/pairing_79Filler.json",
            "sourceHash" : "1c06cdb5ed8c946466425e87c23775fba8dbe1d5449cf835e98e68b58b8674ae"
        },
        "blocks" : [
            {
                "blockHeader" : {
                    "baseFeePerGas" : "0x0a",
                    "blobGasUsed" : "0x00",
                    "bloom" : "0x00000000000000000000000000000000000000000000000000000000000000000000000000000000000000000000000000000000000000000000000000000000000000000000000000000000000000000000000000000000000000000000000000000000000000000000000000000000000000000000000000000000000000000000000000000000000000000000000000000000000000000000000000000000000000000000000000000000000000000000000000000000000000000000000000000000000000000000000000000000000000000000000000000000000000000000000000000000000000000000000000000000000000000000000000000000",
                    "coinbase" : "0x2adc25665018aa1fe0e6bc666dac8fc2697ff9ba",
                    "difficulty" : "0x00",
                    "excessBlobGas" : "0x00",
                    "extraData" : "0x00",
                    "gasLimit" : "0xff112233445566",
                    "gasUsed" : "0x056dde",
                    "hash" : "0x50b2950598570d465926bc9bc76251ddb9e5afa42631dc0f60524d2d1f11810e",
                    "mixHash" : "0x0000000000000000000000000000000000000000000000000000000000020000",
                    "nonce" : "0x0000000000000000",
                    "number" : "0x01",
                    "parentBeaconBlockRoot" : "0x0000000000000000000000000000000000000000000000000000000000000000",
                    "parentHash" : "0xc9cb4ed0dc693e89844b5a27d709ebd577e6a8380102855ef905d3d2d81ac0e5",
                    "receiptTrie" : "0xb5af0c1f216619d23a4db7801a44dab9f07072e1a0ff3fabe0060084dff7f157",
                    "stateRoot" : "0xa53b6a82a4e1eb09d42ba34498085ccf52ebf2e0dbc61400754a79124fb93811",
                    "timestamp" : "0x03e8",
                    "transactionsTrie" : "0xf1c2bc09d72bff26e9fd5fea2fe681ce532cc1141a48994fcea9883b3924b841",
                    "uncleHash" : "0x1dcc4de8dec75d7aab85b567b6ccd41ad312451b948a7413f0a142fd40d49347",
                    "withdrawalsRoot" : "0x56e81f171bcc55a6ff8345e692c0f86e5b48e01b996cadc001622fb5e363b421"
                },
                "rlp" : "0xf90a91f9023ea0c9cb4ed0dc693e89844b5a27d709ebd577e6a8380102855ef905d3d2d81ac0e5a01dcc4de8dec75d7aab85b567b6ccd41ad312451b948a7413f0a142fd40d49347942adc25665018aa1fe0e6bc666dac8fc2697ff9baa0a53b6a82a4e1eb09d42ba34498085ccf52ebf2e0dbc61400754a79124fb93811a0f1c2bc09d72bff26e9fd5fea2fe681ce532cc1141a48994fcea9883b3924b841a0b5af0c1f216619d23a4db7801a44dab9f07072e1a0ff3fabe0060084dff7f157b9010000000000000000000000000000000000000000000000000000000000000000000000000000000000000000000000000000000000000000000000000000000000000000000000000000000000000000000000000000000000000000000000000000000000000000000000000000000000000000000000000000000000000000000000000000000000000000000000000000000000000000000000000000000000000000000000000000000000000000000000000000000000000000000000000000000000000000000000000000000000000000000000000000000000000000000000000000000000000000000000000000000000000000000000000000000000800187ff11223344556683056dde8203e800a000000000000000000000000000000000000000000000000000000000000200008800000000000000000aa056e81f171bcc55a6ff8345e692c0f86e5b48e01b996cadc001622fb5e363b4218080a00000000000000000000000000000000000000000000000000000000000000000f9084bf90848800a836acfc094095e7baea6a6c7c4c2dfeb977efac326af552d878203e8b907e412bd42990000000000000000000000000000000000000000000000000000000000000011000000000000000000000000000000000000000000000000000000000000004000000000000000000000000000000000000000000000000000000000000007800000000000000000000000000000000002291ff240598e2c129ea12292e4a2fc86e03da9bd9fbbb8bddd6f25797003a4688ba2ed3bafd8dfcf0ddd44c3288c1e000000000000000000000000000000000d7541c9c54a95f3789ca7637348378f8956fd451c3266c8f1a34906bf1cf8e7499fcf8ad1f1a73dafcf71b86833ff3b0000000000000000000000000000000016aed55f56416b8f450283c4afea4c606100eed9bf7b8fea9ab4d04797a7bfe3bf0f10cf229f8ce3156869d75beabe6b0000000000000000000000000000000007e5c03e51a513c6f77179bcb5f7d147dcee32426b4365b1c95f434be7f83a5883d1ee5b0e01a636b3e5377542314b75000000000000000000000000000000000fbe421858e4109c51de57b77da4f9c4c1f950099532d9e30e2f7a8b8b4fb9f708cde1a497050d0944e089978b15321e0000000000000000000000000000000019f48a0bf0f27df65ba766a65e831a0801a4ebcd1995a6002a803f88aead1503b7c39fde8ef5c4672020307241958a880000000000000000000000000000000002291ff240598e2c129ea12292e4a2fc86e03da9bd9fbbb8bddd6f25797003a4688ba2ed3bafd8dfcf0ddd44c3288c1e000000000000000000000000000000000c8bd020743550a6d27f0052d0037547db204e3fd752abf6758d899a3793fd3cd50c3073df6258c20a2f8e4797cbab700000000000000000000000000000000016aed55f56416b8f450283c4afea4c606100eed9bf7b8fea9ab4d04797a7bfe3bf0f10cf229f8ce3156869d75beabe6b0000000000000000000000000000000007e5c03e51a513c6f77179bcb5f7d147dcee32426b4365b1c95f434be7f83a5883d1ee5b0e01a636b3e5377542314b75000000000000000000000000000000000fbe421858e4109c51de57b77da4f9c4c1f950099532d9e30e2f7a8b8b4fb9f708cde1a497050d0944e089978b15321e0000000000000000000000000000000019f48a0bf0f27df65ba766a65e831a0801a4ebcd1995a6002a803f88aead1503b7c39fde8ef5c4672020307241958a880000000000000000000000000000000002291ff240598e2c129ea12292e4a2fc86e03da9bd9fbbb8bddd6f25797003a4688ba2ed3bafd8dfcf0ddd44c3288c1e000000000000000000000000000000000d7541c9c54a95f3789ca7637348378f8956fd451c3266c8f1a34906bf1cf8e7499fcf8ad1f1a73dafcf71b86833ff3b0000000000000000000000000000000016aed55f56416b8f450283c4afea4c606100eed9bf7b8fea9ab4d04797a7bfe3bf0f10cf229f8ce3156869d75beabe6b0000000000000000000000000000000007e5c03e51a513c6f77179bcb5f7d147dcee32426b4365b1c95f434be7f83a5883d1ee5b0e01a636b3e5377542314b75000000000000000000000000000000000a42cfd1e09bd5fdf93d4ffec5a6b312a27dfb7b5e5238dc590158156b613c2d15de1e5a1a4ef2f6751e766874ea788d00000000000000000000000000000000000c87de488d68a3ef74410fe4c892cf62d25fb7d9ef6cbf3cb093184803e12066e86020225e3b9899decf8dbe6a20230000000000000000000000000000000002291ff240598e2c129ea12292e4a2fc86e03da9bd9fbbb8bddd6f25797003a4688ba2ed3bafd8dfcf0ddd44c3288c1e000000000000000000000000000000000c8bd020743550a6d27f0052d0037547db204e3fd752abf6758d899a3793fd3cd50c3073df6258c20a2f8e4797cbab700000000000000000000000000000000016aed55f56416b8f450283c4afea4c606100eed9bf7b8fea9ab4d04797a7bfe3bf0f10cf229f8ce3156869d75beabe6b0000000000000000000000000000000007e5c03e51a513c6f77179bcb5f7d147dcee32426b4365b1c95f434be7f83a5883d1ee5b0e01a636b3e5377542314b75000000000000000000000000000000000a42cfd1e09bd5fdf93d4ffec5a6b312a27dfb7b5e5238dc590158156b613c2d15de1e5a1a4ef2f6751e766874ea788d00000000000000000000000000000000000c87de488d68a3ef74410fe4c892cf62d25fb7d9ef6cbf3cb093184803e12066e86020225e3b9899decf8dbe6a20230000000000000000000000000000000002291ff240598e2c129ea12292e4a2fc86e03da9bd9fbbb8bddd6f25797003a4688ba2ed3bafd8dfcf0ddd44c3288c1e000000000000000000000000000000000d7541c9c54a95f3789ca7637348378f8956fd451c3266c8f1a34906bf1cf8e7499fcf8ad1f1a73dafcf71b86833ff3b0000000000000000000000000000000016aed55f56416b8f450283c4afea4c606100eed9bf7b8fea9ab4d04797a7bfe3bf0f10cf229f8ce3156869d75beabe6b0000000000000000000000000000000007e5c03e51a513c6f77179bcb5f7d147dcee32426b4365b1c95f434be7f83a5883d1ee5b0e01a636b3e5377542314b75000000000000000000000000000000000fbe421858e4109c51de57b77da4f9c4c1f950099532d9e30e2f7a8b8b4fb9f708cde1a497050d0944e089978b15321e0000000000000000000000000000000019f48a0bf0f27df65ba766a65e831a0801a4ebcd1995a6002a803f88aead1503b7c39fde8ef5c4672020307241958a881ca027c3c613f07e888163dfe2af9829a3bb7d8edff12cf8765dd4d16ac8bde5af39a028c6b261a763858e15881b5db65f6932bc3b69776ae3b0a4ef55a8615520bb54c0c0",
                "transactions" : [
                    {
                        "data" : "0x12bd42990000000000000000000000000000000000000000000000000000000000000011000000000000000000000000000000000000000000000000000000000000004000000000000000000000000000000000000000000000000000000000000007800000000000000000000000000000000002291ff240598e2c129ea12292e4a2fc86e03da9bd9fbbb8bddd6f25797003a4688ba2ed3bafd8dfcf0ddd44c3288c1e000000000000000000000000000000000d7541c9c54a95f3789ca7637348378f8956fd451c3266c8f1a34906bf1cf8e7499fcf8ad1f1a73dafcf71b86833ff3b0000000000000000000000000000000016aed55f56416b8f450283c4afea4c606100eed9bf7b8fea9ab4d04797a7bfe3bf0f10cf229f8ce3156869d75beabe6b0000000000000000000000000000000007e5c03e51a513c6f77179bcb5f7d147dcee32426b4365b1c95f434be7f83a5883d1ee5b0e01a636b3e5377542314b75000000000000000000000000000000000fbe421858e4109c51de57b77da4f9c4c1f950099532d9e30e2f7a8b8b4fb9f708cde1a497050d0944e089978b15321e0000000000000000000000000000000019f48a0bf0f27df65ba766a65e831a0801a4ebcd1995a6002a803f88aead1503b7c39fde8ef5c4672020307241958a880000000000000000000000000000000002291ff240598e2c129ea12292e4a2fc86e03da9bd9fbbb8bddd6f25797003a4688ba2ed3bafd8dfcf0ddd44c3288c1e000000000000000000000000000000000c8bd020743550a6d27f0052d0037547db204e3fd752abf6758d899a3793fd3cd50c3073df6258c20a2f8e4797cbab700000000000000000000000000000000016aed55f56416b8f450283c4afea4c606100eed9bf7b8fea9ab4d04797a7bfe3bf0f10cf229f8ce3156869d75beabe6b0000000000000000000000000000000007e5c03e51a513c6f77179bcb5f7d147dcee32426b4365b1c95f434be7f83a5883d1ee5b0e01a636b3e5377542314b75000000000000000000000000000000000fbe421858e4109c51de57b77da4f9c4c1f950099532d9e30e2f7a8b8b4fb9f708cde1a497050d0944e089978b15321e0000000000000000000000000000000019f48a0bf0f27df65ba766a65e831a0801a4ebcd1995a6002a803f88aead1503b7c39fde8ef5c4672020307241958a880000000000000000000000000000000002291ff240598e2c129ea12292e4a2fc86e03da9bd9fbbb8bddd6f25797003a4688ba2ed3bafd8dfcf0ddd44c3288c1e000000000000000000000000000000000d7541c9c54a95f3789ca7637348378f8956fd451c3266c8f1a34906bf1cf8e7499fcf8ad1f1a73dafcf71b86833ff3b0000000000000000000000000000000016aed55f56416b8f450283c4afea4c606100eed9bf7b8fea9ab4d04797a7bfe3bf0f10cf229f8ce3156869d75beabe6b0000000000000000000000000000000007e5c03e51a513c6f77179bcb5f7d147dcee32426b4365b1c95f434be7f83a5883d1ee5b0e01a636b3e5377542314b75000000000000000000000000000000000a42cfd1e09bd5fdf93d4ffec5a6b312a27dfb7b5e5238dc590158156b613c2d15de1e5a1a4ef2f6751e766874ea788d00000000000000000000000000000000000c87de488d68a3ef74410fe4c892cf62d25fb7d9ef6cbf3cb093184803e12066e86020225e3b9899decf8dbe6a20230000000000000000000000000000000002291ff240598e2c129ea12292e4a2fc86e03da9bd9fbbb8bddd6f25797003a4688ba2ed3bafd8dfcf0ddd44c3288c1e000000000000000000000000000000000c8bd020743550a6d27f0052d0037547db204e3fd752abf6758d899a3793fd3cd50c3073df6258c20a2f8e4797cbab700000000000000000000000000000000016aed55f56416b8f450283c4afea4c606100eed9bf7b8fea9ab4d04797a7bfe3bf0f10cf229f8ce3156869d75beabe6b0000000000000000000000000000000007e5c03e51a513c6f77179bcb5f7d147dcee32426b4365b1c95f434be7f83a5883d1ee5b0e01a636b3e5377542314b75000000000000000000000000000000000a42cfd1e09bd5fdf93d4ffec5a6b312a27dfb7b5e5238dc590158156b613c2d15de1e5a1a4ef2f6751e766874ea788d00000000000000000000000000000000000c87de488d68a3ef74410fe4c892cf62d25fb7d9ef6cbf3cb093184803e12066e86020225e3b9899decf8dbe6a20230000000000000000000000000000000002291ff240598e2c129ea12292e4a2fc86e03da9bd9fbbb8bddd6f25797003a4688ba2ed3bafd8dfcf0ddd44c3288c1e000000000000000000000000000000000d7541c9c54a95f3789ca7637348378f8956fd451c3266c8f1a34906bf1cf8e7499fcf8ad1f1a73dafcf71b86833ff3b0000000000000000000000000000000016aed55f56416b8f450283c4afea4c606100eed9bf7b8fea9ab4d04797a7bfe3bf0f10cf229f8ce3156869d75beabe6b0000000000000000000000000000000007e5c03e51a513c6f77179bcb5f7d147dcee32426b4365b1c95f434be7f83a5883d1ee5b0e01a636b3e5377542314b75000000000000000000000000000000000fbe421858e4109c51de57b77da4f9c4c1f950099532d9e30e2f7a8b8b4fb9f708cde1a497050d0944e089978b15321e0000000000000000000000000000000019f48a0bf0f27df65ba766a65e831a0801a4ebcd1995a6002a803f88aead1503b7c39fde8ef5c4672020307241958a88",
                        "gasLimit" : "0x6acfc0",
                        "gasPrice" : "0x0a",
                        "nonce" : "0x00",
                        "r" : "0x27c3c613f07e888163dfe2af9829a3bb7d8edff12cf8765dd4d16ac8bde5af39",
                        "s" : "0x28c6b261a763858e15881b5db65f6932bc3b69776ae3b0a4ef55a8615520bb54",
                        "sender" : "0xa94f5374fce5edbc8e2a8697c15331677e6ebf0b",
                        "to" : "0x095e7baea6a6c7c4c2dfeb977efac326af552d87",
                        "v" : "0x1c",
                        "value" : "0x03e8"
                    }
                ],
                "uncleHeaders" : [
                ],
                "withdrawals" : [
                ]
            }
        ],
        "genesisBlockHeader" : {
            "baseFeePerGas" : "0x0b",
            "blobGasUsed" : "0x00",
            "bloom" : "0x00000000000000000000000000000000000000000000000000000000000000000000000000000000000000000000000000000000000000000000000000000000000000000000000000000000000000000000000000000000000000000000000000000000000000000000000000000000000000000000000000000000000000000000000000000000000000000000000000000000000000000000000000000000000000000000000000000000000000000000000000000000000000000000000000000000000000000000000000000000000000000000000000000000000000000000000000000000000000000000000000000000000000000000000000000000",
            "coinbase" : "0x2adc25665018aa1fe0e6bc666dac8fc2697ff9ba",
            "difficulty" : "0x00",
            "excessBlobGas" : "0x060000",
            "extraData" : "0x00",
            "gasLimit" : "0xff112233445566",
            "gasUsed" : "0x00",
            "hash" : "0xc9cb4ed0dc693e89844b5a27d709ebd577e6a8380102855ef905d3d2d81ac0e5",
            "mixHash" : "0x0000000000000000000000000000000000000000000000000000000000020000",
            "nonce" : "0x0000000000000000",
            "number" : "0x00",
            "parentBeaconBlockRoot" : "0x0000000000000000000000000000000000000000000000000000000000000000",
            "parentHash" : "0x0000000000000000000000000000000000000000000000000000000000000000",
            "receiptTrie" : "0x56e81f171bcc55a6ff8345e692c0f86e5b48e01b996cadc001622fb5e363b421",
            "stateRoot" : "0x00059c610e858a345663eede1b974d037c154e4b4bb16a01ea2fd48a4d67bf65",
            "timestamp" : "0x00",
            "transactionsTrie" : "0x56e81f171bcc55a6ff8345e692c0f86e5b48e01b996cadc001622fb5e363b421",
            "uncleHash" : "0x1dcc4de8dec75d7aab85b567b6ccd41ad312451b948a7413f0a142fd40d49347",
            "withdrawalsRoot" : "0x56e81f171bcc55a6ff8345e692c0f86e5b48e01b996cadc001622fb5e363b421"
        },
        "genesisRLP" : "0xf90242f9023ca00000000000000000000000000000000000000000000000000000000000000000a01dcc4de8dec75d7aab85b567b6ccd41ad312451b948a7413f0a142fd40d49347942adc25665018aa1fe0e6bc666dac8fc2697ff9baa000059c610e858a345663eede1b974d037c154e4b4bb16a01ea2fd48a4d67bf65a056e81f171bcc55a6ff8345e692c0f86e5b48e01b996cadc001622fb5e363b421a056e81f171bcc55a6ff8345e692c0f86e5b48e01b996cadc001622fb5e363b421b9010000000000000000000000000000000000000000000000000000000000000000000000000000000000000000000000000000000000000000000000000000000000000000000000000000000000000000000000000000000000000000000000000000000000000000000000000000000000000000000000000000000000000000000000000000000000000000000000000000000000000000000000000000000000000000000000000000000000000000000000000000000000000000000000000000000000000000000000000000000000000000000000000000000000000000000000000000000000000000000000000000000000000000000000000000000000808087ff112233445566808000a000000000000000000000000000000000000000000000000000000000000200008800000000000000000ba056e81f171bcc55a6ff8345e692c0f86e5b48e01b996cadc001622fb5e363b4218083060000a00000000000000000000000000000000000000000000000000000000000000000c0c0c0",
        "lastblockhash" : "0x50b2950598570d465926bc9bc76251ddb9e5afa42631dc0f60524d2d1f11810e",
        "network" : "Prague",
        "postState" : {
            "0x000f3df6d732807ef1319fb7b8bb8522d0beac02" : {
                "balance" : "0x00",
                "code" : "0x3373fffffffffffffffffffffffffffffffffffffffe14604d57602036146024575f5ffd5b5f35801560495762001fff810690815414603c575f5ffd5b62001fff01545f5260205ff35b5f5ffd5b62001fff42064281555f359062001fff015500",
                "nonce" : "0x01",
                "storage" : {
                    "0x03e8" : "0x03e8"
                }
            },
            "0x095e7baea6a6c7c4c2dfeb977efac326af552d87" : {
                "balance" : "0x03e8",
                "code" : "0x60806040526004361061001e5760003560e01c806312bd429914610023575b600080fd5b6100fc6004803603604081101561003957600080fd5b81019080803573ffffffffffffffffffffffffffffffffffffffff1690602001909291908035906020019064010000000081111561007657600080fd5b82018360208201111561008857600080fd5b803590602001918460018302840111640100000000831117156100aa57600080fd5b91908080601f016020809104026020016040519081016040528093929190818152602001838380828437600081840152601f19601f820116905080830192505050505050509192919290505050610182565b604051808315151515815260200180602001828103825283818151815260200191508051906020019080838360005b8381101561014657808201518184015260208101905061012b565b50505050905090810190601f1680156101735780820380516001836020036101000a031916815260200191505b50935050505060405180910390f35b600060608373ffffffffffffffffffffffffffffffffffffffff16836040518082805190602001908083835b602083106101d157805182526020820191506020810190506020830392506101ae565b6001836020036101000a038019825116818451168082178552505050505050905001915050600060405180830381855afa9150503d8060008114610231576040519150601f19603f3d011682016040523d82523d6000602084013e610236565b606091505b508092508193505050600060405180807f6572726f72000000000000000000000000000000000000000000000000000000815250600501905060405180910390209050821561028a57818051906020012090505b8060025582829250925050925092905056fea2646970667358221220db58d80e8530eed625d9b4250a6055c2eb1d7c117a7ca267e6f8a059bdd2f39e64736f6c634300060a0033",
                "nonce" : "0x01",
                "storage" : {
                    "0x02" : "0x290decd9548b62a8d60345a988386fc84ba6bc95484008f6362f93160ef3e563"
                }
            },
            "0xa94f5374fce5edbc8e2a8697c15331677e6ebf0b" : {
                "balance" : "0x0de0b6b3a72db16c",
                "code" : "0x",
                "nonce" : "0x01",
                "storage" : {
                }
            }
        },
        "pre" : {
            "0x000f3df6d732807ef1319fb7b8bb8522d0beac02" : {
                "balance" : "0x00",
                "code" : "0x3373fffffffffffffffffffffffffffffffffffffffe14604d57602036146024575f5ffd5b5f35801560495762001fff810690815414603c575f5ffd5b62001fff01545f5260205ff35b5f5ffd5b62001fff42064281555f359062001fff015500",
                "nonce" : "0x01",
                "storage" : {
                }
            },
            "0x095e7baea6a6c7c4c2dfeb977efac326af552d87" : {
                "balance" : "0x00",
                "code" : "0x60806040526004361061001e5760003560e01c806312bd429914610023575b600080fd5b6100fc6004803603604081101561003957600080fd5b81019080803573ffffffffffffffffffffffffffffffffffffffff1690602001909291908035906020019064010000000081111561007657600080fd5b82018360208201111561008857600080fd5b803590602001918460018302840111640100000000831117156100aa57600080fd5b91908080601f016020809104026020016040519081016040528093929190818152602001838380828437600081840152601f19601f820116905080830192505050505050509192919290505050610182565b604051808315151515815260200180602001828103825283818151815260200191508051906020019080838360005b8381101561014657808201518184015260208101905061012b565b50505050905090810190601f1680156101735780820380516001836020036101000a031916815260200191505b50935050505060405180910390f35b600060608373ffffffffffffffffffffffffffffffffffffffff16836040518082805190602001908083835b602083106101d157805182526020820191506020810190506020830392506101ae565b6001836020036101000a038019825116818451168082178552505050505050905001915050600060405180830381855afa9150503d8060008114610231576040519150601f19603f3d011682016040523d82523d6000602084013e610236565b606091505b508092508193505050600060405180807f6572726f72000000000000000000000000000000000000000000000000000000815250600501905060405180910390209050821561028a57818051906020012090505b8060025582829250925050925092905056fea2646970667358221220db58d80e8530eed625d9b4250a6055c2eb1d7c117a7ca267e6f8a059bdd2f39e64736f6c634300060a0033",
                "nonce" : "0x01",
                "storage" : {
                }
            },
            "0xa94f5374fce5edbc8e2a8697c15331677e6ebf0b" : {
                "balance" : "0x0de0b6b3a7640000",
                "code" : "0x",
                "nonce" : "0x00",
                "storage" : {
                }
            }
        },
        "sealEngine" : "NoProof"
    }
}