{
    "pairing_19_d0g0v0_Prague" : {
        "_info" : {
            "comment" : "A test for pairing_19",
            "filling-rpc-server" : "evm version 1.14.0-unstable-a208e725-20240416",
            "filling-tool-version" : "retesteth-0.3.2-cancun+commit.353b2b37.Linux.g++",
            "generatedTestHash" : "1d9240a1f9c75c89ab2f4b003401e839b2880abd8ff3641dd2d204f1534a9eb0",
            "lllcversion" : "Version: 0.5.14-develop.2023.7.11+commit.c58ab2c6.mod.Linux.g++",
            "solidity" : "Version: 0.8.21+commit.d9974bed.Linux.g++",
            "source" : "src/EIPTestsFiller/StateTests/stEIP2537/pairing_19Filler.json",
            "sourceHash" : "85ec4f3cb30c218d8f1ab83149f630993edf433ef077e00cbb33c7a949a9c128"
        },
        "blocks" : [
            {
                "blockHeader" : {
                    "baseFeePerGas" : "0x0a",
                    "blobGasUsed" : "0x00",
                    "bloom" : "0x00000000000000000000000000000000000000000000000000000000000000000000000000000000000000000000000000000000000000000000000000000000000000000000000000000000000000000000000000000000000000000000000000000000000000000000000000000000000000000000000000000000000000000000000000000000000000000000000000000000000000000000000000000000000000000000000000000000000000000000000000000000000000000000000000000000000000000000000000000000000000000000000000000000000000000000000000000000000000000000000000000000000000000000000000000000",
                    "coinbase" : "0x2adc25665018aa1fe0e6bc666dac8fc2697ff9ba",
                    "difficulty" : "0x00",
                    "excessBlobGas" : "0x00",
                    "extraData" : "0x00",
                    "gasLimit" : "0xff112233445566",
                    "gasUsed" : "0x032e0c",
                    "hash" : "0x3e71fe948827d7f24a194c3e4dcbeb713c38ff3c75eae4ccf41156ac26554b13",
                    "mixHash" : "0x0000000000000000000000000000000000000000000000000000000000020000",
                    "nonce" : "0x0000000000000000",
                    "number" : "0x01",
                    "parentBeaconBlockRoot" : "0x0000000000000000000000000000000000000000000000000000000000000000",
                    "parentHash" : "0xc9cb4ed0dc693e89844b5a27d709ebd577e6a8380102855ef905d3d2d81ac0e5",
                    "receiptTrie" : "0x0018a2fe62b665beadee55dc855b851f5be20a405ee2714786c581ebf1c612f6",
                    "stateRoot" : "0x2f8bd988b63876afc17dba8f169a078bed6952d083a25ff92698ed326af8f6f3",
                    "timestamp" : "0x03e8",
                    "transactionsTrie" : "0x2e0e679a92267781a34bd1f78c3bcc2d9bc2c1b124ca7ab1de7298a11fcf81c0",
                    "uncleHash" : "0x1dcc4de8dec75d7aab85b567b6ccd41ad312451b948a7413f0a142fd40d49347",
                    "withdrawalsRoot" : "0x56e81f171bcc55a6ff8345e692c0f86e5b48e01b996cadc001622fb5e363b421"
                },
                "rlp" : "0xf90611f9023ea0c9cb4ed0dc693e89844b5a27d709ebd577e6a8380102855ef905d3d2d81ac0e5a01dcc4de8dec75d7aab85b567b6ccd41ad312451b948a7413f0a142fd40d49347942adc25665018aa1fe0e6bc666dac8fc2697ff9baa02f8bd988b63876afc17dba8f169a078bed6952d083a25ff92698ed326af8f6f3a02e0e679a92267781a34bd1f78c3bcc2d9bc2c1b124ca7ab1de7298a11fcf81c0a00018a2fe62b665beadee55dc855b851f5be20a405ee2714786c581ebf1c612f6b9010000000000000000000000000000000000000000000000000000000000000000000000000000000000000000000000000000000000000000000000000000000000000000000000000000000000000000000000000000000000000000000000000000000000000000000000000000000000000000000000000000000000000000000000000000000000000000000000000000000000000000000000000000000000000000000000000000000000000000000000000000000000000000000000000000000000000000000000000000000000000000000000000000000000000000000000000000000000000000000000000000000000000000000000000000000000800187ff11223344556683032e0c8203e800a000000000000000000000000000000000000000000000000000000000000200008800000000000000000aa056e81f171bcc55a6ff8345e692c0f86e5b48e01b996cadc001622fb5e363b4218080a00000000000000000000000000000000000000000000000000000000000000000f903cbf903c8800a836acfc094095e7baea6a6c7c4c2dfeb977efac326af552d878203e8b9036412bd42990000000000000000000000000000000000000000000000000000000000000011000000000000000000000000000000000000000000000000000000000000004000000000000000000000000000000000000000000000000000000000000003000000000000000000000000000000000010fcfe8af8403a52400bf79e1bd0058f66b9cab583afe554aa1d82a3e794fffad5f0e19d385263b2dd9ef69d1154f10a000000000000000000000000000000000aba6a0b58b49f7c6c2802afd2a5ed1320bf062c7b93135f3c0ed7a1d7b1ee27b2b986cde732a60fa585ca6ab7cc154b000000000000000000000000000000000ca0d865f8c8ce0a476f7a6edb3ce4bd5e6c3a8d905d8fb5a10e66542f4325a9963c2f8d96f804f4d295f8993b5204df0000000000000000000000000000000005a966f6254f0ef4f93f082a97abe07db56f00c2ade047d2f0027edef6f00a0dfecaa24d50faa778fa29087302211f7e00000000000000000000000000000000121c51da366557c09af1bbd927521da88dfab3e2e9a95b6effb0a968795486f281f0c887e37f51837557b9e3808987130000000000000000000000000000000001a5524975400b1e88f3fff8dd34dadf5d75564cfc0026df31ee9c2c1d48b0f69a48e1e4a48cc4b7db61f023a79157800000000000000000000000000000000010fcfe8af8403a52400bf79e1bd0058f66b9cab583afe554aa1d82a3e794fffad5f0e19d385263b2dd9ef69d1154f10a000000000000000000000000000000000f46a7dee0cb471ddef3a50670a5bfc443b8455877f1ff602b21faff1eff07fc6bf27930ca2159f01479359548339560000000000000000000000000000000000ca0d865f8c8ce0a476f7a6edb3ce4bd5e6c3a8d905d8fb5a10e66542f4325a9963c2f8d96f804f4d295f8993b5204df0000000000000000000000000000000005a966f6254f0ef4f93f082a97abe07db56f00c2ade047d2f0027edef6f00a0dfecaa24d50faa778fa29087302211f7e00000000000000000000000000000000121c51da366557c09af1bbd927521da88dfab3e2e9a95b6effb0a968795486f281f0c887e37f51837557b9e3808987130000000000000000000000000000000001a5524975400b1e88f3fff8dd34dadf5d75564cfc0026df31ee9c2c1d48b0f69a48e1e4a48cc4b7db61f023a79157801ba0f4cb0fc3b3b79fa3dc2246e3babf334c985676b70294772ad856984de1de3a92a06e6de813a93c4fa927a2ec4d47c8ce9edf7318639354676eea1a8aaa6170a8c0c0c0",
                "transactions" : [
                    {
                        "data" : "0x12bd42990000000000000000000000000000000000000000000000000000000000000011000000000000000000000000000000000000000000000000000000000000004000000000000000000000000000000000000000000000000000000000000003000000000000000000000000000000000010fcfe8af8403a52400bf79e1bd0058f66b9cab583afe554aa1d82a3e794fffad5f0e19d385263b2dd9ef69d1154f10a000000000000000000000000000000000aba6a0b58b49f7c6c2802afd2a5ed1320bf062c7b93135f3c0ed7a1d7b1ee27b2b986cde732a60fa585ca6ab7cc154b000000000000000000000000000000000ca0d865f8c8ce0a476f7a6edb3ce4bd5e6c3a8d905d8fb5a10e66542f4325a9963c2f8d96f804f4d295f8993b5204df0000000000000000000000000000000005a966f6254f0ef4f93f082a97abe07db56f00c2ade047d2f0027edef6f00a0dfecaa24d50faa778fa29087302211f7e00000000000000000000000000000000121c51da366557c09af1bbd927521da88dfab3e2e9a95b6effb0a968795486f281f0c887e37f51837557b9e3808987130000000000000000000000000000000001a5524975400b1e88f3fff8dd34dadf5d75564cfc0026df31ee9c2c1d48b0f69a48e1e4a48cc4b7db61f023a79157800000000000000000000000000000000010fcfe8af8403a52400bf79e1bd0058f66b9cab583afe554aa1d82a3e794fffad5f0e19d385263b2dd9ef69d1154f10a000000000000000000000000000000000f46a7dee0cb471ddef3a50670a5bfc443b8455877f1ff602b21faff1eff07fc6bf27930ca2159f01479359548339560000000000000000000000000000000000ca0d865f8c8ce0a476f7a6edb3ce4bd5e6c3a8d905d8fb5a10e66542f4325a9963c2f8d96f804f4d295f8993b5204df0000000000000000000000000000000005a966f6254f0ef4f93f082a97abe07db56f00c2ade047d2f0027edef6f00a0dfecaa24d50faa778fa29087302211f7e00000000000000000000000000000000121c51da366557c09af1bbd927521da88dfab3e2e9a95b6effb0a968795486f281f0c887e37f51837557b9e3808987130000000000000000000000000000000001a5524975400b1e88f3fff8dd34dadf5d75564cfc0026df31ee9c2c1d48b0f69a48e1e4a48cc4b7db61f023a7915780",
                        "gasLimit" : "0x6acfc0",
                        "gasPrice" : "0x0a",
                        "nonce" : "0x00",
                        "r" : "0xf4cb0fc3b3b79fa3dc2246e3babf334c985676b70294772ad856984de1de3a92",
                        "s" : "0x6e6de813a93c4fa927a2ec4d47c8ce9edf7318639354676eea1a8aaa6170a8c0",
                        "sender" : "0xa94f5374fce5edbc8e2a8697c15331677e6ebf0b",
                        "to" : "0x095e7baea6a6c7c4c2dfeb977efac326af552d87",
                        "v" : "0x1b",
                        "value" : "0x03e8"
                    }
                ],
                "uncleHeaders" : [
                ],
                "withdrawals" : [
                ]
            }
        ],
        "genesisBlockHeader" : {
            "baseFeePerGas" : "0x0b",
            "blobGasUsed" : "0x00",
            "bloom" : "0x00000000000000000000000000000000000000000000000000000000000000000000000000000000000000000000000000000000000000000000000000000000000000000000000000000000000000000000000000000000000000000000000000000000000000000000000000000000000000000000000000000000000000000000000000000000000000000000000000000000000000000000000000000000000000000000000000000000000000000000000000000000000000000000000000000000000000000000000000000000000000000000000000000000000000000000000000000000000000000000000000000000000000000000000000000000",
            "coinbase" : "0x2adc25665018aa1fe0e6bc666dac8fc2697ff9ba",
            "difficulty" : "0x00",
            "excessBlobGas" : "0x060000",
            "extraData" : "0x00",
            "gasLimit" : "0xff112233445566",
            "gasUsed" : "0x00",
            "hash" : "0xc9cb4ed0dc693e89844b5a27d709ebd577e6a8380102855ef905d3d2d81ac0e5",
            "mixHash" : "0x0000000000000000000000000000000000000000000000000000000000020000",
            "nonce" : "0x0000000000000000",
            "number" : "0x00",
            "parentBeaconBlockRoot" : "0x0000000000000000000000000000000000000000000000000000000000000000",
            "parentHash" : "0x0000000000000000000000000000000000000000000000000000000000000000",
            "receiptTrie" : "0x56e81f171bcc55a6ff8345e692c0f86e5b48e01b996cadc001622fb5e363b421",
            "stateRoot" : "0x00059c610e858a345663eede1b974d037c154e4b4bb16a01ea2fd48a4d67bf65",
            "timestamp" : "0x00",
            "transactionsTrie" : "0x56e81f171bcc55a6ff8345e692c0f86e5b48e01b996cadc001622fb5e363b421",
            "uncleHash" : "0x1dcc4de8dec75d7aab85b567b6ccd41ad312451b948a7413f0a142fd40d49347",
            "withdrawalsRoot" : "0x56e81f171bcc55a6ff8345e692c0f86e5b48e01b996cadc001622fb5e363b421"
        },
        "genesisRLP" : "0xf90242f9023ca00000000000000000000000000000000000000000000000000000000000000000a01dcc4de8dec75d7aab85b567b6ccd41ad312451b948a7413f0a142fd40d49347942adc25665018aa1fe0e6bc666dac8fc2697ff9baa000059c610e858a345663eede1b974d037c154e4b4bb16a01ea2fd48a4d67bf65a056e81f171bcc55a6ff8345e692c0f86e5b48e01b996cadc001622fb5e363b421a056e81f171bcc55a6ff8345e692c0f86e5b48e01b996cadc001622fb5e363b421b9010000000000000000000000000000000000000000000000000000000000000000000000000000000000000000000000000000000000000000000000000000000000000000000000000000000000000000000000000000000000000000000000000000000000000000000000000000000000000000000000000000000000000000000000000000000000000000000000000000000000000000000000000000000000000000000000000000000000000000000000000000000000000000000000000000000000000000000000000000000000000000000000000000000000000000000000000000000000000000000000000000000000000000000000000000000000808087ff112233445566808000a000000000000000000000000000000000000000000000000000000000000200008800000000000000000ba056e81f171bcc55a6ff8345e692c0f86e5b48e01b996cadc001622fb5e363b4218083060000a00000000000000000000000000000000000000000000000000000000000000000c0c0c0",
        "lastblockhash" : "0x3e71fe948827d7f24a194c3e4dcbeb713c38ff3c75eae4ccf41156ac26554b13",
        "network" : "Prague",
        "postState" : {
            "0x000f3df6d732807ef1319fb7b8bb8522d0beac02" : {
                "balance" : "0x00",
                "code" : "0x3373fffffffffffffffffffffffffffffffffffffffe14604d57602036146024575f5ffd5b5f35801560495762001fff810690815414603c575f5ffd5b62001fff01545f5260205ff35b5f5ffd5b62001fff42064281555f359062001fff015500",
                "nonce" : "0x01",
                "storage" : {
                    "0x03e8" : "0x03e8"
                }
            },
            "0x095e7baea6a6c7c4c2dfeb977efac326af552d87" : {
                "balance" : "0x03e8",
                "code" : "0x60806040526004361061001e5760003560e01c806312bd429914610023575b600080fd5b6100fc6004803603604081101561003957600080fd5b81019080803573ffffffffffffffffffffffffffffffffffffffff1690602001909291908035906020019064010000000081111561007657600080fd5b82018360208201111561008857600080fd5b803590602001918460018302840111640100000000831117156100aa57600080fd5b91908080601f016020809104026020016040519081016040528093929190818152602001838380828437600081840152601f19601f820116905080830192505050505050509192919290505050610182565b604051808315151515815260200180602001828103825283818151815260200191508051906020019080838360005b8381101561014657808201518184015260208101905061012b565b50505050905090810190601f1680156101735780820380516001836020036101000a031916815260200191505b50935050505060405180910390f35b600060608373ffffffffffffffffffffffffffffffffffffffff16836040518082805190602001908083835b602083106101d157805182526020820191506020810190506020830392506101ae565b6001836020036101000a038019825116818451168082178552505050505050905001915050600060405180830381855afa9150503d8060008114610231576040519150601f19603f3d011682016040523d82523d6000602084013e610236565b606091505b508092508193505050600060405180807f6572726f72000000000000000000000000000000000000000000000000000000815250600501905060405180910390209050821561028a57818051906020012090505b8060025582829250925050925092905056fea2646970667358221220db58d80e8530eed625d9b4250a6055c2eb1d7c117a7ca267e6f8a059bdd2f39e64736f6c634300060a0033",
                "nonce" : "0x01",
                "storage" : {
                    "0x02" : "0xb10e2d527612073b26eecdfd717e6a320cf44b4afac2b0732d9fcbe2b7fa0cf6"
                }
            },
            "0xa94f5374fce5edbc8e2a8697c15331677e6ebf0b" : {
                "balance" : "0x0de0b6b3a7442fa0",
                "code" : "0x",
                "nonce" : "0x01",
                "storage" : {
                }
            }
        },
        "pre" : {
            "0x000f3df6d732807ef1319fb7b8bb8522d0beac02" : {
                "balance" : "0x00",
                "code" : "0x3373fffffffffffffffffffffffffffffffffffffffe14604d57602036146024575f5ffd5b5f35801560495762001fff810690815414603c575f5ffd5b62001fff01545f5260205ff35b5f5ffd5b62001fff42064281555f359062001fff015500",
                "nonce" : "0x01",
                "storage" : {
                }
            },
            "0x095e7baea6a6c7c4c2dfeb977efac326af552d87" : {
                "balance" : "0x00",
                "code" : "0x60806040526004361061001e5760003560e01c806312bd429914610023575b600080fd5b6100fc6004803603604081101561003957600080fd5b81019080803573ffffffffffffffffffffffffffffffffffffffff1690602001909291908035906020019064010000000081111561007657600080fd5b82018360208201111561008857600080fd5b803590602001918460018302840111640100000000831117156100aa57600080fd5b91908080601f016020809104026020016040519081016040528093929190818152602001838380828437600081840152601f19601f820116905080830192505050505050509192919290505050610182565b604051808315151515815260200180602001828103825283818151815260200191508051906020019080838360005b8381101561014657808201518184015260208101905061012b565b50505050905090810190601f1680156101735780820380516001836020036101000a031916815260200191505b50935050505060405180910390f35b600060608373ffffffffffffffffffffffffffffffffffffffff16836040518082805190602001908083835b602083106101d157805182526020820191506020810190506020830392506101ae565b6001836020036101000a038019825116818451168082178552505050505050905001915050600060405180830381855afa9150503d8060008114610231576040519150601f19603f3d011682016040523d82523d6000602084013e610236565b606091505b508092508193505050600060405180807f6572726f72000000000000000000000000000000000000000000000000000000815250600501905060405180910390209050821561028a57818051906020012090505b8060025582829250925050925092905056fea2646970667358221220db58d80e8530eed625d9b4250a6055c2eb1d7c117a7ca267e6f8a059bdd2f39e64736f6c634300060a0033",
                "nonce" : "0x01",
                "storage" : {
                }
            },
            "0xa94f5374fce5edbc8e2a8697c15331677e6ebf0b" : {
                "balance" : "0x0de0b6b3a7640000",
                "code" : "0x",
                "nonce" : "0x00",
                "storage" : {
                }
            }
        },
        "sealEngine" : "NoProof"
    }
}