{
    "pairing_86_d0g0v0_Prague" : {
        "_info" : {
            "comment" : "A test for pairing_86",
            "filling-rpc-server" : "evm version 1.14.0-unstable-a208e725-20240416",
            "filling-tool-version" : "retesteth-0.3.2-cancun+commit.353b2b37.Linux.g++",
            "generatedTestHash" : "664e7096e7f0cc32e5bd712eaadf5861dadfdb3bcbce2f85bf153b5fad87f3c4",
            "lllcversion" : "Version: 0.5.14-develop.2023.7.11+commit.c58ab2c6.mod.Linux.g++",
            "solidity" : "Version: 0.8.21+commit.d9974bed.Linux.g++",
            "source" : "src/EIPTestsFiller/StateTests/stEIP2537/pairing_86Filler.json",
            "sourceHash" : "47c673622724b25995c8d6919d14a1ee81fc97c5b5c5df280124888d1f1b38d3"
        },
        "blocks" : [
            {
                "blockHeader" : {
                    "baseFeePerGas" : "0x0a",
                    "blobGasUsed" : "0x00",
                    "bloom" : "0x00000000000000000000000000000000000000000000000000000000000000000000000000000000000000000000000000000000000000000000000000000000000000000000000000000000000000000000000000000000000000000000000000000000000000000000000000000000000000000000000000000000000000000000000000000000000000000000000000000000000000000000000000000000000000000000000000000000000000000000000000000000000000000000000000000000000000000000000000000000000000000000000000000000000000000000000000000000000000000000000000000000000000000000000000000000",
                    "coinbase" : "0x2adc25665018aa1fe0e6bc666dac8fc2697ff9ba",
                    "difficulty" : "0x00",
                    "excessBlobGas" : "0x00",
                    "extraData" : "0x00",
                    "gasLimit" : "0xff112233445566",
                    "gasUsed" : "0x07ae0b",
                    "hash" : "0x9257d2fcd3c7d069f20fb940ee48c9aa1bbee18821574fd7246ca3226bb73663",
                    "mixHash" : "0x0000000000000000000000000000000000000000000000000000000000020000",
                    "nonce" : "0x0000000000000000",
                    "number" : "0x01",
                    "parentBeaconBlockRoot" : "0x0000000000000000000000000000000000000000000000000000000000000000",
                    "parentHash" : "0xc9cb4ed0dc693e89844b5a27d709ebd577e6a8380102855ef905d3d2d81ac0e5",
                    "receiptTrie" : "0x7b79367ace5cec30a81cc7da5922165228c25633551e22978f35885535e644a0",
                    "stateRoot" : "0x671fde690eac21aff5d02ecf832c9684255b8b1c1dc7f8c250c8e173e4a8ff5d",
                    "timestamp" : "0x03e8",
                    "transactionsTrie" : "0xa8df8245b86a44a108151256a4996d994f749da8be5c4a2ae46cb6242776dc8e",
                    "uncleHash" : "0x1dcc4de8dec75d7aab85b567b6ccd41ad312451b948a7413f0a142fd40d49347",
                    "withdrawalsRoot" : "0x56e81f171bcc55a6ff8345e692c0f86e5b48e01b996cadc001622fb5e363b421"
                },
                "rlp" : "0xf90f11f9023ea0c9cb4ed0dc693e89844b5a27d709ebd577e6a8380102855ef905d3d2d81ac0e5a01dcc4de8dec75d7aab85b567b6ccd41ad312451b948a7413f0a142fd40d49347942adc25665018aa1fe0e6bc666dac8fc2697ff9baa0671fde690eac21aff5d02ecf832c9684255b8b1c1dc7f8c250c8e173e4a8ff5da0a8df8245b86a44a108151256a4996d994f749da8be5c4a2ae46cb6242776dc8ea07b79367ace5cec30a81cc7da5922165228c25633551e22978f35885535e644a0b9010000000000000000000000000000000000000000000000000000000000000000000000000000000000000000000000000000000000000000000000000000000000000000000000000000000000000000000000000000000000000000000000000000000000000000000000000000000000000000000000000000000000000000000000000000000000000000000000000000000000000000000000000000000000000000000000000000000000000000000000000000000000000000000000000000000000000000000000000000000000000000000000000000000000000000000000000000000000000000000000000000000000000000000000000000000000800187ff1122334455668307ae0b8203e800a000000000000000000000000000000000000000000000000000000000000200008800000000000000000aa056e81f171bcc55a6ff8345e692c0f86e5b48e01b996cadc001622fb5e363b4218080a00000000000000000000000000000000000000000000000000000000000000000f90ccbf90cc8800a836acfc094095e7baea6a6c7c4c2dfeb977efac326af552d878203e8b90c6412bd4299000000000000000000000000000000000000000000000000000000000000001100000000000000000000000000000000000000000000000000000000000000400000000000000000000000000000000000000000000000000000000000000c00000000000000000000000000000000000c60b948942652a8214d8776b77a6c559ca77eb3a537b0a9abadc3058eac8c1d7840f091acd6c0056d5a71468a2b1ceb0000000000000000000000000000000019049c394e547b9b714b5969adcf068b381def6af2b27d1d361d06e9576273a8febb5bf94b5061ccec7afdb5642c0ae8000000000000000000000000000000000a8679f08643ff1c4db54e58de15a4828fc80e3f9d80a932b26b49d5c13831b1dc5dc29af2e080eb08e71938e5010fc400000000000000000000000000000000110957f7e9f8e0806bb3d2a811b91c926feab046ef983495f3f768a6cc6e4a6d95bb92facb77d989e53ce5489aa64b3c0000000000000000000000000000000018a8b48aabc6c003a58593a40b55e54b122994f9ab58cc229d1a0e6a3670244cfe73854f07117dc77dd5c2c81314a17e00000000000000000000000000000000062f6a0a8b9dd56001f0f57f82bb7468d709fb8f33e6729369b015685995ef27abebff9dda55c38b0d9e88a1e0b9fc6c000000000000000000000000000000000c60b948942652a8214d8776b77a6c559ca77eb3a537b0a9abadc3058eac8c1d7840f091acd6c0056d5a71468a2b1ceb0000000000000000000000000000000000fc75b0eb2b6afed9d04e4c957ca64c2c595c1a00d295a23113cbb79f4e827b1ff0a40566039e32cd84024a9bd39fc3000000000000000000000000000000000a8679f08643ff1c4db54e58de15a4828fc80e3f9d80a932b26b49d5c13831b1dc5dc29af2e080eb08e71938e5010fc400000000000000000000000000000000110957f7e9f8e0806bb3d2a811b91c926feab046ef983495f3f768a6cc6e4a6d95bb92facb77d989e53ce5489aa64b3c0000000000000000000000000000000018a8b48aabc6c003a58593a40b55e54b122994f9ab58cc229d1a0e6a3670244cfe73854f07117dc77dd5c2c81314a17e00000000000000000000000000000000062f6a0a8b9dd56001f0f57f82bb7468d709fb8f33e6729369b015685995ef27abebff9dda55c38b0d9e88a1e0b9fc6c000000000000000000000000000000000c60b948942652a8214d8776b77a6c559ca77eb3a537b0a9abadc3058eac8c1d7840f091acd6c0056d5a71468a2b1ceb0000000000000000000000000000000019049c394e547b9b714b5969adcf068b381def6af2b27d1d361d06e9576273a8febb5bf94b5061ccec7afdb5642c0ae8000000000000000000000000000000000a8679f08643ff1c4db54e58de15a4828fc80e3f9d80a932b26b49d5c13831b1dc5dc29af2e080eb08e71938e5010fc400000000000000000000000000000000110957f7e9f8e0806bb3d2a811b91c926feab046ef983495f3f768a6cc6e4a6d95bb92facb77d989e53ce5489aa64b3c0000000000000000000000000000000001585d5f8db92696a596141237f5c78c524db68b482c469cca16c436c040d1d720387aafaa4282383c293d37eceb092d0000000000000000000000000000000013d1a7dfade2113a492ab236c090386e8d6d4ff5bf9ea02bfd80bd389d1b06fc72c00060d6fe3c74ac60775e1f45ae3f000000000000000000000000000000000c60b948942652a8214d8776b77a6c559ca77eb3a537b0a9abadc3058eac8c1d7840f091acd6c0056d5a71468a2b1ceb0000000000000000000000000000000000fc75b0eb2b6afed9d04e4c957ca64c2c595c1a00d295a23113cbb79f4e827b1ff0a40566039e32cd84024a9bd39fc3000000000000000000000000000000000a8679f08643ff1c4db54e58de15a4828fc80e3f9d80a932b26b49d5c13831b1dc5dc29af2e080eb08e71938e5010fc400000000000000000000000000000000110957f7e9f8e0806bb3d2a811b91c926feab046ef983495f3f768a6cc6e4a6d95bb92facb77d989e53ce5489aa64b3c0000000000000000000000000000000001585d5f8db92696a596141237f5c78c524db68b482c469cca16c436c040d1d720387aafaa4282383c293d37eceb092d0000000000000000000000000000000013d1a7dfade2113a492ab236c090386e8d6d4ff5bf9ea02bfd80bd389d1b06fc72c00060d6fe3c74ac60775e1f45ae3f000000000000000000000000000000000c60b948942652a8214d8776b77a6c559ca77eb3a537b0a9abadc3058eac8c1d7840f091acd6c0056d5a71468a2b1ceb0000000000000000000000000000000019049c394e547b9b714b5969adcf068b381def6af2b27d1d361d06e9576273a8febb5bf94b5061ccec7afdb5642c0ae8000000000000000000000000000000000a8679f08643ff1c4db54e58de15a4828fc80e3f9d80a932b26b49d5c13831b1dc5dc29af2e080eb08e71938e5010fc400000000000000000000000000000000110957f7e9f8e0806bb3d2a811b91c926feab046ef983495f3f768a6cc6e4a6d95bb92facb77d989e53ce5489aa64b3c0000000000000000000000000000000018a8b48aabc6c003a58593a40b55e54b122994f9ab58cc229d1a0e6a3670244cfe73854f07117dc77dd5c2c81314a17e00000000000000000000000000000000062f6a0a8b9dd56001f0f57f82bb7468d709fb8f33e6729369b015685995ef27abebff9dda55c38b0d9e88a1e0b9fc6c000000000000000000000000000000000c60b948942652a8214d8776b77a6c559ca77eb3a537b0a9abadc3058eac8c1d7840f091acd6c0056d5a71468a2b1ceb0000000000000000000000000000000000fc75b0eb2b6afed9d04e4c957ca64c2c595c1a00d295a23113cbb79f4e827b1ff0a40566039e32cd84024a9bd39fc3000000000000000000000000000000000a8679f08643ff1c4db54e58de15a4828fc80e3f9d80a932b26b49d5c13831b1dc5dc29af2e080eb08e71938e5010fc400000000000000000000000000000000110957f7e9f8e0806bb3d2a811b91c926feab046ef983495f3f768a6cc6e4a6d95bb92facb77d989e53ce5489aa64b3c0000000000000000000000000000000018a8b48aabc6c003a58593a40b55e54b122994f9ab58cc229d1a0e6a3670244cfe73854f07117dc77dd5c2c81314a17e00000000000000000000000000000000062f6a0a8b9dd56001f0f57f82bb7468d709fb8f33e6729369b015685995ef27abebff9dda55c38b0d9e88a1e0b9fc6c000000000000000000000000000000000c60b948942652a8214d8776b77a6c559ca77eb3a537b0a9abadc3058eac8c1d7840f091acd6c0056d5a71468a2b1ceb0000000000000000000000000000000019049c394e547b9b714b5969adcf068b381def6af2b27d1d361d06e9576273a8febb5bf94b5061ccec7afdb5642c0ae8000000000000000000000000000000000a8679f08643ff1c4db54e58de15a4828fc80e3f9d80a932b26b49d5c13831b1dc5dc29af2e080eb08e71938e5010fc400000000000000000000000000000000110957f7e9f8e0806bb3d2a811b91c926feab046ef983495f3f768a6cc6e4a6d95bb92facb77d989e53ce5489aa64b3c0000000000000000000000000000000001585d5f8db92696a596141237f5c78c524db68b482c469cca16c436c040d1d720387aafaa4282383c293d37eceb092d0000000000000000000000000000000013d1a7dfade2113a492ab236c090386e8d6d4ff5bf9ea02bfd80bd389d1b06fc72c00060d6fe3c74ac60775e1f45ae3f000000000000000000000000000000000c60b948942652a8214d8776b77a6c559ca77eb3a537b0a9abadc3058eac8c1d7840f091acd6c0056d5a71468a2b1ceb0000000000000000000000000000000000fc75b0eb2b6afed9d04e4c957ca64c2c595c1a00d295a23113cbb79f4e827b1ff0a40566039e32cd84024a9bd39fc3000000000000000000000000000000000a8679f08643ff1c4db54e58de15a4828fc80e3f9d80a932b26b49d5c13831b1dc5dc29af2e080eb08e71938e5010fc400000000000000000000000000000000110957f7e9f8e0806bb3d2a811b91c926feab046ef983495f3f768a6cc6e4a6d95bb92facb77d989e53ce5489aa64b3c0000000000000000000000000000000001585d5f8db92696a596141237f5c78c524db68b482c469cca16c436c040d1d720387aafaa4282383c293d37eceb092d0000000000000000000000000000000013d1a7dfade2113a492ab236c090386e8d6d4ff5bf9ea02bfd80bd389d1b06fc72c00060d6fe3c74ac60775e1f45ae3f1ba0d2ccf04c5825f8b22416921058afbbc0a458a343fbe5451347894839bfa94987a01b0783748f70b54e927568bbbc516cc2f4f4172eeb0e63dbd52fb624dc64682dc0c0",
                "transactions" : [
                    {
                        "data" : "0x12bd4299000000000000000000000000000000000000000000000000000000000000001100000000000000000000000000000000000000000000000000000000000000400000000000000000000000000000000000000000000000000000000000000c00000000000000000000000000000000000c60b948942652a8214d8776b77a6c559ca77eb3a537b0a9abadc3058eac8c1d7840f091acd6c0056d5a71468a2b1ceb0000000000000000000000000000000019049c394e547b9b714b5969adcf068b381def6af2b27d1d361d06e9576273a8febb5bf94b5061ccec7afdb5642c0ae8000000000000000000000000000000000a8679f08643ff1c4db54e58de15a4828fc80e3f9d80a932b26b49d5c13831b1dc5dc29af2e080eb08e71938e5010fc400000000000000000000000000000000110957f7e9f8e0806bb3d2a811b91c926feab046ef983495f3f768a6cc6e4a6d95bb92facb77d989e53ce5489aa64b3c0000000000000000000000000000000018a8b48aabc6c003a58593a40b55e54b122994f9ab58cc229d1a0e6a3670244cfe73854f07117dc77dd5c2c81314a17e00000000000000000000000000000000062f6a0a8b9dd56001f0f57f82bb7468d709fb8f33e6729369b015685995ef27abebff9dda55c38b0d9e88a1e0b9fc6c000000000000000000000000000000000c60b948942652a8214d8776b77a6c559ca77eb3a537b0a9abadc3058eac8c1d7840f091acd6c0056d5a71468a2b1ceb0000000000000000000000000000000000fc75b0eb2b6afed9d04e4c957ca64c2c595c1a00d295a23113cbb79f4e827b1ff0a40566039e32cd84024a9bd39fc3000000000000000000000000000000000a8679f08643ff1c4db54e58de15a4828fc80e3f9d80a932b26b49d5c13831b1dc5dc29af2e080eb08e71938e5010fc400000000000000000000000000000000110957f7e9f8e0806bb3d2a811b91c926feab046ef983495f3f768a6cc6e4a6d95bb92facb77d989e53ce5489aa64b3c0000000000000000000000000000000018a8b48aabc6c003a58593a40b55e54b122994f9ab58cc229d1a0e6a3670244cfe73854f07117dc77dd5c2c81314a17e00000000000000000000000000000000062f6a0a8b9dd56001f0f57f82bb7468d709fb8f33e6729369b015685995ef27abebff9dda55c38b0d9e88a1e0b9fc6c000000000000000000000000000000000c60b948942652a8214d8776b77a6c559ca77eb3a537b0a9abadc3058eac8c1d7840f091acd6c0056d5a71468a2b1ceb0000000000000000000000000000000019049c394e547b9b714b5969adcf068b381def6af2b27d1d361d06e9576273a8febb5bf94b5061ccec7afdb5642c0ae8000000000000000000000000000000000a8679f08643ff1c4db54e58de15a4828fc80e3f9d80a932b26b49d5c13831b1dc5dc29af2e080eb08e71938e5010fc400000000000000000000000000000000110957f7e9f8e0806bb3d2a811b91c926feab046ef983495f3f768a6cc6e4a6d95bb92facb77d989e53ce5489aa64b3c0000000000000000000000000000000001585d5f8db92696a596141237f5c78c524db68b482c469cca16c436c040d1d720387aafaa4282383c293d37eceb092d0000000000000000000000000000000013d1a7dfade2113a492ab236c090386e8d6d4ff5bf9ea02bfd80bd389d1b06fc72c00060d6fe3c74ac60775e1f45ae3f000000000000000000000000000000000c60b948942652a8214d8776b77a6c559ca77eb3a537b0a9abadc3058eac8c1d7840f091acd6c0056d5a71468a2b1ceb0000000000000000000000000000000000fc75b0eb2b6afed9d04e4c957ca64c2c595c1a00d295a23113cbb79f4e827b1ff0a40566039e32cd84024a9bd39fc3000000000000000000000000000000000a8679f08643ff1c4db54e58de15a4828fc80e3f9d80a932b26b49d5c13831b1dc5dc29af2e080eb08e71938e5010fc400000000000000000000000000000000110957f7e9f8e0806bb3d2a811b91c926feab046ef983495f3f768a6cc6e4a6d95bb92facb77d989e53ce5489aa64b3c0000000000000000000000000000000001585d5f8db92696a596141237f5c78c524db68b482c469cca16c436c040d1d720387aafaa4282383c293d37eceb092d0000000000000000000000000000000013d1a7dfade2113a492ab236c090386e8d6d4ff5bf9ea02bfd80bd389d1b06fc72c00060d6fe3c74ac60775e1f45ae3f000000000000000000000000000000000c60b948942652a8214d8776b77a6c559ca77eb3a537b0a9abadc3058eac8c1d7840f091acd6c0056d5a71468a2b1ceb0000000000000000000000000000000019049c394e547b9b714b5969adcf068b381def6af2b27d1d361d06e9576273a8febb5bf94b5061ccec7afdb5642c0ae8000000000000000000000000000000000a8679f08643ff1c4db54e58de15a4828fc80e3f9d80a932b26b49d5c13831b1dc5dc29af2e080eb08e71938e5010fc400000000000000000000000000000000110957f7e9f8e0806bb3d2a811b91c926feab046ef983495f3f768a6cc6e4a6d95bb92facb77d989e53ce5489aa64b3c0000000000000000000000000000000018a8b48aabc6c003a58593a40b55e54b122994f9ab58cc229d1a0e6a3670244cfe73854f07117dc77dd5c2c81314a17e00000000000000000000000000000000062f6a0a8b9dd56001f0f57f82bb7468d709fb8f33e6729369b015685995ef27abebff9dda55c38b0d9e88a1e0b9fc6c000000000000000000000000000000000c60b948942652a8214d8776b77a6c559ca77eb3a537b0a9abadc3058eac8c1d7840f091acd6c0056d5a71468a2b1ceb0000000000000000000000000000000000fc75b0eb2b6afed9d04e4c957ca64c2c595c1a00d295a23113cbb79f4e827b1ff0a40566039e32cd84024a9bd39fc3000000000000000000000000000000000a8679f08643ff1c4db54e58de15a4828fc80e3f9d80a932b26b49d5c13831b1dc5dc29af2e080eb08e71938e5010fc400000000000000000000000000000000110957f7e9f8e0806bb3d2a811b91c926feab046ef983495f3f768a6cc6e4a6d95bb92facb77d989e53ce5489aa64b3c0000000000000000000000000000000018a8b48aabc6c003a58593a40b55e54b122994f9ab58cc229d1a0e6a3670244cfe73854f07117dc77dd5c2c81314a17e00000000000000000000000000000000062f6a0a8b9dd56001f0f57f82bb7468d709fb8f33e6729369b015685995ef27abebff9dda55c38b0d9e88a1e0b9fc6c000000000000000000000000000000000c60b948942652a8214d8776b77a6c559ca77eb3a537b0a9abadc3058eac8c1d7840f091acd6c0056d5a71468a2b1ceb0000000000000000000000000000000019049c394e547b9b714b5969adcf068b381def6af2b27d1d361d06e9576273a8febb5bf94b5061ccec7afdb5642c0ae8000000000000000000000000000000000a8679f08643ff1c4db54e58de15a4828fc80e3f9d80a932b26b49d5c13831b1dc5dc29af2e080eb08e71938e5010fc400000000000000000000000000000000110957f7e9f8e0806bb3d2a811b91c926feab046ef983495f3f768a6cc6e4a6d95bb92facb77d989e53ce5489aa64b3c0000000000000000000000000000000001585d5f8db92696a596141237f5c78c524db68b482c469cca16c436c040d1d720387aafaa4282383c293d37eceb092d0000000000000000000000000000000013d1a7dfade2113a492ab236c090386e8d6d4ff5bf9ea02bfd80bd389d1b06fc72c00060d6fe3c74ac60775e1f45ae3f000000000000000000000000000000000c60b948942652a8214d8776b77a6c559ca77eb3a537b0a9abadc3058eac8c1d7840f091acd6c0056d5a71468a2b1ceb0000000000000000000000000000000000fc75b0eb2b6afed9d04e4c957ca64c2c595c1a00d295a23113cbb79f4e827b1ff0a40566039e32cd84024a9bd39fc3000000000000000000000000000000000a8679f08643ff1c4db54e58de15a4828fc80e3f9d80a932b26b49d5c13831b1dc5dc29af2e080eb08e71938e5010fc400000000000000000000000000000000110957f7e9f8e0806bb3d2a811b91c926feab046ef983495f3f768a6cc6e4a6d95bb92facb77d989e53ce5489aa64b3c0000000000000000000000000000000001585d5f8db92696a596141237f5c78c524db68b482c469cca16c436c040d1d720387aafaa4282383c293d37eceb092d0000000000000000000000000000000013d1a7dfade2113a492ab236c090386e8d6d4ff5bf9ea02bfd80bd389d1b06fc72c00060d6fe3c74ac60775e1f45ae3f",
                        "gasLimit" : "0x6acfc0",
                        "gasPrice" : "0x0a",
                        "nonce" : "0x00",
                        "r" : "0xd2ccf04c5825f8b22416921058afbbc0a458a343fbe5451347894839bfa94987",
                        "s" : "0x1b0783748f70b54e927568bbbc516cc2f4f4172eeb0e63dbd52fb624dc64682d",
                        "sender" : "0xa94f5374fce5edbc8e2a8697c15331677e6ebf0b",
                        "to" : "0x095e7baea6a6c7c4c2dfeb977efac326af552d87",
                        "v" : "0x1b",
                        "value" : "0x03e8"
                    }
                ],
                "uncleHeaders" : [
                ],
                "withdrawals" : [
                ]
            }
        ],
        "genesisBlockHeader" : {
            "baseFeePerGas" : "0x0b",
            "blobGasUsed" : "0x00",
            "bloom" : "0x00000000000000000000000000000000000000000000000000000000000000000000000000000000000000000000000000000000000000000000000000000000000000000000000000000000000000000000000000000000000000000000000000000000000000000000000000000000000000000000000000000000000000000000000000000000000000000000000000000000000000000000000000000000000000000000000000000000000000000000000000000000000000000000000000000000000000000000000000000000000000000000000000000000000000000000000000000000000000000000000000000000000000000000000000000000",
            "coinbase" : "0x2adc25665018aa1fe0e6bc666dac8fc2697ff9ba",
            "difficulty" : "0x00",
            "excessBlobGas" : "0x060000",
            "extraData" : "0x00",
            "gasLimit" : "0xff112233445566",
            "gasUsed" : "0x00",
            "hash" : "0xc9cb4ed0dc693e89844b5a27d709ebd577e6a8380102855ef905d3d2d81ac0e5",
            "mixHash" : "0x0000000000000000000000000000000000000000000000000000000000020000",
            "nonce" : "0x0000000000000000",
            "number" : "0x00",
            "parentBeaconBlockRoot" : "0x0000000000000000000000000000000000000000000000000000000000000000",
            "parentHash" : "0x0000000000000000000000000000000000000000000000000000000000000000",
            "receiptTrie" : "0x56e81f171bcc55a6ff8345e692c0f86e5b48e01b996cadc001622fb5e363b421",
            "stateRoot" : "0x00059c610e858a345663eede1b974d037c154e4b4bb16a01ea2fd48a4d67bf65",
            "timestamp" : "0x00",
            "transactionsTrie" : "0x56e81f171bcc55a6ff8345e692c0f86e5b48e01b996cadc001622fb5e363b421",
            "uncleHash" : "0x1dcc4de8dec75d7aab85b567b6ccd41ad312451b948a7413f0a142fd40d49347",
            "withdrawalsRoot" : "0x56e81f171bcc55a6ff8345e692c0f86e5b48e01b996cadc001622fb5e363b421"
        },
        "genesisRLP" : "0xf90242f9023ca00000000000000000000000000000000000000000000000000000000000000000a01dcc4de8dec75d7aab85b567b6ccd41ad312451b948a7413f0a142fd40d49347942adc25665018aa1fe0e6bc666dac8fc2697ff9baa000059c610e858a345663eede1b974d037c154e4b4bb16a01ea2fd48a4d67bf65a056e81f171bcc55a6ff8345e692c0f86e5b48e01b996cadc001622fb5e363b421a056e81f171bcc55a6ff8345e692c0f86e5b48e01b996cadc001622fb5e363b421b9010000000000000000000000000000000000000000000000000000000000000000000000000000000000000000000000000000000000000000000000000000000000000000000000000000000000000000000000000000000000000000000000000000000000000000000000000000000000000000000000000000000000000000000000000000000000000000000000000000000000000000000000000000000000000000000000000000000000000000000000000000000000000000000000000000000000000000000000000000000000000000000000000000000000000000000000000000000000000000000000000000000000000000000000000000000000808087ff112233445566808000a000000000000000000000000000000000000000000000000000000000000200008800000000000000000ba056e81f171bcc55a6ff8345e692c0f86e5b48e01b996cadc001622fb5e363b4218083060000a00000000000000000000000000000000000000000000000000000000000000000c0c0c0",
        "lastblockhash" : "0x9257d2fcd3c7d069f20fb940ee48c9aa1bbee18821574fd7246ca3226bb73663",
        "network" : "Prague",
        "postState" : {
            "0x000f3df6d732807ef1319fb7b8bb8522d0beac02" : {
                "balance" : "0x00",
                "code" : "0x3373fffffffffffffffffffffffffffffffffffffffe14604d57602036146024575f5ffd5b5f35801560495762001fff810690815414603c575f5ffd5b62001fff01545f5260205ff35b5f5ffd5b62001fff42064281555f359062001fff015500",
                "nonce" : "0x01",
                "storage" : {
                    "0x03e8" : "0x03e8"
                }
            },
            "0x095e7baea6a6c7c4c2dfeb977efac326af552d87" : {
                "balance" : "0x03e8",
                "code" : "0x60806040526004361061001e5760003560e01c806312bd429914610023575b600080fd5b6100fc6004803603604081101561003957600080fd5b81019080803573ffffffffffffffffffffffffffffffffffffffff1690602001909291908035906020019064010000000081111561007657600080fd5b82018360208201111561008857600080fd5b803590602001918460018302840111640100000000831117156100aa57600080fd5b91908080601f016020809104026020016040519081016040528093929190818152602001838380828437600081840152601f19601f820116905080830192505050505050509192919290505050610182565b604051808315151515815260200180602001828103825283818151815260200191508051906020019080838360005b8381101561014657808201518184015260208101905061012b565b50505050905090810190601f1680156101735780820380516001836020036101000a031916815260200191505b50935050505060405180910390f35b600060608373ffffffffffffffffffffffffffffffffffffffff16836040518082805190602001908083835b602083106101d157805182526020820191506020810190506020830392506101ae565b6001836020036101000a038019825116818451168082178552505050505050905001915050600060405180830381855afa9150503d8060008114610231576040519150601f19603f3d011682016040523d82523d6000602084013e610236565b606091505b508092508193505050600060405180807f6572726f72000000000000000000000000000000000000000000000000000000815250600501905060405180910390209050821561028a57818051906020012090505b8060025582829250925050925092905056fea2646970667358221220db58d80e8530eed625d9b4250a6055c2eb1d7c117a7ca267e6f8a059bdd2f39e64736f6c634300060a0033",
                "nonce" : "0x01",
                "storage" : {
                    "0x02" : "0xb10e2d527612073b26eecdfd717e6a320cf44b4afac2b0732d9fcbe2b7fa0cf6"
                }
            },
            "0xa94f5374fce5edbc8e2a8697c15331677e6ebf0b" : {
                "balance" : "0x0de0b6b3a7172faa",
                "code" : "0x",
                "nonce" : "0x01",
                "storage" : {
                }
            }
        },
        "pre" : {
            "0x000f3df6d732807ef1319fb7b8bb8522d0beac02" : {
                "balance" : "0x00",
                "code" : "0x3373fffffffffffffffffffffffffffffffffffffffe14604d57602036146024575f5ffd5b5f35801560495762001fff810690815414603c575f5ffd5b62001fff01545f5260205ff35b5f5ffd5b62001fff42064281555f359062001fff015500",
                "nonce" : "0x01",
                "storage" : {
                }
            },
            "0x095e7baea6a6c7c4c2dfeb977efac326af552d87" : {
                "balance" : "0x00",
                "code" : "0x60806040526004361061001e5760003560e01c806312bd429914610023575b600080fd5b6100fc6004803603604081101561003957600080fd5b81019080803573ffffffffffffffffffffffffffffffffffffffff1690602001909291908035906020019064010000000081111561007657600080fd5b82018360208201111561008857600080fd5b803590602001918460018302840111640100000000831117156100aa57600080fd5b91908080601f016020809104026020016040519081016040528093929190818152602001838380828437600081840152601f19601f820116905080830192505050505050509192919290505050610182565b604051808315151515815260200180602001828103825283818151815260200191508051906020019080838360005b8381101561014657808201518184015260208101905061012b565b50505050905090810190601f1680156101735780820380516001836020036101000a031916815260200191505b50935050505060405180910390f35b600060608373ffffffffffffffffffffffffffffffffffffffff16836040518082805190602001908083835b602083106101d157805182526020820191506020810190506020830392506101ae565b6001836020036101000a038019825116818451168082178552505050505050905001915050600060405180830381855afa9150503d8060008114610231576040519150601f19603f3d011682016040523d82523d6000602084013e610236565b606091505b508092508193505050600060405180807f6572726f72000000000000000000000000000000000000000000000000000000815250600501905060405180910390209050821561028a57818051906020012090505b8060025582829250925050925092905056fea2646970667358221220db58d80e8530eed625d9b4250a6055c2eb1d7c117a7ca267e6f8a059bdd2f39e64736f6c634300060a0033",
                "nonce" : "0x01",
                "storage" : {
                }
            },
            "0xa94f5374fce5edbc8e2a8697c15331677e6ebf0b" : {
                "balance" : "0x0de0b6b3a7640000",
                "code" : "0x",
                "nonce" : "0x00",
                "storage" : {
                }
            }
        },
        "sealEngine" : "NoProof"
    }
}