{
    "pairing_33_d0g0v0_Prague" : {
        "_info" : {
            "comment" : "A test for pairing_33",
            "filling-rpc-server" : "evm version 1.14.0-unstable-a208e725-20240416",
            "filling-tool-version" : "retesteth-0.3.2-cancun+commit.353b2b37.Linux.g++",
            "generatedTestHash" : "70bd7a306bb62febb39f1f205814835b14ff29fd3b9c5d8809062f4e5c341dcc",
            "lllcversion" : "Version: 0.5.14-develop.2023.7.11+commit.c58ab2c6.mod.Linux.g++",
            "solidity" : "Version: 0.8.21+commit.d9974bed.Linux.g++",
            "source" : "src/EIPTestsFiller/StateTests/stEIP2537/pairing_33Filler.json",
            "sourceHash" : "073ccbf834a964178826dcbe829326d7d4a74a5db856328927f9e367df3f836e"
        },
        "blocks" : [
            {
                "blockHeader" : {
                    "baseFeePerGas" : "0x0a",
                    "blobGasUsed" : "0x00",
                    "bloom" : "0x00000000000000000000000000000000000000000000000000000000000000000000000000000000000000000000000000000000000000000000000000000000000000000000000000000000000000000000000000000000000000000000000000000000000000000000000000000000000000000000000000000000000000000000000000000000000000000000000000000000000000000000000000000000000000000000000000000000000000000000000000000000000000000000000000000000000000000000000000000000000000000000000000000000000000000000000000000000000000000000000000000000000000000000000000000000",
                    "coinbase" : "0x2adc25665018aa1fe0e6bc666dac8fc2697ff9ba",
                    "difficulty" : "0x00",
                    "excessBlobGas" : "0x00",
                    "extraData" : "0x00",
                    "gasLimit" : "0xff112233445566",
                    "gasUsed" : "0x03ee46",
                    "hash" : "0x272fe90122b959dbebcee0b41ab62b325c7217af3f0d307dffeed977fa88b682",
                    "mixHash" : "0x0000000000000000000000000000000000000000000000000000000000020000",
                    "nonce" : "0x0000000000000000",
                    "number" : "0x01",
                    "parentBeaconBlockRoot" : "0x0000000000000000000000000000000000000000000000000000000000000000",
                    "parentHash" : "0xc9cb4ed0dc693e89844b5a27d709ebd577e6a8380102855ef905d3d2d81ac0e5",
                    "receiptTrie" : "0x301f16b32352c727a360e4594e87b2e929598b7fcdefc956247ec2ca57d64913",
                    "stateRoot" : "0x598cd654c226415aebf07189d2e2c8f5bd8208c402b334529f56feffebc68355",
                    "timestamp" : "0x03e8",
                    "transactionsTrie" : "0x9fd43fdbd10273d90d044ed7883c8ecce4dbab1bef5f1bf605cd960ad6ca6b03",
                    "uncleHash" : "0x1dcc4de8dec75d7aab85b567b6ccd41ad312451b948a7413f0a142fd40d49347",
                    "withdrawalsRoot" : "0x56e81f171bcc55a6ff8345e692c0f86e5b48e01b996cadc001622fb5e363b421"
                },
                "rlp" : "0xf90791f9023ea0c9cb4ed0dc693e89844b5a27d709ebd577e6a8380102855ef905d3d2d81ac0e5a01dcc4de8dec75d7aab85b567b6ccd41ad312451b948a7413f0a142fd40d49347942adc25665018aa1fe0e6bc666dac8fc2697ff9baa0598cd654c226415aebf07189d2e2c8f5bd8208c402b334529f56feffebc68355a09fd43fdbd10273d90d044ed7883c8ecce4dbab1bef5f1bf605cd960ad6ca6b03a0301f16b32352c727a360e4594e87b2e929598b7fcdefc956247ec2ca57d64913b9010000000000000000000000000000000000000000000000000000000000000000000000000000000000000000000000000000000000000000000000000000000000000000000000000000000000000000000000000000000000000000000000000000000000000000000000000000000000000000000000000000000000000000000000000000000000000000000000000000000000000000000000000000000000000000000000000000000000000000000000000000000000000000000000000000000000000000000000000000000000000000000000000000000000000000000000000000000000000000000000000000000000000000000000000000000000800187ff1122334455668303ee468203e800a000000000000000000000000000000000000000000000000000000000000200008800000000000000000aa056e81f171bcc55a6ff8345e692c0f86e5b48e01b996cadc001622fb5e363b4218080a00000000000000000000000000000000000000000000000000000000000000000f9054bf90548800a836acfc094095e7baea6a6c7c4c2dfeb977efac326af552d878203e8b904e412bd42990000000000000000000000000000000000000000000000000000000000000011000000000000000000000000000000000000000000000000000000000000004000000000000000000000000000000000000000000000000000000000000004800000000000000000000000000000000003299542a0c40efbb55d169a92ad11b4d6d7a6ed949cb0d6477803fbedcf74e4bd74de854c4c8b7f200c85c8129292540000000000000000000000000000000013a3d49e58274c2b4a534b95b7071b6d2f42b17b887bf128627c0f8894c19d3d69c1a419373ca4bd1bb6d4efc78e1d3f000000000000000000000000000000001755d8a095e087ca66f8a118e0d2c7d5e4d8427dda8fe3049080f4aff12a8746f8c2679c310f4be0d94c5bef0414a7a600000000000000000000000000000000069c84c6419ed5c0441975ee8410065a56c65f07a4b545ff596b657dc4620c7405fd4d092b281e272773d2281a6359a8000000000000000000000000000000000e751ccbd475fe7eda1c62df626c1d37e8ae6853cc9b2109beef3e8c6f26d41a5e4e0a91bbc3371c7ab6ba780b5db41600000000000000000000000000000000184097644c9b44d543ebc0934825610590cc9f8b17ed08e9c06592bf85591d2702b18cf48a70b378926057e541eb8ac50000000000000000000000000000000003299542a0c40efbb55d169a92ad11b4d6d7a6ed949cb0d6477803fbedcf74e4bd74de854c4c8b7f200c85c81292925400000000000000000000000000000000065d3d4be1589a6f00c85c208c44916a35349a096b09219704b4c31861ef58e6b4ea5be57a175b429e482b1038718d6c000000000000000000000000000000001755d8a095e087ca66f8a118e0d2c7d5e4d8427dda8fe3049080f4aff12a8746f8c2679c310f4be0d94c5bef0414a7a600000000000000000000000000000000069c84c6419ed5c0441975ee8410065a56c65f07a4b545ff596b657dc4620c7405fd4d092b281e272773d2281a6359a8000000000000000000000000000000000e751ccbd475fe7eda1c62df626c1d37e8ae6853cc9b2109beef3e8c6f26d41a5e4e0a91bbc3371c7ab6ba780b5db41600000000000000000000000000000000184097644c9b44d543ebc0934825610590cc9f8b17ed08e9c06592bf85591d2702b18cf48a70b378926057e541eb8ac50000000000000000000000000000000003299542a0c40efbb55d169a92ad11b4d6d7a6ed949cb0d6477803fbedcf74e4bd74de854c4c8b7f200c85c8129292540000000000000000000000000000000013a3d49e58274c2b4a534b95b7071b6d2f42b17b887bf128627c0f8894c19d3d69c1a419373ca4bd1bb6d4efc78e1d3f000000000000000000000000000000001755d8a095e087ca66f8a118e0d2c7d5e4d8427dda8fe3049080f4aff12a8746f8c2679c310f4be0d94c5bef0414a7a600000000000000000000000000000000069c84c6419ed5c0441975ee8410065a56c65f07a4b545ff596b657dc4620c7405fd4d092b281e272773d2281a6359a8000000000000000000000000000000000b8bf51e6509e81b70ff44d6e0df8f9f7bc8e33126e9f1b5a8419414878a2209c05df56cf590c8e33f484587f4a1f6950000000000000000000000000000000001c07a85ece4a1c5072fe722fb264bd1d3aaabf9db9809d5a6cb3fe17157d8fd1bfa730a26e34c87279ea81abe141fe61ba0ec197f44342a603e495a8c0b57c273e8d42b9cdb3d018c687cc6908c87ea0b7ba05d6091ea8cea269a86d8ad802f0441bd8be38fda8a33fa89cf40fd49287a16e3c0c0",
                "transactions" : [
                    {
                        "data" : "0x12bd42990000000000000000000000000000000000000000000000000000000000000011000000000000000000000000000000000000000000000000000000000000004000000000000000000000000000000000000000000000000000000000000004800000000000000000000000000000000003299542a0c40efbb55d169a92ad11b4d6d7a6ed949cb0d6477803fbedcf74e4bd74de854c4c8b7f200c85c8129292540000000000000000000000000000000013a3d49e58274c2b4a534b95b7071b6d2f42b17b887bf128627c0f8894c19d3d69c1a419373ca4bd1bb6d4efc78e1d3f000000000000000000000000000000001755d8a095e087ca66f8a118e0d2c7d5e4d8427dda8fe3049080f4aff12a8746f8c2679c310f4be0d94c5bef0414a7a600000000000000000000000000000000069c84c6419ed5c0441975ee8410065a56c65f07a4b545ff596b657dc4620c7405fd4d092b281e272773d2281a6359a8000000000000000000000000000000000e751ccbd475fe7eda1c62df626c1d37e8ae6853cc9b2109beef3e8c6f26d41a5e4e0a91bbc3371c7ab6ba780b5db41600000000000000000000000000000000184097644c9b44d543ebc0934825610590cc9f8b17ed08e9c06592bf85591d2702b18cf48a70b378926057e541eb8ac50000000000000000000000000000000003299542a0c40efbb55d169a92ad11b4d6d7a6ed949cb0d6477803fbedcf74e4bd74de854c4c8b7f200c85c81292925400000000000000000000000000000000065d3d4be1589a6f00c85c208c44916a35349a096b09219704b4c31861ef58e6b4ea5be57a175b429e482b1038718d6c000000000000000000000000000000001755d8a095e087ca66f8a118e0d2c7d5e4d8427dda8fe3049080f4aff12a8746f8c2679c310f4be0d94c5bef0414a7a600000000000000000000000000000000069c84c6419ed5c0441975ee8410065a56c65f07a4b545ff596b657dc4620c7405fd4d092b281e272773d2281a6359a8000000000000000000000000000000000e751ccbd475fe7eda1c62df626c1d37e8ae6853cc9b2109beef3e8c6f26d41a5e4e0a91bbc3371c7ab6ba780b5db41600000000000000000000000000000000184097644c9b44d543ebc0934825610590cc9f8b17ed08e9c06592bf85591d2702b18cf48a70b378926057e541eb8ac50000000000000000000000000000000003299542a0c40efbb55d169a92ad11b4d6d7a6ed949cb0d6477803fbedcf74e4bd74de854c4c8b7f200c85c8129292540000000000000000000000000000000013a3d49e58274c2b4a534b95b7071b6d2f42b17b887bf128627c0f8894c19d3d69c1a419373ca4bd1bb6d4efc78e1d3f000000000000000000000000000000001755d8a095e087ca66f8a118e0d2c7d5e4d8427dda8fe3049080f4aff12a8746f8c2679c310f4be0d94c5bef0414a7a600000000000000000000000000000000069c84c6419ed5c0441975ee8410065a56c65f07a4b545ff596b657dc4620c7405fd4d092b281e272773d2281a6359a8000000000000000000000000000000000b8bf51e6509e81b70ff44d6e0df8f9f7bc8e33126e9f1b5a8419414878a2209c05df56cf590c8e33f484587f4a1f6950000000000000000000000000000000001c07a85ece4a1c5072fe722fb264bd1d3aaabf9db9809d5a6cb3fe17157d8fd1bfa730a26e34c87279ea81abe141fe6",
                        "gasLimit" : "0x6acfc0",
                        "gasPrice" : "0x0a",
                        "nonce" : "0x00",
                        "r" : "0xec197f44342a603e495a8c0b57c273e8d42b9cdb3d018c687cc6908c87ea0b7b",
                        "s" : "0x5d6091ea8cea269a86d8ad802f0441bd8be38fda8a33fa89cf40fd49287a16e3",
                        "sender" : "0xa94f5374fce5edbc8e2a8697c15331677e6ebf0b",
                        "to" : "0x095e7baea6a6c7c4c2dfeb977efac326af552d87",
                        "v" : "0x1b",
                        "value" : "0x03e8"
                    }
                ],
                "uncleHeaders" : [
                ],
                "withdrawals" : [
                ]
            }
        ],
        "genesisBlockHeader" : {
            "baseFeePerGas" : "0x0b",
            "blobGasUsed" : "0x00",
            "bloom" : "0x00000000000000000000000000000000000000000000000000000000000000000000000000000000000000000000000000000000000000000000000000000000000000000000000000000000000000000000000000000000000000000000000000000000000000000000000000000000000000000000000000000000000000000000000000000000000000000000000000000000000000000000000000000000000000000000000000000000000000000000000000000000000000000000000000000000000000000000000000000000000000000000000000000000000000000000000000000000000000000000000000000000000000000000000000000000",
            "coinbase" : "0x2adc25665018aa1fe0e6bc666dac8fc2697ff9ba",
            "difficulty" : "0x00",
            "excessBlobGas" : "0x060000",
            "extraData" : "0x00",
            "gasLimit" : "0xff112233445566",
            "gasUsed" : "0x00",
            "hash" : "0xc9cb4ed0dc693e89844b5a27d709ebd577e6a8380102855ef905d3d2d81ac0e5",
            "mixHash" : "0x0000000000000000000000000000000000000000000000000000000000020000",
            "nonce" : "0x0000000000000000",
            "number" : "0x00",
            "parentBeaconBlockRoot" : "0x0000000000000000000000000000000000000000000000000000000000000000",
            "parentHash" : "0x0000000000000000000000000000000000000000000000000000000000000000",
            "receiptTrie" : "0x56e81f171bcc55a6ff8345e692c0f86e5b48e01b996cadc001622fb5e363b421",
            "stateRoot" : "0x00059c610e858a345663eede1b974d037c154e4b4bb16a01ea2fd48a4d67bf65",
            "timestamp" : "0x00",
            "transactionsTrie" : "0x56e81f171bcc55a6ff8345e692c0f86e5b48e01b996cadc001622fb5e363b421",
            "uncleHash" : "0x1dcc4de8dec75d7aab85b567b6ccd41ad312451b948a7413f0a142fd40d49347",
            "withdrawalsRoot" : "0x56e81f171bcc55a6ff8345e692c0f86e5b48e01b996cadc001622fb5e363b421"
        },
        "genesisRLP" : "0xf90242f9023ca00000000000000000000000000000000000000000000000000000000000000000a01dcc4de8dec75d7aab85b567b6ccd41ad312451b948a7413f0a142fd40d49347942adc25665018aa1fe0e6bc666dac8fc2697ff9baa000059c610e858a345663eede1b974d037c154e4b4bb16a01ea2fd48a4d67bf65a056e81f171bcc55a6ff8345e692c0f86e5b48e01b996cadc001622fb5e363b421a056e81f171bcc55a6ff8345e692c0f86e5b48e01b996cadc001622fb5e363b421b9010000000000000000000000000000000000000000000000000000000000000000000000000000000000000000000000000000000000000000000000000000000000000000000000000000000000000000000000000000000000000000000000000000000000000000000000000000000000000000000000000000000000000000000000000000000000000000000000000000000000000000000000000000000000000000000000000000000000000000000000000000000000000000000000000000000000000000000000000000000000000000000000000000000000000000000000000000000000000000000000000000000000000000000000000000000000808087ff112233445566808000a000000000000000000000000000000000000000000000000000000000000200008800000000000000000ba056e81f171bcc55a6ff8345e692c0f86e5b48e01b996cadc001622fb5e363b4218083060000a00000000000000000000000000000000000000000000000000000000000000000c0c0c0",
        "lastblockhash" : "0x272fe90122b959dbebcee0b41ab62b325c7217af3f0d307dffeed977fa88b682",
        "network" : "Prague",
        "postState" : {
            "0x000f3df6d732807ef1319fb7b8bb8522d0beac02" : {
                "balance" : "0x00",
                "code" : "0x3373fffffffffffffffffffffffffffffffffffffffe14604d57602036146024575f5ffd5b5f35801560495762001fff810690815414603c575f5ffd5b62001fff01545f5260205ff35b5f5ffd5b62001fff42064281555f359062001fff015500",
                "nonce" : "0x01",
                "storage" : {
                    "0x03e8" : "0x03e8"
                }
            },
            "0x095e7baea6a6c7c4c2dfeb977efac326af552d87" : {
                "balance" : "0x03e8",
                "code" : "0x60806040526004361061001e5760003560e01c806312bd429914610023575b600080fd5b6100fc6004803603604081101561003957600080fd5b81019080803573ffffffffffffffffffffffffffffffffffffffff1690602001909291908035906020019064010000000081111561007657600080fd5b82018360208201111561008857600080fd5b803590602001918460018302840111640100000000831117156100aa57600080fd5b91908080601f016020809104026020016040519081016040528093929190818152602001838380828437600081840152601f19601f820116905080830192505050505050509192919290505050610182565b604051808315151515815260200180602001828103825283818151815260200191508051906020019080838360005b8381101561014657808201518184015260208101905061012b565b50505050905090810190601f1680156101735780820380516001836020036101000a031916815260200191505b50935050505060405180910390f35b600060608373ffffffffffffffffffffffffffffffffffffffff16836040518082805190602001908083835b602083106101d157805182526020820191506020810190506020830392506101ae565b6001836020036101000a038019825116818451168082178552505050505050905001915050600060405180830381855afa9150503d8060008114610231576040519150601f19603f3d011682016040523d82523d6000602084013e610236565b606091505b508092508193505050600060405180807f6572726f72000000000000000000000000000000000000000000000000000000815250600501905060405180910390209050821561028a57818051906020012090505b8060025582829250925050925092905056fea2646970667358221220db58d80e8530eed625d9b4250a6055c2eb1d7c117a7ca267e6f8a059bdd2f39e64736f6c634300060a0033",
                "nonce" : "0x01",
                "storage" : {
                    "0x02" : "0x290decd9548b62a8d60345a988386fc84ba6bc95484008f6362f93160ef3e563"
                }
            },
            "0xa94f5374fce5edbc8e2a8697c15331677e6ebf0b" : {
                "balance" : "0x0de0b6b3a73cad5c",
                "code" : "0x",
                "nonce" : "0x01",
                "storage" : {
                }
            }
        },
        "pre" : {
            "0x000f3df6d732807ef1319fb7b8bb8522d0beac02" : {
                "balance" : "0x00",
                "code" : "0x3373fffffffffffffffffffffffffffffffffffffffe14604d57602036146024575f5ffd5b5f35801560495762001fff810690815414603c575f5ffd5b62001fff01545f5260205ff35b5f5ffd5b62001fff42064281555f359062001fff015500",
                "nonce" : "0x01",
                "storage" : {
                }
            },
            "0x095e7baea6a6c7c4c2dfeb977efac326af552d87" : {
                "balance" : "0x00",
                "code" : "0x60806040526004361061001e5760003560e01c806312bd429914610023575b600080fd5b6100fc6004803603604081101561003957600080fd5b81019080803573ffffffffffffffffffffffffffffffffffffffff1690602001909291908035906020019064010000000081111561007657600080fd5b82018360208201111561008857600080fd5b803590602001918460018302840111640100000000831117156100aa57600080fd5b91908080601f016020809104026020016040519081016040528093929190818152602001838380828437600081840152601f19601f820116905080830192505050505050509192919290505050610182565b604051808315151515815260200180602001828103825283818151815260200191508051906020019080838360005b8381101561014657808201518184015260208101905061012b565b50505050905090810190601f1680156101735780820380516001836020036101000a031916815260200191505b50935050505060405180910390f35b600060608373ffffffffffffffffffffffffffffffffffffffff16836040518082805190602001908083835b602083106101d157805182526020820191506020810190506020830392506101ae565b6001836020036101000a038019825116818451168082178552505050505050905001915050600060405180830381855afa9150503d8060008114610231576040519150601f19603f3d011682016040523d82523d6000602084013e610236565b606091505b508092508193505050600060405180807f6572726f72000000000000000000000000000000000000000000000000000000815250600501905060405180910390209050821561028a57818051906020012090505b8060025582829250925050925092905056fea2646970667358221220db58d80e8530eed625d9b4250a6055c2eb1d7c117a7ca267e6f8a059bdd2f39e64736f6c634300060a0033",
                "nonce" : "0x01",
                "storage" : {
                }
            },
            "0xa94f5374fce5edbc8e2a8697c15331677e6ebf0b" : {
                "balance" : "0x0de0b6b3a7640000",
                "code" : "0x",
                "nonce" : "0x00",
                "storage" : {
                }
            }
        },
        "sealEngine" : "NoProof"
    }
}