{
    "pairing_45_d0g0v0_Berlin" : {
        "_info" : {
            "comment" : "A test for pairing_45",
            "filling-rpc-server" : "evm version 1.9.23-unstable-0efc69a9-20201022",
            "filling-tool-version" : "retesteth-0.0.9-berlin+commit.2f30f0ea.Linux.g++",
            "lllcversion" : "Version: 0.5.14-develop.2020.6.22+commit.9189ad7a.Linux.g++",
            "source" : "src/GeneralStateTestsFiller/stEIP2537/pairing_45Filler.json",
            "sourceHash" : "2cd6e07f53f4daaa08b604802cf39a7c03bcb069b391d361e13e16210e0cce21"
        },
        "genesisBlockHeader" : {
            "bloom" : "0x00000000000000000000000000000000000000000000000000000000000000000000000000000000000000000000000000000000000000000000000000000000000000000000000000000000000000000000000000000000000000000000000000000000000000000000000000000000000000000000000000000000000000000000000000000000000000000000000000000000000000000000000000000000000000000000000000000000000000000000000000000000000000000000000000000000000000000000000000000000000000000000000000000000000000000000000000000000000000000000000000000000000000000000000000000000",
            "coinbase" : "0x2adc25665018aa1fe0e6bc666dac8fc2697ff9ba",
            "difficulty" : "0x020000",
            "extraData" : "0x00",
            "gasLimit" : "0xff112233445566",
            "gasUsed" : "0x00",
            "hash" : "0xf227282805f439ca053613f53f119422bda960eea236c4b013eca3b95c6be464",
            "mixHash" : "0x0000000000000000000000000000000000000000000000000000000000000000",
            "nonce" : "0x0000000000000000",
            "number" : "0x00",
            "parentHash" : "0x0000000000000000000000000000000000000000000000000000000000000000",
            "receiptTrie" : "0x56e81f171bcc55a6ff8345e692c0f86e5b48e01b996cadc001622fb5e363b421",
            "stateRoot" : "0xbf61e00e2f1fbb3ea831c4ff3bbeff62f2737e7f0d88945ba62e0722eab6cd68",
            "timestamp" : "0x00",
            "transactionsTrie" : "0x56e81f171bcc55a6ff8345e692c0f86e5b48e01b996cadc001622fb5e363b421",
            "uncleHash" : "0x1dcc4de8dec75d7aab85b567b6ccd41ad312451b948a7413f0a142fd40d49347"
        },
        "pre" : {
            "0x095e7baea6a6c7c4c2dfeb977efac326af552d87" : {
                "balance" : "0x00",
                "code" : "0x60806040526004361061001e5760003560e01c806312bd429914610023575b600080fd5b6100fc6004803603604081101561003957600080fd5b81019080803573ffffffffffffffffffffffffffffffffffffffff1690602001909291908035906020019064010000000081111561007657600080fd5b82018360208201111561008857600080fd5b803590602001918460018302840111640100000000831117156100aa57600080fd5b91908080601f016020809104026020016040519081016040528093929190818152602001838380828437600081840152601f19601f820116905080830192505050505050509192919290505050610182565b604051808315151515815260200180602001828103825283818151815260200191508051906020019080838360005b8381101561014657808201518184015260208101905061012b565b50505050905090810190601f1680156101735780820380516001836020036101000a031916815260200191505b50935050505060405180910390f35b600060608373ffffffffffffffffffffffffffffffffffffffff16836040518082805190602001908083835b602083106101d157805182526020820191506020810190506020830392506101ae565b6001836020036101000a038019825116818451168082178552505050505050905001915050600060405180830381855afa9150503d8060008114610231576040519150601f19603f3d011682016040523d82523d6000602084013e610236565b606091505b508092508193505050600060405180807f6572726f72000000000000000000000000000000000000000000000000000000815250600501905060405180910390209050821561028a57818051906020012090505b8060025582829250925050925092905056fea2646970667358221220db58d80e8530eed625d9b4250a6055c2eb1d7c117a7ca267e6f8a059bdd2f39e64736f6c634300060a0033",
                "nonce" : "0x01",
                "storage" : {
                }
            },
            "0xa94f5374fce5edbc8e2a8697c15331677e6ebf0b" : {
                "balance" : "0x0de0b6b3a7640000",
                "code" : "0x",
                "nonce" : "0x00",
                "storage" : {
                }
            }
        },
        "postState" : {
            "0x095e7baea6a6c7c4c2dfeb977efac326af552d87" : {
                "code" : "0x60806040526004361061001e5760003560e01c806312bd429914610023575b600080fd5b6100fc6004803603604081101561003957600080fd5b81019080803573ffffffffffffffffffffffffffffffffffffffff1690602001909291908035906020019064010000000081111561007657600080fd5b82018360208201111561008857600080fd5b803590602001918460018302840111640100000000831117156100aa57600080fd5b91908080601f016020809104026020016040519081016040528093929190818152602001838380828437600081840152601f19601f820116905080830192505050505050509192919290505050610182565b604051808315151515815260200180602001828103825283818151815260200191508051906020019080838360005b8381101561014657808201518184015260208101905061012b565b50505050905090810190601f1680156101735780820380516001836020036101000a031916815260200191505b50935050505060405180910390f35b600060608373ffffffffffffffffffffffffffffffffffffffff16836040518082805190602001908083835b602083106101d157805182526020820191506020810190506020830392506101ae565b6001836020036101000a038019825116818451168082178552505050505050905001915050600060405180830381855afa9150503d8060008114610231576040519150601f19603f3d011682016040523d82523d6000602084013e610236565b606091505b508092508193505050600060405180807f6572726f72000000000000000000000000000000000000000000000000000000815250600501905060405180910390209050821561028a57818051906020012090505b8060025582829250925050925092905056fea2646970667358221220db58d80e8530eed625d9b4250a6055c2eb1d7c117a7ca267e6f8a059bdd2f39e64736f6c634300060a0033",
                "nonce" : "0x01",
                "balance" : "0x03e8",
                "storage" : {
                    "0x02" : "0x290decd9548b62a8d60345a988386fc84ba6bc95484008f6362f93160ef3e563"
                }
            },
            "0x2adc25665018aa1fe0e6bc666dac8fc2697ff9ba" : {
                "code" : "0x",
                "nonce" : "0x00",
                "balance" : "0x1bc16d674ecbc742",
                "storage" : {
                }
            },
            "0xa94f5374fce5edbc8e2a8697c15331677e6ebf0b" : {
                "code" : "0x",
                "nonce" : "0x01",
                "balance" : "0x0de0b6b3a76034d6",
                "storage" : {
                }
            }
        },
        "network" : "Berlin",
        "sealEngine" : "NoProof",
        "lastblockhash" : "0x96b01a1cade4b58d7f62f81f2ef0ecc00c353653cc039019b3b8f13dc21b6fc7",
        "genesisRLP" : "0xf901fcf901f7a00000000000000000000000000000000000000000000000000000000000000000a01dcc4de8dec75d7aab85b567b6ccd41ad312451b948a7413f0a142fd40d49347942adc25665018aa1fe0e6bc666dac8fc2697ff9baa0bf61e00e2f1fbb3ea831c4ff3bbeff62f2737e7f0d88945ba62e0722eab6cd68a056e81f171bcc55a6ff8345e692c0f86e5b48e01b996cadc001622fb5e363b421a056e81f171bcc55a6ff8345e692c0f86e5b48e01b996cadc001622fb5e363b421b9010000000000000000000000000000000000000000000000000000000000000000000000000000000000000000000000000000000000000000000000000000000000000000000000000000000000000000000000000000000000000000000000000000000000000000000000000000000000000000000000000000000000000000000000000000000000000000000000000000000000000000000000000000000000000000000000000000000000000000000000000000000000000000000000000000000000000000000000000000000000000000000000000000000000000000000000000000000000000000000000000000000000000000000000000000000000830200008087ff112233445566808000a00000000000000000000000000000000000000000000000000000000000000000880000000000000000c0c0",
        "blocks" : [
            {
                "rlp" : "0xf9074ef901fca0f227282805f439ca053613f53f119422bda960eea236c4b013eca3b95c6be464a01dcc4de8dec75d7aab85b567b6ccd41ad312451b948a7413f0a142fd40d49347942adc25665018aa1fe0e6bc666dac8fc2697ff9baa085fee3cf67cd96ce294065c9517e6f5c2b6752b74190c3abba5e7dc1cd526690a0c5bbfb87b8014d291e15a1b3675410ea576fe90d878d7729203094dc2205c578a01488270ac4fb74d8a87ae227f70a9fe77a895fe9d761faf6c846b6c9ca700721b9010000000000000000000000000000000000000000000000000000000000000000000000000000000000000000000000000000000000000000000000000000000000000000000000000000000000000000000000000000000000000000000000000000000000000000000000000000000000000000000000000000000000000000000000000000000000000000000000000000000000000000000000000000000000000000000000000000000000000000000000000000000000000000000000000000000000000000000000000000000000000000000000000000000000000000000000000000000000000000000000000000000000000000000000000000000000830200000187ff1122334455668303c7428203e800a00000000000000000000000000000000000000000000000000000000000000000880000000000000000f9054bf905488001836acfc094095e7baea6a6c7c4c2dfeb977efac326af552d878203e8b904e412bd4299000000000000000000000000000000000000000000000000000000000000001000000000000000000000000000000000000000000000000000000000000000400000000000000000000000000000000000000000000000000000000000000480000000000000000000000000000000001454d4a82163a155446467164904cefd7e1e3c67ae99bf65c581a75c72716fb011e2fd030eaf3d36977fbb0ff5156e2700000000000000000000000000000000123f973ab6bd3c2e5b0512a0c77ea0ac3003fd891e1262137f9444cd07b927b564e618205ba09220320ea1aa4564e82000000000000000000000000000000000113dc3354146ca79eb103b31b61fe8bc6f33dcb9c59a7c39d989bd9411c1afce4239034f84e6b00a084be061c73e69c0000000000000000000000000000000000ae33bf68f24978c7ea9fc58d8d76047ec45d01fdbc880e6a5ba02a22a49a3a8253afe0678ecfa6013f4849da3401df70000000000000000000000000000000012c5b00376a1dd31378ec44f2dc8e321e17185d903cfc5c15345a01c33f2f151b21b938d31816550594a7a1e7216c5b00000000000000000000000000000000013d79f825c44775c68e90932d0496a5cae53f04a1edb19f8abeb5948a3dd325dfec4a8b6f58c7fbca9cf3c09b909d8b2000000000000000000000000000000001454d4a82163a155446467164904cefd7e1e3c67ae99bf65c581a75c72716fb011e2fd030eaf3d36977fbb0ff5156e270000000000000000000000000000000007c17aaf82c2aa6bf01695157bcd0c2b34734dfbd572b0abe79c8dd3eef7ce6eb9c5e7de55b36ddf87f05e55ba9ac28b00000000000000000000000000000000113dc3354146ca79eb103b31b61fe8bc6f33dcb9c59a7c39d989bd9411c1afce4239034f84e6b00a084be061c73e69c0000000000000000000000000000000000ae33bf68f24978c7ea9fc58d8d76047ec45d01fdbc880e6a5ba02a22a49a3a8253afe0678ecfa6013f4849da3401df70000000000000000000000000000000012c5b00376a1dd31378ec44f2dc8e321e17185d903cfc5c15345a01c33f2f151b21b938d31816550594a7a1e7216c5b00000000000000000000000000000000013d79f825c44775c68e90932d0496a5cae53f04a1edb19f8abeb5948a3dd325dfec4a8b6f58c7fbca9cf3c09b909d8b2000000000000000000000000000000001454d4a82163a155446467164904cefd7e1e3c67ae99bf65c581a75c72716fb011e2fd030eaf3d36977fbb0ff5156e2700000000000000000000000000000000123f973ab6bd3c2e5b0512a0c77ea0ac3003fd891e1262137f9444cd07b927b564e618205ba09220320ea1aa4564e82000000000000000000000000000000000113dc3354146ca79eb103b31b61fe8bc6f33dcb9c59a7c39d989bd9411c1afce4239034f84e6b00a084be061c73e69c0000000000000000000000000000000000ae33bf68f24978c7ea9fc58d8d76047ec45d01fdbc880e6a5ba02a22a49a3a8253afe0678ecfa6013f4849da3401df700000000000000000000000000000000073b61e6c2de0969138ce3671582c9b58305c5abefb54cfe13eb3284c2be04d26c906c717fd29aaf60b485e18de8e4fb0000000000000000000000000000000006297267dd3b6f3de2329e837302427ab6235b3ad4a9f8c6bb45795852d3c3c61fe75747bbc78043102fc3f646f5d1f91ca01a42a98e48d5e640c7e53357608305366370a444da8f8004773981dd35209135a06681383b5ceec103f05b4296cec4c4cd00988682f6e05bd5b5ca5955bfd393d7c0",
                "blockHeader" : {
                    "bloom" : "0x00000000000000000000000000000000000000000000000000000000000000000000000000000000000000000000000000000000000000000000000000000000000000000000000000000000000000000000000000000000000000000000000000000000000000000000000000000000000000000000000000000000000000000000000000000000000000000000000000000000000000000000000000000000000000000000000000000000000000000000000000000000000000000000000000000000000000000000000000000000000000000000000000000000000000000000000000000000000000000000000000000000000000000000000000000000",
                    "coinbase" : "0x2adc25665018aa1fe0e6bc666dac8fc2697ff9ba",
                    "difficulty" : "0x020000",
                    "extraData" : "0x00",
                    "gasLimit" : "0xff112233445566",
                    "gasUsed" : "0x03c742",
                    "hash" : "0x96b01a1cade4b58d7f62f81f2ef0ecc00c353653cc039019b3b8f13dc21b6fc7",
                    "mixHash" : "0x0000000000000000000000000000000000000000000000000000000000000000",
                    "nonce" : "0x0000000000000000",
                    "number" : "0x01",
                    "parentHash" : "0xf227282805f439ca053613f53f119422bda960eea236c4b013eca3b95c6be464",
                    "receiptTrie" : "0x1488270ac4fb74d8a87ae227f70a9fe77a895fe9d761faf6c846b6c9ca700721",
                    "stateRoot" : "0x85fee3cf67cd96ce294065c9517e6f5c2b6752b74190c3abba5e7dc1cd526690",
                    "timestamp" : "0x03e8",
                    "transactionsTrie" : "0xc5bbfb87b8014d291e15a1b3675410ea576fe90d878d7729203094dc2205c578",
                    "uncleHash" : "0x1dcc4de8dec75d7aab85b567b6ccd41ad312451b948a7413f0a142fd40d49347"
                },
                "transactions" : [
                    {
                        "data" : "0x12bd4299000000000000000000000000000000000000000000000000000000000000001000000000000000000000000000000000000000000000000000000000000000400000000000000000000000000000000000000000000000000000000000000480000000000000000000000000000000001454d4a82163a155446467164904cefd7e1e3c67ae99bf65c581a75c72716fb011e2fd030eaf3d36977fbb0ff5156e2700000000000000000000000000000000123f973ab6bd3c2e5b0512a0c77ea0ac3003fd891e1262137f9444cd07b927b564e618205ba09220320ea1aa4564e82000000000000000000000000000000000113dc3354146ca79eb103b31b61fe8bc6f33dcb9c59a7c39d989bd9411c1afce4239034f84e6b00a084be061c73e69c0000000000000000000000000000000000ae33bf68f24978c7ea9fc58d8d76047ec45d01fdbc880e6a5ba02a22a49a3a8253afe0678ecfa6013f4849da3401df70000000000000000000000000000000012c5b00376a1dd31378ec44f2dc8e321e17185d903cfc5c15345a01c33f2f151b21b938d31816550594a7a1e7216c5b00000000000000000000000000000000013d79f825c44775c68e90932d0496a5cae53f04a1edb19f8abeb5948a3dd325dfec4a8b6f58c7fbca9cf3c09b909d8b2000000000000000000000000000000001454d4a82163a155446467164904cefd7e1e3c67ae99bf65c581a75c72716fb011e2fd030eaf3d36977fbb0ff5156e270000000000000000000000000000000007c17aaf82c2aa6bf01695157bcd0c2b34734dfbd572b0abe79c8dd3eef7ce6eb9c5e7de55b36ddf87f05e55ba9ac28b00000000000000000000000000000000113dc3354146ca79eb103b31b61fe8bc6f33dcb9c59a7c39d989bd9411c1afce4239034f84e6b00a084be061c73e69c0000000000000000000000000000000000ae33bf68f24978c7ea9fc58d8d76047ec45d01fdbc880e6a5ba02a22a49a3a8253afe0678ecfa6013f4849da3401df70000000000000000000000000000000012c5b00376a1dd31378ec44f2dc8e321e17185d903cfc5c15345a01c33f2f151b21b938d31816550594a7a1e7216c5b00000000000000000000000000000000013d79f825c44775c68e90932d0496a5cae53f04a1edb19f8abeb5948a3dd325dfec4a8b6f58c7fbca9cf3c09b909d8b2000000000000000000000000000000001454d4a82163a155446467164904cefd7e1e3c67ae99bf65c581a75c72716fb011e2fd030eaf3d36977fbb0ff5156e2700000000000000000000000000000000123f973ab6bd3c2e5b0512a0c77ea0ac3003fd891e1262137f9444cd07b927b564e618205ba09220320ea1aa4564e82000000000000000000000000000000000113dc3354146ca79eb103b31b61fe8bc6f33dcb9c59a7c39d989bd9411c1afce4239034f84e6b00a084be061c73e69c0000000000000000000000000000000000ae33bf68f24978c7ea9fc58d8d76047ec45d01fdbc880e6a5ba02a22a49a3a8253afe0678ecfa6013f4849da3401df700000000000000000000000000000000073b61e6c2de0969138ce3671582c9b58305c5abefb54cfe13eb3284c2be04d26c906c717fd29aaf60b485e18de8e4fb0000000000000000000000000000000006297267dd3b6f3de2329e837302427ab6235b3ad4a9f8c6bb45795852d3c3c61fe75747bbc78043102fc3f646f5d1f9",
                        "gasLimit" : "0x6acfc0",
                        "gasPrice" : "0x01",
                        "nonce" : "0x00",
                        "to" : "0x095e7baea6a6c7c4c2dfeb977efac326af552d87",
                        "value" : "0x03e8",
                        "v" : "0x1c",
                        "r" : "0x1a42a98e48d5e640c7e53357608305366370a444da8f8004773981dd35209135",
                        "s" : "0x6681383b5ceec103f05b4296cec4c4cd00988682f6e05bd5b5ca5955bfd393d7"
                    }
                ],
                "uncleHeaders" : [
                ]
            }
        ]
    }
}