{
    "pairing_58_d0g0v0_Berlin" : {
        "_info" : {
            "comment" : "A test for pairing_58",
            "filling-rpc-server" : "evm version 1.9.23-unstable-0efc69a9-20201022",
            "filling-tool-version" : "retesteth-0.0.9-berlin+commit.2f30f0ea.Linux.g++",
            "lllcversion" : "Version: 0.5.14-develop.2020.6.22+commit.9189ad7a.Linux.g++",
            "source" : "src/GeneralStateTestsFiller/stEIP2537/pairing_58Filler.json",
            "sourceHash" : "8dc4d6b0747b7112fc38577a9e1674051d99bd065044d46aef32f1e2cd73fd55"
        },
        "genesisBlockHeader" : {
            "bloom" : "0x00000000000000000000000000000000000000000000000000000000000000000000000000000000000000000000000000000000000000000000000000000000000000000000000000000000000000000000000000000000000000000000000000000000000000000000000000000000000000000000000000000000000000000000000000000000000000000000000000000000000000000000000000000000000000000000000000000000000000000000000000000000000000000000000000000000000000000000000000000000000000000000000000000000000000000000000000000000000000000000000000000000000000000000000000000000",
            "coinbase" : "0x2adc25665018aa1fe0e6bc666dac8fc2697ff9ba",
            "difficulty" : "0x020000",
            "extraData" : "0x00",
            "gasLimit" : "0xff112233445566",
            "gasUsed" : "0x00",
            "hash" : "0xf227282805f439ca053613f53f119422bda960eea236c4b013eca3b95c6be464",
            "mixHash" : "0x0000000000000000000000000000000000000000000000000000000000000000",
            "nonce" : "0x0000000000000000",
            "number" : "0x00",
            "parentHash" : "0x0000000000000000000000000000000000000000000000000000000000000000",
            "receiptTrie" : "0x56e81f171bcc55a6ff8345e692c0f86e5b48e01b996cadc001622fb5e363b421",
            "stateRoot" : "0xbf61e00e2f1fbb3ea831c4ff3bbeff62f2737e7f0d88945ba62e0722eab6cd68",
            "timestamp" : "0x00",
            "transactionsTrie" : "0x56e81f171bcc55a6ff8345e692c0f86e5b48e01b996cadc001622fb5e363b421",
            "uncleHash" : "0x1dcc4de8dec75d7aab85b567b6ccd41ad312451b948a7413f0a142fd40d49347"
        },
        "pre" : {
            "0x095e7baea6a6c7c4c2dfeb977efac326af552d87" : {
                "balance" : "0x00",
                "code" : "0x60806040526004361061001e5760003560e01c806312bd429914610023575b600080fd5b6100fc6004803603604081101561003957600080fd5b81019080803573ffffffffffffffffffffffffffffffffffffffff1690602001909291908035906020019064010000000081111561007657600080fd5b82018360208201111561008857600080fd5b803590602001918460018302840111640100000000831117156100aa57600080fd5b91908080601f016020809104026020016040519081016040528093929190818152602001838380828437600081840152601f19601f820116905080830192505050505050509192919290505050610182565b604051808315151515815260200180602001828103825283818151815260200191508051906020019080838360005b8381101561014657808201518184015260208101905061012b565b50505050905090810190601f1680156101735780820380516001836020036101000a031916815260200191505b50935050505060405180910390f35b600060608373ffffffffffffffffffffffffffffffffffffffff16836040518082805190602001908083835b602083106101d157805182526020820191506020810190506020830392506101ae565b6001836020036101000a038019825116818451168082178552505050505050905001915050600060405180830381855afa9150503d8060008114610231576040519150601f19603f3d011682016040523d82523d6000602084013e610236565b606091505b508092508193505050600060405180807f6572726f72000000000000000000000000000000000000000000000000000000815250600501905060405180910390209050821561028a57818051906020012090505b8060025582829250925050925092905056fea2646970667358221220db58d80e8530eed625d9b4250a6055c2eb1d7c117a7ca267e6f8a059bdd2f39e64736f6c634300060a0033",
                "nonce" : "0x01",
                "storage" : {
                }
            },
            "0xa94f5374fce5edbc8e2a8697c15331677e6ebf0b" : {
                "balance" : "0x0de0b6b3a7640000",
                "code" : "0x",
                "nonce" : "0x00",
                "storage" : {
                }
            }
        },
        "postState" : {
            "0x095e7baea6a6c7c4c2dfeb977efac326af552d87" : {
                "code" : "0x60806040526004361061001e5760003560e01c806312bd429914610023575b600080fd5b6100fc6004803603604081101561003957600080fd5b81019080803573ffffffffffffffffffffffffffffffffffffffff1690602001909291908035906020019064010000000081111561007657600080fd5b82018360208201111561008857600080fd5b803590602001918460018302840111640100000000831117156100aa57600080fd5b91908080601f016020809104026020016040519081016040528093929190818152602001838380828437600081840152601f19601f820116905080830192505050505050509192919290505050610182565b604051808315151515815260200180602001828103825283818151815260200191508051906020019080838360005b8381101561014657808201518184015260208101905061012b565b50505050905090810190601f1680156101735780820380516001836020036101000a031916815260200191505b50935050505060405180910390f35b600060608373ffffffffffffffffffffffffffffffffffffffff16836040518082805190602001908083835b602083106101d157805182526020820191506020810190506020830392506101ae565b6001836020036101000a038019825116818451168082178552505050505050905001915050600060405180830381855afa9150503d8060008114610231576040519150601f19603f3d011682016040523d82523d6000602084013e610236565b606091505b508092508193505050600060405180807f6572726f72000000000000000000000000000000000000000000000000000000815250600501905060405180910390209050821561028a57818051906020012090505b8060025582829250925050925092905056fea2646970667358221220db58d80e8530eed625d9b4250a6055c2eb1d7c117a7ca267e6f8a059bdd2f39e64736f6c634300060a0033",
                "nonce" : "0x01",
                "balance" : "0x03e8",
                "storage" : {
                    "0x02" : "0xb10e2d527612073b26eecdfd717e6a320cf44b4afac2b0732d9fcbe2b7fa0cf6"
                }
            },
            "0x2adc25665018aa1fe0e6bc666dac8fc2697ff9ba" : {
                "code" : "0x",
                "nonce" : "0x00",
                "balance" : "0x1bc16d674ecc38c3",
                "storage" : {
                }
            },
            "0xa94f5374fce5edbc8e2a8697c15331677e6ebf0b" : {
                "code" : "0x",
                "nonce" : "0x01",
                "balance" : "0x0de0b6b3a75fc355",
                "storage" : {
                }
            }
        },
        "network" : "Berlin",
        "sealEngine" : "NoProof",
        "lastblockhash" : "0x5a62c55780b6b8167a7f400c3503f3d58d9bb1deed72df4ce204c1ee3e8f5092",
        "genesisRLP" : "0xf901fcf901f7a00000000000000000000000000000000000000000000000000000000000000000a01dcc4de8dec75d7aab85b567b6ccd41ad312451b948a7413f0a142fd40d49347942adc25665018aa1fe0e6bc666dac8fc2697ff9baa0bf61e00e2f1fbb3ea831c4ff3bbeff62f2737e7f0d88945ba62e0722eab6cd68a056e81f171bcc55a6ff8345e692c0f86e5b48e01b996cadc001622fb5e363b421a056e81f171bcc55a6ff8345e692c0f86e5b48e01b996cadc001622fb5e363b421b9010000000000000000000000000000000000000000000000000000000000000000000000000000000000000000000000000000000000000000000000000000000000000000000000000000000000000000000000000000000000000000000000000000000000000000000000000000000000000000000000000000000000000000000000000000000000000000000000000000000000000000000000000000000000000000000000000000000000000000000000000000000000000000000000000000000000000000000000000000000000000000000000000000000000000000000000000000000000000000000000000000000000000000000000000000000000830200008087ff112233445566808000a00000000000000000000000000000000000000000000000000000000000000000880000000000000000c0c0",
        "blocks" : [
            {
                "rlp" : "0xf908cef901fca0f227282805f439ca053613f53f119422bda960eea236c4b013eca3b95c6be464a01dcc4de8dec75d7aab85b567b6ccd41ad312451b948a7413f0a142fd40d49347942adc25665018aa1fe0e6bc666dac8fc2697ff9baa0b8a10a9b78f2289855f04459f6cc3cb9ad6e70dbcd14f11de0bb09c5ed1437bda06dcfe97152cb5de0074cb31db067f6362b3b35806dc33e108a034810c51466bda075c830973cdb1c6899aeb2c4bcd4cd5b1a0ca4a1e772e40876c4fa839ae05a1eb9010000000000000000000000000000000000000000000000000000000000000000000000000000000000000000000000000000000000000000000000000000000000000000000000000000000000000000000000000000000000000000000000000000000000000000000000000000000000000000000000000000000000000000000000000000000000000000000000000000000000000000000000000000000000000000000000000000000000000000000000000000000000000000000000000000000000000000000000000000000000000000000000000000000000000000000000000000000000000000000000000000000000000000000000000000000000830200000187ff112233445566830438c38203e800a00000000000000000000000000000000000000000000000000000000000000000880000000000000000f906cbf906c88001836acfc094095e7baea6a6c7c4c2dfeb977efac326af552d878203e8b9066412bd4299000000000000000000000000000000000000000000000000000000000000001000000000000000000000000000000000000000000000000000000000000000400000000000000000000000000000000000000000000000000000000000000600000000000000000000000000000000000a87d0ccfb9c01148703d48993de04059d22a4cc48c5dabd2571ad4f7e60d6abfbcc5fb3bf363fd311fec675486c2a20000000000000000000000000000000000a896c5a84cbd03e52ae77000eb0285f5704993664a744a89ff6b346efd2efec1a519b67229a3b87e1f80e6aa17e2946000000000000000000000000000000000b50dc0957eccf5ad941b148a3824e82464bb7345a05125a0aa64f6ba34e34e767d4f679e9916faaacf82b3c79c9bddc00000000000000000000000000000000087152b3cb0db88776a7144fbafc1b210d150b637ca7148e3df600989231bce613fcf8e310fcc53aa2dc934bcbf86a220000000000000000000000000000000018a236ea02b1971d6e193a6eb92e1298956679d86864042fb6a0c36dd91c0e385944d779dedd0149fa8a1b3d6a07949d00000000000000000000000000000000048eac7d116b5a7906bce070e2b51ee7c4c493f1415abdb6fd2d35676036d3b741d14b7135419645a6906018e9d3f150000000000000000000000000000000000a87d0ccfb9c01148703d48993de04059d22a4cc48c5dabd2571ad4f7e60d6abfbcc5fb3bf363fd311fec675486c2a20000000000000000000000000000000000f77a58fb4b4165bf86d30b6349b84780d72b24e8eddce16c73a1f5a06de0638045a64978eb9c477d806f1955e818165000000000000000000000000000000000b50dc0957eccf5ad941b148a3824e82464bb7345a05125a0aa64f6ba34e34e767d4f679e9916faaacf82b3c79c9bddc00000000000000000000000000000000087152b3cb0db88776a7144fbafc1b210d150b637ca7148e3df600989231bce613fcf8e310fcc53aa2dc934bcbf86a220000000000000000000000000000000018a236ea02b1971d6e193a6eb92e1298956679d86864042fb6a0c36dd91c0e385944d779dedd0149fa8a1b3d6a07949d00000000000000000000000000000000048eac7d116b5a7906bce070e2b51ee7c4c493f1415abdb6fd2d35676036d3b741d14b7135419645a6906018e9d3f150000000000000000000000000000000000a87d0ccfb9c01148703d48993de04059d22a4cc48c5dabd2571ad4f7e60d6abfbcc5fb3bf363fd311fec675486c2a20000000000000000000000000000000000a896c5a84cbd03e52ae77000eb0285f5704993664a744a89ff6b346efd2efec1a519b67229a3b87e1f80e6aa17e2946000000000000000000000000000000000b50dc0957eccf5ad941b148a3824e82464bb7345a05125a0aa64f6ba34e34e767d4f679e9916faaacf82b3c79c9bddc00000000000000000000000000000000087152b3cb0db88776a7144fbafc1b210d150b637ca7148e3df600989231bce613fcf8e310fcc53aa2dc934bcbf86a2200000000000000000000000000000000015edb0036ce4f7cdd026d478a1d9a3ecf10d1ac8b210e8fb0900f331d94e7ebc5672884d276feb5bf74e4c295f8160e000000000000000000000000000000001572656d28148c21445ec74560968def9fb2b793b22a55086a039d39967a226cdcdab48d7c1269ba136e9fe7162bb95b000000000000000000000000000000000a87d0ccfb9c01148703d48993de04059d22a4cc48c5dabd2571ad4f7e60d6abfbcc5fb3bf363fd311fec675486c2a20000000000000000000000000000000000f77a58fb4b4165bf86d30b6349b84780d72b24e8eddce16c73a1f5a06de0638045a64978eb9c477d806f1955e818165000000000000000000000000000000000b50dc0957eccf5ad941b148a3824e82464bb7345a05125a0aa64f6ba34e34e767d4f679e9916faaacf82b3c79c9bddc00000000000000000000000000000000087152b3cb0db88776a7144fbafc1b210d150b637ca7148e3df600989231bce613fcf8e310fcc53aa2dc934bcbf86a2200000000000000000000000000000000015edb0036ce4f7cdd026d478a1d9a3ecf10d1ac8b210e8fb0900f331d94e7ebc5672884d276feb5bf74e4c295f8160e000000000000000000000000000000001572656d28148c21445ec74560968def9fb2b793b22a55086a039d39967a226cdcdab48d7c1269ba136e9fe7162bb95b1ca035d78c0171da5ca55d36726ad8d127ffc87fbdeff8c87954de2306e767712a1ea02fce63c1f9b247fecee4627e5454b403d13f904355ab961ddaf53d70900be534c0",
                "blockHeader" : {
                    "bloom" : "0x00000000000000000000000000000000000000000000000000000000000000000000000000000000000000000000000000000000000000000000000000000000000000000000000000000000000000000000000000000000000000000000000000000000000000000000000000000000000000000000000000000000000000000000000000000000000000000000000000000000000000000000000000000000000000000000000000000000000000000000000000000000000000000000000000000000000000000000000000000000000000000000000000000000000000000000000000000000000000000000000000000000000000000000000000000000",
                    "coinbase" : "0x2adc25665018aa1fe0e6bc666dac8fc2697ff9ba",
                    "difficulty" : "0x020000",
                    "extraData" : "0x00",
                    "gasLimit" : "0xff112233445566",
                    "gasUsed" : "0x0438c3",
                    "hash" : "0x5a62c55780b6b8167a7f400c3503f3d58d9bb1deed72df4ce204c1ee3e8f5092",
                    "mixHash" : "0x0000000000000000000000000000000000000000000000000000000000000000",
                    "nonce" : "0x0000000000000000",
                    "number" : "0x01",
                    "parentHash" : "0xf227282805f439ca053613f53f119422bda960eea236c4b013eca3b95c6be464",
                    "receiptTrie" : "0x75c830973cdb1c6899aeb2c4bcd4cd5b1a0ca4a1e772e40876c4fa839ae05a1e",
                    "stateRoot" : "0xb8a10a9b78f2289855f04459f6cc3cb9ad6e70dbcd14f11de0bb09c5ed1437bd",
                    "timestamp" : "0x03e8",
                    "transactionsTrie" : "0x6dcfe97152cb5de0074cb31db067f6362b3b35806dc33e108a034810c51466bd",
                    "uncleHash" : "0x1dcc4de8dec75d7aab85b567b6ccd41ad312451b948a7413f0a142fd40d49347"
                },
                "transactions" : [
                    {
                        "data" : "0x12bd4299000000000000000000000000000000000000000000000000000000000000001000000000000000000000000000000000000000000000000000000000000000400000000000000000000000000000000000000000000000000000000000000600000000000000000000000000000000000a87d0ccfb9c01148703d48993de04059d22a4cc48c5dabd2571ad4f7e60d6abfbcc5fb3bf363fd311fec675486c2a20000000000000000000000000000000000a896c5a84cbd03e52ae77000eb0285f5704993664a744a89ff6b346efd2efec1a519b67229a3b87e1f80e6aa17e2946000000000000000000000000000000000b50dc0957eccf5ad941b148a3824e82464bb7345a05125a0aa64f6ba34e34e767d4f679e9916faaacf82b3c79c9bddc00000000000000000000000000000000087152b3cb0db88776a7144fbafc1b210d150b637ca7148e3df600989231bce613fcf8e310fcc53aa2dc934bcbf86a220000000000000000000000000000000018a236ea02b1971d6e193a6eb92e1298956679d86864042fb6a0c36dd91c0e385944d779dedd0149fa8a1b3d6a07949d00000000000000000000000000000000048eac7d116b5a7906bce070e2b51ee7c4c493f1415abdb6fd2d35676036d3b741d14b7135419645a6906018e9d3f150000000000000000000000000000000000a87d0ccfb9c01148703d48993de04059d22a4cc48c5dabd2571ad4f7e60d6abfbcc5fb3bf363fd311fec675486c2a20000000000000000000000000000000000f77a58fb4b4165bf86d30b6349b84780d72b24e8eddce16c73a1f5a06de0638045a64978eb9c477d806f1955e818165000000000000000000000000000000000b50dc0957eccf5ad941b148a3824e82464bb7345a05125a0aa64f6ba34e34e767d4f679e9916faaacf82b3c79c9bddc00000000000000000000000000000000087152b3cb0db88776a7144fbafc1b210d150b637ca7148e3df600989231bce613fcf8e310fcc53aa2dc934bcbf86a220000000000000000000000000000000018a236ea02b1971d6e193a6eb92e1298956679d86864042fb6a0c36dd91c0e385944d779dedd0149fa8a1b3d6a07949d00000000000000000000000000000000048eac7d116b5a7906bce070e2b51ee7c4c493f1415abdb6fd2d35676036d3b741d14b7135419645a6906018e9d3f150000000000000000000000000000000000a87d0ccfb9c01148703d48993de04059d22a4cc48c5dabd2571ad4f7e60d6abfbcc5fb3bf363fd311fec675486c2a20000000000000000000000000000000000a896c5a84cbd03e52ae77000eb0285f5704993664a744a89ff6b346efd2efec1a519b67229a3b87e1f80e6aa17e2946000000000000000000000000000000000b50dc0957eccf5ad941b148a3824e82464bb7345a05125a0aa64f6ba34e34e767d4f679e9916faaacf82b3c79c9bddc00000000000000000000000000000000087152b3cb0db88776a7144fbafc1b210d150b637ca7148e3df600989231bce613fcf8e310fcc53aa2dc934bcbf86a2200000000000000000000000000000000015edb0036ce4f7cdd026d478a1d9a3ecf10d1ac8b210e8fb0900f331d94e7ebc5672884d276feb5bf74e4c295f8160e000000000000000000000000000000001572656d28148c21445ec74560968def9fb2b793b22a55086a039d39967a226cdcdab48d7c1269ba136e9fe7162bb95b000000000000000000000000000000000a87d0ccfb9c01148703d48993de04059d22a4cc48c5dabd2571ad4f7e60d6abfbcc5fb3bf363fd311fec675486c2a20000000000000000000000000000000000f77a58fb4b4165bf86d30b6349b84780d72b24e8eddce16c73a1f5a06de0638045a64978eb9c477d806f1955e818165000000000000000000000000000000000b50dc0957eccf5ad941b148a3824e82464bb7345a05125a0aa64f6ba34e34e767d4f679e9916faaacf82b3c79c9bddc00000000000000000000000000000000087152b3cb0db88776a7144fbafc1b210d150b637ca7148e3df600989231bce613fcf8e310fcc53aa2dc934bcbf86a2200000000000000000000000000000000015edb0036ce4f7cdd026d478a1d9a3ecf10d1ac8b210e8fb0900f331d94e7ebc5672884d276feb5bf74e4c295f8160e000000000000000000000000000000001572656d28148c21445ec74560968def9fb2b793b22a55086a039d39967a226cdcdab48d7c1269ba136e9fe7162bb95b",
                        "gasLimit" : "0x6acfc0",
                        "gasPrice" : "0x01",
                        "nonce" : "0x00",
                        "to" : "0x095e7baea6a6c7c4c2dfeb977efac326af552d87",
                        "value" : "0x03e8",
                        "v" : "0x1c",
                        "r" : "0x35d78c0171da5ca55d36726ad8d127ffc87fbdeff8c87954de2306e767712a1e",
                        "s" : "0x2fce63c1f9b247fecee4627e5454b403d13f904355ab961ddaf53d70900be534"
                    }
                ],
                "uncleHeaders" : [
                ]
            }
        ]
    }
}