{
    "ExecuteCallThatAskForeGasThenTrabsactionHas" : {
        "_info" : {
            "comment" : "",
            "filling-rpc-server" : "evm version 1.13.11-unstable-765f2904-20240124",
            "filling-tool-version" : "retesteth-0.3.2-cancun+commit.ea13235b.Linux.g++",
            "generatedTestHash" : "d1614a813a05976ec00c4e188fbf17d5a2dce9197144633be8fe98a421437cd6",
            "lllcversion" : "Version: 0.5.14-develop.2023.7.11+commit.c58ab2c6.mod.Linux.g++",
            "solidity" : "Version: 0.8.21+commit.d9974bed.Linux.g++",
            "source" : "src/GeneralStateTestsFiller/stEIP150Specific/ExecuteCallThatAskForeGasThenTrabsactionHasFiller.json",
            "sourceHash" : "e07481c6bb02438be2d9cb9469233e33557a8ad33f149f3e635414f2a2ab0703"
        },
        "env" : {
            "currentBaseFee" : "0x0a",
            "currentCoinbase" : "0x2adc25665018aa1fe0e6bc666dac8fc2697ff9ba",
            "currentDifficulty" : "0x020000",
            "currentExcessBlobGas" : "0x00",
            "currentGasLimit" : "0x989680",
            "currentNumber" : "0x01",
            "currentRandom" : "0x0000000000000000000000000000000000000000000000000000000000020000",
            "currentTimestamp" : "0x03e8"
        },
        "post" : {
            "Berlin" : [
                {
                    "hash" : "0x413234d3e3ff178d5507386e68b92335c99c6f34056d899a4301d7a4ad69bed5",
                    "indexes" : {
                        "data" : 0,
                        "gas" : 0,
                        "value" : 0
                    },
                    "logs" : "0x1dcc4de8dec75d7aab85b567b6ccd41ad312451b948a7413f0a142fd40d49347",
                    "txbytes" : "0xf860800a830186a094b94f5374fce5edbc8e2a8697c15331677e6ebf0b80801ca013e72da04d3a74fdc16979fdea1a319c45fcdcb22aed63dc8f7fc1851dde3640a05bc995d025196b6ef2ffc6777e831d18a86226f8759c5adb8dda36e4cc19d238"
                }
            ],
            "Cancun" : [
                {
                    "hash" : "0x896c747bac35c49d496d6c67657b35ab5cf7b647aeb3dc2a6121ce2449626427",
                    "indexes" : {
                        "data" : 0,
                        "gas" : 0,
                        "value" : 0
                    },
                    "logs" : "0x1dcc4de8dec75d7aab85b567b6ccd41ad312451b948a7413f0a142fd40d49347",
                    "txbytes" : "0xf860800a830186a094b94f5374fce5edbc8e2a8697c15331677e6ebf0b80801ca013e72da04d3a74fdc16979fdea1a319c45fcdcb22aed63dc8f7fc1851dde3640a05bc995d025196b6ef2ffc6777e831d18a86226f8759c5adb8dda36e4cc19d238"
                }
            ],
            "Istanbul" : [
                {
                    "hash" : "0xb668df17190dbeffe1e8e40cb68b556e6914f328d55eec707b38258acaa2f0a0",
                    "indexes" : {
                        "data" : 0,
                        "gas" : 0,
                        "value" : 0
                    },
                    "logs" : "0x1dcc4de8dec75d7aab85b567b6ccd41ad312451b948a7413f0a142fd40d49347",
                    "txbytes" : "0xf860800a830186a094b94f5374fce5edbc8e2a8697c15331677e6ebf0b80801ca013e72da04d3a74fdc16979fdea1a319c45fcdcb22aed63dc8f7fc1851dde3640a05bc995d025196b6ef2ffc6777e831d18a86226f8759c5adb8dda36e4cc19d238"
                }
            ],
            "London" : [
                {
                    "hash" : "0x896c747bac35c49d496d6c67657b35ab5cf7b647aeb3dc2a6121ce2449626427",
                    "indexes" : {
                        "data" : 0,
                        "gas" : 0,
                        "value" : 0
                    },
                    "logs" : "0x1dcc4de8dec75d7aab85b567b6ccd41ad312451b948a7413f0a142fd40d49347",
                    "txbytes" : "0xf860800a830186a094b94f5374fce5edbc8e2a8697c15331677e6ebf0b80801ca013e72da04d3a74fdc16979fdea1a319c45fcdcb22aed63dc8f7fc1851dde3640a05bc995d025196b6ef2ffc6777e831d18a86226f8759c5adb8dda36e4cc19d238"
                }
            ],
            "Paris" : [
                {
                    "hash" : "0x896c747bac35c49d496d6c67657b35ab5cf7b647aeb3dc2a6121ce2449626427",
                    "indexes" : {
                        "data" : 0,
                        "gas" : 0,
                        "value" : 0
                    },
                    "logs" : "0x1dcc4de8dec75d7aab85b567b6ccd41ad312451b948a7413f0a142fd40d49347",
                    "txbytes" : "0xf860800a830186a094b94f5374fce5edbc8e2a8697c15331677e6ebf0b80801ca013e72da04d3a74fdc16979fdea1a319c45fcdcb22aed63dc8f7fc1851dde3640a05bc995d025196b6ef2ffc6777e831d18a86226f8759c5adb8dda36e4cc19d238"
                }
            ],
            "Shanghai" : [
                {
                    "hash" : "0x896c747bac35c49d496d6c67657b35ab5cf7b647aeb3dc2a6121ce2449626427",
                    "indexes" : {
                        "data" : 0,
                        "gas" : 0,
                        "value" : 0
                    },
                    "logs" : "0x1dcc4de8dec75d7aab85b567b6ccd41ad312451b948a7413f0a142fd40d49347",
                    "txbytes" : "0xf860800a830186a094b94f5374fce5edbc8e2a8697c15331677e6ebf0b80801ca013e72da04d3a74fdc16979fdea1a319c45fcdcb22aed63dc8f7fc1851dde3640a05bc995d025196b6ef2ffc6777e831d18a86226f8759c5adb8dda36e4cc19d238"
                }
            ]
        },
        "pre" : {
            "0x1000000000000000000000000000000000000001" : {
                "balance" : "0x0186a0",
                "code" : "0x600c60015500",
                "nonce" : "0x00",
                "storage" : {
                }
            },
            "0xa94f5374fce5edbc8e2a8697c15331677e6ebf0b" : {
                "balance" : "0x05f5e100",
                "code" : "0x",
                "nonce" : "0x00",
                "storage" : {
                }
            },
            "0xb94f5374fce5edbc8e2a8697c15331677e6ebf0b" : {
                "balance" : "0x00",
                "code" : "0x60006000600060006000731000000000000000000000000000000000000001620927c0f160015500",
                "nonce" : "0x00",
                "storage" : {
                }
            }
        },
        "transaction" : {
            "data" : [
                "0x"
            ],
            "gasLimit" : [
                "0x0186a0"
            ],
            "gasPrice" : "0x0a",
            "nonce" : "0x00",
            "secretKey" : "0x45a915e4d060149eb4365960e6a7a45f334393093061116b197e3240065ff2d8",
            "sender" : "0xa94f5374fce5edbc8e2a8697c15331677e6ebf0b",
            "to" : "0xb94f5374fce5edbc8e2a8697c15331677e6ebf0b",
            "value" : [
                "0x00"
            ]
        }
    }
}