{
    "CallRecursiveBomb2_d0g0v0_Byzantium" : {
        "_info" : {
            "comment" : "",
            "filledwith" : "cpp-1.3.0+commit.ee0c6776.Linux.g++",
            "lllcversion" : "Version: 0.4.20-develop.2018.2.4+commit.c696803f.Linux.g++",
            "source" : "src/BlockchainTestsFiller/GeneralStateTests/stSystemOperationsTest/CallRecursiveBomb2_d0g0v0Filler.json",
            "sourceHash" : "b4f3aed11e0921be287bae7c3708f20a721353340df9f9cbab9365f5711327ca"
        },
        "blocks" : [
            {
                "blockHeader" : {
                    "bloom" : "0x00000000000000000000000000000000000000000000000000000000000000000000000000000000000000000000000000000000000000000000000000000000000000000000000000000000000000000000000000000000000000000000000000000000000000000000000000000000000000000000000000000000000000000000000000000000000000000000000000000000000000000000000000000000000000000000000000000000000000000000000000000000000000000000000000000000000000000000000000000000000000000000000000000000000000000000000000000000000000000000000000000000000000000000000000000000",
                    "coinbase" : "0x2adc25665018aa1fe0e6bc666dac8fc2697ff9ba",
                    "difficulty" : "0x020000",
                    "extraData" : "",
                    "gasLimit" : "0x05f5e100",
                    "gasUsed" : "0x25ee3c",
                    "hash" : "0xcb28f05f7f698020dfa966ffe07303802fed82866305bf37b59ac1bc3d506f91",
                    "mixHash" : "0x2b6df1eab4558540a8418e037cc97b940714be05f48c4b30e8aa0d06c3bdf57e",
                    "nonce" : "0x75d4f3f14515f7c6",
                    "number" : "0x01",
                    "parentHash" : "0xcb7223722ffdfdd7d47f6e4df25666466582faa1452801beca1e8eead83f679a",
                    "receiptTrie" : "0xe17a7ba062a01516d29f36c282bc6556834a52c523634d300dae216f50c0ccfc",
                    "stateRoot" : "0xcb883b41a7258a9e07f803b9e3d45166a4a1f8c58ef974bab9aa8a85fb7fd18e",
                    "timestamp" : "0x03e8",
                    "transactionsTrie" : "0x92a113ec22ec1413985030a03b2eff5a4b4c203d7ce89c73ead2a1e8bc3f4b3d",
                    "uncleHash" : "0x1dcc4de8dec75d7aab85b567b6ccd41ad312451b948a7413f0a142fd40d49347"
                },
                "rlp" : "0xf90265f901f9a0cb7223722ffdfdd7d47f6e4df25666466582faa1452801beca1e8eead83f679aa01dcc4de8dec75d7aab85b567b6ccd41ad312451b948a7413f0a142fd40d49347942adc25665018aa1fe0e6bc666dac8fc2697ff9baa0cb883b41a7258a9e07f803b9e3d45166a4a1f8c58ef974bab9aa8a85fb7fd18ea092a113ec22ec1413985030a03b2eff5a4b4c203d7ce89c73ead2a1e8bc3f4b3da0e17a7ba062a01516d29f36c282bc6556834a52c523634d300dae216f50c0ccfcb901000000000000000000000000000000000000000000000000000000000000000000000000000000000000000000000000000000000000000000000000000000000000000000000000000000000000000000000000000000000000000000000000000000000000000000000000000000000000000000000000000000000000000000000000000000000000000000000000000000000000000000000000000000000000000000000000000000000000000000000000000000000000000000000000000000000000000000000000000000000000000000000000000000000000000000000000000000000000000000000000000000000000000000000000000000000083020000018405f5e1008325ee3c8203e880a02b6df1eab4558540a8418e037cc97b940714be05f48c4b30e8aa0d06c3bdf57e8875d4f3f14515f7c6f866f864800184013aab1394095e7baea6a6c7c4c2dfeb977efac326af552d87830186a0801ca0a5aea40d5172fccda45868e6131287caea167e620021316ac5ceca95b53255a9a06e97855c3468e8b54a435d1032254b9f2fa43f1c53eac70f81f6f4f5a92bd9dcc0",
                "transactions" : [
                    {
                        "data" : "0x",
                        "gasLimit" : "0x013aab13",
                        "gasPrice" : "0x01",
                        "nonce" : "0x00",
                        "r" : "0xa5aea40d5172fccda45868e6131287caea167e620021316ac5ceca95b53255a9",
                        "s" : "0x6e97855c3468e8b54a435d1032254b9f2fa43f1c53eac70f81f6f4f5a92bd9dc",
                        "to" : "0x095e7baea6a6c7c4c2dfeb977efac326af552d87",
                        "v" : "0x1c",
                        "value" : "0x0186a0"
                    }
                ],
                "uncleHeaders" : [
                ]
            }
        ],
        "genesisBlockHeader" : {
            "bloom" : "0x00000000000000000000000000000000000000000000000000000000000000000000000000000000000000000000000000000000000000000000000000000000000000000000000000000000000000000000000000000000000000000000000000000000000000000000000000000000000000000000000000000000000000000000000000000000000000000000000000000000000000000000000000000000000000000000000000000000000000000000000000000000000000000000000000000000000000000000000000000000000000000000000000000000000000000000000000000000000000000000000000000000000000000000000000000000",
            "coinbase" : "0x2adc25665018aa1fe0e6bc666dac8fc2697ff9ba",
            "difficulty" : "0x020000",
            "extraData" : "0x42",
            "gasLimit" : "0x05f5e100",
            "gasUsed" : "0x00",
            "hash" : "0xcb7223722ffdfdd7d47f6e4df25666466582faa1452801beca1e8eead83f679a",
            "mixHash" : "0x56e81f171bcc55a6ff8345e692c0f86e5b48e01b996cadc001622fb5e363b421",
            "nonce" : "0x0102030405060708",
            "number" : "0x00",
            "parentHash" : "0x0000000000000000000000000000000000000000000000000000000000000000",
            "receiptTrie" : "0x56e81f171bcc55a6ff8345e692c0f86e5b48e01b996cadc001622fb5e363b421",
            "stateRoot" : "0xc6e45dad242b3ac3e57c3f4187cefc2007f0b19a3c195e7da6b9769c6abb1b68",
            "timestamp" : "0x03b6",
            "transactionsTrie" : "0x56e81f171bcc55a6ff8345e692c0f86e5b48e01b996cadc001622fb5e363b421",
            "uncleHash" : "0x1dcc4de8dec75d7aab85b567b6ccd41ad312451b948a7413f0a142fd40d49347"
        },
        "genesisRLP" : "0xf901fbf901f6a00000000000000000000000000000000000000000000000000000000000000000a01dcc4de8dec75d7aab85b567b6ccd41ad312451b948a7413f0a142fd40d49347942adc25665018aa1fe0e6bc666dac8fc2697ff9baa0c6e45dad242b3ac3e57c3f4187cefc2007f0b19a3c195e7da6b9769c6abb1b68a056e81f171bcc55a6ff8345e692c0f86e5b48e01b996cadc001622fb5e363b421a056e81f171bcc55a6ff8345e692c0f86e5b48e01b996cadc001622fb5e363b421b901000000000000000000000000000000000000000000000000000000000000000000000000000000000000000000000000000000000000000000000000000000000000000000000000000000000000000000000000000000000000000000000000000000000000000000000000000000000000000000000000000000000000000000000000000000000000000000000000000000000000000000000000000000000000000000000000000000000000000000000000000000000000000000000000000000000000000000000000000000000000000000000000000000000000000000000000000000000000000000000000000000000000000000000000000000000083020000808405f5e100808203b642a056e81f171bcc55a6ff8345e692c0f86e5b48e01b996cadc001622fb5e363b421880102030405060708c0c0",
        "lastblockhash" : "0xcb28f05f7f698020dfa966ffe07303802fed82866305bf37b59ac1bc3d506f91",
        "network" : "Byzantium",
        "postState" : {
            "0x095e7baea6a6c7c4c2dfeb977efac326af552d87" : {
                "balance" : "0x0132b3a0",
                "code" : "0x6001600054016000556000600060006000600030613a985a03f1600155",
                "nonce" : "0x00",
                "storage" : {
                    "0x00" : "0xde",
                    "0x01" : "0x01"
                }
            },
            "0x2adc25665018aa1fe0e6bc666dac8fc2697ff9ba" : {
                "balance" : "0x29a2241af651ee3c",
                "code" : "",
                "nonce" : "0x00",
                "storage" : {
                }
            },
            "0xa94f5374fce5edbc8e2a8697c15331677e6ebf0b" : {
                "balance" : "0x0de0b6b3a73c8b24",
                "code" : "",
                "nonce" : "0x01",
                "storage" : {
                }
            }
        },
        "pre" : {
            "0x095e7baea6a6c7c4c2dfeb977efac326af552d87" : {
                "balance" : "0x01312d00",
                "code" : "0x6001600054016000556000600060006000600030613a985a03f1600155",
                "nonce" : "0x00",
                "storage" : {
                }
            },
            "0xa94f5374fce5edbc8e2a8697c15331677e6ebf0b" : {
                "balance" : "0x0de0b6b3a7640000",
                "code" : "",
                "nonce" : "0x00",
                "storage" : {
                }
            }
        }
    },
    "CallRecursiveBomb2_d0g0v0_EIP150" : {
        "_info" : {
            "comment" : "",
            "filledwith" : "cpp-1.3.0+commit.ee0c6776.Linux.g++",
            "lllcversion" : "Version: 0.4.20-develop.2018.2.4+commit.c696803f.Linux.g++",
            "source" : "src/BlockchainTestsFiller/GeneralStateTests/stSystemOperationsTest/CallRecursiveBomb2_d0g0v0Filler.json",
            "sourceHash" : "b4f3aed11e0921be287bae7c3708f20a721353340df9f9cbab9365f5711327ca"
        },
        "blocks" : [
            {
                "blockHeader" : {
                    "bloom" : "0x00000000000000000000000000000000000000000000000000000000000000000000000000000000000000000000000000000000000000000000000000000000000000000000000000000000000000000000000000000000000000000000000000000000000000000000000000000000000000000000000000000000000000000000000000000000000000000000000000000000000000000000000000000000000000000000000000000000000000000000000000000000000000000000000000000000000000000000000000000000000000000000000000000000000000000000000000000000000000000000000000000000000000000000000000000000",
                    "coinbase" : "0x2adc25665018aa1fe0e6bc666dac8fc2697ff9ba",
                    "difficulty" : "0x020000",
                    "extraData" : "",
                    "gasLimit" : "0x05f5e100",
                    "gasUsed" : "0x25ee3c",
                    "hash" : "0xb3742fcc1d40062669b9a62fa10725602db62a7bab4117e1b99f0ce41d4d343d",
                    "mixHash" : "0xfd0593f582340876cfade0e61886e29f0a46727917b8e9e86e95ff0f6d001c5c",
                    "nonce" : "0xe6827f47bbb63009",
                    "number" : "0x01",
                    "parentHash" : "0xcb7223722ffdfdd7d47f6e4df25666466582faa1452801beca1e8eead83f679a",
                    "receiptTrie" : "0x792aca7aad096592250ea2525cb7200f6a44e9366fc6623ecfa9e29e5b2061f9",
                    "stateRoot" : "0x85c9494ad4839f0ea55efa531364bb264cf66b1c79c054b7825c9fe6be3abbe3",
                    "timestamp" : "0x03e8",
                    "transactionsTrie" : "0x92a113ec22ec1413985030a03b2eff5a4b4c203d7ce89c73ead2a1e8bc3f4b3d",
                    "uncleHash" : "0x1dcc4de8dec75d7aab85b567b6ccd41ad312451b948a7413f0a142fd40d49347"
                },
                "rlp" : "0xf90265f901f9a0cb7223722ffdfdd7d47f6e4df25666466582faa1452801beca1e8eead83f679aa01dcc4de8dec75d7aab85b567b6ccd41ad312451b948a7413f0a142fd40d49347942adc25665018aa1fe0e6bc666dac8fc2697ff9baa085c9494ad4839f0ea55efa531364bb264cf66b1c79c054b7825c9fe6be3abbe3a092a113ec22ec1413985030a03b2eff5a4b4c203d7ce89c73ead2a1e8bc3f4b3da0792aca7aad096592250ea2525cb7200f6a44e9366fc6623ecfa9e29e5b2061f9b901000000000000000000000000000000000000000000000000000000000000000000000000000000000000000000000000000000000000000000000000000000000000000000000000000000000000000000000000000000000000000000000000000000000000000000000000000000000000000000000000000000000000000000000000000000000000000000000000000000000000000000000000000000000000000000000000000000000000000000000000000000000000000000000000000000000000000000000000000000000000000000000000000000000000000000000000000000000000000000000000000000000000000000000000000000000083020000018405f5e1008325ee3c8203e880a0fd0593f582340876cfade0e61886e29f0a46727917b8e9e86e95ff0f6d001c5c88e6827f47bbb63009f866f864800184013aab1394095e7baea6a6c7c4c2dfeb977efac326af552d87830186a0801ca0a5aea40d5172fccda45868e6131287caea167e620021316ac5ceca95b53255a9a06e97855c3468e8b54a435d1032254b9f2fa43f1c53eac70f81f6f4f5a92bd9dcc0",
                "transactions" : [
                    {
                        "data" : "0x",
                        "gasLimit" : "0x013aab13",
                        "gasPrice" : "0x01",
                        "nonce" : "0x00",
                        "r" : "0xa5aea40d5172fccda45868e6131287caea167e620021316ac5ceca95b53255a9",
                        "s" : "0x6e97855c3468e8b54a435d1032254b9f2fa43f1c53eac70f81f6f4f5a92bd9dc",
                        "to" : "0x095e7baea6a6c7c4c2dfeb977efac326af552d87",
                        "v" : "0x1c",
                        "value" : "0x0186a0"
                    }
                ],
                "uncleHeaders" : [
                ]
            }
        ],
        "genesisBlockHeader" : {
            "bloom" : "0x00000000000000000000000000000000000000000000000000000000000000000000000000000000000000000000000000000000000000000000000000000000000000000000000000000000000000000000000000000000000000000000000000000000000000000000000000000000000000000000000000000000000000000000000000000000000000000000000000000000000000000000000000000000000000000000000000000000000000000000000000000000000000000000000000000000000000000000000000000000000000000000000000000000000000000000000000000000000000000000000000000000000000000000000000000000",
            "coinbase" : "0x2adc25665018aa1fe0e6bc666dac8fc2697ff9ba",
            "difficulty" : "0x020000",
            "extraData" : "0x42",
            "gasLimit" : "0x05f5e100",
            "gasUsed" : "0x00",
            "hash" : "0xcb7223722ffdfdd7d47f6e4df25666466582faa1452801beca1e8eead83f679a",
            "mixHash" : "0x56e81f171bcc55a6ff8345e692c0f86e5b48e01b996cadc001622fb5e363b421",
            "nonce" : "0x0102030405060708",
            "number" : "0x00",
            "parentHash" : "0x0000000000000000000000000000000000000000000000000000000000000000",
            "receiptTrie" : "0x56e81f171bcc55a6ff8345e692c0f86e5b48e01b996cadc001622fb5e363b421",
            "stateRoot" : "0xc6e45dad242b3ac3e57c3f4187cefc2007f0b19a3c195e7da6b9769c6abb1b68",
            "timestamp" : "0x03b6",
            "transactionsTrie" : "0x56e81f171bcc55a6ff8345e692c0f86e5b48e01b996cadc001622fb5e363b421",
            "uncleHash" : "0x1dcc4de8dec75d7aab85b567b6ccd41ad312451b948a7413f0a142fd40d49347"
        },
        "genesisRLP" : "0xf901fbf901f6a00000000000000000000000000000000000000000000000000000000000000000a01dcc4de8dec75d7aab85b567b6ccd41ad312451b948a7413f0a142fd40d49347942adc25665018aa1fe0e6bc666dac8fc2697ff9baa0c6e45dad242b3ac3e57c3f4187cefc2007f0b19a3c195e7da6b9769c6abb1b68a056e81f171bcc55a6ff8345e692c0f86e5b48e01b996cadc001622fb5e363b421a056e81f171bcc55a6ff8345e692c0f86e5b48e01b996cadc001622fb5e363b421b901000000000000000000000000000000000000000000000000000000000000000000000000000000000000000000000000000000000000000000000000000000000000000000000000000000000000000000000000000000000000000000000000000000000000000000000000000000000000000000000000000000000000000000000000000000000000000000000000000000000000000000000000000000000000000000000000000000000000000000000000000000000000000000000000000000000000000000000000000000000000000000000000000000000000000000000000000000000000000000000000000000000000000000000000000000000083020000808405f5e100808203b642a056e81f171bcc55a6ff8345e692c0f86e5b48e01b996cadc001622fb5e363b421880102030405060708c0c0",
        "lastblockhash" : "0xb3742fcc1d40062669b9a62fa10725602db62a7bab4117e1b99f0ce41d4d343d",
        "network" : "EIP150",
        "postState" : {
            "0x095e7baea6a6c7c4c2dfeb977efac326af552d87" : {
                "balance" : "0x0132b3a0",
                "code" : "0x6001600054016000556000600060006000600030613a985a03f1600155",
                "nonce" : "0x00",
                "storage" : {
                    "0x00" : "0xde",
                    "0x01" : "0x01"
                }
            },
            "0x2adc25665018aa1fe0e6bc666dac8fc2697ff9ba" : {
                "balance" : "0x456391824519ee3c",
                "code" : "",
                "nonce" : "0x00",
                "storage" : {
                }
            },
            "0xa94f5374fce5edbc8e2a8697c15331677e6ebf0b" : {
                "balance" : "0x0de0b6b3a73c8b24",
                "code" : "",
                "nonce" : "0x01",
                "storage" : {
                }
            }
        },
        "pre" : {
            "0x095e7baea6a6c7c4c2dfeb977efac326af552d87" : {
                "balance" : "0x01312d00",
                "code" : "0x6001600054016000556000600060006000600030613a985a03f1600155",
                "nonce" : "0x00",
                "storage" : {
                }
            },
            "0xa94f5374fce5edbc8e2a8697c15331677e6ebf0b" : {
                "balance" : "0x0de0b6b3a7640000",
                "code" : "",
                "nonce" : "0x00",
                "storage" : {
                }
            }
        }
    },
    "CallRecursiveBomb2_d0g0v0_EIP158" : {
        "_info" : {
            "comment" : "",
            "filledwith" : "cpp-1.3.0+commit.ee0c6776.Linux.g++",
            "lllcversion" : "Version: 0.4.20-develop.2018.2.4+commit.c696803f.Linux.g++",
            "source" : "src/BlockchainTestsFiller/GeneralStateTests/stSystemOperationsTest/CallRecursiveBomb2_d0g0v0Filler.json",
            "sourceHash" : "b4f3aed11e0921be287bae7c3708f20a721353340df9f9cbab9365f5711327ca"
        },
        "blocks" : [
            {
                "blockHeader" : {
                    "bloom" : "0x00000000000000000000000000000000000000000000000000000000000000000000000000000000000000000000000000000000000000000000000000000000000000000000000000000000000000000000000000000000000000000000000000000000000000000000000000000000000000000000000000000000000000000000000000000000000000000000000000000000000000000000000000000000000000000000000000000000000000000000000000000000000000000000000000000000000000000000000000000000000000000000000000000000000000000000000000000000000000000000000000000000000000000000000000000000",
                    "coinbase" : "0x2adc25665018aa1fe0e6bc666dac8fc2697ff9ba",
                    "difficulty" : "0x020000",
                    "extraData" : "",
                    "gasLimit" : "0x05f5e100",
                    "gasUsed" : "0x25ee3c",
                    "hash" : "0x4aa6248ad52f749ea6abf1a29ee0de80e2b863bade15de6332ff0025142bc28b",
                    "mixHash" : "0x147573f2136a9a8d765d04724c9d0558e86ba97b8155835ee19d35d01ae8bb18",
                    "nonce" : "0x6b69f3368e18e16d",
                    "number" : "0x01",
                    "parentHash" : "0xcb7223722ffdfdd7d47f6e4df25666466582faa1452801beca1e8eead83f679a",
                    "receiptTrie" : "0x792aca7aad096592250ea2525cb7200f6a44e9366fc6623ecfa9e29e5b2061f9",
                    "stateRoot" : "0x85c9494ad4839f0ea55efa531364bb264cf66b1c79c054b7825c9fe6be3abbe3",
                    "timestamp" : "0x03e8",
                    "transactionsTrie" : "0x92a113ec22ec1413985030a03b2eff5a4b4c203d7ce89c73ead2a1e8bc3f4b3d",
                    "uncleHash" : "0x1dcc4de8dec75d7aab85b567b6ccd41ad312451b948a7413f0a142fd40d49347"
                },
                "rlp" : "0xf90265f901f9a0cb7223722ffdfdd7d47f6e4df25666466582faa1452801beca1e8eead83f679aa01dcc4de8dec75d7aab85b567b6ccd41ad312451b948a7413f0a142fd40d49347942adc25665018aa1fe0e6bc666dac8fc2697ff9baa085c9494ad4839f0ea55efa531364bb264cf66b1c79c054b7825c9fe6be3abbe3a092a113ec22ec1413985030a03b2eff5a4b4c203d7ce89c73ead2a1e8bc3f4b3da0792aca7aad096592250ea2525cb7200f6a44e9366fc6623ecfa9e29e5b2061f9b901000000000000000000000000000000000000000000000000000000000000000000000000000000000000000000000000000000000000000000000000000000000000000000000000000000000000000000000000000000000000000000000000000000000000000000000000000000000000000000000000000000000000000000000000000000000000000000000000000000000000000000000000000000000000000000000000000000000000000000000000000000000000000000000000000000000000000000000000000000000000000000000000000000000000000000000000000000000000000000000000000000000000000000000000000000000083020000018405f5e1008325ee3c8203e880a0147573f2136a9a8d765d04724c9d0558e86ba97b8155835ee19d35d01ae8bb18886b69f3368e18e16df866f864800184013aab1394095e7baea6a6c7c4c2dfeb977efac326af552d87830186a0801ca0a5aea40d5172fccda45868e6131287caea167e620021316ac5ceca95b53255a9a06e97855c3468e8b54a435d1032254b9f2fa43f1c53eac70f81f6f4f5a92bd9dcc0",
                "transactions" : [
                    {
                        "data" : "0x",
                        "gasLimit" : "0x013aab13",
                        "gasPrice" : "0x01",
                        "nonce" : "0x00",
                        "r" : "0xa5aea40d5172fccda45868e6131287caea167e620021316ac5ceca95b53255a9",
                        "s" : "0x6e97855c3468e8b54a435d1032254b9f2fa43f1c53eac70f81f6f4f5a92bd9dc",
                        "to" : "0x095e7baea6a6c7c4c2dfeb977efac326af552d87",
                        "v" : "0x1c",
                        "value" : "0x0186a0"
                    }
                ],
                "uncleHeaders" : [
                ]
            }
        ],
        "genesisBlockHeader" : {
            "bloom" : "0x00000000000000000000000000000000000000000000000000000000000000000000000000000000000000000000000000000000000000000000000000000000000000000000000000000000000000000000000000000000000000000000000000000000000000000000000000000000000000000000000000000000000000000000000000000000000000000000000000000000000000000000000000000000000000000000000000000000000000000000000000000000000000000000000000000000000000000000000000000000000000000000000000000000000000000000000000000000000000000000000000000000000000000000000000000000",
            "coinbase" : "0x2adc25665018aa1fe0e6bc666dac8fc2697ff9ba",
            "difficulty" : "0x020000",
            "extraData" : "0x42",
            "gasLimit" : "0x05f5e100",
            "gasUsed" : "0x00",
            "hash" : "0xcb7223722ffdfdd7d47f6e4df25666466582faa1452801beca1e8eead83f679a",
            "mixHash" : "0x56e81f171bcc55a6ff8345e692c0f86e5b48e01b996cadc001622fb5e363b421",
            "nonce" : "0x0102030405060708",
            "number" : "0x00",
            "parentHash" : "0x0000000000000000000000000000000000000000000000000000000000000000",
            "receiptTrie" : "0x56e81f171bcc55a6ff8345e692c0f86e5b48e01b996cadc001622fb5e363b421",
            "stateRoot" : "0xc6e45dad242b3ac3e57c3f4187cefc2007f0b19a3c195e7da6b9769c6abb1b68",
            "timestamp" : "0x03b6",
            "transactionsTrie" : "0x56e81f171bcc55a6ff8345e692c0f86e5b48e01b996cadc001622fb5e363b421",
            "uncleHash" : "0x1dcc4de8dec75d7aab85b567b6ccd41ad312451b948a7413f0a142fd40d49347"
        },
        "genesisRLP" : "0xf901fbf901f6a00000000000000000000000000000000000000000000000000000000000000000a01dcc4de8dec75d7aab85b567b6ccd41ad312451b948a7413f0a142fd40d49347942adc25665018aa1fe0e6bc666dac8fc2697ff9baa0c6e45dad242b3ac3e57c3f4187cefc2007f0b19a3c195e7da6b9769c6abb1b68a056e81f171bcc55a6ff8345e692c0f86e5b48e01b996cadc001622fb5e363b421a056e81f171bcc55a6ff8345e692c0f86e5b48e01b996cadc001622fb5e363b421b901000000000000000000000000000000000000000000000000000000000000000000000000000000000000000000000000000000000000000000000000000000000000000000000000000000000000000000000000000000000000000000000000000000000000000000000000000000000000000000000000000000000000000000000000000000000000000000000000000000000000000000000000000000000000000000000000000000000000000000000000000000000000000000000000000000000000000000000000000000000000000000000000000000000000000000000000000000000000000000000000000000000000000000000000000000000083020000808405f5e100808203b642a056e81f171bcc55a6ff8345e692c0f86e5b48e01b996cadc001622fb5e363b421880102030405060708c0c0",
        "lastblockhash" : "0x4aa6248ad52f749ea6abf1a29ee0de80e2b863bade15de6332ff0025142bc28b",
        "network" : "EIP158",
        "postState" : {
            "0x095e7baea6a6c7c4c2dfeb977efac326af552d87" : {
                "balance" : "0x0132b3a0",
                "code" : "0x6001600054016000556000600060006000600030613a985a03f1600155",
                "nonce" : "0x00",
                "storage" : {
                    "0x00" : "0xde",
                    "0x01" : "0x01"
                }
            },
            "0x2adc25665018aa1fe0e6bc666dac8fc2697ff9ba" : {
                "balance" : "0x456391824519ee3c",
                "code" : "",
                "nonce" : "0x00",
                "storage" : {
                }
            },
            "0xa94f5374fce5edbc8e2a8697c15331677e6ebf0b" : {
                "balance" : "0x0de0b6b3a73c8b24",
                "code" : "",
                "nonce" : "0x01",
                "storage" : {
                }
            }
        },
        "pre" : {
            "0x095e7baea6a6c7c4c2dfeb977efac326af552d87" : {
                "balance" : "0x01312d00",
                "code" : "0x6001600054016000556000600060006000600030613a985a03f1600155",
                "nonce" : "0x00",
                "storage" : {
                }
            },
            "0xa94f5374fce5edbc8e2a8697c15331677e6ebf0b" : {
                "balance" : "0x0de0b6b3a7640000",
                "code" : "",
                "nonce" : "0x00",
                "storage" : {
                }
            }
        }
    },
    "CallRecursiveBomb2_d0g0v0_Frontier" : {
        "_info" : {
            "comment" : "",
            "filledwith" : "cpp-1.3.0+commit.ee0c6776.Linux.g++",
            "lllcversion" : "Version: 0.4.20-develop.2018.2.4+commit.c696803f.Linux.g++",
            "source" : "src/BlockchainTestsFiller/GeneralStateTests/stSystemOperationsTest/CallRecursiveBomb2_d0g0v0Filler.json",
            "sourceHash" : "b4f3aed11e0921be287bae7c3708f20a721353340df9f9cbab9365f5711327ca"
        },
        "blocks" : [
            {
                "blockHeader" : {
                    "bloom" : "0x00000000000000000000000000000000000000000000000000000000000000000000000000000000000000000000000000000000000000000000000000000000000000000000000000000000000000000000000000000000000000000000000000000000000000000000000000000000000000000000000000000000000000000000000000000000000000000000000000000000000000000000000000000000000000000000000000000000000000000000000000000000000000000000000000000000000000000000000000000000000000000000000000000000000000000000000000000000000000000000000000000000000000000000000000000000",
                    "coinbase" : "0x2adc25665018aa1fe0e6bc666dac8fc2697ff9ba",
                    "difficulty" : "0x020000",
                    "extraData" : "",
                    "gasLimit" : "0x05f5e100",
                    "gasUsed" : "0x9f5dab",
                    "hash" : "0xcf16fb38acbafc4b0bcdc5728c9cdb3143d8a7cd42a9afdde00a41df522a9113",
                    "mixHash" : "0xeae3aaf6a11f14a955b72d536ef4123a805d5f80ac18c187df59a74d067a7dce",
                    "nonce" : "0x1c31f14b3eeb7601",
                    "number" : "0x01",
                    "parentHash" : "0xcb7223722ffdfdd7d47f6e4df25666466582faa1452801beca1e8eead83f679a",
                    "receiptTrie" : "0x60ee18adea1ab6e076fda4d6b3c6cc456fee4387fa854b3f8f540eaf96944e02",
                    "stateRoot" : "0xe1dab255a8b4c93d6183e88484bddbd6152e87ff3a6374780d8207be5056d4a3",
                    "timestamp" : "0x03e8",
                    "transactionsTrie" : "0x92a113ec22ec1413985030a03b2eff5a4b4c203d7ce89c73ead2a1e8bc3f4b3d",
                    "uncleHash" : "0x1dcc4de8dec75d7aab85b567b6ccd41ad312451b948a7413f0a142fd40d49347"
                },
                "rlp" : "0xf90265f901f9a0cb7223722ffdfdd7d47f6e4df25666466582faa1452801beca1e8eead83f679aa01dcc4de8dec75d7aab85b567b6ccd41ad312451b948a7413f0a142fd40d49347942adc25665018aa1fe0e6bc666dac8fc2697ff9baa0e1dab255a8b4c93d6183e88484bddbd6152e87ff3a6374780d8207be5056d4a3a092a113ec22ec1413985030a03b2eff5a4b4c203d7ce89c73ead2a1e8bc3f4b3da060ee18adea1ab6e076fda4d6b3c6cc456fee4387fa854b3f8f540eaf96944e02b901000000000000000000000000000000000000000000000000000000000000000000000000000000000000000000000000000000000000000000000000000000000000000000000000000000000000000000000000000000000000000000000000000000000000000000000000000000000000000000000000000000000000000000000000000000000000000000000000000000000000000000000000000000000000000000000000000000000000000000000000000000000000000000000000000000000000000000000000000000000000000000000000000000000000000000000000000000000000000000000000000000000000000000000000000000000083020000018405f5e100839f5dab8203e880a0eae3aaf6a11f14a955b72d536ef4123a805d5f80ac18c187df59a74d067a7dce881c31f14b3eeb7601f866f864800184013aab1394095e7baea6a6c7c4c2dfeb977efac326af552d87830186a0801ca0a5aea40d5172fccda45868e6131287caea167e620021316ac5ceca95b53255a9a06e97855c3468e8b54a435d1032254b9f2fa43f1c53eac70f81f6f4f5a92bd9dcc0",
                "transactions" : [
                    {
                        "data" : "0x",
                        "gasLimit" : "0x013aab13",
                        "gasPrice" : "0x01",
                        "nonce" : "0x00",
                        "r" : "0xa5aea40d5172fccda45868e6131287caea167e620021316ac5ceca95b53255a9",
                        "s" : "0x6e97855c3468e8b54a435d1032254b9f2fa43f1c53eac70f81f6f4f5a92bd9dc",
                        "to" : "0x095e7baea6a6c7c4c2dfeb977efac326af552d87",
                        "v" : "0x1c",
                        "value" : "0x0186a0"
                    }
                ],
                "uncleHeaders" : [
                ]
            }
        ],
        "genesisBlockHeader" : {
            "bloom" : "0x00000000000000000000000000000000000000000000000000000000000000000000000000000000000000000000000000000000000000000000000000000000000000000000000000000000000000000000000000000000000000000000000000000000000000000000000000000000000000000000000000000000000000000000000000000000000000000000000000000000000000000000000000000000000000000000000000000000000000000000000000000000000000000000000000000000000000000000000000000000000000000000000000000000000000000000000000000000000000000000000000000000000000000000000000000000",
            "coinbase" : "0x2adc25665018aa1fe0e6bc666dac8fc2697ff9ba",
            "difficulty" : "0x020000",
            "extraData" : "0x42",
            "gasLimit" : "0x05f5e100",
            "gasUsed" : "0x00",
            "hash" : "0xcb7223722ffdfdd7d47f6e4df25666466582faa1452801beca1e8eead83f679a",
            "mixHash" : "0x56e81f171bcc55a6ff8345e692c0f86e5b48e01b996cadc001622fb5e363b421",
            "nonce" : "0x0102030405060708",
            "number" : "0x00",
            "parentHash" : "0x0000000000000000000000000000000000000000000000000000000000000000",
            "receiptTrie" : "0x56e81f171bcc55a6ff8345e692c0f86e5b48e01b996cadc001622fb5e363b421",
            "stateRoot" : "0xc6e45dad242b3ac3e57c3f4187cefc2007f0b19a3c195e7da6b9769c6abb1b68",
            "timestamp" : "0x03b6",
            "transactionsTrie" : "0x56e81f171bcc55a6ff8345e692c0f86e5b48e01b996cadc001622fb5e363b421",
            "uncleHash" : "0x1dcc4de8dec75d7aab85b567b6ccd41ad312451b948a7413f0a142fd40d49347"
        },
        "genesisRLP" : "0xf901fbf901f6a00000000000000000000000000000000000000000000000000000000000000000a01dcc4de8dec75d7aab85b567b6ccd41ad312451b948a7413f0a142fd40d49347942adc25665018aa1fe0e6bc666dac8fc2697ff9baa0c6e45dad242b3ac3e57c3f4187cefc2007f0b19a3c195e7da6b9769c6abb1b68a056e81f171bcc55a6ff8345e692c0f86e5b48e01b996cadc001622fb5e363b421a056e81f171bcc55a6ff8345e692c0f86e5b48e01b996cadc001622fb5e363b421b901000000000000000000000000000000000000000000000000000000000000000000000000000000000000000000000000000000000000000000000000000000000000000000000000000000000000000000000000000000000000000000000000000000000000000000000000000000000000000000000000000000000000000000000000000000000000000000000000000000000000000000000000000000000000000000000000000000000000000000000000000000000000000000000000000000000000000000000000000000000000000000000000000000000000000000000000000000000000000000000000000000000000000000000000000000000083020000808405f5e100808203b642a056e81f171bcc55a6ff8345e692c0f86e5b48e01b996cadc001622fb5e363b421880102030405060708c0c0",
        "lastblockhash" : "0xcf16fb38acbafc4b0bcdc5728c9cdb3143d8a7cd42a9afdde00a41df522a9113",
        "network" : "Frontier",
        "postState" : {
            "0x095e7baea6a6c7c4c2dfeb977efac326af552d87" : {
                "balance" : "0x0132b3a0",
                "code" : "0x6001600054016000556000600060006000600030613a985a03f1600155",
                "nonce" : "0x00",
                "storage" : {
                    "0x00" : "0x0400",
                    "0x01" : "0x01"
                }
            },
            "0x2adc25665018aa1fe0e6bc666dac8fc2697ff9ba" : {
                "balance" : "0x4563918245935dab",
                "code" : "",
                "nonce" : "0x00",
                "storage" : {
                }
            },
            "0xa94f5374fce5edbc8e2a8697c15331677e6ebf0b" : {
                "balance" : "0x0de0b6b3a6c31bb5",
                "code" : "",
                "nonce" : "0x01",
                "storage" : {
                }
            }
        },
        "pre" : {
            "0x095e7baea6a6c7c4c2dfeb977efac326af552d87" : {
                "balance" : "0x01312d00",
                "code" : "0x6001600054016000556000600060006000600030613a985a03f1600155",
                "nonce" : "0x00",
                "storage" : {
                }
            },
            "0xa94f5374fce5edbc8e2a8697c15331677e6ebf0b" : {
                "balance" : "0x0de0b6b3a7640000",
                "code" : "",
                "nonce" : "0x00",
                "storage" : {
                }
            }
        }
    },
    "CallRecursiveBomb2_d0g0v0_Homestead" : {
        "_info" : {
            "comment" : "",
            "filledwith" : "cpp-1.3.0+commit.ee0c6776.Linux.g++",
            "lllcversion" : "Version: 0.4.20-develop.2018.2.4+commit.c696803f.Linux.g++",
            "source" : "src/BlockchainTestsFiller/GeneralStateTests/stSystemOperationsTest/CallRecursiveBomb2_d0g0v0Filler.json",
            "sourceHash" : "b4f3aed11e0921be287bae7c3708f20a721353340df9f9cbab9365f5711327ca"
        },
        "blocks" : [
            {
                "blockHeader" : {
                    "bloom" : "0x00000000000000000000000000000000000000000000000000000000000000000000000000000000000000000000000000000000000000000000000000000000000000000000000000000000000000000000000000000000000000000000000000000000000000000000000000000000000000000000000000000000000000000000000000000000000000000000000000000000000000000000000000000000000000000000000000000000000000000000000000000000000000000000000000000000000000000000000000000000000000000000000000000000000000000000000000000000000000000000000000000000000000000000000000000000",
                    "coinbase" : "0x2adc25665018aa1fe0e6bc666dac8fc2697ff9ba",
                    "difficulty" : "0x020000",
                    "extraData" : "",
                    "gasLimit" : "0x05f5e100",
                    "gasUsed" : "0x9f5dab",
                    "hash" : "0x3017961f8a168fb963c534f393876a36f7d81ca3dacb6c506e63c460e42e34f4",
                    "mixHash" : "0x55d668593df5e19be23d0f4a7841773c083a36f7e52eed8233bd2e2da7e5d2bb",
                    "nonce" : "0xee9449cd6b214681",
                    "number" : "0x01",
                    "parentHash" : "0xcb7223722ffdfdd7d47f6e4df25666466582faa1452801beca1e8eead83f679a",
                    "receiptTrie" : "0x60ee18adea1ab6e076fda4d6b3c6cc456fee4387fa854b3f8f540eaf96944e02",
                    "stateRoot" : "0xe1dab255a8b4c93d6183e88484bddbd6152e87ff3a6374780d8207be5056d4a3",
                    "timestamp" : "0x03e8",
                    "transactionsTrie" : "0x92a113ec22ec1413985030a03b2eff5a4b4c203d7ce89c73ead2a1e8bc3f4b3d",
                    "uncleHash" : "0x1dcc4de8dec75d7aab85b567b6ccd41ad312451b948a7413f0a142fd40d49347"
                },
                "rlp" : "0xf90265f901f9a0cb7223722ffdfdd7d47f6e4df25666466582faa1452801beca1e8eead83f679aa01dcc4de8dec75d7aab85b567b6ccd41ad312451b948a7413f0a142fd40d49347942adc25665018aa1fe0e6bc666dac8fc2697ff9baa0e1dab255a8b4c93d6183e88484bddbd6152e87ff3a6374780d8207be5056d4a3a092a113ec22ec1413985030a03b2eff5a4b4c203d7ce89c73ead2a1e8bc3f4b3da060ee18adea1ab6e076fda4d6b3c6cc456fee4387fa854b3f8f540eaf96944e02b901000000000000000000000000000000000000000000000000000000000000000000000000000000000000000000000000000000000000000000000000000000000000000000000000000000000000000000000000000000000000000000000000000000000000000000000000000000000000000000000000000000000000000000000000000000000000000000000000000000000000000000000000000000000000000000000000000000000000000000000000000000000000000000000000000000000000000000000000000000000000000000000000000000000000000000000000000000000000000000000000000000000000000000000000000000000083020000018405f5e100839f5dab8203e880a055d668593df5e19be23d0f4a7841773c083a36f7e52eed8233bd2e2da7e5d2bb88ee9449cd6b214681f866f864800184013aab1394095e7baea6a6c7c4c2dfeb977efac326af552d87830186a0801ca0a5aea40d5172fccda45868e6131287caea167e620021316ac5ceca95b53255a9a06e97855c3468e8b54a435d1032254b9f2fa43f1c53eac70f81f6f4f5a92bd9dcc0",
                "transactions" : [
                    {
                        "data" : "0x",
                        "gasLimit" : "0x013aab13",
                        "gasPrice" : "0x01",
                        "nonce" : "0x00",
                        "r" : "0xa5aea40d5172fccda45868e6131287caea167e620021316ac5ceca95b53255a9",
                        "s" : "0x6e97855c3468e8b54a435d1032254b9f2fa43f1c53eac70f81f6f4f5a92bd9dc",
                        "to" : "0x095e7baea6a6c7c4c2dfeb977efac326af552d87",
                        "v" : "0x1c",
                        "value" : "0x0186a0"
                    }
                ],
                "uncleHeaders" : [
                ]
            }
        ],
        "genesisBlockHeader" : {
            "bloom" : "0x00000000000000000000000000000000000000000000000000000000000000000000000000000000000000000000000000000000000000000000000000000000000000000000000000000000000000000000000000000000000000000000000000000000000000000000000000000000000000000000000000000000000000000000000000000000000000000000000000000000000000000000000000000000000000000000000000000000000000000000000000000000000000000000000000000000000000000000000000000000000000000000000000000000000000000000000000000000000000000000000000000000000000000000000000000000",
            "coinbase" : "0x2adc25665018aa1fe0e6bc666dac8fc2697ff9ba",
            "difficulty" : "0x020000",
            "extraData" : "0x42",
            "gasLimit" : "0x05f5e100",
            "gasUsed" : "0x00",
            "hash" : "0xcb7223722ffdfdd7d47f6e4df25666466582faa1452801beca1e8eead83f679a",
            "mixHash" : "0x56e81f171bcc55a6ff8345e692c0f86e5b48e01b996cadc001622fb5e363b421",
            "nonce" : "0x0102030405060708",
            "number" : "0x00",
            "parentHash" : "0x0000000000000000000000000000000000000000000000000000000000000000",
            "receiptTrie" : "0x56e81f171bcc55a6ff8345e692c0f86e5b48e01b996cadc001622fb5e363b421",
            "stateRoot" : "0xc6e45dad242b3ac3e57c3f4187cefc2007f0b19a3c195e7da6b9769c6abb1b68",
            "timestamp" : "0x03b6",
            "transactionsTrie" : "0x56e81f171bcc55a6ff8345e692c0f86e5b48e01b996cadc001622fb5e363b421",
            "uncleHash" : "0x1dcc4de8dec75d7aab85b567b6ccd41ad312451b948a7413f0a142fd40d49347"
        },
        "genesisRLP" : "0xf901fbf901f6a00000000000000000000000000000000000000000000000000000000000000000a01dcc4de8dec75d7aab85b567b6ccd41ad312451b948a7413f0a142fd40d49347942adc25665018aa1fe0e6bc666dac8fc2697ff9baa0c6e45dad242b3ac3e57c3f4187cefc2007f0b19a3c195e7da6b9769c6abb1b68a056e81f171bcc55a6ff8345e692c0f86e5b48e01b996cadc001622fb5e363b421a056e81f171bcc55a6ff8345e692c0f86e5b48e01b996cadc001622fb5e363b421b901000000000000000000000000000000000000000000000000000000000000000000000000000000000000000000000000000000000000000000000000000000000000000000000000000000000000000000000000000000000000000000000000000000000000000000000000000000000000000000000000000000000000000000000000000000000000000000000000000000000000000000000000000000000000000000000000000000000000000000000000000000000000000000000000000000000000000000000000000000000000000000000000000000000000000000000000000000000000000000000000000000000000000000000000000000000083020000808405f5e100808203b642a056e81f171bcc55a6ff8345e692c0f86e5b48e01b996cadc001622fb5e363b421880102030405060708c0c0",
        "lastblockhash" : "0x3017961f8a168fb963c534f393876a36f7d81ca3dacb6c506e63c460e42e34f4",
        "network" : "Homestead",
        "postState" : {
            "0x095e7baea6a6c7c4c2dfeb977efac326af552d87" : {
                "balance" : "0x0132b3a0",
                "code" : "0x6001600054016000556000600060006000600030613a985a03f1600155",
                "nonce" : "0x00",
                "storage" : {
                    "0x00" : "0x0400",
                    "0x01" : "0x01"
                }
            },
            "0x2adc25665018aa1fe0e6bc666dac8fc2697ff9ba" : {
                "balance" : "0x4563918245935dab",
                "code" : "",
                "nonce" : "0x00",
                "storage" : {
                }
            },
            "0xa94f5374fce5edbc8e2a8697c15331677e6ebf0b" : {
                "balance" : "0x0de0b6b3a6c31bb5",
                "code" : "",
                "nonce" : "0x01",
                "storage" : {
                }
            }
        },
        "pre" : {
            "0x095e7baea6a6c7c4c2dfeb977efac326af552d87" : {
                "balance" : "0x01312d00",
                "code" : "0x6001600054016000556000600060006000600030613a985a03f1600155",
                "nonce" : "0x00",
                "storage" : {
                }
            },
            "0xa94f5374fce5edbc8e2a8697c15331677e6ebf0b" : {
                "balance" : "0x0de0b6b3a7640000",
                "code" : "",
                "nonce" : "0x00",
                "storage" : {
                }
            }
        }
    }
}