{
    "CallRecursiveBomb0_OOG_atMaxCallDepth_d0g0v0_EIP150" : {
        "_info" : {
            "comment" : "",
            "filledwith" : "cpp-1.3.0+commit.16292201.Linux.g++",
            "source" : "/src/GenStateTestAsBcTemp/stSystemOperationsTest/CallRecursiveBomb0_OOG_atMaxCallDepth_d0g0v0Filler.json"
        },
        "blocks" : [
            {
                "blockHeader" : {
                    "bloom" : "0x00000000000000000000000000000000000000000000000000000000000000000000000000000000000000000000000000000000000000000000000000000000000000000000000000000000000000000000000000000000000000000000000000000000000000000000000000000000000000000000000000000000000000000000000000000000000000000000000000000000000000000000000000000000000000000000000000000000000000000000000000000000000000000000000000000000000000000000000000000000000000000000000000000000000000000000000000000000000000000000000000000000000000000000000000000000",
                    "coinbase" : "0x2adc25665018aa1fe0e6bc666dac8fc2697ff9ba",
                    "difficulty" : "0x020000",
                    "extraData" : "",
                    "gasLimit" : "0x174876e800",
                    "gasUsed" : "0xbd0784",
                    "hash" : "0x8bf04703389cfb1c5a570c89194d60d4466e6c74f3af99c6e6783ca9b91a6ed9",
                    "mixHash" : "0x639d5021130d28c71a5e5d031cf248f76fbf970e39e4723e505dc24ac59f8df3",
                    "nonce" : "0x34c294b094907229",
                    "number" : "0x01",
                    "parentHash" : "0x65d0621810c7240fffa5ed8a82deb0e8e52e08377708609493f2f2ee5ec744ea",
                    "receiptTrie" : "0x5a82d687c1ce137937ab65ccb1bd5c9fc022a6760f5623f7b7b5eee30f8046d3",
                    "stateRoot" : "0xee998c388dd1f130068f2f2c43ac8703fb5199b3c45ed15c48f586c12b86103a",
                    "timestamp" : "0x03e8",
                    "transactionsTrie" : "0x8142facf78a0c297605975c0bafd8dd1c44a5b12a5dd301eb28c838012f40d45",
                    "uncleHash" : "0x1dcc4de8dec75d7aab85b567b6ccd41ad312451b948a7413f0a142fd40d49347"
                },
                "rlp" : "0xf90267f901faa065d0621810c7240fffa5ed8a82deb0e8e52e08377708609493f2f2ee5ec744eaa01dcc4de8dec75d7aab85b567b6ccd41ad312451b948a7413f0a142fd40d49347942adc25665018aa1fe0e6bc666dac8fc2697ff9baa0ee998c388dd1f130068f2f2c43ac8703fb5199b3c45ed15c48f586c12b86103aa08142facf78a0c297605975c0bafd8dd1c44a5b12a5dd301eb28c838012f40d45a05a82d687c1ce137937ab65ccb1bd5c9fc022a6760f5623f7b7b5eee30f8046d3b9010000000000000000000000000000000000000000000000000000000000000000000000000000000000000000000000000000000000000000000000000000000000000000000000000000000000000000000000000000000000000000000000000000000000000000000000000000000000000000000000000000000000000000000000000000000000000000000000000000000000000000000000000000000000000000000000000000000000000000000000000000000000000000000000000000000000000000000000000000000000000000000000000000000000000000000000000000000000000000000000000000000000000000000000000000000000830200000185174876e80083bd07848203e880a0639d5021130d28c71a5e5d031cf248f76fbf970e39e4723e505dc24ac59f8df38834c294b094907229f867f865800185174876e80094095e7baea6a6c7c4c2dfeb977efac326af552d87830186a0801ba08d7c90b40aa480690567f2164cadc34d594034c1639a21673e8d631b3be329b4a02419a61378d5124210c5b258a5394a121f0cdf5496a21c0d0e8428d9ffe099edc0",
                "transactions" : [
                    {
                        "data" : "",
                        "gasLimit" : "0x174876e800",
                        "gasPrice" : "0x01",
                        "nonce" : "0x00",
                        "r" : "0x8d7c90b40aa480690567f2164cadc34d594034c1639a21673e8d631b3be329b4",
                        "s" : "0x2419a61378d5124210c5b258a5394a121f0cdf5496a21c0d0e8428d9ffe099ed",
                        "to" : "0x095e7baea6a6c7c4c2dfeb977efac326af552d87",
                        "v" : "0x1b",
                        "value" : "0x0186a0"
                    }
                ],
                "uncleHeaders" : [
                ]
            }
        ],
        "genesisBlockHeader" : {
            "bloom" : "0x00000000000000000000000000000000000000000000000000000000000000000000000000000000000000000000000000000000000000000000000000000000000000000000000000000000000000000000000000000000000000000000000000000000000000000000000000000000000000000000000000000000000000000000000000000000000000000000000000000000000000000000000000000000000000000000000000000000000000000000000000000000000000000000000000000000000000000000000000000000000000000000000000000000000000000000000000000000000000000000000000000000000000000000000000000000",
            "coinbase" : "0x2adc25665018aa1fe0e6bc666dac8fc2697ff9ba",
            "difficulty" : "0x020000",
            "extraData" : "0x42",
            "gasLimit" : "0x174876e800",
            "gasUsed" : "0x00",
            "hash" : "0x65d0621810c7240fffa5ed8a82deb0e8e52e08377708609493f2f2ee5ec744ea",
            "mixHash" : "0x56e81f171bcc55a6ff8345e692c0f86e5b48e01b996cadc001622fb5e363b421",
            "nonce" : "0x0102030405060708",
            "number" : "0x00",
            "parentHash" : "0x0000000000000000000000000000000000000000000000000000000000000000",
            "receiptTrie" : "0x56e81f171bcc55a6ff8345e692c0f86e5b48e01b996cadc001622fb5e363b421",
            "stateRoot" : "0xe396fcba8075cf4e080bd2ccc07c00b1f42a1322e2fc578ecb80681713c97cf8",
            "timestamp" : "0x03b6",
            "transactionsTrie" : "0x56e81f171bcc55a6ff8345e692c0f86e5b48e01b996cadc001622fb5e363b421",
            "uncleHash" : "0x1dcc4de8dec75d7aab85b567b6ccd41ad312451b948a7413f0a142fd40d49347"
        },
        "genesisRLP" : "0xf901fcf901f7a00000000000000000000000000000000000000000000000000000000000000000a01dcc4de8dec75d7aab85b567b6ccd41ad312451b948a7413f0a142fd40d49347942adc25665018aa1fe0e6bc666dac8fc2697ff9baa0e396fcba8075cf4e080bd2ccc07c00b1f42a1322e2fc578ecb80681713c97cf8a056e81f171bcc55a6ff8345e692c0f86e5b48e01b996cadc001622fb5e363b421a056e81f171bcc55a6ff8345e692c0f86e5b48e01b996cadc001622fb5e363b421b9010000000000000000000000000000000000000000000000000000000000000000000000000000000000000000000000000000000000000000000000000000000000000000000000000000000000000000000000000000000000000000000000000000000000000000000000000000000000000000000000000000000000000000000000000000000000000000000000000000000000000000000000000000000000000000000000000000000000000000000000000000000000000000000000000000000000000000000000000000000000000000000000000000000000000000000000000000000000000000000000000000000000000000000000000000000000830200008085174876e800808203b642a056e81f171bcc55a6ff8345e692c0f86e5b48e01b996cadc001622fb5e363b421880102030405060708c0c0",
        "lastblockhash" : "0x8bf04703389cfb1c5a570c89194d60d4466e6c74f3af99c6e6783ca9b91a6ed9",
        "network" : "EIP150",
        "postState" : {
            "0x095e7baea6a6c7c4c2dfeb977efac326af552d87" : {
                "balance" : "0x0132b3a0",
                "code" : "0x600160005401600055690fffffffffffffffffff610402600054040260025560006000690fffffffffffffffffff610402600054040260006000306104005a03f1600155",
                "nonce" : "0x00",
                "storage" : {
                    "0x00" : "0x02c1",
                    "0x01" : "0x01"
                }
            },
            "0x2adc25665018aa1fe0e6bc666dac8fc2697ff9ba" : {
                "balance" : "0x4563918245b10784",
                "code" : "",
                "nonce" : "0x00",
                "storage" : {
                }
            },
            "0xa94f5374fce5edbc8e2a8697c15331677e6ebf0b" : {
                "balance" : "0x0de0b6b3a6a571dc",
                "code" : "",
                "nonce" : "0x01",
                "storage" : {
                }
            }
        },
        "pre" : {
            "0x095e7baea6a6c7c4c2dfeb977efac326af552d87" : {
                "balance" : "0x01312d00",
                "code" : "0x600160005401600055690fffffffffffffffffff610402600054040260025560006000690fffffffffffffffffff610402600054040260006000306104005a03f1600155",
                "nonce" : "0x00",
                "storage" : {
                }
            },
            "0xa94f5374fce5edbc8e2a8697c15331677e6ebf0b" : {
                "balance" : "0x0de0b6b3a7640000",
                "code" : "",
                "nonce" : "0x00",
                "storage" : {
                }
            }
        }
    },
    "CallRecursiveBomb0_OOG_atMaxCallDepth_d0g0v0_EIP158" : {
        "_info" : {
            "comment" : "",
            "filledwith" : "cpp-1.3.0+commit.16292201.Linux.g++",
            "source" : "/src/GenStateTestAsBcTemp/stSystemOperationsTest/CallRecursiveBomb0_OOG_atMaxCallDepth_d0g0v0Filler.json"
        },
        "blocks" : [
            {
                "blockHeader" : {
                    "bloom" : "0x00000000000000000000000000000000000000000000000000000000000000000000000000000000000000000000000000000000000000000000000000000000000000000000000000000000000000000000000000000000000000000000000000000000000000000000000000000000000000000000000000000000000000000000000000000000000000000000000000000000000000000000000000000000000000000000000000000000000000000000000000000000000000000000000000000000000000000000000000000000000000000000000000000000000000000000000000000000000000000000000000000000000000000000000000000000",
                    "coinbase" : "0x2adc25665018aa1fe0e6bc666dac8fc2697ff9ba",
                    "difficulty" : "0x020000",
                    "extraData" : "",
                    "gasLimit" : "0x174876e800",
                    "gasUsed" : "0xbd0784",
                    "hash" : "0x6715e94c6eb575fea28ace0a0f7071b4f456a8eacbe45ab86b8714b013593b57",
                    "mixHash" : "0x56f47088925ced3efb3645062ad8f328e21b0b26629d7cf74f19f0bc65008d0b",
                    "nonce" : "0xa1f00fd847346fcd",
                    "number" : "0x01",
                    "parentHash" : "0x65d0621810c7240fffa5ed8a82deb0e8e52e08377708609493f2f2ee5ec744ea",
                    "receiptTrie" : "0x5a82d687c1ce137937ab65ccb1bd5c9fc022a6760f5623f7b7b5eee30f8046d3",
                    "stateRoot" : "0xee998c388dd1f130068f2f2c43ac8703fb5199b3c45ed15c48f586c12b86103a",
                    "timestamp" : "0x03e8",
                    "transactionsTrie" : "0x8142facf78a0c297605975c0bafd8dd1c44a5b12a5dd301eb28c838012f40d45",
                    "uncleHash" : "0x1dcc4de8dec75d7aab85b567b6ccd41ad312451b948a7413f0a142fd40d49347"
                },
                "rlp" : "0xf90267f901faa065d0621810c7240fffa5ed8a82deb0e8e52e08377708609493f2f2ee5ec744eaa01dcc4de8dec75d7aab85b567b6ccd41ad312451b948a7413f0a142fd40d49347942adc25665018aa1fe0e6bc666dac8fc2697ff9baa0ee998c388dd1f130068f2f2c43ac8703fb5199b3c45ed15c48f586c12b86103aa08142facf78a0c297605975c0bafd8dd1c44a5b12a5dd301eb28c838012f40d45a05a82d687c1ce137937ab65ccb1bd5c9fc022a6760f5623f7b7b5eee30f8046d3b9010000000000000000000000000000000000000000000000000000000000000000000000000000000000000000000000000000000000000000000000000000000000000000000000000000000000000000000000000000000000000000000000000000000000000000000000000000000000000000000000000000000000000000000000000000000000000000000000000000000000000000000000000000000000000000000000000000000000000000000000000000000000000000000000000000000000000000000000000000000000000000000000000000000000000000000000000000000000000000000000000000000000000000000000000000000000830200000185174876e80083bd07848203e880a056f47088925ced3efb3645062ad8f328e21b0b26629d7cf74f19f0bc65008d0b88a1f00fd847346fcdf867f865800185174876e80094095e7baea6a6c7c4c2dfeb977efac326af552d87830186a0801ba08d7c90b40aa480690567f2164cadc34d594034c1639a21673e8d631b3be329b4a02419a61378d5124210c5b258a5394a121f0cdf5496a21c0d0e8428d9ffe099edc0",
                "transactions" : [
                    {
                        "data" : "",
                        "gasLimit" : "0x174876e800",
                        "gasPrice" : "0x01",
                        "nonce" : "0x00",
                        "r" : "0x8d7c90b40aa480690567f2164cadc34d594034c1639a21673e8d631b3be329b4",
                        "s" : "0x2419a61378d5124210c5b258a5394a121f0cdf5496a21c0d0e8428d9ffe099ed",
                        "to" : "0x095e7baea6a6c7c4c2dfeb977efac326af552d87",
                        "v" : "0x1b",
                        "value" : "0x0186a0"
                    }
                ],
                "uncleHeaders" : [
                ]
            }
        ],
        "genesisBlockHeader" : {
            "bloom" : "0x00000000000000000000000000000000000000000000000000000000000000000000000000000000000000000000000000000000000000000000000000000000000000000000000000000000000000000000000000000000000000000000000000000000000000000000000000000000000000000000000000000000000000000000000000000000000000000000000000000000000000000000000000000000000000000000000000000000000000000000000000000000000000000000000000000000000000000000000000000000000000000000000000000000000000000000000000000000000000000000000000000000000000000000000000000000",
            "coinbase" : "0x2adc25665018aa1fe0e6bc666dac8fc2697ff9ba",
            "difficulty" : "0x020000",
            "extraData" : "0x42",
            "gasLimit" : "0x174876e800",
            "gasUsed" : "0x00",
            "hash" : "0x65d0621810c7240fffa5ed8a82deb0e8e52e08377708609493f2f2ee5ec744ea",
            "mixHash" : "0x56e81f171bcc55a6ff8345e692c0f86e5b48e01b996cadc001622fb5e363b421",
            "nonce" : "0x0102030405060708",
            "number" : "0x00",
            "parentHash" : "0x0000000000000000000000000000000000000000000000000000000000000000",
            "receiptTrie" : "0x56e81f171bcc55a6ff8345e692c0f86e5b48e01b996cadc001622fb5e363b421",
            "stateRoot" : "0xe396fcba8075cf4e080bd2ccc07c00b1f42a1322e2fc578ecb80681713c97cf8",
            "timestamp" : "0x03b6",
            "transactionsTrie" : "0x56e81f171bcc55a6ff8345e692c0f86e5b48e01b996cadc001622fb5e363b421",
            "uncleHash" : "0x1dcc4de8dec75d7aab85b567b6ccd41ad312451b948a7413f0a142fd40d49347"
        },
        "genesisRLP" : "0xf901fcf901f7a00000000000000000000000000000000000000000000000000000000000000000a01dcc4de8dec75d7aab85b567b6ccd41ad312451b948a7413f0a142fd40d49347942adc25665018aa1fe0e6bc666dac8fc2697ff9baa0e396fcba8075cf4e080bd2ccc07c00b1f42a1322e2fc578ecb80681713c97cf8a056e81f171bcc55a6ff8345e692c0f86e5b48e01b996cadc001622fb5e363b421a056e81f171bcc55a6ff8345e692c0f86e5b48e01b996cadc001622fb5e363b421b9010000000000000000000000000000000000000000000000000000000000000000000000000000000000000000000000000000000000000000000000000000000000000000000000000000000000000000000000000000000000000000000000000000000000000000000000000000000000000000000000000000000000000000000000000000000000000000000000000000000000000000000000000000000000000000000000000000000000000000000000000000000000000000000000000000000000000000000000000000000000000000000000000000000000000000000000000000000000000000000000000000000000000000000000000000000000830200008085174876e800808203b642a056e81f171bcc55a6ff8345e692c0f86e5b48e01b996cadc001622fb5e363b421880102030405060708c0c0",
        "lastblockhash" : "0x6715e94c6eb575fea28ace0a0f7071b4f456a8eacbe45ab86b8714b013593b57",
        "network" : "EIP158",
        "postState" : {
            "0x095e7baea6a6c7c4c2dfeb977efac326af552d87" : {
                "balance" : "0x0132b3a0",
                "code" : "0x600160005401600055690fffffffffffffffffff610402600054040260025560006000690fffffffffffffffffff610402600054040260006000306104005a03f1600155",
                "nonce" : "0x00",
                "storage" : {
                    "0x00" : "0x02c1",
                    "0x01" : "0x01"
                }
            },
            "0x2adc25665018aa1fe0e6bc666dac8fc2697ff9ba" : {
                "balance" : "0x4563918245b10784",
                "code" : "",
                "nonce" : "0x00",
                "storage" : {
                }
            },
            "0xa94f5374fce5edbc8e2a8697c15331677e6ebf0b" : {
                "balance" : "0x0de0b6b3a6a571dc",
                "code" : "",
                "nonce" : "0x01",
                "storage" : {
                }
            }
        },
        "pre" : {
            "0x095e7baea6a6c7c4c2dfeb977efac326af552d87" : {
                "balance" : "0x01312d00",
                "code" : "0x600160005401600055690fffffffffffffffffff610402600054040260025560006000690fffffffffffffffffff610402600054040260006000306104005a03f1600155",
                "nonce" : "0x00",
                "storage" : {
                }
            },
            "0xa94f5374fce5edbc8e2a8697c15331677e6ebf0b" : {
                "balance" : "0x0de0b6b3a7640000",
                "code" : "",
                "nonce" : "0x00",
                "storage" : {
                }
            }
        }
    },
    "CallRecursiveBomb0_OOG_atMaxCallDepth_d0g0v0_Frontier" : {
        "_info" : {
            "comment" : "",
            "filledwith" : "cpp-1.3.0+commit.16292201.Linux.g++",
            "source" : "/src/GenStateTestAsBcTemp/stSystemOperationsTest/CallRecursiveBomb0_OOG_atMaxCallDepth_d0g0v0Filler.json"
        },
        "blocks" : [
            {
                "blockHeader" : {
                    "bloom" : "0x00000000000000000000000000000000000000000000000000000000000000000000000000000000000000000000000000000000000000000000000000000000000000000000000000000000000000000000000000000000000000000000000000000000000000000000000000000000000000000000000000000000000000000000000000000000000000000000000000000000000000000000000000000000000000000000000000000000000000000000000000000000000000000000000000000000000000000000000000000000000000000000000000000000000000000000000000000000000000000000000000000000000000000000000000000000",
                    "coinbase" : "0x2adc25665018aa1fe0e6bc666dac8fc2697ff9ba",
                    "difficulty" : "0x020000",
                    "extraData" : "",
                    "gasLimit" : "0x174876e800",
                    "gasUsed" : "0xef92dc",
                    "hash" : "0x7738a6b057b2baa656ce97d058b13eabe65376c8fb6aade57ca22f2aa0bcdfa7",
                    "mixHash" : "0xabb606c959ecacd35aac68d55de571d399fb8aafc19e63acf18de50234fb045a",
                    "nonce" : "0x7e3a76892b1f7684",
                    "number" : "0x01",
                    "parentHash" : "0x65d0621810c7240fffa5ed8a82deb0e8e52e08377708609493f2f2ee5ec744ea",
                    "receiptTrie" : "0x8bdf26c62fed7f8a4bcfd44f8efee46dd557a7fdb3fa80ac452f70d0bb9c1d92",
                    "stateRoot" : "0x01dd25cf2883769ae931e609b880582a429b74760bb8aefbc2f358886745bd40",
                    "timestamp" : "0x03e8",
                    "transactionsTrie" : "0x8142facf78a0c297605975c0bafd8dd1c44a5b12a5dd301eb28c838012f40d45",
                    "uncleHash" : "0x1dcc4de8dec75d7aab85b567b6ccd41ad312451b948a7413f0a142fd40d49347"
                },
                "rlp" : "0xf90267f901faa065d0621810c7240fffa5ed8a82deb0e8e52e08377708609493f2f2ee5ec744eaa01dcc4de8dec75d7aab85b567b6ccd41ad312451b948a7413f0a142fd40d49347942adc25665018aa1fe0e6bc666dac8fc2697ff9baa001dd25cf2883769ae931e609b880582a429b74760bb8aefbc2f358886745bd40a08142facf78a0c297605975c0bafd8dd1c44a5b12a5dd301eb28c838012f40d45a08bdf26c62fed7f8a4bcfd44f8efee46dd557a7fdb3fa80ac452f70d0bb9c1d92b9010000000000000000000000000000000000000000000000000000000000000000000000000000000000000000000000000000000000000000000000000000000000000000000000000000000000000000000000000000000000000000000000000000000000000000000000000000000000000000000000000000000000000000000000000000000000000000000000000000000000000000000000000000000000000000000000000000000000000000000000000000000000000000000000000000000000000000000000000000000000000000000000000000000000000000000000000000000000000000000000000000000000000000000000000000000000830200000185174876e80083ef92dc8203e880a0abb606c959ecacd35aac68d55de571d399fb8aafc19e63acf18de50234fb045a887e3a76892b1f7684f867f865800185174876e80094095e7baea6a6c7c4c2dfeb977efac326af552d87830186a0801ba08d7c90b40aa480690567f2164cadc34d594034c1639a21673e8d631b3be329b4a02419a61378d5124210c5b258a5394a121f0cdf5496a21c0d0e8428d9ffe099edc0",
                "transactions" : [
                    {
                        "data" : "",
                        "gasLimit" : "0x174876e800",
                        "gasPrice" : "0x01",
                        "nonce" : "0x00",
                        "r" : "0x8d7c90b40aa480690567f2164cadc34d594034c1639a21673e8d631b3be329b4",
                        "s" : "0x2419a61378d5124210c5b258a5394a121f0cdf5496a21c0d0e8428d9ffe099ed",
                        "to" : "0x095e7baea6a6c7c4c2dfeb977efac326af552d87",
                        "v" : "0x1b",
                        "value" : "0x0186a0"
                    }
                ],
                "uncleHeaders" : [
                ]
            }
        ],
        "genesisBlockHeader" : {
            "bloom" : "0x00000000000000000000000000000000000000000000000000000000000000000000000000000000000000000000000000000000000000000000000000000000000000000000000000000000000000000000000000000000000000000000000000000000000000000000000000000000000000000000000000000000000000000000000000000000000000000000000000000000000000000000000000000000000000000000000000000000000000000000000000000000000000000000000000000000000000000000000000000000000000000000000000000000000000000000000000000000000000000000000000000000000000000000000000000000",
            "coinbase" : "0x2adc25665018aa1fe0e6bc666dac8fc2697ff9ba",
            "difficulty" : "0x020000",
            "extraData" : "0x42",
            "gasLimit" : "0x174876e800",
            "gasUsed" : "0x00",
            "hash" : "0x65d0621810c7240fffa5ed8a82deb0e8e52e08377708609493f2f2ee5ec744ea",
            "mixHash" : "0x56e81f171bcc55a6ff8345e692c0f86e5b48e01b996cadc001622fb5e363b421",
            "nonce" : "0x0102030405060708",
            "number" : "0x00",
            "parentHash" : "0x0000000000000000000000000000000000000000000000000000000000000000",
            "receiptTrie" : "0x56e81f171bcc55a6ff8345e692c0f86e5b48e01b996cadc001622fb5e363b421",
            "stateRoot" : "0xe396fcba8075cf4e080bd2ccc07c00b1f42a1322e2fc578ecb80681713c97cf8",
            "timestamp" : "0x03b6",
            "transactionsTrie" : "0x56e81f171bcc55a6ff8345e692c0f86e5b48e01b996cadc001622fb5e363b421",
            "uncleHash" : "0x1dcc4de8dec75d7aab85b567b6ccd41ad312451b948a7413f0a142fd40d49347"
        },
        "genesisRLP" : "0xf901fcf901f7a00000000000000000000000000000000000000000000000000000000000000000a01dcc4de8dec75d7aab85b567b6ccd41ad312451b948a7413f0a142fd40d49347942adc25665018aa1fe0e6bc666dac8fc2697ff9baa0e396fcba8075cf4e080bd2ccc07c00b1f42a1322e2fc578ecb80681713c97cf8a056e81f171bcc55a6ff8345e692c0f86e5b48e01b996cadc001622fb5e363b421a056e81f171bcc55a6ff8345e692c0f86e5b48e01b996cadc001622fb5e363b421b9010000000000000000000000000000000000000000000000000000000000000000000000000000000000000000000000000000000000000000000000000000000000000000000000000000000000000000000000000000000000000000000000000000000000000000000000000000000000000000000000000000000000000000000000000000000000000000000000000000000000000000000000000000000000000000000000000000000000000000000000000000000000000000000000000000000000000000000000000000000000000000000000000000000000000000000000000000000000000000000000000000000000000000000000000000000000830200008085174876e800808203b642a056e81f171bcc55a6ff8345e692c0f86e5b48e01b996cadc001622fb5e363b421880102030405060708c0c0",
        "lastblockhash" : "0x7738a6b057b2baa656ce97d058b13eabe65376c8fb6aade57ca22f2aa0bcdfa7",
        "network" : "Frontier",
        "postState" : {
            "0x095e7baea6a6c7c4c2dfeb977efac326af552d87" : {
                "balance" : "0x0132b3a0",
                "code" : "0x600160005401600055690fffffffffffffffffff610402600054040260025560006000690fffffffffffffffffff610402600054040260006000306104005a03f1600155",
                "nonce" : "0x00",
                "storage" : {
                    "0x00" : "0x0401",
                    "0x01" : "0x01"
                }
            },
            "0x2adc25665018aa1fe0e6bc666dac8fc2697ff9ba" : {
                "balance" : "0x4563918245e392dc",
                "code" : "",
                "nonce" : "0x00",
                "storage" : {
                }
            },
            "0xa94f5374fce5edbc8e2a8697c15331677e6ebf0b" : {
                "balance" : "0x0de0b6b3a672e684",
                "code" : "",
                "nonce" : "0x01",
                "storage" : {
                }
            }
        },
        "pre" : {
            "0x095e7baea6a6c7c4c2dfeb977efac326af552d87" : {
                "balance" : "0x01312d00",
                "code" : "0x600160005401600055690fffffffffffffffffff610402600054040260025560006000690fffffffffffffffffff610402600054040260006000306104005a03f1600155",
                "nonce" : "0x00",
                "storage" : {
                }
            },
            "0xa94f5374fce5edbc8e2a8697c15331677e6ebf0b" : {
                "balance" : "0x0de0b6b3a7640000",
                "code" : "",
                "nonce" : "0x00",
                "storage" : {
                }
            }
        }
    },
    "CallRecursiveBomb0_OOG_atMaxCallDepth_d0g0v0_Homestead" : {
        "_info" : {
            "comment" : "",
            "filledwith" : "cpp-1.3.0+commit.16292201.Linux.g++",
            "source" : "/src/GenStateTestAsBcTemp/stSystemOperationsTest/CallRecursiveBomb0_OOG_atMaxCallDepth_d0g0v0Filler.json"
        },
        "blocks" : [
            {
                "blockHeader" : {
                    "bloom" : "0x00000000000000000000000000000000000000000000000000000000000000000000000000000000000000000000000000000000000000000000000000000000000000000000000000000000000000000000000000000000000000000000000000000000000000000000000000000000000000000000000000000000000000000000000000000000000000000000000000000000000000000000000000000000000000000000000000000000000000000000000000000000000000000000000000000000000000000000000000000000000000000000000000000000000000000000000000000000000000000000000000000000000000000000000000000000",
                    "coinbase" : "0x2adc25665018aa1fe0e6bc666dac8fc2697ff9ba",
                    "difficulty" : "0x020000",
                    "extraData" : "",
                    "gasLimit" : "0x174876e800",
                    "gasUsed" : "0xef92dc",
                    "hash" : "0x878f7855a6037b43f2d8e006c8418749ad9504d92e53cdc18276dbe615cd2530",
                    "mixHash" : "0xd0009127cec824695a898f01fe1fe405d4010cacc50b4eb0186d93d69d5a9a8d",
                    "nonce" : "0x1df6a267c78662ac",
                    "number" : "0x01",
                    "parentHash" : "0x65d0621810c7240fffa5ed8a82deb0e8e52e08377708609493f2f2ee5ec744ea",
                    "receiptTrie" : "0x8bdf26c62fed7f8a4bcfd44f8efee46dd557a7fdb3fa80ac452f70d0bb9c1d92",
                    "stateRoot" : "0x01dd25cf2883769ae931e609b880582a429b74760bb8aefbc2f358886745bd40",
                    "timestamp" : "0x03e8",
                    "transactionsTrie" : "0x8142facf78a0c297605975c0bafd8dd1c44a5b12a5dd301eb28c838012f40d45",
                    "uncleHash" : "0x1dcc4de8dec75d7aab85b567b6ccd41ad312451b948a7413f0a142fd40d49347"
                },
                "rlp" : "0xf90267f901faa065d0621810c7240fffa5ed8a82deb0e8e52e08377708609493f2f2ee5ec744eaa01dcc4de8dec75d7aab85b567b6ccd41ad312451b948a7413f0a142fd40d49347942adc25665018aa1fe0e6bc666dac8fc2697ff9baa001dd25cf2883769ae931e609b880582a429b74760bb8aefbc2f358886745bd40a08142facf78a0c297605975c0bafd8dd1c44a5b12a5dd301eb28c838012f40d45a08bdf26c62fed7f8a4bcfd44f8efee46dd557a7fdb3fa80ac452f70d0bb9c1d92b9010000000000000000000000000000000000000000000000000000000000000000000000000000000000000000000000000000000000000000000000000000000000000000000000000000000000000000000000000000000000000000000000000000000000000000000000000000000000000000000000000000000000000000000000000000000000000000000000000000000000000000000000000000000000000000000000000000000000000000000000000000000000000000000000000000000000000000000000000000000000000000000000000000000000000000000000000000000000000000000000000000000000000000000000000000000000830200000185174876e80083ef92dc8203e880a0d0009127cec824695a898f01fe1fe405d4010cacc50b4eb0186d93d69d5a9a8d881df6a267c78662acf867f865800185174876e80094095e7baea6a6c7c4c2dfeb977efac326af552d87830186a0801ba08d7c90b40aa480690567f2164cadc34d594034c1639a21673e8d631b3be329b4a02419a61378d5124210c5b258a5394a121f0cdf5496a21c0d0e8428d9ffe099edc0",
                "transactions" : [
                    {
                        "data" : "",
                        "gasLimit" : "0x174876e800",
                        "gasPrice" : "0x01",
                        "nonce" : "0x00",
                        "r" : "0x8d7c90b40aa480690567f2164cadc34d594034c1639a21673e8d631b3be329b4",
                        "s" : "0x2419a61378d5124210c5b258a5394a121f0cdf5496a21c0d0e8428d9ffe099ed",
                        "to" : "0x095e7baea6a6c7c4c2dfeb977efac326af552d87",
                        "v" : "0x1b",
                        "value" : "0x0186a0"
                    }
                ],
                "uncleHeaders" : [
                ]
            }
        ],
        "genesisBlockHeader" : {
            "bloom" : "0x00000000000000000000000000000000000000000000000000000000000000000000000000000000000000000000000000000000000000000000000000000000000000000000000000000000000000000000000000000000000000000000000000000000000000000000000000000000000000000000000000000000000000000000000000000000000000000000000000000000000000000000000000000000000000000000000000000000000000000000000000000000000000000000000000000000000000000000000000000000000000000000000000000000000000000000000000000000000000000000000000000000000000000000000000000000",
            "coinbase" : "0x2adc25665018aa1fe0e6bc666dac8fc2697ff9ba",
            "difficulty" : "0x020000",
            "extraData" : "0x42",
            "gasLimit" : "0x174876e800",
            "gasUsed" : "0x00",
            "hash" : "0x65d0621810c7240fffa5ed8a82deb0e8e52e08377708609493f2f2ee5ec744ea",
            "mixHash" : "0x56e81f171bcc55a6ff8345e692c0f86e5b48e01b996cadc001622fb5e363b421",
            "nonce" : "0x0102030405060708",
            "number" : "0x00",
            "parentHash" : "0x0000000000000000000000000000000000000000000000000000000000000000",
            "receiptTrie" : "0x56e81f171bcc55a6ff8345e692c0f86e5b48e01b996cadc001622fb5e363b421",
            "stateRoot" : "0xe396fcba8075cf4e080bd2ccc07c00b1f42a1322e2fc578ecb80681713c97cf8",
            "timestamp" : "0x03b6",
            "transactionsTrie" : "0x56e81f171bcc55a6ff8345e692c0f86e5b48e01b996cadc001622fb5e363b421",
            "uncleHash" : "0x1dcc4de8dec75d7aab85b567b6ccd41ad312451b948a7413f0a142fd40d49347"
        },
        "genesisRLP" : "0xf901fcf901f7a00000000000000000000000000000000000000000000000000000000000000000a01dcc4de8dec75d7aab85b567b6ccd41ad312451b948a7413f0a142fd40d49347942adc25665018aa1fe0e6bc666dac8fc2697ff9baa0e396fcba8075cf4e080bd2ccc07c00b1f42a1322e2fc578ecb80681713c97cf8a056e81f171bcc55a6ff8345e692c0f86e5b48e01b996cadc001622fb5e363b421a056e81f171bcc55a6ff8345e692c0f86e5b48e01b996cadc001622fb5e363b421b9010000000000000000000000000000000000000000000000000000000000000000000000000000000000000000000000000000000000000000000000000000000000000000000000000000000000000000000000000000000000000000000000000000000000000000000000000000000000000000000000000000000000000000000000000000000000000000000000000000000000000000000000000000000000000000000000000000000000000000000000000000000000000000000000000000000000000000000000000000000000000000000000000000000000000000000000000000000000000000000000000000000000000000000000000000000000830200008085174876e800808203b642a056e81f171bcc55a6ff8345e692c0f86e5b48e01b996cadc001622fb5e363b421880102030405060708c0c0",
        "lastblockhash" : "0x878f7855a6037b43f2d8e006c8418749ad9504d92e53cdc18276dbe615cd2530",
        "network" : "Homestead",
        "postState" : {
            "0x095e7baea6a6c7c4c2dfeb977efac326af552d87" : {
                "balance" : "0x0132b3a0",
                "code" : "0x600160005401600055690fffffffffffffffffff610402600054040260025560006000690fffffffffffffffffff610402600054040260006000306104005a03f1600155",
                "nonce" : "0x00",
                "storage" : {
                    "0x00" : "0x0401",
                    "0x01" : "0x01"
                }
            },
            "0x2adc25665018aa1fe0e6bc666dac8fc2697ff9ba" : {
                "balance" : "0x4563918245e392dc",
                "code" : "",
                "nonce" : "0x00",
                "storage" : {
                }
            },
            "0xa94f5374fce5edbc8e2a8697c15331677e6ebf0b" : {
                "balance" : "0x0de0b6b3a672e684",
                "code" : "",
                "nonce" : "0x01",
                "storage" : {
                }
            }
        },
        "pre" : {
            "0x095e7baea6a6c7c4c2dfeb977efac326af552d87" : {
                "balance" : "0x01312d00",
                "code" : "0x600160005401600055690fffffffffffffffffff610402600054040260025560006000690fffffffffffffffffff610402600054040260006000306104005a03f1600155",
                "nonce" : "0x00",
                "storage" : {
                }
            },
            "0xa94f5374fce5edbc8e2a8697c15331677e6ebf0b" : {
                "balance" : "0x0de0b6b3a7640000",
                "code" : "",
                "nonce" : "0x00",
                "storage" : {
                }
            }
        }
    },
    "CallRecursiveBomb0_OOG_atMaxCallDepth_d0g0v0_Metropolis" : {
        "_info" : {
            "comment" : "",
            "filledwith" : "cpp-1.3.0+commit.16292201.Linux.g++",
            "source" : "/src/GenStateTestAsBcTemp/stSystemOperationsTest/CallRecursiveBomb0_OOG_atMaxCallDepth_d0g0v0Filler.json"
        },
        "blocks" : [
            {
                "blockHeader" : {
                    "bloom" : "0x00000000000000000000000000000000000000000000000000000000000000000000000000000000000000000000000000000000000000000000000000000000000000000000000000000000000000000000000000000000000000000000000000000000000000000000000000000000000000000000000000000000000000000000000000000000000000000000000000000000000000000000000000000000000000000000000000000000000000000000000000000000000000000000000000000000000000000000000000000000000000000000000000000000000000000000000000000000000000000000000000000000000000000000000000000000",
                    "coinbase" : "0x2adc25665018aa1fe0e6bc666dac8fc2697ff9ba",
                    "difficulty" : "0x020000",
                    "extraData" : "",
                    "gasLimit" : "0x174876e800",
                    "gasUsed" : "0xbd0784",
                    "hash" : "0x5a060f1709cf6f2c78abc1acc3e66c0bd6ab82bd186b9ea86267e353826821c1",
                    "mixHash" : "0x81c7597a72a5c18f4cb4a58ef1857ee4a0afb93555c4b37546e531db11d3a09d",
                    "nonce" : "0xf387e6c37f2701ca",
                    "number" : "0x01",
                    "parentHash" : "0x65d0621810c7240fffa5ed8a82deb0e8e52e08377708609493f2f2ee5ec744ea",
                    "receiptTrie" : "0xf4168b726b9bc0d8ed3a71876201d28539e69ec96da403c957791cb34cdf499a",
                    "stateRoot" : "0x8e3bf9769f9267d6f96d4197e67f8f735fd27d07c86e0d5c89ac49fe069f7190",
                    "timestamp" : "0x03e8",
                    "transactionsTrie" : "0x8142facf78a0c297605975c0bafd8dd1c44a5b12a5dd301eb28c838012f40d45",
                    "uncleHash" : "0x1dcc4de8dec75d7aab85b567b6ccd41ad312451b948a7413f0a142fd40d49347"
                },
                "rlp" : "0xf90267f901faa065d0621810c7240fffa5ed8a82deb0e8e52e08377708609493f2f2ee5ec744eaa01dcc4de8dec75d7aab85b567b6ccd41ad312451b948a7413f0a142fd40d49347942adc25665018aa1fe0e6bc666dac8fc2697ff9baa08e3bf9769f9267d6f96d4197e67f8f735fd27d07c86e0d5c89ac49fe069f7190a08142facf78a0c297605975c0bafd8dd1c44a5b12a5dd301eb28c838012f40d45a0f4168b726b9bc0d8ed3a71876201d28539e69ec96da403c957791cb34cdf499ab9010000000000000000000000000000000000000000000000000000000000000000000000000000000000000000000000000000000000000000000000000000000000000000000000000000000000000000000000000000000000000000000000000000000000000000000000000000000000000000000000000000000000000000000000000000000000000000000000000000000000000000000000000000000000000000000000000000000000000000000000000000000000000000000000000000000000000000000000000000000000000000000000000000000000000000000000000000000000000000000000000000000000000000000000000000000000830200000185174876e80083bd07848203e880a081c7597a72a5c18f4cb4a58ef1857ee4a0afb93555c4b37546e531db11d3a09d88f387e6c37f2701caf867f865800185174876e80094095e7baea6a6c7c4c2dfeb977efac326af552d87830186a0801ba08d7c90b40aa480690567f2164cadc34d594034c1639a21673e8d631b3be329b4a02419a61378d5124210c5b258a5394a121f0cdf5496a21c0d0e8428d9ffe099edc0",
                "transactions" : [
                    {
                        "data" : "",
                        "gasLimit" : "0x174876e800",
                        "gasPrice" : "0x01",
                        "nonce" : "0x00",
                        "r" : "0x8d7c90b40aa480690567f2164cadc34d594034c1639a21673e8d631b3be329b4",
                        "s" : "0x2419a61378d5124210c5b258a5394a121f0cdf5496a21c0d0e8428d9ffe099ed",
                        "to" : "0x095e7baea6a6c7c4c2dfeb977efac326af552d87",
                        "v" : "0x1b",
                        "value" : "0x0186a0"
                    }
                ],
                "uncleHeaders" : [
                ]
            }
        ],
        "genesisBlockHeader" : {
            "bloom" : "0x00000000000000000000000000000000000000000000000000000000000000000000000000000000000000000000000000000000000000000000000000000000000000000000000000000000000000000000000000000000000000000000000000000000000000000000000000000000000000000000000000000000000000000000000000000000000000000000000000000000000000000000000000000000000000000000000000000000000000000000000000000000000000000000000000000000000000000000000000000000000000000000000000000000000000000000000000000000000000000000000000000000000000000000000000000000",
            "coinbase" : "0x2adc25665018aa1fe0e6bc666dac8fc2697ff9ba",
            "difficulty" : "0x020000",
            "extraData" : "0x42",
            "gasLimit" : "0x174876e800",
            "gasUsed" : "0x00",
            "hash" : "0x65d0621810c7240fffa5ed8a82deb0e8e52e08377708609493f2f2ee5ec744ea",
            "mixHash" : "0x56e81f171bcc55a6ff8345e692c0f86e5b48e01b996cadc001622fb5e363b421",
            "nonce" : "0x0102030405060708",
            "number" : "0x00",
            "parentHash" : "0x0000000000000000000000000000000000000000000000000000000000000000",
            "receiptTrie" : "0x56e81f171bcc55a6ff8345e692c0f86e5b48e01b996cadc001622fb5e363b421",
            "stateRoot" : "0xe396fcba8075cf4e080bd2ccc07c00b1f42a1322e2fc578ecb80681713c97cf8",
            "timestamp" : "0x03b6",
            "transactionsTrie" : "0x56e81f171bcc55a6ff8345e692c0f86e5b48e01b996cadc001622fb5e363b421",
            "uncleHash" : "0x1dcc4de8dec75d7aab85b567b6ccd41ad312451b948a7413f0a142fd40d49347"
        },
        "genesisRLP" : "0xf901fcf901f7a00000000000000000000000000000000000000000000000000000000000000000a01dcc4de8dec75d7aab85b567b6ccd41ad312451b948a7413f0a142fd40d49347942adc25665018aa1fe0e6bc666dac8fc2697ff9baa0e396fcba8075cf4e080bd2ccc07c00b1f42a1322e2fc578ecb80681713c97cf8a056e81f171bcc55a6ff8345e692c0f86e5b48e01b996cadc001622fb5e363b421a056e81f171bcc55a6ff8345e692c0f86e5b48e01b996cadc001622fb5e363b421b9010000000000000000000000000000000000000000000000000000000000000000000000000000000000000000000000000000000000000000000000000000000000000000000000000000000000000000000000000000000000000000000000000000000000000000000000000000000000000000000000000000000000000000000000000000000000000000000000000000000000000000000000000000000000000000000000000000000000000000000000000000000000000000000000000000000000000000000000000000000000000000000000000000000000000000000000000000000000000000000000000000000000000000000000000000000000830200008085174876e800808203b642a056e81f171bcc55a6ff8345e692c0f86e5b48e01b996cadc001622fb5e363b421880102030405060708c0c0",
        "lastblockhash" : "0x5a060f1709cf6f2c78abc1acc3e66c0bd6ab82bd186b9ea86267e353826821c1",
        "network" : "Metropolis",
        "postState" : {
            "0x00000000000000000000000000000000000000f0" : {
                "balance" : "0x00",
                "code" : "",
                "nonce" : "0x00",
                "storage" : {
                }
            },
            "0x095e7baea6a6c7c4c2dfeb977efac326af552d87" : {
                "balance" : "0x0132b3a0",
                "code" : "0x600160005401600055690fffffffffffffffffff610402600054040260025560006000690fffffffffffffffffff610402600054040260006000306104005a03f1600155",
                "nonce" : "0x00",
                "storage" : {
                    "0x00" : "0x02c1",
                    "0x01" : "0x01"
                }
            },
            "0x2adc25665018aa1fe0e6bc666dac8fc2697ff9ba" : {
                "balance" : "0x4563918245b10784",
                "code" : "",
                "nonce" : "0x00",
                "storage" : {
                }
            },
            "0xa94f5374fce5edbc8e2a8697c15331677e6ebf0b" : {
                "balance" : "0x0de0b6b3a6a571dc",
                "code" : "",
                "nonce" : "0x01",
                "storage" : {
                }
            }
        },
        "pre" : {
            "0x095e7baea6a6c7c4c2dfeb977efac326af552d87" : {
                "balance" : "0x01312d00",
                "code" : "0x600160005401600055690fffffffffffffffffff610402600054040260025560006000690fffffffffffffffffff610402600054040260006000306104005a03f1600155",
                "nonce" : "0x00",
                "storage" : {
                }
            },
            "0xa94f5374fce5edbc8e2a8697c15331677e6ebf0b" : {
                "balance" : "0x0de0b6b3a7640000",
                "code" : "",
                "nonce" : "0x00",
                "storage" : {
                }
            }
        }
    }
}