{
    "CallToNameRegistratorAddressTooBigRight_d0g0v0_Berlin" : {
        "_info" : {
            "comment" : "",
            "filling-rpc-server" : "evm version 1.10.16-unstable-0f893109-20220105",
            "filling-tool-version" : "retesteth-0.2.2-testinfo+commit.01c6aac2.Linux.g++",
            "generatedTestHash" : "e135d1bd54e326325f242d39a4c5d8034475631677a50138b3966e4b64542bbb",
            "lllcversion" : "Version: 0.5.14-develop.2021.11.27+commit.401d5358.Linux.g++",
            "solidity" : "Version: 0.8.5+commit.a4f2e591.Linux.g++",
            "source" : "src/GeneralStateTestsFiller/stSystemOperationsTest/CallToNameRegistratorAddressTooBigRightFiller.json",
            "sourceHash" : "be3a2ca921c8022c89dbbad420070aa01065d13c0aad7f269169991e8de610fb"
        },
        "blocks" : [
            {
                "blockHeader" : {
                    "bloom" : "0x00000000000000000000000000000000000000000000000000000000000000000000000000000000000000000000000000000000000000000000000000000000000000000000000000000000000000000000000000000000000000000000000000000000000000000000000000000000000000000000000000000000000000000000000000000000000000000000000000000000000000000000000000000000000000000000000000000000000000000000000000000000000000000000000000000000000000000000000000000000000000000000000000000000000000000000000000000000000000000000000000000000000000000000000000000000",
                    "coinbase" : "0x2adc25665018aa1fe0e6bc666dac8fc2697ff9ba",
                    "difficulty" : "0x020000",
                    "extraData" : "0x00",
                    "gasLimit" : "0x989680",
                    "gasUsed" : "0x012e88",
                    "hash" : "0xbb00d8a74fe68a9b423720f724aca12a9d5d3dd23ab1b4aca498a4d0fb5423f4",
                    "mixHash" : "0x0000000000000000000000000000000000000000000000000000000000000000",
                    "nonce" : "0x0000000000000000",
                    "number" : "0x01",
                    "parentHash" : "0xb9e5a547fcae465f141ddbf3a86ee4b056c848ff390e1977fbff8fd5e150ff3f",
                    "receiptTrie" : "0x712e34c0ef24de37f1f0ad3e9682a003964d4f76aa01bc10730920248a8e977a",
                    "stateRoot" : "0x160debc6faed5b992dbcd283d4a42ad678ab2aabc2de62f96c0e1b8072b3083e",
                    "timestamp" : "0x03e8",
                    "transactionsTrie" : "0xbf89692ed2d0240c55f2665d94dd66329749e813371239a20975b922e0646a87",
                    "uncleHash" : "0x1dcc4de8dec75d7aab85b567b6ccd41ad312451b948a7413f0a142fd40d49347"
                },
                "rlp" : "0xf90263f901f8a0b9e5a547fcae465f141ddbf3a86ee4b056c848ff390e1977fbff8fd5e150ff3fa01dcc4de8dec75d7aab85b567b6ccd41ad312451b948a7413f0a142fd40d49347942adc25665018aa1fe0e6bc666dac8fc2697ff9baa0160debc6faed5b992dbcd283d4a42ad678ab2aabc2de62f96c0e1b8072b3083ea0bf89692ed2d0240c55f2665d94dd66329749e813371239a20975b922e0646a87a0712e34c0ef24de37f1f0ad3e9682a003964d4f76aa01bc10730920248a8e977ab901000000000000000000000000000000000000000000000000000000000000000000000000000000000000000000000000000000000000000000000000000000000000000000000000000000000000000000000000000000000000000000000000000000000000000000000000000000000000000000000000000000000000000000000000000000000000000000000000000000000000000000000000000000000000000000000000000000000000000000000000000000000000000000000000000000000000000000000000000000000000000000000000000000000000000000000000000000000000000000000000000000000000000000000000000000000083020000018398968083012e888203e800a00000000000000000000000000000000000000000000000000000000000000000880000000000000000f865f863800a830493e094095e7baea6a6c7c4c2dfeb977efac326af552d87830186a0801ca0eaba2c4380d98d9c50136f125ed97e3c2dd0b36c4d4492108be1b0e885dbad68a027594bc48dc0ceb398bd05f0bfb8b6c5dee2f476d270a4e9a7030bff805bd71ec0",
                "transactions" : [
                    {
                        "data" : "0x",
                        "gasLimit" : "0x0493e0",
                        "gasPrice" : "0x0a",
                        "nonce" : "0x00",
                        "r" : "0xeaba2c4380d98d9c50136f125ed97e3c2dd0b36c4d4492108be1b0e885dbad68",
                        "s" : "0x27594bc48dc0ceb398bd05f0bfb8b6c5dee2f476d270a4e9a7030bff805bd71e",
                        "sender" : "0xa94f5374fce5edbc8e2a8697c15331677e6ebf0b",
                        "to" : "0x095e7baea6a6c7c4c2dfeb977efac326af552d87",
                        "v" : "0x1c",
                        "value" : "0x0186a0"
                    }
                ],
                "uncleHeaders" : [
                ]
            }
        ],
        "genesisBlockHeader" : {
            "bloom" : "0x00000000000000000000000000000000000000000000000000000000000000000000000000000000000000000000000000000000000000000000000000000000000000000000000000000000000000000000000000000000000000000000000000000000000000000000000000000000000000000000000000000000000000000000000000000000000000000000000000000000000000000000000000000000000000000000000000000000000000000000000000000000000000000000000000000000000000000000000000000000000000000000000000000000000000000000000000000000000000000000000000000000000000000000000000000000",
            "coinbase" : "0x2adc25665018aa1fe0e6bc666dac8fc2697ff9ba",
            "difficulty" : "0x020000",
            "extraData" : "0x00",
            "gasLimit" : "0x989680",
            "gasUsed" : "0x00",
            "hash" : "0xb9e5a547fcae465f141ddbf3a86ee4b056c848ff390e1977fbff8fd5e150ff3f",
            "mixHash" : "0x0000000000000000000000000000000000000000000000000000000000000000",
            "nonce" : "0x0000000000000000",
            "number" : "0x00",
            "parentHash" : "0x0000000000000000000000000000000000000000000000000000000000000000",
            "receiptTrie" : "0x56e81f171bcc55a6ff8345e692c0f86e5b48e01b996cadc001622fb5e363b421",
            "stateRoot" : "0x9c61bab15daa5ad48355c16a12c02e1573ed354f20a72d5d82a5ac0757324353",
            "timestamp" : "0x00",
            "transactionsTrie" : "0x56e81f171bcc55a6ff8345e692c0f86e5b48e01b996cadc001622fb5e363b421",
            "uncleHash" : "0x1dcc4de8dec75d7aab85b567b6ccd41ad312451b948a7413f0a142fd40d49347"
        },
        "genesisRLP" : "0xf901f8f901f3a00000000000000000000000000000000000000000000000000000000000000000a01dcc4de8dec75d7aab85b567b6ccd41ad312451b948a7413f0a142fd40d49347942adc25665018aa1fe0e6bc666dac8fc2697ff9baa09c61bab15daa5ad48355c16a12c02e1573ed354f20a72d5d82a5ac0757324353a056e81f171bcc55a6ff8345e692c0f86e5b48e01b996cadc001622fb5e363b421a056e81f171bcc55a6ff8345e692c0f86e5b48e01b996cadc001622fb5e363b421b9010000000000000000000000000000000000000000000000000000000000000000000000000000000000000000000000000000000000000000000000000000000000000000000000000000000000000000000000000000000000000000000000000000000000000000000000000000000000000000000000000000000000000000000000000000000000000000000000000000000000000000000000000000000000000000000000000000000000000000000000000000000000000000000000000000000000000000000000000000000000000000000000000000000000000000000000000000000000000000000000000000000000000000000000000000000000830200008083989680808000a00000000000000000000000000000000000000000000000000000000000000000880000000000000000c0c0",
        "lastblockhash" : "0xbb00d8a74fe68a9b423720f724aca12a9d5d3dd23ab1b4aca498a4d0fb5423f4",
        "network" : "Berlin",
        "postState" : {
            "0x095e7baea6a6c7c4c2dfeb977efac326af552d87" : {
                "balance" : "0x0de0b6b3a7658689",
                "code" : "0x7fffffffffffffffffffffffffffffffffffffffffffffffffffffffffffffffff6000527faaffffffffffffffffffffffffffffffffffffffffffffffffffffffffffffaa6020526000604060406000601774945304eb96065b2a98b57a48a06ae28d285a71b5aa6103e8f160005500",
                "nonce" : "0x00",
                "storage" : {
                    "0x00" : "0x01"
                }
            },
            "0x2adc25665018aa1fe0e6bc666dac8fc2697ff9ba" : {
                "balance" : "0x1bc16d674ed3d150",
                "code" : "0x",
                "nonce" : "0x00",
                "storage" : {
                }
            },
            "0x5304eb96065b2a98b57a48a06ae28d285a71b5aa" : {
                "balance" : "0x17",
                "code" : "0x",
                "nonce" : "0x00",
                "storage" : {
                }
            },
            "0x945304eb96065b2a98b57a48a06ae28d285a71b5" : {
                "balance" : "0x17",
                "code" : "0x6000355415600957005b60203560003555",
                "nonce" : "0x00",
                "storage" : {
                }
            },
            "0xa94f5374fce5edbc8e2a8697c15331677e6ebf0b" : {
                "balance" : "0x0de0b6b3a756a810",
                "code" : "0x",
                "nonce" : "0x01",
                "storage" : {
                }
            }
        },
        "pre" : {
            "0x095e7baea6a6c7c4c2dfeb977efac326af552d87" : {
                "balance" : "0x0de0b6b3a7640000",
                "code" : "0x7fffffffffffffffffffffffffffffffffffffffffffffffffffffffffffffffff6000527faaffffffffffffffffffffffffffffffffffffffffffffffffffffffffffffaa6020526000604060406000601774945304eb96065b2a98b57a48a06ae28d285a71b5aa6103e8f160005500",
                "nonce" : "0x00",
                "storage" : {
                }
            },
            "0x945304eb96065b2a98b57a48a06ae28d285a71b5" : {
                "balance" : "0x17",
                "code" : "0x6000355415600957005b60203560003555",
                "nonce" : "0x00",
                "storage" : {
                }
            },
            "0xa94f5374fce5edbc8e2a8697c15331677e6ebf0b" : {
                "balance" : "0x0de0b6b3a7640000",
                "code" : "0x",
                "nonce" : "0x00",
                "storage" : {
                }
            }
        },
        "sealEngine" : "NoProof"
    },
    "CallToNameRegistratorAddressTooBigRight_d0g0v0_Istanbul" : {
        "_info" : {
            "comment" : "",
            "filling-rpc-server" : "evm version 1.10.16-unstable-0f893109-20220105",
            "filling-tool-version" : "retesteth-0.2.2-testinfo+commit.01c6aac2.Linux.g++",
            "generatedTestHash" : "46db9736235d68ce2b6e69dbf0b223dfd95a369f674b2c22cecf099fcfb7670a",
            "lllcversion" : "Version: 0.5.14-develop.2021.11.27+commit.401d5358.Linux.g++",
            "solidity" : "Version: 0.8.5+commit.a4f2e591.Linux.g++",
            "source" : "src/GeneralStateTestsFiller/stSystemOperationsTest/CallToNameRegistratorAddressTooBigRightFiller.json",
            "sourceHash" : "be3a2ca921c8022c89dbbad420070aa01065d13c0aad7f269169991e8de610fb"
        },
        "blocks" : [
            {
                "blockHeader" : {
                    "bloom" : "0x00000000000000000000000000000000000000000000000000000000000000000000000000000000000000000000000000000000000000000000000000000000000000000000000000000000000000000000000000000000000000000000000000000000000000000000000000000000000000000000000000000000000000000000000000000000000000000000000000000000000000000000000000000000000000000000000000000000000000000000000000000000000000000000000000000000000000000000000000000000000000000000000000000000000000000000000000000000000000000000000000000000000000000000000000000000",
                    "coinbase" : "0x2adc25665018aa1fe0e6bc666dac8fc2697ff9ba",
                    "difficulty" : "0x020000",
                    "extraData" : "0x00",
                    "gasLimit" : "0x989680",
                    "gasUsed" : "0x011ee8",
                    "hash" : "0x48ec90ae147ecee147ca38f8c302968097ef6a031f52d894dd54827a8e1024db",
                    "mixHash" : "0x0000000000000000000000000000000000000000000000000000000000000000",
                    "nonce" : "0x0000000000000000",
                    "number" : "0x01",
                    "parentHash" : "0xb9e5a547fcae465f141ddbf3a86ee4b056c848ff390e1977fbff8fd5e150ff3f",
                    "receiptTrie" : "0x338fc2696c29e967aca7d779cb645a127240f86c1af9c1bde4ad8f6392917b3a",
                    "stateRoot" : "0x9d9ecdcba13ffb116d454341fda35ec033b9bf385f1b69134ee456465b40b08b",
                    "timestamp" : "0x03e8",
                    "transactionsTrie" : "0xbf89692ed2d0240c55f2665d94dd66329749e813371239a20975b922e0646a87",
                    "uncleHash" : "0x1dcc4de8dec75d7aab85b567b6ccd41ad312451b948a7413f0a142fd40d49347"
                },
                "rlp" : "0xf90263f901f8a0b9e5a547fcae465f141ddbf3a86ee4b056c848ff390e1977fbff8fd5e150ff3fa01dcc4de8dec75d7aab85b567b6ccd41ad312451b948a7413f0a142fd40d49347942adc25665018aa1fe0e6bc666dac8fc2697ff9baa09d9ecdcba13ffb116d454341fda35ec033b9bf385f1b69134ee456465b40b08ba0bf89692ed2d0240c55f2665d94dd66329749e813371239a20975b922e0646a87a0338fc2696c29e967aca7d779cb645a127240f86c1af9c1bde4ad8f6392917b3ab901000000000000000000000000000000000000000000000000000000000000000000000000000000000000000000000000000000000000000000000000000000000000000000000000000000000000000000000000000000000000000000000000000000000000000000000000000000000000000000000000000000000000000000000000000000000000000000000000000000000000000000000000000000000000000000000000000000000000000000000000000000000000000000000000000000000000000000000000000000000000000000000000000000000000000000000000000000000000000000000000000000000000000000000000000000000083020000018398968083011ee88203e800a00000000000000000000000000000000000000000000000000000000000000000880000000000000000f865f863800a830493e094095e7baea6a6c7c4c2dfeb977efac326af552d87830186a0801ca0eaba2c4380d98d9c50136f125ed97e3c2dd0b36c4d4492108be1b0e885dbad68a027594bc48dc0ceb398bd05f0bfb8b6c5dee2f476d270a4e9a7030bff805bd71ec0",
                "transactions" : [
                    {
                        "data" : "0x",
                        "gasLimit" : "0x0493e0",
                        "gasPrice" : "0x0a",
                        "nonce" : "0x00",
                        "r" : "0xeaba2c4380d98d9c50136f125ed97e3c2dd0b36c4d4492108be1b0e885dbad68",
                        "s" : "0x27594bc48dc0ceb398bd05f0bfb8b6c5dee2f476d270a4e9a7030bff805bd71e",
                        "sender" : "0xa94f5374fce5edbc8e2a8697c15331677e6ebf0b",
                        "to" : "0x095e7baea6a6c7c4c2dfeb977efac326af552d87",
                        "v" : "0x1c",
                        "value" : "0x0186a0"
                    }
                ],
                "uncleHeaders" : [
                ]
            }
        ],
        "genesisBlockHeader" : {
            "bloom" : "0x00000000000000000000000000000000000000000000000000000000000000000000000000000000000000000000000000000000000000000000000000000000000000000000000000000000000000000000000000000000000000000000000000000000000000000000000000000000000000000000000000000000000000000000000000000000000000000000000000000000000000000000000000000000000000000000000000000000000000000000000000000000000000000000000000000000000000000000000000000000000000000000000000000000000000000000000000000000000000000000000000000000000000000000000000000000",
            "coinbase" : "0x2adc25665018aa1fe0e6bc666dac8fc2697ff9ba",
            "difficulty" : "0x020000",
            "extraData" : "0x00",
            "gasLimit" : "0x989680",
            "gasUsed" : "0x00",
            "hash" : "0xb9e5a547fcae465f141ddbf3a86ee4b056c848ff390e1977fbff8fd5e150ff3f",
            "mixHash" : "0x0000000000000000000000000000000000000000000000000000000000000000",
            "nonce" : "0x0000000000000000",
            "number" : "0x00",
            "parentHash" : "0x0000000000000000000000000000000000000000000000000000000000000000",
            "receiptTrie" : "0x56e81f171bcc55a6ff8345e692c0f86e5b48e01b996cadc001622fb5e363b421",
            "stateRoot" : "0x9c61bab15daa5ad48355c16a12c02e1573ed354f20a72d5d82a5ac0757324353",
            "timestamp" : "0x00",
            "transactionsTrie" : "0x56e81f171bcc55a6ff8345e692c0f86e5b48e01b996cadc001622fb5e363b421",
            "uncleHash" : "0x1dcc4de8dec75d7aab85b567b6ccd41ad312451b948a7413f0a142fd40d49347"
        },
        "genesisRLP" : "0xf901f8f901f3a00000000000000000000000000000000000000000000000000000000000000000a01dcc4de8dec75d7aab85b567b6ccd41ad312451b948a7413f0a142fd40d49347942adc25665018aa1fe0e6bc666dac8fc2697ff9baa09c61bab15daa5ad48355c16a12c02e1573ed354f20a72d5d82a5ac0757324353a056e81f171bcc55a6ff8345e692c0f86e5b48e01b996cadc001622fb5e363b421a056e81f171bcc55a6ff8345e692c0f86e5b48e01b996cadc001622fb5e363b421b9010000000000000000000000000000000000000000000000000000000000000000000000000000000000000000000000000000000000000000000000000000000000000000000000000000000000000000000000000000000000000000000000000000000000000000000000000000000000000000000000000000000000000000000000000000000000000000000000000000000000000000000000000000000000000000000000000000000000000000000000000000000000000000000000000000000000000000000000000000000000000000000000000000000000000000000000000000000000000000000000000000000000000000000000000000000000830200008083989680808000a00000000000000000000000000000000000000000000000000000000000000000880000000000000000c0c0",
        "lastblockhash" : "0x48ec90ae147ecee147ca38f8c302968097ef6a031f52d894dd54827a8e1024db",
        "network" : "Istanbul",
        "postState" : {
            "0x095e7baea6a6c7c4c2dfeb977efac326af552d87" : {
                "balance" : "0x0de0b6b3a7658689",
                "code" : "0x7fffffffffffffffffffffffffffffffffffffffffffffffffffffffffffffffff6000527faaffffffffffffffffffffffffffffffffffffffffffffffffffffffffffffaa6020526000604060406000601774945304eb96065b2a98b57a48a06ae28d285a71b5aa6103e8f160005500",
                "nonce" : "0x00",
                "storage" : {
                    "0x00" : "0x01"
                }
            },
            "0x2adc25665018aa1fe0e6bc666dac8fc2697ff9ba" : {
                "balance" : "0x1bc16d674ed33510",
                "code" : "0x",
                "nonce" : "0x00",
                "storage" : {
                }
            },
            "0x5304eb96065b2a98b57a48a06ae28d285a71b5aa" : {
                "balance" : "0x17",
                "code" : "0x",
                "nonce" : "0x00",
                "storage" : {
                }
            },
            "0x945304eb96065b2a98b57a48a06ae28d285a71b5" : {
                "balance" : "0x17",
                "code" : "0x6000355415600957005b60203560003555",
                "nonce" : "0x00",
                "storage" : {
                }
            },
            "0xa94f5374fce5edbc8e2a8697c15331677e6ebf0b" : {
                "balance" : "0x0de0b6b3a7574450",
                "code" : "0x",
                "nonce" : "0x01",
                "storage" : {
                }
            }
        },
        "pre" : {
            "0x095e7baea6a6c7c4c2dfeb977efac326af552d87" : {
                "balance" : "0x0de0b6b3a7640000",
                "code" : "0x7fffffffffffffffffffffffffffffffffffffffffffffffffffffffffffffffff6000527faaffffffffffffffffffffffffffffffffffffffffffffffffffffffffffffaa6020526000604060406000601774945304eb96065b2a98b57a48a06ae28d285a71b5aa6103e8f160005500",
                "nonce" : "0x00",
                "storage" : {
                }
            },
            "0x945304eb96065b2a98b57a48a06ae28d285a71b5" : {
                "balance" : "0x17",
                "code" : "0x6000355415600957005b60203560003555",
                "nonce" : "0x00",
                "storage" : {
                }
            },
            "0xa94f5374fce5edbc8e2a8697c15331677e6ebf0b" : {
                "balance" : "0x0de0b6b3a7640000",
                "code" : "0x",
                "nonce" : "0x00",
                "storage" : {
                }
            }
        },
        "sealEngine" : "NoProof"
    },
    "CallToNameRegistratorAddressTooBigRight_d0g0v0_London" : {
        "_info" : {
            "comment" : "",
            "filling-rpc-server" : "evm version 1.10.16-unstable-0f893109-20220105",
            "filling-tool-version" : "retesteth-0.2.2-testinfo+commit.01c6aac2.Linux.g++",
            "generatedTestHash" : "8ee20c0ea3787a2c25c409f5fa6c49607ef8212fd9e9333b94dacb1846034618",
            "lllcversion" : "Version: 0.5.14-develop.2021.11.27+commit.401d5358.Linux.g++",
            "solidity" : "Version: 0.8.5+commit.a4f2e591.Linux.g++",
            "source" : "src/GeneralStateTestsFiller/stSystemOperationsTest/CallToNameRegistratorAddressTooBigRightFiller.json",
            "sourceHash" : "be3a2ca921c8022c89dbbad420070aa01065d13c0aad7f269169991e8de610fb"
        },
        "blocks" : [
            {
                "blockHeader" : {
                    "baseFeePerGas" : "0x0a",
                    "bloom" : "0x00000000000000000000000000000000000000000000000000000000000000000000000000000000000000000000000000000000000000000000000000000000000000000000000000000000000000000000000000000000000000000000000000000000000000000000000000000000000000000000000000000000000000000000000000000000000000000000000000000000000000000000000000000000000000000000000000000000000000000000000000000000000000000000000000000000000000000000000000000000000000000000000000000000000000000000000000000000000000000000000000000000000000000000000000000000",
                    "coinbase" : "0x2adc25665018aa1fe0e6bc666dac8fc2697ff9ba",
                    "difficulty" : "0x020000",
                    "extraData" : "0x00",
                    "gasLimit" : "0x989680",
                    "gasUsed" : "0x012e88",
                    "hash" : "0x0019f686fb6a51ae05507915136bc21d25500b261a207e6670cf124998f1054a",
                    "mixHash" : "0x0000000000000000000000000000000000000000000000000000000000000000",
                    "nonce" : "0x0000000000000000",
                    "number" : "0x01",
                    "parentHash" : "0x6a468f58e24025e16729944fa33c1adea3df78a107714c3aedbdb5bd7d60f62c",
                    "receiptTrie" : "0x712e34c0ef24de37f1f0ad3e9682a003964d4f76aa01bc10730920248a8e977a",
                    "stateRoot" : "0xb7284f7bc92081573837e49f7445728775ca14d8e031d8ef4ec236d1ec34086a",
                    "timestamp" : "0x03e8",
                    "transactionsTrie" : "0xbf89692ed2d0240c55f2665d94dd66329749e813371239a20975b922e0646a87",
                    "uncleHash" : "0x1dcc4de8dec75d7aab85b567b6ccd41ad312451b948a7413f0a142fd40d49347"
                },
                "rlp" : "0xf90264f901f9a06a468f58e24025e16729944fa33c1adea3df78a107714c3aedbdb5bd7d60f62ca01dcc4de8dec75d7aab85b567b6ccd41ad312451b948a7413f0a142fd40d49347942adc25665018aa1fe0e6bc666dac8fc2697ff9baa0b7284f7bc92081573837e49f7445728775ca14d8e031d8ef4ec236d1ec34086aa0bf89692ed2d0240c55f2665d94dd66329749e813371239a20975b922e0646a87a0712e34c0ef24de37f1f0ad3e9682a003964d4f76aa01bc10730920248a8e977ab901000000000000000000000000000000000000000000000000000000000000000000000000000000000000000000000000000000000000000000000000000000000000000000000000000000000000000000000000000000000000000000000000000000000000000000000000000000000000000000000000000000000000000000000000000000000000000000000000000000000000000000000000000000000000000000000000000000000000000000000000000000000000000000000000000000000000000000000000000000000000000000000000000000000000000000000000000000000000000000000000000000000000000000000000000000000083020000018398968083012e888203e800a000000000000000000000000000000000000000000000000000000000000000008800000000000000000af865f863800a830493e094095e7baea6a6c7c4c2dfeb977efac326af552d87830186a0801ca0eaba2c4380d98d9c50136f125ed97e3c2dd0b36c4d4492108be1b0e885dbad68a027594bc48dc0ceb398bd05f0bfb8b6c5dee2f476d270a4e9a7030bff805bd71ec0",
                "transactions" : [
                    {
                        "data" : "0x",
                        "gasLimit" : "0x0493e0",
                        "gasPrice" : "0x0a",
                        "nonce" : "0x00",
                        "r" : "0xeaba2c4380d98d9c50136f125ed97e3c2dd0b36c4d4492108be1b0e885dbad68",
                        "s" : "0x27594bc48dc0ceb398bd05f0bfb8b6c5dee2f476d270a4e9a7030bff805bd71e",
                        "sender" : "0xa94f5374fce5edbc8e2a8697c15331677e6ebf0b",
                        "to" : "0x095e7baea6a6c7c4c2dfeb977efac326af552d87",
                        "v" : "0x1c",
                        "value" : "0x0186a0"
                    }
                ],
                "uncleHeaders" : [
                ]
            }
        ],
        "genesisBlockHeader" : {
            "baseFeePerGas" : "0x0b",
            "bloom" : "0x00000000000000000000000000000000000000000000000000000000000000000000000000000000000000000000000000000000000000000000000000000000000000000000000000000000000000000000000000000000000000000000000000000000000000000000000000000000000000000000000000000000000000000000000000000000000000000000000000000000000000000000000000000000000000000000000000000000000000000000000000000000000000000000000000000000000000000000000000000000000000000000000000000000000000000000000000000000000000000000000000000000000000000000000000000000",
            "coinbase" : "0x2adc25665018aa1fe0e6bc666dac8fc2697ff9ba",
            "difficulty" : "0x020000",
            "extraData" : "0x00",
            "gasLimit" : "0x989680",
            "gasUsed" : "0x00",
            "hash" : "0x6a468f58e24025e16729944fa33c1adea3df78a107714c3aedbdb5bd7d60f62c",
            "mixHash" : "0x0000000000000000000000000000000000000000000000000000000000000000",
            "nonce" : "0x0000000000000000",
            "number" : "0x00",
            "parentHash" : "0x0000000000000000000000000000000000000000000000000000000000000000",
            "receiptTrie" : "0x56e81f171bcc55a6ff8345e692c0f86e5b48e01b996cadc001622fb5e363b421",
            "stateRoot" : "0x9c61bab15daa5ad48355c16a12c02e1573ed354f20a72d5d82a5ac0757324353",
            "timestamp" : "0x00",
            "transactionsTrie" : "0x56e81f171bcc55a6ff8345e692c0f86e5b48e01b996cadc001622fb5e363b421",
            "uncleHash" : "0x1dcc4de8dec75d7aab85b567b6ccd41ad312451b948a7413f0a142fd40d49347"
        },
        "genesisRLP" : "0xf901f9f901f4a00000000000000000000000000000000000000000000000000000000000000000a01dcc4de8dec75d7aab85b567b6ccd41ad312451b948a7413f0a142fd40d49347942adc25665018aa1fe0e6bc666dac8fc2697ff9baa09c61bab15daa5ad48355c16a12c02e1573ed354f20a72d5d82a5ac0757324353a056e81f171bcc55a6ff8345e692c0f86e5b48e01b996cadc001622fb5e363b421a056e81f171bcc55a6ff8345e692c0f86e5b48e01b996cadc001622fb5e363b421b9010000000000000000000000000000000000000000000000000000000000000000000000000000000000000000000000000000000000000000000000000000000000000000000000000000000000000000000000000000000000000000000000000000000000000000000000000000000000000000000000000000000000000000000000000000000000000000000000000000000000000000000000000000000000000000000000000000000000000000000000000000000000000000000000000000000000000000000000000000000000000000000000000000000000000000000000000000000000000000000000000000000000000000000000000000000000830200008083989680808000a000000000000000000000000000000000000000000000000000000000000000008800000000000000000bc0c0",
        "lastblockhash" : "0x0019f686fb6a51ae05507915136bc21d25500b261a207e6670cf124998f1054a",
        "network" : "London",
        "postState" : {
            "0x095e7baea6a6c7c4c2dfeb977efac326af552d87" : {
                "balance" : "0x0de0b6b3a7658689",
                "code" : "0x7fffffffffffffffffffffffffffffffffffffffffffffffffffffffffffffffff6000527faaffffffffffffffffffffffffffffffffffffffffffffffffffffffffffffaa6020526000604060406000601774945304eb96065b2a98b57a48a06ae28d285a71b5aa6103e8f160005500",
                "nonce" : "0x00",
                "storage" : {
                    "0x00" : "0x01"
                }
            },
            "0x2adc25665018aa1fe0e6bc666dac8fc2697ff9ba" : {
                "balance" : "0x1bc16d674ec80000",
                "code" : "0x",
                "nonce" : "0x00",
                "storage" : {
                }
            },
            "0x5304eb96065b2a98b57a48a06ae28d285a71b5aa" : {
                "balance" : "0x17",
                "code" : "0x",
                "nonce" : "0x00",
                "storage" : {
                }
            },
            "0x945304eb96065b2a98b57a48a06ae28d285a71b5" : {
                "balance" : "0x17",
                "code" : "0x6000355415600957005b60203560003555",
                "nonce" : "0x00",
                "storage" : {
                }
            },
            "0xa94f5374fce5edbc8e2a8697c15331677e6ebf0b" : {
                "balance" : "0x0de0b6b3a756a810",
                "code" : "0x",
                "nonce" : "0x01",
                "storage" : {
                }
            }
        },
        "pre" : {
            "0x095e7baea6a6c7c4c2dfeb977efac326af552d87" : {
                "balance" : "0x0de0b6b3a7640000",
                "code" : "0x7fffffffffffffffffffffffffffffffffffffffffffffffffffffffffffffffff6000527faaffffffffffffffffffffffffffffffffffffffffffffffffffffffffffffaa6020526000604060406000601774945304eb96065b2a98b57a48a06ae28d285a71b5aa6103e8f160005500",
                "nonce" : "0x00",
                "storage" : {
                }
            },
            "0x945304eb96065b2a98b57a48a06ae28d285a71b5" : {
                "balance" : "0x17",
                "code" : "0x6000355415600957005b60203560003555",
                "nonce" : "0x00",
                "storage" : {
                }
            },
            "0xa94f5374fce5edbc8e2a8697c15331677e6ebf0b" : {
                "balance" : "0x0de0b6b3a7640000",
                "code" : "0x",
                "nonce" : "0x00",
                "storage" : {
                }
            }
        },
        "sealEngine" : "NoProof"
    }
}