{
    "suicideAddress_d0g0v0_Byzantium" : {
        "_info" : {
            "comment" : "",
            "filledwith" : "cpp-1.3.0+commit.ee0c6776.Linux.g++",
            "lllcversion" : "Version: 0.4.20-develop.2018.2.4+commit.c696803f.Linux.g++",
            "source" : "src/BlockchainTestsFiller/GeneralStateTests/stSystemOperationsTest/suicideAddress_d0g0v0Filler.json",
            "sourceHash" : "d9b66ecc9e6658cc5322717e7a701d26c3ec08455fcea39319d71fc44c755b10"
        },
        "blocks" : [
            {
                "blockHeader" : {
                    "bloom" : "0x00000000000000000000000000000000000000000000000000000000000000000000000000000000000000000000000000000000000000000000000000000000000000000000000000000000000000000000000000000000000000000000000000000000000000000000000000000000000000000000000000000000000000000000000000000000000000000000000000000000000000000000000000000000000000000000000000000000000000000000000000000000000000000000000000000000000000000000000000000000000000000000000000000000000000000000000000000000000000000000000000000000000000000000000000000000",
                    "coinbase" : "0x2adc25665018aa1fe0e6bc666dac8fc2697ff9ba",
                    "difficulty" : "0x020000",
                    "extraData" : "",
                    "gasLimit" : "0x989680",
                    "gasUsed" : "0x59dc",
                    "hash" : "0xe9783b4d1ea00011eb7813893f0404971d94f3367598d1d7d8ee0867bc3212c8",
                    "mixHash" : "0xbb0398faef312f80f7a07245d04b3228e78f55de8255c73232c012f25aeccc98",
                    "nonce" : "0x2b408396821cc9a4",
                    "number" : "0x01",
                    "parentHash" : "0x60b5dc44c49934bf9ce7f44b2d0b84780a764e02a508964639997730f42fbaa8",
                    "receiptTrie" : "0xb98c753e8c3ae49eedd66eea1650a6efe45927b409e365ca745b8cc0119a32ab",
                    "stateRoot" : "0x73b31ac648a4c325171204701482bfc83b52c70e49ca0b5933ab238ea0507121",
                    "timestamp" : "0x03e8",
                    "transactionsTrie" : "0x71f709457a5104b4156ff2cff0dbc56a9e6a9f221acfdbde6976b12b5e6a546f",
                    "uncleHash" : "0x1dcc4de8dec75d7aab85b567b6ccd41ad312451b948a7413f0a142fd40d49347"
                },
                "rlp" : "0xf90262f901f7a060b5dc44c49934bf9ce7f44b2d0b84780a764e02a508964639997730f42fbaa8a01dcc4de8dec75d7aab85b567b6ccd41ad312451b948a7413f0a142fd40d49347942adc25665018aa1fe0e6bc666dac8fc2697ff9baa073b31ac648a4c325171204701482bfc83b52c70e49ca0b5933ab238ea0507121a071f709457a5104b4156ff2cff0dbc56a9e6a9f221acfdbde6976b12b5e6a546fa0b98c753e8c3ae49eedd66eea1650a6efe45927b409e365ca745b8cc0119a32abb90100000000000000000000000000000000000000000000000000000000000000000000000000000000000000000000000000000000000000000000000000000000000000000000000000000000000000000000000000000000000000000000000000000000000000000000000000000000000000000000000000000000000000000000000000000000000000000000000000000000000000000000000000000000000000000000000000000000000000000000000000000000000000000000000000000000000000000000000000000000000000000000000000000000000000000000000000000000000000000000000000000000000000000000000000000000008302000001839896808259dc8203e880a0bb0398faef312f80f7a07245d04b3228e78f55de8255c73232c012f25aeccc98882b408396821cc9a4f865f8638001830f424094095e7baea6a6c7c4c2dfeb977efac326af552d87830186a0801ba0b5a74d7a966105ad23121c35e63f659bb4b94a7b7a437b7a2ea78d4672cad937a0535bf92804677e0bd3c56a4328561202e4d6b6fd374fe9f27b97e4c9d69f7db5c0",
                "transactions" : [
                    {
                        "data" : "0x",
                        "gasLimit" : "0x0f4240",
                        "gasPrice" : "0x01",
                        "nonce" : "0x00",
                        "r" : "0xb5a74d7a966105ad23121c35e63f659bb4b94a7b7a437b7a2ea78d4672cad937",
                        "s" : "0x535bf92804677e0bd3c56a4328561202e4d6b6fd374fe9f27b97e4c9d69f7db5",
                        "to" : "0x095e7baea6a6c7c4c2dfeb977efac326af552d87",
                        "v" : "0x1b",
                        "value" : "0x0186a0"
                    }
                ],
                "uncleHeaders" : [
                ]
            }
        ],
        "genesisBlockHeader" : {
            "bloom" : "0x00000000000000000000000000000000000000000000000000000000000000000000000000000000000000000000000000000000000000000000000000000000000000000000000000000000000000000000000000000000000000000000000000000000000000000000000000000000000000000000000000000000000000000000000000000000000000000000000000000000000000000000000000000000000000000000000000000000000000000000000000000000000000000000000000000000000000000000000000000000000000000000000000000000000000000000000000000000000000000000000000000000000000000000000000000000",
            "coinbase" : "0x2adc25665018aa1fe0e6bc666dac8fc2697ff9ba",
            "difficulty" : "0x020000",
            "extraData" : "0x42",
            "gasLimit" : "0x989680",
            "gasUsed" : "0x00",
            "hash" : "0x60b5dc44c49934bf9ce7f44b2d0b84780a764e02a508964639997730f42fbaa8",
            "mixHash" : "0x56e81f171bcc55a6ff8345e692c0f86e5b48e01b996cadc001622fb5e363b421",
            "nonce" : "0x0102030405060708",
            "number" : "0x00",
            "parentHash" : "0x0000000000000000000000000000000000000000000000000000000000000000",
            "receiptTrie" : "0x56e81f171bcc55a6ff8345e692c0f86e5b48e01b996cadc001622fb5e363b421",
            "stateRoot" : "0x13c5570732258e0ff45abb2caee101fd11ae79083fcd459d03491272f2026427",
            "timestamp" : "0x03b6",
            "transactionsTrie" : "0x56e81f171bcc55a6ff8345e692c0f86e5b48e01b996cadc001622fb5e363b421",
            "uncleHash" : "0x1dcc4de8dec75d7aab85b567b6ccd41ad312451b948a7413f0a142fd40d49347"
        },
        "genesisRLP" : "0xf901faf901f5a00000000000000000000000000000000000000000000000000000000000000000a01dcc4de8dec75d7aab85b567b6ccd41ad312451b948a7413f0a142fd40d49347942adc25665018aa1fe0e6bc666dac8fc2697ff9baa013c5570732258e0ff45abb2caee101fd11ae79083fcd459d03491272f2026427a056e81f171bcc55a6ff8345e692c0f86e5b48e01b996cadc001622fb5e363b421a056e81f171bcc55a6ff8345e692c0f86e5b48e01b996cadc001622fb5e363b421b9010000000000000000000000000000000000000000000000000000000000000000000000000000000000000000000000000000000000000000000000000000000000000000000000000000000000000000000000000000000000000000000000000000000000000000000000000000000000000000000000000000000000000000000000000000000000000000000000000000000000000000000000000000000000000000000000000000000000000000000000000000000000000000000000000000000000000000000000000000000000000000000000000000000000000000000000000000000000000000000000000000000000000000000000000000000000830200008083989680808203b642a056e81f171bcc55a6ff8345e692c0f86e5b48e01b996cadc001622fb5e363b421880102030405060708c0c0",
        "lastblockhash" : "0xe9783b4d1ea00011eb7813893f0404971d94f3367598d1d7d8ee0867bc3212c8",
        "network" : "Byzantium",
        "postState" : {
            "0x2adc25665018aa1fe0e6bc666dac8fc2697ff9ba" : {
                "balance" : "0x29a2241af62c59dc",
                "code" : "",
                "nonce" : "0x00",
                "storage" : {
                }
            },
            "0xa94f5374fce5edbc8e2a8697c15331677e6ebf0b" : {
                "balance" : "0x0de0b6b3a7621f84",
                "code" : "",
                "nonce" : "0x01",
                "storage" : {
                }
            }
        },
        "pre" : {
            "0x095e7baea6a6c7c4c2dfeb977efac326af552d87" : {
                "balance" : "0x0de0b6b3a7640000",
                "code" : "0x3060005530ff",
                "nonce" : "0x00",
                "storage" : {
                }
            },
            "0xa94f5374fce5edbc8e2a8697c15331677e6ebf0b" : {
                "balance" : "0x0de0b6b3a7640000",
                "code" : "",
                "nonce" : "0x00",
                "storage" : {
                }
            }
        }
    },
    "suicideAddress_d0g0v0_EIP150" : {
        "_info" : {
            "comment" : "",
            "filledwith" : "cpp-1.3.0+commit.ee0c6776.Linux.g++",
            "lllcversion" : "Version: 0.4.20-develop.2018.2.4+commit.c696803f.Linux.g++",
            "source" : "src/BlockchainTestsFiller/GeneralStateTests/stSystemOperationsTest/suicideAddress_d0g0v0Filler.json",
            "sourceHash" : "d9b66ecc9e6658cc5322717e7a701d26c3ec08455fcea39319d71fc44c755b10"
        },
        "blocks" : [
            {
                "blockHeader" : {
                    "bloom" : "0x00000000000000000000000000000000000000000000000000000000000000000000000000000000000000000000000000000000000000000000000000000000000000000000000000000000000000000000000000000000000000000000000000000000000000000000000000000000000000000000000000000000000000000000000000000000000000000000000000000000000000000000000000000000000000000000000000000000000000000000000000000000000000000000000000000000000000000000000000000000000000000000000000000000000000000000000000000000000000000000000000000000000000000000000000000000",
                    "coinbase" : "0x2adc25665018aa1fe0e6bc666dac8fc2697ff9ba",
                    "difficulty" : "0x020000",
                    "extraData" : "",
                    "gasLimit" : "0x989680",
                    "gasUsed" : "0x59dc",
                    "hash" : "0xbf97b954e89e7cb767e1b6ec8fdc8b8117e1446eef623b7609ffb91c0e3e61f3",
                    "mixHash" : "0xfb2fd069641b369011bd108c6eb55c53893e863360a881a547b8029ca5819690",
                    "nonce" : "0x0df87079585a1a7a",
                    "number" : "0x01",
                    "parentHash" : "0x60b5dc44c49934bf9ce7f44b2d0b84780a764e02a508964639997730f42fbaa8",
                    "receiptTrie" : "0xf7d3c4e4ae652fde71138e88df39befaab9f039b245dddebeefb87d48b41d3c0",
                    "stateRoot" : "0x8f48414ebd161b69d82368e9a59e0ce34b31763e4bed2edb65e31b1bd87e8305",
                    "timestamp" : "0x03e8",
                    "transactionsTrie" : "0x71f709457a5104b4156ff2cff0dbc56a9e6a9f221acfdbde6976b12b5e6a546f",
                    "uncleHash" : "0x1dcc4de8dec75d7aab85b567b6ccd41ad312451b948a7413f0a142fd40d49347"
                },
                "rlp" : "0xf90262f901f7a060b5dc44c49934bf9ce7f44b2d0b84780a764e02a508964639997730f42fbaa8a01dcc4de8dec75d7aab85b567b6ccd41ad312451b948a7413f0a142fd40d49347942adc25665018aa1fe0e6bc666dac8fc2697ff9baa08f48414ebd161b69d82368e9a59e0ce34b31763e4bed2edb65e31b1bd87e8305a071f709457a5104b4156ff2cff0dbc56a9e6a9f221acfdbde6976b12b5e6a546fa0f7d3c4e4ae652fde71138e88df39befaab9f039b245dddebeefb87d48b41d3c0b90100000000000000000000000000000000000000000000000000000000000000000000000000000000000000000000000000000000000000000000000000000000000000000000000000000000000000000000000000000000000000000000000000000000000000000000000000000000000000000000000000000000000000000000000000000000000000000000000000000000000000000000000000000000000000000000000000000000000000000000000000000000000000000000000000000000000000000000000000000000000000000000000000000000000000000000000000000000000000000000000000000000000000000000000000000000008302000001839896808259dc8203e880a0fb2fd069641b369011bd108c6eb55c53893e863360a881a547b8029ca5819690880df87079585a1a7af865f8638001830f424094095e7baea6a6c7c4c2dfeb977efac326af552d87830186a0801ba0b5a74d7a966105ad23121c35e63f659bb4b94a7b7a437b7a2ea78d4672cad937a0535bf92804677e0bd3c56a4328561202e4d6b6fd374fe9f27b97e4c9d69f7db5c0",
                "transactions" : [
                    {
                        "data" : "0x",
                        "gasLimit" : "0x0f4240",
                        "gasPrice" : "0x01",
                        "nonce" : "0x00",
                        "r" : "0xb5a74d7a966105ad23121c35e63f659bb4b94a7b7a437b7a2ea78d4672cad937",
                        "s" : "0x535bf92804677e0bd3c56a4328561202e4d6b6fd374fe9f27b97e4c9d69f7db5",
                        "to" : "0x095e7baea6a6c7c4c2dfeb977efac326af552d87",
                        "v" : "0x1b",
                        "value" : "0x0186a0"
                    }
                ],
                "uncleHeaders" : [
                ]
            }
        ],
        "genesisBlockHeader" : {
            "bloom" : "0x00000000000000000000000000000000000000000000000000000000000000000000000000000000000000000000000000000000000000000000000000000000000000000000000000000000000000000000000000000000000000000000000000000000000000000000000000000000000000000000000000000000000000000000000000000000000000000000000000000000000000000000000000000000000000000000000000000000000000000000000000000000000000000000000000000000000000000000000000000000000000000000000000000000000000000000000000000000000000000000000000000000000000000000000000000000",
            "coinbase" : "0x2adc25665018aa1fe0e6bc666dac8fc2697ff9ba",
            "difficulty" : "0x020000",
            "extraData" : "0x42",
            "gasLimit" : "0x989680",
            "gasUsed" : "0x00",
            "hash" : "0x60b5dc44c49934bf9ce7f44b2d0b84780a764e02a508964639997730f42fbaa8",
            "mixHash" : "0x56e81f171bcc55a6ff8345e692c0f86e5b48e01b996cadc001622fb5e363b421",
            "nonce" : "0x0102030405060708",
            "number" : "0x00",
            "parentHash" : "0x0000000000000000000000000000000000000000000000000000000000000000",
            "receiptTrie" : "0x56e81f171bcc55a6ff8345e692c0f86e5b48e01b996cadc001622fb5e363b421",
            "stateRoot" : "0x13c5570732258e0ff45abb2caee101fd11ae79083fcd459d03491272f2026427",
            "timestamp" : "0x03b6",
            "transactionsTrie" : "0x56e81f171bcc55a6ff8345e692c0f86e5b48e01b996cadc001622fb5e363b421",
            "uncleHash" : "0x1dcc4de8dec75d7aab85b567b6ccd41ad312451b948a7413f0a142fd40d49347"
        },
        "genesisRLP" : "0xf901faf901f5a00000000000000000000000000000000000000000000000000000000000000000a01dcc4de8dec75d7aab85b567b6ccd41ad312451b948a7413f0a142fd40d49347942adc25665018aa1fe0e6bc666dac8fc2697ff9baa013c5570732258e0ff45abb2caee101fd11ae79083fcd459d03491272f2026427a056e81f171bcc55a6ff8345e692c0f86e5b48e01b996cadc001622fb5e363b421a056e81f171bcc55a6ff8345e692c0f86e5b48e01b996cadc001622fb5e363b421b9010000000000000000000000000000000000000000000000000000000000000000000000000000000000000000000000000000000000000000000000000000000000000000000000000000000000000000000000000000000000000000000000000000000000000000000000000000000000000000000000000000000000000000000000000000000000000000000000000000000000000000000000000000000000000000000000000000000000000000000000000000000000000000000000000000000000000000000000000000000000000000000000000000000000000000000000000000000000000000000000000000000000000000000000000000000000830200008083989680808203b642a056e81f171bcc55a6ff8345e692c0f86e5b48e01b996cadc001622fb5e363b421880102030405060708c0c0",
        "lastblockhash" : "0xbf97b954e89e7cb767e1b6ec8fdc8b8117e1446eef623b7609ffb91c0e3e61f3",
        "network" : "EIP150",
        "postState" : {
            "0x2adc25665018aa1fe0e6bc666dac8fc2697ff9ba" : {
                "balance" : "0x4563918244f459dc",
                "code" : "",
                "nonce" : "0x00",
                "storage" : {
                }
            },
            "0xa94f5374fce5edbc8e2a8697c15331677e6ebf0b" : {
                "balance" : "0x0de0b6b3a7621f84",
                "code" : "",
                "nonce" : "0x01",
                "storage" : {
                }
            }
        },
        "pre" : {
            "0x095e7baea6a6c7c4c2dfeb977efac326af552d87" : {
                "balance" : "0x0de0b6b3a7640000",
                "code" : "0x3060005530ff",
                "nonce" : "0x00",
                "storage" : {
                }
            },
            "0xa94f5374fce5edbc8e2a8697c15331677e6ebf0b" : {
                "balance" : "0x0de0b6b3a7640000",
                "code" : "",
                "nonce" : "0x00",
                "storage" : {
                }
            }
        }
    },
    "suicideAddress_d0g0v0_EIP158" : {
        "_info" : {
            "comment" : "",
            "filledwith" : "cpp-1.3.0+commit.ee0c6776.Linux.g++",
            "lllcversion" : "Version: 0.4.20-develop.2018.2.4+commit.c696803f.Linux.g++",
            "source" : "src/BlockchainTestsFiller/GeneralStateTests/stSystemOperationsTest/suicideAddress_d0g0v0Filler.json",
            "sourceHash" : "d9b66ecc9e6658cc5322717e7a701d26c3ec08455fcea39319d71fc44c755b10"
        },
        "blocks" : [
            {
                "blockHeader" : {
                    "bloom" : "0x00000000000000000000000000000000000000000000000000000000000000000000000000000000000000000000000000000000000000000000000000000000000000000000000000000000000000000000000000000000000000000000000000000000000000000000000000000000000000000000000000000000000000000000000000000000000000000000000000000000000000000000000000000000000000000000000000000000000000000000000000000000000000000000000000000000000000000000000000000000000000000000000000000000000000000000000000000000000000000000000000000000000000000000000000000000",
                    "coinbase" : "0x2adc25665018aa1fe0e6bc666dac8fc2697ff9ba",
                    "difficulty" : "0x020000",
                    "extraData" : "",
                    "gasLimit" : "0x989680",
                    "gasUsed" : "0x59dc",
                    "hash" : "0x17d0cd9d66624ea9a203e3d6cc89c492be39157f76691f5b22d67a06d4f48470",
                    "mixHash" : "0xc38ac0078eba8e5427707f757b779be17eac8bf9c313120988cad6d29bb5011c",
                    "nonce" : "0x19b1dc73470dd3a0",
                    "number" : "0x01",
                    "parentHash" : "0x60b5dc44c49934bf9ce7f44b2d0b84780a764e02a508964639997730f42fbaa8",
                    "receiptTrie" : "0xf7d3c4e4ae652fde71138e88df39befaab9f039b245dddebeefb87d48b41d3c0",
                    "stateRoot" : "0x8f48414ebd161b69d82368e9a59e0ce34b31763e4bed2edb65e31b1bd87e8305",
                    "timestamp" : "0x03e8",
                    "transactionsTrie" : "0x71f709457a5104b4156ff2cff0dbc56a9e6a9f221acfdbde6976b12b5e6a546f",
                    "uncleHash" : "0x1dcc4de8dec75d7aab85b567b6ccd41ad312451b948a7413f0a142fd40d49347"
                },
                "rlp" : "0xf90262f901f7a060b5dc44c49934bf9ce7f44b2d0b84780a764e02a508964639997730f42fbaa8a01dcc4de8dec75d7aab85b567b6ccd41ad312451b948a7413f0a142fd40d49347942adc25665018aa1fe0e6bc666dac8fc2697ff9baa08f48414ebd161b69d82368e9a59e0ce34b31763e4bed2edb65e31b1bd87e8305a071f709457a5104b4156ff2cff0dbc56a9e6a9f221acfdbde6976b12b5e6a546fa0f7d3c4e4ae652fde71138e88df39befaab9f039b245dddebeefb87d48b41d3c0b90100000000000000000000000000000000000000000000000000000000000000000000000000000000000000000000000000000000000000000000000000000000000000000000000000000000000000000000000000000000000000000000000000000000000000000000000000000000000000000000000000000000000000000000000000000000000000000000000000000000000000000000000000000000000000000000000000000000000000000000000000000000000000000000000000000000000000000000000000000000000000000000000000000000000000000000000000000000000000000000000000000000000000000000000000000000008302000001839896808259dc8203e880a0c38ac0078eba8e5427707f757b779be17eac8bf9c313120988cad6d29bb5011c8819b1dc73470dd3a0f865f8638001830f424094095e7baea6a6c7c4c2dfeb977efac326af552d87830186a0801ba0b5a74d7a966105ad23121c35e63f659bb4b94a7b7a437b7a2ea78d4672cad937a0535bf92804677e0bd3c56a4328561202e4d6b6fd374fe9f27b97e4c9d69f7db5c0",
                "transactions" : [
                    {
                        "data" : "0x",
                        "gasLimit" : "0x0f4240",
                        "gasPrice" : "0x01",
                        "nonce" : "0x00",
                        "r" : "0xb5a74d7a966105ad23121c35e63f659bb4b94a7b7a437b7a2ea78d4672cad937",
                        "s" : "0x535bf92804677e0bd3c56a4328561202e4d6b6fd374fe9f27b97e4c9d69f7db5",
                        "to" : "0x095e7baea6a6c7c4c2dfeb977efac326af552d87",
                        "v" : "0x1b",
                        "value" : "0x0186a0"
                    }
                ],
                "uncleHeaders" : [
                ]
            }
        ],
        "genesisBlockHeader" : {
            "bloom" : "0x00000000000000000000000000000000000000000000000000000000000000000000000000000000000000000000000000000000000000000000000000000000000000000000000000000000000000000000000000000000000000000000000000000000000000000000000000000000000000000000000000000000000000000000000000000000000000000000000000000000000000000000000000000000000000000000000000000000000000000000000000000000000000000000000000000000000000000000000000000000000000000000000000000000000000000000000000000000000000000000000000000000000000000000000000000000",
            "coinbase" : "0x2adc25665018aa1fe0e6bc666dac8fc2697ff9ba",
            "difficulty" : "0x020000",
            "extraData" : "0x42",
            "gasLimit" : "0x989680",
            "gasUsed" : "0x00",
            "hash" : "0x60b5dc44c49934bf9ce7f44b2d0b84780a764e02a508964639997730f42fbaa8",
            "mixHash" : "0x56e81f171bcc55a6ff8345e692c0f86e5b48e01b996cadc001622fb5e363b421",
            "nonce" : "0x0102030405060708",
            "number" : "0x00",
            "parentHash" : "0x0000000000000000000000000000000000000000000000000000000000000000",
            "receiptTrie" : "0x56e81f171bcc55a6ff8345e692c0f86e5b48e01b996cadc001622fb5e363b421",
            "stateRoot" : "0x13c5570732258e0ff45abb2caee101fd11ae79083fcd459d03491272f2026427",
            "timestamp" : "0x03b6",
            "transactionsTrie" : "0x56e81f171bcc55a6ff8345e692c0f86e5b48e01b996cadc001622fb5e363b421",
            "uncleHash" : "0x1dcc4de8dec75d7aab85b567b6ccd41ad312451b948a7413f0a142fd40d49347"
        },
        "genesisRLP" : "0xf901faf901f5a00000000000000000000000000000000000000000000000000000000000000000a01dcc4de8dec75d7aab85b567b6ccd41ad312451b948a7413f0a142fd40d49347942adc25665018aa1fe0e6bc666dac8fc2697ff9baa013c5570732258e0ff45abb2caee101fd11ae79083fcd459d03491272f2026427a056e81f171bcc55a6ff8345e692c0f86e5b48e01b996cadc001622fb5e363b421a056e81f171bcc55a6ff8345e692c0f86e5b48e01b996cadc001622fb5e363b421b9010000000000000000000000000000000000000000000000000000000000000000000000000000000000000000000000000000000000000000000000000000000000000000000000000000000000000000000000000000000000000000000000000000000000000000000000000000000000000000000000000000000000000000000000000000000000000000000000000000000000000000000000000000000000000000000000000000000000000000000000000000000000000000000000000000000000000000000000000000000000000000000000000000000000000000000000000000000000000000000000000000000000000000000000000000000000830200008083989680808203b642a056e81f171bcc55a6ff8345e692c0f86e5b48e01b996cadc001622fb5e363b421880102030405060708c0c0",
        "lastblockhash" : "0x17d0cd9d66624ea9a203e3d6cc89c492be39157f76691f5b22d67a06d4f48470",
        "network" : "EIP158",
        "postState" : {
            "0x2adc25665018aa1fe0e6bc666dac8fc2697ff9ba" : {
                "balance" : "0x4563918244f459dc",
                "code" : "",
                "nonce" : "0x00",
                "storage" : {
                }
            },
            "0xa94f5374fce5edbc8e2a8697c15331677e6ebf0b" : {
                "balance" : "0x0de0b6b3a7621f84",
                "code" : "",
                "nonce" : "0x01",
                "storage" : {
                }
            }
        },
        "pre" : {
            "0x095e7baea6a6c7c4c2dfeb977efac326af552d87" : {
                "balance" : "0x0de0b6b3a7640000",
                "code" : "0x3060005530ff",
                "nonce" : "0x00",
                "storage" : {
                }
            },
            "0xa94f5374fce5edbc8e2a8697c15331677e6ebf0b" : {
                "balance" : "0x0de0b6b3a7640000",
                "code" : "",
                "nonce" : "0x00",
                "storage" : {
                }
            }
        }
    },
    "suicideAddress_d0g0v0_Frontier" : {
        "_info" : {
            "comment" : "",
            "filledwith" : "cpp-1.3.0+commit.ee0c6776.Linux.g++",
            "lllcversion" : "Version: 0.4.20-develop.2018.2.4+commit.c696803f.Linux.g++",
            "source" : "src/BlockchainTestsFiller/GeneralStateTests/stSystemOperationsTest/suicideAddress_d0g0v0Filler.json",
            "sourceHash" : "d9b66ecc9e6658cc5322717e7a701d26c3ec08455fcea39319d71fc44c755b10"
        },
        "blocks" : [
            {
                "blockHeader" : {
                    "bloom" : "0x00000000000000000000000000000000000000000000000000000000000000000000000000000000000000000000000000000000000000000000000000000000000000000000000000000000000000000000000000000000000000000000000000000000000000000000000000000000000000000000000000000000000000000000000000000000000000000000000000000000000000000000000000000000000000000000000000000000000000000000000000000000000000000000000000000000000000000000000000000000000000000000000000000000000000000000000000000000000000000000000000000000000000000000000000000000",
                    "coinbase" : "0x2adc25665018aa1fe0e6bc666dac8fc2697ff9ba",
                    "difficulty" : "0x020000",
                    "extraData" : "",
                    "gasLimit" : "0x989680",
                    "gasUsed" : "0x5018",
                    "hash" : "0x3552195c2f0099feba5f4a83ff28f673c945bc024711e4edea178e7bc175d4a3",
                    "mixHash" : "0xa7de8215a53a11e4e3931ec624cf922528b801acfffe100a0f80dcc94de4cc7e",
                    "nonce" : "0x967ba7cc76e190e5",
                    "number" : "0x01",
                    "parentHash" : "0x60b5dc44c49934bf9ce7f44b2d0b84780a764e02a508964639997730f42fbaa8",
                    "receiptTrie" : "0xf16cd5d99d458aa1da1cf5679dd5a62857e48e5b34d48319eaf0033158633274",
                    "stateRoot" : "0x09b60638b43c90d1493f6f73ad38b21f023dcb10155fcb5230571339b804065b",
                    "timestamp" : "0x03e8",
                    "transactionsTrie" : "0x71f709457a5104b4156ff2cff0dbc56a9e6a9f221acfdbde6976b12b5e6a546f",
                    "uncleHash" : "0x1dcc4de8dec75d7aab85b567b6ccd41ad312451b948a7413f0a142fd40d49347"
                },
                "rlp" : "0xf90262f901f7a060b5dc44c49934bf9ce7f44b2d0b84780a764e02a508964639997730f42fbaa8a01dcc4de8dec75d7aab85b567b6ccd41ad312451b948a7413f0a142fd40d49347942adc25665018aa1fe0e6bc666dac8fc2697ff9baa009b60638b43c90d1493f6f73ad38b21f023dcb10155fcb5230571339b804065ba071f709457a5104b4156ff2cff0dbc56a9e6a9f221acfdbde6976b12b5e6a546fa0f16cd5d99d458aa1da1cf5679dd5a62857e48e5b34d48319eaf0033158633274b90100000000000000000000000000000000000000000000000000000000000000000000000000000000000000000000000000000000000000000000000000000000000000000000000000000000000000000000000000000000000000000000000000000000000000000000000000000000000000000000000000000000000000000000000000000000000000000000000000000000000000000000000000000000000000000000000000000000000000000000000000000000000000000000000000000000000000000000000000000000000000000000000000000000000000000000000000000000000000000000000000000000000000000000000000000000008302000001839896808250188203e880a0a7de8215a53a11e4e3931ec624cf922528b801acfffe100a0f80dcc94de4cc7e88967ba7cc76e190e5f865f8638001830f424094095e7baea6a6c7c4c2dfeb977efac326af552d87830186a0801ba0b5a74d7a966105ad23121c35e63f659bb4b94a7b7a437b7a2ea78d4672cad937a0535bf92804677e0bd3c56a4328561202e4d6b6fd374fe9f27b97e4c9d69f7db5c0",
                "transactions" : [
                    {
                        "data" : "0x",
                        "gasLimit" : "0x0f4240",
                        "gasPrice" : "0x01",
                        "nonce" : "0x00",
                        "r" : "0xb5a74d7a966105ad23121c35e63f659bb4b94a7b7a437b7a2ea78d4672cad937",
                        "s" : "0x535bf92804677e0bd3c56a4328561202e4d6b6fd374fe9f27b97e4c9d69f7db5",
                        "to" : "0x095e7baea6a6c7c4c2dfeb977efac326af552d87",
                        "v" : "0x1b",
                        "value" : "0x0186a0"
                    }
                ],
                "uncleHeaders" : [
                ]
            }
        ],
        "genesisBlockHeader" : {
            "bloom" : "0x00000000000000000000000000000000000000000000000000000000000000000000000000000000000000000000000000000000000000000000000000000000000000000000000000000000000000000000000000000000000000000000000000000000000000000000000000000000000000000000000000000000000000000000000000000000000000000000000000000000000000000000000000000000000000000000000000000000000000000000000000000000000000000000000000000000000000000000000000000000000000000000000000000000000000000000000000000000000000000000000000000000000000000000000000000000",
            "coinbase" : "0x2adc25665018aa1fe0e6bc666dac8fc2697ff9ba",
            "difficulty" : "0x020000",
            "extraData" : "0x42",
            "gasLimit" : "0x989680",
            "gasUsed" : "0x00",
            "hash" : "0x60b5dc44c49934bf9ce7f44b2d0b84780a764e02a508964639997730f42fbaa8",
            "mixHash" : "0x56e81f171bcc55a6ff8345e692c0f86e5b48e01b996cadc001622fb5e363b421",
            "nonce" : "0x0102030405060708",
            "number" : "0x00",
            "parentHash" : "0x0000000000000000000000000000000000000000000000000000000000000000",
            "receiptTrie" : "0x56e81f171bcc55a6ff8345e692c0f86e5b48e01b996cadc001622fb5e363b421",
            "stateRoot" : "0x13c5570732258e0ff45abb2caee101fd11ae79083fcd459d03491272f2026427",
            "timestamp" : "0x03b6",
            "transactionsTrie" : "0x56e81f171bcc55a6ff8345e692c0f86e5b48e01b996cadc001622fb5e363b421",
            "uncleHash" : "0x1dcc4de8dec75d7aab85b567b6ccd41ad312451b948a7413f0a142fd40d49347"
        },
        "genesisRLP" : "0xf901faf901f5a00000000000000000000000000000000000000000000000000000000000000000a01dcc4de8dec75d7aab85b567b6ccd41ad312451b948a7413f0a142fd40d49347942adc25665018aa1fe0e6bc666dac8fc2697ff9baa013c5570732258e0ff45abb2caee101fd11ae79083fcd459d03491272f2026427a056e81f171bcc55a6ff8345e692c0f86e5b48e01b996cadc001622fb5e363b421a056e81f171bcc55a6ff8345e692c0f86e5b48e01b996cadc001622fb5e363b421b9010000000000000000000000000000000000000000000000000000000000000000000000000000000000000000000000000000000000000000000000000000000000000000000000000000000000000000000000000000000000000000000000000000000000000000000000000000000000000000000000000000000000000000000000000000000000000000000000000000000000000000000000000000000000000000000000000000000000000000000000000000000000000000000000000000000000000000000000000000000000000000000000000000000000000000000000000000000000000000000000000000000000000000000000000000000000830200008083989680808203b642a056e81f171bcc55a6ff8345e692c0f86e5b48e01b996cadc001622fb5e363b421880102030405060708c0c0",
        "lastblockhash" : "0x3552195c2f0099feba5f4a83ff28f673c945bc024711e4edea178e7bc175d4a3",
        "network" : "Frontier",
        "postState" : {
            "0x2adc25665018aa1fe0e6bc666dac8fc2697ff9ba" : {
                "balance" : "0x4563918244f45018",
                "code" : "",
                "nonce" : "0x00",
                "storage" : {
                }
            },
            "0xa94f5374fce5edbc8e2a8697c15331677e6ebf0b" : {
                "balance" : "0x0de0b6b3a7622948",
                "code" : "",
                "nonce" : "0x01",
                "storage" : {
                }
            }
        },
        "pre" : {
            "0x095e7baea6a6c7c4c2dfeb977efac326af552d87" : {
                "balance" : "0x0de0b6b3a7640000",
                "code" : "0x3060005530ff",
                "nonce" : "0x00",
                "storage" : {
                }
            },
            "0xa94f5374fce5edbc8e2a8697c15331677e6ebf0b" : {
                "balance" : "0x0de0b6b3a7640000",
                "code" : "",
                "nonce" : "0x00",
                "storage" : {
                }
            }
        }
    },
    "suicideAddress_d0g0v0_Homestead" : {
        "_info" : {
            "comment" : "",
            "filledwith" : "cpp-1.3.0+commit.ee0c6776.Linux.g++",
            "lllcversion" : "Version: 0.4.20-develop.2018.2.4+commit.c696803f.Linux.g++",
            "source" : "src/BlockchainTestsFiller/GeneralStateTests/stSystemOperationsTest/suicideAddress_d0g0v0Filler.json",
            "sourceHash" : "d9b66ecc9e6658cc5322717e7a701d26c3ec08455fcea39319d71fc44c755b10"
        },
        "blocks" : [
            {
                "blockHeader" : {
                    "bloom" : "0x00000000000000000000000000000000000000000000000000000000000000000000000000000000000000000000000000000000000000000000000000000000000000000000000000000000000000000000000000000000000000000000000000000000000000000000000000000000000000000000000000000000000000000000000000000000000000000000000000000000000000000000000000000000000000000000000000000000000000000000000000000000000000000000000000000000000000000000000000000000000000000000000000000000000000000000000000000000000000000000000000000000000000000000000000000000",
                    "coinbase" : "0x2adc25665018aa1fe0e6bc666dac8fc2697ff9ba",
                    "difficulty" : "0x020000",
                    "extraData" : "",
                    "gasLimit" : "0x989680",
                    "gasUsed" : "0x5018",
                    "hash" : "0xc5fb7bca79edb1a1f676de3b4eb435dfca8b40721647079a9641577f14f019f4",
                    "mixHash" : "0x961f0f877407515c9587c2dd88fd2e0b167ed7eb9459934cfaabb55d70645615",
                    "nonce" : "0xfad3a718efba83d1",
                    "number" : "0x01",
                    "parentHash" : "0x60b5dc44c49934bf9ce7f44b2d0b84780a764e02a508964639997730f42fbaa8",
                    "receiptTrie" : "0xf16cd5d99d458aa1da1cf5679dd5a62857e48e5b34d48319eaf0033158633274",
                    "stateRoot" : "0x09b60638b43c90d1493f6f73ad38b21f023dcb10155fcb5230571339b804065b",
                    "timestamp" : "0x03e8",
                    "transactionsTrie" : "0x71f709457a5104b4156ff2cff0dbc56a9e6a9f221acfdbde6976b12b5e6a546f",
                    "uncleHash" : "0x1dcc4de8dec75d7aab85b567b6ccd41ad312451b948a7413f0a142fd40d49347"
                },
                "rlp" : "0xf90262f901f7a060b5dc44c49934bf9ce7f44b2d0b84780a764e02a508964639997730f42fbaa8a01dcc4de8dec75d7aab85b567b6ccd41ad312451b948a7413f0a142fd40d49347942adc25665018aa1fe0e6bc666dac8fc2697ff9baa009b60638b43c90d1493f6f73ad38b21f023dcb10155fcb5230571339b804065ba071f709457a5104b4156ff2cff0dbc56a9e6a9f221acfdbde6976b12b5e6a546fa0f16cd5d99d458aa1da1cf5679dd5a62857e48e5b34d48319eaf0033158633274b90100000000000000000000000000000000000000000000000000000000000000000000000000000000000000000000000000000000000000000000000000000000000000000000000000000000000000000000000000000000000000000000000000000000000000000000000000000000000000000000000000000000000000000000000000000000000000000000000000000000000000000000000000000000000000000000000000000000000000000000000000000000000000000000000000000000000000000000000000000000000000000000000000000000000000000000000000000000000000000000000000000000000000000000000000000000008302000001839896808250188203e880a0961f0f877407515c9587c2dd88fd2e0b167ed7eb9459934cfaabb55d7064561588fad3a718efba83d1f865f8638001830f424094095e7baea6a6c7c4c2dfeb977efac326af552d87830186a0801ba0b5a74d7a966105ad23121c35e63f659bb4b94a7b7a437b7a2ea78d4672cad937a0535bf92804677e0bd3c56a4328561202e4d6b6fd374fe9f27b97e4c9d69f7db5c0",
                "transactions" : [
                    {
                        "data" : "0x",
                        "gasLimit" : "0x0f4240",
                        "gasPrice" : "0x01",
                        "nonce" : "0x00",
                        "r" : "0xb5a74d7a966105ad23121c35e63f659bb4b94a7b7a437b7a2ea78d4672cad937",
                        "s" : "0x535bf92804677e0bd3c56a4328561202e4d6b6fd374fe9f27b97e4c9d69f7db5",
                        "to" : "0x095e7baea6a6c7c4c2dfeb977efac326af552d87",
                        "v" : "0x1b",
                        "value" : "0x0186a0"
                    }
                ],
                "uncleHeaders" : [
                ]
            }
        ],
        "genesisBlockHeader" : {
            "bloom" : "0x00000000000000000000000000000000000000000000000000000000000000000000000000000000000000000000000000000000000000000000000000000000000000000000000000000000000000000000000000000000000000000000000000000000000000000000000000000000000000000000000000000000000000000000000000000000000000000000000000000000000000000000000000000000000000000000000000000000000000000000000000000000000000000000000000000000000000000000000000000000000000000000000000000000000000000000000000000000000000000000000000000000000000000000000000000000",
            "coinbase" : "0x2adc25665018aa1fe0e6bc666dac8fc2697ff9ba",
            "difficulty" : "0x020000",
            "extraData" : "0x42",
            "gasLimit" : "0x989680",
            "gasUsed" : "0x00",
            "hash" : "0x60b5dc44c49934bf9ce7f44b2d0b84780a764e02a508964639997730f42fbaa8",
            "mixHash" : "0x56e81f171bcc55a6ff8345e692c0f86e5b48e01b996cadc001622fb5e363b421",
            "nonce" : "0x0102030405060708",
            "number" : "0x00",
            "parentHash" : "0x0000000000000000000000000000000000000000000000000000000000000000",
            "receiptTrie" : "0x56e81f171bcc55a6ff8345e692c0f86e5b48e01b996cadc001622fb5e363b421",
            "stateRoot" : "0x13c5570732258e0ff45abb2caee101fd11ae79083fcd459d03491272f2026427",
            "timestamp" : "0x03b6",
            "transactionsTrie" : "0x56e81f171bcc55a6ff8345e692c0f86e5b48e01b996cadc001622fb5e363b421",
            "uncleHash" : "0x1dcc4de8dec75d7aab85b567b6ccd41ad312451b948a7413f0a142fd40d49347"
        },
        "genesisRLP" : "0xf901faf901f5a00000000000000000000000000000000000000000000000000000000000000000a01dcc4de8dec75d7aab85b567b6ccd41ad312451b948a7413f0a142fd40d49347942adc25665018aa1fe0e6bc666dac8fc2697ff9baa013c5570732258e0ff45abb2caee101fd11ae79083fcd459d03491272f2026427a056e81f171bcc55a6ff8345e692c0f86e5b48e01b996cadc001622fb5e363b421a056e81f171bcc55a6ff8345e692c0f86e5b48e01b996cadc001622fb5e363b421b9010000000000000000000000000000000000000000000000000000000000000000000000000000000000000000000000000000000000000000000000000000000000000000000000000000000000000000000000000000000000000000000000000000000000000000000000000000000000000000000000000000000000000000000000000000000000000000000000000000000000000000000000000000000000000000000000000000000000000000000000000000000000000000000000000000000000000000000000000000000000000000000000000000000000000000000000000000000000000000000000000000000000000000000000000000000000830200008083989680808203b642a056e81f171bcc55a6ff8345e692c0f86e5b48e01b996cadc001622fb5e363b421880102030405060708c0c0",
        "lastblockhash" : "0xc5fb7bca79edb1a1f676de3b4eb435dfca8b40721647079a9641577f14f019f4",
        "network" : "Homestead",
        "postState" : {
            "0x2adc25665018aa1fe0e6bc666dac8fc2697ff9ba" : {
                "balance" : "0x4563918244f45018",
                "code" : "",
                "nonce" : "0x00",
                "storage" : {
                }
            },
            "0xa94f5374fce5edbc8e2a8697c15331677e6ebf0b" : {
                "balance" : "0x0de0b6b3a7622948",
                "code" : "",
                "nonce" : "0x01",
                "storage" : {
                }
            }
        },
        "pre" : {
            "0x095e7baea6a6c7c4c2dfeb977efac326af552d87" : {
                "balance" : "0x0de0b6b3a7640000",
                "code" : "0x3060005530ff",
                "nonce" : "0x00",
                "storage" : {
                }
            },
            "0xa94f5374fce5edbc8e2a8697c15331677e6ebf0b" : {
                "balance" : "0x0de0b6b3a7640000",
                "code" : "",
                "nonce" : "0x00",
                "storage" : {
                }
            }
        }
    }
}