{
    "log1" : {
        "_info" : {
            "comment" : "Ori Pomerantz qbzzt1@gmail.com",
            "filling-rpc-server" : "evm version 1.10.2-unstable-22082f9e-20210309",
            "filling-tool-version" : "retesteth-0.1.0-accesslist+commit.47c69eb3.Linux.g++",
            "lllcversion" : "Version: 0.5.14-develop.2020.6.22+commit.9189ad7a.Linux.g++",
            "source" : "src/GeneralStateTestsFiller/VMTests/vmLogTest/log1Filler.yml",
            "sourceHash" : "d47d1d6cec3a52f17029124f199971c1f6dc33e61fe2584a1aa0ae44bc652c67",
            "labels" : {
                "0" : ":label emptyMem",
                "1" : ":label memStartTooHigh",
                "2" : ":label memSizeTooHigh",
                "3" : ":label memSizeZero",
                "4" : ":label nonEmptyMem",
                "5" : ":label log_0_1",
                "6" : ":label log_31_1",
                "7" : ":label caller",
                "8" : ":label maxTopic"
            }
        },
        "env" : {
            "currentCoinbase" : "0x2adc25665018aa1fe0e6bc666dac8fc2697ff9ba",
            "currentDifficulty" : "0x020000",
            "currentGasLimit" : "0x05f5e100",
            "currentNumber" : "0x01",
            "currentTimestamp" : "0x03e8",
            "previousHash" : "0x5e20a0453cecd065ea59c37ac63e079ee08998b6045136a8ce6635c7912ec0b6"
        },
        "post" : {
            "Berlin" : [
                {
                    "indexes" : {
                        "data" : 0,
                        "gas" : 0,
                        "value" : 0
                    },
                    "hash" : "0xe6cb08c694de95af792f0d20cb4f0a0e1cfccc0fea18fd08319840879ff85ae8",
                    "txbytes" : "0xf88580018404c4b40094cccccccccccccccccccccccccccccccccccccccc01a4693c613900000000000000000000000000000000000000000000000000000000000000001ba08eeba432a3954ac6c47e39f71bcce15296d3ee164806e14574a281d2ef1e5cd8a0516a699c0ea68c77c9993ee65510c2c49c3365439c9ad7d7acea2ba315e82257",
                    "logs" : "0xae5bdbf9098f61cb46facba16127337099fc06e9bb56c37394d42995e9c53488"
                },
                {
                    "indexes" : {
                        "data" : 3,
                        "gas" : 0,
                        "value" : 0
                    },
                    "hash" : "0x8d1ddf9d973fc4ea9acb399bf1434ae5e4cc35d0852a9df37c2b7a8a9bd99696",
                    "txbytes" : "0xf88580018404c4b40094cccccccccccccccccccccccccccccccccccccccc01a4693c613900000000000000000000000000000000000000000000000000000000000000031ca01495a7e1cd0a8ee6b7a2f3b6e027a5df32b05f45ecd372e78b84b3b428d918c5a0508e56b49ed794f2a3bec92325f7611fc02fe006b2d701f2fa5a77bc6c279967",
                    "logs" : "0xae5bdbf9098f61cb46facba16127337099fc06e9bb56c37394d42995e9c53488"
                },
                {
                    "indexes" : {
                        "data" : 4,
                        "gas" : 0,
                        "value" : 0
                    },
                    "hash" : "0xf8bd6f2d5bc2d5179364578506a1619ef36f5b94ed46c5d37c4ef178c7059bcb",
                    "txbytes" : "0xf88580018404c4b40094cccccccccccccccccccccccccccccccccccccccc01a4693c613900000000000000000000000000000000000000000000000000000000000000041ba0c4a345e3a1be0474cc3cb24b853698a3b8311b6d9d77d259b89a7d4c7ed8ffc7a052742442d9e4f93cb675cd2d2295250e6e4ca11dbb2c64af3f83f6f8d0993d45",
                    "logs" : "0x715a435f3ae4ee30f68f518f55b5c0b1470a0f0f5d4e6a8808104888f3ab8cf2"
                },
                {
                    "indexes" : {
                        "data" : 5,
                        "gas" : 0,
                        "value" : 0
                    },
                    "hash" : "0xc02ce72be9fe4468d56ca498761b5d761f025cc56cc67d571d71093f88d0c8ea",
                    "txbytes" : "0xf88580018404c4b40094cccccccccccccccccccccccccccccccccccccccc01a4693c613900000000000000000000000000000000000000000000000000000000000000051ca0ce4f2e2d7adb90e6968b7f2e53dfb322f253e3874b805e0e00a7450e9791bc15a007b52143255bc915f07611ef9249aa2398ac1302524770e6e5a80aed52804edb",
                    "logs" : "0x88f273dbcbaa998332dafcb59830edc6822ebbea343dcf0968fb45e947ef8e7a"
                },
                {
                    "indexes" : {
                        "data" : 6,
                        "gas" : 0,
                        "value" : 0
                    },
                    "hash" : "0xc02ce72be9fe4468d56ca498761b5d761f025cc56cc67d571d71093f88d0c8ea",
                    "txbytes" : "0xf88580018404c4b40094cccccccccccccccccccccccccccccccccccccccc01a4693c613900000000000000000000000000000000000000000000000000000000000000061ca09cb0fc51b627a160ef09871d13dc3b87acc24583924969b0525b0a9af862201aa043d218005a24f191ed2a50a23a8b8e3ec179259884d483c63bb2022be790bed2",
                    "logs" : "0x3165db8c6c6d39130da352396f4c928ae3b6e70810763119d739de637c8ed1df"
                },
                {
                    "indexes" : {
                        "data" : 7,
                        "gas" : 0,
                        "value" : 0
                    },
                    "hash" : "0xc1b4cf53ba586958a96786706696fc3b6c9cd68ee69f08de7af883ead6a190cd",
                    "txbytes" : "0xf88580018404c4b40094cccccccccccccccccccccccccccccccccccccccc01a4693c613900000000000000000000000000000000000000000000000000000000000000071ca00e5d0886d5dba7802dd2fe87fae09c69c2b536a505ceedec91ae5686283b28a7a04402b06a995565b97875c687d5ba0d308f9094046777739f36ffe5662f0b3a69",
                    "logs" : "0xb8d313dc46525c07b5dddc429720e82f42da3c3e47a6b2cd38b74ec6226c0c39"
                },
                {
                    "indexes" : {
                        "data" : 8,
                        "gas" : 0,
                        "value" : 0
                    },
                    "hash" : "0x888a11c887c5c3e8deebbafc46efb100cc6b91ae19050083fac61583fde92e0d",
                    "txbytes" : "0xf88580018404c4b40094cccccccccccccccccccccccccccccccccccccccc01a4693c613900000000000000000000000000000000000000000000000000000000000000081ca0e5f7742a5f19ca451fffc2be112c4e70117975bb330b3c64dee4646861d5b75ba010135f750c42f7a3de1bc1f5aeac6ae0fe7455e1e54a430bee1f354cce619b11",
                    "logs" : "0x38ab44f06b43770f591ea61f9d7e0a7881a3a36c78b6355d3764ec2ad002a03d"
                },
                {
                    "indexes" : {
                        "data" : 1,
                        "gas" : 0,
                        "value" : 0
                    },
                    "hash" : "0x6b140543d512ec1389291c6489350d01e3db4610df3858830791c5737ab6ed7d",
                    "txbytes" : "0xf88580018404c4b40094cccccccccccccccccccccccccccccccccccccccc01a4693c613900000000000000000000000000000000000000000000000000000000000000011ba0a10a6d356c5027b495e3713bf1fdba3b303ac8f7712bdd34d703273e50c45c4fa01e429194b2ae11a1a823478aff677f2b408cc63cae46ec72a092c14d4d6d739b",
                    "logs" : "0x1dcc4de8dec75d7aab85b567b6ccd41ad312451b948a7413f0a142fd40d49347"
                },
                {
                    "indexes" : {
                        "data" : 2,
                        "gas" : 0,
                        "value" : 0
                    },
                    "hash" : "0x6b140543d512ec1389291c6489350d01e3db4610df3858830791c5737ab6ed7d",
                    "txbytes" : "0xf88580018404c4b40094cccccccccccccccccccccccccccccccccccccccc01a4693c613900000000000000000000000000000000000000000000000000000000000000021ba06e91e88d6ff9824c63967c05d2721afbdc408723585adced759ae0bf00b26a39a01072e7a06f7962bee3c171fc458e21c4f25c2603d69d544442cfaf5ab4ee6251",
                    "logs" : "0x1dcc4de8dec75d7aab85b567b6ccd41ad312451b948a7413f0a142fd40d49347"
                }
            ],
            "Istanbul" : [
                {
                    "indexes" : {
                        "data" : 0,
                        "gas" : 0,
                        "value" : 0
                    },
                    "hash" : "0x224342254208935298db7db4bfd24d39dd0428ab449dad036b7c1c9e1ad0186a",
                    "txbytes" : "0xf88580018404c4b40094cccccccccccccccccccccccccccccccccccccccc01a4693c613900000000000000000000000000000000000000000000000000000000000000001ba08eeba432a3954ac6c47e39f71bcce15296d3ee164806e14574a281d2ef1e5cd8a0516a699c0ea68c77c9993ee65510c2c49c3365439c9ad7d7acea2ba315e82257",
                    "logs" : "0xae5bdbf9098f61cb46facba16127337099fc06e9bb56c37394d42995e9c53488"
                },
                {
                    "indexes" : {
                        "data" : 3,
                        "gas" : 0,
                        "value" : 0
                    },
                    "hash" : "0x6b645816d9180099e0132462b1203259f9c224c2456c6ae37c351386ab944db5",
                    "txbytes" : "0xf88580018404c4b40094cccccccccccccccccccccccccccccccccccccccc01a4693c613900000000000000000000000000000000000000000000000000000000000000031ca01495a7e1cd0a8ee6b7a2f3b6e027a5df32b05f45ecd372e78b84b3b428d918c5a0508e56b49ed794f2a3bec92325f7611fc02fe006b2d701f2fa5a77bc6c279967",
                    "logs" : "0xae5bdbf9098f61cb46facba16127337099fc06e9bb56c37394d42995e9c53488"
                },
                {
                    "indexes" : {
                        "data" : 4,
                        "gas" : 0,
                        "value" : 0
                    },
                    "hash" : "0xca04f4b1827ed5867e773a1f17fc05625dfc1f209f331963fbfbcfc19da88966",
                    "txbytes" : "0xf88580018404c4b40094cccccccccccccccccccccccccccccccccccccccc01a4693c613900000000000000000000000000000000000000000000000000000000000000041ba0c4a345e3a1be0474cc3cb24b853698a3b8311b6d9d77d259b89a7d4c7ed8ffc7a052742442d9e4f93cb675cd2d2295250e6e4ca11dbb2c64af3f83f6f8d0993d45",
                    "logs" : "0x715a435f3ae4ee30f68f518f55b5c0b1470a0f0f5d4e6a8808104888f3ab8cf2"
                },
                {
                    "indexes" : {
                        "data" : 5,
                        "gas" : 0,
                        "value" : 0
                    },
                    "hash" : "0x4754e59d6fab3c420efd5463f5801b6ae64a24b1bf43c186c32f285a66816a2b",
                    "txbytes" : "0xf88580018404c4b40094cccccccccccccccccccccccccccccccccccccccc01a4693c613900000000000000000000000000000000000000000000000000000000000000051ca0ce4f2e2d7adb90e6968b7f2e53dfb322f253e3874b805e0e00a7450e9791bc15a007b52143255bc915f07611ef9249aa2398ac1302524770e6e5a80aed52804edb",
                    "logs" : "0x88f273dbcbaa998332dafcb59830edc6822ebbea343dcf0968fb45e947ef8e7a"
                },
                {
                    "indexes" : {
                        "data" : 6,
                        "gas" : 0,
                        "value" : 0
                    },
                    "hash" : "0x4754e59d6fab3c420efd5463f5801b6ae64a24b1bf43c186c32f285a66816a2b",
                    "txbytes" : "0xf88580018404c4b40094cccccccccccccccccccccccccccccccccccccccc01a4693c613900000000000000000000000000000000000000000000000000000000000000061ca09cb0fc51b627a160ef09871d13dc3b87acc24583924969b0525b0a9af862201aa043d218005a24f191ed2a50a23a8b8e3ec179259884d483c63bb2022be790bed2",
                    "logs" : "0x3165db8c6c6d39130da352396f4c928ae3b6e70810763119d739de637c8ed1df"
                },
                {
                    "indexes" : {
                        "data" : 7,
                        "gas" : 0,
                        "value" : 0
                    },
                    "hash" : "0xa5509a095e48c8798c2dbcea047f684edc70b2cb2ef94f5ffa4fac333741beb8",
                    "txbytes" : "0xf88580018404c4b40094cccccccccccccccccccccccccccccccccccccccc01a4693c613900000000000000000000000000000000000000000000000000000000000000071ca00e5d0886d5dba7802dd2fe87fae09c69c2b536a505ceedec91ae5686283b28a7a04402b06a995565b97875c687d5ba0d308f9094046777739f36ffe5662f0b3a69",
                    "logs" : "0xb8d313dc46525c07b5dddc429720e82f42da3c3e47a6b2cd38b74ec6226c0c39"
                },
                {
                    "indexes" : {
                        "data" : 8,
                        "gas" : 0,
                        "value" : 0
                    },
                    "hash" : "0x601cb7b7534d1ad326129373eb333ba9b79374943e7e6b1b9a8d8bee9312bc28",
                    "txbytes" : "0xf88580018404c4b40094cccccccccccccccccccccccccccccccccccccccc01a4693c613900000000000000000000000000000000000000000000000000000000000000081ca0e5f7742a5f19ca451fffc2be112c4e70117975bb330b3c64dee4646861d5b75ba010135f750c42f7a3de1bc1f5aeac6ae0fe7455e1e54a430bee1f354cce619b11",
                    "logs" : "0x38ab44f06b43770f591ea61f9d7e0a7881a3a36c78b6355d3764ec2ad002a03d"
                },
                {
                    "indexes" : {
                        "data" : 1,
                        "gas" : 0,
                        "value" : 0
                    },
                    "hash" : "0x0d5b733fdd28a49395c34e7f75ff5a3c881169719d8507785749c3b2f71e199b",
                    "txbytes" : "0xf88580018404c4b40094cccccccccccccccccccccccccccccccccccccccc01a4693c613900000000000000000000000000000000000000000000000000000000000000011ba0a10a6d356c5027b495e3713bf1fdba3b303ac8f7712bdd34d703273e50c45c4fa01e429194b2ae11a1a823478aff677f2b408cc63cae46ec72a092c14d4d6d739b",
                    "logs" : "0x1dcc4de8dec75d7aab85b567b6ccd41ad312451b948a7413f0a142fd40d49347"
                },
                {
                    "indexes" : {
                        "data" : 2,
                        "gas" : 0,
                        "value" : 0
                    },
                    "hash" : "0x0d5b733fdd28a49395c34e7f75ff5a3c881169719d8507785749c3b2f71e199b",
                    "txbytes" : "0xf88580018404c4b40094cccccccccccccccccccccccccccccccccccccccc01a4693c613900000000000000000000000000000000000000000000000000000000000000021ba06e91e88d6ff9824c63967c05d2721afbdc408723585adced759ae0bf00b26a39a01072e7a06f7962bee3c171fc458e21c4f25c2603d69d544442cfaf5ab4ee6251",
                    "logs" : "0x1dcc4de8dec75d7aab85b567b6ccd41ad312451b948a7413f0a142fd40d49347"
                }
            ]
        },
        "pre" : {
            "0x0000000000000000000000000000000000000100" : {
                "balance" : "0x0ba1a9ce0ba1a9ce",
                "code" : "0x600060006000a161600d60005500",
                "nonce" : "0x00",
                "storage" : {
                }
            },
            "0x0000000000000000000000000000000000000101" : {
                "balance" : "0x0ba1a9ce0ba1a9ce",
                "code" : "0x7faabbffffffffffffffffffffffffffffffffffffffffffffffffffffffffccdd600052600060017fffffffffffffffffffffffffffffffffffffffffffffffffffffffffffffffffa161600d60005500",
                "nonce" : "0x00",
                "storage" : {
                }
            },
            "0x0000000000000000000000000000000000000102" : {
                "balance" : "0x0ba1a9ce0ba1a9ce",
                "code" : "0x7faabbffffffffffffffffffffffffffffffffffffffffffffffffffffffffccdd60005260007fffffffffffffffffffffffffffffffffffffffffffffffffffffffffffffffff6001a161600d60005500",
                "nonce" : "0x00",
                "storage" : {
                }
            },
            "0x0000000000000000000000000000000000000103" : {
                "balance" : "0x0ba1a9ce0ba1a9ce",
                "code" : "0x7faabbffffffffffffffffffffffffffffffffffffffffffffffffffffffffccdd600052600060006001a161600d60005500",
                "nonce" : "0x00",
                "storage" : {
                }
            },
            "0x0000000000000000000000000000000000000104" : {
                "balance" : "0x0ba1a9ce0ba1a9ce",
                "code" : "0x7fffffffffffffffffffffffffffffffffffffffffffffffffffffffffffffffff600052600060206000a161600d60005500",
                "nonce" : "0x00",
                "storage" : {
                }
            },
            "0x0000000000000000000000000000000000000105" : {
                "balance" : "0x0ba1a9ce0ba1a9ce",
                "code" : "0x7faabbffffffffffffffffffffffffffffffffffffffffffffffffffffffffccdd600052600060016000a161600d60005500",
                "nonce" : "0x00",
                "storage" : {
                }
            },
            "0x0000000000000000000000000000000000000106" : {
                "balance" : "0x0ba1a9ce0ba1a9ce",
                "code" : "0x7faabbffffffffffffffffffffffffffffffffffffffffffffffffffffffffccdd60005260006001601fa161600d60005500",
                "nonce" : "0x00",
                "storage" : {
                }
            },
            "0x0000000000000000000000000000000000000107" : {
                "balance" : "0x0ba1a9ce0ba1a9ce",
                "code" : "0x7faabbffffffffffffffffffffffffffffffffffffffffffffffffffffffffccdd6000523360206000a161600d60005500",
                "nonce" : "0x00",
                "storage" : {
                }
            },
            "0x0000000000000000000000000000000000000108" : {
                "balance" : "0x0ba1a9ce0ba1a9ce",
                "code" : "0x60ff60005360016000036001601fa161600d60005500",
                "nonce" : "0x00",
                "storage" : {
                }
            },
            "0xa94f5374fce5edbc8e2a8697c15331677e6ebf0b" : {
                "balance" : "0x100000000000",
                "code" : "0x",
                "nonce" : "0x00",
                "storage" : {
                }
            },
            "0xcccccccccccccccccccccccccccccccccccccccc" : {
                "balance" : "0x0ba1a9ce0ba1a9ce",
                "code" : "0x6000600060006000600435610100015af400",
                "nonce" : "0x00",
                "storage" : {
                    "0x00" : "0x0bad"
                }
            }
        },
        "transaction" : {
            "data" : [
                "0x693c61390000000000000000000000000000000000000000000000000000000000000000",
                "0x693c61390000000000000000000000000000000000000000000000000000000000000001",
                "0x693c61390000000000000000000000000000000000000000000000000000000000000002",
                "0x693c61390000000000000000000000000000000000000000000000000000000000000003",
                "0x693c61390000000000000000000000000000000000000000000000000000000000000004",
                "0x693c61390000000000000000000000000000000000000000000000000000000000000005",
                "0x693c61390000000000000000000000000000000000000000000000000000000000000006",
                "0x693c61390000000000000000000000000000000000000000000000000000000000000007",
                "0x693c61390000000000000000000000000000000000000000000000000000000000000008"
            ],
            "gasLimit" : [
                "0x04c4b400"
            ],
            "gasPrice" : "0x01",
            "nonce" : "0x00",
            "secretKey" : "0x45a915e4d060149eb4365960e6a7a45f334393093061116b197e3240065ff2d8",
            "to" : "0xcccccccccccccccccccccccccccccccccccccccc",
            "value" : [
                "0x01"
            ]
        }
    }
}