{
    "08_revertUndoesTransientStore" : {
        "_info" : {
            "comment" : "Revert undoes the transient storage writes from a call.",
            "filling-rpc-server" : "evm version 1.11.0-unstable-1b8a3921-20221128",
            "filling-tool-version" : "retesteth-0.2.3-postmerge+commit.17808a69.Linux.g++",
            "generatedTestHash" : "d5fb58b1bfafb50c5810e4291a427f39106328ce178fa401512a9b12c3700eef",
            "lllcversion" : "Version: 0.5.14-develop.2022.11.29+commit.a096d7a9.Linux.g++",
            "solidity" : "Version: 0.8.5+commit.a4f2e591.Linux.g++",
            "source" : "src/GeneralStateTestsFiller/stEIP1153/08_revertUndoesTransientStoreFiller.yml",
            "sourceHash" : "cc57ad18dc7deb08f90707f13f0938d7c0ac62b9e914aedf8da9d19d4124b917"
        },
        "env" : {
            "currentBaseFee" : "0x0a",
            "currentCoinbase" : "0x2adc25665018aa1fe0e6bc666dac8fc2697ff9ba",
            "currentDifficulty" : "0x020000",
            "currentGasLimit" : "0x10000000000000",
            "currentNumber" : "0x01",
            "currentRandom" : "0x0000000000000000000000000000000000000000000000000000000000020000",
            "currentTimestamp" : "0x03e8",
            "previousHash" : "0x5e20a0453cecd065ea59c37ac63e079ee08998b6045136a8ce6635c7912ec0b6"
        },
        "post" : {
            "Merge+1153" : [
                {
                    "hash" : "0x72834493c903e393d6edf8a4d9a94116723e606e502b2a2a5dd48f8acad0356b",
                    "indexes" : {
                        "data" : 0,
                        "gas" : 0,
                        "value" : 0
                    },
                    "logs" : "0x1dcc4de8dec75d7aab85b567b6ccd41ad312451b948a7413f0a142fd40d49347",
                    "txbytes" : "0x02f8690180808207d083061a8094000000000000000000000000000000000000000a80843f371692c001a06ebc5c6488b5ce5519b983b0cb032243aa188d6c4f89b60f77d7079a27836f78a03be30189ce38be83c659e76c01243364c85ad8df091d3a5b8a98ec2738c20de0"
                }
            ]
        },
        "pre" : {
            "0x000000000000000000000000000000000000000a" : {
                "balance" : "0x0de0b6b3a7640000",
                "code" : "0x60056093565b63e2da2eb08114602257633f3716928114602c5760016002556033565b60286038565b6033565b60326045565b5b5060a3565b600b6000b460006000fd5b565b600a6000b46000b3806000557fe2da2eb000000000000000000000000000000000000000000000000000000000600052600060006020600060003061fffff1806002556000b360015550505b565b60006000358060e01c9150505b90565b",
                "nonce" : "0x00",
                "storage" : {
                    "0x02" : "0xffff"
                }
            },
            "0xa94f5374fce5edbc8e2a8697c15331677e6ebf0b" : {
                "balance" : "0x3635c9adc5dea00000",
                "code" : "0x",
                "nonce" : "0x00",
                "storage" : {
                }
            }
        },
        "transaction" : {
            "accessLists" : [
                [
                ]
            ],
            "data" : [
                "0x3f371692"
            ],
            "gasLimit" : [
                "0x061a80"
            ],
            "maxFeePerGas" : "0x07d0",
            "maxPriorityFeePerGas" : "0x00",
            "nonce" : "0x00",
            "secretKey" : "0x45a915e4d060149eb4365960e6a7a45f334393093061116b197e3240065ff2d8",
            "sender" : "0xa94f5374fce5edbc8e2a8697c15331677e6ebf0b",
            "to" : "0x000000000000000000000000000000000000000a",
            "value" : [
                "0x00"
            ]
        }
    }
}