{
    "ecmul_1-3_1_28000_96" : {
        "_info" : {
            "comment" : "Puts the point (1, 3) and the factor 1 into the ECMUL precompile, truncating or expanding the input data to 96 bytes. Gives the execution 28000 bytes",
            "filling-rpc-server" : "evm version 1.13.13-unstable-034bc466-20240219",
            "filling-tool-version" : "retesteth-0.3.2-cancun+commit.014a68a5.Linux.g++",
            "generatedTestHash" : "e7f34def0d8e7bb2fd958558d09f360f1ef7fc662522ca01d8da5bc3bbbada7f",
            "lllcversion" : "Version: 0.5.14-develop.2023.7.11+commit.c58ab2c6.mod.Linux.g++",
            "solidity" : "Version: 0.8.21+commit.d9974bed.Linux.g++",
            "source" : "src/GeneralStateTestsFiller/stZeroKnowledge/ecmul_1-3_1_28000_96Filler.json",
            "sourceHash" : "857a6d1f58729644519d74fb86d1f99307d8a0bd7d20ab0b0e03e9bffd62b79f"
        },
        "env" : {
            "currentBaseFee" : "0x0a",
            "currentCoinbase" : "0x3535353535353535353535353535353535353535",
            "currentDifficulty" : "0x020000",
            "currentExcessBlobGas" : "0x00",
            "currentGasLimit" : "0x05f5e100",
            "currentNumber" : "0x01",
            "currentRandom" : "0x0000000000000000000000000000000000000000000000000000000000020000",
            "currentTimestamp" : "0x03e8"
        },
        "post" : {
            "Berlin" : [
                {
                    "hash" : "0x8bf84fa66b42bd1e07a9b5c9a2384bf8479a05148d7a884b708a696b239eb751",
                    "indexes" : {
                        "data" : 0,
                        "gas" : 0,
                        "value" : 0
                    },
                    "logs" : "0x1dcc4de8dec75d7aab85b567b6ccd41ad312451b948a7413f0a142fd40d49347",
                    "txbytes" : "0xf901047e0a82c43894c305c901078781c232a2a521c2af7980f8385ee980b8a430c8d1da000000000000000000000000000000000000000000000000000000000000002000000000000000000000000000000000000000000000000000000000000000600000000000000000000000000000000000000000000000000000000000000001000000000000000000000000000000000000000000000000000000000000000300000000000000000000000000000000000000000000000000000000000000011ba096804cf3918726289ad2d4078b56d9c3222806e399e61cd723635119ebc18892a079c9293d8839fa63ccb05c60752a7897db1fca04e5c955575c382e881622c536"
                },
                {
                    "hash" : "0x15543cfce1c7c7226fc8393e4390f96294be5dfc9ff6d17991766712ee006945",
                    "indexes" : {
                        "data" : 0,
                        "gas" : 1,
                        "value" : 0
                    },
                    "logs" : "0x1dcc4de8dec75d7aab85b567b6ccd41ad312451b948a7413f0a142fd40d49347",
                    "txbytes" : "0xf901057e0a83015f9094c305c901078781c232a2a521c2af7980f8385ee980b8a430c8d1da000000000000000000000000000000000000000000000000000000000000002000000000000000000000000000000000000000000000000000000000000000600000000000000000000000000000000000000000000000000000000000000001000000000000000000000000000000000000000000000000000000000000000300000000000000000000000000000000000000000000000000000000000000011ca0dd1eaf8a49179466eb1662dcb3c7ab663d9a0998cb8bfeae1f69896eb83d3f96a0738795ded1bac0e1d058c1c38dabf13335697826d0e87f4fdd81cc77215d462d"
                },
                {
                    "hash" : "0x7d17585df0009384fa64d1be5422a44e13d7080d30731a692e9a328a840aa6be",
                    "indexes" : {
                        "data" : 0,
                        "gas" : 2,
                        "value" : 0
                    },
                    "logs" : "0x1dcc4de8dec75d7aab85b567b6ccd41ad312451b948a7413f0a142fd40d49347",
                    "txbytes" : "0xf901057e0a8301adb094c305c901078781c232a2a521c2af7980f8385ee980b8a430c8d1da000000000000000000000000000000000000000000000000000000000000002000000000000000000000000000000000000000000000000000000000000000600000000000000000000000000000000000000000000000000000000000000001000000000000000000000000000000000000000000000000000000000000000300000000000000000000000000000000000000000000000000000000000000011ca0dd7973e81c00b9750478a7431d8e933a17d8eaf24573105865036c0f4061b161a02a71f4649135c2bc128108dae02a22c1e9d7aaf76cad6405d5e42b2d37945afc"
                },
                {
                    "hash" : "0x01570f9ddcd1f0db9aad6dbc59374d9272109ecc13400410ed782524186b8412",
                    "indexes" : {
                        "data" : 0,
                        "gas" : 3,
                        "value" : 0
                    },
                    "logs" : "0x1dcc4de8dec75d7aab85b567b6ccd41ad312451b948a7413f0a142fd40d49347",
                    "txbytes" : "0xf901057e0a83030d4094c305c901078781c232a2a521c2af7980f8385ee980b8a430c8d1da000000000000000000000000000000000000000000000000000000000000002000000000000000000000000000000000000000000000000000000000000000600000000000000000000000000000000000000000000000000000000000000001000000000000000000000000000000000000000000000000000000000000000300000000000000000000000000000000000000000000000000000000000000011ba0ecc45e41638c19fd334939a21e0bb1bef0a77875048d9ded1c8c7fed1c063f0ea03b76e1b0da9ec1c8ed49cfd2ee8233be3cf411843d46e412568f31cff8fd379b"
                }
            ],
            "Cancun" : [
                {
                    "hash" : "0x4b14eedbb98ca170b1f32c3397378a0f70fda962dc825af3d895bdc7dc27438e",
                    "indexes" : {
                        "data" : 0,
                        "gas" : 0,
                        "value" : 0
                    },
                    "logs" : "0x1dcc4de8dec75d7aab85b567b6ccd41ad312451b948a7413f0a142fd40d49347",
                    "txbytes" : "0xf901047e0a82c43894c305c901078781c232a2a521c2af7980f8385ee980b8a430c8d1da000000000000000000000000000000000000000000000000000000000000002000000000000000000000000000000000000000000000000000000000000000600000000000000000000000000000000000000000000000000000000000000001000000000000000000000000000000000000000000000000000000000000000300000000000000000000000000000000000000000000000000000000000000011ba096804cf3918726289ad2d4078b56d9c3222806e399e61cd723635119ebc18892a079c9293d8839fa63ccb05c60752a7897db1fca04e5c955575c382e881622c536"
                },
                {
                    "hash" : "0x5f8a396fde12be66d2d7855e197c1b6ed4d3b40f17cd9cd7fe106065ccaaf0e4",
                    "indexes" : {
                        "data" : 0,
                        "gas" : 1,
                        "value" : 0
                    },
                    "logs" : "0x1dcc4de8dec75d7aab85b567b6ccd41ad312451b948a7413f0a142fd40d49347",
                    "txbytes" : "0xf901057e0a83015f9094c305c901078781c232a2a521c2af7980f8385ee980b8a430c8d1da000000000000000000000000000000000000000000000000000000000000002000000000000000000000000000000000000000000000000000000000000000600000000000000000000000000000000000000000000000000000000000000001000000000000000000000000000000000000000000000000000000000000000300000000000000000000000000000000000000000000000000000000000000011ca0dd1eaf8a49179466eb1662dcb3c7ab663d9a0998cb8bfeae1f69896eb83d3f96a0738795ded1bac0e1d058c1c38dabf13335697826d0e87f4fdd81cc77215d462d"
                },
                {
                    "hash" : "0xf041eb89fd7ded0ad7420caa92a213ed63d85a5166bda22dab8a86d28095e1e5",
                    "indexes" : {
                        "data" : 0,
                        "gas" : 2,
                        "value" : 0
                    },
                    "logs" : "0x1dcc4de8dec75d7aab85b567b6ccd41ad312451b948a7413f0a142fd40d49347",
                    "txbytes" : "0xf901057e0a8301adb094c305c901078781c232a2a521c2af7980f8385ee980b8a430c8d1da000000000000000000000000000000000000000000000000000000000000002000000000000000000000000000000000000000000000000000000000000000600000000000000000000000000000000000000000000000000000000000000001000000000000000000000000000000000000000000000000000000000000000300000000000000000000000000000000000000000000000000000000000000011ca0dd7973e81c00b9750478a7431d8e933a17d8eaf24573105865036c0f4061b161a02a71f4649135c2bc128108dae02a22c1e9d7aaf76cad6405d5e42b2d37945afc"
                },
                {
                    "hash" : "0x6f11c2c4b0c72a66e823ff352c54b4e32a780b2cdbba750892fdf0bc087f2af8",
                    "indexes" : {
                        "data" : 0,
                        "gas" : 3,
                        "value" : 0
                    },
                    "logs" : "0x1dcc4de8dec75d7aab85b567b6ccd41ad312451b948a7413f0a142fd40d49347",
                    "txbytes" : "0xf901057e0a83030d4094c305c901078781c232a2a521c2af7980f8385ee980b8a430c8d1da000000000000000000000000000000000000000000000000000000000000002000000000000000000000000000000000000000000000000000000000000000600000000000000000000000000000000000000000000000000000000000000001000000000000000000000000000000000000000000000000000000000000000300000000000000000000000000000000000000000000000000000000000000011ba0ecc45e41638c19fd334939a21e0bb1bef0a77875048d9ded1c8c7fed1c063f0ea03b76e1b0da9ec1c8ed49cfd2ee8233be3cf411843d46e412568f31cff8fd379b"
                }
            ],
            "Istanbul" : [
                {
                    "hash" : "0x8bf84fa66b42bd1e07a9b5c9a2384bf8479a05148d7a884b708a696b239eb751",
                    "indexes" : {
                        "data" : 0,
                        "gas" : 0,
                        "value" : 0
                    },
                    "logs" : "0x1dcc4de8dec75d7aab85b567b6ccd41ad312451b948a7413f0a142fd40d49347",
                    "txbytes" : "0xf901047e0a82c43894c305c901078781c232a2a521c2af7980f8385ee980b8a430c8d1da000000000000000000000000000000000000000000000000000000000000002000000000000000000000000000000000000000000000000000000000000000600000000000000000000000000000000000000000000000000000000000000001000000000000000000000000000000000000000000000000000000000000000300000000000000000000000000000000000000000000000000000000000000011ba096804cf3918726289ad2d4078b56d9c3222806e399e61cd723635119ebc18892a079c9293d8839fa63ccb05c60752a7897db1fca04e5c955575c382e881622c536"
                },
                {
                    "hash" : "0x15543cfce1c7c7226fc8393e4390f96294be5dfc9ff6d17991766712ee006945",
                    "indexes" : {
                        "data" : 0,
                        "gas" : 1,
                        "value" : 0
                    },
                    "logs" : "0x1dcc4de8dec75d7aab85b567b6ccd41ad312451b948a7413f0a142fd40d49347",
                    "txbytes" : "0xf901057e0a83015f9094c305c901078781c232a2a521c2af7980f8385ee980b8a430c8d1da000000000000000000000000000000000000000000000000000000000000002000000000000000000000000000000000000000000000000000000000000000600000000000000000000000000000000000000000000000000000000000000001000000000000000000000000000000000000000000000000000000000000000300000000000000000000000000000000000000000000000000000000000000011ca0dd1eaf8a49179466eb1662dcb3c7ab663d9a0998cb8bfeae1f69896eb83d3f96a0738795ded1bac0e1d058c1c38dabf13335697826d0e87f4fdd81cc77215d462d"
                },
                {
                    "hash" : "0x7d17585df0009384fa64d1be5422a44e13d7080d30731a692e9a328a840aa6be",
                    "indexes" : {
                        "data" : 0,
                        "gas" : 2,
                        "value" : 0
                    },
                    "logs" : "0x1dcc4de8dec75d7aab85b567b6ccd41ad312451b948a7413f0a142fd40d49347",
                    "txbytes" : "0xf901057e0a8301adb094c305c901078781c232a2a521c2af7980f8385ee980b8a430c8d1da000000000000000000000000000000000000000000000000000000000000002000000000000000000000000000000000000000000000000000000000000000600000000000000000000000000000000000000000000000000000000000000001000000000000000000000000000000000000000000000000000000000000000300000000000000000000000000000000000000000000000000000000000000011ca0dd7973e81c00b9750478a7431d8e933a17d8eaf24573105865036c0f4061b161a02a71f4649135c2bc128108dae02a22c1e9d7aaf76cad6405d5e42b2d37945afc"
                },
                {
                    "hash" : "0x01570f9ddcd1f0db9aad6dbc59374d9272109ecc13400410ed782524186b8412",
                    "indexes" : {
                        "data" : 0,
                        "gas" : 3,
                        "value" : 0
                    },
                    "logs" : "0x1dcc4de8dec75d7aab85b567b6ccd41ad312451b948a7413f0a142fd40d49347",
                    "txbytes" : "0xf901057e0a83030d4094c305c901078781c232a2a521c2af7980f8385ee980b8a430c8d1da000000000000000000000000000000000000000000000000000000000000002000000000000000000000000000000000000000000000000000000000000000600000000000000000000000000000000000000000000000000000000000000001000000000000000000000000000000000000000000000000000000000000000300000000000000000000000000000000000000000000000000000000000000011ba0ecc45e41638c19fd334939a21e0bb1bef0a77875048d9ded1c8c7fed1c063f0ea03b76e1b0da9ec1c8ed49cfd2ee8233be3cf411843d46e412568f31cff8fd379b"
                }
            ],
            "London" : [
                {
                    "hash" : "0xd4e80ecf3400e007e674b5385abccbd4159318e820cab816285e9e7b2ede1d98",
                    "indexes" : {
                        "data" : 0,
                        "gas" : 0,
                        "value" : 0
                    },
                    "logs" : "0x1dcc4de8dec75d7aab85b567b6ccd41ad312451b948a7413f0a142fd40d49347",
                    "txbytes" : "0xf901047e0a82c43894c305c901078781c232a2a521c2af7980f8385ee980b8a430c8d1da000000000000000000000000000000000000000000000000000000000000002000000000000000000000000000000000000000000000000000000000000000600000000000000000000000000000000000000000000000000000000000000001000000000000000000000000000000000000000000000000000000000000000300000000000000000000000000000000000000000000000000000000000000011ba096804cf3918726289ad2d4078b56d9c3222806e399e61cd723635119ebc18892a079c9293d8839fa63ccb05c60752a7897db1fca04e5c955575c382e881622c536"
                },
                {
                    "hash" : "0x6f4f327e5786df17305967c3e30c0da50fd036550b2e42e3081a442f298cfc8b",
                    "indexes" : {
                        "data" : 0,
                        "gas" : 1,
                        "value" : 0
                    },
                    "logs" : "0x1dcc4de8dec75d7aab85b567b6ccd41ad312451b948a7413f0a142fd40d49347",
                    "txbytes" : "0xf901057e0a83015f9094c305c901078781c232a2a521c2af7980f8385ee980b8a430c8d1da000000000000000000000000000000000000000000000000000000000000002000000000000000000000000000000000000000000000000000000000000000600000000000000000000000000000000000000000000000000000000000000001000000000000000000000000000000000000000000000000000000000000000300000000000000000000000000000000000000000000000000000000000000011ca0dd1eaf8a49179466eb1662dcb3c7ab663d9a0998cb8bfeae1f69896eb83d3f96a0738795ded1bac0e1d058c1c38dabf13335697826d0e87f4fdd81cc77215d462d"
                },
                {
                    "hash" : "0x2e639ad06f7109ac191f0264e0b2c9e8a8389e6c548db2d05514e1c644b913bc",
                    "indexes" : {
                        "data" : 0,
                        "gas" : 2,
                        "value" : 0
                    },
                    "logs" : "0x1dcc4de8dec75d7aab85b567b6ccd41ad312451b948a7413f0a142fd40d49347",
                    "txbytes" : "0xf901057e0a8301adb094c305c901078781c232a2a521c2af7980f8385ee980b8a430c8d1da000000000000000000000000000000000000000000000000000000000000002000000000000000000000000000000000000000000000000000000000000000600000000000000000000000000000000000000000000000000000000000000001000000000000000000000000000000000000000000000000000000000000000300000000000000000000000000000000000000000000000000000000000000011ca0dd7973e81c00b9750478a7431d8e933a17d8eaf24573105865036c0f4061b161a02a71f4649135c2bc128108dae02a22c1e9d7aaf76cad6405d5e42b2d37945afc"
                },
                {
                    "hash" : "0xffc6a4c8fd3a39834b21210192a290f1ebe76d0de3115436f8e4d3a1011a8155",
                    "indexes" : {
                        "data" : 0,
                        "gas" : 3,
                        "value" : 0
                    },
                    "logs" : "0x1dcc4de8dec75d7aab85b567b6ccd41ad312451b948a7413f0a142fd40d49347",
                    "txbytes" : "0xf901057e0a83030d4094c305c901078781c232a2a521c2af7980f8385ee980b8a430c8d1da000000000000000000000000000000000000000000000000000000000000002000000000000000000000000000000000000000000000000000000000000000600000000000000000000000000000000000000000000000000000000000000001000000000000000000000000000000000000000000000000000000000000000300000000000000000000000000000000000000000000000000000000000000011ba0ecc45e41638c19fd334939a21e0bb1bef0a77875048d9ded1c8c7fed1c063f0ea03b76e1b0da9ec1c8ed49cfd2ee8233be3cf411843d46e412568f31cff8fd379b"
                }
            ],
            "Paris" : [
                {
                    "hash" : "0xd4e80ecf3400e007e674b5385abccbd4159318e820cab816285e9e7b2ede1d98",
                    "indexes" : {
                        "data" : 0,
                        "gas" : 0,
                        "value" : 0
                    },
                    "logs" : "0x1dcc4de8dec75d7aab85b567b6ccd41ad312451b948a7413f0a142fd40d49347",
                    "txbytes" : "0xf901047e0a82c43894c305c901078781c232a2a521c2af7980f8385ee980b8a430c8d1da000000000000000000000000000000000000000000000000000000000000002000000000000000000000000000000000000000000000000000000000000000600000000000000000000000000000000000000000000000000000000000000001000000000000000000000000000000000000000000000000000000000000000300000000000000000000000000000000000000000000000000000000000000011ba096804cf3918726289ad2d4078b56d9c3222806e399e61cd723635119ebc18892a079c9293d8839fa63ccb05c60752a7897db1fca04e5c955575c382e881622c536"
                },
                {
                    "hash" : "0x6f4f327e5786df17305967c3e30c0da50fd036550b2e42e3081a442f298cfc8b",
                    "indexes" : {
                        "data" : 0,
                        "gas" : 1,
                        "value" : 0
                    },
                    "logs" : "0x1dcc4de8dec75d7aab85b567b6ccd41ad312451b948a7413f0a142fd40d49347",
                    "txbytes" : "0xf901057e0a83015f9094c305c901078781c232a2a521c2af7980f8385ee980b8a430c8d1da000000000000000000000000000000000000000000000000000000000000002000000000000000000000000000000000000000000000000000000000000000600000000000000000000000000000000000000000000000000000000000000001000000000000000000000000000000000000000000000000000000000000000300000000000000000000000000000000000000000000000000000000000000011ca0dd1eaf8a49179466eb1662dcb3c7ab663d9a0998cb8bfeae1f69896eb83d3f96a0738795ded1bac0e1d058c1c38dabf13335697826d0e87f4fdd81cc77215d462d"
                },
                {
                    "hash" : "0x2e639ad06f7109ac191f0264e0b2c9e8a8389e6c548db2d05514e1c644b913bc",
                    "indexes" : {
                        "data" : 0,
                        "gas" : 2,
                        "value" : 0
                    },
                    "logs" : "0x1dcc4de8dec75d7aab85b567b6ccd41ad312451b948a7413f0a142fd40d49347",
                    "txbytes" : "0xf901057e0a8301adb094c305c901078781c232a2a521c2af7980f8385ee980b8a430c8d1da000000000000000000000000000000000000000000000000000000000000002000000000000000000000000000000000000000000000000000000000000000600000000000000000000000000000000000000000000000000000000000000001000000000000000000000000000000000000000000000000000000000000000300000000000000000000000000000000000000000000000000000000000000011ca0dd7973e81c00b9750478a7431d8e933a17d8eaf24573105865036c0f4061b161a02a71f4649135c2bc128108dae02a22c1e9d7aaf76cad6405d5e42b2d37945afc"
                },
                {
                    "hash" : "0xffc6a4c8fd3a39834b21210192a290f1ebe76d0de3115436f8e4d3a1011a8155",
                    "indexes" : {
                        "data" : 0,
                        "gas" : 3,
                        "value" : 0
                    },
                    "logs" : "0x1dcc4de8dec75d7aab85b567b6ccd41ad312451b948a7413f0a142fd40d49347",
                    "txbytes" : "0xf901057e0a83030d4094c305c901078781c232a2a521c2af7980f8385ee980b8a430c8d1da000000000000000000000000000000000000000000000000000000000000002000000000000000000000000000000000000000000000000000000000000000600000000000000000000000000000000000000000000000000000000000000001000000000000000000000000000000000000000000000000000000000000000300000000000000000000000000000000000000000000000000000000000000011ba0ecc45e41638c19fd334939a21e0bb1bef0a77875048d9ded1c8c7fed1c063f0ea03b76e1b0da9ec1c8ed49cfd2ee8233be3cf411843d46e412568f31cff8fd379b"
                }
            ],
            "Shanghai" : [
                {
                    "hash" : "0xd4e80ecf3400e007e674b5385abccbd4159318e820cab816285e9e7b2ede1d98",
                    "indexes" : {
                        "data" : 0,
                        "gas" : 0,
                        "value" : 0
                    },
                    "logs" : "0x1dcc4de8dec75d7aab85b567b6ccd41ad312451b948a7413f0a142fd40d49347",
                    "txbytes" : "0xf901047e0a82c43894c305c901078781c232a2a521c2af7980f8385ee980b8a430c8d1da000000000000000000000000000000000000000000000000000000000000002000000000000000000000000000000000000000000000000000000000000000600000000000000000000000000000000000000000000000000000000000000001000000000000000000000000000000000000000000000000000000000000000300000000000000000000000000000000000000000000000000000000000000011ba096804cf3918726289ad2d4078b56d9c3222806e399e61cd723635119ebc18892a079c9293d8839fa63ccb05c60752a7897db1fca04e5c955575c382e881622c536"
                },
                {
                    "hash" : "0x6f4f327e5786df17305967c3e30c0da50fd036550b2e42e3081a442f298cfc8b",
                    "indexes" : {
                        "data" : 0,
                        "gas" : 1,
                        "value" : 0
                    },
                    "logs" : "0x1dcc4de8dec75d7aab85b567b6ccd41ad312451b948a7413f0a142fd40d49347",
                    "txbytes" : "0xf901057e0a83015f9094c305c901078781c232a2a521c2af7980f8385ee980b8a430c8d1da000000000000000000000000000000000000000000000000000000000000002000000000000000000000000000000000000000000000000000000000000000600000000000000000000000000000000000000000000000000000000000000001000000000000000000000000000000000000000000000000000000000000000300000000000000000000000000000000000000000000000000000000000000011ca0dd1eaf8a49179466eb1662dcb3c7ab663d9a0998cb8bfeae1f69896eb83d3f96a0738795ded1bac0e1d058c1c38dabf13335697826d0e87f4fdd81cc77215d462d"
                },
                {
                    "hash" : "0x2e639ad06f7109ac191f0264e0b2c9e8a8389e6c548db2d05514e1c644b913bc",
                    "indexes" : {
                        "data" : 0,
                        "gas" : 2,
                        "value" : 0
                    },
                    "logs" : "0x1dcc4de8dec75d7aab85b567b6ccd41ad312451b948a7413f0a142fd40d49347",
                    "txbytes" : "0xf901057e0a8301adb094c305c901078781c232a2a521c2af7980f8385ee980b8a430c8d1da000000000000000000000000000000000000000000000000000000000000002000000000000000000000000000000000000000000000000000000000000000600000000000000000000000000000000000000000000000000000000000000001000000000000000000000000000000000000000000000000000000000000000300000000000000000000000000000000000000000000000000000000000000011ca0dd7973e81c00b9750478a7431d8e933a17d8eaf24573105865036c0f4061b161a02a71f4649135c2bc128108dae02a22c1e9d7aaf76cad6405d5e42b2d37945afc"
                },
                {
                    "hash" : "0xffc6a4c8fd3a39834b21210192a290f1ebe76d0de3115436f8e4d3a1011a8155",
                    "indexes" : {
                        "data" : 0,
                        "gas" : 3,
                        "value" : 0
                    },
                    "logs" : "0x1dcc4de8dec75d7aab85b567b6ccd41ad312451b948a7413f0a142fd40d49347",
                    "txbytes" : "0xf901057e0a83030d4094c305c901078781c232a2a521c2af7980f8385ee980b8a430c8d1da000000000000000000000000000000000000000000000000000000000000002000000000000000000000000000000000000000000000000000000000000000600000000000000000000000000000000000000000000000000000000000000001000000000000000000000000000000000000000000000000000000000000000300000000000000000000000000000000000000000000000000000000000000011ba0ecc45e41638c19fd334939a21e0bb1bef0a77875048d9ded1c8c7fed1c063f0ea03b76e1b0da9ec1c8ed49cfd2ee8233be3cf411843d46e412568f31cff8fd379b"
                }
            ]
        },
        "pre" : {
            "0x0000000000000000000000000000000000000000" : {
                "balance" : "0x01",
                "code" : "0x",
                "nonce" : "0x00",
                "storage" : {
                }
            },
            "0x0000000000000000000000000000000000000001" : {
                "balance" : "0x01",
                "code" : "0x",
                "nonce" : "0x00",
                "storage" : {
                }
            },
            "0x0000000000000000000000000000000000000002" : {
                "balance" : "0x01",
                "code" : "0x",
                "nonce" : "0x00",
                "storage" : {
                }
            },
            "0x0000000000000000000000000000000000000003" : {
                "balance" : "0x01",
                "code" : "0x",
                "nonce" : "0x00",
                "storage" : {
                }
            },
            "0x0000000000000000000000000000000000000004" : {
                "balance" : "0x01",
                "code" : "0x",
                "nonce" : "0x00",
                "storage" : {
                }
            },
            "0x0000000000000000000000000000000000000005" : {
                "balance" : "0x01",
                "code" : "0x",
                "nonce" : "0x00",
                "storage" : {
                }
            },
            "0x0000000000000000000000000000000000000006" : {
                "balance" : "0x01",
                "code" : "0x",
                "nonce" : "0x00",
                "storage" : {
                }
            },
            "0x0000000000000000000000000000000000000007" : {
                "balance" : "0x01",
                "code" : "0x",
                "nonce" : "0x00",
                "storage" : {
                }
            },
            "0x000f3df6d732807ef1319fb7b8bb8522d0beac02" : {
                "balance" : "0x00",
                "code" : "0x3373fffffffffffffffffffffffffffffffffffffffe14604d57602036146024575f5ffd5b5f35801560495762001fff810690815414603c575f5ffd5b62001fff01545f5260205ff35b5f5ffd5b62001fff42064281555f359062001fff015500",
                "nonce" : "0x01",
                "storage" : {
                }
            },
            "0x10a1c1cb95c92ec31d3f22c66eef1d9f3f258c6b" : {
                "balance" : "0x0de0b6b3a7640000",
                "code" : "0x",
                "nonce" : "0x00",
                "storage" : {
                }
            },
            "0x13cbb8d99c6c4e0f2728c7d72606e78a29c4e224" : {
                "balance" : "0x0de0b6b3a7640000",
                "code" : "0x",
                "nonce" : "0x00",
                "storage" : {
                }
            },
            "0x24143873e0e0815fdcbcffdbe09c979cbf9ad013" : {
                "balance" : "0x0de0b6b3a7640000",
                "code" : "0x",
                "nonce" : "0x00",
                "storage" : {
                }
            },
            "0x3535353535353535353535353535353535353535" : {
                "balance" : "0x542397",
                "code" : "0x",
                "nonce" : "0x00",
                "storage" : {
                }
            },
            "0x598443f1880ef585b21f1d7585bd0577402861e5" : {
                "balance" : "0x0de0b6b3a7640000",
                "code" : "0x",
                "nonce" : "0x00",
                "storage" : {
                }
            },
            "0x77db2bebba79db42a978f896968f4afce746ea1f" : {
                "balance" : "0x0de0b6b3a7640000",
                "code" : "0x",
                "nonce" : "0x00",
                "storage" : {
                }
            },
            "0x7d577a597b2742b498cb5cf0c26cdcd726d39e6e" : {
                "balance" : "0x0de0b6b3a7640000",
                "code" : "0x",
                "nonce" : "0x00",
                "storage" : {
                }
            },
            "0x82a978b3f5962a5b0957d9ee9eef472ee55b42f1" : {
                "balance" : "0x0de0b6b3a70fdc69",
                "code" : "0x",
                "nonce" : "0x7e",
                "storage" : {
                }
            },
            "0x90f0b1ebbba1c1936aff7aaf20a7878ff9e04b6c" : {
                "balance" : "0x0de0b6b3a7640000",
                "code" : "0x",
                "nonce" : "0x00",
                "storage" : {
                }
            },
            "0xc305c901078781c232a2a521c2af7980f8385ee9" : {
                "balance" : "0x00",
                "code" : "0x600035601c52740100000000000000000000000000000000000000006020526fffffffffffffffffffffffffffffffff6040527fffffffffffffffffffffffffffffffff000000000000000000000000000000016060527402540be3fffffffffffffffffffffffffdabf41c006080527ffffffffffffffffffffffffdabf41c00000000000000000000000002540be40060a0526330c8d1da600051141561012b5760c06004356004013511151558576004356004013560200160043560040161014037604061026061014051610160600060076305f5e0fff11558576040610240526102406060806102c0828460006004601bf15050506102c08051602082012090506000556102c060206020820352604081510160206001820306601f820103905060208203f350005b",
                "nonce" : "0x01",
                "storage" : {
                    "0x00" : "0x556a3c03566b04196c534f5612f50167917d72e6ab9b687e10e72dbe0e0f9279"
                }
            },
            "0xdceceaf3fc5c0a63d195d69b1a90011b7b19650d" : {
                "balance" : "0x0de0b6b3a7640000",
                "code" : "0x",
                "nonce" : "0x00",
                "storage" : {
                }
            },
            "0xe0fc04fa2d34a66b779fd5cee748268032a146c0" : {
                "balance" : "0x0de0b6b3a7640000",
                "code" : "0x",
                "nonce" : "0x00",
                "storage" : {
                }
            }
        },
        "transaction" : {
            "data" : [
                "0x30c8d1da00000000000000000000000000000000000000000000000000000000000000200000000000000000000000000000000000000000000000000000000000000060000000000000000000000000000000000000000000000000000000000000000100000000000000000000000000000000000000000000000000000000000000030000000000000000000000000000000000000000000000000000000000000001"
            ],
            "gasLimit" : [
                "0xc438",
                "0x015f90",
                "0x01adb0",
                "0x030d40"
            ],
            "gasPrice" : "0x0a",
            "nonce" : "0x7e",
            "secretKey" : "0x044852b2a670ade5407e78fb2863c51de9fcb96542a07186fe3aeda6bb8a116d",
            "sender" : "0x82a978b3f5962a5b0957d9ee9eef472ee55b42f1",
            "to" : "0xc305c901078781c232a2a521c2af7980f8385ee9",
            "value" : [
                "0x00"
            ]
        }
    }
}