{
    "ecmul_1-3_9_21000_128" : {
        "_info" : {
            "comment" : "Puts the point (1, 3) and the factor 9 into the ECMUL precompile, truncating or expanding the input data to 128 bytes. Gives the execution 21000 bytes",
            "filling-rpc-server" : "evm version 1.13.13-unstable-034bc466-20240219",
            "filling-tool-version" : "retesteth-0.3.2-cancun+commit.014a68a5.Linux.g++",
            "generatedTestHash" : "a1f1cda40326c8fb017c410edf0e6452357eb9f58590348d7413ce000976de1a",
            "lllcversion" : "Version: 0.5.14-develop.2023.7.11+commit.c58ab2c6.mod.Linux.g++",
            "solidity" : "Version: 0.8.21+commit.d9974bed.Linux.g++",
            "source" : "src/GeneralStateTestsFiller/stZeroKnowledge/ecmul_1-3_9_21000_128Filler.json",
            "sourceHash" : "7d8d1eb285bc24fc3bb52f3ca6f1f45eb2536d12e9270a7058a1433a75d429ae"
        },
        "env" : {
            "currentBaseFee" : "0x0a",
            "currentCoinbase" : "0x3535353535353535353535353535353535353535",
            "currentDifficulty" : "0x020000",
            "currentExcessBlobGas" : "0x00",
            "currentGasLimit" : "0x05f5e100",
            "currentNumber" : "0x01",
            "currentRandom" : "0x0000000000000000000000000000000000000000000000000000000000020000",
            "currentTimestamp" : "0x03e8"
        },
        "post" : {
            "Berlin" : [
                {
                    "hash" : "0x979dd167579883eb468aec9cd325b09ef1393f1f941156bd23643d68088ff96b",
                    "indexes" : {
                        "data" : 0,
                        "gas" : 0,
                        "value" : 0
                    },
                    "logs" : "0x1dcc4de8dec75d7aab85b567b6ccd41ad312451b948a7413f0a142fd40d49347",
                    "txbytes" : "0xf90124320a82a96094c305c901078781c232a2a521c2af7980f8385ee980b8c430c8d1da0000000000000000000000000000000000000000000000000000000000000020000000000000000000000000000000000000000000000000000000000000008000000000000000000000000000000000000000000000000000000000000000010000000000000000000000000000000000000000000000000000000000000003000000000000000000000000000000000000000000000000000000000000000900000000000000000000000000000000000000000000000000000000000000001ba090e18883f89ab1160903a7fe9d38ce0328fed8482f974b4428a351ec361391d9a017766874a08154c2bb06380ccd5322693fc60ee305ba2868d3a6155504572521"
                },
                {
                    "hash" : "0x495b790d9dddea567a2376d7498eaaeeba703cd0f639c62c28bda46441ba4e22",
                    "indexes" : {
                        "data" : 0,
                        "gas" : 1,
                        "value" : 0
                    },
                    "logs" : "0x1dcc4de8dec75d7aab85b567b6ccd41ad312451b948a7413f0a142fd40d49347",
                    "txbytes" : "0xf90125320a83015f9094c305c901078781c232a2a521c2af7980f8385ee980b8c430c8d1da0000000000000000000000000000000000000000000000000000000000000020000000000000000000000000000000000000000000000000000000000000008000000000000000000000000000000000000000000000000000000000000000010000000000000000000000000000000000000000000000000000000000000003000000000000000000000000000000000000000000000000000000000000000900000000000000000000000000000000000000000000000000000000000000001ca0ee8f85d99325279c012ea8be9d7f11e0d5b7e5791e083bf6e7d72f7240dd9904a054fc0b7a80d59303c32e6cbd3dd24944850379b88a535122c4a8e04cd2165b14"
                },
                {
                    "hash" : "0x5e84352f897245b5393d51d2c1c132208a90e4cb4559bd57ef76e4d1f1c3766f",
                    "indexes" : {
                        "data" : 0,
                        "gas" : 2,
                        "value" : 0
                    },
                    "logs" : "0x1dcc4de8dec75d7aab85b567b6ccd41ad312451b948a7413f0a142fd40d49347",
                    "txbytes" : "0xf90125320a8301adb094c305c901078781c232a2a521c2af7980f8385ee980b8c430c8d1da0000000000000000000000000000000000000000000000000000000000000020000000000000000000000000000000000000000000000000000000000000008000000000000000000000000000000000000000000000000000000000000000010000000000000000000000000000000000000000000000000000000000000003000000000000000000000000000000000000000000000000000000000000000900000000000000000000000000000000000000000000000000000000000000001ca003b0156491e90358645c0e427ae907959eeda2f67f505fb403a52c9d75d4db5ba02374b83cef663a0b4fc503c18d419e557feb89010425e8dcf1be27b19463ee23"
                },
                {
                    "hash" : "0xcc6119ac18b1b2f4f986ead4ca4327bd4c1e5bc512f96122d66111ea173e26e3",
                    "indexes" : {
                        "data" : 0,
                        "gas" : 3,
                        "value" : 0
                    },
                    "logs" : "0x1dcc4de8dec75d7aab85b567b6ccd41ad312451b948a7413f0a142fd40d49347",
                    "txbytes" : "0xf90125320a83030d4094c305c901078781c232a2a521c2af7980f8385ee980b8c430c8d1da0000000000000000000000000000000000000000000000000000000000000020000000000000000000000000000000000000000000000000000000000000008000000000000000000000000000000000000000000000000000000000000000010000000000000000000000000000000000000000000000000000000000000003000000000000000000000000000000000000000000000000000000000000000900000000000000000000000000000000000000000000000000000000000000001ca0b8474fbd6e4b71b02b074d018e9e1a6bb8b83a6423e64eae98fd2fe385a850c9a007f071b50675a5fd359ebd9908fdb75c8744258dbd24e017232f5a3b534500ba"
                }
            ],
            "Cancun" : [
                {
                    "hash" : "0x66854f88dcadfa93cce45aee9348101ff8fe2076cdbf279b0c7860253e91ce1b",
                    "indexes" : {
                        "data" : 0,
                        "gas" : 0,
                        "value" : 0
                    },
                    "logs" : "0x1dcc4de8dec75d7aab85b567b6ccd41ad312451b948a7413f0a142fd40d49347",
                    "txbytes" : "0xf90124320a82a96094c305c901078781c232a2a521c2af7980f8385ee980b8c430c8d1da0000000000000000000000000000000000000000000000000000000000000020000000000000000000000000000000000000000000000000000000000000008000000000000000000000000000000000000000000000000000000000000000010000000000000000000000000000000000000000000000000000000000000003000000000000000000000000000000000000000000000000000000000000000900000000000000000000000000000000000000000000000000000000000000001ba090e18883f89ab1160903a7fe9d38ce0328fed8482f974b4428a351ec361391d9a017766874a08154c2bb06380ccd5322693fc60ee305ba2868d3a6155504572521"
                },
                {
                    "hash" : "0x31765521ad5e892f4b773251c8774adce0149497652259017c3e09a7c41c66c7",
                    "indexes" : {
                        "data" : 0,
                        "gas" : 1,
                        "value" : 0
                    },
                    "logs" : "0x1dcc4de8dec75d7aab85b567b6ccd41ad312451b948a7413f0a142fd40d49347",
                    "txbytes" : "0xf90125320a83015f9094c305c901078781c232a2a521c2af7980f8385ee980b8c430c8d1da0000000000000000000000000000000000000000000000000000000000000020000000000000000000000000000000000000000000000000000000000000008000000000000000000000000000000000000000000000000000000000000000010000000000000000000000000000000000000000000000000000000000000003000000000000000000000000000000000000000000000000000000000000000900000000000000000000000000000000000000000000000000000000000000001ca0ee8f85d99325279c012ea8be9d7f11e0d5b7e5791e083bf6e7d72f7240dd9904a054fc0b7a80d59303c32e6cbd3dd24944850379b88a535122c4a8e04cd2165b14"
                },
                {
                    "hash" : "0x90d050da2e5d18685be84013e93fe83f3cf5aa7eae4846eb03cf0a7bf34a8247",
                    "indexes" : {
                        "data" : 0,
                        "gas" : 2,
                        "value" : 0
                    },
                    "logs" : "0x1dcc4de8dec75d7aab85b567b6ccd41ad312451b948a7413f0a142fd40d49347",
                    "txbytes" : "0xf90125320a8301adb094c305c901078781c232a2a521c2af7980f8385ee980b8c430c8d1da0000000000000000000000000000000000000000000000000000000000000020000000000000000000000000000000000000000000000000000000000000008000000000000000000000000000000000000000000000000000000000000000010000000000000000000000000000000000000000000000000000000000000003000000000000000000000000000000000000000000000000000000000000000900000000000000000000000000000000000000000000000000000000000000001ca003b0156491e90358645c0e427ae907959eeda2f67f505fb403a52c9d75d4db5ba02374b83cef663a0b4fc503c18d419e557feb89010425e8dcf1be27b19463ee23"
                },
                {
                    "hash" : "0x0c0eb0566f8970f85d154e52297944f4bdd01340e24700e0ed8c301d9079b0f3",
                    "indexes" : {
                        "data" : 0,
                        "gas" : 3,
                        "value" : 0
                    },
                    "logs" : "0x1dcc4de8dec75d7aab85b567b6ccd41ad312451b948a7413f0a142fd40d49347",
                    "txbytes" : "0xf90125320a83030d4094c305c901078781c232a2a521c2af7980f8385ee980b8c430c8d1da0000000000000000000000000000000000000000000000000000000000000020000000000000000000000000000000000000000000000000000000000000008000000000000000000000000000000000000000000000000000000000000000010000000000000000000000000000000000000000000000000000000000000003000000000000000000000000000000000000000000000000000000000000000900000000000000000000000000000000000000000000000000000000000000001ca0b8474fbd6e4b71b02b074d018e9e1a6bb8b83a6423e64eae98fd2fe385a850c9a007f071b50675a5fd359ebd9908fdb75c8744258dbd24e017232f5a3b534500ba"
                }
            ],
            "Istanbul" : [
                {
                    "hash" : "0x979dd167579883eb468aec9cd325b09ef1393f1f941156bd23643d68088ff96b",
                    "indexes" : {
                        "data" : 0,
                        "gas" : 0,
                        "value" : 0
                    },
                    "logs" : "0x1dcc4de8dec75d7aab85b567b6ccd41ad312451b948a7413f0a142fd40d49347",
                    "txbytes" : "0xf90124320a82a96094c305c901078781c232a2a521c2af7980f8385ee980b8c430c8d1da0000000000000000000000000000000000000000000000000000000000000020000000000000000000000000000000000000000000000000000000000000008000000000000000000000000000000000000000000000000000000000000000010000000000000000000000000000000000000000000000000000000000000003000000000000000000000000000000000000000000000000000000000000000900000000000000000000000000000000000000000000000000000000000000001ba090e18883f89ab1160903a7fe9d38ce0328fed8482f974b4428a351ec361391d9a017766874a08154c2bb06380ccd5322693fc60ee305ba2868d3a6155504572521"
                },
                {
                    "hash" : "0x495b790d9dddea567a2376d7498eaaeeba703cd0f639c62c28bda46441ba4e22",
                    "indexes" : {
                        "data" : 0,
                        "gas" : 1,
                        "value" : 0
                    },
                    "logs" : "0x1dcc4de8dec75d7aab85b567b6ccd41ad312451b948a7413f0a142fd40d49347",
                    "txbytes" : "0xf90125320a83015f9094c305c901078781c232a2a521c2af7980f8385ee980b8c430c8d1da0000000000000000000000000000000000000000000000000000000000000020000000000000000000000000000000000000000000000000000000000000008000000000000000000000000000000000000000000000000000000000000000010000000000000000000000000000000000000000000000000000000000000003000000000000000000000000000000000000000000000000000000000000000900000000000000000000000000000000000000000000000000000000000000001ca0ee8f85d99325279c012ea8be9d7f11e0d5b7e5791e083bf6e7d72f7240dd9904a054fc0b7a80d59303c32e6cbd3dd24944850379b88a535122c4a8e04cd2165b14"
                },
                {
                    "hash" : "0x5e84352f897245b5393d51d2c1c132208a90e4cb4559bd57ef76e4d1f1c3766f",
                    "indexes" : {
                        "data" : 0,
                        "gas" : 2,
                        "value" : 0
                    },
                    "logs" : "0x1dcc4de8dec75d7aab85b567b6ccd41ad312451b948a7413f0a142fd40d49347",
                    "txbytes" : "0xf90125320a8301adb094c305c901078781c232a2a521c2af7980f8385ee980b8c430c8d1da0000000000000000000000000000000000000000000000000000000000000020000000000000000000000000000000000000000000000000000000000000008000000000000000000000000000000000000000000000000000000000000000010000000000000000000000000000000000000000000000000000000000000003000000000000000000000000000000000000000000000000000000000000000900000000000000000000000000000000000000000000000000000000000000001ca003b0156491e90358645c0e427ae907959eeda2f67f505fb403a52c9d75d4db5ba02374b83cef663a0b4fc503c18d419e557feb89010425e8dcf1be27b19463ee23"
                },
                {
                    "hash" : "0xcc6119ac18b1b2f4f986ead4ca4327bd4c1e5bc512f96122d66111ea173e26e3",
                    "indexes" : {
                        "data" : 0,
                        "gas" : 3,
                        "value" : 0
                    },
                    "logs" : "0x1dcc4de8dec75d7aab85b567b6ccd41ad312451b948a7413f0a142fd40d49347",
                    "txbytes" : "0xf90125320a83030d4094c305c901078781c232a2a521c2af7980f8385ee980b8c430c8d1da0000000000000000000000000000000000000000000000000000000000000020000000000000000000000000000000000000000000000000000000000000008000000000000000000000000000000000000000000000000000000000000000010000000000000000000000000000000000000000000000000000000000000003000000000000000000000000000000000000000000000000000000000000000900000000000000000000000000000000000000000000000000000000000000001ca0b8474fbd6e4b71b02b074d018e9e1a6bb8b83a6423e64eae98fd2fe385a850c9a007f071b50675a5fd359ebd9908fdb75c8744258dbd24e017232f5a3b534500ba"
                }
            ],
            "London" : [
                {
                    "hash" : "0x8adc6b0877b5f901a44b146791ebf855262967703d5d18ff19b0ce6d893bf4fc",
                    "indexes" : {
                        "data" : 0,
                        "gas" : 0,
                        "value" : 0
                    },
                    "logs" : "0x1dcc4de8dec75d7aab85b567b6ccd41ad312451b948a7413f0a142fd40d49347",
                    "txbytes" : "0xf90124320a82a96094c305c901078781c232a2a521c2af7980f8385ee980b8c430c8d1da0000000000000000000000000000000000000000000000000000000000000020000000000000000000000000000000000000000000000000000000000000008000000000000000000000000000000000000000000000000000000000000000010000000000000000000000000000000000000000000000000000000000000003000000000000000000000000000000000000000000000000000000000000000900000000000000000000000000000000000000000000000000000000000000001ba090e18883f89ab1160903a7fe9d38ce0328fed8482f974b4428a351ec361391d9a017766874a08154c2bb06380ccd5322693fc60ee305ba2868d3a6155504572521"
                },
                {
                    "hash" : "0xce134abdfb7db609276da94c5131f88cf4b2a1c2cd8f347e51977369d01d01b1",
                    "indexes" : {
                        "data" : 0,
                        "gas" : 1,
                        "value" : 0
                    },
                    "logs" : "0x1dcc4de8dec75d7aab85b567b6ccd41ad312451b948a7413f0a142fd40d49347",
                    "txbytes" : "0xf90125320a83015f9094c305c901078781c232a2a521c2af7980f8385ee980b8c430c8d1da0000000000000000000000000000000000000000000000000000000000000020000000000000000000000000000000000000000000000000000000000000008000000000000000000000000000000000000000000000000000000000000000010000000000000000000000000000000000000000000000000000000000000003000000000000000000000000000000000000000000000000000000000000000900000000000000000000000000000000000000000000000000000000000000001ca0ee8f85d99325279c012ea8be9d7f11e0d5b7e5791e083bf6e7d72f7240dd9904a054fc0b7a80d59303c32e6cbd3dd24944850379b88a535122c4a8e04cd2165b14"
                },
                {
                    "hash" : "0x1078ceeca00317911dcf46e2d52f1dbdb4368a6534669dab5578b103e143bd07",
                    "indexes" : {
                        "data" : 0,
                        "gas" : 2,
                        "value" : 0
                    },
                    "logs" : "0x1dcc4de8dec75d7aab85b567b6ccd41ad312451b948a7413f0a142fd40d49347",
                    "txbytes" : "0xf90125320a8301adb094c305c901078781c232a2a521c2af7980f8385ee980b8c430c8d1da0000000000000000000000000000000000000000000000000000000000000020000000000000000000000000000000000000000000000000000000000000008000000000000000000000000000000000000000000000000000000000000000010000000000000000000000000000000000000000000000000000000000000003000000000000000000000000000000000000000000000000000000000000000900000000000000000000000000000000000000000000000000000000000000001ca003b0156491e90358645c0e427ae907959eeda2f67f505fb403a52c9d75d4db5ba02374b83cef663a0b4fc503c18d419e557feb89010425e8dcf1be27b19463ee23"
                },
                {
                    "hash" : "0xc223b901ea221f68e74abb8d8f82c55f41f5e6c3a073b10e681dec84a011e553",
                    "indexes" : {
                        "data" : 0,
                        "gas" : 3,
                        "value" : 0
                    },
                    "logs" : "0x1dcc4de8dec75d7aab85b567b6ccd41ad312451b948a7413f0a142fd40d49347",
                    "txbytes" : "0xf90125320a83030d4094c305c901078781c232a2a521c2af7980f8385ee980b8c430c8d1da0000000000000000000000000000000000000000000000000000000000000020000000000000000000000000000000000000000000000000000000000000008000000000000000000000000000000000000000000000000000000000000000010000000000000000000000000000000000000000000000000000000000000003000000000000000000000000000000000000000000000000000000000000000900000000000000000000000000000000000000000000000000000000000000001ca0b8474fbd6e4b71b02b074d018e9e1a6bb8b83a6423e64eae98fd2fe385a850c9a007f071b50675a5fd359ebd9908fdb75c8744258dbd24e017232f5a3b534500ba"
                }
            ],
            "Paris" : [
                {
                    "hash" : "0x8adc6b0877b5f901a44b146791ebf855262967703d5d18ff19b0ce6d893bf4fc",
                    "indexes" : {
                        "data" : 0,
                        "gas" : 0,
                        "value" : 0
                    },
                    "logs" : "0x1dcc4de8dec75d7aab85b567b6ccd41ad312451b948a7413f0a142fd40d49347",
                    "txbytes" : "0xf90124320a82a96094c305c901078781c232a2a521c2af7980f8385ee980b8c430c8d1da0000000000000000000000000000000000000000000000000000000000000020000000000000000000000000000000000000000000000000000000000000008000000000000000000000000000000000000000000000000000000000000000010000000000000000000000000000000000000000000000000000000000000003000000000000000000000000000000000000000000000000000000000000000900000000000000000000000000000000000000000000000000000000000000001ba090e18883f89ab1160903a7fe9d38ce0328fed8482f974b4428a351ec361391d9a017766874a08154c2bb06380ccd5322693fc60ee305ba2868d3a6155504572521"
                },
                {
                    "hash" : "0xce134abdfb7db609276da94c5131f88cf4b2a1c2cd8f347e51977369d01d01b1",
                    "indexes" : {
                        "data" : 0,
                        "gas" : 1,
                        "value" : 0
                    },
                    "logs" : "0x1dcc4de8dec75d7aab85b567b6ccd41ad312451b948a7413f0a142fd40d49347",
                    "txbytes" : "0xf90125320a83015f9094c305c901078781c232a2a521c2af7980f8385ee980b8c430c8d1da0000000000000000000000000000000000000000000000000000000000000020000000000000000000000000000000000000000000000000000000000000008000000000000000000000000000000000000000000000000000000000000000010000000000000000000000000000000000000000000000000000000000000003000000000000000000000000000000000000000000000000000000000000000900000000000000000000000000000000000000000000000000000000000000001ca0ee8f85d99325279c012ea8be9d7f11e0d5b7e5791e083bf6e7d72f7240dd9904a054fc0b7a80d59303c32e6cbd3dd24944850379b88a535122c4a8e04cd2165b14"
                },
                {
                    "hash" : "0x1078ceeca00317911dcf46e2d52f1dbdb4368a6534669dab5578b103e143bd07",
                    "indexes" : {
                        "data" : 0,
                        "gas" : 2,
                        "value" : 0
                    },
                    "logs" : "0x1dcc4de8dec75d7aab85b567b6ccd41ad312451b948a7413f0a142fd40d49347",
                    "txbytes" : "0xf90125320a8301adb094c305c901078781c232a2a521c2af7980f8385ee980b8c430c8d1da0000000000000000000000000000000000000000000000000000000000000020000000000000000000000000000000000000000000000000000000000000008000000000000000000000000000000000000000000000000000000000000000010000000000000000000000000000000000000000000000000000000000000003000000000000000000000000000000000000000000000000000000000000000900000000000000000000000000000000000000000000000000000000000000001ca003b0156491e90358645c0e427ae907959eeda2f67f505fb403a52c9d75d4db5ba02374b83cef663a0b4fc503c18d419e557feb89010425e8dcf1be27b19463ee23"
                },
                {
                    "hash" : "0xc223b901ea221f68e74abb8d8f82c55f41f5e6c3a073b10e681dec84a011e553",
                    "indexes" : {
                        "data" : 0,
                        "gas" : 3,
                        "value" : 0
                    },
                    "logs" : "0x1dcc4de8dec75d7aab85b567b6ccd41ad312451b948a7413f0a142fd40d49347",
                    "txbytes" : "0xf90125320a83030d4094c305c901078781c232a2a521c2af7980f8385ee980b8c430c8d1da0000000000000000000000000000000000000000000000000000000000000020000000000000000000000000000000000000000000000000000000000000008000000000000000000000000000000000000000000000000000000000000000010000000000000000000000000000000000000000000000000000000000000003000000000000000000000000000000000000000000000000000000000000000900000000000000000000000000000000000000000000000000000000000000001ca0b8474fbd6e4b71b02b074d018e9e1a6bb8b83a6423e64eae98fd2fe385a850c9a007f071b50675a5fd359ebd9908fdb75c8744258dbd24e017232f5a3b534500ba"
                }
            ],
            "Shanghai" : [
                {
                    "hash" : "0x8adc6b0877b5f901a44b146791ebf855262967703d5d18ff19b0ce6d893bf4fc",
                    "indexes" : {
                        "data" : 0,
                        "gas" : 0,
                        "value" : 0
                    },
                    "logs" : "0x1dcc4de8dec75d7aab85b567b6ccd41ad312451b948a7413f0a142fd40d49347",
                    "txbytes" : "0xf90124320a82a96094c305c901078781c232a2a521c2af7980f8385ee980b8c430c8d1da0000000000000000000000000000000000000000000000000000000000000020000000000000000000000000000000000000000000000000000000000000008000000000000000000000000000000000000000000000000000000000000000010000000000000000000000000000000000000000000000000000000000000003000000000000000000000000000000000000000000000000000000000000000900000000000000000000000000000000000000000000000000000000000000001ba090e18883f89ab1160903a7fe9d38ce0328fed8482f974b4428a351ec361391d9a017766874a08154c2bb06380ccd5322693fc60ee305ba2868d3a6155504572521"
                },
                {
                    "hash" : "0xce134abdfb7db609276da94c5131f88cf4b2a1c2cd8f347e51977369d01d01b1",
                    "indexes" : {
                        "data" : 0,
                        "gas" : 1,
                        "value" : 0
                    },
                    "logs" : "0x1dcc4de8dec75d7aab85b567b6ccd41ad312451b948a7413f0a142fd40d49347",
                    "txbytes" : "0xf90125320a83015f9094c305c901078781c232a2a521c2af7980f8385ee980b8c430c8d1da0000000000000000000000000000000000000000000000000000000000000020000000000000000000000000000000000000000000000000000000000000008000000000000000000000000000000000000000000000000000000000000000010000000000000000000000000000000000000000000000000000000000000003000000000000000000000000000000000000000000000000000000000000000900000000000000000000000000000000000000000000000000000000000000001ca0ee8f85d99325279c012ea8be9d7f11e0d5b7e5791e083bf6e7d72f7240dd9904a054fc0b7a80d59303c32e6cbd3dd24944850379b88a535122c4a8e04cd2165b14"
                },
                {
                    "hash" : "0x1078ceeca00317911dcf46e2d52f1dbdb4368a6534669dab5578b103e143bd07",
                    "indexes" : {
                        "data" : 0,
                        "gas" : 2,
                        "value" : 0
                    },
                    "logs" : "0x1dcc4de8dec75d7aab85b567b6ccd41ad312451b948a7413f0a142fd40d49347",
                    "txbytes" : "0xf90125320a8301adb094c305c901078781c232a2a521c2af7980f8385ee980b8c430c8d1da0000000000000000000000000000000000000000000000000000000000000020000000000000000000000000000000000000000000000000000000000000008000000000000000000000000000000000000000000000000000000000000000010000000000000000000000000000000000000000000000000000000000000003000000000000000000000000000000000000000000000000000000000000000900000000000000000000000000000000000000000000000000000000000000001ca003b0156491e90358645c0e427ae907959eeda2f67f505fb403a52c9d75d4db5ba02374b83cef663a0b4fc503c18d419e557feb89010425e8dcf1be27b19463ee23"
                },
                {
                    "hash" : "0xc223b901ea221f68e74abb8d8f82c55f41f5e6c3a073b10e681dec84a011e553",
                    "indexes" : {
                        "data" : 0,
                        "gas" : 3,
                        "value" : 0
                    },
                    "logs" : "0x1dcc4de8dec75d7aab85b567b6ccd41ad312451b948a7413f0a142fd40d49347",
                    "txbytes" : "0xf90125320a83030d4094c305c901078781c232a2a521c2af7980f8385ee980b8c430c8d1da0000000000000000000000000000000000000000000000000000000000000020000000000000000000000000000000000000000000000000000000000000008000000000000000000000000000000000000000000000000000000000000000010000000000000000000000000000000000000000000000000000000000000003000000000000000000000000000000000000000000000000000000000000000900000000000000000000000000000000000000000000000000000000000000001ca0b8474fbd6e4b71b02b074d018e9e1a6bb8b83a6423e64eae98fd2fe385a850c9a007f071b50675a5fd359ebd9908fdb75c8744258dbd24e017232f5a3b534500ba"
                }
            ]
        },
        "pre" : {
            "0x0000000000000000000000000000000000000000" : {
                "balance" : "0x01",
                "code" : "0x",
                "nonce" : "0x00",
                "storage" : {
                }
            },
            "0x0000000000000000000000000000000000000001" : {
                "balance" : "0x01",
                "code" : "0x",
                "nonce" : "0x00",
                "storage" : {
                }
            },
            "0x0000000000000000000000000000000000000002" : {
                "balance" : "0x01",
                "code" : "0x",
                "nonce" : "0x00",
                "storage" : {
                }
            },
            "0x0000000000000000000000000000000000000003" : {
                "balance" : "0x01",
                "code" : "0x",
                "nonce" : "0x00",
                "storage" : {
                }
            },
            "0x0000000000000000000000000000000000000004" : {
                "balance" : "0x01",
                "code" : "0x",
                "nonce" : "0x00",
                "storage" : {
                }
            },
            "0x0000000000000000000000000000000000000005" : {
                "balance" : "0x01",
                "code" : "0x",
                "nonce" : "0x00",
                "storage" : {
                }
            },
            "0x0000000000000000000000000000000000000006" : {
                "balance" : "0x01",
                "code" : "0x",
                "nonce" : "0x00",
                "storage" : {
                }
            },
            "0x0000000000000000000000000000000000000007" : {
                "balance" : "0x01",
                "code" : "0x",
                "nonce" : "0x00",
                "storage" : {
                }
            },
            "0x000f3df6d732807ef1319fb7b8bb8522d0beac02" : {
                "balance" : "0x00",
                "code" : "0x3373fffffffffffffffffffffffffffffffffffffffe14604d57602036146024575f5ffd5b5f35801560495762001fff810690815414603c575f5ffd5b62001fff01545f5260205ff35b5f5ffd5b62001fff42064281555f359062001fff015500",
                "nonce" : "0x01",
                "storage" : {
                }
            },
            "0x10a1c1cb95c92ec31d3f22c66eef1d9f3f258c6b" : {
                "balance" : "0x0de0b6b3a7640000",
                "code" : "0x",
                "nonce" : "0x00",
                "storage" : {
                }
            },
            "0x13cbb8d99c6c4e0f2728c7d72606e78a29c4e224" : {
                "balance" : "0x0de0b6b3a7640000",
                "code" : "0x",
                "nonce" : "0x00",
                "storage" : {
                }
            },
            "0x24143873e0e0815fdcbcffdbe09c979cbf9ad013" : {
                "balance" : "0x0de0b6b3a7640000",
                "code" : "0x",
                "nonce" : "0x00",
                "storage" : {
                }
            },
            "0x3535353535353535353535353535353535353535" : {
                "balance" : "0x22e40e",
                "code" : "0x",
                "nonce" : "0x00",
                "storage" : {
                }
            },
            "0x598443f1880ef585b21f1d7585bd0577402861e5" : {
                "balance" : "0x0de0b6b3a7640000",
                "code" : "0x",
                "nonce" : "0x00",
                "storage" : {
                }
            },
            "0x77db2bebba79db42a978f896968f4afce746ea1f" : {
                "balance" : "0x0de0b6b3a7640000",
                "code" : "0x",
                "nonce" : "0x00",
                "storage" : {
                }
            },
            "0x7d577a597b2742b498cb5cf0c26cdcd726d39e6e" : {
                "balance" : "0x0de0b6b3a7640000",
                "code" : "0x",
                "nonce" : "0x00",
                "storage" : {
                }
            },
            "0x82a978b3f5962a5b0957d9ee9eef472ee55b42f1" : {
                "balance" : "0x0de0b6b3a7411bf2",
                "code" : "0x",
                "nonce" : "0x32",
                "storage" : {
                }
            },
            "0x90f0b1ebbba1c1936aff7aaf20a7878ff9e04b6c" : {
                "balance" : "0x0de0b6b3a7640000",
                "code" : "0x",
                "nonce" : "0x00",
                "storage" : {
                }
            },
            "0xc305c901078781c232a2a521c2af7980f8385ee9" : {
                "balance" : "0x00",
                "code" : "0x600035601c52740100000000000000000000000000000000000000006020526fffffffffffffffffffffffffffffffff6040527fffffffffffffffffffffffffffffffff000000000000000000000000000000016060527402540be3fffffffffffffffffffffffffdabf41c006080527ffffffffffffffffffffffffdabf41c00000000000000000000000002540be40060a0526330c8d1da600051141561012b5760c06004356004013511151558576004356004013560200160043560040161014037604061026061014051610160600060076305f5e0fff11558576040610240526102406060806102c0828460006004601bf15050506102c08051602082012090506000556102c060206020820352604081510160206001820306601f820103905060208203f350005b",
                "nonce" : "0x01",
                "storage" : {
                }
            },
            "0xdceceaf3fc5c0a63d195d69b1a90011b7b19650d" : {
                "balance" : "0x0de0b6b3a7640000",
                "code" : "0x",
                "nonce" : "0x00",
                "storage" : {
                }
            },
            "0xe0fc04fa2d34a66b779fd5cee748268032a146c0" : {
                "balance" : "0x0de0b6b3a7640000",
                "code" : "0x",
                "nonce" : "0x00",
                "storage" : {
                }
            }
        },
        "transaction" : {
            "data" : [
                "0x30c8d1da000000000000000000000000000000000000000000000000000000000000002000000000000000000000000000000000000000000000000000000000000000800000000000000000000000000000000000000000000000000000000000000001000000000000000000000000000000000000000000000000000000000000000300000000000000000000000000000000000000000000000000000000000000090000000000000000000000000000000000000000000000000000000000000000"
            ],
            "gasLimit" : [
                "0xa960",
                "0x015f90",
                "0x01adb0",
                "0x030d40"
            ],
            "gasPrice" : "0x0a",
            "nonce" : "0x32",
            "secretKey" : "0x044852b2a670ade5407e78fb2863c51de9fcb96542a07186fe3aeda6bb8a116d",
            "sender" : "0x82a978b3f5962a5b0957d9ee9eef472ee55b42f1",
            "to" : "0xc305c901078781c232a2a521c2af7980f8385ee9",
            "value" : [
                "0x00"
            ]
        }
    }
}