{
    "ecmul_1-3_340282366920938463463374607431768211456_21000_96" : {
        "_info" : {
            "comment" : "Puts the point (1, 3) and the factor 340282366920938463463374607431768211456 into the ECMUL precompile, truncating or expanding the input data to 96 bytes. Gives the execution 21000 bytes",
            "filling-rpc-server" : "evm version 1.10.2-unstable-22082f9e-20210309",
            "filling-tool-version" : "retesteth-0.1.0-accesslist+commit.47c69eb3.Linux.g++",
            "lllcversion" : "Version: 0.5.14-develop.2020.6.22+commit.9189ad7a.Linux.g++",
            "source" : "src/GeneralStateTestsFiller/stZeroKnowledge/ecmul_1-3_340282366920938463463374607431768211456_21000_96Filler.json",
            "sourceHash" : "646b6d7903cc4b89c775ed1efbb4a7c4a5a032ffa1bd06bf50ba45026f9bc6fb"
        },
        "env" : {
            "currentCoinbase" : "0x3535353535353535353535353535353535353535",
            "currentDifficulty" : "0x020000",
            "currentGasLimit" : "0x05f5e100",
            "currentNumber" : "0x01",
            "currentTimestamp" : "0x03e8",
            "previousHash" : "0xc6745cf3cada515bbfb9573261c82547e0b8f9e3d5dd382e464704a84e47b5ad"
        },
        "post" : {
            "Berlin" : [
                {
                    "indexes" : {
                        "data" : 0,
                        "gas" : 0,
                        "value" : 0
                    },
                    "hash" : "0xa0c70e284f001bdeeb9df5204c1784410b53f1a9f0ada4204ea4f907b1454fdc",
                    "txbytes" : "0xf901043e0182a8e094c305c901078781c232a2a521c2af7980f8385ee980b8a430c8d1da000000000000000000000000000000000000000000000000000000000000002000000000000000000000000000000000000000000000000000000000000000600000000000000000000000000000000000000000000000000000000000000001000000000000000000000000000000000000000000000000000000000000000300000000000000000000000000000001000000000000000000000000000000001ba0873588fdae127aaf3c32d7ec7f1588ac169390fa54856b3300444a64de6bfab2a06a55a8825059784539a4d9356074597e208db764a41193557ae9fa133ca7794e",
                    "logs" : "0x1dcc4de8dec75d7aab85b567b6ccd41ad312451b948a7413f0a142fd40d49347"
                },
                {
                    "indexes" : {
                        "data" : 0,
                        "gas" : 1,
                        "value" : 0
                    },
                    "hash" : "0x3d308b09149b490935f22c76b687bb5224595b49c11d22d21a2e55dc567beb36",
                    "txbytes" : "0xf901053e0183015f9094c305c901078781c232a2a521c2af7980f8385ee980b8a430c8d1da000000000000000000000000000000000000000000000000000000000000002000000000000000000000000000000000000000000000000000000000000000600000000000000000000000000000000000000000000000000000000000000001000000000000000000000000000000000000000000000000000000000000000300000000000000000000000000000001000000000000000000000000000000001ca0dfa2368df46ced80e9feaa24fe551b07a197ef9f95d133ed70b86231cddefa1ca00b1dd42f216a586edfe5deb6bf54ce71db9b4f36f10bc03f6916887c623369fb",
                    "logs" : "0x1dcc4de8dec75d7aab85b567b6ccd41ad312451b948a7413f0a142fd40d49347"
                },
                {
                    "indexes" : {
                        "data" : 0,
                        "gas" : 2,
                        "value" : 0
                    },
                    "hash" : "0xfba21c63c853a226f6173d0479e8c8f83317f6604156f03a94504fab0b0891db",
                    "txbytes" : "0xf901053e018301adb094c305c901078781c232a2a521c2af7980f8385ee980b8a430c8d1da000000000000000000000000000000000000000000000000000000000000002000000000000000000000000000000000000000000000000000000000000000600000000000000000000000000000000000000000000000000000000000000001000000000000000000000000000000000000000000000000000000000000000300000000000000000000000000000001000000000000000000000000000000001ca06366c98375676f2df3084905086bbc08ae3201488cc4e2b9b3630272b3f5bd35a05e0cddb3685e17a0a4800d8f7eca854777212dcf56be94be3ca04d2cfeec7da5",
                    "logs" : "0x1dcc4de8dec75d7aab85b567b6ccd41ad312451b948a7413f0a142fd40d49347"
                },
                {
                    "indexes" : {
                        "data" : 0,
                        "gas" : 3,
                        "value" : 0
                    },
                    "hash" : "0x798c2e00d1f505ba776a8eacc26df5d7dd7e5a58b2d1776f1bdde12711b1d934",
                    "txbytes" : "0xf901053e0183030d4094c305c901078781c232a2a521c2af7980f8385ee980b8a430c8d1da000000000000000000000000000000000000000000000000000000000000002000000000000000000000000000000000000000000000000000000000000000600000000000000000000000000000000000000000000000000000000000000001000000000000000000000000000000000000000000000000000000000000000300000000000000000000000000000001000000000000000000000000000000001ba03880ab31ac362d674c7405355c831ae6d419258edb00ba39f0faa2dcb098d034a02b709e64b4a35208209f71e2738cb038c89109722c0e1d92ccf4737c921fa484",
                    "logs" : "0x1dcc4de8dec75d7aab85b567b6ccd41ad312451b948a7413f0a142fd40d49347"
                }
            ],
            "Istanbul" : [
                {
                    "indexes" : {
                        "data" : 0,
                        "gas" : 0,
                        "value" : 0
                    },
                    "hash" : "0xa0c70e284f001bdeeb9df5204c1784410b53f1a9f0ada4204ea4f907b1454fdc",
                    "txbytes" : "0xf901043e0182a8e094c305c901078781c232a2a521c2af7980f8385ee980b8a430c8d1da000000000000000000000000000000000000000000000000000000000000002000000000000000000000000000000000000000000000000000000000000000600000000000000000000000000000000000000000000000000000000000000001000000000000000000000000000000000000000000000000000000000000000300000000000000000000000000000001000000000000000000000000000000001ba0873588fdae127aaf3c32d7ec7f1588ac169390fa54856b3300444a64de6bfab2a06a55a8825059784539a4d9356074597e208db764a41193557ae9fa133ca7794e",
                    "logs" : "0x1dcc4de8dec75d7aab85b567b6ccd41ad312451b948a7413f0a142fd40d49347"
                },
                {
                    "indexes" : {
                        "data" : 0,
                        "gas" : 1,
                        "value" : 0
                    },
                    "hash" : "0x3d308b09149b490935f22c76b687bb5224595b49c11d22d21a2e55dc567beb36",
                    "txbytes" : "0xf901053e0183015f9094c305c901078781c232a2a521c2af7980f8385ee980b8a430c8d1da000000000000000000000000000000000000000000000000000000000000002000000000000000000000000000000000000000000000000000000000000000600000000000000000000000000000000000000000000000000000000000000001000000000000000000000000000000000000000000000000000000000000000300000000000000000000000000000001000000000000000000000000000000001ca0dfa2368df46ced80e9feaa24fe551b07a197ef9f95d133ed70b86231cddefa1ca00b1dd42f216a586edfe5deb6bf54ce71db9b4f36f10bc03f6916887c623369fb",
                    "logs" : "0x1dcc4de8dec75d7aab85b567b6ccd41ad312451b948a7413f0a142fd40d49347"
                },
                {
                    "indexes" : {
                        "data" : 0,
                        "gas" : 2,
                        "value" : 0
                    },
                    "hash" : "0xfba21c63c853a226f6173d0479e8c8f83317f6604156f03a94504fab0b0891db",
                    "txbytes" : "0xf901053e018301adb094c305c901078781c232a2a521c2af7980f8385ee980b8a430c8d1da000000000000000000000000000000000000000000000000000000000000002000000000000000000000000000000000000000000000000000000000000000600000000000000000000000000000000000000000000000000000000000000001000000000000000000000000000000000000000000000000000000000000000300000000000000000000000000000001000000000000000000000000000000001ca06366c98375676f2df3084905086bbc08ae3201488cc4e2b9b3630272b3f5bd35a05e0cddb3685e17a0a4800d8f7eca854777212dcf56be94be3ca04d2cfeec7da5",
                    "logs" : "0x1dcc4de8dec75d7aab85b567b6ccd41ad312451b948a7413f0a142fd40d49347"
                },
                {
                    "indexes" : {
                        "data" : 0,
                        "gas" : 3,
                        "value" : 0
                    },
                    "hash" : "0x798c2e00d1f505ba776a8eacc26df5d7dd7e5a58b2d1776f1bdde12711b1d934",
                    "txbytes" : "0xf901053e0183030d4094c305c901078781c232a2a521c2af7980f8385ee980b8a430c8d1da000000000000000000000000000000000000000000000000000000000000002000000000000000000000000000000000000000000000000000000000000000600000000000000000000000000000000000000000000000000000000000000001000000000000000000000000000000000000000000000000000000000000000300000000000000000000000000000001000000000000000000000000000000001ba03880ab31ac362d674c7405355c831ae6d419258edb00ba39f0faa2dcb098d034a02b709e64b4a35208209f71e2738cb038c89109722c0e1d92ccf4737c921fa484",
                    "logs" : "0x1dcc4de8dec75d7aab85b567b6ccd41ad312451b948a7413f0a142fd40d49347"
                }
            ]
        },
        "pre" : {
            "0x0000000000000000000000000000000000000000" : {
                "balance" : "0x01",
                "code" : "0x",
                "nonce" : "0x00",
                "storage" : {
                }
            },
            "0x0000000000000000000000000000000000000001" : {
                "balance" : "0x01",
                "code" : "0x",
                "nonce" : "0x00",
                "storage" : {
                }
            },
            "0x0000000000000000000000000000000000000002" : {
                "balance" : "0x01",
                "code" : "0x",
                "nonce" : "0x00",
                "storage" : {
                }
            },
            "0x0000000000000000000000000000000000000003" : {
                "balance" : "0x01",
                "code" : "0x",
                "nonce" : "0x00",
                "storage" : {
                }
            },
            "0x0000000000000000000000000000000000000004" : {
                "balance" : "0x01",
                "code" : "0x",
                "nonce" : "0x00",
                "storage" : {
                }
            },
            "0x0000000000000000000000000000000000000005" : {
                "balance" : "0x01",
                "code" : "0x",
                "nonce" : "0x00",
                "storage" : {
                }
            },
            "0x0000000000000000000000000000000000000006" : {
                "balance" : "0x01",
                "code" : "0x",
                "nonce" : "0x00",
                "storage" : {
                }
            },
            "0x0000000000000000000000000000000000000007" : {
                "balance" : "0x01",
                "code" : "0x",
                "nonce" : "0x00",
                "storage" : {
                }
            },
            "0x10a1c1cb95c92ec31d3f22c66eef1d9f3f258c6b" : {
                "balance" : "0x0de0b6b3a7640000",
                "code" : "0x",
                "nonce" : "0x00",
                "storage" : {
                }
            },
            "0x13cbb8d99c6c4e0f2728c7d72606e78a29c4e224" : {
                "balance" : "0x0de0b6b3a7640000",
                "code" : "0x",
                "nonce" : "0x00",
                "storage" : {
                }
            },
            "0x24143873e0e0815fdcbcffdbe09c979cbf9ad013" : {
                "balance" : "0x0de0b6b3a7640000",
                "code" : "0x",
                "nonce" : "0x00",
                "storage" : {
                }
            },
            "0x3535353535353535353535353535353535353535" : {
                "balance" : "0x2afcce",
                "code" : "0x",
                "nonce" : "0x00",
                "storage" : {
                }
            },
            "0x598443f1880ef585b21f1d7585bd0577402861e5" : {
                "balance" : "0x0de0b6b3a7640000",
                "code" : "0x",
                "nonce" : "0x00",
                "storage" : {
                }
            },
            "0x77db2bebba79db42a978f896968f4afce746ea1f" : {
                "balance" : "0x0de0b6b3a7640000",
                "code" : "0x",
                "nonce" : "0x00",
                "storage" : {
                }
            },
            "0x7d577a597b2742b498cb5cf0c26cdcd726d39e6e" : {
                "balance" : "0x0de0b6b3a7640000",
                "code" : "0x",
                "nonce" : "0x00",
                "storage" : {
                }
            },
            "0x82a978b3f5962a5b0957d9ee9eef472ee55b42f1" : {
                "balance" : "0x0de0b6b3a7390332",
                "code" : "0x",
                "nonce" : "0x3e",
                "storage" : {
                }
            },
            "0x90f0b1ebbba1c1936aff7aaf20a7878ff9e04b6c" : {
                "balance" : "0x0de0b6b3a7640000",
                "code" : "0x",
                "nonce" : "0x00",
                "storage" : {
                }
            },
            "0xc305c901078781c232a2a521c2af7980f8385ee9" : {
                "balance" : "0x00",
                "code" : "0x600035601c52740100000000000000000000000000000000000000006020526fffffffffffffffffffffffffffffffff6040527fffffffffffffffffffffffffffffffff000000000000000000000000000000016060527402540be3fffffffffffffffffffffffffdabf41c006080527ffffffffffffffffffffffffdabf41c00000000000000000000000002540be40060a0526330c8d1da600051141561012b5760c06004356004013511151558576004356004013560200160043560040161014037604061026061014051610160600060076305f5e0fff11558576040610240526102406060806102c0828460006004601bf15050506102c08051602082012090506000556102c060206020820352604081510160206001820306601f820103905060208203f350005b",
                "nonce" : "0x01",
                "storage" : {
                }
            },
            "0xdceceaf3fc5c0a63d195d69b1a90011b7b19650d" : {
                "balance" : "0x0de0b6b3a7640000",
                "code" : "0x",
                "nonce" : "0x00",
                "storage" : {
                }
            },
            "0xe0fc04fa2d34a66b779fd5cee748268032a146c0" : {
                "balance" : "0x0de0b6b3a7640000",
                "code" : "0x",
                "nonce" : "0x00",
                "storage" : {
                }
            }
        },
        "transaction" : {
            "data" : [
                "0x30c8d1da00000000000000000000000000000000000000000000000000000000000000200000000000000000000000000000000000000000000000000000000000000060000000000000000000000000000000000000000000000000000000000000000100000000000000000000000000000000000000000000000000000000000000030000000000000000000000000000000100000000000000000000000000000000"
            ],
            "gasLimit" : [
                "0xa8e0",
                "0x015f90",
                "0x01adb0",
                "0x030d40"
            ],
            "gasPrice" : "0x01",
            "nonce" : "0x3e",
            "secretKey" : "0x044852b2a670ade5407e78fb2863c51de9fcb96542a07186fe3aeda6bb8a116d",
            "to" : "0xc305c901078781c232a2a521c2af7980f8385ee9",
            "value" : [
                "0x00"
            ]
        }
    }
}