{
    "ecmul_7827-6598_9935_28000_96" : {
        "_info" : {
            "comment" : "Puts the point (11999875504842010600789954262886096740416429265635183817701593963271973497827, 11843594000332171325303933275547366297934113019079887694534126289021216356598) and the factor 115792089237316195423570985008687907853269984665640564039457584007913129639935 into the ECMUL precompile, truncating or expanding the input data to 96 bytes. Gives the execution 28000 bytes",
            "filling-rpc-server" : "evm version 1.13.13-unstable-034bc466-20240219",
            "filling-tool-version" : "retesteth-0.3.2-cancun+commit.014a68a5.Linux.g++",
            "generatedTestHash" : "b174b1cab2821d4eadcd5232426e3130d8b8c6542998cbd2b6dc1561a4d2b6a7",
            "lllcversion" : "Version: 0.5.14-develop.2023.7.11+commit.c58ab2c6.mod.Linux.g++",
            "solidity" : "Version: 0.8.21+commit.d9974bed.Linux.g++",
            "source" : "src/GeneralStateTestsFiller/stZeroKnowledge/ecmul_7827-6598_9935_28000_96Filler.json",
            "sourceHash" : "d97caff38cb23cc3809cfd7e35a3091e3b232a07556ef1c7c35ee0429e66d51f"
        },
        "env" : {
            "currentBaseFee" : "0x0a",
            "currentCoinbase" : "0x3535353535353535353535353535353535353535",
            "currentDifficulty" : "0x020000",
            "currentExcessBlobGas" : "0x00",
            "currentGasLimit" : "0x05f5e100",
            "currentNumber" : "0x01",
            "currentRandom" : "0x0000000000000000000000000000000000000000000000000000000000020000",
            "currentTimestamp" : "0x03e8"
        },
        "post" : {
            "Berlin" : [
                {
                    "hash" : "0xaa6018ecfaa96536c8b9be2e2aa7739162b9cb239f0b7d02d029cc7214e2dcc9",
                    "indexes" : {
                        "data" : 0,
                        "gas" : 0,
                        "value" : 0
                    },
                    "logs" : "0x1dcc4de8dec75d7aab85b567b6ccd41ad312451b948a7413f0a142fd40d49347",
                    "txbytes" : "0xf9010581bd0a8280e894c305c901078781c232a2a521c2af7980f8385ee980b8a430c8d1da000000000000000000000000000000000000000000000000000000000000002000000000000000000000000000000000000000000000000000000000000000601a87b0584ce92f4593d161480614f2989035225609f08058ccfa3d0f940febe31a2f3c951f6dadcc7ee9007dff81504b0fcd6d7cf59996efdc33d92bf7f9f8f6ffffffffffffffffffffffffffffffffffffffffffffffffffffffffffffffff1ca041ae7b573809b39209414255f1e59dd3c40c711597f2c77d046625216f723f15a01a5df9c8be5d63f4af40fb540b378479bba8a32ca8455263a687bf4221466bc2"
                },
                {
                    "hash" : "0x2393f63e8345cc388e14cf8f587652daef84407033c5e6f131ee46b27f042f9a",
                    "indexes" : {
                        "data" : 0,
                        "gas" : 1,
                        "value" : 0
                    },
                    "logs" : "0x1dcc4de8dec75d7aab85b567b6ccd41ad312451b948a7413f0a142fd40d49347",
                    "txbytes" : "0xf9010681bd0a83015f9094c305c901078781c232a2a521c2af7980f8385ee980b8a430c8d1da000000000000000000000000000000000000000000000000000000000000002000000000000000000000000000000000000000000000000000000000000000601a87b0584ce92f4593d161480614f2989035225609f08058ccfa3d0f940febe31a2f3c951f6dadcc7ee9007dff81504b0fcd6d7cf59996efdc33d92bf7f9f8f6ffffffffffffffffffffffffffffffffffffffffffffffffffffffffffffffff1ca093279f6359a3591fb69d384e4b12f4df6118cd8db2ebf1288cb7599e55d93a0fa025db8cfe915981868b40cb174a85b852a79a4facf9c07f00b0d4d473d0c5b4ad"
                },
                {
                    "hash" : "0x2393f63e8345cc388e14cf8f587652daef84407033c5e6f131ee46b27f042f9a",
                    "indexes" : {
                        "data" : 0,
                        "gas" : 2,
                        "value" : 0
                    },
                    "logs" : "0x1dcc4de8dec75d7aab85b567b6ccd41ad312451b948a7413f0a142fd40d49347",
                    "txbytes" : "0xf9010681bd0a8301adb094c305c901078781c232a2a521c2af7980f8385ee980b8a430c8d1da000000000000000000000000000000000000000000000000000000000000002000000000000000000000000000000000000000000000000000000000000000601a87b0584ce92f4593d161480614f2989035225609f08058ccfa3d0f940febe31a2f3c951f6dadcc7ee9007dff81504b0fcd6d7cf59996efdc33d92bf7f9f8f6ffffffffffffffffffffffffffffffffffffffffffffffffffffffffffffffff1ca0e0a46600927c20d37b627965bf1d815b7b845895402e0cb5d5a3359b1b338e5aa00e112d9d5dacd7d05b7ab54cf01c74083248ff3d7100a91ed67ce867cc352541"
                },
                {
                    "hash" : "0x2393f63e8345cc388e14cf8f587652daef84407033c5e6f131ee46b27f042f9a",
                    "indexes" : {
                        "data" : 0,
                        "gas" : 3,
                        "value" : 0
                    },
                    "logs" : "0x1dcc4de8dec75d7aab85b567b6ccd41ad312451b948a7413f0a142fd40d49347",
                    "txbytes" : "0xf9010681bd0a83030d4094c305c901078781c232a2a521c2af7980f8385ee980b8a430c8d1da000000000000000000000000000000000000000000000000000000000000002000000000000000000000000000000000000000000000000000000000000000601a87b0584ce92f4593d161480614f2989035225609f08058ccfa3d0f940febe31a2f3c951f6dadcc7ee9007dff81504b0fcd6d7cf59996efdc33d92bf7f9f8f6ffffffffffffffffffffffffffffffffffffffffffffffffffffffffffffffff1ca03c21613c71aac753e6b28624fe183e3eda29ec07817bd8e9432a7a40978cec74a00a644723496d163fda42050055a0bb885a1fb2b28e828cc6e74af0f2b148a6ac"
                }
            ],
            "Cancun" : [
                {
                    "hash" : "0x7195f22efdff5cc67fe378cdc2ebe932740beec945628f83b56d25b9a596a4de",
                    "indexes" : {
                        "data" : 0,
                        "gas" : 0,
                        "value" : 0
                    },
                    "logs" : "0x1dcc4de8dec75d7aab85b567b6ccd41ad312451b948a7413f0a142fd40d49347",
                    "txbytes" : "0xf9010581bd0a8280e894c305c901078781c232a2a521c2af7980f8385ee980b8a430c8d1da000000000000000000000000000000000000000000000000000000000000002000000000000000000000000000000000000000000000000000000000000000601a87b0584ce92f4593d161480614f2989035225609f08058ccfa3d0f940febe31a2f3c951f6dadcc7ee9007dff81504b0fcd6d7cf59996efdc33d92bf7f9f8f6ffffffffffffffffffffffffffffffffffffffffffffffffffffffffffffffff1ca041ae7b573809b39209414255f1e59dd3c40c711597f2c77d046625216f723f15a01a5df9c8be5d63f4af40fb540b378479bba8a32ca8455263a687bf4221466bc2"
                },
                {
                    "hash" : "0x551ea9ebbcc6a50317d2de8ba33433188ebaea6b75e32b6a6ad9def91f395df0",
                    "indexes" : {
                        "data" : 0,
                        "gas" : 1,
                        "value" : 0
                    },
                    "logs" : "0x1dcc4de8dec75d7aab85b567b6ccd41ad312451b948a7413f0a142fd40d49347",
                    "txbytes" : "0xf9010681bd0a83015f9094c305c901078781c232a2a521c2af7980f8385ee980b8a430c8d1da000000000000000000000000000000000000000000000000000000000000002000000000000000000000000000000000000000000000000000000000000000601a87b0584ce92f4593d161480614f2989035225609f08058ccfa3d0f940febe31a2f3c951f6dadcc7ee9007dff81504b0fcd6d7cf59996efdc33d92bf7f9f8f6ffffffffffffffffffffffffffffffffffffffffffffffffffffffffffffffff1ca093279f6359a3591fb69d384e4b12f4df6118cd8db2ebf1288cb7599e55d93a0fa025db8cfe915981868b40cb174a85b852a79a4facf9c07f00b0d4d473d0c5b4ad"
                },
                {
                    "hash" : "0x551ea9ebbcc6a50317d2de8ba33433188ebaea6b75e32b6a6ad9def91f395df0",
                    "indexes" : {
                        "data" : 0,
                        "gas" : 2,
                        "value" : 0
                    },
                    "logs" : "0x1dcc4de8dec75d7aab85b567b6ccd41ad312451b948a7413f0a142fd40d49347",
                    "txbytes" : "0xf9010681bd0a8301adb094c305c901078781c232a2a521c2af7980f8385ee980b8a430c8d1da000000000000000000000000000000000000000000000000000000000000002000000000000000000000000000000000000000000000000000000000000000601a87b0584ce92f4593d161480614f2989035225609f08058ccfa3d0f940febe31a2f3c951f6dadcc7ee9007dff81504b0fcd6d7cf59996efdc33d92bf7f9f8f6ffffffffffffffffffffffffffffffffffffffffffffffffffffffffffffffff1ca0e0a46600927c20d37b627965bf1d815b7b845895402e0cb5d5a3359b1b338e5aa00e112d9d5dacd7d05b7ab54cf01c74083248ff3d7100a91ed67ce867cc352541"
                },
                {
                    "hash" : "0x551ea9ebbcc6a50317d2de8ba33433188ebaea6b75e32b6a6ad9def91f395df0",
                    "indexes" : {
                        "data" : 0,
                        "gas" : 3,
                        "value" : 0
                    },
                    "logs" : "0x1dcc4de8dec75d7aab85b567b6ccd41ad312451b948a7413f0a142fd40d49347",
                    "txbytes" : "0xf9010681bd0a83030d4094c305c901078781c232a2a521c2af7980f8385ee980b8a430c8d1da000000000000000000000000000000000000000000000000000000000000002000000000000000000000000000000000000000000000000000000000000000601a87b0584ce92f4593d161480614f2989035225609f08058ccfa3d0f940febe31a2f3c951f6dadcc7ee9007dff81504b0fcd6d7cf59996efdc33d92bf7f9f8f6ffffffffffffffffffffffffffffffffffffffffffffffffffffffffffffffff1ca03c21613c71aac753e6b28624fe183e3eda29ec07817bd8e9432a7a40978cec74a00a644723496d163fda42050055a0bb885a1fb2b28e828cc6e74af0f2b148a6ac"
                }
            ],
            "Istanbul" : [
                {
                    "hash" : "0xaa6018ecfaa96536c8b9be2e2aa7739162b9cb239f0b7d02d029cc7214e2dcc9",
                    "indexes" : {
                        "data" : 0,
                        "gas" : 0,
                        "value" : 0
                    },
                    "logs" : "0x1dcc4de8dec75d7aab85b567b6ccd41ad312451b948a7413f0a142fd40d49347",
                    "txbytes" : "0xf9010581bd0a8280e894c305c901078781c232a2a521c2af7980f8385ee980b8a430c8d1da000000000000000000000000000000000000000000000000000000000000002000000000000000000000000000000000000000000000000000000000000000601a87b0584ce92f4593d161480614f2989035225609f08058ccfa3d0f940febe31a2f3c951f6dadcc7ee9007dff81504b0fcd6d7cf59996efdc33d92bf7f9f8f6ffffffffffffffffffffffffffffffffffffffffffffffffffffffffffffffff1ca041ae7b573809b39209414255f1e59dd3c40c711597f2c77d046625216f723f15a01a5df9c8be5d63f4af40fb540b378479bba8a32ca8455263a687bf4221466bc2"
                },
                {
                    "hash" : "0xc7ce27f7d03439eb24c53d4e89219123b2d9b5c4909335e66813af7f1ef038d9",
                    "indexes" : {
                        "data" : 0,
                        "gas" : 1,
                        "value" : 0
                    },
                    "logs" : "0x1dcc4de8dec75d7aab85b567b6ccd41ad312451b948a7413f0a142fd40d49347",
                    "txbytes" : "0xf9010681bd0a83015f9094c305c901078781c232a2a521c2af7980f8385ee980b8a430c8d1da000000000000000000000000000000000000000000000000000000000000002000000000000000000000000000000000000000000000000000000000000000601a87b0584ce92f4593d161480614f2989035225609f08058ccfa3d0f940febe31a2f3c951f6dadcc7ee9007dff81504b0fcd6d7cf59996efdc33d92bf7f9f8f6ffffffffffffffffffffffffffffffffffffffffffffffffffffffffffffffff1ca093279f6359a3591fb69d384e4b12f4df6118cd8db2ebf1288cb7599e55d93a0fa025db8cfe915981868b40cb174a85b852a79a4facf9c07f00b0d4d473d0c5b4ad"
                },
                {
                    "hash" : "0xc7ce27f7d03439eb24c53d4e89219123b2d9b5c4909335e66813af7f1ef038d9",
                    "indexes" : {
                        "data" : 0,
                        "gas" : 2,
                        "value" : 0
                    },
                    "logs" : "0x1dcc4de8dec75d7aab85b567b6ccd41ad312451b948a7413f0a142fd40d49347",
                    "txbytes" : "0xf9010681bd0a8301adb094c305c901078781c232a2a521c2af7980f8385ee980b8a430c8d1da000000000000000000000000000000000000000000000000000000000000002000000000000000000000000000000000000000000000000000000000000000601a87b0584ce92f4593d161480614f2989035225609f08058ccfa3d0f940febe31a2f3c951f6dadcc7ee9007dff81504b0fcd6d7cf59996efdc33d92bf7f9f8f6ffffffffffffffffffffffffffffffffffffffffffffffffffffffffffffffff1ca0e0a46600927c20d37b627965bf1d815b7b845895402e0cb5d5a3359b1b338e5aa00e112d9d5dacd7d05b7ab54cf01c74083248ff3d7100a91ed67ce867cc352541"
                },
                {
                    "hash" : "0xc7ce27f7d03439eb24c53d4e89219123b2d9b5c4909335e66813af7f1ef038d9",
                    "indexes" : {
                        "data" : 0,
                        "gas" : 3,
                        "value" : 0
                    },
                    "logs" : "0x1dcc4de8dec75d7aab85b567b6ccd41ad312451b948a7413f0a142fd40d49347",
                    "txbytes" : "0xf9010681bd0a83030d4094c305c901078781c232a2a521c2af7980f8385ee980b8a430c8d1da000000000000000000000000000000000000000000000000000000000000002000000000000000000000000000000000000000000000000000000000000000601a87b0584ce92f4593d161480614f2989035225609f08058ccfa3d0f940febe31a2f3c951f6dadcc7ee9007dff81504b0fcd6d7cf59996efdc33d92bf7f9f8f6ffffffffffffffffffffffffffffffffffffffffffffffffffffffffffffffff1ca03c21613c71aac753e6b28624fe183e3eda29ec07817bd8e9432a7a40978cec74a00a644723496d163fda42050055a0bb885a1fb2b28e828cc6e74af0f2b148a6ac"
                }
            ],
            "London" : [
                {
                    "hash" : "0x3059385bada7f8f40a434683bb834c3a8d5d44665f9cfb3cf6085a80d4f7e486",
                    "indexes" : {
                        "data" : 0,
                        "gas" : 0,
                        "value" : 0
                    },
                    "logs" : "0x1dcc4de8dec75d7aab85b567b6ccd41ad312451b948a7413f0a142fd40d49347",
                    "txbytes" : "0xf9010581bd0a8280e894c305c901078781c232a2a521c2af7980f8385ee980b8a430c8d1da000000000000000000000000000000000000000000000000000000000000002000000000000000000000000000000000000000000000000000000000000000601a87b0584ce92f4593d161480614f2989035225609f08058ccfa3d0f940febe31a2f3c951f6dadcc7ee9007dff81504b0fcd6d7cf59996efdc33d92bf7f9f8f6ffffffffffffffffffffffffffffffffffffffffffffffffffffffffffffffff1ca041ae7b573809b39209414255f1e59dd3c40c711597f2c77d046625216f723f15a01a5df9c8be5d63f4af40fb540b378479bba8a32ca8455263a687bf4221466bc2"
                },
                {
                    "hash" : "0x3d7a5acaa0a8809d5995f9baf749fefaf8dfbfd9635a4285fcb511c82d48fb78",
                    "indexes" : {
                        "data" : 0,
                        "gas" : 1,
                        "value" : 0
                    },
                    "logs" : "0x1dcc4de8dec75d7aab85b567b6ccd41ad312451b948a7413f0a142fd40d49347",
                    "txbytes" : "0xf9010681bd0a83015f9094c305c901078781c232a2a521c2af7980f8385ee980b8a430c8d1da000000000000000000000000000000000000000000000000000000000000002000000000000000000000000000000000000000000000000000000000000000601a87b0584ce92f4593d161480614f2989035225609f08058ccfa3d0f940febe31a2f3c951f6dadcc7ee9007dff81504b0fcd6d7cf59996efdc33d92bf7f9f8f6ffffffffffffffffffffffffffffffffffffffffffffffffffffffffffffffff1ca093279f6359a3591fb69d384e4b12f4df6118cd8db2ebf1288cb7599e55d93a0fa025db8cfe915981868b40cb174a85b852a79a4facf9c07f00b0d4d473d0c5b4ad"
                },
                {
                    "hash" : "0x3d7a5acaa0a8809d5995f9baf749fefaf8dfbfd9635a4285fcb511c82d48fb78",
                    "indexes" : {
                        "data" : 0,
                        "gas" : 2,
                        "value" : 0
                    },
                    "logs" : "0x1dcc4de8dec75d7aab85b567b6ccd41ad312451b948a7413f0a142fd40d49347",
                    "txbytes" : "0xf9010681bd0a8301adb094c305c901078781c232a2a521c2af7980f8385ee980b8a430c8d1da000000000000000000000000000000000000000000000000000000000000002000000000000000000000000000000000000000000000000000000000000000601a87b0584ce92f4593d161480614f2989035225609f08058ccfa3d0f940febe31a2f3c951f6dadcc7ee9007dff81504b0fcd6d7cf59996efdc33d92bf7f9f8f6ffffffffffffffffffffffffffffffffffffffffffffffffffffffffffffffff1ca0e0a46600927c20d37b627965bf1d815b7b845895402e0cb5d5a3359b1b338e5aa00e112d9d5dacd7d05b7ab54cf01c74083248ff3d7100a91ed67ce867cc352541"
                },
                {
                    "hash" : "0x3d7a5acaa0a8809d5995f9baf749fefaf8dfbfd9635a4285fcb511c82d48fb78",
                    "indexes" : {
                        "data" : 0,
                        "gas" : 3,
                        "value" : 0
                    },
                    "logs" : "0x1dcc4de8dec75d7aab85b567b6ccd41ad312451b948a7413f0a142fd40d49347",
                    "txbytes" : "0xf9010681bd0a83030d4094c305c901078781c232a2a521c2af7980f8385ee980b8a430c8d1da000000000000000000000000000000000000000000000000000000000000002000000000000000000000000000000000000000000000000000000000000000601a87b0584ce92f4593d161480614f2989035225609f08058ccfa3d0f940febe31a2f3c951f6dadcc7ee9007dff81504b0fcd6d7cf59996efdc33d92bf7f9f8f6ffffffffffffffffffffffffffffffffffffffffffffffffffffffffffffffff1ca03c21613c71aac753e6b28624fe183e3eda29ec07817bd8e9432a7a40978cec74a00a644723496d163fda42050055a0bb885a1fb2b28e828cc6e74af0f2b148a6ac"
                }
            ],
            "Paris" : [
                {
                    "hash" : "0x3059385bada7f8f40a434683bb834c3a8d5d44665f9cfb3cf6085a80d4f7e486",
                    "indexes" : {
                        "data" : 0,
                        "gas" : 0,
                        "value" : 0
                    },
                    "logs" : "0x1dcc4de8dec75d7aab85b567b6ccd41ad312451b948a7413f0a142fd40d49347",
                    "txbytes" : "0xf9010581bd0a8280e894c305c901078781c232a2a521c2af7980f8385ee980b8a430c8d1da000000000000000000000000000000000000000000000000000000000000002000000000000000000000000000000000000000000000000000000000000000601a87b0584ce92f4593d161480614f2989035225609f08058ccfa3d0f940febe31a2f3c951f6dadcc7ee9007dff81504b0fcd6d7cf59996efdc33d92bf7f9f8f6ffffffffffffffffffffffffffffffffffffffffffffffffffffffffffffffff1ca041ae7b573809b39209414255f1e59dd3c40c711597f2c77d046625216f723f15a01a5df9c8be5d63f4af40fb540b378479bba8a32ca8455263a687bf4221466bc2"
                },
                {
                    "hash" : "0x3d7a5acaa0a8809d5995f9baf749fefaf8dfbfd9635a4285fcb511c82d48fb78",
                    "indexes" : {
                        "data" : 0,
                        "gas" : 1,
                        "value" : 0
                    },
                    "logs" : "0x1dcc4de8dec75d7aab85b567b6ccd41ad312451b948a7413f0a142fd40d49347",
                    "txbytes" : "0xf9010681bd0a83015f9094c305c901078781c232a2a521c2af7980f8385ee980b8a430c8d1da000000000000000000000000000000000000000000000000000000000000002000000000000000000000000000000000000000000000000000000000000000601a87b0584ce92f4593d161480614f2989035225609f08058ccfa3d0f940febe31a2f3c951f6dadcc7ee9007dff81504b0fcd6d7cf59996efdc33d92bf7f9f8f6ffffffffffffffffffffffffffffffffffffffffffffffffffffffffffffffff1ca093279f6359a3591fb69d384e4b12f4df6118cd8db2ebf1288cb7599e55d93a0fa025db8cfe915981868b40cb174a85b852a79a4facf9c07f00b0d4d473d0c5b4ad"
                },
                {
                    "hash" : "0x3d7a5acaa0a8809d5995f9baf749fefaf8dfbfd9635a4285fcb511c82d48fb78",
                    "indexes" : {
                        "data" : 0,
                        "gas" : 2,
                        "value" : 0
                    },
                    "logs" : "0x1dcc4de8dec75d7aab85b567b6ccd41ad312451b948a7413f0a142fd40d49347",
                    "txbytes" : "0xf9010681bd0a8301adb094c305c901078781c232a2a521c2af7980f8385ee980b8a430c8d1da000000000000000000000000000000000000000000000000000000000000002000000000000000000000000000000000000000000000000000000000000000601a87b0584ce92f4593d161480614f2989035225609f08058ccfa3d0f940febe31a2f3c951f6dadcc7ee9007dff81504b0fcd6d7cf59996efdc33d92bf7f9f8f6ffffffffffffffffffffffffffffffffffffffffffffffffffffffffffffffff1ca0e0a46600927c20d37b627965bf1d815b7b845895402e0cb5d5a3359b1b338e5aa00e112d9d5dacd7d05b7ab54cf01c74083248ff3d7100a91ed67ce867cc352541"
                },
                {
                    "hash" : "0x3d7a5acaa0a8809d5995f9baf749fefaf8dfbfd9635a4285fcb511c82d48fb78",
                    "indexes" : {
                        "data" : 0,
                        "gas" : 3,
                        "value" : 0
                    },
                    "logs" : "0x1dcc4de8dec75d7aab85b567b6ccd41ad312451b948a7413f0a142fd40d49347",
                    "txbytes" : "0xf9010681bd0a83030d4094c305c901078781c232a2a521c2af7980f8385ee980b8a430c8d1da000000000000000000000000000000000000000000000000000000000000002000000000000000000000000000000000000000000000000000000000000000601a87b0584ce92f4593d161480614f2989035225609f08058ccfa3d0f940febe31a2f3c951f6dadcc7ee9007dff81504b0fcd6d7cf59996efdc33d92bf7f9f8f6ffffffffffffffffffffffffffffffffffffffffffffffffffffffffffffffff1ca03c21613c71aac753e6b28624fe183e3eda29ec07817bd8e9432a7a40978cec74a00a644723496d163fda42050055a0bb885a1fb2b28e828cc6e74af0f2b148a6ac"
                }
            ],
            "Shanghai" : [
                {
                    "hash" : "0x3059385bada7f8f40a434683bb834c3a8d5d44665f9cfb3cf6085a80d4f7e486",
                    "indexes" : {
                        "data" : 0,
                        "gas" : 0,
                        "value" : 0
                    },
                    "logs" : "0x1dcc4de8dec75d7aab85b567b6ccd41ad312451b948a7413f0a142fd40d49347",
                    "txbytes" : "0xf9010581bd0a8280e894c305c901078781c232a2a521c2af7980f8385ee980b8a430c8d1da000000000000000000000000000000000000000000000000000000000000002000000000000000000000000000000000000000000000000000000000000000601a87b0584ce92f4593d161480614f2989035225609f08058ccfa3d0f940febe31a2f3c951f6dadcc7ee9007dff81504b0fcd6d7cf59996efdc33d92bf7f9f8f6ffffffffffffffffffffffffffffffffffffffffffffffffffffffffffffffff1ca041ae7b573809b39209414255f1e59dd3c40c711597f2c77d046625216f723f15a01a5df9c8be5d63f4af40fb540b378479bba8a32ca8455263a687bf4221466bc2"
                },
                {
                    "hash" : "0x3d7a5acaa0a8809d5995f9baf749fefaf8dfbfd9635a4285fcb511c82d48fb78",
                    "indexes" : {
                        "data" : 0,
                        "gas" : 1,
                        "value" : 0
                    },
                    "logs" : "0x1dcc4de8dec75d7aab85b567b6ccd41ad312451b948a7413f0a142fd40d49347",
                    "txbytes" : "0xf9010681bd0a83015f9094c305c901078781c232a2a521c2af7980f8385ee980b8a430c8d1da000000000000000000000000000000000000000000000000000000000000002000000000000000000000000000000000000000000000000000000000000000601a87b0584ce92f4593d161480614f2989035225609f08058ccfa3d0f940febe31a2f3c951f6dadcc7ee9007dff81504b0fcd6d7cf59996efdc33d92bf7f9f8f6ffffffffffffffffffffffffffffffffffffffffffffffffffffffffffffffff1ca093279f6359a3591fb69d384e4b12f4df6118cd8db2ebf1288cb7599e55d93a0fa025db8cfe915981868b40cb174a85b852a79a4facf9c07f00b0d4d473d0c5b4ad"
                },
                {
                    "hash" : "0x3d7a5acaa0a8809d5995f9baf749fefaf8dfbfd9635a4285fcb511c82d48fb78",
                    "indexes" : {
                        "data" : 0,
                        "gas" : 2,
                        "value" : 0
                    },
                    "logs" : "0x1dcc4de8dec75d7aab85b567b6ccd41ad312451b948a7413f0a142fd40d49347",
                    "txbytes" : "0xf9010681bd0a8301adb094c305c901078781c232a2a521c2af7980f8385ee980b8a430c8d1da000000000000000000000000000000000000000000000000000000000000002000000000000000000000000000000000000000000000000000000000000000601a87b0584ce92f4593d161480614f2989035225609f08058ccfa3d0f940febe31a2f3c951f6dadcc7ee9007dff81504b0fcd6d7cf59996efdc33d92bf7f9f8f6ffffffffffffffffffffffffffffffffffffffffffffffffffffffffffffffff1ca0e0a46600927c20d37b627965bf1d815b7b845895402e0cb5d5a3359b1b338e5aa00e112d9d5dacd7d05b7ab54cf01c74083248ff3d7100a91ed67ce867cc352541"
                },
                {
                    "hash" : "0x3d7a5acaa0a8809d5995f9baf749fefaf8dfbfd9635a4285fcb511c82d48fb78",
                    "indexes" : {
                        "data" : 0,
                        "gas" : 3,
                        "value" : 0
                    },
                    "logs" : "0x1dcc4de8dec75d7aab85b567b6ccd41ad312451b948a7413f0a142fd40d49347",
                    "txbytes" : "0xf9010681bd0a83030d4094c305c901078781c232a2a521c2af7980f8385ee980b8a430c8d1da000000000000000000000000000000000000000000000000000000000000002000000000000000000000000000000000000000000000000000000000000000601a87b0584ce92f4593d161480614f2989035225609f08058ccfa3d0f940febe31a2f3c951f6dadcc7ee9007dff81504b0fcd6d7cf59996efdc33d92bf7f9f8f6ffffffffffffffffffffffffffffffffffffffffffffffffffffffffffffffff1ca03c21613c71aac753e6b28624fe183e3eda29ec07817bd8e9432a7a40978cec74a00a644723496d163fda42050055a0bb885a1fb2b28e828cc6e74af0f2b148a6ac"
                }
            ]
        },
        "pre" : {
            "0x0000000000000000000000000000000000000000" : {
                "balance" : "0x01",
                "code" : "0x",
                "nonce" : "0x00",
                "storage" : {
                }
            },
            "0x0000000000000000000000000000000000000001" : {
                "balance" : "0x01",
                "code" : "0x",
                "nonce" : "0x00",
                "storage" : {
                }
            },
            "0x0000000000000000000000000000000000000002" : {
                "balance" : "0x01",
                "code" : "0x",
                "nonce" : "0x00",
                "storage" : {
                }
            },
            "0x0000000000000000000000000000000000000003" : {
                "balance" : "0x01",
                "code" : "0x",
                "nonce" : "0x00",
                "storage" : {
                }
            },
            "0x0000000000000000000000000000000000000004" : {
                "balance" : "0x01",
                "code" : "0x",
                "nonce" : "0x00",
                "storage" : {
                }
            },
            "0x0000000000000000000000000000000000000005" : {
                "balance" : "0x01",
                "code" : "0x",
                "nonce" : "0x00",
                "storage" : {
                }
            },
            "0x0000000000000000000000000000000000000006" : {
                "balance" : "0x01",
                "code" : "0x",
                "nonce" : "0x00",
                "storage" : {
                }
            },
            "0x0000000000000000000000000000000000000007" : {
                "balance" : "0x01",
                "code" : "0x",
                "nonce" : "0x00",
                "storage" : {
                }
            },
            "0x000f3df6d732807ef1319fb7b8bb8522d0beac02" : {
                "balance" : "0x00",
                "code" : "0x3373fffffffffffffffffffffffffffffffffffffffe14604d57602036146024575f5ffd5b5f35801560495762001fff810690815414603c575f5ffd5b62001fff01545f5260205ff35b5f5ffd5b62001fff42064281555f359062001fff015500",
                "nonce" : "0x01",
                "storage" : {
                }
            },
            "0x10a1c1cb95c92ec31d3f22c66eef1d9f3f258c6b" : {
                "balance" : "0x0de0b6b3a7640000",
                "code" : "0x",
                "nonce" : "0x00",
                "storage" : {
                }
            },
            "0x13cbb8d99c6c4e0f2728c7d72606e78a29c4e224" : {
                "balance" : "0x0de0b6b3a7640000",
                "code" : "0x",
                "nonce" : "0x00",
                "storage" : {
                }
            },
            "0x24143873e0e0815fdcbcffdbe09c979cbf9ad013" : {
                "balance" : "0x0de0b6b3a7640000",
                "code" : "0x",
                "nonce" : "0x00",
                "storage" : {
                }
            },
            "0x3535353535353535353535353535353535353535" : {
                "balance" : "0x7afe97",
                "code" : "0x",
                "nonce" : "0x00",
                "storage" : {
                }
            },
            "0x598443f1880ef585b21f1d7585bd0577402861e5" : {
                "balance" : "0x0de0b6b3a7640000",
                "code" : "0x",
                "nonce" : "0x00",
                "storage" : {
                }
            },
            "0x77db2bebba79db42a978f896968f4afce746ea1f" : {
                "balance" : "0x0de0b6b3a7640000",
                "code" : "0x",
                "nonce" : "0x00",
                "storage" : {
                }
            },
            "0x7d577a597b2742b498cb5cf0c26cdcd726d39e6e" : {
                "balance" : "0x0de0b6b3a7640000",
                "code" : "0x",
                "nonce" : "0x00",
                "storage" : {
                }
            },
            "0x82a978b3f5962a5b0957d9ee9eef472ee55b42f1" : {
                "balance" : "0x0de0b6b3a6e90169",
                "code" : "0x",
                "nonce" : "0xbd",
                "storage" : {
                }
            },
            "0x90f0b1ebbba1c1936aff7aaf20a7878ff9e04b6c" : {
                "balance" : "0x0de0b6b3a7640000",
                "code" : "0x",
                "nonce" : "0x00",
                "storage" : {
                }
            },
            "0xc305c901078781c232a2a521c2af7980f8385ee9" : {
                "balance" : "0x00",
                "code" : "0x600035601c52740100000000000000000000000000000000000000006020526fffffffffffffffffffffffffffffffff6040527fffffffffffffffffffffffffffffffff000000000000000000000000000000016060527402540be3fffffffffffffffffffffffffdabf41c006080527ffffffffffffffffffffffffdabf41c00000000000000000000000002540be40060a0526330c8d1da600051141561012b5760c06004356004013511151558576004356004013560200160043560040161014037604061026061014051610160600060076305f5e0fff11558576040610240526102406060806102c0828460006004601bf15050506102c08051602082012090506000556102c060206020820352604081510160206001820306601f820103905060208203f350005b",
                "nonce" : "0x01",
                "storage" : {
                    "0x00" : "0xa34b6e4f9c282ff62c1e6f53fd92ad8efd8346d9866333a95ab4506a8158afc7"
                }
            },
            "0xdceceaf3fc5c0a63d195d69b1a90011b7b19650d" : {
                "balance" : "0x0de0b6b3a7640000",
                "code" : "0x",
                "nonce" : "0x00",
                "storage" : {
                }
            },
            "0xe0fc04fa2d34a66b779fd5cee748268032a146c0" : {
                "balance" : "0x0de0b6b3a7640000",
                "code" : "0x",
                "nonce" : "0x00",
                "storage" : {
                }
            }
        },
        "transaction" : {
            "data" : [
                "0x30c8d1da000000000000000000000000000000000000000000000000000000000000002000000000000000000000000000000000000000000000000000000000000000601a87b0584ce92f4593d161480614f2989035225609f08058ccfa3d0f940febe31a2f3c951f6dadcc7ee9007dff81504b0fcd6d7cf59996efdc33d92bf7f9f8f6ffffffffffffffffffffffffffffffffffffffffffffffffffffffffffffffff"
            ],
            "gasLimit" : [
                "0x80e8",
                "0x015f90",
                "0x01adb0",
                "0x030d40"
            ],
            "gasPrice" : "0x0a",
            "nonce" : "0xbd",
            "secretKey" : "0x044852b2a670ade5407e78fb2863c51de9fcb96542a07186fe3aeda6bb8a116d",
            "sender" : "0x82a978b3f5962a5b0957d9ee9eef472ee55b42f1",
            "to" : "0xc305c901078781c232a2a521c2af7980f8385ee9",
            "value" : [
                "0x00"
            ]
        }
    }
}