{
    "CREATE2_Suicide_d9g0v0_Constantinople" : {
        "_info" : {
            "comment" : "CREATE2 suicide with/without value, CREATE2 sucide to itself   +  this cases during init of the CREATE2",
            "filledwith" : "testeth 1.8.0-12+commit.9078d51d.dirty",
            "lllcversion" : "Version: 0.5.14-develop.2021.6.15+commit.401d5358.Linux.g++",
            "source" : "src/LegacyTests/Constantinople/BlockchainTestsFiller/GeneralStateTests/stCreate2/CREATE2_Suicide_d9g0v0Filler.json",
            "sourceHash" : "c89923e3caa6f52916d9eaf80415c4972f46894e5f6380ab0ca858978bb8b3b7"
        },
        "blocks" : [
            {
                "blockHeader" : {
                    "bloom" : "0x00000000000000000000000000000000000000000000000000000000000000000000000000000000000000000000000000000000000000000000000000000000000000000000000000000000000000000000000000000000000000000000000000000000000000000000000000000000000000000000000000000000000000000000000000000000000000000000000000000000000000000000000000000000000000000000000000000000000000000000000000000000000000000000000000000000000000000000000000000000000000000000000000000000000000000000000000000000000000000000000000000000000000000000000000000000",
                    "coinbase" : "0x2adc25665018aa1fe0e6bc666dac8fc2697ff9ba",
                    "difficulty" : "0x020000",
                    "extraData" : "0x",
                    "gasLimit" : "0x989680",
                    "gasUsed" : "0x03a980",
                    "hash" : "0x156bd56c5e50ea4bc12cfc4c4985231fc9b8f7651bc0b80b6a0b058109026812",
                    "mixHash" : "0x0000000000000000000000000000000000000000000000000000000000000000",
                    "nonce" : "0x0000000000000000",
                    "number" : "0x01",
                    "parentHash" : "0x35095b1590cfa9eed610b5b60904000ac9a8448da13600b40cc80c26458e7326",
                    "receiptTrie" : "0x6d2c73a4e2ee4928bc5ed6ba88d76fe0a58e011b0f02059f81b9bc04c9a12ff8",
                    "stateRoot" : "0xf3f6270dcbfdf3939922f43c624be604f33c328721ddc756ffb1acf9f366a0d7",
                    "timestamp" : "0x03e8",
                    "transactionsTrie" : "0xb84fa5d58e70b8393b71b40a3d352180c1d504b0597faaae5726a0a7b2c23600",
                    "uncleHash" : "0x1dcc4de8dec75d7aab85b567b6ccd41ad312451b948a7413f0a142fd40d49347"
                },
                "rlp" : "0xf90289f901f8a035095b1590cfa9eed610b5b60904000ac9a8448da13600b40cc80c26458e7326a01dcc4de8dec75d7aab85b567b6ccd41ad312451b948a7413f0a142fd40d49347942adc25665018aa1fe0e6bc666dac8fc2697ff9baa0f3f6270dcbfdf3939922f43c624be604f33c328721ddc756ffb1acf9f366a0d7a0b84fa5d58e70b8393b71b40a3d352180c1d504b0597faaae5726a0a7b2c23600a06d2c73a4e2ee4928bc5ed6ba88d76fe0a58e011b0f02059f81b9bc04c9a12ff8b90100000000000000000000000000000000000000000000000000000000000000000000000000000000000000000000000000000000000000000000000000000000000000000000000000000000000000000000000000000000000000000000000000000000000000000000000000000000000000000000000000000000000000000000000000000000000000000000000000000000000000000000000000000000000000000000000000000000000000000000000000000000000000000000000000000000000000000000000000000000000000000000000000000000000000000000000000000000000000000000000000000000000000000000000000000000008302000001839896808303a9808203e880a00000000000000000000000000000000000000000000000000000000000000000880000000000000000f88bf8898001830927c0800ab83c6b626001ff6000526003601df36000526000600c60146001f5506000600060006000735649527a8464a86cae579719d347065f6eb27279620249f0fa1ca09f0af2eccdbad6f921c3854750deea020e93270fed475b7bc03f7d5e24bc9351a06cd774317f773c7398a84a7e669a11cf37d642803dfcdd3b68862b17c4ce1427c0",
                "transactions" : [
                    {
                        "data" : "0x6b626001ff6000526003601df36000526000600c60146001f5506000600060006000735649527a8464a86cae579719d347065f6eb27279620249f0fa",
                        "gasLimit" : "0x0927c0",
                        "gasPrice" : "0x01",
                        "nonce" : "0x00",
                        "r" : "0x9f0af2eccdbad6f921c3854750deea020e93270fed475b7bc03f7d5e24bc9351",
                        "s" : "0x6cd774317f773c7398a84a7e669a11cf37d642803dfcdd3b68862b17c4ce1427",
                        "to" : "",
                        "v" : "0x1c",
                        "value" : "0x0a"
                    }
                ],
                "uncleHeaders" : [
                ]
            }
        ],
        "genesisBlockHeader" : {
            "bloom" : "0x00000000000000000000000000000000000000000000000000000000000000000000000000000000000000000000000000000000000000000000000000000000000000000000000000000000000000000000000000000000000000000000000000000000000000000000000000000000000000000000000000000000000000000000000000000000000000000000000000000000000000000000000000000000000000000000000000000000000000000000000000000000000000000000000000000000000000000000000000000000000000000000000000000000000000000000000000000000000000000000000000000000000000000000000000000000",
            "coinbase" : "0x2adc25665018aa1fe0e6bc666dac8fc2697ff9ba",
            "difficulty" : "0x020000",
            "extraData" : "0x42",
            "gasLimit" : "0x989680",
            "gasUsed" : "0x00",
            "hash" : "0x35095b1590cfa9eed610b5b60904000ac9a8448da13600b40cc80c26458e7326",
            "mixHash" : "0x56e81f171bcc55a6ff8345e692c0f86e5b48e01b996cadc001622fb5e363b421",
            "nonce" : "0x0102030405060708",
            "number" : "0x00",
            "parentHash" : "0x0000000000000000000000000000000000000000000000000000000000000000",
            "receiptTrie" : "0x56e81f171bcc55a6ff8345e692c0f86e5b48e01b996cadc001622fb5e363b421",
            "stateRoot" : "0x17ca3d673553cbfcf5de4a99ea08088763bbf64aa67ae17a485f585bcc01d3f2",
            "timestamp" : "0x03b6",
            "transactionsTrie" : "0x56e81f171bcc55a6ff8345e692c0f86e5b48e01b996cadc001622fb5e363b421",
            "uncleHash" : "0x1dcc4de8dec75d7aab85b567b6ccd41ad312451b948a7413f0a142fd40d49347"
        },
        "genesisRLP" : "0xf901faf901f5a00000000000000000000000000000000000000000000000000000000000000000a01dcc4de8dec75d7aab85b567b6ccd41ad312451b948a7413f0a142fd40d49347942adc25665018aa1fe0e6bc666dac8fc2697ff9baa017ca3d673553cbfcf5de4a99ea08088763bbf64aa67ae17a485f585bcc01d3f2a056e81f171bcc55a6ff8345e692c0f86e5b48e01b996cadc001622fb5e363b421a056e81f171bcc55a6ff8345e692c0f86e5b48e01b996cadc001622fb5e363b421b9010000000000000000000000000000000000000000000000000000000000000000000000000000000000000000000000000000000000000000000000000000000000000000000000000000000000000000000000000000000000000000000000000000000000000000000000000000000000000000000000000000000000000000000000000000000000000000000000000000000000000000000000000000000000000000000000000000000000000000000000000000000000000000000000000000000000000000000000000000000000000000000000000000000000000000000000000000000000000000000000000000000000000000000000000000000000830200008083989680808203b642a056e81f171bcc55a6ff8345e692c0f86e5b48e01b996cadc001622fb5e363b421880102030405060708c0c0",
        "lastblockhash" : "0x156bd56c5e50ea4bc12cfc4c4985231fc9b8f7651bc0b80b6a0b058109026812",
        "network" : "Constantinople",
        "postState" : {
            "0x2adc25665018aa1fe0e6bc666dac8fc2697ff9ba" : {
                "balance" : "0x1bc16d674ecba980",
                "code" : "0x",
                "nonce" : "0x00",
                "storage" : {
                }
            },
            "0x5649527a8464a86cae579719d347065f6eb27279" : {
                "balance" : "0x01",
                "code" : "0x6001ff",
                "nonce" : "0x01",
                "storage" : {
                }
            },
            "0x6295ee1b4f6dd65047762f924ecd367c17eabf8f" : {
                "balance" : "0x09",
                "code" : "0x",
                "nonce" : "0x02",
                "storage" : {
                }
            },
            "0xa94f5374fce5edbc8e2a8697c15331677e6ebf0b" : {
                "balance" : "0xe8d4a16676",
                "code" : "0x",
                "nonce" : "0x01",
                "storage" : {
                }
            }
        },
        "pre" : {
            "0xa94f5374fce5edbc8e2a8697c15331677e6ebf0b" : {
                "balance" : "0xe8d4a51000",
                "code" : "0x",
                "nonce" : "0x00",
                "storage" : {
                }
            }
        },
        "sealEngine" : "NoProof"
    },
    "CREATE2_Suicide_d9g0v0_ConstantinopleFix" : {
        "_info" : {
            "comment" : "CREATE2 suicide with/without value, CREATE2 sucide to itself   +  this cases during init of the CREATE2",
            "filledwith" : "testeth 1.8.0-12+commit.9078d51d.dirty",
            "lllcversion" : "Version: 0.5.14-develop.2021.6.15+commit.401d5358.Linux.g++",
            "source" : "src/LegacyTests/Constantinople/BlockchainTestsFiller/GeneralStateTests/stCreate2/CREATE2_Suicide_d9g0v0Filler.json",
            "sourceHash" : "c89923e3caa6f52916d9eaf80415c4972f46894e5f6380ab0ca858978bb8b3b7"
        },
        "blocks" : [
            {
                "blockHeader" : {
                    "bloom" : "0x00000000000000000000000000000000000000000000000000000000000000000000000000000000000000000000000000000000000000000000000000000000000000000000000000000000000000000000000000000000000000000000000000000000000000000000000000000000000000000000000000000000000000000000000000000000000000000000000000000000000000000000000000000000000000000000000000000000000000000000000000000000000000000000000000000000000000000000000000000000000000000000000000000000000000000000000000000000000000000000000000000000000000000000000000000000",
                    "coinbase" : "0x2adc25665018aa1fe0e6bc666dac8fc2697ff9ba",
                    "difficulty" : "0x020000",
                    "extraData" : "0x",
                    "gasLimit" : "0x989680",
                    "gasUsed" : "0x03a980",
                    "hash" : "0x156bd56c5e50ea4bc12cfc4c4985231fc9b8f7651bc0b80b6a0b058109026812",
                    "mixHash" : "0x0000000000000000000000000000000000000000000000000000000000000000",
                    "nonce" : "0x0000000000000000",
                    "number" : "0x01",
                    "parentHash" : "0x35095b1590cfa9eed610b5b60904000ac9a8448da13600b40cc80c26458e7326",
                    "receiptTrie" : "0x6d2c73a4e2ee4928bc5ed6ba88d76fe0a58e011b0f02059f81b9bc04c9a12ff8",
                    "stateRoot" : "0xf3f6270dcbfdf3939922f43c624be604f33c328721ddc756ffb1acf9f366a0d7",
                    "timestamp" : "0x03e8",
                    "transactionsTrie" : "0xb84fa5d58e70b8393b71b40a3d352180c1d504b0597faaae5726a0a7b2c23600",
                    "uncleHash" : "0x1dcc4de8dec75d7aab85b567b6ccd41ad312451b948a7413f0a142fd40d49347"
                },
                "rlp" : "0xf90289f901f8a035095b1590cfa9eed610b5b60904000ac9a8448da13600b40cc80c26458e7326a01dcc4de8dec75d7aab85b567b6ccd41ad312451b948a7413f0a142fd40d49347942adc25665018aa1fe0e6bc666dac8fc2697ff9baa0f3f6270dcbfdf3939922f43c624be604f33c328721ddc756ffb1acf9f366a0d7a0b84fa5d58e70b8393b71b40a3d352180c1d504b0597faaae5726a0a7b2c23600a06d2c73a4e2ee4928bc5ed6ba88d76fe0a58e011b0f02059f81b9bc04c9a12ff8b90100000000000000000000000000000000000000000000000000000000000000000000000000000000000000000000000000000000000000000000000000000000000000000000000000000000000000000000000000000000000000000000000000000000000000000000000000000000000000000000000000000000000000000000000000000000000000000000000000000000000000000000000000000000000000000000000000000000000000000000000000000000000000000000000000000000000000000000000000000000000000000000000000000000000000000000000000000000000000000000000000000000000000000000000000000000008302000001839896808303a9808203e880a00000000000000000000000000000000000000000000000000000000000000000880000000000000000f88bf8898001830927c0800ab83c6b626001ff6000526003601df36000526000600c60146001f5506000600060006000735649527a8464a86cae579719d347065f6eb27279620249f0fa1ca09f0af2eccdbad6f921c3854750deea020e93270fed475b7bc03f7d5e24bc9351a06cd774317f773c7398a84a7e669a11cf37d642803dfcdd3b68862b17c4ce1427c0",
                "transactions" : [
                    {
                        "data" : "0x6b626001ff6000526003601df36000526000600c60146001f5506000600060006000735649527a8464a86cae579719d347065f6eb27279620249f0fa",
                        "gasLimit" : "0x0927c0",
                        "gasPrice" : "0x01",
                        "nonce" : "0x00",
                        "r" : "0x9f0af2eccdbad6f921c3854750deea020e93270fed475b7bc03f7d5e24bc9351",
                        "s" : "0x6cd774317f773c7398a84a7e669a11cf37d642803dfcdd3b68862b17c4ce1427",
                        "to" : "",
                        "v" : "0x1c",
                        "value" : "0x0a"
                    }
                ],
                "uncleHeaders" : [
                ]
            }
        ],
        "genesisBlockHeader" : {
            "bloom" : "0x00000000000000000000000000000000000000000000000000000000000000000000000000000000000000000000000000000000000000000000000000000000000000000000000000000000000000000000000000000000000000000000000000000000000000000000000000000000000000000000000000000000000000000000000000000000000000000000000000000000000000000000000000000000000000000000000000000000000000000000000000000000000000000000000000000000000000000000000000000000000000000000000000000000000000000000000000000000000000000000000000000000000000000000000000000000",
            "coinbase" : "0x2adc25665018aa1fe0e6bc666dac8fc2697ff9ba",
            "difficulty" : "0x020000",
            "extraData" : "0x42",
            "gasLimit" : "0x989680",
            "gasUsed" : "0x00",
            "hash" : "0x35095b1590cfa9eed610b5b60904000ac9a8448da13600b40cc80c26458e7326",
            "mixHash" : "0x56e81f171bcc55a6ff8345e692c0f86e5b48e01b996cadc001622fb5e363b421",
            "nonce" : "0x0102030405060708",
            "number" : "0x00",
            "parentHash" : "0x0000000000000000000000000000000000000000000000000000000000000000",
            "receiptTrie" : "0x56e81f171bcc55a6ff8345e692c0f86e5b48e01b996cadc001622fb5e363b421",
            "stateRoot" : "0x17ca3d673553cbfcf5de4a99ea08088763bbf64aa67ae17a485f585bcc01d3f2",
            "timestamp" : "0x03b6",
            "transactionsTrie" : "0x56e81f171bcc55a6ff8345e692c0f86e5b48e01b996cadc001622fb5e363b421",
            "uncleHash" : "0x1dcc4de8dec75d7aab85b567b6ccd41ad312451b948a7413f0a142fd40d49347"
        },
        "genesisRLP" : "0xf901faf901f5a00000000000000000000000000000000000000000000000000000000000000000a01dcc4de8dec75d7aab85b567b6ccd41ad312451b948a7413f0a142fd40d49347942adc25665018aa1fe0e6bc666dac8fc2697ff9baa017ca3d673553cbfcf5de4a99ea08088763bbf64aa67ae17a485f585bcc01d3f2a056e81f171bcc55a6ff8345e692c0f86e5b48e01b996cadc001622fb5e363b421a056e81f171bcc55a6ff8345e692c0f86e5b48e01b996cadc001622fb5e363b421b9010000000000000000000000000000000000000000000000000000000000000000000000000000000000000000000000000000000000000000000000000000000000000000000000000000000000000000000000000000000000000000000000000000000000000000000000000000000000000000000000000000000000000000000000000000000000000000000000000000000000000000000000000000000000000000000000000000000000000000000000000000000000000000000000000000000000000000000000000000000000000000000000000000000000000000000000000000000000000000000000000000000000000000000000000000000000830200008083989680808203b642a056e81f171bcc55a6ff8345e692c0f86e5b48e01b996cadc001622fb5e363b421880102030405060708c0c0",
        "lastblockhash" : "0x156bd56c5e50ea4bc12cfc4c4985231fc9b8f7651bc0b80b6a0b058109026812",
        "network" : "ConstantinopleFix",
        "postState" : {
            "0x2adc25665018aa1fe0e6bc666dac8fc2697ff9ba" : {
                "balance" : "0x1bc16d674ecba980",
                "code" : "0x",
                "nonce" : "0x00",
                "storage" : {
                }
            },
            "0x5649527a8464a86cae579719d347065f6eb27279" : {
                "balance" : "0x01",
                "code" : "0x6001ff",
                "nonce" : "0x01",
                "storage" : {
                }
            },
            "0x6295ee1b4f6dd65047762f924ecd367c17eabf8f" : {
                "balance" : "0x09",
                "code" : "0x",
                "nonce" : "0x02",
                "storage" : {
                }
            },
            "0xa94f5374fce5edbc8e2a8697c15331677e6ebf0b" : {
                "balance" : "0xe8d4a16676",
                "code" : "0x",
                "nonce" : "0x01",
                "storage" : {
                }
            }
        },
        "pre" : {
            "0xa94f5374fce5edbc8e2a8697c15331677e6ebf0b" : {
                "balance" : "0xe8d4a51000",
                "code" : "0x",
                "nonce" : "0x00",
                "storage" : {
                }
            }
        },
        "sealEngine" : "NoProof"
    }
}