{
    "wrongBlobhashVersion_d0g0v0_Cancun" : {
        "_info" : {
            "comment" : "BLOB001",
            "filling-rpc-server" : "Nimbus-t8n 0.1.2",
            "filling-tool-version" : "retesteth-0.3.1-shanghai+commit.9de66016.Linux.g++",
            "generatedTestHash" : "6913887841d864c33fe56990f776623928ab33ea6804df04599bad4077aca60d",
            "lllcversion" : "Version: 0.5.14-develop.2023.5.21+commit.a096d7a9.mod.Linux.g++",
            "solidity" : "Version: 0.8.17+commit.8df45f5f.Linux.g++",
            "source" : "src/EIPTestsFiller/StateTests/stEIP4844-blobtransactions/wrongBlobhashVersionFiller.yml",
            "sourceHash" : "04010e664df0ebc50407c58cf1aef85c1e5cfc1f2caca0d43679219762f58de4"
        },
        "blocks" : [
            {
                "expectException" : "TR_BLOBVERSION_INVALID",
                "rlp" : "0xf90333f90218a0e23dba69820ebea733f6805e4e40ce2a7a45cf1c863cccffd69d815d32e7602fa01dcc4de8dec75d7aab85b567b6ccd41ad312451b948a7413f0a142fd40d49347942adc25665018aa1fe0e6bc666dac8fc2697ff9baa0668817abd521eb1401e0b8e52014bf6e36346dc786bf9084f3f03ac09b2ffaa2a056e81f171bcc55a6ff8345e692c0f86e5b48e01b996cadc001622fb5e363b421a056e81f171bcc55a6ff8345e692c0f86e5b48e01b996cadc001622fb5e363b421b90100000000000000000000000000000000000000000000000000000000000000000000000000000000000000000000000000000000000000000000000000000000000000000000000000000000000000000000000000000000000000000000000000000000000000000000000000000000000000000000000000000000000000000000000000000000000000000000000000000000000000000000000000000000000000000000000000000000000000000000000000000000000000000000000000000000000000000000000000000000000000000000000000000000000000000000000000000000000000000000000000000000000000000000000000000000008001851000000000808203e800a0000000000000000000000000000000000000000000000000000000000002000088000000000000000007a056e81f171bcc55a6ff8345e692c0f86e5b48e01b996cadc001622fb5e363b4218080f90113b9011003f9010c01800285012a05f200833d090094095e7baea6a6c7c4c2dfeb977efac326af552d87830186a000f85bf85994095e7baea6a6c7c4c2dfeb977efac326af552d87f842a00000000000000000000000000000000000000000000000000000000000000000a000000000000000000000000000000000000000000000000000000000000000010af842a001a915e4d060149eb4365960e6a7a45f334393093061116b197e3240065ff2d8a045a915e4d060149eb4365960e6a7a45f334393093061116b197e3240065ff2d880a0daa1a9e47f815525ac6e11929160073fea1abf7acee286d4858fd4b1d9611fcda054d245d4a23cf599e6a8611692fdeab9be366108af5ba72554062346fa41a55ac0c0",
                "transactionSequence" : [
                    {
                        "exception" : "TR_BLOBVERSION_INVALID",
                        "rawBytes" : "0x03f9010c01800285012a05f200833d090094095e7baea6a6c7c4c2dfeb977efac326af552d87830186a000f85bf85994095e7baea6a6c7c4c2dfeb977efac326af552d87f842a00000000000000000000000000000000000000000000000000000000000000000a000000000000000000000000000000000000000000000000000000000000000010af842a001a915e4d060149eb4365960e6a7a45f334393093061116b197e3240065ff2d8a045a915e4d060149eb4365960e6a7a45f334393093061116b197e3240065ff2d880a0daa1a9e47f815525ac6e11929160073fea1abf7acee286d4858fd4b1d9611fcda054d245d4a23cf599e6a8611692fdeab9be366108af5ba72554062346fa41a55a",
                        "valid" : "false"
                    }
                ]
            }
        ],
        "genesisBlockHeader" : {
            "baseFeePerGas" : "0x08",
            "bloom" : "0x00000000000000000000000000000000000000000000000000000000000000000000000000000000000000000000000000000000000000000000000000000000000000000000000000000000000000000000000000000000000000000000000000000000000000000000000000000000000000000000000000000000000000000000000000000000000000000000000000000000000000000000000000000000000000000000000000000000000000000000000000000000000000000000000000000000000000000000000000000000000000000000000000000000000000000000000000000000000000000000000000000000000000000000000000000000",
            "coinbase" : "0x2adc25665018aa1fe0e6bc666dac8fc2697ff9ba",
            "dataGasUsed" : "0x2000",
            "difficulty" : "0x00",
            "excessDataGas" : "0x1000",
            "extraData" : "0x00",
            "gasLimit" : "0x1000000000",
            "gasUsed" : "0x00",
            "hash" : "0xe23dba69820ebea733f6805e4e40ce2a7a45cf1c863cccffd69d815d32e7602f",
            "mixHash" : "0x0000000000000000000000000000000000000000000000000000000000020000",
            "nonce" : "0x0000000000000000",
            "number" : "0x00",
            "parentHash" : "0x0000000000000000000000000000000000000000000000000000000000000000",
            "receiptTrie" : "0x56e81f171bcc55a6ff8345e692c0f86e5b48e01b996cadc001622fb5e363b421",
            "stateRoot" : "0x668817abd521eb1401e0b8e52014bf6e36346dc786bf9084f3f03ac09b2ffaa2",
            "timestamp" : "0x00",
            "transactionsTrie" : "0x56e81f171bcc55a6ff8345e692c0f86e5b48e01b996cadc001622fb5e363b421",
            "uncleHash" : "0x1dcc4de8dec75d7aab85b567b6ccd41ad312451b948a7413f0a142fd40d49347",
            "withdrawalsRoot" : "0x56e81f171bcc55a6ff8345e692c0f86e5b48e01b996cadc001622fb5e363b421"
        },
        "genesisRLP" : "0xf90220f9021aa00000000000000000000000000000000000000000000000000000000000000000a01dcc4de8dec75d7aab85b567b6ccd41ad312451b948a7413f0a142fd40d49347942adc25665018aa1fe0e6bc666dac8fc2697ff9baa0668817abd521eb1401e0b8e52014bf6e36346dc786bf9084f3f03ac09b2ffaa2a056e81f171bcc55a6ff8345e692c0f86e5b48e01b996cadc001622fb5e363b421a056e81f171bcc55a6ff8345e692c0f86e5b48e01b996cadc001622fb5e363b421b90100000000000000000000000000000000000000000000000000000000000000000000000000000000000000000000000000000000000000000000000000000000000000000000000000000000000000000000000000000000000000000000000000000000000000000000000000000000000000000000000000000000000000000000000000000000000000000000000000000000000000000000000000000000000000000000000000000000000000000000000000000000000000000000000000000000000000000000000000000000000000000000000000000000000000000000000000000000000000000000000000000000000000000000000000000000008080851000000000808000a0000000000000000000000000000000000000000000000000000000000002000088000000000000000008a056e81f171bcc55a6ff8345e692c0f86e5b48e01b996cadc001622fb5e363b421822000821000c0c0c0",
        "lastblockhash" : "0xe23dba69820ebea733f6805e4e40ce2a7a45cf1c863cccffd69d815d32e7602f",
        "network" : "Cancun",
        "postState" : {
            "0x095e7baea6a6c7c4c2dfeb977efac326af552d87" : {
                "balance" : "0x0de0b6b3a7640000",
                "code" : "0x60004960005500",
                "nonce" : "0x00",
                "storage" : {
                }
            },
            "0xa94f5374fce5edbc8e2a8697c15331677e6ebf0b" : {
                "balance" : "0x0de0b6b3a7640000",
                "code" : "0x",
                "nonce" : "0x00",
                "storage" : {
                }
            }
        },
        "pre" : {
            "0x095e7baea6a6c7c4c2dfeb977efac326af552d87" : {
                "balance" : "0x0de0b6b3a7640000",
                "code" : "0x60004960005500",
                "nonce" : "0x00",
                "storage" : {
                }
            },
            "0xa94f5374fce5edbc8e2a8697c15331677e6ebf0b" : {
                "balance" : "0x0de0b6b3a7640000",
                "code" : "0x",
                "nonce" : "0x00",
                "storage" : {
                }
            }
        },
        "sealEngine" : "NoProof"
    }
}