{
    "CALLCODEEcrecover0_0input" : {
        "_info" : {
            "comment" : "",
            "filling-rpc-server" : "evm version 1.13.13-unstable-034bc466-20240219",
            "filling-tool-version" : "retesteth-0.3.2-cancun+commit.014a68a5.Linux.g++",
            "generatedTestHash" : "833ba584a4d6ef611e0d6cb3f6935782744f50ef69b5071ffafc040807a3c2b5",
            "lllcversion" : "Version: 0.5.14-develop.2023.7.11+commit.c58ab2c6.mod.Linux.g++",
            "solidity" : "Version: 0.8.21+commit.d9974bed.Linux.g++",
            "source" : "src/GeneralStateTestsFiller/stPreCompiledContracts2/CALLCODEEcrecover0_0inputFiller.json",
            "sourceHash" : "a5795aae0f3b7f99aab1a90680880f2cfa8283f32e723bb2d358837506dad6bc"
        },
        "env" : {
            "currentBaseFee" : "0x0a",
            "currentCoinbase" : "0x2adc25665018aa1fe0e6bc666dac8fc2697ff9ba",
            "currentDifficulty" : "0x020000",
            "currentExcessBlobGas" : "0x00",
            "currentGasLimit" : "0x989680",
            "currentNumber" : "0x01",
            "currentRandom" : "0x0000000000000000000000000000000000000000000000000000000000020000",
            "currentTimestamp" : "0x03e8"
        },
        "post" : {
            "Berlin" : [
                {
                    "hash" : "0x575d4ae27c6e6ea0ca2a17ca2fa52d8a6a35b598b68aecf6bbd6f4c96f5f71f4",
                    "indexes" : {
                        "data" : 0,
                        "gas" : 0,
                        "value" : 0
                    },
                    "logs" : "0x1dcc4de8dec75d7aab85b567b6ccd41ad312451b948a7413f0a142fd40d49347",
                    "txbytes" : "0xf863800a8337ba9094095e7baea6a6c7c4c2dfeb977efac326af552d87830186a0801ba06a993fe85c28a258b1f8de2e2821e0fd3fcbd10fa9112a637a941ba0d449fe6ba06990d0aadd5b2ae11998bfc220b1abf8b04b0500b91c500748aa6b50daf4c250"
                }
            ],
            "Cancun" : [
                {
                    "hash" : "0x57e71d96cbcc56ec43121b92a85723be23c4fecf1730cbf1256b12bcac2d7d1a",
                    "indexes" : {
                        "data" : 0,
                        "gas" : 0,
                        "value" : 0
                    },
                    "logs" : "0x1dcc4de8dec75d7aab85b567b6ccd41ad312451b948a7413f0a142fd40d49347",
                    "txbytes" : "0xf863800a8337ba9094095e7baea6a6c7c4c2dfeb977efac326af552d87830186a0801ba06a993fe85c28a258b1f8de2e2821e0fd3fcbd10fa9112a637a941ba0d449fe6ba06990d0aadd5b2ae11998bfc220b1abf8b04b0500b91c500748aa6b50daf4c250"
                }
            ],
            "Istanbul" : [
                {
                    "hash" : "0x7b8bfb138ce21b6e6bcd3e8b0ebc4919fc34c7e5c81efc91ffc449123f6c261c",
                    "indexes" : {
                        "data" : 0,
                        "gas" : 0,
                        "value" : 0
                    },
                    "logs" : "0x1dcc4de8dec75d7aab85b567b6ccd41ad312451b948a7413f0a142fd40d49347",
                    "txbytes" : "0xf863800a8337ba9094095e7baea6a6c7c4c2dfeb977efac326af552d87830186a0801ba06a993fe85c28a258b1f8de2e2821e0fd3fcbd10fa9112a637a941ba0d449fe6ba06990d0aadd5b2ae11998bfc220b1abf8b04b0500b91c500748aa6b50daf4c250"
                }
            ],
            "London" : [
                {
                    "hash" : "0x98d98042ea37bfed6c21f62c24e7ed8487bf80208f390c35a547c12bb435dd83",
                    "indexes" : {
                        "data" : 0,
                        "gas" : 0,
                        "value" : 0
                    },
                    "logs" : "0x1dcc4de8dec75d7aab85b567b6ccd41ad312451b948a7413f0a142fd40d49347",
                    "txbytes" : "0xf863800a8337ba9094095e7baea6a6c7c4c2dfeb977efac326af552d87830186a0801ba06a993fe85c28a258b1f8de2e2821e0fd3fcbd10fa9112a637a941ba0d449fe6ba06990d0aadd5b2ae11998bfc220b1abf8b04b0500b91c500748aa6b50daf4c250"
                }
            ],
            "Paris" : [
                {
                    "hash" : "0x98d98042ea37bfed6c21f62c24e7ed8487bf80208f390c35a547c12bb435dd83",
                    "indexes" : {
                        "data" : 0,
                        "gas" : 0,
                        "value" : 0
                    },
                    "logs" : "0x1dcc4de8dec75d7aab85b567b6ccd41ad312451b948a7413f0a142fd40d49347",
                    "txbytes" : "0xf863800a8337ba9094095e7baea6a6c7c4c2dfeb977efac326af552d87830186a0801ba06a993fe85c28a258b1f8de2e2821e0fd3fcbd10fa9112a637a941ba0d449fe6ba06990d0aadd5b2ae11998bfc220b1abf8b04b0500b91c500748aa6b50daf4c250"
                }
            ],
            "Shanghai" : [
                {
                    "hash" : "0x98d98042ea37bfed6c21f62c24e7ed8487bf80208f390c35a547c12bb435dd83",
                    "indexes" : {
                        "data" : 0,
                        "gas" : 0,
                        "value" : 0
                    },
                    "logs" : "0x1dcc4de8dec75d7aab85b567b6ccd41ad312451b948a7413f0a142fd40d49347",
                    "txbytes" : "0xf863800a8337ba9094095e7baea6a6c7c4c2dfeb977efac326af552d87830186a0801ba06a993fe85c28a258b1f8de2e2821e0fd3fcbd10fa9112a637a941ba0d449fe6ba06990d0aadd5b2ae11998bfc220b1abf8b04b0500b91c500748aa6b50daf4c250"
                }
            ]
        },
        "pre" : {
            "0x000f3df6d732807ef1319fb7b8bb8522d0beac02" : {
                "balance" : "0x00",
                "code" : "0x3373fffffffffffffffffffffffffffffffffffffffe14604d57602036146024575f5ffd5b5f35801560495762001fff810690815414603c575f5ffd5b62001fff01545f5260205ff35b5f5ffd5b62001fff42064281555f359062001fff015500",
                "nonce" : "0x01",
                "storage" : {
                }
            },
            "0x095e7baea6a6c7c4c2dfeb977efac326af552d87" : {
                "balance" : "0x01312d00",
                "code" : "0x602060806080600060006001620493e0f260025560a060020a6080510660005500",
                "nonce" : "0x00",
                "storage" : {
                }
            },
            "0xa94f5374fce5edbc8e2a8697c15331677e6ebf0b" : {
                "balance" : "0x0de0b6b3a7640000",
                "code" : "0x",
                "nonce" : "0x00",
                "storage" : {
                }
            }
        },
        "transaction" : {
            "data" : [
                "0x"
            ],
            "gasLimit" : [
                "0x37ba90"
            ],
            "gasPrice" : "0x0a",
            "nonce" : "0x00",
            "secretKey" : "0x45a915e4d060149eb4365960e6a7a45f334393093061116b197e3240065ff2d8",
            "sender" : "0xa94f5374fce5edbc8e2a8697c15331677e6ebf0b",
            "to" : "0x095e7baea6a6c7c4c2dfeb977efac326af552d87",
            "value" : [
                "0x0186a0"
            ]
        }
    }
}