{
    "dataTx2_EIP150" : {
        "_info" : {
            "comment" : "",
            "filledwith" : "cpp-1.3.0+commit.e5f1bd19.Linux.g++",
            "source" : "/src/BlockchainTestsFiller/bcValidBlockTest/dataTx2Filler.json"
        },
        "blocks" : [
            {
                "blockHeader" : {
                    "bloom" : "0x00000000000000000000000000000000000000000000000000000000000000000000000000000000000000000000000000000000000000000000000000000000000000000000000000000000000000000000000000000000000000000000000000000000000000000000000000000000000000000000000000000000000000000000000000000000000000000000000000000000000000000000000000000000000000000000000000000000000000000000000000000000000000000000000000000000000000000000000000000000000000000000000000000000000000000000000000000000000000000000000000000000000000000000000000000000",
                    "coinbase" : "0x8888f1f195afa192cfee860698584c030f4c9db1",
                    "difficulty" : "0x020000",
                    "extraData" : "",
                    "gasLimit" : "0x2fefba",
                    "gasUsed" : "0x0186a0",
                    "hash" : "0x0bc43878af7d6ce526b45cdf83582dd44b3139697e1514ca189a0eb0c5bc01cc",
                    "mixHash" : "0x26fbbd04b306c0e02fd961e78649f3f79a85d755cc16c84c1fbd1c1ce83f4430",
                    "nonce" : "0x65a81f8f97d6ac5c",
                    "number" : "0x01",
                    "parentHash" : "0x636aff25807a6331b7c9a8e4c984f3f8e38d7608adf34ee801f5265ca4fe19ac",
                    "receiptTrie" : "0x1e15fe9ec2526cd68e25bff30472a5bdccf188d14d1c06476045c25a6d537ad3",
                    "stateRoot" : "0xb42cbb6b8664984e9a324507dfb1cf783ebfa169f91fbd9efeb39cba42bd9895",
                    "timestamp" : "0x595635ad",
                    "transactionsTrie" : "0x02c56753744d1f68550540c286b9b349d3cfca065bf1a087da62ac06057ff7f8",
                    "uncleHash" : "0x1dcc4de8dec75d7aab85b567b6ccd41ad312451b948a7413f0a142fd40d49347"
                },
                "rlp" : "0xf90400f901faa0636aff25807a6331b7c9a8e4c984f3f8e38d7608adf34ee801f5265ca4fe19aca01dcc4de8dec75d7aab85b567b6ccd41ad312451b948a7413f0a142fd40d49347948888f1f195afa192cfee860698584c030f4c9db1a0b42cbb6b8664984e9a324507dfb1cf783ebfa169f91fbd9efeb39cba42bd9895a002c56753744d1f68550540c286b9b349d3cfca065bf1a087da62ac06057ff7f8a01e15fe9ec2526cd68e25bff30472a5bdccf188d14d1c06476045c25a6d537ad3b90100000000000000000000000000000000000000000000000000000000000000000000000000000000000000000000000000000000000000000000000000000000000000000000000000000000000000000000000000000000000000000000000000000000000000000000000000000000000000000000000000000000000000000000000000000000000000000000000000000000000000000000000000000000000000000000000000000000000000000000000000000000000000000000000000000000000000000000000000000000000000000000000000000000000000000000000000000000000000000000000000000000000000000000000000000000008302000001832fefba830186a084595635ad80a026fbbd04b306c0e02fd961e78649f3f79a85d755cc16c84c1fbd1c1ce83f44308865a81f8f97d6ac5cf901fff901fc8032830186a08080b901ae60056013565b6101918061001d6000396000f35b3360008190555056006001600060e060020a6000350480630a874df61461003a57806341c0e1b514610058578063a02b161e14610066578063dbbdf0831461007757005b610045600435610149565b80600160a060020a031660005260206000f35b610060610161565b60006000f35b6100716004356100d4565b60006000f35b61008560043560243561008b565b60006000f35b600054600160a060020a031632600160a060020a031614156100ac576100b1565b6100d0565b8060018360005260205260406000208190555081600060005260206000a15b5050565b600054600160a060020a031633600160a060020a031614158015610118575033600160a060020a0316600182600052602052604060002054600160a060020a031614155b61012157610126565b610146565b600060018260005260205260406000208190555080600060005260206000a15b50565b60006001826000526020526040600020549050919050565b600054600160a060020a031633600160a060020a0316146101815761018f565b600054600160a060020a0316ff5b561ba0468a915f087692bb9be503831a3dfef2cf9c8dee26deb40ff2ec99e8d22665aea05cedae0810c3851ecd1004bfdbfe6ddc7753c2d665993bb01ce75af7857b13dcc0",
                "transactions" : [
                    {
                        "data" : "0x60056013565b6101918061001d6000396000f35b3360008190555056006001600060e060020a6000350480630a874df61461003a57806341c0e1b514610058578063a02b161e14610066578063dbbdf0831461007757005b610045600435610149565b80600160a060020a031660005260206000f35b610060610161565b60006000f35b6100716004356100d4565b60006000f35b61008560043560243561008b565b60006000f35b600054600160a060020a031632600160a060020a031614156100ac576100b1565b6100d0565b8060018360005260205260406000208190555081600060005260206000a15b5050565b600054600160a060020a031633600160a060020a031614158015610118575033600160a060020a0316600182600052602052604060002054600160a060020a031614155b61012157610126565b610146565b600060018260005260205260406000208190555080600060005260206000a15b50565b60006001826000526020526040600020549050919050565b600054600160a060020a031633600160a060020a0316146101815761018f565b600054600160a060020a0316ff5b56",
                        "gasLimit" : "0x0186a0",
                        "gasPrice" : "0x32",
                        "nonce" : "0x00",
                        "r" : "0x468a915f087692bb9be503831a3dfef2cf9c8dee26deb40ff2ec99e8d22665ae",
                        "s" : "0x5cedae0810c3851ecd1004bfdbfe6ddc7753c2d665993bb01ce75af7857b13dc",
                        "to" : "",
                        "v" : "0x1b",
                        "value" : "0x00"
                    }
                ],
                "uncleHeaders" : [
                ]
            }
        ],
        "genesisBlockHeader" : {
            "bloom" : "0x00000000000000000000000000000000000000000000000000000000000000000000000000000000000000000000000000000000000000000000000000000000000000000000000000000000000000000000000000000000000000000000000000000000000000000000000000000000000000000000000000000000000000000000000000000000000000000000000000000000000000000000000000000000000000000000000000000000000000000000000000000000000000000000000000000000000000000000000000000000000000000000000000000000000000000000000000000000000000000000000000000000000000000000000000000000",
            "coinbase" : "0x8888f1f195afa192cfee860698584c030f4c9db1",
            "difficulty" : "0x020000",
            "extraData" : "0x42",
            "gasLimit" : "0x2fefd8",
            "gasUsed" : "0x64",
            "hash" : "0x636aff25807a6331b7c9a8e4c984f3f8e38d7608adf34ee801f5265ca4fe19ac",
            "mixHash" : "0x56e81f171bcc55a6ff8345e692c0f86e5b48e01b996cadc001622fb5e363b421",
            "nonce" : "0x0102030405060708",
            "number" : "0x00",
            "parentHash" : "0x0000000000000000000000000000000000000000000000000000000000000000",
            "receiptTrie" : "0x56e81f171bcc55a6ff8345e692c0f86e5b48e01b996cadc001622fb5e363b421",
            "stateRoot" : "0xcafd881ab193703b83816c49ff6c2bf6ba6f464a1be560c42106128c8dbc35e7",
            "timestamp" : "0x54c98c81",
            "transactionsTrie" : "0x56e81f171bcc55a6ff8345e692c0f86e5b48e01b996cadc001622fb5e363b421",
            "uncleHash" : "0x1dcc4de8dec75d7aab85b567b6ccd41ad312451b948a7413f0a142fd40d49347"
        },
        "genesisRLP" : "0xf901fcf901f7a00000000000000000000000000000000000000000000000000000000000000000a01dcc4de8dec75d7aab85b567b6ccd41ad312451b948a7413f0a142fd40d49347948888f1f195afa192cfee860698584c030f4c9db1a0cafd881ab193703b83816c49ff6c2bf6ba6f464a1be560c42106128c8dbc35e7a056e81f171bcc55a6ff8345e692c0f86e5b48e01b996cadc001622fb5e363b421a056e81f171bcc55a6ff8345e692c0f86e5b48e01b996cadc001622fb5e363b421b90100000000000000000000000000000000000000000000000000000000000000000000000000000000000000000000000000000000000000000000000000000000000000000000000000000000000000000000000000000000000000000000000000000000000000000000000000000000000000000000000000000000000000000000000000000000000000000000000000000000000000000000000000000000000000000000000000000000000000000000000000000000000000000000000000000000000000000000000000000000000000000000000000000000000000000000000000000000000000000000000000000000000000000000000000000000008302000080832fefd8648454c98c8142a056e81f171bcc55a6ff8345e692c0f86e5b48e01b996cadc001622fb5e363b421880102030405060708c0c0",
        "lastblockhash" : "0x0bc43878af7d6ce526b45cdf83582dd44b3139697e1514ca189a0eb0c5bc01cc",
        "network" : "EIP150",
        "postState" : {
            "0x8888f1f195afa192cfee860698584c030f4c9db1" : {
                "balance" : "0x4563918245404b40",
                "code" : "",
                "nonce" : "0x00",
                "storage" : {
                }
            },
            "0xa94f5374fce5edbc8e2a8697c15331677e6ebf0b" : {
                "balance" : "0x0253bf98c0",
                "code" : "",
                "nonce" : "0x01",
                "storage" : {
                }
            }
        },
        "pre" : {
            "0xa94f5374fce5edbc8e2a8697c15331677e6ebf0b" : {
                "balance" : "0x02540be400",
                "code" : "",
                "nonce" : "0x00",
                "storage" : {
                }
            }
        }
    },
    "dataTx2_EIP158" : {
        "_info" : {
            "comment" : "",
            "filledwith" : "cpp-1.3.0+commit.e5f1bd19.Linux.g++",
            "source" : "/src/BlockchainTestsFiller/bcValidBlockTest/dataTx2Filler.json"
        },
        "blocks" : [
            {
                "blockHeader" : {
                    "bloom" : "0x00000000000000000000000000000000000000000000000000000000000000000000000000000000000000000000000000000000000000000000000000000000000000000000000000000000000000000000000000000000000000000000000000000000000000000000000000000000000000000000000000000000000000000000000000000000000000000000000000000000000000000000000000000000000000000000000000000000000000000000000000000000000000000000000000000000000000000000000000000000000000000000000000000000000000000000000000000000000000000000000000000000000000000000000000000000",
                    "coinbase" : "0x8888f1f195afa192cfee860698584c030f4c9db1",
                    "difficulty" : "0x020000",
                    "extraData" : "",
                    "gasLimit" : "0x2fefba",
                    "gasUsed" : "0x0186a0",
                    "hash" : "0x5f3b874f8e0d12d10a03a8b9a38efb54596102c9534e5512d39b883d98710980",
                    "mixHash" : "0x77b6959ecfdd50aad112e6a5a9eaf9f9acc3fce7bef70110fbeb1252ad6cf278",
                    "nonce" : "0x5ba21d7daff5c157",
                    "number" : "0x01",
                    "parentHash" : "0x636aff25807a6331b7c9a8e4c984f3f8e38d7608adf34ee801f5265ca4fe19ac",
                    "receiptTrie" : "0x1e15fe9ec2526cd68e25bff30472a5bdccf188d14d1c06476045c25a6d537ad3",
                    "stateRoot" : "0xb42cbb6b8664984e9a324507dfb1cf783ebfa169f91fbd9efeb39cba42bd9895",
                    "timestamp" : "0x595635af",
                    "transactionsTrie" : "0x02c56753744d1f68550540c286b9b349d3cfca065bf1a087da62ac06057ff7f8",
                    "uncleHash" : "0x1dcc4de8dec75d7aab85b567b6ccd41ad312451b948a7413f0a142fd40d49347"
                },
                "rlp" : "0xf90400f901faa0636aff25807a6331b7c9a8e4c984f3f8e38d7608adf34ee801f5265ca4fe19aca01dcc4de8dec75d7aab85b567b6ccd41ad312451b948a7413f0a142fd40d49347948888f1f195afa192cfee860698584c030f4c9db1a0b42cbb6b8664984e9a324507dfb1cf783ebfa169f91fbd9efeb39cba42bd9895a002c56753744d1f68550540c286b9b349d3cfca065bf1a087da62ac06057ff7f8a01e15fe9ec2526cd68e25bff30472a5bdccf188d14d1c06476045c25a6d537ad3b90100000000000000000000000000000000000000000000000000000000000000000000000000000000000000000000000000000000000000000000000000000000000000000000000000000000000000000000000000000000000000000000000000000000000000000000000000000000000000000000000000000000000000000000000000000000000000000000000000000000000000000000000000000000000000000000000000000000000000000000000000000000000000000000000000000000000000000000000000000000000000000000000000000000000000000000000000000000000000000000000000000000000000000000000000000000008302000001832fefba830186a084595635af80a077b6959ecfdd50aad112e6a5a9eaf9f9acc3fce7bef70110fbeb1252ad6cf278885ba21d7daff5c157f901fff901fc8032830186a08080b901ae60056013565b6101918061001d6000396000f35b3360008190555056006001600060e060020a6000350480630a874df61461003a57806341c0e1b514610058578063a02b161e14610066578063dbbdf0831461007757005b610045600435610149565b80600160a060020a031660005260206000f35b610060610161565b60006000f35b6100716004356100d4565b60006000f35b61008560043560243561008b565b60006000f35b600054600160a060020a031632600160a060020a031614156100ac576100b1565b6100d0565b8060018360005260205260406000208190555081600060005260206000a15b5050565b600054600160a060020a031633600160a060020a031614158015610118575033600160a060020a0316600182600052602052604060002054600160a060020a031614155b61012157610126565b610146565b600060018260005260205260406000208190555080600060005260206000a15b50565b60006001826000526020526040600020549050919050565b600054600160a060020a031633600160a060020a0316146101815761018f565b600054600160a060020a0316ff5b561ba0468a915f087692bb9be503831a3dfef2cf9c8dee26deb40ff2ec99e8d22665aea05cedae0810c3851ecd1004bfdbfe6ddc7753c2d665993bb01ce75af7857b13dcc0",
                "transactions" : [
                    {
                        "data" : "0x60056013565b6101918061001d6000396000f35b3360008190555056006001600060e060020a6000350480630a874df61461003a57806341c0e1b514610058578063a02b161e14610066578063dbbdf0831461007757005b610045600435610149565b80600160a060020a031660005260206000f35b610060610161565b60006000f35b6100716004356100d4565b60006000f35b61008560043560243561008b565b60006000f35b600054600160a060020a031632600160a060020a031614156100ac576100b1565b6100d0565b8060018360005260205260406000208190555081600060005260206000a15b5050565b600054600160a060020a031633600160a060020a031614158015610118575033600160a060020a0316600182600052602052604060002054600160a060020a031614155b61012157610126565b610146565b600060018260005260205260406000208190555080600060005260206000a15b50565b60006001826000526020526040600020549050919050565b600054600160a060020a031633600160a060020a0316146101815761018f565b600054600160a060020a0316ff5b56",
                        "gasLimit" : "0x0186a0",
                        "gasPrice" : "0x32",
                        "nonce" : "0x00",
                        "r" : "0x468a915f087692bb9be503831a3dfef2cf9c8dee26deb40ff2ec99e8d22665ae",
                        "s" : "0x5cedae0810c3851ecd1004bfdbfe6ddc7753c2d665993bb01ce75af7857b13dc",
                        "to" : "",
                        "v" : "0x1b",
                        "value" : "0x00"
                    }
                ],
                "uncleHeaders" : [
                ]
            }
        ],
        "genesisBlockHeader" : {
            "bloom" : "0x00000000000000000000000000000000000000000000000000000000000000000000000000000000000000000000000000000000000000000000000000000000000000000000000000000000000000000000000000000000000000000000000000000000000000000000000000000000000000000000000000000000000000000000000000000000000000000000000000000000000000000000000000000000000000000000000000000000000000000000000000000000000000000000000000000000000000000000000000000000000000000000000000000000000000000000000000000000000000000000000000000000000000000000000000000000",
            "coinbase" : "0x8888f1f195afa192cfee860698584c030f4c9db1",
            "difficulty" : "0x020000",
            "extraData" : "0x42",
            "gasLimit" : "0x2fefd8",
            "gasUsed" : "0x64",
            "hash" : "0x636aff25807a6331b7c9a8e4c984f3f8e38d7608adf34ee801f5265ca4fe19ac",
            "mixHash" : "0x56e81f171bcc55a6ff8345e692c0f86e5b48e01b996cadc001622fb5e363b421",
            "nonce" : "0x0102030405060708",
            "number" : "0x00",
            "parentHash" : "0x0000000000000000000000000000000000000000000000000000000000000000",
            "receiptTrie" : "0x56e81f171bcc55a6ff8345e692c0f86e5b48e01b996cadc001622fb5e363b421",
            "stateRoot" : "0xcafd881ab193703b83816c49ff6c2bf6ba6f464a1be560c42106128c8dbc35e7",
            "timestamp" : "0x54c98c81",
            "transactionsTrie" : "0x56e81f171bcc55a6ff8345e692c0f86e5b48e01b996cadc001622fb5e363b421",
            "uncleHash" : "0x1dcc4de8dec75d7aab85b567b6ccd41ad312451b948a7413f0a142fd40d49347"
        },
        "genesisRLP" : "0xf901fcf901f7a00000000000000000000000000000000000000000000000000000000000000000a01dcc4de8dec75d7aab85b567b6ccd41ad312451b948a7413f0a142fd40d49347948888f1f195afa192cfee860698584c030f4c9db1a0cafd881ab193703b83816c49ff6c2bf6ba6f464a1be560c42106128c8dbc35e7a056e81f171bcc55a6ff8345e692c0f86e5b48e01b996cadc001622fb5e363b421a056e81f171bcc55a6ff8345e692c0f86e5b48e01b996cadc001622fb5e363b421b90100000000000000000000000000000000000000000000000000000000000000000000000000000000000000000000000000000000000000000000000000000000000000000000000000000000000000000000000000000000000000000000000000000000000000000000000000000000000000000000000000000000000000000000000000000000000000000000000000000000000000000000000000000000000000000000000000000000000000000000000000000000000000000000000000000000000000000000000000000000000000000000000000000000000000000000000000000000000000000000000000000000000000000000000000000000008302000080832fefd8648454c98c8142a056e81f171bcc55a6ff8345e692c0f86e5b48e01b996cadc001622fb5e363b421880102030405060708c0c0",
        "lastblockhash" : "0x5f3b874f8e0d12d10a03a8b9a38efb54596102c9534e5512d39b883d98710980",
        "network" : "EIP158",
        "postState" : {
            "0x8888f1f195afa192cfee860698584c030f4c9db1" : {
                "balance" : "0x4563918245404b40",
                "code" : "",
                "nonce" : "0x00",
                "storage" : {
                }
            },
            "0xa94f5374fce5edbc8e2a8697c15331677e6ebf0b" : {
                "balance" : "0x0253bf98c0",
                "code" : "",
                "nonce" : "0x01",
                "storage" : {
                }
            }
        },
        "pre" : {
            "0xa94f5374fce5edbc8e2a8697c15331677e6ebf0b" : {
                "balance" : "0x02540be400",
                "code" : "",
                "nonce" : "0x00",
                "storage" : {
                }
            }
        }
    },
    "dataTx2_Frontier" : {
        "_info" : {
            "comment" : "",
            "filledwith" : "cpp-1.3.0+commit.e5f1bd19.Linux.g++",
            "source" : "/src/BlockchainTestsFiller/bcValidBlockTest/dataTx2Filler.json"
        },
        "blocks" : [
            {
                "blockHeader" : {
                    "bloom" : "0x00000000000000000000000000000000000000000000000000000000000000000000000000000000000000000000000000000000000000000000000000000000000000000000000000000000000000000000000000000000000000000000000000000000000000000000000000000000000000000000000000000000000000000000000000000000000000000000000000000000000000000000000000000000000000000000000000000000000000000000000000000000000000000000000000000000000000000000000000000000000000000000000000000000000000000000000000000000000000000000000000000000000000000000000000000000",
                    "coinbase" : "0x8888f1f195afa192cfee860698584c030f4c9db1",
                    "difficulty" : "0x020000",
                    "extraData" : "",
                    "gasLimit" : "0x2fefba",
                    "gasUsed" : "0x0106a5",
                    "hash" : "0x13fe820ace607aea5183adf347240514426e8f6b7b7fa7645d7cadd25aee8afc",
                    "mixHash" : "0x02f72bab6c497c8f84494e564347d66d3bd24e166e40f87ffb6eb0dbcf64ad4e",
                    "nonce" : "0x24c006630c488096",
                    "number" : "0x01",
                    "parentHash" : "0x636aff25807a6331b7c9a8e4c984f3f8e38d7608adf34ee801f5265ca4fe19ac",
                    "receiptTrie" : "0xa10b17eebdea64580c2ea01d7cf6b1af198df431af16d742e573ca55bd28517e",
                    "stateRoot" : "0x63d10880f95e8d3a45306df319146db77d52d2a46e773b2c82bb076f0564d171",
                    "timestamp" : "0x595635a9",
                    "transactionsTrie" : "0x02c56753744d1f68550540c286b9b349d3cfca065bf1a087da62ac06057ff7f8",
                    "uncleHash" : "0x1dcc4de8dec75d7aab85b567b6ccd41ad312451b948a7413f0a142fd40d49347"
                },
                "rlp" : "0xf90400f901faa0636aff25807a6331b7c9a8e4c984f3f8e38d7608adf34ee801f5265ca4fe19aca01dcc4de8dec75d7aab85b567b6ccd41ad312451b948a7413f0a142fd40d49347948888f1f195afa192cfee860698584c030f4c9db1a063d10880f95e8d3a45306df319146db77d52d2a46e773b2c82bb076f0564d171a002c56753744d1f68550540c286b9b349d3cfca065bf1a087da62ac06057ff7f8a0a10b17eebdea64580c2ea01d7cf6b1af198df431af16d742e573ca55bd28517eb90100000000000000000000000000000000000000000000000000000000000000000000000000000000000000000000000000000000000000000000000000000000000000000000000000000000000000000000000000000000000000000000000000000000000000000000000000000000000000000000000000000000000000000000000000000000000000000000000000000000000000000000000000000000000000000000000000000000000000000000000000000000000000000000000000000000000000000000000000000000000000000000000000000000000000000000000000000000000000000000000000000000000000000000000000000000008302000001832fefba830106a584595635a980a002f72bab6c497c8f84494e564347d66d3bd24e166e40f87ffb6eb0dbcf64ad4e8824c006630c488096f901fff901fc8032830186a08080b901ae60056013565b6101918061001d6000396000f35b3360008190555056006001600060e060020a6000350480630a874df61461003a57806341c0e1b514610058578063a02b161e14610066578063dbbdf0831461007757005b610045600435610149565b80600160a060020a031660005260206000f35b610060610161565b60006000f35b6100716004356100d4565b60006000f35b61008560043560243561008b565b60006000f35b600054600160a060020a031632600160a060020a031614156100ac576100b1565b6100d0565b8060018360005260205260406000208190555081600060005260206000a15b5050565b600054600160a060020a031633600160a060020a031614158015610118575033600160a060020a0316600182600052602052604060002054600160a060020a031614155b61012157610126565b610146565b600060018260005260205260406000208190555080600060005260206000a15b50565b60006001826000526020526040600020549050919050565b600054600160a060020a031633600160a060020a0316146101815761018f565b600054600160a060020a0316ff5b561ba0468a915f087692bb9be503831a3dfef2cf9c8dee26deb40ff2ec99e8d22665aea05cedae0810c3851ecd1004bfdbfe6ddc7753c2d665993bb01ce75af7857b13dcc0",
                "transactions" : [
                    {
                        "data" : "0x60056013565b6101918061001d6000396000f35b3360008190555056006001600060e060020a6000350480630a874df61461003a57806341c0e1b514610058578063a02b161e14610066578063dbbdf0831461007757005b610045600435610149565b80600160a060020a031660005260206000f35b610060610161565b60006000f35b6100716004356100d4565b60006000f35b61008560043560243561008b565b60006000f35b600054600160a060020a031632600160a060020a031614156100ac576100b1565b6100d0565b8060018360005260205260406000208190555081600060005260206000a15b5050565b600054600160a060020a031633600160a060020a031614158015610118575033600160a060020a0316600182600052602052604060002054600160a060020a031614155b61012157610126565b610146565b600060018260005260205260406000208190555080600060005260206000a15b50565b60006001826000526020526040600020549050919050565b600054600160a060020a031633600160a060020a0316146101815761018f565b600054600160a060020a0316ff5b56",
                        "gasLimit" : "0x0186a0",
                        "gasPrice" : "0x32",
                        "nonce" : "0x00",
                        "r" : "0x468a915f087692bb9be503831a3dfef2cf9c8dee26deb40ff2ec99e8d22665ae",
                        "s" : "0x5cedae0810c3851ecd1004bfdbfe6ddc7753c2d665993bb01ce75af7857b13dc",
                        "to" : "",
                        "v" : "0x1b",
                        "value" : "0x00"
                    }
                ],
                "uncleHeaders" : [
                ]
            }
        ],
        "genesisBlockHeader" : {
            "bloom" : "0x00000000000000000000000000000000000000000000000000000000000000000000000000000000000000000000000000000000000000000000000000000000000000000000000000000000000000000000000000000000000000000000000000000000000000000000000000000000000000000000000000000000000000000000000000000000000000000000000000000000000000000000000000000000000000000000000000000000000000000000000000000000000000000000000000000000000000000000000000000000000000000000000000000000000000000000000000000000000000000000000000000000000000000000000000000000",
            "coinbase" : "0x8888f1f195afa192cfee860698584c030f4c9db1",
            "difficulty" : "0x020000",
            "extraData" : "0x42",
            "gasLimit" : "0x2fefd8",
            "gasUsed" : "0x64",
            "hash" : "0x636aff25807a6331b7c9a8e4c984f3f8e38d7608adf34ee801f5265ca4fe19ac",
            "mixHash" : "0x56e81f171bcc55a6ff8345e692c0f86e5b48e01b996cadc001622fb5e363b421",
            "nonce" : "0x0102030405060708",
            "number" : "0x00",
            "parentHash" : "0x0000000000000000000000000000000000000000000000000000000000000000",
            "receiptTrie" : "0x56e81f171bcc55a6ff8345e692c0f86e5b48e01b996cadc001622fb5e363b421",
            "stateRoot" : "0xcafd881ab193703b83816c49ff6c2bf6ba6f464a1be560c42106128c8dbc35e7",
            "timestamp" : "0x54c98c81",
            "transactionsTrie" : "0x56e81f171bcc55a6ff8345e692c0f86e5b48e01b996cadc001622fb5e363b421",
            "uncleHash" : "0x1dcc4de8dec75d7aab85b567b6ccd41ad312451b948a7413f0a142fd40d49347"
        },
        "genesisRLP" : "0xf901fcf901f7a00000000000000000000000000000000000000000000000000000000000000000a01dcc4de8dec75d7aab85b567b6ccd41ad312451b948a7413f0a142fd40d49347948888f1f195afa192cfee860698584c030f4c9db1a0cafd881ab193703b83816c49ff6c2bf6ba6f464a1be560c42106128c8dbc35e7a056e81f171bcc55a6ff8345e692c0f86e5b48e01b996cadc001622fb5e363b421a056e81f171bcc55a6ff8345e692c0f86e5b48e01b996cadc001622fb5e363b421b90100000000000000000000000000000000000000000000000000000000000000000000000000000000000000000000000000000000000000000000000000000000000000000000000000000000000000000000000000000000000000000000000000000000000000000000000000000000000000000000000000000000000000000000000000000000000000000000000000000000000000000000000000000000000000000000000000000000000000000000000000000000000000000000000000000000000000000000000000000000000000000000000000000000000000000000000000000000000000000000000000000000000000000000000000000000008302000080832fefd8648454c98c8142a056e81f171bcc55a6ff8345e692c0f86e5b48e01b996cadc001622fb5e363b421880102030405060708c0c0",
        "lastblockhash" : "0x13fe820ace607aea5183adf347240514426e8f6b7b7fa7645d7cadd25aee8afc",
        "network" : "Frontier",
        "postState" : {
            "0x6295ee1b4f6dd65047762f924ecd367c17eabf8f" : {
                "balance" : "0x00",
                "code" : "",
                "nonce" : "0x00",
                "storage" : {
                    "0x00" : "0xa94f5374fce5edbc8e2a8697c15331677e6ebf0b"
                }
            },
            "0x8888f1f195afa192cfee860698584c030f4c9db1" : {
                "balance" : "0x4563918245274c3a",
                "code" : "",
                "nonce" : "0x00",
                "storage" : {
                }
            },
            "0xa94f5374fce5edbc8e2a8697c15331677e6ebf0b" : {
                "balance" : "0x0253d897c6",
                "code" : "",
                "nonce" : "0x01",
                "storage" : {
                }
            }
        },
        "pre" : {
            "0xa94f5374fce5edbc8e2a8697c15331677e6ebf0b" : {
                "balance" : "0x02540be400",
                "code" : "",
                "nonce" : "0x00",
                "storage" : {
                }
            }
        }
    },
    "dataTx2_Homestead" : {
        "_info" : {
            "comment" : "",
            "filledwith" : "cpp-1.3.0+commit.e5f1bd19.Linux.g++",
            "source" : "/src/BlockchainTestsFiller/bcValidBlockTest/dataTx2Filler.json"
        },
        "blocks" : [
            {
                "blockHeader" : {
                    "bloom" : "0x00000000000000000000000000000000000000000000000000000000000000000000000000000000000000000000000000000000000000000000000000000000000000000000000000000000000000000000000000000000000000000000000000000000000000000000000000000000000000000000000000000000000000000000000000000000000000000000000000000000000000000000000000000000000000000000000000000000000000000000000000000000000000000000000000000000000000000000000000000000000000000000000000000000000000000000000000000000000000000000000000000000000000000000000000000000",
                    "coinbase" : "0x8888f1f195afa192cfee860698584c030f4c9db1",
                    "difficulty" : "0x020000",
                    "extraData" : "",
                    "gasLimit" : "0x2fefba",
                    "gasUsed" : "0x0186a0",
                    "hash" : "0x9064e60b800da587cab8a44d1e7ca805f3b6bda7c6697692fb65954222ce2c51",
                    "mixHash" : "0xd17c67594eb8b77a057d34866138dcd6e0b7234868ffcc6ccd8324a320ad7921",
                    "nonce" : "0x20a2001f981b8126",
                    "number" : "0x01",
                    "parentHash" : "0x636aff25807a6331b7c9a8e4c984f3f8e38d7608adf34ee801f5265ca4fe19ac",
                    "receiptTrie" : "0x1e15fe9ec2526cd68e25bff30472a5bdccf188d14d1c06476045c25a6d537ad3",
                    "stateRoot" : "0xb42cbb6b8664984e9a324507dfb1cf783ebfa169f91fbd9efeb39cba42bd9895",
                    "timestamp" : "0x595635ac",
                    "transactionsTrie" : "0x02c56753744d1f68550540c286b9b349d3cfca065bf1a087da62ac06057ff7f8",
                    "uncleHash" : "0x1dcc4de8dec75d7aab85b567b6ccd41ad312451b948a7413f0a142fd40d49347"
                },
                "rlp" : "0xf90400f901faa0636aff25807a6331b7c9a8e4c984f3f8e38d7608adf34ee801f5265ca4fe19aca01dcc4de8dec75d7aab85b567b6ccd41ad312451b948a7413f0a142fd40d49347948888f1f195afa192cfee860698584c030f4c9db1a0b42cbb6b8664984e9a324507dfb1cf783ebfa169f91fbd9efeb39cba42bd9895a002c56753744d1f68550540c286b9b349d3cfca065bf1a087da62ac06057ff7f8a01e15fe9ec2526cd68e25bff30472a5bdccf188d14d1c06476045c25a6d537ad3b90100000000000000000000000000000000000000000000000000000000000000000000000000000000000000000000000000000000000000000000000000000000000000000000000000000000000000000000000000000000000000000000000000000000000000000000000000000000000000000000000000000000000000000000000000000000000000000000000000000000000000000000000000000000000000000000000000000000000000000000000000000000000000000000000000000000000000000000000000000000000000000000000000000000000000000000000000000000000000000000000000000000000000000000000000000000008302000001832fefba830186a084595635ac80a0d17c67594eb8b77a057d34866138dcd6e0b7234868ffcc6ccd8324a320ad79218820a2001f981b8126f901fff901fc8032830186a08080b901ae60056013565b6101918061001d6000396000f35b3360008190555056006001600060e060020a6000350480630a874df61461003a57806341c0e1b514610058578063a02b161e14610066578063dbbdf0831461007757005b610045600435610149565b80600160a060020a031660005260206000f35b610060610161565b60006000f35b6100716004356100d4565b60006000f35b61008560043560243561008b565b60006000f35b600054600160a060020a031632600160a060020a031614156100ac576100b1565b6100d0565b8060018360005260205260406000208190555081600060005260206000a15b5050565b600054600160a060020a031633600160a060020a031614158015610118575033600160a060020a0316600182600052602052604060002054600160a060020a031614155b61012157610126565b610146565b600060018260005260205260406000208190555080600060005260206000a15b50565b60006001826000526020526040600020549050919050565b600054600160a060020a031633600160a060020a0316146101815761018f565b600054600160a060020a0316ff5b561ba0468a915f087692bb9be503831a3dfef2cf9c8dee26deb40ff2ec99e8d22665aea05cedae0810c3851ecd1004bfdbfe6ddc7753c2d665993bb01ce75af7857b13dcc0",
                "transactions" : [
                    {
                        "data" : "0x60056013565b6101918061001d6000396000f35b3360008190555056006001600060e060020a6000350480630a874df61461003a57806341c0e1b514610058578063a02b161e14610066578063dbbdf0831461007757005b610045600435610149565b80600160a060020a031660005260206000f35b610060610161565b60006000f35b6100716004356100d4565b60006000f35b61008560043560243561008b565b60006000f35b600054600160a060020a031632600160a060020a031614156100ac576100b1565b6100d0565b8060018360005260205260406000208190555081600060005260206000a15b5050565b600054600160a060020a031633600160a060020a031614158015610118575033600160a060020a0316600182600052602052604060002054600160a060020a031614155b61012157610126565b610146565b600060018260005260205260406000208190555080600060005260206000a15b50565b60006001826000526020526040600020549050919050565b600054600160a060020a031633600160a060020a0316146101815761018f565b600054600160a060020a0316ff5b56",
                        "gasLimit" : "0x0186a0",
                        "gasPrice" : "0x32",
                        "nonce" : "0x00",
                        "r" : "0x468a915f087692bb9be503831a3dfef2cf9c8dee26deb40ff2ec99e8d22665ae",
                        "s" : "0x5cedae0810c3851ecd1004bfdbfe6ddc7753c2d665993bb01ce75af7857b13dc",
                        "to" : "",
                        "v" : "0x1b",
                        "value" : "0x00"
                    }
                ],
                "uncleHeaders" : [
                ]
            }
        ],
        "genesisBlockHeader" : {
            "bloom" : "0x00000000000000000000000000000000000000000000000000000000000000000000000000000000000000000000000000000000000000000000000000000000000000000000000000000000000000000000000000000000000000000000000000000000000000000000000000000000000000000000000000000000000000000000000000000000000000000000000000000000000000000000000000000000000000000000000000000000000000000000000000000000000000000000000000000000000000000000000000000000000000000000000000000000000000000000000000000000000000000000000000000000000000000000000000000000",
            "coinbase" : "0x8888f1f195afa192cfee860698584c030f4c9db1",
            "difficulty" : "0x020000",
            "extraData" : "0x42",
            "gasLimit" : "0x2fefd8",
            "gasUsed" : "0x64",
            "hash" : "0x636aff25807a6331b7c9a8e4c984f3f8e38d7608adf34ee801f5265ca4fe19ac",
            "mixHash" : "0x56e81f171bcc55a6ff8345e692c0f86e5b48e01b996cadc001622fb5e363b421",
            "nonce" : "0x0102030405060708",
            "number" : "0x00",
            "parentHash" : "0x0000000000000000000000000000000000000000000000000000000000000000",
            "receiptTrie" : "0x56e81f171bcc55a6ff8345e692c0f86e5b48e01b996cadc001622fb5e363b421",
            "stateRoot" : "0xcafd881ab193703b83816c49ff6c2bf6ba6f464a1be560c42106128c8dbc35e7",
            "timestamp" : "0x54c98c81",
            "transactionsTrie" : "0x56e81f171bcc55a6ff8345e692c0f86e5b48e01b996cadc001622fb5e363b421",
            "uncleHash" : "0x1dcc4de8dec75d7aab85b567b6ccd41ad312451b948a7413f0a142fd40d49347"
        },
        "genesisRLP" : "0xf901fcf901f7a00000000000000000000000000000000000000000000000000000000000000000a01dcc4de8dec75d7aab85b567b6ccd41ad312451b948a7413f0a142fd40d49347948888f1f195afa192cfee860698584c030f4c9db1a0cafd881ab193703b83816c49ff6c2bf6ba6f464a1be560c42106128c8dbc35e7a056e81f171bcc55a6ff8345e692c0f86e5b48e01b996cadc001622fb5e363b421a056e81f171bcc55a6ff8345e692c0f86e5b48e01b996cadc001622fb5e363b421b90100000000000000000000000000000000000000000000000000000000000000000000000000000000000000000000000000000000000000000000000000000000000000000000000000000000000000000000000000000000000000000000000000000000000000000000000000000000000000000000000000000000000000000000000000000000000000000000000000000000000000000000000000000000000000000000000000000000000000000000000000000000000000000000000000000000000000000000000000000000000000000000000000000000000000000000000000000000000000000000000000000000000000000000000000000000008302000080832fefd8648454c98c8142a056e81f171bcc55a6ff8345e692c0f86e5b48e01b996cadc001622fb5e363b421880102030405060708c0c0",
        "lastblockhash" : "0x9064e60b800da587cab8a44d1e7ca805f3b6bda7c6697692fb65954222ce2c51",
        "network" : "Homestead",
        "postState" : {
            "0x8888f1f195afa192cfee860698584c030f4c9db1" : {
                "balance" : "0x4563918245404b40",
                "code" : "",
                "nonce" : "0x00",
                "storage" : {
                }
            },
            "0xa94f5374fce5edbc8e2a8697c15331677e6ebf0b" : {
                "balance" : "0x0253bf98c0",
                "code" : "",
                "nonce" : "0x01",
                "storage" : {
                }
            }
        },
        "pre" : {
            "0xa94f5374fce5edbc8e2a8697c15331677e6ebf0b" : {
                "balance" : "0x02540be400",
                "code" : "",
                "nonce" : "0x00",
                "storage" : {
                }
            }
        }
    },
    "dataTx2_Metropolis" : {
        "_info" : {
            "comment" : "",
            "filledwith" : "cpp-1.3.0+commit.e5f1bd19.Linux.g++",
            "source" : "/src/BlockchainTestsFiller/bcValidBlockTest/dataTx2Filler.json"
        },
        "blocks" : [
            {
                "blockHeader" : {
                    "bloom" : "0x00000000000000000000000000000000000000000000000000000000000000000000000000000000000000000000000000000000000000000000000000000000000000000000000000000000000000000000000000000000000000000000000000000000000000000000000000000000000000000000000000000000000000000000000000000000000000000000000000000000000000000000000000000000000000000000000000000000000000000000000000000000000000000000000000000000000000000000000000000000000000000000000000000000000000000000000000000000000000000000000000000000000000000000000000000000",
                    "coinbase" : "0x8888f1f195afa192cfee860698584c030f4c9db1",
                    "difficulty" : "0x020000",
                    "extraData" : "",
                    "gasLimit" : "0x2fefba",
                    "gasUsed" : "0x0186a0",
                    "hash" : "0xd6c0b5a1ca8b191f26165925747e44f2b7d8f7b485c8b385b19b4cda6ea8fd43",
                    "mixHash" : "0x555f4469b955f3d3ab1f66c31729624ec61c087435ee364dbb1ea8c2445b8a9f",
                    "nonce" : "0xc94b167b6b6013ef",
                    "number" : "0x01",
                    "parentHash" : "0x636aff25807a6331b7c9a8e4c984f3f8e38d7608adf34ee801f5265ca4fe19ac",
                    "receiptTrie" : "0x1a6193f2076cdea613e906610ec6721d608a93868cd194632354d8919bb6a7c4",
                    "stateRoot" : "0xe183e0de4a3e2ce663e626c8c3e3a173613244f2dc0edabc820d6313eada73bc",
                    "timestamp" : "0x595635b1",
                    "transactionsTrie" : "0x02c56753744d1f68550540c286b9b349d3cfca065bf1a087da62ac06057ff7f8",
                    "uncleHash" : "0x1dcc4de8dec75d7aab85b567b6ccd41ad312451b948a7413f0a142fd40d49347"
                },
                "rlp" : "0xf90400f901faa0636aff25807a6331b7c9a8e4c984f3f8e38d7608adf34ee801f5265ca4fe19aca01dcc4de8dec75d7aab85b567b6ccd41ad312451b948a7413f0a142fd40d49347948888f1f195afa192cfee860698584c030f4c9db1a0e183e0de4a3e2ce663e626c8c3e3a173613244f2dc0edabc820d6313eada73bca002c56753744d1f68550540c286b9b349d3cfca065bf1a087da62ac06057ff7f8a01a6193f2076cdea613e906610ec6721d608a93868cd194632354d8919bb6a7c4b90100000000000000000000000000000000000000000000000000000000000000000000000000000000000000000000000000000000000000000000000000000000000000000000000000000000000000000000000000000000000000000000000000000000000000000000000000000000000000000000000000000000000000000000000000000000000000000000000000000000000000000000000000000000000000000000000000000000000000000000000000000000000000000000000000000000000000000000000000000000000000000000000000000000000000000000000000000000000000000000000000000000000000000000000000000000008302000001832fefba830186a084595635b180a0555f4469b955f3d3ab1f66c31729624ec61c087435ee364dbb1ea8c2445b8a9f88c94b167b6b6013eff901fff901fc8032830186a08080b901ae60056013565b6101918061001d6000396000f35b3360008190555056006001600060e060020a6000350480630a874df61461003a57806341c0e1b514610058578063a02b161e14610066578063dbbdf0831461007757005b610045600435610149565b80600160a060020a031660005260206000f35b610060610161565b60006000f35b6100716004356100d4565b60006000f35b61008560043560243561008b565b60006000f35b600054600160a060020a031632600160a060020a031614156100ac576100b1565b6100d0565b8060018360005260205260406000208190555081600060005260206000a15b5050565b600054600160a060020a031633600160a060020a031614158015610118575033600160a060020a0316600182600052602052604060002054600160a060020a031614155b61012157610126565b610146565b600060018260005260205260406000208190555080600060005260206000a15b50565b60006001826000526020526040600020549050919050565b600054600160a060020a031633600160a060020a0316146101815761018f565b600054600160a060020a0316ff5b561ba0468a915f087692bb9be503831a3dfef2cf9c8dee26deb40ff2ec99e8d22665aea05cedae0810c3851ecd1004bfdbfe6ddc7753c2d665993bb01ce75af7857b13dcc0",
                "transactions" : [
                    {
                        "data" : "0x60056013565b6101918061001d6000396000f35b3360008190555056006001600060e060020a6000350480630a874df61461003a57806341c0e1b514610058578063a02b161e14610066578063dbbdf0831461007757005b610045600435610149565b80600160a060020a031660005260206000f35b610060610161565b60006000f35b6100716004356100d4565b60006000f35b61008560043560243561008b565b60006000f35b600054600160a060020a031632600160a060020a031614156100ac576100b1565b6100d0565b8060018360005260205260406000208190555081600060005260206000a15b5050565b600054600160a060020a031633600160a060020a031614158015610118575033600160a060020a0316600182600052602052604060002054600160a060020a031614155b61012157610126565b610146565b600060018260005260205260406000208190555080600060005260206000a15b50565b60006001826000526020526040600020549050919050565b600054600160a060020a031633600160a060020a0316146101815761018f565b600054600160a060020a0316ff5b56",
                        "gasLimit" : "0x0186a0",
                        "gasPrice" : "0x32",
                        "nonce" : "0x00",
                        "r" : "0x468a915f087692bb9be503831a3dfef2cf9c8dee26deb40ff2ec99e8d22665ae",
                        "s" : "0x5cedae0810c3851ecd1004bfdbfe6ddc7753c2d665993bb01ce75af7857b13dc",
                        "to" : "",
                        "v" : "0x1b",
                        "value" : "0x00"
                    }
                ],
                "uncleHeaders" : [
                ]
            }
        ],
        "genesisBlockHeader" : {
            "bloom" : "0x00000000000000000000000000000000000000000000000000000000000000000000000000000000000000000000000000000000000000000000000000000000000000000000000000000000000000000000000000000000000000000000000000000000000000000000000000000000000000000000000000000000000000000000000000000000000000000000000000000000000000000000000000000000000000000000000000000000000000000000000000000000000000000000000000000000000000000000000000000000000000000000000000000000000000000000000000000000000000000000000000000000000000000000000000000000",
            "coinbase" : "0x8888f1f195afa192cfee860698584c030f4c9db1",
            "difficulty" : "0x020000",
            "extraData" : "0x42",
            "gasLimit" : "0x2fefd8",
            "gasUsed" : "0x64",
            "hash" : "0x636aff25807a6331b7c9a8e4c984f3f8e38d7608adf34ee801f5265ca4fe19ac",
            "mixHash" : "0x56e81f171bcc55a6ff8345e692c0f86e5b48e01b996cadc001622fb5e363b421",
            "nonce" : "0x0102030405060708",
            "number" : "0x00",
            "parentHash" : "0x0000000000000000000000000000000000000000000000000000000000000000",
            "receiptTrie" : "0x56e81f171bcc55a6ff8345e692c0f86e5b48e01b996cadc001622fb5e363b421",
            "stateRoot" : "0xcafd881ab193703b83816c49ff6c2bf6ba6f464a1be560c42106128c8dbc35e7",
            "timestamp" : "0x54c98c81",
            "transactionsTrie" : "0x56e81f171bcc55a6ff8345e692c0f86e5b48e01b996cadc001622fb5e363b421",
            "uncleHash" : "0x1dcc4de8dec75d7aab85b567b6ccd41ad312451b948a7413f0a142fd40d49347"
        },
        "genesisRLP" : "0xf901fcf901f7a00000000000000000000000000000000000000000000000000000000000000000a01dcc4de8dec75d7aab85b567b6ccd41ad312451b948a7413f0a142fd40d49347948888f1f195afa192cfee860698584c030f4c9db1a0cafd881ab193703b83816c49ff6c2bf6ba6f464a1be560c42106128c8dbc35e7a056e81f171bcc55a6ff8345e692c0f86e5b48e01b996cadc001622fb5e363b421a056e81f171bcc55a6ff8345e692c0f86e5b48e01b996cadc001622fb5e363b421b90100000000000000000000000000000000000000000000000000000000000000000000000000000000000000000000000000000000000000000000000000000000000000000000000000000000000000000000000000000000000000000000000000000000000000000000000000000000000000000000000000000000000000000000000000000000000000000000000000000000000000000000000000000000000000000000000000000000000000000000000000000000000000000000000000000000000000000000000000000000000000000000000000000000000000000000000000000000000000000000000000000000000000000000000000000000008302000080832fefd8648454c98c8142a056e81f171bcc55a6ff8345e692c0f86e5b48e01b996cadc001622fb5e363b421880102030405060708c0c0",
        "lastblockhash" : "0xd6c0b5a1ca8b191f26165925747e44f2b7d8f7b485c8b385b19b4cda6ea8fd43",
        "network" : "Metropolis",
        "postState" : {
            "0x00000000000000000000000000000000000000f0" : {
                "balance" : "0x00",
                "code" : "",
                "nonce" : "0x00",
                "storage" : {
                }
            },
            "0x8888f1f195afa192cfee860698584c030f4c9db1" : {
                "balance" : "0x4563918245404b40",
                "code" : "",
                "nonce" : "0x00",
                "storage" : {
                }
            },
            "0xa94f5374fce5edbc8e2a8697c15331677e6ebf0b" : {
                "balance" : "0x0253bf98c0",
                "code" : "",
                "nonce" : "0x01",
                "storage" : {
                }
            }
        },
        "pre" : {
            "0xa94f5374fce5edbc8e2a8697c15331677e6ebf0b" : {
                "balance" : "0x02540be400",
                "code" : "",
                "nonce" : "0x00",
                "storage" : {
                }
            }
        }
    }
}