{
    "log1_correct_Byzantium" : {
        "_info" : {
            "comment" : "",
            "filledwith" : "cpp-1.3.0+commit.6e0ce939.Linux.g++",
            "lllcversion" : "Version: 0.4.18-develop.2017.9.25+commit.a72237f2.Linux.g++",
            "source" : "src/BlockchainTestsFiller/bcValidBlockTest/log1_correctFiller.json",
            "sourceHash" : "33e5a0b44f4a53f6eb0c4576bd51e409ec97da73b1055bacfe78d5e2d9434c6d"
        },
        "blocks" : [
            {
                "blockHeader" : {
                    "bloom" : "0x00000000000000001000000000000000000000000000000000000000000000000000000000000000000000000000000000000000000000000000000000000000000000000000000000000000000000000000000000000000000000000000000000000000020000000000000000000800000000000000000000000000000000000000000000000000000000000000000000000000000000000000000000000000000000000000000004000000000000000000000000000000000000000000000000000000000000000000000000000000000000000000000000000000000020000000000040000000000000000000000000000000000000000000000000000000",
                    "coinbase" : "0x8888f1f195afa192cfee860698584c030f4c9db1",
                    "difficulty" : "0x020000",
                    "extraData" : "",
                    "gasLimit" : "0x2fefba",
                    "gasUsed" : "0x560b",
                    "hash" : "0xbf74b13319c2c3fb46e5a5a80f898884df2d87e3cf3236846fbbaba7722e2a61",
                    "mixHash" : "0x76867d849f409a0a535b9185a3849876dcbda772bcdac180dda8c8ce6b0dd99c",
                    "nonce" : "0x7865977570c98c0a",
                    "number" : "0x01",
                    "parentHash" : "0xf052d217bd5275a5177a3c3b7debdfe2670f1c8394b2965ccd5c1883cc1a524d",
                    "receiptTrie" : "0x21f4ebc5b0fb1ad80a00f78d04e67d1b30af68cecb3a8a2bf55247f11df1e3ed",
                    "stateRoot" : "0xaf012db7d5086c18d3e56bef0238878dd54e1b25055530f9eca331d007aebb52",
                    "timestamp" : "0x59d77792",
                    "transactionsTrie" : "0x498785da562aa0c5dd5937cf15f22139b0b1bcf3b4fc48986e1bb1dae9292796",
                    "uncleHash" : "0x1dcc4de8dec75d7aab85b567b6ccd41ad312451b948a7413f0a142fd40d49347"
                },
                "rlp" : "0xf90265f901f9a0f052d217bd5275a5177a3c3b7debdfe2670f1c8394b2965ccd5c1883cc1a524da01dcc4de8dec75d7aab85b567b6ccd41ad312451b948a7413f0a142fd40d49347948888f1f195afa192cfee860698584c030f4c9db1a0af012db7d5086c18d3e56bef0238878dd54e1b25055530f9eca331d007aebb52a0498785da562aa0c5dd5937cf15f22139b0b1bcf3b4fc48986e1bb1dae9292796a021f4ebc5b0fb1ad80a00f78d04e67d1b30af68cecb3a8a2bf55247f11df1e3edb90100000000000000000010000000000000000000000000000000000000000000000000000000000000000000000000000000000000000000000000000000000000000000000000000000000000000000000000000000000000000000000000000000000000000200000000000000000008000000000000000000000000000000000000000000000000000000000000000000000000000000000000000000000000000000000000000000040000000000000000000000000000000000000000000000000000000000000000000000000000000000000000000000000000000000200000000000400000000000000000000000000000000000000000000000000000008302000001832fefba82560b8459d7779280a076867d849f409a0a535b9185a3849876dcbda772bcdac180dda8c8ce6b0dd99c887865977570c98c0af866f864800a82c35094095e7baea6a6c7c4c2dfeb977efac326af552d8785012a05f200801ca0ee0b9ec878fbd4258a9473199d8ecc32996a20c323c004e79e0cda20e0418ce3a04e6bc63927d1510bab54f37e46fa036faf4b2c465d271920d9afea1fadf7bd21c0",
                "transactions" : [
                    {
                        "data" : "",
                        "gasLimit" : "0xc350",
                        "gasPrice" : "0x0a",
                        "nonce" : "0x00",
                        "r" : "0xee0b9ec878fbd4258a9473199d8ecc32996a20c323c004e79e0cda20e0418ce3",
                        "s" : "0x4e6bc63927d1510bab54f37e46fa036faf4b2c465d271920d9afea1fadf7bd21",
                        "to" : "0x095e7baea6a6c7c4c2dfeb977efac326af552d87",
                        "v" : "0x1c",
                        "value" : "0x012a05f200"
                    }
                ],
                "uncleHeaders" : [
                ]
            }
        ],
        "genesisBlockHeader" : {
            "bloom" : "0x00000000000000000000000000000000000000000000000000000000000000000000000000000000000000000000000000000000000000000000000000000000000000000000000000000000000000000000000000000000000000000000000000000000000000000000000000000000000000000000000000000000000000000000000000000000000000000000000000000000000000000000000000000000000000000000000000000000000000000000000000000000000000000000000000000000000000000000000000000000000000000000000000000000000000000000000000000000000000000000000000000000000000000000000000000000",
            "coinbase" : "0x8888f1f195afa192cfee860698584c030f4c9db1",
            "difficulty" : "0x020000",
            "extraData" : "0x42",
            "gasLimit" : "0x2fefd8",
            "gasUsed" : "0x00",
            "hash" : "0xf052d217bd5275a5177a3c3b7debdfe2670f1c8394b2965ccd5c1883cc1a524d",
            "mixHash" : "0x56e81f171bcc55a6ff8345e692c0f86e5b48e01b996cadc001622fb5e363b421",
            "nonce" : "0x0102030405060708",
            "number" : "0x00",
            "parentHash" : "0x0000000000000000000000000000000000000000000000000000000000000000",
            "receiptTrie" : "0x56e81f171bcc55a6ff8345e692c0f86e5b48e01b996cadc001622fb5e363b421",
            "stateRoot" : "0x925002c3260b44e44c3edebad1cc442142b03020209df1ab8bb86752edbd2cd7",
            "timestamp" : "0x54c98c81",
            "transactionsTrie" : "0x56e81f171bcc55a6ff8345e692c0f86e5b48e01b996cadc001622fb5e363b421",
            "uncleHash" : "0x1dcc4de8dec75d7aab85b567b6ccd41ad312451b948a7413f0a142fd40d49347"
        },
        "genesisRLP" : "0xf901fcf901f7a00000000000000000000000000000000000000000000000000000000000000000a01dcc4de8dec75d7aab85b567b6ccd41ad312451b948a7413f0a142fd40d49347948888f1f195afa192cfee860698584c030f4c9db1a0925002c3260b44e44c3edebad1cc442142b03020209df1ab8bb86752edbd2cd7a056e81f171bcc55a6ff8345e692c0f86e5b48e01b996cadc001622fb5e363b421a056e81f171bcc55a6ff8345e692c0f86e5b48e01b996cadc001622fb5e363b421b90100000000000000000000000000000000000000000000000000000000000000000000000000000000000000000000000000000000000000000000000000000000000000000000000000000000000000000000000000000000000000000000000000000000000000000000000000000000000000000000000000000000000000000000000000000000000000000000000000000000000000000000000000000000000000000000000000000000000000000000000000000000000000000000000000000000000000000000000000000000000000000000000000000000000000000000000000000000000000000000000000000000000000000000000000000000008302000080832fefd8808454c98c8142a056e81f171bcc55a6ff8345e692c0f86e5b48e01b996cadc001622fb5e363b421880102030405060708c0c0",
        "lastblockhash" : "0xbf74b13319c2c3fb46e5a5a80f898884df2d87e3cf3236846fbbaba7722e2a61",
        "network" : "Byzantium",
        "postState" : {
            "0x095e7baea6a6c7c4c2dfeb977efac326af552d87" : {
                "balance" : "0x012a05f264",
                "code" : "0x7fffffffffffffffffffffffffffffffffffffffffffffffffffffffffffffffff600052600060206000a1",
                "nonce" : "0x00",
                "storage" : {
                }
            },
            "0x8888f1f195afa192cfee860698584c030f4c9db1" : {
                "balance" : "0x29a2241af62f5c6e",
                "code" : "",
                "nonce" : "0x00",
                "storage" : {
                }
            },
            "0xa94f5374fce5edbc8e2a8697c15331677e6ebf0b" : {
                "balance" : "0x012a029592",
                "code" : "",
                "nonce" : "0x01",
                "storage" : {
                }
            }
        },
        "pre" : {
            "0x095e7baea6a6c7c4c2dfeb977efac326af552d87" : {
                "balance" : "0x64",
                "code" : "0x7fffffffffffffffffffffffffffffffffffffffffffffffffffffffffffffffff600052600060206000a1",
                "nonce" : "0x00",
                "storage" : {
                }
            },
            "0xa94f5374fce5edbc8e2a8697c15331677e6ebf0b" : {
                "balance" : "0x02540be400",
                "code" : "",
                "nonce" : "0x00",
                "storage" : {
                }
            }
        }
    },
    "log1_correct_EIP150" : {
        "_info" : {
            "comment" : "",
            "filledwith" : "cpp-1.3.0+commit.6e0ce939.Linux.g++",
            "lllcversion" : "Version: 0.4.18-develop.2017.9.25+commit.a72237f2.Linux.g++",
            "source" : "src/BlockchainTestsFiller/bcValidBlockTest/log1_correctFiller.json",
            "sourceHash" : "33e5a0b44f4a53f6eb0c4576bd51e409ec97da73b1055bacfe78d5e2d9434c6d"
        },
        "blocks" : [
            {
                "blockHeader" : {
                    "bloom" : "0x00000000000000001000000000000000000000000000000000000000000000000000000000000000000000000000000000000000000000000000000000000000000000000000000000000000000000000000000000000000000000000000000000000000020000000000000000000800000000000000000000000000000000000000000000000000000000000000000000000000000000000000000000000000000000000000000004000000000000000000000000000000000000000000000000000000000000000000000000000000000000000000000000000000000020000000000040000000000000000000000000000000000000000000000000000000",
                    "coinbase" : "0x8888f1f195afa192cfee860698584c030f4c9db1",
                    "difficulty" : "0x020000",
                    "extraData" : "",
                    "gasLimit" : "0x2fefba",
                    "gasUsed" : "0x560b",
                    "hash" : "0x734b569f156d36e1f8022e04e9374749100a07669524a983a05b5762b5d13617",
                    "mixHash" : "0x73d54ff9c4696baa60db6b6c44725f42907a6306f7dc6da6dc4205e438d40512",
                    "nonce" : "0x3930c755918ae707",
                    "number" : "0x01",
                    "parentHash" : "0xf052d217bd5275a5177a3c3b7debdfe2670f1c8394b2965ccd5c1883cc1a524d",
                    "receiptTrie" : "0xc7778a7376099ee2e5c455791c1885b5c361b95713fddcbe32d97fd01334d296",
                    "stateRoot" : "0xbac6177a79e910c98d86ec31a09ae37ac2de15b754fd7bed1ba52362c49416bf",
                    "timestamp" : "0x59d7778f",
                    "transactionsTrie" : "0x498785da562aa0c5dd5937cf15f22139b0b1bcf3b4fc48986e1bb1dae9292796",
                    "uncleHash" : "0x1dcc4de8dec75d7aab85b567b6ccd41ad312451b948a7413f0a142fd40d49347"
                },
                "rlp" : "0xf90265f901f9a0f052d217bd5275a5177a3c3b7debdfe2670f1c8394b2965ccd5c1883cc1a524da01dcc4de8dec75d7aab85b567b6ccd41ad312451b948a7413f0a142fd40d49347948888f1f195afa192cfee860698584c030f4c9db1a0bac6177a79e910c98d86ec31a09ae37ac2de15b754fd7bed1ba52362c49416bfa0498785da562aa0c5dd5937cf15f22139b0b1bcf3b4fc48986e1bb1dae9292796a0c7778a7376099ee2e5c455791c1885b5c361b95713fddcbe32d97fd01334d296b90100000000000000000010000000000000000000000000000000000000000000000000000000000000000000000000000000000000000000000000000000000000000000000000000000000000000000000000000000000000000000000000000000000000000200000000000000000008000000000000000000000000000000000000000000000000000000000000000000000000000000000000000000000000000000000000000000040000000000000000000000000000000000000000000000000000000000000000000000000000000000000000000000000000000000200000000000400000000000000000000000000000000000000000000000000000008302000001832fefba82560b8459d7778f80a073d54ff9c4696baa60db6b6c44725f42907a6306f7dc6da6dc4205e438d40512883930c755918ae707f866f864800a82c35094095e7baea6a6c7c4c2dfeb977efac326af552d8785012a05f200801ca0ee0b9ec878fbd4258a9473199d8ecc32996a20c323c004e79e0cda20e0418ce3a04e6bc63927d1510bab54f37e46fa036faf4b2c465d271920d9afea1fadf7bd21c0",
                "transactions" : [
                    {
                        "data" : "",
                        "gasLimit" : "0xc350",
                        "gasPrice" : "0x0a",
                        "nonce" : "0x00",
                        "r" : "0xee0b9ec878fbd4258a9473199d8ecc32996a20c323c004e79e0cda20e0418ce3",
                        "s" : "0x4e6bc63927d1510bab54f37e46fa036faf4b2c465d271920d9afea1fadf7bd21",
                        "to" : "0x095e7baea6a6c7c4c2dfeb977efac326af552d87",
                        "v" : "0x1c",
                        "value" : "0x012a05f200"
                    }
                ],
                "uncleHeaders" : [
                ]
            }
        ],
        "genesisBlockHeader" : {
            "bloom" : "0x00000000000000000000000000000000000000000000000000000000000000000000000000000000000000000000000000000000000000000000000000000000000000000000000000000000000000000000000000000000000000000000000000000000000000000000000000000000000000000000000000000000000000000000000000000000000000000000000000000000000000000000000000000000000000000000000000000000000000000000000000000000000000000000000000000000000000000000000000000000000000000000000000000000000000000000000000000000000000000000000000000000000000000000000000000000",
            "coinbase" : "0x8888f1f195afa192cfee860698584c030f4c9db1",
            "difficulty" : "0x020000",
            "extraData" : "0x42",
            "gasLimit" : "0x2fefd8",
            "gasUsed" : "0x00",
            "hash" : "0xf052d217bd5275a5177a3c3b7debdfe2670f1c8394b2965ccd5c1883cc1a524d",
            "mixHash" : "0x56e81f171bcc55a6ff8345e692c0f86e5b48e01b996cadc001622fb5e363b421",
            "nonce" : "0x0102030405060708",
            "number" : "0x00",
            "parentHash" : "0x0000000000000000000000000000000000000000000000000000000000000000",
            "receiptTrie" : "0x56e81f171bcc55a6ff8345e692c0f86e5b48e01b996cadc001622fb5e363b421",
            "stateRoot" : "0x925002c3260b44e44c3edebad1cc442142b03020209df1ab8bb86752edbd2cd7",
            "timestamp" : "0x54c98c81",
            "transactionsTrie" : "0x56e81f171bcc55a6ff8345e692c0f86e5b48e01b996cadc001622fb5e363b421",
            "uncleHash" : "0x1dcc4de8dec75d7aab85b567b6ccd41ad312451b948a7413f0a142fd40d49347"
        },
        "genesisRLP" : "0xf901fcf901f7a00000000000000000000000000000000000000000000000000000000000000000a01dcc4de8dec75d7aab85b567b6ccd41ad312451b948a7413f0a142fd40d49347948888f1f195afa192cfee860698584c030f4c9db1a0925002c3260b44e44c3edebad1cc442142b03020209df1ab8bb86752edbd2cd7a056e81f171bcc55a6ff8345e692c0f86e5b48e01b996cadc001622fb5e363b421a056e81f171bcc55a6ff8345e692c0f86e5b48e01b996cadc001622fb5e363b421b90100000000000000000000000000000000000000000000000000000000000000000000000000000000000000000000000000000000000000000000000000000000000000000000000000000000000000000000000000000000000000000000000000000000000000000000000000000000000000000000000000000000000000000000000000000000000000000000000000000000000000000000000000000000000000000000000000000000000000000000000000000000000000000000000000000000000000000000000000000000000000000000000000000000000000000000000000000000000000000000000000000000000000000000000000000000008302000080832fefd8808454c98c8142a056e81f171bcc55a6ff8345e692c0f86e5b48e01b996cadc001622fb5e363b421880102030405060708c0c0",
        "lastblockhash" : "0x734b569f156d36e1f8022e04e9374749100a07669524a983a05b5762b5d13617",
        "network" : "EIP150",
        "postState" : {
            "0x095e7baea6a6c7c4c2dfeb977efac326af552d87" : {
                "balance" : "0x012a05f264",
                "code" : "0x7fffffffffffffffffffffffffffffffffffffffffffffffffffffffffffffffff600052600060206000a1",
                "nonce" : "0x00",
                "storage" : {
                }
            },
            "0x8888f1f195afa192cfee860698584c030f4c9db1" : {
                "balance" : "0x4563918244f75c6e",
                "code" : "",
                "nonce" : "0x00",
                "storage" : {
                }
            },
            "0xa94f5374fce5edbc8e2a8697c15331677e6ebf0b" : {
                "balance" : "0x012a029592",
                "code" : "",
                "nonce" : "0x01",
                "storage" : {
                }
            }
        },
        "pre" : {
            "0x095e7baea6a6c7c4c2dfeb977efac326af552d87" : {
                "balance" : "0x64",
                "code" : "0x7fffffffffffffffffffffffffffffffffffffffffffffffffffffffffffffffff600052600060206000a1",
                "nonce" : "0x00",
                "storage" : {
                }
            },
            "0xa94f5374fce5edbc8e2a8697c15331677e6ebf0b" : {
                "balance" : "0x02540be400",
                "code" : "",
                "nonce" : "0x00",
                "storage" : {
                }
            }
        }
    },
    "log1_correct_EIP158" : {
        "_info" : {
            "comment" : "",
            "filledwith" : "cpp-1.3.0+commit.6e0ce939.Linux.g++",
            "lllcversion" : "Version: 0.4.18-develop.2017.9.25+commit.a72237f2.Linux.g++",
            "source" : "src/BlockchainTestsFiller/bcValidBlockTest/log1_correctFiller.json",
            "sourceHash" : "33e5a0b44f4a53f6eb0c4576bd51e409ec97da73b1055bacfe78d5e2d9434c6d"
        },
        "blocks" : [
            {
                "blockHeader" : {
                    "bloom" : "0x00000000000000001000000000000000000000000000000000000000000000000000000000000000000000000000000000000000000000000000000000000000000000000000000000000000000000000000000000000000000000000000000000000000020000000000000000000800000000000000000000000000000000000000000000000000000000000000000000000000000000000000000000000000000000000000000004000000000000000000000000000000000000000000000000000000000000000000000000000000000000000000000000000000000020000000000040000000000000000000000000000000000000000000000000000000",
                    "coinbase" : "0x8888f1f195afa192cfee860698584c030f4c9db1",
                    "difficulty" : "0x020000",
                    "extraData" : "",
                    "gasLimit" : "0x2fefba",
                    "gasUsed" : "0x560b",
                    "hash" : "0x9d43ac4d9e712b93354077a2730236742d10082c9d7e29b30294d125fc319d3f",
                    "mixHash" : "0x2c191e931a9b9af13050c14d92e2f8ee1c01f3d9b53203531d2130f432025cd5",
                    "nonce" : "0x33392dfca8088f85",
                    "number" : "0x01",
                    "parentHash" : "0xf052d217bd5275a5177a3c3b7debdfe2670f1c8394b2965ccd5c1883cc1a524d",
                    "receiptTrie" : "0xc7778a7376099ee2e5c455791c1885b5c361b95713fddcbe32d97fd01334d296",
                    "stateRoot" : "0xbac6177a79e910c98d86ec31a09ae37ac2de15b754fd7bed1ba52362c49416bf",
                    "timestamp" : "0x59d7778f",
                    "transactionsTrie" : "0x498785da562aa0c5dd5937cf15f22139b0b1bcf3b4fc48986e1bb1dae9292796",
                    "uncleHash" : "0x1dcc4de8dec75d7aab85b567b6ccd41ad312451b948a7413f0a142fd40d49347"
                },
                "rlp" : "0xf90265f901f9a0f052d217bd5275a5177a3c3b7debdfe2670f1c8394b2965ccd5c1883cc1a524da01dcc4de8dec75d7aab85b567b6ccd41ad312451b948a7413f0a142fd40d49347948888f1f195afa192cfee860698584c030f4c9db1a0bac6177a79e910c98d86ec31a09ae37ac2de15b754fd7bed1ba52362c49416bfa0498785da562aa0c5dd5937cf15f22139b0b1bcf3b4fc48986e1bb1dae9292796a0c7778a7376099ee2e5c455791c1885b5c361b95713fddcbe32d97fd01334d296b90100000000000000000010000000000000000000000000000000000000000000000000000000000000000000000000000000000000000000000000000000000000000000000000000000000000000000000000000000000000000000000000000000000000000200000000000000000008000000000000000000000000000000000000000000000000000000000000000000000000000000000000000000000000000000000000000000040000000000000000000000000000000000000000000000000000000000000000000000000000000000000000000000000000000000200000000000400000000000000000000000000000000000000000000000000000008302000001832fefba82560b8459d7778f80a02c191e931a9b9af13050c14d92e2f8ee1c01f3d9b53203531d2130f432025cd58833392dfca8088f85f866f864800a82c35094095e7baea6a6c7c4c2dfeb977efac326af552d8785012a05f200801ca0ee0b9ec878fbd4258a9473199d8ecc32996a20c323c004e79e0cda20e0418ce3a04e6bc63927d1510bab54f37e46fa036faf4b2c465d271920d9afea1fadf7bd21c0",
                "transactions" : [
                    {
                        "data" : "",
                        "gasLimit" : "0xc350",
                        "gasPrice" : "0x0a",
                        "nonce" : "0x00",
                        "r" : "0xee0b9ec878fbd4258a9473199d8ecc32996a20c323c004e79e0cda20e0418ce3",
                        "s" : "0x4e6bc63927d1510bab54f37e46fa036faf4b2c465d271920d9afea1fadf7bd21",
                        "to" : "0x095e7baea6a6c7c4c2dfeb977efac326af552d87",
                        "v" : "0x1c",
                        "value" : "0x012a05f200"
                    }
                ],
                "uncleHeaders" : [
                ]
            }
        ],
        "genesisBlockHeader" : {
            "bloom" : "0x00000000000000000000000000000000000000000000000000000000000000000000000000000000000000000000000000000000000000000000000000000000000000000000000000000000000000000000000000000000000000000000000000000000000000000000000000000000000000000000000000000000000000000000000000000000000000000000000000000000000000000000000000000000000000000000000000000000000000000000000000000000000000000000000000000000000000000000000000000000000000000000000000000000000000000000000000000000000000000000000000000000000000000000000000000000",
            "coinbase" : "0x8888f1f195afa192cfee860698584c030f4c9db1",
            "difficulty" : "0x020000",
            "extraData" : "0x42",
            "gasLimit" : "0x2fefd8",
            "gasUsed" : "0x00",
            "hash" : "0xf052d217bd5275a5177a3c3b7debdfe2670f1c8394b2965ccd5c1883cc1a524d",
            "mixHash" : "0x56e81f171bcc55a6ff8345e692c0f86e5b48e01b996cadc001622fb5e363b421",
            "nonce" : "0x0102030405060708",
            "number" : "0x00",
            "parentHash" : "0x0000000000000000000000000000000000000000000000000000000000000000",
            "receiptTrie" : "0x56e81f171bcc55a6ff8345e692c0f86e5b48e01b996cadc001622fb5e363b421",
            "stateRoot" : "0x925002c3260b44e44c3edebad1cc442142b03020209df1ab8bb86752edbd2cd7",
            "timestamp" : "0x54c98c81",
            "transactionsTrie" : "0x56e81f171bcc55a6ff8345e692c0f86e5b48e01b996cadc001622fb5e363b421",
            "uncleHash" : "0x1dcc4de8dec75d7aab85b567b6ccd41ad312451b948a7413f0a142fd40d49347"
        },
        "genesisRLP" : "0xf901fcf901f7a00000000000000000000000000000000000000000000000000000000000000000a01dcc4de8dec75d7aab85b567b6ccd41ad312451b948a7413f0a142fd40d49347948888f1f195afa192cfee860698584c030f4c9db1a0925002c3260b44e44c3edebad1cc442142b03020209df1ab8bb86752edbd2cd7a056e81f171bcc55a6ff8345e692c0f86e5b48e01b996cadc001622fb5e363b421a056e81f171bcc55a6ff8345e692c0f86e5b48e01b996cadc001622fb5e363b421b90100000000000000000000000000000000000000000000000000000000000000000000000000000000000000000000000000000000000000000000000000000000000000000000000000000000000000000000000000000000000000000000000000000000000000000000000000000000000000000000000000000000000000000000000000000000000000000000000000000000000000000000000000000000000000000000000000000000000000000000000000000000000000000000000000000000000000000000000000000000000000000000000000000000000000000000000000000000000000000000000000000000000000000000000000000000008302000080832fefd8808454c98c8142a056e81f171bcc55a6ff8345e692c0f86e5b48e01b996cadc001622fb5e363b421880102030405060708c0c0",
        "lastblockhash" : "0x9d43ac4d9e712b93354077a2730236742d10082c9d7e29b30294d125fc319d3f",
        "network" : "EIP158",
        "postState" : {
            "0x095e7baea6a6c7c4c2dfeb977efac326af552d87" : {
                "balance" : "0x012a05f264",
                "code" : "0x7fffffffffffffffffffffffffffffffffffffffffffffffffffffffffffffffff600052600060206000a1",
                "nonce" : "0x00",
                "storage" : {
                }
            },
            "0x8888f1f195afa192cfee860698584c030f4c9db1" : {
                "balance" : "0x4563918244f75c6e",
                "code" : "",
                "nonce" : "0x00",
                "storage" : {
                }
            },
            "0xa94f5374fce5edbc8e2a8697c15331677e6ebf0b" : {
                "balance" : "0x012a029592",
                "code" : "",
                "nonce" : "0x01",
                "storage" : {
                }
            }
        },
        "pre" : {
            "0x095e7baea6a6c7c4c2dfeb977efac326af552d87" : {
                "balance" : "0x64",
                "code" : "0x7fffffffffffffffffffffffffffffffffffffffffffffffffffffffffffffffff600052600060206000a1",
                "nonce" : "0x00",
                "storage" : {
                }
            },
            "0xa94f5374fce5edbc8e2a8697c15331677e6ebf0b" : {
                "balance" : "0x02540be400",
                "code" : "",
                "nonce" : "0x00",
                "storage" : {
                }
            }
        }
    },
    "log1_correct_Frontier" : {
        "_info" : {
            "comment" : "",
            "filledwith" : "cpp-1.3.0+commit.6e0ce939.Linux.g++",
            "lllcversion" : "Version: 0.4.18-develop.2017.9.25+commit.a72237f2.Linux.g++",
            "source" : "src/BlockchainTestsFiller/bcValidBlockTest/log1_correctFiller.json",
            "sourceHash" : "33e5a0b44f4a53f6eb0c4576bd51e409ec97da73b1055bacfe78d5e2d9434c6d"
        },
        "blocks" : [
            {
                "blockHeader" : {
                    "bloom" : "0x00000000000000001000000000000000000000000000000000000000000000000000000000000000000000000000000000000000000000000000000000000000000000000000000000000000000000000000000000000000000000000000000000000000020000000000000000000800000000000000000000000000000000000000000000000000000000000000000000000000000000000000000000000000000000000000000004000000000000000000000000000000000000000000000000000000000000000000000000000000000000000000000000000000000020000000000040000000000000000000000000000000000000000000000000000000",
                    "coinbase" : "0x8888f1f195afa192cfee860698584c030f4c9db1",
                    "difficulty" : "0x020000",
                    "extraData" : "",
                    "gasLimit" : "0x2fefba",
                    "gasUsed" : "0x560b",
                    "hash" : "0x6cc4c91cf1fad6f9ab6e4e755a69a1905a5f0b4557544a6e95b8ed397b2a70cb",
                    "mixHash" : "0x7d2f40d2e65212df97a38ec32bfa167392c16aa65920490cb27337c243bf588e",
                    "nonce" : "0xe17e271b51175ae5",
                    "number" : "0x01",
                    "parentHash" : "0xf052d217bd5275a5177a3c3b7debdfe2670f1c8394b2965ccd5c1883cc1a524d",
                    "receiptTrie" : "0xc7778a7376099ee2e5c455791c1885b5c361b95713fddcbe32d97fd01334d296",
                    "stateRoot" : "0xbac6177a79e910c98d86ec31a09ae37ac2de15b754fd7bed1ba52362c49416bf",
                    "timestamp" : "0x59d7778b",
                    "transactionsTrie" : "0x498785da562aa0c5dd5937cf15f22139b0b1bcf3b4fc48986e1bb1dae9292796",
                    "uncleHash" : "0x1dcc4de8dec75d7aab85b567b6ccd41ad312451b948a7413f0a142fd40d49347"
                },
                "rlp" : "0xf90265f901f9a0f052d217bd5275a5177a3c3b7debdfe2670f1c8394b2965ccd5c1883cc1a524da01dcc4de8dec75d7aab85b567b6ccd41ad312451b948a7413f0a142fd40d49347948888f1f195afa192cfee860698584c030f4c9db1a0bac6177a79e910c98d86ec31a09ae37ac2de15b754fd7bed1ba52362c49416bfa0498785da562aa0c5dd5937cf15f22139b0b1bcf3b4fc48986e1bb1dae9292796a0c7778a7376099ee2e5c455791c1885b5c361b95713fddcbe32d97fd01334d296b90100000000000000000010000000000000000000000000000000000000000000000000000000000000000000000000000000000000000000000000000000000000000000000000000000000000000000000000000000000000000000000000000000000000000200000000000000000008000000000000000000000000000000000000000000000000000000000000000000000000000000000000000000000000000000000000000000040000000000000000000000000000000000000000000000000000000000000000000000000000000000000000000000000000000000200000000000400000000000000000000000000000000000000000000000000000008302000001832fefba82560b8459d7778b80a07d2f40d2e65212df97a38ec32bfa167392c16aa65920490cb27337c243bf588e88e17e271b51175ae5f866f864800a82c35094095e7baea6a6c7c4c2dfeb977efac326af552d8785012a05f200801ca0ee0b9ec878fbd4258a9473199d8ecc32996a20c323c004e79e0cda20e0418ce3a04e6bc63927d1510bab54f37e46fa036faf4b2c465d271920d9afea1fadf7bd21c0",
                "transactions" : [
                    {
                        "data" : "",
                        "gasLimit" : "0xc350",
                        "gasPrice" : "0x0a",
                        "nonce" : "0x00",
                        "r" : "0xee0b9ec878fbd4258a9473199d8ecc32996a20c323c004e79e0cda20e0418ce3",
                        "s" : "0x4e6bc63927d1510bab54f37e46fa036faf4b2c465d271920d9afea1fadf7bd21",
                        "to" : "0x095e7baea6a6c7c4c2dfeb977efac326af552d87",
                        "v" : "0x1c",
                        "value" : "0x012a05f200"
                    }
                ],
                "uncleHeaders" : [
                ]
            }
        ],
        "genesisBlockHeader" : {
            "bloom" : "0x00000000000000000000000000000000000000000000000000000000000000000000000000000000000000000000000000000000000000000000000000000000000000000000000000000000000000000000000000000000000000000000000000000000000000000000000000000000000000000000000000000000000000000000000000000000000000000000000000000000000000000000000000000000000000000000000000000000000000000000000000000000000000000000000000000000000000000000000000000000000000000000000000000000000000000000000000000000000000000000000000000000000000000000000000000000",
            "coinbase" : "0x8888f1f195afa192cfee860698584c030f4c9db1",
            "difficulty" : "0x020000",
            "extraData" : "0x42",
            "gasLimit" : "0x2fefd8",
            "gasUsed" : "0x00",
            "hash" : "0xf052d217bd5275a5177a3c3b7debdfe2670f1c8394b2965ccd5c1883cc1a524d",
            "mixHash" : "0x56e81f171bcc55a6ff8345e692c0f86e5b48e01b996cadc001622fb5e363b421",
            "nonce" : "0x0102030405060708",
            "number" : "0x00",
            "parentHash" : "0x0000000000000000000000000000000000000000000000000000000000000000",
            "receiptTrie" : "0x56e81f171bcc55a6ff8345e692c0f86e5b48e01b996cadc001622fb5e363b421",
            "stateRoot" : "0x925002c3260b44e44c3edebad1cc442142b03020209df1ab8bb86752edbd2cd7",
            "timestamp" : "0x54c98c81",
            "transactionsTrie" : "0x56e81f171bcc55a6ff8345e692c0f86e5b48e01b996cadc001622fb5e363b421",
            "uncleHash" : "0x1dcc4de8dec75d7aab85b567b6ccd41ad312451b948a7413f0a142fd40d49347"
        },
        "genesisRLP" : "0xf901fcf901f7a00000000000000000000000000000000000000000000000000000000000000000a01dcc4de8dec75d7aab85b567b6ccd41ad312451b948a7413f0a142fd40d49347948888f1f195afa192cfee860698584c030f4c9db1a0925002c3260b44e44c3edebad1cc442142b03020209df1ab8bb86752edbd2cd7a056e81f171bcc55a6ff8345e692c0f86e5b48e01b996cadc001622fb5e363b421a056e81f171bcc55a6ff8345e692c0f86e5b48e01b996cadc001622fb5e363b421b90100000000000000000000000000000000000000000000000000000000000000000000000000000000000000000000000000000000000000000000000000000000000000000000000000000000000000000000000000000000000000000000000000000000000000000000000000000000000000000000000000000000000000000000000000000000000000000000000000000000000000000000000000000000000000000000000000000000000000000000000000000000000000000000000000000000000000000000000000000000000000000000000000000000000000000000000000000000000000000000000000000000000000000000000000000000008302000080832fefd8808454c98c8142a056e81f171bcc55a6ff8345e692c0f86e5b48e01b996cadc001622fb5e363b421880102030405060708c0c0",
        "lastblockhash" : "0x6cc4c91cf1fad6f9ab6e4e755a69a1905a5f0b4557544a6e95b8ed397b2a70cb",
        "network" : "Frontier",
        "postState" : {
            "0x095e7baea6a6c7c4c2dfeb977efac326af552d87" : {
                "balance" : "0x012a05f264",
                "code" : "0x7fffffffffffffffffffffffffffffffffffffffffffffffffffffffffffffffff600052600060206000a1",
                "nonce" : "0x00",
                "storage" : {
                }
            },
            "0x8888f1f195afa192cfee860698584c030f4c9db1" : {
                "balance" : "0x4563918244f75c6e",
                "code" : "",
                "nonce" : "0x00",
                "storage" : {
                }
            },
            "0xa94f5374fce5edbc8e2a8697c15331677e6ebf0b" : {
                "balance" : "0x012a029592",
                "code" : "",
                "nonce" : "0x01",
                "storage" : {
                }
            }
        },
        "pre" : {
            "0x095e7baea6a6c7c4c2dfeb977efac326af552d87" : {
                "balance" : "0x64",
                "code" : "0x7fffffffffffffffffffffffffffffffffffffffffffffffffffffffffffffffff600052600060206000a1",
                "nonce" : "0x00",
                "storage" : {
                }
            },
            "0xa94f5374fce5edbc8e2a8697c15331677e6ebf0b" : {
                "balance" : "0x02540be400",
                "code" : "",
                "nonce" : "0x00",
                "storage" : {
                }
            }
        }
    },
    "log1_correct_Homestead" : {
        "_info" : {
            "comment" : "",
            "filledwith" : "cpp-1.3.0+commit.6e0ce939.Linux.g++",
            "lllcversion" : "Version: 0.4.18-develop.2017.9.25+commit.a72237f2.Linux.g++",
            "source" : "src/BlockchainTestsFiller/bcValidBlockTest/log1_correctFiller.json",
            "sourceHash" : "33e5a0b44f4a53f6eb0c4576bd51e409ec97da73b1055bacfe78d5e2d9434c6d"
        },
        "blocks" : [
            {
                "blockHeader" : {
                    "bloom" : "0x00000000000000001000000000000000000000000000000000000000000000000000000000000000000000000000000000000000000000000000000000000000000000000000000000000000000000000000000000000000000000000000000000000000020000000000000000000800000000000000000000000000000000000000000000000000000000000000000000000000000000000000000000000000000000000000000004000000000000000000000000000000000000000000000000000000000000000000000000000000000000000000000000000000000020000000000040000000000000000000000000000000000000000000000000000000",
                    "coinbase" : "0x8888f1f195afa192cfee860698584c030f4c9db1",
                    "difficulty" : "0x020000",
                    "extraData" : "",
                    "gasLimit" : "0x2fefba",
                    "gasUsed" : "0x560b",
                    "hash" : "0x6fbe83357f762f75cf3b82e19bf6cfd3e880669b83ccd92964120fddb878efc3",
                    "mixHash" : "0xb7c8da754ce15fd4a4ec9d9d47ddb95f456b20830873b725bb2494ca2c9d3c4d",
                    "nonce" : "0x65d66858a70a93fb",
                    "number" : "0x01",
                    "parentHash" : "0xf052d217bd5275a5177a3c3b7debdfe2670f1c8394b2965ccd5c1883cc1a524d",
                    "receiptTrie" : "0xc7778a7376099ee2e5c455791c1885b5c361b95713fddcbe32d97fd01334d296",
                    "stateRoot" : "0xbac6177a79e910c98d86ec31a09ae37ac2de15b754fd7bed1ba52362c49416bf",
                    "timestamp" : "0x59d7778d",
                    "transactionsTrie" : "0x498785da562aa0c5dd5937cf15f22139b0b1bcf3b4fc48986e1bb1dae9292796",
                    "uncleHash" : "0x1dcc4de8dec75d7aab85b567b6ccd41ad312451b948a7413f0a142fd40d49347"
                },
                "rlp" : "0xf90265f901f9a0f052d217bd5275a5177a3c3b7debdfe2670f1c8394b2965ccd5c1883cc1a524da01dcc4de8dec75d7aab85b567b6ccd41ad312451b948a7413f0a142fd40d49347948888f1f195afa192cfee860698584c030f4c9db1a0bac6177a79e910c98d86ec31a09ae37ac2de15b754fd7bed1ba52362c49416bfa0498785da562aa0c5dd5937cf15f22139b0b1bcf3b4fc48986e1bb1dae9292796a0c7778a7376099ee2e5c455791c1885b5c361b95713fddcbe32d97fd01334d296b90100000000000000000010000000000000000000000000000000000000000000000000000000000000000000000000000000000000000000000000000000000000000000000000000000000000000000000000000000000000000000000000000000000000000200000000000000000008000000000000000000000000000000000000000000000000000000000000000000000000000000000000000000000000000000000000000000040000000000000000000000000000000000000000000000000000000000000000000000000000000000000000000000000000000000200000000000400000000000000000000000000000000000000000000000000000008302000001832fefba82560b8459d7778d80a0b7c8da754ce15fd4a4ec9d9d47ddb95f456b20830873b725bb2494ca2c9d3c4d8865d66858a70a93fbf866f864800a82c35094095e7baea6a6c7c4c2dfeb977efac326af552d8785012a05f200801ca0ee0b9ec878fbd4258a9473199d8ecc32996a20c323c004e79e0cda20e0418ce3a04e6bc63927d1510bab54f37e46fa036faf4b2c465d271920d9afea1fadf7bd21c0",
                "transactions" : [
                    {
                        "data" : "",
                        "gasLimit" : "0xc350",
                        "gasPrice" : "0x0a",
                        "nonce" : "0x00",
                        "r" : "0xee0b9ec878fbd4258a9473199d8ecc32996a20c323c004e79e0cda20e0418ce3",
                        "s" : "0x4e6bc63927d1510bab54f37e46fa036faf4b2c465d271920d9afea1fadf7bd21",
                        "to" : "0x095e7baea6a6c7c4c2dfeb977efac326af552d87",
                        "v" : "0x1c",
                        "value" : "0x012a05f200"
                    }
                ],
                "uncleHeaders" : [
                ]
            }
        ],
        "genesisBlockHeader" : {
            "bloom" : "0x00000000000000000000000000000000000000000000000000000000000000000000000000000000000000000000000000000000000000000000000000000000000000000000000000000000000000000000000000000000000000000000000000000000000000000000000000000000000000000000000000000000000000000000000000000000000000000000000000000000000000000000000000000000000000000000000000000000000000000000000000000000000000000000000000000000000000000000000000000000000000000000000000000000000000000000000000000000000000000000000000000000000000000000000000000000",
            "coinbase" : "0x8888f1f195afa192cfee860698584c030f4c9db1",
            "difficulty" : "0x020000",
            "extraData" : "0x42",
            "gasLimit" : "0x2fefd8",
            "gasUsed" : "0x00",
            "hash" : "0xf052d217bd5275a5177a3c3b7debdfe2670f1c8394b2965ccd5c1883cc1a524d",
            "mixHash" : "0x56e81f171bcc55a6ff8345e692c0f86e5b48e01b996cadc001622fb5e363b421",
            "nonce" : "0x0102030405060708",
            "number" : "0x00",
            "parentHash" : "0x0000000000000000000000000000000000000000000000000000000000000000",
            "receiptTrie" : "0x56e81f171bcc55a6ff8345e692c0f86e5b48e01b996cadc001622fb5e363b421",
            "stateRoot" : "0x925002c3260b44e44c3edebad1cc442142b03020209df1ab8bb86752edbd2cd7",
            "timestamp" : "0x54c98c81",
            "transactionsTrie" : "0x56e81f171bcc55a6ff8345e692c0f86e5b48e01b996cadc001622fb5e363b421",
            "uncleHash" : "0x1dcc4de8dec75d7aab85b567b6ccd41ad312451b948a7413f0a142fd40d49347"
        },
        "genesisRLP" : "0xf901fcf901f7a00000000000000000000000000000000000000000000000000000000000000000a01dcc4de8dec75d7aab85b567b6ccd41ad312451b948a7413f0a142fd40d49347948888f1f195afa192cfee860698584c030f4c9db1a0925002c3260b44e44c3edebad1cc442142b03020209df1ab8bb86752edbd2cd7a056e81f171bcc55a6ff8345e692c0f86e5b48e01b996cadc001622fb5e363b421a056e81f171bcc55a6ff8345e692c0f86e5b48e01b996cadc001622fb5e363b421b90100000000000000000000000000000000000000000000000000000000000000000000000000000000000000000000000000000000000000000000000000000000000000000000000000000000000000000000000000000000000000000000000000000000000000000000000000000000000000000000000000000000000000000000000000000000000000000000000000000000000000000000000000000000000000000000000000000000000000000000000000000000000000000000000000000000000000000000000000000000000000000000000000000000000000000000000000000000000000000000000000000000000000000000000000000000008302000080832fefd8808454c98c8142a056e81f171bcc55a6ff8345e692c0f86e5b48e01b996cadc001622fb5e363b421880102030405060708c0c0",
        "lastblockhash" : "0x6fbe83357f762f75cf3b82e19bf6cfd3e880669b83ccd92964120fddb878efc3",
        "network" : "Homestead",
        "postState" : {
            "0x095e7baea6a6c7c4c2dfeb977efac326af552d87" : {
                "balance" : "0x012a05f264",
                "code" : "0x7fffffffffffffffffffffffffffffffffffffffffffffffffffffffffffffffff600052600060206000a1",
                "nonce" : "0x00",
                "storage" : {
                }
            },
            "0x8888f1f195afa192cfee860698584c030f4c9db1" : {
                "balance" : "0x4563918244f75c6e",
                "code" : "",
                "nonce" : "0x00",
                "storage" : {
                }
            },
            "0xa94f5374fce5edbc8e2a8697c15331677e6ebf0b" : {
                "balance" : "0x012a029592",
                "code" : "",
                "nonce" : "0x01",
                "storage" : {
                }
            }
        },
        "pre" : {
            "0x095e7baea6a6c7c4c2dfeb977efac326af552d87" : {
                "balance" : "0x64",
                "code" : "0x7fffffffffffffffffffffffffffffffffffffffffffffffffffffffffffffffff600052600060206000a1",
                "nonce" : "0x00",
                "storage" : {
                }
            },
            "0xa94f5374fce5edbc8e2a8697c15331677e6ebf0b" : {
                "balance" : "0x02540be400",
                "code" : "",
                "nonce" : "0x00",
                "storage" : {
                }
            }
        }
    }
}