{
    "SimpleTx_Byzantium" : {
        "_info" : {
            "comment" : "",
            "filledwith" : "cpp-1.3.0+commit.26123543.Linux.g++",
            "source" : "/src/BlockchainTestsFiller/bcValidBlockTest/SimpleTxFiller.json"
        },
        "blocks" : [
            {
                "blockHeader" : {
                    "bloom" : "0x00000000000000000000000000000000000000000000000000000000000000000000000000000000000000000000000000000000000000000000000000000000000000000000000000000000000000000000000000000000000000000000000000000000000000000000000000000000000000000000000000000000000000000000000000000000000000000000000000000000000000000000000000000000000000000000000000000000000000000000000000000000000000000000000000000000000000000000000000000000000000000000000000000000000000000000000000000000000000000000000000000000000000000000000000000000",
                    "coinbase" : "0x8888f1f195afa192cfee860698584c030f4c9db1",
                    "difficulty" : "0x020000",
                    "extraData" : "",
                    "gasLimit" : "0x2fefd8",
                    "gasUsed" : "0x5208",
                    "hash" : "0x2a4ab6363ab74a1ea7ecd42df41cdb819644c4debb607534453972b9a5f3b097",
                    "mixHash" : "0x4b0e4c0ecbc0d95401f35d2a9f18d3dc7f413ff28157443d033e4d8446ec09e3",
                    "nonce" : "0x16f9537c3c9260a7",
                    "number" : "0x01",
                    "parentHash" : "0x7285abd5b24742f184ad676e31f6054663b3529bc35ea2fcad8a3e0f642a46f7",
                    "receiptTrie" : "0x056b23fbba480696b65fe5a59b8f2148a1299103c4f57df839233af2cf4ca2d2",
                    "stateRoot" : "0x04bf6e1ee1eae8112e303553ea7b32a2ef5ba4fb927c7eebf1ba10f84d5a9677",
                    "timestamp" : "0x5981d5c5",
                    "transactionsTrie" : "0x53d5b71a8fbb9590de82d69dfa4ac31923b0c8afce0d30d0d8d1e931f25030dc",
                    "uncleHash" : "0x1dcc4de8dec75d7aab85b567b6ccd41ad312451b948a7413f0a142fd40d49347"
                },
                "rlp" : "0xf90260f901f9a07285abd5b24742f184ad676e31f6054663b3529bc35ea2fcad8a3e0f642a46f7a01dcc4de8dec75d7aab85b567b6ccd41ad312451b948a7413f0a142fd40d49347948888f1f195afa192cfee860698584c030f4c9db1a004bf6e1ee1eae8112e303553ea7b32a2ef5ba4fb927c7eebf1ba10f84d5a9677a053d5b71a8fbb9590de82d69dfa4ac31923b0c8afce0d30d0d8d1e931f25030dca0056b23fbba480696b65fe5a59b8f2148a1299103c4f57df839233af2cf4ca2d2b90100000000000000000000000000000000000000000000000000000000000000000000000000000000000000000000000000000000000000000000000000000000000000000000000000000000000000000000000000000000000000000000000000000000000000000000000000000000000000000000000000000000000000000000000000000000000000000000000000000000000000000000000000000000000000000000000000000000000000000000000000000000000000000000000000000000000000000000000000000000000000000000000000000000000000000000000000000000000000000000000000000000000000000000000000000000008302000001832fefd8825208845981d5c580a04b0e4c0ecbc0d95401f35d2a9f18d3dc7f413ff28157443d033e4d8446ec09e38816f9537c3c9260a7f861f85f800a82c35094095e7baea6a6c7c4c2dfeb977efac326af552d870a801ba0f3266921c93d600c43f6fa4724b7abae079b35b9e95df592f95f9f3445e94c88a012f977552ebdb7a492cf35f3106df16ccb4576ebad4113056ee1f52cbe4978c1c0",
                "transactions" : [
                    {
                        "data" : "",
                        "gasLimit" : "0xc350",
                        "gasPrice" : "0x0a",
                        "nonce" : "0x00",
                        "r" : "0xf3266921c93d600c43f6fa4724b7abae079b35b9e95df592f95f9f3445e94c88",
                        "s" : "0x12f977552ebdb7a492cf35f3106df16ccb4576ebad4113056ee1f52cbe4978c1",
                        "to" : "0x095e7baea6a6c7c4c2dfeb977efac326af552d87",
                        "v" : "0x1b",
                        "value" : "0x0a"
                    }
                ],
                "uncleHeaders" : [
                ]
            }
        ],
        "genesisBlockHeader" : {
            "bloom" : "0x00000000000000000000000000000000000000000000000000000000000000000000000000000000000000000000000000000000000000000000000000000000000000000000000000000000000000000000000000000000000000000000000000000000000000000000000000000000000000000000000000000000000000000000000000000000000000000000000000000000000000000000000000000000000000000000000000000000000000000000000000000000000000000000000000000000000000000000000000000000000000000000000000000000000000000000000000000000000000000000000000000000000000000000000000000000",
            "coinbase" : "0x8888f1f195afa192cfee860698584c030f4c9db1",
            "difficulty" : "0x020000",
            "extraData" : "0x42",
            "gasLimit" : "0x2fefd8",
            "gasUsed" : "0x00",
            "hash" : "0x7285abd5b24742f184ad676e31f6054663b3529bc35ea2fcad8a3e0f642a46f7",
            "mixHash" : "0x56e81f171bcc55a6ff8345e692c0f86e5b48e01b996cadc001622fb5e363b421",
            "nonce" : "0x0102030405060708",
            "number" : "0x00",
            "parentHash" : "0x0000000000000000000000000000000000000000000000000000000000000000",
            "receiptTrie" : "0x56e81f171bcc55a6ff8345e692c0f86e5b48e01b996cadc001622fb5e363b421",
            "stateRoot" : "0xcafd881ab193703b83816c49ff6c2bf6ba6f464a1be560c42106128c8dbc35e7",
            "timestamp" : "0x54c98c81",
            "transactionsTrie" : "0x56e81f171bcc55a6ff8345e692c0f86e5b48e01b996cadc001622fb5e363b421",
            "uncleHash" : "0x1dcc4de8dec75d7aab85b567b6ccd41ad312451b948a7413f0a142fd40d49347"
        },
        "genesisRLP" : "0xf901fcf901f7a00000000000000000000000000000000000000000000000000000000000000000a01dcc4de8dec75d7aab85b567b6ccd41ad312451b948a7413f0a142fd40d49347948888f1f195afa192cfee860698584c030f4c9db1a0cafd881ab193703b83816c49ff6c2bf6ba6f464a1be560c42106128c8dbc35e7a056e81f171bcc55a6ff8345e692c0f86e5b48e01b996cadc001622fb5e363b421a056e81f171bcc55a6ff8345e692c0f86e5b48e01b996cadc001622fb5e363b421b90100000000000000000000000000000000000000000000000000000000000000000000000000000000000000000000000000000000000000000000000000000000000000000000000000000000000000000000000000000000000000000000000000000000000000000000000000000000000000000000000000000000000000000000000000000000000000000000000000000000000000000000000000000000000000000000000000000000000000000000000000000000000000000000000000000000000000000000000000000000000000000000000000000000000000000000000000000000000000000000000000000000000000000000000000000000008302000080832fefd8808454c98c8142a056e81f171bcc55a6ff8345e692c0f86e5b48e01b996cadc001622fb5e363b421880102030405060708c0c0",
        "lastblockhash" : "0x2a4ab6363ab74a1ea7ecd42df41cdb819644c4debb607534453972b9a5f3b097",
        "network" : "Byzantium",
        "postState" : {
            "0x00000000000000000000000000000000000000f0" : {
                "balance" : "0x00",
                "code" : "",
                "nonce" : "0x00",
                "storage" : {
                }
            },
            "0x095e7baea6a6c7c4c2dfeb977efac326af552d87" : {
                "balance" : "0x0a",
                "code" : "",
                "nonce" : "0x00",
                "storage" : {
                }
            },
            "0x8888f1f195afa192cfee860698584c030f4c9db1" : {
                "balance" : "0x4563918244f73450",
                "code" : "",
                "nonce" : "0x00",
                "storage" : {
                }
            },
            "0xa94f5374fce5edbc8e2a8697c15331677e6ebf0b" : {
                "balance" : "0x025408afa6",
                "code" : "",
                "nonce" : "0x01",
                "storage" : {
                }
            }
        },
        "pre" : {
            "0xa94f5374fce5edbc8e2a8697c15331677e6ebf0b" : {
                "balance" : "0x02540be400",
                "code" : "",
                "nonce" : "0x00",
                "storage" : {
                }
            }
        }
    },
    "SimpleTx_Constantinople" : {
        "_info" : {
            "comment" : "",
            "filledwith" : "cpp-1.3.0+commit.26123543.Linux.g++",
            "source" : "/src/BlockchainTestsFiller/bcValidBlockTest/SimpleTxFiller.json"
        },
        "blocks" : [
            {
                "blockHeader" : {
                    "bloom" : "0x00000000000000000000000000000000000000000000000000000000000000000000000000000000000000000000000000000000000000000000000000000000000000000000000000000000000000000000000000000000000000000000000000000000000000000000000000000000000000000000000000000000000000000000000000000000000000000000000000000000000000000000000000000000000000000000000000000000000000000000000000000000000000000000000000000000000000000000000000000000000000000000000000000000000000000000000000000000000000000000000000000000000000000000000000000000",
                    "coinbase" : "0x8888f1f195afa192cfee860698584c030f4c9db1",
                    "difficulty" : "0x020000",
                    "extraData" : "",
                    "gasLimit" : "0x2fefd8",
                    "gasUsed" : "0x5208",
                    "hash" : "0xf9d433539b4dce1a993c83e8caaed68e6d9257bb266d1889d6b2808c21f61831",
                    "mixHash" : "0x08fbf4e373da54f99bb0b8f3beb5350d7f2e76309aa12f3871f40ef88c3ed0ae",
                    "nonce" : "0xf0d11ee5fe0224be",
                    "number" : "0x01",
                    "parentHash" : "0x7285abd5b24742f184ad676e31f6054663b3529bc35ea2fcad8a3e0f642a46f7",
                    "receiptTrie" : "0x056b23fbba480696b65fe5a59b8f2148a1299103c4f57df839233af2cf4ca2d2",
                    "stateRoot" : "0x04bf6e1ee1eae8112e303553ea7b32a2ef5ba4fb927c7eebf1ba10f84d5a9677",
                    "timestamp" : "0x5981d5c7",
                    "transactionsTrie" : "0x53d5b71a8fbb9590de82d69dfa4ac31923b0c8afce0d30d0d8d1e931f25030dc",
                    "uncleHash" : "0x1dcc4de8dec75d7aab85b567b6ccd41ad312451b948a7413f0a142fd40d49347"
                },
                "rlp" : "0xf90260f901f9a07285abd5b24742f184ad676e31f6054663b3529bc35ea2fcad8a3e0f642a46f7a01dcc4de8dec75d7aab85b567b6ccd41ad312451b948a7413f0a142fd40d49347948888f1f195afa192cfee860698584c030f4c9db1a004bf6e1ee1eae8112e303553ea7b32a2ef5ba4fb927c7eebf1ba10f84d5a9677a053d5b71a8fbb9590de82d69dfa4ac31923b0c8afce0d30d0d8d1e931f25030dca0056b23fbba480696b65fe5a59b8f2148a1299103c4f57df839233af2cf4ca2d2b90100000000000000000000000000000000000000000000000000000000000000000000000000000000000000000000000000000000000000000000000000000000000000000000000000000000000000000000000000000000000000000000000000000000000000000000000000000000000000000000000000000000000000000000000000000000000000000000000000000000000000000000000000000000000000000000000000000000000000000000000000000000000000000000000000000000000000000000000000000000000000000000000000000000000000000000000000000000000000000000000000000000000000000000000000000000008302000001832fefd8825208845981d5c780a008fbf4e373da54f99bb0b8f3beb5350d7f2e76309aa12f3871f40ef88c3ed0ae88f0d11ee5fe0224bef861f85f800a82c35094095e7baea6a6c7c4c2dfeb977efac326af552d870a801ba0f3266921c93d600c43f6fa4724b7abae079b35b9e95df592f95f9f3445e94c88a012f977552ebdb7a492cf35f3106df16ccb4576ebad4113056ee1f52cbe4978c1c0",
                "transactions" : [
                    {
                        "data" : "",
                        "gasLimit" : "0xc350",
                        "gasPrice" : "0x0a",
                        "nonce" : "0x00",
                        "r" : "0xf3266921c93d600c43f6fa4724b7abae079b35b9e95df592f95f9f3445e94c88",
                        "s" : "0x12f977552ebdb7a492cf35f3106df16ccb4576ebad4113056ee1f52cbe4978c1",
                        "to" : "0x095e7baea6a6c7c4c2dfeb977efac326af552d87",
                        "v" : "0x1b",
                        "value" : "0x0a"
                    }
                ],
                "uncleHeaders" : [
                ]
            }
        ],
        "genesisBlockHeader" : {
            "bloom" : "0x00000000000000000000000000000000000000000000000000000000000000000000000000000000000000000000000000000000000000000000000000000000000000000000000000000000000000000000000000000000000000000000000000000000000000000000000000000000000000000000000000000000000000000000000000000000000000000000000000000000000000000000000000000000000000000000000000000000000000000000000000000000000000000000000000000000000000000000000000000000000000000000000000000000000000000000000000000000000000000000000000000000000000000000000000000000",
            "coinbase" : "0x8888f1f195afa192cfee860698584c030f4c9db1",
            "difficulty" : "0x020000",
            "extraData" : "0x42",
            "gasLimit" : "0x2fefd8",
            "gasUsed" : "0x00",
            "hash" : "0x7285abd5b24742f184ad676e31f6054663b3529bc35ea2fcad8a3e0f642a46f7",
            "mixHash" : "0x56e81f171bcc55a6ff8345e692c0f86e5b48e01b996cadc001622fb5e363b421",
            "nonce" : "0x0102030405060708",
            "number" : "0x00",
            "parentHash" : "0x0000000000000000000000000000000000000000000000000000000000000000",
            "receiptTrie" : "0x56e81f171bcc55a6ff8345e692c0f86e5b48e01b996cadc001622fb5e363b421",
            "stateRoot" : "0xcafd881ab193703b83816c49ff6c2bf6ba6f464a1be560c42106128c8dbc35e7",
            "timestamp" : "0x54c98c81",
            "transactionsTrie" : "0x56e81f171bcc55a6ff8345e692c0f86e5b48e01b996cadc001622fb5e363b421",
            "uncleHash" : "0x1dcc4de8dec75d7aab85b567b6ccd41ad312451b948a7413f0a142fd40d49347"
        },
        "genesisRLP" : "0xf901fcf901f7a00000000000000000000000000000000000000000000000000000000000000000a01dcc4de8dec75d7aab85b567b6ccd41ad312451b948a7413f0a142fd40d49347948888f1f195afa192cfee860698584c030f4c9db1a0cafd881ab193703b83816c49ff6c2bf6ba6f464a1be560c42106128c8dbc35e7a056e81f171bcc55a6ff8345e692c0f86e5b48e01b996cadc001622fb5e363b421a056e81f171bcc55a6ff8345e692c0f86e5b48e01b996cadc001622fb5e363b421b90100000000000000000000000000000000000000000000000000000000000000000000000000000000000000000000000000000000000000000000000000000000000000000000000000000000000000000000000000000000000000000000000000000000000000000000000000000000000000000000000000000000000000000000000000000000000000000000000000000000000000000000000000000000000000000000000000000000000000000000000000000000000000000000000000000000000000000000000000000000000000000000000000000000000000000000000000000000000000000000000000000000000000000000000000000000008302000080832fefd8808454c98c8142a056e81f171bcc55a6ff8345e692c0f86e5b48e01b996cadc001622fb5e363b421880102030405060708c0c0",
        "lastblockhash" : "0xf9d433539b4dce1a993c83e8caaed68e6d9257bb266d1889d6b2808c21f61831",
        "network" : "Constantinople",
        "postState" : {
            "0x00000000000000000000000000000000000000f0" : {
                "balance" : "0x00",
                "code" : "",
                "nonce" : "0x00",
                "storage" : {
                }
            },
            "0x095e7baea6a6c7c4c2dfeb977efac326af552d87" : {
                "balance" : "0x0a",
                "code" : "",
                "nonce" : "0x00",
                "storage" : {
                }
            },
            "0x8888f1f195afa192cfee860698584c030f4c9db1" : {
                "balance" : "0x4563918244f73450",
                "code" : "",
                "nonce" : "0x00",
                "storage" : {
                }
            },
            "0xa94f5374fce5edbc8e2a8697c15331677e6ebf0b" : {
                "balance" : "0x025408afa6",
                "code" : "",
                "nonce" : "0x01",
                "storage" : {
                }
            }
        },
        "pre" : {
            "0xa94f5374fce5edbc8e2a8697c15331677e6ebf0b" : {
                "balance" : "0x02540be400",
                "code" : "",
                "nonce" : "0x00",
                "storage" : {
                }
            }
        }
    },
    "SimpleTx_EIP150" : {
        "_info" : {
            "comment" : "",
            "filledwith" : "cpp-1.3.0+commit.26123543.Linux.g++",
            "source" : "/src/BlockchainTestsFiller/bcValidBlockTest/SimpleTxFiller.json"
        },
        "blocks" : [
            {
                "blockHeader" : {
                    "bloom" : "0x00000000000000000000000000000000000000000000000000000000000000000000000000000000000000000000000000000000000000000000000000000000000000000000000000000000000000000000000000000000000000000000000000000000000000000000000000000000000000000000000000000000000000000000000000000000000000000000000000000000000000000000000000000000000000000000000000000000000000000000000000000000000000000000000000000000000000000000000000000000000000000000000000000000000000000000000000000000000000000000000000000000000000000000000000000000",
                    "coinbase" : "0x8888f1f195afa192cfee860698584c030f4c9db1",
                    "difficulty" : "0x020000",
                    "extraData" : "",
                    "gasLimit" : "0x2fefd8",
                    "gasUsed" : "0x5208",
                    "hash" : "0xbf46878e9170e6ed3fedda95524a9ab2ca3b591ef8927e68116757eed4a9792d",
                    "mixHash" : "0x7385d422740a7c7f3fb1f5dc8faf0059b71da6ba844bde3b81737c8b437e9207",
                    "nonce" : "0x1335e57bd97fcba1",
                    "number" : "0x01",
                    "parentHash" : "0x7285abd5b24742f184ad676e31f6054663b3529bc35ea2fcad8a3e0f642a46f7",
                    "receiptTrie" : "0xbc37d79753ad738a6dac4921e57392f145d8887476de3f783dfa7edae9283e52",
                    "stateRoot" : "0x964e6c9995e7e3757e934391b4f16b50c20409ee4eb9abd4c4617cb805449b9a",
                    "timestamp" : "0x5981d5b9",
                    "transactionsTrie" : "0x53d5b71a8fbb9590de82d69dfa4ac31923b0c8afce0d30d0d8d1e931f25030dc",
                    "uncleHash" : "0x1dcc4de8dec75d7aab85b567b6ccd41ad312451b948a7413f0a142fd40d49347"
                },
                "rlp" : "0xf90260f901f9a07285abd5b24742f184ad676e31f6054663b3529bc35ea2fcad8a3e0f642a46f7a01dcc4de8dec75d7aab85b567b6ccd41ad312451b948a7413f0a142fd40d49347948888f1f195afa192cfee860698584c030f4c9db1a0964e6c9995e7e3757e934391b4f16b50c20409ee4eb9abd4c4617cb805449b9aa053d5b71a8fbb9590de82d69dfa4ac31923b0c8afce0d30d0d8d1e931f25030dca0bc37d79753ad738a6dac4921e57392f145d8887476de3f783dfa7edae9283e52b90100000000000000000000000000000000000000000000000000000000000000000000000000000000000000000000000000000000000000000000000000000000000000000000000000000000000000000000000000000000000000000000000000000000000000000000000000000000000000000000000000000000000000000000000000000000000000000000000000000000000000000000000000000000000000000000000000000000000000000000000000000000000000000000000000000000000000000000000000000000000000000000000000000000000000000000000000000000000000000000000000000000000000000000000000000000008302000001832fefd8825208845981d5b980a07385d422740a7c7f3fb1f5dc8faf0059b71da6ba844bde3b81737c8b437e9207881335e57bd97fcba1f861f85f800a82c35094095e7baea6a6c7c4c2dfeb977efac326af552d870a801ba0f3266921c93d600c43f6fa4724b7abae079b35b9e95df592f95f9f3445e94c88a012f977552ebdb7a492cf35f3106df16ccb4576ebad4113056ee1f52cbe4978c1c0",
                "transactions" : [
                    {
                        "data" : "",
                        "gasLimit" : "0xc350",
                        "gasPrice" : "0x0a",
                        "nonce" : "0x00",
                        "r" : "0xf3266921c93d600c43f6fa4724b7abae079b35b9e95df592f95f9f3445e94c88",
                        "s" : "0x12f977552ebdb7a492cf35f3106df16ccb4576ebad4113056ee1f52cbe4978c1",
                        "to" : "0x095e7baea6a6c7c4c2dfeb977efac326af552d87",
                        "v" : "0x1b",
                        "value" : "0x0a"
                    }
                ],
                "uncleHeaders" : [
                ]
            }
        ],
        "genesisBlockHeader" : {
            "bloom" : "0x00000000000000000000000000000000000000000000000000000000000000000000000000000000000000000000000000000000000000000000000000000000000000000000000000000000000000000000000000000000000000000000000000000000000000000000000000000000000000000000000000000000000000000000000000000000000000000000000000000000000000000000000000000000000000000000000000000000000000000000000000000000000000000000000000000000000000000000000000000000000000000000000000000000000000000000000000000000000000000000000000000000000000000000000000000000",
            "coinbase" : "0x8888f1f195afa192cfee860698584c030f4c9db1",
            "difficulty" : "0x020000",
            "extraData" : "0x42",
            "gasLimit" : "0x2fefd8",
            "gasUsed" : "0x00",
            "hash" : "0x7285abd5b24742f184ad676e31f6054663b3529bc35ea2fcad8a3e0f642a46f7",
            "mixHash" : "0x56e81f171bcc55a6ff8345e692c0f86e5b48e01b996cadc001622fb5e363b421",
            "nonce" : "0x0102030405060708",
            "number" : "0x00",
            "parentHash" : "0x0000000000000000000000000000000000000000000000000000000000000000",
            "receiptTrie" : "0x56e81f171bcc55a6ff8345e692c0f86e5b48e01b996cadc001622fb5e363b421",
            "stateRoot" : "0xcafd881ab193703b83816c49ff6c2bf6ba6f464a1be560c42106128c8dbc35e7",
            "timestamp" : "0x54c98c81",
            "transactionsTrie" : "0x56e81f171bcc55a6ff8345e692c0f86e5b48e01b996cadc001622fb5e363b421",
            "uncleHash" : "0x1dcc4de8dec75d7aab85b567b6ccd41ad312451b948a7413f0a142fd40d49347"
        },
        "genesisRLP" : "0xf901fcf901f7a00000000000000000000000000000000000000000000000000000000000000000a01dcc4de8dec75d7aab85b567b6ccd41ad312451b948a7413f0a142fd40d49347948888f1f195afa192cfee860698584c030f4c9db1a0cafd881ab193703b83816c49ff6c2bf6ba6f464a1be560c42106128c8dbc35e7a056e81f171bcc55a6ff8345e692c0f86e5b48e01b996cadc001622fb5e363b421a056e81f171bcc55a6ff8345e692c0f86e5b48e01b996cadc001622fb5e363b421b90100000000000000000000000000000000000000000000000000000000000000000000000000000000000000000000000000000000000000000000000000000000000000000000000000000000000000000000000000000000000000000000000000000000000000000000000000000000000000000000000000000000000000000000000000000000000000000000000000000000000000000000000000000000000000000000000000000000000000000000000000000000000000000000000000000000000000000000000000000000000000000000000000000000000000000000000000000000000000000000000000000000000000000000000000000000008302000080832fefd8808454c98c8142a056e81f171bcc55a6ff8345e692c0f86e5b48e01b996cadc001622fb5e363b421880102030405060708c0c0",
        "lastblockhash" : "0xbf46878e9170e6ed3fedda95524a9ab2ca3b591ef8927e68116757eed4a9792d",
        "network" : "EIP150",
        "postState" : {
            "0x095e7baea6a6c7c4c2dfeb977efac326af552d87" : {
                "balance" : "0x0a",
                "code" : "",
                "nonce" : "0x00",
                "storage" : {
                }
            },
            "0x8888f1f195afa192cfee860698584c030f4c9db1" : {
                "balance" : "0x4563918244f73450",
                "code" : "",
                "nonce" : "0x00",
                "storage" : {
                }
            },
            "0xa94f5374fce5edbc8e2a8697c15331677e6ebf0b" : {
                "balance" : "0x025408afa6",
                "code" : "",
                "nonce" : "0x01",
                "storage" : {
                }
            }
        },
        "pre" : {
            "0xa94f5374fce5edbc8e2a8697c15331677e6ebf0b" : {
                "balance" : "0x02540be400",
                "code" : "",
                "nonce" : "0x00",
                "storage" : {
                }
            }
        }
    },
    "SimpleTx_EIP158" : {
        "_info" : {
            "comment" : "",
            "filledwith" : "cpp-1.3.0+commit.26123543.Linux.g++",
            "source" : "/src/BlockchainTestsFiller/bcValidBlockTest/SimpleTxFiller.json"
        },
        "blocks" : [
            {
                "blockHeader" : {
                    "bloom" : "0x00000000000000000000000000000000000000000000000000000000000000000000000000000000000000000000000000000000000000000000000000000000000000000000000000000000000000000000000000000000000000000000000000000000000000000000000000000000000000000000000000000000000000000000000000000000000000000000000000000000000000000000000000000000000000000000000000000000000000000000000000000000000000000000000000000000000000000000000000000000000000000000000000000000000000000000000000000000000000000000000000000000000000000000000000000000",
                    "coinbase" : "0x8888f1f195afa192cfee860698584c030f4c9db1",
                    "difficulty" : "0x020000",
                    "extraData" : "",
                    "gasLimit" : "0x2fefd8",
                    "gasUsed" : "0x5208",
                    "hash" : "0xfda901f969d1b866593d744d51a3de6ca246650d0aa97507494735799b4245f9",
                    "mixHash" : "0x8b2d3b93ec99c954cc8f60ed4416a727b9861016a69add61468bc364c607a8f2",
                    "nonce" : "0xfc13e8c03ebc0f42",
                    "number" : "0x01",
                    "parentHash" : "0x7285abd5b24742f184ad676e31f6054663b3529bc35ea2fcad8a3e0f642a46f7",
                    "receiptTrie" : "0xbc37d79753ad738a6dac4921e57392f145d8887476de3f783dfa7edae9283e52",
                    "stateRoot" : "0x964e6c9995e7e3757e934391b4f16b50c20409ee4eb9abd4c4617cb805449b9a",
                    "timestamp" : "0x5981d5bd",
                    "transactionsTrie" : "0x53d5b71a8fbb9590de82d69dfa4ac31923b0c8afce0d30d0d8d1e931f25030dc",
                    "uncleHash" : "0x1dcc4de8dec75d7aab85b567b6ccd41ad312451b948a7413f0a142fd40d49347"
                },
                "rlp" : "0xf90260f901f9a07285abd5b24742f184ad676e31f6054663b3529bc35ea2fcad8a3e0f642a46f7a01dcc4de8dec75d7aab85b567b6ccd41ad312451b948a7413f0a142fd40d49347948888f1f195afa192cfee860698584c030f4c9db1a0964e6c9995e7e3757e934391b4f16b50c20409ee4eb9abd4c4617cb805449b9aa053d5b71a8fbb9590de82d69dfa4ac31923b0c8afce0d30d0d8d1e931f25030dca0bc37d79753ad738a6dac4921e57392f145d8887476de3f783dfa7edae9283e52b90100000000000000000000000000000000000000000000000000000000000000000000000000000000000000000000000000000000000000000000000000000000000000000000000000000000000000000000000000000000000000000000000000000000000000000000000000000000000000000000000000000000000000000000000000000000000000000000000000000000000000000000000000000000000000000000000000000000000000000000000000000000000000000000000000000000000000000000000000000000000000000000000000000000000000000000000000000000000000000000000000000000000000000000000000000000008302000001832fefd8825208845981d5bd80a08b2d3b93ec99c954cc8f60ed4416a727b9861016a69add61468bc364c607a8f288fc13e8c03ebc0f42f861f85f800a82c35094095e7baea6a6c7c4c2dfeb977efac326af552d870a801ba0f3266921c93d600c43f6fa4724b7abae079b35b9e95df592f95f9f3445e94c88a012f977552ebdb7a492cf35f3106df16ccb4576ebad4113056ee1f52cbe4978c1c0",
                "transactions" : [
                    {
                        "data" : "",
                        "gasLimit" : "0xc350",
                        "gasPrice" : "0x0a",
                        "nonce" : "0x00",
                        "r" : "0xf3266921c93d600c43f6fa4724b7abae079b35b9e95df592f95f9f3445e94c88",
                        "s" : "0x12f977552ebdb7a492cf35f3106df16ccb4576ebad4113056ee1f52cbe4978c1",
                        "to" : "0x095e7baea6a6c7c4c2dfeb977efac326af552d87",
                        "v" : "0x1b",
                        "value" : "0x0a"
                    }
                ],
                "uncleHeaders" : [
                ]
            }
        ],
        "genesisBlockHeader" : {
            "bloom" : "0x00000000000000000000000000000000000000000000000000000000000000000000000000000000000000000000000000000000000000000000000000000000000000000000000000000000000000000000000000000000000000000000000000000000000000000000000000000000000000000000000000000000000000000000000000000000000000000000000000000000000000000000000000000000000000000000000000000000000000000000000000000000000000000000000000000000000000000000000000000000000000000000000000000000000000000000000000000000000000000000000000000000000000000000000000000000",
            "coinbase" : "0x8888f1f195afa192cfee860698584c030f4c9db1",
            "difficulty" : "0x020000",
            "extraData" : "0x42",
            "gasLimit" : "0x2fefd8",
            "gasUsed" : "0x00",
            "hash" : "0x7285abd5b24742f184ad676e31f6054663b3529bc35ea2fcad8a3e0f642a46f7",
            "mixHash" : "0x56e81f171bcc55a6ff8345e692c0f86e5b48e01b996cadc001622fb5e363b421",
            "nonce" : "0x0102030405060708",
            "number" : "0x00",
            "parentHash" : "0x0000000000000000000000000000000000000000000000000000000000000000",
            "receiptTrie" : "0x56e81f171bcc55a6ff8345e692c0f86e5b48e01b996cadc001622fb5e363b421",
            "stateRoot" : "0xcafd881ab193703b83816c49ff6c2bf6ba6f464a1be560c42106128c8dbc35e7",
            "timestamp" : "0x54c98c81",
            "transactionsTrie" : "0x56e81f171bcc55a6ff8345e692c0f86e5b48e01b996cadc001622fb5e363b421",
            "uncleHash" : "0x1dcc4de8dec75d7aab85b567b6ccd41ad312451b948a7413f0a142fd40d49347"
        },
        "genesisRLP" : "0xf901fcf901f7a00000000000000000000000000000000000000000000000000000000000000000a01dcc4de8dec75d7aab85b567b6ccd41ad312451b948a7413f0a142fd40d49347948888f1f195afa192cfee860698584c030f4c9db1a0cafd881ab193703b83816c49ff6c2bf6ba6f464a1be560c42106128c8dbc35e7a056e81f171bcc55a6ff8345e692c0f86e5b48e01b996cadc001622fb5e363b421a056e81f171bcc55a6ff8345e692c0f86e5b48e01b996cadc001622fb5e363b421b90100000000000000000000000000000000000000000000000000000000000000000000000000000000000000000000000000000000000000000000000000000000000000000000000000000000000000000000000000000000000000000000000000000000000000000000000000000000000000000000000000000000000000000000000000000000000000000000000000000000000000000000000000000000000000000000000000000000000000000000000000000000000000000000000000000000000000000000000000000000000000000000000000000000000000000000000000000000000000000000000000000000000000000000000000000000008302000080832fefd8808454c98c8142a056e81f171bcc55a6ff8345e692c0f86e5b48e01b996cadc001622fb5e363b421880102030405060708c0c0",
        "lastblockhash" : "0xfda901f969d1b866593d744d51a3de6ca246650d0aa97507494735799b4245f9",
        "network" : "EIP158",
        "postState" : {
            "0x095e7baea6a6c7c4c2dfeb977efac326af552d87" : {
                "balance" : "0x0a",
                "code" : "",
                "nonce" : "0x00",
                "storage" : {
                }
            },
            "0x8888f1f195afa192cfee860698584c030f4c9db1" : {
                "balance" : "0x4563918244f73450",
                "code" : "",
                "nonce" : "0x00",
                "storage" : {
                }
            },
            "0xa94f5374fce5edbc8e2a8697c15331677e6ebf0b" : {
                "balance" : "0x025408afa6",
                "code" : "",
                "nonce" : "0x01",
                "storage" : {
                }
            }
        },
        "pre" : {
            "0xa94f5374fce5edbc8e2a8697c15331677e6ebf0b" : {
                "balance" : "0x02540be400",
                "code" : "",
                "nonce" : "0x00",
                "storage" : {
                }
            }
        }
    },
    "SimpleTx_Frontier" : {
        "_info" : {
            "comment" : "",
            "filledwith" : "cpp-1.3.0+commit.26123543.Linux.g++",
            "source" : "/src/BlockchainTestsFiller/bcValidBlockTest/SimpleTxFiller.json"
        },
        "blocks" : [
            {
                "blockHeader" : {
                    "bloom" : "0x00000000000000000000000000000000000000000000000000000000000000000000000000000000000000000000000000000000000000000000000000000000000000000000000000000000000000000000000000000000000000000000000000000000000000000000000000000000000000000000000000000000000000000000000000000000000000000000000000000000000000000000000000000000000000000000000000000000000000000000000000000000000000000000000000000000000000000000000000000000000000000000000000000000000000000000000000000000000000000000000000000000000000000000000000000000",
                    "coinbase" : "0x8888f1f195afa192cfee860698584c030f4c9db1",
                    "difficulty" : "0x020000",
                    "extraData" : "",
                    "gasLimit" : "0x2fefd8",
                    "gasUsed" : "0x5208",
                    "hash" : "0xb98f4dd00c0de7913523db7165768e0fe1f3f298a4da78232090ff0da9528ecc",
                    "mixHash" : "0x5ec2937f10b6c0f58b6ae295561054c1707d49d94dfb4163613b5cb2dc8e7923",
                    "nonce" : "0x5f150b0e30881c9c",
                    "number" : "0x01",
                    "parentHash" : "0x7285abd5b24742f184ad676e31f6054663b3529bc35ea2fcad8a3e0f642a46f7",
                    "receiptTrie" : "0xbc37d79753ad738a6dac4921e57392f145d8887476de3f783dfa7edae9283e52",
                    "stateRoot" : "0x964e6c9995e7e3757e934391b4f16b50c20409ee4eb9abd4c4617cb805449b9a",
                    "timestamp" : "0x5981d5b2",
                    "transactionsTrie" : "0x53d5b71a8fbb9590de82d69dfa4ac31923b0c8afce0d30d0d8d1e931f25030dc",
                    "uncleHash" : "0x1dcc4de8dec75d7aab85b567b6ccd41ad312451b948a7413f0a142fd40d49347"
                },
                "rlp" : "0xf90260f901f9a07285abd5b24742f184ad676e31f6054663b3529bc35ea2fcad8a3e0f642a46f7a01dcc4de8dec75d7aab85b567b6ccd41ad312451b948a7413f0a142fd40d49347948888f1f195afa192cfee860698584c030f4c9db1a0964e6c9995e7e3757e934391b4f16b50c20409ee4eb9abd4c4617cb805449b9aa053d5b71a8fbb9590de82d69dfa4ac31923b0c8afce0d30d0d8d1e931f25030dca0bc37d79753ad738a6dac4921e57392f145d8887476de3f783dfa7edae9283e52b90100000000000000000000000000000000000000000000000000000000000000000000000000000000000000000000000000000000000000000000000000000000000000000000000000000000000000000000000000000000000000000000000000000000000000000000000000000000000000000000000000000000000000000000000000000000000000000000000000000000000000000000000000000000000000000000000000000000000000000000000000000000000000000000000000000000000000000000000000000000000000000000000000000000000000000000000000000000000000000000000000000000000000000000000000000000008302000001832fefd8825208845981d5b280a05ec2937f10b6c0f58b6ae295561054c1707d49d94dfb4163613b5cb2dc8e7923885f150b0e30881c9cf861f85f800a82c35094095e7baea6a6c7c4c2dfeb977efac326af552d870a801ba0f3266921c93d600c43f6fa4724b7abae079b35b9e95df592f95f9f3445e94c88a012f977552ebdb7a492cf35f3106df16ccb4576ebad4113056ee1f52cbe4978c1c0",
                "transactions" : [
                    {
                        "data" : "",
                        "gasLimit" : "0xc350",
                        "gasPrice" : "0x0a",
                        "nonce" : "0x00",
                        "r" : "0xf3266921c93d600c43f6fa4724b7abae079b35b9e95df592f95f9f3445e94c88",
                        "s" : "0x12f977552ebdb7a492cf35f3106df16ccb4576ebad4113056ee1f52cbe4978c1",
                        "to" : "0x095e7baea6a6c7c4c2dfeb977efac326af552d87",
                        "v" : "0x1b",
                        "value" : "0x0a"
                    }
                ],
                "uncleHeaders" : [
                ]
            }
        ],
        "genesisBlockHeader" : {
            "bloom" : "0x00000000000000000000000000000000000000000000000000000000000000000000000000000000000000000000000000000000000000000000000000000000000000000000000000000000000000000000000000000000000000000000000000000000000000000000000000000000000000000000000000000000000000000000000000000000000000000000000000000000000000000000000000000000000000000000000000000000000000000000000000000000000000000000000000000000000000000000000000000000000000000000000000000000000000000000000000000000000000000000000000000000000000000000000000000000",
            "coinbase" : "0x8888f1f195afa192cfee860698584c030f4c9db1",
            "difficulty" : "0x020000",
            "extraData" : "0x42",
            "gasLimit" : "0x2fefd8",
            "gasUsed" : "0x00",
            "hash" : "0x7285abd5b24742f184ad676e31f6054663b3529bc35ea2fcad8a3e0f642a46f7",
            "mixHash" : "0x56e81f171bcc55a6ff8345e692c0f86e5b48e01b996cadc001622fb5e363b421",
            "nonce" : "0x0102030405060708",
            "number" : "0x00",
            "parentHash" : "0x0000000000000000000000000000000000000000000000000000000000000000",
            "receiptTrie" : "0x56e81f171bcc55a6ff8345e692c0f86e5b48e01b996cadc001622fb5e363b421",
            "stateRoot" : "0xcafd881ab193703b83816c49ff6c2bf6ba6f464a1be560c42106128c8dbc35e7",
            "timestamp" : "0x54c98c81",
            "transactionsTrie" : "0x56e81f171bcc55a6ff8345e692c0f86e5b48e01b996cadc001622fb5e363b421",
            "uncleHash" : "0x1dcc4de8dec75d7aab85b567b6ccd41ad312451b948a7413f0a142fd40d49347"
        },
        "genesisRLP" : "0xf901fcf901f7a00000000000000000000000000000000000000000000000000000000000000000a01dcc4de8dec75d7aab85b567b6ccd41ad312451b948a7413f0a142fd40d49347948888f1f195afa192cfee860698584c030f4c9db1a0cafd881ab193703b83816c49ff6c2bf6ba6f464a1be560c42106128c8dbc35e7a056e81f171bcc55a6ff8345e692c0f86e5b48e01b996cadc001622fb5e363b421a056e81f171bcc55a6ff8345e692c0f86e5b48e01b996cadc001622fb5e363b421b90100000000000000000000000000000000000000000000000000000000000000000000000000000000000000000000000000000000000000000000000000000000000000000000000000000000000000000000000000000000000000000000000000000000000000000000000000000000000000000000000000000000000000000000000000000000000000000000000000000000000000000000000000000000000000000000000000000000000000000000000000000000000000000000000000000000000000000000000000000000000000000000000000000000000000000000000000000000000000000000000000000000000000000000000000000000008302000080832fefd8808454c98c8142a056e81f171bcc55a6ff8345e692c0f86e5b48e01b996cadc001622fb5e363b421880102030405060708c0c0",
        "lastblockhash" : "0xb98f4dd00c0de7913523db7165768e0fe1f3f298a4da78232090ff0da9528ecc",
        "network" : "Frontier",
        "postState" : {
            "0x095e7baea6a6c7c4c2dfeb977efac326af552d87" : {
                "balance" : "0x0a",
                "code" : "",
                "nonce" : "0x00",
                "storage" : {
                }
            },
            "0x8888f1f195afa192cfee860698584c030f4c9db1" : {
                "balance" : "0x4563918244f73450",
                "code" : "",
                "nonce" : "0x00",
                "storage" : {
                }
            },
            "0xa94f5374fce5edbc8e2a8697c15331677e6ebf0b" : {
                "balance" : "0x025408afa6",
                "code" : "",
                "nonce" : "0x01",
                "storage" : {
                }
            }
        },
        "pre" : {
            "0xa94f5374fce5edbc8e2a8697c15331677e6ebf0b" : {
                "balance" : "0x02540be400",
                "code" : "",
                "nonce" : "0x00",
                "storage" : {
                }
            }
        }
    },
    "SimpleTx_Homestead" : {
        "_info" : {
            "comment" : "",
            "filledwith" : "cpp-1.3.0+commit.26123543.Linux.g++",
            "source" : "/src/BlockchainTestsFiller/bcValidBlockTest/SimpleTxFiller.json"
        },
        "blocks" : [
            {
                "blockHeader" : {
                    "bloom" : "0x00000000000000000000000000000000000000000000000000000000000000000000000000000000000000000000000000000000000000000000000000000000000000000000000000000000000000000000000000000000000000000000000000000000000000000000000000000000000000000000000000000000000000000000000000000000000000000000000000000000000000000000000000000000000000000000000000000000000000000000000000000000000000000000000000000000000000000000000000000000000000000000000000000000000000000000000000000000000000000000000000000000000000000000000000000000",
                    "coinbase" : "0x8888f1f195afa192cfee860698584c030f4c9db1",
                    "difficulty" : "0x020000",
                    "extraData" : "",
                    "gasLimit" : "0x2fefd8",
                    "gasUsed" : "0x5208",
                    "hash" : "0xcaa318181a588c4920a952d8a4f4f26a1f405208fcfdb96a954385df2a3ed619",
                    "mixHash" : "0xce128a9a7722524375f23a75308ae47a6663da8ebb14707f1e00c5159bbac18f",
                    "nonce" : "0xd99175d540691938",
                    "number" : "0x01",
                    "parentHash" : "0x7285abd5b24742f184ad676e31f6054663b3529bc35ea2fcad8a3e0f642a46f7",
                    "receiptTrie" : "0xbc37d79753ad738a6dac4921e57392f145d8887476de3f783dfa7edae9283e52",
                    "stateRoot" : "0x964e6c9995e7e3757e934391b4f16b50c20409ee4eb9abd4c4617cb805449b9a",
                    "timestamp" : "0x5981d5b4",
                    "transactionsTrie" : "0x53d5b71a8fbb9590de82d69dfa4ac31923b0c8afce0d30d0d8d1e931f25030dc",
                    "uncleHash" : "0x1dcc4de8dec75d7aab85b567b6ccd41ad312451b948a7413f0a142fd40d49347"
                },
                "rlp" : "0xf90260f901f9a07285abd5b24742f184ad676e31f6054663b3529bc35ea2fcad8a3e0f642a46f7a01dcc4de8dec75d7aab85b567b6ccd41ad312451b948a7413f0a142fd40d49347948888f1f195afa192cfee860698584c030f4c9db1a0964e6c9995e7e3757e934391b4f16b50c20409ee4eb9abd4c4617cb805449b9aa053d5b71a8fbb9590de82d69dfa4ac31923b0c8afce0d30d0d8d1e931f25030dca0bc37d79753ad738a6dac4921e57392f145d8887476de3f783dfa7edae9283e52b90100000000000000000000000000000000000000000000000000000000000000000000000000000000000000000000000000000000000000000000000000000000000000000000000000000000000000000000000000000000000000000000000000000000000000000000000000000000000000000000000000000000000000000000000000000000000000000000000000000000000000000000000000000000000000000000000000000000000000000000000000000000000000000000000000000000000000000000000000000000000000000000000000000000000000000000000000000000000000000000000000000000000000000000000000000000008302000001832fefd8825208845981d5b480a0ce128a9a7722524375f23a75308ae47a6663da8ebb14707f1e00c5159bbac18f88d99175d540691938f861f85f800a82c35094095e7baea6a6c7c4c2dfeb977efac326af552d870a801ba0f3266921c93d600c43f6fa4724b7abae079b35b9e95df592f95f9f3445e94c88a012f977552ebdb7a492cf35f3106df16ccb4576ebad4113056ee1f52cbe4978c1c0",
                "transactions" : [
                    {
                        "data" : "",
                        "gasLimit" : "0xc350",
                        "gasPrice" : "0x0a",
                        "nonce" : "0x00",
                        "r" : "0xf3266921c93d600c43f6fa4724b7abae079b35b9e95df592f95f9f3445e94c88",
                        "s" : "0x12f977552ebdb7a492cf35f3106df16ccb4576ebad4113056ee1f52cbe4978c1",
                        "to" : "0x095e7baea6a6c7c4c2dfeb977efac326af552d87",
                        "v" : "0x1b",
                        "value" : "0x0a"
                    }
                ],
                "uncleHeaders" : [
                ]
            }
        ],
        "genesisBlockHeader" : {
            "bloom" : "0x00000000000000000000000000000000000000000000000000000000000000000000000000000000000000000000000000000000000000000000000000000000000000000000000000000000000000000000000000000000000000000000000000000000000000000000000000000000000000000000000000000000000000000000000000000000000000000000000000000000000000000000000000000000000000000000000000000000000000000000000000000000000000000000000000000000000000000000000000000000000000000000000000000000000000000000000000000000000000000000000000000000000000000000000000000000",
            "coinbase" : "0x8888f1f195afa192cfee860698584c030f4c9db1",
            "difficulty" : "0x020000",
            "extraData" : "0x42",
            "gasLimit" : "0x2fefd8",
            "gasUsed" : "0x00",
            "hash" : "0x7285abd5b24742f184ad676e31f6054663b3529bc35ea2fcad8a3e0f642a46f7",
            "mixHash" : "0x56e81f171bcc55a6ff8345e692c0f86e5b48e01b996cadc001622fb5e363b421",
            "nonce" : "0x0102030405060708",
            "number" : "0x00",
            "parentHash" : "0x0000000000000000000000000000000000000000000000000000000000000000",
            "receiptTrie" : "0x56e81f171bcc55a6ff8345e692c0f86e5b48e01b996cadc001622fb5e363b421",
            "stateRoot" : "0xcafd881ab193703b83816c49ff6c2bf6ba6f464a1be560c42106128c8dbc35e7",
            "timestamp" : "0x54c98c81",
            "transactionsTrie" : "0x56e81f171bcc55a6ff8345e692c0f86e5b48e01b996cadc001622fb5e363b421",
            "uncleHash" : "0x1dcc4de8dec75d7aab85b567b6ccd41ad312451b948a7413f0a142fd40d49347"
        },
        "genesisRLP" : "0xf901fcf901f7a00000000000000000000000000000000000000000000000000000000000000000a01dcc4de8dec75d7aab85b567b6ccd41ad312451b948a7413f0a142fd40d49347948888f1f195afa192cfee860698584c030f4c9db1a0cafd881ab193703b83816c49ff6c2bf6ba6f464a1be560c42106128c8dbc35e7a056e81f171bcc55a6ff8345e692c0f86e5b48e01b996cadc001622fb5e363b421a056e81f171bcc55a6ff8345e692c0f86e5b48e01b996cadc001622fb5e363b421b90100000000000000000000000000000000000000000000000000000000000000000000000000000000000000000000000000000000000000000000000000000000000000000000000000000000000000000000000000000000000000000000000000000000000000000000000000000000000000000000000000000000000000000000000000000000000000000000000000000000000000000000000000000000000000000000000000000000000000000000000000000000000000000000000000000000000000000000000000000000000000000000000000000000000000000000000000000000000000000000000000000000000000000000000000000000008302000080832fefd8808454c98c8142a056e81f171bcc55a6ff8345e692c0f86e5b48e01b996cadc001622fb5e363b421880102030405060708c0c0",
        "lastblockhash" : "0xcaa318181a588c4920a952d8a4f4f26a1f405208fcfdb96a954385df2a3ed619",
        "network" : "Homestead",
        "postState" : {
            "0x095e7baea6a6c7c4c2dfeb977efac326af552d87" : {
                "balance" : "0x0a",
                "code" : "",
                "nonce" : "0x00",
                "storage" : {
                }
            },
            "0x8888f1f195afa192cfee860698584c030f4c9db1" : {
                "balance" : "0x4563918244f73450",
                "code" : "",
                "nonce" : "0x00",
                "storage" : {
                }
            },
            "0xa94f5374fce5edbc8e2a8697c15331677e6ebf0b" : {
                "balance" : "0x025408afa6",
                "code" : "",
                "nonce" : "0x01",
                "storage" : {
                }
            }
        },
        "pre" : {
            "0xa94f5374fce5edbc8e2a8697c15331677e6ebf0b" : {
                "balance" : "0x02540be400",
                "code" : "",
                "nonce" : "0x00",
                "storage" : {
                }
            }
        }
    }
}