{
    "fp2_to_g2_63_d0g0v0_Berlin" : {
        "_info" : {
            "comment" : "A test for fp2_to_g2_63",
            "filling-rpc-server" : "evm version 1.9.23-unstable-0efc69a9-20201022",
            "filling-tool-version" : "retesteth-0.0.9-berlin+commit.2f30f0ea.Linux.g++",
            "lllcversion" : "Version: 0.5.14-develop.2020.6.22+commit.9189ad7a.Linux.g++",
            "source" : "src/GeneralStateTestsFiller/stEIP2537/fp2_to_g2_63Filler.json",
            "sourceHash" : "33448eb97ab1480060acbfcc7320a3f0c0e946319ec4e4cfec375c3a6a3dc5ad"
        },
        "genesisBlockHeader" : {
            "bloom" : "0x00000000000000000000000000000000000000000000000000000000000000000000000000000000000000000000000000000000000000000000000000000000000000000000000000000000000000000000000000000000000000000000000000000000000000000000000000000000000000000000000000000000000000000000000000000000000000000000000000000000000000000000000000000000000000000000000000000000000000000000000000000000000000000000000000000000000000000000000000000000000000000000000000000000000000000000000000000000000000000000000000000000000000000000000000000000",
            "coinbase" : "0x2adc25665018aa1fe0e6bc666dac8fc2697ff9ba",
            "difficulty" : "0x020000",
            "extraData" : "0x00",
            "gasLimit" : "0xff112233445566",
            "gasUsed" : "0x00",
            "hash" : "0xf227282805f439ca053613f53f119422bda960eea236c4b013eca3b95c6be464",
            "mixHash" : "0x0000000000000000000000000000000000000000000000000000000000000000",
            "nonce" : "0x0000000000000000",
            "number" : "0x00",
            "parentHash" : "0x0000000000000000000000000000000000000000000000000000000000000000",
            "receiptTrie" : "0x56e81f171bcc55a6ff8345e692c0f86e5b48e01b996cadc001622fb5e363b421",
            "stateRoot" : "0xbf61e00e2f1fbb3ea831c4ff3bbeff62f2737e7f0d88945ba62e0722eab6cd68",
            "timestamp" : "0x00",
            "transactionsTrie" : "0x56e81f171bcc55a6ff8345e692c0f86e5b48e01b996cadc001622fb5e363b421",
            "uncleHash" : "0x1dcc4de8dec75d7aab85b567b6ccd41ad312451b948a7413f0a142fd40d49347"
        },
        "pre" : {
            "0x095e7baea6a6c7c4c2dfeb977efac326af552d87" : {
                "balance" : "0x00",
                "code" : "0x60806040526004361061001e5760003560e01c806312bd429914610023575b600080fd5b6100fc6004803603604081101561003957600080fd5b81019080803573ffffffffffffffffffffffffffffffffffffffff1690602001909291908035906020019064010000000081111561007657600080fd5b82018360208201111561008857600080fd5b803590602001918460018302840111640100000000831117156100aa57600080fd5b91908080601f016020809104026020016040519081016040528093929190818152602001838380828437600081840152601f19601f820116905080830192505050505050509192919290505050610182565b604051808315151515815260200180602001828103825283818151815260200191508051906020019080838360005b8381101561014657808201518184015260208101905061012b565b50505050905090810190601f1680156101735780820380516001836020036101000a031916815260200191505b50935050505060405180910390f35b600060608373ffffffffffffffffffffffffffffffffffffffff16836040518082805190602001908083835b602083106101d157805182526020820191506020810190506020830392506101ae565b6001836020036101000a038019825116818451168082178552505050505050905001915050600060405180830381855afa9150503d8060008114610231576040519150601f19603f3d011682016040523d82523d6000602084013e610236565b606091505b508092508193505050600060405180807f6572726f72000000000000000000000000000000000000000000000000000000815250600501905060405180910390209050821561028a57818051906020012090505b8060025582829250925050925092905056fea2646970667358221220db58d80e8530eed625d9b4250a6055c2eb1d7c117a7ca267e6f8a059bdd2f39e64736f6c634300060a0033",
                "nonce" : "0x01",
                "storage" : {
                }
            },
            "0xa94f5374fce5edbc8e2a8697c15331677e6ebf0b" : {
                "balance" : "0x0de0b6b3a7640000",
                "code" : "0x",
                "nonce" : "0x00",
                "storage" : {
                }
            }
        },
        "postState" : {
            "0x095e7baea6a6c7c4c2dfeb977efac326af552d87" : {
                "code" : "0x60806040526004361061001e5760003560e01c806312bd429914610023575b600080fd5b6100fc6004803603604081101561003957600080fd5b81019080803573ffffffffffffffffffffffffffffffffffffffff1690602001909291908035906020019064010000000081111561007657600080fd5b82018360208201111561008857600080fd5b803590602001918460018302840111640100000000831117156100aa57600080fd5b91908080601f016020809104026020016040519081016040528093929190818152602001838380828437600081840152601f19601f820116905080830192505050505050509192919290505050610182565b604051808315151515815260200180602001828103825283818151815260200191508051906020019080838360005b8381101561014657808201518184015260208101905061012b565b50505050905090810190601f1680156101735780820380516001836020036101000a031916815260200191505b50935050505060405180910390f35b600060608373ffffffffffffffffffffffffffffffffffffffff16836040518082805190602001908083835b602083106101d157805182526020820191506020810190506020830392506101ae565b6001836020036101000a038019825116818451168082178552505050505050905001915050600060405180830381855afa9150503d8060008114610231576040519150601f19603f3d011682016040523d82523d6000602084013e610236565b606091505b508092508193505050600060405180807f6572726f72000000000000000000000000000000000000000000000000000000815250600501905060405180910390209050821561028a57818051906020012090505b8060025582829250925050925092905056fea2646970667358221220db58d80e8530eed625d9b4250a6055c2eb1d7c117a7ca267e6f8a059bdd2f39e64736f6c634300060a0033",
                "nonce" : "0x01",
                "balance" : "0x03e8",
                "storage" : {
                    "0x02" : "0xfc9dd9bf8f89bde97ac3d835584ba51694176dfefbce45c96ab6d6aa7ca446ec"
                }
            },
            "0x2adc25665018aa1fe0e6bc666dac8fc2697ff9ba" : {
                "code" : "0x",
                "nonce" : "0x00",
                "balance" : "0x1bc16d674eca6875",
                "storage" : {
                }
            },
            "0xa94f5374fce5edbc8e2a8697c15331677e6ebf0b" : {
                "code" : "0x",
                "nonce" : "0x01",
                "balance" : "0x0de0b6b3a76193a3",
                "storage" : {
                }
            }
        },
        "network" : "Berlin",
        "sealEngine" : "NoProof",
        "lastblockhash" : "0xfa38557c3cff140d47b4c02bf4137afbf5d7f169d5f740854bd2fce7e5291415",
        "genesisRLP" : "0xf901fcf901f7a00000000000000000000000000000000000000000000000000000000000000000a01dcc4de8dec75d7aab85b567b6ccd41ad312451b948a7413f0a142fd40d49347942adc25665018aa1fe0e6bc666dac8fc2697ff9baa0bf61e00e2f1fbb3ea831c4ff3bbeff62f2737e7f0d88945ba62e0722eab6cd68a056e81f171bcc55a6ff8345e692c0f86e5b48e01b996cadc001622fb5e363b421a056e81f171bcc55a6ff8345e692c0f86e5b48e01b996cadc001622fb5e363b421b9010000000000000000000000000000000000000000000000000000000000000000000000000000000000000000000000000000000000000000000000000000000000000000000000000000000000000000000000000000000000000000000000000000000000000000000000000000000000000000000000000000000000000000000000000000000000000000000000000000000000000000000000000000000000000000000000000000000000000000000000000000000000000000000000000000000000000000000000000000000000000000000000000000000000000000000000000000000000000000000000000000000000000000000000000000000000830200008087ff112233445566808000a00000000000000000000000000000000000000000000000000000000000000000880000000000000000c0c0",
        "blocks" : [
            {
                "rlp" : "0xf9034df901fca0f227282805f439ca053613f53f119422bda960eea236c4b013eca3b95c6be464a01dcc4de8dec75d7aab85b567b6ccd41ad312451b948a7413f0a142fd40d49347942adc25665018aa1fe0e6bc666dac8fc2697ff9baa0f3f5bbe577e28e989a00eaa0a7baeb60300248e9c9787a470c1eb141455b5d37a0720caf17dd9ba0d0cd01f8575e2810fa168669db7209173a28dd8c0e2288a9fea0708ef4fc19529d1b5eac10db63101a36c89139ca9076f1a384b85b5348ff6c48b9010000000000000000000000000000000000000000000000000000000000000000000000000000000000000000000000000000000000000000000000000000000000000000000000000000000000000000000000000000000000000000000000000000000000000000000000000000000000000000000000000000000000000000000000000000000000000000000000000000000000000000000000000000000000000000000000000000000000000000000000000000000000000000000000000000000000000000000000000000000000000000000000000000000000000000000000000000000000000000000000000000000000000000000000000000000000830200000187ff112233445566830268758203e800a00000000000000000000000000000000000000000000000000000000000000000880000000000000000f9014af901478001836acfc094095e7baea6a6c7c4c2dfeb977efac326af552d878203e8b8e412bd42990000000000000000000000000000000000000000000000000000000000000012000000000000000000000000000000000000000000000000000000000000004000000000000000000000000000000000000000000000000000000000000000800000000000000000000000000000000018efc6d366d79a09b7d56c81c17c2eec2ef7395fdb5991f41273329cdcf4537d342bddd83c3994a40d5c18f6afa054c600000000000000000000000000000000127021ce28627a9d6a492720f728acef3b38c12b951f70a932c7fc0ce3f5b6c80783351cec55d7d1bc4ab964bb4913b21ca06eb514e51b967dac6f4e7861dbb4d31e33e54ebb9b1e113ea49e65829f757f9ba04f14102e6535f1369c56b5007e5c0ff679aa0fa3fe3f9aaecf5b37cdacfe7217c0",
                "blockHeader" : {
                    "bloom" : "0x00000000000000000000000000000000000000000000000000000000000000000000000000000000000000000000000000000000000000000000000000000000000000000000000000000000000000000000000000000000000000000000000000000000000000000000000000000000000000000000000000000000000000000000000000000000000000000000000000000000000000000000000000000000000000000000000000000000000000000000000000000000000000000000000000000000000000000000000000000000000000000000000000000000000000000000000000000000000000000000000000000000000000000000000000000000",
                    "coinbase" : "0x2adc25665018aa1fe0e6bc666dac8fc2697ff9ba",
                    "difficulty" : "0x020000",
                    "extraData" : "0x00",
                    "gasLimit" : "0xff112233445566",
                    "gasUsed" : "0x026875",
                    "hash" : "0xfa38557c3cff140d47b4c02bf4137afbf5d7f169d5f740854bd2fce7e5291415",
                    "mixHash" : "0x0000000000000000000000000000000000000000000000000000000000000000",
                    "nonce" : "0x0000000000000000",
                    "number" : "0x01",
                    "parentHash" : "0xf227282805f439ca053613f53f119422bda960eea236c4b013eca3b95c6be464",
                    "receiptTrie" : "0x708ef4fc19529d1b5eac10db63101a36c89139ca9076f1a384b85b5348ff6c48",
                    "stateRoot" : "0xf3f5bbe577e28e989a00eaa0a7baeb60300248e9c9787a470c1eb141455b5d37",
                    "timestamp" : "0x03e8",
                    "transactionsTrie" : "0x720caf17dd9ba0d0cd01f8575e2810fa168669db7209173a28dd8c0e2288a9fe",
                    "uncleHash" : "0x1dcc4de8dec75d7aab85b567b6ccd41ad312451b948a7413f0a142fd40d49347"
                },
                "transactions" : [
                    {
                        "data" : "0x12bd42990000000000000000000000000000000000000000000000000000000000000012000000000000000000000000000000000000000000000000000000000000004000000000000000000000000000000000000000000000000000000000000000800000000000000000000000000000000018efc6d366d79a09b7d56c81c17c2eec2ef7395fdb5991f41273329cdcf4537d342bddd83c3994a40d5c18f6afa054c600000000000000000000000000000000127021ce28627a9d6a492720f728acef3b38c12b951f70a932c7fc0ce3f5b6c80783351cec55d7d1bc4ab964bb4913b2",
                        "gasLimit" : "0x6acfc0",
                        "gasPrice" : "0x01",
                        "nonce" : "0x00",
                        "to" : "0x095e7baea6a6c7c4c2dfeb977efac326af552d87",
                        "value" : "0x03e8",
                        "v" : "0x1c",
                        "r" : "0x6eb514e51b967dac6f4e7861dbb4d31e33e54ebb9b1e113ea49e65829f757f9b",
                        "s" : "0x4f14102e6535f1369c56b5007e5c0ff679aa0fa3fe3f9aaecf5b37cdacfe7217"
                    }
                ],
                "uncleHeaders" : [
                ]
            }
        ]
    }
}