{
    "g2_add_95_d0g0v0_Berlin" : {
        "_info" : {
            "comment" : "A test for g2_add_95",
            "filling-rpc-server" : "evm version 1.9.23-unstable-0efc69a9-20201022",
            "filling-tool-version" : "retesteth-0.0.9-berlin+commit.2f30f0ea.Linux.g++",
            "lllcversion" : "Version: 0.5.14-develop.2020.6.22+commit.9189ad7a.Linux.g++",
            "source" : "src/GeneralStateTestsFiller/stEIP2537/g2_add_95Filler.json",
            "sourceHash" : "15e580a170d9f9fefec65f1dd974f927ee019285136274a7263a8528ebcadb2d"
        },
        "genesisBlockHeader" : {
            "bloom" : "0x00000000000000000000000000000000000000000000000000000000000000000000000000000000000000000000000000000000000000000000000000000000000000000000000000000000000000000000000000000000000000000000000000000000000000000000000000000000000000000000000000000000000000000000000000000000000000000000000000000000000000000000000000000000000000000000000000000000000000000000000000000000000000000000000000000000000000000000000000000000000000000000000000000000000000000000000000000000000000000000000000000000000000000000000000000000",
            "coinbase" : "0x2adc25665018aa1fe0e6bc666dac8fc2697ff9ba",
            "difficulty" : "0x020000",
            "extraData" : "0x00",
            "gasLimit" : "0xff112233445566",
            "gasUsed" : "0x00",
            "hash" : "0xf227282805f439ca053613f53f119422bda960eea236c4b013eca3b95c6be464",
            "mixHash" : "0x0000000000000000000000000000000000000000000000000000000000000000",
            "nonce" : "0x0000000000000000",
            "number" : "0x00",
            "parentHash" : "0x0000000000000000000000000000000000000000000000000000000000000000",
            "receiptTrie" : "0x56e81f171bcc55a6ff8345e692c0f86e5b48e01b996cadc001622fb5e363b421",
            "stateRoot" : "0xbf61e00e2f1fbb3ea831c4ff3bbeff62f2737e7f0d88945ba62e0722eab6cd68",
            "timestamp" : "0x00",
            "transactionsTrie" : "0x56e81f171bcc55a6ff8345e692c0f86e5b48e01b996cadc001622fb5e363b421",
            "uncleHash" : "0x1dcc4de8dec75d7aab85b567b6ccd41ad312451b948a7413f0a142fd40d49347"
        },
        "pre" : {
            "0x095e7baea6a6c7c4c2dfeb977efac326af552d87" : {
                "balance" : "0x00",
                "code" : "0x60806040526004361061001e5760003560e01c806312bd429914610023575b600080fd5b6100fc6004803603604081101561003957600080fd5b81019080803573ffffffffffffffffffffffffffffffffffffffff1690602001909291908035906020019064010000000081111561007657600080fd5b82018360208201111561008857600080fd5b803590602001918460018302840111640100000000831117156100aa57600080fd5b91908080601f016020809104026020016040519081016040528093929190818152602001838380828437600081840152601f19601f820116905080830192505050505050509192919290505050610182565b604051808315151515815260200180602001828103825283818151815260200191508051906020019080838360005b8381101561014657808201518184015260208101905061012b565b50505050905090810190601f1680156101735780820380516001836020036101000a031916815260200191505b50935050505060405180910390f35b600060608373ffffffffffffffffffffffffffffffffffffffff16836040518082805190602001908083835b602083106101d157805182526020820191506020810190506020830392506101ae565b6001836020036101000a038019825116818451168082178552505050505050905001915050600060405180830381855afa9150503d8060008114610231576040519150601f19603f3d011682016040523d82523d6000602084013e610236565b606091505b508092508193505050600060405180807f6572726f72000000000000000000000000000000000000000000000000000000815250600501905060405180910390209050821561028a57818051906020012090505b8060025582829250925050925092905056fea2646970667358221220db58d80e8530eed625d9b4250a6055c2eb1d7c117a7ca267e6f8a059bdd2f39e64736f6c634300060a0033",
                "nonce" : "0x01",
                "storage" : {
                }
            },
            "0xa94f5374fce5edbc8e2a8697c15331677e6ebf0b" : {
                "balance" : "0x0de0b6b3a7640000",
                "code" : "0x",
                "nonce" : "0x00",
                "storage" : {
                }
            }
        },
        "postState" : {
            "0x095e7baea6a6c7c4c2dfeb977efac326af552d87" : {
                "code" : "0x60806040526004361061001e5760003560e01c806312bd429914610023575b600080fd5b6100fc6004803603604081101561003957600080fd5b81019080803573ffffffffffffffffffffffffffffffffffffffff1690602001909291908035906020019064010000000081111561007657600080fd5b82018360208201111561008857600080fd5b803590602001918460018302840111640100000000831117156100aa57600080fd5b91908080601f016020809104026020016040519081016040528093929190818152602001838380828437600081840152601f19601f820116905080830192505050505050509192919290505050610182565b604051808315151515815260200180602001828103825283818151815260200191508051906020019080838360005b8381101561014657808201518184015260208101905061012b565b50505050905090810190601f1680156101735780820380516001836020036101000a031916815260200191505b50935050505060405180910390f35b600060608373ffffffffffffffffffffffffffffffffffffffff16836040518082805190602001908083835b602083106101d157805182526020820191506020810190506020830392506101ae565b6001836020036101000a038019825116818451168082178552505050505050905001915050600060405180830381855afa9150503d8060008114610231576040519150601f19603f3d011682016040523d82523d6000602084013e610236565b606091505b508092508193505050600060405180807f6572726f72000000000000000000000000000000000000000000000000000000815250600501905060405180910390209050821561028a57818051906020012090505b8060025582829250925050925092905056fea2646970667358221220db58d80e8530eed625d9b4250a6055c2eb1d7c117a7ca267e6f8a059bdd2f39e64736f6c634300060a0033",
                "nonce" : "0x01",
                "balance" : "0x03e8",
                "storage" : {
                    "0x02" : "0xd7472b1adbc89a6edcca219ad9b2c7b1480512b8aa98fd56dbfc430ea26acab0"
                }
            },
            "0x2adc25665018aa1fe0e6bc666dac8fc2697ff9ba" : {
                "code" : "0x",
                "nonce" : "0x00",
                "balance" : "0x1bc16d674ec8e443",
                "storage" : {
                }
            },
            "0xa94f5374fce5edbc8e2a8697c15331677e6ebf0b" : {
                "code" : "0x",
                "nonce" : "0x01",
                "balance" : "0x0de0b6b3a76317d5",
                "storage" : {
                }
            }
        },
        "network" : "Berlin",
        "sealEngine" : "NoProof",
        "lastblockhash" : "0x558935bf48ead1e3c2549e72d7ddeaa24eb7916901d8a26ae4161c3a16fbf81f",
        "genesisRLP" : "0xf901fcf901f7a00000000000000000000000000000000000000000000000000000000000000000a01dcc4de8dec75d7aab85b567b6ccd41ad312451b948a7413f0a142fd40d49347942adc25665018aa1fe0e6bc666dac8fc2697ff9baa0bf61e00e2f1fbb3ea831c4ff3bbeff62f2737e7f0d88945ba62e0722eab6cd68a056e81f171bcc55a6ff8345e692c0f86e5b48e01b996cadc001622fb5e363b421a056e81f171bcc55a6ff8345e692c0f86e5b48e01b996cadc001622fb5e363b421b9010000000000000000000000000000000000000000000000000000000000000000000000000000000000000000000000000000000000000000000000000000000000000000000000000000000000000000000000000000000000000000000000000000000000000000000000000000000000000000000000000000000000000000000000000000000000000000000000000000000000000000000000000000000000000000000000000000000000000000000000000000000000000000000000000000000000000000000000000000000000000000000000000000000000000000000000000000000000000000000000000000000000000000000000000000000000830200008087ff112233445566808000a00000000000000000000000000000000000000000000000000000000000000000880000000000000000c0c0",
        "blocks" : [
            {
                "rlp" : "0xf904ccf901fba0f227282805f439ca053613f53f119422bda960eea236c4b013eca3b95c6be464a01dcc4de8dec75d7aab85b567b6ccd41ad312451b948a7413f0a142fd40d49347942adc25665018aa1fe0e6bc666dac8fc2697ff9baa0991b5f98cd1efd810ab18b22398682447bcb46b71dc62e4381ef4f24e7d305bda0c3d2d5ca64dc8136c35957e1e4eed4479585a52fa4af849c6600a580201c0842a0e2d6e9291801ef019ecd6b21d82ae689e3d34553d0d9f5b69476ec1e156cac84b9010000000000000000000000000000000000000000000000000000000000000000000000000000000000000000000000000000000000000000000000000000000000000000000000000000000000000000000000000000000000000000000000000000000000000000000000000000000000000000000000000000000000000000000000000000000000000000000000000000000000000000000000000000000000000000000000000000000000000000000000000000000000000000000000000000000000000000000000000000000000000000000000000000000000000000000000000000000000000000000000000000000000000000000000000000000000830200000187ff11223344556682e4438203e800a00000000000000000000000000000000000000000000000000000000000000000880000000000000000f902caf902c78001836acfc094095e7baea6a6c7c4c2dfeb977efac326af552d878203e8b9026412bd4299000000000000000000000000000000000000000000000000000000000000000d000000000000000000000000000000000000000000000000000000000000004000000000000000000000000000000000000000000000000000000000000002000000000000000000000000000000000009b011f793d9a939d916d058ffe91b58138820a646cc450389b3074ae3715d06ddec1075afecda71c65c7ca085210c740000000000000000000000000000000003d4d20f4b93c1e90a0a06bd534d8b4fd64e4c4aba77ae42cf4c5b2bd95f8b02ec4069ea246ff46404e6c9eac632fbac00000000000000000000000000000000051e88c3adfd4d6a02d3f03812362a6cfba3a6c69b9aeef75b51106cc7f1750293d61e31f0ea29b5d7aa56debb6d2aff00000000000000000000000000000000086d9c4ea6769cdf49ffbbf7351023b4aea640e8c90f9291222fd0b5984bca4d481bf7e10df921406a34804e6a09f99d000000000000000000000000000000000e619d79792ac685030311a31a21203e5172d2e5d20ecf69a1e64158e7fe903b3695fd15432d3ca35562b5a8bd9cbdc20000000000000000000000000000000012394a621a503d1d92df3306649a6c6979816cabeb8f8d27450ec883c4e75f6f7411f3bfd068dc8dee58cdb8ebbd91bd0000000000000000000000000000000001652a688dbfd63a1c89452335bdaf248c97c9c6e5a3ad5a126577a6b9ab57075b22987ea8697b459611a5ab164f328400000000000000000000000000000000058a37347c5637808632ae6e8f264e8bde14ebb0ae69828f962f51b728321fea57c5a97ab694f7db175efe7a17d36cb61ca029d64b90c12e7c5c897e5de7c68dcbf8c6e12cf7443968123af8af62c2cc782f9f7198c0f40c71787861697b14af5e6f36dda474eb58e29d4f1973b0adf61c68c0",
                "blockHeader" : {
                    "bloom" : "0x00000000000000000000000000000000000000000000000000000000000000000000000000000000000000000000000000000000000000000000000000000000000000000000000000000000000000000000000000000000000000000000000000000000000000000000000000000000000000000000000000000000000000000000000000000000000000000000000000000000000000000000000000000000000000000000000000000000000000000000000000000000000000000000000000000000000000000000000000000000000000000000000000000000000000000000000000000000000000000000000000000000000000000000000000000000",
                    "coinbase" : "0x2adc25665018aa1fe0e6bc666dac8fc2697ff9ba",
                    "difficulty" : "0x020000",
                    "extraData" : "0x00",
                    "gasLimit" : "0xff112233445566",
                    "gasUsed" : "0xe443",
                    "hash" : "0x558935bf48ead1e3c2549e72d7ddeaa24eb7916901d8a26ae4161c3a16fbf81f",
                    "mixHash" : "0x0000000000000000000000000000000000000000000000000000000000000000",
                    "nonce" : "0x0000000000000000",
                    "number" : "0x01",
                    "parentHash" : "0xf227282805f439ca053613f53f119422bda960eea236c4b013eca3b95c6be464",
                    "receiptTrie" : "0xe2d6e9291801ef019ecd6b21d82ae689e3d34553d0d9f5b69476ec1e156cac84",
                    "stateRoot" : "0x991b5f98cd1efd810ab18b22398682447bcb46b71dc62e4381ef4f24e7d305bd",
                    "timestamp" : "0x03e8",
                    "transactionsTrie" : "0xc3d2d5ca64dc8136c35957e1e4eed4479585a52fa4af849c6600a580201c0842",
                    "uncleHash" : "0x1dcc4de8dec75d7aab85b567b6ccd41ad312451b948a7413f0a142fd40d49347"
                },
                "transactions" : [
                    {
                        "data" : "0x12bd4299000000000000000000000000000000000000000000000000000000000000000d000000000000000000000000000000000000000000000000000000000000004000000000000000000000000000000000000000000000000000000000000002000000000000000000000000000000000009b011f793d9a939d916d058ffe91b58138820a646cc450389b3074ae3715d06ddec1075afecda71c65c7ca085210c740000000000000000000000000000000003d4d20f4b93c1e90a0a06bd534d8b4fd64e4c4aba77ae42cf4c5b2bd95f8b02ec4069ea246ff46404e6c9eac632fbac00000000000000000000000000000000051e88c3adfd4d6a02d3f03812362a6cfba3a6c69b9aeef75b51106cc7f1750293d61e31f0ea29b5d7aa56debb6d2aff00000000000000000000000000000000086d9c4ea6769cdf49ffbbf7351023b4aea640e8c90f9291222fd0b5984bca4d481bf7e10df921406a34804e6a09f99d000000000000000000000000000000000e619d79792ac685030311a31a21203e5172d2e5d20ecf69a1e64158e7fe903b3695fd15432d3ca35562b5a8bd9cbdc20000000000000000000000000000000012394a621a503d1d92df3306649a6c6979816cabeb8f8d27450ec883c4e75f6f7411f3bfd068dc8dee58cdb8ebbd91bd0000000000000000000000000000000001652a688dbfd63a1c89452335bdaf248c97c9c6e5a3ad5a126577a6b9ab57075b22987ea8697b459611a5ab164f328400000000000000000000000000000000058a37347c5637808632ae6e8f264e8bde14ebb0ae69828f962f51b728321fea57c5a97ab694f7db175efe7a17d36cb6",
                        "gasLimit" : "0x6acfc0",
                        "gasPrice" : "0x01",
                        "nonce" : "0x00",
                        "to" : "0x095e7baea6a6c7c4c2dfeb977efac326af552d87",
                        "value" : "0x03e8",
                        "v" : "0x1c",
                        "r" : "0x29d64b90c12e7c5c897e5de7c68dcbf8c6e12cf7443968123af8af62c2cc782f",
                        "s" : "0x7198c0f40c71787861697b14af5e6f36dda474eb58e29d4f1973b0adf61c68"
                    }
                ],
                "uncleHeaders" : [
                ]
            }
        ]
    }
}