{
    "g2_add_73_d0g0v0_Berlin" : {
        "_info" : {
            "comment" : "A test for g2_add_73",
            "filling-rpc-server" : "evm version 1.9.23-unstable-0efc69a9-20201022",
            "filling-tool-version" : "retesteth-0.0.9-berlin+commit.2f30f0ea.Linux.g++",
            "lllcversion" : "Version: 0.5.14-develop.2020.6.22+commit.9189ad7a.Linux.g++",
            "source" : "src/GeneralStateTestsFiller/stEIP2537/g2_add_73Filler.json",
            "sourceHash" : "f85c445ccb72a047cf47aded130b054742ad0bc6e56268097ab74f366b583ce0"
        },
        "genesisBlockHeader" : {
            "bloom" : "0x00000000000000000000000000000000000000000000000000000000000000000000000000000000000000000000000000000000000000000000000000000000000000000000000000000000000000000000000000000000000000000000000000000000000000000000000000000000000000000000000000000000000000000000000000000000000000000000000000000000000000000000000000000000000000000000000000000000000000000000000000000000000000000000000000000000000000000000000000000000000000000000000000000000000000000000000000000000000000000000000000000000000000000000000000000000",
            "coinbase" : "0x2adc25665018aa1fe0e6bc666dac8fc2697ff9ba",
            "difficulty" : "0x020000",
            "extraData" : "0x00",
            "gasLimit" : "0xff112233445566",
            "gasUsed" : "0x00",
            "hash" : "0xf227282805f439ca053613f53f119422bda960eea236c4b013eca3b95c6be464",
            "mixHash" : "0x0000000000000000000000000000000000000000000000000000000000000000",
            "nonce" : "0x0000000000000000",
            "number" : "0x00",
            "parentHash" : "0x0000000000000000000000000000000000000000000000000000000000000000",
            "receiptTrie" : "0x56e81f171bcc55a6ff8345e692c0f86e5b48e01b996cadc001622fb5e363b421",
            "stateRoot" : "0xbf61e00e2f1fbb3ea831c4ff3bbeff62f2737e7f0d88945ba62e0722eab6cd68",
            "timestamp" : "0x00",
            "transactionsTrie" : "0x56e81f171bcc55a6ff8345e692c0f86e5b48e01b996cadc001622fb5e363b421",
            "uncleHash" : "0x1dcc4de8dec75d7aab85b567b6ccd41ad312451b948a7413f0a142fd40d49347"
        },
        "pre" : {
            "0x095e7baea6a6c7c4c2dfeb977efac326af552d87" : {
                "balance" : "0x00",
                "code" : "0x60806040526004361061001e5760003560e01c806312bd429914610023575b600080fd5b6100fc6004803603604081101561003957600080fd5b81019080803573ffffffffffffffffffffffffffffffffffffffff1690602001909291908035906020019064010000000081111561007657600080fd5b82018360208201111561008857600080fd5b803590602001918460018302840111640100000000831117156100aa57600080fd5b91908080601f016020809104026020016040519081016040528093929190818152602001838380828437600081840152601f19601f820116905080830192505050505050509192919290505050610182565b604051808315151515815260200180602001828103825283818151815260200191508051906020019080838360005b8381101561014657808201518184015260208101905061012b565b50505050905090810190601f1680156101735780820380516001836020036101000a031916815260200191505b50935050505060405180910390f35b600060608373ffffffffffffffffffffffffffffffffffffffff16836040518082805190602001908083835b602083106101d157805182526020820191506020810190506020830392506101ae565b6001836020036101000a038019825116818451168082178552505050505050905001915050600060405180830381855afa9150503d8060008114610231576040519150601f19603f3d011682016040523d82523d6000602084013e610236565b606091505b508092508193505050600060405180807f6572726f72000000000000000000000000000000000000000000000000000000815250600501905060405180910390209050821561028a57818051906020012090505b8060025582829250925050925092905056fea2646970667358221220db58d80e8530eed625d9b4250a6055c2eb1d7c117a7ca267e6f8a059bdd2f39e64736f6c634300060a0033",
                "nonce" : "0x01",
                "storage" : {
                }
            },
            "0xa94f5374fce5edbc8e2a8697c15331677e6ebf0b" : {
                "balance" : "0x0de0b6b3a7640000",
                "code" : "0x",
                "nonce" : "0x00",
                "storage" : {
                }
            }
        },
        "postState" : {
            "0x095e7baea6a6c7c4c2dfeb977efac326af552d87" : {
                "code" : "0x60806040526004361061001e5760003560e01c806312bd429914610023575b600080fd5b6100fc6004803603604081101561003957600080fd5b81019080803573ffffffffffffffffffffffffffffffffffffffff1690602001909291908035906020019064010000000081111561007657600080fd5b82018360208201111561008857600080fd5b803590602001918460018302840111640100000000831117156100aa57600080fd5b91908080601f016020809104026020016040519081016040528093929190818152602001838380828437600081840152601f19601f820116905080830192505050505050509192919290505050610182565b604051808315151515815260200180602001828103825283818151815260200191508051906020019080838360005b8381101561014657808201518184015260208101905061012b565b50505050905090810190601f1680156101735780820380516001836020036101000a031916815260200191505b50935050505060405180910390f35b600060608373ffffffffffffffffffffffffffffffffffffffff16836040518082805190602001908083835b602083106101d157805182526020820191506020810190506020830392506101ae565b6001836020036101000a038019825116818451168082178552505050505050905001915050600060405180830381855afa9150503d8060008114610231576040519150601f19603f3d011682016040523d82523d6000602084013e610236565b606091505b508092508193505050600060405180807f6572726f72000000000000000000000000000000000000000000000000000000815250600501905060405180910390209050821561028a57818051906020012090505b8060025582829250925050925092905056fea2646970667358221220db58d80e8530eed625d9b4250a6055c2eb1d7c117a7ca267e6f8a059bdd2f39e64736f6c634300060a0033",
                "nonce" : "0x01",
                "balance" : "0x03e8",
                "storage" : {
                    "0x02" : "0xe711fb9f6811e3c5440694286edc2f7fbb2558992be39eb59b86cbba03340f11"
                }
            },
            "0x2adc25665018aa1fe0e6bc666dac8fc2697ff9ba" : {
                "code" : "0x",
                "nonce" : "0x00",
                "balance" : "0x1bc16d674ec8e437",
                "storage" : {
                }
            },
            "0xa94f5374fce5edbc8e2a8697c15331677e6ebf0b" : {
                "code" : "0x",
                "nonce" : "0x01",
                "balance" : "0x0de0b6b3a76317e1",
                "storage" : {
                }
            }
        },
        "network" : "Berlin",
        "sealEngine" : "NoProof",
        "lastblockhash" : "0xd935ffac3754012d98e589ed20fd7984c71de2896f77b31df717b517fe50b7fd",
        "genesisRLP" : "0xf901fcf901f7a00000000000000000000000000000000000000000000000000000000000000000a01dcc4de8dec75d7aab85b567b6ccd41ad312451b948a7413f0a142fd40d49347942adc25665018aa1fe0e6bc666dac8fc2697ff9baa0bf61e00e2f1fbb3ea831c4ff3bbeff62f2737e7f0d88945ba62e0722eab6cd68a056e81f171bcc55a6ff8345e692c0f86e5b48e01b996cadc001622fb5e363b421a056e81f171bcc55a6ff8345e692c0f86e5b48e01b996cadc001622fb5e363b421b9010000000000000000000000000000000000000000000000000000000000000000000000000000000000000000000000000000000000000000000000000000000000000000000000000000000000000000000000000000000000000000000000000000000000000000000000000000000000000000000000000000000000000000000000000000000000000000000000000000000000000000000000000000000000000000000000000000000000000000000000000000000000000000000000000000000000000000000000000000000000000000000000000000000000000000000000000000000000000000000000000000000000000000000000000000000000830200008087ff112233445566808000a00000000000000000000000000000000000000000000000000000000000000000880000000000000000c0c0",
        "blocks" : [
            {
                "rlp" : "0xf904cdf901fba0f227282805f439ca053613f53f119422bda960eea236c4b013eca3b95c6be464a01dcc4de8dec75d7aab85b567b6ccd41ad312451b948a7413f0a142fd40d49347942adc25665018aa1fe0e6bc666dac8fc2697ff9baa08fc13a4d58f82551d21e37a5ea2b4dfe52268ef77a77468194b970cd5450d4c9a0172a5e023650e4978e7a3a19fa73de9bf2c473a2ce5ac78f7607fd07cf1e59e9a00fb8d8ab4e0544965140be577909d001ccc6e2a6b9cd565f016e26201e80e3f3b9010000000000000000000000000000000000000000000000000000000000000000000000000000000000000000000000000000000000000000000000000000000000000000000000000000000000000000000000000000000000000000000000000000000000000000000000000000000000000000000000000000000000000000000000000000000000000000000000000000000000000000000000000000000000000000000000000000000000000000000000000000000000000000000000000000000000000000000000000000000000000000000000000000000000000000000000000000000000000000000000000000000000000000000000000000000000830200000187ff11223344556682e4378203e800a00000000000000000000000000000000000000000000000000000000000000000880000000000000000f902cbf902c88001836acfc094095e7baea6a6c7c4c2dfeb977efac326af552d878203e8b9026412bd4299000000000000000000000000000000000000000000000000000000000000000d00000000000000000000000000000000000000000000000000000000000000400000000000000000000000000000000000000000000000000000000000000200000000000000000000000000000000000fa7f8fbfa1d4ef5f001a451c55ed261dee344025e599884b29d086e15665867932120d33bee579d5eb1b7e6c7299f310000000000000000000000000000000001f06356f793350b17b47a623059a068800ca1eab6089c7c146182990063e8e23bbf40d95a42bf6e976224b680b75bfd0000000000000000000000000000000008807f6606d2302450bfd8b38fd4147b851ff59762c1ff48f9442c4d7b77a32c5e023821eb47fca839a27fde60e5f61d000000000000000000000000000000000c5b92f1ca9c20d4b6b11d794a5853824cff20d9267a20a7aaa4bed8bfdc728c4d4d50feb8f0b569757b97f473138db100000000000000000000000000000000039d8e90425810a0b2fb5c915905863eb2da363ad4188e42cedce678bdd0f51eca0a96b78ab9e082d59dcd10e3c3c97a000000000000000000000000000000001973250dc31d16f658323d021dddc5439ef4396b6ed735f108cd7b27feb1b508daf863ab6431a77ec0b10cf7e001244f000000000000000000000000000000000f05a111b41a54e0ca78c3a1fff3b80bee7c1505a06b9a4faf36a73b87121d2952cc4f4c4e0dcb6633cad12b0caffc620000000000000000000000000000000018daa0f9a2bb347517eee63463b9d6a5e850446e8a94d0986f2921bf81a9f7541e8fee9d7bbb6d9181021af945fce3e31ca0b41eb2ba935507729331cda3082715839abf1a55fc27f2f7d2d25270f6c86a54a00f23a567e8f3e1ef4e374c17a2a4660683f26eccecee2d1ca5ffac507d951d7dc0",
                "blockHeader" : {
                    "bloom" : "0x00000000000000000000000000000000000000000000000000000000000000000000000000000000000000000000000000000000000000000000000000000000000000000000000000000000000000000000000000000000000000000000000000000000000000000000000000000000000000000000000000000000000000000000000000000000000000000000000000000000000000000000000000000000000000000000000000000000000000000000000000000000000000000000000000000000000000000000000000000000000000000000000000000000000000000000000000000000000000000000000000000000000000000000000000000000",
                    "coinbase" : "0x2adc25665018aa1fe0e6bc666dac8fc2697ff9ba",
                    "difficulty" : "0x020000",
                    "extraData" : "0x00",
                    "gasLimit" : "0xff112233445566",
                    "gasUsed" : "0xe437",
                    "hash" : "0xd935ffac3754012d98e589ed20fd7984c71de2896f77b31df717b517fe50b7fd",
                    "mixHash" : "0x0000000000000000000000000000000000000000000000000000000000000000",
                    "nonce" : "0x0000000000000000",
                    "number" : "0x01",
                    "parentHash" : "0xf227282805f439ca053613f53f119422bda960eea236c4b013eca3b95c6be464",
                    "receiptTrie" : "0x0fb8d8ab4e0544965140be577909d001ccc6e2a6b9cd565f016e26201e80e3f3",
                    "stateRoot" : "0x8fc13a4d58f82551d21e37a5ea2b4dfe52268ef77a77468194b970cd5450d4c9",
                    "timestamp" : "0x03e8",
                    "transactionsTrie" : "0x172a5e023650e4978e7a3a19fa73de9bf2c473a2ce5ac78f7607fd07cf1e59e9",
                    "uncleHash" : "0x1dcc4de8dec75d7aab85b567b6ccd41ad312451b948a7413f0a142fd40d49347"
                },
                "transactions" : [
                    {
                        "data" : "0x12bd4299000000000000000000000000000000000000000000000000000000000000000d00000000000000000000000000000000000000000000000000000000000000400000000000000000000000000000000000000000000000000000000000000200000000000000000000000000000000000fa7f8fbfa1d4ef5f001a451c55ed261dee344025e599884b29d086e15665867932120d33bee579d5eb1b7e6c7299f310000000000000000000000000000000001f06356f793350b17b47a623059a068800ca1eab6089c7c146182990063e8e23bbf40d95a42bf6e976224b680b75bfd0000000000000000000000000000000008807f6606d2302450bfd8b38fd4147b851ff59762c1ff48f9442c4d7b77a32c5e023821eb47fca839a27fde60e5f61d000000000000000000000000000000000c5b92f1ca9c20d4b6b11d794a5853824cff20d9267a20a7aaa4bed8bfdc728c4d4d50feb8f0b569757b97f473138db100000000000000000000000000000000039d8e90425810a0b2fb5c915905863eb2da363ad4188e42cedce678bdd0f51eca0a96b78ab9e082d59dcd10e3c3c97a000000000000000000000000000000001973250dc31d16f658323d021dddc5439ef4396b6ed735f108cd7b27feb1b508daf863ab6431a77ec0b10cf7e001244f000000000000000000000000000000000f05a111b41a54e0ca78c3a1fff3b80bee7c1505a06b9a4faf36a73b87121d2952cc4f4c4e0dcb6633cad12b0caffc620000000000000000000000000000000018daa0f9a2bb347517eee63463b9d6a5e850446e8a94d0986f2921bf81a9f7541e8fee9d7bbb6d9181021af945fce3e3",
                        "gasLimit" : "0x6acfc0",
                        "gasPrice" : "0x01",
                        "nonce" : "0x00",
                        "to" : "0x095e7baea6a6c7c4c2dfeb977efac326af552d87",
                        "value" : "0x03e8",
                        "v" : "0x1c",
                        "r" : "0xb41eb2ba935507729331cda3082715839abf1a55fc27f2f7d2d25270f6c86a54",
                        "s" : "0x0f23a567e8f3e1ef4e374c17a2a4660683f26eccecee2d1ca5ffac507d951d7d"
                    }
                ],
                "uncleHeaders" : [
                ]
            }
        ]
    }
}