{
    "g2_add_20_d0g0v0_Berlin" : {
        "_info" : {
            "comment" : "A test for g2_add_20",
            "filling-rpc-server" : "evm version 1.9.23-unstable-0efc69a9-20201022",
            "filling-tool-version" : "retesteth-0.0.9-berlin+commit.2f30f0ea.Linux.g++",
            "lllcversion" : "Version: 0.5.14-develop.2020.6.22+commit.9189ad7a.Linux.g++",
            "source" : "src/GeneralStateTestsFiller/stEIP2537/g2_add_20Filler.json",
            "sourceHash" : "5b6c77cc217ed5f7e61bea159bf3b9e42e6aba2fa66ea9c346a1ad8cb34dca33"
        },
        "genesisBlockHeader" : {
            "bloom" : "0x00000000000000000000000000000000000000000000000000000000000000000000000000000000000000000000000000000000000000000000000000000000000000000000000000000000000000000000000000000000000000000000000000000000000000000000000000000000000000000000000000000000000000000000000000000000000000000000000000000000000000000000000000000000000000000000000000000000000000000000000000000000000000000000000000000000000000000000000000000000000000000000000000000000000000000000000000000000000000000000000000000000000000000000000000000000",
            "coinbase" : "0x2adc25665018aa1fe0e6bc666dac8fc2697ff9ba",
            "difficulty" : "0x020000",
            "extraData" : "0x00",
            "gasLimit" : "0xff112233445566",
            "gasUsed" : "0x00",
            "hash" : "0xf227282805f439ca053613f53f119422bda960eea236c4b013eca3b95c6be464",
            "mixHash" : "0x0000000000000000000000000000000000000000000000000000000000000000",
            "nonce" : "0x0000000000000000",
            "number" : "0x00",
            "parentHash" : "0x0000000000000000000000000000000000000000000000000000000000000000",
            "receiptTrie" : "0x56e81f171bcc55a6ff8345e692c0f86e5b48e01b996cadc001622fb5e363b421",
            "stateRoot" : "0xbf61e00e2f1fbb3ea831c4ff3bbeff62f2737e7f0d88945ba62e0722eab6cd68",
            "timestamp" : "0x00",
            "transactionsTrie" : "0x56e81f171bcc55a6ff8345e692c0f86e5b48e01b996cadc001622fb5e363b421",
            "uncleHash" : "0x1dcc4de8dec75d7aab85b567b6ccd41ad312451b948a7413f0a142fd40d49347"
        },
        "pre" : {
            "0x095e7baea6a6c7c4c2dfeb977efac326af552d87" : {
                "balance" : "0x00",
                "code" : "0x60806040526004361061001e5760003560e01c806312bd429914610023575b600080fd5b6100fc6004803603604081101561003957600080fd5b81019080803573ffffffffffffffffffffffffffffffffffffffff1690602001909291908035906020019064010000000081111561007657600080fd5b82018360208201111561008857600080fd5b803590602001918460018302840111640100000000831117156100aa57600080fd5b91908080601f016020809104026020016040519081016040528093929190818152602001838380828437600081840152601f19601f820116905080830192505050505050509192919290505050610182565b604051808315151515815260200180602001828103825283818151815260200191508051906020019080838360005b8381101561014657808201518184015260208101905061012b565b50505050905090810190601f1680156101735780820380516001836020036101000a031916815260200191505b50935050505060405180910390f35b600060608373ffffffffffffffffffffffffffffffffffffffff16836040518082805190602001908083835b602083106101d157805182526020820191506020810190506020830392506101ae565b6001836020036101000a038019825116818451168082178552505050505050905001915050600060405180830381855afa9150503d8060008114610231576040519150601f19603f3d011682016040523d82523d6000602084013e610236565b606091505b508092508193505050600060405180807f6572726f72000000000000000000000000000000000000000000000000000000815250600501905060405180910390209050821561028a57818051906020012090505b8060025582829250925050925092905056fea2646970667358221220db58d80e8530eed625d9b4250a6055c2eb1d7c117a7ca267e6f8a059bdd2f39e64736f6c634300060a0033",
                "nonce" : "0x01",
                "storage" : {
                }
            },
            "0xa94f5374fce5edbc8e2a8697c15331677e6ebf0b" : {
                "balance" : "0x0de0b6b3a7640000",
                "code" : "0x",
                "nonce" : "0x00",
                "storage" : {
                }
            }
        },
        "postState" : {
            "0x095e7baea6a6c7c4c2dfeb977efac326af552d87" : {
                "code" : "0x60806040526004361061001e5760003560e01c806312bd429914610023575b600080fd5b6100fc6004803603604081101561003957600080fd5b81019080803573ffffffffffffffffffffffffffffffffffffffff1690602001909291908035906020019064010000000081111561007657600080fd5b82018360208201111561008857600080fd5b803590602001918460018302840111640100000000831117156100aa57600080fd5b91908080601f016020809104026020016040519081016040528093929190818152602001838380828437600081840152601f19601f820116905080830192505050505050509192919290505050610182565b604051808315151515815260200180602001828103825283818151815260200191508051906020019080838360005b8381101561014657808201518184015260208101905061012b565b50505050905090810190601f1680156101735780820380516001836020036101000a031916815260200191505b50935050505060405180910390f35b600060608373ffffffffffffffffffffffffffffffffffffffff16836040518082805190602001908083835b602083106101d157805182526020820191506020810190506020830392506101ae565b6001836020036101000a038019825116818451168082178552505050505050905001915050600060405180830381855afa9150503d8060008114610231576040519150601f19603f3d011682016040523d82523d6000602084013e610236565b606091505b508092508193505050600060405180807f6572726f72000000000000000000000000000000000000000000000000000000815250600501905060405180910390209050821561028a57818051906020012090505b8060025582829250925050925092905056fea2646970667358221220db58d80e8530eed625d9b4250a6055c2eb1d7c117a7ca267e6f8a059bdd2f39e64736f6c634300060a0033",
                "nonce" : "0x01",
                "balance" : "0x03e8",
                "storage" : {
                    "0x02" : "0x8890fd7f8586c9a5d560bdda45a507cf0f9d156cac08dd9f5dfc65888e46aba6"
                }
            },
            "0x2adc25665018aa1fe0e6bc666dac8fc2697ff9ba" : {
                "code" : "0x",
                "nonce" : "0x00",
                "balance" : "0x1bc16d674ec8e443",
                "storage" : {
                }
            },
            "0xa94f5374fce5edbc8e2a8697c15331677e6ebf0b" : {
                "code" : "0x",
                "nonce" : "0x01",
                "balance" : "0x0de0b6b3a76317d5",
                "storage" : {
                }
            }
        },
        "network" : "Berlin",
        "sealEngine" : "NoProof",
        "lastblockhash" : "0xe8dfd395fdffe742fb744d390075f3cb4a28b6ffbbf6e6a45c606980634a9cd1",
        "genesisRLP" : "0xf901fcf901f7a00000000000000000000000000000000000000000000000000000000000000000a01dcc4de8dec75d7aab85b567b6ccd41ad312451b948a7413f0a142fd40d49347942adc25665018aa1fe0e6bc666dac8fc2697ff9baa0bf61e00e2f1fbb3ea831c4ff3bbeff62f2737e7f0d88945ba62e0722eab6cd68a056e81f171bcc55a6ff8345e692c0f86e5b48e01b996cadc001622fb5e363b421a056e81f171bcc55a6ff8345e692c0f86e5b48e01b996cadc001622fb5e363b421b9010000000000000000000000000000000000000000000000000000000000000000000000000000000000000000000000000000000000000000000000000000000000000000000000000000000000000000000000000000000000000000000000000000000000000000000000000000000000000000000000000000000000000000000000000000000000000000000000000000000000000000000000000000000000000000000000000000000000000000000000000000000000000000000000000000000000000000000000000000000000000000000000000000000000000000000000000000000000000000000000000000000000000000000000000000000000830200008087ff112233445566808000a00000000000000000000000000000000000000000000000000000000000000000880000000000000000c0c0",
        "blocks" : [
            {
                "rlp" : "0xf904cdf901fba0f227282805f439ca053613f53f119422bda960eea236c4b013eca3b95c6be464a01dcc4de8dec75d7aab85b567b6ccd41ad312451b948a7413f0a142fd40d49347942adc25665018aa1fe0e6bc666dac8fc2697ff9baa0b47621e1193c8764a216c596a89ba531e21342448cd4568003bd2a655195b72ca0103de6adc67d07fd5fe43c7d9dc1dde6dc9796cff679b21e68c45c5d4ab88974a0e2d6e9291801ef019ecd6b21d82ae689e3d34553d0d9f5b69476ec1e156cac84b9010000000000000000000000000000000000000000000000000000000000000000000000000000000000000000000000000000000000000000000000000000000000000000000000000000000000000000000000000000000000000000000000000000000000000000000000000000000000000000000000000000000000000000000000000000000000000000000000000000000000000000000000000000000000000000000000000000000000000000000000000000000000000000000000000000000000000000000000000000000000000000000000000000000000000000000000000000000000000000000000000000000000000000000000000000000000830200000187ff11223344556682e4438203e800a00000000000000000000000000000000000000000000000000000000000000000880000000000000000f902cbf902c88001836acfc094095e7baea6a6c7c4c2dfeb977efac326af552d878203e8b9026412bd4299000000000000000000000000000000000000000000000000000000000000000d000000000000000000000000000000000000000000000000000000000000004000000000000000000000000000000000000000000000000000000000000002000000000000000000000000000000000019efd37727dfaedf697fcda7a59847dbda8ca7cdc92f34e68691d682e20ae6545ac104d6660fdb8f64a051e69298eae8000000000000000000000000000000001225ace0fdce456dd888c9672503b68ef77b2d11caf1265a767a6ea14911e3ca03fc153f18dfe9d95e0cc68b7b8a3a8d0000000000000000000000000000000008a6b059c1c4da046cc0b1b5d7f33270aceffa607daf6d0d078c06f940604e1a0b4adf01a4091306e3c7eddcf3d95101000000000000000000000000000000000f79bae5260a2f114ffbb9273f3049d3ebb002500a57ee0a7d157d86957f43f87a2e026fb9892dacaadca5ee04fc8e170000000000000000000000000000000002b51851ef3b44481d13f42e5111fa4fec04be0bf6acc7e59dec3a8c8113e5bb7b604c6dbdc5e8eddc2a1ffb81bc2baf0000000000000000000000000000000018ddb483ae75402852b7f285277ff7308ff78a3364cca8b0e0e1fa9182de275fd55c1e8ec3dbde180379c4280787ba8000000000000000000000000000000000170539890c89a4f91acd59efd413b5d1059f0c8fd8718e8f722e865dd106a4eb02e6fb0cd71b34ebc4b94375b52e4dd60000000000000000000000000000000001c2e9392f5d4b75efc5ff10fe97f37e2671cad7e4710765866e92aec99b0130e6ff1314502d069fb7b5f86bfce4300e1ba0e0af6f8ef9dc8b874440c24508e0635f0b021da9d5af0304a20caa0b07c5ba47a079de026613b310d900d09cd64ec240d59f7b1b5cdd6ed85b4bf501fdba451a48c0",
                "blockHeader" : {
                    "bloom" : "0x00000000000000000000000000000000000000000000000000000000000000000000000000000000000000000000000000000000000000000000000000000000000000000000000000000000000000000000000000000000000000000000000000000000000000000000000000000000000000000000000000000000000000000000000000000000000000000000000000000000000000000000000000000000000000000000000000000000000000000000000000000000000000000000000000000000000000000000000000000000000000000000000000000000000000000000000000000000000000000000000000000000000000000000000000000000",
                    "coinbase" : "0x2adc25665018aa1fe0e6bc666dac8fc2697ff9ba",
                    "difficulty" : "0x020000",
                    "extraData" : "0x00",
                    "gasLimit" : "0xff112233445566",
                    "gasUsed" : "0xe443",
                    "hash" : "0xe8dfd395fdffe742fb744d390075f3cb4a28b6ffbbf6e6a45c606980634a9cd1",
                    "mixHash" : "0x0000000000000000000000000000000000000000000000000000000000000000",
                    "nonce" : "0x0000000000000000",
                    "number" : "0x01",
                    "parentHash" : "0xf227282805f439ca053613f53f119422bda960eea236c4b013eca3b95c6be464",
                    "receiptTrie" : "0xe2d6e9291801ef019ecd6b21d82ae689e3d34553d0d9f5b69476ec1e156cac84",
                    "stateRoot" : "0xb47621e1193c8764a216c596a89ba531e21342448cd4568003bd2a655195b72c",
                    "timestamp" : "0x03e8",
                    "transactionsTrie" : "0x103de6adc67d07fd5fe43c7d9dc1dde6dc9796cff679b21e68c45c5d4ab88974",
                    "uncleHash" : "0x1dcc4de8dec75d7aab85b567b6ccd41ad312451b948a7413f0a142fd40d49347"
                },
                "transactions" : [
                    {
                        "data" : "0x12bd4299000000000000000000000000000000000000000000000000000000000000000d000000000000000000000000000000000000000000000000000000000000004000000000000000000000000000000000000000000000000000000000000002000000000000000000000000000000000019efd37727dfaedf697fcda7a59847dbda8ca7cdc92f34e68691d682e20ae6545ac104d6660fdb8f64a051e69298eae8000000000000000000000000000000001225ace0fdce456dd888c9672503b68ef77b2d11caf1265a767a6ea14911e3ca03fc153f18dfe9d95e0cc68b7b8a3a8d0000000000000000000000000000000008a6b059c1c4da046cc0b1b5d7f33270aceffa607daf6d0d078c06f940604e1a0b4adf01a4091306e3c7eddcf3d95101000000000000000000000000000000000f79bae5260a2f114ffbb9273f3049d3ebb002500a57ee0a7d157d86957f43f87a2e026fb9892dacaadca5ee04fc8e170000000000000000000000000000000002b51851ef3b44481d13f42e5111fa4fec04be0bf6acc7e59dec3a8c8113e5bb7b604c6dbdc5e8eddc2a1ffb81bc2baf0000000000000000000000000000000018ddb483ae75402852b7f285277ff7308ff78a3364cca8b0e0e1fa9182de275fd55c1e8ec3dbde180379c4280787ba8000000000000000000000000000000000170539890c89a4f91acd59efd413b5d1059f0c8fd8718e8f722e865dd106a4eb02e6fb0cd71b34ebc4b94375b52e4dd60000000000000000000000000000000001c2e9392f5d4b75efc5ff10fe97f37e2671cad7e4710765866e92aec99b0130e6ff1314502d069fb7b5f86bfce4300e",
                        "gasLimit" : "0x6acfc0",
                        "gasPrice" : "0x01",
                        "nonce" : "0x00",
                        "to" : "0x095e7baea6a6c7c4c2dfeb977efac326af552d87",
                        "value" : "0x03e8",
                        "v" : "0x1b",
                        "r" : "0xe0af6f8ef9dc8b874440c24508e0635f0b021da9d5af0304a20caa0b07c5ba47",
                        "s" : "0x79de026613b310d900d09cd64ec240d59f7b1b5cdd6ed85b4bf501fdba451a48"
                    }
                ],
                "uncleHeaders" : [
                ]
            }
        ]
    }
}