{
    "invalid_subgroup_for_pairing_5_d0g0v0_Berlin" : {
        "_info" : {
            "comment" : "A test for invalid_subgroup_for_pairing_5",
            "filling-rpc-server" : "evm version 1.9.23-unstable-0efc69a9-20201022",
            "filling-tool-version" : "retesteth-0.0.9-berlin+commit.2f30f0ea.Linux.g++",
            "lllcversion" : "Version: 0.5.14-develop.2020.6.22+commit.9189ad7a.Linux.g++",
            "source" : "src/GeneralStateTestsFiller/stEIP2537/invalid_subgroup_for_pairing_5Filler.json",
            "sourceHash" : "9d41bf8002d3257c4db40cd4100996b1fa45f5ce9b1f77c8ff4fa603dec77287"
        },
        "genesisBlockHeader" : {
            "bloom" : "0x00000000000000000000000000000000000000000000000000000000000000000000000000000000000000000000000000000000000000000000000000000000000000000000000000000000000000000000000000000000000000000000000000000000000000000000000000000000000000000000000000000000000000000000000000000000000000000000000000000000000000000000000000000000000000000000000000000000000000000000000000000000000000000000000000000000000000000000000000000000000000000000000000000000000000000000000000000000000000000000000000000000000000000000000000000000",
            "coinbase" : "0x2adc25665018aa1fe0e6bc666dac8fc2697ff9ba",
            "difficulty" : "0x020000",
            "extraData" : "0x00",
            "gasLimit" : "0xff112233445566",
            "gasUsed" : "0x00",
            "hash" : "0xf227282805f439ca053613f53f119422bda960eea236c4b013eca3b95c6be464",
            "mixHash" : "0x0000000000000000000000000000000000000000000000000000000000000000",
            "nonce" : "0x0000000000000000",
            "number" : "0x00",
            "parentHash" : "0x0000000000000000000000000000000000000000000000000000000000000000",
            "receiptTrie" : "0x56e81f171bcc55a6ff8345e692c0f86e5b48e01b996cadc001622fb5e363b421",
            "stateRoot" : "0xbf61e00e2f1fbb3ea831c4ff3bbeff62f2737e7f0d88945ba62e0722eab6cd68",
            "timestamp" : "0x00",
            "transactionsTrie" : "0x56e81f171bcc55a6ff8345e692c0f86e5b48e01b996cadc001622fb5e363b421",
            "uncleHash" : "0x1dcc4de8dec75d7aab85b567b6ccd41ad312451b948a7413f0a142fd40d49347"
        },
        "pre" : {
            "0x095e7baea6a6c7c4c2dfeb977efac326af552d87" : {
                "balance" : "0x00",
                "code" : "0x60806040526004361061001e5760003560e01c806312bd429914610023575b600080fd5b6100fc6004803603604081101561003957600080fd5b81019080803573ffffffffffffffffffffffffffffffffffffffff1690602001909291908035906020019064010000000081111561007657600080fd5b82018360208201111561008857600080fd5b803590602001918460018302840111640100000000831117156100aa57600080fd5b91908080601f016020809104026020016040519081016040528093929190818152602001838380828437600081840152601f19601f820116905080830192505050505050509192919290505050610182565b604051808315151515815260200180602001828103825283818151815260200191508051906020019080838360005b8381101561014657808201518184015260208101905061012b565b50505050905090810190601f1680156101735780820380516001836020036101000a031916815260200191505b50935050505060405180910390f35b600060608373ffffffffffffffffffffffffffffffffffffffff16836040518082805190602001908083835b602083106101d157805182526020820191506020810190506020830392506101ae565b6001836020036101000a038019825116818451168082178552505050505050905001915050600060405180830381855afa9150503d8060008114610231576040519150601f19603f3d011682016040523d82523d6000602084013e610236565b606091505b508092508193505050600060405180807f6572726f72000000000000000000000000000000000000000000000000000000815250600501905060405180910390209050821561028a57818051906020012090505b8060025582829250925050925092905056fea2646970667358221220db58d80e8530eed625d9b4250a6055c2eb1d7c117a7ca267e6f8a059bdd2f39e64736f6c634300060a0033",
                "nonce" : "0x01",
                "storage" : {
                }
            },
            "0xa94f5374fce5edbc8e2a8697c15331677e6ebf0b" : {
                "balance" : "0x0de0b6b3a7640000",
                "code" : "0x",
                "nonce" : "0x00",
                "storage" : {
                }
            }
        },
        "postState" : {
            "0x095e7baea6a6c7c4c2dfeb977efac326af552d87" : {
                "code" : "0x60806040526004361061001e5760003560e01c806312bd429914610023575b600080fd5b6100fc6004803603604081101561003957600080fd5b81019080803573ffffffffffffffffffffffffffffffffffffffff1690602001909291908035906020019064010000000081111561007657600080fd5b82018360208201111561008857600080fd5b803590602001918460018302840111640100000000831117156100aa57600080fd5b91908080601f016020809104026020016040519081016040528093929190818152602001838380828437600081840152601f19601f820116905080830192505050505050509192919290505050610182565b604051808315151515815260200180602001828103825283818151815260200191508051906020019080838360005b8381101561014657808201518184015260208101905061012b565b50505050905090810190601f1680156101735780820380516001836020036101000a031916815260200191505b50935050505060405180910390f35b600060608373ffffffffffffffffffffffffffffffffffffffff16836040518082805190602001908083835b602083106101d157805182526020820191506020810190506020830392506101ae565b6001836020036101000a038019825116818451168082178552505050505050905001915050600060405180830381855afa9150503d8060008114610231576040519150601f19603f3d011682016040523d82523d6000602084013e610236565b606091505b508092508193505050600060405180807f6572726f72000000000000000000000000000000000000000000000000000000815250600501905060405180910390209050821561028a57818051906020012090505b8060025582829250925050925092905056fea2646970667358221220db58d80e8530eed625d9b4250a6055c2eb1d7c117a7ca267e6f8a059bdd2f39e64736f6c634300060a0033",
                "nonce" : "0x01",
                "balance" : "0x03e8",
                "storage" : {
                    "0x02" : "0x177f242d20ff7dc4598657e4355abd2b0df8f6351283a95d209db56ce73ef6e9"
                }
            },
            "0x2adc25665018aa1fe0e6bc666dac8fc2697ff9ba" : {
                "code" : "0x",
                "nonce" : "0x00",
                "balance" : "0x1bc16d674f317ebb",
                "storage" : {
                }
            },
            "0xa94f5374fce5edbc8e2a8697c15331677e6ebf0b" : {
                "code" : "0x",
                "nonce" : "0x01",
                "balance" : "0x0de0b6b3a6fa7d5d",
                "storage" : {
                }
            }
        },
        "network" : "Berlin",
        "sealEngine" : "NoProof",
        "lastblockhash" : "0x67bebacb6b7ae28d9a49f487dc25c3567a20f2d234a62d33c48ffcb584bbe4d1",
        "genesisRLP" : "0xf901fcf901f7a00000000000000000000000000000000000000000000000000000000000000000a01dcc4de8dec75d7aab85b567b6ccd41ad312451b948a7413f0a142fd40d49347942adc25665018aa1fe0e6bc666dac8fc2697ff9baa0bf61e00e2f1fbb3ea831c4ff3bbeff62f2737e7f0d88945ba62e0722eab6cd68a056e81f171bcc55a6ff8345e692c0f86e5b48e01b996cadc001622fb5e363b421a056e81f171bcc55a6ff8345e692c0f86e5b48e01b996cadc001622fb5e363b421b9010000000000000000000000000000000000000000000000000000000000000000000000000000000000000000000000000000000000000000000000000000000000000000000000000000000000000000000000000000000000000000000000000000000000000000000000000000000000000000000000000000000000000000000000000000000000000000000000000000000000000000000000000000000000000000000000000000000000000000000000000000000000000000000000000000000000000000000000000000000000000000000000000000000000000000000000000000000000000000000000000000000000000000000000000000000000830200008087ff112233445566808000a00000000000000000000000000000000000000000000000000000000000000000880000000000000000c0c0",
        "blocks" : [
            {
                "rlp" : "0xf905cef901fca0f227282805f439ca053613f53f119422bda960eea236c4b013eca3b95c6be464a01dcc4de8dec75d7aab85b567b6ccd41ad312451b948a7413f0a142fd40d49347942adc25665018aa1fe0e6bc666dac8fc2697ff9baa09daead7e8ad69b2f791cf613858622518d69d9144b5552e1443aa2ab3287098da0cd3a6a0ca7f792a799f0e328cba9882dadd8fa11c478b976443a27205be6eaf1a01d94d3f584f3072e26685d45bae18b61fd733abe7d4e2a88b22ca4019d007a6eb9010000000000000000000000000000000000000000000000000000000000000000000000000000000000000000000000000000000000000000000000000000000000000000000000000000000000000000000000000000000000000000000000000000000000000000000000000000000000000000000000000000000000000000000000000000000000000000000000000000000000000000000000000000000000000000000000000000000000000000000000000000000000000000000000000000000000000000000000000000000000000000000000000000000000000000000000000000000000000000000000000000000000000000000000000000000000830200000187ff11223344556683697ebb8203e800a00000000000000000000000000000000000000000000000000000000000000000880000000000000000f903cbf903c88001836acfc094095e7baea6a6c7c4c2dfeb977efac326af552d878203e8b9036412bd42990000000000000000000000000000000000000000000000000000000000000010000000000000000000000000000000000000000000000000000000000000004000000000000000000000000000000000000000000000000000000000000003000000000000000000000000000000000012d75b62dd32798ea12b99f51a496bbf61bca93cd233dd288e00259893dbe7c73b6342860d41fd86878a6de608dba0ed00000000000000000000000000000000018e963e1cdb31ce3f636091952c17ab4c03c0f55940196b5772002850c6c86a3da13a9a5fbfaa8256fb0a9c4139bfc60000000000000000000000000000000018330d288ddc1786744f95c4b3bacbdfd10ab560fc283c1ecde1bcbdc53cb284198f340241242763c77b4cd3b8c729200000000000000000000000000000000019a3d86d9b3ff0b03da1686c3234bb2b8109ab12ffd7599ef9e3489fcee40e50036dd952f7a4129473340fb725458cc50000000000000000000000000000000010f70de44c7e0510c8ff8327dd83ea4087f9f8b5a53fbe18615fa31a3b57862b52a7726b3e9403afe93dcafc5606dfe500000000000000000000000000000000199e6da569d0eb7938d52b396c9bc6d8b563dd6e64edd60e2e25c493475a0cbd953e7ff54309d189eba2b3827ad614180000000000000000000000000000000012d75b62dd32798ea12b99f51a496bbf61bca93cd233dd288e00259893dbe7c73b6342860d41fd86878a6de608dba0ed00000000000000000000000000000000018e963e1cdb31ce3f636091952c17ab4c03c0f55940196b5772002850c6c86a3da13a9a5fbfaa8256fb0a9c4139bfc600000000000000000000000000000000192b17cf1539a57ee64701bcd07ed0b067a6ab12ef17408ad3ba1db0d94889cc481c877588fd70270287aa8f279659af000000000000000000000000000000001779c74b7e83c8d931510b555de206dee2d9edbb49b473c586c5b7046d1389e6f612cf96ee76446a21b02f135492fa1c0000000000000000000000000000000007165050fd4407a69143a98001c290f8b1aef02d64d28ee046744009f4afa376da95b4f6a3dd36427a297ed25e6bb3320000000000000000000000000000000005a9238272385614f6df896801f7f9af9cda1ac0ce3c816174693bd52b1799386c4f6355fc36f9ecd566a3a4b20e612b1ba003039f158bf5d401e1348e47a26182d57a84c300457c85189550bb08ac25c4d9a03550a7f92f20e7e4ee147d32d01bd3ab055e314c6c559c2758458c7c00c44ec7c0",
                "blockHeader" : {
                    "bloom" : "0x00000000000000000000000000000000000000000000000000000000000000000000000000000000000000000000000000000000000000000000000000000000000000000000000000000000000000000000000000000000000000000000000000000000000000000000000000000000000000000000000000000000000000000000000000000000000000000000000000000000000000000000000000000000000000000000000000000000000000000000000000000000000000000000000000000000000000000000000000000000000000000000000000000000000000000000000000000000000000000000000000000000000000000000000000000000",
                    "coinbase" : "0x2adc25665018aa1fe0e6bc666dac8fc2697ff9ba",
                    "difficulty" : "0x020000",
                    "extraData" : "0x00",
                    "gasLimit" : "0xff112233445566",
                    "gasUsed" : "0x697ebb",
                    "hash" : "0x67bebacb6b7ae28d9a49f487dc25c3567a20f2d234a62d33c48ffcb584bbe4d1",
                    "mixHash" : "0x0000000000000000000000000000000000000000000000000000000000000000",
                    "nonce" : "0x0000000000000000",
                    "number" : "0x01",
                    "parentHash" : "0xf227282805f439ca053613f53f119422bda960eea236c4b013eca3b95c6be464",
                    "receiptTrie" : "0x1d94d3f584f3072e26685d45bae18b61fd733abe7d4e2a88b22ca4019d007a6e",
                    "stateRoot" : "0x9daead7e8ad69b2f791cf613858622518d69d9144b5552e1443aa2ab3287098d",
                    "timestamp" : "0x03e8",
                    "transactionsTrie" : "0xcd3a6a0ca7f792a799f0e328cba9882dadd8fa11c478b976443a27205be6eaf1",
                    "uncleHash" : "0x1dcc4de8dec75d7aab85b567b6ccd41ad312451b948a7413f0a142fd40d49347"
                },
                "transactions" : [
                    {
                        "data" : "0x12bd42990000000000000000000000000000000000000000000000000000000000000010000000000000000000000000000000000000000000000000000000000000004000000000000000000000000000000000000000000000000000000000000003000000000000000000000000000000000012d75b62dd32798ea12b99f51a496bbf61bca93cd233dd288e00259893dbe7c73b6342860d41fd86878a6de608dba0ed00000000000000000000000000000000018e963e1cdb31ce3f636091952c17ab4c03c0f55940196b5772002850c6c86a3da13a9a5fbfaa8256fb0a9c4139bfc60000000000000000000000000000000018330d288ddc1786744f95c4b3bacbdfd10ab560fc283c1ecde1bcbdc53cb284198f340241242763c77b4cd3b8c729200000000000000000000000000000000019a3d86d9b3ff0b03da1686c3234bb2b8109ab12ffd7599ef9e3489fcee40e50036dd952f7a4129473340fb725458cc50000000000000000000000000000000010f70de44c7e0510c8ff8327dd83ea4087f9f8b5a53fbe18615fa31a3b57862b52a7726b3e9403afe93dcafc5606dfe500000000000000000000000000000000199e6da569d0eb7938d52b396c9bc6d8b563dd6e64edd60e2e25c493475a0cbd953e7ff54309d189eba2b3827ad614180000000000000000000000000000000012d75b62dd32798ea12b99f51a496bbf61bca93cd233dd288e00259893dbe7c73b6342860d41fd86878a6de608dba0ed00000000000000000000000000000000018e963e1cdb31ce3f636091952c17ab4c03c0f55940196b5772002850c6c86a3da13a9a5fbfaa8256fb0a9c4139bfc600000000000000000000000000000000192b17cf1539a57ee64701bcd07ed0b067a6ab12ef17408ad3ba1db0d94889cc481c877588fd70270287aa8f279659af000000000000000000000000000000001779c74b7e83c8d931510b555de206dee2d9edbb49b473c586c5b7046d1389e6f612cf96ee76446a21b02f135492fa1c0000000000000000000000000000000007165050fd4407a69143a98001c290f8b1aef02d64d28ee046744009f4afa376da95b4f6a3dd36427a297ed25e6bb3320000000000000000000000000000000005a9238272385614f6df896801f7f9af9cda1ac0ce3c816174693bd52b1799386c4f6355fc36f9ecd566a3a4b20e612b",
                        "gasLimit" : "0x6acfc0",
                        "gasPrice" : "0x01",
                        "nonce" : "0x00",
                        "to" : "0x095e7baea6a6c7c4c2dfeb977efac326af552d87",
                        "value" : "0x03e8",
                        "v" : "0x1b",
                        "r" : "0x03039f158bf5d401e1348e47a26182d57a84c300457c85189550bb08ac25c4d9",
                        "s" : "0x3550a7f92f20e7e4ee147d32d01bd3ab055e314c6c559c2758458c7c00c44ec7"
                    }
                ],
                "uncleHeaders" : [
                ]
            }
        ]
    }
}