{
    "invalid_subgroup_for_pairing_83_d0g0v0_Berlin" : {
        "_info" : {
            "comment" : "A test for invalid_subgroup_for_pairing_83",
            "filling-rpc-server" : "evm version 1.9.23-unstable-0efc69a9-20201022",
            "filling-tool-version" : "retesteth-0.0.9-berlin+commit.2f30f0ea.Linux.g++",
            "lllcversion" : "Version: 0.5.14-develop.2020.6.22+commit.9189ad7a.Linux.g++",
            "source" : "src/GeneralStateTestsFiller/stEIP2537/invalid_subgroup_for_pairing_83Filler.json",
            "sourceHash" : "5d51b579c7ac3b4fd4ef9e200972cb252d1ea2175e05f510a3e4d43639b7f33a"
        },
        "genesisBlockHeader" : {
            "bloom" : "0x00000000000000000000000000000000000000000000000000000000000000000000000000000000000000000000000000000000000000000000000000000000000000000000000000000000000000000000000000000000000000000000000000000000000000000000000000000000000000000000000000000000000000000000000000000000000000000000000000000000000000000000000000000000000000000000000000000000000000000000000000000000000000000000000000000000000000000000000000000000000000000000000000000000000000000000000000000000000000000000000000000000000000000000000000000000",
            "coinbase" : "0x2adc25665018aa1fe0e6bc666dac8fc2697ff9ba",
            "difficulty" : "0x020000",
            "extraData" : "0x00",
            "gasLimit" : "0xff112233445566",
            "gasUsed" : "0x00",
            "hash" : "0xf227282805f439ca053613f53f119422bda960eea236c4b013eca3b95c6be464",
            "mixHash" : "0x0000000000000000000000000000000000000000000000000000000000000000",
            "nonce" : "0x0000000000000000",
            "number" : "0x00",
            "parentHash" : "0x0000000000000000000000000000000000000000000000000000000000000000",
            "receiptTrie" : "0x56e81f171bcc55a6ff8345e692c0f86e5b48e01b996cadc001622fb5e363b421",
            "stateRoot" : "0xbf61e00e2f1fbb3ea831c4ff3bbeff62f2737e7f0d88945ba62e0722eab6cd68",
            "timestamp" : "0x00",
            "transactionsTrie" : "0x56e81f171bcc55a6ff8345e692c0f86e5b48e01b996cadc001622fb5e363b421",
            "uncleHash" : "0x1dcc4de8dec75d7aab85b567b6ccd41ad312451b948a7413f0a142fd40d49347"
        },
        "pre" : {
            "0x095e7baea6a6c7c4c2dfeb977efac326af552d87" : {
                "balance" : "0x00",
                "code" : "0x60806040526004361061001e5760003560e01c806312bd429914610023575b600080fd5b6100fc6004803603604081101561003957600080fd5b81019080803573ffffffffffffffffffffffffffffffffffffffff1690602001909291908035906020019064010000000081111561007657600080fd5b82018360208201111561008857600080fd5b803590602001918460018302840111640100000000831117156100aa57600080fd5b91908080601f016020809104026020016040519081016040528093929190818152602001838380828437600081840152601f19601f820116905080830192505050505050509192919290505050610182565b604051808315151515815260200180602001828103825283818151815260200191508051906020019080838360005b8381101561014657808201518184015260208101905061012b565b50505050905090810190601f1680156101735780820380516001836020036101000a031916815260200191505b50935050505060405180910390f35b600060608373ffffffffffffffffffffffffffffffffffffffff16836040518082805190602001908083835b602083106101d157805182526020820191506020810190506020830392506101ae565b6001836020036101000a038019825116818451168082178552505050505050905001915050600060405180830381855afa9150503d8060008114610231576040519150601f19603f3d011682016040523d82523d6000602084013e610236565b606091505b508092508193505050600060405180807f6572726f72000000000000000000000000000000000000000000000000000000815250600501905060405180910390209050821561028a57818051906020012090505b8060025582829250925050925092905056fea2646970667358221220db58d80e8530eed625d9b4250a6055c2eb1d7c117a7ca267e6f8a059bdd2f39e64736f6c634300060a0033",
                "nonce" : "0x01",
                "storage" : {
                }
            },
            "0xa94f5374fce5edbc8e2a8697c15331677e6ebf0b" : {
                "balance" : "0x0de0b6b3a7640000",
                "code" : "0x",
                "nonce" : "0x00",
                "storage" : {
                }
            }
        },
        "postState" : {
            "0x095e7baea6a6c7c4c2dfeb977efac326af552d87" : {
                "code" : "0x60806040526004361061001e5760003560e01c806312bd429914610023575b600080fd5b6100fc6004803603604081101561003957600080fd5b81019080803573ffffffffffffffffffffffffffffffffffffffff1690602001909291908035906020019064010000000081111561007657600080fd5b82018360208201111561008857600080fd5b803590602001918460018302840111640100000000831117156100aa57600080fd5b91908080601f016020809104026020016040519081016040528093929190818152602001838380828437600081840152601f19601f820116905080830192505050505050509192919290505050610182565b604051808315151515815260200180602001828103825283818151815260200191508051906020019080838360005b8381101561014657808201518184015260208101905061012b565b50505050905090810190601f1680156101735780820380516001836020036101000a031916815260200191505b50935050505060405180910390f35b600060608373ffffffffffffffffffffffffffffffffffffffff16836040518082805190602001908083835b602083106101d157805182526020820191506020810190506020830392506101ae565b6001836020036101000a038019825116818451168082178552505050505050905001915050600060405180830381855afa9150503d8060008114610231576040519150601f19603f3d011682016040523d82523d6000602084013e610236565b606091505b508092508193505050600060405180807f6572726f72000000000000000000000000000000000000000000000000000000815250600501905060405180910390209050821561028a57818051906020012090505b8060025582829250925050925092905056fea2646970667358221220db58d80e8530eed625d9b4250a6055c2eb1d7c117a7ca267e6f8a059bdd2f39e64736f6c634300060a0033",
                "nonce" : "0x01",
                "balance" : "0x03e8",
                "storage" : {
                    "0x02" : "0x177f242d20ff7dc4598657e4355abd2b0df8f6351283a95d209db56ce73ef6e9"
                }
            },
            "0x2adc25665018aa1fe0e6bc666dac8fc2697ff9ba" : {
                "code" : "0x",
                "nonce" : "0x00",
                "balance" : "0x1bc16d674f317ebb",
                "storage" : {
                }
            },
            "0xa94f5374fce5edbc8e2a8697c15331677e6ebf0b" : {
                "code" : "0x",
                "nonce" : "0x01",
                "balance" : "0x0de0b6b3a6fa7d5d",
                "storage" : {
                }
            }
        },
        "network" : "Berlin",
        "sealEngine" : "NoProof",
        "lastblockhash" : "0x64c170c520c8f9acb41e853afbeaca665ef891b4c6f950130f2198d75936d6b0",
        "genesisRLP" : "0xf901fcf901f7a00000000000000000000000000000000000000000000000000000000000000000a01dcc4de8dec75d7aab85b567b6ccd41ad312451b948a7413f0a142fd40d49347942adc25665018aa1fe0e6bc666dac8fc2697ff9baa0bf61e00e2f1fbb3ea831c4ff3bbeff62f2737e7f0d88945ba62e0722eab6cd68a056e81f171bcc55a6ff8345e692c0f86e5b48e01b996cadc001622fb5e363b421a056e81f171bcc55a6ff8345e692c0f86e5b48e01b996cadc001622fb5e363b421b9010000000000000000000000000000000000000000000000000000000000000000000000000000000000000000000000000000000000000000000000000000000000000000000000000000000000000000000000000000000000000000000000000000000000000000000000000000000000000000000000000000000000000000000000000000000000000000000000000000000000000000000000000000000000000000000000000000000000000000000000000000000000000000000000000000000000000000000000000000000000000000000000000000000000000000000000000000000000000000000000000000000000000000000000000000000000830200008087ff112233445566808000a00000000000000000000000000000000000000000000000000000000000000000880000000000000000c0c0",
        "blocks" : [
            {
                "rlp" : "0xf905cef901fca0f227282805f439ca053613f53f119422bda960eea236c4b013eca3b95c6be464a01dcc4de8dec75d7aab85b567b6ccd41ad312451b948a7413f0a142fd40d49347942adc25665018aa1fe0e6bc666dac8fc2697ff9baa09daead7e8ad69b2f791cf613858622518d69d9144b5552e1443aa2ab3287098da02c85df96f99e11c5cfdcd1a9f1c430d53ac2aed75aa2253ab83f1cfefc1af138a01d94d3f584f3072e26685d45bae18b61fd733abe7d4e2a88b22ca4019d007a6eb9010000000000000000000000000000000000000000000000000000000000000000000000000000000000000000000000000000000000000000000000000000000000000000000000000000000000000000000000000000000000000000000000000000000000000000000000000000000000000000000000000000000000000000000000000000000000000000000000000000000000000000000000000000000000000000000000000000000000000000000000000000000000000000000000000000000000000000000000000000000000000000000000000000000000000000000000000000000000000000000000000000000000000000000000000000000000830200000187ff11223344556683697ebb8203e800a00000000000000000000000000000000000000000000000000000000000000000880000000000000000f903cbf903c88001836acfc094095e7baea6a6c7c4c2dfeb977efac326af552d878203e8b9036412bd4299000000000000000000000000000000000000000000000000000000000000001000000000000000000000000000000000000000000000000000000000000000400000000000000000000000000000000000000000000000000000000000000300000000000000000000000000000000000c321b54ea1ae6e893f2c28e72a3e4bed4a9aebaf147716178d3392c959e79b6f3393d738f3722a0339c773da3ae56760000000000000000000000000000000005d2c477e1c9333eb642bb40709b042816cc54134fad935942cc08eb2db0c1582f9bf06518d4fd5577df4634332e70e50000000000000000000000000000000019123b0d9c362184620c90834730c58ec5f9becdb2f3c6c00fd157ac83c16a815efb5057011d00c774d0de626274d58a000000000000000000000000000000001936fe98ecb82299a85304213a3e30c02d90ea871661b34f664a825184c2d1ebad84d144df88c479b9526222a7fe9ead00000000000000000000000000000000081a6abf02a0a236ba6006a95a8ab3f186e72f05b00f2b686049cf980898d64a71bf2e41b6b276ed6556cf83a3247b6e0000000000000000000000000000000012162cab3a7d92acc12efec9672ecb4cb30ae208eabc77608748e968a84ec0de81678df45d1655e45a19162b06354a99000000000000000000000000000000000c321b54ea1ae6e893f2c28e72a3e4bed4a9aebaf147716178d3392c959e79b6f3393d738f3722a0339c773da3ae56760000000000000000000000000000000005d2c477e1c9333eb642bb40709b042816cc54134fad935942cc08eb2db0c1582f9bf06518d4fd5577df4634332e70e50000000000000000000000000000000008b24839939deb424bb0c7bb171064e01453008ada6e3f14fd3a86db79162d0f9a851eb6abcb7dd27f93df0f7ff3320300000000000000000000000000000000036bdf42585414a8fd616bf967ed2ad4eb2b30a7581a58691c6d58e5d54fa152b42427c98fb3094c718943d9d014730c0000000000000000000000000000000002b542c2d6e8862495b2a6937f1fefbba53c228af512918bcc5b39083125c41340f1b5f1c60696c7c07f6705dfbcae9100000000000000000000000000000000030516a5aa32954dc083531035c55aa623d5f53c07b7bcff54cb9bf04d567a293ee55b2027cdcb864b133eac0f3d52741ba0ea48c0153942f5e5d87a9820f32e25ec5776e715150a76104e6cce2b5f96e321a044f1b20d2e3d2fe945eb9d5389e354d4f1124f269eb4c8c6169fecc6657c84c7c0",
                "blockHeader" : {
                    "bloom" : "0x00000000000000000000000000000000000000000000000000000000000000000000000000000000000000000000000000000000000000000000000000000000000000000000000000000000000000000000000000000000000000000000000000000000000000000000000000000000000000000000000000000000000000000000000000000000000000000000000000000000000000000000000000000000000000000000000000000000000000000000000000000000000000000000000000000000000000000000000000000000000000000000000000000000000000000000000000000000000000000000000000000000000000000000000000000000",
                    "coinbase" : "0x2adc25665018aa1fe0e6bc666dac8fc2697ff9ba",
                    "difficulty" : "0x020000",
                    "extraData" : "0x00",
                    "gasLimit" : "0xff112233445566",
                    "gasUsed" : "0x697ebb",
                    "hash" : "0x64c170c520c8f9acb41e853afbeaca665ef891b4c6f950130f2198d75936d6b0",
                    "mixHash" : "0x0000000000000000000000000000000000000000000000000000000000000000",
                    "nonce" : "0x0000000000000000",
                    "number" : "0x01",
                    "parentHash" : "0xf227282805f439ca053613f53f119422bda960eea236c4b013eca3b95c6be464",
                    "receiptTrie" : "0x1d94d3f584f3072e26685d45bae18b61fd733abe7d4e2a88b22ca4019d007a6e",
                    "stateRoot" : "0x9daead7e8ad69b2f791cf613858622518d69d9144b5552e1443aa2ab3287098d",
                    "timestamp" : "0x03e8",
                    "transactionsTrie" : "0x2c85df96f99e11c5cfdcd1a9f1c430d53ac2aed75aa2253ab83f1cfefc1af138",
                    "uncleHash" : "0x1dcc4de8dec75d7aab85b567b6ccd41ad312451b948a7413f0a142fd40d49347"
                },
                "transactions" : [
                    {
                        "data" : "0x12bd4299000000000000000000000000000000000000000000000000000000000000001000000000000000000000000000000000000000000000000000000000000000400000000000000000000000000000000000000000000000000000000000000300000000000000000000000000000000000c321b54ea1ae6e893f2c28e72a3e4bed4a9aebaf147716178d3392c959e79b6f3393d738f3722a0339c773da3ae56760000000000000000000000000000000005d2c477e1c9333eb642bb40709b042816cc54134fad935942cc08eb2db0c1582f9bf06518d4fd5577df4634332e70e50000000000000000000000000000000019123b0d9c362184620c90834730c58ec5f9becdb2f3c6c00fd157ac83c16a815efb5057011d00c774d0de626274d58a000000000000000000000000000000001936fe98ecb82299a85304213a3e30c02d90ea871661b34f664a825184c2d1ebad84d144df88c479b9526222a7fe9ead00000000000000000000000000000000081a6abf02a0a236ba6006a95a8ab3f186e72f05b00f2b686049cf980898d64a71bf2e41b6b276ed6556cf83a3247b6e0000000000000000000000000000000012162cab3a7d92acc12efec9672ecb4cb30ae208eabc77608748e968a84ec0de81678df45d1655e45a19162b06354a99000000000000000000000000000000000c321b54ea1ae6e893f2c28e72a3e4bed4a9aebaf147716178d3392c959e79b6f3393d738f3722a0339c773da3ae56760000000000000000000000000000000005d2c477e1c9333eb642bb40709b042816cc54134fad935942cc08eb2db0c1582f9bf06518d4fd5577df4634332e70e50000000000000000000000000000000008b24839939deb424bb0c7bb171064e01453008ada6e3f14fd3a86db79162d0f9a851eb6abcb7dd27f93df0f7ff3320300000000000000000000000000000000036bdf42585414a8fd616bf967ed2ad4eb2b30a7581a58691c6d58e5d54fa152b42427c98fb3094c718943d9d014730c0000000000000000000000000000000002b542c2d6e8862495b2a6937f1fefbba53c228af512918bcc5b39083125c41340f1b5f1c60696c7c07f6705dfbcae9100000000000000000000000000000000030516a5aa32954dc083531035c55aa623d5f53c07b7bcff54cb9bf04d567a293ee55b2027cdcb864b133eac0f3d5274",
                        "gasLimit" : "0x6acfc0",
                        "gasPrice" : "0x01",
                        "nonce" : "0x00",
                        "to" : "0x095e7baea6a6c7c4c2dfeb977efac326af552d87",
                        "value" : "0x03e8",
                        "v" : "0x1b",
                        "r" : "0xea48c0153942f5e5d87a9820f32e25ec5776e715150a76104e6cce2b5f96e321",
                        "s" : "0x44f1b20d2e3d2fe945eb9d5389e354d4f1124f269eb4c8c6169fecc6657c84c7"
                    }
                ],
                "uncleHeaders" : [
                ]
            }
        ]
    }
}