{
    "invalid_subgroup_for_pairing_64_d0g0v0_Berlin" : {
        "_info" : {
            "comment" : "A test for invalid_subgroup_for_pairing_64",
            "filling-rpc-server" : "evm version 1.9.23-unstable-0efc69a9-20201022",
            "filling-tool-version" : "retesteth-0.0.9-berlin+commit.2f30f0ea.Linux.g++",
            "lllcversion" : "Version: 0.5.14-develop.2020.6.22+commit.9189ad7a.Linux.g++",
            "source" : "src/GeneralStateTestsFiller/stEIP2537/invalid_subgroup_for_pairing_64Filler.json",
            "sourceHash" : "527ad8a16ca381342d8461829439b7200c7ddc03ab5e71592312b10802cd041a"
        },
        "genesisBlockHeader" : {
            "bloom" : "0x00000000000000000000000000000000000000000000000000000000000000000000000000000000000000000000000000000000000000000000000000000000000000000000000000000000000000000000000000000000000000000000000000000000000000000000000000000000000000000000000000000000000000000000000000000000000000000000000000000000000000000000000000000000000000000000000000000000000000000000000000000000000000000000000000000000000000000000000000000000000000000000000000000000000000000000000000000000000000000000000000000000000000000000000000000000",
            "coinbase" : "0x2adc25665018aa1fe0e6bc666dac8fc2697ff9ba",
            "difficulty" : "0x020000",
            "extraData" : "0x00",
            "gasLimit" : "0xff112233445566",
            "gasUsed" : "0x00",
            "hash" : "0xf227282805f439ca053613f53f119422bda960eea236c4b013eca3b95c6be464",
            "mixHash" : "0x0000000000000000000000000000000000000000000000000000000000000000",
            "nonce" : "0x0000000000000000",
            "number" : "0x00",
            "parentHash" : "0x0000000000000000000000000000000000000000000000000000000000000000",
            "receiptTrie" : "0x56e81f171bcc55a6ff8345e692c0f86e5b48e01b996cadc001622fb5e363b421",
            "stateRoot" : "0xbf61e00e2f1fbb3ea831c4ff3bbeff62f2737e7f0d88945ba62e0722eab6cd68",
            "timestamp" : "0x00",
            "transactionsTrie" : "0x56e81f171bcc55a6ff8345e692c0f86e5b48e01b996cadc001622fb5e363b421",
            "uncleHash" : "0x1dcc4de8dec75d7aab85b567b6ccd41ad312451b948a7413f0a142fd40d49347"
        },
        "pre" : {
            "0x095e7baea6a6c7c4c2dfeb977efac326af552d87" : {
                "balance" : "0x00",
                "code" : "0x60806040526004361061001e5760003560e01c806312bd429914610023575b600080fd5b6100fc6004803603604081101561003957600080fd5b81019080803573ffffffffffffffffffffffffffffffffffffffff1690602001909291908035906020019064010000000081111561007657600080fd5b82018360208201111561008857600080fd5b803590602001918460018302840111640100000000831117156100aa57600080fd5b91908080601f016020809104026020016040519081016040528093929190818152602001838380828437600081840152601f19601f820116905080830192505050505050509192919290505050610182565b604051808315151515815260200180602001828103825283818151815260200191508051906020019080838360005b8381101561014657808201518184015260208101905061012b565b50505050905090810190601f1680156101735780820380516001836020036101000a031916815260200191505b50935050505060405180910390f35b600060608373ffffffffffffffffffffffffffffffffffffffff16836040518082805190602001908083835b602083106101d157805182526020820191506020810190506020830392506101ae565b6001836020036101000a038019825116818451168082178552505050505050905001915050600060405180830381855afa9150503d8060008114610231576040519150601f19603f3d011682016040523d82523d6000602084013e610236565b606091505b508092508193505050600060405180807f6572726f72000000000000000000000000000000000000000000000000000000815250600501905060405180910390209050821561028a57818051906020012090505b8060025582829250925050925092905056fea2646970667358221220db58d80e8530eed625d9b4250a6055c2eb1d7c117a7ca267e6f8a059bdd2f39e64736f6c634300060a0033",
                "nonce" : "0x01",
                "storage" : {
                }
            },
            "0xa94f5374fce5edbc8e2a8697c15331677e6ebf0b" : {
                "balance" : "0x0de0b6b3a7640000",
                "code" : "0x",
                "nonce" : "0x00",
                "storage" : {
                }
            }
        },
        "postState" : {
            "0x095e7baea6a6c7c4c2dfeb977efac326af552d87" : {
                "code" : "0x60806040526004361061001e5760003560e01c806312bd429914610023575b600080fd5b6100fc6004803603604081101561003957600080fd5b81019080803573ffffffffffffffffffffffffffffffffffffffff1690602001909291908035906020019064010000000081111561007657600080fd5b82018360208201111561008857600080fd5b803590602001918460018302840111640100000000831117156100aa57600080fd5b91908080601f016020809104026020016040519081016040528093929190818152602001838380828437600081840152601f19601f820116905080830192505050505050509192919290505050610182565b604051808315151515815260200180602001828103825283818151815260200191508051906020019080838360005b8381101561014657808201518184015260208101905061012b565b50505050905090810190601f1680156101735780820380516001836020036101000a031916815260200191505b50935050505060405180910390f35b600060608373ffffffffffffffffffffffffffffffffffffffff16836040518082805190602001908083835b602083106101d157805182526020820191506020810190506020830392506101ae565b6001836020036101000a038019825116818451168082178552505050505050905001915050600060405180830381855afa9150503d8060008114610231576040519150601f19603f3d011682016040523d82523d6000602084013e610236565b606091505b508092508193505050600060405180807f6572726f72000000000000000000000000000000000000000000000000000000815250600501905060405180910390209050821561028a57818051906020012090505b8060025582829250925050925092905056fea2646970667358221220db58d80e8530eed625d9b4250a6055c2eb1d7c117a7ca267e6f8a059bdd2f39e64736f6c634300060a0033",
                "nonce" : "0x01",
                "balance" : "0x03e8",
                "storage" : {
                    "0x02" : "0x177f242d20ff7dc4598657e4355abd2b0df8f6351283a95d209db56ce73ef6e9"
                }
            },
            "0x2adc25665018aa1fe0e6bc666dac8fc2697ff9ba" : {
                "code" : "0x",
                "nonce" : "0x00",
                "balance" : "0x1bc16d674f317ebb",
                "storage" : {
                }
            },
            "0xa94f5374fce5edbc8e2a8697c15331677e6ebf0b" : {
                "code" : "0x",
                "nonce" : "0x01",
                "balance" : "0x0de0b6b3a6fa7d5d",
                "storage" : {
                }
            }
        },
        "network" : "Berlin",
        "sealEngine" : "NoProof",
        "lastblockhash" : "0x955011061a81c47eb8250d86725dacb64ba33fa1817746055c381ec915d2732d",
        "genesisRLP" : "0xf901fcf901f7a00000000000000000000000000000000000000000000000000000000000000000a01dcc4de8dec75d7aab85b567b6ccd41ad312451b948a7413f0a142fd40d49347942adc25665018aa1fe0e6bc666dac8fc2697ff9baa0bf61e00e2f1fbb3ea831c4ff3bbeff62f2737e7f0d88945ba62e0722eab6cd68a056e81f171bcc55a6ff8345e692c0f86e5b48e01b996cadc001622fb5e363b421a056e81f171bcc55a6ff8345e692c0f86e5b48e01b996cadc001622fb5e363b421b9010000000000000000000000000000000000000000000000000000000000000000000000000000000000000000000000000000000000000000000000000000000000000000000000000000000000000000000000000000000000000000000000000000000000000000000000000000000000000000000000000000000000000000000000000000000000000000000000000000000000000000000000000000000000000000000000000000000000000000000000000000000000000000000000000000000000000000000000000000000000000000000000000000000000000000000000000000000000000000000000000000000000000000000000000000000000830200008087ff112233445566808000a00000000000000000000000000000000000000000000000000000000000000000880000000000000000c0c0",
        "blocks" : [
            {
                "rlp" : "0xf905cef901fca0f227282805f439ca053613f53f119422bda960eea236c4b013eca3b95c6be464a01dcc4de8dec75d7aab85b567b6ccd41ad312451b948a7413f0a142fd40d49347942adc25665018aa1fe0e6bc666dac8fc2697ff9baa09daead7e8ad69b2f791cf613858622518d69d9144b5552e1443aa2ab3287098da0fe74ec2cc8f21517984688c5fc26261e36c7f2d997acd7ec154b33fe76c87b86a01d94d3f584f3072e26685d45bae18b61fd733abe7d4e2a88b22ca4019d007a6eb9010000000000000000000000000000000000000000000000000000000000000000000000000000000000000000000000000000000000000000000000000000000000000000000000000000000000000000000000000000000000000000000000000000000000000000000000000000000000000000000000000000000000000000000000000000000000000000000000000000000000000000000000000000000000000000000000000000000000000000000000000000000000000000000000000000000000000000000000000000000000000000000000000000000000000000000000000000000000000000000000000000000000000000000000000000000000830200000187ff11223344556683697ebb8203e800a00000000000000000000000000000000000000000000000000000000000000000880000000000000000f903cbf903c88001836acfc094095e7baea6a6c7c4c2dfeb977efac326af552d878203e8b9036412bd4299000000000000000000000000000000000000000000000000000000000000001000000000000000000000000000000000000000000000000000000000000000400000000000000000000000000000000000000000000000000000000000000300000000000000000000000000000000000c3f4ece90cf7d380efd3f81e66110a5923bd604422fca0fac2a16fb9a8d8b34cc1fb86a15009e8cc2c0d9fd8fbc0fac0000000000000000000000000000000012ea55d042ae590abd4c2687e0f152384d37665ddf26787d49bc9f6d40a579bcb23521c59ce91c418b9f4801375892aa00000000000000000000000000000000098af17ffd4d28bad76ce1ee669e7cdac1eec9facc260440636be88618302ab5a0826141b4fc914a389816d04597826a0000000000000000000000000000000011bef78afedf5c62daee5e86386c45826a524352fea40f68b07b7794df8eced4eaf0fb55b6990b4fb417ecc597b61e48000000000000000000000000000000000d64f0a4df4f858defde17b31476045c3dea78de4ec8082822c1699c0b9619464c75f0e57ebd12ad9e4e2e6b291b538c00000000000000000000000000000000031f12dc8a9c5445d575f99e2a4b4217ba5c0be58ac00977236440ab0ac7e2c8dab72a64464e4480aab7eaf1d629c7e700000000000000000000000000000000033f3c31337bc48622d27a9a3224a2acdb5c538a59b497a4a85840c81cff667ed0a0e4e3f4bb23a9ae53c1e79ea54cbb000000000000000000000000000000000cf0dc22af4530260cde26aa0eedc83a0ec3ae87d024e6907f3d22070e1054b3d4f24d5ace7218ed44763af6ec3f25ee00000000000000000000000000000000098af17ffd4d28bad76ce1ee669e7cdac1eec9facc260440636be88618302ab5a0826141b4fc914a389816d04597826a0000000000000000000000000000000011bef78afedf5c62daee5e86386c45826a524352fea40f68b07b7794df8eced4eaf0fb55b6990b4fb417ecc597b61e48000000000000000000000000000000000d64f0a4df4f858defde17b31476045c3dea78de4ec8082822c1699c0b9619464c75f0e57ebd12ad9e4e2e6b291b538c00000000000000000000000000000000031f12dc8a9c5445d575f99e2a4b4217ba5c0be58ac00977236440ab0ac7e2c8dab72a64464e4480aab7eaf1d629c7e71ca0988511f8ef5bf822995780a740eb0b6ed890ee187b4185704d45210873c4808ba06936675986e33fe1ccaed5b946250f037c18a613d5124ce417a794ea43ed63b1c0",
                "blockHeader" : {
                    "bloom" : "0x00000000000000000000000000000000000000000000000000000000000000000000000000000000000000000000000000000000000000000000000000000000000000000000000000000000000000000000000000000000000000000000000000000000000000000000000000000000000000000000000000000000000000000000000000000000000000000000000000000000000000000000000000000000000000000000000000000000000000000000000000000000000000000000000000000000000000000000000000000000000000000000000000000000000000000000000000000000000000000000000000000000000000000000000000000000",
                    "coinbase" : "0x2adc25665018aa1fe0e6bc666dac8fc2697ff9ba",
                    "difficulty" : "0x020000",
                    "extraData" : "0x00",
                    "gasLimit" : "0xff112233445566",
                    "gasUsed" : "0x697ebb",
                    "hash" : "0x955011061a81c47eb8250d86725dacb64ba33fa1817746055c381ec915d2732d",
                    "mixHash" : "0x0000000000000000000000000000000000000000000000000000000000000000",
                    "nonce" : "0x0000000000000000",
                    "number" : "0x01",
                    "parentHash" : "0xf227282805f439ca053613f53f119422bda960eea236c4b013eca3b95c6be464",
                    "receiptTrie" : "0x1d94d3f584f3072e26685d45bae18b61fd733abe7d4e2a88b22ca4019d007a6e",
                    "stateRoot" : "0x9daead7e8ad69b2f791cf613858622518d69d9144b5552e1443aa2ab3287098d",
                    "timestamp" : "0x03e8",
                    "transactionsTrie" : "0xfe74ec2cc8f21517984688c5fc26261e36c7f2d997acd7ec154b33fe76c87b86",
                    "uncleHash" : "0x1dcc4de8dec75d7aab85b567b6ccd41ad312451b948a7413f0a142fd40d49347"
                },
                "transactions" : [
                    {
                        "data" : "0x12bd4299000000000000000000000000000000000000000000000000000000000000001000000000000000000000000000000000000000000000000000000000000000400000000000000000000000000000000000000000000000000000000000000300000000000000000000000000000000000c3f4ece90cf7d380efd3f81e66110a5923bd604422fca0fac2a16fb9a8d8b34cc1fb86a15009e8cc2c0d9fd8fbc0fac0000000000000000000000000000000012ea55d042ae590abd4c2687e0f152384d37665ddf26787d49bc9f6d40a579bcb23521c59ce91c418b9f4801375892aa00000000000000000000000000000000098af17ffd4d28bad76ce1ee669e7cdac1eec9facc260440636be88618302ab5a0826141b4fc914a389816d04597826a0000000000000000000000000000000011bef78afedf5c62daee5e86386c45826a524352fea40f68b07b7794df8eced4eaf0fb55b6990b4fb417ecc597b61e48000000000000000000000000000000000d64f0a4df4f858defde17b31476045c3dea78de4ec8082822c1699c0b9619464c75f0e57ebd12ad9e4e2e6b291b538c00000000000000000000000000000000031f12dc8a9c5445d575f99e2a4b4217ba5c0be58ac00977236440ab0ac7e2c8dab72a64464e4480aab7eaf1d629c7e700000000000000000000000000000000033f3c31337bc48622d27a9a3224a2acdb5c538a59b497a4a85840c81cff667ed0a0e4e3f4bb23a9ae53c1e79ea54cbb000000000000000000000000000000000cf0dc22af4530260cde26aa0eedc83a0ec3ae87d024e6907f3d22070e1054b3d4f24d5ace7218ed44763af6ec3f25ee00000000000000000000000000000000098af17ffd4d28bad76ce1ee669e7cdac1eec9facc260440636be88618302ab5a0826141b4fc914a389816d04597826a0000000000000000000000000000000011bef78afedf5c62daee5e86386c45826a524352fea40f68b07b7794df8eced4eaf0fb55b6990b4fb417ecc597b61e48000000000000000000000000000000000d64f0a4df4f858defde17b31476045c3dea78de4ec8082822c1699c0b9619464c75f0e57ebd12ad9e4e2e6b291b538c00000000000000000000000000000000031f12dc8a9c5445d575f99e2a4b4217ba5c0be58ac00977236440ab0ac7e2c8dab72a64464e4480aab7eaf1d629c7e7",
                        "gasLimit" : "0x6acfc0",
                        "gasPrice" : "0x01",
                        "nonce" : "0x00",
                        "to" : "0x095e7baea6a6c7c4c2dfeb977efac326af552d87",
                        "value" : "0x03e8",
                        "v" : "0x1c",
                        "r" : "0x988511f8ef5bf822995780a740eb0b6ed890ee187b4185704d45210873c4808b",
                        "s" : "0x6936675986e33fe1ccaed5b946250f037c18a613d5124ce417a794ea43ed63b1"
                    }
                ],
                "uncleHeaders" : [
                ]
            }
        ]
    }
}