{
    "pairing_35_d0g0v0_Berlin" : {
        "_info" : {
            "comment" : "A test for pairing_35",
            "filling-rpc-server" : "evm version 1.9.23-unstable-0efc69a9-20201022",
            "filling-tool-version" : "retesteth-0.0.9-berlin+commit.2f30f0ea.Linux.g++",
            "lllcversion" : "Version: 0.5.14-develop.2020.6.22+commit.9189ad7a.Linux.g++",
            "source" : "src/GeneralStateTestsFiller/stEIP2537/pairing_35Filler.json",
            "sourceHash" : "ba12395a11372d47f13a5086c0b04cb02c2014eb3d878f915663806c8f485a00"
        },
        "genesisBlockHeader" : {
            "bloom" : "0x00000000000000000000000000000000000000000000000000000000000000000000000000000000000000000000000000000000000000000000000000000000000000000000000000000000000000000000000000000000000000000000000000000000000000000000000000000000000000000000000000000000000000000000000000000000000000000000000000000000000000000000000000000000000000000000000000000000000000000000000000000000000000000000000000000000000000000000000000000000000000000000000000000000000000000000000000000000000000000000000000000000000000000000000000000000",
            "coinbase" : "0x2adc25665018aa1fe0e6bc666dac8fc2697ff9ba",
            "difficulty" : "0x020000",
            "extraData" : "0x00",
            "gasLimit" : "0xff112233445566",
            "gasUsed" : "0x00",
            "hash" : "0xf227282805f439ca053613f53f119422bda960eea236c4b013eca3b95c6be464",
            "mixHash" : "0x0000000000000000000000000000000000000000000000000000000000000000",
            "nonce" : "0x0000000000000000",
            "number" : "0x00",
            "parentHash" : "0x0000000000000000000000000000000000000000000000000000000000000000",
            "receiptTrie" : "0x56e81f171bcc55a6ff8345e692c0f86e5b48e01b996cadc001622fb5e363b421",
            "stateRoot" : "0xbf61e00e2f1fbb3ea831c4ff3bbeff62f2737e7f0d88945ba62e0722eab6cd68",
            "timestamp" : "0x00",
            "transactionsTrie" : "0x56e81f171bcc55a6ff8345e692c0f86e5b48e01b996cadc001622fb5e363b421",
            "uncleHash" : "0x1dcc4de8dec75d7aab85b567b6ccd41ad312451b948a7413f0a142fd40d49347"
        },
        "pre" : {
            "0x095e7baea6a6c7c4c2dfeb977efac326af552d87" : {
                "balance" : "0x00",
                "code" : "0x60806040526004361061001e5760003560e01c806312bd429914610023575b600080fd5b6100fc6004803603604081101561003957600080fd5b81019080803573ffffffffffffffffffffffffffffffffffffffff1690602001909291908035906020019064010000000081111561007657600080fd5b82018360208201111561008857600080fd5b803590602001918460018302840111640100000000831117156100aa57600080fd5b91908080601f016020809104026020016040519081016040528093929190818152602001838380828437600081840152601f19601f820116905080830192505050505050509192919290505050610182565b604051808315151515815260200180602001828103825283818151815260200191508051906020019080838360005b8381101561014657808201518184015260208101905061012b565b50505050905090810190601f1680156101735780820380516001836020036101000a031916815260200191505b50935050505060405180910390f35b600060608373ffffffffffffffffffffffffffffffffffffffff16836040518082805190602001908083835b602083106101d157805182526020820191506020810190506020830392506101ae565b6001836020036101000a038019825116818451168082178552505050505050905001915050600060405180830381855afa9150503d8060008114610231576040519150601f19603f3d011682016040523d82523d6000602084013e610236565b606091505b508092508193505050600060405180807f6572726f72000000000000000000000000000000000000000000000000000000815250600501905060405180910390209050821561028a57818051906020012090505b8060025582829250925050925092905056fea2646970667358221220db58d80e8530eed625d9b4250a6055c2eb1d7c117a7ca267e6f8a059bdd2f39e64736f6c634300060a0033",
                "nonce" : "0x01",
                "storage" : {
                }
            },
            "0xa94f5374fce5edbc8e2a8697c15331677e6ebf0b" : {
                "balance" : "0x0de0b6b3a7640000",
                "code" : "0x",
                "nonce" : "0x00",
                "storage" : {
                }
            }
        },
        "postState" : {
            "0x095e7baea6a6c7c4c2dfeb977efac326af552d87" : {
                "code" : "0x60806040526004361061001e5760003560e01c806312bd429914610023575b600080fd5b6100fc6004803603604081101561003957600080fd5b81019080803573ffffffffffffffffffffffffffffffffffffffff1690602001909291908035906020019064010000000081111561007657600080fd5b82018360208201111561008857600080fd5b803590602001918460018302840111640100000000831117156100aa57600080fd5b91908080601f016020809104026020016040519081016040528093929190818152602001838380828437600081840152601f19601f820116905080830192505050505050509192919290505050610182565b604051808315151515815260200180602001828103825283818151815260200191508051906020019080838360005b8381101561014657808201518184015260208101905061012b565b50505050905090810190601f1680156101735780820380516001836020036101000a031916815260200191505b50935050505060405180910390f35b600060608373ffffffffffffffffffffffffffffffffffffffff16836040518082805190602001908083835b602083106101d157805182526020820191506020810190506020830392506101ae565b6001836020036101000a038019825116818451168082178552505050505050905001915050600060405180830381855afa9150503d8060008114610231576040519150601f19603f3d011682016040523d82523d6000602084013e610236565b606091505b508092508193505050600060405180807f6572726f72000000000000000000000000000000000000000000000000000000815250600501905060405180910390209050821561028a57818051906020012090505b8060025582829250925050925092905056fea2646970667358221220db58d80e8530eed625d9b4250a6055c2eb1d7c117a7ca267e6f8a059bdd2f39e64736f6c634300060a0033",
                "nonce" : "0x01",
                "balance" : "0x03e8",
                "storage" : {
                    "0x02" : "0x290decd9548b62a8d60345a988386fc84ba6bc95484008f6362f93160ef3e563"
                }
            },
            "0x2adc25665018aa1fe0e6bc666dac8fc2697ff9ba" : {
                "code" : "0x",
                "nonce" : "0x00",
                "balance" : "0x1bc16d674ecbc742",
                "storage" : {
                }
            },
            "0xa94f5374fce5edbc8e2a8697c15331677e6ebf0b" : {
                "code" : "0x",
                "nonce" : "0x01",
                "balance" : "0x0de0b6b3a76034d6",
                "storage" : {
                }
            }
        },
        "network" : "Berlin",
        "sealEngine" : "NoProof",
        "lastblockhash" : "0x226fec6b599199b089f48e0d66ba94ad5ff8bfd83d67b08baf89202859d9f77b",
        "genesisRLP" : "0xf901fcf901f7a00000000000000000000000000000000000000000000000000000000000000000a01dcc4de8dec75d7aab85b567b6ccd41ad312451b948a7413f0a142fd40d49347942adc25665018aa1fe0e6bc666dac8fc2697ff9baa0bf61e00e2f1fbb3ea831c4ff3bbeff62f2737e7f0d88945ba62e0722eab6cd68a056e81f171bcc55a6ff8345e692c0f86e5b48e01b996cadc001622fb5e363b421a056e81f171bcc55a6ff8345e692c0f86e5b48e01b996cadc001622fb5e363b421b9010000000000000000000000000000000000000000000000000000000000000000000000000000000000000000000000000000000000000000000000000000000000000000000000000000000000000000000000000000000000000000000000000000000000000000000000000000000000000000000000000000000000000000000000000000000000000000000000000000000000000000000000000000000000000000000000000000000000000000000000000000000000000000000000000000000000000000000000000000000000000000000000000000000000000000000000000000000000000000000000000000000000000000000000000000000000830200008087ff112233445566808000a00000000000000000000000000000000000000000000000000000000000000000880000000000000000c0c0",
        "blocks" : [
            {
                "rlp" : "0xf9074ef901fca0f227282805f439ca053613f53f119422bda960eea236c4b013eca3b95c6be464a01dcc4de8dec75d7aab85b567b6ccd41ad312451b948a7413f0a142fd40d49347942adc25665018aa1fe0e6bc666dac8fc2697ff9baa085fee3cf67cd96ce294065c9517e6f5c2b6752b74190c3abba5e7dc1cd526690a0e03c0d8ee90010db02996b8fa8e61c86f33ce5933eb76347793fdbe62613bd1ea01488270ac4fb74d8a87ae227f70a9fe77a895fe9d761faf6c846b6c9ca700721b9010000000000000000000000000000000000000000000000000000000000000000000000000000000000000000000000000000000000000000000000000000000000000000000000000000000000000000000000000000000000000000000000000000000000000000000000000000000000000000000000000000000000000000000000000000000000000000000000000000000000000000000000000000000000000000000000000000000000000000000000000000000000000000000000000000000000000000000000000000000000000000000000000000000000000000000000000000000000000000000000000000000000000000000000000000000000830200000187ff1122334455668303c7428203e800a00000000000000000000000000000000000000000000000000000000000000000880000000000000000f9054bf905488001836acfc094095e7baea6a6c7c4c2dfeb977efac326af552d878203e8b904e412bd4299000000000000000000000000000000000000000000000000000000000000001000000000000000000000000000000000000000000000000000000000000000400000000000000000000000000000000000000000000000000000000000000480000000000000000000000000000000001383bc4d6c748d5c76ab4ba04f8fcd4c0fed9a49ea080c548893440819833ad72a8249f77391d5fbff78329eb319d3830000000000000000000000000000000016404bd07b6c6480af2d23301940e61817ee2e61fc625c100b31e1b324c369a583b61048dd57ab97b80b1fe6cd64c5c30000000000000000000000000000000004ac6e6077d4eddd0e23f30cfd64b7aa1525c85424224e70c15d7535e02aea7a312ef24ba2dcf70b926acb851da2530c0000000000000000000000000000000006ad07d3e8f45cedfb4279913bf0a29e37604810463d6020b4fa8c8c4977d69cffaa33e1149706f04eb237194dcafa520000000000000000000000000000000002c536dd2f05f4a7eaa33fd884262b22a2ab2a88e7b63cb08ebb67fc0f143da7d6b18dd394c424161f7cf703acdc82f50000000000000000000000000000000002d1d9ff74e20ea9b03c478784f57e7a58a21ca2b1e552319f33305f367f5ae4daf8138505f953db4f86c0ec1d96d5f0000000000000000000000000000000001383bc4d6c748d5c76ab4ba04f8fcd4c0fed9a49ea080c548893440819833ad72a8249f77391d5fbff78329eb319d3830000000000000000000000000000000003c0c619be1382199bee84862a0ac6bf4c891d22f722b6af5bfef0edd1ed8c7e9af5efb5d3fc546801f3e019329ae4e80000000000000000000000000000000004ac6e6077d4eddd0e23f30cfd64b7aa1525c85424224e70c15d7535e02aea7a312ef24ba2dcf70b926acb851da2530c0000000000000000000000000000000006ad07d3e8f45cedfb4279913bf0a29e37604810463d6020b4fa8c8c4977d69cffaa33e1149706f04eb237194dcafa520000000000000000000000000000000002c536dd2f05f4a7eaa33fd884262b22a2ab2a88e7b63cb08ebb67fc0f143da7d6b18dd394c424161f7cf703acdc82f50000000000000000000000000000000002d1d9ff74e20ea9b03c478784f57e7a58a21ca2b1e552319f33305f367f5ae4daf8138505f953db4f86c0ec1d96d5f0000000000000000000000000000000001383bc4d6c748d5c76ab4ba04f8fcd4c0fed9a49ea080c548893440819833ad72a8249f77391d5fbff78329eb319d3830000000000000000000000000000000016404bd07b6c6480af2d23301940e61817ee2e61fc625c100b31e1b324c369a583b61048dd57ab97b80b1fe6cd64c5c30000000000000000000000000000000004ac6e6077d4eddd0e23f30cfd64b7aa1525c85424224e70c15d7535e02aea7a312ef24ba2dcf70b926acb851da2530c0000000000000000000000000000000006ad07d3e8f45cedfb4279913bf0a29e37604810463d6020b4fa8c8c4977d69cffaa33e1149706f04eb237194dcafa5200000000000000000000000000000000173bdb0d0a79f1f2607867ddbf2581b4c1cc20fc0bced60ed8756aa4e79cb87c47fa722b1c8fdbe99a8208fc532327b600000000000000000000000000000000172f37eac49dd7f09adf602ebe562e5d0bd52ee2419fc08dc7fda241c0319b3f43b3ec79ab5aac246a783f13e268d4bb1ba00ced2ca4b618db12b3e1c20c33d87c8056d9a77a125612e97063daa3d8ad1daba02b260ada33cf07129d21223e224886a52e526bddd60d802acba1da1c36150e95c0",
                "blockHeader" : {
                    "bloom" : "0x00000000000000000000000000000000000000000000000000000000000000000000000000000000000000000000000000000000000000000000000000000000000000000000000000000000000000000000000000000000000000000000000000000000000000000000000000000000000000000000000000000000000000000000000000000000000000000000000000000000000000000000000000000000000000000000000000000000000000000000000000000000000000000000000000000000000000000000000000000000000000000000000000000000000000000000000000000000000000000000000000000000000000000000000000000000",
                    "coinbase" : "0x2adc25665018aa1fe0e6bc666dac8fc2697ff9ba",
                    "difficulty" : "0x020000",
                    "extraData" : "0x00",
                    "gasLimit" : "0xff112233445566",
                    "gasUsed" : "0x03c742",
                    "hash" : "0x226fec6b599199b089f48e0d66ba94ad5ff8bfd83d67b08baf89202859d9f77b",
                    "mixHash" : "0x0000000000000000000000000000000000000000000000000000000000000000",
                    "nonce" : "0x0000000000000000",
                    "number" : "0x01",
                    "parentHash" : "0xf227282805f439ca053613f53f119422bda960eea236c4b013eca3b95c6be464",
                    "receiptTrie" : "0x1488270ac4fb74d8a87ae227f70a9fe77a895fe9d761faf6c846b6c9ca700721",
                    "stateRoot" : "0x85fee3cf67cd96ce294065c9517e6f5c2b6752b74190c3abba5e7dc1cd526690",
                    "timestamp" : "0x03e8",
                    "transactionsTrie" : "0xe03c0d8ee90010db02996b8fa8e61c86f33ce5933eb76347793fdbe62613bd1e",
                    "uncleHash" : "0x1dcc4de8dec75d7aab85b567b6ccd41ad312451b948a7413f0a142fd40d49347"
                },
                "transactions" : [
                    {
                        "data" : "0x12bd4299000000000000000000000000000000000000000000000000000000000000001000000000000000000000000000000000000000000000000000000000000000400000000000000000000000000000000000000000000000000000000000000480000000000000000000000000000000001383bc4d6c748d5c76ab4ba04f8fcd4c0fed9a49ea080c548893440819833ad72a8249f77391d5fbff78329eb319d3830000000000000000000000000000000016404bd07b6c6480af2d23301940e61817ee2e61fc625c100b31e1b324c369a583b61048dd57ab97b80b1fe6cd64c5c30000000000000000000000000000000004ac6e6077d4eddd0e23f30cfd64b7aa1525c85424224e70c15d7535e02aea7a312ef24ba2dcf70b926acb851da2530c0000000000000000000000000000000006ad07d3e8f45cedfb4279913bf0a29e37604810463d6020b4fa8c8c4977d69cffaa33e1149706f04eb237194dcafa520000000000000000000000000000000002c536dd2f05f4a7eaa33fd884262b22a2ab2a88e7b63cb08ebb67fc0f143da7d6b18dd394c424161f7cf703acdc82f50000000000000000000000000000000002d1d9ff74e20ea9b03c478784f57e7a58a21ca2b1e552319f33305f367f5ae4daf8138505f953db4f86c0ec1d96d5f0000000000000000000000000000000001383bc4d6c748d5c76ab4ba04f8fcd4c0fed9a49ea080c548893440819833ad72a8249f77391d5fbff78329eb319d3830000000000000000000000000000000003c0c619be1382199bee84862a0ac6bf4c891d22f722b6af5bfef0edd1ed8c7e9af5efb5d3fc546801f3e019329ae4e80000000000000000000000000000000004ac6e6077d4eddd0e23f30cfd64b7aa1525c85424224e70c15d7535e02aea7a312ef24ba2dcf70b926acb851da2530c0000000000000000000000000000000006ad07d3e8f45cedfb4279913bf0a29e37604810463d6020b4fa8c8c4977d69cffaa33e1149706f04eb237194dcafa520000000000000000000000000000000002c536dd2f05f4a7eaa33fd884262b22a2ab2a88e7b63cb08ebb67fc0f143da7d6b18dd394c424161f7cf703acdc82f50000000000000000000000000000000002d1d9ff74e20ea9b03c478784f57e7a58a21ca2b1e552319f33305f367f5ae4daf8138505f953db4f86c0ec1d96d5f0000000000000000000000000000000001383bc4d6c748d5c76ab4ba04f8fcd4c0fed9a49ea080c548893440819833ad72a8249f77391d5fbff78329eb319d3830000000000000000000000000000000016404bd07b6c6480af2d23301940e61817ee2e61fc625c100b31e1b324c369a583b61048dd57ab97b80b1fe6cd64c5c30000000000000000000000000000000004ac6e6077d4eddd0e23f30cfd64b7aa1525c85424224e70c15d7535e02aea7a312ef24ba2dcf70b926acb851da2530c0000000000000000000000000000000006ad07d3e8f45cedfb4279913bf0a29e37604810463d6020b4fa8c8c4977d69cffaa33e1149706f04eb237194dcafa5200000000000000000000000000000000173bdb0d0a79f1f2607867ddbf2581b4c1cc20fc0bced60ed8756aa4e79cb87c47fa722b1c8fdbe99a8208fc532327b600000000000000000000000000000000172f37eac49dd7f09adf602ebe562e5d0bd52ee2419fc08dc7fda241c0319b3f43b3ec79ab5aac246a783f13e268d4bb",
                        "gasLimit" : "0x6acfc0",
                        "gasPrice" : "0x01",
                        "nonce" : "0x00",
                        "to" : "0x095e7baea6a6c7c4c2dfeb977efac326af552d87",
                        "value" : "0x03e8",
                        "v" : "0x1b",
                        "r" : "0x0ced2ca4b618db12b3e1c20c33d87c8056d9a77a125612e97063daa3d8ad1dab",
                        "s" : "0x2b260ada33cf07129d21223e224886a52e526bddd60d802acba1da1c36150e95"
                    }
                ],
                "uncleHeaders" : [
                ]
            }
        ]
    }
}