{
    "callOutput1" : {
        "_info" : {
            "comment" : "",
            "filling-rpc-server" : "evm version 1.13.13-unstable-034bc466-20240219",
            "filling-tool-version" : "retesteth-0.3.2-cancun+commit.014a68a5.Linux.g++",
            "generatedTestHash" : "c25fbbf5377b66dfeb49a52648f885e35a8244f9e22ee8158efaf5e9b12b4468",
            "lllcversion" : "Version: 0.5.14-develop.2023.7.11+commit.c58ab2c6.mod.Linux.g++",
            "solidity" : "Version: 0.8.21+commit.d9974bed.Linux.g++",
            "source" : "src/GeneralStateTestsFiller/stDelegatecallTestHomestead/callOutput1Filler.json",
            "sourceHash" : "09c300678cc48c9c21c9b0406dcc122509b584446e518d7f47a59010bdc04fd8"
        },
        "env" : {
            "currentBaseFee" : "0x0a",
            "currentCoinbase" : "0x2adc25665018aa1fe0e6bc666dac8fc2697ff9ba",
            "currentDifficulty" : "0x020000",
            "currentExcessBlobGas" : "0x00",
            "currentGasLimit" : "0x0f4240",
            "currentNumber" : "0x01",
            "currentRandom" : "0x0000000000000000000000000000000000000000000000000000000000020000",
            "currentTimestamp" : "0x03e8"
        },
        "post" : {
            "Berlin" : [
                {
                    "hash" : "0xf8726265355cfd4b78dae53574a024ddfb903e2b7ab31b4dd0c59f3eceb99b6d",
                    "indexes" : {
                        "data" : 0,
                        "gas" : 0,
                        "value" : 0
                    },
                    "logs" : "0x1dcc4de8dec75d7aab85b567b6ccd41ad312451b948a7413f0a142fd40d49347",
                    "txbytes" : "0xf863800a830dbba094095e7baea6a6c7c4c2dfeb977efac326af552d87830186a0801ca04982edab0614d35b80b70f68e3036fa1774b76ca51bfa06622e8db4837580eaea02a109e7076f596480207d7fbc0499f57763c67be6b8c23cc62c900b82d0ccec9"
                }
            ],
            "Cancun" : [
                {
                    "hash" : "0x057bda51addf71556fa0df9b82db3e8b1a738512c2e2b026b2e02fcc71421212",
                    "indexes" : {
                        "data" : 0,
                        "gas" : 0,
                        "value" : 0
                    },
                    "logs" : "0x1dcc4de8dec75d7aab85b567b6ccd41ad312451b948a7413f0a142fd40d49347",
                    "txbytes" : "0xf863800a830dbba094095e7baea6a6c7c4c2dfeb977efac326af552d87830186a0801ca04982edab0614d35b80b70f68e3036fa1774b76ca51bfa06622e8db4837580eaea02a109e7076f596480207d7fbc0499f57763c67be6b8c23cc62c900b82d0ccec9"
                }
            ],
            "Istanbul" : [
                {
                    "hash" : "0x5292ca444bc40684a6a48be4036e613c6c27ddbafe932ef3e349e7c5766d19f4",
                    "indexes" : {
                        "data" : 0,
                        "gas" : 0,
                        "value" : 0
                    },
                    "logs" : "0x1dcc4de8dec75d7aab85b567b6ccd41ad312451b948a7413f0a142fd40d49347",
                    "txbytes" : "0xf863800a830dbba094095e7baea6a6c7c4c2dfeb977efac326af552d87830186a0801ca04982edab0614d35b80b70f68e3036fa1774b76ca51bfa06622e8db4837580eaea02a109e7076f596480207d7fbc0499f57763c67be6b8c23cc62c900b82d0ccec9"
                }
            ],
            "London" : [
                {
                    "hash" : "0x8bce65ff3e68ab1c217a0d9483c0d5bfc995e6ea2c846ae27be7f9a325db8cfd",
                    "indexes" : {
                        "data" : 0,
                        "gas" : 0,
                        "value" : 0
                    },
                    "logs" : "0x1dcc4de8dec75d7aab85b567b6ccd41ad312451b948a7413f0a142fd40d49347",
                    "txbytes" : "0xf863800a830dbba094095e7baea6a6c7c4c2dfeb977efac326af552d87830186a0801ca04982edab0614d35b80b70f68e3036fa1774b76ca51bfa06622e8db4837580eaea02a109e7076f596480207d7fbc0499f57763c67be6b8c23cc62c900b82d0ccec9"
                }
            ],
            "Paris" : [
                {
                    "hash" : "0x8bce65ff3e68ab1c217a0d9483c0d5bfc995e6ea2c846ae27be7f9a325db8cfd",
                    "indexes" : {
                        "data" : 0,
                        "gas" : 0,
                        "value" : 0
                    },
                    "logs" : "0x1dcc4de8dec75d7aab85b567b6ccd41ad312451b948a7413f0a142fd40d49347",
                    "txbytes" : "0xf863800a830dbba094095e7baea6a6c7c4c2dfeb977efac326af552d87830186a0801ca04982edab0614d35b80b70f68e3036fa1774b76ca51bfa06622e8db4837580eaea02a109e7076f596480207d7fbc0499f57763c67be6b8c23cc62c900b82d0ccec9"
                }
            ],
            "Shanghai" : [
                {
                    "hash" : "0x8bce65ff3e68ab1c217a0d9483c0d5bfc995e6ea2c846ae27be7f9a325db8cfd",
                    "indexes" : {
                        "data" : 0,
                        "gas" : 0,
                        "value" : 0
                    },
                    "logs" : "0x1dcc4de8dec75d7aab85b567b6ccd41ad312451b948a7413f0a142fd40d49347",
                    "txbytes" : "0xf863800a830dbba094095e7baea6a6c7c4c2dfeb977efac326af552d87830186a0801ca04982edab0614d35b80b70f68e3036fa1774b76ca51bfa06622e8db4837580eaea02a109e7076f596480207d7fbc0499f57763c67be6b8c23cc62c900b82d0ccec9"
                }
            ]
        },
        "pre" : {
            "0x000f3df6d732807ef1319fb7b8bb8522d0beac02" : {
                "balance" : "0x00",
                "code" : "0x3373fffffffffffffffffffffffffffffffffffffffe14604d57602036146024575f5ffd5b5f35801560495762001fff810690815414603c575f5ffd5b62001fff01545f5260205ff35b5f5ffd5b62001fff42064281555f359062001fff015500",
                "nonce" : "0x01",
                "storage" : {
                }
            },
            "0x095e7baea6a6c7c4c2dfeb977efac326af552d87" : {
                "balance" : "0x0de0b6b3a7640000",
                "code" : "0x7f5e20a0453cecd065ea59c37ac63e079ee08998b6045136a8ce6635c7912ec0b6600052600060006000600073aaae7baea6a6c7c4c2dfeb977efac326af552d8761c350f45060005160005500",
                "nonce" : "0x00",
                "storage" : {
                }
            },
            "0xa94f5374fce5edbc8e2a8697c15331677e6ebf0b" : {
                "balance" : "0x0de0b6b3a7640000",
                "code" : "0x",
                "nonce" : "0x00",
                "storage" : {
                }
            },
            "0xaaae7baea6a6c7c4c2dfeb977efac326af552d87" : {
                "balance" : "0x0de0b6b3a7640000",
                "code" : "0x6001600101600055",
                "nonce" : "0x00",
                "storage" : {
                }
            }
        },
        "transaction" : {
            "data" : [
                "0x"
            ],
            "gasLimit" : [
                "0x0dbba0"
            ],
            "gasPrice" : "0x0a",
            "nonce" : "0x00",
            "secretKey" : "0x45a915e4d060149eb4365960e6a7a45f334393093061116b197e3240065ff2d8",
            "sender" : "0xa94f5374fce5edbc8e2a8697c15331677e6ebf0b",
            "to" : "0x095e7baea6a6c7c4c2dfeb977efac326af552d87",
            "value" : [
                "0x0186a0"
            ]
        }
    }
}