{
    "callcodeOutput3" : {
        "_info" : {
            "comment" : "",
            "filling-rpc-server" : "evm version 1.10.2-unstable-22082f9e-20210309",
            "filling-tool-version" : "retesteth-0.1.0-accesslist+commit.47c69eb3.Linux.g++",
            "lllcversion" : "Version: 0.5.14-develop.2020.6.22+commit.9189ad7a.Linux.g++",
            "source" : "src/GeneralStateTestsFiller/stDelegatecallTestHomestead/callcodeOutput3Filler.json",
            "sourceHash" : "75005127434fa1f44c94ce4a84aede7d49bda3e7cbd4bc3e325b62535503d526"
        },
        "env" : {
            "currentCoinbase" : "0x2adc25665018aa1fe0e6bc666dac8fc2697ff9ba",
            "currentDifficulty" : "0x020000",
            "currentGasLimit" : "0x0f4240",
            "currentNumber" : "0x01",
            "currentTimestamp" : "0x03e8",
            "previousHash" : "0x5e20a0453cecd065ea59c37ac63e079ee08998b6045136a8ce6635c7912ec0b6"
        },
        "post" : {
            "Berlin" : [
                {
                    "indexes" : {
                        "data" : 0,
                        "gas" : 0,
                        "value" : 0
                    },
                    "hash" : "0xc85886405633ecb6867d9d89ee32045016ad63236251af0d8338c34869cae1f9",
                    "txbytes" : "0xf8638080830dbba094095e7baea6a6c7c4c2dfeb977efac326af552d87830186a0801ba0a454127f0a7efbc07c27b65a9bd76ebf8189d032a43b7a8f81327c2371ad79f1a055bd50638e18dafa3a23707e89dbe830f00f109e771774bb5db2c7b44be2277e",
                    "logs" : "0x1dcc4de8dec75d7aab85b567b6ccd41ad312451b948a7413f0a142fd40d49347"
                }
            ],
            "Istanbul" : [
                {
                    "indexes" : {
                        "data" : 0,
                        "gas" : 0,
                        "value" : 0
                    },
                    "hash" : "0xc85886405633ecb6867d9d89ee32045016ad63236251af0d8338c34869cae1f9",
                    "txbytes" : "0xf8638080830dbba094095e7baea6a6c7c4c2dfeb977efac326af552d87830186a0801ba0a454127f0a7efbc07c27b65a9bd76ebf8189d032a43b7a8f81327c2371ad79f1a055bd50638e18dafa3a23707e89dbe830f00f109e771774bb5db2c7b44be2277e",
                    "logs" : "0x1dcc4de8dec75d7aab85b567b6ccd41ad312451b948a7413f0a142fd40d49347"
                }
            ]
        },
        "pre" : {
            "0x095e7baea6a6c7c4c2dfeb977efac326af552d87" : {
                "balance" : "0x0de0b6b3a7640000",
                "code" : "0x7f5e20a0453cecd065ea59c37ac63e079ee08998b6045136a8ce6635c7912ec0b6600052602060006000600073aaae7baea6a6c7c4c2dfeb977efac326af552d8761c350f45060005160005500",
                "nonce" : "0x00",
                "storage" : {
                }
            },
            "0xa94f5374fce5edbc8e2a8697c15331677e6ebf0b" : {
                "balance" : "0x0de0b6b3a7640000",
                "code" : "0x",
                "nonce" : "0x00",
                "storage" : {
                }
            },
            "0xaaae7baea6a6c7c4c2dfeb977efac326af552d87" : {
                "balance" : "0x0de0b6b3a7640000",
                "code" : "0x6001600101600055",
                "nonce" : "0x00",
                "storage" : {
                }
            }
        },
        "transaction" : {
            "data" : [
                "0x"
            ],
            "gasLimit" : [
                "0x0dbba0"
            ],
            "gasPrice" : "0x00",
            "nonce" : "0x00",
            "secretKey" : "0x45a915e4d060149eb4365960e6a7a45f334393093061116b197e3240065ff2d8",
            "to" : "0x095e7baea6a6c7c4c2dfeb977efac326af552d87",
            "value" : [
                "0x0186a0"
            ]
        }
    }
}