{
    "mem64kb+1_d0g0v0_Byzantium" : {
        "_info" : {
            "comment" : "",
            "filledwith" : "cpp-1.3.0+commit.ee0c6776.Linux.g++",
            "lllcversion" : "Version: 0.4.20-develop.2018.2.4+commit.c696803f.Linux.g++",
            "source" : "src/BlockchainTestsFiller/GeneralStateTests/stMemoryTest/mem64kb+1_d0g0v0Filler.json",
            "sourceHash" : "eec89cce4661ed5c4246ab74bba2e95249fd0b5d6fd2c246c9474e4b04e9c20e"
        },
        "blocks" : [
            {
                "blockHeader" : {
                    "bloom" : "0x00000000000000000000000000000000000000000000000000000000000000000000000000000000000000000000000000000000000000000000000000000000000000000000000000000000000000000000000000000000000000000000000000000000000000000000000000000000000000000000000000000000000000000000000000000000000000000000000000000000000000000000000000000000000000000000000000000000000000000000000000000000000000000000000000000000000000000000000000000000000000000000000000000000000000000000000000000000000000000000000000000000000000000000000000000000",
                    "coinbase" : "0x2adc25665018aa1fe0e6bc666dac8fc2697ff9ba",
                    "difficulty" : "0x020000",
                    "extraData" : "",
                    "gasLimit" : "0x0a00000000",
                    "gasUsed" : "0x01245e",
                    "hash" : "0x3b878b65fa0aeade635c1a42ec3f3964821ade96069214c6133b02d2eaa16de8",
                    "mixHash" : "0x669726d894779e66756fb656130675cd7243d5d9f3e08b907ababd2bd3bf3e97",
                    "nonce" : "0x746690803341c720",
                    "number" : "0x01",
                    "parentHash" : "0x60ce21b454efd648065fde9461e500036ef944bd8148ac35dcbbe719f76a772e",
                    "receiptTrie" : "0xf1ce13f5f39cd66c9fe92e0cf3cd6edf8223ecff9b3eb0aaca2cbcef9f7aa289",
                    "stateRoot" : "0xd2f1e3ae3ac8eb17dea9d7b70ade708ace67ffdc65820722a923da6cf9ed2055",
                    "timestamp" : "0x03e8",
                    "transactionsTrie" : "0x579a1a7e0077c790d96eb12a938445003a0f26110320cb2527921bad5605561a",
                    "uncleHash" : "0x1dcc4de8dec75d7aab85b567b6ccd41ad312451b948a7413f0a142fd40d49347"
                },
                "rlp" : "0xf90263f901faa060ce21b454efd648065fde9461e500036ef944bd8148ac35dcbbe719f76a772ea01dcc4de8dec75d7aab85b567b6ccd41ad312451b948a7413f0a142fd40d49347942adc25665018aa1fe0e6bc666dac8fc2697ff9baa0d2f1e3ae3ac8eb17dea9d7b70ade708ace67ffdc65820722a923da6cf9ed2055a0579a1a7e0077c790d96eb12a938445003a0f26110320cb2527921bad5605561aa0f1ce13f5f39cd66c9fe92e0cf3cd6edf8223ecff9b3eb0aaca2cbcef9f7aa289b90100000000000000000000000000000000000000000000000000000000000000000000000000000000000000000000000000000000000000000000000000000000000000000000000000000000000000000000000000000000000000000000000000000000000000000000000000000000000000000000000000000000000000000000000000000000000000000000000000000000000000000000000000000000000000000000000000000000000000000000000000000000000000000000000000000000000000000000000000000000000000000000000000000000000000000000000000000000000000000000000000000000000000000000000000000000008302000001850a000000008301245e8203e880a0669726d894779e66756fb656130675cd7243d5d9f3e08b907ababd2bd3bf3e9788746690803341c720f863f86180018450001798940f572e5295c57f15886f9b263e2f6d2d6c7b5ec60a801ba0c368a240875530dbea24d5f971b4ade577a1702ed44b66a0ca6c592986d3d1a7a00534768d31a4befd7cee3b7a73775e16bb1d9aca9ef2e8828286a408a0115978c0",
                "transactions" : [
                    {
                        "data" : "0x",
                        "gasLimit" : "0x50001798",
                        "gasPrice" : "0x01",
                        "nonce" : "0x00",
                        "r" : "0xc368a240875530dbea24d5f971b4ade577a1702ed44b66a0ca6c592986d3d1a7",
                        "s" : "0x0534768d31a4befd7cee3b7a73775e16bb1d9aca9ef2e8828286a408a0115978",
                        "to" : "0x0f572e5295c57f15886f9b263e2f6d2d6c7b5ec6",
                        "v" : "0x1b",
                        "value" : "0x0a"
                    }
                ],
                "uncleHeaders" : [
                ]
            }
        ],
        "genesisBlockHeader" : {
            "bloom" : "0x00000000000000000000000000000000000000000000000000000000000000000000000000000000000000000000000000000000000000000000000000000000000000000000000000000000000000000000000000000000000000000000000000000000000000000000000000000000000000000000000000000000000000000000000000000000000000000000000000000000000000000000000000000000000000000000000000000000000000000000000000000000000000000000000000000000000000000000000000000000000000000000000000000000000000000000000000000000000000000000000000000000000000000000000000000000",
            "coinbase" : "0x2adc25665018aa1fe0e6bc666dac8fc2697ff9ba",
            "difficulty" : "0x020000",
            "extraData" : "0x42",
            "gasLimit" : "0x0a00000000",
            "gasUsed" : "0x00",
            "hash" : "0x60ce21b454efd648065fde9461e500036ef944bd8148ac35dcbbe719f76a772e",
            "mixHash" : "0x56e81f171bcc55a6ff8345e692c0f86e5b48e01b996cadc001622fb5e363b421",
            "nonce" : "0x0102030405060708",
            "number" : "0x00",
            "parentHash" : "0x0000000000000000000000000000000000000000000000000000000000000000",
            "receiptTrie" : "0x56e81f171bcc55a6ff8345e692c0f86e5b48e01b996cadc001622fb5e363b421",
            "stateRoot" : "0x912346d512012405bb5ddae8f424baf4bd82ccd540c5bd07fc1def5ed6b9e0d6",
            "timestamp" : "0x03b6",
            "transactionsTrie" : "0x56e81f171bcc55a6ff8345e692c0f86e5b48e01b996cadc001622fb5e363b421",
            "uncleHash" : "0x1dcc4de8dec75d7aab85b567b6ccd41ad312451b948a7413f0a142fd40d49347"
        },
        "genesisRLP" : "0xf901fcf901f7a00000000000000000000000000000000000000000000000000000000000000000a01dcc4de8dec75d7aab85b567b6ccd41ad312451b948a7413f0a142fd40d49347942adc25665018aa1fe0e6bc666dac8fc2697ff9baa0912346d512012405bb5ddae8f424baf4bd82ccd540c5bd07fc1def5ed6b9e0d6a056e81f171bcc55a6ff8345e692c0f86e5b48e01b996cadc001622fb5e363b421a056e81f171bcc55a6ff8345e692c0f86e5b48e01b996cadc001622fb5e363b421b90100000000000000000000000000000000000000000000000000000000000000000000000000000000000000000000000000000000000000000000000000000000000000000000000000000000000000000000000000000000000000000000000000000000000000000000000000000000000000000000000000000000000000000000000000000000000000000000000000000000000000000000000000000000000000000000000000000000000000000000000000000000000000000000000000000000000000000000000000000000000000000000000000000000000000000000000000000000000000000000000000000000000000000000000000000000008302000080850a00000000808203b642a056e81f171bcc55a6ff8345e692c0f86e5b48e01b996cadc001622fb5e363b421880102030405060708c0c0",
        "lastblockhash" : "0x3b878b65fa0aeade635c1a42ec3f3964821ade96069214c6133b02d2eaa16de8",
        "network" : "Byzantium",
        "postState" : {
            "0x0f572e5295c57f15886f9b263e2f6d2d6c7b5ec6" : {
                "balance" : "0x0de0b6b3a764000a",
                "code" : "0x602a61f9e15261f9e15160015559600055",
                "nonce" : "0x00",
                "storage" : {
                    "0x00" : "0xfa20",
                    "0x01" : "0x2a"
                }
            },
            "0x2adc25665018aa1fe0e6bc666dac8fc2697ff9ba" : {
                "balance" : "0x29a2241af62d245e",
                "code" : "",
                "nonce" : "0x00",
                "storage" : {
                }
            },
            "0xa94f5374fce5edbc8e2a8697c15331677e6ebf0b" : {
                "balance" : "0x63fffedb98",
                "code" : "",
                "nonce" : "0x01",
                "storage" : {
                }
            }
        },
        "pre" : {
            "0x0f572e5295c57f15886f9b263e2f6d2d6c7b5ec6" : {
                "balance" : "0x0de0b6b3a7640000",
                "code" : "0x602a61f9e15261f9e15160015559600055",
                "nonce" : "0x00",
                "storage" : {
                }
            },
            "0xa94f5374fce5edbc8e2a8697c15331677e6ebf0b" : {
                "balance" : "0x6400000000",
                "code" : "",
                "nonce" : "0x00",
                "storage" : {
                }
            }
        }
    },
    "mem64kb+1_d0g0v0_EIP150" : {
        "_info" : {
            "comment" : "",
            "filledwith" : "cpp-1.3.0+commit.ee0c6776.Linux.g++",
            "lllcversion" : "Version: 0.4.20-develop.2018.2.4+commit.c696803f.Linux.g++",
            "source" : "src/BlockchainTestsFiller/GeneralStateTests/stMemoryTest/mem64kb+1_d0g0v0Filler.json",
            "sourceHash" : "eec89cce4661ed5c4246ab74bba2e95249fd0b5d6fd2c246c9474e4b04e9c20e"
        },
        "blocks" : [
            {
                "blockHeader" : {
                    "bloom" : "0x00000000000000000000000000000000000000000000000000000000000000000000000000000000000000000000000000000000000000000000000000000000000000000000000000000000000000000000000000000000000000000000000000000000000000000000000000000000000000000000000000000000000000000000000000000000000000000000000000000000000000000000000000000000000000000000000000000000000000000000000000000000000000000000000000000000000000000000000000000000000000000000000000000000000000000000000000000000000000000000000000000000000000000000000000000000",
                    "coinbase" : "0x2adc25665018aa1fe0e6bc666dac8fc2697ff9ba",
                    "difficulty" : "0x020000",
                    "extraData" : "",
                    "gasLimit" : "0x0a00000000",
                    "gasUsed" : "0x01245e",
                    "hash" : "0xb6e3feefa0af6b1a78545a73af7c2255d383d78d1cfc04d426e4de1ff2bfc3cb",
                    "mixHash" : "0xc8543f21bdd97d228281e3eb772abba838a47ca75404453d15dc3b6d0f29abee",
                    "nonce" : "0x5ea092b57f69bed6",
                    "number" : "0x01",
                    "parentHash" : "0x60ce21b454efd648065fde9461e500036ef944bd8148ac35dcbbe719f76a772e",
                    "receiptTrie" : "0x6abe6dc31b2320f9936ba3faf99faf767d0bd331f6fbf2ce4dff832fa7817d27",
                    "stateRoot" : "0x97e32f57500b9cc7d4ac30e3ea929c8bf1c9f53b380b785b3c541ec985dcc6be",
                    "timestamp" : "0x03e8",
                    "transactionsTrie" : "0x579a1a7e0077c790d96eb12a938445003a0f26110320cb2527921bad5605561a",
                    "uncleHash" : "0x1dcc4de8dec75d7aab85b567b6ccd41ad312451b948a7413f0a142fd40d49347"
                },
                "rlp" : "0xf90263f901faa060ce21b454efd648065fde9461e500036ef944bd8148ac35dcbbe719f76a772ea01dcc4de8dec75d7aab85b567b6ccd41ad312451b948a7413f0a142fd40d49347942adc25665018aa1fe0e6bc666dac8fc2697ff9baa097e32f57500b9cc7d4ac30e3ea929c8bf1c9f53b380b785b3c541ec985dcc6bea0579a1a7e0077c790d96eb12a938445003a0f26110320cb2527921bad5605561aa06abe6dc31b2320f9936ba3faf99faf767d0bd331f6fbf2ce4dff832fa7817d27b90100000000000000000000000000000000000000000000000000000000000000000000000000000000000000000000000000000000000000000000000000000000000000000000000000000000000000000000000000000000000000000000000000000000000000000000000000000000000000000000000000000000000000000000000000000000000000000000000000000000000000000000000000000000000000000000000000000000000000000000000000000000000000000000000000000000000000000000000000000000000000000000000000000000000000000000000000000000000000000000000000000000000000000000000000000000008302000001850a000000008301245e8203e880a0c8543f21bdd97d228281e3eb772abba838a47ca75404453d15dc3b6d0f29abee885ea092b57f69bed6f863f86180018450001798940f572e5295c57f15886f9b263e2f6d2d6c7b5ec60a801ba0c368a240875530dbea24d5f971b4ade577a1702ed44b66a0ca6c592986d3d1a7a00534768d31a4befd7cee3b7a73775e16bb1d9aca9ef2e8828286a408a0115978c0",
                "transactions" : [
                    {
                        "data" : "0x",
                        "gasLimit" : "0x50001798",
                        "gasPrice" : "0x01",
                        "nonce" : "0x00",
                        "r" : "0xc368a240875530dbea24d5f971b4ade577a1702ed44b66a0ca6c592986d3d1a7",
                        "s" : "0x0534768d31a4befd7cee3b7a73775e16bb1d9aca9ef2e8828286a408a0115978",
                        "to" : "0x0f572e5295c57f15886f9b263e2f6d2d6c7b5ec6",
                        "v" : "0x1b",
                        "value" : "0x0a"
                    }
                ],
                "uncleHeaders" : [
                ]
            }
        ],
        "genesisBlockHeader" : {
            "bloom" : "0x00000000000000000000000000000000000000000000000000000000000000000000000000000000000000000000000000000000000000000000000000000000000000000000000000000000000000000000000000000000000000000000000000000000000000000000000000000000000000000000000000000000000000000000000000000000000000000000000000000000000000000000000000000000000000000000000000000000000000000000000000000000000000000000000000000000000000000000000000000000000000000000000000000000000000000000000000000000000000000000000000000000000000000000000000000000",
            "coinbase" : "0x2adc25665018aa1fe0e6bc666dac8fc2697ff9ba",
            "difficulty" : "0x020000",
            "extraData" : "0x42",
            "gasLimit" : "0x0a00000000",
            "gasUsed" : "0x00",
            "hash" : "0x60ce21b454efd648065fde9461e500036ef944bd8148ac35dcbbe719f76a772e",
            "mixHash" : "0x56e81f171bcc55a6ff8345e692c0f86e5b48e01b996cadc001622fb5e363b421",
            "nonce" : "0x0102030405060708",
            "number" : "0x00",
            "parentHash" : "0x0000000000000000000000000000000000000000000000000000000000000000",
            "receiptTrie" : "0x56e81f171bcc55a6ff8345e692c0f86e5b48e01b996cadc001622fb5e363b421",
            "stateRoot" : "0x912346d512012405bb5ddae8f424baf4bd82ccd540c5bd07fc1def5ed6b9e0d6",
            "timestamp" : "0x03b6",
            "transactionsTrie" : "0x56e81f171bcc55a6ff8345e692c0f86e5b48e01b996cadc001622fb5e363b421",
            "uncleHash" : "0x1dcc4de8dec75d7aab85b567b6ccd41ad312451b948a7413f0a142fd40d49347"
        },
        "genesisRLP" : "0xf901fcf901f7a00000000000000000000000000000000000000000000000000000000000000000a01dcc4de8dec75d7aab85b567b6ccd41ad312451b948a7413f0a142fd40d49347942adc25665018aa1fe0e6bc666dac8fc2697ff9baa0912346d512012405bb5ddae8f424baf4bd82ccd540c5bd07fc1def5ed6b9e0d6a056e81f171bcc55a6ff8345e692c0f86e5b48e01b996cadc001622fb5e363b421a056e81f171bcc55a6ff8345e692c0f86e5b48e01b996cadc001622fb5e363b421b90100000000000000000000000000000000000000000000000000000000000000000000000000000000000000000000000000000000000000000000000000000000000000000000000000000000000000000000000000000000000000000000000000000000000000000000000000000000000000000000000000000000000000000000000000000000000000000000000000000000000000000000000000000000000000000000000000000000000000000000000000000000000000000000000000000000000000000000000000000000000000000000000000000000000000000000000000000000000000000000000000000000000000000000000000000000008302000080850a00000000808203b642a056e81f171bcc55a6ff8345e692c0f86e5b48e01b996cadc001622fb5e363b421880102030405060708c0c0",
        "lastblockhash" : "0xb6e3feefa0af6b1a78545a73af7c2255d383d78d1cfc04d426e4de1ff2bfc3cb",
        "network" : "EIP150",
        "postState" : {
            "0x0f572e5295c57f15886f9b263e2f6d2d6c7b5ec6" : {
                "balance" : "0x0de0b6b3a764000a",
                "code" : "0x602a61f9e15261f9e15160015559600055",
                "nonce" : "0x00",
                "storage" : {
                    "0x00" : "0xfa20",
                    "0x01" : "0x2a"
                }
            },
            "0x2adc25665018aa1fe0e6bc666dac8fc2697ff9ba" : {
                "balance" : "0x4563918244f5245e",
                "code" : "",
                "nonce" : "0x00",
                "storage" : {
                }
            },
            "0xa94f5374fce5edbc8e2a8697c15331677e6ebf0b" : {
                "balance" : "0x63fffedb98",
                "code" : "",
                "nonce" : "0x01",
                "storage" : {
                }
            }
        },
        "pre" : {
            "0x0f572e5295c57f15886f9b263e2f6d2d6c7b5ec6" : {
                "balance" : "0x0de0b6b3a7640000",
                "code" : "0x602a61f9e15261f9e15160015559600055",
                "nonce" : "0x00",
                "storage" : {
                }
            },
            "0xa94f5374fce5edbc8e2a8697c15331677e6ebf0b" : {
                "balance" : "0x6400000000",
                "code" : "",
                "nonce" : "0x00",
                "storage" : {
                }
            }
        }
    },
    "mem64kb+1_d0g0v0_EIP158" : {
        "_info" : {
            "comment" : "",
            "filledwith" : "cpp-1.3.0+commit.ee0c6776.Linux.g++",
            "lllcversion" : "Version: 0.4.20-develop.2018.2.4+commit.c696803f.Linux.g++",
            "source" : "src/BlockchainTestsFiller/GeneralStateTests/stMemoryTest/mem64kb+1_d0g0v0Filler.json",
            "sourceHash" : "eec89cce4661ed5c4246ab74bba2e95249fd0b5d6fd2c246c9474e4b04e9c20e"
        },
        "blocks" : [
            {
                "blockHeader" : {
                    "bloom" : "0x00000000000000000000000000000000000000000000000000000000000000000000000000000000000000000000000000000000000000000000000000000000000000000000000000000000000000000000000000000000000000000000000000000000000000000000000000000000000000000000000000000000000000000000000000000000000000000000000000000000000000000000000000000000000000000000000000000000000000000000000000000000000000000000000000000000000000000000000000000000000000000000000000000000000000000000000000000000000000000000000000000000000000000000000000000000",
                    "coinbase" : "0x2adc25665018aa1fe0e6bc666dac8fc2697ff9ba",
                    "difficulty" : "0x020000",
                    "extraData" : "",
                    "gasLimit" : "0x0a00000000",
                    "gasUsed" : "0x01245e",
                    "hash" : "0x000c9f2681e98254083e2d2aabf843aaa3063030ebc465a10413eafd25aec73e",
                    "mixHash" : "0x50055e3ab227f6ed614c66d53ca6216f098a544b0b34c08b742bbea4b3c0c205",
                    "nonce" : "0xd1cc5966dff06d6c",
                    "number" : "0x01",
                    "parentHash" : "0x60ce21b454efd648065fde9461e500036ef944bd8148ac35dcbbe719f76a772e",
                    "receiptTrie" : "0x6abe6dc31b2320f9936ba3faf99faf767d0bd331f6fbf2ce4dff832fa7817d27",
                    "stateRoot" : "0x97e32f57500b9cc7d4ac30e3ea929c8bf1c9f53b380b785b3c541ec985dcc6be",
                    "timestamp" : "0x03e8",
                    "transactionsTrie" : "0x579a1a7e0077c790d96eb12a938445003a0f26110320cb2527921bad5605561a",
                    "uncleHash" : "0x1dcc4de8dec75d7aab85b567b6ccd41ad312451b948a7413f0a142fd40d49347"
                },
                "rlp" : "0xf90263f901faa060ce21b454efd648065fde9461e500036ef944bd8148ac35dcbbe719f76a772ea01dcc4de8dec75d7aab85b567b6ccd41ad312451b948a7413f0a142fd40d49347942adc25665018aa1fe0e6bc666dac8fc2697ff9baa097e32f57500b9cc7d4ac30e3ea929c8bf1c9f53b380b785b3c541ec985dcc6bea0579a1a7e0077c790d96eb12a938445003a0f26110320cb2527921bad5605561aa06abe6dc31b2320f9936ba3faf99faf767d0bd331f6fbf2ce4dff832fa7817d27b90100000000000000000000000000000000000000000000000000000000000000000000000000000000000000000000000000000000000000000000000000000000000000000000000000000000000000000000000000000000000000000000000000000000000000000000000000000000000000000000000000000000000000000000000000000000000000000000000000000000000000000000000000000000000000000000000000000000000000000000000000000000000000000000000000000000000000000000000000000000000000000000000000000000000000000000000000000000000000000000000000000000000000000000000000000000008302000001850a000000008301245e8203e880a050055e3ab227f6ed614c66d53ca6216f098a544b0b34c08b742bbea4b3c0c20588d1cc5966dff06d6cf863f86180018450001798940f572e5295c57f15886f9b263e2f6d2d6c7b5ec60a801ba0c368a240875530dbea24d5f971b4ade577a1702ed44b66a0ca6c592986d3d1a7a00534768d31a4befd7cee3b7a73775e16bb1d9aca9ef2e8828286a408a0115978c0",
                "transactions" : [
                    {
                        "data" : "0x",
                        "gasLimit" : "0x50001798",
                        "gasPrice" : "0x01",
                        "nonce" : "0x00",
                        "r" : "0xc368a240875530dbea24d5f971b4ade577a1702ed44b66a0ca6c592986d3d1a7",
                        "s" : "0x0534768d31a4befd7cee3b7a73775e16bb1d9aca9ef2e8828286a408a0115978",
                        "to" : "0x0f572e5295c57f15886f9b263e2f6d2d6c7b5ec6",
                        "v" : "0x1b",
                        "value" : "0x0a"
                    }
                ],
                "uncleHeaders" : [
                ]
            }
        ],
        "genesisBlockHeader" : {
            "bloom" : "0x00000000000000000000000000000000000000000000000000000000000000000000000000000000000000000000000000000000000000000000000000000000000000000000000000000000000000000000000000000000000000000000000000000000000000000000000000000000000000000000000000000000000000000000000000000000000000000000000000000000000000000000000000000000000000000000000000000000000000000000000000000000000000000000000000000000000000000000000000000000000000000000000000000000000000000000000000000000000000000000000000000000000000000000000000000000",
            "coinbase" : "0x2adc25665018aa1fe0e6bc666dac8fc2697ff9ba",
            "difficulty" : "0x020000",
            "extraData" : "0x42",
            "gasLimit" : "0x0a00000000",
            "gasUsed" : "0x00",
            "hash" : "0x60ce21b454efd648065fde9461e500036ef944bd8148ac35dcbbe719f76a772e",
            "mixHash" : "0x56e81f171bcc55a6ff8345e692c0f86e5b48e01b996cadc001622fb5e363b421",
            "nonce" : "0x0102030405060708",
            "number" : "0x00",
            "parentHash" : "0x0000000000000000000000000000000000000000000000000000000000000000",
            "receiptTrie" : "0x56e81f171bcc55a6ff8345e692c0f86e5b48e01b996cadc001622fb5e363b421",
            "stateRoot" : "0x912346d512012405bb5ddae8f424baf4bd82ccd540c5bd07fc1def5ed6b9e0d6",
            "timestamp" : "0x03b6",
            "transactionsTrie" : "0x56e81f171bcc55a6ff8345e692c0f86e5b48e01b996cadc001622fb5e363b421",
            "uncleHash" : "0x1dcc4de8dec75d7aab85b567b6ccd41ad312451b948a7413f0a142fd40d49347"
        },
        "genesisRLP" : "0xf901fcf901f7a00000000000000000000000000000000000000000000000000000000000000000a01dcc4de8dec75d7aab85b567b6ccd41ad312451b948a7413f0a142fd40d49347942adc25665018aa1fe0e6bc666dac8fc2697ff9baa0912346d512012405bb5ddae8f424baf4bd82ccd540c5bd07fc1def5ed6b9e0d6a056e81f171bcc55a6ff8345e692c0f86e5b48e01b996cadc001622fb5e363b421a056e81f171bcc55a6ff8345e692c0f86e5b48e01b996cadc001622fb5e363b421b90100000000000000000000000000000000000000000000000000000000000000000000000000000000000000000000000000000000000000000000000000000000000000000000000000000000000000000000000000000000000000000000000000000000000000000000000000000000000000000000000000000000000000000000000000000000000000000000000000000000000000000000000000000000000000000000000000000000000000000000000000000000000000000000000000000000000000000000000000000000000000000000000000000000000000000000000000000000000000000000000000000000000000000000000000000000008302000080850a00000000808203b642a056e81f171bcc55a6ff8345e692c0f86e5b48e01b996cadc001622fb5e363b421880102030405060708c0c0",
        "lastblockhash" : "0x000c9f2681e98254083e2d2aabf843aaa3063030ebc465a10413eafd25aec73e",
        "network" : "EIP158",
        "postState" : {
            "0x0f572e5295c57f15886f9b263e2f6d2d6c7b5ec6" : {
                "balance" : "0x0de0b6b3a764000a",
                "code" : "0x602a61f9e15261f9e15160015559600055",
                "nonce" : "0x00",
                "storage" : {
                    "0x00" : "0xfa20",
                    "0x01" : "0x2a"
                }
            },
            "0x2adc25665018aa1fe0e6bc666dac8fc2697ff9ba" : {
                "balance" : "0x4563918244f5245e",
                "code" : "",
                "nonce" : "0x00",
                "storage" : {
                }
            },
            "0xa94f5374fce5edbc8e2a8697c15331677e6ebf0b" : {
                "balance" : "0x63fffedb98",
                "code" : "",
                "nonce" : "0x01",
                "storage" : {
                }
            }
        },
        "pre" : {
            "0x0f572e5295c57f15886f9b263e2f6d2d6c7b5ec6" : {
                "balance" : "0x0de0b6b3a7640000",
                "code" : "0x602a61f9e15261f9e15160015559600055",
                "nonce" : "0x00",
                "storage" : {
                }
            },
            "0xa94f5374fce5edbc8e2a8697c15331677e6ebf0b" : {
                "balance" : "0x6400000000",
                "code" : "",
                "nonce" : "0x00",
                "storage" : {
                }
            }
        }
    },
    "mem64kb+1_d0g0v0_Frontier" : {
        "_info" : {
            "comment" : "",
            "filledwith" : "cpp-1.3.0+commit.ee0c6776.Linux.g++",
            "lllcversion" : "Version: 0.4.20-develop.2018.2.4+commit.c696803f.Linux.g++",
            "source" : "src/BlockchainTestsFiller/GeneralStateTests/stMemoryTest/mem64kb+1_d0g0v0Filler.json",
            "sourceHash" : "eec89cce4661ed5c4246ab74bba2e95249fd0b5d6fd2c246c9474e4b04e9c20e"
        },
        "blocks" : [
            {
                "blockHeader" : {
                    "bloom" : "0x00000000000000000000000000000000000000000000000000000000000000000000000000000000000000000000000000000000000000000000000000000000000000000000000000000000000000000000000000000000000000000000000000000000000000000000000000000000000000000000000000000000000000000000000000000000000000000000000000000000000000000000000000000000000000000000000000000000000000000000000000000000000000000000000000000000000000000000000000000000000000000000000000000000000000000000000000000000000000000000000000000000000000000000000000000000",
                    "coinbase" : "0x2adc25665018aa1fe0e6bc666dac8fc2697ff9ba",
                    "difficulty" : "0x020000",
                    "extraData" : "",
                    "gasLimit" : "0x0a00000000",
                    "gasUsed" : "0x01245e",
                    "hash" : "0xabc960bb6510df5a477b708dcabf90464c638978cff8c9146b58ae389dd76e6c",
                    "mixHash" : "0xd6c7655277d31ec00fd550bfa3c7ecec0882b571a69dbcc9d102ac8275f59a20",
                    "nonce" : "0x83c694b5f0ba0784",
                    "number" : "0x01",
                    "parentHash" : "0x60ce21b454efd648065fde9461e500036ef944bd8148ac35dcbbe719f76a772e",
                    "receiptTrie" : "0x6abe6dc31b2320f9936ba3faf99faf767d0bd331f6fbf2ce4dff832fa7817d27",
                    "stateRoot" : "0x97e32f57500b9cc7d4ac30e3ea929c8bf1c9f53b380b785b3c541ec985dcc6be",
                    "timestamp" : "0x03e8",
                    "transactionsTrie" : "0x579a1a7e0077c790d96eb12a938445003a0f26110320cb2527921bad5605561a",
                    "uncleHash" : "0x1dcc4de8dec75d7aab85b567b6ccd41ad312451b948a7413f0a142fd40d49347"
                },
                "rlp" : "0xf90263f901faa060ce21b454efd648065fde9461e500036ef944bd8148ac35dcbbe719f76a772ea01dcc4de8dec75d7aab85b567b6ccd41ad312451b948a7413f0a142fd40d49347942adc25665018aa1fe0e6bc666dac8fc2697ff9baa097e32f57500b9cc7d4ac30e3ea929c8bf1c9f53b380b785b3c541ec985dcc6bea0579a1a7e0077c790d96eb12a938445003a0f26110320cb2527921bad5605561aa06abe6dc31b2320f9936ba3faf99faf767d0bd331f6fbf2ce4dff832fa7817d27b90100000000000000000000000000000000000000000000000000000000000000000000000000000000000000000000000000000000000000000000000000000000000000000000000000000000000000000000000000000000000000000000000000000000000000000000000000000000000000000000000000000000000000000000000000000000000000000000000000000000000000000000000000000000000000000000000000000000000000000000000000000000000000000000000000000000000000000000000000000000000000000000000000000000000000000000000000000000000000000000000000000000000000000000000000000000008302000001850a000000008301245e8203e880a0d6c7655277d31ec00fd550bfa3c7ecec0882b571a69dbcc9d102ac8275f59a208883c694b5f0ba0784f863f86180018450001798940f572e5295c57f15886f9b263e2f6d2d6c7b5ec60a801ba0c368a240875530dbea24d5f971b4ade577a1702ed44b66a0ca6c592986d3d1a7a00534768d31a4befd7cee3b7a73775e16bb1d9aca9ef2e8828286a408a0115978c0",
                "transactions" : [
                    {
                        "data" : "0x",
                        "gasLimit" : "0x50001798",
                        "gasPrice" : "0x01",
                        "nonce" : "0x00",
                        "r" : "0xc368a240875530dbea24d5f971b4ade577a1702ed44b66a0ca6c592986d3d1a7",
                        "s" : "0x0534768d31a4befd7cee3b7a73775e16bb1d9aca9ef2e8828286a408a0115978",
                        "to" : "0x0f572e5295c57f15886f9b263e2f6d2d6c7b5ec6",
                        "v" : "0x1b",
                        "value" : "0x0a"
                    }
                ],
                "uncleHeaders" : [
                ]
            }
        ],
        "genesisBlockHeader" : {
            "bloom" : "0x00000000000000000000000000000000000000000000000000000000000000000000000000000000000000000000000000000000000000000000000000000000000000000000000000000000000000000000000000000000000000000000000000000000000000000000000000000000000000000000000000000000000000000000000000000000000000000000000000000000000000000000000000000000000000000000000000000000000000000000000000000000000000000000000000000000000000000000000000000000000000000000000000000000000000000000000000000000000000000000000000000000000000000000000000000000",
            "coinbase" : "0x2adc25665018aa1fe0e6bc666dac8fc2697ff9ba",
            "difficulty" : "0x020000",
            "extraData" : "0x42",
            "gasLimit" : "0x0a00000000",
            "gasUsed" : "0x00",
            "hash" : "0x60ce21b454efd648065fde9461e500036ef944bd8148ac35dcbbe719f76a772e",
            "mixHash" : "0x56e81f171bcc55a6ff8345e692c0f86e5b48e01b996cadc001622fb5e363b421",
            "nonce" : "0x0102030405060708",
            "number" : "0x00",
            "parentHash" : "0x0000000000000000000000000000000000000000000000000000000000000000",
            "receiptTrie" : "0x56e81f171bcc55a6ff8345e692c0f86e5b48e01b996cadc001622fb5e363b421",
            "stateRoot" : "0x912346d512012405bb5ddae8f424baf4bd82ccd540c5bd07fc1def5ed6b9e0d6",
            "timestamp" : "0x03b6",
            "transactionsTrie" : "0x56e81f171bcc55a6ff8345e692c0f86e5b48e01b996cadc001622fb5e363b421",
            "uncleHash" : "0x1dcc4de8dec75d7aab85b567b6ccd41ad312451b948a7413f0a142fd40d49347"
        },
        "genesisRLP" : "0xf901fcf901f7a00000000000000000000000000000000000000000000000000000000000000000a01dcc4de8dec75d7aab85b567b6ccd41ad312451b948a7413f0a142fd40d49347942adc25665018aa1fe0e6bc666dac8fc2697ff9baa0912346d512012405bb5ddae8f424baf4bd82ccd540c5bd07fc1def5ed6b9e0d6a056e81f171bcc55a6ff8345e692c0f86e5b48e01b996cadc001622fb5e363b421a056e81f171bcc55a6ff8345e692c0f86e5b48e01b996cadc001622fb5e363b421b90100000000000000000000000000000000000000000000000000000000000000000000000000000000000000000000000000000000000000000000000000000000000000000000000000000000000000000000000000000000000000000000000000000000000000000000000000000000000000000000000000000000000000000000000000000000000000000000000000000000000000000000000000000000000000000000000000000000000000000000000000000000000000000000000000000000000000000000000000000000000000000000000000000000000000000000000000000000000000000000000000000000000000000000000000000000008302000080850a00000000808203b642a056e81f171bcc55a6ff8345e692c0f86e5b48e01b996cadc001622fb5e363b421880102030405060708c0c0",
        "lastblockhash" : "0xabc960bb6510df5a477b708dcabf90464c638978cff8c9146b58ae389dd76e6c",
        "network" : "Frontier",
        "postState" : {
            "0x0f572e5295c57f15886f9b263e2f6d2d6c7b5ec6" : {
                "balance" : "0x0de0b6b3a764000a",
                "code" : "0x602a61f9e15261f9e15160015559600055",
                "nonce" : "0x00",
                "storage" : {
                    "0x00" : "0xfa20",
                    "0x01" : "0x2a"
                }
            },
            "0x2adc25665018aa1fe0e6bc666dac8fc2697ff9ba" : {
                "balance" : "0x4563918244f5245e",
                "code" : "",
                "nonce" : "0x00",
                "storage" : {
                }
            },
            "0xa94f5374fce5edbc8e2a8697c15331677e6ebf0b" : {
                "balance" : "0x63fffedb98",
                "code" : "",
                "nonce" : "0x01",
                "storage" : {
                }
            }
        },
        "pre" : {
            "0x0f572e5295c57f15886f9b263e2f6d2d6c7b5ec6" : {
                "balance" : "0x0de0b6b3a7640000",
                "code" : "0x602a61f9e15261f9e15160015559600055",
                "nonce" : "0x00",
                "storage" : {
                }
            },
            "0xa94f5374fce5edbc8e2a8697c15331677e6ebf0b" : {
                "balance" : "0x6400000000",
                "code" : "",
                "nonce" : "0x00",
                "storage" : {
                }
            }
        }
    },
    "mem64kb+1_d0g0v0_Homestead" : {
        "_info" : {
            "comment" : "",
            "filledwith" : "cpp-1.3.0+commit.ee0c6776.Linux.g++",
            "lllcversion" : "Version: 0.4.20-develop.2018.2.4+commit.c696803f.Linux.g++",
            "source" : "src/BlockchainTestsFiller/GeneralStateTests/stMemoryTest/mem64kb+1_d0g0v0Filler.json",
            "sourceHash" : "eec89cce4661ed5c4246ab74bba2e95249fd0b5d6fd2c246c9474e4b04e9c20e"
        },
        "blocks" : [
            {
                "blockHeader" : {
                    "bloom" : "0x00000000000000000000000000000000000000000000000000000000000000000000000000000000000000000000000000000000000000000000000000000000000000000000000000000000000000000000000000000000000000000000000000000000000000000000000000000000000000000000000000000000000000000000000000000000000000000000000000000000000000000000000000000000000000000000000000000000000000000000000000000000000000000000000000000000000000000000000000000000000000000000000000000000000000000000000000000000000000000000000000000000000000000000000000000000",
                    "coinbase" : "0x2adc25665018aa1fe0e6bc666dac8fc2697ff9ba",
                    "difficulty" : "0x020000",
                    "extraData" : "",
                    "gasLimit" : "0x0a00000000",
                    "gasUsed" : "0x01245e",
                    "hash" : "0xebf9942c02518464459ba8a563c4a24b897e65c065812042931bcc268c0ea14f",
                    "mixHash" : "0xcfb90bdbda0090ce0822ad28826bd5a950bb3911df6d0678dd39487a7eef36b3",
                    "nonce" : "0x8770bc44c458e2cb",
                    "number" : "0x01",
                    "parentHash" : "0x60ce21b454efd648065fde9461e500036ef944bd8148ac35dcbbe719f76a772e",
                    "receiptTrie" : "0x6abe6dc31b2320f9936ba3faf99faf767d0bd331f6fbf2ce4dff832fa7817d27",
                    "stateRoot" : "0x97e32f57500b9cc7d4ac30e3ea929c8bf1c9f53b380b785b3c541ec985dcc6be",
                    "timestamp" : "0x03e8",
                    "transactionsTrie" : "0x579a1a7e0077c790d96eb12a938445003a0f26110320cb2527921bad5605561a",
                    "uncleHash" : "0x1dcc4de8dec75d7aab85b567b6ccd41ad312451b948a7413f0a142fd40d49347"
                },
                "rlp" : "0xf90263f901faa060ce21b454efd648065fde9461e500036ef944bd8148ac35dcbbe719f76a772ea01dcc4de8dec75d7aab85b567b6ccd41ad312451b948a7413f0a142fd40d49347942adc25665018aa1fe0e6bc666dac8fc2697ff9baa097e32f57500b9cc7d4ac30e3ea929c8bf1c9f53b380b785b3c541ec985dcc6bea0579a1a7e0077c790d96eb12a938445003a0f26110320cb2527921bad5605561aa06abe6dc31b2320f9936ba3faf99faf767d0bd331f6fbf2ce4dff832fa7817d27b90100000000000000000000000000000000000000000000000000000000000000000000000000000000000000000000000000000000000000000000000000000000000000000000000000000000000000000000000000000000000000000000000000000000000000000000000000000000000000000000000000000000000000000000000000000000000000000000000000000000000000000000000000000000000000000000000000000000000000000000000000000000000000000000000000000000000000000000000000000000000000000000000000000000000000000000000000000000000000000000000000000000000000000000000000000000008302000001850a000000008301245e8203e880a0cfb90bdbda0090ce0822ad28826bd5a950bb3911df6d0678dd39487a7eef36b3888770bc44c458e2cbf863f86180018450001798940f572e5295c57f15886f9b263e2f6d2d6c7b5ec60a801ba0c368a240875530dbea24d5f971b4ade577a1702ed44b66a0ca6c592986d3d1a7a00534768d31a4befd7cee3b7a73775e16bb1d9aca9ef2e8828286a408a0115978c0",
                "transactions" : [
                    {
                        "data" : "0x",
                        "gasLimit" : "0x50001798",
                        "gasPrice" : "0x01",
                        "nonce" : "0x00",
                        "r" : "0xc368a240875530dbea24d5f971b4ade577a1702ed44b66a0ca6c592986d3d1a7",
                        "s" : "0x0534768d31a4befd7cee3b7a73775e16bb1d9aca9ef2e8828286a408a0115978",
                        "to" : "0x0f572e5295c57f15886f9b263e2f6d2d6c7b5ec6",
                        "v" : "0x1b",
                        "value" : "0x0a"
                    }
                ],
                "uncleHeaders" : [
                ]
            }
        ],
        "genesisBlockHeader" : {
            "bloom" : "0x00000000000000000000000000000000000000000000000000000000000000000000000000000000000000000000000000000000000000000000000000000000000000000000000000000000000000000000000000000000000000000000000000000000000000000000000000000000000000000000000000000000000000000000000000000000000000000000000000000000000000000000000000000000000000000000000000000000000000000000000000000000000000000000000000000000000000000000000000000000000000000000000000000000000000000000000000000000000000000000000000000000000000000000000000000000",
            "coinbase" : "0x2adc25665018aa1fe0e6bc666dac8fc2697ff9ba",
            "difficulty" : "0x020000",
            "extraData" : "0x42",
            "gasLimit" : "0x0a00000000",
            "gasUsed" : "0x00",
            "hash" : "0x60ce21b454efd648065fde9461e500036ef944bd8148ac35dcbbe719f76a772e",
            "mixHash" : "0x56e81f171bcc55a6ff8345e692c0f86e5b48e01b996cadc001622fb5e363b421",
            "nonce" : "0x0102030405060708",
            "number" : "0x00",
            "parentHash" : "0x0000000000000000000000000000000000000000000000000000000000000000",
            "receiptTrie" : "0x56e81f171bcc55a6ff8345e692c0f86e5b48e01b996cadc001622fb5e363b421",
            "stateRoot" : "0x912346d512012405bb5ddae8f424baf4bd82ccd540c5bd07fc1def5ed6b9e0d6",
            "timestamp" : "0x03b6",
            "transactionsTrie" : "0x56e81f171bcc55a6ff8345e692c0f86e5b48e01b996cadc001622fb5e363b421",
            "uncleHash" : "0x1dcc4de8dec75d7aab85b567b6ccd41ad312451b948a7413f0a142fd40d49347"
        },
        "genesisRLP" : "0xf901fcf901f7a00000000000000000000000000000000000000000000000000000000000000000a01dcc4de8dec75d7aab85b567b6ccd41ad312451b948a7413f0a142fd40d49347942adc25665018aa1fe0e6bc666dac8fc2697ff9baa0912346d512012405bb5ddae8f424baf4bd82ccd540c5bd07fc1def5ed6b9e0d6a056e81f171bcc55a6ff8345e692c0f86e5b48e01b996cadc001622fb5e363b421a056e81f171bcc55a6ff8345e692c0f86e5b48e01b996cadc001622fb5e363b421b90100000000000000000000000000000000000000000000000000000000000000000000000000000000000000000000000000000000000000000000000000000000000000000000000000000000000000000000000000000000000000000000000000000000000000000000000000000000000000000000000000000000000000000000000000000000000000000000000000000000000000000000000000000000000000000000000000000000000000000000000000000000000000000000000000000000000000000000000000000000000000000000000000000000000000000000000000000000000000000000000000000000000000000000000000000000008302000080850a00000000808203b642a056e81f171bcc55a6ff8345e692c0f86e5b48e01b996cadc001622fb5e363b421880102030405060708c0c0",
        "lastblockhash" : "0xebf9942c02518464459ba8a563c4a24b897e65c065812042931bcc268c0ea14f",
        "network" : "Homestead",
        "postState" : {
            "0x0f572e5295c57f15886f9b263e2f6d2d6c7b5ec6" : {
                "balance" : "0x0de0b6b3a764000a",
                "code" : "0x602a61f9e15261f9e15160015559600055",
                "nonce" : "0x00",
                "storage" : {
                    "0x00" : "0xfa20",
                    "0x01" : "0x2a"
                }
            },
            "0x2adc25665018aa1fe0e6bc666dac8fc2697ff9ba" : {
                "balance" : "0x4563918244f5245e",
                "code" : "",
                "nonce" : "0x00",
                "storage" : {
                }
            },
            "0xa94f5374fce5edbc8e2a8697c15331677e6ebf0b" : {
                "balance" : "0x63fffedb98",
                "code" : "",
                "nonce" : "0x01",
                "storage" : {
                }
            }
        },
        "pre" : {
            "0x0f572e5295c57f15886f9b263e2f6d2d6c7b5ec6" : {
                "balance" : "0x0de0b6b3a7640000",
                "code" : "0x602a61f9e15261f9e15160015559600055",
                "nonce" : "0x00",
                "storage" : {
                }
            },
            "0xa94f5374fce5edbc8e2a8697c15331677e6ebf0b" : {
                "balance" : "0x6400000000",
                "code" : "",
                "nonce" : "0x00",
                "storage" : {
                }
            }
        }
    }
}