{
    "mem64kb-1_d0g0v0_EIP150" : {
        "_info" : {
            "comment" : "",
            "filledwith" : "cpp-1.3.0+commit.16292201.Linux.g++",
            "source" : "/src/GenStateTestAsBcTemp/stMemoryTest/mem64kb-1_d0g0v0Filler.json"
        },
        "blocks" : [
            {
                "blockHeader" : {
                    "bloom" : "0x00000000000000000000000000000000000000000000000000000000000000000000000000000000000000000000000000000000000000000000000000000000000000000000000000000000000000000000000000000000000000000000000000000000000000000000000000000000000000000000000000000000000000000000000000000000000000000000000000000000000000000000000000000000000000000000000000000000000000000000000000000000000000000000000000000000000000000000000000000000000000000000000000000000000000000000000000000000000000000000000000000000000000000000000000000000",
                    "coinbase" : "0x2adc25665018aa1fe0e6bc666dac8fc2697ff9ba",
                    "difficulty" : "0x020000",
                    "extraData" : "",
                    "gasLimit" : "0x0a00000000",
                    "gasUsed" : "0x012453",
                    "hash" : "0xf793aa502e613173af9c52c92e0d09aa320566f4e2f5d90fa75db0f72c3c07d1",
                    "mixHash" : "0x0e09e93f7bd371936d9843f5e9f34f251d0ff80511bacbe1dc54ad95a7b6cd8d",
                    "nonce" : "0x5ff4b1f1cbb793de",
                    "number" : "0x01",
                    "parentHash" : "0x9f7687c8325bd820914789f8eca2e6ebb9a1769cda1e49359d330459020d257b",
                    "receiptTrie" : "0xfd15623205a074ec87bf2d344d41a8d3962635d7974abdad01089614ba0a545e",
                    "stateRoot" : "0xc259299cbb230d2fae614c2e0314898e5e35a68ac7efc49fb5d30284ce442fcd",
                    "timestamp" : "0x03e8",
                    "transactionsTrie" : "0x81fcf490a12db64308a606cefa3e261e0854f8da7873d95e3ba2b97106d08e03",
                    "uncleHash" : "0x1dcc4de8dec75d7aab85b567b6ccd41ad312451b948a7413f0a142fd40d49347"
                },
                "rlp" : "0xf90263f901faa09f7687c8325bd820914789f8eca2e6ebb9a1769cda1e49359d330459020d257ba01dcc4de8dec75d7aab85b567b6ccd41ad312451b948a7413f0a142fd40d49347942adc25665018aa1fe0e6bc666dac8fc2697ff9baa0c259299cbb230d2fae614c2e0314898e5e35a68ac7efc49fb5d30284ce442fcda081fcf490a12db64308a606cefa3e261e0854f8da7873d95e3ba2b97106d08e03a0fd15623205a074ec87bf2d344d41a8d3962635d7974abdad01089614ba0a545eb90100000000000000000000000000000000000000000000000000000000000000000000000000000000000000000000000000000000000000000000000000000000000000000000000000000000000000000000000000000000000000000000000000000000000000000000000000000000000000000000000000000000000000000000000000000000000000000000000000000000000000000000000000000000000000000000000000000000000000000000000000000000000000000000000000000000000000000000000000000000000000000000000000000000000000000000000000000000000000000000000000000000000000000000000000000000008302000001850a00000000830124538203e880a00e09e93f7bd371936d9843f5e9f34f251d0ff80511bacbe1dc54ad95a7b6cd8d885ff4b1f1cbb793def863f861800184500018d8940f572e5295c57f15886f9b263e2f6d2d6c7b5ec60a801ba0a273bb9d7691b348937e6cc7b3d9c883f49c558ebf1962950ed380bfce169699a051e8cbfad048e722025f7b223eb5400ba6f5df788691add661a5ab8d6cdb2bffc0",
                "transactions" : [
                    {
                        "data" : "",
                        "gasLimit" : "0x500018d8",
                        "gasPrice" : "0x01",
                        "nonce" : "0x00",
                        "r" : "0xa273bb9d7691b348937e6cc7b3d9c883f49c558ebf1962950ed380bfce169699",
                        "s" : "0x51e8cbfad048e722025f7b223eb5400ba6f5df788691add661a5ab8d6cdb2bff",
                        "to" : "0x0f572e5295c57f15886f9b263e2f6d2d6c7b5ec6",
                        "v" : "0x1b",
                        "value" : "0x0a"
                    }
                ],
                "uncleHeaders" : [
                ]
            }
        ],
        "genesisBlockHeader" : {
            "bloom" : "0x00000000000000000000000000000000000000000000000000000000000000000000000000000000000000000000000000000000000000000000000000000000000000000000000000000000000000000000000000000000000000000000000000000000000000000000000000000000000000000000000000000000000000000000000000000000000000000000000000000000000000000000000000000000000000000000000000000000000000000000000000000000000000000000000000000000000000000000000000000000000000000000000000000000000000000000000000000000000000000000000000000000000000000000000000000000",
            "coinbase" : "0x2adc25665018aa1fe0e6bc666dac8fc2697ff9ba",
            "difficulty" : "0x020000",
            "extraData" : "0x42",
            "gasLimit" : "0x0a00000000",
            "gasUsed" : "0x00",
            "hash" : "0x9f7687c8325bd820914789f8eca2e6ebb9a1769cda1e49359d330459020d257b",
            "mixHash" : "0x56e81f171bcc55a6ff8345e692c0f86e5b48e01b996cadc001622fb5e363b421",
            "nonce" : "0x0102030405060708",
            "number" : "0x00",
            "parentHash" : "0x0000000000000000000000000000000000000000000000000000000000000000",
            "receiptTrie" : "0x56e81f171bcc55a6ff8345e692c0f86e5b48e01b996cadc001622fb5e363b421",
            "stateRoot" : "0x786a36863271963422488c2b98bbd16164736ef67f7e781975c0c55d6238abb1",
            "timestamp" : "0x03b6",
            "transactionsTrie" : "0x56e81f171bcc55a6ff8345e692c0f86e5b48e01b996cadc001622fb5e363b421",
            "uncleHash" : "0x1dcc4de8dec75d7aab85b567b6ccd41ad312451b948a7413f0a142fd40d49347"
        },
        "genesisRLP" : "0xf901fcf901f7a00000000000000000000000000000000000000000000000000000000000000000a01dcc4de8dec75d7aab85b567b6ccd41ad312451b948a7413f0a142fd40d49347942adc25665018aa1fe0e6bc666dac8fc2697ff9baa0786a36863271963422488c2b98bbd16164736ef67f7e781975c0c55d6238abb1a056e81f171bcc55a6ff8345e692c0f86e5b48e01b996cadc001622fb5e363b421a056e81f171bcc55a6ff8345e692c0f86e5b48e01b996cadc001622fb5e363b421b90100000000000000000000000000000000000000000000000000000000000000000000000000000000000000000000000000000000000000000000000000000000000000000000000000000000000000000000000000000000000000000000000000000000000000000000000000000000000000000000000000000000000000000000000000000000000000000000000000000000000000000000000000000000000000000000000000000000000000000000000000000000000000000000000000000000000000000000000000000000000000000000000000000000000000000000000000000000000000000000000000000000000000000000000000000000008302000080850a00000000808203b642a056e81f171bcc55a6ff8345e692c0f86e5b48e01b996cadc001622fb5e363b421880102030405060708c0c0",
        "lastblockhash" : "0xf793aa502e613173af9c52c92e0d09aa320566f4e2f5d90fa75db0f72c3c07d1",
        "network" : "EIP150",
        "postState" : {
            "0x0f572e5295c57f15886f9b263e2f6d2d6c7b5ec6" : {
                "balance" : "0x0de0b6b3a764000a",
                "code" : "0x602a61f9df5261f9df5160015559600055",
                "nonce" : "0x00",
                "storage" : {
                    "0x00" : "0xfa00",
                    "0x01" : "0x2a"
                }
            },
            "0x2adc25665018aa1fe0e6bc666dac8fc2697ff9ba" : {
                "balance" : "0x4563918244f52453",
                "code" : "",
                "nonce" : "0x00",
                "storage" : {
                }
            },
            "0xa94f5374fce5edbc8e2a8697c15331677e6ebf0b" : {
                "balance" : "0x63fffedba3",
                "code" : "",
                "nonce" : "0x01",
                "storage" : {
                }
            }
        },
        "pre" : {
            "0x0f572e5295c57f15886f9b263e2f6d2d6c7b5ec6" : {
                "balance" : "0x0de0b6b3a7640000",
                "code" : "0x602a61f9df5261f9df5160015559600055",
                "nonce" : "0x00",
                "storage" : {
                }
            },
            "0xa94f5374fce5edbc8e2a8697c15331677e6ebf0b" : {
                "balance" : "0x6400000000",
                "code" : "",
                "nonce" : "0x00",
                "storage" : {
                }
            }
        }
    },
    "mem64kb-1_d0g0v0_EIP158" : {
        "_info" : {
            "comment" : "",
            "filledwith" : "cpp-1.3.0+commit.16292201.Linux.g++",
            "source" : "/src/GenStateTestAsBcTemp/stMemoryTest/mem64kb-1_d0g0v0Filler.json"
        },
        "blocks" : [
            {
                "blockHeader" : {
                    "bloom" : "0x00000000000000000000000000000000000000000000000000000000000000000000000000000000000000000000000000000000000000000000000000000000000000000000000000000000000000000000000000000000000000000000000000000000000000000000000000000000000000000000000000000000000000000000000000000000000000000000000000000000000000000000000000000000000000000000000000000000000000000000000000000000000000000000000000000000000000000000000000000000000000000000000000000000000000000000000000000000000000000000000000000000000000000000000000000000",
                    "coinbase" : "0x2adc25665018aa1fe0e6bc666dac8fc2697ff9ba",
                    "difficulty" : "0x020000",
                    "extraData" : "",
                    "gasLimit" : "0x0a00000000",
                    "gasUsed" : "0x012453",
                    "hash" : "0xf224f6685b39de8cecc881063d3fe561042c7b385f854e7228de85cbf62e43d5",
                    "mixHash" : "0x0198dcc7856c94589ffcb4077cf39bf712f03fc3e4a1f340a8452d3a87b318ea",
                    "nonce" : "0xdbbbf33eef2aafa1",
                    "number" : "0x01",
                    "parentHash" : "0x9f7687c8325bd820914789f8eca2e6ebb9a1769cda1e49359d330459020d257b",
                    "receiptTrie" : "0xfd15623205a074ec87bf2d344d41a8d3962635d7974abdad01089614ba0a545e",
                    "stateRoot" : "0xc259299cbb230d2fae614c2e0314898e5e35a68ac7efc49fb5d30284ce442fcd",
                    "timestamp" : "0x03e8",
                    "transactionsTrie" : "0x81fcf490a12db64308a606cefa3e261e0854f8da7873d95e3ba2b97106d08e03",
                    "uncleHash" : "0x1dcc4de8dec75d7aab85b567b6ccd41ad312451b948a7413f0a142fd40d49347"
                },
                "rlp" : "0xf90263f901faa09f7687c8325bd820914789f8eca2e6ebb9a1769cda1e49359d330459020d257ba01dcc4de8dec75d7aab85b567b6ccd41ad312451b948a7413f0a142fd40d49347942adc25665018aa1fe0e6bc666dac8fc2697ff9baa0c259299cbb230d2fae614c2e0314898e5e35a68ac7efc49fb5d30284ce442fcda081fcf490a12db64308a606cefa3e261e0854f8da7873d95e3ba2b97106d08e03a0fd15623205a074ec87bf2d344d41a8d3962635d7974abdad01089614ba0a545eb90100000000000000000000000000000000000000000000000000000000000000000000000000000000000000000000000000000000000000000000000000000000000000000000000000000000000000000000000000000000000000000000000000000000000000000000000000000000000000000000000000000000000000000000000000000000000000000000000000000000000000000000000000000000000000000000000000000000000000000000000000000000000000000000000000000000000000000000000000000000000000000000000000000000000000000000000000000000000000000000000000000000000000000000000000000000008302000001850a00000000830124538203e880a00198dcc7856c94589ffcb4077cf39bf712f03fc3e4a1f340a8452d3a87b318ea88dbbbf33eef2aafa1f863f861800184500018d8940f572e5295c57f15886f9b263e2f6d2d6c7b5ec60a801ba0a273bb9d7691b348937e6cc7b3d9c883f49c558ebf1962950ed380bfce169699a051e8cbfad048e722025f7b223eb5400ba6f5df788691add661a5ab8d6cdb2bffc0",
                "transactions" : [
                    {
                        "data" : "",
                        "gasLimit" : "0x500018d8",
                        "gasPrice" : "0x01",
                        "nonce" : "0x00",
                        "r" : "0xa273bb9d7691b348937e6cc7b3d9c883f49c558ebf1962950ed380bfce169699",
                        "s" : "0x51e8cbfad048e722025f7b223eb5400ba6f5df788691add661a5ab8d6cdb2bff",
                        "to" : "0x0f572e5295c57f15886f9b263e2f6d2d6c7b5ec6",
                        "v" : "0x1b",
                        "value" : "0x0a"
                    }
                ],
                "uncleHeaders" : [
                ]
            }
        ],
        "genesisBlockHeader" : {
            "bloom" : "0x00000000000000000000000000000000000000000000000000000000000000000000000000000000000000000000000000000000000000000000000000000000000000000000000000000000000000000000000000000000000000000000000000000000000000000000000000000000000000000000000000000000000000000000000000000000000000000000000000000000000000000000000000000000000000000000000000000000000000000000000000000000000000000000000000000000000000000000000000000000000000000000000000000000000000000000000000000000000000000000000000000000000000000000000000000000",
            "coinbase" : "0x2adc25665018aa1fe0e6bc666dac8fc2697ff9ba",
            "difficulty" : "0x020000",
            "extraData" : "0x42",
            "gasLimit" : "0x0a00000000",
            "gasUsed" : "0x00",
            "hash" : "0x9f7687c8325bd820914789f8eca2e6ebb9a1769cda1e49359d330459020d257b",
            "mixHash" : "0x56e81f171bcc55a6ff8345e692c0f86e5b48e01b996cadc001622fb5e363b421",
            "nonce" : "0x0102030405060708",
            "number" : "0x00",
            "parentHash" : "0x0000000000000000000000000000000000000000000000000000000000000000",
            "receiptTrie" : "0x56e81f171bcc55a6ff8345e692c0f86e5b48e01b996cadc001622fb5e363b421",
            "stateRoot" : "0x786a36863271963422488c2b98bbd16164736ef67f7e781975c0c55d6238abb1",
            "timestamp" : "0x03b6",
            "transactionsTrie" : "0x56e81f171bcc55a6ff8345e692c0f86e5b48e01b996cadc001622fb5e363b421",
            "uncleHash" : "0x1dcc4de8dec75d7aab85b567b6ccd41ad312451b948a7413f0a142fd40d49347"
        },
        "genesisRLP" : "0xf901fcf901f7a00000000000000000000000000000000000000000000000000000000000000000a01dcc4de8dec75d7aab85b567b6ccd41ad312451b948a7413f0a142fd40d49347942adc25665018aa1fe0e6bc666dac8fc2697ff9baa0786a36863271963422488c2b98bbd16164736ef67f7e781975c0c55d6238abb1a056e81f171bcc55a6ff8345e692c0f86e5b48e01b996cadc001622fb5e363b421a056e81f171bcc55a6ff8345e692c0f86e5b48e01b996cadc001622fb5e363b421b90100000000000000000000000000000000000000000000000000000000000000000000000000000000000000000000000000000000000000000000000000000000000000000000000000000000000000000000000000000000000000000000000000000000000000000000000000000000000000000000000000000000000000000000000000000000000000000000000000000000000000000000000000000000000000000000000000000000000000000000000000000000000000000000000000000000000000000000000000000000000000000000000000000000000000000000000000000000000000000000000000000000000000000000000000000000008302000080850a00000000808203b642a056e81f171bcc55a6ff8345e692c0f86e5b48e01b996cadc001622fb5e363b421880102030405060708c0c0",
        "lastblockhash" : "0xf224f6685b39de8cecc881063d3fe561042c7b385f854e7228de85cbf62e43d5",
        "network" : "EIP158",
        "postState" : {
            "0x0f572e5295c57f15886f9b263e2f6d2d6c7b5ec6" : {
                "balance" : "0x0de0b6b3a764000a",
                "code" : "0x602a61f9df5261f9df5160015559600055",
                "nonce" : "0x00",
                "storage" : {
                    "0x00" : "0xfa00",
                    "0x01" : "0x2a"
                }
            },
            "0x2adc25665018aa1fe0e6bc666dac8fc2697ff9ba" : {
                "balance" : "0x4563918244f52453",
                "code" : "",
                "nonce" : "0x00",
                "storage" : {
                }
            },
            "0xa94f5374fce5edbc8e2a8697c15331677e6ebf0b" : {
                "balance" : "0x63fffedba3",
                "code" : "",
                "nonce" : "0x01",
                "storage" : {
                }
            }
        },
        "pre" : {
            "0x0f572e5295c57f15886f9b263e2f6d2d6c7b5ec6" : {
                "balance" : "0x0de0b6b3a7640000",
                "code" : "0x602a61f9df5261f9df5160015559600055",
                "nonce" : "0x00",
                "storage" : {
                }
            },
            "0xa94f5374fce5edbc8e2a8697c15331677e6ebf0b" : {
                "balance" : "0x6400000000",
                "code" : "",
                "nonce" : "0x00",
                "storage" : {
                }
            }
        }
    },
    "mem64kb-1_d0g0v0_Frontier" : {
        "_info" : {
            "comment" : "",
            "filledwith" : "cpp-1.3.0+commit.16292201.Linux.g++",
            "source" : "/src/GenStateTestAsBcTemp/stMemoryTest/mem64kb-1_d0g0v0Filler.json"
        },
        "blocks" : [
            {
                "blockHeader" : {
                    "bloom" : "0x00000000000000000000000000000000000000000000000000000000000000000000000000000000000000000000000000000000000000000000000000000000000000000000000000000000000000000000000000000000000000000000000000000000000000000000000000000000000000000000000000000000000000000000000000000000000000000000000000000000000000000000000000000000000000000000000000000000000000000000000000000000000000000000000000000000000000000000000000000000000000000000000000000000000000000000000000000000000000000000000000000000000000000000000000000000",
                    "coinbase" : "0x2adc25665018aa1fe0e6bc666dac8fc2697ff9ba",
                    "difficulty" : "0x020000",
                    "extraData" : "",
                    "gasLimit" : "0x0a00000000",
                    "gasUsed" : "0x012453",
                    "hash" : "0x399095e65bde60aa665139fc2ad696b36e86f1687af6624837814453a69139a1",
                    "mixHash" : "0x54aee0deb645e79a245ffadfc87a79c7a561155ac2bfb97b817dadfcfb5eb59a",
                    "nonce" : "0xde8ce5606b02535f",
                    "number" : "0x01",
                    "parentHash" : "0x9f7687c8325bd820914789f8eca2e6ebb9a1769cda1e49359d330459020d257b",
                    "receiptTrie" : "0xfd15623205a074ec87bf2d344d41a8d3962635d7974abdad01089614ba0a545e",
                    "stateRoot" : "0xc259299cbb230d2fae614c2e0314898e5e35a68ac7efc49fb5d30284ce442fcd",
                    "timestamp" : "0x03e8",
                    "transactionsTrie" : "0x81fcf490a12db64308a606cefa3e261e0854f8da7873d95e3ba2b97106d08e03",
                    "uncleHash" : "0x1dcc4de8dec75d7aab85b567b6ccd41ad312451b948a7413f0a142fd40d49347"
                },
                "rlp" : "0xf90263f901faa09f7687c8325bd820914789f8eca2e6ebb9a1769cda1e49359d330459020d257ba01dcc4de8dec75d7aab85b567b6ccd41ad312451b948a7413f0a142fd40d49347942adc25665018aa1fe0e6bc666dac8fc2697ff9baa0c259299cbb230d2fae614c2e0314898e5e35a68ac7efc49fb5d30284ce442fcda081fcf490a12db64308a606cefa3e261e0854f8da7873d95e3ba2b97106d08e03a0fd15623205a074ec87bf2d344d41a8d3962635d7974abdad01089614ba0a545eb90100000000000000000000000000000000000000000000000000000000000000000000000000000000000000000000000000000000000000000000000000000000000000000000000000000000000000000000000000000000000000000000000000000000000000000000000000000000000000000000000000000000000000000000000000000000000000000000000000000000000000000000000000000000000000000000000000000000000000000000000000000000000000000000000000000000000000000000000000000000000000000000000000000000000000000000000000000000000000000000000000000000000000000000000000000000008302000001850a00000000830124538203e880a054aee0deb645e79a245ffadfc87a79c7a561155ac2bfb97b817dadfcfb5eb59a88de8ce5606b02535ff863f861800184500018d8940f572e5295c57f15886f9b263e2f6d2d6c7b5ec60a801ba0a273bb9d7691b348937e6cc7b3d9c883f49c558ebf1962950ed380bfce169699a051e8cbfad048e722025f7b223eb5400ba6f5df788691add661a5ab8d6cdb2bffc0",
                "transactions" : [
                    {
                        "data" : "",
                        "gasLimit" : "0x500018d8",
                        "gasPrice" : "0x01",
                        "nonce" : "0x00",
                        "r" : "0xa273bb9d7691b348937e6cc7b3d9c883f49c558ebf1962950ed380bfce169699",
                        "s" : "0x51e8cbfad048e722025f7b223eb5400ba6f5df788691add661a5ab8d6cdb2bff",
                        "to" : "0x0f572e5295c57f15886f9b263e2f6d2d6c7b5ec6",
                        "v" : "0x1b",
                        "value" : "0x0a"
                    }
                ],
                "uncleHeaders" : [
                ]
            }
        ],
        "genesisBlockHeader" : {
            "bloom" : "0x00000000000000000000000000000000000000000000000000000000000000000000000000000000000000000000000000000000000000000000000000000000000000000000000000000000000000000000000000000000000000000000000000000000000000000000000000000000000000000000000000000000000000000000000000000000000000000000000000000000000000000000000000000000000000000000000000000000000000000000000000000000000000000000000000000000000000000000000000000000000000000000000000000000000000000000000000000000000000000000000000000000000000000000000000000000",
            "coinbase" : "0x2adc25665018aa1fe0e6bc666dac8fc2697ff9ba",
            "difficulty" : "0x020000",
            "extraData" : "0x42",
            "gasLimit" : "0x0a00000000",
            "gasUsed" : "0x00",
            "hash" : "0x9f7687c8325bd820914789f8eca2e6ebb9a1769cda1e49359d330459020d257b",
            "mixHash" : "0x56e81f171bcc55a6ff8345e692c0f86e5b48e01b996cadc001622fb5e363b421",
            "nonce" : "0x0102030405060708",
            "number" : "0x00",
            "parentHash" : "0x0000000000000000000000000000000000000000000000000000000000000000",
            "receiptTrie" : "0x56e81f171bcc55a6ff8345e692c0f86e5b48e01b996cadc001622fb5e363b421",
            "stateRoot" : "0x786a36863271963422488c2b98bbd16164736ef67f7e781975c0c55d6238abb1",
            "timestamp" : "0x03b6",
            "transactionsTrie" : "0x56e81f171bcc55a6ff8345e692c0f86e5b48e01b996cadc001622fb5e363b421",
            "uncleHash" : "0x1dcc4de8dec75d7aab85b567b6ccd41ad312451b948a7413f0a142fd40d49347"
        },
        "genesisRLP" : "0xf901fcf901f7a00000000000000000000000000000000000000000000000000000000000000000a01dcc4de8dec75d7aab85b567b6ccd41ad312451b948a7413f0a142fd40d49347942adc25665018aa1fe0e6bc666dac8fc2697ff9baa0786a36863271963422488c2b98bbd16164736ef67f7e781975c0c55d6238abb1a056e81f171bcc55a6ff8345e692c0f86e5b48e01b996cadc001622fb5e363b421a056e81f171bcc55a6ff8345e692c0f86e5b48e01b996cadc001622fb5e363b421b90100000000000000000000000000000000000000000000000000000000000000000000000000000000000000000000000000000000000000000000000000000000000000000000000000000000000000000000000000000000000000000000000000000000000000000000000000000000000000000000000000000000000000000000000000000000000000000000000000000000000000000000000000000000000000000000000000000000000000000000000000000000000000000000000000000000000000000000000000000000000000000000000000000000000000000000000000000000000000000000000000000000000000000000000000000000008302000080850a00000000808203b642a056e81f171bcc55a6ff8345e692c0f86e5b48e01b996cadc001622fb5e363b421880102030405060708c0c0",
        "lastblockhash" : "0x399095e65bde60aa665139fc2ad696b36e86f1687af6624837814453a69139a1",
        "network" : "Frontier",
        "postState" : {
            "0x0f572e5295c57f15886f9b263e2f6d2d6c7b5ec6" : {
                "balance" : "0x0de0b6b3a764000a",
                "code" : "0x602a61f9df5261f9df5160015559600055",
                "nonce" : "0x00",
                "storage" : {
                    "0x00" : "0xfa00",
                    "0x01" : "0x2a"
                }
            },
            "0x2adc25665018aa1fe0e6bc666dac8fc2697ff9ba" : {
                "balance" : "0x4563918244f52453",
                "code" : "",
                "nonce" : "0x00",
                "storage" : {
                }
            },
            "0xa94f5374fce5edbc8e2a8697c15331677e6ebf0b" : {
                "balance" : "0x63fffedba3",
                "code" : "",
                "nonce" : "0x01",
                "storage" : {
                }
            }
        },
        "pre" : {
            "0x0f572e5295c57f15886f9b263e2f6d2d6c7b5ec6" : {
                "balance" : "0x0de0b6b3a7640000",
                "code" : "0x602a61f9df5261f9df5160015559600055",
                "nonce" : "0x00",
                "storage" : {
                }
            },
            "0xa94f5374fce5edbc8e2a8697c15331677e6ebf0b" : {
                "balance" : "0x6400000000",
                "code" : "",
                "nonce" : "0x00",
                "storage" : {
                }
            }
        }
    },
    "mem64kb-1_d0g0v0_Homestead" : {
        "_info" : {
            "comment" : "",
            "filledwith" : "cpp-1.3.0+commit.16292201.Linux.g++",
            "source" : "/src/GenStateTestAsBcTemp/stMemoryTest/mem64kb-1_d0g0v0Filler.json"
        },
        "blocks" : [
            {
                "blockHeader" : {
                    "bloom" : "0x00000000000000000000000000000000000000000000000000000000000000000000000000000000000000000000000000000000000000000000000000000000000000000000000000000000000000000000000000000000000000000000000000000000000000000000000000000000000000000000000000000000000000000000000000000000000000000000000000000000000000000000000000000000000000000000000000000000000000000000000000000000000000000000000000000000000000000000000000000000000000000000000000000000000000000000000000000000000000000000000000000000000000000000000000000000",
                    "coinbase" : "0x2adc25665018aa1fe0e6bc666dac8fc2697ff9ba",
                    "difficulty" : "0x020000",
                    "extraData" : "",
                    "gasLimit" : "0x0a00000000",
                    "gasUsed" : "0x012453",
                    "hash" : "0x99042fbe780674aba87ff6f73e86add1e8e8071a233c9d69c1717747452cb542",
                    "mixHash" : "0xb15bb98e95d227c25c23327f0981cbccd9057f37fceee15b12a3a5eecc3ce9bb",
                    "nonce" : "0x57ee8da73dd4e5db",
                    "number" : "0x01",
                    "parentHash" : "0x9f7687c8325bd820914789f8eca2e6ebb9a1769cda1e49359d330459020d257b",
                    "receiptTrie" : "0xfd15623205a074ec87bf2d344d41a8d3962635d7974abdad01089614ba0a545e",
                    "stateRoot" : "0xc259299cbb230d2fae614c2e0314898e5e35a68ac7efc49fb5d30284ce442fcd",
                    "timestamp" : "0x03e8",
                    "transactionsTrie" : "0x81fcf490a12db64308a606cefa3e261e0854f8da7873d95e3ba2b97106d08e03",
                    "uncleHash" : "0x1dcc4de8dec75d7aab85b567b6ccd41ad312451b948a7413f0a142fd40d49347"
                },
                "rlp" : "0xf90263f901faa09f7687c8325bd820914789f8eca2e6ebb9a1769cda1e49359d330459020d257ba01dcc4de8dec75d7aab85b567b6ccd41ad312451b948a7413f0a142fd40d49347942adc25665018aa1fe0e6bc666dac8fc2697ff9baa0c259299cbb230d2fae614c2e0314898e5e35a68ac7efc49fb5d30284ce442fcda081fcf490a12db64308a606cefa3e261e0854f8da7873d95e3ba2b97106d08e03a0fd15623205a074ec87bf2d344d41a8d3962635d7974abdad01089614ba0a545eb90100000000000000000000000000000000000000000000000000000000000000000000000000000000000000000000000000000000000000000000000000000000000000000000000000000000000000000000000000000000000000000000000000000000000000000000000000000000000000000000000000000000000000000000000000000000000000000000000000000000000000000000000000000000000000000000000000000000000000000000000000000000000000000000000000000000000000000000000000000000000000000000000000000000000000000000000000000000000000000000000000000000000000000000000000000000008302000001850a00000000830124538203e880a0b15bb98e95d227c25c23327f0981cbccd9057f37fceee15b12a3a5eecc3ce9bb8857ee8da73dd4e5dbf863f861800184500018d8940f572e5295c57f15886f9b263e2f6d2d6c7b5ec60a801ba0a273bb9d7691b348937e6cc7b3d9c883f49c558ebf1962950ed380bfce169699a051e8cbfad048e722025f7b223eb5400ba6f5df788691add661a5ab8d6cdb2bffc0",
                "transactions" : [
                    {
                        "data" : "",
                        "gasLimit" : "0x500018d8",
                        "gasPrice" : "0x01",
                        "nonce" : "0x00",
                        "r" : "0xa273bb9d7691b348937e6cc7b3d9c883f49c558ebf1962950ed380bfce169699",
                        "s" : "0x51e8cbfad048e722025f7b223eb5400ba6f5df788691add661a5ab8d6cdb2bff",
                        "to" : "0x0f572e5295c57f15886f9b263e2f6d2d6c7b5ec6",
                        "v" : "0x1b",
                        "value" : "0x0a"
                    }
                ],
                "uncleHeaders" : [
                ]
            }
        ],
        "genesisBlockHeader" : {
            "bloom" : "0x00000000000000000000000000000000000000000000000000000000000000000000000000000000000000000000000000000000000000000000000000000000000000000000000000000000000000000000000000000000000000000000000000000000000000000000000000000000000000000000000000000000000000000000000000000000000000000000000000000000000000000000000000000000000000000000000000000000000000000000000000000000000000000000000000000000000000000000000000000000000000000000000000000000000000000000000000000000000000000000000000000000000000000000000000000000",
            "coinbase" : "0x2adc25665018aa1fe0e6bc666dac8fc2697ff9ba",
            "difficulty" : "0x020000",
            "extraData" : "0x42",
            "gasLimit" : "0x0a00000000",
            "gasUsed" : "0x00",
            "hash" : "0x9f7687c8325bd820914789f8eca2e6ebb9a1769cda1e49359d330459020d257b",
            "mixHash" : "0x56e81f171bcc55a6ff8345e692c0f86e5b48e01b996cadc001622fb5e363b421",
            "nonce" : "0x0102030405060708",
            "number" : "0x00",
            "parentHash" : "0x0000000000000000000000000000000000000000000000000000000000000000",
            "receiptTrie" : "0x56e81f171bcc55a6ff8345e692c0f86e5b48e01b996cadc001622fb5e363b421",
            "stateRoot" : "0x786a36863271963422488c2b98bbd16164736ef67f7e781975c0c55d6238abb1",
            "timestamp" : "0x03b6",
            "transactionsTrie" : "0x56e81f171bcc55a6ff8345e692c0f86e5b48e01b996cadc001622fb5e363b421",
            "uncleHash" : "0x1dcc4de8dec75d7aab85b567b6ccd41ad312451b948a7413f0a142fd40d49347"
        },
        "genesisRLP" : "0xf901fcf901f7a00000000000000000000000000000000000000000000000000000000000000000a01dcc4de8dec75d7aab85b567b6ccd41ad312451b948a7413f0a142fd40d49347942adc25665018aa1fe0e6bc666dac8fc2697ff9baa0786a36863271963422488c2b98bbd16164736ef67f7e781975c0c55d6238abb1a056e81f171bcc55a6ff8345e692c0f86e5b48e01b996cadc001622fb5e363b421a056e81f171bcc55a6ff8345e692c0f86e5b48e01b996cadc001622fb5e363b421b90100000000000000000000000000000000000000000000000000000000000000000000000000000000000000000000000000000000000000000000000000000000000000000000000000000000000000000000000000000000000000000000000000000000000000000000000000000000000000000000000000000000000000000000000000000000000000000000000000000000000000000000000000000000000000000000000000000000000000000000000000000000000000000000000000000000000000000000000000000000000000000000000000000000000000000000000000000000000000000000000000000000000000000000000000000000008302000080850a00000000808203b642a056e81f171bcc55a6ff8345e692c0f86e5b48e01b996cadc001622fb5e363b421880102030405060708c0c0",
        "lastblockhash" : "0x99042fbe780674aba87ff6f73e86add1e8e8071a233c9d69c1717747452cb542",
        "network" : "Homestead",
        "postState" : {
            "0x0f572e5295c57f15886f9b263e2f6d2d6c7b5ec6" : {
                "balance" : "0x0de0b6b3a764000a",
                "code" : "0x602a61f9df5261f9df5160015559600055",
                "nonce" : "0x00",
                "storage" : {
                    "0x00" : "0xfa00",
                    "0x01" : "0x2a"
                }
            },
            "0x2adc25665018aa1fe0e6bc666dac8fc2697ff9ba" : {
                "balance" : "0x4563918244f52453",
                "code" : "",
                "nonce" : "0x00",
                "storage" : {
                }
            },
            "0xa94f5374fce5edbc8e2a8697c15331677e6ebf0b" : {
                "balance" : "0x63fffedba3",
                "code" : "",
                "nonce" : "0x01",
                "storage" : {
                }
            }
        },
        "pre" : {
            "0x0f572e5295c57f15886f9b263e2f6d2d6c7b5ec6" : {
                "balance" : "0x0de0b6b3a7640000",
                "code" : "0x602a61f9df5261f9df5160015559600055",
                "nonce" : "0x00",
                "storage" : {
                }
            },
            "0xa94f5374fce5edbc8e2a8697c15331677e6ebf0b" : {
                "balance" : "0x6400000000",
                "code" : "",
                "nonce" : "0x00",
                "storage" : {
                }
            }
        }
    },
    "mem64kb-1_d0g0v0_Metropolis" : {
        "_info" : {
            "comment" : "",
            "filledwith" : "cpp-1.3.0+commit.16292201.Linux.g++",
            "source" : "/src/GenStateTestAsBcTemp/stMemoryTest/mem64kb-1_d0g0v0Filler.json"
        },
        "blocks" : [
            {
                "blockHeader" : {
                    "bloom" : "0x00000000000000000000000000000000000000000000000000000000000000000000000000000000000000000000000000000000000000000000000000000000000000000000000000000000000000000000000000000000000000000000000000000000000000000000000000000000000000000000000000000000000000000000000000000000000000000000000000000000000000000000000000000000000000000000000000000000000000000000000000000000000000000000000000000000000000000000000000000000000000000000000000000000000000000000000000000000000000000000000000000000000000000000000000000000",
                    "coinbase" : "0x2adc25665018aa1fe0e6bc666dac8fc2697ff9ba",
                    "difficulty" : "0x020000",
                    "extraData" : "",
                    "gasLimit" : "0x0a00000000",
                    "gasUsed" : "0x012453",
                    "hash" : "0x5442893d5626e9aa58f72c81a7538cb6372aaa41a9d4daed1d8455d29aa40167",
                    "mixHash" : "0x171b6066bf4e1cc1975a6e0109f351d58b83eb2a2514a5e14dccf158fdfdc000",
                    "nonce" : "0x5bb6b19589959e68",
                    "number" : "0x01",
                    "parentHash" : "0x9f7687c8325bd820914789f8eca2e6ebb9a1769cda1e49359d330459020d257b",
                    "receiptTrie" : "0x0f147df50ae9e0dc7aaa1448a0a9f64e14e1671b76eed6f6c5662c826f992002",
                    "stateRoot" : "0xd126afd5a461f5d13a8141f620ff903f80a727a33aa3c08ec33ea2cbca636e57",
                    "timestamp" : "0x03e8",
                    "transactionsTrie" : "0x81fcf490a12db64308a606cefa3e261e0854f8da7873d95e3ba2b97106d08e03",
                    "uncleHash" : "0x1dcc4de8dec75d7aab85b567b6ccd41ad312451b948a7413f0a142fd40d49347"
                },
                "rlp" : "0xf90263f901faa09f7687c8325bd820914789f8eca2e6ebb9a1769cda1e49359d330459020d257ba01dcc4de8dec75d7aab85b567b6ccd41ad312451b948a7413f0a142fd40d49347942adc25665018aa1fe0e6bc666dac8fc2697ff9baa0d126afd5a461f5d13a8141f620ff903f80a727a33aa3c08ec33ea2cbca636e57a081fcf490a12db64308a606cefa3e261e0854f8da7873d95e3ba2b97106d08e03a00f147df50ae9e0dc7aaa1448a0a9f64e14e1671b76eed6f6c5662c826f992002b90100000000000000000000000000000000000000000000000000000000000000000000000000000000000000000000000000000000000000000000000000000000000000000000000000000000000000000000000000000000000000000000000000000000000000000000000000000000000000000000000000000000000000000000000000000000000000000000000000000000000000000000000000000000000000000000000000000000000000000000000000000000000000000000000000000000000000000000000000000000000000000000000000000000000000000000000000000000000000000000000000000000000000000000000000000000008302000001850a00000000830124538203e880a0171b6066bf4e1cc1975a6e0109f351d58b83eb2a2514a5e14dccf158fdfdc000885bb6b19589959e68f863f861800184500018d8940f572e5295c57f15886f9b263e2f6d2d6c7b5ec60a801ba0a273bb9d7691b348937e6cc7b3d9c883f49c558ebf1962950ed380bfce169699a051e8cbfad048e722025f7b223eb5400ba6f5df788691add661a5ab8d6cdb2bffc0",
                "transactions" : [
                    {
                        "data" : "",
                        "gasLimit" : "0x500018d8",
                        "gasPrice" : "0x01",
                        "nonce" : "0x00",
                        "r" : "0xa273bb9d7691b348937e6cc7b3d9c883f49c558ebf1962950ed380bfce169699",
                        "s" : "0x51e8cbfad048e722025f7b223eb5400ba6f5df788691add661a5ab8d6cdb2bff",
                        "to" : "0x0f572e5295c57f15886f9b263e2f6d2d6c7b5ec6",
                        "v" : "0x1b",
                        "value" : "0x0a"
                    }
                ],
                "uncleHeaders" : [
                ]
            }
        ],
        "genesisBlockHeader" : {
            "bloom" : "0x00000000000000000000000000000000000000000000000000000000000000000000000000000000000000000000000000000000000000000000000000000000000000000000000000000000000000000000000000000000000000000000000000000000000000000000000000000000000000000000000000000000000000000000000000000000000000000000000000000000000000000000000000000000000000000000000000000000000000000000000000000000000000000000000000000000000000000000000000000000000000000000000000000000000000000000000000000000000000000000000000000000000000000000000000000000",
            "coinbase" : "0x2adc25665018aa1fe0e6bc666dac8fc2697ff9ba",
            "difficulty" : "0x020000",
            "extraData" : "0x42",
            "gasLimit" : "0x0a00000000",
            "gasUsed" : "0x00",
            "hash" : "0x9f7687c8325bd820914789f8eca2e6ebb9a1769cda1e49359d330459020d257b",
            "mixHash" : "0x56e81f171bcc55a6ff8345e692c0f86e5b48e01b996cadc001622fb5e363b421",
            "nonce" : "0x0102030405060708",
            "number" : "0x00",
            "parentHash" : "0x0000000000000000000000000000000000000000000000000000000000000000",
            "receiptTrie" : "0x56e81f171bcc55a6ff8345e692c0f86e5b48e01b996cadc001622fb5e363b421",
            "stateRoot" : "0x786a36863271963422488c2b98bbd16164736ef67f7e781975c0c55d6238abb1",
            "timestamp" : "0x03b6",
            "transactionsTrie" : "0x56e81f171bcc55a6ff8345e692c0f86e5b48e01b996cadc001622fb5e363b421",
            "uncleHash" : "0x1dcc4de8dec75d7aab85b567b6ccd41ad312451b948a7413f0a142fd40d49347"
        },
        "genesisRLP" : "0xf901fcf901f7a00000000000000000000000000000000000000000000000000000000000000000a01dcc4de8dec75d7aab85b567b6ccd41ad312451b948a7413f0a142fd40d49347942adc25665018aa1fe0e6bc666dac8fc2697ff9baa0786a36863271963422488c2b98bbd16164736ef67f7e781975c0c55d6238abb1a056e81f171bcc55a6ff8345e692c0f86e5b48e01b996cadc001622fb5e363b421a056e81f171bcc55a6ff8345e692c0f86e5b48e01b996cadc001622fb5e363b421b90100000000000000000000000000000000000000000000000000000000000000000000000000000000000000000000000000000000000000000000000000000000000000000000000000000000000000000000000000000000000000000000000000000000000000000000000000000000000000000000000000000000000000000000000000000000000000000000000000000000000000000000000000000000000000000000000000000000000000000000000000000000000000000000000000000000000000000000000000000000000000000000000000000000000000000000000000000000000000000000000000000000000000000000000000000000008302000080850a00000000808203b642a056e81f171bcc55a6ff8345e692c0f86e5b48e01b996cadc001622fb5e363b421880102030405060708c0c0",
        "lastblockhash" : "0x5442893d5626e9aa58f72c81a7538cb6372aaa41a9d4daed1d8455d29aa40167",
        "network" : "Metropolis",
        "postState" : {
            "0x00000000000000000000000000000000000000f0" : {
                "balance" : "0x00",
                "code" : "",
                "nonce" : "0x00",
                "storage" : {
                }
            },
            "0x0f572e5295c57f15886f9b263e2f6d2d6c7b5ec6" : {
                "balance" : "0x0de0b6b3a764000a",
                "code" : "0x602a61f9df5261f9df5160015559600055",
                "nonce" : "0x00",
                "storage" : {
                    "0x00" : "0xfa00",
                    "0x01" : "0x2a"
                }
            },
            "0x2adc25665018aa1fe0e6bc666dac8fc2697ff9ba" : {
                "balance" : "0x4563918244f52453",
                "code" : "",
                "nonce" : "0x00",
                "storage" : {
                }
            },
            "0xa94f5374fce5edbc8e2a8697c15331677e6ebf0b" : {
                "balance" : "0x63fffedba3",
                "code" : "",
                "nonce" : "0x01",
                "storage" : {
                }
            }
        },
        "pre" : {
            "0x0f572e5295c57f15886f9b263e2f6d2d6c7b5ec6" : {
                "balance" : "0x0de0b6b3a7640000",
                "code" : "0x602a61f9df5261f9df5160015559600055",
                "nonce" : "0x00",
                "storage" : {
                }
            },
            "0xa94f5374fce5edbc8e2a8697c15331677e6ebf0b" : {
                "balance" : "0x6400000000",
                "code" : "",
                "nonce" : "0x00",
                "storage" : {
                }
            }
        }
    }
}