{
    "callcallcodecallcode_011_d0g0v0_EIP150" : {
        "blocks" : [
            {
                "blockHeader" : {
                    "bloom" : "00000000000000000000000000000000000000000000000000000000000000000000000000000000000000000000000000000000000000000000000000000000000000000000000000000000000000000000000000000000000000000000000000000000000000000000000000000000000000000000000000000000000000000000000000000000000000000000000000000000000000000000000000000000000000000000000000000000000000000000000000000000000000000000000000000000000000000000000000000000000000000000000000000000000000000000000000000000000000000000000000000000000000000000000000000000",
                    "coinbase" : "2adc25665018aa1fe0e6bc666dac8fc2697ff9ba",
                    "difficulty" : "0x020000",
                    "extraData" : "0x",
                    "gasLimit" : "0x01c95111",
                    "gasUsed" : "0x03d045",
                    "hash" : "9573d5d89c97223703f70e9171fee3e7e5709461ebb62e61af8ed9fa11a453bc",
                    "mixHash" : "ca22e285eb7bbc2b7488e5ee8a1a2bfb6048594690d0ad9228ef45496c6dbaa9",
                    "nonce" : "047916578e61c6a0",
                    "number" : "0x01",
                    "parentHash" : "1dc72875e4587137ffddd83d7f020228b1f9bdf5294f2b7a5f0735706323e212",
                    "receiptTrie" : "126b238ee879405e899033e94bcadee7544feeebb2b45522950c07e1e77407fa",
                    "stateRoot" : "32c26afb50dd3e88862868514d9cf51fe62809eb86a481212d09c6cafd99585f",
                    "timestamp" : "0x5891fc52",
                    "transactionsTrie" : "5d88595a2b9f129f2901f79a207ca2d95f38ac387707e6cb1de43679d06079d4",
                    "uncleHash" : "1dcc4de8dec75d7aab85b567b6ccd41ad312451b948a7413f0a142fd40d49347"
                },
                "rlp" : "0xf90263f901fba01dc72875e4587137ffddd83d7f020228b1f9bdf5294f2b7a5f0735706323e212a01dcc4de8dec75d7aab85b567b6ccd41ad312451b948a7413f0a142fd40d49347942adc25665018aa1fe0e6bc666dac8fc2697ff9baa032c26afb50dd3e88862868514d9cf51fe62809eb86a481212d09c6cafd99585fa05d88595a2b9f129f2901f79a207ca2d95f38ac387707e6cb1de43679d06079d4a0126b238ee879405e899033e94bcadee7544feeebb2b45522950c07e1e77407fab901000000000000000000000000000000000000000000000000000000000000000000000000000000000000000000000000000000000000000000000000000000000000000000000000000000000000000000000000000000000000000000000000000000000000000000000000000000000000000000000000000000000000000000000000000000000000000000000000000000000000000000000000000000000000000000000000000000000000000000000000000000000000000000000000000000000000000000000000000000000000000000000000000000000000000000000000000000000000000000000000000000000000000000000000000000000083020000018401c951118303d045845891fc5280a0ca22e285eb7bbc2b7488e5ee8a1a2bfb6048594690d0ad9228ef45496c6dbaa988047916578e61c6a0f862f8608001832dc6c094100000000000000000000000000000000000000080801ba0bc3f717090c5b3d46550833ec05cc91a3c352bd18be2c0eed5ed3e54e8af58f9a03a7d01021289eca372726c91175e4f422da3147bd3961cd66ca95f1cf3619fb2c0",
                "transactions" : [
                    {
                        "data" : "0x",
                        "gasLimit" : "0x2dc6c0",
                        "gasPrice" : "0x01",
                        "nonce" : "0x00",
                        "r" : "0xbc3f717090c5b3d46550833ec05cc91a3c352bd18be2c0eed5ed3e54e8af58f9",
                        "s" : "0x3a7d01021289eca372726c91175e4f422da3147bd3961cd66ca95f1cf3619fb2",
                        "to" : "1000000000000000000000000000000000000000",
                        "v" : "0x1b",
                        "value" : "0x00"
                    }
                ],
                "uncleHeaders" : [
                ]
            }
        ],
        "genesisBlockHeader" : {
            "bloom" : "00000000000000000000000000000000000000000000000000000000000000000000000000000000000000000000000000000000000000000000000000000000000000000000000000000000000000000000000000000000000000000000000000000000000000000000000000000000000000000000000000000000000000000000000000000000000000000000000000000000000000000000000000000000000000000000000000000000000000000000000000000000000000000000000000000000000000000000000000000000000000000000000000000000000000000000000000000000000000000000000000000000000000000000000000000000",
            "coinbase" : "2adc25665018aa1fe0e6bc666dac8fc2697ff9ba",
            "difficulty" : "0x020000",
            "extraData" : "0x42",
            "gasLimit" : "0x01c9c380",
            "gasUsed" : "0x00",
            "hash" : "1dc72875e4587137ffddd83d7f020228b1f9bdf5294f2b7a5f0735706323e212",
            "mixHash" : "56e81f171bcc55a6ff8345e692c0f86e5b48e01b996cadc001622fb5e363b421",
            "nonce" : "0102030405060708",
            "number" : "0x00",
            "parentHash" : "0000000000000000000000000000000000000000000000000000000000000000",
            "receiptTrie" : "56e81f171bcc55a6ff8345e692c0f86e5b48e01b996cadc001622fb5e363b421",
            "stateRoot" : "1f1cb928d992e3cd8628a99eba79ce9c982c5fa27d8bcd128b517959f11cfc08",
            "timestamp" : "0x54c98c81",
            "transactionsTrie" : "56e81f171bcc55a6ff8345e692c0f86e5b48e01b996cadc001622fb5e363b421",
            "uncleHash" : "1dcc4de8dec75d7aab85b567b6ccd41ad312451b948a7413f0a142fd40d49347"
        },
        "genesisRLP" : "0xf901fdf901f8a00000000000000000000000000000000000000000000000000000000000000000a01dcc4de8dec75d7aab85b567b6ccd41ad312451b948a7413f0a142fd40d49347942adc25665018aa1fe0e6bc666dac8fc2697ff9baa01f1cb928d992e3cd8628a99eba79ce9c982c5fa27d8bcd128b517959f11cfc08a056e81f171bcc55a6ff8345e692c0f86e5b48e01b996cadc001622fb5e363b421a056e81f171bcc55a6ff8345e692c0f86e5b48e01b996cadc001622fb5e363b421b901000000000000000000000000000000000000000000000000000000000000000000000000000000000000000000000000000000000000000000000000000000000000000000000000000000000000000000000000000000000000000000000000000000000000000000000000000000000000000000000000000000000000000000000000000000000000000000000000000000000000000000000000000000000000000000000000000000000000000000000000000000000000000000000000000000000000000000000000000000000000000000000000000000000000000000000000000000000000000000000000000000000000000000000000000000000083020000808401c9c380808454c98c8142a056e81f171bcc55a6ff8345e692c0f86e5b48e01b996cadc001622fb5e363b421880102030405060708c0c0",
        "lastblockhash" : "9573d5d89c97223703f70e9171fee3e7e5709461ebb62e61af8ed9fa11a453bc",
        "network" : "EIP150",
        "postState" : {
            "1000000000000000000000000000000000000000" : {
                "balance" : "0x0de0b6b3a763ffff",
                "code" : "0x6040600060406000600173100000000000000000000000000000000000000162055730f1600055",
                "nonce" : "0x00",
                "storage" : {
                    "0x00" : "0x01"
                }
            },
            "1000000000000000000000000000000000000001" : {
                "balance" : "0x0de0b6b3a7640001",
                "code" : "0x6040600060406000731000000000000000000000000000000000000002620493e0f4600155",
                "nonce" : "0x00",
                "storage" : {
                    "0x01" : "0x01",
                    "0x014a" : "0x1000000000000000000000000000000000000001",
                    "0x014c" : "0xa94f5374fce5edbc8e2a8697c15331677e6ebf0b",
                    "0x0150" : "0x40",
                    "0x0152" : "0x26",
                    "0x0154" : "0x01",
                    "0x02" : "0x01",
                    "0x03" : "0x01",
                    "0x04" : "0x1000000000000000000000000000000000000000",
                    "0x07" : "0x01"
                }
            },
            "1000000000000000000000000000000000000002" : {
                "balance" : "0x0de0b6b3a7640000",
                "code" : "0x60406000604060007310000000000000000000000000000000000000036203d090f4600255",
                "nonce" : "0x00",
                "storage" : {
                }
            },
            "1000000000000000000000000000000000000003" : {
                "balance" : "0x00",
                "code" : "0x600160035533600455346007553061014a553261014c55366101505538610152553a61015455",
                "nonce" : "0x00",
                "storage" : {
                }
            },
            "2adc25665018aa1fe0e6bc666dac8fc2697ff9ba" : {
                "balance" : "0x4563918244f7d045",
                "code" : "0x",
                "nonce" : "0x00",
                "storage" : {
                }
            },
            "a94f5374fce5edbc8e2a8697c15331677e6ebf0b" : {
                "balance" : "0x0de0b6b3a7602fbb",
                "code" : "0x",
                "nonce" : "0x01",
                "storage" : {
                }
            }
        },
        "pre" : {
            "1000000000000000000000000000000000000000" : {
                "balance" : "0x0de0b6b3a7640000",
                "code" : "0x6040600060406000600173100000000000000000000000000000000000000162055730f1600055",
                "nonce" : "0x00",
                "storage" : {
                }
            },
            "1000000000000000000000000000000000000001" : {
                "balance" : "0x0de0b6b3a7640000",
                "code" : "0x6040600060406000731000000000000000000000000000000000000002620493e0f4600155",
                "nonce" : "0x00",
                "storage" : {
                }
            },
            "1000000000000000000000000000000000000002" : {
                "balance" : "0x0de0b6b3a7640000",
                "code" : "0x60406000604060007310000000000000000000000000000000000000036203d090f4600255",
                "nonce" : "0x00",
                "storage" : {
                }
            },
            "1000000000000000000000000000000000000003" : {
                "balance" : "0x00",
                "code" : "0x600160035533600455346007553061014a553261014c55366101505538610152553a61015455",
                "nonce" : "0x00",
                "storage" : {
                }
            },
            "a94f5374fce5edbc8e2a8697c15331677e6ebf0b" : {
                "balance" : "0x0de0b6b3a7640000",
                "code" : "0x",
                "nonce" : "0x00",
                "storage" : {
                }
            }
        }
    },
    "callcallcodecallcode_011_d0g0v0_EIP158" : {
        "blocks" : [
            {
                "blockHeader" : {
                    "bloom" : "00000000000000000000000000000000000000000000000000000000000000000000000000000000000000000000000000000000000000000000000000000000000000000000000000000000000000000000000000000000000000000000000000000000000000000000000000000000000000000000000000000000000000000000000000000000000000000000000000000000000000000000000000000000000000000000000000000000000000000000000000000000000000000000000000000000000000000000000000000000000000000000000000000000000000000000000000000000000000000000000000000000000000000000000000000000",
                    "coinbase" : "2adc25665018aa1fe0e6bc666dac8fc2697ff9ba",
                    "difficulty" : "0x020000",
                    "extraData" : "0x",
                    "gasLimit" : "0x01c95111",
                    "gasUsed" : "0x03d045",
                    "hash" : "5b0ee59ef9013381362d12a39a0e1d33e082bc84c88a1d8634ed0b60017c92d7",
                    "mixHash" : "e136186c4c9ade997deef82971543e6ac04f4cbf872119a712a1a15f17ff9c31",
                    "nonce" : "0e998591afc18be2",
                    "number" : "0x01",
                    "parentHash" : "1dc72875e4587137ffddd83d7f020228b1f9bdf5294f2b7a5f0735706323e212",
                    "receiptTrie" : "126b238ee879405e899033e94bcadee7544feeebb2b45522950c07e1e77407fa",
                    "stateRoot" : "32c26afb50dd3e88862868514d9cf51fe62809eb86a481212d09c6cafd99585f",
                    "timestamp" : "0x5891fc54",
                    "transactionsTrie" : "5d88595a2b9f129f2901f79a207ca2d95f38ac387707e6cb1de43679d06079d4",
                    "uncleHash" : "1dcc4de8dec75d7aab85b567b6ccd41ad312451b948a7413f0a142fd40d49347"
                },
                "rlp" : "0xf90263f901fba01dc72875e4587137ffddd83d7f020228b1f9bdf5294f2b7a5f0735706323e212a01dcc4de8dec75d7aab85b567b6ccd41ad312451b948a7413f0a142fd40d49347942adc25665018aa1fe0e6bc666dac8fc2697ff9baa032c26afb50dd3e88862868514d9cf51fe62809eb86a481212d09c6cafd99585fa05d88595a2b9f129f2901f79a207ca2d95f38ac387707e6cb1de43679d06079d4a0126b238ee879405e899033e94bcadee7544feeebb2b45522950c07e1e77407fab901000000000000000000000000000000000000000000000000000000000000000000000000000000000000000000000000000000000000000000000000000000000000000000000000000000000000000000000000000000000000000000000000000000000000000000000000000000000000000000000000000000000000000000000000000000000000000000000000000000000000000000000000000000000000000000000000000000000000000000000000000000000000000000000000000000000000000000000000000000000000000000000000000000000000000000000000000000000000000000000000000000000000000000000000000000000083020000018401c951118303d045845891fc5480a0e136186c4c9ade997deef82971543e6ac04f4cbf872119a712a1a15f17ff9c31880e998591afc18be2f862f8608001832dc6c094100000000000000000000000000000000000000080801ba0bc3f717090c5b3d46550833ec05cc91a3c352bd18be2c0eed5ed3e54e8af58f9a03a7d01021289eca372726c91175e4f422da3147bd3961cd66ca95f1cf3619fb2c0",
                "transactions" : [
                    {
                        "data" : "0x",
                        "gasLimit" : "0x2dc6c0",
                        "gasPrice" : "0x01",
                        "nonce" : "0x00",
                        "r" : "0xbc3f717090c5b3d46550833ec05cc91a3c352bd18be2c0eed5ed3e54e8af58f9",
                        "s" : "0x3a7d01021289eca372726c91175e4f422da3147bd3961cd66ca95f1cf3619fb2",
                        "to" : "1000000000000000000000000000000000000000",
                        "v" : "0x1b",
                        "value" : "0x00"
                    }
                ],
                "uncleHeaders" : [
                ]
            }
        ],
        "genesisBlockHeader" : {
            "bloom" : "00000000000000000000000000000000000000000000000000000000000000000000000000000000000000000000000000000000000000000000000000000000000000000000000000000000000000000000000000000000000000000000000000000000000000000000000000000000000000000000000000000000000000000000000000000000000000000000000000000000000000000000000000000000000000000000000000000000000000000000000000000000000000000000000000000000000000000000000000000000000000000000000000000000000000000000000000000000000000000000000000000000000000000000000000000000",
            "coinbase" : "2adc25665018aa1fe0e6bc666dac8fc2697ff9ba",
            "difficulty" : "0x020000",
            "extraData" : "0x42",
            "gasLimit" : "0x01c9c380",
            "gasUsed" : "0x00",
            "hash" : "1dc72875e4587137ffddd83d7f020228b1f9bdf5294f2b7a5f0735706323e212",
            "mixHash" : "56e81f171bcc55a6ff8345e692c0f86e5b48e01b996cadc001622fb5e363b421",
            "nonce" : "0102030405060708",
            "number" : "0x00",
            "parentHash" : "0000000000000000000000000000000000000000000000000000000000000000",
            "receiptTrie" : "56e81f171bcc55a6ff8345e692c0f86e5b48e01b996cadc001622fb5e363b421",
            "stateRoot" : "1f1cb928d992e3cd8628a99eba79ce9c982c5fa27d8bcd128b517959f11cfc08",
            "timestamp" : "0x54c98c81",
            "transactionsTrie" : "56e81f171bcc55a6ff8345e692c0f86e5b48e01b996cadc001622fb5e363b421",
            "uncleHash" : "1dcc4de8dec75d7aab85b567b6ccd41ad312451b948a7413f0a142fd40d49347"
        },
        "genesisRLP" : "0xf901fdf901f8a00000000000000000000000000000000000000000000000000000000000000000a01dcc4de8dec75d7aab85b567b6ccd41ad312451b948a7413f0a142fd40d49347942adc25665018aa1fe0e6bc666dac8fc2697ff9baa01f1cb928d992e3cd8628a99eba79ce9c982c5fa27d8bcd128b517959f11cfc08a056e81f171bcc55a6ff8345e692c0f86e5b48e01b996cadc001622fb5e363b421a056e81f171bcc55a6ff8345e692c0f86e5b48e01b996cadc001622fb5e363b421b901000000000000000000000000000000000000000000000000000000000000000000000000000000000000000000000000000000000000000000000000000000000000000000000000000000000000000000000000000000000000000000000000000000000000000000000000000000000000000000000000000000000000000000000000000000000000000000000000000000000000000000000000000000000000000000000000000000000000000000000000000000000000000000000000000000000000000000000000000000000000000000000000000000000000000000000000000000000000000000000000000000000000000000000000000000000083020000808401c9c380808454c98c8142a056e81f171bcc55a6ff8345e692c0f86e5b48e01b996cadc001622fb5e363b421880102030405060708c0c0",
        "lastblockhash" : "5b0ee59ef9013381362d12a39a0e1d33e082bc84c88a1d8634ed0b60017c92d7",
        "network" : "EIP158",
        "postState" : {
            "1000000000000000000000000000000000000000" : {
                "balance" : "0x0de0b6b3a763ffff",
                "code" : "0x6040600060406000600173100000000000000000000000000000000000000162055730f1600055",
                "nonce" : "0x00",
                "storage" : {
                    "0x00" : "0x01"
                }
            },
            "1000000000000000000000000000000000000001" : {
                "balance" : "0x0de0b6b3a7640001",
                "code" : "0x6040600060406000731000000000000000000000000000000000000002620493e0f4600155",
                "nonce" : "0x00",
                "storage" : {
                    "0x01" : "0x01",
                    "0x014a" : "0x1000000000000000000000000000000000000001",
                    "0x014c" : "0xa94f5374fce5edbc8e2a8697c15331677e6ebf0b",
                    "0x0150" : "0x40",
                    "0x0152" : "0x26",
                    "0x0154" : "0x01",
                    "0x02" : "0x01",
                    "0x03" : "0x01",
                    "0x04" : "0x1000000000000000000000000000000000000000",
                    "0x07" : "0x01"
                }
            },
            "1000000000000000000000000000000000000002" : {
                "balance" : "0x0de0b6b3a7640000",
                "code" : "0x60406000604060007310000000000000000000000000000000000000036203d090f4600255",
                "nonce" : "0x00",
                "storage" : {
                }
            },
            "1000000000000000000000000000000000000003" : {
                "balance" : "0x00",
                "code" : "0x600160035533600455346007553061014a553261014c55366101505538610152553a61015455",
                "nonce" : "0x00",
                "storage" : {
                }
            },
            "2adc25665018aa1fe0e6bc666dac8fc2697ff9ba" : {
                "balance" : "0x4563918244f7d045",
                "code" : "0x",
                "nonce" : "0x00",
                "storage" : {
                }
            },
            "a94f5374fce5edbc8e2a8697c15331677e6ebf0b" : {
                "balance" : "0x0de0b6b3a7602fbb",
                "code" : "0x",
                "nonce" : "0x01",
                "storage" : {
                }
            }
        },
        "pre" : {
            "1000000000000000000000000000000000000000" : {
                "balance" : "0x0de0b6b3a7640000",
                "code" : "0x6040600060406000600173100000000000000000000000000000000000000162055730f1600055",
                "nonce" : "0x00",
                "storage" : {
                }
            },
            "1000000000000000000000000000000000000001" : {
                "balance" : "0x0de0b6b3a7640000",
                "code" : "0x6040600060406000731000000000000000000000000000000000000002620493e0f4600155",
                "nonce" : "0x00",
                "storage" : {
                }
            },
            "1000000000000000000000000000000000000002" : {
                "balance" : "0x0de0b6b3a7640000",
                "code" : "0x60406000604060007310000000000000000000000000000000000000036203d090f4600255",
                "nonce" : "0x00",
                "storage" : {
                }
            },
            "1000000000000000000000000000000000000003" : {
                "balance" : "0x00",
                "code" : "0x600160035533600455346007553061014a553261014c55366101505538610152553a61015455",
                "nonce" : "0x00",
                "storage" : {
                }
            },
            "a94f5374fce5edbc8e2a8697c15331677e6ebf0b" : {
                "balance" : "0x0de0b6b3a7640000",
                "code" : "0x",
                "nonce" : "0x00",
                "storage" : {
                }
            }
        }
    },
    "callcallcodecallcode_011_d0g0v0_Frontier" : {
        "blocks" : [
            {
                "blockHeader" : {
                    "bloom" : "00000000000000000000000000000000000000000000000000000000000000000000000000000000000000000000000000000000000000000000000000000000000000000000000000000000000000000000000000000000000000000000000000000000000000000000000000000000000000000000000000000000000000000000000000000000000000000000000000000000000000000000000000000000000000000000000000000000000000000000000000000000000000000000000000000000000000000000000000000000000000000000000000000000000000000000000000000000000000000000000000000000000000000000000000000000",
                    "coinbase" : "2adc25665018aa1fe0e6bc666dac8fc2697ff9ba",
                    "difficulty" : "0x020000",
                    "extraData" : "0x",
                    "gasLimit" : "0x01c95111",
                    "gasUsed" : "0x05e02e",
                    "hash" : "b34d5e7cf640da379f94a66e40ac6e6024dd6f8fb56963ab3ffac8315277c790",
                    "mixHash" : "20db74b9c5ac5b0d50bc39910403249470485db1566f9694de85a5941bb1f806",
                    "nonce" : "74e362ae53bf0a59",
                    "number" : "0x01",
                    "parentHash" : "1dc72875e4587137ffddd83d7f020228b1f9bdf5294f2b7a5f0735706323e212",
                    "receiptTrie" : "792a7ef587691cb512de567c942ed616a0ca55aa39950e5e7b6136d26804a78b",
                    "stateRoot" : "4c5e71a3f48e0282d8dd275f712360ee2b2611c6496889717fb2566fc8e863cb",
                    "timestamp" : "0x5891fc55",
                    "transactionsTrie" : "5d88595a2b9f129f2901f79a207ca2d95f38ac387707e6cb1de43679d06079d4",
                    "uncleHash" : "1dcc4de8dec75d7aab85b567b6ccd41ad312451b948a7413f0a142fd40d49347"
                },
                "rlp" : "0xf90263f901fba01dc72875e4587137ffddd83d7f020228b1f9bdf5294f2b7a5f0735706323e212a01dcc4de8dec75d7aab85b567b6ccd41ad312451b948a7413f0a142fd40d49347942adc25665018aa1fe0e6bc666dac8fc2697ff9baa04c5e71a3f48e0282d8dd275f712360ee2b2611c6496889717fb2566fc8e863cba05d88595a2b9f129f2901f79a207ca2d95f38ac387707e6cb1de43679d06079d4a0792a7ef587691cb512de567c942ed616a0ca55aa39950e5e7b6136d26804a78bb901000000000000000000000000000000000000000000000000000000000000000000000000000000000000000000000000000000000000000000000000000000000000000000000000000000000000000000000000000000000000000000000000000000000000000000000000000000000000000000000000000000000000000000000000000000000000000000000000000000000000000000000000000000000000000000000000000000000000000000000000000000000000000000000000000000000000000000000000000000000000000000000000000000000000000000000000000000000000000000000000000000000000000000000000000000000083020000018401c951118305e02e845891fc5580a020db74b9c5ac5b0d50bc39910403249470485db1566f9694de85a5941bb1f8068874e362ae53bf0a59f862f8608001832dc6c094100000000000000000000000000000000000000080801ba0bc3f717090c5b3d46550833ec05cc91a3c352bd18be2c0eed5ed3e54e8af58f9a03a7d01021289eca372726c91175e4f422da3147bd3961cd66ca95f1cf3619fb2c0",
                "transactions" : [
                    {
                        "data" : "0x",
                        "gasLimit" : "0x2dc6c0",
                        "gasPrice" : "0x01",
                        "nonce" : "0x00",
                        "r" : "0xbc3f717090c5b3d46550833ec05cc91a3c352bd18be2c0eed5ed3e54e8af58f9",
                        "s" : "0x3a7d01021289eca372726c91175e4f422da3147bd3961cd66ca95f1cf3619fb2",
                        "to" : "1000000000000000000000000000000000000000",
                        "v" : "0x1b",
                        "value" : "0x00"
                    }
                ],
                "uncleHeaders" : [
                ]
            }
        ],
        "genesisBlockHeader" : {
            "bloom" : "00000000000000000000000000000000000000000000000000000000000000000000000000000000000000000000000000000000000000000000000000000000000000000000000000000000000000000000000000000000000000000000000000000000000000000000000000000000000000000000000000000000000000000000000000000000000000000000000000000000000000000000000000000000000000000000000000000000000000000000000000000000000000000000000000000000000000000000000000000000000000000000000000000000000000000000000000000000000000000000000000000000000000000000000000000000",
            "coinbase" : "2adc25665018aa1fe0e6bc666dac8fc2697ff9ba",
            "difficulty" : "0x020000",
            "extraData" : "0x42",
            "gasLimit" : "0x01c9c380",
            "gasUsed" : "0x00",
            "hash" : "1dc72875e4587137ffddd83d7f020228b1f9bdf5294f2b7a5f0735706323e212",
            "mixHash" : "56e81f171bcc55a6ff8345e692c0f86e5b48e01b996cadc001622fb5e363b421",
            "nonce" : "0102030405060708",
            "number" : "0x00",
            "parentHash" : "0000000000000000000000000000000000000000000000000000000000000000",
            "receiptTrie" : "56e81f171bcc55a6ff8345e692c0f86e5b48e01b996cadc001622fb5e363b421",
            "stateRoot" : "1f1cb928d992e3cd8628a99eba79ce9c982c5fa27d8bcd128b517959f11cfc08",
            "timestamp" : "0x54c98c81",
            "transactionsTrie" : "56e81f171bcc55a6ff8345e692c0f86e5b48e01b996cadc001622fb5e363b421",
            "uncleHash" : "1dcc4de8dec75d7aab85b567b6ccd41ad312451b948a7413f0a142fd40d49347"
        },
        "genesisRLP" : "0xf901fdf901f8a00000000000000000000000000000000000000000000000000000000000000000a01dcc4de8dec75d7aab85b567b6ccd41ad312451b948a7413f0a142fd40d49347942adc25665018aa1fe0e6bc666dac8fc2697ff9baa01f1cb928d992e3cd8628a99eba79ce9c982c5fa27d8bcd128b517959f11cfc08a056e81f171bcc55a6ff8345e692c0f86e5b48e01b996cadc001622fb5e363b421a056e81f171bcc55a6ff8345e692c0f86e5b48e01b996cadc001622fb5e363b421b901000000000000000000000000000000000000000000000000000000000000000000000000000000000000000000000000000000000000000000000000000000000000000000000000000000000000000000000000000000000000000000000000000000000000000000000000000000000000000000000000000000000000000000000000000000000000000000000000000000000000000000000000000000000000000000000000000000000000000000000000000000000000000000000000000000000000000000000000000000000000000000000000000000000000000000000000000000000000000000000000000000000000000000000000000000000083020000808401c9c380808454c98c8142a056e81f171bcc55a6ff8345e692c0f86e5b48e01b996cadc001622fb5e363b421880102030405060708c0c0",
        "lastblockhash" : "b34d5e7cf640da379f94a66e40ac6e6024dd6f8fb56963ab3ffac8315277c790",
        "network" : "Frontier",
        "postState" : {
            "1000000000000000000000000000000000000000" : {
                "balance" : "0x0de0b6b3a7640000",
                "code" : "0x6040600060406000600173100000000000000000000000000000000000000162055730f1600055",
                "nonce" : "0x00",
                "storage" : {
                }
            },
            "1000000000000000000000000000000000000001" : {
                "balance" : "0x0de0b6b3a7640000",
                "code" : "0x6040600060406000731000000000000000000000000000000000000002620493e0f4600155",
                "nonce" : "0x00",
                "storage" : {
                }
            },
            "1000000000000000000000000000000000000002" : {
                "balance" : "0x0de0b6b3a7640000",
                "code" : "0x60406000604060007310000000000000000000000000000000000000036203d090f4600255",
                "nonce" : "0x00",
                "storage" : {
                }
            },
            "1000000000000000000000000000000000000003" : {
                "balance" : "0x00",
                "code" : "0x600160035533600455346007553061014a553261014c55366101505538610152553a61015455",
                "nonce" : "0x00",
                "storage" : {
                }
            },
            "2adc25665018aa1fe0e6bc666dac8fc2697ff9ba" : {
                "balance" : "0x4563918244f9e02e",
                "code" : "0x",
                "nonce" : "0x00",
                "storage" : {
                }
            },
            "a94f5374fce5edbc8e2a8697c15331677e6ebf0b" : {
                "balance" : "0x0de0b6b3a75e1fd2",
                "code" : "0x",
                "nonce" : "0x01",
                "storage" : {
                }
            }
        },
        "pre" : {
            "1000000000000000000000000000000000000000" : {
                "balance" : "0x0de0b6b3a7640000",
                "code" : "0x6040600060406000600173100000000000000000000000000000000000000162055730f1600055",
                "nonce" : "0x00",
                "storage" : {
                }
            },
            "1000000000000000000000000000000000000001" : {
                "balance" : "0x0de0b6b3a7640000",
                "code" : "0x6040600060406000731000000000000000000000000000000000000002620493e0f4600155",
                "nonce" : "0x00",
                "storage" : {
                }
            },
            "1000000000000000000000000000000000000002" : {
                "balance" : "0x0de0b6b3a7640000",
                "code" : "0x60406000604060007310000000000000000000000000000000000000036203d090f4600255",
                "nonce" : "0x00",
                "storage" : {
                }
            },
            "1000000000000000000000000000000000000003" : {
                "balance" : "0x00",
                "code" : "0x600160035533600455346007553061014a553261014c55366101505538610152553a61015455",
                "nonce" : "0x00",
                "storage" : {
                }
            },
            "a94f5374fce5edbc8e2a8697c15331677e6ebf0b" : {
                "balance" : "0x0de0b6b3a7640000",
                "code" : "0x",
                "nonce" : "0x00",
                "storage" : {
                }
            }
        }
    },
    "callcallcodecallcode_011_d0g0v0_Homestead" : {
        "blocks" : [
            {
                "blockHeader" : {
                    "bloom" : "00000000000000000000000000000000000000000000000000000000000000000000000000000000000000000000000000000000000000000000000000000000000000000000000000000000000000000000000000000000000000000000000000000000000000000000000000000000000000000000000000000000000000000000000000000000000000000000000000000000000000000000000000000000000000000000000000000000000000000000000000000000000000000000000000000000000000000000000000000000000000000000000000000000000000000000000000000000000000000000000000000000000000000000000000000000",
                    "coinbase" : "2adc25665018aa1fe0e6bc666dac8fc2697ff9ba",
                    "difficulty" : "0x020000",
                    "extraData" : "0x",
                    "gasLimit" : "0x01c95111",
                    "gasUsed" : "0x03c889",
                    "hash" : "764faea6a8c82f95097a7a48a02ba4b11caf899f0c722a856b58a6b17a254377",
                    "mixHash" : "b2f8c5d9899889b4fbce00aaacf1aeeef3d8aa8362f258a030076882ac70ad24",
                    "nonce" : "dad84e1ae478b4f6",
                    "number" : "0x01",
                    "parentHash" : "1dc72875e4587137ffddd83d7f020228b1f9bdf5294f2b7a5f0735706323e212",
                    "receiptTrie" : "5e4ce2e7a372c194d037fef1252099fbcd05cf6feeb2318da1c8d180d1b49fec",
                    "stateRoot" : "b4d9a924d1e8ccdbc751e81488154b5b69b512c659b399f9529526dd8bffa2ec",
                    "timestamp" : "0x5891fc57",
                    "transactionsTrie" : "5d88595a2b9f129f2901f79a207ca2d95f38ac387707e6cb1de43679d06079d4",
                    "uncleHash" : "1dcc4de8dec75d7aab85b567b6ccd41ad312451b948a7413f0a142fd40d49347"
                },
                "rlp" : "0xf90263f901fba01dc72875e4587137ffddd83d7f020228b1f9bdf5294f2b7a5f0735706323e212a01dcc4de8dec75d7aab85b567b6ccd41ad312451b948a7413f0a142fd40d49347942adc25665018aa1fe0e6bc666dac8fc2697ff9baa0b4d9a924d1e8ccdbc751e81488154b5b69b512c659b399f9529526dd8bffa2eca05d88595a2b9f129f2901f79a207ca2d95f38ac387707e6cb1de43679d06079d4a05e4ce2e7a372c194d037fef1252099fbcd05cf6feeb2318da1c8d180d1b49fecb901000000000000000000000000000000000000000000000000000000000000000000000000000000000000000000000000000000000000000000000000000000000000000000000000000000000000000000000000000000000000000000000000000000000000000000000000000000000000000000000000000000000000000000000000000000000000000000000000000000000000000000000000000000000000000000000000000000000000000000000000000000000000000000000000000000000000000000000000000000000000000000000000000000000000000000000000000000000000000000000000000000000000000000000000000000000083020000018401c951118303c889845891fc5780a0b2f8c5d9899889b4fbce00aaacf1aeeef3d8aa8362f258a030076882ac70ad2488dad84e1ae478b4f6f862f8608001832dc6c094100000000000000000000000000000000000000080801ba0bc3f717090c5b3d46550833ec05cc91a3c352bd18be2c0eed5ed3e54e8af58f9a03a7d01021289eca372726c91175e4f422da3147bd3961cd66ca95f1cf3619fb2c0",
                "transactions" : [
                    {
                        "data" : "0x",
                        "gasLimit" : "0x2dc6c0",
                        "gasPrice" : "0x01",
                        "nonce" : "0x00",
                        "r" : "0xbc3f717090c5b3d46550833ec05cc91a3c352bd18be2c0eed5ed3e54e8af58f9",
                        "s" : "0x3a7d01021289eca372726c91175e4f422da3147bd3961cd66ca95f1cf3619fb2",
                        "to" : "1000000000000000000000000000000000000000",
                        "v" : "0x1b",
                        "value" : "0x00"
                    }
                ],
                "uncleHeaders" : [
                ]
            }
        ],
        "genesisBlockHeader" : {
            "bloom" : "00000000000000000000000000000000000000000000000000000000000000000000000000000000000000000000000000000000000000000000000000000000000000000000000000000000000000000000000000000000000000000000000000000000000000000000000000000000000000000000000000000000000000000000000000000000000000000000000000000000000000000000000000000000000000000000000000000000000000000000000000000000000000000000000000000000000000000000000000000000000000000000000000000000000000000000000000000000000000000000000000000000000000000000000000000000",
            "coinbase" : "2adc25665018aa1fe0e6bc666dac8fc2697ff9ba",
            "difficulty" : "0x020000",
            "extraData" : "0x42",
            "gasLimit" : "0x01c9c380",
            "gasUsed" : "0x00",
            "hash" : "1dc72875e4587137ffddd83d7f020228b1f9bdf5294f2b7a5f0735706323e212",
            "mixHash" : "56e81f171bcc55a6ff8345e692c0f86e5b48e01b996cadc001622fb5e363b421",
            "nonce" : "0102030405060708",
            "number" : "0x00",
            "parentHash" : "0000000000000000000000000000000000000000000000000000000000000000",
            "receiptTrie" : "56e81f171bcc55a6ff8345e692c0f86e5b48e01b996cadc001622fb5e363b421",
            "stateRoot" : "1f1cb928d992e3cd8628a99eba79ce9c982c5fa27d8bcd128b517959f11cfc08",
            "timestamp" : "0x54c98c81",
            "transactionsTrie" : "56e81f171bcc55a6ff8345e692c0f86e5b48e01b996cadc001622fb5e363b421",
            "uncleHash" : "1dcc4de8dec75d7aab85b567b6ccd41ad312451b948a7413f0a142fd40d49347"
        },
        "genesisRLP" : "0xf901fdf901f8a00000000000000000000000000000000000000000000000000000000000000000a01dcc4de8dec75d7aab85b567b6ccd41ad312451b948a7413f0a142fd40d49347942adc25665018aa1fe0e6bc666dac8fc2697ff9baa01f1cb928d992e3cd8628a99eba79ce9c982c5fa27d8bcd128b517959f11cfc08a056e81f171bcc55a6ff8345e692c0f86e5b48e01b996cadc001622fb5e363b421a056e81f171bcc55a6ff8345e692c0f86e5b48e01b996cadc001622fb5e363b421b901000000000000000000000000000000000000000000000000000000000000000000000000000000000000000000000000000000000000000000000000000000000000000000000000000000000000000000000000000000000000000000000000000000000000000000000000000000000000000000000000000000000000000000000000000000000000000000000000000000000000000000000000000000000000000000000000000000000000000000000000000000000000000000000000000000000000000000000000000000000000000000000000000000000000000000000000000000000000000000000000000000000000000000000000000000000083020000808401c9c380808454c98c8142a056e81f171bcc55a6ff8345e692c0f86e5b48e01b996cadc001622fb5e363b421880102030405060708c0c0",
        "lastblockhash" : "764faea6a8c82f95097a7a48a02ba4b11caf899f0c722a856b58a6b17a254377",
        "network" : "Homestead",
        "postState" : {
            "1000000000000000000000000000000000000000" : {
                "balance" : "0x0de0b6b3a763ffff",
                "code" : "0x6040600060406000600173100000000000000000000000000000000000000162055730f1600055",
                "nonce" : "0x00",
                "storage" : {
                    "0x00" : "0x01"
                }
            },
            "1000000000000000000000000000000000000001" : {
                "balance" : "0x0de0b6b3a7640001",
                "code" : "0x6040600060406000731000000000000000000000000000000000000002620493e0f4600155",
                "nonce" : "0x00",
                "storage" : {
                    "0x01" : "0x01",
                    "0x014a" : "0x1000000000000000000000000000000000000001",
                    "0x014c" : "0xa94f5374fce5edbc8e2a8697c15331677e6ebf0b",
                    "0x0150" : "0x40",
                    "0x0152" : "0x26",
                    "0x0154" : "0x01",
                    "0x02" : "0x01",
                    "0x03" : "0x01",
                    "0x04" : "0x1000000000000000000000000000000000000000",
                    "0x07" : "0x01"
                }
            },
            "1000000000000000000000000000000000000002" : {
                "balance" : "0x0de0b6b3a7640000",
                "code" : "0x60406000604060007310000000000000000000000000000000000000036203d090f4600255",
                "nonce" : "0x00",
                "storage" : {
                }
            },
            "1000000000000000000000000000000000000003" : {
                "balance" : "0x00",
                "code" : "0x600160035533600455346007553061014a553261014c55366101505538610152553a61015455",
                "nonce" : "0x00",
                "storage" : {
                }
            },
            "2adc25665018aa1fe0e6bc666dac8fc2697ff9ba" : {
                "balance" : "0x4563918244f7c889",
                "code" : "0x",
                "nonce" : "0x00",
                "storage" : {
                }
            },
            "a94f5374fce5edbc8e2a8697c15331677e6ebf0b" : {
                "balance" : "0x0de0b6b3a7603777",
                "code" : "0x",
                "nonce" : "0x01",
                "storage" : {
                }
            }
        },
        "pre" : {
            "1000000000000000000000000000000000000000" : {
                "balance" : "0x0de0b6b3a7640000",
                "code" : "0x6040600060406000600173100000000000000000000000000000000000000162055730f1600055",
                "nonce" : "0x00",
                "storage" : {
                }
            },
            "1000000000000000000000000000000000000001" : {
                "balance" : "0x0de0b6b3a7640000",
                "code" : "0x6040600060406000731000000000000000000000000000000000000002620493e0f4600155",
                "nonce" : "0x00",
                "storage" : {
                }
            },
            "1000000000000000000000000000000000000002" : {
                "balance" : "0x0de0b6b3a7640000",
                "code" : "0x60406000604060007310000000000000000000000000000000000000036203d090f4600255",
                "nonce" : "0x00",
                "storage" : {
                }
            },
            "1000000000000000000000000000000000000003" : {
                "balance" : "0x00",
                "code" : "0x600160035533600455346007553061014a553261014c55366101505538610152553a61015455",
                "nonce" : "0x00",
                "storage" : {
                }
            },
            "a94f5374fce5edbc8e2a8697c15331677e6ebf0b" : {
                "balance" : "0x0de0b6b3a7640000",
                "code" : "0x",
                "nonce" : "0x00",
                "storage" : {
                }
            }
        }
    }
}