{
    "static_CheckOpcodes5_d2g1v1_Byzantium" : {
        "_info" : {
            "comment" : "",
            "filledwith" : "cpp-1.3.0+commit.ab4ca6d1.Linux.g++",
            "lllcversion" : "Version: 0.4.20-develop.2018.1.8+commit.2548228b.Linux.g++",
            "source" : "src/BlockchainTestsFiller/GeneralStateTests/stStaticCall/static_CheckOpcodes5_d2g1v1Filler.json",
            "sourceHash" : "852deea9a78a1e00ab1aba452a17db0d14ab24c6da62e5b39bbcb73ce21378e3"
        },
        "blocks" : [
            {
                "blockHeader" : {
                    "bloom" : "0x00000000000000000000000000000000000000000000000000000000000000000000000000000000000000000000000000000000000000000000000000000000000000000000000000000000000000000000000000000000000000000000000000000000000000000000000000000000000000000000000000000000000000000000000000000000000000000000000000000000000000000000000000000000000000000000000000000000000000000000000000000000000000000000000000000000000000000000000000000000000000000000000000000000000000000000000000000000000000000000000000000000000000000000000000000000",
                    "coinbase" : "0x2adc25665018aa1fe0e6bc666dac8fc2697ff9ba",
                    "difficulty" : "0x020000",
                    "extraData" : "",
                    "gasLimit" : "0x989680",
                    "gasUsed" : "0xf856",
                    "hash" : "0x55b4c9e04a48bb6a402863cbf5512c3684e1bf85df16e03e553f6ba371999e35",
                    "mixHash" : "0x81be8c9e8dc22393870ef932d7c5c5f44ed051866fd0a3d878ebad87f8b4ad55",
                    "nonce" : "0xedc9250edd464204",
                    "number" : "0x01",
                    "parentHash" : "0x900073cc62adaf884784ad0a17a947e6854082ece3c13dc9252853f81cb35e03",
                    "receiptTrie" : "0x9fd894adfbdc5a8207a6f710dbbc84c3135eec45591dabec0c973f9a9170d314",
                    "stateRoot" : "0x8bf02c4bb6b6e84abf606c891f8faf8d504ac266069928645e0e557fe82f5b7a",
                    "timestamp" : "0x03e8",
                    "transactionsTrie" : "0x38e7deb89ba2c8723c13203848b90bc49f31fcad9f36a7e4a73c741bfbd242f9",
                    "uncleHash" : "0x1dcc4de8dec75d7aab85b567b6ccd41ad312451b948a7413f0a142fd40d49347"
                },
                "rlp" : "0xf9027ff901f7a0900073cc62adaf884784ad0a17a947e6854082ece3c13dc9252853f81cb35e03a01dcc4de8dec75d7aab85b567b6ccd41ad312451b948a7413f0a142fd40d49347942adc25665018aa1fe0e6bc666dac8fc2697ff9baa08bf02c4bb6b6e84abf606c891f8faf8d504ac266069928645e0e557fe82f5b7aa038e7deb89ba2c8723c13203848b90bc49f31fcad9f36a7e4a73c741bfbd242f9a09fd894adfbdc5a8207a6f710dbbc84c3135eec45591dabec0c973f9a9170d314b901000000000000000000000000000000000000000000000000000000000000000000000000000000000000000000000000000000000000000000000000000000000000000000000000000000000000000000000000000000000000000000000000000000000000000000000000000000000000000000000000000000000000000000000000000000000000000000000000000000000000000000000000000000000000000000000000000000000000000000000000000000000000000000000000000000000000000000000000000000000000000000000000000000000000000000000000000000000000000000000000000000000000000000000000000000000083020000018398968082f8568203e880a081be8c9e8dc22393870ef932d7c5c5f44ed051866fd0a3d878ebad87f8b4ad5588edc9250edd464204f882f880800183051c9894100000000000000000000000000000000000000064a000000000000000000000000030000000000000000000000000000000000000011ba0f6417344dcfbf00a0ed9acd9c0ba5a63b97a95f6d4e4ac20344e388907a3c051a03114225ede1cccebc61967c5e4513a1ef7a133eab93c0141e41006a54e97eb2bc0",
                "transactions" : [
                    {
                        "data" : "0x0000000000000000000000003000000000000000000000000000000000000001",
                        "gasLimit" : "0x051c98",
                        "gasPrice" : "0x01",
                        "nonce" : "0x00",
                        "r" : "0xf6417344dcfbf00a0ed9acd9c0ba5a63b97a95f6d4e4ac20344e388907a3c051",
                        "s" : "0x3114225ede1cccebc61967c5e4513a1ef7a133eab93c0141e41006a54e97eb2b",
                        "to" : "0x1000000000000000000000000000000000000000",
                        "v" : "0x1b",
                        "value" : "0x64"
                    }
                ],
                "uncleHeaders" : [
                ]
            }
        ],
        "genesisBlockHeader" : {
            "bloom" : "0x00000000000000000000000000000000000000000000000000000000000000000000000000000000000000000000000000000000000000000000000000000000000000000000000000000000000000000000000000000000000000000000000000000000000000000000000000000000000000000000000000000000000000000000000000000000000000000000000000000000000000000000000000000000000000000000000000000000000000000000000000000000000000000000000000000000000000000000000000000000000000000000000000000000000000000000000000000000000000000000000000000000000000000000000000000000",
            "coinbase" : "0x2adc25665018aa1fe0e6bc666dac8fc2697ff9ba",
            "difficulty" : "0x020000",
            "extraData" : "0x42",
            "gasLimit" : "0x989680",
            "gasUsed" : "0x00",
            "hash" : "0x900073cc62adaf884784ad0a17a947e6854082ece3c13dc9252853f81cb35e03",
            "mixHash" : "0x56e81f171bcc55a6ff8345e692c0f86e5b48e01b996cadc001622fb5e363b421",
            "nonce" : "0x0102030405060708",
            "number" : "0x00",
            "parentHash" : "0x0000000000000000000000000000000000000000000000000000000000000000",
            "receiptTrie" : "0x56e81f171bcc55a6ff8345e692c0f86e5b48e01b996cadc001622fb5e363b421",
            "stateRoot" : "0x739118fbd836a83e090c5f4a7b6ba1c767a2761db7c467657b1a3660adbe574f",
            "timestamp" : "0x03b6",
            "transactionsTrie" : "0x56e81f171bcc55a6ff8345e692c0f86e5b48e01b996cadc001622fb5e363b421",
            "uncleHash" : "0x1dcc4de8dec75d7aab85b567b6ccd41ad312451b948a7413f0a142fd40d49347"
        },
        "genesisRLP" : "0xf901faf901f5a00000000000000000000000000000000000000000000000000000000000000000a01dcc4de8dec75d7aab85b567b6ccd41ad312451b948a7413f0a142fd40d49347942adc25665018aa1fe0e6bc666dac8fc2697ff9baa0739118fbd836a83e090c5f4a7b6ba1c767a2761db7c467657b1a3660adbe574fa056e81f171bcc55a6ff8345e692c0f86e5b48e01b996cadc001622fb5e363b421a056e81f171bcc55a6ff8345e692c0f86e5b48e01b996cadc001622fb5e363b421b9010000000000000000000000000000000000000000000000000000000000000000000000000000000000000000000000000000000000000000000000000000000000000000000000000000000000000000000000000000000000000000000000000000000000000000000000000000000000000000000000000000000000000000000000000000000000000000000000000000000000000000000000000000000000000000000000000000000000000000000000000000000000000000000000000000000000000000000000000000000000000000000000000000000000000000000000000000000000000000000000000000000000000000000000000000000000830200008083989680808203b642a056e81f171bcc55a6ff8345e692c0f86e5b48e01b996cadc001622fb5e363b421880102030405060708c0c0",
        "lastblockhash" : "0x55b4c9e04a48bb6a402863cbf5512c3684e1bf85df16e03e553f6ba371999e35",
        "network" : "Byzantium",
        "postState" : {
            "0x1000000000000000000000000000000000000000" : {
                "balance" : "0x64",
                "code" : "0x600060006000600060006000356203d090f1600155",
                "nonce" : "0x00",
                "storage" : {
                    "0x01" : "0x01"
                }
            },
            "0x1000000000000000000000000000000000000001" : {
                "balance" : "0x00",
                "code" : "0x73b0000000000000000000000000000000000000026000526000600060206000600073a000000000000000000000000000000000000002620186a0f1",
                "nonce" : "0x00",
                "storage" : {
                }
            },
            "0x2000000000000000000000000000000000000001" : {
                "balance" : "0x0a",
                "code" : "0x73b0000000000000000000000000000000000000026000526000600060206000600a73a000000000000000000000000000000000000002620186a0f1",
                "nonce" : "0x00",
                "storage" : {
                }
            },
            "0x2adc25665018aa1fe0e6bc666dac8fc2697ff9ba" : {
                "balance" : "0x29a2241af62cf856",
                "code" : "",
                "nonce" : "0x00",
                "storage" : {
                }
            },
            "0x3000000000000000000000000000000000000001" : {
                "balance" : "0x0a",
                "code" : "0x73c3000000000000000000000000000000000000026000526000600060206000600073a000000000000000000000000000000000000002620186a0f2",
                "nonce" : "0x00",
                "storage" : {
                    "0x00" : "0x01"
                }
            },
            "0x4000000000000000000000000000000000000001" : {
                "balance" : "0x0a",
                "code" : "0x73c4000000000000000000000000000000000000026000526000600060206000600173a000000000000000000000000000000000000002620186a0f2",
                "nonce" : "0x00",
                "storage" : {
                }
            },
            "0x5000000000000000000000000000000000000001" : {
                "balance" : "0x0a",
                "code" : "0x73c500000000000000000000000000000000000002600052600060006020600073a000000000000000000000000000000000000002620186a0f4",
                "nonce" : "0x00",
                "storage" : {
                }
            },
            "0xa000000000000000000000000000000000000002" : {
                "balance" : "0x00",
                "code" : "0x600060006000600060003561c350fa600055",
                "nonce" : "0x00",
                "storage" : {
                }
            },
            "0xa94f5374fce5edbc8e2a8697c15331677e6ebf0b" : {
                "balance" : "0xe8d4a41746",
                "code" : "",
                "nonce" : "0x01",
                "storage" : {
                }
            },
            "0xb000000000000000000000000000000000000002" : {
                "balance" : "0x00",
                "code" : "0x3273a94f5374fce5edbc8e2a8697c15331677e6ebf0b1460225760026001556028565b60016001525b3373a00000000000000000000000000000000000000214604b5760026001556051565b60016001525b3073b000000000000000000000000000000000000002146074576002600155607a565b60016001525b34600014608a5760026001556090565b60016001525b",
                "nonce" : "0x00",
                "storage" : {
                }
            },
            "0xc300000000000000000000000000000000000002" : {
                "balance" : "0x00",
                "code" : "0x3273a94f5374fce5edbc8e2a8697c15331677e6ebf0b1460225760026001556028565b60016001525b3373300000000000000000000000000000000000000114604b5760026001556051565b60016001525b3073c300000000000000000000000000000000000002146074576002600155607a565b60016001525b34600014608a5760026001556090565b60016001525b",
                "nonce" : "0x00",
                "storage" : {
                }
            },
            "0xc400000000000000000000000000000000000002" : {
                "balance" : "0x00",
                "code" : "0x3273a94f5374fce5edbc8e2a8697c15331677e6ebf0b1460225760026001556028565b60016001525b3373400000000000000000000000000000000000000114604b5760026001556051565b60016001525b3073c400000000000000000000000000000000000002146074576002600155607a565b60016001525b34600014608a5760026001556090565b60016001525b",
                "nonce" : "0x00",
                "storage" : {
                }
            },
            "0xc500000000000000000000000000000000000002" : {
                "balance" : "0x00",
                "code" : "0x3273a94f5374fce5edbc8e2a8697c15331677e6ebf0b1460225760026001556028565b60016001525b3373500000000000000000000000000000000000000114604b5760026001556051565b60016001525b3073c500000000000000000000000000000000000002146074576002600155607a565b60016001525b34600014608a5760026001556090565b60016001525b",
                "nonce" : "0x00",
                "storage" : {
                }
            }
        },
        "pre" : {
            "0x1000000000000000000000000000000000000000" : {
                "balance" : "0x00",
                "code" : "0x600060006000600060006000356203d090f1600155",
                "nonce" : "0x00",
                "storage" : {
                }
            },
            "0x1000000000000000000000000000000000000001" : {
                "balance" : "0x00",
                "code" : "0x73b0000000000000000000000000000000000000026000526000600060206000600073a000000000000000000000000000000000000002620186a0f1",
                "nonce" : "0x00",
                "storage" : {
                }
            },
            "0x2000000000000000000000000000000000000001" : {
                "balance" : "0x0a",
                "code" : "0x73b0000000000000000000000000000000000000026000526000600060206000600a73a000000000000000000000000000000000000002620186a0f1",
                "nonce" : "0x00",
                "storage" : {
                }
            },
            "0x3000000000000000000000000000000000000001" : {
                "balance" : "0x0a",
                "code" : "0x73c3000000000000000000000000000000000000026000526000600060206000600073a000000000000000000000000000000000000002620186a0f2",
                "nonce" : "0x00",
                "storage" : {
                }
            },
            "0x4000000000000000000000000000000000000001" : {
                "balance" : "0x0a",
                "code" : "0x73c4000000000000000000000000000000000000026000526000600060206000600173a000000000000000000000000000000000000002620186a0f2",
                "nonce" : "0x00",
                "storage" : {
                }
            },
            "0x5000000000000000000000000000000000000001" : {
                "balance" : "0x0a",
                "code" : "0x73c500000000000000000000000000000000000002600052600060006020600073a000000000000000000000000000000000000002620186a0f4",
                "nonce" : "0x00",
                "storage" : {
                }
            },
            "0xa000000000000000000000000000000000000002" : {
                "balance" : "0x00",
                "code" : "0x600060006000600060003561c350fa600055",
                "nonce" : "0x00",
                "storage" : {
                }
            },
            "0xa94f5374fce5edbc8e2a8697c15331677e6ebf0b" : {
                "balance" : "0xe8d4a51000",
                "code" : "",
                "nonce" : "0x00",
                "storage" : {
                }
            },
            "0xb000000000000000000000000000000000000002" : {
                "balance" : "0x00",
                "code" : "0x3273a94f5374fce5edbc8e2a8697c15331677e6ebf0b1460225760026001556028565b60016001525b3373a00000000000000000000000000000000000000214604b5760026001556051565b60016001525b3073b000000000000000000000000000000000000002146074576002600155607a565b60016001525b34600014608a5760026001556090565b60016001525b",
                "nonce" : "0x00",
                "storage" : {
                }
            },
            "0xc300000000000000000000000000000000000002" : {
                "balance" : "0x00",
                "code" : "0x3273a94f5374fce5edbc8e2a8697c15331677e6ebf0b1460225760026001556028565b60016001525b3373300000000000000000000000000000000000000114604b5760026001556051565b60016001525b3073c300000000000000000000000000000000000002146074576002600155607a565b60016001525b34600014608a5760026001556090565b60016001525b",
                "nonce" : "0x00",
                "storage" : {
                }
            },
            "0xc400000000000000000000000000000000000002" : {
                "balance" : "0x00",
                "code" : "0x3273a94f5374fce5edbc8e2a8697c15331677e6ebf0b1460225760026001556028565b60016001525b3373400000000000000000000000000000000000000114604b5760026001556051565b60016001525b3073c400000000000000000000000000000000000002146074576002600155607a565b60016001525b34600014608a5760026001556090565b60016001525b",
                "nonce" : "0x00",
                "storage" : {
                }
            },
            "0xc500000000000000000000000000000000000002" : {
                "balance" : "0x00",
                "code" : "0x3273a94f5374fce5edbc8e2a8697c15331677e6ebf0b1460225760026001556028565b60016001525b3373500000000000000000000000000000000000000114604b5760026001556051565b60016001525b3073c500000000000000000000000000000000000002146074576002600155607a565b60016001525b34600014608a5760026001556090565b60016001525b",
                "nonce" : "0x00",
                "storage" : {
                }
            }
        }
    }
}