{
    "static_refund_CallToSuicideNoStorage_d0g0v0_Byzantium" : {
        "_info" : {
            "comment" : "",
            "filledwith" : "testeth 1.6.0-alpha.0-11+commit.978e68d2",
            "lllcversion" : "Version: 0.5.0-develop.2018.11.9+commit.9709dfe0.Linux.g++",
            "source" : "src/BlockchainTestsFiller/GeneralStateTests/stStaticCall/static_refund_CallToSuicideNoStorage_d0g0v0Filler.json",
            "sourceHash" : "fb73ad085b8dc740b0af001fbd730ff7d777b035a38c3c94ca6c02fb47eef85f"
        },
        "blocks" : [
            {
                "blockHeader" : {
                    "bloom" : "0x00000000000000000000000000000000000000000000000000000000000000000000000000000000000000000000000000000000000000000000000000000000000000000000000000000000000000000000000000000000000000000000000000000000000000000000000000000000000000000000000000000000000000000000000000000000000000000000000000000000000000000000000000000000000000000000000000000000000000000000000000000000000000000000000000000000000000000000000000000000000000000000000000000000000000000000000000000000000000000000000000000000000000000000000000000000",
                    "coinbase" : "0x2adc25665018aa1fe0e6bc666dac8fc2697ff9ba",
                    "difficulty" : "0x020000",
                    "extraData" : "",
                    "gasLimit" : "0x989680",
                    "gasUsed" : "0xb97e",
                    "hash" : "0x98f1eaa926436a67e562c516f5076dfefc4863b68530191b20b2e7019e65cd24",
                    "mixHash" : "0x0000000000000000000000000000000000000000000000000000000000000000",
                    "nonce" : "0x0000000000000000",
                    "number" : "0x01",
                    "parentHash" : "0xb05f23a988a28c834ce99fcdccfd3e63aefaa9a3fb959af0a53a2924bd505339",
                    "receiptTrie" : "0xa093125b1b6c175a522daa074aeb8bd7e2e944e20b542a2db8b0360455bc29d0",
                    "stateRoot" : "0x0bd2a5908a80cdae4ae150b31332c958b0b69c255cd8e57312f61e4e8fc346f3",
                    "timestamp" : "0x03e8",
                    "transactionsTrie" : "0x5aa223482adf3a1a2a459d4ba2cac53424137e086bff91b74ba87245204ebb2b",
                    "uncleHash" : "0x1dcc4de8dec75d7aab85b567b6ccd41ad312451b948a7413f0a142fd40d49347"
                },
                "rlp" : "0xf9027ff901f7a0b05f23a988a28c834ce99fcdccfd3e63aefaa9a3fb959af0a53a2924bd505339a01dcc4de8dec75d7aab85b567b6ccd41ad312451b948a7413f0a142fd40d49347942adc25665018aa1fe0e6bc666dac8fc2697ff9baa00bd2a5908a80cdae4ae150b31332c958b0b69c255cd8e57312f61e4e8fc346f3a05aa223482adf3a1a2a459d4ba2cac53424137e086bff91b74ba87245204ebb2ba0a093125b1b6c175a522daa074aeb8bd7e2e944e20b542a2db8b0360455bc29d0b901000000000000000000000000000000000000000000000000000000000000000000000000000000000000000000000000000000000000000000000000000000000000000000000000000000000000000000000000000000000000000000000000000000000000000000000000000000000000000000000000000000000000000000000000000000000000000000000000000000000000000000000000000000000000000000000000000000000000000000000000000000000000000000000000000000000000000000000000000000000000000000000000000000000000000000000000000000000000000000000000000000000000000000000000000000000083020000018398968082b97e8203e880a00000000000000000000000000000000000000000000000000000000000000000880000000000000000f882f88080018398968094095e7baea6a6c7c4c2dfeb977efac326af552d870aa000000000000000000000000000000000000000000000000000000000000001f41ca00a5b6ccac6bd336c1146cc6edfb0b21ba5480143442860918f5f47d9ae4c28b7a0661f2790b39a4683530bbcc92cb05bd537e423e0be72374cc332cbb0083fde96c0",
                "transactions" : [
                    {
                        "data" : "0x00000000000000000000000000000000000000000000000000000000000001f4",
                        "gasLimit" : "0x989680",
                        "gasPrice" : "0x01",
                        "nonce" : "0x00",
                        "r" : "0x0a5b6ccac6bd336c1146cc6edfb0b21ba5480143442860918f5f47d9ae4c28b7",
                        "s" : "0x661f2790b39a4683530bbcc92cb05bd537e423e0be72374cc332cbb0083fde96",
                        "to" : "0x095e7baea6a6c7c4c2dfeb977efac326af552d87",
                        "v" : "0x1c",
                        "value" : "0x0a"
                    }
                ],
                "uncleHeaders" : [
                ]
            }
        ],
        "genesisBlockHeader" : {
            "bloom" : "0x00000000000000000000000000000000000000000000000000000000000000000000000000000000000000000000000000000000000000000000000000000000000000000000000000000000000000000000000000000000000000000000000000000000000000000000000000000000000000000000000000000000000000000000000000000000000000000000000000000000000000000000000000000000000000000000000000000000000000000000000000000000000000000000000000000000000000000000000000000000000000000000000000000000000000000000000000000000000000000000000000000000000000000000000000000000",
            "coinbase" : "0x2adc25665018aa1fe0e6bc666dac8fc2697ff9ba",
            "difficulty" : "0x020000",
            "extraData" : "0x42",
            "gasLimit" : "0x989680",
            "gasUsed" : "0x00",
            "hash" : "0xb05f23a988a28c834ce99fcdccfd3e63aefaa9a3fb959af0a53a2924bd505339",
            "mixHash" : "0x56e81f171bcc55a6ff8345e692c0f86e5b48e01b996cadc001622fb5e363b421",
            "nonce" : "0x0102030405060708",
            "number" : "0x00",
            "parentHash" : "0x0000000000000000000000000000000000000000000000000000000000000000",
            "receiptTrie" : "0x56e81f171bcc55a6ff8345e692c0f86e5b48e01b996cadc001622fb5e363b421",
            "stateRoot" : "0x8fc763603272a9ed6b3cd6b8193fc5779275aed0c289ccbda0dd7edb1a52885d",
            "timestamp" : "0x03b6",
            "transactionsTrie" : "0x56e81f171bcc55a6ff8345e692c0f86e5b48e01b996cadc001622fb5e363b421",
            "uncleHash" : "0x1dcc4de8dec75d7aab85b567b6ccd41ad312451b948a7413f0a142fd40d49347"
        },
        "genesisRLP" : "0xf901faf901f5a00000000000000000000000000000000000000000000000000000000000000000a01dcc4de8dec75d7aab85b567b6ccd41ad312451b948a7413f0a142fd40d49347942adc25665018aa1fe0e6bc666dac8fc2697ff9baa08fc763603272a9ed6b3cd6b8193fc5779275aed0c289ccbda0dd7edb1a52885da056e81f171bcc55a6ff8345e692c0f86e5b48e01b996cadc001622fb5e363b421a056e81f171bcc55a6ff8345e692c0f86e5b48e01b996cadc001622fb5e363b421b9010000000000000000000000000000000000000000000000000000000000000000000000000000000000000000000000000000000000000000000000000000000000000000000000000000000000000000000000000000000000000000000000000000000000000000000000000000000000000000000000000000000000000000000000000000000000000000000000000000000000000000000000000000000000000000000000000000000000000000000000000000000000000000000000000000000000000000000000000000000000000000000000000000000000000000000000000000000000000000000000000000000000000000000000000000000000830200008083989680808203b642a056e81f171bcc55a6ff8345e692c0f86e5b48e01b996cadc001622fb5e363b421880102030405060708c0c0",
        "lastblockhash" : "0x98f1eaa926436a67e562c516f5076dfefc4863b68530191b20b2e7019e65cd24",
        "network" : "Byzantium",
        "postState" : {
            "0x095e7baea6a6c7c4c2dfeb977efac326af552d87" : {
                "balance" : "0x0de0b6b3a764000a",
                "code" : "0x600060006000600073aaae7baea6a6c7c4c2dfeb977efac326af552aaa600035fa6000556001600255",
                "nonce" : "0x00",
                "storage" : {
                    "0x01" : "0x01",
                    "0x02" : "0x01"
                }
            },
            "0x2adc25665018aa1fe0e6bc666dac8fc2697ff9ba" : {
                "balance" : "0x29a2241af62cb97e",
                "code" : "",
                "nonce" : "0x00",
                "storage" : {
                }
            },
            "0xa94f5374fce5edbc8e2a8697c15331677e6ebf0b" : {
                "balance" : "0x05f52778",
                "code" : "",
                "nonce" : "0x01",
                "storage" : {
                }
            },
            "0xaaae7baea6a6c7c4c2dfeb977efac326af552aaa" : {
                "balance" : "0x0de0b6b3a7640000",
                "code" : "0x73095e7baea6a6c7c4c2dfeb977efac326af552d87ff",
                "nonce" : "0x00",
                "storage" : {
                }
            }
        },
        "pre" : {
            "0x095e7baea6a6c7c4c2dfeb977efac326af552d87" : {
                "balance" : "0x0de0b6b3a7640000",
                "code" : "0x600060006000600073aaae7baea6a6c7c4c2dfeb977efac326af552aaa600035fa6000556001600255",
                "nonce" : "0x00",
                "storage" : {
                    "0x01" : "0x01"
                }
            },
            "0xa94f5374fce5edbc8e2a8697c15331677e6ebf0b" : {
                "balance" : "0x05f5e100",
                "code" : "",
                "nonce" : "0x00",
                "storage" : {
                }
            },
            "0xaaae7baea6a6c7c4c2dfeb977efac326af552aaa" : {
                "balance" : "0x0de0b6b3a7640000",
                "code" : "0x73095e7baea6a6c7c4c2dfeb977efac326af552d87ff",
                "nonce" : "0x00",
                "storage" : {
                }
            }
        },
        "sealEngine" : "NoProof"
    },
    "static_refund_CallToSuicideNoStorage_d0g0v0_Constantinople" : {
        "_info" : {
            "comment" : "",
            "filledwith" : "testeth 1.6.0-alpha.0-11+commit.978e68d2",
            "lllcversion" : "Version: 0.5.0-develop.2018.11.9+commit.9709dfe0.Linux.g++",
            "source" : "src/BlockchainTestsFiller/GeneralStateTests/stStaticCall/static_refund_CallToSuicideNoStorage_d0g0v0Filler.json",
            "sourceHash" : "fb73ad085b8dc740b0af001fbd730ff7d777b035a38c3c94ca6c02fb47eef85f"
        },
        "blocks" : [
            {
                "blockHeader" : {
                    "bloom" : "0x00000000000000000000000000000000000000000000000000000000000000000000000000000000000000000000000000000000000000000000000000000000000000000000000000000000000000000000000000000000000000000000000000000000000000000000000000000000000000000000000000000000000000000000000000000000000000000000000000000000000000000000000000000000000000000000000000000000000000000000000000000000000000000000000000000000000000000000000000000000000000000000000000000000000000000000000000000000000000000000000000000000000000000000000000000000",
                    "coinbase" : "0x2adc25665018aa1fe0e6bc666dac8fc2697ff9ba",
                    "difficulty" : "0x020000",
                    "extraData" : "",
                    "gasLimit" : "0x989680",
                    "gasUsed" : "0xa6be",
                    "hash" : "0xc3e3f85e5d6a39e1737e82ed5f8c67967337cd51ae9008772a5f37471ff62fce",
                    "mixHash" : "0x0000000000000000000000000000000000000000000000000000000000000000",
                    "nonce" : "0x0000000000000000",
                    "number" : "0x01",
                    "parentHash" : "0xb05f23a988a28c834ce99fcdccfd3e63aefaa9a3fb959af0a53a2924bd505339",
                    "receiptTrie" : "0xe7c3500b972836eb154e8ab388966c7f86ff3253a7be9ac793ae63e69318a26e",
                    "stateRoot" : "0x3771042b1b90dc4279acca7e3b4322d53b391a8f5b86a9b8e1db31d11b0a4aa6",
                    "timestamp" : "0x03e8",
                    "transactionsTrie" : "0x5aa223482adf3a1a2a459d4ba2cac53424137e086bff91b74ba87245204ebb2b",
                    "uncleHash" : "0x1dcc4de8dec75d7aab85b567b6ccd41ad312451b948a7413f0a142fd40d49347"
                },
                "rlp" : "0xf9027ff901f7a0b05f23a988a28c834ce99fcdccfd3e63aefaa9a3fb959af0a53a2924bd505339a01dcc4de8dec75d7aab85b567b6ccd41ad312451b948a7413f0a142fd40d49347942adc25665018aa1fe0e6bc666dac8fc2697ff9baa03771042b1b90dc4279acca7e3b4322d53b391a8f5b86a9b8e1db31d11b0a4aa6a05aa223482adf3a1a2a459d4ba2cac53424137e086bff91b74ba87245204ebb2ba0e7c3500b972836eb154e8ab388966c7f86ff3253a7be9ac793ae63e69318a26eb901000000000000000000000000000000000000000000000000000000000000000000000000000000000000000000000000000000000000000000000000000000000000000000000000000000000000000000000000000000000000000000000000000000000000000000000000000000000000000000000000000000000000000000000000000000000000000000000000000000000000000000000000000000000000000000000000000000000000000000000000000000000000000000000000000000000000000000000000000000000000000000000000000000000000000000000000000000000000000000000000000000000000000000000000000000000083020000018398968082a6be8203e880a00000000000000000000000000000000000000000000000000000000000000000880000000000000000f882f88080018398968094095e7baea6a6c7c4c2dfeb977efac326af552d870aa000000000000000000000000000000000000000000000000000000000000001f41ca00a5b6ccac6bd336c1146cc6edfb0b21ba5480143442860918f5f47d9ae4c28b7a0661f2790b39a4683530bbcc92cb05bd537e423e0be72374cc332cbb0083fde96c0",
                "transactions" : [
                    {
                        "data" : "0x00000000000000000000000000000000000000000000000000000000000001f4",
                        "gasLimit" : "0x989680",
                        "gasPrice" : "0x01",
                        "nonce" : "0x00",
                        "r" : "0x0a5b6ccac6bd336c1146cc6edfb0b21ba5480143442860918f5f47d9ae4c28b7",
                        "s" : "0x661f2790b39a4683530bbcc92cb05bd537e423e0be72374cc332cbb0083fde96",
                        "to" : "0x095e7baea6a6c7c4c2dfeb977efac326af552d87",
                        "v" : "0x1c",
                        "value" : "0x0a"
                    }
                ],
                "uncleHeaders" : [
                ]
            }
        ],
        "genesisBlockHeader" : {
            "bloom" : "0x00000000000000000000000000000000000000000000000000000000000000000000000000000000000000000000000000000000000000000000000000000000000000000000000000000000000000000000000000000000000000000000000000000000000000000000000000000000000000000000000000000000000000000000000000000000000000000000000000000000000000000000000000000000000000000000000000000000000000000000000000000000000000000000000000000000000000000000000000000000000000000000000000000000000000000000000000000000000000000000000000000000000000000000000000000000",
            "coinbase" : "0x2adc25665018aa1fe0e6bc666dac8fc2697ff9ba",
            "difficulty" : "0x020000",
            "extraData" : "0x42",
            "gasLimit" : "0x989680",
            "gasUsed" : "0x00",
            "hash" : "0xb05f23a988a28c834ce99fcdccfd3e63aefaa9a3fb959af0a53a2924bd505339",
            "mixHash" : "0x56e81f171bcc55a6ff8345e692c0f86e5b48e01b996cadc001622fb5e363b421",
            "nonce" : "0x0102030405060708",
            "number" : "0x00",
            "parentHash" : "0x0000000000000000000000000000000000000000000000000000000000000000",
            "receiptTrie" : "0x56e81f171bcc55a6ff8345e692c0f86e5b48e01b996cadc001622fb5e363b421",
            "stateRoot" : "0x8fc763603272a9ed6b3cd6b8193fc5779275aed0c289ccbda0dd7edb1a52885d",
            "timestamp" : "0x03b6",
            "transactionsTrie" : "0x56e81f171bcc55a6ff8345e692c0f86e5b48e01b996cadc001622fb5e363b421",
            "uncleHash" : "0x1dcc4de8dec75d7aab85b567b6ccd41ad312451b948a7413f0a142fd40d49347"
        },
        "genesisRLP" : "0xf901faf901f5a00000000000000000000000000000000000000000000000000000000000000000a01dcc4de8dec75d7aab85b567b6ccd41ad312451b948a7413f0a142fd40d49347942adc25665018aa1fe0e6bc666dac8fc2697ff9baa08fc763603272a9ed6b3cd6b8193fc5779275aed0c289ccbda0dd7edb1a52885da056e81f171bcc55a6ff8345e692c0f86e5b48e01b996cadc001622fb5e363b421a056e81f171bcc55a6ff8345e692c0f86e5b48e01b996cadc001622fb5e363b421b9010000000000000000000000000000000000000000000000000000000000000000000000000000000000000000000000000000000000000000000000000000000000000000000000000000000000000000000000000000000000000000000000000000000000000000000000000000000000000000000000000000000000000000000000000000000000000000000000000000000000000000000000000000000000000000000000000000000000000000000000000000000000000000000000000000000000000000000000000000000000000000000000000000000000000000000000000000000000000000000000000000000000000000000000000000000000830200008083989680808203b642a056e81f171bcc55a6ff8345e692c0f86e5b48e01b996cadc001622fb5e363b421880102030405060708c0c0",
        "lastblockhash" : "0xc3e3f85e5d6a39e1737e82ed5f8c67967337cd51ae9008772a5f37471ff62fce",
        "network" : "Constantinople",
        "postState" : {
            "0x095e7baea6a6c7c4c2dfeb977efac326af552d87" : {
                "balance" : "0x0de0b6b3a764000a",
                "code" : "0x600060006000600073aaae7baea6a6c7c4c2dfeb977efac326af552aaa600035fa6000556001600255",
                "nonce" : "0x00",
                "storage" : {
                    "0x01" : "0x01",
                    "0x02" : "0x01"
                }
            },
            "0x2adc25665018aa1fe0e6bc666dac8fc2697ff9ba" : {
                "balance" : "0x1bc16d674ec8a6be",
                "code" : "",
                "nonce" : "0x00",
                "storage" : {
                }
            },
            "0xa94f5374fce5edbc8e2a8697c15331677e6ebf0b" : {
                "balance" : "0x05f53a38",
                "code" : "",
                "nonce" : "0x01",
                "storage" : {
                }
            },
            "0xaaae7baea6a6c7c4c2dfeb977efac326af552aaa" : {
                "balance" : "0x0de0b6b3a7640000",
                "code" : "0x73095e7baea6a6c7c4c2dfeb977efac326af552d87ff",
                "nonce" : "0x00",
                "storage" : {
                }
            }
        },
        "pre" : {
            "0x095e7baea6a6c7c4c2dfeb977efac326af552d87" : {
                "balance" : "0x0de0b6b3a7640000",
                "code" : "0x600060006000600073aaae7baea6a6c7c4c2dfeb977efac326af552aaa600035fa6000556001600255",
                "nonce" : "0x00",
                "storage" : {
                    "0x01" : "0x01"
                }
            },
            "0xa94f5374fce5edbc8e2a8697c15331677e6ebf0b" : {
                "balance" : "0x05f5e100",
                "code" : "",
                "nonce" : "0x00",
                "storage" : {
                }
            },
            "0xaaae7baea6a6c7c4c2dfeb977efac326af552aaa" : {
                "balance" : "0x0de0b6b3a7640000",
                "code" : "0x73095e7baea6a6c7c4c2dfeb977efac326af552d87ff",
                "nonce" : "0x00",
                "storage" : {
                }
            }
        },
        "sealEngine" : "NoProof"
    },
    "static_refund_CallToSuicideNoStorage_d0g0v0_ConstantinopleFix" : {
        "_info" : {
            "comment" : "",
            "filledwith" : "testeth 1.6.0-alpha.0-11+commit.978e68d2",
            "lllcversion" : "Version: 0.5.0-develop.2018.11.9+commit.9709dfe0.Linux.g++",
            "source" : "src/BlockchainTestsFiller/GeneralStateTests/stStaticCall/static_refund_CallToSuicideNoStorage_d0g0v0Filler.json",
            "sourceHash" : "fb73ad085b8dc740b0af001fbd730ff7d777b035a38c3c94ca6c02fb47eef85f"
        },
        "blocks" : [
            {
                "blockHeader" : {
                    "bloom" : "0x00000000000000000000000000000000000000000000000000000000000000000000000000000000000000000000000000000000000000000000000000000000000000000000000000000000000000000000000000000000000000000000000000000000000000000000000000000000000000000000000000000000000000000000000000000000000000000000000000000000000000000000000000000000000000000000000000000000000000000000000000000000000000000000000000000000000000000000000000000000000000000000000000000000000000000000000000000000000000000000000000000000000000000000000000000000",
                    "coinbase" : "0x2adc25665018aa1fe0e6bc666dac8fc2697ff9ba",
                    "difficulty" : "0x020000",
                    "extraData" : "",
                    "gasLimit" : "0x989680",
                    "gasUsed" : "0xb97e",
                    "hash" : "0xf63c36fa9e511937a771b9e7c5f58efd4c93930c2eb273e6f3d63f2c9015bb22",
                    "mixHash" : "0x0000000000000000000000000000000000000000000000000000000000000000",
                    "nonce" : "0x0000000000000000",
                    "number" : "0x01",
                    "parentHash" : "0xb05f23a988a28c834ce99fcdccfd3e63aefaa9a3fb959af0a53a2924bd505339",
                    "receiptTrie" : "0xa093125b1b6c175a522daa074aeb8bd7e2e944e20b542a2db8b0360455bc29d0",
                    "stateRoot" : "0x5fd2dcb45d36f1509eb85f9b00ab582dd80e7712e3287b59cb071903bc9933d9",
                    "timestamp" : "0x03e8",
                    "transactionsTrie" : "0x5aa223482adf3a1a2a459d4ba2cac53424137e086bff91b74ba87245204ebb2b",
                    "uncleHash" : "0x1dcc4de8dec75d7aab85b567b6ccd41ad312451b948a7413f0a142fd40d49347"
                },
                "rlp" : "0xf9027ff901f7a0b05f23a988a28c834ce99fcdccfd3e63aefaa9a3fb959af0a53a2924bd505339a01dcc4de8dec75d7aab85b567b6ccd41ad312451b948a7413f0a142fd40d49347942adc25665018aa1fe0e6bc666dac8fc2697ff9baa05fd2dcb45d36f1509eb85f9b00ab582dd80e7712e3287b59cb071903bc9933d9a05aa223482adf3a1a2a459d4ba2cac53424137e086bff91b74ba87245204ebb2ba0a093125b1b6c175a522daa074aeb8bd7e2e944e20b542a2db8b0360455bc29d0b901000000000000000000000000000000000000000000000000000000000000000000000000000000000000000000000000000000000000000000000000000000000000000000000000000000000000000000000000000000000000000000000000000000000000000000000000000000000000000000000000000000000000000000000000000000000000000000000000000000000000000000000000000000000000000000000000000000000000000000000000000000000000000000000000000000000000000000000000000000000000000000000000000000000000000000000000000000000000000000000000000000000000000000000000000000000083020000018398968082b97e8203e880a00000000000000000000000000000000000000000000000000000000000000000880000000000000000f882f88080018398968094095e7baea6a6c7c4c2dfeb977efac326af552d870aa000000000000000000000000000000000000000000000000000000000000001f41ca00a5b6ccac6bd336c1146cc6edfb0b21ba5480143442860918f5f47d9ae4c28b7a0661f2790b39a4683530bbcc92cb05bd537e423e0be72374cc332cbb0083fde96c0",
                "transactions" : [
                    {
                        "data" : "0x00000000000000000000000000000000000000000000000000000000000001f4",
                        "gasLimit" : "0x989680",
                        "gasPrice" : "0x01",
                        "nonce" : "0x00",
                        "r" : "0x0a5b6ccac6bd336c1146cc6edfb0b21ba5480143442860918f5f47d9ae4c28b7",
                        "s" : "0x661f2790b39a4683530bbcc92cb05bd537e423e0be72374cc332cbb0083fde96",
                        "to" : "0x095e7baea6a6c7c4c2dfeb977efac326af552d87",
                        "v" : "0x1c",
                        "value" : "0x0a"
                    }
                ],
                "uncleHeaders" : [
                ]
            }
        ],
        "genesisBlockHeader" : {
            "bloom" : "0x00000000000000000000000000000000000000000000000000000000000000000000000000000000000000000000000000000000000000000000000000000000000000000000000000000000000000000000000000000000000000000000000000000000000000000000000000000000000000000000000000000000000000000000000000000000000000000000000000000000000000000000000000000000000000000000000000000000000000000000000000000000000000000000000000000000000000000000000000000000000000000000000000000000000000000000000000000000000000000000000000000000000000000000000000000000",
            "coinbase" : "0x2adc25665018aa1fe0e6bc666dac8fc2697ff9ba",
            "difficulty" : "0x020000",
            "extraData" : "0x42",
            "gasLimit" : "0x989680",
            "gasUsed" : "0x00",
            "hash" : "0xb05f23a988a28c834ce99fcdccfd3e63aefaa9a3fb959af0a53a2924bd505339",
            "mixHash" : "0x56e81f171bcc55a6ff8345e692c0f86e5b48e01b996cadc001622fb5e363b421",
            "nonce" : "0x0102030405060708",
            "number" : "0x00",
            "parentHash" : "0x0000000000000000000000000000000000000000000000000000000000000000",
            "receiptTrie" : "0x56e81f171bcc55a6ff8345e692c0f86e5b48e01b996cadc001622fb5e363b421",
            "stateRoot" : "0x8fc763603272a9ed6b3cd6b8193fc5779275aed0c289ccbda0dd7edb1a52885d",
            "timestamp" : "0x03b6",
            "transactionsTrie" : "0x56e81f171bcc55a6ff8345e692c0f86e5b48e01b996cadc001622fb5e363b421",
            "uncleHash" : "0x1dcc4de8dec75d7aab85b567b6ccd41ad312451b948a7413f0a142fd40d49347"
        },
        "genesisRLP" : "0xf901faf901f5a00000000000000000000000000000000000000000000000000000000000000000a01dcc4de8dec75d7aab85b567b6ccd41ad312451b948a7413f0a142fd40d49347942adc25665018aa1fe0e6bc666dac8fc2697ff9baa08fc763603272a9ed6b3cd6b8193fc5779275aed0c289ccbda0dd7edb1a52885da056e81f171bcc55a6ff8345e692c0f86e5b48e01b996cadc001622fb5e363b421a056e81f171bcc55a6ff8345e692c0f86e5b48e01b996cadc001622fb5e363b421b9010000000000000000000000000000000000000000000000000000000000000000000000000000000000000000000000000000000000000000000000000000000000000000000000000000000000000000000000000000000000000000000000000000000000000000000000000000000000000000000000000000000000000000000000000000000000000000000000000000000000000000000000000000000000000000000000000000000000000000000000000000000000000000000000000000000000000000000000000000000000000000000000000000000000000000000000000000000000000000000000000000000000000000000000000000000000830200008083989680808203b642a056e81f171bcc55a6ff8345e692c0f86e5b48e01b996cadc001622fb5e363b421880102030405060708c0c0",
        "lastblockhash" : "0xf63c36fa9e511937a771b9e7c5f58efd4c93930c2eb273e6f3d63f2c9015bb22",
        "network" : "ConstantinopleFix",
        "postState" : {
            "0x095e7baea6a6c7c4c2dfeb977efac326af552d87" : {
                "balance" : "0x0de0b6b3a764000a",
                "code" : "0x600060006000600073aaae7baea6a6c7c4c2dfeb977efac326af552aaa600035fa6000556001600255",
                "nonce" : "0x00",
                "storage" : {
                    "0x01" : "0x01",
                    "0x02" : "0x01"
                }
            },
            "0x2adc25665018aa1fe0e6bc666dac8fc2697ff9ba" : {
                "balance" : "0x1bc16d674ec8b97e",
                "code" : "",
                "nonce" : "0x00",
                "storage" : {
                }
            },
            "0xa94f5374fce5edbc8e2a8697c15331677e6ebf0b" : {
                "balance" : "0x05f52778",
                "code" : "",
                "nonce" : "0x01",
                "storage" : {
                }
            },
            "0xaaae7baea6a6c7c4c2dfeb977efac326af552aaa" : {
                "balance" : "0x0de0b6b3a7640000",
                "code" : "0x73095e7baea6a6c7c4c2dfeb977efac326af552d87ff",
                "nonce" : "0x00",
                "storage" : {
                }
            }
        },
        "pre" : {
            "0x095e7baea6a6c7c4c2dfeb977efac326af552d87" : {
                "balance" : "0x0de0b6b3a7640000",
                "code" : "0x600060006000600073aaae7baea6a6c7c4c2dfeb977efac326af552aaa600035fa6000556001600255",
                "nonce" : "0x00",
                "storage" : {
                    "0x01" : "0x01"
                }
            },
            "0xa94f5374fce5edbc8e2a8697c15331677e6ebf0b" : {
                "balance" : "0x05f5e100",
                "code" : "",
                "nonce" : "0x00",
                "storage" : {
                }
            },
            "0xaaae7baea6a6c7c4c2dfeb977efac326af552aaa" : {
                "balance" : "0x0de0b6b3a7640000",
                "code" : "0x73095e7baea6a6c7c4c2dfeb977efac326af552d87ff",
                "nonce" : "0x00",
                "storage" : {
                }
            }
        },
        "sealEngine" : "NoProof"
    }
}