{
    "static_ABAcallsSuicide0_d0g0v0_Byzantium" : {
        "_info" : {
            "comment" : "",
            "filledwith" : "testeth 1.6.0-alpha.0-11+commit.978e68d2",
            "lllcversion" : "Version: 0.5.0-develop.2018.11.9+commit.9709dfe0.Linux.g++",
            "source" : "src/BlockchainTestsFiller/GeneralStateTests/stStaticCall/static_ABAcallsSuicide0_d0g0v0Filler.json",
            "sourceHash" : "66fcbfaabbb945ecb68e5bfbaad76e811ab66199c3b0fd0080d048c8f24368d7"
        },
        "blocks" : [
            {
                "blockHeader" : {
                    "bloom" : "0x00000000000000000000000000000000000000000000000000000000000000000000000000000000000000000000000000000000000000000000000000000000000000000000000000000000000000000000000000000000000000000000000000000000000000000000000000000000000000000000000000000000000000000000000000000000000000000000000000000000000000000000000000000000000000000000000000000000000000000000000000000000000000000000000000000000000000000000000000000000000000000000000000000000000000000000000000000000000000000000000000000000000000000000000000000000",
                    "coinbase" : "0x2adc25665018aa1fe0e6bc666dac8fc2697ff9ba",
                    "difficulty" : "0x020000",
                    "extraData" : "",
                    "gasLimit" : "0x989680",
                    "gasUsed" : "0x026391",
                    "hash" : "0x4da21179850c67e2644e2fc372165196668fd7683e2d143a52858a1c1717157d",
                    "mixHash" : "0x0000000000000000000000000000000000000000000000000000000000000000",
                    "nonce" : "0x0000000000000000",
                    "number" : "0x01",
                    "parentHash" : "0x53b9bd758d5f20009ff2e4863541557a398e072ec46525f00ea12e0f5006974e",
                    "receiptTrie" : "0x8a66baaab26a07fab8cb9c12051185293d2fcc5c70f31fd1d98413f25e3917d9",
                    "stateRoot" : "0xaf8451d58dc3f5e89034eb955dc0e0d35d00940effaa57dfe32c9c1434102a3d",
                    "timestamp" : "0x03e8",
                    "transactionsTrie" : "0x9f6b1c378c6a28782335f983fb98991b2bc9bc6d9e8068fcdfbd310912f1da0c",
                    "uncleHash" : "0x1dcc4de8dec75d7aab85b567b6ccd41ad312451b948a7413f0a142fd40d49347"
                },
                "rlp" : "0xf90283f901f8a053b9bd758d5f20009ff2e4863541557a398e072ec46525f00ea12e0f5006974ea01dcc4de8dec75d7aab85b567b6ccd41ad312451b948a7413f0a142fd40d49347942adc25665018aa1fe0e6bc666dac8fc2697ff9baa0af8451d58dc3f5e89034eb955dc0e0d35d00940effaa57dfe32c9c1434102a3da09f6b1c378c6a28782335f983fb98991b2bc9bc6d9e8068fcdfbd310912f1da0ca08a66baaab26a07fab8cb9c12051185293d2fcc5c70f31fd1d98413f25e3917d9b9010000000000000000000000000000000000000000000000000000000000000000000000000000000000000000000000000000000000000000000000000000000000000000000000000000000000000000000000000000000000000000000000000000000000000000000000000000000000000000000000000000000000000000000000000000000000000000000000000000000000000000000000000000000000000000000000000000000000000000000000000000000000000000000000000000000000000000000000000000000000000000000000000000000000000000000000000000000000000000000000000000000000000000000000000000000000830200000183989680830263918203e880a00000000000000000000000000000000000000000000000000000000000000000880000000000000000f885f883800183989680941000000000000000000000000000000000000000830186a0a0000000000000000000000000095e7baea6a6c7c4c2dfeb977efac326af552d871ca0aa4d7c170c72587d6a96d4feb7ef968b9f381c4c82efa5b369fbda8f1aaca401a01b51989f494bee43d4b6b0a9061dbdde6adf1fd782aec999d9df9a9d3d9b9e95c0",
                "transactions" : [
                    {
                        "data" : "0x000000000000000000000000095e7baea6a6c7c4c2dfeb977efac326af552d87",
                        "gasLimit" : "0x989680",
                        "gasPrice" : "0x01",
                        "nonce" : "0x00",
                        "r" : "0xaa4d7c170c72587d6a96d4feb7ef968b9f381c4c82efa5b369fbda8f1aaca401",
                        "s" : "0x1b51989f494bee43d4b6b0a9061dbdde6adf1fd782aec999d9df9a9d3d9b9e95",
                        "to" : "0x1000000000000000000000000000000000000000",
                        "v" : "0x1c",
                        "value" : "0x0186a0"
                    }
                ],
                "uncleHeaders" : [
                ]
            }
        ],
        "genesisBlockHeader" : {
            "bloom" : "0x00000000000000000000000000000000000000000000000000000000000000000000000000000000000000000000000000000000000000000000000000000000000000000000000000000000000000000000000000000000000000000000000000000000000000000000000000000000000000000000000000000000000000000000000000000000000000000000000000000000000000000000000000000000000000000000000000000000000000000000000000000000000000000000000000000000000000000000000000000000000000000000000000000000000000000000000000000000000000000000000000000000000000000000000000000000",
            "coinbase" : "0x2adc25665018aa1fe0e6bc666dac8fc2697ff9ba",
            "difficulty" : "0x020000",
            "extraData" : "0x42",
            "gasLimit" : "0x989680",
            "gasUsed" : "0x00",
            "hash" : "0x53b9bd758d5f20009ff2e4863541557a398e072ec46525f00ea12e0f5006974e",
            "mixHash" : "0x56e81f171bcc55a6ff8345e692c0f86e5b48e01b996cadc001622fb5e363b421",
            "nonce" : "0x0102030405060708",
            "number" : "0x00",
            "parentHash" : "0x0000000000000000000000000000000000000000000000000000000000000000",
            "receiptTrie" : "0x56e81f171bcc55a6ff8345e692c0f86e5b48e01b996cadc001622fb5e363b421",
            "stateRoot" : "0xacc10252527628bf8c2b0b1481df17067d34d302d3c2223839ea4af1fd3b6fc8",
            "timestamp" : "0x03b6",
            "transactionsTrie" : "0x56e81f171bcc55a6ff8345e692c0f86e5b48e01b996cadc001622fb5e363b421",
            "uncleHash" : "0x1dcc4de8dec75d7aab85b567b6ccd41ad312451b948a7413f0a142fd40d49347"
        },
        "genesisRLP" : "0xf901faf901f5a00000000000000000000000000000000000000000000000000000000000000000a01dcc4de8dec75d7aab85b567b6ccd41ad312451b948a7413f0a142fd40d49347942adc25665018aa1fe0e6bc666dac8fc2697ff9baa0acc10252527628bf8c2b0b1481df17067d34d302d3c2223839ea4af1fd3b6fc8a056e81f171bcc55a6ff8345e692c0f86e5b48e01b996cadc001622fb5e363b421a056e81f171bcc55a6ff8345e692c0f86e5b48e01b996cadc001622fb5e363b421b9010000000000000000000000000000000000000000000000000000000000000000000000000000000000000000000000000000000000000000000000000000000000000000000000000000000000000000000000000000000000000000000000000000000000000000000000000000000000000000000000000000000000000000000000000000000000000000000000000000000000000000000000000000000000000000000000000000000000000000000000000000000000000000000000000000000000000000000000000000000000000000000000000000000000000000000000000000000000000000000000000000000000000000000000000000000000830200008083989680808203b642a056e81f171bcc55a6ff8345e692c0f86e5b48e01b996cadc001622fb5e363b421880102030405060708c0c0",
        "lastblockhash" : "0x4da21179850c67e2644e2fc372165196668fd7683e2d143a52858a1c1717157d",
        "network" : "Byzantium",
        "postState" : {
            "0x1000000000000000000000000000000000000000" : {
                "balance" : "0x00",
                "code" : "0x6000600060006000346000355af16000555a600155",
                "nonce" : "0x00",
                "storage" : {
                    "0x00" : "0x01",
                    "0x01" : "0x962352"
                }
            },
            "0x195e7baea6a6c7c4c2dfeb977efac326af552d87" : {
                "balance" : "0x0de0b6b3a7640000",
                "code" : "0x600060006000600073245304eb96065b2a98b57a48a06ae28d285a71b5620186a0fa585273945304eb96065b2a98b57a48a06ae28d285a71b5ff",
                "nonce" : "0x00",
                "storage" : {
                }
            },
            "0x245304eb96065b2a98b57a48a06ae28d285a71b5" : {
                "balance" : "0x17",
                "code" : "0x600060006000600073195e7baea6a6c7c4c2dfeb977efac326af552d8761c350fa6001015852",
                "nonce" : "0x00",
                "storage" : {
                }
            },
            "0x2adc25665018aa1fe0e6bc666dac8fc2697ff9ba" : {
                "balance" : "0x29a2241af62e6391",
                "code" : "",
                "nonce" : "0x00",
                "storage" : {
                }
            },
            "0x945304eb96065b2a98b57a48a06ae28d285a71b5" : {
                "balance" : "0x0de0b6b3a76586b7",
                "code" : "0x600060006000600073095e7baea6a6c7c4c2dfeb977efac326af552d8761c350fa6001015855",
                "nonce" : "0x00",
                "storage" : {
                }
            },
            "0xa94f5374fce5edbc8e2a8697c15331677e6ebf0b" : {
                "balance" : "0x0de0b6b3a76015cf",
                "code" : "",
                "nonce" : "0x01",
                "storage" : {
                }
            }
        },
        "pre" : {
            "0x095e7baea6a6c7c4c2dfeb977efac326af552d87" : {
                "balance" : "0x0de0b6b3a7640000",
                "code" : "0x600060006000600073945304eb96065b2a98b57a48a06ae28d285a71b5620186a0fa585573945304eb96065b2a98b57a48a06ae28d285a71b5ff",
                "nonce" : "0x00",
                "storage" : {
                }
            },
            "0x1000000000000000000000000000000000000000" : {
                "balance" : "0x00",
                "code" : "0x6000600060006000346000355af16000555a600155",
                "nonce" : "0x00",
                "storage" : {
                }
            },
            "0x195e7baea6a6c7c4c2dfeb977efac326af552d87" : {
                "balance" : "0x0de0b6b3a7640000",
                "code" : "0x600060006000600073245304eb96065b2a98b57a48a06ae28d285a71b5620186a0fa585273945304eb96065b2a98b57a48a06ae28d285a71b5ff",
                "nonce" : "0x00",
                "storage" : {
                }
            },
            "0x245304eb96065b2a98b57a48a06ae28d285a71b5" : {
                "balance" : "0x17",
                "code" : "0x600060006000600073195e7baea6a6c7c4c2dfeb977efac326af552d8761c350fa6001015852",
                "nonce" : "0x00",
                "storage" : {
                }
            },
            "0x945304eb96065b2a98b57a48a06ae28d285a71b5" : {
                "balance" : "0x17",
                "code" : "0x600060006000600073095e7baea6a6c7c4c2dfeb977efac326af552d8761c350fa6001015855",
                "nonce" : "0x00",
                "storage" : {
                }
            },
            "0xa94f5374fce5edbc8e2a8697c15331677e6ebf0b" : {
                "balance" : "0x0de0b6b3a7640000",
                "code" : "",
                "nonce" : "0x00",
                "storage" : {
                }
            }
        },
        "sealEngine" : "NoProof"
    },
    "static_ABAcallsSuicide0_d0g0v0_Constantinople" : {
        "_info" : {
            "comment" : "",
            "filledwith" : "testeth 1.6.0-alpha.0-11+commit.978e68d2",
            "lllcversion" : "Version: 0.5.0-develop.2018.11.9+commit.9709dfe0.Linux.g++",
            "source" : "src/BlockchainTestsFiller/GeneralStateTests/stStaticCall/static_ABAcallsSuicide0_d0g0v0Filler.json",
            "sourceHash" : "66fcbfaabbb945ecb68e5bfbaad76e811ab66199c3b0fd0080d048c8f24368d7"
        },
        "blocks" : [
            {
                "blockHeader" : {
                    "bloom" : "0x00000000000000000000000000000000000000000000000000000000000000000000000000000000000000000000000000000000000000000000000000000000000000000000000000000000000000000000000000000000000000000000000000000000000000000000000000000000000000000000000000000000000000000000000000000000000000000000000000000000000000000000000000000000000000000000000000000000000000000000000000000000000000000000000000000000000000000000000000000000000000000000000000000000000000000000000000000000000000000000000000000000000000000000000000000000",
                    "coinbase" : "0x2adc25665018aa1fe0e6bc666dac8fc2697ff9ba",
                    "difficulty" : "0x020000",
                    "extraData" : "",
                    "gasLimit" : "0x989680",
                    "gasUsed" : "0x0250d1",
                    "hash" : "0xfb15be2845aa74929a7f90f5a10b2e6b1799c60b5bb483d663f5ce4dfeb378c8",
                    "mixHash" : "0x0000000000000000000000000000000000000000000000000000000000000000",
                    "nonce" : "0x0000000000000000",
                    "number" : "0x01",
                    "parentHash" : "0x53b9bd758d5f20009ff2e4863541557a398e072ec46525f00ea12e0f5006974e",
                    "receiptTrie" : "0x663f8e11314273f54969fd3fca7fe6fdd31f3a64b6be56fa15a8e2bcf0ac95c7",
                    "stateRoot" : "0x8a7fb589b5b69564a7252f79ff3a39aba564898e553fbced78180699c503443a",
                    "timestamp" : "0x03e8",
                    "transactionsTrie" : "0x9f6b1c378c6a28782335f983fb98991b2bc9bc6d9e8068fcdfbd310912f1da0c",
                    "uncleHash" : "0x1dcc4de8dec75d7aab85b567b6ccd41ad312451b948a7413f0a142fd40d49347"
                },
                "rlp" : "0xf90283f901f8a053b9bd758d5f20009ff2e4863541557a398e072ec46525f00ea12e0f5006974ea01dcc4de8dec75d7aab85b567b6ccd41ad312451b948a7413f0a142fd40d49347942adc25665018aa1fe0e6bc666dac8fc2697ff9baa08a7fb589b5b69564a7252f79ff3a39aba564898e553fbced78180699c503443aa09f6b1c378c6a28782335f983fb98991b2bc9bc6d9e8068fcdfbd310912f1da0ca0663f8e11314273f54969fd3fca7fe6fdd31f3a64b6be56fa15a8e2bcf0ac95c7b9010000000000000000000000000000000000000000000000000000000000000000000000000000000000000000000000000000000000000000000000000000000000000000000000000000000000000000000000000000000000000000000000000000000000000000000000000000000000000000000000000000000000000000000000000000000000000000000000000000000000000000000000000000000000000000000000000000000000000000000000000000000000000000000000000000000000000000000000000000000000000000000000000000000000000000000000000000000000000000000000000000000000000000000000000000000000830200000183989680830250d18203e880a00000000000000000000000000000000000000000000000000000000000000000880000000000000000f885f883800183989680941000000000000000000000000000000000000000830186a0a0000000000000000000000000095e7baea6a6c7c4c2dfeb977efac326af552d871ca0aa4d7c170c72587d6a96d4feb7ef968b9f381c4c82efa5b369fbda8f1aaca401a01b51989f494bee43d4b6b0a9061dbdde6adf1fd782aec999d9df9a9d3d9b9e95c0",
                "transactions" : [
                    {
                        "data" : "0x000000000000000000000000095e7baea6a6c7c4c2dfeb977efac326af552d87",
                        "gasLimit" : "0x989680",
                        "gasPrice" : "0x01",
                        "nonce" : "0x00",
                        "r" : "0xaa4d7c170c72587d6a96d4feb7ef968b9f381c4c82efa5b369fbda8f1aaca401",
                        "s" : "0x1b51989f494bee43d4b6b0a9061dbdde6adf1fd782aec999d9df9a9d3d9b9e95",
                        "to" : "0x1000000000000000000000000000000000000000",
                        "v" : "0x1c",
                        "value" : "0x0186a0"
                    }
                ],
                "uncleHeaders" : [
                ]
            }
        ],
        "genesisBlockHeader" : {
            "bloom" : "0x00000000000000000000000000000000000000000000000000000000000000000000000000000000000000000000000000000000000000000000000000000000000000000000000000000000000000000000000000000000000000000000000000000000000000000000000000000000000000000000000000000000000000000000000000000000000000000000000000000000000000000000000000000000000000000000000000000000000000000000000000000000000000000000000000000000000000000000000000000000000000000000000000000000000000000000000000000000000000000000000000000000000000000000000000000000",
            "coinbase" : "0x2adc25665018aa1fe0e6bc666dac8fc2697ff9ba",
            "difficulty" : "0x020000",
            "extraData" : "0x42",
            "gasLimit" : "0x989680",
            "gasUsed" : "0x00",
            "hash" : "0x53b9bd758d5f20009ff2e4863541557a398e072ec46525f00ea12e0f5006974e",
            "mixHash" : "0x56e81f171bcc55a6ff8345e692c0f86e5b48e01b996cadc001622fb5e363b421",
            "nonce" : "0x0102030405060708",
            "number" : "0x00",
            "parentHash" : "0x0000000000000000000000000000000000000000000000000000000000000000",
            "receiptTrie" : "0x56e81f171bcc55a6ff8345e692c0f86e5b48e01b996cadc001622fb5e363b421",
            "stateRoot" : "0xacc10252527628bf8c2b0b1481df17067d34d302d3c2223839ea4af1fd3b6fc8",
            "timestamp" : "0x03b6",
            "transactionsTrie" : "0x56e81f171bcc55a6ff8345e692c0f86e5b48e01b996cadc001622fb5e363b421",
            "uncleHash" : "0x1dcc4de8dec75d7aab85b567b6ccd41ad312451b948a7413f0a142fd40d49347"
        },
        "genesisRLP" : "0xf901faf901f5a00000000000000000000000000000000000000000000000000000000000000000a01dcc4de8dec75d7aab85b567b6ccd41ad312451b948a7413f0a142fd40d49347942adc25665018aa1fe0e6bc666dac8fc2697ff9baa0acc10252527628bf8c2b0b1481df17067d34d302d3c2223839ea4af1fd3b6fc8a056e81f171bcc55a6ff8345e692c0f86e5b48e01b996cadc001622fb5e363b421a056e81f171bcc55a6ff8345e692c0f86e5b48e01b996cadc001622fb5e363b421b9010000000000000000000000000000000000000000000000000000000000000000000000000000000000000000000000000000000000000000000000000000000000000000000000000000000000000000000000000000000000000000000000000000000000000000000000000000000000000000000000000000000000000000000000000000000000000000000000000000000000000000000000000000000000000000000000000000000000000000000000000000000000000000000000000000000000000000000000000000000000000000000000000000000000000000000000000000000000000000000000000000000000000000000000000000000000830200008083989680808203b642a056e81f171bcc55a6ff8345e692c0f86e5b48e01b996cadc001622fb5e363b421880102030405060708c0c0",
        "lastblockhash" : "0xfb15be2845aa74929a7f90f5a10b2e6b1799c60b5bb483d663f5ce4dfeb378c8",
        "network" : "Constantinople",
        "postState" : {
            "0x1000000000000000000000000000000000000000" : {
                "balance" : "0x00",
                "code" : "0x6000600060006000346000355af16000555a600155",
                "nonce" : "0x00",
                "storage" : {
                    "0x00" : "0x01",
                    "0x01" : "0x963612"
                }
            },
            "0x195e7baea6a6c7c4c2dfeb977efac326af552d87" : {
                "balance" : "0x0de0b6b3a7640000",
                "code" : "0x600060006000600073245304eb96065b2a98b57a48a06ae28d285a71b5620186a0fa585273945304eb96065b2a98b57a48a06ae28d285a71b5ff",
                "nonce" : "0x00",
                "storage" : {
                }
            },
            "0x245304eb96065b2a98b57a48a06ae28d285a71b5" : {
                "balance" : "0x17",
                "code" : "0x600060006000600073195e7baea6a6c7c4c2dfeb977efac326af552d8761c350fa6001015852",
                "nonce" : "0x00",
                "storage" : {
                }
            },
            "0x2adc25665018aa1fe0e6bc666dac8fc2697ff9ba" : {
                "balance" : "0x1bc16d674eca50d1",
                "code" : "",
                "nonce" : "0x00",
                "storage" : {
                }
            },
            "0x945304eb96065b2a98b57a48a06ae28d285a71b5" : {
                "balance" : "0x0de0b6b3a76586b7",
                "code" : "0x600060006000600073095e7baea6a6c7c4c2dfeb977efac326af552d8761c350fa6001015855",
                "nonce" : "0x00",
                "storage" : {
                }
            },
            "0xa94f5374fce5edbc8e2a8697c15331677e6ebf0b" : {
                "balance" : "0x0de0b6b3a760288f",
                "code" : "",
                "nonce" : "0x01",
                "storage" : {
                }
            }
        },
        "pre" : {
            "0x095e7baea6a6c7c4c2dfeb977efac326af552d87" : {
                "balance" : "0x0de0b6b3a7640000",
                "code" : "0x600060006000600073945304eb96065b2a98b57a48a06ae28d285a71b5620186a0fa585573945304eb96065b2a98b57a48a06ae28d285a71b5ff",
                "nonce" : "0x00",
                "storage" : {
                }
            },
            "0x1000000000000000000000000000000000000000" : {
                "balance" : "0x00",
                "code" : "0x6000600060006000346000355af16000555a600155",
                "nonce" : "0x00",
                "storage" : {
                }
            },
            "0x195e7baea6a6c7c4c2dfeb977efac326af552d87" : {
                "balance" : "0x0de0b6b3a7640000",
                "code" : "0x600060006000600073245304eb96065b2a98b57a48a06ae28d285a71b5620186a0fa585273945304eb96065b2a98b57a48a06ae28d285a71b5ff",
                "nonce" : "0x00",
                "storage" : {
                }
            },
            "0x245304eb96065b2a98b57a48a06ae28d285a71b5" : {
                "balance" : "0x17",
                "code" : "0x600060006000600073195e7baea6a6c7c4c2dfeb977efac326af552d8761c350fa6001015852",
                "nonce" : "0x00",
                "storage" : {
                }
            },
            "0x945304eb96065b2a98b57a48a06ae28d285a71b5" : {
                "balance" : "0x17",
                "code" : "0x600060006000600073095e7baea6a6c7c4c2dfeb977efac326af552d8761c350fa6001015855",
                "nonce" : "0x00",
                "storage" : {
                }
            },
            "0xa94f5374fce5edbc8e2a8697c15331677e6ebf0b" : {
                "balance" : "0x0de0b6b3a7640000",
                "code" : "",
                "nonce" : "0x00",
                "storage" : {
                }
            }
        },
        "sealEngine" : "NoProof"
    },
    "static_ABAcallsSuicide0_d0g0v0_ConstantinopleFix" : {
        "_info" : {
            "comment" : "",
            "filledwith" : "testeth 1.6.0-alpha.0-11+commit.978e68d2",
            "lllcversion" : "Version: 0.5.0-develop.2018.11.9+commit.9709dfe0.Linux.g++",
            "source" : "src/BlockchainTestsFiller/GeneralStateTests/stStaticCall/static_ABAcallsSuicide0_d0g0v0Filler.json",
            "sourceHash" : "66fcbfaabbb945ecb68e5bfbaad76e811ab66199c3b0fd0080d048c8f24368d7"
        },
        "blocks" : [
            {
                "blockHeader" : {
                    "bloom" : "0x00000000000000000000000000000000000000000000000000000000000000000000000000000000000000000000000000000000000000000000000000000000000000000000000000000000000000000000000000000000000000000000000000000000000000000000000000000000000000000000000000000000000000000000000000000000000000000000000000000000000000000000000000000000000000000000000000000000000000000000000000000000000000000000000000000000000000000000000000000000000000000000000000000000000000000000000000000000000000000000000000000000000000000000000000000000",
                    "coinbase" : "0x2adc25665018aa1fe0e6bc666dac8fc2697ff9ba",
                    "difficulty" : "0x020000",
                    "extraData" : "",
                    "gasLimit" : "0x989680",
                    "gasUsed" : "0x026391",
                    "hash" : "0x9aba88315e99dba99f6a0be96b03b61c15671286e2b2dbe564574192be7e533e",
                    "mixHash" : "0x0000000000000000000000000000000000000000000000000000000000000000",
                    "nonce" : "0x0000000000000000",
                    "number" : "0x01",
                    "parentHash" : "0x53b9bd758d5f20009ff2e4863541557a398e072ec46525f00ea12e0f5006974e",
                    "receiptTrie" : "0x8a66baaab26a07fab8cb9c12051185293d2fcc5c70f31fd1d98413f25e3917d9",
                    "stateRoot" : "0xfa1f1723ae6410e834ec16138fe483f063184f7c382037afdf94f81d136f4f07",
                    "timestamp" : "0x03e8",
                    "transactionsTrie" : "0x9f6b1c378c6a28782335f983fb98991b2bc9bc6d9e8068fcdfbd310912f1da0c",
                    "uncleHash" : "0x1dcc4de8dec75d7aab85b567b6ccd41ad312451b948a7413f0a142fd40d49347"
                },
                "rlp" : "0xf90283f901f8a053b9bd758d5f20009ff2e4863541557a398e072ec46525f00ea12e0f5006974ea01dcc4de8dec75d7aab85b567b6ccd41ad312451b948a7413f0a142fd40d49347942adc25665018aa1fe0e6bc666dac8fc2697ff9baa0fa1f1723ae6410e834ec16138fe483f063184f7c382037afdf94f81d136f4f07a09f6b1c378c6a28782335f983fb98991b2bc9bc6d9e8068fcdfbd310912f1da0ca08a66baaab26a07fab8cb9c12051185293d2fcc5c70f31fd1d98413f25e3917d9b9010000000000000000000000000000000000000000000000000000000000000000000000000000000000000000000000000000000000000000000000000000000000000000000000000000000000000000000000000000000000000000000000000000000000000000000000000000000000000000000000000000000000000000000000000000000000000000000000000000000000000000000000000000000000000000000000000000000000000000000000000000000000000000000000000000000000000000000000000000000000000000000000000000000000000000000000000000000000000000000000000000000000000000000000000000000000830200000183989680830263918203e880a00000000000000000000000000000000000000000000000000000000000000000880000000000000000f885f883800183989680941000000000000000000000000000000000000000830186a0a0000000000000000000000000095e7baea6a6c7c4c2dfeb977efac326af552d871ca0aa4d7c170c72587d6a96d4feb7ef968b9f381c4c82efa5b369fbda8f1aaca401a01b51989f494bee43d4b6b0a9061dbdde6adf1fd782aec999d9df9a9d3d9b9e95c0",
                "transactions" : [
                    {
                        "data" : "0x000000000000000000000000095e7baea6a6c7c4c2dfeb977efac326af552d87",
                        "gasLimit" : "0x989680",
                        "gasPrice" : "0x01",
                        "nonce" : "0x00",
                        "r" : "0xaa4d7c170c72587d6a96d4feb7ef968b9f381c4c82efa5b369fbda8f1aaca401",
                        "s" : "0x1b51989f494bee43d4b6b0a9061dbdde6adf1fd782aec999d9df9a9d3d9b9e95",
                        "to" : "0x1000000000000000000000000000000000000000",
                        "v" : "0x1c",
                        "value" : "0x0186a0"
                    }
                ],
                "uncleHeaders" : [
                ]
            }
        ],
        "genesisBlockHeader" : {
            "bloom" : "0x00000000000000000000000000000000000000000000000000000000000000000000000000000000000000000000000000000000000000000000000000000000000000000000000000000000000000000000000000000000000000000000000000000000000000000000000000000000000000000000000000000000000000000000000000000000000000000000000000000000000000000000000000000000000000000000000000000000000000000000000000000000000000000000000000000000000000000000000000000000000000000000000000000000000000000000000000000000000000000000000000000000000000000000000000000000",
            "coinbase" : "0x2adc25665018aa1fe0e6bc666dac8fc2697ff9ba",
            "difficulty" : "0x020000",
            "extraData" : "0x42",
            "gasLimit" : "0x989680",
            "gasUsed" : "0x00",
            "hash" : "0x53b9bd758d5f20009ff2e4863541557a398e072ec46525f00ea12e0f5006974e",
            "mixHash" : "0x56e81f171bcc55a6ff8345e692c0f86e5b48e01b996cadc001622fb5e363b421",
            "nonce" : "0x0102030405060708",
            "number" : "0x00",
            "parentHash" : "0x0000000000000000000000000000000000000000000000000000000000000000",
            "receiptTrie" : "0x56e81f171bcc55a6ff8345e692c0f86e5b48e01b996cadc001622fb5e363b421",
            "stateRoot" : "0xacc10252527628bf8c2b0b1481df17067d34d302d3c2223839ea4af1fd3b6fc8",
            "timestamp" : "0x03b6",
            "transactionsTrie" : "0x56e81f171bcc55a6ff8345e692c0f86e5b48e01b996cadc001622fb5e363b421",
            "uncleHash" : "0x1dcc4de8dec75d7aab85b567b6ccd41ad312451b948a7413f0a142fd40d49347"
        },
        "genesisRLP" : "0xf901faf901f5a00000000000000000000000000000000000000000000000000000000000000000a01dcc4de8dec75d7aab85b567b6ccd41ad312451b948a7413f0a142fd40d49347942adc25665018aa1fe0e6bc666dac8fc2697ff9baa0acc10252527628bf8c2b0b1481df17067d34d302d3c2223839ea4af1fd3b6fc8a056e81f171bcc55a6ff8345e692c0f86e5b48e01b996cadc001622fb5e363b421a056e81f171bcc55a6ff8345e692c0f86e5b48e01b996cadc001622fb5e363b421b9010000000000000000000000000000000000000000000000000000000000000000000000000000000000000000000000000000000000000000000000000000000000000000000000000000000000000000000000000000000000000000000000000000000000000000000000000000000000000000000000000000000000000000000000000000000000000000000000000000000000000000000000000000000000000000000000000000000000000000000000000000000000000000000000000000000000000000000000000000000000000000000000000000000000000000000000000000000000000000000000000000000000000000000000000000000000830200008083989680808203b642a056e81f171bcc55a6ff8345e692c0f86e5b48e01b996cadc001622fb5e363b421880102030405060708c0c0",
        "lastblockhash" : "0x9aba88315e99dba99f6a0be96b03b61c15671286e2b2dbe564574192be7e533e",
        "network" : "ConstantinopleFix",
        "postState" : {
            "0x1000000000000000000000000000000000000000" : {
                "balance" : "0x00",
                "code" : "0x6000600060006000346000355af16000555a600155",
                "nonce" : "0x00",
                "storage" : {
                    "0x00" : "0x01",
                    "0x01" : "0x962352"
                }
            },
            "0x195e7baea6a6c7c4c2dfeb977efac326af552d87" : {
                "balance" : "0x0de0b6b3a7640000",
                "code" : "0x600060006000600073245304eb96065b2a98b57a48a06ae28d285a71b5620186a0fa585273945304eb96065b2a98b57a48a06ae28d285a71b5ff",
                "nonce" : "0x00",
                "storage" : {
                }
            },
            "0x245304eb96065b2a98b57a48a06ae28d285a71b5" : {
                "balance" : "0x17",
                "code" : "0x600060006000600073195e7baea6a6c7c4c2dfeb977efac326af552d8761c350fa6001015852",
                "nonce" : "0x00",
                "storage" : {
                }
            },
            "0x2adc25665018aa1fe0e6bc666dac8fc2697ff9ba" : {
                "balance" : "0x1bc16d674eca6391",
                "code" : "",
                "nonce" : "0x00",
                "storage" : {
                }
            },
            "0x945304eb96065b2a98b57a48a06ae28d285a71b5" : {
                "balance" : "0x0de0b6b3a76586b7",
                "code" : "0x600060006000600073095e7baea6a6c7c4c2dfeb977efac326af552d8761c350fa6001015855",
                "nonce" : "0x00",
                "storage" : {
                }
            },
            "0xa94f5374fce5edbc8e2a8697c15331677e6ebf0b" : {
                "balance" : "0x0de0b6b3a76015cf",
                "code" : "",
                "nonce" : "0x01",
                "storage" : {
                }
            }
        },
        "pre" : {
            "0x095e7baea6a6c7c4c2dfeb977efac326af552d87" : {
                "balance" : "0x0de0b6b3a7640000",
                "code" : "0x600060006000600073945304eb96065b2a98b57a48a06ae28d285a71b5620186a0fa585573945304eb96065b2a98b57a48a06ae28d285a71b5ff",
                "nonce" : "0x00",
                "storage" : {
                }
            },
            "0x1000000000000000000000000000000000000000" : {
                "balance" : "0x00",
                "code" : "0x6000600060006000346000355af16000555a600155",
                "nonce" : "0x00",
                "storage" : {
                }
            },
            "0x195e7baea6a6c7c4c2dfeb977efac326af552d87" : {
                "balance" : "0x0de0b6b3a7640000",
                "code" : "0x600060006000600073245304eb96065b2a98b57a48a06ae28d285a71b5620186a0fa585273945304eb96065b2a98b57a48a06ae28d285a71b5ff",
                "nonce" : "0x00",
                "storage" : {
                }
            },
            "0x245304eb96065b2a98b57a48a06ae28d285a71b5" : {
                "balance" : "0x17",
                "code" : "0x600060006000600073195e7baea6a6c7c4c2dfeb977efac326af552d8761c350fa6001015852",
                "nonce" : "0x00",
                "storage" : {
                }
            },
            "0x945304eb96065b2a98b57a48a06ae28d285a71b5" : {
                "balance" : "0x17",
                "code" : "0x600060006000600073095e7baea6a6c7c4c2dfeb977efac326af552d8761c350fa6001015855",
                "nonce" : "0x00",
                "storage" : {
                }
            },
            "0xa94f5374fce5edbc8e2a8697c15331677e6ebf0b" : {
                "balance" : "0x0de0b6b3a7640000",
                "code" : "",
                "nonce" : "0x00",
                "storage" : {
                }
            }
        },
        "sealEngine" : "NoProof"
    }
}