{
    "static_callcallcodecall_ABCB_RECURSIVE_d0g0v0_EIP150" : {
        "_info" : {
            "comment" : "",
            "filledwith" : "cpp-1.3.0+commit.16292201.Linux.g++",
            "source" : "/src/GenStateTestAsBcTemp/stStaticCall/static_callcallcodecall_ABCB_RECURSIVE_d0g0v0Filler.json"
        },
        "blocks" : [
            {
                "blockHeader" : {
                    "bloom" : "0x00000000000000000000000000000000000000000000000000000000000000000000000000000000000000000000000000000000000000000000000000000000000000000000000000000000000000000000000000000000000000000000000000000000000000000000000000000000000000000000000000000000000000000000000000000000000000000000000000000000000000000000000000000000000000000000000000000000000000000000000000000000000000000000000000000000000000000000000000000000000000000000000000000000000000000000000000000000000000000000000000000000000000000000000000000000",
                    "coinbase" : "0x2adc25665018aa1fe0e6bc666dac8fc2697ff9ba",
                    "difficulty" : "0x020000",
                    "extraData" : "",
                    "gasLimit" : "0xb2d05e00",
                    "gasUsed" : "0x01c9c380",
                    "hash" : "0xfb53f58b13e85f4913813af0d5c3a72b2d2698f075eb27face74046769019bf0",
                    "mixHash" : "0x08d8160749d9981e6a1145b075a1c191f69d0539d2f960b03e5a111cd931ec6e",
                    "nonce" : "0x39b5429d11b71ccb",
                    "number" : "0x01",
                    "parentHash" : "0x03ca2f6d954f3b932ce448412998adb27df6391067a955f7edaa30dccd27d8e1",
                    "receiptTrie" : "0x20921252bc9a1f64c3c153a72a463d81df1f1a85b7d265d719802e127c15e9ca",
                    "stateRoot" : "0x935f981c4814a6c64bd9bb321db8f18844b95c7bd5ca78299a6746ad0be6285b",
                    "timestamp" : "0x03e8",
                    "transactionsTrie" : "0x6488b1eb775a36511b144fdf6f3b4ac280e5c90ef7ff99c833b5648a1a534477",
                    "uncleHash" : "0x1dcc4de8dec75d7aab85b567b6ccd41ad312451b948a7413f0a142fd40d49347"
                },
                "rlp" : "0xf90263f901faa003ca2f6d954f3b932ce448412998adb27df6391067a955f7edaa30dccd27d8e1a01dcc4de8dec75d7aab85b567b6ccd41ad312451b948a7413f0a142fd40d49347942adc25665018aa1fe0e6bc666dac8fc2697ff9baa0935f981c4814a6c64bd9bb321db8f18844b95c7bd5ca78299a6746ad0be6285ba06488b1eb775a36511b144fdf6f3b4ac280e5c90ef7ff99c833b5648a1a534477a020921252bc9a1f64c3c153a72a463d81df1f1a85b7d265d719802e127c15e9cab9010000000000000000000000000000000000000000000000000000000000000000000000000000000000000000000000000000000000000000000000000000000000000000000000000000000000000000000000000000000000000000000000000000000000000000000000000000000000000000000000000000000000000000000000000000000000000000000000000000000000000000000000000000000000000000000000000000000000000000000000000000000000000000000000000000000000000000000000000000000000000000000000000000000000000000000000000000000000000000000000000000000000000000000000000000000000830200000184b2d05e008401c9c3808203e880a008d8160749d9981e6a1145b075a1c191f69d0539d2f960b03e5a111cd931ec6e8839b5429d11b71ccbf863f86180018401c9c38094100000000000000000000000000000000000000080801ca03e4d54de189f528bc53f0d074377af1163f9485eed1f8cd3d16c476e147b426ba05c69650f46a2a5ef790ba203bbf1c4762eed89071ff84d32035517d09e836e33c0",
                "transactions" : [
                    {
                        "data" : "",
                        "gasLimit" : "0x01c9c380",
                        "gasPrice" : "0x01",
                        "nonce" : "0x00",
                        "r" : "0x3e4d54de189f528bc53f0d074377af1163f9485eed1f8cd3d16c476e147b426b",
                        "s" : "0x5c69650f46a2a5ef790ba203bbf1c4762eed89071ff84d32035517d09e836e33",
                        "to" : "0x1000000000000000000000000000000000000000",
                        "v" : "0x1c",
                        "value" : "0x00"
                    }
                ],
                "uncleHeaders" : [
                ]
            }
        ],
        "genesisBlockHeader" : {
            "bloom" : "0x00000000000000000000000000000000000000000000000000000000000000000000000000000000000000000000000000000000000000000000000000000000000000000000000000000000000000000000000000000000000000000000000000000000000000000000000000000000000000000000000000000000000000000000000000000000000000000000000000000000000000000000000000000000000000000000000000000000000000000000000000000000000000000000000000000000000000000000000000000000000000000000000000000000000000000000000000000000000000000000000000000000000000000000000000000000",
            "coinbase" : "0x2adc25665018aa1fe0e6bc666dac8fc2697ff9ba",
            "difficulty" : "0x020000",
            "extraData" : "0x42",
            "gasLimit" : "0xb2d05e00",
            "gasUsed" : "0x00",
            "hash" : "0x03ca2f6d954f3b932ce448412998adb27df6391067a955f7edaa30dccd27d8e1",
            "mixHash" : "0x56e81f171bcc55a6ff8345e692c0f86e5b48e01b996cadc001622fb5e363b421",
            "nonce" : "0x0102030405060708",
            "number" : "0x00",
            "parentHash" : "0x0000000000000000000000000000000000000000000000000000000000000000",
            "receiptTrie" : "0x56e81f171bcc55a6ff8345e692c0f86e5b48e01b996cadc001622fb5e363b421",
            "stateRoot" : "0xc6832871b502d1a53cf2f1ec5115ab596caef3a0cabb49ecbd24def87552b185",
            "timestamp" : "0x03b6",
            "transactionsTrie" : "0x56e81f171bcc55a6ff8345e692c0f86e5b48e01b996cadc001622fb5e363b421",
            "uncleHash" : "0x1dcc4de8dec75d7aab85b567b6ccd41ad312451b948a7413f0a142fd40d49347"
        },
        "genesisRLP" : "0xf901fbf901f6a00000000000000000000000000000000000000000000000000000000000000000a01dcc4de8dec75d7aab85b567b6ccd41ad312451b948a7413f0a142fd40d49347942adc25665018aa1fe0e6bc666dac8fc2697ff9baa0c6832871b502d1a53cf2f1ec5115ab596caef3a0cabb49ecbd24def87552b185a056e81f171bcc55a6ff8345e692c0f86e5b48e01b996cadc001622fb5e363b421a056e81f171bcc55a6ff8345e692c0f86e5b48e01b996cadc001622fb5e363b421b9010000000000000000000000000000000000000000000000000000000000000000000000000000000000000000000000000000000000000000000000000000000000000000000000000000000000000000000000000000000000000000000000000000000000000000000000000000000000000000000000000000000000000000000000000000000000000000000000000000000000000000000000000000000000000000000000000000000000000000000000000000000000000000000000000000000000000000000000000000000000000000000000000000000000000000000000000000000000000000000000000000000000000000000000000000000000830200008084b2d05e00808203b642a056e81f171bcc55a6ff8345e692c0f86e5b48e01b996cadc001622fb5e363b421880102030405060708c0c0",
        "lastblockhash" : "0xfb53f58b13e85f4913813af0d5c3a72b2d2698f075eb27face74046769019bf0",
        "network" : "EIP150",
        "postState" : {
            "0x1000000000000000000000000000000000000000" : {
                "balance" : "0x0de0b6b3a7640000",
                "code" : "0x604060006040600073100000000000000000000000000000000000000163017d7840fa6000555a600155",
                "nonce" : "0x00",
                "storage" : {
                }
            },
            "0x1000000000000000000000000000000000000001" : {
                "balance" : "0x02540be400",
                "code" : "0x6040600060406000731000000000000000000000000000000000000002620f4240f4",
                "nonce" : "0x00",
                "storage" : {
                }
            },
            "0x1000000000000000000000000000000000000002" : {
                "balance" : "0x02540be400",
                "code" : "0x60406000604060007310000000000000000000000000000000000000016207a120fa",
                "nonce" : "0x00",
                "storage" : {
                }
            },
            "0x2adc25665018aa1fe0e6bc666dac8fc2697ff9ba" : {
                "balance" : "0x4563918246bdc380",
                "code" : "",
                "nonce" : "0x00",
                "storage" : {
                }
            },
            "0xa94f5374fce5edbc8e2a8697c15331677e6ebf0b" : {
                "balance" : "0x0de0b6b3a59a3c80",
                "code" : "",
                "nonce" : "0x01",
                "storage" : {
                }
            }
        },
        "pre" : {
            "0x1000000000000000000000000000000000000000" : {
                "balance" : "0x0de0b6b3a7640000",
                "code" : "0x604060006040600073100000000000000000000000000000000000000163017d7840fa6000555a600155",
                "nonce" : "0x00",
                "storage" : {
                }
            },
            "0x1000000000000000000000000000000000000001" : {
                "balance" : "0x02540be400",
                "code" : "0x6040600060406000731000000000000000000000000000000000000002620f4240f4",
                "nonce" : "0x00",
                "storage" : {
                }
            },
            "0x1000000000000000000000000000000000000002" : {
                "balance" : "0x02540be400",
                "code" : "0x60406000604060007310000000000000000000000000000000000000016207a120fa",
                "nonce" : "0x00",
                "storage" : {
                }
            },
            "0xa94f5374fce5edbc8e2a8697c15331677e6ebf0b" : {
                "balance" : "0x0de0b6b3a7640000",
                "code" : "",
                "nonce" : "0x00",
                "storage" : {
                }
            }
        }
    },
    "static_callcallcodecall_ABCB_RECURSIVE_d0g0v0_EIP158" : {
        "_info" : {
            "comment" : "",
            "filledwith" : "cpp-1.3.0+commit.16292201.Linux.g++",
            "source" : "/src/GenStateTestAsBcTemp/stStaticCall/static_callcallcodecall_ABCB_RECURSIVE_d0g0v0Filler.json"
        },
        "blocks" : [
            {
                "blockHeader" : {
                    "bloom" : "0x00000000000000000000000000000000000000000000000000000000000000000000000000000000000000000000000000000000000000000000000000000000000000000000000000000000000000000000000000000000000000000000000000000000000000000000000000000000000000000000000000000000000000000000000000000000000000000000000000000000000000000000000000000000000000000000000000000000000000000000000000000000000000000000000000000000000000000000000000000000000000000000000000000000000000000000000000000000000000000000000000000000000000000000000000000000",
                    "coinbase" : "0x2adc25665018aa1fe0e6bc666dac8fc2697ff9ba",
                    "difficulty" : "0x020000",
                    "extraData" : "",
                    "gasLimit" : "0xb2d05e00",
                    "gasUsed" : "0x01c9c380",
                    "hash" : "0x328ee5469ab315e9f3d3fca7cf680dd2833791a4c09935f448c94ffc2a3bc7c1",
                    "mixHash" : "0x3318ff145b4012d26d0223ae6b5fbfbce4fa2113833544c0b60e2d5d5a4f7c10",
                    "nonce" : "0x71195befd37cc21f",
                    "number" : "0x01",
                    "parentHash" : "0x03ca2f6d954f3b932ce448412998adb27df6391067a955f7edaa30dccd27d8e1",
                    "receiptTrie" : "0x20921252bc9a1f64c3c153a72a463d81df1f1a85b7d265d719802e127c15e9ca",
                    "stateRoot" : "0x935f981c4814a6c64bd9bb321db8f18844b95c7bd5ca78299a6746ad0be6285b",
                    "timestamp" : "0x03e8",
                    "transactionsTrie" : "0x6488b1eb775a36511b144fdf6f3b4ac280e5c90ef7ff99c833b5648a1a534477",
                    "uncleHash" : "0x1dcc4de8dec75d7aab85b567b6ccd41ad312451b948a7413f0a142fd40d49347"
                },
                "rlp" : "0xf90263f901faa003ca2f6d954f3b932ce448412998adb27df6391067a955f7edaa30dccd27d8e1a01dcc4de8dec75d7aab85b567b6ccd41ad312451b948a7413f0a142fd40d49347942adc25665018aa1fe0e6bc666dac8fc2697ff9baa0935f981c4814a6c64bd9bb321db8f18844b95c7bd5ca78299a6746ad0be6285ba06488b1eb775a36511b144fdf6f3b4ac280e5c90ef7ff99c833b5648a1a534477a020921252bc9a1f64c3c153a72a463d81df1f1a85b7d265d719802e127c15e9cab9010000000000000000000000000000000000000000000000000000000000000000000000000000000000000000000000000000000000000000000000000000000000000000000000000000000000000000000000000000000000000000000000000000000000000000000000000000000000000000000000000000000000000000000000000000000000000000000000000000000000000000000000000000000000000000000000000000000000000000000000000000000000000000000000000000000000000000000000000000000000000000000000000000000000000000000000000000000000000000000000000000000000000000000000000000000000830200000184b2d05e008401c9c3808203e880a03318ff145b4012d26d0223ae6b5fbfbce4fa2113833544c0b60e2d5d5a4f7c108871195befd37cc21ff863f86180018401c9c38094100000000000000000000000000000000000000080801ca03e4d54de189f528bc53f0d074377af1163f9485eed1f8cd3d16c476e147b426ba05c69650f46a2a5ef790ba203bbf1c4762eed89071ff84d32035517d09e836e33c0",
                "transactions" : [
                    {
                        "data" : "",
                        "gasLimit" : "0x01c9c380",
                        "gasPrice" : "0x01",
                        "nonce" : "0x00",
                        "r" : "0x3e4d54de189f528bc53f0d074377af1163f9485eed1f8cd3d16c476e147b426b",
                        "s" : "0x5c69650f46a2a5ef790ba203bbf1c4762eed89071ff84d32035517d09e836e33",
                        "to" : "0x1000000000000000000000000000000000000000",
                        "v" : "0x1c",
                        "value" : "0x00"
                    }
                ],
                "uncleHeaders" : [
                ]
            }
        ],
        "genesisBlockHeader" : {
            "bloom" : "0x00000000000000000000000000000000000000000000000000000000000000000000000000000000000000000000000000000000000000000000000000000000000000000000000000000000000000000000000000000000000000000000000000000000000000000000000000000000000000000000000000000000000000000000000000000000000000000000000000000000000000000000000000000000000000000000000000000000000000000000000000000000000000000000000000000000000000000000000000000000000000000000000000000000000000000000000000000000000000000000000000000000000000000000000000000000",
            "coinbase" : "0x2adc25665018aa1fe0e6bc666dac8fc2697ff9ba",
            "difficulty" : "0x020000",
            "extraData" : "0x42",
            "gasLimit" : "0xb2d05e00",
            "gasUsed" : "0x00",
            "hash" : "0x03ca2f6d954f3b932ce448412998adb27df6391067a955f7edaa30dccd27d8e1",
            "mixHash" : "0x56e81f171bcc55a6ff8345e692c0f86e5b48e01b996cadc001622fb5e363b421",
            "nonce" : "0x0102030405060708",
            "number" : "0x00",
            "parentHash" : "0x0000000000000000000000000000000000000000000000000000000000000000",
            "receiptTrie" : "0x56e81f171bcc55a6ff8345e692c0f86e5b48e01b996cadc001622fb5e363b421",
            "stateRoot" : "0xc6832871b502d1a53cf2f1ec5115ab596caef3a0cabb49ecbd24def87552b185",
            "timestamp" : "0x03b6",
            "transactionsTrie" : "0x56e81f171bcc55a6ff8345e692c0f86e5b48e01b996cadc001622fb5e363b421",
            "uncleHash" : "0x1dcc4de8dec75d7aab85b567b6ccd41ad312451b948a7413f0a142fd40d49347"
        },
        "genesisRLP" : "0xf901fbf901f6a00000000000000000000000000000000000000000000000000000000000000000a01dcc4de8dec75d7aab85b567b6ccd41ad312451b948a7413f0a142fd40d49347942adc25665018aa1fe0e6bc666dac8fc2697ff9baa0c6832871b502d1a53cf2f1ec5115ab596caef3a0cabb49ecbd24def87552b185a056e81f171bcc55a6ff8345e692c0f86e5b48e01b996cadc001622fb5e363b421a056e81f171bcc55a6ff8345e692c0f86e5b48e01b996cadc001622fb5e363b421b9010000000000000000000000000000000000000000000000000000000000000000000000000000000000000000000000000000000000000000000000000000000000000000000000000000000000000000000000000000000000000000000000000000000000000000000000000000000000000000000000000000000000000000000000000000000000000000000000000000000000000000000000000000000000000000000000000000000000000000000000000000000000000000000000000000000000000000000000000000000000000000000000000000000000000000000000000000000000000000000000000000000000000000000000000000000000830200008084b2d05e00808203b642a056e81f171bcc55a6ff8345e692c0f86e5b48e01b996cadc001622fb5e363b421880102030405060708c0c0",
        "lastblockhash" : "0x328ee5469ab315e9f3d3fca7cf680dd2833791a4c09935f448c94ffc2a3bc7c1",
        "network" : "EIP158",
        "postState" : {
            "0x1000000000000000000000000000000000000000" : {
                "balance" : "0x0de0b6b3a7640000",
                "code" : "0x604060006040600073100000000000000000000000000000000000000163017d7840fa6000555a600155",
                "nonce" : "0x00",
                "storage" : {
                }
            },
            "0x1000000000000000000000000000000000000001" : {
                "balance" : "0x02540be400",
                "code" : "0x6040600060406000731000000000000000000000000000000000000002620f4240f4",
                "nonce" : "0x00",
                "storage" : {
                }
            },
            "0x1000000000000000000000000000000000000002" : {
                "balance" : "0x02540be400",
                "code" : "0x60406000604060007310000000000000000000000000000000000000016207a120fa",
                "nonce" : "0x00",
                "storage" : {
                }
            },
            "0x2adc25665018aa1fe0e6bc666dac8fc2697ff9ba" : {
                "balance" : "0x4563918246bdc380",
                "code" : "",
                "nonce" : "0x00",
                "storage" : {
                }
            },
            "0xa94f5374fce5edbc8e2a8697c15331677e6ebf0b" : {
                "balance" : "0x0de0b6b3a59a3c80",
                "code" : "",
                "nonce" : "0x01",
                "storage" : {
                }
            }
        },
        "pre" : {
            "0x1000000000000000000000000000000000000000" : {
                "balance" : "0x0de0b6b3a7640000",
                "code" : "0x604060006040600073100000000000000000000000000000000000000163017d7840fa6000555a600155",
                "nonce" : "0x00",
                "storage" : {
                }
            },
            "0x1000000000000000000000000000000000000001" : {
                "balance" : "0x02540be400",
                "code" : "0x6040600060406000731000000000000000000000000000000000000002620f4240f4",
                "nonce" : "0x00",
                "storage" : {
                }
            },
            "0x1000000000000000000000000000000000000002" : {
                "balance" : "0x02540be400",
                "code" : "0x60406000604060007310000000000000000000000000000000000000016207a120fa",
                "nonce" : "0x00",
                "storage" : {
                }
            },
            "0xa94f5374fce5edbc8e2a8697c15331677e6ebf0b" : {
                "balance" : "0x0de0b6b3a7640000",
                "code" : "",
                "nonce" : "0x00",
                "storage" : {
                }
            }
        }
    },
    "static_callcallcodecall_ABCB_RECURSIVE_d0g0v0_Frontier" : {
        "_info" : {
            "comment" : "",
            "filledwith" : "cpp-1.3.0+commit.16292201.Linux.g++",
            "source" : "/src/GenStateTestAsBcTemp/stStaticCall/static_callcallcodecall_ABCB_RECURSIVE_d0g0v0Filler.json"
        },
        "blocks" : [
            {
                "blockHeader" : {
                    "bloom" : "0x00000000000000000000000000000000000000000000000000000000000000000000000000000000000000000000000000000000000000000000000000000000000000000000000000000000000000000000000000000000000000000000000000000000000000000000000000000000000000000000000000000000000000000000000000000000000000000000000000000000000000000000000000000000000000000000000000000000000000000000000000000000000000000000000000000000000000000000000000000000000000000000000000000000000000000000000000000000000000000000000000000000000000000000000000000000",
                    "coinbase" : "0x2adc25665018aa1fe0e6bc666dac8fc2697ff9ba",
                    "difficulty" : "0x020000",
                    "extraData" : "",
                    "gasLimit" : "0xb2d05e00",
                    "gasUsed" : "0x01c9c380",
                    "hash" : "0x24229451c5e16cbf53016b29227b390a61345747da5df11e1feb3dae3c14bb35",
                    "mixHash" : "0xd6dbb60fb9e7f2d4c16f0664386fd5876bbf4a3ced2289e15f3b2ec650d7aafe",
                    "nonce" : "0x56621c09be638f30",
                    "number" : "0x01",
                    "parentHash" : "0x03ca2f6d954f3b932ce448412998adb27df6391067a955f7edaa30dccd27d8e1",
                    "receiptTrie" : "0x20921252bc9a1f64c3c153a72a463d81df1f1a85b7d265d719802e127c15e9ca",
                    "stateRoot" : "0x935f981c4814a6c64bd9bb321db8f18844b95c7bd5ca78299a6746ad0be6285b",
                    "timestamp" : "0x03e8",
                    "transactionsTrie" : "0x6488b1eb775a36511b144fdf6f3b4ac280e5c90ef7ff99c833b5648a1a534477",
                    "uncleHash" : "0x1dcc4de8dec75d7aab85b567b6ccd41ad312451b948a7413f0a142fd40d49347"
                },
                "rlp" : "0xf90263f901faa003ca2f6d954f3b932ce448412998adb27df6391067a955f7edaa30dccd27d8e1a01dcc4de8dec75d7aab85b567b6ccd41ad312451b948a7413f0a142fd40d49347942adc25665018aa1fe0e6bc666dac8fc2697ff9baa0935f981c4814a6c64bd9bb321db8f18844b95c7bd5ca78299a6746ad0be6285ba06488b1eb775a36511b144fdf6f3b4ac280e5c90ef7ff99c833b5648a1a534477a020921252bc9a1f64c3c153a72a463d81df1f1a85b7d265d719802e127c15e9cab9010000000000000000000000000000000000000000000000000000000000000000000000000000000000000000000000000000000000000000000000000000000000000000000000000000000000000000000000000000000000000000000000000000000000000000000000000000000000000000000000000000000000000000000000000000000000000000000000000000000000000000000000000000000000000000000000000000000000000000000000000000000000000000000000000000000000000000000000000000000000000000000000000000000000000000000000000000000000000000000000000000000000000000000000000000000000830200000184b2d05e008401c9c3808203e880a0d6dbb60fb9e7f2d4c16f0664386fd5876bbf4a3ced2289e15f3b2ec650d7aafe8856621c09be638f30f863f86180018401c9c38094100000000000000000000000000000000000000080801ca03e4d54de189f528bc53f0d074377af1163f9485eed1f8cd3d16c476e147b426ba05c69650f46a2a5ef790ba203bbf1c4762eed89071ff84d32035517d09e836e33c0",
                "transactions" : [
                    {
                        "data" : "",
                        "gasLimit" : "0x01c9c380",
                        "gasPrice" : "0x01",
                        "nonce" : "0x00",
                        "r" : "0x3e4d54de189f528bc53f0d074377af1163f9485eed1f8cd3d16c476e147b426b",
                        "s" : "0x5c69650f46a2a5ef790ba203bbf1c4762eed89071ff84d32035517d09e836e33",
                        "to" : "0x1000000000000000000000000000000000000000",
                        "v" : "0x1c",
                        "value" : "0x00"
                    }
                ],
                "uncleHeaders" : [
                ]
            }
        ],
        "genesisBlockHeader" : {
            "bloom" : "0x00000000000000000000000000000000000000000000000000000000000000000000000000000000000000000000000000000000000000000000000000000000000000000000000000000000000000000000000000000000000000000000000000000000000000000000000000000000000000000000000000000000000000000000000000000000000000000000000000000000000000000000000000000000000000000000000000000000000000000000000000000000000000000000000000000000000000000000000000000000000000000000000000000000000000000000000000000000000000000000000000000000000000000000000000000000",
            "coinbase" : "0x2adc25665018aa1fe0e6bc666dac8fc2697ff9ba",
            "difficulty" : "0x020000",
            "extraData" : "0x42",
            "gasLimit" : "0xb2d05e00",
            "gasUsed" : "0x00",
            "hash" : "0x03ca2f6d954f3b932ce448412998adb27df6391067a955f7edaa30dccd27d8e1",
            "mixHash" : "0x56e81f171bcc55a6ff8345e692c0f86e5b48e01b996cadc001622fb5e363b421",
            "nonce" : "0x0102030405060708",
            "number" : "0x00",
            "parentHash" : "0x0000000000000000000000000000000000000000000000000000000000000000",
            "receiptTrie" : "0x56e81f171bcc55a6ff8345e692c0f86e5b48e01b996cadc001622fb5e363b421",
            "stateRoot" : "0xc6832871b502d1a53cf2f1ec5115ab596caef3a0cabb49ecbd24def87552b185",
            "timestamp" : "0x03b6",
            "transactionsTrie" : "0x56e81f171bcc55a6ff8345e692c0f86e5b48e01b996cadc001622fb5e363b421",
            "uncleHash" : "0x1dcc4de8dec75d7aab85b567b6ccd41ad312451b948a7413f0a142fd40d49347"
        },
        "genesisRLP" : "0xf901fbf901f6a00000000000000000000000000000000000000000000000000000000000000000a01dcc4de8dec75d7aab85b567b6ccd41ad312451b948a7413f0a142fd40d49347942adc25665018aa1fe0e6bc666dac8fc2697ff9baa0c6832871b502d1a53cf2f1ec5115ab596caef3a0cabb49ecbd24def87552b185a056e81f171bcc55a6ff8345e692c0f86e5b48e01b996cadc001622fb5e363b421a056e81f171bcc55a6ff8345e692c0f86e5b48e01b996cadc001622fb5e363b421b9010000000000000000000000000000000000000000000000000000000000000000000000000000000000000000000000000000000000000000000000000000000000000000000000000000000000000000000000000000000000000000000000000000000000000000000000000000000000000000000000000000000000000000000000000000000000000000000000000000000000000000000000000000000000000000000000000000000000000000000000000000000000000000000000000000000000000000000000000000000000000000000000000000000000000000000000000000000000000000000000000000000000000000000000000000000000830200008084b2d05e00808203b642a056e81f171bcc55a6ff8345e692c0f86e5b48e01b996cadc001622fb5e363b421880102030405060708c0c0",
        "lastblockhash" : "0x24229451c5e16cbf53016b29227b390a61345747da5df11e1feb3dae3c14bb35",
        "network" : "Frontier",
        "postState" : {
            "0x1000000000000000000000000000000000000000" : {
                "balance" : "0x0de0b6b3a7640000",
                "code" : "0x604060006040600073100000000000000000000000000000000000000163017d7840fa6000555a600155",
                "nonce" : "0x00",
                "storage" : {
                }
            },
            "0x1000000000000000000000000000000000000001" : {
                "balance" : "0x02540be400",
                "code" : "0x6040600060406000731000000000000000000000000000000000000002620f4240f4",
                "nonce" : "0x00",
                "storage" : {
                }
            },
            "0x1000000000000000000000000000000000000002" : {
                "balance" : "0x02540be400",
                "code" : "0x60406000604060007310000000000000000000000000000000000000016207a120fa",
                "nonce" : "0x00",
                "storage" : {
                }
            },
            "0x2adc25665018aa1fe0e6bc666dac8fc2697ff9ba" : {
                "balance" : "0x4563918246bdc380",
                "code" : "",
                "nonce" : "0x00",
                "storage" : {
                }
            },
            "0xa94f5374fce5edbc8e2a8697c15331677e6ebf0b" : {
                "balance" : "0x0de0b6b3a59a3c80",
                "code" : "",
                "nonce" : "0x01",
                "storage" : {
                }
            }
        },
        "pre" : {
            "0x1000000000000000000000000000000000000000" : {
                "balance" : "0x0de0b6b3a7640000",
                "code" : "0x604060006040600073100000000000000000000000000000000000000163017d7840fa6000555a600155",
                "nonce" : "0x00",
                "storage" : {
                }
            },
            "0x1000000000000000000000000000000000000001" : {
                "balance" : "0x02540be400",
                "code" : "0x6040600060406000731000000000000000000000000000000000000002620f4240f4",
                "nonce" : "0x00",
                "storage" : {
                }
            },
            "0x1000000000000000000000000000000000000002" : {
                "balance" : "0x02540be400",
                "code" : "0x60406000604060007310000000000000000000000000000000000000016207a120fa",
                "nonce" : "0x00",
                "storage" : {
                }
            },
            "0xa94f5374fce5edbc8e2a8697c15331677e6ebf0b" : {
                "balance" : "0x0de0b6b3a7640000",
                "code" : "",
                "nonce" : "0x00",
                "storage" : {
                }
            }
        }
    },
    "static_callcallcodecall_ABCB_RECURSIVE_d0g0v0_Homestead" : {
        "_info" : {
            "comment" : "",
            "filledwith" : "cpp-1.3.0+commit.16292201.Linux.g++",
            "source" : "/src/GenStateTestAsBcTemp/stStaticCall/static_callcallcodecall_ABCB_RECURSIVE_d0g0v0Filler.json"
        },
        "blocks" : [
            {
                "blockHeader" : {
                    "bloom" : "0x00000000000000000000000000000000000000000000000000000000000000000000000000000000000000000000000000000000000000000000000000000000000000000000000000000000000000000000000000000000000000000000000000000000000000000000000000000000000000000000000000000000000000000000000000000000000000000000000000000000000000000000000000000000000000000000000000000000000000000000000000000000000000000000000000000000000000000000000000000000000000000000000000000000000000000000000000000000000000000000000000000000000000000000000000000000",
                    "coinbase" : "0x2adc25665018aa1fe0e6bc666dac8fc2697ff9ba",
                    "difficulty" : "0x020000",
                    "extraData" : "",
                    "gasLimit" : "0xb2d05e00",
                    "gasUsed" : "0x01c9c380",
                    "hash" : "0xb385493fd2d93356b26d6b6a1b2b5ba4c613663dbb74c64a14b8d8f4c3db1210",
                    "mixHash" : "0xee3ace2ee619fe75a10e8383827d9df067474fe51455388ff7c9c9483965c65f",
                    "nonce" : "0x16cdbdcf02496ade",
                    "number" : "0x01",
                    "parentHash" : "0x03ca2f6d954f3b932ce448412998adb27df6391067a955f7edaa30dccd27d8e1",
                    "receiptTrie" : "0x20921252bc9a1f64c3c153a72a463d81df1f1a85b7d265d719802e127c15e9ca",
                    "stateRoot" : "0x935f981c4814a6c64bd9bb321db8f18844b95c7bd5ca78299a6746ad0be6285b",
                    "timestamp" : "0x03e8",
                    "transactionsTrie" : "0x6488b1eb775a36511b144fdf6f3b4ac280e5c90ef7ff99c833b5648a1a534477",
                    "uncleHash" : "0x1dcc4de8dec75d7aab85b567b6ccd41ad312451b948a7413f0a142fd40d49347"
                },
                "rlp" : "0xf90263f901faa003ca2f6d954f3b932ce448412998adb27df6391067a955f7edaa30dccd27d8e1a01dcc4de8dec75d7aab85b567b6ccd41ad312451b948a7413f0a142fd40d49347942adc25665018aa1fe0e6bc666dac8fc2697ff9baa0935f981c4814a6c64bd9bb321db8f18844b95c7bd5ca78299a6746ad0be6285ba06488b1eb775a36511b144fdf6f3b4ac280e5c90ef7ff99c833b5648a1a534477a020921252bc9a1f64c3c153a72a463d81df1f1a85b7d265d719802e127c15e9cab9010000000000000000000000000000000000000000000000000000000000000000000000000000000000000000000000000000000000000000000000000000000000000000000000000000000000000000000000000000000000000000000000000000000000000000000000000000000000000000000000000000000000000000000000000000000000000000000000000000000000000000000000000000000000000000000000000000000000000000000000000000000000000000000000000000000000000000000000000000000000000000000000000000000000000000000000000000000000000000000000000000000000000000000000000000000000830200000184b2d05e008401c9c3808203e880a0ee3ace2ee619fe75a10e8383827d9df067474fe51455388ff7c9c9483965c65f8816cdbdcf02496adef863f86180018401c9c38094100000000000000000000000000000000000000080801ca03e4d54de189f528bc53f0d074377af1163f9485eed1f8cd3d16c476e147b426ba05c69650f46a2a5ef790ba203bbf1c4762eed89071ff84d32035517d09e836e33c0",
                "transactions" : [
                    {
                        "data" : "",
                        "gasLimit" : "0x01c9c380",
                        "gasPrice" : "0x01",
                        "nonce" : "0x00",
                        "r" : "0x3e4d54de189f528bc53f0d074377af1163f9485eed1f8cd3d16c476e147b426b",
                        "s" : "0x5c69650f46a2a5ef790ba203bbf1c4762eed89071ff84d32035517d09e836e33",
                        "to" : "0x1000000000000000000000000000000000000000",
                        "v" : "0x1c",
                        "value" : "0x00"
                    }
                ],
                "uncleHeaders" : [
                ]
            }
        ],
        "genesisBlockHeader" : {
            "bloom" : "0x00000000000000000000000000000000000000000000000000000000000000000000000000000000000000000000000000000000000000000000000000000000000000000000000000000000000000000000000000000000000000000000000000000000000000000000000000000000000000000000000000000000000000000000000000000000000000000000000000000000000000000000000000000000000000000000000000000000000000000000000000000000000000000000000000000000000000000000000000000000000000000000000000000000000000000000000000000000000000000000000000000000000000000000000000000000",
            "coinbase" : "0x2adc25665018aa1fe0e6bc666dac8fc2697ff9ba",
            "difficulty" : "0x020000",
            "extraData" : "0x42",
            "gasLimit" : "0xb2d05e00",
            "gasUsed" : "0x00",
            "hash" : "0x03ca2f6d954f3b932ce448412998adb27df6391067a955f7edaa30dccd27d8e1",
            "mixHash" : "0x56e81f171bcc55a6ff8345e692c0f86e5b48e01b996cadc001622fb5e363b421",
            "nonce" : "0x0102030405060708",
            "number" : "0x00",
            "parentHash" : "0x0000000000000000000000000000000000000000000000000000000000000000",
            "receiptTrie" : "0x56e81f171bcc55a6ff8345e692c0f86e5b48e01b996cadc001622fb5e363b421",
            "stateRoot" : "0xc6832871b502d1a53cf2f1ec5115ab596caef3a0cabb49ecbd24def87552b185",
            "timestamp" : "0x03b6",
            "transactionsTrie" : "0x56e81f171bcc55a6ff8345e692c0f86e5b48e01b996cadc001622fb5e363b421",
            "uncleHash" : "0x1dcc4de8dec75d7aab85b567b6ccd41ad312451b948a7413f0a142fd40d49347"
        },
        "genesisRLP" : "0xf901fbf901f6a00000000000000000000000000000000000000000000000000000000000000000a01dcc4de8dec75d7aab85b567b6ccd41ad312451b948a7413f0a142fd40d49347942adc25665018aa1fe0e6bc666dac8fc2697ff9baa0c6832871b502d1a53cf2f1ec5115ab596caef3a0cabb49ecbd24def87552b185a056e81f171bcc55a6ff8345e692c0f86e5b48e01b996cadc001622fb5e363b421a056e81f171bcc55a6ff8345e692c0f86e5b48e01b996cadc001622fb5e363b421b9010000000000000000000000000000000000000000000000000000000000000000000000000000000000000000000000000000000000000000000000000000000000000000000000000000000000000000000000000000000000000000000000000000000000000000000000000000000000000000000000000000000000000000000000000000000000000000000000000000000000000000000000000000000000000000000000000000000000000000000000000000000000000000000000000000000000000000000000000000000000000000000000000000000000000000000000000000000000000000000000000000000000000000000000000000000000830200008084b2d05e00808203b642a056e81f171bcc55a6ff8345e692c0f86e5b48e01b996cadc001622fb5e363b421880102030405060708c0c0",
        "lastblockhash" : "0xb385493fd2d93356b26d6b6a1b2b5ba4c613663dbb74c64a14b8d8f4c3db1210",
        "network" : "Homestead",
        "postState" : {
            "0x1000000000000000000000000000000000000000" : {
                "balance" : "0x0de0b6b3a7640000",
                "code" : "0x604060006040600073100000000000000000000000000000000000000163017d7840fa6000555a600155",
                "nonce" : "0x00",
                "storage" : {
                }
            },
            "0x1000000000000000000000000000000000000001" : {
                "balance" : "0x02540be400",
                "code" : "0x6040600060406000731000000000000000000000000000000000000002620f4240f4",
                "nonce" : "0x00",
                "storage" : {
                }
            },
            "0x1000000000000000000000000000000000000002" : {
                "balance" : "0x02540be400",
                "code" : "0x60406000604060007310000000000000000000000000000000000000016207a120fa",
                "nonce" : "0x00",
                "storage" : {
                }
            },
            "0x2adc25665018aa1fe0e6bc666dac8fc2697ff9ba" : {
                "balance" : "0x4563918246bdc380",
                "code" : "",
                "nonce" : "0x00",
                "storage" : {
                }
            },
            "0xa94f5374fce5edbc8e2a8697c15331677e6ebf0b" : {
                "balance" : "0x0de0b6b3a59a3c80",
                "code" : "",
                "nonce" : "0x01",
                "storage" : {
                }
            }
        },
        "pre" : {
            "0x1000000000000000000000000000000000000000" : {
                "balance" : "0x0de0b6b3a7640000",
                "code" : "0x604060006040600073100000000000000000000000000000000000000163017d7840fa6000555a600155",
                "nonce" : "0x00",
                "storage" : {
                }
            },
            "0x1000000000000000000000000000000000000001" : {
                "balance" : "0x02540be400",
                "code" : "0x6040600060406000731000000000000000000000000000000000000002620f4240f4",
                "nonce" : "0x00",
                "storage" : {
                }
            },
            "0x1000000000000000000000000000000000000002" : {
                "balance" : "0x02540be400",
                "code" : "0x60406000604060007310000000000000000000000000000000000000016207a120fa",
                "nonce" : "0x00",
                "storage" : {
                }
            },
            "0xa94f5374fce5edbc8e2a8697c15331677e6ebf0b" : {
                "balance" : "0x0de0b6b3a7640000",
                "code" : "",
                "nonce" : "0x00",
                "storage" : {
                }
            }
        }
    },
    "static_callcallcodecall_ABCB_RECURSIVE_d0g0v0_Metropolis" : {
        "_info" : {
            "comment" : "",
            "filledwith" : "cpp-1.3.0+commit.16292201.Linux.g++",
            "source" : "/src/GenStateTestAsBcTemp/stStaticCall/static_callcallcodecall_ABCB_RECURSIVE_d0g0v0Filler.json"
        },
        "blocks" : [
            {
                "blockHeader" : {
                    "bloom" : "0x00000000000000000000000000000000000000000000000000000000000000000000000000000000000000000000000000000000000000000000000000000000000000000000000000000000000000000000000000000000000000000000000000000000000000000000000000000000000000000000000000000000000000000000000000000000000000000000000000000000000000000000000000000000000000000000000000000000000000000000000000000000000000000000000000000000000000000000000000000000000000000000000000000000000000000000000000000000000000000000000000000000000000000000000000000000",
                    "coinbase" : "0x2adc25665018aa1fe0e6bc666dac8fc2697ff9ba",
                    "difficulty" : "0x020000",
                    "extraData" : "",
                    "gasLimit" : "0xb2d05e00",
                    "gasUsed" : "0x02b492",
                    "hash" : "0x5c94935b2ecea3f6990ae104b2ec9363b22d87b2e1f70739dd062a87f783753b",
                    "mixHash" : "0x3d44e472d4cb14ed43391078151d9036d56a93917e9e80eeab26464a3aa2eec4",
                    "nonce" : "0xb8e29ef45bf4864b",
                    "number" : "0x01",
                    "parentHash" : "0x03ca2f6d954f3b932ce448412998adb27df6391067a955f7edaa30dccd27d8e1",
                    "receiptTrie" : "0xaccd8c12105d938ce4d204689439e3d832f4950417a13ca0a7aa1dbbcdca9c33",
                    "stateRoot" : "0x2b9de03e9c24370b179525a6ac4d012cce9cf6046d8b5ce5a7d03ab3728b7a50",
                    "timestamp" : "0x03e8",
                    "transactionsTrie" : "0x6488b1eb775a36511b144fdf6f3b4ac280e5c90ef7ff99c833b5648a1a534477",
                    "uncleHash" : "0x1dcc4de8dec75d7aab85b567b6ccd41ad312451b948a7413f0a142fd40d49347"
                },
                "rlp" : "0xf90262f901f9a003ca2f6d954f3b932ce448412998adb27df6391067a955f7edaa30dccd27d8e1a01dcc4de8dec75d7aab85b567b6ccd41ad312451b948a7413f0a142fd40d49347942adc25665018aa1fe0e6bc666dac8fc2697ff9baa02b9de03e9c24370b179525a6ac4d012cce9cf6046d8b5ce5a7d03ab3728b7a50a06488b1eb775a36511b144fdf6f3b4ac280e5c90ef7ff99c833b5648a1a534477a0accd8c12105d938ce4d204689439e3d832f4950417a13ca0a7aa1dbbcdca9c33b9010000000000000000000000000000000000000000000000000000000000000000000000000000000000000000000000000000000000000000000000000000000000000000000000000000000000000000000000000000000000000000000000000000000000000000000000000000000000000000000000000000000000000000000000000000000000000000000000000000000000000000000000000000000000000000000000000000000000000000000000000000000000000000000000000000000000000000000000000000000000000000000000000000000000000000000000000000000000000000000000000000000000000000000000000000000000830200000184b2d05e008302b4928203e880a03d44e472d4cb14ed43391078151d9036d56a93917e9e80eeab26464a3aa2eec488b8e29ef45bf4864bf863f86180018401c9c38094100000000000000000000000000000000000000080801ca03e4d54de189f528bc53f0d074377af1163f9485eed1f8cd3d16c476e147b426ba05c69650f46a2a5ef790ba203bbf1c4762eed89071ff84d32035517d09e836e33c0",
                "transactions" : [
                    {
                        "data" : "",
                        "gasLimit" : "0x01c9c380",
                        "gasPrice" : "0x01",
                        "nonce" : "0x00",
                        "r" : "0x3e4d54de189f528bc53f0d074377af1163f9485eed1f8cd3d16c476e147b426b",
                        "s" : "0x5c69650f46a2a5ef790ba203bbf1c4762eed89071ff84d32035517d09e836e33",
                        "to" : "0x1000000000000000000000000000000000000000",
                        "v" : "0x1c",
                        "value" : "0x00"
                    }
                ],
                "uncleHeaders" : [
                ]
            }
        ],
        "genesisBlockHeader" : {
            "bloom" : "0x00000000000000000000000000000000000000000000000000000000000000000000000000000000000000000000000000000000000000000000000000000000000000000000000000000000000000000000000000000000000000000000000000000000000000000000000000000000000000000000000000000000000000000000000000000000000000000000000000000000000000000000000000000000000000000000000000000000000000000000000000000000000000000000000000000000000000000000000000000000000000000000000000000000000000000000000000000000000000000000000000000000000000000000000000000000",
            "coinbase" : "0x2adc25665018aa1fe0e6bc666dac8fc2697ff9ba",
            "difficulty" : "0x020000",
            "extraData" : "0x42",
            "gasLimit" : "0xb2d05e00",
            "gasUsed" : "0x00",
            "hash" : "0x03ca2f6d954f3b932ce448412998adb27df6391067a955f7edaa30dccd27d8e1",
            "mixHash" : "0x56e81f171bcc55a6ff8345e692c0f86e5b48e01b996cadc001622fb5e363b421",
            "nonce" : "0x0102030405060708",
            "number" : "0x00",
            "parentHash" : "0x0000000000000000000000000000000000000000000000000000000000000000",
            "receiptTrie" : "0x56e81f171bcc55a6ff8345e692c0f86e5b48e01b996cadc001622fb5e363b421",
            "stateRoot" : "0xc6832871b502d1a53cf2f1ec5115ab596caef3a0cabb49ecbd24def87552b185",
            "timestamp" : "0x03b6",
            "transactionsTrie" : "0x56e81f171bcc55a6ff8345e692c0f86e5b48e01b996cadc001622fb5e363b421",
            "uncleHash" : "0x1dcc4de8dec75d7aab85b567b6ccd41ad312451b948a7413f0a142fd40d49347"
        },
        "genesisRLP" : "0xf901fbf901f6a00000000000000000000000000000000000000000000000000000000000000000a01dcc4de8dec75d7aab85b567b6ccd41ad312451b948a7413f0a142fd40d49347942adc25665018aa1fe0e6bc666dac8fc2697ff9baa0c6832871b502d1a53cf2f1ec5115ab596caef3a0cabb49ecbd24def87552b185a056e81f171bcc55a6ff8345e692c0f86e5b48e01b996cadc001622fb5e363b421a056e81f171bcc55a6ff8345e692c0f86e5b48e01b996cadc001622fb5e363b421b9010000000000000000000000000000000000000000000000000000000000000000000000000000000000000000000000000000000000000000000000000000000000000000000000000000000000000000000000000000000000000000000000000000000000000000000000000000000000000000000000000000000000000000000000000000000000000000000000000000000000000000000000000000000000000000000000000000000000000000000000000000000000000000000000000000000000000000000000000000000000000000000000000000000000000000000000000000000000000000000000000000000000000000000000000000000000830200008084b2d05e00808203b642a056e81f171bcc55a6ff8345e692c0f86e5b48e01b996cadc001622fb5e363b421880102030405060708c0c0",
        "lastblockhash" : "0x5c94935b2ecea3f6990ae104b2ec9363b22d87b2e1f70739dd062a87f783753b",
        "network" : "Metropolis",
        "postState" : {
            "0x00000000000000000000000000000000000000f0" : {
                "balance" : "0x00",
                "code" : "",
                "nonce" : "0x00",
                "storage" : {
                }
            },
            "0x1000000000000000000000000000000000000000" : {
                "balance" : "0x0de0b6b3a7640000",
                "code" : "0x604060006040600073100000000000000000000000000000000000000163017d7840fa6000555a600155",
                "nonce" : "0x00",
                "storage" : {
                    "0x00" : "0x01",
                    "0x01" : "0x01c75d11"
                }
            },
            "0x1000000000000000000000000000000000000001" : {
                "balance" : "0x02540be400",
                "code" : "0x6040600060406000731000000000000000000000000000000000000002620f4240f4",
                "nonce" : "0x00",
                "storage" : {
                }
            },
            "0x1000000000000000000000000000000000000002" : {
                "balance" : "0x02540be400",
                "code" : "0x60406000604060007310000000000000000000000000000000000000016207a120fa",
                "nonce" : "0x00",
                "storage" : {
                }
            },
            "0x2adc25665018aa1fe0e6bc666dac8fc2697ff9ba" : {
                "balance" : "0x4563918244f6b492",
                "code" : "",
                "nonce" : "0x00",
                "storage" : {
                }
            },
            "0xa94f5374fce5edbc8e2a8697c15331677e6ebf0b" : {
                "balance" : "0x0de0b6b3a7614b6e",
                "code" : "",
                "nonce" : "0x01",
                "storage" : {
                }
            }
        },
        "pre" : {
            "0x1000000000000000000000000000000000000000" : {
                "balance" : "0x0de0b6b3a7640000",
                "code" : "0x604060006040600073100000000000000000000000000000000000000163017d7840fa6000555a600155",
                "nonce" : "0x00",
                "storage" : {
                }
            },
            "0x1000000000000000000000000000000000000001" : {
                "balance" : "0x02540be400",
                "code" : "0x6040600060406000731000000000000000000000000000000000000002620f4240f4",
                "nonce" : "0x00",
                "storage" : {
                }
            },
            "0x1000000000000000000000000000000000000002" : {
                "balance" : "0x02540be400",
                "code" : "0x60406000604060007310000000000000000000000000000000000000016207a120fa",
                "nonce" : "0x00",
                "storage" : {
                }
            },
            "0xa94f5374fce5edbc8e2a8697c15331677e6ebf0b" : {
                "balance" : "0x0de0b6b3a7640000",
                "code" : "",
                "nonce" : "0x00",
                "storage" : {
                }
            }
        }
    }
}