{
    "static_RevertOpcodeCalls_d0g0v0_Byzantium" : {
        "_info" : {
            "comment" : "",
            "filledwith" : "cpp-1.3.0+commit.6e0ce939.Linux.g++",
            "lllcversion" : "Version: 0.4.18-develop.2017.9.25+commit.a72237f2.Linux.g++",
            "source" : "src/BlockchainTestsFiller/GeneralStateTests/stStaticCall/static_RevertOpcodeCalls_d0g0v0Filler.json",
            "sourceHash" : "989eb80f91230da16feb09a08073b06b2d3849f36429c29529e7418d30b2ed39"
        },
        "blocks" : [
            {
                "blockHeader" : {
                    "bloom" : "0x00000000000000000000000000000000000000000000000000000000000000000000000000000000000000000000000000000000000000000000000000000000000000000000000000000000000000000000000000000000000000000000000000000000000000000000000000000000000000000000000000000000000000000000000000000000000000000000000000000000000000000000000000000000000000000000000000000000000000000000000000000000000000000000000000000000000000000000000000000000000000000000000000000000000000000000000000000000000000000000000000000000000000000000000000000000",
                    "coinbase" : "0x2adc25665018aa1fe0e6bc666dac8fc2697ff9ba",
                    "difficulty" : "0x020000",
                    "extraData" : "",
                    "gasLimit" : "0x989680",
                    "gasUsed" : "0xb690",
                    "hash" : "0x444cc7045ba9243c50cf8f1e6f41f772cf1f0665f7af99238a3a8fd054e11550",
                    "mixHash" : "0x5bca5b7248fe47406634ba61c51dea2477c0888f897403a18dfb94900d7e6d2b",
                    "nonce" : "0xa395e182e71060fe",
                    "number" : "0x01",
                    "parentHash" : "0xd4b0acca8c4275902b22dcda2eafa06c38dd282d600797309aa6ec6ad4542543",
                    "receiptTrie" : "0x7361caddafeede4026634eab45e54261ded8436ad6e0235e3e1fdb1da27defc5",
                    "stateRoot" : "0x6e1ecd6c54f38b756f0eb36aef7a1428f45a57fde28fc211f7c9eaef6a2e6874",
                    "timestamp" : "0x03e8",
                    "transactionsTrie" : "0x858b6b9b39c28953287b8d6a8874376832ca01d311ac153f36d8213128c73726",
                    "uncleHash" : "0x1dcc4de8dec75d7aab85b567b6ccd41ad312451b948a7413f0a142fd40d49347"
                },
                "rlp" : "0xf9025ff901f7a0d4b0acca8c4275902b22dcda2eafa06c38dd282d600797309aa6ec6ad4542543a01dcc4de8dec75d7aab85b567b6ccd41ad312451b948a7413f0a142fd40d49347942adc25665018aa1fe0e6bc666dac8fc2697ff9baa06e1ecd6c54f38b756f0eb36aef7a1428f45a57fde28fc211f7c9eaef6a2e6874a0858b6b9b39c28953287b8d6a8874376832ca01d311ac153f36d8213128c73726a07361caddafeede4026634eab45e54261ded8436ad6e0235e3e1fdb1da27defc5b901000000000000000000000000000000000000000000000000000000000000000000000000000000000000000000000000000000000000000000000000000000000000000000000000000000000000000000000000000000000000000000000000000000000000000000000000000000000000000000000000000000000000000000000000000000000000000000000000000000000000000000000000000000000000000000000000000000000000000000000000000000000000000000000000000000000000000000000000000000000000000000000000000000000000000000000000000000000000000000000000000000000000000000000000000000000083020000018398968082b6908203e880a05bca5b7248fe47406634ba61c51dea2477c0888f897403a18dfb94900d7e6d2b88a395e182e71060fef862f8608001830704e094094f5374fce5edbc8e2a8697c15331677e6ebf0b80801ba05fe8906d2e19060bd7d096165a0a40de18f0fe99a52ab1bbda34b7356147ec63a02788d200ca54c6bb43cf22cd5f47131ef36757acd6d4315114e7aa53080abb4fc0",
                "transactions" : [
                    {
                        "data" : "",
                        "gasLimit" : "0x0704e0",
                        "gasPrice" : "0x01",
                        "nonce" : "0x00",
                        "r" : "0x5fe8906d2e19060bd7d096165a0a40de18f0fe99a52ab1bbda34b7356147ec63",
                        "s" : "0x2788d200ca54c6bb43cf22cd5f47131ef36757acd6d4315114e7aa53080abb4f",
                        "to" : "0x094f5374fce5edbc8e2a8697c15331677e6ebf0b",
                        "v" : "0x1b",
                        "value" : "0x00"
                    }
                ],
                "uncleHeaders" : [
                ]
            }
        ],
        "genesisBlockHeader" : {
            "bloom" : "0x00000000000000000000000000000000000000000000000000000000000000000000000000000000000000000000000000000000000000000000000000000000000000000000000000000000000000000000000000000000000000000000000000000000000000000000000000000000000000000000000000000000000000000000000000000000000000000000000000000000000000000000000000000000000000000000000000000000000000000000000000000000000000000000000000000000000000000000000000000000000000000000000000000000000000000000000000000000000000000000000000000000000000000000000000000000",
            "coinbase" : "0x2adc25665018aa1fe0e6bc666dac8fc2697ff9ba",
            "difficulty" : "0x020000",
            "extraData" : "0x42",
            "gasLimit" : "0x989680",
            "gasUsed" : "0x00",
            "hash" : "0xd4b0acca8c4275902b22dcda2eafa06c38dd282d600797309aa6ec6ad4542543",
            "mixHash" : "0x56e81f171bcc55a6ff8345e692c0f86e5b48e01b996cadc001622fb5e363b421",
            "nonce" : "0x0102030405060708",
            "number" : "0x00",
            "parentHash" : "0x0000000000000000000000000000000000000000000000000000000000000000",
            "receiptTrie" : "0x56e81f171bcc55a6ff8345e692c0f86e5b48e01b996cadc001622fb5e363b421",
            "stateRoot" : "0xb02fdcf0bc763fcc882220ec1ca67f9cf17b9aec0a0f188e1d06e7db9f579491",
            "timestamp" : "0x03b6",
            "transactionsTrie" : "0x56e81f171bcc55a6ff8345e692c0f86e5b48e01b996cadc001622fb5e363b421",
            "uncleHash" : "0x1dcc4de8dec75d7aab85b567b6ccd41ad312451b948a7413f0a142fd40d49347"
        },
        "genesisRLP" : "0xf901faf901f5a00000000000000000000000000000000000000000000000000000000000000000a01dcc4de8dec75d7aab85b567b6ccd41ad312451b948a7413f0a142fd40d49347942adc25665018aa1fe0e6bc666dac8fc2697ff9baa0b02fdcf0bc763fcc882220ec1ca67f9cf17b9aec0a0f188e1d06e7db9f579491a056e81f171bcc55a6ff8345e692c0f86e5b48e01b996cadc001622fb5e363b421a056e81f171bcc55a6ff8345e692c0f86e5b48e01b996cadc001622fb5e363b421b9010000000000000000000000000000000000000000000000000000000000000000000000000000000000000000000000000000000000000000000000000000000000000000000000000000000000000000000000000000000000000000000000000000000000000000000000000000000000000000000000000000000000000000000000000000000000000000000000000000000000000000000000000000000000000000000000000000000000000000000000000000000000000000000000000000000000000000000000000000000000000000000000000000000000000000000000000000000000000000000000000000000000000000000000000000000000830200008083989680808203b642a056e81f171bcc55a6ff8345e692c0f86e5b48e01b996cadc001622fb5e363b421880102030405060708c0c0",
        "lastblockhash" : "0x444cc7045ba9243c50cf8f1e6f41f772cf1f0665f7af99238a3a8fd054e11550",
        "network" : "Byzantium",
        "postState" : {
            "0x094f5374fce5edbc8e2a8697c15331677e6ebf0b" : {
                "balance" : "0x01",
                "code" : "0x600060006000600073c94f5374fce5edbc8e2a8697c15331677e6ebf0b61c350fa6000556001600155",
                "nonce" : "0x00",
                "storage" : {
                    "0x01" : "0x01"
                }
            },
            "0x2adc25665018aa1fe0e6bc666dac8fc2697ff9ba" : {
                "balance" : "0x29a2241af62cb690",
                "code" : "",
                "nonce" : "0x00",
                "storage" : {
                }
            },
            "0xa94f5374fce5edbc8e2a8697c15331677e6ebf0b" : {
                "balance" : "0xe8d4a45970",
                "code" : "",
                "nonce" : "0x01",
                "storage" : {
                }
            },
            "0xc94f5374fce5edbc8e2a8697c15331677e6ebf0b" : {
                "balance" : "0x01",
                "code" : "0x60016000fd",
                "nonce" : "0x00",
                "storage" : {
                }
            }
        },
        "pre" : {
            "0x094f5374fce5edbc8e2a8697c15331677e6ebf0b" : {
                "balance" : "0x01",
                "code" : "0x600060006000600073c94f5374fce5edbc8e2a8697c15331677e6ebf0b61c350fa6000556001600155",
                "nonce" : "0x00",
                "storage" : {
                }
            },
            "0xa94f5374fce5edbc8e2a8697c15331677e6ebf0b" : {
                "balance" : "0xe8d4a51000",
                "code" : "",
                "nonce" : "0x00",
                "storage" : {
                }
            },
            "0xc94f5374fce5edbc8e2a8697c15331677e6ebf0b" : {
                "balance" : "0x01",
                "code" : "0x60016000fd",
                "nonce" : "0x00",
                "storage" : {
                }
            }
        }
    },
    "static_RevertOpcodeCalls_d0g0v0_EIP150" : {
        "_info" : {
            "comment" : "",
            "filledwith" : "cpp-1.3.0+commit.6e0ce939.Linux.g++",
            "lllcversion" : "Version: 0.4.18-develop.2017.9.25+commit.a72237f2.Linux.g++",
            "source" : "src/BlockchainTestsFiller/GeneralStateTests/stStaticCall/static_RevertOpcodeCalls_d0g0v0Filler.json",
            "sourceHash" : "989eb80f91230da16feb09a08073b06b2d3849f36429c29529e7418d30b2ed39"
        },
        "blocks" : [
            {
                "blockHeader" : {
                    "bloom" : "0x00000000000000000000000000000000000000000000000000000000000000000000000000000000000000000000000000000000000000000000000000000000000000000000000000000000000000000000000000000000000000000000000000000000000000000000000000000000000000000000000000000000000000000000000000000000000000000000000000000000000000000000000000000000000000000000000000000000000000000000000000000000000000000000000000000000000000000000000000000000000000000000000000000000000000000000000000000000000000000000000000000000000000000000000000000000",
                    "coinbase" : "0x2adc25665018aa1fe0e6bc666dac8fc2697ff9ba",
                    "difficulty" : "0x020000",
                    "extraData" : "",
                    "gasLimit" : "0x989680",
                    "gasUsed" : "0x0704e0",
                    "hash" : "0xf3906f34453a2805b1af8769a8038b37c2475e1c5bc3c018017abfce52bf80ae",
                    "mixHash" : "0x9174149fac192e1302dc8f748d90b1345b103f7bd0b1fa82acb56f0ece35dbb5",
                    "nonce" : "0x227bbc44cdbfa6d9",
                    "number" : "0x01",
                    "parentHash" : "0xd4b0acca8c4275902b22dcda2eafa06c38dd282d600797309aa6ec6ad4542543",
                    "receiptTrie" : "0x83889c2494dbb5f67b859a1145a6cc31cf0ab08d52127b957745d60773aa54cb",
                    "stateRoot" : "0xce91e2a3f77fd565d6d7041a1cdce7ee12b15be986db001f75cae2fca183b33d",
                    "timestamp" : "0x03e8",
                    "transactionsTrie" : "0x858b6b9b39c28953287b8d6a8874376832ca01d311ac153f36d8213128c73726",
                    "uncleHash" : "0x1dcc4de8dec75d7aab85b567b6ccd41ad312451b948a7413f0a142fd40d49347"
                },
                "rlp" : "0xf90260f901f8a0d4b0acca8c4275902b22dcda2eafa06c38dd282d600797309aa6ec6ad4542543a01dcc4de8dec75d7aab85b567b6ccd41ad312451b948a7413f0a142fd40d49347942adc25665018aa1fe0e6bc666dac8fc2697ff9baa0ce91e2a3f77fd565d6d7041a1cdce7ee12b15be986db001f75cae2fca183b33da0858b6b9b39c28953287b8d6a8874376832ca01d311ac153f36d8213128c73726a083889c2494dbb5f67b859a1145a6cc31cf0ab08d52127b957745d60773aa54cbb9010000000000000000000000000000000000000000000000000000000000000000000000000000000000000000000000000000000000000000000000000000000000000000000000000000000000000000000000000000000000000000000000000000000000000000000000000000000000000000000000000000000000000000000000000000000000000000000000000000000000000000000000000000000000000000000000000000000000000000000000000000000000000000000000000000000000000000000000000000000000000000000000000000000000000000000000000000000000000000000000000000000000000000000000000000000000830200000183989680830704e08203e880a09174149fac192e1302dc8f748d90b1345b103f7bd0b1fa82acb56f0ece35dbb588227bbc44cdbfa6d9f862f8608001830704e094094f5374fce5edbc8e2a8697c15331677e6ebf0b80801ba05fe8906d2e19060bd7d096165a0a40de18f0fe99a52ab1bbda34b7356147ec63a02788d200ca54c6bb43cf22cd5f47131ef36757acd6d4315114e7aa53080abb4fc0",
                "transactions" : [
                    {
                        "data" : "",
                        "gasLimit" : "0x0704e0",
                        "gasPrice" : "0x01",
                        "nonce" : "0x00",
                        "r" : "0x5fe8906d2e19060bd7d096165a0a40de18f0fe99a52ab1bbda34b7356147ec63",
                        "s" : "0x2788d200ca54c6bb43cf22cd5f47131ef36757acd6d4315114e7aa53080abb4f",
                        "to" : "0x094f5374fce5edbc8e2a8697c15331677e6ebf0b",
                        "v" : "0x1b",
                        "value" : "0x00"
                    }
                ],
                "uncleHeaders" : [
                ]
            }
        ],
        "genesisBlockHeader" : {
            "bloom" : "0x00000000000000000000000000000000000000000000000000000000000000000000000000000000000000000000000000000000000000000000000000000000000000000000000000000000000000000000000000000000000000000000000000000000000000000000000000000000000000000000000000000000000000000000000000000000000000000000000000000000000000000000000000000000000000000000000000000000000000000000000000000000000000000000000000000000000000000000000000000000000000000000000000000000000000000000000000000000000000000000000000000000000000000000000000000000",
            "coinbase" : "0x2adc25665018aa1fe0e6bc666dac8fc2697ff9ba",
            "difficulty" : "0x020000",
            "extraData" : "0x42",
            "gasLimit" : "0x989680",
            "gasUsed" : "0x00",
            "hash" : "0xd4b0acca8c4275902b22dcda2eafa06c38dd282d600797309aa6ec6ad4542543",
            "mixHash" : "0x56e81f171bcc55a6ff8345e692c0f86e5b48e01b996cadc001622fb5e363b421",
            "nonce" : "0x0102030405060708",
            "number" : "0x00",
            "parentHash" : "0x0000000000000000000000000000000000000000000000000000000000000000",
            "receiptTrie" : "0x56e81f171bcc55a6ff8345e692c0f86e5b48e01b996cadc001622fb5e363b421",
            "stateRoot" : "0xb02fdcf0bc763fcc882220ec1ca67f9cf17b9aec0a0f188e1d06e7db9f579491",
            "timestamp" : "0x03b6",
            "transactionsTrie" : "0x56e81f171bcc55a6ff8345e692c0f86e5b48e01b996cadc001622fb5e363b421",
            "uncleHash" : "0x1dcc4de8dec75d7aab85b567b6ccd41ad312451b948a7413f0a142fd40d49347"
        },
        "genesisRLP" : "0xf901faf901f5a00000000000000000000000000000000000000000000000000000000000000000a01dcc4de8dec75d7aab85b567b6ccd41ad312451b948a7413f0a142fd40d49347942adc25665018aa1fe0e6bc666dac8fc2697ff9baa0b02fdcf0bc763fcc882220ec1ca67f9cf17b9aec0a0f188e1d06e7db9f579491a056e81f171bcc55a6ff8345e692c0f86e5b48e01b996cadc001622fb5e363b421a056e81f171bcc55a6ff8345e692c0f86e5b48e01b996cadc001622fb5e363b421b9010000000000000000000000000000000000000000000000000000000000000000000000000000000000000000000000000000000000000000000000000000000000000000000000000000000000000000000000000000000000000000000000000000000000000000000000000000000000000000000000000000000000000000000000000000000000000000000000000000000000000000000000000000000000000000000000000000000000000000000000000000000000000000000000000000000000000000000000000000000000000000000000000000000000000000000000000000000000000000000000000000000000000000000000000000000000830200008083989680808203b642a056e81f171bcc55a6ff8345e692c0f86e5b48e01b996cadc001622fb5e363b421880102030405060708c0c0",
        "lastblockhash" : "0xf3906f34453a2805b1af8769a8038b37c2475e1c5bc3c018017abfce52bf80ae",
        "network" : "EIP150",
        "postState" : {
            "0x094f5374fce5edbc8e2a8697c15331677e6ebf0b" : {
                "balance" : "0x01",
                "code" : "0x600060006000600073c94f5374fce5edbc8e2a8697c15331677e6ebf0b61c350fa6000556001600155",
                "nonce" : "0x00",
                "storage" : {
                }
            },
            "0x2adc25665018aa1fe0e6bc666dac8fc2697ff9ba" : {
                "balance" : "0x4563918244fb04e0",
                "code" : "",
                "nonce" : "0x00",
                "storage" : {
                }
            },
            "0xa94f5374fce5edbc8e2a8697c15331677e6ebf0b" : {
                "balance" : "0xe8d49e0b20",
                "code" : "",
                "nonce" : "0x01",
                "storage" : {
                }
            },
            "0xc94f5374fce5edbc8e2a8697c15331677e6ebf0b" : {
                "balance" : "0x01",
                "code" : "0x60016000fd",
                "nonce" : "0x00",
                "storage" : {
                }
            }
        },
        "pre" : {
            "0x094f5374fce5edbc8e2a8697c15331677e6ebf0b" : {
                "balance" : "0x01",
                "code" : "0x600060006000600073c94f5374fce5edbc8e2a8697c15331677e6ebf0b61c350fa6000556001600155",
                "nonce" : "0x00",
                "storage" : {
                }
            },
            "0xa94f5374fce5edbc8e2a8697c15331677e6ebf0b" : {
                "balance" : "0xe8d4a51000",
                "code" : "",
                "nonce" : "0x00",
                "storage" : {
                }
            },
            "0xc94f5374fce5edbc8e2a8697c15331677e6ebf0b" : {
                "balance" : "0x01",
                "code" : "0x60016000fd",
                "nonce" : "0x00",
                "storage" : {
                }
            }
        }
    },
    "static_RevertOpcodeCalls_d0g0v0_EIP158" : {
        "_info" : {
            "comment" : "",
            "filledwith" : "cpp-1.3.0+commit.6e0ce939.Linux.g++",
            "lllcversion" : "Version: 0.4.18-develop.2017.9.25+commit.a72237f2.Linux.g++",
            "source" : "src/BlockchainTestsFiller/GeneralStateTests/stStaticCall/static_RevertOpcodeCalls_d0g0v0Filler.json",
            "sourceHash" : "989eb80f91230da16feb09a08073b06b2d3849f36429c29529e7418d30b2ed39"
        },
        "blocks" : [
            {
                "blockHeader" : {
                    "bloom" : "0x00000000000000000000000000000000000000000000000000000000000000000000000000000000000000000000000000000000000000000000000000000000000000000000000000000000000000000000000000000000000000000000000000000000000000000000000000000000000000000000000000000000000000000000000000000000000000000000000000000000000000000000000000000000000000000000000000000000000000000000000000000000000000000000000000000000000000000000000000000000000000000000000000000000000000000000000000000000000000000000000000000000000000000000000000000000",
                    "coinbase" : "0x2adc25665018aa1fe0e6bc666dac8fc2697ff9ba",
                    "difficulty" : "0x020000",
                    "extraData" : "",
                    "gasLimit" : "0x989680",
                    "gasUsed" : "0x0704e0",
                    "hash" : "0xb5bfed4428951f9b6c9ef24e3a2779f6f1011dadf0ae3950727bd6bb71ae8432",
                    "mixHash" : "0x87b4de8516ca331a8f741e84b92d28b72f5b76e1522857dde2d8258f935fdba2",
                    "nonce" : "0x324308cd94c8a20c",
                    "number" : "0x01",
                    "parentHash" : "0xd4b0acca8c4275902b22dcda2eafa06c38dd282d600797309aa6ec6ad4542543",
                    "receiptTrie" : "0x83889c2494dbb5f67b859a1145a6cc31cf0ab08d52127b957745d60773aa54cb",
                    "stateRoot" : "0xce91e2a3f77fd565d6d7041a1cdce7ee12b15be986db001f75cae2fca183b33d",
                    "timestamp" : "0x03e8",
                    "transactionsTrie" : "0x858b6b9b39c28953287b8d6a8874376832ca01d311ac153f36d8213128c73726",
                    "uncleHash" : "0x1dcc4de8dec75d7aab85b567b6ccd41ad312451b948a7413f0a142fd40d49347"
                },
                "rlp" : "0xf90260f901f8a0d4b0acca8c4275902b22dcda2eafa06c38dd282d600797309aa6ec6ad4542543a01dcc4de8dec75d7aab85b567b6ccd41ad312451b948a7413f0a142fd40d49347942adc25665018aa1fe0e6bc666dac8fc2697ff9baa0ce91e2a3f77fd565d6d7041a1cdce7ee12b15be986db001f75cae2fca183b33da0858b6b9b39c28953287b8d6a8874376832ca01d311ac153f36d8213128c73726a083889c2494dbb5f67b859a1145a6cc31cf0ab08d52127b957745d60773aa54cbb9010000000000000000000000000000000000000000000000000000000000000000000000000000000000000000000000000000000000000000000000000000000000000000000000000000000000000000000000000000000000000000000000000000000000000000000000000000000000000000000000000000000000000000000000000000000000000000000000000000000000000000000000000000000000000000000000000000000000000000000000000000000000000000000000000000000000000000000000000000000000000000000000000000000000000000000000000000000000000000000000000000000000000000000000000000000000830200000183989680830704e08203e880a087b4de8516ca331a8f741e84b92d28b72f5b76e1522857dde2d8258f935fdba288324308cd94c8a20cf862f8608001830704e094094f5374fce5edbc8e2a8697c15331677e6ebf0b80801ba05fe8906d2e19060bd7d096165a0a40de18f0fe99a52ab1bbda34b7356147ec63a02788d200ca54c6bb43cf22cd5f47131ef36757acd6d4315114e7aa53080abb4fc0",
                "transactions" : [
                    {
                        "data" : "",
                        "gasLimit" : "0x0704e0",
                        "gasPrice" : "0x01",
                        "nonce" : "0x00",
                        "r" : "0x5fe8906d2e19060bd7d096165a0a40de18f0fe99a52ab1bbda34b7356147ec63",
                        "s" : "0x2788d200ca54c6bb43cf22cd5f47131ef36757acd6d4315114e7aa53080abb4f",
                        "to" : "0x094f5374fce5edbc8e2a8697c15331677e6ebf0b",
                        "v" : "0x1b",
                        "value" : "0x00"
                    }
                ],
                "uncleHeaders" : [
                ]
            }
        ],
        "genesisBlockHeader" : {
            "bloom" : "0x00000000000000000000000000000000000000000000000000000000000000000000000000000000000000000000000000000000000000000000000000000000000000000000000000000000000000000000000000000000000000000000000000000000000000000000000000000000000000000000000000000000000000000000000000000000000000000000000000000000000000000000000000000000000000000000000000000000000000000000000000000000000000000000000000000000000000000000000000000000000000000000000000000000000000000000000000000000000000000000000000000000000000000000000000000000",
            "coinbase" : "0x2adc25665018aa1fe0e6bc666dac8fc2697ff9ba",
            "difficulty" : "0x020000",
            "extraData" : "0x42",
            "gasLimit" : "0x989680",
            "gasUsed" : "0x00",
            "hash" : "0xd4b0acca8c4275902b22dcda2eafa06c38dd282d600797309aa6ec6ad4542543",
            "mixHash" : "0x56e81f171bcc55a6ff8345e692c0f86e5b48e01b996cadc001622fb5e363b421",
            "nonce" : "0x0102030405060708",
            "number" : "0x00",
            "parentHash" : "0x0000000000000000000000000000000000000000000000000000000000000000",
            "receiptTrie" : "0x56e81f171bcc55a6ff8345e692c0f86e5b48e01b996cadc001622fb5e363b421",
            "stateRoot" : "0xb02fdcf0bc763fcc882220ec1ca67f9cf17b9aec0a0f188e1d06e7db9f579491",
            "timestamp" : "0x03b6",
            "transactionsTrie" : "0x56e81f171bcc55a6ff8345e692c0f86e5b48e01b996cadc001622fb5e363b421",
            "uncleHash" : "0x1dcc4de8dec75d7aab85b567b6ccd41ad312451b948a7413f0a142fd40d49347"
        },
        "genesisRLP" : "0xf901faf901f5a00000000000000000000000000000000000000000000000000000000000000000a01dcc4de8dec75d7aab85b567b6ccd41ad312451b948a7413f0a142fd40d49347942adc25665018aa1fe0e6bc666dac8fc2697ff9baa0b02fdcf0bc763fcc882220ec1ca67f9cf17b9aec0a0f188e1d06e7db9f579491a056e81f171bcc55a6ff8345e692c0f86e5b48e01b996cadc001622fb5e363b421a056e81f171bcc55a6ff8345e692c0f86e5b48e01b996cadc001622fb5e363b421b9010000000000000000000000000000000000000000000000000000000000000000000000000000000000000000000000000000000000000000000000000000000000000000000000000000000000000000000000000000000000000000000000000000000000000000000000000000000000000000000000000000000000000000000000000000000000000000000000000000000000000000000000000000000000000000000000000000000000000000000000000000000000000000000000000000000000000000000000000000000000000000000000000000000000000000000000000000000000000000000000000000000000000000000000000000000000830200008083989680808203b642a056e81f171bcc55a6ff8345e692c0f86e5b48e01b996cadc001622fb5e363b421880102030405060708c0c0",
        "lastblockhash" : "0xb5bfed4428951f9b6c9ef24e3a2779f6f1011dadf0ae3950727bd6bb71ae8432",
        "network" : "EIP158",
        "postState" : {
            "0x094f5374fce5edbc8e2a8697c15331677e6ebf0b" : {
                "balance" : "0x01",
                "code" : "0x600060006000600073c94f5374fce5edbc8e2a8697c15331677e6ebf0b61c350fa6000556001600155",
                "nonce" : "0x00",
                "storage" : {
                }
            },
            "0x2adc25665018aa1fe0e6bc666dac8fc2697ff9ba" : {
                "balance" : "0x4563918244fb04e0",
                "code" : "",
                "nonce" : "0x00",
                "storage" : {
                }
            },
            "0xa94f5374fce5edbc8e2a8697c15331677e6ebf0b" : {
                "balance" : "0xe8d49e0b20",
                "code" : "",
                "nonce" : "0x01",
                "storage" : {
                }
            },
            "0xc94f5374fce5edbc8e2a8697c15331677e6ebf0b" : {
                "balance" : "0x01",
                "code" : "0x60016000fd",
                "nonce" : "0x00",
                "storage" : {
                }
            }
        },
        "pre" : {
            "0x094f5374fce5edbc8e2a8697c15331677e6ebf0b" : {
                "balance" : "0x01",
                "code" : "0x600060006000600073c94f5374fce5edbc8e2a8697c15331677e6ebf0b61c350fa6000556001600155",
                "nonce" : "0x00",
                "storage" : {
                }
            },
            "0xa94f5374fce5edbc8e2a8697c15331677e6ebf0b" : {
                "balance" : "0xe8d4a51000",
                "code" : "",
                "nonce" : "0x00",
                "storage" : {
                }
            },
            "0xc94f5374fce5edbc8e2a8697c15331677e6ebf0b" : {
                "balance" : "0x01",
                "code" : "0x60016000fd",
                "nonce" : "0x00",
                "storage" : {
                }
            }
        }
    },
    "static_RevertOpcodeCalls_d0g0v0_Frontier" : {
        "_info" : {
            "comment" : "",
            "filledwith" : "cpp-1.3.0+commit.6e0ce939.Linux.g++",
            "lllcversion" : "Version: 0.4.18-develop.2017.9.25+commit.a72237f2.Linux.g++",
            "source" : "src/BlockchainTestsFiller/GeneralStateTests/stStaticCall/static_RevertOpcodeCalls_d0g0v0Filler.json",
            "sourceHash" : "989eb80f91230da16feb09a08073b06b2d3849f36429c29529e7418d30b2ed39"
        },
        "blocks" : [
            {
                "blockHeader" : {
                    "bloom" : "0x00000000000000000000000000000000000000000000000000000000000000000000000000000000000000000000000000000000000000000000000000000000000000000000000000000000000000000000000000000000000000000000000000000000000000000000000000000000000000000000000000000000000000000000000000000000000000000000000000000000000000000000000000000000000000000000000000000000000000000000000000000000000000000000000000000000000000000000000000000000000000000000000000000000000000000000000000000000000000000000000000000000000000000000000000000000",
                    "coinbase" : "0x2adc25665018aa1fe0e6bc666dac8fc2697ff9ba",
                    "difficulty" : "0x020000",
                    "extraData" : "",
                    "gasLimit" : "0x989680",
                    "gasUsed" : "0x0704e0",
                    "hash" : "0x2fd5cc47f9750719177c406161b1a01f0ce4bd66d28d7ceff308183751b1dc9c",
                    "mixHash" : "0x43b050cce610642a6dbd9c27fd9f1b6dab3791cce29c9111f05e71a4adb984d0",
                    "nonce" : "0xa0bebf6a1cbd7755",
                    "number" : "0x01",
                    "parentHash" : "0xd4b0acca8c4275902b22dcda2eafa06c38dd282d600797309aa6ec6ad4542543",
                    "receiptTrie" : "0x83889c2494dbb5f67b859a1145a6cc31cf0ab08d52127b957745d60773aa54cb",
                    "stateRoot" : "0xce91e2a3f77fd565d6d7041a1cdce7ee12b15be986db001f75cae2fca183b33d",
                    "timestamp" : "0x03e8",
                    "transactionsTrie" : "0x858b6b9b39c28953287b8d6a8874376832ca01d311ac153f36d8213128c73726",
                    "uncleHash" : "0x1dcc4de8dec75d7aab85b567b6ccd41ad312451b948a7413f0a142fd40d49347"
                },
                "rlp" : "0xf90260f901f8a0d4b0acca8c4275902b22dcda2eafa06c38dd282d600797309aa6ec6ad4542543a01dcc4de8dec75d7aab85b567b6ccd41ad312451b948a7413f0a142fd40d49347942adc25665018aa1fe0e6bc666dac8fc2697ff9baa0ce91e2a3f77fd565d6d7041a1cdce7ee12b15be986db001f75cae2fca183b33da0858b6b9b39c28953287b8d6a8874376832ca01d311ac153f36d8213128c73726a083889c2494dbb5f67b859a1145a6cc31cf0ab08d52127b957745d60773aa54cbb9010000000000000000000000000000000000000000000000000000000000000000000000000000000000000000000000000000000000000000000000000000000000000000000000000000000000000000000000000000000000000000000000000000000000000000000000000000000000000000000000000000000000000000000000000000000000000000000000000000000000000000000000000000000000000000000000000000000000000000000000000000000000000000000000000000000000000000000000000000000000000000000000000000000000000000000000000000000000000000000000000000000000000000000000000000000000830200000183989680830704e08203e880a043b050cce610642a6dbd9c27fd9f1b6dab3791cce29c9111f05e71a4adb984d088a0bebf6a1cbd7755f862f8608001830704e094094f5374fce5edbc8e2a8697c15331677e6ebf0b80801ba05fe8906d2e19060bd7d096165a0a40de18f0fe99a52ab1bbda34b7356147ec63a02788d200ca54c6bb43cf22cd5f47131ef36757acd6d4315114e7aa53080abb4fc0",
                "transactions" : [
                    {
                        "data" : "",
                        "gasLimit" : "0x0704e0",
                        "gasPrice" : "0x01",
                        "nonce" : "0x00",
                        "r" : "0x5fe8906d2e19060bd7d096165a0a40de18f0fe99a52ab1bbda34b7356147ec63",
                        "s" : "0x2788d200ca54c6bb43cf22cd5f47131ef36757acd6d4315114e7aa53080abb4f",
                        "to" : "0x094f5374fce5edbc8e2a8697c15331677e6ebf0b",
                        "v" : "0x1b",
                        "value" : "0x00"
                    }
                ],
                "uncleHeaders" : [
                ]
            }
        ],
        "genesisBlockHeader" : {
            "bloom" : "0x00000000000000000000000000000000000000000000000000000000000000000000000000000000000000000000000000000000000000000000000000000000000000000000000000000000000000000000000000000000000000000000000000000000000000000000000000000000000000000000000000000000000000000000000000000000000000000000000000000000000000000000000000000000000000000000000000000000000000000000000000000000000000000000000000000000000000000000000000000000000000000000000000000000000000000000000000000000000000000000000000000000000000000000000000000000",
            "coinbase" : "0x2adc25665018aa1fe0e6bc666dac8fc2697ff9ba",
            "difficulty" : "0x020000",
            "extraData" : "0x42",
            "gasLimit" : "0x989680",
            "gasUsed" : "0x00",
            "hash" : "0xd4b0acca8c4275902b22dcda2eafa06c38dd282d600797309aa6ec6ad4542543",
            "mixHash" : "0x56e81f171bcc55a6ff8345e692c0f86e5b48e01b996cadc001622fb5e363b421",
            "nonce" : "0x0102030405060708",
            "number" : "0x00",
            "parentHash" : "0x0000000000000000000000000000000000000000000000000000000000000000",
            "receiptTrie" : "0x56e81f171bcc55a6ff8345e692c0f86e5b48e01b996cadc001622fb5e363b421",
            "stateRoot" : "0xb02fdcf0bc763fcc882220ec1ca67f9cf17b9aec0a0f188e1d06e7db9f579491",
            "timestamp" : "0x03b6",
            "transactionsTrie" : "0x56e81f171bcc55a6ff8345e692c0f86e5b48e01b996cadc001622fb5e363b421",
            "uncleHash" : "0x1dcc4de8dec75d7aab85b567b6ccd41ad312451b948a7413f0a142fd40d49347"
        },
        "genesisRLP" : "0xf901faf901f5a00000000000000000000000000000000000000000000000000000000000000000a01dcc4de8dec75d7aab85b567b6ccd41ad312451b948a7413f0a142fd40d49347942adc25665018aa1fe0e6bc666dac8fc2697ff9baa0b02fdcf0bc763fcc882220ec1ca67f9cf17b9aec0a0f188e1d06e7db9f579491a056e81f171bcc55a6ff8345e692c0f86e5b48e01b996cadc001622fb5e363b421a056e81f171bcc55a6ff8345e692c0f86e5b48e01b996cadc001622fb5e363b421b9010000000000000000000000000000000000000000000000000000000000000000000000000000000000000000000000000000000000000000000000000000000000000000000000000000000000000000000000000000000000000000000000000000000000000000000000000000000000000000000000000000000000000000000000000000000000000000000000000000000000000000000000000000000000000000000000000000000000000000000000000000000000000000000000000000000000000000000000000000000000000000000000000000000000000000000000000000000000000000000000000000000000000000000000000000000000830200008083989680808203b642a056e81f171bcc55a6ff8345e692c0f86e5b48e01b996cadc001622fb5e363b421880102030405060708c0c0",
        "lastblockhash" : "0x2fd5cc47f9750719177c406161b1a01f0ce4bd66d28d7ceff308183751b1dc9c",
        "network" : "Frontier",
        "postState" : {
            "0x094f5374fce5edbc8e2a8697c15331677e6ebf0b" : {
                "balance" : "0x01",
                "code" : "0x600060006000600073c94f5374fce5edbc8e2a8697c15331677e6ebf0b61c350fa6000556001600155",
                "nonce" : "0x00",
                "storage" : {
                }
            },
            "0x2adc25665018aa1fe0e6bc666dac8fc2697ff9ba" : {
                "balance" : "0x4563918244fb04e0",
                "code" : "",
                "nonce" : "0x00",
                "storage" : {
                }
            },
            "0xa94f5374fce5edbc8e2a8697c15331677e6ebf0b" : {
                "balance" : "0xe8d49e0b20",
                "code" : "",
                "nonce" : "0x01",
                "storage" : {
                }
            },
            "0xc94f5374fce5edbc8e2a8697c15331677e6ebf0b" : {
                "balance" : "0x01",
                "code" : "0x60016000fd",
                "nonce" : "0x00",
                "storage" : {
                }
            }
        },
        "pre" : {
            "0x094f5374fce5edbc8e2a8697c15331677e6ebf0b" : {
                "balance" : "0x01",
                "code" : "0x600060006000600073c94f5374fce5edbc8e2a8697c15331677e6ebf0b61c350fa6000556001600155",
                "nonce" : "0x00",
                "storage" : {
                }
            },
            "0xa94f5374fce5edbc8e2a8697c15331677e6ebf0b" : {
                "balance" : "0xe8d4a51000",
                "code" : "",
                "nonce" : "0x00",
                "storage" : {
                }
            },
            "0xc94f5374fce5edbc8e2a8697c15331677e6ebf0b" : {
                "balance" : "0x01",
                "code" : "0x60016000fd",
                "nonce" : "0x00",
                "storage" : {
                }
            }
        }
    },
    "static_RevertOpcodeCalls_d0g0v0_Homestead" : {
        "_info" : {
            "comment" : "",
            "filledwith" : "cpp-1.3.0+commit.6e0ce939.Linux.g++",
            "lllcversion" : "Version: 0.4.18-develop.2017.9.25+commit.a72237f2.Linux.g++",
            "source" : "src/BlockchainTestsFiller/GeneralStateTests/stStaticCall/static_RevertOpcodeCalls_d0g0v0Filler.json",
            "sourceHash" : "989eb80f91230da16feb09a08073b06b2d3849f36429c29529e7418d30b2ed39"
        },
        "blocks" : [
            {
                "blockHeader" : {
                    "bloom" : "0x00000000000000000000000000000000000000000000000000000000000000000000000000000000000000000000000000000000000000000000000000000000000000000000000000000000000000000000000000000000000000000000000000000000000000000000000000000000000000000000000000000000000000000000000000000000000000000000000000000000000000000000000000000000000000000000000000000000000000000000000000000000000000000000000000000000000000000000000000000000000000000000000000000000000000000000000000000000000000000000000000000000000000000000000000000000",
                    "coinbase" : "0x2adc25665018aa1fe0e6bc666dac8fc2697ff9ba",
                    "difficulty" : "0x020000",
                    "extraData" : "",
                    "gasLimit" : "0x989680",
                    "gasUsed" : "0x0704e0",
                    "hash" : "0x0323845ef7bdd723a8610dee844f996608f60324bf90f4fb5ce028300cdda03b",
                    "mixHash" : "0x054aaa3eafd08655a767e1f42340e7de4bf1ceddde168b296712fdd82ebc71eb",
                    "nonce" : "0x9aef90764e186410",
                    "number" : "0x01",
                    "parentHash" : "0xd4b0acca8c4275902b22dcda2eafa06c38dd282d600797309aa6ec6ad4542543",
                    "receiptTrie" : "0x83889c2494dbb5f67b859a1145a6cc31cf0ab08d52127b957745d60773aa54cb",
                    "stateRoot" : "0xce91e2a3f77fd565d6d7041a1cdce7ee12b15be986db001f75cae2fca183b33d",
                    "timestamp" : "0x03e8",
                    "transactionsTrie" : "0x858b6b9b39c28953287b8d6a8874376832ca01d311ac153f36d8213128c73726",
                    "uncleHash" : "0x1dcc4de8dec75d7aab85b567b6ccd41ad312451b948a7413f0a142fd40d49347"
                },
                "rlp" : "0xf90260f901f8a0d4b0acca8c4275902b22dcda2eafa06c38dd282d600797309aa6ec6ad4542543a01dcc4de8dec75d7aab85b567b6ccd41ad312451b948a7413f0a142fd40d49347942adc25665018aa1fe0e6bc666dac8fc2697ff9baa0ce91e2a3f77fd565d6d7041a1cdce7ee12b15be986db001f75cae2fca183b33da0858b6b9b39c28953287b8d6a8874376832ca01d311ac153f36d8213128c73726a083889c2494dbb5f67b859a1145a6cc31cf0ab08d52127b957745d60773aa54cbb9010000000000000000000000000000000000000000000000000000000000000000000000000000000000000000000000000000000000000000000000000000000000000000000000000000000000000000000000000000000000000000000000000000000000000000000000000000000000000000000000000000000000000000000000000000000000000000000000000000000000000000000000000000000000000000000000000000000000000000000000000000000000000000000000000000000000000000000000000000000000000000000000000000000000000000000000000000000000000000000000000000000000000000000000000000000000830200000183989680830704e08203e880a0054aaa3eafd08655a767e1f42340e7de4bf1ceddde168b296712fdd82ebc71eb889aef90764e186410f862f8608001830704e094094f5374fce5edbc8e2a8697c15331677e6ebf0b80801ba05fe8906d2e19060bd7d096165a0a40de18f0fe99a52ab1bbda34b7356147ec63a02788d200ca54c6bb43cf22cd5f47131ef36757acd6d4315114e7aa53080abb4fc0",
                "transactions" : [
                    {
                        "data" : "",
                        "gasLimit" : "0x0704e0",
                        "gasPrice" : "0x01",
                        "nonce" : "0x00",
                        "r" : "0x5fe8906d2e19060bd7d096165a0a40de18f0fe99a52ab1bbda34b7356147ec63",
                        "s" : "0x2788d200ca54c6bb43cf22cd5f47131ef36757acd6d4315114e7aa53080abb4f",
                        "to" : "0x094f5374fce5edbc8e2a8697c15331677e6ebf0b",
                        "v" : "0x1b",
                        "value" : "0x00"
                    }
                ],
                "uncleHeaders" : [
                ]
            }
        ],
        "genesisBlockHeader" : {
            "bloom" : "0x00000000000000000000000000000000000000000000000000000000000000000000000000000000000000000000000000000000000000000000000000000000000000000000000000000000000000000000000000000000000000000000000000000000000000000000000000000000000000000000000000000000000000000000000000000000000000000000000000000000000000000000000000000000000000000000000000000000000000000000000000000000000000000000000000000000000000000000000000000000000000000000000000000000000000000000000000000000000000000000000000000000000000000000000000000000",
            "coinbase" : "0x2adc25665018aa1fe0e6bc666dac8fc2697ff9ba",
            "difficulty" : "0x020000",
            "extraData" : "0x42",
            "gasLimit" : "0x989680",
            "gasUsed" : "0x00",
            "hash" : "0xd4b0acca8c4275902b22dcda2eafa06c38dd282d600797309aa6ec6ad4542543",
            "mixHash" : "0x56e81f171bcc55a6ff8345e692c0f86e5b48e01b996cadc001622fb5e363b421",
            "nonce" : "0x0102030405060708",
            "number" : "0x00",
            "parentHash" : "0x0000000000000000000000000000000000000000000000000000000000000000",
            "receiptTrie" : "0x56e81f171bcc55a6ff8345e692c0f86e5b48e01b996cadc001622fb5e363b421",
            "stateRoot" : "0xb02fdcf0bc763fcc882220ec1ca67f9cf17b9aec0a0f188e1d06e7db9f579491",
            "timestamp" : "0x03b6",
            "transactionsTrie" : "0x56e81f171bcc55a6ff8345e692c0f86e5b48e01b996cadc001622fb5e363b421",
            "uncleHash" : "0x1dcc4de8dec75d7aab85b567b6ccd41ad312451b948a7413f0a142fd40d49347"
        },
        "genesisRLP" : "0xf901faf901f5a00000000000000000000000000000000000000000000000000000000000000000a01dcc4de8dec75d7aab85b567b6ccd41ad312451b948a7413f0a142fd40d49347942adc25665018aa1fe0e6bc666dac8fc2697ff9baa0b02fdcf0bc763fcc882220ec1ca67f9cf17b9aec0a0f188e1d06e7db9f579491a056e81f171bcc55a6ff8345e692c0f86e5b48e01b996cadc001622fb5e363b421a056e81f171bcc55a6ff8345e692c0f86e5b48e01b996cadc001622fb5e363b421b9010000000000000000000000000000000000000000000000000000000000000000000000000000000000000000000000000000000000000000000000000000000000000000000000000000000000000000000000000000000000000000000000000000000000000000000000000000000000000000000000000000000000000000000000000000000000000000000000000000000000000000000000000000000000000000000000000000000000000000000000000000000000000000000000000000000000000000000000000000000000000000000000000000000000000000000000000000000000000000000000000000000000000000000000000000000000830200008083989680808203b642a056e81f171bcc55a6ff8345e692c0f86e5b48e01b996cadc001622fb5e363b421880102030405060708c0c0",
        "lastblockhash" : "0x0323845ef7bdd723a8610dee844f996608f60324bf90f4fb5ce028300cdda03b",
        "network" : "Homestead",
        "postState" : {
            "0x094f5374fce5edbc8e2a8697c15331677e6ebf0b" : {
                "balance" : "0x01",
                "code" : "0x600060006000600073c94f5374fce5edbc8e2a8697c15331677e6ebf0b61c350fa6000556001600155",
                "nonce" : "0x00",
                "storage" : {
                }
            },
            "0x2adc25665018aa1fe0e6bc666dac8fc2697ff9ba" : {
                "balance" : "0x4563918244fb04e0",
                "code" : "",
                "nonce" : "0x00",
                "storage" : {
                }
            },
            "0xa94f5374fce5edbc8e2a8697c15331677e6ebf0b" : {
                "balance" : "0xe8d49e0b20",
                "code" : "",
                "nonce" : "0x01",
                "storage" : {
                }
            },
            "0xc94f5374fce5edbc8e2a8697c15331677e6ebf0b" : {
                "balance" : "0x01",
                "code" : "0x60016000fd",
                "nonce" : "0x00",
                "storage" : {
                }
            }
        },
        "pre" : {
            "0x094f5374fce5edbc8e2a8697c15331677e6ebf0b" : {
                "balance" : "0x01",
                "code" : "0x600060006000600073c94f5374fce5edbc8e2a8697c15331677e6ebf0b61c350fa6000556001600155",
                "nonce" : "0x00",
                "storage" : {
                }
            },
            "0xa94f5374fce5edbc8e2a8697c15331677e6ebf0b" : {
                "balance" : "0xe8d4a51000",
                "code" : "",
                "nonce" : "0x00",
                "storage" : {
                }
            },
            "0xc94f5374fce5edbc8e2a8697c15331677e6ebf0b" : {
                "balance" : "0x01",
                "code" : "0x60016000fd",
                "nonce" : "0x00",
                "storage" : {
                }
            }
        }
    }
}