{
    "static_LoopCallsThenRevert_d0g0v0_Byzantium" : {
        "_info" : {
            "comment" : "",
            "filledwith" : "cpp-1.3.0+commit.ab4ca6d1.Linux.g++",
            "lllcversion" : "Version: 0.4.20-develop.2018.1.8+commit.2548228b.Linux.g++",
            "source" : "src/BlockchainTestsFiller/GeneralStateTests/stStaticCall/static_LoopCallsThenRevert_d0g0v0Filler.json",
            "sourceHash" : "dbea0e0e8ac9761f9f129a4305afba70cb276c0a33ba82f81e95ddb4614aa6b9"
        },
        "blocks" : [
            {
                "blockHeader" : {
                    "bloom" : "0x00000000000000000000000000000000000000000000000000000000000000000000000000000000000000000000000000000000000000000000000000000000000000000000000000000000000000000000000000000000000000000000000000000000000000000000000000000000000000000000000000000000000000000000000000000000000000000000000000000000000000000000000000000000000000000000000000000000000000000000000000000000000000000000000000000000000000000000000000000000000000000000000000000000000000000000000000000000000000000000000000000000000000000000000000000000",
                    "coinbase" : "0x2adc25665018aa1fe0e6bc666dac8fc2697ff9ba",
                    "difficulty" : "0x020000",
                    "extraData" : "",
                    "gasLimit" : "0x989680",
                    "gasUsed" : "0x96972a",
                    "hash" : "0xed5fa9db718bc8afd5009b00352e5e26f2bbd0781d0e9dab5ca7dc9667b9c51b",
                    "mixHash" : "0xbd745cfa3876358d529dfea641933961e36cfbf09f8aa562b1ab9d8bfa20c9d7",
                    "nonce" : "0x314c3837c0d04c1d",
                    "number" : "0x01",
                    "parentHash" : "0xe3ddb900224835013cd35fff070ff631b117b62677c5c579b5c305c7c681a801",
                    "receiptTrie" : "0x6f895ec6e50bbfd1e70c987ae32f1f3632f276075d05363682e5f911164425b6",
                    "stateRoot" : "0x8ee2eec6a60ceb8aa15b5ee76017d795e84e7731cefadd0deea3b84d5deb239a",
                    "timestamp" : "0x03e8",
                    "transactionsTrie" : "0xd5b0ba9bc3b539c234278d761d356fdf93a264cc3c8ba38e570b7ecc2c3d124b",
                    "uncleHash" : "0x1dcc4de8dec75d7aab85b567b6ccd41ad312451b948a7413f0a142fd40d49347"
                },
                "rlp" : "0xf90260f901f8a0e3ddb900224835013cd35fff070ff631b117b62677c5c579b5c305c7c681a801a01dcc4de8dec75d7aab85b567b6ccd41ad312451b948a7413f0a142fd40d49347942adc25665018aa1fe0e6bc666dac8fc2697ff9baa08ee2eec6a60ceb8aa15b5ee76017d795e84e7731cefadd0deea3b84d5deb239aa0d5b0ba9bc3b539c234278d761d356fdf93a264cc3c8ba38e570b7ecc2c3d124ba06f895ec6e50bbfd1e70c987ae32f1f3632f276075d05363682e5f911164425b6b90100000000000000000000000000000000000000000000000000000000000000000000000000000000000000000000000000000000000000000000000000000000000000000000000000000000000000000000000000000000000000000000000000000000000000000000000000000000000000000000000000000000000000000000000000000000000000000000000000000000000000000000000000000000000000000000000000000000000000000000000000000000000000000000000000000000000000000000000000000000000000000000000000000000000000000000000000000000000000000000000000000000000000000000000000000000008302000001839896808396972a8203e880a0bd745cfa3876358d529dfea641933961e36cfbf09f8aa562b1ab9d8bfa20c9d788314c3837c0d04c1df862f86080018398968094100000000000000000000000000000000000000080801ca075de0c8388f398cb3a1cf4734a8665b413a85cc79d32c55a43fa4fc6ea483242a03b6d584d591d4f4fd1f6ade0bfdee9cc58ac704940ff1654e10f7e495c90f358c0",
                "transactions" : [
                    {
                        "data" : "0x",
                        "gasLimit" : "0x989680",
                        "gasPrice" : "0x01",
                        "nonce" : "0x00",
                        "r" : "0x75de0c8388f398cb3a1cf4734a8665b413a85cc79d32c55a43fa4fc6ea483242",
                        "s" : "0x3b6d584d591d4f4fd1f6ade0bfdee9cc58ac704940ff1654e10f7e495c90f358",
                        "to" : "0x1000000000000000000000000000000000000000",
                        "v" : "0x1c",
                        "value" : "0x00"
                    }
                ],
                "uncleHeaders" : [
                ]
            }
        ],
        "genesisBlockHeader" : {
            "bloom" : "0x00000000000000000000000000000000000000000000000000000000000000000000000000000000000000000000000000000000000000000000000000000000000000000000000000000000000000000000000000000000000000000000000000000000000000000000000000000000000000000000000000000000000000000000000000000000000000000000000000000000000000000000000000000000000000000000000000000000000000000000000000000000000000000000000000000000000000000000000000000000000000000000000000000000000000000000000000000000000000000000000000000000000000000000000000000000",
            "coinbase" : "0x2adc25665018aa1fe0e6bc666dac8fc2697ff9ba",
            "difficulty" : "0x020000",
            "extraData" : "0x42",
            "gasLimit" : "0x989680",
            "gasUsed" : "0x00",
            "hash" : "0xe3ddb900224835013cd35fff070ff631b117b62677c5c579b5c305c7c681a801",
            "mixHash" : "0x56e81f171bcc55a6ff8345e692c0f86e5b48e01b996cadc001622fb5e363b421",
            "nonce" : "0x0102030405060708",
            "number" : "0x00",
            "parentHash" : "0x0000000000000000000000000000000000000000000000000000000000000000",
            "receiptTrie" : "0x56e81f171bcc55a6ff8345e692c0f86e5b48e01b996cadc001622fb5e363b421",
            "stateRoot" : "0x4b45b95a7e8625a0465216c17b7d2b8ec3308235a98533684bb98bc7deaa03ff",
            "timestamp" : "0x03b6",
            "transactionsTrie" : "0x56e81f171bcc55a6ff8345e692c0f86e5b48e01b996cadc001622fb5e363b421",
            "uncleHash" : "0x1dcc4de8dec75d7aab85b567b6ccd41ad312451b948a7413f0a142fd40d49347"
        },
        "genesisRLP" : "0xf901faf901f5a00000000000000000000000000000000000000000000000000000000000000000a01dcc4de8dec75d7aab85b567b6ccd41ad312451b948a7413f0a142fd40d49347942adc25665018aa1fe0e6bc666dac8fc2697ff9baa04b45b95a7e8625a0465216c17b7d2b8ec3308235a98533684bb98bc7deaa03ffa056e81f171bcc55a6ff8345e692c0f86e5b48e01b996cadc001622fb5e363b421a056e81f171bcc55a6ff8345e692c0f86e5b48e01b996cadc001622fb5e363b421b9010000000000000000000000000000000000000000000000000000000000000000000000000000000000000000000000000000000000000000000000000000000000000000000000000000000000000000000000000000000000000000000000000000000000000000000000000000000000000000000000000000000000000000000000000000000000000000000000000000000000000000000000000000000000000000000000000000000000000000000000000000000000000000000000000000000000000000000000000000000000000000000000000000000000000000000000000000000000000000000000000000000000000000000000000000000000830200008083989680808203b642a056e81f171bcc55a6ff8345e692c0f86e5b48e01b996cadc001622fb5e363b421880102030405060708c0c0",
        "lastblockhash" : "0xed5fa9db718bc8afd5009b00352e5e26f2bbd0781d0e9dab5ca7dc9667b9c51b",
        "network" : "Byzantium",
        "postState" : {
            "0x1000000000000000000000000000000000000000" : {
                "balance" : "0x00",
                "code" : "0x6103526000526000600060206000600073a0000000000000000000000000000000000000006127105a03f16000555a600155",
                "nonce" : "0x00",
                "storage" : {
                    "0x01" : "0x024d79"
                }
            },
            "0x2adc25665018aa1fe0e6bc666dac8fc2697ff9ba" : {
                "balance" : "0x29a2241af6c2972a",
                "code" : "",
                "nonce" : "0x00",
                "storage" : {
                }
            },
            "0xa000000000000000000000000000000000000000" : {
                "balance" : "0x00",
                "code" : "0x5b600160003503600052600060006000600073b00000000000000000000000000000000000000061c350fa50600051600057",
                "nonce" : "0x00",
                "storage" : {
                    "0x00" : "0x0352"
                }
            },
            "0xa94f5374fce5edbc8e2a8697c15331677e6ebf0b" : {
                "balance" : "0xe8d40e78d6",
                "code" : "",
                "nonce" : "0x01",
                "storage" : {
                }
            },
            "0xb000000000000000000000000000000000000000" : {
                "balance" : "0x00",
                "code" : "0x600051600101600052",
                "nonce" : "0x00",
                "storage" : {
                }
            }
        },
        "pre" : {
            "0x1000000000000000000000000000000000000000" : {
                "balance" : "0x00",
                "code" : "0x6103526000526000600060206000600073a0000000000000000000000000000000000000006127105a03f16000555a600155",
                "nonce" : "0x00",
                "storage" : {
                }
            },
            "0xa000000000000000000000000000000000000000" : {
                "balance" : "0x00",
                "code" : "0x5b600160003503600052600060006000600073b00000000000000000000000000000000000000061c350fa50600051600057",
                "nonce" : "0x00",
                "storage" : {
                    "0x00" : "0x0352"
                }
            },
            "0xa94f5374fce5edbc8e2a8697c15331677e6ebf0b" : {
                "balance" : "0xe8d4a51000",
                "code" : "",
                "nonce" : "0x00",
                "storage" : {
                }
            },
            "0xb000000000000000000000000000000000000000" : {
                "balance" : "0x00",
                "code" : "0x600051600101600052",
                "nonce" : "0x00",
                "storage" : {
                }
            }
        }
    }
}