{
    "static_CallRecursiveBomb1_d0g0v0_Byzantium" : {
        "_info" : {
            "comment" : "",
            "filledwith" : "cpp-1.3.0+commit.ab4ca6d1.Linux.g++",
            "lllcversion" : "Version: 0.4.20-develop.2018.1.8+commit.2548228b.Linux.g++",
            "source" : "src/BlockchainTestsFiller/GeneralStateTests/stStaticCall/static_CallRecursiveBomb1_d0g0v0Filler.json",
            "sourceHash" : "e5a09bb92bc875ca152abcd803c47fa86c9106035641da4bb3bed9854efae3e0"
        },
        "blocks" : [
            {
                "blockHeader" : {
                    "bloom" : "0x00000000000000000000000000000000000000000000000000000000000000000000000000000000000000000000000000000000000000000000000000000000000000000000000000000000000000000000000000000000000000000000000000000000000000000000000000000000000000000000000000000000000000000000000000000000000000000000000000000000000000000000000000000000000000000000000000000000000000000000000000000000000000000000000000000000000000000000000000000000000000000000000000000000000000000000000000000000000000000000000000000000000000000000000000000000",
                    "coinbase" : "0x2adc25665018aa1fe0e6bc666dac8fc2697ff9ba",
                    "difficulty" : "0x020000",
                    "extraData" : "",
                    "gasLimit" : "0x05f5e100",
                    "gasUsed" : "0x01313a3c",
                    "hash" : "0xabb110195efb515b0755ec3306c988d7ec71db07be628dac561ed61bb1ba6a40",
                    "mixHash" : "0x83d4e1080d529d6aff93d38c72d3b930f4a10f8870097d757bc8e71647d9732b",
                    "nonce" : "0xe43c5672d83d6bd2",
                    "number" : "0x01",
                    "parentHash" : "0x49cd1b62f6b03965ed7a13bc1cf6d2ae957c9dcc844bbc67c2242acc9c2012e2",
                    "receiptTrie" : "0xf7527418f2ffd9ed051cc75363fea6d8359f2fd761c23b2918ae9c969815c214",
                    "stateRoot" : "0x420b8c9c6ff43ad4593cef46b309a44f680e02b41186c39852e00aa5f146f08e",
                    "timestamp" : "0x03e8",
                    "transactionsTrie" : "0xf43d1bd7037dd2e7bda922e14641314ea9a967237bc8336896eeebee3bf9c445",
                    "uncleHash" : "0x1dcc4de8dec75d7aab85b567b6ccd41ad312451b948a7413f0a142fd40d49347"
                },
                "rlp" : "0xf90266f901faa049cd1b62f6b03965ed7a13bc1cf6d2ae957c9dcc844bbc67c2242acc9c2012e2a01dcc4de8dec75d7aab85b567b6ccd41ad312451b948a7413f0a142fd40d49347942adc25665018aa1fe0e6bc666dac8fc2697ff9baa0420b8c9c6ff43ad4593cef46b309a44f680e02b41186c39852e00aa5f146f08ea0f43d1bd7037dd2e7bda922e14641314ea9a967237bc8336896eeebee3bf9c445a0f7527418f2ffd9ed051cc75363fea6d8359f2fd761c23b2918ae9c969815c214b901000000000000000000000000000000000000000000000000000000000000000000000000000000000000000000000000000000000000000000000000000000000000000000000000000000000000000000000000000000000000000000000000000000000000000000000000000000000000000000000000000000000000000000000000000000000000000000000000000000000000000000000000000000000000000000000000000000000000000000000000000000000000000000000000000000000000000000000000000000000000000000000000000000000000000000000000000000000000000000000000000000000000000000000000000000000083020000018405f5e1008401313a3c8203e880a083d4e1080d529d6aff93d38c72d3b930f4a10f8870097d757bc8e71647d9732b88e43c5672d83d6bd2f866f864800184013aab1494195e7baea6a6c7c4c2dfeb977efac326af552d87830186a0801ba013a81e9be2457ccf373e1e5a2bbf78298df549ac9f5fd52bfbf18dffebaf0682a01620d812cb14e80794c6e9254f2fe28e7584dc951dfd15fd6acabb83eb885a8bc0",
                "transactions" : [
                    {
                        "data" : "0x",
                        "gasLimit" : "0x013aab14",
                        "gasPrice" : "0x01",
                        "nonce" : "0x00",
                        "r" : "0x13a81e9be2457ccf373e1e5a2bbf78298df549ac9f5fd52bfbf18dffebaf0682",
                        "s" : "0x1620d812cb14e80794c6e9254f2fe28e7584dc951dfd15fd6acabb83eb885a8b",
                        "to" : "0x195e7baea6a6c7c4c2dfeb977efac326af552d87",
                        "v" : "0x1b",
                        "value" : "0x0186a0"
                    }
                ],
                "uncleHeaders" : [
                ]
            }
        ],
        "genesisBlockHeader" : {
            "bloom" : "0x00000000000000000000000000000000000000000000000000000000000000000000000000000000000000000000000000000000000000000000000000000000000000000000000000000000000000000000000000000000000000000000000000000000000000000000000000000000000000000000000000000000000000000000000000000000000000000000000000000000000000000000000000000000000000000000000000000000000000000000000000000000000000000000000000000000000000000000000000000000000000000000000000000000000000000000000000000000000000000000000000000000000000000000000000000000",
            "coinbase" : "0x2adc25665018aa1fe0e6bc666dac8fc2697ff9ba",
            "difficulty" : "0x020000",
            "extraData" : "0x42",
            "gasLimit" : "0x05f5e100",
            "gasUsed" : "0x00",
            "hash" : "0x49cd1b62f6b03965ed7a13bc1cf6d2ae957c9dcc844bbc67c2242acc9c2012e2",
            "mixHash" : "0x56e81f171bcc55a6ff8345e692c0f86e5b48e01b996cadc001622fb5e363b421",
            "nonce" : "0x0102030405060708",
            "number" : "0x00",
            "parentHash" : "0x0000000000000000000000000000000000000000000000000000000000000000",
            "receiptTrie" : "0x56e81f171bcc55a6ff8345e692c0f86e5b48e01b996cadc001622fb5e363b421",
            "stateRoot" : "0xc9d2fdf26754c6e23f8d14edb1f3cdb7990f1d3850c61ca80f7b0d55a0fdbfa4",
            "timestamp" : "0x03b6",
            "transactionsTrie" : "0x56e81f171bcc55a6ff8345e692c0f86e5b48e01b996cadc001622fb5e363b421",
            "uncleHash" : "0x1dcc4de8dec75d7aab85b567b6ccd41ad312451b948a7413f0a142fd40d49347"
        },
        "genesisRLP" : "0xf901fbf901f6a00000000000000000000000000000000000000000000000000000000000000000a01dcc4de8dec75d7aab85b567b6ccd41ad312451b948a7413f0a142fd40d49347942adc25665018aa1fe0e6bc666dac8fc2697ff9baa0c9d2fdf26754c6e23f8d14edb1f3cdb7990f1d3850c61ca80f7b0d55a0fdbfa4a056e81f171bcc55a6ff8345e692c0f86e5b48e01b996cadc001622fb5e363b421a056e81f171bcc55a6ff8345e692c0f86e5b48e01b996cadc001622fb5e363b421b901000000000000000000000000000000000000000000000000000000000000000000000000000000000000000000000000000000000000000000000000000000000000000000000000000000000000000000000000000000000000000000000000000000000000000000000000000000000000000000000000000000000000000000000000000000000000000000000000000000000000000000000000000000000000000000000000000000000000000000000000000000000000000000000000000000000000000000000000000000000000000000000000000000000000000000000000000000000000000000000000000000000000000000000000000000000083020000808405f5e100808203b642a056e81f171bcc55a6ff8345e692c0f86e5b48e01b996cadc001622fb5e363b421880102030405060708c0c0",
        "lastblockhash" : "0xabb110195efb515b0755ec3306c988d7ec71db07be628dac561ed61bb1ba6a40",
        "network" : "Byzantium",
        "postState" : {
            "0x095e7baea6a6c7c4c2dfeb977efac326af552d87" : {
                "balance" : "0x01312d00",
                "code" : "0x600160005101600052600060006000600030613a985a03fa",
                "nonce" : "0x00",
                "storage" : {
                }
            },
            "0x195e7baea6a6c7c4c2dfeb977efac326af552d87" : {
                "balance" : "0x0132b3a0",
                "code" : "0x6000600060006000600073095e7baea6a6c7c4c2dfeb977efac326af552d875af2505a600155",
                "nonce" : "0x00",
                "storage" : {
                    "0x01" : "0x09befb"
                }
            },
            "0x2adc25665018aa1fe0e6bc666dac8fc2697ff9ba" : {
                "balance" : "0x29a2241af75d3a3c",
                "code" : "",
                "nonce" : "0x00",
                "storage" : {
                }
            },
            "0xa94f5374fce5edbc8e2a8697c15331677e6ebf0b" : {
                "balance" : "0x0de0b6b3a6313f24",
                "code" : "",
                "nonce" : "0x01",
                "storage" : {
                }
            }
        },
        "pre" : {
            "0x095e7baea6a6c7c4c2dfeb977efac326af552d87" : {
                "balance" : "0x01312d00",
                "code" : "0x600160005101600052600060006000600030613a985a03fa",
                "nonce" : "0x00",
                "storage" : {
                }
            },
            "0x195e7baea6a6c7c4c2dfeb977efac326af552d87" : {
                "balance" : "0x01312d00",
                "code" : "0x6000600060006000600073095e7baea6a6c7c4c2dfeb977efac326af552d875af2505a600155",
                "nonce" : "0x00",
                "storage" : {
                }
            },
            "0xa94f5374fce5edbc8e2a8697c15331677e6ebf0b" : {
                "balance" : "0x0de0b6b3a7640000",
                "code" : "",
                "nonce" : "0x00",
                "storage" : {
                }
            }
        }
    }
}