{
    "static_callcallcodecallcode_011_OOGMAfter_1_d0g0v0_ConstantinopleFix" : {
        "_info" : {
            "comment" : "",
            "filling-rpc-server" : "Geth-1.9.3-unstable-d5bd3838-20190830",
            "filling-tool-version" : "retesteth-0.0.1+commit.222e3073.Linux.g++",
            "lllcversion" : "Version: 0.5.0-develop.2019.8.22+commit.9709dfe0.Linux.g++",
            "source" : "src/GeneralStateTestsFiller/stStaticCall/static_callcallcodecallcode_011_OOGMAfter_1Filler.json",
            "sourceHash" : "ed3527c0f1acbdee358858dc83a0a0b397f2613472671068bed333e3475ab033"
        },
        "genesisBlockHeader" : {
            "bloom" : "0x00000000000000000000000000000000000000000000000000000000000000000000000000000000000000000000000000000000000000000000000000000000000000000000000000000000000000000000000000000000000000000000000000000000000000000000000000000000000000000000000000000000000000000000000000000000000000000000000000000000000000000000000000000000000000000000000000000000000000000000000000000000000000000000000000000000000000000000000000000000000000000000000000000000000000000000000000000000000000000000000000000000000000000000000000000000",
            "coinbase" : "0x2adc25665018aa1fe0e6bc666dac8fc2697ff9ba",
            "difficulty" : "0x20000",
            "extraData" : "0x00",
            "gasLimit" : "0x989680",
            "gasUsed" : "0x0",
            "hash" : "0xcd407c63ec7d30459e9228d99c07e882e0ce5528a9e53a7f2429df2df8af4860",
            "mixHash" : "0x0000000000000000000000000000000000000000000000000000000000000000",
            "nonce" : "0x0000000000000000",
            "number" : "0x0",
            "parentHash" : "0x0000000000000000000000000000000000000000000000000000000000000000",
            "receiptTrie" : "0x56e81f171bcc55a6ff8345e692c0f86e5b48e01b996cadc001622fb5e363b421",
            "stateRoot" : "0x2a6f674ecdfe3c2d00407a93d3b33c05d093a398833a16bbd26ae9a1cae47f91",
            "timestamp" : "0x0",
            "transactionsTrie" : "0x56e81f171bcc55a6ff8345e692c0f86e5b48e01b996cadc001622fb5e363b421",
            "uncleHash" : "0x1dcc4de8dec75d7aab85b567b6ccd41ad312451b948a7413f0a142fd40d49347"
        },
        "pre" : {
            "0x1000000000000000000000000000000000000000" : {
                "balance" : "0x0de0b6b3a7640000",
                "code" : "0x604060006040600060003561eaecfa6000555a600155",
                "nonce" : "0x00",
                "storage" : {
                }
            },
            "0x1000000000000000000000000000000000000001" : {
                "balance" : "0x00",
                "code" : "0x60016003526040600060406000731000000000000000000000000000000000000002619c90f4506001600355",
                "nonce" : "0x00",
                "storage" : {
                }
            },
            "0x1000000000000000000000000000000000000002" : {
                "balance" : "0x00",
                "code" : "0x60016003526040600060406000731000000000000000000000000000000000000003614e34f4506001600352",
                "nonce" : "0x00",
                "storage" : {
                }
            },
            "0x1000000000000000000000000000000000000003" : {
                "balance" : "0x00",
                "code" : "0x6001600352",
                "nonce" : "0x00",
                "storage" : {
                }
            },
            "0x2000000000000000000000000000000000000001" : {
                "balance" : "0x00",
                "code" : "0x60016003526040600060406000731000000000000000000000000000000000000002619c90f4505b61c350608051101560435760013b506001608051016080526027565b",
                "nonce" : "0x00",
                "storage" : {
                }
            },
            "0xa94f5374fce5edbc8e2a8697c15331677e6ebf0b" : {
                "balance" : "0x0de0b6b3a7640000",
                "code" : "0x",
                "nonce" : "0x00",
                "storage" : {
                }
            }
        },
        "postState" : {
            "0xa94f5374fce5edbc8e2a8697c15331677e6ebf0b" : {
                "code" : "0x",
                "nonce" : "0x01",
                "balance" : "0x0de0b6b3a7625d85",
                "storage" : {
                }
            },
            "0x1000000000000000000000000000000000000001" : {
                "code" : "0x60016003526040600060406000731000000000000000000000000000000000000002619c90f4506001600355",
                "nonce" : "0x00",
                "balance" : "0x00",
                "storage" : {
                }
            },
            "0x2000000000000000000000000000000000000001" : {
                "code" : "0x60016003526040600060406000731000000000000000000000000000000000000002619c90f4505b61c350608051101560435760013b506001608051016080526027565b",
                "nonce" : "0x00",
                "balance" : "0x00",
                "storage" : {
                }
            },
            "0x2adc25665018aa1fe0e6bc666dac8fc2697ff9ba" : {
                "code" : "0x",
                "nonce" : "0x00",
                "balance" : "0x1bc16d674ec9a27b",
                "storage" : {
                }
            },
            "0x1000000000000000000000000000000000000002" : {
                "code" : "0x60016003526040600060406000731000000000000000000000000000000000000003614e34f4506001600352",
                "nonce" : "0x00",
                "balance" : "0x00",
                "storage" : {
                }
            },
            "0x1000000000000000000000000000000000000003" : {
                "code" : "0x6001600352",
                "nonce" : "0x00",
                "balance" : "0x00",
                "storage" : {
                }
            },
            "0x1000000000000000000000000000000000000000" : {
                "code" : "0x604060006040600060003561eaecfa6000555a600155",
                "nonce" : "0x00",
                "balance" : "0x0de0b6b3a7640000",
                "storage" : {
                    "0x01" : "0x014b88"
                }
            }
        },
        "network" : "ConstantinopleFix",
        "sealEngine" : "NoProof",
        "lastblockhash" : "0x82e82c2b4a925394981a6aba179485166a7ab68141ff09367819c0739ab4b8ad",
        "genesisRLP" : "0xf901f8f901f3a00000000000000000000000000000000000000000000000000000000000000000a01dcc4de8dec75d7aab85b567b6ccd41ad312451b948a7413f0a142fd40d49347942adc25665018aa1fe0e6bc666dac8fc2697ff9baa02a6f674ecdfe3c2d00407a93d3b33c05d093a398833a16bbd26ae9a1cae47f91a056e81f171bcc55a6ff8345e692c0f86e5b48e01b996cadc001622fb5e363b421a056e81f171bcc55a6ff8345e692c0f86e5b48e01b996cadc001622fb5e363b421b9010000000000000000000000000000000000000000000000000000000000000000000000000000000000000000000000000000000000000000000000000000000000000000000000000000000000000000000000000000000000000000000000000000000000000000000000000000000000000000000000000000000000000000000000000000000000000000000000000000000000000000000000000000000000000000000000000000000000000000000000000000000000000000000000000000000000000000000000000000000000000000000000000000000000000000000000000000000000000000000000000000000000000000000000000000000000830200008083989680808000a00000000000000000000000000000000000000000000000000000000000000000880000000000000000c0c0",
        "blocks" : [
            {
                "rlp" : "0xf90280f901f8a0cd407c63ec7d30459e9228d99c07e882e0ce5528a9e53a7f2429df2df8af4860a01dcc4de8dec75d7aab85b567b6ccd41ad312451b948a7413f0a142fd40d49347942adc25665018aa1fe0e6bc666dac8fc2697ff9baa01753829ab9da7edb5671c391b3f22b3e507f4390a04e7a0dda0a81040ba44f25a0c2bc41fc05a98854c4ef785ff341e07b36d9dd13a7280274ee2d4acf16b02ce9a0f7a59264d959d71821e1445f8ef020ecb1826c2e3a6628986a07c20feef0f095b901000000000000000000000000000000000000000000000000000000000000000000000000000000000000000000000000000000000000000000000000000000000000000000000000000000000000000000000000000000000000000000000000000000000000000000000000000000000000000000000000000000000000000000000000000000000000000000000000000000000000000000000000000000000000000000000000000000000000000000000000000000000000000000000000000000000000000000000000000000000000000000000000000000000000000000000000000000000000000000000000000000000000000000000000000000000083020000018398bca48301a27b8203e800a00000000000000000000000000000000000000000000000000000000000000000880000000000000000f882f880800183029fe094100000000000000000000000000000000000000080a000000000000000000000000010000000000000000000000000000000000000011ca0dae126c13c8d94a1c6be6a83cb1672d055e857790b14aec39060e3ce89e727b7a01889342374eb9585afa159c34b682da6442f053b773c256f542f11731f6a91d0c0",
                "blockHeader" : {
                    "bloom" : "0x00000000000000000000000000000000000000000000000000000000000000000000000000000000000000000000000000000000000000000000000000000000000000000000000000000000000000000000000000000000000000000000000000000000000000000000000000000000000000000000000000000000000000000000000000000000000000000000000000000000000000000000000000000000000000000000000000000000000000000000000000000000000000000000000000000000000000000000000000000000000000000000000000000000000000000000000000000000000000000000000000000000000000000000000000000000",
                    "coinbase" : "0x2adc25665018aa1fe0e6bc666dac8fc2697ff9ba",
                    "difficulty" : "0x20000",
                    "extraData" : "0x00",
                    "gasLimit" : "0x98bca4",
                    "gasUsed" : "0x1a27b",
                    "hash" : "0x82e82c2b4a925394981a6aba179485166a7ab68141ff09367819c0739ab4b8ad",
                    "mixHash" : "0x0000000000000000000000000000000000000000000000000000000000000000",
                    "nonce" : "0x0000000000000000",
                    "number" : "0x1",
                    "parentHash" : "0xcd407c63ec7d30459e9228d99c07e882e0ce5528a9e53a7f2429df2df8af4860",
                    "receiptTrie" : "0xf7a59264d959d71821e1445f8ef020ecb1826c2e3a6628986a07c20feef0f095",
                    "stateRoot" : "0x1753829ab9da7edb5671c391b3f22b3e507f4390a04e7a0dda0a81040ba44f25",
                    "timestamp" : "0x3e8",
                    "transactionsTrie" : "0xc2bc41fc05a98854c4ef785ff341e07b36d9dd13a7280274ee2d4acf16b02ce9",
                    "uncleHash" : "0x1dcc4de8dec75d7aab85b567b6ccd41ad312451b948a7413f0a142fd40d49347"
                },
                "transactions" : [
                    {
                        "data" : "0x0000000000000000000000001000000000000000000000000000000000000001",
                        "gasLimit" : "0x029fe0",
                        "gasPrice" : "0x01",
                        "nonce" : "0x00",
                        "secretKey" : "0x45a915e4d060149eb4365960e6a7a45f334393093061116b197e3240065ff2d8",
                        "to" : "0x1000000000000000000000000000000000000000",
                        "value" : "0x00"
                    }
                ]
            }
        ]
    },
    "static_callcallcodecallcode_011_OOGMAfter_1_d1g0v0_ConstantinopleFix" : {
        "_info" : {
            "comment" : "",
            "filling-rpc-server" : "Geth-1.9.3-unstable-d5bd3838-20190830",
            "filling-tool-version" : "retesteth-0.0.1+commit.222e3073.Linux.g++",
            "lllcversion" : "Version: 0.5.0-develop.2019.8.22+commit.9709dfe0.Linux.g++",
            "source" : "src/GeneralStateTestsFiller/stStaticCall/static_callcallcodecallcode_011_OOGMAfter_1Filler.json",
            "sourceHash" : "ed3527c0f1acbdee358858dc83a0a0b397f2613472671068bed333e3475ab033"
        },
        "genesisBlockHeader" : {
            "bloom" : "0x00000000000000000000000000000000000000000000000000000000000000000000000000000000000000000000000000000000000000000000000000000000000000000000000000000000000000000000000000000000000000000000000000000000000000000000000000000000000000000000000000000000000000000000000000000000000000000000000000000000000000000000000000000000000000000000000000000000000000000000000000000000000000000000000000000000000000000000000000000000000000000000000000000000000000000000000000000000000000000000000000000000000000000000000000000000",
            "coinbase" : "0x2adc25665018aa1fe0e6bc666dac8fc2697ff9ba",
            "difficulty" : "0x20000",
            "extraData" : "0x00",
            "gasLimit" : "0x989680",
            "gasUsed" : "0x0",
            "hash" : "0xcd407c63ec7d30459e9228d99c07e882e0ce5528a9e53a7f2429df2df8af4860",
            "mixHash" : "0x0000000000000000000000000000000000000000000000000000000000000000",
            "nonce" : "0x0000000000000000",
            "number" : "0x0",
            "parentHash" : "0x0000000000000000000000000000000000000000000000000000000000000000",
            "receiptTrie" : "0x56e81f171bcc55a6ff8345e692c0f86e5b48e01b996cadc001622fb5e363b421",
            "stateRoot" : "0x2a6f674ecdfe3c2d00407a93d3b33c05d093a398833a16bbd26ae9a1cae47f91",
            "timestamp" : "0x0",
            "transactionsTrie" : "0x56e81f171bcc55a6ff8345e692c0f86e5b48e01b996cadc001622fb5e363b421",
            "uncleHash" : "0x1dcc4de8dec75d7aab85b567b6ccd41ad312451b948a7413f0a142fd40d49347"
        },
        "pre" : {
            "0x1000000000000000000000000000000000000000" : {
                "balance" : "0x0de0b6b3a7640000",
                "code" : "0x604060006040600060003561eaecfa6000555a600155",
                "nonce" : "0x00",
                "storage" : {
                }
            },
            "0x1000000000000000000000000000000000000001" : {
                "balance" : "0x00",
                "code" : "0x60016003526040600060406000731000000000000000000000000000000000000002619c90f4506001600355",
                "nonce" : "0x00",
                "storage" : {
                }
            },
            "0x1000000000000000000000000000000000000002" : {
                "balance" : "0x00",
                "code" : "0x60016003526040600060406000731000000000000000000000000000000000000003614e34f4506001600352",
                "nonce" : "0x00",
                "storage" : {
                }
            },
            "0x1000000000000000000000000000000000000003" : {
                "balance" : "0x00",
                "code" : "0x6001600352",
                "nonce" : "0x00",
                "storage" : {
                }
            },
            "0x2000000000000000000000000000000000000001" : {
                "balance" : "0x00",
                "code" : "0x60016003526040600060406000731000000000000000000000000000000000000002619c90f4505b61c350608051101560435760013b506001608051016080526027565b",
                "nonce" : "0x00",
                "storage" : {
                }
            },
            "0xa94f5374fce5edbc8e2a8697c15331677e6ebf0b" : {
                "balance" : "0x0de0b6b3a7640000",
                "code" : "0x",
                "nonce" : "0x00",
                "storage" : {
                }
            }
        },
        "postState" : {
            "0xa94f5374fce5edbc8e2a8697c15331677e6ebf0b" : {
                "code" : "0x",
                "nonce" : "0x01",
                "balance" : "0x0de0b6b3a7625d85",
                "storage" : {
                }
            },
            "0x1000000000000000000000000000000000000001" : {
                "code" : "0x60016003526040600060406000731000000000000000000000000000000000000002619c90f4506001600355",
                "nonce" : "0x00",
                "balance" : "0x00",
                "storage" : {
                }
            },
            "0x2000000000000000000000000000000000000001" : {
                "code" : "0x60016003526040600060406000731000000000000000000000000000000000000002619c90f4505b61c350608051101560435760013b506001608051016080526027565b",
                "nonce" : "0x00",
                "balance" : "0x00",
                "storage" : {
                }
            },
            "0x2adc25665018aa1fe0e6bc666dac8fc2697ff9ba" : {
                "code" : "0x",
                "nonce" : "0x00",
                "balance" : "0x1bc16d674ec9a27b",
                "storage" : {
                }
            },
            "0x1000000000000000000000000000000000000002" : {
                "code" : "0x60016003526040600060406000731000000000000000000000000000000000000003614e34f4506001600352",
                "nonce" : "0x00",
                "balance" : "0x00",
                "storage" : {
                }
            },
            "0x1000000000000000000000000000000000000003" : {
                "code" : "0x6001600352",
                "nonce" : "0x00",
                "balance" : "0x00",
                "storage" : {
                }
            },
            "0x1000000000000000000000000000000000000000" : {
                "code" : "0x604060006040600060003561eaecfa6000555a600155",
                "nonce" : "0x00",
                "balance" : "0x0de0b6b3a7640000",
                "storage" : {
                    "0x01" : "0x014b88"
                }
            }
        },
        "network" : "ConstantinopleFix",
        "sealEngine" : "NoProof",
        "lastblockhash" : "0xfa2eedb9cf353f031a301271239ae6483151ccc16a56e5a352f2dd151d662fa7",
        "genesisRLP" : "0xf901f8f901f3a00000000000000000000000000000000000000000000000000000000000000000a01dcc4de8dec75d7aab85b567b6ccd41ad312451b948a7413f0a142fd40d49347942adc25665018aa1fe0e6bc666dac8fc2697ff9baa02a6f674ecdfe3c2d00407a93d3b33c05d093a398833a16bbd26ae9a1cae47f91a056e81f171bcc55a6ff8345e692c0f86e5b48e01b996cadc001622fb5e363b421a056e81f171bcc55a6ff8345e692c0f86e5b48e01b996cadc001622fb5e363b421b9010000000000000000000000000000000000000000000000000000000000000000000000000000000000000000000000000000000000000000000000000000000000000000000000000000000000000000000000000000000000000000000000000000000000000000000000000000000000000000000000000000000000000000000000000000000000000000000000000000000000000000000000000000000000000000000000000000000000000000000000000000000000000000000000000000000000000000000000000000000000000000000000000000000000000000000000000000000000000000000000000000000000000000000000000000000000830200008083989680808000a00000000000000000000000000000000000000000000000000000000000000000880000000000000000c0c0",
        "blocks" : [
            {
                "rlp" : "0xf90280f901f8a0cd407c63ec7d30459e9228d99c07e882e0ce5528a9e53a7f2429df2df8af4860a01dcc4de8dec75d7aab85b567b6ccd41ad312451b948a7413f0a142fd40d49347942adc25665018aa1fe0e6bc666dac8fc2697ff9baa01753829ab9da7edb5671c391b3f22b3e507f4390a04e7a0dda0a81040ba44f25a0c367bb08a4f6c118286e1d3d68987f439c282e2b93a60e7d1796c83a00d3af71a0f7a59264d959d71821e1445f8ef020ecb1826c2e3a6628986a07c20feef0f095b901000000000000000000000000000000000000000000000000000000000000000000000000000000000000000000000000000000000000000000000000000000000000000000000000000000000000000000000000000000000000000000000000000000000000000000000000000000000000000000000000000000000000000000000000000000000000000000000000000000000000000000000000000000000000000000000000000000000000000000000000000000000000000000000000000000000000000000000000000000000000000000000000000000000000000000000000000000000000000000000000000000000000000000000000000000000083020000018398bca48301a27b8203e800a00000000000000000000000000000000000000000000000000000000000000000880000000000000000f882f880800183029fe094100000000000000000000000000000000000000080a000000000000000000000000020000000000000000000000000000000000000011ca0c0864dbdee23e1c2c45251b57d1e00dc235cc89eeae4f27f7d28d454d8fc6005a06579e25b8cfc00cafdde0488237c8b47a4efa4e44fefad3b9324cfc0bdced384c0",
                "blockHeader" : {
                    "bloom" : "0x00000000000000000000000000000000000000000000000000000000000000000000000000000000000000000000000000000000000000000000000000000000000000000000000000000000000000000000000000000000000000000000000000000000000000000000000000000000000000000000000000000000000000000000000000000000000000000000000000000000000000000000000000000000000000000000000000000000000000000000000000000000000000000000000000000000000000000000000000000000000000000000000000000000000000000000000000000000000000000000000000000000000000000000000000000000",
                    "coinbase" : "0x2adc25665018aa1fe0e6bc666dac8fc2697ff9ba",
                    "difficulty" : "0x20000",
                    "extraData" : "0x00",
                    "gasLimit" : "0x98bca4",
                    "gasUsed" : "0x1a27b",
                    "hash" : "0xfa2eedb9cf353f031a301271239ae6483151ccc16a56e5a352f2dd151d662fa7",
                    "mixHash" : "0x0000000000000000000000000000000000000000000000000000000000000000",
                    "nonce" : "0x0000000000000000",
                    "number" : "0x1",
                    "parentHash" : "0xcd407c63ec7d30459e9228d99c07e882e0ce5528a9e53a7f2429df2df8af4860",
                    "receiptTrie" : "0xf7a59264d959d71821e1445f8ef020ecb1826c2e3a6628986a07c20feef0f095",
                    "stateRoot" : "0x1753829ab9da7edb5671c391b3f22b3e507f4390a04e7a0dda0a81040ba44f25",
                    "timestamp" : "0x3e8",
                    "transactionsTrie" : "0xc367bb08a4f6c118286e1d3d68987f439c282e2b93a60e7d1796c83a00d3af71",
                    "uncleHash" : "0x1dcc4de8dec75d7aab85b567b6ccd41ad312451b948a7413f0a142fd40d49347"
                },
                "transactions" : [
                    {
                        "data" : "0x0000000000000000000000002000000000000000000000000000000000000001",
                        "gasLimit" : "0x029fe0",
                        "gasPrice" : "0x01",
                        "nonce" : "0x00",
                        "secretKey" : "0x45a915e4d060149eb4365960e6a7a45f334393093061116b197e3240065ff2d8",
                        "to" : "0x1000000000000000000000000000000000000000",
                        "value" : "0x00"
                    }
                ]
            }
        ]
    }
}