{
    "static_CallEcrecover0_0input_d7g0v0_Byzantium" : {
        "_info" : {
            "comment" : "",
            "filledwith" : "cpp-1.3.0+commit.ab4ca6d1.Linux.g++",
            "lllcversion" : "Version: 0.4.20-develop.2018.1.8+commit.2548228b.Linux.g++",
            "source" : "src/BlockchainTestsFiller/GeneralStateTests/stStaticCall/static_CallEcrecover0_0input_d7g0v0Filler.json",
            "sourceHash" : "32bf24b181da1977163a9f8208d9a071d52ef4ea2541e44760ce538f84f1b0cf"
        },
        "blocks" : [
            {
                "blockHeader" : {
                    "bloom" : "0x00000000000000000000000000000000000000000000000000000000000000000000000000000000000000000000000000000000000000000000000000000000000000000000000000000000000000000000000000000000000000000000000000000000000000000000000000000000000000000000000000000000000000000000000000000000000000000000000000000000000000000000000000000000000000000000000000000000000000000000000000000000000000000000000000000000000000000000000000000000000000000000000000000000000000000000000000000000000000000000000000000000000000000000000000000000",
                    "coinbase" : "0x2adc25665018aa1fe0e6bc666dac8fc2697ff9ba",
                    "difficulty" : "0x020000",
                    "extraData" : "",
                    "gasLimit" : "0x989680",
                    "gasUsed" : "0x0153e3",
                    "hash" : "0x2f5649e925627a87475ef0014a5b41f3d2ac83e75ac82989f48f23c0aa220884",
                    "mixHash" : "0xc460c187965165031db1bb98ad198892771318d2e5894ab7eb771a6af363b391",
                    "nonce" : "0xc608e63a550193d6",
                    "number" : "0x01",
                    "parentHash" : "0x39f75ce6c87dbc69cfcfc45ef4cc8f5b24fe9d6ca9576b615a96a8b139284f4f",
                    "receiptTrie" : "0x75360b8c653d1f2b0e83263b1d7fc563b44b6fded6ad3be25472b48fb08260f6",
                    "stateRoot" : "0xe9ed2d52d1897ba8ebaa54bd1fe37e9ec893e51015cf7d04e9589a3417f15663",
                    "timestamp" : "0x03e8",
                    "transactionsTrie" : "0x8cb62ce5fd9c0eb90103e5ad363d1c5b7df39ef707a0cbd092b6a20f5170cc15",
                    "uncleHash" : "0x1dcc4de8dec75d7aab85b567b6ccd41ad312451b948a7413f0a142fd40d49347"
                },
                "rlp" : "0xf90283f901f8a039f75ce6c87dbc69cfcfc45ef4cc8f5b24fe9d6ca9576b615a96a8b139284f4fa01dcc4de8dec75d7aab85b567b6ccd41ad312451b948a7413f0a142fd40d49347942adc25665018aa1fe0e6bc666dac8fc2697ff9baa0e9ed2d52d1897ba8ebaa54bd1fe37e9ec893e51015cf7d04e9589a3417f15663a08cb62ce5fd9c0eb90103e5ad363d1c5b7df39ef707a0cbd092b6a20f5170cc15a075360b8c653d1f2b0e83263b1d7fc563b44b6fded6ad3be25472b48fb08260f6b9010000000000000000000000000000000000000000000000000000000000000000000000000000000000000000000000000000000000000000000000000000000000000000000000000000000000000000000000000000000000000000000000000000000000000000000000000000000000000000000000000000000000000000000000000000000000000000000000000000000000000000000000000000000000000000000000000000000000000000000000000000000000000000000000000000000000000000000000000000000000000000000000000000000000000000000000000000000000000000000000000000000000000000000000000000000000830200000183989680830153e38203e880a0c460c187965165031db1bb98ad198892771318d2e5894ab7eb771a6af363b39188c608e63a550193d6f885f88380018337ba9094095e7baea6a6c7c4c2dfeb977efac326af552d87830186a0a000000000000000000000000000000000000000000000000000000000000000071ca08f9bb6c5d90bf77b32948fa101569c632a6eddccd3fb569b8fac6dc81439bdd0a050368e9da54ded0dcf2d953aebbef0e75da2c9de9ef5cb885c1df44031ea3994c0",
                "transactions" : [
                    {
                        "data" : "0x0000000000000000000000000000000000000000000000000000000000000007",
                        "gasLimit" : "0x37ba90",
                        "gasPrice" : "0x01",
                        "nonce" : "0x00",
                        "r" : "0x8f9bb6c5d90bf77b32948fa101569c632a6eddccd3fb569b8fac6dc81439bdd0",
                        "s" : "0x50368e9da54ded0dcf2d953aebbef0e75da2c9de9ef5cb885c1df44031ea3994",
                        "to" : "0x095e7baea6a6c7c4c2dfeb977efac326af552d87",
                        "v" : "0x1c",
                        "value" : "0x0186a0"
                    }
                ],
                "uncleHeaders" : [
                ]
            }
        ],
        "genesisBlockHeader" : {
            "bloom" : "0x00000000000000000000000000000000000000000000000000000000000000000000000000000000000000000000000000000000000000000000000000000000000000000000000000000000000000000000000000000000000000000000000000000000000000000000000000000000000000000000000000000000000000000000000000000000000000000000000000000000000000000000000000000000000000000000000000000000000000000000000000000000000000000000000000000000000000000000000000000000000000000000000000000000000000000000000000000000000000000000000000000000000000000000000000000000",
            "coinbase" : "0x2adc25665018aa1fe0e6bc666dac8fc2697ff9ba",
            "difficulty" : "0x020000",
            "extraData" : "0x42",
            "gasLimit" : "0x989680",
            "gasUsed" : "0x00",
            "hash" : "0x39f75ce6c87dbc69cfcfc45ef4cc8f5b24fe9d6ca9576b615a96a8b139284f4f",
            "mixHash" : "0x56e81f171bcc55a6ff8345e692c0f86e5b48e01b996cadc001622fb5e363b421",
            "nonce" : "0x0102030405060708",
            "number" : "0x00",
            "parentHash" : "0x0000000000000000000000000000000000000000000000000000000000000000",
            "receiptTrie" : "0x56e81f171bcc55a6ff8345e692c0f86e5b48e01b996cadc001622fb5e363b421",
            "stateRoot" : "0x7d2adfe6fd70ac0b9fc60b7aedd088a80fea9cdbd3c54f0503f0715e95b3768e",
            "timestamp" : "0x03b6",
            "transactionsTrie" : "0x56e81f171bcc55a6ff8345e692c0f86e5b48e01b996cadc001622fb5e363b421",
            "uncleHash" : "0x1dcc4de8dec75d7aab85b567b6ccd41ad312451b948a7413f0a142fd40d49347"
        },
        "genesisRLP" : "0xf901faf901f5a00000000000000000000000000000000000000000000000000000000000000000a01dcc4de8dec75d7aab85b567b6ccd41ad312451b948a7413f0a142fd40d49347942adc25665018aa1fe0e6bc666dac8fc2697ff9baa07d2adfe6fd70ac0b9fc60b7aedd088a80fea9cdbd3c54f0503f0715e95b3768ea056e81f171bcc55a6ff8345e692c0f86e5b48e01b996cadc001622fb5e363b421a056e81f171bcc55a6ff8345e692c0f86e5b48e01b996cadc001622fb5e363b421b9010000000000000000000000000000000000000000000000000000000000000000000000000000000000000000000000000000000000000000000000000000000000000000000000000000000000000000000000000000000000000000000000000000000000000000000000000000000000000000000000000000000000000000000000000000000000000000000000000000000000000000000000000000000000000000000000000000000000000000000000000000000000000000000000000000000000000000000000000000000000000000000000000000000000000000000000000000000000000000000000000000000000000000000000000000000000830200008083989680808203b642a056e81f171bcc55a6ff8345e692c0f86e5b48e01b996cadc001622fb5e363b421880102030405060708c0c0",
        "lastblockhash" : "0x2f5649e925627a87475ef0014a5b41f3d2ac83e75ac82989f48f23c0aa220884",
        "network" : "Byzantium",
        "postState" : {
            "0x095e7baea6a6c7c4c2dfeb977efac326af552d87" : {
                "balance" : "0x0132b3a0",
                "code" : "0x6020608060806000600035620493e0fa60025560a060020a60805106600055",
                "nonce" : "0x00",
                "storage" : {
                    "0x02" : "0x01"
                }
            },
            "0x2adc25665018aa1fe0e6bc666dac8fc2697ff9ba" : {
                "balance" : "0x29a2241af62d53e3",
                "code" : "",
                "nonce" : "0x00",
                "storage" : {
                }
            },
            "0xa94f5374fce5edbc8e2a8697c15331677e6ebf0b" : {
                "balance" : "0x0de0b6b3a761257d",
                "code" : "",
                "nonce" : "0x01",
                "storage" : {
                }
            }
        },
        "pre" : {
            "0x095e7baea6a6c7c4c2dfeb977efac326af552d87" : {
                "balance" : "0x01312d00",
                "code" : "0x6020608060806000600035620493e0fa60025560a060020a60805106600055",
                "nonce" : "0x00",
                "storage" : {
                }
            },
            "0xa94f5374fce5edbc8e2a8697c15331677e6ebf0b" : {
                "balance" : "0x0de0b6b3a7640000",
                "code" : "",
                "nonce" : "0x00",
                "storage" : {
                }
            }
        }
    }
}