{
    "static_CallContractToCreateContractOOG_d0g0v1_Byzantium" : {
        "_info" : {
            "comment" : "",
            "filledwith" : "cpp-1.3.0+commit.ab4ca6d1.Linux.g++",
            "lllcversion" : "Version: 0.4.20-develop.2018.1.8+commit.2548228b.Linux.g++",
            "source" : "src/BlockchainTestsFiller/GeneralStateTests/stStaticCall/static_CallContractToCreateContractOOG_d0g0v1Filler.json",
            "sourceHash" : "bb3705363de54270b2c4976bf6394609ee92dfb1132020122ae2b3ec99e42c7c"
        },
        "blocks" : [
            {
                "blockHeader" : {
                    "bloom" : "0x00000000000000000000000000000000000000000000000000000000000000000000000000000000000000000000000000000000000000000000000000000000000000000000000000000000000000000000000000000000000000000000000000000000000000000000000000000000000000000000000000000000000000000000000000000000000000000000000000000000000000000000000000000000000000000000000000000000000000000000000000000000000000000000000000000000000000000000000000000000000000000000000000000000000000000000000000000000000000000000000000000000000000000000000000000000",
                    "coinbase" : "0x2adc25665018aa1fe0e6bc666dac8fc2697ff9ba",
                    "difficulty" : "0x020000",
                    "extraData" : "",
                    "gasLimit" : "0x05f5e100",
                    "gasUsed" : "0x01748d",
                    "hash" : "0xc46318efcf099b5f156cfa69310b75961b9697e42878e2c8fd34968094d1bae7",
                    "mixHash" : "0xeb585e08fc77c66d7c42b5847b1194862dac0efe3aeed9a9f9a23f28f0205d10",
                    "nonce" : "0x7b2b3bd66f8b62ad",
                    "number" : "0x01",
                    "parentHash" : "0xe9e6a10f48a4d036e3489e930943fa5caecbe46643877562dc89534090594493",
                    "receiptTrie" : "0x0d19292691a9ac60316e3483073c3cfc8a5bff5d826b030f7715242ab6e62ee3",
                    "stateRoot" : "0x5153e91c6be8507f4328a90a259ee26e853b57eae139f2e722b1701529036fda",
                    "timestamp" : "0x03e8",
                    "transactionsTrie" : "0x5121f330a1b66afac6af5d5b8c324b6e46e4f89698208ed336aa64e19bab52ee",
                    "uncleHash" : "0x1dcc4de8dec75d7aab85b567b6ccd41ad312451b948a7413f0a142fd40d49347"
                },
                "rlp" : "0xf90262f901f9a0e9e6a10f48a4d036e3489e930943fa5caecbe46643877562dc89534090594493a01dcc4de8dec75d7aab85b567b6ccd41ad312451b948a7413f0a142fd40d49347942adc25665018aa1fe0e6bc666dac8fc2697ff9baa05153e91c6be8507f4328a90a259ee26e853b57eae139f2e722b1701529036fdaa05121f330a1b66afac6af5d5b8c324b6e46e4f89698208ed336aa64e19bab52eea00d19292691a9ac60316e3483073c3cfc8a5bff5d826b030f7715242ab6e62ee3b901000000000000000000000000000000000000000000000000000000000000000000000000000000000000000000000000000000000000000000000000000000000000000000000000000000000000000000000000000000000000000000000000000000000000000000000000000000000000000000000000000000000000000000000000000000000000000000000000000000000000000000000000000000000000000000000000000000000000000000000000000000000000000000000000000000000000000000000000000000000000000000000000000000000000000000000000000000000000000000000000000000000000000000000000000000000083020000018405f5e1008301748d8203e880a0eb585e08fc77c66d7c42b5847b1194862dac0efe3aeed9a9f9a23f28f0205d10887b2b3bd66f8b62adf863f86180018401312d0094095e7baea6a6c7c4c2dfeb977efac326af552d8701001ca0a62be552c2aa8ed9e8fbc3388a00f770cbdebed17a1352efebfa5987a1a92ff3a043e10e99002ebf041f1cd9559528f74f9c002991a23e0f49e4772d559db443c5c0",
                "transactions" : [
                    {
                        "data" : "0x00",
                        "gasLimit" : "0x01312d00",
                        "gasPrice" : "0x01",
                        "nonce" : "0x00",
                        "r" : "0xa62be552c2aa8ed9e8fbc3388a00f770cbdebed17a1352efebfa5987a1a92ff3",
                        "s" : "0x43e10e99002ebf041f1cd9559528f74f9c002991a23e0f49e4772d559db443c5",
                        "to" : "0x095e7baea6a6c7c4c2dfeb977efac326af552d87",
                        "v" : "0x1c",
                        "value" : "0x01"
                    }
                ],
                "uncleHeaders" : [
                ]
            }
        ],
        "genesisBlockHeader" : {
            "bloom" : "0x00000000000000000000000000000000000000000000000000000000000000000000000000000000000000000000000000000000000000000000000000000000000000000000000000000000000000000000000000000000000000000000000000000000000000000000000000000000000000000000000000000000000000000000000000000000000000000000000000000000000000000000000000000000000000000000000000000000000000000000000000000000000000000000000000000000000000000000000000000000000000000000000000000000000000000000000000000000000000000000000000000000000000000000000000000000",
            "coinbase" : "0x2adc25665018aa1fe0e6bc666dac8fc2697ff9ba",
            "difficulty" : "0x020000",
            "extraData" : "0x42",
            "gasLimit" : "0x05f5e100",
            "gasUsed" : "0x00",
            "hash" : "0xe9e6a10f48a4d036e3489e930943fa5caecbe46643877562dc89534090594493",
            "mixHash" : "0x56e81f171bcc55a6ff8345e692c0f86e5b48e01b996cadc001622fb5e363b421",
            "nonce" : "0x0102030405060708",
            "number" : "0x00",
            "parentHash" : "0x0000000000000000000000000000000000000000000000000000000000000000",
            "receiptTrie" : "0x56e81f171bcc55a6ff8345e692c0f86e5b48e01b996cadc001622fb5e363b421",
            "stateRoot" : "0x3e024d142a60e7ac9fa7f98f6f820333c7c32b62c4c3b291f9565869557caf27",
            "timestamp" : "0x03b6",
            "transactionsTrie" : "0x56e81f171bcc55a6ff8345e692c0f86e5b48e01b996cadc001622fb5e363b421",
            "uncleHash" : "0x1dcc4de8dec75d7aab85b567b6ccd41ad312451b948a7413f0a142fd40d49347"
        },
        "genesisRLP" : "0xf901fbf901f6a00000000000000000000000000000000000000000000000000000000000000000a01dcc4de8dec75d7aab85b567b6ccd41ad312451b948a7413f0a142fd40d49347942adc25665018aa1fe0e6bc666dac8fc2697ff9baa03e024d142a60e7ac9fa7f98f6f820333c7c32b62c4c3b291f9565869557caf27a056e81f171bcc55a6ff8345e692c0f86e5b48e01b996cadc001622fb5e363b421a056e81f171bcc55a6ff8345e692c0f86e5b48e01b996cadc001622fb5e363b421b901000000000000000000000000000000000000000000000000000000000000000000000000000000000000000000000000000000000000000000000000000000000000000000000000000000000000000000000000000000000000000000000000000000000000000000000000000000000000000000000000000000000000000000000000000000000000000000000000000000000000000000000000000000000000000000000000000000000000000000000000000000000000000000000000000000000000000000000000000000000000000000000000000000000000000000000000000000000000000000000000000000000000000000000000000000000083020000808405f5e100808203b642a056e81f171bcc55a6ff8345e692c0f86e5b48e01b996cadc001622fb5e363b421880102030405060708c0c0",
        "lastblockhash" : "0xc46318efcf099b5f156cfa69310b75961b9697e42878e2c8fd34968094d1bae7",
        "network" : "Byzantium",
        "postState" : {
            "0x095e7baea6a6c7c4c2dfeb977efac326af552d87" : {
                "balance" : "0x00",
                "code" : "0x74600c60005566602060406000f060205260076039f36000526015600b6001f060005560006000600060006000546000fa",
                "nonce" : "0x01",
                "storage" : {
                    "0x00" : "0xd2571607e241ecf590ed94b12d87c94babe36db6"
                }
            },
            "0x2adc25665018aa1fe0e6bc666dac8fc2697ff9ba" : {
                "balance" : "0x29a2241af62d748d",
                "code" : "",
                "nonce" : "0x00",
                "storage" : {
                }
            },
            "0xa94f5374fce5edbc8e2a8697c15331677e6ebf0b" : {
                "balance" : "0x05f46c72",
                "code" : "",
                "nonce" : "0x01",
                "storage" : {
                }
            },
            "0xd2571607e241ecf590ed94b12d87c94babe36db6" : {
                "balance" : "0x01",
                "code" : "0x602060406000f0",
                "nonce" : "0x01",
                "storage" : {
                    "0x00" : "0x0c"
                }
            }
        },
        "pre" : {
            "0x095e7baea6a6c7c4c2dfeb977efac326af552d87" : {
                "balance" : "0x00",
                "code" : "0x74600c60005566602060406000f060205260076039f36000526015600b6001f060005560006000600060006000546000fa",
                "nonce" : "0x00",
                "storage" : {
                }
            },
            "0xa94f5374fce5edbc8e2a8697c15331677e6ebf0b" : {
                "balance" : "0x05f5e100",
                "code" : "",
                "nonce" : "0x00",
                "storage" : {
                }
            }
        }
    }
}