{
    "static_CallRecursiveBomb3_d0g0v0_Berlin" : {
        "_info" : {
            "comment" : "",
            "filling-rpc-server" : "evm version 1.9.23-unstable-0efc69a9-20201022",
            "filling-tool-version" : "retesteth-0.0.9-berlin+commit.2f30f0ea.Linux.g++",
            "lllcversion" : "Version: 0.5.14-develop.2020.6.22+commit.9189ad7a.Linux.g++",
            "source" : "src/GeneralStateTestsFiller/stStaticCall/static_CallRecursiveBomb3Filler.json",
            "sourceHash" : "4c656baf9c103b3af1ac4cfa595058924f35f07402c352aeb059cd02ab18fb86"
        },
        "genesisBlockHeader" : {
            "bloom" : "0x00000000000000000000000000000000000000000000000000000000000000000000000000000000000000000000000000000000000000000000000000000000000000000000000000000000000000000000000000000000000000000000000000000000000000000000000000000000000000000000000000000000000000000000000000000000000000000000000000000000000000000000000000000000000000000000000000000000000000000000000000000000000000000000000000000000000000000000000000000000000000000000000000000000000000000000000000000000000000000000000000000000000000000000000000000000",
            "coinbase" : "0x2adc25665018aa1fe0e6bc666dac8fc2697ff9ba",
            "difficulty" : "0x020000",
            "extraData" : "0x00",
            "gasLimit" : "0x989680",
            "gasUsed" : "0x00",
            "hash" : "0x630ca579ee1ef67d2680e4e0823ad4148fa90c7e4e0a9a53dc76620803a592e3",
            "mixHash" : "0x0000000000000000000000000000000000000000000000000000000000000000",
            "nonce" : "0x0000000000000000",
            "number" : "0x00",
            "parentHash" : "0x0000000000000000000000000000000000000000000000000000000000000000",
            "receiptTrie" : "0x56e81f171bcc55a6ff8345e692c0f86e5b48e01b996cadc001622fb5e363b421",
            "stateRoot" : "0xf0280e7863c7d7023ee2cbfd6e6cd9dd70d5da54e453b9a22295c24ff7226bef",
            "timestamp" : "0x00",
            "transactionsTrie" : "0x56e81f171bcc55a6ff8345e692c0f86e5b48e01b996cadc001622fb5e363b421",
            "uncleHash" : "0x1dcc4de8dec75d7aab85b567b6ccd41ad312451b948a7413f0a142fd40d49347"
        },
        "pre" : {
            "0x095e7baea6a6c7c4c2dfeb977efac326af552d87" : {
                "balance" : "0x01312d00",
                "code" : "0x60016000540160005260006000600060003060e05a03fa00",
                "nonce" : "0x00",
                "storage" : {
                }
            },
            "0x195e7baea6a6c7c4c2dfeb977efac326af552d87" : {
                "balance" : "0x01312d00",
                "code" : "0x6000600060006000600073095e7baea6a6c7c4c2dfeb977efac326af552d87620186a05a03f2600055600160015500",
                "nonce" : "0x00",
                "storage" : {
                }
            },
            "0xa94f5374fce5edbc8e2a8697c15331677e6ebf0b" : {
                "balance" : "0x0de0b6b3a7640000",
                "code" : "0x",
                "nonce" : "0x00",
                "storage" : {
                }
            }
        },
        "postState" : {
            "0x095e7baea6a6c7c4c2dfeb977efac326af552d87" : {
                "code" : "0x60016000540160005260006000600060003060e05a03fa00",
                "nonce" : "0x00",
                "balance" : "0x01312d00",
                "storage" : {
                }
            },
            "0x195e7baea6a6c7c4c2dfeb977efac326af552d87" : {
                "code" : "0x6000600060006000600073095e7baea6a6c7c4c2dfeb977efac326af552d87620186a05a03f2600055600160015500",
                "nonce" : "0x00",
                "balance" : "0x0132b3a0",
                "storage" : {
                    "0x00" : "0x01",
                    "0x01" : "0x01"
                }
            },
            "0x2adc25665018aa1fe0e6bc666dac8fc2697ff9ba" : {
                "code" : "0x",
                "nonce" : "0x00",
                "balance" : "0x1bc16d674ed634c5",
                "storage" : {
                }
            },
            "0xa94f5374fce5edbc8e2a8697c15331677e6ebf0b" : {
                "code" : "0x",
                "nonce" : "0x01",
                "balance" : "0x0de0b6b3a754449b",
                "storage" : {
                }
            }
        },
        "network" : "Berlin",
        "sealEngine" : "NoProof",
        "lastblockhash" : "0x936d7d586263fadfe38a68427cb43e97790caf0cf33ef898b9c7b66f88da9c2a",
        "genesisRLP" : "0xf901f8f901f3a00000000000000000000000000000000000000000000000000000000000000000a01dcc4de8dec75d7aab85b567b6ccd41ad312451b948a7413f0a142fd40d49347942adc25665018aa1fe0e6bc666dac8fc2697ff9baa0f0280e7863c7d7023ee2cbfd6e6cd9dd70d5da54e453b9a22295c24ff7226befa056e81f171bcc55a6ff8345e692c0f86e5b48e01b996cadc001622fb5e363b421a056e81f171bcc55a6ff8345e692c0f86e5b48e01b996cadc001622fb5e363b421b9010000000000000000000000000000000000000000000000000000000000000000000000000000000000000000000000000000000000000000000000000000000000000000000000000000000000000000000000000000000000000000000000000000000000000000000000000000000000000000000000000000000000000000000000000000000000000000000000000000000000000000000000000000000000000000000000000000000000000000000000000000000000000000000000000000000000000000000000000000000000000000000000000000000000000000000000000000000000000000000000000000000000000000000000000000000000830200008083989680808000a00000000000000000000000000000000000000000000000000000000000000000880000000000000000c0c0",
        "blocks" : [
            {
                "rlp" : "0xf90263f901f8a0630ca579ee1ef67d2680e4e0823ad4148fa90c7e4e0a9a53dc76620803a592e3a01dcc4de8dec75d7aab85b567b6ccd41ad312451b948a7413f0a142fd40d49347942adc25665018aa1fe0e6bc666dac8fc2697ff9baa0872998c4cafa486e3f893ecfb9414efc01e15e3f183a182033c3a9cc4dd21608a0ada1cce94dc37a788386e0b9d92caf0a21ef007d33dee17e15a9f18fd0f6c8b1a0dbdd22ef2533378ac4102213c1ac4561e72ce7246fec4b19a56b0918297e489bb9010000000000000000000000000000000000000000000000000000000000000000000000000000000000000000000000000000000000000000000000000000000000000000000000000000000000000000000000000000000000000000000000000000000000000000000000000000000000000000000000000000000000000000000000000000000000000000000000000000000000000000000000000000000000000000000000000000000000000000000000000000000000000000000000000000000000000000000000000000000000000000000000000000000000000000000000000000000000000000000000000000000000000000000000000000000000830200000183989680830e34c58203e800a00000000000000000000000000000000000000000000000000000000000000000880000000000000000f865f8638001830f424094195e7baea6a6c7c4c2dfeb977efac326af552d87830186a0801ca0658fb55ad84ad40e8fa0bf7fccc03ed7e730ccf139bcccdc216e92ee85cafd1da036c06b21cb81c39ccd211b28b6bd6c5e8c6b6bc2ff16b47c47272c8d506392bec0",
                "blockHeader" : {
                    "bloom" : "0x00000000000000000000000000000000000000000000000000000000000000000000000000000000000000000000000000000000000000000000000000000000000000000000000000000000000000000000000000000000000000000000000000000000000000000000000000000000000000000000000000000000000000000000000000000000000000000000000000000000000000000000000000000000000000000000000000000000000000000000000000000000000000000000000000000000000000000000000000000000000000000000000000000000000000000000000000000000000000000000000000000000000000000000000000000000",
                    "coinbase" : "0x2adc25665018aa1fe0e6bc666dac8fc2697ff9ba",
                    "difficulty" : "0x020000",
                    "extraData" : "0x00",
                    "gasLimit" : "0x989680",
                    "gasUsed" : "0x0e34c5",
                    "hash" : "0x936d7d586263fadfe38a68427cb43e97790caf0cf33ef898b9c7b66f88da9c2a",
                    "mixHash" : "0x0000000000000000000000000000000000000000000000000000000000000000",
                    "nonce" : "0x0000000000000000",
                    "number" : "0x01",
                    "parentHash" : "0x630ca579ee1ef67d2680e4e0823ad4148fa90c7e4e0a9a53dc76620803a592e3",
                    "receiptTrie" : "0xdbdd22ef2533378ac4102213c1ac4561e72ce7246fec4b19a56b0918297e489b",
                    "stateRoot" : "0x872998c4cafa486e3f893ecfb9414efc01e15e3f183a182033c3a9cc4dd21608",
                    "timestamp" : "0x03e8",
                    "transactionsTrie" : "0xada1cce94dc37a788386e0b9d92caf0a21ef007d33dee17e15a9f18fd0f6c8b1",
                    "uncleHash" : "0x1dcc4de8dec75d7aab85b567b6ccd41ad312451b948a7413f0a142fd40d49347"
                },
                "transactions" : [
                    {
                        "data" : "0x",
                        "gasLimit" : "0x0f4240",
                        "gasPrice" : "0x01",
                        "nonce" : "0x00",
                        "to" : "0x195e7baea6a6c7c4c2dfeb977efac326af552d87",
                        "value" : "0x0186a0",
                        "v" : "0x1c",
                        "r" : "0x658fb55ad84ad40e8fa0bf7fccc03ed7e730ccf139bcccdc216e92ee85cafd1d",
                        "s" : "0x36c06b21cb81c39ccd211b28b6bd6c5e8c6b6bc2ff16b47c47272c8d506392be"
                    }
                ],
                "uncleHeaders" : [
                ]
            }
        ]
    },
    "static_CallRecursiveBomb3_d0g0v0_Istanbul" : {
        "_info" : {
            "comment" : "",
            "filling-rpc-server" : "evm version 1.9.23-unstable-0efc69a9-20201022",
            "filling-tool-version" : "retesteth-0.0.9-berlin+commit.2f30f0ea.Linux.g++",
            "lllcversion" : "Version: 0.5.14-develop.2020.6.22+commit.9189ad7a.Linux.g++",
            "source" : "src/GeneralStateTestsFiller/stStaticCall/static_CallRecursiveBomb3Filler.json",
            "sourceHash" : "4c656baf9c103b3af1ac4cfa595058924f35f07402c352aeb059cd02ab18fb86"
        },
        "genesisBlockHeader" : {
            "bloom" : "0x00000000000000000000000000000000000000000000000000000000000000000000000000000000000000000000000000000000000000000000000000000000000000000000000000000000000000000000000000000000000000000000000000000000000000000000000000000000000000000000000000000000000000000000000000000000000000000000000000000000000000000000000000000000000000000000000000000000000000000000000000000000000000000000000000000000000000000000000000000000000000000000000000000000000000000000000000000000000000000000000000000000000000000000000000000000",
            "coinbase" : "0x2adc25665018aa1fe0e6bc666dac8fc2697ff9ba",
            "difficulty" : "0x020000",
            "extraData" : "0x00",
            "gasLimit" : "0x989680",
            "gasUsed" : "0x00",
            "hash" : "0x630ca579ee1ef67d2680e4e0823ad4148fa90c7e4e0a9a53dc76620803a592e3",
            "mixHash" : "0x0000000000000000000000000000000000000000000000000000000000000000",
            "nonce" : "0x0000000000000000",
            "number" : "0x00",
            "parentHash" : "0x0000000000000000000000000000000000000000000000000000000000000000",
            "receiptTrie" : "0x56e81f171bcc55a6ff8345e692c0f86e5b48e01b996cadc001622fb5e363b421",
            "stateRoot" : "0xf0280e7863c7d7023ee2cbfd6e6cd9dd70d5da54e453b9a22295c24ff7226bef",
            "timestamp" : "0x00",
            "transactionsTrie" : "0x56e81f171bcc55a6ff8345e692c0f86e5b48e01b996cadc001622fb5e363b421",
            "uncleHash" : "0x1dcc4de8dec75d7aab85b567b6ccd41ad312451b948a7413f0a142fd40d49347"
        },
        "pre" : {
            "0x095e7baea6a6c7c4c2dfeb977efac326af552d87" : {
                "balance" : "0x01312d00",
                "code" : "0x60016000540160005260006000600060003060e05a03fa00",
                "nonce" : "0x00",
                "storage" : {
                }
            },
            "0x195e7baea6a6c7c4c2dfeb977efac326af552d87" : {
                "balance" : "0x01312d00",
                "code" : "0x6000600060006000600073095e7baea6a6c7c4c2dfeb977efac326af552d87620186a05a03f2600055600160015500",
                "nonce" : "0x00",
                "storage" : {
                }
            },
            "0xa94f5374fce5edbc8e2a8697c15331677e6ebf0b" : {
                "balance" : "0x0de0b6b3a7640000",
                "code" : "0x",
                "nonce" : "0x00",
                "storage" : {
                }
            }
        },
        "postState" : {
            "0x095e7baea6a6c7c4c2dfeb977efac326af552d87" : {
                "code" : "0x60016000540160005260006000600060003060e05a03fa00",
                "nonce" : "0x00",
                "balance" : "0x01312d00",
                "storage" : {
                }
            },
            "0x195e7baea6a6c7c4c2dfeb977efac326af552d87" : {
                "code" : "0x6000600060006000600073095e7baea6a6c7c4c2dfeb977efac326af552d87620186a05a03f2600055600160015500",
                "nonce" : "0x00",
                "balance" : "0x0132b3a0",
                "storage" : {
                    "0x00" : "0x01",
                    "0x01" : "0x01"
                }
            },
            "0x2adc25665018aa1fe0e6bc666dac8fc2697ff9ba" : {
                "code" : "0x",
                "nonce" : "0x00",
                "balance" : "0x1bc16d674ed6251b",
                "storage" : {
                }
            },
            "0xa94f5374fce5edbc8e2a8697c15331677e6ebf0b" : {
                "code" : "0x",
                "nonce" : "0x01",
                "balance" : "0x0de0b6b3a7545445",
                "storage" : {
                }
            }
        },
        "network" : "Istanbul",
        "sealEngine" : "NoProof",
        "lastblockhash" : "0x8e1dd65fa3c9cb7b06be385af98bb3712e3db6a4ada7168321228f1f8d868af5",
        "genesisRLP" : "0xf901f8f901f3a00000000000000000000000000000000000000000000000000000000000000000a01dcc4de8dec75d7aab85b567b6ccd41ad312451b948a7413f0a142fd40d49347942adc25665018aa1fe0e6bc666dac8fc2697ff9baa0f0280e7863c7d7023ee2cbfd6e6cd9dd70d5da54e453b9a22295c24ff7226befa056e81f171bcc55a6ff8345e692c0f86e5b48e01b996cadc001622fb5e363b421a056e81f171bcc55a6ff8345e692c0f86e5b48e01b996cadc001622fb5e363b421b9010000000000000000000000000000000000000000000000000000000000000000000000000000000000000000000000000000000000000000000000000000000000000000000000000000000000000000000000000000000000000000000000000000000000000000000000000000000000000000000000000000000000000000000000000000000000000000000000000000000000000000000000000000000000000000000000000000000000000000000000000000000000000000000000000000000000000000000000000000000000000000000000000000000000000000000000000000000000000000000000000000000000000000000000000000000000830200008083989680808000a00000000000000000000000000000000000000000000000000000000000000000880000000000000000c0c0",
        "blocks" : [
            {
                "rlp" : "0xf90263f901f8a0630ca579ee1ef67d2680e4e0823ad4148fa90c7e4e0a9a53dc76620803a592e3a01dcc4de8dec75d7aab85b567b6ccd41ad312451b948a7413f0a142fd40d49347942adc25665018aa1fe0e6bc666dac8fc2697ff9baa06b5c4cc55c9287804cd0fa4bc3d1eef9a56d8ff6e14cf5370fabb1e808fb6340a0ada1cce94dc37a788386e0b9d92caf0a21ef007d33dee17e15a9f18fd0f6c8b1a0e19ea3b74f77722e3b34b6c17ada1e8fc3b8d617a6bc0817a19011a530b66fccb9010000000000000000000000000000000000000000000000000000000000000000000000000000000000000000000000000000000000000000000000000000000000000000000000000000000000000000000000000000000000000000000000000000000000000000000000000000000000000000000000000000000000000000000000000000000000000000000000000000000000000000000000000000000000000000000000000000000000000000000000000000000000000000000000000000000000000000000000000000000000000000000000000000000000000000000000000000000000000000000000000000000000000000000000000000000000830200000183989680830e251b8203e800a00000000000000000000000000000000000000000000000000000000000000000880000000000000000f865f8638001830f424094195e7baea6a6c7c4c2dfeb977efac326af552d87830186a0801ca0658fb55ad84ad40e8fa0bf7fccc03ed7e730ccf139bcccdc216e92ee85cafd1da036c06b21cb81c39ccd211b28b6bd6c5e8c6b6bc2ff16b47c47272c8d506392bec0",
                "blockHeader" : {
                    "bloom" : "0x00000000000000000000000000000000000000000000000000000000000000000000000000000000000000000000000000000000000000000000000000000000000000000000000000000000000000000000000000000000000000000000000000000000000000000000000000000000000000000000000000000000000000000000000000000000000000000000000000000000000000000000000000000000000000000000000000000000000000000000000000000000000000000000000000000000000000000000000000000000000000000000000000000000000000000000000000000000000000000000000000000000000000000000000000000000",
                    "coinbase" : "0x2adc25665018aa1fe0e6bc666dac8fc2697ff9ba",
                    "difficulty" : "0x020000",
                    "extraData" : "0x00",
                    "gasLimit" : "0x989680",
                    "gasUsed" : "0x0e251b",
                    "hash" : "0x8e1dd65fa3c9cb7b06be385af98bb3712e3db6a4ada7168321228f1f8d868af5",
                    "mixHash" : "0x0000000000000000000000000000000000000000000000000000000000000000",
                    "nonce" : "0x0000000000000000",
                    "number" : "0x01",
                    "parentHash" : "0x630ca579ee1ef67d2680e4e0823ad4148fa90c7e4e0a9a53dc76620803a592e3",
                    "receiptTrie" : "0xe19ea3b74f77722e3b34b6c17ada1e8fc3b8d617a6bc0817a19011a530b66fcc",
                    "stateRoot" : "0x6b5c4cc55c9287804cd0fa4bc3d1eef9a56d8ff6e14cf5370fabb1e808fb6340",
                    "timestamp" : "0x03e8",
                    "transactionsTrie" : "0xada1cce94dc37a788386e0b9d92caf0a21ef007d33dee17e15a9f18fd0f6c8b1",
                    "uncleHash" : "0x1dcc4de8dec75d7aab85b567b6ccd41ad312451b948a7413f0a142fd40d49347"
                },
                "transactions" : [
                    {
                        "data" : "0x",
                        "gasLimit" : "0x0f4240",
                        "gasPrice" : "0x01",
                        "nonce" : "0x00",
                        "to" : "0x195e7baea6a6c7c4c2dfeb977efac326af552d87",
                        "value" : "0x0186a0",
                        "v" : "0x1c",
                        "r" : "0x658fb55ad84ad40e8fa0bf7fccc03ed7e730ccf139bcccdc216e92ee85cafd1d",
                        "s" : "0x36c06b21cb81c39ccd211b28b6bd6c5e8c6b6bc2ff16b47c47272c8d506392be"
                    }
                ],
                "uncleHeaders" : [
                ]
            }
        ]
    }
}