{
    "static_callBasic_d1g0v0_Byzantium" : {
        "_info" : {
            "comment" : "",
            "filledwith" : "cpp-1.3.0+commit.ab4ca6d1.Linux.g++",
            "lllcversion" : "Version: 0.4.20-develop.2018.1.8+commit.2548228b.Linux.g++",
            "source" : "src/BlockchainTestsFiller/GeneralStateTests/stStaticCall/static_callBasic_d1g0v0Filler.json",
            "sourceHash" : "be5cb4e79094d9d2835a26065c128d4ae21a0e536998dcf1028eb569a56222a4"
        },
        "blocks" : [
            {
                "blockHeader" : {
                    "bloom" : "0x00000000000000000000000000000000000000000000000000000000000000000000000000000000000000000000000000000000000000000000000000000000000000000000000000000000000000000000000000000000000000000000000000000000000000000000000000000000000000000000000000000000000000000000000000000000000000000000000000000000000000000000000000000000000000000000000000000000000000000000000000000000000000000000000000000000000000000000000000000000000000000000000000000000000000000000000000000000000000000000000000000000000000000000000000000000",
                    "coinbase" : "0x2adc25665018aa1fe0e6bc666dac8fc2697ff9ba",
                    "difficulty" : "0x020000",
                    "extraData" : "",
                    "gasLimit" : "0x989680",
                    "gasUsed" : "0x023e29",
                    "hash" : "0x2d6de1ef1bc94bf499c01116aedefc854b71a732eff449cbdb87cd3d2efbeeb6",
                    "mixHash" : "0x707797b3000ccc915ad79d31a354a66761ca8a7b1155854a61537f268927cd6f",
                    "nonce" : "0x693ba077d5b1e8fd",
                    "number" : "0x01",
                    "parentHash" : "0x324cb3e3bb1c7e4fe6d80c84b3dee08534664f0953d2d957f457a02044560b87",
                    "receiptTrie" : "0x35be7eeab113149bfce0e1020dc35716d87cfe8c6d9c9d95fa2d63a4c090c211",
                    "stateRoot" : "0xa08af5661ddc1b4718cdb6b39f06000814817baff6d8fb4c676d78f376ddbd62",
                    "timestamp" : "0x03e8",
                    "transactionsTrie" : "0x4b69d416b858ee6279b5ceec80d4ef5442900efc216ee2e7e0f380a133546aad",
                    "uncleHash" : "0x1dcc4de8dec75d7aab85b567b6ccd41ad312451b948a7413f0a142fd40d49347"
                },
                "rlp" : "0xf90283f901f8a0324cb3e3bb1c7e4fe6d80c84b3dee08534664f0953d2d957f457a02044560b87a01dcc4de8dec75d7aab85b567b6ccd41ad312451b948a7413f0a142fd40d49347942adc25665018aa1fe0e6bc666dac8fc2697ff9baa0a08af5661ddc1b4718cdb6b39f06000814817baff6d8fb4c676d78f376ddbd62a04b69d416b858ee6279b5ceec80d4ef5442900efc216ee2e7e0f380a133546aada035be7eeab113149bfce0e1020dc35716d87cfe8c6d9c9d95fa2d63a4c090c211b901000000000000000000000000000000000000000000000000000000000000000000000000000000000000000000000000000000000000000000000000000000000000000000000000000000000000000000000000000000000000000000000000000000000000000000000000000000000000000000000000000000000000000000000000000000000000000000000000000000000000000000000000000000000000000000000000000000000000000000000000000000000000000000000000000000000000000000000000000000000000000000000000000000000000000000000000000000000000000000000000000000000000000000000000000000000083020000018398968083023e298203e880a0707797b3000ccc915ad79d31a354a66761ca8a7b1155854a61537f268927cd6f88693ba077d5b1e8fdf885f8838001830f4240941000000000000000000000000000000000000000830186a0a000000000000000000000000010000000000000000000000000000000000000021ca02860edcd234d97f7f8d5bb9e82f760d5d7b6e2a13e2629d96ed7003ff4188fe9a024826289d7a9f832ceaf701130e13fb01b0694a299972ceefb8769dbb43d1046c0",
                "transactions" : [
                    {
                        "data" : "0x0000000000000000000000001000000000000000000000000000000000000002",
                        "gasLimit" : "0x0f4240",
                        "gasPrice" : "0x01",
                        "nonce" : "0x00",
                        "r" : "0x2860edcd234d97f7f8d5bb9e82f760d5d7b6e2a13e2629d96ed7003ff4188fe9",
                        "s" : "0x24826289d7a9f832ceaf701130e13fb01b0694a299972ceefb8769dbb43d1046",
                        "to" : "0x1000000000000000000000000000000000000000",
                        "v" : "0x1c",
                        "value" : "0x0186a0"
                    }
                ],
                "uncleHeaders" : [
                ]
            }
        ],
        "genesisBlockHeader" : {
            "bloom" : "0x00000000000000000000000000000000000000000000000000000000000000000000000000000000000000000000000000000000000000000000000000000000000000000000000000000000000000000000000000000000000000000000000000000000000000000000000000000000000000000000000000000000000000000000000000000000000000000000000000000000000000000000000000000000000000000000000000000000000000000000000000000000000000000000000000000000000000000000000000000000000000000000000000000000000000000000000000000000000000000000000000000000000000000000000000000000",
            "coinbase" : "0x2adc25665018aa1fe0e6bc666dac8fc2697ff9ba",
            "difficulty" : "0x020000",
            "extraData" : "0x42",
            "gasLimit" : "0x989680",
            "gasUsed" : "0x00",
            "hash" : "0x324cb3e3bb1c7e4fe6d80c84b3dee08534664f0953d2d957f457a02044560b87",
            "mixHash" : "0x56e81f171bcc55a6ff8345e692c0f86e5b48e01b996cadc001622fb5e363b421",
            "nonce" : "0x0102030405060708",
            "number" : "0x00",
            "parentHash" : "0x0000000000000000000000000000000000000000000000000000000000000000",
            "receiptTrie" : "0x56e81f171bcc55a6ff8345e692c0f86e5b48e01b996cadc001622fb5e363b421",
            "stateRoot" : "0x371927b7702ac721690f7b5a05d3af0fd8e9b3de53089f80bcb327707fafbb1a",
            "timestamp" : "0x03b6",
            "transactionsTrie" : "0x56e81f171bcc55a6ff8345e692c0f86e5b48e01b996cadc001622fb5e363b421",
            "uncleHash" : "0x1dcc4de8dec75d7aab85b567b6ccd41ad312451b948a7413f0a142fd40d49347"
        },
        "genesisRLP" : "0xf901faf901f5a00000000000000000000000000000000000000000000000000000000000000000a01dcc4de8dec75d7aab85b567b6ccd41ad312451b948a7413f0a142fd40d49347942adc25665018aa1fe0e6bc666dac8fc2697ff9baa0371927b7702ac721690f7b5a05d3af0fd8e9b3de53089f80bcb327707fafbb1aa056e81f171bcc55a6ff8345e692c0f86e5b48e01b996cadc001622fb5e363b421a056e81f171bcc55a6ff8345e692c0f86e5b48e01b996cadc001622fb5e363b421b9010000000000000000000000000000000000000000000000000000000000000000000000000000000000000000000000000000000000000000000000000000000000000000000000000000000000000000000000000000000000000000000000000000000000000000000000000000000000000000000000000000000000000000000000000000000000000000000000000000000000000000000000000000000000000000000000000000000000000000000000000000000000000000000000000000000000000000000000000000000000000000000000000000000000000000000000000000000000000000000000000000000000000000000000000000000000830200008083989680808203b642a056e81f171bcc55a6ff8345e692c0f86e5b48e01b996cadc001622fb5e363b421880102030405060708c0c0",
        "lastblockhash" : "0x2d6de1ef1bc94bf499c01116aedefc854b71a732eff449cbdb87cd3d2efbeeb6",
        "network" : "Byzantium",
        "postState" : {
            "0x1000000000000000000000000000000000000000" : {
                "balance" : "0x0de0b6b3a76586a0",
                "code" : "0x6000600060006000600035620186a0fa6000555a600155",
                "nonce" : "0x00",
                "storage" : {
                    "0x01" : "0x0d523a"
                }
            },
            "0x1000000000000000000000000000000000000001" : {
                "balance" : "0x17",
                "code" : "0x6001600155",
                "nonce" : "0x00",
                "storage" : {
                    "0x01" : "0x01"
                }
            },
            "0x1000000000000000000000000000000000000002" : {
                "balance" : "0x17",
                "code" : "0x6000600155",
                "nonce" : "0x00",
                "storage" : {
                }
            },
            "0x1000000000000000000000000000000000000003" : {
                "balance" : "0x17",
                "code" : "0x60006000600060006000732000000000000000000000000000000000000003619c40f1506001600152",
                "nonce" : "0x00",
                "storage" : {
                }
            },
            "0x1000000000000000000000000000000000000004" : {
                "balance" : "0x17",
                "code" : "0x60006000600060006001733000000000000000000000000000000000000003619c40f2506001600152",
                "nonce" : "0x00",
                "storage" : {
                }
            },
            "0x2000000000000000000000000000000000000003" : {
                "balance" : "0x17",
                "code" : "0x600a6001a06001600152",
                "nonce" : "0x00",
                "storage" : {
                }
            },
            "0x2adc25665018aa1fe0e6bc666dac8fc2697ff9ba" : {
                "balance" : "0x29a2241af62e3e29",
                "code" : "",
                "nonce" : "0x00",
                "storage" : {
                }
            },
            "0x3000000000000000000000000000000000000003" : {
                "balance" : "0x17",
                "code" : "0x6001600152",
                "nonce" : "0x00",
                "storage" : {
                }
            },
            "0xa94f5374fce5edbc8e2a8697c15331677e6ebf0b" : {
                "balance" : "0x0de0b6b3a7603b37",
                "code" : "",
                "nonce" : "0x01",
                "storage" : {
                }
            }
        },
        "pre" : {
            "0x1000000000000000000000000000000000000000" : {
                "balance" : "0x0de0b6b3a7640000",
                "code" : "0x6000600060006000600035620186a0fa6000555a600155",
                "nonce" : "0x00",
                "storage" : {
                }
            },
            "0x1000000000000000000000000000000000000001" : {
                "balance" : "0x17",
                "code" : "0x6001600155",
                "nonce" : "0x00",
                "storage" : {
                    "0x01" : "0x01"
                }
            },
            "0x1000000000000000000000000000000000000002" : {
                "balance" : "0x17",
                "code" : "0x6000600155",
                "nonce" : "0x00",
                "storage" : {
                }
            },
            "0x1000000000000000000000000000000000000003" : {
                "balance" : "0x17",
                "code" : "0x60006000600060006000732000000000000000000000000000000000000003619c40f1506001600152",
                "nonce" : "0x00",
                "storage" : {
                }
            },
            "0x1000000000000000000000000000000000000004" : {
                "balance" : "0x17",
                "code" : "0x60006000600060006001733000000000000000000000000000000000000003619c40f2506001600152",
                "nonce" : "0x00",
                "storage" : {
                }
            },
            "0x2000000000000000000000000000000000000003" : {
                "balance" : "0x17",
                "code" : "0x600a6001a06001600152",
                "nonce" : "0x00",
                "storage" : {
                }
            },
            "0x3000000000000000000000000000000000000003" : {
                "balance" : "0x17",
                "code" : "0x6001600152",
                "nonce" : "0x00",
                "storage" : {
                }
            },
            "0xa94f5374fce5edbc8e2a8697c15331677e6ebf0b" : {
                "balance" : "0x0de0b6b3a7640000",
                "code" : "",
                "nonce" : "0x00",
                "storage" : {
                }
            }
        }
    }
}