{
    "static_CallEcrecoverS_prefixed0_d0g0v0_EIP150" : {
        "_info" : {
            "comment" : "",
            "filledwith" : "cpp-1.3.0+commit.16292201.Linux.g++",
            "source" : "/src/GenStateTestAsBcTemp/stStaticCall/static_CallEcrecoverS_prefixed0_d0g0v0Filler.json"
        },
        "blocks" : [
            {
                "blockHeader" : {
                    "bloom" : "0x00000000000000000000000000000000000000000000000000000000000000000000000000000000000000000000000000000000000000000000000000000000000000000000000000000000000000000000000000000000000000000000000000000000000000000000000000000000000000000000000000000000000000000000000000000000000000000000000000000000000000000000000000000000000000000000000000000000000000000000000000000000000000000000000000000000000000000000000000000000000000000000000000000000000000000000000000000000000000000000000000000000000000000000000000000000",
                    "coinbase" : "0x2adc25665018aa1fe0e6bc666dac8fc2697ff9ba",
                    "difficulty" : "0x020000",
                    "extraData" : "",
                    "gasLimit" : "0x989680",
                    "gasUsed" : "0x37ba90",
                    "hash" : "0x267fbccf0ec0b6fc812a398d25838c598ded32fd53976c1f9005363e9ce21f9c",
                    "mixHash" : "0x00b52db9523a3d259063e66f8b02b4d3c335252cdfe9024c8357a4e149739670",
                    "nonce" : "0x96ab6f0d9a51fe98",
                    "number" : "0x01",
                    "parentHash" : "0xbd7f02fd4b4fc043b5b12e183df3818466a08df9952bf30856d6934c4f6cc7f8",
                    "receiptTrie" : "0x627e3e78f6d713319cefa747e4b6ddd0a90173215927291bc07a44fa613eee04",
                    "stateRoot" : "0x046900528b26f3e9eb4b65da0da310800a8abfe66110494ee5225f862a34dd43",
                    "timestamp" : "0x03e8",
                    "transactionsTrie" : "0xd37192728eefe1f2e2362558635fa7ccf7265c44872f2a269cd9c945bcb9ecb5",
                    "uncleHash" : "0x1dcc4de8dec75d7aab85b567b6ccd41ad312451b948a7413f0a142fd40d49347"
                },
                "rlp" : "0xf90263f901f8a0bd7f02fd4b4fc043b5b12e183df3818466a08df9952bf30856d6934c4f6cc7f8a01dcc4de8dec75d7aab85b567b6ccd41ad312451b948a7413f0a142fd40d49347942adc25665018aa1fe0e6bc666dac8fc2697ff9baa0046900528b26f3e9eb4b65da0da310800a8abfe66110494ee5225f862a34dd43a0d37192728eefe1f2e2362558635fa7ccf7265c44872f2a269cd9c945bcb9ecb5a0627e3e78f6d713319cefa747e4b6ddd0a90173215927291bc07a44fa613eee04b90100000000000000000000000000000000000000000000000000000000000000000000000000000000000000000000000000000000000000000000000000000000000000000000000000000000000000000000000000000000000000000000000000000000000000000000000000000000000000000000000000000000000000000000000000000000000000000000000000000000000000000000000000000000000000000000000000000000000000000000000000000000000000000000000000000000000000000000000000000000000000000000000000000000000000000000000000000000000000000000000000000000000000000000000000000000008302000001839896808337ba908203e880a000b52db9523a3d259063e66f8b02b4d3c335252cdfe9024c8357a4e1497396708896ab6f0d9a51fe98f865f86380018337ba9094095e7baea6a6c7c4c2dfeb977efac326af552d87830186a0801ba03fcfff9e4085fc94af03ad71daa986e585e5b354c2b414a134e0624796a30d8ea072000b0edcceb7d4c1c5b6fed5bd5fcb74789702f3f171f1cd75c617bbb379cdc0",
                "transactions" : [
                    {
                        "data" : "",
                        "gasLimit" : "0x37ba90",
                        "gasPrice" : "0x01",
                        "nonce" : "0x00",
                        "r" : "0x3fcfff9e4085fc94af03ad71daa986e585e5b354c2b414a134e0624796a30d8e",
                        "s" : "0x72000b0edcceb7d4c1c5b6fed5bd5fcb74789702f3f171f1cd75c617bbb379cd",
                        "to" : "0x095e7baea6a6c7c4c2dfeb977efac326af552d87",
                        "v" : "0x1b",
                        "value" : "0x0186a0"
                    }
                ],
                "uncleHeaders" : [
                ]
            }
        ],
        "genesisBlockHeader" : {
            "bloom" : "0x00000000000000000000000000000000000000000000000000000000000000000000000000000000000000000000000000000000000000000000000000000000000000000000000000000000000000000000000000000000000000000000000000000000000000000000000000000000000000000000000000000000000000000000000000000000000000000000000000000000000000000000000000000000000000000000000000000000000000000000000000000000000000000000000000000000000000000000000000000000000000000000000000000000000000000000000000000000000000000000000000000000000000000000000000000000",
            "coinbase" : "0x2adc25665018aa1fe0e6bc666dac8fc2697ff9ba",
            "difficulty" : "0x020000",
            "extraData" : "0x42",
            "gasLimit" : "0x989680",
            "gasUsed" : "0x00",
            "hash" : "0xbd7f02fd4b4fc043b5b12e183df3818466a08df9952bf30856d6934c4f6cc7f8",
            "mixHash" : "0x56e81f171bcc55a6ff8345e692c0f86e5b48e01b996cadc001622fb5e363b421",
            "nonce" : "0x0102030405060708",
            "number" : "0x00",
            "parentHash" : "0x0000000000000000000000000000000000000000000000000000000000000000",
            "receiptTrie" : "0x56e81f171bcc55a6ff8345e692c0f86e5b48e01b996cadc001622fb5e363b421",
            "stateRoot" : "0x2cb60c4150b63a126b023662d2db7745c9ef5066fc03c74fa194407f2de304c0",
            "timestamp" : "0x03b6",
            "transactionsTrie" : "0x56e81f171bcc55a6ff8345e692c0f86e5b48e01b996cadc001622fb5e363b421",
            "uncleHash" : "0x1dcc4de8dec75d7aab85b567b6ccd41ad312451b948a7413f0a142fd40d49347"
        },
        "genesisRLP" : "0xf901faf901f5a00000000000000000000000000000000000000000000000000000000000000000a01dcc4de8dec75d7aab85b567b6ccd41ad312451b948a7413f0a142fd40d49347942adc25665018aa1fe0e6bc666dac8fc2697ff9baa02cb60c4150b63a126b023662d2db7745c9ef5066fc03c74fa194407f2de304c0a056e81f171bcc55a6ff8345e692c0f86e5b48e01b996cadc001622fb5e363b421a056e81f171bcc55a6ff8345e692c0f86e5b48e01b996cadc001622fb5e363b421b9010000000000000000000000000000000000000000000000000000000000000000000000000000000000000000000000000000000000000000000000000000000000000000000000000000000000000000000000000000000000000000000000000000000000000000000000000000000000000000000000000000000000000000000000000000000000000000000000000000000000000000000000000000000000000000000000000000000000000000000000000000000000000000000000000000000000000000000000000000000000000000000000000000000000000000000000000000000000000000000000000000000000000000000000000000000000830200008083989680808203b642a056e81f171bcc55a6ff8345e692c0f86e5b48e01b996cadc001622fb5e363b421880102030405060708c0c0",
        "lastblockhash" : "0x267fbccf0ec0b6fc812a398d25838c598ded32fd53976c1f9005363e9ce21f9c",
        "network" : "EIP150",
        "postState" : {
            "0x095e7baea6a6c7c4c2dfeb977efac326af552d87" : {
                "balance" : "0x01312d00",
                "code" : "0x7f18c547e4f7b0f325ad1e56f57e26c745b09a3e503d86e00e5255ff7f715d3d1c600052601c6020527f73b1693892219d736caba55bdb67216e485557ea6b6af75f37096c9aa6a5a75f6040527eb940b1d03b21e36b0e47e79769f095fe2ab855bd91e3a38756b7d75a9c454960605260206080608060006001620493e0fa60025560a060020a608051066000556000543214600155",
                "nonce" : "0x00",
                "storage" : {
                }
            },
            "0x2adc25665018aa1fe0e6bc666dac8fc2697ff9ba" : {
                "balance" : "0x45639182452bba90",
                "code" : "",
                "nonce" : "0x00",
                "storage" : {
                }
            },
            "0xa94f5374fce5edbc8e2a8697c15331677e6ebf0b" : {
                "balance" : "0x0de0b6b3a72c4570",
                "code" : "",
                "nonce" : "0x01",
                "storage" : {
                }
            }
        },
        "pre" : {
            "0x095e7baea6a6c7c4c2dfeb977efac326af552d87" : {
                "balance" : "0x01312d00",
                "code" : "0x7f18c547e4f7b0f325ad1e56f57e26c745b09a3e503d86e00e5255ff7f715d3d1c600052601c6020527f73b1693892219d736caba55bdb67216e485557ea6b6af75f37096c9aa6a5a75f6040527eb940b1d03b21e36b0e47e79769f095fe2ab855bd91e3a38756b7d75a9c454960605260206080608060006001620493e0fa60025560a060020a608051066000556000543214600155",
                "nonce" : "0x00",
                "storage" : {
                }
            },
            "0xa94f5374fce5edbc8e2a8697c15331677e6ebf0b" : {
                "balance" : "0x0de0b6b3a7640000",
                "code" : "",
                "nonce" : "0x00",
                "storage" : {
                }
            }
        }
    },
    "static_CallEcrecoverS_prefixed0_d0g0v0_EIP158" : {
        "_info" : {
            "comment" : "",
            "filledwith" : "cpp-1.3.0+commit.16292201.Linux.g++",
            "source" : "/src/GenStateTestAsBcTemp/stStaticCall/static_CallEcrecoverS_prefixed0_d0g0v0Filler.json"
        },
        "blocks" : [
            {
                "blockHeader" : {
                    "bloom" : "0x00000000000000000000000000000000000000000000000000000000000000000000000000000000000000000000000000000000000000000000000000000000000000000000000000000000000000000000000000000000000000000000000000000000000000000000000000000000000000000000000000000000000000000000000000000000000000000000000000000000000000000000000000000000000000000000000000000000000000000000000000000000000000000000000000000000000000000000000000000000000000000000000000000000000000000000000000000000000000000000000000000000000000000000000000000000",
                    "coinbase" : "0x2adc25665018aa1fe0e6bc666dac8fc2697ff9ba",
                    "difficulty" : "0x020000",
                    "extraData" : "",
                    "gasLimit" : "0x989680",
                    "gasUsed" : "0x37ba90",
                    "hash" : "0xd4d0d4f0a52922ff16f489e35c4f101ae16170b25bcd77e9cd38e3891bf228e3",
                    "mixHash" : "0xd62a42cd357a056de74ca9aee1173dd7c5ab4ae5d00581f5ee2513fb2de74ec9",
                    "nonce" : "0xc154c618355b0bd8",
                    "number" : "0x01",
                    "parentHash" : "0xbd7f02fd4b4fc043b5b12e183df3818466a08df9952bf30856d6934c4f6cc7f8",
                    "receiptTrie" : "0x627e3e78f6d713319cefa747e4b6ddd0a90173215927291bc07a44fa613eee04",
                    "stateRoot" : "0x046900528b26f3e9eb4b65da0da310800a8abfe66110494ee5225f862a34dd43",
                    "timestamp" : "0x03e8",
                    "transactionsTrie" : "0xd37192728eefe1f2e2362558635fa7ccf7265c44872f2a269cd9c945bcb9ecb5",
                    "uncleHash" : "0x1dcc4de8dec75d7aab85b567b6ccd41ad312451b948a7413f0a142fd40d49347"
                },
                "rlp" : "0xf90263f901f8a0bd7f02fd4b4fc043b5b12e183df3818466a08df9952bf30856d6934c4f6cc7f8a01dcc4de8dec75d7aab85b567b6ccd41ad312451b948a7413f0a142fd40d49347942adc25665018aa1fe0e6bc666dac8fc2697ff9baa0046900528b26f3e9eb4b65da0da310800a8abfe66110494ee5225f862a34dd43a0d37192728eefe1f2e2362558635fa7ccf7265c44872f2a269cd9c945bcb9ecb5a0627e3e78f6d713319cefa747e4b6ddd0a90173215927291bc07a44fa613eee04b90100000000000000000000000000000000000000000000000000000000000000000000000000000000000000000000000000000000000000000000000000000000000000000000000000000000000000000000000000000000000000000000000000000000000000000000000000000000000000000000000000000000000000000000000000000000000000000000000000000000000000000000000000000000000000000000000000000000000000000000000000000000000000000000000000000000000000000000000000000000000000000000000000000000000000000000000000000000000000000000000000000000000000000000000000000000008302000001839896808337ba908203e880a0d62a42cd357a056de74ca9aee1173dd7c5ab4ae5d00581f5ee2513fb2de74ec988c154c618355b0bd8f865f86380018337ba9094095e7baea6a6c7c4c2dfeb977efac326af552d87830186a0801ba03fcfff9e4085fc94af03ad71daa986e585e5b354c2b414a134e0624796a30d8ea072000b0edcceb7d4c1c5b6fed5bd5fcb74789702f3f171f1cd75c617bbb379cdc0",
                "transactions" : [
                    {
                        "data" : "",
                        "gasLimit" : "0x37ba90",
                        "gasPrice" : "0x01",
                        "nonce" : "0x00",
                        "r" : "0x3fcfff9e4085fc94af03ad71daa986e585e5b354c2b414a134e0624796a30d8e",
                        "s" : "0x72000b0edcceb7d4c1c5b6fed5bd5fcb74789702f3f171f1cd75c617bbb379cd",
                        "to" : "0x095e7baea6a6c7c4c2dfeb977efac326af552d87",
                        "v" : "0x1b",
                        "value" : "0x0186a0"
                    }
                ],
                "uncleHeaders" : [
                ]
            }
        ],
        "genesisBlockHeader" : {
            "bloom" : "0x00000000000000000000000000000000000000000000000000000000000000000000000000000000000000000000000000000000000000000000000000000000000000000000000000000000000000000000000000000000000000000000000000000000000000000000000000000000000000000000000000000000000000000000000000000000000000000000000000000000000000000000000000000000000000000000000000000000000000000000000000000000000000000000000000000000000000000000000000000000000000000000000000000000000000000000000000000000000000000000000000000000000000000000000000000000",
            "coinbase" : "0x2adc25665018aa1fe0e6bc666dac8fc2697ff9ba",
            "difficulty" : "0x020000",
            "extraData" : "0x42",
            "gasLimit" : "0x989680",
            "gasUsed" : "0x00",
            "hash" : "0xbd7f02fd4b4fc043b5b12e183df3818466a08df9952bf30856d6934c4f6cc7f8",
            "mixHash" : "0x56e81f171bcc55a6ff8345e692c0f86e5b48e01b996cadc001622fb5e363b421",
            "nonce" : "0x0102030405060708",
            "number" : "0x00",
            "parentHash" : "0x0000000000000000000000000000000000000000000000000000000000000000",
            "receiptTrie" : "0x56e81f171bcc55a6ff8345e692c0f86e5b48e01b996cadc001622fb5e363b421",
            "stateRoot" : "0x2cb60c4150b63a126b023662d2db7745c9ef5066fc03c74fa194407f2de304c0",
            "timestamp" : "0x03b6",
            "transactionsTrie" : "0x56e81f171bcc55a6ff8345e692c0f86e5b48e01b996cadc001622fb5e363b421",
            "uncleHash" : "0x1dcc4de8dec75d7aab85b567b6ccd41ad312451b948a7413f0a142fd40d49347"
        },
        "genesisRLP" : "0xf901faf901f5a00000000000000000000000000000000000000000000000000000000000000000a01dcc4de8dec75d7aab85b567b6ccd41ad312451b948a7413f0a142fd40d49347942adc25665018aa1fe0e6bc666dac8fc2697ff9baa02cb60c4150b63a126b023662d2db7745c9ef5066fc03c74fa194407f2de304c0a056e81f171bcc55a6ff8345e692c0f86e5b48e01b996cadc001622fb5e363b421a056e81f171bcc55a6ff8345e692c0f86e5b48e01b996cadc001622fb5e363b421b9010000000000000000000000000000000000000000000000000000000000000000000000000000000000000000000000000000000000000000000000000000000000000000000000000000000000000000000000000000000000000000000000000000000000000000000000000000000000000000000000000000000000000000000000000000000000000000000000000000000000000000000000000000000000000000000000000000000000000000000000000000000000000000000000000000000000000000000000000000000000000000000000000000000000000000000000000000000000000000000000000000000000000000000000000000000000830200008083989680808203b642a056e81f171bcc55a6ff8345e692c0f86e5b48e01b996cadc001622fb5e363b421880102030405060708c0c0",
        "lastblockhash" : "0xd4d0d4f0a52922ff16f489e35c4f101ae16170b25bcd77e9cd38e3891bf228e3",
        "network" : "EIP158",
        "postState" : {
            "0x095e7baea6a6c7c4c2dfeb977efac326af552d87" : {
                "balance" : "0x01312d00",
                "code" : "0x7f18c547e4f7b0f325ad1e56f57e26c745b09a3e503d86e00e5255ff7f715d3d1c600052601c6020527f73b1693892219d736caba55bdb67216e485557ea6b6af75f37096c9aa6a5a75f6040527eb940b1d03b21e36b0e47e79769f095fe2ab855bd91e3a38756b7d75a9c454960605260206080608060006001620493e0fa60025560a060020a608051066000556000543214600155",
                "nonce" : "0x00",
                "storage" : {
                }
            },
            "0x2adc25665018aa1fe0e6bc666dac8fc2697ff9ba" : {
                "balance" : "0x45639182452bba90",
                "code" : "",
                "nonce" : "0x00",
                "storage" : {
                }
            },
            "0xa94f5374fce5edbc8e2a8697c15331677e6ebf0b" : {
                "balance" : "0x0de0b6b3a72c4570",
                "code" : "",
                "nonce" : "0x01",
                "storage" : {
                }
            }
        },
        "pre" : {
            "0x095e7baea6a6c7c4c2dfeb977efac326af552d87" : {
                "balance" : "0x01312d00",
                "code" : "0x7f18c547e4f7b0f325ad1e56f57e26c745b09a3e503d86e00e5255ff7f715d3d1c600052601c6020527f73b1693892219d736caba55bdb67216e485557ea6b6af75f37096c9aa6a5a75f6040527eb940b1d03b21e36b0e47e79769f095fe2ab855bd91e3a38756b7d75a9c454960605260206080608060006001620493e0fa60025560a060020a608051066000556000543214600155",
                "nonce" : "0x00",
                "storage" : {
                }
            },
            "0xa94f5374fce5edbc8e2a8697c15331677e6ebf0b" : {
                "balance" : "0x0de0b6b3a7640000",
                "code" : "",
                "nonce" : "0x00",
                "storage" : {
                }
            }
        }
    },
    "static_CallEcrecoverS_prefixed0_d0g0v0_Frontier" : {
        "_info" : {
            "comment" : "",
            "filledwith" : "cpp-1.3.0+commit.16292201.Linux.g++",
            "source" : "/src/GenStateTestAsBcTemp/stStaticCall/static_CallEcrecoverS_prefixed0_d0g0v0Filler.json"
        },
        "blocks" : [
            {
                "blockHeader" : {
                    "bloom" : "0x00000000000000000000000000000000000000000000000000000000000000000000000000000000000000000000000000000000000000000000000000000000000000000000000000000000000000000000000000000000000000000000000000000000000000000000000000000000000000000000000000000000000000000000000000000000000000000000000000000000000000000000000000000000000000000000000000000000000000000000000000000000000000000000000000000000000000000000000000000000000000000000000000000000000000000000000000000000000000000000000000000000000000000000000000000000",
                    "coinbase" : "0x2adc25665018aa1fe0e6bc666dac8fc2697ff9ba",
                    "difficulty" : "0x020000",
                    "extraData" : "",
                    "gasLimit" : "0x989680",
                    "gasUsed" : "0x37ba90",
                    "hash" : "0x0a9a1a6f3256f56cf4b9c9213708996dc9f3d01c84ec266c5f9b379c68cbeb63",
                    "mixHash" : "0x0699bb94180f5cf1edad23052b1e6460772c7f425545afd369eb625e7ae67da9",
                    "nonce" : "0xb84b63c178bdab88",
                    "number" : "0x01",
                    "parentHash" : "0xbd7f02fd4b4fc043b5b12e183df3818466a08df9952bf30856d6934c4f6cc7f8",
                    "receiptTrie" : "0x627e3e78f6d713319cefa747e4b6ddd0a90173215927291bc07a44fa613eee04",
                    "stateRoot" : "0x046900528b26f3e9eb4b65da0da310800a8abfe66110494ee5225f862a34dd43",
                    "timestamp" : "0x03e8",
                    "transactionsTrie" : "0xd37192728eefe1f2e2362558635fa7ccf7265c44872f2a269cd9c945bcb9ecb5",
                    "uncleHash" : "0x1dcc4de8dec75d7aab85b567b6ccd41ad312451b948a7413f0a142fd40d49347"
                },
                "rlp" : "0xf90263f901f8a0bd7f02fd4b4fc043b5b12e183df3818466a08df9952bf30856d6934c4f6cc7f8a01dcc4de8dec75d7aab85b567b6ccd41ad312451b948a7413f0a142fd40d49347942adc25665018aa1fe0e6bc666dac8fc2697ff9baa0046900528b26f3e9eb4b65da0da310800a8abfe66110494ee5225f862a34dd43a0d37192728eefe1f2e2362558635fa7ccf7265c44872f2a269cd9c945bcb9ecb5a0627e3e78f6d713319cefa747e4b6ddd0a90173215927291bc07a44fa613eee04b90100000000000000000000000000000000000000000000000000000000000000000000000000000000000000000000000000000000000000000000000000000000000000000000000000000000000000000000000000000000000000000000000000000000000000000000000000000000000000000000000000000000000000000000000000000000000000000000000000000000000000000000000000000000000000000000000000000000000000000000000000000000000000000000000000000000000000000000000000000000000000000000000000000000000000000000000000000000000000000000000000000000000000000000000000000000008302000001839896808337ba908203e880a00699bb94180f5cf1edad23052b1e6460772c7f425545afd369eb625e7ae67da988b84b63c178bdab88f865f86380018337ba9094095e7baea6a6c7c4c2dfeb977efac326af552d87830186a0801ba03fcfff9e4085fc94af03ad71daa986e585e5b354c2b414a134e0624796a30d8ea072000b0edcceb7d4c1c5b6fed5bd5fcb74789702f3f171f1cd75c617bbb379cdc0",
                "transactions" : [
                    {
                        "data" : "",
                        "gasLimit" : "0x37ba90",
                        "gasPrice" : "0x01",
                        "nonce" : "0x00",
                        "r" : "0x3fcfff9e4085fc94af03ad71daa986e585e5b354c2b414a134e0624796a30d8e",
                        "s" : "0x72000b0edcceb7d4c1c5b6fed5bd5fcb74789702f3f171f1cd75c617bbb379cd",
                        "to" : "0x095e7baea6a6c7c4c2dfeb977efac326af552d87",
                        "v" : "0x1b",
                        "value" : "0x0186a0"
                    }
                ],
                "uncleHeaders" : [
                ]
            }
        ],
        "genesisBlockHeader" : {
            "bloom" : "0x00000000000000000000000000000000000000000000000000000000000000000000000000000000000000000000000000000000000000000000000000000000000000000000000000000000000000000000000000000000000000000000000000000000000000000000000000000000000000000000000000000000000000000000000000000000000000000000000000000000000000000000000000000000000000000000000000000000000000000000000000000000000000000000000000000000000000000000000000000000000000000000000000000000000000000000000000000000000000000000000000000000000000000000000000000000",
            "coinbase" : "0x2adc25665018aa1fe0e6bc666dac8fc2697ff9ba",
            "difficulty" : "0x020000",
            "extraData" : "0x42",
            "gasLimit" : "0x989680",
            "gasUsed" : "0x00",
            "hash" : "0xbd7f02fd4b4fc043b5b12e183df3818466a08df9952bf30856d6934c4f6cc7f8",
            "mixHash" : "0x56e81f171bcc55a6ff8345e692c0f86e5b48e01b996cadc001622fb5e363b421",
            "nonce" : "0x0102030405060708",
            "number" : "0x00",
            "parentHash" : "0x0000000000000000000000000000000000000000000000000000000000000000",
            "receiptTrie" : "0x56e81f171bcc55a6ff8345e692c0f86e5b48e01b996cadc001622fb5e363b421",
            "stateRoot" : "0x2cb60c4150b63a126b023662d2db7745c9ef5066fc03c74fa194407f2de304c0",
            "timestamp" : "0x03b6",
            "transactionsTrie" : "0x56e81f171bcc55a6ff8345e692c0f86e5b48e01b996cadc001622fb5e363b421",
            "uncleHash" : "0x1dcc4de8dec75d7aab85b567b6ccd41ad312451b948a7413f0a142fd40d49347"
        },
        "genesisRLP" : "0xf901faf901f5a00000000000000000000000000000000000000000000000000000000000000000a01dcc4de8dec75d7aab85b567b6ccd41ad312451b948a7413f0a142fd40d49347942adc25665018aa1fe0e6bc666dac8fc2697ff9baa02cb60c4150b63a126b023662d2db7745c9ef5066fc03c74fa194407f2de304c0a056e81f171bcc55a6ff8345e692c0f86e5b48e01b996cadc001622fb5e363b421a056e81f171bcc55a6ff8345e692c0f86e5b48e01b996cadc001622fb5e363b421b9010000000000000000000000000000000000000000000000000000000000000000000000000000000000000000000000000000000000000000000000000000000000000000000000000000000000000000000000000000000000000000000000000000000000000000000000000000000000000000000000000000000000000000000000000000000000000000000000000000000000000000000000000000000000000000000000000000000000000000000000000000000000000000000000000000000000000000000000000000000000000000000000000000000000000000000000000000000000000000000000000000000000000000000000000000000000830200008083989680808203b642a056e81f171bcc55a6ff8345e692c0f86e5b48e01b996cadc001622fb5e363b421880102030405060708c0c0",
        "lastblockhash" : "0x0a9a1a6f3256f56cf4b9c9213708996dc9f3d01c84ec266c5f9b379c68cbeb63",
        "network" : "Frontier",
        "postState" : {
            "0x095e7baea6a6c7c4c2dfeb977efac326af552d87" : {
                "balance" : "0x01312d00",
                "code" : "0x7f18c547e4f7b0f325ad1e56f57e26c745b09a3e503d86e00e5255ff7f715d3d1c600052601c6020527f73b1693892219d736caba55bdb67216e485557ea6b6af75f37096c9aa6a5a75f6040527eb940b1d03b21e36b0e47e79769f095fe2ab855bd91e3a38756b7d75a9c454960605260206080608060006001620493e0fa60025560a060020a608051066000556000543214600155",
                "nonce" : "0x00",
                "storage" : {
                }
            },
            "0x2adc25665018aa1fe0e6bc666dac8fc2697ff9ba" : {
                "balance" : "0x45639182452bba90",
                "code" : "",
                "nonce" : "0x00",
                "storage" : {
                }
            },
            "0xa94f5374fce5edbc8e2a8697c15331677e6ebf0b" : {
                "balance" : "0x0de0b6b3a72c4570",
                "code" : "",
                "nonce" : "0x01",
                "storage" : {
                }
            }
        },
        "pre" : {
            "0x095e7baea6a6c7c4c2dfeb977efac326af552d87" : {
                "balance" : "0x01312d00",
                "code" : "0x7f18c547e4f7b0f325ad1e56f57e26c745b09a3e503d86e00e5255ff7f715d3d1c600052601c6020527f73b1693892219d736caba55bdb67216e485557ea6b6af75f37096c9aa6a5a75f6040527eb940b1d03b21e36b0e47e79769f095fe2ab855bd91e3a38756b7d75a9c454960605260206080608060006001620493e0fa60025560a060020a608051066000556000543214600155",
                "nonce" : "0x00",
                "storage" : {
                }
            },
            "0xa94f5374fce5edbc8e2a8697c15331677e6ebf0b" : {
                "balance" : "0x0de0b6b3a7640000",
                "code" : "",
                "nonce" : "0x00",
                "storage" : {
                }
            }
        }
    },
    "static_CallEcrecoverS_prefixed0_d0g0v0_Homestead" : {
        "_info" : {
            "comment" : "",
            "filledwith" : "cpp-1.3.0+commit.16292201.Linux.g++",
            "source" : "/src/GenStateTestAsBcTemp/stStaticCall/static_CallEcrecoverS_prefixed0_d0g0v0Filler.json"
        },
        "blocks" : [
            {
                "blockHeader" : {
                    "bloom" : "0x00000000000000000000000000000000000000000000000000000000000000000000000000000000000000000000000000000000000000000000000000000000000000000000000000000000000000000000000000000000000000000000000000000000000000000000000000000000000000000000000000000000000000000000000000000000000000000000000000000000000000000000000000000000000000000000000000000000000000000000000000000000000000000000000000000000000000000000000000000000000000000000000000000000000000000000000000000000000000000000000000000000000000000000000000000000",
                    "coinbase" : "0x2adc25665018aa1fe0e6bc666dac8fc2697ff9ba",
                    "difficulty" : "0x020000",
                    "extraData" : "",
                    "gasLimit" : "0x989680",
                    "gasUsed" : "0x37ba90",
                    "hash" : "0x706198e0dfcc63fb36e513af247dbd3fd86a0b48c899198f79bdb55064e9b412",
                    "mixHash" : "0x93c7f03b07d5524ae1c321168052cdd7e1e9ec59990e334bd149d9c8e92e6349",
                    "nonce" : "0x7249dfe048c39fa8",
                    "number" : "0x01",
                    "parentHash" : "0xbd7f02fd4b4fc043b5b12e183df3818466a08df9952bf30856d6934c4f6cc7f8",
                    "receiptTrie" : "0x627e3e78f6d713319cefa747e4b6ddd0a90173215927291bc07a44fa613eee04",
                    "stateRoot" : "0x046900528b26f3e9eb4b65da0da310800a8abfe66110494ee5225f862a34dd43",
                    "timestamp" : "0x03e8",
                    "transactionsTrie" : "0xd37192728eefe1f2e2362558635fa7ccf7265c44872f2a269cd9c945bcb9ecb5",
                    "uncleHash" : "0x1dcc4de8dec75d7aab85b567b6ccd41ad312451b948a7413f0a142fd40d49347"
                },
                "rlp" : "0xf90263f901f8a0bd7f02fd4b4fc043b5b12e183df3818466a08df9952bf30856d6934c4f6cc7f8a01dcc4de8dec75d7aab85b567b6ccd41ad312451b948a7413f0a142fd40d49347942adc25665018aa1fe0e6bc666dac8fc2697ff9baa0046900528b26f3e9eb4b65da0da310800a8abfe66110494ee5225f862a34dd43a0d37192728eefe1f2e2362558635fa7ccf7265c44872f2a269cd9c945bcb9ecb5a0627e3e78f6d713319cefa747e4b6ddd0a90173215927291bc07a44fa613eee04b90100000000000000000000000000000000000000000000000000000000000000000000000000000000000000000000000000000000000000000000000000000000000000000000000000000000000000000000000000000000000000000000000000000000000000000000000000000000000000000000000000000000000000000000000000000000000000000000000000000000000000000000000000000000000000000000000000000000000000000000000000000000000000000000000000000000000000000000000000000000000000000000000000000000000000000000000000000000000000000000000000000000000000000000000000000000008302000001839896808337ba908203e880a093c7f03b07d5524ae1c321168052cdd7e1e9ec59990e334bd149d9c8e92e6349887249dfe048c39fa8f865f86380018337ba9094095e7baea6a6c7c4c2dfeb977efac326af552d87830186a0801ba03fcfff9e4085fc94af03ad71daa986e585e5b354c2b414a134e0624796a30d8ea072000b0edcceb7d4c1c5b6fed5bd5fcb74789702f3f171f1cd75c617bbb379cdc0",
                "transactions" : [
                    {
                        "data" : "",
                        "gasLimit" : "0x37ba90",
                        "gasPrice" : "0x01",
                        "nonce" : "0x00",
                        "r" : "0x3fcfff9e4085fc94af03ad71daa986e585e5b354c2b414a134e0624796a30d8e",
                        "s" : "0x72000b0edcceb7d4c1c5b6fed5bd5fcb74789702f3f171f1cd75c617bbb379cd",
                        "to" : "0x095e7baea6a6c7c4c2dfeb977efac326af552d87",
                        "v" : "0x1b",
                        "value" : "0x0186a0"
                    }
                ],
                "uncleHeaders" : [
                ]
            }
        ],
        "genesisBlockHeader" : {
            "bloom" : "0x00000000000000000000000000000000000000000000000000000000000000000000000000000000000000000000000000000000000000000000000000000000000000000000000000000000000000000000000000000000000000000000000000000000000000000000000000000000000000000000000000000000000000000000000000000000000000000000000000000000000000000000000000000000000000000000000000000000000000000000000000000000000000000000000000000000000000000000000000000000000000000000000000000000000000000000000000000000000000000000000000000000000000000000000000000000",
            "coinbase" : "0x2adc25665018aa1fe0e6bc666dac8fc2697ff9ba",
            "difficulty" : "0x020000",
            "extraData" : "0x42",
            "gasLimit" : "0x989680",
            "gasUsed" : "0x00",
            "hash" : "0xbd7f02fd4b4fc043b5b12e183df3818466a08df9952bf30856d6934c4f6cc7f8",
            "mixHash" : "0x56e81f171bcc55a6ff8345e692c0f86e5b48e01b996cadc001622fb5e363b421",
            "nonce" : "0x0102030405060708",
            "number" : "0x00",
            "parentHash" : "0x0000000000000000000000000000000000000000000000000000000000000000",
            "receiptTrie" : "0x56e81f171bcc55a6ff8345e692c0f86e5b48e01b996cadc001622fb5e363b421",
            "stateRoot" : "0x2cb60c4150b63a126b023662d2db7745c9ef5066fc03c74fa194407f2de304c0",
            "timestamp" : "0x03b6",
            "transactionsTrie" : "0x56e81f171bcc55a6ff8345e692c0f86e5b48e01b996cadc001622fb5e363b421",
            "uncleHash" : "0x1dcc4de8dec75d7aab85b567b6ccd41ad312451b948a7413f0a142fd40d49347"
        },
        "genesisRLP" : "0xf901faf901f5a00000000000000000000000000000000000000000000000000000000000000000a01dcc4de8dec75d7aab85b567b6ccd41ad312451b948a7413f0a142fd40d49347942adc25665018aa1fe0e6bc666dac8fc2697ff9baa02cb60c4150b63a126b023662d2db7745c9ef5066fc03c74fa194407f2de304c0a056e81f171bcc55a6ff8345e692c0f86e5b48e01b996cadc001622fb5e363b421a056e81f171bcc55a6ff8345e692c0f86e5b48e01b996cadc001622fb5e363b421b9010000000000000000000000000000000000000000000000000000000000000000000000000000000000000000000000000000000000000000000000000000000000000000000000000000000000000000000000000000000000000000000000000000000000000000000000000000000000000000000000000000000000000000000000000000000000000000000000000000000000000000000000000000000000000000000000000000000000000000000000000000000000000000000000000000000000000000000000000000000000000000000000000000000000000000000000000000000000000000000000000000000000000000000000000000000000830200008083989680808203b642a056e81f171bcc55a6ff8345e692c0f86e5b48e01b996cadc001622fb5e363b421880102030405060708c0c0",
        "lastblockhash" : "0x706198e0dfcc63fb36e513af247dbd3fd86a0b48c899198f79bdb55064e9b412",
        "network" : "Homestead",
        "postState" : {
            "0x095e7baea6a6c7c4c2dfeb977efac326af552d87" : {
                "balance" : "0x01312d00",
                "code" : "0x7f18c547e4f7b0f325ad1e56f57e26c745b09a3e503d86e00e5255ff7f715d3d1c600052601c6020527f73b1693892219d736caba55bdb67216e485557ea6b6af75f37096c9aa6a5a75f6040527eb940b1d03b21e36b0e47e79769f095fe2ab855bd91e3a38756b7d75a9c454960605260206080608060006001620493e0fa60025560a060020a608051066000556000543214600155",
                "nonce" : "0x00",
                "storage" : {
                }
            },
            "0x2adc25665018aa1fe0e6bc666dac8fc2697ff9ba" : {
                "balance" : "0x45639182452bba90",
                "code" : "",
                "nonce" : "0x00",
                "storage" : {
                }
            },
            "0xa94f5374fce5edbc8e2a8697c15331677e6ebf0b" : {
                "balance" : "0x0de0b6b3a72c4570",
                "code" : "",
                "nonce" : "0x01",
                "storage" : {
                }
            }
        },
        "pre" : {
            "0x095e7baea6a6c7c4c2dfeb977efac326af552d87" : {
                "balance" : "0x01312d00",
                "code" : "0x7f18c547e4f7b0f325ad1e56f57e26c745b09a3e503d86e00e5255ff7f715d3d1c600052601c6020527f73b1693892219d736caba55bdb67216e485557ea6b6af75f37096c9aa6a5a75f6040527eb940b1d03b21e36b0e47e79769f095fe2ab855bd91e3a38756b7d75a9c454960605260206080608060006001620493e0fa60025560a060020a608051066000556000543214600155",
                "nonce" : "0x00",
                "storage" : {
                }
            },
            "0xa94f5374fce5edbc8e2a8697c15331677e6ebf0b" : {
                "balance" : "0x0de0b6b3a7640000",
                "code" : "",
                "nonce" : "0x00",
                "storage" : {
                }
            }
        }
    },
    "static_CallEcrecoverS_prefixed0_d0g0v0_Metropolis" : {
        "_info" : {
            "comment" : "",
            "filledwith" : "cpp-1.3.0+commit.16292201.Linux.g++",
            "source" : "/src/GenStateTestAsBcTemp/stStaticCall/static_CallEcrecoverS_prefixed0_d0g0v0Filler.json"
        },
        "blocks" : [
            {
                "blockHeader" : {
                    "bloom" : "0x00000000000000000000000000000000000000000000000000000000000000000000000000000000000000000000000000000000000000000000000000000000000000000000000000000000000000000000000000000000000000000000000000000000000000000000000000000000000000000000000000000000000000000000000000000000000000000000000000000000000000000000000000000000000000000000000000000000000000000000000000000000000000000000000000000000000000000000000000000000000000000000000000000000000000000000000000000000000000000000000000000000000000000000000000000000",
                    "coinbase" : "0x2adc25665018aa1fe0e6bc666dac8fc2697ff9ba",
                    "difficulty" : "0x020000",
                    "extraData" : "",
                    "gasLimit" : "0x989680",
                    "gasUsed" : "0x0111af",
                    "hash" : "0xe636e145f2b38379a40f76b6675e0a11095fa1adcba21a235b00aa0536c47d89",
                    "mixHash" : "0xa1726a39e699c8c68f2e0fe3f0d7f5a687d5bba293ffb1664d71327df7a357ad",
                    "nonce" : "0x275ca49b5398d1d9",
                    "number" : "0x01",
                    "parentHash" : "0xbd7f02fd4b4fc043b5b12e183df3818466a08df9952bf30856d6934c4f6cc7f8",
                    "receiptTrie" : "0xbe003557d0ba6cbb689df0c684f991aad9bbb58b9976bf99c8c576c78d5bbb3c",
                    "stateRoot" : "0x3f28deac9d31591ab0cb4a3e058b157d351f1e84caa229fd99db6db231229d68",
                    "timestamp" : "0x03e8",
                    "transactionsTrie" : "0xd37192728eefe1f2e2362558635fa7ccf7265c44872f2a269cd9c945bcb9ecb5",
                    "uncleHash" : "0x1dcc4de8dec75d7aab85b567b6ccd41ad312451b948a7413f0a142fd40d49347"
                },
                "rlp" : "0xf90263f901f8a0bd7f02fd4b4fc043b5b12e183df3818466a08df9952bf30856d6934c4f6cc7f8a01dcc4de8dec75d7aab85b567b6ccd41ad312451b948a7413f0a142fd40d49347942adc25665018aa1fe0e6bc666dac8fc2697ff9baa03f28deac9d31591ab0cb4a3e058b157d351f1e84caa229fd99db6db231229d68a0d37192728eefe1f2e2362558635fa7ccf7265c44872f2a269cd9c945bcb9ecb5a0be003557d0ba6cbb689df0c684f991aad9bbb58b9976bf99c8c576c78d5bbb3cb9010000000000000000000000000000000000000000000000000000000000000000000000000000000000000000000000000000000000000000000000000000000000000000000000000000000000000000000000000000000000000000000000000000000000000000000000000000000000000000000000000000000000000000000000000000000000000000000000000000000000000000000000000000000000000000000000000000000000000000000000000000000000000000000000000000000000000000000000000000000000000000000000000000000000000000000000000000000000000000000000000000000000000000000000000000000000830200000183989680830111af8203e880a0a1726a39e699c8c68f2e0fe3f0d7f5a687d5bba293ffb1664d71327df7a357ad88275ca49b5398d1d9f865f86380018337ba9094095e7baea6a6c7c4c2dfeb977efac326af552d87830186a0801ba03fcfff9e4085fc94af03ad71daa986e585e5b354c2b414a134e0624796a30d8ea072000b0edcceb7d4c1c5b6fed5bd5fcb74789702f3f171f1cd75c617bbb379cdc0",
                "transactions" : [
                    {
                        "data" : "",
                        "gasLimit" : "0x37ba90",
                        "gasPrice" : "0x01",
                        "nonce" : "0x00",
                        "r" : "0x3fcfff9e4085fc94af03ad71daa986e585e5b354c2b414a134e0624796a30d8e",
                        "s" : "0x72000b0edcceb7d4c1c5b6fed5bd5fcb74789702f3f171f1cd75c617bbb379cd",
                        "to" : "0x095e7baea6a6c7c4c2dfeb977efac326af552d87",
                        "v" : "0x1b",
                        "value" : "0x0186a0"
                    }
                ],
                "uncleHeaders" : [
                ]
            }
        ],
        "genesisBlockHeader" : {
            "bloom" : "0x00000000000000000000000000000000000000000000000000000000000000000000000000000000000000000000000000000000000000000000000000000000000000000000000000000000000000000000000000000000000000000000000000000000000000000000000000000000000000000000000000000000000000000000000000000000000000000000000000000000000000000000000000000000000000000000000000000000000000000000000000000000000000000000000000000000000000000000000000000000000000000000000000000000000000000000000000000000000000000000000000000000000000000000000000000000",
            "coinbase" : "0x2adc25665018aa1fe0e6bc666dac8fc2697ff9ba",
            "difficulty" : "0x020000",
            "extraData" : "0x42",
            "gasLimit" : "0x989680",
            "gasUsed" : "0x00",
            "hash" : "0xbd7f02fd4b4fc043b5b12e183df3818466a08df9952bf30856d6934c4f6cc7f8",
            "mixHash" : "0x56e81f171bcc55a6ff8345e692c0f86e5b48e01b996cadc001622fb5e363b421",
            "nonce" : "0x0102030405060708",
            "number" : "0x00",
            "parentHash" : "0x0000000000000000000000000000000000000000000000000000000000000000",
            "receiptTrie" : "0x56e81f171bcc55a6ff8345e692c0f86e5b48e01b996cadc001622fb5e363b421",
            "stateRoot" : "0x2cb60c4150b63a126b023662d2db7745c9ef5066fc03c74fa194407f2de304c0",
            "timestamp" : "0x03b6",
            "transactionsTrie" : "0x56e81f171bcc55a6ff8345e692c0f86e5b48e01b996cadc001622fb5e363b421",
            "uncleHash" : "0x1dcc4de8dec75d7aab85b567b6ccd41ad312451b948a7413f0a142fd40d49347"
        },
        "genesisRLP" : "0xf901faf901f5a00000000000000000000000000000000000000000000000000000000000000000a01dcc4de8dec75d7aab85b567b6ccd41ad312451b948a7413f0a142fd40d49347942adc25665018aa1fe0e6bc666dac8fc2697ff9baa02cb60c4150b63a126b023662d2db7745c9ef5066fc03c74fa194407f2de304c0a056e81f171bcc55a6ff8345e692c0f86e5b48e01b996cadc001622fb5e363b421a056e81f171bcc55a6ff8345e692c0f86e5b48e01b996cadc001622fb5e363b421b9010000000000000000000000000000000000000000000000000000000000000000000000000000000000000000000000000000000000000000000000000000000000000000000000000000000000000000000000000000000000000000000000000000000000000000000000000000000000000000000000000000000000000000000000000000000000000000000000000000000000000000000000000000000000000000000000000000000000000000000000000000000000000000000000000000000000000000000000000000000000000000000000000000000000000000000000000000000000000000000000000000000000000000000000000000000000830200008083989680808203b642a056e81f171bcc55a6ff8345e692c0f86e5b48e01b996cadc001622fb5e363b421880102030405060708c0c0",
        "lastblockhash" : "0xe636e145f2b38379a40f76b6675e0a11095fa1adcba21a235b00aa0536c47d89",
        "network" : "Metropolis",
        "postState" : {
            "0x00000000000000000000000000000000000000f0" : {
                "balance" : "0x00",
                "code" : "",
                "nonce" : "0x00",
                "storage" : {
                }
            },
            "0x095e7baea6a6c7c4c2dfeb977efac326af552d87" : {
                "balance" : "0x0132b3a0",
                "code" : "0x7f18c547e4f7b0f325ad1e56f57e26c745b09a3e503d86e00e5255ff7f715d3d1c600052601c6020527f73b1693892219d736caba55bdb67216e485557ea6b6af75f37096c9aa6a5a75f6040527eb940b1d03b21e36b0e47e79769f095fe2ab855bd91e3a38756b7d75a9c454960605260206080608060006001620493e0fa60025560a060020a608051066000556000543214600155",
                "nonce" : "0x00",
                "storage" : {
                    "0x00" : "0xb4950a7fad428434b11c357fa6d4b4bcd3096a5d",
                    "0x02" : "0x01"
                }
            },
            "0x2adc25665018aa1fe0e6bc666dac8fc2697ff9ba" : {
                "balance" : "0x4563918244f511af",
                "code" : "",
                "nonce" : "0x00",
                "storage" : {
                }
            },
            "0xa94f5374fce5edbc8e2a8697c15331677e6ebf0b" : {
                "balance" : "0x0de0b6b3a76167b1",
                "code" : "",
                "nonce" : "0x01",
                "storage" : {
                }
            }
        },
        "pre" : {
            "0x095e7baea6a6c7c4c2dfeb977efac326af552d87" : {
                "balance" : "0x01312d00",
                "code" : "0x7f18c547e4f7b0f325ad1e56f57e26c745b09a3e503d86e00e5255ff7f715d3d1c600052601c6020527f73b1693892219d736caba55bdb67216e485557ea6b6af75f37096c9aa6a5a75f6040527eb940b1d03b21e36b0e47e79769f095fe2ab855bd91e3a38756b7d75a9c454960605260206080608060006001620493e0fa60025560a060020a608051066000556000543214600155",
                "nonce" : "0x00",
                "storage" : {
                }
            },
            "0xa94f5374fce5edbc8e2a8697c15331677e6ebf0b" : {
                "balance" : "0x0de0b6b3a7640000",
                "code" : "",
                "nonce" : "0x00",
                "storage" : {
                }
            }
        }
    }
}