{
    "static_callcodecallcall_100_OOGMAfter_3_d0g0v0_Byzantium" : {
        "_info" : {
            "comment" : "",
            "filledwith" : "cpp-1.3.0+commit.ab4ca6d1.Linux.g++",
            "lllcversion" : "Version: 0.4.20-develop.2018.1.8+commit.2548228b.Linux.g++",
            "source" : "src/BlockchainTestsFiller/GeneralStateTests/stStaticCall/static_callcodecallcall_100_OOGMAfter_3_d0g0v0Filler.json",
            "sourceHash" : "44076e9aca91b82a1326f6060d8ff77421760b9546d31bb066df0ec0f785627a"
        },
        "blocks" : [
            {
                "blockHeader" : {
                    "bloom" : "0x00000000000000000000000000000000000000000000000000000000000000000000000000000000000000000000000000000000000000000000000000000000000000000000000000000000000000000000000000000000000000000000000000000000000000000000000000000000000000000000000000000000000000000000000000000000000000000000000000000000000000000000000000000000000000000000000000000000000000000000000000000000000000000000000000000000000000000000000000000000000000000000000000000000000000000000000000000000000000000000000000000000000000000000000000000000",
                    "coinbase" : "0x2adc25665018aa1fe0e6bc666dac8fc2697ff9ba",
                    "difficulty" : "0x020000",
                    "extraData" : "",
                    "gasLimit" : "0x989680",
                    "gasUsed" : "0x01a184",
                    "hash" : "0x3cc775f93500faf7114d145e64760dcf96f36e634a7f4551e9e17d3d4660c615",
                    "mixHash" : "0xe842e115cdf27c1bc5cd3be2e58ebb2e2baaeda3f4d481bbfa439e35bfd281de",
                    "nonce" : "0x7d02054abf9b1564",
                    "number" : "0x01",
                    "parentHash" : "0xefb70fb7024254eacdf877fa3fc94269cc4f23ea1dbe76f9201940fe8454f8f0",
                    "receiptTrie" : "0x3a836fd625317f08d897eb8a0eab7628878e6e1218a2eb421bceb62b4f965895",
                    "stateRoot" : "0x52d899a6f89fe859748816186309f4080bd25745f49acfb4d4ec4295975edbac",
                    "timestamp" : "0x03e8",
                    "transactionsTrie" : "0xa9196e82a3a9d85d7bcc420dbac78c908768ad2d33a3655ba2e493e2d6dc055e",
                    "uncleHash" : "0x1dcc4de8dec75d7aab85b567b6ccd41ad312451b948a7413f0a142fd40d49347"
                },
                "rlp" : "0xf90260f901f8a0efb70fb7024254eacdf877fa3fc94269cc4f23ea1dbe76f9201940fe8454f8f0a01dcc4de8dec75d7aab85b567b6ccd41ad312451b948a7413f0a142fd40d49347942adc25665018aa1fe0e6bc666dac8fc2697ff9baa052d899a6f89fe859748816186309f4080bd25745f49acfb4d4ec4295975edbaca0a9196e82a3a9d85d7bcc420dbac78c908768ad2d33a3655ba2e493e2d6dc055ea03a836fd625317f08d897eb8a0eab7628878e6e1218a2eb421bceb62b4f965895b90100000000000000000000000000000000000000000000000000000000000000000000000000000000000000000000000000000000000000000000000000000000000000000000000000000000000000000000000000000000000000000000000000000000000000000000000000000000000000000000000000000000000000000000000000000000000000000000000000000000000000000000000000000000000000000000000000000000000000000000000000000000000000000000000000000000000000000000000000000000000000000000000000000000000000000000000000000000000000000000000000000000000000000000000000000000008302000001839896808301a1848203e880a0e842e115cdf27c1bc5cd3be2e58ebb2e2baaeda3f4d481bbfa439e35bfd281de887d02054abf9b1564f862f860800183029fe094100000000000000000000000000000000000000080801ba0baf8a8f59325064cb79441e4e78350cedcb7f76317c4f8d9ed321025db52916ba04cc988db9cec57eda456bb242201bb41c723f2427ff750123f11af6b759547e2c0",
                "transactions" : [
                    {
                        "data" : "0x",
                        "gasLimit" : "0x029fe0",
                        "gasPrice" : "0x01",
                        "nonce" : "0x00",
                        "r" : "0xbaf8a8f59325064cb79441e4e78350cedcb7f76317c4f8d9ed321025db52916b",
                        "s" : "0x4cc988db9cec57eda456bb242201bb41c723f2427ff750123f11af6b759547e2",
                        "to" : "0x1000000000000000000000000000000000000000",
                        "v" : "0x1b",
                        "value" : "0x00"
                    }
                ],
                "uncleHeaders" : [
                ]
            }
        ],
        "genesisBlockHeader" : {
            "bloom" : "0x00000000000000000000000000000000000000000000000000000000000000000000000000000000000000000000000000000000000000000000000000000000000000000000000000000000000000000000000000000000000000000000000000000000000000000000000000000000000000000000000000000000000000000000000000000000000000000000000000000000000000000000000000000000000000000000000000000000000000000000000000000000000000000000000000000000000000000000000000000000000000000000000000000000000000000000000000000000000000000000000000000000000000000000000000000000",
            "coinbase" : "0x2adc25665018aa1fe0e6bc666dac8fc2697ff9ba",
            "difficulty" : "0x020000",
            "extraData" : "0x42",
            "gasLimit" : "0x989680",
            "gasUsed" : "0x00",
            "hash" : "0xefb70fb7024254eacdf877fa3fc94269cc4f23ea1dbe76f9201940fe8454f8f0",
            "mixHash" : "0x56e81f171bcc55a6ff8345e692c0f86e5b48e01b996cadc001622fb5e363b421",
            "nonce" : "0x0102030405060708",
            "number" : "0x00",
            "parentHash" : "0x0000000000000000000000000000000000000000000000000000000000000000",
            "receiptTrie" : "0x56e81f171bcc55a6ff8345e692c0f86e5b48e01b996cadc001622fb5e363b421",
            "stateRoot" : "0xcebcad9127cc662fd1715b2681a613ffdaa6e8d2d1626d1e01d15b634bd7200e",
            "timestamp" : "0x03b6",
            "transactionsTrie" : "0x56e81f171bcc55a6ff8345e692c0f86e5b48e01b996cadc001622fb5e363b421",
            "uncleHash" : "0x1dcc4de8dec75d7aab85b567b6ccd41ad312451b948a7413f0a142fd40d49347"
        },
        "genesisRLP" : "0xf901faf901f5a00000000000000000000000000000000000000000000000000000000000000000a01dcc4de8dec75d7aab85b567b6ccd41ad312451b948a7413f0a142fd40d49347942adc25665018aa1fe0e6bc666dac8fc2697ff9baa0cebcad9127cc662fd1715b2681a613ffdaa6e8d2d1626d1e01d15b634bd7200ea056e81f171bcc55a6ff8345e692c0f86e5b48e01b996cadc001622fb5e363b421a056e81f171bcc55a6ff8345e692c0f86e5b48e01b996cadc001622fb5e363b421b9010000000000000000000000000000000000000000000000000000000000000000000000000000000000000000000000000000000000000000000000000000000000000000000000000000000000000000000000000000000000000000000000000000000000000000000000000000000000000000000000000000000000000000000000000000000000000000000000000000000000000000000000000000000000000000000000000000000000000000000000000000000000000000000000000000000000000000000000000000000000000000000000000000000000000000000000000000000000000000000000000000000000000000000000000000000000830200008083989680808203b642a056e81f171bcc55a6ff8345e692c0f86e5b48e01b996cadc001622fb5e363b421880102030405060708c0c0",
        "lastblockhash" : "0x3cc775f93500faf7114d145e64760dcf96f36e634a7f4551e9e17d3d4660c615",
        "network" : "Byzantium",
        "postState" : {
            "0x1000000000000000000000000000000000000000" : {
                "balance" : "0x0de0b6b3a7640000",
                "code" : "0x60406000604060003473100000000000000000000000000000000000000161eaf6f26000555a600155",
                "nonce" : "0x00",
                "storage" : {
                    "0x01" : "0x014c7f"
                }
            },
            "0x1000000000000000000000000000000000000001" : {
                "balance" : "0x00",
                "code" : "0x60016003526040600060406000731000000000000000000000000000000000000002619c90fa505b61c350608051101560435760013b506001608051016080526027565b",
                "nonce" : "0x00",
                "storage" : {
                }
            },
            "0x1000000000000000000000000000000000000002" : {
                "balance" : "0x00",
                "code" : "0x60016003526040600060406000731000000000000000000000000000000000000003614e34fa506001602052",
                "nonce" : "0x00",
                "storage" : {
                }
            },
            "0x1000000000000000000000000000000000000003" : {
                "balance" : "0x00",
                "code" : "0x6001600352",
                "nonce" : "0x00",
                "storage" : {
                }
            },
            "0x2adc25665018aa1fe0e6bc666dac8fc2697ff9ba" : {
                "balance" : "0x29a2241af62da184",
                "code" : "",
                "nonce" : "0x00",
                "storage" : {
                }
            },
            "0xa94f5374fce5edbc8e2a8697c15331677e6ebf0b" : {
                "balance" : "0x0de0b6b3a7625e7c",
                "code" : "",
                "nonce" : "0x01",
                "storage" : {
                }
            }
        },
        "pre" : {
            "0x1000000000000000000000000000000000000000" : {
                "balance" : "0x0de0b6b3a7640000",
                "code" : "0x60406000604060003473100000000000000000000000000000000000000161eaf6f26000555a600155",
                "nonce" : "0x00",
                "storage" : {
                }
            },
            "0x1000000000000000000000000000000000000001" : {
                "balance" : "0x00",
                "code" : "0x60016003526040600060406000731000000000000000000000000000000000000002619c90fa505b61c350608051101560435760013b506001608051016080526027565b",
                "nonce" : "0x00",
                "storage" : {
                }
            },
            "0x1000000000000000000000000000000000000002" : {
                "balance" : "0x00",
                "code" : "0x60016003526040600060406000731000000000000000000000000000000000000003614e34fa506001602052",
                "nonce" : "0x00",
                "storage" : {
                }
            },
            "0x1000000000000000000000000000000000000003" : {
                "balance" : "0x00",
                "code" : "0x6001600352",
                "nonce" : "0x00",
                "storage" : {
                }
            },
            "0xa94f5374fce5edbc8e2a8697c15331677e6ebf0b" : {
                "balance" : "0x0de0b6b3a7640000",
                "code" : "",
                "nonce" : "0x00",
                "storage" : {
                }
            }
        }
    }
}