{
    "static_callChangeRevert_d2g0v0_Byzantium" : {
        "_info" : {
            "comment" : "",
            "filledwith" : "cpp-1.3.0+commit.ab4ca6d1.Linux.g++",
            "lllcversion" : "Version: 0.4.20-develop.2018.1.8+commit.2548228b.Linux.g++",
            "source" : "src/BlockchainTestsFiller/GeneralStateTests/stStaticCall/static_callChangeRevert_d2g0v0Filler.json",
            "sourceHash" : "9fe2c1785accf55abc2b91709f36799b07fb805333ebcad1bd3c2d2e2df30d15"
        },
        "blocks" : [
            {
                "blockHeader" : {
                    "bloom" : "0x00000000000000000000000000000000000000000000000000000000000000000000000000000000000000000000000000000000000000000000000000000000000000000000000000000000000000000000000000000000000000000000000000000000000000000000000000000000000000000000000000000000000000000000000000000000000000000000000000000000000000000000000000000000000000000000000000000000000000000000000000000000000000000000000000000000000000000000000000000000000000000000000000000000000000000000000000000000000000000000000000000000000000000000000000000000",
                    "coinbase" : "0x2adc25665018aa1fe0e6bc666dac8fc2697ff9ba",
                    "difficulty" : "0x020000",
                    "extraData" : "",
                    "gasLimit" : "0x989680",
                    "gasUsed" : "0x02f19f",
                    "hash" : "0x0f3cb91ae418e0c5d114fca6182b4ae0890e36f3b3e2a8be9732279672ed58f7",
                    "mixHash" : "0x30fba05b02e829a534a6f884c58a68a2c325601bbd4d864e7a769d4546d41859",
                    "nonce" : "0xaf530b8a387a1d33",
                    "number" : "0x01",
                    "parentHash" : "0xd981b6d86265bf8f30ddc69ed3879f398f2c259f047be962d5565243c2f49526",
                    "receiptTrie" : "0x45b648c97acf174b66b4555f1051a2ee13e6c20302db9e0b6f322747e11960f3",
                    "stateRoot" : "0x514042c9c8161de1ad39fe1a68efaf5fbc68869f2812bfc7a96b73d89982f6dc",
                    "timestamp" : "0x03e8",
                    "transactionsTrie" : "0xbba1bf0047b49bf0f57ead3b0c5e7f9e09e0b16fc0f06221d8a6bbc7a965c3bc",
                    "uncleHash" : "0x1dcc4de8dec75d7aab85b567b6ccd41ad312451b948a7413f0a142fd40d49347"
                },
                "rlp" : "0xf90283f901f8a0d981b6d86265bf8f30ddc69ed3879f398f2c259f047be962d5565243c2f49526a01dcc4de8dec75d7aab85b567b6ccd41ad312451b948a7413f0a142fd40d49347942adc25665018aa1fe0e6bc666dac8fc2697ff9baa0514042c9c8161de1ad39fe1a68efaf5fbc68869f2812bfc7a96b73d89982f6dca0bba1bf0047b49bf0f57ead3b0c5e7f9e09e0b16fc0f06221d8a6bbc7a965c3bca045b648c97acf174b66b4555f1051a2ee13e6c20302db9e0b6f322747e11960f3b90100000000000000000000000000000000000000000000000000000000000000000000000000000000000000000000000000000000000000000000000000000000000000000000000000000000000000000000000000000000000000000000000000000000000000000000000000000000000000000000000000000000000000000000000000000000000000000000000000000000000000000000000000000000000000000000000000000000000000000000000000000000000000000000000000000000000000000000000000000000000000000000000000000000000000000000000000000000000000000000000000000000000000000000000000000000008302000001839896808302f19f8203e880a030fba05b02e829a534a6f884c58a68a2c325601bbd4d864e7a769d4546d4185988af530b8a387a1d33f885f8838001830f424094a000000000000000000000000000000000000000830186a0a000000000000000000000000030000000000000000000000000000000000000001ba04236c4b6561e4c0101cfe0ce9a2eaba62fcfd3a8f43bdd245fbc8ee76911f129a046a7116a6ee32f8f3f471d14172e8b563fb9c3213fc7a50c22df21766d851573c0",
                "transactions" : [
                    {
                        "data" : "0x0000000000000000000000003000000000000000000000000000000000000000",
                        "gasLimit" : "0x0f4240",
                        "gasPrice" : "0x01",
                        "nonce" : "0x00",
                        "r" : "0x4236c4b6561e4c0101cfe0ce9a2eaba62fcfd3a8f43bdd245fbc8ee76911f129",
                        "s" : "0x46a7116a6ee32f8f3f471d14172e8b563fb9c3213fc7a50c22df21766d851573",
                        "to" : "0xa000000000000000000000000000000000000000",
                        "v" : "0x1b",
                        "value" : "0x0186a0"
                    }
                ],
                "uncleHeaders" : [
                ]
            }
        ],
        "genesisBlockHeader" : {
            "bloom" : "0x00000000000000000000000000000000000000000000000000000000000000000000000000000000000000000000000000000000000000000000000000000000000000000000000000000000000000000000000000000000000000000000000000000000000000000000000000000000000000000000000000000000000000000000000000000000000000000000000000000000000000000000000000000000000000000000000000000000000000000000000000000000000000000000000000000000000000000000000000000000000000000000000000000000000000000000000000000000000000000000000000000000000000000000000000000000",
            "coinbase" : "0x2adc25665018aa1fe0e6bc666dac8fc2697ff9ba",
            "difficulty" : "0x020000",
            "extraData" : "0x42",
            "gasLimit" : "0x989680",
            "gasUsed" : "0x00",
            "hash" : "0xd981b6d86265bf8f30ddc69ed3879f398f2c259f047be962d5565243c2f49526",
            "mixHash" : "0x56e81f171bcc55a6ff8345e692c0f86e5b48e01b996cadc001622fb5e363b421",
            "nonce" : "0x0102030405060708",
            "number" : "0x00",
            "parentHash" : "0x0000000000000000000000000000000000000000000000000000000000000000",
            "receiptTrie" : "0x56e81f171bcc55a6ff8345e692c0f86e5b48e01b996cadc001622fb5e363b421",
            "stateRoot" : "0x41d508b3a14272f582336624d72fbd8e9d212c2953545391b167d024ee239340",
            "timestamp" : "0x03b6",
            "transactionsTrie" : "0x56e81f171bcc55a6ff8345e692c0f86e5b48e01b996cadc001622fb5e363b421",
            "uncleHash" : "0x1dcc4de8dec75d7aab85b567b6ccd41ad312451b948a7413f0a142fd40d49347"
        },
        "genesisRLP" : "0xf901faf901f5a00000000000000000000000000000000000000000000000000000000000000000a01dcc4de8dec75d7aab85b567b6ccd41ad312451b948a7413f0a142fd40d49347942adc25665018aa1fe0e6bc666dac8fc2697ff9baa041d508b3a14272f582336624d72fbd8e9d212c2953545391b167d024ee239340a056e81f171bcc55a6ff8345e692c0f86e5b48e01b996cadc001622fb5e363b421a056e81f171bcc55a6ff8345e692c0f86e5b48e01b996cadc001622fb5e363b421b9010000000000000000000000000000000000000000000000000000000000000000000000000000000000000000000000000000000000000000000000000000000000000000000000000000000000000000000000000000000000000000000000000000000000000000000000000000000000000000000000000000000000000000000000000000000000000000000000000000000000000000000000000000000000000000000000000000000000000000000000000000000000000000000000000000000000000000000000000000000000000000000000000000000000000000000000000000000000000000000000000000000000000000000000000000000000830200008083989680808203b642a056e81f171bcc55a6ff8345e692c0f86e5b48e01b996cadc001622fb5e363b421880102030405060708c0c0",
        "lastblockhash" : "0x0f3cb91ae418e0c5d114fca6182b4ae0890e36f3b3e2a8be9732279672ed58f7",
        "network" : "Byzantium",
        "postState" : {
            "0x1000000000000000000000000000000000000000" : {
                "balance" : "0x0de0b6b3a7640000",
                "code" : "0x60006000600060006001731000000000000000000000000000000000000001620186a0f16000556000600060006000731000000000000000000000000000000000000001620186a0fa60015560006000600060006001731000000000000000000000000000000000000001620186a0f1600255",
                "nonce" : "0x00",
                "storage" : {
                }
            },
            "0x1000000000000000000000000000000000000001" : {
                "balance" : "0x00",
                "code" : "0x6001600152",
                "nonce" : "0x00",
                "storage" : {
                }
            },
            "0x1000000000000000000000000000000000000002" : {
                "balance" : "0x02",
                "code" : "0x6001600152600154600155",
                "nonce" : "0x00",
                "storage" : {
                }
            },
            "0x2000000000000000000000000000000000000000" : {
                "balance" : "0x0de0b6b3a7640000",
                "code" : "0x60006000600060006001731000000000000000000000000000000000000001620186a0f16000556000600060006000731000000000000000000000000000000000000001620186a0fa60015560006000600060006001731000000000000000000000000000000000000001620186a0f16002555b61c3506080511015608f5760013b506001608051016080526073565b",
                "nonce" : "0x00",
                "storage" : {
                }
            },
            "0x2adc25665018aa1fe0e6bc666dac8fc2697ff9ba" : {
                "balance" : "0x29a2241af62ef19f",
                "code" : "",
                "nonce" : "0x00",
                "storage" : {
                }
            },
            "0x3000000000000000000000000000000000000000" : {
                "balance" : "0x0de0b6b3a763fffe",
                "code" : "0x60006000600060006001731000000000000000000000000000000000000002620186a0f16000556000600060006000731000000000000000000000000000000000000002620186a0fa60015560006000600060006001731000000000000000000000000000000000000002620186a0f1600255",
                "nonce" : "0x00",
                "storage" : {
                    "0x00" : "0x01",
                    "0x02" : "0x01"
                }
            },
            "0xa000000000000000000000000000000000000000" : {
                "balance" : "0x0de0b6b3a76586a0",
                "code" : "0x6000600060006000600060003562055730f1",
                "nonce" : "0x00",
                "storage" : {
                }
            },
            "0xa94f5374fce5edbc8e2a8697c15331677e6ebf0b" : {
                "balance" : "0x0de0b6b3a75f87c1",
                "code" : "",
                "nonce" : "0x01",
                "storage" : {
                }
            }
        },
        "pre" : {
            "0x1000000000000000000000000000000000000000" : {
                "balance" : "0x0de0b6b3a7640000",
                "code" : "0x60006000600060006001731000000000000000000000000000000000000001620186a0f16000556000600060006000731000000000000000000000000000000000000001620186a0fa60015560006000600060006001731000000000000000000000000000000000000001620186a0f1600255",
                "nonce" : "0x00",
                "storage" : {
                }
            },
            "0x1000000000000000000000000000000000000001" : {
                "balance" : "0x00",
                "code" : "0x6001600152",
                "nonce" : "0x00",
                "storage" : {
                }
            },
            "0x1000000000000000000000000000000000000002" : {
                "balance" : "0x00",
                "code" : "0x6001600152600154600155",
                "nonce" : "0x00",
                "storage" : {
                }
            },
            "0x2000000000000000000000000000000000000000" : {
                "balance" : "0x0de0b6b3a7640000",
                "code" : "0x60006000600060006001731000000000000000000000000000000000000001620186a0f16000556000600060006000731000000000000000000000000000000000000001620186a0fa60015560006000600060006001731000000000000000000000000000000000000001620186a0f16002555b61c3506080511015608f5760013b506001608051016080526073565b",
                "nonce" : "0x00",
                "storage" : {
                }
            },
            "0x3000000000000000000000000000000000000000" : {
                "balance" : "0x0de0b6b3a7640000",
                "code" : "0x60006000600060006001731000000000000000000000000000000000000002620186a0f16000556000600060006000731000000000000000000000000000000000000002620186a0fa60015560006000600060006001731000000000000000000000000000000000000002620186a0f1600255",
                "nonce" : "0x00",
                "storage" : {
                }
            },
            "0xa000000000000000000000000000000000000000" : {
                "balance" : "0x0de0b6b3a7640000",
                "code" : "0x6000600060006000600060003562055730f1",
                "nonce" : "0x00",
                "storage" : {
                }
            },
            "0xa94f5374fce5edbc8e2a8697c15331677e6ebf0b" : {
                "balance" : "0x0de0b6b3a7640000",
                "code" : "",
                "nonce" : "0x00",
                "storage" : {
                }
            }
        }
    }
}