{
    "static_log0_nonEmptyMem_logMemSize1_logMemStart31_d0g0v0_Berlin" : {
        "_info" : {
            "comment" : "",
            "filling-rpc-server" : "evm version 1.11.4-unstable-e14043db-20230308",
            "filling-tool-version" : "retesteth-0.3.0-shanghai+commit.fd2c0a83.Linux.g++",
            "generatedTestHash" : "c7af91379f17b482e3eaf74e787aa3c9742c98a1a27732afd872929852320536",
            "lllcversion" : "Version: 0.5.14-develop.2022.7.30+commit.a096d7a9.Linux.g++",
            "solidity" : "Version: 0.8.17+commit.8df45f5f.Linux.g++",
            "source" : "src/GeneralStateTestsFiller/stStaticCall/static_log0_nonEmptyMem_logMemSize1_logMemStart31Filler.json",
            "sourceHash" : "ab56b4f0ebc0108bb4c8ecf307347147c7e97662a69471ed257aacda71a02a53"
        },
        "blocks" : [
            {
                "blockHeader" : {
                    "bloom" : "0x00000000000000000000000000000000000000000000000000000000000000000000000000000000000000000000000000000000000000000000000000000000000000000000000000000000000000000000000000000000000000000000000000000000000000000000000000000000000000000000000000000000000000000000000000000000000000000000000000000000000000000000000000000000000000000000000000000000000000000000000000000000000000000000000000000000000000000000000000000000000000000000000000000000000000000000000000000000000000000000000000000000000000000000000000000000",
                    "coinbase" : "0x2adc25665018aa1fe0e6bc666dac8fc2697ff9ba",
                    "difficulty" : "0x020000",
                    "extraData" : "0x00",
                    "gasLimit" : "0x0f4240",
                    "gasUsed" : "0x68c5",
                    "hash" : "0xec3400529d432f1e4b52af9eed84225b76325ee535ed47951e38be366aa4133b",
                    "mixHash" : "0x0000000000000000000000000000000000000000000000000000000000000000",
                    "nonce" : "0x0000000000000000",
                    "number" : "0x01",
                    "parentHash" : "0xfbee6d5dd92fca45868ecc0caa6d583bae37ce94c6d95a033525e693c7ae239f",
                    "receiptTrie" : "0x63f99d622e2a4cdefff99379a53d8100b2ac6519180a9e1b4ccc0c1c505c28fd",
                    "stateRoot" : "0xdd23f8a5752a7d2813465c0fb6c98375dfa47eba0843dadc15eb75f61f616e56",
                    "timestamp" : "0x03e8",
                    "transactionsTrie" : "0x9b55322a19d9b3b71be0f5c6f5dbf194748d3290bcfa35d1706c1a24ff105a5f",
                    "uncleHash" : "0x1dcc4de8dec75d7aab85b567b6ccd41ad312451b948a7413f0a142fd40d49347"
                },
                "rlp" : "0xf90262f901f7a0fbee6d5dd92fca45868ecc0caa6d583bae37ce94c6d95a033525e693c7ae239fa01dcc4de8dec75d7aab85b567b6ccd41ad312451b948a7413f0a142fd40d49347942adc25665018aa1fe0e6bc666dac8fc2697ff9baa0dd23f8a5752a7d2813465c0fb6c98375dfa47eba0843dadc15eb75f61f616e56a09b55322a19d9b3b71be0f5c6f5dbf194748d3290bcfa35d1706c1a24ff105a5fa063f99d622e2a4cdefff99379a53d8100b2ac6519180a9e1b4ccc0c1c505c28fdb90100000000000000000000000000000000000000000000000000000000000000000000000000000000000000000000000000000000000000000000000000000000000000000000000000000000000000000000000000000000000000000000000000000000000000000000000000000000000000000000000000000000000000000000000000000000000000000000000000000000000000000000000000000000000000000000000000000000000000000000000000000000000000000000000000000000000000000000000000000000000000000000000000000000000000000000000000000000000000000000000000000000000000000000000000000000008302000001830f42408268c58203e800a00000000000000000000000000000000000000000000000000000000000000000880000000000000000f865f863800a8303345094095e7baea6a6c7c4c2dfeb977efac326af552d87830186a0801ba0d7f12f33fd6ed868181c442fa795b825833472c08304ba8076c99e361277a1cea00754e3b3f79c4ac1554e25989ea8422b5dde0a09c4ff362ad4086d3f3a7d63cfc0",
                "transactions" : [
                    {
                        "data" : "0x",
                        "gasLimit" : "0x033450",
                        "gasPrice" : "0x0a",
                        "nonce" : "0x00",
                        "r" : "0xd7f12f33fd6ed868181c442fa795b825833472c08304ba8076c99e361277a1ce",
                        "s" : "0x0754e3b3f79c4ac1554e25989ea8422b5dde0a09c4ff362ad4086d3f3a7d63cf",
                        "sender" : "0xa94f5374fce5edbc8e2a8697c15331677e6ebf0b",
                        "to" : "0x095e7baea6a6c7c4c2dfeb977efac326af552d87",
                        "v" : "0x1b",
                        "value" : "0x0186a0"
                    }
                ],
                "uncleHeaders" : [
                ]
            }
        ],
        "genesisBlockHeader" : {
            "bloom" : "0x00000000000000000000000000000000000000000000000000000000000000000000000000000000000000000000000000000000000000000000000000000000000000000000000000000000000000000000000000000000000000000000000000000000000000000000000000000000000000000000000000000000000000000000000000000000000000000000000000000000000000000000000000000000000000000000000000000000000000000000000000000000000000000000000000000000000000000000000000000000000000000000000000000000000000000000000000000000000000000000000000000000000000000000000000000000",
            "coinbase" : "0x2adc25665018aa1fe0e6bc666dac8fc2697ff9ba",
            "difficulty" : "0x020000",
            "extraData" : "0x00",
            "gasLimit" : "0x0f4240",
            "gasUsed" : "0x00",
            "hash" : "0xfbee6d5dd92fca45868ecc0caa6d583bae37ce94c6d95a033525e693c7ae239f",
            "mixHash" : "0x0000000000000000000000000000000000000000000000000000000000000000",
            "nonce" : "0x0000000000000000",
            "number" : "0x00",
            "parentHash" : "0x0000000000000000000000000000000000000000000000000000000000000000",
            "receiptTrie" : "0x56e81f171bcc55a6ff8345e692c0f86e5b48e01b996cadc001622fb5e363b421",
            "stateRoot" : "0xff6a24303bc21770e314d0555737bb1ebc7d71e77d92a3d3de22f5426379f95e",
            "timestamp" : "0x00",
            "transactionsTrie" : "0x56e81f171bcc55a6ff8345e692c0f86e5b48e01b996cadc001622fb5e363b421",
            "uncleHash" : "0x1dcc4de8dec75d7aab85b567b6ccd41ad312451b948a7413f0a142fd40d49347"
        },
        "genesisRLP" : "0xf901f8f901f3a00000000000000000000000000000000000000000000000000000000000000000a01dcc4de8dec75d7aab85b567b6ccd41ad312451b948a7413f0a142fd40d49347942adc25665018aa1fe0e6bc666dac8fc2697ff9baa0ff6a24303bc21770e314d0555737bb1ebc7d71e77d92a3d3de22f5426379f95ea056e81f171bcc55a6ff8345e692c0f86e5b48e01b996cadc001622fb5e363b421a056e81f171bcc55a6ff8345e692c0f86e5b48e01b996cadc001622fb5e363b421b90100000000000000000000000000000000000000000000000000000000000000000000000000000000000000000000000000000000000000000000000000000000000000000000000000000000000000000000000000000000000000000000000000000000000000000000000000000000000000000000000000000000000000000000000000000000000000000000000000000000000000000000000000000000000000000000000000000000000000000000000000000000000000000000000000000000000000000000000000000000000000000000000000000000000000000000000000000000000000000000000000000000000000000000000000000000008302000080830f4240808000a00000000000000000000000000000000000000000000000000000000000000000880000000000000000c0c0",
        "lastblockhash" : "0xec3400529d432f1e4b52af9eed84225b76325ee535ed47951e38be366aa4133b",
        "network" : "Berlin",
        "postState" : {
            "0x095e7baea6a6c7c4c2dfeb977efac326af552d87" : {
                "balance" : "0x0de0b6b3a76586a0",
                "code" : "0x6000600060006000730f572e5295c57f15886f9b263e2f6d2d6c7b5ec66103e8fa60005500",
                "nonce" : "0x00",
                "storage" : {
                }
            },
            "0x0f572e5295c57f15886f9b263e2f6d2d6c7b5ec6" : {
                "balance" : "0x0de0b6b3a7640000",
                "code" : "0x7faabbffffffffffffffffffffffffffffffffffffffffffffffffffffffffccdd6000526001601fa000",
                "nonce" : "0x00",
                "storage" : {
                }
            },
            "0x2adc25665018aa1fe0e6bc666dac8fc2697ff9ba" : {
                "balance" : "0x1bc16d674ecc17b2",
                "code" : "0x",
                "nonce" : "0x00",
                "storage" : {
                }
            },
            "0xa94f5374fce5edbc8e2a8697c15331677e6ebf0b" : {
                "balance" : "0x0de0b6b3a75e61ae",
                "code" : "0x",
                "nonce" : "0x01",
                "storage" : {
                }
            }
        },
        "pre" : {
            "0x095e7baea6a6c7c4c2dfeb977efac326af552d87" : {
                "balance" : "0x0de0b6b3a7640000",
                "code" : "0x6000600060006000730f572e5295c57f15886f9b263e2f6d2d6c7b5ec66103e8fa60005500",
                "nonce" : "0x00",
                "storage" : {
                }
            },
            "0x0f572e5295c57f15886f9b263e2f6d2d6c7b5ec6" : {
                "balance" : "0x0de0b6b3a7640000",
                "code" : "0x7faabbffffffffffffffffffffffffffffffffffffffffffffffffffffffffccdd6000526001601fa000",
                "nonce" : "0x00",
                "storage" : {
                }
            },
            "0xa94f5374fce5edbc8e2a8697c15331677e6ebf0b" : {
                "balance" : "0x0de0b6b3a7640000",
                "code" : "0x",
                "nonce" : "0x00",
                "storage" : {
                }
            }
        },
        "sealEngine" : "NoProof"
    },
    "static_log0_nonEmptyMem_logMemSize1_logMemStart31_d0g0v0_Istanbul" : {
        "_info" : {
            "comment" : "",
            "filling-rpc-server" : "evm version 1.11.4-unstable-e14043db-20230308",
            "filling-tool-version" : "retesteth-0.3.0-shanghai+commit.fd2c0a83.Linux.g++",
            "generatedTestHash" : "6cfc0a59c260737fcbb7e6a52496de6275f617de0d26a6f1f47b9fc21b65d5c2",
            "lllcversion" : "Version: 0.5.14-develop.2022.7.30+commit.a096d7a9.Linux.g++",
            "solidity" : "Version: 0.8.17+commit.8df45f5f.Linux.g++",
            "source" : "src/GeneralStateTestsFiller/stStaticCall/static_log0_nonEmptyMem_logMemSize1_logMemStart31Filler.json",
            "sourceHash" : "ab56b4f0ebc0108bb4c8ecf307347147c7e97662a69471ed257aacda71a02a53"
        },
        "blocks" : [
            {
                "blockHeader" : {
                    "bloom" : "0x00000000000000000000000000000000000000000000000000000000000000000000000000000000000000000000000000000000000000000000000000000000000000000000000000000000000000000000000000000000000000000000000000000000000000000000000000000000000000000000000000000000000000000000000000000000000000000000000000000000000000000000000000000000000000000000000000000000000000000000000000000000000000000000000000000000000000000000000000000000000000000000000000000000000000000000000000000000000000000000000000000000000000000000000000000000",
                    "coinbase" : "0x2adc25665018aa1fe0e6bc666dac8fc2697ff9ba",
                    "difficulty" : "0x020000",
                    "extraData" : "0x00",
                    "gasLimit" : "0x0f4240",
                    "gasUsed" : "0x5be1",
                    "hash" : "0xcfe0b882e1034c6b3e8ae2efe396d6d87b3631ec231c3222e06d446939964282",
                    "mixHash" : "0x0000000000000000000000000000000000000000000000000000000000000000",
                    "nonce" : "0x0000000000000000",
                    "number" : "0x01",
                    "parentHash" : "0xfbee6d5dd92fca45868ecc0caa6d583bae37ce94c6d95a033525e693c7ae239f",
                    "receiptTrie" : "0x9c53d5cf51e2265a80607a94af872c35bd618fb5050105a765d58d327a7e5bb3",
                    "stateRoot" : "0xe30c6cf95981bcdcbba2304fd91c44391fdea6e3f6e3f70a111aaffa27da832a",
                    "timestamp" : "0x03e8",
                    "transactionsTrie" : "0x9b55322a19d9b3b71be0f5c6f5dbf194748d3290bcfa35d1706c1a24ff105a5f",
                    "uncleHash" : "0x1dcc4de8dec75d7aab85b567b6ccd41ad312451b948a7413f0a142fd40d49347"
                },
                "rlp" : "0xf90262f901f7a0fbee6d5dd92fca45868ecc0caa6d583bae37ce94c6d95a033525e693c7ae239fa01dcc4de8dec75d7aab85b567b6ccd41ad312451b948a7413f0a142fd40d49347942adc25665018aa1fe0e6bc666dac8fc2697ff9baa0e30c6cf95981bcdcbba2304fd91c44391fdea6e3f6e3f70a111aaffa27da832aa09b55322a19d9b3b71be0f5c6f5dbf194748d3290bcfa35d1706c1a24ff105a5fa09c53d5cf51e2265a80607a94af872c35bd618fb5050105a765d58d327a7e5bb3b90100000000000000000000000000000000000000000000000000000000000000000000000000000000000000000000000000000000000000000000000000000000000000000000000000000000000000000000000000000000000000000000000000000000000000000000000000000000000000000000000000000000000000000000000000000000000000000000000000000000000000000000000000000000000000000000000000000000000000000000000000000000000000000000000000000000000000000000000000000000000000000000000000000000000000000000000000000000000000000000000000000000000000000000000000000000008302000001830f4240825be18203e800a00000000000000000000000000000000000000000000000000000000000000000880000000000000000f865f863800a8303345094095e7baea6a6c7c4c2dfeb977efac326af552d87830186a0801ba0d7f12f33fd6ed868181c442fa795b825833472c08304ba8076c99e361277a1cea00754e3b3f79c4ac1554e25989ea8422b5dde0a09c4ff362ad4086d3f3a7d63cfc0",
                "transactions" : [
                    {
                        "data" : "0x",
                        "gasLimit" : "0x033450",
                        "gasPrice" : "0x0a",
                        "nonce" : "0x00",
                        "r" : "0xd7f12f33fd6ed868181c442fa795b825833472c08304ba8076c99e361277a1ce",
                        "s" : "0x0754e3b3f79c4ac1554e25989ea8422b5dde0a09c4ff362ad4086d3f3a7d63cf",
                        "sender" : "0xa94f5374fce5edbc8e2a8697c15331677e6ebf0b",
                        "to" : "0x095e7baea6a6c7c4c2dfeb977efac326af552d87",
                        "v" : "0x1b",
                        "value" : "0x0186a0"
                    }
                ],
                "uncleHeaders" : [
                ]
            }
        ],
        "genesisBlockHeader" : {
            "bloom" : "0x00000000000000000000000000000000000000000000000000000000000000000000000000000000000000000000000000000000000000000000000000000000000000000000000000000000000000000000000000000000000000000000000000000000000000000000000000000000000000000000000000000000000000000000000000000000000000000000000000000000000000000000000000000000000000000000000000000000000000000000000000000000000000000000000000000000000000000000000000000000000000000000000000000000000000000000000000000000000000000000000000000000000000000000000000000000",
            "coinbase" : "0x2adc25665018aa1fe0e6bc666dac8fc2697ff9ba",
            "difficulty" : "0x020000",
            "extraData" : "0x00",
            "gasLimit" : "0x0f4240",
            "gasUsed" : "0x00",
            "hash" : "0xfbee6d5dd92fca45868ecc0caa6d583bae37ce94c6d95a033525e693c7ae239f",
            "mixHash" : "0x0000000000000000000000000000000000000000000000000000000000000000",
            "nonce" : "0x0000000000000000",
            "number" : "0x00",
            "parentHash" : "0x0000000000000000000000000000000000000000000000000000000000000000",
            "receiptTrie" : "0x56e81f171bcc55a6ff8345e692c0f86e5b48e01b996cadc001622fb5e363b421",
            "stateRoot" : "0xff6a24303bc21770e314d0555737bb1ebc7d71e77d92a3d3de22f5426379f95e",
            "timestamp" : "0x00",
            "transactionsTrie" : "0x56e81f171bcc55a6ff8345e692c0f86e5b48e01b996cadc001622fb5e363b421",
            "uncleHash" : "0x1dcc4de8dec75d7aab85b567b6ccd41ad312451b948a7413f0a142fd40d49347"
        },
        "genesisRLP" : "0xf901f8f901f3a00000000000000000000000000000000000000000000000000000000000000000a01dcc4de8dec75d7aab85b567b6ccd41ad312451b948a7413f0a142fd40d49347942adc25665018aa1fe0e6bc666dac8fc2697ff9baa0ff6a24303bc21770e314d0555737bb1ebc7d71e77d92a3d3de22f5426379f95ea056e81f171bcc55a6ff8345e692c0f86e5b48e01b996cadc001622fb5e363b421a056e81f171bcc55a6ff8345e692c0f86e5b48e01b996cadc001622fb5e363b421b90100000000000000000000000000000000000000000000000000000000000000000000000000000000000000000000000000000000000000000000000000000000000000000000000000000000000000000000000000000000000000000000000000000000000000000000000000000000000000000000000000000000000000000000000000000000000000000000000000000000000000000000000000000000000000000000000000000000000000000000000000000000000000000000000000000000000000000000000000000000000000000000000000000000000000000000000000000000000000000000000000000000000000000000000000000000008302000080830f4240808000a00000000000000000000000000000000000000000000000000000000000000000880000000000000000c0c0",
        "lastblockhash" : "0xcfe0b882e1034c6b3e8ae2efe396d6d87b3631ec231c3222e06d446939964282",
        "network" : "Istanbul",
        "postState" : {
            "0x095e7baea6a6c7c4c2dfeb977efac326af552d87" : {
                "balance" : "0x0de0b6b3a76586a0",
                "code" : "0x6000600060006000730f572e5295c57f15886f9b263e2f6d2d6c7b5ec66103e8fa60005500",
                "nonce" : "0x00",
                "storage" : {
                }
            },
            "0x0f572e5295c57f15886f9b263e2f6d2d6c7b5ec6" : {
                "balance" : "0x0de0b6b3a7640000",
                "code" : "0x7faabbffffffffffffffffffffffffffffffffffffffffffffffffffffffffccdd6000526001601fa000",
                "nonce" : "0x00",
                "storage" : {
                }
            },
            "0x2adc25665018aa1fe0e6bc666dac8fc2697ff9ba" : {
                "balance" : "0x1bc16d674ecb96ca",
                "code" : "0x",
                "nonce" : "0x00",
                "storage" : {
                }
            },
            "0xa94f5374fce5edbc8e2a8697c15331677e6ebf0b" : {
                "balance" : "0x0de0b6b3a75ee296",
                "code" : "0x",
                "nonce" : "0x01",
                "storage" : {
                }
            }
        },
        "pre" : {
            "0x095e7baea6a6c7c4c2dfeb977efac326af552d87" : {
                "balance" : "0x0de0b6b3a7640000",
                "code" : "0x6000600060006000730f572e5295c57f15886f9b263e2f6d2d6c7b5ec66103e8fa60005500",
                "nonce" : "0x00",
                "storage" : {
                }
            },
            "0x0f572e5295c57f15886f9b263e2f6d2d6c7b5ec6" : {
                "balance" : "0x0de0b6b3a7640000",
                "code" : "0x7faabbffffffffffffffffffffffffffffffffffffffffffffffffffffffffccdd6000526001601fa000",
                "nonce" : "0x00",
                "storage" : {
                }
            },
            "0xa94f5374fce5edbc8e2a8697c15331677e6ebf0b" : {
                "balance" : "0x0de0b6b3a7640000",
                "code" : "0x",
                "nonce" : "0x00",
                "storage" : {
                }
            }
        },
        "sealEngine" : "NoProof"
    },
    "static_log0_nonEmptyMem_logMemSize1_logMemStart31_d0g0v0_London" : {
        "_info" : {
            "comment" : "",
            "filling-rpc-server" : "evm version 1.11.4-unstable-e14043db-20230308",
            "filling-tool-version" : "retesteth-0.3.0-shanghai+commit.fd2c0a83.Linux.g++",
            "generatedTestHash" : "5ed07c29addf36f622a51745988eceb6e30adfa819f852cf6af401deed5ca0b3",
            "lllcversion" : "Version: 0.5.14-develop.2022.7.30+commit.a096d7a9.Linux.g++",
            "solidity" : "Version: 0.8.17+commit.8df45f5f.Linux.g++",
            "source" : "src/GeneralStateTestsFiller/stStaticCall/static_log0_nonEmptyMem_logMemSize1_logMemStart31Filler.json",
            "sourceHash" : "ab56b4f0ebc0108bb4c8ecf307347147c7e97662a69471ed257aacda71a02a53"
        },
        "blocks" : [
            {
                "blockHeader" : {
                    "baseFeePerGas" : "0x0a",
                    "bloom" : "0x00000000000000000000000000000000000000000000000000000000000000000000000000000000000000000000000000000000000000000000000000000000000000000000000000000000000000000000000000000000000000000000000000000000000000000000000000000000000000000000000000000000000000000000000000000000000000000000000000000000000000000000000000000000000000000000000000000000000000000000000000000000000000000000000000000000000000000000000000000000000000000000000000000000000000000000000000000000000000000000000000000000000000000000000000000000",
                    "coinbase" : "0x2adc25665018aa1fe0e6bc666dac8fc2697ff9ba",
                    "difficulty" : "0x020000",
                    "extraData" : "0x00",
                    "gasLimit" : "0x0f4240",
                    "gasUsed" : "0x68c5",
                    "hash" : "0x30618d64aa1346dccc68b0181c7b4f683713848ac756dc78b7f96edbda735ced",
                    "mixHash" : "0x0000000000000000000000000000000000000000000000000000000000000000",
                    "nonce" : "0x0000000000000000",
                    "number" : "0x01",
                    "parentHash" : "0xd45f4bad598282fe5660709936fc7ec47427fc44ce3d25ab7b23817652d0ac1c",
                    "receiptTrie" : "0x63f99d622e2a4cdefff99379a53d8100b2ac6519180a9e1b4ccc0c1c505c28fd",
                    "stateRoot" : "0x9ede9fc14f338385062b803981c296e014ea0760129e1a52a37e86260b24ae43",
                    "timestamp" : "0x03e8",
                    "transactionsTrie" : "0x9b55322a19d9b3b71be0f5c6f5dbf194748d3290bcfa35d1706c1a24ff105a5f",
                    "uncleHash" : "0x1dcc4de8dec75d7aab85b567b6ccd41ad312451b948a7413f0a142fd40d49347"
                },
                "rlp" : "0xf90263f901f8a0d45f4bad598282fe5660709936fc7ec47427fc44ce3d25ab7b23817652d0ac1ca01dcc4de8dec75d7aab85b567b6ccd41ad312451b948a7413f0a142fd40d49347942adc25665018aa1fe0e6bc666dac8fc2697ff9baa09ede9fc14f338385062b803981c296e014ea0760129e1a52a37e86260b24ae43a09b55322a19d9b3b71be0f5c6f5dbf194748d3290bcfa35d1706c1a24ff105a5fa063f99d622e2a4cdefff99379a53d8100b2ac6519180a9e1b4ccc0c1c505c28fdb90100000000000000000000000000000000000000000000000000000000000000000000000000000000000000000000000000000000000000000000000000000000000000000000000000000000000000000000000000000000000000000000000000000000000000000000000000000000000000000000000000000000000000000000000000000000000000000000000000000000000000000000000000000000000000000000000000000000000000000000000000000000000000000000000000000000000000000000000000000000000000000000000000000000000000000000000000000000000000000000000000000000000000000000000000000000008302000001830f42408268c58203e800a000000000000000000000000000000000000000000000000000000000000000008800000000000000000af865f863800a8303345094095e7baea6a6c7c4c2dfeb977efac326af552d87830186a0801ba0d7f12f33fd6ed868181c442fa795b825833472c08304ba8076c99e361277a1cea00754e3b3f79c4ac1554e25989ea8422b5dde0a09c4ff362ad4086d3f3a7d63cfc0",
                "transactions" : [
                    {
                        "data" : "0x",
                        "gasLimit" : "0x033450",
                        "gasPrice" : "0x0a",
                        "nonce" : "0x00",
                        "r" : "0xd7f12f33fd6ed868181c442fa795b825833472c08304ba8076c99e361277a1ce",
                        "s" : "0x0754e3b3f79c4ac1554e25989ea8422b5dde0a09c4ff362ad4086d3f3a7d63cf",
                        "sender" : "0xa94f5374fce5edbc8e2a8697c15331677e6ebf0b",
                        "to" : "0x095e7baea6a6c7c4c2dfeb977efac326af552d87",
                        "v" : "0x1b",
                        "value" : "0x0186a0"
                    }
                ],
                "uncleHeaders" : [
                ]
            }
        ],
        "genesisBlockHeader" : {
            "baseFeePerGas" : "0x0b",
            "bloom" : "0x00000000000000000000000000000000000000000000000000000000000000000000000000000000000000000000000000000000000000000000000000000000000000000000000000000000000000000000000000000000000000000000000000000000000000000000000000000000000000000000000000000000000000000000000000000000000000000000000000000000000000000000000000000000000000000000000000000000000000000000000000000000000000000000000000000000000000000000000000000000000000000000000000000000000000000000000000000000000000000000000000000000000000000000000000000000",
            "coinbase" : "0x2adc25665018aa1fe0e6bc666dac8fc2697ff9ba",
            "difficulty" : "0x020000",
            "extraData" : "0x00",
            "gasLimit" : "0x0f4240",
            "gasUsed" : "0x00",
            "hash" : "0xd45f4bad598282fe5660709936fc7ec47427fc44ce3d25ab7b23817652d0ac1c",
            "mixHash" : "0x0000000000000000000000000000000000000000000000000000000000000000",
            "nonce" : "0x0000000000000000",
            "number" : "0x00",
            "parentHash" : "0x0000000000000000000000000000000000000000000000000000000000000000",
            "receiptTrie" : "0x56e81f171bcc55a6ff8345e692c0f86e5b48e01b996cadc001622fb5e363b421",
            "stateRoot" : "0xff6a24303bc21770e314d0555737bb1ebc7d71e77d92a3d3de22f5426379f95e",
            "timestamp" : "0x00",
            "transactionsTrie" : "0x56e81f171bcc55a6ff8345e692c0f86e5b48e01b996cadc001622fb5e363b421",
            "uncleHash" : "0x1dcc4de8dec75d7aab85b567b6ccd41ad312451b948a7413f0a142fd40d49347"
        },
        "genesisRLP" : "0xf901f9f901f4a00000000000000000000000000000000000000000000000000000000000000000a01dcc4de8dec75d7aab85b567b6ccd41ad312451b948a7413f0a142fd40d49347942adc25665018aa1fe0e6bc666dac8fc2697ff9baa0ff6a24303bc21770e314d0555737bb1ebc7d71e77d92a3d3de22f5426379f95ea056e81f171bcc55a6ff8345e692c0f86e5b48e01b996cadc001622fb5e363b421a056e81f171bcc55a6ff8345e692c0f86e5b48e01b996cadc001622fb5e363b421b90100000000000000000000000000000000000000000000000000000000000000000000000000000000000000000000000000000000000000000000000000000000000000000000000000000000000000000000000000000000000000000000000000000000000000000000000000000000000000000000000000000000000000000000000000000000000000000000000000000000000000000000000000000000000000000000000000000000000000000000000000000000000000000000000000000000000000000000000000000000000000000000000000000000000000000000000000000000000000000000000000000000000000000000000000000000008302000080830f4240808000a000000000000000000000000000000000000000000000000000000000000000008800000000000000000bc0c0",
        "lastblockhash" : "0x30618d64aa1346dccc68b0181c7b4f683713848ac756dc78b7f96edbda735ced",
        "network" : "London",
        "postState" : {
            "0x095e7baea6a6c7c4c2dfeb977efac326af552d87" : {
                "balance" : "0x0de0b6b3a76586a0",
                "code" : "0x6000600060006000730f572e5295c57f15886f9b263e2f6d2d6c7b5ec66103e8fa60005500",
                "nonce" : "0x00",
                "storage" : {
                }
            },
            "0x0f572e5295c57f15886f9b263e2f6d2d6c7b5ec6" : {
                "balance" : "0x0de0b6b3a7640000",
                "code" : "0x7faabbffffffffffffffffffffffffffffffffffffffffffffffffffffffffccdd6000526001601fa000",
                "nonce" : "0x00",
                "storage" : {
                }
            },
            "0x2adc25665018aa1fe0e6bc666dac8fc2697ff9ba" : {
                "balance" : "0x1bc16d674ec80000",
                "code" : "0x",
                "nonce" : "0x00",
                "storage" : {
                }
            },
            "0xa94f5374fce5edbc8e2a8697c15331677e6ebf0b" : {
                "balance" : "0x0de0b6b3a75e61ae",
                "code" : "0x",
                "nonce" : "0x01",
                "storage" : {
                }
            }
        },
        "pre" : {
            "0x095e7baea6a6c7c4c2dfeb977efac326af552d87" : {
                "balance" : "0x0de0b6b3a7640000",
                "code" : "0x6000600060006000730f572e5295c57f15886f9b263e2f6d2d6c7b5ec66103e8fa60005500",
                "nonce" : "0x00",
                "storage" : {
                }
            },
            "0x0f572e5295c57f15886f9b263e2f6d2d6c7b5ec6" : {
                "balance" : "0x0de0b6b3a7640000",
                "code" : "0x7faabbffffffffffffffffffffffffffffffffffffffffffffffffffffffffccdd6000526001601fa000",
                "nonce" : "0x00",
                "storage" : {
                }
            },
            "0xa94f5374fce5edbc8e2a8697c15331677e6ebf0b" : {
                "balance" : "0x0de0b6b3a7640000",
                "code" : "0x",
                "nonce" : "0x00",
                "storage" : {
                }
            }
        },
        "sealEngine" : "NoProof"
    },
    "static_log0_nonEmptyMem_logMemSize1_logMemStart31_d0g0v0_Merge" : {
        "_info" : {
            "comment" : "",
            "filling-rpc-server" : "evm version 1.11.4-unstable-e14043db-20230308",
            "filling-tool-version" : "retesteth-0.3.0-shanghai+commit.fd2c0a83.Linux.g++",
            "generatedTestHash" : "d4ee66377c1fad379aacb8e29b3e9d6cb5a8c436796adaa3a134b8741958075d",
            "lllcversion" : "Version: 0.5.14-develop.2022.7.30+commit.a096d7a9.Linux.g++",
            "solidity" : "Version: 0.8.17+commit.8df45f5f.Linux.g++",
            "source" : "src/GeneralStateTestsFiller/stStaticCall/static_log0_nonEmptyMem_logMemSize1_logMemStart31Filler.json",
            "sourceHash" : "ab56b4f0ebc0108bb4c8ecf307347147c7e97662a69471ed257aacda71a02a53"
        },
        "blocks" : [
            {
                "blockHeader" : {
                    "baseFeePerGas" : "0x0a",
                    "bloom" : "0x00000000000000000000000000000000000000000000000000000000000000000000000000000000000000000000000000000000000000000000000000000000000000000000000000000000000000000000000000000000000000000000000000000000000000000000000000000000000000000000000000000000000000000000000000000000000000000000000000000000000000000000000000000000000000000000000000000000000000000000000000000000000000000000000000000000000000000000000000000000000000000000000000000000000000000000000000000000000000000000000000000000000000000000000000000000",
                    "coinbase" : "0x2adc25665018aa1fe0e6bc666dac8fc2697ff9ba",
                    "difficulty" : "0x00",
                    "extraData" : "0x00",
                    "gasLimit" : "0x0f4240",
                    "gasUsed" : "0x68c5",
                    "hash" : "0x014285a2ae619199428b41099c5290a176bcd287430dc528ffbb061b344c6e77",
                    "mixHash" : "0x0000000000000000000000000000000000000000000000000000000000020000",
                    "nonce" : "0x0000000000000000",
                    "number" : "0x01",
                    "parentHash" : "0x97c1d41769b6018fb352cebf012264408a83ee53ad30cdb5c88fc251171f7363",
                    "receiptTrie" : "0x63f99d622e2a4cdefff99379a53d8100b2ac6519180a9e1b4ccc0c1c505c28fd",
                    "stateRoot" : "0x00a7828cec08759fc28a6df3ca3f0b19e59370efb981df4b67708f238370cb3a",
                    "timestamp" : "0x03e8",
                    "transactionsTrie" : "0x9b55322a19d9b3b71be0f5c6f5dbf194748d3290bcfa35d1706c1a24ff105a5f",
                    "uncleHash" : "0x1dcc4de8dec75d7aab85b567b6ccd41ad312451b948a7413f0a142fd40d49347"
                },
                "rlp" : "0xf90260f901f5a097c1d41769b6018fb352cebf012264408a83ee53ad30cdb5c88fc251171f7363a01dcc4de8dec75d7aab85b567b6ccd41ad312451b948a7413f0a142fd40d49347942adc25665018aa1fe0e6bc666dac8fc2697ff9baa000a7828cec08759fc28a6df3ca3f0b19e59370efb981df4b67708f238370cb3aa09b55322a19d9b3b71be0f5c6f5dbf194748d3290bcfa35d1706c1a24ff105a5fa063f99d622e2a4cdefff99379a53d8100b2ac6519180a9e1b4ccc0c1c505c28fdb90100000000000000000000000000000000000000000000000000000000000000000000000000000000000000000000000000000000000000000000000000000000000000000000000000000000000000000000000000000000000000000000000000000000000000000000000000000000000000000000000000000000000000000000000000000000000000000000000000000000000000000000000000000000000000000000000000000000000000000000000000000000000000000000000000000000000000000000000000000000000000000000000000000000000000000000000000000000000000000000000000000000000000000000000000000000008001830f42408268c58203e800a000000000000000000000000000000000000000000000000000000000000200008800000000000000000af865f863800a8303345094095e7baea6a6c7c4c2dfeb977efac326af552d87830186a0801ba0d7f12f33fd6ed868181c442fa795b825833472c08304ba8076c99e361277a1cea00754e3b3f79c4ac1554e25989ea8422b5dde0a09c4ff362ad4086d3f3a7d63cfc0",
                "transactions" : [
                    {
                        "data" : "0x",
                        "gasLimit" : "0x033450",
                        "gasPrice" : "0x0a",
                        "nonce" : "0x00",
                        "r" : "0xd7f12f33fd6ed868181c442fa795b825833472c08304ba8076c99e361277a1ce",
                        "s" : "0x0754e3b3f79c4ac1554e25989ea8422b5dde0a09c4ff362ad4086d3f3a7d63cf",
                        "sender" : "0xa94f5374fce5edbc8e2a8697c15331677e6ebf0b",
                        "to" : "0x095e7baea6a6c7c4c2dfeb977efac326af552d87",
                        "v" : "0x1b",
                        "value" : "0x0186a0"
                    }
                ],
                "uncleHeaders" : [
                ]
            }
        ],
        "genesisBlockHeader" : {
            "baseFeePerGas" : "0x0b",
            "bloom" : "0x00000000000000000000000000000000000000000000000000000000000000000000000000000000000000000000000000000000000000000000000000000000000000000000000000000000000000000000000000000000000000000000000000000000000000000000000000000000000000000000000000000000000000000000000000000000000000000000000000000000000000000000000000000000000000000000000000000000000000000000000000000000000000000000000000000000000000000000000000000000000000000000000000000000000000000000000000000000000000000000000000000000000000000000000000000000",
            "coinbase" : "0x2adc25665018aa1fe0e6bc666dac8fc2697ff9ba",
            "difficulty" : "0x00",
            "extraData" : "0x00",
            "gasLimit" : "0x0f4240",
            "gasUsed" : "0x00",
            "hash" : "0x97c1d41769b6018fb352cebf012264408a83ee53ad30cdb5c88fc251171f7363",
            "mixHash" : "0x0000000000000000000000000000000000000000000000000000000000020000",
            "nonce" : "0x0000000000000000",
            "number" : "0x00",
            "parentHash" : "0x0000000000000000000000000000000000000000000000000000000000000000",
            "receiptTrie" : "0x56e81f171bcc55a6ff8345e692c0f86e5b48e01b996cadc001622fb5e363b421",
            "stateRoot" : "0xff6a24303bc21770e314d0555737bb1ebc7d71e77d92a3d3de22f5426379f95e",
            "timestamp" : "0x00",
            "transactionsTrie" : "0x56e81f171bcc55a6ff8345e692c0f86e5b48e01b996cadc001622fb5e363b421",
            "uncleHash" : "0x1dcc4de8dec75d7aab85b567b6ccd41ad312451b948a7413f0a142fd40d49347"
        },
        "genesisRLP" : "0xf901f6f901f1a00000000000000000000000000000000000000000000000000000000000000000a01dcc4de8dec75d7aab85b567b6ccd41ad312451b948a7413f0a142fd40d49347942adc25665018aa1fe0e6bc666dac8fc2697ff9baa0ff6a24303bc21770e314d0555737bb1ebc7d71e77d92a3d3de22f5426379f95ea056e81f171bcc55a6ff8345e692c0f86e5b48e01b996cadc001622fb5e363b421a056e81f171bcc55a6ff8345e692c0f86e5b48e01b996cadc001622fb5e363b421b90100000000000000000000000000000000000000000000000000000000000000000000000000000000000000000000000000000000000000000000000000000000000000000000000000000000000000000000000000000000000000000000000000000000000000000000000000000000000000000000000000000000000000000000000000000000000000000000000000000000000000000000000000000000000000000000000000000000000000000000000000000000000000000000000000000000000000000000000000000000000000000000000000000000000000000000000000000000000000000000000000000000000000000000000000000000008080830f4240808000a000000000000000000000000000000000000000000000000000000000000200008800000000000000000bc0c0",
        "lastblockhash" : "0x014285a2ae619199428b41099c5290a176bcd287430dc528ffbb061b344c6e77",
        "network" : "Merge",
        "postState" : {
            "0x095e7baea6a6c7c4c2dfeb977efac326af552d87" : {
                "balance" : "0x0de0b6b3a76586a0",
                "code" : "0x6000600060006000730f572e5295c57f15886f9b263e2f6d2d6c7b5ec66103e8fa60005500",
                "nonce" : "0x00",
                "storage" : {
                }
            },
            "0x0f572e5295c57f15886f9b263e2f6d2d6c7b5ec6" : {
                "balance" : "0x0de0b6b3a7640000",
                "code" : "0x7faabbffffffffffffffffffffffffffffffffffffffffffffffffffffffffccdd6000526001601fa000",
                "nonce" : "0x00",
                "storage" : {
                }
            },
            "0xa94f5374fce5edbc8e2a8697c15331677e6ebf0b" : {
                "balance" : "0x0de0b6b3a75e61ae",
                "code" : "0x",
                "nonce" : "0x01",
                "storage" : {
                }
            }
        },
        "pre" : {
            "0x095e7baea6a6c7c4c2dfeb977efac326af552d87" : {
                "balance" : "0x0de0b6b3a7640000",
                "code" : "0x6000600060006000730f572e5295c57f15886f9b263e2f6d2d6c7b5ec66103e8fa60005500",
                "nonce" : "0x00",
                "storage" : {
                }
            },
            "0x0f572e5295c57f15886f9b263e2f6d2d6c7b5ec6" : {
                "balance" : "0x0de0b6b3a7640000",
                "code" : "0x7faabbffffffffffffffffffffffffffffffffffffffffffffffffffffffffccdd6000526001601fa000",
                "nonce" : "0x00",
                "storage" : {
                }
            },
            "0xa94f5374fce5edbc8e2a8697c15331677e6ebf0b" : {
                "balance" : "0x0de0b6b3a7640000",
                "code" : "0x",
                "nonce" : "0x00",
                "storage" : {
                }
            }
        },
        "sealEngine" : "NoProof"
    },
    "static_log0_nonEmptyMem_logMemSize1_logMemStart31_d0g0v0_Shanghai" : {
        "_info" : {
            "comment" : "",
            "filling-rpc-server" : "evm version 1.11.4-unstable-e14043db-20230308",
            "filling-tool-version" : "retesteth-0.3.0-shanghai+commit.fd2c0a83.Linux.g++",
            "generatedTestHash" : "3e4d76ec5ea7e2036548fd8383087fd91c331aa6f14cdf64a49feb88e932497a",
            "lllcversion" : "Version: 0.5.14-develop.2022.7.30+commit.a096d7a9.Linux.g++",
            "solidity" : "Version: 0.8.17+commit.8df45f5f.Linux.g++",
            "source" : "src/GeneralStateTestsFiller/stStaticCall/static_log0_nonEmptyMem_logMemSize1_logMemStart31Filler.json",
            "sourceHash" : "ab56b4f0ebc0108bb4c8ecf307347147c7e97662a69471ed257aacda71a02a53"
        },
        "blocks" : [
            {
                "blockHeader" : {
                    "baseFeePerGas" : "0x0a",
                    "bloom" : "0x00000000000000000000000000000000000000000000000000000000000000000000000000000000000000000000000000000000000000000000000000000000000000000000000000000000000000000000000000000000000000000000000000000000000000000000000000000000000000000000000000000000000000000000000000000000000000000000000000000000000000000000000000000000000000000000000000000000000000000000000000000000000000000000000000000000000000000000000000000000000000000000000000000000000000000000000000000000000000000000000000000000000000000000000000000000",
                    "coinbase" : "0x2adc25665018aa1fe0e6bc666dac8fc2697ff9ba",
                    "difficulty" : "0x00",
                    "extraData" : "0x00",
                    "gasLimit" : "0x0f4240",
                    "gasUsed" : "0x68c5",
                    "hash" : "0x13bb41b47eedd23cbfebca160401776e310ee171e81c34ff542cb5b28f9acc4b",
                    "mixHash" : "0x0000000000000000000000000000000000000000000000000000000000020000",
                    "nonce" : "0x0000000000000000",
                    "number" : "0x01",
                    "parentHash" : "0xbb4512e635a311e946fd4fae52ed2e1bb6eb13afe3b91b00fd592e410c543028",
                    "receiptTrie" : "0x63f99d622e2a4cdefff99379a53d8100b2ac6519180a9e1b4ccc0c1c505c28fd",
                    "stateRoot" : "0x00a7828cec08759fc28a6df3ca3f0b19e59370efb981df4b67708f238370cb3a",
                    "timestamp" : "0x03e8",
                    "transactionsTrie" : "0x9b55322a19d9b3b71be0f5c6f5dbf194748d3290bcfa35d1706c1a24ff105a5f",
                    "uncleHash" : "0x1dcc4de8dec75d7aab85b567b6ccd41ad312451b948a7413f0a142fd40d49347",
                    "withdrawalsRoot" : "0x56e81f171bcc55a6ff8345e692c0f86e5b48e01b996cadc001622fb5e363b421"
                },
                "rlp" : "0xf90282f90216a0bb4512e635a311e946fd4fae52ed2e1bb6eb13afe3b91b00fd592e410c543028a01dcc4de8dec75d7aab85b567b6ccd41ad312451b948a7413f0a142fd40d49347942adc25665018aa1fe0e6bc666dac8fc2697ff9baa000a7828cec08759fc28a6df3ca3f0b19e59370efb981df4b67708f238370cb3aa09b55322a19d9b3b71be0f5c6f5dbf194748d3290bcfa35d1706c1a24ff105a5fa063f99d622e2a4cdefff99379a53d8100b2ac6519180a9e1b4ccc0c1c505c28fdb90100000000000000000000000000000000000000000000000000000000000000000000000000000000000000000000000000000000000000000000000000000000000000000000000000000000000000000000000000000000000000000000000000000000000000000000000000000000000000000000000000000000000000000000000000000000000000000000000000000000000000000000000000000000000000000000000000000000000000000000000000000000000000000000000000000000000000000000000000000000000000000000000000000000000000000000000000000000000000000000000000000000000000000000000000000000008001830f42408268c58203e800a000000000000000000000000000000000000000000000000000000000000200008800000000000000000aa056e81f171bcc55a6ff8345e692c0f86e5b48e01b996cadc001622fb5e363b421f865f863800a8303345094095e7baea6a6c7c4c2dfeb977efac326af552d87830186a0801ba0d7f12f33fd6ed868181c442fa795b825833472c08304ba8076c99e361277a1cea00754e3b3f79c4ac1554e25989ea8422b5dde0a09c4ff362ad4086d3f3a7d63cfc0c0",
                "transactions" : [
                    {
                        "data" : "0x",
                        "gasLimit" : "0x033450",
                        "gasPrice" : "0x0a",
                        "nonce" : "0x00",
                        "r" : "0xd7f12f33fd6ed868181c442fa795b825833472c08304ba8076c99e361277a1ce",
                        "s" : "0x0754e3b3f79c4ac1554e25989ea8422b5dde0a09c4ff362ad4086d3f3a7d63cf",
                        "sender" : "0xa94f5374fce5edbc8e2a8697c15331677e6ebf0b",
                        "to" : "0x095e7baea6a6c7c4c2dfeb977efac326af552d87",
                        "v" : "0x1b",
                        "value" : "0x0186a0"
                    }
                ],
                "uncleHeaders" : [
                ],
                "withdrawals" : [
                ]
            }
        ],
        "genesisBlockHeader" : {
            "baseFeePerGas" : "0x0b",
            "bloom" : "0x00000000000000000000000000000000000000000000000000000000000000000000000000000000000000000000000000000000000000000000000000000000000000000000000000000000000000000000000000000000000000000000000000000000000000000000000000000000000000000000000000000000000000000000000000000000000000000000000000000000000000000000000000000000000000000000000000000000000000000000000000000000000000000000000000000000000000000000000000000000000000000000000000000000000000000000000000000000000000000000000000000000000000000000000000000000",
            "coinbase" : "0x2adc25665018aa1fe0e6bc666dac8fc2697ff9ba",
            "difficulty" : "0x00",
            "extraData" : "0x00",
            "gasLimit" : "0x0f4240",
            "gasUsed" : "0x00",
            "hash" : "0xbb4512e635a311e946fd4fae52ed2e1bb6eb13afe3b91b00fd592e410c543028",
            "mixHash" : "0x0000000000000000000000000000000000000000000000000000000000020000",
            "nonce" : "0x0000000000000000",
            "number" : "0x00",
            "parentHash" : "0x0000000000000000000000000000000000000000000000000000000000000000",
            "receiptTrie" : "0x56e81f171bcc55a6ff8345e692c0f86e5b48e01b996cadc001622fb5e363b421",
            "stateRoot" : "0xff6a24303bc21770e314d0555737bb1ebc7d71e77d92a3d3de22f5426379f95e",
            "timestamp" : "0x00",
            "transactionsTrie" : "0x56e81f171bcc55a6ff8345e692c0f86e5b48e01b996cadc001622fb5e363b421",
            "uncleHash" : "0x1dcc4de8dec75d7aab85b567b6ccd41ad312451b948a7413f0a142fd40d49347",
            "withdrawalsRoot" : "0x56e81f171bcc55a6ff8345e692c0f86e5b48e01b996cadc001622fb5e363b421"
        },
        "genesisRLP" : "0xf90218f90212a00000000000000000000000000000000000000000000000000000000000000000a01dcc4de8dec75d7aab85b567b6ccd41ad312451b948a7413f0a142fd40d49347942adc25665018aa1fe0e6bc666dac8fc2697ff9baa0ff6a24303bc21770e314d0555737bb1ebc7d71e77d92a3d3de22f5426379f95ea056e81f171bcc55a6ff8345e692c0f86e5b48e01b996cadc001622fb5e363b421a056e81f171bcc55a6ff8345e692c0f86e5b48e01b996cadc001622fb5e363b421b90100000000000000000000000000000000000000000000000000000000000000000000000000000000000000000000000000000000000000000000000000000000000000000000000000000000000000000000000000000000000000000000000000000000000000000000000000000000000000000000000000000000000000000000000000000000000000000000000000000000000000000000000000000000000000000000000000000000000000000000000000000000000000000000000000000000000000000000000000000000000000000000000000000000000000000000000000000000000000000000000000000000000000000000000000000000008080830f4240808000a000000000000000000000000000000000000000000000000000000000000200008800000000000000000ba056e81f171bcc55a6ff8345e692c0f86e5b48e01b996cadc001622fb5e363b421c0c0c0",
        "lastblockhash" : "0x13bb41b47eedd23cbfebca160401776e310ee171e81c34ff542cb5b28f9acc4b",
        "network" : "Shanghai",
        "postState" : {
            "0x095e7baea6a6c7c4c2dfeb977efac326af552d87" : {
                "balance" : "0x0de0b6b3a76586a0",
                "code" : "0x6000600060006000730f572e5295c57f15886f9b263e2f6d2d6c7b5ec66103e8fa60005500",
                "nonce" : "0x00",
                "storage" : {
                }
            },
            "0x0f572e5295c57f15886f9b263e2f6d2d6c7b5ec6" : {
                "balance" : "0x0de0b6b3a7640000",
                "code" : "0x7faabbffffffffffffffffffffffffffffffffffffffffffffffffffffffffccdd6000526001601fa000",
                "nonce" : "0x00",
                "storage" : {
                }
            },
            "0xa94f5374fce5edbc8e2a8697c15331677e6ebf0b" : {
                "balance" : "0x0de0b6b3a75e61ae",
                "code" : "0x",
                "nonce" : "0x01",
                "storage" : {
                }
            }
        },
        "pre" : {
            "0x095e7baea6a6c7c4c2dfeb977efac326af552d87" : {
                "balance" : "0x0de0b6b3a7640000",
                "code" : "0x6000600060006000730f572e5295c57f15886f9b263e2f6d2d6c7b5ec66103e8fa60005500",
                "nonce" : "0x00",
                "storage" : {
                }
            },
            "0x0f572e5295c57f15886f9b263e2f6d2d6c7b5ec6" : {
                "balance" : "0x0de0b6b3a7640000",
                "code" : "0x7faabbffffffffffffffffffffffffffffffffffffffffffffffffffffffffccdd6000526001601fa000",
                "nonce" : "0x00",
                "storage" : {
                }
            },
            "0xa94f5374fce5edbc8e2a8697c15331677e6ebf0b" : {
                "balance" : "0x0de0b6b3a7640000",
                "code" : "0x",
                "nonce" : "0x00",
                "storage" : {
                }
            }
        },
        "sealEngine" : "NoProof"
    }
}