{
    "static_callcodecallcall_100_OOGMAfter_3_d0g0v1_Byzantium" : {
        "_info" : {
            "comment" : "",
            "filledwith" : "cpp-1.3.0+commit.ab4ca6d1.Linux.g++",
            "lllcversion" : "Version: 0.4.20-develop.2018.1.8+commit.2548228b.Linux.g++",
            "source" : "src/BlockchainTestsFiller/GeneralStateTests/stStaticCall/static_callcodecallcall_100_OOGMAfter_3_d0g0v1Filler.json",
            "sourceHash" : "21c665c737cdd4df3a9623c8a2feb7dcca876da6dce6a04cdc2712c5825daa1c"
        },
        "blocks" : [
            {
                "blockHeader" : {
                    "bloom" : "0x00000000000000000000000000000000000000000000000000000000000000000000000000000000000000000000000000000000000000000000000000000000000000000000000000000000000000000000000000000000000000000000000000000000000000000000000000000000000000000000000000000000000000000000000000000000000000000000000000000000000000000000000000000000000000000000000000000000000000000000000000000000000000000000000000000000000000000000000000000000000000000000000000000000000000000000000000000000000000000000000000000000000000000000000000000000",
                    "coinbase" : "0x2adc25665018aa1fe0e6bc666dac8fc2697ff9ba",
                    "difficulty" : "0x020000",
                    "extraData" : "",
                    "gasLimit" : "0x989680",
                    "gasUsed" : "0x01c4ac",
                    "hash" : "0xb25dcc5f1e68262e889ace75ee6826365597467a5261bc590384e32fbfcc5f28",
                    "mixHash" : "0x54d6a9baeb5489decbbb821de73ab9d95141b909032b738f8e5cb92c848dbe61",
                    "nonce" : "0x3e0413f413b13380",
                    "number" : "0x01",
                    "parentHash" : "0xefb70fb7024254eacdf877fa3fc94269cc4f23ea1dbe76f9201940fe8454f8f0",
                    "receiptTrie" : "0x13b3651a3215275f45fe8b878405f23a43bb2ae860a6e3025e84cdb4af7f2508",
                    "stateRoot" : "0xcf023fbb14493b675abb23823c06418e53a4f4a3cc5a0923097cd4f69361928c",
                    "timestamp" : "0x03e8",
                    "transactionsTrie" : "0xbddf8edd4584202537adc674f5078d722e69af1c01ab63dfeb31d6fb6d3fce3e",
                    "uncleHash" : "0x1dcc4de8dec75d7aab85b567b6ccd41ad312451b948a7413f0a142fd40d49347"
                },
                "rlp" : "0xf90260f901f8a0efb70fb7024254eacdf877fa3fc94269cc4f23ea1dbe76f9201940fe8454f8f0a01dcc4de8dec75d7aab85b567b6ccd41ad312451b948a7413f0a142fd40d49347942adc25665018aa1fe0e6bc666dac8fc2697ff9baa0cf023fbb14493b675abb23823c06418e53a4f4a3cc5a0923097cd4f69361928ca0bddf8edd4584202537adc674f5078d722e69af1c01ab63dfeb31d6fb6d3fce3ea013b3651a3215275f45fe8b878405f23a43bb2ae860a6e3025e84cdb4af7f2508b90100000000000000000000000000000000000000000000000000000000000000000000000000000000000000000000000000000000000000000000000000000000000000000000000000000000000000000000000000000000000000000000000000000000000000000000000000000000000000000000000000000000000000000000000000000000000000000000000000000000000000000000000000000000000000000000000000000000000000000000000000000000000000000000000000000000000000000000000000000000000000000000000000000000000000000000000000000000000000000000000000000000000000000000000000000000008302000001839896808301c4ac8203e880a054d6a9baeb5489decbbb821de73ab9d95141b909032b738f8e5cb92c848dbe61883e0413f413b13380f862f860800183029fe094100000000000000000000000000000000000000001801ba059beb2e024b2488580e8fa995fe0ea5c07c50216f6631bc28ec05d67d26ec20fa060b972bb88e69931ee39080ababb24c7c55aecccd4a364564c4470308a65c15fc0",
                "transactions" : [
                    {
                        "data" : "0x",
                        "gasLimit" : "0x029fe0",
                        "gasPrice" : "0x01",
                        "nonce" : "0x00",
                        "r" : "0x59beb2e024b2488580e8fa995fe0ea5c07c50216f6631bc28ec05d67d26ec20f",
                        "s" : "0x60b972bb88e69931ee39080ababb24c7c55aecccd4a364564c4470308a65c15f",
                        "to" : "0x1000000000000000000000000000000000000000",
                        "v" : "0x1b",
                        "value" : "0x01"
                    }
                ],
                "uncleHeaders" : [
                ]
            }
        ],
        "genesisBlockHeader" : {
            "bloom" : "0x00000000000000000000000000000000000000000000000000000000000000000000000000000000000000000000000000000000000000000000000000000000000000000000000000000000000000000000000000000000000000000000000000000000000000000000000000000000000000000000000000000000000000000000000000000000000000000000000000000000000000000000000000000000000000000000000000000000000000000000000000000000000000000000000000000000000000000000000000000000000000000000000000000000000000000000000000000000000000000000000000000000000000000000000000000000",
            "coinbase" : "0x2adc25665018aa1fe0e6bc666dac8fc2697ff9ba",
            "difficulty" : "0x020000",
            "extraData" : "0x42",
            "gasLimit" : "0x989680",
            "gasUsed" : "0x00",
            "hash" : "0xefb70fb7024254eacdf877fa3fc94269cc4f23ea1dbe76f9201940fe8454f8f0",
            "mixHash" : "0x56e81f171bcc55a6ff8345e692c0f86e5b48e01b996cadc001622fb5e363b421",
            "nonce" : "0x0102030405060708",
            "number" : "0x00",
            "parentHash" : "0x0000000000000000000000000000000000000000000000000000000000000000",
            "receiptTrie" : "0x56e81f171bcc55a6ff8345e692c0f86e5b48e01b996cadc001622fb5e363b421",
            "stateRoot" : "0xcebcad9127cc662fd1715b2681a613ffdaa6e8d2d1626d1e01d15b634bd7200e",
            "timestamp" : "0x03b6",
            "transactionsTrie" : "0x56e81f171bcc55a6ff8345e692c0f86e5b48e01b996cadc001622fb5e363b421",
            "uncleHash" : "0x1dcc4de8dec75d7aab85b567b6ccd41ad312451b948a7413f0a142fd40d49347"
        },
        "genesisRLP" : "0xf901faf901f5a00000000000000000000000000000000000000000000000000000000000000000a01dcc4de8dec75d7aab85b567b6ccd41ad312451b948a7413f0a142fd40d49347942adc25665018aa1fe0e6bc666dac8fc2697ff9baa0cebcad9127cc662fd1715b2681a613ffdaa6e8d2d1626d1e01d15b634bd7200ea056e81f171bcc55a6ff8345e692c0f86e5b48e01b996cadc001622fb5e363b421a056e81f171bcc55a6ff8345e692c0f86e5b48e01b996cadc001622fb5e363b421b9010000000000000000000000000000000000000000000000000000000000000000000000000000000000000000000000000000000000000000000000000000000000000000000000000000000000000000000000000000000000000000000000000000000000000000000000000000000000000000000000000000000000000000000000000000000000000000000000000000000000000000000000000000000000000000000000000000000000000000000000000000000000000000000000000000000000000000000000000000000000000000000000000000000000000000000000000000000000000000000000000000000000000000000000000000000000830200008083989680808203b642a056e81f171bcc55a6ff8345e692c0f86e5b48e01b996cadc001622fb5e363b421880102030405060708c0c0",
        "lastblockhash" : "0xb25dcc5f1e68262e889ace75ee6826365597467a5261bc590384e32fbfcc5f28",
        "network" : "Byzantium",
        "postState" : {
            "0x1000000000000000000000000000000000000000" : {
                "balance" : "0x0de0b6b3a7640001",
                "code" : "0x60406000604060003473100000000000000000000000000000000000000161eaf6f26000555a600155",
                "nonce" : "0x00",
                "storage" : {
                    "0x01" : "0x012957"
                }
            },
            "0x1000000000000000000000000000000000000001" : {
                "balance" : "0x00",
                "code" : "0x60016003526040600060406000731000000000000000000000000000000000000002619c90fa505b61c350608051101560435760013b506001608051016080526027565b",
                "nonce" : "0x00",
                "storage" : {
                }
            },
            "0x1000000000000000000000000000000000000002" : {
                "balance" : "0x00",
                "code" : "0x60016003526040600060406000731000000000000000000000000000000000000003614e34fa506001602052",
                "nonce" : "0x00",
                "storage" : {
                }
            },
            "0x1000000000000000000000000000000000000003" : {
                "balance" : "0x00",
                "code" : "0x6001600352",
                "nonce" : "0x00",
                "storage" : {
                }
            },
            "0x2adc25665018aa1fe0e6bc666dac8fc2697ff9ba" : {
                "balance" : "0x29a2241af62dc4ac",
                "code" : "",
                "nonce" : "0x00",
                "storage" : {
                }
            },
            "0xa94f5374fce5edbc8e2a8697c15331677e6ebf0b" : {
                "balance" : "0x0de0b6b3a7623b53",
                "code" : "",
                "nonce" : "0x01",
                "storage" : {
                }
            }
        },
        "pre" : {
            "0x1000000000000000000000000000000000000000" : {
                "balance" : "0x0de0b6b3a7640000",
                "code" : "0x60406000604060003473100000000000000000000000000000000000000161eaf6f26000555a600155",
                "nonce" : "0x00",
                "storage" : {
                }
            },
            "0x1000000000000000000000000000000000000001" : {
                "balance" : "0x00",
                "code" : "0x60016003526040600060406000731000000000000000000000000000000000000002619c90fa505b61c350608051101560435760013b506001608051016080526027565b",
                "nonce" : "0x00",
                "storage" : {
                }
            },
            "0x1000000000000000000000000000000000000002" : {
                "balance" : "0x00",
                "code" : "0x60016003526040600060406000731000000000000000000000000000000000000003614e34fa506001602052",
                "nonce" : "0x00",
                "storage" : {
                }
            },
            "0x1000000000000000000000000000000000000003" : {
                "balance" : "0x00",
                "code" : "0x6001600352",
                "nonce" : "0x00",
                "storage" : {
                }
            },
            "0xa94f5374fce5edbc8e2a8697c15331677e6ebf0b" : {
                "balance" : "0x0de0b6b3a7640000",
                "code" : "",
                "nonce" : "0x00",
                "storage" : {
                }
            }
        }
    }
}