{
    "static_log1_emptyMem_d0g0v0_Berlin" : {
        "_info" : {
            "comment" : "",
            "filling-rpc-server" : "evm version 1.10.2-unstable-22082f9e-20210309",
            "filling-tool-version" : "retesteth-0.1.0-accesslist+commit.47c69eb3.Linux.g++",
            "lllcversion" : "Version: 0.5.14-develop.2020.6.22+commit.9189ad7a.Linux.g++",
            "source" : "src/GeneralStateTestsFiller/stStaticCall/static_log1_emptyMemFiller.json",
            "sourceHash" : "2612f4036017ad21928f0b4775b6f7c01632a7404a7d7e76ad7774fdecc88b57"
        },
        "genesisBlockHeader" : {
            "bloom" : "0x00000000000000000000000000000000000000000000000000000000000000000000000000000000000000000000000000000000000000000000000000000000000000000000000000000000000000000000000000000000000000000000000000000000000000000000000000000000000000000000000000000000000000000000000000000000000000000000000000000000000000000000000000000000000000000000000000000000000000000000000000000000000000000000000000000000000000000000000000000000000000000000000000000000000000000000000000000000000000000000000000000000000000000000000000000000",
            "coinbase" : "0x2adc25665018aa1fe0e6bc666dac8fc2697ff9ba",
            "difficulty" : "0x020000",
            "extraData" : "0x00",
            "gasLimit" : "0x0f4240",
            "gasUsed" : "0x00",
            "hash" : "0xb001ccabd28cc797c180406e66e634fb2757411e23d7a0a986d5658def09a321",
            "mixHash" : "0x0000000000000000000000000000000000000000000000000000000000000000",
            "nonce" : "0x0000000000000000",
            "number" : "0x00",
            "parentHash" : "0x0000000000000000000000000000000000000000000000000000000000000000",
            "receiptTrie" : "0x56e81f171bcc55a6ff8345e692c0f86e5b48e01b996cadc001622fb5e363b421",
            "stateRoot" : "0x5c34a1702f2f585dd50dd80bfe974b28ce93c9539bc12af1f4bca422dfa090e6",
            "timestamp" : "0x00",
            "transactionsTrie" : "0x56e81f171bcc55a6ff8345e692c0f86e5b48e01b996cadc001622fb5e363b421",
            "uncleHash" : "0x1dcc4de8dec75d7aab85b567b6ccd41ad312451b948a7413f0a142fd40d49347"
        },
        "pre" : {
            "0x095e7baea6a6c7c4c2dfeb977efac326af552d87" : {
                "balance" : "0x0de0b6b3a7640000",
                "code" : "0x6000600060006000730f572e5295c57f15886f9b263e2f6d2d6c7b5ec66103e8fa60005500",
                "nonce" : "0x00",
                "storage" : {
                }
            },
            "0x0f572e5295c57f15886f9b263e2f6d2d6c7b5ec6" : {
                "balance" : "0x0de0b6b3a7640000",
                "code" : "0x600060006000a100",
                "nonce" : "0x00",
                "storage" : {
                }
            },
            "0xa94f5374fce5edbc8e2a8697c15331677e6ebf0b" : {
                "balance" : "0x0de0b6b3a7640000",
                "code" : "0x",
                "nonce" : "0x00",
                "storage" : {
                }
            }
        },
        "postState" : {
            "0x095e7baea6a6c7c4c2dfeb977efac326af552d87" : {
                "code" : "0x6000600060006000730f572e5295c57f15886f9b263e2f6d2d6c7b5ec66103e8fa60005500",
                "nonce" : "0x00",
                "balance" : "0x0de0b6b3a76586a0",
                "storage" : {
                }
            },
            "0x0f572e5295c57f15886f9b263e2f6d2d6c7b5ec6" : {
                "code" : "0x600060006000a100",
                "nonce" : "0x00",
                "balance" : "0x0de0b6b3a7640000",
                "storage" : {
                }
            },
            "0x2adc25665018aa1fe0e6bc666dac8fc2697ff9ba" : {
                "code" : "0x",
                "nonce" : "0x00",
                "balance" : "0x1bc16d674ec868c5",
                "storage" : {
                }
            },
            "0xa94f5374fce5edbc8e2a8697c15331677e6ebf0b" : {
                "code" : "0x",
                "nonce" : "0x01",
                "balance" : "0x0de0b6b3a762109b",
                "storage" : {
                }
            }
        },
        "network" : "Berlin",
        "sealEngine" : "NoProof",
        "lastblockhash" : "0x97f3d7b91d0e82a3f9f7a4b6d3de76af28c1cc2041aec2e7faa9ffac9b21a1c1",
        "genesisRLP" : "0xf901f8f901f3a00000000000000000000000000000000000000000000000000000000000000000a01dcc4de8dec75d7aab85b567b6ccd41ad312451b948a7413f0a142fd40d49347942adc25665018aa1fe0e6bc666dac8fc2697ff9baa05c34a1702f2f585dd50dd80bfe974b28ce93c9539bc12af1f4bca422dfa090e6a056e81f171bcc55a6ff8345e692c0f86e5b48e01b996cadc001622fb5e363b421a056e81f171bcc55a6ff8345e692c0f86e5b48e01b996cadc001622fb5e363b421b90100000000000000000000000000000000000000000000000000000000000000000000000000000000000000000000000000000000000000000000000000000000000000000000000000000000000000000000000000000000000000000000000000000000000000000000000000000000000000000000000000000000000000000000000000000000000000000000000000000000000000000000000000000000000000000000000000000000000000000000000000000000000000000000000000000000000000000000000000000000000000000000000000000000000000000000000000000000000000000000000000000000000000000000000000000000008302000080830f4240808000a00000000000000000000000000000000000000000000000000000000000000000880000000000000000c0c0",
        "blocks" : [
            {
                "rlp" : "0xf90262f901f7a0b001ccabd28cc797c180406e66e634fb2757411e23d7a0a986d5658def09a321a01dcc4de8dec75d7aab85b567b6ccd41ad312451b948a7413f0a142fd40d49347942adc25665018aa1fe0e6bc666dac8fc2697ff9baa0c24f764101e3e75675b39291b47fb8e1d09185ce15fa14fd4fade3c875fc369aa0466f1520dd2fb37a6abe5419439e4bc5fd5146708535d1984cde813519a28e61a063f99d622e2a4cdefff99379a53d8100b2ac6519180a9e1b4ccc0c1c505c28fdb90100000000000000000000000000000000000000000000000000000000000000000000000000000000000000000000000000000000000000000000000000000000000000000000000000000000000000000000000000000000000000000000000000000000000000000000000000000000000000000000000000000000000000000000000000000000000000000000000000000000000000000000000000000000000000000000000000000000000000000000000000000000000000000000000000000000000000000000000000000000000000000000000000000000000000000000000000000000000000000000000000000000000000000000000000000000008302000001830f42408268c58203e800a00000000000000000000000000000000000000000000000000000000000000000880000000000000000f865f86380018303345094095e7baea6a6c7c4c2dfeb977efac326af552d87830186a0801ba09bae3efe7d9d16200582021c8f7c93c143c3fb1dd6be8a83213f3a5f1ad03926a0177d82a90f883a19de8c6d62ce79c753ae4ea076de047ca19a017879a1ce8bc1c0",
                "blockHeader" : {
                    "bloom" : "0x00000000000000000000000000000000000000000000000000000000000000000000000000000000000000000000000000000000000000000000000000000000000000000000000000000000000000000000000000000000000000000000000000000000000000000000000000000000000000000000000000000000000000000000000000000000000000000000000000000000000000000000000000000000000000000000000000000000000000000000000000000000000000000000000000000000000000000000000000000000000000000000000000000000000000000000000000000000000000000000000000000000000000000000000000000000",
                    "coinbase" : "0x2adc25665018aa1fe0e6bc666dac8fc2697ff9ba",
                    "difficulty" : "0x020000",
                    "extraData" : "0x00",
                    "gasLimit" : "0x0f4240",
                    "gasUsed" : "0x68c5",
                    "hash" : "0x97f3d7b91d0e82a3f9f7a4b6d3de76af28c1cc2041aec2e7faa9ffac9b21a1c1",
                    "mixHash" : "0x0000000000000000000000000000000000000000000000000000000000000000",
                    "nonce" : "0x0000000000000000",
                    "number" : "0x01",
                    "parentHash" : "0xb001ccabd28cc797c180406e66e634fb2757411e23d7a0a986d5658def09a321",
                    "receiptTrie" : "0x63f99d622e2a4cdefff99379a53d8100b2ac6519180a9e1b4ccc0c1c505c28fd",
                    "stateRoot" : "0xc24f764101e3e75675b39291b47fb8e1d09185ce15fa14fd4fade3c875fc369a",
                    "timestamp" : "0x03e8",
                    "transactionsTrie" : "0x466f1520dd2fb37a6abe5419439e4bc5fd5146708535d1984cde813519a28e61",
                    "uncleHash" : "0x1dcc4de8dec75d7aab85b567b6ccd41ad312451b948a7413f0a142fd40d49347"
                },
                "transactions" : [
                    {
                        "data" : "0x",
                        "gasLimit" : "0x033450",
                        "gasPrice" : "0x01",
                        "nonce" : "0x00",
                        "to" : "0x095e7baea6a6c7c4c2dfeb977efac326af552d87",
                        "value" : "0x0186a0",
                        "v" : "0x1b",
                        "r" : "0x9bae3efe7d9d16200582021c8f7c93c143c3fb1dd6be8a83213f3a5f1ad03926",
                        "s" : "0x177d82a90f883a19de8c6d62ce79c753ae4ea076de047ca19a017879a1ce8bc1"
                    }
                ],
                "uncleHeaders" : [
                ]
            }
        ]
    },
    "static_log1_emptyMem_d0g0v0_Istanbul" : {
        "_info" : {
            "comment" : "",
            "filling-rpc-server" : "evm version 1.10.2-unstable-22082f9e-20210309",
            "filling-tool-version" : "retesteth-0.1.0-accesslist+commit.47c69eb3.Linux.g++",
            "lllcversion" : "Version: 0.5.14-develop.2020.6.22+commit.9189ad7a.Linux.g++",
            "source" : "src/GeneralStateTestsFiller/stStaticCall/static_log1_emptyMemFiller.json",
            "sourceHash" : "2612f4036017ad21928f0b4775b6f7c01632a7404a7d7e76ad7774fdecc88b57"
        },
        "genesisBlockHeader" : {
            "bloom" : "0x00000000000000000000000000000000000000000000000000000000000000000000000000000000000000000000000000000000000000000000000000000000000000000000000000000000000000000000000000000000000000000000000000000000000000000000000000000000000000000000000000000000000000000000000000000000000000000000000000000000000000000000000000000000000000000000000000000000000000000000000000000000000000000000000000000000000000000000000000000000000000000000000000000000000000000000000000000000000000000000000000000000000000000000000000000000",
            "coinbase" : "0x2adc25665018aa1fe0e6bc666dac8fc2697ff9ba",
            "difficulty" : "0x020000",
            "extraData" : "0x00",
            "gasLimit" : "0x0f4240",
            "gasUsed" : "0x00",
            "hash" : "0xb001ccabd28cc797c180406e66e634fb2757411e23d7a0a986d5658def09a321",
            "mixHash" : "0x0000000000000000000000000000000000000000000000000000000000000000",
            "nonce" : "0x0000000000000000",
            "number" : "0x00",
            "parentHash" : "0x0000000000000000000000000000000000000000000000000000000000000000",
            "receiptTrie" : "0x56e81f171bcc55a6ff8345e692c0f86e5b48e01b996cadc001622fb5e363b421",
            "stateRoot" : "0x5c34a1702f2f585dd50dd80bfe974b28ce93c9539bc12af1f4bca422dfa090e6",
            "timestamp" : "0x00",
            "transactionsTrie" : "0x56e81f171bcc55a6ff8345e692c0f86e5b48e01b996cadc001622fb5e363b421",
            "uncleHash" : "0x1dcc4de8dec75d7aab85b567b6ccd41ad312451b948a7413f0a142fd40d49347"
        },
        "pre" : {
            "0x095e7baea6a6c7c4c2dfeb977efac326af552d87" : {
                "balance" : "0x0de0b6b3a7640000",
                "code" : "0x6000600060006000730f572e5295c57f15886f9b263e2f6d2d6c7b5ec66103e8fa60005500",
                "nonce" : "0x00",
                "storage" : {
                }
            },
            "0x0f572e5295c57f15886f9b263e2f6d2d6c7b5ec6" : {
                "balance" : "0x0de0b6b3a7640000",
                "code" : "0x600060006000a100",
                "nonce" : "0x00",
                "storage" : {
                }
            },
            "0xa94f5374fce5edbc8e2a8697c15331677e6ebf0b" : {
                "balance" : "0x0de0b6b3a7640000",
                "code" : "0x",
                "nonce" : "0x00",
                "storage" : {
                }
            }
        },
        "postState" : {
            "0x095e7baea6a6c7c4c2dfeb977efac326af552d87" : {
                "code" : "0x6000600060006000730f572e5295c57f15886f9b263e2f6d2d6c7b5ec66103e8fa60005500",
                "nonce" : "0x00",
                "balance" : "0x0de0b6b3a76586a0",
                "storage" : {
                }
            },
            "0x0f572e5295c57f15886f9b263e2f6d2d6c7b5ec6" : {
                "code" : "0x600060006000a100",
                "nonce" : "0x00",
                "balance" : "0x0de0b6b3a7640000",
                "storage" : {
                }
            },
            "0x2adc25665018aa1fe0e6bc666dac8fc2697ff9ba" : {
                "code" : "0x",
                "nonce" : "0x00",
                "balance" : "0x1bc16d674ec85be1",
                "storage" : {
                }
            },
            "0xa94f5374fce5edbc8e2a8697c15331677e6ebf0b" : {
                "code" : "0x",
                "nonce" : "0x01",
                "balance" : "0x0de0b6b3a7621d7f",
                "storage" : {
                }
            }
        },
        "network" : "Istanbul",
        "sealEngine" : "NoProof",
        "lastblockhash" : "0x4c7d4d2bf7e8c3e163000f0c2ff7327191f8f1f812477dd99c84433fdde79edc",
        "genesisRLP" : "0xf901f8f901f3a00000000000000000000000000000000000000000000000000000000000000000a01dcc4de8dec75d7aab85b567b6ccd41ad312451b948a7413f0a142fd40d49347942adc25665018aa1fe0e6bc666dac8fc2697ff9baa05c34a1702f2f585dd50dd80bfe974b28ce93c9539bc12af1f4bca422dfa090e6a056e81f171bcc55a6ff8345e692c0f86e5b48e01b996cadc001622fb5e363b421a056e81f171bcc55a6ff8345e692c0f86e5b48e01b996cadc001622fb5e363b421b90100000000000000000000000000000000000000000000000000000000000000000000000000000000000000000000000000000000000000000000000000000000000000000000000000000000000000000000000000000000000000000000000000000000000000000000000000000000000000000000000000000000000000000000000000000000000000000000000000000000000000000000000000000000000000000000000000000000000000000000000000000000000000000000000000000000000000000000000000000000000000000000000000000000000000000000000000000000000000000000000000000000000000000000000000000000008302000080830f4240808000a00000000000000000000000000000000000000000000000000000000000000000880000000000000000c0c0",
        "blocks" : [
            {
                "rlp" : "0xf90262f901f7a0b001ccabd28cc797c180406e66e634fb2757411e23d7a0a986d5658def09a321a01dcc4de8dec75d7aab85b567b6ccd41ad312451b948a7413f0a142fd40d49347942adc25665018aa1fe0e6bc666dac8fc2697ff9baa0c244dd992f0b386d59550e73b301621a3b9bbdc76fa81f360b6b9a2fe7a1a214a0466f1520dd2fb37a6abe5419439e4bc5fd5146708535d1984cde813519a28e61a09c53d5cf51e2265a80607a94af872c35bd618fb5050105a765d58d327a7e5bb3b90100000000000000000000000000000000000000000000000000000000000000000000000000000000000000000000000000000000000000000000000000000000000000000000000000000000000000000000000000000000000000000000000000000000000000000000000000000000000000000000000000000000000000000000000000000000000000000000000000000000000000000000000000000000000000000000000000000000000000000000000000000000000000000000000000000000000000000000000000000000000000000000000000000000000000000000000000000000000000000000000000000000000000000000000000000000008302000001830f4240825be18203e800a00000000000000000000000000000000000000000000000000000000000000000880000000000000000f865f86380018303345094095e7baea6a6c7c4c2dfeb977efac326af552d87830186a0801ba09bae3efe7d9d16200582021c8f7c93c143c3fb1dd6be8a83213f3a5f1ad03926a0177d82a90f883a19de8c6d62ce79c753ae4ea076de047ca19a017879a1ce8bc1c0",
                "blockHeader" : {
                    "bloom" : "0x00000000000000000000000000000000000000000000000000000000000000000000000000000000000000000000000000000000000000000000000000000000000000000000000000000000000000000000000000000000000000000000000000000000000000000000000000000000000000000000000000000000000000000000000000000000000000000000000000000000000000000000000000000000000000000000000000000000000000000000000000000000000000000000000000000000000000000000000000000000000000000000000000000000000000000000000000000000000000000000000000000000000000000000000000000000",
                    "coinbase" : "0x2adc25665018aa1fe0e6bc666dac8fc2697ff9ba",
                    "difficulty" : "0x020000",
                    "extraData" : "0x00",
                    "gasLimit" : "0x0f4240",
                    "gasUsed" : "0x5be1",
                    "hash" : "0x4c7d4d2bf7e8c3e163000f0c2ff7327191f8f1f812477dd99c84433fdde79edc",
                    "mixHash" : "0x0000000000000000000000000000000000000000000000000000000000000000",
                    "nonce" : "0x0000000000000000",
                    "number" : "0x01",
                    "parentHash" : "0xb001ccabd28cc797c180406e66e634fb2757411e23d7a0a986d5658def09a321",
                    "receiptTrie" : "0x9c53d5cf51e2265a80607a94af872c35bd618fb5050105a765d58d327a7e5bb3",
                    "stateRoot" : "0xc244dd992f0b386d59550e73b301621a3b9bbdc76fa81f360b6b9a2fe7a1a214",
                    "timestamp" : "0x03e8",
                    "transactionsTrie" : "0x466f1520dd2fb37a6abe5419439e4bc5fd5146708535d1984cde813519a28e61",
                    "uncleHash" : "0x1dcc4de8dec75d7aab85b567b6ccd41ad312451b948a7413f0a142fd40d49347"
                },
                "transactions" : [
                    {
                        "data" : "0x",
                        "gasLimit" : "0x033450",
                        "gasPrice" : "0x01",
                        "nonce" : "0x00",
                        "to" : "0x095e7baea6a6c7c4c2dfeb977efac326af552d87",
                        "value" : "0x0186a0",
                        "v" : "0x1b",
                        "r" : "0x9bae3efe7d9d16200582021c8f7c93c143c3fb1dd6be8a83213f3a5f1ad03926",
                        "s" : "0x177d82a90f883a19de8c6d62ce79c753ae4ea076de047ca19a017879a1ce8bc1"
                    }
                ],
                "uncleHeaders" : [
                ]
            }
        ]
    }
}