{
    "src/GeneralStateTestsFiller/Pyspecs/cancun/eip4788_beacon_root/test_beacon_root_contract.py::test_calldata_lengths[fork_Cancun-state_test-timestamp_12-valid_call_False-valid_input_False-1024_bytes]" : {
        "_info" : {
            "comment" : "`execution-spec-tests` generated test",
            "filling-rpc-server" : "evm version 1.13.11-unstable-765f2904-20240124",
            "filling-tool-version" : "retesteth-0.3.2-cancun+commit.a226b11f.Linux.g++",
            "filling-transition-tool" : "evm version 1.13.11-unstable-765f2904-20240124",
            "generatedTestHash" : "3b1341232cb34dac4f21c9881a7bd6f9bf85c837e15ad0df6e9dfa70c326031a",
            "lllcversion" : "Version: 0.5.14-develop.2023.7.11+commit.c58ab2c6.mod.Linux.g++",
            "solidity" : "Version: 0.8.21+commit.d9974bed.Linux.g++",
            "source" : "src/GeneralStateTestsFiller/Pyspecs/cancun/eip4788_beacon_root/test_beacon_root_contract.py",
            "sourceHash" : "459aa11bc33b4205dd52998a67c4d4440c527f79643139322d386c7ac691a2d2"
        },
        "env" : {
            "currentBaseFee" : "0x07",
            "currentCoinbase" : "0x2adc25665018aa1fe0e6bc666dac8fc2697ff9ba",
            "currentDifficulty" : "0x00",
            "currentExcessBlobGas" : "0x00",
            "currentGasLimit" : "0x016345785d8a0000",
            "currentNumber" : "0x01",
            "currentRandom" : "0x0000000000000000000000000000000000000000000000000000000000000000",
            "currentTimestamp" : "0x0c"
        },
        "post" : {
            "Cancun" : [
                {
                    "hash" : "0x7ef70c556661aae4e62c17d0246fc731efbef39a14426ea5d1c92737a44138f4",
                    "indexes" : {
                        "data" : 0,
                        "gas" : 0,
                        "value" : 0
                    },
                    "logs" : "0x1dcc4de8dec75d7aab85b567b6ccd41ad312451b948a7413f0a142fd40d49347",
                    "txbytes" : "0x02f9046501808007830f424094000000000000000000000000000000000000010080b904000000000000000000000000000000000000000000000000000000000000000000000000000000000000000000000000000000000000000000000000000000000000000000000000000000000000000000000000000000000000000000000000000000000000000000000000000000000000000000000000000000000000000000000000000000000000000000000000000000000000000000000000000000000000000000000000000000000000000000000000000000000000000000000000000000000000000000000000000000000000000000000000000000000000000000000000000000000000000000000000000000000000000000000000000000000000000000000000000000000000000000000000000000000000000000000000000000000000000000000000000000000000000000000000000000000000000000000000000000000000000000000000000000000000000000000000000000000000000000000000000000000000000000000000000000000000000000000000000000000000000000000000000000000000000000000000000000000000000000000000000000000000000000000000000000000000000000000000000000000000000000000000000000000000000000000000000000000000000000000000000000000000000000000000000000000000000000000000000000000000000000000000000000000000000000000000000000000000000000000000000000000000000000000000000000000000000000000000000000000000000000000000000000000000000000000000000000000000000000000000000000000000000000000000000000000000000000000000000000000000000000000000000000000000000000000000000000000000000000000000000000000000000000000000000000000000000000000000000000000000000000000000000000000000000000000000000000000000000000000000000000000000000000000000000000000000000000000000000000000000000000000000000000000000000000000000000000000000000000000000000000000000000000000000000000000000000000000000000000000000000000000000000000000000000000000000000000000000000000000000000000000000000000000000000000000000000000000000000000000000000000000000000000000000000000000000000000000000000000000000000000000000000000000000000000000000000000000000000000000000000000000000000000000000000000000000000000000000000000000000000000000000000000000000000000000000000000000000000000000000000000000000000000000000000000000000000000000000000000000000000000000cc001a049af38b25b5c7a29511b3cb5920d1e4b04a87be41edb200ea90a881d37a186b9a068d505d79b143523981b25ed45c2ad59cc42b028e229328136bab08ce33f1c03"
                }
            ]
        },
        "pre" : {
            "0x0000000000000000000000000000000000000100" : {
                "balance" : "0x010000000000",
                "code" : "0x366000602037602060003660206000720f3df6d732807ef1319fb7b8bb8522d0beac02620186a0f16000556000516001553d6002553d600060003e600051600355",
                "nonce" : "0x00",
                "storage" : {
                }
            },
            "0x000f3df6d732807ef1319fb7b8bb8522d0beac02" : {
                "balance" : "0x00",
                "code" : "0x3373fffffffffffffffffffffffffffffffffffffffe14604d57602036146024575f5ffd5b5f35801560495762001fff810690815414603c575f5ffd5b62001fff01545f5260205ff35b5f5ffd5b62001fff42064281555f359062001fff015500",
                "nonce" : "0x01",
                "storage" : {
                    "0x0c" : "0x0c",
                    "0x200b" : "0x6c31fc15422ebad28aaf9089c306702f67540b53c7eea8b7d2941044b027100f"
                }
            },
            "0xa94f5374fce5edbc8e2a8697c15331677e6ebf0b" : {
                "balance" : "0x010000000000",
                "code" : "0x",
                "nonce" : "0x00",
                "storage" : {
                }
            }
        },
        "transaction" : {
            "accessLists" : [
                [
                ]
            ],
            "data" : [
                "0x0000000000000000000000000000000000000000000000000000000000000000000000000000000000000000000000000000000000000000000000000000000000000000000000000000000000000000000000000000000000000000000000000000000000000000000000000000000000000000000000000000000000000000000000000000000000000000000000000000000000000000000000000000000000000000000000000000000000000000000000000000000000000000000000000000000000000000000000000000000000000000000000000000000000000000000000000000000000000000000000000000000000000000000000000000000000000000000000000000000000000000000000000000000000000000000000000000000000000000000000000000000000000000000000000000000000000000000000000000000000000000000000000000000000000000000000000000000000000000000000000000000000000000000000000000000000000000000000000000000000000000000000000000000000000000000000000000000000000000000000000000000000000000000000000000000000000000000000000000000000000000000000000000000000000000000000000000000000000000000000000000000000000000000000000000000000000000000000000000000000000000000000000000000000000000000000000000000000000000000000000000000000000000000000000000000000000000000000000000000000000000000000000000000000000000000000000000000000000000000000000000000000000000000000000000000000000000000000000000000000000000000000000000000000000000000000000000000000000000000000000000000000000000000000000000000000000000000000000000000000000000000000000000000000000000000000000000000000000000000000000000000000000000000000000000000000000000000000000000000000000000000000000000000000000000000000000000000000000000000000000000000000000000000000000000000000000000000000000000000000000000000000000000000000000000000000000000000000000000000000000000000000000000000000000000000000000000000000000000000000000000000000000000000000000000000000000000000000000000000000000000000000000000000000000000000000000000000000000000000000000000000000000000000000000000000000000000000000000000000000000000000000000000000000000000000000000000000000000000000000000000000000000000000000000000000000000000000000000000000000000000000c"
            ],
            "gasLimit" : [
                "0x0f4240"
            ],
            "maxFeePerGas" : "0x7",
            "maxPriorityFeePerGas" : "0x0",
            "nonce" : "0x00",
            "secretKey" : "0x45a915e4d060149eb4365960e6a7a45f334393093061116b197e3240065ff2d8",
            "sender" : "0xa94f5374fce5edbc8e2a8697c15331677e6ebf0b",
            "to" : "0x0000000000000000000000000000000000000100",
            "value" : [
                "0x00"
            ]
        }
    },
    "src/GeneralStateTestsFiller/Pyspecs/cancun/eip4788_beacon_root/test_beacon_root_contract.py::test_calldata_lengths[fork_Cancun-state_test-timestamp_12-valid_call_False-valid_input_False-31_bytes]" : {
        "_info" : {
            "comment" : "`execution-spec-tests` generated test",
            "filling-rpc-server" : "evm version 1.13.11-unstable-765f2904-20240124",
            "filling-tool-version" : "retesteth-0.3.2-cancun+commit.a226b11f.Linux.g++",
            "filling-transition-tool" : "evm version 1.13.11-unstable-765f2904-20240124",
            "generatedTestHash" : "db64484e2b1c1fd0e76d8f524229b4cb44add7228b9df98aff36a51bf37e687b",
            "lllcversion" : "Version: 0.5.14-develop.2023.7.11+commit.c58ab2c6.mod.Linux.g++",
            "solidity" : "Version: 0.8.21+commit.d9974bed.Linux.g++",
            "source" : "src/GeneralStateTestsFiller/Pyspecs/cancun/eip4788_beacon_root/test_beacon_root_contract.py",
            "sourceHash" : "459aa11bc33b4205dd52998a67c4d4440c527f79643139322d386c7ac691a2d2"
        },
        "env" : {
            "currentBaseFee" : "0x07",
            "currentCoinbase" : "0x2adc25665018aa1fe0e6bc666dac8fc2697ff9ba",
            "currentDifficulty" : "0x00",
            "currentExcessBlobGas" : "0x00",
            "currentGasLimit" : "0x016345785d8a0000",
            "currentNumber" : "0x01",
            "currentRandom" : "0x0000000000000000000000000000000000000000000000000000000000000000",
            "currentTimestamp" : "0x0c"
        },
        "post" : {
            "Cancun" : [
                {
                    "hash" : "0xca9c08335357a8321ff9492744e205ebb5555d7ab8b1aebdd0fc48cf220411c2",
                    "indexes" : {
                        "data" : 0,
                        "gas" : 0,
                        "value" : 0
                    },
                    "logs" : "0x1dcc4de8dec75d7aab85b567b6ccd41ad312451b948a7413f0a142fd40d49347",
                    "txbytes" : "0x02f88201808007830f4240940000000000000000000000000000000000000100809f0000000000000000000000000000000000000000000000000000000000000cc001a075a9f59d04a7f3bcc0520371f9d4a9a2745c5b524c34031514519653cb8ddf5ea071471def8d848dcde316cd7a2da2021cd3948706cfa7802ab265f530db890445"
                }
            ]
        },
        "pre" : {
            "0x0000000000000000000000000000000000000100" : {
                "balance" : "0x010000000000",
                "code" : "0x366000602037602060003660206000720f3df6d732807ef1319fb7b8bb8522d0beac02620186a0f16000556000516001553d6002553d600060003e600051600355",
                "nonce" : "0x00",
                "storage" : {
                }
            },
            "0x000f3df6d732807ef1319fb7b8bb8522d0beac02" : {
                "balance" : "0x00",
                "code" : "0x3373fffffffffffffffffffffffffffffffffffffffe14604d57602036146024575f5ffd5b5f35801560495762001fff810690815414603c575f5ffd5b62001fff01545f5260205ff35b5f5ffd5b62001fff42064281555f359062001fff015500",
                "nonce" : "0x01",
                "storage" : {
                    "0x0c" : "0x0c",
                    "0x200b" : "0x6c31fc15422ebad28aaf9089c306702f67540b53c7eea8b7d2941044b027100f"
                }
            },
            "0xa94f5374fce5edbc8e2a8697c15331677e6ebf0b" : {
                "balance" : "0x010000000000",
                "code" : "0x",
                "nonce" : "0x00",
                "storage" : {
                }
            }
        },
        "transaction" : {
            "accessLists" : [
                [
                ]
            ],
            "data" : [
                "0x0000000000000000000000000000000000000000000000000000000000000c"
            ],
            "gasLimit" : [
                "0x0f4240"
            ],
            "maxFeePerGas" : "0x7",
            "maxPriorityFeePerGas" : "0x0",
            "nonce" : "0x00",
            "secretKey" : "0x45a915e4d060149eb4365960e6a7a45f334393093061116b197e3240065ff2d8",
            "sender" : "0xa94f5374fce5edbc8e2a8697c15331677e6ebf0b",
            "to" : "0x0000000000000000000000000000000000000100",
            "value" : [
                "0x00"
            ]
        }
    },
    "src/GeneralStateTestsFiller/Pyspecs/cancun/eip4788_beacon_root/test_beacon_root_contract.py::test_calldata_lengths[fork_Cancun-state_test-timestamp_12-valid_call_False-valid_input_False-33_bytes]" : {
        "_info" : {
            "comment" : "`execution-spec-tests` generated test",
            "filling-rpc-server" : "evm version 1.13.11-unstable-765f2904-20240124",
            "filling-tool-version" : "retesteth-0.3.2-cancun+commit.a226b11f.Linux.g++",
            "filling-transition-tool" : "evm version 1.13.11-unstable-765f2904-20240124",
            "generatedTestHash" : "ae943ac3da7c895b62eddb568450fe6f1ad96ef1e8f91552df9481817172726a",
            "lllcversion" : "Version: 0.5.14-develop.2023.7.11+commit.c58ab2c6.mod.Linux.g++",
            "solidity" : "Version: 0.8.21+commit.d9974bed.Linux.g++",
            "source" : "src/GeneralStateTestsFiller/Pyspecs/cancun/eip4788_beacon_root/test_beacon_root_contract.py",
            "sourceHash" : "459aa11bc33b4205dd52998a67c4d4440c527f79643139322d386c7ac691a2d2"
        },
        "env" : {
            "currentBaseFee" : "0x07",
            "currentCoinbase" : "0x2adc25665018aa1fe0e6bc666dac8fc2697ff9ba",
            "currentDifficulty" : "0x00",
            "currentExcessBlobGas" : "0x00",
            "currentGasLimit" : "0x016345785d8a0000",
            "currentNumber" : "0x01",
            "currentRandom" : "0x0000000000000000000000000000000000000000000000000000000000000000",
            "currentTimestamp" : "0x0c"
        },
        "post" : {
            "Cancun" : [
                {
                    "hash" : "0x753a08efae673af4d9398ac7cee1b12ba4dc28e5b63d71847a758f2dbf12bc6f",
                    "indexes" : {
                        "data" : 0,
                        "gas" : 0,
                        "value" : 0
                    },
                    "logs" : "0x1dcc4de8dec75d7aab85b567b6ccd41ad312451b948a7413f0a142fd40d49347",
                    "txbytes" : "0x02f88401808007830f424094000000000000000000000000000000000000010080a100000000000000000000000000000000000000000000000000000000000000000cc080a029860959d4cd95b2542be9db2f7e6c75556734a2e8a0fe56bf9f826e1bdb8785a040af7450645a436f69ea25a232a02eab42d706c213e579fd345e96a7dfc9d6e1"
                }
            ]
        },
        "pre" : {
            "0x0000000000000000000000000000000000000100" : {
                "balance" : "0x010000000000",
                "code" : "0x366000602037602060003660206000720f3df6d732807ef1319fb7b8bb8522d0beac02620186a0f16000556000516001553d6002553d600060003e600051600355",
                "nonce" : "0x00",
                "storage" : {
                }
            },
            "0x000f3df6d732807ef1319fb7b8bb8522d0beac02" : {
                "balance" : "0x00",
                "code" : "0x3373fffffffffffffffffffffffffffffffffffffffe14604d57602036146024575f5ffd5b5f35801560495762001fff810690815414603c575f5ffd5b62001fff01545f5260205ff35b5f5ffd5b62001fff42064281555f359062001fff015500",
                "nonce" : "0x01",
                "storage" : {
                    "0x0c" : "0x0c",
                    "0x200b" : "0x6c31fc15422ebad28aaf9089c306702f67540b53c7eea8b7d2941044b027100f"
                }
            },
            "0xa94f5374fce5edbc8e2a8697c15331677e6ebf0b" : {
                "balance" : "0x010000000000",
                "code" : "0x",
                "nonce" : "0x00",
                "storage" : {
                }
            }
        },
        "transaction" : {
            "accessLists" : [
                [
                ]
            ],
            "data" : [
                "0x00000000000000000000000000000000000000000000000000000000000000000c"
            ],
            "gasLimit" : [
                "0x0f4240"
            ],
            "maxFeePerGas" : "0x7",
            "maxPriorityFeePerGas" : "0x0",
            "nonce" : "0x00",
            "secretKey" : "0x45a915e4d060149eb4365960e6a7a45f334393093061116b197e3240065ff2d8",
            "sender" : "0xa94f5374fce5edbc8e2a8697c15331677e6ebf0b",
            "to" : "0x0000000000000000000000000000000000000100",
            "value" : [
                "0x00"
            ]
        }
    },
    "src/GeneralStateTestsFiller/Pyspecs/cancun/eip4788_beacon_root/test_beacon_root_contract.py::test_calldata_lengths[fork_Cancun-state_test-timestamp_12-valid_call_False-valid_input_False-empty_calldata]" : {
        "_info" : {
            "comment" : "`execution-spec-tests` generated test",
            "filling-rpc-server" : "evm version 1.13.11-unstable-765f2904-20240124",
            "filling-tool-version" : "retesteth-0.3.2-cancun+commit.a226b11f.Linux.g++",
            "filling-transition-tool" : "evm version 1.13.11-unstable-765f2904-20240124",
            "generatedTestHash" : "fe0fbbf340c5643a80f8d5e44ff969e98c95005d7d7db5f457c59534edd3a7d8",
            "lllcversion" : "Version: 0.5.14-develop.2023.7.11+commit.c58ab2c6.mod.Linux.g++",
            "solidity" : "Version: 0.8.21+commit.d9974bed.Linux.g++",
            "source" : "src/GeneralStateTestsFiller/Pyspecs/cancun/eip4788_beacon_root/test_beacon_root_contract.py",
            "sourceHash" : "459aa11bc33b4205dd52998a67c4d4440c527f79643139322d386c7ac691a2d2"
        },
        "env" : {
            "currentBaseFee" : "0x07",
            "currentCoinbase" : "0x2adc25665018aa1fe0e6bc666dac8fc2697ff9ba",
            "currentDifficulty" : "0x00",
            "currentExcessBlobGas" : "0x00",
            "currentGasLimit" : "0x016345785d8a0000",
            "currentNumber" : "0x01",
            "currentRandom" : "0x0000000000000000000000000000000000000000000000000000000000000000",
            "currentTimestamp" : "0x0c"
        },
        "post" : {
            "Cancun" : [
                {
                    "hash" : "0x46f12ce81c3a4a083ce5330473ecca2f37faf6cc3891316eae1e9f476eb191c4",
                    "indexes" : {
                        "data" : 0,
                        "gas" : 0,
                        "value" : 0
                    },
                    "logs" : "0x1dcc4de8dec75d7aab85b567b6ccd41ad312451b948a7413f0a142fd40d49347",
                    "txbytes" : "0x02f86301808007830f42409400000000000000000000000000000000000001008080c080a01a94485b340386550a1eef3e191b544c82f27fa5ba502ebf516f5ac72441be47a01d14cf4a8d5be4584cb5a8f2ca7f3cad5ca89f52409b51715828090ea1164288"
                }
            ]
        },
        "pre" : {
            "0x0000000000000000000000000000000000000100" : {
                "balance" : "0x010000000000",
                "code" : "0x366000602037602060003660206000720f3df6d732807ef1319fb7b8bb8522d0beac02620186a0f16000556000516001553d6002553d600060003e600051600355",
                "nonce" : "0x00",
                "storage" : {
                }
            },
            "0x000f3df6d732807ef1319fb7b8bb8522d0beac02" : {
                "balance" : "0x00",
                "code" : "0x3373fffffffffffffffffffffffffffffffffffffffe14604d57602036146024575f5ffd5b5f35801560495762001fff810690815414603c575f5ffd5b62001fff01545f5260205ff35b5f5ffd5b62001fff42064281555f359062001fff015500",
                "nonce" : "0x01",
                "storage" : {
                    "0x0c" : "0x0c",
                    "0x200b" : "0x6c31fc15422ebad28aaf9089c306702f67540b53c7eea8b7d2941044b027100f"
                }
            },
            "0xa94f5374fce5edbc8e2a8697c15331677e6ebf0b" : {
                "balance" : "0x010000000000",
                "code" : "0x",
                "nonce" : "0x00",
                "storage" : {
                }
            }
        },
        "transaction" : {
            "accessLists" : [
                [
                ]
            ],
            "data" : [
                "0x"
            ],
            "gasLimit" : [
                "0x0f4240"
            ],
            "maxFeePerGas" : "0x7",
            "maxPriorityFeePerGas" : "0x0",
            "nonce" : "0x00",
            "secretKey" : "0x45a915e4d060149eb4365960e6a7a45f334393093061116b197e3240065ff2d8",
            "sender" : "0xa94f5374fce5edbc8e2a8697c15331677e6ebf0b",
            "to" : "0x0000000000000000000000000000000000000100",
            "value" : [
                "0x00"
            ]
        }
    },
    "src/GeneralStateTestsFiller/Pyspecs/cancun/eip4788_beacon_root/test_beacon_root_contract.py::test_calldata_lengths[fork_Cancun-state_test-timestamp_12-valid_call_False-valid_input_False-one_byte]" : {
        "_info" : {
            "comment" : "`execution-spec-tests` generated test",
            "filling-rpc-server" : "evm version 1.13.11-unstable-765f2904-20240124",
            "filling-tool-version" : "retesteth-0.3.2-cancun+commit.a226b11f.Linux.g++",
            "filling-transition-tool" : "evm version 1.13.11-unstable-765f2904-20240124",
            "generatedTestHash" : "64cf21c7b20f41a5f813f8b62e2b85c744c616ed5b995785b90285ceb678e979",
            "lllcversion" : "Version: 0.5.14-develop.2023.7.11+commit.c58ab2c6.mod.Linux.g++",
            "solidity" : "Version: 0.8.21+commit.d9974bed.Linux.g++",
            "source" : "src/GeneralStateTestsFiller/Pyspecs/cancun/eip4788_beacon_root/test_beacon_root_contract.py",
            "sourceHash" : "459aa11bc33b4205dd52998a67c4d4440c527f79643139322d386c7ac691a2d2"
        },
        "env" : {
            "currentBaseFee" : "0x07",
            "currentCoinbase" : "0x2adc25665018aa1fe0e6bc666dac8fc2697ff9ba",
            "currentDifficulty" : "0x00",
            "currentExcessBlobGas" : "0x00",
            "currentGasLimit" : "0x016345785d8a0000",
            "currentNumber" : "0x01",
            "currentRandom" : "0x0000000000000000000000000000000000000000000000000000000000000000",
            "currentTimestamp" : "0x0c"
        },
        "post" : {
            "Cancun" : [
                {
                    "hash" : "0xad1feef16ba696047322c97122aec6afcef480788be7d9790b936f1d618a5315",
                    "indexes" : {
                        "data" : 0,
                        "gas" : 0,
                        "value" : 0
                    },
                    "logs" : "0x1dcc4de8dec75d7aab85b567b6ccd41ad312451b948a7413f0a142fd40d49347",
                    "txbytes" : "0x02f86301808007830f4240940000000000000000000000000000000000000100800cc080a0516a8ca98ece1985958eb7d96cdb2b507ce9fb1340031cf5c0d54b35ae8ad93ba059a5aa84e3996ef4cbbcf0ef613c198d9667dbfcdb9b36d28504e1ce8e264ca4"
                }
            ]
        },
        "pre" : {
            "0x0000000000000000000000000000000000000100" : {
                "balance" : "0x010000000000",
                "code" : "0x366000602037602060003660206000720f3df6d732807ef1319fb7b8bb8522d0beac02620186a0f16000556000516001553d6002553d600060003e600051600355",
                "nonce" : "0x00",
                "storage" : {
                }
            },
            "0x000f3df6d732807ef1319fb7b8bb8522d0beac02" : {
                "balance" : "0x00",
                "code" : "0x3373fffffffffffffffffffffffffffffffffffffffe14604d57602036146024575f5ffd5b5f35801560495762001fff810690815414603c575f5ffd5b62001fff01545f5260205ff35b5f5ffd5b62001fff42064281555f359062001fff015500",
                "nonce" : "0x01",
                "storage" : {
                    "0x0c" : "0x0c",
                    "0x200b" : "0x6c31fc15422ebad28aaf9089c306702f67540b53c7eea8b7d2941044b027100f"
                }
            },
            "0xa94f5374fce5edbc8e2a8697c15331677e6ebf0b" : {
                "balance" : "0x010000000000",
                "code" : "0x",
                "nonce" : "0x00",
                "storage" : {
                }
            }
        },
        "transaction" : {
            "accessLists" : [
                [
                ]
            ],
            "data" : [
                "0x0c"
            ],
            "gasLimit" : [
                "0x0f4240"
            ],
            "maxFeePerGas" : "0x7",
            "maxPriorityFeePerGas" : "0x0",
            "nonce" : "0x00",
            "secretKey" : "0x45a915e4d060149eb4365960e6a7a45f334393093061116b197e3240065ff2d8",
            "sender" : "0xa94f5374fce5edbc8e2a8697c15331677e6ebf0b",
            "to" : "0x0000000000000000000000000000000000000100",
            "value" : [
                "0x00"
            ]
        }
    }
}