{
    "MCOPY_memory_expansion_cost" : {
        "_info" : {
            "comment" : "Test cases for the memory expansion cost in the MCOPY instruction",
            "filling-rpc-server" : "evmone-t8n 0.11.0-dev+commit.2a788824.dirty",
            "filling-tool-version" : "retesteth-0.3.1-shanghai+commit.9de66016.Linux.g++",
            "generatedTestHash" : "8ca30099624ec311e30f389e4be69da652cb5ca7098bc8f768b35583473addcc",
            "labels" : {
                "0" : "dst0_src0_size0",
                "1" : "dst0_src31_size706",
                "10" : "dst1_src33_size1344",
                "11" : "dst33_src1_size1344",
                "12" : "dst33_src33_size1344",
                "13" : "dst64_src64_size1344",
                "14" : "huge_size0",
                "15" : "huge_src0_size1",
                "16" : "huge_dst0_size1",
                "17" : "huge_size_n255",
                "18" : "huge_dst0_size_n256",
                "19" : "huge_src0_size_n256",
                "2" : "dst31_src0_size706",
                "20" : "huge_size_n63",
                "21" : "huge_size_n64",
                "3" : "dst62_src31_size706",
                "4" : "dst31_src62_size706",
                "5" : "dst62_src62_size706",
                "6" : "dst64_src0_size1344",
                "7" : "dst0_src64_size1344",
                "8" : "dst64_src33_size1344",
                "9" : "dst33_src64_size1344"
            },
            "lllcversion" : "Version: 0.5.14-develop.2022.6.30+commit.401d5358.mod.Linux.g++",
            "solidity" : "Version: 0.8.18-develop.2022.12.14+commit.a9fe05e8.Linux.g++",
            "source" : "src/EIPTestsFiller/StateTests/stEIP5656-MCOPY/MCOPY_memory_expansion_costFiller.yml",
            "sourceHash" : "5a19150d450b2b0e3f413e5f97d412c7dd7b2276fe52131a371c764cc11d369a"
        },
        "env" : {
            "currentBaseFee" : "0x0a",
            "currentCoinbase" : "0x2adc25665018aa1fe0e6bc666dac8fc2697ff9ba",
            "currentDifficulty" : "0x020000",
            "currentGasLimit" : "0x0f4240",
            "currentNumber" : "0x01",
            "currentRandom" : "0x0000000000000000000000000000000000000000000000000000000000020000",
            "currentTimestamp" : "0x64903c57",
            "previousHash" : "0x5e20a0453cecd065ea59c37ac63e079ee08998b6045136a8ce6635c7912ec0b6"
        },
        "post" : {
            "Cancun" : [
                {
                    "hash" : "0xf8b2da7386d617ba936bf7e4f6eca9acbdaef34dd5a85b3b752642b4ad2fee95",
                    "indexes" : {
                        "data" : 0,
                        "gas" : 0,
                        "value" : 0
                    },
                    "logs" : "0x1dcc4de8dec75d7aab85b567b6ccd41ad312451b948a7413f0a142fd40d49347",
                    "txbytes" : "0xf8c1800a830186a094000000000000000000000000000000000000c0de80b8600000000000000000000000000000000000000000000000000000000000000000000000000000000000000000000000000000000000000000000000000000000000000000000000000000000000000000000000000000000000000000000000001ca01f8b6fefaca245c6fa12de1bbc7b03907ff11cddaef6bc091d8f1d8b87c1892da01d222971eea7dae6bda1059cb3248f56f1aa27ae10506665186416b75c7317f6"
                },
                {
                    "hash" : "0xe776f1fe447cc329f0d1fc7041307ad946193a6323f46638384d1e5fcf1c4cd4",
                    "indexes" : {
                        "data" : 14,
                        "gas" : 0,
                        "value" : 0
                    },
                    "logs" : "0x1dcc4de8dec75d7aab85b567b6ccd41ad312451b948a7413f0a142fd40d49347",
                    "txbytes" : "0xf8c1800a830186a094000000000000000000000000000000000000c0de80b860ffffffffffffffffffffffffffffffffffffffffffffffffffffffffffffffffffffffffffffffffffffffffffffffffffffffffffffffffffffffffffffffff00000000000000000000000000000000000000000000000000000000000000001ca00865ee5dc1fe9accfdd336435cba600968ade33941b7ef4ebb0ae9ab873bd347a03c33ec0d7b0d61ddde11db082afbf64cacb96c21afdf6d91bfaebe02658b9ae3"
                },
                {
                    "hash" : "0x53c61977a58cb142baa7d4fc528070300c1f22a380e9b07d9a9a47ce510d0435",
                    "indexes" : {
                        "data" : 1,
                        "gas" : 0,
                        "value" : 0
                    },
                    "logs" : "0x1dcc4de8dec75d7aab85b567b6ccd41ad312451b948a7413f0a142fd40d49347",
                    "txbytes" : "0xf8c1800a830186a094000000000000000000000000000000000000c0de80b8600000000000000000000000000000000000000000000000000000000000000000000000000000000000000000000000000000000000000000000000000000001f00000000000000000000000000000000000000000000000000000000000002c21ba0fb02107b132712a4a475db8753c4fc3bac25e4b642e71b61577f08030e14207fa02f0a974edf186c45ec4587666c6828fd1b3738efcdcdf5c331538c459eac2a48"
                },
                {
                    "hash" : "0x53c61977a58cb142baa7d4fc528070300c1f22a380e9b07d9a9a47ce510d0435",
                    "indexes" : {
                        "data" : 2,
                        "gas" : 0,
                        "value" : 0
                    },
                    "logs" : "0x1dcc4de8dec75d7aab85b567b6ccd41ad312451b948a7413f0a142fd40d49347",
                    "txbytes" : "0xf8c1800a830186a094000000000000000000000000000000000000c0de80b860000000000000000000000000000000000000000000000000000000000000001f000000000000000000000000000000000000000000000000000000000000000000000000000000000000000000000000000000000000000000000000000002c21ca05b7621a019e1b696ab38e924e7bea49c8f93f14d98e9767d3b20c7e6cf7ce170a06aeba1000894d245f20b64bc5ebdc0fbece1bdac3ee07f47b5219e1a7fd590fc"
                },
                {
                    "hash" : "0x89c9bc82a48a085bf18c13aa9a07448d0c6c043247f1f30f17838e3c1e6e94ea",
                    "indexes" : {
                        "data" : 3,
                        "gas" : 0,
                        "value" : 0
                    },
                    "logs" : "0x1dcc4de8dec75d7aab85b567b6ccd41ad312451b948a7413f0a142fd40d49347",
                    "txbytes" : "0xf8c1800a830186a094000000000000000000000000000000000000c0de80b860000000000000000000000000000000000000000000000000000000000000003e000000000000000000000000000000000000000000000000000000000000001f00000000000000000000000000000000000000000000000000000000000002c21ba0c8b82ac148495d7396ad5de4b412b4ea9610fe71bafc83f6a776e4f277051de4a025edf55194a144b1c4a1b8d1d2f685bf530a17833aa0d6207cce69c3297e1d0b"
                },
                {
                    "hash" : "0x89c9bc82a48a085bf18c13aa9a07448d0c6c043247f1f30f17838e3c1e6e94ea",
                    "indexes" : {
                        "data" : 4,
                        "gas" : 0,
                        "value" : 0
                    },
                    "logs" : "0x1dcc4de8dec75d7aab85b567b6ccd41ad312451b948a7413f0a142fd40d49347",
                    "txbytes" : "0xf8c1800a830186a094000000000000000000000000000000000000c0de80b860000000000000000000000000000000000000000000000000000000000000001f000000000000000000000000000000000000000000000000000000000000003e00000000000000000000000000000000000000000000000000000000000002c21ba029e8a05338ce18b71d9233612eafa177f0db39c4614221d91fd853e231955890a0189edad7f363ac5e01388b438c076dbd59524ee0d683e1bc2638c908ebef08d9"
                },
                {
                    "hash" : "0x89c9bc82a48a085bf18c13aa9a07448d0c6c043247f1f30f17838e3c1e6e94ea",
                    "indexes" : {
                        "data" : 5,
                        "gas" : 0,
                        "value" : 0
                    },
                    "logs" : "0x1dcc4de8dec75d7aab85b567b6ccd41ad312451b948a7413f0a142fd40d49347",
                    "txbytes" : "0xf8c1800a830186a094000000000000000000000000000000000000c0de80b860000000000000000000000000000000000000000000000000000000000000003e000000000000000000000000000000000000000000000000000000000000003e00000000000000000000000000000000000000000000000000000000000002c21ca05a5514e51b0171eb90f6de023ab12fddc9af68abff86b1c46a257e62b2dd9889a013b070995370519af65ec851a67a92a4ee58cc5005d33ae7fd6ad503f121e4f3"
                },
                {
                    "hash" : "0xc4c171b45c02ddf5f98c923b08db807992ce2d4af722a5bf931dae21057ea0c0",
                    "indexes" : {
                        "data" : 6,
                        "gas" : 0,
                        "value" : 0
                    },
                    "logs" : "0x1dcc4de8dec75d7aab85b567b6ccd41ad312451b948a7413f0a142fd40d49347",
                    "txbytes" : "0xf8c1800a830186a094000000000000000000000000000000000000c0de80b8600000000000000000000000000000000000000000000000000000000000000040000000000000000000000000000000000000000000000000000000000000000000000000000000000000000000000000000000000000000000000000000005401ca0b7fd70d9d12c06aededd3cb326de556046b16f0c2c89dece2301790479745f48a04e80c02a079b540faa52e4230411f59d4e09730d748ea212ae7a563e21dbbe1a"
                },
                {
                    "hash" : "0xc4c171b45c02ddf5f98c923b08db807992ce2d4af722a5bf931dae21057ea0c0",
                    "indexes" : {
                        "data" : 7,
                        "gas" : 0,
                        "value" : 0
                    },
                    "logs" : "0x1dcc4de8dec75d7aab85b567b6ccd41ad312451b948a7413f0a142fd40d49347",
                    "txbytes" : "0xf8c1800a830186a094000000000000000000000000000000000000c0de80b8600000000000000000000000000000000000000000000000000000000000000000000000000000000000000000000000000000000000000000000000000000004000000000000000000000000000000000000000000000000000000000000005401ba0e037080dcef8c348878bd74905af5bb5438c0c2ff0b0787a245f4766be41e68ba0596fa029e299106aa075184a085e67e2006893e955817369ae7631df1a914260"
                },
                {
                    "hash" : "0xcd618b93fedabb8f87801f7f92a5f90375c28d726e2a84e011d6da114e1ece20",
                    "indexes" : {
                        "data" : 8,
                        "gas" : 0,
                        "value" : 0
                    },
                    "logs" : "0x1dcc4de8dec75d7aab85b567b6ccd41ad312451b948a7413f0a142fd40d49347",
                    "txbytes" : "0xf8c1800a830186a094000000000000000000000000000000000000c0de80b8600000000000000000000000000000000000000000000000000000000000000040000000000000000000000000000000000000000000000000000000000000002100000000000000000000000000000000000000000000000000000000000005401ca01908f3121db9e1cdc51a20a63101a468671ae566dafa76558b390f007b1f50ada01b3d32b58e6d1e935d9cb5937f10955b4d58100cbfe5af22b5609f0c58f2dda3"
                },
                {
                    "hash" : "0xcd618b93fedabb8f87801f7f92a5f90375c28d726e2a84e011d6da114e1ece20",
                    "indexes" : {
                        "data" : 9,
                        "gas" : 0,
                        "value" : 0
                    },
                    "logs" : "0x1dcc4de8dec75d7aab85b567b6ccd41ad312451b948a7413f0a142fd40d49347",
                    "txbytes" : "0xf8c1800a830186a094000000000000000000000000000000000000c0de80b8600000000000000000000000000000000000000000000000000000000000000021000000000000000000000000000000000000000000000000000000000000004000000000000000000000000000000000000000000000000000000000000005401ba0ffabfeb8c694d43a7ca01e51e4aad6219704fc79864f7a871d668844c11c86a1a055a4d23208f5b44fb700404f987b005a7c3f6f2759f0a52a6494b42ff6fa9359"
                },
                {
                    "hash" : "0xcd618b93fedabb8f87801f7f92a5f90375c28d726e2a84e011d6da114e1ece20",
                    "indexes" : {
                        "data" : 10,
                        "gas" : 0,
                        "value" : 0
                    },
                    "logs" : "0x1dcc4de8dec75d7aab85b567b6ccd41ad312451b948a7413f0a142fd40d49347",
                    "txbytes" : "0xf8c1800a830186a094000000000000000000000000000000000000c0de80b8600000000000000000000000000000000000000000000000000000000000000001000000000000000000000000000000000000000000000000000000000000002100000000000000000000000000000000000000000000000000000000000005401ca094764ec44693cd69ea87fdb40fe45148b65617365f2e405e12a502f39c2c1274a0613bbbd1d3a0cab60252d1d5d5492d9444e66405e7b0fa27d43861f23046f4fa"
                },
                {
                    "hash" : "0xcd618b93fedabb8f87801f7f92a5f90375c28d726e2a84e011d6da114e1ece20",
                    "indexes" : {
                        "data" : 11,
                        "gas" : 0,
                        "value" : 0
                    },
                    "logs" : "0x1dcc4de8dec75d7aab85b567b6ccd41ad312451b948a7413f0a142fd40d49347",
                    "txbytes" : "0xf8c1800a830186a094000000000000000000000000000000000000c0de80b8600000000000000000000000000000000000000000000000000000000000000021000000000000000000000000000000000000000000000000000000000000000100000000000000000000000000000000000000000000000000000000000005401ca063bf69d673d0bf30af2df82013993056dce7d6ded22382e1e4d3f73135926c09a00ac57394c58b176fa7387c98cc3576a3877f1da6ec74ff8acd3583772f5f3620"
                },
                {
                    "hash" : "0xcd618b93fedabb8f87801f7f92a5f90375c28d726e2a84e011d6da114e1ece20",
                    "indexes" : {
                        "data" : 12,
                        "gas" : 0,
                        "value" : 0
                    },
                    "logs" : "0x1dcc4de8dec75d7aab85b567b6ccd41ad312451b948a7413f0a142fd40d49347",
                    "txbytes" : "0xf8c1800a830186a094000000000000000000000000000000000000c0de80b8600000000000000000000000000000000000000000000000000000000000000021000000000000000000000000000000000000000000000000000000000000002100000000000000000000000000000000000000000000000000000000000005401ba0e8fe35f0c5cd7ee18c04c5fef12015718e14780be0e7c973f2965eb6c62f9970a0371f1b9931597848b617142d1d55d39b3103a598305a31381a746817673ea423"
                },
                {
                    "hash" : "0xcd618b93fedabb8f87801f7f92a5f90375c28d726e2a84e011d6da114e1ece20",
                    "indexes" : {
                        "data" : 13,
                        "gas" : 0,
                        "value" : 0
                    },
                    "logs" : "0x1dcc4de8dec75d7aab85b567b6ccd41ad312451b948a7413f0a142fd40d49347",
                    "txbytes" : "0xf8c1800a830186a094000000000000000000000000000000000000c0de80b8600000000000000000000000000000000000000000000000000000000000000040000000000000000000000000000000000000000000000000000000000000004000000000000000000000000000000000000000000000000000000000000005401ca0c8826d0b860b23adf2510e8f07b52193c9e2f502e6cc2bea57512ddeaa9326e1a074c4e06d03d0903748aeddabe746a1928fe154b2ad18e07ba3cef9b873617399"
                },
                {
                    "hash" : "0xb5925f2ae02e0147ea56f02232cde97a0af927ab76a7e3804f32b165b97ed152",
                    "indexes" : {
                        "data" : 15,
                        "gas" : 0,
                        "value" : 0
                    },
                    "logs" : "0x1dcc4de8dec75d7aab85b567b6ccd41ad312451b948a7413f0a142fd40d49347",
                    "txbytes" : "0xf8c1800a830186a094000000000000000000000000000000000000c0de80b860ffffffffffffffffffffffffffffffffffffffffffffffffffffffffffffffff000000000000000000000000000000000000000000000000000000000000000000000000000000000000000000000000000000000000000000000000000000011ba0c650714d0f1aee7ca7999d56cd39a11301692f384cbd358dd761d07c50b27cffa00f3df7faba3bb3f5bfa1a58589ed2a5e5814f37a508cf805f4a774216bc19f0d"
                },
                {
                    "hash" : "0xb5925f2ae02e0147ea56f02232cde97a0af927ab76a7e3804f32b165b97ed152",
                    "indexes" : {
                        "data" : 16,
                        "gas" : 0,
                        "value" : 0
                    },
                    "logs" : "0x1dcc4de8dec75d7aab85b567b6ccd41ad312451b948a7413f0a142fd40d49347",
                    "txbytes" : "0xf8c1800a830186a094000000000000000000000000000000000000c0de80b8600000000000000000000000000000000000000000000000000000000000000000ffffffffffffffffffffffffffffffffffffffffffffffffffffffffffffffff00000000000000000000000000000000000000000000000000000000000000011ba00a3a2a2d28764652a1dac29fdb68643816966ccf90bd39ffc96802f37ed43f3fa073e8de1122a86423838b204b7cbeaa6b70349c4c02c94399cb5dbac4d861b0c9"
                },
                {
                    "hash" : "0xb5925f2ae02e0147ea56f02232cde97a0af927ab76a7e3804f32b165b97ed152",
                    "indexes" : {
                        "data" : 17,
                        "gas" : 0,
                        "value" : 0
                    },
                    "logs" : "0x1dcc4de8dec75d7aab85b567b6ccd41ad312451b948a7413f0a142fd40d49347",
                    "txbytes" : "0xf8c1800a830186a094000000000000000000000000000000000000c0de80b8600000000000000000000000000000000000000000000000000000000000000000000000000000000000000000000000000000000000000000000000000000000080000000000000000000000000000000000000000000000000000000000000001ca098964e642b6cd8e41c1d30475cd66c0cec7903a9916a4e8323225c871fb82815a05218bc648730491de70d91b6b7d7aeb63cdb83c7a537b0f4e8e0dca4f12eb99e"
                },
                {
                    "hash" : "0xb5925f2ae02e0147ea56f02232cde97a0af927ab76a7e3804f32b165b97ed152",
                    "indexes" : {
                        "data" : 18,
                        "gas" : 0,
                        "value" : 0
                    },
                    "logs" : "0x1dcc4de8dec75d7aab85b567b6ccd41ad312451b948a7413f0a142fd40d49347",
                    "txbytes" : "0xf8c1800a830186a094000000000000000000000000000000000000c0de80b86000000000000000000000000000000000000000000000000000000000000000000000000000000000000000000000000000000000000000000000000000000001ffffffffffffffffffffffffffffffffffffffffffffffffffffffffffffffff1ca0a7ad2ad515d6b3b1e3bc601800745c0c165b3b8dc514d3baedd059aa30557529a06c37502649c0484719f9974377358057341955956c050d872334885614227325"
                },
                {
                    "hash" : "0xb5925f2ae02e0147ea56f02232cde97a0af927ab76a7e3804f32b165b97ed152",
                    "indexes" : {
                        "data" : 19,
                        "gas" : 0,
                        "value" : 0
                    },
                    "logs" : "0x1dcc4de8dec75d7aab85b567b6ccd41ad312451b948a7413f0a142fd40d49347",
                    "txbytes" : "0xf8c1800a830186a094000000000000000000000000000000000000c0de80b86000000000000000000000000000000000000000000000000000000000000000010000000000000000000000000000000000000000000000000000000000000000ffffffffffffffffffffffffffffffffffffffffffffffffffffffffffffffff1ca0723a6333e7b448b1f1731d3d5382df5ae26302f083a8cef4bc88cda3a5cfa902a02a7fbb703ea37827843afabb051409cb2f0ff1173e6edafa0ada4bda770f25a0"
                },
                {
                    "hash" : "0xb5925f2ae02e0147ea56f02232cde97a0af927ab76a7e3804f32b165b97ed152",
                    "indexes" : {
                        "data" : 20,
                        "gas" : 0,
                        "value" : 0
                    },
                    "logs" : "0x1dcc4de8dec75d7aab85b567b6ccd41ad312451b948a7413f0a142fd40d49347",
                    "txbytes" : "0xf8c1800a830186a094000000000000000000000000000000000000c0de80b8600000000000000000000000000000000000000000000000000000000000000000000000000000000000000000000000000000000000000000000000000000000000000000000000000000000000000000000000000000000080000000000000001ba0706020f919c2cd8c79f269075f2ff94cc26225628bae52a864c7367453957975a0112e99f3a9146cac6d4862ca666ea2e6a6f7f9d38215213b56577b7fa9133a5c"
                },
                {
                    "hash" : "0xb5925f2ae02e0147ea56f02232cde97a0af927ab76a7e3804f32b165b97ed152",
                    "indexes" : {
                        "data" : 21,
                        "gas" : 0,
                        "value" : 0
                    },
                    "logs" : "0x1dcc4de8dec75d7aab85b567b6ccd41ad312451b948a7413f0a142fd40d49347",
                    "txbytes" : "0xf8c1800a830186a094000000000000000000000000000000000000c0de80b86000000000000000000000000000000000000000000000000000000000000000010000000000000000000000000000000000000000000000000000000000000001000000000000000000000000000000000000000000000000ffffffffffffffff1ba037e3315cf79f8422c5072c246276105d2080dd79c5a7458a48afc1d721eb60f6a03514a5bf08942aea1989c84040ac6db4eeaeee3163f3d6c4fef8afa2b84060d7"
                }
            ]
        },
        "pre" : {
            "0x000000000000000000000000000000000000c0de" : {
                "balance" : "0x00",
                "code" : "0x600c565b8282825e505050565b600160005560206040356020356000356003565b59600055",
                "nonce" : "0x01",
                "storage" : {
                    "0x00" : "0xfa11ed"
                }
            },
            "0xa94f5374fce5edbc8e2a8697c15331677e6ebf0b" : {
                "balance" : "0x3b9aca00",
                "code" : "0x",
                "nonce" : "0x00",
                "storage" : {
                }
            }
        },
        "transaction" : {
            "data" : [
                "0x000000000000000000000000000000000000000000000000000000000000000000000000000000000000000000000000000000000000000000000000000000000000000000000000000000000000000000000000000000000000000000000000",
                "0x0000000000000000000000000000000000000000000000000000000000000000000000000000000000000000000000000000000000000000000000000000001f00000000000000000000000000000000000000000000000000000000000002c2",
                "0x000000000000000000000000000000000000000000000000000000000000001f000000000000000000000000000000000000000000000000000000000000000000000000000000000000000000000000000000000000000000000000000002c2",
                "0x000000000000000000000000000000000000000000000000000000000000003e000000000000000000000000000000000000000000000000000000000000001f00000000000000000000000000000000000000000000000000000000000002c2",
                "0x000000000000000000000000000000000000000000000000000000000000001f000000000000000000000000000000000000000000000000000000000000003e00000000000000000000000000000000000000000000000000000000000002c2",
                "0x000000000000000000000000000000000000000000000000000000000000003e000000000000000000000000000000000000000000000000000000000000003e00000000000000000000000000000000000000000000000000000000000002c2",
                "0x000000000000000000000000000000000000000000000000000000000000004000000000000000000000000000000000000000000000000000000000000000000000000000000000000000000000000000000000000000000000000000000540",
                "0x000000000000000000000000000000000000000000000000000000000000000000000000000000000000000000000000000000000000000000000000000000400000000000000000000000000000000000000000000000000000000000000540",
                "0x000000000000000000000000000000000000000000000000000000000000004000000000000000000000000000000000000000000000000000000000000000210000000000000000000000000000000000000000000000000000000000000540",
                "0x000000000000000000000000000000000000000000000000000000000000002100000000000000000000000000000000000000000000000000000000000000400000000000000000000000000000000000000000000000000000000000000540",
                "0x000000000000000000000000000000000000000000000000000000000000000100000000000000000000000000000000000000000000000000000000000000210000000000000000000000000000000000000000000000000000000000000540",
                "0x000000000000000000000000000000000000000000000000000000000000002100000000000000000000000000000000000000000000000000000000000000010000000000000000000000000000000000000000000000000000000000000540",
                "0x000000000000000000000000000000000000000000000000000000000000002100000000000000000000000000000000000000000000000000000000000000210000000000000000000000000000000000000000000000000000000000000540",
                "0x000000000000000000000000000000000000000000000000000000000000004000000000000000000000000000000000000000000000000000000000000000400000000000000000000000000000000000000000000000000000000000000540",
                "0xffffffffffffffffffffffffffffffffffffffffffffffffffffffffffffffffffffffffffffffffffffffffffffffffffffffffffffffffffffffffffffffff0000000000000000000000000000000000000000000000000000000000000000",
                "0xffffffffffffffffffffffffffffffffffffffffffffffffffffffffffffffff00000000000000000000000000000000000000000000000000000000000000000000000000000000000000000000000000000000000000000000000000000001",
                "0x0000000000000000000000000000000000000000000000000000000000000000ffffffffffffffffffffffffffffffffffffffffffffffffffffffffffffffff0000000000000000000000000000000000000000000000000000000000000001",
                "0x000000000000000000000000000000000000000000000000000000000000000000000000000000000000000000000000000000000000000000000000000000008000000000000000000000000000000000000000000000000000000000000000",
                "0x00000000000000000000000000000000000000000000000000000000000000000000000000000000000000000000000000000000000000000000000000000001ffffffffffffffffffffffffffffffffffffffffffffffffffffffffffffffff",
                "0x00000000000000000000000000000000000000000000000000000000000000010000000000000000000000000000000000000000000000000000000000000000ffffffffffffffffffffffffffffffffffffffffffffffffffffffffffffffff",
                "0x000000000000000000000000000000000000000000000000000000000000000000000000000000000000000000000000000000000000000000000000000000000000000000000000000000000000000000000000000000008000000000000000",
                "0x00000000000000000000000000000000000000000000000000000000000000010000000000000000000000000000000000000000000000000000000000000001000000000000000000000000000000000000000000000000ffffffffffffffff"
            ],
            "gasLimit" : [
                "0x0186a0"
            ],
            "gasPrice" : "0x0a",
            "nonce" : "0x00",
            "secretKey" : "0x45a915e4d060149eb4365960e6a7a45f334393093061116b197e3240065ff2d8",
            "sender" : "0xa94f5374fce5edbc8e2a8697c15331677e6ebf0b",
            "to" : "0x000000000000000000000000000000000000c0de",
            "value" : [
                "0x00"
            ]
        }
    }
}