{
    "MCOPY_memory_hash" : {
        "_info" : {
            "comment" : "Performs exact the same MCOPY twice and dumps the hash of all memory after each MCOPY",
            "filling-rpc-server" : "evm version 1.12.1-unstable-4c0559f5-20230731",
            "filling-tool-version" : "retesteth-0.3.1-cancun+commit.699a3c5a.Linux.g++",
            "generatedTestHash" : "b2508599b50657e8ac41718ad26ecdf1dc3dd442efb2ffc120e19f1a389830a7",
            "labels" : {
                "0" : "clear_low_half_0",
                "1" : "clear_low_half_1",
                "2" : "clear_low_half_2",
                "3" : "clear_high_half_0",
                "4" : "memmove_forward",
                "5" : "memmove_backward"
            },
            "lllcversion" : "Version: 0.5.14-develop.2023.7.11+commit.c58ab2c6.mod.Linux.g++",
            "solidity" : "Version: 0.8.20+commit.a1b79de6.Linux.g++",
            "source" : "src/EIPTestsFiller/StateTests/stEIP5656-MCOPY/MCOPY_memory_hashFiller.yml",
            "sourceHash" : "ff96b519662054717fbe9a83cafa5badf79be75bd259fd8f4fce89e3347d1685"
        },
        "env" : {
            "currentBaseFee" : "0x0a",
            "currentBeaconRoot" : "0x0000000000000000000000000000000000000000000000000000000000000000",
            "currentCoinbase" : "0x2adc25665018aa1fe0e6bc666dac8fc2697ff9ba",
            "currentDifficulty" : "0x020000",
            "currentGasLimit" : "0x0f4240",
            "currentNumber" : "0x01",
            "currentRandom" : "0x0000000000000000000000000000000000000000000000000000000000020000",
            "currentTimestamp" : "0x64903c57",
            "currentWithdrawalsRoot" : "0x56e81f171bcc55a6ff8345e692c0f86e5b48e01b996cadc001622fb5e363b421",
            "previousHash" : "0x5e20a0453cecd065ea59c37ac63e079ee08998b6045136a8ce6635c7912ec0b6"
        },
        "post" : {
            "Cancun" : [
                {
                    "hash" : "0x19cdf4e497ab5842683d9c20039a3689486c43020be3f20e6ff2b2428f719e2b",
                    "indexes" : {
                        "data" : 0,
                        "gas" : 0,
                        "value" : 0
                    },
                    "logs" : "0x1dcc4de8dec75d7aab85b567b6ccd41ad312451b948a7413f0a142fd40d49347",
                    "txbytes" : "0xf8c1800a830f424094000000000000000000000000000000000000c0de80b8600000000000000000000000000000000000000000000000000000000000001010000000000000000000000000000000000000000000000000000000000000000000000000000000000000000000000000000000000000000000000000000000201ca083ba75f0338a9ccbd394ce90c42e5a15e75312f3db92263f0209bf2242d14768a07063724e267edf8c18c9f8d335c31f02486028a29b9e4fbd22b626915b6e15ab"
                },
                {
                    "hash" : "0x7d7b3296ec6d72174e362b3f1ff985ff0b70a310b910bf2aeb2f40f94a00aeeb",
                    "indexes" : {
                        "data" : 1,
                        "gas" : 0,
                        "value" : 0
                    },
                    "logs" : "0x1dcc4de8dec75d7aab85b567b6ccd41ad312451b948a7413f0a142fd40d49347",
                    "txbytes" : "0xf8c1800a830f424094000000000000000000000000000000000000c0de80b8600000000000000000000000000000000000000000000000000000000000001020000000000000000000000000000000000000000000000000000000000000101000000000000000000000000000000000000000000000000000000000000000101ca092c578aff8e7b6224becd157d0ab852ff8c63e81a37cd5c29cb140daaca0f995a076fad9246b3379dcc655ad17a5a38161c65bd847959ef3cdaa727fb4eeeb733d"
                },
                {
                    "hash" : "0xf5198005323e727d053b0f8e919924e46f1dfd6d30ad31feb412018e408790e8",
                    "indexes" : {
                        "data" : 2,
                        "gas" : 0,
                        "value" : 0
                    },
                    "logs" : "0x1dcc4de8dec75d7aab85b567b6ccd41ad312451b948a7413f0a142fd40d49347",
                    "txbytes" : "0xf8c1800a830f424094000000000000000000000000000000000000c0de80b8600000000000000000000000000000000000000000000000000000000000001020000000000000000000000000000000000000000000000000000000000000104000000000000000000000000000000000000000000000000000000000000000101ba07904658e3257613f14dbd1ab94770944716dbf749c47abeb292ddbc07f48b148a0351949c9583e711bd144d16ad62d83f63284c5cfbb84f5489f916044ad97308d"
                },
                {
                    "hash" : "0xd2772624a6bba49d746f89c5b5a3313a03e5fee56cbebf0cca2e7ce039801c05",
                    "indexes" : {
                        "data" : 3,
                        "gas" : 0,
                        "value" : 0
                    },
                    "logs" : "0x1dcc4de8dec75d7aab85b567b6ccd41ad312451b948a7413f0a142fd40d49347",
                    "txbytes" : "0xf8c1800a830f424094000000000000000000000000000000000000c0de80b8600000000000000000000000000000000000000000000000000000000000001030000000000000000000000000000000000000000000000000000000000000000000000000000000000000000000000000000000000000000000000000000010201ba00a6704bad9a178cd70ba3e5333418e9e90eb82297a1ade98aa6c3859d18d4b84a07a68c975c4f6daa9c9854278dfedb609d74657b400f335ebcf632965c9f7884d"
                },
                {
                    "hash" : "0x20bbd7c1fcadb2476c424c4a028a307effde4d1dffdb5e2446a66add34b248bf",
                    "indexes" : {
                        "data" : 4,
                        "gas" : 0,
                        "value" : 0
                    },
                    "logs" : "0x1dcc4de8dec75d7aab85b567b6ccd41ad312451b948a7413f0a142fd40d49347",
                    "txbytes" : "0xf8c1800a830f424094000000000000000000000000000000000000c0de80b8600000000000000000000000000000000000000000000000000000000000001021000000000000000000000000000000000000000000000000000000000000102000000000000000000000000000000000000000000000000000000000000001231ba04ac33d9da3d0dbbeb8f1895b18cc3a9f000b87ba647125756ecd6166bdef806ca004d8e4ca72abfec38ba27a55a5c8beab011156509827e4d7db63003181d9af2d"
                },
                {
                    "hash" : "0x5dd71e199643eb13f92c73e590a7430265c1106138139024c24f1144033614fd",
                    "indexes" : {
                        "data" : 5,
                        "gas" : 0,
                        "value" : 0
                    },
                    "logs" : "0x1dcc4de8dec75d7aab85b567b6ccd41ad312451b948a7413f0a142fd40d49347",
                    "txbytes" : "0xf8c1800a830f424094000000000000000000000000000000000000c0de80b86000000000000000000000000000000000000000000000000000000000000010200000000000000000000000000000000000000000000000000000000000001023000000000000000000000000000000000000000000000000000000000000001d1ba00b7b05d622308bf093d495215d339c00127503dc1745118265de746f5ebd7d74a02c0f1a6b9d5d2c57ee36c62a232a0e4c19d8eb0f916fe45247b3f4340ab36bc4"
                }
            ]
        },
        "pre" : {
            "0x000000000000000000000000000000000000c0de" : {
                "balance" : "0x00",
                "code" : "0x600c565b8282825e505050565b7fa0a1a2a3a4a5a6a7a8a9aaabacadaeafb0b1b2b3b4b5b6b7b8b9babbbcbdbebf61102052603f6040356020355f356003565b595f2060015560536040356020355f356003565b595f20600255",
                "nonce" : "0x01",
                "storage" : {
                }
            },
            "0xa94f5374fce5edbc8e2a8697c15331677e6ebf0b" : {
                "balance" : "0x3b9aca00",
                "code" : "0x",
                "nonce" : "0x00",
                "storage" : {
                }
            }
        },
        "transaction" : {
            "data" : [
                "0x000000000000000000000000000000000000000000000000000000000000101000000000000000000000000000000000000000000000000000000000000000000000000000000000000000000000000000000000000000000000000000000020",
                "0x000000000000000000000000000000000000000000000000000000000000102000000000000000000000000000000000000000000000000000000000000010100000000000000000000000000000000000000000000000000000000000000010",
                "0x000000000000000000000000000000000000000000000000000000000000102000000000000000000000000000000000000000000000000000000000000010400000000000000000000000000000000000000000000000000000000000000010",
                "0x000000000000000000000000000000000000000000000000000000000000103000000000000000000000000000000000000000000000000000000000000000000000000000000000000000000000000000000000000000000000000000001020",
                "0x000000000000000000000000000000000000000000000000000000000000102100000000000000000000000000000000000000000000000000000000000010200000000000000000000000000000000000000000000000000000000000000123",
                "0x00000000000000000000000000000000000000000000000000000000000010200000000000000000000000000000000000000000000000000000000000001023000000000000000000000000000000000000000000000000000000000000001d"
            ],
            "gasLimit" : [
                "0x0f4240"
            ],
            "gasPrice" : "0x0a",
            "nonce" : "0x00",
            "secretKey" : "0x45a915e4d060149eb4365960e6a7a45f334393093061116b197e3240065ff2d8",
            "sender" : "0xa94f5374fce5edbc8e2a8697c15331677e6ebf0b",
            "to" : "0x000000000000000000000000000000000000c0de",
            "value" : [
                "0x00"
            ]
        }
    }
}