{
    "call_ecrec_success_empty_then_returndatasize" : {
        "_info" : {
            "comment" : "",
            "filling-rpc-server" : "evm version 1.13.13-unstable-034bc466-20240219",
            "filling-tool-version" : "retesteth-0.3.2-cancun+commit.014a68a5.Linux.g++",
            "generatedTestHash" : "a3f867bf7171b53bfc1b3e83215ddce27c12c9acde1963f47c300b5eca141c91",
            "lllcversion" : "Version: 0.5.14-develop.2023.7.11+commit.c58ab2c6.mod.Linux.g++",
            "solidity" : "Version: 0.8.21+commit.d9974bed.Linux.g++",
            "source" : "src/GeneralStateTestsFiller/stReturnDataTest/call_ecrec_success_empty_then_returndatasizeFiller.json",
            "sourceHash" : "79682962d91656b076742868df7cc7e2bef61fbaf0968528f59ff8a2f3055ad2"
        },
        "env" : {
            "currentBaseFee" : "0x0a",
            "currentCoinbase" : "0x2adc25665018aa1fe0e6bc666dac8fc2697ff9ba",
            "currentDifficulty" : "0x020000",
            "currentExcessBlobGas" : "0x00",
            "currentGasLimit" : "0x1a00000000",
            "currentNumber" : "0x01",
            "currentRandom" : "0x0000000000000000000000000000000000000000000000000000000000020000",
            "currentTimestamp" : "0x03e8"
        },
        "post" : {
            "Berlin" : [
                {
                    "hash" : "0xd2e33b9939535093bc7b5120894c9691b06c87229189aa233a74f41f030af796",
                    "indexes" : {
                        "data" : 0,
                        "gas" : 0,
                        "value" : 0
                    },
                    "logs" : "0x1dcc4de8dec75d7aab85b567b6ccd41ad312451b948a7413f0a142fd40d49347",
                    "txbytes" : "0xf862800a850a00000000940f572e5295c57f15886f9b263e2f6d2d6c7b5ec680801ba0be56d61b678ad2c41b294c70b5213913b9a6f17753ba7aadc171c9a2474f66a8a04814800401028ca339e8af9f4a6253bddd3f9df8f1dc6da275d19862e9f28642"
                }
            ],
            "Cancun" : [
                {
                    "hash" : "0xf21428af1d269117f8510f61503fd11dcbfd01cebb4900ec3b98995b93b0b293",
                    "indexes" : {
                        "data" : 0,
                        "gas" : 0,
                        "value" : 0
                    },
                    "logs" : "0x1dcc4de8dec75d7aab85b567b6ccd41ad312451b948a7413f0a142fd40d49347",
                    "txbytes" : "0xf862800a850a00000000940f572e5295c57f15886f9b263e2f6d2d6c7b5ec680801ba0be56d61b678ad2c41b294c70b5213913b9a6f17753ba7aadc171c9a2474f66a8a04814800401028ca339e8af9f4a6253bddd3f9df8f1dc6da275d19862e9f28642"
                }
            ],
            "Istanbul" : [
                {
                    "hash" : "0xe73587c52bb6a56a456b4f600004df5d5f1bc541eda78318ff3ce704344a0ab5",
                    "indexes" : {
                        "data" : 0,
                        "gas" : 0,
                        "value" : 0
                    },
                    "logs" : "0x1dcc4de8dec75d7aab85b567b6ccd41ad312451b948a7413f0a142fd40d49347",
                    "txbytes" : "0xf862800a850a00000000940f572e5295c57f15886f9b263e2f6d2d6c7b5ec680801ba0be56d61b678ad2c41b294c70b5213913b9a6f17753ba7aadc171c9a2474f66a8a04814800401028ca339e8af9f4a6253bddd3f9df8f1dc6da275d19862e9f28642"
                }
            ],
            "London" : [
                {
                    "hash" : "0xdc48cb941f44f484384aed21dbd43f79ea2315f7acb76f0b1ab39b619fde272a",
                    "indexes" : {
                        "data" : 0,
                        "gas" : 0,
                        "value" : 0
                    },
                    "logs" : "0x1dcc4de8dec75d7aab85b567b6ccd41ad312451b948a7413f0a142fd40d49347",
                    "txbytes" : "0xf862800a850a00000000940f572e5295c57f15886f9b263e2f6d2d6c7b5ec680801ba0be56d61b678ad2c41b294c70b5213913b9a6f17753ba7aadc171c9a2474f66a8a04814800401028ca339e8af9f4a6253bddd3f9df8f1dc6da275d19862e9f28642"
                }
            ],
            "Paris" : [
                {
                    "hash" : "0xdc48cb941f44f484384aed21dbd43f79ea2315f7acb76f0b1ab39b619fde272a",
                    "indexes" : {
                        "data" : 0,
                        "gas" : 0,
                        "value" : 0
                    },
                    "logs" : "0x1dcc4de8dec75d7aab85b567b6ccd41ad312451b948a7413f0a142fd40d49347",
                    "txbytes" : "0xf862800a850a00000000940f572e5295c57f15886f9b263e2f6d2d6c7b5ec680801ba0be56d61b678ad2c41b294c70b5213913b9a6f17753ba7aadc171c9a2474f66a8a04814800401028ca339e8af9f4a6253bddd3f9df8f1dc6da275d19862e9f28642"
                }
            ],
            "Shanghai" : [
                {
                    "hash" : "0xdc48cb941f44f484384aed21dbd43f79ea2315f7acb76f0b1ab39b619fde272a",
                    "indexes" : {
                        "data" : 0,
                        "gas" : 0,
                        "value" : 0
                    },
                    "logs" : "0x1dcc4de8dec75d7aab85b567b6ccd41ad312451b948a7413f0a142fd40d49347",
                    "txbytes" : "0xf862800a850a00000000940f572e5295c57f15886f9b263e2f6d2d6c7b5ec680801ba0be56d61b678ad2c41b294c70b5213913b9a6f17753ba7aadc171c9a2474f66a8a04814800401028ca339e8af9f4a6253bddd3f9df8f1dc6da275d19862e9f28642"
                }
            ]
        },
        "pre" : {
            "0x000f3df6d732807ef1319fb7b8bb8522d0beac02" : {
                "balance" : "0x00",
                "code" : "0x3373fffffffffffffffffffffffffffffffffffffffe14604d57602036146024575f5ffd5b5f35801560495762001fff810690815414603c575f5ffd5b62001fff01545f5260205ff35b5f5ffd5b62001fff42064281555f359062001fff015500",
                "nonce" : "0x01",
                "storage" : {
                }
            },
            "0x0f572e5295c57f15886f9b263e2f6d2d6c7b5ec6" : {
                "balance" : "0x00",
                "code" : "0x60aa60006000600060006001619000f1503d60005500",
                "nonce" : "0x00",
                "storage" : {
                    "0x00" : "0x60a7"
                }
            },
            "0xa94f5374fce5edbc8e2a8697c15331677e6ebf0b" : {
                "balance" : "0x6400000000",
                "code" : "0x",
                "nonce" : "0x00",
                "storage" : {
                }
            }
        },
        "transaction" : {
            "data" : [
                "0x"
            ],
            "gasLimit" : [
                "0x0a00000000"
            ],
            "gasPrice" : "0x0a",
            "nonce" : "0x00",
            "secretKey" : "0x45a915e4d060149eb4365960e6a7a45f334393093061116b197e3240065ff2d8",
            "sender" : "0xa94f5374fce5edbc8e2a8697c15331677e6ebf0b",
            "to" : "0x0f572e5295c57f15886f9b263e2f6d2d6c7b5ec6",
            "value" : [
                "0x00"
            ]
        }
    }
}