{
    "returndatacopy_after_successful_staticcall" : {
        "_info" : {
            "comment" : "",
            "filling-rpc-server" : "evm version 1.11.4-unstable-e14043db-20230308",
            "filling-tool-version" : "retesteth-0.3.0-shanghai+commit.fd2c0a83.Linux.g++",
            "generatedTestHash" : "c5e9ed88a50bb441057ace514245804f9aad1fa008ef30aa1ce94d9a7457ead9",
            "lllcversion" : "Version: 0.5.14-develop.2022.7.30+commit.a096d7a9.Linux.g++",
            "solidity" : "Version: 0.8.17+commit.8df45f5f.Linux.g++",
            "source" : "src/GeneralStateTestsFiller/stReturnDataTest/returndatacopy_after_successful_staticcallFiller.json",
            "sourceHash" : "52e46882f7b9d65a6739f66e7d01afb2a114ce66e2e7bc74846aa3ceb4913a2a"
        },
        "env" : {
            "currentBaseFee" : "0x0a",
            "currentCoinbase" : "0x2adc25665018aa1fe0e6bc666dac8fc2697ff9ba",
            "currentDifficulty" : "0x020000",
            "currentGasLimit" : "0x1a00000000",
            "currentNumber" : "0x01",
            "currentRandom" : "0x0000000000000000000000000000000000000000000000000000000000020000",
            "currentTimestamp" : "0x03e8",
            "previousHash" : "0x5e20a0453cecd065ea59c37ac63e079ee08998b6045136a8ce6635c7912ec0b6"
        },
        "post" : {
            "Berlin" : [
                {
                    "hash" : "0xe55135208d992a2f8194d5db95f8a60329e644c164e26a93b2f2322b864d2030",
                    "indexes" : {
                        "data" : 0,
                        "gas" : 0,
                        "value" : 0
                    },
                    "logs" : "0x1dcc4de8dec75d7aab85b567b6ccd41ad312451b948a7413f0a142fd40d49347",
                    "txbytes" : "0xf862800a850a0000000094100000000000000000000000000000000000000180801ca08bbb9026ad67292dd79e7029089219cc6c33dae0588d64694163002552fa5c9ea01252d0f551f409215407cd3f18f0064b2a252d50a613d6f41e71fc351439d550"
                }
            ],
            "Istanbul" : [
                {
                    "hash" : "0xb69ff0579309e98ff7605bc4a166dd4ba64aec6639bc7b3d5d1296307c338eab",
                    "indexes" : {
                        "data" : 0,
                        "gas" : 0,
                        "value" : 0
                    },
                    "logs" : "0x1dcc4de8dec75d7aab85b567b6ccd41ad312451b948a7413f0a142fd40d49347",
                    "txbytes" : "0xf862800a850a0000000094100000000000000000000000000000000000000180801ca08bbb9026ad67292dd79e7029089219cc6c33dae0588d64694163002552fa5c9ea01252d0f551f409215407cd3f18f0064b2a252d50a613d6f41e71fc351439d550"
                }
            ],
            "London" : [
                {
                    "hash" : "0xe7b84b663e21de9c86b040d0c0a99ebed5757839f2749fba86a1f0eccafddb24",
                    "indexes" : {
                        "data" : 0,
                        "gas" : 0,
                        "value" : 0
                    },
                    "logs" : "0x1dcc4de8dec75d7aab85b567b6ccd41ad312451b948a7413f0a142fd40d49347",
                    "txbytes" : "0xf862800a850a0000000094100000000000000000000000000000000000000180801ca08bbb9026ad67292dd79e7029089219cc6c33dae0588d64694163002552fa5c9ea01252d0f551f409215407cd3f18f0064b2a252d50a613d6f41e71fc351439d550"
                }
            ],
            "Merge" : [
                {
                    "hash" : "0xe7b84b663e21de9c86b040d0c0a99ebed5757839f2749fba86a1f0eccafddb24",
                    "indexes" : {
                        "data" : 0,
                        "gas" : 0,
                        "value" : 0
                    },
                    "logs" : "0x1dcc4de8dec75d7aab85b567b6ccd41ad312451b948a7413f0a142fd40d49347",
                    "txbytes" : "0xf862800a850a0000000094100000000000000000000000000000000000000180801ca08bbb9026ad67292dd79e7029089219cc6c33dae0588d64694163002552fa5c9ea01252d0f551f409215407cd3f18f0064b2a252d50a613d6f41e71fc351439d550"
                }
            ],
            "Shanghai" : [
                {
                    "hash" : "0xe7b84b663e21de9c86b040d0c0a99ebed5757839f2749fba86a1f0eccafddb24",
                    "indexes" : {
                        "data" : 0,
                        "gas" : 0,
                        "value" : 0
                    },
                    "logs" : "0x1dcc4de8dec75d7aab85b567b6ccd41ad312451b948a7413f0a142fd40d49347",
                    "txbytes" : "0xf862800a850a0000000094100000000000000000000000000000000000000180801ca08bbb9026ad67292dd79e7029089219cc6c33dae0588d64694163002552fa5c9ea01252d0f551f409215407cd3f18f0064b2a252d50a613d6f41e71fc351439d550"
                }
            ]
        },
        "pre" : {
            "0x0f572e5295c57f15886f9b263e2f6d2d6c7b5ec6" : {
                "balance" : "0x01000000",
                "code" : "0x",
                "nonce" : "0x00",
                "storage" : {
                }
            },
            "0x1000000000000000000000000000000000000001" : {
                "balance" : "0x00",
                "code" : "0x600060006000600073100000000000000000000000000000000000000261ea60fa506020600060003e60005160005500",
                "nonce" : "0x00",
                "storage" : {
                    "0x00" : "0xffffffffffffffffffffffffffffffffffffffffffffffffffffffffffffffff"
                }
            },
            "0x1000000000000000000000000000000000000002" : {
                "balance" : "0x6400000000",
                "code" : "0x3360005260206000f300",
                "nonce" : "0x00",
                "storage" : {
                }
            },
            "0xa94f5374fce5edbc8e2a8697c15331677e6ebf0b" : {
                "balance" : "0x6400000000",
                "code" : "0x",
                "nonce" : "0x00",
                "storage" : {
                }
            }
        },
        "transaction" : {
            "data" : [
                "0x"
            ],
            "gasLimit" : [
                "0x0a00000000"
            ],
            "gasPrice" : "0x0a",
            "nonce" : "0x00",
            "secretKey" : "0x45a915e4d060149eb4365960e6a7a45f334393093061116b197e3240065ff2d8",
            "sender" : "0xa94f5374fce5edbc8e2a8697c15331677e6ebf0b",
            "to" : "0x1000000000000000000000000000000000000001",
            "value" : [
                "0x00"
            ]
        }
    }
}