{
    "subcallReturnMoreThenExpected" : {
        "_info" : {
            "comment" : "https://github.com/ethereum/tests/issues/558 (subcall/opcode return more data then expected)",
            "filling-rpc-server" : "evm version 1.10.2-unstable-22082f9e-20210309",
            "filling-tool-version" : "retesteth-0.1.0-accesslist+commit.47c69eb3.Linux.g++",
            "lllcversion" : "Version: 0.5.14-develop.2020.6.22+commit.9189ad7a.Linux.g++",
            "source" : "src/GeneralStateTestsFiller/stReturnDataTest/subcallReturnMoreThenExpectedFiller.yml",
            "sourceHash" : "f4b7fd8fe64d883e50bdec067be3bdf217383ebdc8292b7850b2ede95d5964ea"
        },
        "env" : {
            "currentCoinbase" : "0x2adc25665018aa1fe0e6bc666dac8fc2697ff9ba",
            "currentDifficulty" : "0x020000",
            "currentGasLimit" : "0x989680",
            "currentNumber" : "0x01",
            "currentTimestamp" : "0x03e8",
            "previousHash" : "0x5e20a0453cecd065ea59c37ac63e079ee08998b6045136a8ce6635c7912ec0b6"
        },
        "post" : {
            "Berlin" : [
                {
                    "indexes" : {
                        "data" : 0,
                        "gas" : 0,
                        "value" : 0
                    },
                    "hash" : "0x71f75f99aee256a696fb4541d413386dcdd3b598895c02865e4f432dbe74ae2f",
                    "txbytes" : "0xf860800183061a8094095e7baea6a6c7c4c2dfeb977efac326af552d8701801ca0ae29a79903b187c6d075320f9834a330b5134244c7fb0476eba58cd87b175fd6a027a8f85308f5f08f4e2f6b2e23d9dcfd740108f8f96517e50c9e1dc86288a673",
                    "logs" : "0x1dcc4de8dec75d7aab85b567b6ccd41ad312451b948a7413f0a142fd40d49347"
                }
            ],
            "Istanbul" : [
                {
                    "indexes" : {
                        "data" : 0,
                        "gas" : 0,
                        "value" : 0
                    },
                    "hash" : "0x27ab66db034f60ec33d5d0e9570b5273c06653553a2e7049e7c43c2c8654e3f4",
                    "txbytes" : "0xf860800183061a8094095e7baea6a6c7c4c2dfeb977efac326af552d8701801ca0ae29a79903b187c6d075320f9834a330b5134244c7fb0476eba58cd87b175fd6a027a8f85308f5f08f4e2f6b2e23d9dcfd740108f8f96517e50c9e1dc86288a673",
                    "logs" : "0x1dcc4de8dec75d7aab85b567b6ccd41ad312451b948a7413f0a142fd40d49347"
                }
            ]
        },
        "pre" : {
            "0x095e7baea6a6c7c4c2dfeb977efac326af552d87" : {
                "balance" : "0x0de0b6b3a7640000",
                "code" : "0x600c600060006000600073194f5374fce5edbc8e2a8697c15331677e6ebf0b62030d40f1506000516000556000600052600c60006000600073194f5374fce5edbc8e2a8697c15331677e6ebf0b62030d40f4506000516001556000600052600c60006000600073194f5374fce5edbc8e2a8697c15331677e6ebf0b62030d40fa506000516002556000600052600c600060006000600073194f5374fce5edbc8e2a8697c15331677e6ebf0b62030d40f2506000516003556000600052600c600060006000600073294f5374fce5edbc8e2a8697c15331677e6ebf0b62030d40f1506000516004556000600052600c60006000600073294f5374fce5edbc8e2a8697c15331677e6ebf0b62030d40f4506000516005556000600052600c60006000600073294f5374fce5edbc8e2a8697c15331677e6ebf0b62030d40fa506000516006556000600052600c600060006000600073294f5374fce5edbc8e2a8697c15331677e6ebf0b62030d40f25060005160075500",
                "nonce" : "0x00",
                "storage" : {
                }
            },
            "0x194f5374fce5edbc8e2a8697c15331677e6ebf0b" : {
                "balance" : "0x0de0b6b3a7640000",
                "code" : "0x7f11223344556677889910111213141516171819202122232425262728293031326000527f333435363738394041424344454647484950515253545556575859606162636460205260406000f300",
                "nonce" : "0x00",
                "storage" : {
                }
            },
            "0x294f5374fce5edbc8e2a8697c15331677e6ebf0b" : {
                "balance" : "0x0de0b6b3a7640000",
                "code" : "0x7f11223344556677889910111213141516171819202122232425262728293031326000527f333435363738394041424344454647484950515253545556575859606162636460205260406000fd00",
                "nonce" : "0x00",
                "storage" : {
                }
            },
            "0xa94f5374fce5edbc8e2a8697c15331677e6ebf0b" : {
                "balance" : "0x0de0b6b3a7640000",
                "code" : "0x00",
                "nonce" : "0x00",
                "storage" : {
                }
            }
        },
        "transaction" : {
            "data" : [
                "0x"
            ],
            "gasLimit" : [
                "0x061a80"
            ],
            "gasPrice" : "0x01",
            "nonce" : "0x00",
            "secretKey" : "0x45a915e4d060149eb4365960e6a7a45f334393093061116b197e3240065ff2d8",
            "to" : "0x095e7baea6a6c7c4c2dfeb977efac326af552d87",
            "value" : [
                "0x01"
            ]
        }
    }
}