{
    "DELEGATECALL_Bounds2" : {
        "_info" : {
            "comment" : "",
            "filling-rpc-server" : "evm version 1.13.11-unstable-765f2904-20240124",
            "filling-tool-version" : "retesteth-0.3.2-cancun+commit.ea13235b.Linux.g++",
            "generatedTestHash" : "d6be1f2b20091eda7659317682a83ed528261d27e0de1744226f5b38c94e4eb2",
            "lllcversion" : "Version: 0.5.14-develop.2023.7.11+commit.c58ab2c6.mod.Linux.g++",
            "solidity" : "Version: 0.8.21+commit.d9974bed.Linux.g++",
            "source" : "src/GeneralStateTestsFiller/stMemoryStressTest/DELEGATECALL_Bounds2Filler.json",
            "sourceHash" : "a779235e884dabe0c8a80f764e9574312ac928a9fd28055ea073f5e5fdbc8a87"
        },
        "env" : {
            "currentBaseFee" : "0x0a",
            "currentCoinbase" : "0x2adc25665018aa1fe0e6bc666dac8fc2697ff9ba",
            "currentDifficulty" : "0x020000",
            "currentExcessBlobGas" : "0x00",
            "currentGasLimit" : "0x7fffffffffffffff",
            "currentNumber" : "0x01",
            "currentRandom" : "0x0000000000000000000000000000000000000000000000000000000000020000",
            "currentTimestamp" : "0x03e8"
        },
        "post" : {
            "Berlin" : [
                {
                    "hash" : "0x14f054ce2fd7e1d62b88cbe632b2421ed273bb87186ca4be26ad27792b7ab354",
                    "indexes" : {
                        "data" : 0,
                        "gas" : 0,
                        "value" : 0
                    },
                    "logs" : "0x1dcc4de8dec75d7aab85b567b6ccd41ad312451b948a7413f0a142fd40d49347",
                    "txbytes" : "0xf860800a830249f094100000000000000000000000000000000000000001801ba0f56f3b98c5ed3c38d0e4e1e3e499b6ba9bda60fcf0f6a811d7979fb5d81cec53a00be599284605e5223d1fc0a043f56e1a6a9ec2802406f664cbfea850323aeabf"
                },
                {
                    "hash" : "0x8933f838b1c30174a3cc2b1db5bd11ba869b5571e23d13df0e1f9761b13b3ec9",
                    "indexes" : {
                        "data" : 0,
                        "gas" : 1,
                        "value" : 0
                    },
                    "logs" : "0x1dcc4de8dec75d7aab85b567b6ccd41ad312451b948a7413f0a142fd40d49347",
                    "txbytes" : "0xf861800a840ee6b28094100000000000000000000000000000000000000001801ba03640a6caf9899ca45eae05a4cf9012df3acee146ac86e6bf1dab1135d88963caa06a8076e5713e9298c2e8115b867a91f23a042d6b29b5c453b3700f1ce8a7d6d9"
                }
            ],
            "Cancun" : [
                {
                    "hash" : "0xbda213f647ec651de6923cf145b20a400d5b74dc28156ab698b62f47c961fbb1",
                    "indexes" : {
                        "data" : 0,
                        "gas" : 0,
                        "value" : 0
                    },
                    "logs" : "0x1dcc4de8dec75d7aab85b567b6ccd41ad312451b948a7413f0a142fd40d49347",
                    "txbytes" : "0xf860800a830249f094100000000000000000000000000000000000000001801ba0f56f3b98c5ed3c38d0e4e1e3e499b6ba9bda60fcf0f6a811d7979fb5d81cec53a00be599284605e5223d1fc0a043f56e1a6a9ec2802406f664cbfea850323aeabf"
                },
                {
                    "hash" : "0xdd59ba6f8cc7bebe530342c9f77eb98d957681b60ad11d9895ce1e4846a5d3f4",
                    "indexes" : {
                        "data" : 0,
                        "gas" : 1,
                        "value" : 0
                    },
                    "logs" : "0x1dcc4de8dec75d7aab85b567b6ccd41ad312451b948a7413f0a142fd40d49347",
                    "txbytes" : "0xf861800a840ee6b28094100000000000000000000000000000000000000001801ba03640a6caf9899ca45eae05a4cf9012df3acee146ac86e6bf1dab1135d88963caa06a8076e5713e9298c2e8115b867a91f23a042d6b29b5c453b3700f1ce8a7d6d9"
                }
            ],
            "Istanbul" : [
                {
                    "hash" : "0x14f054ce2fd7e1d62b88cbe632b2421ed273bb87186ca4be26ad27792b7ab354",
                    "indexes" : {
                        "data" : 0,
                        "gas" : 0,
                        "value" : 0
                    },
                    "logs" : "0x1dcc4de8dec75d7aab85b567b6ccd41ad312451b948a7413f0a142fd40d49347",
                    "txbytes" : "0xf860800a830249f094100000000000000000000000000000000000000001801ba0f56f3b98c5ed3c38d0e4e1e3e499b6ba9bda60fcf0f6a811d7979fb5d81cec53a00be599284605e5223d1fc0a043f56e1a6a9ec2802406f664cbfea850323aeabf"
                },
                {
                    "hash" : "0x8933f838b1c30174a3cc2b1db5bd11ba869b5571e23d13df0e1f9761b13b3ec9",
                    "indexes" : {
                        "data" : 0,
                        "gas" : 1,
                        "value" : 0
                    },
                    "logs" : "0x1dcc4de8dec75d7aab85b567b6ccd41ad312451b948a7413f0a142fd40d49347",
                    "txbytes" : "0xf861800a840ee6b28094100000000000000000000000000000000000000001801ba03640a6caf9899ca45eae05a4cf9012df3acee146ac86e6bf1dab1135d88963caa06a8076e5713e9298c2e8115b867a91f23a042d6b29b5c453b3700f1ce8a7d6d9"
                }
            ],
            "London" : [
                {
                    "hash" : "0xbda213f647ec651de6923cf145b20a400d5b74dc28156ab698b62f47c961fbb1",
                    "indexes" : {
                        "data" : 0,
                        "gas" : 0,
                        "value" : 0
                    },
                    "logs" : "0x1dcc4de8dec75d7aab85b567b6ccd41ad312451b948a7413f0a142fd40d49347",
                    "txbytes" : "0xf860800a830249f094100000000000000000000000000000000000000001801ba0f56f3b98c5ed3c38d0e4e1e3e499b6ba9bda60fcf0f6a811d7979fb5d81cec53a00be599284605e5223d1fc0a043f56e1a6a9ec2802406f664cbfea850323aeabf"
                },
                {
                    "hash" : "0xdd59ba6f8cc7bebe530342c9f77eb98d957681b60ad11d9895ce1e4846a5d3f4",
                    "indexes" : {
                        "data" : 0,
                        "gas" : 1,
                        "value" : 0
                    },
                    "logs" : "0x1dcc4de8dec75d7aab85b567b6ccd41ad312451b948a7413f0a142fd40d49347",
                    "txbytes" : "0xf861800a840ee6b28094100000000000000000000000000000000000000001801ba03640a6caf9899ca45eae05a4cf9012df3acee146ac86e6bf1dab1135d88963caa06a8076e5713e9298c2e8115b867a91f23a042d6b29b5c453b3700f1ce8a7d6d9"
                }
            ],
            "Paris" : [
                {
                    "hash" : "0xbda213f647ec651de6923cf145b20a400d5b74dc28156ab698b62f47c961fbb1",
                    "indexes" : {
                        "data" : 0,
                        "gas" : 0,
                        "value" : 0
                    },
                    "logs" : "0x1dcc4de8dec75d7aab85b567b6ccd41ad312451b948a7413f0a142fd40d49347",
                    "txbytes" : "0xf860800a830249f094100000000000000000000000000000000000000001801ba0f56f3b98c5ed3c38d0e4e1e3e499b6ba9bda60fcf0f6a811d7979fb5d81cec53a00be599284605e5223d1fc0a043f56e1a6a9ec2802406f664cbfea850323aeabf"
                },
                {
                    "hash" : "0xdd59ba6f8cc7bebe530342c9f77eb98d957681b60ad11d9895ce1e4846a5d3f4",
                    "indexes" : {
                        "data" : 0,
                        "gas" : 1,
                        "value" : 0
                    },
                    "logs" : "0x1dcc4de8dec75d7aab85b567b6ccd41ad312451b948a7413f0a142fd40d49347",
                    "txbytes" : "0xf861800a840ee6b28094100000000000000000000000000000000000000001801ba03640a6caf9899ca45eae05a4cf9012df3acee146ac86e6bf1dab1135d88963caa06a8076e5713e9298c2e8115b867a91f23a042d6b29b5c453b3700f1ce8a7d6d9"
                }
            ],
            "Shanghai" : [
                {
                    "hash" : "0xbda213f647ec651de6923cf145b20a400d5b74dc28156ab698b62f47c961fbb1",
                    "indexes" : {
                        "data" : 0,
                        "gas" : 0,
                        "value" : 0
                    },
                    "logs" : "0x1dcc4de8dec75d7aab85b567b6ccd41ad312451b948a7413f0a142fd40d49347",
                    "txbytes" : "0xf860800a830249f094100000000000000000000000000000000000000001801ba0f56f3b98c5ed3c38d0e4e1e3e499b6ba9bda60fcf0f6a811d7979fb5d81cec53a00be599284605e5223d1fc0a043f56e1a6a9ec2802406f664cbfea850323aeabf"
                },
                {
                    "hash" : "0xdd59ba6f8cc7bebe530342c9f77eb98d957681b60ad11d9895ce1e4846a5d3f4",
                    "indexes" : {
                        "data" : 0,
                        "gas" : 1,
                        "value" : 0
                    },
                    "logs" : "0x1dcc4de8dec75d7aab85b567b6ccd41ad312451b948a7413f0a142fd40d49347",
                    "txbytes" : "0xf861800a840ee6b28094100000000000000000000000000000000000000001801ba03640a6caf9899ca45eae05a4cf9012df3acee146ac86e6bf1dab1135d88963caa06a8076e5713e9298c2e8115b867a91f23a042d6b29b5c453b3700f1ce8a7d6d9"
                }
            ]
        },
        "pre" : {
            "0x1000000000000000000000000000000000000000" : {
                "balance" : "0x00",
                "code" : "0x63ffffffff63ffffffff63ffffffff63ffffffff7310000000000000000000000000000000000000016707fffffffffffffff400",
                "nonce" : "0x00",
                "storage" : {
                }
            },
            "0x1000000000000000000000000000000000000001" : {
                "balance" : "0x00",
                "code" : "0x60005460010160005500",
                "nonce" : "0x00",
                "storage" : {
                }
            },
            "0xa94f5374fce5edbc8e2a8697c15331677e6ebf0b" : {
                "balance" : "0xffffffffffffffffffffffffffffffffffffffffffffffffffffffffffffffff",
                "code" : "0x",
                "nonce" : "0x00",
                "storage" : {
                }
            }
        },
        "transaction" : {
            "data" : [
                "0x"
            ],
            "gasLimit" : [
                "0x0249f0",
                "0x0ee6b280"
            ],
            "gasPrice" : "0x0a",
            "nonce" : "0x00",
            "secretKey" : "0x45a915e4d060149eb4365960e6a7a45f334393093061116b197e3240065ff2d8",
            "sender" : "0xa94f5374fce5edbc8e2a8697c15331677e6ebf0b",
            "to" : "0x1000000000000000000000000000000000000000",
            "value" : [
                "0x01"
            ]
        }
    }
}