{
    "MLOAD_Bounds3" : {
        "_info" : {
            "comment" : "",
            "filling-rpc-server" : "evm version 1.13.13-unstable-034bc466-20240219",
            "filling-tool-version" : "retesteth-0.3.2-cancun+commit.014a68a5.Linux.g++",
            "generatedTestHash" : "ff73517b80f75dd10962a4910401c385010dfba660db0cf67c3f2ff2a9a6b8a1",
            "lllcversion" : "Version: 0.5.14-develop.2023.7.11+commit.c58ab2c6.mod.Linux.g++",
            "solidity" : "Version: 0.8.21+commit.d9974bed.Linux.g++",
            "source" : "src/GeneralStateTestsFiller/stMemoryStressTest/MLOAD_Bounds3Filler.json",
            "sourceHash" : "af983c40de56c348ac270c4a2e252bf09e09a07dd7a2f7174b7c93974835f63c"
        },
        "env" : {
            "currentBaseFee" : "0x0a",
            "currentCoinbase" : "0x2adc25665018aa1fe0e6bc666dac8fc2697ff9ba",
            "currentDifficulty" : "0x020000",
            "currentExcessBlobGas" : "0x00",
            "currentGasLimit" : "0x7fffffffffffffff",
            "currentNumber" : "0x01",
            "currentRandom" : "0x0000000000000000000000000000000000000000000000000000000000020000",
            "currentTimestamp" : "0x03e8"
        },
        "post" : {
            "Berlin" : [
                {
                    "hash" : "0x2ca90d2151ca45d009ec8c470938d31d597fbd8930dbd0a18f258e6bafc59b8e",
                    "indexes" : {
                        "data" : 0,
                        "gas" : 0,
                        "value" : 0
                    },
                    "logs" : "0x1dcc4de8dec75d7aab85b567b6ccd41ad312451b948a7413f0a142fd40d49347",
                    "txbytes" : "0xf861800a8402160ec094100000000000000000000000000000000000000001801ca02374c1c86d92771655d41d9714e4f01dbd72c67e80cb5b83f8957149d974b7fca012d1739e2a2dc7f927063fe5636db33069195b78a49b20310823321a04392278"
                },
                {
                    "hash" : "0x2ca90d2151ca45d009ec8c470938d31d597fbd8930dbd0a18f258e6bafc59b8e",
                    "indexes" : {
                        "data" : 0,
                        "gas" : 1,
                        "value" : 0
                    },
                    "logs" : "0x1dcc4de8dec75d7aab85b567b6ccd41ad312451b948a7413f0a142fd40d49347",
                    "txbytes" : "0xf861800a840ee6b28094100000000000000000000000000000000000000001801ba03640a6caf9899ca45eae05a4cf9012df3acee146ac86e6bf1dab1135d88963caa06a8076e5713e9298c2e8115b867a91f23a042d6b29b5c453b3700f1ce8a7d6d9"
                }
            ],
            "Cancun" : [
                {
                    "hash" : "0x1dd29bfbe4960fd45160671ab5814e1685b28277c140272aee37ddd391aedd87",
                    "indexes" : {
                        "data" : 0,
                        "gas" : 0,
                        "value" : 0
                    },
                    "logs" : "0x1dcc4de8dec75d7aab85b567b6ccd41ad312451b948a7413f0a142fd40d49347",
                    "txbytes" : "0xf861800a8402160ec094100000000000000000000000000000000000000001801ca02374c1c86d92771655d41d9714e4f01dbd72c67e80cb5b83f8957149d974b7fca012d1739e2a2dc7f927063fe5636db33069195b78a49b20310823321a04392278"
                },
                {
                    "hash" : "0x1dd29bfbe4960fd45160671ab5814e1685b28277c140272aee37ddd391aedd87",
                    "indexes" : {
                        "data" : 0,
                        "gas" : 1,
                        "value" : 0
                    },
                    "logs" : "0x1dcc4de8dec75d7aab85b567b6ccd41ad312451b948a7413f0a142fd40d49347",
                    "txbytes" : "0xf861800a840ee6b28094100000000000000000000000000000000000000001801ba03640a6caf9899ca45eae05a4cf9012df3acee146ac86e6bf1dab1135d88963caa06a8076e5713e9298c2e8115b867a91f23a042d6b29b5c453b3700f1ce8a7d6d9"
                }
            ],
            "Istanbul" : [
                {
                    "hash" : "0x2ca90d2151ca45d009ec8c470938d31d597fbd8930dbd0a18f258e6bafc59b8e",
                    "indexes" : {
                        "data" : 0,
                        "gas" : 0,
                        "value" : 0
                    },
                    "logs" : "0x1dcc4de8dec75d7aab85b567b6ccd41ad312451b948a7413f0a142fd40d49347",
                    "txbytes" : "0xf861800a8402160ec094100000000000000000000000000000000000000001801ca02374c1c86d92771655d41d9714e4f01dbd72c67e80cb5b83f8957149d974b7fca012d1739e2a2dc7f927063fe5636db33069195b78a49b20310823321a04392278"
                },
                {
                    "hash" : "0x2ca90d2151ca45d009ec8c470938d31d597fbd8930dbd0a18f258e6bafc59b8e",
                    "indexes" : {
                        "data" : 0,
                        "gas" : 1,
                        "value" : 0
                    },
                    "logs" : "0x1dcc4de8dec75d7aab85b567b6ccd41ad312451b948a7413f0a142fd40d49347",
                    "txbytes" : "0xf861800a840ee6b28094100000000000000000000000000000000000000001801ba03640a6caf9899ca45eae05a4cf9012df3acee146ac86e6bf1dab1135d88963caa06a8076e5713e9298c2e8115b867a91f23a042d6b29b5c453b3700f1ce8a7d6d9"
                }
            ],
            "London" : [
                {
                    "hash" : "0x9a11ebf33fb139043b55b5a03abc7f168fe4d94648c458082a424620517aca0f",
                    "indexes" : {
                        "data" : 0,
                        "gas" : 0,
                        "value" : 0
                    },
                    "logs" : "0x1dcc4de8dec75d7aab85b567b6ccd41ad312451b948a7413f0a142fd40d49347",
                    "txbytes" : "0xf861800a8402160ec094100000000000000000000000000000000000000001801ca02374c1c86d92771655d41d9714e4f01dbd72c67e80cb5b83f8957149d974b7fca012d1739e2a2dc7f927063fe5636db33069195b78a49b20310823321a04392278"
                },
                {
                    "hash" : "0x9a11ebf33fb139043b55b5a03abc7f168fe4d94648c458082a424620517aca0f",
                    "indexes" : {
                        "data" : 0,
                        "gas" : 1,
                        "value" : 0
                    },
                    "logs" : "0x1dcc4de8dec75d7aab85b567b6ccd41ad312451b948a7413f0a142fd40d49347",
                    "txbytes" : "0xf861800a840ee6b28094100000000000000000000000000000000000000001801ba03640a6caf9899ca45eae05a4cf9012df3acee146ac86e6bf1dab1135d88963caa06a8076e5713e9298c2e8115b867a91f23a042d6b29b5c453b3700f1ce8a7d6d9"
                }
            ],
            "Paris" : [
                {
                    "hash" : "0x9a11ebf33fb139043b55b5a03abc7f168fe4d94648c458082a424620517aca0f",
                    "indexes" : {
                        "data" : 0,
                        "gas" : 0,
                        "value" : 0
                    },
                    "logs" : "0x1dcc4de8dec75d7aab85b567b6ccd41ad312451b948a7413f0a142fd40d49347",
                    "txbytes" : "0xf861800a8402160ec094100000000000000000000000000000000000000001801ca02374c1c86d92771655d41d9714e4f01dbd72c67e80cb5b83f8957149d974b7fca012d1739e2a2dc7f927063fe5636db33069195b78a49b20310823321a04392278"
                },
                {
                    "hash" : "0x9a11ebf33fb139043b55b5a03abc7f168fe4d94648c458082a424620517aca0f",
                    "indexes" : {
                        "data" : 0,
                        "gas" : 1,
                        "value" : 0
                    },
                    "logs" : "0x1dcc4de8dec75d7aab85b567b6ccd41ad312451b948a7413f0a142fd40d49347",
                    "txbytes" : "0xf861800a840ee6b28094100000000000000000000000000000000000000001801ba03640a6caf9899ca45eae05a4cf9012df3acee146ac86e6bf1dab1135d88963caa06a8076e5713e9298c2e8115b867a91f23a042d6b29b5c453b3700f1ce8a7d6d9"
                }
            ],
            "Shanghai" : [
                {
                    "hash" : "0x9a11ebf33fb139043b55b5a03abc7f168fe4d94648c458082a424620517aca0f",
                    "indexes" : {
                        "data" : 0,
                        "gas" : 0,
                        "value" : 0
                    },
                    "logs" : "0x1dcc4de8dec75d7aab85b567b6ccd41ad312451b948a7413f0a142fd40d49347",
                    "txbytes" : "0xf861800a8402160ec094100000000000000000000000000000000000000001801ca02374c1c86d92771655d41d9714e4f01dbd72c67e80cb5b83f8957149d974b7fca012d1739e2a2dc7f927063fe5636db33069195b78a49b20310823321a04392278"
                },
                {
                    "hash" : "0x9a11ebf33fb139043b55b5a03abc7f168fe4d94648c458082a424620517aca0f",
                    "indexes" : {
                        "data" : 0,
                        "gas" : 1,
                        "value" : 0
                    },
                    "logs" : "0x1dcc4de8dec75d7aab85b567b6ccd41ad312451b948a7413f0a142fd40d49347",
                    "txbytes" : "0xf861800a840ee6b28094100000000000000000000000000000000000000001801ba03640a6caf9899ca45eae05a4cf9012df3acee146ac86e6bf1dab1135d88963caa06a8076e5713e9298c2e8115b867a91f23a042d6b29b5c453b3700f1ce8a7d6d9"
                }
            ]
        },
        "pre" : {
            "0x000f3df6d732807ef1319fb7b8bb8522d0beac02" : {
                "balance" : "0x00",
                "code" : "0x3373fffffffffffffffffffffffffffffffffffffffe14604d57602036146024575f5ffd5b5f35801560495762001fff810690815414603c575f5ffd5b62001fff01545f5260205ff35b5f5ffd5b62001fff42064281555f359062001fff015500",
                "nonce" : "0x01",
                "storage" : {
                }
            },
            "0x1000000000000000000000000000000000000000" : {
                "balance" : "0x00",
                "code" : "0x624000005100",
                "nonce" : "0x00",
                "storage" : {
                }
            },
            "0xa94f5374fce5edbc8e2a8697c15331677e6ebf0b" : {
                "balance" : "0x07ffffffffffffffffff",
                "code" : "0x",
                "nonce" : "0x00",
                "storage" : {
                }
            }
        },
        "transaction" : {
            "data" : [
                "0x"
            ],
            "gasLimit" : [
                "0x02160ec0",
                "0x0ee6b280"
            ],
            "gasPrice" : "0x0a",
            "nonce" : "0x00",
            "secretKey" : "0x45a915e4d060149eb4365960e6a7a45f334393093061116b197e3240065ff2d8",
            "sender" : "0xa94f5374fce5edbc8e2a8697c15331677e6ebf0b",
            "to" : "0x1000000000000000000000000000000000000000",
            "value" : [
                "0x01"
            ]
        }
    }
}