{
    "RightVRSTest" : {
        "_info" : {
            "comment" : "",
            "filledwith" : "cpp-1.3.0+commit.6e0ce939.Linux.g++",
            "lllcversion" : "Version: 0.4.18-develop.2017.10.6+commit.6c09e32c.Linux.g++",
            "source" : "src/TransactionTestsFiller/ttVRuleEip158/RightVRSTestFiller.json",
            "sourceHash" : "3bd66516d7a2c31e37fc5e9e84883427bc962681da509e90374847873ae0d295"
        },
        "blocknumber" : "2675000",
        "hash" : "e02990cad4cb38c5b32735af064f6bac6b11d2055497cd7e15f16c0294c55ff1",
        "rlp" : "0xf85f030182520894b94f5374fce5edbc8e2a8697c15331677e6ebf0b0a8026a098ff921201554726367d2be8c804a7ff89ccf285ebc57dff8ae4c44b9c19ac4aa01887321be575c8095f789dd4c743dfe42c1820f9231f98a962b210e3ac2452a3",
        "sender" : "a498686d147f218089fc81cec973dea1cb01ef00",
        "transaction" : {
            "data" : "0x",
            "gasLimit" : "0x5208",
            "gasPrice" : "0x01",
            "nonce" : "0x03",
            "r" : "0x98ff921201554726367d2be8c804a7ff89ccf285ebc57dff8ae4c44b9c19ac4a",
            "s" : "0x1887321be575c8095f789dd4c743dfe42c1820f9231f98a962b210e3ac2452a3",
            "to" : "0xb94f5374fce5edbc8e2a8697c15331677e6ebf0b",
            "v" : "0x26",
            "value" : "0x0a"
        }
    }
}