{
    "TransactionWithSvalueLessThan_c_secp256k1n_x05" : {
        "_info" : {
            "comment" : "",
            "filledwith" : "cpp-1.3.0+commit.eb08f023.Linux.g++",
            "lllcversion" : "Version: 0.4.18-develop.2017.9.25+commit.a72237f2.Linux.g++",
            "source" : "src/TransactionTestsFiller/ttVRuleEip158/TransactionWithSvalueLessThan_c_secp256k1n_x05Filler.json"
        },
        "blocknumber" : "2675000",
        "hash" : "540e5a7c76e7c3e2ebd8480915916abf30414d30c32efcc9a719fb8d94913303",
        "rlp" : "0xf85f800182520894095e7baea6a6c7c4c2dfeb977efac326af552d870b8025a048b55bfa915ac795c431978d8a6a992b628d557da5ff759b307d495a36649353a07fffffffffffffffffffffffffffffff5d576e7357a4501ddfe92f46681b2090",
        "sender" : "4f6dec67d2ab10d076a30e51a9eec998ff484d44",
        "transaction" : {
            "data" : "",
            "gasLimit" : "0x5208",
            "gasPrice" : "0x01",
            "nonce" : "0x00",
            "r" : "0x48b55bfa915ac795c431978d8a6a992b628d557da5ff759b307d495a36649353",
            "s" : "0x7fffffffffffffffffffffffffffffff5d576e7357a4501ddfe92f46681b2090",
            "to" : "0x095e7baea6a6c7c4c2dfeb977efac326af552d87",
            "v" : "0x25",
            "value" : "0x0b"
        }
    }
}