{
    "createLargeResult" : {
        "_info" : {
            "comment" : "Ori Pomerantz   qbzzt1@gmail.com",
            "filling-rpc-server" : "evm version 1.10.16-unstable-2dfa4bcf-20220121",
            "filling-tool-version" : "retesteth-0.2.2-testinfo+commit.1b89e144.Linux.g++",
            "generatedTestHash" : "e83588f215f6521afd12421c9554edc4da0c8de9b37ab8e924f602205d67c5b2",
            "labels" : {
                "0" : "CREATE-GOOD",
                "1" : "CREATE2-GOOD",
                "10" : "CREATE-FAIL-TOOBIG",
                "11" : "CREATE2-FAIL-TOOBIG",
                "12" : "CREATE-GOOD-HUGE",
                "13" : "CREATE2-GOOD-HUGE",
                "14" : "CREATE-FAIL-HUGE",
                "15" : "CREATE2-FAIL-HUGE",
                "2" : "CREATE-FAIL",
                "3" : "CREATE2-FAIL",
                "4" : "CREATE-GOOD-MAX",
                "5" : "CREATE2-GOOD-MAX",
                "6" : "CREATE-FAIL-MAX",
                "7" : "CREATE2-FAIL-MAX",
                "8" : "CREATE-GOOD-TOOBIG",
                "9" : "CREATE2-GOOD-TOOBIG"
            },
            "lllcversion" : "Version: 0.5.14-develop.2022.1.23+commit.401d5358.Linux.g++",
            "solidity" : "Version: 0.8.5+commit.a4f2e591.Linux.g++",
            "source" : "src/GeneralStateTestsFiller/stCreateTest/createLargeResultFiller.yml",
            "sourceHash" : "6fba8aff2e06e326ed0ec3fd56faabc0f36063200ee6d7b53544c9526931840d"
        },
        "env" : {
            "currentBaseFee" : "0x0a",
            "currentCoinbase" : "0x2adc25665018aa1fe0e6bc666dac8fc2697ff9ba",
            "currentDifficulty" : "0x020000",
            "currentGasLimit" : "0x05f5e100",
            "currentNumber" : "0x01",
            "currentTimestamp" : "0x03e8",
            "previousHash" : "0x5e20a0453cecd065ea59c37ac63e079ee08998b6045136a8ce6635c7912ec0b6"
        },
        "post" : {
            "London" : [
                {
                    "hash" : "0x057d3ee94cc804f615f786596a7328c21648cba4c8b78f7b354862172354d198",
                    "indexes" : {
                        "data" : 0,
                        "gas" : 0,
                        "value" : 0
                    },
                    "logs" : "0x1dcc4de8dec75d7aab85b567b6ccd41ad312451b948a7413f0a142fd40d49347",
                    "txbytes" : "0xf8c6010a8404c4b40094cccccccccccccccccccccccccccccccccccccccc80b864048071d300000000000000000000000000000000000000000000000000000000000000f000000000000000000000000000000000000000000000000000000000000000f300000000000000000000000000000000000000000000000000000000000001001ba0adc8a8542cc97c5b18f18ebf3cc84056ec5f21daad783bfde46636b58cb18008a040570038cee041ad21af5812e25bf93995d6edf0f331a63fdb6607ecb3760bfa"
                },
                {
                    "hash" : "0x78038f40f419ed618d321b3bde9ed7fcc023e9fcacddde83fab07c7e0b87f594",
                    "indexes" : {
                        "data" : 1,
                        "gas" : 0,
                        "value" : 0
                    },
                    "logs" : "0x1dcc4de8dec75d7aab85b567b6ccd41ad312451b948a7413f0a142fd40d49347",
                    "txbytes" : "0xf8c6010a8404c4b40094cccccccccccccccccccccccccccccccccccccccc80b864048071d300000000000000000000000000000000000000000000000000000000000000f500000000000000000000000000000000000000000000000000000000000000f300000000000000000000000000000000000000000000000000000000000001001ba04b480b3e27bae9848c9576e439e0011339ac049657ff499bd715fc8f14e1b967a068b02a77de4d471c24a48595907d7afef8e9f11330c940eecffe4f0ac36391ab"
                },
                {
                    "hash" : "0x9ac94003ca603a3efe706d877262ac73853de3a29558c1c6c2d3e90db139ec87",
                    "indexes" : {
                        "data" : 2,
                        "gas" : 0,
                        "value" : 0
                    },
                    "logs" : "0x1dcc4de8dec75d7aab85b567b6ccd41ad312451b948a7413f0a142fd40d49347",
                    "txbytes" : "0xf8c6010a8404c4b40094cccccccccccccccccccccccccccccccccccccccc80b864048071d300000000000000000000000000000000000000000000000000000000000000f000000000000000000000000000000000000000000000000000000000000000fd00000000000000000000000000000000000000000000000000000000000001001ca03eb30bf418af062bf845ca21ac2db4e596add6746a011ddb0978f69a846134d4a075677b407ae258e747b7124f9d856ab1b2324257b10444d822a7e524a7cd73f1"
                },
                {
                    "hash" : "0xae8277ef7cb1209ca7d2bbad1f366d34e4db67fc595e25cd88b81cb3536b8c5c",
                    "indexes" : {
                        "data" : 3,
                        "gas" : 0,
                        "value" : 0
                    },
                    "logs" : "0x1dcc4de8dec75d7aab85b567b6ccd41ad312451b948a7413f0a142fd40d49347",
                    "txbytes" : "0xf8c6010a8404c4b40094cccccccccccccccccccccccccccccccccccccccc80b864048071d300000000000000000000000000000000000000000000000000000000000000f500000000000000000000000000000000000000000000000000000000000000fd00000000000000000000000000000000000000000000000000000000000001001ba025ca9f8e7070a4face5435083d518c7b606d8be2ce4bf8d50008e0ecf848e75aa0426079d64f7706bb5baea1aac0f0cf9cac1d0a90762421847e26373e9923c385"
                },
                {
                    "hash" : "0x73080e2c64b8d7d986a065e5c453c9f5d036f1064f7fbc9ba9e40f2ae0bbaaef",
                    "indexes" : {
                        "data" : 4,
                        "gas" : 0,
                        "value" : 0
                    },
                    "logs" : "0x1dcc4de8dec75d7aab85b567b6ccd41ad312451b948a7413f0a142fd40d49347",
                    "txbytes" : "0xf8c6010a8404c4b40094cccccccccccccccccccccccccccccccccccccccc80b864048071d300000000000000000000000000000000000000000000000000000000000000f000000000000000000000000000000000000000000000000000000000000000f300000000000000000000000000000000000000000000000000000000000060001ca071073a0e953d929e3d6f6a6b05951b28d8baf133dfd875a42f3ca83dfdefe449a02ac9102470f246564877a670e7c12ae2d33932d716c9a7405dc7625f0c42a7e1"
                },
                {
                    "hash" : "0x0851c291221b3d294d9f7cc24870af844e974bf61e206c98e9dd8da3c62efe1c",
                    "indexes" : {
                        "data" : 5,
                        "gas" : 0,
                        "value" : 0
                    },
                    "logs" : "0x1dcc4de8dec75d7aab85b567b6ccd41ad312451b948a7413f0a142fd40d49347",
                    "txbytes" : "0xf8c6010a8404c4b40094cccccccccccccccccccccccccccccccccccccccc80b864048071d300000000000000000000000000000000000000000000000000000000000000f500000000000000000000000000000000000000000000000000000000000000f300000000000000000000000000000000000000000000000000000000000060001ca09bfc0ba1bf6f1dfea317e4f7ea20a375fa0c834fa4d37dd55a16d513b8fa93aba07952553990c3a0e036fdc7700496b8c3a8a2980e45f7bb49ca5e578190bfbe8d"
                },
                {
                    "hash" : "0xafc939fea5932d02397df3a92b689d52c2971234a0d5dad951f236726d2055b9",
                    "indexes" : {
                        "data" : 6,
                        "gas" : 0,
                        "value" : 0
                    },
                    "logs" : "0x1dcc4de8dec75d7aab85b567b6ccd41ad312451b948a7413f0a142fd40d49347",
                    "txbytes" : "0xf8c6010a8404c4b40094cccccccccccccccccccccccccccccccccccccccc80b864048071d300000000000000000000000000000000000000000000000000000000000000f000000000000000000000000000000000000000000000000000000000000000fd00000000000000000000000000000000000000000000000000000000000060001ba072b94310e8e3af3d245443012519520fd8a779d1ae41f2b8a964de77de290401a03879f00115259c54eee85c67a1c297323206281b573a78ffd5aed92e1c2cf4ed"
                },
                {
                    "hash" : "0x84fba90195cef0ff810686f62d6ca6d7169ca5bebe885a2257c080b592717d30",
                    "indexes" : {
                        "data" : 7,
                        "gas" : 0,
                        "value" : 0
                    },
                    "logs" : "0x1dcc4de8dec75d7aab85b567b6ccd41ad312451b948a7413f0a142fd40d49347",
                    "txbytes" : "0xf8c6010a8404c4b40094cccccccccccccccccccccccccccccccccccccccc80b864048071d300000000000000000000000000000000000000000000000000000000000000f500000000000000000000000000000000000000000000000000000000000000fd00000000000000000000000000000000000000000000000000000000000060001ca0a39401b24163d45ce9472600d5808640aca5be83e6ad2f6f23d9f5785f8faeaca0135eb98e763e8328b7d30028fb793daf1f63d375517e4b589f6c21ef52f7fd1c"
                },
                {
                    "hash" : "0x48bee0c7d151e67bc69a57a7af812f66305fe9d6930d10f4cf464a503641e044",
                    "indexes" : {
                        "data" : 8,
                        "gas" : 0,
                        "value" : 0
                    },
                    "logs" : "0x1dcc4de8dec75d7aab85b567b6ccd41ad312451b948a7413f0a142fd40d49347",
                    "txbytes" : "0xf8c6010a8404c4b40094cccccccccccccccccccccccccccccccccccccccc80b864048071d300000000000000000000000000000000000000000000000000000000000000f000000000000000000000000000000000000000000000000000000000000000f300000000000000000000000000000000000000000000000000000000000060011ca081a150b4c1e025b7fdb74455d89937e2289a7c7e3de72671d113be6fc300ceefa00910484c0b5bb509b3d3b27942e50fcf4c13af9e2aa4249c63d2a46e81b75b75"
                },
                {
                    "hash" : "0x944ff028e66c79cbe106a6a41a06b6d49e554788e94a2fd63151aec3c432865c",
                    "indexes" : {
                        "data" : 9,
                        "gas" : 0,
                        "value" : 0
                    },
                    "logs" : "0x1dcc4de8dec75d7aab85b567b6ccd41ad312451b948a7413f0a142fd40d49347",
                    "txbytes" : "0xf8c6010a8404c4b40094cccccccccccccccccccccccccccccccccccccccc80b864048071d300000000000000000000000000000000000000000000000000000000000000f500000000000000000000000000000000000000000000000000000000000000f300000000000000000000000000000000000000000000000000000000000060011ca09f578ce033c4ab6cc638318a5e9831e07028196cda8d6058663ad43dd6e30877a0349cfc76335cccd67302c829562c5f67df42120c87c834aa1167157018913a4b"
                },
                {
                    "hash" : "0xb65033e78f381efa76fc22b787b03f3f409f14745c488db571e4af4b7b3d1262",
                    "indexes" : {
                        "data" : 10,
                        "gas" : 0,
                        "value" : 0
                    },
                    "logs" : "0x1dcc4de8dec75d7aab85b567b6ccd41ad312451b948a7413f0a142fd40d49347",
                    "txbytes" : "0xf8c6010a8404c4b40094cccccccccccccccccccccccccccccccccccccccc80b864048071d300000000000000000000000000000000000000000000000000000000000000f000000000000000000000000000000000000000000000000000000000000000fd00000000000000000000000000000000000000000000000000000000000060011ca07e0bbc95298f34821a03ed4ca785443b034c11013c1c233265a7c745fff30ec3a07c4cb7086d577f441e20c76f9581a24cad7a555ea5133515c3066b188cf13cbc"
                },
                {
                    "hash" : "0xb1b59bc1d5a2c6dbbbe3031119535a03f5c2522363925512ff29c3115a90c389",
                    "indexes" : {
                        "data" : 11,
                        "gas" : 0,
                        "value" : 0
                    },
                    "logs" : "0x1dcc4de8dec75d7aab85b567b6ccd41ad312451b948a7413f0a142fd40d49347",
                    "txbytes" : "0xf8c6010a8404c4b40094cccccccccccccccccccccccccccccccccccccccc80b864048071d300000000000000000000000000000000000000000000000000000000000000f500000000000000000000000000000000000000000000000000000000000000fd00000000000000000000000000000000000000000000000000000000000060011ba01ec8e26c4a808e3245d8ec1d21314c46aaf9158ad6c9177767aec3e5d2761b49a0556d28ac61ce277d9603f3b6e8d0ea504a0210e71d026d6950905de264b77479"
                },
                {
                    "hash" : "0xd6e68e49e42e3a7f6580c08253af155422f1dc9191980ce7f5c872b372290fa5",
                    "indexes" : {
                        "data" : 12,
                        "gas" : 0,
                        "value" : 0
                    },
                    "logs" : "0x1dcc4de8dec75d7aab85b567b6ccd41ad312451b948a7413f0a142fd40d49347",
                    "txbytes" : "0xf8c6010a8404c4b40094cccccccccccccccccccccccccccccccccccccccc80b864048071d300000000000000000000000000000000000000000000000000000000000000f000000000000000000000000000000000000000000000000000000000000000f3000000000000000000000000000000000000000000000000000000000000c0001ba08151b5a68d356ada4d5da39f5f654f6f55f15dd041498b675579ddc0f4c4e21ea0474f72a6688dbe9cc63ca45185ea86261877553d6d7a6168f144c1b537fe3a95"
                },
                {
                    "hash" : "0x944ff028e66c79cbe106a6a41a06b6d49e554788e94a2fd63151aec3c432865c",
                    "indexes" : {
                        "data" : 13,
                        "gas" : 0,
                        "value" : 0
                    },
                    "logs" : "0x1dcc4de8dec75d7aab85b567b6ccd41ad312451b948a7413f0a142fd40d49347",
                    "txbytes" : "0xf8c6010a8404c4b40094cccccccccccccccccccccccccccccccccccccccc80b864048071d300000000000000000000000000000000000000000000000000000000000000f500000000000000000000000000000000000000000000000000000000000000f3000000000000000000000000000000000000000000000000000000000000c0001ba0faa7964d408c4ba0e17ff313c38258b9937367d2f1502c3c976ded441cc6c904a061f8025a7910068249697874ba911b5ef183f90e4effda635a9ebccdc01064d4"
                },
                {
                    "hash" : "0x39d28a9c464f3ba0aad255befc5037c34ea0170fae476be837e92cff4f15d3e8",
                    "indexes" : {
                        "data" : 14,
                        "gas" : 0,
                        "value" : 0
                    },
                    "logs" : "0x1dcc4de8dec75d7aab85b567b6ccd41ad312451b948a7413f0a142fd40d49347",
                    "txbytes" : "0xf8c6010a8404c4b40094cccccccccccccccccccccccccccccccccccccccc80b864048071d300000000000000000000000000000000000000000000000000000000000000f000000000000000000000000000000000000000000000000000000000000000fd000000000000000000000000000000000000000000000000000000000000c0001ca0734b4cf78bbbeca59f7b90d9dbf7e561ef984d331455af25587464bb5e7c9a6ea02cfdc16a2b4d18a69c37b72dc56b79a479990992f0957ea0576d32df0a80b29d"
                },
                {
                    "hash" : "0xee36592a3fa1409ab7d95463a4bffcd4544585774d9b9cedfe928a718afe7e6f",
                    "indexes" : {
                        "data" : 15,
                        "gas" : 0,
                        "value" : 0
                    },
                    "logs" : "0x1dcc4de8dec75d7aab85b567b6ccd41ad312451b948a7413f0a142fd40d49347",
                    "txbytes" : "0xf8c6010a8404c4b40094cccccccccccccccccccccccccccccccccccccccc80b864048071d300000000000000000000000000000000000000000000000000000000000000f500000000000000000000000000000000000000000000000000000000000000fd000000000000000000000000000000000000000000000000000000000000c0001ba05ada786b503538e405be2ae8ec845c068bccd1e41179fd9267168d43d1e268a7a025725946853ad348d782995840aa5ef3030bc51badaec6bafd4c90f33160ac04"
                }
            ]
        },
        "pre" : {
            "0x000000000000000000000000000000000000c0de" : {
                "balance" : "0x00",
                "code" : "0x600019600052602061010061010039610100516000f3",
                "nonce" : "0x01",
                "storage" : {
                }
            },
            "0xa94f5374fce5edbc8e2a8697c15331677e6ebf0b" : {
                "balance" : "0x0ba1a9ce0ba1a9ce",
                "code" : "0x",
                "nonce" : "0x01",
                "storage" : {
                }
            },
            "0xcccccccccccccccccccccccccccccccccccccccc" : {
                "balance" : "0x0ba1a9ce0ba1a9ce",
                "code" : "0x60043560243560443561c0de3b806000600061c0de3c826001820353816101005260008460f0811460355760f581146043576051565b61012060006000f091506051565b615a1761012060006000f591505b50806000555a600155803f6002555050505050",
                "nonce" : "0x01",
                "storage" : {
                }
            }
        },
        "transaction" : {
            "data" : [
                "0x048071d300000000000000000000000000000000000000000000000000000000000000f000000000000000000000000000000000000000000000000000000000000000f30000000000000000000000000000000000000000000000000000000000000100",
                "0x048071d300000000000000000000000000000000000000000000000000000000000000f500000000000000000000000000000000000000000000000000000000000000f30000000000000000000000000000000000000000000000000000000000000100",
                "0x048071d300000000000000000000000000000000000000000000000000000000000000f000000000000000000000000000000000000000000000000000000000000000fd0000000000000000000000000000000000000000000000000000000000000100",
                "0x048071d300000000000000000000000000000000000000000000000000000000000000f500000000000000000000000000000000000000000000000000000000000000fd0000000000000000000000000000000000000000000000000000000000000100",
                "0x048071d300000000000000000000000000000000000000000000000000000000000000f000000000000000000000000000000000000000000000000000000000000000f30000000000000000000000000000000000000000000000000000000000006000",
                "0x048071d300000000000000000000000000000000000000000000000000000000000000f500000000000000000000000000000000000000000000000000000000000000f30000000000000000000000000000000000000000000000000000000000006000",
                "0x048071d300000000000000000000000000000000000000000000000000000000000000f000000000000000000000000000000000000000000000000000000000000000fd0000000000000000000000000000000000000000000000000000000000006000",
                "0x048071d300000000000000000000000000000000000000000000000000000000000000f500000000000000000000000000000000000000000000000000000000000000fd0000000000000000000000000000000000000000000000000000000000006000",
                "0x048071d300000000000000000000000000000000000000000000000000000000000000f000000000000000000000000000000000000000000000000000000000000000f30000000000000000000000000000000000000000000000000000000000006001",
                "0x048071d300000000000000000000000000000000000000000000000000000000000000f500000000000000000000000000000000000000000000000000000000000000f30000000000000000000000000000000000000000000000000000000000006001",
                "0x048071d300000000000000000000000000000000000000000000000000000000000000f000000000000000000000000000000000000000000000000000000000000000fd0000000000000000000000000000000000000000000000000000000000006001",
                "0x048071d300000000000000000000000000000000000000000000000000000000000000f500000000000000000000000000000000000000000000000000000000000000fd0000000000000000000000000000000000000000000000000000000000006001",
                "0x048071d300000000000000000000000000000000000000000000000000000000000000f000000000000000000000000000000000000000000000000000000000000000f3000000000000000000000000000000000000000000000000000000000000c000",
                "0x048071d300000000000000000000000000000000000000000000000000000000000000f500000000000000000000000000000000000000000000000000000000000000f3000000000000000000000000000000000000000000000000000000000000c000",
                "0x048071d300000000000000000000000000000000000000000000000000000000000000f000000000000000000000000000000000000000000000000000000000000000fd000000000000000000000000000000000000000000000000000000000000c000",
                "0x048071d300000000000000000000000000000000000000000000000000000000000000f500000000000000000000000000000000000000000000000000000000000000fd000000000000000000000000000000000000000000000000000000000000c000"
            ],
            "gasLimit" : [
                "0x04c4b400"
            ],
            "gasPrice" : "0x0a",
            "nonce" : "0x01",
            "secretKey" : "0x45a915e4d060149eb4365960e6a7a45f334393093061116b197e3240065ff2d8",
            "sender" : "0xa94f5374fce5edbc8e2a8697c15331677e6ebf0b",
            "to" : "0xcccccccccccccccccccccccccccccccccccccccc",
            "value" : [
                "0x00"
            ]
        }
    }
}