{
    "CreateOOGafterInitCodeRevert" : {
        "_info" : {
            "comment" : "Calls a contract that runs CREATE which deploy a code. then after deployment and exiting from CREATE a REVERT is called. check the REVERT data in this case equal to RETURN value of CREATE",
            "filling-rpc-server" : "evm version 1.13.13-unstable-034bc466-20240219",
            "filling-tool-version" : "retesteth-0.3.2-cancun+commit.014a68a5.Linux.g++",
            "generatedTestHash" : "1986d9bb0cd81608e18c1a0e11f4229098d94f47be9db6eb8c85d8d70c7dcc01",
            "lllcversion" : "Version: 0.5.14-develop.2023.7.11+commit.c58ab2c6.mod.Linux.g++",
            "solidity" : "Version: 0.8.21+commit.d9974bed.Linux.g++",
            "source" : "src/GeneralStateTestsFiller/stCreateTest/CreateOOGafterInitCodeRevertFiller.json",
            "sourceHash" : "cdc23e81377cdaa13602dd653fdc3296335a60ed06fc47092dd1bbf8e2da124a"
        },
        "env" : {
            "currentBaseFee" : "0x0a",
            "currentCoinbase" : "0x2adc25665018aa1fe0e6bc666dac8fc2697ff9ba",
            "currentDifficulty" : "0x020000",
            "currentExcessBlobGas" : "0x00",
            "currentGasLimit" : "0x989680",
            "currentNumber" : "0x01",
            "currentRandom" : "0x0000000000000000000000000000000000000000000000000000000000020000",
            "currentTimestamp" : "0x03e8"
        },
        "post" : {
            "Berlin" : [
                {
                    "hash" : "0x8ae4ab939cdb8d2d3f4ad13f92f40b0dc7dc9d8671efbad025614162f89aa464",
                    "indexes" : {
                        "data" : 0,
                        "gas" : 0,
                        "value" : 0
                    },
                    "logs" : "0x1dcc4de8dec75d7aab85b567b6ccd41ad312451b948a7413f0a142fd40d49347",
                    "txbytes" : "0xf860800a8304594894c94f5374fce5edbc8e2a8697c15331677e6ebf0b80801ca027eb6159091d11652e4b5b287efcf95c85a667cbc548adf8dd31688e1c2413eca061bfd90c21d4c3ba6b1fa2eb5bc2f7a9f1cd29f58f073f8488429d33c7e022e3"
                }
            ],
            "Cancun" : [
                {
                    "hash" : "0x568fdbea41a9e4e64bed78a90f7e15bddae41dd61f13e05c9f7cee6ad28bf251",
                    "indexes" : {
                        "data" : 0,
                        "gas" : 0,
                        "value" : 0
                    },
                    "logs" : "0x1dcc4de8dec75d7aab85b567b6ccd41ad312451b948a7413f0a142fd40d49347",
                    "txbytes" : "0xf860800a8304594894c94f5374fce5edbc8e2a8697c15331677e6ebf0b80801ca027eb6159091d11652e4b5b287efcf95c85a667cbc548adf8dd31688e1c2413eca061bfd90c21d4c3ba6b1fa2eb5bc2f7a9f1cd29f58f073f8488429d33c7e022e3"
                }
            ],
            "Istanbul" : [
                {
                    "hash" : "0xe99a167c8664c3647b4e0776c0e1449c564d6a5f9d57280e1ff1a4033641c193",
                    "indexes" : {
                        "data" : 0,
                        "gas" : 0,
                        "value" : 0
                    },
                    "logs" : "0x1dcc4de8dec75d7aab85b567b6ccd41ad312451b948a7413f0a142fd40d49347",
                    "txbytes" : "0xf860800a8304594894c94f5374fce5edbc8e2a8697c15331677e6ebf0b80801ca027eb6159091d11652e4b5b287efcf95c85a667cbc548adf8dd31688e1c2413eca061bfd90c21d4c3ba6b1fa2eb5bc2f7a9f1cd29f58f073f8488429d33c7e022e3"
                }
            ],
            "London" : [
                {
                    "hash" : "0xd3ca1c531dc4b6f15b81bed91d7fd572f52278dbf0f6b97803cf3b76a30a3904",
                    "indexes" : {
                        "data" : 0,
                        "gas" : 0,
                        "value" : 0
                    },
                    "logs" : "0x1dcc4de8dec75d7aab85b567b6ccd41ad312451b948a7413f0a142fd40d49347",
                    "txbytes" : "0xf860800a8304594894c94f5374fce5edbc8e2a8697c15331677e6ebf0b80801ca027eb6159091d11652e4b5b287efcf95c85a667cbc548adf8dd31688e1c2413eca061bfd90c21d4c3ba6b1fa2eb5bc2f7a9f1cd29f58f073f8488429d33c7e022e3"
                }
            ],
            "Paris" : [
                {
                    "hash" : "0xd3ca1c531dc4b6f15b81bed91d7fd572f52278dbf0f6b97803cf3b76a30a3904",
                    "indexes" : {
                        "data" : 0,
                        "gas" : 0,
                        "value" : 0
                    },
                    "logs" : "0x1dcc4de8dec75d7aab85b567b6ccd41ad312451b948a7413f0a142fd40d49347",
                    "txbytes" : "0xf860800a8304594894c94f5374fce5edbc8e2a8697c15331677e6ebf0b80801ca027eb6159091d11652e4b5b287efcf95c85a667cbc548adf8dd31688e1c2413eca061bfd90c21d4c3ba6b1fa2eb5bc2f7a9f1cd29f58f073f8488429d33c7e022e3"
                }
            ],
            "Shanghai" : [
                {
                    "hash" : "0x1ac09e988bacda71b10e7f68809ef7eab6b9874c62616aad9c474afca7dbc7bb",
                    "indexes" : {
                        "data" : 0,
                        "gas" : 0,
                        "value" : 0
                    },
                    "logs" : "0x1dcc4de8dec75d7aab85b567b6ccd41ad312451b948a7413f0a142fd40d49347",
                    "txbytes" : "0xf860800a8304594894c94f5374fce5edbc8e2a8697c15331677e6ebf0b80801ca027eb6159091d11652e4b5b287efcf95c85a667cbc548adf8dd31688e1c2413eca061bfd90c21d4c3ba6b1fa2eb5bc2f7a9f1cd29f58f073f8488429d33c7e022e3"
                }
            ]
        },
        "pre" : {
            "0x000f3df6d732807ef1319fb7b8bb8522d0beac02" : {
                "balance" : "0x00",
                "code" : "0x3373fffffffffffffffffffffffffffffffffffffffe14604d57602036146024575f5ffd5b5f35801560495762001fff810690815414603c575f5ffd5b62001fff01545f5260205ff35b5f5ffd5b62001fff42064281555f359062001fff015500",
                "nonce" : "0x01",
                "storage" : {
                }
            },
            "0x094f5374fce5edbc8e2a8697c15331677e6ebf0b" : {
                "balance" : "0x00",
                "code" : "0x622fffff60002000",
                "nonce" : "0x00",
                "storage" : {
                }
            },
            "0xa94f5374fce5edbc8e2a8697c15331677e6ebf0b" : {
                "balance" : "0xe8d4a51000",
                "code" : "0x",
                "nonce" : "0x00",
                "storage" : {
                }
            },
            "0xb94f5374fce5edbc8e2a8697c15331677e6ebf0b" : {
                "balance" : "0x00",
                "code" : "0x6d6460016001556000526005601bf3600052600e60126000f0506000600060006000600073094f5374fce5edbc8e2a8697c15331677e6ebf0b612710f25060206000fd00",
                "nonce" : "0x00",
                "storage" : {
                }
            },
            "0xc94f5374fce5edbc8e2a8697c15331677e6ebf0b" : {
                "balance" : "0x00",
                "code" : "0x6020600060006000600073b94f5374fce5edbc8e2a8697c15331677e6ebf0b5af15060005160015500",
                "nonce" : "0x00",
                "storage" : {
                }
            }
        },
        "transaction" : {
            "data" : [
                "0x"
            ],
            "gasLimit" : [
                "0x045948"
            ],
            "gasPrice" : "0x0a",
            "nonce" : "0x00",
            "secretKey" : "0x45a915e4d060149eb4365960e6a7a45f334393093061116b197e3240065ff2d8",
            "sender" : "0xa94f5374fce5edbc8e2a8697c15331677e6ebf0b",
            "to" : "0xc94f5374fce5edbc8e2a8697c15331677e6ebf0b",
            "value" : [
                "0x00"
            ]
        }
    }
}