{
    "CREATE2_RefundEF" : {
        "_info" : {
            "comment" : "Test combination of gas refund and EF-prefixed CREATE2 failure.\n",
            "filling-rpc-server" : "evm version 1.13.13-unstable-034bc466-20240219",
            "filling-tool-version" : "retesteth-0.3.2-cancun+commit.014a68a5.Linux.g++",
            "generatedTestHash" : "a10207289f88f83db2242ccbdb8a775a62ce8099ef3ed3599a30f2ad62081dea",
            "lllcversion" : "Version: 0.5.14-develop.2023.7.11+commit.c58ab2c6.mod.Linux.g++",
            "solidity" : "Version: 0.8.21+commit.d9974bed.Linux.g++",
            "source" : "src/GeneralStateTestsFiller/stCreateTest/CREATE2_RefundEFFiller.yml",
            "sourceHash" : "468d3e2abe8161161ed2443eb2d96ca8b6cffaa2b9939ab92da2b62358b42eea"
        },
        "env" : {
            "currentBaseFee" : "0x0a",
            "currentCoinbase" : "0xa94f5374fce5edbc8e2a8697c15331677e6ebf0b",
            "currentDifficulty" : "0x01",
            "currentExcessBlobGas" : "0x00",
            "currentGasLimit" : "0x0f4240",
            "currentNumber" : "0x01",
            "currentRandom" : "0x0000000000000000000000000000000000000000000000000000000000000001",
            "currentTimestamp" : "0x03e8"
        },
        "post" : {
            "Berlin" : [
                {
                    "hash" : "0xf14205f6ce78fe1172692acd231e38d44dc2790ac592e6af2bb671bc9fdefe2d",
                    "indexes" : {
                        "data" : 0,
                        "gas" : 0,
                        "value" : 0
                    },
                    "logs" : "0x1dcc4de8dec75d7aab85b567b6ccd41ad312451b948a7413f0a142fd40d49347",
                    "txbytes" : "0xf860800a830186a094000000000000000000000000000000000c5ea70580801ba0be1a87855d5fb33c626d3ffe010a72025f2e49bbdfea9990f7673e0accac0106a07772ddb064c02f526a94d0efbc15f386f98524e3d23a36400835a66121dde245"
                }
            ],
            "Cancun" : [
                {
                    "hash" : "0xac2bdbd8d73c29bff730ce40670b33f65a5000eb0f584191dfbb3688b5bb4e63",
                    "indexes" : {
                        "data" : 0,
                        "gas" : 0,
                        "value" : 0
                    },
                    "logs" : "0x1dcc4de8dec75d7aab85b567b6ccd41ad312451b948a7413f0a142fd40d49347",
                    "txbytes" : "0xf860800a830186a094000000000000000000000000000000000c5ea70580801ba0be1a87855d5fb33c626d3ffe010a72025f2e49bbdfea9990f7673e0accac0106a07772ddb064c02f526a94d0efbc15f386f98524e3d23a36400835a66121dde245"
                }
            ],
            "London" : [
                {
                    "hash" : "0x8624b3948764b26ad1aa61d56925a995f08c19215ce6b8106e2eb4513c16dc5c",
                    "indexes" : {
                        "data" : 0,
                        "gas" : 0,
                        "value" : 0
                    },
                    "logs" : "0x1dcc4de8dec75d7aab85b567b6ccd41ad312451b948a7413f0a142fd40d49347",
                    "txbytes" : "0xf860800a830186a094000000000000000000000000000000000c5ea70580801ba0be1a87855d5fb33c626d3ffe010a72025f2e49bbdfea9990f7673e0accac0106a07772ddb064c02f526a94d0efbc15f386f98524e3d23a36400835a66121dde245"
                }
            ],
            "Paris" : [
                {
                    "hash" : "0x8624b3948764b26ad1aa61d56925a995f08c19215ce6b8106e2eb4513c16dc5c",
                    "indexes" : {
                        "data" : 0,
                        "gas" : 0,
                        "value" : 0
                    },
                    "logs" : "0x1dcc4de8dec75d7aab85b567b6ccd41ad312451b948a7413f0a142fd40d49347",
                    "txbytes" : "0xf860800a830186a094000000000000000000000000000000000c5ea70580801ba0be1a87855d5fb33c626d3ffe010a72025f2e49bbdfea9990f7673e0accac0106a07772ddb064c02f526a94d0efbc15f386f98524e3d23a36400835a66121dde245"
                }
            ],
            "Shanghai" : [
                {
                    "hash" : "0x8624b3948764b26ad1aa61d56925a995f08c19215ce6b8106e2eb4513c16dc5c",
                    "indexes" : {
                        "data" : 0,
                        "gas" : 0,
                        "value" : 0
                    },
                    "logs" : "0x1dcc4de8dec75d7aab85b567b6ccd41ad312451b948a7413f0a142fd40d49347",
                    "txbytes" : "0xf860800a830186a094000000000000000000000000000000000c5ea70580801ba0be1a87855d5fb33c626d3ffe010a72025f2e49bbdfea9990f7673e0accac0106a07772ddb064c02f526a94d0efbc15f386f98524e3d23a36400835a66121dde245"
                }
            ]
        },
        "pre" : {
            "0x00000000000000000000000000000000005ef94d" : {
                "balance" : "0x00",
                "code" : "0x6000805500",
                "nonce" : "0x00",
                "storage" : {
                    "0x00" : "0x01"
                }
            },
            "0x000000000000000000000000000000000c5ea705" : {
                "balance" : "0x00",
                "code" : "0x6000601980601183398180f560005500fe600080808080625ef94d61c350f15060ef60005360016000f3",
                "nonce" : "0x00",
                "storage" : {
                }
            },
            "0x000f3df6d732807ef1319fb7b8bb8522d0beac02" : {
                "balance" : "0x00",
                "code" : "0x3373fffffffffffffffffffffffffffffffffffffffe14604d57602036146024575f5ffd5b5f35801560495762001fff810690815414603c575f5ffd5b62001fff01545f5260205ff35b5f5ffd5b62001fff42064281555f359062001fff015500",
                "nonce" : "0x01",
                "storage" : {
                }
            },
            "0xa94f5374fce5edbc8e2a8697c15331677e6ebf0b" : {
                "balance" : "0x5af3107a4000",
                "code" : "0x",
                "nonce" : "0x00",
                "storage" : {
                }
            }
        },
        "transaction" : {
            "data" : [
                "0x"
            ],
            "gasLimit" : [
                "0x0186a0"
            ],
            "gasPrice" : "0x0a",
            "nonce" : "0x00",
            "secretKey" : "0x45a915e4d060149eb4365960e6a7a45f334393093061116b197e3240065ff2d8",
            "sender" : "0xa94f5374fce5edbc8e2a8697c15331677e6ebf0b",
            "to" : "0x000000000000000000000000000000000c5ea705",
            "value" : [
                "0x00"
            ]
        }
    }
}