{
    "CreateOOGafterMaxCodesize" : {
        "_info" : {
            "comment" : "",
            "filling-rpc-server" : "evm version 1.10.16-unstable-0f893109-20220105",
            "filling-tool-version" : "retesteth-0.2.2-testinfo+commit.01c6aac2.Linux.g++",
            "generatedTestHash" : "319a82dae60c9fdf9ec8ed1485d65c72e03871c177e6fa3a55d2ec0055718c59",
            "labels" : {
                "0" : "LowContractCount_NoDelegateCreate_CallCreateOOG",
                "1" : "LowContractCount_DelegateCreate_CallCreateOOG",
                "2" : "LowContractCount_DelegateCreate_CallCreate_SelfDestruct",
                "3" : "HighContractCount_NoDelegateCreate_CallCreateOOG",
                "4" : "HighContractCount_DelegateCreate_CallCreateOOG",
                "5" : "HighContractCount_DelegateCreate_CallCreate_SelfDestruct"
            },
            "lllcversion" : "Version: 0.5.14-develop.2021.11.27+commit.401d5358.Linux.g++",
            "solidity" : "Version: 0.8.5+commit.a4f2e591.Linux.g++",
            "source" : "src/GeneralStateTestsFiller/stCreateTest/CreateOOGafterMaxCodesizeFiller.yml",
            "sourceHash" : "265ad29d7246cf19e645f55d86e6fec396bc8725dc6718a073f0475897e8fa3c"
        },
        "env" : {
            "currentBaseFee" : "0x0a",
            "currentCoinbase" : "0x2adc25665018aa1fe0e6bc666dac8fc2697ff9ba",
            "currentDifficulty" : "0x020000",
            "currentGasLimit" : "0x0100000000",
            "currentNumber" : "0x01",
            "currentTimestamp" : "0x03e8",
            "previousHash" : "0x5e20a0453cecd065ea59c37ac63e079ee08998b6045136a8ce6635c7912ec0b6"
        },
        "post" : {
            "London" : [
                {
                    "hash" : "0x527aebea09f8cff7d14b74dbc71db627f5a033361de2f9800f3fee042b6b888a",
                    "indexes" : {
                        "data" : 0,
                        "gas" : 0,
                        "value" : 0
                    },
                    "logs" : "0x1dcc4de8dec75d7aab85b567b6ccd41ad312451b948a7413f0a142fd40d49347",
                    "txbytes" : "0xf8e7800a8501000000009400000000000000000000000000000000000c0dea80b884a6f227c00000000000000000000000000000000000000000000000000000000000000000000000000000000000000000000000000000000000000000000000000000000a000000000000000000000000000000000000000000000000000000000000000100000000000000000000000000000000000000000000000000000000000000001ca05c698c89240f08eda2e2d678a53a63d48261d4d71da22f163e5f4d9507ba9c32a02faf9b7a967b88fed493e556295716f803ebf68f0a991d1935f29a56bb7d578d"
                },
                {
                    "hash" : "0xaa4e48fcd0ff9fb36efb3176e20497f2a3eb62b915c91e051b895a4d8268edce",
                    "indexes" : {
                        "data" : 1,
                        "gas" : 0,
                        "value" : 0
                    },
                    "logs" : "0x1dcc4de8dec75d7aab85b567b6ccd41ad312451b948a7413f0a142fd40d49347",
                    "txbytes" : "0xf8e7800a8501000000009400000000000000000000000000000000000c0dea80b884a6f227c0000000000000000000000000000000000000000000000000000000000000000a000000000000000000000000000000000000000000000000000000000000000a000000000000000000000000000000000000000000000000000000000000000100000000000000000000000000000000000000000000000000000000000000001ba0296515874d707f54be818e0a8a5fe37f4d248a7be1751ed7f443e7f1747472f8a03bcca7b24c7aca5c56f27a5c9c4b6c550293406fc1ffd7b26620a8e22edd19c7"
                },
                {
                    "hash" : "0x6ca9b6f80e9dbd25d125882280ffcdca576ff10e5e020a9c1ff384dee7fda955",
                    "indexes" : {
                        "data" : 2,
                        "gas" : 0,
                        "value" : 0
                    },
                    "logs" : "0x1dcc4de8dec75d7aab85b567b6ccd41ad312451b948a7413f0a142fd40d49347",
                    "txbytes" : "0xf8e7800a8501000000009400000000000000000000000000000000000c0dea80b884a6f227c0000000000000000000000000000000000000000000000000000000000000000a000000000000000000000000000000000000000000000000000000000000000a0000000000000000000000000000000000000000000000000000000000000000000000000000000000000000000000000000000000000000000000000000000e1ba00f1bdf006744048a7988183b373e200b8cc4d15d4a35d92003103391e005b50fa0086f4dec0b3847b12c0ba87291de8af843ccfacc4760353c4a02d5d5de7392f7"
                },
                {
                    "hash" : "0x41fd9bb5183950d14bed0b621d2df11c52b29bf32c02038e69dd30fc5c715256",
                    "indexes" : {
                        "data" : 3,
                        "gas" : 0,
                        "value" : 0
                    },
                    "logs" : "0x1dcc4de8dec75d7aab85b567b6ccd41ad312451b948a7413f0a142fd40d49347",
                    "txbytes" : "0xf8e7800a8501000000009400000000000000000000000000000000000c0dea80b884a6f227c0000000000000000000000000000000000000000000000000000000000000000000000000000000000000000000000000000000000000000000000000000000fa000000000000000000000000000000000000000000000000000000000000000100000000000000000000000000000000000000000000000000000000000000001ca013cb18c8a2d22fc4328622c1c7e2cc2c41cdc7770eaf891994f185de521c401ba0300fcfab3dedd33a0c7bc00ff617fbdd0fcbc767924e9d8f190c59b714c255f2"
                },
                {
                    "hash" : "0xf4334f20b2931e5446bec174500782bdc7659ba3456af541c371174067652089",
                    "indexes" : {
                        "data" : 4,
                        "gas" : 0,
                        "value" : 0
                    },
                    "logs" : "0x1dcc4de8dec75d7aab85b567b6ccd41ad312451b948a7413f0a142fd40d49347",
                    "txbytes" : "0xf8e7800a8501000000009400000000000000000000000000000000000c0dea80b884a6f227c000000000000000000000000000000000000000000000000000000000000000fa00000000000000000000000000000000000000000000000000000000000000fa000000000000000000000000000000000000000000000000000000000000000100000000000000000000000000000000000000000000000000000000000000001ba00b21f45fe64e6aba8d3bade62ed7fbf2e5fb1515540afd17b9d8964ed1dc38b1a016ef18f9f4408b6394d1d49831d773971aa386f8abbb235842a99cff08cd7022"
                },
                {
                    "hash" : "0x852a3eee5e93ba339cd80688c3d431b1d125d9f662085a336b3d296d5fad3f28",
                    "indexes" : {
                        "data" : 5,
                        "gas" : 0,
                        "value" : 0
                    },
                    "logs" : "0x1dcc4de8dec75d7aab85b567b6ccd41ad312451b948a7413f0a142fd40d49347",
                    "txbytes" : "0xf8e7800a8501000000009400000000000000000000000000000000000c0dea80b884a6f227c000000000000000000000000000000000000000000000000000000000000000fa00000000000000000000000000000000000000000000000000000000000000fa000000000000000000000000000000000000000000000000000000000000000000000000000000000000000000000000000000000000000000000000000001ee1ba0ff8bb3085619b656c3f5a7397758a6c64f19a546b18c117a1787bf9d97cc3c1da07fc487bff20fbf11200c819ae29086011784971b247fed6dfb7531e59ab834da"
                }
            ]
        },
        "pre" : {
            "0x00000000000000000000000000000000000c0de0" : {
                "balance" : "0x00",
                "code" : "0x386000556000361115600f576000ff5b",
                "nonce" : "0x00",
                "storage" : {
                }
            },
            "0x00000000000000000000000000000000000c0de1" : {
                "balance" : "0x00",
                "code" : "0x620c0de0803b60006000833c6160006000f350",
                "nonce" : "0x00",
                "storage" : {
                }
            },
            "0x00000000000000000000000000000000000c0dea" : {
                "balance" : "0x00",
                "code" : "0x600435602435604435606435836000526000602052604060208502808260406000620c0deb60025a04f4600081141560375760006000fd5b85600052846020526020870260400192506020860291508183604060006000620c0deb60025a04f190506000811415607857600085141560775760006000fd5b5b86600086141560875786880190505b60005b8181101560b757602081026040015160006000600060006000856103e85a03f150505b600181019050608a565b5060005b8581101560e857602081026040015160006000600160006000856103e85a03f150505b60018101905060bb565b505050505050505050",
                "nonce" : "0x01",
                "storage" : {
                }
            },
            "0x00000000000000000000000000000000000c0deb" : {
                "balance" : "0x00",
                "code" : "0x6001600155600035602035620c0de1803b8060006000843c60005b84811015603b578160006000f08060208302840152505b600181019050601a565b506000831115604657fe5b6020840281f350505050",
                "nonce" : "0x01",
                "storage" : {
                }
            },
            "0xa94f5374fce5edbc8e2a8697c15331677e6ebf0b" : {
                "balance" : "0x0ba1a9ce0ba1a9ce",
                "code" : "0x",
                "nonce" : "0x00",
                "storage" : {
                }
            }
        },
        "transaction" : {
            "data" : [
                "0xa6f227c00000000000000000000000000000000000000000000000000000000000000000000000000000000000000000000000000000000000000000000000000000000a00000000000000000000000000000000000000000000000000000000000000010000000000000000000000000000000000000000000000000000000000000000",
                "0xa6f227c0000000000000000000000000000000000000000000000000000000000000000a000000000000000000000000000000000000000000000000000000000000000a00000000000000000000000000000000000000000000000000000000000000010000000000000000000000000000000000000000000000000000000000000000",
                "0xa6f227c0000000000000000000000000000000000000000000000000000000000000000a000000000000000000000000000000000000000000000000000000000000000a0000000000000000000000000000000000000000000000000000000000000000000000000000000000000000000000000000000000000000000000000000000e",
                "0xa6f227c0000000000000000000000000000000000000000000000000000000000000000000000000000000000000000000000000000000000000000000000000000000fa00000000000000000000000000000000000000000000000000000000000000010000000000000000000000000000000000000000000000000000000000000000",
                "0xa6f227c000000000000000000000000000000000000000000000000000000000000000fa00000000000000000000000000000000000000000000000000000000000000fa00000000000000000000000000000000000000000000000000000000000000010000000000000000000000000000000000000000000000000000000000000000",
                "0xa6f227c000000000000000000000000000000000000000000000000000000000000000fa00000000000000000000000000000000000000000000000000000000000000fa000000000000000000000000000000000000000000000000000000000000000000000000000000000000000000000000000000000000000000000000000001ee"
            ],
            "gasLimit" : [
                "0x0100000000"
            ],
            "gasPrice" : "0x0a",
            "nonce" : "0x00",
            "secretKey" : "0x45a915e4d060149eb4365960e6a7a45f334393093061116b197e3240065ff2d8",
            "sender" : "0xa94f5374fce5edbc8e2a8697c15331677e6ebf0b",
            "to" : "0x00000000000000000000000000000000000c0dea",
            "value" : [
                "0x00"
            ]
        }
    }
}